{
    "schemaVersion": "2.0.0",
    "contractName": "BalancerV2Sampler",
    "compilerOutput": {
        "abi": [
            {
                "inputs": [
                    {
                        "components": [
                            {
                                "internalType": "bytes32",
                                "name": "poolId",
                                "type": "bytes32"
                            },
                            {
                                "internalType": "address",
                                "name": "vault",
                                "type": "address"
                            }
                        ],
                        "internalType": "struct BalancerV2Sampler.BalancerV2PoolInfo",
                        "name": "poolInfo",
                        "type": "tuple"
                    },
                    {
                        "internalType": "address",
                        "name": "takerToken",
                        "type": "address"
                    },
                    {
                        "internalType": "address",
                        "name": "makerToken",
                        "type": "address"
                    }
                ],
                "name": "sampleBuysFromBalancerV2Global",
                "outputs": [
                    {
                        "internalType": "uint256[]",
                        "name": "takerTokenAmounts",
                        "type": "uint256[]"
                    }
                ],
                "stateMutability": "nonpayable",
                "type": "function"
            },
            {
                "inputs": [
                    {
                        "components": [
                            {
                                "internalType": "bytes32",
                                "name": "poolId",
                                "type": "bytes32"
                            },
                            {
                                "internalType": "address",
                                "name": "vault",
                                "type": "address"
                            }
                        ],
                        "internalType": "struct BalancerV2Sampler.BalancerV2PoolInfo",
                        "name": "poolInfo",
                        "type": "tuple"
                    },
                    {
                        "internalType": "address",
                        "name": "takerToken",
                        "type": "address"
                    },
                    {
                        "internalType": "address",
                        "name": "makerToken",
                        "type": "address"
                    }
                ],
                "name": "sampleSellsFromBalancerV2Global",
                "outputs": [
                    {
                        "internalType": "uint256[]",
                        "name": "makerTokenAmounts",
                        "type": "uint256[]"
                    }
                ],
                "stateMutability": "nonpayable",
                "type": "function"
            },
            {
                "inputs": [
                    {
                        "internalType": "uint256[]",
                        "name": "sampleValues",
                        "type": "uint256[]"
                    }
                ],
                "name": "setSampleValues",
                "outputs": [],
                "stateMutability": "nonpayable",
                "type": "function"
            }
        ],
        "devdoc": {
            "kind": "dev",
            "methods": {
                "sampleBuysFromBalancerV2Global((bytes32,address),address,address)": {
                    "details": "Sample buy quotes from Balancer V2.",
                    "params": {
                        "makerToken": "Address of the maker token (what to buy).",
                        "poolInfo": "Struct with pool related data",
                        "takerToken": "Address of the taker token (what to sell)."
                    },
                    "returns": {
                        "takerTokenAmounts": "Taker amounts sold at each maker token         amount."
                    }
                },
                "sampleSellsFromBalancerV2Global((bytes32,address),address,address)": {
                    "details": "Sample sell quotes from Balancer V2.",
                    "params": {
                        "makerToken": "Address of the maker token (what to buy).",
                        "poolInfo": "Struct with pool related data",
                        "takerToken": "Address of the taker token (what to sell)."
                    },
                    "returns": {
                        "makerTokenAmounts": "Maker amounts bought at each taker token         amount."
                    }
                }
            },
            "version": 1
        },
        "evm": {
            "bytecode": {
                "linkReferences": {},
                "object": "0x6000608081905260a0604081905261001891908161002b565b5034801561002557600080fd5b5061008b565b828054828255906000526020600020908101928215610066579160200282015b8281111561006657825182559160200191906001019061004b565b50610072929150610076565b5090565b5b808211156100725760008155600101610077565b610b7b8061009a6000396000f3fe608060405234801561001057600080fd5b50600436106100415760003560e01c8063b9184dd114610046578063de920f441461005b578063f02b654114610084575b600080fd5b6100596100543660046107fa565b610097565b005b61006e61006936600461087e565b6100ae565b60405161007b91906109de565b60405180910390f35b61006e61009236600461087e565b610114565b80516100aa906000906020840190610695565b5050565b606061010c848484600080548060200260200160405190810160405280929190818152602001828054801561010257602002820191906000526020600020905b8154815260200190600101908083116100ee575b5050505050610172565b949350505050565b606061010c848484600080548060200260200160405190810160405280929190818152602001828054801561016857602002820191906000526020600020905b815481526020019060010190808311610154575b505050505061039a565b606061017e8385610597565b6020850151604080516002808252606082810190935281602001602082028036833701905050905085816000815181106101b457fe5b60200260200101906001600160a01b031690816001600160a01b03168152505084816001815181106101e257fe5b6001600160a01b039092166020928302919091019091015283518067ffffffffffffffff8111801561021357600080fd5b5060405190808252806020026020018201604052801561023d578160200160208202803683370190505b5093506102486106e0565b6102506105d2565b905060005b8281101561038d57606061027c8b89848151811061026f57fe5b6020026020010151610601565b604051637c26833760e11b81529091506001600160a01b0387169063f84d066e906102b29060009085908a908990600401610a22565b600060405180830381600087803b1580156102cc57600080fd5b505af192505050801561030157506040513d6000823e601f3d908101601f191682016040526102fe9190810190610765565b60015b61033c573d80801561032f576040519150601f19603f3d011682016040523d82523d6000602084013e610334565b606091505b50505061038d565b60008160018151811061034b57fe5b6020026020010151600019029050600081136103695750505061038d565b8089858151811061037657fe5b602002602001018181525050505050600101610255565b5050505050949350505050565b60606103a68385610597565b6020850151604080516002808252606082810190935281602001602082028036833701905050905085816000815181106103dc57fe5b60200260200101906001600160a01b031690816001600160a01b031681525050848160018151811061040a57fe5b6001600160a01b039092166020928302919091019091015283518067ffffffffffffffff8111801561043b57600080fd5b50604051908082528060200260200182016040528015610465578160200160208202803683370190505b5093506104706106e0565b6104786105d2565b905060005b8281101561038d5760606104978b89848151811061026f57fe5b604051637c26833760e11b81529091506001600160a01b0387169063f84d066e906104cd9060019085908a908990600401610a22565b600060405180830381600087803b1580156104e757600080fd5b505af192505050801561051c57506040513d6000823e601f3d908101601f191682016040526105199190810190610765565b60015b61054a573d80801561032f576040519150601f19603f3d011682016040523d82523d6000602084013e610334565b60008160008151811061055957fe5b60200260200101519050600081136105735750505061038d565b8089858151811061058057fe5b60200260200101818152505050505060010161047d565b806001600160a01b0316826001600160a01b031614156100aa5760405162461bcd60e51b81526004016105c990610ab9565b60405180910390fd5b6105da6106e0565b50604080516080810182523080825260006020830181905292820152606081019190915290565b604080516001808252818301909252606091829190816020015b610623610707565b81526020019060019003908161061b5790505090506040518060a00160405280856000015181526020016000815260200160018152602001848152602001604051806020016040528060008152508152508160008151811061068157fe5b602090810291909101015290505b92915050565b8280548282559060005260206000209081019282156106d0579160200282015b828111156106d05782518255916020019190600101906106b5565b506106dc929150610739565b5090565b60408051608081018252600080825260208201819052918101829052606081019190915290565b6040518060a0016040528060008019168152602001600081526020016000815260200160008152602001606081525090565b5b808211156106dc576000815560010161073a565b80356001600160a01b038116811461068f57600080fd5b60006020808385031215610777578182fd5b825167ffffffffffffffff81111561078d578283fd5b8301601f8101851361079d578283fd5b80516107b06107ab82610b25565b610afe565b81815283810190838501858402850186018910156107cc578687fd5b8694505b838510156107ee5780518352600194909401939185019185016107d0565b50979650505050505050565b6000602080838503121561080c578182fd5b823567ffffffffffffffff811115610822578283fd5b8301601f81018513610832578283fd5b80356108406107ab82610b25565b818152838101908385018584028501860189101561085c578687fd5b8694505b838510156107ee578035835260019490940193918501918501610860565b60008060008385036080811215610893578283fd5b60408112156108a0578283fd5b506108ab6040610afe565b843581526108bc866020870161074e565b602082015292506108d0856040860161074e565b91506108df856060860161074e565b90509250925092565b6000815180845260208085019450808401835b838110156109205781516001600160a01b0316875295820195908201906001016108fb565b509495945050505050565b600081518352602080830151818501526040830151604085015260608301516060850152608083015160a0608086015280518060a0870152835b818110156109815782810184015187820160c001528301610965565b81811115610992578460c083890101525b50601f01601f19169490940160c001949350505050565b80516001600160a01b039081168352602080830151151590840152604080830151909116908301526060908101511515910152565b6020808252825182820181905260009190848201906040850190845b81811015610a16578351835292840192918401916001016109fa565b50909695505050505050565b600060e0820160028710610a3257fe5b868352602060e08185015281875180845261010093508386019150838382028701019350828901855b82811015610a895760ff19888703018452610a7786835161092b565b95509284019290840190600101610a5b565b50505050508281036040840152610aa081866108e8565b915050610ab060608301846109a9565b95945050505050565b60208082526025908201527f455243323042726964676553616d706c65722f494e56414c49445f544f4b454e6040820152642fa820a4a960d91b606082015260800190565b60405181810167ffffffffffffffff81118282101715610b1d57600080fd5b604052919050565b600067ffffffffffffffff821115610b3b578081fd5b506020908102019056fea2646970667358221220d0418e3b075ff95c76b880359c58ab1db61e3cee837c383d9240a86de376ab4164736f6c634300060c0033",
                "opcodes": "PUSH1 0x0 PUSH1 0x80 DUP2 SWAP1 MSTORE PUSH1 0xA0 PUSH1 0x40 DUP2 SWAP1 MSTORE PUSH2 0x18 SWAP2 SWAP1 DUP2 PUSH2 0x2B JUMP JUMPDEST POP CALLVALUE DUP1 ISZERO PUSH2 0x25 JUMPI PUSH1 0x0 DUP1 REVERT JUMPDEST POP PUSH2 0x8B JUMP JUMPDEST DUP3 DUP1 SLOAD DUP3 DUP3 SSTORE SWAP1 PUSH1 0x0 MSTORE PUSH1 0x20 PUSH1 0x0 KECCAK256 SWAP1 DUP2 ADD SWAP3 DUP3 ISZERO PUSH2 0x66 JUMPI SWAP2 PUSH1 0x20 MUL DUP3 ADD JUMPDEST DUP3 DUP2 GT ISZERO PUSH2 0x66 JUMPI DUP3 MLOAD DUP3 SSTORE SWAP2 PUSH1 0x20 ADD SWAP2 SWAP1 PUSH1 0x1 ADD SWAP1 PUSH2 0x4B JUMP JUMPDEST POP PUSH2 0x72 SWAP3 SWAP2 POP PUSH2 0x76 JUMP JUMPDEST POP SWAP1 JUMP JUMPDEST JUMPDEST DUP1 DUP3 GT ISZERO PUSH2 0x72 JUMPI PUSH1 0x0 DUP2 SSTORE PUSH1 0x1 ADD PUSH2 0x77 JUMP JUMPDEST PUSH2 0xB7B DUP1 PUSH2 0x9A PUSH1 0x0 CODECOPY PUSH1 0x0 RETURN INVALID PUSH1 0x80 PUSH1 0x40 MSTORE CALLVALUE DUP1 ISZERO PUSH2 0x10 JUMPI PUSH1 0x0 DUP1 REVERT JUMPDEST POP PUSH1 0x4 CALLDATASIZE LT PUSH2 0x41 JUMPI PUSH1 0x0 CALLDATALOAD PUSH1 0xE0 SHR DUP1 PUSH4 0xB9184DD1 EQ PUSH2 0x46 JUMPI DUP1 PUSH4 0xDE920F44 EQ PUSH2 0x5B JUMPI DUP1 PUSH4 0xF02B6541 EQ PUSH2 0x84 JUMPI JUMPDEST PUSH1 0x0 DUP1 REVERT JUMPDEST PUSH2 0x59 PUSH2 0x54 CALLDATASIZE PUSH1 0x4 PUSH2 0x7FA JUMP JUMPDEST PUSH2 0x97 JUMP JUMPDEST STOP JUMPDEST PUSH2 0x6E PUSH2 0x69 CALLDATASIZE PUSH1 0x4 PUSH2 0x87E JUMP JUMPDEST PUSH2 0xAE JUMP JUMPDEST PUSH1 0x40 MLOAD PUSH2 0x7B SWAP2 SWAP1 PUSH2 0x9DE JUMP JUMPDEST PUSH1 0x40 MLOAD DUP1 SWAP2 SUB SWAP1 RETURN JUMPDEST PUSH2 0x6E PUSH2 0x92 CALLDATASIZE PUSH1 0x4 PUSH2 0x87E JUMP JUMPDEST PUSH2 0x114 JUMP JUMPDEST DUP1 MLOAD PUSH2 0xAA SWAP1 PUSH1 0x0 SWAP1 PUSH1 0x20 DUP5 ADD SWAP1 PUSH2 0x695 JUMP JUMPDEST POP POP JUMP JUMPDEST PUSH1 0x60 PUSH2 0x10C DUP5 DUP5 DUP5 PUSH1 0x0 DUP1 SLOAD DUP1 PUSH1 0x20 MUL PUSH1 0x20 ADD PUSH1 0x40 MLOAD SWAP1 DUP2 ADD PUSH1 0x40 MSTORE DUP1 SWAP3 SWAP2 SWAP1 DUP2 DUP2 MSTORE PUSH1 0x20 ADD DUP3 DUP1 SLOAD DUP1 ISZERO PUSH2 0x102 JUMPI PUSH1 0x20 MUL DUP3 ADD SWAP2 SWAP1 PUSH1 0x0 MSTORE PUSH1 0x20 PUSH1 0x0 KECCAK256 SWAP1 JUMPDEST DUP2 SLOAD DUP2 MSTORE PUSH1 0x20 ADD SWAP1 PUSH1 0x1 ADD SWAP1 DUP1 DUP4 GT PUSH2 0xEE JUMPI JUMPDEST POP POP POP POP POP PUSH2 0x172 JUMP JUMPDEST SWAP5 SWAP4 POP POP POP POP JUMP JUMPDEST PUSH1 0x60 PUSH2 0x10C DUP5 DUP5 DUP5 PUSH1 0x0 DUP1 SLOAD DUP1 PUSH1 0x20 MUL PUSH1 0x20 ADD PUSH1 0x40 MLOAD SWAP1 DUP2 ADD PUSH1 0x40 MSTORE DUP1 SWAP3 SWAP2 SWAP1 DUP2 DUP2 MSTORE PUSH1 0x20 ADD DUP3 DUP1 SLOAD DUP1 ISZERO PUSH2 0x168 JUMPI PUSH1 0x20 MUL DUP3 ADD SWAP2 SWAP1 PUSH1 0x0 MSTORE PUSH1 0x20 PUSH1 0x0 KECCAK256 SWAP1 JUMPDEST DUP2 SLOAD DUP2 MSTORE PUSH1 0x20 ADD SWAP1 PUSH1 0x1 ADD SWAP1 DUP1 DUP4 GT PUSH2 0x154 JUMPI JUMPDEST POP POP POP POP POP PUSH2 0x39A JUMP JUMPDEST PUSH1 0x60 PUSH2 0x17E DUP4 DUP6 PUSH2 0x597 JUMP JUMPDEST PUSH1 0x20 DUP6 ADD MLOAD PUSH1 0x40 DUP1 MLOAD PUSH1 0x2 DUP1 DUP3 MSTORE PUSH1 0x60 DUP3 DUP2 ADD SWAP1 SWAP4 MSTORE DUP2 PUSH1 0x20 ADD PUSH1 0x20 DUP3 MUL DUP1 CALLDATASIZE DUP4 CALLDATACOPY ADD SWAP1 POP POP SWAP1 POP DUP6 DUP2 PUSH1 0x0 DUP2 MLOAD DUP2 LT PUSH2 0x1B4 JUMPI INVALID JUMPDEST PUSH1 0x20 MUL PUSH1 0x20 ADD ADD SWAP1 PUSH1 0x1 PUSH1 0x1 PUSH1 0xA0 SHL SUB AND SWAP1 DUP2 PUSH1 0x1 PUSH1 0x1 PUSH1 0xA0 SHL SUB AND DUP2 MSTORE POP POP DUP5 DUP2 PUSH1 0x1 DUP2 MLOAD DUP2 LT PUSH2 0x1E2 JUMPI INVALID JUMPDEST PUSH1 0x1 PUSH1 0x1 PUSH1 0xA0 SHL SUB SWAP1 SWAP3 AND PUSH1 0x20 SWAP3 DUP4 MUL SWAP2 SWAP1 SWAP2 ADD SWAP1 SWAP2 ADD MSTORE DUP4 MLOAD DUP1 PUSH8 0xFFFFFFFFFFFFFFFF DUP2 GT DUP1 ISZERO PUSH2 0x213 JUMPI PUSH1 0x0 DUP1 REVERT JUMPDEST POP PUSH1 0x40 MLOAD SWAP1 DUP1 DUP3 MSTORE DUP1 PUSH1 0x20 MUL PUSH1 0x20 ADD DUP3 ADD PUSH1 0x40 MSTORE DUP1 ISZERO PUSH2 0x23D JUMPI DUP2 PUSH1 0x20 ADD PUSH1 0x20 DUP3 MUL DUP1 CALLDATASIZE DUP4 CALLDATACOPY ADD SWAP1 POP JUMPDEST POP SWAP4 POP PUSH2 0x248 PUSH2 0x6E0 JUMP JUMPDEST PUSH2 0x250 PUSH2 0x5D2 JUMP JUMPDEST SWAP1 POP PUSH1 0x0 JUMPDEST DUP3 DUP2 LT ISZERO PUSH2 0x38D JUMPI PUSH1 0x60 PUSH2 0x27C DUP12 DUP10 DUP5 DUP2 MLOAD DUP2 LT PUSH2 0x26F JUMPI INVALID JUMPDEST PUSH1 0x20 MUL PUSH1 0x20 ADD ADD MLOAD PUSH2 0x601 JUMP JUMPDEST PUSH1 0x40 MLOAD PUSH4 0x7C268337 PUSH1 0xE1 SHL DUP2 MSTORE SWAP1 SWAP2 POP PUSH1 0x1 PUSH1 0x1 PUSH1 0xA0 SHL SUB DUP8 AND SWAP1 PUSH4 0xF84D066E SWAP1 PUSH2 0x2B2 SWAP1 PUSH1 0x0 SWAP1 DUP6 SWAP1 DUP11 SWAP1 DUP10 SWAP1 PUSH1 0x4 ADD PUSH2 0xA22 JUMP JUMPDEST PUSH1 0x0 PUSH1 0x40 MLOAD DUP1 DUP4 SUB DUP2 PUSH1 0x0 DUP8 DUP1 EXTCODESIZE ISZERO DUP1 ISZERO PUSH2 0x2CC JUMPI PUSH1 0x0 DUP1 REVERT JUMPDEST POP GAS CALL SWAP3 POP POP POP DUP1 ISZERO PUSH2 0x301 JUMPI POP PUSH1 0x40 MLOAD RETURNDATASIZE PUSH1 0x0 DUP3 RETURNDATACOPY PUSH1 0x1F RETURNDATASIZE SWAP1 DUP2 ADD PUSH1 0x1F NOT AND DUP3 ADD PUSH1 0x40 MSTORE PUSH2 0x2FE SWAP2 SWAP1 DUP2 ADD SWAP1 PUSH2 0x765 JUMP JUMPDEST PUSH1 0x1 JUMPDEST PUSH2 0x33C JUMPI RETURNDATASIZE DUP1 DUP1 ISZERO PUSH2 0x32F JUMPI PUSH1 0x40 MLOAD SWAP2 POP PUSH1 0x1F NOT PUSH1 0x3F RETURNDATASIZE ADD AND DUP3 ADD PUSH1 0x40 MSTORE RETURNDATASIZE DUP3 MSTORE RETURNDATASIZE PUSH1 0x0 PUSH1 0x20 DUP5 ADD RETURNDATACOPY PUSH2 0x334 JUMP JUMPDEST PUSH1 0x60 SWAP2 POP JUMPDEST POP POP POP PUSH2 0x38D JUMP JUMPDEST PUSH1 0x0 DUP2 PUSH1 0x1 DUP2 MLOAD DUP2 LT PUSH2 0x34B JUMPI INVALID JUMPDEST PUSH1 0x20 MUL PUSH1 0x20 ADD ADD MLOAD PUSH1 0x0 NOT MUL SWAP1 POP PUSH1 0x0 DUP2 SGT PUSH2 0x369 JUMPI POP POP POP PUSH2 0x38D JUMP JUMPDEST DUP1 DUP10 DUP6 DUP2 MLOAD DUP2 LT PUSH2 0x376 JUMPI INVALID JUMPDEST PUSH1 0x20 MUL PUSH1 0x20 ADD ADD DUP2 DUP2 MSTORE POP POP POP POP POP PUSH1 0x1 ADD PUSH2 0x255 JUMP JUMPDEST POP POP POP POP POP SWAP5 SWAP4 POP POP POP POP JUMP JUMPDEST PUSH1 0x60 PUSH2 0x3A6 DUP4 DUP6 PUSH2 0x597 JUMP JUMPDEST PUSH1 0x20 DUP6 ADD MLOAD PUSH1 0x40 DUP1 MLOAD PUSH1 0x2 DUP1 DUP3 MSTORE PUSH1 0x60 DUP3 DUP2 ADD SWAP1 SWAP4 MSTORE DUP2 PUSH1 0x20 ADD PUSH1 0x20 DUP3 MUL DUP1 CALLDATASIZE DUP4 CALLDATACOPY ADD SWAP1 POP POP SWAP1 POP DUP6 DUP2 PUSH1 0x0 DUP2 MLOAD DUP2 LT PUSH2 0x3DC JUMPI INVALID JUMPDEST PUSH1 0x20 MUL PUSH1 0x20 ADD ADD SWAP1 PUSH1 0x1 PUSH1 0x1 PUSH1 0xA0 SHL SUB AND SWAP1 DUP2 PUSH1 0x1 PUSH1 0x1 PUSH1 0xA0 SHL SUB AND DUP2 MSTORE POP POP DUP5 DUP2 PUSH1 0x1 DUP2 MLOAD DUP2 LT PUSH2 0x40A JUMPI INVALID JUMPDEST PUSH1 0x1 PUSH1 0x1 PUSH1 0xA0 SHL SUB SWAP1 SWAP3 AND PUSH1 0x20 SWAP3 DUP4 MUL SWAP2 SWAP1 SWAP2 ADD SWAP1 SWAP2 ADD MSTORE DUP4 MLOAD DUP1 PUSH8 0xFFFFFFFFFFFFFFFF DUP2 GT DUP1 ISZERO PUSH2 0x43B JUMPI PUSH1 0x0 DUP1 REVERT JUMPDEST POP PUSH1 0x40 MLOAD SWAP1 DUP1 DUP3 MSTORE DUP1 PUSH1 0x20 MUL PUSH1 0x20 ADD DUP3 ADD PUSH1 0x40 MSTORE DUP1 ISZERO PUSH2 0x465 JUMPI DUP2 PUSH1 0x20 ADD PUSH1 0x20 DUP3 MUL DUP1 CALLDATASIZE DUP4 CALLDATACOPY ADD SWAP1 POP JUMPDEST POP SWAP4 POP PUSH2 0x470 PUSH2 0x6E0 JUMP JUMPDEST PUSH2 0x478 PUSH2 0x5D2 JUMP JUMPDEST SWAP1 POP PUSH1 0x0 JUMPDEST DUP3 DUP2 LT ISZERO PUSH2 0x38D JUMPI PUSH1 0x60 PUSH2 0x497 DUP12 DUP10 DUP5 DUP2 MLOAD DUP2 LT PUSH2 0x26F JUMPI INVALID JUMPDEST PUSH1 0x40 MLOAD PUSH4 0x7C268337 PUSH1 0xE1 SHL DUP2 MSTORE SWAP1 SWAP2 POP PUSH1 0x1 PUSH1 0x1 PUSH1 0xA0 SHL SUB DUP8 AND SWAP1 PUSH4 0xF84D066E SWAP1 PUSH2 0x4CD SWAP1 PUSH1 0x1 SWAP1 DUP6 SWAP1 DUP11 SWAP1 DUP10 SWAP1 PUSH1 0x4 ADD PUSH2 0xA22 JUMP JUMPDEST PUSH1 0x0 PUSH1 0x40 MLOAD DUP1 DUP4 SUB DUP2 PUSH1 0x0 DUP8 DUP1 EXTCODESIZE ISZERO DUP1 ISZERO PUSH2 0x4E7 JUMPI PUSH1 0x0 DUP1 REVERT JUMPDEST POP GAS CALL SWAP3 POP POP POP DUP1 ISZERO PUSH2 0x51C JUMPI POP PUSH1 0x40 MLOAD RETURNDATASIZE PUSH1 0x0 DUP3 RETURNDATACOPY PUSH1 0x1F RETURNDATASIZE SWAP1 DUP2 ADD PUSH1 0x1F NOT AND DUP3 ADD PUSH1 0x40 MSTORE PUSH2 0x519 SWAP2 SWAP1 DUP2 ADD SWAP1 PUSH2 0x765 JUMP JUMPDEST PUSH1 0x1 JUMPDEST PUSH2 0x54A JUMPI RETURNDATASIZE DUP1 DUP1 ISZERO PUSH2 0x32F JUMPI PUSH1 0x40 MLOAD SWAP2 POP PUSH1 0x1F NOT PUSH1 0x3F RETURNDATASIZE ADD AND DUP3 ADD PUSH1 0x40 MSTORE RETURNDATASIZE DUP3 MSTORE RETURNDATASIZE PUSH1 0x0 PUSH1 0x20 DUP5 ADD RETURNDATACOPY PUSH2 0x334 JUMP JUMPDEST PUSH1 0x0 DUP2 PUSH1 0x0 DUP2 MLOAD DUP2 LT PUSH2 0x559 JUMPI INVALID JUMPDEST PUSH1 0x20 MUL PUSH1 0x20 ADD ADD MLOAD SWAP1 POP PUSH1 0x0 DUP2 SGT PUSH2 0x573 JUMPI POP POP POP PUSH2 0x38D JUMP JUMPDEST DUP1 DUP10 DUP6 DUP2 MLOAD DUP2 LT PUSH2 0x580 JUMPI INVALID JUMPDEST PUSH1 0x20 MUL PUSH1 0x20 ADD ADD DUP2 DUP2 MSTORE POP POP POP POP POP PUSH1 0x1 ADD PUSH2 0x47D JUMP JUMPDEST DUP1 PUSH1 0x1 PUSH1 0x1 PUSH1 0xA0 SHL SUB AND DUP3 PUSH1 0x1 PUSH1 0x1 PUSH1 0xA0 SHL SUB AND EQ ISZERO PUSH2 0xAA JUMPI PUSH1 0x40 MLOAD PUSH3 0x461BCD PUSH1 0xE5 SHL DUP2 MSTORE PUSH1 0x4 ADD PUSH2 0x5C9 SWAP1 PUSH2 0xAB9 JUMP JUMPDEST PUSH1 0x40 MLOAD DUP1 SWAP2 SUB SWAP1 REVERT JUMPDEST PUSH2 0x5DA PUSH2 0x6E0 JUMP JUMPDEST POP PUSH1 0x40 DUP1 MLOAD PUSH1 0x80 DUP2 ADD DUP3 MSTORE ADDRESS DUP1 DUP3 MSTORE PUSH1 0x0 PUSH1 0x20 DUP4 ADD DUP2 SWAP1 MSTORE SWAP3 DUP3 ADD MSTORE PUSH1 0x60 DUP2 ADD SWAP2 SWAP1 SWAP2 MSTORE SWAP1 JUMP JUMPDEST PUSH1 0x40 DUP1 MLOAD PUSH1 0x1 DUP1 DUP3 MSTORE DUP2 DUP4 ADD SWAP1 SWAP3 MSTORE PUSH1 0x60 SWAP2 DUP3 SWAP2 SWAP1 DUP2 PUSH1 0x20 ADD JUMPDEST PUSH2 0x623 PUSH2 0x707 JUMP JUMPDEST DUP2 MSTORE PUSH1 0x20 ADD SWAP1 PUSH1 0x1 SWAP1 SUB SWAP1 DUP2 PUSH2 0x61B JUMPI SWAP1 POP POP SWAP1 POP PUSH1 0x40 MLOAD DUP1 PUSH1 0xA0 ADD PUSH1 0x40 MSTORE DUP1 DUP6 PUSH1 0x0 ADD MLOAD DUP2 MSTORE PUSH1 0x20 ADD PUSH1 0x0 DUP2 MSTORE PUSH1 0x20 ADD PUSH1 0x1 DUP2 MSTORE PUSH1 0x20 ADD DUP5 DUP2 MSTORE PUSH1 0x20 ADD PUSH1 0x40 MLOAD DUP1 PUSH1 0x20 ADD PUSH1 0x40 MSTORE DUP1 PUSH1 0x0 DUP2 MSTORE POP DUP2 MSTORE POP DUP2 PUSH1 0x0 DUP2 MLOAD DUP2 LT PUSH2 0x681 JUMPI INVALID JUMPDEST PUSH1 0x20 SWAP1 DUP2 MUL SWAP2 SWAP1 SWAP2 ADD ADD MSTORE SWAP1 POP JUMPDEST SWAP3 SWAP2 POP POP JUMP JUMPDEST DUP3 DUP1 SLOAD DUP3 DUP3 SSTORE SWAP1 PUSH1 0x0 MSTORE PUSH1 0x20 PUSH1 0x0 KECCAK256 SWAP1 DUP2 ADD SWAP3 DUP3 ISZERO PUSH2 0x6D0 JUMPI SWAP2 PUSH1 0x20 MUL DUP3 ADD JUMPDEST DUP3 DUP2 GT ISZERO PUSH2 0x6D0 JUMPI DUP3 MLOAD DUP3 SSTORE SWAP2 PUSH1 0x20 ADD SWAP2 SWAP1 PUSH1 0x1 ADD SWAP1 PUSH2 0x6B5 JUMP JUMPDEST POP PUSH2 0x6DC SWAP3 SWAP2 POP PUSH2 0x739 JUMP JUMPDEST POP SWAP1 JUMP JUMPDEST PUSH1 0x40 DUP1 MLOAD PUSH1 0x80 DUP2 ADD DUP3 MSTORE PUSH1 0x0 DUP1 DUP3 MSTORE PUSH1 0x20 DUP3 ADD DUP2 SWAP1 MSTORE SWAP2 DUP2 ADD DUP3 SWAP1 MSTORE PUSH1 0x60 DUP2 ADD SWAP2 SWAP1 SWAP2 MSTORE SWAP1 JUMP JUMPDEST PUSH1 0x40 MLOAD DUP1 PUSH1 0xA0 ADD PUSH1 0x40 MSTORE DUP1 PUSH1 0x0 DUP1 NOT AND DUP2 MSTORE PUSH1 0x20 ADD PUSH1 0x0 DUP2 MSTORE PUSH1 0x20 ADD PUSH1 0x0 DUP2 MSTORE PUSH1 0x20 ADD PUSH1 0x0 DUP2 MSTORE PUSH1 0x20 ADD PUSH1 0x60 DUP2 MSTORE POP SWAP1 JUMP JUMPDEST JUMPDEST DUP1 DUP3 GT ISZERO PUSH2 0x6DC JUMPI PUSH1 0x0 DUP2 SSTORE PUSH1 0x1 ADD PUSH2 0x73A JUMP JUMPDEST DUP1 CALLDATALOAD PUSH1 0x1 PUSH1 0x1 PUSH1 0xA0 SHL SUB DUP2 AND DUP2 EQ PUSH2 0x68F JUMPI PUSH1 0x0 DUP1 REVERT JUMPDEST PUSH1 0x0 PUSH1 0x20 DUP1 DUP4 DUP6 SUB SLT ISZERO PUSH2 0x777 JUMPI DUP2 DUP3 REVERT JUMPDEST DUP3 MLOAD PUSH8 0xFFFFFFFFFFFFFFFF DUP2 GT ISZERO PUSH2 0x78D JUMPI DUP3 DUP4 REVERT JUMPDEST DUP4 ADD PUSH1 0x1F DUP2 ADD DUP6 SGT PUSH2 0x79D JUMPI DUP3 DUP4 REVERT JUMPDEST DUP1 MLOAD PUSH2 0x7B0 PUSH2 0x7AB DUP3 PUSH2 0xB25 JUMP JUMPDEST PUSH2 0xAFE JUMP JUMPDEST DUP2 DUP2 MSTORE DUP4 DUP2 ADD SWAP1 DUP4 DUP6 ADD DUP6 DUP5 MUL DUP6 ADD DUP7 ADD DUP10 LT ISZERO PUSH2 0x7CC JUMPI DUP7 DUP8 REVERT JUMPDEST DUP7 SWAP5 POP JUMPDEST DUP4 DUP6 LT ISZERO PUSH2 0x7EE JUMPI DUP1 MLOAD DUP4 MSTORE PUSH1 0x1 SWAP5 SWAP1 SWAP5 ADD SWAP4 SWAP2 DUP6 ADD SWAP2 DUP6 ADD PUSH2 0x7D0 JUMP JUMPDEST POP SWAP8 SWAP7 POP POP POP POP POP POP POP JUMP JUMPDEST PUSH1 0x0 PUSH1 0x20 DUP1 DUP4 DUP6 SUB SLT ISZERO PUSH2 0x80C JUMPI DUP2 DUP3 REVERT JUMPDEST DUP3 CALLDATALOAD PUSH8 0xFFFFFFFFFFFFFFFF DUP2 GT ISZERO PUSH2 0x822 JUMPI DUP3 DUP4 REVERT JUMPDEST DUP4 ADD PUSH1 0x1F DUP2 ADD DUP6 SGT PUSH2 0x832 JUMPI DUP3 DUP4 REVERT JUMPDEST DUP1 CALLDATALOAD PUSH2 0x840 PUSH2 0x7AB DUP3 PUSH2 0xB25 JUMP JUMPDEST DUP2 DUP2 MSTORE DUP4 DUP2 ADD SWAP1 DUP4 DUP6 ADD DUP6 DUP5 MUL DUP6 ADD DUP7 ADD DUP10 LT ISZERO PUSH2 0x85C JUMPI DUP7 DUP8 REVERT JUMPDEST DUP7 SWAP5 POP JUMPDEST DUP4 DUP6 LT ISZERO PUSH2 0x7EE JUMPI DUP1 CALLDATALOAD DUP4 MSTORE PUSH1 0x1 SWAP5 SWAP1 SWAP5 ADD SWAP4 SWAP2 DUP6 ADD SWAP2 DUP6 ADD PUSH2 0x860 JUMP JUMPDEST PUSH1 0x0 DUP1 PUSH1 0x0 DUP4 DUP6 SUB PUSH1 0x80 DUP2 SLT ISZERO PUSH2 0x893 JUMPI DUP3 DUP4 REVERT JUMPDEST PUSH1 0x40 DUP2 SLT ISZERO PUSH2 0x8A0 JUMPI DUP3 DUP4 REVERT JUMPDEST POP PUSH2 0x8AB PUSH1 0x40 PUSH2 0xAFE JUMP JUMPDEST DUP5 CALLDATALOAD DUP2 MSTORE PUSH2 0x8BC DUP7 PUSH1 0x20 DUP8 ADD PUSH2 0x74E JUMP JUMPDEST PUSH1 0x20 DUP3 ADD MSTORE SWAP3 POP PUSH2 0x8D0 DUP6 PUSH1 0x40 DUP7 ADD PUSH2 0x74E JUMP JUMPDEST SWAP2 POP PUSH2 0x8DF DUP6 PUSH1 0x60 DUP7 ADD PUSH2 0x74E JUMP JUMPDEST SWAP1 POP SWAP3 POP SWAP3 POP SWAP3 JUMP JUMPDEST PUSH1 0x0 DUP2 MLOAD DUP1 DUP5 MSTORE PUSH1 0x20 DUP1 DUP6 ADD SWAP5 POP DUP1 DUP5 ADD DUP4 JUMPDEST DUP4 DUP2 LT ISZERO PUSH2 0x920 JUMPI DUP2 MLOAD PUSH1 0x1 PUSH1 0x1 PUSH1 0xA0 SHL SUB AND DUP8 MSTORE SWAP6 DUP3 ADD SWAP6 SWAP1 DUP3 ADD SWAP1 PUSH1 0x1 ADD PUSH2 0x8FB JUMP JUMPDEST POP SWAP5 SWAP6 SWAP5 POP POP POP POP POP JUMP JUMPDEST PUSH1 0x0 DUP2 MLOAD DUP4 MSTORE PUSH1 0x20 DUP1 DUP4 ADD MLOAD DUP2 DUP6 ADD MSTORE PUSH1 0x40 DUP4 ADD MLOAD PUSH1 0x40 DUP6 ADD MSTORE PUSH1 0x60 DUP4 ADD MLOAD PUSH1 0x60 DUP6 ADD MSTORE PUSH1 0x80 DUP4 ADD MLOAD PUSH1 0xA0 PUSH1 0x80 DUP7 ADD MSTORE DUP1 MLOAD DUP1 PUSH1 0xA0 DUP8 ADD MSTORE DUP4 JUMPDEST DUP2 DUP2 LT ISZERO PUSH2 0x981 JUMPI DUP3 DUP2 ADD DUP5 ADD MLOAD DUP8 DUP3 ADD PUSH1 0xC0 ADD MSTORE DUP4 ADD PUSH2 0x965 JUMP JUMPDEST DUP2 DUP2 GT ISZERO PUSH2 0x992 JUMPI DUP5 PUSH1 0xC0 DUP4 DUP10 ADD ADD MSTORE JUMPDEST POP PUSH1 0x1F ADD PUSH1 0x1F NOT AND SWAP5 SWAP1 SWAP5 ADD PUSH1 0xC0 ADD SWAP5 SWAP4 POP POP POP POP JUMP JUMPDEST DUP1 MLOAD PUSH1 0x1 PUSH1 0x1 PUSH1 0xA0 SHL SUB SWAP1 DUP2 AND DUP4 MSTORE PUSH1 0x20 DUP1 DUP4 ADD MLOAD ISZERO ISZERO SWAP1 DUP5 ADD MSTORE PUSH1 0x40 DUP1 DUP4 ADD MLOAD SWAP1 SWAP2 AND SWAP1 DUP4 ADD MSTORE PUSH1 0x60 SWAP1 DUP2 ADD MLOAD ISZERO ISZERO SWAP2 ADD MSTORE JUMP JUMPDEST PUSH1 0x20 DUP1 DUP3 MSTORE DUP3 MLOAD DUP3 DUP3 ADD DUP2 SWAP1 MSTORE PUSH1 0x0 SWAP2 SWAP1 DUP5 DUP3 ADD SWAP1 PUSH1 0x40 DUP6 ADD SWAP1 DUP5 JUMPDEST DUP2 DUP2 LT ISZERO PUSH2 0xA16 JUMPI DUP4 MLOAD DUP4 MSTORE SWAP3 DUP5 ADD SWAP3 SWAP2 DUP5 ADD SWAP2 PUSH1 0x1 ADD PUSH2 0x9FA JUMP JUMPDEST POP SWAP1 SWAP7 SWAP6 POP POP POP POP POP POP JUMP JUMPDEST PUSH1 0x0 PUSH1 0xE0 DUP3 ADD PUSH1 0x2 DUP8 LT PUSH2 0xA32 JUMPI INVALID JUMPDEST DUP7 DUP4 MSTORE PUSH1 0x20 PUSH1 0xE0 DUP2 DUP6 ADD MSTORE DUP2 DUP8 MLOAD DUP1 DUP5 MSTORE PUSH2 0x100 SWAP4 POP DUP4 DUP7 ADD SWAP2 POP DUP4 DUP4 DUP3 MUL DUP8 ADD ADD SWAP4 POP DUP3 DUP10 ADD DUP6 JUMPDEST DUP3 DUP2 LT ISZERO PUSH2 0xA89 JUMPI PUSH1 0xFF NOT DUP9 DUP8 SUB ADD DUP5 MSTORE PUSH2 0xA77 DUP7 DUP4 MLOAD PUSH2 0x92B JUMP JUMPDEST SWAP6 POP SWAP3 DUP5 ADD SWAP3 SWAP1 DUP5 ADD SWAP1 PUSH1 0x1 ADD PUSH2 0xA5B JUMP JUMPDEST POP POP POP POP POP DUP3 DUP2 SUB PUSH1 0x40 DUP5 ADD MSTORE PUSH2 0xAA0 DUP2 DUP7 PUSH2 0x8E8 JUMP JUMPDEST SWAP2 POP POP PUSH2 0xAB0 PUSH1 0x60 DUP4 ADD DUP5 PUSH2 0x9A9 JUMP JUMPDEST SWAP6 SWAP5 POP POP POP POP POP JUMP JUMPDEST PUSH1 0x20 DUP1 DUP3 MSTORE PUSH1 0x25 SWAP1 DUP3 ADD MSTORE PUSH32 0x455243323042726964676553616D706C65722F494E56414C49445F544F4B454E PUSH1 0x40 DUP3 ADD MSTORE PUSH5 0x2FA820A4A9 PUSH1 0xD9 SHL PUSH1 0x60 DUP3 ADD MSTORE PUSH1 0x80 ADD SWAP1 JUMP JUMPDEST PUSH1 0x40 MLOAD DUP2 DUP2 ADD PUSH8 0xFFFFFFFFFFFFFFFF DUP2 GT DUP3 DUP3 LT OR ISZERO PUSH2 0xB1D JUMPI PUSH1 0x0 DUP1 REVERT JUMPDEST PUSH1 0x40 MSTORE SWAP2 SWAP1 POP JUMP JUMPDEST PUSH1 0x0 PUSH8 0xFFFFFFFFFFFFFFFF DUP3 GT ISZERO PUSH2 0xB3B JUMPI DUP1 DUP2 REVERT JUMPDEST POP PUSH1 0x20 SWAP1 DUP2 MUL ADD SWAP1 JUMP INVALID LOG2 PUSH5 0x6970667358 0x22 SLT KECCAK256 0xD0 COINBASE DUP15 EXTCODESIZE SMOD 0x5F 0xF9 0x5C PUSH23 0xB880359C58AB1DB61E3CEE837C383D9240A86DE376AB41 PUSH5 0x736F6C6343 STOP MOD 0xC STOP CALLER "
            }
        }
    },
    "sourceTreeHashHex": "0x88a1269b0f22af2f1fbad54c3327db9112a865c7e3f77f4505c55de1e24a894d",
    "compiler": {
        "name": "solc",
        "version": "0.6.12+commit.27d51765",
        "settings": {
            "remappings": [
                "@0x/contracts-utils=/Users/jacob/projects/ethdev/0x/workspace-remote/workspace/protocol/packages/asset-swapper/node_modules/@0x/contracts-utils",
                "@0x/contracts-erc20=/Users/jacob/projects/ethdev/0x/workspace-remote/workspace/protocol/packages/asset-swapper/node_modules/@0x/contracts-erc20",
                "@0x/contracts-zero-ex=/Users/jacob/projects/ethdev/0x/workspace-remote/workspace/protocol/packages/asset-swapper/node_modules/@0x/contracts-zero-ex"
            ],
            "optimizer": {
                "enabled": true,
                "runs": 200,
                "details": {
                    "yul": true,
                    "deduplicate": true
                }
            },
            "outputSelection": {
                "*": {
                    "*": [
                        "abi",
                        "devdoc",
                        "evm.bytecode.object",
                        "evm.bytecode.sourceMap",
                        "evm.deployedBytecode.object",
                        "evm.deployedBytecode.sourceMap"
                    ]
                }
            },
            "evmVersion": "istanbul"
        }
    },
    "chains": {}
}