{
    "schemaVersion": "2.0.0",
    "contractName": "BalancerSampler",
    "compilerOutput": {
        "abi": [
            {
                "inputs": [
                    {
                        "internalType": "address",
                        "name": "poolAddress",
                        "type": "address"
                    },
                    {
                        "internalType": "address",
                        "name": "takerToken",
                        "type": "address"
                    },
                    {
                        "internalType": "address",
                        "name": "makerToken",
                        "type": "address"
                    },
                    {
                        "internalType": "uint256[]",
                        "name": "makerTokenAmounts",
                        "type": "uint256[]"
                    }
                ],
                "name": "sampleBuysFromBalancer",
                "outputs": [
                    {
                        "internalType": "uint256[]",
                        "name": "takerTokenAmounts",
                        "type": "uint256[]"
                    }
                ],
                "stateMutability": "view",
                "type": "function"
            },
            {
                "inputs": [
                    {
                        "internalType": "address",
                        "name": "poolAddress",
                        "type": "address"
                    },
                    {
                        "internalType": "address",
                        "name": "takerToken",
                        "type": "address"
                    },
                    {
                        "internalType": "address",
                        "name": "makerToken",
                        "type": "address"
                    },
                    {
                        "internalType": "uint256[]",
                        "name": "takerTokenAmounts",
                        "type": "uint256[]"
                    }
                ],
                "name": "sampleSellsFromBalancer",
                "outputs": [
                    {
                        "internalType": "uint256[]",
                        "name": "makerTokenAmounts",
                        "type": "uint256[]"
                    }
                ],
                "stateMutability": "view",
                "type": "function"
            }
        ],
        "devdoc": {
            "kind": "dev",
            "methods": {
                "sampleBuysFromBalancer(address,address,address,uint256[])": {
                    "details": "Sample buy quotes from Balancer.",
                    "params": {
                        "makerToken": "Address of the maker token (what to buy).",
                        "makerTokenAmounts": "Maker token buy amount for each sample.",
                        "poolAddress": "Address of the Balancer pool to query.",
                        "takerToken": "Address of the taker token (what to sell)."
                    },
                    "returns": {
                        "takerTokenAmounts": "Taker amounts sold at each maker token         amount."
                    }
                },
                "sampleSellsFromBalancer(address,address,address,uint256[])": {
                    "details": "Sample sell quotes from Balancer.",
                    "params": {
                        "makerToken": "Address of the maker token (what to buy).",
                        "poolAddress": "Address of the Balancer pool to query.",
                        "takerToken": "Address of the taker token (what to sell).",
                        "takerTokenAmounts": "Taker token sell amount for each sample."
                    },
                    "returns": {
                        "makerTokenAmounts": "Maker amounts bought at each taker token         amount."
                    }
                }
            },
            "stateVariables": {
                "BALANCER_CALL_GAS": {
                    "details": "Base gas limit for Balancer calls."
                }
            },
            "version": 1
        },
        "evm": {
            "bytecode": {
                "linkReferences": {},
                "object": "0x608060405234801561001057600080fd5b50610f02806100206000396000f3fe608060405234801561001057600080fd5b50600436106100365760003560e01c806357494b1d1461003b5780639877774814610064575b600080fd5b61004e610049366004610c6f565b610077565b60405161005b9190610db7565b60405180910390f35b61004e610072366004610c6f565b6105fc565b805160609085908067ffffffffffffffff8111801561009557600080fd5b506040519080825280602002602001820160405280156100bf578160200160208202803683370190505b50604051630bcded8960e21b81529093506001600160a01b03831690632f37b624906100ef908990600401610da9565b60206040518083038186803b15801561010757600080fd5b505afa15801561011b573d6000803e3d6000fd5b505050506040513d601f19601f8201168201806040525081019061013f9190610ce8565b15806101c45750604051630bcded8960e21b81526001600160a01b03831690632f37b62490610172908890600401610da9565b60206040518083038186803b15801561018a57600080fd5b505afa15801561019e573d6000803e3d6000fd5b505050506040513d601f19601f820116820180604052508101906101c29190610ce8565b155b156101d05750506105f4565b6101d8610b95565b60405163f8b2cb4f60e01b81526001600160a01b0384169063f8b2cb4f90610204908a90600401610da9565b60206040518083038186803b15801561021c57600080fd5b505afa158015610230573d6000803e3d6000fd5b505050506040513d601f19601f820116820180604052508101906102549190610d06565b815260405163f8b2cb4f60e01b81526001600160a01b0384169063f8b2cb4f90610282908990600401610da9565b60206040518083038186803b15801561029a57600080fd5b505afa1580156102ae573d6000803e3d6000fd5b505050506040513d601f19601f820116820180604052508101906102d29190610d06565b6020820152604051634a46c67360e11b81526001600160a01b0384169063948d8ce690610303908a90600401610da9565b60206040518083038186803b15801561031b57600080fd5b505afa15801561032f573d6000803e3d6000fd5b505050506040513d601f19601f820116820180604052508101906103539190610d06565b60408083019190915251634a46c67360e11b81526001600160a01b0384169063948d8ce690610386908990600401610da9565b60206040518083038186803b15801561039e57600080fd5b505afa1580156103b2573d6000803e3d6000fd5b505050506040513d601f19601f820116820180604052508101906103d69190610d06565b816060018181525050826001600160a01b031663d4cadf686040518163ffffffff1660e01b815260040160206040518083038186803b15801561041857600080fd5b505afa15801561042c573d6000803e3d6000fd5b505050506040513d601f19601f820116820180604052508101906104509190610d06565b608082015260005b828110156105ef5761048382602001516003670de0b6b3a76400008161047a57fe5b04600101610b36565b86828151811061048f57fe5b602002602001015111156104a2576105ef565b836001600160a01b031663f8d6aed4620493e084600001518560400151866020015187606001518c88815181106104d557fe5b602002602001015189608001516040518863ffffffff1660e01b815260040161050396959493929190610dcf565b60206040518083038187803b15801561051b57600080fd5b5086fa9350505050801561054c575060408051601f3d908101601f1916820190925261054991810190610d06565b60015b610586573d80801561057a576040519150601f19603f3d011682016040523d82523d6000602084013e61057f565b606091505b50506105ef565b825161059e906002670de0b6b3a76400005b04610b36565b8111156105ab57506105ef565b808683815181106105b857fe5b6020026020010181815250508582815181106105d057fe5b6020026020010151600014156105e657506105ef565b50600101610458565b505050505b949350505050565b805160609085908067ffffffffffffffff8111801561061a57600080fd5b50604051908082528060200260200182016040528015610644578160200160208202803683370190505b50604051630bcded8960e21b81529093506001600160a01b03831690632f37b62490610674908990600401610da9565b60206040518083038186803b15801561068c57600080fd5b505afa1580156106a0573d6000803e3d6000fd5b505050506040513d601f19601f820116820180604052508101906106c49190610ce8565b15806107495750604051630bcded8960e21b81526001600160a01b03831690632f37b624906106f7908890600401610da9565b60206040518083038186803b15801561070f57600080fd5b505afa158015610723573d6000803e3d6000fd5b505050506040513d601f19601f820116820180604052508101906107479190610ce8565b155b156107555750506105f4565b61075d610b95565b60405163f8b2cb4f60e01b81526001600160a01b0384169063f8b2cb4f90610789908a90600401610da9565b60206040518083038186803b1580156107a157600080fd5b505afa1580156107b5573d6000803e3d6000fd5b505050506040513d601f19601f820116820180604052508101906107d99190610d06565b815260405163f8b2cb4f60e01b81526001600160a01b0384169063f8b2cb4f90610807908990600401610da9565b60206040518083038186803b15801561081f57600080fd5b505afa158015610833573d6000803e3d6000fd5b505050506040513d601f19601f820116820180604052508101906108579190610d06565b6020820152604051634a46c67360e11b81526001600160a01b0384169063948d8ce690610888908a90600401610da9565b60206040518083038186803b1580156108a057600080fd5b505afa1580156108b4573d6000803e3d6000fd5b505050506040513d601f19601f820116820180604052508101906108d89190610d06565b60408083019190915251634a46c67360e11b81526001600160a01b0384169063948d8ce69061090b908990600401610da9565b60206040518083038186803b15801561092357600080fd5b505afa158015610937573d6000803e3d6000fd5b505050506040513d601f19601f8201168201806040525081019061095b9190610d06565b816060018181525050826001600160a01b031663d4cadf686040518163ffffffff1660e01b815260040160206040518083038186803b15801561099d57600080fd5b505afa1580156109b1573d6000803e3d6000fd5b505050506040513d601f19601f820116820180604052508101906109d59190610d06565b608082015260005b828110156105ef5781516109fb906002670de0b6b3a7640000610598565b868281518110610a0757fe5b60200260200101511115610a1a576105ef565b836001600160a01b031663ba9530a6620493e084600001518560400151866020015187606001518c8881518110610a4d57fe5b602002602001015189608001516040518863ffffffff1660e01b8152600401610a7b96959493929190610dcf565b60206040518083038187803b158015610a9357600080fd5b5086fa93505050508015610ac4575060408051601f3d908101601f19168201909252610ac191810190610d06565b60015b610af2573d80801561057a576040519150601f19603f3d011682016040523d82523d6000602084013e61057f565b80868381518110610aff57fe5b602002602001018181525050858281518110610b1757fe5b602002602001015160001415610b2d57506105ef565b506001016109dd565b60008282028315801590610b53575082848281610b4f57fe5b0414155b15610b62576000915050610b8f565b6706f05b59d3b20000810181811015610b8057600092505050610b8f565b670de0b6b3a764000090049150505b92915050565b6040518060a0016040528060008152602001600081526020016000815260200160008152602001600081525090565b8035610b8f81610ea3565b600082601f830112610be057600080fd5b8135610bf3610bee82610e50565b610e29565b91508181835260208401935060208101905083856020840282011115610c1857600080fd5b60005b83811015610c445781610c2e8882610c59565b8452506020928301929190910190600101610c1b565b5050505092915050565b8051610b8f81610eba565b8035610b8f81610ec3565b8051610b8f81610ec3565b60008060008060808587031215610c8557600080fd5b6000610c918787610bc4565b9450506020610ca287828801610bc4565b9350506040610cb387828801610bc4565b925050606085013567ffffffffffffffff811115610cd057600080fd5b610cdc87828801610bcf565b91505092959194509250565b600060208284031215610cfa57600080fd5b60006105f48484610c4e565b600060208284031215610d1857600080fd5b60006105f48484610c64565b6000610d308383610da0565b505060200190565b610d4181610e84565b82525050565b6000610d5282610e77565b610d5c8185610e7b565b9350610d6783610e71565b8060005b83811015610d95578151610d7f8882610d24565b9750610d8a83610e71565b925050600101610d6b565b509495945050505050565b610d4181610ea0565b60208101610b8f8284610d38565b60208082528101610dc88184610d47565b9392505050565b60c08101610ddd8289610da0565b610dea6020830188610da0565b610df76040830187610da0565b610e046060830186610da0565b610e116080830185610da0565b610e1e60a0830184610da0565b979650505050505050565b60405181810167ffffffffffffffff81118282101715610e4857600080fd5b604052919050565b600067ffffffffffffffff821115610e6757600080fd5b5060209081020190565b60200190565b5190565b90815260200190565b6000610b8f82610e94565b151590565b6001600160a01b031690565b90565b610eac81610e84565b8114610eb757600080fd5b50565b610eac81610e8f565b610eac81610ea056fea264697066735822122079a70666b72cfec4786f6065312b728031071d03ef1bdeb696892ee57a8c829164736f6c634300060c0033",
                "opcodes": "PUSH1 0x80 PUSH1 0x40 MSTORE CALLVALUE DUP1 ISZERO PUSH2 0x10 JUMPI PUSH1 0x0 DUP1 REVERT JUMPDEST POP PUSH2 0xF02 DUP1 PUSH2 0x20 PUSH1 0x0 CODECOPY PUSH1 0x0 RETURN INVALID PUSH1 0x80 PUSH1 0x40 MSTORE CALLVALUE DUP1 ISZERO PUSH2 0x10 JUMPI PUSH1 0x0 DUP1 REVERT JUMPDEST POP PUSH1 0x4 CALLDATASIZE LT PUSH2 0x36 JUMPI PUSH1 0x0 CALLDATALOAD PUSH1 0xE0 SHR DUP1 PUSH4 0x57494B1D EQ PUSH2 0x3B JUMPI DUP1 PUSH4 0x98777748 EQ PUSH2 0x64 JUMPI JUMPDEST PUSH1 0x0 DUP1 REVERT JUMPDEST PUSH2 0x4E PUSH2 0x49 CALLDATASIZE PUSH1 0x4 PUSH2 0xC6F JUMP JUMPDEST PUSH2 0x77 JUMP JUMPDEST PUSH1 0x40 MLOAD PUSH2 0x5B SWAP2 SWAP1 PUSH2 0xDB7 JUMP JUMPDEST PUSH1 0x40 MLOAD DUP1 SWAP2 SUB SWAP1 RETURN JUMPDEST PUSH2 0x4E PUSH2 0x72 CALLDATASIZE PUSH1 0x4 PUSH2 0xC6F JUMP JUMPDEST PUSH2 0x5FC JUMP JUMPDEST DUP1 MLOAD PUSH1 0x60 SWAP1 DUP6 SWAP1 DUP1 PUSH8 0xFFFFFFFFFFFFFFFF DUP2 GT DUP1 ISZERO PUSH2 0x95 JUMPI PUSH1 0x0 DUP1 REVERT JUMPDEST POP PUSH1 0x40 MLOAD SWAP1 DUP1 DUP3 MSTORE DUP1 PUSH1 0x20 MUL PUSH1 0x20 ADD DUP3 ADD PUSH1 0x40 MSTORE DUP1 ISZERO PUSH2 0xBF JUMPI DUP2 PUSH1 0x20 ADD PUSH1 0x20 DUP3 MUL DUP1 CALLDATASIZE DUP4 CALLDATACOPY ADD SWAP1 POP JUMPDEST POP PUSH1 0x40 MLOAD PUSH4 0xBCDED89 PUSH1 0xE2 SHL DUP2 MSTORE SWAP1 SWAP4 POP PUSH1 0x1 PUSH1 0x1 PUSH1 0xA0 SHL SUB DUP4 AND SWAP1 PUSH4 0x2F37B624 SWAP1 PUSH2 0xEF SWAP1 DUP10 SWAP1 PUSH1 0x4 ADD PUSH2 0xDA9 JUMP JUMPDEST PUSH1 0x20 PUSH1 0x40 MLOAD DUP1 DUP4 SUB DUP2 DUP7 DUP1 EXTCODESIZE ISZERO DUP1 ISZERO PUSH2 0x107 JUMPI PUSH1 0x0 DUP1 REVERT JUMPDEST POP GAS STATICCALL ISZERO DUP1 ISZERO PUSH2 0x11B JUMPI RETURNDATASIZE PUSH1 0x0 DUP1 RETURNDATACOPY RETURNDATASIZE PUSH1 0x0 REVERT JUMPDEST POP POP POP POP PUSH1 0x40 MLOAD RETURNDATASIZE PUSH1 0x1F NOT PUSH1 0x1F DUP3 ADD AND DUP3 ADD DUP1 PUSH1 0x40 MSTORE POP DUP2 ADD SWAP1 PUSH2 0x13F SWAP2 SWAP1 PUSH2 0xCE8 JUMP JUMPDEST ISZERO DUP1 PUSH2 0x1C4 JUMPI POP PUSH1 0x40 MLOAD PUSH4 0xBCDED89 PUSH1 0xE2 SHL DUP2 MSTORE PUSH1 0x1 PUSH1 0x1 PUSH1 0xA0 SHL SUB DUP4 AND SWAP1 PUSH4 0x2F37B624 SWAP1 PUSH2 0x172 SWAP1 DUP9 SWAP1 PUSH1 0x4 ADD PUSH2 0xDA9 JUMP JUMPDEST PUSH1 0x20 PUSH1 0x40 MLOAD DUP1 DUP4 SUB DUP2 DUP7 DUP1 EXTCODESIZE ISZERO DUP1 ISZERO PUSH2 0x18A JUMPI PUSH1 0x0 DUP1 REVERT JUMPDEST POP GAS STATICCALL ISZERO DUP1 ISZERO PUSH2 0x19E JUMPI RETURNDATASIZE PUSH1 0x0 DUP1 RETURNDATACOPY RETURNDATASIZE PUSH1 0x0 REVERT JUMPDEST POP POP POP POP PUSH1 0x40 MLOAD RETURNDATASIZE PUSH1 0x1F NOT PUSH1 0x1F DUP3 ADD AND DUP3 ADD DUP1 PUSH1 0x40 MSTORE POP DUP2 ADD SWAP1 PUSH2 0x1C2 SWAP2 SWAP1 PUSH2 0xCE8 JUMP JUMPDEST ISZERO JUMPDEST ISZERO PUSH2 0x1D0 JUMPI POP POP PUSH2 0x5F4 JUMP JUMPDEST PUSH2 0x1D8 PUSH2 0xB95 JUMP JUMPDEST PUSH1 0x40 MLOAD PUSH4 0xF8B2CB4F PUSH1 0xE0 SHL DUP2 MSTORE PUSH1 0x1 PUSH1 0x1 PUSH1 0xA0 SHL SUB DUP5 AND SWAP1 PUSH4 0xF8B2CB4F SWAP1 PUSH2 0x204 SWAP1 DUP11 SWAP1 PUSH1 0x4 ADD PUSH2 0xDA9 JUMP JUMPDEST PUSH1 0x20 PUSH1 0x40 MLOAD DUP1 DUP4 SUB DUP2 DUP7 DUP1 EXTCODESIZE ISZERO DUP1 ISZERO PUSH2 0x21C JUMPI PUSH1 0x0 DUP1 REVERT JUMPDEST POP GAS STATICCALL ISZERO DUP1 ISZERO PUSH2 0x230 JUMPI RETURNDATASIZE PUSH1 0x0 DUP1 RETURNDATACOPY RETURNDATASIZE PUSH1 0x0 REVERT JUMPDEST POP POP POP POP PUSH1 0x40 MLOAD RETURNDATASIZE PUSH1 0x1F NOT PUSH1 0x1F DUP3 ADD AND DUP3 ADD DUP1 PUSH1 0x40 MSTORE POP DUP2 ADD SWAP1 PUSH2 0x254 SWAP2 SWAP1 PUSH2 0xD06 JUMP JUMPDEST DUP2 MSTORE PUSH1 0x40 MLOAD PUSH4 0xF8B2CB4F PUSH1 0xE0 SHL DUP2 MSTORE PUSH1 0x1 PUSH1 0x1 PUSH1 0xA0 SHL SUB DUP5 AND SWAP1 PUSH4 0xF8B2CB4F SWAP1 PUSH2 0x282 SWAP1 DUP10 SWAP1 PUSH1 0x4 ADD PUSH2 0xDA9 JUMP JUMPDEST PUSH1 0x20 PUSH1 0x40 MLOAD DUP1 DUP4 SUB DUP2 DUP7 DUP1 EXTCODESIZE ISZERO DUP1 ISZERO PUSH2 0x29A JUMPI PUSH1 0x0 DUP1 REVERT JUMPDEST POP GAS STATICCALL ISZERO DUP1 ISZERO PUSH2 0x2AE JUMPI RETURNDATASIZE PUSH1 0x0 DUP1 RETURNDATACOPY RETURNDATASIZE PUSH1 0x0 REVERT JUMPDEST POP POP POP POP PUSH1 0x40 MLOAD RETURNDATASIZE PUSH1 0x1F NOT PUSH1 0x1F DUP3 ADD AND DUP3 ADD DUP1 PUSH1 0x40 MSTORE POP DUP2 ADD SWAP1 PUSH2 0x2D2 SWAP2 SWAP1 PUSH2 0xD06 JUMP JUMPDEST PUSH1 0x20 DUP3 ADD MSTORE PUSH1 0x40 MLOAD PUSH4 0x4A46C673 PUSH1 0xE1 SHL DUP2 MSTORE PUSH1 0x1 PUSH1 0x1 PUSH1 0xA0 SHL SUB DUP5 AND SWAP1 PUSH4 0x948D8CE6 SWAP1 PUSH2 0x303 SWAP1 DUP11 SWAP1 PUSH1 0x4 ADD PUSH2 0xDA9 JUMP JUMPDEST PUSH1 0x20 PUSH1 0x40 MLOAD DUP1 DUP4 SUB DUP2 DUP7 DUP1 EXTCODESIZE ISZERO DUP1 ISZERO PUSH2 0x31B JUMPI PUSH1 0x0 DUP1 REVERT JUMPDEST POP GAS STATICCALL ISZERO DUP1 ISZERO PUSH2 0x32F JUMPI RETURNDATASIZE PUSH1 0x0 DUP1 RETURNDATACOPY RETURNDATASIZE PUSH1 0x0 REVERT JUMPDEST POP POP POP POP PUSH1 0x40 MLOAD RETURNDATASIZE PUSH1 0x1F NOT PUSH1 0x1F DUP3 ADD AND DUP3 ADD DUP1 PUSH1 0x40 MSTORE POP DUP2 ADD SWAP1 PUSH2 0x353 SWAP2 SWAP1 PUSH2 0xD06 JUMP JUMPDEST PUSH1 0x40 DUP1 DUP4 ADD SWAP2 SWAP1 SWAP2 MSTORE MLOAD PUSH4 0x4A46C673 PUSH1 0xE1 SHL DUP2 MSTORE PUSH1 0x1 PUSH1 0x1 PUSH1 0xA0 SHL SUB DUP5 AND SWAP1 PUSH4 0x948D8CE6 SWAP1 PUSH2 0x386 SWAP1 DUP10 SWAP1 PUSH1 0x4 ADD PUSH2 0xDA9 JUMP JUMPDEST PUSH1 0x20 PUSH1 0x40 MLOAD DUP1 DUP4 SUB DUP2 DUP7 DUP1 EXTCODESIZE ISZERO DUP1 ISZERO PUSH2 0x39E JUMPI PUSH1 0x0 DUP1 REVERT JUMPDEST POP GAS STATICCALL ISZERO DUP1 ISZERO PUSH2 0x3B2 JUMPI RETURNDATASIZE PUSH1 0x0 DUP1 RETURNDATACOPY RETURNDATASIZE PUSH1 0x0 REVERT JUMPDEST POP POP POP POP PUSH1 0x40 MLOAD RETURNDATASIZE PUSH1 0x1F NOT PUSH1 0x1F DUP3 ADD AND DUP3 ADD DUP1 PUSH1 0x40 MSTORE POP DUP2 ADD SWAP1 PUSH2 0x3D6 SWAP2 SWAP1 PUSH2 0xD06 JUMP JUMPDEST DUP2 PUSH1 0x60 ADD DUP2 DUP2 MSTORE POP POP DUP3 PUSH1 0x1 PUSH1 0x1 PUSH1 0xA0 SHL SUB AND PUSH4 0xD4CADF68 PUSH1 0x40 MLOAD DUP2 PUSH4 0xFFFFFFFF AND PUSH1 0xE0 SHL DUP2 MSTORE PUSH1 0x4 ADD PUSH1 0x20 PUSH1 0x40 MLOAD DUP1 DUP4 SUB DUP2 DUP7 DUP1 EXTCODESIZE ISZERO DUP1 ISZERO PUSH2 0x418 JUMPI PUSH1 0x0 DUP1 REVERT JUMPDEST POP GAS STATICCALL ISZERO DUP1 ISZERO PUSH2 0x42C JUMPI RETURNDATASIZE PUSH1 0x0 DUP1 RETURNDATACOPY RETURNDATASIZE PUSH1 0x0 REVERT JUMPDEST POP POP POP POP PUSH1 0x40 MLOAD RETURNDATASIZE PUSH1 0x1F NOT PUSH1 0x1F DUP3 ADD AND DUP3 ADD DUP1 PUSH1 0x40 MSTORE POP DUP2 ADD SWAP1 PUSH2 0x450 SWAP2 SWAP1 PUSH2 0xD06 JUMP JUMPDEST PUSH1 0x80 DUP3 ADD MSTORE PUSH1 0x0 JUMPDEST DUP3 DUP2 LT ISZERO PUSH2 0x5EF JUMPI PUSH2 0x483 DUP3 PUSH1 0x20 ADD MLOAD PUSH1 0x3 PUSH8 0xDE0B6B3A7640000 DUP2 PUSH2 0x47A JUMPI INVALID JUMPDEST DIV PUSH1 0x1 ADD PUSH2 0xB36 JUMP JUMPDEST DUP7 DUP3 DUP2 MLOAD DUP2 LT PUSH2 0x48F JUMPI INVALID JUMPDEST PUSH1 0x20 MUL PUSH1 0x20 ADD ADD MLOAD GT ISZERO PUSH2 0x4A2 JUMPI PUSH2 0x5EF JUMP JUMPDEST DUP4 PUSH1 0x1 PUSH1 0x1 PUSH1 0xA0 SHL SUB AND PUSH4 0xF8D6AED4 PUSH3 0x493E0 DUP5 PUSH1 0x0 ADD MLOAD DUP6 PUSH1 0x40 ADD MLOAD DUP7 PUSH1 0x20 ADD MLOAD DUP8 PUSH1 0x60 ADD MLOAD DUP13 DUP9 DUP2 MLOAD DUP2 LT PUSH2 0x4D5 JUMPI INVALID JUMPDEST PUSH1 0x20 MUL PUSH1 0x20 ADD ADD MLOAD DUP10 PUSH1 0x80 ADD MLOAD PUSH1 0x40 MLOAD DUP9 PUSH4 0xFFFFFFFF AND PUSH1 0xE0 SHL DUP2 MSTORE PUSH1 0x4 ADD PUSH2 0x503 SWAP7 SWAP6 SWAP5 SWAP4 SWAP3 SWAP2 SWAP1 PUSH2 0xDCF JUMP JUMPDEST PUSH1 0x20 PUSH1 0x40 MLOAD DUP1 DUP4 SUB DUP2 DUP8 DUP1 EXTCODESIZE ISZERO DUP1 ISZERO PUSH2 0x51B JUMPI PUSH1 0x0 DUP1 REVERT JUMPDEST POP DUP7 STATICCALL SWAP4 POP POP POP POP DUP1 ISZERO PUSH2 0x54C JUMPI POP PUSH1 0x40 DUP1 MLOAD PUSH1 0x1F RETURNDATASIZE SWAP1 DUP2 ADD PUSH1 0x1F NOT AND DUP3 ADD SWAP1 SWAP3 MSTORE PUSH2 0x549 SWAP2 DUP2 ADD SWAP1 PUSH2 0xD06 JUMP JUMPDEST PUSH1 0x1 JUMPDEST PUSH2 0x586 JUMPI RETURNDATASIZE DUP1 DUP1 ISZERO PUSH2 0x57A JUMPI PUSH1 0x40 MLOAD SWAP2 POP PUSH1 0x1F NOT PUSH1 0x3F RETURNDATASIZE ADD AND DUP3 ADD PUSH1 0x40 MSTORE RETURNDATASIZE DUP3 MSTORE RETURNDATASIZE PUSH1 0x0 PUSH1 0x20 DUP5 ADD RETURNDATACOPY PUSH2 0x57F JUMP JUMPDEST PUSH1 0x60 SWAP2 POP JUMPDEST POP POP PUSH2 0x5EF JUMP JUMPDEST DUP3 MLOAD PUSH2 0x59E SWAP1 PUSH1 0x2 PUSH8 0xDE0B6B3A7640000 JUMPDEST DIV PUSH2 0xB36 JUMP JUMPDEST DUP2 GT ISZERO PUSH2 0x5AB JUMPI POP PUSH2 0x5EF JUMP JUMPDEST DUP1 DUP7 DUP4 DUP2 MLOAD DUP2 LT PUSH2 0x5B8 JUMPI INVALID JUMPDEST PUSH1 0x20 MUL PUSH1 0x20 ADD ADD DUP2 DUP2 MSTORE POP POP DUP6 DUP3 DUP2 MLOAD DUP2 LT PUSH2 0x5D0 JUMPI INVALID JUMPDEST PUSH1 0x20 MUL PUSH1 0x20 ADD ADD MLOAD PUSH1 0x0 EQ ISZERO PUSH2 0x5E6 JUMPI POP PUSH2 0x5EF JUMP JUMPDEST POP PUSH1 0x1 ADD PUSH2 0x458 JUMP JUMPDEST POP POP POP POP JUMPDEST SWAP5 SWAP4 POP POP POP POP JUMP JUMPDEST DUP1 MLOAD PUSH1 0x60 SWAP1 DUP6 SWAP1 DUP1 PUSH8 0xFFFFFFFFFFFFFFFF DUP2 GT DUP1 ISZERO PUSH2 0x61A JUMPI PUSH1 0x0 DUP1 REVERT JUMPDEST POP PUSH1 0x40 MLOAD SWAP1 DUP1 DUP3 MSTORE DUP1 PUSH1 0x20 MUL PUSH1 0x20 ADD DUP3 ADD PUSH1 0x40 MSTORE DUP1 ISZERO PUSH2 0x644 JUMPI DUP2 PUSH1 0x20 ADD PUSH1 0x20 DUP3 MUL DUP1 CALLDATASIZE DUP4 CALLDATACOPY ADD SWAP1 POP JUMPDEST POP PUSH1 0x40 MLOAD PUSH4 0xBCDED89 PUSH1 0xE2 SHL DUP2 MSTORE SWAP1 SWAP4 POP PUSH1 0x1 PUSH1 0x1 PUSH1 0xA0 SHL SUB DUP4 AND SWAP1 PUSH4 0x2F37B624 SWAP1 PUSH2 0x674 SWAP1 DUP10 SWAP1 PUSH1 0x4 ADD PUSH2 0xDA9 JUMP JUMPDEST PUSH1 0x20 PUSH1 0x40 MLOAD DUP1 DUP4 SUB DUP2 DUP7 DUP1 EXTCODESIZE ISZERO DUP1 ISZERO PUSH2 0x68C JUMPI PUSH1 0x0 DUP1 REVERT JUMPDEST POP GAS STATICCALL ISZERO DUP1 ISZERO PUSH2 0x6A0 JUMPI RETURNDATASIZE PUSH1 0x0 DUP1 RETURNDATACOPY RETURNDATASIZE PUSH1 0x0 REVERT JUMPDEST POP POP POP POP PUSH1 0x40 MLOAD RETURNDATASIZE PUSH1 0x1F NOT PUSH1 0x1F DUP3 ADD AND DUP3 ADD DUP1 PUSH1 0x40 MSTORE POP DUP2 ADD SWAP1 PUSH2 0x6C4 SWAP2 SWAP1 PUSH2 0xCE8 JUMP JUMPDEST ISZERO DUP1 PUSH2 0x749 JUMPI POP PUSH1 0x40 MLOAD PUSH4 0xBCDED89 PUSH1 0xE2 SHL DUP2 MSTORE PUSH1 0x1 PUSH1 0x1 PUSH1 0xA0 SHL SUB DUP4 AND SWAP1 PUSH4 0x2F37B624 SWAP1 PUSH2 0x6F7 SWAP1 DUP9 SWAP1 PUSH1 0x4 ADD PUSH2 0xDA9 JUMP JUMPDEST PUSH1 0x20 PUSH1 0x40 MLOAD DUP1 DUP4 SUB DUP2 DUP7 DUP1 EXTCODESIZE ISZERO DUP1 ISZERO PUSH2 0x70F JUMPI PUSH1 0x0 DUP1 REVERT JUMPDEST POP GAS STATICCALL ISZERO DUP1 ISZERO PUSH2 0x723 JUMPI RETURNDATASIZE PUSH1 0x0 DUP1 RETURNDATACOPY RETURNDATASIZE PUSH1 0x0 REVERT JUMPDEST POP POP POP POP PUSH1 0x40 MLOAD RETURNDATASIZE PUSH1 0x1F NOT PUSH1 0x1F DUP3 ADD AND DUP3 ADD DUP1 PUSH1 0x40 MSTORE POP DUP2 ADD SWAP1 PUSH2 0x747 SWAP2 SWAP1 PUSH2 0xCE8 JUMP JUMPDEST ISZERO JUMPDEST ISZERO PUSH2 0x755 JUMPI POP POP PUSH2 0x5F4 JUMP JUMPDEST PUSH2 0x75D PUSH2 0xB95 JUMP JUMPDEST PUSH1 0x40 MLOAD PUSH4 0xF8B2CB4F PUSH1 0xE0 SHL DUP2 MSTORE PUSH1 0x1 PUSH1 0x1 PUSH1 0xA0 SHL SUB DUP5 AND SWAP1 PUSH4 0xF8B2CB4F SWAP1 PUSH2 0x789 SWAP1 DUP11 SWAP1 PUSH1 0x4 ADD PUSH2 0xDA9 JUMP JUMPDEST PUSH1 0x20 PUSH1 0x40 MLOAD DUP1 DUP4 SUB DUP2 DUP7 DUP1 EXTCODESIZE ISZERO DUP1 ISZERO PUSH2 0x7A1 JUMPI PUSH1 0x0 DUP1 REVERT JUMPDEST POP GAS STATICCALL ISZERO DUP1 ISZERO PUSH2 0x7B5 JUMPI RETURNDATASIZE PUSH1 0x0 DUP1 RETURNDATACOPY RETURNDATASIZE PUSH1 0x0 REVERT JUMPDEST POP POP POP POP PUSH1 0x40 MLOAD RETURNDATASIZE PUSH1 0x1F NOT PUSH1 0x1F DUP3 ADD AND DUP3 ADD DUP1 PUSH1 0x40 MSTORE POP DUP2 ADD SWAP1 PUSH2 0x7D9 SWAP2 SWAP1 PUSH2 0xD06 JUMP JUMPDEST DUP2 MSTORE PUSH1 0x40 MLOAD PUSH4 0xF8B2CB4F PUSH1 0xE0 SHL DUP2 MSTORE PUSH1 0x1 PUSH1 0x1 PUSH1 0xA0 SHL SUB DUP5 AND SWAP1 PUSH4 0xF8B2CB4F SWAP1 PUSH2 0x807 SWAP1 DUP10 SWAP1 PUSH1 0x4 ADD PUSH2 0xDA9 JUMP JUMPDEST PUSH1 0x20 PUSH1 0x40 MLOAD DUP1 DUP4 SUB DUP2 DUP7 DUP1 EXTCODESIZE ISZERO DUP1 ISZERO PUSH2 0x81F JUMPI PUSH1 0x0 DUP1 REVERT JUMPDEST POP GAS STATICCALL ISZERO DUP1 ISZERO PUSH2 0x833 JUMPI RETURNDATASIZE PUSH1 0x0 DUP1 RETURNDATACOPY RETURNDATASIZE PUSH1 0x0 REVERT JUMPDEST POP POP POP POP PUSH1 0x40 MLOAD RETURNDATASIZE PUSH1 0x1F NOT PUSH1 0x1F DUP3 ADD AND DUP3 ADD DUP1 PUSH1 0x40 MSTORE POP DUP2 ADD SWAP1 PUSH2 0x857 SWAP2 SWAP1 PUSH2 0xD06 JUMP JUMPDEST PUSH1 0x20 DUP3 ADD MSTORE PUSH1 0x40 MLOAD PUSH4 0x4A46C673 PUSH1 0xE1 SHL DUP2 MSTORE PUSH1 0x1 PUSH1 0x1 PUSH1 0xA0 SHL SUB DUP5 AND SWAP1 PUSH4 0x948D8CE6 SWAP1 PUSH2 0x888 SWAP1 DUP11 SWAP1 PUSH1 0x4 ADD PUSH2 0xDA9 JUMP JUMPDEST PUSH1 0x20 PUSH1 0x40 MLOAD DUP1 DUP4 SUB DUP2 DUP7 DUP1 EXTCODESIZE ISZERO DUP1 ISZERO PUSH2 0x8A0 JUMPI PUSH1 0x0 DUP1 REVERT JUMPDEST POP GAS STATICCALL ISZERO DUP1 ISZERO PUSH2 0x8B4 JUMPI RETURNDATASIZE PUSH1 0x0 DUP1 RETURNDATACOPY RETURNDATASIZE PUSH1 0x0 REVERT JUMPDEST POP POP POP POP PUSH1 0x40 MLOAD RETURNDATASIZE PUSH1 0x1F NOT PUSH1 0x1F DUP3 ADD AND DUP3 ADD DUP1 PUSH1 0x40 MSTORE POP DUP2 ADD SWAP1 PUSH2 0x8D8 SWAP2 SWAP1 PUSH2 0xD06 JUMP JUMPDEST PUSH1 0x40 DUP1 DUP4 ADD SWAP2 SWAP1 SWAP2 MSTORE MLOAD PUSH4 0x4A46C673 PUSH1 0xE1 SHL DUP2 MSTORE PUSH1 0x1 PUSH1 0x1 PUSH1 0xA0 SHL SUB DUP5 AND SWAP1 PUSH4 0x948D8CE6 SWAP1 PUSH2 0x90B SWAP1 DUP10 SWAP1 PUSH1 0x4 ADD PUSH2 0xDA9 JUMP JUMPDEST PUSH1 0x20 PUSH1 0x40 MLOAD DUP1 DUP4 SUB DUP2 DUP7 DUP1 EXTCODESIZE ISZERO DUP1 ISZERO PUSH2 0x923 JUMPI PUSH1 0x0 DUP1 REVERT JUMPDEST POP GAS STATICCALL ISZERO DUP1 ISZERO PUSH2 0x937 JUMPI RETURNDATASIZE PUSH1 0x0 DUP1 RETURNDATACOPY RETURNDATASIZE PUSH1 0x0 REVERT JUMPDEST POP POP POP POP PUSH1 0x40 MLOAD RETURNDATASIZE PUSH1 0x1F NOT PUSH1 0x1F DUP3 ADD AND DUP3 ADD DUP1 PUSH1 0x40 MSTORE POP DUP2 ADD SWAP1 PUSH2 0x95B SWAP2 SWAP1 PUSH2 0xD06 JUMP JUMPDEST DUP2 PUSH1 0x60 ADD DUP2 DUP2 MSTORE POP POP DUP3 PUSH1 0x1 PUSH1 0x1 PUSH1 0xA0 SHL SUB AND PUSH4 0xD4CADF68 PUSH1 0x40 MLOAD DUP2 PUSH4 0xFFFFFFFF AND PUSH1 0xE0 SHL DUP2 MSTORE PUSH1 0x4 ADD PUSH1 0x20 PUSH1 0x40 MLOAD DUP1 DUP4 SUB DUP2 DUP7 DUP1 EXTCODESIZE ISZERO DUP1 ISZERO PUSH2 0x99D JUMPI PUSH1 0x0 DUP1 REVERT JUMPDEST POP GAS STATICCALL ISZERO DUP1 ISZERO PUSH2 0x9B1 JUMPI RETURNDATASIZE PUSH1 0x0 DUP1 RETURNDATACOPY RETURNDATASIZE PUSH1 0x0 REVERT JUMPDEST POP POP POP POP PUSH1 0x40 MLOAD RETURNDATASIZE PUSH1 0x1F NOT PUSH1 0x1F DUP3 ADD AND DUP3 ADD DUP1 PUSH1 0x40 MSTORE POP DUP2 ADD SWAP1 PUSH2 0x9D5 SWAP2 SWAP1 PUSH2 0xD06 JUMP JUMPDEST PUSH1 0x80 DUP3 ADD MSTORE PUSH1 0x0 JUMPDEST DUP3 DUP2 LT ISZERO PUSH2 0x5EF JUMPI DUP2 MLOAD PUSH2 0x9FB SWAP1 PUSH1 0x2 PUSH8 0xDE0B6B3A7640000 PUSH2 0x598 JUMP JUMPDEST DUP7 DUP3 DUP2 MLOAD DUP2 LT PUSH2 0xA07 JUMPI INVALID JUMPDEST PUSH1 0x20 MUL PUSH1 0x20 ADD ADD MLOAD GT ISZERO PUSH2 0xA1A JUMPI PUSH2 0x5EF JUMP JUMPDEST DUP4 PUSH1 0x1 PUSH1 0x1 PUSH1 0xA0 SHL SUB AND PUSH4 0xBA9530A6 PUSH3 0x493E0 DUP5 PUSH1 0x0 ADD MLOAD DUP6 PUSH1 0x40 ADD MLOAD DUP7 PUSH1 0x20 ADD MLOAD DUP8 PUSH1 0x60 ADD MLOAD DUP13 DUP9 DUP2 MLOAD DUP2 LT PUSH2 0xA4D JUMPI INVALID JUMPDEST PUSH1 0x20 MUL PUSH1 0x20 ADD ADD MLOAD DUP10 PUSH1 0x80 ADD MLOAD PUSH1 0x40 MLOAD DUP9 PUSH4 0xFFFFFFFF AND PUSH1 0xE0 SHL DUP2 MSTORE PUSH1 0x4 ADD PUSH2 0xA7B SWAP7 SWAP6 SWAP5 SWAP4 SWAP3 SWAP2 SWAP1 PUSH2 0xDCF JUMP JUMPDEST PUSH1 0x20 PUSH1 0x40 MLOAD DUP1 DUP4 SUB DUP2 DUP8 DUP1 EXTCODESIZE ISZERO DUP1 ISZERO PUSH2 0xA93 JUMPI PUSH1 0x0 DUP1 REVERT JUMPDEST POP DUP7 STATICCALL SWAP4 POP POP POP POP DUP1 ISZERO PUSH2 0xAC4 JUMPI POP PUSH1 0x40 DUP1 MLOAD PUSH1 0x1F RETURNDATASIZE SWAP1 DUP2 ADD PUSH1 0x1F NOT AND DUP3 ADD SWAP1 SWAP3 MSTORE PUSH2 0xAC1 SWAP2 DUP2 ADD SWAP1 PUSH2 0xD06 JUMP JUMPDEST PUSH1 0x1 JUMPDEST PUSH2 0xAF2 JUMPI RETURNDATASIZE DUP1 DUP1 ISZERO PUSH2 0x57A JUMPI PUSH1 0x40 MLOAD SWAP2 POP PUSH1 0x1F NOT PUSH1 0x3F RETURNDATASIZE ADD AND DUP3 ADD PUSH1 0x40 MSTORE RETURNDATASIZE DUP3 MSTORE RETURNDATASIZE PUSH1 0x0 PUSH1 0x20 DUP5 ADD RETURNDATACOPY PUSH2 0x57F JUMP JUMPDEST DUP1 DUP7 DUP4 DUP2 MLOAD DUP2 LT PUSH2 0xAFF JUMPI INVALID JUMPDEST PUSH1 0x20 MUL PUSH1 0x20 ADD ADD DUP2 DUP2 MSTORE POP POP DUP6 DUP3 DUP2 MLOAD DUP2 LT PUSH2 0xB17 JUMPI INVALID JUMPDEST PUSH1 0x20 MUL PUSH1 0x20 ADD ADD MLOAD PUSH1 0x0 EQ ISZERO PUSH2 0xB2D JUMPI POP PUSH2 0x5EF JUMP JUMPDEST POP PUSH1 0x1 ADD PUSH2 0x9DD JUMP JUMPDEST PUSH1 0x0 DUP3 DUP3 MUL DUP4 ISZERO DUP1 ISZERO SWAP1 PUSH2 0xB53 JUMPI POP DUP3 DUP5 DUP3 DUP2 PUSH2 0xB4F JUMPI INVALID JUMPDEST DIV EQ ISZERO JUMPDEST ISZERO PUSH2 0xB62 JUMPI PUSH1 0x0 SWAP2 POP POP PUSH2 0xB8F JUMP JUMPDEST PUSH8 0x6F05B59D3B20000 DUP2 ADD DUP2 DUP2 LT ISZERO PUSH2 0xB80 JUMPI PUSH1 0x0 SWAP3 POP POP POP PUSH2 0xB8F JUMP JUMPDEST PUSH8 0xDE0B6B3A7640000 SWAP1 DIV SWAP2 POP POP JUMPDEST SWAP3 SWAP2 POP POP JUMP JUMPDEST PUSH1 0x40 MLOAD DUP1 PUSH1 0xA0 ADD PUSH1 0x40 MSTORE DUP1 PUSH1 0x0 DUP2 MSTORE PUSH1 0x20 ADD PUSH1 0x0 DUP2 MSTORE PUSH1 0x20 ADD PUSH1 0x0 DUP2 MSTORE PUSH1 0x20 ADD PUSH1 0x0 DUP2 MSTORE PUSH1 0x20 ADD PUSH1 0x0 DUP2 MSTORE POP SWAP1 JUMP JUMPDEST DUP1 CALLDATALOAD PUSH2 0xB8F DUP2 PUSH2 0xEA3 JUMP JUMPDEST PUSH1 0x0 DUP3 PUSH1 0x1F DUP4 ADD SLT PUSH2 0xBE0 JUMPI PUSH1 0x0 DUP1 REVERT JUMPDEST DUP2 CALLDATALOAD PUSH2 0xBF3 PUSH2 0xBEE DUP3 PUSH2 0xE50 JUMP JUMPDEST PUSH2 0xE29 JUMP JUMPDEST SWAP2 POP DUP2 DUP2 DUP4 MSTORE PUSH1 0x20 DUP5 ADD SWAP4 POP PUSH1 0x20 DUP2 ADD SWAP1 POP DUP4 DUP6 PUSH1 0x20 DUP5 MUL DUP3 ADD GT ISZERO PUSH2 0xC18 JUMPI PUSH1 0x0 DUP1 REVERT JUMPDEST PUSH1 0x0 JUMPDEST DUP4 DUP2 LT ISZERO PUSH2 0xC44 JUMPI DUP2 PUSH2 0xC2E DUP9 DUP3 PUSH2 0xC59 JUMP JUMPDEST DUP5 MSTORE POP PUSH1 0x20 SWAP3 DUP4 ADD SWAP3 SWAP2 SWAP1 SWAP2 ADD SWAP1 PUSH1 0x1 ADD PUSH2 0xC1B JUMP JUMPDEST POP POP POP POP SWAP3 SWAP2 POP POP JUMP JUMPDEST DUP1 MLOAD PUSH2 0xB8F DUP2 PUSH2 0xEBA JUMP JUMPDEST DUP1 CALLDATALOAD PUSH2 0xB8F DUP2 PUSH2 0xEC3 JUMP JUMPDEST DUP1 MLOAD PUSH2 0xB8F DUP2 PUSH2 0xEC3 JUMP JUMPDEST PUSH1 0x0 DUP1 PUSH1 0x0 DUP1 PUSH1 0x80 DUP6 DUP8 SUB SLT ISZERO PUSH2 0xC85 JUMPI PUSH1 0x0 DUP1 REVERT JUMPDEST PUSH1 0x0 PUSH2 0xC91 DUP8 DUP8 PUSH2 0xBC4 JUMP JUMPDEST SWAP5 POP POP PUSH1 0x20 PUSH2 0xCA2 DUP8 DUP3 DUP9 ADD PUSH2 0xBC4 JUMP JUMPDEST SWAP4 POP POP PUSH1 0x40 PUSH2 0xCB3 DUP8 DUP3 DUP9 ADD PUSH2 0xBC4 JUMP JUMPDEST SWAP3 POP POP PUSH1 0x60 DUP6 ADD CALLDATALOAD PUSH8 0xFFFFFFFFFFFFFFFF DUP2 GT ISZERO PUSH2 0xCD0 JUMPI PUSH1 0x0 DUP1 REVERT JUMPDEST PUSH2 0xCDC DUP8 DUP3 DUP9 ADD PUSH2 0xBCF JUMP JUMPDEST SWAP2 POP POP SWAP3 SWAP6 SWAP2 SWAP5 POP SWAP3 POP JUMP JUMPDEST PUSH1 0x0 PUSH1 0x20 DUP3 DUP5 SUB SLT ISZERO PUSH2 0xCFA JUMPI PUSH1 0x0 DUP1 REVERT JUMPDEST PUSH1 0x0 PUSH2 0x5F4 DUP5 DUP5 PUSH2 0xC4E JUMP JUMPDEST PUSH1 0x0 PUSH1 0x20 DUP3 DUP5 SUB SLT ISZERO PUSH2 0xD18 JUMPI PUSH1 0x0 DUP1 REVERT JUMPDEST PUSH1 0x0 PUSH2 0x5F4 DUP5 DUP5 PUSH2 0xC64 JUMP JUMPDEST PUSH1 0x0 PUSH2 0xD30 DUP4 DUP4 PUSH2 0xDA0 JUMP JUMPDEST POP POP PUSH1 0x20 ADD SWAP1 JUMP JUMPDEST PUSH2 0xD41 DUP2 PUSH2 0xE84 JUMP JUMPDEST DUP3 MSTORE POP POP JUMP JUMPDEST PUSH1 0x0 PUSH2 0xD52 DUP3 PUSH2 0xE77 JUMP JUMPDEST PUSH2 0xD5C DUP2 DUP6 PUSH2 0xE7B JUMP JUMPDEST SWAP4 POP PUSH2 0xD67 DUP4 PUSH2 0xE71 JUMP JUMPDEST DUP1 PUSH1 0x0 JUMPDEST DUP4 DUP2 LT ISZERO PUSH2 0xD95 JUMPI DUP2 MLOAD PUSH2 0xD7F DUP9 DUP3 PUSH2 0xD24 JUMP JUMPDEST SWAP8 POP PUSH2 0xD8A DUP4 PUSH2 0xE71 JUMP JUMPDEST SWAP3 POP POP PUSH1 0x1 ADD PUSH2 0xD6B JUMP JUMPDEST POP SWAP5 SWAP6 SWAP5 POP POP POP POP POP JUMP JUMPDEST PUSH2 0xD41 DUP2 PUSH2 0xEA0 JUMP JUMPDEST PUSH1 0x20 DUP2 ADD PUSH2 0xB8F DUP3 DUP5 PUSH2 0xD38 JUMP JUMPDEST PUSH1 0x20 DUP1 DUP3 MSTORE DUP2 ADD PUSH2 0xDC8 DUP2 DUP5 PUSH2 0xD47 JUMP JUMPDEST SWAP4 SWAP3 POP POP POP JUMP JUMPDEST PUSH1 0xC0 DUP2 ADD PUSH2 0xDDD DUP3 DUP10 PUSH2 0xDA0 JUMP JUMPDEST PUSH2 0xDEA PUSH1 0x20 DUP4 ADD DUP9 PUSH2 0xDA0 JUMP JUMPDEST PUSH2 0xDF7 PUSH1 0x40 DUP4 ADD DUP8 PUSH2 0xDA0 JUMP JUMPDEST PUSH2 0xE04 PUSH1 0x60 DUP4 ADD DUP7 PUSH2 0xDA0 JUMP JUMPDEST PUSH2 0xE11 PUSH1 0x80 DUP4 ADD DUP6 PUSH2 0xDA0 JUMP JUMPDEST PUSH2 0xE1E PUSH1 0xA0 DUP4 ADD DUP5 PUSH2 0xDA0 JUMP JUMPDEST SWAP8 SWAP7 POP POP POP POP POP POP POP JUMP JUMPDEST PUSH1 0x40 MLOAD DUP2 DUP2 ADD PUSH8 0xFFFFFFFFFFFFFFFF DUP2 GT DUP3 DUP3 LT OR ISZERO PUSH2 0xE48 JUMPI PUSH1 0x0 DUP1 REVERT JUMPDEST PUSH1 0x40 MSTORE SWAP2 SWAP1 POP JUMP JUMPDEST PUSH1 0x0 PUSH8 0xFFFFFFFFFFFFFFFF DUP3 GT ISZERO PUSH2 0xE67 JUMPI PUSH1 0x0 DUP1 REVERT JUMPDEST POP PUSH1 0x20 SWAP1 DUP2 MUL ADD SWAP1 JUMP JUMPDEST PUSH1 0x20 ADD SWAP1 JUMP JUMPDEST MLOAD SWAP1 JUMP JUMPDEST SWAP1 DUP2 MSTORE PUSH1 0x20 ADD SWAP1 JUMP JUMPDEST PUSH1 0x0 PUSH2 0xB8F DUP3 PUSH2 0xE94 JUMP JUMPDEST ISZERO ISZERO SWAP1 JUMP JUMPDEST PUSH1 0x1 PUSH1 0x1 PUSH1 0xA0 SHL SUB AND SWAP1 JUMP JUMPDEST SWAP1 JUMP JUMPDEST PUSH2 0xEAC DUP2 PUSH2 0xE84 JUMP JUMPDEST DUP2 EQ PUSH2 0xEB7 JUMPI PUSH1 0x0 DUP1 REVERT JUMPDEST POP JUMP JUMPDEST PUSH2 0xEAC DUP2 PUSH2 0xE8F JUMP JUMPDEST PUSH2 0xEAC DUP2 PUSH2 0xEA0 JUMP INVALID LOG2 PUSH5 0x6970667358 0x22 SLT KECCAK256 PUSH26 0xA70666B72CFEC4786F6065312B728031071D03EF1BDEB696892E 0xE5 PUSH27 0x8C829164736F6C634300060C003300000000000000000000000000 "
            }
        }
    },
    "sourceTreeHashHex": "0xe817ac49155f9d63b26c6fa89288bb1f75e1c839243e2cc0465c94776a69e648",
    "compiler": {
        "name": "solc",
        "version": "0.6.12+commit.27d51765",
        "settings": {
            "remappings": [
                "@0x/contracts-utils=/Users/kyuc/code/0x/protocol/packages/asset-swapper/node_modules/@0x/contracts-utils",
                "@0x/contracts-erc20=/Users/kyuc/code/0x/protocol/packages/asset-swapper/node_modules/@0x/contracts-erc20",
                "@0x/contracts-zero-ex=/Users/kyuc/code/0x/protocol/packages/asset-swapper/node_modules/@0x/contracts-zero-ex"
            ],
            "optimizer": {
                "enabled": true,
                "runs": 200,
                "details": {
                    "yul": false,
                    "deduplicate": true
                }
            },
            "outputSelection": {
                "*": {
                    "*": [
                        "abi",
                        "devdoc",
                        "evm.bytecode.object",
                        "evm.bytecode.sourceMap",
                        "evm.deployedBytecode.object",
                        "evm.deployedBytecode.sourceMap"
                    ]
                }
            },
            "evmVersion": "istanbul"
        }
    },
    "chains": {}
}