{
    "schemaVersion": "2.0.0",
    "contractName": "CompoundSampler",
    "compilerOutput": {
        "abi": [
            {
                "inputs": [
                    {
                        "internalType": "contract ICToken",
                        "name": "cToken",
                        "type": "address"
                    },
                    {
                        "internalType": "contract IERC20TokenV06",
                        "name": "takerToken",
                        "type": "address"
                    },
                    {
                        "internalType": "contract IERC20TokenV06",
                        "name": "makerToken",
                        "type": "address"
                    },
                    {
                        "internalType": "uint256[]",
                        "name": "makerTokenAmounts",
                        "type": "uint256[]"
                    }
                ],
                "name": "sampleBuysFromCompound",
                "outputs": [
                    {
                        "internalType": "uint256[]",
                        "name": "takerTokenAmounts",
                        "type": "uint256[]"
                    }
                ],
                "stateMutability": "view",
                "type": "function"
            },
            {
                "inputs": [
                    {
                        "internalType": "contract ICToken",
                        "name": "cToken",
                        "type": "address"
                    },
                    {
                        "internalType": "contract IERC20TokenV06",
                        "name": "takerToken",
                        "type": "address"
                    },
                    {
                        "internalType": "contract IERC20TokenV06",
                        "name": "makerToken",
                        "type": "address"
                    },
                    {
                        "internalType": "uint256[]",
                        "name": "takerTokenAmounts",
                        "type": "uint256[]"
                    }
                ],
                "name": "sampleSellsFromCompound",
                "outputs": [
                    {
                        "internalType": "uint256[]",
                        "name": "makerTokenAmounts",
                        "type": "uint256[]"
                    }
                ],
                "stateMutability": "view",
                "type": "function"
            }
        ],
        "devdoc": {
            "kind": "dev",
            "methods": {},
            "version": 1
        },
        "evm": {
            "bytecode": {
                "linkReferences": {},
                "object": "0x608060405234801561001057600080fd5b50610791806100206000396000f3fe608060405234801561001057600080fd5b50600436106100365760003560e01c8063034eaff91461003b578063a76bbec414610064575b600080fd5b61004e61004936600461055b565b610077565b60405161005b9190610694565b60405180910390f35b61004e61007236600461055b565b61029a565b80516060908067ffffffffffffffff8111801561009357600080fd5b506040519080825280602002602001820160405280156100bd578160200160208202803683370190505b5091506000866001600160a01b031663182df0f56040518163ffffffff1660e01b815260040160206040518083038186803b1580156100fb57600080fd5b505afa15801561010f573d6000803e3d6000fd5b505050506040513d601f19601f8201168201806040525081019061013391906105d4565b90506000876001600160a01b031663313ce5676040518163ffffffff1660e01b815260040160206040518083038186803b15801561017057600080fd5b505afa158015610184573d6000803e3d6000fd5b505050506040513d601f19601f820116820180604052508101906101a891906105fa565b60ff169050876001600160a01b0316866001600160a01b031614156102205760005b8381101561021a5781600a0a6402540be40002838783815181106101ea57fe5b602002602001015102816101fa57fe5b0485828151811061020757fe5b60209081029190910101526001016101ca565b5061028f565b876001600160a01b0316876001600160a01b0316141561028f5760005b8381101561028d578282600a0a6402540be40088848151811061025c57fe5b602002602001015102028161026d57fe5b0485828151811061027a57fe5b602090810291909101015260010161023d565b505b505050949350505050565b80516060908067ffffffffffffffff811180156102b657600080fd5b506040519080825280602002602001820160405280156102e0578160200160208202803683370190505b5091506000866001600160a01b031663182df0f56040518163ffffffff1660e01b815260040160206040518083038186803b15801561031e57600080fd5b505afa158015610332573d6000803e3d6000fd5b505050506040513d601f19601f8201168201806040525081019061035691906105d4565b90506000876001600160a01b031663313ce5676040518163ffffffff1660e01b815260040160206040518083038186803b15801561039357600080fd5b505afa1580156103a7573d6000803e3d6000fd5b505050506040513d601f19601f820116820180604052508101906103cb91906105fa565b60ff169050876001600160a01b0316866001600160a01b0316141561043d5760005b8381101561021a578282600a0a6402540be40088848151811061040c57fe5b602002602001015102028161041d57fe5b0485828151811061042a57fe5b60209081029190910101526001016103ed565b876001600160a01b0316876001600160a01b0316141561028f5760005b8381101561028d5781600a0a6402540be400028387838151811061047a57fe5b6020026020010151028161048a57fe5b0485828151811061049757fe5b602090810291909101015260010161045a565b600082601f8301126104bb57600080fd5b81356104ce6104c9826106d3565b6106ac565b915081818352602084019350602081019050838560208402820111156104f357600080fd5b60005b8381101561051f5781610509888261053a565b84525060209283019291909101906001016104f6565b5050505092915050565b803561053481610732565b92915050565b803561053481610749565b805161053481610749565b805161053481610752565b6000806000806080858703121561057157600080fd5b600061057d8787610529565b945050602061058e87828801610529565b935050604061059f87828801610529565b925050606085013567ffffffffffffffff8111156105bc57600080fd5b6105c8878288016104aa565b91505092959194509250565b6000602082840312156105e657600080fd5b60006105f28484610545565b949350505050565b60006020828403121561060c57600080fd5b60006105f28484610550565b60006106248383610685565b505060200190565b6000610637826106fa565b61064181856106fe565b935061064c836106f4565b8060005b8381101561067a5781516106648882610618565b975061066f836106f4565b925050600101610650565b509495945050505050565b61068e81610729565b82525050565b602080825281016106a5818461062c565b9392505050565b60405181810167ffffffffffffffff811182821017156106cb57600080fd5b604052919050565b600067ffffffffffffffff8211156106ea57600080fd5b5060209081020190565b60200190565b5190565b90815260200190565b60006105348261071d565b600061053482610707565b6001600160a01b031690565b90565b60ff1690565b61073b81610712565b811461074657600080fd5b50565b61073b81610729565b61073b8161072c56fea2646970667358221220a80bc8b807800ccf901b21a28967c0872192ff7d882afecd30949e505638e9c864736f6c634300060c0033",
                "opcodes": "PUSH1 0x80 PUSH1 0x40 MSTORE CALLVALUE DUP1 ISZERO PUSH2 0x10 JUMPI PUSH1 0x0 DUP1 REVERT JUMPDEST POP PUSH2 0x791 DUP1 PUSH2 0x20 PUSH1 0x0 CODECOPY PUSH1 0x0 RETURN INVALID PUSH1 0x80 PUSH1 0x40 MSTORE CALLVALUE DUP1 ISZERO PUSH2 0x10 JUMPI PUSH1 0x0 DUP1 REVERT JUMPDEST POP PUSH1 0x4 CALLDATASIZE LT PUSH2 0x36 JUMPI PUSH1 0x0 CALLDATALOAD PUSH1 0xE0 SHR DUP1 PUSH4 0x34EAFF9 EQ PUSH2 0x3B JUMPI DUP1 PUSH4 0xA76BBEC4 EQ PUSH2 0x64 JUMPI JUMPDEST PUSH1 0x0 DUP1 REVERT JUMPDEST PUSH2 0x4E PUSH2 0x49 CALLDATASIZE PUSH1 0x4 PUSH2 0x55B JUMP JUMPDEST PUSH2 0x77 JUMP JUMPDEST PUSH1 0x40 MLOAD PUSH2 0x5B SWAP2 SWAP1 PUSH2 0x694 JUMP JUMPDEST PUSH1 0x40 MLOAD DUP1 SWAP2 SUB SWAP1 RETURN JUMPDEST PUSH2 0x4E PUSH2 0x72 CALLDATASIZE PUSH1 0x4 PUSH2 0x55B JUMP JUMPDEST PUSH2 0x29A JUMP JUMPDEST DUP1 MLOAD PUSH1 0x60 SWAP1 DUP1 PUSH8 0xFFFFFFFFFFFFFFFF DUP2 GT DUP1 ISZERO PUSH2 0x93 JUMPI PUSH1 0x0 DUP1 REVERT JUMPDEST POP PUSH1 0x40 MLOAD SWAP1 DUP1 DUP3 MSTORE DUP1 PUSH1 0x20 MUL PUSH1 0x20 ADD DUP3 ADD PUSH1 0x40 MSTORE DUP1 ISZERO PUSH2 0xBD JUMPI DUP2 PUSH1 0x20 ADD PUSH1 0x20 DUP3 MUL DUP1 CALLDATASIZE DUP4 CALLDATACOPY ADD SWAP1 POP JUMPDEST POP SWAP2 POP PUSH1 0x0 DUP7 PUSH1 0x1 PUSH1 0x1 PUSH1 0xA0 SHL SUB AND PUSH4 0x182DF0F5 PUSH1 0x40 MLOAD DUP2 PUSH4 0xFFFFFFFF AND PUSH1 0xE0 SHL DUP2 MSTORE PUSH1 0x4 ADD PUSH1 0x20 PUSH1 0x40 MLOAD DUP1 DUP4 SUB DUP2 DUP7 DUP1 EXTCODESIZE ISZERO DUP1 ISZERO PUSH2 0xFB JUMPI PUSH1 0x0 DUP1 REVERT JUMPDEST POP GAS STATICCALL ISZERO DUP1 ISZERO PUSH2 0x10F JUMPI RETURNDATASIZE PUSH1 0x0 DUP1 RETURNDATACOPY RETURNDATASIZE PUSH1 0x0 REVERT JUMPDEST POP POP POP POP PUSH1 0x40 MLOAD RETURNDATASIZE PUSH1 0x1F NOT PUSH1 0x1F DUP3 ADD AND DUP3 ADD DUP1 PUSH1 0x40 MSTORE POP DUP2 ADD SWAP1 PUSH2 0x133 SWAP2 SWAP1 PUSH2 0x5D4 JUMP JUMPDEST SWAP1 POP PUSH1 0x0 DUP8 PUSH1 0x1 PUSH1 0x1 PUSH1 0xA0 SHL SUB AND PUSH4 0x313CE567 PUSH1 0x40 MLOAD DUP2 PUSH4 0xFFFFFFFF AND PUSH1 0xE0 SHL DUP2 MSTORE PUSH1 0x4 ADD PUSH1 0x20 PUSH1 0x40 MLOAD DUP1 DUP4 SUB DUP2 DUP7 DUP1 EXTCODESIZE ISZERO DUP1 ISZERO PUSH2 0x170 JUMPI PUSH1 0x0 DUP1 REVERT JUMPDEST POP GAS STATICCALL ISZERO DUP1 ISZERO PUSH2 0x184 JUMPI RETURNDATASIZE PUSH1 0x0 DUP1 RETURNDATACOPY RETURNDATASIZE PUSH1 0x0 REVERT JUMPDEST POP POP POP POP PUSH1 0x40 MLOAD RETURNDATASIZE PUSH1 0x1F NOT PUSH1 0x1F DUP3 ADD AND DUP3 ADD DUP1 PUSH1 0x40 MSTORE POP DUP2 ADD SWAP1 PUSH2 0x1A8 SWAP2 SWAP1 PUSH2 0x5FA JUMP JUMPDEST PUSH1 0xFF AND SWAP1 POP DUP8 PUSH1 0x1 PUSH1 0x1 PUSH1 0xA0 SHL SUB AND DUP7 PUSH1 0x1 PUSH1 0x1 PUSH1 0xA0 SHL SUB AND EQ ISZERO PUSH2 0x220 JUMPI PUSH1 0x0 JUMPDEST DUP4 DUP2 LT ISZERO PUSH2 0x21A JUMPI DUP2 PUSH1 0xA EXP PUSH5 0x2540BE400 MUL DUP4 DUP8 DUP4 DUP2 MLOAD DUP2 LT PUSH2 0x1EA JUMPI INVALID JUMPDEST PUSH1 0x20 MUL PUSH1 0x20 ADD ADD MLOAD MUL DUP2 PUSH2 0x1FA JUMPI INVALID JUMPDEST DIV DUP6 DUP3 DUP2 MLOAD DUP2 LT PUSH2 0x207 JUMPI INVALID JUMPDEST PUSH1 0x20 SWAP1 DUP2 MUL SWAP2 SWAP1 SWAP2 ADD ADD MSTORE PUSH1 0x1 ADD PUSH2 0x1CA JUMP JUMPDEST POP PUSH2 0x28F JUMP JUMPDEST DUP8 PUSH1 0x1 PUSH1 0x1 PUSH1 0xA0 SHL SUB AND DUP8 PUSH1 0x1 PUSH1 0x1 PUSH1 0xA0 SHL SUB AND EQ ISZERO PUSH2 0x28F JUMPI PUSH1 0x0 JUMPDEST DUP4 DUP2 LT ISZERO PUSH2 0x28D JUMPI DUP3 DUP3 PUSH1 0xA EXP PUSH5 0x2540BE400 DUP9 DUP5 DUP2 MLOAD DUP2 LT PUSH2 0x25C JUMPI INVALID JUMPDEST PUSH1 0x20 MUL PUSH1 0x20 ADD ADD MLOAD MUL MUL DUP2 PUSH2 0x26D JUMPI INVALID JUMPDEST DIV DUP6 DUP3 DUP2 MLOAD DUP2 LT PUSH2 0x27A JUMPI INVALID JUMPDEST PUSH1 0x20 SWAP1 DUP2 MUL SWAP2 SWAP1 SWAP2 ADD ADD MSTORE PUSH1 0x1 ADD PUSH2 0x23D JUMP JUMPDEST POP JUMPDEST POP POP POP SWAP5 SWAP4 POP POP POP POP JUMP JUMPDEST DUP1 MLOAD PUSH1 0x60 SWAP1 DUP1 PUSH8 0xFFFFFFFFFFFFFFFF DUP2 GT DUP1 ISZERO PUSH2 0x2B6 JUMPI PUSH1 0x0 DUP1 REVERT JUMPDEST POP PUSH1 0x40 MLOAD SWAP1 DUP1 DUP3 MSTORE DUP1 PUSH1 0x20 MUL PUSH1 0x20 ADD DUP3 ADD PUSH1 0x40 MSTORE DUP1 ISZERO PUSH2 0x2E0 JUMPI DUP2 PUSH1 0x20 ADD PUSH1 0x20 DUP3 MUL DUP1 CALLDATASIZE DUP4 CALLDATACOPY ADD SWAP1 POP JUMPDEST POP SWAP2 POP PUSH1 0x0 DUP7 PUSH1 0x1 PUSH1 0x1 PUSH1 0xA0 SHL SUB AND PUSH4 0x182DF0F5 PUSH1 0x40 MLOAD DUP2 PUSH4 0xFFFFFFFF AND PUSH1 0xE0 SHL DUP2 MSTORE PUSH1 0x4 ADD PUSH1 0x20 PUSH1 0x40 MLOAD DUP1 DUP4 SUB DUP2 DUP7 DUP1 EXTCODESIZE ISZERO DUP1 ISZERO PUSH2 0x31E JUMPI PUSH1 0x0 DUP1 REVERT JUMPDEST POP GAS STATICCALL ISZERO DUP1 ISZERO PUSH2 0x332 JUMPI RETURNDATASIZE PUSH1 0x0 DUP1 RETURNDATACOPY RETURNDATASIZE PUSH1 0x0 REVERT JUMPDEST POP POP POP POP PUSH1 0x40 MLOAD RETURNDATASIZE PUSH1 0x1F NOT PUSH1 0x1F DUP3 ADD AND DUP3 ADD DUP1 PUSH1 0x40 MSTORE POP DUP2 ADD SWAP1 PUSH2 0x356 SWAP2 SWAP1 PUSH2 0x5D4 JUMP JUMPDEST SWAP1 POP PUSH1 0x0 DUP8 PUSH1 0x1 PUSH1 0x1 PUSH1 0xA0 SHL SUB AND PUSH4 0x313CE567 PUSH1 0x40 MLOAD DUP2 PUSH4 0xFFFFFFFF AND PUSH1 0xE0 SHL DUP2 MSTORE PUSH1 0x4 ADD PUSH1 0x20 PUSH1 0x40 MLOAD DUP1 DUP4 SUB DUP2 DUP7 DUP1 EXTCODESIZE ISZERO DUP1 ISZERO PUSH2 0x393 JUMPI PUSH1 0x0 DUP1 REVERT JUMPDEST POP GAS STATICCALL ISZERO DUP1 ISZERO PUSH2 0x3A7 JUMPI RETURNDATASIZE PUSH1 0x0 DUP1 RETURNDATACOPY RETURNDATASIZE PUSH1 0x0 REVERT JUMPDEST POP POP POP POP PUSH1 0x40 MLOAD RETURNDATASIZE PUSH1 0x1F NOT PUSH1 0x1F DUP3 ADD AND DUP3 ADD DUP1 PUSH1 0x40 MSTORE POP DUP2 ADD SWAP1 PUSH2 0x3CB SWAP2 SWAP1 PUSH2 0x5FA JUMP JUMPDEST PUSH1 0xFF AND SWAP1 POP DUP8 PUSH1 0x1 PUSH1 0x1 PUSH1 0xA0 SHL SUB AND DUP7 PUSH1 0x1 PUSH1 0x1 PUSH1 0xA0 SHL SUB AND EQ ISZERO PUSH2 0x43D JUMPI PUSH1 0x0 JUMPDEST DUP4 DUP2 LT ISZERO PUSH2 0x21A JUMPI DUP3 DUP3 PUSH1 0xA EXP PUSH5 0x2540BE400 DUP9 DUP5 DUP2 MLOAD DUP2 LT PUSH2 0x40C JUMPI INVALID JUMPDEST PUSH1 0x20 MUL PUSH1 0x20 ADD ADD MLOAD MUL MUL DUP2 PUSH2 0x41D JUMPI INVALID JUMPDEST DIV DUP6 DUP3 DUP2 MLOAD DUP2 LT PUSH2 0x42A JUMPI INVALID JUMPDEST PUSH1 0x20 SWAP1 DUP2 MUL SWAP2 SWAP1 SWAP2 ADD ADD MSTORE PUSH1 0x1 ADD PUSH2 0x3ED JUMP JUMPDEST DUP8 PUSH1 0x1 PUSH1 0x1 PUSH1 0xA0 SHL SUB AND DUP8 PUSH1 0x1 PUSH1 0x1 PUSH1 0xA0 SHL SUB AND EQ ISZERO PUSH2 0x28F JUMPI PUSH1 0x0 JUMPDEST DUP4 DUP2 LT ISZERO PUSH2 0x28D JUMPI DUP2 PUSH1 0xA EXP PUSH5 0x2540BE400 MUL DUP4 DUP8 DUP4 DUP2 MLOAD DUP2 LT PUSH2 0x47A JUMPI INVALID JUMPDEST PUSH1 0x20 MUL PUSH1 0x20 ADD ADD MLOAD MUL DUP2 PUSH2 0x48A JUMPI INVALID JUMPDEST DIV DUP6 DUP3 DUP2 MLOAD DUP2 LT PUSH2 0x497 JUMPI INVALID JUMPDEST PUSH1 0x20 SWAP1 DUP2 MUL SWAP2 SWAP1 SWAP2 ADD ADD MSTORE PUSH1 0x1 ADD PUSH2 0x45A JUMP JUMPDEST PUSH1 0x0 DUP3 PUSH1 0x1F DUP4 ADD SLT PUSH2 0x4BB JUMPI PUSH1 0x0 DUP1 REVERT JUMPDEST DUP2 CALLDATALOAD PUSH2 0x4CE PUSH2 0x4C9 DUP3 PUSH2 0x6D3 JUMP JUMPDEST PUSH2 0x6AC JUMP JUMPDEST SWAP2 POP DUP2 DUP2 DUP4 MSTORE PUSH1 0x20 DUP5 ADD SWAP4 POP PUSH1 0x20 DUP2 ADD SWAP1 POP DUP4 DUP6 PUSH1 0x20 DUP5 MUL DUP3 ADD GT ISZERO PUSH2 0x4F3 JUMPI PUSH1 0x0 DUP1 REVERT JUMPDEST PUSH1 0x0 JUMPDEST DUP4 DUP2 LT ISZERO PUSH2 0x51F JUMPI DUP2 PUSH2 0x509 DUP9 DUP3 PUSH2 0x53A JUMP JUMPDEST DUP5 MSTORE POP PUSH1 0x20 SWAP3 DUP4 ADD SWAP3 SWAP2 SWAP1 SWAP2 ADD SWAP1 PUSH1 0x1 ADD PUSH2 0x4F6 JUMP JUMPDEST POP POP POP POP SWAP3 SWAP2 POP POP JUMP JUMPDEST DUP1 CALLDATALOAD PUSH2 0x534 DUP2 PUSH2 0x732 JUMP JUMPDEST SWAP3 SWAP2 POP POP JUMP JUMPDEST DUP1 CALLDATALOAD PUSH2 0x534 DUP2 PUSH2 0x749 JUMP JUMPDEST DUP1 MLOAD PUSH2 0x534 DUP2 PUSH2 0x749 JUMP JUMPDEST DUP1 MLOAD PUSH2 0x534 DUP2 PUSH2 0x752 JUMP JUMPDEST PUSH1 0x0 DUP1 PUSH1 0x0 DUP1 PUSH1 0x80 DUP6 DUP8 SUB SLT ISZERO PUSH2 0x571 JUMPI PUSH1 0x0 DUP1 REVERT JUMPDEST PUSH1 0x0 PUSH2 0x57D DUP8 DUP8 PUSH2 0x529 JUMP JUMPDEST SWAP5 POP POP PUSH1 0x20 PUSH2 0x58E DUP8 DUP3 DUP9 ADD PUSH2 0x529 JUMP JUMPDEST SWAP4 POP POP PUSH1 0x40 PUSH2 0x59F DUP8 DUP3 DUP9 ADD PUSH2 0x529 JUMP JUMPDEST SWAP3 POP POP PUSH1 0x60 DUP6 ADD CALLDATALOAD PUSH8 0xFFFFFFFFFFFFFFFF DUP2 GT ISZERO PUSH2 0x5BC JUMPI PUSH1 0x0 DUP1 REVERT JUMPDEST PUSH2 0x5C8 DUP8 DUP3 DUP9 ADD PUSH2 0x4AA JUMP JUMPDEST SWAP2 POP POP SWAP3 SWAP6 SWAP2 SWAP5 POP SWAP3 POP JUMP JUMPDEST PUSH1 0x0 PUSH1 0x20 DUP3 DUP5 SUB SLT ISZERO PUSH2 0x5E6 JUMPI PUSH1 0x0 DUP1 REVERT JUMPDEST PUSH1 0x0 PUSH2 0x5F2 DUP5 DUP5 PUSH2 0x545 JUMP JUMPDEST SWAP5 SWAP4 POP POP POP POP JUMP JUMPDEST PUSH1 0x0 PUSH1 0x20 DUP3 DUP5 SUB SLT ISZERO PUSH2 0x60C JUMPI PUSH1 0x0 DUP1 REVERT JUMPDEST PUSH1 0x0 PUSH2 0x5F2 DUP5 DUP5 PUSH2 0x550 JUMP JUMPDEST PUSH1 0x0 PUSH2 0x624 DUP4 DUP4 PUSH2 0x685 JUMP JUMPDEST POP POP PUSH1 0x20 ADD SWAP1 JUMP JUMPDEST PUSH1 0x0 PUSH2 0x637 DUP3 PUSH2 0x6FA JUMP JUMPDEST PUSH2 0x641 DUP2 DUP6 PUSH2 0x6FE JUMP JUMPDEST SWAP4 POP PUSH2 0x64C DUP4 PUSH2 0x6F4 JUMP JUMPDEST DUP1 PUSH1 0x0 JUMPDEST DUP4 DUP2 LT ISZERO PUSH2 0x67A JUMPI DUP2 MLOAD PUSH2 0x664 DUP9 DUP3 PUSH2 0x618 JUMP JUMPDEST SWAP8 POP PUSH2 0x66F DUP4 PUSH2 0x6F4 JUMP JUMPDEST SWAP3 POP POP PUSH1 0x1 ADD PUSH2 0x650 JUMP JUMPDEST POP SWAP5 SWAP6 SWAP5 POP POP POP POP POP JUMP JUMPDEST PUSH2 0x68E DUP2 PUSH2 0x729 JUMP JUMPDEST DUP3 MSTORE POP POP JUMP JUMPDEST PUSH1 0x20 DUP1 DUP3 MSTORE DUP2 ADD PUSH2 0x6A5 DUP2 DUP5 PUSH2 0x62C JUMP JUMPDEST SWAP4 SWAP3 POP POP POP JUMP JUMPDEST PUSH1 0x40 MLOAD DUP2 DUP2 ADD PUSH8 0xFFFFFFFFFFFFFFFF DUP2 GT DUP3 DUP3 LT OR ISZERO PUSH2 0x6CB JUMPI PUSH1 0x0 DUP1 REVERT JUMPDEST PUSH1 0x40 MSTORE SWAP2 SWAP1 POP JUMP JUMPDEST PUSH1 0x0 PUSH8 0xFFFFFFFFFFFFFFFF DUP3 GT ISZERO PUSH2 0x6EA JUMPI PUSH1 0x0 DUP1 REVERT JUMPDEST POP PUSH1 0x20 SWAP1 DUP2 MUL ADD SWAP1 JUMP JUMPDEST PUSH1 0x20 ADD SWAP1 JUMP JUMPDEST MLOAD SWAP1 JUMP JUMPDEST SWAP1 DUP2 MSTORE PUSH1 0x20 ADD SWAP1 JUMP JUMPDEST PUSH1 0x0 PUSH2 0x534 DUP3 PUSH2 0x71D JUMP JUMPDEST PUSH1 0x0 PUSH2 0x534 DUP3 PUSH2 0x707 JUMP JUMPDEST PUSH1 0x1 PUSH1 0x1 PUSH1 0xA0 SHL SUB AND SWAP1 JUMP JUMPDEST SWAP1 JUMP JUMPDEST PUSH1 0xFF AND SWAP1 JUMP JUMPDEST PUSH2 0x73B DUP2 PUSH2 0x712 JUMP JUMPDEST DUP2 EQ PUSH2 0x746 JUMPI PUSH1 0x0 DUP1 REVERT JUMPDEST POP JUMP JUMPDEST PUSH2 0x73B DUP2 PUSH2 0x729 JUMP JUMPDEST PUSH2 0x73B DUP2 PUSH2 0x72C JUMP INVALID LOG2 PUSH5 0x6970667358 0x22 SLT KECCAK256 0xA8 SIGNEXTEND 0xC8 0xB8 SMOD DUP1 0xC 0xCF SWAP1 SHL 0x21 LOG2 DUP10 PUSH8 0xC0872192FF7D882A INVALID 0xCD ADDRESS SWAP5 SWAP15 POP JUMP CODESIZE 0xE9 0xC8 PUSH5 0x736F6C6343 STOP MOD 0xC STOP CALLER "
            }
        }
    },
    "sourceTreeHashHex": "0xc58ecebb1c112327e89407b1d68525feaf60178db67f637aa465af0ad0416994",
    "compiler": {
        "name": "solc",
        "version": "0.6.12+commit.27d51765",
        "settings": {
            "remappings": [
                "@0x/contracts-utils=/Users/jacob/projects/ethdev/0x/workspace-remote/workspace/protocol/packages/asset-swapper/node_modules/@0x/contracts-utils",
                "@0x/contracts-erc20=/Users/jacob/projects/ethdev/0x/workspace-remote/workspace/protocol/packages/asset-swapper/node_modules/@0x/contracts-erc20",
                "@0x/contracts-zero-ex=/Users/jacob/projects/ethdev/0x/workspace-remote/workspace/protocol/packages/asset-swapper/node_modules/@0x/contracts-zero-ex"
            ],
            "optimizer": {
                "enabled": true,
                "runs": 200,
                "details": {
                    "yul": false,
                    "deduplicate": true
                }
            },
            "outputSelection": {
                "*": {
                    "*": [
                        "abi",
                        "devdoc",
                        "evm.bytecode.object",
                        "evm.bytecode.sourceMap",
                        "evm.deployedBytecode.object",
                        "evm.deployedBytecode.sourceMap"
                    ]
                }
            },
            "evmVersion": "istanbul"
        }
    },
    "chains": {}
}