{
    "schemaVersion": "2.0.0",
    "contractName": "CurveSampler",
    "compilerOutput": {
        "abi": [
            {
                "inputs": [
                    {
                        "internalType": "contract IEtherTokenV06",
                        "name": "weth",
                        "type": "address"
                    }
                ],
                "stateMutability": "nonpayable",
                "type": "constructor"
            },
            {
                "inputs": [
                    {
                        "internalType": "bytes4",
                        "name": "selector",
                        "type": "bytes4"
                    },
                    {
                        "internalType": "address",
                        "name": "sellToken",
                        "type": "address"
                    },
                    {
                        "internalType": "address",
                        "name": "buyToken",
                        "type": "address"
                    },
                    {
                        "internalType": "bytes",
                        "name": "bridgeData",
                        "type": "bytes"
                    },
                    {
                        "internalType": "uint256",
                        "name": "amountIn",
                        "type": "uint256"
                    }
                ],
                "name": "_callRevert",
                "outputs": [],
                "stateMutability": "nonpayable",
                "type": "function"
            },
            {
                "inputs": [
                    {
                        "internalType": "bytes4",
                        "name": "selector",
                        "type": "bytes4"
                    },
                    {
                        "internalType": "address",
                        "name": "sellToken",
                        "type": "address"
                    },
                    {
                        "internalType": "address",
                        "name": "buyToken",
                        "type": "address"
                    },
                    {
                        "internalType": "bytes",
                        "name": "bridgeData",
                        "type": "bytes"
                    },
                    {
                        "internalType": "uint256[]",
                        "name": "amountsIn",
                        "type": "uint256[]"
                    }
                ],
                "name": "_mintCallRevert",
                "outputs": [],
                "stateMutability": "nonpayable",
                "type": "function"
            },
            {
                "inputs": [
                    {
                        "components": [
                            {
                                "internalType": "address",
                                "name": "curveAddress",
                                "type": "address"
                            },
                            {
                                "internalType": "bytes4",
                                "name": "exchangeFunctionSelector",
                                "type": "bytes4"
                            },
                            {
                                "internalType": "int128",
                                "name": "fromCoinIdx",
                                "type": "int128"
                            },
                            {
                                "internalType": "int128",
                                "name": "toCoinIdx",
                                "type": "int128"
                            }
                        ],
                        "internalType": "struct MixinCurve.CurveBridgeData",
                        "name": "curveInfo",
                        "type": "tuple"
                    },
                    {
                        "internalType": "address",
                        "name": "takerToken",
                        "type": "address"
                    },
                    {
                        "internalType": "address",
                        "name": "makerToken",
                        "type": "address"
                    },
                    {
                        "internalType": "uint256[]",
                        "name": "makerTokenAmounts",
                        "type": "uint256[]"
                    }
                ],
                "name": "sampleBuysFromCurve",
                "outputs": [
                    {
                        "internalType": "uint256[]",
                        "name": "gasUsed",
                        "type": "uint256[]"
                    },
                    {
                        "internalType": "uint256[]",
                        "name": "takerTokenAmounts",
                        "type": "uint256[]"
                    }
                ],
                "stateMutability": "nonpayable",
                "type": "function"
            },
            {
                "inputs": [
                    {
                        "components": [
                            {
                                "internalType": "address",
                                "name": "curveAddress",
                                "type": "address"
                            },
                            {
                                "internalType": "bytes4",
                                "name": "exchangeFunctionSelector",
                                "type": "bytes4"
                            },
                            {
                                "internalType": "int128",
                                "name": "fromCoinIdx",
                                "type": "int128"
                            },
                            {
                                "internalType": "int128",
                                "name": "toCoinIdx",
                                "type": "int128"
                            }
                        ],
                        "internalType": "struct MixinCurve.CurveBridgeData",
                        "name": "curveInfo",
                        "type": "tuple"
                    },
                    {
                        "internalType": "address",
                        "name": "takerToken",
                        "type": "address"
                    },
                    {
                        "internalType": "address",
                        "name": "makerToken",
                        "type": "address"
                    },
                    {
                        "internalType": "uint256[]",
                        "name": "takerTokenAmounts",
                        "type": "uint256[]"
                    }
                ],
                "name": "sampleSellsFromCurve",
                "outputs": [
                    {
                        "internalType": "uint256[]",
                        "name": "gasUsed",
                        "type": "uint256[]"
                    },
                    {
                        "internalType": "uint256[]",
                        "name": "makerTokenAmounts",
                        "type": "uint256[]"
                    }
                ],
                "stateMutability": "nonpayable",
                "type": "function"
            },
            {
                "inputs": [
                    {
                        "internalType": "address",
                        "name": "sellToken",
                        "type": "address"
                    },
                    {
                        "internalType": "address",
                        "name": "buyToken",
                        "type": "address"
                    },
                    {
                        "internalType": "bytes",
                        "name": "bridgeData",
                        "type": "bytes"
                    },
                    {
                        "internalType": "uint256",
                        "name": "takerTokenAmount",
                        "type": "uint256"
                    }
                ],
                "name": "sampleSwapFromCurve",
                "outputs": [
                    {
                        "internalType": "uint256",
                        "name": "",
                        "type": "uint256"
                    }
                ],
                "stateMutability": "nonpayable",
                "type": "function"
            }
        ],
        "devdoc": {
            "kind": "dev",
            "methods": {
                "_mintCallRevert(bytes4,address,address,bytes,uint256[])": {
                    "details": "Mints the sell token, then performs the swap, then reverts with the amount out. The SwapRevertSamplerQuoteOpts has been unrolled here as our ABI encoder cannot support encoding the function"
                },
                "sampleBuysFromCurve((address,bytes4,int128,int128),address,address,uint256[])": {
                    "details": "Sample buy quotes from Curve.",
                    "params": {
                        "curveInfo": "Curve information specific to this token pair.",
                        "makerToken": "The maker token to buy.",
                        "makerTokenAmounts": "Maker token buy amount for each sample.",
                        "takerToken": "The taker token to sell."
                    },
                    "returns": {
                        "gasUsed": "gas consumed in each sample sell",
                        "takerTokenAmounts": "Taker amounts sold at each maker token         amount."
                    }
                },
                "sampleSellsFromCurve((address,bytes4,int128,int128),address,address,uint256[])": {
                    "details": "Sample sell quotes from Curve.",
                    "params": {
                        "curveInfo": "Curve information specific to this token pair.",
                        "makerToken": "The maker token to buy.",
                        "takerToken": "The taker token to sell.",
                        "takerTokenAmounts": "Taker token sell amount for each sample."
                    },
                    "returns": {
                        "gasUsed": "gas consumed in each sample sell",
                        "makerTokenAmounts": "Maker amounts bought at each taker token         amount."
                    }
                }
            },
            "version": 1
        },
        "evm": {
            "bytecode": {
                "linkReferences": {},
                "object": "0x60a060405234801561001057600080fd5b50604051611e27380380611e2783398101604081905261002f91610044565b60601b6001600160601b031916608052610072565b600060208284031215610055578081fd5b81516001600160a01b038116811461006b578182fd5b9392505050565b60805160601c611d9d61008a60003950611d9d6000f3fe60806040526004361061004e5760003560e01c80631f4ff03e1461005a57806378fee41c1461007c5780637fea2ae11461009c5780638d201c22146100d3578063bf60384b1461010057610055565b3661005557005b600080fd5b34801561006657600080fd5b5061007a61007536600461174d565b610120565b005b34801561008857600080fd5b5061007a6100973660046117e6565b610478565b3480156100a857600080fd5b506100bc6100b73660046118c9565b61062e565b6040516100ca929190611acd565b60405180910390f35b3480156100df57600080fd5b506100f36100ee366004611684565b610714565b6040516100ca9190611cae565b34801561010c57600080fd5b506100bc61011b3660046118c9565b610733565b60008160018351038151811061013257fe5b6020026020010151905061014461079e565b6001600160a01b0316856001600160a01b031614156101b057846001600160a01b031663d0e30db0826040518263ffffffff1660e01b81526004016000604051808303818588803b15801561019857600080fd5b505af1935050505080156101aa575060015b50610267565b60405163e326c7d760e01b815285906001600160a01b0382169063e326c7d7906101df90600190600401611af2565b600060405180830381600087803b1580156101f957600080fd5b505af192505050801561020a575060015b506040516355c3705360e11b81526001600160a01b0382169063ab86e0a6906102399030908690600401611a5d565b600060405180830381600087803b15801561025357600080fd5b505af1925050508015610264575060015b50505b6040516000904780156108fc029183818181858288f19350505050158015610293573d6000803e3d6000fd5b506060825167ffffffffffffffff811180156102ae57600080fd5b506040519080825280602002602001820160405280156102d8578160200160208202803683370190505b5090506060835167ffffffffffffffff811180156102f557600080fd5b5060405190808252806020026020018201604052801561031f578160200160208202803683370190505b50905060005b845181101561046357306001600160a01b03166378fee41c621e84808b8b8b8b8b888151811061035157fe5b60200260200101516040518763ffffffff1660e01b8152600401610379959493929190611b57565b600060405180830381600088803b15801561039357600080fd5b5087f1935050505080156103a5575060015b61043a573d8080156103d3576040519150601f19603f3d011682016040523d82523d6000602084013e6103d8565b606091505b506103e2816108c7565b8584815181106103ee57fe5b6020026020010185858151811061040157fe5b602002602001018281525082815250505083828151811061041e57fe5b6020026020010151600014156104345750610463565b5061045b565b60405162461bcd60e51b815260040161045290611c31565b60405180910390fd5b600101610325565b5061046e82826108fc565b5050505050505050565b61133761def160901b016001600160a01b031663d0afdca96040518163ffffffff1660e01b8152600401600060405180830381600087803b1580156104bc57600080fd5b505af19250505080156104cd575060015b5060005a905060006060306001600160a01b031688888888886040516024016104f99493929190611a90565b60408051601f198184030181529181526020820180516001600160e01b03166001600160e01b03199094169390931790925290516105379190611a2d565b6000604051808303816000865af19150503d8060008114610574576040519150601f19603f3d011682016040523d82523d6000602084013e610579565b606091505b50915091505a8303925061133761def160901b016001600160a01b0316630c18c1626040518163ffffffff1660e01b815260040160206040518083038186803b1580156105c557600080fd5b505afa9250505080156105f5575060408051601f3d908101601f191682019092526105f29181019061198c565b60015b6105fe57610603565b909203915b81610611576106118161092a565b61046e81806020019051810190610628919061198c565b84610932565b6060806107076040518060a00160405280876001600160a01b03168152602001866001600160a01b031681526020018860405160200161066e9190611c66565b604051602081830303815290604052815260200160405180608001604052808a600001516001600160a01b031681526020018a602001516001600160e01b03191681526020018a60600151600f0b81526020018a60400151600f0b8152506040516020016106dc9190611c66565b60408051601f1981840301815291815290825230602090811b638d201c221790911b91015284610940565b9097909650945050505050565b600061072a61072161079e565b86868587610e1b565b95945050505050565b6060806107076040518060800160405280876001600160a01b03168152602001866001600160a01b03168152602001886040516020016107739190611c66565b60408051601f1981840301815291815290825230602090811b638d201c221790911b91015284611127565b6000468160018214156107c6575073c02aaa39b223fe8d0a0e5c4f27ead9083c756cc261089b565b81600314156107ea575073c778417e063141139fce010982780140aa0cd5ab61089b565b816004141561080e575073c778417e063141139fce010982780140aa0cd5ab61089b565b81602a1415610832575073d0a1e359811322d97991e03f863a0c30c2cf029c61089b565b8160381415610856575073bb4cdb9cbd36b01bd1cbaebf2de08d9173bc095c61089b565b816089141561087a5750730d500b1d8e8ef31e21c99d1db9a6444d3adf127061089b565b81610539141561089b5750730b1ba0af832d7c05fd64161e0db78e85978e80825b6001600160a01b0381166108c15760405162461bcd60e51b815260040161045290611bfa565b91505090565b60008082516040146108de575060009050806108f7565b828060200190518101906108f291906119a4565b915091505b915091565b60608282604051602001610911929190611acd565b6040516020818303038152906040529050805160208201fd5b805160208201fd5b816000528060205260406000fd5b60608082516000141561095257610e14565b825167ffffffffffffffff8111801561096a57600080fd5b50604051908082528060200260200182016040528015610994578160200160208202803683370190505b509050825167ffffffffffffffff811180156109af57600080fd5b506040519080825280602002602001820160405280156109d9578160200160208202803683370190505b50604080516001808252818301909252919350606091906020808301908036833701905050905083600081518110610a0d57fe5b602002602001015181600081518110610a2257fe5b602002602001018181525050610a366114ea565b50604080516080808201835287516001600160a01b0390811683526020808a0151909116908301528783015182840152870151640100000000600160c01b0390831c90811663ffffffff9091161790911b6060820152610a946114ea565b604051806080016040528088602001516001600160a01b0316815260200188600001516001600160a01b031681526020018860600151815260200188608001518060601c9060401c63ffffffff1663ffffffff169060201b1760401b8152509050610aff8184611127565b805190945015905080610b26575082600081518110610b1a57fe5b60200260200101516000145b15610b3357505050610e14565b6060610b3f8385611127565b805190925015905080610b66575080600081518110610b5a57fe5b60200260200101516000145b15610b745750505050610e14565b60005b8751811015610e0e57606060005b6003811015610d4c57610bd48a8481518110610b9d57fe5b602002602001015185600081518110610bb257fe5b602002602001015189600081518110610bc757fe5b60200260200101516111f1565b87600081518110610be157fe5b602090810291909101015286511580610c0e575086600081518110610c0257fe5b60200260200101516000145b15610c1857610d4c565b610c3160056127100161271089600081518110610bc757fe5b87600081518110610c3e57fe5b602090810291909101015286511580610c6b575086600081518110610c5f57fe5b60200260200101516000145b15610c7557610d4c565b6060610c818789611127565b805191945091501580610ca8575080600081518110610c9c57fe5b60200260200101516000145b15610cb35750610d4c565b8094508a8481518110610cc257fe5b602002602001015185600081518110610cd757fe5b602002602001015110610d435760008b8581518110610cf257fe5b60200260200101516127108d8781518110610d0957fe5b602002602001015188600081518110610d1e57fe5b6020026020010151030281610d2f57fe5b04905060058111610d41575050610d4c565b505b50600101610b85565b5080511580610d6f575080600081518110610d6357fe5b60200260200101516000145b15610d7f57505050505050610e14565b825115610e055780600081518110610d9357fe5b6020026020010151888381518110610da757fe5b602002602001018181525050610dec898381518110610dc257fe5b602002602001015184600081518110610dd757fe5b602002602001015188600081518110610bc757fe5b878381518110610df857fe5b6020026020010181815250505b50600101610b77565b50505050505b9250929050565b6000610e25611512565b82806020019051810190610e399190611861565b90506000876001600160a01b0316876001600160a01b03161415610ebd5750604051632e1a7d4d60e01b815284906001600160a01b03891690632e1a7d4d90610e86908490600401611cae565b600060405180830381600087803b158015610ea057600080fd5b505af1158015610eb4573d6000803e3d6000fd5b50505050610ed4565b8151610ed4906001600160a01b038916908761124b565b6040516370a0823160e01b81526000906001600160a01b038816906370a0823190610f03903090600401611a49565b60206040518083038186803b158015610f1b57600080fd5b505afa158015610f2f573d6000803e3d6000fd5b505050506040513d601f19601f82011682018060405250810190610f53919061198c565b90506000606084600001516001600160a01b0316848660200151876040015188606001518c6001604051602401610f8d9493929190611bd5565b60408051601f198184030181529181526020820180516001600160e01b03166001600160e01b0319909416939093179092529051610fcb9190611a2d565b60006040518083038185875af1925050503d8060008114611008576040519150601f19603f3d011682016040523d82523d6000602084013e61100d565b606091505b509150915081611020576110208161092a565b8a6001600160a01b0316896001600160a01b03161415611092574795508a6001600160a01b031663d0e30db0876040518263ffffffff1660e01b81526004016000604051808303818588803b15801561107857600080fd5b505af115801561108c573d6000803e3d6000fd5b50505050505b611118838a6001600160a01b03166370a08231306040518263ffffffff1660e01b81526004016110c29190611a49565b60206040518083038186803b1580156110da57600080fd5b505afa1580156110ee573d6000803e3d6000fd5b505050506040513d601f19601f82011682018060405250810190611112919061198c565b906112e3565b9b9a5050505050505050505050565b606082810151835160208501516040808701519051630fa7f81f60e11b815285943094631f4ff03e946111739460a09390931b6001600160e01b03191693919290918a90600401611afd565b600060405180830381600087803b15801561118d57600080fd5b505af192505050801561119e575060015b61043a573d8080156111cc576040519150601f19603f3d011682016040523d82523d6000602084013e6111d1565b606091505b50808060200190518101906111e691906116ec565b93509150610e149050565b60008315806111fe575081155b80611207575082155b1561121457506000611244565b8382028285828161122157fe5b0414611231576000915050611244565b836001850382018161123f57fe5b049150505b9392505050565b604051636eb1769f60e11b815281906001600160a01b0385169063dd62ed3e9061127b9030908790600401611a76565b60206040518083038186803b15801561129357600080fd5b505afa1580156112a7573d6000803e3d6000fd5b505050506040513d601f19601f820116820180604052508101906112cb919061198c565b10156112de576112de838360001961130c565b505050565b600082821115611301576113016112fc6002858561136d565b61092a565b508082035b92915050565b606063095ea7b360e01b8383604051602401611329929190611a5d565b60408051601f198184030181529190526020810180516001600160e01b03166001600160e01b031990931692909217909152905061136784826113c7565b50505050565b606063e946c1bb60e01b84848460405160240161138c93929190611ba5565b60408051601f198184030181529190526020810180516001600160e01b03166001600160e01b03199093169290921790915290509392505050565b60006060836001600160a01b0316836040516113e39190611a2d565b6000604051808303816000865af19150503d8060008114611420576040519150601f19603f3d011682016040523d82523d6000602084013e611425565b606091505b509150915081801561143b575061143b81611454565b15611447575050611450565b6113678161092a565b5050565b600081516000141561146857506001611495565b602082511061149557600061147e83600061149a565b90508060011415611493576001915050611495565b505b919050565b60006112448383600081602001835110156114c2576114c26112fc60058551856020016114cb565b50016020015190565b6060632800659560e01b84848460405160240161138c93929190611bc7565b6040805160808101825260008082526020820181905260609282018390529181019190915290565b60408051608081018252600080825260208201819052918101829052606081019190915290565b803561130681611d2a565b600082601f830112611554578081fd5b813561156761156282611cde565b611cb7565b81815291506020808301908481018184028601820187101561158857600080fd5b60005b848110156115a75781358452928201929082019060010161158b565b505050505092915050565b600082601f8301126115c2578081fd5b81516115d061156282611cde565b8181529150602080830190848101818402860182018710156115f157600080fd5b60005b848110156115a7578151845292820192908201906001016115f4565b600082601f830112611620578081fd5b813567ffffffffffffffff811115611636578182fd5b611649601f8201601f1916602001611cb7565b915080825283602082850101111561166057600080fd5b8060208401602084013760009082016020015292915050565b803561130681611d58565b60008060008060808587031215611699578384fd5b84356116a481611d2a565b935060208501356116b481611d2a565b9250604085013567ffffffffffffffff8111156116cf578283fd5b6116db87828801611610565b949793965093946060013593505050565b600080604083850312156116fe578182fd5b825167ffffffffffffffff80821115611715578384fd5b611721868387016115b2565b93506020850151915080821115611736578283fd5b50611743858286016115b2565b9150509250929050565b600080600080600060a08688031215611764578081fd5b853561176f81611d42565b9450602086013561177f81611d2a565b9350604086013561178f81611d2a565b9250606086013567ffffffffffffffff808211156117ab578283fd5b6117b789838a01611610565b935060808801359150808211156117cc578283fd5b506117d988828901611544565b9150509295509295909350565b600080600080600060a086880312156117fd578081fd5b853561180881611d42565b9450602086013561181881611d2a565b9350604086013561182881611d2a565b9250606086013567ffffffffffffffff811115611843578182fd5b61184f88828901611610565b95989497509295608001359392505050565b600060808284031215611872578081fd5b61187c6080611cb7565b825161188781611d2a565b8152602083015161189781611d42565b602082015260408301516118aa81611d58565b604082015260608301516118bd81611d58565b60608201529392505050565b60008060008084860360e08112156118df578485fd5b60808112156118ec578485fd5b506118f76080611cb7565b853561190281611d2a565b8152602086013561191281611d42565b60208201526119248760408801611679565b60408201526119368760608801611679565b6060820152935061194a8660808701611539565b92506119598660a08701611539565b915060c085013567ffffffffffffffff811115611974578182fd5b61198087828801611544565b91505092959194509250565b60006020828403121561199d578081fd5b5051919050565b600080604083850312156119b6578182fd5b505080516020909101519092909150565b6000815180845260208085019450808401835b838110156119f6578151875295820195908201906001016119da565b509495945050505050565b60008151808452611a19816020860160208601611cfe565b601f01601f19169290920160200192915050565b60008251611a3f818460208701611cfe565b9190910192915050565b6001600160a01b0391909116815260200190565b6001600160a01b03929092168252602082015260400190565b6001600160a01b0392831681529116602082015260400190565b6001600160a01b03858116825284166020820152608060408201819052600090611abc90830185611a01565b905082606083015295945050505050565b600060408252611ae060408301856119c7565b828103602084015261072a81856119c7565b901515815260200190565b6001600160e01b0319861681526001600160a01b0385811660208301528416604082015260a060608201819052600090611b3990830185611a01565b8281036080840152611b4b81856119c7565b98975050505050505050565b6001600160e01b0319861681526001600160a01b0385811660208301528416604082015260a060608201819052600090611b9390830185611a01565b90508260808301529695505050505050565b6060810160048510611bb357fe5b938152602081019290925260409091015290565b6060810160088510611bb357fe5b600f94850b81529290930b6020830152604082015260ff909116606082015260800190565b60208082526017908201527f4e6f206e6174697665207772617070656420746f6b656e000000000000000000604082015260600190565b6020808252818101527f537761702053616d706c652073686f756c642068617665207265766572746564604082015260600190565b81516001600160a01b031681526020808301516001600160e01b03191690820152604080830151600f90810b91830191909152606092830151900b9181019190915260800190565b90815260200190565b60405181810167ffffffffffffffff81118282101715611cd657600080fd5b604052919050565b600067ffffffffffffffff821115611cf4578081fd5b5060209081020190565b60005b83811015611d19578181015183820152602001611d01565b838111156113675750506000910152565b6001600160a01b0381168114611d3f57600080fd5b50565b6001600160e01b031981168114611d3f57600080fd5b80600f0b8114611d3f57600080fdfea264697066735822122059072eeea76e063e04642ec9a368a4ea021f2417ba523e345fcabac4e06d841a64736f6c634300060c0033",
                "opcodes": "PUSH1 0xA0 PUSH1 0x40 MSTORE CALLVALUE DUP1 ISZERO PUSH2 0x10 JUMPI PUSH1 0x0 DUP1 REVERT JUMPDEST POP PUSH1 0x40 MLOAD PUSH2 0x1E27 CODESIZE SUB DUP1 PUSH2 0x1E27 DUP4 CODECOPY DUP2 ADD PUSH1 0x40 DUP2 SWAP1 MSTORE PUSH2 0x2F SWAP2 PUSH2 0x44 JUMP JUMPDEST PUSH1 0x60 SHL PUSH1 0x1 PUSH1 0x1 PUSH1 0x60 SHL SUB NOT AND PUSH1 0x80 MSTORE PUSH2 0x72 JUMP JUMPDEST PUSH1 0x0 PUSH1 0x20 DUP3 DUP5 SUB SLT ISZERO PUSH2 0x55 JUMPI DUP1 DUP2 REVERT JUMPDEST DUP2 MLOAD PUSH1 0x1 PUSH1 0x1 PUSH1 0xA0 SHL SUB DUP2 AND DUP2 EQ PUSH2 0x6B JUMPI DUP2 DUP3 REVERT JUMPDEST SWAP4 SWAP3 POP POP POP JUMP JUMPDEST PUSH1 0x80 MLOAD PUSH1 0x60 SHR PUSH2 0x1D9D PUSH2 0x8A PUSH1 0x0 CODECOPY POP PUSH2 0x1D9D PUSH1 0x0 RETURN INVALID PUSH1 0x80 PUSH1 0x40 MSTORE PUSH1 0x4 CALLDATASIZE LT PUSH2 0x4E JUMPI PUSH1 0x0 CALLDATALOAD PUSH1 0xE0 SHR DUP1 PUSH4 0x1F4FF03E EQ PUSH2 0x5A JUMPI DUP1 PUSH4 0x78FEE41C EQ PUSH2 0x7C JUMPI DUP1 PUSH4 0x7FEA2AE1 EQ PUSH2 0x9C JUMPI DUP1 PUSH4 0x8D201C22 EQ PUSH2 0xD3 JUMPI DUP1 PUSH4 0xBF60384B EQ PUSH2 0x100 JUMPI PUSH2 0x55 JUMP JUMPDEST CALLDATASIZE PUSH2 0x55 JUMPI STOP JUMPDEST PUSH1 0x0 DUP1 REVERT JUMPDEST CALLVALUE DUP1 ISZERO PUSH2 0x66 JUMPI PUSH1 0x0 DUP1 REVERT JUMPDEST POP PUSH2 0x7A PUSH2 0x75 CALLDATASIZE PUSH1 0x4 PUSH2 0x174D JUMP JUMPDEST PUSH2 0x120 JUMP JUMPDEST STOP JUMPDEST CALLVALUE DUP1 ISZERO PUSH2 0x88 JUMPI PUSH1 0x0 DUP1 REVERT JUMPDEST POP PUSH2 0x7A PUSH2 0x97 CALLDATASIZE PUSH1 0x4 PUSH2 0x17E6 JUMP JUMPDEST PUSH2 0x478 JUMP JUMPDEST CALLVALUE DUP1 ISZERO PUSH2 0xA8 JUMPI PUSH1 0x0 DUP1 REVERT JUMPDEST POP PUSH2 0xBC PUSH2 0xB7 CALLDATASIZE PUSH1 0x4 PUSH2 0x18C9 JUMP JUMPDEST PUSH2 0x62E JUMP JUMPDEST PUSH1 0x40 MLOAD PUSH2 0xCA SWAP3 SWAP2 SWAP1 PUSH2 0x1ACD JUMP JUMPDEST PUSH1 0x40 MLOAD DUP1 SWAP2 SUB SWAP1 RETURN JUMPDEST CALLVALUE DUP1 ISZERO PUSH2 0xDF JUMPI PUSH1 0x0 DUP1 REVERT JUMPDEST POP PUSH2 0xF3 PUSH2 0xEE CALLDATASIZE PUSH1 0x4 PUSH2 0x1684 JUMP JUMPDEST PUSH2 0x714 JUMP JUMPDEST PUSH1 0x40 MLOAD PUSH2 0xCA SWAP2 SWAP1 PUSH2 0x1CAE JUMP JUMPDEST CALLVALUE DUP1 ISZERO PUSH2 0x10C JUMPI PUSH1 0x0 DUP1 REVERT JUMPDEST POP PUSH2 0xBC PUSH2 0x11B CALLDATASIZE PUSH1 0x4 PUSH2 0x18C9 JUMP JUMPDEST PUSH2 0x733 JUMP JUMPDEST PUSH1 0x0 DUP2 PUSH1 0x1 DUP4 MLOAD SUB DUP2 MLOAD DUP2 LT PUSH2 0x132 JUMPI INVALID JUMPDEST PUSH1 0x20 MUL PUSH1 0x20 ADD ADD MLOAD SWAP1 POP PUSH2 0x144 PUSH2 0x79E JUMP JUMPDEST PUSH1 0x1 PUSH1 0x1 PUSH1 0xA0 SHL SUB AND DUP6 PUSH1 0x1 PUSH1 0x1 PUSH1 0xA0 SHL SUB AND EQ ISZERO PUSH2 0x1B0 JUMPI DUP5 PUSH1 0x1 PUSH1 0x1 PUSH1 0xA0 SHL SUB AND PUSH4 0xD0E30DB0 DUP3 PUSH1 0x40 MLOAD DUP3 PUSH4 0xFFFFFFFF AND PUSH1 0xE0 SHL DUP2 MSTORE PUSH1 0x4 ADD PUSH1 0x0 PUSH1 0x40 MLOAD DUP1 DUP4 SUB DUP2 DUP6 DUP9 DUP1 EXTCODESIZE ISZERO DUP1 ISZERO PUSH2 0x198 JUMPI PUSH1 0x0 DUP1 REVERT JUMPDEST POP GAS CALL SWAP4 POP POP POP POP DUP1 ISZERO PUSH2 0x1AA JUMPI POP PUSH1 0x1 JUMPDEST POP PUSH2 0x267 JUMP JUMPDEST PUSH1 0x40 MLOAD PUSH4 0xE326C7D7 PUSH1 0xE0 SHL DUP2 MSTORE DUP6 SWAP1 PUSH1 0x1 PUSH1 0x1 PUSH1 0xA0 SHL SUB DUP3 AND SWAP1 PUSH4 0xE326C7D7 SWAP1 PUSH2 0x1DF SWAP1 PUSH1 0x1 SWAP1 PUSH1 0x4 ADD PUSH2 0x1AF2 JUMP JUMPDEST PUSH1 0x0 PUSH1 0x40 MLOAD DUP1 DUP4 SUB DUP2 PUSH1 0x0 DUP8 DUP1 EXTCODESIZE ISZERO DUP1 ISZERO PUSH2 0x1F9 JUMPI PUSH1 0x0 DUP1 REVERT JUMPDEST POP GAS CALL SWAP3 POP POP POP DUP1 ISZERO PUSH2 0x20A JUMPI POP PUSH1 0x1 JUMPDEST POP PUSH1 0x40 MLOAD PUSH4 0x55C37053 PUSH1 0xE1 SHL DUP2 MSTORE PUSH1 0x1 PUSH1 0x1 PUSH1 0xA0 SHL SUB DUP3 AND SWAP1 PUSH4 0xAB86E0A6 SWAP1 PUSH2 0x239 SWAP1 ADDRESS SWAP1 DUP7 SWAP1 PUSH1 0x4 ADD PUSH2 0x1A5D JUMP JUMPDEST PUSH1 0x0 PUSH1 0x40 MLOAD DUP1 DUP4 SUB DUP2 PUSH1 0x0 DUP8 DUP1 EXTCODESIZE ISZERO DUP1 ISZERO PUSH2 0x253 JUMPI PUSH1 0x0 DUP1 REVERT JUMPDEST POP GAS CALL SWAP3 POP POP POP DUP1 ISZERO PUSH2 0x264 JUMPI POP PUSH1 0x1 JUMPDEST POP POP JUMPDEST PUSH1 0x40 MLOAD PUSH1 0x0 SWAP1 SELFBALANCE DUP1 ISZERO PUSH2 0x8FC MUL SWAP2 DUP4 DUP2 DUP2 DUP2 DUP6 DUP3 DUP9 CALL SWAP4 POP POP POP POP ISZERO DUP1 ISZERO PUSH2 0x293 JUMPI RETURNDATASIZE PUSH1 0x0 DUP1 RETURNDATACOPY RETURNDATASIZE PUSH1 0x0 REVERT JUMPDEST POP PUSH1 0x60 DUP3 MLOAD PUSH8 0xFFFFFFFFFFFFFFFF DUP2 GT DUP1 ISZERO PUSH2 0x2AE JUMPI PUSH1 0x0 DUP1 REVERT JUMPDEST POP PUSH1 0x40 MLOAD SWAP1 DUP1 DUP3 MSTORE DUP1 PUSH1 0x20 MUL PUSH1 0x20 ADD DUP3 ADD PUSH1 0x40 MSTORE DUP1 ISZERO PUSH2 0x2D8 JUMPI DUP2 PUSH1 0x20 ADD PUSH1 0x20 DUP3 MUL DUP1 CALLDATASIZE DUP4 CALLDATACOPY ADD SWAP1 POP JUMPDEST POP SWAP1 POP PUSH1 0x60 DUP4 MLOAD PUSH8 0xFFFFFFFFFFFFFFFF DUP2 GT DUP1 ISZERO PUSH2 0x2F5 JUMPI PUSH1 0x0 DUP1 REVERT JUMPDEST POP PUSH1 0x40 MLOAD SWAP1 DUP1 DUP3 MSTORE DUP1 PUSH1 0x20 MUL PUSH1 0x20 ADD DUP3 ADD PUSH1 0x40 MSTORE DUP1 ISZERO PUSH2 0x31F JUMPI DUP2 PUSH1 0x20 ADD PUSH1 0x20 DUP3 MUL DUP1 CALLDATASIZE DUP4 CALLDATACOPY ADD SWAP1 POP JUMPDEST POP SWAP1 POP PUSH1 0x0 JUMPDEST DUP5 MLOAD DUP2 LT ISZERO PUSH2 0x463 JUMPI ADDRESS PUSH1 0x1 PUSH1 0x1 PUSH1 0xA0 SHL SUB AND PUSH4 0x78FEE41C PUSH3 0x1E8480 DUP12 DUP12 DUP12 DUP12 DUP12 DUP9 DUP2 MLOAD DUP2 LT PUSH2 0x351 JUMPI INVALID JUMPDEST PUSH1 0x20 MUL PUSH1 0x20 ADD ADD MLOAD PUSH1 0x40 MLOAD DUP8 PUSH4 0xFFFFFFFF AND PUSH1 0xE0 SHL DUP2 MSTORE PUSH1 0x4 ADD PUSH2 0x379 SWAP6 SWAP5 SWAP4 SWAP3 SWAP2 SWAP1 PUSH2 0x1B57 JUMP JUMPDEST PUSH1 0x0 PUSH1 0x40 MLOAD DUP1 DUP4 SUB DUP2 PUSH1 0x0 DUP9 DUP1 EXTCODESIZE ISZERO DUP1 ISZERO PUSH2 0x393 JUMPI PUSH1 0x0 DUP1 REVERT JUMPDEST POP DUP8 CALL SWAP4 POP POP POP POP DUP1 ISZERO PUSH2 0x3A5 JUMPI POP PUSH1 0x1 JUMPDEST PUSH2 0x43A JUMPI RETURNDATASIZE DUP1 DUP1 ISZERO PUSH2 0x3D3 JUMPI PUSH1 0x40 MLOAD SWAP2 POP PUSH1 0x1F NOT PUSH1 0x3F RETURNDATASIZE ADD AND DUP3 ADD PUSH1 0x40 MSTORE RETURNDATASIZE DUP3 MSTORE RETURNDATASIZE PUSH1 0x0 PUSH1 0x20 DUP5 ADD RETURNDATACOPY PUSH2 0x3D8 JUMP JUMPDEST PUSH1 0x60 SWAP2 POP JUMPDEST POP PUSH2 0x3E2 DUP2 PUSH2 0x8C7 JUMP JUMPDEST DUP6 DUP5 DUP2 MLOAD DUP2 LT PUSH2 0x3EE JUMPI INVALID JUMPDEST PUSH1 0x20 MUL PUSH1 0x20 ADD ADD DUP6 DUP6 DUP2 MLOAD DUP2 LT PUSH2 0x401 JUMPI INVALID JUMPDEST PUSH1 0x20 MUL PUSH1 0x20 ADD ADD DUP3 DUP2 MSTORE POP DUP3 DUP2 MSTORE POP POP POP DUP4 DUP3 DUP2 MLOAD DUP2 LT PUSH2 0x41E JUMPI INVALID JUMPDEST PUSH1 0x20 MUL PUSH1 0x20 ADD ADD MLOAD PUSH1 0x0 EQ ISZERO PUSH2 0x434 JUMPI POP PUSH2 0x463 JUMP JUMPDEST POP PUSH2 0x45B JUMP JUMPDEST PUSH1 0x40 MLOAD PUSH3 0x461BCD PUSH1 0xE5 SHL DUP2 MSTORE PUSH1 0x4 ADD PUSH2 0x452 SWAP1 PUSH2 0x1C31 JUMP JUMPDEST PUSH1 0x40 MLOAD DUP1 SWAP2 SUB SWAP1 REVERT JUMPDEST PUSH1 0x1 ADD PUSH2 0x325 JUMP JUMPDEST POP PUSH2 0x46E DUP3 DUP3 PUSH2 0x8FC JUMP JUMPDEST POP POP POP POP POP POP POP POP JUMP JUMPDEST PUSH2 0x1337 PUSH2 0xDEF1 PUSH1 0x90 SHL ADD PUSH1 0x1 PUSH1 0x1 PUSH1 0xA0 SHL SUB AND PUSH4 0xD0AFDCA9 PUSH1 0x40 MLOAD DUP2 PUSH4 0xFFFFFFFF AND PUSH1 0xE0 SHL DUP2 MSTORE PUSH1 0x4 ADD PUSH1 0x0 PUSH1 0x40 MLOAD DUP1 DUP4 SUB DUP2 PUSH1 0x0 DUP8 DUP1 EXTCODESIZE ISZERO DUP1 ISZERO PUSH2 0x4BC JUMPI PUSH1 0x0 DUP1 REVERT JUMPDEST POP GAS CALL SWAP3 POP POP POP DUP1 ISZERO PUSH2 0x4CD JUMPI POP PUSH1 0x1 JUMPDEST POP PUSH1 0x0 GAS SWAP1 POP PUSH1 0x0 PUSH1 0x60 ADDRESS PUSH1 0x1 PUSH1 0x1 PUSH1 0xA0 SHL SUB AND DUP9 DUP9 DUP9 DUP9 DUP9 PUSH1 0x40 MLOAD PUSH1 0x24 ADD PUSH2 0x4F9 SWAP5 SWAP4 SWAP3 SWAP2 SWAP1 PUSH2 0x1A90 JUMP JUMPDEST PUSH1 0x40 DUP1 MLOAD PUSH1 0x1F NOT DUP2 DUP5 SUB ADD DUP2 MSTORE SWAP2 DUP2 MSTORE PUSH1 0x20 DUP3 ADD DUP1 MLOAD PUSH1 0x1 PUSH1 0x1 PUSH1 0xE0 SHL SUB AND PUSH1 0x1 PUSH1 0x1 PUSH1 0xE0 SHL SUB NOT SWAP1 SWAP5 AND SWAP4 SWAP1 SWAP4 OR SWAP1 SWAP3 MSTORE SWAP1 MLOAD PUSH2 0x537 SWAP2 SWAP1 PUSH2 0x1A2D JUMP JUMPDEST PUSH1 0x0 PUSH1 0x40 MLOAD DUP1 DUP4 SUB DUP2 PUSH1 0x0 DUP7 GAS CALL SWAP2 POP POP RETURNDATASIZE DUP1 PUSH1 0x0 DUP2 EQ PUSH2 0x574 JUMPI PUSH1 0x40 MLOAD SWAP2 POP PUSH1 0x1F NOT PUSH1 0x3F RETURNDATASIZE ADD AND DUP3 ADD PUSH1 0x40 MSTORE RETURNDATASIZE DUP3 MSTORE RETURNDATASIZE PUSH1 0x0 PUSH1 0x20 DUP5 ADD RETURNDATACOPY PUSH2 0x579 JUMP JUMPDEST PUSH1 0x60 SWAP2 POP JUMPDEST POP SWAP2 POP SWAP2 POP GAS DUP4 SUB SWAP3 POP PUSH2 0x1337 PUSH2 0xDEF1 PUSH1 0x90 SHL ADD PUSH1 0x1 PUSH1 0x1 PUSH1 0xA0 SHL SUB AND PUSH4 0xC18C162 PUSH1 0x40 MLOAD DUP2 PUSH4 0xFFFFFFFF AND PUSH1 0xE0 SHL DUP2 MSTORE PUSH1 0x4 ADD PUSH1 0x20 PUSH1 0x40 MLOAD DUP1 DUP4 SUB DUP2 DUP7 DUP1 EXTCODESIZE ISZERO DUP1 ISZERO PUSH2 0x5C5 JUMPI PUSH1 0x0 DUP1 REVERT JUMPDEST POP GAS STATICCALL SWAP3 POP POP POP DUP1 ISZERO PUSH2 0x5F5 JUMPI POP PUSH1 0x40 DUP1 MLOAD PUSH1 0x1F RETURNDATASIZE SWAP1 DUP2 ADD PUSH1 0x1F NOT AND DUP3 ADD SWAP1 SWAP3 MSTORE PUSH2 0x5F2 SWAP2 DUP2 ADD SWAP1 PUSH2 0x198C JUMP JUMPDEST PUSH1 0x1 JUMPDEST PUSH2 0x5FE JUMPI PUSH2 0x603 JUMP JUMPDEST SWAP1 SWAP3 SUB SWAP2 JUMPDEST DUP2 PUSH2 0x611 JUMPI PUSH2 0x611 DUP2 PUSH2 0x92A JUMP JUMPDEST PUSH2 0x46E DUP2 DUP1 PUSH1 0x20 ADD SWAP1 MLOAD DUP2 ADD SWAP1 PUSH2 0x628 SWAP2 SWAP1 PUSH2 0x198C JUMP JUMPDEST DUP5 PUSH2 0x932 JUMP JUMPDEST PUSH1 0x60 DUP1 PUSH2 0x707 PUSH1 0x40 MLOAD DUP1 PUSH1 0xA0 ADD PUSH1 0x40 MSTORE DUP1 DUP8 PUSH1 0x1 PUSH1 0x1 PUSH1 0xA0 SHL SUB AND DUP2 MSTORE PUSH1 0x20 ADD DUP7 PUSH1 0x1 PUSH1 0x1 PUSH1 0xA0 SHL SUB AND DUP2 MSTORE PUSH1 0x20 ADD DUP9 PUSH1 0x40 MLOAD PUSH1 0x20 ADD PUSH2 0x66E SWAP2 SWAP1 PUSH2 0x1C66 JUMP JUMPDEST PUSH1 0x40 MLOAD PUSH1 0x20 DUP2 DUP4 SUB SUB DUP2 MSTORE SWAP1 PUSH1 0x40 MSTORE DUP2 MSTORE PUSH1 0x20 ADD PUSH1 0x40 MLOAD DUP1 PUSH1 0x80 ADD PUSH1 0x40 MSTORE DUP1 DUP11 PUSH1 0x0 ADD MLOAD PUSH1 0x1 PUSH1 0x1 PUSH1 0xA0 SHL SUB AND DUP2 MSTORE PUSH1 0x20 ADD DUP11 PUSH1 0x20 ADD MLOAD PUSH1 0x1 PUSH1 0x1 PUSH1 0xE0 SHL SUB NOT AND DUP2 MSTORE PUSH1 0x20 ADD DUP11 PUSH1 0x60 ADD MLOAD PUSH1 0xF SIGNEXTEND DUP2 MSTORE PUSH1 0x20 ADD DUP11 PUSH1 0x40 ADD MLOAD PUSH1 0xF SIGNEXTEND DUP2 MSTORE POP PUSH1 0x40 MLOAD PUSH1 0x20 ADD PUSH2 0x6DC SWAP2 SWAP1 PUSH2 0x1C66 JUMP JUMPDEST PUSH1 0x40 DUP1 MLOAD PUSH1 0x1F NOT DUP2 DUP5 SUB ADD DUP2 MSTORE SWAP2 DUP2 MSTORE SWAP1 DUP3 MSTORE ADDRESS PUSH1 0x20 SWAP1 DUP2 SHL PUSH4 0x8D201C22 OR SWAP1 SWAP2 SHL SWAP2 ADD MSTORE DUP5 PUSH2 0x940 JUMP JUMPDEST SWAP1 SWAP8 SWAP1 SWAP7 POP SWAP5 POP POP POP POP POP JUMP JUMPDEST PUSH1 0x0 PUSH2 0x72A PUSH2 0x721 PUSH2 0x79E JUMP JUMPDEST DUP7 DUP7 DUP6 DUP8 PUSH2 0xE1B JUMP JUMPDEST SWAP6 SWAP5 POP POP POP POP POP JUMP JUMPDEST PUSH1 0x60 DUP1 PUSH2 0x707 PUSH1 0x40 MLOAD DUP1 PUSH1 0x80 ADD PUSH1 0x40 MSTORE DUP1 DUP8 PUSH1 0x1 PUSH1 0x1 PUSH1 0xA0 SHL SUB AND DUP2 MSTORE PUSH1 0x20 ADD DUP7 PUSH1 0x1 PUSH1 0x1 PUSH1 0xA0 SHL SUB AND DUP2 MSTORE PUSH1 0x20 ADD DUP9 PUSH1 0x40 MLOAD PUSH1 0x20 ADD PUSH2 0x773 SWAP2 SWAP1 PUSH2 0x1C66 JUMP JUMPDEST PUSH1 0x40 DUP1 MLOAD PUSH1 0x1F NOT DUP2 DUP5 SUB ADD DUP2 MSTORE SWAP2 DUP2 MSTORE SWAP1 DUP3 MSTORE ADDRESS PUSH1 0x20 SWAP1 DUP2 SHL PUSH4 0x8D201C22 OR SWAP1 SWAP2 SHL SWAP2 ADD MSTORE DUP5 PUSH2 0x1127 JUMP JUMPDEST PUSH1 0x0 CHAINID DUP2 PUSH1 0x1 DUP3 EQ ISZERO PUSH2 0x7C6 JUMPI POP PUSH20 0xC02AAA39B223FE8D0A0E5C4F27EAD9083C756CC2 PUSH2 0x89B JUMP JUMPDEST DUP2 PUSH1 0x3 EQ ISZERO PUSH2 0x7EA JUMPI POP PUSH20 0xC778417E063141139FCE010982780140AA0CD5AB PUSH2 0x89B JUMP JUMPDEST DUP2 PUSH1 0x4 EQ ISZERO PUSH2 0x80E JUMPI POP PUSH20 0xC778417E063141139FCE010982780140AA0CD5AB PUSH2 0x89B JUMP JUMPDEST DUP2 PUSH1 0x2A EQ ISZERO PUSH2 0x832 JUMPI POP PUSH20 0xD0A1E359811322D97991E03F863A0C30C2CF029C PUSH2 0x89B JUMP JUMPDEST DUP2 PUSH1 0x38 EQ ISZERO PUSH2 0x856 JUMPI POP PUSH20 0xBB4CDB9CBD36B01BD1CBAEBF2DE08D9173BC095C PUSH2 0x89B JUMP JUMPDEST DUP2 PUSH1 0x89 EQ ISZERO PUSH2 0x87A JUMPI POP PUSH20 0xD500B1D8E8EF31E21C99D1DB9A6444D3ADF1270 PUSH2 0x89B JUMP JUMPDEST DUP2 PUSH2 0x539 EQ ISZERO PUSH2 0x89B JUMPI POP PUSH20 0xB1BA0AF832D7C05FD64161E0DB78E85978E8082 JUMPDEST PUSH1 0x1 PUSH1 0x1 PUSH1 0xA0 SHL SUB DUP2 AND PUSH2 0x8C1 JUMPI PUSH1 0x40 MLOAD PUSH3 0x461BCD PUSH1 0xE5 SHL DUP2 MSTORE PUSH1 0x4 ADD PUSH2 0x452 SWAP1 PUSH2 0x1BFA JUMP JUMPDEST SWAP2 POP POP SWAP1 JUMP JUMPDEST PUSH1 0x0 DUP1 DUP3 MLOAD PUSH1 0x40 EQ PUSH2 0x8DE JUMPI POP PUSH1 0x0 SWAP1 POP DUP1 PUSH2 0x8F7 JUMP JUMPDEST DUP3 DUP1 PUSH1 0x20 ADD SWAP1 MLOAD DUP2 ADD SWAP1 PUSH2 0x8F2 SWAP2 SWAP1 PUSH2 0x19A4 JUMP JUMPDEST SWAP2 POP SWAP2 POP JUMPDEST SWAP2 POP SWAP2 JUMP JUMPDEST PUSH1 0x60 DUP3 DUP3 PUSH1 0x40 MLOAD PUSH1 0x20 ADD PUSH2 0x911 SWAP3 SWAP2 SWAP1 PUSH2 0x1ACD JUMP JUMPDEST PUSH1 0x40 MLOAD PUSH1 0x20 DUP2 DUP4 SUB SUB DUP2 MSTORE SWAP1 PUSH1 0x40 MSTORE SWAP1 POP DUP1 MLOAD PUSH1 0x20 DUP3 ADD REVERT JUMPDEST DUP1 MLOAD PUSH1 0x20 DUP3 ADD REVERT JUMPDEST DUP2 PUSH1 0x0 MSTORE DUP1 PUSH1 0x20 MSTORE PUSH1 0x40 PUSH1 0x0 REVERT JUMPDEST PUSH1 0x60 DUP1 DUP3 MLOAD PUSH1 0x0 EQ ISZERO PUSH2 0x952 JUMPI PUSH2 0xE14 JUMP JUMPDEST DUP3 MLOAD PUSH8 0xFFFFFFFFFFFFFFFF DUP2 GT DUP1 ISZERO PUSH2 0x96A JUMPI PUSH1 0x0 DUP1 REVERT JUMPDEST POP PUSH1 0x40 MLOAD SWAP1 DUP1 DUP3 MSTORE DUP1 PUSH1 0x20 MUL PUSH1 0x20 ADD DUP3 ADD PUSH1 0x40 MSTORE DUP1 ISZERO PUSH2 0x994 JUMPI DUP2 PUSH1 0x20 ADD PUSH1 0x20 DUP3 MUL DUP1 CALLDATASIZE DUP4 CALLDATACOPY ADD SWAP1 POP JUMPDEST POP SWAP1 POP DUP3 MLOAD PUSH8 0xFFFFFFFFFFFFFFFF DUP2 GT DUP1 ISZERO PUSH2 0x9AF JUMPI PUSH1 0x0 DUP1 REVERT JUMPDEST POP PUSH1 0x40 MLOAD SWAP1 DUP1 DUP3 MSTORE DUP1 PUSH1 0x20 MUL PUSH1 0x20 ADD DUP3 ADD PUSH1 0x40 MSTORE DUP1 ISZERO PUSH2 0x9D9 JUMPI DUP2 PUSH1 0x20 ADD PUSH1 0x20 DUP3 MUL DUP1 CALLDATASIZE DUP4 CALLDATACOPY ADD SWAP1 POP JUMPDEST POP PUSH1 0x40 DUP1 MLOAD PUSH1 0x1 DUP1 DUP3 MSTORE DUP2 DUP4 ADD SWAP1 SWAP3 MSTORE SWAP2 SWAP4 POP PUSH1 0x60 SWAP2 SWAP1 PUSH1 0x20 DUP1 DUP4 ADD SWAP1 DUP1 CALLDATASIZE DUP4 CALLDATACOPY ADD SWAP1 POP POP SWAP1 POP DUP4 PUSH1 0x0 DUP2 MLOAD DUP2 LT PUSH2 0xA0D JUMPI INVALID JUMPDEST PUSH1 0x20 MUL PUSH1 0x20 ADD ADD MLOAD DUP2 PUSH1 0x0 DUP2 MLOAD DUP2 LT PUSH2 0xA22 JUMPI INVALID JUMPDEST PUSH1 0x20 MUL PUSH1 0x20 ADD ADD DUP2 DUP2 MSTORE POP POP PUSH2 0xA36 PUSH2 0x14EA JUMP JUMPDEST POP PUSH1 0x40 DUP1 MLOAD PUSH1 0x80 DUP1 DUP3 ADD DUP4 MSTORE DUP8 MLOAD PUSH1 0x1 PUSH1 0x1 PUSH1 0xA0 SHL SUB SWAP1 DUP2 AND DUP4 MSTORE PUSH1 0x20 DUP1 DUP11 ADD MLOAD SWAP1 SWAP2 AND SWAP1 DUP4 ADD MSTORE DUP8 DUP4 ADD MLOAD DUP3 DUP5 ADD MSTORE DUP8 ADD MLOAD PUSH5 0x100000000 PUSH1 0x1 PUSH1 0xC0 SHL SUB SWAP1 DUP4 SHR SWAP1 DUP2 AND PUSH4 0xFFFFFFFF SWAP1 SWAP2 AND OR SWAP1 SWAP2 SHL PUSH1 0x60 DUP3 ADD MSTORE PUSH2 0xA94 PUSH2 0x14EA JUMP JUMPDEST PUSH1 0x40 MLOAD DUP1 PUSH1 0x80 ADD PUSH1 0x40 MSTORE DUP1 DUP9 PUSH1 0x20 ADD MLOAD PUSH1 0x1 PUSH1 0x1 PUSH1 0xA0 SHL SUB AND DUP2 MSTORE PUSH1 0x20 ADD DUP9 PUSH1 0x0 ADD MLOAD PUSH1 0x1 PUSH1 0x1 PUSH1 0xA0 SHL SUB AND DUP2 MSTORE PUSH1 0x20 ADD DUP9 PUSH1 0x60 ADD MLOAD DUP2 MSTORE PUSH1 0x20 ADD DUP9 PUSH1 0x80 ADD MLOAD DUP1 PUSH1 0x60 SHR SWAP1 PUSH1 0x40 SHR PUSH4 0xFFFFFFFF AND PUSH4 0xFFFFFFFF AND SWAP1 PUSH1 0x20 SHL OR PUSH1 0x40 SHL DUP2 MSTORE POP SWAP1 POP PUSH2 0xAFF DUP2 DUP5 PUSH2 0x1127 JUMP JUMPDEST DUP1 MLOAD SWAP1 SWAP5 POP ISZERO SWAP1 POP DUP1 PUSH2 0xB26 JUMPI POP DUP3 PUSH1 0x0 DUP2 MLOAD DUP2 LT PUSH2 0xB1A JUMPI INVALID JUMPDEST PUSH1 0x20 MUL PUSH1 0x20 ADD ADD MLOAD PUSH1 0x0 EQ JUMPDEST ISZERO PUSH2 0xB33 JUMPI POP POP POP PUSH2 0xE14 JUMP JUMPDEST PUSH1 0x60 PUSH2 0xB3F DUP4 DUP6 PUSH2 0x1127 JUMP JUMPDEST DUP1 MLOAD SWAP1 SWAP3 POP ISZERO SWAP1 POP DUP1 PUSH2 0xB66 JUMPI POP DUP1 PUSH1 0x0 DUP2 MLOAD DUP2 LT PUSH2 0xB5A JUMPI INVALID JUMPDEST PUSH1 0x20 MUL PUSH1 0x20 ADD ADD MLOAD PUSH1 0x0 EQ JUMPDEST ISZERO PUSH2 0xB74 JUMPI POP POP POP POP PUSH2 0xE14 JUMP JUMPDEST PUSH1 0x0 JUMPDEST DUP8 MLOAD DUP2 LT ISZERO PUSH2 0xE0E JUMPI PUSH1 0x60 PUSH1 0x0 JUMPDEST PUSH1 0x3 DUP2 LT ISZERO PUSH2 0xD4C JUMPI PUSH2 0xBD4 DUP11 DUP5 DUP2 MLOAD DUP2 LT PUSH2 0xB9D JUMPI INVALID JUMPDEST PUSH1 0x20 MUL PUSH1 0x20 ADD ADD MLOAD DUP6 PUSH1 0x0 DUP2 MLOAD DUP2 LT PUSH2 0xBB2 JUMPI INVALID JUMPDEST PUSH1 0x20 MUL PUSH1 0x20 ADD ADD MLOAD DUP10 PUSH1 0x0 DUP2 MLOAD DUP2 LT PUSH2 0xBC7 JUMPI INVALID JUMPDEST PUSH1 0x20 MUL PUSH1 0x20 ADD ADD MLOAD PUSH2 0x11F1 JUMP JUMPDEST DUP8 PUSH1 0x0 DUP2 MLOAD DUP2 LT PUSH2 0xBE1 JUMPI INVALID JUMPDEST PUSH1 0x20 SWAP1 DUP2 MUL SWAP2 SWAP1 SWAP2 ADD ADD MSTORE DUP7 MLOAD ISZERO DUP1 PUSH2 0xC0E JUMPI POP DUP7 PUSH1 0x0 DUP2 MLOAD DUP2 LT PUSH2 0xC02 JUMPI INVALID JUMPDEST PUSH1 0x20 MUL PUSH1 0x20 ADD ADD MLOAD PUSH1 0x0 EQ JUMPDEST ISZERO PUSH2 0xC18 JUMPI PUSH2 0xD4C JUMP JUMPDEST PUSH2 0xC31 PUSH1 0x5 PUSH2 0x2710 ADD PUSH2 0x2710 DUP10 PUSH1 0x0 DUP2 MLOAD DUP2 LT PUSH2 0xBC7 JUMPI INVALID JUMPDEST DUP8 PUSH1 0x0 DUP2 MLOAD DUP2 LT PUSH2 0xC3E JUMPI INVALID JUMPDEST PUSH1 0x20 SWAP1 DUP2 MUL SWAP2 SWAP1 SWAP2 ADD ADD MSTORE DUP7 MLOAD ISZERO DUP1 PUSH2 0xC6B JUMPI POP DUP7 PUSH1 0x0 DUP2 MLOAD DUP2 LT PUSH2 0xC5F JUMPI INVALID JUMPDEST PUSH1 0x20 MUL PUSH1 0x20 ADD ADD MLOAD PUSH1 0x0 EQ JUMPDEST ISZERO PUSH2 0xC75 JUMPI PUSH2 0xD4C JUMP JUMPDEST PUSH1 0x60 PUSH2 0xC81 DUP8 DUP10 PUSH2 0x1127 JUMP JUMPDEST DUP1 MLOAD SWAP2 SWAP5 POP SWAP2 POP ISZERO DUP1 PUSH2 0xCA8 JUMPI POP DUP1 PUSH1 0x0 DUP2 MLOAD DUP2 LT PUSH2 0xC9C JUMPI INVALID JUMPDEST PUSH1 0x20 MUL PUSH1 0x20 ADD ADD MLOAD PUSH1 0x0 EQ JUMPDEST ISZERO PUSH2 0xCB3 JUMPI POP PUSH2 0xD4C JUMP JUMPDEST DUP1 SWAP5 POP DUP11 DUP5 DUP2 MLOAD DUP2 LT PUSH2 0xCC2 JUMPI INVALID JUMPDEST PUSH1 0x20 MUL PUSH1 0x20 ADD ADD MLOAD DUP6 PUSH1 0x0 DUP2 MLOAD DUP2 LT PUSH2 0xCD7 JUMPI INVALID JUMPDEST PUSH1 0x20 MUL PUSH1 0x20 ADD ADD MLOAD LT PUSH2 0xD43 JUMPI PUSH1 0x0 DUP12 DUP6 DUP2 MLOAD DUP2 LT PUSH2 0xCF2 JUMPI INVALID JUMPDEST PUSH1 0x20 MUL PUSH1 0x20 ADD ADD MLOAD PUSH2 0x2710 DUP14 DUP8 DUP2 MLOAD DUP2 LT PUSH2 0xD09 JUMPI INVALID JUMPDEST PUSH1 0x20 MUL PUSH1 0x20 ADD ADD MLOAD DUP9 PUSH1 0x0 DUP2 MLOAD DUP2 LT PUSH2 0xD1E JUMPI INVALID JUMPDEST PUSH1 0x20 MUL PUSH1 0x20 ADD ADD MLOAD SUB MUL DUP2 PUSH2 0xD2F JUMPI INVALID JUMPDEST DIV SWAP1 POP PUSH1 0x5 DUP2 GT PUSH2 0xD41 JUMPI POP POP PUSH2 0xD4C JUMP JUMPDEST POP JUMPDEST POP PUSH1 0x1 ADD PUSH2 0xB85 JUMP JUMPDEST POP DUP1 MLOAD ISZERO DUP1 PUSH2 0xD6F JUMPI POP DUP1 PUSH1 0x0 DUP2 MLOAD DUP2 LT PUSH2 0xD63 JUMPI INVALID JUMPDEST PUSH1 0x20 MUL PUSH1 0x20 ADD ADD MLOAD PUSH1 0x0 EQ JUMPDEST ISZERO PUSH2 0xD7F JUMPI POP POP POP POP POP POP PUSH2 0xE14 JUMP JUMPDEST DUP3 MLOAD ISZERO PUSH2 0xE05 JUMPI DUP1 PUSH1 0x0 DUP2 MLOAD DUP2 LT PUSH2 0xD93 JUMPI INVALID JUMPDEST PUSH1 0x20 MUL PUSH1 0x20 ADD ADD MLOAD DUP9 DUP4 DUP2 MLOAD DUP2 LT PUSH2 0xDA7 JUMPI INVALID JUMPDEST PUSH1 0x20 MUL PUSH1 0x20 ADD ADD DUP2 DUP2 MSTORE POP POP PUSH2 0xDEC DUP10 DUP4 DUP2 MLOAD DUP2 LT PUSH2 0xDC2 JUMPI INVALID JUMPDEST PUSH1 0x20 MUL PUSH1 0x20 ADD ADD MLOAD DUP5 PUSH1 0x0 DUP2 MLOAD DUP2 LT PUSH2 0xDD7 JUMPI INVALID JUMPDEST PUSH1 0x20 MUL PUSH1 0x20 ADD ADD MLOAD DUP9 PUSH1 0x0 DUP2 MLOAD DUP2 LT PUSH2 0xBC7 JUMPI INVALID JUMPDEST DUP8 DUP4 DUP2 MLOAD DUP2 LT PUSH2 0xDF8 JUMPI INVALID JUMPDEST PUSH1 0x20 MUL PUSH1 0x20 ADD ADD DUP2 DUP2 MSTORE POP POP JUMPDEST POP PUSH1 0x1 ADD PUSH2 0xB77 JUMP JUMPDEST POP POP POP POP POP JUMPDEST SWAP3 POP SWAP3 SWAP1 POP JUMP JUMPDEST PUSH1 0x0 PUSH2 0xE25 PUSH2 0x1512 JUMP JUMPDEST DUP3 DUP1 PUSH1 0x20 ADD SWAP1 MLOAD DUP2 ADD SWAP1 PUSH2 0xE39 SWAP2 SWAP1 PUSH2 0x1861 JUMP JUMPDEST SWAP1 POP PUSH1 0x0 DUP8 PUSH1 0x1 PUSH1 0x1 PUSH1 0xA0 SHL SUB AND DUP8 PUSH1 0x1 PUSH1 0x1 PUSH1 0xA0 SHL SUB AND EQ ISZERO PUSH2 0xEBD JUMPI POP PUSH1 0x40 MLOAD PUSH4 0x2E1A7D4D PUSH1 0xE0 SHL DUP2 MSTORE DUP5 SWAP1 PUSH1 0x1 PUSH1 0x1 PUSH1 0xA0 SHL SUB DUP10 AND SWAP1 PUSH4 0x2E1A7D4D SWAP1 PUSH2 0xE86 SWAP1 DUP5 SWAP1 PUSH1 0x4 ADD PUSH2 0x1CAE JUMP JUMPDEST PUSH1 0x0 PUSH1 0x40 MLOAD DUP1 DUP4 SUB DUP2 PUSH1 0x0 DUP8 DUP1 EXTCODESIZE ISZERO DUP1 ISZERO PUSH2 0xEA0 JUMPI PUSH1 0x0 DUP1 REVERT JUMPDEST POP GAS CALL ISZERO DUP1 ISZERO PUSH2 0xEB4 JUMPI RETURNDATASIZE PUSH1 0x0 DUP1 RETURNDATACOPY RETURNDATASIZE PUSH1 0x0 REVERT JUMPDEST POP POP POP POP PUSH2 0xED4 JUMP JUMPDEST DUP2 MLOAD PUSH2 0xED4 SWAP1 PUSH1 0x1 PUSH1 0x1 PUSH1 0xA0 SHL SUB DUP10 AND SWAP1 DUP8 PUSH2 0x124B JUMP JUMPDEST PUSH1 0x40 MLOAD PUSH4 0x70A08231 PUSH1 0xE0 SHL DUP2 MSTORE PUSH1 0x0 SWAP1 PUSH1 0x1 PUSH1 0x1 PUSH1 0xA0 SHL SUB DUP9 AND SWAP1 PUSH4 0x70A08231 SWAP1 PUSH2 0xF03 SWAP1 ADDRESS SWAP1 PUSH1 0x4 ADD PUSH2 0x1A49 JUMP JUMPDEST PUSH1 0x20 PUSH1 0x40 MLOAD DUP1 DUP4 SUB DUP2 DUP7 DUP1 EXTCODESIZE ISZERO DUP1 ISZERO PUSH2 0xF1B JUMPI PUSH1 0x0 DUP1 REVERT JUMPDEST POP GAS STATICCALL ISZERO DUP1 ISZERO PUSH2 0xF2F JUMPI RETURNDATASIZE PUSH1 0x0 DUP1 RETURNDATACOPY RETURNDATASIZE PUSH1 0x0 REVERT JUMPDEST POP POP POP POP PUSH1 0x40 MLOAD RETURNDATASIZE PUSH1 0x1F NOT PUSH1 0x1F DUP3 ADD AND DUP3 ADD DUP1 PUSH1 0x40 MSTORE POP DUP2 ADD SWAP1 PUSH2 0xF53 SWAP2 SWAP1 PUSH2 0x198C JUMP JUMPDEST SWAP1 POP PUSH1 0x0 PUSH1 0x60 DUP5 PUSH1 0x0 ADD MLOAD PUSH1 0x1 PUSH1 0x1 PUSH1 0xA0 SHL SUB AND DUP5 DUP7 PUSH1 0x20 ADD MLOAD DUP8 PUSH1 0x40 ADD MLOAD DUP9 PUSH1 0x60 ADD MLOAD DUP13 PUSH1 0x1 PUSH1 0x40 MLOAD PUSH1 0x24 ADD PUSH2 0xF8D SWAP5 SWAP4 SWAP3 SWAP2 SWAP1 PUSH2 0x1BD5 JUMP JUMPDEST PUSH1 0x40 DUP1 MLOAD PUSH1 0x1F NOT DUP2 DUP5 SUB ADD DUP2 MSTORE SWAP2 DUP2 MSTORE PUSH1 0x20 DUP3 ADD DUP1 MLOAD PUSH1 0x1 PUSH1 0x1 PUSH1 0xE0 SHL SUB AND PUSH1 0x1 PUSH1 0x1 PUSH1 0xE0 SHL SUB NOT SWAP1 SWAP5 AND SWAP4 SWAP1 SWAP4 OR SWAP1 SWAP3 MSTORE SWAP1 MLOAD PUSH2 0xFCB SWAP2 SWAP1 PUSH2 0x1A2D JUMP JUMPDEST PUSH1 0x0 PUSH1 0x40 MLOAD DUP1 DUP4 SUB DUP2 DUP6 DUP8 GAS CALL SWAP3 POP POP POP RETURNDATASIZE DUP1 PUSH1 0x0 DUP2 EQ PUSH2 0x1008 JUMPI PUSH1 0x40 MLOAD SWAP2 POP PUSH1 0x1F NOT PUSH1 0x3F RETURNDATASIZE ADD AND DUP3 ADD PUSH1 0x40 MSTORE RETURNDATASIZE DUP3 MSTORE RETURNDATASIZE PUSH1 0x0 PUSH1 0x20 DUP5 ADD RETURNDATACOPY PUSH2 0x100D JUMP JUMPDEST PUSH1 0x60 SWAP2 POP JUMPDEST POP SWAP2 POP SWAP2 POP DUP2 PUSH2 0x1020 JUMPI PUSH2 0x1020 DUP2 PUSH2 0x92A JUMP JUMPDEST DUP11 PUSH1 0x1 PUSH1 0x1 PUSH1 0xA0 SHL SUB AND DUP10 PUSH1 0x1 PUSH1 0x1 PUSH1 0xA0 SHL SUB AND EQ ISZERO PUSH2 0x1092 JUMPI SELFBALANCE SWAP6 POP DUP11 PUSH1 0x1 PUSH1 0x1 PUSH1 0xA0 SHL SUB AND PUSH4 0xD0E30DB0 DUP8 PUSH1 0x40 MLOAD DUP3 PUSH4 0xFFFFFFFF AND PUSH1 0xE0 SHL DUP2 MSTORE PUSH1 0x4 ADD PUSH1 0x0 PUSH1 0x40 MLOAD DUP1 DUP4 SUB DUP2 DUP6 DUP9 DUP1 EXTCODESIZE ISZERO DUP1 ISZERO PUSH2 0x1078 JUMPI PUSH1 0x0 DUP1 REVERT JUMPDEST POP GAS CALL ISZERO DUP1 ISZERO PUSH2 0x108C JUMPI RETURNDATASIZE PUSH1 0x0 DUP1 RETURNDATACOPY RETURNDATASIZE PUSH1 0x0 REVERT JUMPDEST POP POP POP POP POP JUMPDEST PUSH2 0x1118 DUP4 DUP11 PUSH1 0x1 PUSH1 0x1 PUSH1 0xA0 SHL SUB AND PUSH4 0x70A08231 ADDRESS PUSH1 0x40 MLOAD DUP3 PUSH4 0xFFFFFFFF AND PUSH1 0xE0 SHL DUP2 MSTORE PUSH1 0x4 ADD PUSH2 0x10C2 SWAP2 SWAP1 PUSH2 0x1A49 JUMP JUMPDEST PUSH1 0x20 PUSH1 0x40 MLOAD DUP1 DUP4 SUB DUP2 DUP7 DUP1 EXTCODESIZE ISZERO DUP1 ISZERO PUSH2 0x10DA JUMPI PUSH1 0x0 DUP1 REVERT JUMPDEST POP GAS STATICCALL ISZERO DUP1 ISZERO PUSH2 0x10EE JUMPI RETURNDATASIZE PUSH1 0x0 DUP1 RETURNDATACOPY RETURNDATASIZE PUSH1 0x0 REVERT JUMPDEST POP POP POP POP PUSH1 0x40 MLOAD RETURNDATASIZE PUSH1 0x1F NOT PUSH1 0x1F DUP3 ADD AND DUP3 ADD DUP1 PUSH1 0x40 MSTORE POP DUP2 ADD SWAP1 PUSH2 0x1112 SWAP2 SWAP1 PUSH2 0x198C JUMP JUMPDEST SWAP1 PUSH2 0x12E3 JUMP JUMPDEST SWAP12 SWAP11 POP POP POP POP POP POP POP POP POP POP POP JUMP JUMPDEST PUSH1 0x60 DUP3 DUP2 ADD MLOAD DUP4 MLOAD PUSH1 0x20 DUP6 ADD MLOAD PUSH1 0x40 DUP1 DUP8 ADD MLOAD SWAP1 MLOAD PUSH4 0xFA7F81F PUSH1 0xE1 SHL DUP2 MSTORE DUP6 SWAP5 ADDRESS SWAP5 PUSH4 0x1F4FF03E SWAP5 PUSH2 0x1173 SWAP5 PUSH1 0xA0 SWAP4 SWAP1 SWAP4 SHL PUSH1 0x1 PUSH1 0x1 PUSH1 0xE0 SHL SUB NOT AND SWAP4 SWAP2 SWAP3 SWAP1 SWAP2 DUP11 SWAP1 PUSH1 0x4 ADD PUSH2 0x1AFD JUMP JUMPDEST PUSH1 0x0 PUSH1 0x40 MLOAD DUP1 DUP4 SUB DUP2 PUSH1 0x0 DUP8 DUP1 EXTCODESIZE ISZERO DUP1 ISZERO PUSH2 0x118D JUMPI PUSH1 0x0 DUP1 REVERT JUMPDEST POP GAS CALL SWAP3 POP POP POP DUP1 ISZERO PUSH2 0x119E JUMPI POP PUSH1 0x1 JUMPDEST PUSH2 0x43A JUMPI RETURNDATASIZE DUP1 DUP1 ISZERO PUSH2 0x11CC JUMPI PUSH1 0x40 MLOAD SWAP2 POP PUSH1 0x1F NOT PUSH1 0x3F RETURNDATASIZE ADD AND DUP3 ADD PUSH1 0x40 MSTORE RETURNDATASIZE DUP3 MSTORE RETURNDATASIZE PUSH1 0x0 PUSH1 0x20 DUP5 ADD RETURNDATACOPY PUSH2 0x11D1 JUMP JUMPDEST PUSH1 0x60 SWAP2 POP JUMPDEST POP DUP1 DUP1 PUSH1 0x20 ADD SWAP1 MLOAD DUP2 ADD SWAP1 PUSH2 0x11E6 SWAP2 SWAP1 PUSH2 0x16EC JUMP JUMPDEST SWAP4 POP SWAP2 POP PUSH2 0xE14 SWAP1 POP JUMP JUMPDEST PUSH1 0x0 DUP4 ISZERO DUP1 PUSH2 0x11FE JUMPI POP DUP2 ISZERO JUMPDEST DUP1 PUSH2 0x1207 JUMPI POP DUP3 ISZERO JUMPDEST ISZERO PUSH2 0x1214 JUMPI POP PUSH1 0x0 PUSH2 0x1244 JUMP JUMPDEST DUP4 DUP3 MUL DUP3 DUP6 DUP3 DUP2 PUSH2 0x1221 JUMPI INVALID JUMPDEST DIV EQ PUSH2 0x1231 JUMPI PUSH1 0x0 SWAP2 POP POP PUSH2 0x1244 JUMP JUMPDEST DUP4 PUSH1 0x1 DUP6 SUB DUP3 ADD DUP2 PUSH2 0x123F JUMPI INVALID JUMPDEST DIV SWAP2 POP POP JUMPDEST SWAP4 SWAP3 POP POP POP JUMP JUMPDEST PUSH1 0x40 MLOAD PUSH4 0x6EB1769F PUSH1 0xE1 SHL DUP2 MSTORE DUP2 SWAP1 PUSH1 0x1 PUSH1 0x1 PUSH1 0xA0 SHL SUB DUP6 AND SWAP1 PUSH4 0xDD62ED3E SWAP1 PUSH2 0x127B SWAP1 ADDRESS SWAP1 DUP8 SWAP1 PUSH1 0x4 ADD PUSH2 0x1A76 JUMP JUMPDEST PUSH1 0x20 PUSH1 0x40 MLOAD DUP1 DUP4 SUB DUP2 DUP7 DUP1 EXTCODESIZE ISZERO DUP1 ISZERO PUSH2 0x1293 JUMPI PUSH1 0x0 DUP1 REVERT JUMPDEST POP GAS STATICCALL ISZERO DUP1 ISZERO PUSH2 0x12A7 JUMPI RETURNDATASIZE PUSH1 0x0 DUP1 RETURNDATACOPY RETURNDATASIZE PUSH1 0x0 REVERT JUMPDEST POP POP POP POP PUSH1 0x40 MLOAD RETURNDATASIZE PUSH1 0x1F NOT PUSH1 0x1F DUP3 ADD AND DUP3 ADD DUP1 PUSH1 0x40 MSTORE POP DUP2 ADD SWAP1 PUSH2 0x12CB SWAP2 SWAP1 PUSH2 0x198C JUMP JUMPDEST LT ISZERO PUSH2 0x12DE JUMPI PUSH2 0x12DE DUP4 DUP4 PUSH1 0x0 NOT PUSH2 0x130C JUMP JUMPDEST POP POP POP JUMP JUMPDEST PUSH1 0x0 DUP3 DUP3 GT ISZERO PUSH2 0x1301 JUMPI PUSH2 0x1301 PUSH2 0x12FC PUSH1 0x2 DUP6 DUP6 PUSH2 0x136D JUMP JUMPDEST PUSH2 0x92A JUMP JUMPDEST POP DUP1 DUP3 SUB JUMPDEST SWAP3 SWAP2 POP POP JUMP JUMPDEST PUSH1 0x60 PUSH4 0x95EA7B3 PUSH1 0xE0 SHL DUP4 DUP4 PUSH1 0x40 MLOAD PUSH1 0x24 ADD PUSH2 0x1329 SWAP3 SWAP2 SWAP1 PUSH2 0x1A5D JUMP JUMPDEST PUSH1 0x40 DUP1 MLOAD PUSH1 0x1F NOT DUP2 DUP5 SUB ADD DUP2 MSTORE SWAP2 SWAP1 MSTORE PUSH1 0x20 DUP2 ADD DUP1 MLOAD PUSH1 0x1 PUSH1 0x1 PUSH1 0xE0 SHL SUB AND PUSH1 0x1 PUSH1 0x1 PUSH1 0xE0 SHL SUB NOT SWAP1 SWAP4 AND SWAP3 SWAP1 SWAP3 OR SWAP1 SWAP2 MSTORE SWAP1 POP PUSH2 0x1367 DUP5 DUP3 PUSH2 0x13C7 JUMP JUMPDEST POP POP POP POP JUMP JUMPDEST PUSH1 0x60 PUSH4 0xE946C1BB PUSH1 0xE0 SHL DUP5 DUP5 DUP5 PUSH1 0x40 MLOAD PUSH1 0x24 ADD PUSH2 0x138C SWAP4 SWAP3 SWAP2 SWAP1 PUSH2 0x1BA5 JUMP JUMPDEST PUSH1 0x40 DUP1 MLOAD PUSH1 0x1F NOT DUP2 DUP5 SUB ADD DUP2 MSTORE SWAP2 SWAP1 MSTORE PUSH1 0x20 DUP2 ADD DUP1 MLOAD PUSH1 0x1 PUSH1 0x1 PUSH1 0xE0 SHL SUB AND PUSH1 0x1 PUSH1 0x1 PUSH1 0xE0 SHL SUB NOT SWAP1 SWAP4 AND SWAP3 SWAP1 SWAP3 OR SWAP1 SWAP2 MSTORE SWAP1 POP SWAP4 SWAP3 POP POP POP JUMP JUMPDEST PUSH1 0x0 PUSH1 0x60 DUP4 PUSH1 0x1 PUSH1 0x1 PUSH1 0xA0 SHL SUB AND DUP4 PUSH1 0x40 MLOAD PUSH2 0x13E3 SWAP2 SWAP1 PUSH2 0x1A2D JUMP JUMPDEST PUSH1 0x0 PUSH1 0x40 MLOAD DUP1 DUP4 SUB DUP2 PUSH1 0x0 DUP7 GAS CALL SWAP2 POP POP RETURNDATASIZE DUP1 PUSH1 0x0 DUP2 EQ PUSH2 0x1420 JUMPI PUSH1 0x40 MLOAD SWAP2 POP PUSH1 0x1F NOT PUSH1 0x3F RETURNDATASIZE ADD AND DUP3 ADD PUSH1 0x40 MSTORE RETURNDATASIZE DUP3 MSTORE RETURNDATASIZE PUSH1 0x0 PUSH1 0x20 DUP5 ADD RETURNDATACOPY PUSH2 0x1425 JUMP JUMPDEST PUSH1 0x60 SWAP2 POP JUMPDEST POP SWAP2 POP SWAP2 POP DUP2 DUP1 ISZERO PUSH2 0x143B JUMPI POP PUSH2 0x143B DUP2 PUSH2 0x1454 JUMP JUMPDEST ISZERO PUSH2 0x1447 JUMPI POP POP PUSH2 0x1450 JUMP JUMPDEST PUSH2 0x1367 DUP2 PUSH2 0x92A JUMP JUMPDEST POP POP JUMP JUMPDEST PUSH1 0x0 DUP2 MLOAD PUSH1 0x0 EQ ISZERO PUSH2 0x1468 JUMPI POP PUSH1 0x1 PUSH2 0x1495 JUMP JUMPDEST PUSH1 0x20 DUP3 MLOAD LT PUSH2 0x1495 JUMPI PUSH1 0x0 PUSH2 0x147E DUP4 PUSH1 0x0 PUSH2 0x149A JUMP JUMPDEST SWAP1 POP DUP1 PUSH1 0x1 EQ ISZERO PUSH2 0x1493 JUMPI PUSH1 0x1 SWAP2 POP POP PUSH2 0x1495 JUMP JUMPDEST POP JUMPDEST SWAP2 SWAP1 POP JUMP JUMPDEST PUSH1 0x0 PUSH2 0x1244 DUP4 DUP4 PUSH1 0x0 DUP2 PUSH1 0x20 ADD DUP4 MLOAD LT ISZERO PUSH2 0x14C2 JUMPI PUSH2 0x14C2 PUSH2 0x12FC PUSH1 0x5 DUP6 MLOAD DUP6 PUSH1 0x20 ADD PUSH2 0x14CB JUMP JUMPDEST POP ADD PUSH1 0x20 ADD MLOAD SWAP1 JUMP JUMPDEST PUSH1 0x60 PUSH4 0x28006595 PUSH1 0xE0 SHL DUP5 DUP5 DUP5 PUSH1 0x40 MLOAD PUSH1 0x24 ADD PUSH2 0x138C SWAP4 SWAP3 SWAP2 SWAP1 PUSH2 0x1BC7 JUMP JUMPDEST PUSH1 0x40 DUP1 MLOAD PUSH1 0x80 DUP2 ADD DUP3 MSTORE PUSH1 0x0 DUP1 DUP3 MSTORE PUSH1 0x20 DUP3 ADD DUP2 SWAP1 MSTORE PUSH1 0x60 SWAP3 DUP3 ADD DUP4 SWAP1 MSTORE SWAP2 DUP2 ADD SWAP2 SWAP1 SWAP2 MSTORE SWAP1 JUMP JUMPDEST PUSH1 0x40 DUP1 MLOAD PUSH1 0x80 DUP2 ADD DUP3 MSTORE PUSH1 0x0 DUP1 DUP3 MSTORE PUSH1 0x20 DUP3 ADD DUP2 SWAP1 MSTORE SWAP2 DUP2 ADD DUP3 SWAP1 MSTORE PUSH1 0x60 DUP2 ADD SWAP2 SWAP1 SWAP2 MSTORE SWAP1 JUMP JUMPDEST DUP1 CALLDATALOAD PUSH2 0x1306 DUP2 PUSH2 0x1D2A JUMP JUMPDEST PUSH1 0x0 DUP3 PUSH1 0x1F DUP4 ADD SLT PUSH2 0x1554 JUMPI DUP1 DUP2 REVERT JUMPDEST DUP2 CALLDATALOAD PUSH2 0x1567 PUSH2 0x1562 DUP3 PUSH2 0x1CDE JUMP JUMPDEST PUSH2 0x1CB7 JUMP JUMPDEST DUP2 DUP2 MSTORE SWAP2 POP PUSH1 0x20 DUP1 DUP4 ADD SWAP1 DUP5 DUP2 ADD DUP2 DUP5 MUL DUP7 ADD DUP3 ADD DUP8 LT ISZERO PUSH2 0x1588 JUMPI PUSH1 0x0 DUP1 REVERT JUMPDEST PUSH1 0x0 JUMPDEST DUP5 DUP2 LT ISZERO PUSH2 0x15A7 JUMPI DUP2 CALLDATALOAD DUP5 MSTORE SWAP3 DUP3 ADD SWAP3 SWAP1 DUP3 ADD SWAP1 PUSH1 0x1 ADD PUSH2 0x158B JUMP JUMPDEST POP POP POP POP POP SWAP3 SWAP2 POP POP JUMP JUMPDEST PUSH1 0x0 DUP3 PUSH1 0x1F DUP4 ADD SLT PUSH2 0x15C2 JUMPI DUP1 DUP2 REVERT JUMPDEST DUP2 MLOAD PUSH2 0x15D0 PUSH2 0x1562 DUP3 PUSH2 0x1CDE JUMP JUMPDEST DUP2 DUP2 MSTORE SWAP2 POP PUSH1 0x20 DUP1 DUP4 ADD SWAP1 DUP5 DUP2 ADD DUP2 DUP5 MUL DUP7 ADD DUP3 ADD DUP8 LT ISZERO PUSH2 0x15F1 JUMPI PUSH1 0x0 DUP1 REVERT JUMPDEST PUSH1 0x0 JUMPDEST DUP5 DUP2 LT ISZERO PUSH2 0x15A7 JUMPI DUP2 MLOAD DUP5 MSTORE SWAP3 DUP3 ADD SWAP3 SWAP1 DUP3 ADD SWAP1 PUSH1 0x1 ADD PUSH2 0x15F4 JUMP JUMPDEST PUSH1 0x0 DUP3 PUSH1 0x1F DUP4 ADD SLT PUSH2 0x1620 JUMPI DUP1 DUP2 REVERT JUMPDEST DUP2 CALLDATALOAD PUSH8 0xFFFFFFFFFFFFFFFF DUP2 GT ISZERO PUSH2 0x1636 JUMPI DUP2 DUP3 REVERT JUMPDEST PUSH2 0x1649 PUSH1 0x1F DUP3 ADD PUSH1 0x1F NOT AND PUSH1 0x20 ADD PUSH2 0x1CB7 JUMP JUMPDEST SWAP2 POP DUP1 DUP3 MSTORE DUP4 PUSH1 0x20 DUP3 DUP6 ADD ADD GT ISZERO PUSH2 0x1660 JUMPI PUSH1 0x0 DUP1 REVERT JUMPDEST DUP1 PUSH1 0x20 DUP5 ADD PUSH1 0x20 DUP5 ADD CALLDATACOPY PUSH1 0x0 SWAP1 DUP3 ADD PUSH1 0x20 ADD MSTORE SWAP3 SWAP2 POP POP JUMP JUMPDEST DUP1 CALLDATALOAD PUSH2 0x1306 DUP2 PUSH2 0x1D58 JUMP JUMPDEST PUSH1 0x0 DUP1 PUSH1 0x0 DUP1 PUSH1 0x80 DUP6 DUP8 SUB SLT ISZERO PUSH2 0x1699 JUMPI DUP4 DUP5 REVERT JUMPDEST DUP5 CALLDATALOAD PUSH2 0x16A4 DUP2 PUSH2 0x1D2A JUMP JUMPDEST SWAP4 POP PUSH1 0x20 DUP6 ADD CALLDATALOAD PUSH2 0x16B4 DUP2 PUSH2 0x1D2A JUMP JUMPDEST SWAP3 POP PUSH1 0x40 DUP6 ADD CALLDATALOAD PUSH8 0xFFFFFFFFFFFFFFFF DUP2 GT ISZERO PUSH2 0x16CF JUMPI DUP3 DUP4 REVERT JUMPDEST PUSH2 0x16DB DUP8 DUP3 DUP9 ADD PUSH2 0x1610 JUMP JUMPDEST SWAP5 SWAP8 SWAP4 SWAP7 POP SWAP4 SWAP5 PUSH1 0x60 ADD CALLDATALOAD SWAP4 POP POP POP JUMP JUMPDEST PUSH1 0x0 DUP1 PUSH1 0x40 DUP4 DUP6 SUB SLT ISZERO PUSH2 0x16FE JUMPI DUP2 DUP3 REVERT JUMPDEST DUP3 MLOAD PUSH8 0xFFFFFFFFFFFFFFFF DUP1 DUP3 GT ISZERO PUSH2 0x1715 JUMPI DUP4 DUP5 REVERT JUMPDEST PUSH2 0x1721 DUP7 DUP4 DUP8 ADD PUSH2 0x15B2 JUMP JUMPDEST SWAP4 POP PUSH1 0x20 DUP6 ADD MLOAD SWAP2 POP DUP1 DUP3 GT ISZERO PUSH2 0x1736 JUMPI DUP3 DUP4 REVERT JUMPDEST POP PUSH2 0x1743 DUP6 DUP3 DUP7 ADD PUSH2 0x15B2 JUMP JUMPDEST SWAP2 POP POP SWAP3 POP SWAP3 SWAP1 POP JUMP JUMPDEST PUSH1 0x0 DUP1 PUSH1 0x0 DUP1 PUSH1 0x0 PUSH1 0xA0 DUP7 DUP9 SUB SLT ISZERO PUSH2 0x1764 JUMPI DUP1 DUP2 REVERT JUMPDEST DUP6 CALLDATALOAD PUSH2 0x176F DUP2 PUSH2 0x1D42 JUMP JUMPDEST SWAP5 POP PUSH1 0x20 DUP7 ADD CALLDATALOAD PUSH2 0x177F DUP2 PUSH2 0x1D2A JUMP JUMPDEST SWAP4 POP PUSH1 0x40 DUP7 ADD CALLDATALOAD PUSH2 0x178F DUP2 PUSH2 0x1D2A JUMP JUMPDEST SWAP3 POP PUSH1 0x60 DUP7 ADD CALLDATALOAD PUSH8 0xFFFFFFFFFFFFFFFF DUP1 DUP3 GT ISZERO PUSH2 0x17AB JUMPI DUP3 DUP4 REVERT JUMPDEST PUSH2 0x17B7 DUP10 DUP4 DUP11 ADD PUSH2 0x1610 JUMP JUMPDEST SWAP4 POP PUSH1 0x80 DUP9 ADD CALLDATALOAD SWAP2 POP DUP1 DUP3 GT ISZERO PUSH2 0x17CC JUMPI DUP3 DUP4 REVERT JUMPDEST POP PUSH2 0x17D9 DUP9 DUP3 DUP10 ADD PUSH2 0x1544 JUMP JUMPDEST SWAP2 POP POP SWAP3 SWAP6 POP SWAP3 SWAP6 SWAP1 SWAP4 POP JUMP JUMPDEST PUSH1 0x0 DUP1 PUSH1 0x0 DUP1 PUSH1 0x0 PUSH1 0xA0 DUP7 DUP9 SUB SLT ISZERO PUSH2 0x17FD JUMPI DUP1 DUP2 REVERT JUMPDEST DUP6 CALLDATALOAD PUSH2 0x1808 DUP2 PUSH2 0x1D42 JUMP JUMPDEST SWAP5 POP PUSH1 0x20 DUP7 ADD CALLDATALOAD PUSH2 0x1818 DUP2 PUSH2 0x1D2A JUMP JUMPDEST SWAP4 POP PUSH1 0x40 DUP7 ADD CALLDATALOAD PUSH2 0x1828 DUP2 PUSH2 0x1D2A JUMP JUMPDEST SWAP3 POP PUSH1 0x60 DUP7 ADD CALLDATALOAD PUSH8 0xFFFFFFFFFFFFFFFF DUP2 GT ISZERO PUSH2 0x1843 JUMPI DUP2 DUP3 REVERT JUMPDEST PUSH2 0x184F DUP9 DUP3 DUP10 ADD PUSH2 0x1610 JUMP JUMPDEST SWAP6 SWAP9 SWAP5 SWAP8 POP SWAP3 SWAP6 PUSH1 0x80 ADD CALLDATALOAD SWAP4 SWAP3 POP POP POP JUMP JUMPDEST PUSH1 0x0 PUSH1 0x80 DUP3 DUP5 SUB SLT ISZERO PUSH2 0x1872 JUMPI DUP1 DUP2 REVERT JUMPDEST PUSH2 0x187C PUSH1 0x80 PUSH2 0x1CB7 JUMP JUMPDEST DUP3 MLOAD PUSH2 0x1887 DUP2 PUSH2 0x1D2A JUMP JUMPDEST DUP2 MSTORE PUSH1 0x20 DUP4 ADD MLOAD PUSH2 0x1897 DUP2 PUSH2 0x1D42 JUMP JUMPDEST PUSH1 0x20 DUP3 ADD MSTORE PUSH1 0x40 DUP4 ADD MLOAD PUSH2 0x18AA DUP2 PUSH2 0x1D58 JUMP JUMPDEST PUSH1 0x40 DUP3 ADD MSTORE PUSH1 0x60 DUP4 ADD MLOAD PUSH2 0x18BD DUP2 PUSH2 0x1D58 JUMP JUMPDEST PUSH1 0x60 DUP3 ADD MSTORE SWAP4 SWAP3 POP POP POP JUMP JUMPDEST PUSH1 0x0 DUP1 PUSH1 0x0 DUP1 DUP5 DUP7 SUB PUSH1 0xE0 DUP2 SLT ISZERO PUSH2 0x18DF JUMPI DUP5 DUP6 REVERT JUMPDEST PUSH1 0x80 DUP2 SLT ISZERO PUSH2 0x18EC JUMPI DUP5 DUP6 REVERT JUMPDEST POP PUSH2 0x18F7 PUSH1 0x80 PUSH2 0x1CB7 JUMP JUMPDEST DUP6 CALLDATALOAD PUSH2 0x1902 DUP2 PUSH2 0x1D2A JUMP JUMPDEST DUP2 MSTORE PUSH1 0x20 DUP7 ADD CALLDATALOAD PUSH2 0x1912 DUP2 PUSH2 0x1D42 JUMP JUMPDEST PUSH1 0x20 DUP3 ADD MSTORE PUSH2 0x1924 DUP8 PUSH1 0x40 DUP9 ADD PUSH2 0x1679 JUMP JUMPDEST PUSH1 0x40 DUP3 ADD MSTORE PUSH2 0x1936 DUP8 PUSH1 0x60 DUP9 ADD PUSH2 0x1679 JUMP JUMPDEST PUSH1 0x60 DUP3 ADD MSTORE SWAP4 POP PUSH2 0x194A DUP7 PUSH1 0x80 DUP8 ADD PUSH2 0x1539 JUMP JUMPDEST SWAP3 POP PUSH2 0x1959 DUP7 PUSH1 0xA0 DUP8 ADD PUSH2 0x1539 JUMP JUMPDEST SWAP2 POP PUSH1 0xC0 DUP6 ADD CALLDATALOAD PUSH8 0xFFFFFFFFFFFFFFFF DUP2 GT ISZERO PUSH2 0x1974 JUMPI DUP2 DUP3 REVERT JUMPDEST PUSH2 0x1980 DUP8 DUP3 DUP9 ADD PUSH2 0x1544 JUMP JUMPDEST SWAP2 POP POP SWAP3 SWAP6 SWAP2 SWAP5 POP SWAP3 POP JUMP JUMPDEST PUSH1 0x0 PUSH1 0x20 DUP3 DUP5 SUB SLT ISZERO PUSH2 0x199D JUMPI DUP1 DUP2 REVERT JUMPDEST POP MLOAD SWAP2 SWAP1 POP JUMP JUMPDEST PUSH1 0x0 DUP1 PUSH1 0x40 DUP4 DUP6 SUB SLT ISZERO PUSH2 0x19B6 JUMPI DUP2 DUP3 REVERT JUMPDEST POP POP DUP1 MLOAD PUSH1 0x20 SWAP1 SWAP2 ADD MLOAD SWAP1 SWAP3 SWAP1 SWAP2 POP JUMP JUMPDEST PUSH1 0x0 DUP2 MLOAD DUP1 DUP5 MSTORE PUSH1 0x20 DUP1 DUP6 ADD SWAP5 POP DUP1 DUP5 ADD DUP4 JUMPDEST DUP4 DUP2 LT ISZERO PUSH2 0x19F6 JUMPI DUP2 MLOAD DUP8 MSTORE SWAP6 DUP3 ADD SWAP6 SWAP1 DUP3 ADD SWAP1 PUSH1 0x1 ADD PUSH2 0x19DA JUMP JUMPDEST POP SWAP5 SWAP6 SWAP5 POP POP POP POP POP JUMP JUMPDEST PUSH1 0x0 DUP2 MLOAD DUP1 DUP5 MSTORE PUSH2 0x1A19 DUP2 PUSH1 0x20 DUP7 ADD PUSH1 0x20 DUP7 ADD PUSH2 0x1CFE JUMP JUMPDEST PUSH1 0x1F ADD PUSH1 0x1F NOT AND SWAP3 SWAP1 SWAP3 ADD PUSH1 0x20 ADD SWAP3 SWAP2 POP POP JUMP JUMPDEST PUSH1 0x0 DUP3 MLOAD PUSH2 0x1A3F DUP2 DUP5 PUSH1 0x20 DUP8 ADD PUSH2 0x1CFE JUMP JUMPDEST SWAP2 SWAP1 SWAP2 ADD SWAP3 SWAP2 POP POP JUMP JUMPDEST PUSH1 0x1 PUSH1 0x1 PUSH1 0xA0 SHL SUB SWAP2 SWAP1 SWAP2 AND DUP2 MSTORE PUSH1 0x20 ADD SWAP1 JUMP JUMPDEST PUSH1 0x1 PUSH1 0x1 PUSH1 0xA0 SHL SUB SWAP3 SWAP1 SWAP3 AND DUP3 MSTORE PUSH1 0x20 DUP3 ADD MSTORE PUSH1 0x40 ADD SWAP1 JUMP JUMPDEST PUSH1 0x1 PUSH1 0x1 PUSH1 0xA0 SHL SUB SWAP3 DUP4 AND DUP2 MSTORE SWAP2 AND PUSH1 0x20 DUP3 ADD MSTORE PUSH1 0x40 ADD SWAP1 JUMP JUMPDEST PUSH1 0x1 PUSH1 0x1 PUSH1 0xA0 SHL SUB DUP6 DUP2 AND DUP3 MSTORE DUP5 AND PUSH1 0x20 DUP3 ADD MSTORE PUSH1 0x80 PUSH1 0x40 DUP3 ADD DUP2 SWAP1 MSTORE PUSH1 0x0 SWAP1 PUSH2 0x1ABC SWAP1 DUP4 ADD DUP6 PUSH2 0x1A01 JUMP JUMPDEST SWAP1 POP DUP3 PUSH1 0x60 DUP4 ADD MSTORE SWAP6 SWAP5 POP POP POP POP POP JUMP JUMPDEST PUSH1 0x0 PUSH1 0x40 DUP3 MSTORE PUSH2 0x1AE0 PUSH1 0x40 DUP4 ADD DUP6 PUSH2 0x19C7 JUMP JUMPDEST DUP3 DUP2 SUB PUSH1 0x20 DUP5 ADD MSTORE PUSH2 0x72A DUP2 DUP6 PUSH2 0x19C7 JUMP JUMPDEST SWAP1 ISZERO ISZERO DUP2 MSTORE PUSH1 0x20 ADD SWAP1 JUMP JUMPDEST PUSH1 0x1 PUSH1 0x1 PUSH1 0xE0 SHL SUB NOT DUP7 AND DUP2 MSTORE PUSH1 0x1 PUSH1 0x1 PUSH1 0xA0 SHL SUB DUP6 DUP2 AND PUSH1 0x20 DUP4 ADD MSTORE DUP5 AND PUSH1 0x40 DUP3 ADD MSTORE PUSH1 0xA0 PUSH1 0x60 DUP3 ADD DUP2 SWAP1 MSTORE PUSH1 0x0 SWAP1 PUSH2 0x1B39 SWAP1 DUP4 ADD DUP6 PUSH2 0x1A01 JUMP JUMPDEST DUP3 DUP2 SUB PUSH1 0x80 DUP5 ADD MSTORE PUSH2 0x1B4B DUP2 DUP6 PUSH2 0x19C7 JUMP JUMPDEST SWAP9 SWAP8 POP POP POP POP POP POP POP POP JUMP JUMPDEST PUSH1 0x1 PUSH1 0x1 PUSH1 0xE0 SHL SUB NOT DUP7 AND DUP2 MSTORE PUSH1 0x1 PUSH1 0x1 PUSH1 0xA0 SHL SUB DUP6 DUP2 AND PUSH1 0x20 DUP4 ADD MSTORE DUP5 AND PUSH1 0x40 DUP3 ADD MSTORE PUSH1 0xA0 PUSH1 0x60 DUP3 ADD DUP2 SWAP1 MSTORE PUSH1 0x0 SWAP1 PUSH2 0x1B93 SWAP1 DUP4 ADD DUP6 PUSH2 0x1A01 JUMP JUMPDEST SWAP1 POP DUP3 PUSH1 0x80 DUP4 ADD MSTORE SWAP7 SWAP6 POP POP POP POP POP POP JUMP JUMPDEST PUSH1 0x60 DUP2 ADD PUSH1 0x4 DUP6 LT PUSH2 0x1BB3 JUMPI INVALID JUMPDEST SWAP4 DUP2 MSTORE PUSH1 0x20 DUP2 ADD SWAP3 SWAP1 SWAP3 MSTORE PUSH1 0x40 SWAP1 SWAP2 ADD MSTORE SWAP1 JUMP JUMPDEST PUSH1 0x60 DUP2 ADD PUSH1 0x8 DUP6 LT PUSH2 0x1BB3 JUMPI INVALID JUMPDEST PUSH1 0xF SWAP5 DUP6 SIGNEXTEND DUP2 MSTORE SWAP3 SWAP1 SWAP4 SIGNEXTEND PUSH1 0x20 DUP4 ADD MSTORE PUSH1 0x40 DUP3 ADD MSTORE PUSH1 0xFF SWAP1 SWAP2 AND PUSH1 0x60 DUP3 ADD MSTORE PUSH1 0x80 ADD SWAP1 JUMP JUMPDEST PUSH1 0x20 DUP1 DUP3 MSTORE PUSH1 0x17 SWAP1 DUP3 ADD MSTORE PUSH32 0x4E6F206E6174697665207772617070656420746F6B656E000000000000000000 PUSH1 0x40 DUP3 ADD MSTORE PUSH1 0x60 ADD SWAP1 JUMP JUMPDEST PUSH1 0x20 DUP1 DUP3 MSTORE DUP2 DUP2 ADD MSTORE PUSH32 0x537761702053616D706C652073686F756C642068617665207265766572746564 PUSH1 0x40 DUP3 ADD MSTORE PUSH1 0x60 ADD SWAP1 JUMP JUMPDEST DUP2 MLOAD PUSH1 0x1 PUSH1 0x1 PUSH1 0xA0 SHL SUB AND DUP2 MSTORE PUSH1 0x20 DUP1 DUP4 ADD MLOAD PUSH1 0x1 PUSH1 0x1 PUSH1 0xE0 SHL SUB NOT AND SWAP1 DUP3 ADD MSTORE PUSH1 0x40 DUP1 DUP4 ADD MLOAD PUSH1 0xF SWAP1 DUP2 SIGNEXTEND SWAP2 DUP4 ADD SWAP2 SWAP1 SWAP2 MSTORE PUSH1 0x60 SWAP3 DUP4 ADD MLOAD SWAP1 SIGNEXTEND SWAP2 DUP2 ADD SWAP2 SWAP1 SWAP2 MSTORE PUSH1 0x80 ADD SWAP1 JUMP JUMPDEST SWAP1 DUP2 MSTORE PUSH1 0x20 ADD SWAP1 JUMP JUMPDEST PUSH1 0x40 MLOAD DUP2 DUP2 ADD PUSH8 0xFFFFFFFFFFFFFFFF DUP2 GT DUP3 DUP3 LT OR ISZERO PUSH2 0x1CD6 JUMPI PUSH1 0x0 DUP1 REVERT JUMPDEST PUSH1 0x40 MSTORE SWAP2 SWAP1 POP JUMP JUMPDEST PUSH1 0x0 PUSH8 0xFFFFFFFFFFFFFFFF DUP3 GT ISZERO PUSH2 0x1CF4 JUMPI DUP1 DUP2 REVERT JUMPDEST POP PUSH1 0x20 SWAP1 DUP2 MUL ADD SWAP1 JUMP JUMPDEST PUSH1 0x0 JUMPDEST DUP4 DUP2 LT ISZERO PUSH2 0x1D19 JUMPI DUP2 DUP2 ADD MLOAD DUP4 DUP3 ADD MSTORE PUSH1 0x20 ADD PUSH2 0x1D01 JUMP JUMPDEST DUP4 DUP2 GT ISZERO PUSH2 0x1367 JUMPI POP POP PUSH1 0x0 SWAP2 ADD MSTORE JUMP JUMPDEST PUSH1 0x1 PUSH1 0x1 PUSH1 0xA0 SHL SUB DUP2 AND DUP2 EQ PUSH2 0x1D3F JUMPI PUSH1 0x0 DUP1 REVERT JUMPDEST POP JUMP JUMPDEST PUSH1 0x1 PUSH1 0x1 PUSH1 0xE0 SHL SUB NOT DUP2 AND DUP2 EQ PUSH2 0x1D3F JUMPI PUSH1 0x0 DUP1 REVERT JUMPDEST DUP1 PUSH1 0xF SIGNEXTEND DUP2 EQ PUSH2 0x1D3F JUMPI PUSH1 0x0 DUP1 REVERT INVALID LOG2 PUSH5 0x6970667358 0x22 SLT KECCAK256 MSIZE SMOD 0x2E 0xEE 0xA7 PUSH15 0x63E04642EC9A368A4EA021F2417BA MSTORE RETURNDATACOPY CALLVALUE 0x5F 0xCA 0xBA 0xC4 0xE0 PUSH14 0x841A64736F6C634300060C003300 "
            }
        }
    },
    "sourceTreeHashHex": "0x9c4841e3db92d4576704fad8d9cb218d3db7a00eb675838391af4936405bce74",
    "compiler": {
        "name": "solc",
        "version": "0.6.12+commit.27d51765",
        "settings": {
            "remappings": [
                "@0x/contracts-zero-ex=/Users/jacob/projects/ethdev/0x/workspace-remote/workspace/0x-monorepo/packages/asset-swapper/node_modules/@0x/contracts-zero-ex",
                "@0x/contracts-erc20=/Users/jacob/projects/ethdev/0x/workspace-remote/workspace/0x-monorepo/packages/asset-swapper/node_modules/@0x/contracts-erc20",
                "@0x/contracts-utils=/Users/jacob/projects/ethdev/0x/workspace-remote/workspace/0x-monorepo/packages/asset-swapper/node_modules/@0x/contracts-utils"
            ],
            "optimizer": {
                "enabled": true,
                "runs": 200,
                "details": {
                    "yul": true,
                    "deduplicate": true
                }
            },
            "outputSelection": {
                "*": {
                    "*": [
                        "abi",
                        "devdoc",
                        "evm.bytecode.object",
                        "evm.bytecode.sourceMap",
                        "evm.deployedBytecode.object",
                        "evm.deployedBytecode.sourceMap"
                    ]
                }
            },
            "evmVersion": "istanbul"
        }
    },
    "chains": {}
}