{
    "schemaVersion": "2.0.0",
    "contractName": "DexForwarderBridge",
    "compilerOutput": {
        "abi": [
            {
                "anonymous": false,
                "inputs": [
                    {
                        "indexed": false,
                        "internalType": "address",
                        "name": "inputToken",
                        "type": "address"
                    },
                    {
                        "indexed": false,
                        "internalType": "address",
                        "name": "outputToken",
                        "type": "address"
                    },
                    {
                        "indexed": false,
                        "internalType": "uint256",
                        "name": "inputTokenAmount",
                        "type": "uint256"
                    },
                    {
                        "indexed": false,
                        "internalType": "uint256",
                        "name": "outputTokenAmount",
                        "type": "uint256"
                    },
                    {
                        "indexed": false,
                        "internalType": "address",
                        "name": "from",
                        "type": "address"
                    },
                    {
                        "indexed": false,
                        "internalType": "address",
                        "name": "to",
                        "type": "address"
                    }
                ],
                "name": "ERC20BridgeTransfer",
                "type": "event"
            },
            {
                "constant": false,
                "inputs": [
                    {
                        "internalType": "address",
                        "name": "outputToken",
                        "type": "address"
                    },
                    {
                        "internalType": "address",
                        "name": "",
                        "type": "address"
                    },
                    {
                        "internalType": "address",
                        "name": "to",
                        "type": "address"
                    },
                    {
                        "internalType": "uint256",
                        "name": "",
                        "type": "uint256"
                    },
                    {
                        "internalType": "bytes",
                        "name": "bridgeData",
                        "type": "bytes"
                    }
                ],
                "name": "bridgeTransferFrom",
                "outputs": [
                    {
                        "internalType": "bytes4",
                        "name": "success",
                        "type": "bytes4"
                    }
                ],
                "payable": false,
                "stateMutability": "nonpayable",
                "type": "function"
            },
            {
                "constant": false,
                "inputs": [
                    {
                        "internalType": "address",
                        "name": "bridge",
                        "type": "address"
                    },
                    {
                        "internalType": "address",
                        "name": "to",
                        "type": "address"
                    },
                    {
                        "internalType": "address",
                        "name": "inputToken",
                        "type": "address"
                    },
                    {
                        "internalType": "address",
                        "name": "outputToken",
                        "type": "address"
                    },
                    {
                        "internalType": "uint256",
                        "name": "inputTokenAmount",
                        "type": "uint256"
                    },
                    {
                        "internalType": "uint256",
                        "name": "outputTokenAmount",
                        "type": "uint256"
                    },
                    {
                        "internalType": "bytes",
                        "name": "bridgeData",
                        "type": "bytes"
                    }
                ],
                "name": "executeBridgeCall",
                "outputs": [],
                "payable": false,
                "stateMutability": "nonpayable",
                "type": "function"
            },
            {
                "constant": true,
                "inputs": [
                    {
                        "internalType": "bytes32",
                        "name": "",
                        "type": "bytes32"
                    },
                    {
                        "internalType": "bytes",
                        "name": "",
                        "type": "bytes"
                    }
                ],
                "name": "isValidSignature",
                "outputs": [
                    {
                        "internalType": "bytes4",
                        "name": "magicValue",
                        "type": "bytes4"
                    }
                ],
                "payable": false,
                "stateMutability": "view",
                "type": "function"
            }
        ],
        "devdoc": {
            "methods": {
                "bridgeTransferFrom(address,address,address,uint256,bytes)": {
                    "details": "Spends this contract's entire balance of input tokens by forwarding them to other bridges. Reverts if the entire balance is not spent.",
                    "params": {
                        "bridgeData": "The abi-encoded input token address.",
                        "outputToken": "The token being bought.",
                        "to": "The recipient of the bought tokens."
                    },
                    "return": "success The magic bytes if successful."
                },
                "executeBridgeCall(address,address,address,address,uint256,uint256,bytes)": {
                    "params": {
                        "bridge": "The bridge contract.",
                        "inputToken": "The input token.",
                        "inputTokenAmount": "The amount of input tokens to transfer to `bridge`.",
                        "outputToken": "The output token.",
                        "outputTokenAmount": "The amount of expected output tokens to be sent        to `to` by `bridge`.",
                        "to": "The recipient of `outputToken` tokens."
                    }
                },
                "isValidSignature(bytes32,bytes)": {
                    "details": "`SignatureType.Wallet` callback, so that this bridge can be the maker      and sign for itself in orders. Always succeeds.",
                    "return": "magicValue Magic success bytes, always."
                }
            }
        },
        "evm": {
            "bytecode": {
                "linkReferences": {},
                "object": "0x608060405234801561001057600080fd5b5061131a806100206000396000f3fe608060405234801561001057600080fd5b50600436106100415760003560e01c80631626ba7e14610046578063216b5fc11461006f578063c2df82e614610084575b600080fd5b610059610054366004610f87565b610097565b604051610066919061116e565b60405180910390f35b61008261007d366004610e65565b6100bf565b005b610059610092366004610f04565b6103fe565b7fb0671381000000000000000000000000000000000000000000000000000000009392505050565b333014610101576040517f08c379a00000000000000000000000000000000000000000000000000000000081526004016100f8906111cb565b60405180910390fd5b73ffffffffffffffffffffffffffffffffffffffff881630141561012457600080fd5b6040517f70a0823100000000000000000000000000000000000000000000000000000000815260009073ffffffffffffffffffffffffffffffffffffffff8716906370a0823190610179908b90600401611005565b60206040518083038186803b15801561019157600080fd5b505afa1580156101a5573d6000803e3d6000fd5b505050506040513d601f19601f820116820180604052506101c99190810190610fd1565b90506101d6878a8761086f565b60405160009060609073ffffffffffffffffffffffffffffffffffffffff8c16907fc2df82e60000000000000000000000000000000000000000000000000000000090610231908b908f908f908c908c908c906024016110c3565b604080517fffffffffffffffffffffffffffffffffffffffffffffffffffffffffffffffe08184030181529181526020820180517bffffffffffffffffffffffffffffffffffffffffffffffffffffffff167fffffffff000000000000000000000000000000000000000000000000000000009094169390931790925290516102ba9190610fe9565b6000604051808303816000865af19150503d80600081146102f7576040519150601f19603f3d011682016040523d82523d6000602084013e6102fc565b606091505b509150915081801561030f575080516020145b801561034457507fdc1600f300000000000000000000000000000000000000000000000000000000610342826000610936565b145b80156103e85750856103e5848a73ffffffffffffffffffffffffffffffffffffffff166370a082318e6040518263ffffffff1660e01b81526004016103899190611005565b60206040518083038186803b1580156103a157600080fd5b505afa1580156103b5573d6000803e3d6000fd5b505050506040513d601f19601f820116820180604052506103d99190810190610fd1565b9063ffffffff61096f16565b10155b6103f157600080fd5b5050505050505050505050565b6000805a905061040c61098e565b73ffffffffffffffffffffffffffffffffffffffff163373ffffffffffffffffffffffffffffffffffffffff1614610470576040517f08c379a00000000000000000000000000000000000000000000000000000000081526004016100f890611202565b610478610c1b565b61048484860186610d40565b60a083015273ffffffffffffffffffffffffffffffffffffffff168082526040517f70a082310000000000000000000000000000000000000000000000000000000081526370a08231906104dc903090600401611005565b60206040518083038186803b1580156104f457600080fd5b505afa158015610508573d6000803e3d6000fd5b505050506040513d601f19601f8201168201806040525061052c9190810190610fd1565b602082015260005b8160a001515181101561076957816020015182608001511061055557610769565b6105948260a00151828151811061056857fe5b60200260200101516020015161058f8460800151856020015161096f90919063ffffffff16565b6109a6565b6040830181905260a083015180516105df929190849081106105b257fe5b6020026020010151602001518460a0015184815181106105ce57fe5b6020026020010151604001516109be565b606083015260a0820151805160009130917f216b5fc10000000000000000000000000000000000000000000000000000000091908590811061061d57fe5b6020026020010151600001518b86600001518f886040015189606001518a60a001518a8151811061064a57fe5b60200260200101516060015160405160240161066c9796959493929190611026565b604080517fffffffffffffffffffffffffffffffffffffffffffffffffffffffffffffffe08184030181529181526020820180517bffffffffffffffffffffffffffffffffffffffffffffffffffffffff167fffffffff000000000000000000000000000000000000000000000000000000009094169390931790925290516106f59190610fe9565b6000604051808303816000865af19150503d8060008114610732576040519150601f19603f3d011682016040523d82523d6000602084013e610737565b606091505b505090508015610760576040830151608084015161075a9163ffffffff6109e816565b60808401525b50600101610534565b507fdc1600f3000000000000000000000000000000000000000000000000000000009250506000610798610a04565b905073ffffffffffffffffffffffffffffffffffffffff81161561086357600061a0aa5a840361374a01816107c957fe5b0490508173ffffffffffffffffffffffffffffffffffffffff1663079d229f6107f0610a17565b836040518363ffffffff1660e01b815260040161080e929190611148565b602060405180830381600087803b15801561082857600080fd5b505af115801561083c573d6000803e3d6000fd5b505050506040513d601f19601f820116820180604052506108609190810190610fd1565b50505b50509695505050505050565b6040516060907fa9059cbb00000000000000000000000000000000000000000000000000000000906108a79085908590602401611148565b604080517fffffffffffffffffffffffffffffffffffffffffffffffffffffffffffffffe08184030181529190526020810180517bffffffffffffffffffffffffffffffffffffffffffffffffffffffff167fffffffff000000000000000000000000000000000000000000000000000000009093169290921790915290506109308482610a2c565b50505050565b6000816020018351101561095c5761095c6109576005855185602001610ae8565b610b8d565b5060208183018101519101905b92915050565b6000828211156109885761098861095760028585610b95565b50900390565b738ed95d1746bf1e4dab58d8ed4724f1ef95b20db090565b60008183106109b557816109b7565b825b9392505050565b60006109e0836109d4868563ffffffff610bb416565b9063ffffffff610be516565b949350505050565b6000828201838110156109b7576109b761095760008686610b95565b6eb3f879cb30fe243b4dfee438691c0490565b70d3b08566be75a6db803c03c85c0c1c5b9690565b600060608373ffffffffffffffffffffffffffffffffffffffff1683604051610a559190610fe9565b6000604051808303816000865af19150503d8060008114610a92576040519150601f19603f3d011682016040523d82523d6000602084013e610a97565b606091505b50915091508115610adb578051610aaf575050610ae4565b805160201415610adb576000610ac6826000610c0f565b90508060011415610ad957505050610ae4565b505b61093081610b8d565b5050565b6060632800659560e01b848484604051602401610b07939291906111bd565b604080517fffffffffffffffffffffffffffffffffffffffffffffffffffffffffffffffe08184030181529190526020810180517bffffffffffffffffffffffffffffffffffffffffffffffffffffffff167fffffffff000000000000000000000000000000000000000000000000000000009093169290921790915290509392505050565b805160208201fd5b606063e946c1bb60e01b848484604051602401610b079392919061119b565b600082610bc357506000610969565b82820282848281610bd057fe5b04146109b7576109b761095760018686610b95565b600081610bfb57610bfb61095760038585610b95565b6000828481610c0657fe5b04949350505050565b60006109b78383610936565b6040518060c00160405280600073ffffffffffffffffffffffffffffffffffffffff16815260200160008152602001600081526020016000815260200160008152602001606081525090565b8035610969816112b2565b60008083601f840112610c83578182fd5b50813567ffffffffffffffff811115610c9a578182fd5b602083019150836020828501011115610cb257600080fd5b9250929050565b600082601f830112610cc9578081fd5b813567ffffffffffffffff811115610cdf578182fd5b610d1060207fffffffffffffffffffffffffffffffffffffffffffffffffffffffffffffffe0601f8401160161125f565b9150808252836020828501011115610d2757600080fd5b8060208401602084013760009082016020015292915050565b60008060408385031215610d52578182fd5b8235610d5d816112b2565b915060208381013567ffffffffffffffff80821115610d7a578384fd5b81860187601f820112610d8b578485fd5b8035925081831115610d9b578485fd5b610da8848585020161125f565b83815284810190828601875b86811015610e54578135850160807fffffffffffffffffffffffffffffffffffffffffffffffffffffffffffffffe0828f03011215610df157898afd5b610dfb608061125f565b610e078e8b8401610c67565b815260408201358a82015260608201356040820152608082013588811115610e2d578b8cfd5b610e3b8f8c83860101610cb9565b6060830152508552509287019290870190600101610db4565b50979a909950975050505050505050565b60008060008060008060008060e0898b031215610e80578384fd5b8835610e8b816112b2565b97506020890135610e9b816112b2565b96506040890135610eab816112b2565b95506060890135610ebb816112b2565b94506080890135935060a0890135925060c089013567ffffffffffffffff811115610ee4578283fd5b610ef08b828c01610c72565b999c989b5096995094979396929594505050565b60008060008060008060a08789031215610f1c578182fd5b8635610f27816112b2565b95506020870135610f37816112b2565b94506040870135610f47816112b2565b935060608701359250608087013567ffffffffffffffff811115610f69578283fd5b610f7589828a01610c72565b979a9699509497509295939492505050565b600080600060408486031215610f9b578283fd5b83359250602084013567ffffffffffffffff811115610fb8578283fd5b610fc486828701610c72565b9497909650939450505050565b600060208284031215610fe2578081fd5b5051919050565b60008251610ffb818460208701611286565b9190910192915050565b73ffffffffffffffffffffffffffffffffffffffff91909116815260200190565b600073ffffffffffffffffffffffffffffffffffffffff808a168352808916602084015280881660408401528087166060840152508460808301528360a083015260e060c083015282518060e08401526101006110898282860160208801611286565b807fffffffffffffffffffffffffffffffffffffffffffffffffffffffffffffffe0601f8401168501019250505098975050505050505050565b600073ffffffffffffffffffffffffffffffffffffffff8089168352808816602084015280871660408401525084606083015260a060808301528260a0830152828460c084013781830160c090810191909152601f9092017fffffffffffffffffffffffffffffffffffffffffffffffffffffffffffffffe016010195945050505050565b73ffffffffffffffffffffffffffffffffffffffff929092168252602082015260400190565b7fffffffff0000000000000000000000000000000000000000000000000000000091909116815260200190565b60608101600485106111a957fe5b938152602081019290925260409091015290565b60608101600885106111a957fe5b6020808252601c908201527f446578466f727761726465724272696467652f4f4e4c595f53454c4600000000604082015260600190565b60208082526028908201527f446578466f727761726465724272696467652f53454e4445525f4e4f545f415560408201527f54484f52495a4544000000000000000000000000000000000000000000000000606082015260800190565b60405181810167ffffffffffffffff8111828210171561127e57600080fd5b604052919050565b60005b838110156112a1578181015183820152602001611289565b838111156109305750506000910152565b73ffffffffffffffffffffffffffffffffffffffff811681146112d457600080fd5b5056fea365627a7a7231582038c6bbbafbda5aef35f40d19652c6e083529a998b1f17fba8ab5094a36eb4b536c6578706572696d656e74616cf564736f6c63430005110040",
                "opcodes": "PUSH1 0x80 PUSH1 0x40 MSTORE CALLVALUE DUP1 ISZERO PUSH2 0x10 JUMPI PUSH1 0x0 DUP1 REVERT JUMPDEST POP PUSH2 0x131A DUP1 PUSH2 0x20 PUSH1 0x0 CODECOPY PUSH1 0x0 RETURN INVALID PUSH1 0x80 PUSH1 0x40 MSTORE CALLVALUE DUP1 ISZERO PUSH2 0x10 JUMPI PUSH1 0x0 DUP1 REVERT JUMPDEST POP PUSH1 0x4 CALLDATASIZE LT PUSH2 0x41 JUMPI PUSH1 0x0 CALLDATALOAD PUSH1 0xE0 SHR DUP1 PUSH4 0x1626BA7E EQ PUSH2 0x46 JUMPI DUP1 PUSH4 0x216B5FC1 EQ PUSH2 0x6F JUMPI DUP1 PUSH4 0xC2DF82E6 EQ PUSH2 0x84 JUMPI JUMPDEST PUSH1 0x0 DUP1 REVERT JUMPDEST PUSH2 0x59 PUSH2 0x54 CALLDATASIZE PUSH1 0x4 PUSH2 0xF87 JUMP JUMPDEST PUSH2 0x97 JUMP JUMPDEST PUSH1 0x40 MLOAD PUSH2 0x66 SWAP2 SWAP1 PUSH2 0x116E JUMP JUMPDEST PUSH1 0x40 MLOAD DUP1 SWAP2 SUB SWAP1 RETURN JUMPDEST PUSH2 0x82 PUSH2 0x7D CALLDATASIZE PUSH1 0x4 PUSH2 0xE65 JUMP JUMPDEST PUSH2 0xBF JUMP JUMPDEST STOP JUMPDEST PUSH2 0x59 PUSH2 0x92 CALLDATASIZE PUSH1 0x4 PUSH2 0xF04 JUMP JUMPDEST PUSH2 0x3FE JUMP JUMPDEST PUSH32 0xB067138100000000000000000000000000000000000000000000000000000000 SWAP4 SWAP3 POP POP POP JUMP JUMPDEST CALLER ADDRESS EQ PUSH2 0x101 JUMPI PUSH1 0x40 MLOAD PUSH32 0x8C379A000000000000000000000000000000000000000000000000000000000 DUP2 MSTORE PUSH1 0x4 ADD PUSH2 0xF8 SWAP1 PUSH2 0x11CB JUMP JUMPDEST PUSH1 0x40 MLOAD DUP1 SWAP2 SUB SWAP1 REVERT JUMPDEST PUSH20 0xFFFFFFFFFFFFFFFFFFFFFFFFFFFFFFFFFFFFFFFF DUP9 AND ADDRESS EQ ISZERO PUSH2 0x124 JUMPI PUSH1 0x0 DUP1 REVERT JUMPDEST PUSH1 0x40 MLOAD PUSH32 0x70A0823100000000000000000000000000000000000000000000000000000000 DUP2 MSTORE PUSH1 0x0 SWAP1 PUSH20 0xFFFFFFFFFFFFFFFFFFFFFFFFFFFFFFFFFFFFFFFF DUP8 AND SWAP1 PUSH4 0x70A08231 SWAP1 PUSH2 0x179 SWAP1 DUP12 SWAP1 PUSH1 0x4 ADD PUSH2 0x1005 JUMP JUMPDEST PUSH1 0x20 PUSH1 0x40 MLOAD DUP1 DUP4 SUB DUP2 DUP7 DUP1 EXTCODESIZE ISZERO DUP1 ISZERO PUSH2 0x191 JUMPI PUSH1 0x0 DUP1 REVERT JUMPDEST POP GAS STATICCALL ISZERO DUP1 ISZERO PUSH2 0x1A5 JUMPI RETURNDATASIZE PUSH1 0x0 DUP1 RETURNDATACOPY RETURNDATASIZE PUSH1 0x0 REVERT JUMPDEST POP POP POP POP PUSH1 0x40 MLOAD RETURNDATASIZE PUSH1 0x1F NOT PUSH1 0x1F DUP3 ADD AND DUP3 ADD DUP1 PUSH1 0x40 MSTORE POP PUSH2 0x1C9 SWAP2 SWAP1 DUP2 ADD SWAP1 PUSH2 0xFD1 JUMP JUMPDEST SWAP1 POP PUSH2 0x1D6 DUP8 DUP11 DUP8 PUSH2 0x86F JUMP JUMPDEST PUSH1 0x40 MLOAD PUSH1 0x0 SWAP1 PUSH1 0x60 SWAP1 PUSH20 0xFFFFFFFFFFFFFFFFFFFFFFFFFFFFFFFFFFFFFFFF DUP13 AND SWAP1 PUSH32 0xC2DF82E600000000000000000000000000000000000000000000000000000000 SWAP1 PUSH2 0x231 SWAP1 DUP12 SWAP1 DUP16 SWAP1 DUP16 SWAP1 DUP13 SWAP1 DUP13 SWAP1 DUP13 SWAP1 PUSH1 0x24 ADD PUSH2 0x10C3 JUMP JUMPDEST PUSH1 0x40 DUP1 MLOAD PUSH32 0xFFFFFFFFFFFFFFFFFFFFFFFFFFFFFFFFFFFFFFFFFFFFFFFFFFFFFFFFFFFFFFE0 DUP2 DUP5 SUB ADD DUP2 MSTORE SWAP2 DUP2 MSTORE PUSH1 0x20 DUP3 ADD DUP1 MLOAD PUSH28 0xFFFFFFFFFFFFFFFFFFFFFFFFFFFFFFFFFFFFFFFFFFFFFFFFFFFFFFFF AND PUSH32 0xFFFFFFFF00000000000000000000000000000000000000000000000000000000 SWAP1 SWAP5 AND SWAP4 SWAP1 SWAP4 OR SWAP1 SWAP3 MSTORE SWAP1 MLOAD PUSH2 0x2BA SWAP2 SWAP1 PUSH2 0xFE9 JUMP JUMPDEST PUSH1 0x0 PUSH1 0x40 MLOAD DUP1 DUP4 SUB DUP2 PUSH1 0x0 DUP7 GAS CALL SWAP2 POP POP RETURNDATASIZE DUP1 PUSH1 0x0 DUP2 EQ PUSH2 0x2F7 JUMPI PUSH1 0x40 MLOAD SWAP2 POP PUSH1 0x1F NOT PUSH1 0x3F RETURNDATASIZE ADD AND DUP3 ADD PUSH1 0x40 MSTORE RETURNDATASIZE DUP3 MSTORE RETURNDATASIZE PUSH1 0x0 PUSH1 0x20 DUP5 ADD RETURNDATACOPY PUSH2 0x2FC JUMP JUMPDEST PUSH1 0x60 SWAP2 POP JUMPDEST POP SWAP2 POP SWAP2 POP DUP2 DUP1 ISZERO PUSH2 0x30F JUMPI POP DUP1 MLOAD PUSH1 0x20 EQ JUMPDEST DUP1 ISZERO PUSH2 0x344 JUMPI POP PUSH32 0xDC1600F300000000000000000000000000000000000000000000000000000000 PUSH2 0x342 DUP3 PUSH1 0x0 PUSH2 0x936 JUMP JUMPDEST EQ JUMPDEST DUP1 ISZERO PUSH2 0x3E8 JUMPI POP DUP6 PUSH2 0x3E5 DUP5 DUP11 PUSH20 0xFFFFFFFFFFFFFFFFFFFFFFFFFFFFFFFFFFFFFFFF AND PUSH4 0x70A08231 DUP15 PUSH1 0x40 MLOAD DUP3 PUSH4 0xFFFFFFFF AND PUSH1 0xE0 SHL DUP2 MSTORE PUSH1 0x4 ADD PUSH2 0x389 SWAP2 SWAP1 PUSH2 0x1005 JUMP JUMPDEST PUSH1 0x20 PUSH1 0x40 MLOAD DUP1 DUP4 SUB DUP2 DUP7 DUP1 EXTCODESIZE ISZERO DUP1 ISZERO PUSH2 0x3A1 JUMPI PUSH1 0x0 DUP1 REVERT JUMPDEST POP GAS STATICCALL ISZERO DUP1 ISZERO PUSH2 0x3B5 JUMPI RETURNDATASIZE PUSH1 0x0 DUP1 RETURNDATACOPY RETURNDATASIZE PUSH1 0x0 REVERT JUMPDEST POP POP POP POP PUSH1 0x40 MLOAD RETURNDATASIZE PUSH1 0x1F NOT PUSH1 0x1F DUP3 ADD AND DUP3 ADD DUP1 PUSH1 0x40 MSTORE POP PUSH2 0x3D9 SWAP2 SWAP1 DUP2 ADD SWAP1 PUSH2 0xFD1 JUMP JUMPDEST SWAP1 PUSH4 0xFFFFFFFF PUSH2 0x96F AND JUMP JUMPDEST LT ISZERO JUMPDEST PUSH2 0x3F1 JUMPI PUSH1 0x0 DUP1 REVERT JUMPDEST POP POP POP POP POP POP POP POP POP POP POP JUMP JUMPDEST PUSH1 0x0 DUP1 GAS SWAP1 POP PUSH2 0x40C PUSH2 0x98E JUMP JUMPDEST PUSH20 0xFFFFFFFFFFFFFFFFFFFFFFFFFFFFFFFFFFFFFFFF AND CALLER PUSH20 0xFFFFFFFFFFFFFFFFFFFFFFFFFFFFFFFFFFFFFFFF AND EQ PUSH2 0x470 JUMPI PUSH1 0x40 MLOAD PUSH32 0x8C379A000000000000000000000000000000000000000000000000000000000 DUP2 MSTORE PUSH1 0x4 ADD PUSH2 0xF8 SWAP1 PUSH2 0x1202 JUMP JUMPDEST PUSH2 0x478 PUSH2 0xC1B JUMP JUMPDEST PUSH2 0x484 DUP5 DUP7 ADD DUP7 PUSH2 0xD40 JUMP JUMPDEST PUSH1 0xA0 DUP4 ADD MSTORE PUSH20 0xFFFFFFFFFFFFFFFFFFFFFFFFFFFFFFFFFFFFFFFF AND DUP1 DUP3 MSTORE PUSH1 0x40 MLOAD PUSH32 0x70A0823100000000000000000000000000000000000000000000000000000000 DUP2 MSTORE PUSH4 0x70A08231 SWAP1 PUSH2 0x4DC SWAP1 ADDRESS SWAP1 PUSH1 0x4 ADD PUSH2 0x1005 JUMP JUMPDEST PUSH1 0x20 PUSH1 0x40 MLOAD DUP1 DUP4 SUB DUP2 DUP7 DUP1 EXTCODESIZE ISZERO DUP1 ISZERO PUSH2 0x4F4 JUMPI PUSH1 0x0 DUP1 REVERT JUMPDEST POP GAS STATICCALL ISZERO DUP1 ISZERO PUSH2 0x508 JUMPI RETURNDATASIZE PUSH1 0x0 DUP1 RETURNDATACOPY RETURNDATASIZE PUSH1 0x0 REVERT JUMPDEST POP POP POP POP PUSH1 0x40 MLOAD RETURNDATASIZE PUSH1 0x1F NOT PUSH1 0x1F DUP3 ADD AND DUP3 ADD DUP1 PUSH1 0x40 MSTORE POP PUSH2 0x52C SWAP2 SWAP1 DUP2 ADD SWAP1 PUSH2 0xFD1 JUMP JUMPDEST PUSH1 0x20 DUP3 ADD MSTORE PUSH1 0x0 JUMPDEST DUP2 PUSH1 0xA0 ADD MLOAD MLOAD DUP2 LT ISZERO PUSH2 0x769 JUMPI DUP2 PUSH1 0x20 ADD MLOAD DUP3 PUSH1 0x80 ADD MLOAD LT PUSH2 0x555 JUMPI PUSH2 0x769 JUMP JUMPDEST PUSH2 0x594 DUP3 PUSH1 0xA0 ADD MLOAD DUP3 DUP2 MLOAD DUP2 LT PUSH2 0x568 JUMPI INVALID JUMPDEST PUSH1 0x20 MUL PUSH1 0x20 ADD ADD MLOAD PUSH1 0x20 ADD MLOAD PUSH2 0x58F DUP5 PUSH1 0x80 ADD MLOAD DUP6 PUSH1 0x20 ADD MLOAD PUSH2 0x96F SWAP1 SWAP2 SWAP1 PUSH4 0xFFFFFFFF AND JUMP JUMPDEST PUSH2 0x9A6 JUMP JUMPDEST PUSH1 0x40 DUP4 ADD DUP2 SWAP1 MSTORE PUSH1 0xA0 DUP4 ADD MLOAD DUP1 MLOAD PUSH2 0x5DF SWAP3 SWAP2 SWAP1 DUP5 SWAP1 DUP2 LT PUSH2 0x5B2 JUMPI INVALID JUMPDEST PUSH1 0x20 MUL PUSH1 0x20 ADD ADD MLOAD PUSH1 0x20 ADD MLOAD DUP5 PUSH1 0xA0 ADD MLOAD DUP5 DUP2 MLOAD DUP2 LT PUSH2 0x5CE JUMPI INVALID JUMPDEST PUSH1 0x20 MUL PUSH1 0x20 ADD ADD MLOAD PUSH1 0x40 ADD MLOAD PUSH2 0x9BE JUMP JUMPDEST PUSH1 0x60 DUP4 ADD MSTORE PUSH1 0xA0 DUP3 ADD MLOAD DUP1 MLOAD PUSH1 0x0 SWAP2 ADDRESS SWAP2 PUSH32 0x216B5FC100000000000000000000000000000000000000000000000000000000 SWAP2 SWAP1 DUP6 SWAP1 DUP2 LT PUSH2 0x61D JUMPI INVALID JUMPDEST PUSH1 0x20 MUL PUSH1 0x20 ADD ADD MLOAD PUSH1 0x0 ADD MLOAD DUP12 DUP7 PUSH1 0x0 ADD MLOAD DUP16 DUP9 PUSH1 0x40 ADD MLOAD DUP10 PUSH1 0x60 ADD MLOAD DUP11 PUSH1 0xA0 ADD MLOAD DUP11 DUP2 MLOAD DUP2 LT PUSH2 0x64A JUMPI INVALID JUMPDEST PUSH1 0x20 MUL PUSH1 0x20 ADD ADD MLOAD PUSH1 0x60 ADD MLOAD PUSH1 0x40 MLOAD PUSH1 0x24 ADD PUSH2 0x66C SWAP8 SWAP7 SWAP6 SWAP5 SWAP4 SWAP3 SWAP2 SWAP1 PUSH2 0x1026 JUMP JUMPDEST PUSH1 0x40 DUP1 MLOAD PUSH32 0xFFFFFFFFFFFFFFFFFFFFFFFFFFFFFFFFFFFFFFFFFFFFFFFFFFFFFFFFFFFFFFE0 DUP2 DUP5 SUB ADD DUP2 MSTORE SWAP2 DUP2 MSTORE PUSH1 0x20 DUP3 ADD DUP1 MLOAD PUSH28 0xFFFFFFFFFFFFFFFFFFFFFFFFFFFFFFFFFFFFFFFFFFFFFFFFFFFFFFFF AND PUSH32 0xFFFFFFFF00000000000000000000000000000000000000000000000000000000 SWAP1 SWAP5 AND SWAP4 SWAP1 SWAP4 OR SWAP1 SWAP3 MSTORE SWAP1 MLOAD PUSH2 0x6F5 SWAP2 SWAP1 PUSH2 0xFE9 JUMP JUMPDEST PUSH1 0x0 PUSH1 0x40 MLOAD DUP1 DUP4 SUB DUP2 PUSH1 0x0 DUP7 GAS CALL SWAP2 POP POP RETURNDATASIZE DUP1 PUSH1 0x0 DUP2 EQ PUSH2 0x732 JUMPI PUSH1 0x40 MLOAD SWAP2 POP PUSH1 0x1F NOT PUSH1 0x3F RETURNDATASIZE ADD AND DUP3 ADD PUSH1 0x40 MSTORE RETURNDATASIZE DUP3 MSTORE RETURNDATASIZE PUSH1 0x0 PUSH1 0x20 DUP5 ADD RETURNDATACOPY PUSH2 0x737 JUMP JUMPDEST PUSH1 0x60 SWAP2 POP JUMPDEST POP POP SWAP1 POP DUP1 ISZERO PUSH2 0x760 JUMPI PUSH1 0x40 DUP4 ADD MLOAD PUSH1 0x80 DUP5 ADD MLOAD PUSH2 0x75A SWAP2 PUSH4 0xFFFFFFFF PUSH2 0x9E8 AND JUMP JUMPDEST PUSH1 0x80 DUP5 ADD MSTORE JUMPDEST POP PUSH1 0x1 ADD PUSH2 0x534 JUMP JUMPDEST POP PUSH32 0xDC1600F300000000000000000000000000000000000000000000000000000000 SWAP3 POP POP PUSH1 0x0 PUSH2 0x798 PUSH2 0xA04 JUMP JUMPDEST SWAP1 POP PUSH20 0xFFFFFFFFFFFFFFFFFFFFFFFFFFFFFFFFFFFFFFFF DUP2 AND ISZERO PUSH2 0x863 JUMPI PUSH1 0x0 PUSH2 0xA0AA GAS DUP5 SUB PUSH2 0x374A ADD DUP2 PUSH2 0x7C9 JUMPI INVALID JUMPDEST DIV SWAP1 POP DUP2 PUSH20 0xFFFFFFFFFFFFFFFFFFFFFFFFFFFFFFFFFFFFFFFF AND PUSH4 0x79D229F PUSH2 0x7F0 PUSH2 0xA17 JUMP JUMPDEST DUP4 PUSH1 0x40 MLOAD DUP4 PUSH4 0xFFFFFFFF AND PUSH1 0xE0 SHL DUP2 MSTORE PUSH1 0x4 ADD PUSH2 0x80E SWAP3 SWAP2 SWAP1 PUSH2 0x1148 JUMP JUMPDEST PUSH1 0x20 PUSH1 0x40 MLOAD DUP1 DUP4 SUB DUP2 PUSH1 0x0 DUP8 DUP1 EXTCODESIZE ISZERO DUP1 ISZERO PUSH2 0x828 JUMPI PUSH1 0x0 DUP1 REVERT JUMPDEST POP GAS CALL ISZERO DUP1 ISZERO PUSH2 0x83C JUMPI RETURNDATASIZE PUSH1 0x0 DUP1 RETURNDATACOPY RETURNDATASIZE PUSH1 0x0 REVERT JUMPDEST POP POP POP POP PUSH1 0x40 MLOAD RETURNDATASIZE PUSH1 0x1F NOT PUSH1 0x1F DUP3 ADD AND DUP3 ADD DUP1 PUSH1 0x40 MSTORE POP PUSH2 0x860 SWAP2 SWAP1 DUP2 ADD SWAP1 PUSH2 0xFD1 JUMP JUMPDEST POP POP JUMPDEST POP POP SWAP7 SWAP6 POP POP POP POP POP POP JUMP JUMPDEST PUSH1 0x40 MLOAD PUSH1 0x60 SWAP1 PUSH32 0xA9059CBB00000000000000000000000000000000000000000000000000000000 SWAP1 PUSH2 0x8A7 SWAP1 DUP6 SWAP1 DUP6 SWAP1 PUSH1 0x24 ADD PUSH2 0x1148 JUMP JUMPDEST PUSH1 0x40 DUP1 MLOAD PUSH32 0xFFFFFFFFFFFFFFFFFFFFFFFFFFFFFFFFFFFFFFFFFFFFFFFFFFFFFFFFFFFFFFE0 DUP2 DUP5 SUB ADD DUP2 MSTORE SWAP2 SWAP1 MSTORE PUSH1 0x20 DUP2 ADD DUP1 MLOAD PUSH28 0xFFFFFFFFFFFFFFFFFFFFFFFFFFFFFFFFFFFFFFFFFFFFFFFFFFFFFFFF AND PUSH32 0xFFFFFFFF00000000000000000000000000000000000000000000000000000000 SWAP1 SWAP4 AND SWAP3 SWAP1 SWAP3 OR SWAP1 SWAP2 MSTORE SWAP1 POP PUSH2 0x930 DUP5 DUP3 PUSH2 0xA2C JUMP JUMPDEST POP POP POP POP JUMP JUMPDEST PUSH1 0x0 DUP2 PUSH1 0x20 ADD DUP4 MLOAD LT ISZERO PUSH2 0x95C JUMPI PUSH2 0x95C PUSH2 0x957 PUSH1 0x5 DUP6 MLOAD DUP6 PUSH1 0x20 ADD PUSH2 0xAE8 JUMP JUMPDEST PUSH2 0xB8D JUMP JUMPDEST POP PUSH1 0x20 DUP2 DUP4 ADD DUP2 ADD MLOAD SWAP2 ADD SWAP1 JUMPDEST SWAP3 SWAP2 POP POP JUMP JUMPDEST PUSH1 0x0 DUP3 DUP3 GT ISZERO PUSH2 0x988 JUMPI PUSH2 0x988 PUSH2 0x957 PUSH1 0x2 DUP6 DUP6 PUSH2 0xB95 JUMP JUMPDEST POP SWAP1 SUB SWAP1 JUMP JUMPDEST PUSH20 0x8ED95D1746BF1E4DAB58D8ED4724F1EF95B20DB0 SWAP1 JUMP JUMPDEST PUSH1 0x0 DUP2 DUP4 LT PUSH2 0x9B5 JUMPI DUP2 PUSH2 0x9B7 JUMP JUMPDEST DUP3 JUMPDEST SWAP4 SWAP3 POP POP POP JUMP JUMPDEST PUSH1 0x0 PUSH2 0x9E0 DUP4 PUSH2 0x9D4 DUP7 DUP6 PUSH4 0xFFFFFFFF PUSH2 0xBB4 AND JUMP JUMPDEST SWAP1 PUSH4 0xFFFFFFFF PUSH2 0xBE5 AND JUMP JUMPDEST SWAP5 SWAP4 POP POP POP POP JUMP JUMPDEST PUSH1 0x0 DUP3 DUP3 ADD DUP4 DUP2 LT ISZERO PUSH2 0x9B7 JUMPI PUSH2 0x9B7 PUSH2 0x957 PUSH1 0x0 DUP7 DUP7 PUSH2 0xB95 JUMP JUMPDEST PUSH15 0xB3F879CB30FE243B4DFEE438691C04 SWAP1 JUMP JUMPDEST PUSH17 0xD3B08566BE75A6DB803C03C85C0C1C5B96 SWAP1 JUMP JUMPDEST PUSH1 0x0 PUSH1 0x60 DUP4 PUSH20 0xFFFFFFFFFFFFFFFFFFFFFFFFFFFFFFFFFFFFFFFF AND DUP4 PUSH1 0x40 MLOAD PUSH2 0xA55 SWAP2 SWAP1 PUSH2 0xFE9 JUMP JUMPDEST PUSH1 0x0 PUSH1 0x40 MLOAD DUP1 DUP4 SUB DUP2 PUSH1 0x0 DUP7 GAS CALL SWAP2 POP POP RETURNDATASIZE DUP1 PUSH1 0x0 DUP2 EQ PUSH2 0xA92 JUMPI PUSH1 0x40 MLOAD SWAP2 POP PUSH1 0x1F NOT PUSH1 0x3F RETURNDATASIZE ADD AND DUP3 ADD PUSH1 0x40 MSTORE RETURNDATASIZE DUP3 MSTORE RETURNDATASIZE PUSH1 0x0 PUSH1 0x20 DUP5 ADD RETURNDATACOPY PUSH2 0xA97 JUMP JUMPDEST PUSH1 0x60 SWAP2 POP JUMPDEST POP SWAP2 POP SWAP2 POP DUP2 ISZERO PUSH2 0xADB JUMPI DUP1 MLOAD PUSH2 0xAAF JUMPI POP POP PUSH2 0xAE4 JUMP JUMPDEST DUP1 MLOAD PUSH1 0x20 EQ ISZERO PUSH2 0xADB JUMPI PUSH1 0x0 PUSH2 0xAC6 DUP3 PUSH1 0x0 PUSH2 0xC0F JUMP JUMPDEST SWAP1 POP DUP1 PUSH1 0x1 EQ ISZERO PUSH2 0xAD9 JUMPI POP POP POP PUSH2 0xAE4 JUMP JUMPDEST POP JUMPDEST PUSH2 0x930 DUP2 PUSH2 0xB8D JUMP JUMPDEST POP POP JUMP JUMPDEST PUSH1 0x60 PUSH4 0x28006595 PUSH1 0xE0 SHL DUP5 DUP5 DUP5 PUSH1 0x40 MLOAD PUSH1 0x24 ADD PUSH2 0xB07 SWAP4 SWAP3 SWAP2 SWAP1 PUSH2 0x11BD JUMP JUMPDEST PUSH1 0x40 DUP1 MLOAD PUSH32 0xFFFFFFFFFFFFFFFFFFFFFFFFFFFFFFFFFFFFFFFFFFFFFFFFFFFFFFFFFFFFFFE0 DUP2 DUP5 SUB ADD DUP2 MSTORE SWAP2 SWAP1 MSTORE PUSH1 0x20 DUP2 ADD DUP1 MLOAD PUSH28 0xFFFFFFFFFFFFFFFFFFFFFFFFFFFFFFFFFFFFFFFFFFFFFFFFFFFFFFFF AND PUSH32 0xFFFFFFFF00000000000000000000000000000000000000000000000000000000 SWAP1 SWAP4 AND SWAP3 SWAP1 SWAP3 OR SWAP1 SWAP2 MSTORE SWAP1 POP SWAP4 SWAP3 POP POP POP JUMP JUMPDEST DUP1 MLOAD PUSH1 0x20 DUP3 ADD REVERT JUMPDEST PUSH1 0x60 PUSH4 0xE946C1BB PUSH1 0xE0 SHL DUP5 DUP5 DUP5 PUSH1 0x40 MLOAD PUSH1 0x24 ADD PUSH2 0xB07 SWAP4 SWAP3 SWAP2 SWAP1 PUSH2 0x119B JUMP JUMPDEST PUSH1 0x0 DUP3 PUSH2 0xBC3 JUMPI POP PUSH1 0x0 PUSH2 0x969 JUMP JUMPDEST DUP3 DUP3 MUL DUP3 DUP5 DUP3 DUP2 PUSH2 0xBD0 JUMPI INVALID JUMPDEST DIV EQ PUSH2 0x9B7 JUMPI PUSH2 0x9B7 PUSH2 0x957 PUSH1 0x1 DUP7 DUP7 PUSH2 0xB95 JUMP JUMPDEST PUSH1 0x0 DUP2 PUSH2 0xBFB JUMPI PUSH2 0xBFB PUSH2 0x957 PUSH1 0x3 DUP6 DUP6 PUSH2 0xB95 JUMP JUMPDEST PUSH1 0x0 DUP3 DUP5 DUP2 PUSH2 0xC06 JUMPI INVALID JUMPDEST DIV SWAP5 SWAP4 POP POP POP POP JUMP JUMPDEST PUSH1 0x0 PUSH2 0x9B7 DUP4 DUP4 PUSH2 0x936 JUMP JUMPDEST PUSH1 0x40 MLOAD DUP1 PUSH1 0xC0 ADD PUSH1 0x40 MSTORE DUP1 PUSH1 0x0 PUSH20 0xFFFFFFFFFFFFFFFFFFFFFFFFFFFFFFFFFFFFFFFF AND DUP2 MSTORE PUSH1 0x20 ADD PUSH1 0x0 DUP2 MSTORE PUSH1 0x20 ADD PUSH1 0x0 DUP2 MSTORE PUSH1 0x20 ADD PUSH1 0x0 DUP2 MSTORE PUSH1 0x20 ADD PUSH1 0x0 DUP2 MSTORE PUSH1 0x20 ADD PUSH1 0x60 DUP2 MSTORE POP SWAP1 JUMP JUMPDEST DUP1 CALLDATALOAD PUSH2 0x969 DUP2 PUSH2 0x12B2 JUMP JUMPDEST PUSH1 0x0 DUP1 DUP4 PUSH1 0x1F DUP5 ADD SLT PUSH2 0xC83 JUMPI DUP2 DUP3 REVERT JUMPDEST POP DUP2 CALLDATALOAD PUSH8 0xFFFFFFFFFFFFFFFF DUP2 GT ISZERO PUSH2 0xC9A JUMPI DUP2 DUP3 REVERT JUMPDEST PUSH1 0x20 DUP4 ADD SWAP2 POP DUP4 PUSH1 0x20 DUP3 DUP6 ADD ADD GT ISZERO PUSH2 0xCB2 JUMPI PUSH1 0x0 DUP1 REVERT JUMPDEST SWAP3 POP SWAP3 SWAP1 POP JUMP JUMPDEST PUSH1 0x0 DUP3 PUSH1 0x1F DUP4 ADD SLT PUSH2 0xCC9 JUMPI DUP1 DUP2 REVERT JUMPDEST DUP2 CALLDATALOAD PUSH8 0xFFFFFFFFFFFFFFFF DUP2 GT ISZERO PUSH2 0xCDF JUMPI DUP2 DUP3 REVERT JUMPDEST PUSH2 0xD10 PUSH1 0x20 PUSH32 0xFFFFFFFFFFFFFFFFFFFFFFFFFFFFFFFFFFFFFFFFFFFFFFFFFFFFFFFFFFFFFFE0 PUSH1 0x1F DUP5 ADD AND ADD PUSH2 0x125F JUMP JUMPDEST SWAP2 POP DUP1 DUP3 MSTORE DUP4 PUSH1 0x20 DUP3 DUP6 ADD ADD GT ISZERO PUSH2 0xD27 JUMPI PUSH1 0x0 DUP1 REVERT JUMPDEST DUP1 PUSH1 0x20 DUP5 ADD PUSH1 0x20 DUP5 ADD CALLDATACOPY PUSH1 0x0 SWAP1 DUP3 ADD PUSH1 0x20 ADD MSTORE SWAP3 SWAP2 POP POP JUMP JUMPDEST PUSH1 0x0 DUP1 PUSH1 0x40 DUP4 DUP6 SUB SLT ISZERO PUSH2 0xD52 JUMPI DUP2 DUP3 REVERT JUMPDEST DUP3 CALLDATALOAD PUSH2 0xD5D DUP2 PUSH2 0x12B2 JUMP JUMPDEST SWAP2 POP PUSH1 0x20 DUP4 DUP2 ADD CALLDATALOAD PUSH8 0xFFFFFFFFFFFFFFFF DUP1 DUP3 GT ISZERO PUSH2 0xD7A JUMPI DUP4 DUP5 REVERT JUMPDEST DUP2 DUP7 ADD DUP8 PUSH1 0x1F DUP3 ADD SLT PUSH2 0xD8B JUMPI DUP5 DUP6 REVERT JUMPDEST DUP1 CALLDATALOAD SWAP3 POP DUP2 DUP4 GT ISZERO PUSH2 0xD9B JUMPI DUP5 DUP6 REVERT JUMPDEST PUSH2 0xDA8 DUP5 DUP6 DUP6 MUL ADD PUSH2 0x125F JUMP JUMPDEST DUP4 DUP2 MSTORE DUP5 DUP2 ADD SWAP1 DUP3 DUP7 ADD DUP8 JUMPDEST DUP7 DUP2 LT ISZERO PUSH2 0xE54 JUMPI DUP2 CALLDATALOAD DUP6 ADD PUSH1 0x80 PUSH32 0xFFFFFFFFFFFFFFFFFFFFFFFFFFFFFFFFFFFFFFFFFFFFFFFFFFFFFFFFFFFFFFE0 DUP3 DUP16 SUB ADD SLT ISZERO PUSH2 0xDF1 JUMPI DUP10 DUP11 REVERT JUMPDEST PUSH2 0xDFB PUSH1 0x80 PUSH2 0x125F JUMP JUMPDEST PUSH2 0xE07 DUP15 DUP12 DUP5 ADD PUSH2 0xC67 JUMP JUMPDEST DUP2 MSTORE PUSH1 0x40 DUP3 ADD CALLDATALOAD DUP11 DUP3 ADD MSTORE PUSH1 0x60 DUP3 ADD CALLDATALOAD PUSH1 0x40 DUP3 ADD MSTORE PUSH1 0x80 DUP3 ADD CALLDATALOAD DUP9 DUP2 GT ISZERO PUSH2 0xE2D JUMPI DUP12 DUP13 REVERT JUMPDEST PUSH2 0xE3B DUP16 DUP13 DUP4 DUP7 ADD ADD PUSH2 0xCB9 JUMP JUMPDEST PUSH1 0x60 DUP4 ADD MSTORE POP DUP6 MSTORE POP SWAP3 DUP8 ADD SWAP3 SWAP1 DUP8 ADD SWAP1 PUSH1 0x1 ADD PUSH2 0xDB4 JUMP JUMPDEST POP SWAP8 SWAP11 SWAP1 SWAP10 POP SWAP8 POP POP POP POP POP POP POP POP JUMP JUMPDEST PUSH1 0x0 DUP1 PUSH1 0x0 DUP1 PUSH1 0x0 DUP1 PUSH1 0x0 DUP1 PUSH1 0xE0 DUP10 DUP12 SUB SLT ISZERO PUSH2 0xE80 JUMPI DUP4 DUP5 REVERT JUMPDEST DUP9 CALLDATALOAD PUSH2 0xE8B DUP2 PUSH2 0x12B2 JUMP JUMPDEST SWAP8 POP PUSH1 0x20 DUP10 ADD CALLDATALOAD PUSH2 0xE9B DUP2 PUSH2 0x12B2 JUMP JUMPDEST SWAP7 POP PUSH1 0x40 DUP10 ADD CALLDATALOAD PUSH2 0xEAB DUP2 PUSH2 0x12B2 JUMP JUMPDEST SWAP6 POP PUSH1 0x60 DUP10 ADD CALLDATALOAD PUSH2 0xEBB DUP2 PUSH2 0x12B2 JUMP JUMPDEST SWAP5 POP PUSH1 0x80 DUP10 ADD CALLDATALOAD SWAP4 POP PUSH1 0xA0 DUP10 ADD CALLDATALOAD SWAP3 POP PUSH1 0xC0 DUP10 ADD CALLDATALOAD PUSH8 0xFFFFFFFFFFFFFFFF DUP2 GT ISZERO PUSH2 0xEE4 JUMPI DUP3 DUP4 REVERT JUMPDEST PUSH2 0xEF0 DUP12 DUP3 DUP13 ADD PUSH2 0xC72 JUMP JUMPDEST SWAP10 SWAP13 SWAP9 SWAP12 POP SWAP7 SWAP10 POP SWAP5 SWAP8 SWAP4 SWAP7 SWAP3 SWAP6 SWAP5 POP POP POP JUMP JUMPDEST PUSH1 0x0 DUP1 PUSH1 0x0 DUP1 PUSH1 0x0 DUP1 PUSH1 0xA0 DUP8 DUP10 SUB SLT ISZERO PUSH2 0xF1C JUMPI DUP2 DUP3 REVERT JUMPDEST DUP7 CALLDATALOAD PUSH2 0xF27 DUP2 PUSH2 0x12B2 JUMP JUMPDEST SWAP6 POP PUSH1 0x20 DUP8 ADD CALLDATALOAD PUSH2 0xF37 DUP2 PUSH2 0x12B2 JUMP JUMPDEST SWAP5 POP PUSH1 0x40 DUP8 ADD CALLDATALOAD PUSH2 0xF47 DUP2 PUSH2 0x12B2 JUMP JUMPDEST SWAP4 POP PUSH1 0x60 DUP8 ADD CALLDATALOAD SWAP3 POP PUSH1 0x80 DUP8 ADD CALLDATALOAD PUSH8 0xFFFFFFFFFFFFFFFF DUP2 GT ISZERO PUSH2 0xF69 JUMPI DUP3 DUP4 REVERT JUMPDEST PUSH2 0xF75 DUP10 DUP3 DUP11 ADD PUSH2 0xC72 JUMP JUMPDEST SWAP8 SWAP11 SWAP7 SWAP10 POP SWAP5 SWAP8 POP SWAP3 SWAP6 SWAP4 SWAP5 SWAP3 POP POP POP JUMP JUMPDEST PUSH1 0x0 DUP1 PUSH1 0x0 PUSH1 0x40 DUP5 DUP7 SUB SLT ISZERO PUSH2 0xF9B JUMPI DUP3 DUP4 REVERT JUMPDEST DUP4 CALLDATALOAD SWAP3 POP PUSH1 0x20 DUP5 ADD CALLDATALOAD PUSH8 0xFFFFFFFFFFFFFFFF DUP2 GT ISZERO PUSH2 0xFB8 JUMPI DUP3 DUP4 REVERT JUMPDEST PUSH2 0xFC4 DUP7 DUP3 DUP8 ADD PUSH2 0xC72 JUMP JUMPDEST SWAP5 SWAP8 SWAP1 SWAP7 POP SWAP4 SWAP5 POP POP POP POP JUMP JUMPDEST PUSH1 0x0 PUSH1 0x20 DUP3 DUP5 SUB SLT ISZERO PUSH2 0xFE2 JUMPI DUP1 DUP2 REVERT JUMPDEST POP MLOAD SWAP2 SWAP1 POP JUMP JUMPDEST PUSH1 0x0 DUP3 MLOAD PUSH2 0xFFB DUP2 DUP5 PUSH1 0x20 DUP8 ADD PUSH2 0x1286 JUMP JUMPDEST SWAP2 SWAP1 SWAP2 ADD SWAP3 SWAP2 POP POP JUMP JUMPDEST PUSH20 0xFFFFFFFFFFFFFFFFFFFFFFFFFFFFFFFFFFFFFFFF SWAP2 SWAP1 SWAP2 AND DUP2 MSTORE PUSH1 0x20 ADD SWAP1 JUMP JUMPDEST PUSH1 0x0 PUSH20 0xFFFFFFFFFFFFFFFFFFFFFFFFFFFFFFFFFFFFFFFF DUP1 DUP11 AND DUP4 MSTORE DUP1 DUP10 AND PUSH1 0x20 DUP5 ADD MSTORE DUP1 DUP9 AND PUSH1 0x40 DUP5 ADD MSTORE DUP1 DUP8 AND PUSH1 0x60 DUP5 ADD MSTORE POP DUP5 PUSH1 0x80 DUP4 ADD MSTORE DUP4 PUSH1 0xA0 DUP4 ADD MSTORE PUSH1 0xE0 PUSH1 0xC0 DUP4 ADD MSTORE DUP3 MLOAD DUP1 PUSH1 0xE0 DUP5 ADD MSTORE PUSH2 0x100 PUSH2 0x1089 DUP3 DUP3 DUP7 ADD PUSH1 0x20 DUP9 ADD PUSH2 0x1286 JUMP JUMPDEST DUP1 PUSH32 0xFFFFFFFFFFFFFFFFFFFFFFFFFFFFFFFFFFFFFFFFFFFFFFFFFFFFFFFFFFFFFFE0 PUSH1 0x1F DUP5 ADD AND DUP6 ADD ADD SWAP3 POP POP POP SWAP9 SWAP8 POP POP POP POP POP POP POP POP JUMP JUMPDEST PUSH1 0x0 PUSH20 0xFFFFFFFFFFFFFFFFFFFFFFFFFFFFFFFFFFFFFFFF DUP1 DUP10 AND DUP4 MSTORE DUP1 DUP9 AND PUSH1 0x20 DUP5 ADD MSTORE DUP1 DUP8 AND PUSH1 0x40 DUP5 ADD MSTORE POP DUP5 PUSH1 0x60 DUP4 ADD MSTORE PUSH1 0xA0 PUSH1 0x80 DUP4 ADD MSTORE DUP3 PUSH1 0xA0 DUP4 ADD MSTORE DUP3 DUP5 PUSH1 0xC0 DUP5 ADD CALLDATACOPY DUP2 DUP4 ADD PUSH1 0xC0 SWAP1 DUP2 ADD SWAP2 SWAP1 SWAP2 MSTORE PUSH1 0x1F SWAP1 SWAP3 ADD PUSH32 0xFFFFFFFFFFFFFFFFFFFFFFFFFFFFFFFFFFFFFFFFFFFFFFFFFFFFFFFFFFFFFFE0 AND ADD ADD SWAP6 SWAP5 POP POP POP POP POP JUMP JUMPDEST PUSH20 0xFFFFFFFFFFFFFFFFFFFFFFFFFFFFFFFFFFFFFFFF SWAP3 SWAP1 SWAP3 AND DUP3 MSTORE PUSH1 0x20 DUP3 ADD MSTORE PUSH1 0x40 ADD SWAP1 JUMP JUMPDEST PUSH32 0xFFFFFFFF00000000000000000000000000000000000000000000000000000000 SWAP2 SWAP1 SWAP2 AND DUP2 MSTORE PUSH1 0x20 ADD SWAP1 JUMP JUMPDEST PUSH1 0x60 DUP2 ADD PUSH1 0x4 DUP6 LT PUSH2 0x11A9 JUMPI INVALID JUMPDEST SWAP4 DUP2 MSTORE PUSH1 0x20 DUP2 ADD SWAP3 SWAP1 SWAP3 MSTORE PUSH1 0x40 SWAP1 SWAP2 ADD MSTORE SWAP1 JUMP JUMPDEST PUSH1 0x60 DUP2 ADD PUSH1 0x8 DUP6 LT PUSH2 0x11A9 JUMPI INVALID JUMPDEST PUSH1 0x20 DUP1 DUP3 MSTORE PUSH1 0x1C SWAP1 DUP3 ADD MSTORE PUSH32 0x446578466F727761726465724272696467652F4F4E4C595F53454C4600000000 PUSH1 0x40 DUP3 ADD MSTORE PUSH1 0x60 ADD SWAP1 JUMP JUMPDEST PUSH1 0x20 DUP1 DUP3 MSTORE PUSH1 0x28 SWAP1 DUP3 ADD MSTORE PUSH32 0x446578466F727761726465724272696467652F53454E4445525F4E4F545F4155 PUSH1 0x40 DUP3 ADD MSTORE PUSH32 0x54484F52495A4544000000000000000000000000000000000000000000000000 PUSH1 0x60 DUP3 ADD MSTORE PUSH1 0x80 ADD SWAP1 JUMP JUMPDEST PUSH1 0x40 MLOAD DUP2 DUP2 ADD PUSH8 0xFFFFFFFFFFFFFFFF DUP2 GT DUP3 DUP3 LT OR ISZERO PUSH2 0x127E JUMPI PUSH1 0x0 DUP1 REVERT JUMPDEST PUSH1 0x40 MSTORE SWAP2 SWAP1 POP JUMP JUMPDEST PUSH1 0x0 JUMPDEST DUP4 DUP2 LT ISZERO PUSH2 0x12A1 JUMPI DUP2 DUP2 ADD MLOAD DUP4 DUP3 ADD MSTORE PUSH1 0x20 ADD PUSH2 0x1289 JUMP JUMPDEST DUP4 DUP2 GT ISZERO PUSH2 0x930 JUMPI POP POP PUSH1 0x0 SWAP2 ADD MSTORE JUMP JUMPDEST PUSH20 0xFFFFFFFFFFFFFFFFFFFFFFFFFFFFFFFFFFFFFFFF DUP2 AND DUP2 EQ PUSH2 0x12D4 JUMPI PUSH1 0x0 DUP1 REVERT JUMPDEST POP JUMP INVALID LOG3 PUSH6 0x627A7A723158 KECCAK256 CODESIZE 0xC6 0xBB 0xBA 0xFB 0xDA GAS 0xEF CALLDATALOAD DELEGATECALL 0xD NOT PUSH6 0x2C6E083529A9 SWAP9 0xB1 CALL PUSH32 0xBA8AB5094A36EB4B536C6578706572696D656E74616CF564736F6C6343000511 STOP BLOCKHASH "
            }
        }
    },
    "sourceTreeHashHex": "0xf882628f10c749825fa5a47761c9f7e6b82734aac6d68cc8fea00666fbeaff0d",
    "compiler": {
        "name": "solc",
        "version": "0.5.17+commit.d19bba13",
        "settings": {
            "remappings": [
                "@0x/contracts-utils=/Users/michaelzhu/monorepo/contracts/asset-proxy/node_modules/@0x/contracts-utils",
                "@0x/contracts-erc1155=/Users/michaelzhu/monorepo/contracts/asset-proxy/node_modules/@0x/contracts-erc1155",
                "@0x/contracts-erc20=/Users/michaelzhu/monorepo/contracts/asset-proxy/node_modules/@0x/contracts-erc20",
                "@0x/contracts-exchange-libs=/Users/michaelzhu/monorepo/contracts/asset-proxy/node_modules/@0x/contracts-exchange-libs",
                "@0x/contracts-exchange=/Users/michaelzhu/monorepo/node_modules/@0x/contracts-exchange"
            ],
            "optimizer": {
                "enabled": true,
                "runs": 1000000,
                "details": {
                    "yul": true,
                    "deduplicate": true,
                    "cse": true,
                    "constantOptimizer": true
                }
            },
            "outputSelection": {
                "*": {
                    "*": [
                        "abi",
                        "devdoc",
                        "evm.bytecode.object",
                        "evm.bytecode.sourceMap",
                        "evm.deployedBytecode.object",
                        "evm.deployedBytecode.sourceMap"
                    ]
                }
            },
            "evmVersion": "istanbul"
        }
    },
    "chains": {}
}