{
    "schemaVersion": "2.0.0",
    "contractName": "DODOSampler",
    "compilerOutput": {
        "abi": [
            {
                "inputs": [
                    {
                        "internalType": "bytes4",
                        "name": "selector",
                        "type": "bytes4"
                    },
                    {
                        "internalType": "address",
                        "name": "sellToken",
                        "type": "address"
                    },
                    {
                        "internalType": "address",
                        "name": "buyToken",
                        "type": "address"
                    },
                    {
                        "internalType": "bytes",
                        "name": "bridgeData",
                        "type": "bytes"
                    },
                    {
                        "internalType": "uint256",
                        "name": "amountIn",
                        "type": "uint256"
                    }
                ],
                "name": "_callRevert",
                "outputs": [],
                "stateMutability": "nonpayable",
                "type": "function"
            },
            {
                "inputs": [
                    {
                        "internalType": "bytes4",
                        "name": "selector",
                        "type": "bytes4"
                    },
                    {
                        "internalType": "address",
                        "name": "sellToken",
                        "type": "address"
                    },
                    {
                        "internalType": "address",
                        "name": "buyToken",
                        "type": "address"
                    },
                    {
                        "internalType": "bytes",
                        "name": "bridgeData",
                        "type": "bytes"
                    },
                    {
                        "internalType": "uint256[]",
                        "name": "amountsIn",
                        "type": "uint256[]"
                    }
                ],
                "name": "_mintCallRevert",
                "outputs": [],
                "stateMutability": "nonpayable",
                "type": "function"
            },
            {
                "inputs": [
                    {
                        "components": [
                            {
                                "internalType": "address",
                                "name": "registry",
                                "type": "address"
                            },
                            {
                                "internalType": "address",
                                "name": "helper",
                                "type": "address"
                            }
                        ],
                        "internalType": "struct DODOSampler.DODOSamplerOpts",
                        "name": "opts",
                        "type": "tuple"
                    },
                    {
                        "internalType": "address",
                        "name": "takerToken",
                        "type": "address"
                    },
                    {
                        "internalType": "address",
                        "name": "makerToken",
                        "type": "address"
                    },
                    {
                        "internalType": "uint256[]",
                        "name": "makerTokenAmounts",
                        "type": "uint256[]"
                    }
                ],
                "name": "sampleBuysFromDODO",
                "outputs": [
                    {
                        "internalType": "bool",
                        "name": "sellBase",
                        "type": "bool"
                    },
                    {
                        "internalType": "address",
                        "name": "pool",
                        "type": "address"
                    },
                    {
                        "internalType": "uint256[]",
                        "name": "gasUsed",
                        "type": "uint256[]"
                    },
                    {
                        "internalType": "uint256[]",
                        "name": "takerTokenAmounts",
                        "type": "uint256[]"
                    }
                ],
                "stateMutability": "nonpayable",
                "type": "function"
            },
            {
                "inputs": [
                    {
                        "components": [
                            {
                                "internalType": "address",
                                "name": "registry",
                                "type": "address"
                            },
                            {
                                "internalType": "address",
                                "name": "helper",
                                "type": "address"
                            }
                        ],
                        "internalType": "struct DODOSampler.DODOSamplerOpts",
                        "name": "opts",
                        "type": "tuple"
                    },
                    {
                        "internalType": "address",
                        "name": "takerToken",
                        "type": "address"
                    },
                    {
                        "internalType": "address",
                        "name": "makerToken",
                        "type": "address"
                    },
                    {
                        "internalType": "uint256[]",
                        "name": "takerTokenAmounts",
                        "type": "uint256[]"
                    }
                ],
                "name": "sampleSellsFromDODO",
                "outputs": [
                    {
                        "internalType": "bool",
                        "name": "sellBase",
                        "type": "bool"
                    },
                    {
                        "internalType": "address",
                        "name": "pool",
                        "type": "address"
                    },
                    {
                        "internalType": "uint256[]",
                        "name": "gasUsed",
                        "type": "uint256[]"
                    },
                    {
                        "internalType": "uint256[]",
                        "name": "makerTokenAmounts",
                        "type": "uint256[]"
                    }
                ],
                "stateMutability": "nonpayable",
                "type": "function"
            },
            {
                "inputs": [
                    {
                        "internalType": "address",
                        "name": "sellToken",
                        "type": "address"
                    },
                    {
                        "internalType": "address",
                        "name": "buyToken",
                        "type": "address"
                    },
                    {
                        "internalType": "bytes",
                        "name": "bridgeData",
                        "type": "bytes"
                    },
                    {
                        "internalType": "uint256",
                        "name": "takerTokenAmount",
                        "type": "uint256"
                    }
                ],
                "name": "sampleSwapFromDodo",
                "outputs": [
                    {
                        "internalType": "uint256",
                        "name": "",
                        "type": "uint256"
                    }
                ],
                "stateMutability": "nonpayable",
                "type": "function"
            }
        ],
        "devdoc": {
            "kind": "dev",
            "methods": {
                "_mintCallRevert(bytes4,address,address,bytes,uint256[])": {
                    "details": "Mints the sell token, then performs the swap, then reverts with the amount out. The SwapRevertSamplerQuoteOpts has been unrolled here as our ABI encoder cannot support encoding the function"
                },
                "sampleBuysFromDODO((address,address),address,address,uint256[])": {
                    "details": "Sample buy quotes from DODO.",
                    "params": {
                        "makerToken": "Address of the maker token (what to buy).",
                        "makerTokenAmounts": "Maker token sell amount for each sample.",
                        "opts": "DODOSamplerOpts DODO Registry and helper addresses",
                        "takerToken": "Address of the taker token (what to sell)."
                    },
                    "returns": {
                        "gasUsed": "gas consumed in each sample sell",
                        "pool": "the DODO pool address",
                        "sellBase": "whether the bridge needs to sell the base token",
                        "takerTokenAmounts": "Taker amounts sold at each maker token         amount."
                    }
                },
                "sampleSellsFromDODO((address,address),address,address,uint256[])": {
                    "details": "Sample sell quotes from DODO.",
                    "params": {
                        "makerToken": "Address of the maker token (what to buy).",
                        "opts": "DODOSamplerOpts DODO Registry and helper addresses",
                        "takerToken": "Address of the taker token (what to sell).",
                        "takerTokenAmounts": "Taker token sell amount for each sample."
                    },
                    "returns": {
                        "gasUsed": "gas consumed in each sample sell",
                        "makerTokenAmounts": "Maker amounts bought at each taker token         amount.",
                        "pool": "the DODO pool address",
                        "sellBase": "whether the bridge needs to sell the base token"
                    }
                }
            },
            "version": 1
        },
        "evm": {
            "bytecode": {
                "linkReferences": {},
                "object": "0x608060405234801561001057600080fd5b50611bb4806100206000396000f3fe60806040526004361061004e5760003560e01c80631f4ff03e1461005a5780632aa643191461007c57806378fee41c146100b5578063cd85e7b5146100d5578063ddd5aa281461010257610055565b3661005557005b600080fd5b34801561006657600080fd5b5061007a6100753660046115f2565b610122565b005b34801561008857600080fd5b5061009c610097366004611756565b6103d3565b6040516100ac949392919061196d565b60405180910390f35b3480156100c157600080fd5b5061007a6100d036600461168b565b610599565b3480156100e157600080fd5b506100f56100f0366004611529565b610759565b6040516100ac9190611ab5565b34801561010e57600080fd5b5061009c61011d366004611756565b61076f565b8051849084906000908490600019810190811061013b57fe5b60200260200101519050826001600160a01b031663ab86e0a630836040518363ffffffff1660e01b81526004016101739291906118b4565b600060405180830381600087803b15801561018d57600080fd5b505af192505050801561019e575060015b50866001600160a01b031663d0e30db0826040518263ffffffff1660e01b81526004016000604051808303818588803b1580156101da57600080fd5b505af1935050505080156101ec575060015b506060845167ffffffffffffffff8111801561020757600080fd5b50604051908082528060200260200182016040528015610231578160200160208202803683370190505b5090506060855167ffffffffffffffff8111801561024e57600080fd5b50604051908082528060200260200182016040528015610278578160200160208202803683370190505b50905060005b86518110156103bc57306001600160a01b03166378fee41c621e84808d8d8d8d8d88815181106102aa57fe5b60200260200101516040518763ffffffff1660e01b81526004016102d2959493929190611a10565b600060405180830381600088803b1580156102ec57600080fd5b5087f1935050505080156102fe575060015b610393573d80801561032c576040519150601f19603f3d011682016040523d82523d6000602084013e610331565b606091505b5061033b81610951565b85848151811061034757fe5b6020026020010185858151811061035a57fe5b602002602001018281525082815250505083828151811061037757fe5b60200260200101516000141561038d57506103bc565b506103b4565b60405162461bcd60e51b81526004016103ab90611a80565b60405180910390fd5b60010161027e565b506103c78282610986565b50505050505050505050565b60008060608087600001516001600160a01b0316631273b0c688886040518363ffffffff1660e01b815260040161040b9291906118cd565b60206040518083038186803b15801561042357600080fd5b505afa158015610437573d6000803e3d6000fd5b505050506040513d601f19601f8201168201806040525081019061045b919061150d565b925060006001600160a01b0384161561047957506001935086610517565b8851604051630939d86360e11b81526001600160a01b0390911690631273b0c6906104aa908a908c906004016118cd565b60206040518083038186803b1580156104c257600080fd5b505afa1580156104d6573d6000803e3d6000fd5b505050506040513d601f19601f820116820180604052508101906104fa919061150d565b93506001600160a01b038416610510575061058e565b5060009350855b61058760405180608001604052808a6001600160a01b03168152602001896001600160a01b031681526020018b60200151878960405160200161055c939291906118e7565b60408051601f1981840301815291815290825230602090811b63cd85e7b51790911b910152876109b4565b9093509150505b945094509450949050565b61133761def160901b016001600160a01b031663d0afdca96040518163ffffffff1660e01b8152600401600060405180830381600087803b1580156105dd57600080fd5b505af19250505080156105ee575060015b5060005a905060006060306001600160a01b0316888888888860405160240161061a949392919061190b565b60408051601f198184030181529181526020820180516001600160e01b03166001600160e01b03199094169390931790925290516106589190611898565b6000604051808303816000865af19150503d8060008114610695576040519150601f19603f3d011682016040523d82523d6000602084013e61069a565b606091505b50915091505a8303925061133761def160901b016001600160a01b0316630c18c1626040518163ffffffff1660e01b815260040160206040518083038186803b1580156106e657600080fd5b505afa925050508015610716575060408051601f3d908101601f19168201909252610713918101906117f7565b60015b61071f57610724565b909203915b816107325761073281610a85565b61074f8180602001905181019061074991906117f7565b84610a8d565b5050505050505050565b6000610766858385610a9e565b95945050505050565b60008060608087600001516001600160a01b0316631273b0c688886040518363ffffffff1660e01b81526004016107a79291906118cd565b60206040518083038186803b1580156107bf57600080fd5b505afa1580156107d3573d6000803e3d6000fd5b505050506040513d601f19601f820116820180604052508101906107f7919061150d565b925060006001600160a01b03841615610815575060019350866108b3565b8851604051630939d86360e11b81526001600160a01b0390911690631273b0c690610846908a908c906004016118cd565b60206040518083038186803b15801561085e57600080fd5b505afa158015610872573d6000803e3d6000fd5b505050506040513d601f19601f82011682018060405250810190610896919061150d565b93506001600160a01b0384166108ac575061058e565b5060009350855b6105876040518060a001604052808a6001600160a01b03168152602001896001600160a01b031681526020018b6020015187896040516020016108f8939291906118e7565b60405160208183030381529060405281526020018b60200151878915604051602001610926939291906118e7565b60408051601f1981840301815291815290825230602090811b63cd85e7b51790911b91015287610c8d565b600080825160401461096857506000905080610981565b8280602001905181019061097c919061180f565b915091505b915091565b6060828260405160200161099b929190611948565b6040516020818303038152906040529050805160208201fd5b606082810151835160208501516040808701519051630fa7f81f60e11b815285943094631f4ff03e94610a009460a09390931b6001600160e01b03191693919290918a906004016119b6565b600060405180830381600087803b158015610a1a57600080fd5b505af1925050508015610a2b575060015b610393573d808015610a59576040519150601f19603f3d011682016040523d82523d6000602084013e610a5e565b606091505b5080806020019051810190610a739190611591565b93509150610a7e9050565b9250929050565b805160208201fd5b604051828152816020820152604081fd5b60008060008084806020019051810190610ab89190611706565b91945092509050610ad36001600160a01b03881683886110fc565b8015610b705760408051600081526020810191829052638dae733360e01b9091526001600160a01b03831690638dae733390610b1790899060019060248101611abe565b602060405180830381600087803b158015610b3157600080fd5b505af1158015610b45573d6000803e3d6000fd5b505050506040513d601f19601f82011682018060405250810190610b6991906117f7565b9350610c82565b60405163ca19ebd960e01b81526001600160a01b0384169063ca19ebd990610b9e9085908a906004016118b4565b60206040518083038186803b158015610bb657600080fd5b505afa158015610bca573d6000803e3d6000fd5b505050506040513d601f19601f82011682018060405250810190610bee91906117f7565b6040805160008152602081019182905263733e738360e11b9091529094506001600160a01b0383169063e67ce70690610c2e9087908a9060248101611abe565b602060405180830381600087803b158015610c4857600080fd5b505af1158015610c5c573d6000803e3d6000fd5b505050506040513d601f19601f82011682018060405250810190610c8091906117f7565b505b5050505b9392505050565b606080825167ffffffffffffffff81118015610ca857600080fd5b50604051908082528060200260200182016040528015610cd2578160200160208202803683370190505b509050825167ffffffffffffffff81118015610ced57600080fd5b50604051908082528060200260200182016040528015610d17578160200160208202803683370190505b509150825160001415610d2957610a7e565b6040805160018082528183019092526060916020808301908036833701905050905083600081518110610d5857fe5b602002602001015181600081518110610d6d57fe5b602002602001018181525050610d816113b0565b50604080516080808201835287516001600160a01b0390811683526020808a0151909116908301528783015182840152870151640100000000600160c01b0390831c90811663ffffffff9091161790911b6060820152610ddf6113b0565b604051806080016040528088602001516001600160a01b0316815260200188600001516001600160a01b031681526020018860600151815260200188608001518060601c9060401c63ffffffff1663ffffffff169060201b1760401b8152509050610e4a81846109b4565b90508093505082600081518110610e5d57fe5b602002602001015160001415610e7557505050610a7e565b6060610e8183856109b4565b90508091505080600081518110610e9457fe5b602002602001015160001415610ead5750505050610a7e565b60005b87518110156110f057606060005b600581101561106957610f0d8a8481518110610ed657fe5b602002602001015185600081518110610eeb57fe5b602002602001015189600081518110610f0057fe5b6020026020010151611194565b87600081518110610f1a57fe5b60200260200101818152505086600081518110610f3357fe5b602002602001015160001415610f4857611069565b610f6160056127100161271089600081518110610f0057fe5b87600081518110610f6e57fe5b60200260200101818152505086600081518110610f8757fe5b602002602001015160001415610f9c57611069565b6060610fa887896109b4565b805191945091508190600090610fba57fe5b602002602001015160001415610fd05750611069565b8094508a8481518110610fdf57fe5b602002602001015185600081518110610ff457fe5b6020026020010151106110605760008b858151811061100f57fe5b60200260200101516127108d878151811061102657fe5b60200260200101518860008151811061103b57fe5b602002602001015103028161104c57fe5b0490506005811161105e575050611069565b505b50600101610ebe565b508060008151811061107757fe5b602002602001015188838151811061108b57fe5b6020026020010181815250506110d08983815181106110a657fe5b6020026020010151846000815181106110bb57fe5b602002602001015188600081518110610f0057fe5b8783815181106110dc57fe5b602090810291909101015250600101610eb0565b50505050509250929050565b604051636eb1769f60e11b815281906001600160a01b0385169063dd62ed3e9061112c90309087906004016118cd565b60206040518083038186803b15801561114457600080fd5b505afa158015611158573d6000803e3d6000fd5b505050506040513d601f19601f8201168201806040525081019061117c91906117f7565b101561118f5761118f83836000196111ec565b505050565b60008315806111a1575081155b806111aa575082155b156111b757506000610c86565b838202828582816111c457fe5b04146111d4576000915050610c86565b83600185038201816111e257fe5b0495945050505050565b606063095ea7b360e01b83836040516024016112099291906118b4565b60408051601f198184030181529190526020810180516001600160e01b03166001600160e01b0319909316929092179091529050611247848261124d565b50505050565b60006060836001600160a01b0316836040516112699190611898565b6000604051808303816000865af19150503d80600081146112a6576040519150601f19603f3d011682016040523d82523d6000602084013e6112ab565b606091505b50915091508180156112c157506112c1816112da565b156112cd5750506112d6565b61124781610a85565b5050565b60008151600014156112ee5750600161131b565b602082511061131b576000611304836000611320565b9050806001141561131957600191505061131b565b505b919050565b6000610c8683836000816020018351101561134d5761134d6113486005855185602001611356565b610a85565b50016020015190565b6060632800659560e01b84848460405160240161137593929190611a5e565b60408051601f198184030181529190526020810180516001600160e01b03166001600160e01b03199093169290921790915290509392505050565b6040805160808101825260008082526020820181905260609282018390529181019190915290565b600082601f8301126113e8578081fd5b81356113fb6113f682611b04565b611add565b81815291506020808301908481018184028601820187101561141c57600080fd5b60005b8481101561143b5781358452928201929082019060010161141f565b505050505092915050565b600082601f830112611456578081fd5b81516114646113f682611b04565b81815291506020808301908481018184028601820187101561148557600080fd5b60005b8481101561143b57815184529282019290820190600101611488565b600082601f8301126114b4578081fd5b813567ffffffffffffffff8111156114ca578182fd5b6114dd601f8201601f1916602001611add565b91508082528360208285010111156114f457600080fd5b8060208401602084013760009082016020015292915050565b60006020828403121561151e578081fd5b8151610c8681611b50565b6000806000806080858703121561153e578283fd5b843561154981611b50565b9350602085013561155981611b50565b9250604085013567ffffffffffffffff811115611574578283fd5b611580878288016114a4565b949793965093946060013593505050565b600080604083850312156115a3578182fd5b825167ffffffffffffffff808211156115ba578384fd5b6115c686838701611446565b935060208501519150808211156115db578283fd5b506115e885828601611446565b9150509250929050565b600080600080600060a08688031215611609578081fd5b853561161481611b68565b9450602086013561162481611b50565b9350604086013561163481611b50565b9250606086013567ffffffffffffffff80821115611650578283fd5b61165c89838a016114a4565b93506080880135915080821115611671578283fd5b5061167e888289016113d8565b9150509295509295909350565b600080600080600060a086880312156116a2578081fd5b85356116ad81611b68565b945060208601356116bd81611b50565b935060408601356116cd81611b50565b9250606086013567ffffffffffffffff8111156116e8578182fd5b6116f4888289016114a4565b95989497509295608001359392505050565b60008060006060848603121561171a578283fd5b835161172581611b50565b602085015190935061173681611b50565b6040850151909250801515811461174b578182fd5b809150509250925092565b60008060008084860360a081121561176c578485fd5b6040811215611779578485fd5b506117846040611add565b853561178f81611b50565b8152602086013561179f81611b50565b6020820152935060408501356117b481611b50565b925060608501356117c481611b50565b9150608085013567ffffffffffffffff8111156117df578182fd5b6117eb878288016113d8565b91505092959194509250565b600060208284031215611808578081fd5b5051919050565b60008060408385031215611821578182fd5b505080516020909101519092909150565b6000815180845260208085019450808401835b8381101561186157815187529582019590820190600101611845565b509495945050505050565b60008151808452611884816020860160208601611b24565b601f01601f19169290920160200192915050565b600082516118aa818460208701611b24565b9190910192915050565b6001600160a01b03929092168252602082015260400190565b6001600160a01b0392831681529116602082015260400190565b6001600160a01b039384168152919092166020820152901515604082015260600190565b6001600160a01b038581168252841660208201526080604082018190526000906119379083018561186c565b905082606083015295945050505050565b60006040825261195b6040830185611832565b82810360208401526107668185611832565b84151581526001600160a01b038416602082015260806040820181905260009061199990830185611832565b82810360608401526119ab8185611832565b979650505050505050565b6001600160e01b0319861681526001600160a01b0385811660208301528416604082015260a0606082018190526000906119f29083018561186c565b8281036080840152611a048185611832565b98975050505050505050565b6001600160e01b0319861681526001600160a01b0385811660208301528416604082015260a060608201819052600090611a4c9083018561186c565b90508260808301529695505050505050565b6060810160088510611a6c57fe5b938152602081019290925260409091015290565b6020808252818101527f537761702053616d706c652073686f756c642068617665207265766572746564604082015260600190565b90815260200190565b600084825283602083015260606040830152610766606083018461186c565b60405181810167ffffffffffffffff81118282101715611afc57600080fd5b604052919050565b600067ffffffffffffffff821115611b1a578081fd5b5060209081020190565b60005b83811015611b3f578181015183820152602001611b27565b838111156112475750506000910152565b6001600160a01b0381168114611b6557600080fd5b50565b6001600160e01b031981168114611b6557600080fdfea2646970667358221220ccd8b1d02a8554b7a44179d4e90ea830c24c3bdb51b445a2bb725c44f423c9f864736f6c634300060c0033",
                "opcodes": "PUSH1 0x80 PUSH1 0x40 MSTORE CALLVALUE DUP1 ISZERO PUSH2 0x10 JUMPI PUSH1 0x0 DUP1 REVERT JUMPDEST POP PUSH2 0x1BB4 DUP1 PUSH2 0x20 PUSH1 0x0 CODECOPY PUSH1 0x0 RETURN INVALID PUSH1 0x80 PUSH1 0x40 MSTORE PUSH1 0x4 CALLDATASIZE LT PUSH2 0x4E JUMPI PUSH1 0x0 CALLDATALOAD PUSH1 0xE0 SHR DUP1 PUSH4 0x1F4FF03E EQ PUSH2 0x5A JUMPI DUP1 PUSH4 0x2AA64319 EQ PUSH2 0x7C JUMPI DUP1 PUSH4 0x78FEE41C EQ PUSH2 0xB5 JUMPI DUP1 PUSH4 0xCD85E7B5 EQ PUSH2 0xD5 JUMPI DUP1 PUSH4 0xDDD5AA28 EQ PUSH2 0x102 JUMPI PUSH2 0x55 JUMP JUMPDEST CALLDATASIZE PUSH2 0x55 JUMPI STOP JUMPDEST PUSH1 0x0 DUP1 REVERT JUMPDEST CALLVALUE DUP1 ISZERO PUSH2 0x66 JUMPI PUSH1 0x0 DUP1 REVERT JUMPDEST POP PUSH2 0x7A PUSH2 0x75 CALLDATASIZE PUSH1 0x4 PUSH2 0x15F2 JUMP JUMPDEST PUSH2 0x122 JUMP JUMPDEST STOP JUMPDEST CALLVALUE DUP1 ISZERO PUSH2 0x88 JUMPI PUSH1 0x0 DUP1 REVERT JUMPDEST POP PUSH2 0x9C PUSH2 0x97 CALLDATASIZE PUSH1 0x4 PUSH2 0x1756 JUMP JUMPDEST PUSH2 0x3D3 JUMP JUMPDEST PUSH1 0x40 MLOAD PUSH2 0xAC SWAP5 SWAP4 SWAP3 SWAP2 SWAP1 PUSH2 0x196D JUMP JUMPDEST PUSH1 0x40 MLOAD DUP1 SWAP2 SUB SWAP1 RETURN JUMPDEST CALLVALUE DUP1 ISZERO PUSH2 0xC1 JUMPI PUSH1 0x0 DUP1 REVERT JUMPDEST POP PUSH2 0x7A PUSH2 0xD0 CALLDATASIZE PUSH1 0x4 PUSH2 0x168B JUMP JUMPDEST PUSH2 0x599 JUMP JUMPDEST CALLVALUE DUP1 ISZERO PUSH2 0xE1 JUMPI PUSH1 0x0 DUP1 REVERT JUMPDEST POP PUSH2 0xF5 PUSH2 0xF0 CALLDATASIZE PUSH1 0x4 PUSH2 0x1529 JUMP JUMPDEST PUSH2 0x759 JUMP JUMPDEST PUSH1 0x40 MLOAD PUSH2 0xAC SWAP2 SWAP1 PUSH2 0x1AB5 JUMP JUMPDEST CALLVALUE DUP1 ISZERO PUSH2 0x10E JUMPI PUSH1 0x0 DUP1 REVERT JUMPDEST POP PUSH2 0x9C PUSH2 0x11D CALLDATASIZE PUSH1 0x4 PUSH2 0x1756 JUMP JUMPDEST PUSH2 0x76F JUMP JUMPDEST DUP1 MLOAD DUP5 SWAP1 DUP5 SWAP1 PUSH1 0x0 SWAP1 DUP5 SWAP1 PUSH1 0x0 NOT DUP2 ADD SWAP1 DUP2 LT PUSH2 0x13B JUMPI INVALID JUMPDEST PUSH1 0x20 MUL PUSH1 0x20 ADD ADD MLOAD SWAP1 POP DUP3 PUSH1 0x1 PUSH1 0x1 PUSH1 0xA0 SHL SUB AND PUSH4 0xAB86E0A6 ADDRESS DUP4 PUSH1 0x40 MLOAD DUP4 PUSH4 0xFFFFFFFF AND PUSH1 0xE0 SHL DUP2 MSTORE PUSH1 0x4 ADD PUSH2 0x173 SWAP3 SWAP2 SWAP1 PUSH2 0x18B4 JUMP JUMPDEST PUSH1 0x0 PUSH1 0x40 MLOAD DUP1 DUP4 SUB DUP2 PUSH1 0x0 DUP8 DUP1 EXTCODESIZE ISZERO DUP1 ISZERO PUSH2 0x18D JUMPI PUSH1 0x0 DUP1 REVERT JUMPDEST POP GAS CALL SWAP3 POP POP POP DUP1 ISZERO PUSH2 0x19E JUMPI POP PUSH1 0x1 JUMPDEST POP DUP7 PUSH1 0x1 PUSH1 0x1 PUSH1 0xA0 SHL SUB AND PUSH4 0xD0E30DB0 DUP3 PUSH1 0x40 MLOAD DUP3 PUSH4 0xFFFFFFFF AND PUSH1 0xE0 SHL DUP2 MSTORE PUSH1 0x4 ADD PUSH1 0x0 PUSH1 0x40 MLOAD DUP1 DUP4 SUB DUP2 DUP6 DUP9 DUP1 EXTCODESIZE ISZERO DUP1 ISZERO PUSH2 0x1DA JUMPI PUSH1 0x0 DUP1 REVERT JUMPDEST POP GAS CALL SWAP4 POP POP POP POP DUP1 ISZERO PUSH2 0x1EC JUMPI POP PUSH1 0x1 JUMPDEST POP PUSH1 0x60 DUP5 MLOAD PUSH8 0xFFFFFFFFFFFFFFFF DUP2 GT DUP1 ISZERO PUSH2 0x207 JUMPI PUSH1 0x0 DUP1 REVERT JUMPDEST POP PUSH1 0x40 MLOAD SWAP1 DUP1 DUP3 MSTORE DUP1 PUSH1 0x20 MUL PUSH1 0x20 ADD DUP3 ADD PUSH1 0x40 MSTORE DUP1 ISZERO PUSH2 0x231 JUMPI DUP2 PUSH1 0x20 ADD PUSH1 0x20 DUP3 MUL DUP1 CALLDATASIZE DUP4 CALLDATACOPY ADD SWAP1 POP JUMPDEST POP SWAP1 POP PUSH1 0x60 DUP6 MLOAD PUSH8 0xFFFFFFFFFFFFFFFF DUP2 GT DUP1 ISZERO PUSH2 0x24E JUMPI PUSH1 0x0 DUP1 REVERT JUMPDEST POP PUSH1 0x40 MLOAD SWAP1 DUP1 DUP3 MSTORE DUP1 PUSH1 0x20 MUL PUSH1 0x20 ADD DUP3 ADD PUSH1 0x40 MSTORE DUP1 ISZERO PUSH2 0x278 JUMPI DUP2 PUSH1 0x20 ADD PUSH1 0x20 DUP3 MUL DUP1 CALLDATASIZE DUP4 CALLDATACOPY ADD SWAP1 POP JUMPDEST POP SWAP1 POP PUSH1 0x0 JUMPDEST DUP7 MLOAD DUP2 LT ISZERO PUSH2 0x3BC JUMPI ADDRESS PUSH1 0x1 PUSH1 0x1 PUSH1 0xA0 SHL SUB AND PUSH4 0x78FEE41C PUSH3 0x1E8480 DUP14 DUP14 DUP14 DUP14 DUP14 DUP9 DUP2 MLOAD DUP2 LT PUSH2 0x2AA JUMPI INVALID JUMPDEST PUSH1 0x20 MUL PUSH1 0x20 ADD ADD MLOAD PUSH1 0x40 MLOAD DUP8 PUSH4 0xFFFFFFFF AND PUSH1 0xE0 SHL DUP2 MSTORE PUSH1 0x4 ADD PUSH2 0x2D2 SWAP6 SWAP5 SWAP4 SWAP3 SWAP2 SWAP1 PUSH2 0x1A10 JUMP JUMPDEST PUSH1 0x0 PUSH1 0x40 MLOAD DUP1 DUP4 SUB DUP2 PUSH1 0x0 DUP9 DUP1 EXTCODESIZE ISZERO DUP1 ISZERO PUSH2 0x2EC JUMPI PUSH1 0x0 DUP1 REVERT JUMPDEST POP DUP8 CALL SWAP4 POP POP POP POP DUP1 ISZERO PUSH2 0x2FE JUMPI POP PUSH1 0x1 JUMPDEST PUSH2 0x393 JUMPI RETURNDATASIZE DUP1 DUP1 ISZERO PUSH2 0x32C JUMPI PUSH1 0x40 MLOAD SWAP2 POP PUSH1 0x1F NOT PUSH1 0x3F RETURNDATASIZE ADD AND DUP3 ADD PUSH1 0x40 MSTORE RETURNDATASIZE DUP3 MSTORE RETURNDATASIZE PUSH1 0x0 PUSH1 0x20 DUP5 ADD RETURNDATACOPY PUSH2 0x331 JUMP JUMPDEST PUSH1 0x60 SWAP2 POP JUMPDEST POP PUSH2 0x33B DUP2 PUSH2 0x951 JUMP JUMPDEST DUP6 DUP5 DUP2 MLOAD DUP2 LT PUSH2 0x347 JUMPI INVALID JUMPDEST PUSH1 0x20 MUL PUSH1 0x20 ADD ADD DUP6 DUP6 DUP2 MLOAD DUP2 LT PUSH2 0x35A JUMPI INVALID JUMPDEST PUSH1 0x20 MUL PUSH1 0x20 ADD ADD DUP3 DUP2 MSTORE POP DUP3 DUP2 MSTORE POP POP POP DUP4 DUP3 DUP2 MLOAD DUP2 LT PUSH2 0x377 JUMPI INVALID JUMPDEST PUSH1 0x20 MUL PUSH1 0x20 ADD ADD MLOAD PUSH1 0x0 EQ ISZERO PUSH2 0x38D JUMPI POP PUSH2 0x3BC JUMP JUMPDEST POP PUSH2 0x3B4 JUMP JUMPDEST PUSH1 0x40 MLOAD PUSH3 0x461BCD PUSH1 0xE5 SHL DUP2 MSTORE PUSH1 0x4 ADD PUSH2 0x3AB SWAP1 PUSH2 0x1A80 JUMP JUMPDEST PUSH1 0x40 MLOAD DUP1 SWAP2 SUB SWAP1 REVERT JUMPDEST PUSH1 0x1 ADD PUSH2 0x27E JUMP JUMPDEST POP PUSH2 0x3C7 DUP3 DUP3 PUSH2 0x986 JUMP JUMPDEST POP POP POP POP POP POP POP POP POP POP JUMP JUMPDEST PUSH1 0x0 DUP1 PUSH1 0x60 DUP1 DUP8 PUSH1 0x0 ADD MLOAD PUSH1 0x1 PUSH1 0x1 PUSH1 0xA0 SHL SUB AND PUSH4 0x1273B0C6 DUP9 DUP9 PUSH1 0x40 MLOAD DUP4 PUSH4 0xFFFFFFFF AND PUSH1 0xE0 SHL DUP2 MSTORE PUSH1 0x4 ADD PUSH2 0x40B SWAP3 SWAP2 SWAP1 PUSH2 0x18CD JUMP JUMPDEST PUSH1 0x20 PUSH1 0x40 MLOAD DUP1 DUP4 SUB DUP2 DUP7 DUP1 EXTCODESIZE ISZERO DUP1 ISZERO PUSH2 0x423 JUMPI PUSH1 0x0 DUP1 REVERT JUMPDEST POP GAS STATICCALL ISZERO DUP1 ISZERO PUSH2 0x437 JUMPI RETURNDATASIZE PUSH1 0x0 DUP1 RETURNDATACOPY RETURNDATASIZE PUSH1 0x0 REVERT JUMPDEST POP POP POP POP PUSH1 0x40 MLOAD RETURNDATASIZE PUSH1 0x1F NOT PUSH1 0x1F DUP3 ADD AND DUP3 ADD DUP1 PUSH1 0x40 MSTORE POP DUP2 ADD SWAP1 PUSH2 0x45B SWAP2 SWAP1 PUSH2 0x150D JUMP JUMPDEST SWAP3 POP PUSH1 0x0 PUSH1 0x1 PUSH1 0x1 PUSH1 0xA0 SHL SUB DUP5 AND ISZERO PUSH2 0x479 JUMPI POP PUSH1 0x1 SWAP4 POP DUP7 PUSH2 0x517 JUMP JUMPDEST DUP9 MLOAD PUSH1 0x40 MLOAD PUSH4 0x939D863 PUSH1 0xE1 SHL DUP2 MSTORE PUSH1 0x1 PUSH1 0x1 PUSH1 0xA0 SHL SUB SWAP1 SWAP2 AND SWAP1 PUSH4 0x1273B0C6 SWAP1 PUSH2 0x4AA SWAP1 DUP11 SWAP1 DUP13 SWAP1 PUSH1 0x4 ADD PUSH2 0x18CD JUMP JUMPDEST PUSH1 0x20 PUSH1 0x40 MLOAD DUP1 DUP4 SUB DUP2 DUP7 DUP1 EXTCODESIZE ISZERO DUP1 ISZERO PUSH2 0x4C2 JUMPI PUSH1 0x0 DUP1 REVERT JUMPDEST POP GAS STATICCALL ISZERO DUP1 ISZERO PUSH2 0x4D6 JUMPI RETURNDATASIZE PUSH1 0x0 DUP1 RETURNDATACOPY RETURNDATASIZE PUSH1 0x0 REVERT JUMPDEST POP POP POP POP PUSH1 0x40 MLOAD RETURNDATASIZE PUSH1 0x1F NOT PUSH1 0x1F DUP3 ADD AND DUP3 ADD DUP1 PUSH1 0x40 MSTORE POP DUP2 ADD SWAP1 PUSH2 0x4FA SWAP2 SWAP1 PUSH2 0x150D JUMP JUMPDEST SWAP4 POP PUSH1 0x1 PUSH1 0x1 PUSH1 0xA0 SHL SUB DUP5 AND PUSH2 0x510 JUMPI POP PUSH2 0x58E JUMP JUMPDEST POP PUSH1 0x0 SWAP4 POP DUP6 JUMPDEST PUSH2 0x587 PUSH1 0x40 MLOAD DUP1 PUSH1 0x80 ADD PUSH1 0x40 MSTORE DUP1 DUP11 PUSH1 0x1 PUSH1 0x1 PUSH1 0xA0 SHL SUB AND DUP2 MSTORE PUSH1 0x20 ADD DUP10 PUSH1 0x1 PUSH1 0x1 PUSH1 0xA0 SHL SUB AND DUP2 MSTORE PUSH1 0x20 ADD DUP12 PUSH1 0x20 ADD MLOAD DUP8 DUP10 PUSH1 0x40 MLOAD PUSH1 0x20 ADD PUSH2 0x55C SWAP4 SWAP3 SWAP2 SWAP1 PUSH2 0x18E7 JUMP JUMPDEST PUSH1 0x40 DUP1 MLOAD PUSH1 0x1F NOT DUP2 DUP5 SUB ADD DUP2 MSTORE SWAP2 DUP2 MSTORE SWAP1 DUP3 MSTORE ADDRESS PUSH1 0x20 SWAP1 DUP2 SHL PUSH4 0xCD85E7B5 OR SWAP1 SWAP2 SHL SWAP2 ADD MSTORE DUP8 PUSH2 0x9B4 JUMP JUMPDEST SWAP1 SWAP4 POP SWAP2 POP POP JUMPDEST SWAP5 POP SWAP5 POP SWAP5 POP SWAP5 SWAP1 POP JUMP JUMPDEST PUSH2 0x1337 PUSH2 0xDEF1 PUSH1 0x90 SHL ADD PUSH1 0x1 PUSH1 0x1 PUSH1 0xA0 SHL SUB AND PUSH4 0xD0AFDCA9 PUSH1 0x40 MLOAD DUP2 PUSH4 0xFFFFFFFF AND PUSH1 0xE0 SHL DUP2 MSTORE PUSH1 0x4 ADD PUSH1 0x0 PUSH1 0x40 MLOAD DUP1 DUP4 SUB DUP2 PUSH1 0x0 DUP8 DUP1 EXTCODESIZE ISZERO DUP1 ISZERO PUSH2 0x5DD JUMPI PUSH1 0x0 DUP1 REVERT JUMPDEST POP GAS CALL SWAP3 POP POP POP DUP1 ISZERO PUSH2 0x5EE JUMPI POP PUSH1 0x1 JUMPDEST POP PUSH1 0x0 GAS SWAP1 POP PUSH1 0x0 PUSH1 0x60 ADDRESS PUSH1 0x1 PUSH1 0x1 PUSH1 0xA0 SHL SUB AND DUP9 DUP9 DUP9 DUP9 DUP9 PUSH1 0x40 MLOAD PUSH1 0x24 ADD PUSH2 0x61A SWAP5 SWAP4 SWAP3 SWAP2 SWAP1 PUSH2 0x190B JUMP JUMPDEST PUSH1 0x40 DUP1 MLOAD PUSH1 0x1F NOT DUP2 DUP5 SUB ADD DUP2 MSTORE SWAP2 DUP2 MSTORE PUSH1 0x20 DUP3 ADD DUP1 MLOAD PUSH1 0x1 PUSH1 0x1 PUSH1 0xE0 SHL SUB AND PUSH1 0x1 PUSH1 0x1 PUSH1 0xE0 SHL SUB NOT SWAP1 SWAP5 AND SWAP4 SWAP1 SWAP4 OR SWAP1 SWAP3 MSTORE SWAP1 MLOAD PUSH2 0x658 SWAP2 SWAP1 PUSH2 0x1898 JUMP JUMPDEST PUSH1 0x0 PUSH1 0x40 MLOAD DUP1 DUP4 SUB DUP2 PUSH1 0x0 DUP7 GAS CALL SWAP2 POP POP RETURNDATASIZE DUP1 PUSH1 0x0 DUP2 EQ PUSH2 0x695 JUMPI PUSH1 0x40 MLOAD SWAP2 POP PUSH1 0x1F NOT PUSH1 0x3F RETURNDATASIZE ADD AND DUP3 ADD PUSH1 0x40 MSTORE RETURNDATASIZE DUP3 MSTORE RETURNDATASIZE PUSH1 0x0 PUSH1 0x20 DUP5 ADD RETURNDATACOPY PUSH2 0x69A JUMP JUMPDEST PUSH1 0x60 SWAP2 POP JUMPDEST POP SWAP2 POP SWAP2 POP GAS DUP4 SUB SWAP3 POP PUSH2 0x1337 PUSH2 0xDEF1 PUSH1 0x90 SHL ADD PUSH1 0x1 PUSH1 0x1 PUSH1 0xA0 SHL SUB AND PUSH4 0xC18C162 PUSH1 0x40 MLOAD DUP2 PUSH4 0xFFFFFFFF AND PUSH1 0xE0 SHL DUP2 MSTORE PUSH1 0x4 ADD PUSH1 0x20 PUSH1 0x40 MLOAD DUP1 DUP4 SUB DUP2 DUP7 DUP1 EXTCODESIZE ISZERO DUP1 ISZERO PUSH2 0x6E6 JUMPI PUSH1 0x0 DUP1 REVERT JUMPDEST POP GAS STATICCALL SWAP3 POP POP POP DUP1 ISZERO PUSH2 0x716 JUMPI POP PUSH1 0x40 DUP1 MLOAD PUSH1 0x1F RETURNDATASIZE SWAP1 DUP2 ADD PUSH1 0x1F NOT AND DUP3 ADD SWAP1 SWAP3 MSTORE PUSH2 0x713 SWAP2 DUP2 ADD SWAP1 PUSH2 0x17F7 JUMP JUMPDEST PUSH1 0x1 JUMPDEST PUSH2 0x71F JUMPI PUSH2 0x724 JUMP JUMPDEST SWAP1 SWAP3 SUB SWAP2 JUMPDEST DUP2 PUSH2 0x732 JUMPI PUSH2 0x732 DUP2 PUSH2 0xA85 JUMP JUMPDEST PUSH2 0x74F DUP2 DUP1 PUSH1 0x20 ADD SWAP1 MLOAD DUP2 ADD SWAP1 PUSH2 0x749 SWAP2 SWAP1 PUSH2 0x17F7 JUMP JUMPDEST DUP5 PUSH2 0xA8D JUMP JUMPDEST POP POP POP POP POP POP POP POP JUMP JUMPDEST PUSH1 0x0 PUSH2 0x766 DUP6 DUP4 DUP6 PUSH2 0xA9E JUMP JUMPDEST SWAP6 SWAP5 POP POP POP POP POP JUMP JUMPDEST PUSH1 0x0 DUP1 PUSH1 0x60 DUP1 DUP8 PUSH1 0x0 ADD MLOAD PUSH1 0x1 PUSH1 0x1 PUSH1 0xA0 SHL SUB AND PUSH4 0x1273B0C6 DUP9 DUP9 PUSH1 0x40 MLOAD DUP4 PUSH4 0xFFFFFFFF AND PUSH1 0xE0 SHL DUP2 MSTORE PUSH1 0x4 ADD PUSH2 0x7A7 SWAP3 SWAP2 SWAP1 PUSH2 0x18CD JUMP JUMPDEST PUSH1 0x20 PUSH1 0x40 MLOAD DUP1 DUP4 SUB DUP2 DUP7 DUP1 EXTCODESIZE ISZERO DUP1 ISZERO PUSH2 0x7BF JUMPI PUSH1 0x0 DUP1 REVERT JUMPDEST POP GAS STATICCALL ISZERO DUP1 ISZERO PUSH2 0x7D3 JUMPI RETURNDATASIZE PUSH1 0x0 DUP1 RETURNDATACOPY RETURNDATASIZE PUSH1 0x0 REVERT JUMPDEST POP POP POP POP PUSH1 0x40 MLOAD RETURNDATASIZE PUSH1 0x1F NOT PUSH1 0x1F DUP3 ADD AND DUP3 ADD DUP1 PUSH1 0x40 MSTORE POP DUP2 ADD SWAP1 PUSH2 0x7F7 SWAP2 SWAP1 PUSH2 0x150D JUMP JUMPDEST SWAP3 POP PUSH1 0x0 PUSH1 0x1 PUSH1 0x1 PUSH1 0xA0 SHL SUB DUP5 AND ISZERO PUSH2 0x815 JUMPI POP PUSH1 0x1 SWAP4 POP DUP7 PUSH2 0x8B3 JUMP JUMPDEST DUP9 MLOAD PUSH1 0x40 MLOAD PUSH4 0x939D863 PUSH1 0xE1 SHL DUP2 MSTORE PUSH1 0x1 PUSH1 0x1 PUSH1 0xA0 SHL SUB SWAP1 SWAP2 AND SWAP1 PUSH4 0x1273B0C6 SWAP1 PUSH2 0x846 SWAP1 DUP11 SWAP1 DUP13 SWAP1 PUSH1 0x4 ADD PUSH2 0x18CD JUMP JUMPDEST PUSH1 0x20 PUSH1 0x40 MLOAD DUP1 DUP4 SUB DUP2 DUP7 DUP1 EXTCODESIZE ISZERO DUP1 ISZERO PUSH2 0x85E JUMPI PUSH1 0x0 DUP1 REVERT JUMPDEST POP GAS STATICCALL ISZERO DUP1 ISZERO PUSH2 0x872 JUMPI RETURNDATASIZE PUSH1 0x0 DUP1 RETURNDATACOPY RETURNDATASIZE PUSH1 0x0 REVERT JUMPDEST POP POP POP POP PUSH1 0x40 MLOAD RETURNDATASIZE PUSH1 0x1F NOT PUSH1 0x1F DUP3 ADD AND DUP3 ADD DUP1 PUSH1 0x40 MSTORE POP DUP2 ADD SWAP1 PUSH2 0x896 SWAP2 SWAP1 PUSH2 0x150D JUMP JUMPDEST SWAP4 POP PUSH1 0x1 PUSH1 0x1 PUSH1 0xA0 SHL SUB DUP5 AND PUSH2 0x8AC JUMPI POP PUSH2 0x58E JUMP JUMPDEST POP PUSH1 0x0 SWAP4 POP DUP6 JUMPDEST PUSH2 0x587 PUSH1 0x40 MLOAD DUP1 PUSH1 0xA0 ADD PUSH1 0x40 MSTORE DUP1 DUP11 PUSH1 0x1 PUSH1 0x1 PUSH1 0xA0 SHL SUB AND DUP2 MSTORE PUSH1 0x20 ADD DUP10 PUSH1 0x1 PUSH1 0x1 PUSH1 0xA0 SHL SUB AND DUP2 MSTORE PUSH1 0x20 ADD DUP12 PUSH1 0x20 ADD MLOAD DUP8 DUP10 PUSH1 0x40 MLOAD PUSH1 0x20 ADD PUSH2 0x8F8 SWAP4 SWAP3 SWAP2 SWAP1 PUSH2 0x18E7 JUMP JUMPDEST PUSH1 0x40 MLOAD PUSH1 0x20 DUP2 DUP4 SUB SUB DUP2 MSTORE SWAP1 PUSH1 0x40 MSTORE DUP2 MSTORE PUSH1 0x20 ADD DUP12 PUSH1 0x20 ADD MLOAD DUP8 DUP10 ISZERO PUSH1 0x40 MLOAD PUSH1 0x20 ADD PUSH2 0x926 SWAP4 SWAP3 SWAP2 SWAP1 PUSH2 0x18E7 JUMP JUMPDEST PUSH1 0x40 DUP1 MLOAD PUSH1 0x1F NOT DUP2 DUP5 SUB ADD DUP2 MSTORE SWAP2 DUP2 MSTORE SWAP1 DUP3 MSTORE ADDRESS PUSH1 0x20 SWAP1 DUP2 SHL PUSH4 0xCD85E7B5 OR SWAP1 SWAP2 SHL SWAP2 ADD MSTORE DUP8 PUSH2 0xC8D JUMP JUMPDEST PUSH1 0x0 DUP1 DUP3 MLOAD PUSH1 0x40 EQ PUSH2 0x968 JUMPI POP PUSH1 0x0 SWAP1 POP DUP1 PUSH2 0x981 JUMP JUMPDEST DUP3 DUP1 PUSH1 0x20 ADD SWAP1 MLOAD DUP2 ADD SWAP1 PUSH2 0x97C SWAP2 SWAP1 PUSH2 0x180F JUMP JUMPDEST SWAP2 POP SWAP2 POP JUMPDEST SWAP2 POP SWAP2 JUMP JUMPDEST PUSH1 0x60 DUP3 DUP3 PUSH1 0x40 MLOAD PUSH1 0x20 ADD PUSH2 0x99B SWAP3 SWAP2 SWAP1 PUSH2 0x1948 JUMP JUMPDEST PUSH1 0x40 MLOAD PUSH1 0x20 DUP2 DUP4 SUB SUB DUP2 MSTORE SWAP1 PUSH1 0x40 MSTORE SWAP1 POP DUP1 MLOAD PUSH1 0x20 DUP3 ADD REVERT JUMPDEST PUSH1 0x60 DUP3 DUP2 ADD MLOAD DUP4 MLOAD PUSH1 0x20 DUP6 ADD MLOAD PUSH1 0x40 DUP1 DUP8 ADD MLOAD SWAP1 MLOAD PUSH4 0xFA7F81F PUSH1 0xE1 SHL DUP2 MSTORE DUP6 SWAP5 ADDRESS SWAP5 PUSH4 0x1F4FF03E SWAP5 PUSH2 0xA00 SWAP5 PUSH1 0xA0 SWAP4 SWAP1 SWAP4 SHL PUSH1 0x1 PUSH1 0x1 PUSH1 0xE0 SHL SUB NOT AND SWAP4 SWAP2 SWAP3 SWAP1 SWAP2 DUP11 SWAP1 PUSH1 0x4 ADD PUSH2 0x19B6 JUMP JUMPDEST PUSH1 0x0 PUSH1 0x40 MLOAD DUP1 DUP4 SUB DUP2 PUSH1 0x0 DUP8 DUP1 EXTCODESIZE ISZERO DUP1 ISZERO PUSH2 0xA1A JUMPI PUSH1 0x0 DUP1 REVERT JUMPDEST POP GAS CALL SWAP3 POP POP POP DUP1 ISZERO PUSH2 0xA2B JUMPI POP PUSH1 0x1 JUMPDEST PUSH2 0x393 JUMPI RETURNDATASIZE DUP1 DUP1 ISZERO PUSH2 0xA59 JUMPI PUSH1 0x40 MLOAD SWAP2 POP PUSH1 0x1F NOT PUSH1 0x3F RETURNDATASIZE ADD AND DUP3 ADD PUSH1 0x40 MSTORE RETURNDATASIZE DUP3 MSTORE RETURNDATASIZE PUSH1 0x0 PUSH1 0x20 DUP5 ADD RETURNDATACOPY PUSH2 0xA5E JUMP JUMPDEST PUSH1 0x60 SWAP2 POP JUMPDEST POP DUP1 DUP1 PUSH1 0x20 ADD SWAP1 MLOAD DUP2 ADD SWAP1 PUSH2 0xA73 SWAP2 SWAP1 PUSH2 0x1591 JUMP JUMPDEST SWAP4 POP SWAP2 POP PUSH2 0xA7E SWAP1 POP JUMP JUMPDEST SWAP3 POP SWAP3 SWAP1 POP JUMP JUMPDEST DUP1 MLOAD PUSH1 0x20 DUP3 ADD REVERT JUMPDEST PUSH1 0x40 MLOAD DUP3 DUP2 MSTORE DUP2 PUSH1 0x20 DUP3 ADD MSTORE PUSH1 0x40 DUP2 REVERT JUMPDEST PUSH1 0x0 DUP1 PUSH1 0x0 DUP1 DUP5 DUP1 PUSH1 0x20 ADD SWAP1 MLOAD DUP2 ADD SWAP1 PUSH2 0xAB8 SWAP2 SWAP1 PUSH2 0x1706 JUMP JUMPDEST SWAP2 SWAP5 POP SWAP3 POP SWAP1 POP PUSH2 0xAD3 PUSH1 0x1 PUSH1 0x1 PUSH1 0xA0 SHL SUB DUP9 AND DUP4 DUP9 PUSH2 0x10FC JUMP JUMPDEST DUP1 ISZERO PUSH2 0xB70 JUMPI PUSH1 0x40 DUP1 MLOAD PUSH1 0x0 DUP2 MSTORE PUSH1 0x20 DUP2 ADD SWAP2 DUP3 SWAP1 MSTORE PUSH4 0x8DAE7333 PUSH1 0xE0 SHL SWAP1 SWAP2 MSTORE PUSH1 0x1 PUSH1 0x1 PUSH1 0xA0 SHL SUB DUP4 AND SWAP1 PUSH4 0x8DAE7333 SWAP1 PUSH2 0xB17 SWAP1 DUP10 SWAP1 PUSH1 0x1 SWAP1 PUSH1 0x24 DUP2 ADD PUSH2 0x1ABE JUMP JUMPDEST PUSH1 0x20 PUSH1 0x40 MLOAD DUP1 DUP4 SUB DUP2 PUSH1 0x0 DUP8 DUP1 EXTCODESIZE ISZERO DUP1 ISZERO PUSH2 0xB31 JUMPI PUSH1 0x0 DUP1 REVERT JUMPDEST POP GAS CALL ISZERO DUP1 ISZERO PUSH2 0xB45 JUMPI RETURNDATASIZE PUSH1 0x0 DUP1 RETURNDATACOPY RETURNDATASIZE PUSH1 0x0 REVERT JUMPDEST POP POP POP POP PUSH1 0x40 MLOAD RETURNDATASIZE PUSH1 0x1F NOT PUSH1 0x1F DUP3 ADD AND DUP3 ADD DUP1 PUSH1 0x40 MSTORE POP DUP2 ADD SWAP1 PUSH2 0xB69 SWAP2 SWAP1 PUSH2 0x17F7 JUMP JUMPDEST SWAP4 POP PUSH2 0xC82 JUMP JUMPDEST PUSH1 0x40 MLOAD PUSH4 0xCA19EBD9 PUSH1 0xE0 SHL DUP2 MSTORE PUSH1 0x1 PUSH1 0x1 PUSH1 0xA0 SHL SUB DUP5 AND SWAP1 PUSH4 0xCA19EBD9 SWAP1 PUSH2 0xB9E SWAP1 DUP6 SWAP1 DUP11 SWAP1 PUSH1 0x4 ADD PUSH2 0x18B4 JUMP JUMPDEST PUSH1 0x20 PUSH1 0x40 MLOAD DUP1 DUP4 SUB DUP2 DUP7 DUP1 EXTCODESIZE ISZERO DUP1 ISZERO PUSH2 0xBB6 JUMPI PUSH1 0x0 DUP1 REVERT JUMPDEST POP GAS STATICCALL ISZERO DUP1 ISZERO PUSH2 0xBCA JUMPI RETURNDATASIZE PUSH1 0x0 DUP1 RETURNDATACOPY RETURNDATASIZE PUSH1 0x0 REVERT JUMPDEST POP POP POP POP PUSH1 0x40 MLOAD RETURNDATASIZE PUSH1 0x1F NOT PUSH1 0x1F DUP3 ADD AND DUP3 ADD DUP1 PUSH1 0x40 MSTORE POP DUP2 ADD SWAP1 PUSH2 0xBEE SWAP2 SWAP1 PUSH2 0x17F7 JUMP JUMPDEST PUSH1 0x40 DUP1 MLOAD PUSH1 0x0 DUP2 MSTORE PUSH1 0x20 DUP2 ADD SWAP2 DUP3 SWAP1 MSTORE PUSH4 0x733E7383 PUSH1 0xE1 SHL SWAP1 SWAP2 MSTORE SWAP1 SWAP5 POP PUSH1 0x1 PUSH1 0x1 PUSH1 0xA0 SHL SUB DUP4 AND SWAP1 PUSH4 0xE67CE706 SWAP1 PUSH2 0xC2E SWAP1 DUP8 SWAP1 DUP11 SWAP1 PUSH1 0x24 DUP2 ADD PUSH2 0x1ABE JUMP JUMPDEST PUSH1 0x20 PUSH1 0x40 MLOAD DUP1 DUP4 SUB DUP2 PUSH1 0x0 DUP8 DUP1 EXTCODESIZE ISZERO DUP1 ISZERO PUSH2 0xC48 JUMPI PUSH1 0x0 DUP1 REVERT JUMPDEST POP GAS CALL ISZERO DUP1 ISZERO PUSH2 0xC5C JUMPI RETURNDATASIZE PUSH1 0x0 DUP1 RETURNDATACOPY RETURNDATASIZE PUSH1 0x0 REVERT JUMPDEST POP POP POP POP PUSH1 0x40 MLOAD RETURNDATASIZE PUSH1 0x1F NOT PUSH1 0x1F DUP3 ADD AND DUP3 ADD DUP1 PUSH1 0x40 MSTORE POP DUP2 ADD SWAP1 PUSH2 0xC80 SWAP2 SWAP1 PUSH2 0x17F7 JUMP JUMPDEST POP JUMPDEST POP POP POP JUMPDEST SWAP4 SWAP3 POP POP POP JUMP JUMPDEST PUSH1 0x60 DUP1 DUP3 MLOAD PUSH8 0xFFFFFFFFFFFFFFFF DUP2 GT DUP1 ISZERO PUSH2 0xCA8 JUMPI PUSH1 0x0 DUP1 REVERT JUMPDEST POP PUSH1 0x40 MLOAD SWAP1 DUP1 DUP3 MSTORE DUP1 PUSH1 0x20 MUL PUSH1 0x20 ADD DUP3 ADD PUSH1 0x40 MSTORE DUP1 ISZERO PUSH2 0xCD2 JUMPI DUP2 PUSH1 0x20 ADD PUSH1 0x20 DUP3 MUL DUP1 CALLDATASIZE DUP4 CALLDATACOPY ADD SWAP1 POP JUMPDEST POP SWAP1 POP DUP3 MLOAD PUSH8 0xFFFFFFFFFFFFFFFF DUP2 GT DUP1 ISZERO PUSH2 0xCED JUMPI PUSH1 0x0 DUP1 REVERT JUMPDEST POP PUSH1 0x40 MLOAD SWAP1 DUP1 DUP3 MSTORE DUP1 PUSH1 0x20 MUL PUSH1 0x20 ADD DUP3 ADD PUSH1 0x40 MSTORE DUP1 ISZERO PUSH2 0xD17 JUMPI DUP2 PUSH1 0x20 ADD PUSH1 0x20 DUP3 MUL DUP1 CALLDATASIZE DUP4 CALLDATACOPY ADD SWAP1 POP JUMPDEST POP SWAP2 POP DUP3 MLOAD PUSH1 0x0 EQ ISZERO PUSH2 0xD29 JUMPI PUSH2 0xA7E JUMP JUMPDEST PUSH1 0x40 DUP1 MLOAD PUSH1 0x1 DUP1 DUP3 MSTORE DUP2 DUP4 ADD SWAP1 SWAP3 MSTORE PUSH1 0x60 SWAP2 PUSH1 0x20 DUP1 DUP4 ADD SWAP1 DUP1 CALLDATASIZE DUP4 CALLDATACOPY ADD SWAP1 POP POP SWAP1 POP DUP4 PUSH1 0x0 DUP2 MLOAD DUP2 LT PUSH2 0xD58 JUMPI INVALID JUMPDEST PUSH1 0x20 MUL PUSH1 0x20 ADD ADD MLOAD DUP2 PUSH1 0x0 DUP2 MLOAD DUP2 LT PUSH2 0xD6D JUMPI INVALID JUMPDEST PUSH1 0x20 MUL PUSH1 0x20 ADD ADD DUP2 DUP2 MSTORE POP POP PUSH2 0xD81 PUSH2 0x13B0 JUMP JUMPDEST POP PUSH1 0x40 DUP1 MLOAD PUSH1 0x80 DUP1 DUP3 ADD DUP4 MSTORE DUP8 MLOAD PUSH1 0x1 PUSH1 0x1 PUSH1 0xA0 SHL SUB SWAP1 DUP2 AND DUP4 MSTORE PUSH1 0x20 DUP1 DUP11 ADD MLOAD SWAP1 SWAP2 AND SWAP1 DUP4 ADD MSTORE DUP8 DUP4 ADD MLOAD DUP3 DUP5 ADD MSTORE DUP8 ADD MLOAD PUSH5 0x100000000 PUSH1 0x1 PUSH1 0xC0 SHL SUB SWAP1 DUP4 SHR SWAP1 DUP2 AND PUSH4 0xFFFFFFFF SWAP1 SWAP2 AND OR SWAP1 SWAP2 SHL PUSH1 0x60 DUP3 ADD MSTORE PUSH2 0xDDF PUSH2 0x13B0 JUMP JUMPDEST PUSH1 0x40 MLOAD DUP1 PUSH1 0x80 ADD PUSH1 0x40 MSTORE DUP1 DUP9 PUSH1 0x20 ADD MLOAD PUSH1 0x1 PUSH1 0x1 PUSH1 0xA0 SHL SUB AND DUP2 MSTORE PUSH1 0x20 ADD DUP9 PUSH1 0x0 ADD MLOAD PUSH1 0x1 PUSH1 0x1 PUSH1 0xA0 SHL SUB AND DUP2 MSTORE PUSH1 0x20 ADD DUP9 PUSH1 0x60 ADD MLOAD DUP2 MSTORE PUSH1 0x20 ADD DUP9 PUSH1 0x80 ADD MLOAD DUP1 PUSH1 0x60 SHR SWAP1 PUSH1 0x40 SHR PUSH4 0xFFFFFFFF AND PUSH4 0xFFFFFFFF AND SWAP1 PUSH1 0x20 SHL OR PUSH1 0x40 SHL DUP2 MSTORE POP SWAP1 POP PUSH2 0xE4A DUP2 DUP5 PUSH2 0x9B4 JUMP JUMPDEST SWAP1 POP DUP1 SWAP4 POP POP DUP3 PUSH1 0x0 DUP2 MLOAD DUP2 LT PUSH2 0xE5D JUMPI INVALID JUMPDEST PUSH1 0x20 MUL PUSH1 0x20 ADD ADD MLOAD PUSH1 0x0 EQ ISZERO PUSH2 0xE75 JUMPI POP POP POP PUSH2 0xA7E JUMP JUMPDEST PUSH1 0x60 PUSH2 0xE81 DUP4 DUP6 PUSH2 0x9B4 JUMP JUMPDEST SWAP1 POP DUP1 SWAP2 POP POP DUP1 PUSH1 0x0 DUP2 MLOAD DUP2 LT PUSH2 0xE94 JUMPI INVALID JUMPDEST PUSH1 0x20 MUL PUSH1 0x20 ADD ADD MLOAD PUSH1 0x0 EQ ISZERO PUSH2 0xEAD JUMPI POP POP POP POP PUSH2 0xA7E JUMP JUMPDEST PUSH1 0x0 JUMPDEST DUP8 MLOAD DUP2 LT ISZERO PUSH2 0x10F0 JUMPI PUSH1 0x60 PUSH1 0x0 JUMPDEST PUSH1 0x5 DUP2 LT ISZERO PUSH2 0x1069 JUMPI PUSH2 0xF0D DUP11 DUP5 DUP2 MLOAD DUP2 LT PUSH2 0xED6 JUMPI INVALID JUMPDEST PUSH1 0x20 MUL PUSH1 0x20 ADD ADD MLOAD DUP6 PUSH1 0x0 DUP2 MLOAD DUP2 LT PUSH2 0xEEB JUMPI INVALID JUMPDEST PUSH1 0x20 MUL PUSH1 0x20 ADD ADD MLOAD DUP10 PUSH1 0x0 DUP2 MLOAD DUP2 LT PUSH2 0xF00 JUMPI INVALID JUMPDEST PUSH1 0x20 MUL PUSH1 0x20 ADD ADD MLOAD PUSH2 0x1194 JUMP JUMPDEST DUP8 PUSH1 0x0 DUP2 MLOAD DUP2 LT PUSH2 0xF1A JUMPI INVALID JUMPDEST PUSH1 0x20 MUL PUSH1 0x20 ADD ADD DUP2 DUP2 MSTORE POP POP DUP7 PUSH1 0x0 DUP2 MLOAD DUP2 LT PUSH2 0xF33 JUMPI INVALID JUMPDEST PUSH1 0x20 MUL PUSH1 0x20 ADD ADD MLOAD PUSH1 0x0 EQ ISZERO PUSH2 0xF48 JUMPI PUSH2 0x1069 JUMP JUMPDEST PUSH2 0xF61 PUSH1 0x5 PUSH2 0x2710 ADD PUSH2 0x2710 DUP10 PUSH1 0x0 DUP2 MLOAD DUP2 LT PUSH2 0xF00 JUMPI INVALID JUMPDEST DUP8 PUSH1 0x0 DUP2 MLOAD DUP2 LT PUSH2 0xF6E JUMPI INVALID JUMPDEST PUSH1 0x20 MUL PUSH1 0x20 ADD ADD DUP2 DUP2 MSTORE POP POP DUP7 PUSH1 0x0 DUP2 MLOAD DUP2 LT PUSH2 0xF87 JUMPI INVALID JUMPDEST PUSH1 0x20 MUL PUSH1 0x20 ADD ADD MLOAD PUSH1 0x0 EQ ISZERO PUSH2 0xF9C JUMPI PUSH2 0x1069 JUMP JUMPDEST PUSH1 0x60 PUSH2 0xFA8 DUP8 DUP10 PUSH2 0x9B4 JUMP JUMPDEST DUP1 MLOAD SWAP2 SWAP5 POP SWAP2 POP DUP2 SWAP1 PUSH1 0x0 SWAP1 PUSH2 0xFBA JUMPI INVALID JUMPDEST PUSH1 0x20 MUL PUSH1 0x20 ADD ADD MLOAD PUSH1 0x0 EQ ISZERO PUSH2 0xFD0 JUMPI POP PUSH2 0x1069 JUMP JUMPDEST DUP1 SWAP5 POP DUP11 DUP5 DUP2 MLOAD DUP2 LT PUSH2 0xFDF JUMPI INVALID JUMPDEST PUSH1 0x20 MUL PUSH1 0x20 ADD ADD MLOAD DUP6 PUSH1 0x0 DUP2 MLOAD DUP2 LT PUSH2 0xFF4 JUMPI INVALID JUMPDEST PUSH1 0x20 MUL PUSH1 0x20 ADD ADD MLOAD LT PUSH2 0x1060 JUMPI PUSH1 0x0 DUP12 DUP6 DUP2 MLOAD DUP2 LT PUSH2 0x100F JUMPI INVALID JUMPDEST PUSH1 0x20 MUL PUSH1 0x20 ADD ADD MLOAD PUSH2 0x2710 DUP14 DUP8 DUP2 MLOAD DUP2 LT PUSH2 0x1026 JUMPI INVALID JUMPDEST PUSH1 0x20 MUL PUSH1 0x20 ADD ADD MLOAD DUP9 PUSH1 0x0 DUP2 MLOAD DUP2 LT PUSH2 0x103B JUMPI INVALID JUMPDEST PUSH1 0x20 MUL PUSH1 0x20 ADD ADD MLOAD SUB MUL DUP2 PUSH2 0x104C JUMPI INVALID JUMPDEST DIV SWAP1 POP PUSH1 0x5 DUP2 GT PUSH2 0x105E JUMPI POP POP PUSH2 0x1069 JUMP JUMPDEST POP JUMPDEST POP PUSH1 0x1 ADD PUSH2 0xEBE JUMP JUMPDEST POP DUP1 PUSH1 0x0 DUP2 MLOAD DUP2 LT PUSH2 0x1077 JUMPI INVALID JUMPDEST PUSH1 0x20 MUL PUSH1 0x20 ADD ADD MLOAD DUP9 DUP4 DUP2 MLOAD DUP2 LT PUSH2 0x108B JUMPI INVALID JUMPDEST PUSH1 0x20 MUL PUSH1 0x20 ADD ADD DUP2 DUP2 MSTORE POP POP PUSH2 0x10D0 DUP10 DUP4 DUP2 MLOAD DUP2 LT PUSH2 0x10A6 JUMPI INVALID JUMPDEST PUSH1 0x20 MUL PUSH1 0x20 ADD ADD MLOAD DUP5 PUSH1 0x0 DUP2 MLOAD DUP2 LT PUSH2 0x10BB JUMPI INVALID JUMPDEST PUSH1 0x20 MUL PUSH1 0x20 ADD ADD MLOAD DUP9 PUSH1 0x0 DUP2 MLOAD DUP2 LT PUSH2 0xF00 JUMPI INVALID JUMPDEST DUP8 DUP4 DUP2 MLOAD DUP2 LT PUSH2 0x10DC JUMPI INVALID JUMPDEST PUSH1 0x20 SWAP1 DUP2 MUL SWAP2 SWAP1 SWAP2 ADD ADD MSTORE POP PUSH1 0x1 ADD PUSH2 0xEB0 JUMP JUMPDEST POP POP POP POP POP SWAP3 POP SWAP3 SWAP1 POP JUMP JUMPDEST PUSH1 0x40 MLOAD PUSH4 0x6EB1769F PUSH1 0xE1 SHL DUP2 MSTORE DUP2 SWAP1 PUSH1 0x1 PUSH1 0x1 PUSH1 0xA0 SHL SUB DUP6 AND SWAP1 PUSH4 0xDD62ED3E SWAP1 PUSH2 0x112C SWAP1 ADDRESS SWAP1 DUP8 SWAP1 PUSH1 0x4 ADD PUSH2 0x18CD JUMP JUMPDEST PUSH1 0x20 PUSH1 0x40 MLOAD DUP1 DUP4 SUB DUP2 DUP7 DUP1 EXTCODESIZE ISZERO DUP1 ISZERO PUSH2 0x1144 JUMPI PUSH1 0x0 DUP1 REVERT JUMPDEST POP GAS STATICCALL ISZERO DUP1 ISZERO PUSH2 0x1158 JUMPI RETURNDATASIZE PUSH1 0x0 DUP1 RETURNDATACOPY RETURNDATASIZE PUSH1 0x0 REVERT JUMPDEST POP POP POP POP PUSH1 0x40 MLOAD RETURNDATASIZE PUSH1 0x1F NOT PUSH1 0x1F DUP3 ADD AND DUP3 ADD DUP1 PUSH1 0x40 MSTORE POP DUP2 ADD SWAP1 PUSH2 0x117C SWAP2 SWAP1 PUSH2 0x17F7 JUMP JUMPDEST LT ISZERO PUSH2 0x118F JUMPI PUSH2 0x118F DUP4 DUP4 PUSH1 0x0 NOT PUSH2 0x11EC JUMP JUMPDEST POP POP POP JUMP JUMPDEST PUSH1 0x0 DUP4 ISZERO DUP1 PUSH2 0x11A1 JUMPI POP DUP2 ISZERO JUMPDEST DUP1 PUSH2 0x11AA JUMPI POP DUP3 ISZERO JUMPDEST ISZERO PUSH2 0x11B7 JUMPI POP PUSH1 0x0 PUSH2 0xC86 JUMP JUMPDEST DUP4 DUP3 MUL DUP3 DUP6 DUP3 DUP2 PUSH2 0x11C4 JUMPI INVALID JUMPDEST DIV EQ PUSH2 0x11D4 JUMPI PUSH1 0x0 SWAP2 POP POP PUSH2 0xC86 JUMP JUMPDEST DUP4 PUSH1 0x1 DUP6 SUB DUP3 ADD DUP2 PUSH2 0x11E2 JUMPI INVALID JUMPDEST DIV SWAP6 SWAP5 POP POP POP POP POP JUMP JUMPDEST PUSH1 0x60 PUSH4 0x95EA7B3 PUSH1 0xE0 SHL DUP4 DUP4 PUSH1 0x40 MLOAD PUSH1 0x24 ADD PUSH2 0x1209 SWAP3 SWAP2 SWAP1 PUSH2 0x18B4 JUMP JUMPDEST PUSH1 0x40 DUP1 MLOAD PUSH1 0x1F NOT DUP2 DUP5 SUB ADD DUP2 MSTORE SWAP2 SWAP1 MSTORE PUSH1 0x20 DUP2 ADD DUP1 MLOAD PUSH1 0x1 PUSH1 0x1 PUSH1 0xE0 SHL SUB AND PUSH1 0x1 PUSH1 0x1 PUSH1 0xE0 SHL SUB NOT SWAP1 SWAP4 AND SWAP3 SWAP1 SWAP3 OR SWAP1 SWAP2 MSTORE SWAP1 POP PUSH2 0x1247 DUP5 DUP3 PUSH2 0x124D JUMP JUMPDEST POP POP POP POP JUMP JUMPDEST PUSH1 0x0 PUSH1 0x60 DUP4 PUSH1 0x1 PUSH1 0x1 PUSH1 0xA0 SHL SUB AND DUP4 PUSH1 0x40 MLOAD PUSH2 0x1269 SWAP2 SWAP1 PUSH2 0x1898 JUMP JUMPDEST PUSH1 0x0 PUSH1 0x40 MLOAD DUP1 DUP4 SUB DUP2 PUSH1 0x0 DUP7 GAS CALL SWAP2 POP POP RETURNDATASIZE DUP1 PUSH1 0x0 DUP2 EQ PUSH2 0x12A6 JUMPI PUSH1 0x40 MLOAD SWAP2 POP PUSH1 0x1F NOT PUSH1 0x3F RETURNDATASIZE ADD AND DUP3 ADD PUSH1 0x40 MSTORE RETURNDATASIZE DUP3 MSTORE RETURNDATASIZE PUSH1 0x0 PUSH1 0x20 DUP5 ADD RETURNDATACOPY PUSH2 0x12AB JUMP JUMPDEST PUSH1 0x60 SWAP2 POP JUMPDEST POP SWAP2 POP SWAP2 POP DUP2 DUP1 ISZERO PUSH2 0x12C1 JUMPI POP PUSH2 0x12C1 DUP2 PUSH2 0x12DA JUMP JUMPDEST ISZERO PUSH2 0x12CD JUMPI POP POP PUSH2 0x12D6 JUMP JUMPDEST PUSH2 0x1247 DUP2 PUSH2 0xA85 JUMP JUMPDEST POP POP JUMP JUMPDEST PUSH1 0x0 DUP2 MLOAD PUSH1 0x0 EQ ISZERO PUSH2 0x12EE JUMPI POP PUSH1 0x1 PUSH2 0x131B JUMP JUMPDEST PUSH1 0x20 DUP3 MLOAD LT PUSH2 0x131B JUMPI PUSH1 0x0 PUSH2 0x1304 DUP4 PUSH1 0x0 PUSH2 0x1320 JUMP JUMPDEST SWAP1 POP DUP1 PUSH1 0x1 EQ ISZERO PUSH2 0x1319 JUMPI PUSH1 0x1 SWAP2 POP POP PUSH2 0x131B JUMP JUMPDEST POP JUMPDEST SWAP2 SWAP1 POP JUMP JUMPDEST PUSH1 0x0 PUSH2 0xC86 DUP4 DUP4 PUSH1 0x0 DUP2 PUSH1 0x20 ADD DUP4 MLOAD LT ISZERO PUSH2 0x134D JUMPI PUSH2 0x134D PUSH2 0x1348 PUSH1 0x5 DUP6 MLOAD DUP6 PUSH1 0x20 ADD PUSH2 0x1356 JUMP JUMPDEST PUSH2 0xA85 JUMP JUMPDEST POP ADD PUSH1 0x20 ADD MLOAD SWAP1 JUMP JUMPDEST PUSH1 0x60 PUSH4 0x28006595 PUSH1 0xE0 SHL DUP5 DUP5 DUP5 PUSH1 0x40 MLOAD PUSH1 0x24 ADD PUSH2 0x1375 SWAP4 SWAP3 SWAP2 SWAP1 PUSH2 0x1A5E JUMP JUMPDEST PUSH1 0x40 DUP1 MLOAD PUSH1 0x1F NOT DUP2 DUP5 SUB ADD DUP2 MSTORE SWAP2 SWAP1 MSTORE PUSH1 0x20 DUP2 ADD DUP1 MLOAD PUSH1 0x1 PUSH1 0x1 PUSH1 0xE0 SHL SUB AND PUSH1 0x1 PUSH1 0x1 PUSH1 0xE0 SHL SUB NOT SWAP1 SWAP4 AND SWAP3 SWAP1 SWAP3 OR SWAP1 SWAP2 MSTORE SWAP1 POP SWAP4 SWAP3 POP POP POP JUMP JUMPDEST PUSH1 0x40 DUP1 MLOAD PUSH1 0x80 DUP2 ADD DUP3 MSTORE PUSH1 0x0 DUP1 DUP3 MSTORE PUSH1 0x20 DUP3 ADD DUP2 SWAP1 MSTORE PUSH1 0x60 SWAP3 DUP3 ADD DUP4 SWAP1 MSTORE SWAP2 DUP2 ADD SWAP2 SWAP1 SWAP2 MSTORE SWAP1 JUMP JUMPDEST PUSH1 0x0 DUP3 PUSH1 0x1F DUP4 ADD SLT PUSH2 0x13E8 JUMPI DUP1 DUP2 REVERT JUMPDEST DUP2 CALLDATALOAD PUSH2 0x13FB PUSH2 0x13F6 DUP3 PUSH2 0x1B04 JUMP JUMPDEST PUSH2 0x1ADD JUMP JUMPDEST DUP2 DUP2 MSTORE SWAP2 POP PUSH1 0x20 DUP1 DUP4 ADD SWAP1 DUP5 DUP2 ADD DUP2 DUP5 MUL DUP7 ADD DUP3 ADD DUP8 LT ISZERO PUSH2 0x141C JUMPI PUSH1 0x0 DUP1 REVERT JUMPDEST PUSH1 0x0 JUMPDEST DUP5 DUP2 LT ISZERO PUSH2 0x143B JUMPI DUP2 CALLDATALOAD DUP5 MSTORE SWAP3 DUP3 ADD SWAP3 SWAP1 DUP3 ADD SWAP1 PUSH1 0x1 ADD PUSH2 0x141F JUMP JUMPDEST POP POP POP POP POP SWAP3 SWAP2 POP POP JUMP JUMPDEST PUSH1 0x0 DUP3 PUSH1 0x1F DUP4 ADD SLT PUSH2 0x1456 JUMPI DUP1 DUP2 REVERT JUMPDEST DUP2 MLOAD PUSH2 0x1464 PUSH2 0x13F6 DUP3 PUSH2 0x1B04 JUMP JUMPDEST DUP2 DUP2 MSTORE SWAP2 POP PUSH1 0x20 DUP1 DUP4 ADD SWAP1 DUP5 DUP2 ADD DUP2 DUP5 MUL DUP7 ADD DUP3 ADD DUP8 LT ISZERO PUSH2 0x1485 JUMPI PUSH1 0x0 DUP1 REVERT JUMPDEST PUSH1 0x0 JUMPDEST DUP5 DUP2 LT ISZERO PUSH2 0x143B JUMPI DUP2 MLOAD DUP5 MSTORE SWAP3 DUP3 ADD SWAP3 SWAP1 DUP3 ADD SWAP1 PUSH1 0x1 ADD PUSH2 0x1488 JUMP JUMPDEST PUSH1 0x0 DUP3 PUSH1 0x1F DUP4 ADD SLT PUSH2 0x14B4 JUMPI DUP1 DUP2 REVERT JUMPDEST DUP2 CALLDATALOAD PUSH8 0xFFFFFFFFFFFFFFFF DUP2 GT ISZERO PUSH2 0x14CA JUMPI DUP2 DUP3 REVERT JUMPDEST PUSH2 0x14DD PUSH1 0x1F DUP3 ADD PUSH1 0x1F NOT AND PUSH1 0x20 ADD PUSH2 0x1ADD JUMP JUMPDEST SWAP2 POP DUP1 DUP3 MSTORE DUP4 PUSH1 0x20 DUP3 DUP6 ADD ADD GT ISZERO PUSH2 0x14F4 JUMPI PUSH1 0x0 DUP1 REVERT JUMPDEST DUP1 PUSH1 0x20 DUP5 ADD PUSH1 0x20 DUP5 ADD CALLDATACOPY PUSH1 0x0 SWAP1 DUP3 ADD PUSH1 0x20 ADD MSTORE SWAP3 SWAP2 POP POP JUMP JUMPDEST PUSH1 0x0 PUSH1 0x20 DUP3 DUP5 SUB SLT ISZERO PUSH2 0x151E JUMPI DUP1 DUP2 REVERT JUMPDEST DUP2 MLOAD PUSH2 0xC86 DUP2 PUSH2 0x1B50 JUMP JUMPDEST PUSH1 0x0 DUP1 PUSH1 0x0 DUP1 PUSH1 0x80 DUP6 DUP8 SUB SLT ISZERO PUSH2 0x153E JUMPI DUP3 DUP4 REVERT JUMPDEST DUP5 CALLDATALOAD PUSH2 0x1549 DUP2 PUSH2 0x1B50 JUMP JUMPDEST SWAP4 POP PUSH1 0x20 DUP6 ADD CALLDATALOAD PUSH2 0x1559 DUP2 PUSH2 0x1B50 JUMP JUMPDEST SWAP3 POP PUSH1 0x40 DUP6 ADD CALLDATALOAD PUSH8 0xFFFFFFFFFFFFFFFF DUP2 GT ISZERO PUSH2 0x1574 JUMPI DUP3 DUP4 REVERT JUMPDEST PUSH2 0x1580 DUP8 DUP3 DUP9 ADD PUSH2 0x14A4 JUMP JUMPDEST SWAP5 SWAP8 SWAP4 SWAP7 POP SWAP4 SWAP5 PUSH1 0x60 ADD CALLDATALOAD SWAP4 POP POP POP JUMP JUMPDEST PUSH1 0x0 DUP1 PUSH1 0x40 DUP4 DUP6 SUB SLT ISZERO PUSH2 0x15A3 JUMPI DUP2 DUP3 REVERT JUMPDEST DUP3 MLOAD PUSH8 0xFFFFFFFFFFFFFFFF DUP1 DUP3 GT ISZERO PUSH2 0x15BA JUMPI DUP4 DUP5 REVERT JUMPDEST PUSH2 0x15C6 DUP7 DUP4 DUP8 ADD PUSH2 0x1446 JUMP JUMPDEST SWAP4 POP PUSH1 0x20 DUP6 ADD MLOAD SWAP2 POP DUP1 DUP3 GT ISZERO PUSH2 0x15DB JUMPI DUP3 DUP4 REVERT JUMPDEST POP PUSH2 0x15E8 DUP6 DUP3 DUP7 ADD PUSH2 0x1446 JUMP JUMPDEST SWAP2 POP POP SWAP3 POP SWAP3 SWAP1 POP JUMP JUMPDEST PUSH1 0x0 DUP1 PUSH1 0x0 DUP1 PUSH1 0x0 PUSH1 0xA0 DUP7 DUP9 SUB SLT ISZERO PUSH2 0x1609 JUMPI DUP1 DUP2 REVERT JUMPDEST DUP6 CALLDATALOAD PUSH2 0x1614 DUP2 PUSH2 0x1B68 JUMP JUMPDEST SWAP5 POP PUSH1 0x20 DUP7 ADD CALLDATALOAD PUSH2 0x1624 DUP2 PUSH2 0x1B50 JUMP JUMPDEST SWAP4 POP PUSH1 0x40 DUP7 ADD CALLDATALOAD PUSH2 0x1634 DUP2 PUSH2 0x1B50 JUMP JUMPDEST SWAP3 POP PUSH1 0x60 DUP7 ADD CALLDATALOAD PUSH8 0xFFFFFFFFFFFFFFFF DUP1 DUP3 GT ISZERO PUSH2 0x1650 JUMPI DUP3 DUP4 REVERT JUMPDEST PUSH2 0x165C DUP10 DUP4 DUP11 ADD PUSH2 0x14A4 JUMP JUMPDEST SWAP4 POP PUSH1 0x80 DUP9 ADD CALLDATALOAD SWAP2 POP DUP1 DUP3 GT ISZERO PUSH2 0x1671 JUMPI DUP3 DUP4 REVERT JUMPDEST POP PUSH2 0x167E DUP9 DUP3 DUP10 ADD PUSH2 0x13D8 JUMP JUMPDEST SWAP2 POP POP SWAP3 SWAP6 POP SWAP3 SWAP6 SWAP1 SWAP4 POP JUMP JUMPDEST PUSH1 0x0 DUP1 PUSH1 0x0 DUP1 PUSH1 0x0 PUSH1 0xA0 DUP7 DUP9 SUB SLT ISZERO PUSH2 0x16A2 JUMPI DUP1 DUP2 REVERT JUMPDEST DUP6 CALLDATALOAD PUSH2 0x16AD DUP2 PUSH2 0x1B68 JUMP JUMPDEST SWAP5 POP PUSH1 0x20 DUP7 ADD CALLDATALOAD PUSH2 0x16BD DUP2 PUSH2 0x1B50 JUMP JUMPDEST SWAP4 POP PUSH1 0x40 DUP7 ADD CALLDATALOAD PUSH2 0x16CD DUP2 PUSH2 0x1B50 JUMP JUMPDEST SWAP3 POP PUSH1 0x60 DUP7 ADD CALLDATALOAD PUSH8 0xFFFFFFFFFFFFFFFF DUP2 GT ISZERO PUSH2 0x16E8 JUMPI DUP2 DUP3 REVERT JUMPDEST PUSH2 0x16F4 DUP9 DUP3 DUP10 ADD PUSH2 0x14A4 JUMP JUMPDEST SWAP6 SWAP9 SWAP5 SWAP8 POP SWAP3 SWAP6 PUSH1 0x80 ADD CALLDATALOAD SWAP4 SWAP3 POP POP POP JUMP JUMPDEST PUSH1 0x0 DUP1 PUSH1 0x0 PUSH1 0x60 DUP5 DUP7 SUB SLT ISZERO PUSH2 0x171A JUMPI DUP3 DUP4 REVERT JUMPDEST DUP4 MLOAD PUSH2 0x1725 DUP2 PUSH2 0x1B50 JUMP JUMPDEST PUSH1 0x20 DUP6 ADD MLOAD SWAP1 SWAP4 POP PUSH2 0x1736 DUP2 PUSH2 0x1B50 JUMP JUMPDEST PUSH1 0x40 DUP6 ADD MLOAD SWAP1 SWAP3 POP DUP1 ISZERO ISZERO DUP2 EQ PUSH2 0x174B JUMPI DUP2 DUP3 REVERT JUMPDEST DUP1 SWAP2 POP POP SWAP3 POP SWAP3 POP SWAP3 JUMP JUMPDEST PUSH1 0x0 DUP1 PUSH1 0x0 DUP1 DUP5 DUP7 SUB PUSH1 0xA0 DUP2 SLT ISZERO PUSH2 0x176C JUMPI DUP5 DUP6 REVERT JUMPDEST PUSH1 0x40 DUP2 SLT ISZERO PUSH2 0x1779 JUMPI DUP5 DUP6 REVERT JUMPDEST POP PUSH2 0x1784 PUSH1 0x40 PUSH2 0x1ADD JUMP JUMPDEST DUP6 CALLDATALOAD PUSH2 0x178F DUP2 PUSH2 0x1B50 JUMP JUMPDEST DUP2 MSTORE PUSH1 0x20 DUP7 ADD CALLDATALOAD PUSH2 0x179F DUP2 PUSH2 0x1B50 JUMP JUMPDEST PUSH1 0x20 DUP3 ADD MSTORE SWAP4 POP PUSH1 0x40 DUP6 ADD CALLDATALOAD PUSH2 0x17B4 DUP2 PUSH2 0x1B50 JUMP JUMPDEST SWAP3 POP PUSH1 0x60 DUP6 ADD CALLDATALOAD PUSH2 0x17C4 DUP2 PUSH2 0x1B50 JUMP JUMPDEST SWAP2 POP PUSH1 0x80 DUP6 ADD CALLDATALOAD PUSH8 0xFFFFFFFFFFFFFFFF DUP2 GT ISZERO PUSH2 0x17DF JUMPI DUP2 DUP3 REVERT JUMPDEST PUSH2 0x17EB DUP8 DUP3 DUP9 ADD PUSH2 0x13D8 JUMP JUMPDEST SWAP2 POP POP SWAP3 SWAP6 SWAP2 SWAP5 POP SWAP3 POP JUMP JUMPDEST PUSH1 0x0 PUSH1 0x20 DUP3 DUP5 SUB SLT ISZERO PUSH2 0x1808 JUMPI DUP1 DUP2 REVERT JUMPDEST POP MLOAD SWAP2 SWAP1 POP JUMP JUMPDEST PUSH1 0x0 DUP1 PUSH1 0x40 DUP4 DUP6 SUB SLT ISZERO PUSH2 0x1821 JUMPI DUP2 DUP3 REVERT JUMPDEST POP POP DUP1 MLOAD PUSH1 0x20 SWAP1 SWAP2 ADD MLOAD SWAP1 SWAP3 SWAP1 SWAP2 POP JUMP JUMPDEST PUSH1 0x0 DUP2 MLOAD DUP1 DUP5 MSTORE PUSH1 0x20 DUP1 DUP6 ADD SWAP5 POP DUP1 DUP5 ADD DUP4 JUMPDEST DUP4 DUP2 LT ISZERO PUSH2 0x1861 JUMPI DUP2 MLOAD DUP8 MSTORE SWAP6 DUP3 ADD SWAP6 SWAP1 DUP3 ADD SWAP1 PUSH1 0x1 ADD PUSH2 0x1845 JUMP JUMPDEST POP SWAP5 SWAP6 SWAP5 POP POP POP POP POP JUMP JUMPDEST PUSH1 0x0 DUP2 MLOAD DUP1 DUP5 MSTORE PUSH2 0x1884 DUP2 PUSH1 0x20 DUP7 ADD PUSH1 0x20 DUP7 ADD PUSH2 0x1B24 JUMP JUMPDEST PUSH1 0x1F ADD PUSH1 0x1F NOT AND SWAP3 SWAP1 SWAP3 ADD PUSH1 0x20 ADD SWAP3 SWAP2 POP POP JUMP JUMPDEST PUSH1 0x0 DUP3 MLOAD PUSH2 0x18AA DUP2 DUP5 PUSH1 0x20 DUP8 ADD PUSH2 0x1B24 JUMP JUMPDEST SWAP2 SWAP1 SWAP2 ADD SWAP3 SWAP2 POP POP JUMP JUMPDEST PUSH1 0x1 PUSH1 0x1 PUSH1 0xA0 SHL SUB SWAP3 SWAP1 SWAP3 AND DUP3 MSTORE PUSH1 0x20 DUP3 ADD MSTORE PUSH1 0x40 ADD SWAP1 JUMP JUMPDEST PUSH1 0x1 PUSH1 0x1 PUSH1 0xA0 SHL SUB SWAP3 DUP4 AND DUP2 MSTORE SWAP2 AND PUSH1 0x20 DUP3 ADD MSTORE PUSH1 0x40 ADD SWAP1 JUMP JUMPDEST PUSH1 0x1 PUSH1 0x1 PUSH1 0xA0 SHL SUB SWAP4 DUP5 AND DUP2 MSTORE SWAP2 SWAP1 SWAP3 AND PUSH1 0x20 DUP3 ADD MSTORE SWAP1 ISZERO ISZERO PUSH1 0x40 DUP3 ADD MSTORE PUSH1 0x60 ADD SWAP1 JUMP JUMPDEST PUSH1 0x1 PUSH1 0x1 PUSH1 0xA0 SHL SUB DUP6 DUP2 AND DUP3 MSTORE DUP5 AND PUSH1 0x20 DUP3 ADD MSTORE PUSH1 0x80 PUSH1 0x40 DUP3 ADD DUP2 SWAP1 MSTORE PUSH1 0x0 SWAP1 PUSH2 0x1937 SWAP1 DUP4 ADD DUP6 PUSH2 0x186C JUMP JUMPDEST SWAP1 POP DUP3 PUSH1 0x60 DUP4 ADD MSTORE SWAP6 SWAP5 POP POP POP POP POP JUMP JUMPDEST PUSH1 0x0 PUSH1 0x40 DUP3 MSTORE PUSH2 0x195B PUSH1 0x40 DUP4 ADD DUP6 PUSH2 0x1832 JUMP JUMPDEST DUP3 DUP2 SUB PUSH1 0x20 DUP5 ADD MSTORE PUSH2 0x766 DUP2 DUP6 PUSH2 0x1832 JUMP JUMPDEST DUP5 ISZERO ISZERO DUP2 MSTORE PUSH1 0x1 PUSH1 0x1 PUSH1 0xA0 SHL SUB DUP5 AND PUSH1 0x20 DUP3 ADD MSTORE PUSH1 0x80 PUSH1 0x40 DUP3 ADD DUP2 SWAP1 MSTORE PUSH1 0x0 SWAP1 PUSH2 0x1999 SWAP1 DUP4 ADD DUP6 PUSH2 0x1832 JUMP JUMPDEST DUP3 DUP2 SUB PUSH1 0x60 DUP5 ADD MSTORE PUSH2 0x19AB DUP2 DUP6 PUSH2 0x1832 JUMP JUMPDEST SWAP8 SWAP7 POP POP POP POP POP POP POP JUMP JUMPDEST PUSH1 0x1 PUSH1 0x1 PUSH1 0xE0 SHL SUB NOT DUP7 AND DUP2 MSTORE PUSH1 0x1 PUSH1 0x1 PUSH1 0xA0 SHL SUB DUP6 DUP2 AND PUSH1 0x20 DUP4 ADD MSTORE DUP5 AND PUSH1 0x40 DUP3 ADD MSTORE PUSH1 0xA0 PUSH1 0x60 DUP3 ADD DUP2 SWAP1 MSTORE PUSH1 0x0 SWAP1 PUSH2 0x19F2 SWAP1 DUP4 ADD DUP6 PUSH2 0x186C JUMP JUMPDEST DUP3 DUP2 SUB PUSH1 0x80 DUP5 ADD MSTORE PUSH2 0x1A04 DUP2 DUP6 PUSH2 0x1832 JUMP JUMPDEST SWAP9 SWAP8 POP POP POP POP POP POP POP POP JUMP JUMPDEST PUSH1 0x1 PUSH1 0x1 PUSH1 0xE0 SHL SUB NOT DUP7 AND DUP2 MSTORE PUSH1 0x1 PUSH1 0x1 PUSH1 0xA0 SHL SUB DUP6 DUP2 AND PUSH1 0x20 DUP4 ADD MSTORE DUP5 AND PUSH1 0x40 DUP3 ADD MSTORE PUSH1 0xA0 PUSH1 0x60 DUP3 ADD DUP2 SWAP1 MSTORE PUSH1 0x0 SWAP1 PUSH2 0x1A4C SWAP1 DUP4 ADD DUP6 PUSH2 0x186C JUMP JUMPDEST SWAP1 POP DUP3 PUSH1 0x80 DUP4 ADD MSTORE SWAP7 SWAP6 POP POP POP POP POP POP JUMP JUMPDEST PUSH1 0x60 DUP2 ADD PUSH1 0x8 DUP6 LT PUSH2 0x1A6C JUMPI INVALID JUMPDEST SWAP4 DUP2 MSTORE PUSH1 0x20 DUP2 ADD SWAP3 SWAP1 SWAP3 MSTORE PUSH1 0x40 SWAP1 SWAP2 ADD MSTORE SWAP1 JUMP JUMPDEST PUSH1 0x20 DUP1 DUP3 MSTORE DUP2 DUP2 ADD MSTORE PUSH32 0x537761702053616D706C652073686F756C642068617665207265766572746564 PUSH1 0x40 DUP3 ADD MSTORE PUSH1 0x60 ADD SWAP1 JUMP JUMPDEST SWAP1 DUP2 MSTORE PUSH1 0x20 ADD SWAP1 JUMP JUMPDEST PUSH1 0x0 DUP5 DUP3 MSTORE DUP4 PUSH1 0x20 DUP4 ADD MSTORE PUSH1 0x60 PUSH1 0x40 DUP4 ADD MSTORE PUSH2 0x766 PUSH1 0x60 DUP4 ADD DUP5 PUSH2 0x186C JUMP JUMPDEST PUSH1 0x40 MLOAD DUP2 DUP2 ADD PUSH8 0xFFFFFFFFFFFFFFFF DUP2 GT DUP3 DUP3 LT OR ISZERO PUSH2 0x1AFC JUMPI PUSH1 0x0 DUP1 REVERT JUMPDEST PUSH1 0x40 MSTORE SWAP2 SWAP1 POP JUMP JUMPDEST PUSH1 0x0 PUSH8 0xFFFFFFFFFFFFFFFF DUP3 GT ISZERO PUSH2 0x1B1A JUMPI DUP1 DUP2 REVERT JUMPDEST POP PUSH1 0x20 SWAP1 DUP2 MUL ADD SWAP1 JUMP JUMPDEST PUSH1 0x0 JUMPDEST DUP4 DUP2 LT ISZERO PUSH2 0x1B3F JUMPI DUP2 DUP2 ADD MLOAD DUP4 DUP3 ADD MSTORE PUSH1 0x20 ADD PUSH2 0x1B27 JUMP JUMPDEST DUP4 DUP2 GT ISZERO PUSH2 0x1247 JUMPI POP POP PUSH1 0x0 SWAP2 ADD MSTORE JUMP JUMPDEST PUSH1 0x1 PUSH1 0x1 PUSH1 0xA0 SHL SUB DUP2 AND DUP2 EQ PUSH2 0x1B65 JUMPI PUSH1 0x0 DUP1 REVERT JUMPDEST POP JUMP JUMPDEST PUSH1 0x1 PUSH1 0x1 PUSH1 0xE0 SHL SUB NOT DUP2 AND DUP2 EQ PUSH2 0x1B65 JUMPI PUSH1 0x0 DUP1 REVERT INVALID LOG2 PUSH5 0x6970667358 0x22 SLT KECCAK256 0xCC 0xD8 0xB1 0xD0 0x2A DUP6 SLOAD 0xB7 LOG4 COINBASE PUSH26 0xD4E90EA830C24C3BDB51B445A2BB725C44F423C9F864736F6C63 NUMBER STOP MOD 0xC STOP CALLER "
            }
        }
    },
    "sourceTreeHashHex": "0x8b145b50854ff12af3df8e92c26f71c9c95ade008f97913882c9446d6b4ecd1f",
    "compiler": {
        "name": "solc",
        "version": "0.6.12+commit.27d51765",
        "settings": {
            "remappings": [
                "@0x/contracts-zero-ex=/Users/jacob/projects/ethdev/0x/workspace-remote/workspace/0x-monorepo/packages/asset-swapper/node_modules/@0x/contracts-zero-ex",
                "@0x/contracts-erc20=/Users/jacob/projects/ethdev/0x/workspace-remote/workspace/0x-monorepo/packages/asset-swapper/node_modules/@0x/contracts-erc20",
                "@0x/contracts-utils=/Users/jacob/projects/ethdev/0x/workspace-remote/workspace/0x-monorepo/packages/asset-swapper/node_modules/@0x/contracts-utils"
            ],
            "optimizer": {
                "enabled": true,
                "runs": 200,
                "details": {
                    "yul": true,
                    "deduplicate": true
                }
            },
            "outputSelection": {
                "*": {
                    "*": [
                        "abi",
                        "devdoc",
                        "evm.bytecode.object",
                        "evm.bytecode.sourceMap",
                        "evm.deployedBytecode.object",
                        "evm.deployedBytecode.sourceMap"
                    ]
                }
            },
            "evmVersion": "istanbul"
        }
    },
    "chains": {}
}