{
    "schemaVersion": "2.0.0",
    "contractName": "ERC20BridgeSampler",
    "compilerOutput": {
        "abi": [
            {
                "inputs": [
                    {
                        "internalType": "contract IEtherTokenV06",
                        "name": "weth",
                        "type": "address"
                    }
                ],
                "stateMutability": "nonpayable",
                "type": "constructor"
            },
            {
                "inputs": [],
                "name": "BANCOR_ETH_ADDRESS",
                "outputs": [
                    {
                        "internalType": "contract IERC20TokenV06",
                        "name": "",
                        "type": "address"
                    }
                ],
                "stateMutability": "view",
                "type": "function"
            },
            {
                "inputs": [
                    {
                        "internalType": "bytes4",
                        "name": "selector",
                        "type": "bytes4"
                    },
                    {
                        "internalType": "address",
                        "name": "sellToken",
                        "type": "address"
                    },
                    {
                        "internalType": "address",
                        "name": "buyToken",
                        "type": "address"
                    },
                    {
                        "internalType": "bytes",
                        "name": "bridgeData",
                        "type": "bytes"
                    },
                    {
                        "internalType": "uint256",
                        "name": "amountIn",
                        "type": "uint256"
                    }
                ],
                "name": "_callRevert",
                "outputs": [],
                "stateMutability": "nonpayable",
                "type": "function"
            },
            {
                "inputs": [
                    {
                        "internalType": "bytes4",
                        "name": "selector",
                        "type": "bytes4"
                    },
                    {
                        "internalType": "address",
                        "name": "sellToken",
                        "type": "address"
                    },
                    {
                        "internalType": "address",
                        "name": "buyToken",
                        "type": "address"
                    },
                    {
                        "internalType": "bytes",
                        "name": "bridgeData",
                        "type": "bytes"
                    },
                    {
                        "internalType": "uint256[]",
                        "name": "amountsIn",
                        "type": "uint256[]"
                    }
                ],
                "name": "_mintCallRevert",
                "outputs": [],
                "stateMutability": "nonpayable",
                "type": "function"
            },
            {
                "inputs": [
                    {
                        "internalType": "bytes[]",
                        "name": "callDatas",
                        "type": "bytes[]"
                    }
                ],
                "name": "batchCall",
                "outputs": [
                    {
                        "components": [
                            {
                                "internalType": "bytes",
                                "name": "data",
                                "type": "bytes"
                            },
                            {
                                "internalType": "bool",
                                "name": "success",
                                "type": "bool"
                            }
                        ],
                        "internalType": "struct ERC20BridgeSampler.CallResults[]",
                        "name": "callResults",
                        "type": "tuple[]"
                    }
                ],
                "stateMutability": "payable",
                "type": "function"
            },
            {
                "inputs": [
                    {
                        "components": [
                            {
                                "internalType": "uint256",
                                "name": "reserveOffset",
                                "type": "uint256"
                            },
                            {
                                "internalType": "address",
                                "name": "hintHandler",
                                "type": "address"
                            },
                            {
                                "internalType": "address",
                                "name": "networkProxy",
                                "type": "address"
                            },
                            {
                                "internalType": "address",
                                "name": "weth",
                                "type": "address"
                            },
                            {
                                "internalType": "bytes",
                                "name": "hint",
                                "type": "bytes"
                            }
                        ],
                        "internalType": "struct KyberSampler.KyberSamplerOpts",
                        "name": "opts",
                        "type": "tuple"
                    },
                    {
                        "internalType": "bytes32",
                        "name": "reserveId",
                        "type": "bytes32"
                    },
                    {
                        "internalType": "address",
                        "name": "takerToken",
                        "type": "address"
                    },
                    {
                        "internalType": "address",
                        "name": "makerToken",
                        "type": "address"
                    }
                ],
                "name": "encodeKyberHint",
                "outputs": [
                    {
                        "internalType": "bytes",
                        "name": "hint",
                        "type": "bytes"
                    }
                ],
                "stateMutability": "view",
                "type": "function"
            },
            {
                "inputs": [
                    {
                        "internalType": "contract IERC20TokenV06[]",
                        "name": "tokens",
                        "type": "address[]"
                    },
                    {
                        "internalType": "address",
                        "name": "account",
                        "type": "address"
                    },
                    {
                        "internalType": "address",
                        "name": "spender",
                        "type": "address"
                    }
                ],
                "name": "getAllowanceOf",
                "outputs": [
                    {
                        "internalType": "uint256[]",
                        "name": "allowances",
                        "type": "uint256[]"
                    }
                ],
                "stateMutability": "view",
                "type": "function"
            },
            {
                "inputs": [
                    {
                        "internalType": "contract IERC20TokenV06[]",
                        "name": "tokens",
                        "type": "address[]"
                    },
                    {
                        "internalType": "address",
                        "name": "account",
                        "type": "address"
                    }
                ],
                "name": "getBalanceOf",
                "outputs": [
                    {
                        "internalType": "uint256[]",
                        "name": "balances",
                        "type": "uint256[]"
                    }
                ],
                "stateMutability": "view",
                "type": "function"
            },
            {
                "inputs": [
                    {
                        "internalType": "address",
                        "name": "addr",
                        "type": "address"
                    }
                ],
                "name": "getCode",
                "outputs": [
                    {
                        "internalType": "bytes",
                        "name": "code",
                        "type": "bytes"
                    }
                ],
                "stateMutability": "view",
                "type": "function"
            },
            {
                "inputs": [
                    {
                        "components": [
                            {
                                "internalType": "contract IERC20TokenV06",
                                "name": "makerToken",
                                "type": "address"
                            },
                            {
                                "internalType": "contract IERC20TokenV06",
                                "name": "takerToken",
                                "type": "address"
                            },
                            {
                                "internalType": "uint128",
                                "name": "makerAmount",
                                "type": "uint128"
                            },
                            {
                                "internalType": "uint128",
                                "name": "takerAmount",
                                "type": "uint128"
                            },
                            {
                                "internalType": "uint128",
                                "name": "takerTokenFeeAmount",
                                "type": "uint128"
                            },
                            {
                                "internalType": "address",
                                "name": "maker",
                                "type": "address"
                            },
                            {
                                "internalType": "address",
                                "name": "taker",
                                "type": "address"
                            },
                            {
                                "internalType": "address",
                                "name": "sender",
                                "type": "address"
                            },
                            {
                                "internalType": "address",
                                "name": "feeRecipient",
                                "type": "address"
                            },
                            {
                                "internalType": "bytes32",
                                "name": "pool",
                                "type": "bytes32"
                            },
                            {
                                "internalType": "uint64",
                                "name": "expiry",
                                "type": "uint64"
                            },
                            {
                                "internalType": "uint256",
                                "name": "salt",
                                "type": "uint256"
                            }
                        ],
                        "internalType": "struct IExchange.LimitOrder[]",
                        "name": "orders",
                        "type": "tuple[]"
                    },
                    {
                        "components": [
                            {
                                "internalType": "enum IExchange.SignatureType",
                                "name": "signatureType",
                                "type": "uint8"
                            },
                            {
                                "internalType": "uint8",
                                "name": "v",
                                "type": "uint8"
                            },
                            {
                                "internalType": "bytes32",
                                "name": "r",
                                "type": "bytes32"
                            },
                            {
                                "internalType": "bytes32",
                                "name": "s",
                                "type": "bytes32"
                            }
                        ],
                        "internalType": "struct IExchange.Signature[]",
                        "name": "orderSignatures",
                        "type": "tuple[]"
                    },
                    {
                        "internalType": "contract IExchange",
                        "name": "exchange",
                        "type": "address"
                    }
                ],
                "name": "getLimitOrderFillableMakerAssetAmounts",
                "outputs": [
                    {
                        "internalType": "uint256[]",
                        "name": "orderFillableMakerAssetAmounts",
                        "type": "uint256[]"
                    }
                ],
                "stateMutability": "view",
                "type": "function"
            },
            {
                "inputs": [
                    {
                        "components": [
                            {
                                "internalType": "contract IERC20TokenV06",
                                "name": "makerToken",
                                "type": "address"
                            },
                            {
                                "internalType": "contract IERC20TokenV06",
                                "name": "takerToken",
                                "type": "address"
                            },
                            {
                                "internalType": "uint128",
                                "name": "makerAmount",
                                "type": "uint128"
                            },
                            {
                                "internalType": "uint128",
                                "name": "takerAmount",
                                "type": "uint128"
                            },
                            {
                                "internalType": "uint128",
                                "name": "takerTokenFeeAmount",
                                "type": "uint128"
                            },
                            {
                                "internalType": "address",
                                "name": "maker",
                                "type": "address"
                            },
                            {
                                "internalType": "address",
                                "name": "taker",
                                "type": "address"
                            },
                            {
                                "internalType": "address",
                                "name": "sender",
                                "type": "address"
                            },
                            {
                                "internalType": "address",
                                "name": "feeRecipient",
                                "type": "address"
                            },
                            {
                                "internalType": "bytes32",
                                "name": "pool",
                                "type": "bytes32"
                            },
                            {
                                "internalType": "uint64",
                                "name": "expiry",
                                "type": "uint64"
                            },
                            {
                                "internalType": "uint256",
                                "name": "salt",
                                "type": "uint256"
                            }
                        ],
                        "internalType": "struct IExchange.LimitOrder",
                        "name": "order",
                        "type": "tuple"
                    },
                    {
                        "components": [
                            {
                                "internalType": "enum IExchange.SignatureType",
                                "name": "signatureType",
                                "type": "uint8"
                            },
                            {
                                "internalType": "uint8",
                                "name": "v",
                                "type": "uint8"
                            },
                            {
                                "internalType": "bytes32",
                                "name": "r",
                                "type": "bytes32"
                            },
                            {
                                "internalType": "bytes32",
                                "name": "s",
                                "type": "bytes32"
                            }
                        ],
                        "internalType": "struct IExchange.Signature",
                        "name": "signature",
                        "type": "tuple"
                    },
                    {
                        "internalType": "contract IExchange",
                        "name": "exchange",
                        "type": "address"
                    }
                ],
                "name": "getLimitOrderFillableTakerAmount",
                "outputs": [
                    {
                        "internalType": "uint256",
                        "name": "fillableTakerAmount",
                        "type": "uint256"
                    }
                ],
                "stateMutability": "view",
                "type": "function"
            },
            {
                "inputs": [
                    {
                        "components": [
                            {
                                "internalType": "contract IERC20TokenV06",
                                "name": "makerToken",
                                "type": "address"
                            },
                            {
                                "internalType": "contract IERC20TokenV06",
                                "name": "takerToken",
                                "type": "address"
                            },
                            {
                                "internalType": "uint128",
                                "name": "makerAmount",
                                "type": "uint128"
                            },
                            {
                                "internalType": "uint128",
                                "name": "takerAmount",
                                "type": "uint128"
                            },
                            {
                                "internalType": "uint128",
                                "name": "takerTokenFeeAmount",
                                "type": "uint128"
                            },
                            {
                                "internalType": "address",
                                "name": "maker",
                                "type": "address"
                            },
                            {
                                "internalType": "address",
                                "name": "taker",
                                "type": "address"
                            },
                            {
                                "internalType": "address",
                                "name": "sender",
                                "type": "address"
                            },
                            {
                                "internalType": "address",
                                "name": "feeRecipient",
                                "type": "address"
                            },
                            {
                                "internalType": "bytes32",
                                "name": "pool",
                                "type": "bytes32"
                            },
                            {
                                "internalType": "uint64",
                                "name": "expiry",
                                "type": "uint64"
                            },
                            {
                                "internalType": "uint256",
                                "name": "salt",
                                "type": "uint256"
                            }
                        ],
                        "internalType": "struct IExchange.LimitOrder[]",
                        "name": "orders",
                        "type": "tuple[]"
                    },
                    {
                        "components": [
                            {
                                "internalType": "enum IExchange.SignatureType",
                                "name": "signatureType",
                                "type": "uint8"
                            },
                            {
                                "internalType": "uint8",
                                "name": "v",
                                "type": "uint8"
                            },
                            {
                                "internalType": "bytes32",
                                "name": "r",
                                "type": "bytes32"
                            },
                            {
                                "internalType": "bytes32",
                                "name": "s",
                                "type": "bytes32"
                            }
                        ],
                        "internalType": "struct IExchange.Signature[]",
                        "name": "orderSignatures",
                        "type": "tuple[]"
                    },
                    {
                        "internalType": "contract IExchange",
                        "name": "exchange",
                        "type": "address"
                    }
                ],
                "name": "getLimitOrderFillableTakerAssetAmounts",
                "outputs": [
                    {
                        "internalType": "uint256[]",
                        "name": "orderFillableTakerAssetAmounts",
                        "type": "uint256[]"
                    }
                ],
                "stateMutability": "view",
                "type": "function"
            },
            {
                "inputs": [
                    {
                        "internalType": "contract IERC20TokenV06[]",
                        "name": "tokens",
                        "type": "address[]"
                    }
                ],
                "name": "getTokenDecimals",
                "outputs": [
                    {
                        "internalType": "uint256[]",
                        "name": "decimals",
                        "type": "uint256[]"
                    }
                ],
                "stateMutability": "view",
                "type": "function"
            },
            {
                "inputs": [
                    {
                        "internalType": "address",
                        "name": "account",
                        "type": "address"
                    }
                ],
                "name": "isContract",
                "outputs": [
                    {
                        "internalType": "bool",
                        "name": "",
                        "type": "bool"
                    }
                ],
                "stateMutability": "view",
                "type": "function"
            },
            {
                "inputs": [
                    {
                        "internalType": "address",
                        "name": "poolAddress",
                        "type": "address"
                    },
                    {
                        "internalType": "address",
                        "name": "takerToken",
                        "type": "address"
                    },
                    {
                        "internalType": "address",
                        "name": "makerToken",
                        "type": "address"
                    },
                    {
                        "internalType": "uint256[]",
                        "name": "makerTokenAmounts",
                        "type": "uint256[]"
                    }
                ],
                "name": "sampleBuysFromBalancer",
                "outputs": [
                    {
                        "internalType": "uint256[]",
                        "name": "gasUsed",
                        "type": "uint256[]"
                    },
                    {
                        "internalType": "uint256[]",
                        "name": "takerTokenAmounts",
                        "type": "uint256[]"
                    }
                ],
                "stateMutability": "nonpayable",
                "type": "function"
            },
            {
                "inputs": [
                    {
                        "components": [
                            {
                                "internalType": "contract IBalancerV2Vault",
                                "name": "vault",
                                "type": "address"
                            },
                            {
                                "internalType": "bytes32",
                                "name": "poolId",
                                "type": "bytes32"
                            }
                        ],
                        "internalType": "struct MixinBalancerV2.BalancerV2BridgeData",
                        "name": "poolInfo",
                        "type": "tuple"
                    },
                    {
                        "internalType": "address",
                        "name": "takerToken",
                        "type": "address"
                    },
                    {
                        "internalType": "address",
                        "name": "makerToken",
                        "type": "address"
                    },
                    {
                        "internalType": "uint256[]",
                        "name": "makerTokenAmounts",
                        "type": "uint256[]"
                    }
                ],
                "name": "sampleBuysFromBalancerV2",
                "outputs": [
                    {
                        "internalType": "uint256[]",
                        "name": "gasUsed",
                        "type": "uint256[]"
                    },
                    {
                        "internalType": "uint256[]",
                        "name": "takerTokenAmounts",
                        "type": "uint256[]"
                    }
                ],
                "stateMutability": "nonpayable",
                "type": "function"
            },
            {
                "inputs": [
                    {
                        "components": [
                            {
                                "internalType": "contract IBancorRegistry",
                                "name": "registry",
                                "type": "address"
                            },
                            {
                                "internalType": "address[][]",
                                "name": "paths",
                                "type": "address[][]"
                            }
                        ],
                        "internalType": "struct BancorSampler.BancorSamplerOpts",
                        "name": "opts",
                        "type": "tuple"
                    },
                    {
                        "internalType": "address",
                        "name": "takerToken",
                        "type": "address"
                    },
                    {
                        "internalType": "address",
                        "name": "makerToken",
                        "type": "address"
                    },
                    {
                        "internalType": "uint256[]",
                        "name": "makerTokenAmounts",
                        "type": "uint256[]"
                    }
                ],
                "name": "sampleBuysFromBancor",
                "outputs": [
                    {
                        "internalType": "address",
                        "name": "bancorNetwork",
                        "type": "address"
                    },
                    {
                        "internalType": "address[]",
                        "name": "path",
                        "type": "address[]"
                    },
                    {
                        "internalType": "uint256[]",
                        "name": "gasUsed",
                        "type": "uint256[]"
                    },
                    {
                        "internalType": "uint256[]",
                        "name": "takerTokenAmounts",
                        "type": "uint256[]"
                    }
                ],
                "stateMutability": "view",
                "type": "function"
            },
            {
                "inputs": [
                    {
                        "components": [
                            {
                                "internalType": "address",
                                "name": "curveAddress",
                                "type": "address"
                            },
                            {
                                "internalType": "bytes4",
                                "name": "exchangeFunctionSelector",
                                "type": "bytes4"
                            },
                            {
                                "internalType": "int128",
                                "name": "fromCoinIdx",
                                "type": "int128"
                            },
                            {
                                "internalType": "int128",
                                "name": "toCoinIdx",
                                "type": "int128"
                            }
                        ],
                        "internalType": "struct MixinCurve.CurveBridgeData",
                        "name": "curveInfo",
                        "type": "tuple"
                    },
                    {
                        "internalType": "address",
                        "name": "takerToken",
                        "type": "address"
                    },
                    {
                        "internalType": "address",
                        "name": "makerToken",
                        "type": "address"
                    },
                    {
                        "internalType": "uint256[]",
                        "name": "makerTokenAmounts",
                        "type": "uint256[]"
                    }
                ],
                "name": "sampleBuysFromCurve",
                "outputs": [
                    {
                        "internalType": "uint256[]",
                        "name": "gasUsed",
                        "type": "uint256[]"
                    },
                    {
                        "internalType": "uint256[]",
                        "name": "takerTokenAmounts",
                        "type": "uint256[]"
                    }
                ],
                "stateMutability": "nonpayable",
                "type": "function"
            },
            {
                "inputs": [
                    {
                        "components": [
                            {
                                "internalType": "address",
                                "name": "curveAddress",
                                "type": "address"
                            },
                            {
                                "internalType": "bytes4",
                                "name": "exchangeFunctionSelector",
                                "type": "bytes4"
                            },
                            {
                                "internalType": "int128",
                                "name": "fromCoinIdx",
                                "type": "int128"
                            },
                            {
                                "internalType": "int128",
                                "name": "toCoinIdx",
                                "type": "int128"
                            }
                        ],
                        "internalType": "struct MixinCurveV2.CurveBridgeDataV2",
                        "name": "curveInfo",
                        "type": "tuple"
                    },
                    {
                        "internalType": "address",
                        "name": "takerToken",
                        "type": "address"
                    },
                    {
                        "internalType": "address",
                        "name": "makerToken",
                        "type": "address"
                    },
                    {
                        "internalType": "uint256[]",
                        "name": "makerTokenAmounts",
                        "type": "uint256[]"
                    }
                ],
                "name": "sampleBuysFromCurveV2",
                "outputs": [
                    {
                        "internalType": "uint256[]",
                        "name": "gasUsed",
                        "type": "uint256[]"
                    },
                    {
                        "internalType": "uint256[]",
                        "name": "takerTokenAmounts",
                        "type": "uint256[]"
                    }
                ],
                "stateMutability": "nonpayable",
                "type": "function"
            },
            {
                "inputs": [
                    {
                        "components": [
                            {
                                "internalType": "address",
                                "name": "registry",
                                "type": "address"
                            },
                            {
                                "internalType": "address",
                                "name": "helper",
                                "type": "address"
                            }
                        ],
                        "internalType": "struct DODOSampler.DODOSamplerOpts",
                        "name": "opts",
                        "type": "tuple"
                    },
                    {
                        "internalType": "address",
                        "name": "takerToken",
                        "type": "address"
                    },
                    {
                        "internalType": "address",
                        "name": "makerToken",
                        "type": "address"
                    },
                    {
                        "internalType": "uint256[]",
                        "name": "makerTokenAmounts",
                        "type": "uint256[]"
                    }
                ],
                "name": "sampleBuysFromDODO",
                "outputs": [
                    {
                        "internalType": "bool",
                        "name": "sellBase",
                        "type": "bool"
                    },
                    {
                        "internalType": "address",
                        "name": "pool",
                        "type": "address"
                    },
                    {
                        "internalType": "uint256[]",
                        "name": "gasUsed",
                        "type": "uint256[]"
                    },
                    {
                        "internalType": "uint256[]",
                        "name": "takerTokenAmounts",
                        "type": "uint256[]"
                    }
                ],
                "stateMutability": "nonpayable",
                "type": "function"
            },
            {
                "inputs": [
                    {
                        "internalType": "address",
                        "name": "registry",
                        "type": "address"
                    },
                    {
                        "internalType": "uint256",
                        "name": "offset",
                        "type": "uint256"
                    },
                    {
                        "internalType": "address",
                        "name": "takerToken",
                        "type": "address"
                    },
                    {
                        "internalType": "address",
                        "name": "makerToken",
                        "type": "address"
                    },
                    {
                        "internalType": "uint256[]",
                        "name": "makerTokenAmounts",
                        "type": "uint256[]"
                    }
                ],
                "name": "sampleBuysFromDODOV2",
                "outputs": [
                    {
                        "internalType": "bool",
                        "name": "sellBase",
                        "type": "bool"
                    },
                    {
                        "internalType": "address",
                        "name": "pool",
                        "type": "address"
                    },
                    {
                        "internalType": "uint256[]",
                        "name": "gasUsed",
                        "type": "uint256[]"
                    },
                    {
                        "internalType": "uint256[]",
                        "name": "takerTokenAmounts",
                        "type": "uint256[]"
                    }
                ],
                "stateMutability": "nonpayable",
                "type": "function"
            },
            {
                "inputs": [
                    {
                        "internalType": "address",
                        "name": "router",
                        "type": "address"
                    },
                    {
                        "internalType": "address",
                        "name": "takerToken",
                        "type": "address"
                    },
                    {
                        "internalType": "address",
                        "name": "makerToken",
                        "type": "address"
                    },
                    {
                        "internalType": "uint256[]",
                        "name": "makerTokenAmounts",
                        "type": "uint256[]"
                    }
                ],
                "name": "sampleBuysFromEth2Dai",
                "outputs": [
                    {
                        "internalType": "uint256[]",
                        "name": "gasUsed",
                        "type": "uint256[]"
                    },
                    {
                        "internalType": "uint256[]",
                        "name": "takerTokenAmounts",
                        "type": "uint256[]"
                    }
                ],
                "stateMutability": "nonpayable",
                "type": "function"
            },
            {
                "inputs": [
                    {
                        "internalType": "address",
                        "name": "router",
                        "type": "address"
                    },
                    {
                        "internalType": "address[]",
                        "name": "path",
                        "type": "address[]"
                    },
                    {
                        "internalType": "uint256[]",
                        "name": "makerTokenAmounts",
                        "type": "uint256[]"
                    }
                ],
                "name": "sampleBuysFromKyberDmm",
                "outputs": [
                    {
                        "internalType": "address[]",
                        "name": "pools",
                        "type": "address[]"
                    },
                    {
                        "internalType": "uint256[]",
                        "name": "gasUsed",
                        "type": "uint256[]"
                    },
                    {
                        "internalType": "uint256[]",
                        "name": "takerTokenAmounts",
                        "type": "uint256[]"
                    }
                ],
                "stateMutability": "nonpayable",
                "type": "function"
            },
            {
                "inputs": [
                    {
                        "components": [
                            {
                                "internalType": "uint256",
                                "name": "reserveOffset",
                                "type": "uint256"
                            },
                            {
                                "internalType": "address",
                                "name": "hintHandler",
                                "type": "address"
                            },
                            {
                                "internalType": "address",
                                "name": "networkProxy",
                                "type": "address"
                            },
                            {
                                "internalType": "address",
                                "name": "weth",
                                "type": "address"
                            },
                            {
                                "internalType": "bytes",
                                "name": "hint",
                                "type": "bytes"
                            }
                        ],
                        "internalType": "struct KyberSampler.KyberSamplerOpts",
                        "name": "opts",
                        "type": "tuple"
                    },
                    {
                        "internalType": "address",
                        "name": "takerToken",
                        "type": "address"
                    },
                    {
                        "internalType": "address",
                        "name": "makerToken",
                        "type": "address"
                    },
                    {
                        "internalType": "uint256[]",
                        "name": "makerTokenAmounts",
                        "type": "uint256[]"
                    }
                ],
                "name": "sampleBuysFromKyberNetwork",
                "outputs": [
                    {
                        "internalType": "bytes32",
                        "name": "reserveId",
                        "type": "bytes32"
                    },
                    {
                        "internalType": "bytes",
                        "name": "hint",
                        "type": "bytes"
                    },
                    {
                        "internalType": "uint256[]",
                        "name": "gasUsed",
                        "type": "uint256[]"
                    },
                    {
                        "internalType": "uint256[]",
                        "name": "takerTokenAmounts",
                        "type": "uint256[]"
                    }
                ],
                "stateMutability": "nonpayable",
                "type": "function"
            },
            {
                "inputs": [
                    {
                        "internalType": "address",
                        "name": "lido",
                        "type": "address"
                    },
                    {
                        "internalType": "address",
                        "name": "takerToken",
                        "type": "address"
                    },
                    {
                        "internalType": "address",
                        "name": "makerToken",
                        "type": "address"
                    },
                    {
                        "internalType": "uint256[]",
                        "name": "makerTokenAmounts",
                        "type": "uint256[]"
                    }
                ],
                "name": "sampleBuysFromLido",
                "outputs": [
                    {
                        "internalType": "uint256[]",
                        "name": "gasUsed",
                        "type": "uint256[]"
                    },
                    {
                        "internalType": "uint256[]",
                        "name": "takerTokenAmounts",
                        "type": "uint256[]"
                    }
                ],
                "stateMutability": "nonpayable",
                "type": "function"
            },
            {
                "inputs": [
                    {
                        "internalType": "address",
                        "name": "providerAddress",
                        "type": "address"
                    },
                    {
                        "internalType": "address",
                        "name": "takerToken",
                        "type": "address"
                    },
                    {
                        "internalType": "address",
                        "name": "makerToken",
                        "type": "address"
                    },
                    {
                        "internalType": "uint256[]",
                        "name": "makerTokenAmounts",
                        "type": "uint256[]"
                    }
                ],
                "name": "sampleBuysFromLiquidityProvider",
                "outputs": [
                    {
                        "internalType": "uint256[]",
                        "name": "gasUsed",
                        "type": "uint256[]"
                    },
                    {
                        "internalType": "uint256[]",
                        "name": "takerTokenAmounts",
                        "type": "uint256[]"
                    }
                ],
                "stateMutability": "nonpayable",
                "type": "function"
            },
            {
                "inputs": [
                    {
                        "internalType": "address",
                        "name": "router",
                        "type": "address"
                    },
                    {
                        "internalType": "address",
                        "name": "takerToken",
                        "type": "address"
                    },
                    {
                        "internalType": "address",
                        "name": "makerToken",
                        "type": "address"
                    },
                    {
                        "internalType": "uint256[]",
                        "name": "makerTokenAmounts",
                        "type": "uint256[]"
                    }
                ],
                "name": "sampleBuysFromMStable",
                "outputs": [
                    {
                        "internalType": "uint256[]",
                        "name": "gasUsed",
                        "type": "uint256[]"
                    },
                    {
                        "internalType": "uint256[]",
                        "name": "takerTokenAmounts",
                        "type": "uint256[]"
                    }
                ],
                "stateMutability": "nonpayable",
                "type": "function"
            },
            {
                "inputs": [
                    {
                        "components": [
                            {
                                "internalType": "address",
                                "name": "psmAddress",
                                "type": "address"
                            },
                            {
                                "internalType": "bytes32",
                                "name": "ilkIdentifier",
                                "type": "bytes32"
                            },
                            {
                                "internalType": "address",
                                "name": "gemTokenAddress",
                                "type": "address"
                            }
                        ],
                        "internalType": "struct MakerPSMSampler.MakerPsmInfo",
                        "name": "psmInfo",
                        "type": "tuple"
                    },
                    {
                        "internalType": "address",
                        "name": "takerToken",
                        "type": "address"
                    },
                    {
                        "internalType": "address",
                        "name": "makerToken",
                        "type": "address"
                    },
                    {
                        "internalType": "uint256[]",
                        "name": "makerTokenAmounts",
                        "type": "uint256[]"
                    }
                ],
                "name": "sampleBuysFromMakerPsm",
                "outputs": [
                    {
                        "internalType": "uint256[]",
                        "name": "gasUsed",
                        "type": "uint256[]"
                    },
                    {
                        "internalType": "uint256[]",
                        "name": "takerTokenAmounts",
                        "type": "uint256[]"
                    }
                ],
                "stateMutability": "nonpayable",
                "type": "function"
            },
            {
                "inputs": [
                    {
                        "internalType": "address",
                        "name": "registry",
                        "type": "address"
                    },
                    {
                        "internalType": "address",
                        "name": "takerToken",
                        "type": "address"
                    },
                    {
                        "internalType": "address",
                        "name": "makerToken",
                        "type": "address"
                    },
                    {
                        "internalType": "uint256[]",
                        "name": "makerTokenAmounts",
                        "type": "uint256[]"
                    }
                ],
                "name": "sampleBuysFromMooniswap",
                "outputs": [
                    {
                        "internalType": "address",
                        "name": "pool",
                        "type": "address"
                    },
                    {
                        "internalType": "uint256[]",
                        "name": "gasUsed",
                        "type": "uint256[]"
                    },
                    {
                        "internalType": "uint256[]",
                        "name": "takerTokenAmounts",
                        "type": "uint256[]"
                    }
                ],
                "stateMutability": "nonpayable",
                "type": "function"
            },
            {
                "inputs": [
                    {
                        "internalType": "address",
                        "name": "pool",
                        "type": "address"
                    },
                    {
                        "internalType": "address",
                        "name": "takerToken",
                        "type": "address"
                    },
                    {
                        "internalType": "address",
                        "name": "makerToken",
                        "type": "address"
                    },
                    {
                        "internalType": "uint256[]",
                        "name": "makerTokenAmounts",
                        "type": "uint256[]"
                    }
                ],
                "name": "sampleBuysFromShell",
                "outputs": [
                    {
                        "internalType": "uint256[]",
                        "name": "gasUsed",
                        "type": "uint256[]"
                    },
                    {
                        "internalType": "uint256[]",
                        "name": "takerTokenAmounts",
                        "type": "uint256[]"
                    }
                ],
                "stateMutability": "nonpayable",
                "type": "function"
            },
            {
                "inputs": [
                    {
                        "internalType": "address",
                        "name": "router",
                        "type": "address"
                    },
                    {
                        "internalType": "address",
                        "name": "takerToken",
                        "type": "address"
                    },
                    {
                        "internalType": "address",
                        "name": "makerToken",
                        "type": "address"
                    },
                    {
                        "internalType": "uint256[]",
                        "name": "makerTokenAmounts",
                        "type": "uint256[]"
                    }
                ],
                "name": "sampleBuysFromUniswap",
                "outputs": [
                    {
                        "internalType": "uint256[]",
                        "name": "gasUsed",
                        "type": "uint256[]"
                    },
                    {
                        "internalType": "uint256[]",
                        "name": "takerTokenAmounts",
                        "type": "uint256[]"
                    }
                ],
                "stateMutability": "nonpayable",
                "type": "function"
            },
            {
                "inputs": [
                    {
                        "internalType": "address",
                        "name": "router",
                        "type": "address"
                    },
                    {
                        "internalType": "address[]",
                        "name": "path",
                        "type": "address[]"
                    },
                    {
                        "internalType": "uint256[]",
                        "name": "makerTokenAmounts",
                        "type": "uint256[]"
                    }
                ],
                "name": "sampleBuysFromUniswapV2",
                "outputs": [
                    {
                        "internalType": "uint256[]",
                        "name": "gasUsed",
                        "type": "uint256[]"
                    },
                    {
                        "internalType": "uint256[]",
                        "name": "takerTokenAmounts",
                        "type": "uint256[]"
                    }
                ],
                "stateMutability": "nonpayable",
                "type": "function"
            },
            {
                "inputs": [
                    {
                        "internalType": "contract IUniswapV3Quoter",
                        "name": "quoter",
                        "type": "address"
                    },
                    {
                        "internalType": "address",
                        "name": "router",
                        "type": "address"
                    },
                    {
                        "internalType": "contract IERC20TokenV06[]",
                        "name": "path",
                        "type": "address[]"
                    },
                    {
                        "internalType": "uint256[]",
                        "name": "makerTokenAmounts",
                        "type": "uint256[]"
                    }
                ],
                "name": "sampleBuysFromUniswapV3",
                "outputs": [
                    {
                        "internalType": "bytes[]",
                        "name": "uniswapPaths",
                        "type": "bytes[]"
                    },
                    {
                        "internalType": "uint256[]",
                        "name": "gasUsed",
                        "type": "uint256[]"
                    },
                    {
                        "internalType": "uint256[]",
                        "name": "takerTokenAmounts",
                        "type": "uint256[]"
                    }
                ],
                "stateMutability": "nonpayable",
                "type": "function"
            },
            {
                "inputs": [
                    {
                        "internalType": "address",
                        "name": "poolAddress",
                        "type": "address"
                    },
                    {
                        "internalType": "address",
                        "name": "takerToken",
                        "type": "address"
                    },
                    {
                        "internalType": "address",
                        "name": "makerToken",
                        "type": "address"
                    },
                    {
                        "internalType": "uint256[]",
                        "name": "takerTokenAmounts",
                        "type": "uint256[]"
                    }
                ],
                "name": "sampleSellsFromBalancer",
                "outputs": [
                    {
                        "internalType": "uint256[]",
                        "name": "gasUsed",
                        "type": "uint256[]"
                    },
                    {
                        "internalType": "uint256[]",
                        "name": "makerTokenAmounts",
                        "type": "uint256[]"
                    }
                ],
                "stateMutability": "nonpayable",
                "type": "function"
            },
            {
                "inputs": [
                    {
                        "components": [
                            {
                                "internalType": "contract IBalancerV2Vault",
                                "name": "vault",
                                "type": "address"
                            },
                            {
                                "internalType": "bytes32",
                                "name": "poolId",
                                "type": "bytes32"
                            }
                        ],
                        "internalType": "struct MixinBalancerV2.BalancerV2BridgeData",
                        "name": "poolInfo",
                        "type": "tuple"
                    },
                    {
                        "internalType": "address",
                        "name": "takerToken",
                        "type": "address"
                    },
                    {
                        "internalType": "address",
                        "name": "makerToken",
                        "type": "address"
                    },
                    {
                        "internalType": "uint256[]",
                        "name": "takerTokenAmounts",
                        "type": "uint256[]"
                    }
                ],
                "name": "sampleSellsFromBalancerV2",
                "outputs": [
                    {
                        "internalType": "uint256[]",
                        "name": "gasUsed",
                        "type": "uint256[]"
                    },
                    {
                        "internalType": "uint256[]",
                        "name": "makerTokenAmounts",
                        "type": "uint256[]"
                    }
                ],
                "stateMutability": "nonpayable",
                "type": "function"
            },
            {
                "inputs": [
                    {
                        "components": [
                            {
                                "internalType": "contract IBancorRegistry",
                                "name": "registry",
                                "type": "address"
                            },
                            {
                                "internalType": "address[][]",
                                "name": "paths",
                                "type": "address[][]"
                            }
                        ],
                        "internalType": "struct BancorSampler.BancorSamplerOpts",
                        "name": "opts",
                        "type": "tuple"
                    },
                    {
                        "internalType": "address",
                        "name": "takerToken",
                        "type": "address"
                    },
                    {
                        "internalType": "address",
                        "name": "makerToken",
                        "type": "address"
                    },
                    {
                        "internalType": "uint256[]",
                        "name": "takerTokenAmounts",
                        "type": "uint256[]"
                    }
                ],
                "name": "sampleSellsFromBancor",
                "outputs": [
                    {
                        "internalType": "address",
                        "name": "bancorNetwork",
                        "type": "address"
                    },
                    {
                        "internalType": "address[]",
                        "name": "path",
                        "type": "address[]"
                    },
                    {
                        "internalType": "uint256[]",
                        "name": "gasUsed",
                        "type": "uint256[]"
                    },
                    {
                        "internalType": "uint256[]",
                        "name": "makerTokenAmounts",
                        "type": "uint256[]"
                    }
                ],
                "stateMutability": "nonpayable",
                "type": "function"
            },
            {
                "inputs": [
                    {
                        "components": [
                            {
                                "internalType": "address",
                                "name": "curveAddress",
                                "type": "address"
                            },
                            {
                                "internalType": "bytes4",
                                "name": "exchangeFunctionSelector",
                                "type": "bytes4"
                            },
                            {
                                "internalType": "int128",
                                "name": "fromCoinIdx",
                                "type": "int128"
                            },
                            {
                                "internalType": "int128",
                                "name": "toCoinIdx",
                                "type": "int128"
                            }
                        ],
                        "internalType": "struct MixinCurve.CurveBridgeData",
                        "name": "curveInfo",
                        "type": "tuple"
                    },
                    {
                        "internalType": "address",
                        "name": "takerToken",
                        "type": "address"
                    },
                    {
                        "internalType": "address",
                        "name": "makerToken",
                        "type": "address"
                    },
                    {
                        "internalType": "uint256[]",
                        "name": "takerTokenAmounts",
                        "type": "uint256[]"
                    }
                ],
                "name": "sampleSellsFromCurve",
                "outputs": [
                    {
                        "internalType": "uint256[]",
                        "name": "gasUsed",
                        "type": "uint256[]"
                    },
                    {
                        "internalType": "uint256[]",
                        "name": "makerTokenAmounts",
                        "type": "uint256[]"
                    }
                ],
                "stateMutability": "nonpayable",
                "type": "function"
            },
            {
                "inputs": [
                    {
                        "components": [
                            {
                                "internalType": "address",
                                "name": "curveAddress",
                                "type": "address"
                            },
                            {
                                "internalType": "bytes4",
                                "name": "exchangeFunctionSelector",
                                "type": "bytes4"
                            },
                            {
                                "internalType": "int128",
                                "name": "fromCoinIdx",
                                "type": "int128"
                            },
                            {
                                "internalType": "int128",
                                "name": "toCoinIdx",
                                "type": "int128"
                            }
                        ],
                        "internalType": "struct MixinCurveV2.CurveBridgeDataV2",
                        "name": "curveInfo",
                        "type": "tuple"
                    },
                    {
                        "internalType": "address",
                        "name": "takerToken",
                        "type": "address"
                    },
                    {
                        "internalType": "address",
                        "name": "makerToken",
                        "type": "address"
                    },
                    {
                        "internalType": "uint256[]",
                        "name": "takerTokenAmounts",
                        "type": "uint256[]"
                    }
                ],
                "name": "sampleSellsFromCurveV2",
                "outputs": [
                    {
                        "internalType": "uint256[]",
                        "name": "gasUsed",
                        "type": "uint256[]"
                    },
                    {
                        "internalType": "uint256[]",
                        "name": "makerTokenAmounts",
                        "type": "uint256[]"
                    }
                ],
                "stateMutability": "nonpayable",
                "type": "function"
            },
            {
                "inputs": [
                    {
                        "components": [
                            {
                                "internalType": "address",
                                "name": "registry",
                                "type": "address"
                            },
                            {
                                "internalType": "address",
                                "name": "helper",
                                "type": "address"
                            }
                        ],
                        "internalType": "struct DODOSampler.DODOSamplerOpts",
                        "name": "opts",
                        "type": "tuple"
                    },
                    {
                        "internalType": "address",
                        "name": "takerToken",
                        "type": "address"
                    },
                    {
                        "internalType": "address",
                        "name": "makerToken",
                        "type": "address"
                    },
                    {
                        "internalType": "uint256[]",
                        "name": "takerTokenAmounts",
                        "type": "uint256[]"
                    }
                ],
                "name": "sampleSellsFromDODO",
                "outputs": [
                    {
                        "internalType": "bool",
                        "name": "sellBase",
                        "type": "bool"
                    },
                    {
                        "internalType": "address",
                        "name": "pool",
                        "type": "address"
                    },
                    {
                        "internalType": "uint256[]",
                        "name": "gasUsed",
                        "type": "uint256[]"
                    },
                    {
                        "internalType": "uint256[]",
                        "name": "makerTokenAmounts",
                        "type": "uint256[]"
                    }
                ],
                "stateMutability": "nonpayable",
                "type": "function"
            },
            {
                "inputs": [
                    {
                        "internalType": "address",
                        "name": "registry",
                        "type": "address"
                    },
                    {
                        "internalType": "uint256",
                        "name": "offset",
                        "type": "uint256"
                    },
                    {
                        "internalType": "address",
                        "name": "takerToken",
                        "type": "address"
                    },
                    {
                        "internalType": "address",
                        "name": "makerToken",
                        "type": "address"
                    },
                    {
                        "internalType": "uint256[]",
                        "name": "takerTokenAmounts",
                        "type": "uint256[]"
                    }
                ],
                "name": "sampleSellsFromDODOV2",
                "outputs": [
                    {
                        "internalType": "bool",
                        "name": "sellBase",
                        "type": "bool"
                    },
                    {
                        "internalType": "address",
                        "name": "pool",
                        "type": "address"
                    },
                    {
                        "internalType": "uint256[]",
                        "name": "gasUsed",
                        "type": "uint256[]"
                    },
                    {
                        "internalType": "uint256[]",
                        "name": "makerTokenAmounts",
                        "type": "uint256[]"
                    }
                ],
                "stateMutability": "nonpayable",
                "type": "function"
            },
            {
                "inputs": [
                    {
                        "internalType": "address",
                        "name": "router",
                        "type": "address"
                    },
                    {
                        "internalType": "address",
                        "name": "takerToken",
                        "type": "address"
                    },
                    {
                        "internalType": "address",
                        "name": "makerToken",
                        "type": "address"
                    },
                    {
                        "internalType": "uint256[]",
                        "name": "takerTokenAmounts",
                        "type": "uint256[]"
                    }
                ],
                "name": "sampleSellsFromEth2Dai",
                "outputs": [
                    {
                        "internalType": "uint256[]",
                        "name": "gasUsed",
                        "type": "uint256[]"
                    },
                    {
                        "internalType": "uint256[]",
                        "name": "makerTokenAmounts",
                        "type": "uint256[]"
                    }
                ],
                "stateMutability": "nonpayable",
                "type": "function"
            },
            {
                "inputs": [
                    {
                        "internalType": "address",
                        "name": "router",
                        "type": "address"
                    },
                    {
                        "internalType": "address[]",
                        "name": "path",
                        "type": "address[]"
                    },
                    {
                        "internalType": "uint256[]",
                        "name": "takerTokenAmounts",
                        "type": "uint256[]"
                    }
                ],
                "name": "sampleSellsFromKyberDmm",
                "outputs": [
                    {
                        "internalType": "address[]",
                        "name": "pools",
                        "type": "address[]"
                    },
                    {
                        "internalType": "uint256[]",
                        "name": "gasUsed",
                        "type": "uint256[]"
                    },
                    {
                        "internalType": "uint256[]",
                        "name": "makerTokenAmounts",
                        "type": "uint256[]"
                    }
                ],
                "stateMutability": "nonpayable",
                "type": "function"
            },
            {
                "inputs": [
                    {
                        "components": [
                            {
                                "internalType": "uint256",
                                "name": "reserveOffset",
                                "type": "uint256"
                            },
                            {
                                "internalType": "address",
                                "name": "hintHandler",
                                "type": "address"
                            },
                            {
                                "internalType": "address",
                                "name": "networkProxy",
                                "type": "address"
                            },
                            {
                                "internalType": "address",
                                "name": "weth",
                                "type": "address"
                            },
                            {
                                "internalType": "bytes",
                                "name": "hint",
                                "type": "bytes"
                            }
                        ],
                        "internalType": "struct KyberSampler.KyberSamplerOpts",
                        "name": "opts",
                        "type": "tuple"
                    },
                    {
                        "internalType": "address",
                        "name": "takerToken",
                        "type": "address"
                    },
                    {
                        "internalType": "address",
                        "name": "makerToken",
                        "type": "address"
                    },
                    {
                        "internalType": "uint256[]",
                        "name": "takerTokenAmounts",
                        "type": "uint256[]"
                    }
                ],
                "name": "sampleSellsFromKyberNetwork",
                "outputs": [
                    {
                        "internalType": "bytes32",
                        "name": "reserveId",
                        "type": "bytes32"
                    },
                    {
                        "internalType": "bytes",
                        "name": "hint",
                        "type": "bytes"
                    },
                    {
                        "internalType": "uint256[]",
                        "name": "gasUsed",
                        "type": "uint256[]"
                    },
                    {
                        "internalType": "uint256[]",
                        "name": "makerTokenAmounts",
                        "type": "uint256[]"
                    }
                ],
                "stateMutability": "nonpayable",
                "type": "function"
            },
            {
                "inputs": [
                    {
                        "internalType": "address",
                        "name": "lido",
                        "type": "address"
                    },
                    {
                        "internalType": "address",
                        "name": "takerToken",
                        "type": "address"
                    },
                    {
                        "internalType": "address",
                        "name": "makerToken",
                        "type": "address"
                    },
                    {
                        "internalType": "uint256[]",
                        "name": "takerTokenAmounts",
                        "type": "uint256[]"
                    }
                ],
                "name": "sampleSellsFromLido",
                "outputs": [
                    {
                        "internalType": "uint256[]",
                        "name": "gasUsed",
                        "type": "uint256[]"
                    },
                    {
                        "internalType": "uint256[]",
                        "name": "makerTokenAmounts",
                        "type": "uint256[]"
                    }
                ],
                "stateMutability": "nonpayable",
                "type": "function"
            },
            {
                "inputs": [
                    {
                        "internalType": "address",
                        "name": "providerAddress",
                        "type": "address"
                    },
                    {
                        "internalType": "address",
                        "name": "takerToken",
                        "type": "address"
                    },
                    {
                        "internalType": "address",
                        "name": "makerToken",
                        "type": "address"
                    },
                    {
                        "internalType": "uint256[]",
                        "name": "takerTokenAmounts",
                        "type": "uint256[]"
                    }
                ],
                "name": "sampleSellsFromLiquidityProvider",
                "outputs": [
                    {
                        "internalType": "uint256[]",
                        "name": "gasUsed",
                        "type": "uint256[]"
                    },
                    {
                        "internalType": "uint256[]",
                        "name": "makerTokenAmounts",
                        "type": "uint256[]"
                    }
                ],
                "stateMutability": "nonpayable",
                "type": "function"
            },
            {
                "inputs": [
                    {
                        "internalType": "address",
                        "name": "router",
                        "type": "address"
                    },
                    {
                        "internalType": "address",
                        "name": "takerToken",
                        "type": "address"
                    },
                    {
                        "internalType": "address",
                        "name": "makerToken",
                        "type": "address"
                    },
                    {
                        "internalType": "uint256[]",
                        "name": "takerTokenAmounts",
                        "type": "uint256[]"
                    }
                ],
                "name": "sampleSellsFromMStable",
                "outputs": [
                    {
                        "internalType": "uint256[]",
                        "name": "gasUsed",
                        "type": "uint256[]"
                    },
                    {
                        "internalType": "uint256[]",
                        "name": "makerTokenAmounts",
                        "type": "uint256[]"
                    }
                ],
                "stateMutability": "nonpayable",
                "type": "function"
            },
            {
                "inputs": [
                    {
                        "components": [
                            {
                                "internalType": "address",
                                "name": "psmAddress",
                                "type": "address"
                            },
                            {
                                "internalType": "bytes32",
                                "name": "ilkIdentifier",
                                "type": "bytes32"
                            },
                            {
                                "internalType": "address",
                                "name": "gemTokenAddress",
                                "type": "address"
                            }
                        ],
                        "internalType": "struct MakerPSMSampler.MakerPsmInfo",
                        "name": "psmInfo",
                        "type": "tuple"
                    },
                    {
                        "internalType": "address",
                        "name": "takerToken",
                        "type": "address"
                    },
                    {
                        "internalType": "address",
                        "name": "makerToken",
                        "type": "address"
                    },
                    {
                        "internalType": "uint256[]",
                        "name": "takerTokenAmounts",
                        "type": "uint256[]"
                    }
                ],
                "name": "sampleSellsFromMakerPsm",
                "outputs": [
                    {
                        "internalType": "uint256[]",
                        "name": "gasUsed",
                        "type": "uint256[]"
                    },
                    {
                        "internalType": "uint256[]",
                        "name": "makerTokenAmounts",
                        "type": "uint256[]"
                    }
                ],
                "stateMutability": "nonpayable",
                "type": "function"
            },
            {
                "inputs": [
                    {
                        "internalType": "address",
                        "name": "registry",
                        "type": "address"
                    },
                    {
                        "internalType": "address",
                        "name": "takerToken",
                        "type": "address"
                    },
                    {
                        "internalType": "address",
                        "name": "makerToken",
                        "type": "address"
                    },
                    {
                        "internalType": "uint256[]",
                        "name": "takerTokenAmounts",
                        "type": "uint256[]"
                    }
                ],
                "name": "sampleSellsFromMooniswap",
                "outputs": [
                    {
                        "internalType": "address",
                        "name": "pool",
                        "type": "address"
                    },
                    {
                        "internalType": "uint256[]",
                        "name": "gasUsed",
                        "type": "uint256[]"
                    },
                    {
                        "internalType": "uint256[]",
                        "name": "makerTokenAmounts",
                        "type": "uint256[]"
                    }
                ],
                "stateMutability": "nonpayable",
                "type": "function"
            },
            {
                "inputs": [
                    {
                        "internalType": "address",
                        "name": "pool",
                        "type": "address"
                    },
                    {
                        "internalType": "address",
                        "name": "takerToken",
                        "type": "address"
                    },
                    {
                        "internalType": "address",
                        "name": "makerToken",
                        "type": "address"
                    },
                    {
                        "internalType": "uint256[]",
                        "name": "takerTokenAmounts",
                        "type": "uint256[]"
                    }
                ],
                "name": "sampleSellsFromShell",
                "outputs": [
                    {
                        "internalType": "uint256[]",
                        "name": "gasUsed",
                        "type": "uint256[]"
                    },
                    {
                        "internalType": "uint256[]",
                        "name": "makerTokenAmounts",
                        "type": "uint256[]"
                    }
                ],
                "stateMutability": "nonpayable",
                "type": "function"
            },
            {
                "inputs": [
                    {
                        "internalType": "address",
                        "name": "router",
                        "type": "address"
                    },
                    {
                        "internalType": "address",
                        "name": "takerToken",
                        "type": "address"
                    },
                    {
                        "internalType": "address",
                        "name": "makerToken",
                        "type": "address"
                    },
                    {
                        "internalType": "uint256[]",
                        "name": "takerTokenAmounts",
                        "type": "uint256[]"
                    }
                ],
                "name": "sampleSellsFromUniswap",
                "outputs": [
                    {
                        "internalType": "uint256[]",
                        "name": "gasUsed",
                        "type": "uint256[]"
                    },
                    {
                        "internalType": "uint256[]",
                        "name": "makerTokenAmounts",
                        "type": "uint256[]"
                    }
                ],
                "stateMutability": "nonpayable",
                "type": "function"
            },
            {
                "inputs": [
                    {
                        "internalType": "address",
                        "name": "router",
                        "type": "address"
                    },
                    {
                        "internalType": "address[]",
                        "name": "path",
                        "type": "address[]"
                    },
                    {
                        "internalType": "uint256[]",
                        "name": "takerTokenAmounts",
                        "type": "uint256[]"
                    }
                ],
                "name": "sampleSellsFromUniswapV2",
                "outputs": [
                    {
                        "internalType": "uint256[]",
                        "name": "gasUsed",
                        "type": "uint256[]"
                    },
                    {
                        "internalType": "uint256[]",
                        "name": "makerTokenAmounts",
                        "type": "uint256[]"
                    }
                ],
                "stateMutability": "nonpayable",
                "type": "function"
            },
            {
                "inputs": [
                    {
                        "internalType": "contract IUniswapV3Quoter",
                        "name": "quoter",
                        "type": "address"
                    },
                    {
                        "internalType": "address",
                        "name": "router",
                        "type": "address"
                    },
                    {
                        "internalType": "contract IERC20TokenV06[]",
                        "name": "path",
                        "type": "address[]"
                    },
                    {
                        "internalType": "uint256[]",
                        "name": "takerTokenAmounts",
                        "type": "uint256[]"
                    }
                ],
                "name": "sampleSellsFromUniswapV3",
                "outputs": [
                    {
                        "internalType": "bytes[]",
                        "name": "uniswapPaths",
                        "type": "bytes[]"
                    },
                    {
                        "internalType": "uint256[]",
                        "name": "gasUsed",
                        "type": "uint256[]"
                    },
                    {
                        "internalType": "uint256[]",
                        "name": "makerTokenAmounts",
                        "type": "uint256[]"
                    }
                ],
                "stateMutability": "nonpayable",
                "type": "function"
            },
            {
                "inputs": [
                    {
                        "internalType": "address",
                        "name": "sellToken",
                        "type": "address"
                    },
                    {
                        "internalType": "address",
                        "name": "buyToken",
                        "type": "address"
                    },
                    {
                        "internalType": "bytes",
                        "name": "bridgeData",
                        "type": "bytes"
                    },
                    {
                        "internalType": "uint256",
                        "name": "takerTokenAmount",
                        "type": "uint256"
                    }
                ],
                "name": "sampleSwapFromBalancer",
                "outputs": [
                    {
                        "internalType": "uint256",
                        "name": "",
                        "type": "uint256"
                    }
                ],
                "stateMutability": "nonpayable",
                "type": "function"
            },
            {
                "inputs": [
                    {
                        "internalType": "address",
                        "name": "sellToken",
                        "type": "address"
                    },
                    {
                        "internalType": "address",
                        "name": "buyToken",
                        "type": "address"
                    },
                    {
                        "internalType": "bytes",
                        "name": "bridgeData",
                        "type": "bytes"
                    },
                    {
                        "internalType": "uint256",
                        "name": "takerTokenAmount",
                        "type": "uint256"
                    }
                ],
                "name": "sampleSwapFromBalancerV2",
                "outputs": [
                    {
                        "internalType": "uint256",
                        "name": "",
                        "type": "uint256"
                    }
                ],
                "stateMutability": "nonpayable",
                "type": "function"
            },
            {
                "inputs": [
                    {
                        "internalType": "address",
                        "name": "sellToken",
                        "type": "address"
                    },
                    {
                        "internalType": "address",
                        "name": "buyToken",
                        "type": "address"
                    },
                    {
                        "internalType": "bytes",
                        "name": "bridgeData",
                        "type": "bytes"
                    },
                    {
                        "internalType": "uint256",
                        "name": "takerTokenAmount",
                        "type": "uint256"
                    }
                ],
                "name": "sampleSwapFromBancor",
                "outputs": [
                    {
                        "internalType": "uint256",
                        "name": "",
                        "type": "uint256"
                    }
                ],
                "stateMutability": "nonpayable",
                "type": "function"
            },
            {
                "inputs": [
                    {
                        "internalType": "address",
                        "name": "sellToken",
                        "type": "address"
                    },
                    {
                        "internalType": "address",
                        "name": "buyToken",
                        "type": "address"
                    },
                    {
                        "internalType": "bytes",
                        "name": "bridgeData",
                        "type": "bytes"
                    },
                    {
                        "internalType": "uint256",
                        "name": "takerTokenAmount",
                        "type": "uint256"
                    }
                ],
                "name": "sampleSwapFromCurve",
                "outputs": [
                    {
                        "internalType": "uint256",
                        "name": "",
                        "type": "uint256"
                    }
                ],
                "stateMutability": "nonpayable",
                "type": "function"
            },
            {
                "inputs": [
                    {
                        "internalType": "address",
                        "name": "sellToken",
                        "type": "address"
                    },
                    {
                        "internalType": "address",
                        "name": "buyToken",
                        "type": "address"
                    },
                    {
                        "internalType": "bytes",
                        "name": "bridgeData",
                        "type": "bytes"
                    },
                    {
                        "internalType": "uint256",
                        "name": "takerTokenAmount",
                        "type": "uint256"
                    }
                ],
                "name": "sampleSwapFromCurveV2",
                "outputs": [
                    {
                        "internalType": "uint256",
                        "name": "",
                        "type": "uint256"
                    }
                ],
                "stateMutability": "nonpayable",
                "type": "function"
            },
            {
                "inputs": [
                    {
                        "internalType": "address",
                        "name": "sellToken",
                        "type": "address"
                    },
                    {
                        "internalType": "address",
                        "name": "buyToken",
                        "type": "address"
                    },
                    {
                        "internalType": "bytes",
                        "name": "bridgeData",
                        "type": "bytes"
                    },
                    {
                        "internalType": "uint256",
                        "name": "takerTokenAmount",
                        "type": "uint256"
                    }
                ],
                "name": "sampleSwapFromDodo",
                "outputs": [
                    {
                        "internalType": "uint256",
                        "name": "",
                        "type": "uint256"
                    }
                ],
                "stateMutability": "nonpayable",
                "type": "function"
            },
            {
                "inputs": [
                    {
                        "internalType": "address",
                        "name": "sellToken",
                        "type": "address"
                    },
                    {
                        "internalType": "address",
                        "name": "buyToken",
                        "type": "address"
                    },
                    {
                        "internalType": "bytes",
                        "name": "bridgeData",
                        "type": "bytes"
                    },
                    {
                        "internalType": "uint256",
                        "name": "takerTokenAmount",
                        "type": "uint256"
                    }
                ],
                "name": "sampleSwapFromDodoV2",
                "outputs": [
                    {
                        "internalType": "uint256",
                        "name": "",
                        "type": "uint256"
                    }
                ],
                "stateMutability": "nonpayable",
                "type": "function"
            },
            {
                "inputs": [
                    {
                        "internalType": "address",
                        "name": "sellToken",
                        "type": "address"
                    },
                    {
                        "internalType": "address",
                        "name": "buyToken",
                        "type": "address"
                    },
                    {
                        "internalType": "bytes",
                        "name": "bridgeData",
                        "type": "bytes"
                    },
                    {
                        "internalType": "uint256",
                        "name": "takerTokenAmount",
                        "type": "uint256"
                    }
                ],
                "name": "sampleSwapFromKyber",
                "outputs": [
                    {
                        "internalType": "uint256",
                        "name": "",
                        "type": "uint256"
                    }
                ],
                "stateMutability": "nonpayable",
                "type": "function"
            },
            {
                "inputs": [
                    {
                        "internalType": "address",
                        "name": "sellToken",
                        "type": "address"
                    },
                    {
                        "internalType": "address",
                        "name": "buyToken",
                        "type": "address"
                    },
                    {
                        "internalType": "bytes",
                        "name": "bridgeData",
                        "type": "bytes"
                    },
                    {
                        "internalType": "uint256",
                        "name": "takerTokenAmount",
                        "type": "uint256"
                    }
                ],
                "name": "sampleSwapFromKyberDmm",
                "outputs": [
                    {
                        "internalType": "uint256",
                        "name": "",
                        "type": "uint256"
                    }
                ],
                "stateMutability": "nonpayable",
                "type": "function"
            },
            {
                "inputs": [
                    {
                        "internalType": "address",
                        "name": "sellToken",
                        "type": "address"
                    },
                    {
                        "internalType": "address",
                        "name": "buyToken",
                        "type": "address"
                    },
                    {
                        "internalType": "bytes",
                        "name": "bridgeData",
                        "type": "bytes"
                    },
                    {
                        "internalType": "uint256",
                        "name": "takerTokenAmount",
                        "type": "uint256"
                    }
                ],
                "name": "sampleSwapFromLido",
                "outputs": [
                    {
                        "internalType": "uint256",
                        "name": "",
                        "type": "uint256"
                    }
                ],
                "stateMutability": "nonpayable",
                "type": "function"
            },
            {
                "inputs": [
                    {
                        "internalType": "address",
                        "name": "sellToken",
                        "type": "address"
                    },
                    {
                        "internalType": "address",
                        "name": "buyToken",
                        "type": "address"
                    },
                    {
                        "internalType": "bytes",
                        "name": "bridgeData",
                        "type": "bytes"
                    },
                    {
                        "internalType": "uint256",
                        "name": "takerTokenAmount",
                        "type": "uint256"
                    }
                ],
                "name": "sampleSwapFromLiquidityProvider",
                "outputs": [
                    {
                        "internalType": "uint256",
                        "name": "",
                        "type": "uint256"
                    }
                ],
                "stateMutability": "nonpayable",
                "type": "function"
            },
            {
                "inputs": [
                    {
                        "internalType": "address",
                        "name": "sellToken",
                        "type": "address"
                    },
                    {
                        "internalType": "address",
                        "name": "buyToken",
                        "type": "address"
                    },
                    {
                        "internalType": "bytes",
                        "name": "bridgeData",
                        "type": "bytes"
                    },
                    {
                        "internalType": "uint256",
                        "name": "takerTokenAmount",
                        "type": "uint256"
                    }
                ],
                "name": "sampleSwapFromMStable",
                "outputs": [
                    {
                        "internalType": "uint256",
                        "name": "",
                        "type": "uint256"
                    }
                ],
                "stateMutability": "nonpayable",
                "type": "function"
            },
            {
                "inputs": [
                    {
                        "internalType": "address",
                        "name": "sellToken",
                        "type": "address"
                    },
                    {
                        "internalType": "address",
                        "name": "buyToken",
                        "type": "address"
                    },
                    {
                        "internalType": "bytes",
                        "name": "bridgeData",
                        "type": "bytes"
                    },
                    {
                        "internalType": "uint256",
                        "name": "takerTokenAmount",
                        "type": "uint256"
                    }
                ],
                "name": "sampleSwapFromMakerPsm",
                "outputs": [
                    {
                        "internalType": "uint256",
                        "name": "",
                        "type": "uint256"
                    }
                ],
                "stateMutability": "nonpayable",
                "type": "function"
            },
            {
                "inputs": [
                    {
                        "internalType": "address",
                        "name": "sellToken",
                        "type": "address"
                    },
                    {
                        "internalType": "address",
                        "name": "buyToken",
                        "type": "address"
                    },
                    {
                        "internalType": "bytes",
                        "name": "bridgeData",
                        "type": "bytes"
                    },
                    {
                        "internalType": "uint256",
                        "name": "takerTokenAmount",
                        "type": "uint256"
                    }
                ],
                "name": "sampleSwapFromMooniswap",
                "outputs": [
                    {
                        "internalType": "uint256",
                        "name": "",
                        "type": "uint256"
                    }
                ],
                "stateMutability": "nonpayable",
                "type": "function"
            },
            {
                "inputs": [
                    {
                        "internalType": "address",
                        "name": "sellToken",
                        "type": "address"
                    },
                    {
                        "internalType": "address",
                        "name": "buyToken",
                        "type": "address"
                    },
                    {
                        "internalType": "bytes",
                        "name": "bridgeData",
                        "type": "bytes"
                    },
                    {
                        "internalType": "uint256",
                        "name": "takerTokenAmount",
                        "type": "uint256"
                    }
                ],
                "name": "sampleSwapFromOasis",
                "outputs": [
                    {
                        "internalType": "uint256",
                        "name": "",
                        "type": "uint256"
                    }
                ],
                "stateMutability": "nonpayable",
                "type": "function"
            },
            {
                "inputs": [
                    {
                        "internalType": "address",
                        "name": "sellToken",
                        "type": "address"
                    },
                    {
                        "internalType": "address",
                        "name": "buyToken",
                        "type": "address"
                    },
                    {
                        "internalType": "bytes",
                        "name": "bridgeData",
                        "type": "bytes"
                    },
                    {
                        "internalType": "uint256",
                        "name": "takerTokenAmount",
                        "type": "uint256"
                    }
                ],
                "name": "sampleSwapFromShell",
                "outputs": [
                    {
                        "internalType": "uint256",
                        "name": "",
                        "type": "uint256"
                    }
                ],
                "stateMutability": "nonpayable",
                "type": "function"
            },
            {
                "inputs": [
                    {
                        "internalType": "address",
                        "name": "sellToken",
                        "type": "address"
                    },
                    {
                        "internalType": "address",
                        "name": "buyToken",
                        "type": "address"
                    },
                    {
                        "internalType": "bytes",
                        "name": "bridgeData",
                        "type": "bytes"
                    },
                    {
                        "internalType": "uint256",
                        "name": "takerTokenAmount",
                        "type": "uint256"
                    }
                ],
                "name": "sampleSwapFromUniswap",
                "outputs": [
                    {
                        "internalType": "uint256",
                        "name": "",
                        "type": "uint256"
                    }
                ],
                "stateMutability": "nonpayable",
                "type": "function"
            },
            {
                "inputs": [
                    {
                        "internalType": "address",
                        "name": "sellToken",
                        "type": "address"
                    },
                    {
                        "internalType": "address",
                        "name": "buyToken",
                        "type": "address"
                    },
                    {
                        "internalType": "bytes",
                        "name": "bridgeData",
                        "type": "bytes"
                    },
                    {
                        "internalType": "uint256",
                        "name": "takerTokenAmount",
                        "type": "uint256"
                    }
                ],
                "name": "sampleSwapFromUniswapV2",
                "outputs": [
                    {
                        "internalType": "uint256",
                        "name": "",
                        "type": "uint256"
                    }
                ],
                "stateMutability": "nonpayable",
                "type": "function"
            },
            {
                "inputs": [
                    {
                        "internalType": "address",
                        "name": "sellToken",
                        "type": "address"
                    },
                    {
                        "internalType": "address",
                        "name": "buyToken",
                        "type": "address"
                    },
                    {
                        "internalType": "bytes",
                        "name": "bridgeData",
                        "type": "bytes"
                    },
                    {
                        "internalType": "uint256",
                        "name": "takerTokenAmount",
                        "type": "uint256"
                    }
                ],
                "name": "sampleSwapFromUniswapV3",
                "outputs": [
                    {
                        "internalType": "uint256",
                        "name": "",
                        "type": "uint256"
                    }
                ],
                "stateMutability": "nonpayable",
                "type": "function"
            },
            {
                "inputs": [
                    {
                        "internalType": "bytes[]",
                        "name": "firstHopCalls",
                        "type": "bytes[]"
                    },
                    {
                        "internalType": "bytes[]",
                        "name": "secondHopCalls",
                        "type": "bytes[]"
                    },
                    {
                        "internalType": "uint256",
                        "name": "buyAmount",
                        "type": "uint256"
                    }
                ],
                "name": "sampleTwoHopBuy",
                "outputs": [
                    {
                        "components": [
                            {
                                "internalType": "uint256",
                                "name": "sourceIndex",
                                "type": "uint256"
                            },
                            {
                                "internalType": "bytes",
                                "name": "returnData",
                                "type": "bytes"
                            }
                        ],
                        "internalType": "struct TwoHopSampler.HopInfo",
                        "name": "firstHop",
                        "type": "tuple"
                    },
                    {
                        "components": [
                            {
                                "internalType": "uint256",
                                "name": "sourceIndex",
                                "type": "uint256"
                            },
                            {
                                "internalType": "bytes",
                                "name": "returnData",
                                "type": "bytes"
                            }
                        ],
                        "internalType": "struct TwoHopSampler.HopInfo",
                        "name": "secondHop",
                        "type": "tuple"
                    },
                    {
                        "internalType": "uint256",
                        "name": "sellAmount",
                        "type": "uint256"
                    }
                ],
                "stateMutability": "nonpayable",
                "type": "function"
            },
            {
                "inputs": [
                    {
                        "internalType": "bytes[]",
                        "name": "firstHopCalls",
                        "type": "bytes[]"
                    },
                    {
                        "internalType": "bytes[]",
                        "name": "secondHopCalls",
                        "type": "bytes[]"
                    },
                    {
                        "internalType": "uint256",
                        "name": "sellAmount",
                        "type": "uint256"
                    }
                ],
                "name": "sampleTwoHopSell",
                "outputs": [
                    {
                        "components": [
                            {
                                "internalType": "uint256",
                                "name": "sourceIndex",
                                "type": "uint256"
                            },
                            {
                                "internalType": "bytes",
                                "name": "returnData",
                                "type": "bytes"
                            }
                        ],
                        "internalType": "struct TwoHopSampler.HopInfo",
                        "name": "firstHop",
                        "type": "tuple"
                    },
                    {
                        "components": [
                            {
                                "internalType": "uint256",
                                "name": "sourceIndex",
                                "type": "uint256"
                            },
                            {
                                "internalType": "bytes",
                                "name": "returnData",
                                "type": "bytes"
                            }
                        ],
                        "internalType": "struct TwoHopSampler.HopInfo",
                        "name": "secondHop",
                        "type": "tuple"
                    },
                    {
                        "internalType": "uint256",
                        "name": "intermediateAssetAmount",
                        "type": "uint256"
                    },
                    {
                        "internalType": "uint256",
                        "name": "buyAmount",
                        "type": "uint256"
                    }
                ],
                "stateMutability": "nonpayable",
                "type": "function"
            }
        ],
        "devdoc": {
            "kind": "dev",
            "methods": {
                "_mintCallRevert(bytes4,address,address,bytes,uint256[])": {
                    "details": "Mints the sell token, then performs the swap, then reverts with the amount out. The SwapRevertSamplerQuoteOpts has been unrolled here as our ABI encoder cannot support encoding the function"
                },
                "batchCall(bytes[])": {
                    "details": "Call multiple public functions on this contract in a single transaction.",
                    "params": {
                        "callDatas": "ABI-encoded call data for each function call."
                    },
                    "returns": {
                        "callResults": "ABI-encoded results data for each call."
                    }
                },
                "getLimitOrderFillableMakerAssetAmounts((address,address,uint128,uint128,uint128,address,address,address,address,bytes32,uint64,uint256)[],(uint8,uint8,bytes32,bytes32)[],address)": {
                    "details": "Queries the fillable taker asset amounts of native orders.      Effectively ignores orders that have empty signatures or",
                    "params": {
                        "exchange": "The V4 exchange.",
                        "orderSignatures": "Signatures for each respective order in `orders`.",
                        "orders": "Native orders to query."
                    },
                    "returns": {
                        "orderFillableMakerAssetAmounts": "How much maker asset can be filled         by each order in `orders`."
                    }
                },
                "getLimitOrderFillableTakerAmount((address,address,uint128,uint128,uint128,address,address,address,address,bytes32,uint64,uint256),(uint8,uint8,bytes32,bytes32),address)": {
                    "details": "Get the fillable taker amount of an order, taking into account      order state, maker fees, and maker balances."
                },
                "getLimitOrderFillableTakerAssetAmounts((address,address,uint128,uint128,uint128,address,address,address,address,bytes32,uint64,uint256)[],(uint8,uint8,bytes32,bytes32)[],address)": {
                    "details": "Queries the fillable taker asset amounts of native orders.      Effectively ignores orders that have empty signatures or      maker/taker asset amounts (returning 0).",
                    "params": {
                        "exchange": "The V4 exchange.",
                        "orderSignatures": "Signatures for each respective order in `orders`.",
                        "orders": "Native limit orders to query."
                    },
                    "returns": {
                        "orderFillableTakerAssetAmounts": "How much taker asset can be filled         by each order in `orders`."
                    }
                },
                "sampleBuysFromBalancer(address,address,address,uint256[])": {
                    "details": "Sample buy quotes from Balancer.",
                    "params": {
                        "makerToken": "Address of the maker token (what to buy).",
                        "makerTokenAmounts": "Maker token buy amount for each sample.",
                        "poolAddress": "Address of the Balancer pool to query.",
                        "takerToken": "Address of the taker token (what to sell)."
                    },
                    "returns": {
                        "gasUsed": "gas consumed in each sample sell",
                        "takerTokenAmounts": "Taker amounts sold at each maker token         amount."
                    }
                },
                "sampleBuysFromBalancerV2((address,bytes32),address,address,uint256[])": {
                    "details": "Sample buy quotes from Balancer V2.",
                    "params": {
                        "makerToken": "Address of the maker token (what to buy).",
                        "makerTokenAmounts": "Maker token buy amount for each sample.",
                        "poolInfo": "Struct with pool related data",
                        "takerToken": "Address of the taker token (what to sell)."
                    },
                    "returns": {
                        "gasUsed": "gas consumed in each sample sell",
                        "takerTokenAmounts": "Taker amounts sold at each maker token         amount."
                    }
                },
                "sampleBuysFromBancor((address,address[][]),address,address,uint256[])": {
                    "details": "Sample buy quotes from Bancor. Unimplemented",
                    "params": {
                        "makerToken": "Address of the maker token (what to buy).",
                        "makerTokenAmounts": "Maker token buy amount for each sample.",
                        "opts": "BancorSamplerOpts The Bancor registry contract address and paths",
                        "takerToken": "Address of the taker token (what to sell)."
                    },
                    "returns": {
                        "bancorNetwork": "the Bancor Network address",
                        "gasUsed": "gas consumed in each sample sell",
                        "path": "the selected conversion path from bancor",
                        "takerTokenAmounts": "Taker amounts sold at each maker token         amount."
                    }
                },
                "sampleBuysFromCurve((address,bytes4,int128,int128),address,address,uint256[])": {
                    "details": "Sample buy quotes from Curve.",
                    "params": {
                        "curveInfo": "Curve information specific to this token pair.",
                        "makerToken": "The maker token to buy.",
                        "makerTokenAmounts": "Maker token buy amount for each sample.",
                        "takerToken": "The taker token to sell."
                    },
                    "returns": {
                        "gasUsed": "gas consumed in each sample sell",
                        "takerTokenAmounts": "Taker amounts sold at each maker token         amount."
                    }
                },
                "sampleBuysFromCurveV2((address,bytes4,int128,int128),address,address,uint256[])": {
                    "details": "Sample buy quotes from Curve.",
                    "params": {
                        "curveInfo": "Curve information specific to this token pair.",
                        "makerToken": "The maker token to buy.",
                        "makerTokenAmounts": "Maker token buy amount for each sample.",
                        "takerToken": "The taker token to sell."
                    },
                    "returns": {
                        "gasUsed": "gas consumed in each sample sell",
                        "takerTokenAmounts": "Taker amounts sold at each maker token         amount."
                    }
                },
                "sampleBuysFromDODO((address,address),address,address,uint256[])": {
                    "details": "Sample buy quotes from DODO.",
                    "params": {
                        "makerToken": "Address of the maker token (what to buy).",
                        "makerTokenAmounts": "Maker token sell amount for each sample.",
                        "opts": "DODOSamplerOpts DODO Registry and helper addresses",
                        "takerToken": "Address of the taker token (what to sell)."
                    },
                    "returns": {
                        "gasUsed": "gas consumed in each sample sell",
                        "pool": "the DODO pool address",
                        "sellBase": "whether the bridge needs to sell the base token",
                        "takerTokenAmounts": "Taker amounts sold at each maker token         amount."
                    }
                },
                "sampleBuysFromDODOV2(address,uint256,address,address,uint256[])": {
                    "details": "Sample buy quotes from DODO.",
                    "params": {
                        "makerToken": "Address of the maker token (what to buy).",
                        "makerTokenAmounts": "Maker token sell amount for each sample.",
                        "offset": "offset index for the pool in the registry.",
                        "registry": "Address of the registry to look up.",
                        "takerToken": "Address of the taker token (what to sell)."
                    },
                    "returns": {
                        "gasUsed": "gas consumed in each sample sell",
                        "pool": "the DODO pool address",
                        "sellBase": "whether the bridge needs to sell the base token",
                        "takerTokenAmounts": "Taker amounts sold at each maker token         amount."
                    }
                },
                "sampleBuysFromEth2Dai(address,address,address,uint256[])": {
                    "details": "Sample buy quotes from Eth2Dai/Oasis.",
                    "params": {
                        "makerToken": "Address of the maker token (what to buy).",
                        "router": "Address of the Eth2Dai/Oasis contract",
                        "takerToken": "Address of the taker token (what to sell).",
                        "takerTokenAmounts": "Maker token sell amount for each sample."
                    },
                    "returns": {
                        "gasUsed": "gas consumed in each sample sell",
                        "takerTokenAmounts": "Taker amounts sold at each maker token         amount."
                    }
                },
                "sampleBuysFromKyberDmm(address,address[],uint256[])": {
                    "details": "Sample buy quotes from KyberDmm.",
                    "params": {
                        "makerTokenAmounts": "Maker token buy amount for each sample.",
                        "path": "Token route. Should be takerToken -> makerToken.",
                        "router": "Router to look up tokens and amounts"
                    },
                    "returns": {
                        "gasUsed": "gas consumed in each sample sell",
                        "pools": "The pool addresses involved in the multi path trade",
                        "takerTokenAmounts": "Taker amounts sold at each maker token         amount."
                    }
                },
                "sampleBuysFromKyberNetwork((uint256,address,address,address,bytes),address,address,uint256[])": {
                    "details": "Sample buy quotes from Kyber.",
                    "params": {
                        "makerToken": "Address of the maker token (what to buy).",
                        "makerTokenAmounts": "Maker token buy amount for each sample.",
                        "opts": "KyberSamplerOpts The nth reserve",
                        "takerToken": "Address of the taker token (what to sell)."
                    },
                    "returns": {
                        "gasUsed": "Gas consumed for each sample.",
                        "hint": "The hint for the selected reserve",
                        "reserveId": "The id of the reserve found at reserveOffset",
                        "takerTokenAmounts": "Taker amounts sold at each maker token amount."
                    }
                },
                "sampleBuysFromLido(address,address,address,uint256[])": {
                    "details": "Sample buy quotes from Lido.",
                    "params": {
                        "lido": "Address of the Lido contract",
                        "makerToken": "Address of the maker token (what to buy).",
                        "makerTokenAmounts": "Maker token buy amount for each sample.",
                        "takerToken": "Address of the taker token (what to sell)."
                    },
                    "returns": {
                        "gasUsed": "gas consumed for each sample amount",
                        "takerTokenAmounts": "Taker amounts sold at each maker token         amount."
                    }
                },
                "sampleBuysFromLiquidityProvider(address,address,address,uint256[])": {
                    "details": "Sample buy quotes from an arbitrary on-chain liquidity provider.",
                    "params": {
                        "makerToken": "Address of the maker token (what to buy).",
                        "makerTokenAmounts": "Maker token buy amount for each sample.",
                        "providerAddress": "Address of the liquidity provider.",
                        "takerToken": "Address of the taker token (what to sell)."
                    },
                    "returns": {
                        "gasUsed": "gas consumed in each sample sell",
                        "takerTokenAmounts": "Taker amounts sold at each maker token         amount."
                    }
                },
                "sampleBuysFromMStable(address,address,address,uint256[])": {
                    "details": "Sample buy quotes from MStable contract",
                    "params": {
                        "makerToken": "Address of the maker token (what to buy).",
                        "makerTokenAmounts": "Maker token buy amount for each sample.",
                        "router": "Address of the mStable contract",
                        "takerToken": "Address of the taker token (what to sell)."
                    },
                    "returns": {
                        "gasUsed": "gas consumed in each sample sell",
                        "takerTokenAmounts": "Taker amounts sold at each maker token         amount."
                    }
                },
                "sampleBuysFromMooniswap(address,address,address,uint256[])": {
                    "details": "Sample buy quotes from Mooniswap.",
                    "params": {
                        "makerToken": "Address of the maker token (what to buy).",
                        "makerTokenAmounts": "Maker token sell amount for each sample.",
                        "registry": "Address of the Mooniswap Registry.",
                        "takerToken": "Address of the taker token (what to sell)."
                    },
                    "returns": {
                        "gasUsed": "gas consumed in each sample sell",
                        "pool": "The contract address for the pool",
                        "takerTokenAmounts": "Taker amounts sold at each maker token         amount."
                    }
                },
                "sampleBuysFromShell(address,address,address,uint256[])": {
                    "details": "Sample buy quotes from Shell pool contract",
                    "params": {
                        "makerToken": "Address of the maker token (what to buy).",
                        "makerTokenAmounts": "Maker token buy amount for each sample.",
                        "pool": "Address of the Shell pool contract",
                        "takerToken": "Address of the taker token (what to sell)."
                    },
                    "returns": {
                        "gasUsed": "gas consumed in each sample sell",
                        "takerTokenAmounts": "Taker amounts sold at each maker token         amount."
                    }
                },
                "sampleBuysFromUniswap(address,address,address,uint256[])": {
                    "details": "Sample buy quotes from Uniswap.",
                    "params": {
                        "makerToken": "Address of the maker token (what to buy).",
                        "makerTokenAmounts": "Maker token sell amount for each sample.",
                        "takerToken": "Address of the taker token (what to sell)."
                    },
                    "returns": {
                        "gasUsed": "gas consumed in each sample sell",
                        "takerTokenAmounts": "Taker amounts sold at each maker token         amount."
                    }
                },
                "sampleBuysFromUniswapV2(address,address[],uint256[])": {
                    "details": "Sample buy quotes from UniswapV2.",
                    "params": {
                        "makerTokenAmounts": "Maker token buy amount for each sample.",
                        "path": "Token route. Should be takerToken -> makerToken.",
                        "router": "Router to look up tokens and amounts"
                    },
                    "returns": {
                        "gasUsed": "gas consumed for each sample amount",
                        "takerTokenAmounts": "Taker amounts sold at each maker token         amount."
                    }
                },
                "sampleBuysFromUniswapV3(address,address,address[],uint256[])": {
                    "details": "Sample buy quotes from UniswapV3.",
                    "params": {
                        "makerTokenAmounts": "Maker token buy amount for each sample.",
                        "path": "Token route. Should be takerToken -> makerToken.",
                        "quoter": "UniswapV3 Quoter contract.",
                        "router": "UniswapV3 Router contract."
                    },
                    "returns": {
                        "gasUsed": "gas consumed in each sample sell",
                        "takerTokenAmounts": "Taker amounts sold at each maker token         amount.",
                        "uniswapPaths": "The encoded uniswap path for each sample."
                    }
                },
                "sampleSellsFromBalancer(address,address,address,uint256[])": {
                    "details": "Sample sell quotes from Balancer.",
                    "params": {
                        "makerToken": "Address of the maker token (what to buy).",
                        "poolAddress": "Address of the Balancer pool to query.",
                        "takerToken": "Address of the taker token (what to sell).",
                        "takerTokenAmounts": "Taker token sell amount for each sample."
                    },
                    "returns": {
                        "gasUsed": "gas consumed in each sample sell",
                        "makerTokenAmounts": "Maker amounts bought at each taker token         amount."
                    }
                },
                "sampleSellsFromBalancerV2((address,bytes32),address,address,uint256[])": {
                    "details": "Sample sell quotes from Balancer V2.",
                    "params": {
                        "makerToken": "Address of the maker token (what to buy).",
                        "poolInfo": "Struct with pool related data",
                        "takerToken": "Address of the taker token (what to sell).",
                        "takerTokenAmounts": "Taker token sell amount for each sample."
                    },
                    "returns": {
                        "gasUsed": "gas consumed in each sample sell",
                        "makerTokenAmounts": "Maker amounts bought at each taker token         amount."
                    }
                },
                "sampleSellsFromBancor((address,address[][]),address,address,uint256[])": {
                    "details": "Sample sell quotes from Bancor.",
                    "params": {
                        "makerToken": "Address of the maker token (what to buy).",
                        "opts": "BancorSamplerOpts The Bancor registry contract address and paths",
                        "takerToken": "Address of the taker token (what to sell).",
                        "takerTokenAmounts": "Taker token sell amount for each sample."
                    },
                    "returns": {
                        "bancorNetwork": "the Bancor Network address",
                        "gasUsed": "gas consumed in each sample sell",
                        "makerTokenAmounts": "Maker amounts bought at each taker token         amount.",
                        "path": "the selected conversion path from bancor"
                    }
                },
                "sampleSellsFromCurve((address,bytes4,int128,int128),address,address,uint256[])": {
                    "details": "Sample sell quotes from Curve.",
                    "params": {
                        "curveInfo": "Curve information specific to this token pair.",
                        "makerToken": "The maker token to buy.",
                        "takerToken": "The taker token to sell.",
                        "takerTokenAmounts": "Taker token sell amount for each sample."
                    },
                    "returns": {
                        "gasUsed": "gas consumed in each sample sell",
                        "makerTokenAmounts": "Maker amounts bought at each taker token         amount."
                    }
                },
                "sampleSellsFromCurveV2((address,bytes4,int128,int128),address,address,uint256[])": {
                    "details": "Sample sell quotes from Curve.",
                    "params": {
                        "curveInfo": "Curve information specific to this token pair.",
                        "makerToken": "The maker token to buy.",
                        "takerToken": "The taker token to sell.",
                        "takerTokenAmounts": "Taker token sell amount for each sample."
                    },
                    "returns": {
                        "gasUsed": "gas consumed in each sample sell",
                        "makerTokenAmounts": "Maker amounts bought at each taker token         amount."
                    }
                },
                "sampleSellsFromDODO((address,address),address,address,uint256[])": {
                    "details": "Sample sell quotes from DODO.",
                    "params": {
                        "makerToken": "Address of the maker token (what to buy).",
                        "opts": "DODOSamplerOpts DODO Registry and helper addresses",
                        "takerToken": "Address of the taker token (what to sell).",
                        "takerTokenAmounts": "Taker token sell amount for each sample."
                    },
                    "returns": {
                        "gasUsed": "gas consumed in each sample sell",
                        "makerTokenAmounts": "Maker amounts bought at each taker token         amount.",
                        "pool": "the DODO pool address",
                        "sellBase": "whether the bridge needs to sell the base token"
                    }
                },
                "sampleSellsFromDODOV2(address,uint256,address,address,uint256[])": {
                    "details": "Sample sell quotes from DODO V2.",
                    "params": {
                        "makerToken": "Address of the maker token (what to buy).",
                        "offset": "offset index for the pool in the registry.",
                        "registry": "Address of the registry to look up.",
                        "takerToken": "Address of the taker token (what to sell).",
                        "takerTokenAmounts": "Taker token sell amount for each sample."
                    },
                    "returns": {
                        "gasUsed": "gas consumed in each sample sell",
                        "makerTokenAmounts": "Maker amounts bought at each taker token         amount.",
                        "pool": "the DODO pool address",
                        "sellBase": "whether the bridge needs to sell the base token"
                    }
                },
                "sampleSellsFromEth2Dai(address,address,address,uint256[])": {
                    "details": "Sample sell quotes from Eth2Dai/Oasis.",
                    "params": {
                        "makerToken": "Address of the maker token (what to buy).",
                        "router": "Address of the Eth2Dai/Oasis contract",
                        "takerToken": "Address of the taker token (what to sell).",
                        "takerTokenAmounts": "Taker token sell amount for each sample."
                    },
                    "returns": {
                        "gasUsed": "gas consumed in each sample sell",
                        "makerTokenAmounts": "Maker amounts bought at each taker token         amount."
                    }
                },
                "sampleSellsFromKyberDmm(address,address[],uint256[])": {
                    "details": "Sample sell quotes from KyberDmm.",
                    "params": {
                        "path": "Token route. Should be takerToken -> makerToken",
                        "router": "Router to look up tokens and amounts",
                        "takerTokenAmounts": "Taker token sell amount for each sample."
                    },
                    "returns": {
                        "gasUsed": "gas consumed in each sample sell",
                        "makerTokenAmounts": "Maker amounts bought at each taker token         amount.",
                        "pools": "The pool addresses involved in the multi path trade"
                    }
                },
                "sampleSellsFromKyberNetwork((uint256,address,address,address,bytes),address,address,uint256[])": {
                    "details": "Sample sell quotes from Kyber.",
                    "params": {
                        "makerToken": "Address of the maker token (what to buy).",
                        "opts": "KyberSamplerOpts The nth reserve",
                        "takerToken": "Address of the taker token (what to sell).",
                        "takerTokenAmounts": "Taker token sell amount for each sample."
                    },
                    "returns": {
                        "gasUsed": "Gas consumed per sample.",
                        "hint": "The hint for the selected reserve",
                        "makerTokenAmounts": "Maker amounts bought at each taker token amount.",
                        "reserveId": "The id of the reserve found at reserveOffset"
                    }
                },
                "sampleSellsFromLido(address,address,address,uint256[])": {
                    "details": "Sample sell quotes from Lido",
                    "params": {
                        "lido": "Address of the Lido contract",
                        "makerToken": "Address of the maker token (what to buy).",
                        "takerToken": "Address of the taker token (what to sell).",
                        "takerTokenAmounts": "Taker token sell amount for each sample."
                    },
                    "returns": {
                        "gasUsed": "gas consumed for each sample amount",
                        "makerTokenAmounts": "Maker amounts bought at each taker token         amount."
                    }
                },
                "sampleSellsFromLiquidityProvider(address,address,address,uint256[])": {
                    "details": "Sample sell quotes from an arbitrary on-chain liquidity provider.",
                    "params": {
                        "makerToken": "Address of the maker token (what to buy).",
                        "providerAddress": "Address of the liquidity provider.",
                        "takerToken": "Address of the taker token (what to sell).",
                        "takerTokenAmounts": "Taker token sell amount for each sample."
                    },
                    "returns": {
                        "gasUsed": "gas consumed in each sample sell",
                        "makerTokenAmounts": "Maker amounts bought at each taker token         amount."
                    }
                },
                "sampleSellsFromMStable(address,address,address,uint256[])": {
                    "details": "Sample sell quotes from the mStable contract",
                    "params": {
                        "makerToken": "Address of the maker token (what to buy).",
                        "router": "Address of the mStable contract",
                        "takerToken": "Address of the taker token (what to sell).",
                        "takerTokenAmounts": "Taker token sell amount for each sample."
                    },
                    "returns": {
                        "gasUsed": "gas consumed in each sample sell",
                        "makerTokenAmounts": "Maker amounts bought at each taker token         amount."
                    }
                },
                "sampleSellsFromMakerPsm((address,bytes32,address),address,address,uint256[])": {
                    "details": "Sample sell quotes from Maker PSM"
                },
                "sampleSellsFromMooniswap(address,address,address,uint256[])": {
                    "details": "Sample sell quotes from Mooniswap.",
                    "params": {
                        "makerToken": "Address of the maker token (what to buy).",
                        "registry": "Address of the Mooniswap Registry.",
                        "takerToken": "Address of the taker token (what to sell).",
                        "takerTokenAmounts": "Taker token sell amount for each sample."
                    },
                    "returns": {
                        "gasUsed": "gas consumed in each sample sell",
                        "makerTokenAmounts": "Maker amounts bought at each taker token         amount.",
                        "pool": "The contract address for the pool"
                    }
                },
                "sampleSellsFromShell(address,address,address,uint256[])": {
                    "details": "Sample sell quotes from the Shell pool contract",
                    "params": {
                        "makerToken": "Address of the maker token (what to buy).",
                        "pool": "Address of the Shell pool contract",
                        "takerToken": "Address of the taker token (what to sell).",
                        "takerTokenAmounts": "Taker token sell amount for each sample."
                    },
                    "returns": {
                        "gasUsed": "gas consumed in each sample sell",
                        "makerTokenAmounts": "Maker amounts bought at each taker token         amount."
                    }
                },
                "sampleSellsFromUniswap(address,address,address,uint256[])": {
                    "details": "Sample sell quotes from Uniswap.",
                    "params": {
                        "makerToken": "Address of the maker token (what to buy).",
                        "router": "Address of the Uniswap Router",
                        "takerToken": "Address of the taker token (what to sell).",
                        "takerTokenAmounts": "Taker token sell amount for each sample."
                    },
                    "returns": {
                        "gasUsed": "gas consumed in each sample sell",
                        "makerTokenAmounts": "Maker amounts bought at each taker token         amount."
                    }
                },
                "sampleSellsFromUniswapV2(address,address[],uint256[])": {
                    "details": "Sample sell quotes from UniswapV2.",
                    "params": {
                        "path": "Token route. Should be takerToken -> makerToken",
                        "router": "Router to look up tokens and amounts",
                        "takerTokenAmounts": "Taker token sell amount for each sample."
                    },
                    "returns": {
                        "gasUsed": "gas consumed for each sample amount",
                        "makerTokenAmounts": "Maker amounts bought at each taker token         amount."
                    }
                },
                "sampleSellsFromUniswapV3(address,address,address[],uint256[])": {
                    "details": "Sample sell quotes from UniswapV3.",
                    "params": {
                        "path": "Token route. Should be takerToken -> makerToken",
                        "quoter": "UniswapV3 Quoter contract.",
                        "router": "UniswapV3 Router contract.",
                        "takerTokenAmounts": "Taker token sell amount for each sample."
                    },
                    "returns": {
                        "gasUsed": "gas consumed in each sample sell",
                        "makerTokenAmounts": "Maker amounts bought at each taker token         amount.",
                        "uniswapPaths": "The encoded uniswap path for each sample."
                    }
                }
            },
            "version": 1
        },
        "evm": {
            "bytecode": {
                "linkReferences": {},
                "object": "0x6101806040527feeeeeeeeeeeeeeeeeeeeeeeeeeeeeeeeeeeeeeee00000000000000000000000060c0819052610160523480156200003c57600080fd5b506040516200aab93803806200aab98339810160408190526200005f9162000091565b60601b6001600160601b031916608081905260a081905260e081905261010081905261012081905261014052620000c1565b600060208284031215620000a3578081fd5b81516001600160a01b0381168114620000ba578182fd5b9392505050565b60805160601c60a05160601c60c05160601c60e05160601c6101005160601c6101205160601c6101405160601c6101605160601c61a99b6200011e6000398061242952806133385280613b7452505050505050505061a99b6000f3fe60806040526004361061041f5760003560e01c80638effa9ea1161021e578063c25c413811610123578063d9bca372116100ab578063f573c1611161007a578063f573c16114610d47578063f5a4994d14610d67578063f7cefa5614610d87578063fa5def9f14610da7578063fc9fe41b14610dc757610426565b8063d9bca37214610cc7578063ddd5aa2814610ce7578063e78ac04514610d07578063e8e4af0914610d2757610426565b8063c94706d8116100f2578063c94706d814610c27578063cc1621c914610c47578063cd85e7b514610c67578063d31b0a8a14610c87578063d3cdc04d14610ca757610426565b8063c25c413814610ba7578063c7dd6c4f14610bc7578063c831908414610be7578063c8c74a3714610c0757610426565b8063a75e744b116101a6578063b770f84911610175578063b770f84914610b07578063b90cd2fb14610b27578063bc4f55ba14610b47578063bd71ecf614610b67578063bf60384b14610b8757610426565b8063a75e744b14610a78578063ab00027614610a98578063ab3e621014610ab8578063adc636bf14610ad857610426565b80639bf3ee35116101ed5780639bf3ee35146109c85780639e3f05c3146109e8578063a095a03614610a18578063a191e0a214610a38578063a469841714610a5857610426565b80638effa9ea1461094857806398777748146109685780639914377d146109885780639ad732ef146109a857610426565b806366a1ac6b116103245780637a82dcb9116102ac5780638a6f20e11161027b5780638a6f20e1146108965780638d201c22146108b65780638d8abdf0146108d65780638dc669fa146108f65780638e5a0e071461091857610426565b80637a82dcb9146108165780637e105ce2146108365780637f7f4f13146108565780637fea2ae11461087657610426565b80636a33bc7e116102f35780636a33bc7e14610767578063706e2f9b146107965780637280bfff146107b657806374c9d255146107d657806378fee41c146107f657610426565b806366a1ac6b146106e7578063685d285d14610707578063686b7ee81461072757806368be3cf21461074757610426565b80632aa64319116103a75780634edfb5b2116103765780634edfb5b21461063a57806357494b1d1461066757806359ab9a6c146106875780635c71cbe7146106a75780635d5b674f146106c757610426565b80632aa64319146105aa57806330d6570d146105da5780633105fec1146105fa578063494569db1461061a57610426565b806315de17de116103ee57806315de17de146104ee578063162790551461051b5780631f4ff03e14610548578063252322b31461056a578063281e34321461058a57610426565b80630496d5dc1461042b5780630b044a2e146104635780631022742b14610491578063149dab0e146104be57610426565b3661042657005b600080fd5b34801561043757600080fd5b5061044b6104463660046189be565b610df6565b60405161045a93929190619c53565b60405180910390f35b34801561046f57600080fd5b5061048361047e366004619334565b610ebc565b60405161045a929190619dfb565b34801561049d57600080fd5b506104b16104ac366004618d57565b610fa2565b60405161045a9190619de8565b3480156104ca57600080fd5b506104de6104d9366004619231565b611115565b60405161045a9493929190619ac9565b3480156104fa57600080fd5b5061050e610509366004618957565b6111be565b60405161045a9190619e57565b34801561052757600080fd5b5061053b61053636600461883a565b6111df565b60405161045a9190619e20565b34801561055457600080fd5b50610568610563366004618ed0565b6111e9565b005b34801561057657600080fd5b506104836105853660046188e5565b61153f565b34801561059657600080fd5b506104836105a5366004619546565b6115cf565b3480156105b657600080fd5b506105ca6105c536600461938d565b611668565b60405161045a9493929190619e2b565b3480156105e657600080fd5b506104836105f53660046188e5565b61182d565b34801561060657600080fd5b506104836106153660046189be565b611898565b34801561062657600080fd5b5061044b6106353660046189be565b61193c565b34801561064657600080fd5b5061065a61065536600461945b565b611ad3565b60405161045a9190619f15565b34801561067357600080fd5b506104836106823660046188e5565b611d58565b34801561069357600080fd5b5061050e6106a2366004618957565b611de8565b3480156106b357600080fd5b5061050e6106c2366004618957565b611df5565b3480156106d357600080fd5b506104836106e23660046188e5565b611e03565b3480156106f357600080fd5b506104b1610702366004618d57565b611e93565b34801561071357600080fd5b5061050e610722366004618957565b611f48565b34801561073357600080fd5b5061050e610742366004618957565b611f56565b61075a610755366004618b9e565b611f64565b60405161045a9190619d73565b34801561077357600080fd5b506107876107823660046190fe565b6120c5565b60405161045a93929190619cae565b3480156107a257600080fd5b506104b16107b1366004618c75565b6123d6565b3480156107c257600080fd5b5061050e6107d1366004618957565b6124c8565b3480156107e257600080fd5b506104de6107f1366004619231565b6124d6565b34801561080257600080fd5b50610568610811366004618f5b565b6124e6565b34801561082257600080fd5b5061050e610831366004618957565b61269c565b34801561084257600080fd5b5061065a61085136600461883a565b6126a9565b34801561086257600080fd5b50610483610871366004619546565b6126d0565b34801561088257600080fd5b50610483610891366004619334565b6127a7565b3480156108a257600080fd5b506104836108b13660046188e5565b612880565b3480156108c257600080fd5b5061050e6108d1366004618957565b612912565b3480156108e257600080fd5b506104836108f13660046191b2565b612928565b34801561090257600080fd5b5061090b6129b8565b60405161045a919061993b565b34801561092457600080fd5b50610938610933366004618c0c565b6129d0565b60405161045a949392919061a570565b34801561095457600080fd5b5061050e610963366004618957565b612be7565b34801561097457600080fd5b506104836109833660046188e5565b612bf4565b34801561099457600080fd5b5061050e6109a3366004618957565b612c5f565b3480156109b457600080fd5b5061050e6109c3366004618957565b612c75565b3480156109d457600080fd5b5061050e6109e33660046194c4565b612c83565b3480156109f457600080fd5b50610a08610a033660046193eb565b612dca565b60405161045a9493929190619e60565b348015610a2457600080fd5b5061050e610a33366004618957565b612f0d565b348015610a4457600080fd5b50610483610a533660046188e5565b612f38565b348015610a6457600080fd5b50610483610a733660046188e5565b612fa3565b348015610a8457600080fd5b506105ca610a93366004618a26565b613012565b348015610aa457600080fd5b50610483610ab33660046188e5565b6130b7565b348015610ac457600080fd5b5061050e610ad3366004618957565b613122565b348015610ae457600080fd5b50610af8610af33660046188e5565b613137565b60405161045a93929190619b13565b348015610b1357600080fd5b5061050e610b22366004618957565b6131d4565b348015610b3357600080fd5b50610483610b423660046188e5565b6131ea565b348015610b5357600080fd5b50610483610b623660046191b2565b61327a565b348015610b7357600080fd5b506104b1610b82366004618ca7565b6132e5565b348015610b9357600080fd5b50610483610ba2366004619334565b6133e1565b348015610bb357600080fd5b50610483610bc23660046188e5565b61344c565b348015610bd357600080fd5b5061050e610be2366004618957565b6134e2565b348015610bf357600080fd5b50610483610c023660046188e5565b6134f0565b348015610c1357600080fd5b50610483610c223660046189be565b61355b565b348015610c3357600080fd5b50610483610c423660046188e5565b6136b3565b348015610c5357600080fd5b50610a08610c623660046193eb565b613743565b348015610c7357600080fd5b5061050e610c82366004618957565b61385b565b348015610c9357600080fd5b5061050e610ca2366004618957565b613868565b348015610cb357600080fd5b5061050e610cc2366004618957565b613876565b348015610cd357600080fd5b506105ca610ce2366004618a26565b613884565b348015610cf357600080fd5b506105ca610d0236600461938d565b61393f565b348015610d1357600080fd5b506104b1610d22366004618cf6565b613b21565b348015610d3357600080fd5b50610483610d423660046188e5565b613c16565b348015610d5357600080fd5b5061050e610d62366004618957565b613c81565b348015610d7357600080fd5b50610af8610d823660046188e5565b613c8e565b348015610d9357600080fd5b50610483610da2366004619334565b613d40565b348015610db357600080fd5b50610787610dc23660046190fe565b613dab565b348015610dd357600080fd5b50610de7610de2366004618c0c565b6140f1565b60405161045a9392919061a53a565b6060806060610e058686614311565b9250825160001415610e1657610eb3565b610ead604051806080016040528087600081518110610e3157fe5b60200260200101516001600160a01b0316815260200187600189510381518110610e5757fe5b60200260200101516001600160a01b03168152602001888689604051602001610e8293929190619a93565b60408051601f1981840301815291815290825230602090811b637a82dcb91790911b9101528561450f565b90925090505b93509350939050565b606080610f956040518060a00160405280876001600160a01b03168152602001866001600160a01b0316815260200188604051602001610efc919061a4d4565b604051602081830303815290604052815260200160405180608001604052808a600001516001600160a01b031681526020018a602001516001600160e01b03191681526020018a60600151600f0b81526020018a60400151600f0b815250604051602001610f6a919061a4d4565b60408051601f1981840301815291815290825230602090811b63685d285d1790911b910152846145e0565b9097909650945050505050565b606083516001600160401b0381118015610fbb57600080fd5b50604051908082528060200260200182016040528015610fe5578160200160208202803683370190505b50905060005b8451811461110d57306001600160a01b0316639bf3ee3562030d4087848151811061101257fe5b602002602001015187858151811061102657fe5b6020026020010151876040518563ffffffff1660e01b815260040161104d9392919061a63b565b60206040518083038187803b15801561106557600080fd5b5086fa93505050508015611096575060408051601f3d908101601f1916820190925261109391810190618eb8565b60015b6110ea573d8080156110c4576040519150601f19603f3d011682016040523d82523d6000602084013e6110c9565b606091505b5060008383815181106110d857fe5b60200260200101818152505050611105565b808383815181106110f757fe5b602002602001018181525050505b600101610feb565b509392505050565b600060608060608760200151516000141561112f576111b3565b61113b88888888614ab8565b80945081955050506111ad6040518060800160405280896001600160a01b03168152602001886001600160a01b031681526020018686604051602001611182929190619a6f565b60408051601f1981840301815291815290825230602090811b63ab3e62101790911b9101528661450f565b90925090505b945094509450949050565b60006111d46111cb614ce9565b86868587614e12565b90505b949350505050565b803b15155b919050565b6000816001835103815181106111fb57fe5b6020026020010151905061120d614ce9565b6001600160a01b0316856001600160a01b0316141561127957846001600160a01b031663d0e30db0826040518263ffffffff1660e01b81526004016000604051808303818588803b15801561126157600080fd5b505af193505050508015611273575060015b50611330565b60405163e326c7d760e01b815285906001600160a01b0382169063e326c7d7906112a890600190600401619e20565b600060405180830381600087803b1580156112c257600080fd5b505af19250505080156112d3575060015b506040516355c3705360e11b81526001600160a01b0382169063ab86e0a690611302903090869060040161994f565b600060405180830381600087803b15801561131c57600080fd5b505af192505050801561132d575060015b50505b6040516000904780156108fc029183818181858288f1935050505015801561135c573d6000803e3d6000fd5b50606082516001600160401b038111801561137657600080fd5b506040519080825280602002602001820160405280156113a0578160200160208202803683370190505b509050606083516001600160401b03811180156113bc57600080fd5b506040519080825280602002602001820160405280156113e6578160200160208202803683370190505b50905060005b845181101561152a57306001600160a01b03166378fee41c621e84808b8b8b8b8b888151811061141857fe5b60200260200101516040518763ffffffff1660e01b8152600401611440959493929190619ec7565b600060405180830381600088803b15801561145a57600080fd5b5087f19350505050801561146c575060015b611501573d80801561149a576040519150601f19603f3d011682016040523d82523d6000602084013e61149f565b606091505b506114a981615008565b8584815181106114b557fe5b602002602001018585815181106114c857fe5b60200260200101828152508281525050508382815181106114e557fe5b6020026020010151600014156114fb575061152a565b50611522565b60405162461bcd60e51b81526004016115199061a376565b60405180910390fd5b6001016113ec565b50611535828261503d565b5050505050505050565b606080610f956040518060a00160405280876001600160a01b03168152602001866001600160a01b031681526020018860405160200161157f919061993b565b6040516020818303038152906040528152602001886040516020016115a4919061993b565b60408051601f1981840301815291815290825230602090811b63b770f8491790911b910152846145e0565b606080610f956040518060800160405280876001600160a01b03168152602001866001600160a01b0316815260200160405180604001604052808a600001516001600160a01b031681526020018a604001516001600160a01b031681525060405160200161163d919061a672565b60408051601f1981840301815291815290825230602090811b63c7dd6c4f1790911b9101528461450f565b60008060608087600001516001600160a01b0316631273b0c688886040518363ffffffff1660e01b81526004016116a0929190619968565b60206040518083038186803b1580156116b857600080fd5b505afa1580156116cc573d6000803e3d6000fd5b505050506040513d601f19601f820116820180604052508101906116f09190618856565b925060006001600160a01b0384161561170e575060019350866117ac565b8851604051630939d86360e11b81526001600160a01b0390911690631273b0c69061173f908a908c90600401619968565b60206040518083038186803b15801561175757600080fd5b505afa15801561176b573d6000803e3d6000fd5b505050506040513d601f19601f8201168201806040525081019061178f9190618856565b93506001600160a01b0384166117a557506111b3565b5060009350855b61181c60405180608001604052808a6001600160a01b03168152602001896001600160a01b031681526020018b6020015187896040516020016117f1939291906199b6565b60408051601f1981840301815291815290825230602090811b63cd85e7b51790911b9101528761450f565b909350915050945094509450949050565b606080610f956040518060800160405280876001600160a01b03168152602001866001600160a01b031681526020018860405160200161186d919061993b565b60408051601f1981840301815291815290825230602090811b63d3cdc04d1790911b9101528461450f565b6060806119306040518060800160405280866000815181106118b657fe5b60200260200101516001600160a01b03168152602001866001885103815181106118dc57fe5b60200260200101516001600160a01b031681526020018787604051602001611905929190619a6f565b60408051601f1981840301815291815290825230602090811b638effa9ea1790911b9101528461450f565b90969095509350505050565b606080606061194b8686614311565b925082516000141561195c57610eb3565b606085516001600160401b038111801561197557600080fd5b5060405190808252806020026020018201604052801561199f578160200160208202803683370190505b50905060005b86518110156119f4578660018289510303815181106119c057fe5b60200260200101518282815181106119d457fe5b6001600160a01b03909216602092830291909101909101526001016119a5565b506060611a018883614311565b9050611ac36040518060a0016040528089600081518110611a1e57fe5b60200260200101516001600160a01b031681526020018960018b510381518110611a4457fe5b60200260200101516001600160a01b031681526020018a888b604051602001611a6f93929190619a93565b60405160208183030381529060405281526020018a8486604051602001611a9893929190619a93565b60408051601f1981840301815291815290825230602090811b637a82dcb91790911b910152876145e0565b9094509250505093509350939050565b60208481015160408051600180825281830190925260609384929082810190803683370190505090508581600081518110611b0a57fe5b602090810291909101015260606000604051908082528060200260200182016040528015611b42578160200160208202803683370190505b50905087606001516001600160a01b0316866001600160a01b03161415611c33576040516381efcbdd60e01b81526001600160a01b038416906381efcbdd906207a12090611b9b90899060019088908890600401619b88565b60006040518083038187803b158015611bb357600080fd5b5086fa93505050508015611be957506040513d6000823e601f3d908101601f19168201604052611be69190810190618fd5565b60015b611c23573d808015611c17576040519150601f19603f3d011682016040523d82523d6000602084013e611c1c565b606091505b5050611c2e565b93506111d792505050565b611d4d565b87606001516001600160a01b0316856001600160a01b03161415611c89576040516361e597f960e01b81526001600160a01b038416906361e597f9906207a12090611b9b908a9060019088908890600401619b88565b6040516302b9a6cd60e11b81526001600160a01b038416906305734d9a906207a12090611cc9908a90600190889088908d90849084908490600401619bcb565b60006040518083038187803b158015611ce157600080fd5b5086fa93505050508015611d1757506040513d6000823e601f3d908101601f19168201604052611d149190810190618fd5565b60015b611c23573d808015611d45576040519150601f19603f3d011682016040523d82523d6000602084013e611d4a565b606091505b50505b505050949350505050565b606080610f956040518060a00160405280876001600160a01b03168152602001866001600160a01b0316815260200188604051602001611d98919061993b565b604051602081830303815290604052815260200188604051602001611dbd919061993b565b60408051601f1981840301815291815290825230602090811b637280bfff1790911b910152846145e0565b60006111d485838561506b565b60006111d485858486615149565b606080610f956040518060a00160405280876001600160a01b03168152602001866001600160a01b0316815260200188604051602001611e43919061993b565b604051602081830303815290604052815260200188604051602001611e68919061993b565b60408051601f1981840301815291815290825230602090811b63686b7ee81790911b910152846145e0565b6060611ea0848484610fa2565b905060005b845181101561110d57818181518110611eba57fe5b6020026020010151600014611f4057611f27828281518110611ed857fe5b6020026020010151868381518110611eec57fe5b6020026020010151606001516001600160801b0316878481518110611f0d57fe5b6020026020010151604001516001600160801b03166151a9565b828281518110611f3357fe5b6020026020010181815250505b600101611ea5565b60006111d4858584866151d3565b60006111d4858584866153e9565b6060816001600160401b0381118015611f7c57600080fd5b50604051908082528060200260200182016040528015611fb657816020015b611fa36180e0565b815260200190600190039081611f9b5790505b50905060005b8083146120be576001828281518110611fd157fe5b602090810291909101810151911515910152838382818110611fef57fe5b9050602002810190612001919061a814565b1515905061200e576120b6565b3084848381811061201b57fe5b905060200281019061202d919061a814565b60405161203b92919061990f565b6000604051808303816000865af19150503d8060008114612078576040519150601f19603f3d011682016040523d82523d6000602084013e61207d565b606091505b5083838151811061208a57fe5b60200260200101516020018484815181106120a157fe5b60209081029190910101519190915290151590525b600101611fbc565b5092915050565b606080606080612147886001600160a01b031663c45a01556040518163ffffffff1660e01b815260040160206040518083038186803b15801561210757600080fd5b505afa15801561211b573d6000803e3d6000fd5b505050506040513d601f19601f8201168201806040525081019061213f9190618856565b87600061544d565b905084516001600160401b038111801561216057600080fd5b5060405190808252806020026020018201604052801561218a578160200160208202803683370190505b50915084516001600160401b03811180156121a457600080fd5b506040519080825280602002602001820160405280156121ce578160200160208202803683370190505b50925084516001600160401b03811180156121e857600080fd5b5060405190808252806020026020018201604052801561221c57816020015b60608152602001906001900390816122075790505b50935060005b81518110156123ca57606061224a8884848151811061223d57fe5b60200260200101516158e3565b90506060806122e460405180608001604052808c60008151811061226a57fe5b60200260200101516001600160a01b031681526020018c60018e51038151811061229057fe5b60200260200101516001600160a01b031681526020018d866040516020016122b9929190619b64565b60408051601f1981840301815291815290825230602090811b6359ab9a6c1790911b9101528a61450f565b9150915060005b81518110156123bb5781818151811061230057fe5b602002602001015160001415612315576123bb565b81818151811061232157fe5b602002602001015187828151811061233557fe5b6020026020010151116123b35781818151811061234e57fe5b602002602001015187828151811061236257fe5b60200260200101818152505082818151811061237a57fe5b602002602001015188828151811061238e57fe5b602002602001018181525050838982815181106123a757fe5b60200260200101819052505b6001016122eb565b50505050806001019050612222565b50509450945094915050565b606081516001600160401b03811180156123ef57600080fd5b50604051908082528060200260200182016040528015612419578160200160208202803683370190505b50905060005b825181146124c2577f00000000000000000000000000000000000000000000000000000000000000006001600160a01b031683828151811061245d57fe5b60200260200101516001600160a01b03161461249d5761249883828151811061248257fe5b60200260200101516001600160a01b0316615a3e565b6124a0565b60125b60ff168282815181106124af57fe5b602090810291909101015260010161241f565b50919050565b60006111d485858486615aea565b5060009360609350839250829150565b61133761def160901b016001600160a01b031663d0afdca96040518163ffffffff1660e01b8152600401600060405180830381600087803b15801561252a57600080fd5b505af192505050801561253b575060015b5060005a905060006060306001600160a01b031688888888886040516024016125679493929190619a0e565b60408051601f198184030181529181526020820180516001600160e01b03166001600160e01b03199094169390931790925290516125a5919061991f565b6000604051808303816000865af19150503d80600081146125e2576040519150601f19603f3d011682016040523d82523d6000602084013e6125e7565b606091505b50915091505a8303925061133761def160901b016001600160a01b0316630c18c1626040518163ffffffff1660e01b815260040160206040518083038186803b15801561263357600080fd5b505afa925050508015612663575060408051601f3d908101601f1916820190925261266091810190618eb8565b60015b61266c57612671565b909203915b8161267f5761267f81615baa565b611535818060200190518101906126969190618eb8565b84615bb2565b60006111d4848385615bc0565b60408051603f833b908101601f191682019092528181529080600060208401853c50919050565b6060806126db6180f8565b604051806040016040528088600001516001600160a01b0316815260200188604001516001600160a01b031681525090506127996040518060a00160405280886001600160a01b03168152602001876001600160a01b0316815260200183604051602001612749919061a672565b60405160208183030381529060405281526020018360405160200161276e919061a672565b60408051601f1981840301815291815290825230602090811b63c7dd6c4f1790911b910152856145e0565b909890975095505050505050565b606080610f956040518060a00160405280876001600160a01b03168152602001866001600160a01b03168152602001886040516020016127e7919061a4d4565b604051602081830303815290604052815260200160405180608001604052808a600001516001600160a01b031681526020018a602001516001600160e01b03191681526020018a60600151600f0b81526020018a60400151600f0b815250604051602001612855919061a4d4565b60408051601f1981840301815291815290825230602090811b638d201c221790911b910152846145e0565b6040516350c8f05160e11b81526060908190309063a191e0a2906128ae908990899089908990600401619982565b600060405180830381600087803b1580156128c857600080fd5b505af11580156128dc573d6000803e3d6000fd5b505050506040513d6000823e601f3d908101601f191682016040526129049190810190618e58565b915091505b94509492505050565b60006111d461291f614ce9565b86868587615d59565b606080610f956040518060a00160405280876001600160a01b03168152602001866001600160a01b0316815260200188604051602001612968919061a4b4565b60405160208183030381529060405281526020018860405160200161298d919061a4b4565b60408051601f1981840301815291815290825230602090811b639ad732ef1790911b910152846145e0565b73eeeeeeeeeeeeeeeeeeeeeeeeeeeeeeeeeeeeeeee81565b6129d861810f565b6129e061810f565b600080805b87518114612ae557612a2c60208983815181106129fe57fe5b60200260200101515103878a8481518110612a1557fe5b602002602001015161600f9092919063ffffffff16565b60006060306001600160a01b03168a8481518110612a4657fe5b6020026020010151604051612a5b919061991f565b6000604051808303816000865af19150503d8060008114612a98576040519150601f19603f3d011682016040523d82523d6000602084013e612a9d565b606091505b50915091508115612adb576000612ac160208351038361601f90919063ffffffff16565b905085811115612ad957838852602088018290529450845b505b50506001016129e5565b5081612af057612bde565b60005b86518114612bdc57612b236020888381518110612b0c57fe5b6020026020010151510384898481518110612a1557fe5b60006060306001600160a01b0316898481518110612b3d57fe5b6020026020010151604051612b52919061991f565b6000604051808303816000865af19150503d8060008114612b8f576040519150601f19603f3d011682016040523d82523d6000602084013e612b94565b606091505b50915091508115612bd2576000612bb860208351038361601f90919063ffffffff16565b905084811115612bd057838752602087018290529350835b505b5050600101612af3565b505b93509350935093565b60006111d484838561602b565b606080610f956040518060800160405280876001600160a01b03168152602001866001600160a01b0316815260200188604051602001612c34919061993b565b60408051601f1981840301815291815290825230602090811b637280bfff1790911b9101528461450f565b60006111d4612c6c614ce9565b8686858761617c565b60006111d485858486616348565b60008083516003811115612c9357fe5b1480612cab5750600183516003811115612ca957fe5b145b80612cc1575060408401516001600160801b0316155b80612cd7575060608401516001600160801b0316155b15612ce457506000612dc3565b612cec618129565b600080846001600160a01b0316631fb0979588886040518363ffffffff1660e01b8152600401612d1d92919061a61e565b60a06040518083038186803b158015612d3557600080fd5b505afa158015612d49573d6000803e3d6000fd5b505050506040513d601f19601f82011682018060405250810190612d6d91906195d8565b91945092509050600183602001516004811115612d8657fe5b141580612d91575080155b80612da4575086516001600160a01b0316155b15612db55760009350505050612dc3565b506001600160801b03169150505b9392505050565b60006060806060612ddc88888861649c565b935083612de8576111b3565b60405163276fdad960e11b81523090634edfb5b290612e11908b9088908c908c9060040161a5a9565b60006040518083038186803b158015612e2957600080fd5b505afa158015612e3d573d6000803e3d6000fd5b505050506040513d6000823e601f3d908101601f19168201604052612e659190810190618fd5565b8860800181905250876080015192506111ad6040518060a00160405280896001600160a01b03168152602001886001600160a01b031681526020018a6040015186604051602001612eb7929190619b64565b60405160208183030381529060405281526020018a6040015186604051602001612ee2929190619b64565b60408051601f1981840301815291815290825230602090811b63a095a0361790911b910152866145e0565b60006111d473eeeeeeeeeeeeeeeeeeeeeeeeeeeeeeeeeeeeeeee612f2f614ce9565b8787868861660c565b606080610f956040518060800160405280876001600160a01b03168152602001866001600160a01b0316815260200188604051602001612f78919061993b565b60408051601f1981840301815291815290825230602090811b639914377d1790911b9101528461450f565b60608060606127996040518060800160405280886001600160a01b03168152602001876001600160a01b031681526020018984604051602001612fe7929190619b64565b60408051601f1981840301815291815290825230602090811b63d31b0a8a1790911b9101528561450f565b6000806060806130248989898961680e565b945092506001600160a01b03831661303b576130ab565b6130a56040518060800160405280896001600160a01b03168152602001886001600160a01b03168152602001858760405160200161307a929190619b49565b60408051601f1981840301815291815290825230602090811b63f573c1611790911b9101528661450f565b90925090505b95509550955095915050565b606080610f956040518060800160405280876001600160a01b03168152602001866001600160a01b03168152602001886040516020016130f7919061993b565b60408051601f1981840301815291815290825230602090811b635c71cbe71790911b9101528461450f565b60006111d461312f614ce9565b858486616963565b6000606080613147878787616c4c565b92506001600160a01b03831661315c576131ca565b6131c46040518060800160405280886001600160a01b03168152602001876001600160a01b0316815260200185604051602001613199919061993b565b60408051601f1981840301815291815290825230602090811b6315de17de1790911b9101528561450f565b90925090505b9450945094915050565b60006111d46131e1614ce9565b86868587616d2b565b606080610f956040518060a00160405280876001600160a01b03168152602001866001600160a01b031681526020018860405160200161322a919061993b565b60405160208183030381529060405281526020018860405160200161324f919061993b565b60408051601f1981840301815291815290825230602090811b63d3cdc04d1790911b910152846145e0565b606080610f956040518060800160405280876001600160a01b03168152602001866001600160a01b03168152602001886040516020016132ba919061a4b4565b60408051601f1981840301815291815290825230602090811b639ad732ef1790911b9101528461450f565b606082516001600160401b03811180156132fe57600080fd5b50604051908082528060200260200182016040528015613328578160200160208202803683370190505b50905060005b835181146120be577f00000000000000000000000000000000000000000000000000000000000000006001600160a01b031684828151811061336c57fe5b60200260200101516001600160a01b0316146133b6576133b18385838151811061339257fe5b60200260200101516001600160a01b0316616fad90919063ffffffff16565b6133c2565b826001600160a01b0316315b8282815181106133ce57fe5b602090810291909101015260010161332e565b606080610f956040518060800160405280876001600160a01b03168152602001866001600160a01b0316815260200188604051602001613421919061a4d4565b60408051601f1981840301815291815290825230602090811b638d201c221790911b9101528461450f565b60608060606127996040518060a00160405280886001600160a01b03168152602001876001600160a01b031681526020018984604051602001613490929190619b64565b604051602081830303815290604052815260200189846040516020016134b7929190619b64565b60408051601f1981840301815291815290825230602090811b63d31b0a8a1790911b910152856145e0565b60006111d485858486617080565b606080610f956040518060800160405280876001600160a01b03168152602001866001600160a01b0316815260200188604051602001613530919061993b565b60408051601f1981840301815291815290825230602090811b63b770f8491790911b9101528461450f565b606080606084516001600160401b038111801561357757600080fd5b506040519080825280602002602001820160405280156135a1578160200160208202803683370190505b50905060005b85518110156135f6578560018288510303815181106135c257fe5b60200260200101518282815181106135d657fe5b6001600160a01b03909216602092830291909101909101526001016135a7565b50610f956040518060a001604052808760008151811061361257fe5b60200260200101516001600160a01b031681526020018760018951038151811061363857fe5b60200260200101516001600160a01b031681526020018888604051602001613661929190619a6f565b60405160208183030381529060405281526020018884604051602001613688929190619a6f565b60408051601f1981840301815291815290825230602090811b638effa9ea1790911b910152856145e0565b606080610f956040518060a00160405280876001600160a01b03168152602001866001600160a01b03168152602001886040516020016136f3919061993b565b604051602081830303815290604052815260200188604051602001613718919061993b565b60408051601f1981840301815291815290825230602090811b635c71cbe71790911b910152846145e0565b6000606080606061375588888861649c565b935083613761576111b3565b60405163276fdad960e11b81523090634edfb5b29061378a908b9088908c908c9060040161a5a9565b60006040518083038186803b1580156137a257600080fd5b505afa1580156137b6573d6000803e3d6000fd5b505050506040513d6000823e601f3d908101601f191682016040526137de9190810190618fd5565b8860800181905250876080015192506111ad6040518060800160405280896001600160a01b03168152602001886001600160a01b031681526020018a6040015186604051602001613830929190619b64565b60408051601f1981840301815291815290825230602090811b63a095a0361790911b9101528661450f565b60006111d4858385617404565b60006111d4858584866175f2565b60006111d4858584866176b6565b6000806060806138968989898961680e565b945092506001600160a01b0383166138ad576130ab565b6130a56040518060a00160405280896001600160a01b03168152602001886001600160a01b0316815260200185876040516020016138ec929190619b49565b6040516020818303038152906040528152602001858715604051602001613914929190619b49565b60408051601f1981840301815291815290825230602090811b63f573c1611790911b910152866145e0565b60008060608087600001516001600160a01b0316631273b0c688886040518363ffffffff1660e01b8152600401613977929190619968565b60206040518083038186803b15801561398f57600080fd5b505afa1580156139a3573d6000803e3d6000fd5b505050506040513d601f19601f820116820180604052508101906139c79190618856565b925060006001600160a01b038416156139e557506001935086613a83565b8851604051630939d86360e11b81526001600160a01b0390911690631273b0c690613a16908a908c90600401619968565b60206040518083038186803b158015613a2e57600080fd5b505afa158015613a42573d6000803e3d6000fd5b505050506040513d601f19601f82011682018060405250810190613a669190618856565b93506001600160a01b038416613a7c57506111b3565b5060009350855b61181c6040518060a001604052808a6001600160a01b03168152602001896001600160a01b031681526020018b602001518789604051602001613ac8939291906199b6565b60405160208183030381529060405281526020018b60200151878915604051602001613af6939291906199b6565b60408051601f1981840301815291815290825230602090811b63cd85e7b51790911b910152876145e0565b606083516001600160401b0381118015613b3a57600080fd5b50604051908082528060200260200182016040528015613b64578160200160208202803683370190505b50905060005b8451811461110d577f00000000000000000000000000000000000000000000000000000000000000006001600160a01b0316858281518110613ba857fe5b60200260200101516001600160a01b031614613bf457613bef8484878481518110613bcf57fe5b60200260200101516001600160a01b03166177189092919063ffffffff16565b613bf7565b60005b828281518110613c0357fe5b6020908102919091010152600101613b6a565b606080610f956040518060800160405280876001600160a01b03168152602001866001600160a01b0316815260200188604051602001613c56919061993b565b60408051601f1981840301815291815290825230602090811b63686b7ee81790911b9101528461450f565b60006111d48583856177e4565b6000606080613c9e878787616c4c565b92506001600160a01b038316613cb3576131ca565b6131c46040518060a00160405280886001600160a01b03168152602001876001600160a01b0316815260200185604051602001613cf0919061993b565b604051602081830303815290604052815260200185604051602001613d15919061993b565b60408051601f1981840301815291815290825230602090811b6315de17de1790911b910152856145e0565b606080610f956040518060800160405280876001600160a01b03168152602001866001600160a01b0316815260200188604051602001613d80919061a4d4565b60408051601f1981840301815291815290825230602090811b63685d285d1790911b9101528461450f565b606080606080613ded886001600160a01b031663c45a01556040518163ffffffff1660e01b815260040160206040518083038186803b15801561210757600080fd5b90506060613dfa876178ca565b905085516001600160401b0381118015613e1357600080fd5b50604051908082528060200260200182016040528015613e3d578160200160208202803683370190505b50925085516001600160401b0381118015613e5757600080fd5b50604051908082528060200260200182016040528015613e81578160200160208202803683370190505b50935085516001600160401b0381118015613e9b57600080fd5b50604051908082528060200260200182016040528015613ecf57816020015b6060815260200190600190039081613eba5790505b50945060005b82518110156140e457606080613fd06040518060a001604052808c600081518110613efc57fe5b60200260200101516001600160a01b031681526020018c60018e510381518110613f2257fe5b60200260200101516001600160a01b031681526020018d613f498e8a898151811061223d57fe5b604051602001613f5a929190619b64565b60405160208183030381529060405281526020018d613f9488613f8f8b8a81518110613f8257fe5b6020026020010151617962565b6158e3565b604051602001613fa5929190619b64565b60408051601f1981840301815291815290825230602090811b6359ab9a6c1790911b9101528a6145e0565b9150915060005b81518110156140d657818181518110613fec57fe5b602002602001015160001415614001576140d6565b86818151811061400d57fe5b602002602001015160001480614049575081818151811061402a57fe5b602002602001015187828151811061403e57fe5b602002602001015110155b156140ce5781818151811061405a57fe5b602002602001015187828151811061406e57fe5b60200260200101818152505082818151811061408657fe5b602002602001015188828151811061409a57fe5b6020026020010181815250506140b68b87868151811061223d57fe5b8982815181106140c257fe5b60200260200101819052505b600101613fd7565b505050806001019050613ed5565b5050509450945094915050565b6140f961810f565b61410161810f565b6000198060005b865181146141fd57614138602088838151811061412157fe5b6020026020010151510387898481518110612a1557fe5b60006060306001600160a01b031689848151811061415257fe5b6020026020010151604051614167919061991f565b6000604051808303816000865af19150503d80600081146141a4576040519150601f19603f3d011682016040523d82523d6000602084013e6141a9565b606091505b509150915081156141f35760006141cd60208351038361601f90919063ffffffff16565b90506000811180156141de57508481105b156141f157838752602087018290529350835b505b5050600101614108565b5060001981141561420e5750610eb3565b60005b8751811461430657614241602089838151811061422a57fe5b60200260200101515103838a8481518110612a1557fe5b60006060306001600160a01b03168a848151811061425b57fe5b6020026020010151604051614270919061991f565b6000604051808303816000865af19150503d80600081146142ad576040519150601f19603f3d011682016040523d82523d6000602084013e6142b2565b606091505b509150915081156142fc5760006142d660208351038361601f90919063ffffffff16565b90506000811180156142e757508581105b156142fa57838852602088018290529450845b505b5050600101614211565b505093509350939050565b606060018251036001600160401b038111801561432d57600080fd5b50604051908082528060200260200182016040528015614357578160200160208202803683370190505b5090506000836001600160a01b031663c45a01556040518163ffffffff1660e01b815260040160206040518083038186803b15801561439557600080fd5b505afa1580156143a9573d6000803e3d6000fd5b505050506040513d601f19601f820116820180604052508101906143cd9190618856565b905060005b825181101561450657816001600160a01b03166365da9289620249f08684815181106143fa57fe5b602002602001015187856001018151811061441157fe5b602002602001015160006040518563ffffffff1660e01b815260040161443993929190619a4b565b60206040518083038187803b15801561445157600080fd5b5086fa93505050508015614482575060408051601f3d908101601f1916820190925261447f91810190618856565b60015b6144d0573d8080156144b0576040519150601f19603f3d011682016040523d82523d6000602084013e6144b5565b606091505b50506040805160008152602081019091529250614509915050565b808483815181106144dd57fe5b60200260200101906001600160a01b031690816001600160a01b031681525050506001016143d2565b50505b92915050565b606082810151835160208501516040808701519051630fa7f81f60e11b815285943094631f4ff03e9461455b9460a09390931b6001600160e01b03191693919290918a90600401619e79565b600060405180830381600087803b15801561457557600080fd5b505af1925050508015614586575060015b611501573d8080156145b4576040519150601f19603f3d011682016040523d82523d6000602084013e6145b9565b606091505b50808060200190518101906145ce9190618e58565b935091506145d99050565b9250929050565b6060808251600014156145f2576145d9565b82516001600160401b038111801561460957600080fd5b50604051908082528060200260200182016040528015614633578160200160208202803683370190505b50905082516001600160401b038111801561464d57600080fd5b50604051908082528060200260200182016040528015614677578160200160208202803683370190505b506040805160018082528183019092529193506060919060208083019080368337019050509050836000815181106146ab57fe5b6020026020010151816000815181106146c057fe5b6020026020010181815250506146d461814b565b50604080516080808201835287516001600160a01b0390811683526020808a0151909116908301528783015182840152870151640100000000600160c01b0390831c90811663ffffffff9091161790911b606082015261473261814b565b604051806080016040528088602001516001600160a01b0316815260200188600001516001600160a01b031681526020018860600151815260200188608001518060601c9060401c63ffffffff1663ffffffff169060201b1760401b815250905061479d818461450f565b8051909450159050806147c45750826000815181106147b857fe5b60200260200101516000145b156147d1575050506145d9565b60606147dd838561450f565b8051909250159050806148045750806000815181106147f857fe5b60200260200101516000145b1561481257505050506145d9565b60005b8751811015614aac57606060005b60038110156149ea576148728a848151811061483b57fe5b60200260200101518560008151811061485057fe5b60200260200101518960008151811061486557fe5b60200260200101516179fa565b8760008151811061487f57fe5b6020908102919091010152865115806148ac5750866000815181106148a057fe5b60200260200101516000145b156148b6576149ea565b6148cf6005612710016127108960008151811061486557fe5b876000815181106148dc57fe5b6020908102919091010152865115806149095750866000815181106148fd57fe5b60200260200101516000145b15614913576149ea565b606061491f878961450f565b80519194509150158061494657508060008151811061493a57fe5b60200260200101516000145b1561495157506149ea565b8094508a848151811061496057fe5b60200260200101518560008151811061497557fe5b6020026020010151106149e15760008b858151811061499057fe5b60200260200101516127108d87815181106149a757fe5b6020026020010151886000815181106149bc57fe5b60200260200101510302816149cd57fe5b049050600581116149df5750506149ea565b505b50600101614823565b5080511580614a0d575080600081518110614a0157fe5b60200260200101516000145b15614a1d575050505050506145d9565b825115614aa35780600081518110614a3157fe5b6020026020010151888381518110614a4557fe5b602002602001018181525050614a8a898381518110614a6057fe5b602002602001015184600081518110614a7557fe5b60200260200101518860008151811061486557fe5b878381518110614a9657fe5b6020026020010181815250505b50600101614815565b50505050509250929050565b6000606085600001516001600160a01b03166321f8a72187600001516001600160a01b0316639232494e6040518163ffffffff1660e01b815260040160206040518083038186803b158015614b0c57600080fd5b505afa158015614b20573d6000803e3d6000fd5b505050506040513d601f19601f82011682018060405250810190614b449190618eb8565b6040518263ffffffff1660e01b8152600401614b609190619e57565b60206040518083038186803b158015614b7857600080fd5b505afa158015614b8c573d6000803e3d6000fd5b505050506040513d601f19601f82011682018060405250810190614bb09190618856565b915085602001515160001415614bc557612909565b6000805b876020015151811015614cde57600288602001518281518110614be857fe5b6020026020010151511015614bfc57614cd6565b836001600160a01b0316637f9c0ecd620493e08a602001518481518110614c1f57fe5b60200260200101518860018a510381518110614c3757fe5b60200260200101516040518463ffffffff1660e01b8152600401614c5c929190619c8c565b60206040518083038187803b158015614c7457600080fd5b5086fa93505050508015614ca5575060408051601f3d908101601f19168201909252614ca291810190618eb8565b60015b614cae57614cd6565b82811115614cd45780925088602001518281518110614cc957fe5b602002602001015193505b505b600101614bc9565b505094509492505050565b600046816001821415614d11575073c02aaa39b223fe8d0a0e5c4f27ead9083c756cc2614de6565b8160031415614d35575073c778417e063141139fce010982780140aa0cd5ab614de6565b8160041415614d59575073c778417e063141139fce010982780140aa0cd5ab614de6565b81602a1415614d7d575073d0a1e359811322d97991e03f863a0c30c2cf029c614de6565b8160381415614da1575073bb4cdb9cbd36b01bd1cbaebf2de08d9173bc095c614de6565b8160891415614dc55750730d500b1d8e8ef31e21c99d1db9a6444d3adf1270614de6565b816105391415614de65750730b1ba0af832d7c05fd64161e0db78e85978e80825b6001600160a01b038116614e0c5760405162461bcd60e51b81526004016115199061a1d6565b91505090565b60008082806020019051810190614e299190618856565b90506000876001600160a01b0316876001600160a01b03161415614ead57604051632e1a7d4d60e01b81526001600160a01b03891690632e1a7d4d90614e73908890600401619e57565b600060405180830381600087803b158015614e8d57600080fd5b505af1158015614ea1573d6000803e3d6000fd5b50505050849050614ec1565b614ec16001600160a01b0388168387617a52565b816001600160a01b031663d5bcb9b5828a6001600160a01b03168a6001600160a01b031614614ef05789614ef3565b60005b8b6001600160a01b03168a6001600160a01b031614614f125789614f15565b60005b89600160006040518763ffffffff1660e01b8152600401614f3a959493929190619f8b565b6020604051808303818588803b158015614f5357600080fd5b505af1158015614f67573d6000803e3d6000fd5b50505050506040513d601f19601f82011682018060405250810190614f8c9190618eb8565b9250876001600160a01b0316866001600160a01b03161415614ffd57876001600160a01b031663d0e30db0846040518263ffffffff1660e01b81526004016000604051808303818588803b158015614fe357600080fd5b505af1158015614ff7573d6000803e3d6000fd5b50505050505b505095945050505050565b600080825160401461501f57506000905080615038565b828060200190518101906150339190619677565b915091505b915091565b60608282604051602001615052929190619dfb565b6040516020818303038152906040529050805160208201fd5b60008060608380602001905181019061508491906190ba565b909250905061509d6001600160a01b0387168387617a52565b6040805160a08101825282815230602082015242818301526060810187905260016080820152905163c04b8d5960e01b81526001600160a01b0384169163c04b8d59916150ed919060040161a4e2565b602060405180830381600087803b15801561510757600080fd5b505af115801561511b573d6000803e3d6000fd5b505050506040513d601f19601f8201168201806040525081019061513f9190618eb8565b9695505050505050565b600080828060200190518101906151609190618856565b90506151766001600160a01b0387168286617a52565b604051630310da7b60e11b81526001600160a01b03821690630621b4f6906150ed90899088908a9060019060040161a03e565b60006111d7836151cd6151bd826001617ae5565b6151c78887617b09565b90617b3a565b90617b56565b60006151dd618173565b828060200190518101906151f19190619319565b805190915061520b906001600160a01b0388169086617a52565b6040516370a0823160e01b81526000906001600160a01b038716906370a082319061523a90309060040161993b565b60206040518083038186803b15801561525257600080fd5b505afa158015615266573d6000803e3d6000fd5b505050506040513d601f19601f8201168201806040525081019061528a9190618eb8565b90506000606083600001516001600160a01b03168460200151856040015186606001518a60016040516024016152c3949392919061a0cb565b60408051601f198184030181529181526020820180516001600160e01b03166001600160e01b0319909416939093179092529051615301919061991f565b6000604051808303816000865af19150503d806000811461533e576040519150601f19603f3d011682016040523d82523d6000602084013e615343565b606091505b5091509150816153565761535681615baa565b6153dc83896001600160a01b03166370a08231306040518263ffffffff1660e01b8152600401615386919061993b565b60206040518083038186803b15801561539e57600080fd5b505afa1580156153b2573d6000803e3d6000fd5b505050506040513d601f19601f820116820180604052508101906153d69190618eb8565b90617ae5565b9998505050505050505050565b600080828060200190518101906154009190618856565b90506154166001600160a01b0387168286617a52565b604051630164b07960e31b81526001600160a01b03821690630b2583c8906150ed9089908990899060019042820190600401619fbb565b606060028284510310156154735760405162461bcd60e51b81526004016115199061a10f565b61547b61819a565b5060408051606080820183526101f48252610bb8602083015261271082840152825160038082526080820190945291929091908160200160208202803683370190505090506000808686815181106154cf57fe5b6020026020010151905060008787600101815181106154ea57fe5b6020026020010151905060005b60038110156155df5760008a6001600160a01b0316631698ee8285858a866003811061551f57fe5b60200201516040518463ffffffff1660e01b815260040161554293929190619f63565b60206040518083038186803b15801561555a57600080fd5b505afa15801561556e573d6000803e3d6000fd5b505050506040513d601f19601f820116820180604052508101906155929190618856565b905061559d81617b80565b156155d657808686806001019750815181106155b557fe5b60200260200101906001600160a01b031690816001600160a01b0316815250505b506001016154f7565b505050806155ef57505050612dc3565b85518560020114156156e557806001600160401b038111801561561157600080fd5b5060405190808252806020026020018201604052801561564557816020015b60608152602001906001900390816156305790505b50935060005b818110156156dc5760408051600180825281830190925290602080830190803683370190505085828151811061567d57fe5b602002602001018190525082818151811061569457fe5b60200260200101518582815181106156a857fe5b60200260200101516000815181106156bc57fe5b6001600160a01b039092166020928302919091019091015260010161564b565b50505050612dc3565b60606156f588888860010161544d565b905080516000141561570a5750505050612dc3565b805182026001600160401b038111801561572357600080fd5b5060405190808252806020026020018201604052801561575757816020015b60608152602001906001900390816157425790505b50945060005b828110156158d75760005b82518110156158ce57825182810282019084908390811061578557fe5b6020026020010151516001016001600160401b03811180156157a657600080fd5b506040519080825280602002602001820160405280156157d0578160200160208202803683370190505b508882815181106157dd57fe5b60200260200101819052508583815181106157f457fe5b602002602001015188828151811061580857fe5b602002602001015160008151811061581c57fe5b60200260200101906001600160a01b031690816001600160a01b03168152505060005b84838151811061584b57fe5b6020026020010151518110156158c45784838151811061586757fe5b6020026020010151818151811061587a57fe5b602002602001015189838151811061588e57fe5b602002602001015182600101815181106158a457fe5b6001600160a01b039092166020928302919091019091015260010161583f565b5050600101615768565b5060010161575d565b50505050509392505050565b606060028351101580156158fb575081516001018351145b6159175760405162461bcd60e51b81526004016115199061a26a565b81516003028351601402016001600160401b038111801561593757600080fd5b506040519080825280601f01601f191660200182016040528015615962576020820181803683370190505b5090506020810160005b8451811015614506578015615a1157600084600183038151811061598c57fe5b60200260200101516001600160a01b031663ddca3f436040518163ffffffff1660e01b815260040160206040518083038186803b1580156159cc57600080fd5b505afa1580156159e0573d6000803e3d6000fd5b505050506040513d601f19601f82011682018060405250810190615a049190619654565b60e81b8352506003909101905b6000858281518110615a1f57fe5b602090810291909101015160601b83525060149091019060010161596c565b60006012905060006060836001600160a01b031660405180604001604052806004815260200163313ce56760e01b815250604051615a7c919061991f565b600060405180830381855afa9150503d8060008114615ab7576040519150601f19603f3d011682016040523d82523d6000602084013e615abc565b606091505b5091509150818015615ad057506020815110155b15615ae357615ae081600061601f565b92505b5050919050565b60008082806020019051810190615b019190618856565b9050615b176001600160a01b0387168286617a52565b604051638201aa3f60e01b81526001600160a01b03821690638201aa3f90615b4e90899088908a906001906000199060040161a068565b6040805180830381600087803b158015615b6757600080fd5b505af1158015615b7b573d6000803e3d6000fd5b505050506040513d601f19601f82011682018060405250810190615b9f9190619677565b509695505050505050565b805160208201fd5b816000528060205260406000fd5b60008060608084806020019051810190615bda9190618872565b8151929550909350915060011115615c045760405162461bcd60e51b81526004016115199061a408565b8151600101815114615c285760405162461bcd60e51b81526004016115199061a2fe565b866001600160a01b031681600183510381518110615c4257fe5b60200260200101516001600160a01b031614615c705760405162461bcd60e51b81526004016115199061a20d565b615ca2838783600081518110615c8257fe5b60200260200101516001600160a01b0316617a529092919063ffffffff16565b60405163ceb757d560e01b81526060906001600160a01b0385169063ceb757d590615cdc908a90600190889088903090429060040161a727565b600060405180830381600087803b158015615cf657600080fd5b505af1158015615d0a573d6000803e3d6000fd5b505050506040513d6000823e601f3d908101601f19168201604052615d329190810190618e26565b905080600182510381518110615d4457fe5b60200260200101519450505050509392505050565b6000615d63618173565b82806020019051810190615d779190619319565b90506000876001600160a01b0316876001600160a01b03161415615dfb5750604051632e1a7d4d60e01b815284906001600160a01b03891690632e1a7d4d90615dc4908490600401619e57565b600060405180830381600087803b158015615dde57600080fd5b505af1158015615df2573d6000803e3d6000fd5b50505050615e12565b8151615e12906001600160a01b0389169087617a52565b6040516370a0823160e01b81526000906001600160a01b038816906370a0823190615e4190309060040161993b565b60206040518083038186803b158015615e5957600080fd5b505afa158015615e6d573d6000803e3d6000fd5b505050506040513d601f19601f82011682018060405250810190615e919190618eb8565b90506000606084600001516001600160a01b0316848660200151876040015188606001518c6001604051602401615ecb949392919061a0cb565b60408051601f198184030181529181526020820180516001600160e01b03166001600160e01b0319909416939093179092529051615f09919061991f565b60006040518083038185875af1925050503d8060008114615f46576040519150601f19603f3d011682016040523d82523d6000602084013e615f4b565b606091505b509150915081615f5e57615f5e81615baa565b8a6001600160a01b0316896001600160a01b03161415615fd0574795508a6001600160a01b031663d0e30db0876040518263ffffffff1660e01b81526004016000604051808303818588803b158015615fb657600080fd5b505af1158015615fca573d6000803e3d6000fd5b50505050505b616000838a6001600160a01b03166370a08231306040518263ffffffff1660e01b8152600401615386919061993b565b9b9a5050505050505050505050565b61601a838383617d8c565b505050565b6000612dc38383617db3565b600080606080848060200190518101906160459190619007565b8051919450925060021115905061606e5760405162461bcd60e51b81526004016115199061a2af565b856001600160a01b03168160018351038151811061608857fe5b60200260200101516001600160a01b0316146160b65760405162461bcd60e51b81526004016115199061a457565b6160c8828683600081518110615c8257fe5b6040516338ed173960e01b81526060906001600160a01b038416906338ed17399061610090899060019087903090429060040161a777565b600060405180830381600087803b15801561611a57600080fd5b505af115801561612e573d6000803e3d6000fd5b505050506040513d6000823e601f3d908101601f191682016040526161569190810190618e26565b90508060018251038151811061616857fe5b602002602001015193505050509392505050565b600080828060200190518101906161939190618856565b9050866001600160a01b0316866001600160a01b03161480156161c75750806001600160a01b0316856001600160a01b0316145b1561632657604051632e1a7d4d60e01b81526001600160a01b03881690632e1a7d4d906161f8908790600401619e57565b600060405180830381600087803b15801561621257600080fd5b505af1158015616226573d6000803e3d6000fd5b505060405163a1903eab60e01b81526001600160a01b0384169250637a28fb889150829063a1903eab9088906162619060009060040161993b565b6020604051808303818588803b15801561627a57600080fd5b505af115801561628e573d6000803e3d6000fd5b50505050506040513d601f19601f820116820180604052508101906162b39190618eb8565b6040518263ffffffff1660e01b81526004016162cf9190619e57565b60206040518083038186803b1580156162e757600080fd5b505afa1580156162fb573d6000803e3d6000fd5b505050506040513d601f19601f8201168201806040525081019061631f9190618eb8565b915061633e565b60405162461bcd60e51b81526004016115199061a341565b5095945050505050565b60006163526180f8565b828060200190518101906163669190619177565b8051909150616380906001600160a01b0388169086617a52565b6163886181b8565b6040805160c081019091526020808401518252810160008152602001886001600160a01b03168152602001876001600160a01b031681526020018681526020016040518060200160405280600081525081525090506163e5618173565b506040805160808101825230808252600060208301819052828401919091526060820152835191516352bbbe2960e01b815290916001600160a01b0316906352bbbe299061643e9085908590600190429060040161a695565b602060405180830381600087803b15801561645857600080fd5b505af115801561646c573d6000803e3d6000fd5b505050506040513d601f19601f820116820180604052508101906164909190618eb8565b98975050505050505050565b600080846020015190506060816001600160a01b031663910ffc7187606001516001600160a01b0316876001600160a01b0316146164da57866164f0565b73eeeeeeeeeeeeeeeeeeeeeeeeeeeeeeeeeeeeeeee5b88606001516001600160a01b0316876001600160a01b0316146165135786616529565b73eeeeeeeeeeeeeeeeeeeeeeeeeeeeeeeeeeeeeeee5b604080516000815260208101918290526001600160e01b031960e086901b1690915261655d929190600190602481016199da565b60006040518083038186803b15801561657557600080fd5b505afa158015616589573d6000803e3d6000fd5b505050506040513d6000823e601f3d908101601f191682016040526165b19190810190618ad4565b5050905080518660000151106165cd575060009150612dc39050565b808660000151815181106165dd57fe5b6020026020010151925060f883901c60001c60bb1415616603575060009150612dc39050565b50509392505050565b60008060608380602001905181019061662591906190ba565b915091506000886001600160a01b0316886001600160a01b03161461665d576166586001600160a01b0389168488617a52565b6166bf565b50604051632e1a7d4d60e01b815285906001600160a01b038a1690632e1a7d4d9061668c908490600401619e57565b600060405180830381600087803b1580156166a657600080fd5b505af11580156166ba573d6000803e3d6000fd5b505050505b826001600160a01b03166329589f61828b6001600160a01b03168b6001600160a01b0316146166ee578a6166f0565b8c5b898d6001600160a01b03168c6001600160a01b031614616710578b616712565b8e5b30600019600160008b6040518a63ffffffff1660e01b815260040161673e989796959493929190619fec565b6020604051808303818588803b15801561675757600080fd5b505af115801561676b573d6000803e3d6000fd5b50505050506040513d601f19601f820116820180604052508101906167909190618eb8565b9350886001600160a01b0316876001600160a01b0316141561680157886001600160a01b031663d0e30db0856040518263ffffffff1660e01b81526004016000604051808303818588803b1580156167e757600080fd5b505af11580156167fb573d6000803e3d6000fd5b50505050505b5050509695505050505050565b6000806060866001600160a01b03166357a281dc86866040518363ffffffff1660e01b8152600401616841929190619968565b60006040518083038186803b15801561685957600080fd5b505afa15801561686d573d6000803e3d6000fd5b505050506040513d6000823e601f3d908101601f191682016040526168959190810190618aa2565b90506001915080516000141561692e576040516315e8a07760e21b81526001600160a01b038816906357a281dc906168d39087908990600401619968565b60006040518083038186803b1580156168eb57600080fd5b505afa1580156168ff573d6000803e3d6000fd5b505050506040513d6000823e601f3d908101601f191682016040526169279190810190618aa2565b9050600091505b80518610616943576000809250925050612909565b80868151811061694f57fe5b602002602001015192505094509492505050565b6000806060808480602001905181019061697d9190619007565b805191945092506002111590506169a65760405162461bcd60e51b81526004016115199061a18a565b856001600160a01b0316816001835103815181106169c057fe5b60200260200101516001600160a01b03161480616a35575073eeeeeeeeeeeeeeeeeeeeeeeeeeeeeeeeeeeeeeee6001600160a01b031681600183510381518110616a0657fe5b60200260200101516001600160a01b0316148015616a355750866001600160a01b0316866001600160a01b0316145b616a515760405162461bcd60e51b81526004016115199061a3ab565b600073eeeeeeeeeeeeeeeeeeeeeeeeeeeeeeeeeeeeeeee6001600160a01b031682600081518110616a7e57fe5b60200260200101516001600160a01b03161415616afb57604051632e1a7d4d60e01b81526001600160a01b03891690632e1a7d4d90616ac1908990600401619e57565b600060405180830381600087803b158015616adb57600080fd5b505af1158015616aef573d6000803e3d6000fd5b50505050859050616b1a565b616b1a82600081518110616b0b57fe5b60200260200101518488617a52565b60405163b77d239b60e01b81526001600160a01b0384169063b77d239b908390616b549086908b9060019030906000908190600401619d2d565b6020604051808303818588803b158015616b6d57600080fd5b505af1158015616b81573d6000803e3d6000fd5b50505050506040513d601f19601f82011682018060405250810190616ba69190618eb8565b935073eeeeeeeeeeeeeeeeeeeeeeeeeeeeeeeeeeeeeeee6001600160a01b031682600184510381518110616bd657fe5b60200260200101516001600160a01b03161415611d4d57876001600160a01b031663d0e30db0856040518263ffffffff1660e01b81526004016000604051808303818588803b158015616c2857600080fd5b505af1158015616c3c573d6000803e3d6000fd5b5050505050505050949350505050565b600080616c57614ce9565b6001600160a01b0316846001600160a01b031614616c755783616c78565b60005b90506000616c84614ce9565b6001600160a01b0316846001600160a01b031614616ca25783616ca5565b60005b9050856001600160a01b031663901754d7620493e084846040518463ffffffff1660e01b8152600401616cd9929190619968565b60206040518083038187803b158015616cf157600080fd5b5086fa93505050508015616d22575060408051601f3d908101601f19168201909252616d1f91810190618856565b60015b61513f57616603565b60008082806020019051810190616d429190618856565b90506000616d5288838989617ddd565b9050876001600160a01b0316876001600160a01b03161415616e5857604051632e1a7d4d60e01b81526001600160a01b03891690632e1a7d4d90616d9a908890600401619e57565b600060405180830381600087803b158015616db457600080fd5b505af1158015616dc8573d6000803e3d6000fd5b505060405163ad65d76d60e01b81526001600160a01b038416925063ad65d76d91508790616dff906001904290309060040161a0f0565b6020604051808303818588803b158015616e1857600080fd5b505af1158015616e2c573d6000803e3d6000fd5b50505050506040513d601f19601f82011682018060405250810190616e519190618eb8565b9250614ffd565b876001600160a01b0316866001600160a01b03161415616f6457616e866001600160a01b0388168287617a52565b6040516395e3c50b60e01b81526001600160a01b038216906395e3c50b90616eb7908890600190429060040161a7fe565b602060405180830381600087803b158015616ed157600080fd5b505af1158015616ee5573d6000803e3d6000fd5b505050506040513d601f19601f82011682018060405250810190616f099190618eb8565b9250876001600160a01b031663d0e30db0846040518263ffffffff1660e01b81526004016000604051808303818588803b158015616f4657600080fd5b505af1158015616f5a573d6000803e3d6000fd5b5050505050614ffd565b616f786001600160a01b0388168287617a52565b60405163ddf7e1a760e01b81526001600160a01b0382169063ddf7e1a79061643e908890600190819042908d9060040161a7d2565b6000806060846001600160a01b03166370a0823160e01b85604051602401616fd5919061993b565b60408051601f198184030181529181526020820180516001600160e01b03166001600160e01b0319909416939093179092529051617013919061991f565b600060405180830381855afa9150503d806000811461704e576040519150601f19603f3d011682016040523d82523d6000602084013e617053565b606091505b509150915081801561706757506020815110155b156145065761707781600061601f565b95945050505050565b600061708a6180f8565b8280602001905181019061709e9190619504565b90506000856001600160a01b03166370a08231306040518263ffffffff1660e01b81526004016170ce919061993b565b60206040518083038186803b1580156170e657600080fd5b505afa1580156170fa573d6000803e3d6000fd5b505050506040513d601f19601f8201168201806040525081019061711e9190618eb8565b82516020840151919250906001600160a01b0389811691161415617226576171c1816001600160a01b03166301664f666040518163ffffffff1660e01b815260040160206040518083038186803b15801561717857600080fd5b505afa15801561718c573d6000803e3d6000fd5b505050506040513d601f19601f820116820180604052508101906171b09190618856565b6001600160a01b038a169088617a52565b604051634acc893b60e11b81526001600160a01b038216906395991276906171ef9030908a9060040161994f565b600060405180830381600087803b15801561720957600080fd5b505af115801561721d573d6000803e3d6000fd5b505050506173d4565b82602001516001600160a01b0316876001600160a01b031614156173d45760006172c9826001600160a01b031663fae036d56040518163ffffffff1660e01b815260040160206040518083038186803b15801561728257600080fd5b505afa158015617296573d6000803e3d6000fd5b505050506040513d601f19601f820116820180604052508101906172ba9190618eb8565b670de0b6b3a764000090617b3a565b90506000886001600160a01b031663313ce5676040518163ffffffff1660e01b815260040160206040518083038186803b15801561730657600080fd5b505afa15801561731a573d6000803e3d6000fd5b505050506040513d601f19601f8201168201806040525081019061733e919061969a565b60ff16600a0a90506000617356836151cd8b85617b09565b8651909150617370906001600160a01b038d16908b617a52565b604051638d7ef9bb60e01b81526001600160a01b03851690638d7ef9bb9061739e903090859060040161994f565b600060405180830381600087803b1580156173b857600080fd5b505af11580156173cc573d6000803e3d6000fd5b505050505050505b61649082886001600160a01b03166370a08231306040518263ffffffff1660e01b8152600401615386919061993b565b6000806000808480602001905181019061741e919061904b565b919450925090506174396001600160a01b0388168388617a52565b80156174d65760408051600081526020810191829052638dae733360e01b9091526001600160a01b03831690638dae73339061747d9089906001906024810161a7b3565b602060405180830381600087803b15801561749757600080fd5b505af11580156174ab573d6000803e3d6000fd5b505050506040513d601f19601f820116820180604052508101906174cf9190618eb8565b93506175e8565b60405163ca19ebd960e01b81526001600160a01b0384169063ca19ebd9906175049085908a9060040161994f565b60206040518083038186803b15801561751c57600080fd5b505afa158015617530573d6000803e3d6000fd5b505050506040513d601f19601f820116820180604052508101906175549190618eb8565b6040805160008152602081019182905263733e738360e11b9091529094506001600160a01b0383169063e67ce706906175949087908a906024810161a7b3565b602060405180830381600087803b1580156175ae57600080fd5b505af11580156175c2573d6000803e3d6000fd5b505050506040513d601f19601f820116820180604052508101906175e69190618eb8565b505b5050509392505050565b60008060608380602001905181019061760b91906190ba565b90925090506176246001600160a01b0388168387617f1d565b6040516319740ac160e21b81526001600160a01b038316906365d02b0490617659908a908a9030906001908890600401619f28565b602060405180830381600087803b15801561767357600080fd5b505af1158015617687573d6000803e3d6000fd5b505050506040513d601f19601f820116820180604052508101906176ab9190618eb8565b979650505050505050565b600080828060200190518101906176cd9190618856565b90506176e36001600160a01b0387168286617a52565b60405163d5bcb9b560e01b81526001600160a01b0382169063d5bcb9b5906150ed908990899089906001903090600401619f8b565b6000806060856001600160a01b031663dd62ed3e60e01b8686604051602401617742929190619968565b60408051601f198184030181529181526020820180516001600160e01b03166001600160e01b0319909416939093179092529051617780919061991f565b600060405180830381855afa9150503d80600081146177bb576040519150601f19603f3d011682016040523d82523d6000602084013e6177c0565b606091505b50915091508180156177d457506020815110155b156166035761513f81600061601f565b6000806000838060200190518101906177fd919061908c565b90925090506178166001600160a01b0387168387617f1d565b8061789e57604051636ec9facd60e11b81526001600160a01b0383169063dd93f59a9061784790309060040161993b565b602060405180830381600087803b15801561786157600080fd5b505af1158015617875573d6000803e3d6000fd5b505050506040513d601f19601f820116820180604052508101906178999190618eb8565b61513f565b604051632f58056d60e21b81526001600160a01b0383169063bd6015b4906150ed90309060040161993b565b606081516001600160401b03811180156178e357600080fd5b5060405190808252806020026020018201604052801561790d578160200160208202803683370190505b50905060005b82518110156124c25782600182855103038151811061792e57fe5b602002602001015182828151811061794257fe5b6001600160a01b0390921660209283029190910190910152600101617913565b606081516001600160401b038111801561797b57600080fd5b506040519080825280602002602001820160405280156179a5578160200160208202803683370190505b50905060005b82518110156124c2578260018285510303815181106179c657fe5b60200260200101518282815181106179da57fe5b6001600160a01b03909216602092830291909101909101526001016179ab565b6000831580617a07575081155b80617a10575082155b15617a1d57506000612dc3565b83820282858281617a2a57fe5b0414617a3a576000915050612dc3565b8360018503820181617a4857fe5b0495945050505050565b604051636eb1769f60e11b815281906001600160a01b0385169063dd62ed3e90617a829030908790600401619968565b60206040518083038186803b158015617a9a57600080fd5b505afa158015617aae573d6000803e3d6000fd5b505050506040513d601f19601f82011682018060405250810190617ad29190618eb8565b101561601a5761601a8383600019617f7e565b600082821115617b0357617b03617afe60028585617f9b565b615baa565b50900390565b600082617b1857506000614509565b82820282848281617b2557fe5b0414612dc357612dc3617afe60018686617f9b565b600082820183811015612dc357612dc3617afe60008686617f9b565b600081617b6c57617b6c617afe60038585617f9b565b6000828481617b7757fe5b04949350505050565b6000813b80617b935760009150506111e4565b50816001600160a01b0316630dfe16816040518163ffffffff1660e01b815260040160206040518083038186803b158015617bcd57600080fd5b505afa158015617be1573d6000803e3d6000fd5b505050506040513d601f19601f82011682018060405250810190617c059190618856565b6001600160a01b03166370a08231836040518263ffffffff1660e01b8152600401617c30919061993b565b60206040518083038186803b158015617c4857600080fd5b505afa158015617c5c573d6000803e3d6000fd5b505050506040513d601f19601f82011682018060405250810190617c809190618eb8565b617c8c575060006111e4565b816001600160a01b031663d21220a76040518163ffffffff1660e01b815260040160206040518083038186803b158015617cc557600080fd5b505afa158015617cd9573d6000803e3d6000fd5b505050506040513d601f19601f82011682018060405250810190617cfd9190618856565b6001600160a01b03166370a08231836040518263ffffffff1660e01b8152600401617d28919061993b565b60206040518083038186803b158015617d4057600080fd5b505afa158015617d54573d6000803e3d6000fd5b505050506040513d601f19601f82011682018060405250810190617d789190618eb8565b617d84575060006111e4565b506001919050565b8160200183511015617dab57617dab617afe6005855185602001617ff5565b910160200152565b60008160200183511015617dd457617dd4617afe6005855185602001617ff5565b50016020015190565b6000846001600160a01b0316836001600160a01b031614617e79576040516303795fb160e11b81526001600160a01b038516906306f2bf6290617e2490869060040161993b565b60206040518083038186803b158015617e3c57600080fd5b505afa158015617e50573d6000803e3d6000fd5b505050506040513d601f19601f82011682018060405250810190617e749190618856565b617ef5565b6040516303795fb160e11b81526001600160a01b038516906306f2bf6290617ea590859060040161993b565b60206040518083038186803b158015617ebd57600080fd5b505afa158015617ed1573d6000803e3d6000fd5b505050506040513d601f19601f82011682018060405250810190617ef59190618856565b90506001600160a01b0381166111d75760405162461bcd60e51b81526004016115199061a153565b606063a9059cbb60e01b8383604051602401617f3a92919061994f565b60408051601f198184030181529190526020810180516001600160e01b03166001600160e01b0319909316929092179091529050617f788482618014565b50505050565b606063095ea7b360e01b8383604051602401617f3a92919061994f565b606063e946c1bb60e01b848484604051602401617fba9392919061a09c565b60408051601f198184030181529190526020810180516001600160e01b03166001600160e01b03199093169290921790915290509392505050565b6060632800659560e01b848484604051602401617fba9392919061a0bd565b60006060836001600160a01b031683604051618030919061991f565b6000604051808303816000865af19150503d806000811461806d576040519150601f19603f3d011682016040523d82523d6000602084013e618072565b606091505b50915091508180156180885750618088816180a1565b1561809457505061809d565b617f7881615baa565b5050565b60008151600014156180b5575060016111e4565b60208251106111e45760006180cb83600061601f565b905080600114156124c25760019150506111e4565b60408051808201909152606081526000602082015290565b604080518082019091526000808252602082015290565b604051806040016040528060008152602001606081525090565b6040805160608101909152600080825260208201908152600060209091015290565b6040805160808101825260008082526020820181905260609282018390529181019190915290565b60408051608081018252600080825260208201819052918101829052606081019190915290565b60405180606001604052806003906020820280368337509192915050565b6040805160c0810190915260008082526020820190815260200160006001600160a01b0316815260200160006001600160a01b0316815260200160008152602001606081525090565b80356145098161a8f9565b600082601f83011261821c578081fd5b813561822f61822a8261a87e565b61a858565b81815291506020808301908481018184028601820187101561825057600080fd5b60005b848110156182785781356182668161a8f9565b84529282019290820190600101618253565b505050505092915050565b600082601f830112618293578081fd5b81516182a161822a8261a87e565b8181529150602080830190848101818402860182018710156182c257600080fd5b60005b848110156182785781516182d88161a8f9565b845292820192908201906001016182c5565b600082601f8301126182fa578081fd5b813561830861822a8261a87e565b818152915060208083019084810160005b8481101561827857618330888484358a01016184d9565b84529282019290820190600101618319565b600082601f830112618352578081fd5b813561836061822a8261a87e565b81815291506020808301908481018184028601820187101561838157600080fd5b60005b848110156182785781356183978161a8f9565b84529282019290820190600101618384565b600082601f8301126183b9578081fd5b81356183c761822a8261a87e565b81815291506020808301908481016080808502870183018810156183ea57600080fd5b60005b85811015618411576183ff89846187bb565b855293830193918101916001016183ed565b50505050505092915050565b600082601f83011261842d578081fd5b813561843b61822a8261a87e565b81815291506020808301908481018184028601820187101561845c57600080fd5b60005b848110156182785781358452928201929082019060010161845f565b600082601f83011261848b578081fd5b815161849961822a8261a87e565b8181529150602080830190848101818402860182018710156184ba57600080fd5b60005b84811015618278578151845292820192908201906001016184bd565b600082601f8301126184e9578081fd5b81356184f761822a8261a89d565b915080825283602082850101111561850e57600080fd5b8060208401602084013760009082016020015292915050565b600082601f830112618537578081fd5b815161854561822a8261a89d565b915080825283602082850101111561855c57600080fd5b6120be81602084016020860161a8c0565b80516002811061450957600080fd5b60006080828403121561858d578081fd5b618597608061a858565b905081356185a48161a8f9565b815260208201356185b48161a91c565b602082015260408201356185c78161a932565b604082015260608201356185da8161a932565b606082015292915050565b6000608082840312156185f6578081fd5b618600608061a858565b9050815161860d8161a8f9565b8152602082015161861d8161a91c565b602082015260408201516186308161a932565b604082015260608201516185da8161a932565b600060a08284031215618654578081fd5b61865e60a061a858565b90508135815260208201356186728161a8f9565b602082015260408201356186858161a8f9565b604082015260608201356186988161a8f9565b606082015260808201356001600160401b038111156186b657600080fd5b6186c2848285016184d9565b60808301525092915050565b60006101808083850312156186e1578182fd5b6186ea8161a858565b9150506186f78383618201565b81526187068360208401618201565b60208201526187188360408401618818565b604082015261872a8360608401618818565b606082015261873c8360808401618818565b608082015261874e8360a08401618201565b60a08201526187608360c08401618201565b60c08201526187728360e08401618201565b60e082015261010061878684828501618201565b9082015261012082810135908201526101406187a484828501618823565b818301525061016080830135818301525092915050565b6000608082840312156187cc578081fd5b6187d6608061a858565b90508135600481106187e757600080fd5b815260208201356187f78161a956565b80602083015250604082013560408201526060820135606082015292915050565b80356145098161a941565b80356001600160401b038116811461450957600080fd5b60006020828403121561884b578081fd5b8135612dc38161a8f9565b600060208284031215618867578081fd5b8151612dc38161a8f9565b600080600060608486031215618886578182fd5b83516188918161a8f9565b60208501519093506001600160401b03808211156188ad578384fd5b6188b987838801618283565b935060408601519150808211156188ce578283fd5b506188db86828701618283565b9150509250925092565b600080600080608085870312156188fa578182fd5b84356189058161a8f9565b935060208501356189158161a8f9565b925060408501356189258161a8f9565b915060608501356001600160401b0381111561893f578182fd5b61894b8782880161841d565b91505092959194509250565b6000806000806080858703121561896c578182fd5b84356189778161a8f9565b935060208501356189878161a8f9565b925060408501356001600160401b038111156189a1578283fd5b6189ad878288016184d9565b949793965093946060013593505050565b6000806000606084860312156189d2578081fd5b83356189dd8161a8f9565b925060208401356001600160401b03808211156189f8578283fd5b618a048783880161820c565b93506040860135915080821115618a19578283fd5b506188db8682870161841d565b600080600080600060a08688031215618a3d578283fd5b8535618a488161a8f9565b9450602086013593506040860135618a5f8161a8f9565b92506060860135618a6f8161a8f9565b915060808601356001600160401b03811115618a89578182fd5b618a958882890161841d565b9150509295509295909350565b600060208284031215618ab3578081fd5b81516001600160401b03811115618ac8578182fd5b6111d784828501618283565b600080600060608486031215618ae8578081fd5b83516001600160401b0380821115618afe578283fd5b818601915086601f830112618b11578283fd5b8151618b1f61822a8261a87e565b80828252602080830192508086018b828387028901011115618b3f578788fd5b8796505b84871015618b61578051845260019690960195928101928101618b43565b508901519097509350505080821115618b78578283fd5b50618b858682870161847b565b925050618b95856040860161856d565b90509250925092565b60008060208385031215618bb0578182fd5b82356001600160401b0380821115618bc6578384fd5b818501915085601f830112618bd9578384fd5b813581811115618be7578485fd5b8660208083028501011115618bfa578485fd5b60209290920196919550909350505050565b600080600060608486031215618c20578081fd5b83356001600160401b0380821115618c36578283fd5b618c42878388016182ea565b94506020860135915080821115618c57578283fd5b50618c64868287016182ea565b925050604084013590509250925092565b600060208284031215618c86578081fd5b81356001600160401b03811115618c9b578182fd5b6111d784828501618342565b60008060408385031215618cb9578182fd5b82356001600160401b03811115618cce578283fd5b618cda85828601618342565b9250506020830135618ceb8161a8f9565b809150509250929050565b600080600060608486031215618d0a578081fd5b83356001600160401b03811115618d1f578182fd5b618d2b86828701618342565b9350506020840135618d3c8161a8f9565b91506040840135618d4c8161a8f9565b809150509250925092565b600080600060608486031215618d6b578081fd5b83356001600160401b0380821115618d81578283fd5b818601915086601f830112618d94578283fd5b8135618da261822a8261a87e565b80828252602080830192508086016101808c838288028a01011115618dc5578889fd5b8897505b85881015618df157618ddb8d836186ce565b8552600197909701969382019390810190618dc9565b50919850890135945050505080821115618e09578283fd5b50618e16868287016183a9565b925050618b958560408601618201565b600060208284031215618e37578081fd5b81516001600160401b03811115618e4c578182fd5b6111d78482850161847b565b60008060408385031215618e6a578182fd5b82516001600160401b0380821115618e80578384fd5b618e8c8683870161847b565b93506020850151915080821115618ea1578283fd5b50618eae8582860161847b565b9150509250929050565b600060208284031215618ec9578081fd5b5051919050565b600080600080600060a08688031215618ee7578283fd5b8535618ef28161a91c565b94506020860135618f028161a8f9565b93506040860135618f128161a8f9565b925060608601356001600160401b0380821115618f2d578283fd5b618f3989838a016184d9565b93506080880135915080821115618f4e578283fd5b50618a958882890161841d565b600080600080600060a08688031215618f72578283fd5b8535618f7d8161a91c565b94506020860135618f8d8161a8f9565b93506040860135618f9d8161a8f9565b925060608601356001600160401b03811115618fb7578182fd5b618fc3888289016184d9565b95989497509295608001359392505050565b600060208284031215618fe6578081fd5b81516001600160401b03811115618ffb578182fd5b6111d784828501618527565b60008060408385031215619019578182fd5b82516190248161a8f9565b60208401519092506001600160401b0381111561903f578182fd5b618eae85828601618283565b60008060006060848603121561905f578081fd5b835161906a8161a8f9565b602085015190935061907b8161a8f9565b6040850151909250618d4c8161a90e565b6000806040838503121561909e578182fd5b82516190a98161a8f9565b6020840151909250618ceb8161a90e565b600080604083850312156190cc578182fd5b82516190d78161a8f9565b60208401519092506001600160401b038111156190f2578182fd5b618eae85828601618527565b60008060008060808587031215619113578182fd5b843561911e8161a8f9565b9350602085013561912e8161a8f9565b925060408501356001600160401b0380821115619149578384fd5b61915588838901618342565b9350606087013591508082111561916a578283fd5b5061894b8782880161841d565b600060408284031215619188578081fd5b619192604061a858565b825161919d8161a8f9565b81526020928301519281019290925250919050565b60008060008084860360a08112156191c8578283fd5b60408112156191d5578283fd5b506191e0604061a858565b85356191eb8161a8f9565b815260208681013590820152935060408501356192078161a8f9565b925060608501356192178161a8f9565b915060808501356001600160401b0381111561893f578182fd5b60008060008060808587031215619246578182fd5b84356001600160401b038082111561925c578384fd5b908601906040828903121561926f578384fd5b619279604061a858565b82356192848161a8f9565b815260208381013583811115619298578687fd5b80850194505089601f8501126192ac578586fd5b83356192ba61822a8261a87e565b81815282810190868401895b848110156192ef576192dd8f8784358c010161820c565b845292850192908501906001016192c6565b505080848601525050508197506193088a828b01618201565b965050506191558860408901618201565b60006080828403121561932a578081fd5b612dc383836185e5565b60008060008060e08587031215619349578182fd5b619353868661857c565b935060808501356193638161a8f9565b925060a08501356193738161a8f9565b915060c08501356001600160401b0381111561893f578182fd5b60008060008084860360a08112156193a3578283fd5b60408112156193b0578283fd5b506193bb604061a858565b85356193c68161a8f9565b815260208601356193d68161a8f9565b6020820152935060408501356192078161a8f9565b60008060008060808587031215619400578182fd5b84356001600160401b0380821115619416578384fd5b61942288838901618643565b9550602087013591506194348261a8f9565b9093506040860135906194468261a8f9565b9092506060860135908082111561916a578283fd5b60008060008060808587031215619470578182fd5b84356001600160401b03811115619485578283fd5b61949187828801618643565b9450506020850135925060408501356194a98161a8f9565b915060608501356194b98161a8f9565b939692955090935050565b600080600061022084860312156194d9578081fd5b6194e385856186ce565b92506194f38561018086016187bb565b9150610200840135618d4c8161a8f9565b600060408284031215619515578081fd5b61951f604061a858565b825161952a8161a8f9565b8152602083015161953a8161a8f9565b60208201529392505050565b60008060008084860360c081121561955c578283fd5b6060811215619569578283fd5b50619574606061a858565b853561957f8161a8f9565b81526020868101359082015260408601356195998161a8f9565b6040820152935060608501356195ae8161a8f9565b925060808501356195be8161a8f9565b915060a08501356001600160401b0381111561893f578182fd5b600080600083850360a08112156195ed578182fd5b60608112156195fa578182fd5b50619605606061a858565b8451815260208501516005811061961a578283fd5b6020820152604085015161962d8161a941565b604082015260608501519093506196438161a941565b6080850151909250618d4c8161a90e565b600060208284031215619665578081fd5b815162ffffff81168114612dc3578182fd5b60008060408385031215619689578182fd5b505080516020909101519092909150565b6000602082840312156196ab578081fd5b8151612dc38161a956565b6001600160a01b03169052565b6000815180845260208085019450808401835b838110156196fb5781516001600160a01b0316875295820195908201906001016196d6565b509495945050505050565b6000815180845260208085019450808401835b838110156196fb57815187529582019590820190600101619719565b6000815180845261974d81602086016020860161a8c0565b601f01601f19169290920160200192915050565b80516001600160a01b031682526020808201516001600160e01b03191690830152604080820151600f90810b91840191909152606091820151900b910152565b80516001600160a01b039081168352602080830151151590840152604080830151909116908301526060908101511515910152565b6000815183526020820151604060208501526111d76040850182619735565b6198008282516196b6565b602081015161981260208401826196b6565b50604081015161982560408401826198f5565b50606081015161983860608401826198f5565b50608081015161984b60808401826198f5565b5060a081015161985e60a08401826196b6565b5060c081015161987160c08401826196b6565b5060e081015161988460e08401826196b6565b5061010080820151619898828501826196b6565b50506101208181015190830152610140808201516198b882850182619902565b505061016090810151910152565b80516198d18161a8ec565b825260208181015160ff169083015260408082015190830152606090810151910152565b6001600160801b03169052565b6001600160401b03169052565b6000828483379101908152919050565b6000825161993181846020870161a8c0565b9190910192915050565b6001600160a01b0391909116815260200190565b6001600160a01b03929092168252602082015260400190565b6001600160a01b0392831681529116602082015260400190565b6001600160a01b03858116825284811660208301528316604082015260806060820181905260009061513f90830184619706565b6001600160a01b039384168152919092166020820152901515604082015260600190565b6001600160a01b03858116825284166020820152821515604082015260806060820181905260009061513f90830184619735565b6001600160a01b03858116825284166020820152608060408201819052600090619a3a90830185619735565b905082606083015295945050505050565b6001600160a01b039384168152919092166020820152604081019190915260600190565b6001600160a01b03831681526040602082018190526000906111d7908301846196c3565b6001600160a01b0384168152606060208201819052600090619ab7908301856196c3565b828103604084015261513f81856196c3565b6001600160a01b0385168152608060208201819052600090619aed908301866196c3565b8281036040840152619aff8186619706565b905082810360608401526176ab8185619706565b6001600160a01b0384168152606060208201819052600090619b3790830185619706565b828103604084015261513f8185619706565b6001600160a01b039290921682521515602082015260400190565b6001600160a01b03831681526040602082018190526000906111d790830184619735565b6001600160a01b03851681526000619b9f8561a8ec565b84602083015260806040830152619bb96080830185619706565b82810360608401526176ab8185619706565b6001600160a01b03898116825260009061010090619be88b61a8ec565b8a6020850152816040850152619c008285018b619706565b91508382036060850152619c14828a619706565b90881660808501529050619c278661a8ec565b8560a084015282810360c0840152619c3f8186619706565b905082810360e08401526160008185619706565b600060608252619c6660608301866196c3565b8281036020840152619c788186619706565b9050828103604084015261513f8185619706565b600060408252619c9f60408301856196c3565b90508260208301529392505050565b60006060820160608352808651808352608085019150602092506080838202860101838901855b83811015619d0357607f19888403018552619cf1838351619735565b94860194925090850190600101619cd5565b505085810384870152619d168189619706565b9350505050828103604084015261513f8185619706565b600060c08252619d4060c08301896196c3565b60208301979097525060408101949094526001600160a01b0392831660608501529116608083015260a090910152919050565b60208082528251828201819052600091906040908185019080840286018301878501865b83811015619dda57888303603f1901855281518051878552619dbb88860182619735565b9189015115159489019490945294870194925090860190600101619d97565b509098975050505050505050565b600060208252612dc36020830184619706565b600060408252619e0e6040830185619706565b82810360208401526170778185619706565b901515815260200190565b84151581526001600160a01b0384166020820152608060408201819052600090619bb990830185619706565b90815260200190565b600085825260806020830152619aed6080830186619735565b6001600160e01b0319861681526001600160a01b0385811660208301528416604082015260a060608201819052600090619eb590830185619735565b82810360808401526164908185619706565b6001600160e01b0319861681526001600160a01b0385811660208301528416604082015260a060608201819052600090619f0390830185619735565b90508260808301529695505050505050565b600060208252612dc36020830184619735565b6001600160a01b0386811682528581166020830152841660408201526060810183905260a0608082018190526000906176ab90830184619735565b6001600160a01b03938416815291909216602082015262ffffff909116604082015260600190565b6001600160a01b039586168152938516602085015260408401929092526060830152909116608082015260a00190565b6001600160a01b03958616815293909416602084015260408301919091526060820152608081019190915260a00190565b6001600160a01b03898116825260208201899052878116604083015286811660608301526080820186905260a08201859052831660c082015261010060e0820181905260009061600083820185619735565b6001600160a01b039485168152602081019390935292166040820152606081019190915260800190565b6001600160a01b03958616815260208101949094529190931660408301526060820192909252608081019190915260a00190565b6060810161a0a98561a8ec565b938152602081019290925260409091015290565b606081016008851061a0a957fe5b600f94850b81529290930b6020830152604082015260ff909116606082015260800190565b92835260208301919091526001600160a01b0316604082015260600190565b60208082526024908201527f556e6973776170563353616d706c65722f746f6b656e5061746820746f6f20736040820152631a1bdc9d60e21b606082015260800190565b60208082526018908201527f4d6978696e556e69737761702f4e4f5f45584348414e47450000000000000000604082015260600190565b6020808252602c908201527f4d6978696e42616e636f722f504154485f4c454e4754485f4d5553545f42455f60408201526b41545f4c454153545f54574f60a01b606082015260800190565b60208082526017908201527f4e6f206e6174697665207772617070656420746f6b656e000000000000000000604082015260600190565b6020808252603a908201527f4d6978696e4b79626572446d6d2f4c4153545f454c454d454e545f4f465f504160408201527f54485f4d5553545f4d415443485f4f55545055545f544f4b454e000000000000606082015260800190565b60208082526025908201527f556e6973776170563353616d706c65722f696e76616c69642070617468206c656040820152646e6774687360d81b606082015260800190565b6020808252602f908201527f4d6978696e556e697377617056322f504154485f4c454e4754485f4d5553545f60408201526e42455f41545f4c454153545f54574f60881b606082015260800190565b60208082526023908201527f4d6978696e4b79626572446d6d2f41525241595f4c454e4754485f4d49534d416040820152620a886960eb1b606082015260800190565b6020808252818101527f4d6978696e4c69646f2f554e535550504f525445445f544f4b454e5f50414952604082015260600190565b6020808252818101527f537761702053616d706c652073686f756c642068617665207265766572746564604082015260600190565b60208082526038908201527f4d6978696e42616e636f722f4c4153545f454c454d454e545f4f465f5041544860408201527f5f4d5553545f4d415443485f4f55545055545f544f4b454e0000000000000000606082015260800190565b6020808252602f908201527f4d6978696e4b79626572446d6d2f504f4f4c535f4c454e4754485f4d5553545f60408201526e42455f41545f4c454153545f4f4e4560881b606082015260800190565b6020808252603b908201527f4d6978696e556e697377617056322f4c4153545f454c454d454e545f4f465f5060408201527f4154485f4d5553545f4d415443485f4f55545055545f544f4b454e0000000000606082015260800190565b81516001600160a01b031681526020918201519181019190915260400190565b608081016145098284619761565b600060208252825160a0602084015261a4fe60c0840182619735565b905060018060a01b0360208501511660408401526040840151606084015260608401516080840152608084015160a08401528091505092915050565b60006060825261a54d60608301866197d6565b828103602084015261a55f81866197d6565b915050826040830152949350505050565b60006080825261a58360808301876197d6565b828103602084015261a59581876197d6565b604084019590955250506060015292915050565b60006080825285516080830152602086015160018060a01b0380821660a08501528060408901511660c08501528060608901511660e08501526080880151915060a061010085015261a5ff610120850183619735565b6020850197909752948516604084015250509116606090910152919050565b610200810161a62d82856197f5565b612dc36101808301846198c6565b610220810161a64a82866197f5565b61a6586101808301856198c6565b6001600160a01b0392909216610200919091015292915050565b81516001600160a01b039081168252602092830151169181019190915260400190565b600060e08252855160e083015260208601516002811061a6b157fe5b610100830152604086015161a6ca6101208401826196b6565b50606086015161a6de6101408401826196b6565b50608086015161016083015260a086015160c061018084015261a7056101a0840182619735565b91505061a71560208301866197a1565b60a082019390935260c0015292915050565b600087825286602083015260c0604083015261a74660c08301876196c3565b828103606084015261a75881876196c3565b6001600160a01b03959095166080840152505060a00152949350505050565b600086825285602083015260a0604083015261a79660a08301866196c3565b6001600160a01b0394909416606083015250608001529392505050565b6000848252836020830152606060408301526111d46060830184619735565b9485526020850193909352604084019190915260608301526001600160a01b0316608082015260a00190565b9283526020830191909152604082015260600190565b6000808335601e1984360301811261a82a578283fd5b8301803591506001600160401b0382111561a843578283fd5b6020019150368190038213156145d957600080fd5b6040518181016001600160401b038111828210171561a87657600080fd5b604052919050565b60006001600160401b0382111561a893578081fd5b5060209081020190565b60006001600160401b0382111561a8b2578081fd5b50601f01601f191660200190565b60005b8381101561a8db57818101518382015260200161a8c3565b83811115617f785750506000910152565b6004811061a8f657fe5b50565b6001600160a01b038116811461a8f657600080fd5b801515811461a8f657600080fd5b6001600160e01b03198116811461a8f657600080fd5b80600f0b811461a8f657600080fd5b6001600160801b038116811461a8f657600080fd5b60ff8116811461a8f657600080fdfea2646970667358221220081fd98326e57a2ea2e640d81a6c08664ef8b8c616383ce45fa36b2a7905fb4664736f6c634300060c0033",
                "opcodes": "PUSH2 0x180 PUSH1 0x40 MSTORE PUSH32 0xEEEEEEEEEEEEEEEEEEEEEEEEEEEEEEEEEEEEEEEE000000000000000000000000 PUSH1 0xC0 DUP2 SWAP1 MSTORE PUSH2 0x160 MSTORE CALLVALUE DUP1 ISZERO PUSH3 0x3C JUMPI PUSH1 0x0 DUP1 REVERT JUMPDEST POP PUSH1 0x40 MLOAD PUSH3 0xAAB9 CODESIZE SUB DUP1 PUSH3 0xAAB9 DUP4 CODECOPY DUP2 ADD PUSH1 0x40 DUP2 SWAP1 MSTORE PUSH3 0x5F SWAP2 PUSH3 0x91 JUMP JUMPDEST PUSH1 0x60 SHL PUSH1 0x1 PUSH1 0x1 PUSH1 0x60 SHL SUB NOT AND PUSH1 0x80 DUP2 SWAP1 MSTORE PUSH1 0xA0 DUP2 SWAP1 MSTORE PUSH1 0xE0 DUP2 SWAP1 MSTORE PUSH2 0x100 DUP2 SWAP1 MSTORE PUSH2 0x120 DUP2 SWAP1 MSTORE PUSH2 0x140 MSTORE PUSH3 0xC1 JUMP JUMPDEST PUSH1 0x0 PUSH1 0x20 DUP3 DUP5 SUB SLT ISZERO PUSH3 0xA3 JUMPI DUP1 DUP2 REVERT JUMPDEST DUP2 MLOAD PUSH1 0x1 PUSH1 0x1 PUSH1 0xA0 SHL SUB DUP2 AND DUP2 EQ PUSH3 0xBA JUMPI DUP2 DUP3 REVERT JUMPDEST SWAP4 SWAP3 POP POP POP JUMP JUMPDEST PUSH1 0x80 MLOAD PUSH1 0x60 SHR PUSH1 0xA0 MLOAD PUSH1 0x60 SHR PUSH1 0xC0 MLOAD PUSH1 0x60 SHR PUSH1 0xE0 MLOAD PUSH1 0x60 SHR PUSH2 0x100 MLOAD PUSH1 0x60 SHR PUSH2 0x120 MLOAD PUSH1 0x60 SHR PUSH2 0x140 MLOAD PUSH1 0x60 SHR PUSH2 0x160 MLOAD PUSH1 0x60 SHR PUSH2 0xA99B PUSH3 0x11E PUSH1 0x0 CODECOPY DUP1 PUSH2 0x2429 MSTORE DUP1 PUSH2 0x3338 MSTORE DUP1 PUSH2 0x3B74 MSTORE POP POP POP POP POP POP POP POP PUSH2 0xA99B PUSH1 0x0 RETURN INVALID PUSH1 0x80 PUSH1 0x40 MSTORE PUSH1 0x4 CALLDATASIZE LT PUSH2 0x41F JUMPI PUSH1 0x0 CALLDATALOAD PUSH1 0xE0 SHR DUP1 PUSH4 0x8EFFA9EA GT PUSH2 0x21E JUMPI DUP1 PUSH4 0xC25C4138 GT PUSH2 0x123 JUMPI DUP1 PUSH4 0xD9BCA372 GT PUSH2 0xAB JUMPI DUP1 PUSH4 0xF573C161 GT PUSH2 0x7A JUMPI DUP1 PUSH4 0xF573C161 EQ PUSH2 0xD47 JUMPI DUP1 PUSH4 0xF5A4994D EQ PUSH2 0xD67 JUMPI DUP1 PUSH4 0xF7CEFA56 EQ PUSH2 0xD87 JUMPI DUP1 PUSH4 0xFA5DEF9F EQ PUSH2 0xDA7 JUMPI DUP1 PUSH4 0xFC9FE41B EQ PUSH2 0xDC7 JUMPI PUSH2 0x426 JUMP JUMPDEST DUP1 PUSH4 0xD9BCA372 EQ PUSH2 0xCC7 JUMPI DUP1 PUSH4 0xDDD5AA28 EQ PUSH2 0xCE7 JUMPI DUP1 PUSH4 0xE78AC045 EQ PUSH2 0xD07 JUMPI DUP1 PUSH4 0xE8E4AF09 EQ PUSH2 0xD27 JUMPI PUSH2 0x426 JUMP JUMPDEST DUP1 PUSH4 0xC94706D8 GT PUSH2 0xF2 JUMPI DUP1 PUSH4 0xC94706D8 EQ PUSH2 0xC27 JUMPI DUP1 PUSH4 0xCC1621C9 EQ PUSH2 0xC47 JUMPI DUP1 PUSH4 0xCD85E7B5 EQ PUSH2 0xC67 JUMPI DUP1 PUSH4 0xD31B0A8A EQ PUSH2 0xC87 JUMPI DUP1 PUSH4 0xD3CDC04D EQ PUSH2 0xCA7 JUMPI PUSH2 0x426 JUMP JUMPDEST DUP1 PUSH4 0xC25C4138 EQ PUSH2 0xBA7 JUMPI DUP1 PUSH4 0xC7DD6C4F EQ PUSH2 0xBC7 JUMPI DUP1 PUSH4 0xC8319084 EQ PUSH2 0xBE7 JUMPI DUP1 PUSH4 0xC8C74A37 EQ PUSH2 0xC07 JUMPI PUSH2 0x426 JUMP JUMPDEST DUP1 PUSH4 0xA75E744B GT PUSH2 0x1A6 JUMPI DUP1 PUSH4 0xB770F849 GT PUSH2 0x175 JUMPI DUP1 PUSH4 0xB770F849 EQ PUSH2 0xB07 JUMPI DUP1 PUSH4 0xB90CD2FB EQ PUSH2 0xB27 JUMPI DUP1 PUSH4 0xBC4F55BA EQ PUSH2 0xB47 JUMPI DUP1 PUSH4 0xBD71ECF6 EQ PUSH2 0xB67 JUMPI DUP1 PUSH4 0xBF60384B EQ PUSH2 0xB87 JUMPI PUSH2 0x426 JUMP JUMPDEST DUP1 PUSH4 0xA75E744B EQ PUSH2 0xA78 JUMPI DUP1 PUSH4 0xAB000276 EQ PUSH2 0xA98 JUMPI DUP1 PUSH4 0xAB3E6210 EQ PUSH2 0xAB8 JUMPI DUP1 PUSH4 0xADC636BF EQ PUSH2 0xAD8 JUMPI PUSH2 0x426 JUMP JUMPDEST DUP1 PUSH4 0x9BF3EE35 GT PUSH2 0x1ED JUMPI DUP1 PUSH4 0x9BF3EE35 EQ PUSH2 0x9C8 JUMPI DUP1 PUSH4 0x9E3F05C3 EQ PUSH2 0x9E8 JUMPI DUP1 PUSH4 0xA095A036 EQ PUSH2 0xA18 JUMPI DUP1 PUSH4 0xA191E0A2 EQ PUSH2 0xA38 JUMPI DUP1 PUSH4 0xA4698417 EQ PUSH2 0xA58 JUMPI PUSH2 0x426 JUMP JUMPDEST DUP1 PUSH4 0x8EFFA9EA EQ PUSH2 0x948 JUMPI DUP1 PUSH4 0x98777748 EQ PUSH2 0x968 JUMPI DUP1 PUSH4 0x9914377D EQ PUSH2 0x988 JUMPI DUP1 PUSH4 0x9AD732EF EQ PUSH2 0x9A8 JUMPI PUSH2 0x426 JUMP JUMPDEST DUP1 PUSH4 0x66A1AC6B GT PUSH2 0x324 JUMPI DUP1 PUSH4 0x7A82DCB9 GT PUSH2 0x2AC JUMPI DUP1 PUSH4 0x8A6F20E1 GT PUSH2 0x27B JUMPI DUP1 PUSH4 0x8A6F20E1 EQ PUSH2 0x896 JUMPI DUP1 PUSH4 0x8D201C22 EQ PUSH2 0x8B6 JUMPI DUP1 PUSH4 0x8D8ABDF0 EQ PUSH2 0x8D6 JUMPI DUP1 PUSH4 0x8DC669FA EQ PUSH2 0x8F6 JUMPI DUP1 PUSH4 0x8E5A0E07 EQ PUSH2 0x918 JUMPI PUSH2 0x426 JUMP JUMPDEST DUP1 PUSH4 0x7A82DCB9 EQ PUSH2 0x816 JUMPI DUP1 PUSH4 0x7E105CE2 EQ PUSH2 0x836 JUMPI DUP1 PUSH4 0x7F7F4F13 EQ PUSH2 0x856 JUMPI DUP1 PUSH4 0x7FEA2AE1 EQ PUSH2 0x876 JUMPI PUSH2 0x426 JUMP JUMPDEST DUP1 PUSH4 0x6A33BC7E GT PUSH2 0x2F3 JUMPI DUP1 PUSH4 0x6A33BC7E EQ PUSH2 0x767 JUMPI DUP1 PUSH4 0x706E2F9B EQ PUSH2 0x796 JUMPI DUP1 PUSH4 0x7280BFFF EQ PUSH2 0x7B6 JUMPI DUP1 PUSH4 0x74C9D255 EQ PUSH2 0x7D6 JUMPI DUP1 PUSH4 0x78FEE41C EQ PUSH2 0x7F6 JUMPI PUSH2 0x426 JUMP JUMPDEST DUP1 PUSH4 0x66A1AC6B EQ PUSH2 0x6E7 JUMPI DUP1 PUSH4 0x685D285D EQ PUSH2 0x707 JUMPI DUP1 PUSH4 0x686B7EE8 EQ PUSH2 0x727 JUMPI DUP1 PUSH4 0x68BE3CF2 EQ PUSH2 0x747 JUMPI PUSH2 0x426 JUMP JUMPDEST DUP1 PUSH4 0x2AA64319 GT PUSH2 0x3A7 JUMPI DUP1 PUSH4 0x4EDFB5B2 GT PUSH2 0x376 JUMPI DUP1 PUSH4 0x4EDFB5B2 EQ PUSH2 0x63A JUMPI DUP1 PUSH4 0x57494B1D EQ PUSH2 0x667 JUMPI DUP1 PUSH4 0x59AB9A6C EQ PUSH2 0x687 JUMPI DUP1 PUSH4 0x5C71CBE7 EQ PUSH2 0x6A7 JUMPI DUP1 PUSH4 0x5D5B674F EQ PUSH2 0x6C7 JUMPI PUSH2 0x426 JUMP JUMPDEST DUP1 PUSH4 0x2AA64319 EQ PUSH2 0x5AA JUMPI DUP1 PUSH4 0x30D6570D EQ PUSH2 0x5DA JUMPI DUP1 PUSH4 0x3105FEC1 EQ PUSH2 0x5FA JUMPI DUP1 PUSH4 0x494569DB EQ PUSH2 0x61A JUMPI PUSH2 0x426 JUMP JUMPDEST DUP1 PUSH4 0x15DE17DE GT PUSH2 0x3EE JUMPI DUP1 PUSH4 0x15DE17DE EQ PUSH2 0x4EE JUMPI DUP1 PUSH4 0x16279055 EQ PUSH2 0x51B JUMPI DUP1 PUSH4 0x1F4FF03E EQ PUSH2 0x548 JUMPI DUP1 PUSH4 0x252322B3 EQ PUSH2 0x56A JUMPI DUP1 PUSH4 0x281E3432 EQ PUSH2 0x58A JUMPI PUSH2 0x426 JUMP JUMPDEST DUP1 PUSH4 0x496D5DC EQ PUSH2 0x42B JUMPI DUP1 PUSH4 0xB044A2E EQ PUSH2 0x463 JUMPI DUP1 PUSH4 0x1022742B EQ PUSH2 0x491 JUMPI DUP1 PUSH4 0x149DAB0E EQ PUSH2 0x4BE JUMPI PUSH2 0x426 JUMP JUMPDEST CALLDATASIZE PUSH2 0x426 JUMPI STOP JUMPDEST PUSH1 0x0 DUP1 REVERT JUMPDEST CALLVALUE DUP1 ISZERO PUSH2 0x437 JUMPI PUSH1 0x0 DUP1 REVERT JUMPDEST POP PUSH2 0x44B PUSH2 0x446 CALLDATASIZE PUSH1 0x4 PUSH2 0x89BE JUMP JUMPDEST PUSH2 0xDF6 JUMP JUMPDEST PUSH1 0x40 MLOAD PUSH2 0x45A SWAP4 SWAP3 SWAP2 SWAP1 PUSH2 0x9C53 JUMP JUMPDEST PUSH1 0x40 MLOAD DUP1 SWAP2 SUB SWAP1 RETURN JUMPDEST CALLVALUE DUP1 ISZERO PUSH2 0x46F JUMPI PUSH1 0x0 DUP1 REVERT JUMPDEST POP PUSH2 0x483 PUSH2 0x47E CALLDATASIZE PUSH1 0x4 PUSH2 0x9334 JUMP JUMPDEST PUSH2 0xEBC JUMP JUMPDEST PUSH1 0x40 MLOAD PUSH2 0x45A SWAP3 SWAP2 SWAP1 PUSH2 0x9DFB JUMP JUMPDEST CALLVALUE DUP1 ISZERO PUSH2 0x49D JUMPI PUSH1 0x0 DUP1 REVERT JUMPDEST POP PUSH2 0x4B1 PUSH2 0x4AC CALLDATASIZE PUSH1 0x4 PUSH2 0x8D57 JUMP JUMPDEST PUSH2 0xFA2 JUMP JUMPDEST PUSH1 0x40 MLOAD PUSH2 0x45A SWAP2 SWAP1 PUSH2 0x9DE8 JUMP JUMPDEST CALLVALUE DUP1 ISZERO PUSH2 0x4CA JUMPI PUSH1 0x0 DUP1 REVERT JUMPDEST POP PUSH2 0x4DE PUSH2 0x4D9 CALLDATASIZE PUSH1 0x4 PUSH2 0x9231 JUMP JUMPDEST PUSH2 0x1115 JUMP JUMPDEST PUSH1 0x40 MLOAD PUSH2 0x45A SWAP5 SWAP4 SWAP3 SWAP2 SWAP1 PUSH2 0x9AC9 JUMP JUMPDEST CALLVALUE DUP1 ISZERO PUSH2 0x4FA JUMPI PUSH1 0x0 DUP1 REVERT JUMPDEST POP PUSH2 0x50E PUSH2 0x509 CALLDATASIZE PUSH1 0x4 PUSH2 0x8957 JUMP JUMPDEST PUSH2 0x11BE JUMP JUMPDEST PUSH1 0x40 MLOAD PUSH2 0x45A SWAP2 SWAP1 PUSH2 0x9E57 JUMP JUMPDEST CALLVALUE DUP1 ISZERO PUSH2 0x527 JUMPI PUSH1 0x0 DUP1 REVERT JUMPDEST POP PUSH2 0x53B PUSH2 0x536 CALLDATASIZE PUSH1 0x4 PUSH2 0x883A JUMP JUMPDEST PUSH2 0x11DF JUMP JUMPDEST PUSH1 0x40 MLOAD PUSH2 0x45A SWAP2 SWAP1 PUSH2 0x9E20 JUMP JUMPDEST CALLVALUE DUP1 ISZERO PUSH2 0x554 JUMPI PUSH1 0x0 DUP1 REVERT JUMPDEST POP PUSH2 0x568 PUSH2 0x563 CALLDATASIZE PUSH1 0x4 PUSH2 0x8ED0 JUMP JUMPDEST PUSH2 0x11E9 JUMP JUMPDEST STOP JUMPDEST CALLVALUE DUP1 ISZERO PUSH2 0x576 JUMPI PUSH1 0x0 DUP1 REVERT JUMPDEST POP PUSH2 0x483 PUSH2 0x585 CALLDATASIZE PUSH1 0x4 PUSH2 0x88E5 JUMP JUMPDEST PUSH2 0x153F JUMP JUMPDEST CALLVALUE DUP1 ISZERO PUSH2 0x596 JUMPI PUSH1 0x0 DUP1 REVERT JUMPDEST POP PUSH2 0x483 PUSH2 0x5A5 CALLDATASIZE PUSH1 0x4 PUSH2 0x9546 JUMP JUMPDEST PUSH2 0x15CF JUMP JUMPDEST CALLVALUE DUP1 ISZERO PUSH2 0x5B6 JUMPI PUSH1 0x0 DUP1 REVERT JUMPDEST POP PUSH2 0x5CA PUSH2 0x5C5 CALLDATASIZE PUSH1 0x4 PUSH2 0x938D JUMP JUMPDEST PUSH2 0x1668 JUMP JUMPDEST PUSH1 0x40 MLOAD PUSH2 0x45A SWAP5 SWAP4 SWAP3 SWAP2 SWAP1 PUSH2 0x9E2B JUMP JUMPDEST CALLVALUE DUP1 ISZERO PUSH2 0x5E6 JUMPI PUSH1 0x0 DUP1 REVERT JUMPDEST POP PUSH2 0x483 PUSH2 0x5F5 CALLDATASIZE PUSH1 0x4 PUSH2 0x88E5 JUMP JUMPDEST PUSH2 0x182D JUMP JUMPDEST CALLVALUE DUP1 ISZERO PUSH2 0x606 JUMPI PUSH1 0x0 DUP1 REVERT JUMPDEST POP PUSH2 0x483 PUSH2 0x615 CALLDATASIZE PUSH1 0x4 PUSH2 0x89BE JUMP JUMPDEST PUSH2 0x1898 JUMP JUMPDEST CALLVALUE DUP1 ISZERO PUSH2 0x626 JUMPI PUSH1 0x0 DUP1 REVERT JUMPDEST POP PUSH2 0x44B PUSH2 0x635 CALLDATASIZE PUSH1 0x4 PUSH2 0x89BE JUMP JUMPDEST PUSH2 0x193C JUMP JUMPDEST CALLVALUE DUP1 ISZERO PUSH2 0x646 JUMPI PUSH1 0x0 DUP1 REVERT JUMPDEST POP PUSH2 0x65A PUSH2 0x655 CALLDATASIZE PUSH1 0x4 PUSH2 0x945B JUMP JUMPDEST PUSH2 0x1AD3 JUMP JUMPDEST PUSH1 0x40 MLOAD PUSH2 0x45A SWAP2 SWAP1 PUSH2 0x9F15 JUMP JUMPDEST CALLVALUE DUP1 ISZERO PUSH2 0x673 JUMPI PUSH1 0x0 DUP1 REVERT JUMPDEST POP PUSH2 0x483 PUSH2 0x682 CALLDATASIZE PUSH1 0x4 PUSH2 0x88E5 JUMP JUMPDEST PUSH2 0x1D58 JUMP JUMPDEST CALLVALUE DUP1 ISZERO PUSH2 0x693 JUMPI PUSH1 0x0 DUP1 REVERT JUMPDEST POP PUSH2 0x50E PUSH2 0x6A2 CALLDATASIZE PUSH1 0x4 PUSH2 0x8957 JUMP JUMPDEST PUSH2 0x1DE8 JUMP JUMPDEST CALLVALUE DUP1 ISZERO PUSH2 0x6B3 JUMPI PUSH1 0x0 DUP1 REVERT JUMPDEST POP PUSH2 0x50E PUSH2 0x6C2 CALLDATASIZE PUSH1 0x4 PUSH2 0x8957 JUMP JUMPDEST PUSH2 0x1DF5 JUMP JUMPDEST CALLVALUE DUP1 ISZERO PUSH2 0x6D3 JUMPI PUSH1 0x0 DUP1 REVERT JUMPDEST POP PUSH2 0x483 PUSH2 0x6E2 CALLDATASIZE PUSH1 0x4 PUSH2 0x88E5 JUMP JUMPDEST PUSH2 0x1E03 JUMP JUMPDEST CALLVALUE DUP1 ISZERO PUSH2 0x6F3 JUMPI PUSH1 0x0 DUP1 REVERT JUMPDEST POP PUSH2 0x4B1 PUSH2 0x702 CALLDATASIZE PUSH1 0x4 PUSH2 0x8D57 JUMP JUMPDEST PUSH2 0x1E93 JUMP JUMPDEST CALLVALUE DUP1 ISZERO PUSH2 0x713 JUMPI PUSH1 0x0 DUP1 REVERT JUMPDEST POP PUSH2 0x50E PUSH2 0x722 CALLDATASIZE PUSH1 0x4 PUSH2 0x8957 JUMP JUMPDEST PUSH2 0x1F48 JUMP JUMPDEST CALLVALUE DUP1 ISZERO PUSH2 0x733 JUMPI PUSH1 0x0 DUP1 REVERT JUMPDEST POP PUSH2 0x50E PUSH2 0x742 CALLDATASIZE PUSH1 0x4 PUSH2 0x8957 JUMP JUMPDEST PUSH2 0x1F56 JUMP JUMPDEST PUSH2 0x75A PUSH2 0x755 CALLDATASIZE PUSH1 0x4 PUSH2 0x8B9E JUMP JUMPDEST PUSH2 0x1F64 JUMP JUMPDEST PUSH1 0x40 MLOAD PUSH2 0x45A SWAP2 SWAP1 PUSH2 0x9D73 JUMP JUMPDEST CALLVALUE DUP1 ISZERO PUSH2 0x773 JUMPI PUSH1 0x0 DUP1 REVERT JUMPDEST POP PUSH2 0x787 PUSH2 0x782 CALLDATASIZE PUSH1 0x4 PUSH2 0x90FE JUMP JUMPDEST PUSH2 0x20C5 JUMP JUMPDEST PUSH1 0x40 MLOAD PUSH2 0x45A SWAP4 SWAP3 SWAP2 SWAP1 PUSH2 0x9CAE JUMP JUMPDEST CALLVALUE DUP1 ISZERO PUSH2 0x7A2 JUMPI PUSH1 0x0 DUP1 REVERT JUMPDEST POP PUSH2 0x4B1 PUSH2 0x7B1 CALLDATASIZE PUSH1 0x4 PUSH2 0x8C75 JUMP JUMPDEST PUSH2 0x23D6 JUMP JUMPDEST CALLVALUE DUP1 ISZERO PUSH2 0x7C2 JUMPI PUSH1 0x0 DUP1 REVERT JUMPDEST POP PUSH2 0x50E PUSH2 0x7D1 CALLDATASIZE PUSH1 0x4 PUSH2 0x8957 JUMP JUMPDEST PUSH2 0x24C8 JUMP JUMPDEST CALLVALUE DUP1 ISZERO PUSH2 0x7E2 JUMPI PUSH1 0x0 DUP1 REVERT JUMPDEST POP PUSH2 0x4DE PUSH2 0x7F1 CALLDATASIZE PUSH1 0x4 PUSH2 0x9231 JUMP JUMPDEST PUSH2 0x24D6 JUMP JUMPDEST CALLVALUE DUP1 ISZERO PUSH2 0x802 JUMPI PUSH1 0x0 DUP1 REVERT JUMPDEST POP PUSH2 0x568 PUSH2 0x811 CALLDATASIZE PUSH1 0x4 PUSH2 0x8F5B JUMP JUMPDEST PUSH2 0x24E6 JUMP JUMPDEST CALLVALUE DUP1 ISZERO PUSH2 0x822 JUMPI PUSH1 0x0 DUP1 REVERT JUMPDEST POP PUSH2 0x50E PUSH2 0x831 CALLDATASIZE PUSH1 0x4 PUSH2 0x8957 JUMP JUMPDEST PUSH2 0x269C JUMP JUMPDEST CALLVALUE DUP1 ISZERO PUSH2 0x842 JUMPI PUSH1 0x0 DUP1 REVERT JUMPDEST POP PUSH2 0x65A PUSH2 0x851 CALLDATASIZE PUSH1 0x4 PUSH2 0x883A JUMP JUMPDEST PUSH2 0x26A9 JUMP JUMPDEST CALLVALUE DUP1 ISZERO PUSH2 0x862 JUMPI PUSH1 0x0 DUP1 REVERT JUMPDEST POP PUSH2 0x483 PUSH2 0x871 CALLDATASIZE PUSH1 0x4 PUSH2 0x9546 JUMP JUMPDEST PUSH2 0x26D0 JUMP JUMPDEST CALLVALUE DUP1 ISZERO PUSH2 0x882 JUMPI PUSH1 0x0 DUP1 REVERT JUMPDEST POP PUSH2 0x483 PUSH2 0x891 CALLDATASIZE PUSH1 0x4 PUSH2 0x9334 JUMP JUMPDEST PUSH2 0x27A7 JUMP JUMPDEST CALLVALUE DUP1 ISZERO PUSH2 0x8A2 JUMPI PUSH1 0x0 DUP1 REVERT JUMPDEST POP PUSH2 0x483 PUSH2 0x8B1 CALLDATASIZE PUSH1 0x4 PUSH2 0x88E5 JUMP JUMPDEST PUSH2 0x2880 JUMP JUMPDEST CALLVALUE DUP1 ISZERO PUSH2 0x8C2 JUMPI PUSH1 0x0 DUP1 REVERT JUMPDEST POP PUSH2 0x50E PUSH2 0x8D1 CALLDATASIZE PUSH1 0x4 PUSH2 0x8957 JUMP JUMPDEST PUSH2 0x2912 JUMP JUMPDEST CALLVALUE DUP1 ISZERO PUSH2 0x8E2 JUMPI PUSH1 0x0 DUP1 REVERT JUMPDEST POP PUSH2 0x483 PUSH2 0x8F1 CALLDATASIZE PUSH1 0x4 PUSH2 0x91B2 JUMP JUMPDEST PUSH2 0x2928 JUMP JUMPDEST CALLVALUE DUP1 ISZERO PUSH2 0x902 JUMPI PUSH1 0x0 DUP1 REVERT JUMPDEST POP PUSH2 0x90B PUSH2 0x29B8 JUMP JUMPDEST PUSH1 0x40 MLOAD PUSH2 0x45A SWAP2 SWAP1 PUSH2 0x993B JUMP JUMPDEST CALLVALUE DUP1 ISZERO PUSH2 0x924 JUMPI PUSH1 0x0 DUP1 REVERT JUMPDEST POP PUSH2 0x938 PUSH2 0x933 CALLDATASIZE PUSH1 0x4 PUSH2 0x8C0C JUMP JUMPDEST PUSH2 0x29D0 JUMP JUMPDEST PUSH1 0x40 MLOAD PUSH2 0x45A SWAP5 SWAP4 SWAP3 SWAP2 SWAP1 PUSH2 0xA570 JUMP JUMPDEST CALLVALUE DUP1 ISZERO PUSH2 0x954 JUMPI PUSH1 0x0 DUP1 REVERT JUMPDEST POP PUSH2 0x50E PUSH2 0x963 CALLDATASIZE PUSH1 0x4 PUSH2 0x8957 JUMP JUMPDEST PUSH2 0x2BE7 JUMP JUMPDEST CALLVALUE DUP1 ISZERO PUSH2 0x974 JUMPI PUSH1 0x0 DUP1 REVERT JUMPDEST POP PUSH2 0x483 PUSH2 0x983 CALLDATASIZE PUSH1 0x4 PUSH2 0x88E5 JUMP JUMPDEST PUSH2 0x2BF4 JUMP JUMPDEST CALLVALUE DUP1 ISZERO PUSH2 0x994 JUMPI PUSH1 0x0 DUP1 REVERT JUMPDEST POP PUSH2 0x50E PUSH2 0x9A3 CALLDATASIZE PUSH1 0x4 PUSH2 0x8957 JUMP JUMPDEST PUSH2 0x2C5F JUMP JUMPDEST CALLVALUE DUP1 ISZERO PUSH2 0x9B4 JUMPI PUSH1 0x0 DUP1 REVERT JUMPDEST POP PUSH2 0x50E PUSH2 0x9C3 CALLDATASIZE PUSH1 0x4 PUSH2 0x8957 JUMP JUMPDEST PUSH2 0x2C75 JUMP JUMPDEST CALLVALUE DUP1 ISZERO PUSH2 0x9D4 JUMPI PUSH1 0x0 DUP1 REVERT JUMPDEST POP PUSH2 0x50E PUSH2 0x9E3 CALLDATASIZE PUSH1 0x4 PUSH2 0x94C4 JUMP JUMPDEST PUSH2 0x2C83 JUMP JUMPDEST CALLVALUE DUP1 ISZERO PUSH2 0x9F4 JUMPI PUSH1 0x0 DUP1 REVERT JUMPDEST POP PUSH2 0xA08 PUSH2 0xA03 CALLDATASIZE PUSH1 0x4 PUSH2 0x93EB JUMP JUMPDEST PUSH2 0x2DCA JUMP JUMPDEST PUSH1 0x40 MLOAD PUSH2 0x45A SWAP5 SWAP4 SWAP3 SWAP2 SWAP1 PUSH2 0x9E60 JUMP JUMPDEST CALLVALUE DUP1 ISZERO PUSH2 0xA24 JUMPI PUSH1 0x0 DUP1 REVERT JUMPDEST POP PUSH2 0x50E PUSH2 0xA33 CALLDATASIZE PUSH1 0x4 PUSH2 0x8957 JUMP JUMPDEST PUSH2 0x2F0D JUMP JUMPDEST CALLVALUE DUP1 ISZERO PUSH2 0xA44 JUMPI PUSH1 0x0 DUP1 REVERT JUMPDEST POP PUSH2 0x483 PUSH2 0xA53 CALLDATASIZE PUSH1 0x4 PUSH2 0x88E5 JUMP JUMPDEST PUSH2 0x2F38 JUMP JUMPDEST CALLVALUE DUP1 ISZERO PUSH2 0xA64 JUMPI PUSH1 0x0 DUP1 REVERT JUMPDEST POP PUSH2 0x483 PUSH2 0xA73 CALLDATASIZE PUSH1 0x4 PUSH2 0x88E5 JUMP JUMPDEST PUSH2 0x2FA3 JUMP JUMPDEST CALLVALUE DUP1 ISZERO PUSH2 0xA84 JUMPI PUSH1 0x0 DUP1 REVERT JUMPDEST POP PUSH2 0x5CA PUSH2 0xA93 CALLDATASIZE PUSH1 0x4 PUSH2 0x8A26 JUMP JUMPDEST PUSH2 0x3012 JUMP JUMPDEST CALLVALUE DUP1 ISZERO PUSH2 0xAA4 JUMPI PUSH1 0x0 DUP1 REVERT JUMPDEST POP PUSH2 0x483 PUSH2 0xAB3 CALLDATASIZE PUSH1 0x4 PUSH2 0x88E5 JUMP JUMPDEST PUSH2 0x30B7 JUMP JUMPDEST CALLVALUE DUP1 ISZERO PUSH2 0xAC4 JUMPI PUSH1 0x0 DUP1 REVERT JUMPDEST POP PUSH2 0x50E PUSH2 0xAD3 CALLDATASIZE PUSH1 0x4 PUSH2 0x8957 JUMP JUMPDEST PUSH2 0x3122 JUMP JUMPDEST CALLVALUE DUP1 ISZERO PUSH2 0xAE4 JUMPI PUSH1 0x0 DUP1 REVERT JUMPDEST POP PUSH2 0xAF8 PUSH2 0xAF3 CALLDATASIZE PUSH1 0x4 PUSH2 0x88E5 JUMP JUMPDEST PUSH2 0x3137 JUMP JUMPDEST PUSH1 0x40 MLOAD PUSH2 0x45A SWAP4 SWAP3 SWAP2 SWAP1 PUSH2 0x9B13 JUMP JUMPDEST CALLVALUE DUP1 ISZERO PUSH2 0xB13 JUMPI PUSH1 0x0 DUP1 REVERT JUMPDEST POP PUSH2 0x50E PUSH2 0xB22 CALLDATASIZE PUSH1 0x4 PUSH2 0x8957 JUMP JUMPDEST PUSH2 0x31D4 JUMP JUMPDEST CALLVALUE DUP1 ISZERO PUSH2 0xB33 JUMPI PUSH1 0x0 DUP1 REVERT JUMPDEST POP PUSH2 0x483 PUSH2 0xB42 CALLDATASIZE PUSH1 0x4 PUSH2 0x88E5 JUMP JUMPDEST PUSH2 0x31EA JUMP JUMPDEST CALLVALUE DUP1 ISZERO PUSH2 0xB53 JUMPI PUSH1 0x0 DUP1 REVERT JUMPDEST POP PUSH2 0x483 PUSH2 0xB62 CALLDATASIZE PUSH1 0x4 PUSH2 0x91B2 JUMP JUMPDEST PUSH2 0x327A JUMP JUMPDEST CALLVALUE DUP1 ISZERO PUSH2 0xB73 JUMPI PUSH1 0x0 DUP1 REVERT JUMPDEST POP PUSH2 0x4B1 PUSH2 0xB82 CALLDATASIZE PUSH1 0x4 PUSH2 0x8CA7 JUMP JUMPDEST PUSH2 0x32E5 JUMP JUMPDEST CALLVALUE DUP1 ISZERO PUSH2 0xB93 JUMPI PUSH1 0x0 DUP1 REVERT JUMPDEST POP PUSH2 0x483 PUSH2 0xBA2 CALLDATASIZE PUSH1 0x4 PUSH2 0x9334 JUMP JUMPDEST PUSH2 0x33E1 JUMP JUMPDEST CALLVALUE DUP1 ISZERO PUSH2 0xBB3 JUMPI PUSH1 0x0 DUP1 REVERT JUMPDEST POP PUSH2 0x483 PUSH2 0xBC2 CALLDATASIZE PUSH1 0x4 PUSH2 0x88E5 JUMP JUMPDEST PUSH2 0x344C JUMP JUMPDEST CALLVALUE DUP1 ISZERO PUSH2 0xBD3 JUMPI PUSH1 0x0 DUP1 REVERT JUMPDEST POP PUSH2 0x50E PUSH2 0xBE2 CALLDATASIZE PUSH1 0x4 PUSH2 0x8957 JUMP JUMPDEST PUSH2 0x34E2 JUMP JUMPDEST CALLVALUE DUP1 ISZERO PUSH2 0xBF3 JUMPI PUSH1 0x0 DUP1 REVERT JUMPDEST POP PUSH2 0x483 PUSH2 0xC02 CALLDATASIZE PUSH1 0x4 PUSH2 0x88E5 JUMP JUMPDEST PUSH2 0x34F0 JUMP JUMPDEST CALLVALUE DUP1 ISZERO PUSH2 0xC13 JUMPI PUSH1 0x0 DUP1 REVERT JUMPDEST POP PUSH2 0x483 PUSH2 0xC22 CALLDATASIZE PUSH1 0x4 PUSH2 0x89BE JUMP JUMPDEST PUSH2 0x355B JUMP JUMPDEST CALLVALUE DUP1 ISZERO PUSH2 0xC33 JUMPI PUSH1 0x0 DUP1 REVERT JUMPDEST POP PUSH2 0x483 PUSH2 0xC42 CALLDATASIZE PUSH1 0x4 PUSH2 0x88E5 JUMP JUMPDEST PUSH2 0x36B3 JUMP JUMPDEST CALLVALUE DUP1 ISZERO PUSH2 0xC53 JUMPI PUSH1 0x0 DUP1 REVERT JUMPDEST POP PUSH2 0xA08 PUSH2 0xC62 CALLDATASIZE PUSH1 0x4 PUSH2 0x93EB JUMP JUMPDEST PUSH2 0x3743 JUMP JUMPDEST CALLVALUE DUP1 ISZERO PUSH2 0xC73 JUMPI PUSH1 0x0 DUP1 REVERT JUMPDEST POP PUSH2 0x50E PUSH2 0xC82 CALLDATASIZE PUSH1 0x4 PUSH2 0x8957 JUMP JUMPDEST PUSH2 0x385B JUMP JUMPDEST CALLVALUE DUP1 ISZERO PUSH2 0xC93 JUMPI PUSH1 0x0 DUP1 REVERT JUMPDEST POP PUSH2 0x50E PUSH2 0xCA2 CALLDATASIZE PUSH1 0x4 PUSH2 0x8957 JUMP JUMPDEST PUSH2 0x3868 JUMP JUMPDEST CALLVALUE DUP1 ISZERO PUSH2 0xCB3 JUMPI PUSH1 0x0 DUP1 REVERT JUMPDEST POP PUSH2 0x50E PUSH2 0xCC2 CALLDATASIZE PUSH1 0x4 PUSH2 0x8957 JUMP JUMPDEST PUSH2 0x3876 JUMP JUMPDEST CALLVALUE DUP1 ISZERO PUSH2 0xCD3 JUMPI PUSH1 0x0 DUP1 REVERT JUMPDEST POP PUSH2 0x5CA PUSH2 0xCE2 CALLDATASIZE PUSH1 0x4 PUSH2 0x8A26 JUMP JUMPDEST PUSH2 0x3884 JUMP JUMPDEST CALLVALUE DUP1 ISZERO PUSH2 0xCF3 JUMPI PUSH1 0x0 DUP1 REVERT JUMPDEST POP PUSH2 0x5CA PUSH2 0xD02 CALLDATASIZE PUSH1 0x4 PUSH2 0x938D JUMP JUMPDEST PUSH2 0x393F JUMP JUMPDEST CALLVALUE DUP1 ISZERO PUSH2 0xD13 JUMPI PUSH1 0x0 DUP1 REVERT JUMPDEST POP PUSH2 0x4B1 PUSH2 0xD22 CALLDATASIZE PUSH1 0x4 PUSH2 0x8CF6 JUMP JUMPDEST PUSH2 0x3B21 JUMP JUMPDEST CALLVALUE DUP1 ISZERO PUSH2 0xD33 JUMPI PUSH1 0x0 DUP1 REVERT JUMPDEST POP PUSH2 0x483 PUSH2 0xD42 CALLDATASIZE PUSH1 0x4 PUSH2 0x88E5 JUMP JUMPDEST PUSH2 0x3C16 JUMP JUMPDEST CALLVALUE DUP1 ISZERO PUSH2 0xD53 JUMPI PUSH1 0x0 DUP1 REVERT JUMPDEST POP PUSH2 0x50E PUSH2 0xD62 CALLDATASIZE PUSH1 0x4 PUSH2 0x8957 JUMP JUMPDEST PUSH2 0x3C81 JUMP JUMPDEST CALLVALUE DUP1 ISZERO PUSH2 0xD73 JUMPI PUSH1 0x0 DUP1 REVERT JUMPDEST POP PUSH2 0xAF8 PUSH2 0xD82 CALLDATASIZE PUSH1 0x4 PUSH2 0x88E5 JUMP JUMPDEST PUSH2 0x3C8E JUMP JUMPDEST CALLVALUE DUP1 ISZERO PUSH2 0xD93 JUMPI PUSH1 0x0 DUP1 REVERT JUMPDEST POP PUSH2 0x483 PUSH2 0xDA2 CALLDATASIZE PUSH1 0x4 PUSH2 0x9334 JUMP JUMPDEST PUSH2 0x3D40 JUMP JUMPDEST CALLVALUE DUP1 ISZERO PUSH2 0xDB3 JUMPI PUSH1 0x0 DUP1 REVERT JUMPDEST POP PUSH2 0x787 PUSH2 0xDC2 CALLDATASIZE PUSH1 0x4 PUSH2 0x90FE JUMP JUMPDEST PUSH2 0x3DAB JUMP JUMPDEST CALLVALUE DUP1 ISZERO PUSH2 0xDD3 JUMPI PUSH1 0x0 DUP1 REVERT JUMPDEST POP PUSH2 0xDE7 PUSH2 0xDE2 CALLDATASIZE PUSH1 0x4 PUSH2 0x8C0C JUMP JUMPDEST PUSH2 0x40F1 JUMP JUMPDEST PUSH1 0x40 MLOAD PUSH2 0x45A SWAP4 SWAP3 SWAP2 SWAP1 PUSH2 0xA53A JUMP JUMPDEST PUSH1 0x60 DUP1 PUSH1 0x60 PUSH2 0xE05 DUP7 DUP7 PUSH2 0x4311 JUMP JUMPDEST SWAP3 POP DUP3 MLOAD PUSH1 0x0 EQ ISZERO PUSH2 0xE16 JUMPI PUSH2 0xEB3 JUMP JUMPDEST PUSH2 0xEAD PUSH1 0x40 MLOAD DUP1 PUSH1 0x80 ADD PUSH1 0x40 MSTORE DUP1 DUP8 PUSH1 0x0 DUP2 MLOAD DUP2 LT PUSH2 0xE31 JUMPI INVALID JUMPDEST PUSH1 0x20 MUL PUSH1 0x20 ADD ADD MLOAD PUSH1 0x1 PUSH1 0x1 PUSH1 0xA0 SHL SUB AND DUP2 MSTORE PUSH1 0x20 ADD DUP8 PUSH1 0x1 DUP10 MLOAD SUB DUP2 MLOAD DUP2 LT PUSH2 0xE57 JUMPI INVALID JUMPDEST PUSH1 0x20 MUL PUSH1 0x20 ADD ADD MLOAD PUSH1 0x1 PUSH1 0x1 PUSH1 0xA0 SHL SUB AND DUP2 MSTORE PUSH1 0x20 ADD DUP9 DUP7 DUP10 PUSH1 0x40 MLOAD PUSH1 0x20 ADD PUSH2 0xE82 SWAP4 SWAP3 SWAP2 SWAP1 PUSH2 0x9A93 JUMP JUMPDEST PUSH1 0x40 DUP1 MLOAD PUSH1 0x1F NOT DUP2 DUP5 SUB ADD DUP2 MSTORE SWAP2 DUP2 MSTORE SWAP1 DUP3 MSTORE ADDRESS PUSH1 0x20 SWAP1 DUP2 SHL PUSH4 0x7A82DCB9 OR SWAP1 SWAP2 SHL SWAP2 ADD MSTORE DUP6 PUSH2 0x450F JUMP JUMPDEST SWAP1 SWAP3 POP SWAP1 POP JUMPDEST SWAP4 POP SWAP4 POP SWAP4 SWAP1 POP JUMP JUMPDEST PUSH1 0x60 DUP1 PUSH2 0xF95 PUSH1 0x40 MLOAD DUP1 PUSH1 0xA0 ADD PUSH1 0x40 MSTORE DUP1 DUP8 PUSH1 0x1 PUSH1 0x1 PUSH1 0xA0 SHL SUB AND DUP2 MSTORE PUSH1 0x20 ADD DUP7 PUSH1 0x1 PUSH1 0x1 PUSH1 0xA0 SHL SUB AND DUP2 MSTORE PUSH1 0x20 ADD DUP9 PUSH1 0x40 MLOAD PUSH1 0x20 ADD PUSH2 0xEFC SWAP2 SWAP1 PUSH2 0xA4D4 JUMP JUMPDEST PUSH1 0x40 MLOAD PUSH1 0x20 DUP2 DUP4 SUB SUB DUP2 MSTORE SWAP1 PUSH1 0x40 MSTORE DUP2 MSTORE PUSH1 0x20 ADD PUSH1 0x40 MLOAD DUP1 PUSH1 0x80 ADD PUSH1 0x40 MSTORE DUP1 DUP11 PUSH1 0x0 ADD MLOAD PUSH1 0x1 PUSH1 0x1 PUSH1 0xA0 SHL SUB AND DUP2 MSTORE PUSH1 0x20 ADD DUP11 PUSH1 0x20 ADD MLOAD PUSH1 0x1 PUSH1 0x1 PUSH1 0xE0 SHL SUB NOT AND DUP2 MSTORE PUSH1 0x20 ADD DUP11 PUSH1 0x60 ADD MLOAD PUSH1 0xF SIGNEXTEND DUP2 MSTORE PUSH1 0x20 ADD DUP11 PUSH1 0x40 ADD MLOAD PUSH1 0xF SIGNEXTEND DUP2 MSTORE POP PUSH1 0x40 MLOAD PUSH1 0x20 ADD PUSH2 0xF6A SWAP2 SWAP1 PUSH2 0xA4D4 JUMP JUMPDEST PUSH1 0x40 DUP1 MLOAD PUSH1 0x1F NOT DUP2 DUP5 SUB ADD DUP2 MSTORE SWAP2 DUP2 MSTORE SWAP1 DUP3 MSTORE ADDRESS PUSH1 0x20 SWAP1 DUP2 SHL PUSH4 0x685D285D OR SWAP1 SWAP2 SHL SWAP2 ADD MSTORE DUP5 PUSH2 0x45E0 JUMP JUMPDEST SWAP1 SWAP8 SWAP1 SWAP7 POP SWAP5 POP POP POP POP POP JUMP JUMPDEST PUSH1 0x60 DUP4 MLOAD PUSH1 0x1 PUSH1 0x1 PUSH1 0x40 SHL SUB DUP2 GT DUP1 ISZERO PUSH2 0xFBB JUMPI PUSH1 0x0 DUP1 REVERT JUMPDEST POP PUSH1 0x40 MLOAD SWAP1 DUP1 DUP3 MSTORE DUP1 PUSH1 0x20 MUL PUSH1 0x20 ADD DUP3 ADD PUSH1 0x40 MSTORE DUP1 ISZERO PUSH2 0xFE5 JUMPI DUP2 PUSH1 0x20 ADD PUSH1 0x20 DUP3 MUL DUP1 CALLDATASIZE DUP4 CALLDATACOPY ADD SWAP1 POP JUMPDEST POP SWAP1 POP PUSH1 0x0 JUMPDEST DUP5 MLOAD DUP2 EQ PUSH2 0x110D JUMPI ADDRESS PUSH1 0x1 PUSH1 0x1 PUSH1 0xA0 SHL SUB AND PUSH4 0x9BF3EE35 PUSH3 0x30D40 DUP8 DUP5 DUP2 MLOAD DUP2 LT PUSH2 0x1012 JUMPI INVALID JUMPDEST PUSH1 0x20 MUL PUSH1 0x20 ADD ADD MLOAD DUP8 DUP6 DUP2 MLOAD DUP2 LT PUSH2 0x1026 JUMPI INVALID JUMPDEST PUSH1 0x20 MUL PUSH1 0x20 ADD ADD MLOAD DUP8 PUSH1 0x40 MLOAD DUP6 PUSH4 0xFFFFFFFF AND PUSH1 0xE0 SHL DUP2 MSTORE PUSH1 0x4 ADD PUSH2 0x104D SWAP4 SWAP3 SWAP2 SWAP1 PUSH2 0xA63B JUMP JUMPDEST PUSH1 0x20 PUSH1 0x40 MLOAD DUP1 DUP4 SUB DUP2 DUP8 DUP1 EXTCODESIZE ISZERO DUP1 ISZERO PUSH2 0x1065 JUMPI PUSH1 0x0 DUP1 REVERT JUMPDEST POP DUP7 STATICCALL SWAP4 POP POP POP POP DUP1 ISZERO PUSH2 0x1096 JUMPI POP PUSH1 0x40 DUP1 MLOAD PUSH1 0x1F RETURNDATASIZE SWAP1 DUP2 ADD PUSH1 0x1F NOT AND DUP3 ADD SWAP1 SWAP3 MSTORE PUSH2 0x1093 SWAP2 DUP2 ADD SWAP1 PUSH2 0x8EB8 JUMP JUMPDEST PUSH1 0x1 JUMPDEST PUSH2 0x10EA JUMPI RETURNDATASIZE DUP1 DUP1 ISZERO PUSH2 0x10C4 JUMPI PUSH1 0x40 MLOAD SWAP2 POP PUSH1 0x1F NOT PUSH1 0x3F RETURNDATASIZE ADD AND DUP3 ADD PUSH1 0x40 MSTORE RETURNDATASIZE DUP3 MSTORE RETURNDATASIZE PUSH1 0x0 PUSH1 0x20 DUP5 ADD RETURNDATACOPY PUSH2 0x10C9 JUMP JUMPDEST PUSH1 0x60 SWAP2 POP JUMPDEST POP PUSH1 0x0 DUP4 DUP4 DUP2 MLOAD DUP2 LT PUSH2 0x10D8 JUMPI INVALID JUMPDEST PUSH1 0x20 MUL PUSH1 0x20 ADD ADD DUP2 DUP2 MSTORE POP POP POP PUSH2 0x1105 JUMP JUMPDEST DUP1 DUP4 DUP4 DUP2 MLOAD DUP2 LT PUSH2 0x10F7 JUMPI INVALID JUMPDEST PUSH1 0x20 MUL PUSH1 0x20 ADD ADD DUP2 DUP2 MSTORE POP POP POP JUMPDEST PUSH1 0x1 ADD PUSH2 0xFEB JUMP JUMPDEST POP SWAP4 SWAP3 POP POP POP JUMP JUMPDEST PUSH1 0x0 PUSH1 0x60 DUP1 PUSH1 0x60 DUP8 PUSH1 0x20 ADD MLOAD MLOAD PUSH1 0x0 EQ ISZERO PUSH2 0x112F JUMPI PUSH2 0x11B3 JUMP JUMPDEST PUSH2 0x113B DUP9 DUP9 DUP9 DUP9 PUSH2 0x4AB8 JUMP JUMPDEST DUP1 SWAP5 POP DUP2 SWAP6 POP POP POP PUSH2 0x11AD PUSH1 0x40 MLOAD DUP1 PUSH1 0x80 ADD PUSH1 0x40 MSTORE DUP1 DUP10 PUSH1 0x1 PUSH1 0x1 PUSH1 0xA0 SHL SUB AND DUP2 MSTORE PUSH1 0x20 ADD DUP9 PUSH1 0x1 PUSH1 0x1 PUSH1 0xA0 SHL SUB AND DUP2 MSTORE PUSH1 0x20 ADD DUP7 DUP7 PUSH1 0x40 MLOAD PUSH1 0x20 ADD PUSH2 0x1182 SWAP3 SWAP2 SWAP1 PUSH2 0x9A6F JUMP JUMPDEST PUSH1 0x40 DUP1 MLOAD PUSH1 0x1F NOT DUP2 DUP5 SUB ADD DUP2 MSTORE SWAP2 DUP2 MSTORE SWAP1 DUP3 MSTORE ADDRESS PUSH1 0x20 SWAP1 DUP2 SHL PUSH4 0xAB3E6210 OR SWAP1 SWAP2 SHL SWAP2 ADD MSTORE DUP7 PUSH2 0x450F JUMP JUMPDEST SWAP1 SWAP3 POP SWAP1 POP JUMPDEST SWAP5 POP SWAP5 POP SWAP5 POP SWAP5 SWAP1 POP JUMP JUMPDEST PUSH1 0x0 PUSH2 0x11D4 PUSH2 0x11CB PUSH2 0x4CE9 JUMP JUMPDEST DUP7 DUP7 DUP6 DUP8 PUSH2 0x4E12 JUMP JUMPDEST SWAP1 POP JUMPDEST SWAP5 SWAP4 POP POP POP POP JUMP JUMPDEST DUP1 EXTCODESIZE ISZERO ISZERO JUMPDEST SWAP2 SWAP1 POP JUMP JUMPDEST PUSH1 0x0 DUP2 PUSH1 0x1 DUP4 MLOAD SUB DUP2 MLOAD DUP2 LT PUSH2 0x11FB JUMPI INVALID JUMPDEST PUSH1 0x20 MUL PUSH1 0x20 ADD ADD MLOAD SWAP1 POP PUSH2 0x120D PUSH2 0x4CE9 JUMP JUMPDEST PUSH1 0x1 PUSH1 0x1 PUSH1 0xA0 SHL SUB AND DUP6 PUSH1 0x1 PUSH1 0x1 PUSH1 0xA0 SHL SUB AND EQ ISZERO PUSH2 0x1279 JUMPI DUP5 PUSH1 0x1 PUSH1 0x1 PUSH1 0xA0 SHL SUB AND PUSH4 0xD0E30DB0 DUP3 PUSH1 0x40 MLOAD DUP3 PUSH4 0xFFFFFFFF AND PUSH1 0xE0 SHL DUP2 MSTORE PUSH1 0x4 ADD PUSH1 0x0 PUSH1 0x40 MLOAD DUP1 DUP4 SUB DUP2 DUP6 DUP9 DUP1 EXTCODESIZE ISZERO DUP1 ISZERO PUSH2 0x1261 JUMPI PUSH1 0x0 DUP1 REVERT JUMPDEST POP GAS CALL SWAP4 POP POP POP POP DUP1 ISZERO PUSH2 0x1273 JUMPI POP PUSH1 0x1 JUMPDEST POP PUSH2 0x1330 JUMP JUMPDEST PUSH1 0x40 MLOAD PUSH4 0xE326C7D7 PUSH1 0xE0 SHL DUP2 MSTORE DUP6 SWAP1 PUSH1 0x1 PUSH1 0x1 PUSH1 0xA0 SHL SUB DUP3 AND SWAP1 PUSH4 0xE326C7D7 SWAP1 PUSH2 0x12A8 SWAP1 PUSH1 0x1 SWAP1 PUSH1 0x4 ADD PUSH2 0x9E20 JUMP JUMPDEST PUSH1 0x0 PUSH1 0x40 MLOAD DUP1 DUP4 SUB DUP2 PUSH1 0x0 DUP8 DUP1 EXTCODESIZE ISZERO DUP1 ISZERO PUSH2 0x12C2 JUMPI PUSH1 0x0 DUP1 REVERT JUMPDEST POP GAS CALL SWAP3 POP POP POP DUP1 ISZERO PUSH2 0x12D3 JUMPI POP PUSH1 0x1 JUMPDEST POP PUSH1 0x40 MLOAD PUSH4 0x55C37053 PUSH1 0xE1 SHL DUP2 MSTORE PUSH1 0x1 PUSH1 0x1 PUSH1 0xA0 SHL SUB DUP3 AND SWAP1 PUSH4 0xAB86E0A6 SWAP1 PUSH2 0x1302 SWAP1 ADDRESS SWAP1 DUP7 SWAP1 PUSH1 0x4 ADD PUSH2 0x994F JUMP JUMPDEST PUSH1 0x0 PUSH1 0x40 MLOAD DUP1 DUP4 SUB DUP2 PUSH1 0x0 DUP8 DUP1 EXTCODESIZE ISZERO DUP1 ISZERO PUSH2 0x131C JUMPI PUSH1 0x0 DUP1 REVERT JUMPDEST POP GAS CALL SWAP3 POP POP POP DUP1 ISZERO PUSH2 0x132D JUMPI POP PUSH1 0x1 JUMPDEST POP POP JUMPDEST PUSH1 0x40 MLOAD PUSH1 0x0 SWAP1 SELFBALANCE DUP1 ISZERO PUSH2 0x8FC MUL SWAP2 DUP4 DUP2 DUP2 DUP2 DUP6 DUP3 DUP9 CALL SWAP4 POP POP POP POP ISZERO DUP1 ISZERO PUSH2 0x135C JUMPI RETURNDATASIZE PUSH1 0x0 DUP1 RETURNDATACOPY RETURNDATASIZE PUSH1 0x0 REVERT JUMPDEST POP PUSH1 0x60 DUP3 MLOAD PUSH1 0x1 PUSH1 0x1 PUSH1 0x40 SHL SUB DUP2 GT DUP1 ISZERO PUSH2 0x1376 JUMPI PUSH1 0x0 DUP1 REVERT JUMPDEST POP PUSH1 0x40 MLOAD SWAP1 DUP1 DUP3 MSTORE DUP1 PUSH1 0x20 MUL PUSH1 0x20 ADD DUP3 ADD PUSH1 0x40 MSTORE DUP1 ISZERO PUSH2 0x13A0 JUMPI DUP2 PUSH1 0x20 ADD PUSH1 0x20 DUP3 MUL DUP1 CALLDATASIZE DUP4 CALLDATACOPY ADD SWAP1 POP JUMPDEST POP SWAP1 POP PUSH1 0x60 DUP4 MLOAD PUSH1 0x1 PUSH1 0x1 PUSH1 0x40 SHL SUB DUP2 GT DUP1 ISZERO PUSH2 0x13BC JUMPI PUSH1 0x0 DUP1 REVERT JUMPDEST POP PUSH1 0x40 MLOAD SWAP1 DUP1 DUP3 MSTORE DUP1 PUSH1 0x20 MUL PUSH1 0x20 ADD DUP3 ADD PUSH1 0x40 MSTORE DUP1 ISZERO PUSH2 0x13E6 JUMPI DUP2 PUSH1 0x20 ADD PUSH1 0x20 DUP3 MUL DUP1 CALLDATASIZE DUP4 CALLDATACOPY ADD SWAP1 POP JUMPDEST POP SWAP1 POP PUSH1 0x0 JUMPDEST DUP5 MLOAD DUP2 LT ISZERO PUSH2 0x152A JUMPI ADDRESS PUSH1 0x1 PUSH1 0x1 PUSH1 0xA0 SHL SUB AND PUSH4 0x78FEE41C PUSH3 0x1E8480 DUP12 DUP12 DUP12 DUP12 DUP12 DUP9 DUP2 MLOAD DUP2 LT PUSH2 0x1418 JUMPI INVALID JUMPDEST PUSH1 0x20 MUL PUSH1 0x20 ADD ADD MLOAD PUSH1 0x40 MLOAD DUP8 PUSH4 0xFFFFFFFF AND PUSH1 0xE0 SHL DUP2 MSTORE PUSH1 0x4 ADD PUSH2 0x1440 SWAP6 SWAP5 SWAP4 SWAP3 SWAP2 SWAP1 PUSH2 0x9EC7 JUMP JUMPDEST PUSH1 0x0 PUSH1 0x40 MLOAD DUP1 DUP4 SUB DUP2 PUSH1 0x0 DUP9 DUP1 EXTCODESIZE ISZERO DUP1 ISZERO PUSH2 0x145A JUMPI PUSH1 0x0 DUP1 REVERT JUMPDEST POP DUP8 CALL SWAP4 POP POP POP POP DUP1 ISZERO PUSH2 0x146C JUMPI POP PUSH1 0x1 JUMPDEST PUSH2 0x1501 JUMPI RETURNDATASIZE DUP1 DUP1 ISZERO PUSH2 0x149A JUMPI PUSH1 0x40 MLOAD SWAP2 POP PUSH1 0x1F NOT PUSH1 0x3F RETURNDATASIZE ADD AND DUP3 ADD PUSH1 0x40 MSTORE RETURNDATASIZE DUP3 MSTORE RETURNDATASIZE PUSH1 0x0 PUSH1 0x20 DUP5 ADD RETURNDATACOPY PUSH2 0x149F JUMP JUMPDEST PUSH1 0x60 SWAP2 POP JUMPDEST POP PUSH2 0x14A9 DUP2 PUSH2 0x5008 JUMP JUMPDEST DUP6 DUP5 DUP2 MLOAD DUP2 LT PUSH2 0x14B5 JUMPI INVALID JUMPDEST PUSH1 0x20 MUL PUSH1 0x20 ADD ADD DUP6 DUP6 DUP2 MLOAD DUP2 LT PUSH2 0x14C8 JUMPI INVALID JUMPDEST PUSH1 0x20 MUL PUSH1 0x20 ADD ADD DUP3 DUP2 MSTORE POP DUP3 DUP2 MSTORE POP POP POP DUP4 DUP3 DUP2 MLOAD DUP2 LT PUSH2 0x14E5 JUMPI INVALID JUMPDEST PUSH1 0x20 MUL PUSH1 0x20 ADD ADD MLOAD PUSH1 0x0 EQ ISZERO PUSH2 0x14FB JUMPI POP PUSH2 0x152A JUMP JUMPDEST POP PUSH2 0x1522 JUMP JUMPDEST PUSH1 0x40 MLOAD PUSH3 0x461BCD PUSH1 0xE5 SHL DUP2 MSTORE PUSH1 0x4 ADD PUSH2 0x1519 SWAP1 PUSH2 0xA376 JUMP JUMPDEST PUSH1 0x40 MLOAD DUP1 SWAP2 SUB SWAP1 REVERT JUMPDEST PUSH1 0x1 ADD PUSH2 0x13EC JUMP JUMPDEST POP PUSH2 0x1535 DUP3 DUP3 PUSH2 0x503D JUMP JUMPDEST POP POP POP POP POP POP POP POP JUMP JUMPDEST PUSH1 0x60 DUP1 PUSH2 0xF95 PUSH1 0x40 MLOAD DUP1 PUSH1 0xA0 ADD PUSH1 0x40 MSTORE DUP1 DUP8 PUSH1 0x1 PUSH1 0x1 PUSH1 0xA0 SHL SUB AND DUP2 MSTORE PUSH1 0x20 ADD DUP7 PUSH1 0x1 PUSH1 0x1 PUSH1 0xA0 SHL SUB AND DUP2 MSTORE PUSH1 0x20 ADD DUP9 PUSH1 0x40 MLOAD PUSH1 0x20 ADD PUSH2 0x157F SWAP2 SWAP1 PUSH2 0x993B JUMP JUMPDEST PUSH1 0x40 MLOAD PUSH1 0x20 DUP2 DUP4 SUB SUB DUP2 MSTORE SWAP1 PUSH1 0x40 MSTORE DUP2 MSTORE PUSH1 0x20 ADD DUP9 PUSH1 0x40 MLOAD PUSH1 0x20 ADD PUSH2 0x15A4 SWAP2 SWAP1 PUSH2 0x993B JUMP JUMPDEST PUSH1 0x40 DUP1 MLOAD PUSH1 0x1F NOT DUP2 DUP5 SUB ADD DUP2 MSTORE SWAP2 DUP2 MSTORE SWAP1 DUP3 MSTORE ADDRESS PUSH1 0x20 SWAP1 DUP2 SHL PUSH4 0xB770F849 OR SWAP1 SWAP2 SHL SWAP2 ADD MSTORE DUP5 PUSH2 0x45E0 JUMP JUMPDEST PUSH1 0x60 DUP1 PUSH2 0xF95 PUSH1 0x40 MLOAD DUP1 PUSH1 0x80 ADD PUSH1 0x40 MSTORE DUP1 DUP8 PUSH1 0x1 PUSH1 0x1 PUSH1 0xA0 SHL SUB AND DUP2 MSTORE PUSH1 0x20 ADD DUP7 PUSH1 0x1 PUSH1 0x1 PUSH1 0xA0 SHL SUB AND DUP2 MSTORE PUSH1 0x20 ADD PUSH1 0x40 MLOAD DUP1 PUSH1 0x40 ADD PUSH1 0x40 MSTORE DUP1 DUP11 PUSH1 0x0 ADD MLOAD PUSH1 0x1 PUSH1 0x1 PUSH1 0xA0 SHL SUB AND DUP2 MSTORE PUSH1 0x20 ADD DUP11 PUSH1 0x40 ADD MLOAD PUSH1 0x1 PUSH1 0x1 PUSH1 0xA0 SHL SUB AND DUP2 MSTORE POP PUSH1 0x40 MLOAD PUSH1 0x20 ADD PUSH2 0x163D SWAP2 SWAP1 PUSH2 0xA672 JUMP JUMPDEST PUSH1 0x40 DUP1 MLOAD PUSH1 0x1F NOT DUP2 DUP5 SUB ADD DUP2 MSTORE SWAP2 DUP2 MSTORE SWAP1 DUP3 MSTORE ADDRESS PUSH1 0x20 SWAP1 DUP2 SHL PUSH4 0xC7DD6C4F OR SWAP1 SWAP2 SHL SWAP2 ADD MSTORE DUP5 PUSH2 0x450F JUMP JUMPDEST PUSH1 0x0 DUP1 PUSH1 0x60 DUP1 DUP8 PUSH1 0x0 ADD MLOAD PUSH1 0x1 PUSH1 0x1 PUSH1 0xA0 SHL SUB AND PUSH4 0x1273B0C6 DUP9 DUP9 PUSH1 0x40 MLOAD DUP4 PUSH4 0xFFFFFFFF AND PUSH1 0xE0 SHL DUP2 MSTORE PUSH1 0x4 ADD PUSH2 0x16A0 SWAP3 SWAP2 SWAP1 PUSH2 0x9968 JUMP JUMPDEST PUSH1 0x20 PUSH1 0x40 MLOAD DUP1 DUP4 SUB DUP2 DUP7 DUP1 EXTCODESIZE ISZERO DUP1 ISZERO PUSH2 0x16B8 JUMPI PUSH1 0x0 DUP1 REVERT JUMPDEST POP GAS STATICCALL ISZERO DUP1 ISZERO PUSH2 0x16CC JUMPI RETURNDATASIZE PUSH1 0x0 DUP1 RETURNDATACOPY RETURNDATASIZE PUSH1 0x0 REVERT JUMPDEST POP POP POP POP PUSH1 0x40 MLOAD RETURNDATASIZE PUSH1 0x1F NOT PUSH1 0x1F DUP3 ADD AND DUP3 ADD DUP1 PUSH1 0x40 MSTORE POP DUP2 ADD SWAP1 PUSH2 0x16F0 SWAP2 SWAP1 PUSH2 0x8856 JUMP JUMPDEST SWAP3 POP PUSH1 0x0 PUSH1 0x1 PUSH1 0x1 PUSH1 0xA0 SHL SUB DUP5 AND ISZERO PUSH2 0x170E JUMPI POP PUSH1 0x1 SWAP4 POP DUP7 PUSH2 0x17AC JUMP JUMPDEST DUP9 MLOAD PUSH1 0x40 MLOAD PUSH4 0x939D863 PUSH1 0xE1 SHL DUP2 MSTORE PUSH1 0x1 PUSH1 0x1 PUSH1 0xA0 SHL SUB SWAP1 SWAP2 AND SWAP1 PUSH4 0x1273B0C6 SWAP1 PUSH2 0x173F SWAP1 DUP11 SWAP1 DUP13 SWAP1 PUSH1 0x4 ADD PUSH2 0x9968 JUMP JUMPDEST PUSH1 0x20 PUSH1 0x40 MLOAD DUP1 DUP4 SUB DUP2 DUP7 DUP1 EXTCODESIZE ISZERO DUP1 ISZERO PUSH2 0x1757 JUMPI PUSH1 0x0 DUP1 REVERT JUMPDEST POP GAS STATICCALL ISZERO DUP1 ISZERO PUSH2 0x176B JUMPI RETURNDATASIZE PUSH1 0x0 DUP1 RETURNDATACOPY RETURNDATASIZE PUSH1 0x0 REVERT JUMPDEST POP POP POP POP PUSH1 0x40 MLOAD RETURNDATASIZE PUSH1 0x1F NOT PUSH1 0x1F DUP3 ADD AND DUP3 ADD DUP1 PUSH1 0x40 MSTORE POP DUP2 ADD SWAP1 PUSH2 0x178F SWAP2 SWAP1 PUSH2 0x8856 JUMP JUMPDEST SWAP4 POP PUSH1 0x1 PUSH1 0x1 PUSH1 0xA0 SHL SUB DUP5 AND PUSH2 0x17A5 JUMPI POP PUSH2 0x11B3 JUMP JUMPDEST POP PUSH1 0x0 SWAP4 POP DUP6 JUMPDEST PUSH2 0x181C PUSH1 0x40 MLOAD DUP1 PUSH1 0x80 ADD PUSH1 0x40 MSTORE DUP1 DUP11 PUSH1 0x1 PUSH1 0x1 PUSH1 0xA0 SHL SUB AND DUP2 MSTORE PUSH1 0x20 ADD DUP10 PUSH1 0x1 PUSH1 0x1 PUSH1 0xA0 SHL SUB AND DUP2 MSTORE PUSH1 0x20 ADD DUP12 PUSH1 0x20 ADD MLOAD DUP8 DUP10 PUSH1 0x40 MLOAD PUSH1 0x20 ADD PUSH2 0x17F1 SWAP4 SWAP3 SWAP2 SWAP1 PUSH2 0x99B6 JUMP JUMPDEST PUSH1 0x40 DUP1 MLOAD PUSH1 0x1F NOT DUP2 DUP5 SUB ADD DUP2 MSTORE SWAP2 DUP2 MSTORE SWAP1 DUP3 MSTORE ADDRESS PUSH1 0x20 SWAP1 DUP2 SHL PUSH4 0xCD85E7B5 OR SWAP1 SWAP2 SHL SWAP2 ADD MSTORE DUP8 PUSH2 0x450F JUMP JUMPDEST SWAP1 SWAP4 POP SWAP2 POP POP SWAP5 POP SWAP5 POP SWAP5 POP SWAP5 SWAP1 POP JUMP JUMPDEST PUSH1 0x60 DUP1 PUSH2 0xF95 PUSH1 0x40 MLOAD DUP1 PUSH1 0x80 ADD PUSH1 0x40 MSTORE DUP1 DUP8 PUSH1 0x1 PUSH1 0x1 PUSH1 0xA0 SHL SUB AND DUP2 MSTORE PUSH1 0x20 ADD DUP7 PUSH1 0x1 PUSH1 0x1 PUSH1 0xA0 SHL SUB AND DUP2 MSTORE PUSH1 0x20 ADD DUP9 PUSH1 0x40 MLOAD PUSH1 0x20 ADD PUSH2 0x186D SWAP2 SWAP1 PUSH2 0x993B JUMP JUMPDEST PUSH1 0x40 DUP1 MLOAD PUSH1 0x1F NOT DUP2 DUP5 SUB ADD DUP2 MSTORE SWAP2 DUP2 MSTORE SWAP1 DUP3 MSTORE ADDRESS PUSH1 0x20 SWAP1 DUP2 SHL PUSH4 0xD3CDC04D OR SWAP1 SWAP2 SHL SWAP2 ADD MSTORE DUP5 PUSH2 0x450F JUMP JUMPDEST PUSH1 0x60 DUP1 PUSH2 0x1930 PUSH1 0x40 MLOAD DUP1 PUSH1 0x80 ADD PUSH1 0x40 MSTORE DUP1 DUP7 PUSH1 0x0 DUP2 MLOAD DUP2 LT PUSH2 0x18B6 JUMPI INVALID JUMPDEST PUSH1 0x20 MUL PUSH1 0x20 ADD ADD MLOAD PUSH1 0x1 PUSH1 0x1 PUSH1 0xA0 SHL SUB AND DUP2 MSTORE PUSH1 0x20 ADD DUP7 PUSH1 0x1 DUP9 MLOAD SUB DUP2 MLOAD DUP2 LT PUSH2 0x18DC JUMPI INVALID JUMPDEST PUSH1 0x20 MUL PUSH1 0x20 ADD ADD MLOAD PUSH1 0x1 PUSH1 0x1 PUSH1 0xA0 SHL SUB AND DUP2 MSTORE PUSH1 0x20 ADD DUP8 DUP8 PUSH1 0x40 MLOAD PUSH1 0x20 ADD PUSH2 0x1905 SWAP3 SWAP2 SWAP1 PUSH2 0x9A6F JUMP JUMPDEST PUSH1 0x40 DUP1 MLOAD PUSH1 0x1F NOT DUP2 DUP5 SUB ADD DUP2 MSTORE SWAP2 DUP2 MSTORE SWAP1 DUP3 MSTORE ADDRESS PUSH1 0x20 SWAP1 DUP2 SHL PUSH4 0x8EFFA9EA OR SWAP1 SWAP2 SHL SWAP2 ADD MSTORE DUP5 PUSH2 0x450F JUMP JUMPDEST SWAP1 SWAP7 SWAP1 SWAP6 POP SWAP4 POP POP POP POP JUMP JUMPDEST PUSH1 0x60 DUP1 PUSH1 0x60 PUSH2 0x194B DUP7 DUP7 PUSH2 0x4311 JUMP JUMPDEST SWAP3 POP DUP3 MLOAD PUSH1 0x0 EQ ISZERO PUSH2 0x195C JUMPI PUSH2 0xEB3 JUMP JUMPDEST PUSH1 0x60 DUP6 MLOAD PUSH1 0x1 PUSH1 0x1 PUSH1 0x40 SHL SUB DUP2 GT DUP1 ISZERO PUSH2 0x1975 JUMPI PUSH1 0x0 DUP1 REVERT JUMPDEST POP PUSH1 0x40 MLOAD SWAP1 DUP1 DUP3 MSTORE DUP1 PUSH1 0x20 MUL PUSH1 0x20 ADD DUP3 ADD PUSH1 0x40 MSTORE DUP1 ISZERO PUSH2 0x199F JUMPI DUP2 PUSH1 0x20 ADD PUSH1 0x20 DUP3 MUL DUP1 CALLDATASIZE DUP4 CALLDATACOPY ADD SWAP1 POP JUMPDEST POP SWAP1 POP PUSH1 0x0 JUMPDEST DUP7 MLOAD DUP2 LT ISZERO PUSH2 0x19F4 JUMPI DUP7 PUSH1 0x1 DUP3 DUP10 MLOAD SUB SUB DUP2 MLOAD DUP2 LT PUSH2 0x19C0 JUMPI INVALID JUMPDEST PUSH1 0x20 MUL PUSH1 0x20 ADD ADD MLOAD DUP3 DUP3 DUP2 MLOAD DUP2 LT PUSH2 0x19D4 JUMPI INVALID JUMPDEST PUSH1 0x1 PUSH1 0x1 PUSH1 0xA0 SHL SUB SWAP1 SWAP3 AND PUSH1 0x20 SWAP3 DUP4 MUL SWAP2 SWAP1 SWAP2 ADD SWAP1 SWAP2 ADD MSTORE PUSH1 0x1 ADD PUSH2 0x19A5 JUMP JUMPDEST POP PUSH1 0x60 PUSH2 0x1A01 DUP9 DUP4 PUSH2 0x4311 JUMP JUMPDEST SWAP1 POP PUSH2 0x1AC3 PUSH1 0x40 MLOAD DUP1 PUSH1 0xA0 ADD PUSH1 0x40 MSTORE DUP1 DUP10 PUSH1 0x0 DUP2 MLOAD DUP2 LT PUSH2 0x1A1E JUMPI INVALID JUMPDEST PUSH1 0x20 MUL PUSH1 0x20 ADD ADD MLOAD PUSH1 0x1 PUSH1 0x1 PUSH1 0xA0 SHL SUB AND DUP2 MSTORE PUSH1 0x20 ADD DUP10 PUSH1 0x1 DUP12 MLOAD SUB DUP2 MLOAD DUP2 LT PUSH2 0x1A44 JUMPI INVALID JUMPDEST PUSH1 0x20 MUL PUSH1 0x20 ADD ADD MLOAD PUSH1 0x1 PUSH1 0x1 PUSH1 0xA0 SHL SUB AND DUP2 MSTORE PUSH1 0x20 ADD DUP11 DUP9 DUP12 PUSH1 0x40 MLOAD PUSH1 0x20 ADD PUSH2 0x1A6F SWAP4 SWAP3 SWAP2 SWAP1 PUSH2 0x9A93 JUMP JUMPDEST PUSH1 0x40 MLOAD PUSH1 0x20 DUP2 DUP4 SUB SUB DUP2 MSTORE SWAP1 PUSH1 0x40 MSTORE DUP2 MSTORE PUSH1 0x20 ADD DUP11 DUP5 DUP7 PUSH1 0x40 MLOAD PUSH1 0x20 ADD PUSH2 0x1A98 SWAP4 SWAP3 SWAP2 SWAP1 PUSH2 0x9A93 JUMP JUMPDEST PUSH1 0x40 DUP1 MLOAD PUSH1 0x1F NOT DUP2 DUP5 SUB ADD DUP2 MSTORE SWAP2 DUP2 MSTORE SWAP1 DUP3 MSTORE ADDRESS PUSH1 0x20 SWAP1 DUP2 SHL PUSH4 0x7A82DCB9 OR SWAP1 SWAP2 SHL SWAP2 ADD MSTORE DUP8 PUSH2 0x45E0 JUMP JUMPDEST SWAP1 SWAP5 POP SWAP3 POP POP POP SWAP4 POP SWAP4 POP SWAP4 SWAP1 POP JUMP JUMPDEST PUSH1 0x20 DUP5 DUP2 ADD MLOAD PUSH1 0x40 DUP1 MLOAD PUSH1 0x1 DUP1 DUP3 MSTORE DUP2 DUP4 ADD SWAP1 SWAP3 MSTORE PUSH1 0x60 SWAP4 DUP5 SWAP3 SWAP1 DUP3 DUP2 ADD SWAP1 DUP1 CALLDATASIZE DUP4 CALLDATACOPY ADD SWAP1 POP POP SWAP1 POP DUP6 DUP2 PUSH1 0x0 DUP2 MLOAD DUP2 LT PUSH2 0x1B0A JUMPI INVALID JUMPDEST PUSH1 0x20 SWAP1 DUP2 MUL SWAP2 SWAP1 SWAP2 ADD ADD MSTORE PUSH1 0x60 PUSH1 0x0 PUSH1 0x40 MLOAD SWAP1 DUP1 DUP3 MSTORE DUP1 PUSH1 0x20 MUL PUSH1 0x20 ADD DUP3 ADD PUSH1 0x40 MSTORE DUP1 ISZERO PUSH2 0x1B42 JUMPI DUP2 PUSH1 0x20 ADD PUSH1 0x20 DUP3 MUL DUP1 CALLDATASIZE DUP4 CALLDATACOPY ADD SWAP1 POP JUMPDEST POP SWAP1 POP DUP8 PUSH1 0x60 ADD MLOAD PUSH1 0x1 PUSH1 0x1 PUSH1 0xA0 SHL SUB AND DUP7 PUSH1 0x1 PUSH1 0x1 PUSH1 0xA0 SHL SUB AND EQ ISZERO PUSH2 0x1C33 JUMPI PUSH1 0x40 MLOAD PUSH4 0x81EFCBDD PUSH1 0xE0 SHL DUP2 MSTORE PUSH1 0x1 PUSH1 0x1 PUSH1 0xA0 SHL SUB DUP5 AND SWAP1 PUSH4 0x81EFCBDD SWAP1 PUSH3 0x7A120 SWAP1 PUSH2 0x1B9B SWAP1 DUP10 SWAP1 PUSH1 0x1 SWAP1 DUP9 SWAP1 DUP9 SWAP1 PUSH1 0x4 ADD PUSH2 0x9B88 JUMP JUMPDEST PUSH1 0x0 PUSH1 0x40 MLOAD DUP1 DUP4 SUB DUP2 DUP8 DUP1 EXTCODESIZE ISZERO DUP1 ISZERO PUSH2 0x1BB3 JUMPI PUSH1 0x0 DUP1 REVERT JUMPDEST POP DUP7 STATICCALL SWAP4 POP POP POP POP DUP1 ISZERO PUSH2 0x1BE9 JUMPI POP PUSH1 0x40 MLOAD RETURNDATASIZE PUSH1 0x0 DUP3 RETURNDATACOPY PUSH1 0x1F RETURNDATASIZE SWAP1 DUP2 ADD PUSH1 0x1F NOT AND DUP3 ADD PUSH1 0x40 MSTORE PUSH2 0x1BE6 SWAP2 SWAP1 DUP2 ADD SWAP1 PUSH2 0x8FD5 JUMP JUMPDEST PUSH1 0x1 JUMPDEST PUSH2 0x1C23 JUMPI RETURNDATASIZE DUP1 DUP1 ISZERO PUSH2 0x1C17 JUMPI PUSH1 0x40 MLOAD SWAP2 POP PUSH1 0x1F NOT PUSH1 0x3F RETURNDATASIZE ADD AND DUP3 ADD PUSH1 0x40 MSTORE RETURNDATASIZE DUP3 MSTORE RETURNDATASIZE PUSH1 0x0 PUSH1 0x20 DUP5 ADD RETURNDATACOPY PUSH2 0x1C1C JUMP JUMPDEST PUSH1 0x60 SWAP2 POP JUMPDEST POP POP PUSH2 0x1C2E JUMP JUMPDEST SWAP4 POP PUSH2 0x11D7 SWAP3 POP POP POP JUMP JUMPDEST PUSH2 0x1D4D JUMP JUMPDEST DUP8 PUSH1 0x60 ADD MLOAD PUSH1 0x1 PUSH1 0x1 PUSH1 0xA0 SHL SUB AND DUP6 PUSH1 0x1 PUSH1 0x1 PUSH1 0xA0 SHL SUB AND EQ ISZERO PUSH2 0x1C89 JUMPI PUSH1 0x40 MLOAD PUSH4 0x61E597F9 PUSH1 0xE0 SHL DUP2 MSTORE PUSH1 0x1 PUSH1 0x1 PUSH1 0xA0 SHL SUB DUP5 AND SWAP1 PUSH4 0x61E597F9 SWAP1 PUSH3 0x7A120 SWAP1 PUSH2 0x1B9B SWAP1 DUP11 SWAP1 PUSH1 0x1 SWAP1 DUP9 SWAP1 DUP9 SWAP1 PUSH1 0x4 ADD PUSH2 0x9B88 JUMP JUMPDEST PUSH1 0x40 MLOAD PUSH4 0x2B9A6CD PUSH1 0xE1 SHL DUP2 MSTORE PUSH1 0x1 PUSH1 0x1 PUSH1 0xA0 SHL SUB DUP5 AND SWAP1 PUSH4 0x5734D9A SWAP1 PUSH3 0x7A120 SWAP1 PUSH2 0x1CC9 SWAP1 DUP11 SWAP1 PUSH1 0x1 SWAP1 DUP9 SWAP1 DUP9 SWAP1 DUP14 SWAP1 DUP5 SWAP1 DUP5 SWAP1 DUP5 SWAP1 PUSH1 0x4 ADD PUSH2 0x9BCB JUMP JUMPDEST PUSH1 0x0 PUSH1 0x40 MLOAD DUP1 DUP4 SUB DUP2 DUP8 DUP1 EXTCODESIZE ISZERO DUP1 ISZERO PUSH2 0x1CE1 JUMPI PUSH1 0x0 DUP1 REVERT JUMPDEST POP DUP7 STATICCALL SWAP4 POP POP POP POP DUP1 ISZERO PUSH2 0x1D17 JUMPI POP PUSH1 0x40 MLOAD RETURNDATASIZE PUSH1 0x0 DUP3 RETURNDATACOPY PUSH1 0x1F RETURNDATASIZE SWAP1 DUP2 ADD PUSH1 0x1F NOT AND DUP3 ADD PUSH1 0x40 MSTORE PUSH2 0x1D14 SWAP2 SWAP1 DUP2 ADD SWAP1 PUSH2 0x8FD5 JUMP JUMPDEST PUSH1 0x1 JUMPDEST PUSH2 0x1C23 JUMPI RETURNDATASIZE DUP1 DUP1 ISZERO PUSH2 0x1D45 JUMPI PUSH1 0x40 MLOAD SWAP2 POP PUSH1 0x1F NOT PUSH1 0x3F RETURNDATASIZE ADD AND DUP3 ADD PUSH1 0x40 MSTORE RETURNDATASIZE DUP3 MSTORE RETURNDATASIZE PUSH1 0x0 PUSH1 0x20 DUP5 ADD RETURNDATACOPY PUSH2 0x1D4A JUMP JUMPDEST PUSH1 0x60 SWAP2 POP JUMPDEST POP POP JUMPDEST POP POP POP SWAP5 SWAP4 POP POP POP POP JUMP JUMPDEST PUSH1 0x60 DUP1 PUSH2 0xF95 PUSH1 0x40 MLOAD DUP1 PUSH1 0xA0 ADD PUSH1 0x40 MSTORE DUP1 DUP8 PUSH1 0x1 PUSH1 0x1 PUSH1 0xA0 SHL SUB AND DUP2 MSTORE PUSH1 0x20 ADD DUP7 PUSH1 0x1 PUSH1 0x1 PUSH1 0xA0 SHL SUB AND DUP2 MSTORE PUSH1 0x20 ADD DUP9 PUSH1 0x40 MLOAD PUSH1 0x20 ADD PUSH2 0x1D98 SWAP2 SWAP1 PUSH2 0x993B JUMP JUMPDEST PUSH1 0x40 MLOAD PUSH1 0x20 DUP2 DUP4 SUB SUB DUP2 MSTORE SWAP1 PUSH1 0x40 MSTORE DUP2 MSTORE PUSH1 0x20 ADD DUP9 PUSH1 0x40 MLOAD PUSH1 0x20 ADD PUSH2 0x1DBD SWAP2 SWAP1 PUSH2 0x993B JUMP JUMPDEST PUSH1 0x40 DUP1 MLOAD PUSH1 0x1F NOT DUP2 DUP5 SUB ADD DUP2 MSTORE SWAP2 DUP2 MSTORE SWAP1 DUP3 MSTORE ADDRESS PUSH1 0x20 SWAP1 DUP2 SHL PUSH4 0x7280BFFF OR SWAP1 SWAP2 SHL SWAP2 ADD MSTORE DUP5 PUSH2 0x45E0 JUMP JUMPDEST PUSH1 0x0 PUSH2 0x11D4 DUP6 DUP4 DUP6 PUSH2 0x506B JUMP JUMPDEST PUSH1 0x0 PUSH2 0x11D4 DUP6 DUP6 DUP5 DUP7 PUSH2 0x5149 JUMP JUMPDEST PUSH1 0x60 DUP1 PUSH2 0xF95 PUSH1 0x40 MLOAD DUP1 PUSH1 0xA0 ADD PUSH1 0x40 MSTORE DUP1 DUP8 PUSH1 0x1 PUSH1 0x1 PUSH1 0xA0 SHL SUB AND DUP2 MSTORE PUSH1 0x20 ADD DUP7 PUSH1 0x1 PUSH1 0x1 PUSH1 0xA0 SHL SUB AND DUP2 MSTORE PUSH1 0x20 ADD DUP9 PUSH1 0x40 MLOAD PUSH1 0x20 ADD PUSH2 0x1E43 SWAP2 SWAP1 PUSH2 0x993B JUMP JUMPDEST PUSH1 0x40 MLOAD PUSH1 0x20 DUP2 DUP4 SUB SUB DUP2 MSTORE SWAP1 PUSH1 0x40 MSTORE DUP2 MSTORE PUSH1 0x20 ADD DUP9 PUSH1 0x40 MLOAD PUSH1 0x20 ADD PUSH2 0x1E68 SWAP2 SWAP1 PUSH2 0x993B JUMP JUMPDEST PUSH1 0x40 DUP1 MLOAD PUSH1 0x1F NOT DUP2 DUP5 SUB ADD DUP2 MSTORE SWAP2 DUP2 MSTORE SWAP1 DUP3 MSTORE ADDRESS PUSH1 0x20 SWAP1 DUP2 SHL PUSH4 0x686B7EE8 OR SWAP1 SWAP2 SHL SWAP2 ADD MSTORE DUP5 PUSH2 0x45E0 JUMP JUMPDEST PUSH1 0x60 PUSH2 0x1EA0 DUP5 DUP5 DUP5 PUSH2 0xFA2 JUMP JUMPDEST SWAP1 POP PUSH1 0x0 JUMPDEST DUP5 MLOAD DUP2 LT ISZERO PUSH2 0x110D JUMPI DUP2 DUP2 DUP2 MLOAD DUP2 LT PUSH2 0x1EBA JUMPI INVALID JUMPDEST PUSH1 0x20 MUL PUSH1 0x20 ADD ADD MLOAD PUSH1 0x0 EQ PUSH2 0x1F40 JUMPI PUSH2 0x1F27 DUP3 DUP3 DUP2 MLOAD DUP2 LT PUSH2 0x1ED8 JUMPI INVALID JUMPDEST PUSH1 0x20 MUL PUSH1 0x20 ADD ADD MLOAD DUP7 DUP4 DUP2 MLOAD DUP2 LT PUSH2 0x1EEC JUMPI INVALID JUMPDEST PUSH1 0x20 MUL PUSH1 0x20 ADD ADD MLOAD PUSH1 0x60 ADD MLOAD PUSH1 0x1 PUSH1 0x1 PUSH1 0x80 SHL SUB AND DUP8 DUP5 DUP2 MLOAD DUP2 LT PUSH2 0x1F0D JUMPI INVALID JUMPDEST PUSH1 0x20 MUL PUSH1 0x20 ADD ADD MLOAD PUSH1 0x40 ADD MLOAD PUSH1 0x1 PUSH1 0x1 PUSH1 0x80 SHL SUB AND PUSH2 0x51A9 JUMP JUMPDEST DUP3 DUP3 DUP2 MLOAD DUP2 LT PUSH2 0x1F33 JUMPI INVALID JUMPDEST PUSH1 0x20 MUL PUSH1 0x20 ADD ADD DUP2 DUP2 MSTORE POP POP JUMPDEST PUSH1 0x1 ADD PUSH2 0x1EA5 JUMP JUMPDEST PUSH1 0x0 PUSH2 0x11D4 DUP6 DUP6 DUP5 DUP7 PUSH2 0x51D3 JUMP JUMPDEST PUSH1 0x0 PUSH2 0x11D4 DUP6 DUP6 DUP5 DUP7 PUSH2 0x53E9 JUMP JUMPDEST PUSH1 0x60 DUP2 PUSH1 0x1 PUSH1 0x1 PUSH1 0x40 SHL SUB DUP2 GT DUP1 ISZERO PUSH2 0x1F7C JUMPI PUSH1 0x0 DUP1 REVERT JUMPDEST POP PUSH1 0x40 MLOAD SWAP1 DUP1 DUP3 MSTORE DUP1 PUSH1 0x20 MUL PUSH1 0x20 ADD DUP3 ADD PUSH1 0x40 MSTORE DUP1 ISZERO PUSH2 0x1FB6 JUMPI DUP2 PUSH1 0x20 ADD JUMPDEST PUSH2 0x1FA3 PUSH2 0x80E0 JUMP JUMPDEST DUP2 MSTORE PUSH1 0x20 ADD SWAP1 PUSH1 0x1 SWAP1 SUB SWAP1 DUP2 PUSH2 0x1F9B JUMPI SWAP1 POP JUMPDEST POP SWAP1 POP PUSH1 0x0 JUMPDEST DUP1 DUP4 EQ PUSH2 0x20BE JUMPI PUSH1 0x1 DUP3 DUP3 DUP2 MLOAD DUP2 LT PUSH2 0x1FD1 JUMPI INVALID JUMPDEST PUSH1 0x20 SWAP1 DUP2 MUL SWAP2 SWAP1 SWAP2 ADD DUP2 ADD MLOAD SWAP2 ISZERO ISZERO SWAP2 ADD MSTORE DUP4 DUP4 DUP3 DUP2 DUP2 LT PUSH2 0x1FEF JUMPI INVALID JUMPDEST SWAP1 POP PUSH1 0x20 MUL DUP2 ADD SWAP1 PUSH2 0x2001 SWAP2 SWAP1 PUSH2 0xA814 JUMP JUMPDEST ISZERO ISZERO SWAP1 POP PUSH2 0x200E JUMPI PUSH2 0x20B6 JUMP JUMPDEST ADDRESS DUP5 DUP5 DUP4 DUP2 DUP2 LT PUSH2 0x201B JUMPI INVALID JUMPDEST SWAP1 POP PUSH1 0x20 MUL DUP2 ADD SWAP1 PUSH2 0x202D SWAP2 SWAP1 PUSH2 0xA814 JUMP JUMPDEST PUSH1 0x40 MLOAD PUSH2 0x203B SWAP3 SWAP2 SWAP1 PUSH2 0x990F JUMP JUMPDEST PUSH1 0x0 PUSH1 0x40 MLOAD DUP1 DUP4 SUB DUP2 PUSH1 0x0 DUP7 GAS CALL SWAP2 POP POP RETURNDATASIZE DUP1 PUSH1 0x0 DUP2 EQ PUSH2 0x2078 JUMPI PUSH1 0x40 MLOAD SWAP2 POP PUSH1 0x1F NOT PUSH1 0x3F RETURNDATASIZE ADD AND DUP3 ADD PUSH1 0x40 MSTORE RETURNDATASIZE DUP3 MSTORE RETURNDATASIZE PUSH1 0x0 PUSH1 0x20 DUP5 ADD RETURNDATACOPY PUSH2 0x207D JUMP JUMPDEST PUSH1 0x60 SWAP2 POP JUMPDEST POP DUP4 DUP4 DUP2 MLOAD DUP2 LT PUSH2 0x208A JUMPI INVALID JUMPDEST PUSH1 0x20 MUL PUSH1 0x20 ADD ADD MLOAD PUSH1 0x20 ADD DUP5 DUP5 DUP2 MLOAD DUP2 LT PUSH2 0x20A1 JUMPI INVALID JUMPDEST PUSH1 0x20 SWAP1 DUP2 MUL SWAP2 SWAP1 SWAP2 ADD ADD MLOAD SWAP2 SWAP1 SWAP2 MSTORE SWAP1 ISZERO ISZERO SWAP1 MSTORE JUMPDEST PUSH1 0x1 ADD PUSH2 0x1FBC JUMP JUMPDEST POP SWAP3 SWAP2 POP POP JUMP JUMPDEST PUSH1 0x60 DUP1 PUSH1 0x60 DUP1 PUSH2 0x2147 DUP9 PUSH1 0x1 PUSH1 0x1 PUSH1 0xA0 SHL SUB AND PUSH4 0xC45A0155 PUSH1 0x40 MLOAD DUP2 PUSH4 0xFFFFFFFF AND PUSH1 0xE0 SHL DUP2 MSTORE PUSH1 0x4 ADD PUSH1 0x20 PUSH1 0x40 MLOAD DUP1 DUP4 SUB DUP2 DUP7 DUP1 EXTCODESIZE ISZERO DUP1 ISZERO PUSH2 0x2107 JUMPI PUSH1 0x0 DUP1 REVERT JUMPDEST POP GAS STATICCALL ISZERO DUP1 ISZERO PUSH2 0x211B JUMPI RETURNDATASIZE PUSH1 0x0 DUP1 RETURNDATACOPY RETURNDATASIZE PUSH1 0x0 REVERT JUMPDEST POP POP POP POP PUSH1 0x40 MLOAD RETURNDATASIZE PUSH1 0x1F NOT PUSH1 0x1F DUP3 ADD AND DUP3 ADD DUP1 PUSH1 0x40 MSTORE POP DUP2 ADD SWAP1 PUSH2 0x213F SWAP2 SWAP1 PUSH2 0x8856 JUMP JUMPDEST DUP8 PUSH1 0x0 PUSH2 0x544D JUMP JUMPDEST SWAP1 POP DUP5 MLOAD PUSH1 0x1 PUSH1 0x1 PUSH1 0x40 SHL SUB DUP2 GT DUP1 ISZERO PUSH2 0x2160 JUMPI PUSH1 0x0 DUP1 REVERT JUMPDEST POP PUSH1 0x40 MLOAD SWAP1 DUP1 DUP3 MSTORE DUP1 PUSH1 0x20 MUL PUSH1 0x20 ADD DUP3 ADD PUSH1 0x40 MSTORE DUP1 ISZERO PUSH2 0x218A JUMPI DUP2 PUSH1 0x20 ADD PUSH1 0x20 DUP3 MUL DUP1 CALLDATASIZE DUP4 CALLDATACOPY ADD SWAP1 POP JUMPDEST POP SWAP2 POP DUP5 MLOAD PUSH1 0x1 PUSH1 0x1 PUSH1 0x40 SHL SUB DUP2 GT DUP1 ISZERO PUSH2 0x21A4 JUMPI PUSH1 0x0 DUP1 REVERT JUMPDEST POP PUSH1 0x40 MLOAD SWAP1 DUP1 DUP3 MSTORE DUP1 PUSH1 0x20 MUL PUSH1 0x20 ADD DUP3 ADD PUSH1 0x40 MSTORE DUP1 ISZERO PUSH2 0x21CE JUMPI DUP2 PUSH1 0x20 ADD PUSH1 0x20 DUP3 MUL DUP1 CALLDATASIZE DUP4 CALLDATACOPY ADD SWAP1 POP JUMPDEST POP SWAP3 POP DUP5 MLOAD PUSH1 0x1 PUSH1 0x1 PUSH1 0x40 SHL SUB DUP2 GT DUP1 ISZERO PUSH2 0x21E8 JUMPI PUSH1 0x0 DUP1 REVERT JUMPDEST POP PUSH1 0x40 MLOAD SWAP1 DUP1 DUP3 MSTORE DUP1 PUSH1 0x20 MUL PUSH1 0x20 ADD DUP3 ADD PUSH1 0x40 MSTORE DUP1 ISZERO PUSH2 0x221C JUMPI DUP2 PUSH1 0x20 ADD JUMPDEST PUSH1 0x60 DUP2 MSTORE PUSH1 0x20 ADD SWAP1 PUSH1 0x1 SWAP1 SUB SWAP1 DUP2 PUSH2 0x2207 JUMPI SWAP1 POP JUMPDEST POP SWAP4 POP PUSH1 0x0 JUMPDEST DUP2 MLOAD DUP2 LT ISZERO PUSH2 0x23CA JUMPI PUSH1 0x60 PUSH2 0x224A DUP9 DUP5 DUP5 DUP2 MLOAD DUP2 LT PUSH2 0x223D JUMPI INVALID JUMPDEST PUSH1 0x20 MUL PUSH1 0x20 ADD ADD MLOAD PUSH2 0x58E3 JUMP JUMPDEST SWAP1 POP PUSH1 0x60 DUP1 PUSH2 0x22E4 PUSH1 0x40 MLOAD DUP1 PUSH1 0x80 ADD PUSH1 0x40 MSTORE DUP1 DUP13 PUSH1 0x0 DUP2 MLOAD DUP2 LT PUSH2 0x226A JUMPI INVALID JUMPDEST PUSH1 0x20 MUL PUSH1 0x20 ADD ADD MLOAD PUSH1 0x1 PUSH1 0x1 PUSH1 0xA0 SHL SUB AND DUP2 MSTORE PUSH1 0x20 ADD DUP13 PUSH1 0x1 DUP15 MLOAD SUB DUP2 MLOAD DUP2 LT PUSH2 0x2290 JUMPI INVALID JUMPDEST PUSH1 0x20 MUL PUSH1 0x20 ADD ADD MLOAD PUSH1 0x1 PUSH1 0x1 PUSH1 0xA0 SHL SUB AND DUP2 MSTORE PUSH1 0x20 ADD DUP14 DUP7 PUSH1 0x40 MLOAD PUSH1 0x20 ADD PUSH2 0x22B9 SWAP3 SWAP2 SWAP1 PUSH2 0x9B64 JUMP JUMPDEST PUSH1 0x40 DUP1 MLOAD PUSH1 0x1F NOT DUP2 DUP5 SUB ADD DUP2 MSTORE SWAP2 DUP2 MSTORE SWAP1 DUP3 MSTORE ADDRESS PUSH1 0x20 SWAP1 DUP2 SHL PUSH4 0x59AB9A6C OR SWAP1 SWAP2 SHL SWAP2 ADD MSTORE DUP11 PUSH2 0x450F JUMP JUMPDEST SWAP2 POP SWAP2 POP PUSH1 0x0 JUMPDEST DUP2 MLOAD DUP2 LT ISZERO PUSH2 0x23BB JUMPI DUP2 DUP2 DUP2 MLOAD DUP2 LT PUSH2 0x2300 JUMPI INVALID JUMPDEST PUSH1 0x20 MUL PUSH1 0x20 ADD ADD MLOAD PUSH1 0x0 EQ ISZERO PUSH2 0x2315 JUMPI PUSH2 0x23BB JUMP JUMPDEST DUP2 DUP2 DUP2 MLOAD DUP2 LT PUSH2 0x2321 JUMPI INVALID JUMPDEST PUSH1 0x20 MUL PUSH1 0x20 ADD ADD MLOAD DUP8 DUP3 DUP2 MLOAD DUP2 LT PUSH2 0x2335 JUMPI INVALID JUMPDEST PUSH1 0x20 MUL PUSH1 0x20 ADD ADD MLOAD GT PUSH2 0x23B3 JUMPI DUP2 DUP2 DUP2 MLOAD DUP2 LT PUSH2 0x234E JUMPI INVALID JUMPDEST PUSH1 0x20 MUL PUSH1 0x20 ADD ADD MLOAD DUP8 DUP3 DUP2 MLOAD DUP2 LT PUSH2 0x2362 JUMPI INVALID JUMPDEST PUSH1 0x20 MUL PUSH1 0x20 ADD ADD DUP2 DUP2 MSTORE POP POP DUP3 DUP2 DUP2 MLOAD DUP2 LT PUSH2 0x237A JUMPI INVALID JUMPDEST PUSH1 0x20 MUL PUSH1 0x20 ADD ADD MLOAD DUP9 DUP3 DUP2 MLOAD DUP2 LT PUSH2 0x238E JUMPI INVALID JUMPDEST PUSH1 0x20 MUL PUSH1 0x20 ADD ADD DUP2 DUP2 MSTORE POP POP DUP4 DUP10 DUP3 DUP2 MLOAD DUP2 LT PUSH2 0x23A7 JUMPI INVALID JUMPDEST PUSH1 0x20 MUL PUSH1 0x20 ADD ADD DUP2 SWAP1 MSTORE POP JUMPDEST PUSH1 0x1 ADD PUSH2 0x22EB JUMP JUMPDEST POP POP POP POP DUP1 PUSH1 0x1 ADD SWAP1 POP PUSH2 0x2222 JUMP JUMPDEST POP POP SWAP5 POP SWAP5 POP SWAP5 SWAP2 POP POP JUMP JUMPDEST PUSH1 0x60 DUP2 MLOAD PUSH1 0x1 PUSH1 0x1 PUSH1 0x40 SHL SUB DUP2 GT DUP1 ISZERO PUSH2 0x23EF JUMPI PUSH1 0x0 DUP1 REVERT JUMPDEST POP PUSH1 0x40 MLOAD SWAP1 DUP1 DUP3 MSTORE DUP1 PUSH1 0x20 MUL PUSH1 0x20 ADD DUP3 ADD PUSH1 0x40 MSTORE DUP1 ISZERO PUSH2 0x2419 JUMPI DUP2 PUSH1 0x20 ADD PUSH1 0x20 DUP3 MUL DUP1 CALLDATASIZE DUP4 CALLDATACOPY ADD SWAP1 POP JUMPDEST POP SWAP1 POP PUSH1 0x0 JUMPDEST DUP3 MLOAD DUP2 EQ PUSH2 0x24C2 JUMPI PUSH32 0x0 PUSH1 0x1 PUSH1 0x1 PUSH1 0xA0 SHL SUB AND DUP4 DUP3 DUP2 MLOAD DUP2 LT PUSH2 0x245D JUMPI INVALID JUMPDEST PUSH1 0x20 MUL PUSH1 0x20 ADD ADD MLOAD PUSH1 0x1 PUSH1 0x1 PUSH1 0xA0 SHL SUB AND EQ PUSH2 0x249D JUMPI PUSH2 0x2498 DUP4 DUP3 DUP2 MLOAD DUP2 LT PUSH2 0x2482 JUMPI INVALID JUMPDEST PUSH1 0x20 MUL PUSH1 0x20 ADD ADD MLOAD PUSH1 0x1 PUSH1 0x1 PUSH1 0xA0 SHL SUB AND PUSH2 0x5A3E JUMP JUMPDEST PUSH2 0x24A0 JUMP JUMPDEST PUSH1 0x12 JUMPDEST PUSH1 0xFF AND DUP3 DUP3 DUP2 MLOAD DUP2 LT PUSH2 0x24AF JUMPI INVALID JUMPDEST PUSH1 0x20 SWAP1 DUP2 MUL SWAP2 SWAP1 SWAP2 ADD ADD MSTORE PUSH1 0x1 ADD PUSH2 0x241F JUMP JUMPDEST POP SWAP2 SWAP1 POP JUMP JUMPDEST PUSH1 0x0 PUSH2 0x11D4 DUP6 DUP6 DUP5 DUP7 PUSH2 0x5AEA JUMP JUMPDEST POP PUSH1 0x0 SWAP4 PUSH1 0x60 SWAP4 POP DUP4 SWAP3 POP DUP3 SWAP2 POP JUMP JUMPDEST PUSH2 0x1337 PUSH2 0xDEF1 PUSH1 0x90 SHL ADD PUSH1 0x1 PUSH1 0x1 PUSH1 0xA0 SHL SUB AND PUSH4 0xD0AFDCA9 PUSH1 0x40 MLOAD DUP2 PUSH4 0xFFFFFFFF AND PUSH1 0xE0 SHL DUP2 MSTORE PUSH1 0x4 ADD PUSH1 0x0 PUSH1 0x40 MLOAD DUP1 DUP4 SUB DUP2 PUSH1 0x0 DUP8 DUP1 EXTCODESIZE ISZERO DUP1 ISZERO PUSH2 0x252A JUMPI PUSH1 0x0 DUP1 REVERT JUMPDEST POP GAS CALL SWAP3 POP POP POP DUP1 ISZERO PUSH2 0x253B JUMPI POP PUSH1 0x1 JUMPDEST POP PUSH1 0x0 GAS SWAP1 POP PUSH1 0x0 PUSH1 0x60 ADDRESS PUSH1 0x1 PUSH1 0x1 PUSH1 0xA0 SHL SUB AND DUP9 DUP9 DUP9 DUP9 DUP9 PUSH1 0x40 MLOAD PUSH1 0x24 ADD PUSH2 0x2567 SWAP5 SWAP4 SWAP3 SWAP2 SWAP1 PUSH2 0x9A0E JUMP JUMPDEST PUSH1 0x40 DUP1 MLOAD PUSH1 0x1F NOT DUP2 DUP5 SUB ADD DUP2 MSTORE SWAP2 DUP2 MSTORE PUSH1 0x20 DUP3 ADD DUP1 MLOAD PUSH1 0x1 PUSH1 0x1 PUSH1 0xE0 SHL SUB AND PUSH1 0x1 PUSH1 0x1 PUSH1 0xE0 SHL SUB NOT SWAP1 SWAP5 AND SWAP4 SWAP1 SWAP4 OR SWAP1 SWAP3 MSTORE SWAP1 MLOAD PUSH2 0x25A5 SWAP2 SWAP1 PUSH2 0x991F JUMP JUMPDEST PUSH1 0x0 PUSH1 0x40 MLOAD DUP1 DUP4 SUB DUP2 PUSH1 0x0 DUP7 GAS CALL SWAP2 POP POP RETURNDATASIZE DUP1 PUSH1 0x0 DUP2 EQ PUSH2 0x25E2 JUMPI PUSH1 0x40 MLOAD SWAP2 POP PUSH1 0x1F NOT PUSH1 0x3F RETURNDATASIZE ADD AND DUP3 ADD PUSH1 0x40 MSTORE RETURNDATASIZE DUP3 MSTORE RETURNDATASIZE PUSH1 0x0 PUSH1 0x20 DUP5 ADD RETURNDATACOPY PUSH2 0x25E7 JUMP JUMPDEST PUSH1 0x60 SWAP2 POP JUMPDEST POP SWAP2 POP SWAP2 POP GAS DUP4 SUB SWAP3 POP PUSH2 0x1337 PUSH2 0xDEF1 PUSH1 0x90 SHL ADD PUSH1 0x1 PUSH1 0x1 PUSH1 0xA0 SHL SUB AND PUSH4 0xC18C162 PUSH1 0x40 MLOAD DUP2 PUSH4 0xFFFFFFFF AND PUSH1 0xE0 SHL DUP2 MSTORE PUSH1 0x4 ADD PUSH1 0x20 PUSH1 0x40 MLOAD DUP1 DUP4 SUB DUP2 DUP7 DUP1 EXTCODESIZE ISZERO DUP1 ISZERO PUSH2 0x2633 JUMPI PUSH1 0x0 DUP1 REVERT JUMPDEST POP GAS STATICCALL SWAP3 POP POP POP DUP1 ISZERO PUSH2 0x2663 JUMPI POP PUSH1 0x40 DUP1 MLOAD PUSH1 0x1F RETURNDATASIZE SWAP1 DUP2 ADD PUSH1 0x1F NOT AND DUP3 ADD SWAP1 SWAP3 MSTORE PUSH2 0x2660 SWAP2 DUP2 ADD SWAP1 PUSH2 0x8EB8 JUMP JUMPDEST PUSH1 0x1 JUMPDEST PUSH2 0x266C JUMPI PUSH2 0x2671 JUMP JUMPDEST SWAP1 SWAP3 SUB SWAP2 JUMPDEST DUP2 PUSH2 0x267F JUMPI PUSH2 0x267F DUP2 PUSH2 0x5BAA JUMP JUMPDEST PUSH2 0x1535 DUP2 DUP1 PUSH1 0x20 ADD SWAP1 MLOAD DUP2 ADD SWAP1 PUSH2 0x2696 SWAP2 SWAP1 PUSH2 0x8EB8 JUMP JUMPDEST DUP5 PUSH2 0x5BB2 JUMP JUMPDEST PUSH1 0x0 PUSH2 0x11D4 DUP5 DUP4 DUP6 PUSH2 0x5BC0 JUMP JUMPDEST PUSH1 0x40 DUP1 MLOAD PUSH1 0x3F DUP4 EXTCODESIZE SWAP1 DUP2 ADD PUSH1 0x1F NOT AND DUP3 ADD SWAP1 SWAP3 MSTORE DUP2 DUP2 MSTORE SWAP1 DUP1 PUSH1 0x0 PUSH1 0x20 DUP5 ADD DUP6 EXTCODECOPY POP SWAP2 SWAP1 POP JUMP JUMPDEST PUSH1 0x60 DUP1 PUSH2 0x26DB PUSH2 0x80F8 JUMP JUMPDEST PUSH1 0x40 MLOAD DUP1 PUSH1 0x40 ADD PUSH1 0x40 MSTORE DUP1 DUP9 PUSH1 0x0 ADD MLOAD PUSH1 0x1 PUSH1 0x1 PUSH1 0xA0 SHL SUB AND DUP2 MSTORE PUSH1 0x20 ADD DUP9 PUSH1 0x40 ADD MLOAD PUSH1 0x1 PUSH1 0x1 PUSH1 0xA0 SHL SUB AND DUP2 MSTORE POP SWAP1 POP PUSH2 0x2799 PUSH1 0x40 MLOAD DUP1 PUSH1 0xA0 ADD PUSH1 0x40 MSTORE DUP1 DUP9 PUSH1 0x1 PUSH1 0x1 PUSH1 0xA0 SHL SUB AND DUP2 MSTORE PUSH1 0x20 ADD DUP8 PUSH1 0x1 PUSH1 0x1 PUSH1 0xA0 SHL SUB AND DUP2 MSTORE PUSH1 0x20 ADD DUP4 PUSH1 0x40 MLOAD PUSH1 0x20 ADD PUSH2 0x2749 SWAP2 SWAP1 PUSH2 0xA672 JUMP JUMPDEST PUSH1 0x40 MLOAD PUSH1 0x20 DUP2 DUP4 SUB SUB DUP2 MSTORE SWAP1 PUSH1 0x40 MSTORE DUP2 MSTORE PUSH1 0x20 ADD DUP4 PUSH1 0x40 MLOAD PUSH1 0x20 ADD PUSH2 0x276E SWAP2 SWAP1 PUSH2 0xA672 JUMP JUMPDEST PUSH1 0x40 DUP1 MLOAD PUSH1 0x1F NOT DUP2 DUP5 SUB ADD DUP2 MSTORE SWAP2 DUP2 MSTORE SWAP1 DUP3 MSTORE ADDRESS PUSH1 0x20 SWAP1 DUP2 SHL PUSH4 0xC7DD6C4F OR SWAP1 SWAP2 SHL SWAP2 ADD MSTORE DUP6 PUSH2 0x45E0 JUMP JUMPDEST SWAP1 SWAP9 SWAP1 SWAP8 POP SWAP6 POP POP POP POP POP POP JUMP JUMPDEST PUSH1 0x60 DUP1 PUSH2 0xF95 PUSH1 0x40 MLOAD DUP1 PUSH1 0xA0 ADD PUSH1 0x40 MSTORE DUP1 DUP8 PUSH1 0x1 PUSH1 0x1 PUSH1 0xA0 SHL SUB AND DUP2 MSTORE PUSH1 0x20 ADD DUP7 PUSH1 0x1 PUSH1 0x1 PUSH1 0xA0 SHL SUB AND DUP2 MSTORE PUSH1 0x20 ADD DUP9 PUSH1 0x40 MLOAD PUSH1 0x20 ADD PUSH2 0x27E7 SWAP2 SWAP1 PUSH2 0xA4D4 JUMP JUMPDEST PUSH1 0x40 MLOAD PUSH1 0x20 DUP2 DUP4 SUB SUB DUP2 MSTORE SWAP1 PUSH1 0x40 MSTORE DUP2 MSTORE PUSH1 0x20 ADD PUSH1 0x40 MLOAD DUP1 PUSH1 0x80 ADD PUSH1 0x40 MSTORE DUP1 DUP11 PUSH1 0x0 ADD MLOAD PUSH1 0x1 PUSH1 0x1 PUSH1 0xA0 SHL SUB AND DUP2 MSTORE PUSH1 0x20 ADD DUP11 PUSH1 0x20 ADD MLOAD PUSH1 0x1 PUSH1 0x1 PUSH1 0xE0 SHL SUB NOT AND DUP2 MSTORE PUSH1 0x20 ADD DUP11 PUSH1 0x60 ADD MLOAD PUSH1 0xF SIGNEXTEND DUP2 MSTORE PUSH1 0x20 ADD DUP11 PUSH1 0x40 ADD MLOAD PUSH1 0xF SIGNEXTEND DUP2 MSTORE POP PUSH1 0x40 MLOAD PUSH1 0x20 ADD PUSH2 0x2855 SWAP2 SWAP1 PUSH2 0xA4D4 JUMP JUMPDEST PUSH1 0x40 DUP1 MLOAD PUSH1 0x1F NOT DUP2 DUP5 SUB ADD DUP2 MSTORE SWAP2 DUP2 MSTORE SWAP1 DUP3 MSTORE ADDRESS PUSH1 0x20 SWAP1 DUP2 SHL PUSH4 0x8D201C22 OR SWAP1 SWAP2 SHL SWAP2 ADD MSTORE DUP5 PUSH2 0x45E0 JUMP JUMPDEST PUSH1 0x40 MLOAD PUSH4 0x50C8F051 PUSH1 0xE1 SHL DUP2 MSTORE PUSH1 0x60 SWAP1 DUP2 SWAP1 ADDRESS SWAP1 PUSH4 0xA191E0A2 SWAP1 PUSH2 0x28AE SWAP1 DUP10 SWAP1 DUP10 SWAP1 DUP10 SWAP1 DUP10 SWAP1 PUSH1 0x4 ADD PUSH2 0x9982 JUMP JUMPDEST PUSH1 0x0 PUSH1 0x40 MLOAD DUP1 DUP4 SUB DUP2 PUSH1 0x0 DUP8 DUP1 EXTCODESIZE ISZERO DUP1 ISZERO PUSH2 0x28C8 JUMPI PUSH1 0x0 DUP1 REVERT JUMPDEST POP GAS CALL ISZERO DUP1 ISZERO PUSH2 0x28DC JUMPI RETURNDATASIZE PUSH1 0x0 DUP1 RETURNDATACOPY RETURNDATASIZE PUSH1 0x0 REVERT JUMPDEST POP POP POP POP PUSH1 0x40 MLOAD RETURNDATASIZE PUSH1 0x0 DUP3 RETURNDATACOPY PUSH1 0x1F RETURNDATASIZE SWAP1 DUP2 ADD PUSH1 0x1F NOT AND DUP3 ADD PUSH1 0x40 MSTORE PUSH2 0x2904 SWAP2 SWAP1 DUP2 ADD SWAP1 PUSH2 0x8E58 JUMP JUMPDEST SWAP2 POP SWAP2 POP JUMPDEST SWAP5 POP SWAP5 SWAP3 POP POP POP JUMP JUMPDEST PUSH1 0x0 PUSH2 0x11D4 PUSH2 0x291F PUSH2 0x4CE9 JUMP JUMPDEST DUP7 DUP7 DUP6 DUP8 PUSH2 0x5D59 JUMP JUMPDEST PUSH1 0x60 DUP1 PUSH2 0xF95 PUSH1 0x40 MLOAD DUP1 PUSH1 0xA0 ADD PUSH1 0x40 MSTORE DUP1 DUP8 PUSH1 0x1 PUSH1 0x1 PUSH1 0xA0 SHL SUB AND DUP2 MSTORE PUSH1 0x20 ADD DUP7 PUSH1 0x1 PUSH1 0x1 PUSH1 0xA0 SHL SUB AND DUP2 MSTORE PUSH1 0x20 ADD DUP9 PUSH1 0x40 MLOAD PUSH1 0x20 ADD PUSH2 0x2968 SWAP2 SWAP1 PUSH2 0xA4B4 JUMP JUMPDEST PUSH1 0x40 MLOAD PUSH1 0x20 DUP2 DUP4 SUB SUB DUP2 MSTORE SWAP1 PUSH1 0x40 MSTORE DUP2 MSTORE PUSH1 0x20 ADD DUP9 PUSH1 0x40 MLOAD PUSH1 0x20 ADD PUSH2 0x298D SWAP2 SWAP1 PUSH2 0xA4B4 JUMP JUMPDEST PUSH1 0x40 DUP1 MLOAD PUSH1 0x1F NOT DUP2 DUP5 SUB ADD DUP2 MSTORE SWAP2 DUP2 MSTORE SWAP1 DUP3 MSTORE ADDRESS PUSH1 0x20 SWAP1 DUP2 SHL PUSH4 0x9AD732EF OR SWAP1 SWAP2 SHL SWAP2 ADD MSTORE DUP5 PUSH2 0x45E0 JUMP JUMPDEST PUSH20 0xEEEEEEEEEEEEEEEEEEEEEEEEEEEEEEEEEEEEEEEE DUP2 JUMP JUMPDEST PUSH2 0x29D8 PUSH2 0x810F JUMP JUMPDEST PUSH2 0x29E0 PUSH2 0x810F JUMP JUMPDEST PUSH1 0x0 DUP1 DUP1 JUMPDEST DUP8 MLOAD DUP2 EQ PUSH2 0x2AE5 JUMPI PUSH2 0x2A2C PUSH1 0x20 DUP10 DUP4 DUP2 MLOAD DUP2 LT PUSH2 0x29FE JUMPI INVALID JUMPDEST PUSH1 0x20 MUL PUSH1 0x20 ADD ADD MLOAD MLOAD SUB DUP8 DUP11 DUP5 DUP2 MLOAD DUP2 LT PUSH2 0x2A15 JUMPI INVALID JUMPDEST PUSH1 0x20 MUL PUSH1 0x20 ADD ADD MLOAD PUSH2 0x600F SWAP1 SWAP3 SWAP2 SWAP1 PUSH4 0xFFFFFFFF AND JUMP JUMPDEST PUSH1 0x0 PUSH1 0x60 ADDRESS PUSH1 0x1 PUSH1 0x1 PUSH1 0xA0 SHL SUB AND DUP11 DUP5 DUP2 MLOAD DUP2 LT PUSH2 0x2A46 JUMPI INVALID JUMPDEST PUSH1 0x20 MUL PUSH1 0x20 ADD ADD MLOAD PUSH1 0x40 MLOAD PUSH2 0x2A5B SWAP2 SWAP1 PUSH2 0x991F JUMP JUMPDEST PUSH1 0x0 PUSH1 0x40 MLOAD DUP1 DUP4 SUB DUP2 PUSH1 0x0 DUP7 GAS CALL SWAP2 POP POP RETURNDATASIZE DUP1 PUSH1 0x0 DUP2 EQ PUSH2 0x2A98 JUMPI PUSH1 0x40 MLOAD SWAP2 POP PUSH1 0x1F NOT PUSH1 0x3F RETURNDATASIZE ADD AND DUP3 ADD PUSH1 0x40 MSTORE RETURNDATASIZE DUP3 MSTORE RETURNDATASIZE PUSH1 0x0 PUSH1 0x20 DUP5 ADD RETURNDATACOPY PUSH2 0x2A9D JUMP JUMPDEST PUSH1 0x60 SWAP2 POP JUMPDEST POP SWAP2 POP SWAP2 POP DUP2 ISZERO PUSH2 0x2ADB JUMPI PUSH1 0x0 PUSH2 0x2AC1 PUSH1 0x20 DUP4 MLOAD SUB DUP4 PUSH2 0x601F SWAP1 SWAP2 SWAP1 PUSH4 0xFFFFFFFF AND JUMP JUMPDEST SWAP1 POP DUP6 DUP2 GT ISZERO PUSH2 0x2AD9 JUMPI DUP4 DUP9 MSTORE PUSH1 0x20 DUP9 ADD DUP3 SWAP1 MSTORE SWAP5 POP DUP5 JUMPDEST POP JUMPDEST POP POP PUSH1 0x1 ADD PUSH2 0x29E5 JUMP JUMPDEST POP DUP2 PUSH2 0x2AF0 JUMPI PUSH2 0x2BDE JUMP JUMPDEST PUSH1 0x0 JUMPDEST DUP7 MLOAD DUP2 EQ PUSH2 0x2BDC JUMPI PUSH2 0x2B23 PUSH1 0x20 DUP9 DUP4 DUP2 MLOAD DUP2 LT PUSH2 0x2B0C JUMPI INVALID JUMPDEST PUSH1 0x20 MUL PUSH1 0x20 ADD ADD MLOAD MLOAD SUB DUP5 DUP10 DUP5 DUP2 MLOAD DUP2 LT PUSH2 0x2A15 JUMPI INVALID JUMPDEST PUSH1 0x0 PUSH1 0x60 ADDRESS PUSH1 0x1 PUSH1 0x1 PUSH1 0xA0 SHL SUB AND DUP10 DUP5 DUP2 MLOAD DUP2 LT PUSH2 0x2B3D JUMPI INVALID JUMPDEST PUSH1 0x20 MUL PUSH1 0x20 ADD ADD MLOAD PUSH1 0x40 MLOAD PUSH2 0x2B52 SWAP2 SWAP1 PUSH2 0x991F JUMP JUMPDEST PUSH1 0x0 PUSH1 0x40 MLOAD DUP1 DUP4 SUB DUP2 PUSH1 0x0 DUP7 GAS CALL SWAP2 POP POP RETURNDATASIZE DUP1 PUSH1 0x0 DUP2 EQ PUSH2 0x2B8F JUMPI PUSH1 0x40 MLOAD SWAP2 POP PUSH1 0x1F NOT PUSH1 0x3F RETURNDATASIZE ADD AND DUP3 ADD PUSH1 0x40 MSTORE RETURNDATASIZE DUP3 MSTORE RETURNDATASIZE PUSH1 0x0 PUSH1 0x20 DUP5 ADD RETURNDATACOPY PUSH2 0x2B94 JUMP JUMPDEST PUSH1 0x60 SWAP2 POP JUMPDEST POP SWAP2 POP SWAP2 POP DUP2 ISZERO PUSH2 0x2BD2 JUMPI PUSH1 0x0 PUSH2 0x2BB8 PUSH1 0x20 DUP4 MLOAD SUB DUP4 PUSH2 0x601F SWAP1 SWAP2 SWAP1 PUSH4 0xFFFFFFFF AND JUMP JUMPDEST SWAP1 POP DUP5 DUP2 GT ISZERO PUSH2 0x2BD0 JUMPI DUP4 DUP8 MSTORE PUSH1 0x20 DUP8 ADD DUP3 SWAP1 MSTORE SWAP4 POP DUP4 JUMPDEST POP JUMPDEST POP POP PUSH1 0x1 ADD PUSH2 0x2AF3 JUMP JUMPDEST POP JUMPDEST SWAP4 POP SWAP4 POP SWAP4 POP SWAP4 JUMP JUMPDEST PUSH1 0x0 PUSH2 0x11D4 DUP5 DUP4 DUP6 PUSH2 0x602B JUMP JUMPDEST PUSH1 0x60 DUP1 PUSH2 0xF95 PUSH1 0x40 MLOAD DUP1 PUSH1 0x80 ADD PUSH1 0x40 MSTORE DUP1 DUP8 PUSH1 0x1 PUSH1 0x1 PUSH1 0xA0 SHL SUB AND DUP2 MSTORE PUSH1 0x20 ADD DUP7 PUSH1 0x1 PUSH1 0x1 PUSH1 0xA0 SHL SUB AND DUP2 MSTORE PUSH1 0x20 ADD DUP9 PUSH1 0x40 MLOAD PUSH1 0x20 ADD PUSH2 0x2C34 SWAP2 SWAP1 PUSH2 0x993B JUMP JUMPDEST PUSH1 0x40 DUP1 MLOAD PUSH1 0x1F NOT DUP2 DUP5 SUB ADD DUP2 MSTORE SWAP2 DUP2 MSTORE SWAP1 DUP3 MSTORE ADDRESS PUSH1 0x20 SWAP1 DUP2 SHL PUSH4 0x7280BFFF OR SWAP1 SWAP2 SHL SWAP2 ADD MSTORE DUP5 PUSH2 0x450F JUMP JUMPDEST PUSH1 0x0 PUSH2 0x11D4 PUSH2 0x2C6C PUSH2 0x4CE9 JUMP JUMPDEST DUP7 DUP7 DUP6 DUP8 PUSH2 0x617C JUMP JUMPDEST PUSH1 0x0 PUSH2 0x11D4 DUP6 DUP6 DUP5 DUP7 PUSH2 0x6348 JUMP JUMPDEST PUSH1 0x0 DUP1 DUP4 MLOAD PUSH1 0x3 DUP2 GT ISZERO PUSH2 0x2C93 JUMPI INVALID JUMPDEST EQ DUP1 PUSH2 0x2CAB JUMPI POP PUSH1 0x1 DUP4 MLOAD PUSH1 0x3 DUP2 GT ISZERO PUSH2 0x2CA9 JUMPI INVALID JUMPDEST EQ JUMPDEST DUP1 PUSH2 0x2CC1 JUMPI POP PUSH1 0x40 DUP5 ADD MLOAD PUSH1 0x1 PUSH1 0x1 PUSH1 0x80 SHL SUB AND ISZERO JUMPDEST DUP1 PUSH2 0x2CD7 JUMPI POP PUSH1 0x60 DUP5 ADD MLOAD PUSH1 0x1 PUSH1 0x1 PUSH1 0x80 SHL SUB AND ISZERO JUMPDEST ISZERO PUSH2 0x2CE4 JUMPI POP PUSH1 0x0 PUSH2 0x2DC3 JUMP JUMPDEST PUSH2 0x2CEC PUSH2 0x8129 JUMP JUMPDEST PUSH1 0x0 DUP1 DUP5 PUSH1 0x1 PUSH1 0x1 PUSH1 0xA0 SHL SUB AND PUSH4 0x1FB09795 DUP9 DUP9 PUSH1 0x40 MLOAD DUP4 PUSH4 0xFFFFFFFF AND PUSH1 0xE0 SHL DUP2 MSTORE PUSH1 0x4 ADD PUSH2 0x2D1D SWAP3 SWAP2 SWAP1 PUSH2 0xA61E JUMP JUMPDEST PUSH1 0xA0 PUSH1 0x40 MLOAD DUP1 DUP4 SUB DUP2 DUP7 DUP1 EXTCODESIZE ISZERO DUP1 ISZERO PUSH2 0x2D35 JUMPI PUSH1 0x0 DUP1 REVERT JUMPDEST POP GAS STATICCALL ISZERO DUP1 ISZERO PUSH2 0x2D49 JUMPI RETURNDATASIZE PUSH1 0x0 DUP1 RETURNDATACOPY RETURNDATASIZE PUSH1 0x0 REVERT JUMPDEST POP POP POP POP PUSH1 0x40 MLOAD RETURNDATASIZE PUSH1 0x1F NOT PUSH1 0x1F DUP3 ADD AND DUP3 ADD DUP1 PUSH1 0x40 MSTORE POP DUP2 ADD SWAP1 PUSH2 0x2D6D SWAP2 SWAP1 PUSH2 0x95D8 JUMP JUMPDEST SWAP2 SWAP5 POP SWAP3 POP SWAP1 POP PUSH1 0x1 DUP4 PUSH1 0x20 ADD MLOAD PUSH1 0x4 DUP2 GT ISZERO PUSH2 0x2D86 JUMPI INVALID JUMPDEST EQ ISZERO DUP1 PUSH2 0x2D91 JUMPI POP DUP1 ISZERO JUMPDEST DUP1 PUSH2 0x2DA4 JUMPI POP DUP7 MLOAD PUSH1 0x1 PUSH1 0x1 PUSH1 0xA0 SHL SUB AND ISZERO JUMPDEST ISZERO PUSH2 0x2DB5 JUMPI PUSH1 0x0 SWAP4 POP POP POP POP PUSH2 0x2DC3 JUMP JUMPDEST POP PUSH1 0x1 PUSH1 0x1 PUSH1 0x80 SHL SUB AND SWAP2 POP POP JUMPDEST SWAP4 SWAP3 POP POP POP JUMP JUMPDEST PUSH1 0x0 PUSH1 0x60 DUP1 PUSH1 0x60 PUSH2 0x2DDC DUP9 DUP9 DUP9 PUSH2 0x649C JUMP JUMPDEST SWAP4 POP DUP4 PUSH2 0x2DE8 JUMPI PUSH2 0x11B3 JUMP JUMPDEST PUSH1 0x40 MLOAD PUSH4 0x276FDAD9 PUSH1 0xE1 SHL DUP2 MSTORE ADDRESS SWAP1 PUSH4 0x4EDFB5B2 SWAP1 PUSH2 0x2E11 SWAP1 DUP12 SWAP1 DUP9 SWAP1 DUP13 SWAP1 DUP13 SWAP1 PUSH1 0x4 ADD PUSH2 0xA5A9 JUMP JUMPDEST PUSH1 0x0 PUSH1 0x40 MLOAD DUP1 DUP4 SUB DUP2 DUP7 DUP1 EXTCODESIZE ISZERO DUP1 ISZERO PUSH2 0x2E29 JUMPI PUSH1 0x0 DUP1 REVERT JUMPDEST POP GAS STATICCALL ISZERO DUP1 ISZERO PUSH2 0x2E3D JUMPI RETURNDATASIZE PUSH1 0x0 DUP1 RETURNDATACOPY RETURNDATASIZE PUSH1 0x0 REVERT JUMPDEST POP POP POP POP PUSH1 0x40 MLOAD RETURNDATASIZE PUSH1 0x0 DUP3 RETURNDATACOPY PUSH1 0x1F RETURNDATASIZE SWAP1 DUP2 ADD PUSH1 0x1F NOT AND DUP3 ADD PUSH1 0x40 MSTORE PUSH2 0x2E65 SWAP2 SWAP1 DUP2 ADD SWAP1 PUSH2 0x8FD5 JUMP JUMPDEST DUP9 PUSH1 0x80 ADD DUP2 SWAP1 MSTORE POP DUP8 PUSH1 0x80 ADD MLOAD SWAP3 POP PUSH2 0x11AD PUSH1 0x40 MLOAD DUP1 PUSH1 0xA0 ADD PUSH1 0x40 MSTORE DUP1 DUP10 PUSH1 0x1 PUSH1 0x1 PUSH1 0xA0 SHL SUB AND DUP2 MSTORE PUSH1 0x20 ADD DUP9 PUSH1 0x1 PUSH1 0x1 PUSH1 0xA0 SHL SUB AND DUP2 MSTORE PUSH1 0x20 ADD DUP11 PUSH1 0x40 ADD MLOAD DUP7 PUSH1 0x40 MLOAD PUSH1 0x20 ADD PUSH2 0x2EB7 SWAP3 SWAP2 SWAP1 PUSH2 0x9B64 JUMP JUMPDEST PUSH1 0x40 MLOAD PUSH1 0x20 DUP2 DUP4 SUB SUB DUP2 MSTORE SWAP1 PUSH1 0x40 MSTORE DUP2 MSTORE PUSH1 0x20 ADD DUP11 PUSH1 0x40 ADD MLOAD DUP7 PUSH1 0x40 MLOAD PUSH1 0x20 ADD PUSH2 0x2EE2 SWAP3 SWAP2 SWAP1 PUSH2 0x9B64 JUMP JUMPDEST PUSH1 0x40 DUP1 MLOAD PUSH1 0x1F NOT DUP2 DUP5 SUB ADD DUP2 MSTORE SWAP2 DUP2 MSTORE SWAP1 DUP3 MSTORE ADDRESS PUSH1 0x20 SWAP1 DUP2 SHL PUSH4 0xA095A036 OR SWAP1 SWAP2 SHL SWAP2 ADD MSTORE DUP7 PUSH2 0x45E0 JUMP JUMPDEST PUSH1 0x0 PUSH2 0x11D4 PUSH20 0xEEEEEEEEEEEEEEEEEEEEEEEEEEEEEEEEEEEEEEEE PUSH2 0x2F2F PUSH2 0x4CE9 JUMP JUMPDEST DUP8 DUP8 DUP7 DUP9 PUSH2 0x660C JUMP JUMPDEST PUSH1 0x60 DUP1 PUSH2 0xF95 PUSH1 0x40 MLOAD DUP1 PUSH1 0x80 ADD PUSH1 0x40 MSTORE DUP1 DUP8 PUSH1 0x1 PUSH1 0x1 PUSH1 0xA0 SHL SUB AND DUP2 MSTORE PUSH1 0x20 ADD DUP7 PUSH1 0x1 PUSH1 0x1 PUSH1 0xA0 SHL SUB AND DUP2 MSTORE PUSH1 0x20 ADD DUP9 PUSH1 0x40 MLOAD PUSH1 0x20 ADD PUSH2 0x2F78 SWAP2 SWAP1 PUSH2 0x993B JUMP JUMPDEST PUSH1 0x40 DUP1 MLOAD PUSH1 0x1F NOT DUP2 DUP5 SUB ADD DUP2 MSTORE SWAP2 DUP2 MSTORE SWAP1 DUP3 MSTORE ADDRESS PUSH1 0x20 SWAP1 DUP2 SHL PUSH4 0x9914377D OR SWAP1 SWAP2 SHL SWAP2 ADD MSTORE DUP5 PUSH2 0x450F JUMP JUMPDEST PUSH1 0x60 DUP1 PUSH1 0x60 PUSH2 0x2799 PUSH1 0x40 MLOAD DUP1 PUSH1 0x80 ADD PUSH1 0x40 MSTORE DUP1 DUP9 PUSH1 0x1 PUSH1 0x1 PUSH1 0xA0 SHL SUB AND DUP2 MSTORE PUSH1 0x20 ADD DUP8 PUSH1 0x1 PUSH1 0x1 PUSH1 0xA0 SHL SUB AND DUP2 MSTORE PUSH1 0x20 ADD DUP10 DUP5 PUSH1 0x40 MLOAD PUSH1 0x20 ADD PUSH2 0x2FE7 SWAP3 SWAP2 SWAP1 PUSH2 0x9B64 JUMP JUMPDEST PUSH1 0x40 DUP1 MLOAD PUSH1 0x1F NOT DUP2 DUP5 SUB ADD DUP2 MSTORE SWAP2 DUP2 MSTORE SWAP1 DUP3 MSTORE ADDRESS PUSH1 0x20 SWAP1 DUP2 SHL PUSH4 0xD31B0A8A OR SWAP1 SWAP2 SHL SWAP2 ADD MSTORE DUP6 PUSH2 0x450F JUMP JUMPDEST PUSH1 0x0 DUP1 PUSH1 0x60 DUP1 PUSH2 0x3024 DUP10 DUP10 DUP10 DUP10 PUSH2 0x680E JUMP JUMPDEST SWAP5 POP SWAP3 POP PUSH1 0x1 PUSH1 0x1 PUSH1 0xA0 SHL SUB DUP4 AND PUSH2 0x303B JUMPI PUSH2 0x30AB JUMP JUMPDEST PUSH2 0x30A5 PUSH1 0x40 MLOAD DUP1 PUSH1 0x80 ADD PUSH1 0x40 MSTORE DUP1 DUP10 PUSH1 0x1 PUSH1 0x1 PUSH1 0xA0 SHL SUB AND DUP2 MSTORE PUSH1 0x20 ADD DUP9 PUSH1 0x1 PUSH1 0x1 PUSH1 0xA0 SHL SUB AND DUP2 MSTORE PUSH1 0x20 ADD DUP6 DUP8 PUSH1 0x40 MLOAD PUSH1 0x20 ADD PUSH2 0x307A SWAP3 SWAP2 SWAP1 PUSH2 0x9B49 JUMP JUMPDEST PUSH1 0x40 DUP1 MLOAD PUSH1 0x1F NOT DUP2 DUP5 SUB ADD DUP2 MSTORE SWAP2 DUP2 MSTORE SWAP1 DUP3 MSTORE ADDRESS PUSH1 0x20 SWAP1 DUP2 SHL PUSH4 0xF573C161 OR SWAP1 SWAP2 SHL SWAP2 ADD MSTORE DUP7 PUSH2 0x450F JUMP JUMPDEST SWAP1 SWAP3 POP SWAP1 POP JUMPDEST SWAP6 POP SWAP6 POP SWAP6 POP SWAP6 SWAP2 POP POP JUMP JUMPDEST PUSH1 0x60 DUP1 PUSH2 0xF95 PUSH1 0x40 MLOAD DUP1 PUSH1 0x80 ADD PUSH1 0x40 MSTORE DUP1 DUP8 PUSH1 0x1 PUSH1 0x1 PUSH1 0xA0 SHL SUB AND DUP2 MSTORE PUSH1 0x20 ADD DUP7 PUSH1 0x1 PUSH1 0x1 PUSH1 0xA0 SHL SUB AND DUP2 MSTORE PUSH1 0x20 ADD DUP9 PUSH1 0x40 MLOAD PUSH1 0x20 ADD PUSH2 0x30F7 SWAP2 SWAP1 PUSH2 0x993B JUMP JUMPDEST PUSH1 0x40 DUP1 MLOAD PUSH1 0x1F NOT DUP2 DUP5 SUB ADD DUP2 MSTORE SWAP2 DUP2 MSTORE SWAP1 DUP3 MSTORE ADDRESS PUSH1 0x20 SWAP1 DUP2 SHL PUSH4 0x5C71CBE7 OR SWAP1 SWAP2 SHL SWAP2 ADD MSTORE DUP5 PUSH2 0x450F JUMP JUMPDEST PUSH1 0x0 PUSH2 0x11D4 PUSH2 0x312F PUSH2 0x4CE9 JUMP JUMPDEST DUP6 DUP5 DUP7 PUSH2 0x6963 JUMP JUMPDEST PUSH1 0x0 PUSH1 0x60 DUP1 PUSH2 0x3147 DUP8 DUP8 DUP8 PUSH2 0x6C4C JUMP JUMPDEST SWAP3 POP PUSH1 0x1 PUSH1 0x1 PUSH1 0xA0 SHL SUB DUP4 AND PUSH2 0x315C JUMPI PUSH2 0x31CA JUMP JUMPDEST PUSH2 0x31C4 PUSH1 0x40 MLOAD DUP1 PUSH1 0x80 ADD PUSH1 0x40 MSTORE DUP1 DUP9 PUSH1 0x1 PUSH1 0x1 PUSH1 0xA0 SHL SUB AND DUP2 MSTORE PUSH1 0x20 ADD DUP8 PUSH1 0x1 PUSH1 0x1 PUSH1 0xA0 SHL SUB AND DUP2 MSTORE PUSH1 0x20 ADD DUP6 PUSH1 0x40 MLOAD PUSH1 0x20 ADD PUSH2 0x3199 SWAP2 SWAP1 PUSH2 0x993B JUMP JUMPDEST PUSH1 0x40 DUP1 MLOAD PUSH1 0x1F NOT DUP2 DUP5 SUB ADD DUP2 MSTORE SWAP2 DUP2 MSTORE SWAP1 DUP3 MSTORE ADDRESS PUSH1 0x20 SWAP1 DUP2 SHL PUSH4 0x15DE17DE OR SWAP1 SWAP2 SHL SWAP2 ADD MSTORE DUP6 PUSH2 0x450F JUMP JUMPDEST SWAP1 SWAP3 POP SWAP1 POP JUMPDEST SWAP5 POP SWAP5 POP SWAP5 SWAP2 POP POP JUMP JUMPDEST PUSH1 0x0 PUSH2 0x11D4 PUSH2 0x31E1 PUSH2 0x4CE9 JUMP JUMPDEST DUP7 DUP7 DUP6 DUP8 PUSH2 0x6D2B JUMP JUMPDEST PUSH1 0x60 DUP1 PUSH2 0xF95 PUSH1 0x40 MLOAD DUP1 PUSH1 0xA0 ADD PUSH1 0x40 MSTORE DUP1 DUP8 PUSH1 0x1 PUSH1 0x1 PUSH1 0xA0 SHL SUB AND DUP2 MSTORE PUSH1 0x20 ADD DUP7 PUSH1 0x1 PUSH1 0x1 PUSH1 0xA0 SHL SUB AND DUP2 MSTORE PUSH1 0x20 ADD DUP9 PUSH1 0x40 MLOAD PUSH1 0x20 ADD PUSH2 0x322A SWAP2 SWAP1 PUSH2 0x993B JUMP JUMPDEST PUSH1 0x40 MLOAD PUSH1 0x20 DUP2 DUP4 SUB SUB DUP2 MSTORE SWAP1 PUSH1 0x40 MSTORE DUP2 MSTORE PUSH1 0x20 ADD DUP9 PUSH1 0x40 MLOAD PUSH1 0x20 ADD PUSH2 0x324F SWAP2 SWAP1 PUSH2 0x993B JUMP JUMPDEST PUSH1 0x40 DUP1 MLOAD PUSH1 0x1F NOT DUP2 DUP5 SUB ADD DUP2 MSTORE SWAP2 DUP2 MSTORE SWAP1 DUP3 MSTORE ADDRESS PUSH1 0x20 SWAP1 DUP2 SHL PUSH4 0xD3CDC04D OR SWAP1 SWAP2 SHL SWAP2 ADD MSTORE DUP5 PUSH2 0x45E0 JUMP JUMPDEST PUSH1 0x60 DUP1 PUSH2 0xF95 PUSH1 0x40 MLOAD DUP1 PUSH1 0x80 ADD PUSH1 0x40 MSTORE DUP1 DUP8 PUSH1 0x1 PUSH1 0x1 PUSH1 0xA0 SHL SUB AND DUP2 MSTORE PUSH1 0x20 ADD DUP7 PUSH1 0x1 PUSH1 0x1 PUSH1 0xA0 SHL SUB AND DUP2 MSTORE PUSH1 0x20 ADD DUP9 PUSH1 0x40 MLOAD PUSH1 0x20 ADD PUSH2 0x32BA SWAP2 SWAP1 PUSH2 0xA4B4 JUMP JUMPDEST PUSH1 0x40 DUP1 MLOAD PUSH1 0x1F NOT DUP2 DUP5 SUB ADD DUP2 MSTORE SWAP2 DUP2 MSTORE SWAP1 DUP3 MSTORE ADDRESS PUSH1 0x20 SWAP1 DUP2 SHL PUSH4 0x9AD732EF OR SWAP1 SWAP2 SHL SWAP2 ADD MSTORE DUP5 PUSH2 0x450F JUMP JUMPDEST PUSH1 0x60 DUP3 MLOAD PUSH1 0x1 PUSH1 0x1 PUSH1 0x40 SHL SUB DUP2 GT DUP1 ISZERO PUSH2 0x32FE JUMPI PUSH1 0x0 DUP1 REVERT JUMPDEST POP PUSH1 0x40 MLOAD SWAP1 DUP1 DUP3 MSTORE DUP1 PUSH1 0x20 MUL PUSH1 0x20 ADD DUP3 ADD PUSH1 0x40 MSTORE DUP1 ISZERO PUSH2 0x3328 JUMPI DUP2 PUSH1 0x20 ADD PUSH1 0x20 DUP3 MUL DUP1 CALLDATASIZE DUP4 CALLDATACOPY ADD SWAP1 POP JUMPDEST POP SWAP1 POP PUSH1 0x0 JUMPDEST DUP4 MLOAD DUP2 EQ PUSH2 0x20BE JUMPI PUSH32 0x0 PUSH1 0x1 PUSH1 0x1 PUSH1 0xA0 SHL SUB AND DUP5 DUP3 DUP2 MLOAD DUP2 LT PUSH2 0x336C JUMPI INVALID JUMPDEST PUSH1 0x20 MUL PUSH1 0x20 ADD ADD MLOAD PUSH1 0x1 PUSH1 0x1 PUSH1 0xA0 SHL SUB AND EQ PUSH2 0x33B6 JUMPI PUSH2 0x33B1 DUP4 DUP6 DUP4 DUP2 MLOAD DUP2 LT PUSH2 0x3392 JUMPI INVALID JUMPDEST PUSH1 0x20 MUL PUSH1 0x20 ADD ADD MLOAD PUSH1 0x1 PUSH1 0x1 PUSH1 0xA0 SHL SUB AND PUSH2 0x6FAD SWAP1 SWAP2 SWAP1 PUSH4 0xFFFFFFFF AND JUMP JUMPDEST PUSH2 0x33C2 JUMP JUMPDEST DUP3 PUSH1 0x1 PUSH1 0x1 PUSH1 0xA0 SHL SUB AND BALANCE JUMPDEST DUP3 DUP3 DUP2 MLOAD DUP2 LT PUSH2 0x33CE JUMPI INVALID JUMPDEST PUSH1 0x20 SWAP1 DUP2 MUL SWAP2 SWAP1 SWAP2 ADD ADD MSTORE PUSH1 0x1 ADD PUSH2 0x332E JUMP JUMPDEST PUSH1 0x60 DUP1 PUSH2 0xF95 PUSH1 0x40 MLOAD DUP1 PUSH1 0x80 ADD PUSH1 0x40 MSTORE DUP1 DUP8 PUSH1 0x1 PUSH1 0x1 PUSH1 0xA0 SHL SUB AND DUP2 MSTORE PUSH1 0x20 ADD DUP7 PUSH1 0x1 PUSH1 0x1 PUSH1 0xA0 SHL SUB AND DUP2 MSTORE PUSH1 0x20 ADD DUP9 PUSH1 0x40 MLOAD PUSH1 0x20 ADD PUSH2 0x3421 SWAP2 SWAP1 PUSH2 0xA4D4 JUMP JUMPDEST PUSH1 0x40 DUP1 MLOAD PUSH1 0x1F NOT DUP2 DUP5 SUB ADD DUP2 MSTORE SWAP2 DUP2 MSTORE SWAP1 DUP3 MSTORE ADDRESS PUSH1 0x20 SWAP1 DUP2 SHL PUSH4 0x8D201C22 OR SWAP1 SWAP2 SHL SWAP2 ADD MSTORE DUP5 PUSH2 0x450F JUMP JUMPDEST PUSH1 0x60 DUP1 PUSH1 0x60 PUSH2 0x2799 PUSH1 0x40 MLOAD DUP1 PUSH1 0xA0 ADD PUSH1 0x40 MSTORE DUP1 DUP9 PUSH1 0x1 PUSH1 0x1 PUSH1 0xA0 SHL SUB AND DUP2 MSTORE PUSH1 0x20 ADD DUP8 PUSH1 0x1 PUSH1 0x1 PUSH1 0xA0 SHL SUB AND DUP2 MSTORE PUSH1 0x20 ADD DUP10 DUP5 PUSH1 0x40 MLOAD PUSH1 0x20 ADD PUSH2 0x3490 SWAP3 SWAP2 SWAP1 PUSH2 0x9B64 JUMP JUMPDEST PUSH1 0x40 MLOAD PUSH1 0x20 DUP2 DUP4 SUB SUB DUP2 MSTORE SWAP1 PUSH1 0x40 MSTORE DUP2 MSTORE PUSH1 0x20 ADD DUP10 DUP5 PUSH1 0x40 MLOAD PUSH1 0x20 ADD PUSH2 0x34B7 SWAP3 SWAP2 SWAP1 PUSH2 0x9B64 JUMP JUMPDEST PUSH1 0x40 DUP1 MLOAD PUSH1 0x1F NOT DUP2 DUP5 SUB ADD DUP2 MSTORE SWAP2 DUP2 MSTORE SWAP1 DUP3 MSTORE ADDRESS PUSH1 0x20 SWAP1 DUP2 SHL PUSH4 0xD31B0A8A OR SWAP1 SWAP2 SHL SWAP2 ADD MSTORE DUP6 PUSH2 0x45E0 JUMP JUMPDEST PUSH1 0x0 PUSH2 0x11D4 DUP6 DUP6 DUP5 DUP7 PUSH2 0x7080 JUMP JUMPDEST PUSH1 0x60 DUP1 PUSH2 0xF95 PUSH1 0x40 MLOAD DUP1 PUSH1 0x80 ADD PUSH1 0x40 MSTORE DUP1 DUP8 PUSH1 0x1 PUSH1 0x1 PUSH1 0xA0 SHL SUB AND DUP2 MSTORE PUSH1 0x20 ADD DUP7 PUSH1 0x1 PUSH1 0x1 PUSH1 0xA0 SHL SUB AND DUP2 MSTORE PUSH1 0x20 ADD DUP9 PUSH1 0x40 MLOAD PUSH1 0x20 ADD PUSH2 0x3530 SWAP2 SWAP1 PUSH2 0x993B JUMP JUMPDEST PUSH1 0x40 DUP1 MLOAD PUSH1 0x1F NOT DUP2 DUP5 SUB ADD DUP2 MSTORE SWAP2 DUP2 MSTORE SWAP1 DUP3 MSTORE ADDRESS PUSH1 0x20 SWAP1 DUP2 SHL PUSH4 0xB770F849 OR SWAP1 SWAP2 SHL SWAP2 ADD MSTORE DUP5 PUSH2 0x450F JUMP JUMPDEST PUSH1 0x60 DUP1 PUSH1 0x60 DUP5 MLOAD PUSH1 0x1 PUSH1 0x1 PUSH1 0x40 SHL SUB DUP2 GT DUP1 ISZERO PUSH2 0x3577 JUMPI PUSH1 0x0 DUP1 REVERT JUMPDEST POP PUSH1 0x40 MLOAD SWAP1 DUP1 DUP3 MSTORE DUP1 PUSH1 0x20 MUL PUSH1 0x20 ADD DUP3 ADD PUSH1 0x40 MSTORE DUP1 ISZERO PUSH2 0x35A1 JUMPI DUP2 PUSH1 0x20 ADD PUSH1 0x20 DUP3 MUL DUP1 CALLDATASIZE DUP4 CALLDATACOPY ADD SWAP1 POP JUMPDEST POP SWAP1 POP PUSH1 0x0 JUMPDEST DUP6 MLOAD DUP2 LT ISZERO PUSH2 0x35F6 JUMPI DUP6 PUSH1 0x1 DUP3 DUP9 MLOAD SUB SUB DUP2 MLOAD DUP2 LT PUSH2 0x35C2 JUMPI INVALID JUMPDEST PUSH1 0x20 MUL PUSH1 0x20 ADD ADD MLOAD DUP3 DUP3 DUP2 MLOAD DUP2 LT PUSH2 0x35D6 JUMPI INVALID JUMPDEST PUSH1 0x1 PUSH1 0x1 PUSH1 0xA0 SHL SUB SWAP1 SWAP3 AND PUSH1 0x20 SWAP3 DUP4 MUL SWAP2 SWAP1 SWAP2 ADD SWAP1 SWAP2 ADD MSTORE PUSH1 0x1 ADD PUSH2 0x35A7 JUMP JUMPDEST POP PUSH2 0xF95 PUSH1 0x40 MLOAD DUP1 PUSH1 0xA0 ADD PUSH1 0x40 MSTORE DUP1 DUP8 PUSH1 0x0 DUP2 MLOAD DUP2 LT PUSH2 0x3612 JUMPI INVALID JUMPDEST PUSH1 0x20 MUL PUSH1 0x20 ADD ADD MLOAD PUSH1 0x1 PUSH1 0x1 PUSH1 0xA0 SHL SUB AND DUP2 MSTORE PUSH1 0x20 ADD DUP8 PUSH1 0x1 DUP10 MLOAD SUB DUP2 MLOAD DUP2 LT PUSH2 0x3638 JUMPI INVALID JUMPDEST PUSH1 0x20 MUL PUSH1 0x20 ADD ADD MLOAD PUSH1 0x1 PUSH1 0x1 PUSH1 0xA0 SHL SUB AND DUP2 MSTORE PUSH1 0x20 ADD DUP9 DUP9 PUSH1 0x40 MLOAD PUSH1 0x20 ADD PUSH2 0x3661 SWAP3 SWAP2 SWAP1 PUSH2 0x9A6F JUMP JUMPDEST PUSH1 0x40 MLOAD PUSH1 0x20 DUP2 DUP4 SUB SUB DUP2 MSTORE SWAP1 PUSH1 0x40 MSTORE DUP2 MSTORE PUSH1 0x20 ADD DUP9 DUP5 PUSH1 0x40 MLOAD PUSH1 0x20 ADD PUSH2 0x3688 SWAP3 SWAP2 SWAP1 PUSH2 0x9A6F JUMP JUMPDEST PUSH1 0x40 DUP1 MLOAD PUSH1 0x1F NOT DUP2 DUP5 SUB ADD DUP2 MSTORE SWAP2 DUP2 MSTORE SWAP1 DUP3 MSTORE ADDRESS PUSH1 0x20 SWAP1 DUP2 SHL PUSH4 0x8EFFA9EA OR SWAP1 SWAP2 SHL SWAP2 ADD MSTORE DUP6 PUSH2 0x45E0 JUMP JUMPDEST PUSH1 0x60 DUP1 PUSH2 0xF95 PUSH1 0x40 MLOAD DUP1 PUSH1 0xA0 ADD PUSH1 0x40 MSTORE DUP1 DUP8 PUSH1 0x1 PUSH1 0x1 PUSH1 0xA0 SHL SUB AND DUP2 MSTORE PUSH1 0x20 ADD DUP7 PUSH1 0x1 PUSH1 0x1 PUSH1 0xA0 SHL SUB AND DUP2 MSTORE PUSH1 0x20 ADD DUP9 PUSH1 0x40 MLOAD PUSH1 0x20 ADD PUSH2 0x36F3 SWAP2 SWAP1 PUSH2 0x993B JUMP JUMPDEST PUSH1 0x40 MLOAD PUSH1 0x20 DUP2 DUP4 SUB SUB DUP2 MSTORE SWAP1 PUSH1 0x40 MSTORE DUP2 MSTORE PUSH1 0x20 ADD DUP9 PUSH1 0x40 MLOAD PUSH1 0x20 ADD PUSH2 0x3718 SWAP2 SWAP1 PUSH2 0x993B JUMP JUMPDEST PUSH1 0x40 DUP1 MLOAD PUSH1 0x1F NOT DUP2 DUP5 SUB ADD DUP2 MSTORE SWAP2 DUP2 MSTORE SWAP1 DUP3 MSTORE ADDRESS PUSH1 0x20 SWAP1 DUP2 SHL PUSH4 0x5C71CBE7 OR SWAP1 SWAP2 SHL SWAP2 ADD MSTORE DUP5 PUSH2 0x45E0 JUMP JUMPDEST PUSH1 0x0 PUSH1 0x60 DUP1 PUSH1 0x60 PUSH2 0x3755 DUP9 DUP9 DUP9 PUSH2 0x649C JUMP JUMPDEST SWAP4 POP DUP4 PUSH2 0x3761 JUMPI PUSH2 0x11B3 JUMP JUMPDEST PUSH1 0x40 MLOAD PUSH4 0x276FDAD9 PUSH1 0xE1 SHL DUP2 MSTORE ADDRESS SWAP1 PUSH4 0x4EDFB5B2 SWAP1 PUSH2 0x378A SWAP1 DUP12 SWAP1 DUP9 SWAP1 DUP13 SWAP1 DUP13 SWAP1 PUSH1 0x4 ADD PUSH2 0xA5A9 JUMP JUMPDEST PUSH1 0x0 PUSH1 0x40 MLOAD DUP1 DUP4 SUB DUP2 DUP7 DUP1 EXTCODESIZE ISZERO DUP1 ISZERO PUSH2 0x37A2 JUMPI PUSH1 0x0 DUP1 REVERT JUMPDEST POP GAS STATICCALL ISZERO DUP1 ISZERO PUSH2 0x37B6 JUMPI RETURNDATASIZE PUSH1 0x0 DUP1 RETURNDATACOPY RETURNDATASIZE PUSH1 0x0 REVERT JUMPDEST POP POP POP POP PUSH1 0x40 MLOAD RETURNDATASIZE PUSH1 0x0 DUP3 RETURNDATACOPY PUSH1 0x1F RETURNDATASIZE SWAP1 DUP2 ADD PUSH1 0x1F NOT AND DUP3 ADD PUSH1 0x40 MSTORE PUSH2 0x37DE SWAP2 SWAP1 DUP2 ADD SWAP1 PUSH2 0x8FD5 JUMP JUMPDEST DUP9 PUSH1 0x80 ADD DUP2 SWAP1 MSTORE POP DUP8 PUSH1 0x80 ADD MLOAD SWAP3 POP PUSH2 0x11AD PUSH1 0x40 MLOAD DUP1 PUSH1 0x80 ADD PUSH1 0x40 MSTORE DUP1 DUP10 PUSH1 0x1 PUSH1 0x1 PUSH1 0xA0 SHL SUB AND DUP2 MSTORE PUSH1 0x20 ADD DUP9 PUSH1 0x1 PUSH1 0x1 PUSH1 0xA0 SHL SUB AND DUP2 MSTORE PUSH1 0x20 ADD DUP11 PUSH1 0x40 ADD MLOAD DUP7 PUSH1 0x40 MLOAD PUSH1 0x20 ADD PUSH2 0x3830 SWAP3 SWAP2 SWAP1 PUSH2 0x9B64 JUMP JUMPDEST PUSH1 0x40 DUP1 MLOAD PUSH1 0x1F NOT DUP2 DUP5 SUB ADD DUP2 MSTORE SWAP2 DUP2 MSTORE SWAP1 DUP3 MSTORE ADDRESS PUSH1 0x20 SWAP1 DUP2 SHL PUSH4 0xA095A036 OR SWAP1 SWAP2 SHL SWAP2 ADD MSTORE DUP7 PUSH2 0x450F JUMP JUMPDEST PUSH1 0x0 PUSH2 0x11D4 DUP6 DUP4 DUP6 PUSH2 0x7404 JUMP JUMPDEST PUSH1 0x0 PUSH2 0x11D4 DUP6 DUP6 DUP5 DUP7 PUSH2 0x75F2 JUMP JUMPDEST PUSH1 0x0 PUSH2 0x11D4 DUP6 DUP6 DUP5 DUP7 PUSH2 0x76B6 JUMP JUMPDEST PUSH1 0x0 DUP1 PUSH1 0x60 DUP1 PUSH2 0x3896 DUP10 DUP10 DUP10 DUP10 PUSH2 0x680E JUMP JUMPDEST SWAP5 POP SWAP3 POP PUSH1 0x1 PUSH1 0x1 PUSH1 0xA0 SHL SUB DUP4 AND PUSH2 0x38AD JUMPI PUSH2 0x30AB JUMP JUMPDEST PUSH2 0x30A5 PUSH1 0x40 MLOAD DUP1 PUSH1 0xA0 ADD PUSH1 0x40 MSTORE DUP1 DUP10 PUSH1 0x1 PUSH1 0x1 PUSH1 0xA0 SHL SUB AND DUP2 MSTORE PUSH1 0x20 ADD DUP9 PUSH1 0x1 PUSH1 0x1 PUSH1 0xA0 SHL SUB AND DUP2 MSTORE PUSH1 0x20 ADD DUP6 DUP8 PUSH1 0x40 MLOAD PUSH1 0x20 ADD PUSH2 0x38EC SWAP3 SWAP2 SWAP1 PUSH2 0x9B49 JUMP JUMPDEST PUSH1 0x40 MLOAD PUSH1 0x20 DUP2 DUP4 SUB SUB DUP2 MSTORE SWAP1 PUSH1 0x40 MSTORE DUP2 MSTORE PUSH1 0x20 ADD DUP6 DUP8 ISZERO PUSH1 0x40 MLOAD PUSH1 0x20 ADD PUSH2 0x3914 SWAP3 SWAP2 SWAP1 PUSH2 0x9B49 JUMP JUMPDEST PUSH1 0x40 DUP1 MLOAD PUSH1 0x1F NOT DUP2 DUP5 SUB ADD DUP2 MSTORE SWAP2 DUP2 MSTORE SWAP1 DUP3 MSTORE ADDRESS PUSH1 0x20 SWAP1 DUP2 SHL PUSH4 0xF573C161 OR SWAP1 SWAP2 SHL SWAP2 ADD MSTORE DUP7 PUSH2 0x45E0 JUMP JUMPDEST PUSH1 0x0 DUP1 PUSH1 0x60 DUP1 DUP8 PUSH1 0x0 ADD MLOAD PUSH1 0x1 PUSH1 0x1 PUSH1 0xA0 SHL SUB AND PUSH4 0x1273B0C6 DUP9 DUP9 PUSH1 0x40 MLOAD DUP4 PUSH4 0xFFFFFFFF AND PUSH1 0xE0 SHL DUP2 MSTORE PUSH1 0x4 ADD PUSH2 0x3977 SWAP3 SWAP2 SWAP1 PUSH2 0x9968 JUMP JUMPDEST PUSH1 0x20 PUSH1 0x40 MLOAD DUP1 DUP4 SUB DUP2 DUP7 DUP1 EXTCODESIZE ISZERO DUP1 ISZERO PUSH2 0x398F JUMPI PUSH1 0x0 DUP1 REVERT JUMPDEST POP GAS STATICCALL ISZERO DUP1 ISZERO PUSH2 0x39A3 JUMPI RETURNDATASIZE PUSH1 0x0 DUP1 RETURNDATACOPY RETURNDATASIZE PUSH1 0x0 REVERT JUMPDEST POP POP POP POP PUSH1 0x40 MLOAD RETURNDATASIZE PUSH1 0x1F NOT PUSH1 0x1F DUP3 ADD AND DUP3 ADD DUP1 PUSH1 0x40 MSTORE POP DUP2 ADD SWAP1 PUSH2 0x39C7 SWAP2 SWAP1 PUSH2 0x8856 JUMP JUMPDEST SWAP3 POP PUSH1 0x0 PUSH1 0x1 PUSH1 0x1 PUSH1 0xA0 SHL SUB DUP5 AND ISZERO PUSH2 0x39E5 JUMPI POP PUSH1 0x1 SWAP4 POP DUP7 PUSH2 0x3A83 JUMP JUMPDEST DUP9 MLOAD PUSH1 0x40 MLOAD PUSH4 0x939D863 PUSH1 0xE1 SHL DUP2 MSTORE PUSH1 0x1 PUSH1 0x1 PUSH1 0xA0 SHL SUB SWAP1 SWAP2 AND SWAP1 PUSH4 0x1273B0C6 SWAP1 PUSH2 0x3A16 SWAP1 DUP11 SWAP1 DUP13 SWAP1 PUSH1 0x4 ADD PUSH2 0x9968 JUMP JUMPDEST PUSH1 0x20 PUSH1 0x40 MLOAD DUP1 DUP4 SUB DUP2 DUP7 DUP1 EXTCODESIZE ISZERO DUP1 ISZERO PUSH2 0x3A2E JUMPI PUSH1 0x0 DUP1 REVERT JUMPDEST POP GAS STATICCALL ISZERO DUP1 ISZERO PUSH2 0x3A42 JUMPI RETURNDATASIZE PUSH1 0x0 DUP1 RETURNDATACOPY RETURNDATASIZE PUSH1 0x0 REVERT JUMPDEST POP POP POP POP PUSH1 0x40 MLOAD RETURNDATASIZE PUSH1 0x1F NOT PUSH1 0x1F DUP3 ADD AND DUP3 ADD DUP1 PUSH1 0x40 MSTORE POP DUP2 ADD SWAP1 PUSH2 0x3A66 SWAP2 SWAP1 PUSH2 0x8856 JUMP JUMPDEST SWAP4 POP PUSH1 0x1 PUSH1 0x1 PUSH1 0xA0 SHL SUB DUP5 AND PUSH2 0x3A7C JUMPI POP PUSH2 0x11B3 JUMP JUMPDEST POP PUSH1 0x0 SWAP4 POP DUP6 JUMPDEST PUSH2 0x181C PUSH1 0x40 MLOAD DUP1 PUSH1 0xA0 ADD PUSH1 0x40 MSTORE DUP1 DUP11 PUSH1 0x1 PUSH1 0x1 PUSH1 0xA0 SHL SUB AND DUP2 MSTORE PUSH1 0x20 ADD DUP10 PUSH1 0x1 PUSH1 0x1 PUSH1 0xA0 SHL SUB AND DUP2 MSTORE PUSH1 0x20 ADD DUP12 PUSH1 0x20 ADD MLOAD DUP8 DUP10 PUSH1 0x40 MLOAD PUSH1 0x20 ADD PUSH2 0x3AC8 SWAP4 SWAP3 SWAP2 SWAP1 PUSH2 0x99B6 JUMP JUMPDEST PUSH1 0x40 MLOAD PUSH1 0x20 DUP2 DUP4 SUB SUB DUP2 MSTORE SWAP1 PUSH1 0x40 MSTORE DUP2 MSTORE PUSH1 0x20 ADD DUP12 PUSH1 0x20 ADD MLOAD DUP8 DUP10 ISZERO PUSH1 0x40 MLOAD PUSH1 0x20 ADD PUSH2 0x3AF6 SWAP4 SWAP3 SWAP2 SWAP1 PUSH2 0x99B6 JUMP JUMPDEST PUSH1 0x40 DUP1 MLOAD PUSH1 0x1F NOT DUP2 DUP5 SUB ADD DUP2 MSTORE SWAP2 DUP2 MSTORE SWAP1 DUP3 MSTORE ADDRESS PUSH1 0x20 SWAP1 DUP2 SHL PUSH4 0xCD85E7B5 OR SWAP1 SWAP2 SHL SWAP2 ADD MSTORE DUP8 PUSH2 0x45E0 JUMP JUMPDEST PUSH1 0x60 DUP4 MLOAD PUSH1 0x1 PUSH1 0x1 PUSH1 0x40 SHL SUB DUP2 GT DUP1 ISZERO PUSH2 0x3B3A JUMPI PUSH1 0x0 DUP1 REVERT JUMPDEST POP PUSH1 0x40 MLOAD SWAP1 DUP1 DUP3 MSTORE DUP1 PUSH1 0x20 MUL PUSH1 0x20 ADD DUP3 ADD PUSH1 0x40 MSTORE DUP1 ISZERO PUSH2 0x3B64 JUMPI DUP2 PUSH1 0x20 ADD PUSH1 0x20 DUP3 MUL DUP1 CALLDATASIZE DUP4 CALLDATACOPY ADD SWAP1 POP JUMPDEST POP SWAP1 POP PUSH1 0x0 JUMPDEST DUP5 MLOAD DUP2 EQ PUSH2 0x110D JUMPI PUSH32 0x0 PUSH1 0x1 PUSH1 0x1 PUSH1 0xA0 SHL SUB AND DUP6 DUP3 DUP2 MLOAD DUP2 LT PUSH2 0x3BA8 JUMPI INVALID JUMPDEST PUSH1 0x20 MUL PUSH1 0x20 ADD ADD MLOAD PUSH1 0x1 PUSH1 0x1 PUSH1 0xA0 SHL SUB AND EQ PUSH2 0x3BF4 JUMPI PUSH2 0x3BEF DUP5 DUP5 DUP8 DUP5 DUP2 MLOAD DUP2 LT PUSH2 0x3BCF JUMPI INVALID JUMPDEST PUSH1 0x20 MUL PUSH1 0x20 ADD ADD MLOAD PUSH1 0x1 PUSH1 0x1 PUSH1 0xA0 SHL SUB AND PUSH2 0x7718 SWAP1 SWAP3 SWAP2 SWAP1 PUSH4 0xFFFFFFFF AND JUMP JUMPDEST PUSH2 0x3BF7 JUMP JUMPDEST PUSH1 0x0 JUMPDEST DUP3 DUP3 DUP2 MLOAD DUP2 LT PUSH2 0x3C03 JUMPI INVALID JUMPDEST PUSH1 0x20 SWAP1 DUP2 MUL SWAP2 SWAP1 SWAP2 ADD ADD MSTORE PUSH1 0x1 ADD PUSH2 0x3B6A JUMP JUMPDEST PUSH1 0x60 DUP1 PUSH2 0xF95 PUSH1 0x40 MLOAD DUP1 PUSH1 0x80 ADD PUSH1 0x40 MSTORE DUP1 DUP8 PUSH1 0x1 PUSH1 0x1 PUSH1 0xA0 SHL SUB AND DUP2 MSTORE PUSH1 0x20 ADD DUP7 PUSH1 0x1 PUSH1 0x1 PUSH1 0xA0 SHL SUB AND DUP2 MSTORE PUSH1 0x20 ADD DUP9 PUSH1 0x40 MLOAD PUSH1 0x20 ADD PUSH2 0x3C56 SWAP2 SWAP1 PUSH2 0x993B JUMP JUMPDEST PUSH1 0x40 DUP1 MLOAD PUSH1 0x1F NOT DUP2 DUP5 SUB ADD DUP2 MSTORE SWAP2 DUP2 MSTORE SWAP1 DUP3 MSTORE ADDRESS PUSH1 0x20 SWAP1 DUP2 SHL PUSH4 0x686B7EE8 OR SWAP1 SWAP2 SHL SWAP2 ADD MSTORE DUP5 PUSH2 0x450F JUMP JUMPDEST PUSH1 0x0 PUSH2 0x11D4 DUP6 DUP4 DUP6 PUSH2 0x77E4 JUMP JUMPDEST PUSH1 0x0 PUSH1 0x60 DUP1 PUSH2 0x3C9E DUP8 DUP8 DUP8 PUSH2 0x6C4C JUMP JUMPDEST SWAP3 POP PUSH1 0x1 PUSH1 0x1 PUSH1 0xA0 SHL SUB DUP4 AND PUSH2 0x3CB3 JUMPI PUSH2 0x31CA JUMP JUMPDEST PUSH2 0x31C4 PUSH1 0x40 MLOAD DUP1 PUSH1 0xA0 ADD PUSH1 0x40 MSTORE DUP1 DUP9 PUSH1 0x1 PUSH1 0x1 PUSH1 0xA0 SHL SUB AND DUP2 MSTORE PUSH1 0x20 ADD DUP8 PUSH1 0x1 PUSH1 0x1 PUSH1 0xA0 SHL SUB AND DUP2 MSTORE PUSH1 0x20 ADD DUP6 PUSH1 0x40 MLOAD PUSH1 0x20 ADD PUSH2 0x3CF0 SWAP2 SWAP1 PUSH2 0x993B JUMP JUMPDEST PUSH1 0x40 MLOAD PUSH1 0x20 DUP2 DUP4 SUB SUB DUP2 MSTORE SWAP1 PUSH1 0x40 MSTORE DUP2 MSTORE PUSH1 0x20 ADD DUP6 PUSH1 0x40 MLOAD PUSH1 0x20 ADD PUSH2 0x3D15 SWAP2 SWAP1 PUSH2 0x993B JUMP JUMPDEST PUSH1 0x40 DUP1 MLOAD PUSH1 0x1F NOT DUP2 DUP5 SUB ADD DUP2 MSTORE SWAP2 DUP2 MSTORE SWAP1 DUP3 MSTORE ADDRESS PUSH1 0x20 SWAP1 DUP2 SHL PUSH4 0x15DE17DE OR SWAP1 SWAP2 SHL SWAP2 ADD MSTORE DUP6 PUSH2 0x45E0 JUMP JUMPDEST PUSH1 0x60 DUP1 PUSH2 0xF95 PUSH1 0x40 MLOAD DUP1 PUSH1 0x80 ADD PUSH1 0x40 MSTORE DUP1 DUP8 PUSH1 0x1 PUSH1 0x1 PUSH1 0xA0 SHL SUB AND DUP2 MSTORE PUSH1 0x20 ADD DUP7 PUSH1 0x1 PUSH1 0x1 PUSH1 0xA0 SHL SUB AND DUP2 MSTORE PUSH1 0x20 ADD DUP9 PUSH1 0x40 MLOAD PUSH1 0x20 ADD PUSH2 0x3D80 SWAP2 SWAP1 PUSH2 0xA4D4 JUMP JUMPDEST PUSH1 0x40 DUP1 MLOAD PUSH1 0x1F NOT DUP2 DUP5 SUB ADD DUP2 MSTORE SWAP2 DUP2 MSTORE SWAP1 DUP3 MSTORE ADDRESS PUSH1 0x20 SWAP1 DUP2 SHL PUSH4 0x685D285D OR SWAP1 SWAP2 SHL SWAP2 ADD MSTORE DUP5 PUSH2 0x450F JUMP JUMPDEST PUSH1 0x60 DUP1 PUSH1 0x60 DUP1 PUSH2 0x3DED DUP9 PUSH1 0x1 PUSH1 0x1 PUSH1 0xA0 SHL SUB AND PUSH4 0xC45A0155 PUSH1 0x40 MLOAD DUP2 PUSH4 0xFFFFFFFF AND PUSH1 0xE0 SHL DUP2 MSTORE PUSH1 0x4 ADD PUSH1 0x20 PUSH1 0x40 MLOAD DUP1 DUP4 SUB DUP2 DUP7 DUP1 EXTCODESIZE ISZERO DUP1 ISZERO PUSH2 0x2107 JUMPI PUSH1 0x0 DUP1 REVERT JUMPDEST SWAP1 POP PUSH1 0x60 PUSH2 0x3DFA DUP8 PUSH2 0x78CA JUMP JUMPDEST SWAP1 POP DUP6 MLOAD PUSH1 0x1 PUSH1 0x1 PUSH1 0x40 SHL SUB DUP2 GT DUP1 ISZERO PUSH2 0x3E13 JUMPI PUSH1 0x0 DUP1 REVERT JUMPDEST POP PUSH1 0x40 MLOAD SWAP1 DUP1 DUP3 MSTORE DUP1 PUSH1 0x20 MUL PUSH1 0x20 ADD DUP3 ADD PUSH1 0x40 MSTORE DUP1 ISZERO PUSH2 0x3E3D JUMPI DUP2 PUSH1 0x20 ADD PUSH1 0x20 DUP3 MUL DUP1 CALLDATASIZE DUP4 CALLDATACOPY ADD SWAP1 POP JUMPDEST POP SWAP3 POP DUP6 MLOAD PUSH1 0x1 PUSH1 0x1 PUSH1 0x40 SHL SUB DUP2 GT DUP1 ISZERO PUSH2 0x3E57 JUMPI PUSH1 0x0 DUP1 REVERT JUMPDEST POP PUSH1 0x40 MLOAD SWAP1 DUP1 DUP3 MSTORE DUP1 PUSH1 0x20 MUL PUSH1 0x20 ADD DUP3 ADD PUSH1 0x40 MSTORE DUP1 ISZERO PUSH2 0x3E81 JUMPI DUP2 PUSH1 0x20 ADD PUSH1 0x20 DUP3 MUL DUP1 CALLDATASIZE DUP4 CALLDATACOPY ADD SWAP1 POP JUMPDEST POP SWAP4 POP DUP6 MLOAD PUSH1 0x1 PUSH1 0x1 PUSH1 0x40 SHL SUB DUP2 GT DUP1 ISZERO PUSH2 0x3E9B JUMPI PUSH1 0x0 DUP1 REVERT JUMPDEST POP PUSH1 0x40 MLOAD SWAP1 DUP1 DUP3 MSTORE DUP1 PUSH1 0x20 MUL PUSH1 0x20 ADD DUP3 ADD PUSH1 0x40 MSTORE DUP1 ISZERO PUSH2 0x3ECF JUMPI DUP2 PUSH1 0x20 ADD JUMPDEST PUSH1 0x60 DUP2 MSTORE PUSH1 0x20 ADD SWAP1 PUSH1 0x1 SWAP1 SUB SWAP1 DUP2 PUSH2 0x3EBA JUMPI SWAP1 POP JUMPDEST POP SWAP5 POP PUSH1 0x0 JUMPDEST DUP3 MLOAD DUP2 LT ISZERO PUSH2 0x40E4 JUMPI PUSH1 0x60 DUP1 PUSH2 0x3FD0 PUSH1 0x40 MLOAD DUP1 PUSH1 0xA0 ADD PUSH1 0x40 MSTORE DUP1 DUP13 PUSH1 0x0 DUP2 MLOAD DUP2 LT PUSH2 0x3EFC JUMPI INVALID JUMPDEST PUSH1 0x20 MUL PUSH1 0x20 ADD ADD MLOAD PUSH1 0x1 PUSH1 0x1 PUSH1 0xA0 SHL SUB AND DUP2 MSTORE PUSH1 0x20 ADD DUP13 PUSH1 0x1 DUP15 MLOAD SUB DUP2 MLOAD DUP2 LT PUSH2 0x3F22 JUMPI INVALID JUMPDEST PUSH1 0x20 MUL PUSH1 0x20 ADD ADD MLOAD PUSH1 0x1 PUSH1 0x1 PUSH1 0xA0 SHL SUB AND DUP2 MSTORE PUSH1 0x20 ADD DUP14 PUSH2 0x3F49 DUP15 DUP11 DUP10 DUP2 MLOAD DUP2 LT PUSH2 0x223D JUMPI INVALID JUMPDEST PUSH1 0x40 MLOAD PUSH1 0x20 ADD PUSH2 0x3F5A SWAP3 SWAP2 SWAP1 PUSH2 0x9B64 JUMP JUMPDEST PUSH1 0x40 MLOAD PUSH1 0x20 DUP2 DUP4 SUB SUB DUP2 MSTORE SWAP1 PUSH1 0x40 MSTORE DUP2 MSTORE PUSH1 0x20 ADD DUP14 PUSH2 0x3F94 DUP9 PUSH2 0x3F8F DUP12 DUP11 DUP2 MLOAD DUP2 LT PUSH2 0x3F82 JUMPI INVALID JUMPDEST PUSH1 0x20 MUL PUSH1 0x20 ADD ADD MLOAD PUSH2 0x7962 JUMP JUMPDEST PUSH2 0x58E3 JUMP JUMPDEST PUSH1 0x40 MLOAD PUSH1 0x20 ADD PUSH2 0x3FA5 SWAP3 SWAP2 SWAP1 PUSH2 0x9B64 JUMP JUMPDEST PUSH1 0x40 DUP1 MLOAD PUSH1 0x1F NOT DUP2 DUP5 SUB ADD DUP2 MSTORE SWAP2 DUP2 MSTORE SWAP1 DUP3 MSTORE ADDRESS PUSH1 0x20 SWAP1 DUP2 SHL PUSH4 0x59AB9A6C OR SWAP1 SWAP2 SHL SWAP2 ADD MSTORE DUP11 PUSH2 0x45E0 JUMP JUMPDEST SWAP2 POP SWAP2 POP PUSH1 0x0 JUMPDEST DUP2 MLOAD DUP2 LT ISZERO PUSH2 0x40D6 JUMPI DUP2 DUP2 DUP2 MLOAD DUP2 LT PUSH2 0x3FEC JUMPI INVALID JUMPDEST PUSH1 0x20 MUL PUSH1 0x20 ADD ADD MLOAD PUSH1 0x0 EQ ISZERO PUSH2 0x4001 JUMPI PUSH2 0x40D6 JUMP JUMPDEST DUP7 DUP2 DUP2 MLOAD DUP2 LT PUSH2 0x400D JUMPI INVALID JUMPDEST PUSH1 0x20 MUL PUSH1 0x20 ADD ADD MLOAD PUSH1 0x0 EQ DUP1 PUSH2 0x4049 JUMPI POP DUP2 DUP2 DUP2 MLOAD DUP2 LT PUSH2 0x402A JUMPI INVALID JUMPDEST PUSH1 0x20 MUL PUSH1 0x20 ADD ADD MLOAD DUP8 DUP3 DUP2 MLOAD DUP2 LT PUSH2 0x403E JUMPI INVALID JUMPDEST PUSH1 0x20 MUL PUSH1 0x20 ADD ADD MLOAD LT ISZERO JUMPDEST ISZERO PUSH2 0x40CE JUMPI DUP2 DUP2 DUP2 MLOAD DUP2 LT PUSH2 0x405A JUMPI INVALID JUMPDEST PUSH1 0x20 MUL PUSH1 0x20 ADD ADD MLOAD DUP8 DUP3 DUP2 MLOAD DUP2 LT PUSH2 0x406E JUMPI INVALID JUMPDEST PUSH1 0x20 MUL PUSH1 0x20 ADD ADD DUP2 DUP2 MSTORE POP POP DUP3 DUP2 DUP2 MLOAD DUP2 LT PUSH2 0x4086 JUMPI INVALID JUMPDEST PUSH1 0x20 MUL PUSH1 0x20 ADD ADD MLOAD DUP9 DUP3 DUP2 MLOAD DUP2 LT PUSH2 0x409A JUMPI INVALID JUMPDEST PUSH1 0x20 MUL PUSH1 0x20 ADD ADD DUP2 DUP2 MSTORE POP POP PUSH2 0x40B6 DUP12 DUP8 DUP7 DUP2 MLOAD DUP2 LT PUSH2 0x223D JUMPI INVALID JUMPDEST DUP10 DUP3 DUP2 MLOAD DUP2 LT PUSH2 0x40C2 JUMPI INVALID JUMPDEST PUSH1 0x20 MUL PUSH1 0x20 ADD ADD DUP2 SWAP1 MSTORE POP JUMPDEST PUSH1 0x1 ADD PUSH2 0x3FD7 JUMP JUMPDEST POP POP POP DUP1 PUSH1 0x1 ADD SWAP1 POP PUSH2 0x3ED5 JUMP JUMPDEST POP POP POP SWAP5 POP SWAP5 POP SWAP5 SWAP2 POP POP JUMP JUMPDEST PUSH2 0x40F9 PUSH2 0x810F JUMP JUMPDEST PUSH2 0x4101 PUSH2 0x810F JUMP JUMPDEST PUSH1 0x0 NOT DUP1 PUSH1 0x0 JUMPDEST DUP7 MLOAD DUP2 EQ PUSH2 0x41FD JUMPI PUSH2 0x4138 PUSH1 0x20 DUP9 DUP4 DUP2 MLOAD DUP2 LT PUSH2 0x4121 JUMPI INVALID JUMPDEST PUSH1 0x20 MUL PUSH1 0x20 ADD ADD MLOAD MLOAD SUB DUP8 DUP10 DUP5 DUP2 MLOAD DUP2 LT PUSH2 0x2A15 JUMPI INVALID JUMPDEST PUSH1 0x0 PUSH1 0x60 ADDRESS PUSH1 0x1 PUSH1 0x1 PUSH1 0xA0 SHL SUB AND DUP10 DUP5 DUP2 MLOAD DUP2 LT PUSH2 0x4152 JUMPI INVALID JUMPDEST PUSH1 0x20 MUL PUSH1 0x20 ADD ADD MLOAD PUSH1 0x40 MLOAD PUSH2 0x4167 SWAP2 SWAP1 PUSH2 0x991F JUMP JUMPDEST PUSH1 0x0 PUSH1 0x40 MLOAD DUP1 DUP4 SUB DUP2 PUSH1 0x0 DUP7 GAS CALL SWAP2 POP POP RETURNDATASIZE DUP1 PUSH1 0x0 DUP2 EQ PUSH2 0x41A4 JUMPI PUSH1 0x40 MLOAD SWAP2 POP PUSH1 0x1F NOT PUSH1 0x3F RETURNDATASIZE ADD AND DUP3 ADD PUSH1 0x40 MSTORE RETURNDATASIZE DUP3 MSTORE RETURNDATASIZE PUSH1 0x0 PUSH1 0x20 DUP5 ADD RETURNDATACOPY PUSH2 0x41A9 JUMP JUMPDEST PUSH1 0x60 SWAP2 POP JUMPDEST POP SWAP2 POP SWAP2 POP DUP2 ISZERO PUSH2 0x41F3 JUMPI PUSH1 0x0 PUSH2 0x41CD PUSH1 0x20 DUP4 MLOAD SUB DUP4 PUSH2 0x601F SWAP1 SWAP2 SWAP1 PUSH4 0xFFFFFFFF AND JUMP JUMPDEST SWAP1 POP PUSH1 0x0 DUP2 GT DUP1 ISZERO PUSH2 0x41DE JUMPI POP DUP5 DUP2 LT JUMPDEST ISZERO PUSH2 0x41F1 JUMPI DUP4 DUP8 MSTORE PUSH1 0x20 DUP8 ADD DUP3 SWAP1 MSTORE SWAP4 POP DUP4 JUMPDEST POP JUMPDEST POP POP PUSH1 0x1 ADD PUSH2 0x4108 JUMP JUMPDEST POP PUSH1 0x0 NOT DUP2 EQ ISZERO PUSH2 0x420E JUMPI POP PUSH2 0xEB3 JUMP JUMPDEST PUSH1 0x0 JUMPDEST DUP8 MLOAD DUP2 EQ PUSH2 0x4306 JUMPI PUSH2 0x4241 PUSH1 0x20 DUP10 DUP4 DUP2 MLOAD DUP2 LT PUSH2 0x422A JUMPI INVALID JUMPDEST PUSH1 0x20 MUL PUSH1 0x20 ADD ADD MLOAD MLOAD SUB DUP4 DUP11 DUP5 DUP2 MLOAD DUP2 LT PUSH2 0x2A15 JUMPI INVALID JUMPDEST PUSH1 0x0 PUSH1 0x60 ADDRESS PUSH1 0x1 PUSH1 0x1 PUSH1 0xA0 SHL SUB AND DUP11 DUP5 DUP2 MLOAD DUP2 LT PUSH2 0x425B JUMPI INVALID JUMPDEST PUSH1 0x20 MUL PUSH1 0x20 ADD ADD MLOAD PUSH1 0x40 MLOAD PUSH2 0x4270 SWAP2 SWAP1 PUSH2 0x991F JUMP JUMPDEST PUSH1 0x0 PUSH1 0x40 MLOAD DUP1 DUP4 SUB DUP2 PUSH1 0x0 DUP7 GAS CALL SWAP2 POP POP RETURNDATASIZE DUP1 PUSH1 0x0 DUP2 EQ PUSH2 0x42AD JUMPI PUSH1 0x40 MLOAD SWAP2 POP PUSH1 0x1F NOT PUSH1 0x3F RETURNDATASIZE ADD AND DUP3 ADD PUSH1 0x40 MSTORE RETURNDATASIZE DUP3 MSTORE RETURNDATASIZE PUSH1 0x0 PUSH1 0x20 DUP5 ADD RETURNDATACOPY PUSH2 0x42B2 JUMP JUMPDEST PUSH1 0x60 SWAP2 POP JUMPDEST POP SWAP2 POP SWAP2 POP DUP2 ISZERO PUSH2 0x42FC JUMPI PUSH1 0x0 PUSH2 0x42D6 PUSH1 0x20 DUP4 MLOAD SUB DUP4 PUSH2 0x601F SWAP1 SWAP2 SWAP1 PUSH4 0xFFFFFFFF AND JUMP JUMPDEST SWAP1 POP PUSH1 0x0 DUP2 GT DUP1 ISZERO PUSH2 0x42E7 JUMPI POP DUP6 DUP2 LT JUMPDEST ISZERO PUSH2 0x42FA JUMPI DUP4 DUP9 MSTORE PUSH1 0x20 DUP9 ADD DUP3 SWAP1 MSTORE SWAP5 POP DUP5 JUMPDEST POP JUMPDEST POP POP PUSH1 0x1 ADD PUSH2 0x4211 JUMP JUMPDEST POP POP SWAP4 POP SWAP4 POP SWAP4 SWAP1 POP JUMP JUMPDEST PUSH1 0x60 PUSH1 0x1 DUP3 MLOAD SUB PUSH1 0x1 PUSH1 0x1 PUSH1 0x40 SHL SUB DUP2 GT DUP1 ISZERO PUSH2 0x432D JUMPI PUSH1 0x0 DUP1 REVERT JUMPDEST POP PUSH1 0x40 MLOAD SWAP1 DUP1 DUP3 MSTORE DUP1 PUSH1 0x20 MUL PUSH1 0x20 ADD DUP3 ADD PUSH1 0x40 MSTORE DUP1 ISZERO PUSH2 0x4357 JUMPI DUP2 PUSH1 0x20 ADD PUSH1 0x20 DUP3 MUL DUP1 CALLDATASIZE DUP4 CALLDATACOPY ADD SWAP1 POP JUMPDEST POP SWAP1 POP PUSH1 0x0 DUP4 PUSH1 0x1 PUSH1 0x1 PUSH1 0xA0 SHL SUB AND PUSH4 0xC45A0155 PUSH1 0x40 MLOAD DUP2 PUSH4 0xFFFFFFFF AND PUSH1 0xE0 SHL DUP2 MSTORE PUSH1 0x4 ADD PUSH1 0x20 PUSH1 0x40 MLOAD DUP1 DUP4 SUB DUP2 DUP7 DUP1 EXTCODESIZE ISZERO DUP1 ISZERO PUSH2 0x4395 JUMPI PUSH1 0x0 DUP1 REVERT JUMPDEST POP GAS STATICCALL ISZERO DUP1 ISZERO PUSH2 0x43A9 JUMPI RETURNDATASIZE PUSH1 0x0 DUP1 RETURNDATACOPY RETURNDATASIZE PUSH1 0x0 REVERT JUMPDEST POP POP POP POP PUSH1 0x40 MLOAD RETURNDATASIZE PUSH1 0x1F NOT PUSH1 0x1F DUP3 ADD AND DUP3 ADD DUP1 PUSH1 0x40 MSTORE POP DUP2 ADD SWAP1 PUSH2 0x43CD SWAP2 SWAP1 PUSH2 0x8856 JUMP JUMPDEST SWAP1 POP PUSH1 0x0 JUMPDEST DUP3 MLOAD DUP2 LT ISZERO PUSH2 0x4506 JUMPI DUP2 PUSH1 0x1 PUSH1 0x1 PUSH1 0xA0 SHL SUB AND PUSH4 0x65DA9289 PUSH3 0x249F0 DUP7 DUP5 DUP2 MLOAD DUP2 LT PUSH2 0x43FA JUMPI INVALID JUMPDEST PUSH1 0x20 MUL PUSH1 0x20 ADD ADD MLOAD DUP8 DUP6 PUSH1 0x1 ADD DUP2 MLOAD DUP2 LT PUSH2 0x4411 JUMPI INVALID JUMPDEST PUSH1 0x20 MUL PUSH1 0x20 ADD ADD MLOAD PUSH1 0x0 PUSH1 0x40 MLOAD DUP6 PUSH4 0xFFFFFFFF AND PUSH1 0xE0 SHL DUP2 MSTORE PUSH1 0x4 ADD PUSH2 0x4439 SWAP4 SWAP3 SWAP2 SWAP1 PUSH2 0x9A4B JUMP JUMPDEST PUSH1 0x20 PUSH1 0x40 MLOAD DUP1 DUP4 SUB DUP2 DUP8 DUP1 EXTCODESIZE ISZERO DUP1 ISZERO PUSH2 0x4451 JUMPI PUSH1 0x0 DUP1 REVERT JUMPDEST POP DUP7 STATICCALL SWAP4 POP POP POP POP DUP1 ISZERO PUSH2 0x4482 JUMPI POP PUSH1 0x40 DUP1 MLOAD PUSH1 0x1F RETURNDATASIZE SWAP1 DUP2 ADD PUSH1 0x1F NOT AND DUP3 ADD SWAP1 SWAP3 MSTORE PUSH2 0x447F SWAP2 DUP2 ADD SWAP1 PUSH2 0x8856 JUMP JUMPDEST PUSH1 0x1 JUMPDEST PUSH2 0x44D0 JUMPI RETURNDATASIZE DUP1 DUP1 ISZERO PUSH2 0x44B0 JUMPI PUSH1 0x40 MLOAD SWAP2 POP PUSH1 0x1F NOT PUSH1 0x3F RETURNDATASIZE ADD AND DUP3 ADD PUSH1 0x40 MSTORE RETURNDATASIZE DUP3 MSTORE RETURNDATASIZE PUSH1 0x0 PUSH1 0x20 DUP5 ADD RETURNDATACOPY PUSH2 0x44B5 JUMP JUMPDEST PUSH1 0x60 SWAP2 POP JUMPDEST POP POP PUSH1 0x40 DUP1 MLOAD PUSH1 0x0 DUP2 MSTORE PUSH1 0x20 DUP2 ADD SWAP1 SWAP2 MSTORE SWAP3 POP PUSH2 0x4509 SWAP2 POP POP JUMP JUMPDEST DUP1 DUP5 DUP4 DUP2 MLOAD DUP2 LT PUSH2 0x44DD JUMPI INVALID JUMPDEST PUSH1 0x20 MUL PUSH1 0x20 ADD ADD SWAP1 PUSH1 0x1 PUSH1 0x1 PUSH1 0xA0 SHL SUB AND SWAP1 DUP2 PUSH1 0x1 PUSH1 0x1 PUSH1 0xA0 SHL SUB AND DUP2 MSTORE POP POP POP PUSH1 0x1 ADD PUSH2 0x43D2 JUMP JUMPDEST POP POP JUMPDEST SWAP3 SWAP2 POP POP JUMP JUMPDEST PUSH1 0x60 DUP3 DUP2 ADD MLOAD DUP4 MLOAD PUSH1 0x20 DUP6 ADD MLOAD PUSH1 0x40 DUP1 DUP8 ADD MLOAD SWAP1 MLOAD PUSH4 0xFA7F81F PUSH1 0xE1 SHL DUP2 MSTORE DUP6 SWAP5 ADDRESS SWAP5 PUSH4 0x1F4FF03E SWAP5 PUSH2 0x455B SWAP5 PUSH1 0xA0 SWAP4 SWAP1 SWAP4 SHL PUSH1 0x1 PUSH1 0x1 PUSH1 0xE0 SHL SUB NOT AND SWAP4 SWAP2 SWAP3 SWAP1 SWAP2 DUP11 SWAP1 PUSH1 0x4 ADD PUSH2 0x9E79 JUMP JUMPDEST PUSH1 0x0 PUSH1 0x40 MLOAD DUP1 DUP4 SUB DUP2 PUSH1 0x0 DUP8 DUP1 EXTCODESIZE ISZERO DUP1 ISZERO PUSH2 0x4575 JUMPI PUSH1 0x0 DUP1 REVERT JUMPDEST POP GAS CALL SWAP3 POP POP POP DUP1 ISZERO PUSH2 0x4586 JUMPI POP PUSH1 0x1 JUMPDEST PUSH2 0x1501 JUMPI RETURNDATASIZE DUP1 DUP1 ISZERO PUSH2 0x45B4 JUMPI PUSH1 0x40 MLOAD SWAP2 POP PUSH1 0x1F NOT PUSH1 0x3F RETURNDATASIZE ADD AND DUP3 ADD PUSH1 0x40 MSTORE RETURNDATASIZE DUP3 MSTORE RETURNDATASIZE PUSH1 0x0 PUSH1 0x20 DUP5 ADD RETURNDATACOPY PUSH2 0x45B9 JUMP JUMPDEST PUSH1 0x60 SWAP2 POP JUMPDEST POP DUP1 DUP1 PUSH1 0x20 ADD SWAP1 MLOAD DUP2 ADD SWAP1 PUSH2 0x45CE SWAP2 SWAP1 PUSH2 0x8E58 JUMP JUMPDEST SWAP4 POP SWAP2 POP PUSH2 0x45D9 SWAP1 POP JUMP JUMPDEST SWAP3 POP SWAP3 SWAP1 POP JUMP JUMPDEST PUSH1 0x60 DUP1 DUP3 MLOAD PUSH1 0x0 EQ ISZERO PUSH2 0x45F2 JUMPI PUSH2 0x45D9 JUMP JUMPDEST DUP3 MLOAD PUSH1 0x1 PUSH1 0x1 PUSH1 0x40 SHL SUB DUP2 GT DUP1 ISZERO PUSH2 0x4609 JUMPI PUSH1 0x0 DUP1 REVERT JUMPDEST POP PUSH1 0x40 MLOAD SWAP1 DUP1 DUP3 MSTORE DUP1 PUSH1 0x20 MUL PUSH1 0x20 ADD DUP3 ADD PUSH1 0x40 MSTORE DUP1 ISZERO PUSH2 0x4633 JUMPI DUP2 PUSH1 0x20 ADD PUSH1 0x20 DUP3 MUL DUP1 CALLDATASIZE DUP4 CALLDATACOPY ADD SWAP1 POP JUMPDEST POP SWAP1 POP DUP3 MLOAD PUSH1 0x1 PUSH1 0x1 PUSH1 0x40 SHL SUB DUP2 GT DUP1 ISZERO PUSH2 0x464D JUMPI PUSH1 0x0 DUP1 REVERT JUMPDEST POP PUSH1 0x40 MLOAD SWAP1 DUP1 DUP3 MSTORE DUP1 PUSH1 0x20 MUL PUSH1 0x20 ADD DUP3 ADD PUSH1 0x40 MSTORE DUP1 ISZERO PUSH2 0x4677 JUMPI DUP2 PUSH1 0x20 ADD PUSH1 0x20 DUP3 MUL DUP1 CALLDATASIZE DUP4 CALLDATACOPY ADD SWAP1 POP JUMPDEST POP PUSH1 0x40 DUP1 MLOAD PUSH1 0x1 DUP1 DUP3 MSTORE DUP2 DUP4 ADD SWAP1 SWAP3 MSTORE SWAP2 SWAP4 POP PUSH1 0x60 SWAP2 SWAP1 PUSH1 0x20 DUP1 DUP4 ADD SWAP1 DUP1 CALLDATASIZE DUP4 CALLDATACOPY ADD SWAP1 POP POP SWAP1 POP DUP4 PUSH1 0x0 DUP2 MLOAD DUP2 LT PUSH2 0x46AB JUMPI INVALID JUMPDEST PUSH1 0x20 MUL PUSH1 0x20 ADD ADD MLOAD DUP2 PUSH1 0x0 DUP2 MLOAD DUP2 LT PUSH2 0x46C0 JUMPI INVALID JUMPDEST PUSH1 0x20 MUL PUSH1 0x20 ADD ADD DUP2 DUP2 MSTORE POP POP PUSH2 0x46D4 PUSH2 0x814B JUMP JUMPDEST POP PUSH1 0x40 DUP1 MLOAD PUSH1 0x80 DUP1 DUP3 ADD DUP4 MSTORE DUP8 MLOAD PUSH1 0x1 PUSH1 0x1 PUSH1 0xA0 SHL SUB SWAP1 DUP2 AND DUP4 MSTORE PUSH1 0x20 DUP1 DUP11 ADD MLOAD SWAP1 SWAP2 AND SWAP1 DUP4 ADD MSTORE DUP8 DUP4 ADD MLOAD DUP3 DUP5 ADD MSTORE DUP8 ADD MLOAD PUSH5 0x100000000 PUSH1 0x1 PUSH1 0xC0 SHL SUB SWAP1 DUP4 SHR SWAP1 DUP2 AND PUSH4 0xFFFFFFFF SWAP1 SWAP2 AND OR SWAP1 SWAP2 SHL PUSH1 0x60 DUP3 ADD MSTORE PUSH2 0x4732 PUSH2 0x814B JUMP JUMPDEST PUSH1 0x40 MLOAD DUP1 PUSH1 0x80 ADD PUSH1 0x40 MSTORE DUP1 DUP9 PUSH1 0x20 ADD MLOAD PUSH1 0x1 PUSH1 0x1 PUSH1 0xA0 SHL SUB AND DUP2 MSTORE PUSH1 0x20 ADD DUP9 PUSH1 0x0 ADD MLOAD PUSH1 0x1 PUSH1 0x1 PUSH1 0xA0 SHL SUB AND DUP2 MSTORE PUSH1 0x20 ADD DUP9 PUSH1 0x60 ADD MLOAD DUP2 MSTORE PUSH1 0x20 ADD DUP9 PUSH1 0x80 ADD MLOAD DUP1 PUSH1 0x60 SHR SWAP1 PUSH1 0x40 SHR PUSH4 0xFFFFFFFF AND PUSH4 0xFFFFFFFF AND SWAP1 PUSH1 0x20 SHL OR PUSH1 0x40 SHL DUP2 MSTORE POP SWAP1 POP PUSH2 0x479D DUP2 DUP5 PUSH2 0x450F JUMP JUMPDEST DUP1 MLOAD SWAP1 SWAP5 POP ISZERO SWAP1 POP DUP1 PUSH2 0x47C4 JUMPI POP DUP3 PUSH1 0x0 DUP2 MLOAD DUP2 LT PUSH2 0x47B8 JUMPI INVALID JUMPDEST PUSH1 0x20 MUL PUSH1 0x20 ADD ADD MLOAD PUSH1 0x0 EQ JUMPDEST ISZERO PUSH2 0x47D1 JUMPI POP POP POP PUSH2 0x45D9 JUMP JUMPDEST PUSH1 0x60 PUSH2 0x47DD DUP4 DUP6 PUSH2 0x450F JUMP JUMPDEST DUP1 MLOAD SWAP1 SWAP3 POP ISZERO SWAP1 POP DUP1 PUSH2 0x4804 JUMPI POP DUP1 PUSH1 0x0 DUP2 MLOAD DUP2 LT PUSH2 0x47F8 JUMPI INVALID JUMPDEST PUSH1 0x20 MUL PUSH1 0x20 ADD ADD MLOAD PUSH1 0x0 EQ JUMPDEST ISZERO PUSH2 0x4812 JUMPI POP POP POP POP PUSH2 0x45D9 JUMP JUMPDEST PUSH1 0x0 JUMPDEST DUP8 MLOAD DUP2 LT ISZERO PUSH2 0x4AAC JUMPI PUSH1 0x60 PUSH1 0x0 JUMPDEST PUSH1 0x3 DUP2 LT ISZERO PUSH2 0x49EA JUMPI PUSH2 0x4872 DUP11 DUP5 DUP2 MLOAD DUP2 LT PUSH2 0x483B JUMPI INVALID JUMPDEST PUSH1 0x20 MUL PUSH1 0x20 ADD ADD MLOAD DUP6 PUSH1 0x0 DUP2 MLOAD DUP2 LT PUSH2 0x4850 JUMPI INVALID JUMPDEST PUSH1 0x20 MUL PUSH1 0x20 ADD ADD MLOAD DUP10 PUSH1 0x0 DUP2 MLOAD DUP2 LT PUSH2 0x4865 JUMPI INVALID JUMPDEST PUSH1 0x20 MUL PUSH1 0x20 ADD ADD MLOAD PUSH2 0x79FA JUMP JUMPDEST DUP8 PUSH1 0x0 DUP2 MLOAD DUP2 LT PUSH2 0x487F JUMPI INVALID JUMPDEST PUSH1 0x20 SWAP1 DUP2 MUL SWAP2 SWAP1 SWAP2 ADD ADD MSTORE DUP7 MLOAD ISZERO DUP1 PUSH2 0x48AC JUMPI POP DUP7 PUSH1 0x0 DUP2 MLOAD DUP2 LT PUSH2 0x48A0 JUMPI INVALID JUMPDEST PUSH1 0x20 MUL PUSH1 0x20 ADD ADD MLOAD PUSH1 0x0 EQ JUMPDEST ISZERO PUSH2 0x48B6 JUMPI PUSH2 0x49EA JUMP JUMPDEST PUSH2 0x48CF PUSH1 0x5 PUSH2 0x2710 ADD PUSH2 0x2710 DUP10 PUSH1 0x0 DUP2 MLOAD DUP2 LT PUSH2 0x4865 JUMPI INVALID JUMPDEST DUP8 PUSH1 0x0 DUP2 MLOAD DUP2 LT PUSH2 0x48DC JUMPI INVALID JUMPDEST PUSH1 0x20 SWAP1 DUP2 MUL SWAP2 SWAP1 SWAP2 ADD ADD MSTORE DUP7 MLOAD ISZERO DUP1 PUSH2 0x4909 JUMPI POP DUP7 PUSH1 0x0 DUP2 MLOAD DUP2 LT PUSH2 0x48FD JUMPI INVALID JUMPDEST PUSH1 0x20 MUL PUSH1 0x20 ADD ADD MLOAD PUSH1 0x0 EQ JUMPDEST ISZERO PUSH2 0x4913 JUMPI PUSH2 0x49EA JUMP JUMPDEST PUSH1 0x60 PUSH2 0x491F DUP8 DUP10 PUSH2 0x450F JUMP JUMPDEST DUP1 MLOAD SWAP2 SWAP5 POP SWAP2 POP ISZERO DUP1 PUSH2 0x4946 JUMPI POP DUP1 PUSH1 0x0 DUP2 MLOAD DUP2 LT PUSH2 0x493A JUMPI INVALID JUMPDEST PUSH1 0x20 MUL PUSH1 0x20 ADD ADD MLOAD PUSH1 0x0 EQ JUMPDEST ISZERO PUSH2 0x4951 JUMPI POP PUSH2 0x49EA JUMP JUMPDEST DUP1 SWAP5 POP DUP11 DUP5 DUP2 MLOAD DUP2 LT PUSH2 0x4960 JUMPI INVALID JUMPDEST PUSH1 0x20 MUL PUSH1 0x20 ADD ADD MLOAD DUP6 PUSH1 0x0 DUP2 MLOAD DUP2 LT PUSH2 0x4975 JUMPI INVALID JUMPDEST PUSH1 0x20 MUL PUSH1 0x20 ADD ADD MLOAD LT PUSH2 0x49E1 JUMPI PUSH1 0x0 DUP12 DUP6 DUP2 MLOAD DUP2 LT PUSH2 0x4990 JUMPI INVALID JUMPDEST PUSH1 0x20 MUL PUSH1 0x20 ADD ADD MLOAD PUSH2 0x2710 DUP14 DUP8 DUP2 MLOAD DUP2 LT PUSH2 0x49A7 JUMPI INVALID JUMPDEST PUSH1 0x20 MUL PUSH1 0x20 ADD ADD MLOAD DUP9 PUSH1 0x0 DUP2 MLOAD DUP2 LT PUSH2 0x49BC JUMPI INVALID JUMPDEST PUSH1 0x20 MUL PUSH1 0x20 ADD ADD MLOAD SUB MUL DUP2 PUSH2 0x49CD JUMPI INVALID JUMPDEST DIV SWAP1 POP PUSH1 0x5 DUP2 GT PUSH2 0x49DF JUMPI POP POP PUSH2 0x49EA JUMP JUMPDEST POP JUMPDEST POP PUSH1 0x1 ADD PUSH2 0x4823 JUMP JUMPDEST POP DUP1 MLOAD ISZERO DUP1 PUSH2 0x4A0D JUMPI POP DUP1 PUSH1 0x0 DUP2 MLOAD DUP2 LT PUSH2 0x4A01 JUMPI INVALID JUMPDEST PUSH1 0x20 MUL PUSH1 0x20 ADD ADD MLOAD PUSH1 0x0 EQ JUMPDEST ISZERO PUSH2 0x4A1D JUMPI POP POP POP POP POP POP PUSH2 0x45D9 JUMP JUMPDEST DUP3 MLOAD ISZERO PUSH2 0x4AA3 JUMPI DUP1 PUSH1 0x0 DUP2 MLOAD DUP2 LT PUSH2 0x4A31 JUMPI INVALID JUMPDEST PUSH1 0x20 MUL PUSH1 0x20 ADD ADD MLOAD DUP9 DUP4 DUP2 MLOAD DUP2 LT PUSH2 0x4A45 JUMPI INVALID JUMPDEST PUSH1 0x20 MUL PUSH1 0x20 ADD ADD DUP2 DUP2 MSTORE POP POP PUSH2 0x4A8A DUP10 DUP4 DUP2 MLOAD DUP2 LT PUSH2 0x4A60 JUMPI INVALID JUMPDEST PUSH1 0x20 MUL PUSH1 0x20 ADD ADD MLOAD DUP5 PUSH1 0x0 DUP2 MLOAD DUP2 LT PUSH2 0x4A75 JUMPI INVALID JUMPDEST PUSH1 0x20 MUL PUSH1 0x20 ADD ADD MLOAD DUP9 PUSH1 0x0 DUP2 MLOAD DUP2 LT PUSH2 0x4865 JUMPI INVALID JUMPDEST DUP8 DUP4 DUP2 MLOAD DUP2 LT PUSH2 0x4A96 JUMPI INVALID JUMPDEST PUSH1 0x20 MUL PUSH1 0x20 ADD ADD DUP2 DUP2 MSTORE POP POP JUMPDEST POP PUSH1 0x1 ADD PUSH2 0x4815 JUMP JUMPDEST POP POP POP POP POP SWAP3 POP SWAP3 SWAP1 POP JUMP JUMPDEST PUSH1 0x0 PUSH1 0x60 DUP6 PUSH1 0x0 ADD MLOAD PUSH1 0x1 PUSH1 0x1 PUSH1 0xA0 SHL SUB AND PUSH4 0x21F8A721 DUP8 PUSH1 0x0 ADD MLOAD PUSH1 0x1 PUSH1 0x1 PUSH1 0xA0 SHL SUB AND PUSH4 0x9232494E PUSH1 0x40 MLOAD DUP2 PUSH4 0xFFFFFFFF AND PUSH1 0xE0 SHL DUP2 MSTORE PUSH1 0x4 ADD PUSH1 0x20 PUSH1 0x40 MLOAD DUP1 DUP4 SUB DUP2 DUP7 DUP1 EXTCODESIZE ISZERO DUP1 ISZERO PUSH2 0x4B0C JUMPI PUSH1 0x0 DUP1 REVERT JUMPDEST POP GAS STATICCALL ISZERO DUP1 ISZERO PUSH2 0x4B20 JUMPI RETURNDATASIZE PUSH1 0x0 DUP1 RETURNDATACOPY RETURNDATASIZE PUSH1 0x0 REVERT JUMPDEST POP POP POP POP PUSH1 0x40 MLOAD RETURNDATASIZE PUSH1 0x1F NOT PUSH1 0x1F DUP3 ADD AND DUP3 ADD DUP1 PUSH1 0x40 MSTORE POP DUP2 ADD SWAP1 PUSH2 0x4B44 SWAP2 SWAP1 PUSH2 0x8EB8 JUMP JUMPDEST PUSH1 0x40 MLOAD DUP3 PUSH4 0xFFFFFFFF AND PUSH1 0xE0 SHL DUP2 MSTORE PUSH1 0x4 ADD PUSH2 0x4B60 SWAP2 SWAP1 PUSH2 0x9E57 JUMP JUMPDEST PUSH1 0x20 PUSH1 0x40 MLOAD DUP1 DUP4 SUB DUP2 DUP7 DUP1 EXTCODESIZE ISZERO DUP1 ISZERO PUSH2 0x4B78 JUMPI PUSH1 0x0 DUP1 REVERT JUMPDEST POP GAS STATICCALL ISZERO DUP1 ISZERO PUSH2 0x4B8C JUMPI RETURNDATASIZE PUSH1 0x0 DUP1 RETURNDATACOPY RETURNDATASIZE PUSH1 0x0 REVERT JUMPDEST POP POP POP POP PUSH1 0x40 MLOAD RETURNDATASIZE PUSH1 0x1F NOT PUSH1 0x1F DUP3 ADD AND DUP3 ADD DUP1 PUSH1 0x40 MSTORE POP DUP2 ADD SWAP1 PUSH2 0x4BB0 SWAP2 SWAP1 PUSH2 0x8856 JUMP JUMPDEST SWAP2 POP DUP6 PUSH1 0x20 ADD MLOAD MLOAD PUSH1 0x0 EQ ISZERO PUSH2 0x4BC5 JUMPI PUSH2 0x2909 JUMP JUMPDEST PUSH1 0x0 DUP1 JUMPDEST DUP8 PUSH1 0x20 ADD MLOAD MLOAD DUP2 LT ISZERO PUSH2 0x4CDE JUMPI PUSH1 0x2 DUP9 PUSH1 0x20 ADD MLOAD DUP3 DUP2 MLOAD DUP2 LT PUSH2 0x4BE8 JUMPI INVALID JUMPDEST PUSH1 0x20 MUL PUSH1 0x20 ADD ADD MLOAD MLOAD LT ISZERO PUSH2 0x4BFC JUMPI PUSH2 0x4CD6 JUMP JUMPDEST DUP4 PUSH1 0x1 PUSH1 0x1 PUSH1 0xA0 SHL SUB AND PUSH4 0x7F9C0ECD PUSH3 0x493E0 DUP11 PUSH1 0x20 ADD MLOAD DUP5 DUP2 MLOAD DUP2 LT PUSH2 0x4C1F JUMPI INVALID JUMPDEST PUSH1 0x20 MUL PUSH1 0x20 ADD ADD MLOAD DUP9 PUSH1 0x1 DUP11 MLOAD SUB DUP2 MLOAD DUP2 LT PUSH2 0x4C37 JUMPI INVALID JUMPDEST PUSH1 0x20 MUL PUSH1 0x20 ADD ADD MLOAD PUSH1 0x40 MLOAD DUP5 PUSH4 0xFFFFFFFF AND PUSH1 0xE0 SHL DUP2 MSTORE PUSH1 0x4 ADD PUSH2 0x4C5C SWAP3 SWAP2 SWAP1 PUSH2 0x9C8C JUMP JUMPDEST PUSH1 0x20 PUSH1 0x40 MLOAD DUP1 DUP4 SUB DUP2 DUP8 DUP1 EXTCODESIZE ISZERO DUP1 ISZERO PUSH2 0x4C74 JUMPI PUSH1 0x0 DUP1 REVERT JUMPDEST POP DUP7 STATICCALL SWAP4 POP POP POP POP DUP1 ISZERO PUSH2 0x4CA5 JUMPI POP PUSH1 0x40 DUP1 MLOAD PUSH1 0x1F RETURNDATASIZE SWAP1 DUP2 ADD PUSH1 0x1F NOT AND DUP3 ADD SWAP1 SWAP3 MSTORE PUSH2 0x4CA2 SWAP2 DUP2 ADD SWAP1 PUSH2 0x8EB8 JUMP JUMPDEST PUSH1 0x1 JUMPDEST PUSH2 0x4CAE JUMPI PUSH2 0x4CD6 JUMP JUMPDEST DUP3 DUP2 GT ISZERO PUSH2 0x4CD4 JUMPI DUP1 SWAP3 POP DUP9 PUSH1 0x20 ADD MLOAD DUP3 DUP2 MLOAD DUP2 LT PUSH2 0x4CC9 JUMPI INVALID JUMPDEST PUSH1 0x20 MUL PUSH1 0x20 ADD ADD MLOAD SWAP4 POP JUMPDEST POP JUMPDEST PUSH1 0x1 ADD PUSH2 0x4BC9 JUMP JUMPDEST POP POP SWAP5 POP SWAP5 SWAP3 POP POP POP JUMP JUMPDEST PUSH1 0x0 CHAINID DUP2 PUSH1 0x1 DUP3 EQ ISZERO PUSH2 0x4D11 JUMPI POP PUSH20 0xC02AAA39B223FE8D0A0E5C4F27EAD9083C756CC2 PUSH2 0x4DE6 JUMP JUMPDEST DUP2 PUSH1 0x3 EQ ISZERO PUSH2 0x4D35 JUMPI POP PUSH20 0xC778417E063141139FCE010982780140AA0CD5AB PUSH2 0x4DE6 JUMP JUMPDEST DUP2 PUSH1 0x4 EQ ISZERO PUSH2 0x4D59 JUMPI POP PUSH20 0xC778417E063141139FCE010982780140AA0CD5AB PUSH2 0x4DE6 JUMP JUMPDEST DUP2 PUSH1 0x2A EQ ISZERO PUSH2 0x4D7D JUMPI POP PUSH20 0xD0A1E359811322D97991E03F863A0C30C2CF029C PUSH2 0x4DE6 JUMP JUMPDEST DUP2 PUSH1 0x38 EQ ISZERO PUSH2 0x4DA1 JUMPI POP PUSH20 0xBB4CDB9CBD36B01BD1CBAEBF2DE08D9173BC095C PUSH2 0x4DE6 JUMP JUMPDEST DUP2 PUSH1 0x89 EQ ISZERO PUSH2 0x4DC5 JUMPI POP PUSH20 0xD500B1D8E8EF31E21C99D1DB9A6444D3ADF1270 PUSH2 0x4DE6 JUMP JUMPDEST DUP2 PUSH2 0x539 EQ ISZERO PUSH2 0x4DE6 JUMPI POP PUSH20 0xB1BA0AF832D7C05FD64161E0DB78E85978E8082 JUMPDEST PUSH1 0x1 PUSH1 0x1 PUSH1 0xA0 SHL SUB DUP2 AND PUSH2 0x4E0C JUMPI PUSH1 0x40 MLOAD PUSH3 0x461BCD PUSH1 0xE5 SHL DUP2 MSTORE PUSH1 0x4 ADD PUSH2 0x1519 SWAP1 PUSH2 0xA1D6 JUMP JUMPDEST SWAP2 POP POP SWAP1 JUMP JUMPDEST PUSH1 0x0 DUP1 DUP3 DUP1 PUSH1 0x20 ADD SWAP1 MLOAD DUP2 ADD SWAP1 PUSH2 0x4E29 SWAP2 SWAP1 PUSH2 0x8856 JUMP JUMPDEST SWAP1 POP PUSH1 0x0 DUP8 PUSH1 0x1 PUSH1 0x1 PUSH1 0xA0 SHL SUB AND DUP8 PUSH1 0x1 PUSH1 0x1 PUSH1 0xA0 SHL SUB AND EQ ISZERO PUSH2 0x4EAD JUMPI PUSH1 0x40 MLOAD PUSH4 0x2E1A7D4D PUSH1 0xE0 SHL DUP2 MSTORE PUSH1 0x1 PUSH1 0x1 PUSH1 0xA0 SHL SUB DUP10 AND SWAP1 PUSH4 0x2E1A7D4D SWAP1 PUSH2 0x4E73 SWAP1 DUP9 SWAP1 PUSH1 0x4 ADD PUSH2 0x9E57 JUMP JUMPDEST PUSH1 0x0 PUSH1 0x40 MLOAD DUP1 DUP4 SUB DUP2 PUSH1 0x0 DUP8 DUP1 EXTCODESIZE ISZERO DUP1 ISZERO PUSH2 0x4E8D JUMPI PUSH1 0x0 DUP1 REVERT JUMPDEST POP GAS CALL ISZERO DUP1 ISZERO PUSH2 0x4EA1 JUMPI RETURNDATASIZE PUSH1 0x0 DUP1 RETURNDATACOPY RETURNDATASIZE PUSH1 0x0 REVERT JUMPDEST POP POP POP POP DUP5 SWAP1 POP PUSH2 0x4EC1 JUMP JUMPDEST PUSH2 0x4EC1 PUSH1 0x1 PUSH1 0x1 PUSH1 0xA0 SHL SUB DUP9 AND DUP4 DUP8 PUSH2 0x7A52 JUMP JUMPDEST DUP2 PUSH1 0x1 PUSH1 0x1 PUSH1 0xA0 SHL SUB AND PUSH4 0xD5BCB9B5 DUP3 DUP11 PUSH1 0x1 PUSH1 0x1 PUSH1 0xA0 SHL SUB AND DUP11 PUSH1 0x1 PUSH1 0x1 PUSH1 0xA0 SHL SUB AND EQ PUSH2 0x4EF0 JUMPI DUP10 PUSH2 0x4EF3 JUMP JUMPDEST PUSH1 0x0 JUMPDEST DUP12 PUSH1 0x1 PUSH1 0x1 PUSH1 0xA0 SHL SUB AND DUP11 PUSH1 0x1 PUSH1 0x1 PUSH1 0xA0 SHL SUB AND EQ PUSH2 0x4F12 JUMPI DUP10 PUSH2 0x4F15 JUMP JUMPDEST PUSH1 0x0 JUMPDEST DUP10 PUSH1 0x1 PUSH1 0x0 PUSH1 0x40 MLOAD DUP8 PUSH4 0xFFFFFFFF AND PUSH1 0xE0 SHL DUP2 MSTORE PUSH1 0x4 ADD PUSH2 0x4F3A SWAP6 SWAP5 SWAP4 SWAP3 SWAP2 SWAP1 PUSH2 0x9F8B JUMP JUMPDEST PUSH1 0x20 PUSH1 0x40 MLOAD DUP1 DUP4 SUB DUP2 DUP6 DUP9 DUP1 EXTCODESIZE ISZERO DUP1 ISZERO PUSH2 0x4F53 JUMPI PUSH1 0x0 DUP1 REVERT JUMPDEST POP GAS CALL ISZERO DUP1 ISZERO PUSH2 0x4F67 JUMPI RETURNDATASIZE PUSH1 0x0 DUP1 RETURNDATACOPY RETURNDATASIZE PUSH1 0x0 REVERT JUMPDEST POP POP POP POP POP PUSH1 0x40 MLOAD RETURNDATASIZE PUSH1 0x1F NOT PUSH1 0x1F DUP3 ADD AND DUP3 ADD DUP1 PUSH1 0x40 MSTORE POP DUP2 ADD SWAP1 PUSH2 0x4F8C SWAP2 SWAP1 PUSH2 0x8EB8 JUMP JUMPDEST SWAP3 POP DUP8 PUSH1 0x1 PUSH1 0x1 PUSH1 0xA0 SHL SUB AND DUP7 PUSH1 0x1 PUSH1 0x1 PUSH1 0xA0 SHL SUB AND EQ ISZERO PUSH2 0x4FFD JUMPI DUP8 PUSH1 0x1 PUSH1 0x1 PUSH1 0xA0 SHL SUB AND PUSH4 0xD0E30DB0 DUP5 PUSH1 0x40 MLOAD DUP3 PUSH4 0xFFFFFFFF AND PUSH1 0xE0 SHL DUP2 MSTORE PUSH1 0x4 ADD PUSH1 0x0 PUSH1 0x40 MLOAD DUP1 DUP4 SUB DUP2 DUP6 DUP9 DUP1 EXTCODESIZE ISZERO DUP1 ISZERO PUSH2 0x4FE3 JUMPI PUSH1 0x0 DUP1 REVERT JUMPDEST POP GAS CALL ISZERO DUP1 ISZERO PUSH2 0x4FF7 JUMPI RETURNDATASIZE PUSH1 0x0 DUP1 RETURNDATACOPY RETURNDATASIZE PUSH1 0x0 REVERT JUMPDEST POP POP POP POP POP JUMPDEST POP POP SWAP6 SWAP5 POP POP POP POP POP JUMP JUMPDEST PUSH1 0x0 DUP1 DUP3 MLOAD PUSH1 0x40 EQ PUSH2 0x501F JUMPI POP PUSH1 0x0 SWAP1 POP DUP1 PUSH2 0x5038 JUMP JUMPDEST DUP3 DUP1 PUSH1 0x20 ADD SWAP1 MLOAD DUP2 ADD SWAP1 PUSH2 0x5033 SWAP2 SWAP1 PUSH2 0x9677 JUMP JUMPDEST SWAP2 POP SWAP2 POP JUMPDEST SWAP2 POP SWAP2 JUMP JUMPDEST PUSH1 0x60 DUP3 DUP3 PUSH1 0x40 MLOAD PUSH1 0x20 ADD PUSH2 0x5052 SWAP3 SWAP2 SWAP1 PUSH2 0x9DFB JUMP JUMPDEST PUSH1 0x40 MLOAD PUSH1 0x20 DUP2 DUP4 SUB SUB DUP2 MSTORE SWAP1 PUSH1 0x40 MSTORE SWAP1 POP DUP1 MLOAD PUSH1 0x20 DUP3 ADD REVERT JUMPDEST PUSH1 0x0 DUP1 PUSH1 0x60 DUP4 DUP1 PUSH1 0x20 ADD SWAP1 MLOAD DUP2 ADD SWAP1 PUSH2 0x5084 SWAP2 SWAP1 PUSH2 0x90BA JUMP JUMPDEST SWAP1 SWAP3 POP SWAP1 POP PUSH2 0x509D PUSH1 0x1 PUSH1 0x1 PUSH1 0xA0 SHL SUB DUP8 AND DUP4 DUP8 PUSH2 0x7A52 JUMP JUMPDEST PUSH1 0x40 DUP1 MLOAD PUSH1 0xA0 DUP2 ADD DUP3 MSTORE DUP3 DUP2 MSTORE ADDRESS PUSH1 0x20 DUP3 ADD MSTORE TIMESTAMP DUP2 DUP4 ADD MSTORE PUSH1 0x60 DUP2 ADD DUP8 SWAP1 MSTORE PUSH1 0x1 PUSH1 0x80 DUP3 ADD MSTORE SWAP1 MLOAD PUSH4 0xC04B8D59 PUSH1 0xE0 SHL DUP2 MSTORE PUSH1 0x1 PUSH1 0x1 PUSH1 0xA0 SHL SUB DUP5 AND SWAP2 PUSH4 0xC04B8D59 SWAP2 PUSH2 0x50ED SWAP2 SWAP1 PUSH1 0x4 ADD PUSH2 0xA4E2 JUMP JUMPDEST PUSH1 0x20 PUSH1 0x40 MLOAD DUP1 DUP4 SUB DUP2 PUSH1 0x0 DUP8 DUP1 EXTCODESIZE ISZERO DUP1 ISZERO PUSH2 0x5107 JUMPI PUSH1 0x0 DUP1 REVERT JUMPDEST POP GAS CALL ISZERO DUP1 ISZERO PUSH2 0x511B JUMPI RETURNDATASIZE PUSH1 0x0 DUP1 RETURNDATACOPY RETURNDATASIZE PUSH1 0x0 REVERT JUMPDEST POP POP POP POP PUSH1 0x40 MLOAD RETURNDATASIZE PUSH1 0x1F NOT PUSH1 0x1F DUP3 ADD AND DUP3 ADD DUP1 PUSH1 0x40 MSTORE POP DUP2 ADD SWAP1 PUSH2 0x513F SWAP2 SWAP1 PUSH2 0x8EB8 JUMP JUMPDEST SWAP7 SWAP6 POP POP POP POP POP POP JUMP JUMPDEST PUSH1 0x0 DUP1 DUP3 DUP1 PUSH1 0x20 ADD SWAP1 MLOAD DUP2 ADD SWAP1 PUSH2 0x5160 SWAP2 SWAP1 PUSH2 0x8856 JUMP JUMPDEST SWAP1 POP PUSH2 0x5176 PUSH1 0x1 PUSH1 0x1 PUSH1 0xA0 SHL SUB DUP8 AND DUP3 DUP7 PUSH2 0x7A52 JUMP JUMPDEST PUSH1 0x40 MLOAD PUSH4 0x310DA7B PUSH1 0xE1 SHL DUP2 MSTORE PUSH1 0x1 PUSH1 0x1 PUSH1 0xA0 SHL SUB DUP3 AND SWAP1 PUSH4 0x621B4F6 SWAP1 PUSH2 0x50ED SWAP1 DUP10 SWAP1 DUP9 SWAP1 DUP11 SWAP1 PUSH1 0x1 SWAP1 PUSH1 0x4 ADD PUSH2 0xA03E JUMP JUMPDEST PUSH1 0x0 PUSH2 0x11D7 DUP4 PUSH2 0x51CD PUSH2 0x51BD DUP3 PUSH1 0x1 PUSH2 0x7AE5 JUMP JUMPDEST PUSH2 0x51C7 DUP9 DUP8 PUSH2 0x7B09 JUMP JUMPDEST SWAP1 PUSH2 0x7B3A JUMP JUMPDEST SWAP1 PUSH2 0x7B56 JUMP JUMPDEST PUSH1 0x0 PUSH2 0x51DD PUSH2 0x8173 JUMP JUMPDEST DUP3 DUP1 PUSH1 0x20 ADD SWAP1 MLOAD DUP2 ADD SWAP1 PUSH2 0x51F1 SWAP2 SWAP1 PUSH2 0x9319 JUMP JUMPDEST DUP1 MLOAD SWAP1 SWAP2 POP PUSH2 0x520B SWAP1 PUSH1 0x1 PUSH1 0x1 PUSH1 0xA0 SHL SUB DUP9 AND SWAP1 DUP7 PUSH2 0x7A52 JUMP JUMPDEST PUSH1 0x40 MLOAD PUSH4 0x70A08231 PUSH1 0xE0 SHL DUP2 MSTORE PUSH1 0x0 SWAP1 PUSH1 0x1 PUSH1 0x1 PUSH1 0xA0 SHL SUB DUP8 AND SWAP1 PUSH4 0x70A08231 SWAP1 PUSH2 0x523A SWAP1 ADDRESS SWAP1 PUSH1 0x4 ADD PUSH2 0x993B JUMP JUMPDEST PUSH1 0x20 PUSH1 0x40 MLOAD DUP1 DUP4 SUB DUP2 DUP7 DUP1 EXTCODESIZE ISZERO DUP1 ISZERO PUSH2 0x5252 JUMPI PUSH1 0x0 DUP1 REVERT JUMPDEST POP GAS STATICCALL ISZERO DUP1 ISZERO PUSH2 0x5266 JUMPI RETURNDATASIZE PUSH1 0x0 DUP1 RETURNDATACOPY RETURNDATASIZE PUSH1 0x0 REVERT JUMPDEST POP POP POP POP PUSH1 0x40 MLOAD RETURNDATASIZE PUSH1 0x1F NOT PUSH1 0x1F DUP3 ADD AND DUP3 ADD DUP1 PUSH1 0x40 MSTORE POP DUP2 ADD SWAP1 PUSH2 0x528A SWAP2 SWAP1 PUSH2 0x8EB8 JUMP JUMPDEST SWAP1 POP PUSH1 0x0 PUSH1 0x60 DUP4 PUSH1 0x0 ADD MLOAD PUSH1 0x1 PUSH1 0x1 PUSH1 0xA0 SHL SUB AND DUP5 PUSH1 0x20 ADD MLOAD DUP6 PUSH1 0x40 ADD MLOAD DUP7 PUSH1 0x60 ADD MLOAD DUP11 PUSH1 0x1 PUSH1 0x40 MLOAD PUSH1 0x24 ADD PUSH2 0x52C3 SWAP5 SWAP4 SWAP3 SWAP2 SWAP1 PUSH2 0xA0CB JUMP JUMPDEST PUSH1 0x40 DUP1 MLOAD PUSH1 0x1F NOT DUP2 DUP5 SUB ADD DUP2 MSTORE SWAP2 DUP2 MSTORE PUSH1 0x20 DUP3 ADD DUP1 MLOAD PUSH1 0x1 PUSH1 0x1 PUSH1 0xE0 SHL SUB AND PUSH1 0x1 PUSH1 0x1 PUSH1 0xE0 SHL SUB NOT SWAP1 SWAP5 AND SWAP4 SWAP1 SWAP4 OR SWAP1 SWAP3 MSTORE SWAP1 MLOAD PUSH2 0x5301 SWAP2 SWAP1 PUSH2 0x991F JUMP JUMPDEST PUSH1 0x0 PUSH1 0x40 MLOAD DUP1 DUP4 SUB DUP2 PUSH1 0x0 DUP7 GAS CALL SWAP2 POP POP RETURNDATASIZE DUP1 PUSH1 0x0 DUP2 EQ PUSH2 0x533E JUMPI PUSH1 0x40 MLOAD SWAP2 POP PUSH1 0x1F NOT PUSH1 0x3F RETURNDATASIZE ADD AND DUP3 ADD PUSH1 0x40 MSTORE RETURNDATASIZE DUP3 MSTORE RETURNDATASIZE PUSH1 0x0 PUSH1 0x20 DUP5 ADD RETURNDATACOPY PUSH2 0x5343 JUMP JUMPDEST PUSH1 0x60 SWAP2 POP JUMPDEST POP SWAP2 POP SWAP2 POP DUP2 PUSH2 0x5356 JUMPI PUSH2 0x5356 DUP2 PUSH2 0x5BAA JUMP JUMPDEST PUSH2 0x53DC DUP4 DUP10 PUSH1 0x1 PUSH1 0x1 PUSH1 0xA0 SHL SUB AND PUSH4 0x70A08231 ADDRESS PUSH1 0x40 MLOAD DUP3 PUSH4 0xFFFFFFFF AND PUSH1 0xE0 SHL DUP2 MSTORE PUSH1 0x4 ADD PUSH2 0x5386 SWAP2 SWAP1 PUSH2 0x993B JUMP JUMPDEST PUSH1 0x20 PUSH1 0x40 MLOAD DUP1 DUP4 SUB DUP2 DUP7 DUP1 EXTCODESIZE ISZERO DUP1 ISZERO PUSH2 0x539E JUMPI PUSH1 0x0 DUP1 REVERT JUMPDEST POP GAS STATICCALL ISZERO DUP1 ISZERO PUSH2 0x53B2 JUMPI RETURNDATASIZE PUSH1 0x0 DUP1 RETURNDATACOPY RETURNDATASIZE PUSH1 0x0 REVERT JUMPDEST POP POP POP POP PUSH1 0x40 MLOAD RETURNDATASIZE PUSH1 0x1F NOT PUSH1 0x1F DUP3 ADD AND DUP3 ADD DUP1 PUSH1 0x40 MSTORE POP DUP2 ADD SWAP1 PUSH2 0x53D6 SWAP2 SWAP1 PUSH2 0x8EB8 JUMP JUMPDEST SWAP1 PUSH2 0x7AE5 JUMP JUMPDEST SWAP10 SWAP9 POP POP POP POP POP POP POP POP POP JUMP JUMPDEST PUSH1 0x0 DUP1 DUP3 DUP1 PUSH1 0x20 ADD SWAP1 MLOAD DUP2 ADD SWAP1 PUSH2 0x5400 SWAP2 SWAP1 PUSH2 0x8856 JUMP JUMPDEST SWAP1 POP PUSH2 0x5416 PUSH1 0x1 PUSH1 0x1 PUSH1 0xA0 SHL SUB DUP8 AND DUP3 DUP7 PUSH2 0x7A52 JUMP JUMPDEST PUSH1 0x40 MLOAD PUSH4 0x164B079 PUSH1 0xE3 SHL DUP2 MSTORE PUSH1 0x1 PUSH1 0x1 PUSH1 0xA0 SHL SUB DUP3 AND SWAP1 PUSH4 0xB2583C8 SWAP1 PUSH2 0x50ED SWAP1 DUP10 SWAP1 DUP10 SWAP1 DUP10 SWAP1 PUSH1 0x1 SWAP1 TIMESTAMP DUP3 ADD SWAP1 PUSH1 0x4 ADD PUSH2 0x9FBB JUMP JUMPDEST PUSH1 0x60 PUSH1 0x2 DUP3 DUP5 MLOAD SUB LT ISZERO PUSH2 0x5473 JUMPI PUSH1 0x40 MLOAD PUSH3 0x461BCD PUSH1 0xE5 SHL DUP2 MSTORE PUSH1 0x4 ADD PUSH2 0x1519 SWAP1 PUSH2 0xA10F JUMP JUMPDEST PUSH2 0x547B PUSH2 0x819A JUMP JUMPDEST POP PUSH1 0x40 DUP1 MLOAD PUSH1 0x60 DUP1 DUP3 ADD DUP4 MSTORE PUSH2 0x1F4 DUP3 MSTORE PUSH2 0xBB8 PUSH1 0x20 DUP4 ADD MSTORE PUSH2 0x2710 DUP3 DUP5 ADD MSTORE DUP3 MLOAD PUSH1 0x3 DUP1 DUP3 MSTORE PUSH1 0x80 DUP3 ADD SWAP1 SWAP5 MSTORE SWAP2 SWAP3 SWAP1 SWAP2 SWAP1 DUP2 PUSH1 0x20 ADD PUSH1 0x20 DUP3 MUL DUP1 CALLDATASIZE DUP4 CALLDATACOPY ADD SWAP1 POP POP SWAP1 POP PUSH1 0x0 DUP1 DUP7 DUP7 DUP2 MLOAD DUP2 LT PUSH2 0x54CF JUMPI INVALID JUMPDEST PUSH1 0x20 MUL PUSH1 0x20 ADD ADD MLOAD SWAP1 POP PUSH1 0x0 DUP8 DUP8 PUSH1 0x1 ADD DUP2 MLOAD DUP2 LT PUSH2 0x54EA JUMPI INVALID JUMPDEST PUSH1 0x20 MUL PUSH1 0x20 ADD ADD MLOAD SWAP1 POP PUSH1 0x0 JUMPDEST PUSH1 0x3 DUP2 LT ISZERO PUSH2 0x55DF JUMPI PUSH1 0x0 DUP11 PUSH1 0x1 PUSH1 0x1 PUSH1 0xA0 SHL SUB AND PUSH4 0x1698EE82 DUP6 DUP6 DUP11 DUP7 PUSH1 0x3 DUP2 LT PUSH2 0x551F JUMPI INVALID JUMPDEST PUSH1 0x20 MUL ADD MLOAD PUSH1 0x40 MLOAD DUP5 PUSH4 0xFFFFFFFF AND PUSH1 0xE0 SHL DUP2 MSTORE PUSH1 0x4 ADD PUSH2 0x5542 SWAP4 SWAP3 SWAP2 SWAP1 PUSH2 0x9F63 JUMP JUMPDEST PUSH1 0x20 PUSH1 0x40 MLOAD DUP1 DUP4 SUB DUP2 DUP7 DUP1 EXTCODESIZE ISZERO DUP1 ISZERO PUSH2 0x555A JUMPI PUSH1 0x0 DUP1 REVERT JUMPDEST POP GAS STATICCALL ISZERO DUP1 ISZERO PUSH2 0x556E JUMPI RETURNDATASIZE PUSH1 0x0 DUP1 RETURNDATACOPY RETURNDATASIZE PUSH1 0x0 REVERT JUMPDEST POP POP POP POP PUSH1 0x40 MLOAD RETURNDATASIZE PUSH1 0x1F NOT PUSH1 0x1F DUP3 ADD AND DUP3 ADD DUP1 PUSH1 0x40 MSTORE POP DUP2 ADD SWAP1 PUSH2 0x5592 SWAP2 SWAP1 PUSH2 0x8856 JUMP JUMPDEST SWAP1 POP PUSH2 0x559D DUP2 PUSH2 0x7B80 JUMP JUMPDEST ISZERO PUSH2 0x55D6 JUMPI DUP1 DUP7 DUP7 DUP1 PUSH1 0x1 ADD SWAP8 POP DUP2 MLOAD DUP2 LT PUSH2 0x55B5 JUMPI INVALID JUMPDEST PUSH1 0x20 MUL PUSH1 0x20 ADD ADD SWAP1 PUSH1 0x1 PUSH1 0x1 PUSH1 0xA0 SHL SUB AND SWAP1 DUP2 PUSH1 0x1 PUSH1 0x1 PUSH1 0xA0 SHL SUB AND DUP2 MSTORE POP POP JUMPDEST POP PUSH1 0x1 ADD PUSH2 0x54F7 JUMP JUMPDEST POP POP POP DUP1 PUSH2 0x55EF JUMPI POP POP POP PUSH2 0x2DC3 JUMP JUMPDEST DUP6 MLOAD DUP6 PUSH1 0x2 ADD EQ ISZERO PUSH2 0x56E5 JUMPI DUP1 PUSH1 0x1 PUSH1 0x1 PUSH1 0x40 SHL SUB DUP2 GT DUP1 ISZERO PUSH2 0x5611 JUMPI PUSH1 0x0 DUP1 REVERT JUMPDEST POP PUSH1 0x40 MLOAD SWAP1 DUP1 DUP3 MSTORE DUP1 PUSH1 0x20 MUL PUSH1 0x20 ADD DUP3 ADD PUSH1 0x40 MSTORE DUP1 ISZERO PUSH2 0x5645 JUMPI DUP2 PUSH1 0x20 ADD JUMPDEST PUSH1 0x60 DUP2 MSTORE PUSH1 0x20 ADD SWAP1 PUSH1 0x1 SWAP1 SUB SWAP1 DUP2 PUSH2 0x5630 JUMPI SWAP1 POP JUMPDEST POP SWAP4 POP PUSH1 0x0 JUMPDEST DUP2 DUP2 LT ISZERO PUSH2 0x56DC JUMPI PUSH1 0x40 DUP1 MLOAD PUSH1 0x1 DUP1 DUP3 MSTORE DUP2 DUP4 ADD SWAP1 SWAP3 MSTORE SWAP1 PUSH1 0x20 DUP1 DUP4 ADD SWAP1 DUP1 CALLDATASIZE DUP4 CALLDATACOPY ADD SWAP1 POP POP DUP6 DUP3 DUP2 MLOAD DUP2 LT PUSH2 0x567D JUMPI INVALID JUMPDEST PUSH1 0x20 MUL PUSH1 0x20 ADD ADD DUP2 SWAP1 MSTORE POP DUP3 DUP2 DUP2 MLOAD DUP2 LT PUSH2 0x5694 JUMPI INVALID JUMPDEST PUSH1 0x20 MUL PUSH1 0x20 ADD ADD MLOAD DUP6 DUP3 DUP2 MLOAD DUP2 LT PUSH2 0x56A8 JUMPI INVALID JUMPDEST PUSH1 0x20 MUL PUSH1 0x20 ADD ADD MLOAD PUSH1 0x0 DUP2 MLOAD DUP2 LT PUSH2 0x56BC JUMPI INVALID JUMPDEST PUSH1 0x1 PUSH1 0x1 PUSH1 0xA0 SHL SUB SWAP1 SWAP3 AND PUSH1 0x20 SWAP3 DUP4 MUL SWAP2 SWAP1 SWAP2 ADD SWAP1 SWAP2 ADD MSTORE PUSH1 0x1 ADD PUSH2 0x564B JUMP JUMPDEST POP POP POP POP PUSH2 0x2DC3 JUMP JUMPDEST PUSH1 0x60 PUSH2 0x56F5 DUP9 DUP9 DUP9 PUSH1 0x1 ADD PUSH2 0x544D JUMP JUMPDEST SWAP1 POP DUP1 MLOAD PUSH1 0x0 EQ ISZERO PUSH2 0x570A JUMPI POP POP POP POP PUSH2 0x2DC3 JUMP JUMPDEST DUP1 MLOAD DUP3 MUL PUSH1 0x1 PUSH1 0x1 PUSH1 0x40 SHL SUB DUP2 GT DUP1 ISZERO PUSH2 0x5723 JUMPI PUSH1 0x0 DUP1 REVERT JUMPDEST POP PUSH1 0x40 MLOAD SWAP1 DUP1 DUP3 MSTORE DUP1 PUSH1 0x20 MUL PUSH1 0x20 ADD DUP3 ADD PUSH1 0x40 MSTORE DUP1 ISZERO PUSH2 0x5757 JUMPI DUP2 PUSH1 0x20 ADD JUMPDEST PUSH1 0x60 DUP2 MSTORE PUSH1 0x20 ADD SWAP1 PUSH1 0x1 SWAP1 SUB SWAP1 DUP2 PUSH2 0x5742 JUMPI SWAP1 POP JUMPDEST POP SWAP5 POP PUSH1 0x0 JUMPDEST DUP3 DUP2 LT ISZERO PUSH2 0x58D7 JUMPI PUSH1 0x0 JUMPDEST DUP3 MLOAD DUP2 LT ISZERO PUSH2 0x58CE JUMPI DUP3 MLOAD DUP3 DUP2 MUL DUP3 ADD SWAP1 DUP5 SWAP1 DUP4 SWAP1 DUP2 LT PUSH2 0x5785 JUMPI INVALID JUMPDEST PUSH1 0x20 MUL PUSH1 0x20 ADD ADD MLOAD MLOAD PUSH1 0x1 ADD PUSH1 0x1 PUSH1 0x1 PUSH1 0x40 SHL SUB DUP2 GT DUP1 ISZERO PUSH2 0x57A6 JUMPI PUSH1 0x0 DUP1 REVERT JUMPDEST POP PUSH1 0x40 MLOAD SWAP1 DUP1 DUP3 MSTORE DUP1 PUSH1 0x20 MUL PUSH1 0x20 ADD DUP3 ADD PUSH1 0x40 MSTORE DUP1 ISZERO PUSH2 0x57D0 JUMPI DUP2 PUSH1 0x20 ADD PUSH1 0x20 DUP3 MUL DUP1 CALLDATASIZE DUP4 CALLDATACOPY ADD SWAP1 POP JUMPDEST POP DUP9 DUP3 DUP2 MLOAD DUP2 LT PUSH2 0x57DD JUMPI INVALID JUMPDEST PUSH1 0x20 MUL PUSH1 0x20 ADD ADD DUP2 SWAP1 MSTORE POP DUP6 DUP4 DUP2 MLOAD DUP2 LT PUSH2 0x57F4 JUMPI INVALID JUMPDEST PUSH1 0x20 MUL PUSH1 0x20 ADD ADD MLOAD DUP9 DUP3 DUP2 MLOAD DUP2 LT PUSH2 0x5808 JUMPI INVALID JUMPDEST PUSH1 0x20 MUL PUSH1 0x20 ADD ADD MLOAD PUSH1 0x0 DUP2 MLOAD DUP2 LT PUSH2 0x581C JUMPI INVALID JUMPDEST PUSH1 0x20 MUL PUSH1 0x20 ADD ADD SWAP1 PUSH1 0x1 PUSH1 0x1 PUSH1 0xA0 SHL SUB AND SWAP1 DUP2 PUSH1 0x1 PUSH1 0x1 PUSH1 0xA0 SHL SUB AND DUP2 MSTORE POP POP PUSH1 0x0 JUMPDEST DUP5 DUP4 DUP2 MLOAD DUP2 LT PUSH2 0x584B JUMPI INVALID JUMPDEST PUSH1 0x20 MUL PUSH1 0x20 ADD ADD MLOAD MLOAD DUP2 LT ISZERO PUSH2 0x58C4 JUMPI DUP5 DUP4 DUP2 MLOAD DUP2 LT PUSH2 0x5867 JUMPI INVALID JUMPDEST PUSH1 0x20 MUL PUSH1 0x20 ADD ADD MLOAD DUP2 DUP2 MLOAD DUP2 LT PUSH2 0x587A JUMPI INVALID JUMPDEST PUSH1 0x20 MUL PUSH1 0x20 ADD ADD MLOAD DUP10 DUP4 DUP2 MLOAD DUP2 LT PUSH2 0x588E JUMPI INVALID JUMPDEST PUSH1 0x20 MUL PUSH1 0x20 ADD ADD MLOAD DUP3 PUSH1 0x1 ADD DUP2 MLOAD DUP2 LT PUSH2 0x58A4 JUMPI INVALID JUMPDEST PUSH1 0x1 PUSH1 0x1 PUSH1 0xA0 SHL SUB SWAP1 SWAP3 AND PUSH1 0x20 SWAP3 DUP4 MUL SWAP2 SWAP1 SWAP2 ADD SWAP1 SWAP2 ADD MSTORE PUSH1 0x1 ADD PUSH2 0x583F JUMP JUMPDEST POP POP PUSH1 0x1 ADD PUSH2 0x5768 JUMP JUMPDEST POP PUSH1 0x1 ADD PUSH2 0x575D JUMP JUMPDEST POP POP POP POP POP SWAP4 SWAP3 POP POP POP JUMP JUMPDEST PUSH1 0x60 PUSH1 0x2 DUP4 MLOAD LT ISZERO DUP1 ISZERO PUSH2 0x58FB JUMPI POP DUP2 MLOAD PUSH1 0x1 ADD DUP4 MLOAD EQ JUMPDEST PUSH2 0x5917 JUMPI PUSH1 0x40 MLOAD PUSH3 0x461BCD PUSH1 0xE5 SHL DUP2 MSTORE PUSH1 0x4 ADD PUSH2 0x1519 SWAP1 PUSH2 0xA26A JUMP JUMPDEST DUP2 MLOAD PUSH1 0x3 MUL DUP4 MLOAD PUSH1 0x14 MUL ADD PUSH1 0x1 PUSH1 0x1 PUSH1 0x40 SHL SUB DUP2 GT DUP1 ISZERO PUSH2 0x5937 JUMPI PUSH1 0x0 DUP1 REVERT JUMPDEST POP PUSH1 0x40 MLOAD SWAP1 DUP1 DUP3 MSTORE DUP1 PUSH1 0x1F ADD PUSH1 0x1F NOT AND PUSH1 0x20 ADD DUP3 ADD PUSH1 0x40 MSTORE DUP1 ISZERO PUSH2 0x5962 JUMPI PUSH1 0x20 DUP3 ADD DUP2 DUP1 CALLDATASIZE DUP4 CALLDATACOPY ADD SWAP1 POP JUMPDEST POP SWAP1 POP PUSH1 0x20 DUP2 ADD PUSH1 0x0 JUMPDEST DUP5 MLOAD DUP2 LT ISZERO PUSH2 0x4506 JUMPI DUP1 ISZERO PUSH2 0x5A11 JUMPI PUSH1 0x0 DUP5 PUSH1 0x1 DUP4 SUB DUP2 MLOAD DUP2 LT PUSH2 0x598C JUMPI INVALID JUMPDEST PUSH1 0x20 MUL PUSH1 0x20 ADD ADD MLOAD PUSH1 0x1 PUSH1 0x1 PUSH1 0xA0 SHL SUB AND PUSH4 0xDDCA3F43 PUSH1 0x40 MLOAD DUP2 PUSH4 0xFFFFFFFF AND PUSH1 0xE0 SHL DUP2 MSTORE PUSH1 0x4 ADD PUSH1 0x20 PUSH1 0x40 MLOAD DUP1 DUP4 SUB DUP2 DUP7 DUP1 EXTCODESIZE ISZERO DUP1 ISZERO PUSH2 0x59CC JUMPI PUSH1 0x0 DUP1 REVERT JUMPDEST POP GAS STATICCALL ISZERO DUP1 ISZERO PUSH2 0x59E0 JUMPI RETURNDATASIZE PUSH1 0x0 DUP1 RETURNDATACOPY RETURNDATASIZE PUSH1 0x0 REVERT JUMPDEST POP POP POP POP PUSH1 0x40 MLOAD RETURNDATASIZE PUSH1 0x1F NOT PUSH1 0x1F DUP3 ADD AND DUP3 ADD DUP1 PUSH1 0x40 MSTORE POP DUP2 ADD SWAP1 PUSH2 0x5A04 SWAP2 SWAP1 PUSH2 0x9654 JUMP JUMPDEST PUSH1 0xE8 SHL DUP4 MSTORE POP PUSH1 0x3 SWAP1 SWAP2 ADD SWAP1 JUMPDEST PUSH1 0x0 DUP6 DUP3 DUP2 MLOAD DUP2 LT PUSH2 0x5A1F JUMPI INVALID JUMPDEST PUSH1 0x20 SWAP1 DUP2 MUL SWAP2 SWAP1 SWAP2 ADD ADD MLOAD PUSH1 0x60 SHL DUP4 MSTORE POP PUSH1 0x14 SWAP1 SWAP2 ADD SWAP1 PUSH1 0x1 ADD PUSH2 0x596C JUMP JUMPDEST PUSH1 0x0 PUSH1 0x12 SWAP1 POP PUSH1 0x0 PUSH1 0x60 DUP4 PUSH1 0x1 PUSH1 0x1 PUSH1 0xA0 SHL SUB AND PUSH1 0x40 MLOAD DUP1 PUSH1 0x40 ADD PUSH1 0x40 MSTORE DUP1 PUSH1 0x4 DUP2 MSTORE PUSH1 0x20 ADD PUSH4 0x313CE567 PUSH1 0xE0 SHL DUP2 MSTORE POP PUSH1 0x40 MLOAD PUSH2 0x5A7C SWAP2 SWAP1 PUSH2 0x991F JUMP JUMPDEST PUSH1 0x0 PUSH1 0x40 MLOAD DUP1 DUP4 SUB DUP2 DUP6 GAS STATICCALL SWAP2 POP POP RETURNDATASIZE DUP1 PUSH1 0x0 DUP2 EQ PUSH2 0x5AB7 JUMPI PUSH1 0x40 MLOAD SWAP2 POP PUSH1 0x1F NOT PUSH1 0x3F RETURNDATASIZE ADD AND DUP3 ADD PUSH1 0x40 MSTORE RETURNDATASIZE DUP3 MSTORE RETURNDATASIZE PUSH1 0x0 PUSH1 0x20 DUP5 ADD RETURNDATACOPY PUSH2 0x5ABC JUMP JUMPDEST PUSH1 0x60 SWAP2 POP JUMPDEST POP SWAP2 POP SWAP2 POP DUP2 DUP1 ISZERO PUSH2 0x5AD0 JUMPI POP PUSH1 0x20 DUP2 MLOAD LT ISZERO JUMPDEST ISZERO PUSH2 0x5AE3 JUMPI PUSH2 0x5AE0 DUP2 PUSH1 0x0 PUSH2 0x601F JUMP JUMPDEST SWAP3 POP JUMPDEST POP POP SWAP2 SWAP1 POP JUMP JUMPDEST PUSH1 0x0 DUP1 DUP3 DUP1 PUSH1 0x20 ADD SWAP1 MLOAD DUP2 ADD SWAP1 PUSH2 0x5B01 SWAP2 SWAP1 PUSH2 0x8856 JUMP JUMPDEST SWAP1 POP PUSH2 0x5B17 PUSH1 0x1 PUSH1 0x1 PUSH1 0xA0 SHL SUB DUP8 AND DUP3 DUP7 PUSH2 0x7A52 JUMP JUMPDEST PUSH1 0x40 MLOAD PUSH4 0x8201AA3F PUSH1 0xE0 SHL DUP2 MSTORE PUSH1 0x1 PUSH1 0x1 PUSH1 0xA0 SHL SUB DUP3 AND SWAP1 PUSH4 0x8201AA3F SWAP1 PUSH2 0x5B4E SWAP1 DUP10 SWAP1 DUP9 SWAP1 DUP11 SWAP1 PUSH1 0x1 SWAP1 PUSH1 0x0 NOT SWAP1 PUSH1 0x4 ADD PUSH2 0xA068 JUMP JUMPDEST PUSH1 0x40 DUP1 MLOAD DUP1 DUP4 SUB DUP2 PUSH1 0x0 DUP8 DUP1 EXTCODESIZE ISZERO DUP1 ISZERO PUSH2 0x5B67 JUMPI PUSH1 0x0 DUP1 REVERT JUMPDEST POP GAS CALL ISZERO DUP1 ISZERO PUSH2 0x5B7B JUMPI RETURNDATASIZE PUSH1 0x0 DUP1 RETURNDATACOPY RETURNDATASIZE PUSH1 0x0 REVERT JUMPDEST POP POP POP POP PUSH1 0x40 MLOAD RETURNDATASIZE PUSH1 0x1F NOT PUSH1 0x1F DUP3 ADD AND DUP3 ADD DUP1 PUSH1 0x40 MSTORE POP DUP2 ADD SWAP1 PUSH2 0x5B9F SWAP2 SWAP1 PUSH2 0x9677 JUMP JUMPDEST POP SWAP7 SWAP6 POP POP POP POP POP POP JUMP JUMPDEST DUP1 MLOAD PUSH1 0x20 DUP3 ADD REVERT JUMPDEST DUP2 PUSH1 0x0 MSTORE DUP1 PUSH1 0x20 MSTORE PUSH1 0x40 PUSH1 0x0 REVERT JUMPDEST PUSH1 0x0 DUP1 PUSH1 0x60 DUP1 DUP5 DUP1 PUSH1 0x20 ADD SWAP1 MLOAD DUP2 ADD SWAP1 PUSH2 0x5BDA SWAP2 SWAP1 PUSH2 0x8872 JUMP JUMPDEST DUP2 MLOAD SWAP3 SWAP6 POP SWAP1 SWAP4 POP SWAP2 POP PUSH1 0x1 GT ISZERO PUSH2 0x5C04 JUMPI PUSH1 0x40 MLOAD PUSH3 0x461BCD PUSH1 0xE5 SHL DUP2 MSTORE PUSH1 0x4 ADD PUSH2 0x1519 SWAP1 PUSH2 0xA408 JUMP JUMPDEST DUP2 MLOAD PUSH1 0x1 ADD DUP2 MLOAD EQ PUSH2 0x5C28 JUMPI PUSH1 0x40 MLOAD PUSH3 0x461BCD PUSH1 0xE5 SHL DUP2 MSTORE PUSH1 0x4 ADD PUSH2 0x1519 SWAP1 PUSH2 0xA2FE JUMP JUMPDEST DUP7 PUSH1 0x1 PUSH1 0x1 PUSH1 0xA0 SHL SUB AND DUP2 PUSH1 0x1 DUP4 MLOAD SUB DUP2 MLOAD DUP2 LT PUSH2 0x5C42 JUMPI INVALID JUMPDEST PUSH1 0x20 MUL PUSH1 0x20 ADD ADD MLOAD PUSH1 0x1 PUSH1 0x1 PUSH1 0xA0 SHL SUB AND EQ PUSH2 0x5C70 JUMPI PUSH1 0x40 MLOAD PUSH3 0x461BCD PUSH1 0xE5 SHL DUP2 MSTORE PUSH1 0x4 ADD PUSH2 0x1519 SWAP1 PUSH2 0xA20D JUMP JUMPDEST PUSH2 0x5CA2 DUP4 DUP8 DUP4 PUSH1 0x0 DUP2 MLOAD DUP2 LT PUSH2 0x5C82 JUMPI INVALID JUMPDEST PUSH1 0x20 MUL PUSH1 0x20 ADD ADD MLOAD PUSH1 0x1 PUSH1 0x1 PUSH1 0xA0 SHL SUB AND PUSH2 0x7A52 SWAP1 SWAP3 SWAP2 SWAP1 PUSH4 0xFFFFFFFF AND JUMP JUMPDEST PUSH1 0x40 MLOAD PUSH4 0xCEB757D5 PUSH1 0xE0 SHL DUP2 MSTORE PUSH1 0x60 SWAP1 PUSH1 0x1 PUSH1 0x1 PUSH1 0xA0 SHL SUB DUP6 AND SWAP1 PUSH4 0xCEB757D5 SWAP1 PUSH2 0x5CDC SWAP1 DUP11 SWAP1 PUSH1 0x1 SWAP1 DUP9 SWAP1 DUP9 SWAP1 ADDRESS SWAP1 TIMESTAMP SWAP1 PUSH1 0x4 ADD PUSH2 0xA727 JUMP JUMPDEST PUSH1 0x0 PUSH1 0x40 MLOAD DUP1 DUP4 SUB DUP2 PUSH1 0x0 DUP8 DUP1 EXTCODESIZE ISZERO DUP1 ISZERO PUSH2 0x5CF6 JUMPI PUSH1 0x0 DUP1 REVERT JUMPDEST POP GAS CALL ISZERO DUP1 ISZERO PUSH2 0x5D0A JUMPI RETURNDATASIZE PUSH1 0x0 DUP1 RETURNDATACOPY RETURNDATASIZE PUSH1 0x0 REVERT JUMPDEST POP POP POP POP PUSH1 0x40 MLOAD RETURNDATASIZE PUSH1 0x0 DUP3 RETURNDATACOPY PUSH1 0x1F RETURNDATASIZE SWAP1 DUP2 ADD PUSH1 0x1F NOT AND DUP3 ADD PUSH1 0x40 MSTORE PUSH2 0x5D32 SWAP2 SWAP1 DUP2 ADD SWAP1 PUSH2 0x8E26 JUMP JUMPDEST SWAP1 POP DUP1 PUSH1 0x1 DUP3 MLOAD SUB DUP2 MLOAD DUP2 LT PUSH2 0x5D44 JUMPI INVALID JUMPDEST PUSH1 0x20 MUL PUSH1 0x20 ADD ADD MLOAD SWAP5 POP POP POP POP POP SWAP4 SWAP3 POP POP POP JUMP JUMPDEST PUSH1 0x0 PUSH2 0x5D63 PUSH2 0x8173 JUMP JUMPDEST DUP3 DUP1 PUSH1 0x20 ADD SWAP1 MLOAD DUP2 ADD SWAP1 PUSH2 0x5D77 SWAP2 SWAP1 PUSH2 0x9319 JUMP JUMPDEST SWAP1 POP PUSH1 0x0 DUP8 PUSH1 0x1 PUSH1 0x1 PUSH1 0xA0 SHL SUB AND DUP8 PUSH1 0x1 PUSH1 0x1 PUSH1 0xA0 SHL SUB AND EQ ISZERO PUSH2 0x5DFB JUMPI POP PUSH1 0x40 MLOAD PUSH4 0x2E1A7D4D PUSH1 0xE0 SHL DUP2 MSTORE DUP5 SWAP1 PUSH1 0x1 PUSH1 0x1 PUSH1 0xA0 SHL SUB DUP10 AND SWAP1 PUSH4 0x2E1A7D4D SWAP1 PUSH2 0x5DC4 SWAP1 DUP5 SWAP1 PUSH1 0x4 ADD PUSH2 0x9E57 JUMP JUMPDEST PUSH1 0x0 PUSH1 0x40 MLOAD DUP1 DUP4 SUB DUP2 PUSH1 0x0 DUP8 DUP1 EXTCODESIZE ISZERO DUP1 ISZERO PUSH2 0x5DDE JUMPI PUSH1 0x0 DUP1 REVERT JUMPDEST POP GAS CALL ISZERO DUP1 ISZERO PUSH2 0x5DF2 JUMPI RETURNDATASIZE PUSH1 0x0 DUP1 RETURNDATACOPY RETURNDATASIZE PUSH1 0x0 REVERT JUMPDEST POP POP POP POP PUSH2 0x5E12 JUMP JUMPDEST DUP2 MLOAD PUSH2 0x5E12 SWAP1 PUSH1 0x1 PUSH1 0x1 PUSH1 0xA0 SHL SUB DUP10 AND SWAP1 DUP8 PUSH2 0x7A52 JUMP JUMPDEST PUSH1 0x40 MLOAD PUSH4 0x70A08231 PUSH1 0xE0 SHL DUP2 MSTORE PUSH1 0x0 SWAP1 PUSH1 0x1 PUSH1 0x1 PUSH1 0xA0 SHL SUB DUP9 AND SWAP1 PUSH4 0x70A08231 SWAP1 PUSH2 0x5E41 SWAP1 ADDRESS SWAP1 PUSH1 0x4 ADD PUSH2 0x993B JUMP JUMPDEST PUSH1 0x20 PUSH1 0x40 MLOAD DUP1 DUP4 SUB DUP2 DUP7 DUP1 EXTCODESIZE ISZERO DUP1 ISZERO PUSH2 0x5E59 JUMPI PUSH1 0x0 DUP1 REVERT JUMPDEST POP GAS STATICCALL ISZERO DUP1 ISZERO PUSH2 0x5E6D JUMPI RETURNDATASIZE PUSH1 0x0 DUP1 RETURNDATACOPY RETURNDATASIZE PUSH1 0x0 REVERT JUMPDEST POP POP POP POP PUSH1 0x40 MLOAD RETURNDATASIZE PUSH1 0x1F NOT PUSH1 0x1F DUP3 ADD AND DUP3 ADD DUP1 PUSH1 0x40 MSTORE POP DUP2 ADD SWAP1 PUSH2 0x5E91 SWAP2 SWAP1 PUSH2 0x8EB8 JUMP JUMPDEST SWAP1 POP PUSH1 0x0 PUSH1 0x60 DUP5 PUSH1 0x0 ADD MLOAD PUSH1 0x1 PUSH1 0x1 PUSH1 0xA0 SHL SUB AND DUP5 DUP7 PUSH1 0x20 ADD MLOAD DUP8 PUSH1 0x40 ADD MLOAD DUP9 PUSH1 0x60 ADD MLOAD DUP13 PUSH1 0x1 PUSH1 0x40 MLOAD PUSH1 0x24 ADD PUSH2 0x5ECB SWAP5 SWAP4 SWAP3 SWAP2 SWAP1 PUSH2 0xA0CB JUMP JUMPDEST PUSH1 0x40 DUP1 MLOAD PUSH1 0x1F NOT DUP2 DUP5 SUB ADD DUP2 MSTORE SWAP2 DUP2 MSTORE PUSH1 0x20 DUP3 ADD DUP1 MLOAD PUSH1 0x1 PUSH1 0x1 PUSH1 0xE0 SHL SUB AND PUSH1 0x1 PUSH1 0x1 PUSH1 0xE0 SHL SUB NOT SWAP1 SWAP5 AND SWAP4 SWAP1 SWAP4 OR SWAP1 SWAP3 MSTORE SWAP1 MLOAD PUSH2 0x5F09 SWAP2 SWAP1 PUSH2 0x991F JUMP JUMPDEST PUSH1 0x0 PUSH1 0x40 MLOAD DUP1 DUP4 SUB DUP2 DUP6 DUP8 GAS CALL SWAP3 POP POP POP RETURNDATASIZE DUP1 PUSH1 0x0 DUP2 EQ PUSH2 0x5F46 JUMPI PUSH1 0x40 MLOAD SWAP2 POP PUSH1 0x1F NOT PUSH1 0x3F RETURNDATASIZE ADD AND DUP3 ADD PUSH1 0x40 MSTORE RETURNDATASIZE DUP3 MSTORE RETURNDATASIZE PUSH1 0x0 PUSH1 0x20 DUP5 ADD RETURNDATACOPY PUSH2 0x5F4B JUMP JUMPDEST PUSH1 0x60 SWAP2 POP JUMPDEST POP SWAP2 POP SWAP2 POP DUP2 PUSH2 0x5F5E JUMPI PUSH2 0x5F5E DUP2 PUSH2 0x5BAA JUMP JUMPDEST DUP11 PUSH1 0x1 PUSH1 0x1 PUSH1 0xA0 SHL SUB AND DUP10 PUSH1 0x1 PUSH1 0x1 PUSH1 0xA0 SHL SUB AND EQ ISZERO PUSH2 0x5FD0 JUMPI SELFBALANCE SWAP6 POP DUP11 PUSH1 0x1 PUSH1 0x1 PUSH1 0xA0 SHL SUB AND PUSH4 0xD0E30DB0 DUP8 PUSH1 0x40 MLOAD DUP3 PUSH4 0xFFFFFFFF AND PUSH1 0xE0 SHL DUP2 MSTORE PUSH1 0x4 ADD PUSH1 0x0 PUSH1 0x40 MLOAD DUP1 DUP4 SUB DUP2 DUP6 DUP9 DUP1 EXTCODESIZE ISZERO DUP1 ISZERO PUSH2 0x5FB6 JUMPI PUSH1 0x0 DUP1 REVERT JUMPDEST POP GAS CALL ISZERO DUP1 ISZERO PUSH2 0x5FCA JUMPI RETURNDATASIZE PUSH1 0x0 DUP1 RETURNDATACOPY RETURNDATASIZE PUSH1 0x0 REVERT JUMPDEST POP POP POP POP POP JUMPDEST PUSH2 0x6000 DUP4 DUP11 PUSH1 0x1 PUSH1 0x1 PUSH1 0xA0 SHL SUB AND PUSH4 0x70A08231 ADDRESS PUSH1 0x40 MLOAD DUP3 PUSH4 0xFFFFFFFF AND PUSH1 0xE0 SHL DUP2 MSTORE PUSH1 0x4 ADD PUSH2 0x5386 SWAP2 SWAP1 PUSH2 0x993B JUMP JUMPDEST SWAP12 SWAP11 POP POP POP POP POP POP POP POP POP POP POP JUMP JUMPDEST PUSH2 0x601A DUP4 DUP4 DUP4 PUSH2 0x7D8C JUMP JUMPDEST POP POP POP JUMP JUMPDEST PUSH1 0x0 PUSH2 0x2DC3 DUP4 DUP4 PUSH2 0x7DB3 JUMP JUMPDEST PUSH1 0x0 DUP1 PUSH1 0x60 DUP1 DUP5 DUP1 PUSH1 0x20 ADD SWAP1 MLOAD DUP2 ADD SWAP1 PUSH2 0x6045 SWAP2 SWAP1 PUSH2 0x9007 JUMP JUMPDEST DUP1 MLOAD SWAP2 SWAP5 POP SWAP3 POP PUSH1 0x2 GT ISZERO SWAP1 POP PUSH2 0x606E JUMPI PUSH1 0x40 MLOAD PUSH3 0x461BCD PUSH1 0xE5 SHL DUP2 MSTORE PUSH1 0x4 ADD PUSH2 0x1519 SWAP1 PUSH2 0xA2AF JUMP JUMPDEST DUP6 PUSH1 0x1 PUSH1 0x1 PUSH1 0xA0 SHL SUB AND DUP2 PUSH1 0x1 DUP4 MLOAD SUB DUP2 MLOAD DUP2 LT PUSH2 0x6088 JUMPI INVALID JUMPDEST PUSH1 0x20 MUL PUSH1 0x20 ADD ADD MLOAD PUSH1 0x1 PUSH1 0x1 PUSH1 0xA0 SHL SUB AND EQ PUSH2 0x60B6 JUMPI PUSH1 0x40 MLOAD PUSH3 0x461BCD PUSH1 0xE5 SHL DUP2 MSTORE PUSH1 0x4 ADD PUSH2 0x1519 SWAP1 PUSH2 0xA457 JUMP JUMPDEST PUSH2 0x60C8 DUP3 DUP7 DUP4 PUSH1 0x0 DUP2 MLOAD DUP2 LT PUSH2 0x5C82 JUMPI INVALID JUMPDEST PUSH1 0x40 MLOAD PUSH4 0x38ED1739 PUSH1 0xE0 SHL DUP2 MSTORE PUSH1 0x60 SWAP1 PUSH1 0x1 PUSH1 0x1 PUSH1 0xA0 SHL SUB DUP5 AND SWAP1 PUSH4 0x38ED1739 SWAP1 PUSH2 0x6100 SWAP1 DUP10 SWAP1 PUSH1 0x1 SWAP1 DUP8 SWAP1 ADDRESS SWAP1 TIMESTAMP SWAP1 PUSH1 0x4 ADD PUSH2 0xA777 JUMP JUMPDEST PUSH1 0x0 PUSH1 0x40 MLOAD DUP1 DUP4 SUB DUP2 PUSH1 0x0 DUP8 DUP1 EXTCODESIZE ISZERO DUP1 ISZERO PUSH2 0x611A JUMPI PUSH1 0x0 DUP1 REVERT JUMPDEST POP GAS CALL ISZERO DUP1 ISZERO PUSH2 0x612E JUMPI RETURNDATASIZE PUSH1 0x0 DUP1 RETURNDATACOPY RETURNDATASIZE PUSH1 0x0 REVERT JUMPDEST POP POP POP POP PUSH1 0x40 MLOAD RETURNDATASIZE PUSH1 0x0 DUP3 RETURNDATACOPY PUSH1 0x1F RETURNDATASIZE SWAP1 DUP2 ADD PUSH1 0x1F NOT AND DUP3 ADD PUSH1 0x40 MSTORE PUSH2 0x6156 SWAP2 SWAP1 DUP2 ADD SWAP1 PUSH2 0x8E26 JUMP JUMPDEST SWAP1 POP DUP1 PUSH1 0x1 DUP3 MLOAD SUB DUP2 MLOAD DUP2 LT PUSH2 0x6168 JUMPI INVALID JUMPDEST PUSH1 0x20 MUL PUSH1 0x20 ADD ADD MLOAD SWAP4 POP POP POP POP SWAP4 SWAP3 POP POP POP JUMP JUMPDEST PUSH1 0x0 DUP1 DUP3 DUP1 PUSH1 0x20 ADD SWAP1 MLOAD DUP2 ADD SWAP1 PUSH2 0x6193 SWAP2 SWAP1 PUSH2 0x8856 JUMP JUMPDEST SWAP1 POP DUP7 PUSH1 0x1 PUSH1 0x1 PUSH1 0xA0 SHL SUB AND DUP7 PUSH1 0x1 PUSH1 0x1 PUSH1 0xA0 SHL SUB AND EQ DUP1 ISZERO PUSH2 0x61C7 JUMPI POP DUP1 PUSH1 0x1 PUSH1 0x1 PUSH1 0xA0 SHL SUB AND DUP6 PUSH1 0x1 PUSH1 0x1 PUSH1 0xA0 SHL SUB AND EQ JUMPDEST ISZERO PUSH2 0x6326 JUMPI PUSH1 0x40 MLOAD PUSH4 0x2E1A7D4D PUSH1 0xE0 SHL DUP2 MSTORE PUSH1 0x1 PUSH1 0x1 PUSH1 0xA0 SHL SUB DUP9 AND SWAP1 PUSH4 0x2E1A7D4D SWAP1 PUSH2 0x61F8 SWAP1 DUP8 SWAP1 PUSH1 0x4 ADD PUSH2 0x9E57 JUMP JUMPDEST PUSH1 0x0 PUSH1 0x40 MLOAD DUP1 DUP4 SUB DUP2 PUSH1 0x0 DUP8 DUP1 EXTCODESIZE ISZERO DUP1 ISZERO PUSH2 0x6212 JUMPI PUSH1 0x0 DUP1 REVERT JUMPDEST POP GAS CALL ISZERO DUP1 ISZERO PUSH2 0x6226 JUMPI RETURNDATASIZE PUSH1 0x0 DUP1 RETURNDATACOPY RETURNDATASIZE PUSH1 0x0 REVERT JUMPDEST POP POP PUSH1 0x40 MLOAD PUSH4 0xA1903EAB PUSH1 0xE0 SHL DUP2 MSTORE PUSH1 0x1 PUSH1 0x1 PUSH1 0xA0 SHL SUB DUP5 AND SWAP3 POP PUSH4 0x7A28FB88 SWAP2 POP DUP3 SWAP1 PUSH4 0xA1903EAB SWAP1 DUP9 SWAP1 PUSH2 0x6261 SWAP1 PUSH1 0x0 SWAP1 PUSH1 0x4 ADD PUSH2 0x993B JUMP JUMPDEST PUSH1 0x20 PUSH1 0x40 MLOAD DUP1 DUP4 SUB DUP2 DUP6 DUP9 DUP1 EXTCODESIZE ISZERO DUP1 ISZERO PUSH2 0x627A JUMPI PUSH1 0x0 DUP1 REVERT JUMPDEST POP GAS CALL ISZERO DUP1 ISZERO PUSH2 0x628E JUMPI RETURNDATASIZE PUSH1 0x0 DUP1 RETURNDATACOPY RETURNDATASIZE PUSH1 0x0 REVERT JUMPDEST POP POP POP POP POP PUSH1 0x40 MLOAD RETURNDATASIZE PUSH1 0x1F NOT PUSH1 0x1F DUP3 ADD AND DUP3 ADD DUP1 PUSH1 0x40 MSTORE POP DUP2 ADD SWAP1 PUSH2 0x62B3 SWAP2 SWAP1 PUSH2 0x8EB8 JUMP JUMPDEST PUSH1 0x40 MLOAD DUP3 PUSH4 0xFFFFFFFF AND PUSH1 0xE0 SHL DUP2 MSTORE PUSH1 0x4 ADD PUSH2 0x62CF SWAP2 SWAP1 PUSH2 0x9E57 JUMP JUMPDEST PUSH1 0x20 PUSH1 0x40 MLOAD DUP1 DUP4 SUB DUP2 DUP7 DUP1 EXTCODESIZE ISZERO DUP1 ISZERO PUSH2 0x62E7 JUMPI PUSH1 0x0 DUP1 REVERT JUMPDEST POP GAS STATICCALL ISZERO DUP1 ISZERO PUSH2 0x62FB JUMPI RETURNDATASIZE PUSH1 0x0 DUP1 RETURNDATACOPY RETURNDATASIZE PUSH1 0x0 REVERT JUMPDEST POP POP POP POP PUSH1 0x40 MLOAD RETURNDATASIZE PUSH1 0x1F NOT PUSH1 0x1F DUP3 ADD AND DUP3 ADD DUP1 PUSH1 0x40 MSTORE POP DUP2 ADD SWAP1 PUSH2 0x631F SWAP2 SWAP1 PUSH2 0x8EB8 JUMP JUMPDEST SWAP2 POP PUSH2 0x633E JUMP JUMPDEST PUSH1 0x40 MLOAD PUSH3 0x461BCD PUSH1 0xE5 SHL DUP2 MSTORE PUSH1 0x4 ADD PUSH2 0x1519 SWAP1 PUSH2 0xA341 JUMP JUMPDEST POP SWAP6 SWAP5 POP POP POP POP POP JUMP JUMPDEST PUSH1 0x0 PUSH2 0x6352 PUSH2 0x80F8 JUMP JUMPDEST DUP3 DUP1 PUSH1 0x20 ADD SWAP1 MLOAD DUP2 ADD SWAP1 PUSH2 0x6366 SWAP2 SWAP1 PUSH2 0x9177 JUMP JUMPDEST DUP1 MLOAD SWAP1 SWAP2 POP PUSH2 0x6380 SWAP1 PUSH1 0x1 PUSH1 0x1 PUSH1 0xA0 SHL SUB DUP9 AND SWAP1 DUP7 PUSH2 0x7A52 JUMP JUMPDEST PUSH2 0x6388 PUSH2 0x81B8 JUMP JUMPDEST PUSH1 0x40 DUP1 MLOAD PUSH1 0xC0 DUP2 ADD SWAP1 SWAP2 MSTORE PUSH1 0x20 DUP1 DUP5 ADD MLOAD DUP3 MSTORE DUP2 ADD PUSH1 0x0 DUP2 MSTORE PUSH1 0x20 ADD DUP9 PUSH1 0x1 PUSH1 0x1 PUSH1 0xA0 SHL SUB AND DUP2 MSTORE PUSH1 0x20 ADD DUP8 PUSH1 0x1 PUSH1 0x1 PUSH1 0xA0 SHL SUB AND DUP2 MSTORE PUSH1 0x20 ADD DUP7 DUP2 MSTORE PUSH1 0x20 ADD PUSH1 0x40 MLOAD DUP1 PUSH1 0x20 ADD PUSH1 0x40 MSTORE DUP1 PUSH1 0x0 DUP2 MSTORE POP DUP2 MSTORE POP SWAP1 POP PUSH2 0x63E5 PUSH2 0x8173 JUMP JUMPDEST POP PUSH1 0x40 DUP1 MLOAD PUSH1 0x80 DUP2 ADD DUP3 MSTORE ADDRESS DUP1 DUP3 MSTORE PUSH1 0x0 PUSH1 0x20 DUP4 ADD DUP2 SWAP1 MSTORE DUP3 DUP5 ADD SWAP2 SWAP1 SWAP2 MSTORE PUSH1 0x60 DUP3 ADD MSTORE DUP4 MLOAD SWAP2 MLOAD PUSH4 0x52BBBE29 PUSH1 0xE0 SHL DUP2 MSTORE SWAP1 SWAP2 PUSH1 0x1 PUSH1 0x1 PUSH1 0xA0 SHL SUB AND SWAP1 PUSH4 0x52BBBE29 SWAP1 PUSH2 0x643E SWAP1 DUP6 SWAP1 DUP6 SWAP1 PUSH1 0x1 SWAP1 TIMESTAMP SWAP1 PUSH1 0x4 ADD PUSH2 0xA695 JUMP JUMPDEST PUSH1 0x20 PUSH1 0x40 MLOAD DUP1 DUP4 SUB DUP2 PUSH1 0x0 DUP8 DUP1 EXTCODESIZE ISZERO DUP1 ISZERO PUSH2 0x6458 JUMPI PUSH1 0x0 DUP1 REVERT JUMPDEST POP GAS CALL ISZERO DUP1 ISZERO PUSH2 0x646C JUMPI RETURNDATASIZE PUSH1 0x0 DUP1 RETURNDATACOPY RETURNDATASIZE PUSH1 0x0 REVERT JUMPDEST POP POP POP POP PUSH1 0x40 MLOAD RETURNDATASIZE PUSH1 0x1F NOT PUSH1 0x1F DUP3 ADD AND DUP3 ADD DUP1 PUSH1 0x40 MSTORE POP DUP2 ADD SWAP1 PUSH2 0x6490 SWAP2 SWAP1 PUSH2 0x8EB8 JUMP JUMPDEST SWAP9 SWAP8 POP POP POP POP POP POP POP POP JUMP JUMPDEST PUSH1 0x0 DUP1 DUP5 PUSH1 0x20 ADD MLOAD SWAP1 POP PUSH1 0x60 DUP2 PUSH1 0x1 PUSH1 0x1 PUSH1 0xA0 SHL SUB AND PUSH4 0x910FFC71 DUP8 PUSH1 0x60 ADD MLOAD PUSH1 0x1 PUSH1 0x1 PUSH1 0xA0 SHL SUB AND DUP8 PUSH1 0x1 PUSH1 0x1 PUSH1 0xA0 SHL SUB AND EQ PUSH2 0x64DA JUMPI DUP7 PUSH2 0x64F0 JUMP JUMPDEST PUSH20 0xEEEEEEEEEEEEEEEEEEEEEEEEEEEEEEEEEEEEEEEE JUMPDEST DUP9 PUSH1 0x60 ADD MLOAD PUSH1 0x1 PUSH1 0x1 PUSH1 0xA0 SHL SUB AND DUP8 PUSH1 0x1 PUSH1 0x1 PUSH1 0xA0 SHL SUB AND EQ PUSH2 0x6513 JUMPI DUP7 PUSH2 0x6529 JUMP JUMPDEST PUSH20 0xEEEEEEEEEEEEEEEEEEEEEEEEEEEEEEEEEEEEEEEE JUMPDEST PUSH1 0x40 DUP1 MLOAD PUSH1 0x0 DUP2 MSTORE PUSH1 0x20 DUP2 ADD SWAP2 DUP3 SWAP1 MSTORE PUSH1 0x1 PUSH1 0x1 PUSH1 0xE0 SHL SUB NOT PUSH1 0xE0 DUP7 SWAP1 SHL AND SWAP1 SWAP2 MSTORE PUSH2 0x655D SWAP3 SWAP2 SWAP1 PUSH1 0x1 SWAP1 PUSH1 0x24 DUP2 ADD PUSH2 0x99DA JUMP JUMPDEST PUSH1 0x0 PUSH1 0x40 MLOAD DUP1 DUP4 SUB DUP2 DUP7 DUP1 EXTCODESIZE ISZERO DUP1 ISZERO PUSH2 0x6575 JUMPI PUSH1 0x0 DUP1 REVERT JUMPDEST POP GAS STATICCALL ISZERO DUP1 ISZERO PUSH2 0x6589 JUMPI RETURNDATASIZE PUSH1 0x0 DUP1 RETURNDATACOPY RETURNDATASIZE PUSH1 0x0 REVERT JUMPDEST POP POP POP POP PUSH1 0x40 MLOAD RETURNDATASIZE PUSH1 0x0 DUP3 RETURNDATACOPY PUSH1 0x1F RETURNDATASIZE SWAP1 DUP2 ADD PUSH1 0x1F NOT AND DUP3 ADD PUSH1 0x40 MSTORE PUSH2 0x65B1 SWAP2 SWAP1 DUP2 ADD SWAP1 PUSH2 0x8AD4 JUMP JUMPDEST POP POP SWAP1 POP DUP1 MLOAD DUP7 PUSH1 0x0 ADD MLOAD LT PUSH2 0x65CD JUMPI POP PUSH1 0x0 SWAP2 POP PUSH2 0x2DC3 SWAP1 POP JUMP JUMPDEST DUP1 DUP7 PUSH1 0x0 ADD MLOAD DUP2 MLOAD DUP2 LT PUSH2 0x65DD JUMPI INVALID JUMPDEST PUSH1 0x20 MUL PUSH1 0x20 ADD ADD MLOAD SWAP3 POP PUSH1 0xF8 DUP4 SWAP1 SHR PUSH1 0x0 SHR PUSH1 0xBB EQ ISZERO PUSH2 0x6603 JUMPI POP PUSH1 0x0 SWAP2 POP PUSH2 0x2DC3 SWAP1 POP JUMP JUMPDEST POP POP SWAP4 SWAP3 POP POP POP JUMP JUMPDEST PUSH1 0x0 DUP1 PUSH1 0x60 DUP4 DUP1 PUSH1 0x20 ADD SWAP1 MLOAD DUP2 ADD SWAP1 PUSH2 0x6625 SWAP2 SWAP1 PUSH2 0x90BA JUMP JUMPDEST SWAP2 POP SWAP2 POP PUSH1 0x0 DUP9 PUSH1 0x1 PUSH1 0x1 PUSH1 0xA0 SHL SUB AND DUP9 PUSH1 0x1 PUSH1 0x1 PUSH1 0xA0 SHL SUB AND EQ PUSH2 0x665D JUMPI PUSH2 0x6658 PUSH1 0x1 PUSH1 0x1 PUSH1 0xA0 SHL SUB DUP10 AND DUP5 DUP9 PUSH2 0x7A52 JUMP JUMPDEST PUSH2 0x66BF JUMP JUMPDEST POP PUSH1 0x40 MLOAD PUSH4 0x2E1A7D4D PUSH1 0xE0 SHL DUP2 MSTORE DUP6 SWAP1 PUSH1 0x1 PUSH1 0x1 PUSH1 0xA0 SHL SUB DUP11 AND SWAP1 PUSH4 0x2E1A7D4D SWAP1 PUSH2 0x668C SWAP1 DUP5 SWAP1 PUSH1 0x4 ADD PUSH2 0x9E57 JUMP JUMPDEST PUSH1 0x0 PUSH1 0x40 MLOAD DUP1 DUP4 SUB DUP2 PUSH1 0x0 DUP8 DUP1 EXTCODESIZE ISZERO DUP1 ISZERO PUSH2 0x66A6 JUMPI PUSH1 0x0 DUP1 REVERT JUMPDEST POP GAS CALL ISZERO DUP1 ISZERO PUSH2 0x66BA JUMPI RETURNDATASIZE PUSH1 0x0 DUP1 RETURNDATACOPY RETURNDATASIZE PUSH1 0x0 REVERT JUMPDEST POP POP POP POP JUMPDEST DUP3 PUSH1 0x1 PUSH1 0x1 PUSH1 0xA0 SHL SUB AND PUSH4 0x29589F61 DUP3 DUP12 PUSH1 0x1 PUSH1 0x1 PUSH1 0xA0 SHL SUB AND DUP12 PUSH1 0x1 PUSH1 0x1 PUSH1 0xA0 SHL SUB AND EQ PUSH2 0x66EE JUMPI DUP11 PUSH2 0x66F0 JUMP JUMPDEST DUP13 JUMPDEST DUP10 DUP14 PUSH1 0x1 PUSH1 0x1 PUSH1 0xA0 SHL SUB AND DUP13 PUSH1 0x1 PUSH1 0x1 PUSH1 0xA0 SHL SUB AND EQ PUSH2 0x6710 JUMPI DUP12 PUSH2 0x6712 JUMP JUMPDEST DUP15 JUMPDEST ADDRESS PUSH1 0x0 NOT PUSH1 0x1 PUSH1 0x0 DUP12 PUSH1 0x40 MLOAD DUP11 PUSH4 0xFFFFFFFF AND PUSH1 0xE0 SHL DUP2 MSTORE PUSH1 0x4 ADD PUSH2 0x673E SWAP9 SWAP8 SWAP7 SWAP6 SWAP5 SWAP4 SWAP3 SWAP2 SWAP1 PUSH2 0x9FEC JUMP JUMPDEST PUSH1 0x20 PUSH1 0x40 MLOAD DUP1 DUP4 SUB DUP2 DUP6 DUP9 DUP1 EXTCODESIZE ISZERO DUP1 ISZERO PUSH2 0x6757 JUMPI PUSH1 0x0 DUP1 REVERT JUMPDEST POP GAS CALL ISZERO DUP1 ISZERO PUSH2 0x676B JUMPI RETURNDATASIZE PUSH1 0x0 DUP1 RETURNDATACOPY RETURNDATASIZE PUSH1 0x0 REVERT JUMPDEST POP POP POP POP POP PUSH1 0x40 MLOAD RETURNDATASIZE PUSH1 0x1F NOT PUSH1 0x1F DUP3 ADD AND DUP3 ADD DUP1 PUSH1 0x40 MSTORE POP DUP2 ADD SWAP1 PUSH2 0x6790 SWAP2 SWAP1 PUSH2 0x8EB8 JUMP JUMPDEST SWAP4 POP DUP9 PUSH1 0x1 PUSH1 0x1 PUSH1 0xA0 SHL SUB AND DUP8 PUSH1 0x1 PUSH1 0x1 PUSH1 0xA0 SHL SUB AND EQ ISZERO PUSH2 0x6801 JUMPI DUP9 PUSH1 0x1 PUSH1 0x1 PUSH1 0xA0 SHL SUB AND PUSH4 0xD0E30DB0 DUP6 PUSH1 0x40 MLOAD DUP3 PUSH4 0xFFFFFFFF AND PUSH1 0xE0 SHL DUP2 MSTORE PUSH1 0x4 ADD PUSH1 0x0 PUSH1 0x40 MLOAD DUP1 DUP4 SUB DUP2 DUP6 DUP9 DUP1 EXTCODESIZE ISZERO DUP1 ISZERO PUSH2 0x67E7 JUMPI PUSH1 0x0 DUP1 REVERT JUMPDEST POP GAS CALL ISZERO DUP1 ISZERO PUSH2 0x67FB JUMPI RETURNDATASIZE PUSH1 0x0 DUP1 RETURNDATACOPY RETURNDATASIZE PUSH1 0x0 REVERT JUMPDEST POP POP POP POP POP JUMPDEST POP POP POP SWAP7 SWAP6 POP POP POP POP POP POP JUMP JUMPDEST PUSH1 0x0 DUP1 PUSH1 0x60 DUP7 PUSH1 0x1 PUSH1 0x1 PUSH1 0xA0 SHL SUB AND PUSH4 0x57A281DC DUP7 DUP7 PUSH1 0x40 MLOAD DUP4 PUSH4 0xFFFFFFFF AND PUSH1 0xE0 SHL DUP2 MSTORE PUSH1 0x4 ADD PUSH2 0x6841 SWAP3 SWAP2 SWAP1 PUSH2 0x9968 JUMP JUMPDEST PUSH1 0x0 PUSH1 0x40 MLOAD DUP1 DUP4 SUB DUP2 DUP7 DUP1 EXTCODESIZE ISZERO DUP1 ISZERO PUSH2 0x6859 JUMPI PUSH1 0x0 DUP1 REVERT JUMPDEST POP GAS STATICCALL ISZERO DUP1 ISZERO PUSH2 0x686D JUMPI RETURNDATASIZE PUSH1 0x0 DUP1 RETURNDATACOPY RETURNDATASIZE PUSH1 0x0 REVERT JUMPDEST POP POP POP POP PUSH1 0x40 MLOAD RETURNDATASIZE PUSH1 0x0 DUP3 RETURNDATACOPY PUSH1 0x1F RETURNDATASIZE SWAP1 DUP2 ADD PUSH1 0x1F NOT AND DUP3 ADD PUSH1 0x40 MSTORE PUSH2 0x6895 SWAP2 SWAP1 DUP2 ADD SWAP1 PUSH2 0x8AA2 JUMP JUMPDEST SWAP1 POP PUSH1 0x1 SWAP2 POP DUP1 MLOAD PUSH1 0x0 EQ ISZERO PUSH2 0x692E JUMPI PUSH1 0x40 MLOAD PUSH4 0x15E8A077 PUSH1 0xE2 SHL DUP2 MSTORE PUSH1 0x1 PUSH1 0x1 PUSH1 0xA0 SHL SUB DUP9 AND SWAP1 PUSH4 0x57A281DC SWAP1 PUSH2 0x68D3 SWAP1 DUP8 SWAP1 DUP10 SWAP1 PUSH1 0x4 ADD PUSH2 0x9968 JUMP JUMPDEST PUSH1 0x0 PUSH1 0x40 MLOAD DUP1 DUP4 SUB DUP2 DUP7 DUP1 EXTCODESIZE ISZERO DUP1 ISZERO PUSH2 0x68EB JUMPI PUSH1 0x0 DUP1 REVERT JUMPDEST POP GAS STATICCALL ISZERO DUP1 ISZERO PUSH2 0x68FF JUMPI RETURNDATASIZE PUSH1 0x0 DUP1 RETURNDATACOPY RETURNDATASIZE PUSH1 0x0 REVERT JUMPDEST POP POP POP POP PUSH1 0x40 MLOAD RETURNDATASIZE PUSH1 0x0 DUP3 RETURNDATACOPY PUSH1 0x1F RETURNDATASIZE SWAP1 DUP2 ADD PUSH1 0x1F NOT AND DUP3 ADD PUSH1 0x40 MSTORE PUSH2 0x6927 SWAP2 SWAP1 DUP2 ADD SWAP1 PUSH2 0x8AA2 JUMP JUMPDEST SWAP1 POP PUSH1 0x0 SWAP2 POP JUMPDEST DUP1 MLOAD DUP7 LT PUSH2 0x6943 JUMPI PUSH1 0x0 DUP1 SWAP3 POP SWAP3 POP POP PUSH2 0x2909 JUMP JUMPDEST DUP1 DUP7 DUP2 MLOAD DUP2 LT PUSH2 0x694F JUMPI INVALID JUMPDEST PUSH1 0x20 MUL PUSH1 0x20 ADD ADD MLOAD SWAP3 POP POP SWAP5 POP SWAP5 SWAP3 POP POP POP JUMP JUMPDEST PUSH1 0x0 DUP1 PUSH1 0x60 DUP1 DUP5 DUP1 PUSH1 0x20 ADD SWAP1 MLOAD DUP2 ADD SWAP1 PUSH2 0x697D SWAP2 SWAP1 PUSH2 0x9007 JUMP JUMPDEST DUP1 MLOAD SWAP2 SWAP5 POP SWAP3 POP PUSH1 0x2 GT ISZERO SWAP1 POP PUSH2 0x69A6 JUMPI PUSH1 0x40 MLOAD PUSH3 0x461BCD PUSH1 0xE5 SHL DUP2 MSTORE PUSH1 0x4 ADD PUSH2 0x1519 SWAP1 PUSH2 0xA18A JUMP JUMPDEST DUP6 PUSH1 0x1 PUSH1 0x1 PUSH1 0xA0 SHL SUB AND DUP2 PUSH1 0x1 DUP4 MLOAD SUB DUP2 MLOAD DUP2 LT PUSH2 0x69C0 JUMPI INVALID JUMPDEST PUSH1 0x20 MUL PUSH1 0x20 ADD ADD MLOAD PUSH1 0x1 PUSH1 0x1 PUSH1 0xA0 SHL SUB AND EQ DUP1 PUSH2 0x6A35 JUMPI POP PUSH20 0xEEEEEEEEEEEEEEEEEEEEEEEEEEEEEEEEEEEEEEEE PUSH1 0x1 PUSH1 0x1 PUSH1 0xA0 SHL SUB AND DUP2 PUSH1 0x1 DUP4 MLOAD SUB DUP2 MLOAD DUP2 LT PUSH2 0x6A06 JUMPI INVALID JUMPDEST PUSH1 0x20 MUL PUSH1 0x20 ADD ADD MLOAD PUSH1 0x1 PUSH1 0x1 PUSH1 0xA0 SHL SUB AND EQ DUP1 ISZERO PUSH2 0x6A35 JUMPI POP DUP7 PUSH1 0x1 PUSH1 0x1 PUSH1 0xA0 SHL SUB AND DUP7 PUSH1 0x1 PUSH1 0x1 PUSH1 0xA0 SHL SUB AND EQ JUMPDEST PUSH2 0x6A51 JUMPI PUSH1 0x40 MLOAD PUSH3 0x461BCD PUSH1 0xE5 SHL DUP2 MSTORE PUSH1 0x4 ADD PUSH2 0x1519 SWAP1 PUSH2 0xA3AB JUMP JUMPDEST PUSH1 0x0 PUSH20 0xEEEEEEEEEEEEEEEEEEEEEEEEEEEEEEEEEEEEEEEE PUSH1 0x1 PUSH1 0x1 PUSH1 0xA0 SHL SUB AND DUP3 PUSH1 0x0 DUP2 MLOAD DUP2 LT PUSH2 0x6A7E JUMPI INVALID JUMPDEST PUSH1 0x20 MUL PUSH1 0x20 ADD ADD MLOAD PUSH1 0x1 PUSH1 0x1 PUSH1 0xA0 SHL SUB AND EQ ISZERO PUSH2 0x6AFB JUMPI PUSH1 0x40 MLOAD PUSH4 0x2E1A7D4D PUSH1 0xE0 SHL DUP2 MSTORE PUSH1 0x1 PUSH1 0x1 PUSH1 0xA0 SHL SUB DUP10 AND SWAP1 PUSH4 0x2E1A7D4D SWAP1 PUSH2 0x6AC1 SWAP1 DUP10 SWAP1 PUSH1 0x4 ADD PUSH2 0x9E57 JUMP JUMPDEST PUSH1 0x0 PUSH1 0x40 MLOAD DUP1 DUP4 SUB DUP2 PUSH1 0x0 DUP8 DUP1 EXTCODESIZE ISZERO DUP1 ISZERO PUSH2 0x6ADB JUMPI PUSH1 0x0 DUP1 REVERT JUMPDEST POP GAS CALL ISZERO DUP1 ISZERO PUSH2 0x6AEF JUMPI RETURNDATASIZE PUSH1 0x0 DUP1 RETURNDATACOPY RETURNDATASIZE PUSH1 0x0 REVERT JUMPDEST POP POP POP POP DUP6 SWAP1 POP PUSH2 0x6B1A JUMP JUMPDEST PUSH2 0x6B1A DUP3 PUSH1 0x0 DUP2 MLOAD DUP2 LT PUSH2 0x6B0B JUMPI INVALID JUMPDEST PUSH1 0x20 MUL PUSH1 0x20 ADD ADD MLOAD DUP5 DUP9 PUSH2 0x7A52 JUMP JUMPDEST PUSH1 0x40 MLOAD PUSH4 0xB77D239B PUSH1 0xE0 SHL DUP2 MSTORE PUSH1 0x1 PUSH1 0x1 PUSH1 0xA0 SHL SUB DUP5 AND SWAP1 PUSH4 0xB77D239B SWAP1 DUP4 SWAP1 PUSH2 0x6B54 SWAP1 DUP7 SWAP1 DUP12 SWAP1 PUSH1 0x1 SWAP1 ADDRESS SWAP1 PUSH1 0x0 SWAP1 DUP2 SWAP1 PUSH1 0x4 ADD PUSH2 0x9D2D JUMP JUMPDEST PUSH1 0x20 PUSH1 0x40 MLOAD DUP1 DUP4 SUB DUP2 DUP6 DUP9 DUP1 EXTCODESIZE ISZERO DUP1 ISZERO PUSH2 0x6B6D JUMPI PUSH1 0x0 DUP1 REVERT JUMPDEST POP GAS CALL ISZERO DUP1 ISZERO PUSH2 0x6B81 JUMPI RETURNDATASIZE PUSH1 0x0 DUP1 RETURNDATACOPY RETURNDATASIZE PUSH1 0x0 REVERT JUMPDEST POP POP POP POP POP PUSH1 0x40 MLOAD RETURNDATASIZE PUSH1 0x1F NOT PUSH1 0x1F DUP3 ADD AND DUP3 ADD DUP1 PUSH1 0x40 MSTORE POP DUP2 ADD SWAP1 PUSH2 0x6BA6 SWAP2 SWAP1 PUSH2 0x8EB8 JUMP JUMPDEST SWAP4 POP PUSH20 0xEEEEEEEEEEEEEEEEEEEEEEEEEEEEEEEEEEEEEEEE PUSH1 0x1 PUSH1 0x1 PUSH1 0xA0 SHL SUB AND DUP3 PUSH1 0x1 DUP5 MLOAD SUB DUP2 MLOAD DUP2 LT PUSH2 0x6BD6 JUMPI INVALID JUMPDEST PUSH1 0x20 MUL PUSH1 0x20 ADD ADD MLOAD PUSH1 0x1 PUSH1 0x1 PUSH1 0xA0 SHL SUB AND EQ ISZERO PUSH2 0x1D4D JUMPI DUP8 PUSH1 0x1 PUSH1 0x1 PUSH1 0xA0 SHL SUB AND PUSH4 0xD0E30DB0 DUP6 PUSH1 0x40 MLOAD DUP3 PUSH4 0xFFFFFFFF AND PUSH1 0xE0 SHL DUP2 MSTORE PUSH1 0x4 ADD PUSH1 0x0 PUSH1 0x40 MLOAD DUP1 DUP4 SUB DUP2 DUP6 DUP9 DUP1 EXTCODESIZE ISZERO DUP1 ISZERO PUSH2 0x6C28 JUMPI PUSH1 0x0 DUP1 REVERT JUMPDEST POP GAS CALL ISZERO DUP1 ISZERO PUSH2 0x6C3C JUMPI RETURNDATASIZE PUSH1 0x0 DUP1 RETURNDATACOPY RETURNDATASIZE PUSH1 0x0 REVERT JUMPDEST POP POP POP POP POP POP POP POP SWAP5 SWAP4 POP POP POP POP JUMP JUMPDEST PUSH1 0x0 DUP1 PUSH2 0x6C57 PUSH2 0x4CE9 JUMP JUMPDEST PUSH1 0x1 PUSH1 0x1 PUSH1 0xA0 SHL SUB AND DUP5 PUSH1 0x1 PUSH1 0x1 PUSH1 0xA0 SHL SUB AND EQ PUSH2 0x6C75 JUMPI DUP4 PUSH2 0x6C78 JUMP JUMPDEST PUSH1 0x0 JUMPDEST SWAP1 POP PUSH1 0x0 PUSH2 0x6C84 PUSH2 0x4CE9 JUMP JUMPDEST PUSH1 0x1 PUSH1 0x1 PUSH1 0xA0 SHL SUB AND DUP5 PUSH1 0x1 PUSH1 0x1 PUSH1 0xA0 SHL SUB AND EQ PUSH2 0x6CA2 JUMPI DUP4 PUSH2 0x6CA5 JUMP JUMPDEST PUSH1 0x0 JUMPDEST SWAP1 POP DUP6 PUSH1 0x1 PUSH1 0x1 PUSH1 0xA0 SHL SUB AND PUSH4 0x901754D7 PUSH3 0x493E0 DUP5 DUP5 PUSH1 0x40 MLOAD DUP5 PUSH4 0xFFFFFFFF AND PUSH1 0xE0 SHL DUP2 MSTORE PUSH1 0x4 ADD PUSH2 0x6CD9 SWAP3 SWAP2 SWAP1 PUSH2 0x9968 JUMP JUMPDEST PUSH1 0x20 PUSH1 0x40 MLOAD DUP1 DUP4 SUB DUP2 DUP8 DUP1 EXTCODESIZE ISZERO DUP1 ISZERO PUSH2 0x6CF1 JUMPI PUSH1 0x0 DUP1 REVERT JUMPDEST POP DUP7 STATICCALL SWAP4 POP POP POP POP DUP1 ISZERO PUSH2 0x6D22 JUMPI POP PUSH1 0x40 DUP1 MLOAD PUSH1 0x1F RETURNDATASIZE SWAP1 DUP2 ADD PUSH1 0x1F NOT AND DUP3 ADD SWAP1 SWAP3 MSTORE PUSH2 0x6D1F SWAP2 DUP2 ADD SWAP1 PUSH2 0x8856 JUMP JUMPDEST PUSH1 0x1 JUMPDEST PUSH2 0x513F JUMPI PUSH2 0x6603 JUMP JUMPDEST PUSH1 0x0 DUP1 DUP3 DUP1 PUSH1 0x20 ADD SWAP1 MLOAD DUP2 ADD SWAP1 PUSH2 0x6D42 SWAP2 SWAP1 PUSH2 0x8856 JUMP JUMPDEST SWAP1 POP PUSH1 0x0 PUSH2 0x6D52 DUP9 DUP4 DUP10 DUP10 PUSH2 0x7DDD JUMP JUMPDEST SWAP1 POP DUP8 PUSH1 0x1 PUSH1 0x1 PUSH1 0xA0 SHL SUB AND DUP8 PUSH1 0x1 PUSH1 0x1 PUSH1 0xA0 SHL SUB AND EQ ISZERO PUSH2 0x6E58 JUMPI PUSH1 0x40 MLOAD PUSH4 0x2E1A7D4D PUSH1 0xE0 SHL DUP2 MSTORE PUSH1 0x1 PUSH1 0x1 PUSH1 0xA0 SHL SUB DUP10 AND SWAP1 PUSH4 0x2E1A7D4D SWAP1 PUSH2 0x6D9A SWAP1 DUP9 SWAP1 PUSH1 0x4 ADD PUSH2 0x9E57 JUMP JUMPDEST PUSH1 0x0 PUSH1 0x40 MLOAD DUP1 DUP4 SUB DUP2 PUSH1 0x0 DUP8 DUP1 EXTCODESIZE ISZERO DUP1 ISZERO PUSH2 0x6DB4 JUMPI PUSH1 0x0 DUP1 REVERT JUMPDEST POP GAS CALL ISZERO DUP1 ISZERO PUSH2 0x6DC8 JUMPI RETURNDATASIZE PUSH1 0x0 DUP1 RETURNDATACOPY RETURNDATASIZE PUSH1 0x0 REVERT JUMPDEST POP POP PUSH1 0x40 MLOAD PUSH4 0xAD65D76D PUSH1 0xE0 SHL DUP2 MSTORE PUSH1 0x1 PUSH1 0x1 PUSH1 0xA0 SHL SUB DUP5 AND SWAP3 POP PUSH4 0xAD65D76D SWAP2 POP DUP8 SWAP1 PUSH2 0x6DFF SWAP1 PUSH1 0x1 SWAP1 TIMESTAMP SWAP1 ADDRESS SWAP1 PUSH1 0x4 ADD PUSH2 0xA0F0 JUMP JUMPDEST PUSH1 0x20 PUSH1 0x40 MLOAD DUP1 DUP4 SUB DUP2 DUP6 DUP9 DUP1 EXTCODESIZE ISZERO DUP1 ISZERO PUSH2 0x6E18 JUMPI PUSH1 0x0 DUP1 REVERT JUMPDEST POP GAS CALL ISZERO DUP1 ISZERO PUSH2 0x6E2C JUMPI RETURNDATASIZE PUSH1 0x0 DUP1 RETURNDATACOPY RETURNDATASIZE PUSH1 0x0 REVERT JUMPDEST POP POP POP POP POP PUSH1 0x40 MLOAD RETURNDATASIZE PUSH1 0x1F NOT PUSH1 0x1F DUP3 ADD AND DUP3 ADD DUP1 PUSH1 0x40 MSTORE POP DUP2 ADD SWAP1 PUSH2 0x6E51 SWAP2 SWAP1 PUSH2 0x8EB8 JUMP JUMPDEST SWAP3 POP PUSH2 0x4FFD JUMP JUMPDEST DUP8 PUSH1 0x1 PUSH1 0x1 PUSH1 0xA0 SHL SUB AND DUP7 PUSH1 0x1 PUSH1 0x1 PUSH1 0xA0 SHL SUB AND EQ ISZERO PUSH2 0x6F64 JUMPI PUSH2 0x6E86 PUSH1 0x1 PUSH1 0x1 PUSH1 0xA0 SHL SUB DUP9 AND DUP3 DUP8 PUSH2 0x7A52 JUMP JUMPDEST PUSH1 0x40 MLOAD PUSH4 0x95E3C50B PUSH1 0xE0 SHL DUP2 MSTORE PUSH1 0x1 PUSH1 0x1 PUSH1 0xA0 SHL SUB DUP3 AND SWAP1 PUSH4 0x95E3C50B SWAP1 PUSH2 0x6EB7 SWAP1 DUP9 SWAP1 PUSH1 0x1 SWAP1 TIMESTAMP SWAP1 PUSH1 0x4 ADD PUSH2 0xA7FE JUMP JUMPDEST PUSH1 0x20 PUSH1 0x40 MLOAD DUP1 DUP4 SUB DUP2 PUSH1 0x0 DUP8 DUP1 EXTCODESIZE ISZERO DUP1 ISZERO PUSH2 0x6ED1 JUMPI PUSH1 0x0 DUP1 REVERT JUMPDEST POP GAS CALL ISZERO DUP1 ISZERO PUSH2 0x6EE5 JUMPI RETURNDATASIZE PUSH1 0x0 DUP1 RETURNDATACOPY RETURNDATASIZE PUSH1 0x0 REVERT JUMPDEST POP POP POP POP PUSH1 0x40 MLOAD RETURNDATASIZE PUSH1 0x1F NOT PUSH1 0x1F DUP3 ADD AND DUP3 ADD DUP1 PUSH1 0x40 MSTORE POP DUP2 ADD SWAP1 PUSH2 0x6F09 SWAP2 SWAP1 PUSH2 0x8EB8 JUMP JUMPDEST SWAP3 POP DUP8 PUSH1 0x1 PUSH1 0x1 PUSH1 0xA0 SHL SUB AND PUSH4 0xD0E30DB0 DUP5 PUSH1 0x40 MLOAD DUP3 PUSH4 0xFFFFFFFF AND PUSH1 0xE0 SHL DUP2 MSTORE PUSH1 0x4 ADD PUSH1 0x0 PUSH1 0x40 MLOAD DUP1 DUP4 SUB DUP2 DUP6 DUP9 DUP1 EXTCODESIZE ISZERO DUP1 ISZERO PUSH2 0x6F46 JUMPI PUSH1 0x0 DUP1 REVERT JUMPDEST POP GAS CALL ISZERO DUP1 ISZERO PUSH2 0x6F5A JUMPI RETURNDATASIZE PUSH1 0x0 DUP1 RETURNDATACOPY RETURNDATASIZE PUSH1 0x0 REVERT JUMPDEST POP POP POP POP POP PUSH2 0x4FFD JUMP JUMPDEST PUSH2 0x6F78 PUSH1 0x1 PUSH1 0x1 PUSH1 0xA0 SHL SUB DUP9 AND DUP3 DUP8 PUSH2 0x7A52 JUMP JUMPDEST PUSH1 0x40 MLOAD PUSH4 0xDDF7E1A7 PUSH1 0xE0 SHL DUP2 MSTORE PUSH1 0x1 PUSH1 0x1 PUSH1 0xA0 SHL SUB DUP3 AND SWAP1 PUSH4 0xDDF7E1A7 SWAP1 PUSH2 0x643E SWAP1 DUP9 SWAP1 PUSH1 0x1 SWAP1 DUP2 SWAP1 TIMESTAMP SWAP1 DUP14 SWAP1 PUSH1 0x4 ADD PUSH2 0xA7D2 JUMP JUMPDEST PUSH1 0x0 DUP1 PUSH1 0x60 DUP5 PUSH1 0x1 PUSH1 0x1 PUSH1 0xA0 SHL SUB AND PUSH4 0x70A08231 PUSH1 0xE0 SHL DUP6 PUSH1 0x40 MLOAD PUSH1 0x24 ADD PUSH2 0x6FD5 SWAP2 SWAP1 PUSH2 0x993B JUMP JUMPDEST PUSH1 0x40 DUP1 MLOAD PUSH1 0x1F NOT DUP2 DUP5 SUB ADD DUP2 MSTORE SWAP2 DUP2 MSTORE PUSH1 0x20 DUP3 ADD DUP1 MLOAD PUSH1 0x1 PUSH1 0x1 PUSH1 0xE0 SHL SUB AND PUSH1 0x1 PUSH1 0x1 PUSH1 0xE0 SHL SUB NOT SWAP1 SWAP5 AND SWAP4 SWAP1 SWAP4 OR SWAP1 SWAP3 MSTORE SWAP1 MLOAD PUSH2 0x7013 SWAP2 SWAP1 PUSH2 0x991F JUMP JUMPDEST PUSH1 0x0 PUSH1 0x40 MLOAD DUP1 DUP4 SUB DUP2 DUP6 GAS STATICCALL SWAP2 POP POP RETURNDATASIZE DUP1 PUSH1 0x0 DUP2 EQ PUSH2 0x704E JUMPI PUSH1 0x40 MLOAD SWAP2 POP PUSH1 0x1F NOT PUSH1 0x3F RETURNDATASIZE ADD AND DUP3 ADD PUSH1 0x40 MSTORE RETURNDATASIZE DUP3 MSTORE RETURNDATASIZE PUSH1 0x0 PUSH1 0x20 DUP5 ADD RETURNDATACOPY PUSH2 0x7053 JUMP JUMPDEST PUSH1 0x60 SWAP2 POP JUMPDEST POP SWAP2 POP SWAP2 POP DUP2 DUP1 ISZERO PUSH2 0x7067 JUMPI POP PUSH1 0x20 DUP2 MLOAD LT ISZERO JUMPDEST ISZERO PUSH2 0x4506 JUMPI PUSH2 0x7077 DUP2 PUSH1 0x0 PUSH2 0x601F JUMP JUMPDEST SWAP6 SWAP5 POP POP POP POP POP JUMP JUMPDEST PUSH1 0x0 PUSH2 0x708A PUSH2 0x80F8 JUMP JUMPDEST DUP3 DUP1 PUSH1 0x20 ADD SWAP1 MLOAD DUP2 ADD SWAP1 PUSH2 0x709E SWAP2 SWAP1 PUSH2 0x9504 JUMP JUMPDEST SWAP1 POP PUSH1 0x0 DUP6 PUSH1 0x1 PUSH1 0x1 PUSH1 0xA0 SHL SUB AND PUSH4 0x70A08231 ADDRESS PUSH1 0x40 MLOAD DUP3 PUSH4 0xFFFFFFFF AND PUSH1 0xE0 SHL DUP2 MSTORE PUSH1 0x4 ADD PUSH2 0x70CE SWAP2 SWAP1 PUSH2 0x993B JUMP JUMPDEST PUSH1 0x20 PUSH1 0x40 MLOAD DUP1 DUP4 SUB DUP2 DUP7 DUP1 EXTCODESIZE ISZERO DUP1 ISZERO PUSH2 0x70E6 JUMPI PUSH1 0x0 DUP1 REVERT JUMPDEST POP GAS STATICCALL ISZERO DUP1 ISZERO PUSH2 0x70FA JUMPI RETURNDATASIZE PUSH1 0x0 DUP1 RETURNDATACOPY RETURNDATASIZE PUSH1 0x0 REVERT JUMPDEST POP POP POP POP PUSH1 0x40 MLOAD RETURNDATASIZE PUSH1 0x1F NOT PUSH1 0x1F DUP3 ADD AND DUP3 ADD DUP1 PUSH1 0x40 MSTORE POP DUP2 ADD SWAP1 PUSH2 0x711E SWAP2 SWAP1 PUSH2 0x8EB8 JUMP JUMPDEST DUP3 MLOAD PUSH1 0x20 DUP5 ADD MLOAD SWAP2 SWAP3 POP SWAP1 PUSH1 0x1 PUSH1 0x1 PUSH1 0xA0 SHL SUB DUP10 DUP2 AND SWAP2 AND EQ ISZERO PUSH2 0x7226 JUMPI PUSH2 0x71C1 DUP2 PUSH1 0x1 PUSH1 0x1 PUSH1 0xA0 SHL SUB AND PUSH4 0x1664F66 PUSH1 0x40 MLOAD DUP2 PUSH4 0xFFFFFFFF AND PUSH1 0xE0 SHL DUP2 MSTORE PUSH1 0x4 ADD PUSH1 0x20 PUSH1 0x40 MLOAD DUP1 DUP4 SUB DUP2 DUP7 DUP1 EXTCODESIZE ISZERO DUP1 ISZERO PUSH2 0x7178 JUMPI PUSH1 0x0 DUP1 REVERT JUMPDEST POP GAS STATICCALL ISZERO DUP1 ISZERO PUSH2 0x718C JUMPI RETURNDATASIZE PUSH1 0x0 DUP1 RETURNDATACOPY RETURNDATASIZE PUSH1 0x0 REVERT JUMPDEST POP POP POP POP PUSH1 0x40 MLOAD RETURNDATASIZE PUSH1 0x1F NOT PUSH1 0x1F DUP3 ADD AND DUP3 ADD DUP1 PUSH1 0x40 MSTORE POP DUP2 ADD SWAP1 PUSH2 0x71B0 SWAP2 SWAP1 PUSH2 0x8856 JUMP JUMPDEST PUSH1 0x1 PUSH1 0x1 PUSH1 0xA0 SHL SUB DUP11 AND SWAP1 DUP9 PUSH2 0x7A52 JUMP JUMPDEST PUSH1 0x40 MLOAD PUSH4 0x4ACC893B PUSH1 0xE1 SHL DUP2 MSTORE PUSH1 0x1 PUSH1 0x1 PUSH1 0xA0 SHL SUB DUP3 AND SWAP1 PUSH4 0x95991276 SWAP1 PUSH2 0x71EF SWAP1 ADDRESS SWAP1 DUP11 SWAP1 PUSH1 0x4 ADD PUSH2 0x994F JUMP JUMPDEST PUSH1 0x0 PUSH1 0x40 MLOAD DUP1 DUP4 SUB DUP2 PUSH1 0x0 DUP8 DUP1 EXTCODESIZE ISZERO DUP1 ISZERO PUSH2 0x7209 JUMPI PUSH1 0x0 DUP1 REVERT JUMPDEST POP GAS CALL ISZERO DUP1 ISZERO PUSH2 0x721D JUMPI RETURNDATASIZE PUSH1 0x0 DUP1 RETURNDATACOPY RETURNDATASIZE PUSH1 0x0 REVERT JUMPDEST POP POP POP POP PUSH2 0x73D4 JUMP JUMPDEST DUP3 PUSH1 0x20 ADD MLOAD PUSH1 0x1 PUSH1 0x1 PUSH1 0xA0 SHL SUB AND DUP8 PUSH1 0x1 PUSH1 0x1 PUSH1 0xA0 SHL SUB AND EQ ISZERO PUSH2 0x73D4 JUMPI PUSH1 0x0 PUSH2 0x72C9 DUP3 PUSH1 0x1 PUSH1 0x1 PUSH1 0xA0 SHL SUB AND PUSH4 0xFAE036D5 PUSH1 0x40 MLOAD DUP2 PUSH4 0xFFFFFFFF AND PUSH1 0xE0 SHL DUP2 MSTORE PUSH1 0x4 ADD PUSH1 0x20 PUSH1 0x40 MLOAD DUP1 DUP4 SUB DUP2 DUP7 DUP1 EXTCODESIZE ISZERO DUP1 ISZERO PUSH2 0x7282 JUMPI PUSH1 0x0 DUP1 REVERT JUMPDEST POP GAS STATICCALL ISZERO DUP1 ISZERO PUSH2 0x7296 JUMPI RETURNDATASIZE PUSH1 0x0 DUP1 RETURNDATACOPY RETURNDATASIZE PUSH1 0x0 REVERT JUMPDEST POP POP POP POP PUSH1 0x40 MLOAD RETURNDATASIZE PUSH1 0x1F NOT PUSH1 0x1F DUP3 ADD AND DUP3 ADD DUP1 PUSH1 0x40 MSTORE POP DUP2 ADD SWAP1 PUSH2 0x72BA SWAP2 SWAP1 PUSH2 0x8EB8 JUMP JUMPDEST PUSH8 0xDE0B6B3A7640000 SWAP1 PUSH2 0x7B3A JUMP JUMPDEST SWAP1 POP PUSH1 0x0 DUP9 PUSH1 0x1 PUSH1 0x1 PUSH1 0xA0 SHL SUB AND PUSH4 0x313CE567 PUSH1 0x40 MLOAD DUP2 PUSH4 0xFFFFFFFF AND PUSH1 0xE0 SHL DUP2 MSTORE PUSH1 0x4 ADD PUSH1 0x20 PUSH1 0x40 MLOAD DUP1 DUP4 SUB DUP2 DUP7 DUP1 EXTCODESIZE ISZERO DUP1 ISZERO PUSH2 0x7306 JUMPI PUSH1 0x0 DUP1 REVERT JUMPDEST POP GAS STATICCALL ISZERO DUP1 ISZERO PUSH2 0x731A JUMPI RETURNDATASIZE PUSH1 0x0 DUP1 RETURNDATACOPY RETURNDATASIZE PUSH1 0x0 REVERT JUMPDEST POP POP POP POP PUSH1 0x40 MLOAD RETURNDATASIZE PUSH1 0x1F NOT PUSH1 0x1F DUP3 ADD AND DUP3 ADD DUP1 PUSH1 0x40 MSTORE POP DUP2 ADD SWAP1 PUSH2 0x733E SWAP2 SWAP1 PUSH2 0x969A JUMP JUMPDEST PUSH1 0xFF AND PUSH1 0xA EXP SWAP1 POP PUSH1 0x0 PUSH2 0x7356 DUP4 PUSH2 0x51CD DUP12 DUP6 PUSH2 0x7B09 JUMP JUMPDEST DUP7 MLOAD SWAP1 SWAP2 POP PUSH2 0x7370 SWAP1 PUSH1 0x1 PUSH1 0x1 PUSH1 0xA0 SHL SUB DUP14 AND SWAP1 DUP12 PUSH2 0x7A52 JUMP JUMPDEST PUSH1 0x40 MLOAD PUSH4 0x8D7EF9BB PUSH1 0xE0 SHL DUP2 MSTORE PUSH1 0x1 PUSH1 0x1 PUSH1 0xA0 SHL SUB DUP6 AND SWAP1 PUSH4 0x8D7EF9BB SWAP1 PUSH2 0x739E SWAP1 ADDRESS SWAP1 DUP6 SWAP1 PUSH1 0x4 ADD PUSH2 0x994F JUMP JUMPDEST PUSH1 0x0 PUSH1 0x40 MLOAD DUP1 DUP4 SUB DUP2 PUSH1 0x0 DUP8 DUP1 EXTCODESIZE ISZERO DUP1 ISZERO PUSH2 0x73B8 JUMPI PUSH1 0x0 DUP1 REVERT JUMPDEST POP GAS CALL ISZERO DUP1 ISZERO PUSH2 0x73CC JUMPI RETURNDATASIZE PUSH1 0x0 DUP1 RETURNDATACOPY RETURNDATASIZE PUSH1 0x0 REVERT JUMPDEST POP POP POP POP POP POP POP JUMPDEST PUSH2 0x6490 DUP3 DUP9 PUSH1 0x1 PUSH1 0x1 PUSH1 0xA0 SHL SUB AND PUSH4 0x70A08231 ADDRESS PUSH1 0x40 MLOAD DUP3 PUSH4 0xFFFFFFFF AND PUSH1 0xE0 SHL DUP2 MSTORE PUSH1 0x4 ADD PUSH2 0x5386 SWAP2 SWAP1 PUSH2 0x993B JUMP JUMPDEST PUSH1 0x0 DUP1 PUSH1 0x0 DUP1 DUP5 DUP1 PUSH1 0x20 ADD SWAP1 MLOAD DUP2 ADD SWAP1 PUSH2 0x741E SWAP2 SWAP1 PUSH2 0x904B JUMP JUMPDEST SWAP2 SWAP5 POP SWAP3 POP SWAP1 POP PUSH2 0x7439 PUSH1 0x1 PUSH1 0x1 PUSH1 0xA0 SHL SUB DUP9 AND DUP4 DUP9 PUSH2 0x7A52 JUMP JUMPDEST DUP1 ISZERO PUSH2 0x74D6 JUMPI PUSH1 0x40 DUP1 MLOAD PUSH1 0x0 DUP2 MSTORE PUSH1 0x20 DUP2 ADD SWAP2 DUP3 SWAP1 MSTORE PUSH4 0x8DAE7333 PUSH1 0xE0 SHL SWAP1 SWAP2 MSTORE PUSH1 0x1 PUSH1 0x1 PUSH1 0xA0 SHL SUB DUP4 AND SWAP1 PUSH4 0x8DAE7333 SWAP1 PUSH2 0x747D SWAP1 DUP10 SWAP1 PUSH1 0x1 SWAP1 PUSH1 0x24 DUP2 ADD PUSH2 0xA7B3 JUMP JUMPDEST PUSH1 0x20 PUSH1 0x40 MLOAD DUP1 DUP4 SUB DUP2 PUSH1 0x0 DUP8 DUP1 EXTCODESIZE ISZERO DUP1 ISZERO PUSH2 0x7497 JUMPI PUSH1 0x0 DUP1 REVERT JUMPDEST POP GAS CALL ISZERO DUP1 ISZERO PUSH2 0x74AB JUMPI RETURNDATASIZE PUSH1 0x0 DUP1 RETURNDATACOPY RETURNDATASIZE PUSH1 0x0 REVERT JUMPDEST POP POP POP POP PUSH1 0x40 MLOAD RETURNDATASIZE PUSH1 0x1F NOT PUSH1 0x1F DUP3 ADD AND DUP3 ADD DUP1 PUSH1 0x40 MSTORE POP DUP2 ADD SWAP1 PUSH2 0x74CF SWAP2 SWAP1 PUSH2 0x8EB8 JUMP JUMPDEST SWAP4 POP PUSH2 0x75E8 JUMP JUMPDEST PUSH1 0x40 MLOAD PUSH4 0xCA19EBD9 PUSH1 0xE0 SHL DUP2 MSTORE PUSH1 0x1 PUSH1 0x1 PUSH1 0xA0 SHL SUB DUP5 AND SWAP1 PUSH4 0xCA19EBD9 SWAP1 PUSH2 0x7504 SWAP1 DUP6 SWAP1 DUP11 SWAP1 PUSH1 0x4 ADD PUSH2 0x994F JUMP JUMPDEST PUSH1 0x20 PUSH1 0x40 MLOAD DUP1 DUP4 SUB DUP2 DUP7 DUP1 EXTCODESIZE ISZERO DUP1 ISZERO PUSH2 0x751C JUMPI PUSH1 0x0 DUP1 REVERT JUMPDEST POP GAS STATICCALL ISZERO DUP1 ISZERO PUSH2 0x7530 JUMPI RETURNDATASIZE PUSH1 0x0 DUP1 RETURNDATACOPY RETURNDATASIZE PUSH1 0x0 REVERT JUMPDEST POP POP POP POP PUSH1 0x40 MLOAD RETURNDATASIZE PUSH1 0x1F NOT PUSH1 0x1F DUP3 ADD AND DUP3 ADD DUP1 PUSH1 0x40 MSTORE POP DUP2 ADD SWAP1 PUSH2 0x7554 SWAP2 SWAP1 PUSH2 0x8EB8 JUMP JUMPDEST PUSH1 0x40 DUP1 MLOAD PUSH1 0x0 DUP2 MSTORE PUSH1 0x20 DUP2 ADD SWAP2 DUP3 SWAP1 MSTORE PUSH4 0x733E7383 PUSH1 0xE1 SHL SWAP1 SWAP2 MSTORE SWAP1 SWAP5 POP PUSH1 0x1 PUSH1 0x1 PUSH1 0xA0 SHL SUB DUP4 AND SWAP1 PUSH4 0xE67CE706 SWAP1 PUSH2 0x7594 SWAP1 DUP8 SWAP1 DUP11 SWAP1 PUSH1 0x24 DUP2 ADD PUSH2 0xA7B3 JUMP JUMPDEST PUSH1 0x20 PUSH1 0x40 MLOAD DUP1 DUP4 SUB DUP2 PUSH1 0x0 DUP8 DUP1 EXTCODESIZE ISZERO DUP1 ISZERO PUSH2 0x75AE JUMPI PUSH1 0x0 DUP1 REVERT JUMPDEST POP GAS CALL ISZERO DUP1 ISZERO PUSH2 0x75C2 JUMPI RETURNDATASIZE PUSH1 0x0 DUP1 RETURNDATACOPY RETURNDATASIZE PUSH1 0x0 REVERT JUMPDEST POP POP POP POP PUSH1 0x40 MLOAD RETURNDATASIZE PUSH1 0x1F NOT PUSH1 0x1F DUP3 ADD AND DUP3 ADD DUP1 PUSH1 0x40 MSTORE POP DUP2 ADD SWAP1 PUSH2 0x75E6 SWAP2 SWAP1 PUSH2 0x8EB8 JUMP JUMPDEST POP JUMPDEST POP POP POP SWAP4 SWAP3 POP POP POP JUMP JUMPDEST PUSH1 0x0 DUP1 PUSH1 0x60 DUP4 DUP1 PUSH1 0x20 ADD SWAP1 MLOAD DUP2 ADD SWAP1 PUSH2 0x760B SWAP2 SWAP1 PUSH2 0x90BA JUMP JUMPDEST SWAP1 SWAP3 POP SWAP1 POP PUSH2 0x7624 PUSH1 0x1 PUSH1 0x1 PUSH1 0xA0 SHL SUB DUP9 AND DUP4 DUP8 PUSH2 0x7F1D JUMP JUMPDEST PUSH1 0x40 MLOAD PUSH4 0x19740AC1 PUSH1 0xE2 SHL DUP2 MSTORE PUSH1 0x1 PUSH1 0x1 PUSH1 0xA0 SHL SUB DUP4 AND SWAP1 PUSH4 0x65D02B04 SWAP1 PUSH2 0x7659 SWAP1 DUP11 SWAP1 DUP11 SWAP1 ADDRESS SWAP1 PUSH1 0x1 SWAP1 DUP9 SWAP1 PUSH1 0x4 ADD PUSH2 0x9F28 JUMP JUMPDEST PUSH1 0x20 PUSH1 0x40 MLOAD DUP1 DUP4 SUB DUP2 PUSH1 0x0 DUP8 DUP1 EXTCODESIZE ISZERO DUP1 ISZERO PUSH2 0x7673 JUMPI PUSH1 0x0 DUP1 REVERT JUMPDEST POP GAS CALL ISZERO DUP1 ISZERO PUSH2 0x7687 JUMPI RETURNDATASIZE PUSH1 0x0 DUP1 RETURNDATACOPY RETURNDATASIZE PUSH1 0x0 REVERT JUMPDEST POP POP POP POP PUSH1 0x40 MLOAD RETURNDATASIZE PUSH1 0x1F NOT PUSH1 0x1F DUP3 ADD AND DUP3 ADD DUP1 PUSH1 0x40 MSTORE POP DUP2 ADD SWAP1 PUSH2 0x76AB SWAP2 SWAP1 PUSH2 0x8EB8 JUMP JUMPDEST SWAP8 SWAP7 POP POP POP POP POP POP POP JUMP JUMPDEST PUSH1 0x0 DUP1 DUP3 DUP1 PUSH1 0x20 ADD SWAP1 MLOAD DUP2 ADD SWAP1 PUSH2 0x76CD SWAP2 SWAP1 PUSH2 0x8856 JUMP JUMPDEST SWAP1 POP PUSH2 0x76E3 PUSH1 0x1 PUSH1 0x1 PUSH1 0xA0 SHL SUB DUP8 AND DUP3 DUP7 PUSH2 0x7A52 JUMP JUMPDEST PUSH1 0x40 MLOAD PUSH4 0xD5BCB9B5 PUSH1 0xE0 SHL DUP2 MSTORE PUSH1 0x1 PUSH1 0x1 PUSH1 0xA0 SHL SUB DUP3 AND SWAP1 PUSH4 0xD5BCB9B5 SWAP1 PUSH2 0x50ED SWAP1 DUP10 SWAP1 DUP10 SWAP1 DUP10 SWAP1 PUSH1 0x1 SWAP1 ADDRESS SWAP1 PUSH1 0x4 ADD PUSH2 0x9F8B JUMP JUMPDEST PUSH1 0x0 DUP1 PUSH1 0x60 DUP6 PUSH1 0x1 PUSH1 0x1 PUSH1 0xA0 SHL SUB AND PUSH4 0xDD62ED3E PUSH1 0xE0 SHL DUP7 DUP7 PUSH1 0x40 MLOAD PUSH1 0x24 ADD PUSH2 0x7742 SWAP3 SWAP2 SWAP1 PUSH2 0x9968 JUMP JUMPDEST PUSH1 0x40 DUP1 MLOAD PUSH1 0x1F NOT DUP2 DUP5 SUB ADD DUP2 MSTORE SWAP2 DUP2 MSTORE PUSH1 0x20 DUP3 ADD DUP1 MLOAD PUSH1 0x1 PUSH1 0x1 PUSH1 0xE0 SHL SUB AND PUSH1 0x1 PUSH1 0x1 PUSH1 0xE0 SHL SUB NOT SWAP1 SWAP5 AND SWAP4 SWAP1 SWAP4 OR SWAP1 SWAP3 MSTORE SWAP1 MLOAD PUSH2 0x7780 SWAP2 SWAP1 PUSH2 0x991F JUMP JUMPDEST PUSH1 0x0 PUSH1 0x40 MLOAD DUP1 DUP4 SUB DUP2 DUP6 GAS STATICCALL SWAP2 POP POP RETURNDATASIZE DUP1 PUSH1 0x0 DUP2 EQ PUSH2 0x77BB JUMPI PUSH1 0x40 MLOAD SWAP2 POP PUSH1 0x1F NOT PUSH1 0x3F RETURNDATASIZE ADD AND DUP3 ADD PUSH1 0x40 MSTORE RETURNDATASIZE DUP3 MSTORE RETURNDATASIZE PUSH1 0x0 PUSH1 0x20 DUP5 ADD RETURNDATACOPY PUSH2 0x77C0 JUMP JUMPDEST PUSH1 0x60 SWAP2 POP JUMPDEST POP SWAP2 POP SWAP2 POP DUP2 DUP1 ISZERO PUSH2 0x77D4 JUMPI POP PUSH1 0x20 DUP2 MLOAD LT ISZERO JUMPDEST ISZERO PUSH2 0x6603 JUMPI PUSH2 0x513F DUP2 PUSH1 0x0 PUSH2 0x601F JUMP JUMPDEST PUSH1 0x0 DUP1 PUSH1 0x0 DUP4 DUP1 PUSH1 0x20 ADD SWAP1 MLOAD DUP2 ADD SWAP1 PUSH2 0x77FD SWAP2 SWAP1 PUSH2 0x908C JUMP JUMPDEST SWAP1 SWAP3 POP SWAP1 POP PUSH2 0x7816 PUSH1 0x1 PUSH1 0x1 PUSH1 0xA0 SHL SUB DUP8 AND DUP4 DUP8 PUSH2 0x7F1D JUMP JUMPDEST DUP1 PUSH2 0x789E JUMPI PUSH1 0x40 MLOAD PUSH4 0x6EC9FACD PUSH1 0xE1 SHL DUP2 MSTORE PUSH1 0x1 PUSH1 0x1 PUSH1 0xA0 SHL SUB DUP4 AND SWAP1 PUSH4 0xDD93F59A SWAP1 PUSH2 0x7847 SWAP1 ADDRESS SWAP1 PUSH1 0x4 ADD PUSH2 0x993B JUMP JUMPDEST PUSH1 0x20 PUSH1 0x40 MLOAD DUP1 DUP4 SUB DUP2 PUSH1 0x0 DUP8 DUP1 EXTCODESIZE ISZERO DUP1 ISZERO PUSH2 0x7861 JUMPI PUSH1 0x0 DUP1 REVERT JUMPDEST POP GAS CALL ISZERO DUP1 ISZERO PUSH2 0x7875 JUMPI RETURNDATASIZE PUSH1 0x0 DUP1 RETURNDATACOPY RETURNDATASIZE PUSH1 0x0 REVERT JUMPDEST POP POP POP POP PUSH1 0x40 MLOAD RETURNDATASIZE PUSH1 0x1F NOT PUSH1 0x1F DUP3 ADD AND DUP3 ADD DUP1 PUSH1 0x40 MSTORE POP DUP2 ADD SWAP1 PUSH2 0x7899 SWAP2 SWAP1 PUSH2 0x8EB8 JUMP JUMPDEST PUSH2 0x513F JUMP JUMPDEST PUSH1 0x40 MLOAD PUSH4 0x2F58056D PUSH1 0xE2 SHL DUP2 MSTORE PUSH1 0x1 PUSH1 0x1 PUSH1 0xA0 SHL SUB DUP4 AND SWAP1 PUSH4 0xBD6015B4 SWAP1 PUSH2 0x50ED SWAP1 ADDRESS SWAP1 PUSH1 0x4 ADD PUSH2 0x993B JUMP JUMPDEST PUSH1 0x60 DUP2 MLOAD PUSH1 0x1 PUSH1 0x1 PUSH1 0x40 SHL SUB DUP2 GT DUP1 ISZERO PUSH2 0x78E3 JUMPI PUSH1 0x0 DUP1 REVERT JUMPDEST POP PUSH1 0x40 MLOAD SWAP1 DUP1 DUP3 MSTORE DUP1 PUSH1 0x20 MUL PUSH1 0x20 ADD DUP3 ADD PUSH1 0x40 MSTORE DUP1 ISZERO PUSH2 0x790D JUMPI DUP2 PUSH1 0x20 ADD PUSH1 0x20 DUP3 MUL DUP1 CALLDATASIZE DUP4 CALLDATACOPY ADD SWAP1 POP JUMPDEST POP SWAP1 POP PUSH1 0x0 JUMPDEST DUP3 MLOAD DUP2 LT ISZERO PUSH2 0x24C2 JUMPI DUP3 PUSH1 0x1 DUP3 DUP6 MLOAD SUB SUB DUP2 MLOAD DUP2 LT PUSH2 0x792E JUMPI INVALID JUMPDEST PUSH1 0x20 MUL PUSH1 0x20 ADD ADD MLOAD DUP3 DUP3 DUP2 MLOAD DUP2 LT PUSH2 0x7942 JUMPI INVALID JUMPDEST PUSH1 0x1 PUSH1 0x1 PUSH1 0xA0 SHL SUB SWAP1 SWAP3 AND PUSH1 0x20 SWAP3 DUP4 MUL SWAP2 SWAP1 SWAP2 ADD SWAP1 SWAP2 ADD MSTORE PUSH1 0x1 ADD PUSH2 0x7913 JUMP JUMPDEST PUSH1 0x60 DUP2 MLOAD PUSH1 0x1 PUSH1 0x1 PUSH1 0x40 SHL SUB DUP2 GT DUP1 ISZERO PUSH2 0x797B JUMPI PUSH1 0x0 DUP1 REVERT JUMPDEST POP PUSH1 0x40 MLOAD SWAP1 DUP1 DUP3 MSTORE DUP1 PUSH1 0x20 MUL PUSH1 0x20 ADD DUP3 ADD PUSH1 0x40 MSTORE DUP1 ISZERO PUSH2 0x79A5 JUMPI DUP2 PUSH1 0x20 ADD PUSH1 0x20 DUP3 MUL DUP1 CALLDATASIZE DUP4 CALLDATACOPY ADD SWAP1 POP JUMPDEST POP SWAP1 POP PUSH1 0x0 JUMPDEST DUP3 MLOAD DUP2 LT ISZERO PUSH2 0x24C2 JUMPI DUP3 PUSH1 0x1 DUP3 DUP6 MLOAD SUB SUB DUP2 MLOAD DUP2 LT PUSH2 0x79C6 JUMPI INVALID JUMPDEST PUSH1 0x20 MUL PUSH1 0x20 ADD ADD MLOAD DUP3 DUP3 DUP2 MLOAD DUP2 LT PUSH2 0x79DA JUMPI INVALID JUMPDEST PUSH1 0x1 PUSH1 0x1 PUSH1 0xA0 SHL SUB SWAP1 SWAP3 AND PUSH1 0x20 SWAP3 DUP4 MUL SWAP2 SWAP1 SWAP2 ADD SWAP1 SWAP2 ADD MSTORE PUSH1 0x1 ADD PUSH2 0x79AB JUMP JUMPDEST PUSH1 0x0 DUP4 ISZERO DUP1 PUSH2 0x7A07 JUMPI POP DUP2 ISZERO JUMPDEST DUP1 PUSH2 0x7A10 JUMPI POP DUP3 ISZERO JUMPDEST ISZERO PUSH2 0x7A1D JUMPI POP PUSH1 0x0 PUSH2 0x2DC3 JUMP JUMPDEST DUP4 DUP3 MUL DUP3 DUP6 DUP3 DUP2 PUSH2 0x7A2A JUMPI INVALID JUMPDEST DIV EQ PUSH2 0x7A3A JUMPI PUSH1 0x0 SWAP2 POP POP PUSH2 0x2DC3 JUMP JUMPDEST DUP4 PUSH1 0x1 DUP6 SUB DUP3 ADD DUP2 PUSH2 0x7A48 JUMPI INVALID JUMPDEST DIV SWAP6 SWAP5 POP POP POP POP POP JUMP JUMPDEST PUSH1 0x40 MLOAD PUSH4 0x6EB1769F PUSH1 0xE1 SHL DUP2 MSTORE DUP2 SWAP1 PUSH1 0x1 PUSH1 0x1 PUSH1 0xA0 SHL SUB DUP6 AND SWAP1 PUSH4 0xDD62ED3E SWAP1 PUSH2 0x7A82 SWAP1 ADDRESS SWAP1 DUP8 SWAP1 PUSH1 0x4 ADD PUSH2 0x9968 JUMP JUMPDEST PUSH1 0x20 PUSH1 0x40 MLOAD DUP1 DUP4 SUB DUP2 DUP7 DUP1 EXTCODESIZE ISZERO DUP1 ISZERO PUSH2 0x7A9A JUMPI PUSH1 0x0 DUP1 REVERT JUMPDEST POP GAS STATICCALL ISZERO DUP1 ISZERO PUSH2 0x7AAE JUMPI RETURNDATASIZE PUSH1 0x0 DUP1 RETURNDATACOPY RETURNDATASIZE PUSH1 0x0 REVERT JUMPDEST POP POP POP POP PUSH1 0x40 MLOAD RETURNDATASIZE PUSH1 0x1F NOT PUSH1 0x1F DUP3 ADD AND DUP3 ADD DUP1 PUSH1 0x40 MSTORE POP DUP2 ADD SWAP1 PUSH2 0x7AD2 SWAP2 SWAP1 PUSH2 0x8EB8 JUMP JUMPDEST LT ISZERO PUSH2 0x601A JUMPI PUSH2 0x601A DUP4 DUP4 PUSH1 0x0 NOT PUSH2 0x7F7E JUMP JUMPDEST PUSH1 0x0 DUP3 DUP3 GT ISZERO PUSH2 0x7B03 JUMPI PUSH2 0x7B03 PUSH2 0x7AFE PUSH1 0x2 DUP6 DUP6 PUSH2 0x7F9B JUMP JUMPDEST PUSH2 0x5BAA JUMP JUMPDEST POP SWAP1 SUB SWAP1 JUMP JUMPDEST PUSH1 0x0 DUP3 PUSH2 0x7B18 JUMPI POP PUSH1 0x0 PUSH2 0x4509 JUMP JUMPDEST DUP3 DUP3 MUL DUP3 DUP5 DUP3 DUP2 PUSH2 0x7B25 JUMPI INVALID JUMPDEST DIV EQ PUSH2 0x2DC3 JUMPI PUSH2 0x2DC3 PUSH2 0x7AFE PUSH1 0x1 DUP7 DUP7 PUSH2 0x7F9B JUMP JUMPDEST PUSH1 0x0 DUP3 DUP3 ADD DUP4 DUP2 LT ISZERO PUSH2 0x2DC3 JUMPI PUSH2 0x2DC3 PUSH2 0x7AFE PUSH1 0x0 DUP7 DUP7 PUSH2 0x7F9B JUMP JUMPDEST PUSH1 0x0 DUP2 PUSH2 0x7B6C JUMPI PUSH2 0x7B6C PUSH2 0x7AFE PUSH1 0x3 DUP6 DUP6 PUSH2 0x7F9B JUMP JUMPDEST PUSH1 0x0 DUP3 DUP5 DUP2 PUSH2 0x7B77 JUMPI INVALID JUMPDEST DIV SWAP5 SWAP4 POP POP POP POP JUMP JUMPDEST PUSH1 0x0 DUP2 EXTCODESIZE DUP1 PUSH2 0x7B93 JUMPI PUSH1 0x0 SWAP2 POP POP PUSH2 0x11E4 JUMP JUMPDEST POP DUP2 PUSH1 0x1 PUSH1 0x1 PUSH1 0xA0 SHL SUB AND PUSH4 0xDFE1681 PUSH1 0x40 MLOAD DUP2 PUSH4 0xFFFFFFFF AND PUSH1 0xE0 SHL DUP2 MSTORE PUSH1 0x4 ADD PUSH1 0x20 PUSH1 0x40 MLOAD DUP1 DUP4 SUB DUP2 DUP7 DUP1 EXTCODESIZE ISZERO DUP1 ISZERO PUSH2 0x7BCD JUMPI PUSH1 0x0 DUP1 REVERT JUMPDEST POP GAS STATICCALL ISZERO DUP1 ISZERO PUSH2 0x7BE1 JUMPI RETURNDATASIZE PUSH1 0x0 DUP1 RETURNDATACOPY RETURNDATASIZE PUSH1 0x0 REVERT JUMPDEST POP POP POP POP PUSH1 0x40 MLOAD RETURNDATASIZE PUSH1 0x1F NOT PUSH1 0x1F DUP3 ADD AND DUP3 ADD DUP1 PUSH1 0x40 MSTORE POP DUP2 ADD SWAP1 PUSH2 0x7C05 SWAP2 SWAP1 PUSH2 0x8856 JUMP JUMPDEST PUSH1 0x1 PUSH1 0x1 PUSH1 0xA0 SHL SUB AND PUSH4 0x70A08231 DUP4 PUSH1 0x40 MLOAD DUP3 PUSH4 0xFFFFFFFF AND PUSH1 0xE0 SHL DUP2 MSTORE PUSH1 0x4 ADD PUSH2 0x7C30 SWAP2 SWAP1 PUSH2 0x993B JUMP JUMPDEST PUSH1 0x20 PUSH1 0x40 MLOAD DUP1 DUP4 SUB DUP2 DUP7 DUP1 EXTCODESIZE ISZERO DUP1 ISZERO PUSH2 0x7C48 JUMPI PUSH1 0x0 DUP1 REVERT JUMPDEST POP GAS STATICCALL ISZERO DUP1 ISZERO PUSH2 0x7C5C JUMPI RETURNDATASIZE PUSH1 0x0 DUP1 RETURNDATACOPY RETURNDATASIZE PUSH1 0x0 REVERT JUMPDEST POP POP POP POP PUSH1 0x40 MLOAD RETURNDATASIZE PUSH1 0x1F NOT PUSH1 0x1F DUP3 ADD AND DUP3 ADD DUP1 PUSH1 0x40 MSTORE POP DUP2 ADD SWAP1 PUSH2 0x7C80 SWAP2 SWAP1 PUSH2 0x8EB8 JUMP JUMPDEST PUSH2 0x7C8C JUMPI POP PUSH1 0x0 PUSH2 0x11E4 JUMP JUMPDEST DUP2 PUSH1 0x1 PUSH1 0x1 PUSH1 0xA0 SHL SUB AND PUSH4 0xD21220A7 PUSH1 0x40 MLOAD DUP2 PUSH4 0xFFFFFFFF AND PUSH1 0xE0 SHL DUP2 MSTORE PUSH1 0x4 ADD PUSH1 0x20 PUSH1 0x40 MLOAD DUP1 DUP4 SUB DUP2 DUP7 DUP1 EXTCODESIZE ISZERO DUP1 ISZERO PUSH2 0x7CC5 JUMPI PUSH1 0x0 DUP1 REVERT JUMPDEST POP GAS STATICCALL ISZERO DUP1 ISZERO PUSH2 0x7CD9 JUMPI RETURNDATASIZE PUSH1 0x0 DUP1 RETURNDATACOPY RETURNDATASIZE PUSH1 0x0 REVERT JUMPDEST POP POP POP POP PUSH1 0x40 MLOAD RETURNDATASIZE PUSH1 0x1F NOT PUSH1 0x1F DUP3 ADD AND DUP3 ADD DUP1 PUSH1 0x40 MSTORE POP DUP2 ADD SWAP1 PUSH2 0x7CFD SWAP2 SWAP1 PUSH2 0x8856 JUMP JUMPDEST PUSH1 0x1 PUSH1 0x1 PUSH1 0xA0 SHL SUB AND PUSH4 0x70A08231 DUP4 PUSH1 0x40 MLOAD DUP3 PUSH4 0xFFFFFFFF AND PUSH1 0xE0 SHL DUP2 MSTORE PUSH1 0x4 ADD PUSH2 0x7D28 SWAP2 SWAP1 PUSH2 0x993B JUMP JUMPDEST PUSH1 0x20 PUSH1 0x40 MLOAD DUP1 DUP4 SUB DUP2 DUP7 DUP1 EXTCODESIZE ISZERO DUP1 ISZERO PUSH2 0x7D40 JUMPI PUSH1 0x0 DUP1 REVERT JUMPDEST POP GAS STATICCALL ISZERO DUP1 ISZERO PUSH2 0x7D54 JUMPI RETURNDATASIZE PUSH1 0x0 DUP1 RETURNDATACOPY RETURNDATASIZE PUSH1 0x0 REVERT JUMPDEST POP POP POP POP PUSH1 0x40 MLOAD RETURNDATASIZE PUSH1 0x1F NOT PUSH1 0x1F DUP3 ADD AND DUP3 ADD DUP1 PUSH1 0x40 MSTORE POP DUP2 ADD SWAP1 PUSH2 0x7D78 SWAP2 SWAP1 PUSH2 0x8EB8 JUMP JUMPDEST PUSH2 0x7D84 JUMPI POP PUSH1 0x0 PUSH2 0x11E4 JUMP JUMPDEST POP PUSH1 0x1 SWAP2 SWAP1 POP JUMP JUMPDEST DUP2 PUSH1 0x20 ADD DUP4 MLOAD LT ISZERO PUSH2 0x7DAB JUMPI PUSH2 0x7DAB PUSH2 0x7AFE PUSH1 0x5 DUP6 MLOAD DUP6 PUSH1 0x20 ADD PUSH2 0x7FF5 JUMP JUMPDEST SWAP2 ADD PUSH1 0x20 ADD MSTORE JUMP JUMPDEST PUSH1 0x0 DUP2 PUSH1 0x20 ADD DUP4 MLOAD LT ISZERO PUSH2 0x7DD4 JUMPI PUSH2 0x7DD4 PUSH2 0x7AFE PUSH1 0x5 DUP6 MLOAD DUP6 PUSH1 0x20 ADD PUSH2 0x7FF5 JUMP JUMPDEST POP ADD PUSH1 0x20 ADD MLOAD SWAP1 JUMP JUMPDEST PUSH1 0x0 DUP5 PUSH1 0x1 PUSH1 0x1 PUSH1 0xA0 SHL SUB AND DUP4 PUSH1 0x1 PUSH1 0x1 PUSH1 0xA0 SHL SUB AND EQ PUSH2 0x7E79 JUMPI PUSH1 0x40 MLOAD PUSH4 0x3795FB1 PUSH1 0xE1 SHL DUP2 MSTORE PUSH1 0x1 PUSH1 0x1 PUSH1 0xA0 SHL SUB DUP6 AND SWAP1 PUSH4 0x6F2BF62 SWAP1 PUSH2 0x7E24 SWAP1 DUP7 SWAP1 PUSH1 0x4 ADD PUSH2 0x993B JUMP JUMPDEST PUSH1 0x20 PUSH1 0x40 MLOAD DUP1 DUP4 SUB DUP2 DUP7 DUP1 EXTCODESIZE ISZERO DUP1 ISZERO PUSH2 0x7E3C JUMPI PUSH1 0x0 DUP1 REVERT JUMPDEST POP GAS STATICCALL ISZERO DUP1 ISZERO PUSH2 0x7E50 JUMPI RETURNDATASIZE PUSH1 0x0 DUP1 RETURNDATACOPY RETURNDATASIZE PUSH1 0x0 REVERT JUMPDEST POP POP POP POP PUSH1 0x40 MLOAD RETURNDATASIZE PUSH1 0x1F NOT PUSH1 0x1F DUP3 ADD AND DUP3 ADD DUP1 PUSH1 0x40 MSTORE POP DUP2 ADD SWAP1 PUSH2 0x7E74 SWAP2 SWAP1 PUSH2 0x8856 JUMP JUMPDEST PUSH2 0x7EF5 JUMP JUMPDEST PUSH1 0x40 MLOAD PUSH4 0x3795FB1 PUSH1 0xE1 SHL DUP2 MSTORE PUSH1 0x1 PUSH1 0x1 PUSH1 0xA0 SHL SUB DUP6 AND SWAP1 PUSH4 0x6F2BF62 SWAP1 PUSH2 0x7EA5 SWAP1 DUP6 SWAP1 PUSH1 0x4 ADD PUSH2 0x993B JUMP JUMPDEST PUSH1 0x20 PUSH1 0x40 MLOAD DUP1 DUP4 SUB DUP2 DUP7 DUP1 EXTCODESIZE ISZERO DUP1 ISZERO PUSH2 0x7EBD JUMPI PUSH1 0x0 DUP1 REVERT JUMPDEST POP GAS STATICCALL ISZERO DUP1 ISZERO PUSH2 0x7ED1 JUMPI RETURNDATASIZE PUSH1 0x0 DUP1 RETURNDATACOPY RETURNDATASIZE PUSH1 0x0 REVERT JUMPDEST POP POP POP POP PUSH1 0x40 MLOAD RETURNDATASIZE PUSH1 0x1F NOT PUSH1 0x1F DUP3 ADD AND DUP3 ADD DUP1 PUSH1 0x40 MSTORE POP DUP2 ADD SWAP1 PUSH2 0x7EF5 SWAP2 SWAP1 PUSH2 0x8856 JUMP JUMPDEST SWAP1 POP PUSH1 0x1 PUSH1 0x1 PUSH1 0xA0 SHL SUB DUP2 AND PUSH2 0x11D7 JUMPI PUSH1 0x40 MLOAD PUSH3 0x461BCD PUSH1 0xE5 SHL DUP2 MSTORE PUSH1 0x4 ADD PUSH2 0x1519 SWAP1 PUSH2 0xA153 JUMP JUMPDEST PUSH1 0x60 PUSH4 0xA9059CBB PUSH1 0xE0 SHL DUP4 DUP4 PUSH1 0x40 MLOAD PUSH1 0x24 ADD PUSH2 0x7F3A SWAP3 SWAP2 SWAP1 PUSH2 0x994F JUMP JUMPDEST PUSH1 0x40 DUP1 MLOAD PUSH1 0x1F NOT DUP2 DUP5 SUB ADD DUP2 MSTORE SWAP2 SWAP1 MSTORE PUSH1 0x20 DUP2 ADD DUP1 MLOAD PUSH1 0x1 PUSH1 0x1 PUSH1 0xE0 SHL SUB AND PUSH1 0x1 PUSH1 0x1 PUSH1 0xE0 SHL SUB NOT SWAP1 SWAP4 AND SWAP3 SWAP1 SWAP3 OR SWAP1 SWAP2 MSTORE SWAP1 POP PUSH2 0x7F78 DUP5 DUP3 PUSH2 0x8014 JUMP JUMPDEST POP POP POP POP JUMP JUMPDEST PUSH1 0x60 PUSH4 0x95EA7B3 PUSH1 0xE0 SHL DUP4 DUP4 PUSH1 0x40 MLOAD PUSH1 0x24 ADD PUSH2 0x7F3A SWAP3 SWAP2 SWAP1 PUSH2 0x994F JUMP JUMPDEST PUSH1 0x60 PUSH4 0xE946C1BB PUSH1 0xE0 SHL DUP5 DUP5 DUP5 PUSH1 0x40 MLOAD PUSH1 0x24 ADD PUSH2 0x7FBA SWAP4 SWAP3 SWAP2 SWAP1 PUSH2 0xA09C JUMP JUMPDEST PUSH1 0x40 DUP1 MLOAD PUSH1 0x1F NOT DUP2 DUP5 SUB ADD DUP2 MSTORE SWAP2 SWAP1 MSTORE PUSH1 0x20 DUP2 ADD DUP1 MLOAD PUSH1 0x1 PUSH1 0x1 PUSH1 0xE0 SHL SUB AND PUSH1 0x1 PUSH1 0x1 PUSH1 0xE0 SHL SUB NOT SWAP1 SWAP4 AND SWAP3 SWAP1 SWAP3 OR SWAP1 SWAP2 MSTORE SWAP1 POP SWAP4 SWAP3 POP POP POP JUMP JUMPDEST PUSH1 0x60 PUSH4 0x28006595 PUSH1 0xE0 SHL DUP5 DUP5 DUP5 PUSH1 0x40 MLOAD PUSH1 0x24 ADD PUSH2 0x7FBA SWAP4 SWAP3 SWAP2 SWAP1 PUSH2 0xA0BD JUMP JUMPDEST PUSH1 0x0 PUSH1 0x60 DUP4 PUSH1 0x1 PUSH1 0x1 PUSH1 0xA0 SHL SUB AND DUP4 PUSH1 0x40 MLOAD PUSH2 0x8030 SWAP2 SWAP1 PUSH2 0x991F JUMP JUMPDEST PUSH1 0x0 PUSH1 0x40 MLOAD DUP1 DUP4 SUB DUP2 PUSH1 0x0 DUP7 GAS CALL SWAP2 POP POP RETURNDATASIZE DUP1 PUSH1 0x0 DUP2 EQ PUSH2 0x806D JUMPI PUSH1 0x40 MLOAD SWAP2 POP PUSH1 0x1F NOT PUSH1 0x3F RETURNDATASIZE ADD AND DUP3 ADD PUSH1 0x40 MSTORE RETURNDATASIZE DUP3 MSTORE RETURNDATASIZE PUSH1 0x0 PUSH1 0x20 DUP5 ADD RETURNDATACOPY PUSH2 0x8072 JUMP JUMPDEST PUSH1 0x60 SWAP2 POP JUMPDEST POP SWAP2 POP SWAP2 POP DUP2 DUP1 ISZERO PUSH2 0x8088 JUMPI POP PUSH2 0x8088 DUP2 PUSH2 0x80A1 JUMP JUMPDEST ISZERO PUSH2 0x8094 JUMPI POP POP PUSH2 0x809D JUMP JUMPDEST PUSH2 0x7F78 DUP2 PUSH2 0x5BAA JUMP JUMPDEST POP POP JUMP JUMPDEST PUSH1 0x0 DUP2 MLOAD PUSH1 0x0 EQ ISZERO PUSH2 0x80B5 JUMPI POP PUSH1 0x1 PUSH2 0x11E4 JUMP JUMPDEST PUSH1 0x20 DUP3 MLOAD LT PUSH2 0x11E4 JUMPI PUSH1 0x0 PUSH2 0x80CB DUP4 PUSH1 0x0 PUSH2 0x601F JUMP JUMPDEST SWAP1 POP DUP1 PUSH1 0x1 EQ ISZERO PUSH2 0x24C2 JUMPI PUSH1 0x1 SWAP2 POP POP PUSH2 0x11E4 JUMP JUMPDEST PUSH1 0x40 DUP1 MLOAD DUP1 DUP3 ADD SWAP1 SWAP2 MSTORE PUSH1 0x60 DUP2 MSTORE PUSH1 0x0 PUSH1 0x20 DUP3 ADD MSTORE SWAP1 JUMP JUMPDEST PUSH1 0x40 DUP1 MLOAD DUP1 DUP3 ADD SWAP1 SWAP2 MSTORE PUSH1 0x0 DUP1 DUP3 MSTORE PUSH1 0x20 DUP3 ADD MSTORE SWAP1 JUMP JUMPDEST PUSH1 0x40 MLOAD DUP1 PUSH1 0x40 ADD PUSH1 0x40 MSTORE DUP1 PUSH1 0x0 DUP2 MSTORE PUSH1 0x20 ADD PUSH1 0x60 DUP2 MSTORE POP SWAP1 JUMP JUMPDEST PUSH1 0x40 DUP1 MLOAD PUSH1 0x60 DUP2 ADD SWAP1 SWAP2 MSTORE PUSH1 0x0 DUP1 DUP3 MSTORE PUSH1 0x20 DUP3 ADD SWAP1 DUP2 MSTORE PUSH1 0x0 PUSH1 0x20 SWAP1 SWAP2 ADD MSTORE SWAP1 JUMP JUMPDEST PUSH1 0x40 DUP1 MLOAD PUSH1 0x80 DUP2 ADD DUP3 MSTORE PUSH1 0x0 DUP1 DUP3 MSTORE PUSH1 0x20 DUP3 ADD DUP2 SWAP1 MSTORE PUSH1 0x60 SWAP3 DUP3 ADD DUP4 SWAP1 MSTORE SWAP2 DUP2 ADD SWAP2 SWAP1 SWAP2 MSTORE SWAP1 JUMP JUMPDEST PUSH1 0x40 DUP1 MLOAD PUSH1 0x80 DUP2 ADD DUP3 MSTORE PUSH1 0x0 DUP1 DUP3 MSTORE PUSH1 0x20 DUP3 ADD DUP2 SWAP1 MSTORE SWAP2 DUP2 ADD DUP3 SWAP1 MSTORE PUSH1 0x60 DUP2 ADD SWAP2 SWAP1 SWAP2 MSTORE SWAP1 JUMP JUMPDEST PUSH1 0x40 MLOAD DUP1 PUSH1 0x60 ADD PUSH1 0x40 MSTORE DUP1 PUSH1 0x3 SWAP1 PUSH1 0x20 DUP3 MUL DUP1 CALLDATASIZE DUP4 CALLDATACOPY POP SWAP2 SWAP3 SWAP2 POP POP JUMP JUMPDEST PUSH1 0x40 DUP1 MLOAD PUSH1 0xC0 DUP2 ADD SWAP1 SWAP2 MSTORE PUSH1 0x0 DUP1 DUP3 MSTORE PUSH1 0x20 DUP3 ADD SWAP1 DUP2 MSTORE PUSH1 0x20 ADD PUSH1 0x0 PUSH1 0x1 PUSH1 0x1 PUSH1 0xA0 SHL SUB AND DUP2 MSTORE PUSH1 0x20 ADD PUSH1 0x0 PUSH1 0x1 PUSH1 0x1 PUSH1 0xA0 SHL SUB AND DUP2 MSTORE PUSH1 0x20 ADD PUSH1 0x0 DUP2 MSTORE PUSH1 0x20 ADD PUSH1 0x60 DUP2 MSTORE POP SWAP1 JUMP JUMPDEST DUP1 CALLDATALOAD PUSH2 0x4509 DUP2 PUSH2 0xA8F9 JUMP JUMPDEST PUSH1 0x0 DUP3 PUSH1 0x1F DUP4 ADD SLT PUSH2 0x821C JUMPI DUP1 DUP2 REVERT JUMPDEST DUP2 CALLDATALOAD PUSH2 0x822F PUSH2 0x822A DUP3 PUSH2 0xA87E JUMP JUMPDEST PUSH2 0xA858 JUMP JUMPDEST DUP2 DUP2 MSTORE SWAP2 POP PUSH1 0x20 DUP1 DUP4 ADD SWAP1 DUP5 DUP2 ADD DUP2 DUP5 MUL DUP7 ADD DUP3 ADD DUP8 LT ISZERO PUSH2 0x8250 JUMPI PUSH1 0x0 DUP1 REVERT JUMPDEST PUSH1 0x0 JUMPDEST DUP5 DUP2 LT ISZERO PUSH2 0x8278 JUMPI DUP2 CALLDATALOAD PUSH2 0x8266 DUP2 PUSH2 0xA8F9 JUMP JUMPDEST DUP5 MSTORE SWAP3 DUP3 ADD SWAP3 SWAP1 DUP3 ADD SWAP1 PUSH1 0x1 ADD PUSH2 0x8253 JUMP JUMPDEST POP POP POP POP POP SWAP3 SWAP2 POP POP JUMP JUMPDEST PUSH1 0x0 DUP3 PUSH1 0x1F DUP4 ADD SLT PUSH2 0x8293 JUMPI DUP1 DUP2 REVERT JUMPDEST DUP2 MLOAD PUSH2 0x82A1 PUSH2 0x822A DUP3 PUSH2 0xA87E JUMP JUMPDEST DUP2 DUP2 MSTORE SWAP2 POP PUSH1 0x20 DUP1 DUP4 ADD SWAP1 DUP5 DUP2 ADD DUP2 DUP5 MUL DUP7 ADD DUP3 ADD DUP8 LT ISZERO PUSH2 0x82C2 JUMPI PUSH1 0x0 DUP1 REVERT JUMPDEST PUSH1 0x0 JUMPDEST DUP5 DUP2 LT ISZERO PUSH2 0x8278 JUMPI DUP2 MLOAD PUSH2 0x82D8 DUP2 PUSH2 0xA8F9 JUMP JUMPDEST DUP5 MSTORE SWAP3 DUP3 ADD SWAP3 SWAP1 DUP3 ADD SWAP1 PUSH1 0x1 ADD PUSH2 0x82C5 JUMP JUMPDEST PUSH1 0x0 DUP3 PUSH1 0x1F DUP4 ADD SLT PUSH2 0x82FA JUMPI DUP1 DUP2 REVERT JUMPDEST DUP2 CALLDATALOAD PUSH2 0x8308 PUSH2 0x822A DUP3 PUSH2 0xA87E JUMP JUMPDEST DUP2 DUP2 MSTORE SWAP2 POP PUSH1 0x20 DUP1 DUP4 ADD SWAP1 DUP5 DUP2 ADD PUSH1 0x0 JUMPDEST DUP5 DUP2 LT ISZERO PUSH2 0x8278 JUMPI PUSH2 0x8330 DUP9 DUP5 DUP5 CALLDATALOAD DUP11 ADD ADD PUSH2 0x84D9 JUMP JUMPDEST DUP5 MSTORE SWAP3 DUP3 ADD SWAP3 SWAP1 DUP3 ADD SWAP1 PUSH1 0x1 ADD PUSH2 0x8319 JUMP JUMPDEST PUSH1 0x0 DUP3 PUSH1 0x1F DUP4 ADD SLT PUSH2 0x8352 JUMPI DUP1 DUP2 REVERT JUMPDEST DUP2 CALLDATALOAD PUSH2 0x8360 PUSH2 0x822A DUP3 PUSH2 0xA87E JUMP JUMPDEST DUP2 DUP2 MSTORE SWAP2 POP PUSH1 0x20 DUP1 DUP4 ADD SWAP1 DUP5 DUP2 ADD DUP2 DUP5 MUL DUP7 ADD DUP3 ADD DUP8 LT ISZERO PUSH2 0x8381 JUMPI PUSH1 0x0 DUP1 REVERT JUMPDEST PUSH1 0x0 JUMPDEST DUP5 DUP2 LT ISZERO PUSH2 0x8278 JUMPI DUP2 CALLDATALOAD PUSH2 0x8397 DUP2 PUSH2 0xA8F9 JUMP JUMPDEST DUP5 MSTORE SWAP3 DUP3 ADD SWAP3 SWAP1 DUP3 ADD SWAP1 PUSH1 0x1 ADD PUSH2 0x8384 JUMP JUMPDEST PUSH1 0x0 DUP3 PUSH1 0x1F DUP4 ADD SLT PUSH2 0x83B9 JUMPI DUP1 DUP2 REVERT JUMPDEST DUP2 CALLDATALOAD PUSH2 0x83C7 PUSH2 0x822A DUP3 PUSH2 0xA87E JUMP JUMPDEST DUP2 DUP2 MSTORE SWAP2 POP PUSH1 0x20 DUP1 DUP4 ADD SWAP1 DUP5 DUP2 ADD PUSH1 0x80 DUP1 DUP6 MUL DUP8 ADD DUP4 ADD DUP9 LT ISZERO PUSH2 0x83EA JUMPI PUSH1 0x0 DUP1 REVERT JUMPDEST PUSH1 0x0 JUMPDEST DUP6 DUP2 LT ISZERO PUSH2 0x8411 JUMPI PUSH2 0x83FF DUP10 DUP5 PUSH2 0x87BB JUMP JUMPDEST DUP6 MSTORE SWAP4 DUP4 ADD SWAP4 SWAP2 DUP2 ADD SWAP2 PUSH1 0x1 ADD PUSH2 0x83ED JUMP JUMPDEST POP POP POP POP POP POP SWAP3 SWAP2 POP POP JUMP JUMPDEST PUSH1 0x0 DUP3 PUSH1 0x1F DUP4 ADD SLT PUSH2 0x842D JUMPI DUP1 DUP2 REVERT JUMPDEST DUP2 CALLDATALOAD PUSH2 0x843B PUSH2 0x822A DUP3 PUSH2 0xA87E JUMP JUMPDEST DUP2 DUP2 MSTORE SWAP2 POP PUSH1 0x20 DUP1 DUP4 ADD SWAP1 DUP5 DUP2 ADD DUP2 DUP5 MUL DUP7 ADD DUP3 ADD DUP8 LT ISZERO PUSH2 0x845C JUMPI PUSH1 0x0 DUP1 REVERT JUMPDEST PUSH1 0x0 JUMPDEST DUP5 DUP2 LT ISZERO PUSH2 0x8278 JUMPI DUP2 CALLDATALOAD DUP5 MSTORE SWAP3 DUP3 ADD SWAP3 SWAP1 DUP3 ADD SWAP1 PUSH1 0x1 ADD PUSH2 0x845F JUMP JUMPDEST PUSH1 0x0 DUP3 PUSH1 0x1F DUP4 ADD SLT PUSH2 0x848B JUMPI DUP1 DUP2 REVERT JUMPDEST DUP2 MLOAD PUSH2 0x8499 PUSH2 0x822A DUP3 PUSH2 0xA87E JUMP JUMPDEST DUP2 DUP2 MSTORE SWAP2 POP PUSH1 0x20 DUP1 DUP4 ADD SWAP1 DUP5 DUP2 ADD DUP2 DUP5 MUL DUP7 ADD DUP3 ADD DUP8 LT ISZERO PUSH2 0x84BA JUMPI PUSH1 0x0 DUP1 REVERT JUMPDEST PUSH1 0x0 JUMPDEST DUP5 DUP2 LT ISZERO PUSH2 0x8278 JUMPI DUP2 MLOAD DUP5 MSTORE SWAP3 DUP3 ADD SWAP3 SWAP1 DUP3 ADD SWAP1 PUSH1 0x1 ADD PUSH2 0x84BD JUMP JUMPDEST PUSH1 0x0 DUP3 PUSH1 0x1F DUP4 ADD SLT PUSH2 0x84E9 JUMPI DUP1 DUP2 REVERT JUMPDEST DUP2 CALLDATALOAD PUSH2 0x84F7 PUSH2 0x822A DUP3 PUSH2 0xA89D JUMP JUMPDEST SWAP2 POP DUP1 DUP3 MSTORE DUP4 PUSH1 0x20 DUP3 DUP6 ADD ADD GT ISZERO PUSH2 0x850E JUMPI PUSH1 0x0 DUP1 REVERT JUMPDEST DUP1 PUSH1 0x20 DUP5 ADD PUSH1 0x20 DUP5 ADD CALLDATACOPY PUSH1 0x0 SWAP1 DUP3 ADD PUSH1 0x20 ADD MSTORE SWAP3 SWAP2 POP POP JUMP JUMPDEST PUSH1 0x0 DUP3 PUSH1 0x1F DUP4 ADD SLT PUSH2 0x8537 JUMPI DUP1 DUP2 REVERT JUMPDEST DUP2 MLOAD PUSH2 0x8545 PUSH2 0x822A DUP3 PUSH2 0xA89D JUMP JUMPDEST SWAP2 POP DUP1 DUP3 MSTORE DUP4 PUSH1 0x20 DUP3 DUP6 ADD ADD GT ISZERO PUSH2 0x855C JUMPI PUSH1 0x0 DUP1 REVERT JUMPDEST PUSH2 0x20BE DUP2 PUSH1 0x20 DUP5 ADD PUSH1 0x20 DUP7 ADD PUSH2 0xA8C0 JUMP JUMPDEST DUP1 MLOAD PUSH1 0x2 DUP2 LT PUSH2 0x4509 JUMPI PUSH1 0x0 DUP1 REVERT JUMPDEST PUSH1 0x0 PUSH1 0x80 DUP3 DUP5 SUB SLT ISZERO PUSH2 0x858D JUMPI DUP1 DUP2 REVERT JUMPDEST PUSH2 0x8597 PUSH1 0x80 PUSH2 0xA858 JUMP JUMPDEST SWAP1 POP DUP2 CALLDATALOAD PUSH2 0x85A4 DUP2 PUSH2 0xA8F9 JUMP JUMPDEST DUP2 MSTORE PUSH1 0x20 DUP3 ADD CALLDATALOAD PUSH2 0x85B4 DUP2 PUSH2 0xA91C JUMP JUMPDEST PUSH1 0x20 DUP3 ADD MSTORE PUSH1 0x40 DUP3 ADD CALLDATALOAD PUSH2 0x85C7 DUP2 PUSH2 0xA932 JUMP JUMPDEST PUSH1 0x40 DUP3 ADD MSTORE PUSH1 0x60 DUP3 ADD CALLDATALOAD PUSH2 0x85DA DUP2 PUSH2 0xA932 JUMP JUMPDEST PUSH1 0x60 DUP3 ADD MSTORE SWAP3 SWAP2 POP POP JUMP JUMPDEST PUSH1 0x0 PUSH1 0x80 DUP3 DUP5 SUB SLT ISZERO PUSH2 0x85F6 JUMPI DUP1 DUP2 REVERT JUMPDEST PUSH2 0x8600 PUSH1 0x80 PUSH2 0xA858 JUMP JUMPDEST SWAP1 POP DUP2 MLOAD PUSH2 0x860D DUP2 PUSH2 0xA8F9 JUMP JUMPDEST DUP2 MSTORE PUSH1 0x20 DUP3 ADD MLOAD PUSH2 0x861D DUP2 PUSH2 0xA91C JUMP JUMPDEST PUSH1 0x20 DUP3 ADD MSTORE PUSH1 0x40 DUP3 ADD MLOAD PUSH2 0x8630 DUP2 PUSH2 0xA932 JUMP JUMPDEST PUSH1 0x40 DUP3 ADD MSTORE PUSH1 0x60 DUP3 ADD MLOAD PUSH2 0x85DA DUP2 PUSH2 0xA932 JUMP JUMPDEST PUSH1 0x0 PUSH1 0xA0 DUP3 DUP5 SUB SLT ISZERO PUSH2 0x8654 JUMPI DUP1 DUP2 REVERT JUMPDEST PUSH2 0x865E PUSH1 0xA0 PUSH2 0xA858 JUMP JUMPDEST SWAP1 POP DUP2 CALLDATALOAD DUP2 MSTORE PUSH1 0x20 DUP3 ADD CALLDATALOAD PUSH2 0x8672 DUP2 PUSH2 0xA8F9 JUMP JUMPDEST PUSH1 0x20 DUP3 ADD MSTORE PUSH1 0x40 DUP3 ADD CALLDATALOAD PUSH2 0x8685 DUP2 PUSH2 0xA8F9 JUMP JUMPDEST PUSH1 0x40 DUP3 ADD MSTORE PUSH1 0x60 DUP3 ADD CALLDATALOAD PUSH2 0x8698 DUP2 PUSH2 0xA8F9 JUMP JUMPDEST PUSH1 0x60 DUP3 ADD MSTORE PUSH1 0x80 DUP3 ADD CALLDATALOAD PUSH1 0x1 PUSH1 0x1 PUSH1 0x40 SHL SUB DUP2 GT ISZERO PUSH2 0x86B6 JUMPI PUSH1 0x0 DUP1 REVERT JUMPDEST PUSH2 0x86C2 DUP5 DUP3 DUP6 ADD PUSH2 0x84D9 JUMP JUMPDEST PUSH1 0x80 DUP4 ADD MSTORE POP SWAP3 SWAP2 POP POP JUMP JUMPDEST PUSH1 0x0 PUSH2 0x180 DUP1 DUP4 DUP6 SUB SLT ISZERO PUSH2 0x86E1 JUMPI DUP2 DUP3 REVERT JUMPDEST PUSH2 0x86EA DUP2 PUSH2 0xA858 JUMP JUMPDEST SWAP2 POP POP PUSH2 0x86F7 DUP4 DUP4 PUSH2 0x8201 JUMP JUMPDEST DUP2 MSTORE PUSH2 0x8706 DUP4 PUSH1 0x20 DUP5 ADD PUSH2 0x8201 JUMP JUMPDEST PUSH1 0x20 DUP3 ADD MSTORE PUSH2 0x8718 DUP4 PUSH1 0x40 DUP5 ADD PUSH2 0x8818 JUMP JUMPDEST PUSH1 0x40 DUP3 ADD MSTORE PUSH2 0x872A DUP4 PUSH1 0x60 DUP5 ADD PUSH2 0x8818 JUMP JUMPDEST PUSH1 0x60 DUP3 ADD MSTORE PUSH2 0x873C DUP4 PUSH1 0x80 DUP5 ADD PUSH2 0x8818 JUMP JUMPDEST PUSH1 0x80 DUP3 ADD MSTORE PUSH2 0x874E DUP4 PUSH1 0xA0 DUP5 ADD PUSH2 0x8201 JUMP JUMPDEST PUSH1 0xA0 DUP3 ADD MSTORE PUSH2 0x8760 DUP4 PUSH1 0xC0 DUP5 ADD PUSH2 0x8201 JUMP JUMPDEST PUSH1 0xC0 DUP3 ADD MSTORE PUSH2 0x8772 DUP4 PUSH1 0xE0 DUP5 ADD PUSH2 0x8201 JUMP JUMPDEST PUSH1 0xE0 DUP3 ADD MSTORE PUSH2 0x100 PUSH2 0x8786 DUP5 DUP3 DUP6 ADD PUSH2 0x8201 JUMP JUMPDEST SWAP1 DUP3 ADD MSTORE PUSH2 0x120 DUP3 DUP2 ADD CALLDATALOAD SWAP1 DUP3 ADD MSTORE PUSH2 0x140 PUSH2 0x87A4 DUP5 DUP3 DUP6 ADD PUSH2 0x8823 JUMP JUMPDEST DUP2 DUP4 ADD MSTORE POP PUSH2 0x160 DUP1 DUP4 ADD CALLDATALOAD DUP2 DUP4 ADD MSTORE POP SWAP3 SWAP2 POP POP JUMP JUMPDEST PUSH1 0x0 PUSH1 0x80 DUP3 DUP5 SUB SLT ISZERO PUSH2 0x87CC JUMPI DUP1 DUP2 REVERT JUMPDEST PUSH2 0x87D6 PUSH1 0x80 PUSH2 0xA858 JUMP JUMPDEST SWAP1 POP DUP2 CALLDATALOAD PUSH1 0x4 DUP2 LT PUSH2 0x87E7 JUMPI PUSH1 0x0 DUP1 REVERT JUMPDEST DUP2 MSTORE PUSH1 0x20 DUP3 ADD CALLDATALOAD PUSH2 0x87F7 DUP2 PUSH2 0xA956 JUMP JUMPDEST DUP1 PUSH1 0x20 DUP4 ADD MSTORE POP PUSH1 0x40 DUP3 ADD CALLDATALOAD PUSH1 0x40 DUP3 ADD MSTORE PUSH1 0x60 DUP3 ADD CALLDATALOAD PUSH1 0x60 DUP3 ADD MSTORE SWAP3 SWAP2 POP POP JUMP JUMPDEST DUP1 CALLDATALOAD PUSH2 0x4509 DUP2 PUSH2 0xA941 JUMP JUMPDEST DUP1 CALLDATALOAD PUSH1 0x1 PUSH1 0x1 PUSH1 0x40 SHL SUB DUP2 AND DUP2 EQ PUSH2 0x4509 JUMPI PUSH1 0x0 DUP1 REVERT JUMPDEST PUSH1 0x0 PUSH1 0x20 DUP3 DUP5 SUB SLT ISZERO PUSH2 0x884B JUMPI DUP1 DUP2 REVERT JUMPDEST DUP2 CALLDATALOAD PUSH2 0x2DC3 DUP2 PUSH2 0xA8F9 JUMP JUMPDEST PUSH1 0x0 PUSH1 0x20 DUP3 DUP5 SUB SLT ISZERO PUSH2 0x8867 JUMPI DUP1 DUP2 REVERT JUMPDEST DUP2 MLOAD PUSH2 0x2DC3 DUP2 PUSH2 0xA8F9 JUMP JUMPDEST PUSH1 0x0 DUP1 PUSH1 0x0 PUSH1 0x60 DUP5 DUP7 SUB SLT ISZERO PUSH2 0x8886 JUMPI DUP2 DUP3 REVERT JUMPDEST DUP4 MLOAD PUSH2 0x8891 DUP2 PUSH2 0xA8F9 JUMP JUMPDEST PUSH1 0x20 DUP6 ADD MLOAD SWAP1 SWAP4 POP PUSH1 0x1 PUSH1 0x1 PUSH1 0x40 SHL SUB DUP1 DUP3 GT ISZERO PUSH2 0x88AD JUMPI DUP4 DUP5 REVERT JUMPDEST PUSH2 0x88B9 DUP8 DUP4 DUP9 ADD PUSH2 0x8283 JUMP JUMPDEST SWAP4 POP PUSH1 0x40 DUP7 ADD MLOAD SWAP2 POP DUP1 DUP3 GT ISZERO PUSH2 0x88CE JUMPI DUP3 DUP4 REVERT JUMPDEST POP PUSH2 0x88DB DUP7 DUP3 DUP8 ADD PUSH2 0x8283 JUMP JUMPDEST SWAP2 POP POP SWAP3 POP SWAP3 POP SWAP3 JUMP JUMPDEST PUSH1 0x0 DUP1 PUSH1 0x0 DUP1 PUSH1 0x80 DUP6 DUP8 SUB SLT ISZERO PUSH2 0x88FA JUMPI DUP2 DUP3 REVERT JUMPDEST DUP5 CALLDATALOAD PUSH2 0x8905 DUP2 PUSH2 0xA8F9 JUMP JUMPDEST SWAP4 POP PUSH1 0x20 DUP6 ADD CALLDATALOAD PUSH2 0x8915 DUP2 PUSH2 0xA8F9 JUMP JUMPDEST SWAP3 POP PUSH1 0x40 DUP6 ADD CALLDATALOAD PUSH2 0x8925 DUP2 PUSH2 0xA8F9 JUMP JUMPDEST SWAP2 POP PUSH1 0x60 DUP6 ADD CALLDATALOAD PUSH1 0x1 PUSH1 0x1 PUSH1 0x40 SHL SUB DUP2 GT ISZERO PUSH2 0x893F JUMPI DUP2 DUP3 REVERT JUMPDEST PUSH2 0x894B DUP8 DUP3 DUP9 ADD PUSH2 0x841D JUMP JUMPDEST SWAP2 POP POP SWAP3 SWAP6 SWAP2 SWAP5 POP SWAP3 POP JUMP JUMPDEST PUSH1 0x0 DUP1 PUSH1 0x0 DUP1 PUSH1 0x80 DUP6 DUP8 SUB SLT ISZERO PUSH2 0x896C JUMPI DUP2 DUP3 REVERT JUMPDEST DUP5 CALLDATALOAD PUSH2 0x8977 DUP2 PUSH2 0xA8F9 JUMP JUMPDEST SWAP4 POP PUSH1 0x20 DUP6 ADD CALLDATALOAD PUSH2 0x8987 DUP2 PUSH2 0xA8F9 JUMP JUMPDEST SWAP3 POP PUSH1 0x40 DUP6 ADD CALLDATALOAD PUSH1 0x1 PUSH1 0x1 PUSH1 0x40 SHL SUB DUP2 GT ISZERO PUSH2 0x89A1 JUMPI DUP3 DUP4 REVERT JUMPDEST PUSH2 0x89AD DUP8 DUP3 DUP9 ADD PUSH2 0x84D9 JUMP JUMPDEST SWAP5 SWAP8 SWAP4 SWAP7 POP SWAP4 SWAP5 PUSH1 0x60 ADD CALLDATALOAD SWAP4 POP POP POP JUMP JUMPDEST PUSH1 0x0 DUP1 PUSH1 0x0 PUSH1 0x60 DUP5 DUP7 SUB SLT ISZERO PUSH2 0x89D2 JUMPI DUP1 DUP2 REVERT JUMPDEST DUP4 CALLDATALOAD PUSH2 0x89DD DUP2 PUSH2 0xA8F9 JUMP JUMPDEST SWAP3 POP PUSH1 0x20 DUP5 ADD CALLDATALOAD PUSH1 0x1 PUSH1 0x1 PUSH1 0x40 SHL SUB DUP1 DUP3 GT ISZERO PUSH2 0x89F8 JUMPI DUP3 DUP4 REVERT JUMPDEST PUSH2 0x8A04 DUP8 DUP4 DUP9 ADD PUSH2 0x820C JUMP JUMPDEST SWAP4 POP PUSH1 0x40 DUP7 ADD CALLDATALOAD SWAP2 POP DUP1 DUP3 GT ISZERO PUSH2 0x8A19 JUMPI DUP3 DUP4 REVERT JUMPDEST POP PUSH2 0x88DB DUP7 DUP3 DUP8 ADD PUSH2 0x841D JUMP JUMPDEST PUSH1 0x0 DUP1 PUSH1 0x0 DUP1 PUSH1 0x0 PUSH1 0xA0 DUP7 DUP9 SUB SLT ISZERO PUSH2 0x8A3D JUMPI DUP3 DUP4 REVERT JUMPDEST DUP6 CALLDATALOAD PUSH2 0x8A48 DUP2 PUSH2 0xA8F9 JUMP JUMPDEST SWAP5 POP PUSH1 0x20 DUP7 ADD CALLDATALOAD SWAP4 POP PUSH1 0x40 DUP7 ADD CALLDATALOAD PUSH2 0x8A5F DUP2 PUSH2 0xA8F9 JUMP JUMPDEST SWAP3 POP PUSH1 0x60 DUP7 ADD CALLDATALOAD PUSH2 0x8A6F DUP2 PUSH2 0xA8F9 JUMP JUMPDEST SWAP2 POP PUSH1 0x80 DUP7 ADD CALLDATALOAD PUSH1 0x1 PUSH1 0x1 PUSH1 0x40 SHL SUB DUP2 GT ISZERO PUSH2 0x8A89 JUMPI DUP2 DUP3 REVERT JUMPDEST PUSH2 0x8A95 DUP9 DUP3 DUP10 ADD PUSH2 0x841D JUMP JUMPDEST SWAP2 POP POP SWAP3 SWAP6 POP SWAP3 SWAP6 SWAP1 SWAP4 POP JUMP JUMPDEST PUSH1 0x0 PUSH1 0x20 DUP3 DUP5 SUB SLT ISZERO PUSH2 0x8AB3 JUMPI DUP1 DUP2 REVERT JUMPDEST DUP2 MLOAD PUSH1 0x1 PUSH1 0x1 PUSH1 0x40 SHL SUB DUP2 GT ISZERO PUSH2 0x8AC8 JUMPI DUP2 DUP3 REVERT JUMPDEST PUSH2 0x11D7 DUP5 DUP3 DUP6 ADD PUSH2 0x8283 JUMP JUMPDEST PUSH1 0x0 DUP1 PUSH1 0x0 PUSH1 0x60 DUP5 DUP7 SUB SLT ISZERO PUSH2 0x8AE8 JUMPI DUP1 DUP2 REVERT JUMPDEST DUP4 MLOAD PUSH1 0x1 PUSH1 0x1 PUSH1 0x40 SHL SUB DUP1 DUP3 GT ISZERO PUSH2 0x8AFE JUMPI DUP3 DUP4 REVERT JUMPDEST DUP2 DUP7 ADD SWAP2 POP DUP7 PUSH1 0x1F DUP4 ADD SLT PUSH2 0x8B11 JUMPI DUP3 DUP4 REVERT JUMPDEST DUP2 MLOAD PUSH2 0x8B1F PUSH2 0x822A DUP3 PUSH2 0xA87E JUMP JUMPDEST DUP1 DUP3 DUP3 MSTORE PUSH1 0x20 DUP1 DUP4 ADD SWAP3 POP DUP1 DUP7 ADD DUP12 DUP3 DUP4 DUP8 MUL DUP10 ADD ADD GT ISZERO PUSH2 0x8B3F JUMPI DUP8 DUP9 REVERT JUMPDEST DUP8 SWAP7 POP JUMPDEST DUP5 DUP8 LT ISZERO PUSH2 0x8B61 JUMPI DUP1 MLOAD DUP5 MSTORE PUSH1 0x1 SWAP7 SWAP1 SWAP7 ADD SWAP6 SWAP3 DUP2 ADD SWAP3 DUP2 ADD PUSH2 0x8B43 JUMP JUMPDEST POP DUP10 ADD MLOAD SWAP1 SWAP8 POP SWAP4 POP POP POP DUP1 DUP3 GT ISZERO PUSH2 0x8B78 JUMPI DUP3 DUP4 REVERT JUMPDEST POP PUSH2 0x8B85 DUP7 DUP3 DUP8 ADD PUSH2 0x847B JUMP JUMPDEST SWAP3 POP POP PUSH2 0x8B95 DUP6 PUSH1 0x40 DUP7 ADD PUSH2 0x856D JUMP JUMPDEST SWAP1 POP SWAP3 POP SWAP3 POP SWAP3 JUMP JUMPDEST PUSH1 0x0 DUP1 PUSH1 0x20 DUP4 DUP6 SUB SLT ISZERO PUSH2 0x8BB0 JUMPI DUP2 DUP3 REVERT JUMPDEST DUP3 CALLDATALOAD PUSH1 0x1 PUSH1 0x1 PUSH1 0x40 SHL SUB DUP1 DUP3 GT ISZERO PUSH2 0x8BC6 JUMPI DUP4 DUP5 REVERT JUMPDEST DUP2 DUP6 ADD SWAP2 POP DUP6 PUSH1 0x1F DUP4 ADD SLT PUSH2 0x8BD9 JUMPI DUP4 DUP5 REVERT JUMPDEST DUP2 CALLDATALOAD DUP2 DUP2 GT ISZERO PUSH2 0x8BE7 JUMPI DUP5 DUP6 REVERT JUMPDEST DUP7 PUSH1 0x20 DUP1 DUP4 MUL DUP6 ADD ADD GT ISZERO PUSH2 0x8BFA JUMPI DUP5 DUP6 REVERT JUMPDEST PUSH1 0x20 SWAP3 SWAP1 SWAP3 ADD SWAP7 SWAP2 SWAP6 POP SWAP1 SWAP4 POP POP POP POP JUMP JUMPDEST PUSH1 0x0 DUP1 PUSH1 0x0 PUSH1 0x60 DUP5 DUP7 SUB SLT ISZERO PUSH2 0x8C20 JUMPI DUP1 DUP2 REVERT JUMPDEST DUP4 CALLDATALOAD PUSH1 0x1 PUSH1 0x1 PUSH1 0x40 SHL SUB DUP1 DUP3 GT ISZERO PUSH2 0x8C36 JUMPI DUP3 DUP4 REVERT JUMPDEST PUSH2 0x8C42 DUP8 DUP4 DUP9 ADD PUSH2 0x82EA JUMP JUMPDEST SWAP5 POP PUSH1 0x20 DUP7 ADD CALLDATALOAD SWAP2 POP DUP1 DUP3 GT ISZERO PUSH2 0x8C57 JUMPI DUP3 DUP4 REVERT JUMPDEST POP PUSH2 0x8C64 DUP7 DUP3 DUP8 ADD PUSH2 0x82EA JUMP JUMPDEST SWAP3 POP POP PUSH1 0x40 DUP5 ADD CALLDATALOAD SWAP1 POP SWAP3 POP SWAP3 POP SWAP3 JUMP JUMPDEST PUSH1 0x0 PUSH1 0x20 DUP3 DUP5 SUB SLT ISZERO PUSH2 0x8C86 JUMPI DUP1 DUP2 REVERT JUMPDEST DUP2 CALLDATALOAD PUSH1 0x1 PUSH1 0x1 PUSH1 0x40 SHL SUB DUP2 GT ISZERO PUSH2 0x8C9B JUMPI DUP2 DUP3 REVERT JUMPDEST PUSH2 0x11D7 DUP5 DUP3 DUP6 ADD PUSH2 0x8342 JUMP JUMPDEST PUSH1 0x0 DUP1 PUSH1 0x40 DUP4 DUP6 SUB SLT ISZERO PUSH2 0x8CB9 JUMPI DUP2 DUP3 REVERT JUMPDEST DUP3 CALLDATALOAD PUSH1 0x1 PUSH1 0x1 PUSH1 0x40 SHL SUB DUP2 GT ISZERO PUSH2 0x8CCE JUMPI DUP3 DUP4 REVERT JUMPDEST PUSH2 0x8CDA DUP6 DUP3 DUP7 ADD PUSH2 0x8342 JUMP JUMPDEST SWAP3 POP POP PUSH1 0x20 DUP4 ADD CALLDATALOAD PUSH2 0x8CEB DUP2 PUSH2 0xA8F9 JUMP JUMPDEST DUP1 SWAP2 POP POP SWAP3 POP SWAP3 SWAP1 POP JUMP JUMPDEST PUSH1 0x0 DUP1 PUSH1 0x0 PUSH1 0x60 DUP5 DUP7 SUB SLT ISZERO PUSH2 0x8D0A JUMPI DUP1 DUP2 REVERT JUMPDEST DUP4 CALLDATALOAD PUSH1 0x1 PUSH1 0x1 PUSH1 0x40 SHL SUB DUP2 GT ISZERO PUSH2 0x8D1F JUMPI DUP2 DUP3 REVERT JUMPDEST PUSH2 0x8D2B DUP7 DUP3 DUP8 ADD PUSH2 0x8342 JUMP JUMPDEST SWAP4 POP POP PUSH1 0x20 DUP5 ADD CALLDATALOAD PUSH2 0x8D3C DUP2 PUSH2 0xA8F9 JUMP JUMPDEST SWAP2 POP PUSH1 0x40 DUP5 ADD CALLDATALOAD PUSH2 0x8D4C DUP2 PUSH2 0xA8F9 JUMP JUMPDEST DUP1 SWAP2 POP POP SWAP3 POP SWAP3 POP SWAP3 JUMP JUMPDEST PUSH1 0x0 DUP1 PUSH1 0x0 PUSH1 0x60 DUP5 DUP7 SUB SLT ISZERO PUSH2 0x8D6B JUMPI DUP1 DUP2 REVERT JUMPDEST DUP4 CALLDATALOAD PUSH1 0x1 PUSH1 0x1 PUSH1 0x40 SHL SUB DUP1 DUP3 GT ISZERO PUSH2 0x8D81 JUMPI DUP3 DUP4 REVERT JUMPDEST DUP2 DUP7 ADD SWAP2 POP DUP7 PUSH1 0x1F DUP4 ADD SLT PUSH2 0x8D94 JUMPI DUP3 DUP4 REVERT JUMPDEST DUP2 CALLDATALOAD PUSH2 0x8DA2 PUSH2 0x822A DUP3 PUSH2 0xA87E JUMP JUMPDEST DUP1 DUP3 DUP3 MSTORE PUSH1 0x20 DUP1 DUP4 ADD SWAP3 POP DUP1 DUP7 ADD PUSH2 0x180 DUP13 DUP4 DUP3 DUP9 MUL DUP11 ADD ADD GT ISZERO PUSH2 0x8DC5 JUMPI DUP9 DUP10 REVERT JUMPDEST DUP9 SWAP8 POP JUMPDEST DUP6 DUP9 LT ISZERO PUSH2 0x8DF1 JUMPI PUSH2 0x8DDB DUP14 DUP4 PUSH2 0x86CE JUMP JUMPDEST DUP6 MSTORE PUSH1 0x1 SWAP8 SWAP1 SWAP8 ADD SWAP7 SWAP4 DUP3 ADD SWAP4 SWAP1 DUP2 ADD SWAP1 PUSH2 0x8DC9 JUMP JUMPDEST POP SWAP2 SWAP9 POP DUP10 ADD CALLDATALOAD SWAP5 POP POP POP POP DUP1 DUP3 GT ISZERO PUSH2 0x8E09 JUMPI DUP3 DUP4 REVERT JUMPDEST POP PUSH2 0x8E16 DUP7 DUP3 DUP8 ADD PUSH2 0x83A9 JUMP JUMPDEST SWAP3 POP POP PUSH2 0x8B95 DUP6 PUSH1 0x40 DUP7 ADD PUSH2 0x8201 JUMP JUMPDEST PUSH1 0x0 PUSH1 0x20 DUP3 DUP5 SUB SLT ISZERO PUSH2 0x8E37 JUMPI DUP1 DUP2 REVERT JUMPDEST DUP2 MLOAD PUSH1 0x1 PUSH1 0x1 PUSH1 0x40 SHL SUB DUP2 GT ISZERO PUSH2 0x8E4C JUMPI DUP2 DUP3 REVERT JUMPDEST PUSH2 0x11D7 DUP5 DUP3 DUP6 ADD PUSH2 0x847B JUMP JUMPDEST PUSH1 0x0 DUP1 PUSH1 0x40 DUP4 DUP6 SUB SLT ISZERO PUSH2 0x8E6A JUMPI DUP2 DUP3 REVERT JUMPDEST DUP3 MLOAD PUSH1 0x1 PUSH1 0x1 PUSH1 0x40 SHL SUB DUP1 DUP3 GT ISZERO PUSH2 0x8E80 JUMPI DUP4 DUP5 REVERT JUMPDEST PUSH2 0x8E8C DUP7 DUP4 DUP8 ADD PUSH2 0x847B JUMP JUMPDEST SWAP4 POP PUSH1 0x20 DUP6 ADD MLOAD SWAP2 POP DUP1 DUP3 GT ISZERO PUSH2 0x8EA1 JUMPI DUP3 DUP4 REVERT JUMPDEST POP PUSH2 0x8EAE DUP6 DUP3 DUP7 ADD PUSH2 0x847B JUMP JUMPDEST SWAP2 POP POP SWAP3 POP SWAP3 SWAP1 POP JUMP JUMPDEST PUSH1 0x0 PUSH1 0x20 DUP3 DUP5 SUB SLT ISZERO PUSH2 0x8EC9 JUMPI DUP1 DUP2 REVERT JUMPDEST POP MLOAD SWAP2 SWAP1 POP JUMP JUMPDEST PUSH1 0x0 DUP1 PUSH1 0x0 DUP1 PUSH1 0x0 PUSH1 0xA0 DUP7 DUP9 SUB SLT ISZERO PUSH2 0x8EE7 JUMPI DUP3 DUP4 REVERT JUMPDEST DUP6 CALLDATALOAD PUSH2 0x8EF2 DUP2 PUSH2 0xA91C JUMP JUMPDEST SWAP5 POP PUSH1 0x20 DUP7 ADD CALLDATALOAD PUSH2 0x8F02 DUP2 PUSH2 0xA8F9 JUMP JUMPDEST SWAP4 POP PUSH1 0x40 DUP7 ADD CALLDATALOAD PUSH2 0x8F12 DUP2 PUSH2 0xA8F9 JUMP JUMPDEST SWAP3 POP PUSH1 0x60 DUP7 ADD CALLDATALOAD PUSH1 0x1 PUSH1 0x1 PUSH1 0x40 SHL SUB DUP1 DUP3 GT ISZERO PUSH2 0x8F2D JUMPI DUP3 DUP4 REVERT JUMPDEST PUSH2 0x8F39 DUP10 DUP4 DUP11 ADD PUSH2 0x84D9 JUMP JUMPDEST SWAP4 POP PUSH1 0x80 DUP9 ADD CALLDATALOAD SWAP2 POP DUP1 DUP3 GT ISZERO PUSH2 0x8F4E JUMPI DUP3 DUP4 REVERT JUMPDEST POP PUSH2 0x8A95 DUP9 DUP3 DUP10 ADD PUSH2 0x841D JUMP JUMPDEST PUSH1 0x0 DUP1 PUSH1 0x0 DUP1 PUSH1 0x0 PUSH1 0xA0 DUP7 DUP9 SUB SLT ISZERO PUSH2 0x8F72 JUMPI DUP3 DUP4 REVERT JUMPDEST DUP6 CALLDATALOAD PUSH2 0x8F7D DUP2 PUSH2 0xA91C JUMP JUMPDEST SWAP5 POP PUSH1 0x20 DUP7 ADD CALLDATALOAD PUSH2 0x8F8D DUP2 PUSH2 0xA8F9 JUMP JUMPDEST SWAP4 POP PUSH1 0x40 DUP7 ADD CALLDATALOAD PUSH2 0x8F9D DUP2 PUSH2 0xA8F9 JUMP JUMPDEST SWAP3 POP PUSH1 0x60 DUP7 ADD CALLDATALOAD PUSH1 0x1 PUSH1 0x1 PUSH1 0x40 SHL SUB DUP2 GT ISZERO PUSH2 0x8FB7 JUMPI DUP2 DUP3 REVERT JUMPDEST PUSH2 0x8FC3 DUP9 DUP3 DUP10 ADD PUSH2 0x84D9 JUMP JUMPDEST SWAP6 SWAP9 SWAP5 SWAP8 POP SWAP3 SWAP6 PUSH1 0x80 ADD CALLDATALOAD SWAP4 SWAP3 POP POP POP JUMP JUMPDEST PUSH1 0x0 PUSH1 0x20 DUP3 DUP5 SUB SLT ISZERO PUSH2 0x8FE6 JUMPI DUP1 DUP2 REVERT JUMPDEST DUP2 MLOAD PUSH1 0x1 PUSH1 0x1 PUSH1 0x40 SHL SUB DUP2 GT ISZERO PUSH2 0x8FFB JUMPI DUP2 DUP3 REVERT JUMPDEST PUSH2 0x11D7 DUP5 DUP3 DUP6 ADD PUSH2 0x8527 JUMP JUMPDEST PUSH1 0x0 DUP1 PUSH1 0x40 DUP4 DUP6 SUB SLT ISZERO PUSH2 0x9019 JUMPI DUP2 DUP3 REVERT JUMPDEST DUP3 MLOAD PUSH2 0x9024 DUP2 PUSH2 0xA8F9 JUMP JUMPDEST PUSH1 0x20 DUP5 ADD MLOAD SWAP1 SWAP3 POP PUSH1 0x1 PUSH1 0x1 PUSH1 0x40 SHL SUB DUP2 GT ISZERO PUSH2 0x903F JUMPI DUP2 DUP3 REVERT JUMPDEST PUSH2 0x8EAE DUP6 DUP3 DUP7 ADD PUSH2 0x8283 JUMP JUMPDEST PUSH1 0x0 DUP1 PUSH1 0x0 PUSH1 0x60 DUP5 DUP7 SUB SLT ISZERO PUSH2 0x905F JUMPI DUP1 DUP2 REVERT JUMPDEST DUP4 MLOAD PUSH2 0x906A DUP2 PUSH2 0xA8F9 JUMP JUMPDEST PUSH1 0x20 DUP6 ADD MLOAD SWAP1 SWAP4 POP PUSH2 0x907B DUP2 PUSH2 0xA8F9 JUMP JUMPDEST PUSH1 0x40 DUP6 ADD MLOAD SWAP1 SWAP3 POP PUSH2 0x8D4C DUP2 PUSH2 0xA90E JUMP JUMPDEST PUSH1 0x0 DUP1 PUSH1 0x40 DUP4 DUP6 SUB SLT ISZERO PUSH2 0x909E JUMPI DUP2 DUP3 REVERT JUMPDEST DUP3 MLOAD PUSH2 0x90A9 DUP2 PUSH2 0xA8F9 JUMP JUMPDEST PUSH1 0x20 DUP5 ADD MLOAD SWAP1 SWAP3 POP PUSH2 0x8CEB DUP2 PUSH2 0xA90E JUMP JUMPDEST PUSH1 0x0 DUP1 PUSH1 0x40 DUP4 DUP6 SUB SLT ISZERO PUSH2 0x90CC JUMPI DUP2 DUP3 REVERT JUMPDEST DUP3 MLOAD PUSH2 0x90D7 DUP2 PUSH2 0xA8F9 JUMP JUMPDEST PUSH1 0x20 DUP5 ADD MLOAD SWAP1 SWAP3 POP PUSH1 0x1 PUSH1 0x1 PUSH1 0x40 SHL SUB DUP2 GT ISZERO PUSH2 0x90F2 JUMPI DUP2 DUP3 REVERT JUMPDEST PUSH2 0x8EAE DUP6 DUP3 DUP7 ADD PUSH2 0x8527 JUMP JUMPDEST PUSH1 0x0 DUP1 PUSH1 0x0 DUP1 PUSH1 0x80 DUP6 DUP8 SUB SLT ISZERO PUSH2 0x9113 JUMPI DUP2 DUP3 REVERT JUMPDEST DUP5 CALLDATALOAD PUSH2 0x911E DUP2 PUSH2 0xA8F9 JUMP JUMPDEST SWAP4 POP PUSH1 0x20 DUP6 ADD CALLDATALOAD PUSH2 0x912E DUP2 PUSH2 0xA8F9 JUMP JUMPDEST SWAP3 POP PUSH1 0x40 DUP6 ADD CALLDATALOAD PUSH1 0x1 PUSH1 0x1 PUSH1 0x40 SHL SUB DUP1 DUP3 GT ISZERO PUSH2 0x9149 JUMPI DUP4 DUP5 REVERT JUMPDEST PUSH2 0x9155 DUP9 DUP4 DUP10 ADD PUSH2 0x8342 JUMP JUMPDEST SWAP4 POP PUSH1 0x60 DUP8 ADD CALLDATALOAD SWAP2 POP DUP1 DUP3 GT ISZERO PUSH2 0x916A JUMPI DUP3 DUP4 REVERT JUMPDEST POP PUSH2 0x894B DUP8 DUP3 DUP9 ADD PUSH2 0x841D JUMP JUMPDEST PUSH1 0x0 PUSH1 0x40 DUP3 DUP5 SUB SLT ISZERO PUSH2 0x9188 JUMPI DUP1 DUP2 REVERT JUMPDEST PUSH2 0x9192 PUSH1 0x40 PUSH2 0xA858 JUMP JUMPDEST DUP3 MLOAD PUSH2 0x919D DUP2 PUSH2 0xA8F9 JUMP JUMPDEST DUP2 MSTORE PUSH1 0x20 SWAP3 DUP4 ADD MLOAD SWAP3 DUP2 ADD SWAP3 SWAP1 SWAP3 MSTORE POP SWAP2 SWAP1 POP JUMP JUMPDEST PUSH1 0x0 DUP1 PUSH1 0x0 DUP1 DUP5 DUP7 SUB PUSH1 0xA0 DUP2 SLT ISZERO PUSH2 0x91C8 JUMPI DUP3 DUP4 REVERT JUMPDEST PUSH1 0x40 DUP2 SLT ISZERO PUSH2 0x91D5 JUMPI DUP3 DUP4 REVERT JUMPDEST POP PUSH2 0x91E0 PUSH1 0x40 PUSH2 0xA858 JUMP JUMPDEST DUP6 CALLDATALOAD PUSH2 0x91EB DUP2 PUSH2 0xA8F9 JUMP JUMPDEST DUP2 MSTORE PUSH1 0x20 DUP7 DUP2 ADD CALLDATALOAD SWAP1 DUP3 ADD MSTORE SWAP4 POP PUSH1 0x40 DUP6 ADD CALLDATALOAD PUSH2 0x9207 DUP2 PUSH2 0xA8F9 JUMP JUMPDEST SWAP3 POP PUSH1 0x60 DUP6 ADD CALLDATALOAD PUSH2 0x9217 DUP2 PUSH2 0xA8F9 JUMP JUMPDEST SWAP2 POP PUSH1 0x80 DUP6 ADD CALLDATALOAD PUSH1 0x1 PUSH1 0x1 PUSH1 0x40 SHL SUB DUP2 GT ISZERO PUSH2 0x893F JUMPI DUP2 DUP3 REVERT JUMPDEST PUSH1 0x0 DUP1 PUSH1 0x0 DUP1 PUSH1 0x80 DUP6 DUP8 SUB SLT ISZERO PUSH2 0x9246 JUMPI DUP2 DUP3 REVERT JUMPDEST DUP5 CALLDATALOAD PUSH1 0x1 PUSH1 0x1 PUSH1 0x40 SHL SUB DUP1 DUP3 GT ISZERO PUSH2 0x925C JUMPI DUP4 DUP5 REVERT JUMPDEST SWAP1 DUP7 ADD SWAP1 PUSH1 0x40 DUP3 DUP10 SUB SLT ISZERO PUSH2 0x926F JUMPI DUP4 DUP5 REVERT JUMPDEST PUSH2 0x9279 PUSH1 0x40 PUSH2 0xA858 JUMP JUMPDEST DUP3 CALLDATALOAD PUSH2 0x9284 DUP2 PUSH2 0xA8F9 JUMP JUMPDEST DUP2 MSTORE PUSH1 0x20 DUP4 DUP2 ADD CALLDATALOAD DUP4 DUP2 GT ISZERO PUSH2 0x9298 JUMPI DUP7 DUP8 REVERT JUMPDEST DUP1 DUP6 ADD SWAP5 POP POP DUP10 PUSH1 0x1F DUP6 ADD SLT PUSH2 0x92AC JUMPI DUP6 DUP7 REVERT JUMPDEST DUP4 CALLDATALOAD PUSH2 0x92BA PUSH2 0x822A DUP3 PUSH2 0xA87E JUMP JUMPDEST DUP2 DUP2 MSTORE DUP3 DUP2 ADD SWAP1 DUP7 DUP5 ADD DUP10 JUMPDEST DUP5 DUP2 LT ISZERO PUSH2 0x92EF JUMPI PUSH2 0x92DD DUP16 DUP8 DUP5 CALLDATALOAD DUP13 ADD ADD PUSH2 0x820C JUMP JUMPDEST DUP5 MSTORE SWAP3 DUP6 ADD SWAP3 SWAP1 DUP6 ADD SWAP1 PUSH1 0x1 ADD PUSH2 0x92C6 JUMP JUMPDEST POP POP DUP1 DUP5 DUP7 ADD MSTORE POP POP POP DUP2 SWAP8 POP PUSH2 0x9308 DUP11 DUP3 DUP12 ADD PUSH2 0x8201 JUMP JUMPDEST SWAP7 POP POP POP PUSH2 0x9155 DUP9 PUSH1 0x40 DUP10 ADD PUSH2 0x8201 JUMP JUMPDEST PUSH1 0x0 PUSH1 0x80 DUP3 DUP5 SUB SLT ISZERO PUSH2 0x932A JUMPI DUP1 DUP2 REVERT JUMPDEST PUSH2 0x2DC3 DUP4 DUP4 PUSH2 0x85E5 JUMP JUMPDEST PUSH1 0x0 DUP1 PUSH1 0x0 DUP1 PUSH1 0xE0 DUP6 DUP8 SUB SLT ISZERO PUSH2 0x9349 JUMPI DUP2 DUP3 REVERT JUMPDEST PUSH2 0x9353 DUP7 DUP7 PUSH2 0x857C JUMP JUMPDEST SWAP4 POP PUSH1 0x80 DUP6 ADD CALLDATALOAD PUSH2 0x9363 DUP2 PUSH2 0xA8F9 JUMP JUMPDEST SWAP3 POP PUSH1 0xA0 DUP6 ADD CALLDATALOAD PUSH2 0x9373 DUP2 PUSH2 0xA8F9 JUMP JUMPDEST SWAP2 POP PUSH1 0xC0 DUP6 ADD CALLDATALOAD PUSH1 0x1 PUSH1 0x1 PUSH1 0x40 SHL SUB DUP2 GT ISZERO PUSH2 0x893F JUMPI DUP2 DUP3 REVERT JUMPDEST PUSH1 0x0 DUP1 PUSH1 0x0 DUP1 DUP5 DUP7 SUB PUSH1 0xA0 DUP2 SLT ISZERO PUSH2 0x93A3 JUMPI DUP3 DUP4 REVERT JUMPDEST PUSH1 0x40 DUP2 SLT ISZERO PUSH2 0x93B0 JUMPI DUP3 DUP4 REVERT JUMPDEST POP PUSH2 0x93BB PUSH1 0x40 PUSH2 0xA858 JUMP JUMPDEST DUP6 CALLDATALOAD PUSH2 0x93C6 DUP2 PUSH2 0xA8F9 JUMP JUMPDEST DUP2 MSTORE PUSH1 0x20 DUP7 ADD CALLDATALOAD PUSH2 0x93D6 DUP2 PUSH2 0xA8F9 JUMP JUMPDEST PUSH1 0x20 DUP3 ADD MSTORE SWAP4 POP PUSH1 0x40 DUP6 ADD CALLDATALOAD PUSH2 0x9207 DUP2 PUSH2 0xA8F9 JUMP JUMPDEST PUSH1 0x0 DUP1 PUSH1 0x0 DUP1 PUSH1 0x80 DUP6 DUP8 SUB SLT ISZERO PUSH2 0x9400 JUMPI DUP2 DUP3 REVERT JUMPDEST DUP5 CALLDATALOAD PUSH1 0x1 PUSH1 0x1 PUSH1 0x40 SHL SUB DUP1 DUP3 GT ISZERO PUSH2 0x9416 JUMPI DUP4 DUP5 REVERT JUMPDEST PUSH2 0x9422 DUP9 DUP4 DUP10 ADD PUSH2 0x8643 JUMP JUMPDEST SWAP6 POP PUSH1 0x20 DUP8 ADD CALLDATALOAD SWAP2 POP PUSH2 0x9434 DUP3 PUSH2 0xA8F9 JUMP JUMPDEST SWAP1 SWAP4 POP PUSH1 0x40 DUP7 ADD CALLDATALOAD SWAP1 PUSH2 0x9446 DUP3 PUSH2 0xA8F9 JUMP JUMPDEST SWAP1 SWAP3 POP PUSH1 0x60 DUP7 ADD CALLDATALOAD SWAP1 DUP1 DUP3 GT ISZERO PUSH2 0x916A JUMPI DUP3 DUP4 REVERT JUMPDEST PUSH1 0x0 DUP1 PUSH1 0x0 DUP1 PUSH1 0x80 DUP6 DUP8 SUB SLT ISZERO PUSH2 0x9470 JUMPI DUP2 DUP3 REVERT JUMPDEST DUP5 CALLDATALOAD PUSH1 0x1 PUSH1 0x1 PUSH1 0x40 SHL SUB DUP2 GT ISZERO PUSH2 0x9485 JUMPI DUP3 DUP4 REVERT JUMPDEST PUSH2 0x9491 DUP8 DUP3 DUP9 ADD PUSH2 0x8643 JUMP JUMPDEST SWAP5 POP POP PUSH1 0x20 DUP6 ADD CALLDATALOAD SWAP3 POP PUSH1 0x40 DUP6 ADD CALLDATALOAD PUSH2 0x94A9 DUP2 PUSH2 0xA8F9 JUMP JUMPDEST SWAP2 POP PUSH1 0x60 DUP6 ADD CALLDATALOAD PUSH2 0x94B9 DUP2 PUSH2 0xA8F9 JUMP JUMPDEST SWAP4 SWAP7 SWAP3 SWAP6 POP SWAP1 SWAP4 POP POP JUMP JUMPDEST PUSH1 0x0 DUP1 PUSH1 0x0 PUSH2 0x220 DUP5 DUP7 SUB SLT ISZERO PUSH2 0x94D9 JUMPI DUP1 DUP2 REVERT JUMPDEST PUSH2 0x94E3 DUP6 DUP6 PUSH2 0x86CE JUMP JUMPDEST SWAP3 POP PUSH2 0x94F3 DUP6 PUSH2 0x180 DUP7 ADD PUSH2 0x87BB JUMP JUMPDEST SWAP2 POP PUSH2 0x200 DUP5 ADD CALLDATALOAD PUSH2 0x8D4C DUP2 PUSH2 0xA8F9 JUMP JUMPDEST PUSH1 0x0 PUSH1 0x40 DUP3 DUP5 SUB SLT ISZERO PUSH2 0x9515 JUMPI DUP1 DUP2 REVERT JUMPDEST PUSH2 0x951F PUSH1 0x40 PUSH2 0xA858 JUMP JUMPDEST DUP3 MLOAD PUSH2 0x952A DUP2 PUSH2 0xA8F9 JUMP JUMPDEST DUP2 MSTORE PUSH1 0x20 DUP4 ADD MLOAD PUSH2 0x953A DUP2 PUSH2 0xA8F9 JUMP JUMPDEST PUSH1 0x20 DUP3 ADD MSTORE SWAP4 SWAP3 POP POP POP JUMP JUMPDEST PUSH1 0x0 DUP1 PUSH1 0x0 DUP1 DUP5 DUP7 SUB PUSH1 0xC0 DUP2 SLT ISZERO PUSH2 0x955C JUMPI DUP3 DUP4 REVERT JUMPDEST PUSH1 0x60 DUP2 SLT ISZERO PUSH2 0x9569 JUMPI DUP3 DUP4 REVERT JUMPDEST POP PUSH2 0x9574 PUSH1 0x60 PUSH2 0xA858 JUMP JUMPDEST DUP6 CALLDATALOAD PUSH2 0x957F DUP2 PUSH2 0xA8F9 JUMP JUMPDEST DUP2 MSTORE PUSH1 0x20 DUP7 DUP2 ADD CALLDATALOAD SWAP1 DUP3 ADD MSTORE PUSH1 0x40 DUP7 ADD CALLDATALOAD PUSH2 0x9599 DUP2 PUSH2 0xA8F9 JUMP JUMPDEST PUSH1 0x40 DUP3 ADD MSTORE SWAP4 POP PUSH1 0x60 DUP6 ADD CALLDATALOAD PUSH2 0x95AE DUP2 PUSH2 0xA8F9 JUMP JUMPDEST SWAP3 POP PUSH1 0x80 DUP6 ADD CALLDATALOAD PUSH2 0x95BE DUP2 PUSH2 0xA8F9 JUMP JUMPDEST SWAP2 POP PUSH1 0xA0 DUP6 ADD CALLDATALOAD PUSH1 0x1 PUSH1 0x1 PUSH1 0x40 SHL SUB DUP2 GT ISZERO PUSH2 0x893F JUMPI DUP2 DUP3 REVERT JUMPDEST PUSH1 0x0 DUP1 PUSH1 0x0 DUP4 DUP6 SUB PUSH1 0xA0 DUP2 SLT ISZERO PUSH2 0x95ED JUMPI DUP2 DUP3 REVERT JUMPDEST PUSH1 0x60 DUP2 SLT ISZERO PUSH2 0x95FA JUMPI DUP2 DUP3 REVERT JUMPDEST POP PUSH2 0x9605 PUSH1 0x60 PUSH2 0xA858 JUMP JUMPDEST DUP5 MLOAD DUP2 MSTORE PUSH1 0x20 DUP6 ADD MLOAD PUSH1 0x5 DUP2 LT PUSH2 0x961A JUMPI DUP3 DUP4 REVERT JUMPDEST PUSH1 0x20 DUP3 ADD MSTORE PUSH1 0x40 DUP6 ADD MLOAD PUSH2 0x962D DUP2 PUSH2 0xA941 JUMP JUMPDEST PUSH1 0x40 DUP3 ADD MSTORE PUSH1 0x60 DUP6 ADD MLOAD SWAP1 SWAP4 POP PUSH2 0x9643 DUP2 PUSH2 0xA941 JUMP JUMPDEST PUSH1 0x80 DUP6 ADD MLOAD SWAP1 SWAP3 POP PUSH2 0x8D4C DUP2 PUSH2 0xA90E JUMP JUMPDEST PUSH1 0x0 PUSH1 0x20 DUP3 DUP5 SUB SLT ISZERO PUSH2 0x9665 JUMPI DUP1 DUP2 REVERT JUMPDEST DUP2 MLOAD PUSH3 0xFFFFFF DUP2 AND DUP2 EQ PUSH2 0x2DC3 JUMPI DUP2 DUP3 REVERT JUMPDEST PUSH1 0x0 DUP1 PUSH1 0x40 DUP4 DUP6 SUB SLT ISZERO PUSH2 0x9689 JUMPI DUP2 DUP3 REVERT JUMPDEST POP POP DUP1 MLOAD PUSH1 0x20 SWAP1 SWAP2 ADD MLOAD SWAP1 SWAP3 SWAP1 SWAP2 POP JUMP JUMPDEST PUSH1 0x0 PUSH1 0x20 DUP3 DUP5 SUB SLT ISZERO PUSH2 0x96AB JUMPI DUP1 DUP2 REVERT JUMPDEST DUP2 MLOAD PUSH2 0x2DC3 DUP2 PUSH2 0xA956 JUMP JUMPDEST PUSH1 0x1 PUSH1 0x1 PUSH1 0xA0 SHL SUB AND SWAP1 MSTORE JUMP JUMPDEST PUSH1 0x0 DUP2 MLOAD DUP1 DUP5 MSTORE PUSH1 0x20 DUP1 DUP6 ADD SWAP5 POP DUP1 DUP5 ADD DUP4 JUMPDEST DUP4 DUP2 LT ISZERO PUSH2 0x96FB JUMPI DUP2 MLOAD PUSH1 0x1 PUSH1 0x1 PUSH1 0xA0 SHL SUB AND DUP8 MSTORE SWAP6 DUP3 ADD SWAP6 SWAP1 DUP3 ADD SWAP1 PUSH1 0x1 ADD PUSH2 0x96D6 JUMP JUMPDEST POP SWAP5 SWAP6 SWAP5 POP POP POP POP POP JUMP JUMPDEST PUSH1 0x0 DUP2 MLOAD DUP1 DUP5 MSTORE PUSH1 0x20 DUP1 DUP6 ADD SWAP5 POP DUP1 DUP5 ADD DUP4 JUMPDEST DUP4 DUP2 LT ISZERO PUSH2 0x96FB JUMPI DUP2 MLOAD DUP8 MSTORE SWAP6 DUP3 ADD SWAP6 SWAP1 DUP3 ADD SWAP1 PUSH1 0x1 ADD PUSH2 0x9719 JUMP JUMPDEST PUSH1 0x0 DUP2 MLOAD DUP1 DUP5 MSTORE PUSH2 0x974D DUP2 PUSH1 0x20 DUP7 ADD PUSH1 0x20 DUP7 ADD PUSH2 0xA8C0 JUMP JUMPDEST PUSH1 0x1F ADD PUSH1 0x1F NOT AND SWAP3 SWAP1 SWAP3 ADD PUSH1 0x20 ADD SWAP3 SWAP2 POP POP JUMP JUMPDEST DUP1 MLOAD PUSH1 0x1 PUSH1 0x1 PUSH1 0xA0 SHL SUB AND DUP3 MSTORE PUSH1 0x20 DUP1 DUP3 ADD MLOAD PUSH1 0x1 PUSH1 0x1 PUSH1 0xE0 SHL SUB NOT AND SWAP1 DUP4 ADD MSTORE PUSH1 0x40 DUP1 DUP3 ADD MLOAD PUSH1 0xF SWAP1 DUP2 SIGNEXTEND SWAP2 DUP5 ADD SWAP2 SWAP1 SWAP2 MSTORE PUSH1 0x60 SWAP2 DUP3 ADD MLOAD SWAP1 SIGNEXTEND SWAP2 ADD MSTORE JUMP JUMPDEST DUP1 MLOAD PUSH1 0x1 PUSH1 0x1 PUSH1 0xA0 SHL SUB SWAP1 DUP2 AND DUP4 MSTORE PUSH1 0x20 DUP1 DUP4 ADD MLOAD ISZERO ISZERO SWAP1 DUP5 ADD MSTORE PUSH1 0x40 DUP1 DUP4 ADD MLOAD SWAP1 SWAP2 AND SWAP1 DUP4 ADD MSTORE PUSH1 0x60 SWAP1 DUP2 ADD MLOAD ISZERO ISZERO SWAP2 ADD MSTORE JUMP JUMPDEST PUSH1 0x0 DUP2 MLOAD DUP4 MSTORE PUSH1 0x20 DUP3 ADD MLOAD PUSH1 0x40 PUSH1 0x20 DUP6 ADD MSTORE PUSH2 0x11D7 PUSH1 0x40 DUP6 ADD DUP3 PUSH2 0x9735 JUMP JUMPDEST PUSH2 0x9800 DUP3 DUP3 MLOAD PUSH2 0x96B6 JUMP JUMPDEST PUSH1 0x20 DUP2 ADD MLOAD PUSH2 0x9812 PUSH1 0x20 DUP5 ADD DUP3 PUSH2 0x96B6 JUMP JUMPDEST POP PUSH1 0x40 DUP2 ADD MLOAD PUSH2 0x9825 PUSH1 0x40 DUP5 ADD DUP3 PUSH2 0x98F5 JUMP JUMPDEST POP PUSH1 0x60 DUP2 ADD MLOAD PUSH2 0x9838 PUSH1 0x60 DUP5 ADD DUP3 PUSH2 0x98F5 JUMP JUMPDEST POP PUSH1 0x80 DUP2 ADD MLOAD PUSH2 0x984B PUSH1 0x80 DUP5 ADD DUP3 PUSH2 0x98F5 JUMP JUMPDEST POP PUSH1 0xA0 DUP2 ADD MLOAD PUSH2 0x985E PUSH1 0xA0 DUP5 ADD DUP3 PUSH2 0x96B6 JUMP JUMPDEST POP PUSH1 0xC0 DUP2 ADD MLOAD PUSH2 0x9871 PUSH1 0xC0 DUP5 ADD DUP3 PUSH2 0x96B6 JUMP JUMPDEST POP PUSH1 0xE0 DUP2 ADD MLOAD PUSH2 0x9884 PUSH1 0xE0 DUP5 ADD DUP3 PUSH2 0x96B6 JUMP JUMPDEST POP PUSH2 0x100 DUP1 DUP3 ADD MLOAD PUSH2 0x9898 DUP3 DUP6 ADD DUP3 PUSH2 0x96B6 JUMP JUMPDEST POP POP PUSH2 0x120 DUP2 DUP2 ADD MLOAD SWAP1 DUP4 ADD MSTORE PUSH2 0x140 DUP1 DUP3 ADD MLOAD PUSH2 0x98B8 DUP3 DUP6 ADD DUP3 PUSH2 0x9902 JUMP JUMPDEST POP POP PUSH2 0x160 SWAP1 DUP2 ADD MLOAD SWAP2 ADD MSTORE JUMP JUMPDEST DUP1 MLOAD PUSH2 0x98D1 DUP2 PUSH2 0xA8EC JUMP JUMPDEST DUP3 MSTORE PUSH1 0x20 DUP2 DUP2 ADD MLOAD PUSH1 0xFF AND SWAP1 DUP4 ADD MSTORE PUSH1 0x40 DUP1 DUP3 ADD MLOAD SWAP1 DUP4 ADD MSTORE PUSH1 0x60 SWAP1 DUP2 ADD MLOAD SWAP2 ADD MSTORE JUMP JUMPDEST PUSH1 0x1 PUSH1 0x1 PUSH1 0x80 SHL SUB AND SWAP1 MSTORE JUMP JUMPDEST PUSH1 0x1 PUSH1 0x1 PUSH1 0x40 SHL SUB AND SWAP1 MSTORE JUMP JUMPDEST PUSH1 0x0 DUP3 DUP5 DUP4 CALLDATACOPY SWAP2 ADD SWAP1 DUP2 MSTORE SWAP2 SWAP1 POP JUMP JUMPDEST PUSH1 0x0 DUP3 MLOAD PUSH2 0x9931 DUP2 DUP5 PUSH1 0x20 DUP8 ADD PUSH2 0xA8C0 JUMP JUMPDEST SWAP2 SWAP1 SWAP2 ADD SWAP3 SWAP2 POP POP JUMP JUMPDEST PUSH1 0x1 PUSH1 0x1 PUSH1 0xA0 SHL SUB SWAP2 SWAP1 SWAP2 AND DUP2 MSTORE PUSH1 0x20 ADD SWAP1 JUMP JUMPDEST PUSH1 0x1 PUSH1 0x1 PUSH1 0xA0 SHL SUB SWAP3 SWAP1 SWAP3 AND DUP3 MSTORE PUSH1 0x20 DUP3 ADD MSTORE PUSH1 0x40 ADD SWAP1 JUMP JUMPDEST PUSH1 0x1 PUSH1 0x1 PUSH1 0xA0 SHL SUB SWAP3 DUP4 AND DUP2 MSTORE SWAP2 AND PUSH1 0x20 DUP3 ADD MSTORE PUSH1 0x40 ADD SWAP1 JUMP JUMPDEST PUSH1 0x1 PUSH1 0x1 PUSH1 0xA0 SHL SUB DUP6 DUP2 AND DUP3 MSTORE DUP5 DUP2 AND PUSH1 0x20 DUP4 ADD MSTORE DUP4 AND PUSH1 0x40 DUP3 ADD MSTORE PUSH1 0x80 PUSH1 0x60 DUP3 ADD DUP2 SWAP1 MSTORE PUSH1 0x0 SWAP1 PUSH2 0x513F SWAP1 DUP4 ADD DUP5 PUSH2 0x9706 JUMP JUMPDEST PUSH1 0x1 PUSH1 0x1 PUSH1 0xA0 SHL SUB SWAP4 DUP5 AND DUP2 MSTORE SWAP2 SWAP1 SWAP3 AND PUSH1 0x20 DUP3 ADD MSTORE SWAP1 ISZERO ISZERO PUSH1 0x40 DUP3 ADD MSTORE PUSH1 0x60 ADD SWAP1 JUMP JUMPDEST PUSH1 0x1 PUSH1 0x1 PUSH1 0xA0 SHL SUB DUP6 DUP2 AND DUP3 MSTORE DUP5 AND PUSH1 0x20 DUP3 ADD MSTORE DUP3 ISZERO ISZERO PUSH1 0x40 DUP3 ADD MSTORE PUSH1 0x80 PUSH1 0x60 DUP3 ADD DUP2 SWAP1 MSTORE PUSH1 0x0 SWAP1 PUSH2 0x513F SWAP1 DUP4 ADD DUP5 PUSH2 0x9735 JUMP JUMPDEST PUSH1 0x1 PUSH1 0x1 PUSH1 0xA0 SHL SUB DUP6 DUP2 AND DUP3 MSTORE DUP5 AND PUSH1 0x20 DUP3 ADD MSTORE PUSH1 0x80 PUSH1 0x40 DUP3 ADD DUP2 SWAP1 MSTORE PUSH1 0x0 SWAP1 PUSH2 0x9A3A SWAP1 DUP4 ADD DUP6 PUSH2 0x9735 JUMP JUMPDEST SWAP1 POP DUP3 PUSH1 0x60 DUP4 ADD MSTORE SWAP6 SWAP5 POP POP POP POP POP JUMP JUMPDEST PUSH1 0x1 PUSH1 0x1 PUSH1 0xA0 SHL SUB SWAP4 DUP5 AND DUP2 MSTORE SWAP2 SWAP1 SWAP3 AND PUSH1 0x20 DUP3 ADD MSTORE PUSH1 0x40 DUP2 ADD SWAP2 SWAP1 SWAP2 MSTORE PUSH1 0x60 ADD SWAP1 JUMP JUMPDEST PUSH1 0x1 PUSH1 0x1 PUSH1 0xA0 SHL SUB DUP4 AND DUP2 MSTORE PUSH1 0x40 PUSH1 0x20 DUP3 ADD DUP2 SWAP1 MSTORE PUSH1 0x0 SWAP1 PUSH2 0x11D7 SWAP1 DUP4 ADD DUP5 PUSH2 0x96C3 JUMP JUMPDEST PUSH1 0x1 PUSH1 0x1 PUSH1 0xA0 SHL SUB DUP5 AND DUP2 MSTORE PUSH1 0x60 PUSH1 0x20 DUP3 ADD DUP2 SWAP1 MSTORE PUSH1 0x0 SWAP1 PUSH2 0x9AB7 SWAP1 DUP4 ADD DUP6 PUSH2 0x96C3 JUMP JUMPDEST DUP3 DUP2 SUB PUSH1 0x40 DUP5 ADD MSTORE PUSH2 0x513F DUP2 DUP6 PUSH2 0x96C3 JUMP JUMPDEST PUSH1 0x1 PUSH1 0x1 PUSH1 0xA0 SHL SUB DUP6 AND DUP2 MSTORE PUSH1 0x80 PUSH1 0x20 DUP3 ADD DUP2 SWAP1 MSTORE PUSH1 0x0 SWAP1 PUSH2 0x9AED SWAP1 DUP4 ADD DUP7 PUSH2 0x96C3 JUMP JUMPDEST DUP3 DUP2 SUB PUSH1 0x40 DUP5 ADD MSTORE PUSH2 0x9AFF DUP2 DUP7 PUSH2 0x9706 JUMP JUMPDEST SWAP1 POP DUP3 DUP2 SUB PUSH1 0x60 DUP5 ADD MSTORE PUSH2 0x76AB DUP2 DUP6 PUSH2 0x9706 JUMP JUMPDEST PUSH1 0x1 PUSH1 0x1 PUSH1 0xA0 SHL SUB DUP5 AND DUP2 MSTORE PUSH1 0x60 PUSH1 0x20 DUP3 ADD DUP2 SWAP1 MSTORE PUSH1 0x0 SWAP1 PUSH2 0x9B37 SWAP1 DUP4 ADD DUP6 PUSH2 0x9706 JUMP JUMPDEST DUP3 DUP2 SUB PUSH1 0x40 DUP5 ADD MSTORE PUSH2 0x513F DUP2 DUP6 PUSH2 0x9706 JUMP JUMPDEST PUSH1 0x1 PUSH1 0x1 PUSH1 0xA0 SHL SUB SWAP3 SWAP1 SWAP3 AND DUP3 MSTORE ISZERO ISZERO PUSH1 0x20 DUP3 ADD MSTORE PUSH1 0x40 ADD SWAP1 JUMP JUMPDEST PUSH1 0x1 PUSH1 0x1 PUSH1 0xA0 SHL SUB DUP4 AND DUP2 MSTORE PUSH1 0x40 PUSH1 0x20 DUP3 ADD DUP2 SWAP1 MSTORE PUSH1 0x0 SWAP1 PUSH2 0x11D7 SWAP1 DUP4 ADD DUP5 PUSH2 0x9735 JUMP JUMPDEST PUSH1 0x1 PUSH1 0x1 PUSH1 0xA0 SHL SUB DUP6 AND DUP2 MSTORE PUSH1 0x0 PUSH2 0x9B9F DUP6 PUSH2 0xA8EC JUMP JUMPDEST DUP5 PUSH1 0x20 DUP4 ADD MSTORE PUSH1 0x80 PUSH1 0x40 DUP4 ADD MSTORE PUSH2 0x9BB9 PUSH1 0x80 DUP4 ADD DUP6 PUSH2 0x9706 JUMP JUMPDEST DUP3 DUP2 SUB PUSH1 0x60 DUP5 ADD MSTORE PUSH2 0x76AB DUP2 DUP6 PUSH2 0x9706 JUMP JUMPDEST PUSH1 0x1 PUSH1 0x1 PUSH1 0xA0 SHL SUB DUP10 DUP2 AND DUP3 MSTORE PUSH1 0x0 SWAP1 PUSH2 0x100 SWAP1 PUSH2 0x9BE8 DUP12 PUSH2 0xA8EC JUMP JUMPDEST DUP11 PUSH1 0x20 DUP6 ADD MSTORE DUP2 PUSH1 0x40 DUP6 ADD MSTORE PUSH2 0x9C00 DUP3 DUP6 ADD DUP12 PUSH2 0x9706 JUMP JUMPDEST SWAP2 POP DUP4 DUP3 SUB PUSH1 0x60 DUP6 ADD MSTORE PUSH2 0x9C14 DUP3 DUP11 PUSH2 0x9706 JUMP JUMPDEST SWAP1 DUP9 AND PUSH1 0x80 DUP6 ADD MSTORE SWAP1 POP PUSH2 0x9C27 DUP7 PUSH2 0xA8EC JUMP JUMPDEST DUP6 PUSH1 0xA0 DUP5 ADD MSTORE DUP3 DUP2 SUB PUSH1 0xC0 DUP5 ADD MSTORE PUSH2 0x9C3F DUP2 DUP7 PUSH2 0x9706 JUMP JUMPDEST SWAP1 POP DUP3 DUP2 SUB PUSH1 0xE0 DUP5 ADD MSTORE PUSH2 0x6000 DUP2 DUP6 PUSH2 0x9706 JUMP JUMPDEST PUSH1 0x0 PUSH1 0x60 DUP3 MSTORE PUSH2 0x9C66 PUSH1 0x60 DUP4 ADD DUP7 PUSH2 0x96C3 JUMP JUMPDEST DUP3 DUP2 SUB PUSH1 0x20 DUP5 ADD MSTORE PUSH2 0x9C78 DUP2 DUP7 PUSH2 0x9706 JUMP JUMPDEST SWAP1 POP DUP3 DUP2 SUB PUSH1 0x40 DUP5 ADD MSTORE PUSH2 0x513F DUP2 DUP6 PUSH2 0x9706 JUMP JUMPDEST PUSH1 0x0 PUSH1 0x40 DUP3 MSTORE PUSH2 0x9C9F PUSH1 0x40 DUP4 ADD DUP6 PUSH2 0x96C3 JUMP JUMPDEST SWAP1 POP DUP3 PUSH1 0x20 DUP4 ADD MSTORE SWAP4 SWAP3 POP POP POP JUMP JUMPDEST PUSH1 0x0 PUSH1 0x60 DUP3 ADD PUSH1 0x60 DUP4 MSTORE DUP1 DUP7 MLOAD DUP1 DUP4 MSTORE PUSH1 0x80 DUP6 ADD SWAP2 POP PUSH1 0x20 SWAP3 POP PUSH1 0x80 DUP4 DUP3 MUL DUP7 ADD ADD DUP4 DUP10 ADD DUP6 JUMPDEST DUP4 DUP2 LT ISZERO PUSH2 0x9D03 JUMPI PUSH1 0x7F NOT DUP9 DUP5 SUB ADD DUP6 MSTORE PUSH2 0x9CF1 DUP4 DUP4 MLOAD PUSH2 0x9735 JUMP JUMPDEST SWAP5 DUP7 ADD SWAP5 SWAP3 POP SWAP1 DUP6 ADD SWAP1 PUSH1 0x1 ADD PUSH2 0x9CD5 JUMP JUMPDEST POP POP DUP6 DUP2 SUB DUP5 DUP8 ADD MSTORE PUSH2 0x9D16 DUP2 DUP10 PUSH2 0x9706 JUMP JUMPDEST SWAP4 POP POP POP POP DUP3 DUP2 SUB PUSH1 0x40 DUP5 ADD MSTORE PUSH2 0x513F DUP2 DUP6 PUSH2 0x9706 JUMP JUMPDEST PUSH1 0x0 PUSH1 0xC0 DUP3 MSTORE PUSH2 0x9D40 PUSH1 0xC0 DUP4 ADD DUP10 PUSH2 0x96C3 JUMP JUMPDEST PUSH1 0x20 DUP4 ADD SWAP8 SWAP1 SWAP8 MSTORE POP PUSH1 0x40 DUP2 ADD SWAP5 SWAP1 SWAP5 MSTORE PUSH1 0x1 PUSH1 0x1 PUSH1 0xA0 SHL SUB SWAP3 DUP4 AND PUSH1 0x60 DUP6 ADD MSTORE SWAP2 AND PUSH1 0x80 DUP4 ADD MSTORE PUSH1 0xA0 SWAP1 SWAP2 ADD MSTORE SWAP2 SWAP1 POP JUMP JUMPDEST PUSH1 0x20 DUP1 DUP3 MSTORE DUP3 MLOAD DUP3 DUP3 ADD DUP2 SWAP1 MSTORE PUSH1 0x0 SWAP2 SWAP1 PUSH1 0x40 SWAP1 DUP2 DUP6 ADD SWAP1 DUP1 DUP5 MUL DUP7 ADD DUP4 ADD DUP8 DUP6 ADD DUP7 JUMPDEST DUP4 DUP2 LT ISZERO PUSH2 0x9DDA JUMPI DUP9 DUP4 SUB PUSH1 0x3F NOT ADD DUP6 MSTORE DUP2 MLOAD DUP1 MLOAD DUP8 DUP6 MSTORE PUSH2 0x9DBB DUP9 DUP7 ADD DUP3 PUSH2 0x9735 JUMP JUMPDEST SWAP2 DUP10 ADD MLOAD ISZERO ISZERO SWAP5 DUP10 ADD SWAP5 SWAP1 SWAP5 MSTORE SWAP5 DUP8 ADD SWAP5 SWAP3 POP SWAP1 DUP7 ADD SWAP1 PUSH1 0x1 ADD PUSH2 0x9D97 JUMP JUMPDEST POP SWAP1 SWAP9 SWAP8 POP POP POP POP POP POP POP POP JUMP JUMPDEST PUSH1 0x0 PUSH1 0x20 DUP3 MSTORE PUSH2 0x2DC3 PUSH1 0x20 DUP4 ADD DUP5 PUSH2 0x9706 JUMP JUMPDEST PUSH1 0x0 PUSH1 0x40 DUP3 MSTORE PUSH2 0x9E0E PUSH1 0x40 DUP4 ADD DUP6 PUSH2 0x9706 JUMP JUMPDEST DUP3 DUP2 SUB PUSH1 0x20 DUP5 ADD MSTORE PUSH2 0x7077 DUP2 DUP6 PUSH2 0x9706 JUMP JUMPDEST SWAP1 ISZERO ISZERO DUP2 MSTORE PUSH1 0x20 ADD SWAP1 JUMP JUMPDEST DUP5 ISZERO ISZERO DUP2 MSTORE PUSH1 0x1 PUSH1 0x1 PUSH1 0xA0 SHL SUB DUP5 AND PUSH1 0x20 DUP3 ADD MSTORE PUSH1 0x80 PUSH1 0x40 DUP3 ADD DUP2 SWAP1 MSTORE PUSH1 0x0 SWAP1 PUSH2 0x9BB9 SWAP1 DUP4 ADD DUP6 PUSH2 0x9706 JUMP JUMPDEST SWAP1 DUP2 MSTORE PUSH1 0x20 ADD SWAP1 JUMP JUMPDEST PUSH1 0x0 DUP6 DUP3 MSTORE PUSH1 0x80 PUSH1 0x20 DUP4 ADD MSTORE PUSH2 0x9AED PUSH1 0x80 DUP4 ADD DUP7 PUSH2 0x9735 JUMP JUMPDEST PUSH1 0x1 PUSH1 0x1 PUSH1 0xE0 SHL SUB NOT DUP7 AND DUP2 MSTORE PUSH1 0x1 PUSH1 0x1 PUSH1 0xA0 SHL SUB DUP6 DUP2 AND PUSH1 0x20 DUP4 ADD MSTORE DUP5 AND PUSH1 0x40 DUP3 ADD MSTORE PUSH1 0xA0 PUSH1 0x60 DUP3 ADD DUP2 SWAP1 MSTORE PUSH1 0x0 SWAP1 PUSH2 0x9EB5 SWAP1 DUP4 ADD DUP6 PUSH2 0x9735 JUMP JUMPDEST DUP3 DUP2 SUB PUSH1 0x80 DUP5 ADD MSTORE PUSH2 0x6490 DUP2 DUP6 PUSH2 0x9706 JUMP JUMPDEST PUSH1 0x1 PUSH1 0x1 PUSH1 0xE0 SHL SUB NOT DUP7 AND DUP2 MSTORE PUSH1 0x1 PUSH1 0x1 PUSH1 0xA0 SHL SUB DUP6 DUP2 AND PUSH1 0x20 DUP4 ADD MSTORE DUP5 AND PUSH1 0x40 DUP3 ADD MSTORE PUSH1 0xA0 PUSH1 0x60 DUP3 ADD DUP2 SWAP1 MSTORE PUSH1 0x0 SWAP1 PUSH2 0x9F03 SWAP1 DUP4 ADD DUP6 PUSH2 0x9735 JUMP JUMPDEST SWAP1 POP DUP3 PUSH1 0x80 DUP4 ADD MSTORE SWAP7 SWAP6 POP POP POP POP POP POP JUMP JUMPDEST PUSH1 0x0 PUSH1 0x20 DUP3 MSTORE PUSH2 0x2DC3 PUSH1 0x20 DUP4 ADD DUP5 PUSH2 0x9735 JUMP JUMPDEST PUSH1 0x1 PUSH1 0x1 PUSH1 0xA0 SHL SUB DUP7 DUP2 AND DUP3 MSTORE DUP6 DUP2 AND PUSH1 0x20 DUP4 ADD MSTORE DUP5 AND PUSH1 0x40 DUP3 ADD MSTORE PUSH1 0x60 DUP2 ADD DUP4 SWAP1 MSTORE PUSH1 0xA0 PUSH1 0x80 DUP3 ADD DUP2 SWAP1 MSTORE PUSH1 0x0 SWAP1 PUSH2 0x76AB SWAP1 DUP4 ADD DUP5 PUSH2 0x9735 JUMP JUMPDEST PUSH1 0x1 PUSH1 0x1 PUSH1 0xA0 SHL SUB SWAP4 DUP5 AND DUP2 MSTORE SWAP2 SWAP1 SWAP3 AND PUSH1 0x20 DUP3 ADD MSTORE PUSH3 0xFFFFFF SWAP1 SWAP2 AND PUSH1 0x40 DUP3 ADD MSTORE PUSH1 0x60 ADD SWAP1 JUMP JUMPDEST PUSH1 0x1 PUSH1 0x1 PUSH1 0xA0 SHL SUB SWAP6 DUP7 AND DUP2 MSTORE SWAP4 DUP6 AND PUSH1 0x20 DUP6 ADD MSTORE PUSH1 0x40 DUP5 ADD SWAP3 SWAP1 SWAP3 MSTORE PUSH1 0x60 DUP4 ADD MSTORE SWAP1 SWAP2 AND PUSH1 0x80 DUP3 ADD MSTORE PUSH1 0xA0 ADD SWAP1 JUMP JUMPDEST PUSH1 0x1 PUSH1 0x1 PUSH1 0xA0 SHL SUB SWAP6 DUP7 AND DUP2 MSTORE SWAP4 SWAP1 SWAP5 AND PUSH1 0x20 DUP5 ADD MSTORE PUSH1 0x40 DUP4 ADD SWAP2 SWAP1 SWAP2 MSTORE PUSH1 0x60 DUP3 ADD MSTORE PUSH1 0x80 DUP2 ADD SWAP2 SWAP1 SWAP2 MSTORE PUSH1 0xA0 ADD SWAP1 JUMP JUMPDEST PUSH1 0x1 PUSH1 0x1 PUSH1 0xA0 SHL SUB DUP10 DUP2 AND DUP3 MSTORE PUSH1 0x20 DUP3 ADD DUP10 SWAP1 MSTORE DUP8 DUP2 AND PUSH1 0x40 DUP4 ADD MSTORE DUP7 DUP2 AND PUSH1 0x60 DUP4 ADD MSTORE PUSH1 0x80 DUP3 ADD DUP7 SWAP1 MSTORE PUSH1 0xA0 DUP3 ADD DUP6 SWAP1 MSTORE DUP4 AND PUSH1 0xC0 DUP3 ADD MSTORE PUSH2 0x100 PUSH1 0xE0 DUP3 ADD DUP2 SWAP1 MSTORE PUSH1 0x0 SWAP1 PUSH2 0x6000 DUP4 DUP3 ADD DUP6 PUSH2 0x9735 JUMP JUMPDEST PUSH1 0x1 PUSH1 0x1 PUSH1 0xA0 SHL SUB SWAP5 DUP6 AND DUP2 MSTORE PUSH1 0x20 DUP2 ADD SWAP4 SWAP1 SWAP4 MSTORE SWAP3 AND PUSH1 0x40 DUP3 ADD MSTORE PUSH1 0x60 DUP2 ADD SWAP2 SWAP1 SWAP2 MSTORE PUSH1 0x80 ADD SWAP1 JUMP JUMPDEST PUSH1 0x1 PUSH1 0x1 PUSH1 0xA0 SHL SUB SWAP6 DUP7 AND DUP2 MSTORE PUSH1 0x20 DUP2 ADD SWAP5 SWAP1 SWAP5 MSTORE SWAP2 SWAP1 SWAP4 AND PUSH1 0x40 DUP4 ADD MSTORE PUSH1 0x60 DUP3 ADD SWAP3 SWAP1 SWAP3 MSTORE PUSH1 0x80 DUP2 ADD SWAP2 SWAP1 SWAP2 MSTORE PUSH1 0xA0 ADD SWAP1 JUMP JUMPDEST PUSH1 0x60 DUP2 ADD PUSH2 0xA0A9 DUP6 PUSH2 0xA8EC JUMP JUMPDEST SWAP4 DUP2 MSTORE PUSH1 0x20 DUP2 ADD SWAP3 SWAP1 SWAP3 MSTORE PUSH1 0x40 SWAP1 SWAP2 ADD MSTORE SWAP1 JUMP JUMPDEST PUSH1 0x60 DUP2 ADD PUSH1 0x8 DUP6 LT PUSH2 0xA0A9 JUMPI INVALID JUMPDEST PUSH1 0xF SWAP5 DUP6 SIGNEXTEND DUP2 MSTORE SWAP3 SWAP1 SWAP4 SIGNEXTEND PUSH1 0x20 DUP4 ADD MSTORE PUSH1 0x40 DUP3 ADD MSTORE PUSH1 0xFF SWAP1 SWAP2 AND PUSH1 0x60 DUP3 ADD MSTORE PUSH1 0x80 ADD SWAP1 JUMP JUMPDEST SWAP3 DUP4 MSTORE PUSH1 0x20 DUP4 ADD SWAP2 SWAP1 SWAP2 MSTORE PUSH1 0x1 PUSH1 0x1 PUSH1 0xA0 SHL SUB AND PUSH1 0x40 DUP3 ADD MSTORE PUSH1 0x60 ADD SWAP1 JUMP JUMPDEST PUSH1 0x20 DUP1 DUP3 MSTORE PUSH1 0x24 SWAP1 DUP3 ADD MSTORE PUSH32 0x556E6973776170563353616D706C65722F746F6B656E5061746820746F6F2073 PUSH1 0x40 DUP3 ADD MSTORE PUSH4 0x1A1BDC9D PUSH1 0xE2 SHL PUSH1 0x60 DUP3 ADD MSTORE PUSH1 0x80 ADD SWAP1 JUMP JUMPDEST PUSH1 0x20 DUP1 DUP3 MSTORE PUSH1 0x18 SWAP1 DUP3 ADD MSTORE PUSH32 0x4D6978696E556E69737761702F4E4F5F45584348414E47450000000000000000 PUSH1 0x40 DUP3 ADD MSTORE PUSH1 0x60 ADD SWAP1 JUMP JUMPDEST PUSH1 0x20 DUP1 DUP3 MSTORE PUSH1 0x2C SWAP1 DUP3 ADD MSTORE PUSH32 0x4D6978696E42616E636F722F504154485F4C454E4754485F4D5553545F42455F PUSH1 0x40 DUP3 ADD MSTORE PUSH12 0x41545F4C454153545F54574F PUSH1 0xA0 SHL PUSH1 0x60 DUP3 ADD MSTORE PUSH1 0x80 ADD SWAP1 JUMP JUMPDEST PUSH1 0x20 DUP1 DUP3 MSTORE PUSH1 0x17 SWAP1 DUP3 ADD MSTORE PUSH32 0x4E6F206E6174697665207772617070656420746F6B656E000000000000000000 PUSH1 0x40 DUP3 ADD MSTORE PUSH1 0x60 ADD SWAP1 JUMP JUMPDEST PUSH1 0x20 DUP1 DUP3 MSTORE PUSH1 0x3A SWAP1 DUP3 ADD MSTORE PUSH32 0x4D6978696E4B79626572446D6D2F4C4153545F454C454D454E545F4F465F5041 PUSH1 0x40 DUP3 ADD MSTORE PUSH32 0x54485F4D5553545F4D415443485F4F55545055545F544F4B454E000000000000 PUSH1 0x60 DUP3 ADD MSTORE PUSH1 0x80 ADD SWAP1 JUMP JUMPDEST PUSH1 0x20 DUP1 DUP3 MSTORE PUSH1 0x25 SWAP1 DUP3 ADD MSTORE PUSH32 0x556E6973776170563353616D706C65722F696E76616C69642070617468206C65 PUSH1 0x40 DUP3 ADD MSTORE PUSH5 0x6E67746873 PUSH1 0xD8 SHL PUSH1 0x60 DUP3 ADD MSTORE PUSH1 0x80 ADD SWAP1 JUMP JUMPDEST PUSH1 0x20 DUP1 DUP3 MSTORE PUSH1 0x2F SWAP1 DUP3 ADD MSTORE PUSH32 0x4D6978696E556E697377617056322F504154485F4C454E4754485F4D5553545F PUSH1 0x40 DUP3 ADD MSTORE PUSH15 0x42455F41545F4C454153545F54574F PUSH1 0x88 SHL PUSH1 0x60 DUP3 ADD MSTORE PUSH1 0x80 ADD SWAP1 JUMP JUMPDEST PUSH1 0x20 DUP1 DUP3 MSTORE PUSH1 0x23 SWAP1 DUP3 ADD MSTORE PUSH32 0x4D6978696E4B79626572446D6D2F41525241595F4C454E4754485F4D49534D41 PUSH1 0x40 DUP3 ADD MSTORE PUSH3 0xA8869 PUSH1 0xEB SHL PUSH1 0x60 DUP3 ADD MSTORE PUSH1 0x80 ADD SWAP1 JUMP JUMPDEST PUSH1 0x20 DUP1 DUP3 MSTORE DUP2 DUP2 ADD MSTORE PUSH32 0x4D6978696E4C69646F2F554E535550504F525445445F544F4B454E5F50414952 PUSH1 0x40 DUP3 ADD MSTORE PUSH1 0x60 ADD SWAP1 JUMP JUMPDEST PUSH1 0x20 DUP1 DUP3 MSTORE DUP2 DUP2 ADD MSTORE PUSH32 0x537761702053616D706C652073686F756C642068617665207265766572746564 PUSH1 0x40 DUP3 ADD MSTORE PUSH1 0x60 ADD SWAP1 JUMP JUMPDEST PUSH1 0x20 DUP1 DUP3 MSTORE PUSH1 0x38 SWAP1 DUP3 ADD MSTORE PUSH32 0x4D6978696E42616E636F722F4C4153545F454C454D454E545F4F465F50415448 PUSH1 0x40 DUP3 ADD MSTORE PUSH32 0x5F4D5553545F4D415443485F4F55545055545F544F4B454E0000000000000000 PUSH1 0x60 DUP3 ADD MSTORE PUSH1 0x80 ADD SWAP1 JUMP JUMPDEST PUSH1 0x20 DUP1 DUP3 MSTORE PUSH1 0x2F SWAP1 DUP3 ADD MSTORE PUSH32 0x4D6978696E4B79626572446D6D2F504F4F4C535F4C454E4754485F4D5553545F PUSH1 0x40 DUP3 ADD MSTORE PUSH15 0x42455F41545F4C454153545F4F4E45 PUSH1 0x88 SHL PUSH1 0x60 DUP3 ADD MSTORE PUSH1 0x80 ADD SWAP1 JUMP JUMPDEST PUSH1 0x20 DUP1 DUP3 MSTORE PUSH1 0x3B SWAP1 DUP3 ADD MSTORE PUSH32 0x4D6978696E556E697377617056322F4C4153545F454C454D454E545F4F465F50 PUSH1 0x40 DUP3 ADD MSTORE PUSH32 0x4154485F4D5553545F4D415443485F4F55545055545F544F4B454E0000000000 PUSH1 0x60 DUP3 ADD MSTORE PUSH1 0x80 ADD SWAP1 JUMP JUMPDEST DUP2 MLOAD PUSH1 0x1 PUSH1 0x1 PUSH1 0xA0 SHL SUB AND DUP2 MSTORE PUSH1 0x20 SWAP2 DUP3 ADD MLOAD SWAP2 DUP2 ADD SWAP2 SWAP1 SWAP2 MSTORE PUSH1 0x40 ADD SWAP1 JUMP JUMPDEST PUSH1 0x80 DUP2 ADD PUSH2 0x4509 DUP3 DUP5 PUSH2 0x9761 JUMP JUMPDEST PUSH1 0x0 PUSH1 0x20 DUP3 MSTORE DUP3 MLOAD PUSH1 0xA0 PUSH1 0x20 DUP5 ADD MSTORE PUSH2 0xA4FE PUSH1 0xC0 DUP5 ADD DUP3 PUSH2 0x9735 JUMP JUMPDEST SWAP1 POP PUSH1 0x1 DUP1 PUSH1 0xA0 SHL SUB PUSH1 0x20 DUP6 ADD MLOAD AND PUSH1 0x40 DUP5 ADD MSTORE PUSH1 0x40 DUP5 ADD MLOAD PUSH1 0x60 DUP5 ADD MSTORE PUSH1 0x60 DUP5 ADD MLOAD PUSH1 0x80 DUP5 ADD MSTORE PUSH1 0x80 DUP5 ADD MLOAD PUSH1 0xA0 DUP5 ADD MSTORE DUP1 SWAP2 POP POP SWAP3 SWAP2 POP POP JUMP JUMPDEST PUSH1 0x0 PUSH1 0x60 DUP3 MSTORE PUSH2 0xA54D PUSH1 0x60 DUP4 ADD DUP7 PUSH2 0x97D6 JUMP JUMPDEST DUP3 DUP2 SUB PUSH1 0x20 DUP5 ADD MSTORE PUSH2 0xA55F DUP2 DUP7 PUSH2 0x97D6 JUMP JUMPDEST SWAP2 POP POP DUP3 PUSH1 0x40 DUP4 ADD MSTORE SWAP5 SWAP4 POP POP POP POP JUMP JUMPDEST PUSH1 0x0 PUSH1 0x80 DUP3 MSTORE PUSH2 0xA583 PUSH1 0x80 DUP4 ADD DUP8 PUSH2 0x97D6 JUMP JUMPDEST DUP3 DUP2 SUB PUSH1 0x20 DUP5 ADD MSTORE PUSH2 0xA595 DUP2 DUP8 PUSH2 0x97D6 JUMP JUMPDEST PUSH1 0x40 DUP5 ADD SWAP6 SWAP1 SWAP6 MSTORE POP POP PUSH1 0x60 ADD MSTORE SWAP3 SWAP2 POP POP JUMP JUMPDEST PUSH1 0x0 PUSH1 0x80 DUP3 MSTORE DUP6 MLOAD PUSH1 0x80 DUP4 ADD MSTORE PUSH1 0x20 DUP7 ADD MLOAD PUSH1 0x1 DUP1 PUSH1 0xA0 SHL SUB DUP1 DUP3 AND PUSH1 0xA0 DUP6 ADD MSTORE DUP1 PUSH1 0x40 DUP10 ADD MLOAD AND PUSH1 0xC0 DUP6 ADD MSTORE DUP1 PUSH1 0x60 DUP10 ADD MLOAD AND PUSH1 0xE0 DUP6 ADD MSTORE PUSH1 0x80 DUP9 ADD MLOAD SWAP2 POP PUSH1 0xA0 PUSH2 0x100 DUP6 ADD MSTORE PUSH2 0xA5FF PUSH2 0x120 DUP6 ADD DUP4 PUSH2 0x9735 JUMP JUMPDEST PUSH1 0x20 DUP6 ADD SWAP8 SWAP1 SWAP8 MSTORE SWAP5 DUP6 AND PUSH1 0x40 DUP5 ADD MSTORE POP POP SWAP2 AND PUSH1 0x60 SWAP1 SWAP2 ADD MSTORE SWAP2 SWAP1 POP JUMP JUMPDEST PUSH2 0x200 DUP2 ADD PUSH2 0xA62D DUP3 DUP6 PUSH2 0x97F5 JUMP JUMPDEST PUSH2 0x2DC3 PUSH2 0x180 DUP4 ADD DUP5 PUSH2 0x98C6 JUMP JUMPDEST PUSH2 0x220 DUP2 ADD PUSH2 0xA64A DUP3 DUP7 PUSH2 0x97F5 JUMP JUMPDEST PUSH2 0xA658 PUSH2 0x180 DUP4 ADD DUP6 PUSH2 0x98C6 JUMP JUMPDEST PUSH1 0x1 PUSH1 0x1 PUSH1 0xA0 SHL SUB SWAP3 SWAP1 SWAP3 AND PUSH2 0x200 SWAP2 SWAP1 SWAP2 ADD MSTORE SWAP3 SWAP2 POP POP JUMP JUMPDEST DUP2 MLOAD PUSH1 0x1 PUSH1 0x1 PUSH1 0xA0 SHL SUB SWAP1 DUP2 AND DUP3 MSTORE PUSH1 0x20 SWAP3 DUP4 ADD MLOAD AND SWAP2 DUP2 ADD SWAP2 SWAP1 SWAP2 MSTORE PUSH1 0x40 ADD SWAP1 JUMP JUMPDEST PUSH1 0x0 PUSH1 0xE0 DUP3 MSTORE DUP6 MLOAD PUSH1 0xE0 DUP4 ADD MSTORE PUSH1 0x20 DUP7 ADD MLOAD PUSH1 0x2 DUP2 LT PUSH2 0xA6B1 JUMPI INVALID JUMPDEST PUSH2 0x100 DUP4 ADD MSTORE PUSH1 0x40 DUP7 ADD MLOAD PUSH2 0xA6CA PUSH2 0x120 DUP5 ADD DUP3 PUSH2 0x96B6 JUMP JUMPDEST POP PUSH1 0x60 DUP7 ADD MLOAD PUSH2 0xA6DE PUSH2 0x140 DUP5 ADD DUP3 PUSH2 0x96B6 JUMP JUMPDEST POP PUSH1 0x80 DUP7 ADD MLOAD PUSH2 0x160 DUP4 ADD MSTORE PUSH1 0xA0 DUP7 ADD MLOAD PUSH1 0xC0 PUSH2 0x180 DUP5 ADD MSTORE PUSH2 0xA705 PUSH2 0x1A0 DUP5 ADD DUP3 PUSH2 0x9735 JUMP JUMPDEST SWAP2 POP POP PUSH2 0xA715 PUSH1 0x20 DUP4 ADD DUP7 PUSH2 0x97A1 JUMP JUMPDEST PUSH1 0xA0 DUP3 ADD SWAP4 SWAP1 SWAP4 MSTORE PUSH1 0xC0 ADD MSTORE SWAP3 SWAP2 POP POP JUMP JUMPDEST PUSH1 0x0 DUP8 DUP3 MSTORE DUP7 PUSH1 0x20 DUP4 ADD MSTORE PUSH1 0xC0 PUSH1 0x40 DUP4 ADD MSTORE PUSH2 0xA746 PUSH1 0xC0 DUP4 ADD DUP8 PUSH2 0x96C3 JUMP JUMPDEST DUP3 DUP2 SUB PUSH1 0x60 DUP5 ADD MSTORE PUSH2 0xA758 DUP2 DUP8 PUSH2 0x96C3 JUMP JUMPDEST PUSH1 0x1 PUSH1 0x1 PUSH1 0xA0 SHL SUB SWAP6 SWAP1 SWAP6 AND PUSH1 0x80 DUP5 ADD MSTORE POP POP PUSH1 0xA0 ADD MSTORE SWAP5 SWAP4 POP POP POP POP JUMP JUMPDEST PUSH1 0x0 DUP7 DUP3 MSTORE DUP6 PUSH1 0x20 DUP4 ADD MSTORE PUSH1 0xA0 PUSH1 0x40 DUP4 ADD MSTORE PUSH2 0xA796 PUSH1 0xA0 DUP4 ADD DUP7 PUSH2 0x96C3 JUMP JUMPDEST PUSH1 0x1 PUSH1 0x1 PUSH1 0xA0 SHL SUB SWAP5 SWAP1 SWAP5 AND PUSH1 0x60 DUP4 ADD MSTORE POP PUSH1 0x80 ADD MSTORE SWAP4 SWAP3 POP POP POP JUMP JUMPDEST PUSH1 0x0 DUP5 DUP3 MSTORE DUP4 PUSH1 0x20 DUP4 ADD MSTORE PUSH1 0x60 PUSH1 0x40 DUP4 ADD MSTORE PUSH2 0x11D4 PUSH1 0x60 DUP4 ADD DUP5 PUSH2 0x9735 JUMP JUMPDEST SWAP5 DUP6 MSTORE PUSH1 0x20 DUP6 ADD SWAP4 SWAP1 SWAP4 MSTORE PUSH1 0x40 DUP5 ADD SWAP2 SWAP1 SWAP2 MSTORE PUSH1 0x60 DUP4 ADD MSTORE PUSH1 0x1 PUSH1 0x1 PUSH1 0xA0 SHL SUB AND PUSH1 0x80 DUP3 ADD MSTORE PUSH1 0xA0 ADD SWAP1 JUMP JUMPDEST SWAP3 DUP4 MSTORE PUSH1 0x20 DUP4 ADD SWAP2 SWAP1 SWAP2 MSTORE PUSH1 0x40 DUP3 ADD MSTORE PUSH1 0x60 ADD SWAP1 JUMP JUMPDEST PUSH1 0x0 DUP1 DUP4 CALLDATALOAD PUSH1 0x1E NOT DUP5 CALLDATASIZE SUB ADD DUP2 SLT PUSH2 0xA82A JUMPI DUP3 DUP4 REVERT JUMPDEST DUP4 ADD DUP1 CALLDATALOAD SWAP2 POP PUSH1 0x1 PUSH1 0x1 PUSH1 0x40 SHL SUB DUP3 GT ISZERO PUSH2 0xA843 JUMPI DUP3 DUP4 REVERT JUMPDEST PUSH1 0x20 ADD SWAP2 POP CALLDATASIZE DUP2 SWAP1 SUB DUP3 SGT ISZERO PUSH2 0x45D9 JUMPI PUSH1 0x0 DUP1 REVERT JUMPDEST PUSH1 0x40 MLOAD DUP2 DUP2 ADD PUSH1 0x1 PUSH1 0x1 PUSH1 0x40 SHL SUB DUP2 GT DUP3 DUP3 LT OR ISZERO PUSH2 0xA876 JUMPI PUSH1 0x0 DUP1 REVERT JUMPDEST PUSH1 0x40 MSTORE SWAP2 SWAP1 POP JUMP JUMPDEST PUSH1 0x0 PUSH1 0x1 PUSH1 0x1 PUSH1 0x40 SHL SUB DUP3 GT ISZERO PUSH2 0xA893 JUMPI DUP1 DUP2 REVERT JUMPDEST POP PUSH1 0x20 SWAP1 DUP2 MUL ADD SWAP1 JUMP JUMPDEST PUSH1 0x0 PUSH1 0x1 PUSH1 0x1 PUSH1 0x40 SHL SUB DUP3 GT ISZERO PUSH2 0xA8B2 JUMPI DUP1 DUP2 REVERT JUMPDEST POP PUSH1 0x1F ADD PUSH1 0x1F NOT AND PUSH1 0x20 ADD SWAP1 JUMP JUMPDEST PUSH1 0x0 JUMPDEST DUP4 DUP2 LT ISZERO PUSH2 0xA8DB JUMPI DUP2 DUP2 ADD MLOAD DUP4 DUP3 ADD MSTORE PUSH1 0x20 ADD PUSH2 0xA8C3 JUMP JUMPDEST DUP4 DUP2 GT ISZERO PUSH2 0x7F78 JUMPI POP POP PUSH1 0x0 SWAP2 ADD MSTORE JUMP JUMPDEST PUSH1 0x4 DUP2 LT PUSH2 0xA8F6 JUMPI INVALID JUMPDEST POP JUMP JUMPDEST PUSH1 0x1 PUSH1 0x1 PUSH1 0xA0 SHL SUB DUP2 AND DUP2 EQ PUSH2 0xA8F6 JUMPI PUSH1 0x0 DUP1 REVERT JUMPDEST DUP1 ISZERO ISZERO DUP2 EQ PUSH2 0xA8F6 JUMPI PUSH1 0x0 DUP1 REVERT JUMPDEST PUSH1 0x1 PUSH1 0x1 PUSH1 0xE0 SHL SUB NOT DUP2 AND DUP2 EQ PUSH2 0xA8F6 JUMPI PUSH1 0x0 DUP1 REVERT JUMPDEST DUP1 PUSH1 0xF SIGNEXTEND DUP2 EQ PUSH2 0xA8F6 JUMPI PUSH1 0x0 DUP1 REVERT JUMPDEST PUSH1 0x1 PUSH1 0x1 PUSH1 0x80 SHL SUB DUP2 AND DUP2 EQ PUSH2 0xA8F6 JUMPI PUSH1 0x0 DUP1 REVERT JUMPDEST PUSH1 0xFF DUP2 AND DUP2 EQ PUSH2 0xA8F6 JUMPI PUSH1 0x0 DUP1 REVERT INVALID LOG2 PUSH5 0x6970667358 0x22 SLT KECCAK256 ADDMOD 0x1F 0xD9 DUP4 0x26 0xE5 PUSH27 0x2EA2E640D81A6C08664EF8B8C616383CE45FA36B2A7905FB466473 PUSH16 0x6C634300060C00330000000000000000 "
            }
        }
    },
    "sourceTreeHashHex": "0x76acf456f1a4610792fa943fba5e741b6fbbe9ad374ce4c1690f8ab58ace225c",
    "compiler": {
        "name": "solc",
        "version": "0.6.12+commit.27d51765",
        "settings": {
            "remappings": [
                "@0x/contracts-zero-ex=/Users/jacob/projects/ethdev/0x/workspace-remote/workspace/0x-monorepo/packages/asset-swapper/node_modules/@0x/contracts-zero-ex",
                "@0x/contracts-erc20=/Users/jacob/projects/ethdev/0x/workspace-remote/workspace/0x-monorepo/packages/asset-swapper/node_modules/@0x/contracts-erc20",
                "@0x/contracts-utils=/Users/jacob/projects/ethdev/0x/workspace-remote/workspace/0x-monorepo/packages/asset-swapper/node_modules/@0x/contracts-utils"
            ],
            "optimizer": {
                "enabled": true,
                "runs": 200,
                "details": {
                    "yul": true,
                    "deduplicate": true
                }
            },
            "outputSelection": {
                "*": {
                    "*": [
                        "abi",
                        "devdoc",
                        "evm.bytecode.object",
                        "evm.bytecode.sourceMap",
                        "evm.deployedBytecode.object",
                        "evm.deployedBytecode.sourceMap"
                    ]
                }
            },
            "evmVersion": "istanbul"
        }
    },
    "chains": {}
}