{
    "schemaVersion": "2.0.0",
    "contractName": "ERC20BridgeSampler",
    "compilerOutput": {
        "abi": [
            {
                "inputs": [
                    {
                        "internalType": "bytes[]",
                        "name": "callDatas",
                        "type": "bytes[]"
                    }
                ],
                "name": "batchCall",
                "outputs": [
                    {
                        "components": [
                            {
                                "internalType": "bytes",
                                "name": "data",
                                "type": "bytes"
                            },
                            {
                                "internalType": "bool",
                                "name": "success",
                                "type": "bool"
                            }
                        ],
                        "internalType": "struct ERC20BridgeSampler.CallResults[]",
                        "name": "callResults",
                        "type": "tuple[]"
                    }
                ],
                "stateMutability": "nonpayable",
                "type": "function"
            },
            {
                "inputs": [
                    {
                        "components": [
                            {
                                "internalType": "uint256",
                                "name": "reserveOffset",
                                "type": "uint256"
                            },
                            {
                                "internalType": "address",
                                "name": "hintHandler",
                                "type": "address"
                            },
                            {
                                "internalType": "address",
                                "name": "networkProxy",
                                "type": "address"
                            },
                            {
                                "internalType": "address",
                                "name": "weth",
                                "type": "address"
                            },
                            {
                                "internalType": "bytes",
                                "name": "hint",
                                "type": "bytes"
                            }
                        ],
                        "internalType": "struct KyberSampler.KyberSamplerOpts",
                        "name": "opts",
                        "type": "tuple"
                    },
                    {
                        "internalType": "bytes32",
                        "name": "reserveId",
                        "type": "bytes32"
                    },
                    {
                        "internalType": "address",
                        "name": "takerToken",
                        "type": "address"
                    },
                    {
                        "internalType": "address",
                        "name": "makerToken",
                        "type": "address"
                    }
                ],
                "name": "encodeKyberHint",
                "outputs": [
                    {
                        "internalType": "bytes",
                        "name": "hint",
                        "type": "bytes"
                    }
                ],
                "stateMutability": "view",
                "type": "function"
            },
            {
                "inputs": [
                    {
                        "internalType": "contract IERC20TokenV06[]",
                        "name": "tokens",
                        "type": "address[]"
                    },
                    {
                        "internalType": "address",
                        "name": "account",
                        "type": "address"
                    },
                    {
                        "internalType": "address",
                        "name": "spender",
                        "type": "address"
                    }
                ],
                "name": "getAllowanceOf",
                "outputs": [
                    {
                        "internalType": "uint256[]",
                        "name": "allowances",
                        "type": "uint256[]"
                    }
                ],
                "stateMutability": "view",
                "type": "function"
            },
            {
                "inputs": [
                    {
                        "internalType": "contract IERC20TokenV06[]",
                        "name": "tokens",
                        "type": "address[]"
                    },
                    {
                        "internalType": "address",
                        "name": "account",
                        "type": "address"
                    }
                ],
                "name": "getBalanceOf",
                "outputs": [
                    {
                        "internalType": "uint256[]",
                        "name": "balances",
                        "type": "uint256[]"
                    }
                ],
                "stateMutability": "view",
                "type": "function"
            },
            {
                "inputs": [],
                "name": "getBlockNumber",
                "outputs": [
                    {
                        "internalType": "uint256",
                        "name": "",
                        "type": "uint256"
                    }
                ],
                "stateMutability": "view",
                "type": "function"
            },
            {
                "inputs": [],
                "name": "getGasLeft",
                "outputs": [
                    {
                        "internalType": "uint256",
                        "name": "",
                        "type": "uint256"
                    }
                ],
                "stateMutability": "nonpayable",
                "type": "function"
            },
            {
                "inputs": [
                    {
                        "components": [
                            {
                                "internalType": "contract IERC20TokenV06",
                                "name": "makerToken",
                                "type": "address"
                            },
                            {
                                "internalType": "contract IERC20TokenV06",
                                "name": "takerToken",
                                "type": "address"
                            },
                            {
                                "internalType": "uint128",
                                "name": "makerAmount",
                                "type": "uint128"
                            },
                            {
                                "internalType": "uint128",
                                "name": "takerAmount",
                                "type": "uint128"
                            },
                            {
                                "internalType": "uint128",
                                "name": "takerTokenFeeAmount",
                                "type": "uint128"
                            },
                            {
                                "internalType": "address",
                                "name": "maker",
                                "type": "address"
                            },
                            {
                                "internalType": "address",
                                "name": "taker",
                                "type": "address"
                            },
                            {
                                "internalType": "address",
                                "name": "sender",
                                "type": "address"
                            },
                            {
                                "internalType": "address",
                                "name": "feeRecipient",
                                "type": "address"
                            },
                            {
                                "internalType": "bytes32",
                                "name": "pool",
                                "type": "bytes32"
                            },
                            {
                                "internalType": "uint64",
                                "name": "expiry",
                                "type": "uint64"
                            },
                            {
                                "internalType": "uint256",
                                "name": "salt",
                                "type": "uint256"
                            }
                        ],
                        "internalType": "struct IExchange.LimitOrder[]",
                        "name": "orders",
                        "type": "tuple[]"
                    },
                    {
                        "components": [
                            {
                                "internalType": "enum IExchange.SignatureType",
                                "name": "signatureType",
                                "type": "uint8"
                            },
                            {
                                "internalType": "uint8",
                                "name": "v",
                                "type": "uint8"
                            },
                            {
                                "internalType": "bytes32",
                                "name": "r",
                                "type": "bytes32"
                            },
                            {
                                "internalType": "bytes32",
                                "name": "s",
                                "type": "bytes32"
                            }
                        ],
                        "internalType": "struct IExchange.Signature[]",
                        "name": "orderSignatures",
                        "type": "tuple[]"
                    },
                    {
                        "internalType": "contract IExchange",
                        "name": "exchange",
                        "type": "address"
                    }
                ],
                "name": "getLimitOrderFillableMakerAssetAmounts",
                "outputs": [
                    {
                        "internalType": "uint256[]",
                        "name": "orderFillableMakerAssetAmounts",
                        "type": "uint256[]"
                    }
                ],
                "stateMutability": "view",
                "type": "function"
            },
            {
                "inputs": [
                    {
                        "components": [
                            {
                                "internalType": "contract IERC20TokenV06",
                                "name": "makerToken",
                                "type": "address"
                            },
                            {
                                "internalType": "contract IERC20TokenV06",
                                "name": "takerToken",
                                "type": "address"
                            },
                            {
                                "internalType": "uint128",
                                "name": "makerAmount",
                                "type": "uint128"
                            },
                            {
                                "internalType": "uint128",
                                "name": "takerAmount",
                                "type": "uint128"
                            },
                            {
                                "internalType": "uint128",
                                "name": "takerTokenFeeAmount",
                                "type": "uint128"
                            },
                            {
                                "internalType": "address",
                                "name": "maker",
                                "type": "address"
                            },
                            {
                                "internalType": "address",
                                "name": "taker",
                                "type": "address"
                            },
                            {
                                "internalType": "address",
                                "name": "sender",
                                "type": "address"
                            },
                            {
                                "internalType": "address",
                                "name": "feeRecipient",
                                "type": "address"
                            },
                            {
                                "internalType": "bytes32",
                                "name": "pool",
                                "type": "bytes32"
                            },
                            {
                                "internalType": "uint64",
                                "name": "expiry",
                                "type": "uint64"
                            },
                            {
                                "internalType": "uint256",
                                "name": "salt",
                                "type": "uint256"
                            }
                        ],
                        "internalType": "struct IExchange.LimitOrder",
                        "name": "order",
                        "type": "tuple"
                    },
                    {
                        "components": [
                            {
                                "internalType": "enum IExchange.SignatureType",
                                "name": "signatureType",
                                "type": "uint8"
                            },
                            {
                                "internalType": "uint8",
                                "name": "v",
                                "type": "uint8"
                            },
                            {
                                "internalType": "bytes32",
                                "name": "r",
                                "type": "bytes32"
                            },
                            {
                                "internalType": "bytes32",
                                "name": "s",
                                "type": "bytes32"
                            }
                        ],
                        "internalType": "struct IExchange.Signature",
                        "name": "signature",
                        "type": "tuple"
                    },
                    {
                        "internalType": "contract IExchange",
                        "name": "exchange",
                        "type": "address"
                    }
                ],
                "name": "getLimitOrderFillableTakerAmount",
                "outputs": [
                    {
                        "internalType": "uint256",
                        "name": "fillableTakerAmount",
                        "type": "uint256"
                    }
                ],
                "stateMutability": "view",
                "type": "function"
            },
            {
                "inputs": [
                    {
                        "components": [
                            {
                                "internalType": "contract IERC20TokenV06",
                                "name": "makerToken",
                                "type": "address"
                            },
                            {
                                "internalType": "contract IERC20TokenV06",
                                "name": "takerToken",
                                "type": "address"
                            },
                            {
                                "internalType": "uint128",
                                "name": "makerAmount",
                                "type": "uint128"
                            },
                            {
                                "internalType": "uint128",
                                "name": "takerAmount",
                                "type": "uint128"
                            },
                            {
                                "internalType": "uint128",
                                "name": "takerTokenFeeAmount",
                                "type": "uint128"
                            },
                            {
                                "internalType": "address",
                                "name": "maker",
                                "type": "address"
                            },
                            {
                                "internalType": "address",
                                "name": "taker",
                                "type": "address"
                            },
                            {
                                "internalType": "address",
                                "name": "sender",
                                "type": "address"
                            },
                            {
                                "internalType": "address",
                                "name": "feeRecipient",
                                "type": "address"
                            },
                            {
                                "internalType": "bytes32",
                                "name": "pool",
                                "type": "bytes32"
                            },
                            {
                                "internalType": "uint64",
                                "name": "expiry",
                                "type": "uint64"
                            },
                            {
                                "internalType": "uint256",
                                "name": "salt",
                                "type": "uint256"
                            }
                        ],
                        "internalType": "struct IExchange.LimitOrder[]",
                        "name": "orders",
                        "type": "tuple[]"
                    },
                    {
                        "components": [
                            {
                                "internalType": "enum IExchange.SignatureType",
                                "name": "signatureType",
                                "type": "uint8"
                            },
                            {
                                "internalType": "uint8",
                                "name": "v",
                                "type": "uint8"
                            },
                            {
                                "internalType": "bytes32",
                                "name": "r",
                                "type": "bytes32"
                            },
                            {
                                "internalType": "bytes32",
                                "name": "s",
                                "type": "bytes32"
                            }
                        ],
                        "internalType": "struct IExchange.Signature[]",
                        "name": "orderSignatures",
                        "type": "tuple[]"
                    },
                    {
                        "internalType": "contract IExchange",
                        "name": "exchange",
                        "type": "address"
                    }
                ],
                "name": "getLimitOrderFillableTakerAssetAmounts",
                "outputs": [
                    {
                        "internalType": "uint256[]",
                        "name": "orderFillableTakerAssetAmounts",
                        "type": "uint256[]"
                    }
                ],
                "stateMutability": "view",
                "type": "function"
            },
            {
                "inputs": [
                    {
                        "internalType": "contract IERC20TokenV06[]",
                        "name": "tokens",
                        "type": "address[]"
                    }
                ],
                "name": "getTokenDecimals",
                "outputs": [
                    {
                        "internalType": "uint256[]",
                        "name": "decimals",
                        "type": "uint256[]"
                    }
                ],
                "stateMutability": "view",
                "type": "function"
            },
            {
                "inputs": [
                    {
                        "internalType": "address",
                        "name": "account",
                        "type": "address"
                    }
                ],
                "name": "isContract",
                "outputs": [
                    {
                        "internalType": "bool",
                        "name": "",
                        "type": "bool"
                    }
                ],
                "stateMutability": "view",
                "type": "function"
            },
            {
                "inputs": [
                    {
                        "internalType": "address",
                        "name": "poolAddress",
                        "type": "address"
                    },
                    {
                        "internalType": "address",
                        "name": "takerToken",
                        "type": "address"
                    },
                    {
                        "internalType": "address",
                        "name": "makerToken",
                        "type": "address"
                    },
                    {
                        "internalType": "uint256[]",
                        "name": "makerTokenAmounts",
                        "type": "uint256[]"
                    }
                ],
                "name": "sampleBuysFromBalancer",
                "outputs": [
                    {
                        "internalType": "uint256[]",
                        "name": "takerTokenAmounts",
                        "type": "uint256[]"
                    }
                ],
                "stateMutability": "view",
                "type": "function"
            },
            {
                "inputs": [
                    {
                        "components": [
                            {
                                "internalType": "bytes32",
                                "name": "poolId",
                                "type": "bytes32"
                            },
                            {
                                "internalType": "address",
                                "name": "vault",
                                "type": "address"
                            }
                        ],
                        "internalType": "struct IBalancerV2Vault.BalancerV2PoolInfo",
                        "name": "poolInfo",
                        "type": "tuple"
                    },
                    {
                        "internalType": "address",
                        "name": "takerToken",
                        "type": "address"
                    },
                    {
                        "internalType": "address",
                        "name": "makerToken",
                        "type": "address"
                    },
                    {
                        "internalType": "uint256[]",
                        "name": "makerTokenAmounts",
                        "type": "uint256[]"
                    }
                ],
                "name": "sampleBuysFromBalancerV2",
                "outputs": [
                    {
                        "internalType": "uint256[]",
                        "name": "takerTokenAmounts",
                        "type": "uint256[]"
                    }
                ],
                "stateMutability": "nonpayable",
                "type": "function"
            },
            {
                "inputs": [
                    {
                        "components": [
                            {
                                "internalType": "contract IBancorRegistry",
                                "name": "registry",
                                "type": "address"
                            },
                            {
                                "internalType": "address[][]",
                                "name": "paths",
                                "type": "address[][]"
                            }
                        ],
                        "internalType": "struct BancorSampler.BancorSamplerOpts",
                        "name": "opts",
                        "type": "tuple"
                    },
                    {
                        "internalType": "address",
                        "name": "takerToken",
                        "type": "address"
                    },
                    {
                        "internalType": "address",
                        "name": "makerToken",
                        "type": "address"
                    },
                    {
                        "internalType": "uint256[]",
                        "name": "makerTokenAmounts",
                        "type": "uint256[]"
                    }
                ],
                "name": "sampleBuysFromBancor",
                "outputs": [
                    {
                        "internalType": "address",
                        "name": "bancorNetwork",
                        "type": "address"
                    },
                    {
                        "internalType": "address[]",
                        "name": "path",
                        "type": "address[]"
                    },
                    {
                        "internalType": "uint256[]",
                        "name": "takerTokenAmounts",
                        "type": "uint256[]"
                    }
                ],
                "stateMutability": "view",
                "type": "function"
            },
            {
                "inputs": [
                    {
                        "internalType": "contract ICToken",
                        "name": "cToken",
                        "type": "address"
                    },
                    {
                        "internalType": "contract IERC20TokenV06",
                        "name": "takerToken",
                        "type": "address"
                    },
                    {
                        "internalType": "contract IERC20TokenV06",
                        "name": "makerToken",
                        "type": "address"
                    },
                    {
                        "internalType": "uint256[]",
                        "name": "makerTokenAmounts",
                        "type": "uint256[]"
                    }
                ],
                "name": "sampleBuysFromCompound",
                "outputs": [
                    {
                        "internalType": "uint256[]",
                        "name": "takerTokenAmounts",
                        "type": "uint256[]"
                    }
                ],
                "stateMutability": "view",
                "type": "function"
            },
            {
                "inputs": [
                    {
                        "components": [
                            {
                                "internalType": "address",
                                "name": "poolAddress",
                                "type": "address"
                            },
                            {
                                "internalType": "bytes4",
                                "name": "sellQuoteFunctionSelector",
                                "type": "bytes4"
                            },
                            {
                                "internalType": "bytes4",
                                "name": "buyQuoteFunctionSelector",
                                "type": "bytes4"
                            }
                        ],
                        "internalType": "struct CurveSampler.CurveInfo",
                        "name": "curveInfo",
                        "type": "tuple"
                    },
                    {
                        "internalType": "int128",
                        "name": "fromTokenIdx",
                        "type": "int128"
                    },
                    {
                        "internalType": "int128",
                        "name": "toTokenIdx",
                        "type": "int128"
                    },
                    {
                        "internalType": "uint256[]",
                        "name": "makerTokenAmounts",
                        "type": "uint256[]"
                    }
                ],
                "name": "sampleBuysFromCurve",
                "outputs": [
                    {
                        "internalType": "uint256[]",
                        "name": "takerTokenAmounts",
                        "type": "uint256[]"
                    }
                ],
                "stateMutability": "view",
                "type": "function"
            },
            {
                "inputs": [
                    {
                        "components": [
                            {
                                "internalType": "address",
                                "name": "registry",
                                "type": "address"
                            },
                            {
                                "internalType": "address",
                                "name": "helper",
                                "type": "address"
                            }
                        ],
                        "internalType": "struct DODOSampler.DODOSamplerOpts",
                        "name": "opts",
                        "type": "tuple"
                    },
                    {
                        "internalType": "address",
                        "name": "takerToken",
                        "type": "address"
                    },
                    {
                        "internalType": "address",
                        "name": "makerToken",
                        "type": "address"
                    },
                    {
                        "internalType": "uint256[]",
                        "name": "makerTokenAmounts",
                        "type": "uint256[]"
                    }
                ],
                "name": "sampleBuysFromDODO",
                "outputs": [
                    {
                        "internalType": "bool",
                        "name": "sellBase",
                        "type": "bool"
                    },
                    {
                        "internalType": "address",
                        "name": "pool",
                        "type": "address"
                    },
                    {
                        "internalType": "uint256[]",
                        "name": "takerTokenAmounts",
                        "type": "uint256[]"
                    }
                ],
                "stateMutability": "view",
                "type": "function"
            },
            {
                "inputs": [
                    {
                        "internalType": "address",
                        "name": "registry",
                        "type": "address"
                    },
                    {
                        "internalType": "uint256",
                        "name": "offset",
                        "type": "uint256"
                    },
                    {
                        "internalType": "address",
                        "name": "takerToken",
                        "type": "address"
                    },
                    {
                        "internalType": "address",
                        "name": "makerToken",
                        "type": "address"
                    },
                    {
                        "internalType": "uint256[]",
                        "name": "makerTokenAmounts",
                        "type": "uint256[]"
                    }
                ],
                "name": "sampleBuysFromDODOV2",
                "outputs": [
                    {
                        "internalType": "bool",
                        "name": "sellBase",
                        "type": "bool"
                    },
                    {
                        "internalType": "address",
                        "name": "pool",
                        "type": "address"
                    },
                    {
                        "internalType": "uint256[]",
                        "name": "takerTokenAmounts",
                        "type": "uint256[]"
                    }
                ],
                "stateMutability": "view",
                "type": "function"
            },
            {
                "inputs": [
                    {
                        "internalType": "address",
                        "name": "reader",
                        "type": "address"
                    },
                    {
                        "internalType": "address",
                        "name": "vault",
                        "type": "address"
                    },
                    {
                        "internalType": "address[]",
                        "name": "path",
                        "type": "address[]"
                    },
                    {
                        "internalType": "uint256[]",
                        "name": "makerTokenAmounts",
                        "type": "uint256[]"
                    }
                ],
                "name": "sampleBuysFromGMX",
                "outputs": [
                    {
                        "internalType": "uint256[]",
                        "name": "takerTokenAmounts",
                        "type": "uint256[]"
                    }
                ],
                "stateMutability": "view",
                "type": "function"
            },
            {
                "inputs": [
                    {
                        "internalType": "address",
                        "name": "router",
                        "type": "address"
                    },
                    {
                        "internalType": "address[]",
                        "name": "path",
                        "type": "address[]"
                    },
                    {
                        "internalType": "uint256[]",
                        "name": "makerTokenAmounts",
                        "type": "uint256[]"
                    }
                ],
                "name": "sampleBuysFromKyberDmm",
                "outputs": [
                    {
                        "internalType": "address[]",
                        "name": "pools",
                        "type": "address[]"
                    },
                    {
                        "internalType": "uint256[]",
                        "name": "takerTokenAmounts",
                        "type": "uint256[]"
                    }
                ],
                "stateMutability": "view",
                "type": "function"
            },
            {
                "inputs": [
                    {
                        "components": [
                            {
                                "internalType": "uint256",
                                "name": "reserveOffset",
                                "type": "uint256"
                            },
                            {
                                "internalType": "address",
                                "name": "hintHandler",
                                "type": "address"
                            },
                            {
                                "internalType": "address",
                                "name": "networkProxy",
                                "type": "address"
                            },
                            {
                                "internalType": "address",
                                "name": "weth",
                                "type": "address"
                            },
                            {
                                "internalType": "bytes",
                                "name": "hint",
                                "type": "bytes"
                            }
                        ],
                        "internalType": "struct KyberSampler.KyberSamplerOpts",
                        "name": "opts",
                        "type": "tuple"
                    },
                    {
                        "internalType": "address",
                        "name": "takerToken",
                        "type": "address"
                    },
                    {
                        "internalType": "address",
                        "name": "makerToken",
                        "type": "address"
                    },
                    {
                        "internalType": "uint256[]",
                        "name": "makerTokenAmounts",
                        "type": "uint256[]"
                    }
                ],
                "name": "sampleBuysFromKyberNetwork",
                "outputs": [
                    {
                        "internalType": "bytes32",
                        "name": "reserveId",
                        "type": "bytes32"
                    },
                    {
                        "internalType": "bytes",
                        "name": "hint",
                        "type": "bytes"
                    },
                    {
                        "internalType": "uint256[]",
                        "name": "takerTokenAmounts",
                        "type": "uint256[]"
                    }
                ],
                "stateMutability": "view",
                "type": "function"
            },
            {
                "inputs": [
                    {
                        "components": [
                            {
                                "internalType": "address",
                                "name": "stEthToken",
                                "type": "address"
                            },
                            {
                                "internalType": "address",
                                "name": "wethToken",
                                "type": "address"
                            }
                        ],
                        "internalType": "struct LidoSampler.LidoInfo",
                        "name": "lidoInfo",
                        "type": "tuple"
                    },
                    {
                        "internalType": "address",
                        "name": "takerToken",
                        "type": "address"
                    },
                    {
                        "internalType": "address",
                        "name": "makerToken",
                        "type": "address"
                    },
                    {
                        "internalType": "uint256[]",
                        "name": "makerTokenAmounts",
                        "type": "uint256[]"
                    }
                ],
                "name": "sampleBuysFromLido",
                "outputs": [
                    {
                        "internalType": "uint256[]",
                        "name": "",
                        "type": "uint256[]"
                    }
                ],
                "stateMutability": "pure",
                "type": "function"
            },
            {
                "inputs": [
                    {
                        "internalType": "address",
                        "name": "providerAddress",
                        "type": "address"
                    },
                    {
                        "internalType": "address",
                        "name": "takerToken",
                        "type": "address"
                    },
                    {
                        "internalType": "address",
                        "name": "makerToken",
                        "type": "address"
                    },
                    {
                        "internalType": "uint256[]",
                        "name": "makerTokenAmounts",
                        "type": "uint256[]"
                    }
                ],
                "name": "sampleBuysFromLiquidityProvider",
                "outputs": [
                    {
                        "internalType": "uint256[]",
                        "name": "takerTokenAmounts",
                        "type": "uint256[]"
                    }
                ],
                "stateMutability": "view",
                "type": "function"
            },
            {
                "inputs": [
                    {
                        "internalType": "address",
                        "name": "router",
                        "type": "address"
                    },
                    {
                        "internalType": "address",
                        "name": "takerToken",
                        "type": "address"
                    },
                    {
                        "internalType": "address",
                        "name": "makerToken",
                        "type": "address"
                    },
                    {
                        "internalType": "uint256[]",
                        "name": "makerTokenAmounts",
                        "type": "uint256[]"
                    }
                ],
                "name": "sampleBuysFromMStable",
                "outputs": [
                    {
                        "internalType": "uint256[]",
                        "name": "takerTokenAmounts",
                        "type": "uint256[]"
                    }
                ],
                "stateMutability": "view",
                "type": "function"
            },
            {
                "inputs": [
                    {
                        "components": [
                            {
                                "internalType": "address",
                                "name": "psmAddress",
                                "type": "address"
                            },
                            {
                                "internalType": "bytes32",
                                "name": "ilkIdentifier",
                                "type": "bytes32"
                            },
                            {
                                "internalType": "address",
                                "name": "gemTokenAddress",
                                "type": "address"
                            }
                        ],
                        "internalType": "struct MakerPSMSampler.MakerPsmInfo",
                        "name": "psmInfo",
                        "type": "tuple"
                    },
                    {
                        "internalType": "address",
                        "name": "takerToken",
                        "type": "address"
                    },
                    {
                        "internalType": "address",
                        "name": "makerToken",
                        "type": "address"
                    },
                    {
                        "internalType": "uint256[]",
                        "name": "makerTokenAmounts",
                        "type": "uint256[]"
                    }
                ],
                "name": "sampleBuysFromMakerPsm",
                "outputs": [
                    {
                        "internalType": "uint256[]",
                        "name": "takerTokenAmounts",
                        "type": "uint256[]"
                    }
                ],
                "stateMutability": "view",
                "type": "function"
            },
            {
                "inputs": [
                    {
                        "internalType": "address",
                        "name": "registry",
                        "type": "address"
                    },
                    {
                        "internalType": "address",
                        "name": "takerToken",
                        "type": "address"
                    },
                    {
                        "internalType": "address",
                        "name": "makerToken",
                        "type": "address"
                    },
                    {
                        "internalType": "uint256[]",
                        "name": "makerTokenAmounts",
                        "type": "uint256[]"
                    }
                ],
                "name": "sampleBuysFromMooniswap",
                "outputs": [
                    {
                        "internalType": "contract IMooniswap",
                        "name": "pool",
                        "type": "address"
                    },
                    {
                        "internalType": "uint256[]",
                        "name": "takerTokenAmounts",
                        "type": "uint256[]"
                    }
                ],
                "stateMutability": "view",
                "type": "function"
            },
            {
                "inputs": [
                    {
                        "internalType": "address",
                        "name": "pool",
                        "type": "address"
                    },
                    {
                        "internalType": "address[]",
                        "name": "path",
                        "type": "address[]"
                    },
                    {
                        "internalType": "uint256[]",
                        "name": "makerTokenAmounts",
                        "type": "uint256[]"
                    }
                ],
                "name": "sampleBuysFromPlatypus",
                "outputs": [
                    {
                        "internalType": "uint256[]",
                        "name": "takerTokenAmounts",
                        "type": "uint256[]"
                    }
                ],
                "stateMutability": "view",
                "type": "function"
            },
            {
                "inputs": [
                    {
                        "internalType": "address",
                        "name": "pool",
                        "type": "address"
                    },
                    {
                        "internalType": "address",
                        "name": "takerToken",
                        "type": "address"
                    },
                    {
                        "internalType": "address",
                        "name": "makerToken",
                        "type": "address"
                    },
                    {
                        "internalType": "uint256[]",
                        "name": "makerTokenAmounts",
                        "type": "uint256[]"
                    }
                ],
                "name": "sampleBuysFromShell",
                "outputs": [
                    {
                        "internalType": "uint256[]",
                        "name": "takerTokenAmounts",
                        "type": "uint256[]"
                    }
                ],
                "stateMutability": "view",
                "type": "function"
            },
            {
                "inputs": [
                    {
                        "components": [
                            {
                                "internalType": "address",
                                "name": "poolAddress",
                                "type": "address"
                            },
                            {
                                "internalType": "bytes4",
                                "name": "sellQuoteFunctionSelector",
                                "type": "bytes4"
                            },
                            {
                                "internalType": "bytes4",
                                "name": "buyQuoteFunctionSelector",
                                "type": "bytes4"
                            }
                        ],
                        "internalType": "struct SmoothySampler.SmoothyInfo",
                        "name": "smoothyInfo",
                        "type": "tuple"
                    },
                    {
                        "internalType": "int128",
                        "name": "fromTokenIdx",
                        "type": "int128"
                    },
                    {
                        "internalType": "int128",
                        "name": "toTokenIdx",
                        "type": "int128"
                    },
                    {
                        "internalType": "uint256[]",
                        "name": "makerTokenAmounts",
                        "type": "uint256[]"
                    }
                ],
                "name": "sampleBuysFromSmoothy",
                "outputs": [
                    {
                        "internalType": "uint256[]",
                        "name": "takerTokenAmounts",
                        "type": "uint256[]"
                    }
                ],
                "stateMutability": "view",
                "type": "function"
            },
            {
                "inputs": [
                    {
                        "internalType": "address",
                        "name": "router",
                        "type": "address"
                    },
                    {
                        "internalType": "address",
                        "name": "takerToken",
                        "type": "address"
                    },
                    {
                        "internalType": "address",
                        "name": "makerToken",
                        "type": "address"
                    },
                    {
                        "internalType": "uint256[]",
                        "name": "makerTokenAmounts",
                        "type": "uint256[]"
                    }
                ],
                "name": "sampleBuysFromUniswap",
                "outputs": [
                    {
                        "internalType": "uint256[]",
                        "name": "takerTokenAmounts",
                        "type": "uint256[]"
                    }
                ],
                "stateMutability": "view",
                "type": "function"
            },
            {
                "inputs": [
                    {
                        "internalType": "address",
                        "name": "router",
                        "type": "address"
                    },
                    {
                        "internalType": "address[]",
                        "name": "path",
                        "type": "address[]"
                    },
                    {
                        "internalType": "uint256[]",
                        "name": "makerTokenAmounts",
                        "type": "uint256[]"
                    }
                ],
                "name": "sampleBuysFromUniswapV2",
                "outputs": [
                    {
                        "internalType": "uint256[]",
                        "name": "takerTokenAmounts",
                        "type": "uint256[]"
                    }
                ],
                "stateMutability": "view",
                "type": "function"
            },
            {
                "inputs": [
                    {
                        "internalType": "contract IUniswapV3QuoterV2",
                        "name": "quoter",
                        "type": "address"
                    },
                    {
                        "internalType": "contract IERC20TokenV06[]",
                        "name": "path",
                        "type": "address[]"
                    },
                    {
                        "internalType": "uint256[]",
                        "name": "makerTokenAmounts",
                        "type": "uint256[]"
                    }
                ],
                "name": "sampleBuysFromUniswapV3",
                "outputs": [
                    {
                        "internalType": "bytes[]",
                        "name": "uniswapPaths",
                        "type": "bytes[]"
                    },
                    {
                        "internalType": "uint256[]",
                        "name": "uniswapGasUsed",
                        "type": "uint256[]"
                    },
                    {
                        "internalType": "uint256[]",
                        "name": "takerTokenAmounts",
                        "type": "uint256[]"
                    }
                ],
                "stateMutability": "nonpayable",
                "type": "function"
            },
            {
                "inputs": [
                    {
                        "internalType": "contract IBalancerV2Vault",
                        "name": "vault",
                        "type": "address"
                    },
                    {
                        "components": [
                            {
                                "internalType": "bytes32",
                                "name": "poolId",
                                "type": "bytes32"
                            },
                            {
                                "internalType": "uint256",
                                "name": "assetInIndex",
                                "type": "uint256"
                            },
                            {
                                "internalType": "uint256",
                                "name": "assetOutIndex",
                                "type": "uint256"
                            },
                            {
                                "internalType": "uint256",
                                "name": "amount",
                                "type": "uint256"
                            },
                            {
                                "internalType": "bytes",
                                "name": "userData",
                                "type": "bytes"
                            }
                        ],
                        "internalType": "struct IBalancerV2Vault.BatchSwapStep[]",
                        "name": "swapSteps",
                        "type": "tuple[]"
                    },
                    {
                        "internalType": "address[]",
                        "name": "swapAssets",
                        "type": "address[]"
                    },
                    {
                        "internalType": "uint256[]",
                        "name": "makerTokenAmounts",
                        "type": "uint256[]"
                    }
                ],
                "name": "sampleMultihopBuysFromBalancerV2",
                "outputs": [
                    {
                        "internalType": "uint256[]",
                        "name": "takerTokenAmounts",
                        "type": "uint256[]"
                    }
                ],
                "stateMutability": "nonpayable",
                "type": "function"
            },
            {
                "inputs": [
                    {
                        "internalType": "contract IBalancerV2Vault",
                        "name": "vault",
                        "type": "address"
                    },
                    {
                        "components": [
                            {
                                "internalType": "bytes32",
                                "name": "poolId",
                                "type": "bytes32"
                            },
                            {
                                "internalType": "uint256",
                                "name": "assetInIndex",
                                "type": "uint256"
                            },
                            {
                                "internalType": "uint256",
                                "name": "assetOutIndex",
                                "type": "uint256"
                            },
                            {
                                "internalType": "uint256",
                                "name": "amount",
                                "type": "uint256"
                            },
                            {
                                "internalType": "bytes",
                                "name": "userData",
                                "type": "bytes"
                            }
                        ],
                        "internalType": "struct IBalancerV2Vault.BatchSwapStep[]",
                        "name": "swapSteps",
                        "type": "tuple[]"
                    },
                    {
                        "internalType": "address[]",
                        "name": "swapAssets",
                        "type": "address[]"
                    },
                    {
                        "internalType": "uint256[]",
                        "name": "takerTokenAmounts",
                        "type": "uint256[]"
                    }
                ],
                "name": "sampleMultihopSellsFromBalancerV2",
                "outputs": [
                    {
                        "internalType": "uint256[]",
                        "name": "makerTokenAmounts",
                        "type": "uint256[]"
                    }
                ],
                "stateMutability": "nonpayable",
                "type": "function"
            },
            {
                "inputs": [
                    {
                        "components": [
                            {
                                "internalType": "uint256",
                                "name": "reserveOffset",
                                "type": "uint256"
                            },
                            {
                                "internalType": "address",
                                "name": "hintHandler",
                                "type": "address"
                            },
                            {
                                "internalType": "address",
                                "name": "networkProxy",
                                "type": "address"
                            },
                            {
                                "internalType": "address",
                                "name": "weth",
                                "type": "address"
                            },
                            {
                                "internalType": "bytes",
                                "name": "hint",
                                "type": "bytes"
                            }
                        ],
                        "internalType": "struct KyberSampler.KyberSamplerOpts",
                        "name": "opts",
                        "type": "tuple"
                    },
                    {
                        "internalType": "address",
                        "name": "takerToken",
                        "type": "address"
                    },
                    {
                        "internalType": "address",
                        "name": "makerToken",
                        "type": "address"
                    },
                    {
                        "internalType": "uint256",
                        "name": "takerTokenAmount",
                        "type": "uint256"
                    }
                ],
                "name": "sampleSellFromKyberNetwork",
                "outputs": [
                    {
                        "internalType": "uint256",
                        "name": "makerTokenAmount",
                        "type": "uint256"
                    }
                ],
                "stateMutability": "view",
                "type": "function"
            },
            {
                "inputs": [
                    {
                        "internalType": "address",
                        "name": "poolAddress",
                        "type": "address"
                    },
                    {
                        "internalType": "address",
                        "name": "takerToken",
                        "type": "address"
                    },
                    {
                        "internalType": "address",
                        "name": "makerToken",
                        "type": "address"
                    },
                    {
                        "internalType": "uint256[]",
                        "name": "takerTokenAmounts",
                        "type": "uint256[]"
                    }
                ],
                "name": "sampleSellsFromBalancer",
                "outputs": [
                    {
                        "internalType": "uint256[]",
                        "name": "makerTokenAmounts",
                        "type": "uint256[]"
                    }
                ],
                "stateMutability": "view",
                "type": "function"
            },
            {
                "inputs": [
                    {
                        "components": [
                            {
                                "internalType": "bytes32",
                                "name": "poolId",
                                "type": "bytes32"
                            },
                            {
                                "internalType": "address",
                                "name": "vault",
                                "type": "address"
                            }
                        ],
                        "internalType": "struct IBalancerV2Vault.BalancerV2PoolInfo",
                        "name": "poolInfo",
                        "type": "tuple"
                    },
                    {
                        "internalType": "address",
                        "name": "takerToken",
                        "type": "address"
                    },
                    {
                        "internalType": "address",
                        "name": "makerToken",
                        "type": "address"
                    },
                    {
                        "internalType": "uint256[]",
                        "name": "takerTokenAmounts",
                        "type": "uint256[]"
                    }
                ],
                "name": "sampleSellsFromBalancerV2",
                "outputs": [
                    {
                        "internalType": "uint256[]",
                        "name": "makerTokenAmounts",
                        "type": "uint256[]"
                    }
                ],
                "stateMutability": "nonpayable",
                "type": "function"
            },
            {
                "inputs": [
                    {
                        "components": [
                            {
                                "internalType": "contract IBancorRegistry",
                                "name": "registry",
                                "type": "address"
                            },
                            {
                                "internalType": "address[][]",
                                "name": "paths",
                                "type": "address[][]"
                            }
                        ],
                        "internalType": "struct BancorSampler.BancorSamplerOpts",
                        "name": "opts",
                        "type": "tuple"
                    },
                    {
                        "internalType": "address",
                        "name": "takerToken",
                        "type": "address"
                    },
                    {
                        "internalType": "address",
                        "name": "makerToken",
                        "type": "address"
                    },
                    {
                        "internalType": "uint256[]",
                        "name": "takerTokenAmounts",
                        "type": "uint256[]"
                    }
                ],
                "name": "sampleSellsFromBancor",
                "outputs": [
                    {
                        "internalType": "address",
                        "name": "bancorNetwork",
                        "type": "address"
                    },
                    {
                        "internalType": "address[]",
                        "name": "path",
                        "type": "address[]"
                    },
                    {
                        "internalType": "uint256[]",
                        "name": "makerTokenAmounts",
                        "type": "uint256[]"
                    }
                ],
                "stateMutability": "view",
                "type": "function"
            },
            {
                "inputs": [
                    {
                        "internalType": "contract ICToken",
                        "name": "cToken",
                        "type": "address"
                    },
                    {
                        "internalType": "contract IERC20TokenV06",
                        "name": "takerToken",
                        "type": "address"
                    },
                    {
                        "internalType": "contract IERC20TokenV06",
                        "name": "makerToken",
                        "type": "address"
                    },
                    {
                        "internalType": "uint256[]",
                        "name": "takerTokenAmounts",
                        "type": "uint256[]"
                    }
                ],
                "name": "sampleSellsFromCompound",
                "outputs": [
                    {
                        "internalType": "uint256[]",
                        "name": "makerTokenAmounts",
                        "type": "uint256[]"
                    }
                ],
                "stateMutability": "view",
                "type": "function"
            },
            {
                "inputs": [
                    {
                        "components": [
                            {
                                "internalType": "address",
                                "name": "poolAddress",
                                "type": "address"
                            },
                            {
                                "internalType": "bytes4",
                                "name": "sellQuoteFunctionSelector",
                                "type": "bytes4"
                            },
                            {
                                "internalType": "bytes4",
                                "name": "buyQuoteFunctionSelector",
                                "type": "bytes4"
                            }
                        ],
                        "internalType": "struct CurveSampler.CurveInfo",
                        "name": "curveInfo",
                        "type": "tuple"
                    },
                    {
                        "internalType": "int128",
                        "name": "fromTokenIdx",
                        "type": "int128"
                    },
                    {
                        "internalType": "int128",
                        "name": "toTokenIdx",
                        "type": "int128"
                    },
                    {
                        "internalType": "uint256[]",
                        "name": "takerTokenAmounts",
                        "type": "uint256[]"
                    }
                ],
                "name": "sampleSellsFromCurve",
                "outputs": [
                    {
                        "internalType": "uint256[]",
                        "name": "makerTokenAmounts",
                        "type": "uint256[]"
                    }
                ],
                "stateMutability": "view",
                "type": "function"
            },
            {
                "inputs": [
                    {
                        "components": [
                            {
                                "internalType": "address",
                                "name": "registry",
                                "type": "address"
                            },
                            {
                                "internalType": "address",
                                "name": "helper",
                                "type": "address"
                            }
                        ],
                        "internalType": "struct DODOSampler.DODOSamplerOpts",
                        "name": "opts",
                        "type": "tuple"
                    },
                    {
                        "internalType": "address",
                        "name": "takerToken",
                        "type": "address"
                    },
                    {
                        "internalType": "address",
                        "name": "makerToken",
                        "type": "address"
                    },
                    {
                        "internalType": "uint256[]",
                        "name": "takerTokenAmounts",
                        "type": "uint256[]"
                    }
                ],
                "name": "sampleSellsFromDODO",
                "outputs": [
                    {
                        "internalType": "bool",
                        "name": "sellBase",
                        "type": "bool"
                    },
                    {
                        "internalType": "address",
                        "name": "pool",
                        "type": "address"
                    },
                    {
                        "internalType": "uint256[]",
                        "name": "makerTokenAmounts",
                        "type": "uint256[]"
                    }
                ],
                "stateMutability": "view",
                "type": "function"
            },
            {
                "inputs": [
                    {
                        "internalType": "address",
                        "name": "registry",
                        "type": "address"
                    },
                    {
                        "internalType": "uint256",
                        "name": "offset",
                        "type": "uint256"
                    },
                    {
                        "internalType": "address",
                        "name": "takerToken",
                        "type": "address"
                    },
                    {
                        "internalType": "address",
                        "name": "makerToken",
                        "type": "address"
                    },
                    {
                        "internalType": "uint256[]",
                        "name": "takerTokenAmounts",
                        "type": "uint256[]"
                    }
                ],
                "name": "sampleSellsFromDODOV2",
                "outputs": [
                    {
                        "internalType": "bool",
                        "name": "sellBase",
                        "type": "bool"
                    },
                    {
                        "internalType": "address",
                        "name": "pool",
                        "type": "address"
                    },
                    {
                        "internalType": "uint256[]",
                        "name": "makerTokenAmounts",
                        "type": "uint256[]"
                    }
                ],
                "stateMutability": "view",
                "type": "function"
            },
            {
                "inputs": [
                    {
                        "internalType": "address",
                        "name": "reader",
                        "type": "address"
                    },
                    {
                        "internalType": "address",
                        "name": "vault",
                        "type": "address"
                    },
                    {
                        "internalType": "address[]",
                        "name": "path",
                        "type": "address[]"
                    },
                    {
                        "internalType": "uint256[]",
                        "name": "takerTokenAmounts",
                        "type": "uint256[]"
                    }
                ],
                "name": "sampleSellsFromGMX",
                "outputs": [
                    {
                        "internalType": "uint256[]",
                        "name": "makerTokenAmounts",
                        "type": "uint256[]"
                    }
                ],
                "stateMutability": "view",
                "type": "function"
            },
            {
                "inputs": [
                    {
                        "internalType": "address",
                        "name": "router",
                        "type": "address"
                    },
                    {
                        "internalType": "address[]",
                        "name": "path",
                        "type": "address[]"
                    },
                    {
                        "internalType": "uint256[]",
                        "name": "takerTokenAmounts",
                        "type": "uint256[]"
                    }
                ],
                "name": "sampleSellsFromKyberDmm",
                "outputs": [
                    {
                        "internalType": "address[]",
                        "name": "pools",
                        "type": "address[]"
                    },
                    {
                        "internalType": "uint256[]",
                        "name": "makerTokenAmounts",
                        "type": "uint256[]"
                    }
                ],
                "stateMutability": "view",
                "type": "function"
            },
            {
                "inputs": [
                    {
                        "components": [
                            {
                                "internalType": "uint256",
                                "name": "reserveOffset",
                                "type": "uint256"
                            },
                            {
                                "internalType": "address",
                                "name": "hintHandler",
                                "type": "address"
                            },
                            {
                                "internalType": "address",
                                "name": "networkProxy",
                                "type": "address"
                            },
                            {
                                "internalType": "address",
                                "name": "weth",
                                "type": "address"
                            },
                            {
                                "internalType": "bytes",
                                "name": "hint",
                                "type": "bytes"
                            }
                        ],
                        "internalType": "struct KyberSampler.KyberSamplerOpts",
                        "name": "opts",
                        "type": "tuple"
                    },
                    {
                        "internalType": "address",
                        "name": "takerToken",
                        "type": "address"
                    },
                    {
                        "internalType": "address",
                        "name": "makerToken",
                        "type": "address"
                    },
                    {
                        "internalType": "uint256[]",
                        "name": "takerTokenAmounts",
                        "type": "uint256[]"
                    }
                ],
                "name": "sampleSellsFromKyberNetwork",
                "outputs": [
                    {
                        "internalType": "bytes32",
                        "name": "reserveId",
                        "type": "bytes32"
                    },
                    {
                        "internalType": "bytes",
                        "name": "hint",
                        "type": "bytes"
                    },
                    {
                        "internalType": "uint256[]",
                        "name": "makerTokenAmounts",
                        "type": "uint256[]"
                    }
                ],
                "stateMutability": "view",
                "type": "function"
            },
            {
                "inputs": [
                    {
                        "components": [
                            {
                                "internalType": "address",
                                "name": "stEthToken",
                                "type": "address"
                            },
                            {
                                "internalType": "address",
                                "name": "wethToken",
                                "type": "address"
                            }
                        ],
                        "internalType": "struct LidoSampler.LidoInfo",
                        "name": "lidoInfo",
                        "type": "tuple"
                    },
                    {
                        "internalType": "address",
                        "name": "takerToken",
                        "type": "address"
                    },
                    {
                        "internalType": "address",
                        "name": "makerToken",
                        "type": "address"
                    },
                    {
                        "internalType": "uint256[]",
                        "name": "takerTokenAmounts",
                        "type": "uint256[]"
                    }
                ],
                "name": "sampleSellsFromLido",
                "outputs": [
                    {
                        "internalType": "uint256[]",
                        "name": "",
                        "type": "uint256[]"
                    }
                ],
                "stateMutability": "pure",
                "type": "function"
            },
            {
                "inputs": [
                    {
                        "internalType": "address",
                        "name": "providerAddress",
                        "type": "address"
                    },
                    {
                        "internalType": "address",
                        "name": "takerToken",
                        "type": "address"
                    },
                    {
                        "internalType": "address",
                        "name": "makerToken",
                        "type": "address"
                    },
                    {
                        "internalType": "uint256[]",
                        "name": "takerTokenAmounts",
                        "type": "uint256[]"
                    }
                ],
                "name": "sampleSellsFromLiquidityProvider",
                "outputs": [
                    {
                        "internalType": "uint256[]",
                        "name": "makerTokenAmounts",
                        "type": "uint256[]"
                    }
                ],
                "stateMutability": "view",
                "type": "function"
            },
            {
                "inputs": [
                    {
                        "internalType": "address",
                        "name": "router",
                        "type": "address"
                    },
                    {
                        "internalType": "address",
                        "name": "takerToken",
                        "type": "address"
                    },
                    {
                        "internalType": "address",
                        "name": "makerToken",
                        "type": "address"
                    },
                    {
                        "internalType": "uint256[]",
                        "name": "takerTokenAmounts",
                        "type": "uint256[]"
                    }
                ],
                "name": "sampleSellsFromMStable",
                "outputs": [
                    {
                        "internalType": "uint256[]",
                        "name": "makerTokenAmounts",
                        "type": "uint256[]"
                    }
                ],
                "stateMutability": "view",
                "type": "function"
            },
            {
                "inputs": [
                    {
                        "components": [
                            {
                                "internalType": "address",
                                "name": "psmAddress",
                                "type": "address"
                            },
                            {
                                "internalType": "bytes32",
                                "name": "ilkIdentifier",
                                "type": "bytes32"
                            },
                            {
                                "internalType": "address",
                                "name": "gemTokenAddress",
                                "type": "address"
                            }
                        ],
                        "internalType": "struct MakerPSMSampler.MakerPsmInfo",
                        "name": "psmInfo",
                        "type": "tuple"
                    },
                    {
                        "internalType": "address",
                        "name": "takerToken",
                        "type": "address"
                    },
                    {
                        "internalType": "address",
                        "name": "makerToken",
                        "type": "address"
                    },
                    {
                        "internalType": "uint256[]",
                        "name": "takerTokenAmounts",
                        "type": "uint256[]"
                    }
                ],
                "name": "sampleSellsFromMakerPsm",
                "outputs": [
                    {
                        "internalType": "uint256[]",
                        "name": "makerTokenAmounts",
                        "type": "uint256[]"
                    }
                ],
                "stateMutability": "view",
                "type": "function"
            },
            {
                "inputs": [
                    {
                        "internalType": "address",
                        "name": "registry",
                        "type": "address"
                    },
                    {
                        "internalType": "address",
                        "name": "takerToken",
                        "type": "address"
                    },
                    {
                        "internalType": "address",
                        "name": "makerToken",
                        "type": "address"
                    },
                    {
                        "internalType": "uint256[]",
                        "name": "takerTokenAmounts",
                        "type": "uint256[]"
                    }
                ],
                "name": "sampleSellsFromMooniswap",
                "outputs": [
                    {
                        "internalType": "contract IMooniswap",
                        "name": "pool",
                        "type": "address"
                    },
                    {
                        "internalType": "uint256[]",
                        "name": "makerTokenAmounts",
                        "type": "uint256[]"
                    }
                ],
                "stateMutability": "view",
                "type": "function"
            },
            {
                "inputs": [
                    {
                        "internalType": "address",
                        "name": "pool",
                        "type": "address"
                    },
                    {
                        "internalType": "address[]",
                        "name": "path",
                        "type": "address[]"
                    },
                    {
                        "internalType": "uint256[]",
                        "name": "takerTokenAmounts",
                        "type": "uint256[]"
                    }
                ],
                "name": "sampleSellsFromPlatypus",
                "outputs": [
                    {
                        "internalType": "uint256[]",
                        "name": "makerTokenAmounts",
                        "type": "uint256[]"
                    }
                ],
                "stateMutability": "view",
                "type": "function"
            },
            {
                "inputs": [
                    {
                        "internalType": "address",
                        "name": "pool",
                        "type": "address"
                    },
                    {
                        "internalType": "address",
                        "name": "takerToken",
                        "type": "address"
                    },
                    {
                        "internalType": "address",
                        "name": "makerToken",
                        "type": "address"
                    },
                    {
                        "internalType": "uint256[]",
                        "name": "takerTokenAmounts",
                        "type": "uint256[]"
                    }
                ],
                "name": "sampleSellsFromShell",
                "outputs": [
                    {
                        "internalType": "uint256[]",
                        "name": "makerTokenAmounts",
                        "type": "uint256[]"
                    }
                ],
                "stateMutability": "view",
                "type": "function"
            },
            {
                "inputs": [
                    {
                        "components": [
                            {
                                "internalType": "address",
                                "name": "poolAddress",
                                "type": "address"
                            },
                            {
                                "internalType": "bytes4",
                                "name": "sellQuoteFunctionSelector",
                                "type": "bytes4"
                            },
                            {
                                "internalType": "bytes4",
                                "name": "buyQuoteFunctionSelector",
                                "type": "bytes4"
                            }
                        ],
                        "internalType": "struct SmoothySampler.SmoothyInfo",
                        "name": "smoothyInfo",
                        "type": "tuple"
                    },
                    {
                        "internalType": "int128",
                        "name": "fromTokenIdx",
                        "type": "int128"
                    },
                    {
                        "internalType": "int128",
                        "name": "toTokenIdx",
                        "type": "int128"
                    },
                    {
                        "internalType": "uint256[]",
                        "name": "takerTokenAmounts",
                        "type": "uint256[]"
                    }
                ],
                "name": "sampleSellsFromSmoothy",
                "outputs": [
                    {
                        "internalType": "uint256[]",
                        "name": "makerTokenAmounts",
                        "type": "uint256[]"
                    }
                ],
                "stateMutability": "view",
                "type": "function"
            },
            {
                "inputs": [
                    {
                        "internalType": "address",
                        "name": "router",
                        "type": "address"
                    },
                    {
                        "internalType": "address",
                        "name": "takerToken",
                        "type": "address"
                    },
                    {
                        "internalType": "address",
                        "name": "makerToken",
                        "type": "address"
                    },
                    {
                        "internalType": "uint256[]",
                        "name": "takerTokenAmounts",
                        "type": "uint256[]"
                    }
                ],
                "name": "sampleSellsFromUniswap",
                "outputs": [
                    {
                        "internalType": "uint256[]",
                        "name": "makerTokenAmounts",
                        "type": "uint256[]"
                    }
                ],
                "stateMutability": "view",
                "type": "function"
            },
            {
                "inputs": [
                    {
                        "internalType": "address",
                        "name": "router",
                        "type": "address"
                    },
                    {
                        "internalType": "address[]",
                        "name": "path",
                        "type": "address[]"
                    },
                    {
                        "internalType": "uint256[]",
                        "name": "takerTokenAmounts",
                        "type": "uint256[]"
                    }
                ],
                "name": "sampleSellsFromUniswapV2",
                "outputs": [
                    {
                        "internalType": "uint256[]",
                        "name": "makerTokenAmounts",
                        "type": "uint256[]"
                    }
                ],
                "stateMutability": "view",
                "type": "function"
            },
            {
                "inputs": [
                    {
                        "internalType": "contract IUniswapV3QuoterV2",
                        "name": "quoter",
                        "type": "address"
                    },
                    {
                        "internalType": "contract IERC20TokenV06[]",
                        "name": "path",
                        "type": "address[]"
                    },
                    {
                        "internalType": "uint256[]",
                        "name": "takerTokenAmounts",
                        "type": "uint256[]"
                    }
                ],
                "name": "sampleSellsFromUniswapV3",
                "outputs": [
                    {
                        "internalType": "bytes[]",
                        "name": "uniswapPaths",
                        "type": "bytes[]"
                    },
                    {
                        "internalType": "uint256[]",
                        "name": "uniswapGasUsed",
                        "type": "uint256[]"
                    },
                    {
                        "internalType": "uint256[]",
                        "name": "makerTokenAmounts",
                        "type": "uint256[]"
                    }
                ],
                "stateMutability": "nonpayable",
                "type": "function"
            },
            {
                "inputs": [
                    {
                        "internalType": "address",
                        "name": "registry",
                        "type": "address"
                    },
                    {
                        "internalType": "address",
                        "name": "mooniswapTakerToken",
                        "type": "address"
                    },
                    {
                        "internalType": "address",
                        "name": "mooniswapMakerToken",
                        "type": "address"
                    },
                    {
                        "internalType": "uint256",
                        "name": "takerTokenAmount",
                        "type": "uint256"
                    }
                ],
                "name": "sampleSingleSellFromMooniswapPool",
                "outputs": [
                    {
                        "internalType": "uint256",
                        "name": "",
                        "type": "uint256"
                    }
                ],
                "stateMutability": "view",
                "type": "function"
            },
            {
                "inputs": [
                    {
                        "internalType": "bytes[]",
                        "name": "firstHopCalls",
                        "type": "bytes[]"
                    },
                    {
                        "internalType": "bytes[]",
                        "name": "secondHopCalls",
                        "type": "bytes[]"
                    },
                    {
                        "internalType": "uint256",
                        "name": "buyAmount",
                        "type": "uint256"
                    }
                ],
                "name": "sampleTwoHopBuy",
                "outputs": [
                    {
                        "components": [
                            {
                                "internalType": "uint256",
                                "name": "sourceIndex",
                                "type": "uint256"
                            },
                            {
                                "internalType": "bytes",
                                "name": "returnData",
                                "type": "bytes"
                            }
                        ],
                        "internalType": "struct TwoHopSampler.HopInfo",
                        "name": "firstHop",
                        "type": "tuple"
                    },
                    {
                        "components": [
                            {
                                "internalType": "uint256",
                                "name": "sourceIndex",
                                "type": "uint256"
                            },
                            {
                                "internalType": "bytes",
                                "name": "returnData",
                                "type": "bytes"
                            }
                        ],
                        "internalType": "struct TwoHopSampler.HopInfo",
                        "name": "secondHop",
                        "type": "tuple"
                    },
                    {
                        "internalType": "uint256",
                        "name": "sellAmount",
                        "type": "uint256"
                    }
                ],
                "stateMutability": "nonpayable",
                "type": "function"
            },
            {
                "inputs": [
                    {
                        "internalType": "bytes[]",
                        "name": "firstHopCalls",
                        "type": "bytes[]"
                    },
                    {
                        "internalType": "bytes[]",
                        "name": "secondHopCalls",
                        "type": "bytes[]"
                    },
                    {
                        "internalType": "uint256",
                        "name": "sellAmount",
                        "type": "uint256"
                    }
                ],
                "name": "sampleTwoHopSell",
                "outputs": [
                    {
                        "components": [
                            {
                                "internalType": "uint256",
                                "name": "sourceIndex",
                                "type": "uint256"
                            },
                            {
                                "internalType": "bytes",
                                "name": "returnData",
                                "type": "bytes"
                            }
                        ],
                        "internalType": "struct TwoHopSampler.HopInfo",
                        "name": "firstHop",
                        "type": "tuple"
                    },
                    {
                        "components": [
                            {
                                "internalType": "uint256",
                                "name": "sourceIndex",
                                "type": "uint256"
                            },
                            {
                                "internalType": "bytes",
                                "name": "returnData",
                                "type": "bytes"
                            }
                        ],
                        "internalType": "struct TwoHopSampler.HopInfo",
                        "name": "secondHop",
                        "type": "tuple"
                    },
                    {
                        "internalType": "uint256",
                        "name": "buyAmount",
                        "type": "uint256"
                    }
                ],
                "stateMutability": "nonpayable",
                "type": "function"
            }
        ],
        "devdoc": {
            "kind": "dev",
            "methods": {
                "batchCall(bytes[])": {
                    "details": "Call multiple public functions on this contract in a single transaction.",
                    "params": {
                        "callDatas": "ABI-encoded call data for each function call."
                    },
                    "returns": {
                        "callResults": "ABI-encoded results data for each call."
                    }
                },
                "getLimitOrderFillableMakerAssetAmounts((address,address,uint128,uint128,uint128,address,address,address,address,bytes32,uint64,uint256)[],(uint8,uint8,bytes32,bytes32)[],address)": {
                    "details": "Queries the fillable taker asset amounts of native orders.      Effectively ignores orders that have empty signatures or",
                    "params": {
                        "exchange": "The V4 exchange.",
                        "orderSignatures": "Signatures for each respective order in `orders`.",
                        "orders": "Native orders to query."
                    },
                    "returns": {
                        "orderFillableMakerAssetAmounts": "How much maker asset can be filled         by each order in `orders`."
                    }
                },
                "getLimitOrderFillableTakerAmount((address,address,uint128,uint128,uint128,address,address,address,address,bytes32,uint64,uint256),(uint8,uint8,bytes32,bytes32),address)": {
                    "details": "Get the fillable taker amount of an order, taking into account      order state, maker fees, and maker balances."
                },
                "getLimitOrderFillableTakerAssetAmounts((address,address,uint128,uint128,uint128,address,address,address,address,bytes32,uint64,uint256)[],(uint8,uint8,bytes32,bytes32)[],address)": {
                    "details": "Queries the fillable taker asset amounts of native orders.      Effectively ignores orders that have empty signatures or      maker/taker asset amounts (returning 0).",
                    "params": {
                        "exchange": "The V4 exchange.",
                        "orderSignatures": "Signatures for each respective order in `orders`.",
                        "orders": "Native limit orders to query."
                    },
                    "returns": {
                        "orderFillableTakerAssetAmounts": "How much taker asset can be filled         by each order in `orders`."
                    }
                },
                "sampleBuysFromBalancer(address,address,address,uint256[])": {
                    "details": "Sample buy quotes from Balancer.",
                    "params": {
                        "makerToken": "Address of the maker token (what to buy).",
                        "makerTokenAmounts": "Maker token buy amount for each sample.",
                        "poolAddress": "Address of the Balancer pool to query.",
                        "takerToken": "Address of the taker token (what to sell)."
                    },
                    "returns": {
                        "takerTokenAmounts": "Taker amounts sold at each maker token         amount."
                    }
                },
                "sampleBuysFromBalancerV2((bytes32,address),address,address,uint256[])": {
                    "details": "Sample buy quotes from Balancer V2.",
                    "params": {
                        "makerToken": "Address of the maker token (what to buy).",
                        "makerTokenAmounts": "Maker token buy amount for each sample.",
                        "poolInfo": "Struct with pool related data",
                        "takerToken": "Address of the taker token (what to sell)."
                    },
                    "returns": {
                        "takerTokenAmounts": "Taker amounts sold at each maker token         amount."
                    }
                },
                "sampleBuysFromBancor((address,address[][]),address,address,uint256[])": {
                    "details": "Sample buy quotes from Bancor. Unimplemented",
                    "params": {
                        "makerToken": "Address of the maker token (what to buy).",
                        "makerTokenAmounts": "Maker token buy amount for each sample.",
                        "opts": "BancorSamplerOpts The Bancor registry contract address and paths",
                        "takerToken": "Address of the taker token (what to sell)."
                    },
                    "returns": {
                        "bancorNetwork": "the Bancor Network address",
                        "path": "the selected conversion path from bancor",
                        "takerTokenAmounts": "Taker amounts sold at each maker token         amount."
                    }
                },
                "sampleBuysFromCurve((address,bytes4,bytes4),int128,int128,uint256[])": {
                    "details": "Sample buy quotes from Curve.",
                    "params": {
                        "curveInfo": "Curve information specific to this token pair.",
                        "fromTokenIdx": "Index of the taker token (what to sell).",
                        "makerTokenAmounts": "Maker token buy amount for each sample.",
                        "toTokenIdx": "Index of the maker token (what to buy)."
                    },
                    "returns": {
                        "takerTokenAmounts": "Taker amounts sold at each maker token         amount."
                    }
                },
                "sampleBuysFromDODO((address,address),address,address,uint256[])": {
                    "details": "Sample buy quotes from DODO.",
                    "params": {
                        "makerToken": "Address of the maker token (what to buy).",
                        "makerTokenAmounts": "Maker token sell amount for each sample.",
                        "opts": "DODOSamplerOpts DODO Registry and helper addresses",
                        "takerToken": "Address of the taker token (what to sell)."
                    },
                    "returns": {
                        "pool": "the DODO pool address",
                        "sellBase": "whether the bridge needs to sell the base token",
                        "takerTokenAmounts": "Taker amounts sold at each maker token         amount."
                    }
                },
                "sampleBuysFromDODOV2(address,uint256,address,address,uint256[])": {
                    "details": "Sample buy quotes from DODO.",
                    "params": {
                        "makerToken": "Address of the maker token (what to buy).",
                        "makerTokenAmounts": "Maker token sell amount for each sample.",
                        "offset": "offset index for the pool in the registry.",
                        "registry": "Address of the registry to look up.",
                        "takerToken": "Address of the taker token (what to sell)."
                    },
                    "returns": {
                        "pool": "the DODO pool address",
                        "sellBase": "whether the bridge needs to sell the base token",
                        "takerTokenAmounts": "Taker amounts sold at each maker token         amount."
                    }
                },
                "sampleBuysFromKyberDmm(address,address[],uint256[])": {
                    "details": "Sample buy quotes from KyberDmm.",
                    "params": {
                        "makerTokenAmounts": "Maker token buy amount for each sample.",
                        "path": "Token route. Should be takerToken -> makerToken.",
                        "router": "Router to look up tokens and amounts"
                    },
                    "returns": {
                        "pools": "The pool addresses involved in the multi path trade",
                        "takerTokenAmounts": "Taker amounts sold at each maker token         amount."
                    }
                },
                "sampleBuysFromKyberNetwork((uint256,address,address,address,bytes),address,address,uint256[])": {
                    "details": "Sample buy quotes from Kyber.",
                    "params": {
                        "makerToken": "Address of the maker token (what to buy).",
                        "makerTokenAmounts": "Maker token buy amount for each sample.",
                        "opts": "KyberSamplerOpts The nth reserve",
                        "takerToken": "Address of the taker token (what to sell)."
                    },
                    "returns": {
                        "hint": "The hint for the selected reserve",
                        "reserveId": "The id of the reserve found at reserveOffset",
                        "takerTokenAmounts": "Taker amounts sold at each maker token amount."
                    }
                },
                "sampleBuysFromLido((address,address),address,address,uint256[])": {
                    "details": "Sample buy quotes from Lido.",
                    "params": {
                        "lidoInfo": "Info regarding a specific Lido deployment",
                        "makerToken": "Address of the maker token (what to buy).",
                        "makerTokenAmounts": "Maker token buy amount for each sample.",
                        "takerToken": "Address of the taker token (what to sell)."
                    },
                    "returns": {
                        "_0": "takerTokenAmounts Taker amounts sold at each maker token         amount."
                    }
                },
                "sampleBuysFromLiquidityProvider(address,address,address,uint256[])": {
                    "details": "Sample buy quotes from an arbitrary on-chain liquidity provider.",
                    "params": {
                        "makerToken": "Address of the maker token (what to buy).",
                        "makerTokenAmounts": "Maker token buy amount for each sample.",
                        "providerAddress": "Address of the liquidity provider.",
                        "takerToken": "Address of the taker token (what to sell)."
                    },
                    "returns": {
                        "takerTokenAmounts": "Taker amounts sold at each maker token         amount."
                    }
                },
                "sampleBuysFromMStable(address,address,address,uint256[])": {
                    "details": "Sample buy quotes from MStable contract",
                    "params": {
                        "makerToken": "Address of the maker token (what to buy).",
                        "makerTokenAmounts": "Maker token buy amount for each sample.",
                        "router": "Address of the mStable contract",
                        "takerToken": "Address of the taker token (what to sell)."
                    },
                    "returns": {
                        "takerTokenAmounts": "Taker amounts sold at each maker token         amount."
                    }
                },
                "sampleBuysFromMooniswap(address,address,address,uint256[])": {
                    "details": "Sample buy quotes from Mooniswap.",
                    "params": {
                        "makerToken": "Address of the maker token (what to buy).",
                        "makerTokenAmounts": "Maker token sell amount for each sample.",
                        "registry": "Address of the Mooniswap Registry.",
                        "takerToken": "Address of the taker token (what to sell)."
                    },
                    "returns": {
                        "pool": "The contract address for the pool",
                        "takerTokenAmounts": "Taker amounts sold at each maker token         amount."
                    }
                },
                "sampleBuysFromShell(address,address,address,uint256[])": {
                    "details": "Sample buy quotes from Shell pool contract",
                    "params": {
                        "makerToken": "Address of the maker token (what to buy).",
                        "makerTokenAmounts": "Maker token buy amount for each sample.",
                        "pool": "Address of the Shell pool contract",
                        "takerToken": "Address of the taker token (what to sell)."
                    },
                    "returns": {
                        "takerTokenAmounts": "Taker amounts sold at each maker token         amount."
                    }
                },
                "sampleBuysFromSmoothy((address,bytes4,bytes4),int128,int128,uint256[])": {
                    "details": "Sample buy quotes from Smoothy.",
                    "params": {
                        "fromTokenIdx": "Index of the taker token (what to sell).",
                        "makerTokenAmounts": "Maker token buy amount for each sample.",
                        "smoothyInfo": "Smoothy information specific to this token pair.",
                        "toTokenIdx": "Index of the maker token (what to buy)."
                    },
                    "returns": {
                        "takerTokenAmounts": "Taker amounts sold at each maker token         amount."
                    }
                },
                "sampleBuysFromUniswap(address,address,address,uint256[])": {
                    "details": "Sample buy quotes from Uniswap.",
                    "params": {
                        "makerToken": "Address of the maker token (what to buy).",
                        "makerTokenAmounts": "Maker token sell amount for each sample.",
                        "takerToken": "Address of the taker token (what to sell)."
                    },
                    "returns": {
                        "takerTokenAmounts": "Taker amounts sold at each maker token         amount."
                    }
                },
                "sampleBuysFromUniswapV2(address,address[],uint256[])": {
                    "details": "Sample buy quotes from UniswapV2.",
                    "params": {
                        "makerTokenAmounts": "Maker token buy amount for each sample.",
                        "path": "Token route. Should be takerToken -> makerToken.",
                        "router": "Router to look up tokens and amounts"
                    },
                    "returns": {
                        "takerTokenAmounts": "Taker amounts sold at each maker token         amount."
                    }
                },
                "sampleBuysFromUniswapV3(address,address[],uint256[])": {
                    "details": "Sample buy quotes from UniswapV3.",
                    "params": {
                        "makerTokenAmounts": "Maker token buy amount for each sample.",
                        "path": "Token route. Should be takerToken -> makerToken.",
                        "quoter": "UniswapV3 Quoter contract."
                    },
                    "returns": {
                        "takerTokenAmounts": "Taker amounts sold at each maker token         amount.",
                        "uniswapGasUsed": "Estimated amount of gas used",
                        "uniswapPaths": "The encoded uniswap path for each sample."
                    }
                },
                "sampleMultihopBuysFromBalancerV2(address,(bytes32,uint256,uint256,uint256,bytes)[],address[],uint256[])": {
                    "details": "Sample buy quotes from Balancer V2 supporting multihops.",
                    "params": {
                        "makerTokenAmounts": "Maker token buy amount for each sample.",
                        "swapAssets": "Array of token address for swaps.",
                        "swapSteps": "Array of swap steps (can be >= 1)."
                    }
                },
                "sampleMultihopSellsFromBalancerV2(address,(bytes32,uint256,uint256,uint256,bytes)[],address[],uint256[])": {
                    "details": "Sample sell quotes from Balancer V2 supporting multihops.",
                    "params": {
                        "swapAssets": "Array of token address for swaps.",
                        "swapSteps": "Array of swap steps (can be >= 1).",
                        "takerTokenAmounts": "Taker token sell amount for each sample."
                    }
                },
                "sampleSellsFromBalancer(address,address,address,uint256[])": {
                    "details": "Sample sell quotes from Balancer.",
                    "params": {
                        "makerToken": "Address of the maker token (what to buy).",
                        "poolAddress": "Address of the Balancer pool to query.",
                        "takerToken": "Address of the taker token (what to sell).",
                        "takerTokenAmounts": "Taker token sell amount for each sample."
                    },
                    "returns": {
                        "makerTokenAmounts": "Maker amounts bought at each taker token         amount."
                    }
                },
                "sampleSellsFromBalancerV2((bytes32,address),address,address,uint256[])": {
                    "details": "Sample sell quotes from Balancer V2.",
                    "params": {
                        "makerToken": "Address of the maker token (what to buy).",
                        "poolInfo": "Struct with pool related data",
                        "takerToken": "Address of the taker token (what to sell).",
                        "takerTokenAmounts": "Taker token sell amount for each sample."
                    },
                    "returns": {
                        "makerTokenAmounts": "Maker amounts bought at each taker token         amount."
                    }
                },
                "sampleSellsFromBancor((address,address[][]),address,address,uint256[])": {
                    "details": "Sample sell quotes from Bancor.",
                    "params": {
                        "makerToken": "Address of the maker token (what to buy).",
                        "opts": "BancorSamplerOpts The Bancor registry contract address and paths",
                        "takerToken": "Address of the taker token (what to sell).",
                        "takerTokenAmounts": "Taker token sell amount for each sample."
                    },
                    "returns": {
                        "bancorNetwork": "the Bancor Network address",
                        "makerTokenAmounts": "Maker amounts bought at each taker token         amount.",
                        "path": "the selected conversion path from bancor"
                    }
                },
                "sampleSellsFromCurve((address,bytes4,bytes4),int128,int128,uint256[])": {
                    "details": "Sample sell quotes from Curve.",
                    "params": {
                        "curveInfo": "Curve information specific to this token pair.",
                        "fromTokenIdx": "Index of the taker token (what to sell).",
                        "takerTokenAmounts": "Taker token sell amount for each sample.",
                        "toTokenIdx": "Index of the maker token (what to buy)."
                    },
                    "returns": {
                        "makerTokenAmounts": "Maker amounts bought at each taker token         amount."
                    }
                },
                "sampleSellsFromDODO((address,address),address,address,uint256[])": {
                    "details": "Sample sell quotes from DODO.",
                    "params": {
                        "makerToken": "Address of the maker token (what to buy).",
                        "opts": "DODOSamplerOpts DODO Registry and helper addresses",
                        "takerToken": "Address of the taker token (what to sell).",
                        "takerTokenAmounts": "Taker token sell amount for each sample."
                    },
                    "returns": {
                        "makerTokenAmounts": "Maker amounts bought at each taker token         amount.",
                        "pool": "the DODO pool address",
                        "sellBase": "whether the bridge needs to sell the base token"
                    }
                },
                "sampleSellsFromDODOV2(address,uint256,address,address,uint256[])": {
                    "details": "Sample sell quotes from DODO V2.",
                    "params": {
                        "makerToken": "Address of the maker token (what to buy).",
                        "offset": "offset index for the pool in the registry.",
                        "registry": "Address of the registry to look up.",
                        "takerToken": "Address of the taker token (what to sell).",
                        "takerTokenAmounts": "Taker token sell amount for each sample."
                    },
                    "returns": {
                        "makerTokenAmounts": "Maker amounts bought at each taker token         amount.",
                        "pool": "the DODO pool address",
                        "sellBase": "whether the bridge needs to sell the base token"
                    }
                },
                "sampleSellsFromKyberDmm(address,address[],uint256[])": {
                    "details": "Sample sell quotes from KyberDmm.",
                    "params": {
                        "path": "Token route. Should be takerToken -> makerToken",
                        "router": "Router to look up tokens and amounts",
                        "takerTokenAmounts": "Taker token sell amount for each sample."
                    },
                    "returns": {
                        "makerTokenAmounts": "Maker amounts bought at each taker token         amount.",
                        "pools": "The pool addresses involved in the multi path trade"
                    }
                },
                "sampleSellsFromKyberNetwork((uint256,address,address,address,bytes),address,address,uint256[])": {
                    "details": "Sample sell quotes from Kyber.",
                    "params": {
                        "makerToken": "Address of the maker token (what to buy).",
                        "opts": "KyberSamplerOpts The nth reserve",
                        "takerToken": "Address of the taker token (what to sell).",
                        "takerTokenAmounts": "Taker token sell amount for each sample."
                    },
                    "returns": {
                        "hint": "The hint for the selected reserve",
                        "makerTokenAmounts": "Maker amounts bought at each taker token amount.",
                        "reserveId": "The id of the reserve found at reserveOffset"
                    }
                },
                "sampleSellsFromLido((address,address),address,address,uint256[])": {
                    "details": "Sample sell quotes from Lido",
                    "params": {
                        "lidoInfo": "Info regarding a specific Lido deployment",
                        "makerToken": "Address of the maker token (what to buy).",
                        "takerToken": "Address of the taker token (what to sell).",
                        "takerTokenAmounts": "Taker token sell amount for each sample."
                    },
                    "returns": {
                        "_0": "makerTokenAmounts Maker amounts bought at each taker token         amount."
                    }
                },
                "sampleSellsFromLiquidityProvider(address,address,address,uint256[])": {
                    "details": "Sample sell quotes from an arbitrary on-chain liquidity provider.",
                    "params": {
                        "makerToken": "Address of the maker token (what to buy).",
                        "providerAddress": "Address of the liquidity provider.",
                        "takerToken": "Address of the taker token (what to sell).",
                        "takerTokenAmounts": "Taker token sell amount for each sample."
                    },
                    "returns": {
                        "makerTokenAmounts": "Maker amounts bought at each taker token         amount."
                    }
                },
                "sampleSellsFromMStable(address,address,address,uint256[])": {
                    "details": "Sample sell quotes from the mStable contract",
                    "params": {
                        "makerToken": "Address of the maker token (what to buy).",
                        "router": "Address of the mStable contract",
                        "takerToken": "Address of the taker token (what to sell).",
                        "takerTokenAmounts": "Taker token sell amount for each sample."
                    },
                    "returns": {
                        "makerTokenAmounts": "Maker amounts bought at each taker token         amount."
                    }
                },
                "sampleSellsFromMakerPsm((address,bytes32,address),address,address,uint256[])": {
                    "details": "Sample sell quotes from Maker PSM"
                },
                "sampleSellsFromMooniswap(address,address,address,uint256[])": {
                    "details": "Sample sell quotes from Mooniswap.",
                    "params": {
                        "makerToken": "Address of the maker token (what to buy).",
                        "registry": "Address of the Mooniswap Registry.",
                        "takerToken": "Address of the taker token (what to sell).",
                        "takerTokenAmounts": "Taker token sell amount for each sample."
                    },
                    "returns": {
                        "makerTokenAmounts": "Maker amounts bought at each taker token         amount.",
                        "pool": "The contract address for the pool"
                    }
                },
                "sampleSellsFromShell(address,address,address,uint256[])": {
                    "details": "Sample sell quotes from the Shell pool contract",
                    "params": {
                        "makerToken": "Address of the maker token (what to buy).",
                        "pool": "Address of the Shell pool contract",
                        "takerToken": "Address of the taker token (what to sell).",
                        "takerTokenAmounts": "Taker token sell amount for each sample."
                    },
                    "returns": {
                        "makerTokenAmounts": "Maker amounts bought at each taker token         amount."
                    }
                },
                "sampleSellsFromSmoothy((address,bytes4,bytes4),int128,int128,uint256[])": {
                    "details": "Sample sell quotes from Smoothy.",
                    "params": {
                        "fromTokenIdx": "Index of the taker token (what to sell).",
                        "smoothyInfo": "Smoothy information specific to this token pair.",
                        "takerTokenAmounts": "Taker token sell amount for each sample.",
                        "toTokenIdx": "Index of the maker token (what to buy)."
                    },
                    "returns": {
                        "makerTokenAmounts": "Maker amounts bought at each taker token         amount."
                    }
                },
                "sampleSellsFromUniswap(address,address,address,uint256[])": {
                    "details": "Sample sell quotes from Uniswap.",
                    "params": {
                        "makerToken": "Address of the maker token (what to buy).",
                        "router": "Address of the Uniswap Router",
                        "takerToken": "Address of the taker token (what to sell).",
                        "takerTokenAmounts": "Taker token sell amount for each sample."
                    },
                    "returns": {
                        "makerTokenAmounts": "Maker amounts bought at each taker token         amount."
                    }
                },
                "sampleSellsFromUniswapV2(address,address[],uint256[])": {
                    "details": "Sample sell quotes from UniswapV2.",
                    "params": {
                        "path": "Token route. Should be takerToken -> makerToken",
                        "router": "Router to look up tokens and amounts",
                        "takerTokenAmounts": "Taker token sell amount for each sample."
                    },
                    "returns": {
                        "makerTokenAmounts": "Maker amounts bought at each taker token         amount."
                    }
                },
                "sampleSellsFromUniswapV3(address,address[],uint256[])": {
                    "details": "Sample sell quotes from UniswapV3.",
                    "params": {
                        "path": "Token route. Should be takerToken -> makerToken",
                        "quoter": "UniswapV3 Quoter contract.",
                        "takerTokenAmounts": "Taker token sell amount for each sample."
                    },
                    "returns": {
                        "makerTokenAmounts": "Maker amounts bought at each taker token         amount.",
                        "uniswapGasUsed": "Estimated amount of gas used",
                        "uniswapPaths": "The encoded uniswap path for each sample."
                    }
                }
            },
            "version": 1
        },
        "evm": {
            "bytecode": {
                "linkReferences": {},
                "object": "0x60a06040527feeeeeeeeeeeeeeeeeeeeeeeeeeeeeeeeeeeeeeee0000000000000000000000006080523480156200003557600080fd5b5060805160601c61bd006200005e600039806135d852806154ce5280616033525061bd006000f3fe6080604052600436106103905760003560e01c80637f7f4f13116101dc578063bd71ecf611610102578063ddd5aa28116100a0578063f3868e9c1161006f578063f3868e9c1461058b578063f5a4994d14610b17578063f6d6794a14610b37578063fc9fe41b14610b5757610397565b8063ddd5aa2814610a97578063e78ac04514610ab7578063e8e4af0914610ad7578063f1ed7fa414610af757610397565b8063c8c74a37116100dc578063c8c74a3714610a17578063cc130e8314610a37578063cc1621c914610a57578063d9bca37214610a7757610397565b8063bd71ecf6146109b7578063c25c4138146109d7578063c8319084146109f757610397565b80639e3f05c31161017a578063a75e744b11610149578063a75e744b14610929578063a76bbec414610949578063adc636bf14610969578063b90cd2fb1461099757610397565b80639e3f05c31461089a5780639ea0ff13146108c9578063a0295b8b146108e9578063a46984171461090957610397565b80638e5a0e07116101b65780638e5a0e071461080b5780639209483b1461083a578063987777481461085a5780639bf3ee351461087a57610397565b80637f7f4f13146107ab5780638a2d1971146107cb5780638b6d7b44146107eb57610397565b80634092e6b1116102c157806357494b1d1161025f57806368be3cf21161022e57806368be3cf21461071e578063706e2f9b1461074b57806374c9d2551461076b5780637f3e7f821461078b57610397565b806357494b1d1461069e5780635aae4e53146106be5780635d5b674f146106de57806366a1ac6b146106fe57610397565b8063494569db1161029b578063494569db1461060d5780634edfb5b21461062d57806351be4eaa1461065a5780635505000a1461066f57610397565b80634092e6b1146105ab57806340bc03ae146105cb57806342cbb15c146105eb57610397565b8063252322b31161032e5780632aa64319116103085780632aa643191461051c57806330d6570d1461054b5780633105fec11461056b578063360523911461058b57610397565b8063252322b3146104bc578063281e3432146104dc57806329fa4aa0146104fc57610397565b8063149dab0e1161036a578063149dab0e14610420578063162790551461044f5780631976f5261461047c5780632339078f1461049c57610397565b8063034eaff91461039c5780630496d5dc146103d25780631022742b1461040057610397565b3661039757005b600080fd5b3480156103a857600080fd5b506103bc6103b736600461a667565b610b77565b6040516103c9919061b6a6565b60405180910390f35b3480156103de57600080fd5b506103f26103ed36600461a1b0565b610d99565b6040516103c992919061b62b565b34801561040c57600080fd5b506103bc61041b36600461a509565b610f3f565b34801561042c57600080fd5b5061044061043b36600461a7c0565b6110b2565b6040516103c99392919061b50a565b34801561045b57600080fd5b5061046f61046a366004619e88565b611212565b6040516103c9919061b6b7565b34801561048857600080fd5b506103bc61049736600461a61d565b61121c565b3480156104a857600080fd5b506103bc6104b736600461a760565b611387565b3480156104c857600080fd5b506103bc6104d736600461a094565b6115b1565b3480156104e857600080fd5b506103bc6104f736600461a99b565b61177b565b34801561050857600080fd5b506103bc61051736600461a7f8565b6119d0565b34801561052857600080fd5b5061053c61053736600461a858565b611a3f565b6040516103c99392919061b6c5565b34801561055757600080fd5b506103bc61056636600461a094565b611d1c565b34801561057757600080fd5b506103bc61058636600461a1b0565b611e90565b34801561059757600080fd5b506103bc6105a636600461a858565b612014565b3480156105b757600080fd5b506103bc6105c636600461a155565b6120a6565b3480156105d757600080fd5b506103bc6105e636600461a7f8565b612221565b3480156105f757600080fd5b506106006123a2565b6040516103c9919061b6f2565b34801561061957600080fd5b506103f261062836600461a1b0565b6123a6565b34801561063957600080fd5b5061064d61064836600461a8ea565b612532565b6040516103c9919061b720565b34801561066657600080fd5b506106006127b0565b34801561067b57600080fd5b5061068f61068a36600461a6c9565b6127b8565b6040516103c99392919061b670565b3480156106aa57600080fd5b506103bc6106b936600461a094565b612aad565b3480156106ca57600080fd5b5061068f6106d936600461a6c9565b613024565b3480156106ea57600080fd5b506103bc6106f936600461a094565b613309565b34801561070a57600080fd5b506103bc61071936600461a509565b61336f565b34801561072a57600080fd5b5061073e61073936600461a351565b613424565b6040516103c9919061b695565b34801561075757600080fd5b506103bc61076636600461a402565b613585565b34801561077757600080fd5b5061044061078636600461a7c0565b613677565b34801561079757600080fd5b506103bc6107a636600461a1b0565b613686565b3480156107b757600080fd5b506103bc6107c636600461a99b565b613796565b3480156107d757600080fd5b506103bc6107e636600461a155565b6139e3565b3480156107f757600080fd5b506103bc61080636600461a7f8565b613af5565b34801561081757600080fd5b5061082b61082636600461a392565b613e58565b6040516103c99392919061b8e6565b34801561084657600080fd5b506103bc61085536600461a7f8565b61406e565b34801561086657600080fd5b506103bc61087536600461a094565b61426e565b34801561088657600080fd5b5061060061089536600461a955565b6147a7565b3480156108a657600080fd5b506108ba6108b536600461a87a565b6148ec565b6040516103c99392919061b700565b3480156108d557600080fd5b506106006108e436600461a100565b614a12565b3480156108f557600080fd5b506103bc61090436600461a760565b614c28565b34801561091557600080fd5b506103bc61092436600461a094565b614e24565b34801561093557600080fd5b5061053c61094436600461a221565b614f79565b34801561095557600080fd5b506103bc61096436600461a667565b6150b6565b34801561097557600080fd5b5061098961098436600461a094565b6152c5565b6040516103c992919061b785565b3480156109a357600080fd5b506103bc6109b236600461a094565b615415565b3480156109c357600080fd5b506103bc6109d236600461a436565b61547b565b3480156109e357600080fd5b506103bc6109f236600461a094565b615577565b348015610a0357600080fd5b506103bc610a1236600461a094565b6155dd565b348015610a2357600080fd5b506103bc610a3236600461a1b0565b61579a565b348015610a4357600080fd5b506103bc610a5236600461a61d565b615906565b348015610a6357600080fd5b506108ba610a7236600461a87a565b615a78565b348015610a8357600080fd5b5061053c610a9236600461a221565b615c5e565b348015610aa357600080fd5b5061053c610ab236600461a858565b615d4d565b348015610ac357600080fd5b506103bc610ad236600461a47c565b615fe0565b348015610ae357600080fd5b506103bc610af236600461a094565b6160d5565b348015610b0357600080fd5b50610600610b1236600461a8b2565b616208565b348015610b2357600080fd5b50610989610b3236600461a094565b6163a7565b348015610b4357600080fd5b506103bc610b5236600461a1b0565b616493565b348015610b6357600080fd5b5061082b610b7236600461a392565b61660c565b8051606090806001600160401b0381118015610b9257600080fd5b50604051908082528060200260200182016040528015610bbc578160200160208202803683370190505b5091506000866001600160a01b031663182df0f56040518163ffffffff1660e01b815260040160206040518083038186803b158015610bfa57600080fd5b505afa158015610c0e573d6000803e3d6000fd5b505050506040513d601f19601f82011682018060405250810190610c32919061a5cb565b90506000876001600160a01b031663313ce5676040518163ffffffff1660e01b815260040160206040518083038186803b158015610c6f57600080fd5b505afa158015610c83573d6000803e3d6000fd5b505050506040513d601f19601f82011682018060405250810190610ca7919061ab9f565b60ff169050876001600160a01b0316866001600160a01b03161415610d1f5760005b83811015610d195781600a0a6402540be4000283878381518110610ce957fe5b60200260200101510281610cf957fe5b04858281518110610d0657fe5b6020908102919091010152600101610cc9565b50610d8e565b876001600160a01b0316876001600160a01b03161415610d8e5760005b83811015610d8c578282600a0a6402540be400888481518110610d5b57fe5b6020026020010151020281610d6c57fe5b04858281518110610d7957fe5b6020908102919091010152600101610d3c565b505b505050949350505050565b80516060908190806001600160401b0381118015610db657600080fd5b50604051908082528060200260200182016040528015610de0578160200160208202803683370190505b509150610ded8686616821565b9250825160001415610dff5750610f37565b60005b81811015610f3457866001600160a01b031663a8312b1d620249f0878481518110610e2957fe5b6020026020010151878a6040518563ffffffff1660e01b8152600401610e519392919061b9b0565b60006040518083038187803b158015610e6957600080fd5b5086fa93505050508015610e9f57506040513d6000823e601f3d908101601f19168201604052610e9c919081019061a579565b60015b610ed9573d808015610ecd576040519150601f19603f3d011682016040523d82523d6000602084013e610ed2565b606091505b5050610f34565b80600188510381518110610ee957fe5b6020026020010151848381518110610efd57fe5b602002602001018181525050838281518110610f1557fe5b602002602001015160001415610f2b5750610f34565b50600101610e02565b50505b935093915050565b606083516001600160401b0381118015610f5857600080fd5b50604051908082528060200260200182016040528015610f82578160200160208202803683370190505b50905060005b845181146110aa57306001600160a01b0316639bf3ee3562030d40878481518110610faf57fe5b6020026020010151878581518110610fc357fe5b6020026020010151876040518563ffffffff1660e01b8152600401610fea9392919061b977565b60206040518083038187803b15801561100257600080fd5b5086fa93505050508015611033575060408051601f3d908101601f191682019092526110309181019061a5cb565b60015b611087573d808015611061576040519150601f19603f3d011682016040523d82523d6000602084013e611066565b606091505b50600083838151811061107557fe5b602002602001018181525050506110a2565b8083838151811061109457fe5b602002602001018181525050505b600101610f88565b509392505050565b6000606080866020015151600014156110ca57611208565b6110d687878787616b11565b855191945092506001600160401b03811180156110f257600080fd5b5060405190808252806020026020018201604052801561111c578160200160208202803683370190505b50905060005b815181101561120657836001600160a01b0316637f9c0ecd620493e08588858151811061114b57fe5b60200260200101516040518463ffffffff1660e01b815260040161117092919061b650565b60206040518083038187803b15801561118857600080fd5b5086fa935050505080156111b9575060408051601f3d908101601f191682019092526111b69181019061a5cb565b60015b6111c257611206565b808383815181106111cf57fe5b6020026020010181815250508282815181106111e757fe5b6020026020010151600014156111fd5750611206565b50600101611122565b505b9450945094915050565b803b15155b919050565b8051606090806001600160401b038111801561123757600080fd5b50604051908082528060200260200182016040528015611261578160200160208202803683370190505b50915061126c619044565b611274616d43565b905060005b82811015610d8e5784818151811061128d57fe5b6020026020010151876000815181106112a257fe5b602090810291909101015160600152604051637c26833760e11b81526001600160a01b0389169063f84d066e906112e4906001908b908b90889060040161b803565b600060405180830381600087803b1580156112fe57600080fd5b505af192505050801561133357506040513d6000823e601f3d908101601f19168201604052611330919081019061a4d5565b60015b61133c57610d8e565b60008160008151811061134b57fe5b6020026020010151905060008113611364575050610d8e565b8086848151811061137157fe5b6020026020010181815250505050600101611279565b60606113938385616d72565b6020850151604080516002808252606082810190935281602001602082028036833701905050905085816000815181106113c957fe5b60200260200101906001600160a01b031690816001600160a01b03168152505084816001815181106113f757fe5b6001600160a01b03909216602092830291909101909101528351806001600160401b038111801561142757600080fd5b50604051908082528060200260200182016040528015611451578160200160208202803683370190505b50935061145c619044565b611464616d43565b905060005b828110156115a45760606114908b89848151811061148357fe5b6020026020010151616db1565b604051637c26833760e11b81529091506001600160a01b0387169063f84d066e906114c69060009085908a90899060040161b803565b600060405180830381600087803b1580156114e057600080fd5b505af192505050801561151557506040513d6000823e601f3d908101601f19168201604052611512919081019061a4d5565b60015b611550573d808015611543576040519150601f19603f3d011682016040523d82523d6000602084013e611548565b606091505b5050506115a4565b60008160018351038151811061156257fe5b602002602001015160001902905060008113611580575050506115a4565b8089858151811061158d57fe5b602002602001018181525050505050600101611469565b5050505050949350505050565b60606115bd8385616d72565b8151806001600160401b03811180156115d557600080fd5b506040519080825280602002602001820160405280156115ff578160200160208202803683370190505b50915060006001600160a01b038616156116225761161d8787616e43565b611625565b60005b905060006001600160a01b03861615611647576116428887616e43565b61164a565b60005b905060005b83811015610d8c5760016001600160a01b0388166116ad5761168c84632640f62c60e01b89858151811061167f57fe5b6020026020010151616ec2565b87848151811061169857fe5b60200260200101819350828152505050611747565b6001600160a01b0389166116d35761168c836359e9486260e01b89858151811061167f57fe5b60006116ed846359e9486260e01b8a868151811061167f57fe5b92509050801561172a57611709856309903d8b60e21b83616ec2565b88858151811061171557fe5b60200260200101819450828152505050611745565b600087848151811061173857fe5b6020026020010181815250505b505b801580611767575085828151811061175b57fe5b60200260200101516000145b156117725750610d8c565b5060010161164f565b60606117878385616d72565b6000856000015190506000816001600160a01b03166336569e776040518163ffffffff1660e01b815260040160206040518083038186803b1580156117cb57600080fd5b505afa1580156117df573d6000803e3d6000fd5b505050506040513d601f19601f820116820180604052508101906118039190619ea6565b8451909150806001600160401b038111801561181e57600080fd5b50604051908082528060200260200182016040528015611848578160200160208202803683370190505b509350826001600160a01b031663f4b9fa756040518163ffffffff1660e01b815260040160206040518083038186803b15801561188457600080fd5b505afa158015611898573d6000803e3d6000fd5b505050506040513d601f19601f820116820180604052508101906118bc9190619ea6565b6001600160a01b0316866001600160a01b03161415801561195f5750826001600160a01b031663f4b9fa756040518163ffffffff1660e01b815260040160206040518083038186803b15801561191157600080fd5b505afa158015611925573d6000803e3d6000fd5b505050506040513d601f19601f820116820180604052508101906119499190619ea6565b6001600160a01b0316876001600160a01b031614155b1561196c575050506119c8565b60005b81811015610d8c57600061199a8a898b8a868151811061198b57fe5b60200260200101518989616fa5565b9050806119a75750610d8c565b808683815181106119b457fe5b60209081029190910101525060010161196f565b949350505050565b604080516060818101909252611a3690806119ef86896080840161b861565b60405160208183030381529060405281526020018688604051602001611a1692919061b861565b604051602081830303815290604052815260200161726481525083617397565b95945050505050565b6000806060611a4e8587616d72565b8351806001600160401b0381118015611a6657600080fd5b50604051908082528060200260200182016040528015611a90578160200160208202803683370190505b508851604051630939d86360e11b81529193506001600160a01b031690631273b0c690611ac3908a908a9060040161b316565b60206040518083038186803b158015611adb57600080fd5b505afa158015611aef573d6000803e3d6000fd5b505050506040513d601f19601f82011682018060405250810190611b139190619ea6565b925060006001600160a01b03841615611b3157506001935086611bd0565b8851604051630939d86360e11b81526001600160a01b0390911690631273b0c690611b62908a908c9060040161b316565b60206040518083038186803b158015611b7a57600080fd5b505afa158015611b8e573d6000803e3d6000fd5b505050506040513d601f19601f82011682018060405250810190611bb29190619ea6565b93506001600160a01b038416611bc9575050611208565b5060009350855b836001600160a01b031663dd58b41c6040518163ffffffff1660e01b815260040160206040518083038186803b158015611c0957600080fd5b505afa158015611c1d573d6000803e3d6000fd5b505050506040513d601f19601f82011682018060405250810190611c41919061a5ad565b611c4c575050611208565b60005b82811015611d0f576000611cc98a87858e60200151604051602001611c77949392919061b331565b6040516020818303038152906040528a88868f60200151604051602001611ca1949392919061b331565b6040516020818303038152906040528a8581518110611cbc57fe5b60200260200101516175a9565b905080858381518110611cd857fe5b602002602001018181525050848281518110611cf057fe5b602002602001015160001415611d065750611d0f565b50600101611c4f565b5050509450945094915050565b6060611d288385616d72565b8151806001600160401b0381118015611d4057600080fd5b50604051908082528060200260200182016040528015611d6a578160200160208202803683370190505b50915060005b81811015611e8657866001600160a01b03166372ea9076620c35008888888681518110611d9957fe5b60200260200101516040518563ffffffff1660e01b8152600401611dbf9392919061b470565b60206040518083038187803b158015611dd757600080fd5b5086fa93505050508015611e08575060408051601f3d908101601f19168201909252611e059181019061a5cb565b60015b611e42573d808015611e36576040519150601f19603f3d011682016040523d82523d6000602084013e611e3b565b606091505b5050611e86565b80848381518110611e4f57fe5b602002602001018181525050838281518110611e6757fe5b602002602001015160001415611e7d5750611e86565b50600101611d70565b5050949350505050565b8051606090806001600160401b0381118015611eab57600080fd5b50604051908082528060200260200182016040528015611ed5578160200160208202803683370190505b50915060005b8181101561200b57856001600160a01b031663d06ca61f620249f0868481518110611f0257fe5b6020026020010151886040518463ffffffff1660e01b8152600401611f2892919061b9a2565b60006040518083038187803b158015611f4057600080fd5b5086fa93505050508015611f7657506040513d6000823e601f3d908101601f19168201604052611f73919081019061a579565b60015b611fb0573d808015611fa4576040519150601f19603f3d011682016040523d82523d6000602084013e611fa9565b606091505b505061200b565b80600187510381518110611fc057fe5b6020026020010151848381518110611fd457fe5b602002602001018181525050838281518110611fec57fe5b602002602001015160001415612002575061200b565b50600101611edb565b50509392505050565b60606120208385616d72565b84602001516001600160a01b0316846001600160a01b0316141580612052575084516001600160a01b03848116911614155b156110aa5781516060816001600160401b038111801561207157600080fd5b5060405190808252806020026020018201604052801561209b578160200160208202803683370190505b5092506119c8915050565b8051606090806001600160401b03811180156120c157600080fd5b506040519080825280602002602001820160405280156120eb578160200160208202803683370190505b50915060005b81811015611e8657866001600160a01b031663d7176ca9878760008151811061211657fe5b60200260200101518860018151811061212b57fe5b602002602001015188868151811061213f57fe5b60200260200101516040518563ffffffff1660e01b8152600401612166949392919061b7a5565b604080518083038186803b15801561217d57600080fd5b505afa9250505080156121ad575060408051601f3d908101601f191682019092526121aa9181019061aac3565b60015b6121db573d808015611e36576040519150601f19603f3d011682016040523d82523d6000602084013e611e3b565b818584815181106121e857fe5b60200260200101818152505084838151811061220057fe5b602002602001015160001415612217575050611e86565b50506001016120f1565b8051606090806001600160401b038111801561223c57600080fd5b50604051908082528060200260200182016040528015612266578160200160208202803683370190505b50915060005b81811015611e86576000606088600001516001600160a01b0316621e84808a602001518a8a8a888151811061229d57fe5b60200260200101516040516024016122b79392919061b846565b60408051601f198184030181529181526020820180516001600160e01b03166001600160e01b03199094169390931790925290516122f5919061b2e1565b6000604051808303818686fa925050503d8060008114612331576040519150601f19603f3d011682016040523d82523d6000602084013e612336565b606091505b50915091506000821561235a5781806020019051810190612357919061a5cb565b90505b8086858151811061236757fe5b60200260200101818152505085848151811061237f57fe5b60200260200101516000141561239757505050611e86565b50505060010161226c565b4390565b80516060908190806001600160401b03811180156123c357600080fd5b506040519080825280602002602001820160405280156123ed578160200160208202803683370190505b5091506123fa8686616821565b925082516000141561240c5750610f37565b60005b81811015610f3457866001600160a01b0316639e269b68620249f087848151811061243657fe5b6020026020010151878a6040518563ffffffff1660e01b815260040161245e9392919061b9b0565b60006040518083038187803b15801561247657600080fd5b5086fa935050505080156124ac57506040513d6000823e601f3d908101601f191682016040526124a9919081019061a579565b60015b6124da573d808015610ecd576040519150601f19603f3d011682016040523d82523d6000602084013e610ed2565b806000815181106124e757fe5b60200260200101518483815181106124fb57fe5b60200260200101818152505083828151811061251357fe5b6020026020010151600014156125295750610f34565b5060010161240f565b6020848101516040805160018082528183019092526060938492908281019080368337019050509050858160008151811061256957fe5b6020908102919091010152606060006040519080825280602002602001820160405280156125a1578160200160208202803683370190505b50905087606001516001600160a01b0316866001600160a01b03161415612692576040516381efcbdd60e01b81526001600160a01b038416906381efcbdd906207a120906125fa9089906001908890889060040161b53e565b60006040518083038187803b15801561261257600080fd5b5086fa9350505050801561264857506040513d6000823e601f3d908101601f19168201604052612645919081019061a5e9565b60015b612682573d808015612676576040519150601f19603f3d011682016040523d82523d6000602084013e61267b565b606091505b505061268d565b93506119c892505050565b610d8e565b87606001516001600160a01b0316856001600160a01b031614156126e8576040516361e597f960e01b81526001600160a01b038416906361e597f9906207a120906125fa908a906001908890889060040161b53e565b6040516302b9a6cd60e11b81526001600160a01b038416906305734d9a906207a12090612728908a90600190889088908d9084908490849060040161b56b565b60006040518083038187803b15801561274057600080fd5b5086fa9350505050801561277657506040513d6000823e601f3d908101601f19168201604052612773919081019061a5e9565b60015b612682573d8080156127a4576040519150601f19603f3d011682016040523d82523d6000602084013e6127a9565b606091505b5050610d8e565b60005a905090565b60608060608061283a876001600160a01b031663c45a01556040518163ffffffff1660e01b815260040160206040518083038186803b1580156127fa57600080fd5b505afa15801561280e573d6000803e3d6000fd5b505050506040513d601f19601f82011682018060405250810190612832919061a6ab565b8760006176e2565b905084516001600160401b038111801561285357600080fd5b5060405190808252806020026020018201604052801561287d578160200160208202803683370190505b50915084516001600160401b038111801561289757600080fd5b506040519080825280602002602001820160405280156128cb57816020015b60608152602001906001900390816128b65790505b50935084516001600160401b03811180156128e557600080fd5b5060405190808252806020026020018201604052801561290f578160200160208202803683370190505b50925060005b8551811015612aa2576000805b8351811015612a3457606061294a8a86848151811061293d57fe5b6020026020010151617b82565b90508a6001600160a01b031663cdca1753620aae60838c888151811061296c57fe5b60200260200101516040518463ffffffff1660e01b815260040161299192919061b731565b600060405180830381600088803b1580156129ab57600080fd5b5087f1935050505080156129e157506040513d6000823e601f3d908101601f191682016040526129de919081019061aa40565b60015b6129ea57612a2b565b838711612a2657839650848c8981518110612a0157fe5b6020026020010181905250808b8981518110612a1957fe5b6020026020010181815250505b505050505b50600101612922565b5080612a815760405180602001604052806000815250868381518110612a5657fe5b60200260200101819052506000858381518110612a6f57fe5b60200260200101818152505050612aa2565b80848381518110612a8e57fe5b602090810291909101015250600101612915565b505093509350939050565b80516060908590806001600160401b0381118015612aca57600080fd5b50604051908082528060200260200182016040528015612af4578160200160208202803683370190505b50604051630bcded8960e21b81529093506001600160a01b03831690632f37b62490612b2490899060040161b2ed565b60206040518083038186803b158015612b3c57600080fd5b505afa158015612b50573d6000803e3d6000fd5b505050506040513d601f19601f82011682018060405250810190612b74919061a5ad565b1580612bf95750604051630bcded8960e21b81526001600160a01b03831690632f37b62490612ba790889060040161b2ed565b60206040518083038186803b158015612bbf57600080fd5b505afa158015612bd3573d6000803e3d6000fd5b505050506040513d601f19601f82011682018060405250810190612bf7919061a5ad565b155b15612c055750506119c8565b612c0d61906b565b60405163f8b2cb4f60e01b81526001600160a01b0384169063f8b2cb4f90612c39908a9060040161b2ed565b60206040518083038186803b158015612c5157600080fd5b505afa158015612c65573d6000803e3d6000fd5b505050506040513d601f19601f82011682018060405250810190612c89919061a5cb565b815260405163f8b2cb4f60e01b81526001600160a01b0384169063f8b2cb4f90612cb790899060040161b2ed565b60206040518083038186803b158015612ccf57600080fd5b505afa158015612ce3573d6000803e3d6000fd5b505050506040513d601f19601f82011682018060405250810190612d07919061a5cb565b6020820152604051634a46c67360e11b81526001600160a01b0384169063948d8ce690612d38908a9060040161b2ed565b60206040518083038186803b158015612d5057600080fd5b505afa158015612d64573d6000803e3d6000fd5b505050506040513d601f19601f82011682018060405250810190612d88919061a5cb565b60408083019190915251634a46c67360e11b81526001600160a01b0384169063948d8ce690612dbb90899060040161b2ed565b60206040518083038186803b158015612dd357600080fd5b505afa158015612de7573d6000803e3d6000fd5b505050506040513d601f19601f82011682018060405250810190612e0b919061a5cb565b816060018181525050826001600160a01b031663d4cadf686040518163ffffffff1660e01b815260040160206040518083038186803b158015612e4d57600080fd5b505afa158015612e61573d6000803e3d6000fd5b505050506040513d601f19601f82011682018060405250810190612e85919061a5cb565b608082015260005b82811015610d8c57612eb882602001516003670de0b6b3a764000081612eaf57fe5b04600101617cdd565b868281518110612ec457fe5b60200260200101511115612ed757610d8c565b836001600160a01b031663f8d6aed4620493e084600001518560400151866020015187606001518c8881518110612f0a57fe5b602002602001015189608001516040518863ffffffff1660e01b8152600401612f389695949392919061b9e4565b60206040518083038187803b158015612f5057600080fd5b5086fa93505050508015612f81575060408051601f3d908101601f19168201909252612f7e9181019061a5cb565b60015b612fbb573d808015612faf576040519150601f19603f3d011682016040523d82523d6000602084013e612fb4565b606091505b5050610d8c565b8251612fd3906002670de0b6b3a76400005b04617cdd565b811115612fe05750610d8c565b80868381518110612fed57fe5b60200260200101818152505085828151811061300557fe5b60200260200101516000141561301b5750610d8c565b50600101612e8d565b606080606080613066876001600160a01b031663c45a01556040518163ffffffff1660e01b815260040160206040518083038186803b1580156127fa57600080fd5b9050606061307387617d3a565b905085516001600160401b038111801561308c57600080fd5b506040519080825280602002602001820160405280156130b6578160200160208202803683370190505b50925085516001600160401b03811180156130d057600080fd5b5060405190808252806020026020018201604052801561310457816020015b60608152602001906001900390816130ef5790505b50945085516001600160401b038111801561311e57600080fd5b50604051908082528060200260200182016040528015613148578160200160208202803683370190505b50935060005b86518110156132fd576000805b845181101561328f57606061318b8561318688858151811061317957fe5b6020026020010151617dd2565b617b82565b90508b6001600160a01b0316632f80bb1d620aae60838d88815181106131ad57fe5b60200260200101516040518463ffffffff1660e01b81526004016131d292919061b731565b600060405180830381600088803b1580156131ec57600080fd5b5087f19350505050801561322257506040513d6000823e601f3d908101601f1916820160405261321f919081019061aa40565b60015b61322b57613286565b8615806132385750838710155b15613281578396506132508f8b888151811061293d57fe5b8d898151811061325c57fe5b6020026020010181905250808c898151811061327457fe5b6020026020010181815250505b505050505b5060010161315b565b50806132dc57604051806020016040528060008152508783815181106132b157fe5b602002602001018190525060008683815181106132ca57fe5b602002602001018181525050506132fd565b808583815181106132e957fe5b60209081029190910101525060010161314e565b50505093509350939050565b604080516060818101909252611a36908061332886896080840161b316565b6040516020818303038152906040528152602001868860405160200161334f92919061b316565b6040516020818303038152906040528152602001617e6a81525083617397565b606061337c848484610f3f565b905060005b84518110156110aa5781818151811061339657fe5b602002602001015160001461341c576134038282815181106133b457fe5b60200260200101518683815181106133c857fe5b6020026020010151606001516001600160801b03168784815181106133e957fe5b6020026020010151604001516001600160801b0316617f7e565b82828151811061340f57fe5b6020026020010181815250505b600101613381565b6060816001600160401b038111801561343c57600080fd5b5060405190808252806020026020018201604052801561347657816020015b61346361909a565b81526020019060019003908161345b5790505b50905060005b80831461357e57600182828151811061349157fe5b6020908102919091018101519115159101528383828181106134af57fe5b90506020028101906134c1919061ba33565b151590506134ce57613576565b308484838181106134db57fe5b90506020028101906134ed919061ba33565b6040516134fb92919061b2d4565b6000604051808303816000865af19150503d8060008114613538576040519150601f19603f3d011682016040523d82523d6000602084013e61353d565b606091505b5083838151811061354a57fe5b602002602001015160200184848151811061356157fe5b60209081029190910101519190915290151590525b60010161347c565b5092915050565b606081516001600160401b038111801561359e57600080fd5b506040519080825280602002602001820160405280156135c8578160200160208202803683370190505b50905060005b82518114613671577f00000000000000000000000000000000000000000000000000000000000000006001600160a01b031683828151811061360c57fe5b60200260200101516001600160a01b03161461364c5761364783828151811061363157fe5b60200260200101516001600160a01b0316617fa2565b61364f565b60125b60ff1682828151811061365e57fe5b60209081029190910101526001016135ce565b50919050565b60006060809450945094915050565b604080516002808252606080830184529283929190602083019080368337019050509050836001815181106136b757fe5b6020026020010151816000815181106136cc57fe5b60200260200101906001600160a01b031690816001600160a01b031681525050836000815181106136f957fe5b60200260200101518160018151811061370e57fe5b6001600160a01b0390921660209283029190910190910152604080516060810190915261378b908061374488856080840161b4ea565b6040516020818303038152906040528152602001878760405160200161376b92919061b4ea565b604051602081830303815290604052815260200161804e81525084617397565b9150505b9392505050565b60606137a28385616d72565b6000856000015190506000816001600160a01b03166336569e776040518163ffffffff1660e01b815260040160206040518083038186803b1580156137e657600080fd5b505afa1580156137fa573d6000803e3d6000fd5b505050506040513d601f19601f8201168201806040525081019061381e9190619ea6565b8451909150806001600160401b038111801561383957600080fd5b50604051908082528060200260200182016040528015613863578160200160208202803683370190505b509350826001600160a01b031663f4b9fa756040518163ffffffff1660e01b815260040160206040518083038186803b15801561389f57600080fd5b505afa1580156138b3573d6000803e3d6000fd5b505050506040513d601f19601f820116820180604052508101906138d79190619ea6565b6001600160a01b0316866001600160a01b03161415801561397a5750826001600160a01b031663f4b9fa756040518163ffffffff1660e01b815260040160206040518083038186803b15801561392c57600080fd5b505afa158015613940573d6000803e3d6000fd5b505050506040513d601f19601f820116820180604052508101906139649190619ea6565b6001600160a01b0316876001600160a01b031614155b15613987575050506119c8565b60005b81811015610d8c5760006139b58a898b8a86815181106139a657fe5b60200260200101518989618160565b9050806139c25750610d8c565b808683815181106139cf57fe5b60209081029190910101525060010161398a565b60408051600280825260608083018452928392919060208301908036833701905050905083600181518110613a1457fe5b602002602001015181600081518110613a2957fe5b60200260200101906001600160a01b031690816001600160a01b03168152505083600081518110613a5657fe5b602002602001015181600181518110613a6b57fe5b6001600160a01b03909216602092830291909101909101526040805160608101909152613aeb9080613aa28989866080850161b3a0565b6040516020818303038152906040528152602001888888604051602001613acb9392919061b3a0565b60405160208183030381529060405281526020016183f281525084617397565b9695505050505050565b6060600085600001516001600160a01b031663bbd7f25585600f0b6040518263ffffffff1660e01b8152600401613b2c919061b6f2565b60206040518083038186803b158015613b4457600080fd5b505afa158015613b58573d6000803e3d6000fd5b505050506040513d601f19601f82011682018060405250810190613b7c919061a5cb565b8651604051631e01043960e01b81526001600160a01b0390911690631e01043990613baf90600f89900b9060040161b6f2565b60206040518083038186803b158015613bc757600080fd5b505afa158015613bdb573d6000803e3d6000fd5b505050506040513d601f19601f82011682018060405250810190613bff919061a5cb565b039050600086600001516001600160a01b031663c582951486600f0b6040518263ffffffff1660e01b8152600401613c37919061b6f2565b60806040518083038186803b158015613c4f57600080fd5b505afa158015613c63573d6000803e3d6000fd5b505050506040513d601f19601f82011682018060405250810190613c87919061aaf3565b935050505080601203600a0a8281613c9b57fe5b85519190049250806001600160401b0381118015613cb857600080fd5b50604051908082528060200260200182016040528015613ce2578160200160208202803683370190505b50935060005b81811015610d8c57600060608a600001516001600160a01b0316620927c08c602001518c8c8c8881518110613d1957fe5b6020026020010151604051602401613d339392919061b846565b60408051601f198184030181529181526020820180516001600160e01b03166001600160e01b0319909416939093179092529051613d71919061b2e1565b6000604051808303818686fa925050503d8060008114613dad576040519150601f19603f3d011682016040523d82523d6000602084013e613db2565b606091505b509150915060008215613dd65781806020019051810190613dd3919061a5cb565b90505b868110613e1057835b85811015613e075787898281518110613df457fe5b6020908102919091010152600101613ddf565b50505050610d8c565b80888581518110613e1d57fe5b602002602001018181525050878481518110613e3557fe5b602002602001015160001415613e4d57505050610d8c565b505050600101613ce8565b613e606190b2565b613e686190b2565b600080805b87518114613f6d57613eb46020898381518110613e8657fe5b60200260200101515103878a8481518110613e9d57fe5b60200260200101516184409092919063ffffffff16565b60006060306001600160a01b03168a8481518110613ece57fe5b6020026020010151604051613ee3919061b2e1565b6000604051808303816000865af19150503d8060008114613f20576040519150601f19603f3d011682016040523d82523d6000602084013e613f25565b606091505b50915091508115613f63576000613f4960208351038361845090919063ffffffff16565b905084811115613f6157838852602088018290529350835b505b5050600101613e6d565b5080613f795750614065565b60005b86518114612aa257613fac6020888381518110613f9557fe5b6020026020010151510383898481518110613e9d57fe5b60006060306001600160a01b0316898481518110613fc657fe5b6020026020010151604051613fdb919061b2e1565b6000604051808303816000865af19150503d8060008114614018576040519150601f19603f3d011682016040523d82523d6000602084013e61401d565b606091505b5091509150811561405b57600061404160208351038361845090919063ffffffff16565b90508581111561405957838752602087018290529450845b505b5050600101613f7c565b93509350939050565b60408401516060906001600160e01b0319166140f05760408051606081019091526140e990806140a286896080840161b861565b604051602081830303815290604052815260200186886040516020016140c992919061b861565b604051602081830303815290604052815260200161845c81525083617397565b90506119c8565b8151806001600160401b038111801561410857600080fd5b50604051908082528060200260200182016040528015614132578160200160208202803683370190505b50915060005b81811015611e86576000606088600001516001600160a01b0316621e84808a604001518a8a8a888151811061416957fe5b60200260200101516040516024016141839392919061b846565b60408051601f198184030181529181526020820180516001600160e01b03166001600160e01b03199094169390931790925290516141c1919061b2e1565b6000604051808303818686fa925050503d80600081146141fd576040519150601f19603f3d011682016040523d82523d6000602084013e614202565b606091505b5091509150600082156142265781806020019051810190614223919061a5cb565b90505b8086858151811061423357fe5b60200260200101818152505085848151811061424b57fe5b60200260200101516000141561426357505050611e86565b505050600101614138565b80516060908590806001600160401b038111801561428b57600080fd5b506040519080825280602002602001820160405280156142b5578160200160208202803683370190505b50604051630bcded8960e21b81529093506001600160a01b03831690632f37b624906142e590899060040161b2ed565b60206040518083038186803b1580156142fd57600080fd5b505afa158015614311573d6000803e3d6000fd5b505050506040513d601f19601f82011682018060405250810190614335919061a5ad565b15806143ba5750604051630bcded8960e21b81526001600160a01b03831690632f37b6249061436890889060040161b2ed565b60206040518083038186803b15801561438057600080fd5b505afa158015614394573d6000803e3d6000fd5b505050506040513d601f19601f820116820180604052508101906143b8919061a5ad565b155b156143c65750506119c8565b6143ce61906b565b60405163f8b2cb4f60e01b81526001600160a01b0384169063f8b2cb4f906143fa908a9060040161b2ed565b60206040518083038186803b15801561441257600080fd5b505afa158015614426573d6000803e3d6000fd5b505050506040513d601f19601f8201168201806040525081019061444a919061a5cb565b815260405163f8b2cb4f60e01b81526001600160a01b0384169063f8b2cb4f9061447890899060040161b2ed565b60206040518083038186803b15801561449057600080fd5b505afa1580156144a4573d6000803e3d6000fd5b505050506040513d601f19601f820116820180604052508101906144c8919061a5cb565b6020820152604051634a46c67360e11b81526001600160a01b0384169063948d8ce6906144f9908a9060040161b2ed565b60206040518083038186803b15801561451157600080fd5b505afa158015614525573d6000803e3d6000fd5b505050506040513d601f19601f82011682018060405250810190614549919061a5cb565b60408083019190915251634a46c67360e11b81526001600160a01b0384169063948d8ce69061457c90899060040161b2ed565b60206040518083038186803b15801561459457600080fd5b505afa1580156145a8573d6000803e3d6000fd5b505050506040513d601f19601f820116820180604052508101906145cc919061a5cb565b816060018181525050826001600160a01b031663d4cadf686040518163ffffffff1660e01b815260040160206040518083038186803b15801561460e57600080fd5b505afa158015614622573d6000803e3d6000fd5b505050506040513d601f19601f82011682018060405250810190614646919061a5cb565b608082015260005b82811015610d8c57815161466c906002670de0b6b3a7640000612fcd565b86828151811061467857fe5b6020026020010151111561468b57610d8c565b836001600160a01b031663ba9530a6620493e084600001518560400151866020015187606001518c88815181106146be57fe5b602002602001015189608001516040518863ffffffff1660e01b81526004016146ec9695949392919061b9e4565b60206040518083038187803b15801561470457600080fd5b5086fa93505050508015614735575060408051601f3d908101601f191682019092526147329181019061a5cb565b60015b614763573d808015612faf576040519150601f19603f3d011682016040523d82523d6000602084013e612fb4565b8086838151811061477057fe5b60200260200101818152505085828151811061478857fe5b60200260200101516000141561479e5750610d8c565b5060010161464e565b600080835160038111156147b757fe5b14806147cf57506001835160038111156147cd57fe5b145b806147e5575060408401516001600160801b0316155b806147fb575060608401516001600160801b0316155b156148085750600061378f565b6148106190cc565b600080846001600160a01b0316631fb0979588886040518363ffffffff1660e01b815260040161484192919061b95a565b60a06040518083038186803b15801561485957600080fd5b505afa15801561486d573d6000803e3d6000fd5b505050506040513d601f19601f82011682018060405250810190614891919061a9df565b919450925090506001836020015160048111156148aa57fe5b1415806148b5575080155b806148c8575086516001600160a01b0316155b156148d9576000935050505061378f565b506001600160801b031695945050505050565b60006060806148fb8587616d72565b6149068787876184b0565b92508261491257611208565b60405163276fdad960e11b81523090634edfb5b29061493b908a9087908b908b9060040161b93a565b60006040518083038186803b15801561495357600080fd5b505afa158015614967573d6000803e3d6000fd5b505050506040513d6000823e601f3d908101601f1916820160405261498f919081019061a5e9565b876080018190525086608001519150614a066040518060600160405280878a6040516020016149bf92919061b5fd565b6040516020818303038152906040528152602001888a6040516020016149e692919061b5fd565b604051602081830303815290604052815260200161861781525085617397565b90509450945094915050565b600080856001600160a01b031663901754d786866040518363ffffffff1660e01b8152600401614a4392919061b316565b60206040518083038186803b158015614a5b57600080fd5b505afa158015614a6f573d6000803e3d6000fd5b505050506040513d601f19601f82011682018060405250810190614a939190619ea6565b90506001600160a01b038116614aad5760009150506119c8565b60006001600160a01b03861615614b3f576040516370a0823160e01b81526001600160a01b038716906370a0823190614aea90859060040161b2ed565b60206040518083038186803b158015614b0257600080fd5b505afa158015614b16573d6000803e3d6000fd5b505050506040513d601f19601f82011682018060405250810190614b3a919061a5cb565b614b4b565b816001600160a01b0316315b905083811015614b60576000925050506119c8565b6040516303c2803f60e31b81526001600160a01b03831690631e1401f890620249f090614b95908a908a908a9060040161b470565b60206040518083038187803b158015614bad57600080fd5b5086fa93505050508015614bde575060408051601f3d908101601f19168201909252614bdb9181019061a5cb565b60015b614c1e573d808015614c0c576040519150601f19603f3d011682016040523d82523d6000602084013e614c11565b606091505b50600093505050506119c8565b92506119c8915050565b6060614c348385616d72565b602085015160408051600280825260608281019093528160200160208202803683370190505090508581600081518110614c6a57fe5b60200260200101906001600160a01b031690816001600160a01b0316815250508481600181518110614c9857fe5b6001600160a01b03909216602092830291909101909101528351806001600160401b0381118015614cc857600080fd5b50604051908082528060200260200182016040528015614cf2578160200160208202803683370190505b509350614cfd619044565b614d05616d43565b905060005b828110156115a4576060614d248b89848151811061148357fe5b604051637c26833760e11b81529091506001600160a01b0387169063f84d066e90614d5a9060019085908a90899060040161b803565b600060405180830381600087803b158015614d7457600080fd5b505af1925050508015614da957506040513d6000823e601f3d908101601f19168201604052614da6919081019061a4d5565b60015b614dd7573d808015611543576040519150601f19603f3d011682016040523d82523d6000602084013e611548565b600081600081518110614de657fe5b6020026020010151905060008113614e00575050506115a4565b80898581518110614e0d57fe5b602002602001018181525050505050600101614d0a565b8051606090806001600160401b0381118015614e3f57600080fd5b50604051908082528060200260200182016040528015614e69578160200160208202803683370190505b50915060005b81811015611e8657866001600160a01b031663343fbcdd62061a808888888681518110614e9857fe5b60200260200101516040518563ffffffff1660e01b8152600401614ebe9392919061b76a565b60206040518083038187803b158015614ed657600080fd5b5086fa93505050508015614f07575060408051601f3d908101601f19168201909252614f049181019061a5cb565b60015b614f35573d808015611e36576040519150601f19603f3d011682016040523d82523d6000602084013e611e3b565b80848381518110614f4257fe5b602002602001018181525050838281518110614f5a57fe5b602002602001015160001415614f705750611e86565b50600101614e6f565b6000806060614f888587616d72565b8351806001600160401b0381118015614fa057600080fd5b50604051908082528060200260200182016040528015614fca578160200160208202803683370190505b509150614fd9898989896186fe565b945092506001600160a01b038316614ff157506150ab565b60005b818110156150a85760006150628986886040516020016150169392919061b40e565b60405160208183030381529060405289878960405160200161503a9392919061b40e565b60405160208183030381529060405289858151811061505557fe5b6020026020010151618853565b90508084838151811061507157fe5b60200260200101818152505083828151811061508957fe5b60200260200101516000141561509f57506150a8565b50600101614ff4565b50505b955095509592505050565b8051606090806001600160401b03811180156150d157600080fd5b506040519080825280602002602001820160405280156150fb578160200160208202803683370190505b5091506000866001600160a01b031663182df0f56040518163ffffffff1660e01b815260040160206040518083038186803b15801561513957600080fd5b505afa15801561514d573d6000803e3d6000fd5b505050506040513d601f19601f82011682018060405250810190615171919061a5cb565b90506000876001600160a01b031663313ce5676040518163ffffffff1660e01b815260040160206040518083038186803b1580156151ae57600080fd5b505afa1580156151c2573d6000803e3d6000fd5b505050506040513d601f19601f820116820180604052508101906151e6919061ab9f565b60ff169050876001600160a01b0316866001600160a01b031614156152585760005b83811015610d19578282600a0a6402540be40088848151811061522757fe5b602002602001015102028161523857fe5b0485828151811061524557fe5b6020908102919091010152600101615208565b876001600160a01b0316876001600160a01b03161415610d8e5760005b83811015610d8c5781600a0a6402540be400028387838151811061529557fe5b602002602001015102816152a557fe5b048582815181106152b257fe5b6020908102919091010152600101615275565b600060606152d38486616d72565b8251806001600160401b03811180156152eb57600080fd5b50604051908082528060200260200182016040528015615315578160200160208202803683370190505b50915060005b8181101561538a57600061534489898989868151811061533757fe5b6020026020010151614a12565b90508084838151811061535357fe5b60200260200101818152505083828151811061536b57fe5b602002602001015160001415615381575061538a565b5060010161531b565b5060405163901754d760e01b81526001600160a01b0388169063901754d7906153b9908990899060040161b316565b60206040518083038186803b1580156153d157600080fd5b505afa1580156153e5573d6000803e3d6000fd5b505050506040513d601f19601f820116820180604052508101906154099190619ea6565b92505094509492505050565b604080516060818101909252611a36908061543486896080840161b316565b6040516020818303038152906040528152602001868860405160200161545b92919061b316565b604051602081830303815290604052815260200161894581525083617397565b606082516001600160401b038111801561549457600080fd5b506040519080825280602002602001820160405280156154be578160200160208202803683370190505b50905060005b8351811461357e577f00000000000000000000000000000000000000000000000000000000000000006001600160a01b031684828151811061550257fe5b60200260200101516001600160a01b03161461554c576155478385838151811061552857fe5b60200260200101516001600160a01b031661898c90919063ffffffff16565b615558565b826001600160a01b0316315b82828151811061556457fe5b60209081029190910101526001016154c4565b604080516060818101909252611a36908061559686896080840161b316565b604051602081830303815290604052815260200186886040516020016155bd92919061b316565b6040516020818303038152906040528152602001618a5681525083617397565b60606155e98385616d72565b8151806001600160401b038111801561560157600080fd5b5060405190808252806020026020018201604052801561562b578160200160208202803683370190505b50915060006001600160a01b0386161561564e576156498787616e43565b615651565b60005b905060006001600160a01b038616156156735761566e8887616e43565b615676565b60005b905060005b83811015610d8c5760016001600160a01b0388166156cc576156ab846395b68fe760e01b89858151811061167f57fe5b8784815181106156b757fe5b60200260200101819350828152505050615766565b6001600160a01b0389166156f2576156ab8363cd7724c360e01b89858151811061167f57fe5b600061570c856395b68fe760e01b8a868151811061167f57fe5b925090508015615749576157288463cd7724c360e01b83616ec2565b88858151811061573457fe5b60200260200101819450828152505050615764565b600087848151811061575757fe5b6020026020010181815250505b505b801580615786575085828151811061577a57fe5b60200260200101516000145b156157915750610d8c565b5060010161567b565b8051606090806001600160401b03811180156157b557600080fd5b506040519080825280602002602001820160405280156157df578160200160208202803683370190505b50915060005b8181101561200b57856001600160a01b0316631f00ca74620249f086848151811061580c57fe5b6020026020010151886040518463ffffffff1660e01b815260040161583292919061b9a2565b60006040518083038187803b15801561584a57600080fd5b5086fa9350505050801561588057506040513d6000823e601f3d908101601f1916820160405261587d919081019061a579565b60015b6158ae573d808015611fa4576040519150601f19603f3d011682016040523d82523d6000602084013e611fa9565b806000815181106158bb57fe5b60200260200101518483815181106158cf57fe5b6020026020010181815250508382815181106158e757fe5b6020026020010151600014156158fd575061200b565b506001016157e5565b8051606090806001600160401b038111801561592157600080fd5b5060405190808252806020026020018201604052801561594b578160200160208202803683370190505b509150615956619044565b61595e616d43565b905060005b82811015610d8e5784818151811061597757fe5b60200260200101518760008151811061598c57fe5b602090810291909101015160600152604051637c26833760e11b81526001600160a01b0389169063f84d066e906159ce906000908b908b90889060040161b803565b600060405180830381600087803b1580156159e857600080fd5b505af1925050508015615a1d57506040513d6000823e601f3d908101601f19168201604052615a1a919081019061a4d5565b60015b615a2657610d8e565b600081600183510381518110615a3857fe5b602002602001015160001902905060008113615a55575050610d8e565b80868481518110615a6257fe5b6020026020010181815250505050600101615963565b6000606080615a878587616d72565b615a928787876184b0565b925082615a9e57611208565b60405163276fdad960e11b81523090634edfb5b290615ac7908a9087908b908b9060040161b93a565b60006040518083038186803b158015615adf57600080fd5b505afa158015615af3573d6000803e3d6000fd5b505050506040513d6000823e601f3d908101601f19168201604052615b1b919081019061a5e9565b608088018190528451909250806001600160401b0381118015615b3d57600080fd5b50604051908082528060200260200182016040528015615b67578160200160208202803683370190505b50915060005b81811015615c52576000306001600160a01b031663f1ed7fa48b8b8b8b8781518110615b9557fe5b60200260200101516040518563ffffffff1660e01b8152600401615bbc949392919061b91a565b60206040518083038186803b158015615bd457600080fd5b505afa158015615be8573d6000803e3d6000fd5b505050506040513d601f19601f82011682018060405250810190615c0c919061a5cb565b905080848381518110615c1b57fe5b602002602001018181525050838281518110615c3357fe5b602002602001015160001415615c495750615c52565b50600101615b6d565b50509450945094915050565b6000806060615c6d8587616d72565b615c79888888886186fe565b935091506001600160a01b038216615c90576150ab565b8351806001600160401b0381118015615ca857600080fd5b50604051908082528060200260200182016040528015615cd2578160200160208202803683370190505b506040805160608101909152909250615d3f9080615cf6898789156080850161b40e565b6040516020818303038152906040528152602001898688604051602001615d1f9392919061b40e565b604051602081830303815290604052815260200161885381525086617397565b915050955095509592505050565b6000806060615d5c8587616d72565b8351806001600160401b0381118015615d7457600080fd5b50604051908082528060200260200182016040528015615d9e578160200160208202803683370190505b508851604051630939d86360e11b81529193506001600160a01b031690631273b0c690615dd1908a908a9060040161b316565b60206040518083038186803b158015615de957600080fd5b505afa158015615dfd573d6000803e3d6000fd5b505050506040513d601f19601f82011682018060405250810190615e219190619ea6565b925060006001600160a01b03841615615e3f57506001935086615ede565b8851604051630939d86360e11b81526001600160a01b0390911690631273b0c690615e70908a908c9060040161b316565b60206040518083038186803b158015615e8857600080fd5b505afa158015615e9c573d6000803e3d6000fd5b505050506040513d601f19601f82011682018060405250810190615ec09190619ea6565b93506001600160a01b038416615ed7575050611208565b5060009350855b836001600160a01b031663dd58b41c6040518163ffffffff1660e01b815260040160206040518083038186803b158015615f1757600080fd5b505afa158015615f2b573d6000803e3d6000fd5b505050506040513d601f19601f82011682018060405250810190615f4f919061a5ad565b615f5a575050611208565b615fd260405180606001604052808987858e60200151604051602001615f83949392919061b331565b60405160208183030381529060405281526020018a87858e60200151604051602001615fb2949392919061b331565b60405160208183030381529060405281526020016175a981525087617397565b925050509450945094915050565b606083516001600160401b0381118015615ff957600080fd5b50604051908082528060200260200182016040528015616023578160200160208202803683370190505b50905060005b845181146110aa577f00000000000000000000000000000000000000000000000000000000000000006001600160a01b031685828151811061606757fe5b60200260200101516001600160a01b0316146160b3576160ae848487848151811061608e57fe5b60200260200101516001600160a01b0316618b0b9092919063ffffffff16565b6160b6565b60005b8282815181106160c257fe5b6020908102919091010152600101616029565b8051606090806001600160401b03811180156160f057600080fd5b5060405190808252806020026020018201604052801561611a578160200160208202803683370190505b50915060005b81811015611e8657866001600160a01b031663838e6a22620493e0888888868151811061614957fe5b60200260200101516040518563ffffffff1660e01b815260040161616f9392919061b470565b60206040518083038187803b15801561618757600080fd5b5086fa935050505080156161b8575060408051601f3d908101601f191682019092526161b59181019061a5cb565b60015b6161e6573d808015611e36576040519150601f19603f3d011682016040523d82523d6000602084013e611e3b565b808483815181106161f357fe5b60200260200101818152505050600101616120565b600084608001515160001415616220575060006119c8565b84604001516001600160a01b031663418436bc6207a12087606001516001600160a01b0316876001600160a01b03161461625a5786616270565b73eeeeeeeeeeeeeeeeeeeeeeeeeeeeeeeeeeeeeeee5b88606001516001600160a01b0316876001600160a01b03161461629357866162a9565b73eeeeeeeeeeeeeeeeeeeeeeeeeeeeeeeeeeeeeeee5b8660008b608001516040518763ffffffff1660e01b81526004016162d195949392919061b498565b60206040518083038187803b1580156162e957600080fd5b5086fa9350505050801561631a575060408051601f3d908101601f191682019092526163179181019061a5cb565b60015b616358573d808015616348576040519150601f19603f3d011682016040523d82523d6000602084013e61634d565b606091505b5060009150506119c8565b600061636385618bd7565b60ff169050600061637387618bd7565b60ff169050670de0b6b3a764000081600a0a83600a0a878602028161639457fe5b048161639c57fe5b0493505050506119c8565b600060606163b58486616d72565b8251806001600160401b03811180156163cd57600080fd5b506040519080825280602002602001820160405280156163f7578160200160208202803683370190505b5091506164626040518060600160405280898860405160200161641b92919061b316565b6040516020818303038152906040528152602001898960405160200161644292919061b316565b6040516020818303038152906040528152602001618be281525085617397565b60405163901754d760e01b81529092506001600160a01b0388169063901754d7906153b9908990899060040161b316565b8051606090806001600160401b03811180156164ae57600080fd5b506040519080825280602002602001820160405280156164d8578160200160208202803683370190505b50915060005b8181101561200b57856001600160a01b03166343c2e2f58660008151811061650257fe5b60200260200101518760018151811061651757fe5b602002602001015187858151811061652b57fe5b60200260200101516040518463ffffffff1660e01b81526004016165519392919061b470565b604080518083038186803b15801561656857600080fd5b505afa925050508015616598575060408051601f3d908101601f191682019092526165959181019061aac3565b60015b6165c6573d808015611fa4576040519150601f19603f3d011682016040523d82523d6000602084013e611fa9565b818584815181106165d357fe5b6020026020010181815250508483815181106165eb57fe5b60200260200101516000141561660257505061200b565b50506001016164de565b6166146190b2565b61661c6190b2565b6000198060005b8651811461671857616653602088838151811061663c57fe5b6020026020010151510387898481518110613e9d57fe5b60006060306001600160a01b031689848151811061666d57fe5b6020026020010151604051616682919061b2e1565b6000604051808303816000865af19150503d80600081146166bf576040519150601f19603f3d011682016040523d82523d6000602084013e6166c4565b606091505b5091509150811561670e5760006166e860208351038361845090919063ffffffff16565b90506000811180156166f957508481105b1561670c57838752602087018290529350835b505b5050600101616623565b506000198114156167295750614065565b60005b87518114612aa25761675c602089838151811061674557fe5b60200260200101515103838a8481518110613e9d57fe5b60006060306001600160a01b03168a848151811061677657fe5b602002602001015160405161678b919061b2e1565b6000604051808303816000865af19150503d80600081146167c8576040519150601f19603f3d011682016040523d82523d6000602084013e6167cd565b606091505b509150915081156168175760006167f160208351038361845090919063ffffffff16565b905060008111801561680257508581105b1561681557838852602088018290529450845b505b505060010161672c565b60606000836001600160a01b031663c45a01556040518163ffffffff1660e01b815260040160206040518083038186803b15801561685e57600080fd5b505afa158015616872573d6000803e3d6000fd5b505050506040513d601f19601f820116820180604052508101906168969190619ea6565b905060018351036001600160401b03811180156168b257600080fd5b506040519080825280602002602001820160405280156168dc578160200160208202803683370190505b50915060005b8251811015616b08576060826001600160a01b0316635b1dc86f620249f087858151811061690c57fe5b602002602001015188866001018151811061692357fe5b60200260200101516040518463ffffffff1660e01b815260040161694892919061b316565b60006040518083038187803b15801561696057600080fd5b5086fa9350505050801561699657506040513d6000823e601f3d908101601f19168201604052616993919081019061a2ad565b60015b616a04573d8080156169c4576040519150601f19603f3d011682016040523d82523d6000602084013e6169c9565b606091505b506000805b506040519080825280602002602001820160405280156169f8578160200160208202803683370190505b50945050505050616b0b565b8051616a12576000806169ce565b6000805b8251811015616afc576000838281518110616a2d57fe5b60200260200101516001600160a01b03166318160ddd6040518163ffffffff1660e01b815260040160206040518083038186803b158015616a6d57600080fd5b505afa158015616a81573d6000803e3d6000fd5b505050506040513d601f19601f82011682018060405250810190616aa5919061a5cb565b905082811115616af357809250838281518110616abe57fe5b6020026020010151888781518110616ad257fe5b60200260200101906001600160a01b031690816001600160a01b0316815250505b50600101616a16565b505050506001016168e2565b50505b92915050565b6000606085600001516001600160a01b03166321f8a72187600001516001600160a01b0316639232494e6040518163ffffffff1660e01b815260040160206040518083038186803b158015616b6557600080fd5b505afa158015616b79573d6000803e3d6000fd5b505050506040513d601f19601f82011682018060405250810190616b9d919061a5cb565b6040518263ffffffff1660e01b8152600401616bb9919061b6f2565b60206040518083038186803b158015616bd157600080fd5b505afa158015616be5573d6000803e3d6000fd5b505050506040513d601f19601f82011682018060405250810190616c099190619ea6565b915085602001515160001415616c1e57616d3a565b6000805b876020015151811015616d3757600288602001518281518110616c4157fe5b6020026020010151511015616c5557616d2f565b836001600160a01b0316637f9c0ecd620493e08a602001518481518110616c7857fe5b60200260200101518860018a510381518110616c9057fe5b60200260200101516040518463ffffffff1660e01b8152600401616cb592919061b650565b60206040518083038187803b158015616ccd57600080fd5b5086fa93505050508015616cfe575060408051601f3d908101601f19168201909252616cfb9181019061a5cb565b60015b616d0757616d2f565b82811115616d2d5780925088602001518281518110616d2257fe5b602002602001015193505b505b600101616c22565b50505b94509492505050565b616d4b619044565b50604080516080810182523080825260006020830181905292820152606081019190915290565b806001600160a01b0316826001600160a01b03161415616dad5760405162461bcd60e51b8152600401616da49061b88c565b60405180910390fd5b5050565b604080516001808252818301909252606091829190816020015b616dd36190ee565b815260200190600190039081616dcb5790505090506040518060a001604052808560000151815260200160008152602001600181526020018481526020016040518060200160405280600081525081525081600081518110616e3157fe5b60209081029190910101529392505050565b6040516303795fb160e11b81526000906001600160a01b038416906306f2bf6290616e7290859060040161b2ed565b60206040518083038186803b158015616e8a57600080fd5b505afa158015616e9e573d6000803e3d6000fd5b505050506040513d601f19601f8201168201806040525081019061378f9190619ea6565b6000806001600160a01b038516616ed857610f37565b6060856001600160a01b0316620249f08686604051602401616efa919061b6f2565b60408051601f198184030181529181526020820180516001600160e01b03166001600160e01b0319909416939093179092529051616f38919061b2e1565b6000604051808303818686fa925050503d8060008114616f74576040519150601f19603f3d011682016040523d82523d6000602084013e616f79565b606091505b5090925090508115616f9c5780806020019051810190616f99919061a5cb565b92505b50935093915050565b600080600080846001600160a01b031663d9638d368b602001516040518263ffffffff1660e01b8152600401616fdb919061b6f2565b60a06040518083038186803b158015616ff357600080fd5b505afa158015617007573d6000803e3d6000fd5b505050506040513d601f19601f8201168201806040525081019061702b919061ab37565b94509450505092506000620f424090508a604001516001600160a01b0316896001600160a01b0316141561715357600061706a8964e8d4a51000618c32565b9050600061708e6b033b2e3c9fd0803ce80000006170888885618c68565b90618c32565b90508481106170a65760009650505050505050613aeb565b6000617135670de0b6b3a764000061712f8c6001600160a01b031663568d4b6f6040518163ffffffff1660e01b815260040160206040518083038186803b1580156170f057600080fd5b505afa158015617104573d6000803e3d6000fd5b505050506040513d601f19601f82011682018060405250810190617128919061a5cb565b8690618c32565b90618c84565b905060006171438483618cae565b9850613aeb975050505050505050565b8a604001516001600160a01b03168a6001600160a01b0316141561725357878481111561718857600095505050505050613aeb565b60006171a46b033b2e3c9fd0803ce80000006170888885618cae565b90508381116171bc5760009650505050505050613aeb565b60006172418a6001600160a01b031663fae036d56040518163ffffffff1660e01b815260040160206040518083038186803b1580156171fa57600080fd5b505afa15801561720e573d6000803e3d6000fd5b505050506040513d601f19601f82011682018060405250810190617232919061a5cb565b670de0b6b3a764000090618c68565b905060006171438261712f8688618c32565b5060009a9950505050505050505050565b60008061726f619120565b85806020019051810190617283919061a730565b9150915060008580602001905181019061729d919061a712565b905060006060306322db5ed160e21b8587866172b88c618ccd565b6040516024016172cb949392919061b8ac565b60408051601f198184030181529181526020820180516001600160e01b03166001600160e01b0319909416939093179092529051617309919061b2e1565b600060405180830381855afa9150503d8060008114617344576040519150601f19603f3d011682016040523d82523d6000602084013e617349565b606091505b5091509150816173615760009550505050505061378f565b80806020019051810190617375919061a579565b60008151811061738157fe5b6020026020010151955050505050509392505050565b606081516001600160401b03811180156173b057600080fd5b506040519080825280602002602001820160405280156173da578160200160208202803683370190505b5090508151600014156173ec57616b0b565b600061741d846000015185602001518560008151811061740857fe5b6020026020010151876040015163ffffffff16565b90508061742a5750616b0b565b60006174478560200151866000015184886040015163ffffffff16565b905080617455575050616b0b565b60005b84518110156175a0576000805b60058110156175495761748c87848151811061747d57fe5b60200260200101518587618d0e565b94508461749857617549565b6174a761271561271087618d0e565b9450846174b357617549565b60006174d089602001518a60000151888c6040015163ffffffff16565b9050806174dd5750617549565b8094508784815181106174ec57fe5b602002602001015185106175405787848151811061750657fe5b602002602001015161271089868151811061751d57fe5b60200260200101518703028161752f57fe5b049250600583116175405750617549565b50600101617465565b508015806175575750600581115b1561756257506175a0565b61758086838151811061757157fe5b60200260200101518486618d0e565b85838151811061758c57fe5b602090810291909101015250600101617458565b50505092915050565b6000806000806000878060200190518101906175c59190619efe565b9350935093509350816001600160a01b0316846001600160a01b031614156176af576040516351400f0b60e11b81526001600160a01b0384169063a2801e1690620493e090617618908a9060040161b6f2565b60206040518083038187803b15801561763057600080fd5b5086fa93505050508015617661575060408051601f3d908101601f1916820190925261765e9181019061a5cb565b60015b6176a3573d80801561768f576040519150601f19603f3d011682016040523d82523d6000602084013e617694565b606091505b5060009550505050505061378f565b945061378f9350505050565b60405163ca19ebd960e01b81526001600160a01b0382169063ca19ebd990620493e0906176189087908b9060040161b61d565b606060028284510310156177085760405162461bcd60e51b8152600401616da49061b87c565b617710619140565b5060408051608081018252606481526101f46020820152610bb8818301526127106060808301919091528251600480825260a08201909452919290919081602001602082028036833701905050905060008086868151811061776e57fe5b60200260200101519050600087876001018151811061778957fe5b6020026020010151905060005b600481101561787e5760008a6001600160a01b0316631698ee8285858a86600481106177be57fe5b60200201516040518463ffffffff1660e01b81526004016177e19392919061b742565b60206040518083038186803b1580156177f957600080fd5b505afa15801561780d573d6000803e3d6000fd5b505050506040513d601f19601f82011682018060405250810190617831919061a6ab565b905061783c81618d66565b15617875578086868060010197508151811061785457fe5b60200260200101906001600160a01b031690816001600160a01b0316815250505b50600101617796565b5050508061788e5750505061378f565b855185600201141561798457806001600160401b03811180156178b057600080fd5b506040519080825280602002602001820160405280156178e457816020015b60608152602001906001900390816178cf5790505b50935060005b8181101561797b5760408051600180825281830190925290602080830190803683370190505085828151811061791c57fe5b602002602001018190525082818151811061793357fe5b602002602001015185828151811061794757fe5b602002602001015160008151811061795b57fe5b6001600160a01b03909216602092830291909101909101526001016178ea565b5050505061378f565b60606179948888886001016176e2565b90508051600014156179a9575050505061378f565b805182026001600160401b03811180156179c257600080fd5b506040519080825280602002602001820160405280156179f657816020015b60608152602001906001900390816179e15790505b50945060005b82811015617b765760005b8251811015617b6d578251828102820190849083908110617a2457fe5b6020026020010151516001016001600160401b0381118015617a4557600080fd5b50604051908082528060200260200182016040528015617a6f578160200160208202803683370190505b50888281518110617a7c57fe5b6020026020010181905250858381518110617a9357fe5b6020026020010151888281518110617aa757fe5b6020026020010151600081518110617abb57fe5b60200260200101906001600160a01b031690816001600160a01b03168152505060005b848381518110617aea57fe5b602002602001015151811015617b6357848381518110617b0657fe5b60200260200101518181518110617b1957fe5b6020026020010151898381518110617b2d57fe5b60200260200101518260010181518110617b4357fe5b6001600160a01b0390921660209283029190910190910152600101617ade565b5050600101617a07565b506001016179fc565b50505050509392505050565b60606002835110158015617b9a575081516001018351145b617bb65760405162461bcd60e51b8152600401616da49061b89c565b81516003028351601402016001600160401b0381118015617bd657600080fd5b506040519080825280601f01601f191660200182016040528015617c01576020820181803683370190505b5090506020810160005b8451811015616b08578015617cb0576000846001830381518110617c2b57fe5b60200260200101516001600160a01b031663ddca3f436040518163ffffffff1660e01b815260040160206040518083038186803b158015617c6b57600080fd5b505afa158015617c7f573d6000803e3d6000fd5b505050506040513d601f19601f82011682018060405250810190617ca3919061aa22565b60e81b8352506003909101905b6000858281518110617cbe57fe5b602090810291909101015160601b835250601490910190600101617c0b565b60008282028315801590617cfa575082848281617cf657fe5b0414155b15617d09576000915050616b0b565b6706f05b59d3b20000810181811015617d2757600092505050616b0b565b670de0b6b3a76400009004949350505050565b606081516001600160401b0381118015617d5357600080fd5b50604051908082528060200260200182016040528015617d7d578160200160208202803683370190505b50905060005b825181101561367157826001828551030381518110617d9e57fe5b6020026020010151828281518110617db257fe5b6001600160a01b0390921660209283029190910190910152600101617d83565b606081516001600160401b0381118015617deb57600080fd5b50604051908082528060200260200182016040528015617e15578160200160208202803683370190505b50905060005b825181101561367157826001828551030381518110617e3657fe5b6020026020010151828281518110617e4a57fe5b6001600160a01b0390921660209283029190910190910152600101617e1b565b600080600085806020019051810190617e839190619ec4565b91509150600085806020019051810190617e9d9190619ea6565b90503063e8e4af09838584617eb18a618ccd565b6040518563ffffffff1660e01b8152600401617ed0949392919061b366565b60006040518083038186803b158015617ee857600080fd5b505afa925050508015617f1d57506040513d6000823e601f3d908101601f19168201604052617f1a919081019061a579565b60015b617f5e573d808015617f4b576040519150601f19603f3d011682016040523d82523d6000602084013e617f50565b606091505b50600094505050505061378f565b80600081518110617f6b57fe5b602002602001015194505050505061378f565b60006119c88361712f617f92826001618cae565b617f9c8887618c32565b90618c68565b60006012905060006060836001600160a01b031660405180604001604052806004815260200163313ce56760e01b815250604051617fe0919061b2e1565b600060405180830381855afa9150503d806000811461801b576040519150601f19603f3d011682016040523d82523d6000602084013e618020565b606091505b509150915081801561803457506020815110155b1561804757618044816000618450565b92505b5050919050565b600080606085806020019051810190618067919061a006565b90925090506000606030637b6b3ca560e11b85856180848a618ccd565b6040516024016180969392919061b50a565b60408051601f198184030181529181526020820180516001600160e01b03166001600160e01b03199094169390931790925290516180d4919061b2e1565b600060405180830381855afa9150503d806000811461810f576040519150601f19603f3d011682016040523d82523d6000602084013e618114565b606091505b50915091508161812b57600094505050505061378f565b8080602001905181019061813f919061a579565b60008151811061814b57fe5b60200260200101519450505050509392505050565b600080600080846001600160a01b031663d9638d368b602001516040518263ffffffff1660e01b8152600401618196919061b6f2565b60a06040518083038186803b1580156181ae57600080fd5b505afa1580156181c2573d6000803e3d6000fd5b505050506040513d601f19601f820116820180604052508101906181e6919061ab37565b945094505050925089604001516001600160a01b0316886001600160a01b031614156182fd5760008790506000618296886001600160a01b031663568d4b6f6040518163ffffffff1660e01b815260040160206040518083038186803b15801561824f57600080fd5b505afa158015618263573d6000803e3d6000fd5b505050506040513d601f19601f82011682018060405250810190618287919061a5cb565b670de0b6b3a764000090618cae565b905060006182b08261712f85670de0b6b3a7640000618c32565b905060006182ce6b033b2e3c9fd0803ce80000006170888985618c68565b90508581106182e7576000975050505050505050613aeb565b60006171436001617f9c8564e8d4a51000618c84565b89604001516001600160a01b0316896001600160a01b031614156183e257600061832c8864e8d4a51000618c32565b9050600061836c886001600160a01b031663fae036d56040518163ffffffff1660e01b815260040160206040518083038186803b1580156171fa57600080fd5b90506000618386670de0b6b3a764000061712f8585618c32565b90508581111561839f5760009650505050505050613aeb565b60006183bb6b033b2e3c9fd0803ce80000006170888985618cae565b90508481116183d4576000975050505050505050613aeb565b509550613aeb945050505050565b5060009998505050505050505050565b600080600060608680602001905181019061840d9190619f5f565b919450925090506000606030634092e6b160e01b86868661842d8c618ccd565b6040516024016172cb949392919061b3cd565b61844b838383618f72565b505050565b600061378f8383618f99565b600080618467619120565b8580602001905181019061847b919061a730565b91509150600085806020019051810190618495919061a712565b9050600060603063205e01d760e11b8587866172b88c618ccd565b600080846020015190506060816001600160a01b031663910ffc7187606001516001600160a01b0316876001600160a01b0316146184ee5786618504565b73eeeeeeeeeeeeeeeeeeeeeeeeeeeeeeeeeeeeeeee5b88606001516001600160a01b0316876001600160a01b031614618527578661853d565b73eeeeeeeeeeeeeeeeeeeeeeeeeeeeeeeeeeeeeeee5b604080516000815260208101918290526001600160e01b031960e086901b169091526185719291906001906024810161b436565b60006040518083038186803b15801561858957600080fd5b505afa15801561859d573d6000803e3d6000fd5b505050506040513d6000823e601f3d908101601f191682016040526185c5919081019061a2e1565b5050905080518660000151106185e157506000915061378f9050565b808660000151815181106185f157fe5b6020026020010151925060f883901c60001c60bb141561200b57506000915061378f9050565b60008061862261915e565b84806020019051810190618636919061a04d565b91509150600086806020019051810190618650919061a04d565b50604051633c7b5fe960e21b8152909150309063f1ed7fa49061867d908590859088908b9060040161b91a565b60206040518083038186803b15801561869557600080fd5b505afa9250505080156186c5575060408051601f3d908101601f191682019092526186c29181019061a5cb565b60015b6186f3573d808015617f4b576040519150601f19603f3d011682016040523d82523d6000602084013e617f50565b935061378f92505050565b6000806060866001600160a01b03166357a281dc86866040518363ffffffff1660e01b815260040161873192919061b316565b60006040518083038186803b15801561874957600080fd5b505afa15801561875d573d6000803e3d6000fd5b505050506040513d6000823e601f3d908101601f19168201604052618785919081019061a2ad565b90506001915080516000141561881e576040516315e8a07760e21b81526001600160a01b038816906357a281dc906187c3908790899060040161b316565b60006040518083038186803b1580156187db57600080fd5b505afa1580156187ef573d6000803e3d6000fd5b505050506040513d6000823e601f3d908101601f19168201604052618817919081019061a2ad565b9050600091505b80518610618833576000809250925050616d3a565b80868151811061883f57fe5b602002602001015192505094509492505050565b6000806000808680602001905181019061886d9190619fc3565b925092509250801561891157604051633cd0243b60e11b81526001600160a01b038316906379a0487690620493e0906188ad906000908a9060040161b2fb565b604080518083038187803b1580156188c457600080fd5b5086fa935050505080156188f5575060408051601f3d908101601f191682019092526188f29181019061aac3565b60015b618905576000935050505061378f565b50935061378f92505050565b6040516366410a2160e01b81526001600160a01b038316906366410a2190620493e0906188ad906000908a9060040161b2fb565b60008060008580602001905181019061895e9190619ec4565b915091506000858060200190518101906189789190619ea6565b9050306330d6570d838584617eb18a618ccd565b6000806060846001600160a01b03166370a0823160e01b856040516024016189b4919061b2ed565b60408051601f198184030181529181526020820180516001600160e01b03166001600160e01b03199094169390931790925290516189f2919061b2e1565b600060405180830381855afa9150503d8060008114618a2d576040519150601f19603f3d011682016040523d82523d6000602084013e618a32565b606091505b5091509150818015618a4657506020815110155b15616b0857611a36816000618450565b600080600085806020019051810190618a6f9190619ec4565b91509150600085806020019051810190618a899190619ea6565b90503063a469841762061a80848685618aa18b618ccd565b6040518663ffffffff1660e01b8152600401618ac0949392919061b366565b60006040518083038187803b158015618ad857600080fd5b5086fa93505050508015617f1d57506040513d6000823e601f3d908101601f19168201604052617f1a919081019061a579565b6000806060856001600160a01b031663dd62ed3e60e01b8686604051602401618b3592919061b316565b60408051601f198184030181529181526020820180516001600160e01b03166001600160e01b0319909416939093179092529051618b73919061b2e1565b600060405180830381855afa9150503d8060008114618bae576040519150601f19603f3d011682016040523d82523d6000602084013e618bb3565b606091505b5091509150818015618bc757506020815110155b1561200b57613aeb816000618450565b6000616b0b82617fa2565b600080600085806020019051810190618bfb9190619ec4565b9150915060008086806020019051810190618c169190619ec4565b91509150618c2684848389614a12565b98975050505050505050565b600082618c4157506000616b0b565b82820282848281618c4e57fe5b041461378f5761378f618c6360018686618fc3565b61901d565b60008282018381101561378f5761378f618c6360008686618fc3565b600081618c9a57618c9a618c6360038585618fc3565b6000828481618ca557fe5b04949350505050565b600082821115618cc757618cc7618c6360028585618fc3565b50900390565b604080516001808252818301909252606091602080830190803683370190505090508181600081518110618cfd57fe5b602002602001018181525050919050565b6000831580618d1b575081155b80618d24575082155b15618d315750600061378f565b83820282858281618d3e57fe5b0414618d4e57600091505061378f565b8360018503820181618d5c57fe5b0495945050505050565b6000813b80618d79576000915050611217565b50816001600160a01b0316630dfe16816040518163ffffffff1660e01b815260040160206040518083038186803b158015618db357600080fd5b505afa158015618dc7573d6000803e3d6000fd5b505050506040513d601f19601f82011682018060405250810190618deb919061a6ab565b6001600160a01b03166370a08231836040518263ffffffff1660e01b8152600401618e16919061b2ed565b60206040518083038186803b158015618e2e57600080fd5b505afa158015618e42573d6000803e3d6000fd5b505050506040513d601f19601f82011682018060405250810190618e66919061a5cb565b618e7257506000611217565b816001600160a01b031663d21220a76040518163ffffffff1660e01b815260040160206040518083038186803b158015618eab57600080fd5b505afa158015618ebf573d6000803e3d6000fd5b505050506040513d601f19601f82011682018060405250810190618ee3919061a6ab565b6001600160a01b03166370a08231836040518263ffffffff1660e01b8152600401618f0e919061b2ed565b60206040518083038186803b158015618f2657600080fd5b505afa158015618f3a573d6000803e3d6000fd5b505050506040513d601f19601f82011682018060405250810190618f5e919061a5cb565b618f6a57506000611217565b506001919050565b8160200183511015618f9157618f91618c636005855185602001619025565b910160200152565b60008160200183511015618fba57618fba618c636005855185602001619025565b50016020015190565b606063e946c1bb60e01b848484604051602401618fe29392919061b7da565b60408051601f198184030181529190526020810180516001600160e01b03166001600160e01b03199093169290921790915290509392505050565b805160208201fd5b6060632800659560e01b848484604051602401618fe29392919061b7f5565b60408051608081018252600080825260208201819052918101829052606081019190915290565b6040518060a0016040528060008152602001600081526020016000815260200160008152602001600081525090565b60408051808201909152606081526000602082015290565b604051806040016040528060008152602001606081525090565b6040805160608101909152600080825260208201908152600060209091015290565b6040518060a0016040528060008019168152602001600081526020016000815260200160008152602001606081525090565b604080516060810182526000808252602082018190529181019190915290565b60405180608001604052806004906020820280368337509192915050565b6040518060a001604052806000815260200160006001600160a01b0316815260200160006001600160a01b0316815260200160006001600160a01b03168152602001606081525090565b8035616b0b8161bc2c565b8051616b0b8161bc2c565b600082601f8301126191cf57600080fd5b81356191e26191dd8261baae565b61ba88565b9150818183526020840193506020810190508385602084028201111561920757600080fd5b60005b83811015619233578161921d88826191a8565b845250602092830192919091019060010161920a565b5050505092915050565b600082601f83011261924e57600080fd5b815161925c6191dd8261baae565b9150818183526020840193506020810190508385602084028201111561928157600080fd5b60005b83811015619233578161929788826191b3565b8452506020928301929190910190600101619284565b600082601f8301126192be57600080fd5b81356192cc6191dd8261baae565b81815260209384019390925082018360005b8381101561923357813586016192f488826191be565b84525060209283019291909101906001016192de565b600082601f83011261931b57600080fd5b81516193296191dd8261baae565b9150818183526020840193506020810190508385602084028201111561934e57600080fd5b60005b8381101561923357816193648882619818565b8452506020928301929190910190600101619351565b60008083601f84011261938c57600080fd5b5081356001600160401b038111156193a357600080fd5b6020830191508360208202830111156193bb57600080fd5b9250929050565b600082601f8301126193d357600080fd5b81356193e16191dd8261baae565b81815260209384019390925082018360005b8381101561923357813586016194098882619839565b84525060209283019291909101906001016193f3565b600082601f83011261943057600080fd5b813561943e6191dd8261baae565b9150818183526020840193506020810190508385602084028201111561946357600080fd5b60005b83811015619233578161947988826198c5565b8452506020928301929190910190600101619466565b600082601f8301126194a057600080fd5b81516194ae6191dd8261baae565b915081818352602084019350602081019050838560208402820111156194d357600080fd5b60005b8381101561923357816194e98882619818565b84525060209283019291909101906001016194d6565b600082601f83011261951057600080fd5b813561951e6191dd8261baae565b81815260209384019390925082018360005b83811015619233578135860161954688826199ab565b8452506020928301929190910190600101619530565b600082601f83011261956d57600080fd5b813561957b6191dd8261baae565b91508181835260208401935060208101905083856101808402820111156195a157600080fd5b60005b8381101561923357816195b78882619c0a565b84525060209092019161018091909101906001016195a4565b600082601f8301126195e157600080fd5b81356195ef6191dd8261baae565b9150818183526020840193506020810190508385608084028201111561961457600080fd5b60005b83811015619233578161962a8882619dc1565b84525060209092019160809190910190600101619617565b600082601f83011261965357600080fd5b81516196616191dd8261baae565b9150818183526020840193506020810190508385602084028201111561968657600080fd5b60005b83811015619233578161969c8882619e46565b8452506020928301929190910190600101619689565b600082601f8301126196c357600080fd5b81356196d16191dd8261baae565b915081818352602084019350602081019050838560208402820111156196f657600080fd5b60005b83811015619233578161970c888261980d565b84525060209283019291909101906001016196f9565b600082601f83011261973357600080fd5b81516197416191dd8261baae565b9150818183526020840193506020810190508385602084028201111561976657600080fd5b60005b83811015619233578161977c8882619818565b8452506020928301929190910190600101619769565b600082601f8301126197a357600080fd5b81516197b16191dd8261baae565b915081818352602084019350602081019050838560208402820111156197d657600080fd5b60005b8381101561923357816197ec8882619e5c565b84525060209283019291909101906001016197d9565b8051616b0b8161bc40565b8035616b0b8161bc49565b8051616b0b8161bc49565b8035616b0b8161bc52565b8051616b0b8161bc52565b600082601f83011261984a57600080fd5b81356198586191dd8261bace565b9150808252602083016020830185838301111561987457600080fd5b6175a083828461bbc9565b600082601f83011261989057600080fd5b815161989e6191dd8261bace565b915080825260208301602083018583830111156198ba57600080fd5b6175a083828461bbd5565b8035616b0b8161bc5b565b8051616b0b8161bc5b565b8051616b0b8161bc64565b8051616b0b8161bc71565b8035616b0b8161bc7e565b8035616b0b8161bc8b565b8051616b0b8161bc8b565b60006040828403121561992457600080fd5b61992e604061ba88565b9050600061993c848461980d565b825250602061994d848483016191a8565b60208301525092915050565b60006040828403121561996b57600080fd5b619975604061ba88565b9050600061998384846198c5565b82525060208201356001600160401b0381111561999f57600080fd5b61994d848285016192ad565b600060a082840312156199bd57600080fd5b6199c760a061ba88565b905060006199d5848461980d565b82525060206199e68484830161980d565b60208301525060406199fa8482850161980d565b6040830152506060619a0e8482850161980d565b60608301525060808201356001600160401b03811115619a2d57600080fd5b619a3984828501619839565b60808301525092915050565b600060608284031215619a5757600080fd5b619a61606061ba88565b90506000619a6f84846191a8565b8252506020619a8084848301619823565b6020830152506040619a9484828501619823565b60408301525092915050565b600060608284031215619ab257600080fd5b619abc606061ba88565b90506000619aca84846191b3565b8252506020619adb8484830161982e565b6020830152506040619a948482850161982e565b600060408284031215619b0157600080fd5b619b0b604061ba88565b9050600061993c84846191a8565b600060a08284031215619b2b57600080fd5b619b3560a061ba88565b90506000619b43848461980d565b8252506020619b54848483016191a8565b6020830152506040619b68848285016191a8565b6040830152506060619a0e848285016191a8565b600060a08284031215619b8e57600080fd5b619b9860a061ba88565b90506000619ba68484619818565b8252506020619bb7848483016191b3565b6020830152506040619bcb848285016191b3565b6040830152506060619bdf848285016191b3565b60608301525060808201516001600160401b03811115619bfe57600080fd5b619a398482850161987f565b60006101808284031215619c1d57600080fd5b619c2861018061ba88565b90506000619c3684846198c5565b8252506020619c47848483016198c5565b6020830152506040619c5b84828501619e30565b6040830152506060619c6f84828501619e30565b6060830152506080619c8384828501619e30565b60808301525060a0619c97848285016191a8565b60a08301525060c0619cab848285016191a8565b60c08301525060e0619cbf848285016191a8565b60e083015250610100619cd4848285016191a8565b61010083015250610120619cea8482850161980d565b61012083015250610140619d0084828501619e67565b61014083015250610160619d168482850161980d565b6101608301525092915050565b600060608284031215619d3557600080fd5b619d3f606061ba88565b90506000619d4d84846191a8565b8252506020619d5e8484830161980d565b6020830152506040619a94848285016191a8565b600060608284031215619d8457600080fd5b619d8e606061ba88565b90506000619d9c8484619818565b8252506020619dad848483016198db565b6020830152506040619a9484828501619e3b565b600060808284031215619dd357600080fd5b619ddd608061ba88565b90506000619deb84846198f1565b8252506020619dfc84848301619e72565b6020830152506040619e108482850161980d565b6040830152506060619e248482850161980d565b60608301525092915050565b8035616b0b8161bc94565b8051616b0b8161bc94565b8051616b0b8161bc9d565b8051616b0b8161bca6565b8051616b0b8161bcaf565b8035616b0b8161bcb8565b8035616b0b8161bcc1565b8051616b0b8161bcc1565b600060208284031215619e9a57600080fd5b60006119c884846191a8565b600060208284031215619eb857600080fd5b60006119c884846191b3565b60008060408385031215619ed757600080fd5b6000619ee385856191b3565b9250506020619ef4858286016191b3565b9150509250929050565b60008060008060808587031215619f1457600080fd5b6000619f2087876191b3565b9450506020619f31878288016191b3565b9350506040619f42878288016191b3565b9250506060619f53878288016191b3565b91505092959194509250565b600080600060608486031215619f7457600080fd5b6000619f8086866191b3565b9350506020619f91868287016191b3565b92505060408401516001600160401b03811115619fad57600080fd5b619fb98682870161923d565b9150509250925092565b600080600060608486031215619fd857600080fd5b6000619fe486866191b3565b9350506020619ff5868287016191b3565b9250506040619fb986828701619802565b6000806040838503121561a01957600080fd5b600061a02585856191b3565b92505060208301516001600160401b0381111561a04157600080fd5b619ef48582860161923d565b6000806040838503121561a06057600080fd5b600061a06c85856191b3565b92505060208301516001600160401b0381111561a08857600080fd5b619ef485828601619b7c565b6000806000806080858703121561a0aa57600080fd5b600061a0b687876191a8565b945050602061a0c7878288016191a8565b935050604061a0d8878288016191a8565b92505060608501356001600160401b0381111561a0f457600080fd5b619f53878288016196b2565b6000806000806080858703121561a11657600080fd5b600061a12287876191a8565b945050602061a133878288016191a8565b935050604061a144878288016191a8565b9250506060619f538782880161980d565b6000806000806080858703121561a16b57600080fd5b600061a17787876191a8565b945050602061a188878288016191a8565b93505060408501356001600160401b0381111561a1a457600080fd5b61a0d8878288016191be565b60008060006060848603121561a1c557600080fd5b600061a1d186866191a8565b93505060208401356001600160401b0381111561a1ed57600080fd5b61a1f9868287016191be565b92505060408401356001600160401b0381111561a21557600080fd5b619fb9868287016196b2565b600080600080600060a0868803121561a23957600080fd5b600061a24588886191a8565b955050602061a2568882890161980d565b945050604061a267888289016191a8565b935050606061a278888289016191a8565b92505060808601356001600160401b0381111561a29457600080fd5b61a2a0888289016196b2565b9150509295509295909350565b60006020828403121561a2bf57600080fd5b81516001600160401b0381111561a2d557600080fd5b6119c88482850161923d565b60008060006060848603121561a2f657600080fd5b83516001600160401b0381111561a30c57600080fd5b61a3188682870161930a565b93505060208401516001600160401b0381111561a33457600080fd5b61a34086828701619722565b9250506040619fb9868287016198e6565b6000806020838503121561a36457600080fd5b82356001600160401b0381111561a37a57600080fd5b61a3868582860161937a565b92509250509250929050565b60008060006060848603121561a3a757600080fd5b83356001600160401b0381111561a3bd57600080fd5b61a3c9868287016193c2565b93505060208401356001600160401b0381111561a3e557600080fd5b61a3f1868287016193c2565b9250506040619fb98682870161980d565b60006020828403121561a41457600080fd5b81356001600160401b0381111561a42a57600080fd5b6119c88482850161941f565b6000806040838503121561a44957600080fd5b82356001600160401b0381111561a45f57600080fd5b61a46b8582860161941f565b9250506020619ef4858286016191a8565b60008060006060848603121561a49157600080fd5b83356001600160401b0381111561a4a757600080fd5b61a4b38682870161941f565b935050602061a4c4868287016191a8565b9250506040619fb9868287016191a8565b60006020828403121561a4e757600080fd5b81516001600160401b0381111561a4fd57600080fd5b6119c88482850161948f565b60008060006060848603121561a51e57600080fd5b83356001600160401b0381111561a53457600080fd5b61a5408682870161955c565b93505060208401356001600160401b0381111561a55c57600080fd5b61a568868287016195d0565b9250506040619fb9868287016198c5565b60006020828403121561a58b57600080fd5b81516001600160401b0381111561a5a157600080fd5b6119c884828501619722565b60006020828403121561a5bf57600080fd5b60006119c88484619802565b60006020828403121561a5dd57600080fd5b60006119c88484619818565b60006020828403121561a5fb57600080fd5b81516001600160401b0381111561a61157600080fd5b6119c88482850161987f565b6000806000806080858703121561a63357600080fd5b600061a63f87876198c5565b94505060208501356001600160401b0381111561a65b57600080fd5b61a188878288016194ff565b6000806000806080858703121561a67d57600080fd5b600061a68987876198c5565b945050602061a69a878288016198c5565b935050604061a0d8878288016198c5565b60006020828403121561a6bd57600080fd5b60006119c884846198d0565b60008060006060848603121561a6de57600080fd5b600061a6ea86866198c5565b93505060208401356001600160401b0381111561a70657600080fd5b61a1f98682870161941f565b60006020828403121561a72457600080fd5b60006119c88484619907565b6000806080838503121561a74357600080fd5b600061a74f8585619907565b9250506020619ef485828601619aa0565b60008060008060a0858703121561a77657600080fd5b600061a7828787619912565b945050604061a793878288016191a8565b935050606061a7a4878288016191a8565b92505060808501356001600160401b0381111561a0f457600080fd5b6000806000806080858703121561a7d657600080fd5b84356001600160401b0381111561a7ec57600080fd5b61a0b687828801619959565b60008060008060c0858703121561a80e57600080fd5b600061a81a8787619a45565b945050606061a82b878288016198fc565b935050608061a83c878288016198fc565b92505060a08501356001600160401b0381111561a0f457600080fd5b60008060008060a0858703121561a86e57600080fd5b600061a7828787619aef565b6000806000806080858703121561a89057600080fd5b84356001600160401b0381111561a8a657600080fd5b61a0b687828801619b19565b6000806000806080858703121561a8c857600080fd5b84356001600160401b0381111561a8de57600080fd5b61a12287828801619b19565b6000806000806080858703121561a90057600080fd5b84356001600160401b0381111561a91657600080fd5b61a92287828801619b19565b945050602061a9338782880161980d565b935050604061a944878288016191a8565b9250506060619f53878288016191a8565b6000806000610220848603121561a96b57600080fd5b600061a9778686619c0a565b93505061018061a98986828701619dc1565b925050610200619fb9868287016198c5565b60008060008060c0858703121561a9b157600080fd5b600061a9bd8787619d23565b945050606061a9ce878288016191a8565b935050608061a83c878288016191a8565b600080600060a0848603121561a9f457600080fd5b600061aa008686619d72565b935050606061aa1186828701619e3b565b9250506080619fb986828701619802565b60006020828403121561aa3457600080fd5b60006119c88484619e51565b6000806000806080858703121561aa5657600080fd5b600061aa628787619818565b94505060208501516001600160401b0381111561aa7e57600080fd5b61aa8a87828801619642565b93505060408501516001600160401b0381111561aaa657600080fd5b61aab287828801619792565b9250506060619f5387828801619818565b6000806040838503121561aad657600080fd5b600061aae28585619818565b9250506020619ef485828601619818565b6000806000806080858703121561ab0957600080fd5b600061ab158787619818565b945050602061ab2687828801619818565b935050604061aab287828801619818565b600080600080600060a0868803121561ab4f57600080fd5b600061ab5b8888619818565b955050602061ab6c88828901619818565b945050604061ab7d88828901619818565b935050606061ab8e88828901619818565b925050608061a2a088828901619818565b60006020828403121561abb157600080fd5b60006119c88484619e7d565b600061abc9838361ac10565b505060200190565b600061abc9838361ae47565b600061378f838361ae78565b600061378f838361afe9565b600061378f838361b04e565b61ac0a8161bb92565b82525050565b61ac0a8161bb08565b600061ac248261bafb565b61ac2e818561baff565b935061ac398361baf5565b8060005b8381101561ac6757815161ac51888261abbd565b975061ac5c8361baf5565b92505060010161ac3d565b509495945050505050565b600061ac7d8261bafb565b61ac87818561baff565b935061ac928361baf5565b8060005b8381101561ac6757815161acaa888261abd1565b975061acb58361baf5565b92505060010161ac96565b600061accb8261bafb565b61acd5818561baff565b93508360208202850161ace78561baf5565b8060005b8581101561ad21578484038952815161ad04858261abdd565b945061ad0f8361baf5565b60209a909a019992505060010161aceb565b5091979650505050505050565b600061ad398261bafb565b61ad43818561baff565b93508360208202850161ad558561baf5565b8060005b8581101561ad21578484038952815161ad72858261abe9565b945061ad7d8361baf5565b60209a909a019992505060010161ad59565b600061ad9a8261bafb565b61ada4818561baff565b93508360208202850161adb68561baf5565b8060005b8581101561ad21578484038952815161add3858261abf5565b945061adde8361baf5565b60209a909a019992505060010161adba565b600061adfb8261bafb565b61ae05818561baff565b935061ae108361baf5565b8060005b8381101561ac6757815161ae28888261abd1565b975061ae338361baf5565b92505060010161ae14565b61ac0a8161bb13565b61ac0a8161bb18565b61ac0a8161bb1b565b600061ae658385611217565b935061ae7283858461bbc9565b50500190565b600061ae838261bafb565b61ae8d818561baff565b935061ae9d81856020860161bbd5565b61aea68161bc01565b9093019392505050565b600061aebb8261bafb565b61aec58185611217565b935061aed581856020860161bbd5565b9290920192915050565b61ac0a8161bb28565b61ac0a8161bb9d565b61ac0a8161bba8565b61ac0a8161bbb3565b61ac0a8161bb51565b61ac0a8161bbbe565b600061af2260248361baff565b7f556e6973776170563353616d706c65722f746f6b656e5061746820746f6f20738152631a1bdc9d60e21b602082015260400192915050565b600061af6860258361baff565b7f455243323042726964676553616d706c65722f494e56414c49445f544f4b454e8152642fa820a4a960d91b602082015260400192915050565b600061afaf60258361baff565b7f556e6973776170563353616d706c65722f696e76616c69642070617468206c658152646e6774687360d81b602082015260400192915050565b805160009060a084019061affd858261ae47565b50602083015161b010602086018261ae47565b50604083015161b023604086018261ae47565b50606083015161b036606086018261ae47565b5060808301518482036080860152611a36828261ae78565b805160408084526000919084019061b066828261ae78565b91505060208301516110aa602086018261ae3e565b8051606083019061b08c848261ac10565b50602082015161b09f602085018261ae50565b50604082015161b0b2604085018261ae50565b50505050565b8051608083019061b0c9848261ac10565b50602082015161b0dc602085018261ae3e565b50604082015161b0ef604085018261ac10565b50606082015161b0b2606085018261ae3e565b8051600090604084019061b116858261ae47565b5060208301518482036020860152611a36828261ae78565b805160009060a084019061b142858261ae47565b50602083015161b155602086018261ac10565b50604083015161b168604086018261ac10565b50606083015161b036606086018261ac10565b805161018083019061b18d848261aedf565b50602082015161b1a0602085018261aedf565b50604082015161b1b3604085018261b2b0565b50606082015161b1c6606085018261b2b0565b50608082015161b1d9608085018261b2b0565b5060a082015161b1ec60a085018261ac10565b5060c082015161b1ff60c085018261ac10565b5060e082015161b21260e085018261ac10565b5061010082015161b22761010085018261ac10565b5061012082015161b23c61012085018261ae47565b5061014082015161b25161014085018261b2c2565b5061016082015161b0b261016085018261ae47565b8051608083019061b277848261aee8565b50602082015161b28a602085018261b2cb565b50604082015161b29d604085018261ae47565b50606082015161b0b2606085018261ae47565b61ac0a8161bb57565b61ac0a8161bb6f565b61ac0a8161bb80565b61ac0a8161bb8c565b60006119c882848661ae59565b600061378f828461aeb0565b60208101616b0b828461ac10565b6040810161b309828561ac01565b61378f602083018461ae47565b6040810161b324828561ac10565b61378f602083018461ac10565b6080810161b33f828761ac10565b61b34c602083018661ac10565b61b359604083018561ac10565b611a36606083018461ac10565b6080810161b374828761ac10565b61b381602083018661ac10565b61b38e604083018561ac10565b8181036060830152613aeb818461adf0565b6060810161b3ae828661ac10565b61b3bb602083018561ac10565b8181036040830152611a36818461ac19565b6080810161b3db828761ac10565b61b3e8602083018661ac10565b818103604083015261b3fa818561ac19565b90508181036060830152613aeb818461adf0565b6060810161b41c828661ac10565b61b429602083018561ac10565b6119c8604083018461ae3e565b6080810161b444828761ac10565b61b451602083018661ac10565b61b45e604083018561ae3e565b8181036060830152613aeb818461ae78565b6060810161b47e828661ac10565b61b48b602083018561ac10565b6119c8604083018461ae47565b60a0810161b4a6828861ac10565b61b4b3602083018761ac10565b61b4c0604083018661ae47565b61b4cd606083018561af0c565b818103608083015261b4df818461ae78565b979650505050505050565b6040810161b4f8828561ac10565b81810360208301526119c8818461ac19565b6060810161b518828661ac10565b818103602083015261b52a818561ac19565b90508181036040830152611a36818461adf0565b6080810161b54c828761ac10565b61b559602083018661aee8565b818103604083015261b3fa818561ac72565b610100810161b57a828b61ac10565b61b587602083018a61aee8565b818103604083015261b599818961ac72565b9050818103606083015261b5ad818861adf0565b905061b5bc608083018761ac10565b61b5c960a083018661aee8565b81810360c083015261b5db818561ac72565b905081810360e083015261b5ef818461adf0565b9a9950505050505050505050565b6040810161b60b828561ac10565b81810360208301526119c8818461b12e565b6040810161b309828561ac10565b6040808252810161b63c818561ac19565b905081810360208301526119c8818461adf0565b6040808252810161b661818561ac19565b905061378f602083018461ae47565b6060808252810161b681818661acc0565b9050818103602083015261b52a818561adf0565b6020808252810161378f818461ad8f565b6020808252810161378f818461adf0565b60208101616b0b828461ae3e565b6060810161b6d3828661ae3e565b61b6e0602083018561ac10565b8181036040830152611a36818461adf0565b60208101616b0b828461ae47565b6060810161b70e828661ae47565b818103602083015261b52a818561ae78565b6020808252810161378f818461ae78565b6040808252810161b661818561ae78565b6060810161b750828661aedf565b61b75d602083018561aedf565b6119c8604083018461b2b9565b6060810161b778828661aedf565b61b48b602083018561aedf565b6040810161b793828561aedf565b81810360208301526119c8818461adf0565b6080810161b7b3828761aedf565b61b7c0602083018661ac10565b61b7cd604083018561ac10565b611a36606083018461ae47565b6060810161b7e8828661aee8565b61b48b602083018561ae47565b6060810161b7e8828661aef1565b60e0810161b811828761aefa565b818103602083015261b823818661ad2e565b9050818103604083015261b837818561ac19565b9050611a36606083018461b0b8565b6060810161b854828661af03565b61b48b602083018561af03565b6080810161b86f828561af03565b61378f602083018461b07b565b60208082528101616b0b8161af15565b60208082528101616b0b8161af5b565b60208082528101616b0b8161afa2565b60c0810161b8ba828761b07b565b61b8c7606083018661af03565b61b8d4608083018561af03565b81810360a0830152613aeb818461adf0565b6060808252810161b8f7818661b102565b9050818103602083015261b90b818561b102565b90506119c8604083018461ae47565b6080808252810161b92b818761b12e565b905061b7c0602083018661ac10565b6080808252810161b94b818761b12e565b905061b34c602083018661ae47565b610200810161b969828561b17b565b61378f61018083018461b266565b610220810161b986828661b17b565b61b99461018083018561b266565b6119c861020083018461aedf565b6040810161b4f8828561ae47565b6060810161b9be828661ae47565b818103602083015261b9d0818561ac19565b90508181036040830152611a36818461ac19565b60c0810161b9f2828961ae47565b61b9ff602083018861ae47565b61ba0c604083018761ae47565b61ba19606083018661ae47565b61ba26608083018561ae47565b61b4df60a083018461ae47565b6000808335601e193685900301811261ba4b57600080fd5b8084019250823591506001600160401b0382111561ba6857600080fd5b60208301925060018202360383131561ba8057600080fd5b509250929050565b6040518181016001600160401b038111828210171561baa657600080fd5b604052919050565b60006001600160401b0382111561bac457600080fd5b5060209081020190565b60006001600160401b0382111561bae457600080fd5b506020601f91909101601f19160190565b60200190565b5190565b90815260200190565b6000616b0b8261bb63565b151590565b90565b6001600160e01b03191690565b6000616b0b8261bb08565b806112178161bc0b565b806112178161bc18565b806112178161bc22565b600f0b90565b6001600160801b031690565b6001600160a01b031690565b62ffffff1690565b63ffffffff1690565b6001600160401b031690565b60ff1690565b6000616b0b8261bb28565b6000616b0b8261bb33565b6000616b0b8261bb3d565b6000616b0b8261bb47565b6000616b0b8261bb18565b82818337506000910152565b60005b8381101561bbf057818101518382015260200161bbd8565b8381111561b0b25750506000910152565b601f01601f191690565b6004811061bc1557fe5b50565b6008811061bc1557fe5b6002811061bc1557fe5b61bc358161bb08565b811461bc1557600080fd5b61bc358161bb13565b61bc358161bb18565b61bc358161bb1b565b61bc358161bb28565b6005811061bc1557600080fd5b6002811061bc1557600080fd5b6004811061bc1557600080fd5b61bc358161bb51565b61bc358161bb57565b61bc358161bb63565b61bc358161bb6f565b61bc358161bb77565b61bc358161bb80565b61bc358161bb8c56fea2646970667358221220a9eea59c681c025710580e5b9e317d4a933f8696559a2a782c721eee9cf351c864736f6c634300060c0033",
                "opcodes": "PUSH1 0xA0 PUSH1 0x40 MSTORE PUSH32 0xEEEEEEEEEEEEEEEEEEEEEEEEEEEEEEEEEEEEEEEE000000000000000000000000 PUSH1 0x80 MSTORE CALLVALUE DUP1 ISZERO PUSH3 0x35 JUMPI PUSH1 0x0 DUP1 REVERT JUMPDEST POP PUSH1 0x80 MLOAD PUSH1 0x60 SHR PUSH2 0xBD00 PUSH3 0x5E PUSH1 0x0 CODECOPY DUP1 PUSH2 0x35D8 MSTORE DUP1 PUSH2 0x54CE MSTORE DUP1 PUSH2 0x6033 MSTORE POP PUSH2 0xBD00 PUSH1 0x0 RETURN INVALID PUSH1 0x80 PUSH1 0x40 MSTORE PUSH1 0x4 CALLDATASIZE LT PUSH2 0x390 JUMPI PUSH1 0x0 CALLDATALOAD PUSH1 0xE0 SHR DUP1 PUSH4 0x7F7F4F13 GT PUSH2 0x1DC JUMPI DUP1 PUSH4 0xBD71ECF6 GT PUSH2 0x102 JUMPI DUP1 PUSH4 0xDDD5AA28 GT PUSH2 0xA0 JUMPI DUP1 PUSH4 0xF3868E9C GT PUSH2 0x6F JUMPI DUP1 PUSH4 0xF3868E9C EQ PUSH2 0x58B JUMPI DUP1 PUSH4 0xF5A4994D EQ PUSH2 0xB17 JUMPI DUP1 PUSH4 0xF6D6794A EQ PUSH2 0xB37 JUMPI DUP1 PUSH4 0xFC9FE41B EQ PUSH2 0xB57 JUMPI PUSH2 0x397 JUMP JUMPDEST DUP1 PUSH4 0xDDD5AA28 EQ PUSH2 0xA97 JUMPI DUP1 PUSH4 0xE78AC045 EQ PUSH2 0xAB7 JUMPI DUP1 PUSH4 0xE8E4AF09 EQ PUSH2 0xAD7 JUMPI DUP1 PUSH4 0xF1ED7FA4 EQ PUSH2 0xAF7 JUMPI PUSH2 0x397 JUMP JUMPDEST DUP1 PUSH4 0xC8C74A37 GT PUSH2 0xDC JUMPI DUP1 PUSH4 0xC8C74A37 EQ PUSH2 0xA17 JUMPI DUP1 PUSH4 0xCC130E83 EQ PUSH2 0xA37 JUMPI DUP1 PUSH4 0xCC1621C9 EQ PUSH2 0xA57 JUMPI DUP1 PUSH4 0xD9BCA372 EQ PUSH2 0xA77 JUMPI PUSH2 0x397 JUMP JUMPDEST DUP1 PUSH4 0xBD71ECF6 EQ PUSH2 0x9B7 JUMPI DUP1 PUSH4 0xC25C4138 EQ PUSH2 0x9D7 JUMPI DUP1 PUSH4 0xC8319084 EQ PUSH2 0x9F7 JUMPI PUSH2 0x397 JUMP JUMPDEST DUP1 PUSH4 0x9E3F05C3 GT PUSH2 0x17A JUMPI DUP1 PUSH4 0xA75E744B GT PUSH2 0x149 JUMPI DUP1 PUSH4 0xA75E744B EQ PUSH2 0x929 JUMPI DUP1 PUSH4 0xA76BBEC4 EQ PUSH2 0x949 JUMPI DUP1 PUSH4 0xADC636BF EQ PUSH2 0x969 JUMPI DUP1 PUSH4 0xB90CD2FB EQ PUSH2 0x997 JUMPI PUSH2 0x397 JUMP JUMPDEST DUP1 PUSH4 0x9E3F05C3 EQ PUSH2 0x89A JUMPI DUP1 PUSH4 0x9EA0FF13 EQ PUSH2 0x8C9 JUMPI DUP1 PUSH4 0xA0295B8B EQ PUSH2 0x8E9 JUMPI DUP1 PUSH4 0xA4698417 EQ PUSH2 0x909 JUMPI PUSH2 0x397 JUMP JUMPDEST DUP1 PUSH4 0x8E5A0E07 GT PUSH2 0x1B6 JUMPI DUP1 PUSH4 0x8E5A0E07 EQ PUSH2 0x80B JUMPI DUP1 PUSH4 0x9209483B EQ PUSH2 0x83A JUMPI DUP1 PUSH4 0x98777748 EQ PUSH2 0x85A JUMPI DUP1 PUSH4 0x9BF3EE35 EQ PUSH2 0x87A JUMPI PUSH2 0x397 JUMP JUMPDEST DUP1 PUSH4 0x7F7F4F13 EQ PUSH2 0x7AB JUMPI DUP1 PUSH4 0x8A2D1971 EQ PUSH2 0x7CB JUMPI DUP1 PUSH4 0x8B6D7B44 EQ PUSH2 0x7EB JUMPI PUSH2 0x397 JUMP JUMPDEST DUP1 PUSH4 0x4092E6B1 GT PUSH2 0x2C1 JUMPI DUP1 PUSH4 0x57494B1D GT PUSH2 0x25F JUMPI DUP1 PUSH4 0x68BE3CF2 GT PUSH2 0x22E JUMPI DUP1 PUSH4 0x68BE3CF2 EQ PUSH2 0x71E JUMPI DUP1 PUSH4 0x706E2F9B EQ PUSH2 0x74B JUMPI DUP1 PUSH4 0x74C9D255 EQ PUSH2 0x76B JUMPI DUP1 PUSH4 0x7F3E7F82 EQ PUSH2 0x78B JUMPI PUSH2 0x397 JUMP JUMPDEST DUP1 PUSH4 0x57494B1D EQ PUSH2 0x69E JUMPI DUP1 PUSH4 0x5AAE4E53 EQ PUSH2 0x6BE JUMPI DUP1 PUSH4 0x5D5B674F EQ PUSH2 0x6DE JUMPI DUP1 PUSH4 0x66A1AC6B EQ PUSH2 0x6FE JUMPI PUSH2 0x397 JUMP JUMPDEST DUP1 PUSH4 0x494569DB GT PUSH2 0x29B JUMPI DUP1 PUSH4 0x494569DB EQ PUSH2 0x60D JUMPI DUP1 PUSH4 0x4EDFB5B2 EQ PUSH2 0x62D JUMPI DUP1 PUSH4 0x51BE4EAA EQ PUSH2 0x65A JUMPI DUP1 PUSH4 0x5505000A EQ PUSH2 0x66F JUMPI PUSH2 0x397 JUMP JUMPDEST DUP1 PUSH4 0x4092E6B1 EQ PUSH2 0x5AB JUMPI DUP1 PUSH4 0x40BC03AE EQ PUSH2 0x5CB JUMPI DUP1 PUSH4 0x42CBB15C EQ PUSH2 0x5EB JUMPI PUSH2 0x397 JUMP JUMPDEST DUP1 PUSH4 0x252322B3 GT PUSH2 0x32E JUMPI DUP1 PUSH4 0x2AA64319 GT PUSH2 0x308 JUMPI DUP1 PUSH4 0x2AA64319 EQ PUSH2 0x51C JUMPI DUP1 PUSH4 0x30D6570D EQ PUSH2 0x54B JUMPI DUP1 PUSH4 0x3105FEC1 EQ PUSH2 0x56B JUMPI DUP1 PUSH4 0x36052391 EQ PUSH2 0x58B JUMPI PUSH2 0x397 JUMP JUMPDEST DUP1 PUSH4 0x252322B3 EQ PUSH2 0x4BC JUMPI DUP1 PUSH4 0x281E3432 EQ PUSH2 0x4DC JUMPI DUP1 PUSH4 0x29FA4AA0 EQ PUSH2 0x4FC JUMPI PUSH2 0x397 JUMP JUMPDEST DUP1 PUSH4 0x149DAB0E GT PUSH2 0x36A JUMPI DUP1 PUSH4 0x149DAB0E EQ PUSH2 0x420 JUMPI DUP1 PUSH4 0x16279055 EQ PUSH2 0x44F JUMPI DUP1 PUSH4 0x1976F526 EQ PUSH2 0x47C JUMPI DUP1 PUSH4 0x2339078F EQ PUSH2 0x49C JUMPI PUSH2 0x397 JUMP JUMPDEST DUP1 PUSH4 0x34EAFF9 EQ PUSH2 0x39C JUMPI DUP1 PUSH4 0x496D5DC EQ PUSH2 0x3D2 JUMPI DUP1 PUSH4 0x1022742B EQ PUSH2 0x400 JUMPI PUSH2 0x397 JUMP JUMPDEST CALLDATASIZE PUSH2 0x397 JUMPI STOP JUMPDEST PUSH1 0x0 DUP1 REVERT JUMPDEST CALLVALUE DUP1 ISZERO PUSH2 0x3A8 JUMPI PUSH1 0x0 DUP1 REVERT JUMPDEST POP PUSH2 0x3BC PUSH2 0x3B7 CALLDATASIZE PUSH1 0x4 PUSH2 0xA667 JUMP JUMPDEST PUSH2 0xB77 JUMP JUMPDEST PUSH1 0x40 MLOAD PUSH2 0x3C9 SWAP2 SWAP1 PUSH2 0xB6A6 JUMP JUMPDEST PUSH1 0x40 MLOAD DUP1 SWAP2 SUB SWAP1 RETURN JUMPDEST CALLVALUE DUP1 ISZERO PUSH2 0x3DE JUMPI PUSH1 0x0 DUP1 REVERT JUMPDEST POP PUSH2 0x3F2 PUSH2 0x3ED CALLDATASIZE PUSH1 0x4 PUSH2 0xA1B0 JUMP JUMPDEST PUSH2 0xD99 JUMP JUMPDEST PUSH1 0x40 MLOAD PUSH2 0x3C9 SWAP3 SWAP2 SWAP1 PUSH2 0xB62B JUMP JUMPDEST CALLVALUE DUP1 ISZERO PUSH2 0x40C JUMPI PUSH1 0x0 DUP1 REVERT JUMPDEST POP PUSH2 0x3BC PUSH2 0x41B CALLDATASIZE PUSH1 0x4 PUSH2 0xA509 JUMP JUMPDEST PUSH2 0xF3F JUMP JUMPDEST CALLVALUE DUP1 ISZERO PUSH2 0x42C JUMPI PUSH1 0x0 DUP1 REVERT JUMPDEST POP PUSH2 0x440 PUSH2 0x43B CALLDATASIZE PUSH1 0x4 PUSH2 0xA7C0 JUMP JUMPDEST PUSH2 0x10B2 JUMP JUMPDEST PUSH1 0x40 MLOAD PUSH2 0x3C9 SWAP4 SWAP3 SWAP2 SWAP1 PUSH2 0xB50A JUMP JUMPDEST CALLVALUE DUP1 ISZERO PUSH2 0x45B JUMPI PUSH1 0x0 DUP1 REVERT JUMPDEST POP PUSH2 0x46F PUSH2 0x46A CALLDATASIZE PUSH1 0x4 PUSH2 0x9E88 JUMP JUMPDEST PUSH2 0x1212 JUMP JUMPDEST PUSH1 0x40 MLOAD PUSH2 0x3C9 SWAP2 SWAP1 PUSH2 0xB6B7 JUMP JUMPDEST CALLVALUE DUP1 ISZERO PUSH2 0x488 JUMPI PUSH1 0x0 DUP1 REVERT JUMPDEST POP PUSH2 0x3BC PUSH2 0x497 CALLDATASIZE PUSH1 0x4 PUSH2 0xA61D JUMP JUMPDEST PUSH2 0x121C JUMP JUMPDEST CALLVALUE DUP1 ISZERO PUSH2 0x4A8 JUMPI PUSH1 0x0 DUP1 REVERT JUMPDEST POP PUSH2 0x3BC PUSH2 0x4B7 CALLDATASIZE PUSH1 0x4 PUSH2 0xA760 JUMP JUMPDEST PUSH2 0x1387 JUMP JUMPDEST CALLVALUE DUP1 ISZERO PUSH2 0x4C8 JUMPI PUSH1 0x0 DUP1 REVERT JUMPDEST POP PUSH2 0x3BC PUSH2 0x4D7 CALLDATASIZE PUSH1 0x4 PUSH2 0xA094 JUMP JUMPDEST PUSH2 0x15B1 JUMP JUMPDEST CALLVALUE DUP1 ISZERO PUSH2 0x4E8 JUMPI PUSH1 0x0 DUP1 REVERT JUMPDEST POP PUSH2 0x3BC PUSH2 0x4F7 CALLDATASIZE PUSH1 0x4 PUSH2 0xA99B JUMP JUMPDEST PUSH2 0x177B JUMP JUMPDEST CALLVALUE DUP1 ISZERO PUSH2 0x508 JUMPI PUSH1 0x0 DUP1 REVERT JUMPDEST POP PUSH2 0x3BC PUSH2 0x517 CALLDATASIZE PUSH1 0x4 PUSH2 0xA7F8 JUMP JUMPDEST PUSH2 0x19D0 JUMP JUMPDEST CALLVALUE DUP1 ISZERO PUSH2 0x528 JUMPI PUSH1 0x0 DUP1 REVERT JUMPDEST POP PUSH2 0x53C PUSH2 0x537 CALLDATASIZE PUSH1 0x4 PUSH2 0xA858 JUMP JUMPDEST PUSH2 0x1A3F JUMP JUMPDEST PUSH1 0x40 MLOAD PUSH2 0x3C9 SWAP4 SWAP3 SWAP2 SWAP1 PUSH2 0xB6C5 JUMP JUMPDEST CALLVALUE DUP1 ISZERO PUSH2 0x557 JUMPI PUSH1 0x0 DUP1 REVERT JUMPDEST POP PUSH2 0x3BC PUSH2 0x566 CALLDATASIZE PUSH1 0x4 PUSH2 0xA094 JUMP JUMPDEST PUSH2 0x1D1C JUMP JUMPDEST CALLVALUE DUP1 ISZERO PUSH2 0x577 JUMPI PUSH1 0x0 DUP1 REVERT JUMPDEST POP PUSH2 0x3BC PUSH2 0x586 CALLDATASIZE PUSH1 0x4 PUSH2 0xA1B0 JUMP JUMPDEST PUSH2 0x1E90 JUMP JUMPDEST CALLVALUE DUP1 ISZERO PUSH2 0x597 JUMPI PUSH1 0x0 DUP1 REVERT JUMPDEST POP PUSH2 0x3BC PUSH2 0x5A6 CALLDATASIZE PUSH1 0x4 PUSH2 0xA858 JUMP JUMPDEST PUSH2 0x2014 JUMP JUMPDEST CALLVALUE DUP1 ISZERO PUSH2 0x5B7 JUMPI PUSH1 0x0 DUP1 REVERT JUMPDEST POP PUSH2 0x3BC PUSH2 0x5C6 CALLDATASIZE PUSH1 0x4 PUSH2 0xA155 JUMP JUMPDEST PUSH2 0x20A6 JUMP JUMPDEST CALLVALUE DUP1 ISZERO PUSH2 0x5D7 JUMPI PUSH1 0x0 DUP1 REVERT JUMPDEST POP PUSH2 0x3BC PUSH2 0x5E6 CALLDATASIZE PUSH1 0x4 PUSH2 0xA7F8 JUMP JUMPDEST PUSH2 0x2221 JUMP JUMPDEST CALLVALUE DUP1 ISZERO PUSH2 0x5F7 JUMPI PUSH1 0x0 DUP1 REVERT JUMPDEST POP PUSH2 0x600 PUSH2 0x23A2 JUMP JUMPDEST PUSH1 0x40 MLOAD PUSH2 0x3C9 SWAP2 SWAP1 PUSH2 0xB6F2 JUMP JUMPDEST CALLVALUE DUP1 ISZERO PUSH2 0x619 JUMPI PUSH1 0x0 DUP1 REVERT JUMPDEST POP PUSH2 0x3F2 PUSH2 0x628 CALLDATASIZE PUSH1 0x4 PUSH2 0xA1B0 JUMP JUMPDEST PUSH2 0x23A6 JUMP JUMPDEST CALLVALUE DUP1 ISZERO PUSH2 0x639 JUMPI PUSH1 0x0 DUP1 REVERT JUMPDEST POP PUSH2 0x64D PUSH2 0x648 CALLDATASIZE PUSH1 0x4 PUSH2 0xA8EA JUMP JUMPDEST PUSH2 0x2532 JUMP JUMPDEST PUSH1 0x40 MLOAD PUSH2 0x3C9 SWAP2 SWAP1 PUSH2 0xB720 JUMP JUMPDEST CALLVALUE DUP1 ISZERO PUSH2 0x666 JUMPI PUSH1 0x0 DUP1 REVERT JUMPDEST POP PUSH2 0x600 PUSH2 0x27B0 JUMP JUMPDEST CALLVALUE DUP1 ISZERO PUSH2 0x67B JUMPI PUSH1 0x0 DUP1 REVERT JUMPDEST POP PUSH2 0x68F PUSH2 0x68A CALLDATASIZE PUSH1 0x4 PUSH2 0xA6C9 JUMP JUMPDEST PUSH2 0x27B8 JUMP JUMPDEST PUSH1 0x40 MLOAD PUSH2 0x3C9 SWAP4 SWAP3 SWAP2 SWAP1 PUSH2 0xB670 JUMP JUMPDEST CALLVALUE DUP1 ISZERO PUSH2 0x6AA JUMPI PUSH1 0x0 DUP1 REVERT JUMPDEST POP PUSH2 0x3BC PUSH2 0x6B9 CALLDATASIZE PUSH1 0x4 PUSH2 0xA094 JUMP JUMPDEST PUSH2 0x2AAD JUMP JUMPDEST CALLVALUE DUP1 ISZERO PUSH2 0x6CA JUMPI PUSH1 0x0 DUP1 REVERT JUMPDEST POP PUSH2 0x68F PUSH2 0x6D9 CALLDATASIZE PUSH1 0x4 PUSH2 0xA6C9 JUMP JUMPDEST PUSH2 0x3024 JUMP JUMPDEST CALLVALUE DUP1 ISZERO PUSH2 0x6EA JUMPI PUSH1 0x0 DUP1 REVERT JUMPDEST POP PUSH2 0x3BC PUSH2 0x6F9 CALLDATASIZE PUSH1 0x4 PUSH2 0xA094 JUMP JUMPDEST PUSH2 0x3309 JUMP JUMPDEST CALLVALUE DUP1 ISZERO PUSH2 0x70A JUMPI PUSH1 0x0 DUP1 REVERT JUMPDEST POP PUSH2 0x3BC PUSH2 0x719 CALLDATASIZE PUSH1 0x4 PUSH2 0xA509 JUMP JUMPDEST PUSH2 0x336F JUMP JUMPDEST CALLVALUE DUP1 ISZERO PUSH2 0x72A JUMPI PUSH1 0x0 DUP1 REVERT JUMPDEST POP PUSH2 0x73E PUSH2 0x739 CALLDATASIZE PUSH1 0x4 PUSH2 0xA351 JUMP JUMPDEST PUSH2 0x3424 JUMP JUMPDEST PUSH1 0x40 MLOAD PUSH2 0x3C9 SWAP2 SWAP1 PUSH2 0xB695 JUMP JUMPDEST CALLVALUE DUP1 ISZERO PUSH2 0x757 JUMPI PUSH1 0x0 DUP1 REVERT JUMPDEST POP PUSH2 0x3BC PUSH2 0x766 CALLDATASIZE PUSH1 0x4 PUSH2 0xA402 JUMP JUMPDEST PUSH2 0x3585 JUMP JUMPDEST CALLVALUE DUP1 ISZERO PUSH2 0x777 JUMPI PUSH1 0x0 DUP1 REVERT JUMPDEST POP PUSH2 0x440 PUSH2 0x786 CALLDATASIZE PUSH1 0x4 PUSH2 0xA7C0 JUMP JUMPDEST PUSH2 0x3677 JUMP JUMPDEST CALLVALUE DUP1 ISZERO PUSH2 0x797 JUMPI PUSH1 0x0 DUP1 REVERT JUMPDEST POP PUSH2 0x3BC PUSH2 0x7A6 CALLDATASIZE PUSH1 0x4 PUSH2 0xA1B0 JUMP JUMPDEST PUSH2 0x3686 JUMP JUMPDEST CALLVALUE DUP1 ISZERO PUSH2 0x7B7 JUMPI PUSH1 0x0 DUP1 REVERT JUMPDEST POP PUSH2 0x3BC PUSH2 0x7C6 CALLDATASIZE PUSH1 0x4 PUSH2 0xA99B JUMP JUMPDEST PUSH2 0x3796 JUMP JUMPDEST CALLVALUE DUP1 ISZERO PUSH2 0x7D7 JUMPI PUSH1 0x0 DUP1 REVERT JUMPDEST POP PUSH2 0x3BC PUSH2 0x7E6 CALLDATASIZE PUSH1 0x4 PUSH2 0xA155 JUMP JUMPDEST PUSH2 0x39E3 JUMP JUMPDEST CALLVALUE DUP1 ISZERO PUSH2 0x7F7 JUMPI PUSH1 0x0 DUP1 REVERT JUMPDEST POP PUSH2 0x3BC PUSH2 0x806 CALLDATASIZE PUSH1 0x4 PUSH2 0xA7F8 JUMP JUMPDEST PUSH2 0x3AF5 JUMP JUMPDEST CALLVALUE DUP1 ISZERO PUSH2 0x817 JUMPI PUSH1 0x0 DUP1 REVERT JUMPDEST POP PUSH2 0x82B PUSH2 0x826 CALLDATASIZE PUSH1 0x4 PUSH2 0xA392 JUMP JUMPDEST PUSH2 0x3E58 JUMP JUMPDEST PUSH1 0x40 MLOAD PUSH2 0x3C9 SWAP4 SWAP3 SWAP2 SWAP1 PUSH2 0xB8E6 JUMP JUMPDEST CALLVALUE DUP1 ISZERO PUSH2 0x846 JUMPI PUSH1 0x0 DUP1 REVERT JUMPDEST POP PUSH2 0x3BC PUSH2 0x855 CALLDATASIZE PUSH1 0x4 PUSH2 0xA7F8 JUMP JUMPDEST PUSH2 0x406E JUMP JUMPDEST CALLVALUE DUP1 ISZERO PUSH2 0x866 JUMPI PUSH1 0x0 DUP1 REVERT JUMPDEST POP PUSH2 0x3BC PUSH2 0x875 CALLDATASIZE PUSH1 0x4 PUSH2 0xA094 JUMP JUMPDEST PUSH2 0x426E JUMP JUMPDEST CALLVALUE DUP1 ISZERO PUSH2 0x886 JUMPI PUSH1 0x0 DUP1 REVERT JUMPDEST POP PUSH2 0x600 PUSH2 0x895 CALLDATASIZE PUSH1 0x4 PUSH2 0xA955 JUMP JUMPDEST PUSH2 0x47A7 JUMP JUMPDEST CALLVALUE DUP1 ISZERO PUSH2 0x8A6 JUMPI PUSH1 0x0 DUP1 REVERT JUMPDEST POP PUSH2 0x8BA PUSH2 0x8B5 CALLDATASIZE PUSH1 0x4 PUSH2 0xA87A JUMP JUMPDEST PUSH2 0x48EC JUMP JUMPDEST PUSH1 0x40 MLOAD PUSH2 0x3C9 SWAP4 SWAP3 SWAP2 SWAP1 PUSH2 0xB700 JUMP JUMPDEST CALLVALUE DUP1 ISZERO PUSH2 0x8D5 JUMPI PUSH1 0x0 DUP1 REVERT JUMPDEST POP PUSH2 0x600 PUSH2 0x8E4 CALLDATASIZE PUSH1 0x4 PUSH2 0xA100 JUMP JUMPDEST PUSH2 0x4A12 JUMP JUMPDEST CALLVALUE DUP1 ISZERO PUSH2 0x8F5 JUMPI PUSH1 0x0 DUP1 REVERT JUMPDEST POP PUSH2 0x3BC PUSH2 0x904 CALLDATASIZE PUSH1 0x4 PUSH2 0xA760 JUMP JUMPDEST PUSH2 0x4C28 JUMP JUMPDEST CALLVALUE DUP1 ISZERO PUSH2 0x915 JUMPI PUSH1 0x0 DUP1 REVERT JUMPDEST POP PUSH2 0x3BC PUSH2 0x924 CALLDATASIZE PUSH1 0x4 PUSH2 0xA094 JUMP JUMPDEST PUSH2 0x4E24 JUMP JUMPDEST CALLVALUE DUP1 ISZERO PUSH2 0x935 JUMPI PUSH1 0x0 DUP1 REVERT JUMPDEST POP PUSH2 0x53C PUSH2 0x944 CALLDATASIZE PUSH1 0x4 PUSH2 0xA221 JUMP JUMPDEST PUSH2 0x4F79 JUMP JUMPDEST CALLVALUE DUP1 ISZERO PUSH2 0x955 JUMPI PUSH1 0x0 DUP1 REVERT JUMPDEST POP PUSH2 0x3BC PUSH2 0x964 CALLDATASIZE PUSH1 0x4 PUSH2 0xA667 JUMP JUMPDEST PUSH2 0x50B6 JUMP JUMPDEST CALLVALUE DUP1 ISZERO PUSH2 0x975 JUMPI PUSH1 0x0 DUP1 REVERT JUMPDEST POP PUSH2 0x989 PUSH2 0x984 CALLDATASIZE PUSH1 0x4 PUSH2 0xA094 JUMP JUMPDEST PUSH2 0x52C5 JUMP JUMPDEST PUSH1 0x40 MLOAD PUSH2 0x3C9 SWAP3 SWAP2 SWAP1 PUSH2 0xB785 JUMP JUMPDEST CALLVALUE DUP1 ISZERO PUSH2 0x9A3 JUMPI PUSH1 0x0 DUP1 REVERT JUMPDEST POP PUSH2 0x3BC PUSH2 0x9B2 CALLDATASIZE PUSH1 0x4 PUSH2 0xA094 JUMP JUMPDEST PUSH2 0x5415 JUMP JUMPDEST CALLVALUE DUP1 ISZERO PUSH2 0x9C3 JUMPI PUSH1 0x0 DUP1 REVERT JUMPDEST POP PUSH2 0x3BC PUSH2 0x9D2 CALLDATASIZE PUSH1 0x4 PUSH2 0xA436 JUMP JUMPDEST PUSH2 0x547B JUMP JUMPDEST CALLVALUE DUP1 ISZERO PUSH2 0x9E3 JUMPI PUSH1 0x0 DUP1 REVERT JUMPDEST POP PUSH2 0x3BC PUSH2 0x9F2 CALLDATASIZE PUSH1 0x4 PUSH2 0xA094 JUMP JUMPDEST PUSH2 0x5577 JUMP JUMPDEST CALLVALUE DUP1 ISZERO PUSH2 0xA03 JUMPI PUSH1 0x0 DUP1 REVERT JUMPDEST POP PUSH2 0x3BC PUSH2 0xA12 CALLDATASIZE PUSH1 0x4 PUSH2 0xA094 JUMP JUMPDEST PUSH2 0x55DD JUMP JUMPDEST CALLVALUE DUP1 ISZERO PUSH2 0xA23 JUMPI PUSH1 0x0 DUP1 REVERT JUMPDEST POP PUSH2 0x3BC PUSH2 0xA32 CALLDATASIZE PUSH1 0x4 PUSH2 0xA1B0 JUMP JUMPDEST PUSH2 0x579A JUMP JUMPDEST CALLVALUE DUP1 ISZERO PUSH2 0xA43 JUMPI PUSH1 0x0 DUP1 REVERT JUMPDEST POP PUSH2 0x3BC PUSH2 0xA52 CALLDATASIZE PUSH1 0x4 PUSH2 0xA61D JUMP JUMPDEST PUSH2 0x5906 JUMP JUMPDEST CALLVALUE DUP1 ISZERO PUSH2 0xA63 JUMPI PUSH1 0x0 DUP1 REVERT JUMPDEST POP PUSH2 0x8BA PUSH2 0xA72 CALLDATASIZE PUSH1 0x4 PUSH2 0xA87A JUMP JUMPDEST PUSH2 0x5A78 JUMP JUMPDEST CALLVALUE DUP1 ISZERO PUSH2 0xA83 JUMPI PUSH1 0x0 DUP1 REVERT JUMPDEST POP PUSH2 0x53C PUSH2 0xA92 CALLDATASIZE PUSH1 0x4 PUSH2 0xA221 JUMP JUMPDEST PUSH2 0x5C5E JUMP JUMPDEST CALLVALUE DUP1 ISZERO PUSH2 0xAA3 JUMPI PUSH1 0x0 DUP1 REVERT JUMPDEST POP PUSH2 0x53C PUSH2 0xAB2 CALLDATASIZE PUSH1 0x4 PUSH2 0xA858 JUMP JUMPDEST PUSH2 0x5D4D JUMP JUMPDEST CALLVALUE DUP1 ISZERO PUSH2 0xAC3 JUMPI PUSH1 0x0 DUP1 REVERT JUMPDEST POP PUSH2 0x3BC PUSH2 0xAD2 CALLDATASIZE PUSH1 0x4 PUSH2 0xA47C JUMP JUMPDEST PUSH2 0x5FE0 JUMP JUMPDEST CALLVALUE DUP1 ISZERO PUSH2 0xAE3 JUMPI PUSH1 0x0 DUP1 REVERT JUMPDEST POP PUSH2 0x3BC PUSH2 0xAF2 CALLDATASIZE PUSH1 0x4 PUSH2 0xA094 JUMP JUMPDEST PUSH2 0x60D5 JUMP JUMPDEST CALLVALUE DUP1 ISZERO PUSH2 0xB03 JUMPI PUSH1 0x0 DUP1 REVERT JUMPDEST POP PUSH2 0x600 PUSH2 0xB12 CALLDATASIZE PUSH1 0x4 PUSH2 0xA8B2 JUMP JUMPDEST PUSH2 0x6208 JUMP JUMPDEST CALLVALUE DUP1 ISZERO PUSH2 0xB23 JUMPI PUSH1 0x0 DUP1 REVERT JUMPDEST POP PUSH2 0x989 PUSH2 0xB32 CALLDATASIZE PUSH1 0x4 PUSH2 0xA094 JUMP JUMPDEST PUSH2 0x63A7 JUMP JUMPDEST CALLVALUE DUP1 ISZERO PUSH2 0xB43 JUMPI PUSH1 0x0 DUP1 REVERT JUMPDEST POP PUSH2 0x3BC PUSH2 0xB52 CALLDATASIZE PUSH1 0x4 PUSH2 0xA1B0 JUMP JUMPDEST PUSH2 0x6493 JUMP JUMPDEST CALLVALUE DUP1 ISZERO PUSH2 0xB63 JUMPI PUSH1 0x0 DUP1 REVERT JUMPDEST POP PUSH2 0x82B PUSH2 0xB72 CALLDATASIZE PUSH1 0x4 PUSH2 0xA392 JUMP JUMPDEST PUSH2 0x660C JUMP JUMPDEST DUP1 MLOAD PUSH1 0x60 SWAP1 DUP1 PUSH1 0x1 PUSH1 0x1 PUSH1 0x40 SHL SUB DUP2 GT DUP1 ISZERO PUSH2 0xB92 JUMPI PUSH1 0x0 DUP1 REVERT JUMPDEST POP PUSH1 0x40 MLOAD SWAP1 DUP1 DUP3 MSTORE DUP1 PUSH1 0x20 MUL PUSH1 0x20 ADD DUP3 ADD PUSH1 0x40 MSTORE DUP1 ISZERO PUSH2 0xBBC JUMPI DUP2 PUSH1 0x20 ADD PUSH1 0x20 DUP3 MUL DUP1 CALLDATASIZE DUP4 CALLDATACOPY ADD SWAP1 POP JUMPDEST POP SWAP2 POP PUSH1 0x0 DUP7 PUSH1 0x1 PUSH1 0x1 PUSH1 0xA0 SHL SUB AND PUSH4 0x182DF0F5 PUSH1 0x40 MLOAD DUP2 PUSH4 0xFFFFFFFF AND PUSH1 0xE0 SHL DUP2 MSTORE PUSH1 0x4 ADD PUSH1 0x20 PUSH1 0x40 MLOAD DUP1 DUP4 SUB DUP2 DUP7 DUP1 EXTCODESIZE ISZERO DUP1 ISZERO PUSH2 0xBFA JUMPI PUSH1 0x0 DUP1 REVERT JUMPDEST POP GAS STATICCALL ISZERO DUP1 ISZERO PUSH2 0xC0E JUMPI RETURNDATASIZE PUSH1 0x0 DUP1 RETURNDATACOPY RETURNDATASIZE PUSH1 0x0 REVERT JUMPDEST POP POP POP POP PUSH1 0x40 MLOAD RETURNDATASIZE PUSH1 0x1F NOT PUSH1 0x1F DUP3 ADD AND DUP3 ADD DUP1 PUSH1 0x40 MSTORE POP DUP2 ADD SWAP1 PUSH2 0xC32 SWAP2 SWAP1 PUSH2 0xA5CB JUMP JUMPDEST SWAP1 POP PUSH1 0x0 DUP8 PUSH1 0x1 PUSH1 0x1 PUSH1 0xA0 SHL SUB AND PUSH4 0x313CE567 PUSH1 0x40 MLOAD DUP2 PUSH4 0xFFFFFFFF AND PUSH1 0xE0 SHL DUP2 MSTORE PUSH1 0x4 ADD PUSH1 0x20 PUSH1 0x40 MLOAD DUP1 DUP4 SUB DUP2 DUP7 DUP1 EXTCODESIZE ISZERO DUP1 ISZERO PUSH2 0xC6F JUMPI PUSH1 0x0 DUP1 REVERT JUMPDEST POP GAS STATICCALL ISZERO DUP1 ISZERO PUSH2 0xC83 JUMPI RETURNDATASIZE PUSH1 0x0 DUP1 RETURNDATACOPY RETURNDATASIZE PUSH1 0x0 REVERT JUMPDEST POP POP POP POP PUSH1 0x40 MLOAD RETURNDATASIZE PUSH1 0x1F NOT PUSH1 0x1F DUP3 ADD AND DUP3 ADD DUP1 PUSH1 0x40 MSTORE POP DUP2 ADD SWAP1 PUSH2 0xCA7 SWAP2 SWAP1 PUSH2 0xAB9F JUMP JUMPDEST PUSH1 0xFF AND SWAP1 POP DUP8 PUSH1 0x1 PUSH1 0x1 PUSH1 0xA0 SHL SUB AND DUP7 PUSH1 0x1 PUSH1 0x1 PUSH1 0xA0 SHL SUB AND EQ ISZERO PUSH2 0xD1F JUMPI PUSH1 0x0 JUMPDEST DUP4 DUP2 LT ISZERO PUSH2 0xD19 JUMPI DUP2 PUSH1 0xA EXP PUSH5 0x2540BE400 MUL DUP4 DUP8 DUP4 DUP2 MLOAD DUP2 LT PUSH2 0xCE9 JUMPI INVALID JUMPDEST PUSH1 0x20 MUL PUSH1 0x20 ADD ADD MLOAD MUL DUP2 PUSH2 0xCF9 JUMPI INVALID JUMPDEST DIV DUP6 DUP3 DUP2 MLOAD DUP2 LT PUSH2 0xD06 JUMPI INVALID JUMPDEST PUSH1 0x20 SWAP1 DUP2 MUL SWAP2 SWAP1 SWAP2 ADD ADD MSTORE PUSH1 0x1 ADD PUSH2 0xCC9 JUMP JUMPDEST POP PUSH2 0xD8E JUMP JUMPDEST DUP8 PUSH1 0x1 PUSH1 0x1 PUSH1 0xA0 SHL SUB AND DUP8 PUSH1 0x1 PUSH1 0x1 PUSH1 0xA0 SHL SUB AND EQ ISZERO PUSH2 0xD8E JUMPI PUSH1 0x0 JUMPDEST DUP4 DUP2 LT ISZERO PUSH2 0xD8C JUMPI DUP3 DUP3 PUSH1 0xA EXP PUSH5 0x2540BE400 DUP9 DUP5 DUP2 MLOAD DUP2 LT PUSH2 0xD5B JUMPI INVALID JUMPDEST PUSH1 0x20 MUL PUSH1 0x20 ADD ADD MLOAD MUL MUL DUP2 PUSH2 0xD6C JUMPI INVALID JUMPDEST DIV DUP6 DUP3 DUP2 MLOAD DUP2 LT PUSH2 0xD79 JUMPI INVALID JUMPDEST PUSH1 0x20 SWAP1 DUP2 MUL SWAP2 SWAP1 SWAP2 ADD ADD MSTORE PUSH1 0x1 ADD PUSH2 0xD3C JUMP JUMPDEST POP JUMPDEST POP POP POP SWAP5 SWAP4 POP POP POP POP JUMP JUMPDEST DUP1 MLOAD PUSH1 0x60 SWAP1 DUP2 SWAP1 DUP1 PUSH1 0x1 PUSH1 0x1 PUSH1 0x40 SHL SUB DUP2 GT DUP1 ISZERO PUSH2 0xDB6 JUMPI PUSH1 0x0 DUP1 REVERT JUMPDEST POP PUSH1 0x40 MLOAD SWAP1 DUP1 DUP3 MSTORE DUP1 PUSH1 0x20 MUL PUSH1 0x20 ADD DUP3 ADD PUSH1 0x40 MSTORE DUP1 ISZERO PUSH2 0xDE0 JUMPI DUP2 PUSH1 0x20 ADD PUSH1 0x20 DUP3 MUL DUP1 CALLDATASIZE DUP4 CALLDATACOPY ADD SWAP1 POP JUMPDEST POP SWAP2 POP PUSH2 0xDED DUP7 DUP7 PUSH2 0x6821 JUMP JUMPDEST SWAP3 POP DUP3 MLOAD PUSH1 0x0 EQ ISZERO PUSH2 0xDFF JUMPI POP PUSH2 0xF37 JUMP JUMPDEST PUSH1 0x0 JUMPDEST DUP2 DUP2 LT ISZERO PUSH2 0xF34 JUMPI DUP7 PUSH1 0x1 PUSH1 0x1 PUSH1 0xA0 SHL SUB AND PUSH4 0xA8312B1D PUSH3 0x249F0 DUP8 DUP5 DUP2 MLOAD DUP2 LT PUSH2 0xE29 JUMPI INVALID JUMPDEST PUSH1 0x20 MUL PUSH1 0x20 ADD ADD MLOAD DUP8 DUP11 PUSH1 0x40 MLOAD DUP6 PUSH4 0xFFFFFFFF AND PUSH1 0xE0 SHL DUP2 MSTORE PUSH1 0x4 ADD PUSH2 0xE51 SWAP4 SWAP3 SWAP2 SWAP1 PUSH2 0xB9B0 JUMP JUMPDEST PUSH1 0x0 PUSH1 0x40 MLOAD DUP1 DUP4 SUB DUP2 DUP8 DUP1 EXTCODESIZE ISZERO DUP1 ISZERO PUSH2 0xE69 JUMPI PUSH1 0x0 DUP1 REVERT JUMPDEST POP DUP7 STATICCALL SWAP4 POP POP POP POP DUP1 ISZERO PUSH2 0xE9F JUMPI POP PUSH1 0x40 MLOAD RETURNDATASIZE PUSH1 0x0 DUP3 RETURNDATACOPY PUSH1 0x1F RETURNDATASIZE SWAP1 DUP2 ADD PUSH1 0x1F NOT AND DUP3 ADD PUSH1 0x40 MSTORE PUSH2 0xE9C SWAP2 SWAP1 DUP2 ADD SWAP1 PUSH2 0xA579 JUMP JUMPDEST PUSH1 0x1 JUMPDEST PUSH2 0xED9 JUMPI RETURNDATASIZE DUP1 DUP1 ISZERO PUSH2 0xECD JUMPI PUSH1 0x40 MLOAD SWAP2 POP PUSH1 0x1F NOT PUSH1 0x3F RETURNDATASIZE ADD AND DUP3 ADD PUSH1 0x40 MSTORE RETURNDATASIZE DUP3 MSTORE RETURNDATASIZE PUSH1 0x0 PUSH1 0x20 DUP5 ADD RETURNDATACOPY PUSH2 0xED2 JUMP JUMPDEST PUSH1 0x60 SWAP2 POP JUMPDEST POP POP PUSH2 0xF34 JUMP JUMPDEST DUP1 PUSH1 0x1 DUP9 MLOAD SUB DUP2 MLOAD DUP2 LT PUSH2 0xEE9 JUMPI INVALID JUMPDEST PUSH1 0x20 MUL PUSH1 0x20 ADD ADD MLOAD DUP5 DUP4 DUP2 MLOAD DUP2 LT PUSH2 0xEFD JUMPI INVALID JUMPDEST PUSH1 0x20 MUL PUSH1 0x20 ADD ADD DUP2 DUP2 MSTORE POP POP DUP4 DUP3 DUP2 MLOAD DUP2 LT PUSH2 0xF15 JUMPI INVALID JUMPDEST PUSH1 0x20 MUL PUSH1 0x20 ADD ADD MLOAD PUSH1 0x0 EQ ISZERO PUSH2 0xF2B JUMPI POP PUSH2 0xF34 JUMP JUMPDEST POP PUSH1 0x1 ADD PUSH2 0xE02 JUMP JUMPDEST POP POP JUMPDEST SWAP4 POP SWAP4 SWAP2 POP POP JUMP JUMPDEST PUSH1 0x60 DUP4 MLOAD PUSH1 0x1 PUSH1 0x1 PUSH1 0x40 SHL SUB DUP2 GT DUP1 ISZERO PUSH2 0xF58 JUMPI PUSH1 0x0 DUP1 REVERT JUMPDEST POP PUSH1 0x40 MLOAD SWAP1 DUP1 DUP3 MSTORE DUP1 PUSH1 0x20 MUL PUSH1 0x20 ADD DUP3 ADD PUSH1 0x40 MSTORE DUP1 ISZERO PUSH2 0xF82 JUMPI DUP2 PUSH1 0x20 ADD PUSH1 0x20 DUP3 MUL DUP1 CALLDATASIZE DUP4 CALLDATACOPY ADD SWAP1 POP JUMPDEST POP SWAP1 POP PUSH1 0x0 JUMPDEST DUP5 MLOAD DUP2 EQ PUSH2 0x10AA JUMPI ADDRESS PUSH1 0x1 PUSH1 0x1 PUSH1 0xA0 SHL SUB AND PUSH4 0x9BF3EE35 PUSH3 0x30D40 DUP8 DUP5 DUP2 MLOAD DUP2 LT PUSH2 0xFAF JUMPI INVALID JUMPDEST PUSH1 0x20 MUL PUSH1 0x20 ADD ADD MLOAD DUP8 DUP6 DUP2 MLOAD DUP2 LT PUSH2 0xFC3 JUMPI INVALID JUMPDEST PUSH1 0x20 MUL PUSH1 0x20 ADD ADD MLOAD DUP8 PUSH1 0x40 MLOAD DUP6 PUSH4 0xFFFFFFFF AND PUSH1 0xE0 SHL DUP2 MSTORE PUSH1 0x4 ADD PUSH2 0xFEA SWAP4 SWAP3 SWAP2 SWAP1 PUSH2 0xB977 JUMP JUMPDEST PUSH1 0x20 PUSH1 0x40 MLOAD DUP1 DUP4 SUB DUP2 DUP8 DUP1 EXTCODESIZE ISZERO DUP1 ISZERO PUSH2 0x1002 JUMPI PUSH1 0x0 DUP1 REVERT JUMPDEST POP DUP7 STATICCALL SWAP4 POP POP POP POP DUP1 ISZERO PUSH2 0x1033 JUMPI POP PUSH1 0x40 DUP1 MLOAD PUSH1 0x1F RETURNDATASIZE SWAP1 DUP2 ADD PUSH1 0x1F NOT AND DUP3 ADD SWAP1 SWAP3 MSTORE PUSH2 0x1030 SWAP2 DUP2 ADD SWAP1 PUSH2 0xA5CB JUMP JUMPDEST PUSH1 0x1 JUMPDEST PUSH2 0x1087 JUMPI RETURNDATASIZE DUP1 DUP1 ISZERO PUSH2 0x1061 JUMPI PUSH1 0x40 MLOAD SWAP2 POP PUSH1 0x1F NOT PUSH1 0x3F RETURNDATASIZE ADD AND DUP3 ADD PUSH1 0x40 MSTORE RETURNDATASIZE DUP3 MSTORE RETURNDATASIZE PUSH1 0x0 PUSH1 0x20 DUP5 ADD RETURNDATACOPY PUSH2 0x1066 JUMP JUMPDEST PUSH1 0x60 SWAP2 POP JUMPDEST POP PUSH1 0x0 DUP4 DUP4 DUP2 MLOAD DUP2 LT PUSH2 0x1075 JUMPI INVALID JUMPDEST PUSH1 0x20 MUL PUSH1 0x20 ADD ADD DUP2 DUP2 MSTORE POP POP POP PUSH2 0x10A2 JUMP JUMPDEST DUP1 DUP4 DUP4 DUP2 MLOAD DUP2 LT PUSH2 0x1094 JUMPI INVALID JUMPDEST PUSH1 0x20 MUL PUSH1 0x20 ADD ADD DUP2 DUP2 MSTORE POP POP POP JUMPDEST PUSH1 0x1 ADD PUSH2 0xF88 JUMP JUMPDEST POP SWAP4 SWAP3 POP POP POP JUMP JUMPDEST PUSH1 0x0 PUSH1 0x60 DUP1 DUP7 PUSH1 0x20 ADD MLOAD MLOAD PUSH1 0x0 EQ ISZERO PUSH2 0x10CA JUMPI PUSH2 0x1208 JUMP JUMPDEST PUSH2 0x10D6 DUP8 DUP8 DUP8 DUP8 PUSH2 0x6B11 JUMP JUMPDEST DUP6 MLOAD SWAP2 SWAP5 POP SWAP3 POP PUSH1 0x1 PUSH1 0x1 PUSH1 0x40 SHL SUB DUP2 GT DUP1 ISZERO PUSH2 0x10F2 JUMPI PUSH1 0x0 DUP1 REVERT JUMPDEST POP PUSH1 0x40 MLOAD SWAP1 DUP1 DUP3 MSTORE DUP1 PUSH1 0x20 MUL PUSH1 0x20 ADD DUP3 ADD PUSH1 0x40 MSTORE DUP1 ISZERO PUSH2 0x111C JUMPI DUP2 PUSH1 0x20 ADD PUSH1 0x20 DUP3 MUL DUP1 CALLDATASIZE DUP4 CALLDATACOPY ADD SWAP1 POP JUMPDEST POP SWAP1 POP PUSH1 0x0 JUMPDEST DUP2 MLOAD DUP2 LT ISZERO PUSH2 0x1206 JUMPI DUP4 PUSH1 0x1 PUSH1 0x1 PUSH1 0xA0 SHL SUB AND PUSH4 0x7F9C0ECD PUSH3 0x493E0 DUP6 DUP9 DUP6 DUP2 MLOAD DUP2 LT PUSH2 0x114B JUMPI INVALID JUMPDEST PUSH1 0x20 MUL PUSH1 0x20 ADD ADD MLOAD PUSH1 0x40 MLOAD DUP5 PUSH4 0xFFFFFFFF AND PUSH1 0xE0 SHL DUP2 MSTORE PUSH1 0x4 ADD PUSH2 0x1170 SWAP3 SWAP2 SWAP1 PUSH2 0xB650 JUMP JUMPDEST PUSH1 0x20 PUSH1 0x40 MLOAD DUP1 DUP4 SUB DUP2 DUP8 DUP1 EXTCODESIZE ISZERO DUP1 ISZERO PUSH2 0x1188 JUMPI PUSH1 0x0 DUP1 REVERT JUMPDEST POP DUP7 STATICCALL SWAP4 POP POP POP POP DUP1 ISZERO PUSH2 0x11B9 JUMPI POP PUSH1 0x40 DUP1 MLOAD PUSH1 0x1F RETURNDATASIZE SWAP1 DUP2 ADD PUSH1 0x1F NOT AND DUP3 ADD SWAP1 SWAP3 MSTORE PUSH2 0x11B6 SWAP2 DUP2 ADD SWAP1 PUSH2 0xA5CB JUMP JUMPDEST PUSH1 0x1 JUMPDEST PUSH2 0x11C2 JUMPI PUSH2 0x1206 JUMP JUMPDEST DUP1 DUP4 DUP4 DUP2 MLOAD DUP2 LT PUSH2 0x11CF JUMPI INVALID JUMPDEST PUSH1 0x20 MUL PUSH1 0x20 ADD ADD DUP2 DUP2 MSTORE POP POP DUP3 DUP3 DUP2 MLOAD DUP2 LT PUSH2 0x11E7 JUMPI INVALID JUMPDEST PUSH1 0x20 MUL PUSH1 0x20 ADD ADD MLOAD PUSH1 0x0 EQ ISZERO PUSH2 0x11FD JUMPI POP PUSH2 0x1206 JUMP JUMPDEST POP PUSH1 0x1 ADD PUSH2 0x1122 JUMP JUMPDEST POP JUMPDEST SWAP5 POP SWAP5 POP SWAP5 SWAP2 POP POP JUMP JUMPDEST DUP1 EXTCODESIZE ISZERO ISZERO JUMPDEST SWAP2 SWAP1 POP JUMP JUMPDEST DUP1 MLOAD PUSH1 0x60 SWAP1 DUP1 PUSH1 0x1 PUSH1 0x1 PUSH1 0x40 SHL SUB DUP2 GT DUP1 ISZERO PUSH2 0x1237 JUMPI PUSH1 0x0 DUP1 REVERT JUMPDEST POP PUSH1 0x40 MLOAD SWAP1 DUP1 DUP3 MSTORE DUP1 PUSH1 0x20 MUL PUSH1 0x20 ADD DUP3 ADD PUSH1 0x40 MSTORE DUP1 ISZERO PUSH2 0x1261 JUMPI DUP2 PUSH1 0x20 ADD PUSH1 0x20 DUP3 MUL DUP1 CALLDATASIZE DUP4 CALLDATACOPY ADD SWAP1 POP JUMPDEST POP SWAP2 POP PUSH2 0x126C PUSH2 0x9044 JUMP JUMPDEST PUSH2 0x1274 PUSH2 0x6D43 JUMP JUMPDEST SWAP1 POP PUSH1 0x0 JUMPDEST DUP3 DUP2 LT ISZERO PUSH2 0xD8E JUMPI DUP5 DUP2 DUP2 MLOAD DUP2 LT PUSH2 0x128D JUMPI INVALID JUMPDEST PUSH1 0x20 MUL PUSH1 0x20 ADD ADD MLOAD DUP8 PUSH1 0x0 DUP2 MLOAD DUP2 LT PUSH2 0x12A2 JUMPI INVALID JUMPDEST PUSH1 0x20 SWAP1 DUP2 MUL SWAP2 SWAP1 SWAP2 ADD ADD MLOAD PUSH1 0x60 ADD MSTORE PUSH1 0x40 MLOAD PUSH4 0x7C268337 PUSH1 0xE1 SHL DUP2 MSTORE PUSH1 0x1 PUSH1 0x1 PUSH1 0xA0 SHL SUB DUP10 AND SWAP1 PUSH4 0xF84D066E SWAP1 PUSH2 0x12E4 SWAP1 PUSH1 0x1 SWAP1 DUP12 SWAP1 DUP12 SWAP1 DUP9 SWAP1 PUSH1 0x4 ADD PUSH2 0xB803 JUMP JUMPDEST PUSH1 0x0 PUSH1 0x40 MLOAD DUP1 DUP4 SUB DUP2 PUSH1 0x0 DUP8 DUP1 EXTCODESIZE ISZERO DUP1 ISZERO PUSH2 0x12FE JUMPI PUSH1 0x0 DUP1 REVERT JUMPDEST POP GAS CALL SWAP3 POP POP POP DUP1 ISZERO PUSH2 0x1333 JUMPI POP PUSH1 0x40 MLOAD RETURNDATASIZE PUSH1 0x0 DUP3 RETURNDATACOPY PUSH1 0x1F RETURNDATASIZE SWAP1 DUP2 ADD PUSH1 0x1F NOT AND DUP3 ADD PUSH1 0x40 MSTORE PUSH2 0x1330 SWAP2 SWAP1 DUP2 ADD SWAP1 PUSH2 0xA4D5 JUMP JUMPDEST PUSH1 0x1 JUMPDEST PUSH2 0x133C JUMPI PUSH2 0xD8E JUMP JUMPDEST PUSH1 0x0 DUP2 PUSH1 0x0 DUP2 MLOAD DUP2 LT PUSH2 0x134B JUMPI INVALID JUMPDEST PUSH1 0x20 MUL PUSH1 0x20 ADD ADD MLOAD SWAP1 POP PUSH1 0x0 DUP2 SGT PUSH2 0x1364 JUMPI POP POP PUSH2 0xD8E JUMP JUMPDEST DUP1 DUP7 DUP5 DUP2 MLOAD DUP2 LT PUSH2 0x1371 JUMPI INVALID JUMPDEST PUSH1 0x20 MUL PUSH1 0x20 ADD ADD DUP2 DUP2 MSTORE POP POP POP POP PUSH1 0x1 ADD PUSH2 0x1279 JUMP JUMPDEST PUSH1 0x60 PUSH2 0x1393 DUP4 DUP6 PUSH2 0x6D72 JUMP JUMPDEST PUSH1 0x20 DUP6 ADD MLOAD PUSH1 0x40 DUP1 MLOAD PUSH1 0x2 DUP1 DUP3 MSTORE PUSH1 0x60 DUP3 DUP2 ADD SWAP1 SWAP4 MSTORE DUP2 PUSH1 0x20 ADD PUSH1 0x20 DUP3 MUL DUP1 CALLDATASIZE DUP4 CALLDATACOPY ADD SWAP1 POP POP SWAP1 POP DUP6 DUP2 PUSH1 0x0 DUP2 MLOAD DUP2 LT PUSH2 0x13C9 JUMPI INVALID JUMPDEST PUSH1 0x20 MUL PUSH1 0x20 ADD ADD SWAP1 PUSH1 0x1 PUSH1 0x1 PUSH1 0xA0 SHL SUB AND SWAP1 DUP2 PUSH1 0x1 PUSH1 0x1 PUSH1 0xA0 SHL SUB AND DUP2 MSTORE POP POP DUP5 DUP2 PUSH1 0x1 DUP2 MLOAD DUP2 LT PUSH2 0x13F7 JUMPI INVALID JUMPDEST PUSH1 0x1 PUSH1 0x1 PUSH1 0xA0 SHL SUB SWAP1 SWAP3 AND PUSH1 0x20 SWAP3 DUP4 MUL SWAP2 SWAP1 SWAP2 ADD SWAP1 SWAP2 ADD MSTORE DUP4 MLOAD DUP1 PUSH1 0x1 PUSH1 0x1 PUSH1 0x40 SHL SUB DUP2 GT DUP1 ISZERO PUSH2 0x1427 JUMPI PUSH1 0x0 DUP1 REVERT JUMPDEST POP PUSH1 0x40 MLOAD SWAP1 DUP1 DUP3 MSTORE DUP1 PUSH1 0x20 MUL PUSH1 0x20 ADD DUP3 ADD PUSH1 0x40 MSTORE DUP1 ISZERO PUSH2 0x1451 JUMPI DUP2 PUSH1 0x20 ADD PUSH1 0x20 DUP3 MUL DUP1 CALLDATASIZE DUP4 CALLDATACOPY ADD SWAP1 POP JUMPDEST POP SWAP4 POP PUSH2 0x145C PUSH2 0x9044 JUMP JUMPDEST PUSH2 0x1464 PUSH2 0x6D43 JUMP JUMPDEST SWAP1 POP PUSH1 0x0 JUMPDEST DUP3 DUP2 LT ISZERO PUSH2 0x15A4 JUMPI PUSH1 0x60 PUSH2 0x1490 DUP12 DUP10 DUP5 DUP2 MLOAD DUP2 LT PUSH2 0x1483 JUMPI INVALID JUMPDEST PUSH1 0x20 MUL PUSH1 0x20 ADD ADD MLOAD PUSH2 0x6DB1 JUMP JUMPDEST PUSH1 0x40 MLOAD PUSH4 0x7C268337 PUSH1 0xE1 SHL DUP2 MSTORE SWAP1 SWAP2 POP PUSH1 0x1 PUSH1 0x1 PUSH1 0xA0 SHL SUB DUP8 AND SWAP1 PUSH4 0xF84D066E SWAP1 PUSH2 0x14C6 SWAP1 PUSH1 0x0 SWAP1 DUP6 SWAP1 DUP11 SWAP1 DUP10 SWAP1 PUSH1 0x4 ADD PUSH2 0xB803 JUMP JUMPDEST PUSH1 0x0 PUSH1 0x40 MLOAD DUP1 DUP4 SUB DUP2 PUSH1 0x0 DUP8 DUP1 EXTCODESIZE ISZERO DUP1 ISZERO PUSH2 0x14E0 JUMPI PUSH1 0x0 DUP1 REVERT JUMPDEST POP GAS CALL SWAP3 POP POP POP DUP1 ISZERO PUSH2 0x1515 JUMPI POP PUSH1 0x40 MLOAD RETURNDATASIZE PUSH1 0x0 DUP3 RETURNDATACOPY PUSH1 0x1F RETURNDATASIZE SWAP1 DUP2 ADD PUSH1 0x1F NOT AND DUP3 ADD PUSH1 0x40 MSTORE PUSH2 0x1512 SWAP2 SWAP1 DUP2 ADD SWAP1 PUSH2 0xA4D5 JUMP JUMPDEST PUSH1 0x1 JUMPDEST PUSH2 0x1550 JUMPI RETURNDATASIZE DUP1 DUP1 ISZERO PUSH2 0x1543 JUMPI PUSH1 0x40 MLOAD SWAP2 POP PUSH1 0x1F NOT PUSH1 0x3F RETURNDATASIZE ADD AND DUP3 ADD PUSH1 0x40 MSTORE RETURNDATASIZE DUP3 MSTORE RETURNDATASIZE PUSH1 0x0 PUSH1 0x20 DUP5 ADD RETURNDATACOPY PUSH2 0x1548 JUMP JUMPDEST PUSH1 0x60 SWAP2 POP JUMPDEST POP POP POP PUSH2 0x15A4 JUMP JUMPDEST PUSH1 0x0 DUP2 PUSH1 0x1 DUP4 MLOAD SUB DUP2 MLOAD DUP2 LT PUSH2 0x1562 JUMPI INVALID JUMPDEST PUSH1 0x20 MUL PUSH1 0x20 ADD ADD MLOAD PUSH1 0x0 NOT MUL SWAP1 POP PUSH1 0x0 DUP2 SGT PUSH2 0x1580 JUMPI POP POP POP PUSH2 0x15A4 JUMP JUMPDEST DUP1 DUP10 DUP6 DUP2 MLOAD DUP2 LT PUSH2 0x158D JUMPI INVALID JUMPDEST PUSH1 0x20 MUL PUSH1 0x20 ADD ADD DUP2 DUP2 MSTORE POP POP POP POP POP PUSH1 0x1 ADD PUSH2 0x1469 JUMP JUMPDEST POP POP POP POP POP SWAP5 SWAP4 POP POP POP POP JUMP JUMPDEST PUSH1 0x60 PUSH2 0x15BD DUP4 DUP6 PUSH2 0x6D72 JUMP JUMPDEST DUP2 MLOAD DUP1 PUSH1 0x1 PUSH1 0x1 PUSH1 0x40 SHL SUB DUP2 GT DUP1 ISZERO PUSH2 0x15D5 JUMPI PUSH1 0x0 DUP1 REVERT JUMPDEST POP PUSH1 0x40 MLOAD SWAP1 DUP1 DUP3 MSTORE DUP1 PUSH1 0x20 MUL PUSH1 0x20 ADD DUP3 ADD PUSH1 0x40 MSTORE DUP1 ISZERO PUSH2 0x15FF JUMPI DUP2 PUSH1 0x20 ADD PUSH1 0x20 DUP3 MUL DUP1 CALLDATASIZE DUP4 CALLDATACOPY ADD SWAP1 POP JUMPDEST POP SWAP2 POP PUSH1 0x0 PUSH1 0x1 PUSH1 0x1 PUSH1 0xA0 SHL SUB DUP7 AND ISZERO PUSH2 0x1622 JUMPI PUSH2 0x161D DUP8 DUP8 PUSH2 0x6E43 JUMP JUMPDEST PUSH2 0x1625 JUMP JUMPDEST PUSH1 0x0 JUMPDEST SWAP1 POP PUSH1 0x0 PUSH1 0x1 PUSH1 0x1 PUSH1 0xA0 SHL SUB DUP7 AND ISZERO PUSH2 0x1647 JUMPI PUSH2 0x1642 DUP9 DUP8 PUSH2 0x6E43 JUMP JUMPDEST PUSH2 0x164A JUMP JUMPDEST PUSH1 0x0 JUMPDEST SWAP1 POP PUSH1 0x0 JUMPDEST DUP4 DUP2 LT ISZERO PUSH2 0xD8C JUMPI PUSH1 0x1 PUSH1 0x1 PUSH1 0x1 PUSH1 0xA0 SHL SUB DUP9 AND PUSH2 0x16AD JUMPI PUSH2 0x168C DUP5 PUSH4 0x2640F62C PUSH1 0xE0 SHL DUP10 DUP6 DUP2 MLOAD DUP2 LT PUSH2 0x167F JUMPI INVALID JUMPDEST PUSH1 0x20 MUL PUSH1 0x20 ADD ADD MLOAD PUSH2 0x6EC2 JUMP JUMPDEST DUP8 DUP5 DUP2 MLOAD DUP2 LT PUSH2 0x1698 JUMPI INVALID JUMPDEST PUSH1 0x20 MUL PUSH1 0x20 ADD ADD DUP2 SWAP4 POP DUP3 DUP2 MSTORE POP POP POP PUSH2 0x1747 JUMP JUMPDEST PUSH1 0x1 PUSH1 0x1 PUSH1 0xA0 SHL SUB DUP10 AND PUSH2 0x16D3 JUMPI PUSH2 0x168C DUP4 PUSH4 0x59E94862 PUSH1 0xE0 SHL DUP10 DUP6 DUP2 MLOAD DUP2 LT PUSH2 0x167F JUMPI INVALID JUMPDEST PUSH1 0x0 PUSH2 0x16ED DUP5 PUSH4 0x59E94862 PUSH1 0xE0 SHL DUP11 DUP7 DUP2 MLOAD DUP2 LT PUSH2 0x167F JUMPI INVALID JUMPDEST SWAP3 POP SWAP1 POP DUP1 ISZERO PUSH2 0x172A JUMPI PUSH2 0x1709 DUP6 PUSH4 0x9903D8B PUSH1 0xE2 SHL DUP4 PUSH2 0x6EC2 JUMP JUMPDEST DUP9 DUP6 DUP2 MLOAD DUP2 LT PUSH2 0x1715 JUMPI INVALID JUMPDEST PUSH1 0x20 MUL PUSH1 0x20 ADD ADD DUP2 SWAP5 POP DUP3 DUP2 MSTORE POP POP POP PUSH2 0x1745 JUMP JUMPDEST PUSH1 0x0 DUP8 DUP5 DUP2 MLOAD DUP2 LT PUSH2 0x1738 JUMPI INVALID JUMPDEST PUSH1 0x20 MUL PUSH1 0x20 ADD ADD DUP2 DUP2 MSTORE POP POP JUMPDEST POP JUMPDEST DUP1 ISZERO DUP1 PUSH2 0x1767 JUMPI POP DUP6 DUP3 DUP2 MLOAD DUP2 LT PUSH2 0x175B JUMPI INVALID JUMPDEST PUSH1 0x20 MUL PUSH1 0x20 ADD ADD MLOAD PUSH1 0x0 EQ JUMPDEST ISZERO PUSH2 0x1772 JUMPI POP PUSH2 0xD8C JUMP JUMPDEST POP PUSH1 0x1 ADD PUSH2 0x164F JUMP JUMPDEST PUSH1 0x60 PUSH2 0x1787 DUP4 DUP6 PUSH2 0x6D72 JUMP JUMPDEST PUSH1 0x0 DUP6 PUSH1 0x0 ADD MLOAD SWAP1 POP PUSH1 0x0 DUP2 PUSH1 0x1 PUSH1 0x1 PUSH1 0xA0 SHL SUB AND PUSH4 0x36569E77 PUSH1 0x40 MLOAD DUP2 PUSH4 0xFFFFFFFF AND PUSH1 0xE0 SHL DUP2 MSTORE PUSH1 0x4 ADD PUSH1 0x20 PUSH1 0x40 MLOAD DUP1 DUP4 SUB DUP2 DUP7 DUP1 EXTCODESIZE ISZERO DUP1 ISZERO PUSH2 0x17CB JUMPI PUSH1 0x0 DUP1 REVERT JUMPDEST POP GAS STATICCALL ISZERO DUP1 ISZERO PUSH2 0x17DF JUMPI RETURNDATASIZE PUSH1 0x0 DUP1 RETURNDATACOPY RETURNDATASIZE PUSH1 0x0 REVERT JUMPDEST POP POP POP POP PUSH1 0x40 MLOAD RETURNDATASIZE PUSH1 0x1F NOT PUSH1 0x1F DUP3 ADD AND DUP3 ADD DUP1 PUSH1 0x40 MSTORE POP DUP2 ADD SWAP1 PUSH2 0x1803 SWAP2 SWAP1 PUSH2 0x9EA6 JUMP JUMPDEST DUP5 MLOAD SWAP1 SWAP2 POP DUP1 PUSH1 0x1 PUSH1 0x1 PUSH1 0x40 SHL SUB DUP2 GT DUP1 ISZERO PUSH2 0x181E JUMPI PUSH1 0x0 DUP1 REVERT JUMPDEST POP PUSH1 0x40 MLOAD SWAP1 DUP1 DUP3 MSTORE DUP1 PUSH1 0x20 MUL PUSH1 0x20 ADD DUP3 ADD PUSH1 0x40 MSTORE DUP1 ISZERO PUSH2 0x1848 JUMPI DUP2 PUSH1 0x20 ADD PUSH1 0x20 DUP3 MUL DUP1 CALLDATASIZE DUP4 CALLDATACOPY ADD SWAP1 POP JUMPDEST POP SWAP4 POP DUP3 PUSH1 0x1 PUSH1 0x1 PUSH1 0xA0 SHL SUB AND PUSH4 0xF4B9FA75 PUSH1 0x40 MLOAD DUP2 PUSH4 0xFFFFFFFF AND PUSH1 0xE0 SHL DUP2 MSTORE PUSH1 0x4 ADD PUSH1 0x20 PUSH1 0x40 MLOAD DUP1 DUP4 SUB DUP2 DUP7 DUP1 EXTCODESIZE ISZERO DUP1 ISZERO PUSH2 0x1884 JUMPI PUSH1 0x0 DUP1 REVERT JUMPDEST POP GAS STATICCALL ISZERO DUP1 ISZERO PUSH2 0x1898 JUMPI RETURNDATASIZE PUSH1 0x0 DUP1 RETURNDATACOPY RETURNDATASIZE PUSH1 0x0 REVERT JUMPDEST POP POP POP POP PUSH1 0x40 MLOAD RETURNDATASIZE PUSH1 0x1F NOT PUSH1 0x1F DUP3 ADD AND DUP3 ADD DUP1 PUSH1 0x40 MSTORE POP DUP2 ADD SWAP1 PUSH2 0x18BC SWAP2 SWAP1 PUSH2 0x9EA6 JUMP JUMPDEST PUSH1 0x1 PUSH1 0x1 PUSH1 0xA0 SHL SUB AND DUP7 PUSH1 0x1 PUSH1 0x1 PUSH1 0xA0 SHL SUB AND EQ ISZERO DUP1 ISZERO PUSH2 0x195F JUMPI POP DUP3 PUSH1 0x1 PUSH1 0x1 PUSH1 0xA0 SHL SUB AND PUSH4 0xF4B9FA75 PUSH1 0x40 MLOAD DUP2 PUSH4 0xFFFFFFFF AND PUSH1 0xE0 SHL DUP2 MSTORE PUSH1 0x4 ADD PUSH1 0x20 PUSH1 0x40 MLOAD DUP1 DUP4 SUB DUP2 DUP7 DUP1 EXTCODESIZE ISZERO DUP1 ISZERO PUSH2 0x1911 JUMPI PUSH1 0x0 DUP1 REVERT JUMPDEST POP GAS STATICCALL ISZERO DUP1 ISZERO PUSH2 0x1925 JUMPI RETURNDATASIZE PUSH1 0x0 DUP1 RETURNDATACOPY RETURNDATASIZE PUSH1 0x0 REVERT JUMPDEST POP POP POP POP PUSH1 0x40 MLOAD RETURNDATASIZE PUSH1 0x1F NOT PUSH1 0x1F DUP3 ADD AND DUP3 ADD DUP1 PUSH1 0x40 MSTORE POP DUP2 ADD SWAP1 PUSH2 0x1949 SWAP2 SWAP1 PUSH2 0x9EA6 JUMP JUMPDEST PUSH1 0x1 PUSH1 0x1 PUSH1 0xA0 SHL SUB AND DUP8 PUSH1 0x1 PUSH1 0x1 PUSH1 0xA0 SHL SUB AND EQ ISZERO JUMPDEST ISZERO PUSH2 0x196C JUMPI POP POP POP PUSH2 0x19C8 JUMP JUMPDEST PUSH1 0x0 JUMPDEST DUP2 DUP2 LT ISZERO PUSH2 0xD8C JUMPI PUSH1 0x0 PUSH2 0x199A DUP11 DUP10 DUP12 DUP11 DUP7 DUP2 MLOAD DUP2 LT PUSH2 0x198B JUMPI INVALID JUMPDEST PUSH1 0x20 MUL PUSH1 0x20 ADD ADD MLOAD DUP10 DUP10 PUSH2 0x6FA5 JUMP JUMPDEST SWAP1 POP DUP1 PUSH2 0x19A7 JUMPI POP PUSH2 0xD8C JUMP JUMPDEST DUP1 DUP7 DUP4 DUP2 MLOAD DUP2 LT PUSH2 0x19B4 JUMPI INVALID JUMPDEST PUSH1 0x20 SWAP1 DUP2 MUL SWAP2 SWAP1 SWAP2 ADD ADD MSTORE POP PUSH1 0x1 ADD PUSH2 0x196F JUMP JUMPDEST SWAP5 SWAP4 POP POP POP POP JUMP JUMPDEST PUSH1 0x40 DUP1 MLOAD PUSH1 0x60 DUP2 DUP2 ADD SWAP1 SWAP3 MSTORE PUSH2 0x1A36 SWAP1 DUP1 PUSH2 0x19EF DUP7 DUP10 PUSH1 0x80 DUP5 ADD PUSH2 0xB861 JUMP JUMPDEST PUSH1 0x40 MLOAD PUSH1 0x20 DUP2 DUP4 SUB SUB DUP2 MSTORE SWAP1 PUSH1 0x40 MSTORE DUP2 MSTORE PUSH1 0x20 ADD DUP7 DUP9 PUSH1 0x40 MLOAD PUSH1 0x20 ADD PUSH2 0x1A16 SWAP3 SWAP2 SWAP1 PUSH2 0xB861 JUMP JUMPDEST PUSH1 0x40 MLOAD PUSH1 0x20 DUP2 DUP4 SUB SUB DUP2 MSTORE SWAP1 PUSH1 0x40 MSTORE DUP2 MSTORE PUSH1 0x20 ADD PUSH2 0x7264 DUP2 MSTORE POP DUP4 PUSH2 0x7397 JUMP JUMPDEST SWAP6 SWAP5 POP POP POP POP POP JUMP JUMPDEST PUSH1 0x0 DUP1 PUSH1 0x60 PUSH2 0x1A4E DUP6 DUP8 PUSH2 0x6D72 JUMP JUMPDEST DUP4 MLOAD DUP1 PUSH1 0x1 PUSH1 0x1 PUSH1 0x40 SHL SUB DUP2 GT DUP1 ISZERO PUSH2 0x1A66 JUMPI PUSH1 0x0 DUP1 REVERT JUMPDEST POP PUSH1 0x40 MLOAD SWAP1 DUP1 DUP3 MSTORE DUP1 PUSH1 0x20 MUL PUSH1 0x20 ADD DUP3 ADD PUSH1 0x40 MSTORE DUP1 ISZERO PUSH2 0x1A90 JUMPI DUP2 PUSH1 0x20 ADD PUSH1 0x20 DUP3 MUL DUP1 CALLDATASIZE DUP4 CALLDATACOPY ADD SWAP1 POP JUMPDEST POP DUP9 MLOAD PUSH1 0x40 MLOAD PUSH4 0x939D863 PUSH1 0xE1 SHL DUP2 MSTORE SWAP2 SWAP4 POP PUSH1 0x1 PUSH1 0x1 PUSH1 0xA0 SHL SUB AND SWAP1 PUSH4 0x1273B0C6 SWAP1 PUSH2 0x1AC3 SWAP1 DUP11 SWAP1 DUP11 SWAP1 PUSH1 0x4 ADD PUSH2 0xB316 JUMP JUMPDEST PUSH1 0x20 PUSH1 0x40 MLOAD DUP1 DUP4 SUB DUP2 DUP7 DUP1 EXTCODESIZE ISZERO DUP1 ISZERO PUSH2 0x1ADB JUMPI PUSH1 0x0 DUP1 REVERT JUMPDEST POP GAS STATICCALL ISZERO DUP1 ISZERO PUSH2 0x1AEF JUMPI RETURNDATASIZE PUSH1 0x0 DUP1 RETURNDATACOPY RETURNDATASIZE PUSH1 0x0 REVERT JUMPDEST POP POP POP POP PUSH1 0x40 MLOAD RETURNDATASIZE PUSH1 0x1F NOT PUSH1 0x1F DUP3 ADD AND DUP3 ADD DUP1 PUSH1 0x40 MSTORE POP DUP2 ADD SWAP1 PUSH2 0x1B13 SWAP2 SWAP1 PUSH2 0x9EA6 JUMP JUMPDEST SWAP3 POP PUSH1 0x0 PUSH1 0x1 PUSH1 0x1 PUSH1 0xA0 SHL SUB DUP5 AND ISZERO PUSH2 0x1B31 JUMPI POP PUSH1 0x1 SWAP4 POP DUP7 PUSH2 0x1BD0 JUMP JUMPDEST DUP9 MLOAD PUSH1 0x40 MLOAD PUSH4 0x939D863 PUSH1 0xE1 SHL DUP2 MSTORE PUSH1 0x1 PUSH1 0x1 PUSH1 0xA0 SHL SUB SWAP1 SWAP2 AND SWAP1 PUSH4 0x1273B0C6 SWAP1 PUSH2 0x1B62 SWAP1 DUP11 SWAP1 DUP13 SWAP1 PUSH1 0x4 ADD PUSH2 0xB316 JUMP JUMPDEST PUSH1 0x20 PUSH1 0x40 MLOAD DUP1 DUP4 SUB DUP2 DUP7 DUP1 EXTCODESIZE ISZERO DUP1 ISZERO PUSH2 0x1B7A JUMPI PUSH1 0x0 DUP1 REVERT JUMPDEST POP GAS STATICCALL ISZERO DUP1 ISZERO PUSH2 0x1B8E JUMPI RETURNDATASIZE PUSH1 0x0 DUP1 RETURNDATACOPY RETURNDATASIZE PUSH1 0x0 REVERT JUMPDEST POP POP POP POP PUSH1 0x40 MLOAD RETURNDATASIZE PUSH1 0x1F NOT PUSH1 0x1F DUP3 ADD AND DUP3 ADD DUP1 PUSH1 0x40 MSTORE POP DUP2 ADD SWAP1 PUSH2 0x1BB2 SWAP2 SWAP1 PUSH2 0x9EA6 JUMP JUMPDEST SWAP4 POP PUSH1 0x1 PUSH1 0x1 PUSH1 0xA0 SHL SUB DUP5 AND PUSH2 0x1BC9 JUMPI POP POP PUSH2 0x1208 JUMP JUMPDEST POP PUSH1 0x0 SWAP4 POP DUP6 JUMPDEST DUP4 PUSH1 0x1 PUSH1 0x1 PUSH1 0xA0 SHL SUB AND PUSH4 0xDD58B41C PUSH1 0x40 MLOAD DUP2 PUSH4 0xFFFFFFFF AND PUSH1 0xE0 SHL DUP2 MSTORE PUSH1 0x4 ADD PUSH1 0x20 PUSH1 0x40 MLOAD DUP1 DUP4 SUB DUP2 DUP7 DUP1 EXTCODESIZE ISZERO DUP1 ISZERO PUSH2 0x1C09 JUMPI PUSH1 0x0 DUP1 REVERT JUMPDEST POP GAS STATICCALL ISZERO DUP1 ISZERO PUSH2 0x1C1D JUMPI RETURNDATASIZE PUSH1 0x0 DUP1 RETURNDATACOPY RETURNDATASIZE PUSH1 0x0 REVERT JUMPDEST POP POP POP POP PUSH1 0x40 MLOAD RETURNDATASIZE PUSH1 0x1F NOT PUSH1 0x1F DUP3 ADD AND DUP3 ADD DUP1 PUSH1 0x40 MSTORE POP DUP2 ADD SWAP1 PUSH2 0x1C41 SWAP2 SWAP1 PUSH2 0xA5AD JUMP JUMPDEST PUSH2 0x1C4C JUMPI POP POP PUSH2 0x1208 JUMP JUMPDEST PUSH1 0x0 JUMPDEST DUP3 DUP2 LT ISZERO PUSH2 0x1D0F JUMPI PUSH1 0x0 PUSH2 0x1CC9 DUP11 DUP8 DUP6 DUP15 PUSH1 0x20 ADD MLOAD PUSH1 0x40 MLOAD PUSH1 0x20 ADD PUSH2 0x1C77 SWAP5 SWAP4 SWAP3 SWAP2 SWAP1 PUSH2 0xB331 JUMP JUMPDEST PUSH1 0x40 MLOAD PUSH1 0x20 DUP2 DUP4 SUB SUB DUP2 MSTORE SWAP1 PUSH1 0x40 MSTORE DUP11 DUP9 DUP7 DUP16 PUSH1 0x20 ADD MLOAD PUSH1 0x40 MLOAD PUSH1 0x20 ADD PUSH2 0x1CA1 SWAP5 SWAP4 SWAP3 SWAP2 SWAP1 PUSH2 0xB331 JUMP JUMPDEST PUSH1 0x40 MLOAD PUSH1 0x20 DUP2 DUP4 SUB SUB DUP2 MSTORE SWAP1 PUSH1 0x40 MSTORE DUP11 DUP6 DUP2 MLOAD DUP2 LT PUSH2 0x1CBC JUMPI INVALID JUMPDEST PUSH1 0x20 MUL PUSH1 0x20 ADD ADD MLOAD PUSH2 0x75A9 JUMP JUMPDEST SWAP1 POP DUP1 DUP6 DUP4 DUP2 MLOAD DUP2 LT PUSH2 0x1CD8 JUMPI INVALID JUMPDEST PUSH1 0x20 MUL PUSH1 0x20 ADD ADD DUP2 DUP2 MSTORE POP POP DUP5 DUP3 DUP2 MLOAD DUP2 LT PUSH2 0x1CF0 JUMPI INVALID JUMPDEST PUSH1 0x20 MUL PUSH1 0x20 ADD ADD MLOAD PUSH1 0x0 EQ ISZERO PUSH2 0x1D06 JUMPI POP PUSH2 0x1D0F JUMP JUMPDEST POP PUSH1 0x1 ADD PUSH2 0x1C4F JUMP JUMPDEST POP POP POP SWAP5 POP SWAP5 POP SWAP5 SWAP2 POP POP JUMP JUMPDEST PUSH1 0x60 PUSH2 0x1D28 DUP4 DUP6 PUSH2 0x6D72 JUMP JUMPDEST DUP2 MLOAD DUP1 PUSH1 0x1 PUSH1 0x1 PUSH1 0x40 SHL SUB DUP2 GT DUP1 ISZERO PUSH2 0x1D40 JUMPI PUSH1 0x0 DUP1 REVERT JUMPDEST POP PUSH1 0x40 MLOAD SWAP1 DUP1 DUP3 MSTORE DUP1 PUSH1 0x20 MUL PUSH1 0x20 ADD DUP3 ADD PUSH1 0x40 MSTORE DUP1 ISZERO PUSH2 0x1D6A JUMPI DUP2 PUSH1 0x20 ADD PUSH1 0x20 DUP3 MUL DUP1 CALLDATASIZE DUP4 CALLDATACOPY ADD SWAP1 POP JUMPDEST POP SWAP2 POP PUSH1 0x0 JUMPDEST DUP2 DUP2 LT ISZERO PUSH2 0x1E86 JUMPI DUP7 PUSH1 0x1 PUSH1 0x1 PUSH1 0xA0 SHL SUB AND PUSH4 0x72EA9076 PUSH3 0xC3500 DUP9 DUP9 DUP9 DUP7 DUP2 MLOAD DUP2 LT PUSH2 0x1D99 JUMPI INVALID JUMPDEST PUSH1 0x20 MUL PUSH1 0x20 ADD ADD MLOAD PUSH1 0x40 MLOAD DUP6 PUSH4 0xFFFFFFFF AND PUSH1 0xE0 SHL DUP2 MSTORE PUSH1 0x4 ADD PUSH2 0x1DBF SWAP4 SWAP3 SWAP2 SWAP1 PUSH2 0xB470 JUMP JUMPDEST PUSH1 0x20 PUSH1 0x40 MLOAD DUP1 DUP4 SUB DUP2 DUP8 DUP1 EXTCODESIZE ISZERO DUP1 ISZERO PUSH2 0x1DD7 JUMPI PUSH1 0x0 DUP1 REVERT JUMPDEST POP DUP7 STATICCALL SWAP4 POP POP POP POP DUP1 ISZERO PUSH2 0x1E08 JUMPI POP PUSH1 0x40 DUP1 MLOAD PUSH1 0x1F RETURNDATASIZE SWAP1 DUP2 ADD PUSH1 0x1F NOT AND DUP3 ADD SWAP1 SWAP3 MSTORE PUSH2 0x1E05 SWAP2 DUP2 ADD SWAP1 PUSH2 0xA5CB JUMP JUMPDEST PUSH1 0x1 JUMPDEST PUSH2 0x1E42 JUMPI RETURNDATASIZE DUP1 DUP1 ISZERO PUSH2 0x1E36 JUMPI PUSH1 0x40 MLOAD SWAP2 POP PUSH1 0x1F NOT PUSH1 0x3F RETURNDATASIZE ADD AND DUP3 ADD PUSH1 0x40 MSTORE RETURNDATASIZE DUP3 MSTORE RETURNDATASIZE PUSH1 0x0 PUSH1 0x20 DUP5 ADD RETURNDATACOPY PUSH2 0x1E3B JUMP JUMPDEST PUSH1 0x60 SWAP2 POP JUMPDEST POP POP PUSH2 0x1E86 JUMP JUMPDEST DUP1 DUP5 DUP4 DUP2 MLOAD DUP2 LT PUSH2 0x1E4F JUMPI INVALID JUMPDEST PUSH1 0x20 MUL PUSH1 0x20 ADD ADD DUP2 DUP2 MSTORE POP POP DUP4 DUP3 DUP2 MLOAD DUP2 LT PUSH2 0x1E67 JUMPI INVALID JUMPDEST PUSH1 0x20 MUL PUSH1 0x20 ADD ADD MLOAD PUSH1 0x0 EQ ISZERO PUSH2 0x1E7D JUMPI POP PUSH2 0x1E86 JUMP JUMPDEST POP PUSH1 0x1 ADD PUSH2 0x1D70 JUMP JUMPDEST POP POP SWAP5 SWAP4 POP POP POP POP JUMP JUMPDEST DUP1 MLOAD PUSH1 0x60 SWAP1 DUP1 PUSH1 0x1 PUSH1 0x1 PUSH1 0x40 SHL SUB DUP2 GT DUP1 ISZERO PUSH2 0x1EAB JUMPI PUSH1 0x0 DUP1 REVERT JUMPDEST POP PUSH1 0x40 MLOAD SWAP1 DUP1 DUP3 MSTORE DUP1 PUSH1 0x20 MUL PUSH1 0x20 ADD DUP3 ADD PUSH1 0x40 MSTORE DUP1 ISZERO PUSH2 0x1ED5 JUMPI DUP2 PUSH1 0x20 ADD PUSH1 0x20 DUP3 MUL DUP1 CALLDATASIZE DUP4 CALLDATACOPY ADD SWAP1 POP JUMPDEST POP SWAP2 POP PUSH1 0x0 JUMPDEST DUP2 DUP2 LT ISZERO PUSH2 0x200B JUMPI DUP6 PUSH1 0x1 PUSH1 0x1 PUSH1 0xA0 SHL SUB AND PUSH4 0xD06CA61F PUSH3 0x249F0 DUP7 DUP5 DUP2 MLOAD DUP2 LT PUSH2 0x1F02 JUMPI INVALID JUMPDEST PUSH1 0x20 MUL PUSH1 0x20 ADD ADD MLOAD DUP9 PUSH1 0x40 MLOAD DUP5 PUSH4 0xFFFFFFFF AND PUSH1 0xE0 SHL DUP2 MSTORE PUSH1 0x4 ADD PUSH2 0x1F28 SWAP3 SWAP2 SWAP1 PUSH2 0xB9A2 JUMP JUMPDEST PUSH1 0x0 PUSH1 0x40 MLOAD DUP1 DUP4 SUB DUP2 DUP8 DUP1 EXTCODESIZE ISZERO DUP1 ISZERO PUSH2 0x1F40 JUMPI PUSH1 0x0 DUP1 REVERT JUMPDEST POP DUP7 STATICCALL SWAP4 POP POP POP POP DUP1 ISZERO PUSH2 0x1F76 JUMPI POP PUSH1 0x40 MLOAD RETURNDATASIZE PUSH1 0x0 DUP3 RETURNDATACOPY PUSH1 0x1F RETURNDATASIZE SWAP1 DUP2 ADD PUSH1 0x1F NOT AND DUP3 ADD PUSH1 0x40 MSTORE PUSH2 0x1F73 SWAP2 SWAP1 DUP2 ADD SWAP1 PUSH2 0xA579 JUMP JUMPDEST PUSH1 0x1 JUMPDEST PUSH2 0x1FB0 JUMPI RETURNDATASIZE DUP1 DUP1 ISZERO PUSH2 0x1FA4 JUMPI PUSH1 0x40 MLOAD SWAP2 POP PUSH1 0x1F NOT PUSH1 0x3F RETURNDATASIZE ADD AND DUP3 ADD PUSH1 0x40 MSTORE RETURNDATASIZE DUP3 MSTORE RETURNDATASIZE PUSH1 0x0 PUSH1 0x20 DUP5 ADD RETURNDATACOPY PUSH2 0x1FA9 JUMP JUMPDEST PUSH1 0x60 SWAP2 POP JUMPDEST POP POP PUSH2 0x200B JUMP JUMPDEST DUP1 PUSH1 0x1 DUP8 MLOAD SUB DUP2 MLOAD DUP2 LT PUSH2 0x1FC0 JUMPI INVALID JUMPDEST PUSH1 0x20 MUL PUSH1 0x20 ADD ADD MLOAD DUP5 DUP4 DUP2 MLOAD DUP2 LT PUSH2 0x1FD4 JUMPI INVALID JUMPDEST PUSH1 0x20 MUL PUSH1 0x20 ADD ADD DUP2 DUP2 MSTORE POP POP DUP4 DUP3 DUP2 MLOAD DUP2 LT PUSH2 0x1FEC JUMPI INVALID JUMPDEST PUSH1 0x20 MUL PUSH1 0x20 ADD ADD MLOAD PUSH1 0x0 EQ ISZERO PUSH2 0x2002 JUMPI POP PUSH2 0x200B JUMP JUMPDEST POP PUSH1 0x1 ADD PUSH2 0x1EDB JUMP JUMPDEST POP POP SWAP4 SWAP3 POP POP POP JUMP JUMPDEST PUSH1 0x60 PUSH2 0x2020 DUP4 DUP6 PUSH2 0x6D72 JUMP JUMPDEST DUP5 PUSH1 0x20 ADD MLOAD PUSH1 0x1 PUSH1 0x1 PUSH1 0xA0 SHL SUB AND DUP5 PUSH1 0x1 PUSH1 0x1 PUSH1 0xA0 SHL SUB AND EQ ISZERO DUP1 PUSH2 0x2052 JUMPI POP DUP5 MLOAD PUSH1 0x1 PUSH1 0x1 PUSH1 0xA0 SHL SUB DUP5 DUP2 AND SWAP2 AND EQ ISZERO JUMPDEST ISZERO PUSH2 0x10AA JUMPI DUP2 MLOAD PUSH1 0x60 DUP2 PUSH1 0x1 PUSH1 0x1 PUSH1 0x40 SHL SUB DUP2 GT DUP1 ISZERO PUSH2 0x2071 JUMPI PUSH1 0x0 DUP1 REVERT JUMPDEST POP PUSH1 0x40 MLOAD SWAP1 DUP1 DUP3 MSTORE DUP1 PUSH1 0x20 MUL PUSH1 0x20 ADD DUP3 ADD PUSH1 0x40 MSTORE DUP1 ISZERO PUSH2 0x209B JUMPI DUP2 PUSH1 0x20 ADD PUSH1 0x20 DUP3 MUL DUP1 CALLDATASIZE DUP4 CALLDATACOPY ADD SWAP1 POP JUMPDEST POP SWAP3 POP PUSH2 0x19C8 SWAP2 POP POP JUMP JUMPDEST DUP1 MLOAD PUSH1 0x60 SWAP1 DUP1 PUSH1 0x1 PUSH1 0x1 PUSH1 0x40 SHL SUB DUP2 GT DUP1 ISZERO PUSH2 0x20C1 JUMPI PUSH1 0x0 DUP1 REVERT JUMPDEST POP PUSH1 0x40 MLOAD SWAP1 DUP1 DUP3 MSTORE DUP1 PUSH1 0x20 MUL PUSH1 0x20 ADD DUP3 ADD PUSH1 0x40 MSTORE DUP1 ISZERO PUSH2 0x20EB JUMPI DUP2 PUSH1 0x20 ADD PUSH1 0x20 DUP3 MUL DUP1 CALLDATASIZE DUP4 CALLDATACOPY ADD SWAP1 POP JUMPDEST POP SWAP2 POP PUSH1 0x0 JUMPDEST DUP2 DUP2 LT ISZERO PUSH2 0x1E86 JUMPI DUP7 PUSH1 0x1 PUSH1 0x1 PUSH1 0xA0 SHL SUB AND PUSH4 0xD7176CA9 DUP8 DUP8 PUSH1 0x0 DUP2 MLOAD DUP2 LT PUSH2 0x2116 JUMPI INVALID JUMPDEST PUSH1 0x20 MUL PUSH1 0x20 ADD ADD MLOAD DUP9 PUSH1 0x1 DUP2 MLOAD DUP2 LT PUSH2 0x212B JUMPI INVALID JUMPDEST PUSH1 0x20 MUL PUSH1 0x20 ADD ADD MLOAD DUP9 DUP7 DUP2 MLOAD DUP2 LT PUSH2 0x213F JUMPI INVALID JUMPDEST PUSH1 0x20 MUL PUSH1 0x20 ADD ADD MLOAD PUSH1 0x40 MLOAD DUP6 PUSH4 0xFFFFFFFF AND PUSH1 0xE0 SHL DUP2 MSTORE PUSH1 0x4 ADD PUSH2 0x2166 SWAP5 SWAP4 SWAP3 SWAP2 SWAP1 PUSH2 0xB7A5 JUMP JUMPDEST PUSH1 0x40 DUP1 MLOAD DUP1 DUP4 SUB DUP2 DUP7 DUP1 EXTCODESIZE ISZERO DUP1 ISZERO PUSH2 0x217D JUMPI PUSH1 0x0 DUP1 REVERT JUMPDEST POP GAS STATICCALL SWAP3 POP POP POP DUP1 ISZERO PUSH2 0x21AD JUMPI POP PUSH1 0x40 DUP1 MLOAD PUSH1 0x1F RETURNDATASIZE SWAP1 DUP2 ADD PUSH1 0x1F NOT AND DUP3 ADD SWAP1 SWAP3 MSTORE PUSH2 0x21AA SWAP2 DUP2 ADD SWAP1 PUSH2 0xAAC3 JUMP JUMPDEST PUSH1 0x1 JUMPDEST PUSH2 0x21DB JUMPI RETURNDATASIZE DUP1 DUP1 ISZERO PUSH2 0x1E36 JUMPI PUSH1 0x40 MLOAD SWAP2 POP PUSH1 0x1F NOT PUSH1 0x3F RETURNDATASIZE ADD AND DUP3 ADD PUSH1 0x40 MSTORE RETURNDATASIZE DUP3 MSTORE RETURNDATASIZE PUSH1 0x0 PUSH1 0x20 DUP5 ADD RETURNDATACOPY PUSH2 0x1E3B JUMP JUMPDEST DUP2 DUP6 DUP5 DUP2 MLOAD DUP2 LT PUSH2 0x21E8 JUMPI INVALID JUMPDEST PUSH1 0x20 MUL PUSH1 0x20 ADD ADD DUP2 DUP2 MSTORE POP POP DUP5 DUP4 DUP2 MLOAD DUP2 LT PUSH2 0x2200 JUMPI INVALID JUMPDEST PUSH1 0x20 MUL PUSH1 0x20 ADD ADD MLOAD PUSH1 0x0 EQ ISZERO PUSH2 0x2217 JUMPI POP POP PUSH2 0x1E86 JUMP JUMPDEST POP POP PUSH1 0x1 ADD PUSH2 0x20F1 JUMP JUMPDEST DUP1 MLOAD PUSH1 0x60 SWAP1 DUP1 PUSH1 0x1 PUSH1 0x1 PUSH1 0x40 SHL SUB DUP2 GT DUP1 ISZERO PUSH2 0x223C JUMPI PUSH1 0x0 DUP1 REVERT JUMPDEST POP PUSH1 0x40 MLOAD SWAP1 DUP1 DUP3 MSTORE DUP1 PUSH1 0x20 MUL PUSH1 0x20 ADD DUP3 ADD PUSH1 0x40 MSTORE DUP1 ISZERO PUSH2 0x2266 JUMPI DUP2 PUSH1 0x20 ADD PUSH1 0x20 DUP3 MUL DUP1 CALLDATASIZE DUP4 CALLDATACOPY ADD SWAP1 POP JUMPDEST POP SWAP2 POP PUSH1 0x0 JUMPDEST DUP2 DUP2 LT ISZERO PUSH2 0x1E86 JUMPI PUSH1 0x0 PUSH1 0x60 DUP9 PUSH1 0x0 ADD MLOAD PUSH1 0x1 PUSH1 0x1 PUSH1 0xA0 SHL SUB AND PUSH3 0x1E8480 DUP11 PUSH1 0x20 ADD MLOAD DUP11 DUP11 DUP11 DUP9 DUP2 MLOAD DUP2 LT PUSH2 0x229D JUMPI INVALID JUMPDEST PUSH1 0x20 MUL PUSH1 0x20 ADD ADD MLOAD PUSH1 0x40 MLOAD PUSH1 0x24 ADD PUSH2 0x22B7 SWAP4 SWAP3 SWAP2 SWAP1 PUSH2 0xB846 JUMP JUMPDEST PUSH1 0x40 DUP1 MLOAD PUSH1 0x1F NOT DUP2 DUP5 SUB ADD DUP2 MSTORE SWAP2 DUP2 MSTORE PUSH1 0x20 DUP3 ADD DUP1 MLOAD PUSH1 0x1 PUSH1 0x1 PUSH1 0xE0 SHL SUB AND PUSH1 0x1 PUSH1 0x1 PUSH1 0xE0 SHL SUB NOT SWAP1 SWAP5 AND SWAP4 SWAP1 SWAP4 OR SWAP1 SWAP3 MSTORE SWAP1 MLOAD PUSH2 0x22F5 SWAP2 SWAP1 PUSH2 0xB2E1 JUMP JUMPDEST PUSH1 0x0 PUSH1 0x40 MLOAD DUP1 DUP4 SUB DUP2 DUP7 DUP7 STATICCALL SWAP3 POP POP POP RETURNDATASIZE DUP1 PUSH1 0x0 DUP2 EQ PUSH2 0x2331 JUMPI PUSH1 0x40 MLOAD SWAP2 POP PUSH1 0x1F NOT PUSH1 0x3F RETURNDATASIZE ADD AND DUP3 ADD PUSH1 0x40 MSTORE RETURNDATASIZE DUP3 MSTORE RETURNDATASIZE PUSH1 0x0 PUSH1 0x20 DUP5 ADD RETURNDATACOPY PUSH2 0x2336 JUMP JUMPDEST PUSH1 0x60 SWAP2 POP JUMPDEST POP SWAP2 POP SWAP2 POP PUSH1 0x0 DUP3 ISZERO PUSH2 0x235A JUMPI DUP2 DUP1 PUSH1 0x20 ADD SWAP1 MLOAD DUP2 ADD SWAP1 PUSH2 0x2357 SWAP2 SWAP1 PUSH2 0xA5CB JUMP JUMPDEST SWAP1 POP JUMPDEST DUP1 DUP7 DUP6 DUP2 MLOAD DUP2 LT PUSH2 0x2367 JUMPI INVALID JUMPDEST PUSH1 0x20 MUL PUSH1 0x20 ADD ADD DUP2 DUP2 MSTORE POP POP DUP6 DUP5 DUP2 MLOAD DUP2 LT PUSH2 0x237F JUMPI INVALID JUMPDEST PUSH1 0x20 MUL PUSH1 0x20 ADD ADD MLOAD PUSH1 0x0 EQ ISZERO PUSH2 0x2397 JUMPI POP POP POP PUSH2 0x1E86 JUMP JUMPDEST POP POP POP PUSH1 0x1 ADD PUSH2 0x226C JUMP JUMPDEST NUMBER SWAP1 JUMP JUMPDEST DUP1 MLOAD PUSH1 0x60 SWAP1 DUP2 SWAP1 DUP1 PUSH1 0x1 PUSH1 0x1 PUSH1 0x40 SHL SUB DUP2 GT DUP1 ISZERO PUSH2 0x23C3 JUMPI PUSH1 0x0 DUP1 REVERT JUMPDEST POP PUSH1 0x40 MLOAD SWAP1 DUP1 DUP3 MSTORE DUP1 PUSH1 0x20 MUL PUSH1 0x20 ADD DUP3 ADD PUSH1 0x40 MSTORE DUP1 ISZERO PUSH2 0x23ED JUMPI DUP2 PUSH1 0x20 ADD PUSH1 0x20 DUP3 MUL DUP1 CALLDATASIZE DUP4 CALLDATACOPY ADD SWAP1 POP JUMPDEST POP SWAP2 POP PUSH2 0x23FA DUP7 DUP7 PUSH2 0x6821 JUMP JUMPDEST SWAP3 POP DUP3 MLOAD PUSH1 0x0 EQ ISZERO PUSH2 0x240C JUMPI POP PUSH2 0xF37 JUMP JUMPDEST PUSH1 0x0 JUMPDEST DUP2 DUP2 LT ISZERO PUSH2 0xF34 JUMPI DUP7 PUSH1 0x1 PUSH1 0x1 PUSH1 0xA0 SHL SUB AND PUSH4 0x9E269B68 PUSH3 0x249F0 DUP8 DUP5 DUP2 MLOAD DUP2 LT PUSH2 0x2436 JUMPI INVALID JUMPDEST PUSH1 0x20 MUL PUSH1 0x20 ADD ADD MLOAD DUP8 DUP11 PUSH1 0x40 MLOAD DUP6 PUSH4 0xFFFFFFFF AND PUSH1 0xE0 SHL DUP2 MSTORE PUSH1 0x4 ADD PUSH2 0x245E SWAP4 SWAP3 SWAP2 SWAP1 PUSH2 0xB9B0 JUMP JUMPDEST PUSH1 0x0 PUSH1 0x40 MLOAD DUP1 DUP4 SUB DUP2 DUP8 DUP1 EXTCODESIZE ISZERO DUP1 ISZERO PUSH2 0x2476 JUMPI PUSH1 0x0 DUP1 REVERT JUMPDEST POP DUP7 STATICCALL SWAP4 POP POP POP POP DUP1 ISZERO PUSH2 0x24AC JUMPI POP PUSH1 0x40 MLOAD RETURNDATASIZE PUSH1 0x0 DUP3 RETURNDATACOPY PUSH1 0x1F RETURNDATASIZE SWAP1 DUP2 ADD PUSH1 0x1F NOT AND DUP3 ADD PUSH1 0x40 MSTORE PUSH2 0x24A9 SWAP2 SWAP1 DUP2 ADD SWAP1 PUSH2 0xA579 JUMP JUMPDEST PUSH1 0x1 JUMPDEST PUSH2 0x24DA JUMPI RETURNDATASIZE DUP1 DUP1 ISZERO PUSH2 0xECD JUMPI PUSH1 0x40 MLOAD SWAP2 POP PUSH1 0x1F NOT PUSH1 0x3F RETURNDATASIZE ADD AND DUP3 ADD PUSH1 0x40 MSTORE RETURNDATASIZE DUP3 MSTORE RETURNDATASIZE PUSH1 0x0 PUSH1 0x20 DUP5 ADD RETURNDATACOPY PUSH2 0xED2 JUMP JUMPDEST DUP1 PUSH1 0x0 DUP2 MLOAD DUP2 LT PUSH2 0x24E7 JUMPI INVALID JUMPDEST PUSH1 0x20 MUL PUSH1 0x20 ADD ADD MLOAD DUP5 DUP4 DUP2 MLOAD DUP2 LT PUSH2 0x24FB JUMPI INVALID JUMPDEST PUSH1 0x20 MUL PUSH1 0x20 ADD ADD DUP2 DUP2 MSTORE POP POP DUP4 DUP3 DUP2 MLOAD DUP2 LT PUSH2 0x2513 JUMPI INVALID JUMPDEST PUSH1 0x20 MUL PUSH1 0x20 ADD ADD MLOAD PUSH1 0x0 EQ ISZERO PUSH2 0x2529 JUMPI POP PUSH2 0xF34 JUMP JUMPDEST POP PUSH1 0x1 ADD PUSH2 0x240F JUMP JUMPDEST PUSH1 0x20 DUP5 DUP2 ADD MLOAD PUSH1 0x40 DUP1 MLOAD PUSH1 0x1 DUP1 DUP3 MSTORE DUP2 DUP4 ADD SWAP1 SWAP3 MSTORE PUSH1 0x60 SWAP4 DUP5 SWAP3 SWAP1 DUP3 DUP2 ADD SWAP1 DUP1 CALLDATASIZE DUP4 CALLDATACOPY ADD SWAP1 POP POP SWAP1 POP DUP6 DUP2 PUSH1 0x0 DUP2 MLOAD DUP2 LT PUSH2 0x2569 JUMPI INVALID JUMPDEST PUSH1 0x20 SWAP1 DUP2 MUL SWAP2 SWAP1 SWAP2 ADD ADD MSTORE PUSH1 0x60 PUSH1 0x0 PUSH1 0x40 MLOAD SWAP1 DUP1 DUP3 MSTORE DUP1 PUSH1 0x20 MUL PUSH1 0x20 ADD DUP3 ADD PUSH1 0x40 MSTORE DUP1 ISZERO PUSH2 0x25A1 JUMPI DUP2 PUSH1 0x20 ADD PUSH1 0x20 DUP3 MUL DUP1 CALLDATASIZE DUP4 CALLDATACOPY ADD SWAP1 POP JUMPDEST POP SWAP1 POP DUP8 PUSH1 0x60 ADD MLOAD PUSH1 0x1 PUSH1 0x1 PUSH1 0xA0 SHL SUB AND DUP7 PUSH1 0x1 PUSH1 0x1 PUSH1 0xA0 SHL SUB AND EQ ISZERO PUSH2 0x2692 JUMPI PUSH1 0x40 MLOAD PUSH4 0x81EFCBDD PUSH1 0xE0 SHL DUP2 MSTORE PUSH1 0x1 PUSH1 0x1 PUSH1 0xA0 SHL SUB DUP5 AND SWAP1 PUSH4 0x81EFCBDD SWAP1 PUSH3 0x7A120 SWAP1 PUSH2 0x25FA SWAP1 DUP10 SWAP1 PUSH1 0x1 SWAP1 DUP9 SWAP1 DUP9 SWAP1 PUSH1 0x4 ADD PUSH2 0xB53E JUMP JUMPDEST PUSH1 0x0 PUSH1 0x40 MLOAD DUP1 DUP4 SUB DUP2 DUP8 DUP1 EXTCODESIZE ISZERO DUP1 ISZERO PUSH2 0x2612 JUMPI PUSH1 0x0 DUP1 REVERT JUMPDEST POP DUP7 STATICCALL SWAP4 POP POP POP POP DUP1 ISZERO PUSH2 0x2648 JUMPI POP PUSH1 0x40 MLOAD RETURNDATASIZE PUSH1 0x0 DUP3 RETURNDATACOPY PUSH1 0x1F RETURNDATASIZE SWAP1 DUP2 ADD PUSH1 0x1F NOT AND DUP3 ADD PUSH1 0x40 MSTORE PUSH2 0x2645 SWAP2 SWAP1 DUP2 ADD SWAP1 PUSH2 0xA5E9 JUMP JUMPDEST PUSH1 0x1 JUMPDEST PUSH2 0x2682 JUMPI RETURNDATASIZE DUP1 DUP1 ISZERO PUSH2 0x2676 JUMPI PUSH1 0x40 MLOAD SWAP2 POP PUSH1 0x1F NOT PUSH1 0x3F RETURNDATASIZE ADD AND DUP3 ADD PUSH1 0x40 MSTORE RETURNDATASIZE DUP3 MSTORE RETURNDATASIZE PUSH1 0x0 PUSH1 0x20 DUP5 ADD RETURNDATACOPY PUSH2 0x267B JUMP JUMPDEST PUSH1 0x60 SWAP2 POP JUMPDEST POP POP PUSH2 0x268D JUMP JUMPDEST SWAP4 POP PUSH2 0x19C8 SWAP3 POP POP POP JUMP JUMPDEST PUSH2 0xD8E JUMP JUMPDEST DUP8 PUSH1 0x60 ADD MLOAD PUSH1 0x1 PUSH1 0x1 PUSH1 0xA0 SHL SUB AND DUP6 PUSH1 0x1 PUSH1 0x1 PUSH1 0xA0 SHL SUB AND EQ ISZERO PUSH2 0x26E8 JUMPI PUSH1 0x40 MLOAD PUSH4 0x61E597F9 PUSH1 0xE0 SHL DUP2 MSTORE PUSH1 0x1 PUSH1 0x1 PUSH1 0xA0 SHL SUB DUP5 AND SWAP1 PUSH4 0x61E597F9 SWAP1 PUSH3 0x7A120 SWAP1 PUSH2 0x25FA SWAP1 DUP11 SWAP1 PUSH1 0x1 SWAP1 DUP9 SWAP1 DUP9 SWAP1 PUSH1 0x4 ADD PUSH2 0xB53E JUMP JUMPDEST PUSH1 0x40 MLOAD PUSH4 0x2B9A6CD PUSH1 0xE1 SHL DUP2 MSTORE PUSH1 0x1 PUSH1 0x1 PUSH1 0xA0 SHL SUB DUP5 AND SWAP1 PUSH4 0x5734D9A SWAP1 PUSH3 0x7A120 SWAP1 PUSH2 0x2728 SWAP1 DUP11 SWAP1 PUSH1 0x1 SWAP1 DUP9 SWAP1 DUP9 SWAP1 DUP14 SWAP1 DUP5 SWAP1 DUP5 SWAP1 DUP5 SWAP1 PUSH1 0x4 ADD PUSH2 0xB56B JUMP JUMPDEST PUSH1 0x0 PUSH1 0x40 MLOAD DUP1 DUP4 SUB DUP2 DUP8 DUP1 EXTCODESIZE ISZERO DUP1 ISZERO PUSH2 0x2740 JUMPI PUSH1 0x0 DUP1 REVERT JUMPDEST POP DUP7 STATICCALL SWAP4 POP POP POP POP DUP1 ISZERO PUSH2 0x2776 JUMPI POP PUSH1 0x40 MLOAD RETURNDATASIZE PUSH1 0x0 DUP3 RETURNDATACOPY PUSH1 0x1F RETURNDATASIZE SWAP1 DUP2 ADD PUSH1 0x1F NOT AND DUP3 ADD PUSH1 0x40 MSTORE PUSH2 0x2773 SWAP2 SWAP1 DUP2 ADD SWAP1 PUSH2 0xA5E9 JUMP JUMPDEST PUSH1 0x1 JUMPDEST PUSH2 0x2682 JUMPI RETURNDATASIZE DUP1 DUP1 ISZERO PUSH2 0x27A4 JUMPI PUSH1 0x40 MLOAD SWAP2 POP PUSH1 0x1F NOT PUSH1 0x3F RETURNDATASIZE ADD AND DUP3 ADD PUSH1 0x40 MSTORE RETURNDATASIZE DUP3 MSTORE RETURNDATASIZE PUSH1 0x0 PUSH1 0x20 DUP5 ADD RETURNDATACOPY PUSH2 0x27A9 JUMP JUMPDEST PUSH1 0x60 SWAP2 POP JUMPDEST POP POP PUSH2 0xD8E JUMP JUMPDEST PUSH1 0x0 GAS SWAP1 POP SWAP1 JUMP JUMPDEST PUSH1 0x60 DUP1 PUSH1 0x60 DUP1 PUSH2 0x283A DUP8 PUSH1 0x1 PUSH1 0x1 PUSH1 0xA0 SHL SUB AND PUSH4 0xC45A0155 PUSH1 0x40 MLOAD DUP2 PUSH4 0xFFFFFFFF AND PUSH1 0xE0 SHL DUP2 MSTORE PUSH1 0x4 ADD PUSH1 0x20 PUSH1 0x40 MLOAD DUP1 DUP4 SUB DUP2 DUP7 DUP1 EXTCODESIZE ISZERO DUP1 ISZERO PUSH2 0x27FA JUMPI PUSH1 0x0 DUP1 REVERT JUMPDEST POP GAS STATICCALL ISZERO DUP1 ISZERO PUSH2 0x280E JUMPI RETURNDATASIZE PUSH1 0x0 DUP1 RETURNDATACOPY RETURNDATASIZE PUSH1 0x0 REVERT JUMPDEST POP POP POP POP PUSH1 0x40 MLOAD RETURNDATASIZE PUSH1 0x1F NOT PUSH1 0x1F DUP3 ADD AND DUP3 ADD DUP1 PUSH1 0x40 MSTORE POP DUP2 ADD SWAP1 PUSH2 0x2832 SWAP2 SWAP1 PUSH2 0xA6AB JUMP JUMPDEST DUP8 PUSH1 0x0 PUSH2 0x76E2 JUMP JUMPDEST SWAP1 POP DUP5 MLOAD PUSH1 0x1 PUSH1 0x1 PUSH1 0x40 SHL SUB DUP2 GT DUP1 ISZERO PUSH2 0x2853 JUMPI PUSH1 0x0 DUP1 REVERT JUMPDEST POP PUSH1 0x40 MLOAD SWAP1 DUP1 DUP3 MSTORE DUP1 PUSH1 0x20 MUL PUSH1 0x20 ADD DUP3 ADD PUSH1 0x40 MSTORE DUP1 ISZERO PUSH2 0x287D JUMPI DUP2 PUSH1 0x20 ADD PUSH1 0x20 DUP3 MUL DUP1 CALLDATASIZE DUP4 CALLDATACOPY ADD SWAP1 POP JUMPDEST POP SWAP2 POP DUP5 MLOAD PUSH1 0x1 PUSH1 0x1 PUSH1 0x40 SHL SUB DUP2 GT DUP1 ISZERO PUSH2 0x2897 JUMPI PUSH1 0x0 DUP1 REVERT JUMPDEST POP PUSH1 0x40 MLOAD SWAP1 DUP1 DUP3 MSTORE DUP1 PUSH1 0x20 MUL PUSH1 0x20 ADD DUP3 ADD PUSH1 0x40 MSTORE DUP1 ISZERO PUSH2 0x28CB JUMPI DUP2 PUSH1 0x20 ADD JUMPDEST PUSH1 0x60 DUP2 MSTORE PUSH1 0x20 ADD SWAP1 PUSH1 0x1 SWAP1 SUB SWAP1 DUP2 PUSH2 0x28B6 JUMPI SWAP1 POP JUMPDEST POP SWAP4 POP DUP5 MLOAD PUSH1 0x1 PUSH1 0x1 PUSH1 0x40 SHL SUB DUP2 GT DUP1 ISZERO PUSH2 0x28E5 JUMPI PUSH1 0x0 DUP1 REVERT JUMPDEST POP PUSH1 0x40 MLOAD SWAP1 DUP1 DUP3 MSTORE DUP1 PUSH1 0x20 MUL PUSH1 0x20 ADD DUP3 ADD PUSH1 0x40 MSTORE DUP1 ISZERO PUSH2 0x290F JUMPI DUP2 PUSH1 0x20 ADD PUSH1 0x20 DUP3 MUL DUP1 CALLDATASIZE DUP4 CALLDATACOPY ADD SWAP1 POP JUMPDEST POP SWAP3 POP PUSH1 0x0 JUMPDEST DUP6 MLOAD DUP2 LT ISZERO PUSH2 0x2AA2 JUMPI PUSH1 0x0 DUP1 JUMPDEST DUP4 MLOAD DUP2 LT ISZERO PUSH2 0x2A34 JUMPI PUSH1 0x60 PUSH2 0x294A DUP11 DUP7 DUP5 DUP2 MLOAD DUP2 LT PUSH2 0x293D JUMPI INVALID JUMPDEST PUSH1 0x20 MUL PUSH1 0x20 ADD ADD MLOAD PUSH2 0x7B82 JUMP JUMPDEST SWAP1 POP DUP11 PUSH1 0x1 PUSH1 0x1 PUSH1 0xA0 SHL SUB AND PUSH4 0xCDCA1753 PUSH3 0xAAE60 DUP4 DUP13 DUP9 DUP2 MLOAD DUP2 LT PUSH2 0x296C JUMPI INVALID JUMPDEST PUSH1 0x20 MUL PUSH1 0x20 ADD ADD MLOAD PUSH1 0x40 MLOAD DUP5 PUSH4 0xFFFFFFFF AND PUSH1 0xE0 SHL DUP2 MSTORE PUSH1 0x4 ADD PUSH2 0x2991 SWAP3 SWAP2 SWAP1 PUSH2 0xB731 JUMP JUMPDEST PUSH1 0x0 PUSH1 0x40 MLOAD DUP1 DUP4 SUB DUP2 PUSH1 0x0 DUP9 DUP1 EXTCODESIZE ISZERO DUP1 ISZERO PUSH2 0x29AB JUMPI PUSH1 0x0 DUP1 REVERT JUMPDEST POP DUP8 CALL SWAP4 POP POP POP POP DUP1 ISZERO PUSH2 0x29E1 JUMPI POP PUSH1 0x40 MLOAD RETURNDATASIZE PUSH1 0x0 DUP3 RETURNDATACOPY PUSH1 0x1F RETURNDATASIZE SWAP1 DUP2 ADD PUSH1 0x1F NOT AND DUP3 ADD PUSH1 0x40 MSTORE PUSH2 0x29DE SWAP2 SWAP1 DUP2 ADD SWAP1 PUSH2 0xAA40 JUMP JUMPDEST PUSH1 0x1 JUMPDEST PUSH2 0x29EA JUMPI PUSH2 0x2A2B JUMP JUMPDEST DUP4 DUP8 GT PUSH2 0x2A26 JUMPI DUP4 SWAP7 POP DUP5 DUP13 DUP10 DUP2 MLOAD DUP2 LT PUSH2 0x2A01 JUMPI INVALID JUMPDEST PUSH1 0x20 MUL PUSH1 0x20 ADD ADD DUP2 SWAP1 MSTORE POP DUP1 DUP12 DUP10 DUP2 MLOAD DUP2 LT PUSH2 0x2A19 JUMPI INVALID JUMPDEST PUSH1 0x20 MUL PUSH1 0x20 ADD ADD DUP2 DUP2 MSTORE POP POP JUMPDEST POP POP POP POP JUMPDEST POP PUSH1 0x1 ADD PUSH2 0x2922 JUMP JUMPDEST POP DUP1 PUSH2 0x2A81 JUMPI PUSH1 0x40 MLOAD DUP1 PUSH1 0x20 ADD PUSH1 0x40 MSTORE DUP1 PUSH1 0x0 DUP2 MSTORE POP DUP7 DUP4 DUP2 MLOAD DUP2 LT PUSH2 0x2A56 JUMPI INVALID JUMPDEST PUSH1 0x20 MUL PUSH1 0x20 ADD ADD DUP2 SWAP1 MSTORE POP PUSH1 0x0 DUP6 DUP4 DUP2 MLOAD DUP2 LT PUSH2 0x2A6F JUMPI INVALID JUMPDEST PUSH1 0x20 MUL PUSH1 0x20 ADD ADD DUP2 DUP2 MSTORE POP POP POP PUSH2 0x2AA2 JUMP JUMPDEST DUP1 DUP5 DUP4 DUP2 MLOAD DUP2 LT PUSH2 0x2A8E JUMPI INVALID JUMPDEST PUSH1 0x20 SWAP1 DUP2 MUL SWAP2 SWAP1 SWAP2 ADD ADD MSTORE POP PUSH1 0x1 ADD PUSH2 0x2915 JUMP JUMPDEST POP POP SWAP4 POP SWAP4 POP SWAP4 SWAP1 POP JUMP JUMPDEST DUP1 MLOAD PUSH1 0x60 SWAP1 DUP6 SWAP1 DUP1 PUSH1 0x1 PUSH1 0x1 PUSH1 0x40 SHL SUB DUP2 GT DUP1 ISZERO PUSH2 0x2ACA JUMPI PUSH1 0x0 DUP1 REVERT JUMPDEST POP PUSH1 0x40 MLOAD SWAP1 DUP1 DUP3 MSTORE DUP1 PUSH1 0x20 MUL PUSH1 0x20 ADD DUP3 ADD PUSH1 0x40 MSTORE DUP1 ISZERO PUSH2 0x2AF4 JUMPI DUP2 PUSH1 0x20 ADD PUSH1 0x20 DUP3 MUL DUP1 CALLDATASIZE DUP4 CALLDATACOPY ADD SWAP1 POP JUMPDEST POP PUSH1 0x40 MLOAD PUSH4 0xBCDED89 PUSH1 0xE2 SHL DUP2 MSTORE SWAP1 SWAP4 POP PUSH1 0x1 PUSH1 0x1 PUSH1 0xA0 SHL SUB DUP4 AND SWAP1 PUSH4 0x2F37B624 SWAP1 PUSH2 0x2B24 SWAP1 DUP10 SWAP1 PUSH1 0x4 ADD PUSH2 0xB2ED JUMP JUMPDEST PUSH1 0x20 PUSH1 0x40 MLOAD DUP1 DUP4 SUB DUP2 DUP7 DUP1 EXTCODESIZE ISZERO DUP1 ISZERO PUSH2 0x2B3C JUMPI PUSH1 0x0 DUP1 REVERT JUMPDEST POP GAS STATICCALL ISZERO DUP1 ISZERO PUSH2 0x2B50 JUMPI RETURNDATASIZE PUSH1 0x0 DUP1 RETURNDATACOPY RETURNDATASIZE PUSH1 0x0 REVERT JUMPDEST POP POP POP POP PUSH1 0x40 MLOAD RETURNDATASIZE PUSH1 0x1F NOT PUSH1 0x1F DUP3 ADD AND DUP3 ADD DUP1 PUSH1 0x40 MSTORE POP DUP2 ADD SWAP1 PUSH2 0x2B74 SWAP2 SWAP1 PUSH2 0xA5AD JUMP JUMPDEST ISZERO DUP1 PUSH2 0x2BF9 JUMPI POP PUSH1 0x40 MLOAD PUSH4 0xBCDED89 PUSH1 0xE2 SHL DUP2 MSTORE PUSH1 0x1 PUSH1 0x1 PUSH1 0xA0 SHL SUB DUP4 AND SWAP1 PUSH4 0x2F37B624 SWAP1 PUSH2 0x2BA7 SWAP1 DUP9 SWAP1 PUSH1 0x4 ADD PUSH2 0xB2ED JUMP JUMPDEST PUSH1 0x20 PUSH1 0x40 MLOAD DUP1 DUP4 SUB DUP2 DUP7 DUP1 EXTCODESIZE ISZERO DUP1 ISZERO PUSH2 0x2BBF JUMPI PUSH1 0x0 DUP1 REVERT JUMPDEST POP GAS STATICCALL ISZERO DUP1 ISZERO PUSH2 0x2BD3 JUMPI RETURNDATASIZE PUSH1 0x0 DUP1 RETURNDATACOPY RETURNDATASIZE PUSH1 0x0 REVERT JUMPDEST POP POP POP POP PUSH1 0x40 MLOAD RETURNDATASIZE PUSH1 0x1F NOT PUSH1 0x1F DUP3 ADD AND DUP3 ADD DUP1 PUSH1 0x40 MSTORE POP DUP2 ADD SWAP1 PUSH2 0x2BF7 SWAP2 SWAP1 PUSH2 0xA5AD JUMP JUMPDEST ISZERO JUMPDEST ISZERO PUSH2 0x2C05 JUMPI POP POP PUSH2 0x19C8 JUMP JUMPDEST PUSH2 0x2C0D PUSH2 0x906B JUMP JUMPDEST PUSH1 0x40 MLOAD PUSH4 0xF8B2CB4F PUSH1 0xE0 SHL DUP2 MSTORE PUSH1 0x1 PUSH1 0x1 PUSH1 0xA0 SHL SUB DUP5 AND SWAP1 PUSH4 0xF8B2CB4F SWAP1 PUSH2 0x2C39 SWAP1 DUP11 SWAP1 PUSH1 0x4 ADD PUSH2 0xB2ED JUMP JUMPDEST PUSH1 0x20 PUSH1 0x40 MLOAD DUP1 DUP4 SUB DUP2 DUP7 DUP1 EXTCODESIZE ISZERO DUP1 ISZERO PUSH2 0x2C51 JUMPI PUSH1 0x0 DUP1 REVERT JUMPDEST POP GAS STATICCALL ISZERO DUP1 ISZERO PUSH2 0x2C65 JUMPI RETURNDATASIZE PUSH1 0x0 DUP1 RETURNDATACOPY RETURNDATASIZE PUSH1 0x0 REVERT JUMPDEST POP POP POP POP PUSH1 0x40 MLOAD RETURNDATASIZE PUSH1 0x1F NOT PUSH1 0x1F DUP3 ADD AND DUP3 ADD DUP1 PUSH1 0x40 MSTORE POP DUP2 ADD SWAP1 PUSH2 0x2C89 SWAP2 SWAP1 PUSH2 0xA5CB JUMP JUMPDEST DUP2 MSTORE PUSH1 0x40 MLOAD PUSH4 0xF8B2CB4F PUSH1 0xE0 SHL DUP2 MSTORE PUSH1 0x1 PUSH1 0x1 PUSH1 0xA0 SHL SUB DUP5 AND SWAP1 PUSH4 0xF8B2CB4F SWAP1 PUSH2 0x2CB7 SWAP1 DUP10 SWAP1 PUSH1 0x4 ADD PUSH2 0xB2ED JUMP JUMPDEST PUSH1 0x20 PUSH1 0x40 MLOAD DUP1 DUP4 SUB DUP2 DUP7 DUP1 EXTCODESIZE ISZERO DUP1 ISZERO PUSH2 0x2CCF JUMPI PUSH1 0x0 DUP1 REVERT JUMPDEST POP GAS STATICCALL ISZERO DUP1 ISZERO PUSH2 0x2CE3 JUMPI RETURNDATASIZE PUSH1 0x0 DUP1 RETURNDATACOPY RETURNDATASIZE PUSH1 0x0 REVERT JUMPDEST POP POP POP POP PUSH1 0x40 MLOAD RETURNDATASIZE PUSH1 0x1F NOT PUSH1 0x1F DUP3 ADD AND DUP3 ADD DUP1 PUSH1 0x40 MSTORE POP DUP2 ADD SWAP1 PUSH2 0x2D07 SWAP2 SWAP1 PUSH2 0xA5CB JUMP JUMPDEST PUSH1 0x20 DUP3 ADD MSTORE PUSH1 0x40 MLOAD PUSH4 0x4A46C673 PUSH1 0xE1 SHL DUP2 MSTORE PUSH1 0x1 PUSH1 0x1 PUSH1 0xA0 SHL SUB DUP5 AND SWAP1 PUSH4 0x948D8CE6 SWAP1 PUSH2 0x2D38 SWAP1 DUP11 SWAP1 PUSH1 0x4 ADD PUSH2 0xB2ED JUMP JUMPDEST PUSH1 0x20 PUSH1 0x40 MLOAD DUP1 DUP4 SUB DUP2 DUP7 DUP1 EXTCODESIZE ISZERO DUP1 ISZERO PUSH2 0x2D50 JUMPI PUSH1 0x0 DUP1 REVERT JUMPDEST POP GAS STATICCALL ISZERO DUP1 ISZERO PUSH2 0x2D64 JUMPI RETURNDATASIZE PUSH1 0x0 DUP1 RETURNDATACOPY RETURNDATASIZE PUSH1 0x0 REVERT JUMPDEST POP POP POP POP PUSH1 0x40 MLOAD RETURNDATASIZE PUSH1 0x1F NOT PUSH1 0x1F DUP3 ADD AND DUP3 ADD DUP1 PUSH1 0x40 MSTORE POP DUP2 ADD SWAP1 PUSH2 0x2D88 SWAP2 SWAP1 PUSH2 0xA5CB JUMP JUMPDEST PUSH1 0x40 DUP1 DUP4 ADD SWAP2 SWAP1 SWAP2 MSTORE MLOAD PUSH4 0x4A46C673 PUSH1 0xE1 SHL DUP2 MSTORE PUSH1 0x1 PUSH1 0x1 PUSH1 0xA0 SHL SUB DUP5 AND SWAP1 PUSH4 0x948D8CE6 SWAP1 PUSH2 0x2DBB SWAP1 DUP10 SWAP1 PUSH1 0x4 ADD PUSH2 0xB2ED JUMP JUMPDEST PUSH1 0x20 PUSH1 0x40 MLOAD DUP1 DUP4 SUB DUP2 DUP7 DUP1 EXTCODESIZE ISZERO DUP1 ISZERO PUSH2 0x2DD3 JUMPI PUSH1 0x0 DUP1 REVERT JUMPDEST POP GAS STATICCALL ISZERO DUP1 ISZERO PUSH2 0x2DE7 JUMPI RETURNDATASIZE PUSH1 0x0 DUP1 RETURNDATACOPY RETURNDATASIZE PUSH1 0x0 REVERT JUMPDEST POP POP POP POP PUSH1 0x40 MLOAD RETURNDATASIZE PUSH1 0x1F NOT PUSH1 0x1F DUP3 ADD AND DUP3 ADD DUP1 PUSH1 0x40 MSTORE POP DUP2 ADD SWAP1 PUSH2 0x2E0B SWAP2 SWAP1 PUSH2 0xA5CB JUMP JUMPDEST DUP2 PUSH1 0x60 ADD DUP2 DUP2 MSTORE POP POP DUP3 PUSH1 0x1 PUSH1 0x1 PUSH1 0xA0 SHL SUB AND PUSH4 0xD4CADF68 PUSH1 0x40 MLOAD DUP2 PUSH4 0xFFFFFFFF AND PUSH1 0xE0 SHL DUP2 MSTORE PUSH1 0x4 ADD PUSH1 0x20 PUSH1 0x40 MLOAD DUP1 DUP4 SUB DUP2 DUP7 DUP1 EXTCODESIZE ISZERO DUP1 ISZERO PUSH2 0x2E4D JUMPI PUSH1 0x0 DUP1 REVERT JUMPDEST POP GAS STATICCALL ISZERO DUP1 ISZERO PUSH2 0x2E61 JUMPI RETURNDATASIZE PUSH1 0x0 DUP1 RETURNDATACOPY RETURNDATASIZE PUSH1 0x0 REVERT JUMPDEST POP POP POP POP PUSH1 0x40 MLOAD RETURNDATASIZE PUSH1 0x1F NOT PUSH1 0x1F DUP3 ADD AND DUP3 ADD DUP1 PUSH1 0x40 MSTORE POP DUP2 ADD SWAP1 PUSH2 0x2E85 SWAP2 SWAP1 PUSH2 0xA5CB JUMP JUMPDEST PUSH1 0x80 DUP3 ADD MSTORE PUSH1 0x0 JUMPDEST DUP3 DUP2 LT ISZERO PUSH2 0xD8C JUMPI PUSH2 0x2EB8 DUP3 PUSH1 0x20 ADD MLOAD PUSH1 0x3 PUSH8 0xDE0B6B3A7640000 DUP2 PUSH2 0x2EAF JUMPI INVALID JUMPDEST DIV PUSH1 0x1 ADD PUSH2 0x7CDD JUMP JUMPDEST DUP7 DUP3 DUP2 MLOAD DUP2 LT PUSH2 0x2EC4 JUMPI INVALID JUMPDEST PUSH1 0x20 MUL PUSH1 0x20 ADD ADD MLOAD GT ISZERO PUSH2 0x2ED7 JUMPI PUSH2 0xD8C JUMP JUMPDEST DUP4 PUSH1 0x1 PUSH1 0x1 PUSH1 0xA0 SHL SUB AND PUSH4 0xF8D6AED4 PUSH3 0x493E0 DUP5 PUSH1 0x0 ADD MLOAD DUP6 PUSH1 0x40 ADD MLOAD DUP7 PUSH1 0x20 ADD MLOAD DUP8 PUSH1 0x60 ADD MLOAD DUP13 DUP9 DUP2 MLOAD DUP2 LT PUSH2 0x2F0A JUMPI INVALID JUMPDEST PUSH1 0x20 MUL PUSH1 0x20 ADD ADD MLOAD DUP10 PUSH1 0x80 ADD MLOAD PUSH1 0x40 MLOAD DUP9 PUSH4 0xFFFFFFFF AND PUSH1 0xE0 SHL DUP2 MSTORE PUSH1 0x4 ADD PUSH2 0x2F38 SWAP7 SWAP6 SWAP5 SWAP4 SWAP3 SWAP2 SWAP1 PUSH2 0xB9E4 JUMP JUMPDEST PUSH1 0x20 PUSH1 0x40 MLOAD DUP1 DUP4 SUB DUP2 DUP8 DUP1 EXTCODESIZE ISZERO DUP1 ISZERO PUSH2 0x2F50 JUMPI PUSH1 0x0 DUP1 REVERT JUMPDEST POP DUP7 STATICCALL SWAP4 POP POP POP POP DUP1 ISZERO PUSH2 0x2F81 JUMPI POP PUSH1 0x40 DUP1 MLOAD PUSH1 0x1F RETURNDATASIZE SWAP1 DUP2 ADD PUSH1 0x1F NOT AND DUP3 ADD SWAP1 SWAP3 MSTORE PUSH2 0x2F7E SWAP2 DUP2 ADD SWAP1 PUSH2 0xA5CB JUMP JUMPDEST PUSH1 0x1 JUMPDEST PUSH2 0x2FBB JUMPI RETURNDATASIZE DUP1 DUP1 ISZERO PUSH2 0x2FAF JUMPI PUSH1 0x40 MLOAD SWAP2 POP PUSH1 0x1F NOT PUSH1 0x3F RETURNDATASIZE ADD AND DUP3 ADD PUSH1 0x40 MSTORE RETURNDATASIZE DUP3 MSTORE RETURNDATASIZE PUSH1 0x0 PUSH1 0x20 DUP5 ADD RETURNDATACOPY PUSH2 0x2FB4 JUMP JUMPDEST PUSH1 0x60 SWAP2 POP JUMPDEST POP POP PUSH2 0xD8C JUMP JUMPDEST DUP3 MLOAD PUSH2 0x2FD3 SWAP1 PUSH1 0x2 PUSH8 0xDE0B6B3A7640000 JUMPDEST DIV PUSH2 0x7CDD JUMP JUMPDEST DUP2 GT ISZERO PUSH2 0x2FE0 JUMPI POP PUSH2 0xD8C JUMP JUMPDEST DUP1 DUP7 DUP4 DUP2 MLOAD DUP2 LT PUSH2 0x2FED JUMPI INVALID JUMPDEST PUSH1 0x20 MUL PUSH1 0x20 ADD ADD DUP2 DUP2 MSTORE POP POP DUP6 DUP3 DUP2 MLOAD DUP2 LT PUSH2 0x3005 JUMPI INVALID JUMPDEST PUSH1 0x20 MUL PUSH1 0x20 ADD ADD MLOAD PUSH1 0x0 EQ ISZERO PUSH2 0x301B JUMPI POP PUSH2 0xD8C JUMP JUMPDEST POP PUSH1 0x1 ADD PUSH2 0x2E8D JUMP JUMPDEST PUSH1 0x60 DUP1 PUSH1 0x60 DUP1 PUSH2 0x3066 DUP8 PUSH1 0x1 PUSH1 0x1 PUSH1 0xA0 SHL SUB AND PUSH4 0xC45A0155 PUSH1 0x40 MLOAD DUP2 PUSH4 0xFFFFFFFF AND PUSH1 0xE0 SHL DUP2 MSTORE PUSH1 0x4 ADD PUSH1 0x20 PUSH1 0x40 MLOAD DUP1 DUP4 SUB DUP2 DUP7 DUP1 EXTCODESIZE ISZERO DUP1 ISZERO PUSH2 0x27FA JUMPI PUSH1 0x0 DUP1 REVERT JUMPDEST SWAP1 POP PUSH1 0x60 PUSH2 0x3073 DUP8 PUSH2 0x7D3A JUMP JUMPDEST SWAP1 POP DUP6 MLOAD PUSH1 0x1 PUSH1 0x1 PUSH1 0x40 SHL SUB DUP2 GT DUP1 ISZERO PUSH2 0x308C JUMPI PUSH1 0x0 DUP1 REVERT JUMPDEST POP PUSH1 0x40 MLOAD SWAP1 DUP1 DUP3 MSTORE DUP1 PUSH1 0x20 MUL PUSH1 0x20 ADD DUP3 ADD PUSH1 0x40 MSTORE DUP1 ISZERO PUSH2 0x30B6 JUMPI DUP2 PUSH1 0x20 ADD PUSH1 0x20 DUP3 MUL DUP1 CALLDATASIZE DUP4 CALLDATACOPY ADD SWAP1 POP JUMPDEST POP SWAP3 POP DUP6 MLOAD PUSH1 0x1 PUSH1 0x1 PUSH1 0x40 SHL SUB DUP2 GT DUP1 ISZERO PUSH2 0x30D0 JUMPI PUSH1 0x0 DUP1 REVERT JUMPDEST POP PUSH1 0x40 MLOAD SWAP1 DUP1 DUP3 MSTORE DUP1 PUSH1 0x20 MUL PUSH1 0x20 ADD DUP3 ADD PUSH1 0x40 MSTORE DUP1 ISZERO PUSH2 0x3104 JUMPI DUP2 PUSH1 0x20 ADD JUMPDEST PUSH1 0x60 DUP2 MSTORE PUSH1 0x20 ADD SWAP1 PUSH1 0x1 SWAP1 SUB SWAP1 DUP2 PUSH2 0x30EF JUMPI SWAP1 POP JUMPDEST POP SWAP5 POP DUP6 MLOAD PUSH1 0x1 PUSH1 0x1 PUSH1 0x40 SHL SUB DUP2 GT DUP1 ISZERO PUSH2 0x311E JUMPI PUSH1 0x0 DUP1 REVERT JUMPDEST POP PUSH1 0x40 MLOAD SWAP1 DUP1 DUP3 MSTORE DUP1 PUSH1 0x20 MUL PUSH1 0x20 ADD DUP3 ADD PUSH1 0x40 MSTORE DUP1 ISZERO PUSH2 0x3148 JUMPI DUP2 PUSH1 0x20 ADD PUSH1 0x20 DUP3 MUL DUP1 CALLDATASIZE DUP4 CALLDATACOPY ADD SWAP1 POP JUMPDEST POP SWAP4 POP PUSH1 0x0 JUMPDEST DUP7 MLOAD DUP2 LT ISZERO PUSH2 0x32FD JUMPI PUSH1 0x0 DUP1 JUMPDEST DUP5 MLOAD DUP2 LT ISZERO PUSH2 0x328F JUMPI PUSH1 0x60 PUSH2 0x318B DUP6 PUSH2 0x3186 DUP9 DUP6 DUP2 MLOAD DUP2 LT PUSH2 0x3179 JUMPI INVALID JUMPDEST PUSH1 0x20 MUL PUSH1 0x20 ADD ADD MLOAD PUSH2 0x7DD2 JUMP JUMPDEST PUSH2 0x7B82 JUMP JUMPDEST SWAP1 POP DUP12 PUSH1 0x1 PUSH1 0x1 PUSH1 0xA0 SHL SUB AND PUSH4 0x2F80BB1D PUSH3 0xAAE60 DUP4 DUP14 DUP9 DUP2 MLOAD DUP2 LT PUSH2 0x31AD JUMPI INVALID JUMPDEST PUSH1 0x20 MUL PUSH1 0x20 ADD ADD MLOAD PUSH1 0x40 MLOAD DUP5 PUSH4 0xFFFFFFFF AND PUSH1 0xE0 SHL DUP2 MSTORE PUSH1 0x4 ADD PUSH2 0x31D2 SWAP3 SWAP2 SWAP1 PUSH2 0xB731 JUMP JUMPDEST PUSH1 0x0 PUSH1 0x40 MLOAD DUP1 DUP4 SUB DUP2 PUSH1 0x0 DUP9 DUP1 EXTCODESIZE ISZERO DUP1 ISZERO PUSH2 0x31EC JUMPI PUSH1 0x0 DUP1 REVERT JUMPDEST POP DUP8 CALL SWAP4 POP POP POP POP DUP1 ISZERO PUSH2 0x3222 JUMPI POP PUSH1 0x40 MLOAD RETURNDATASIZE PUSH1 0x0 DUP3 RETURNDATACOPY PUSH1 0x1F RETURNDATASIZE SWAP1 DUP2 ADD PUSH1 0x1F NOT AND DUP3 ADD PUSH1 0x40 MSTORE PUSH2 0x321F SWAP2 SWAP1 DUP2 ADD SWAP1 PUSH2 0xAA40 JUMP JUMPDEST PUSH1 0x1 JUMPDEST PUSH2 0x322B JUMPI PUSH2 0x3286 JUMP JUMPDEST DUP7 ISZERO DUP1 PUSH2 0x3238 JUMPI POP DUP4 DUP8 LT ISZERO JUMPDEST ISZERO PUSH2 0x3281 JUMPI DUP4 SWAP7 POP PUSH2 0x3250 DUP16 DUP12 DUP9 DUP2 MLOAD DUP2 LT PUSH2 0x293D JUMPI INVALID JUMPDEST DUP14 DUP10 DUP2 MLOAD DUP2 LT PUSH2 0x325C JUMPI INVALID JUMPDEST PUSH1 0x20 MUL PUSH1 0x20 ADD ADD DUP2 SWAP1 MSTORE POP DUP1 DUP13 DUP10 DUP2 MLOAD DUP2 LT PUSH2 0x3274 JUMPI INVALID JUMPDEST PUSH1 0x20 MUL PUSH1 0x20 ADD ADD DUP2 DUP2 MSTORE POP POP JUMPDEST POP POP POP POP JUMPDEST POP PUSH1 0x1 ADD PUSH2 0x315B JUMP JUMPDEST POP DUP1 PUSH2 0x32DC JUMPI PUSH1 0x40 MLOAD DUP1 PUSH1 0x20 ADD PUSH1 0x40 MSTORE DUP1 PUSH1 0x0 DUP2 MSTORE POP DUP8 DUP4 DUP2 MLOAD DUP2 LT PUSH2 0x32B1 JUMPI INVALID JUMPDEST PUSH1 0x20 MUL PUSH1 0x20 ADD ADD DUP2 SWAP1 MSTORE POP PUSH1 0x0 DUP7 DUP4 DUP2 MLOAD DUP2 LT PUSH2 0x32CA JUMPI INVALID JUMPDEST PUSH1 0x20 MUL PUSH1 0x20 ADD ADD DUP2 DUP2 MSTORE POP POP POP PUSH2 0x32FD JUMP JUMPDEST DUP1 DUP6 DUP4 DUP2 MLOAD DUP2 LT PUSH2 0x32E9 JUMPI INVALID JUMPDEST PUSH1 0x20 SWAP1 DUP2 MUL SWAP2 SWAP1 SWAP2 ADD ADD MSTORE POP PUSH1 0x1 ADD PUSH2 0x314E JUMP JUMPDEST POP POP POP SWAP4 POP SWAP4 POP SWAP4 SWAP1 POP JUMP JUMPDEST PUSH1 0x40 DUP1 MLOAD PUSH1 0x60 DUP2 DUP2 ADD SWAP1 SWAP3 MSTORE PUSH2 0x1A36 SWAP1 DUP1 PUSH2 0x3328 DUP7 DUP10 PUSH1 0x80 DUP5 ADD PUSH2 0xB316 JUMP JUMPDEST PUSH1 0x40 MLOAD PUSH1 0x20 DUP2 DUP4 SUB SUB DUP2 MSTORE SWAP1 PUSH1 0x40 MSTORE DUP2 MSTORE PUSH1 0x20 ADD DUP7 DUP9 PUSH1 0x40 MLOAD PUSH1 0x20 ADD PUSH2 0x334F SWAP3 SWAP2 SWAP1 PUSH2 0xB316 JUMP JUMPDEST PUSH1 0x40 MLOAD PUSH1 0x20 DUP2 DUP4 SUB SUB DUP2 MSTORE SWAP1 PUSH1 0x40 MSTORE DUP2 MSTORE PUSH1 0x20 ADD PUSH2 0x7E6A DUP2 MSTORE POP DUP4 PUSH2 0x7397 JUMP JUMPDEST PUSH1 0x60 PUSH2 0x337C DUP5 DUP5 DUP5 PUSH2 0xF3F JUMP JUMPDEST SWAP1 POP PUSH1 0x0 JUMPDEST DUP5 MLOAD DUP2 LT ISZERO PUSH2 0x10AA JUMPI DUP2 DUP2 DUP2 MLOAD DUP2 LT PUSH2 0x3396 JUMPI INVALID JUMPDEST PUSH1 0x20 MUL PUSH1 0x20 ADD ADD MLOAD PUSH1 0x0 EQ PUSH2 0x341C JUMPI PUSH2 0x3403 DUP3 DUP3 DUP2 MLOAD DUP2 LT PUSH2 0x33B4 JUMPI INVALID JUMPDEST PUSH1 0x20 MUL PUSH1 0x20 ADD ADD MLOAD DUP7 DUP4 DUP2 MLOAD DUP2 LT PUSH2 0x33C8 JUMPI INVALID JUMPDEST PUSH1 0x20 MUL PUSH1 0x20 ADD ADD MLOAD PUSH1 0x60 ADD MLOAD PUSH1 0x1 PUSH1 0x1 PUSH1 0x80 SHL SUB AND DUP8 DUP5 DUP2 MLOAD DUP2 LT PUSH2 0x33E9 JUMPI INVALID JUMPDEST PUSH1 0x20 MUL PUSH1 0x20 ADD ADD MLOAD PUSH1 0x40 ADD MLOAD PUSH1 0x1 PUSH1 0x1 PUSH1 0x80 SHL SUB AND PUSH2 0x7F7E JUMP JUMPDEST DUP3 DUP3 DUP2 MLOAD DUP2 LT PUSH2 0x340F JUMPI INVALID JUMPDEST PUSH1 0x20 MUL PUSH1 0x20 ADD ADD DUP2 DUP2 MSTORE POP POP JUMPDEST PUSH1 0x1 ADD PUSH2 0x3381 JUMP JUMPDEST PUSH1 0x60 DUP2 PUSH1 0x1 PUSH1 0x1 PUSH1 0x40 SHL SUB DUP2 GT DUP1 ISZERO PUSH2 0x343C JUMPI PUSH1 0x0 DUP1 REVERT JUMPDEST POP PUSH1 0x40 MLOAD SWAP1 DUP1 DUP3 MSTORE DUP1 PUSH1 0x20 MUL PUSH1 0x20 ADD DUP3 ADD PUSH1 0x40 MSTORE DUP1 ISZERO PUSH2 0x3476 JUMPI DUP2 PUSH1 0x20 ADD JUMPDEST PUSH2 0x3463 PUSH2 0x909A JUMP JUMPDEST DUP2 MSTORE PUSH1 0x20 ADD SWAP1 PUSH1 0x1 SWAP1 SUB SWAP1 DUP2 PUSH2 0x345B JUMPI SWAP1 POP JUMPDEST POP SWAP1 POP PUSH1 0x0 JUMPDEST DUP1 DUP4 EQ PUSH2 0x357E JUMPI PUSH1 0x1 DUP3 DUP3 DUP2 MLOAD DUP2 LT PUSH2 0x3491 JUMPI INVALID JUMPDEST PUSH1 0x20 SWAP1 DUP2 MUL SWAP2 SWAP1 SWAP2 ADD DUP2 ADD MLOAD SWAP2 ISZERO ISZERO SWAP2 ADD MSTORE DUP4 DUP4 DUP3 DUP2 DUP2 LT PUSH2 0x34AF JUMPI INVALID JUMPDEST SWAP1 POP PUSH1 0x20 MUL DUP2 ADD SWAP1 PUSH2 0x34C1 SWAP2 SWAP1 PUSH2 0xBA33 JUMP JUMPDEST ISZERO ISZERO SWAP1 POP PUSH2 0x34CE JUMPI PUSH2 0x3576 JUMP JUMPDEST ADDRESS DUP5 DUP5 DUP4 DUP2 DUP2 LT PUSH2 0x34DB JUMPI INVALID JUMPDEST SWAP1 POP PUSH1 0x20 MUL DUP2 ADD SWAP1 PUSH2 0x34ED SWAP2 SWAP1 PUSH2 0xBA33 JUMP JUMPDEST PUSH1 0x40 MLOAD PUSH2 0x34FB SWAP3 SWAP2 SWAP1 PUSH2 0xB2D4 JUMP JUMPDEST PUSH1 0x0 PUSH1 0x40 MLOAD DUP1 DUP4 SUB DUP2 PUSH1 0x0 DUP7 GAS CALL SWAP2 POP POP RETURNDATASIZE DUP1 PUSH1 0x0 DUP2 EQ PUSH2 0x3538 JUMPI PUSH1 0x40 MLOAD SWAP2 POP PUSH1 0x1F NOT PUSH1 0x3F RETURNDATASIZE ADD AND DUP3 ADD PUSH1 0x40 MSTORE RETURNDATASIZE DUP3 MSTORE RETURNDATASIZE PUSH1 0x0 PUSH1 0x20 DUP5 ADD RETURNDATACOPY PUSH2 0x353D JUMP JUMPDEST PUSH1 0x60 SWAP2 POP JUMPDEST POP DUP4 DUP4 DUP2 MLOAD DUP2 LT PUSH2 0x354A JUMPI INVALID JUMPDEST PUSH1 0x20 MUL PUSH1 0x20 ADD ADD MLOAD PUSH1 0x20 ADD DUP5 DUP5 DUP2 MLOAD DUP2 LT PUSH2 0x3561 JUMPI INVALID JUMPDEST PUSH1 0x20 SWAP1 DUP2 MUL SWAP2 SWAP1 SWAP2 ADD ADD MLOAD SWAP2 SWAP1 SWAP2 MSTORE SWAP1 ISZERO ISZERO SWAP1 MSTORE JUMPDEST PUSH1 0x1 ADD PUSH2 0x347C JUMP JUMPDEST POP SWAP3 SWAP2 POP POP JUMP JUMPDEST PUSH1 0x60 DUP2 MLOAD PUSH1 0x1 PUSH1 0x1 PUSH1 0x40 SHL SUB DUP2 GT DUP1 ISZERO PUSH2 0x359E JUMPI PUSH1 0x0 DUP1 REVERT JUMPDEST POP PUSH1 0x40 MLOAD SWAP1 DUP1 DUP3 MSTORE DUP1 PUSH1 0x20 MUL PUSH1 0x20 ADD DUP3 ADD PUSH1 0x40 MSTORE DUP1 ISZERO PUSH2 0x35C8 JUMPI DUP2 PUSH1 0x20 ADD PUSH1 0x20 DUP3 MUL DUP1 CALLDATASIZE DUP4 CALLDATACOPY ADD SWAP1 POP JUMPDEST POP SWAP1 POP PUSH1 0x0 JUMPDEST DUP3 MLOAD DUP2 EQ PUSH2 0x3671 JUMPI PUSH32 0x0 PUSH1 0x1 PUSH1 0x1 PUSH1 0xA0 SHL SUB AND DUP4 DUP3 DUP2 MLOAD DUP2 LT PUSH2 0x360C JUMPI INVALID JUMPDEST PUSH1 0x20 MUL PUSH1 0x20 ADD ADD MLOAD PUSH1 0x1 PUSH1 0x1 PUSH1 0xA0 SHL SUB AND EQ PUSH2 0x364C JUMPI PUSH2 0x3647 DUP4 DUP3 DUP2 MLOAD DUP2 LT PUSH2 0x3631 JUMPI INVALID JUMPDEST PUSH1 0x20 MUL PUSH1 0x20 ADD ADD MLOAD PUSH1 0x1 PUSH1 0x1 PUSH1 0xA0 SHL SUB AND PUSH2 0x7FA2 JUMP JUMPDEST PUSH2 0x364F JUMP JUMPDEST PUSH1 0x12 JUMPDEST PUSH1 0xFF AND DUP3 DUP3 DUP2 MLOAD DUP2 LT PUSH2 0x365E JUMPI INVALID JUMPDEST PUSH1 0x20 SWAP1 DUP2 MUL SWAP2 SWAP1 SWAP2 ADD ADD MSTORE PUSH1 0x1 ADD PUSH2 0x35CE JUMP JUMPDEST POP SWAP2 SWAP1 POP JUMP JUMPDEST PUSH1 0x0 PUSH1 0x60 DUP1 SWAP5 POP SWAP5 POP SWAP5 SWAP2 POP POP JUMP JUMPDEST PUSH1 0x40 DUP1 MLOAD PUSH1 0x2 DUP1 DUP3 MSTORE PUSH1 0x60 DUP1 DUP4 ADD DUP5 MSTORE SWAP3 DUP4 SWAP3 SWAP2 SWAP1 PUSH1 0x20 DUP4 ADD SWAP1 DUP1 CALLDATASIZE DUP4 CALLDATACOPY ADD SWAP1 POP POP SWAP1 POP DUP4 PUSH1 0x1 DUP2 MLOAD DUP2 LT PUSH2 0x36B7 JUMPI INVALID JUMPDEST PUSH1 0x20 MUL PUSH1 0x20 ADD ADD MLOAD DUP2 PUSH1 0x0 DUP2 MLOAD DUP2 LT PUSH2 0x36CC JUMPI INVALID JUMPDEST PUSH1 0x20 MUL PUSH1 0x20 ADD ADD SWAP1 PUSH1 0x1 PUSH1 0x1 PUSH1 0xA0 SHL SUB AND SWAP1 DUP2 PUSH1 0x1 PUSH1 0x1 PUSH1 0xA0 SHL SUB AND DUP2 MSTORE POP POP DUP4 PUSH1 0x0 DUP2 MLOAD DUP2 LT PUSH2 0x36F9 JUMPI INVALID JUMPDEST PUSH1 0x20 MUL PUSH1 0x20 ADD ADD MLOAD DUP2 PUSH1 0x1 DUP2 MLOAD DUP2 LT PUSH2 0x370E JUMPI INVALID JUMPDEST PUSH1 0x1 PUSH1 0x1 PUSH1 0xA0 SHL SUB SWAP1 SWAP3 AND PUSH1 0x20 SWAP3 DUP4 MUL SWAP2 SWAP1 SWAP2 ADD SWAP1 SWAP2 ADD MSTORE PUSH1 0x40 DUP1 MLOAD PUSH1 0x60 DUP2 ADD SWAP1 SWAP2 MSTORE PUSH2 0x378B SWAP1 DUP1 PUSH2 0x3744 DUP9 DUP6 PUSH1 0x80 DUP5 ADD PUSH2 0xB4EA JUMP JUMPDEST PUSH1 0x40 MLOAD PUSH1 0x20 DUP2 DUP4 SUB SUB DUP2 MSTORE SWAP1 PUSH1 0x40 MSTORE DUP2 MSTORE PUSH1 0x20 ADD DUP8 DUP8 PUSH1 0x40 MLOAD PUSH1 0x20 ADD PUSH2 0x376B SWAP3 SWAP2 SWAP1 PUSH2 0xB4EA JUMP JUMPDEST PUSH1 0x40 MLOAD PUSH1 0x20 DUP2 DUP4 SUB SUB DUP2 MSTORE SWAP1 PUSH1 0x40 MSTORE DUP2 MSTORE PUSH1 0x20 ADD PUSH2 0x804E DUP2 MSTORE POP DUP5 PUSH2 0x7397 JUMP JUMPDEST SWAP2 POP POP JUMPDEST SWAP4 SWAP3 POP POP POP JUMP JUMPDEST PUSH1 0x60 PUSH2 0x37A2 DUP4 DUP6 PUSH2 0x6D72 JUMP JUMPDEST PUSH1 0x0 DUP6 PUSH1 0x0 ADD MLOAD SWAP1 POP PUSH1 0x0 DUP2 PUSH1 0x1 PUSH1 0x1 PUSH1 0xA0 SHL SUB AND PUSH4 0x36569E77 PUSH1 0x40 MLOAD DUP2 PUSH4 0xFFFFFFFF AND PUSH1 0xE0 SHL DUP2 MSTORE PUSH1 0x4 ADD PUSH1 0x20 PUSH1 0x40 MLOAD DUP1 DUP4 SUB DUP2 DUP7 DUP1 EXTCODESIZE ISZERO DUP1 ISZERO PUSH2 0x37E6 JUMPI PUSH1 0x0 DUP1 REVERT JUMPDEST POP GAS STATICCALL ISZERO DUP1 ISZERO PUSH2 0x37FA JUMPI RETURNDATASIZE PUSH1 0x0 DUP1 RETURNDATACOPY RETURNDATASIZE PUSH1 0x0 REVERT JUMPDEST POP POP POP POP PUSH1 0x40 MLOAD RETURNDATASIZE PUSH1 0x1F NOT PUSH1 0x1F DUP3 ADD AND DUP3 ADD DUP1 PUSH1 0x40 MSTORE POP DUP2 ADD SWAP1 PUSH2 0x381E SWAP2 SWAP1 PUSH2 0x9EA6 JUMP JUMPDEST DUP5 MLOAD SWAP1 SWAP2 POP DUP1 PUSH1 0x1 PUSH1 0x1 PUSH1 0x40 SHL SUB DUP2 GT DUP1 ISZERO PUSH2 0x3839 JUMPI PUSH1 0x0 DUP1 REVERT JUMPDEST POP PUSH1 0x40 MLOAD SWAP1 DUP1 DUP3 MSTORE DUP1 PUSH1 0x20 MUL PUSH1 0x20 ADD DUP3 ADD PUSH1 0x40 MSTORE DUP1 ISZERO PUSH2 0x3863 JUMPI DUP2 PUSH1 0x20 ADD PUSH1 0x20 DUP3 MUL DUP1 CALLDATASIZE DUP4 CALLDATACOPY ADD SWAP1 POP JUMPDEST POP SWAP4 POP DUP3 PUSH1 0x1 PUSH1 0x1 PUSH1 0xA0 SHL SUB AND PUSH4 0xF4B9FA75 PUSH1 0x40 MLOAD DUP2 PUSH4 0xFFFFFFFF AND PUSH1 0xE0 SHL DUP2 MSTORE PUSH1 0x4 ADD PUSH1 0x20 PUSH1 0x40 MLOAD DUP1 DUP4 SUB DUP2 DUP7 DUP1 EXTCODESIZE ISZERO DUP1 ISZERO PUSH2 0x389F JUMPI PUSH1 0x0 DUP1 REVERT JUMPDEST POP GAS STATICCALL ISZERO DUP1 ISZERO PUSH2 0x38B3 JUMPI RETURNDATASIZE PUSH1 0x0 DUP1 RETURNDATACOPY RETURNDATASIZE PUSH1 0x0 REVERT JUMPDEST POP POP POP POP PUSH1 0x40 MLOAD RETURNDATASIZE PUSH1 0x1F NOT PUSH1 0x1F DUP3 ADD AND DUP3 ADD DUP1 PUSH1 0x40 MSTORE POP DUP2 ADD SWAP1 PUSH2 0x38D7 SWAP2 SWAP1 PUSH2 0x9EA6 JUMP JUMPDEST PUSH1 0x1 PUSH1 0x1 PUSH1 0xA0 SHL SUB AND DUP7 PUSH1 0x1 PUSH1 0x1 PUSH1 0xA0 SHL SUB AND EQ ISZERO DUP1 ISZERO PUSH2 0x397A JUMPI POP DUP3 PUSH1 0x1 PUSH1 0x1 PUSH1 0xA0 SHL SUB AND PUSH4 0xF4B9FA75 PUSH1 0x40 MLOAD DUP2 PUSH4 0xFFFFFFFF AND PUSH1 0xE0 SHL DUP2 MSTORE PUSH1 0x4 ADD PUSH1 0x20 PUSH1 0x40 MLOAD DUP1 DUP4 SUB DUP2 DUP7 DUP1 EXTCODESIZE ISZERO DUP1 ISZERO PUSH2 0x392C JUMPI PUSH1 0x0 DUP1 REVERT JUMPDEST POP GAS STATICCALL ISZERO DUP1 ISZERO PUSH2 0x3940 JUMPI RETURNDATASIZE PUSH1 0x0 DUP1 RETURNDATACOPY RETURNDATASIZE PUSH1 0x0 REVERT JUMPDEST POP POP POP POP PUSH1 0x40 MLOAD RETURNDATASIZE PUSH1 0x1F NOT PUSH1 0x1F DUP3 ADD AND DUP3 ADD DUP1 PUSH1 0x40 MSTORE POP DUP2 ADD SWAP1 PUSH2 0x3964 SWAP2 SWAP1 PUSH2 0x9EA6 JUMP JUMPDEST PUSH1 0x1 PUSH1 0x1 PUSH1 0xA0 SHL SUB AND DUP8 PUSH1 0x1 PUSH1 0x1 PUSH1 0xA0 SHL SUB AND EQ ISZERO JUMPDEST ISZERO PUSH2 0x3987 JUMPI POP POP POP PUSH2 0x19C8 JUMP JUMPDEST PUSH1 0x0 JUMPDEST DUP2 DUP2 LT ISZERO PUSH2 0xD8C JUMPI PUSH1 0x0 PUSH2 0x39B5 DUP11 DUP10 DUP12 DUP11 DUP7 DUP2 MLOAD DUP2 LT PUSH2 0x39A6 JUMPI INVALID JUMPDEST PUSH1 0x20 MUL PUSH1 0x20 ADD ADD MLOAD DUP10 DUP10 PUSH2 0x8160 JUMP JUMPDEST SWAP1 POP DUP1 PUSH2 0x39C2 JUMPI POP PUSH2 0xD8C JUMP JUMPDEST DUP1 DUP7 DUP4 DUP2 MLOAD DUP2 LT PUSH2 0x39CF JUMPI INVALID JUMPDEST PUSH1 0x20 SWAP1 DUP2 MUL SWAP2 SWAP1 SWAP2 ADD ADD MSTORE POP PUSH1 0x1 ADD PUSH2 0x398A JUMP JUMPDEST PUSH1 0x40 DUP1 MLOAD PUSH1 0x2 DUP1 DUP3 MSTORE PUSH1 0x60 DUP1 DUP4 ADD DUP5 MSTORE SWAP3 DUP4 SWAP3 SWAP2 SWAP1 PUSH1 0x20 DUP4 ADD SWAP1 DUP1 CALLDATASIZE DUP4 CALLDATACOPY ADD SWAP1 POP POP SWAP1 POP DUP4 PUSH1 0x1 DUP2 MLOAD DUP2 LT PUSH2 0x3A14 JUMPI INVALID JUMPDEST PUSH1 0x20 MUL PUSH1 0x20 ADD ADD MLOAD DUP2 PUSH1 0x0 DUP2 MLOAD DUP2 LT PUSH2 0x3A29 JUMPI INVALID JUMPDEST PUSH1 0x20 MUL PUSH1 0x20 ADD ADD SWAP1 PUSH1 0x1 PUSH1 0x1 PUSH1 0xA0 SHL SUB AND SWAP1 DUP2 PUSH1 0x1 PUSH1 0x1 PUSH1 0xA0 SHL SUB AND DUP2 MSTORE POP POP DUP4 PUSH1 0x0 DUP2 MLOAD DUP2 LT PUSH2 0x3A56 JUMPI INVALID JUMPDEST PUSH1 0x20 MUL PUSH1 0x20 ADD ADD MLOAD DUP2 PUSH1 0x1 DUP2 MLOAD DUP2 LT PUSH2 0x3A6B JUMPI INVALID JUMPDEST PUSH1 0x1 PUSH1 0x1 PUSH1 0xA0 SHL SUB SWAP1 SWAP3 AND PUSH1 0x20 SWAP3 DUP4 MUL SWAP2 SWAP1 SWAP2 ADD SWAP1 SWAP2 ADD MSTORE PUSH1 0x40 DUP1 MLOAD PUSH1 0x60 DUP2 ADD SWAP1 SWAP2 MSTORE PUSH2 0x3AEB SWAP1 DUP1 PUSH2 0x3AA2 DUP10 DUP10 DUP7 PUSH1 0x80 DUP6 ADD PUSH2 0xB3A0 JUMP JUMPDEST PUSH1 0x40 MLOAD PUSH1 0x20 DUP2 DUP4 SUB SUB DUP2 MSTORE SWAP1 PUSH1 0x40 MSTORE DUP2 MSTORE PUSH1 0x20 ADD DUP9 DUP9 DUP9 PUSH1 0x40 MLOAD PUSH1 0x20 ADD PUSH2 0x3ACB SWAP4 SWAP3 SWAP2 SWAP1 PUSH2 0xB3A0 JUMP JUMPDEST PUSH1 0x40 MLOAD PUSH1 0x20 DUP2 DUP4 SUB SUB DUP2 MSTORE SWAP1 PUSH1 0x40 MSTORE DUP2 MSTORE PUSH1 0x20 ADD PUSH2 0x83F2 DUP2 MSTORE POP DUP5 PUSH2 0x7397 JUMP JUMPDEST SWAP7 SWAP6 POP POP POP POP POP POP JUMP JUMPDEST PUSH1 0x60 PUSH1 0x0 DUP6 PUSH1 0x0 ADD MLOAD PUSH1 0x1 PUSH1 0x1 PUSH1 0xA0 SHL SUB AND PUSH4 0xBBD7F255 DUP6 PUSH1 0xF SIGNEXTEND PUSH1 0x40 MLOAD DUP3 PUSH4 0xFFFFFFFF AND PUSH1 0xE0 SHL DUP2 MSTORE PUSH1 0x4 ADD PUSH2 0x3B2C SWAP2 SWAP1 PUSH2 0xB6F2 JUMP JUMPDEST PUSH1 0x20 PUSH1 0x40 MLOAD DUP1 DUP4 SUB DUP2 DUP7 DUP1 EXTCODESIZE ISZERO DUP1 ISZERO PUSH2 0x3B44 JUMPI PUSH1 0x0 DUP1 REVERT JUMPDEST POP GAS STATICCALL ISZERO DUP1 ISZERO PUSH2 0x3B58 JUMPI RETURNDATASIZE PUSH1 0x0 DUP1 RETURNDATACOPY RETURNDATASIZE PUSH1 0x0 REVERT JUMPDEST POP POP POP POP PUSH1 0x40 MLOAD RETURNDATASIZE PUSH1 0x1F NOT PUSH1 0x1F DUP3 ADD AND DUP3 ADD DUP1 PUSH1 0x40 MSTORE POP DUP2 ADD SWAP1 PUSH2 0x3B7C SWAP2 SWAP1 PUSH2 0xA5CB JUMP JUMPDEST DUP7 MLOAD PUSH1 0x40 MLOAD PUSH4 0x1E010439 PUSH1 0xE0 SHL DUP2 MSTORE PUSH1 0x1 PUSH1 0x1 PUSH1 0xA0 SHL SUB SWAP1 SWAP2 AND SWAP1 PUSH4 0x1E010439 SWAP1 PUSH2 0x3BAF SWAP1 PUSH1 0xF DUP10 SWAP1 SIGNEXTEND SWAP1 PUSH1 0x4 ADD PUSH2 0xB6F2 JUMP JUMPDEST PUSH1 0x20 PUSH1 0x40 MLOAD DUP1 DUP4 SUB DUP2 DUP7 DUP1 EXTCODESIZE ISZERO DUP1 ISZERO PUSH2 0x3BC7 JUMPI PUSH1 0x0 DUP1 REVERT JUMPDEST POP GAS STATICCALL ISZERO DUP1 ISZERO PUSH2 0x3BDB JUMPI RETURNDATASIZE PUSH1 0x0 DUP1 RETURNDATACOPY RETURNDATASIZE PUSH1 0x0 REVERT JUMPDEST POP POP POP POP PUSH1 0x40 MLOAD RETURNDATASIZE PUSH1 0x1F NOT PUSH1 0x1F DUP3 ADD AND DUP3 ADD DUP1 PUSH1 0x40 MSTORE POP DUP2 ADD SWAP1 PUSH2 0x3BFF SWAP2 SWAP1 PUSH2 0xA5CB JUMP JUMPDEST SUB SWAP1 POP PUSH1 0x0 DUP7 PUSH1 0x0 ADD MLOAD PUSH1 0x1 PUSH1 0x1 PUSH1 0xA0 SHL SUB AND PUSH4 0xC5829514 DUP7 PUSH1 0xF SIGNEXTEND PUSH1 0x40 MLOAD DUP3 PUSH4 0xFFFFFFFF AND PUSH1 0xE0 SHL DUP2 MSTORE PUSH1 0x4 ADD PUSH2 0x3C37 SWAP2 SWAP1 PUSH2 0xB6F2 JUMP JUMPDEST PUSH1 0x80 PUSH1 0x40 MLOAD DUP1 DUP4 SUB DUP2 DUP7 DUP1 EXTCODESIZE ISZERO DUP1 ISZERO PUSH2 0x3C4F JUMPI PUSH1 0x0 DUP1 REVERT JUMPDEST POP GAS STATICCALL ISZERO DUP1 ISZERO PUSH2 0x3C63 JUMPI RETURNDATASIZE PUSH1 0x0 DUP1 RETURNDATACOPY RETURNDATASIZE PUSH1 0x0 REVERT JUMPDEST POP POP POP POP PUSH1 0x40 MLOAD RETURNDATASIZE PUSH1 0x1F NOT PUSH1 0x1F DUP3 ADD AND DUP3 ADD DUP1 PUSH1 0x40 MSTORE POP DUP2 ADD SWAP1 PUSH2 0x3C87 SWAP2 SWAP1 PUSH2 0xAAF3 JUMP JUMPDEST SWAP4 POP POP POP POP DUP1 PUSH1 0x12 SUB PUSH1 0xA EXP DUP3 DUP2 PUSH2 0x3C9B JUMPI INVALID JUMPDEST DUP6 MLOAD SWAP2 SWAP1 DIV SWAP3 POP DUP1 PUSH1 0x1 PUSH1 0x1 PUSH1 0x40 SHL SUB DUP2 GT DUP1 ISZERO PUSH2 0x3CB8 JUMPI PUSH1 0x0 DUP1 REVERT JUMPDEST POP PUSH1 0x40 MLOAD SWAP1 DUP1 DUP3 MSTORE DUP1 PUSH1 0x20 MUL PUSH1 0x20 ADD DUP3 ADD PUSH1 0x40 MSTORE DUP1 ISZERO PUSH2 0x3CE2 JUMPI DUP2 PUSH1 0x20 ADD PUSH1 0x20 DUP3 MUL DUP1 CALLDATASIZE DUP4 CALLDATACOPY ADD SWAP1 POP JUMPDEST POP SWAP4 POP PUSH1 0x0 JUMPDEST DUP2 DUP2 LT ISZERO PUSH2 0xD8C JUMPI PUSH1 0x0 PUSH1 0x60 DUP11 PUSH1 0x0 ADD MLOAD PUSH1 0x1 PUSH1 0x1 PUSH1 0xA0 SHL SUB AND PUSH3 0x927C0 DUP13 PUSH1 0x20 ADD MLOAD DUP13 DUP13 DUP13 DUP9 DUP2 MLOAD DUP2 LT PUSH2 0x3D19 JUMPI INVALID JUMPDEST PUSH1 0x20 MUL PUSH1 0x20 ADD ADD MLOAD PUSH1 0x40 MLOAD PUSH1 0x24 ADD PUSH2 0x3D33 SWAP4 SWAP3 SWAP2 SWAP1 PUSH2 0xB846 JUMP JUMPDEST PUSH1 0x40 DUP1 MLOAD PUSH1 0x1F NOT DUP2 DUP5 SUB ADD DUP2 MSTORE SWAP2 DUP2 MSTORE PUSH1 0x20 DUP3 ADD DUP1 MLOAD PUSH1 0x1 PUSH1 0x1 PUSH1 0xE0 SHL SUB AND PUSH1 0x1 PUSH1 0x1 PUSH1 0xE0 SHL SUB NOT SWAP1 SWAP5 AND SWAP4 SWAP1 SWAP4 OR SWAP1 SWAP3 MSTORE SWAP1 MLOAD PUSH2 0x3D71 SWAP2 SWAP1 PUSH2 0xB2E1 JUMP JUMPDEST PUSH1 0x0 PUSH1 0x40 MLOAD DUP1 DUP4 SUB DUP2 DUP7 DUP7 STATICCALL SWAP3 POP POP POP RETURNDATASIZE DUP1 PUSH1 0x0 DUP2 EQ PUSH2 0x3DAD JUMPI PUSH1 0x40 MLOAD SWAP2 POP PUSH1 0x1F NOT PUSH1 0x3F RETURNDATASIZE ADD AND DUP3 ADD PUSH1 0x40 MSTORE RETURNDATASIZE DUP3 MSTORE RETURNDATASIZE PUSH1 0x0 PUSH1 0x20 DUP5 ADD RETURNDATACOPY PUSH2 0x3DB2 JUMP JUMPDEST PUSH1 0x60 SWAP2 POP JUMPDEST POP SWAP2 POP SWAP2 POP PUSH1 0x0 DUP3 ISZERO PUSH2 0x3DD6 JUMPI DUP2 DUP1 PUSH1 0x20 ADD SWAP1 MLOAD DUP2 ADD SWAP1 PUSH2 0x3DD3 SWAP2 SWAP1 PUSH2 0xA5CB JUMP JUMPDEST SWAP1 POP JUMPDEST DUP7 DUP2 LT PUSH2 0x3E10 JUMPI DUP4 JUMPDEST DUP6 DUP2 LT ISZERO PUSH2 0x3E07 JUMPI DUP8 DUP10 DUP3 DUP2 MLOAD DUP2 LT PUSH2 0x3DF4 JUMPI INVALID JUMPDEST PUSH1 0x20 SWAP1 DUP2 MUL SWAP2 SWAP1 SWAP2 ADD ADD MSTORE PUSH1 0x1 ADD PUSH2 0x3DDF JUMP JUMPDEST POP POP POP POP PUSH2 0xD8C JUMP JUMPDEST DUP1 DUP9 DUP6 DUP2 MLOAD DUP2 LT PUSH2 0x3E1D JUMPI INVALID JUMPDEST PUSH1 0x20 MUL PUSH1 0x20 ADD ADD DUP2 DUP2 MSTORE POP POP DUP8 DUP5 DUP2 MLOAD DUP2 LT PUSH2 0x3E35 JUMPI INVALID JUMPDEST PUSH1 0x20 MUL PUSH1 0x20 ADD ADD MLOAD PUSH1 0x0 EQ ISZERO PUSH2 0x3E4D JUMPI POP POP POP PUSH2 0xD8C JUMP JUMPDEST POP POP POP PUSH1 0x1 ADD PUSH2 0x3CE8 JUMP JUMPDEST PUSH2 0x3E60 PUSH2 0x90B2 JUMP JUMPDEST PUSH2 0x3E68 PUSH2 0x90B2 JUMP JUMPDEST PUSH1 0x0 DUP1 DUP1 JUMPDEST DUP8 MLOAD DUP2 EQ PUSH2 0x3F6D JUMPI PUSH2 0x3EB4 PUSH1 0x20 DUP10 DUP4 DUP2 MLOAD DUP2 LT PUSH2 0x3E86 JUMPI INVALID JUMPDEST PUSH1 0x20 MUL PUSH1 0x20 ADD ADD MLOAD MLOAD SUB DUP8 DUP11 DUP5 DUP2 MLOAD DUP2 LT PUSH2 0x3E9D JUMPI INVALID JUMPDEST PUSH1 0x20 MUL PUSH1 0x20 ADD ADD MLOAD PUSH2 0x8440 SWAP1 SWAP3 SWAP2 SWAP1 PUSH4 0xFFFFFFFF AND JUMP JUMPDEST PUSH1 0x0 PUSH1 0x60 ADDRESS PUSH1 0x1 PUSH1 0x1 PUSH1 0xA0 SHL SUB AND DUP11 DUP5 DUP2 MLOAD DUP2 LT PUSH2 0x3ECE JUMPI INVALID JUMPDEST PUSH1 0x20 MUL PUSH1 0x20 ADD ADD MLOAD PUSH1 0x40 MLOAD PUSH2 0x3EE3 SWAP2 SWAP1 PUSH2 0xB2E1 JUMP JUMPDEST PUSH1 0x0 PUSH1 0x40 MLOAD DUP1 DUP4 SUB DUP2 PUSH1 0x0 DUP7 GAS CALL SWAP2 POP POP RETURNDATASIZE DUP1 PUSH1 0x0 DUP2 EQ PUSH2 0x3F20 JUMPI PUSH1 0x40 MLOAD SWAP2 POP PUSH1 0x1F NOT PUSH1 0x3F RETURNDATASIZE ADD AND DUP3 ADD PUSH1 0x40 MSTORE RETURNDATASIZE DUP3 MSTORE RETURNDATASIZE PUSH1 0x0 PUSH1 0x20 DUP5 ADD RETURNDATACOPY PUSH2 0x3F25 JUMP JUMPDEST PUSH1 0x60 SWAP2 POP JUMPDEST POP SWAP2 POP SWAP2 POP DUP2 ISZERO PUSH2 0x3F63 JUMPI PUSH1 0x0 PUSH2 0x3F49 PUSH1 0x20 DUP4 MLOAD SUB DUP4 PUSH2 0x8450 SWAP1 SWAP2 SWAP1 PUSH4 0xFFFFFFFF AND JUMP JUMPDEST SWAP1 POP DUP5 DUP2 GT ISZERO PUSH2 0x3F61 JUMPI DUP4 DUP9 MSTORE PUSH1 0x20 DUP9 ADD DUP3 SWAP1 MSTORE SWAP4 POP DUP4 JUMPDEST POP JUMPDEST POP POP PUSH1 0x1 ADD PUSH2 0x3E6D JUMP JUMPDEST POP DUP1 PUSH2 0x3F79 JUMPI POP PUSH2 0x4065 JUMP JUMPDEST PUSH1 0x0 JUMPDEST DUP7 MLOAD DUP2 EQ PUSH2 0x2AA2 JUMPI PUSH2 0x3FAC PUSH1 0x20 DUP9 DUP4 DUP2 MLOAD DUP2 LT PUSH2 0x3F95 JUMPI INVALID JUMPDEST PUSH1 0x20 MUL PUSH1 0x20 ADD ADD MLOAD MLOAD SUB DUP4 DUP10 DUP5 DUP2 MLOAD DUP2 LT PUSH2 0x3E9D JUMPI INVALID JUMPDEST PUSH1 0x0 PUSH1 0x60 ADDRESS PUSH1 0x1 PUSH1 0x1 PUSH1 0xA0 SHL SUB AND DUP10 DUP5 DUP2 MLOAD DUP2 LT PUSH2 0x3FC6 JUMPI INVALID JUMPDEST PUSH1 0x20 MUL PUSH1 0x20 ADD ADD MLOAD PUSH1 0x40 MLOAD PUSH2 0x3FDB SWAP2 SWAP1 PUSH2 0xB2E1 JUMP JUMPDEST PUSH1 0x0 PUSH1 0x40 MLOAD DUP1 DUP4 SUB DUP2 PUSH1 0x0 DUP7 GAS CALL SWAP2 POP POP RETURNDATASIZE DUP1 PUSH1 0x0 DUP2 EQ PUSH2 0x4018 JUMPI PUSH1 0x40 MLOAD SWAP2 POP PUSH1 0x1F NOT PUSH1 0x3F RETURNDATASIZE ADD AND DUP3 ADD PUSH1 0x40 MSTORE RETURNDATASIZE DUP3 MSTORE RETURNDATASIZE PUSH1 0x0 PUSH1 0x20 DUP5 ADD RETURNDATACOPY PUSH2 0x401D JUMP JUMPDEST PUSH1 0x60 SWAP2 POP JUMPDEST POP SWAP2 POP SWAP2 POP DUP2 ISZERO PUSH2 0x405B JUMPI PUSH1 0x0 PUSH2 0x4041 PUSH1 0x20 DUP4 MLOAD SUB DUP4 PUSH2 0x8450 SWAP1 SWAP2 SWAP1 PUSH4 0xFFFFFFFF AND JUMP JUMPDEST SWAP1 POP DUP6 DUP2 GT ISZERO PUSH2 0x4059 JUMPI DUP4 DUP8 MSTORE PUSH1 0x20 DUP8 ADD DUP3 SWAP1 MSTORE SWAP5 POP DUP5 JUMPDEST POP JUMPDEST POP POP PUSH1 0x1 ADD PUSH2 0x3F7C JUMP JUMPDEST SWAP4 POP SWAP4 POP SWAP4 SWAP1 POP JUMP JUMPDEST PUSH1 0x40 DUP5 ADD MLOAD PUSH1 0x60 SWAP1 PUSH1 0x1 PUSH1 0x1 PUSH1 0xE0 SHL SUB NOT AND PUSH2 0x40F0 JUMPI PUSH1 0x40 DUP1 MLOAD PUSH1 0x60 DUP2 ADD SWAP1 SWAP2 MSTORE PUSH2 0x40E9 SWAP1 DUP1 PUSH2 0x40A2 DUP7 DUP10 PUSH1 0x80 DUP5 ADD PUSH2 0xB861 JUMP JUMPDEST PUSH1 0x40 MLOAD PUSH1 0x20 DUP2 DUP4 SUB SUB DUP2 MSTORE SWAP1 PUSH1 0x40 MSTORE DUP2 MSTORE PUSH1 0x20 ADD DUP7 DUP9 PUSH1 0x40 MLOAD PUSH1 0x20 ADD PUSH2 0x40C9 SWAP3 SWAP2 SWAP1 PUSH2 0xB861 JUMP JUMPDEST PUSH1 0x40 MLOAD PUSH1 0x20 DUP2 DUP4 SUB SUB DUP2 MSTORE SWAP1 PUSH1 0x40 MSTORE DUP2 MSTORE PUSH1 0x20 ADD PUSH2 0x845C DUP2 MSTORE POP DUP4 PUSH2 0x7397 JUMP JUMPDEST SWAP1 POP PUSH2 0x19C8 JUMP JUMPDEST DUP2 MLOAD DUP1 PUSH1 0x1 PUSH1 0x1 PUSH1 0x40 SHL SUB DUP2 GT DUP1 ISZERO PUSH2 0x4108 JUMPI PUSH1 0x0 DUP1 REVERT JUMPDEST POP PUSH1 0x40 MLOAD SWAP1 DUP1 DUP3 MSTORE DUP1 PUSH1 0x20 MUL PUSH1 0x20 ADD DUP3 ADD PUSH1 0x40 MSTORE DUP1 ISZERO PUSH2 0x4132 JUMPI DUP2 PUSH1 0x20 ADD PUSH1 0x20 DUP3 MUL DUP1 CALLDATASIZE DUP4 CALLDATACOPY ADD SWAP1 POP JUMPDEST POP SWAP2 POP PUSH1 0x0 JUMPDEST DUP2 DUP2 LT ISZERO PUSH2 0x1E86 JUMPI PUSH1 0x0 PUSH1 0x60 DUP9 PUSH1 0x0 ADD MLOAD PUSH1 0x1 PUSH1 0x1 PUSH1 0xA0 SHL SUB AND PUSH3 0x1E8480 DUP11 PUSH1 0x40 ADD MLOAD DUP11 DUP11 DUP11 DUP9 DUP2 MLOAD DUP2 LT PUSH2 0x4169 JUMPI INVALID JUMPDEST PUSH1 0x20 MUL PUSH1 0x20 ADD ADD MLOAD PUSH1 0x40 MLOAD PUSH1 0x24 ADD PUSH2 0x4183 SWAP4 SWAP3 SWAP2 SWAP1 PUSH2 0xB846 JUMP JUMPDEST PUSH1 0x40 DUP1 MLOAD PUSH1 0x1F NOT DUP2 DUP5 SUB ADD DUP2 MSTORE SWAP2 DUP2 MSTORE PUSH1 0x20 DUP3 ADD DUP1 MLOAD PUSH1 0x1 PUSH1 0x1 PUSH1 0xE0 SHL SUB AND PUSH1 0x1 PUSH1 0x1 PUSH1 0xE0 SHL SUB NOT SWAP1 SWAP5 AND SWAP4 SWAP1 SWAP4 OR SWAP1 SWAP3 MSTORE SWAP1 MLOAD PUSH2 0x41C1 SWAP2 SWAP1 PUSH2 0xB2E1 JUMP JUMPDEST PUSH1 0x0 PUSH1 0x40 MLOAD DUP1 DUP4 SUB DUP2 DUP7 DUP7 STATICCALL SWAP3 POP POP POP RETURNDATASIZE DUP1 PUSH1 0x0 DUP2 EQ PUSH2 0x41FD JUMPI PUSH1 0x40 MLOAD SWAP2 POP PUSH1 0x1F NOT PUSH1 0x3F RETURNDATASIZE ADD AND DUP3 ADD PUSH1 0x40 MSTORE RETURNDATASIZE DUP3 MSTORE RETURNDATASIZE PUSH1 0x0 PUSH1 0x20 DUP5 ADD RETURNDATACOPY PUSH2 0x4202 JUMP JUMPDEST PUSH1 0x60 SWAP2 POP JUMPDEST POP SWAP2 POP SWAP2 POP PUSH1 0x0 DUP3 ISZERO PUSH2 0x4226 JUMPI DUP2 DUP1 PUSH1 0x20 ADD SWAP1 MLOAD DUP2 ADD SWAP1 PUSH2 0x4223 SWAP2 SWAP1 PUSH2 0xA5CB JUMP JUMPDEST SWAP1 POP JUMPDEST DUP1 DUP7 DUP6 DUP2 MLOAD DUP2 LT PUSH2 0x4233 JUMPI INVALID JUMPDEST PUSH1 0x20 MUL PUSH1 0x20 ADD ADD DUP2 DUP2 MSTORE POP POP DUP6 DUP5 DUP2 MLOAD DUP2 LT PUSH2 0x424B JUMPI INVALID JUMPDEST PUSH1 0x20 MUL PUSH1 0x20 ADD ADD MLOAD PUSH1 0x0 EQ ISZERO PUSH2 0x4263 JUMPI POP POP POP PUSH2 0x1E86 JUMP JUMPDEST POP POP POP PUSH1 0x1 ADD PUSH2 0x4138 JUMP JUMPDEST DUP1 MLOAD PUSH1 0x60 SWAP1 DUP6 SWAP1 DUP1 PUSH1 0x1 PUSH1 0x1 PUSH1 0x40 SHL SUB DUP2 GT DUP1 ISZERO PUSH2 0x428B JUMPI PUSH1 0x0 DUP1 REVERT JUMPDEST POP PUSH1 0x40 MLOAD SWAP1 DUP1 DUP3 MSTORE DUP1 PUSH1 0x20 MUL PUSH1 0x20 ADD DUP3 ADD PUSH1 0x40 MSTORE DUP1 ISZERO PUSH2 0x42B5 JUMPI DUP2 PUSH1 0x20 ADD PUSH1 0x20 DUP3 MUL DUP1 CALLDATASIZE DUP4 CALLDATACOPY ADD SWAP1 POP JUMPDEST POP PUSH1 0x40 MLOAD PUSH4 0xBCDED89 PUSH1 0xE2 SHL DUP2 MSTORE SWAP1 SWAP4 POP PUSH1 0x1 PUSH1 0x1 PUSH1 0xA0 SHL SUB DUP4 AND SWAP1 PUSH4 0x2F37B624 SWAP1 PUSH2 0x42E5 SWAP1 DUP10 SWAP1 PUSH1 0x4 ADD PUSH2 0xB2ED JUMP JUMPDEST PUSH1 0x20 PUSH1 0x40 MLOAD DUP1 DUP4 SUB DUP2 DUP7 DUP1 EXTCODESIZE ISZERO DUP1 ISZERO PUSH2 0x42FD JUMPI PUSH1 0x0 DUP1 REVERT JUMPDEST POP GAS STATICCALL ISZERO DUP1 ISZERO PUSH2 0x4311 JUMPI RETURNDATASIZE PUSH1 0x0 DUP1 RETURNDATACOPY RETURNDATASIZE PUSH1 0x0 REVERT JUMPDEST POP POP POP POP PUSH1 0x40 MLOAD RETURNDATASIZE PUSH1 0x1F NOT PUSH1 0x1F DUP3 ADD AND DUP3 ADD DUP1 PUSH1 0x40 MSTORE POP DUP2 ADD SWAP1 PUSH2 0x4335 SWAP2 SWAP1 PUSH2 0xA5AD JUMP JUMPDEST ISZERO DUP1 PUSH2 0x43BA JUMPI POP PUSH1 0x40 MLOAD PUSH4 0xBCDED89 PUSH1 0xE2 SHL DUP2 MSTORE PUSH1 0x1 PUSH1 0x1 PUSH1 0xA0 SHL SUB DUP4 AND SWAP1 PUSH4 0x2F37B624 SWAP1 PUSH2 0x4368 SWAP1 DUP9 SWAP1 PUSH1 0x4 ADD PUSH2 0xB2ED JUMP JUMPDEST PUSH1 0x20 PUSH1 0x40 MLOAD DUP1 DUP4 SUB DUP2 DUP7 DUP1 EXTCODESIZE ISZERO DUP1 ISZERO PUSH2 0x4380 JUMPI PUSH1 0x0 DUP1 REVERT JUMPDEST POP GAS STATICCALL ISZERO DUP1 ISZERO PUSH2 0x4394 JUMPI RETURNDATASIZE PUSH1 0x0 DUP1 RETURNDATACOPY RETURNDATASIZE PUSH1 0x0 REVERT JUMPDEST POP POP POP POP PUSH1 0x40 MLOAD RETURNDATASIZE PUSH1 0x1F NOT PUSH1 0x1F DUP3 ADD AND DUP3 ADD DUP1 PUSH1 0x40 MSTORE POP DUP2 ADD SWAP1 PUSH2 0x43B8 SWAP2 SWAP1 PUSH2 0xA5AD JUMP JUMPDEST ISZERO JUMPDEST ISZERO PUSH2 0x43C6 JUMPI POP POP PUSH2 0x19C8 JUMP JUMPDEST PUSH2 0x43CE PUSH2 0x906B JUMP JUMPDEST PUSH1 0x40 MLOAD PUSH4 0xF8B2CB4F PUSH1 0xE0 SHL DUP2 MSTORE PUSH1 0x1 PUSH1 0x1 PUSH1 0xA0 SHL SUB DUP5 AND SWAP1 PUSH4 0xF8B2CB4F SWAP1 PUSH2 0x43FA SWAP1 DUP11 SWAP1 PUSH1 0x4 ADD PUSH2 0xB2ED JUMP JUMPDEST PUSH1 0x20 PUSH1 0x40 MLOAD DUP1 DUP4 SUB DUP2 DUP7 DUP1 EXTCODESIZE ISZERO DUP1 ISZERO PUSH2 0x4412 JUMPI PUSH1 0x0 DUP1 REVERT JUMPDEST POP GAS STATICCALL ISZERO DUP1 ISZERO PUSH2 0x4426 JUMPI RETURNDATASIZE PUSH1 0x0 DUP1 RETURNDATACOPY RETURNDATASIZE PUSH1 0x0 REVERT JUMPDEST POP POP POP POP PUSH1 0x40 MLOAD RETURNDATASIZE PUSH1 0x1F NOT PUSH1 0x1F DUP3 ADD AND DUP3 ADD DUP1 PUSH1 0x40 MSTORE POP DUP2 ADD SWAP1 PUSH2 0x444A SWAP2 SWAP1 PUSH2 0xA5CB JUMP JUMPDEST DUP2 MSTORE PUSH1 0x40 MLOAD PUSH4 0xF8B2CB4F PUSH1 0xE0 SHL DUP2 MSTORE PUSH1 0x1 PUSH1 0x1 PUSH1 0xA0 SHL SUB DUP5 AND SWAP1 PUSH4 0xF8B2CB4F SWAP1 PUSH2 0x4478 SWAP1 DUP10 SWAP1 PUSH1 0x4 ADD PUSH2 0xB2ED JUMP JUMPDEST PUSH1 0x20 PUSH1 0x40 MLOAD DUP1 DUP4 SUB DUP2 DUP7 DUP1 EXTCODESIZE ISZERO DUP1 ISZERO PUSH2 0x4490 JUMPI PUSH1 0x0 DUP1 REVERT JUMPDEST POP GAS STATICCALL ISZERO DUP1 ISZERO PUSH2 0x44A4 JUMPI RETURNDATASIZE PUSH1 0x0 DUP1 RETURNDATACOPY RETURNDATASIZE PUSH1 0x0 REVERT JUMPDEST POP POP POP POP PUSH1 0x40 MLOAD RETURNDATASIZE PUSH1 0x1F NOT PUSH1 0x1F DUP3 ADD AND DUP3 ADD DUP1 PUSH1 0x40 MSTORE POP DUP2 ADD SWAP1 PUSH2 0x44C8 SWAP2 SWAP1 PUSH2 0xA5CB JUMP JUMPDEST PUSH1 0x20 DUP3 ADD MSTORE PUSH1 0x40 MLOAD PUSH4 0x4A46C673 PUSH1 0xE1 SHL DUP2 MSTORE PUSH1 0x1 PUSH1 0x1 PUSH1 0xA0 SHL SUB DUP5 AND SWAP1 PUSH4 0x948D8CE6 SWAP1 PUSH2 0x44F9 SWAP1 DUP11 SWAP1 PUSH1 0x4 ADD PUSH2 0xB2ED JUMP JUMPDEST PUSH1 0x20 PUSH1 0x40 MLOAD DUP1 DUP4 SUB DUP2 DUP7 DUP1 EXTCODESIZE ISZERO DUP1 ISZERO PUSH2 0x4511 JUMPI PUSH1 0x0 DUP1 REVERT JUMPDEST POP GAS STATICCALL ISZERO DUP1 ISZERO PUSH2 0x4525 JUMPI RETURNDATASIZE PUSH1 0x0 DUP1 RETURNDATACOPY RETURNDATASIZE PUSH1 0x0 REVERT JUMPDEST POP POP POP POP PUSH1 0x40 MLOAD RETURNDATASIZE PUSH1 0x1F NOT PUSH1 0x1F DUP3 ADD AND DUP3 ADD DUP1 PUSH1 0x40 MSTORE POP DUP2 ADD SWAP1 PUSH2 0x4549 SWAP2 SWAP1 PUSH2 0xA5CB JUMP JUMPDEST PUSH1 0x40 DUP1 DUP4 ADD SWAP2 SWAP1 SWAP2 MSTORE MLOAD PUSH4 0x4A46C673 PUSH1 0xE1 SHL DUP2 MSTORE PUSH1 0x1 PUSH1 0x1 PUSH1 0xA0 SHL SUB DUP5 AND SWAP1 PUSH4 0x948D8CE6 SWAP1 PUSH2 0x457C SWAP1 DUP10 SWAP1 PUSH1 0x4 ADD PUSH2 0xB2ED JUMP JUMPDEST PUSH1 0x20 PUSH1 0x40 MLOAD DUP1 DUP4 SUB DUP2 DUP7 DUP1 EXTCODESIZE ISZERO DUP1 ISZERO PUSH2 0x4594 JUMPI PUSH1 0x0 DUP1 REVERT JUMPDEST POP GAS STATICCALL ISZERO DUP1 ISZERO PUSH2 0x45A8 JUMPI RETURNDATASIZE PUSH1 0x0 DUP1 RETURNDATACOPY RETURNDATASIZE PUSH1 0x0 REVERT JUMPDEST POP POP POP POP PUSH1 0x40 MLOAD RETURNDATASIZE PUSH1 0x1F NOT PUSH1 0x1F DUP3 ADD AND DUP3 ADD DUP1 PUSH1 0x40 MSTORE POP DUP2 ADD SWAP1 PUSH2 0x45CC SWAP2 SWAP1 PUSH2 0xA5CB JUMP JUMPDEST DUP2 PUSH1 0x60 ADD DUP2 DUP2 MSTORE POP POP DUP3 PUSH1 0x1 PUSH1 0x1 PUSH1 0xA0 SHL SUB AND PUSH4 0xD4CADF68 PUSH1 0x40 MLOAD DUP2 PUSH4 0xFFFFFFFF AND PUSH1 0xE0 SHL DUP2 MSTORE PUSH1 0x4 ADD PUSH1 0x20 PUSH1 0x40 MLOAD DUP1 DUP4 SUB DUP2 DUP7 DUP1 EXTCODESIZE ISZERO DUP1 ISZERO PUSH2 0x460E JUMPI PUSH1 0x0 DUP1 REVERT JUMPDEST POP GAS STATICCALL ISZERO DUP1 ISZERO PUSH2 0x4622 JUMPI RETURNDATASIZE PUSH1 0x0 DUP1 RETURNDATACOPY RETURNDATASIZE PUSH1 0x0 REVERT JUMPDEST POP POP POP POP PUSH1 0x40 MLOAD RETURNDATASIZE PUSH1 0x1F NOT PUSH1 0x1F DUP3 ADD AND DUP3 ADD DUP1 PUSH1 0x40 MSTORE POP DUP2 ADD SWAP1 PUSH2 0x4646 SWAP2 SWAP1 PUSH2 0xA5CB JUMP JUMPDEST PUSH1 0x80 DUP3 ADD MSTORE PUSH1 0x0 JUMPDEST DUP3 DUP2 LT ISZERO PUSH2 0xD8C JUMPI DUP2 MLOAD PUSH2 0x466C SWAP1 PUSH1 0x2 PUSH8 0xDE0B6B3A7640000 PUSH2 0x2FCD JUMP JUMPDEST DUP7 DUP3 DUP2 MLOAD DUP2 LT PUSH2 0x4678 JUMPI INVALID JUMPDEST PUSH1 0x20 MUL PUSH1 0x20 ADD ADD MLOAD GT ISZERO PUSH2 0x468B JUMPI PUSH2 0xD8C JUMP JUMPDEST DUP4 PUSH1 0x1 PUSH1 0x1 PUSH1 0xA0 SHL SUB AND PUSH4 0xBA9530A6 PUSH3 0x493E0 DUP5 PUSH1 0x0 ADD MLOAD DUP6 PUSH1 0x40 ADD MLOAD DUP7 PUSH1 0x20 ADD MLOAD DUP8 PUSH1 0x60 ADD MLOAD DUP13 DUP9 DUP2 MLOAD DUP2 LT PUSH2 0x46BE JUMPI INVALID JUMPDEST PUSH1 0x20 MUL PUSH1 0x20 ADD ADD MLOAD DUP10 PUSH1 0x80 ADD MLOAD PUSH1 0x40 MLOAD DUP9 PUSH4 0xFFFFFFFF AND PUSH1 0xE0 SHL DUP2 MSTORE PUSH1 0x4 ADD PUSH2 0x46EC SWAP7 SWAP6 SWAP5 SWAP4 SWAP3 SWAP2 SWAP1 PUSH2 0xB9E4 JUMP JUMPDEST PUSH1 0x20 PUSH1 0x40 MLOAD DUP1 DUP4 SUB DUP2 DUP8 DUP1 EXTCODESIZE ISZERO DUP1 ISZERO PUSH2 0x4704 JUMPI PUSH1 0x0 DUP1 REVERT JUMPDEST POP DUP7 STATICCALL SWAP4 POP POP POP POP DUP1 ISZERO PUSH2 0x4735 JUMPI POP PUSH1 0x40 DUP1 MLOAD PUSH1 0x1F RETURNDATASIZE SWAP1 DUP2 ADD PUSH1 0x1F NOT AND DUP3 ADD SWAP1 SWAP3 MSTORE PUSH2 0x4732 SWAP2 DUP2 ADD SWAP1 PUSH2 0xA5CB JUMP JUMPDEST PUSH1 0x1 JUMPDEST PUSH2 0x4763 JUMPI RETURNDATASIZE DUP1 DUP1 ISZERO PUSH2 0x2FAF JUMPI PUSH1 0x40 MLOAD SWAP2 POP PUSH1 0x1F NOT PUSH1 0x3F RETURNDATASIZE ADD AND DUP3 ADD PUSH1 0x40 MSTORE RETURNDATASIZE DUP3 MSTORE RETURNDATASIZE PUSH1 0x0 PUSH1 0x20 DUP5 ADD RETURNDATACOPY PUSH2 0x2FB4 JUMP JUMPDEST DUP1 DUP7 DUP4 DUP2 MLOAD DUP2 LT PUSH2 0x4770 JUMPI INVALID JUMPDEST PUSH1 0x20 MUL PUSH1 0x20 ADD ADD DUP2 DUP2 MSTORE POP POP DUP6 DUP3 DUP2 MLOAD DUP2 LT PUSH2 0x4788 JUMPI INVALID JUMPDEST PUSH1 0x20 MUL PUSH1 0x20 ADD ADD MLOAD PUSH1 0x0 EQ ISZERO PUSH2 0x479E JUMPI POP PUSH2 0xD8C JUMP JUMPDEST POP PUSH1 0x1 ADD PUSH2 0x464E JUMP JUMPDEST PUSH1 0x0 DUP1 DUP4 MLOAD PUSH1 0x3 DUP2 GT ISZERO PUSH2 0x47B7 JUMPI INVALID JUMPDEST EQ DUP1 PUSH2 0x47CF JUMPI POP PUSH1 0x1 DUP4 MLOAD PUSH1 0x3 DUP2 GT ISZERO PUSH2 0x47CD JUMPI INVALID JUMPDEST EQ JUMPDEST DUP1 PUSH2 0x47E5 JUMPI POP PUSH1 0x40 DUP5 ADD MLOAD PUSH1 0x1 PUSH1 0x1 PUSH1 0x80 SHL SUB AND ISZERO JUMPDEST DUP1 PUSH2 0x47FB JUMPI POP PUSH1 0x60 DUP5 ADD MLOAD PUSH1 0x1 PUSH1 0x1 PUSH1 0x80 SHL SUB AND ISZERO JUMPDEST ISZERO PUSH2 0x4808 JUMPI POP PUSH1 0x0 PUSH2 0x378F JUMP JUMPDEST PUSH2 0x4810 PUSH2 0x90CC JUMP JUMPDEST PUSH1 0x0 DUP1 DUP5 PUSH1 0x1 PUSH1 0x1 PUSH1 0xA0 SHL SUB AND PUSH4 0x1FB09795 DUP9 DUP9 PUSH1 0x40 MLOAD DUP4 PUSH4 0xFFFFFFFF AND PUSH1 0xE0 SHL DUP2 MSTORE PUSH1 0x4 ADD PUSH2 0x4841 SWAP3 SWAP2 SWAP1 PUSH2 0xB95A JUMP JUMPDEST PUSH1 0xA0 PUSH1 0x40 MLOAD DUP1 DUP4 SUB DUP2 DUP7 DUP1 EXTCODESIZE ISZERO DUP1 ISZERO PUSH2 0x4859 JUMPI PUSH1 0x0 DUP1 REVERT JUMPDEST POP GAS STATICCALL ISZERO DUP1 ISZERO PUSH2 0x486D JUMPI RETURNDATASIZE PUSH1 0x0 DUP1 RETURNDATACOPY RETURNDATASIZE PUSH1 0x0 REVERT JUMPDEST POP POP POP POP PUSH1 0x40 MLOAD RETURNDATASIZE PUSH1 0x1F NOT PUSH1 0x1F DUP3 ADD AND DUP3 ADD DUP1 PUSH1 0x40 MSTORE POP DUP2 ADD SWAP1 PUSH2 0x4891 SWAP2 SWAP1 PUSH2 0xA9DF JUMP JUMPDEST SWAP2 SWAP5 POP SWAP3 POP SWAP1 POP PUSH1 0x1 DUP4 PUSH1 0x20 ADD MLOAD PUSH1 0x4 DUP2 GT ISZERO PUSH2 0x48AA JUMPI INVALID JUMPDEST EQ ISZERO DUP1 PUSH2 0x48B5 JUMPI POP DUP1 ISZERO JUMPDEST DUP1 PUSH2 0x48C8 JUMPI POP DUP7 MLOAD PUSH1 0x1 PUSH1 0x1 PUSH1 0xA0 SHL SUB AND ISZERO JUMPDEST ISZERO PUSH2 0x48D9 JUMPI PUSH1 0x0 SWAP4 POP POP POP POP PUSH2 0x378F JUMP JUMPDEST POP PUSH1 0x1 PUSH1 0x1 PUSH1 0x80 SHL SUB AND SWAP6 SWAP5 POP POP POP POP POP JUMP JUMPDEST PUSH1 0x0 PUSH1 0x60 DUP1 PUSH2 0x48FB DUP6 DUP8 PUSH2 0x6D72 JUMP JUMPDEST PUSH2 0x4906 DUP8 DUP8 DUP8 PUSH2 0x84B0 JUMP JUMPDEST SWAP3 POP DUP3 PUSH2 0x4912 JUMPI PUSH2 0x1208 JUMP JUMPDEST PUSH1 0x40 MLOAD PUSH4 0x276FDAD9 PUSH1 0xE1 SHL DUP2 MSTORE ADDRESS SWAP1 PUSH4 0x4EDFB5B2 SWAP1 PUSH2 0x493B SWAP1 DUP11 SWAP1 DUP8 SWAP1 DUP12 SWAP1 DUP12 SWAP1 PUSH1 0x4 ADD PUSH2 0xB93A JUMP JUMPDEST PUSH1 0x0 PUSH1 0x40 MLOAD DUP1 DUP4 SUB DUP2 DUP7 DUP1 EXTCODESIZE ISZERO DUP1 ISZERO PUSH2 0x4953 JUMPI PUSH1 0x0 DUP1 REVERT JUMPDEST POP GAS STATICCALL ISZERO DUP1 ISZERO PUSH2 0x4967 JUMPI RETURNDATASIZE PUSH1 0x0 DUP1 RETURNDATACOPY RETURNDATASIZE PUSH1 0x0 REVERT JUMPDEST POP POP POP POP PUSH1 0x40 MLOAD RETURNDATASIZE PUSH1 0x0 DUP3 RETURNDATACOPY PUSH1 0x1F RETURNDATASIZE SWAP1 DUP2 ADD PUSH1 0x1F NOT AND DUP3 ADD PUSH1 0x40 MSTORE PUSH2 0x498F SWAP2 SWAP1 DUP2 ADD SWAP1 PUSH2 0xA5E9 JUMP JUMPDEST DUP8 PUSH1 0x80 ADD DUP2 SWAP1 MSTORE POP DUP7 PUSH1 0x80 ADD MLOAD SWAP2 POP PUSH2 0x4A06 PUSH1 0x40 MLOAD DUP1 PUSH1 0x60 ADD PUSH1 0x40 MSTORE DUP1 DUP8 DUP11 PUSH1 0x40 MLOAD PUSH1 0x20 ADD PUSH2 0x49BF SWAP3 SWAP2 SWAP1 PUSH2 0xB5FD JUMP JUMPDEST PUSH1 0x40 MLOAD PUSH1 0x20 DUP2 DUP4 SUB SUB DUP2 MSTORE SWAP1 PUSH1 0x40 MSTORE DUP2 MSTORE PUSH1 0x20 ADD DUP9 DUP11 PUSH1 0x40 MLOAD PUSH1 0x20 ADD PUSH2 0x49E6 SWAP3 SWAP2 SWAP1 PUSH2 0xB5FD JUMP JUMPDEST PUSH1 0x40 MLOAD PUSH1 0x20 DUP2 DUP4 SUB SUB DUP2 MSTORE SWAP1 PUSH1 0x40 MSTORE DUP2 MSTORE PUSH1 0x20 ADD PUSH2 0x8617 DUP2 MSTORE POP DUP6 PUSH2 0x7397 JUMP JUMPDEST SWAP1 POP SWAP5 POP SWAP5 POP SWAP5 SWAP2 POP POP JUMP JUMPDEST PUSH1 0x0 DUP1 DUP6 PUSH1 0x1 PUSH1 0x1 PUSH1 0xA0 SHL SUB AND PUSH4 0x901754D7 DUP7 DUP7 PUSH1 0x40 MLOAD DUP4 PUSH4 0xFFFFFFFF AND PUSH1 0xE0 SHL DUP2 MSTORE PUSH1 0x4 ADD PUSH2 0x4A43 SWAP3 SWAP2 SWAP1 PUSH2 0xB316 JUMP JUMPDEST PUSH1 0x20 PUSH1 0x40 MLOAD DUP1 DUP4 SUB DUP2 DUP7 DUP1 EXTCODESIZE ISZERO DUP1 ISZERO PUSH2 0x4A5B JUMPI PUSH1 0x0 DUP1 REVERT JUMPDEST POP GAS STATICCALL ISZERO DUP1 ISZERO PUSH2 0x4A6F JUMPI RETURNDATASIZE PUSH1 0x0 DUP1 RETURNDATACOPY RETURNDATASIZE PUSH1 0x0 REVERT JUMPDEST POP POP POP POP PUSH1 0x40 MLOAD RETURNDATASIZE PUSH1 0x1F NOT PUSH1 0x1F DUP3 ADD AND DUP3 ADD DUP1 PUSH1 0x40 MSTORE POP DUP2 ADD SWAP1 PUSH2 0x4A93 SWAP2 SWAP1 PUSH2 0x9EA6 JUMP JUMPDEST SWAP1 POP PUSH1 0x1 PUSH1 0x1 PUSH1 0xA0 SHL SUB DUP2 AND PUSH2 0x4AAD JUMPI PUSH1 0x0 SWAP2 POP POP PUSH2 0x19C8 JUMP JUMPDEST PUSH1 0x0 PUSH1 0x1 PUSH1 0x1 PUSH1 0xA0 SHL SUB DUP7 AND ISZERO PUSH2 0x4B3F JUMPI PUSH1 0x40 MLOAD PUSH4 0x70A08231 PUSH1 0xE0 SHL DUP2 MSTORE PUSH1 0x1 PUSH1 0x1 PUSH1 0xA0 SHL SUB DUP8 AND SWAP1 PUSH4 0x70A08231 SWAP1 PUSH2 0x4AEA SWAP1 DUP6 SWAP1 PUSH1 0x4 ADD PUSH2 0xB2ED JUMP JUMPDEST PUSH1 0x20 PUSH1 0x40 MLOAD DUP1 DUP4 SUB DUP2 DUP7 DUP1 EXTCODESIZE ISZERO DUP1 ISZERO PUSH2 0x4B02 JUMPI PUSH1 0x0 DUP1 REVERT JUMPDEST POP GAS STATICCALL ISZERO DUP1 ISZERO PUSH2 0x4B16 JUMPI RETURNDATASIZE PUSH1 0x0 DUP1 RETURNDATACOPY RETURNDATASIZE PUSH1 0x0 REVERT JUMPDEST POP POP POP POP PUSH1 0x40 MLOAD RETURNDATASIZE PUSH1 0x1F NOT PUSH1 0x1F DUP3 ADD AND DUP3 ADD DUP1 PUSH1 0x40 MSTORE POP DUP2 ADD SWAP1 PUSH2 0x4B3A SWAP2 SWAP1 PUSH2 0xA5CB JUMP JUMPDEST PUSH2 0x4B4B JUMP JUMPDEST DUP2 PUSH1 0x1 PUSH1 0x1 PUSH1 0xA0 SHL SUB AND BALANCE JUMPDEST SWAP1 POP DUP4 DUP2 LT ISZERO PUSH2 0x4B60 JUMPI PUSH1 0x0 SWAP3 POP POP POP PUSH2 0x19C8 JUMP JUMPDEST PUSH1 0x40 MLOAD PUSH4 0x3C2803F PUSH1 0xE3 SHL DUP2 MSTORE PUSH1 0x1 PUSH1 0x1 PUSH1 0xA0 SHL SUB DUP4 AND SWAP1 PUSH4 0x1E1401F8 SWAP1 PUSH3 0x249F0 SWAP1 PUSH2 0x4B95 SWAP1 DUP11 SWAP1 DUP11 SWAP1 DUP11 SWAP1 PUSH1 0x4 ADD PUSH2 0xB470 JUMP JUMPDEST PUSH1 0x20 PUSH1 0x40 MLOAD DUP1 DUP4 SUB DUP2 DUP8 DUP1 EXTCODESIZE ISZERO DUP1 ISZERO PUSH2 0x4BAD JUMPI PUSH1 0x0 DUP1 REVERT JUMPDEST POP DUP7 STATICCALL SWAP4 POP POP POP POP DUP1 ISZERO PUSH2 0x4BDE JUMPI POP PUSH1 0x40 DUP1 MLOAD PUSH1 0x1F RETURNDATASIZE SWAP1 DUP2 ADD PUSH1 0x1F NOT AND DUP3 ADD SWAP1 SWAP3 MSTORE PUSH2 0x4BDB SWAP2 DUP2 ADD SWAP1 PUSH2 0xA5CB JUMP JUMPDEST PUSH1 0x1 JUMPDEST PUSH2 0x4C1E JUMPI RETURNDATASIZE DUP1 DUP1 ISZERO PUSH2 0x4C0C JUMPI PUSH1 0x40 MLOAD SWAP2 POP PUSH1 0x1F NOT PUSH1 0x3F RETURNDATASIZE ADD AND DUP3 ADD PUSH1 0x40 MSTORE RETURNDATASIZE DUP3 MSTORE RETURNDATASIZE PUSH1 0x0 PUSH1 0x20 DUP5 ADD RETURNDATACOPY PUSH2 0x4C11 JUMP JUMPDEST PUSH1 0x60 SWAP2 POP JUMPDEST POP PUSH1 0x0 SWAP4 POP POP POP POP PUSH2 0x19C8 JUMP JUMPDEST SWAP3 POP PUSH2 0x19C8 SWAP2 POP POP JUMP JUMPDEST PUSH1 0x60 PUSH2 0x4C34 DUP4 DUP6 PUSH2 0x6D72 JUMP JUMPDEST PUSH1 0x20 DUP6 ADD MLOAD PUSH1 0x40 DUP1 MLOAD PUSH1 0x2 DUP1 DUP3 MSTORE PUSH1 0x60 DUP3 DUP2 ADD SWAP1 SWAP4 MSTORE DUP2 PUSH1 0x20 ADD PUSH1 0x20 DUP3 MUL DUP1 CALLDATASIZE DUP4 CALLDATACOPY ADD SWAP1 POP POP SWAP1 POP DUP6 DUP2 PUSH1 0x0 DUP2 MLOAD DUP2 LT PUSH2 0x4C6A JUMPI INVALID JUMPDEST PUSH1 0x20 MUL PUSH1 0x20 ADD ADD SWAP1 PUSH1 0x1 PUSH1 0x1 PUSH1 0xA0 SHL SUB AND SWAP1 DUP2 PUSH1 0x1 PUSH1 0x1 PUSH1 0xA0 SHL SUB AND DUP2 MSTORE POP POP DUP5 DUP2 PUSH1 0x1 DUP2 MLOAD DUP2 LT PUSH2 0x4C98 JUMPI INVALID JUMPDEST PUSH1 0x1 PUSH1 0x1 PUSH1 0xA0 SHL SUB SWAP1 SWAP3 AND PUSH1 0x20 SWAP3 DUP4 MUL SWAP2 SWAP1 SWAP2 ADD SWAP1 SWAP2 ADD MSTORE DUP4 MLOAD DUP1 PUSH1 0x1 PUSH1 0x1 PUSH1 0x40 SHL SUB DUP2 GT DUP1 ISZERO PUSH2 0x4CC8 JUMPI PUSH1 0x0 DUP1 REVERT JUMPDEST POP PUSH1 0x40 MLOAD SWAP1 DUP1 DUP3 MSTORE DUP1 PUSH1 0x20 MUL PUSH1 0x20 ADD DUP3 ADD PUSH1 0x40 MSTORE DUP1 ISZERO PUSH2 0x4CF2 JUMPI DUP2 PUSH1 0x20 ADD PUSH1 0x20 DUP3 MUL DUP1 CALLDATASIZE DUP4 CALLDATACOPY ADD SWAP1 POP JUMPDEST POP SWAP4 POP PUSH2 0x4CFD PUSH2 0x9044 JUMP JUMPDEST PUSH2 0x4D05 PUSH2 0x6D43 JUMP JUMPDEST SWAP1 POP PUSH1 0x0 JUMPDEST DUP3 DUP2 LT ISZERO PUSH2 0x15A4 JUMPI PUSH1 0x60 PUSH2 0x4D24 DUP12 DUP10 DUP5 DUP2 MLOAD DUP2 LT PUSH2 0x1483 JUMPI INVALID JUMPDEST PUSH1 0x40 MLOAD PUSH4 0x7C268337 PUSH1 0xE1 SHL DUP2 MSTORE SWAP1 SWAP2 POP PUSH1 0x1 PUSH1 0x1 PUSH1 0xA0 SHL SUB DUP8 AND SWAP1 PUSH4 0xF84D066E SWAP1 PUSH2 0x4D5A SWAP1 PUSH1 0x1 SWAP1 DUP6 SWAP1 DUP11 SWAP1 DUP10 SWAP1 PUSH1 0x4 ADD PUSH2 0xB803 JUMP JUMPDEST PUSH1 0x0 PUSH1 0x40 MLOAD DUP1 DUP4 SUB DUP2 PUSH1 0x0 DUP8 DUP1 EXTCODESIZE ISZERO DUP1 ISZERO PUSH2 0x4D74 JUMPI PUSH1 0x0 DUP1 REVERT JUMPDEST POP GAS CALL SWAP3 POP POP POP DUP1 ISZERO PUSH2 0x4DA9 JUMPI POP PUSH1 0x40 MLOAD RETURNDATASIZE PUSH1 0x0 DUP3 RETURNDATACOPY PUSH1 0x1F RETURNDATASIZE SWAP1 DUP2 ADD PUSH1 0x1F NOT AND DUP3 ADD PUSH1 0x40 MSTORE PUSH2 0x4DA6 SWAP2 SWAP1 DUP2 ADD SWAP1 PUSH2 0xA4D5 JUMP JUMPDEST PUSH1 0x1 JUMPDEST PUSH2 0x4DD7 JUMPI RETURNDATASIZE DUP1 DUP1 ISZERO PUSH2 0x1543 JUMPI PUSH1 0x40 MLOAD SWAP2 POP PUSH1 0x1F NOT PUSH1 0x3F RETURNDATASIZE ADD AND DUP3 ADD PUSH1 0x40 MSTORE RETURNDATASIZE DUP3 MSTORE RETURNDATASIZE PUSH1 0x0 PUSH1 0x20 DUP5 ADD RETURNDATACOPY PUSH2 0x1548 JUMP JUMPDEST PUSH1 0x0 DUP2 PUSH1 0x0 DUP2 MLOAD DUP2 LT PUSH2 0x4DE6 JUMPI INVALID JUMPDEST PUSH1 0x20 MUL PUSH1 0x20 ADD ADD MLOAD SWAP1 POP PUSH1 0x0 DUP2 SGT PUSH2 0x4E00 JUMPI POP POP POP PUSH2 0x15A4 JUMP JUMPDEST DUP1 DUP10 DUP6 DUP2 MLOAD DUP2 LT PUSH2 0x4E0D JUMPI INVALID JUMPDEST PUSH1 0x20 MUL PUSH1 0x20 ADD ADD DUP2 DUP2 MSTORE POP POP POP POP POP PUSH1 0x1 ADD PUSH2 0x4D0A JUMP JUMPDEST DUP1 MLOAD PUSH1 0x60 SWAP1 DUP1 PUSH1 0x1 PUSH1 0x1 PUSH1 0x40 SHL SUB DUP2 GT DUP1 ISZERO PUSH2 0x4E3F JUMPI PUSH1 0x0 DUP1 REVERT JUMPDEST POP PUSH1 0x40 MLOAD SWAP1 DUP1 DUP3 MSTORE DUP1 PUSH1 0x20 MUL PUSH1 0x20 ADD DUP3 ADD PUSH1 0x40 MSTORE DUP1 ISZERO PUSH2 0x4E69 JUMPI DUP2 PUSH1 0x20 ADD PUSH1 0x20 DUP3 MUL DUP1 CALLDATASIZE DUP4 CALLDATACOPY ADD SWAP1 POP JUMPDEST POP SWAP2 POP PUSH1 0x0 JUMPDEST DUP2 DUP2 LT ISZERO PUSH2 0x1E86 JUMPI DUP7 PUSH1 0x1 PUSH1 0x1 PUSH1 0xA0 SHL SUB AND PUSH4 0x343FBCDD PUSH3 0x61A80 DUP9 DUP9 DUP9 DUP7 DUP2 MLOAD DUP2 LT PUSH2 0x4E98 JUMPI INVALID JUMPDEST PUSH1 0x20 MUL PUSH1 0x20 ADD ADD MLOAD PUSH1 0x40 MLOAD DUP6 PUSH4 0xFFFFFFFF AND PUSH1 0xE0 SHL DUP2 MSTORE PUSH1 0x4 ADD PUSH2 0x4EBE SWAP4 SWAP3 SWAP2 SWAP1 PUSH2 0xB76A JUMP JUMPDEST PUSH1 0x20 PUSH1 0x40 MLOAD DUP1 DUP4 SUB DUP2 DUP8 DUP1 EXTCODESIZE ISZERO DUP1 ISZERO PUSH2 0x4ED6 JUMPI PUSH1 0x0 DUP1 REVERT JUMPDEST POP DUP7 STATICCALL SWAP4 POP POP POP POP DUP1 ISZERO PUSH2 0x4F07 JUMPI POP PUSH1 0x40 DUP1 MLOAD PUSH1 0x1F RETURNDATASIZE SWAP1 DUP2 ADD PUSH1 0x1F NOT AND DUP3 ADD SWAP1 SWAP3 MSTORE PUSH2 0x4F04 SWAP2 DUP2 ADD SWAP1 PUSH2 0xA5CB JUMP JUMPDEST PUSH1 0x1 JUMPDEST PUSH2 0x4F35 JUMPI RETURNDATASIZE DUP1 DUP1 ISZERO PUSH2 0x1E36 JUMPI PUSH1 0x40 MLOAD SWAP2 POP PUSH1 0x1F NOT PUSH1 0x3F RETURNDATASIZE ADD AND DUP3 ADD PUSH1 0x40 MSTORE RETURNDATASIZE DUP3 MSTORE RETURNDATASIZE PUSH1 0x0 PUSH1 0x20 DUP5 ADD RETURNDATACOPY PUSH2 0x1E3B JUMP JUMPDEST DUP1 DUP5 DUP4 DUP2 MLOAD DUP2 LT PUSH2 0x4F42 JUMPI INVALID JUMPDEST PUSH1 0x20 MUL PUSH1 0x20 ADD ADD DUP2 DUP2 MSTORE POP POP DUP4 DUP3 DUP2 MLOAD DUP2 LT PUSH2 0x4F5A JUMPI INVALID JUMPDEST PUSH1 0x20 MUL PUSH1 0x20 ADD ADD MLOAD PUSH1 0x0 EQ ISZERO PUSH2 0x4F70 JUMPI POP PUSH2 0x1E86 JUMP JUMPDEST POP PUSH1 0x1 ADD PUSH2 0x4E6F JUMP JUMPDEST PUSH1 0x0 DUP1 PUSH1 0x60 PUSH2 0x4F88 DUP6 DUP8 PUSH2 0x6D72 JUMP JUMPDEST DUP4 MLOAD DUP1 PUSH1 0x1 PUSH1 0x1 PUSH1 0x40 SHL SUB DUP2 GT DUP1 ISZERO PUSH2 0x4FA0 JUMPI PUSH1 0x0 DUP1 REVERT JUMPDEST POP PUSH1 0x40 MLOAD SWAP1 DUP1 DUP3 MSTORE DUP1 PUSH1 0x20 MUL PUSH1 0x20 ADD DUP3 ADD PUSH1 0x40 MSTORE DUP1 ISZERO PUSH2 0x4FCA JUMPI DUP2 PUSH1 0x20 ADD PUSH1 0x20 DUP3 MUL DUP1 CALLDATASIZE DUP4 CALLDATACOPY ADD SWAP1 POP JUMPDEST POP SWAP2 POP PUSH2 0x4FD9 DUP10 DUP10 DUP10 DUP10 PUSH2 0x86FE JUMP JUMPDEST SWAP5 POP SWAP3 POP PUSH1 0x1 PUSH1 0x1 PUSH1 0xA0 SHL SUB DUP4 AND PUSH2 0x4FF1 JUMPI POP PUSH2 0x50AB JUMP JUMPDEST PUSH1 0x0 JUMPDEST DUP2 DUP2 LT ISZERO PUSH2 0x50A8 JUMPI PUSH1 0x0 PUSH2 0x5062 DUP10 DUP7 DUP9 PUSH1 0x40 MLOAD PUSH1 0x20 ADD PUSH2 0x5016 SWAP4 SWAP3 SWAP2 SWAP1 PUSH2 0xB40E JUMP JUMPDEST PUSH1 0x40 MLOAD PUSH1 0x20 DUP2 DUP4 SUB SUB DUP2 MSTORE SWAP1 PUSH1 0x40 MSTORE DUP10 DUP8 DUP10 PUSH1 0x40 MLOAD PUSH1 0x20 ADD PUSH2 0x503A SWAP4 SWAP3 SWAP2 SWAP1 PUSH2 0xB40E JUMP JUMPDEST PUSH1 0x40 MLOAD PUSH1 0x20 DUP2 DUP4 SUB SUB DUP2 MSTORE SWAP1 PUSH1 0x40 MSTORE DUP10 DUP6 DUP2 MLOAD DUP2 LT PUSH2 0x5055 JUMPI INVALID JUMPDEST PUSH1 0x20 MUL PUSH1 0x20 ADD ADD MLOAD PUSH2 0x8853 JUMP JUMPDEST SWAP1 POP DUP1 DUP5 DUP4 DUP2 MLOAD DUP2 LT PUSH2 0x5071 JUMPI INVALID JUMPDEST PUSH1 0x20 MUL PUSH1 0x20 ADD ADD DUP2 DUP2 MSTORE POP POP DUP4 DUP3 DUP2 MLOAD DUP2 LT PUSH2 0x5089 JUMPI INVALID JUMPDEST PUSH1 0x20 MUL PUSH1 0x20 ADD ADD MLOAD PUSH1 0x0 EQ ISZERO PUSH2 0x509F JUMPI POP PUSH2 0x50A8 JUMP JUMPDEST POP PUSH1 0x1 ADD PUSH2 0x4FF4 JUMP JUMPDEST POP POP JUMPDEST SWAP6 POP SWAP6 POP SWAP6 SWAP3 POP POP POP JUMP JUMPDEST DUP1 MLOAD PUSH1 0x60 SWAP1 DUP1 PUSH1 0x1 PUSH1 0x1 PUSH1 0x40 SHL SUB DUP2 GT DUP1 ISZERO PUSH2 0x50D1 JUMPI PUSH1 0x0 DUP1 REVERT JUMPDEST POP PUSH1 0x40 MLOAD SWAP1 DUP1 DUP3 MSTORE DUP1 PUSH1 0x20 MUL PUSH1 0x20 ADD DUP3 ADD PUSH1 0x40 MSTORE DUP1 ISZERO PUSH2 0x50FB JUMPI DUP2 PUSH1 0x20 ADD PUSH1 0x20 DUP3 MUL DUP1 CALLDATASIZE DUP4 CALLDATACOPY ADD SWAP1 POP JUMPDEST POP SWAP2 POP PUSH1 0x0 DUP7 PUSH1 0x1 PUSH1 0x1 PUSH1 0xA0 SHL SUB AND PUSH4 0x182DF0F5 PUSH1 0x40 MLOAD DUP2 PUSH4 0xFFFFFFFF AND PUSH1 0xE0 SHL DUP2 MSTORE PUSH1 0x4 ADD PUSH1 0x20 PUSH1 0x40 MLOAD DUP1 DUP4 SUB DUP2 DUP7 DUP1 EXTCODESIZE ISZERO DUP1 ISZERO PUSH2 0x5139 JUMPI PUSH1 0x0 DUP1 REVERT JUMPDEST POP GAS STATICCALL ISZERO DUP1 ISZERO PUSH2 0x514D JUMPI RETURNDATASIZE PUSH1 0x0 DUP1 RETURNDATACOPY RETURNDATASIZE PUSH1 0x0 REVERT JUMPDEST POP POP POP POP PUSH1 0x40 MLOAD RETURNDATASIZE PUSH1 0x1F NOT PUSH1 0x1F DUP3 ADD AND DUP3 ADD DUP1 PUSH1 0x40 MSTORE POP DUP2 ADD SWAP1 PUSH2 0x5171 SWAP2 SWAP1 PUSH2 0xA5CB JUMP JUMPDEST SWAP1 POP PUSH1 0x0 DUP8 PUSH1 0x1 PUSH1 0x1 PUSH1 0xA0 SHL SUB AND PUSH4 0x313CE567 PUSH1 0x40 MLOAD DUP2 PUSH4 0xFFFFFFFF AND PUSH1 0xE0 SHL DUP2 MSTORE PUSH1 0x4 ADD PUSH1 0x20 PUSH1 0x40 MLOAD DUP1 DUP4 SUB DUP2 DUP7 DUP1 EXTCODESIZE ISZERO DUP1 ISZERO PUSH2 0x51AE JUMPI PUSH1 0x0 DUP1 REVERT JUMPDEST POP GAS STATICCALL ISZERO DUP1 ISZERO PUSH2 0x51C2 JUMPI RETURNDATASIZE PUSH1 0x0 DUP1 RETURNDATACOPY RETURNDATASIZE PUSH1 0x0 REVERT JUMPDEST POP POP POP POP PUSH1 0x40 MLOAD RETURNDATASIZE PUSH1 0x1F NOT PUSH1 0x1F DUP3 ADD AND DUP3 ADD DUP1 PUSH1 0x40 MSTORE POP DUP2 ADD SWAP1 PUSH2 0x51E6 SWAP2 SWAP1 PUSH2 0xAB9F JUMP JUMPDEST PUSH1 0xFF AND SWAP1 POP DUP8 PUSH1 0x1 PUSH1 0x1 PUSH1 0xA0 SHL SUB AND DUP7 PUSH1 0x1 PUSH1 0x1 PUSH1 0xA0 SHL SUB AND EQ ISZERO PUSH2 0x5258 JUMPI PUSH1 0x0 JUMPDEST DUP4 DUP2 LT ISZERO PUSH2 0xD19 JUMPI DUP3 DUP3 PUSH1 0xA EXP PUSH5 0x2540BE400 DUP9 DUP5 DUP2 MLOAD DUP2 LT PUSH2 0x5227 JUMPI INVALID JUMPDEST PUSH1 0x20 MUL PUSH1 0x20 ADD ADD MLOAD MUL MUL DUP2 PUSH2 0x5238 JUMPI INVALID JUMPDEST DIV DUP6 DUP3 DUP2 MLOAD DUP2 LT PUSH2 0x5245 JUMPI INVALID JUMPDEST PUSH1 0x20 SWAP1 DUP2 MUL SWAP2 SWAP1 SWAP2 ADD ADD MSTORE PUSH1 0x1 ADD PUSH2 0x5208 JUMP JUMPDEST DUP8 PUSH1 0x1 PUSH1 0x1 PUSH1 0xA0 SHL SUB AND DUP8 PUSH1 0x1 PUSH1 0x1 PUSH1 0xA0 SHL SUB AND EQ ISZERO PUSH2 0xD8E JUMPI PUSH1 0x0 JUMPDEST DUP4 DUP2 LT ISZERO PUSH2 0xD8C JUMPI DUP2 PUSH1 0xA EXP PUSH5 0x2540BE400 MUL DUP4 DUP8 DUP4 DUP2 MLOAD DUP2 LT PUSH2 0x5295 JUMPI INVALID JUMPDEST PUSH1 0x20 MUL PUSH1 0x20 ADD ADD MLOAD MUL DUP2 PUSH2 0x52A5 JUMPI INVALID JUMPDEST DIV DUP6 DUP3 DUP2 MLOAD DUP2 LT PUSH2 0x52B2 JUMPI INVALID JUMPDEST PUSH1 0x20 SWAP1 DUP2 MUL SWAP2 SWAP1 SWAP2 ADD ADD MSTORE PUSH1 0x1 ADD PUSH2 0x5275 JUMP JUMPDEST PUSH1 0x0 PUSH1 0x60 PUSH2 0x52D3 DUP5 DUP7 PUSH2 0x6D72 JUMP JUMPDEST DUP3 MLOAD DUP1 PUSH1 0x1 PUSH1 0x1 PUSH1 0x40 SHL SUB DUP2 GT DUP1 ISZERO PUSH2 0x52EB JUMPI PUSH1 0x0 DUP1 REVERT JUMPDEST POP PUSH1 0x40 MLOAD SWAP1 DUP1 DUP3 MSTORE DUP1 PUSH1 0x20 MUL PUSH1 0x20 ADD DUP3 ADD PUSH1 0x40 MSTORE DUP1 ISZERO PUSH2 0x5315 JUMPI DUP2 PUSH1 0x20 ADD PUSH1 0x20 DUP3 MUL DUP1 CALLDATASIZE DUP4 CALLDATACOPY ADD SWAP1 POP JUMPDEST POP SWAP2 POP PUSH1 0x0 JUMPDEST DUP2 DUP2 LT ISZERO PUSH2 0x538A JUMPI PUSH1 0x0 PUSH2 0x5344 DUP10 DUP10 DUP10 DUP10 DUP7 DUP2 MLOAD DUP2 LT PUSH2 0x5337 JUMPI INVALID JUMPDEST PUSH1 0x20 MUL PUSH1 0x20 ADD ADD MLOAD PUSH2 0x4A12 JUMP JUMPDEST SWAP1 POP DUP1 DUP5 DUP4 DUP2 MLOAD DUP2 LT PUSH2 0x5353 JUMPI INVALID JUMPDEST PUSH1 0x20 MUL PUSH1 0x20 ADD ADD DUP2 DUP2 MSTORE POP POP DUP4 DUP3 DUP2 MLOAD DUP2 LT PUSH2 0x536B JUMPI INVALID JUMPDEST PUSH1 0x20 MUL PUSH1 0x20 ADD ADD MLOAD PUSH1 0x0 EQ ISZERO PUSH2 0x5381 JUMPI POP PUSH2 0x538A JUMP JUMPDEST POP PUSH1 0x1 ADD PUSH2 0x531B JUMP JUMPDEST POP PUSH1 0x40 MLOAD PUSH4 0x901754D7 PUSH1 0xE0 SHL DUP2 MSTORE PUSH1 0x1 PUSH1 0x1 PUSH1 0xA0 SHL SUB DUP9 AND SWAP1 PUSH4 0x901754D7 SWAP1 PUSH2 0x53B9 SWAP1 DUP10 SWAP1 DUP10 SWAP1 PUSH1 0x4 ADD PUSH2 0xB316 JUMP JUMPDEST PUSH1 0x20 PUSH1 0x40 MLOAD DUP1 DUP4 SUB DUP2 DUP7 DUP1 EXTCODESIZE ISZERO DUP1 ISZERO PUSH2 0x53D1 JUMPI PUSH1 0x0 DUP1 REVERT JUMPDEST POP GAS STATICCALL ISZERO DUP1 ISZERO PUSH2 0x53E5 JUMPI RETURNDATASIZE PUSH1 0x0 DUP1 RETURNDATACOPY RETURNDATASIZE PUSH1 0x0 REVERT JUMPDEST POP POP POP POP PUSH1 0x40 MLOAD RETURNDATASIZE PUSH1 0x1F NOT PUSH1 0x1F DUP3 ADD AND DUP3 ADD DUP1 PUSH1 0x40 MSTORE POP DUP2 ADD SWAP1 PUSH2 0x5409 SWAP2 SWAP1 PUSH2 0x9EA6 JUMP JUMPDEST SWAP3 POP POP SWAP5 POP SWAP5 SWAP3 POP POP POP JUMP JUMPDEST PUSH1 0x40 DUP1 MLOAD PUSH1 0x60 DUP2 DUP2 ADD SWAP1 SWAP3 MSTORE PUSH2 0x1A36 SWAP1 DUP1 PUSH2 0x5434 DUP7 DUP10 PUSH1 0x80 DUP5 ADD PUSH2 0xB316 JUMP JUMPDEST PUSH1 0x40 MLOAD PUSH1 0x20 DUP2 DUP4 SUB SUB DUP2 MSTORE SWAP1 PUSH1 0x40 MSTORE DUP2 MSTORE PUSH1 0x20 ADD DUP7 DUP9 PUSH1 0x40 MLOAD PUSH1 0x20 ADD PUSH2 0x545B SWAP3 SWAP2 SWAP1 PUSH2 0xB316 JUMP JUMPDEST PUSH1 0x40 MLOAD PUSH1 0x20 DUP2 DUP4 SUB SUB DUP2 MSTORE SWAP1 PUSH1 0x40 MSTORE DUP2 MSTORE PUSH1 0x20 ADD PUSH2 0x8945 DUP2 MSTORE POP DUP4 PUSH2 0x7397 JUMP JUMPDEST PUSH1 0x60 DUP3 MLOAD PUSH1 0x1 PUSH1 0x1 PUSH1 0x40 SHL SUB DUP2 GT DUP1 ISZERO PUSH2 0x5494 JUMPI PUSH1 0x0 DUP1 REVERT JUMPDEST POP PUSH1 0x40 MLOAD SWAP1 DUP1 DUP3 MSTORE DUP1 PUSH1 0x20 MUL PUSH1 0x20 ADD DUP3 ADD PUSH1 0x40 MSTORE DUP1 ISZERO PUSH2 0x54BE JUMPI DUP2 PUSH1 0x20 ADD PUSH1 0x20 DUP3 MUL DUP1 CALLDATASIZE DUP4 CALLDATACOPY ADD SWAP1 POP JUMPDEST POP SWAP1 POP PUSH1 0x0 JUMPDEST DUP4 MLOAD DUP2 EQ PUSH2 0x357E JUMPI PUSH32 0x0 PUSH1 0x1 PUSH1 0x1 PUSH1 0xA0 SHL SUB AND DUP5 DUP3 DUP2 MLOAD DUP2 LT PUSH2 0x5502 JUMPI INVALID JUMPDEST PUSH1 0x20 MUL PUSH1 0x20 ADD ADD MLOAD PUSH1 0x1 PUSH1 0x1 PUSH1 0xA0 SHL SUB AND EQ PUSH2 0x554C JUMPI PUSH2 0x5547 DUP4 DUP6 DUP4 DUP2 MLOAD DUP2 LT PUSH2 0x5528 JUMPI INVALID JUMPDEST PUSH1 0x20 MUL PUSH1 0x20 ADD ADD MLOAD PUSH1 0x1 PUSH1 0x1 PUSH1 0xA0 SHL SUB AND PUSH2 0x898C SWAP1 SWAP2 SWAP1 PUSH4 0xFFFFFFFF AND JUMP JUMPDEST PUSH2 0x5558 JUMP JUMPDEST DUP3 PUSH1 0x1 PUSH1 0x1 PUSH1 0xA0 SHL SUB AND BALANCE JUMPDEST DUP3 DUP3 DUP2 MLOAD DUP2 LT PUSH2 0x5564 JUMPI INVALID JUMPDEST PUSH1 0x20 SWAP1 DUP2 MUL SWAP2 SWAP1 SWAP2 ADD ADD MSTORE PUSH1 0x1 ADD PUSH2 0x54C4 JUMP JUMPDEST PUSH1 0x40 DUP1 MLOAD PUSH1 0x60 DUP2 DUP2 ADD SWAP1 SWAP3 MSTORE PUSH2 0x1A36 SWAP1 DUP1 PUSH2 0x5596 DUP7 DUP10 PUSH1 0x80 DUP5 ADD PUSH2 0xB316 JUMP JUMPDEST PUSH1 0x40 MLOAD PUSH1 0x20 DUP2 DUP4 SUB SUB DUP2 MSTORE SWAP1 PUSH1 0x40 MSTORE DUP2 MSTORE PUSH1 0x20 ADD DUP7 DUP9 PUSH1 0x40 MLOAD PUSH1 0x20 ADD PUSH2 0x55BD SWAP3 SWAP2 SWAP1 PUSH2 0xB316 JUMP JUMPDEST PUSH1 0x40 MLOAD PUSH1 0x20 DUP2 DUP4 SUB SUB DUP2 MSTORE SWAP1 PUSH1 0x40 MSTORE DUP2 MSTORE PUSH1 0x20 ADD PUSH2 0x8A56 DUP2 MSTORE POP DUP4 PUSH2 0x7397 JUMP JUMPDEST PUSH1 0x60 PUSH2 0x55E9 DUP4 DUP6 PUSH2 0x6D72 JUMP JUMPDEST DUP2 MLOAD DUP1 PUSH1 0x1 PUSH1 0x1 PUSH1 0x40 SHL SUB DUP2 GT DUP1 ISZERO PUSH2 0x5601 JUMPI PUSH1 0x0 DUP1 REVERT JUMPDEST POP PUSH1 0x40 MLOAD SWAP1 DUP1 DUP3 MSTORE DUP1 PUSH1 0x20 MUL PUSH1 0x20 ADD DUP3 ADD PUSH1 0x40 MSTORE DUP1 ISZERO PUSH2 0x562B JUMPI DUP2 PUSH1 0x20 ADD PUSH1 0x20 DUP3 MUL DUP1 CALLDATASIZE DUP4 CALLDATACOPY ADD SWAP1 POP JUMPDEST POP SWAP2 POP PUSH1 0x0 PUSH1 0x1 PUSH1 0x1 PUSH1 0xA0 SHL SUB DUP7 AND ISZERO PUSH2 0x564E JUMPI PUSH2 0x5649 DUP8 DUP8 PUSH2 0x6E43 JUMP JUMPDEST PUSH2 0x5651 JUMP JUMPDEST PUSH1 0x0 JUMPDEST SWAP1 POP PUSH1 0x0 PUSH1 0x1 PUSH1 0x1 PUSH1 0xA0 SHL SUB DUP7 AND ISZERO PUSH2 0x5673 JUMPI PUSH2 0x566E DUP9 DUP8 PUSH2 0x6E43 JUMP JUMPDEST PUSH2 0x5676 JUMP JUMPDEST PUSH1 0x0 JUMPDEST SWAP1 POP PUSH1 0x0 JUMPDEST DUP4 DUP2 LT ISZERO PUSH2 0xD8C JUMPI PUSH1 0x1 PUSH1 0x1 PUSH1 0x1 PUSH1 0xA0 SHL SUB DUP9 AND PUSH2 0x56CC JUMPI PUSH2 0x56AB DUP5 PUSH4 0x95B68FE7 PUSH1 0xE0 SHL DUP10 DUP6 DUP2 MLOAD DUP2 LT PUSH2 0x167F JUMPI INVALID JUMPDEST DUP8 DUP5 DUP2 MLOAD DUP2 LT PUSH2 0x56B7 JUMPI INVALID JUMPDEST PUSH1 0x20 MUL PUSH1 0x20 ADD ADD DUP2 SWAP4 POP DUP3 DUP2 MSTORE POP POP POP PUSH2 0x5766 JUMP JUMPDEST PUSH1 0x1 PUSH1 0x1 PUSH1 0xA0 SHL SUB DUP10 AND PUSH2 0x56F2 JUMPI PUSH2 0x56AB DUP4 PUSH4 0xCD7724C3 PUSH1 0xE0 SHL DUP10 DUP6 DUP2 MLOAD DUP2 LT PUSH2 0x167F JUMPI INVALID JUMPDEST PUSH1 0x0 PUSH2 0x570C DUP6 PUSH4 0x95B68FE7 PUSH1 0xE0 SHL DUP11 DUP7 DUP2 MLOAD DUP2 LT PUSH2 0x167F JUMPI INVALID JUMPDEST SWAP3 POP SWAP1 POP DUP1 ISZERO PUSH2 0x5749 JUMPI PUSH2 0x5728 DUP5 PUSH4 0xCD7724C3 PUSH1 0xE0 SHL DUP4 PUSH2 0x6EC2 JUMP JUMPDEST DUP9 DUP6 DUP2 MLOAD DUP2 LT PUSH2 0x5734 JUMPI INVALID JUMPDEST PUSH1 0x20 MUL PUSH1 0x20 ADD ADD DUP2 SWAP5 POP DUP3 DUP2 MSTORE POP POP POP PUSH2 0x5764 JUMP JUMPDEST PUSH1 0x0 DUP8 DUP5 DUP2 MLOAD DUP2 LT PUSH2 0x5757 JUMPI INVALID JUMPDEST PUSH1 0x20 MUL PUSH1 0x20 ADD ADD DUP2 DUP2 MSTORE POP POP JUMPDEST POP JUMPDEST DUP1 ISZERO DUP1 PUSH2 0x5786 JUMPI POP DUP6 DUP3 DUP2 MLOAD DUP2 LT PUSH2 0x577A JUMPI INVALID JUMPDEST PUSH1 0x20 MUL PUSH1 0x20 ADD ADD MLOAD PUSH1 0x0 EQ JUMPDEST ISZERO PUSH2 0x5791 JUMPI POP PUSH2 0xD8C JUMP JUMPDEST POP PUSH1 0x1 ADD PUSH2 0x567B JUMP JUMPDEST DUP1 MLOAD PUSH1 0x60 SWAP1 DUP1 PUSH1 0x1 PUSH1 0x1 PUSH1 0x40 SHL SUB DUP2 GT DUP1 ISZERO PUSH2 0x57B5 JUMPI PUSH1 0x0 DUP1 REVERT JUMPDEST POP PUSH1 0x40 MLOAD SWAP1 DUP1 DUP3 MSTORE DUP1 PUSH1 0x20 MUL PUSH1 0x20 ADD DUP3 ADD PUSH1 0x40 MSTORE DUP1 ISZERO PUSH2 0x57DF JUMPI DUP2 PUSH1 0x20 ADD PUSH1 0x20 DUP3 MUL DUP1 CALLDATASIZE DUP4 CALLDATACOPY ADD SWAP1 POP JUMPDEST POP SWAP2 POP PUSH1 0x0 JUMPDEST DUP2 DUP2 LT ISZERO PUSH2 0x200B JUMPI DUP6 PUSH1 0x1 PUSH1 0x1 PUSH1 0xA0 SHL SUB AND PUSH4 0x1F00CA74 PUSH3 0x249F0 DUP7 DUP5 DUP2 MLOAD DUP2 LT PUSH2 0x580C JUMPI INVALID JUMPDEST PUSH1 0x20 MUL PUSH1 0x20 ADD ADD MLOAD DUP9 PUSH1 0x40 MLOAD DUP5 PUSH4 0xFFFFFFFF AND PUSH1 0xE0 SHL DUP2 MSTORE PUSH1 0x4 ADD PUSH2 0x5832 SWAP3 SWAP2 SWAP1 PUSH2 0xB9A2 JUMP JUMPDEST PUSH1 0x0 PUSH1 0x40 MLOAD DUP1 DUP4 SUB DUP2 DUP8 DUP1 EXTCODESIZE ISZERO DUP1 ISZERO PUSH2 0x584A JUMPI PUSH1 0x0 DUP1 REVERT JUMPDEST POP DUP7 STATICCALL SWAP4 POP POP POP POP DUP1 ISZERO PUSH2 0x5880 JUMPI POP PUSH1 0x40 MLOAD RETURNDATASIZE PUSH1 0x0 DUP3 RETURNDATACOPY PUSH1 0x1F RETURNDATASIZE SWAP1 DUP2 ADD PUSH1 0x1F NOT AND DUP3 ADD PUSH1 0x40 MSTORE PUSH2 0x587D SWAP2 SWAP1 DUP2 ADD SWAP1 PUSH2 0xA579 JUMP JUMPDEST PUSH1 0x1 JUMPDEST PUSH2 0x58AE JUMPI RETURNDATASIZE DUP1 DUP1 ISZERO PUSH2 0x1FA4 JUMPI PUSH1 0x40 MLOAD SWAP2 POP PUSH1 0x1F NOT PUSH1 0x3F RETURNDATASIZE ADD AND DUP3 ADD PUSH1 0x40 MSTORE RETURNDATASIZE DUP3 MSTORE RETURNDATASIZE PUSH1 0x0 PUSH1 0x20 DUP5 ADD RETURNDATACOPY PUSH2 0x1FA9 JUMP JUMPDEST DUP1 PUSH1 0x0 DUP2 MLOAD DUP2 LT PUSH2 0x58BB JUMPI INVALID JUMPDEST PUSH1 0x20 MUL PUSH1 0x20 ADD ADD MLOAD DUP5 DUP4 DUP2 MLOAD DUP2 LT PUSH2 0x58CF JUMPI INVALID JUMPDEST PUSH1 0x20 MUL PUSH1 0x20 ADD ADD DUP2 DUP2 MSTORE POP POP DUP4 DUP3 DUP2 MLOAD DUP2 LT PUSH2 0x58E7 JUMPI INVALID JUMPDEST PUSH1 0x20 MUL PUSH1 0x20 ADD ADD MLOAD PUSH1 0x0 EQ ISZERO PUSH2 0x58FD JUMPI POP PUSH2 0x200B JUMP JUMPDEST POP PUSH1 0x1 ADD PUSH2 0x57E5 JUMP JUMPDEST DUP1 MLOAD PUSH1 0x60 SWAP1 DUP1 PUSH1 0x1 PUSH1 0x1 PUSH1 0x40 SHL SUB DUP2 GT DUP1 ISZERO PUSH2 0x5921 JUMPI PUSH1 0x0 DUP1 REVERT JUMPDEST POP PUSH1 0x40 MLOAD SWAP1 DUP1 DUP3 MSTORE DUP1 PUSH1 0x20 MUL PUSH1 0x20 ADD DUP3 ADD PUSH1 0x40 MSTORE DUP1 ISZERO PUSH2 0x594B JUMPI DUP2 PUSH1 0x20 ADD PUSH1 0x20 DUP3 MUL DUP1 CALLDATASIZE DUP4 CALLDATACOPY ADD SWAP1 POP JUMPDEST POP SWAP2 POP PUSH2 0x5956 PUSH2 0x9044 JUMP JUMPDEST PUSH2 0x595E PUSH2 0x6D43 JUMP JUMPDEST SWAP1 POP PUSH1 0x0 JUMPDEST DUP3 DUP2 LT ISZERO PUSH2 0xD8E JUMPI DUP5 DUP2 DUP2 MLOAD DUP2 LT PUSH2 0x5977 JUMPI INVALID JUMPDEST PUSH1 0x20 MUL PUSH1 0x20 ADD ADD MLOAD DUP8 PUSH1 0x0 DUP2 MLOAD DUP2 LT PUSH2 0x598C JUMPI INVALID JUMPDEST PUSH1 0x20 SWAP1 DUP2 MUL SWAP2 SWAP1 SWAP2 ADD ADD MLOAD PUSH1 0x60 ADD MSTORE PUSH1 0x40 MLOAD PUSH4 0x7C268337 PUSH1 0xE1 SHL DUP2 MSTORE PUSH1 0x1 PUSH1 0x1 PUSH1 0xA0 SHL SUB DUP10 AND SWAP1 PUSH4 0xF84D066E SWAP1 PUSH2 0x59CE SWAP1 PUSH1 0x0 SWAP1 DUP12 SWAP1 DUP12 SWAP1 DUP9 SWAP1 PUSH1 0x4 ADD PUSH2 0xB803 JUMP JUMPDEST PUSH1 0x0 PUSH1 0x40 MLOAD DUP1 DUP4 SUB DUP2 PUSH1 0x0 DUP8 DUP1 EXTCODESIZE ISZERO DUP1 ISZERO PUSH2 0x59E8 JUMPI PUSH1 0x0 DUP1 REVERT JUMPDEST POP GAS CALL SWAP3 POP POP POP DUP1 ISZERO PUSH2 0x5A1D JUMPI POP PUSH1 0x40 MLOAD RETURNDATASIZE PUSH1 0x0 DUP3 RETURNDATACOPY PUSH1 0x1F RETURNDATASIZE SWAP1 DUP2 ADD PUSH1 0x1F NOT AND DUP3 ADD PUSH1 0x40 MSTORE PUSH2 0x5A1A SWAP2 SWAP1 DUP2 ADD SWAP1 PUSH2 0xA4D5 JUMP JUMPDEST PUSH1 0x1 JUMPDEST PUSH2 0x5A26 JUMPI PUSH2 0xD8E JUMP JUMPDEST PUSH1 0x0 DUP2 PUSH1 0x1 DUP4 MLOAD SUB DUP2 MLOAD DUP2 LT PUSH2 0x5A38 JUMPI INVALID JUMPDEST PUSH1 0x20 MUL PUSH1 0x20 ADD ADD MLOAD PUSH1 0x0 NOT MUL SWAP1 POP PUSH1 0x0 DUP2 SGT PUSH2 0x5A55 JUMPI POP POP PUSH2 0xD8E JUMP JUMPDEST DUP1 DUP7 DUP5 DUP2 MLOAD DUP2 LT PUSH2 0x5A62 JUMPI INVALID JUMPDEST PUSH1 0x20 MUL PUSH1 0x20 ADD ADD DUP2 DUP2 MSTORE POP POP POP POP PUSH1 0x1 ADD PUSH2 0x5963 JUMP JUMPDEST PUSH1 0x0 PUSH1 0x60 DUP1 PUSH2 0x5A87 DUP6 DUP8 PUSH2 0x6D72 JUMP JUMPDEST PUSH2 0x5A92 DUP8 DUP8 DUP8 PUSH2 0x84B0 JUMP JUMPDEST SWAP3 POP DUP3 PUSH2 0x5A9E JUMPI PUSH2 0x1208 JUMP JUMPDEST PUSH1 0x40 MLOAD PUSH4 0x276FDAD9 PUSH1 0xE1 SHL DUP2 MSTORE ADDRESS SWAP1 PUSH4 0x4EDFB5B2 SWAP1 PUSH2 0x5AC7 SWAP1 DUP11 SWAP1 DUP8 SWAP1 DUP12 SWAP1 DUP12 SWAP1 PUSH1 0x4 ADD PUSH2 0xB93A JUMP JUMPDEST PUSH1 0x0 PUSH1 0x40 MLOAD DUP1 DUP4 SUB DUP2 DUP7 DUP1 EXTCODESIZE ISZERO DUP1 ISZERO PUSH2 0x5ADF JUMPI PUSH1 0x0 DUP1 REVERT JUMPDEST POP GAS STATICCALL ISZERO DUP1 ISZERO PUSH2 0x5AF3 JUMPI RETURNDATASIZE PUSH1 0x0 DUP1 RETURNDATACOPY RETURNDATASIZE PUSH1 0x0 REVERT JUMPDEST POP POP POP POP PUSH1 0x40 MLOAD RETURNDATASIZE PUSH1 0x0 DUP3 RETURNDATACOPY PUSH1 0x1F RETURNDATASIZE SWAP1 DUP2 ADD PUSH1 0x1F NOT AND DUP3 ADD PUSH1 0x40 MSTORE PUSH2 0x5B1B SWAP2 SWAP1 DUP2 ADD SWAP1 PUSH2 0xA5E9 JUMP JUMPDEST PUSH1 0x80 DUP9 ADD DUP2 SWAP1 MSTORE DUP5 MLOAD SWAP1 SWAP3 POP DUP1 PUSH1 0x1 PUSH1 0x1 PUSH1 0x40 SHL SUB DUP2 GT DUP1 ISZERO PUSH2 0x5B3D JUMPI PUSH1 0x0 DUP1 REVERT JUMPDEST POP PUSH1 0x40 MLOAD SWAP1 DUP1 DUP3 MSTORE DUP1 PUSH1 0x20 MUL PUSH1 0x20 ADD DUP3 ADD PUSH1 0x40 MSTORE DUP1 ISZERO PUSH2 0x5B67 JUMPI DUP2 PUSH1 0x20 ADD PUSH1 0x20 DUP3 MUL DUP1 CALLDATASIZE DUP4 CALLDATACOPY ADD SWAP1 POP JUMPDEST POP SWAP2 POP PUSH1 0x0 JUMPDEST DUP2 DUP2 LT ISZERO PUSH2 0x5C52 JUMPI PUSH1 0x0 ADDRESS PUSH1 0x1 PUSH1 0x1 PUSH1 0xA0 SHL SUB AND PUSH4 0xF1ED7FA4 DUP12 DUP12 DUP12 DUP12 DUP8 DUP2 MLOAD DUP2 LT PUSH2 0x5B95 JUMPI INVALID JUMPDEST PUSH1 0x20 MUL PUSH1 0x20 ADD ADD MLOAD PUSH1 0x40 MLOAD DUP6 PUSH4 0xFFFFFFFF AND PUSH1 0xE0 SHL DUP2 MSTORE PUSH1 0x4 ADD PUSH2 0x5BBC SWAP5 SWAP4 SWAP3 SWAP2 SWAP1 PUSH2 0xB91A JUMP JUMPDEST PUSH1 0x20 PUSH1 0x40 MLOAD DUP1 DUP4 SUB DUP2 DUP7 DUP1 EXTCODESIZE ISZERO DUP1 ISZERO PUSH2 0x5BD4 JUMPI PUSH1 0x0 DUP1 REVERT JUMPDEST POP GAS STATICCALL ISZERO DUP1 ISZERO PUSH2 0x5BE8 JUMPI RETURNDATASIZE PUSH1 0x0 DUP1 RETURNDATACOPY RETURNDATASIZE PUSH1 0x0 REVERT JUMPDEST POP POP POP POP PUSH1 0x40 MLOAD RETURNDATASIZE PUSH1 0x1F NOT PUSH1 0x1F DUP3 ADD AND DUP3 ADD DUP1 PUSH1 0x40 MSTORE POP DUP2 ADD SWAP1 PUSH2 0x5C0C SWAP2 SWAP1 PUSH2 0xA5CB JUMP JUMPDEST SWAP1 POP DUP1 DUP5 DUP4 DUP2 MLOAD DUP2 LT PUSH2 0x5C1B JUMPI INVALID JUMPDEST PUSH1 0x20 MUL PUSH1 0x20 ADD ADD DUP2 DUP2 MSTORE POP POP DUP4 DUP3 DUP2 MLOAD DUP2 LT PUSH2 0x5C33 JUMPI INVALID JUMPDEST PUSH1 0x20 MUL PUSH1 0x20 ADD ADD MLOAD PUSH1 0x0 EQ ISZERO PUSH2 0x5C49 JUMPI POP PUSH2 0x5C52 JUMP JUMPDEST POP PUSH1 0x1 ADD PUSH2 0x5B6D JUMP JUMPDEST POP POP SWAP5 POP SWAP5 POP SWAP5 SWAP2 POP POP JUMP JUMPDEST PUSH1 0x0 DUP1 PUSH1 0x60 PUSH2 0x5C6D DUP6 DUP8 PUSH2 0x6D72 JUMP JUMPDEST PUSH2 0x5C79 DUP9 DUP9 DUP9 DUP9 PUSH2 0x86FE JUMP JUMPDEST SWAP4 POP SWAP2 POP PUSH1 0x1 PUSH1 0x1 PUSH1 0xA0 SHL SUB DUP3 AND PUSH2 0x5C90 JUMPI PUSH2 0x50AB JUMP JUMPDEST DUP4 MLOAD DUP1 PUSH1 0x1 PUSH1 0x1 PUSH1 0x40 SHL SUB DUP2 GT DUP1 ISZERO PUSH2 0x5CA8 JUMPI PUSH1 0x0 DUP1 REVERT JUMPDEST POP PUSH1 0x40 MLOAD SWAP1 DUP1 DUP3 MSTORE DUP1 PUSH1 0x20 MUL PUSH1 0x20 ADD DUP3 ADD PUSH1 0x40 MSTORE DUP1 ISZERO PUSH2 0x5CD2 JUMPI DUP2 PUSH1 0x20 ADD PUSH1 0x20 DUP3 MUL DUP1 CALLDATASIZE DUP4 CALLDATACOPY ADD SWAP1 POP JUMPDEST POP PUSH1 0x40 DUP1 MLOAD PUSH1 0x60 DUP2 ADD SWAP1 SWAP2 MSTORE SWAP1 SWAP3 POP PUSH2 0x5D3F SWAP1 DUP1 PUSH2 0x5CF6 DUP10 DUP8 DUP10 ISZERO PUSH1 0x80 DUP6 ADD PUSH2 0xB40E JUMP JUMPDEST PUSH1 0x40 MLOAD PUSH1 0x20 DUP2 DUP4 SUB SUB DUP2 MSTORE SWAP1 PUSH1 0x40 MSTORE DUP2 MSTORE PUSH1 0x20 ADD DUP10 DUP7 DUP9 PUSH1 0x40 MLOAD PUSH1 0x20 ADD PUSH2 0x5D1F SWAP4 SWAP3 SWAP2 SWAP1 PUSH2 0xB40E JUMP JUMPDEST PUSH1 0x40 MLOAD PUSH1 0x20 DUP2 DUP4 SUB SUB DUP2 MSTORE SWAP1 PUSH1 0x40 MSTORE DUP2 MSTORE PUSH1 0x20 ADD PUSH2 0x8853 DUP2 MSTORE POP DUP7 PUSH2 0x7397 JUMP JUMPDEST SWAP2 POP POP SWAP6 POP SWAP6 POP SWAP6 SWAP3 POP POP POP JUMP JUMPDEST PUSH1 0x0 DUP1 PUSH1 0x60 PUSH2 0x5D5C DUP6 DUP8 PUSH2 0x6D72 JUMP JUMPDEST DUP4 MLOAD DUP1 PUSH1 0x1 PUSH1 0x1 PUSH1 0x40 SHL SUB DUP2 GT DUP1 ISZERO PUSH2 0x5D74 JUMPI PUSH1 0x0 DUP1 REVERT JUMPDEST POP PUSH1 0x40 MLOAD SWAP1 DUP1 DUP3 MSTORE DUP1 PUSH1 0x20 MUL PUSH1 0x20 ADD DUP3 ADD PUSH1 0x40 MSTORE DUP1 ISZERO PUSH2 0x5D9E JUMPI DUP2 PUSH1 0x20 ADD PUSH1 0x20 DUP3 MUL DUP1 CALLDATASIZE DUP4 CALLDATACOPY ADD SWAP1 POP JUMPDEST POP DUP9 MLOAD PUSH1 0x40 MLOAD PUSH4 0x939D863 PUSH1 0xE1 SHL DUP2 MSTORE SWAP2 SWAP4 POP PUSH1 0x1 PUSH1 0x1 PUSH1 0xA0 SHL SUB AND SWAP1 PUSH4 0x1273B0C6 SWAP1 PUSH2 0x5DD1 SWAP1 DUP11 SWAP1 DUP11 SWAP1 PUSH1 0x4 ADD PUSH2 0xB316 JUMP JUMPDEST PUSH1 0x20 PUSH1 0x40 MLOAD DUP1 DUP4 SUB DUP2 DUP7 DUP1 EXTCODESIZE ISZERO DUP1 ISZERO PUSH2 0x5DE9 JUMPI PUSH1 0x0 DUP1 REVERT JUMPDEST POP GAS STATICCALL ISZERO DUP1 ISZERO PUSH2 0x5DFD JUMPI RETURNDATASIZE PUSH1 0x0 DUP1 RETURNDATACOPY RETURNDATASIZE PUSH1 0x0 REVERT JUMPDEST POP POP POP POP PUSH1 0x40 MLOAD RETURNDATASIZE PUSH1 0x1F NOT PUSH1 0x1F DUP3 ADD AND DUP3 ADD DUP1 PUSH1 0x40 MSTORE POP DUP2 ADD SWAP1 PUSH2 0x5E21 SWAP2 SWAP1 PUSH2 0x9EA6 JUMP JUMPDEST SWAP3 POP PUSH1 0x0 PUSH1 0x1 PUSH1 0x1 PUSH1 0xA0 SHL SUB DUP5 AND ISZERO PUSH2 0x5E3F JUMPI POP PUSH1 0x1 SWAP4 POP DUP7 PUSH2 0x5EDE JUMP JUMPDEST DUP9 MLOAD PUSH1 0x40 MLOAD PUSH4 0x939D863 PUSH1 0xE1 SHL DUP2 MSTORE PUSH1 0x1 PUSH1 0x1 PUSH1 0xA0 SHL SUB SWAP1 SWAP2 AND SWAP1 PUSH4 0x1273B0C6 SWAP1 PUSH2 0x5E70 SWAP1 DUP11 SWAP1 DUP13 SWAP1 PUSH1 0x4 ADD PUSH2 0xB316 JUMP JUMPDEST PUSH1 0x20 PUSH1 0x40 MLOAD DUP1 DUP4 SUB DUP2 DUP7 DUP1 EXTCODESIZE ISZERO DUP1 ISZERO PUSH2 0x5E88 JUMPI PUSH1 0x0 DUP1 REVERT JUMPDEST POP GAS STATICCALL ISZERO DUP1 ISZERO PUSH2 0x5E9C JUMPI RETURNDATASIZE PUSH1 0x0 DUP1 RETURNDATACOPY RETURNDATASIZE PUSH1 0x0 REVERT JUMPDEST POP POP POP POP PUSH1 0x40 MLOAD RETURNDATASIZE PUSH1 0x1F NOT PUSH1 0x1F DUP3 ADD AND DUP3 ADD DUP1 PUSH1 0x40 MSTORE POP DUP2 ADD SWAP1 PUSH2 0x5EC0 SWAP2 SWAP1 PUSH2 0x9EA6 JUMP JUMPDEST SWAP4 POP PUSH1 0x1 PUSH1 0x1 PUSH1 0xA0 SHL SUB DUP5 AND PUSH2 0x5ED7 JUMPI POP POP PUSH2 0x1208 JUMP JUMPDEST POP PUSH1 0x0 SWAP4 POP DUP6 JUMPDEST DUP4 PUSH1 0x1 PUSH1 0x1 PUSH1 0xA0 SHL SUB AND PUSH4 0xDD58B41C PUSH1 0x40 MLOAD DUP2 PUSH4 0xFFFFFFFF AND PUSH1 0xE0 SHL DUP2 MSTORE PUSH1 0x4 ADD PUSH1 0x20 PUSH1 0x40 MLOAD DUP1 DUP4 SUB DUP2 DUP7 DUP1 EXTCODESIZE ISZERO DUP1 ISZERO PUSH2 0x5F17 JUMPI PUSH1 0x0 DUP1 REVERT JUMPDEST POP GAS STATICCALL ISZERO DUP1 ISZERO PUSH2 0x5F2B JUMPI RETURNDATASIZE PUSH1 0x0 DUP1 RETURNDATACOPY RETURNDATASIZE PUSH1 0x0 REVERT JUMPDEST POP POP POP POP PUSH1 0x40 MLOAD RETURNDATASIZE PUSH1 0x1F NOT PUSH1 0x1F DUP3 ADD AND DUP3 ADD DUP1 PUSH1 0x40 MSTORE POP DUP2 ADD SWAP1 PUSH2 0x5F4F SWAP2 SWAP1 PUSH2 0xA5AD JUMP JUMPDEST PUSH2 0x5F5A JUMPI POP POP PUSH2 0x1208 JUMP JUMPDEST PUSH2 0x5FD2 PUSH1 0x40 MLOAD DUP1 PUSH1 0x60 ADD PUSH1 0x40 MSTORE DUP1 DUP10 DUP8 DUP6 DUP15 PUSH1 0x20 ADD MLOAD PUSH1 0x40 MLOAD PUSH1 0x20 ADD PUSH2 0x5F83 SWAP5 SWAP4 SWAP3 SWAP2 SWAP1 PUSH2 0xB331 JUMP JUMPDEST PUSH1 0x40 MLOAD PUSH1 0x20 DUP2 DUP4 SUB SUB DUP2 MSTORE SWAP1 PUSH1 0x40 MSTORE DUP2 MSTORE PUSH1 0x20 ADD DUP11 DUP8 DUP6 DUP15 PUSH1 0x20 ADD MLOAD PUSH1 0x40 MLOAD PUSH1 0x20 ADD PUSH2 0x5FB2 SWAP5 SWAP4 SWAP3 SWAP2 SWAP1 PUSH2 0xB331 JUMP JUMPDEST PUSH1 0x40 MLOAD PUSH1 0x20 DUP2 DUP4 SUB SUB DUP2 MSTORE SWAP1 PUSH1 0x40 MSTORE DUP2 MSTORE PUSH1 0x20 ADD PUSH2 0x75A9 DUP2 MSTORE POP DUP8 PUSH2 0x7397 JUMP JUMPDEST SWAP3 POP POP POP SWAP5 POP SWAP5 POP SWAP5 SWAP2 POP POP JUMP JUMPDEST PUSH1 0x60 DUP4 MLOAD PUSH1 0x1 PUSH1 0x1 PUSH1 0x40 SHL SUB DUP2 GT DUP1 ISZERO PUSH2 0x5FF9 JUMPI PUSH1 0x0 DUP1 REVERT JUMPDEST POP PUSH1 0x40 MLOAD SWAP1 DUP1 DUP3 MSTORE DUP1 PUSH1 0x20 MUL PUSH1 0x20 ADD DUP3 ADD PUSH1 0x40 MSTORE DUP1 ISZERO PUSH2 0x6023 JUMPI DUP2 PUSH1 0x20 ADD PUSH1 0x20 DUP3 MUL DUP1 CALLDATASIZE DUP4 CALLDATACOPY ADD SWAP1 POP JUMPDEST POP SWAP1 POP PUSH1 0x0 JUMPDEST DUP5 MLOAD DUP2 EQ PUSH2 0x10AA JUMPI PUSH32 0x0 PUSH1 0x1 PUSH1 0x1 PUSH1 0xA0 SHL SUB AND DUP6 DUP3 DUP2 MLOAD DUP2 LT PUSH2 0x6067 JUMPI INVALID JUMPDEST PUSH1 0x20 MUL PUSH1 0x20 ADD ADD MLOAD PUSH1 0x1 PUSH1 0x1 PUSH1 0xA0 SHL SUB AND EQ PUSH2 0x60B3 JUMPI PUSH2 0x60AE DUP5 DUP5 DUP8 DUP5 DUP2 MLOAD DUP2 LT PUSH2 0x608E JUMPI INVALID JUMPDEST PUSH1 0x20 MUL PUSH1 0x20 ADD ADD MLOAD PUSH1 0x1 PUSH1 0x1 PUSH1 0xA0 SHL SUB AND PUSH2 0x8B0B SWAP1 SWAP3 SWAP2 SWAP1 PUSH4 0xFFFFFFFF AND JUMP JUMPDEST PUSH2 0x60B6 JUMP JUMPDEST PUSH1 0x0 JUMPDEST DUP3 DUP3 DUP2 MLOAD DUP2 LT PUSH2 0x60C2 JUMPI INVALID JUMPDEST PUSH1 0x20 SWAP1 DUP2 MUL SWAP2 SWAP1 SWAP2 ADD ADD MSTORE PUSH1 0x1 ADD PUSH2 0x6029 JUMP JUMPDEST DUP1 MLOAD PUSH1 0x60 SWAP1 DUP1 PUSH1 0x1 PUSH1 0x1 PUSH1 0x40 SHL SUB DUP2 GT DUP1 ISZERO PUSH2 0x60F0 JUMPI PUSH1 0x0 DUP1 REVERT JUMPDEST POP PUSH1 0x40 MLOAD SWAP1 DUP1 DUP3 MSTORE DUP1 PUSH1 0x20 MUL PUSH1 0x20 ADD DUP3 ADD PUSH1 0x40 MSTORE DUP1 ISZERO PUSH2 0x611A JUMPI DUP2 PUSH1 0x20 ADD PUSH1 0x20 DUP3 MUL DUP1 CALLDATASIZE DUP4 CALLDATACOPY ADD SWAP1 POP JUMPDEST POP SWAP2 POP PUSH1 0x0 JUMPDEST DUP2 DUP2 LT ISZERO PUSH2 0x1E86 JUMPI DUP7 PUSH1 0x1 PUSH1 0x1 PUSH1 0xA0 SHL SUB AND PUSH4 0x838E6A22 PUSH3 0x493E0 DUP9 DUP9 DUP9 DUP7 DUP2 MLOAD DUP2 LT PUSH2 0x6149 JUMPI INVALID JUMPDEST PUSH1 0x20 MUL PUSH1 0x20 ADD ADD MLOAD PUSH1 0x40 MLOAD DUP6 PUSH4 0xFFFFFFFF AND PUSH1 0xE0 SHL DUP2 MSTORE PUSH1 0x4 ADD PUSH2 0x616F SWAP4 SWAP3 SWAP2 SWAP1 PUSH2 0xB470 JUMP JUMPDEST PUSH1 0x20 PUSH1 0x40 MLOAD DUP1 DUP4 SUB DUP2 DUP8 DUP1 EXTCODESIZE ISZERO DUP1 ISZERO PUSH2 0x6187 JUMPI PUSH1 0x0 DUP1 REVERT JUMPDEST POP DUP7 STATICCALL SWAP4 POP POP POP POP DUP1 ISZERO PUSH2 0x61B8 JUMPI POP PUSH1 0x40 DUP1 MLOAD PUSH1 0x1F RETURNDATASIZE SWAP1 DUP2 ADD PUSH1 0x1F NOT AND DUP3 ADD SWAP1 SWAP3 MSTORE PUSH2 0x61B5 SWAP2 DUP2 ADD SWAP1 PUSH2 0xA5CB JUMP JUMPDEST PUSH1 0x1 JUMPDEST PUSH2 0x61E6 JUMPI RETURNDATASIZE DUP1 DUP1 ISZERO PUSH2 0x1E36 JUMPI PUSH1 0x40 MLOAD SWAP2 POP PUSH1 0x1F NOT PUSH1 0x3F RETURNDATASIZE ADD AND DUP3 ADD PUSH1 0x40 MSTORE RETURNDATASIZE DUP3 MSTORE RETURNDATASIZE PUSH1 0x0 PUSH1 0x20 DUP5 ADD RETURNDATACOPY PUSH2 0x1E3B JUMP JUMPDEST DUP1 DUP5 DUP4 DUP2 MLOAD DUP2 LT PUSH2 0x61F3 JUMPI INVALID JUMPDEST PUSH1 0x20 MUL PUSH1 0x20 ADD ADD DUP2 DUP2 MSTORE POP POP POP PUSH1 0x1 ADD PUSH2 0x6120 JUMP JUMPDEST PUSH1 0x0 DUP5 PUSH1 0x80 ADD MLOAD MLOAD PUSH1 0x0 EQ ISZERO PUSH2 0x6220 JUMPI POP PUSH1 0x0 PUSH2 0x19C8 JUMP JUMPDEST DUP5 PUSH1 0x40 ADD MLOAD PUSH1 0x1 PUSH1 0x1 PUSH1 0xA0 SHL SUB AND PUSH4 0x418436BC PUSH3 0x7A120 DUP8 PUSH1 0x60 ADD MLOAD PUSH1 0x1 PUSH1 0x1 PUSH1 0xA0 SHL SUB AND DUP8 PUSH1 0x1 PUSH1 0x1 PUSH1 0xA0 SHL SUB AND EQ PUSH2 0x625A JUMPI DUP7 PUSH2 0x6270 JUMP JUMPDEST PUSH20 0xEEEEEEEEEEEEEEEEEEEEEEEEEEEEEEEEEEEEEEEE JUMPDEST DUP9 PUSH1 0x60 ADD MLOAD PUSH1 0x1 PUSH1 0x1 PUSH1 0xA0 SHL SUB AND DUP8 PUSH1 0x1 PUSH1 0x1 PUSH1 0xA0 SHL SUB AND EQ PUSH2 0x6293 JUMPI DUP7 PUSH2 0x62A9 JUMP JUMPDEST PUSH20 0xEEEEEEEEEEEEEEEEEEEEEEEEEEEEEEEEEEEEEEEE JUMPDEST DUP7 PUSH1 0x0 DUP12 PUSH1 0x80 ADD MLOAD PUSH1 0x40 MLOAD DUP8 PUSH4 0xFFFFFFFF AND PUSH1 0xE0 SHL DUP2 MSTORE PUSH1 0x4 ADD PUSH2 0x62D1 SWAP6 SWAP5 SWAP4 SWAP3 SWAP2 SWAP1 PUSH2 0xB498 JUMP JUMPDEST PUSH1 0x20 PUSH1 0x40 MLOAD DUP1 DUP4 SUB DUP2 DUP8 DUP1 EXTCODESIZE ISZERO DUP1 ISZERO PUSH2 0x62E9 JUMPI PUSH1 0x0 DUP1 REVERT JUMPDEST POP DUP7 STATICCALL SWAP4 POP POP POP POP DUP1 ISZERO PUSH2 0x631A JUMPI POP PUSH1 0x40 DUP1 MLOAD PUSH1 0x1F RETURNDATASIZE SWAP1 DUP2 ADD PUSH1 0x1F NOT AND DUP3 ADD SWAP1 SWAP3 MSTORE PUSH2 0x6317 SWAP2 DUP2 ADD SWAP1 PUSH2 0xA5CB JUMP JUMPDEST PUSH1 0x1 JUMPDEST PUSH2 0x6358 JUMPI RETURNDATASIZE DUP1 DUP1 ISZERO PUSH2 0x6348 JUMPI PUSH1 0x40 MLOAD SWAP2 POP PUSH1 0x1F NOT PUSH1 0x3F RETURNDATASIZE ADD AND DUP3 ADD PUSH1 0x40 MSTORE RETURNDATASIZE DUP3 MSTORE RETURNDATASIZE PUSH1 0x0 PUSH1 0x20 DUP5 ADD RETURNDATACOPY PUSH2 0x634D JUMP JUMPDEST PUSH1 0x60 SWAP2 POP JUMPDEST POP PUSH1 0x0 SWAP2 POP POP PUSH2 0x19C8 JUMP JUMPDEST PUSH1 0x0 PUSH2 0x6363 DUP6 PUSH2 0x8BD7 JUMP JUMPDEST PUSH1 0xFF AND SWAP1 POP PUSH1 0x0 PUSH2 0x6373 DUP8 PUSH2 0x8BD7 JUMP JUMPDEST PUSH1 0xFF AND SWAP1 POP PUSH8 0xDE0B6B3A7640000 DUP2 PUSH1 0xA EXP DUP4 PUSH1 0xA EXP DUP8 DUP7 MUL MUL DUP2 PUSH2 0x6394 JUMPI INVALID JUMPDEST DIV DUP2 PUSH2 0x639C JUMPI INVALID JUMPDEST DIV SWAP4 POP POP POP POP PUSH2 0x19C8 JUMP JUMPDEST PUSH1 0x0 PUSH1 0x60 PUSH2 0x63B5 DUP5 DUP7 PUSH2 0x6D72 JUMP JUMPDEST DUP3 MLOAD DUP1 PUSH1 0x1 PUSH1 0x1 PUSH1 0x40 SHL SUB DUP2 GT DUP1 ISZERO PUSH2 0x63CD JUMPI PUSH1 0x0 DUP1 REVERT JUMPDEST POP PUSH1 0x40 MLOAD SWAP1 DUP1 DUP3 MSTORE DUP1 PUSH1 0x20 MUL PUSH1 0x20 ADD DUP3 ADD PUSH1 0x40 MSTORE DUP1 ISZERO PUSH2 0x63F7 JUMPI DUP2 PUSH1 0x20 ADD PUSH1 0x20 DUP3 MUL DUP1 CALLDATASIZE DUP4 CALLDATACOPY ADD SWAP1 POP JUMPDEST POP SWAP2 POP PUSH2 0x6462 PUSH1 0x40 MLOAD DUP1 PUSH1 0x60 ADD PUSH1 0x40 MSTORE DUP1 DUP10 DUP9 PUSH1 0x40 MLOAD PUSH1 0x20 ADD PUSH2 0x641B SWAP3 SWAP2 SWAP1 PUSH2 0xB316 JUMP JUMPDEST PUSH1 0x40 MLOAD PUSH1 0x20 DUP2 DUP4 SUB SUB DUP2 MSTORE SWAP1 PUSH1 0x40 MSTORE DUP2 MSTORE PUSH1 0x20 ADD DUP10 DUP10 PUSH1 0x40 MLOAD PUSH1 0x20 ADD PUSH2 0x6442 SWAP3 SWAP2 SWAP1 PUSH2 0xB316 JUMP JUMPDEST PUSH1 0x40 MLOAD PUSH1 0x20 DUP2 DUP4 SUB SUB DUP2 MSTORE SWAP1 PUSH1 0x40 MSTORE DUP2 MSTORE PUSH1 0x20 ADD PUSH2 0x8BE2 DUP2 MSTORE POP DUP6 PUSH2 0x7397 JUMP JUMPDEST PUSH1 0x40 MLOAD PUSH4 0x901754D7 PUSH1 0xE0 SHL DUP2 MSTORE SWAP1 SWAP3 POP PUSH1 0x1 PUSH1 0x1 PUSH1 0xA0 SHL SUB DUP9 AND SWAP1 PUSH4 0x901754D7 SWAP1 PUSH2 0x53B9 SWAP1 DUP10 SWAP1 DUP10 SWAP1 PUSH1 0x4 ADD PUSH2 0xB316 JUMP JUMPDEST DUP1 MLOAD PUSH1 0x60 SWAP1 DUP1 PUSH1 0x1 PUSH1 0x1 PUSH1 0x40 SHL SUB DUP2 GT DUP1 ISZERO PUSH2 0x64AE JUMPI PUSH1 0x0 DUP1 REVERT JUMPDEST POP PUSH1 0x40 MLOAD SWAP1 DUP1 DUP3 MSTORE DUP1 PUSH1 0x20 MUL PUSH1 0x20 ADD DUP3 ADD PUSH1 0x40 MSTORE DUP1 ISZERO PUSH2 0x64D8 JUMPI DUP2 PUSH1 0x20 ADD PUSH1 0x20 DUP3 MUL DUP1 CALLDATASIZE DUP4 CALLDATACOPY ADD SWAP1 POP JUMPDEST POP SWAP2 POP PUSH1 0x0 JUMPDEST DUP2 DUP2 LT ISZERO PUSH2 0x200B JUMPI DUP6 PUSH1 0x1 PUSH1 0x1 PUSH1 0xA0 SHL SUB AND PUSH4 0x43C2E2F5 DUP7 PUSH1 0x0 DUP2 MLOAD DUP2 LT PUSH2 0x6502 JUMPI INVALID JUMPDEST PUSH1 0x20 MUL PUSH1 0x20 ADD ADD MLOAD DUP8 PUSH1 0x1 DUP2 MLOAD DUP2 LT PUSH2 0x6517 JUMPI INVALID JUMPDEST PUSH1 0x20 MUL PUSH1 0x20 ADD ADD MLOAD DUP8 DUP6 DUP2 MLOAD DUP2 LT PUSH2 0x652B JUMPI INVALID JUMPDEST PUSH1 0x20 MUL PUSH1 0x20 ADD ADD MLOAD PUSH1 0x40 MLOAD DUP5 PUSH4 0xFFFFFFFF AND PUSH1 0xE0 SHL DUP2 MSTORE PUSH1 0x4 ADD PUSH2 0x6551 SWAP4 SWAP3 SWAP2 SWAP1 PUSH2 0xB470 JUMP JUMPDEST PUSH1 0x40 DUP1 MLOAD DUP1 DUP4 SUB DUP2 DUP7 DUP1 EXTCODESIZE ISZERO DUP1 ISZERO PUSH2 0x6568 JUMPI PUSH1 0x0 DUP1 REVERT JUMPDEST POP GAS STATICCALL SWAP3 POP POP POP DUP1 ISZERO PUSH2 0x6598 JUMPI POP PUSH1 0x40 DUP1 MLOAD PUSH1 0x1F RETURNDATASIZE SWAP1 DUP2 ADD PUSH1 0x1F NOT AND DUP3 ADD SWAP1 SWAP3 MSTORE PUSH2 0x6595 SWAP2 DUP2 ADD SWAP1 PUSH2 0xAAC3 JUMP JUMPDEST PUSH1 0x1 JUMPDEST PUSH2 0x65C6 JUMPI RETURNDATASIZE DUP1 DUP1 ISZERO PUSH2 0x1FA4 JUMPI PUSH1 0x40 MLOAD SWAP2 POP PUSH1 0x1F NOT PUSH1 0x3F RETURNDATASIZE ADD AND DUP3 ADD PUSH1 0x40 MSTORE RETURNDATASIZE DUP3 MSTORE RETURNDATASIZE PUSH1 0x0 PUSH1 0x20 DUP5 ADD RETURNDATACOPY PUSH2 0x1FA9 JUMP JUMPDEST DUP2 DUP6 DUP5 DUP2 MLOAD DUP2 LT PUSH2 0x65D3 JUMPI INVALID JUMPDEST PUSH1 0x20 MUL PUSH1 0x20 ADD ADD DUP2 DUP2 MSTORE POP POP DUP5 DUP4 DUP2 MLOAD DUP2 LT PUSH2 0x65EB JUMPI INVALID JUMPDEST PUSH1 0x20 MUL PUSH1 0x20 ADD ADD MLOAD PUSH1 0x0 EQ ISZERO PUSH2 0x6602 JUMPI POP POP PUSH2 0x200B JUMP JUMPDEST POP POP PUSH1 0x1 ADD PUSH2 0x64DE JUMP JUMPDEST PUSH2 0x6614 PUSH2 0x90B2 JUMP JUMPDEST PUSH2 0x661C PUSH2 0x90B2 JUMP JUMPDEST PUSH1 0x0 NOT DUP1 PUSH1 0x0 JUMPDEST DUP7 MLOAD DUP2 EQ PUSH2 0x6718 JUMPI PUSH2 0x6653 PUSH1 0x20 DUP9 DUP4 DUP2 MLOAD DUP2 LT PUSH2 0x663C JUMPI INVALID JUMPDEST PUSH1 0x20 MUL PUSH1 0x20 ADD ADD MLOAD MLOAD SUB DUP8 DUP10 DUP5 DUP2 MLOAD DUP2 LT PUSH2 0x3E9D JUMPI INVALID JUMPDEST PUSH1 0x0 PUSH1 0x60 ADDRESS PUSH1 0x1 PUSH1 0x1 PUSH1 0xA0 SHL SUB AND DUP10 DUP5 DUP2 MLOAD DUP2 LT PUSH2 0x666D JUMPI INVALID JUMPDEST PUSH1 0x20 MUL PUSH1 0x20 ADD ADD MLOAD PUSH1 0x40 MLOAD PUSH2 0x6682 SWAP2 SWAP1 PUSH2 0xB2E1 JUMP JUMPDEST PUSH1 0x0 PUSH1 0x40 MLOAD DUP1 DUP4 SUB DUP2 PUSH1 0x0 DUP7 GAS CALL SWAP2 POP POP RETURNDATASIZE DUP1 PUSH1 0x0 DUP2 EQ PUSH2 0x66BF JUMPI PUSH1 0x40 MLOAD SWAP2 POP PUSH1 0x1F NOT PUSH1 0x3F RETURNDATASIZE ADD AND DUP3 ADD PUSH1 0x40 MSTORE RETURNDATASIZE DUP3 MSTORE RETURNDATASIZE PUSH1 0x0 PUSH1 0x20 DUP5 ADD RETURNDATACOPY PUSH2 0x66C4 JUMP JUMPDEST PUSH1 0x60 SWAP2 POP JUMPDEST POP SWAP2 POP SWAP2 POP DUP2 ISZERO PUSH2 0x670E JUMPI PUSH1 0x0 PUSH2 0x66E8 PUSH1 0x20 DUP4 MLOAD SUB DUP4 PUSH2 0x8450 SWAP1 SWAP2 SWAP1 PUSH4 0xFFFFFFFF AND JUMP JUMPDEST SWAP1 POP PUSH1 0x0 DUP2 GT DUP1 ISZERO PUSH2 0x66F9 JUMPI POP DUP5 DUP2 LT JUMPDEST ISZERO PUSH2 0x670C JUMPI DUP4 DUP8 MSTORE PUSH1 0x20 DUP8 ADD DUP3 SWAP1 MSTORE SWAP4 POP DUP4 JUMPDEST POP JUMPDEST POP POP PUSH1 0x1 ADD PUSH2 0x6623 JUMP JUMPDEST POP PUSH1 0x0 NOT DUP2 EQ ISZERO PUSH2 0x6729 JUMPI POP PUSH2 0x4065 JUMP JUMPDEST PUSH1 0x0 JUMPDEST DUP8 MLOAD DUP2 EQ PUSH2 0x2AA2 JUMPI PUSH2 0x675C PUSH1 0x20 DUP10 DUP4 DUP2 MLOAD DUP2 LT PUSH2 0x6745 JUMPI INVALID JUMPDEST PUSH1 0x20 MUL PUSH1 0x20 ADD ADD MLOAD MLOAD SUB DUP4 DUP11 DUP5 DUP2 MLOAD DUP2 LT PUSH2 0x3E9D JUMPI INVALID JUMPDEST PUSH1 0x0 PUSH1 0x60 ADDRESS PUSH1 0x1 PUSH1 0x1 PUSH1 0xA0 SHL SUB AND DUP11 DUP5 DUP2 MLOAD DUP2 LT PUSH2 0x6776 JUMPI INVALID JUMPDEST PUSH1 0x20 MUL PUSH1 0x20 ADD ADD MLOAD PUSH1 0x40 MLOAD PUSH2 0x678B SWAP2 SWAP1 PUSH2 0xB2E1 JUMP JUMPDEST PUSH1 0x0 PUSH1 0x40 MLOAD DUP1 DUP4 SUB DUP2 PUSH1 0x0 DUP7 GAS CALL SWAP2 POP POP RETURNDATASIZE DUP1 PUSH1 0x0 DUP2 EQ PUSH2 0x67C8 JUMPI PUSH1 0x40 MLOAD SWAP2 POP PUSH1 0x1F NOT PUSH1 0x3F RETURNDATASIZE ADD AND DUP3 ADD PUSH1 0x40 MSTORE RETURNDATASIZE DUP3 MSTORE RETURNDATASIZE PUSH1 0x0 PUSH1 0x20 DUP5 ADD RETURNDATACOPY PUSH2 0x67CD JUMP JUMPDEST PUSH1 0x60 SWAP2 POP JUMPDEST POP SWAP2 POP SWAP2 POP DUP2 ISZERO PUSH2 0x6817 JUMPI PUSH1 0x0 PUSH2 0x67F1 PUSH1 0x20 DUP4 MLOAD SUB DUP4 PUSH2 0x8450 SWAP1 SWAP2 SWAP1 PUSH4 0xFFFFFFFF AND JUMP JUMPDEST SWAP1 POP PUSH1 0x0 DUP2 GT DUP1 ISZERO PUSH2 0x6802 JUMPI POP DUP6 DUP2 LT JUMPDEST ISZERO PUSH2 0x6815 JUMPI DUP4 DUP9 MSTORE PUSH1 0x20 DUP9 ADD DUP3 SWAP1 MSTORE SWAP5 POP DUP5 JUMPDEST POP JUMPDEST POP POP PUSH1 0x1 ADD PUSH2 0x672C JUMP JUMPDEST PUSH1 0x60 PUSH1 0x0 DUP4 PUSH1 0x1 PUSH1 0x1 PUSH1 0xA0 SHL SUB AND PUSH4 0xC45A0155 PUSH1 0x40 MLOAD DUP2 PUSH4 0xFFFFFFFF AND PUSH1 0xE0 SHL DUP2 MSTORE PUSH1 0x4 ADD PUSH1 0x20 PUSH1 0x40 MLOAD DUP1 DUP4 SUB DUP2 DUP7 DUP1 EXTCODESIZE ISZERO DUP1 ISZERO PUSH2 0x685E JUMPI PUSH1 0x0 DUP1 REVERT JUMPDEST POP GAS STATICCALL ISZERO DUP1 ISZERO PUSH2 0x6872 JUMPI RETURNDATASIZE PUSH1 0x0 DUP1 RETURNDATACOPY RETURNDATASIZE PUSH1 0x0 REVERT JUMPDEST POP POP POP POP PUSH1 0x40 MLOAD RETURNDATASIZE PUSH1 0x1F NOT PUSH1 0x1F DUP3 ADD AND DUP3 ADD DUP1 PUSH1 0x40 MSTORE POP DUP2 ADD SWAP1 PUSH2 0x6896 SWAP2 SWAP1 PUSH2 0x9EA6 JUMP JUMPDEST SWAP1 POP PUSH1 0x1 DUP4 MLOAD SUB PUSH1 0x1 PUSH1 0x1 PUSH1 0x40 SHL SUB DUP2 GT DUP1 ISZERO PUSH2 0x68B2 JUMPI PUSH1 0x0 DUP1 REVERT JUMPDEST POP PUSH1 0x40 MLOAD SWAP1 DUP1 DUP3 MSTORE DUP1 PUSH1 0x20 MUL PUSH1 0x20 ADD DUP3 ADD PUSH1 0x40 MSTORE DUP1 ISZERO PUSH2 0x68DC JUMPI DUP2 PUSH1 0x20 ADD PUSH1 0x20 DUP3 MUL DUP1 CALLDATASIZE DUP4 CALLDATACOPY ADD SWAP1 POP JUMPDEST POP SWAP2 POP PUSH1 0x0 JUMPDEST DUP3 MLOAD DUP2 LT ISZERO PUSH2 0x6B08 JUMPI PUSH1 0x60 DUP3 PUSH1 0x1 PUSH1 0x1 PUSH1 0xA0 SHL SUB AND PUSH4 0x5B1DC86F PUSH3 0x249F0 DUP8 DUP6 DUP2 MLOAD DUP2 LT PUSH2 0x690C JUMPI INVALID JUMPDEST PUSH1 0x20 MUL PUSH1 0x20 ADD ADD MLOAD DUP9 DUP7 PUSH1 0x1 ADD DUP2 MLOAD DUP2 LT PUSH2 0x6923 JUMPI INVALID JUMPDEST PUSH1 0x20 MUL PUSH1 0x20 ADD ADD MLOAD PUSH1 0x40 MLOAD DUP5 PUSH4 0xFFFFFFFF AND PUSH1 0xE0 SHL DUP2 MSTORE PUSH1 0x4 ADD PUSH2 0x6948 SWAP3 SWAP2 SWAP1 PUSH2 0xB316 JUMP JUMPDEST PUSH1 0x0 PUSH1 0x40 MLOAD DUP1 DUP4 SUB DUP2 DUP8 DUP1 EXTCODESIZE ISZERO DUP1 ISZERO PUSH2 0x6960 JUMPI PUSH1 0x0 DUP1 REVERT JUMPDEST POP DUP7 STATICCALL SWAP4 POP POP POP POP DUP1 ISZERO PUSH2 0x6996 JUMPI POP PUSH1 0x40 MLOAD RETURNDATASIZE PUSH1 0x0 DUP3 RETURNDATACOPY PUSH1 0x1F RETURNDATASIZE SWAP1 DUP2 ADD PUSH1 0x1F NOT AND DUP3 ADD PUSH1 0x40 MSTORE PUSH2 0x6993 SWAP2 SWAP1 DUP2 ADD SWAP1 PUSH2 0xA2AD JUMP JUMPDEST PUSH1 0x1 JUMPDEST PUSH2 0x6A04 JUMPI RETURNDATASIZE DUP1 DUP1 ISZERO PUSH2 0x69C4 JUMPI PUSH1 0x40 MLOAD SWAP2 POP PUSH1 0x1F NOT PUSH1 0x3F RETURNDATASIZE ADD AND DUP3 ADD PUSH1 0x40 MSTORE RETURNDATASIZE DUP3 MSTORE RETURNDATASIZE PUSH1 0x0 PUSH1 0x20 DUP5 ADD RETURNDATACOPY PUSH2 0x69C9 JUMP JUMPDEST PUSH1 0x60 SWAP2 POP JUMPDEST POP PUSH1 0x0 DUP1 JUMPDEST POP PUSH1 0x40 MLOAD SWAP1 DUP1 DUP3 MSTORE DUP1 PUSH1 0x20 MUL PUSH1 0x20 ADD DUP3 ADD PUSH1 0x40 MSTORE DUP1 ISZERO PUSH2 0x69F8 JUMPI DUP2 PUSH1 0x20 ADD PUSH1 0x20 DUP3 MUL DUP1 CALLDATASIZE DUP4 CALLDATACOPY ADD SWAP1 POP JUMPDEST POP SWAP5 POP POP POP POP POP PUSH2 0x6B0B JUMP JUMPDEST DUP1 MLOAD PUSH2 0x6A12 JUMPI PUSH1 0x0 DUP1 PUSH2 0x69CE JUMP JUMPDEST PUSH1 0x0 DUP1 JUMPDEST DUP3 MLOAD DUP2 LT ISZERO PUSH2 0x6AFC JUMPI PUSH1 0x0 DUP4 DUP3 DUP2 MLOAD DUP2 LT PUSH2 0x6A2D JUMPI INVALID JUMPDEST PUSH1 0x20 MUL PUSH1 0x20 ADD ADD MLOAD PUSH1 0x1 PUSH1 0x1 PUSH1 0xA0 SHL SUB AND PUSH4 0x18160DDD PUSH1 0x40 MLOAD DUP2 PUSH4 0xFFFFFFFF AND PUSH1 0xE0 SHL DUP2 MSTORE PUSH1 0x4 ADD PUSH1 0x20 PUSH1 0x40 MLOAD DUP1 DUP4 SUB DUP2 DUP7 DUP1 EXTCODESIZE ISZERO DUP1 ISZERO PUSH2 0x6A6D JUMPI PUSH1 0x0 DUP1 REVERT JUMPDEST POP GAS STATICCALL ISZERO DUP1 ISZERO PUSH2 0x6A81 JUMPI RETURNDATASIZE PUSH1 0x0 DUP1 RETURNDATACOPY RETURNDATASIZE PUSH1 0x0 REVERT JUMPDEST POP POP POP POP PUSH1 0x40 MLOAD RETURNDATASIZE PUSH1 0x1F NOT PUSH1 0x1F DUP3 ADD AND DUP3 ADD DUP1 PUSH1 0x40 MSTORE POP DUP2 ADD SWAP1 PUSH2 0x6AA5 SWAP2 SWAP1 PUSH2 0xA5CB JUMP JUMPDEST SWAP1 POP DUP3 DUP2 GT ISZERO PUSH2 0x6AF3 JUMPI DUP1 SWAP3 POP DUP4 DUP3 DUP2 MLOAD DUP2 LT PUSH2 0x6ABE JUMPI INVALID JUMPDEST PUSH1 0x20 MUL PUSH1 0x20 ADD ADD MLOAD DUP9 DUP8 DUP2 MLOAD DUP2 LT PUSH2 0x6AD2 JUMPI INVALID JUMPDEST PUSH1 0x20 MUL PUSH1 0x20 ADD ADD SWAP1 PUSH1 0x1 PUSH1 0x1 PUSH1 0xA0 SHL SUB AND SWAP1 DUP2 PUSH1 0x1 PUSH1 0x1 PUSH1 0xA0 SHL SUB AND DUP2 MSTORE POP POP JUMPDEST POP PUSH1 0x1 ADD PUSH2 0x6A16 JUMP JUMPDEST POP POP POP POP PUSH1 0x1 ADD PUSH2 0x68E2 JUMP JUMPDEST POP POP JUMPDEST SWAP3 SWAP2 POP POP JUMP JUMPDEST PUSH1 0x0 PUSH1 0x60 DUP6 PUSH1 0x0 ADD MLOAD PUSH1 0x1 PUSH1 0x1 PUSH1 0xA0 SHL SUB AND PUSH4 0x21F8A721 DUP8 PUSH1 0x0 ADD MLOAD PUSH1 0x1 PUSH1 0x1 PUSH1 0xA0 SHL SUB AND PUSH4 0x9232494E PUSH1 0x40 MLOAD DUP2 PUSH4 0xFFFFFFFF AND PUSH1 0xE0 SHL DUP2 MSTORE PUSH1 0x4 ADD PUSH1 0x20 PUSH1 0x40 MLOAD DUP1 DUP4 SUB DUP2 DUP7 DUP1 EXTCODESIZE ISZERO DUP1 ISZERO PUSH2 0x6B65 JUMPI PUSH1 0x0 DUP1 REVERT JUMPDEST POP GAS STATICCALL ISZERO DUP1 ISZERO PUSH2 0x6B79 JUMPI RETURNDATASIZE PUSH1 0x0 DUP1 RETURNDATACOPY RETURNDATASIZE PUSH1 0x0 REVERT JUMPDEST POP POP POP POP PUSH1 0x40 MLOAD RETURNDATASIZE PUSH1 0x1F NOT PUSH1 0x1F DUP3 ADD AND DUP3 ADD DUP1 PUSH1 0x40 MSTORE POP DUP2 ADD SWAP1 PUSH2 0x6B9D SWAP2 SWAP1 PUSH2 0xA5CB JUMP JUMPDEST PUSH1 0x40 MLOAD DUP3 PUSH4 0xFFFFFFFF AND PUSH1 0xE0 SHL DUP2 MSTORE PUSH1 0x4 ADD PUSH2 0x6BB9 SWAP2 SWAP1 PUSH2 0xB6F2 JUMP JUMPDEST PUSH1 0x20 PUSH1 0x40 MLOAD DUP1 DUP4 SUB DUP2 DUP7 DUP1 EXTCODESIZE ISZERO DUP1 ISZERO PUSH2 0x6BD1 JUMPI PUSH1 0x0 DUP1 REVERT JUMPDEST POP GAS STATICCALL ISZERO DUP1 ISZERO PUSH2 0x6BE5 JUMPI RETURNDATASIZE PUSH1 0x0 DUP1 RETURNDATACOPY RETURNDATASIZE PUSH1 0x0 REVERT JUMPDEST POP POP POP POP PUSH1 0x40 MLOAD RETURNDATASIZE PUSH1 0x1F NOT PUSH1 0x1F DUP3 ADD AND DUP3 ADD DUP1 PUSH1 0x40 MSTORE POP DUP2 ADD SWAP1 PUSH2 0x6C09 SWAP2 SWAP1 PUSH2 0x9EA6 JUMP JUMPDEST SWAP2 POP DUP6 PUSH1 0x20 ADD MLOAD MLOAD PUSH1 0x0 EQ ISZERO PUSH2 0x6C1E JUMPI PUSH2 0x6D3A JUMP JUMPDEST PUSH1 0x0 DUP1 JUMPDEST DUP8 PUSH1 0x20 ADD MLOAD MLOAD DUP2 LT ISZERO PUSH2 0x6D37 JUMPI PUSH1 0x2 DUP9 PUSH1 0x20 ADD MLOAD DUP3 DUP2 MLOAD DUP2 LT PUSH2 0x6C41 JUMPI INVALID JUMPDEST PUSH1 0x20 MUL PUSH1 0x20 ADD ADD MLOAD MLOAD LT ISZERO PUSH2 0x6C55 JUMPI PUSH2 0x6D2F JUMP JUMPDEST DUP4 PUSH1 0x1 PUSH1 0x1 PUSH1 0xA0 SHL SUB AND PUSH4 0x7F9C0ECD PUSH3 0x493E0 DUP11 PUSH1 0x20 ADD MLOAD DUP5 DUP2 MLOAD DUP2 LT PUSH2 0x6C78 JUMPI INVALID JUMPDEST PUSH1 0x20 MUL PUSH1 0x20 ADD ADD MLOAD DUP9 PUSH1 0x1 DUP11 MLOAD SUB DUP2 MLOAD DUP2 LT PUSH2 0x6C90 JUMPI INVALID JUMPDEST PUSH1 0x20 MUL PUSH1 0x20 ADD ADD MLOAD PUSH1 0x40 MLOAD DUP5 PUSH4 0xFFFFFFFF AND PUSH1 0xE0 SHL DUP2 MSTORE PUSH1 0x4 ADD PUSH2 0x6CB5 SWAP3 SWAP2 SWAP1 PUSH2 0xB650 JUMP JUMPDEST PUSH1 0x20 PUSH1 0x40 MLOAD DUP1 DUP4 SUB DUP2 DUP8 DUP1 EXTCODESIZE ISZERO DUP1 ISZERO PUSH2 0x6CCD JUMPI PUSH1 0x0 DUP1 REVERT JUMPDEST POP DUP7 STATICCALL SWAP4 POP POP POP POP DUP1 ISZERO PUSH2 0x6CFE JUMPI POP PUSH1 0x40 DUP1 MLOAD PUSH1 0x1F RETURNDATASIZE SWAP1 DUP2 ADD PUSH1 0x1F NOT AND DUP3 ADD SWAP1 SWAP3 MSTORE PUSH2 0x6CFB SWAP2 DUP2 ADD SWAP1 PUSH2 0xA5CB JUMP JUMPDEST PUSH1 0x1 JUMPDEST PUSH2 0x6D07 JUMPI PUSH2 0x6D2F JUMP JUMPDEST DUP3 DUP2 GT ISZERO PUSH2 0x6D2D JUMPI DUP1 SWAP3 POP DUP9 PUSH1 0x20 ADD MLOAD DUP3 DUP2 MLOAD DUP2 LT PUSH2 0x6D22 JUMPI INVALID JUMPDEST PUSH1 0x20 MUL PUSH1 0x20 ADD ADD MLOAD SWAP4 POP JUMPDEST POP JUMPDEST PUSH1 0x1 ADD PUSH2 0x6C22 JUMP JUMPDEST POP POP JUMPDEST SWAP5 POP SWAP5 SWAP3 POP POP POP JUMP JUMPDEST PUSH2 0x6D4B PUSH2 0x9044 JUMP JUMPDEST POP PUSH1 0x40 DUP1 MLOAD PUSH1 0x80 DUP2 ADD DUP3 MSTORE ADDRESS DUP1 DUP3 MSTORE PUSH1 0x0 PUSH1 0x20 DUP4 ADD DUP2 SWAP1 MSTORE SWAP3 DUP3 ADD MSTORE PUSH1 0x60 DUP2 ADD SWAP2 SWAP1 SWAP2 MSTORE SWAP1 JUMP JUMPDEST DUP1 PUSH1 0x1 PUSH1 0x1 PUSH1 0xA0 SHL SUB AND DUP3 PUSH1 0x1 PUSH1 0x1 PUSH1 0xA0 SHL SUB AND EQ ISZERO PUSH2 0x6DAD JUMPI PUSH1 0x40 MLOAD PUSH3 0x461BCD PUSH1 0xE5 SHL DUP2 MSTORE PUSH1 0x4 ADD PUSH2 0x6DA4 SWAP1 PUSH2 0xB88C JUMP JUMPDEST PUSH1 0x40 MLOAD DUP1 SWAP2 SUB SWAP1 REVERT JUMPDEST POP POP JUMP JUMPDEST PUSH1 0x40 DUP1 MLOAD PUSH1 0x1 DUP1 DUP3 MSTORE DUP2 DUP4 ADD SWAP1 SWAP3 MSTORE PUSH1 0x60 SWAP2 DUP3 SWAP2 SWAP1 DUP2 PUSH1 0x20 ADD JUMPDEST PUSH2 0x6DD3 PUSH2 0x90EE JUMP JUMPDEST DUP2 MSTORE PUSH1 0x20 ADD SWAP1 PUSH1 0x1 SWAP1 SUB SWAP1 DUP2 PUSH2 0x6DCB JUMPI SWAP1 POP POP SWAP1 POP PUSH1 0x40 MLOAD DUP1 PUSH1 0xA0 ADD PUSH1 0x40 MSTORE DUP1 DUP6 PUSH1 0x0 ADD MLOAD DUP2 MSTORE PUSH1 0x20 ADD PUSH1 0x0 DUP2 MSTORE PUSH1 0x20 ADD PUSH1 0x1 DUP2 MSTORE PUSH1 0x20 ADD DUP5 DUP2 MSTORE PUSH1 0x20 ADD PUSH1 0x40 MLOAD DUP1 PUSH1 0x20 ADD PUSH1 0x40 MSTORE DUP1 PUSH1 0x0 DUP2 MSTORE POP DUP2 MSTORE POP DUP2 PUSH1 0x0 DUP2 MLOAD DUP2 LT PUSH2 0x6E31 JUMPI INVALID JUMPDEST PUSH1 0x20 SWAP1 DUP2 MUL SWAP2 SWAP1 SWAP2 ADD ADD MSTORE SWAP4 SWAP3 POP POP POP JUMP JUMPDEST PUSH1 0x40 MLOAD PUSH4 0x3795FB1 PUSH1 0xE1 SHL DUP2 MSTORE PUSH1 0x0 SWAP1 PUSH1 0x1 PUSH1 0x1 PUSH1 0xA0 SHL SUB DUP5 AND SWAP1 PUSH4 0x6F2BF62 SWAP1 PUSH2 0x6E72 SWAP1 DUP6 SWAP1 PUSH1 0x4 ADD PUSH2 0xB2ED JUMP JUMPDEST PUSH1 0x20 PUSH1 0x40 MLOAD DUP1 DUP4 SUB DUP2 DUP7 DUP1 EXTCODESIZE ISZERO DUP1 ISZERO PUSH2 0x6E8A JUMPI PUSH1 0x0 DUP1 REVERT JUMPDEST POP GAS STATICCALL ISZERO DUP1 ISZERO PUSH2 0x6E9E JUMPI RETURNDATASIZE PUSH1 0x0 DUP1 RETURNDATACOPY RETURNDATASIZE PUSH1 0x0 REVERT JUMPDEST POP POP POP POP PUSH1 0x40 MLOAD RETURNDATASIZE PUSH1 0x1F NOT PUSH1 0x1F DUP3 ADD AND DUP3 ADD DUP1 PUSH1 0x40 MSTORE POP DUP2 ADD SWAP1 PUSH2 0x378F SWAP2 SWAP1 PUSH2 0x9EA6 JUMP JUMPDEST PUSH1 0x0 DUP1 PUSH1 0x1 PUSH1 0x1 PUSH1 0xA0 SHL SUB DUP6 AND PUSH2 0x6ED8 JUMPI PUSH2 0xF37 JUMP JUMPDEST PUSH1 0x60 DUP6 PUSH1 0x1 PUSH1 0x1 PUSH1 0xA0 SHL SUB AND PUSH3 0x249F0 DUP7 DUP7 PUSH1 0x40 MLOAD PUSH1 0x24 ADD PUSH2 0x6EFA SWAP2 SWAP1 PUSH2 0xB6F2 JUMP JUMPDEST PUSH1 0x40 DUP1 MLOAD PUSH1 0x1F NOT DUP2 DUP5 SUB ADD DUP2 MSTORE SWAP2 DUP2 MSTORE PUSH1 0x20 DUP3 ADD DUP1 MLOAD PUSH1 0x1 PUSH1 0x1 PUSH1 0xE0 SHL SUB AND PUSH1 0x1 PUSH1 0x1 PUSH1 0xE0 SHL SUB NOT SWAP1 SWAP5 AND SWAP4 SWAP1 SWAP4 OR SWAP1 SWAP3 MSTORE SWAP1 MLOAD PUSH2 0x6F38 SWAP2 SWAP1 PUSH2 0xB2E1 JUMP JUMPDEST PUSH1 0x0 PUSH1 0x40 MLOAD DUP1 DUP4 SUB DUP2 DUP7 DUP7 STATICCALL SWAP3 POP POP POP RETURNDATASIZE DUP1 PUSH1 0x0 DUP2 EQ PUSH2 0x6F74 JUMPI PUSH1 0x40 MLOAD SWAP2 POP PUSH1 0x1F NOT PUSH1 0x3F RETURNDATASIZE ADD AND DUP3 ADD PUSH1 0x40 MSTORE RETURNDATASIZE DUP3 MSTORE RETURNDATASIZE PUSH1 0x0 PUSH1 0x20 DUP5 ADD RETURNDATACOPY PUSH2 0x6F79 JUMP JUMPDEST PUSH1 0x60 SWAP2 POP JUMPDEST POP SWAP1 SWAP3 POP SWAP1 POP DUP2 ISZERO PUSH2 0x6F9C JUMPI DUP1 DUP1 PUSH1 0x20 ADD SWAP1 MLOAD DUP2 ADD SWAP1 PUSH2 0x6F99 SWAP2 SWAP1 PUSH2 0xA5CB JUMP JUMPDEST SWAP3 POP JUMPDEST POP SWAP4 POP SWAP4 SWAP2 POP POP JUMP JUMPDEST PUSH1 0x0 DUP1 PUSH1 0x0 DUP1 DUP5 PUSH1 0x1 PUSH1 0x1 PUSH1 0xA0 SHL SUB AND PUSH4 0xD9638D36 DUP12 PUSH1 0x20 ADD MLOAD PUSH1 0x40 MLOAD DUP3 PUSH4 0xFFFFFFFF AND PUSH1 0xE0 SHL DUP2 MSTORE PUSH1 0x4 ADD PUSH2 0x6FDB SWAP2 SWAP1 PUSH2 0xB6F2 JUMP JUMPDEST PUSH1 0xA0 PUSH1 0x40 MLOAD DUP1 DUP4 SUB DUP2 DUP7 DUP1 EXTCODESIZE ISZERO DUP1 ISZERO PUSH2 0x6FF3 JUMPI PUSH1 0x0 DUP1 REVERT JUMPDEST POP GAS STATICCALL ISZERO DUP1 ISZERO PUSH2 0x7007 JUMPI RETURNDATASIZE PUSH1 0x0 DUP1 RETURNDATACOPY RETURNDATASIZE PUSH1 0x0 REVERT JUMPDEST POP POP POP POP PUSH1 0x40 MLOAD RETURNDATASIZE PUSH1 0x1F NOT PUSH1 0x1F DUP3 ADD AND DUP3 ADD DUP1 PUSH1 0x40 MSTORE POP DUP2 ADD SWAP1 PUSH2 0x702B SWAP2 SWAP1 PUSH2 0xAB37 JUMP JUMPDEST SWAP5 POP SWAP5 POP POP POP SWAP3 POP PUSH1 0x0 PUSH3 0xF4240 SWAP1 POP DUP11 PUSH1 0x40 ADD MLOAD PUSH1 0x1 PUSH1 0x1 PUSH1 0xA0 SHL SUB AND DUP10 PUSH1 0x1 PUSH1 0x1 PUSH1 0xA0 SHL SUB AND EQ ISZERO PUSH2 0x7153 JUMPI PUSH1 0x0 PUSH2 0x706A DUP10 PUSH5 0xE8D4A51000 PUSH2 0x8C32 JUMP JUMPDEST SWAP1 POP PUSH1 0x0 PUSH2 0x708E PUSH12 0x33B2E3C9FD0803CE8000000 PUSH2 0x7088 DUP9 DUP6 PUSH2 0x8C68 JUMP JUMPDEST SWAP1 PUSH2 0x8C32 JUMP JUMPDEST SWAP1 POP DUP5 DUP2 LT PUSH2 0x70A6 JUMPI PUSH1 0x0 SWAP7 POP POP POP POP POP POP POP PUSH2 0x3AEB JUMP JUMPDEST PUSH1 0x0 PUSH2 0x7135 PUSH8 0xDE0B6B3A7640000 PUSH2 0x712F DUP13 PUSH1 0x1 PUSH1 0x1 PUSH1 0xA0 SHL SUB AND PUSH4 0x568D4B6F PUSH1 0x40 MLOAD DUP2 PUSH4 0xFFFFFFFF AND PUSH1 0xE0 SHL DUP2 MSTORE PUSH1 0x4 ADD PUSH1 0x20 PUSH1 0x40 MLOAD DUP1 DUP4 SUB DUP2 DUP7 DUP1 EXTCODESIZE ISZERO DUP1 ISZERO PUSH2 0x70F0 JUMPI PUSH1 0x0 DUP1 REVERT JUMPDEST POP GAS STATICCALL ISZERO DUP1 ISZERO PUSH2 0x7104 JUMPI RETURNDATASIZE PUSH1 0x0 DUP1 RETURNDATACOPY RETURNDATASIZE PUSH1 0x0 REVERT JUMPDEST POP POP POP POP PUSH1 0x40 MLOAD RETURNDATASIZE PUSH1 0x1F NOT PUSH1 0x1F DUP3 ADD AND DUP3 ADD DUP1 PUSH1 0x40 MSTORE POP DUP2 ADD SWAP1 PUSH2 0x7128 SWAP2 SWAP1 PUSH2 0xA5CB JUMP JUMPDEST DUP7 SWAP1 PUSH2 0x8C32 JUMP JUMPDEST SWAP1 PUSH2 0x8C84 JUMP JUMPDEST SWAP1 POP PUSH1 0x0 PUSH2 0x7143 DUP5 DUP4 PUSH2 0x8CAE JUMP JUMPDEST SWAP9 POP PUSH2 0x3AEB SWAP8 POP POP POP POP POP POP POP POP JUMP JUMPDEST DUP11 PUSH1 0x40 ADD MLOAD PUSH1 0x1 PUSH1 0x1 PUSH1 0xA0 SHL SUB AND DUP11 PUSH1 0x1 PUSH1 0x1 PUSH1 0xA0 SHL SUB AND EQ ISZERO PUSH2 0x7253 JUMPI DUP8 DUP5 DUP2 GT ISZERO PUSH2 0x7188 JUMPI PUSH1 0x0 SWAP6 POP POP POP POP POP POP PUSH2 0x3AEB JUMP JUMPDEST PUSH1 0x0 PUSH2 0x71A4 PUSH12 0x33B2E3C9FD0803CE8000000 PUSH2 0x7088 DUP9 DUP6 PUSH2 0x8CAE JUMP JUMPDEST SWAP1 POP DUP4 DUP2 GT PUSH2 0x71BC JUMPI PUSH1 0x0 SWAP7 POP POP POP POP POP POP POP PUSH2 0x3AEB JUMP JUMPDEST PUSH1 0x0 PUSH2 0x7241 DUP11 PUSH1 0x1 PUSH1 0x1 PUSH1 0xA0 SHL SUB AND PUSH4 0xFAE036D5 PUSH1 0x40 MLOAD DUP2 PUSH4 0xFFFFFFFF AND PUSH1 0xE0 SHL DUP2 MSTORE PUSH1 0x4 ADD PUSH1 0x20 PUSH1 0x40 MLOAD DUP1 DUP4 SUB DUP2 DUP7 DUP1 EXTCODESIZE ISZERO DUP1 ISZERO PUSH2 0x71FA JUMPI PUSH1 0x0 DUP1 REVERT JUMPDEST POP GAS STATICCALL ISZERO DUP1 ISZERO PUSH2 0x720E JUMPI RETURNDATASIZE PUSH1 0x0 DUP1 RETURNDATACOPY RETURNDATASIZE PUSH1 0x0 REVERT JUMPDEST POP POP POP POP PUSH1 0x40 MLOAD RETURNDATASIZE PUSH1 0x1F NOT PUSH1 0x1F DUP3 ADD AND DUP3 ADD DUP1 PUSH1 0x40 MSTORE POP DUP2 ADD SWAP1 PUSH2 0x7232 SWAP2 SWAP1 PUSH2 0xA5CB JUMP JUMPDEST PUSH8 0xDE0B6B3A7640000 SWAP1 PUSH2 0x8C68 JUMP JUMPDEST SWAP1 POP PUSH1 0x0 PUSH2 0x7143 DUP3 PUSH2 0x712F DUP7 DUP9 PUSH2 0x8C32 JUMP JUMPDEST POP PUSH1 0x0 SWAP11 SWAP10 POP POP POP POP POP POP POP POP POP POP JUMP JUMPDEST PUSH1 0x0 DUP1 PUSH2 0x726F PUSH2 0x9120 JUMP JUMPDEST DUP6 DUP1 PUSH1 0x20 ADD SWAP1 MLOAD DUP2 ADD SWAP1 PUSH2 0x7283 SWAP2 SWAP1 PUSH2 0xA730 JUMP JUMPDEST SWAP2 POP SWAP2 POP PUSH1 0x0 DUP6 DUP1 PUSH1 0x20 ADD SWAP1 MLOAD DUP2 ADD SWAP1 PUSH2 0x729D SWAP2 SWAP1 PUSH2 0xA712 JUMP JUMPDEST SWAP1 POP PUSH1 0x0 PUSH1 0x60 ADDRESS PUSH4 0x22DB5ED1 PUSH1 0xE2 SHL DUP6 DUP8 DUP7 PUSH2 0x72B8 DUP13 PUSH2 0x8CCD JUMP JUMPDEST PUSH1 0x40 MLOAD PUSH1 0x24 ADD PUSH2 0x72CB SWAP5 SWAP4 SWAP3 SWAP2 SWAP1 PUSH2 0xB8AC JUMP JUMPDEST PUSH1 0x40 DUP1 MLOAD PUSH1 0x1F NOT DUP2 DUP5 SUB ADD DUP2 MSTORE SWAP2 DUP2 MSTORE PUSH1 0x20 DUP3 ADD DUP1 MLOAD PUSH1 0x1 PUSH1 0x1 PUSH1 0xE0 SHL SUB AND PUSH1 0x1 PUSH1 0x1 PUSH1 0xE0 SHL SUB NOT SWAP1 SWAP5 AND SWAP4 SWAP1 SWAP4 OR SWAP1 SWAP3 MSTORE SWAP1 MLOAD PUSH2 0x7309 SWAP2 SWAP1 PUSH2 0xB2E1 JUMP JUMPDEST PUSH1 0x0 PUSH1 0x40 MLOAD DUP1 DUP4 SUB DUP2 DUP6 GAS STATICCALL SWAP2 POP POP RETURNDATASIZE DUP1 PUSH1 0x0 DUP2 EQ PUSH2 0x7344 JUMPI PUSH1 0x40 MLOAD SWAP2 POP PUSH1 0x1F NOT PUSH1 0x3F RETURNDATASIZE ADD AND DUP3 ADD PUSH1 0x40 MSTORE RETURNDATASIZE DUP3 MSTORE RETURNDATASIZE PUSH1 0x0 PUSH1 0x20 DUP5 ADD RETURNDATACOPY PUSH2 0x7349 JUMP JUMPDEST PUSH1 0x60 SWAP2 POP JUMPDEST POP SWAP2 POP SWAP2 POP DUP2 PUSH2 0x7361 JUMPI PUSH1 0x0 SWAP6 POP POP POP POP POP POP PUSH2 0x378F JUMP JUMPDEST DUP1 DUP1 PUSH1 0x20 ADD SWAP1 MLOAD DUP2 ADD SWAP1 PUSH2 0x7375 SWAP2 SWAP1 PUSH2 0xA579 JUMP JUMPDEST PUSH1 0x0 DUP2 MLOAD DUP2 LT PUSH2 0x7381 JUMPI INVALID JUMPDEST PUSH1 0x20 MUL PUSH1 0x20 ADD ADD MLOAD SWAP6 POP POP POP POP POP POP SWAP4 SWAP3 POP POP POP JUMP JUMPDEST PUSH1 0x60 DUP2 MLOAD PUSH1 0x1 PUSH1 0x1 PUSH1 0x40 SHL SUB DUP2 GT DUP1 ISZERO PUSH2 0x73B0 JUMPI PUSH1 0x0 DUP1 REVERT JUMPDEST POP PUSH1 0x40 MLOAD SWAP1 DUP1 DUP3 MSTORE DUP1 PUSH1 0x20 MUL PUSH1 0x20 ADD DUP3 ADD PUSH1 0x40 MSTORE DUP1 ISZERO PUSH2 0x73DA JUMPI DUP2 PUSH1 0x20 ADD PUSH1 0x20 DUP3 MUL DUP1 CALLDATASIZE DUP4 CALLDATACOPY ADD SWAP1 POP JUMPDEST POP SWAP1 POP DUP2 MLOAD PUSH1 0x0 EQ ISZERO PUSH2 0x73EC JUMPI PUSH2 0x6B0B JUMP JUMPDEST PUSH1 0x0 PUSH2 0x741D DUP5 PUSH1 0x0 ADD MLOAD DUP6 PUSH1 0x20 ADD MLOAD DUP6 PUSH1 0x0 DUP2 MLOAD DUP2 LT PUSH2 0x7408 JUMPI INVALID JUMPDEST PUSH1 0x20 MUL PUSH1 0x20 ADD ADD MLOAD DUP8 PUSH1 0x40 ADD MLOAD PUSH4 0xFFFFFFFF AND JUMP JUMPDEST SWAP1 POP DUP1 PUSH2 0x742A JUMPI POP PUSH2 0x6B0B JUMP JUMPDEST PUSH1 0x0 PUSH2 0x7447 DUP6 PUSH1 0x20 ADD MLOAD DUP7 PUSH1 0x0 ADD MLOAD DUP5 DUP9 PUSH1 0x40 ADD MLOAD PUSH4 0xFFFFFFFF AND JUMP JUMPDEST SWAP1 POP DUP1 PUSH2 0x7455 JUMPI POP POP PUSH2 0x6B0B JUMP JUMPDEST PUSH1 0x0 JUMPDEST DUP5 MLOAD DUP2 LT ISZERO PUSH2 0x75A0 JUMPI PUSH1 0x0 DUP1 JUMPDEST PUSH1 0x5 DUP2 LT ISZERO PUSH2 0x7549 JUMPI PUSH2 0x748C DUP8 DUP5 DUP2 MLOAD DUP2 LT PUSH2 0x747D JUMPI INVALID JUMPDEST PUSH1 0x20 MUL PUSH1 0x20 ADD ADD MLOAD DUP6 DUP8 PUSH2 0x8D0E JUMP JUMPDEST SWAP5 POP DUP5 PUSH2 0x7498 JUMPI PUSH2 0x7549 JUMP JUMPDEST PUSH2 0x74A7 PUSH2 0x2715 PUSH2 0x2710 DUP8 PUSH2 0x8D0E JUMP JUMPDEST SWAP5 POP DUP5 PUSH2 0x74B3 JUMPI PUSH2 0x7549 JUMP JUMPDEST PUSH1 0x0 PUSH2 0x74D0 DUP10 PUSH1 0x20 ADD MLOAD DUP11 PUSH1 0x0 ADD MLOAD DUP9 DUP13 PUSH1 0x40 ADD MLOAD PUSH4 0xFFFFFFFF AND JUMP JUMPDEST SWAP1 POP DUP1 PUSH2 0x74DD JUMPI POP PUSH2 0x7549 JUMP JUMPDEST DUP1 SWAP5 POP DUP8 DUP5 DUP2 MLOAD DUP2 LT PUSH2 0x74EC JUMPI INVALID JUMPDEST PUSH1 0x20 MUL PUSH1 0x20 ADD ADD MLOAD DUP6 LT PUSH2 0x7540 JUMPI DUP8 DUP5 DUP2 MLOAD DUP2 LT PUSH2 0x7506 JUMPI INVALID JUMPDEST PUSH1 0x20 MUL PUSH1 0x20 ADD ADD MLOAD PUSH2 0x2710 DUP10 DUP7 DUP2 MLOAD DUP2 LT PUSH2 0x751D JUMPI INVALID JUMPDEST PUSH1 0x20 MUL PUSH1 0x20 ADD ADD MLOAD DUP8 SUB MUL DUP2 PUSH2 0x752F JUMPI INVALID JUMPDEST DIV SWAP3 POP PUSH1 0x5 DUP4 GT PUSH2 0x7540 JUMPI POP PUSH2 0x7549 JUMP JUMPDEST POP PUSH1 0x1 ADD PUSH2 0x7465 JUMP JUMPDEST POP DUP1 ISZERO DUP1 PUSH2 0x7557 JUMPI POP PUSH1 0x5 DUP2 GT JUMPDEST ISZERO PUSH2 0x7562 JUMPI POP PUSH2 0x75A0 JUMP JUMPDEST PUSH2 0x7580 DUP7 DUP4 DUP2 MLOAD DUP2 LT PUSH2 0x7571 JUMPI INVALID JUMPDEST PUSH1 0x20 MUL PUSH1 0x20 ADD ADD MLOAD DUP5 DUP7 PUSH2 0x8D0E JUMP JUMPDEST DUP6 DUP4 DUP2 MLOAD DUP2 LT PUSH2 0x758C JUMPI INVALID JUMPDEST PUSH1 0x20 SWAP1 DUP2 MUL SWAP2 SWAP1 SWAP2 ADD ADD MSTORE POP PUSH1 0x1 ADD PUSH2 0x7458 JUMP JUMPDEST POP POP POP SWAP3 SWAP2 POP POP JUMP JUMPDEST PUSH1 0x0 DUP1 PUSH1 0x0 DUP1 PUSH1 0x0 DUP8 DUP1 PUSH1 0x20 ADD SWAP1 MLOAD DUP2 ADD SWAP1 PUSH2 0x75C5 SWAP2 SWAP1 PUSH2 0x9EFE JUMP JUMPDEST SWAP4 POP SWAP4 POP SWAP4 POP SWAP4 POP DUP2 PUSH1 0x1 PUSH1 0x1 PUSH1 0xA0 SHL SUB AND DUP5 PUSH1 0x1 PUSH1 0x1 PUSH1 0xA0 SHL SUB AND EQ ISZERO PUSH2 0x76AF JUMPI PUSH1 0x40 MLOAD PUSH4 0x51400F0B PUSH1 0xE1 SHL DUP2 MSTORE PUSH1 0x1 PUSH1 0x1 PUSH1 0xA0 SHL SUB DUP5 AND SWAP1 PUSH4 0xA2801E16 SWAP1 PUSH3 0x493E0 SWAP1 PUSH2 0x7618 SWAP1 DUP11 SWAP1 PUSH1 0x4 ADD PUSH2 0xB6F2 JUMP JUMPDEST PUSH1 0x20 PUSH1 0x40 MLOAD DUP1 DUP4 SUB DUP2 DUP8 DUP1 EXTCODESIZE ISZERO DUP1 ISZERO PUSH2 0x7630 JUMPI PUSH1 0x0 DUP1 REVERT JUMPDEST POP DUP7 STATICCALL SWAP4 POP POP POP POP DUP1 ISZERO PUSH2 0x7661 JUMPI POP PUSH1 0x40 DUP1 MLOAD PUSH1 0x1F RETURNDATASIZE SWAP1 DUP2 ADD PUSH1 0x1F NOT AND DUP3 ADD SWAP1 SWAP3 MSTORE PUSH2 0x765E SWAP2 DUP2 ADD SWAP1 PUSH2 0xA5CB JUMP JUMPDEST PUSH1 0x1 JUMPDEST PUSH2 0x76A3 JUMPI RETURNDATASIZE DUP1 DUP1 ISZERO PUSH2 0x768F JUMPI PUSH1 0x40 MLOAD SWAP2 POP PUSH1 0x1F NOT PUSH1 0x3F RETURNDATASIZE ADD AND DUP3 ADD PUSH1 0x40 MSTORE RETURNDATASIZE DUP3 MSTORE RETURNDATASIZE PUSH1 0x0 PUSH1 0x20 DUP5 ADD RETURNDATACOPY PUSH2 0x7694 JUMP JUMPDEST PUSH1 0x60 SWAP2 POP JUMPDEST POP PUSH1 0x0 SWAP6 POP POP POP POP POP POP PUSH2 0x378F JUMP JUMPDEST SWAP5 POP PUSH2 0x378F SWAP4 POP POP POP POP JUMP JUMPDEST PUSH1 0x40 MLOAD PUSH4 0xCA19EBD9 PUSH1 0xE0 SHL DUP2 MSTORE PUSH1 0x1 PUSH1 0x1 PUSH1 0xA0 SHL SUB DUP3 AND SWAP1 PUSH4 0xCA19EBD9 SWAP1 PUSH3 0x493E0 SWAP1 PUSH2 0x7618 SWAP1 DUP8 SWAP1 DUP12 SWAP1 PUSH1 0x4 ADD PUSH2 0xB61D JUMP JUMPDEST PUSH1 0x60 PUSH1 0x2 DUP3 DUP5 MLOAD SUB LT ISZERO PUSH2 0x7708 JUMPI PUSH1 0x40 MLOAD PUSH3 0x461BCD PUSH1 0xE5 SHL DUP2 MSTORE PUSH1 0x4 ADD PUSH2 0x6DA4 SWAP1 PUSH2 0xB87C JUMP JUMPDEST PUSH2 0x7710 PUSH2 0x9140 JUMP JUMPDEST POP PUSH1 0x40 DUP1 MLOAD PUSH1 0x80 DUP2 ADD DUP3 MSTORE PUSH1 0x64 DUP2 MSTORE PUSH2 0x1F4 PUSH1 0x20 DUP3 ADD MSTORE PUSH2 0xBB8 DUP2 DUP4 ADD MSTORE PUSH2 0x2710 PUSH1 0x60 DUP1 DUP4 ADD SWAP2 SWAP1 SWAP2 MSTORE DUP3 MLOAD PUSH1 0x4 DUP1 DUP3 MSTORE PUSH1 0xA0 DUP3 ADD SWAP1 SWAP5 MSTORE SWAP2 SWAP3 SWAP1 SWAP2 SWAP1 DUP2 PUSH1 0x20 ADD PUSH1 0x20 DUP3 MUL DUP1 CALLDATASIZE DUP4 CALLDATACOPY ADD SWAP1 POP POP SWAP1 POP PUSH1 0x0 DUP1 DUP7 DUP7 DUP2 MLOAD DUP2 LT PUSH2 0x776E JUMPI INVALID JUMPDEST PUSH1 0x20 MUL PUSH1 0x20 ADD ADD MLOAD SWAP1 POP PUSH1 0x0 DUP8 DUP8 PUSH1 0x1 ADD DUP2 MLOAD DUP2 LT PUSH2 0x7789 JUMPI INVALID JUMPDEST PUSH1 0x20 MUL PUSH1 0x20 ADD ADD MLOAD SWAP1 POP PUSH1 0x0 JUMPDEST PUSH1 0x4 DUP2 LT ISZERO PUSH2 0x787E JUMPI PUSH1 0x0 DUP11 PUSH1 0x1 PUSH1 0x1 PUSH1 0xA0 SHL SUB AND PUSH4 0x1698EE82 DUP6 DUP6 DUP11 DUP7 PUSH1 0x4 DUP2 LT PUSH2 0x77BE JUMPI INVALID JUMPDEST PUSH1 0x20 MUL ADD MLOAD PUSH1 0x40 MLOAD DUP5 PUSH4 0xFFFFFFFF AND PUSH1 0xE0 SHL DUP2 MSTORE PUSH1 0x4 ADD PUSH2 0x77E1 SWAP4 SWAP3 SWAP2 SWAP1 PUSH2 0xB742 JUMP JUMPDEST PUSH1 0x20 PUSH1 0x40 MLOAD DUP1 DUP4 SUB DUP2 DUP7 DUP1 EXTCODESIZE ISZERO DUP1 ISZERO PUSH2 0x77F9 JUMPI PUSH1 0x0 DUP1 REVERT JUMPDEST POP GAS STATICCALL ISZERO DUP1 ISZERO PUSH2 0x780D JUMPI RETURNDATASIZE PUSH1 0x0 DUP1 RETURNDATACOPY RETURNDATASIZE PUSH1 0x0 REVERT JUMPDEST POP POP POP POP PUSH1 0x40 MLOAD RETURNDATASIZE PUSH1 0x1F NOT PUSH1 0x1F DUP3 ADD AND DUP3 ADD DUP1 PUSH1 0x40 MSTORE POP DUP2 ADD SWAP1 PUSH2 0x7831 SWAP2 SWAP1 PUSH2 0xA6AB JUMP JUMPDEST SWAP1 POP PUSH2 0x783C DUP2 PUSH2 0x8D66 JUMP JUMPDEST ISZERO PUSH2 0x7875 JUMPI DUP1 DUP7 DUP7 DUP1 PUSH1 0x1 ADD SWAP8 POP DUP2 MLOAD DUP2 LT PUSH2 0x7854 JUMPI INVALID JUMPDEST PUSH1 0x20 MUL PUSH1 0x20 ADD ADD SWAP1 PUSH1 0x1 PUSH1 0x1 PUSH1 0xA0 SHL SUB AND SWAP1 DUP2 PUSH1 0x1 PUSH1 0x1 PUSH1 0xA0 SHL SUB AND DUP2 MSTORE POP POP JUMPDEST POP PUSH1 0x1 ADD PUSH2 0x7796 JUMP JUMPDEST POP POP POP DUP1 PUSH2 0x788E JUMPI POP POP POP PUSH2 0x378F JUMP JUMPDEST DUP6 MLOAD DUP6 PUSH1 0x2 ADD EQ ISZERO PUSH2 0x7984 JUMPI DUP1 PUSH1 0x1 PUSH1 0x1 PUSH1 0x40 SHL SUB DUP2 GT DUP1 ISZERO PUSH2 0x78B0 JUMPI PUSH1 0x0 DUP1 REVERT JUMPDEST POP PUSH1 0x40 MLOAD SWAP1 DUP1 DUP3 MSTORE DUP1 PUSH1 0x20 MUL PUSH1 0x20 ADD DUP3 ADD PUSH1 0x40 MSTORE DUP1 ISZERO PUSH2 0x78E4 JUMPI DUP2 PUSH1 0x20 ADD JUMPDEST PUSH1 0x60 DUP2 MSTORE PUSH1 0x20 ADD SWAP1 PUSH1 0x1 SWAP1 SUB SWAP1 DUP2 PUSH2 0x78CF JUMPI SWAP1 POP JUMPDEST POP SWAP4 POP PUSH1 0x0 JUMPDEST DUP2 DUP2 LT ISZERO PUSH2 0x797B JUMPI PUSH1 0x40 DUP1 MLOAD PUSH1 0x1 DUP1 DUP3 MSTORE DUP2 DUP4 ADD SWAP1 SWAP3 MSTORE SWAP1 PUSH1 0x20 DUP1 DUP4 ADD SWAP1 DUP1 CALLDATASIZE DUP4 CALLDATACOPY ADD SWAP1 POP POP DUP6 DUP3 DUP2 MLOAD DUP2 LT PUSH2 0x791C JUMPI INVALID JUMPDEST PUSH1 0x20 MUL PUSH1 0x20 ADD ADD DUP2 SWAP1 MSTORE POP DUP3 DUP2 DUP2 MLOAD DUP2 LT PUSH2 0x7933 JUMPI INVALID JUMPDEST PUSH1 0x20 MUL PUSH1 0x20 ADD ADD MLOAD DUP6 DUP3 DUP2 MLOAD DUP2 LT PUSH2 0x7947 JUMPI INVALID JUMPDEST PUSH1 0x20 MUL PUSH1 0x20 ADD ADD MLOAD PUSH1 0x0 DUP2 MLOAD DUP2 LT PUSH2 0x795B JUMPI INVALID JUMPDEST PUSH1 0x1 PUSH1 0x1 PUSH1 0xA0 SHL SUB SWAP1 SWAP3 AND PUSH1 0x20 SWAP3 DUP4 MUL SWAP2 SWAP1 SWAP2 ADD SWAP1 SWAP2 ADD MSTORE PUSH1 0x1 ADD PUSH2 0x78EA JUMP JUMPDEST POP POP POP POP PUSH2 0x378F JUMP JUMPDEST PUSH1 0x60 PUSH2 0x7994 DUP9 DUP9 DUP9 PUSH1 0x1 ADD PUSH2 0x76E2 JUMP JUMPDEST SWAP1 POP DUP1 MLOAD PUSH1 0x0 EQ ISZERO PUSH2 0x79A9 JUMPI POP POP POP POP PUSH2 0x378F JUMP JUMPDEST DUP1 MLOAD DUP3 MUL PUSH1 0x1 PUSH1 0x1 PUSH1 0x40 SHL SUB DUP2 GT DUP1 ISZERO PUSH2 0x79C2 JUMPI PUSH1 0x0 DUP1 REVERT JUMPDEST POP PUSH1 0x40 MLOAD SWAP1 DUP1 DUP3 MSTORE DUP1 PUSH1 0x20 MUL PUSH1 0x20 ADD DUP3 ADD PUSH1 0x40 MSTORE DUP1 ISZERO PUSH2 0x79F6 JUMPI DUP2 PUSH1 0x20 ADD JUMPDEST PUSH1 0x60 DUP2 MSTORE PUSH1 0x20 ADD SWAP1 PUSH1 0x1 SWAP1 SUB SWAP1 DUP2 PUSH2 0x79E1 JUMPI SWAP1 POP JUMPDEST POP SWAP5 POP PUSH1 0x0 JUMPDEST DUP3 DUP2 LT ISZERO PUSH2 0x7B76 JUMPI PUSH1 0x0 JUMPDEST DUP3 MLOAD DUP2 LT ISZERO PUSH2 0x7B6D JUMPI DUP3 MLOAD DUP3 DUP2 MUL DUP3 ADD SWAP1 DUP5 SWAP1 DUP4 SWAP1 DUP2 LT PUSH2 0x7A24 JUMPI INVALID JUMPDEST PUSH1 0x20 MUL PUSH1 0x20 ADD ADD MLOAD MLOAD PUSH1 0x1 ADD PUSH1 0x1 PUSH1 0x1 PUSH1 0x40 SHL SUB DUP2 GT DUP1 ISZERO PUSH2 0x7A45 JUMPI PUSH1 0x0 DUP1 REVERT JUMPDEST POP PUSH1 0x40 MLOAD SWAP1 DUP1 DUP3 MSTORE DUP1 PUSH1 0x20 MUL PUSH1 0x20 ADD DUP3 ADD PUSH1 0x40 MSTORE DUP1 ISZERO PUSH2 0x7A6F JUMPI DUP2 PUSH1 0x20 ADD PUSH1 0x20 DUP3 MUL DUP1 CALLDATASIZE DUP4 CALLDATACOPY ADD SWAP1 POP JUMPDEST POP DUP9 DUP3 DUP2 MLOAD DUP2 LT PUSH2 0x7A7C JUMPI INVALID JUMPDEST PUSH1 0x20 MUL PUSH1 0x20 ADD ADD DUP2 SWAP1 MSTORE POP DUP6 DUP4 DUP2 MLOAD DUP2 LT PUSH2 0x7A93 JUMPI INVALID JUMPDEST PUSH1 0x20 MUL PUSH1 0x20 ADD ADD MLOAD DUP9 DUP3 DUP2 MLOAD DUP2 LT PUSH2 0x7AA7 JUMPI INVALID JUMPDEST PUSH1 0x20 MUL PUSH1 0x20 ADD ADD MLOAD PUSH1 0x0 DUP2 MLOAD DUP2 LT PUSH2 0x7ABB JUMPI INVALID JUMPDEST PUSH1 0x20 MUL PUSH1 0x20 ADD ADD SWAP1 PUSH1 0x1 PUSH1 0x1 PUSH1 0xA0 SHL SUB AND SWAP1 DUP2 PUSH1 0x1 PUSH1 0x1 PUSH1 0xA0 SHL SUB AND DUP2 MSTORE POP POP PUSH1 0x0 JUMPDEST DUP5 DUP4 DUP2 MLOAD DUP2 LT PUSH2 0x7AEA JUMPI INVALID JUMPDEST PUSH1 0x20 MUL PUSH1 0x20 ADD ADD MLOAD MLOAD DUP2 LT ISZERO PUSH2 0x7B63 JUMPI DUP5 DUP4 DUP2 MLOAD DUP2 LT PUSH2 0x7B06 JUMPI INVALID JUMPDEST PUSH1 0x20 MUL PUSH1 0x20 ADD ADD MLOAD DUP2 DUP2 MLOAD DUP2 LT PUSH2 0x7B19 JUMPI INVALID JUMPDEST PUSH1 0x20 MUL PUSH1 0x20 ADD ADD MLOAD DUP10 DUP4 DUP2 MLOAD DUP2 LT PUSH2 0x7B2D JUMPI INVALID JUMPDEST PUSH1 0x20 MUL PUSH1 0x20 ADD ADD MLOAD DUP3 PUSH1 0x1 ADD DUP2 MLOAD DUP2 LT PUSH2 0x7B43 JUMPI INVALID JUMPDEST PUSH1 0x1 PUSH1 0x1 PUSH1 0xA0 SHL SUB SWAP1 SWAP3 AND PUSH1 0x20 SWAP3 DUP4 MUL SWAP2 SWAP1 SWAP2 ADD SWAP1 SWAP2 ADD MSTORE PUSH1 0x1 ADD PUSH2 0x7ADE JUMP JUMPDEST POP POP PUSH1 0x1 ADD PUSH2 0x7A07 JUMP JUMPDEST POP PUSH1 0x1 ADD PUSH2 0x79FC JUMP JUMPDEST POP POP POP POP POP SWAP4 SWAP3 POP POP POP JUMP JUMPDEST PUSH1 0x60 PUSH1 0x2 DUP4 MLOAD LT ISZERO DUP1 ISZERO PUSH2 0x7B9A JUMPI POP DUP2 MLOAD PUSH1 0x1 ADD DUP4 MLOAD EQ JUMPDEST PUSH2 0x7BB6 JUMPI PUSH1 0x40 MLOAD PUSH3 0x461BCD PUSH1 0xE5 SHL DUP2 MSTORE PUSH1 0x4 ADD PUSH2 0x6DA4 SWAP1 PUSH2 0xB89C JUMP JUMPDEST DUP2 MLOAD PUSH1 0x3 MUL DUP4 MLOAD PUSH1 0x14 MUL ADD PUSH1 0x1 PUSH1 0x1 PUSH1 0x40 SHL SUB DUP2 GT DUP1 ISZERO PUSH2 0x7BD6 JUMPI PUSH1 0x0 DUP1 REVERT JUMPDEST POP PUSH1 0x40 MLOAD SWAP1 DUP1 DUP3 MSTORE DUP1 PUSH1 0x1F ADD PUSH1 0x1F NOT AND PUSH1 0x20 ADD DUP3 ADD PUSH1 0x40 MSTORE DUP1 ISZERO PUSH2 0x7C01 JUMPI PUSH1 0x20 DUP3 ADD DUP2 DUP1 CALLDATASIZE DUP4 CALLDATACOPY ADD SWAP1 POP JUMPDEST POP SWAP1 POP PUSH1 0x20 DUP2 ADD PUSH1 0x0 JUMPDEST DUP5 MLOAD DUP2 LT ISZERO PUSH2 0x6B08 JUMPI DUP1 ISZERO PUSH2 0x7CB0 JUMPI PUSH1 0x0 DUP5 PUSH1 0x1 DUP4 SUB DUP2 MLOAD DUP2 LT PUSH2 0x7C2B JUMPI INVALID JUMPDEST PUSH1 0x20 MUL PUSH1 0x20 ADD ADD MLOAD PUSH1 0x1 PUSH1 0x1 PUSH1 0xA0 SHL SUB AND PUSH4 0xDDCA3F43 PUSH1 0x40 MLOAD DUP2 PUSH4 0xFFFFFFFF AND PUSH1 0xE0 SHL DUP2 MSTORE PUSH1 0x4 ADD PUSH1 0x20 PUSH1 0x40 MLOAD DUP1 DUP4 SUB DUP2 DUP7 DUP1 EXTCODESIZE ISZERO DUP1 ISZERO PUSH2 0x7C6B JUMPI PUSH1 0x0 DUP1 REVERT JUMPDEST POP GAS STATICCALL ISZERO DUP1 ISZERO PUSH2 0x7C7F JUMPI RETURNDATASIZE PUSH1 0x0 DUP1 RETURNDATACOPY RETURNDATASIZE PUSH1 0x0 REVERT JUMPDEST POP POP POP POP PUSH1 0x40 MLOAD RETURNDATASIZE PUSH1 0x1F NOT PUSH1 0x1F DUP3 ADD AND DUP3 ADD DUP1 PUSH1 0x40 MSTORE POP DUP2 ADD SWAP1 PUSH2 0x7CA3 SWAP2 SWAP1 PUSH2 0xAA22 JUMP JUMPDEST PUSH1 0xE8 SHL DUP4 MSTORE POP PUSH1 0x3 SWAP1 SWAP2 ADD SWAP1 JUMPDEST PUSH1 0x0 DUP6 DUP3 DUP2 MLOAD DUP2 LT PUSH2 0x7CBE JUMPI INVALID JUMPDEST PUSH1 0x20 SWAP1 DUP2 MUL SWAP2 SWAP1 SWAP2 ADD ADD MLOAD PUSH1 0x60 SHL DUP4 MSTORE POP PUSH1 0x14 SWAP1 SWAP2 ADD SWAP1 PUSH1 0x1 ADD PUSH2 0x7C0B JUMP JUMPDEST PUSH1 0x0 DUP3 DUP3 MUL DUP4 ISZERO DUP1 ISZERO SWAP1 PUSH2 0x7CFA JUMPI POP DUP3 DUP5 DUP3 DUP2 PUSH2 0x7CF6 JUMPI INVALID JUMPDEST DIV EQ ISZERO JUMPDEST ISZERO PUSH2 0x7D09 JUMPI PUSH1 0x0 SWAP2 POP POP PUSH2 0x6B0B JUMP JUMPDEST PUSH8 0x6F05B59D3B20000 DUP2 ADD DUP2 DUP2 LT ISZERO PUSH2 0x7D27 JUMPI PUSH1 0x0 SWAP3 POP POP POP PUSH2 0x6B0B JUMP JUMPDEST PUSH8 0xDE0B6B3A7640000 SWAP1 DIV SWAP5 SWAP4 POP POP POP POP JUMP JUMPDEST PUSH1 0x60 DUP2 MLOAD PUSH1 0x1 PUSH1 0x1 PUSH1 0x40 SHL SUB DUP2 GT DUP1 ISZERO PUSH2 0x7D53 JUMPI PUSH1 0x0 DUP1 REVERT JUMPDEST POP PUSH1 0x40 MLOAD SWAP1 DUP1 DUP3 MSTORE DUP1 PUSH1 0x20 MUL PUSH1 0x20 ADD DUP3 ADD PUSH1 0x40 MSTORE DUP1 ISZERO PUSH2 0x7D7D JUMPI DUP2 PUSH1 0x20 ADD PUSH1 0x20 DUP3 MUL DUP1 CALLDATASIZE DUP4 CALLDATACOPY ADD SWAP1 POP JUMPDEST POP SWAP1 POP PUSH1 0x0 JUMPDEST DUP3 MLOAD DUP2 LT ISZERO PUSH2 0x3671 JUMPI DUP3 PUSH1 0x1 DUP3 DUP6 MLOAD SUB SUB DUP2 MLOAD DUP2 LT PUSH2 0x7D9E JUMPI INVALID JUMPDEST PUSH1 0x20 MUL PUSH1 0x20 ADD ADD MLOAD DUP3 DUP3 DUP2 MLOAD DUP2 LT PUSH2 0x7DB2 JUMPI INVALID JUMPDEST PUSH1 0x1 PUSH1 0x1 PUSH1 0xA0 SHL SUB SWAP1 SWAP3 AND PUSH1 0x20 SWAP3 DUP4 MUL SWAP2 SWAP1 SWAP2 ADD SWAP1 SWAP2 ADD MSTORE PUSH1 0x1 ADD PUSH2 0x7D83 JUMP JUMPDEST PUSH1 0x60 DUP2 MLOAD PUSH1 0x1 PUSH1 0x1 PUSH1 0x40 SHL SUB DUP2 GT DUP1 ISZERO PUSH2 0x7DEB JUMPI PUSH1 0x0 DUP1 REVERT JUMPDEST POP PUSH1 0x40 MLOAD SWAP1 DUP1 DUP3 MSTORE DUP1 PUSH1 0x20 MUL PUSH1 0x20 ADD DUP3 ADD PUSH1 0x40 MSTORE DUP1 ISZERO PUSH2 0x7E15 JUMPI DUP2 PUSH1 0x20 ADD PUSH1 0x20 DUP3 MUL DUP1 CALLDATASIZE DUP4 CALLDATACOPY ADD SWAP1 POP JUMPDEST POP SWAP1 POP PUSH1 0x0 JUMPDEST DUP3 MLOAD DUP2 LT ISZERO PUSH2 0x3671 JUMPI DUP3 PUSH1 0x1 DUP3 DUP6 MLOAD SUB SUB DUP2 MLOAD DUP2 LT PUSH2 0x7E36 JUMPI INVALID JUMPDEST PUSH1 0x20 MUL PUSH1 0x20 ADD ADD MLOAD DUP3 DUP3 DUP2 MLOAD DUP2 LT PUSH2 0x7E4A JUMPI INVALID JUMPDEST PUSH1 0x1 PUSH1 0x1 PUSH1 0xA0 SHL SUB SWAP1 SWAP3 AND PUSH1 0x20 SWAP3 DUP4 MUL SWAP2 SWAP1 SWAP2 ADD SWAP1 SWAP2 ADD MSTORE PUSH1 0x1 ADD PUSH2 0x7E1B JUMP JUMPDEST PUSH1 0x0 DUP1 PUSH1 0x0 DUP6 DUP1 PUSH1 0x20 ADD SWAP1 MLOAD DUP2 ADD SWAP1 PUSH2 0x7E83 SWAP2 SWAP1 PUSH2 0x9EC4 JUMP JUMPDEST SWAP2 POP SWAP2 POP PUSH1 0x0 DUP6 DUP1 PUSH1 0x20 ADD SWAP1 MLOAD DUP2 ADD SWAP1 PUSH2 0x7E9D SWAP2 SWAP1 PUSH2 0x9EA6 JUMP JUMPDEST SWAP1 POP ADDRESS PUSH4 0xE8E4AF09 DUP4 DUP6 DUP5 PUSH2 0x7EB1 DUP11 PUSH2 0x8CCD JUMP JUMPDEST PUSH1 0x40 MLOAD DUP6 PUSH4 0xFFFFFFFF AND PUSH1 0xE0 SHL DUP2 MSTORE PUSH1 0x4 ADD PUSH2 0x7ED0 SWAP5 SWAP4 SWAP3 SWAP2 SWAP1 PUSH2 0xB366 JUMP JUMPDEST PUSH1 0x0 PUSH1 0x40 MLOAD DUP1 DUP4 SUB DUP2 DUP7 DUP1 EXTCODESIZE ISZERO DUP1 ISZERO PUSH2 0x7EE8 JUMPI PUSH1 0x0 DUP1 REVERT JUMPDEST POP GAS STATICCALL SWAP3 POP POP POP DUP1 ISZERO PUSH2 0x7F1D JUMPI POP PUSH1 0x40 MLOAD RETURNDATASIZE PUSH1 0x0 DUP3 RETURNDATACOPY PUSH1 0x1F RETURNDATASIZE SWAP1 DUP2 ADD PUSH1 0x1F NOT AND DUP3 ADD PUSH1 0x40 MSTORE PUSH2 0x7F1A SWAP2 SWAP1 DUP2 ADD SWAP1 PUSH2 0xA579 JUMP JUMPDEST PUSH1 0x1 JUMPDEST PUSH2 0x7F5E JUMPI RETURNDATASIZE DUP1 DUP1 ISZERO PUSH2 0x7F4B JUMPI PUSH1 0x40 MLOAD SWAP2 POP PUSH1 0x1F NOT PUSH1 0x3F RETURNDATASIZE ADD AND DUP3 ADD PUSH1 0x40 MSTORE RETURNDATASIZE DUP3 MSTORE RETURNDATASIZE PUSH1 0x0 PUSH1 0x20 DUP5 ADD RETURNDATACOPY PUSH2 0x7F50 JUMP JUMPDEST PUSH1 0x60 SWAP2 POP JUMPDEST POP PUSH1 0x0 SWAP5 POP POP POP POP POP PUSH2 0x378F JUMP JUMPDEST DUP1 PUSH1 0x0 DUP2 MLOAD DUP2 LT PUSH2 0x7F6B JUMPI INVALID JUMPDEST PUSH1 0x20 MUL PUSH1 0x20 ADD ADD MLOAD SWAP5 POP POP POP POP POP PUSH2 0x378F JUMP JUMPDEST PUSH1 0x0 PUSH2 0x19C8 DUP4 PUSH2 0x712F PUSH2 0x7F92 DUP3 PUSH1 0x1 PUSH2 0x8CAE JUMP JUMPDEST PUSH2 0x7F9C DUP9 DUP8 PUSH2 0x8C32 JUMP JUMPDEST SWAP1 PUSH2 0x8C68 JUMP JUMPDEST PUSH1 0x0 PUSH1 0x12 SWAP1 POP PUSH1 0x0 PUSH1 0x60 DUP4 PUSH1 0x1 PUSH1 0x1 PUSH1 0xA0 SHL SUB AND PUSH1 0x40 MLOAD DUP1 PUSH1 0x40 ADD PUSH1 0x40 MSTORE DUP1 PUSH1 0x4 DUP2 MSTORE PUSH1 0x20 ADD PUSH4 0x313CE567 PUSH1 0xE0 SHL DUP2 MSTORE POP PUSH1 0x40 MLOAD PUSH2 0x7FE0 SWAP2 SWAP1 PUSH2 0xB2E1 JUMP JUMPDEST PUSH1 0x0 PUSH1 0x40 MLOAD DUP1 DUP4 SUB DUP2 DUP6 GAS STATICCALL SWAP2 POP POP RETURNDATASIZE DUP1 PUSH1 0x0 DUP2 EQ PUSH2 0x801B JUMPI PUSH1 0x40 MLOAD SWAP2 POP PUSH1 0x1F NOT PUSH1 0x3F RETURNDATASIZE ADD AND DUP3 ADD PUSH1 0x40 MSTORE RETURNDATASIZE DUP3 MSTORE RETURNDATASIZE PUSH1 0x0 PUSH1 0x20 DUP5 ADD RETURNDATACOPY PUSH2 0x8020 JUMP JUMPDEST PUSH1 0x60 SWAP2 POP JUMPDEST POP SWAP2 POP SWAP2 POP DUP2 DUP1 ISZERO PUSH2 0x8034 JUMPI POP PUSH1 0x20 DUP2 MLOAD LT ISZERO JUMPDEST ISZERO PUSH2 0x8047 JUMPI PUSH2 0x8044 DUP2 PUSH1 0x0 PUSH2 0x8450 JUMP JUMPDEST SWAP3 POP JUMPDEST POP POP SWAP2 SWAP1 POP JUMP JUMPDEST PUSH1 0x0 DUP1 PUSH1 0x60 DUP6 DUP1 PUSH1 0x20 ADD SWAP1 MLOAD DUP2 ADD SWAP1 PUSH2 0x8067 SWAP2 SWAP1 PUSH2 0xA006 JUMP JUMPDEST SWAP1 SWAP3 POP SWAP1 POP PUSH1 0x0 PUSH1 0x60 ADDRESS PUSH4 0x7B6B3CA5 PUSH1 0xE1 SHL DUP6 DUP6 PUSH2 0x8084 DUP11 PUSH2 0x8CCD JUMP JUMPDEST PUSH1 0x40 MLOAD PUSH1 0x24 ADD PUSH2 0x8096 SWAP4 SWAP3 SWAP2 SWAP1 PUSH2 0xB50A JUMP JUMPDEST PUSH1 0x40 DUP1 MLOAD PUSH1 0x1F NOT DUP2 DUP5 SUB ADD DUP2 MSTORE SWAP2 DUP2 MSTORE PUSH1 0x20 DUP3 ADD DUP1 MLOAD PUSH1 0x1 PUSH1 0x1 PUSH1 0xE0 SHL SUB AND PUSH1 0x1 PUSH1 0x1 PUSH1 0xE0 SHL SUB NOT SWAP1 SWAP5 AND SWAP4 SWAP1 SWAP4 OR SWAP1 SWAP3 MSTORE SWAP1 MLOAD PUSH2 0x80D4 SWAP2 SWAP1 PUSH2 0xB2E1 JUMP JUMPDEST PUSH1 0x0 PUSH1 0x40 MLOAD DUP1 DUP4 SUB DUP2 DUP6 GAS STATICCALL SWAP2 POP POP RETURNDATASIZE DUP1 PUSH1 0x0 DUP2 EQ PUSH2 0x810F JUMPI PUSH1 0x40 MLOAD SWAP2 POP PUSH1 0x1F NOT PUSH1 0x3F RETURNDATASIZE ADD AND DUP3 ADD PUSH1 0x40 MSTORE RETURNDATASIZE DUP3 MSTORE RETURNDATASIZE PUSH1 0x0 PUSH1 0x20 DUP5 ADD RETURNDATACOPY PUSH2 0x8114 JUMP JUMPDEST PUSH1 0x60 SWAP2 POP JUMPDEST POP SWAP2 POP SWAP2 POP DUP2 PUSH2 0x812B JUMPI PUSH1 0x0 SWAP5 POP POP POP POP POP PUSH2 0x378F JUMP JUMPDEST DUP1 DUP1 PUSH1 0x20 ADD SWAP1 MLOAD DUP2 ADD SWAP1 PUSH2 0x813F SWAP2 SWAP1 PUSH2 0xA579 JUMP JUMPDEST PUSH1 0x0 DUP2 MLOAD DUP2 LT PUSH2 0x814B JUMPI INVALID JUMPDEST PUSH1 0x20 MUL PUSH1 0x20 ADD ADD MLOAD SWAP5 POP POP POP POP POP SWAP4 SWAP3 POP POP POP JUMP JUMPDEST PUSH1 0x0 DUP1 PUSH1 0x0 DUP1 DUP5 PUSH1 0x1 PUSH1 0x1 PUSH1 0xA0 SHL SUB AND PUSH4 0xD9638D36 DUP12 PUSH1 0x20 ADD MLOAD PUSH1 0x40 MLOAD DUP3 PUSH4 0xFFFFFFFF AND PUSH1 0xE0 SHL DUP2 MSTORE PUSH1 0x4 ADD PUSH2 0x8196 SWAP2 SWAP1 PUSH2 0xB6F2 JUMP JUMPDEST PUSH1 0xA0 PUSH1 0x40 MLOAD DUP1 DUP4 SUB DUP2 DUP7 DUP1 EXTCODESIZE ISZERO DUP1 ISZERO PUSH2 0x81AE JUMPI PUSH1 0x0 DUP1 REVERT JUMPDEST POP GAS STATICCALL ISZERO DUP1 ISZERO PUSH2 0x81C2 JUMPI RETURNDATASIZE PUSH1 0x0 DUP1 RETURNDATACOPY RETURNDATASIZE PUSH1 0x0 REVERT JUMPDEST POP POP POP POP PUSH1 0x40 MLOAD RETURNDATASIZE PUSH1 0x1F NOT PUSH1 0x1F DUP3 ADD AND DUP3 ADD DUP1 PUSH1 0x40 MSTORE POP DUP2 ADD SWAP1 PUSH2 0x81E6 SWAP2 SWAP1 PUSH2 0xAB37 JUMP JUMPDEST SWAP5 POP SWAP5 POP POP POP SWAP3 POP DUP10 PUSH1 0x40 ADD MLOAD PUSH1 0x1 PUSH1 0x1 PUSH1 0xA0 SHL SUB AND DUP9 PUSH1 0x1 PUSH1 0x1 PUSH1 0xA0 SHL SUB AND EQ ISZERO PUSH2 0x82FD JUMPI PUSH1 0x0 DUP8 SWAP1 POP PUSH1 0x0 PUSH2 0x8296 DUP9 PUSH1 0x1 PUSH1 0x1 PUSH1 0xA0 SHL SUB AND PUSH4 0x568D4B6F PUSH1 0x40 MLOAD DUP2 PUSH4 0xFFFFFFFF AND PUSH1 0xE0 SHL DUP2 MSTORE PUSH1 0x4 ADD PUSH1 0x20 PUSH1 0x40 MLOAD DUP1 DUP4 SUB DUP2 DUP7 DUP1 EXTCODESIZE ISZERO DUP1 ISZERO PUSH2 0x824F JUMPI PUSH1 0x0 DUP1 REVERT JUMPDEST POP GAS STATICCALL ISZERO DUP1 ISZERO PUSH2 0x8263 JUMPI RETURNDATASIZE PUSH1 0x0 DUP1 RETURNDATACOPY RETURNDATASIZE PUSH1 0x0 REVERT JUMPDEST POP POP POP POP PUSH1 0x40 MLOAD RETURNDATASIZE PUSH1 0x1F NOT PUSH1 0x1F DUP3 ADD AND DUP3 ADD DUP1 PUSH1 0x40 MSTORE POP DUP2 ADD SWAP1 PUSH2 0x8287 SWAP2 SWAP1 PUSH2 0xA5CB JUMP JUMPDEST PUSH8 0xDE0B6B3A7640000 SWAP1 PUSH2 0x8CAE JUMP JUMPDEST SWAP1 POP PUSH1 0x0 PUSH2 0x82B0 DUP3 PUSH2 0x712F DUP6 PUSH8 0xDE0B6B3A7640000 PUSH2 0x8C32 JUMP JUMPDEST SWAP1 POP PUSH1 0x0 PUSH2 0x82CE PUSH12 0x33B2E3C9FD0803CE8000000 PUSH2 0x7088 DUP10 DUP6 PUSH2 0x8C68 JUMP JUMPDEST SWAP1 POP DUP6 DUP2 LT PUSH2 0x82E7 JUMPI PUSH1 0x0 SWAP8 POP POP POP POP POP POP POP POP PUSH2 0x3AEB JUMP JUMPDEST PUSH1 0x0 PUSH2 0x7143 PUSH1 0x1 PUSH2 0x7F9C DUP6 PUSH5 0xE8D4A51000 PUSH2 0x8C84 JUMP JUMPDEST DUP10 PUSH1 0x40 ADD MLOAD PUSH1 0x1 PUSH1 0x1 PUSH1 0xA0 SHL SUB AND DUP10 PUSH1 0x1 PUSH1 0x1 PUSH1 0xA0 SHL SUB AND EQ ISZERO PUSH2 0x83E2 JUMPI PUSH1 0x0 PUSH2 0x832C DUP9 PUSH5 0xE8D4A51000 PUSH2 0x8C32 JUMP JUMPDEST SWAP1 POP PUSH1 0x0 PUSH2 0x836C DUP9 PUSH1 0x1 PUSH1 0x1 PUSH1 0xA0 SHL SUB AND PUSH4 0xFAE036D5 PUSH1 0x40 MLOAD DUP2 PUSH4 0xFFFFFFFF AND PUSH1 0xE0 SHL DUP2 MSTORE PUSH1 0x4 ADD PUSH1 0x20 PUSH1 0x40 MLOAD DUP1 DUP4 SUB DUP2 DUP7 DUP1 EXTCODESIZE ISZERO DUP1 ISZERO PUSH2 0x71FA JUMPI PUSH1 0x0 DUP1 REVERT JUMPDEST SWAP1 POP PUSH1 0x0 PUSH2 0x8386 PUSH8 0xDE0B6B3A7640000 PUSH2 0x712F DUP6 DUP6 PUSH2 0x8C32 JUMP JUMPDEST SWAP1 POP DUP6 DUP2 GT ISZERO PUSH2 0x839F JUMPI PUSH1 0x0 SWAP7 POP POP POP POP POP POP POP PUSH2 0x3AEB JUMP JUMPDEST PUSH1 0x0 PUSH2 0x83BB PUSH12 0x33B2E3C9FD0803CE8000000 PUSH2 0x7088 DUP10 DUP6 PUSH2 0x8CAE JUMP JUMPDEST SWAP1 POP DUP5 DUP2 GT PUSH2 0x83D4 JUMPI PUSH1 0x0 SWAP8 POP POP POP POP POP POP POP POP PUSH2 0x3AEB JUMP JUMPDEST POP SWAP6 POP PUSH2 0x3AEB SWAP5 POP POP POP POP POP JUMP JUMPDEST POP PUSH1 0x0 SWAP10 SWAP9 POP POP POP POP POP POP POP POP POP JUMP JUMPDEST PUSH1 0x0 DUP1 PUSH1 0x0 PUSH1 0x60 DUP7 DUP1 PUSH1 0x20 ADD SWAP1 MLOAD DUP2 ADD SWAP1 PUSH2 0x840D SWAP2 SWAP1 PUSH2 0x9F5F JUMP JUMPDEST SWAP2 SWAP5 POP SWAP3 POP SWAP1 POP PUSH1 0x0 PUSH1 0x60 ADDRESS PUSH4 0x4092E6B1 PUSH1 0xE0 SHL DUP7 DUP7 DUP7 PUSH2 0x842D DUP13 PUSH2 0x8CCD JUMP JUMPDEST PUSH1 0x40 MLOAD PUSH1 0x24 ADD PUSH2 0x72CB SWAP5 SWAP4 SWAP3 SWAP2 SWAP1 PUSH2 0xB3CD JUMP JUMPDEST PUSH2 0x844B DUP4 DUP4 DUP4 PUSH2 0x8F72 JUMP JUMPDEST POP POP POP JUMP JUMPDEST PUSH1 0x0 PUSH2 0x378F DUP4 DUP4 PUSH2 0x8F99 JUMP JUMPDEST PUSH1 0x0 DUP1 PUSH2 0x8467 PUSH2 0x9120 JUMP JUMPDEST DUP6 DUP1 PUSH1 0x20 ADD SWAP1 MLOAD DUP2 ADD SWAP1 PUSH2 0x847B SWAP2 SWAP1 PUSH2 0xA730 JUMP JUMPDEST SWAP2 POP SWAP2 POP PUSH1 0x0 DUP6 DUP1 PUSH1 0x20 ADD SWAP1 MLOAD DUP2 ADD SWAP1 PUSH2 0x8495 SWAP2 SWAP1 PUSH2 0xA712 JUMP JUMPDEST SWAP1 POP PUSH1 0x0 PUSH1 0x60 ADDRESS PUSH4 0x205E01D7 PUSH1 0xE1 SHL DUP6 DUP8 DUP7 PUSH2 0x72B8 DUP13 PUSH2 0x8CCD JUMP JUMPDEST PUSH1 0x0 DUP1 DUP5 PUSH1 0x20 ADD MLOAD SWAP1 POP PUSH1 0x60 DUP2 PUSH1 0x1 PUSH1 0x1 PUSH1 0xA0 SHL SUB AND PUSH4 0x910FFC71 DUP8 PUSH1 0x60 ADD MLOAD PUSH1 0x1 PUSH1 0x1 PUSH1 0xA0 SHL SUB AND DUP8 PUSH1 0x1 PUSH1 0x1 PUSH1 0xA0 SHL SUB AND EQ PUSH2 0x84EE JUMPI DUP7 PUSH2 0x8504 JUMP JUMPDEST PUSH20 0xEEEEEEEEEEEEEEEEEEEEEEEEEEEEEEEEEEEEEEEE JUMPDEST DUP9 PUSH1 0x60 ADD MLOAD PUSH1 0x1 PUSH1 0x1 PUSH1 0xA0 SHL SUB AND DUP8 PUSH1 0x1 PUSH1 0x1 PUSH1 0xA0 SHL SUB AND EQ PUSH2 0x8527 JUMPI DUP7 PUSH2 0x853D JUMP JUMPDEST PUSH20 0xEEEEEEEEEEEEEEEEEEEEEEEEEEEEEEEEEEEEEEEE JUMPDEST PUSH1 0x40 DUP1 MLOAD PUSH1 0x0 DUP2 MSTORE PUSH1 0x20 DUP2 ADD SWAP2 DUP3 SWAP1 MSTORE PUSH1 0x1 PUSH1 0x1 PUSH1 0xE0 SHL SUB NOT PUSH1 0xE0 DUP7 SWAP1 SHL AND SWAP1 SWAP2 MSTORE PUSH2 0x8571 SWAP3 SWAP2 SWAP1 PUSH1 0x1 SWAP1 PUSH1 0x24 DUP2 ADD PUSH2 0xB436 JUMP JUMPDEST PUSH1 0x0 PUSH1 0x40 MLOAD DUP1 DUP4 SUB DUP2 DUP7 DUP1 EXTCODESIZE ISZERO DUP1 ISZERO PUSH2 0x8589 JUMPI PUSH1 0x0 DUP1 REVERT JUMPDEST POP GAS STATICCALL ISZERO DUP1 ISZERO PUSH2 0x859D JUMPI RETURNDATASIZE PUSH1 0x0 DUP1 RETURNDATACOPY RETURNDATASIZE PUSH1 0x0 REVERT JUMPDEST POP POP POP POP PUSH1 0x40 MLOAD RETURNDATASIZE PUSH1 0x0 DUP3 RETURNDATACOPY PUSH1 0x1F RETURNDATASIZE SWAP1 DUP2 ADD PUSH1 0x1F NOT AND DUP3 ADD PUSH1 0x40 MSTORE PUSH2 0x85C5 SWAP2 SWAP1 DUP2 ADD SWAP1 PUSH2 0xA2E1 JUMP JUMPDEST POP POP SWAP1 POP DUP1 MLOAD DUP7 PUSH1 0x0 ADD MLOAD LT PUSH2 0x85E1 JUMPI POP PUSH1 0x0 SWAP2 POP PUSH2 0x378F SWAP1 POP JUMP JUMPDEST DUP1 DUP7 PUSH1 0x0 ADD MLOAD DUP2 MLOAD DUP2 LT PUSH2 0x85F1 JUMPI INVALID JUMPDEST PUSH1 0x20 MUL PUSH1 0x20 ADD ADD MLOAD SWAP3 POP PUSH1 0xF8 DUP4 SWAP1 SHR PUSH1 0x0 SHR PUSH1 0xBB EQ ISZERO PUSH2 0x200B JUMPI POP PUSH1 0x0 SWAP2 POP PUSH2 0x378F SWAP1 POP JUMP JUMPDEST PUSH1 0x0 DUP1 PUSH2 0x8622 PUSH2 0x915E JUMP JUMPDEST DUP5 DUP1 PUSH1 0x20 ADD SWAP1 MLOAD DUP2 ADD SWAP1 PUSH2 0x8636 SWAP2 SWAP1 PUSH2 0xA04D JUMP JUMPDEST SWAP2 POP SWAP2 POP PUSH1 0x0 DUP7 DUP1 PUSH1 0x20 ADD SWAP1 MLOAD DUP2 ADD SWAP1 PUSH2 0x8650 SWAP2 SWAP1 PUSH2 0xA04D JUMP JUMPDEST POP PUSH1 0x40 MLOAD PUSH4 0x3C7B5FE9 PUSH1 0xE2 SHL DUP2 MSTORE SWAP1 SWAP2 POP ADDRESS SWAP1 PUSH4 0xF1ED7FA4 SWAP1 PUSH2 0x867D SWAP1 DUP6 SWAP1 DUP6 SWAP1 DUP9 SWAP1 DUP12 SWAP1 PUSH1 0x4 ADD PUSH2 0xB91A JUMP JUMPDEST PUSH1 0x20 PUSH1 0x40 MLOAD DUP1 DUP4 SUB DUP2 DUP7 DUP1 EXTCODESIZE ISZERO DUP1 ISZERO PUSH2 0x8695 JUMPI PUSH1 0x0 DUP1 REVERT JUMPDEST POP GAS STATICCALL SWAP3 POP POP POP DUP1 ISZERO PUSH2 0x86C5 JUMPI POP PUSH1 0x40 DUP1 MLOAD PUSH1 0x1F RETURNDATASIZE SWAP1 DUP2 ADD PUSH1 0x1F NOT AND DUP3 ADD SWAP1 SWAP3 MSTORE PUSH2 0x86C2 SWAP2 DUP2 ADD SWAP1 PUSH2 0xA5CB JUMP JUMPDEST PUSH1 0x1 JUMPDEST PUSH2 0x86F3 JUMPI RETURNDATASIZE DUP1 DUP1 ISZERO PUSH2 0x7F4B JUMPI PUSH1 0x40 MLOAD SWAP2 POP PUSH1 0x1F NOT PUSH1 0x3F RETURNDATASIZE ADD AND DUP3 ADD PUSH1 0x40 MSTORE RETURNDATASIZE DUP3 MSTORE RETURNDATASIZE PUSH1 0x0 PUSH1 0x20 DUP5 ADD RETURNDATACOPY PUSH2 0x7F50 JUMP JUMPDEST SWAP4 POP PUSH2 0x378F SWAP3 POP POP POP JUMP JUMPDEST PUSH1 0x0 DUP1 PUSH1 0x60 DUP7 PUSH1 0x1 PUSH1 0x1 PUSH1 0xA0 SHL SUB AND PUSH4 0x57A281DC DUP7 DUP7 PUSH1 0x40 MLOAD DUP4 PUSH4 0xFFFFFFFF AND PUSH1 0xE0 SHL DUP2 MSTORE PUSH1 0x4 ADD PUSH2 0x8731 SWAP3 SWAP2 SWAP1 PUSH2 0xB316 JUMP JUMPDEST PUSH1 0x0 PUSH1 0x40 MLOAD DUP1 DUP4 SUB DUP2 DUP7 DUP1 EXTCODESIZE ISZERO DUP1 ISZERO PUSH2 0x8749 JUMPI PUSH1 0x0 DUP1 REVERT JUMPDEST POP GAS STATICCALL ISZERO DUP1 ISZERO PUSH2 0x875D JUMPI RETURNDATASIZE PUSH1 0x0 DUP1 RETURNDATACOPY RETURNDATASIZE PUSH1 0x0 REVERT JUMPDEST POP POP POP POP PUSH1 0x40 MLOAD RETURNDATASIZE PUSH1 0x0 DUP3 RETURNDATACOPY PUSH1 0x1F RETURNDATASIZE SWAP1 DUP2 ADD PUSH1 0x1F NOT AND DUP3 ADD PUSH1 0x40 MSTORE PUSH2 0x8785 SWAP2 SWAP1 DUP2 ADD SWAP1 PUSH2 0xA2AD JUMP JUMPDEST SWAP1 POP PUSH1 0x1 SWAP2 POP DUP1 MLOAD PUSH1 0x0 EQ ISZERO PUSH2 0x881E JUMPI PUSH1 0x40 MLOAD PUSH4 0x15E8A077 PUSH1 0xE2 SHL DUP2 MSTORE PUSH1 0x1 PUSH1 0x1 PUSH1 0xA0 SHL SUB DUP9 AND SWAP1 PUSH4 0x57A281DC SWAP1 PUSH2 0x87C3 SWAP1 DUP8 SWAP1 DUP10 SWAP1 PUSH1 0x4 ADD PUSH2 0xB316 JUMP JUMPDEST PUSH1 0x0 PUSH1 0x40 MLOAD DUP1 DUP4 SUB DUP2 DUP7 DUP1 EXTCODESIZE ISZERO DUP1 ISZERO PUSH2 0x87DB JUMPI PUSH1 0x0 DUP1 REVERT JUMPDEST POP GAS STATICCALL ISZERO DUP1 ISZERO PUSH2 0x87EF JUMPI RETURNDATASIZE PUSH1 0x0 DUP1 RETURNDATACOPY RETURNDATASIZE PUSH1 0x0 REVERT JUMPDEST POP POP POP POP PUSH1 0x40 MLOAD RETURNDATASIZE PUSH1 0x0 DUP3 RETURNDATACOPY PUSH1 0x1F RETURNDATASIZE SWAP1 DUP2 ADD PUSH1 0x1F NOT AND DUP3 ADD PUSH1 0x40 MSTORE PUSH2 0x8817 SWAP2 SWAP1 DUP2 ADD SWAP1 PUSH2 0xA2AD JUMP JUMPDEST SWAP1 POP PUSH1 0x0 SWAP2 POP JUMPDEST DUP1 MLOAD DUP7 LT PUSH2 0x8833 JUMPI PUSH1 0x0 DUP1 SWAP3 POP SWAP3 POP POP PUSH2 0x6D3A JUMP JUMPDEST DUP1 DUP7 DUP2 MLOAD DUP2 LT PUSH2 0x883F JUMPI INVALID JUMPDEST PUSH1 0x20 MUL PUSH1 0x20 ADD ADD MLOAD SWAP3 POP POP SWAP5 POP SWAP5 SWAP3 POP POP POP JUMP JUMPDEST PUSH1 0x0 DUP1 PUSH1 0x0 DUP1 DUP7 DUP1 PUSH1 0x20 ADD SWAP1 MLOAD DUP2 ADD SWAP1 PUSH2 0x886D SWAP2 SWAP1 PUSH2 0x9FC3 JUMP JUMPDEST SWAP3 POP SWAP3 POP SWAP3 POP DUP1 ISZERO PUSH2 0x8911 JUMPI PUSH1 0x40 MLOAD PUSH4 0x3CD0243B PUSH1 0xE1 SHL DUP2 MSTORE PUSH1 0x1 PUSH1 0x1 PUSH1 0xA0 SHL SUB DUP4 AND SWAP1 PUSH4 0x79A04876 SWAP1 PUSH3 0x493E0 SWAP1 PUSH2 0x88AD SWAP1 PUSH1 0x0 SWAP1 DUP11 SWAP1 PUSH1 0x4 ADD PUSH2 0xB2FB JUMP JUMPDEST PUSH1 0x40 DUP1 MLOAD DUP1 DUP4 SUB DUP2 DUP8 DUP1 EXTCODESIZE ISZERO DUP1 ISZERO PUSH2 0x88C4 JUMPI PUSH1 0x0 DUP1 REVERT JUMPDEST POP DUP7 STATICCALL SWAP4 POP POP POP POP DUP1 ISZERO PUSH2 0x88F5 JUMPI POP PUSH1 0x40 DUP1 MLOAD PUSH1 0x1F RETURNDATASIZE SWAP1 DUP2 ADD PUSH1 0x1F NOT AND DUP3 ADD SWAP1 SWAP3 MSTORE PUSH2 0x88F2 SWAP2 DUP2 ADD SWAP1 PUSH2 0xAAC3 JUMP JUMPDEST PUSH1 0x1 JUMPDEST PUSH2 0x8905 JUMPI PUSH1 0x0 SWAP4 POP POP POP POP PUSH2 0x378F JUMP JUMPDEST POP SWAP4 POP PUSH2 0x378F SWAP3 POP POP POP JUMP JUMPDEST PUSH1 0x40 MLOAD PUSH4 0x66410A21 PUSH1 0xE0 SHL DUP2 MSTORE PUSH1 0x1 PUSH1 0x1 PUSH1 0xA0 SHL SUB DUP4 AND SWAP1 PUSH4 0x66410A21 SWAP1 PUSH3 0x493E0 SWAP1 PUSH2 0x88AD SWAP1 PUSH1 0x0 SWAP1 DUP11 SWAP1 PUSH1 0x4 ADD PUSH2 0xB2FB JUMP JUMPDEST PUSH1 0x0 DUP1 PUSH1 0x0 DUP6 DUP1 PUSH1 0x20 ADD SWAP1 MLOAD DUP2 ADD SWAP1 PUSH2 0x895E SWAP2 SWAP1 PUSH2 0x9EC4 JUMP JUMPDEST SWAP2 POP SWAP2 POP PUSH1 0x0 DUP6 DUP1 PUSH1 0x20 ADD SWAP1 MLOAD DUP2 ADD SWAP1 PUSH2 0x8978 SWAP2 SWAP1 PUSH2 0x9EA6 JUMP JUMPDEST SWAP1 POP ADDRESS PUSH4 0x30D6570D DUP4 DUP6 DUP5 PUSH2 0x7EB1 DUP11 PUSH2 0x8CCD JUMP JUMPDEST PUSH1 0x0 DUP1 PUSH1 0x60 DUP5 PUSH1 0x1 PUSH1 0x1 PUSH1 0xA0 SHL SUB AND PUSH4 0x70A08231 PUSH1 0xE0 SHL DUP6 PUSH1 0x40 MLOAD PUSH1 0x24 ADD PUSH2 0x89B4 SWAP2 SWAP1 PUSH2 0xB2ED JUMP JUMPDEST PUSH1 0x40 DUP1 MLOAD PUSH1 0x1F NOT DUP2 DUP5 SUB ADD DUP2 MSTORE SWAP2 DUP2 MSTORE PUSH1 0x20 DUP3 ADD DUP1 MLOAD PUSH1 0x1 PUSH1 0x1 PUSH1 0xE0 SHL SUB AND PUSH1 0x1 PUSH1 0x1 PUSH1 0xE0 SHL SUB NOT SWAP1 SWAP5 AND SWAP4 SWAP1 SWAP4 OR SWAP1 SWAP3 MSTORE SWAP1 MLOAD PUSH2 0x89F2 SWAP2 SWAP1 PUSH2 0xB2E1 JUMP JUMPDEST PUSH1 0x0 PUSH1 0x40 MLOAD DUP1 DUP4 SUB DUP2 DUP6 GAS STATICCALL SWAP2 POP POP RETURNDATASIZE DUP1 PUSH1 0x0 DUP2 EQ PUSH2 0x8A2D JUMPI PUSH1 0x40 MLOAD SWAP2 POP PUSH1 0x1F NOT PUSH1 0x3F RETURNDATASIZE ADD AND DUP3 ADD PUSH1 0x40 MSTORE RETURNDATASIZE DUP3 MSTORE RETURNDATASIZE PUSH1 0x0 PUSH1 0x20 DUP5 ADD RETURNDATACOPY PUSH2 0x8A32 JUMP JUMPDEST PUSH1 0x60 SWAP2 POP JUMPDEST POP SWAP2 POP SWAP2 POP DUP2 DUP1 ISZERO PUSH2 0x8A46 JUMPI POP PUSH1 0x20 DUP2 MLOAD LT ISZERO JUMPDEST ISZERO PUSH2 0x6B08 JUMPI PUSH2 0x1A36 DUP2 PUSH1 0x0 PUSH2 0x8450 JUMP JUMPDEST PUSH1 0x0 DUP1 PUSH1 0x0 DUP6 DUP1 PUSH1 0x20 ADD SWAP1 MLOAD DUP2 ADD SWAP1 PUSH2 0x8A6F SWAP2 SWAP1 PUSH2 0x9EC4 JUMP JUMPDEST SWAP2 POP SWAP2 POP PUSH1 0x0 DUP6 DUP1 PUSH1 0x20 ADD SWAP1 MLOAD DUP2 ADD SWAP1 PUSH2 0x8A89 SWAP2 SWAP1 PUSH2 0x9EA6 JUMP JUMPDEST SWAP1 POP ADDRESS PUSH4 0xA4698417 PUSH3 0x61A80 DUP5 DUP7 DUP6 PUSH2 0x8AA1 DUP12 PUSH2 0x8CCD JUMP JUMPDEST PUSH1 0x40 MLOAD DUP7 PUSH4 0xFFFFFFFF AND PUSH1 0xE0 SHL DUP2 MSTORE PUSH1 0x4 ADD PUSH2 0x8AC0 SWAP5 SWAP4 SWAP3 SWAP2 SWAP1 PUSH2 0xB366 JUMP JUMPDEST PUSH1 0x0 PUSH1 0x40 MLOAD DUP1 DUP4 SUB DUP2 DUP8 DUP1 EXTCODESIZE ISZERO DUP1 ISZERO PUSH2 0x8AD8 JUMPI PUSH1 0x0 DUP1 REVERT JUMPDEST POP DUP7 STATICCALL SWAP4 POP POP POP POP DUP1 ISZERO PUSH2 0x7F1D JUMPI POP PUSH1 0x40 MLOAD RETURNDATASIZE PUSH1 0x0 DUP3 RETURNDATACOPY PUSH1 0x1F RETURNDATASIZE SWAP1 DUP2 ADD PUSH1 0x1F NOT AND DUP3 ADD PUSH1 0x40 MSTORE PUSH2 0x7F1A SWAP2 SWAP1 DUP2 ADD SWAP1 PUSH2 0xA579 JUMP JUMPDEST PUSH1 0x0 DUP1 PUSH1 0x60 DUP6 PUSH1 0x1 PUSH1 0x1 PUSH1 0xA0 SHL SUB AND PUSH4 0xDD62ED3E PUSH1 0xE0 SHL DUP7 DUP7 PUSH1 0x40 MLOAD PUSH1 0x24 ADD PUSH2 0x8B35 SWAP3 SWAP2 SWAP1 PUSH2 0xB316 JUMP JUMPDEST PUSH1 0x40 DUP1 MLOAD PUSH1 0x1F NOT DUP2 DUP5 SUB ADD DUP2 MSTORE SWAP2 DUP2 MSTORE PUSH1 0x20 DUP3 ADD DUP1 MLOAD PUSH1 0x1 PUSH1 0x1 PUSH1 0xE0 SHL SUB AND PUSH1 0x1 PUSH1 0x1 PUSH1 0xE0 SHL SUB NOT SWAP1 SWAP5 AND SWAP4 SWAP1 SWAP4 OR SWAP1 SWAP3 MSTORE SWAP1 MLOAD PUSH2 0x8B73 SWAP2 SWAP1 PUSH2 0xB2E1 JUMP JUMPDEST PUSH1 0x0 PUSH1 0x40 MLOAD DUP1 DUP4 SUB DUP2 DUP6 GAS STATICCALL SWAP2 POP POP RETURNDATASIZE DUP1 PUSH1 0x0 DUP2 EQ PUSH2 0x8BAE JUMPI PUSH1 0x40 MLOAD SWAP2 POP PUSH1 0x1F NOT PUSH1 0x3F RETURNDATASIZE ADD AND DUP3 ADD PUSH1 0x40 MSTORE RETURNDATASIZE DUP3 MSTORE RETURNDATASIZE PUSH1 0x0 PUSH1 0x20 DUP5 ADD RETURNDATACOPY PUSH2 0x8BB3 JUMP JUMPDEST PUSH1 0x60 SWAP2 POP JUMPDEST POP SWAP2 POP SWAP2 POP DUP2 DUP1 ISZERO PUSH2 0x8BC7 JUMPI POP PUSH1 0x20 DUP2 MLOAD LT ISZERO JUMPDEST ISZERO PUSH2 0x200B JUMPI PUSH2 0x3AEB DUP2 PUSH1 0x0 PUSH2 0x8450 JUMP JUMPDEST PUSH1 0x0 PUSH2 0x6B0B DUP3 PUSH2 0x7FA2 JUMP JUMPDEST PUSH1 0x0 DUP1 PUSH1 0x0 DUP6 DUP1 PUSH1 0x20 ADD SWAP1 MLOAD DUP2 ADD SWAP1 PUSH2 0x8BFB SWAP2 SWAP1 PUSH2 0x9EC4 JUMP JUMPDEST SWAP2 POP SWAP2 POP PUSH1 0x0 DUP1 DUP7 DUP1 PUSH1 0x20 ADD SWAP1 MLOAD DUP2 ADD SWAP1 PUSH2 0x8C16 SWAP2 SWAP1 PUSH2 0x9EC4 JUMP JUMPDEST SWAP2 POP SWAP2 POP PUSH2 0x8C26 DUP5 DUP5 DUP4 DUP10 PUSH2 0x4A12 JUMP JUMPDEST SWAP9 SWAP8 POP POP POP POP POP POP POP POP JUMP JUMPDEST PUSH1 0x0 DUP3 PUSH2 0x8C41 JUMPI POP PUSH1 0x0 PUSH2 0x6B0B JUMP JUMPDEST DUP3 DUP3 MUL DUP3 DUP5 DUP3 DUP2 PUSH2 0x8C4E JUMPI INVALID JUMPDEST DIV EQ PUSH2 0x378F JUMPI PUSH2 0x378F PUSH2 0x8C63 PUSH1 0x1 DUP7 DUP7 PUSH2 0x8FC3 JUMP JUMPDEST PUSH2 0x901D JUMP JUMPDEST PUSH1 0x0 DUP3 DUP3 ADD DUP4 DUP2 LT ISZERO PUSH2 0x378F JUMPI PUSH2 0x378F PUSH2 0x8C63 PUSH1 0x0 DUP7 DUP7 PUSH2 0x8FC3 JUMP JUMPDEST PUSH1 0x0 DUP2 PUSH2 0x8C9A JUMPI PUSH2 0x8C9A PUSH2 0x8C63 PUSH1 0x3 DUP6 DUP6 PUSH2 0x8FC3 JUMP JUMPDEST PUSH1 0x0 DUP3 DUP5 DUP2 PUSH2 0x8CA5 JUMPI INVALID JUMPDEST DIV SWAP5 SWAP4 POP POP POP POP JUMP JUMPDEST PUSH1 0x0 DUP3 DUP3 GT ISZERO PUSH2 0x8CC7 JUMPI PUSH2 0x8CC7 PUSH2 0x8C63 PUSH1 0x2 DUP6 DUP6 PUSH2 0x8FC3 JUMP JUMPDEST POP SWAP1 SUB SWAP1 JUMP JUMPDEST PUSH1 0x40 DUP1 MLOAD PUSH1 0x1 DUP1 DUP3 MSTORE DUP2 DUP4 ADD SWAP1 SWAP3 MSTORE PUSH1 0x60 SWAP2 PUSH1 0x20 DUP1 DUP4 ADD SWAP1 DUP1 CALLDATASIZE DUP4 CALLDATACOPY ADD SWAP1 POP POP SWAP1 POP DUP2 DUP2 PUSH1 0x0 DUP2 MLOAD DUP2 LT PUSH2 0x8CFD JUMPI INVALID JUMPDEST PUSH1 0x20 MUL PUSH1 0x20 ADD ADD DUP2 DUP2 MSTORE POP POP SWAP2 SWAP1 POP JUMP JUMPDEST PUSH1 0x0 DUP4 ISZERO DUP1 PUSH2 0x8D1B JUMPI POP DUP2 ISZERO JUMPDEST DUP1 PUSH2 0x8D24 JUMPI POP DUP3 ISZERO JUMPDEST ISZERO PUSH2 0x8D31 JUMPI POP PUSH1 0x0 PUSH2 0x378F JUMP JUMPDEST DUP4 DUP3 MUL DUP3 DUP6 DUP3 DUP2 PUSH2 0x8D3E JUMPI INVALID JUMPDEST DIV EQ PUSH2 0x8D4E JUMPI PUSH1 0x0 SWAP2 POP POP PUSH2 0x378F JUMP JUMPDEST DUP4 PUSH1 0x1 DUP6 SUB DUP3 ADD DUP2 PUSH2 0x8D5C JUMPI INVALID JUMPDEST DIV SWAP6 SWAP5 POP POP POP POP POP JUMP JUMPDEST PUSH1 0x0 DUP2 EXTCODESIZE DUP1 PUSH2 0x8D79 JUMPI PUSH1 0x0 SWAP2 POP POP PUSH2 0x1217 JUMP JUMPDEST POP DUP2 PUSH1 0x1 PUSH1 0x1 PUSH1 0xA0 SHL SUB AND PUSH4 0xDFE1681 PUSH1 0x40 MLOAD DUP2 PUSH4 0xFFFFFFFF AND PUSH1 0xE0 SHL DUP2 MSTORE PUSH1 0x4 ADD PUSH1 0x20 PUSH1 0x40 MLOAD DUP1 DUP4 SUB DUP2 DUP7 DUP1 EXTCODESIZE ISZERO DUP1 ISZERO PUSH2 0x8DB3 JUMPI PUSH1 0x0 DUP1 REVERT JUMPDEST POP GAS STATICCALL ISZERO DUP1 ISZERO PUSH2 0x8DC7 JUMPI RETURNDATASIZE PUSH1 0x0 DUP1 RETURNDATACOPY RETURNDATASIZE PUSH1 0x0 REVERT JUMPDEST POP POP POP POP PUSH1 0x40 MLOAD RETURNDATASIZE PUSH1 0x1F NOT PUSH1 0x1F DUP3 ADD AND DUP3 ADD DUP1 PUSH1 0x40 MSTORE POP DUP2 ADD SWAP1 PUSH2 0x8DEB SWAP2 SWAP1 PUSH2 0xA6AB JUMP JUMPDEST PUSH1 0x1 PUSH1 0x1 PUSH1 0xA0 SHL SUB AND PUSH4 0x70A08231 DUP4 PUSH1 0x40 MLOAD DUP3 PUSH4 0xFFFFFFFF AND PUSH1 0xE0 SHL DUP2 MSTORE PUSH1 0x4 ADD PUSH2 0x8E16 SWAP2 SWAP1 PUSH2 0xB2ED JUMP JUMPDEST PUSH1 0x20 PUSH1 0x40 MLOAD DUP1 DUP4 SUB DUP2 DUP7 DUP1 EXTCODESIZE ISZERO DUP1 ISZERO PUSH2 0x8E2E JUMPI PUSH1 0x0 DUP1 REVERT JUMPDEST POP GAS STATICCALL ISZERO DUP1 ISZERO PUSH2 0x8E42 JUMPI RETURNDATASIZE PUSH1 0x0 DUP1 RETURNDATACOPY RETURNDATASIZE PUSH1 0x0 REVERT JUMPDEST POP POP POP POP PUSH1 0x40 MLOAD RETURNDATASIZE PUSH1 0x1F NOT PUSH1 0x1F DUP3 ADD AND DUP3 ADD DUP1 PUSH1 0x40 MSTORE POP DUP2 ADD SWAP1 PUSH2 0x8E66 SWAP2 SWAP1 PUSH2 0xA5CB JUMP JUMPDEST PUSH2 0x8E72 JUMPI POP PUSH1 0x0 PUSH2 0x1217 JUMP JUMPDEST DUP2 PUSH1 0x1 PUSH1 0x1 PUSH1 0xA0 SHL SUB AND PUSH4 0xD21220A7 PUSH1 0x40 MLOAD DUP2 PUSH4 0xFFFFFFFF AND PUSH1 0xE0 SHL DUP2 MSTORE PUSH1 0x4 ADD PUSH1 0x20 PUSH1 0x40 MLOAD DUP1 DUP4 SUB DUP2 DUP7 DUP1 EXTCODESIZE ISZERO DUP1 ISZERO PUSH2 0x8EAB JUMPI PUSH1 0x0 DUP1 REVERT JUMPDEST POP GAS STATICCALL ISZERO DUP1 ISZERO PUSH2 0x8EBF JUMPI RETURNDATASIZE PUSH1 0x0 DUP1 RETURNDATACOPY RETURNDATASIZE PUSH1 0x0 REVERT JUMPDEST POP POP POP POP PUSH1 0x40 MLOAD RETURNDATASIZE PUSH1 0x1F NOT PUSH1 0x1F DUP3 ADD AND DUP3 ADD DUP1 PUSH1 0x40 MSTORE POP DUP2 ADD SWAP1 PUSH2 0x8EE3 SWAP2 SWAP1 PUSH2 0xA6AB JUMP JUMPDEST PUSH1 0x1 PUSH1 0x1 PUSH1 0xA0 SHL SUB AND PUSH4 0x70A08231 DUP4 PUSH1 0x40 MLOAD DUP3 PUSH4 0xFFFFFFFF AND PUSH1 0xE0 SHL DUP2 MSTORE PUSH1 0x4 ADD PUSH2 0x8F0E SWAP2 SWAP1 PUSH2 0xB2ED JUMP JUMPDEST PUSH1 0x20 PUSH1 0x40 MLOAD DUP1 DUP4 SUB DUP2 DUP7 DUP1 EXTCODESIZE ISZERO DUP1 ISZERO PUSH2 0x8F26 JUMPI PUSH1 0x0 DUP1 REVERT JUMPDEST POP GAS STATICCALL ISZERO DUP1 ISZERO PUSH2 0x8F3A JUMPI RETURNDATASIZE PUSH1 0x0 DUP1 RETURNDATACOPY RETURNDATASIZE PUSH1 0x0 REVERT JUMPDEST POP POP POP POP PUSH1 0x40 MLOAD RETURNDATASIZE PUSH1 0x1F NOT PUSH1 0x1F DUP3 ADD AND DUP3 ADD DUP1 PUSH1 0x40 MSTORE POP DUP2 ADD SWAP1 PUSH2 0x8F5E SWAP2 SWAP1 PUSH2 0xA5CB JUMP JUMPDEST PUSH2 0x8F6A JUMPI POP PUSH1 0x0 PUSH2 0x1217 JUMP JUMPDEST POP PUSH1 0x1 SWAP2 SWAP1 POP JUMP JUMPDEST DUP2 PUSH1 0x20 ADD DUP4 MLOAD LT ISZERO PUSH2 0x8F91 JUMPI PUSH2 0x8F91 PUSH2 0x8C63 PUSH1 0x5 DUP6 MLOAD DUP6 PUSH1 0x20 ADD PUSH2 0x9025 JUMP JUMPDEST SWAP2 ADD PUSH1 0x20 ADD MSTORE JUMP JUMPDEST PUSH1 0x0 DUP2 PUSH1 0x20 ADD DUP4 MLOAD LT ISZERO PUSH2 0x8FBA JUMPI PUSH2 0x8FBA PUSH2 0x8C63 PUSH1 0x5 DUP6 MLOAD DUP6 PUSH1 0x20 ADD PUSH2 0x9025 JUMP JUMPDEST POP ADD PUSH1 0x20 ADD MLOAD SWAP1 JUMP JUMPDEST PUSH1 0x60 PUSH4 0xE946C1BB PUSH1 0xE0 SHL DUP5 DUP5 DUP5 PUSH1 0x40 MLOAD PUSH1 0x24 ADD PUSH2 0x8FE2 SWAP4 SWAP3 SWAP2 SWAP1 PUSH2 0xB7DA JUMP JUMPDEST PUSH1 0x40 DUP1 MLOAD PUSH1 0x1F NOT DUP2 DUP5 SUB ADD DUP2 MSTORE SWAP2 SWAP1 MSTORE PUSH1 0x20 DUP2 ADD DUP1 MLOAD PUSH1 0x1 PUSH1 0x1 PUSH1 0xE0 SHL SUB AND PUSH1 0x1 PUSH1 0x1 PUSH1 0xE0 SHL SUB NOT SWAP1 SWAP4 AND SWAP3 SWAP1 SWAP3 OR SWAP1 SWAP2 MSTORE SWAP1 POP SWAP4 SWAP3 POP POP POP JUMP JUMPDEST DUP1 MLOAD PUSH1 0x20 DUP3 ADD REVERT JUMPDEST PUSH1 0x60 PUSH4 0x28006595 PUSH1 0xE0 SHL DUP5 DUP5 DUP5 PUSH1 0x40 MLOAD PUSH1 0x24 ADD PUSH2 0x8FE2 SWAP4 SWAP3 SWAP2 SWAP1 PUSH2 0xB7F5 JUMP JUMPDEST PUSH1 0x40 DUP1 MLOAD PUSH1 0x80 DUP2 ADD DUP3 MSTORE PUSH1 0x0 DUP1 DUP3 MSTORE PUSH1 0x20 DUP3 ADD DUP2 SWAP1 MSTORE SWAP2 DUP2 ADD DUP3 SWAP1 MSTORE PUSH1 0x60 DUP2 ADD SWAP2 SWAP1 SWAP2 MSTORE SWAP1 JUMP JUMPDEST PUSH1 0x40 MLOAD DUP1 PUSH1 0xA0 ADD PUSH1 0x40 MSTORE DUP1 PUSH1 0x0 DUP2 MSTORE PUSH1 0x20 ADD PUSH1 0x0 DUP2 MSTORE PUSH1 0x20 ADD PUSH1 0x0 DUP2 MSTORE PUSH1 0x20 ADD PUSH1 0x0 DUP2 MSTORE PUSH1 0x20 ADD PUSH1 0x0 DUP2 MSTORE POP SWAP1 JUMP JUMPDEST PUSH1 0x40 DUP1 MLOAD DUP1 DUP3 ADD SWAP1 SWAP2 MSTORE PUSH1 0x60 DUP2 MSTORE PUSH1 0x0 PUSH1 0x20 DUP3 ADD MSTORE SWAP1 JUMP JUMPDEST PUSH1 0x40 MLOAD DUP1 PUSH1 0x40 ADD PUSH1 0x40 MSTORE DUP1 PUSH1 0x0 DUP2 MSTORE PUSH1 0x20 ADD PUSH1 0x60 DUP2 MSTORE POP SWAP1 JUMP JUMPDEST PUSH1 0x40 DUP1 MLOAD PUSH1 0x60 DUP2 ADD SWAP1 SWAP2 MSTORE PUSH1 0x0 DUP1 DUP3 MSTORE PUSH1 0x20 DUP3 ADD SWAP1 DUP2 MSTORE PUSH1 0x0 PUSH1 0x20 SWAP1 SWAP2 ADD MSTORE SWAP1 JUMP JUMPDEST PUSH1 0x40 MLOAD DUP1 PUSH1 0xA0 ADD PUSH1 0x40 MSTORE DUP1 PUSH1 0x0 DUP1 NOT AND DUP2 MSTORE PUSH1 0x20 ADD PUSH1 0x0 DUP2 MSTORE PUSH1 0x20 ADD PUSH1 0x0 DUP2 MSTORE PUSH1 0x20 ADD PUSH1 0x0 DUP2 MSTORE PUSH1 0x20 ADD PUSH1 0x60 DUP2 MSTORE POP SWAP1 JUMP JUMPDEST PUSH1 0x40 DUP1 MLOAD PUSH1 0x60 DUP2 ADD DUP3 MSTORE PUSH1 0x0 DUP1 DUP3 MSTORE PUSH1 0x20 DUP3 ADD DUP2 SWAP1 MSTORE SWAP2 DUP2 ADD SWAP2 SWAP1 SWAP2 MSTORE SWAP1 JUMP JUMPDEST PUSH1 0x40 MLOAD DUP1 PUSH1 0x80 ADD PUSH1 0x40 MSTORE DUP1 PUSH1 0x4 SWAP1 PUSH1 0x20 DUP3 MUL DUP1 CALLDATASIZE DUP4 CALLDATACOPY POP SWAP2 SWAP3 SWAP2 POP POP JUMP JUMPDEST PUSH1 0x40 MLOAD DUP1 PUSH1 0xA0 ADD PUSH1 0x40 MSTORE DUP1 PUSH1 0x0 DUP2 MSTORE PUSH1 0x20 ADD PUSH1 0x0 PUSH1 0x1 PUSH1 0x1 PUSH1 0xA0 SHL SUB AND DUP2 MSTORE PUSH1 0x20 ADD PUSH1 0x0 PUSH1 0x1 PUSH1 0x1 PUSH1 0xA0 SHL SUB AND DUP2 MSTORE PUSH1 0x20 ADD PUSH1 0x0 PUSH1 0x1 PUSH1 0x1 PUSH1 0xA0 SHL SUB AND DUP2 MSTORE PUSH1 0x20 ADD PUSH1 0x60 DUP2 MSTORE POP SWAP1 JUMP JUMPDEST DUP1 CALLDATALOAD PUSH2 0x6B0B DUP2 PUSH2 0xBC2C JUMP JUMPDEST DUP1 MLOAD PUSH2 0x6B0B DUP2 PUSH2 0xBC2C JUMP JUMPDEST PUSH1 0x0 DUP3 PUSH1 0x1F DUP4 ADD SLT PUSH2 0x91CF JUMPI PUSH1 0x0 DUP1 REVERT JUMPDEST DUP2 CALLDATALOAD PUSH2 0x91E2 PUSH2 0x91DD DUP3 PUSH2 0xBAAE JUMP JUMPDEST PUSH2 0xBA88 JUMP JUMPDEST SWAP2 POP DUP2 DUP2 DUP4 MSTORE PUSH1 0x20 DUP5 ADD SWAP4 POP PUSH1 0x20 DUP2 ADD SWAP1 POP DUP4 DUP6 PUSH1 0x20 DUP5 MUL DUP3 ADD GT ISZERO PUSH2 0x9207 JUMPI PUSH1 0x0 DUP1 REVERT JUMPDEST PUSH1 0x0 JUMPDEST DUP4 DUP2 LT ISZERO PUSH2 0x9233 JUMPI DUP2 PUSH2 0x921D DUP9 DUP3 PUSH2 0x91A8 JUMP JUMPDEST DUP5 MSTORE POP PUSH1 0x20 SWAP3 DUP4 ADD SWAP3 SWAP2 SWAP1 SWAP2 ADD SWAP1 PUSH1 0x1 ADD PUSH2 0x920A JUMP JUMPDEST POP POP POP POP SWAP3 SWAP2 POP POP JUMP JUMPDEST PUSH1 0x0 DUP3 PUSH1 0x1F DUP4 ADD SLT PUSH2 0x924E JUMPI PUSH1 0x0 DUP1 REVERT JUMPDEST DUP2 MLOAD PUSH2 0x925C PUSH2 0x91DD DUP3 PUSH2 0xBAAE JUMP JUMPDEST SWAP2 POP DUP2 DUP2 DUP4 MSTORE PUSH1 0x20 DUP5 ADD SWAP4 POP PUSH1 0x20 DUP2 ADD SWAP1 POP DUP4 DUP6 PUSH1 0x20 DUP5 MUL DUP3 ADD GT ISZERO PUSH2 0x9281 JUMPI PUSH1 0x0 DUP1 REVERT JUMPDEST PUSH1 0x0 JUMPDEST DUP4 DUP2 LT ISZERO PUSH2 0x9233 JUMPI DUP2 PUSH2 0x9297 DUP9 DUP3 PUSH2 0x91B3 JUMP JUMPDEST DUP5 MSTORE POP PUSH1 0x20 SWAP3 DUP4 ADD SWAP3 SWAP2 SWAP1 SWAP2 ADD SWAP1 PUSH1 0x1 ADD PUSH2 0x9284 JUMP JUMPDEST PUSH1 0x0 DUP3 PUSH1 0x1F DUP4 ADD SLT PUSH2 0x92BE JUMPI PUSH1 0x0 DUP1 REVERT JUMPDEST DUP2 CALLDATALOAD PUSH2 0x92CC PUSH2 0x91DD DUP3 PUSH2 0xBAAE JUMP JUMPDEST DUP2 DUP2 MSTORE PUSH1 0x20 SWAP4 DUP5 ADD SWAP4 SWAP1 SWAP3 POP DUP3 ADD DUP4 PUSH1 0x0 JUMPDEST DUP4 DUP2 LT ISZERO PUSH2 0x9233 JUMPI DUP2 CALLDATALOAD DUP7 ADD PUSH2 0x92F4 DUP9 DUP3 PUSH2 0x91BE JUMP JUMPDEST DUP5 MSTORE POP PUSH1 0x20 SWAP3 DUP4 ADD SWAP3 SWAP2 SWAP1 SWAP2 ADD SWAP1 PUSH1 0x1 ADD PUSH2 0x92DE JUMP JUMPDEST PUSH1 0x0 DUP3 PUSH1 0x1F DUP4 ADD SLT PUSH2 0x931B JUMPI PUSH1 0x0 DUP1 REVERT JUMPDEST DUP2 MLOAD PUSH2 0x9329 PUSH2 0x91DD DUP3 PUSH2 0xBAAE JUMP JUMPDEST SWAP2 POP DUP2 DUP2 DUP4 MSTORE PUSH1 0x20 DUP5 ADD SWAP4 POP PUSH1 0x20 DUP2 ADD SWAP1 POP DUP4 DUP6 PUSH1 0x20 DUP5 MUL DUP3 ADD GT ISZERO PUSH2 0x934E JUMPI PUSH1 0x0 DUP1 REVERT JUMPDEST PUSH1 0x0 JUMPDEST DUP4 DUP2 LT ISZERO PUSH2 0x9233 JUMPI DUP2 PUSH2 0x9364 DUP9 DUP3 PUSH2 0x9818 JUMP JUMPDEST DUP5 MSTORE POP PUSH1 0x20 SWAP3 DUP4 ADD SWAP3 SWAP2 SWAP1 SWAP2 ADD SWAP1 PUSH1 0x1 ADD PUSH2 0x9351 JUMP JUMPDEST PUSH1 0x0 DUP1 DUP4 PUSH1 0x1F DUP5 ADD SLT PUSH2 0x938C JUMPI PUSH1 0x0 DUP1 REVERT JUMPDEST POP DUP2 CALLDATALOAD PUSH1 0x1 PUSH1 0x1 PUSH1 0x40 SHL SUB DUP2 GT ISZERO PUSH2 0x93A3 JUMPI PUSH1 0x0 DUP1 REVERT JUMPDEST PUSH1 0x20 DUP4 ADD SWAP2 POP DUP4 PUSH1 0x20 DUP3 MUL DUP4 ADD GT ISZERO PUSH2 0x93BB JUMPI PUSH1 0x0 DUP1 REVERT JUMPDEST SWAP3 POP SWAP3 SWAP1 POP JUMP JUMPDEST PUSH1 0x0 DUP3 PUSH1 0x1F DUP4 ADD SLT PUSH2 0x93D3 JUMPI PUSH1 0x0 DUP1 REVERT JUMPDEST DUP2 CALLDATALOAD PUSH2 0x93E1 PUSH2 0x91DD DUP3 PUSH2 0xBAAE JUMP JUMPDEST DUP2 DUP2 MSTORE PUSH1 0x20 SWAP4 DUP5 ADD SWAP4 SWAP1 SWAP3 POP DUP3 ADD DUP4 PUSH1 0x0 JUMPDEST DUP4 DUP2 LT ISZERO PUSH2 0x9233 JUMPI DUP2 CALLDATALOAD DUP7 ADD PUSH2 0x9409 DUP9 DUP3 PUSH2 0x9839 JUMP JUMPDEST DUP5 MSTORE POP PUSH1 0x20 SWAP3 DUP4 ADD SWAP3 SWAP2 SWAP1 SWAP2 ADD SWAP1 PUSH1 0x1 ADD PUSH2 0x93F3 JUMP JUMPDEST PUSH1 0x0 DUP3 PUSH1 0x1F DUP4 ADD SLT PUSH2 0x9430 JUMPI PUSH1 0x0 DUP1 REVERT JUMPDEST DUP2 CALLDATALOAD PUSH2 0x943E PUSH2 0x91DD DUP3 PUSH2 0xBAAE JUMP JUMPDEST SWAP2 POP DUP2 DUP2 DUP4 MSTORE PUSH1 0x20 DUP5 ADD SWAP4 POP PUSH1 0x20 DUP2 ADD SWAP1 POP DUP4 DUP6 PUSH1 0x20 DUP5 MUL DUP3 ADD GT ISZERO PUSH2 0x9463 JUMPI PUSH1 0x0 DUP1 REVERT JUMPDEST PUSH1 0x0 JUMPDEST DUP4 DUP2 LT ISZERO PUSH2 0x9233 JUMPI DUP2 PUSH2 0x9479 DUP9 DUP3 PUSH2 0x98C5 JUMP JUMPDEST DUP5 MSTORE POP PUSH1 0x20 SWAP3 DUP4 ADD SWAP3 SWAP2 SWAP1 SWAP2 ADD SWAP1 PUSH1 0x1 ADD PUSH2 0x9466 JUMP JUMPDEST PUSH1 0x0 DUP3 PUSH1 0x1F DUP4 ADD SLT PUSH2 0x94A0 JUMPI PUSH1 0x0 DUP1 REVERT JUMPDEST DUP2 MLOAD PUSH2 0x94AE PUSH2 0x91DD DUP3 PUSH2 0xBAAE JUMP JUMPDEST SWAP2 POP DUP2 DUP2 DUP4 MSTORE PUSH1 0x20 DUP5 ADD SWAP4 POP PUSH1 0x20 DUP2 ADD SWAP1 POP DUP4 DUP6 PUSH1 0x20 DUP5 MUL DUP3 ADD GT ISZERO PUSH2 0x94D3 JUMPI PUSH1 0x0 DUP1 REVERT JUMPDEST PUSH1 0x0 JUMPDEST DUP4 DUP2 LT ISZERO PUSH2 0x9233 JUMPI DUP2 PUSH2 0x94E9 DUP9 DUP3 PUSH2 0x9818 JUMP JUMPDEST DUP5 MSTORE POP PUSH1 0x20 SWAP3 DUP4 ADD SWAP3 SWAP2 SWAP1 SWAP2 ADD SWAP1 PUSH1 0x1 ADD PUSH2 0x94D6 JUMP JUMPDEST PUSH1 0x0 DUP3 PUSH1 0x1F DUP4 ADD SLT PUSH2 0x9510 JUMPI PUSH1 0x0 DUP1 REVERT JUMPDEST DUP2 CALLDATALOAD PUSH2 0x951E PUSH2 0x91DD DUP3 PUSH2 0xBAAE JUMP JUMPDEST DUP2 DUP2 MSTORE PUSH1 0x20 SWAP4 DUP5 ADD SWAP4 SWAP1 SWAP3 POP DUP3 ADD DUP4 PUSH1 0x0 JUMPDEST DUP4 DUP2 LT ISZERO PUSH2 0x9233 JUMPI DUP2 CALLDATALOAD DUP7 ADD PUSH2 0x9546 DUP9 DUP3 PUSH2 0x99AB JUMP JUMPDEST DUP5 MSTORE POP PUSH1 0x20 SWAP3 DUP4 ADD SWAP3 SWAP2 SWAP1 SWAP2 ADD SWAP1 PUSH1 0x1 ADD PUSH2 0x9530 JUMP JUMPDEST PUSH1 0x0 DUP3 PUSH1 0x1F DUP4 ADD SLT PUSH2 0x956D JUMPI PUSH1 0x0 DUP1 REVERT JUMPDEST DUP2 CALLDATALOAD PUSH2 0x957B PUSH2 0x91DD DUP3 PUSH2 0xBAAE JUMP JUMPDEST SWAP2 POP DUP2 DUP2 DUP4 MSTORE PUSH1 0x20 DUP5 ADD SWAP4 POP PUSH1 0x20 DUP2 ADD SWAP1 POP DUP4 DUP6 PUSH2 0x180 DUP5 MUL DUP3 ADD GT ISZERO PUSH2 0x95A1 JUMPI PUSH1 0x0 DUP1 REVERT JUMPDEST PUSH1 0x0 JUMPDEST DUP4 DUP2 LT ISZERO PUSH2 0x9233 JUMPI DUP2 PUSH2 0x95B7 DUP9 DUP3 PUSH2 0x9C0A JUMP JUMPDEST DUP5 MSTORE POP PUSH1 0x20 SWAP1 SWAP3 ADD SWAP2 PUSH2 0x180 SWAP2 SWAP1 SWAP2 ADD SWAP1 PUSH1 0x1 ADD PUSH2 0x95A4 JUMP JUMPDEST PUSH1 0x0 DUP3 PUSH1 0x1F DUP4 ADD SLT PUSH2 0x95E1 JUMPI PUSH1 0x0 DUP1 REVERT JUMPDEST DUP2 CALLDATALOAD PUSH2 0x95EF PUSH2 0x91DD DUP3 PUSH2 0xBAAE JUMP JUMPDEST SWAP2 POP DUP2 DUP2 DUP4 MSTORE PUSH1 0x20 DUP5 ADD SWAP4 POP PUSH1 0x20 DUP2 ADD SWAP1 POP DUP4 DUP6 PUSH1 0x80 DUP5 MUL DUP3 ADD GT ISZERO PUSH2 0x9614 JUMPI PUSH1 0x0 DUP1 REVERT JUMPDEST PUSH1 0x0 JUMPDEST DUP4 DUP2 LT ISZERO PUSH2 0x9233 JUMPI DUP2 PUSH2 0x962A DUP9 DUP3 PUSH2 0x9DC1 JUMP JUMPDEST DUP5 MSTORE POP PUSH1 0x20 SWAP1 SWAP3 ADD SWAP2 PUSH1 0x80 SWAP2 SWAP1 SWAP2 ADD SWAP1 PUSH1 0x1 ADD PUSH2 0x9617 JUMP JUMPDEST PUSH1 0x0 DUP3 PUSH1 0x1F DUP4 ADD SLT PUSH2 0x9653 JUMPI PUSH1 0x0 DUP1 REVERT JUMPDEST DUP2 MLOAD PUSH2 0x9661 PUSH2 0x91DD DUP3 PUSH2 0xBAAE JUMP JUMPDEST SWAP2 POP DUP2 DUP2 DUP4 MSTORE PUSH1 0x20 DUP5 ADD SWAP4 POP PUSH1 0x20 DUP2 ADD SWAP1 POP DUP4 DUP6 PUSH1 0x20 DUP5 MUL DUP3 ADD GT ISZERO PUSH2 0x9686 JUMPI PUSH1 0x0 DUP1 REVERT JUMPDEST PUSH1 0x0 JUMPDEST DUP4 DUP2 LT ISZERO PUSH2 0x9233 JUMPI DUP2 PUSH2 0x969C DUP9 DUP3 PUSH2 0x9E46 JUMP JUMPDEST DUP5 MSTORE POP PUSH1 0x20 SWAP3 DUP4 ADD SWAP3 SWAP2 SWAP1 SWAP2 ADD SWAP1 PUSH1 0x1 ADD PUSH2 0x9689 JUMP JUMPDEST PUSH1 0x0 DUP3 PUSH1 0x1F DUP4 ADD SLT PUSH2 0x96C3 JUMPI PUSH1 0x0 DUP1 REVERT JUMPDEST DUP2 CALLDATALOAD PUSH2 0x96D1 PUSH2 0x91DD DUP3 PUSH2 0xBAAE JUMP JUMPDEST SWAP2 POP DUP2 DUP2 DUP4 MSTORE PUSH1 0x20 DUP5 ADD SWAP4 POP PUSH1 0x20 DUP2 ADD SWAP1 POP DUP4 DUP6 PUSH1 0x20 DUP5 MUL DUP3 ADD GT ISZERO PUSH2 0x96F6 JUMPI PUSH1 0x0 DUP1 REVERT JUMPDEST PUSH1 0x0 JUMPDEST DUP4 DUP2 LT ISZERO PUSH2 0x9233 JUMPI DUP2 PUSH2 0x970C DUP9 DUP3 PUSH2 0x980D JUMP JUMPDEST DUP5 MSTORE POP PUSH1 0x20 SWAP3 DUP4 ADD SWAP3 SWAP2 SWAP1 SWAP2 ADD SWAP1 PUSH1 0x1 ADD PUSH2 0x96F9 JUMP JUMPDEST PUSH1 0x0 DUP3 PUSH1 0x1F DUP4 ADD SLT PUSH2 0x9733 JUMPI PUSH1 0x0 DUP1 REVERT JUMPDEST DUP2 MLOAD PUSH2 0x9741 PUSH2 0x91DD DUP3 PUSH2 0xBAAE JUMP JUMPDEST SWAP2 POP DUP2 DUP2 DUP4 MSTORE PUSH1 0x20 DUP5 ADD SWAP4 POP PUSH1 0x20 DUP2 ADD SWAP1 POP DUP4 DUP6 PUSH1 0x20 DUP5 MUL DUP3 ADD GT ISZERO PUSH2 0x9766 JUMPI PUSH1 0x0 DUP1 REVERT JUMPDEST PUSH1 0x0 JUMPDEST DUP4 DUP2 LT ISZERO PUSH2 0x9233 JUMPI DUP2 PUSH2 0x977C DUP9 DUP3 PUSH2 0x9818 JUMP JUMPDEST DUP5 MSTORE POP PUSH1 0x20 SWAP3 DUP4 ADD SWAP3 SWAP2 SWAP1 SWAP2 ADD SWAP1 PUSH1 0x1 ADD PUSH2 0x9769 JUMP JUMPDEST PUSH1 0x0 DUP3 PUSH1 0x1F DUP4 ADD SLT PUSH2 0x97A3 JUMPI PUSH1 0x0 DUP1 REVERT JUMPDEST DUP2 MLOAD PUSH2 0x97B1 PUSH2 0x91DD DUP3 PUSH2 0xBAAE JUMP JUMPDEST SWAP2 POP DUP2 DUP2 DUP4 MSTORE PUSH1 0x20 DUP5 ADD SWAP4 POP PUSH1 0x20 DUP2 ADD SWAP1 POP DUP4 DUP6 PUSH1 0x20 DUP5 MUL DUP3 ADD GT ISZERO PUSH2 0x97D6 JUMPI PUSH1 0x0 DUP1 REVERT JUMPDEST PUSH1 0x0 JUMPDEST DUP4 DUP2 LT ISZERO PUSH2 0x9233 JUMPI DUP2 PUSH2 0x97EC DUP9 DUP3 PUSH2 0x9E5C JUMP JUMPDEST DUP5 MSTORE POP PUSH1 0x20 SWAP3 DUP4 ADD SWAP3 SWAP2 SWAP1 SWAP2 ADD SWAP1 PUSH1 0x1 ADD PUSH2 0x97D9 JUMP JUMPDEST DUP1 MLOAD PUSH2 0x6B0B DUP2 PUSH2 0xBC40 JUMP JUMPDEST DUP1 CALLDATALOAD PUSH2 0x6B0B DUP2 PUSH2 0xBC49 JUMP JUMPDEST DUP1 MLOAD PUSH2 0x6B0B DUP2 PUSH2 0xBC49 JUMP JUMPDEST DUP1 CALLDATALOAD PUSH2 0x6B0B DUP2 PUSH2 0xBC52 JUMP JUMPDEST DUP1 MLOAD PUSH2 0x6B0B DUP2 PUSH2 0xBC52 JUMP JUMPDEST PUSH1 0x0 DUP3 PUSH1 0x1F DUP4 ADD SLT PUSH2 0x984A JUMPI PUSH1 0x0 DUP1 REVERT JUMPDEST DUP2 CALLDATALOAD PUSH2 0x9858 PUSH2 0x91DD DUP3 PUSH2 0xBACE JUMP JUMPDEST SWAP2 POP DUP1 DUP3 MSTORE PUSH1 0x20 DUP4 ADD PUSH1 0x20 DUP4 ADD DUP6 DUP4 DUP4 ADD GT ISZERO PUSH2 0x9874 JUMPI PUSH1 0x0 DUP1 REVERT JUMPDEST PUSH2 0x75A0 DUP4 DUP3 DUP5 PUSH2 0xBBC9 JUMP JUMPDEST PUSH1 0x0 DUP3 PUSH1 0x1F DUP4 ADD SLT PUSH2 0x9890 JUMPI PUSH1 0x0 DUP1 REVERT JUMPDEST DUP2 MLOAD PUSH2 0x989E PUSH2 0x91DD DUP3 PUSH2 0xBACE JUMP JUMPDEST SWAP2 POP DUP1 DUP3 MSTORE PUSH1 0x20 DUP4 ADD PUSH1 0x20 DUP4 ADD DUP6 DUP4 DUP4 ADD GT ISZERO PUSH2 0x98BA JUMPI PUSH1 0x0 DUP1 REVERT JUMPDEST PUSH2 0x75A0 DUP4 DUP3 DUP5 PUSH2 0xBBD5 JUMP JUMPDEST DUP1 CALLDATALOAD PUSH2 0x6B0B DUP2 PUSH2 0xBC5B JUMP JUMPDEST DUP1 MLOAD PUSH2 0x6B0B DUP2 PUSH2 0xBC5B JUMP JUMPDEST DUP1 MLOAD PUSH2 0x6B0B DUP2 PUSH2 0xBC64 JUMP JUMPDEST DUP1 MLOAD PUSH2 0x6B0B DUP2 PUSH2 0xBC71 JUMP JUMPDEST DUP1 CALLDATALOAD PUSH2 0x6B0B DUP2 PUSH2 0xBC7E JUMP JUMPDEST DUP1 CALLDATALOAD PUSH2 0x6B0B DUP2 PUSH2 0xBC8B JUMP JUMPDEST DUP1 MLOAD PUSH2 0x6B0B DUP2 PUSH2 0xBC8B JUMP JUMPDEST PUSH1 0x0 PUSH1 0x40 DUP3 DUP5 SUB SLT ISZERO PUSH2 0x9924 JUMPI PUSH1 0x0 DUP1 REVERT JUMPDEST PUSH2 0x992E PUSH1 0x40 PUSH2 0xBA88 JUMP JUMPDEST SWAP1 POP PUSH1 0x0 PUSH2 0x993C DUP5 DUP5 PUSH2 0x980D JUMP JUMPDEST DUP3 MSTORE POP PUSH1 0x20 PUSH2 0x994D DUP5 DUP5 DUP4 ADD PUSH2 0x91A8 JUMP JUMPDEST PUSH1 0x20 DUP4 ADD MSTORE POP SWAP3 SWAP2 POP POP JUMP JUMPDEST PUSH1 0x0 PUSH1 0x40 DUP3 DUP5 SUB SLT ISZERO PUSH2 0x996B JUMPI PUSH1 0x0 DUP1 REVERT JUMPDEST PUSH2 0x9975 PUSH1 0x40 PUSH2 0xBA88 JUMP JUMPDEST SWAP1 POP PUSH1 0x0 PUSH2 0x9983 DUP5 DUP5 PUSH2 0x98C5 JUMP JUMPDEST DUP3 MSTORE POP PUSH1 0x20 DUP3 ADD CALLDATALOAD PUSH1 0x1 PUSH1 0x1 PUSH1 0x40 SHL SUB DUP2 GT ISZERO PUSH2 0x999F JUMPI PUSH1 0x0 DUP1 REVERT JUMPDEST PUSH2 0x994D DUP5 DUP3 DUP6 ADD PUSH2 0x92AD JUMP JUMPDEST PUSH1 0x0 PUSH1 0xA0 DUP3 DUP5 SUB SLT ISZERO PUSH2 0x99BD JUMPI PUSH1 0x0 DUP1 REVERT JUMPDEST PUSH2 0x99C7 PUSH1 0xA0 PUSH2 0xBA88 JUMP JUMPDEST SWAP1 POP PUSH1 0x0 PUSH2 0x99D5 DUP5 DUP5 PUSH2 0x980D JUMP JUMPDEST DUP3 MSTORE POP PUSH1 0x20 PUSH2 0x99E6 DUP5 DUP5 DUP4 ADD PUSH2 0x980D JUMP JUMPDEST PUSH1 0x20 DUP4 ADD MSTORE POP PUSH1 0x40 PUSH2 0x99FA DUP5 DUP3 DUP6 ADD PUSH2 0x980D JUMP JUMPDEST PUSH1 0x40 DUP4 ADD MSTORE POP PUSH1 0x60 PUSH2 0x9A0E DUP5 DUP3 DUP6 ADD PUSH2 0x980D JUMP JUMPDEST PUSH1 0x60 DUP4 ADD MSTORE POP PUSH1 0x80 DUP3 ADD CALLDATALOAD PUSH1 0x1 PUSH1 0x1 PUSH1 0x40 SHL SUB DUP2 GT ISZERO PUSH2 0x9A2D JUMPI PUSH1 0x0 DUP1 REVERT JUMPDEST PUSH2 0x9A39 DUP5 DUP3 DUP6 ADD PUSH2 0x9839 JUMP JUMPDEST PUSH1 0x80 DUP4 ADD MSTORE POP SWAP3 SWAP2 POP POP JUMP JUMPDEST PUSH1 0x0 PUSH1 0x60 DUP3 DUP5 SUB SLT ISZERO PUSH2 0x9A57 JUMPI PUSH1 0x0 DUP1 REVERT JUMPDEST PUSH2 0x9A61 PUSH1 0x60 PUSH2 0xBA88 JUMP JUMPDEST SWAP1 POP PUSH1 0x0 PUSH2 0x9A6F DUP5 DUP5 PUSH2 0x91A8 JUMP JUMPDEST DUP3 MSTORE POP PUSH1 0x20 PUSH2 0x9A80 DUP5 DUP5 DUP4 ADD PUSH2 0x9823 JUMP JUMPDEST PUSH1 0x20 DUP4 ADD MSTORE POP PUSH1 0x40 PUSH2 0x9A94 DUP5 DUP3 DUP6 ADD PUSH2 0x9823 JUMP JUMPDEST PUSH1 0x40 DUP4 ADD MSTORE POP SWAP3 SWAP2 POP POP JUMP JUMPDEST PUSH1 0x0 PUSH1 0x60 DUP3 DUP5 SUB SLT ISZERO PUSH2 0x9AB2 JUMPI PUSH1 0x0 DUP1 REVERT JUMPDEST PUSH2 0x9ABC PUSH1 0x60 PUSH2 0xBA88 JUMP JUMPDEST SWAP1 POP PUSH1 0x0 PUSH2 0x9ACA DUP5 DUP5 PUSH2 0x91B3 JUMP JUMPDEST DUP3 MSTORE POP PUSH1 0x20 PUSH2 0x9ADB DUP5 DUP5 DUP4 ADD PUSH2 0x982E JUMP JUMPDEST PUSH1 0x20 DUP4 ADD MSTORE POP PUSH1 0x40 PUSH2 0x9A94 DUP5 DUP3 DUP6 ADD PUSH2 0x982E JUMP JUMPDEST PUSH1 0x0 PUSH1 0x40 DUP3 DUP5 SUB SLT ISZERO PUSH2 0x9B01 JUMPI PUSH1 0x0 DUP1 REVERT JUMPDEST PUSH2 0x9B0B PUSH1 0x40 PUSH2 0xBA88 JUMP JUMPDEST SWAP1 POP PUSH1 0x0 PUSH2 0x993C DUP5 DUP5 PUSH2 0x91A8 JUMP JUMPDEST PUSH1 0x0 PUSH1 0xA0 DUP3 DUP5 SUB SLT ISZERO PUSH2 0x9B2B JUMPI PUSH1 0x0 DUP1 REVERT JUMPDEST PUSH2 0x9B35 PUSH1 0xA0 PUSH2 0xBA88 JUMP JUMPDEST SWAP1 POP PUSH1 0x0 PUSH2 0x9B43 DUP5 DUP5 PUSH2 0x980D JUMP JUMPDEST DUP3 MSTORE POP PUSH1 0x20 PUSH2 0x9B54 DUP5 DUP5 DUP4 ADD PUSH2 0x91A8 JUMP JUMPDEST PUSH1 0x20 DUP4 ADD MSTORE POP PUSH1 0x40 PUSH2 0x9B68 DUP5 DUP3 DUP6 ADD PUSH2 0x91A8 JUMP JUMPDEST PUSH1 0x40 DUP4 ADD MSTORE POP PUSH1 0x60 PUSH2 0x9A0E DUP5 DUP3 DUP6 ADD PUSH2 0x91A8 JUMP JUMPDEST PUSH1 0x0 PUSH1 0xA0 DUP3 DUP5 SUB SLT ISZERO PUSH2 0x9B8E JUMPI PUSH1 0x0 DUP1 REVERT JUMPDEST PUSH2 0x9B98 PUSH1 0xA0 PUSH2 0xBA88 JUMP JUMPDEST SWAP1 POP PUSH1 0x0 PUSH2 0x9BA6 DUP5 DUP5 PUSH2 0x9818 JUMP JUMPDEST DUP3 MSTORE POP PUSH1 0x20 PUSH2 0x9BB7 DUP5 DUP5 DUP4 ADD PUSH2 0x91B3 JUMP JUMPDEST PUSH1 0x20 DUP4 ADD MSTORE POP PUSH1 0x40 PUSH2 0x9BCB DUP5 DUP3 DUP6 ADD PUSH2 0x91B3 JUMP JUMPDEST PUSH1 0x40 DUP4 ADD MSTORE POP PUSH1 0x60 PUSH2 0x9BDF DUP5 DUP3 DUP6 ADD PUSH2 0x91B3 JUMP JUMPDEST PUSH1 0x60 DUP4 ADD MSTORE POP PUSH1 0x80 DUP3 ADD MLOAD PUSH1 0x1 PUSH1 0x1 PUSH1 0x40 SHL SUB DUP2 GT ISZERO PUSH2 0x9BFE JUMPI PUSH1 0x0 DUP1 REVERT JUMPDEST PUSH2 0x9A39 DUP5 DUP3 DUP6 ADD PUSH2 0x987F JUMP JUMPDEST PUSH1 0x0 PUSH2 0x180 DUP3 DUP5 SUB SLT ISZERO PUSH2 0x9C1D JUMPI PUSH1 0x0 DUP1 REVERT JUMPDEST PUSH2 0x9C28 PUSH2 0x180 PUSH2 0xBA88 JUMP JUMPDEST SWAP1 POP PUSH1 0x0 PUSH2 0x9C36 DUP5 DUP5 PUSH2 0x98C5 JUMP JUMPDEST DUP3 MSTORE POP PUSH1 0x20 PUSH2 0x9C47 DUP5 DUP5 DUP4 ADD PUSH2 0x98C5 JUMP JUMPDEST PUSH1 0x20 DUP4 ADD MSTORE POP PUSH1 0x40 PUSH2 0x9C5B DUP5 DUP3 DUP6 ADD PUSH2 0x9E30 JUMP JUMPDEST PUSH1 0x40 DUP4 ADD MSTORE POP PUSH1 0x60 PUSH2 0x9C6F DUP5 DUP3 DUP6 ADD PUSH2 0x9E30 JUMP JUMPDEST PUSH1 0x60 DUP4 ADD MSTORE POP PUSH1 0x80 PUSH2 0x9C83 DUP5 DUP3 DUP6 ADD PUSH2 0x9E30 JUMP JUMPDEST PUSH1 0x80 DUP4 ADD MSTORE POP PUSH1 0xA0 PUSH2 0x9C97 DUP5 DUP3 DUP6 ADD PUSH2 0x91A8 JUMP JUMPDEST PUSH1 0xA0 DUP4 ADD MSTORE POP PUSH1 0xC0 PUSH2 0x9CAB DUP5 DUP3 DUP6 ADD PUSH2 0x91A8 JUMP JUMPDEST PUSH1 0xC0 DUP4 ADD MSTORE POP PUSH1 0xE0 PUSH2 0x9CBF DUP5 DUP3 DUP6 ADD PUSH2 0x91A8 JUMP JUMPDEST PUSH1 0xE0 DUP4 ADD MSTORE POP PUSH2 0x100 PUSH2 0x9CD4 DUP5 DUP3 DUP6 ADD PUSH2 0x91A8 JUMP JUMPDEST PUSH2 0x100 DUP4 ADD MSTORE POP PUSH2 0x120 PUSH2 0x9CEA DUP5 DUP3 DUP6 ADD PUSH2 0x980D JUMP JUMPDEST PUSH2 0x120 DUP4 ADD MSTORE POP PUSH2 0x140 PUSH2 0x9D00 DUP5 DUP3 DUP6 ADD PUSH2 0x9E67 JUMP JUMPDEST PUSH2 0x140 DUP4 ADD MSTORE POP PUSH2 0x160 PUSH2 0x9D16 DUP5 DUP3 DUP6 ADD PUSH2 0x980D JUMP JUMPDEST PUSH2 0x160 DUP4 ADD MSTORE POP SWAP3 SWAP2 POP POP JUMP JUMPDEST PUSH1 0x0 PUSH1 0x60 DUP3 DUP5 SUB SLT ISZERO PUSH2 0x9D35 JUMPI PUSH1 0x0 DUP1 REVERT JUMPDEST PUSH2 0x9D3F PUSH1 0x60 PUSH2 0xBA88 JUMP JUMPDEST SWAP1 POP PUSH1 0x0 PUSH2 0x9D4D DUP5 DUP5 PUSH2 0x91A8 JUMP JUMPDEST DUP3 MSTORE POP PUSH1 0x20 PUSH2 0x9D5E DUP5 DUP5 DUP4 ADD PUSH2 0x980D JUMP JUMPDEST PUSH1 0x20 DUP4 ADD MSTORE POP PUSH1 0x40 PUSH2 0x9A94 DUP5 DUP3 DUP6 ADD PUSH2 0x91A8 JUMP JUMPDEST PUSH1 0x0 PUSH1 0x60 DUP3 DUP5 SUB SLT ISZERO PUSH2 0x9D84 JUMPI PUSH1 0x0 DUP1 REVERT JUMPDEST PUSH2 0x9D8E PUSH1 0x60 PUSH2 0xBA88 JUMP JUMPDEST SWAP1 POP PUSH1 0x0 PUSH2 0x9D9C DUP5 DUP5 PUSH2 0x9818 JUMP JUMPDEST DUP3 MSTORE POP PUSH1 0x20 PUSH2 0x9DAD DUP5 DUP5 DUP4 ADD PUSH2 0x98DB JUMP JUMPDEST PUSH1 0x20 DUP4 ADD MSTORE POP PUSH1 0x40 PUSH2 0x9A94 DUP5 DUP3 DUP6 ADD PUSH2 0x9E3B JUMP JUMPDEST PUSH1 0x0 PUSH1 0x80 DUP3 DUP5 SUB SLT ISZERO PUSH2 0x9DD3 JUMPI PUSH1 0x0 DUP1 REVERT JUMPDEST PUSH2 0x9DDD PUSH1 0x80 PUSH2 0xBA88 JUMP JUMPDEST SWAP1 POP PUSH1 0x0 PUSH2 0x9DEB DUP5 DUP5 PUSH2 0x98F1 JUMP JUMPDEST DUP3 MSTORE POP PUSH1 0x20 PUSH2 0x9DFC DUP5 DUP5 DUP4 ADD PUSH2 0x9E72 JUMP JUMPDEST PUSH1 0x20 DUP4 ADD MSTORE POP PUSH1 0x40 PUSH2 0x9E10 DUP5 DUP3 DUP6 ADD PUSH2 0x980D JUMP JUMPDEST PUSH1 0x40 DUP4 ADD MSTORE POP PUSH1 0x60 PUSH2 0x9E24 DUP5 DUP3 DUP6 ADD PUSH2 0x980D JUMP JUMPDEST PUSH1 0x60 DUP4 ADD MSTORE POP SWAP3 SWAP2 POP POP JUMP JUMPDEST DUP1 CALLDATALOAD PUSH2 0x6B0B DUP2 PUSH2 0xBC94 JUMP JUMPDEST DUP1 MLOAD PUSH2 0x6B0B DUP2 PUSH2 0xBC94 JUMP JUMPDEST DUP1 MLOAD PUSH2 0x6B0B DUP2 PUSH2 0xBC9D JUMP JUMPDEST DUP1 MLOAD PUSH2 0x6B0B DUP2 PUSH2 0xBCA6 JUMP JUMPDEST DUP1 MLOAD PUSH2 0x6B0B DUP2 PUSH2 0xBCAF JUMP JUMPDEST DUP1 CALLDATALOAD PUSH2 0x6B0B DUP2 PUSH2 0xBCB8 JUMP JUMPDEST DUP1 CALLDATALOAD PUSH2 0x6B0B DUP2 PUSH2 0xBCC1 JUMP JUMPDEST DUP1 MLOAD PUSH2 0x6B0B DUP2 PUSH2 0xBCC1 JUMP JUMPDEST PUSH1 0x0 PUSH1 0x20 DUP3 DUP5 SUB SLT ISZERO PUSH2 0x9E9A JUMPI PUSH1 0x0 DUP1 REVERT JUMPDEST PUSH1 0x0 PUSH2 0x19C8 DUP5 DUP5 PUSH2 0x91A8 JUMP JUMPDEST PUSH1 0x0 PUSH1 0x20 DUP3 DUP5 SUB SLT ISZERO PUSH2 0x9EB8 JUMPI PUSH1 0x0 DUP1 REVERT JUMPDEST PUSH1 0x0 PUSH2 0x19C8 DUP5 DUP5 PUSH2 0x91B3 JUMP JUMPDEST PUSH1 0x0 DUP1 PUSH1 0x40 DUP4 DUP6 SUB SLT ISZERO PUSH2 0x9ED7 JUMPI PUSH1 0x0 DUP1 REVERT JUMPDEST PUSH1 0x0 PUSH2 0x9EE3 DUP6 DUP6 PUSH2 0x91B3 JUMP JUMPDEST SWAP3 POP POP PUSH1 0x20 PUSH2 0x9EF4 DUP6 DUP3 DUP7 ADD PUSH2 0x91B3 JUMP JUMPDEST SWAP2 POP POP SWAP3 POP SWAP3 SWAP1 POP JUMP JUMPDEST PUSH1 0x0 DUP1 PUSH1 0x0 DUP1 PUSH1 0x80 DUP6 DUP8 SUB SLT ISZERO PUSH2 0x9F14 JUMPI PUSH1 0x0 DUP1 REVERT JUMPDEST PUSH1 0x0 PUSH2 0x9F20 DUP8 DUP8 PUSH2 0x91B3 JUMP JUMPDEST SWAP5 POP POP PUSH1 0x20 PUSH2 0x9F31 DUP8 DUP3 DUP9 ADD PUSH2 0x91B3 JUMP JUMPDEST SWAP4 POP POP PUSH1 0x40 PUSH2 0x9F42 DUP8 DUP3 DUP9 ADD PUSH2 0x91B3 JUMP JUMPDEST SWAP3 POP POP PUSH1 0x60 PUSH2 0x9F53 DUP8 DUP3 DUP9 ADD PUSH2 0x91B3 JUMP JUMPDEST SWAP2 POP POP SWAP3 SWAP6 SWAP2 SWAP5 POP SWAP3 POP JUMP JUMPDEST PUSH1 0x0 DUP1 PUSH1 0x0 PUSH1 0x60 DUP5 DUP7 SUB SLT ISZERO PUSH2 0x9F74 JUMPI PUSH1 0x0 DUP1 REVERT JUMPDEST PUSH1 0x0 PUSH2 0x9F80 DUP7 DUP7 PUSH2 0x91B3 JUMP JUMPDEST SWAP4 POP POP PUSH1 0x20 PUSH2 0x9F91 DUP7 DUP3 DUP8 ADD PUSH2 0x91B3 JUMP JUMPDEST SWAP3 POP POP PUSH1 0x40 DUP5 ADD MLOAD PUSH1 0x1 PUSH1 0x1 PUSH1 0x40 SHL SUB DUP2 GT ISZERO PUSH2 0x9FAD JUMPI PUSH1 0x0 DUP1 REVERT JUMPDEST PUSH2 0x9FB9 DUP7 DUP3 DUP8 ADD PUSH2 0x923D JUMP JUMPDEST SWAP2 POP POP SWAP3 POP SWAP3 POP SWAP3 JUMP JUMPDEST PUSH1 0x0 DUP1 PUSH1 0x0 PUSH1 0x60 DUP5 DUP7 SUB SLT ISZERO PUSH2 0x9FD8 JUMPI PUSH1 0x0 DUP1 REVERT JUMPDEST PUSH1 0x0 PUSH2 0x9FE4 DUP7 DUP7 PUSH2 0x91B3 JUMP JUMPDEST SWAP4 POP POP PUSH1 0x20 PUSH2 0x9FF5 DUP7 DUP3 DUP8 ADD PUSH2 0x91B3 JUMP JUMPDEST SWAP3 POP POP PUSH1 0x40 PUSH2 0x9FB9 DUP7 DUP3 DUP8 ADD PUSH2 0x9802 JUMP JUMPDEST PUSH1 0x0 DUP1 PUSH1 0x40 DUP4 DUP6 SUB SLT ISZERO PUSH2 0xA019 JUMPI PUSH1 0x0 DUP1 REVERT JUMPDEST PUSH1 0x0 PUSH2 0xA025 DUP6 DUP6 PUSH2 0x91B3 JUMP JUMPDEST SWAP3 POP POP PUSH1 0x20 DUP4 ADD MLOAD PUSH1 0x1 PUSH1 0x1 PUSH1 0x40 SHL SUB DUP2 GT ISZERO PUSH2 0xA041 JUMPI PUSH1 0x0 DUP1 REVERT JUMPDEST PUSH2 0x9EF4 DUP6 DUP3 DUP7 ADD PUSH2 0x923D JUMP JUMPDEST PUSH1 0x0 DUP1 PUSH1 0x40 DUP4 DUP6 SUB SLT ISZERO PUSH2 0xA060 JUMPI PUSH1 0x0 DUP1 REVERT JUMPDEST PUSH1 0x0 PUSH2 0xA06C DUP6 DUP6 PUSH2 0x91B3 JUMP JUMPDEST SWAP3 POP POP PUSH1 0x20 DUP4 ADD MLOAD PUSH1 0x1 PUSH1 0x1 PUSH1 0x40 SHL SUB DUP2 GT ISZERO PUSH2 0xA088 JUMPI PUSH1 0x0 DUP1 REVERT JUMPDEST PUSH2 0x9EF4 DUP6 DUP3 DUP7 ADD PUSH2 0x9B7C JUMP JUMPDEST PUSH1 0x0 DUP1 PUSH1 0x0 DUP1 PUSH1 0x80 DUP6 DUP8 SUB SLT ISZERO PUSH2 0xA0AA JUMPI PUSH1 0x0 DUP1 REVERT JUMPDEST PUSH1 0x0 PUSH2 0xA0B6 DUP8 DUP8 PUSH2 0x91A8 JUMP JUMPDEST SWAP5 POP POP PUSH1 0x20 PUSH2 0xA0C7 DUP8 DUP3 DUP9 ADD PUSH2 0x91A8 JUMP JUMPDEST SWAP4 POP POP PUSH1 0x40 PUSH2 0xA0D8 DUP8 DUP3 DUP9 ADD PUSH2 0x91A8 JUMP JUMPDEST SWAP3 POP POP PUSH1 0x60 DUP6 ADD CALLDATALOAD PUSH1 0x1 PUSH1 0x1 PUSH1 0x40 SHL SUB DUP2 GT ISZERO PUSH2 0xA0F4 JUMPI PUSH1 0x0 DUP1 REVERT JUMPDEST PUSH2 0x9F53 DUP8 DUP3 DUP9 ADD PUSH2 0x96B2 JUMP JUMPDEST PUSH1 0x0 DUP1 PUSH1 0x0 DUP1 PUSH1 0x80 DUP6 DUP8 SUB SLT ISZERO PUSH2 0xA116 JUMPI PUSH1 0x0 DUP1 REVERT JUMPDEST PUSH1 0x0 PUSH2 0xA122 DUP8 DUP8 PUSH2 0x91A8 JUMP JUMPDEST SWAP5 POP POP PUSH1 0x20 PUSH2 0xA133 DUP8 DUP3 DUP9 ADD PUSH2 0x91A8 JUMP JUMPDEST SWAP4 POP POP PUSH1 0x40 PUSH2 0xA144 DUP8 DUP3 DUP9 ADD PUSH2 0x91A8 JUMP JUMPDEST SWAP3 POP POP PUSH1 0x60 PUSH2 0x9F53 DUP8 DUP3 DUP9 ADD PUSH2 0x980D JUMP JUMPDEST PUSH1 0x0 DUP1 PUSH1 0x0 DUP1 PUSH1 0x80 DUP6 DUP8 SUB SLT ISZERO PUSH2 0xA16B JUMPI PUSH1 0x0 DUP1 REVERT JUMPDEST PUSH1 0x0 PUSH2 0xA177 DUP8 DUP8 PUSH2 0x91A8 JUMP JUMPDEST SWAP5 POP POP PUSH1 0x20 PUSH2 0xA188 DUP8 DUP3 DUP9 ADD PUSH2 0x91A8 JUMP JUMPDEST SWAP4 POP POP PUSH1 0x40 DUP6 ADD CALLDATALOAD PUSH1 0x1 PUSH1 0x1 PUSH1 0x40 SHL SUB DUP2 GT ISZERO PUSH2 0xA1A4 JUMPI PUSH1 0x0 DUP1 REVERT JUMPDEST PUSH2 0xA0D8 DUP8 DUP3 DUP9 ADD PUSH2 0x91BE JUMP JUMPDEST PUSH1 0x0 DUP1 PUSH1 0x0 PUSH1 0x60 DUP5 DUP7 SUB SLT ISZERO PUSH2 0xA1C5 JUMPI PUSH1 0x0 DUP1 REVERT JUMPDEST PUSH1 0x0 PUSH2 0xA1D1 DUP7 DUP7 PUSH2 0x91A8 JUMP JUMPDEST SWAP4 POP POP PUSH1 0x20 DUP5 ADD CALLDATALOAD PUSH1 0x1 PUSH1 0x1 PUSH1 0x40 SHL SUB DUP2 GT ISZERO PUSH2 0xA1ED JUMPI PUSH1 0x0 DUP1 REVERT JUMPDEST PUSH2 0xA1F9 DUP7 DUP3 DUP8 ADD PUSH2 0x91BE JUMP JUMPDEST SWAP3 POP POP PUSH1 0x40 DUP5 ADD CALLDATALOAD PUSH1 0x1 PUSH1 0x1 PUSH1 0x40 SHL SUB DUP2 GT ISZERO PUSH2 0xA215 JUMPI PUSH1 0x0 DUP1 REVERT JUMPDEST PUSH2 0x9FB9 DUP7 DUP3 DUP8 ADD PUSH2 0x96B2 JUMP JUMPDEST PUSH1 0x0 DUP1 PUSH1 0x0 DUP1 PUSH1 0x0 PUSH1 0xA0 DUP7 DUP9 SUB SLT ISZERO PUSH2 0xA239 JUMPI PUSH1 0x0 DUP1 REVERT JUMPDEST PUSH1 0x0 PUSH2 0xA245 DUP9 DUP9 PUSH2 0x91A8 JUMP JUMPDEST SWAP6 POP POP PUSH1 0x20 PUSH2 0xA256 DUP9 DUP3 DUP10 ADD PUSH2 0x980D JUMP JUMPDEST SWAP5 POP POP PUSH1 0x40 PUSH2 0xA267 DUP9 DUP3 DUP10 ADD PUSH2 0x91A8 JUMP JUMPDEST SWAP4 POP POP PUSH1 0x60 PUSH2 0xA278 DUP9 DUP3 DUP10 ADD PUSH2 0x91A8 JUMP JUMPDEST SWAP3 POP POP PUSH1 0x80 DUP7 ADD CALLDATALOAD PUSH1 0x1 PUSH1 0x1 PUSH1 0x40 SHL SUB DUP2 GT ISZERO PUSH2 0xA294 JUMPI PUSH1 0x0 DUP1 REVERT JUMPDEST PUSH2 0xA2A0 DUP9 DUP3 DUP10 ADD PUSH2 0x96B2 JUMP JUMPDEST SWAP2 POP POP SWAP3 SWAP6 POP SWAP3 SWAP6 SWAP1 SWAP4 POP JUMP JUMPDEST PUSH1 0x0 PUSH1 0x20 DUP3 DUP5 SUB SLT ISZERO PUSH2 0xA2BF JUMPI PUSH1 0x0 DUP1 REVERT JUMPDEST DUP2 MLOAD PUSH1 0x1 PUSH1 0x1 PUSH1 0x40 SHL SUB DUP2 GT ISZERO PUSH2 0xA2D5 JUMPI PUSH1 0x0 DUP1 REVERT JUMPDEST PUSH2 0x19C8 DUP5 DUP3 DUP6 ADD PUSH2 0x923D JUMP JUMPDEST PUSH1 0x0 DUP1 PUSH1 0x0 PUSH1 0x60 DUP5 DUP7 SUB SLT ISZERO PUSH2 0xA2F6 JUMPI PUSH1 0x0 DUP1 REVERT JUMPDEST DUP4 MLOAD PUSH1 0x1 PUSH1 0x1 PUSH1 0x40 SHL SUB DUP2 GT ISZERO PUSH2 0xA30C JUMPI PUSH1 0x0 DUP1 REVERT JUMPDEST PUSH2 0xA318 DUP7 DUP3 DUP8 ADD PUSH2 0x930A JUMP JUMPDEST SWAP4 POP POP PUSH1 0x20 DUP5 ADD MLOAD PUSH1 0x1 PUSH1 0x1 PUSH1 0x40 SHL SUB DUP2 GT ISZERO PUSH2 0xA334 JUMPI PUSH1 0x0 DUP1 REVERT JUMPDEST PUSH2 0xA340 DUP7 DUP3 DUP8 ADD PUSH2 0x9722 JUMP JUMPDEST SWAP3 POP POP PUSH1 0x40 PUSH2 0x9FB9 DUP7 DUP3 DUP8 ADD PUSH2 0x98E6 JUMP JUMPDEST PUSH1 0x0 DUP1 PUSH1 0x20 DUP4 DUP6 SUB SLT ISZERO PUSH2 0xA364 JUMPI PUSH1 0x0 DUP1 REVERT JUMPDEST DUP3 CALLDATALOAD PUSH1 0x1 PUSH1 0x1 PUSH1 0x40 SHL SUB DUP2 GT ISZERO PUSH2 0xA37A JUMPI PUSH1 0x0 DUP1 REVERT JUMPDEST PUSH2 0xA386 DUP6 DUP3 DUP7 ADD PUSH2 0x937A JUMP JUMPDEST SWAP3 POP SWAP3 POP POP SWAP3 POP SWAP3 SWAP1 POP JUMP JUMPDEST PUSH1 0x0 DUP1 PUSH1 0x0 PUSH1 0x60 DUP5 DUP7 SUB SLT ISZERO PUSH2 0xA3A7 JUMPI PUSH1 0x0 DUP1 REVERT JUMPDEST DUP4 CALLDATALOAD PUSH1 0x1 PUSH1 0x1 PUSH1 0x40 SHL SUB DUP2 GT ISZERO PUSH2 0xA3BD JUMPI PUSH1 0x0 DUP1 REVERT JUMPDEST PUSH2 0xA3C9 DUP7 DUP3 DUP8 ADD PUSH2 0x93C2 JUMP JUMPDEST SWAP4 POP POP PUSH1 0x20 DUP5 ADD CALLDATALOAD PUSH1 0x1 PUSH1 0x1 PUSH1 0x40 SHL SUB DUP2 GT ISZERO PUSH2 0xA3E5 JUMPI PUSH1 0x0 DUP1 REVERT JUMPDEST PUSH2 0xA3F1 DUP7 DUP3 DUP8 ADD PUSH2 0x93C2 JUMP JUMPDEST SWAP3 POP POP PUSH1 0x40 PUSH2 0x9FB9 DUP7 DUP3 DUP8 ADD PUSH2 0x980D JUMP JUMPDEST PUSH1 0x0 PUSH1 0x20 DUP3 DUP5 SUB SLT ISZERO PUSH2 0xA414 JUMPI PUSH1 0x0 DUP1 REVERT JUMPDEST DUP2 CALLDATALOAD PUSH1 0x1 PUSH1 0x1 PUSH1 0x40 SHL SUB DUP2 GT ISZERO PUSH2 0xA42A JUMPI PUSH1 0x0 DUP1 REVERT JUMPDEST PUSH2 0x19C8 DUP5 DUP3 DUP6 ADD PUSH2 0x941F JUMP JUMPDEST PUSH1 0x0 DUP1 PUSH1 0x40 DUP4 DUP6 SUB SLT ISZERO PUSH2 0xA449 JUMPI PUSH1 0x0 DUP1 REVERT JUMPDEST DUP3 CALLDATALOAD PUSH1 0x1 PUSH1 0x1 PUSH1 0x40 SHL SUB DUP2 GT ISZERO PUSH2 0xA45F JUMPI PUSH1 0x0 DUP1 REVERT JUMPDEST PUSH2 0xA46B DUP6 DUP3 DUP7 ADD PUSH2 0x941F JUMP JUMPDEST SWAP3 POP POP PUSH1 0x20 PUSH2 0x9EF4 DUP6 DUP3 DUP7 ADD PUSH2 0x91A8 JUMP JUMPDEST PUSH1 0x0 DUP1 PUSH1 0x0 PUSH1 0x60 DUP5 DUP7 SUB SLT ISZERO PUSH2 0xA491 JUMPI PUSH1 0x0 DUP1 REVERT JUMPDEST DUP4 CALLDATALOAD PUSH1 0x1 PUSH1 0x1 PUSH1 0x40 SHL SUB DUP2 GT ISZERO PUSH2 0xA4A7 JUMPI PUSH1 0x0 DUP1 REVERT JUMPDEST PUSH2 0xA4B3 DUP7 DUP3 DUP8 ADD PUSH2 0x941F JUMP JUMPDEST SWAP4 POP POP PUSH1 0x20 PUSH2 0xA4C4 DUP7 DUP3 DUP8 ADD PUSH2 0x91A8 JUMP JUMPDEST SWAP3 POP POP PUSH1 0x40 PUSH2 0x9FB9 DUP7 DUP3 DUP8 ADD PUSH2 0x91A8 JUMP JUMPDEST PUSH1 0x0 PUSH1 0x20 DUP3 DUP5 SUB SLT ISZERO PUSH2 0xA4E7 JUMPI PUSH1 0x0 DUP1 REVERT JUMPDEST DUP2 MLOAD PUSH1 0x1 PUSH1 0x1 PUSH1 0x40 SHL SUB DUP2 GT ISZERO PUSH2 0xA4FD JUMPI PUSH1 0x0 DUP1 REVERT JUMPDEST PUSH2 0x19C8 DUP5 DUP3 DUP6 ADD PUSH2 0x948F JUMP JUMPDEST PUSH1 0x0 DUP1 PUSH1 0x0 PUSH1 0x60 DUP5 DUP7 SUB SLT ISZERO PUSH2 0xA51E JUMPI PUSH1 0x0 DUP1 REVERT JUMPDEST DUP4 CALLDATALOAD PUSH1 0x1 PUSH1 0x1 PUSH1 0x40 SHL SUB DUP2 GT ISZERO PUSH2 0xA534 JUMPI PUSH1 0x0 DUP1 REVERT JUMPDEST PUSH2 0xA540 DUP7 DUP3 DUP8 ADD PUSH2 0x955C JUMP JUMPDEST SWAP4 POP POP PUSH1 0x20 DUP5 ADD CALLDATALOAD PUSH1 0x1 PUSH1 0x1 PUSH1 0x40 SHL SUB DUP2 GT ISZERO PUSH2 0xA55C JUMPI PUSH1 0x0 DUP1 REVERT JUMPDEST PUSH2 0xA568 DUP7 DUP3 DUP8 ADD PUSH2 0x95D0 JUMP JUMPDEST SWAP3 POP POP PUSH1 0x40 PUSH2 0x9FB9 DUP7 DUP3 DUP8 ADD PUSH2 0x98C5 JUMP JUMPDEST PUSH1 0x0 PUSH1 0x20 DUP3 DUP5 SUB SLT ISZERO PUSH2 0xA58B JUMPI PUSH1 0x0 DUP1 REVERT JUMPDEST DUP2 MLOAD PUSH1 0x1 PUSH1 0x1 PUSH1 0x40 SHL SUB DUP2 GT ISZERO PUSH2 0xA5A1 JUMPI PUSH1 0x0 DUP1 REVERT JUMPDEST PUSH2 0x19C8 DUP5 DUP3 DUP6 ADD PUSH2 0x9722 JUMP JUMPDEST PUSH1 0x0 PUSH1 0x20 DUP3 DUP5 SUB SLT ISZERO PUSH2 0xA5BF JUMPI PUSH1 0x0 DUP1 REVERT JUMPDEST PUSH1 0x0 PUSH2 0x19C8 DUP5 DUP5 PUSH2 0x9802 JUMP JUMPDEST PUSH1 0x0 PUSH1 0x20 DUP3 DUP5 SUB SLT ISZERO PUSH2 0xA5DD JUMPI PUSH1 0x0 DUP1 REVERT JUMPDEST PUSH1 0x0 PUSH2 0x19C8 DUP5 DUP5 PUSH2 0x9818 JUMP JUMPDEST PUSH1 0x0 PUSH1 0x20 DUP3 DUP5 SUB SLT ISZERO PUSH2 0xA5FB JUMPI PUSH1 0x0 DUP1 REVERT JUMPDEST DUP2 MLOAD PUSH1 0x1 PUSH1 0x1 PUSH1 0x40 SHL SUB DUP2 GT ISZERO PUSH2 0xA611 JUMPI PUSH1 0x0 DUP1 REVERT JUMPDEST PUSH2 0x19C8 DUP5 DUP3 DUP6 ADD PUSH2 0x987F JUMP JUMPDEST PUSH1 0x0 DUP1 PUSH1 0x0 DUP1 PUSH1 0x80 DUP6 DUP8 SUB SLT ISZERO PUSH2 0xA633 JUMPI PUSH1 0x0 DUP1 REVERT JUMPDEST PUSH1 0x0 PUSH2 0xA63F DUP8 DUP8 PUSH2 0x98C5 JUMP JUMPDEST SWAP5 POP POP PUSH1 0x20 DUP6 ADD CALLDATALOAD PUSH1 0x1 PUSH1 0x1 PUSH1 0x40 SHL SUB DUP2 GT ISZERO PUSH2 0xA65B JUMPI PUSH1 0x0 DUP1 REVERT JUMPDEST PUSH2 0xA188 DUP8 DUP3 DUP9 ADD PUSH2 0x94FF JUMP JUMPDEST PUSH1 0x0 DUP1 PUSH1 0x0 DUP1 PUSH1 0x80 DUP6 DUP8 SUB SLT ISZERO PUSH2 0xA67D JUMPI PUSH1 0x0 DUP1 REVERT JUMPDEST PUSH1 0x0 PUSH2 0xA689 DUP8 DUP8 PUSH2 0x98C5 JUMP JUMPDEST SWAP5 POP POP PUSH1 0x20 PUSH2 0xA69A DUP8 DUP3 DUP9 ADD PUSH2 0x98C5 JUMP JUMPDEST SWAP4 POP POP PUSH1 0x40 PUSH2 0xA0D8 DUP8 DUP3 DUP9 ADD PUSH2 0x98C5 JUMP JUMPDEST PUSH1 0x0 PUSH1 0x20 DUP3 DUP5 SUB SLT ISZERO PUSH2 0xA6BD JUMPI PUSH1 0x0 DUP1 REVERT JUMPDEST PUSH1 0x0 PUSH2 0x19C8 DUP5 DUP5 PUSH2 0x98D0 JUMP JUMPDEST PUSH1 0x0 DUP1 PUSH1 0x0 PUSH1 0x60 DUP5 DUP7 SUB SLT ISZERO PUSH2 0xA6DE JUMPI PUSH1 0x0 DUP1 REVERT JUMPDEST PUSH1 0x0 PUSH2 0xA6EA DUP7 DUP7 PUSH2 0x98C5 JUMP JUMPDEST SWAP4 POP POP PUSH1 0x20 DUP5 ADD CALLDATALOAD PUSH1 0x1 PUSH1 0x1 PUSH1 0x40 SHL SUB DUP2 GT ISZERO PUSH2 0xA706 JUMPI PUSH1 0x0 DUP1 REVERT JUMPDEST PUSH2 0xA1F9 DUP7 DUP3 DUP8 ADD PUSH2 0x941F JUMP JUMPDEST PUSH1 0x0 PUSH1 0x20 DUP3 DUP5 SUB SLT ISZERO PUSH2 0xA724 JUMPI PUSH1 0x0 DUP1 REVERT JUMPDEST PUSH1 0x0 PUSH2 0x19C8 DUP5 DUP5 PUSH2 0x9907 JUMP JUMPDEST PUSH1 0x0 DUP1 PUSH1 0x80 DUP4 DUP6 SUB SLT ISZERO PUSH2 0xA743 JUMPI PUSH1 0x0 DUP1 REVERT JUMPDEST PUSH1 0x0 PUSH2 0xA74F DUP6 DUP6 PUSH2 0x9907 JUMP JUMPDEST SWAP3 POP POP PUSH1 0x20 PUSH2 0x9EF4 DUP6 DUP3 DUP7 ADD PUSH2 0x9AA0 JUMP JUMPDEST PUSH1 0x0 DUP1 PUSH1 0x0 DUP1 PUSH1 0xA0 DUP6 DUP8 SUB SLT ISZERO PUSH2 0xA776 JUMPI PUSH1 0x0 DUP1 REVERT JUMPDEST PUSH1 0x0 PUSH2 0xA782 DUP8 DUP8 PUSH2 0x9912 JUMP JUMPDEST SWAP5 POP POP PUSH1 0x40 PUSH2 0xA793 DUP8 DUP3 DUP9 ADD PUSH2 0x91A8 JUMP JUMPDEST SWAP4 POP POP PUSH1 0x60 PUSH2 0xA7A4 DUP8 DUP3 DUP9 ADD PUSH2 0x91A8 JUMP JUMPDEST SWAP3 POP POP PUSH1 0x80 DUP6 ADD CALLDATALOAD PUSH1 0x1 PUSH1 0x1 PUSH1 0x40 SHL SUB DUP2 GT ISZERO PUSH2 0xA0F4 JUMPI PUSH1 0x0 DUP1 REVERT JUMPDEST PUSH1 0x0 DUP1 PUSH1 0x0 DUP1 PUSH1 0x80 DUP6 DUP8 SUB SLT ISZERO PUSH2 0xA7D6 JUMPI PUSH1 0x0 DUP1 REVERT JUMPDEST DUP5 CALLDATALOAD PUSH1 0x1 PUSH1 0x1 PUSH1 0x40 SHL SUB DUP2 GT ISZERO PUSH2 0xA7EC JUMPI PUSH1 0x0 DUP1 REVERT JUMPDEST PUSH2 0xA0B6 DUP8 DUP3 DUP9 ADD PUSH2 0x9959 JUMP JUMPDEST PUSH1 0x0 DUP1 PUSH1 0x0 DUP1 PUSH1 0xC0 DUP6 DUP8 SUB SLT ISZERO PUSH2 0xA80E JUMPI PUSH1 0x0 DUP1 REVERT JUMPDEST PUSH1 0x0 PUSH2 0xA81A DUP8 DUP8 PUSH2 0x9A45 JUMP JUMPDEST SWAP5 POP POP PUSH1 0x60 PUSH2 0xA82B DUP8 DUP3 DUP9 ADD PUSH2 0x98FC JUMP JUMPDEST SWAP4 POP POP PUSH1 0x80 PUSH2 0xA83C DUP8 DUP3 DUP9 ADD PUSH2 0x98FC JUMP JUMPDEST SWAP3 POP POP PUSH1 0xA0 DUP6 ADD CALLDATALOAD PUSH1 0x1 PUSH1 0x1 PUSH1 0x40 SHL SUB DUP2 GT ISZERO PUSH2 0xA0F4 JUMPI PUSH1 0x0 DUP1 REVERT JUMPDEST PUSH1 0x0 DUP1 PUSH1 0x0 DUP1 PUSH1 0xA0 DUP6 DUP8 SUB SLT ISZERO PUSH2 0xA86E JUMPI PUSH1 0x0 DUP1 REVERT JUMPDEST PUSH1 0x0 PUSH2 0xA782 DUP8 DUP8 PUSH2 0x9AEF JUMP JUMPDEST PUSH1 0x0 DUP1 PUSH1 0x0 DUP1 PUSH1 0x80 DUP6 DUP8 SUB SLT ISZERO PUSH2 0xA890 JUMPI PUSH1 0x0 DUP1 REVERT JUMPDEST DUP5 CALLDATALOAD PUSH1 0x1 PUSH1 0x1 PUSH1 0x40 SHL SUB DUP2 GT ISZERO PUSH2 0xA8A6 JUMPI PUSH1 0x0 DUP1 REVERT JUMPDEST PUSH2 0xA0B6 DUP8 DUP3 DUP9 ADD PUSH2 0x9B19 JUMP JUMPDEST PUSH1 0x0 DUP1 PUSH1 0x0 DUP1 PUSH1 0x80 DUP6 DUP8 SUB SLT ISZERO PUSH2 0xA8C8 JUMPI PUSH1 0x0 DUP1 REVERT JUMPDEST DUP5 CALLDATALOAD PUSH1 0x1 PUSH1 0x1 PUSH1 0x40 SHL SUB DUP2 GT ISZERO PUSH2 0xA8DE JUMPI PUSH1 0x0 DUP1 REVERT JUMPDEST PUSH2 0xA122 DUP8 DUP3 DUP9 ADD PUSH2 0x9B19 JUMP JUMPDEST PUSH1 0x0 DUP1 PUSH1 0x0 DUP1 PUSH1 0x80 DUP6 DUP8 SUB SLT ISZERO PUSH2 0xA900 JUMPI PUSH1 0x0 DUP1 REVERT JUMPDEST DUP5 CALLDATALOAD PUSH1 0x1 PUSH1 0x1 PUSH1 0x40 SHL SUB DUP2 GT ISZERO PUSH2 0xA916 JUMPI PUSH1 0x0 DUP1 REVERT JUMPDEST PUSH2 0xA922 DUP8 DUP3 DUP9 ADD PUSH2 0x9B19 JUMP JUMPDEST SWAP5 POP POP PUSH1 0x20 PUSH2 0xA933 DUP8 DUP3 DUP9 ADD PUSH2 0x980D JUMP JUMPDEST SWAP4 POP POP PUSH1 0x40 PUSH2 0xA944 DUP8 DUP3 DUP9 ADD PUSH2 0x91A8 JUMP JUMPDEST SWAP3 POP POP PUSH1 0x60 PUSH2 0x9F53 DUP8 DUP3 DUP9 ADD PUSH2 0x91A8 JUMP JUMPDEST PUSH1 0x0 DUP1 PUSH1 0x0 PUSH2 0x220 DUP5 DUP7 SUB SLT ISZERO PUSH2 0xA96B JUMPI PUSH1 0x0 DUP1 REVERT JUMPDEST PUSH1 0x0 PUSH2 0xA977 DUP7 DUP7 PUSH2 0x9C0A JUMP JUMPDEST SWAP4 POP POP PUSH2 0x180 PUSH2 0xA989 DUP7 DUP3 DUP8 ADD PUSH2 0x9DC1 JUMP JUMPDEST SWAP3 POP POP PUSH2 0x200 PUSH2 0x9FB9 DUP7 DUP3 DUP8 ADD PUSH2 0x98C5 JUMP JUMPDEST PUSH1 0x0 DUP1 PUSH1 0x0 DUP1 PUSH1 0xC0 DUP6 DUP8 SUB SLT ISZERO PUSH2 0xA9B1 JUMPI PUSH1 0x0 DUP1 REVERT JUMPDEST PUSH1 0x0 PUSH2 0xA9BD DUP8 DUP8 PUSH2 0x9D23 JUMP JUMPDEST SWAP5 POP POP PUSH1 0x60 PUSH2 0xA9CE DUP8 DUP3 DUP9 ADD PUSH2 0x91A8 JUMP JUMPDEST SWAP4 POP POP PUSH1 0x80 PUSH2 0xA83C DUP8 DUP3 DUP9 ADD PUSH2 0x91A8 JUMP JUMPDEST PUSH1 0x0 DUP1 PUSH1 0x0 PUSH1 0xA0 DUP5 DUP7 SUB SLT ISZERO PUSH2 0xA9F4 JUMPI PUSH1 0x0 DUP1 REVERT JUMPDEST PUSH1 0x0 PUSH2 0xAA00 DUP7 DUP7 PUSH2 0x9D72 JUMP JUMPDEST SWAP4 POP POP PUSH1 0x60 PUSH2 0xAA11 DUP7 DUP3 DUP8 ADD PUSH2 0x9E3B JUMP JUMPDEST SWAP3 POP POP PUSH1 0x80 PUSH2 0x9FB9 DUP7 DUP3 DUP8 ADD PUSH2 0x9802 JUMP JUMPDEST PUSH1 0x0 PUSH1 0x20 DUP3 DUP5 SUB SLT ISZERO PUSH2 0xAA34 JUMPI PUSH1 0x0 DUP1 REVERT JUMPDEST PUSH1 0x0 PUSH2 0x19C8 DUP5 DUP5 PUSH2 0x9E51 JUMP JUMPDEST PUSH1 0x0 DUP1 PUSH1 0x0 DUP1 PUSH1 0x80 DUP6 DUP8 SUB SLT ISZERO PUSH2 0xAA56 JUMPI PUSH1 0x0 DUP1 REVERT JUMPDEST PUSH1 0x0 PUSH2 0xAA62 DUP8 DUP8 PUSH2 0x9818 JUMP JUMPDEST SWAP5 POP POP PUSH1 0x20 DUP6 ADD MLOAD PUSH1 0x1 PUSH1 0x1 PUSH1 0x40 SHL SUB DUP2 GT ISZERO PUSH2 0xAA7E JUMPI PUSH1 0x0 DUP1 REVERT JUMPDEST PUSH2 0xAA8A DUP8 DUP3 DUP9 ADD PUSH2 0x9642 JUMP JUMPDEST SWAP4 POP POP PUSH1 0x40 DUP6 ADD MLOAD PUSH1 0x1 PUSH1 0x1 PUSH1 0x40 SHL SUB DUP2 GT ISZERO PUSH2 0xAAA6 JUMPI PUSH1 0x0 DUP1 REVERT JUMPDEST PUSH2 0xAAB2 DUP8 DUP3 DUP9 ADD PUSH2 0x9792 JUMP JUMPDEST SWAP3 POP POP PUSH1 0x60 PUSH2 0x9F53 DUP8 DUP3 DUP9 ADD PUSH2 0x9818 JUMP JUMPDEST PUSH1 0x0 DUP1 PUSH1 0x40 DUP4 DUP6 SUB SLT ISZERO PUSH2 0xAAD6 JUMPI PUSH1 0x0 DUP1 REVERT JUMPDEST PUSH1 0x0 PUSH2 0xAAE2 DUP6 DUP6 PUSH2 0x9818 JUMP JUMPDEST SWAP3 POP POP PUSH1 0x20 PUSH2 0x9EF4 DUP6 DUP3 DUP7 ADD PUSH2 0x9818 JUMP JUMPDEST PUSH1 0x0 DUP1 PUSH1 0x0 DUP1 PUSH1 0x80 DUP6 DUP8 SUB SLT ISZERO PUSH2 0xAB09 JUMPI PUSH1 0x0 DUP1 REVERT JUMPDEST PUSH1 0x0 PUSH2 0xAB15 DUP8 DUP8 PUSH2 0x9818 JUMP JUMPDEST SWAP5 POP POP PUSH1 0x20 PUSH2 0xAB26 DUP8 DUP3 DUP9 ADD PUSH2 0x9818 JUMP JUMPDEST SWAP4 POP POP PUSH1 0x40 PUSH2 0xAAB2 DUP8 DUP3 DUP9 ADD PUSH2 0x9818 JUMP JUMPDEST PUSH1 0x0 DUP1 PUSH1 0x0 DUP1 PUSH1 0x0 PUSH1 0xA0 DUP7 DUP9 SUB SLT ISZERO PUSH2 0xAB4F JUMPI PUSH1 0x0 DUP1 REVERT JUMPDEST PUSH1 0x0 PUSH2 0xAB5B DUP9 DUP9 PUSH2 0x9818 JUMP JUMPDEST SWAP6 POP POP PUSH1 0x20 PUSH2 0xAB6C DUP9 DUP3 DUP10 ADD PUSH2 0x9818 JUMP JUMPDEST SWAP5 POP POP PUSH1 0x40 PUSH2 0xAB7D DUP9 DUP3 DUP10 ADD PUSH2 0x9818 JUMP JUMPDEST SWAP4 POP POP PUSH1 0x60 PUSH2 0xAB8E DUP9 DUP3 DUP10 ADD PUSH2 0x9818 JUMP JUMPDEST SWAP3 POP POP PUSH1 0x80 PUSH2 0xA2A0 DUP9 DUP3 DUP10 ADD PUSH2 0x9818 JUMP JUMPDEST PUSH1 0x0 PUSH1 0x20 DUP3 DUP5 SUB SLT ISZERO PUSH2 0xABB1 JUMPI PUSH1 0x0 DUP1 REVERT JUMPDEST PUSH1 0x0 PUSH2 0x19C8 DUP5 DUP5 PUSH2 0x9E7D JUMP JUMPDEST PUSH1 0x0 PUSH2 0xABC9 DUP4 DUP4 PUSH2 0xAC10 JUMP JUMPDEST POP POP PUSH1 0x20 ADD SWAP1 JUMP JUMPDEST PUSH1 0x0 PUSH2 0xABC9 DUP4 DUP4 PUSH2 0xAE47 JUMP JUMPDEST PUSH1 0x0 PUSH2 0x378F DUP4 DUP4 PUSH2 0xAE78 JUMP JUMPDEST PUSH1 0x0 PUSH2 0x378F DUP4 DUP4 PUSH2 0xAFE9 JUMP JUMPDEST PUSH1 0x0 PUSH2 0x378F DUP4 DUP4 PUSH2 0xB04E JUMP JUMPDEST PUSH2 0xAC0A DUP2 PUSH2 0xBB92 JUMP JUMPDEST DUP3 MSTORE POP POP JUMP JUMPDEST PUSH2 0xAC0A DUP2 PUSH2 0xBB08 JUMP JUMPDEST PUSH1 0x0 PUSH2 0xAC24 DUP3 PUSH2 0xBAFB JUMP JUMPDEST PUSH2 0xAC2E DUP2 DUP6 PUSH2 0xBAFF JUMP JUMPDEST SWAP4 POP PUSH2 0xAC39 DUP4 PUSH2 0xBAF5 JUMP JUMPDEST DUP1 PUSH1 0x0 JUMPDEST DUP4 DUP2 LT ISZERO PUSH2 0xAC67 JUMPI DUP2 MLOAD PUSH2 0xAC51 DUP9 DUP3 PUSH2 0xABBD JUMP JUMPDEST SWAP8 POP PUSH2 0xAC5C DUP4 PUSH2 0xBAF5 JUMP JUMPDEST SWAP3 POP POP PUSH1 0x1 ADD PUSH2 0xAC3D JUMP JUMPDEST POP SWAP5 SWAP6 SWAP5 POP POP POP POP POP JUMP JUMPDEST PUSH1 0x0 PUSH2 0xAC7D DUP3 PUSH2 0xBAFB JUMP JUMPDEST PUSH2 0xAC87 DUP2 DUP6 PUSH2 0xBAFF JUMP JUMPDEST SWAP4 POP PUSH2 0xAC92 DUP4 PUSH2 0xBAF5 JUMP JUMPDEST DUP1 PUSH1 0x0 JUMPDEST DUP4 DUP2 LT ISZERO PUSH2 0xAC67 JUMPI DUP2 MLOAD PUSH2 0xACAA DUP9 DUP3 PUSH2 0xABD1 JUMP JUMPDEST SWAP8 POP PUSH2 0xACB5 DUP4 PUSH2 0xBAF5 JUMP JUMPDEST SWAP3 POP POP PUSH1 0x1 ADD PUSH2 0xAC96 JUMP JUMPDEST PUSH1 0x0 PUSH2 0xACCB DUP3 PUSH2 0xBAFB JUMP JUMPDEST PUSH2 0xACD5 DUP2 DUP6 PUSH2 0xBAFF JUMP JUMPDEST SWAP4 POP DUP4 PUSH1 0x20 DUP3 MUL DUP6 ADD PUSH2 0xACE7 DUP6 PUSH2 0xBAF5 JUMP JUMPDEST DUP1 PUSH1 0x0 JUMPDEST DUP6 DUP2 LT ISZERO PUSH2 0xAD21 JUMPI DUP5 DUP5 SUB DUP10 MSTORE DUP2 MLOAD PUSH2 0xAD04 DUP6 DUP3 PUSH2 0xABDD JUMP JUMPDEST SWAP5 POP PUSH2 0xAD0F DUP4 PUSH2 0xBAF5 JUMP JUMPDEST PUSH1 0x20 SWAP11 SWAP1 SWAP11 ADD SWAP10 SWAP3 POP POP PUSH1 0x1 ADD PUSH2 0xACEB JUMP JUMPDEST POP SWAP2 SWAP8 SWAP7 POP POP POP POP POP POP POP JUMP JUMPDEST PUSH1 0x0 PUSH2 0xAD39 DUP3 PUSH2 0xBAFB JUMP JUMPDEST PUSH2 0xAD43 DUP2 DUP6 PUSH2 0xBAFF JUMP JUMPDEST SWAP4 POP DUP4 PUSH1 0x20 DUP3 MUL DUP6 ADD PUSH2 0xAD55 DUP6 PUSH2 0xBAF5 JUMP JUMPDEST DUP1 PUSH1 0x0 JUMPDEST DUP6 DUP2 LT ISZERO PUSH2 0xAD21 JUMPI DUP5 DUP5 SUB DUP10 MSTORE DUP2 MLOAD PUSH2 0xAD72 DUP6 DUP3 PUSH2 0xABE9 JUMP JUMPDEST SWAP5 POP PUSH2 0xAD7D DUP4 PUSH2 0xBAF5 JUMP JUMPDEST PUSH1 0x20 SWAP11 SWAP1 SWAP11 ADD SWAP10 SWAP3 POP POP PUSH1 0x1 ADD PUSH2 0xAD59 JUMP JUMPDEST PUSH1 0x0 PUSH2 0xAD9A DUP3 PUSH2 0xBAFB JUMP JUMPDEST PUSH2 0xADA4 DUP2 DUP6 PUSH2 0xBAFF JUMP JUMPDEST SWAP4 POP DUP4 PUSH1 0x20 DUP3 MUL DUP6 ADD PUSH2 0xADB6 DUP6 PUSH2 0xBAF5 JUMP JUMPDEST DUP1 PUSH1 0x0 JUMPDEST DUP6 DUP2 LT ISZERO PUSH2 0xAD21 JUMPI DUP5 DUP5 SUB DUP10 MSTORE DUP2 MLOAD PUSH2 0xADD3 DUP6 DUP3 PUSH2 0xABF5 JUMP JUMPDEST SWAP5 POP PUSH2 0xADDE DUP4 PUSH2 0xBAF5 JUMP JUMPDEST PUSH1 0x20 SWAP11 SWAP1 SWAP11 ADD SWAP10 SWAP3 POP POP PUSH1 0x1 ADD PUSH2 0xADBA JUMP JUMPDEST PUSH1 0x0 PUSH2 0xADFB DUP3 PUSH2 0xBAFB JUMP JUMPDEST PUSH2 0xAE05 DUP2 DUP6 PUSH2 0xBAFF JUMP JUMPDEST SWAP4 POP PUSH2 0xAE10 DUP4 PUSH2 0xBAF5 JUMP JUMPDEST DUP1 PUSH1 0x0 JUMPDEST DUP4 DUP2 LT ISZERO PUSH2 0xAC67 JUMPI DUP2 MLOAD PUSH2 0xAE28 DUP9 DUP3 PUSH2 0xABD1 JUMP JUMPDEST SWAP8 POP PUSH2 0xAE33 DUP4 PUSH2 0xBAF5 JUMP JUMPDEST SWAP3 POP POP PUSH1 0x1 ADD PUSH2 0xAE14 JUMP JUMPDEST PUSH2 0xAC0A DUP2 PUSH2 0xBB13 JUMP JUMPDEST PUSH2 0xAC0A DUP2 PUSH2 0xBB18 JUMP JUMPDEST PUSH2 0xAC0A DUP2 PUSH2 0xBB1B JUMP JUMPDEST PUSH1 0x0 PUSH2 0xAE65 DUP4 DUP6 PUSH2 0x1217 JUMP JUMPDEST SWAP4 POP PUSH2 0xAE72 DUP4 DUP6 DUP5 PUSH2 0xBBC9 JUMP JUMPDEST POP POP ADD SWAP1 JUMP JUMPDEST PUSH1 0x0 PUSH2 0xAE83 DUP3 PUSH2 0xBAFB JUMP JUMPDEST PUSH2 0xAE8D DUP2 DUP6 PUSH2 0xBAFF JUMP JUMPDEST SWAP4 POP PUSH2 0xAE9D DUP2 DUP6 PUSH1 0x20 DUP7 ADD PUSH2 0xBBD5 JUMP JUMPDEST PUSH2 0xAEA6 DUP2 PUSH2 0xBC01 JUMP JUMPDEST SWAP1 SWAP4 ADD SWAP4 SWAP3 POP POP POP JUMP JUMPDEST PUSH1 0x0 PUSH2 0xAEBB DUP3 PUSH2 0xBAFB JUMP JUMPDEST PUSH2 0xAEC5 DUP2 DUP6 PUSH2 0x1217 JUMP JUMPDEST SWAP4 POP PUSH2 0xAED5 DUP2 DUP6 PUSH1 0x20 DUP7 ADD PUSH2 0xBBD5 JUMP JUMPDEST SWAP3 SWAP1 SWAP3 ADD SWAP3 SWAP2 POP POP JUMP JUMPDEST PUSH2 0xAC0A DUP2 PUSH2 0xBB28 JUMP JUMPDEST PUSH2 0xAC0A DUP2 PUSH2 0xBB9D JUMP JUMPDEST PUSH2 0xAC0A DUP2 PUSH2 0xBBA8 JUMP JUMPDEST PUSH2 0xAC0A DUP2 PUSH2 0xBBB3 JUMP JUMPDEST PUSH2 0xAC0A DUP2 PUSH2 0xBB51 JUMP JUMPDEST PUSH2 0xAC0A DUP2 PUSH2 0xBBBE JUMP JUMPDEST PUSH1 0x0 PUSH2 0xAF22 PUSH1 0x24 DUP4 PUSH2 0xBAFF JUMP JUMPDEST PUSH32 0x556E6973776170563353616D706C65722F746F6B656E5061746820746F6F2073 DUP2 MSTORE PUSH4 0x1A1BDC9D PUSH1 0xE2 SHL PUSH1 0x20 DUP3 ADD MSTORE PUSH1 0x40 ADD SWAP3 SWAP2 POP POP JUMP JUMPDEST PUSH1 0x0 PUSH2 0xAF68 PUSH1 0x25 DUP4 PUSH2 0xBAFF JUMP JUMPDEST PUSH32 0x455243323042726964676553616D706C65722F494E56414C49445F544F4B454E DUP2 MSTORE PUSH5 0x2FA820A4A9 PUSH1 0xD9 SHL PUSH1 0x20 DUP3 ADD MSTORE PUSH1 0x40 ADD SWAP3 SWAP2 POP POP JUMP JUMPDEST PUSH1 0x0 PUSH2 0xAFAF PUSH1 0x25 DUP4 PUSH2 0xBAFF JUMP JUMPDEST PUSH32 0x556E6973776170563353616D706C65722F696E76616C69642070617468206C65 DUP2 MSTORE PUSH5 0x6E67746873 PUSH1 0xD8 SHL PUSH1 0x20 DUP3 ADD MSTORE PUSH1 0x40 ADD SWAP3 SWAP2 POP POP JUMP JUMPDEST DUP1 MLOAD PUSH1 0x0 SWAP1 PUSH1 0xA0 DUP5 ADD SWAP1 PUSH2 0xAFFD DUP6 DUP3 PUSH2 0xAE47 JUMP JUMPDEST POP PUSH1 0x20 DUP4 ADD MLOAD PUSH2 0xB010 PUSH1 0x20 DUP7 ADD DUP3 PUSH2 0xAE47 JUMP JUMPDEST POP PUSH1 0x40 DUP4 ADD MLOAD PUSH2 0xB023 PUSH1 0x40 DUP7 ADD DUP3 PUSH2 0xAE47 JUMP JUMPDEST POP PUSH1 0x60 DUP4 ADD MLOAD PUSH2 0xB036 PUSH1 0x60 DUP7 ADD DUP3 PUSH2 0xAE47 JUMP JUMPDEST POP PUSH1 0x80 DUP4 ADD MLOAD DUP5 DUP3 SUB PUSH1 0x80 DUP7 ADD MSTORE PUSH2 0x1A36 DUP3 DUP3 PUSH2 0xAE78 JUMP JUMPDEST DUP1 MLOAD PUSH1 0x40 DUP1 DUP5 MSTORE PUSH1 0x0 SWAP2 SWAP1 DUP5 ADD SWAP1 PUSH2 0xB066 DUP3 DUP3 PUSH2 0xAE78 JUMP JUMPDEST SWAP2 POP POP PUSH1 0x20 DUP4 ADD MLOAD PUSH2 0x10AA PUSH1 0x20 DUP7 ADD DUP3 PUSH2 0xAE3E JUMP JUMPDEST DUP1 MLOAD PUSH1 0x60 DUP4 ADD SWAP1 PUSH2 0xB08C DUP5 DUP3 PUSH2 0xAC10 JUMP JUMPDEST POP PUSH1 0x20 DUP3 ADD MLOAD PUSH2 0xB09F PUSH1 0x20 DUP6 ADD DUP3 PUSH2 0xAE50 JUMP JUMPDEST POP PUSH1 0x40 DUP3 ADD MLOAD PUSH2 0xB0B2 PUSH1 0x40 DUP6 ADD DUP3 PUSH2 0xAE50 JUMP JUMPDEST POP POP POP POP JUMP JUMPDEST DUP1 MLOAD PUSH1 0x80 DUP4 ADD SWAP1 PUSH2 0xB0C9 DUP5 DUP3 PUSH2 0xAC10 JUMP JUMPDEST POP PUSH1 0x20 DUP3 ADD MLOAD PUSH2 0xB0DC PUSH1 0x20 DUP6 ADD DUP3 PUSH2 0xAE3E JUMP JUMPDEST POP PUSH1 0x40 DUP3 ADD MLOAD PUSH2 0xB0EF PUSH1 0x40 DUP6 ADD DUP3 PUSH2 0xAC10 JUMP JUMPDEST POP PUSH1 0x60 DUP3 ADD MLOAD PUSH2 0xB0B2 PUSH1 0x60 DUP6 ADD DUP3 PUSH2 0xAE3E JUMP JUMPDEST DUP1 MLOAD PUSH1 0x0 SWAP1 PUSH1 0x40 DUP5 ADD SWAP1 PUSH2 0xB116 DUP6 DUP3 PUSH2 0xAE47 JUMP JUMPDEST POP PUSH1 0x20 DUP4 ADD MLOAD DUP5 DUP3 SUB PUSH1 0x20 DUP7 ADD MSTORE PUSH2 0x1A36 DUP3 DUP3 PUSH2 0xAE78 JUMP JUMPDEST DUP1 MLOAD PUSH1 0x0 SWAP1 PUSH1 0xA0 DUP5 ADD SWAP1 PUSH2 0xB142 DUP6 DUP3 PUSH2 0xAE47 JUMP JUMPDEST POP PUSH1 0x20 DUP4 ADD MLOAD PUSH2 0xB155 PUSH1 0x20 DUP7 ADD DUP3 PUSH2 0xAC10 JUMP JUMPDEST POP PUSH1 0x40 DUP4 ADD MLOAD PUSH2 0xB168 PUSH1 0x40 DUP7 ADD DUP3 PUSH2 0xAC10 JUMP JUMPDEST POP PUSH1 0x60 DUP4 ADD MLOAD PUSH2 0xB036 PUSH1 0x60 DUP7 ADD DUP3 PUSH2 0xAC10 JUMP JUMPDEST DUP1 MLOAD PUSH2 0x180 DUP4 ADD SWAP1 PUSH2 0xB18D DUP5 DUP3 PUSH2 0xAEDF JUMP JUMPDEST POP PUSH1 0x20 DUP3 ADD MLOAD PUSH2 0xB1A0 PUSH1 0x20 DUP6 ADD DUP3 PUSH2 0xAEDF JUMP JUMPDEST POP PUSH1 0x40 DUP3 ADD MLOAD PUSH2 0xB1B3 PUSH1 0x40 DUP6 ADD DUP3 PUSH2 0xB2B0 JUMP JUMPDEST POP PUSH1 0x60 DUP3 ADD MLOAD PUSH2 0xB1C6 PUSH1 0x60 DUP6 ADD DUP3 PUSH2 0xB2B0 JUMP JUMPDEST POP PUSH1 0x80 DUP3 ADD MLOAD PUSH2 0xB1D9 PUSH1 0x80 DUP6 ADD DUP3 PUSH2 0xB2B0 JUMP JUMPDEST POP PUSH1 0xA0 DUP3 ADD MLOAD PUSH2 0xB1EC PUSH1 0xA0 DUP6 ADD DUP3 PUSH2 0xAC10 JUMP JUMPDEST POP PUSH1 0xC0 DUP3 ADD MLOAD PUSH2 0xB1FF PUSH1 0xC0 DUP6 ADD DUP3 PUSH2 0xAC10 JUMP JUMPDEST POP PUSH1 0xE0 DUP3 ADD MLOAD PUSH2 0xB212 PUSH1 0xE0 DUP6 ADD DUP3 PUSH2 0xAC10 JUMP JUMPDEST POP PUSH2 0x100 DUP3 ADD MLOAD PUSH2 0xB227 PUSH2 0x100 DUP6 ADD DUP3 PUSH2 0xAC10 JUMP JUMPDEST POP PUSH2 0x120 DUP3 ADD MLOAD PUSH2 0xB23C PUSH2 0x120 DUP6 ADD DUP3 PUSH2 0xAE47 JUMP JUMPDEST POP PUSH2 0x140 DUP3 ADD MLOAD PUSH2 0xB251 PUSH2 0x140 DUP6 ADD DUP3 PUSH2 0xB2C2 JUMP JUMPDEST POP PUSH2 0x160 DUP3 ADD MLOAD PUSH2 0xB0B2 PUSH2 0x160 DUP6 ADD DUP3 PUSH2 0xAE47 JUMP JUMPDEST DUP1 MLOAD PUSH1 0x80 DUP4 ADD SWAP1 PUSH2 0xB277 DUP5 DUP3 PUSH2 0xAEE8 JUMP JUMPDEST POP PUSH1 0x20 DUP3 ADD MLOAD PUSH2 0xB28A PUSH1 0x20 DUP6 ADD DUP3 PUSH2 0xB2CB JUMP JUMPDEST POP PUSH1 0x40 DUP3 ADD MLOAD PUSH2 0xB29D PUSH1 0x40 DUP6 ADD DUP3 PUSH2 0xAE47 JUMP JUMPDEST POP PUSH1 0x60 DUP3 ADD MLOAD PUSH2 0xB0B2 PUSH1 0x60 DUP6 ADD DUP3 PUSH2 0xAE47 JUMP JUMPDEST PUSH2 0xAC0A DUP2 PUSH2 0xBB57 JUMP JUMPDEST PUSH2 0xAC0A DUP2 PUSH2 0xBB6F JUMP JUMPDEST PUSH2 0xAC0A DUP2 PUSH2 0xBB80 JUMP JUMPDEST PUSH2 0xAC0A DUP2 PUSH2 0xBB8C JUMP JUMPDEST PUSH1 0x0 PUSH2 0x19C8 DUP3 DUP5 DUP7 PUSH2 0xAE59 JUMP JUMPDEST PUSH1 0x0 PUSH2 0x378F DUP3 DUP5 PUSH2 0xAEB0 JUMP JUMPDEST PUSH1 0x20 DUP2 ADD PUSH2 0x6B0B DUP3 DUP5 PUSH2 0xAC10 JUMP JUMPDEST PUSH1 0x40 DUP2 ADD PUSH2 0xB309 DUP3 DUP6 PUSH2 0xAC01 JUMP JUMPDEST PUSH2 0x378F PUSH1 0x20 DUP4 ADD DUP5 PUSH2 0xAE47 JUMP JUMPDEST PUSH1 0x40 DUP2 ADD PUSH2 0xB324 DUP3 DUP6 PUSH2 0xAC10 JUMP JUMPDEST PUSH2 0x378F PUSH1 0x20 DUP4 ADD DUP5 PUSH2 0xAC10 JUMP JUMPDEST PUSH1 0x80 DUP2 ADD PUSH2 0xB33F DUP3 DUP8 PUSH2 0xAC10 JUMP JUMPDEST PUSH2 0xB34C PUSH1 0x20 DUP4 ADD DUP7 PUSH2 0xAC10 JUMP JUMPDEST PUSH2 0xB359 PUSH1 0x40 DUP4 ADD DUP6 PUSH2 0xAC10 JUMP JUMPDEST PUSH2 0x1A36 PUSH1 0x60 DUP4 ADD DUP5 PUSH2 0xAC10 JUMP JUMPDEST PUSH1 0x80 DUP2 ADD PUSH2 0xB374 DUP3 DUP8 PUSH2 0xAC10 JUMP JUMPDEST PUSH2 0xB381 PUSH1 0x20 DUP4 ADD DUP7 PUSH2 0xAC10 JUMP JUMPDEST PUSH2 0xB38E PUSH1 0x40 DUP4 ADD DUP6 PUSH2 0xAC10 JUMP JUMPDEST DUP2 DUP2 SUB PUSH1 0x60 DUP4 ADD MSTORE PUSH2 0x3AEB DUP2 DUP5 PUSH2 0xADF0 JUMP JUMPDEST PUSH1 0x60 DUP2 ADD PUSH2 0xB3AE DUP3 DUP7 PUSH2 0xAC10 JUMP JUMPDEST PUSH2 0xB3BB PUSH1 0x20 DUP4 ADD DUP6 PUSH2 0xAC10 JUMP JUMPDEST DUP2 DUP2 SUB PUSH1 0x40 DUP4 ADD MSTORE PUSH2 0x1A36 DUP2 DUP5 PUSH2 0xAC19 JUMP JUMPDEST PUSH1 0x80 DUP2 ADD PUSH2 0xB3DB DUP3 DUP8 PUSH2 0xAC10 JUMP JUMPDEST PUSH2 0xB3E8 PUSH1 0x20 DUP4 ADD DUP7 PUSH2 0xAC10 JUMP JUMPDEST DUP2 DUP2 SUB PUSH1 0x40 DUP4 ADD MSTORE PUSH2 0xB3FA DUP2 DUP6 PUSH2 0xAC19 JUMP JUMPDEST SWAP1 POP DUP2 DUP2 SUB PUSH1 0x60 DUP4 ADD MSTORE PUSH2 0x3AEB DUP2 DUP5 PUSH2 0xADF0 JUMP JUMPDEST PUSH1 0x60 DUP2 ADD PUSH2 0xB41C DUP3 DUP7 PUSH2 0xAC10 JUMP JUMPDEST PUSH2 0xB429 PUSH1 0x20 DUP4 ADD DUP6 PUSH2 0xAC10 JUMP JUMPDEST PUSH2 0x19C8 PUSH1 0x40 DUP4 ADD DUP5 PUSH2 0xAE3E JUMP JUMPDEST PUSH1 0x80 DUP2 ADD PUSH2 0xB444 DUP3 DUP8 PUSH2 0xAC10 JUMP JUMPDEST PUSH2 0xB451 PUSH1 0x20 DUP4 ADD DUP7 PUSH2 0xAC10 JUMP JUMPDEST PUSH2 0xB45E PUSH1 0x40 DUP4 ADD DUP6 PUSH2 0xAE3E JUMP JUMPDEST DUP2 DUP2 SUB PUSH1 0x60 DUP4 ADD MSTORE PUSH2 0x3AEB DUP2 DUP5 PUSH2 0xAE78 JUMP JUMPDEST PUSH1 0x60 DUP2 ADD PUSH2 0xB47E DUP3 DUP7 PUSH2 0xAC10 JUMP JUMPDEST PUSH2 0xB48B PUSH1 0x20 DUP4 ADD DUP6 PUSH2 0xAC10 JUMP JUMPDEST PUSH2 0x19C8 PUSH1 0x40 DUP4 ADD DUP5 PUSH2 0xAE47 JUMP JUMPDEST PUSH1 0xA0 DUP2 ADD PUSH2 0xB4A6 DUP3 DUP9 PUSH2 0xAC10 JUMP JUMPDEST PUSH2 0xB4B3 PUSH1 0x20 DUP4 ADD DUP8 PUSH2 0xAC10 JUMP JUMPDEST PUSH2 0xB4C0 PUSH1 0x40 DUP4 ADD DUP7 PUSH2 0xAE47 JUMP JUMPDEST PUSH2 0xB4CD PUSH1 0x60 DUP4 ADD DUP6 PUSH2 0xAF0C JUMP JUMPDEST DUP2 DUP2 SUB PUSH1 0x80 DUP4 ADD MSTORE PUSH2 0xB4DF DUP2 DUP5 PUSH2 0xAE78 JUMP JUMPDEST SWAP8 SWAP7 POP POP POP POP POP POP POP JUMP JUMPDEST PUSH1 0x40 DUP2 ADD PUSH2 0xB4F8 DUP3 DUP6 PUSH2 0xAC10 JUMP JUMPDEST DUP2 DUP2 SUB PUSH1 0x20 DUP4 ADD MSTORE PUSH2 0x19C8 DUP2 DUP5 PUSH2 0xAC19 JUMP JUMPDEST PUSH1 0x60 DUP2 ADD PUSH2 0xB518 DUP3 DUP7 PUSH2 0xAC10 JUMP JUMPDEST DUP2 DUP2 SUB PUSH1 0x20 DUP4 ADD MSTORE PUSH2 0xB52A DUP2 DUP6 PUSH2 0xAC19 JUMP JUMPDEST SWAP1 POP DUP2 DUP2 SUB PUSH1 0x40 DUP4 ADD MSTORE PUSH2 0x1A36 DUP2 DUP5 PUSH2 0xADF0 JUMP JUMPDEST PUSH1 0x80 DUP2 ADD PUSH2 0xB54C DUP3 DUP8 PUSH2 0xAC10 JUMP JUMPDEST PUSH2 0xB559 PUSH1 0x20 DUP4 ADD DUP7 PUSH2 0xAEE8 JUMP JUMPDEST DUP2 DUP2 SUB PUSH1 0x40 DUP4 ADD MSTORE PUSH2 0xB3FA DUP2 DUP6 PUSH2 0xAC72 JUMP JUMPDEST PUSH2 0x100 DUP2 ADD PUSH2 0xB57A DUP3 DUP12 PUSH2 0xAC10 JUMP JUMPDEST PUSH2 0xB587 PUSH1 0x20 DUP4 ADD DUP11 PUSH2 0xAEE8 JUMP JUMPDEST DUP2 DUP2 SUB PUSH1 0x40 DUP4 ADD MSTORE PUSH2 0xB599 DUP2 DUP10 PUSH2 0xAC72 JUMP JUMPDEST SWAP1 POP DUP2 DUP2 SUB PUSH1 0x60 DUP4 ADD MSTORE PUSH2 0xB5AD DUP2 DUP9 PUSH2 0xADF0 JUMP JUMPDEST SWAP1 POP PUSH2 0xB5BC PUSH1 0x80 DUP4 ADD DUP8 PUSH2 0xAC10 JUMP JUMPDEST PUSH2 0xB5C9 PUSH1 0xA0 DUP4 ADD DUP7 PUSH2 0xAEE8 JUMP JUMPDEST DUP2 DUP2 SUB PUSH1 0xC0 DUP4 ADD MSTORE PUSH2 0xB5DB DUP2 DUP6 PUSH2 0xAC72 JUMP JUMPDEST SWAP1 POP DUP2 DUP2 SUB PUSH1 0xE0 DUP4 ADD MSTORE PUSH2 0xB5EF DUP2 DUP5 PUSH2 0xADF0 JUMP JUMPDEST SWAP11 SWAP10 POP POP POP POP POP POP POP POP POP POP JUMP JUMPDEST PUSH1 0x40 DUP2 ADD PUSH2 0xB60B DUP3 DUP6 PUSH2 0xAC10 JUMP JUMPDEST DUP2 DUP2 SUB PUSH1 0x20 DUP4 ADD MSTORE PUSH2 0x19C8 DUP2 DUP5 PUSH2 0xB12E JUMP JUMPDEST PUSH1 0x40 DUP2 ADD PUSH2 0xB309 DUP3 DUP6 PUSH2 0xAC10 JUMP JUMPDEST PUSH1 0x40 DUP1 DUP3 MSTORE DUP2 ADD PUSH2 0xB63C DUP2 DUP6 PUSH2 0xAC19 JUMP JUMPDEST SWAP1 POP DUP2 DUP2 SUB PUSH1 0x20 DUP4 ADD MSTORE PUSH2 0x19C8 DUP2 DUP5 PUSH2 0xADF0 JUMP JUMPDEST PUSH1 0x40 DUP1 DUP3 MSTORE DUP2 ADD PUSH2 0xB661 DUP2 DUP6 PUSH2 0xAC19 JUMP JUMPDEST SWAP1 POP PUSH2 0x378F PUSH1 0x20 DUP4 ADD DUP5 PUSH2 0xAE47 JUMP JUMPDEST PUSH1 0x60 DUP1 DUP3 MSTORE DUP2 ADD PUSH2 0xB681 DUP2 DUP7 PUSH2 0xACC0 JUMP JUMPDEST SWAP1 POP DUP2 DUP2 SUB PUSH1 0x20 DUP4 ADD MSTORE PUSH2 0xB52A DUP2 DUP6 PUSH2 0xADF0 JUMP JUMPDEST PUSH1 0x20 DUP1 DUP3 MSTORE DUP2 ADD PUSH2 0x378F DUP2 DUP5 PUSH2 0xAD8F JUMP JUMPDEST PUSH1 0x20 DUP1 DUP3 MSTORE DUP2 ADD PUSH2 0x378F DUP2 DUP5 PUSH2 0xADF0 JUMP JUMPDEST PUSH1 0x20 DUP2 ADD PUSH2 0x6B0B DUP3 DUP5 PUSH2 0xAE3E JUMP JUMPDEST PUSH1 0x60 DUP2 ADD PUSH2 0xB6D3 DUP3 DUP7 PUSH2 0xAE3E JUMP JUMPDEST PUSH2 0xB6E0 PUSH1 0x20 DUP4 ADD DUP6 PUSH2 0xAC10 JUMP JUMPDEST DUP2 DUP2 SUB PUSH1 0x40 DUP4 ADD MSTORE PUSH2 0x1A36 DUP2 DUP5 PUSH2 0xADF0 JUMP JUMPDEST PUSH1 0x20 DUP2 ADD PUSH2 0x6B0B DUP3 DUP5 PUSH2 0xAE47 JUMP JUMPDEST PUSH1 0x60 DUP2 ADD PUSH2 0xB70E DUP3 DUP7 PUSH2 0xAE47 JUMP JUMPDEST DUP2 DUP2 SUB PUSH1 0x20 DUP4 ADD MSTORE PUSH2 0xB52A DUP2 DUP6 PUSH2 0xAE78 JUMP JUMPDEST PUSH1 0x20 DUP1 DUP3 MSTORE DUP2 ADD PUSH2 0x378F DUP2 DUP5 PUSH2 0xAE78 JUMP JUMPDEST PUSH1 0x40 DUP1 DUP3 MSTORE DUP2 ADD PUSH2 0xB661 DUP2 DUP6 PUSH2 0xAE78 JUMP JUMPDEST PUSH1 0x60 DUP2 ADD PUSH2 0xB750 DUP3 DUP7 PUSH2 0xAEDF JUMP JUMPDEST PUSH2 0xB75D PUSH1 0x20 DUP4 ADD DUP6 PUSH2 0xAEDF JUMP JUMPDEST PUSH2 0x19C8 PUSH1 0x40 DUP4 ADD DUP5 PUSH2 0xB2B9 JUMP JUMPDEST PUSH1 0x60 DUP2 ADD PUSH2 0xB778 DUP3 DUP7 PUSH2 0xAEDF JUMP JUMPDEST PUSH2 0xB48B PUSH1 0x20 DUP4 ADD DUP6 PUSH2 0xAEDF JUMP JUMPDEST PUSH1 0x40 DUP2 ADD PUSH2 0xB793 DUP3 DUP6 PUSH2 0xAEDF JUMP JUMPDEST DUP2 DUP2 SUB PUSH1 0x20 DUP4 ADD MSTORE PUSH2 0x19C8 DUP2 DUP5 PUSH2 0xADF0 JUMP JUMPDEST PUSH1 0x80 DUP2 ADD PUSH2 0xB7B3 DUP3 DUP8 PUSH2 0xAEDF JUMP JUMPDEST PUSH2 0xB7C0 PUSH1 0x20 DUP4 ADD DUP7 PUSH2 0xAC10 JUMP JUMPDEST PUSH2 0xB7CD PUSH1 0x40 DUP4 ADD DUP6 PUSH2 0xAC10 JUMP JUMPDEST PUSH2 0x1A36 PUSH1 0x60 DUP4 ADD DUP5 PUSH2 0xAE47 JUMP JUMPDEST PUSH1 0x60 DUP2 ADD PUSH2 0xB7E8 DUP3 DUP7 PUSH2 0xAEE8 JUMP JUMPDEST PUSH2 0xB48B PUSH1 0x20 DUP4 ADD DUP6 PUSH2 0xAE47 JUMP JUMPDEST PUSH1 0x60 DUP2 ADD PUSH2 0xB7E8 DUP3 DUP7 PUSH2 0xAEF1 JUMP JUMPDEST PUSH1 0xE0 DUP2 ADD PUSH2 0xB811 DUP3 DUP8 PUSH2 0xAEFA JUMP JUMPDEST DUP2 DUP2 SUB PUSH1 0x20 DUP4 ADD MSTORE PUSH2 0xB823 DUP2 DUP7 PUSH2 0xAD2E JUMP JUMPDEST SWAP1 POP DUP2 DUP2 SUB PUSH1 0x40 DUP4 ADD MSTORE PUSH2 0xB837 DUP2 DUP6 PUSH2 0xAC19 JUMP JUMPDEST SWAP1 POP PUSH2 0x1A36 PUSH1 0x60 DUP4 ADD DUP5 PUSH2 0xB0B8 JUMP JUMPDEST PUSH1 0x60 DUP2 ADD PUSH2 0xB854 DUP3 DUP7 PUSH2 0xAF03 JUMP JUMPDEST PUSH2 0xB48B PUSH1 0x20 DUP4 ADD DUP6 PUSH2 0xAF03 JUMP JUMPDEST PUSH1 0x80 DUP2 ADD PUSH2 0xB86F DUP3 DUP6 PUSH2 0xAF03 JUMP JUMPDEST PUSH2 0x378F PUSH1 0x20 DUP4 ADD DUP5 PUSH2 0xB07B JUMP JUMPDEST PUSH1 0x20 DUP1 DUP3 MSTORE DUP2 ADD PUSH2 0x6B0B DUP2 PUSH2 0xAF15 JUMP JUMPDEST PUSH1 0x20 DUP1 DUP3 MSTORE DUP2 ADD PUSH2 0x6B0B DUP2 PUSH2 0xAF5B JUMP JUMPDEST PUSH1 0x20 DUP1 DUP3 MSTORE DUP2 ADD PUSH2 0x6B0B DUP2 PUSH2 0xAFA2 JUMP JUMPDEST PUSH1 0xC0 DUP2 ADD PUSH2 0xB8BA DUP3 DUP8 PUSH2 0xB07B JUMP JUMPDEST PUSH2 0xB8C7 PUSH1 0x60 DUP4 ADD DUP7 PUSH2 0xAF03 JUMP JUMPDEST PUSH2 0xB8D4 PUSH1 0x80 DUP4 ADD DUP6 PUSH2 0xAF03 JUMP JUMPDEST DUP2 DUP2 SUB PUSH1 0xA0 DUP4 ADD MSTORE PUSH2 0x3AEB DUP2 DUP5 PUSH2 0xADF0 JUMP JUMPDEST PUSH1 0x60 DUP1 DUP3 MSTORE DUP2 ADD PUSH2 0xB8F7 DUP2 DUP7 PUSH2 0xB102 JUMP JUMPDEST SWAP1 POP DUP2 DUP2 SUB PUSH1 0x20 DUP4 ADD MSTORE PUSH2 0xB90B DUP2 DUP6 PUSH2 0xB102 JUMP JUMPDEST SWAP1 POP PUSH2 0x19C8 PUSH1 0x40 DUP4 ADD DUP5 PUSH2 0xAE47 JUMP JUMPDEST PUSH1 0x80 DUP1 DUP3 MSTORE DUP2 ADD PUSH2 0xB92B DUP2 DUP8 PUSH2 0xB12E JUMP JUMPDEST SWAP1 POP PUSH2 0xB7C0 PUSH1 0x20 DUP4 ADD DUP7 PUSH2 0xAC10 JUMP JUMPDEST PUSH1 0x80 DUP1 DUP3 MSTORE DUP2 ADD PUSH2 0xB94B DUP2 DUP8 PUSH2 0xB12E JUMP JUMPDEST SWAP1 POP PUSH2 0xB34C PUSH1 0x20 DUP4 ADD DUP7 PUSH2 0xAE47 JUMP JUMPDEST PUSH2 0x200 DUP2 ADD PUSH2 0xB969 DUP3 DUP6 PUSH2 0xB17B JUMP JUMPDEST PUSH2 0x378F PUSH2 0x180 DUP4 ADD DUP5 PUSH2 0xB266 JUMP JUMPDEST PUSH2 0x220 DUP2 ADD PUSH2 0xB986 DUP3 DUP7 PUSH2 0xB17B JUMP JUMPDEST PUSH2 0xB994 PUSH2 0x180 DUP4 ADD DUP6 PUSH2 0xB266 JUMP JUMPDEST PUSH2 0x19C8 PUSH2 0x200 DUP4 ADD DUP5 PUSH2 0xAEDF JUMP JUMPDEST PUSH1 0x40 DUP2 ADD PUSH2 0xB4F8 DUP3 DUP6 PUSH2 0xAE47 JUMP JUMPDEST PUSH1 0x60 DUP2 ADD PUSH2 0xB9BE DUP3 DUP7 PUSH2 0xAE47 JUMP JUMPDEST DUP2 DUP2 SUB PUSH1 0x20 DUP4 ADD MSTORE PUSH2 0xB9D0 DUP2 DUP6 PUSH2 0xAC19 JUMP JUMPDEST SWAP1 POP DUP2 DUP2 SUB PUSH1 0x40 DUP4 ADD MSTORE PUSH2 0x1A36 DUP2 DUP5 PUSH2 0xAC19 JUMP JUMPDEST PUSH1 0xC0 DUP2 ADD PUSH2 0xB9F2 DUP3 DUP10 PUSH2 0xAE47 JUMP JUMPDEST PUSH2 0xB9FF PUSH1 0x20 DUP4 ADD DUP9 PUSH2 0xAE47 JUMP JUMPDEST PUSH2 0xBA0C PUSH1 0x40 DUP4 ADD DUP8 PUSH2 0xAE47 JUMP JUMPDEST PUSH2 0xBA19 PUSH1 0x60 DUP4 ADD DUP7 PUSH2 0xAE47 JUMP JUMPDEST PUSH2 0xBA26 PUSH1 0x80 DUP4 ADD DUP6 PUSH2 0xAE47 JUMP JUMPDEST PUSH2 0xB4DF PUSH1 0xA0 DUP4 ADD DUP5 PUSH2 0xAE47 JUMP JUMPDEST PUSH1 0x0 DUP1 DUP4 CALLDATALOAD PUSH1 0x1E NOT CALLDATASIZE DUP6 SWAP1 SUB ADD DUP2 SLT PUSH2 0xBA4B JUMPI PUSH1 0x0 DUP1 REVERT JUMPDEST DUP1 DUP5 ADD SWAP3 POP DUP3 CALLDATALOAD SWAP2 POP PUSH1 0x1 PUSH1 0x1 PUSH1 0x40 SHL SUB DUP3 GT ISZERO PUSH2 0xBA68 JUMPI PUSH1 0x0 DUP1 REVERT JUMPDEST PUSH1 0x20 DUP4 ADD SWAP3 POP PUSH1 0x1 DUP3 MUL CALLDATASIZE SUB DUP4 SGT ISZERO PUSH2 0xBA80 JUMPI PUSH1 0x0 DUP1 REVERT JUMPDEST POP SWAP3 POP SWAP3 SWAP1 POP JUMP JUMPDEST PUSH1 0x40 MLOAD DUP2 DUP2 ADD PUSH1 0x1 PUSH1 0x1 PUSH1 0x40 SHL SUB DUP2 GT DUP3 DUP3 LT OR ISZERO PUSH2 0xBAA6 JUMPI PUSH1 0x0 DUP1 REVERT JUMPDEST PUSH1 0x40 MSTORE SWAP2 SWAP1 POP JUMP JUMPDEST PUSH1 0x0 PUSH1 0x1 PUSH1 0x1 PUSH1 0x40 SHL SUB DUP3 GT ISZERO PUSH2 0xBAC4 JUMPI PUSH1 0x0 DUP1 REVERT JUMPDEST POP PUSH1 0x20 SWAP1 DUP2 MUL ADD SWAP1 JUMP JUMPDEST PUSH1 0x0 PUSH1 0x1 PUSH1 0x1 PUSH1 0x40 SHL SUB DUP3 GT ISZERO PUSH2 0xBAE4 JUMPI PUSH1 0x0 DUP1 REVERT JUMPDEST POP PUSH1 0x20 PUSH1 0x1F SWAP2 SWAP1 SWAP2 ADD PUSH1 0x1F NOT AND ADD SWAP1 JUMP JUMPDEST PUSH1 0x20 ADD SWAP1 JUMP JUMPDEST MLOAD SWAP1 JUMP JUMPDEST SWAP1 DUP2 MSTORE PUSH1 0x20 ADD SWAP1 JUMP JUMPDEST PUSH1 0x0 PUSH2 0x6B0B DUP3 PUSH2 0xBB63 JUMP JUMPDEST ISZERO ISZERO SWAP1 JUMP JUMPDEST SWAP1 JUMP JUMPDEST PUSH1 0x1 PUSH1 0x1 PUSH1 0xE0 SHL SUB NOT AND SWAP1 JUMP JUMPDEST PUSH1 0x0 PUSH2 0x6B0B DUP3 PUSH2 0xBB08 JUMP JUMPDEST DUP1 PUSH2 0x1217 DUP2 PUSH2 0xBC0B JUMP JUMPDEST DUP1 PUSH2 0x1217 DUP2 PUSH2 0xBC18 JUMP JUMPDEST DUP1 PUSH2 0x1217 DUP2 PUSH2 0xBC22 JUMP JUMPDEST PUSH1 0xF SIGNEXTEND SWAP1 JUMP JUMPDEST PUSH1 0x1 PUSH1 0x1 PUSH1 0x80 SHL SUB AND SWAP1 JUMP JUMPDEST PUSH1 0x1 PUSH1 0x1 PUSH1 0xA0 SHL SUB AND SWAP1 JUMP JUMPDEST PUSH3 0xFFFFFF AND SWAP1 JUMP JUMPDEST PUSH4 0xFFFFFFFF AND SWAP1 JUMP JUMPDEST PUSH1 0x1 PUSH1 0x1 PUSH1 0x40 SHL SUB AND SWAP1 JUMP JUMPDEST PUSH1 0xFF AND SWAP1 JUMP JUMPDEST PUSH1 0x0 PUSH2 0x6B0B DUP3 PUSH2 0xBB28 JUMP JUMPDEST PUSH1 0x0 PUSH2 0x6B0B DUP3 PUSH2 0xBB33 JUMP JUMPDEST PUSH1 0x0 PUSH2 0x6B0B DUP3 PUSH2 0xBB3D JUMP JUMPDEST PUSH1 0x0 PUSH2 0x6B0B DUP3 PUSH2 0xBB47 JUMP JUMPDEST PUSH1 0x0 PUSH2 0x6B0B DUP3 PUSH2 0xBB18 JUMP JUMPDEST DUP3 DUP2 DUP4 CALLDATACOPY POP PUSH1 0x0 SWAP2 ADD MSTORE JUMP JUMPDEST PUSH1 0x0 JUMPDEST DUP4 DUP2 LT ISZERO PUSH2 0xBBF0 JUMPI DUP2 DUP2 ADD MLOAD DUP4 DUP3 ADD MSTORE PUSH1 0x20 ADD PUSH2 0xBBD8 JUMP JUMPDEST DUP4 DUP2 GT ISZERO PUSH2 0xB0B2 JUMPI POP POP PUSH1 0x0 SWAP2 ADD MSTORE JUMP JUMPDEST PUSH1 0x1F ADD PUSH1 0x1F NOT AND SWAP1 JUMP JUMPDEST PUSH1 0x4 DUP2 LT PUSH2 0xBC15 JUMPI INVALID JUMPDEST POP JUMP JUMPDEST PUSH1 0x8 DUP2 LT PUSH2 0xBC15 JUMPI INVALID JUMPDEST PUSH1 0x2 DUP2 LT PUSH2 0xBC15 JUMPI INVALID JUMPDEST PUSH2 0xBC35 DUP2 PUSH2 0xBB08 JUMP JUMPDEST DUP2 EQ PUSH2 0xBC15 JUMPI PUSH1 0x0 DUP1 REVERT JUMPDEST PUSH2 0xBC35 DUP2 PUSH2 0xBB13 JUMP JUMPDEST PUSH2 0xBC35 DUP2 PUSH2 0xBB18 JUMP JUMPDEST PUSH2 0xBC35 DUP2 PUSH2 0xBB1B JUMP JUMPDEST PUSH2 0xBC35 DUP2 PUSH2 0xBB28 JUMP JUMPDEST PUSH1 0x5 DUP2 LT PUSH2 0xBC15 JUMPI PUSH1 0x0 DUP1 REVERT JUMPDEST PUSH1 0x2 DUP2 LT PUSH2 0xBC15 JUMPI PUSH1 0x0 DUP1 REVERT JUMPDEST PUSH1 0x4 DUP2 LT PUSH2 0xBC15 JUMPI PUSH1 0x0 DUP1 REVERT JUMPDEST PUSH2 0xBC35 DUP2 PUSH2 0xBB51 JUMP JUMPDEST PUSH2 0xBC35 DUP2 PUSH2 0xBB57 JUMP JUMPDEST PUSH2 0xBC35 DUP2 PUSH2 0xBB63 JUMP JUMPDEST PUSH2 0xBC35 DUP2 PUSH2 0xBB6F JUMP JUMPDEST PUSH2 0xBC35 DUP2 PUSH2 0xBB77 JUMP JUMPDEST PUSH2 0xBC35 DUP2 PUSH2 0xBB80 JUMP JUMPDEST PUSH2 0xBC35 DUP2 PUSH2 0xBB8C JUMP INVALID LOG2 PUSH5 0x6970667358 0x22 SLT KECCAK256 0xA9 0xEE 0xA5 SWAP13 PUSH9 0x1C025710580E5B9E31 PUSH30 0x4A933F8696559A2A782C721EEE9CF351C864736F6C634300060C00330000 "
            }
        }
    },
    "sourceTreeHashHex": "0xfba8a4ab885e157a7af5e59cc4dfaf2223c683fc9fa9aa17a6d815a378778d1b",
    "compiler": {
        "name": "solc",
        "version": "0.6.12+commit.27d51765",
        "settings": {
            "remappings": [
                "@0x/contracts-erc20=/Users/jacob/projects/ethdev/0x/workspace-remote/workspace/protocol/packages/asset-swapper/node_modules/@0x/contracts-erc20",
                "@0x/contracts-utils=/Users/jacob/projects/ethdev/0x/workspace-remote/workspace/protocol/packages/asset-swapper/node_modules/@0x/contracts-utils",
                "@0x/contracts-zero-ex=/Users/jacob/projects/ethdev/0x/workspace-remote/workspace/protocol/packages/asset-swapper/node_modules/@0x/contracts-zero-ex"
            ],
            "optimizer": {
                "enabled": true,
                "runs": 200,
                "details": {
                    "yul": false,
                    "deduplicate": true
                }
            },
            "outputSelection": {
                "*": {
                    "*": [
                        "abi",
                        "devdoc",
                        "evm.bytecode.object",
                        "evm.bytecode.sourceMap",
                        "evm.deployedBytecode.object",
                        "evm.deployedBytecode.sourceMap"
                    ]
                }
            },
            "evmVersion": "istanbul"
        }
    },
    "chains": {}
}