{
    "schemaVersion": "2.0.0",
    "contractName": "ERC20BridgeSampler",
    "compilerOutput": {
        "abi": [
            {
                "inputs": [
                    {
                        "internalType": "bytes[]",
                        "name": "callDatas",
                        "type": "bytes[]"
                    }
                ],
                "name": "batchCall",
                "outputs": [
                    {
                        "components": [
                            {
                                "internalType": "bytes",
                                "name": "data",
                                "type": "bytes"
                            },
                            {
                                "internalType": "bool",
                                "name": "success",
                                "type": "bool"
                            }
                        ],
                        "internalType": "struct ERC20BridgeSampler.CallResults[]",
                        "name": "callResults",
                        "type": "tuple[]"
                    }
                ],
                "stateMutability": "nonpayable",
                "type": "function"
            },
            {
                "inputs": [
                    {
                        "components": [
                            {
                                "internalType": "uint256",
                                "name": "reserveOffset",
                                "type": "uint256"
                            },
                            {
                                "internalType": "address",
                                "name": "hintHandler",
                                "type": "address"
                            },
                            {
                                "internalType": "address",
                                "name": "networkProxy",
                                "type": "address"
                            },
                            {
                                "internalType": "address",
                                "name": "weth",
                                "type": "address"
                            },
                            {
                                "internalType": "bytes",
                                "name": "hint",
                                "type": "bytes"
                            }
                        ],
                        "internalType": "struct KyberSampler.KyberSamplerOpts",
                        "name": "opts",
                        "type": "tuple"
                    },
                    {
                        "internalType": "bytes32",
                        "name": "reserveId",
                        "type": "bytes32"
                    },
                    {
                        "internalType": "address",
                        "name": "takerToken",
                        "type": "address"
                    },
                    {
                        "internalType": "address",
                        "name": "makerToken",
                        "type": "address"
                    }
                ],
                "name": "encodeKyberHint",
                "outputs": [
                    {
                        "internalType": "bytes",
                        "name": "hint",
                        "type": "bytes"
                    }
                ],
                "stateMutability": "view",
                "type": "function"
            },
            {
                "inputs": [
                    {
                        "internalType": "contract IERC20TokenV06[]",
                        "name": "tokens",
                        "type": "address[]"
                    },
                    {
                        "internalType": "address",
                        "name": "account",
                        "type": "address"
                    },
                    {
                        "internalType": "address",
                        "name": "spender",
                        "type": "address"
                    }
                ],
                "name": "getAllowanceOf",
                "outputs": [
                    {
                        "internalType": "uint256[]",
                        "name": "allowances",
                        "type": "uint256[]"
                    }
                ],
                "stateMutability": "view",
                "type": "function"
            },
            {
                "inputs": [
                    {
                        "internalType": "contract IERC20TokenV06[]",
                        "name": "tokens",
                        "type": "address[]"
                    },
                    {
                        "internalType": "address",
                        "name": "account",
                        "type": "address"
                    }
                ],
                "name": "getBalanceOf",
                "outputs": [
                    {
                        "internalType": "uint256[]",
                        "name": "balances",
                        "type": "uint256[]"
                    }
                ],
                "stateMutability": "view",
                "type": "function"
            },
            {
                "inputs": [],
                "name": "getBlockNumber",
                "outputs": [
                    {
                        "internalType": "uint256",
                        "name": "",
                        "type": "uint256"
                    }
                ],
                "stateMutability": "view",
                "type": "function"
            },
            {
                "inputs": [],
                "name": "getGasLeft",
                "outputs": [
                    {
                        "internalType": "uint256",
                        "name": "",
                        "type": "uint256"
                    }
                ],
                "stateMutability": "nonpayable",
                "type": "function"
            },
            {
                "inputs": [
                    {
                        "components": [
                            {
                                "internalType": "contract IERC20TokenV06",
                                "name": "makerToken",
                                "type": "address"
                            },
                            {
                                "internalType": "contract IERC20TokenV06",
                                "name": "takerToken",
                                "type": "address"
                            },
                            {
                                "internalType": "uint128",
                                "name": "makerAmount",
                                "type": "uint128"
                            },
                            {
                                "internalType": "uint128",
                                "name": "takerAmount",
                                "type": "uint128"
                            },
                            {
                                "internalType": "uint128",
                                "name": "takerTokenFeeAmount",
                                "type": "uint128"
                            },
                            {
                                "internalType": "address",
                                "name": "maker",
                                "type": "address"
                            },
                            {
                                "internalType": "address",
                                "name": "taker",
                                "type": "address"
                            },
                            {
                                "internalType": "address",
                                "name": "sender",
                                "type": "address"
                            },
                            {
                                "internalType": "address",
                                "name": "feeRecipient",
                                "type": "address"
                            },
                            {
                                "internalType": "bytes32",
                                "name": "pool",
                                "type": "bytes32"
                            },
                            {
                                "internalType": "uint64",
                                "name": "expiry",
                                "type": "uint64"
                            },
                            {
                                "internalType": "uint256",
                                "name": "salt",
                                "type": "uint256"
                            }
                        ],
                        "internalType": "struct IExchange.LimitOrder[]",
                        "name": "orders",
                        "type": "tuple[]"
                    },
                    {
                        "components": [
                            {
                                "internalType": "enum IExchange.SignatureType",
                                "name": "signatureType",
                                "type": "uint8"
                            },
                            {
                                "internalType": "uint8",
                                "name": "v",
                                "type": "uint8"
                            },
                            {
                                "internalType": "bytes32",
                                "name": "r",
                                "type": "bytes32"
                            },
                            {
                                "internalType": "bytes32",
                                "name": "s",
                                "type": "bytes32"
                            }
                        ],
                        "internalType": "struct IExchange.Signature[]",
                        "name": "orderSignatures",
                        "type": "tuple[]"
                    },
                    {
                        "internalType": "contract IExchange",
                        "name": "exchange",
                        "type": "address"
                    }
                ],
                "name": "getLimitOrderFillableMakerAssetAmounts",
                "outputs": [
                    {
                        "internalType": "uint256[]",
                        "name": "orderFillableMakerAssetAmounts",
                        "type": "uint256[]"
                    }
                ],
                "stateMutability": "view",
                "type": "function"
            },
            {
                "inputs": [
                    {
                        "components": [
                            {
                                "internalType": "contract IERC20TokenV06",
                                "name": "makerToken",
                                "type": "address"
                            },
                            {
                                "internalType": "contract IERC20TokenV06",
                                "name": "takerToken",
                                "type": "address"
                            },
                            {
                                "internalType": "uint128",
                                "name": "makerAmount",
                                "type": "uint128"
                            },
                            {
                                "internalType": "uint128",
                                "name": "takerAmount",
                                "type": "uint128"
                            },
                            {
                                "internalType": "uint128",
                                "name": "takerTokenFeeAmount",
                                "type": "uint128"
                            },
                            {
                                "internalType": "address",
                                "name": "maker",
                                "type": "address"
                            },
                            {
                                "internalType": "address",
                                "name": "taker",
                                "type": "address"
                            },
                            {
                                "internalType": "address",
                                "name": "sender",
                                "type": "address"
                            },
                            {
                                "internalType": "address",
                                "name": "feeRecipient",
                                "type": "address"
                            },
                            {
                                "internalType": "bytes32",
                                "name": "pool",
                                "type": "bytes32"
                            },
                            {
                                "internalType": "uint64",
                                "name": "expiry",
                                "type": "uint64"
                            },
                            {
                                "internalType": "uint256",
                                "name": "salt",
                                "type": "uint256"
                            }
                        ],
                        "internalType": "struct IExchange.LimitOrder",
                        "name": "order",
                        "type": "tuple"
                    },
                    {
                        "components": [
                            {
                                "internalType": "enum IExchange.SignatureType",
                                "name": "signatureType",
                                "type": "uint8"
                            },
                            {
                                "internalType": "uint8",
                                "name": "v",
                                "type": "uint8"
                            },
                            {
                                "internalType": "bytes32",
                                "name": "r",
                                "type": "bytes32"
                            },
                            {
                                "internalType": "bytes32",
                                "name": "s",
                                "type": "bytes32"
                            }
                        ],
                        "internalType": "struct IExchange.Signature",
                        "name": "signature",
                        "type": "tuple"
                    },
                    {
                        "internalType": "contract IExchange",
                        "name": "exchange",
                        "type": "address"
                    }
                ],
                "name": "getLimitOrderFillableTakerAmount",
                "outputs": [
                    {
                        "internalType": "uint256",
                        "name": "fillableTakerAmount",
                        "type": "uint256"
                    }
                ],
                "stateMutability": "view",
                "type": "function"
            },
            {
                "inputs": [
                    {
                        "components": [
                            {
                                "internalType": "contract IERC20TokenV06",
                                "name": "makerToken",
                                "type": "address"
                            },
                            {
                                "internalType": "contract IERC20TokenV06",
                                "name": "takerToken",
                                "type": "address"
                            },
                            {
                                "internalType": "uint128",
                                "name": "makerAmount",
                                "type": "uint128"
                            },
                            {
                                "internalType": "uint128",
                                "name": "takerAmount",
                                "type": "uint128"
                            },
                            {
                                "internalType": "uint128",
                                "name": "takerTokenFeeAmount",
                                "type": "uint128"
                            },
                            {
                                "internalType": "address",
                                "name": "maker",
                                "type": "address"
                            },
                            {
                                "internalType": "address",
                                "name": "taker",
                                "type": "address"
                            },
                            {
                                "internalType": "address",
                                "name": "sender",
                                "type": "address"
                            },
                            {
                                "internalType": "address",
                                "name": "feeRecipient",
                                "type": "address"
                            },
                            {
                                "internalType": "bytes32",
                                "name": "pool",
                                "type": "bytes32"
                            },
                            {
                                "internalType": "uint64",
                                "name": "expiry",
                                "type": "uint64"
                            },
                            {
                                "internalType": "uint256",
                                "name": "salt",
                                "type": "uint256"
                            }
                        ],
                        "internalType": "struct IExchange.LimitOrder[]",
                        "name": "orders",
                        "type": "tuple[]"
                    },
                    {
                        "components": [
                            {
                                "internalType": "enum IExchange.SignatureType",
                                "name": "signatureType",
                                "type": "uint8"
                            },
                            {
                                "internalType": "uint8",
                                "name": "v",
                                "type": "uint8"
                            },
                            {
                                "internalType": "bytes32",
                                "name": "r",
                                "type": "bytes32"
                            },
                            {
                                "internalType": "bytes32",
                                "name": "s",
                                "type": "bytes32"
                            }
                        ],
                        "internalType": "struct IExchange.Signature[]",
                        "name": "orderSignatures",
                        "type": "tuple[]"
                    },
                    {
                        "internalType": "contract IExchange",
                        "name": "exchange",
                        "type": "address"
                    }
                ],
                "name": "getLimitOrderFillableTakerAssetAmounts",
                "outputs": [
                    {
                        "internalType": "uint256[]",
                        "name": "orderFillableTakerAssetAmounts",
                        "type": "uint256[]"
                    }
                ],
                "stateMutability": "view",
                "type": "function"
            },
            {
                "inputs": [
                    {
                        "internalType": "contract IERC20TokenV06[]",
                        "name": "tokens",
                        "type": "address[]"
                    }
                ],
                "name": "getTokenDecimals",
                "outputs": [
                    {
                        "internalType": "uint256[]",
                        "name": "decimals",
                        "type": "uint256[]"
                    }
                ],
                "stateMutability": "view",
                "type": "function"
            },
            {
                "inputs": [
                    {
                        "internalType": "address",
                        "name": "account",
                        "type": "address"
                    }
                ],
                "name": "isContract",
                "outputs": [
                    {
                        "internalType": "bool",
                        "name": "",
                        "type": "bool"
                    }
                ],
                "stateMutability": "view",
                "type": "function"
            },
            {
                "inputs": [
                    {
                        "internalType": "address",
                        "name": "poolAddress",
                        "type": "address"
                    },
                    {
                        "internalType": "address",
                        "name": "takerToken",
                        "type": "address"
                    },
                    {
                        "internalType": "address",
                        "name": "makerToken",
                        "type": "address"
                    },
                    {
                        "internalType": "uint256[]",
                        "name": "makerTokenAmounts",
                        "type": "uint256[]"
                    }
                ],
                "name": "sampleBuysFromBalancer",
                "outputs": [
                    {
                        "internalType": "uint256[]",
                        "name": "takerTokenAmounts",
                        "type": "uint256[]"
                    }
                ],
                "stateMutability": "view",
                "type": "function"
            },
            {
                "inputs": [
                    {
                        "components": [
                            {
                                "internalType": "bytes32",
                                "name": "poolId",
                                "type": "bytes32"
                            },
                            {
                                "internalType": "address",
                                "name": "vault",
                                "type": "address"
                            }
                        ],
                        "internalType": "struct BalancerV2Sampler.BalancerV2PoolInfo",
                        "name": "poolInfo",
                        "type": "tuple"
                    },
                    {
                        "internalType": "address",
                        "name": "takerToken",
                        "type": "address"
                    },
                    {
                        "internalType": "address",
                        "name": "makerToken",
                        "type": "address"
                    },
                    {
                        "internalType": "uint256[]",
                        "name": "makerTokenAmounts",
                        "type": "uint256[]"
                    }
                ],
                "name": "sampleBuysFromBalancerV2",
                "outputs": [
                    {
                        "internalType": "uint256[]",
                        "name": "takerTokenAmounts",
                        "type": "uint256[]"
                    }
                ],
                "stateMutability": "nonpayable",
                "type": "function"
            },
            {
                "inputs": [
                    {
                        "components": [
                            {
                                "internalType": "contract IBancorRegistry",
                                "name": "registry",
                                "type": "address"
                            },
                            {
                                "internalType": "address[][]",
                                "name": "paths",
                                "type": "address[][]"
                            }
                        ],
                        "internalType": "struct BancorSampler.BancorSamplerOpts",
                        "name": "opts",
                        "type": "tuple"
                    },
                    {
                        "internalType": "address",
                        "name": "takerToken",
                        "type": "address"
                    },
                    {
                        "internalType": "address",
                        "name": "makerToken",
                        "type": "address"
                    },
                    {
                        "internalType": "uint256[]",
                        "name": "makerTokenAmounts",
                        "type": "uint256[]"
                    }
                ],
                "name": "sampleBuysFromBancor",
                "outputs": [
                    {
                        "internalType": "address",
                        "name": "bancorNetwork",
                        "type": "address"
                    },
                    {
                        "internalType": "address[]",
                        "name": "path",
                        "type": "address[]"
                    },
                    {
                        "internalType": "uint256[]",
                        "name": "takerTokenAmounts",
                        "type": "uint256[]"
                    }
                ],
                "stateMutability": "view",
                "type": "function"
            },
            {
                "inputs": [
                    {
                        "internalType": "contract ICToken",
                        "name": "cToken",
                        "type": "address"
                    },
                    {
                        "internalType": "contract IERC20TokenV06",
                        "name": "takerToken",
                        "type": "address"
                    },
                    {
                        "internalType": "contract IERC20TokenV06",
                        "name": "makerToken",
                        "type": "address"
                    },
                    {
                        "internalType": "uint256[]",
                        "name": "makerTokenAmounts",
                        "type": "uint256[]"
                    }
                ],
                "name": "sampleBuysFromCompound",
                "outputs": [
                    {
                        "internalType": "uint256[]",
                        "name": "takerTokenAmounts",
                        "type": "uint256[]"
                    }
                ],
                "stateMutability": "view",
                "type": "function"
            },
            {
                "inputs": [
                    {
                        "components": [
                            {
                                "internalType": "address",
                                "name": "poolAddress",
                                "type": "address"
                            },
                            {
                                "internalType": "bytes4",
                                "name": "sellQuoteFunctionSelector",
                                "type": "bytes4"
                            },
                            {
                                "internalType": "bytes4",
                                "name": "buyQuoteFunctionSelector",
                                "type": "bytes4"
                            }
                        ],
                        "internalType": "struct CurveSampler.CurveInfo",
                        "name": "curveInfo",
                        "type": "tuple"
                    },
                    {
                        "internalType": "int128",
                        "name": "fromTokenIdx",
                        "type": "int128"
                    },
                    {
                        "internalType": "int128",
                        "name": "toTokenIdx",
                        "type": "int128"
                    },
                    {
                        "internalType": "uint256[]",
                        "name": "makerTokenAmounts",
                        "type": "uint256[]"
                    }
                ],
                "name": "sampleBuysFromCurve",
                "outputs": [
                    {
                        "internalType": "uint256[]",
                        "name": "takerTokenAmounts",
                        "type": "uint256[]"
                    }
                ],
                "stateMutability": "view",
                "type": "function"
            },
            {
                "inputs": [
                    {
                        "components": [
                            {
                                "internalType": "address",
                                "name": "registry",
                                "type": "address"
                            },
                            {
                                "internalType": "address",
                                "name": "helper",
                                "type": "address"
                            }
                        ],
                        "internalType": "struct DODOSampler.DODOSamplerOpts",
                        "name": "opts",
                        "type": "tuple"
                    },
                    {
                        "internalType": "address",
                        "name": "takerToken",
                        "type": "address"
                    },
                    {
                        "internalType": "address",
                        "name": "makerToken",
                        "type": "address"
                    },
                    {
                        "internalType": "uint256[]",
                        "name": "makerTokenAmounts",
                        "type": "uint256[]"
                    }
                ],
                "name": "sampleBuysFromDODO",
                "outputs": [
                    {
                        "internalType": "bool",
                        "name": "sellBase",
                        "type": "bool"
                    },
                    {
                        "internalType": "address",
                        "name": "pool",
                        "type": "address"
                    },
                    {
                        "internalType": "uint256[]",
                        "name": "takerTokenAmounts",
                        "type": "uint256[]"
                    }
                ],
                "stateMutability": "view",
                "type": "function"
            },
            {
                "inputs": [
                    {
                        "internalType": "address",
                        "name": "registry",
                        "type": "address"
                    },
                    {
                        "internalType": "uint256",
                        "name": "offset",
                        "type": "uint256"
                    },
                    {
                        "internalType": "address",
                        "name": "takerToken",
                        "type": "address"
                    },
                    {
                        "internalType": "address",
                        "name": "makerToken",
                        "type": "address"
                    },
                    {
                        "internalType": "uint256[]",
                        "name": "makerTokenAmounts",
                        "type": "uint256[]"
                    }
                ],
                "name": "sampleBuysFromDODOV2",
                "outputs": [
                    {
                        "internalType": "bool",
                        "name": "sellBase",
                        "type": "bool"
                    },
                    {
                        "internalType": "address",
                        "name": "pool",
                        "type": "address"
                    },
                    {
                        "internalType": "uint256[]",
                        "name": "takerTokenAmounts",
                        "type": "uint256[]"
                    }
                ],
                "stateMutability": "view",
                "type": "function"
            },
            {
                "inputs": [
                    {
                        "internalType": "address",
                        "name": "router",
                        "type": "address"
                    },
                    {
                        "internalType": "address[]",
                        "name": "path",
                        "type": "address[]"
                    },
                    {
                        "internalType": "uint256[]",
                        "name": "makerTokenAmounts",
                        "type": "uint256[]"
                    }
                ],
                "name": "sampleBuysFromKyberDmm",
                "outputs": [
                    {
                        "internalType": "address[]",
                        "name": "pools",
                        "type": "address[]"
                    },
                    {
                        "internalType": "uint256[]",
                        "name": "takerTokenAmounts",
                        "type": "uint256[]"
                    }
                ],
                "stateMutability": "view",
                "type": "function"
            },
            {
                "inputs": [
                    {
                        "components": [
                            {
                                "internalType": "uint256",
                                "name": "reserveOffset",
                                "type": "uint256"
                            },
                            {
                                "internalType": "address",
                                "name": "hintHandler",
                                "type": "address"
                            },
                            {
                                "internalType": "address",
                                "name": "networkProxy",
                                "type": "address"
                            },
                            {
                                "internalType": "address",
                                "name": "weth",
                                "type": "address"
                            },
                            {
                                "internalType": "bytes",
                                "name": "hint",
                                "type": "bytes"
                            }
                        ],
                        "internalType": "struct KyberSampler.KyberSamplerOpts",
                        "name": "opts",
                        "type": "tuple"
                    },
                    {
                        "internalType": "address",
                        "name": "takerToken",
                        "type": "address"
                    },
                    {
                        "internalType": "address",
                        "name": "makerToken",
                        "type": "address"
                    },
                    {
                        "internalType": "uint256[]",
                        "name": "makerTokenAmounts",
                        "type": "uint256[]"
                    }
                ],
                "name": "sampleBuysFromKyberNetwork",
                "outputs": [
                    {
                        "internalType": "bytes32",
                        "name": "reserveId",
                        "type": "bytes32"
                    },
                    {
                        "internalType": "bytes",
                        "name": "hint",
                        "type": "bytes"
                    },
                    {
                        "internalType": "uint256[]",
                        "name": "takerTokenAmounts",
                        "type": "uint256[]"
                    }
                ],
                "stateMutability": "view",
                "type": "function"
            },
            {
                "inputs": [
                    {
                        "components": [
                            {
                                "internalType": "address",
                                "name": "stEthToken",
                                "type": "address"
                            },
                            {
                                "internalType": "address",
                                "name": "wethToken",
                                "type": "address"
                            }
                        ],
                        "internalType": "struct LidoSampler.LidoInfo",
                        "name": "lidoInfo",
                        "type": "tuple"
                    },
                    {
                        "internalType": "address",
                        "name": "takerToken",
                        "type": "address"
                    },
                    {
                        "internalType": "address",
                        "name": "makerToken",
                        "type": "address"
                    },
                    {
                        "internalType": "uint256[]",
                        "name": "makerTokenAmounts",
                        "type": "uint256[]"
                    }
                ],
                "name": "sampleBuysFromLido",
                "outputs": [
                    {
                        "internalType": "uint256[]",
                        "name": "",
                        "type": "uint256[]"
                    }
                ],
                "stateMutability": "pure",
                "type": "function"
            },
            {
                "inputs": [
                    {
                        "internalType": "address",
                        "name": "providerAddress",
                        "type": "address"
                    },
                    {
                        "internalType": "address",
                        "name": "takerToken",
                        "type": "address"
                    },
                    {
                        "internalType": "address",
                        "name": "makerToken",
                        "type": "address"
                    },
                    {
                        "internalType": "uint256[]",
                        "name": "makerTokenAmounts",
                        "type": "uint256[]"
                    }
                ],
                "name": "sampleBuysFromLiquidityProvider",
                "outputs": [
                    {
                        "internalType": "uint256[]",
                        "name": "takerTokenAmounts",
                        "type": "uint256[]"
                    }
                ],
                "stateMutability": "view",
                "type": "function"
            },
            {
                "inputs": [
                    {
                        "internalType": "address",
                        "name": "router",
                        "type": "address"
                    },
                    {
                        "internalType": "address",
                        "name": "takerToken",
                        "type": "address"
                    },
                    {
                        "internalType": "address",
                        "name": "makerToken",
                        "type": "address"
                    },
                    {
                        "internalType": "uint256[]",
                        "name": "makerTokenAmounts",
                        "type": "uint256[]"
                    }
                ],
                "name": "sampleBuysFromMStable",
                "outputs": [
                    {
                        "internalType": "uint256[]",
                        "name": "takerTokenAmounts",
                        "type": "uint256[]"
                    }
                ],
                "stateMutability": "view",
                "type": "function"
            },
            {
                "inputs": [
                    {
                        "components": [
                            {
                                "internalType": "address",
                                "name": "psmAddress",
                                "type": "address"
                            },
                            {
                                "internalType": "bytes32",
                                "name": "ilkIdentifier",
                                "type": "bytes32"
                            },
                            {
                                "internalType": "address",
                                "name": "gemTokenAddress",
                                "type": "address"
                            }
                        ],
                        "internalType": "struct MakerPSMSampler.MakerPsmInfo",
                        "name": "psmInfo",
                        "type": "tuple"
                    },
                    {
                        "internalType": "address",
                        "name": "takerToken",
                        "type": "address"
                    },
                    {
                        "internalType": "address",
                        "name": "makerToken",
                        "type": "address"
                    },
                    {
                        "internalType": "uint256[]",
                        "name": "makerTokenAmounts",
                        "type": "uint256[]"
                    }
                ],
                "name": "sampleBuysFromMakerPsm",
                "outputs": [
                    {
                        "internalType": "uint256[]",
                        "name": "takerTokenAmounts",
                        "type": "uint256[]"
                    }
                ],
                "stateMutability": "view",
                "type": "function"
            },
            {
                "inputs": [
                    {
                        "internalType": "address",
                        "name": "registry",
                        "type": "address"
                    },
                    {
                        "internalType": "address",
                        "name": "takerToken",
                        "type": "address"
                    },
                    {
                        "internalType": "address",
                        "name": "makerToken",
                        "type": "address"
                    },
                    {
                        "internalType": "uint256[]",
                        "name": "makerTokenAmounts",
                        "type": "uint256[]"
                    }
                ],
                "name": "sampleBuysFromMooniswap",
                "outputs": [
                    {
                        "internalType": "contract IMooniswap",
                        "name": "pool",
                        "type": "address"
                    },
                    {
                        "internalType": "uint256[]",
                        "name": "takerTokenAmounts",
                        "type": "uint256[]"
                    }
                ],
                "stateMutability": "view",
                "type": "function"
            },
            {
                "inputs": [
                    {
                        "internalType": "address",
                        "name": "pool",
                        "type": "address"
                    },
                    {
                        "internalType": "address",
                        "name": "takerToken",
                        "type": "address"
                    },
                    {
                        "internalType": "address",
                        "name": "makerToken",
                        "type": "address"
                    },
                    {
                        "internalType": "uint256[]",
                        "name": "makerTokenAmounts",
                        "type": "uint256[]"
                    }
                ],
                "name": "sampleBuysFromShell",
                "outputs": [
                    {
                        "internalType": "uint256[]",
                        "name": "takerTokenAmounts",
                        "type": "uint256[]"
                    }
                ],
                "stateMutability": "view",
                "type": "function"
            },
            {
                "inputs": [
                    {
                        "components": [
                            {
                                "internalType": "address",
                                "name": "poolAddress",
                                "type": "address"
                            },
                            {
                                "internalType": "bytes4",
                                "name": "sellQuoteFunctionSelector",
                                "type": "bytes4"
                            },
                            {
                                "internalType": "bytes4",
                                "name": "buyQuoteFunctionSelector",
                                "type": "bytes4"
                            }
                        ],
                        "internalType": "struct SmoothySampler.SmoothyInfo",
                        "name": "smoothyInfo",
                        "type": "tuple"
                    },
                    {
                        "internalType": "int128",
                        "name": "fromTokenIdx",
                        "type": "int128"
                    },
                    {
                        "internalType": "int128",
                        "name": "toTokenIdx",
                        "type": "int128"
                    },
                    {
                        "internalType": "uint256[]",
                        "name": "makerTokenAmounts",
                        "type": "uint256[]"
                    }
                ],
                "name": "sampleBuysFromSmoothy",
                "outputs": [
                    {
                        "internalType": "uint256[]",
                        "name": "takerTokenAmounts",
                        "type": "uint256[]"
                    }
                ],
                "stateMutability": "view",
                "type": "function"
            },
            {
                "inputs": [
                    {
                        "internalType": "address",
                        "name": "router",
                        "type": "address"
                    },
                    {
                        "internalType": "address",
                        "name": "takerToken",
                        "type": "address"
                    },
                    {
                        "internalType": "address",
                        "name": "makerToken",
                        "type": "address"
                    },
                    {
                        "internalType": "uint256[]",
                        "name": "makerTokenAmounts",
                        "type": "uint256[]"
                    }
                ],
                "name": "sampleBuysFromUniswap",
                "outputs": [
                    {
                        "internalType": "uint256[]",
                        "name": "takerTokenAmounts",
                        "type": "uint256[]"
                    }
                ],
                "stateMutability": "view",
                "type": "function"
            },
            {
                "inputs": [
                    {
                        "internalType": "address",
                        "name": "router",
                        "type": "address"
                    },
                    {
                        "internalType": "address[]",
                        "name": "path",
                        "type": "address[]"
                    },
                    {
                        "internalType": "uint256[]",
                        "name": "makerTokenAmounts",
                        "type": "uint256[]"
                    }
                ],
                "name": "sampleBuysFromUniswapV2",
                "outputs": [
                    {
                        "internalType": "uint256[]",
                        "name": "takerTokenAmounts",
                        "type": "uint256[]"
                    }
                ],
                "stateMutability": "view",
                "type": "function"
            },
            {
                "inputs": [
                    {
                        "internalType": "contract IUniswapV3Quoter",
                        "name": "quoter",
                        "type": "address"
                    },
                    {
                        "internalType": "contract IERC20TokenV06[]",
                        "name": "path",
                        "type": "address[]"
                    },
                    {
                        "internalType": "uint256[]",
                        "name": "makerTokenAmounts",
                        "type": "uint256[]"
                    }
                ],
                "name": "sampleBuysFromUniswapV3",
                "outputs": [
                    {
                        "internalType": "bytes[]",
                        "name": "uniswapPaths",
                        "type": "bytes[]"
                    },
                    {
                        "internalType": "uint256[]",
                        "name": "takerTokenAmounts",
                        "type": "uint256[]"
                    }
                ],
                "stateMutability": "nonpayable",
                "type": "function"
            },
            {
                "inputs": [
                    {
                        "components": [
                            {
                                "internalType": "uint256",
                                "name": "reserveOffset",
                                "type": "uint256"
                            },
                            {
                                "internalType": "address",
                                "name": "hintHandler",
                                "type": "address"
                            },
                            {
                                "internalType": "address",
                                "name": "networkProxy",
                                "type": "address"
                            },
                            {
                                "internalType": "address",
                                "name": "weth",
                                "type": "address"
                            },
                            {
                                "internalType": "bytes",
                                "name": "hint",
                                "type": "bytes"
                            }
                        ],
                        "internalType": "struct KyberSampler.KyberSamplerOpts",
                        "name": "opts",
                        "type": "tuple"
                    },
                    {
                        "internalType": "address",
                        "name": "takerToken",
                        "type": "address"
                    },
                    {
                        "internalType": "address",
                        "name": "makerToken",
                        "type": "address"
                    },
                    {
                        "internalType": "uint256",
                        "name": "takerTokenAmount",
                        "type": "uint256"
                    }
                ],
                "name": "sampleSellFromKyberNetwork",
                "outputs": [
                    {
                        "internalType": "uint256",
                        "name": "makerTokenAmount",
                        "type": "uint256"
                    }
                ],
                "stateMutability": "view",
                "type": "function"
            },
            {
                "inputs": [
                    {
                        "internalType": "address",
                        "name": "poolAddress",
                        "type": "address"
                    },
                    {
                        "internalType": "address",
                        "name": "takerToken",
                        "type": "address"
                    },
                    {
                        "internalType": "address",
                        "name": "makerToken",
                        "type": "address"
                    },
                    {
                        "internalType": "uint256[]",
                        "name": "takerTokenAmounts",
                        "type": "uint256[]"
                    }
                ],
                "name": "sampleSellsFromBalancer",
                "outputs": [
                    {
                        "internalType": "uint256[]",
                        "name": "makerTokenAmounts",
                        "type": "uint256[]"
                    }
                ],
                "stateMutability": "view",
                "type": "function"
            },
            {
                "inputs": [
                    {
                        "components": [
                            {
                                "internalType": "bytes32",
                                "name": "poolId",
                                "type": "bytes32"
                            },
                            {
                                "internalType": "address",
                                "name": "vault",
                                "type": "address"
                            }
                        ],
                        "internalType": "struct BalancerV2Sampler.BalancerV2PoolInfo",
                        "name": "poolInfo",
                        "type": "tuple"
                    },
                    {
                        "internalType": "address",
                        "name": "takerToken",
                        "type": "address"
                    },
                    {
                        "internalType": "address",
                        "name": "makerToken",
                        "type": "address"
                    },
                    {
                        "internalType": "uint256[]",
                        "name": "takerTokenAmounts",
                        "type": "uint256[]"
                    }
                ],
                "name": "sampleSellsFromBalancerV2",
                "outputs": [
                    {
                        "internalType": "uint256[]",
                        "name": "makerTokenAmounts",
                        "type": "uint256[]"
                    }
                ],
                "stateMutability": "nonpayable",
                "type": "function"
            },
            {
                "inputs": [
                    {
                        "components": [
                            {
                                "internalType": "contract IBancorRegistry",
                                "name": "registry",
                                "type": "address"
                            },
                            {
                                "internalType": "address[][]",
                                "name": "paths",
                                "type": "address[][]"
                            }
                        ],
                        "internalType": "struct BancorSampler.BancorSamplerOpts",
                        "name": "opts",
                        "type": "tuple"
                    },
                    {
                        "internalType": "address",
                        "name": "takerToken",
                        "type": "address"
                    },
                    {
                        "internalType": "address",
                        "name": "makerToken",
                        "type": "address"
                    },
                    {
                        "internalType": "uint256[]",
                        "name": "takerTokenAmounts",
                        "type": "uint256[]"
                    }
                ],
                "name": "sampleSellsFromBancor",
                "outputs": [
                    {
                        "internalType": "address",
                        "name": "bancorNetwork",
                        "type": "address"
                    },
                    {
                        "internalType": "address[]",
                        "name": "path",
                        "type": "address[]"
                    },
                    {
                        "internalType": "uint256[]",
                        "name": "makerTokenAmounts",
                        "type": "uint256[]"
                    }
                ],
                "stateMutability": "view",
                "type": "function"
            },
            {
                "inputs": [
                    {
                        "internalType": "contract ICToken",
                        "name": "cToken",
                        "type": "address"
                    },
                    {
                        "internalType": "contract IERC20TokenV06",
                        "name": "takerToken",
                        "type": "address"
                    },
                    {
                        "internalType": "contract IERC20TokenV06",
                        "name": "makerToken",
                        "type": "address"
                    },
                    {
                        "internalType": "uint256[]",
                        "name": "takerTokenAmounts",
                        "type": "uint256[]"
                    }
                ],
                "name": "sampleSellsFromCompound",
                "outputs": [
                    {
                        "internalType": "uint256[]",
                        "name": "makerTokenAmounts",
                        "type": "uint256[]"
                    }
                ],
                "stateMutability": "view",
                "type": "function"
            },
            {
                "inputs": [
                    {
                        "components": [
                            {
                                "internalType": "address",
                                "name": "poolAddress",
                                "type": "address"
                            },
                            {
                                "internalType": "bytes4",
                                "name": "sellQuoteFunctionSelector",
                                "type": "bytes4"
                            },
                            {
                                "internalType": "bytes4",
                                "name": "buyQuoteFunctionSelector",
                                "type": "bytes4"
                            }
                        ],
                        "internalType": "struct CurveSampler.CurveInfo",
                        "name": "curveInfo",
                        "type": "tuple"
                    },
                    {
                        "internalType": "int128",
                        "name": "fromTokenIdx",
                        "type": "int128"
                    },
                    {
                        "internalType": "int128",
                        "name": "toTokenIdx",
                        "type": "int128"
                    },
                    {
                        "internalType": "uint256[]",
                        "name": "takerTokenAmounts",
                        "type": "uint256[]"
                    }
                ],
                "name": "sampleSellsFromCurve",
                "outputs": [
                    {
                        "internalType": "uint256[]",
                        "name": "makerTokenAmounts",
                        "type": "uint256[]"
                    }
                ],
                "stateMutability": "view",
                "type": "function"
            },
            {
                "inputs": [
                    {
                        "components": [
                            {
                                "internalType": "address",
                                "name": "registry",
                                "type": "address"
                            },
                            {
                                "internalType": "address",
                                "name": "helper",
                                "type": "address"
                            }
                        ],
                        "internalType": "struct DODOSampler.DODOSamplerOpts",
                        "name": "opts",
                        "type": "tuple"
                    },
                    {
                        "internalType": "address",
                        "name": "takerToken",
                        "type": "address"
                    },
                    {
                        "internalType": "address",
                        "name": "makerToken",
                        "type": "address"
                    },
                    {
                        "internalType": "uint256[]",
                        "name": "takerTokenAmounts",
                        "type": "uint256[]"
                    }
                ],
                "name": "sampleSellsFromDODO",
                "outputs": [
                    {
                        "internalType": "bool",
                        "name": "sellBase",
                        "type": "bool"
                    },
                    {
                        "internalType": "address",
                        "name": "pool",
                        "type": "address"
                    },
                    {
                        "internalType": "uint256[]",
                        "name": "makerTokenAmounts",
                        "type": "uint256[]"
                    }
                ],
                "stateMutability": "view",
                "type": "function"
            },
            {
                "inputs": [
                    {
                        "internalType": "address",
                        "name": "registry",
                        "type": "address"
                    },
                    {
                        "internalType": "uint256",
                        "name": "offset",
                        "type": "uint256"
                    },
                    {
                        "internalType": "address",
                        "name": "takerToken",
                        "type": "address"
                    },
                    {
                        "internalType": "address",
                        "name": "makerToken",
                        "type": "address"
                    },
                    {
                        "internalType": "uint256[]",
                        "name": "takerTokenAmounts",
                        "type": "uint256[]"
                    }
                ],
                "name": "sampleSellsFromDODOV2",
                "outputs": [
                    {
                        "internalType": "bool",
                        "name": "sellBase",
                        "type": "bool"
                    },
                    {
                        "internalType": "address",
                        "name": "pool",
                        "type": "address"
                    },
                    {
                        "internalType": "uint256[]",
                        "name": "makerTokenAmounts",
                        "type": "uint256[]"
                    }
                ],
                "stateMutability": "view",
                "type": "function"
            },
            {
                "inputs": [
                    {
                        "internalType": "address",
                        "name": "router",
                        "type": "address"
                    },
                    {
                        "internalType": "address[]",
                        "name": "path",
                        "type": "address[]"
                    },
                    {
                        "internalType": "uint256[]",
                        "name": "takerTokenAmounts",
                        "type": "uint256[]"
                    }
                ],
                "name": "sampleSellsFromKyberDmm",
                "outputs": [
                    {
                        "internalType": "address[]",
                        "name": "pools",
                        "type": "address[]"
                    },
                    {
                        "internalType": "uint256[]",
                        "name": "makerTokenAmounts",
                        "type": "uint256[]"
                    }
                ],
                "stateMutability": "view",
                "type": "function"
            },
            {
                "inputs": [
                    {
                        "components": [
                            {
                                "internalType": "uint256",
                                "name": "reserveOffset",
                                "type": "uint256"
                            },
                            {
                                "internalType": "address",
                                "name": "hintHandler",
                                "type": "address"
                            },
                            {
                                "internalType": "address",
                                "name": "networkProxy",
                                "type": "address"
                            },
                            {
                                "internalType": "address",
                                "name": "weth",
                                "type": "address"
                            },
                            {
                                "internalType": "bytes",
                                "name": "hint",
                                "type": "bytes"
                            }
                        ],
                        "internalType": "struct KyberSampler.KyberSamplerOpts",
                        "name": "opts",
                        "type": "tuple"
                    },
                    {
                        "internalType": "address",
                        "name": "takerToken",
                        "type": "address"
                    },
                    {
                        "internalType": "address",
                        "name": "makerToken",
                        "type": "address"
                    },
                    {
                        "internalType": "uint256[]",
                        "name": "takerTokenAmounts",
                        "type": "uint256[]"
                    }
                ],
                "name": "sampleSellsFromKyberNetwork",
                "outputs": [
                    {
                        "internalType": "bytes32",
                        "name": "reserveId",
                        "type": "bytes32"
                    },
                    {
                        "internalType": "bytes",
                        "name": "hint",
                        "type": "bytes"
                    },
                    {
                        "internalType": "uint256[]",
                        "name": "makerTokenAmounts",
                        "type": "uint256[]"
                    }
                ],
                "stateMutability": "view",
                "type": "function"
            },
            {
                "inputs": [
                    {
                        "components": [
                            {
                                "internalType": "address",
                                "name": "stEthToken",
                                "type": "address"
                            },
                            {
                                "internalType": "address",
                                "name": "wethToken",
                                "type": "address"
                            }
                        ],
                        "internalType": "struct LidoSampler.LidoInfo",
                        "name": "lidoInfo",
                        "type": "tuple"
                    },
                    {
                        "internalType": "address",
                        "name": "takerToken",
                        "type": "address"
                    },
                    {
                        "internalType": "address",
                        "name": "makerToken",
                        "type": "address"
                    },
                    {
                        "internalType": "uint256[]",
                        "name": "takerTokenAmounts",
                        "type": "uint256[]"
                    }
                ],
                "name": "sampleSellsFromLido",
                "outputs": [
                    {
                        "internalType": "uint256[]",
                        "name": "",
                        "type": "uint256[]"
                    }
                ],
                "stateMutability": "pure",
                "type": "function"
            },
            {
                "inputs": [
                    {
                        "internalType": "address",
                        "name": "providerAddress",
                        "type": "address"
                    },
                    {
                        "internalType": "address",
                        "name": "takerToken",
                        "type": "address"
                    },
                    {
                        "internalType": "address",
                        "name": "makerToken",
                        "type": "address"
                    },
                    {
                        "internalType": "uint256[]",
                        "name": "takerTokenAmounts",
                        "type": "uint256[]"
                    }
                ],
                "name": "sampleSellsFromLiquidityProvider",
                "outputs": [
                    {
                        "internalType": "uint256[]",
                        "name": "makerTokenAmounts",
                        "type": "uint256[]"
                    }
                ],
                "stateMutability": "view",
                "type": "function"
            },
            {
                "inputs": [
                    {
                        "internalType": "address",
                        "name": "router",
                        "type": "address"
                    },
                    {
                        "internalType": "address",
                        "name": "takerToken",
                        "type": "address"
                    },
                    {
                        "internalType": "address",
                        "name": "makerToken",
                        "type": "address"
                    },
                    {
                        "internalType": "uint256[]",
                        "name": "takerTokenAmounts",
                        "type": "uint256[]"
                    }
                ],
                "name": "sampleSellsFromMStable",
                "outputs": [
                    {
                        "internalType": "uint256[]",
                        "name": "makerTokenAmounts",
                        "type": "uint256[]"
                    }
                ],
                "stateMutability": "view",
                "type": "function"
            },
            {
                "inputs": [
                    {
                        "components": [
                            {
                                "internalType": "address",
                                "name": "psmAddress",
                                "type": "address"
                            },
                            {
                                "internalType": "bytes32",
                                "name": "ilkIdentifier",
                                "type": "bytes32"
                            },
                            {
                                "internalType": "address",
                                "name": "gemTokenAddress",
                                "type": "address"
                            }
                        ],
                        "internalType": "struct MakerPSMSampler.MakerPsmInfo",
                        "name": "psmInfo",
                        "type": "tuple"
                    },
                    {
                        "internalType": "address",
                        "name": "takerToken",
                        "type": "address"
                    },
                    {
                        "internalType": "address",
                        "name": "makerToken",
                        "type": "address"
                    },
                    {
                        "internalType": "uint256[]",
                        "name": "takerTokenAmounts",
                        "type": "uint256[]"
                    }
                ],
                "name": "sampleSellsFromMakerPsm",
                "outputs": [
                    {
                        "internalType": "uint256[]",
                        "name": "makerTokenAmounts",
                        "type": "uint256[]"
                    }
                ],
                "stateMutability": "view",
                "type": "function"
            },
            {
                "inputs": [
                    {
                        "internalType": "address",
                        "name": "registry",
                        "type": "address"
                    },
                    {
                        "internalType": "address",
                        "name": "takerToken",
                        "type": "address"
                    },
                    {
                        "internalType": "address",
                        "name": "makerToken",
                        "type": "address"
                    },
                    {
                        "internalType": "uint256[]",
                        "name": "takerTokenAmounts",
                        "type": "uint256[]"
                    }
                ],
                "name": "sampleSellsFromMooniswap",
                "outputs": [
                    {
                        "internalType": "contract IMooniswap",
                        "name": "pool",
                        "type": "address"
                    },
                    {
                        "internalType": "uint256[]",
                        "name": "makerTokenAmounts",
                        "type": "uint256[]"
                    }
                ],
                "stateMutability": "view",
                "type": "function"
            },
            {
                "inputs": [
                    {
                        "internalType": "address",
                        "name": "multibridge",
                        "type": "address"
                    },
                    {
                        "internalType": "address",
                        "name": "takerToken",
                        "type": "address"
                    },
                    {
                        "internalType": "address",
                        "name": "intermediateToken",
                        "type": "address"
                    },
                    {
                        "internalType": "address",
                        "name": "makerToken",
                        "type": "address"
                    },
                    {
                        "internalType": "uint256[]",
                        "name": "takerTokenAmounts",
                        "type": "uint256[]"
                    }
                ],
                "name": "sampleSellsFromMultiBridge",
                "outputs": [
                    {
                        "internalType": "uint256[]",
                        "name": "makerTokenAmounts",
                        "type": "uint256[]"
                    }
                ],
                "stateMutability": "view",
                "type": "function"
            },
            {
                "inputs": [
                    {
                        "internalType": "address",
                        "name": "pool",
                        "type": "address"
                    },
                    {
                        "internalType": "address",
                        "name": "takerToken",
                        "type": "address"
                    },
                    {
                        "internalType": "address",
                        "name": "makerToken",
                        "type": "address"
                    },
                    {
                        "internalType": "uint256[]",
                        "name": "takerTokenAmounts",
                        "type": "uint256[]"
                    }
                ],
                "name": "sampleSellsFromShell",
                "outputs": [
                    {
                        "internalType": "uint256[]",
                        "name": "makerTokenAmounts",
                        "type": "uint256[]"
                    }
                ],
                "stateMutability": "view",
                "type": "function"
            },
            {
                "inputs": [
                    {
                        "components": [
                            {
                                "internalType": "address",
                                "name": "poolAddress",
                                "type": "address"
                            },
                            {
                                "internalType": "bytes4",
                                "name": "sellQuoteFunctionSelector",
                                "type": "bytes4"
                            },
                            {
                                "internalType": "bytes4",
                                "name": "buyQuoteFunctionSelector",
                                "type": "bytes4"
                            }
                        ],
                        "internalType": "struct SmoothySampler.SmoothyInfo",
                        "name": "smoothyInfo",
                        "type": "tuple"
                    },
                    {
                        "internalType": "int128",
                        "name": "fromTokenIdx",
                        "type": "int128"
                    },
                    {
                        "internalType": "int128",
                        "name": "toTokenIdx",
                        "type": "int128"
                    },
                    {
                        "internalType": "uint256[]",
                        "name": "takerTokenAmounts",
                        "type": "uint256[]"
                    }
                ],
                "name": "sampleSellsFromSmoothy",
                "outputs": [
                    {
                        "internalType": "uint256[]",
                        "name": "makerTokenAmounts",
                        "type": "uint256[]"
                    }
                ],
                "stateMutability": "view",
                "type": "function"
            },
            {
                "inputs": [
                    {
                        "internalType": "address",
                        "name": "router",
                        "type": "address"
                    },
                    {
                        "internalType": "address",
                        "name": "takerToken",
                        "type": "address"
                    },
                    {
                        "internalType": "address",
                        "name": "makerToken",
                        "type": "address"
                    },
                    {
                        "internalType": "uint256[]",
                        "name": "takerTokenAmounts",
                        "type": "uint256[]"
                    }
                ],
                "name": "sampleSellsFromUniswap",
                "outputs": [
                    {
                        "internalType": "uint256[]",
                        "name": "makerTokenAmounts",
                        "type": "uint256[]"
                    }
                ],
                "stateMutability": "view",
                "type": "function"
            },
            {
                "inputs": [
                    {
                        "internalType": "address",
                        "name": "router",
                        "type": "address"
                    },
                    {
                        "internalType": "address[]",
                        "name": "path",
                        "type": "address[]"
                    },
                    {
                        "internalType": "uint256[]",
                        "name": "takerTokenAmounts",
                        "type": "uint256[]"
                    }
                ],
                "name": "sampleSellsFromUniswapV2",
                "outputs": [
                    {
                        "internalType": "uint256[]",
                        "name": "makerTokenAmounts",
                        "type": "uint256[]"
                    }
                ],
                "stateMutability": "view",
                "type": "function"
            },
            {
                "inputs": [
                    {
                        "internalType": "contract IUniswapV3Quoter",
                        "name": "quoter",
                        "type": "address"
                    },
                    {
                        "internalType": "contract IERC20TokenV06[]",
                        "name": "path",
                        "type": "address[]"
                    },
                    {
                        "internalType": "uint256[]",
                        "name": "takerTokenAmounts",
                        "type": "uint256[]"
                    }
                ],
                "name": "sampleSellsFromUniswapV3",
                "outputs": [
                    {
                        "internalType": "bytes[]",
                        "name": "uniswapPaths",
                        "type": "bytes[]"
                    },
                    {
                        "internalType": "uint256[]",
                        "name": "makerTokenAmounts",
                        "type": "uint256[]"
                    }
                ],
                "stateMutability": "nonpayable",
                "type": "function"
            },
            {
                "inputs": [
                    {
                        "internalType": "address",
                        "name": "registry",
                        "type": "address"
                    },
                    {
                        "internalType": "address",
                        "name": "mooniswapTakerToken",
                        "type": "address"
                    },
                    {
                        "internalType": "address",
                        "name": "mooniswapMakerToken",
                        "type": "address"
                    },
                    {
                        "internalType": "uint256",
                        "name": "takerTokenAmount",
                        "type": "uint256"
                    }
                ],
                "name": "sampleSingleSellFromMooniswapPool",
                "outputs": [
                    {
                        "internalType": "uint256",
                        "name": "",
                        "type": "uint256"
                    }
                ],
                "stateMutability": "view",
                "type": "function"
            },
            {
                "inputs": [
                    {
                        "internalType": "bytes[]",
                        "name": "firstHopCalls",
                        "type": "bytes[]"
                    },
                    {
                        "internalType": "bytes[]",
                        "name": "secondHopCalls",
                        "type": "bytes[]"
                    },
                    {
                        "internalType": "uint256",
                        "name": "buyAmount",
                        "type": "uint256"
                    }
                ],
                "name": "sampleTwoHopBuy",
                "outputs": [
                    {
                        "components": [
                            {
                                "internalType": "uint256",
                                "name": "sourceIndex",
                                "type": "uint256"
                            },
                            {
                                "internalType": "bytes",
                                "name": "returnData",
                                "type": "bytes"
                            }
                        ],
                        "internalType": "struct TwoHopSampler.HopInfo",
                        "name": "firstHop",
                        "type": "tuple"
                    },
                    {
                        "components": [
                            {
                                "internalType": "uint256",
                                "name": "sourceIndex",
                                "type": "uint256"
                            },
                            {
                                "internalType": "bytes",
                                "name": "returnData",
                                "type": "bytes"
                            }
                        ],
                        "internalType": "struct TwoHopSampler.HopInfo",
                        "name": "secondHop",
                        "type": "tuple"
                    },
                    {
                        "internalType": "uint256",
                        "name": "sellAmount",
                        "type": "uint256"
                    }
                ],
                "stateMutability": "nonpayable",
                "type": "function"
            },
            {
                "inputs": [
                    {
                        "internalType": "bytes[]",
                        "name": "firstHopCalls",
                        "type": "bytes[]"
                    },
                    {
                        "internalType": "bytes[]",
                        "name": "secondHopCalls",
                        "type": "bytes[]"
                    },
                    {
                        "internalType": "uint256",
                        "name": "sellAmount",
                        "type": "uint256"
                    }
                ],
                "name": "sampleTwoHopSell",
                "outputs": [
                    {
                        "components": [
                            {
                                "internalType": "uint256",
                                "name": "sourceIndex",
                                "type": "uint256"
                            },
                            {
                                "internalType": "bytes",
                                "name": "returnData",
                                "type": "bytes"
                            }
                        ],
                        "internalType": "struct TwoHopSampler.HopInfo",
                        "name": "firstHop",
                        "type": "tuple"
                    },
                    {
                        "components": [
                            {
                                "internalType": "uint256",
                                "name": "sourceIndex",
                                "type": "uint256"
                            },
                            {
                                "internalType": "bytes",
                                "name": "returnData",
                                "type": "bytes"
                            }
                        ],
                        "internalType": "struct TwoHopSampler.HopInfo",
                        "name": "secondHop",
                        "type": "tuple"
                    },
                    {
                        "internalType": "uint256",
                        "name": "buyAmount",
                        "type": "uint256"
                    }
                ],
                "stateMutability": "nonpayable",
                "type": "function"
            }
        ],
        "devdoc": {
            "kind": "dev",
            "methods": {
                "batchCall(bytes[])": {
                    "details": "Call multiple public functions on this contract in a single transaction.",
                    "params": {
                        "callDatas": "ABI-encoded call data for each function call."
                    },
                    "returns": {
                        "callResults": "ABI-encoded results data for each call."
                    }
                },
                "getLimitOrderFillableMakerAssetAmounts((address,address,uint128,uint128,uint128,address,address,address,address,bytes32,uint64,uint256)[],(uint8,uint8,bytes32,bytes32)[],address)": {
                    "details": "Queries the fillable taker asset amounts of native orders.      Effectively ignores orders that have empty signatures or",
                    "params": {
                        "exchange": "The V4 exchange.",
                        "orderSignatures": "Signatures for each respective order in `orders`.",
                        "orders": "Native orders to query."
                    },
                    "returns": {
                        "orderFillableMakerAssetAmounts": "How much maker asset can be filled         by each order in `orders`."
                    }
                },
                "getLimitOrderFillableTakerAmount((address,address,uint128,uint128,uint128,address,address,address,address,bytes32,uint64,uint256),(uint8,uint8,bytes32,bytes32),address)": {
                    "details": "Get the fillable taker amount of an order, taking into account      order state, maker fees, and maker balances."
                },
                "getLimitOrderFillableTakerAssetAmounts((address,address,uint128,uint128,uint128,address,address,address,address,bytes32,uint64,uint256)[],(uint8,uint8,bytes32,bytes32)[],address)": {
                    "details": "Queries the fillable taker asset amounts of native orders.      Effectively ignores orders that have empty signatures or      maker/taker asset amounts (returning 0).",
                    "params": {
                        "exchange": "The V4 exchange.",
                        "orderSignatures": "Signatures for each respective order in `orders`.",
                        "orders": "Native limit orders to query."
                    },
                    "returns": {
                        "orderFillableTakerAssetAmounts": "How much taker asset can be filled         by each order in `orders`."
                    }
                },
                "sampleBuysFromBalancer(address,address,address,uint256[])": {
                    "details": "Sample buy quotes from Balancer.",
                    "params": {
                        "makerToken": "Address of the maker token (what to buy).",
                        "makerTokenAmounts": "Maker token buy amount for each sample.",
                        "poolAddress": "Address of the Balancer pool to query.",
                        "takerToken": "Address of the taker token (what to sell)."
                    },
                    "returns": {
                        "takerTokenAmounts": "Taker amounts sold at each maker token         amount."
                    }
                },
                "sampleBuysFromBalancerV2((bytes32,address),address,address,uint256[])": {
                    "details": "Sample buy quotes from Balancer V2.",
                    "params": {
                        "makerToken": "Address of the maker token (what to buy).",
                        "makerTokenAmounts": "Maker token buy amount for each sample.",
                        "poolInfo": "Struct with pool related data",
                        "takerToken": "Address of the taker token (what to sell)."
                    },
                    "returns": {
                        "takerTokenAmounts": "Taker amounts sold at each maker token         amount."
                    }
                },
                "sampleBuysFromBancor((address,address[][]),address,address,uint256[])": {
                    "details": "Sample buy quotes from Bancor. Unimplemented",
                    "params": {
                        "makerToken": "Address of the maker token (what to buy).",
                        "makerTokenAmounts": "Maker token buy amount for each sample.",
                        "opts": "BancorSamplerOpts The Bancor registry contract address and paths",
                        "takerToken": "Address of the taker token (what to sell)."
                    },
                    "returns": {
                        "bancorNetwork": "the Bancor Network address",
                        "path": "the selected conversion path from bancor",
                        "takerTokenAmounts": "Taker amounts sold at each maker token         amount."
                    }
                },
                "sampleBuysFromCurve((address,bytes4,bytes4),int128,int128,uint256[])": {
                    "details": "Sample buy quotes from Curve.",
                    "params": {
                        "curveInfo": "Curve information specific to this token pair.",
                        "fromTokenIdx": "Index of the taker token (what to sell).",
                        "makerTokenAmounts": "Maker token buy amount for each sample.",
                        "toTokenIdx": "Index of the maker token (what to buy)."
                    },
                    "returns": {
                        "takerTokenAmounts": "Taker amounts sold at each maker token         amount."
                    }
                },
                "sampleBuysFromDODO((address,address),address,address,uint256[])": {
                    "details": "Sample buy quotes from DODO.",
                    "params": {
                        "makerToken": "Address of the maker token (what to buy).",
                        "makerTokenAmounts": "Maker token sell amount for each sample.",
                        "opts": "DODOSamplerOpts DODO Registry and helper addresses",
                        "takerToken": "Address of the taker token (what to sell)."
                    },
                    "returns": {
                        "pool": "the DODO pool address",
                        "sellBase": "whether the bridge needs to sell the base token",
                        "takerTokenAmounts": "Taker amounts sold at each maker token         amount."
                    }
                },
                "sampleBuysFromDODOV2(address,uint256,address,address,uint256[])": {
                    "details": "Sample buy quotes from DODO.",
                    "params": {
                        "makerToken": "Address of the maker token (what to buy).",
                        "makerTokenAmounts": "Maker token sell amount for each sample.",
                        "offset": "offset index for the pool in the registry.",
                        "registry": "Address of the registry to look up.",
                        "takerToken": "Address of the taker token (what to sell)."
                    },
                    "returns": {
                        "pool": "the DODO pool address",
                        "sellBase": "whether the bridge needs to sell the base token",
                        "takerTokenAmounts": "Taker amounts sold at each maker token         amount."
                    }
                },
                "sampleBuysFromKyberDmm(address,address[],uint256[])": {
                    "details": "Sample buy quotes from KyberDmm.",
                    "params": {
                        "makerTokenAmounts": "Maker token buy amount for each sample.",
                        "path": "Token route. Should be takerToken -> makerToken.",
                        "router": "Router to look up tokens and amounts"
                    },
                    "returns": {
                        "pools": "The pool addresses involved in the multi path trade",
                        "takerTokenAmounts": "Taker amounts sold at each maker token         amount."
                    }
                },
                "sampleBuysFromKyberNetwork((uint256,address,address,address,bytes),address,address,uint256[])": {
                    "details": "Sample buy quotes from Kyber.",
                    "params": {
                        "makerToken": "Address of the maker token (what to buy).",
                        "makerTokenAmounts": "Maker token buy amount for each sample.",
                        "opts": "KyberSamplerOpts The nth reserve",
                        "takerToken": "Address of the taker token (what to sell)."
                    },
                    "returns": {
                        "hint": "The hint for the selected reserve",
                        "reserveId": "The id of the reserve found at reserveOffset",
                        "takerTokenAmounts": "Taker amounts sold at each maker token amount."
                    }
                },
                "sampleBuysFromLido((address,address),address,address,uint256[])": {
                    "details": "Sample buy quotes from Lido.",
                    "params": {
                        "lidoInfo": "Info regarding a specific Lido deployment",
                        "makerToken": "Address of the maker token (what to buy).",
                        "makerTokenAmounts": "Maker token buy amount for each sample.",
                        "takerToken": "Address of the taker token (what to sell)."
                    },
                    "returns": {
                        "_0": "takerTokenAmounts Taker amounts sold at each maker token         amount."
                    }
                },
                "sampleBuysFromLiquidityProvider(address,address,address,uint256[])": {
                    "details": "Sample buy quotes from an arbitrary on-chain liquidity provider.",
                    "params": {
                        "makerToken": "Address of the maker token (what to buy).",
                        "makerTokenAmounts": "Maker token buy amount for each sample.",
                        "providerAddress": "Address of the liquidity provider.",
                        "takerToken": "Address of the taker token (what to sell)."
                    },
                    "returns": {
                        "takerTokenAmounts": "Taker amounts sold at each maker token         amount."
                    }
                },
                "sampleBuysFromMStable(address,address,address,uint256[])": {
                    "details": "Sample buy quotes from MStable contract",
                    "params": {
                        "makerToken": "Address of the maker token (what to buy).",
                        "makerTokenAmounts": "Maker token buy amount for each sample.",
                        "router": "Address of the mStable contract",
                        "takerToken": "Address of the taker token (what to sell)."
                    },
                    "returns": {
                        "takerTokenAmounts": "Taker amounts sold at each maker token         amount."
                    }
                },
                "sampleBuysFromMooniswap(address,address,address,uint256[])": {
                    "details": "Sample buy quotes from Mooniswap.",
                    "params": {
                        "makerToken": "Address of the maker token (what to buy).",
                        "makerTokenAmounts": "Maker token sell amount for each sample.",
                        "registry": "Address of the Mooniswap Registry.",
                        "takerToken": "Address of the taker token (what to sell)."
                    },
                    "returns": {
                        "pool": "The contract address for the pool",
                        "takerTokenAmounts": "Taker amounts sold at each maker token         amount."
                    }
                },
                "sampleBuysFromShell(address,address,address,uint256[])": {
                    "details": "Sample buy quotes from Shell pool contract",
                    "params": {
                        "makerToken": "Address of the maker token (what to buy).",
                        "makerTokenAmounts": "Maker token buy amount for each sample.",
                        "pool": "Address of the Shell pool contract",
                        "takerToken": "Address of the taker token (what to sell)."
                    },
                    "returns": {
                        "takerTokenAmounts": "Taker amounts sold at each maker token         amount."
                    }
                },
                "sampleBuysFromSmoothy((address,bytes4,bytes4),int128,int128,uint256[])": {
                    "details": "Sample buy quotes from Smoothy.",
                    "params": {
                        "fromTokenIdx": "Index of the taker token (what to sell).",
                        "makerTokenAmounts": "Maker token buy amount for each sample.",
                        "smoothyInfo": "Smoothy information specific to this token pair.",
                        "toTokenIdx": "Index of the maker token (what to buy)."
                    },
                    "returns": {
                        "takerTokenAmounts": "Taker amounts sold at each maker token         amount."
                    }
                },
                "sampleBuysFromUniswap(address,address,address,uint256[])": {
                    "details": "Sample buy quotes from Uniswap.",
                    "params": {
                        "makerToken": "Address of the maker token (what to buy).",
                        "makerTokenAmounts": "Maker token sell amount for each sample.",
                        "takerToken": "Address of the taker token (what to sell)."
                    },
                    "returns": {
                        "takerTokenAmounts": "Taker amounts sold at each maker token         amount."
                    }
                },
                "sampleBuysFromUniswapV2(address,address[],uint256[])": {
                    "details": "Sample buy quotes from UniswapV2.",
                    "params": {
                        "makerTokenAmounts": "Maker token buy amount for each sample.",
                        "path": "Token route. Should be takerToken -> makerToken.",
                        "router": "Router to look up tokens and amounts"
                    },
                    "returns": {
                        "takerTokenAmounts": "Taker amounts sold at each maker token         amount."
                    }
                },
                "sampleBuysFromUniswapV3(address,address[],uint256[])": {
                    "details": "Sample buy quotes from UniswapV3.",
                    "params": {
                        "makerTokenAmounts": "Maker token buy amount for each sample.",
                        "path": "Token route. Should be takerToken -> makerToken.",
                        "quoter": "UniswapV3 Quoter contract."
                    },
                    "returns": {
                        "takerTokenAmounts": "Taker amounts sold at each maker token         amount.",
                        "uniswapPaths": "The encoded uniswap path for each sample."
                    }
                },
                "sampleSellsFromBalancer(address,address,address,uint256[])": {
                    "details": "Sample sell quotes from Balancer.",
                    "params": {
                        "makerToken": "Address of the maker token (what to buy).",
                        "poolAddress": "Address of the Balancer pool to query.",
                        "takerToken": "Address of the taker token (what to sell).",
                        "takerTokenAmounts": "Taker token sell amount for each sample."
                    },
                    "returns": {
                        "makerTokenAmounts": "Maker amounts bought at each taker token         amount."
                    }
                },
                "sampleSellsFromBalancerV2((bytes32,address),address,address,uint256[])": {
                    "details": "Sample sell quotes from Balancer V2.",
                    "params": {
                        "makerToken": "Address of the maker token (what to buy).",
                        "poolInfo": "Struct with pool related data",
                        "takerToken": "Address of the taker token (what to sell).",
                        "takerTokenAmounts": "Taker token sell amount for each sample."
                    },
                    "returns": {
                        "makerTokenAmounts": "Maker amounts bought at each taker token         amount."
                    }
                },
                "sampleSellsFromBancor((address,address[][]),address,address,uint256[])": {
                    "details": "Sample sell quotes from Bancor.",
                    "params": {
                        "makerToken": "Address of the maker token (what to buy).",
                        "opts": "BancorSamplerOpts The Bancor registry contract address and paths",
                        "takerToken": "Address of the taker token (what to sell).",
                        "takerTokenAmounts": "Taker token sell amount for each sample."
                    },
                    "returns": {
                        "bancorNetwork": "the Bancor Network address",
                        "makerTokenAmounts": "Maker amounts bought at each taker token         amount.",
                        "path": "the selected conversion path from bancor"
                    }
                },
                "sampleSellsFromCurve((address,bytes4,bytes4),int128,int128,uint256[])": {
                    "details": "Sample sell quotes from Curve.",
                    "params": {
                        "curveInfo": "Curve information specific to this token pair.",
                        "fromTokenIdx": "Index of the taker token (what to sell).",
                        "takerTokenAmounts": "Taker token sell amount for each sample.",
                        "toTokenIdx": "Index of the maker token (what to buy)."
                    },
                    "returns": {
                        "makerTokenAmounts": "Maker amounts bought at each taker token         amount."
                    }
                },
                "sampleSellsFromDODO((address,address),address,address,uint256[])": {
                    "details": "Sample sell quotes from DODO.",
                    "params": {
                        "makerToken": "Address of the maker token (what to buy).",
                        "opts": "DODOSamplerOpts DODO Registry and helper addresses",
                        "takerToken": "Address of the taker token (what to sell).",
                        "takerTokenAmounts": "Taker token sell amount for each sample."
                    },
                    "returns": {
                        "makerTokenAmounts": "Maker amounts bought at each taker token         amount.",
                        "pool": "the DODO pool address",
                        "sellBase": "whether the bridge needs to sell the base token"
                    }
                },
                "sampleSellsFromDODOV2(address,uint256,address,address,uint256[])": {
                    "details": "Sample sell quotes from DODO V2.",
                    "params": {
                        "makerToken": "Address of the maker token (what to buy).",
                        "offset": "offset index for the pool in the registry.",
                        "registry": "Address of the registry to look up.",
                        "takerToken": "Address of the taker token (what to sell).",
                        "takerTokenAmounts": "Taker token sell amount for each sample."
                    },
                    "returns": {
                        "makerTokenAmounts": "Maker amounts bought at each taker token         amount.",
                        "pool": "the DODO pool address",
                        "sellBase": "whether the bridge needs to sell the base token"
                    }
                },
                "sampleSellsFromKyberDmm(address,address[],uint256[])": {
                    "details": "Sample sell quotes from KyberDmm.",
                    "params": {
                        "path": "Token route. Should be takerToken -> makerToken",
                        "router": "Router to look up tokens and amounts",
                        "takerTokenAmounts": "Taker token sell amount for each sample."
                    },
                    "returns": {
                        "makerTokenAmounts": "Maker amounts bought at each taker token         amount.",
                        "pools": "The pool addresses involved in the multi path trade"
                    }
                },
                "sampleSellsFromKyberNetwork((uint256,address,address,address,bytes),address,address,uint256[])": {
                    "details": "Sample sell quotes from Kyber.",
                    "params": {
                        "makerToken": "Address of the maker token (what to buy).",
                        "opts": "KyberSamplerOpts The nth reserve",
                        "takerToken": "Address of the taker token (what to sell).",
                        "takerTokenAmounts": "Taker token sell amount for each sample."
                    },
                    "returns": {
                        "hint": "The hint for the selected reserve",
                        "makerTokenAmounts": "Maker amounts bought at each taker token amount.",
                        "reserveId": "The id of the reserve found at reserveOffset"
                    }
                },
                "sampleSellsFromLido((address,address),address,address,uint256[])": {
                    "details": "Sample sell quotes from Lido",
                    "params": {
                        "lidoInfo": "Info regarding a specific Lido deployment",
                        "makerToken": "Address of the maker token (what to buy).",
                        "takerToken": "Address of the taker token (what to sell).",
                        "takerTokenAmounts": "Taker token sell amount for each sample."
                    },
                    "returns": {
                        "_0": "makerTokenAmounts Maker amounts bought at each taker token         amount."
                    }
                },
                "sampleSellsFromLiquidityProvider(address,address,address,uint256[])": {
                    "details": "Sample sell quotes from an arbitrary on-chain liquidity provider.",
                    "params": {
                        "makerToken": "Address of the maker token (what to buy).",
                        "providerAddress": "Address of the liquidity provider.",
                        "takerToken": "Address of the taker token (what to sell).",
                        "takerTokenAmounts": "Taker token sell amount for each sample."
                    },
                    "returns": {
                        "makerTokenAmounts": "Maker amounts bought at each taker token         amount."
                    }
                },
                "sampleSellsFromMStable(address,address,address,uint256[])": {
                    "details": "Sample sell quotes from the mStable contract",
                    "params": {
                        "makerToken": "Address of the maker token (what to buy).",
                        "router": "Address of the mStable contract",
                        "takerToken": "Address of the taker token (what to sell).",
                        "takerTokenAmounts": "Taker token sell amount for each sample."
                    },
                    "returns": {
                        "makerTokenAmounts": "Maker amounts bought at each taker token         amount."
                    }
                },
                "sampleSellsFromMakerPsm((address,bytes32,address),address,address,uint256[])": {
                    "details": "Sample sell quotes from Maker PSM"
                },
                "sampleSellsFromMooniswap(address,address,address,uint256[])": {
                    "details": "Sample sell quotes from Mooniswap.",
                    "params": {
                        "makerToken": "Address of the maker token (what to buy).",
                        "registry": "Address of the Mooniswap Registry.",
                        "takerToken": "Address of the taker token (what to sell).",
                        "takerTokenAmounts": "Taker token sell amount for each sample."
                    },
                    "returns": {
                        "makerTokenAmounts": "Maker amounts bought at each taker token         amount.",
                        "pool": "The contract address for the pool"
                    }
                },
                "sampleSellsFromMultiBridge(address,address,address,address,uint256[])": {
                    "details": "Sample sell quotes from MultiBridge.",
                    "params": {
                        "intermediateToken": "The address of the intermediate token to        use in an indirect route.",
                        "makerToken": "Address of the maker token (what to buy).",
                        "multibridge": "Address of the MultiBridge contract.",
                        "takerToken": "Address of the taker token (what to sell).",
                        "takerTokenAmounts": "Taker token sell amount for each sample."
                    },
                    "returns": {
                        "makerTokenAmounts": "Maker amounts bought at each taker token         amount."
                    }
                },
                "sampleSellsFromShell(address,address,address,uint256[])": {
                    "details": "Sample sell quotes from the Shell pool contract",
                    "params": {
                        "makerToken": "Address of the maker token (what to buy).",
                        "pool": "Address of the Shell pool contract",
                        "takerToken": "Address of the taker token (what to sell).",
                        "takerTokenAmounts": "Taker token sell amount for each sample."
                    },
                    "returns": {
                        "makerTokenAmounts": "Maker amounts bought at each taker token         amount."
                    }
                },
                "sampleSellsFromSmoothy((address,bytes4,bytes4),int128,int128,uint256[])": {
                    "details": "Sample sell quotes from Smoothy.",
                    "params": {
                        "fromTokenIdx": "Index of the taker token (what to sell).",
                        "smoothyInfo": "Smoothy information specific to this token pair.",
                        "takerTokenAmounts": "Taker token sell amount for each sample.",
                        "toTokenIdx": "Index of the maker token (what to buy)."
                    },
                    "returns": {
                        "makerTokenAmounts": "Maker amounts bought at each taker token         amount."
                    }
                },
                "sampleSellsFromUniswap(address,address,address,uint256[])": {
                    "details": "Sample sell quotes from Uniswap.",
                    "params": {
                        "makerToken": "Address of the maker token (what to buy).",
                        "router": "Address of the Uniswap Router",
                        "takerToken": "Address of the taker token (what to sell).",
                        "takerTokenAmounts": "Taker token sell amount for each sample."
                    },
                    "returns": {
                        "makerTokenAmounts": "Maker amounts bought at each taker token         amount."
                    }
                },
                "sampleSellsFromUniswapV2(address,address[],uint256[])": {
                    "details": "Sample sell quotes from UniswapV2.",
                    "params": {
                        "path": "Token route. Should be takerToken -> makerToken",
                        "router": "Router to look up tokens and amounts",
                        "takerTokenAmounts": "Taker token sell amount for each sample."
                    },
                    "returns": {
                        "makerTokenAmounts": "Maker amounts bought at each taker token         amount."
                    }
                },
                "sampleSellsFromUniswapV3(address,address[],uint256[])": {
                    "details": "Sample sell quotes from UniswapV3.",
                    "params": {
                        "path": "Token route. Should be takerToken -> makerToken",
                        "quoter": "UniswapV3 Quoter contract.",
                        "takerTokenAmounts": "Taker token sell amount for each sample."
                    },
                    "returns": {
                        "makerTokenAmounts": "Maker amounts bought at each taker token         amount.",
                        "uniswapPaths": "The encoded uniswap path for each sample."
                    }
                }
            },
            "version": 1
        },
        "evm": {
            "bytecode": {
                "linkReferences": {},
                "object": "0x60a06040527feeeeeeeeeeeeeeeeeeeeeeeeeeeeeeeeeeeeeeee0000000000000000000000006080523480156200003557600080fd5b5060805160601c61a66a6200005e60003980612f875280614c605280615653525061a66a6000f3fe608060405234801561001057600080fd5b50600436106103425760003560e01c80637f7f4f13116101b8578063b90cd2fb11610104578063ddd5aa28116100a2578063f1ed7fa41161007c578063f1ed7fa414610797578063f3868e9c1461048d578063f5a4994d146107aa578063fc9fe41b146107bd57610342565b8063ddd5aa281461075e578063e78ac04514610771578063e8e4af091461078457610342565b8063c8319084116100de578063c831908414610712578063c8c74a3714610725578063cc1621c914610738578063d9bca3721461074b57610342565b8063b90cd2fb146106d9578063bd71ecf6146106ec578063c25c4138146106ff57610342565b80639e3f05c311610171578063a46984171161014b578063a46984171461067f578063a75e744b14610692578063a76bbec4146106a5578063adc636bf146106b857610342565b80639e3f05c3146106375780639ea0ff1314610659578063a0295b8b1461066c57610342565b80637f7f4f13146105b65780638b6d7b44146105c95780638e5a0e07146105dc5780639209483b146105fe57806398777748146106115780639bf3ee351461062457610342565b8063360523911161029257806357494b1d1161023057806366a1ac6b1161020a57806366a1ac6b1461055d57806368be3cf214610570578063706e2f9b1461059057806374c9d255146105a357610342565b806357494b1d146105245780635aae4e53146105375780635d5b674f1461054a57610342565b8063494569db1161026c578063494569db146104c85780634edfb5b2146104db57806351be4eaa146104fb5780635505000a1461050357610342565b8063360523911461048d57806340bc03ae146104a057806342cbb15c146104b357610342565b8063252322b3116102ff5780632aa64319116102d95780632aa64319146104325780632d753aa41461045457806330d6570d146104675780633105fec11461047a57610342565b8063252322b3146103f9578063281e34321461040c57806329fa4aa01461041f57610342565b8063034eaff9146103475780630496d5dc146103705780631022742b14610391578063149dab0e146103a457806316279055146103c65780632339078f146103e6575b600080fd5b61035a610355366004618d9f565b6107d0565b604051610367919061a06c565b60405180910390f35b61038361037e366004618e61565b6109f2565b604051610367929190619f48565b61035a61039f366004619294565b610b98565b6103b76103b2366004619511565b610d0b565b60405161036793929190619e14565b6103d96103d4366004618b38565b610e6b565b604051610367919061a07f565b61035a6103f4366004619492565b610e75565b61035a610407366004618d9f565b61109c565b61035a61041a3660046197a7565b611266565b61035a61042d3660046195ca565b6114bb565b610445610440366004619623565b61152a565b6040516103679392919061a08a565b61035a610462366004618d1a565b611807565b61035a610475366004618d9f565b611990565b61035a610488366004618e61565b611b04565b61035a61049b366004619623565b611c88565b61035a6104ae3660046195ca565b611d1a565b6104bb611e9b565b604051610367919061a0b6565b6103836104d6366004618e61565b611e9f565b6104ee6104e9366004619709565b61202b565b604051610367919061a0d8565b6104bb6122a9565b6105166105113660046193fb565b6122b1565b604051610367929190619f8f565b61035a610532366004618d9f565b6124fc565b6105166105453660046193fb565b612a73565b61035a610558366004618d9f565b612cb8565b61035a61056b366004619294565b612d1e565b61058361057e36600461906e565b612dd3565b6040516103679190619ff7565b61035a61059e366004619145565b612f34565b6103b76105b1366004619511565b613026565b61035a6105c43660046197a7565b613035565b61035a6105d73660046195ca565b613282565b6105ef6105ea3660046190dc565b6135e5565b6040516103679392919061a368565b61035a61060c3660046195ca565b6137fe565b61035a61061f366004618d9f565b6139fe565b6104bb610632366004619767565b613f37565b61064a610645366004619652565b61407e565b6040516103679392919061a0bf565b6104bb610667366004618e11565b6141a4565b61035a61067a366004619492565b6143ba565b61035a61068d366004618d9f565b6145b6565b6104456106a0366004618ed3565b61470b565b61035a6106b3366004618d9f565b614848565b6106cb6106c6366004618d9f565b614a57565b60405161036792919061a126565b61035a6106e7366004618d9f565b614ba7565b61035a6106fa366004619177565b614c0d565b61035a61070d366004618d9f565b614d09565b61035a610720366004618d9f565b614d6f565b61035a610733366004618e61565b614f2c565b61064a610746366004619652565b615098565b610445610759366004618ed3565b61527e565b61044561076c366004619623565b61536d565b61035a61077f3660046191bb565b615600565b61035a610792366004618d9f565b6156f5565b6104bb6107a53660046196c2565b615828565b6106cb6107b8366004618d9f565b6159c7565b6105ef6107cb3660046190dc565b615ab3565b8051606090806001600160401b03811180156107eb57600080fd5b50604051908082528060200260200182016040528015610815578160200160208202803683370190505b5091506000866001600160a01b031663182df0f56040518163ffffffff1660e01b815260040160206040518083038186803b15801561085357600080fd5b505afa158015610867573d6000803e3d6000fd5b505050506040513d601f19601f8201168201806040525081019061088b91906193b1565b90506000876001600160a01b031663313ce5676040518163ffffffff1660e01b815260040160206040518083038186803b1580156108c857600080fd5b505afa1580156108dc573d6000803e3d6000fd5b505050506040513d601f19601f820116820180604052508101906109009190619955565b60ff169050876001600160a01b0316866001600160a01b031614156109785760005b838110156109725781600a0a6402540be400028387838151811061094257fe5b6020026020010151028161095257fe5b0485828151811061095f57fe5b6020908102919091010152600101610922565b506109e7565b876001600160a01b0316876001600160a01b031614156109e75760005b838110156109e5578282600a0a6402540be4008884815181106109b457fe5b60200260200101510202816109c557fe5b048582815181106109d257fe5b6020908102919091010152600101610995565b505b505050949350505050565b80516060908190806001600160401b0381118015610a0f57600080fd5b50604051908082528060200260200182016040528015610a39578160200160208202803683370190505b509150610a468686615cc8565b9250825160001415610a585750610b90565b60005b81811015610b8d57866001600160a01b031663a8312b1d620249f0878481518110610a8257fe5b6020026020010151878a6040518563ffffffff1660e01b8152600401610aaa9392919061a47a565b60006040518083038187803b158015610ac257600080fd5b5086fa93505050508015610af857506040513d6000823e601f3d908101601f19168201604052610af59190810190619363565b60015b610b32573d808015610b26576040519150601f19603f3d011682016040523d82523d6000602084013e610b2b565b606091505b5050610b8d565b80600188510381518110610b4257fe5b6020026020010151848381518110610b5657fe5b602002602001018181525050838281518110610b6e57fe5b602002602001015160001415610b845750610b8d565b50600101610a5b565b50505b935093915050565b606083516001600160401b0381118015610bb157600080fd5b50604051908082528060200260200182016040528015610bdb578160200160208202803683370190505b50905060005b84518114610d0357306001600160a01b0316639bf3ee3562030d40878481518110610c0857fe5b6020026020010151878581518110610c1c57fe5b6020026020010151876040518563ffffffff1660e01b8152600401610c439392919061a42a565b60206040518083038187803b158015610c5b57600080fd5b5086fa93505050508015610c8c575060408051601f3d908101601f19168201909252610c89918101906193b1565b60015b610ce0573d808015610cba576040519150601f19603f3d011682016040523d82523d6000602084013e610cbf565b606091505b506000838381518110610cce57fe5b60200260200101818152505050610cfb565b80838381518110610ced57fe5b602002602001018181525050505b600101610be1565b509392505050565b600060608086602001515160001415610d2357610e61565b610d2f87878787615fb8565b855191945092506001600160401b0381118015610d4b57600080fd5b50604051908082528060200260200182016040528015610d75578160200160208202803683370190505b50905060005b8151811015610e5f57836001600160a01b0316637f9c0ecd620493e085888581518110610da457fe5b60200260200101516040518463ffffffff1660e01b8152600401610dc9929190619f6d565b60206040518083038187803b158015610de157600080fd5b5086fa93505050508015610e12575060408051601f3d908101601f19168201909252610e0f918101906193b1565b60015b610e1b57610e5f565b80838381518110610e2857fe5b602002602001018181525050828281518110610e4057fe5b602002602001015160001415610e565750610e5f565b50600101610d7b565b505b9450945094915050565b803b15155b919050565b6060610e8183856161ea565b602085015160408051600280825260608281019093528160200160208202803683370190505090508581600081518110610eb757fe5b60200260200101906001600160a01b031690816001600160a01b0316815250508481600181518110610ee557fe5b6001600160a01b03909216602092830291909101909101528351806001600160401b0381118015610f1557600080fd5b50604051908082528060200260200182016040528015610f3f578160200160208202803683370190505b509350610f4a61838d565b610f52616229565b905060005b8281101561108f576060610f7e8b898481518110610f7157fe5b6020026020010151616258565b604051637c26833760e11b81529091506001600160a01b0387169063f84d066e90610fb49060009085908a90899060040161a179565b600060405180830381600087803b158015610fce57600080fd5b505af192505050801561100357506040513d6000823e601f3d908101601f191682016040526110009190810190619211565b60015b61103e573d808015611031576040519150601f19603f3d011682016040523d82523d6000602084013e611036565b606091505b50505061108f565b60008160018151811061104d57fe5b60200260200101516000190290506000811361106b5750505061108f565b8089858151811061107857fe5b602002602001018181525050505050600101610f57565b5050505050949350505050565b60606110a883856161ea565b8151806001600160401b03811180156110c057600080fd5b506040519080825280602002602001820160405280156110ea578160200160208202803683370190505b50915060006001600160a01b0386161561110d5761110887876162ea565b611110565b60005b905060006001600160a01b038616156111325761112d88876162ea565b611135565b60005b905060005b838110156109e55760016001600160a01b0388166111985761117784632640f62c60e01b89858151811061116a57fe5b6020026020010151616369565b87848151811061118357fe5b60200260200101819350828152505050611232565b6001600160a01b0389166111be57611177836359e9486260e01b89858151811061116a57fe5b60006111d8846359e9486260e01b8a868151811061116a57fe5b925090508015611215576111f4856309903d8b60e21b83616369565b88858151811061120057fe5b60200260200101819450828152505050611230565b600087848151811061122357fe5b6020026020010181815250505b505b801580611252575085828151811061124657fe5b60200260200101516000145b1561125d57506109e5565b5060010161113a565b606061127283856161ea565b6000856000015190506000816001600160a01b03166336569e776040518163ffffffff1660e01b815260040160206040518083038186803b1580156112b657600080fd5b505afa1580156112ca573d6000803e3d6000fd5b505050506040513d601f19601f820116820180604052508101906112ee9190618b54565b8451909150806001600160401b038111801561130957600080fd5b50604051908082528060200260200182016040528015611333578160200160208202803683370190505b509350826001600160a01b031663f4b9fa756040518163ffffffff1660e01b815260040160206040518083038186803b15801561136f57600080fd5b505afa158015611383573d6000803e3d6000fd5b505050506040513d601f19601f820116820180604052508101906113a79190618b54565b6001600160a01b0316866001600160a01b03161415801561144a5750826001600160a01b031663f4b9fa756040518163ffffffff1660e01b815260040160206040518083038186803b1580156113fc57600080fd5b505afa158015611410573d6000803e3d6000fd5b505050506040513d601f19601f820116820180604052508101906114349190618b54565b6001600160a01b0316876001600160a01b031614155b15611457575050506114b3565b60005b818110156109e55760006114858a898b8a868151811061147657fe5b6020026020010151898961644c565b90508061149257506109e5565b8086838151811061149f57fe5b60209081029190910101525060010161145a565b949350505050565b60408051606081810190925261152190806114da86896080840161a250565b6040516020818303038152906040528152602001868860405160200161150192919061a250565b604051602081830303815290604052815260200161670d81525083616840565b95945050505050565b600080606061153985876161ea565b8351806001600160401b038111801561155157600080fd5b5060405190808252806020026020018201604052801561157b578160200160208202803683370190505b508851604051630939d86360e11b81529193506001600160a01b031690631273b0c6906115ae908a908a90600401619cb0565b60206040518083038186803b1580156115c657600080fd5b505afa1580156115da573d6000803e3d6000fd5b505050506040513d601f19601f820116820180604052508101906115fe9190618b54565b925060006001600160a01b0384161561161c575060019350866116bb565b8851604051630939d86360e11b81526001600160a01b0390911690631273b0c69061164d908a908c90600401619cb0565b60206040518083038186803b15801561166557600080fd5b505afa158015611679573d6000803e3d6000fd5b505050506040513d601f19601f8201168201806040525081019061169d9190618b54565b93506001600160a01b0384166116b4575050610e61565b5060009350855b836001600160a01b031663dd58b41c6040518163ffffffff1660e01b815260040160206040518083038186803b1580156116f457600080fd5b505afa158015611708573d6000803e3d6000fd5b505050506040513d601f19601f8201168201806040525081019061172c9190619395565b611737575050610e61565b60005b828110156117fa5760006117b48a87858e602001516040516020016117629493929190619cca565b6040516020818303038152906040528a88868f6020015160405160200161178c9493929190619cca565b6040516020818303038152906040528a85815181106117a757fe5b6020026020010151616a52565b9050808583815181106117c357fe5b6020026020010181815250508482815181106117db57fe5b6020026020010151600014156117f157506117fa565b5060010161173a565b5050509450945094915050565b8051606090806001600160401b038111801561182257600080fd5b5060405190808252806020026020018201604052801561184c578160200160208202803683370190505b5091506001600160a01b0387166118635750611521565b60005b818110156119855760006060896001600160a01b031662061a80636e79e13360e01b8b8b8b8b898151811061189757fe5b60200260200101516040516024016118b29493929190619d29565b60408051601f198184030181529181526020820180516001600160e01b03166001600160e01b03199094169390931790925290516118f09190619c67565b6000604051808303818686fa925050503d806000811461192c576040519150601f19603f3d011682016040523d82523d6000602084013e611931565b606091505b509150915060008215611955578180602001905181019061195291906193b1565b90505b8061196257505050611985565b8086858151811061196f57fe5b6020908102919091010152505050600101611866565b505095945050505050565b606061199c83856161ea565b8151806001600160401b03811180156119b457600080fd5b506040519080825280602002602001820160405280156119de578160200160208202803683370190505b50915060005b81811015611afa57866001600160a01b03166372ea9076620c35008888888681518110611a0d57fe5b60200260200101516040518563ffffffff1660e01b8152600401611a3393929190619dab565b60206040518083038187803b158015611a4b57600080fd5b5086fa93505050508015611a7c575060408051601f3d908101601f19168201909252611a79918101906193b1565b60015b611ab6573d808015611aaa576040519150601f19603f3d011682016040523d82523d6000602084013e611aaf565b606091505b5050611afa565b80848381518110611ac357fe5b602002602001018181525050838281518110611adb57fe5b602002602001015160001415611af15750611afa565b506001016119e4565b5050949350505050565b8051606090806001600160401b0381118015611b1f57600080fd5b50604051908082528060200260200182016040528015611b49578160200160208202803683370190505b50915060005b81811015611c7f57856001600160a01b031663d06ca61f620249f0868481518110611b7657fe5b6020026020010151886040518463ffffffff1660e01b8152600401611b9c92919061a461565b60006040518083038187803b158015611bb457600080fd5b5086fa93505050508015611bea57506040513d6000823e601f3d908101601f19168201604052611be79190810190619363565b60015b611c24573d808015611c18576040519150601f19603f3d011682016040523d82523d6000602084013e611c1d565b606091505b5050611c7f565b80600187510381518110611c3457fe5b6020026020010151848381518110611c4857fe5b602002602001018181525050838281518110611c6057fe5b602002602001015160001415611c765750611c7f565b50600101611b4f565b50509392505050565b6060611c9483856161ea565b84602001516001600160a01b0316846001600160a01b0316141580611cc6575084516001600160a01b03848116911614155b15610d035781516060816001600160401b0381118015611ce557600080fd5b50604051908082528060200260200182016040528015611d0f578160200160208202803683370190505b5092506114b3915050565b8051606090806001600160401b0381118015611d3557600080fd5b50604051908082528060200260200182016040528015611d5f578160200160208202803683370190505b50915060005b81811015611afa576000606088600001516001600160a01b0316621e84808a602001518a8a8a8881518110611d9657fe5b6020026020010151604051602401611db09392919061a232565b60408051601f198184030181529181526020820180516001600160e01b03166001600160e01b0319909416939093179092529051611dee9190619c67565b6000604051808303818686fa925050503d8060008114611e2a576040519150601f19603f3d011682016040523d82523d6000602084013e611e2f565b606091505b509150915060008215611e535781806020019051810190611e5091906193b1565b90505b80868581518110611e6057fe5b602002602001018181525050858481518110611e7857fe5b602002602001015160001415611e9057505050611afa565b505050600101611d65565b4390565b80516060908190806001600160401b0381118015611ebc57600080fd5b50604051908082528060200260200182016040528015611ee6578160200160208202803683370190505b509150611ef38686615cc8565b9250825160001415611f055750610b90565b60005b81811015610b8d57866001600160a01b0316639e269b68620249f0878481518110611f2f57fe5b6020026020010151878a6040518563ffffffff1660e01b8152600401611f579392919061a47a565b60006040518083038187803b158015611f6f57600080fd5b5086fa93505050508015611fa557506040513d6000823e601f3d908101601f19168201604052611fa29190810190619363565b60015b611fd3573d808015610b26576040519150601f19603f3d011682016040523d82523d6000602084013e610b2b565b80600081518110611fe057fe5b6020026020010151848381518110611ff457fe5b60200260200101818152505083828151811061200c57fe5b6020026020010151600014156120225750610b8d565b50600101611f08565b6020848101516040805160018082528183019092526060938492908281019080368337019050509050858160008151811061206257fe5b60209081029190910101526060600060405190808252806020026020018201604052801561209a578160200160208202803683370190505b50905087606001516001600160a01b0316866001600160a01b0316141561218b576040516381efcbdd60e01b81526001600160a01b038416906381efcbdd906207a120906120f390899060019088908890600401619e4a565b60006040518083038187803b15801561210b57600080fd5b5086fa9350505050801561214157506040513d6000823e601f3d908101601f1916820160405261213e91908101906193c9565b60015b61217b573d80801561216f576040519150601f19603f3d011682016040523d82523d6000602084013e612174565b606091505b5050612186565b93506114b392505050565b6109e7565b87606001516001600160a01b0316856001600160a01b031614156121e1576040516361e597f960e01b81526001600160a01b038416906361e597f9906207a120906120f3908a9060019088908890600401619e4a565b6040516302b9a6cd60e11b81526001600160a01b038416906305734d9a906207a12090612221908a90600190889088908d90849084908490600401619e8d565b60006040518083038187803b15801561223957600080fd5b5086fa9350505050801561226f57506040513d6000823e601f3d908101601f1916820160405261226c91908101906193c9565b60015b61217b573d80801561229d576040519150601f19603f3d011682016040523d82523d6000602084013e6122a2565b606091505b50506109e7565b60005a905090565b6060806060612332866001600160a01b031663c45a01556040518163ffffffff1660e01b815260040160206040518083038186803b1580156122f257600080fd5b505afa158015612306573d6000803e3d6000fd5b505050506040513d601f19601f8201168201806040525081019061232a9190618b54565b866000616b8b565b905083516001600160401b038111801561234b57600080fd5b50604051908082528060200260200182016040528015612375578160200160208202803683370190505b50915083516001600160401b038111801561238f57600080fd5b506040519080825280602002602001820160405280156123c357816020015b60608152602001906001900390816123ae5790505b50925060005b8451811015610b8d5760606000805b84518110156124b45760606124008a8784815181106123f357fe5b602002602001015161702b565b90508a6001600160a01b031663cdca1753620927c0838c898151811061242257fe5b60200260200101516040518463ffffffff1660e01b815260040161244792919061a0eb565b602060405180830381600088803b15801561246157600080fd5b5087f193505050508015612492575060408051601f3d908101601f1916820190925261248f918101906193b1565b60015b61249b576124ab565b8084116124a9578093508194505b505b506001016123d8565b50806124c1575050610b8d565b808584815181106124ce57fe5b602002602001018181525050818684815181106124e757fe5b602090810291909101015250506001016123c9565b80516060908590806001600160401b038111801561251957600080fd5b50604051908082528060200260200182016040528015612543578160200160208202803683370190505b50604051630bcded8960e21b81529093506001600160a01b03831690632f37b62490612573908990600401619c83565b60206040518083038186803b15801561258b57600080fd5b505afa15801561259f573d6000803e3d6000fd5b505050506040513d601f19601f820116820180604052508101906125c39190619395565b15806126485750604051630bcded8960e21b81526001600160a01b03831690632f37b624906125f6908890600401619c83565b60206040518083038186803b15801561260e57600080fd5b505afa158015612622573d6000803e3d6000fd5b505050506040513d601f19601f820116820180604052508101906126469190619395565b155b156126545750506114b3565b61265c6183b4565b60405163f8b2cb4f60e01b81526001600160a01b0384169063f8b2cb4f90612688908a90600401619c83565b60206040518083038186803b1580156126a057600080fd5b505afa1580156126b4573d6000803e3d6000fd5b505050506040513d601f19601f820116820180604052508101906126d891906193b1565b815260405163f8b2cb4f60e01b81526001600160a01b0384169063f8b2cb4f90612706908990600401619c83565b60206040518083038186803b15801561271e57600080fd5b505afa158015612732573d6000803e3d6000fd5b505050506040513d601f19601f8201168201806040525081019061275691906193b1565b6020820152604051634a46c67360e11b81526001600160a01b0384169063948d8ce690612787908a90600401619c83565b60206040518083038186803b15801561279f57600080fd5b505afa1580156127b3573d6000803e3d6000fd5b505050506040513d601f19601f820116820180604052508101906127d791906193b1565b60408083019190915251634a46c67360e11b81526001600160a01b0384169063948d8ce69061280a908990600401619c83565b60206040518083038186803b15801561282257600080fd5b505afa158015612836573d6000803e3d6000fd5b505050506040513d601f19601f8201168201806040525081019061285a91906193b1565b816060018181525050826001600160a01b031663d4cadf686040518163ffffffff1660e01b815260040160206040518083038186803b15801561289c57600080fd5b505afa1580156128b0573d6000803e3d6000fd5b505050506040513d601f19601f820116820180604052508101906128d491906193b1565b608082015260005b828110156109e55761290782602001516003670de0b6b3a7640000816128fe57fe5b04600101617186565b86828151811061291357fe5b60200260200101511115612926576109e5565b836001600160a01b031663f8d6aed4620493e084600001518560400151866020015187606001518c888151811061295957fe5b602002602001015189608001516040518863ffffffff1660e01b81526004016129879695949392919061a4a5565b60206040518083038187803b15801561299f57600080fd5b5086fa935050505080156129d0575060408051601f3d908101601f191682019092526129cd918101906193b1565b60015b612a0a573d8080156129fe576040519150601f19603f3d011682016040523d82523d6000602084013e612a03565b606091505b50506109e5565b8251612a22906002670de0b6b3a76400005b04617186565b811115612a2f57506109e5565b80868381518110612a3c57fe5b602002602001018181525050858281518110612a5457fe5b602002602001015160001415612a6a57506109e5565b506001016128dc565b6060806060612ab4866001600160a01b031663c45a01556040518163ffffffff1660e01b815260040160206040518083038186803b1580156122f257600080fd5b90506060612ac1866171e3565b905084516001600160401b0381118015612ada57600080fd5b50604051908082528060200260200182016040528015612b04578160200160208202803683370190505b50925084516001600160401b0381118015612b1e57600080fd5b50604051908082528060200260200182016040528015612b5257816020015b6060815260200190600190039081612b3d5790505b50935060005b8551811015612cad5760606000805b8551811015612c65576060612b9786612b92898581518110612b8557fe5b602002602001015161727b565b61702b565b90508b6001600160a01b0316632f80bb1d620927c0838d8981518110612bb957fe5b60200260200101516040518463ffffffff1660e01b8152600401612bde92919061a0eb565b602060405180830381600088803b158015612bf857600080fd5b5087f193505050508015612c29575060408051601f3d908101601f19168201909252612c26918101906193b1565b60015b612c3257612c5c565b831580612c3f5750808410155b15612c5a57809350612c578c8985815181106123f357fe5b94505b505b50600101612b67565b5080612c72575050612cad565b80868481518110612c7f57fe5b60200260200101818152505081878481518110612c9857fe5b60209081029190910101525050600101612b58565b505050935093915050565b6040805160608181019092526115219080612cd7868960808401619cb0565b60405160208183030381529060405281526020018688604051602001612cfe929190619cb0565b604051602081830303815290604052815260200161731381525083616840565b6060612d2b848484610b98565b905060005b8451811015610d0357818181518110612d4557fe5b6020026020010151600014612dcb57612db2828281518110612d6357fe5b6020026020010151868381518110612d7757fe5b6020026020010151606001516001600160801b0316878481518110612d9857fe5b6020026020010151604001516001600160801b0316617427565b828281518110612dbe57fe5b6020026020010181815250505b600101612d30565b6060816001600160401b0381118015612deb57600080fd5b50604051908082528060200260200182016040528015612e2557816020015b612e126183e3565b815260200190600190039081612e0a5790505b50905060005b808314612f2d576001828281518110612e4057fe5b602090810291909101810151911515910152838382818110612e5e57fe5b9050602002810190612e70919061a4cd565b15159050612e7d57612f25565b30848483818110612e8a57fe5b9050602002810190612e9c919061a4cd565b604051612eaa929190619c57565b6000604051808303816000865af19150503d8060008114612ee7576040519150601f19603f3d011682016040523d82523d6000602084013e612eec565b606091505b50838381518110612ef957fe5b6020026020010151602001848481518110612f1057fe5b60209081029190910101519190915290151590525b600101612e2b565b5092915050565b606081516001600160401b0381118015612f4d57600080fd5b50604051908082528060200260200182016040528015612f77578160200160208202803683370190505b50905060005b82518114613020577f00000000000000000000000000000000000000000000000000000000000000006001600160a01b0316838281518110612fbb57fe5b60200260200101516001600160a01b031614612ffb57612ff6838281518110612fe057fe5b60200260200101516001600160a01b031661744b565b612ffe565b60125b60ff1682828151811061300d57fe5b6020908102919091010152600101612f7d565b50919050565b60006060809450945094915050565b606061304183856161ea565b6000856000015190506000816001600160a01b03166336569e776040518163ffffffff1660e01b815260040160206040518083038186803b15801561308557600080fd5b505afa158015613099573d6000803e3d6000fd5b505050506040513d601f19601f820116820180604052508101906130bd9190618b54565b8451909150806001600160401b03811180156130d857600080fd5b50604051908082528060200260200182016040528015613102578160200160208202803683370190505b509350826001600160a01b031663f4b9fa756040518163ffffffff1660e01b815260040160206040518083038186803b15801561313e57600080fd5b505afa158015613152573d6000803e3d6000fd5b505050506040513d601f19601f820116820180604052508101906131769190618b54565b6001600160a01b0316866001600160a01b0316141580156132195750826001600160a01b031663f4b9fa756040518163ffffffff1660e01b815260040160206040518083038186803b1580156131cb57600080fd5b505afa1580156131df573d6000803e3d6000fd5b505050506040513d601f19601f820116820180604052508101906132039190618b54565b6001600160a01b0316876001600160a01b031614155b15613226575050506114b3565b60005b818110156109e55760006132548a898b8a868151811061324557fe5b602002602001015189896174f7565b90508061326157506109e5565b8086838151811061326e57fe5b602090810291909101015250600101613229565b6060600085600001516001600160a01b031663bbd7f25585600f0b6040518263ffffffff1660e01b81526004016132b9919061a0b6565b60206040518083038186803b1580156132d157600080fd5b505afa1580156132e5573d6000803e3d6000fd5b505050506040513d601f19601f8201168201806040525081019061330991906193b1565b8651604051631e01043960e01b81526001600160a01b0390911690631e0104399061333c90600f89900b9060040161a0b6565b60206040518083038186803b15801561335457600080fd5b505afa158015613368573d6000803e3d6000fd5b505050506040513d601f19601f8201168201806040525081019061338c91906193b1565b039050600086600001516001600160a01b031663c582951486600f0b6040518263ffffffff1660e01b81526004016133c4919061a0b6565b60806040518083038186803b1580156133dc57600080fd5b505afa1580156133f0573d6000803e3d6000fd5b505050506040513d601f19601f8201168201806040525081019061341491906198e1565b935050505080601203600a0a828161342857fe5b85519190049250806001600160401b038111801561344557600080fd5b5060405190808252806020026020018201604052801561346f578160200160208202803683370190505b50935060005b818110156109e557600060608a600001516001600160a01b0316620927c08c602001518c8c8c88815181106134a657fe5b60200260200101516040516024016134c09392919061a232565b60408051601f198184030181529181526020820180516001600160e01b03166001600160e01b03199094169390931790925290516134fe9190619c67565b6000604051808303818686fa925050503d806000811461353a576040519150601f19603f3d011682016040523d82523d6000602084013e61353f565b606091505b509150915060008215613563578180602001905181019061356091906193b1565b90505b86811061359d57835b85811015613594578789828151811061358157fe5b602090810291909101015260010161356c565b505050506109e5565b808885815181106135aa57fe5b6020026020010181815250508784815181106135c257fe5b6020026020010151600014156135da575050506109e5565b505050600101613475565b6135ed6183fb565b6135f56183fb565b600080805b875181146136fa57613641602089838151811061361357fe5b60200260200101515103878a848151811061362a57fe5b60200260200101516177899092919063ffffffff16565b60006060306001600160a01b03168a848151811061365b57fe5b60200260200101516040516136709190619c67565b6000604051808303816000865af19150503d80600081146136ad576040519150601f19603f3d011682016040523d82523d6000602084013e6136b2565b606091505b509150915081156136f05760006136d660208351038361779990919063ffffffff16565b9050848111156136ee57838852602088018290529350835b505b50506001016135fa565b508061370657506137f5565b60005b865181146137f257613739602088838151811061372257fe5b602002602001015151038389848151811061362a57fe5b60006060306001600160a01b031689848151811061375357fe5b60200260200101516040516137689190619c67565b6000604051808303816000865af19150503d80600081146137a5576040519150601f19603f3d011682016040523d82523d6000602084013e6137aa565b606091505b509150915081156137e85760006137ce60208351038361779990919063ffffffff16565b9050858111156137e657838752602087018290529450845b505b5050600101613709565b50505b93509350939050565b60408401516060906001600160e01b031916613880576040805160608101909152613879908061383286896080840161a250565b6040516020818303038152906040528152602001868860405160200161385992919061a250565b60405160208183030381529060405281526020016177a581525083616840565b90506114b3565b8151806001600160401b038111801561389857600080fd5b506040519080825280602002602001820160405280156138c2578160200160208202803683370190505b50915060005b81811015611afa576000606088600001516001600160a01b0316621e84808a604001518a8a8a88815181106138f957fe5b60200260200101516040516024016139139392919061a232565b60408051601f198184030181529181526020820180516001600160e01b03166001600160e01b03199094169390931790925290516139519190619c67565b6000604051808303818686fa925050503d806000811461398d576040519150601f19603f3d011682016040523d82523d6000602084013e613992565b606091505b5091509150600082156139b657818060200190518101906139b391906193b1565b90505b808685815181106139c357fe5b6020026020010181815250508584815181106139db57fe5b6020026020010151600014156139f357505050611afa565b5050506001016138c8565b80516060908590806001600160401b0381118015613a1b57600080fd5b50604051908082528060200260200182016040528015613a45578160200160208202803683370190505b50604051630bcded8960e21b81529093506001600160a01b03831690632f37b62490613a75908990600401619c83565b60206040518083038186803b158015613a8d57600080fd5b505afa158015613aa1573d6000803e3d6000fd5b505050506040513d601f19601f82011682018060405250810190613ac59190619395565b1580613b4a5750604051630bcded8960e21b81526001600160a01b03831690632f37b62490613af8908890600401619c83565b60206040518083038186803b158015613b1057600080fd5b505afa158015613b24573d6000803e3d6000fd5b505050506040513d601f19601f82011682018060405250810190613b489190619395565b155b15613b565750506114b3565b613b5e6183b4565b60405163f8b2cb4f60e01b81526001600160a01b0384169063f8b2cb4f90613b8a908a90600401619c83565b60206040518083038186803b158015613ba257600080fd5b505afa158015613bb6573d6000803e3d6000fd5b505050506040513d601f19601f82011682018060405250810190613bda91906193b1565b815260405163f8b2cb4f60e01b81526001600160a01b0384169063f8b2cb4f90613c08908990600401619c83565b60206040518083038186803b158015613c2057600080fd5b505afa158015613c34573d6000803e3d6000fd5b505050506040513d601f19601f82011682018060405250810190613c5891906193b1565b6020820152604051634a46c67360e11b81526001600160a01b0384169063948d8ce690613c89908a90600401619c83565b60206040518083038186803b158015613ca157600080fd5b505afa158015613cb5573d6000803e3d6000fd5b505050506040513d601f19601f82011682018060405250810190613cd991906193b1565b60408083019190915251634a46c67360e11b81526001600160a01b0384169063948d8ce690613d0c908990600401619c83565b60206040518083038186803b158015613d2457600080fd5b505afa158015613d38573d6000803e3d6000fd5b505050506040513d601f19601f82011682018060405250810190613d5c91906193b1565b816060018181525050826001600160a01b031663d4cadf686040518163ffffffff1660e01b815260040160206040518083038186803b158015613d9e57600080fd5b505afa158015613db2573d6000803e3d6000fd5b505050506040513d601f19601f82011682018060405250810190613dd691906193b1565b608082015260005b828110156109e5578151613dfc906002670de0b6b3a7640000612a1c565b868281518110613e0857fe5b60200260200101511115613e1b576109e5565b836001600160a01b031663ba9530a6620493e084600001518560400151866020015187606001518c8881518110613e4e57fe5b602002602001015189608001516040518863ffffffff1660e01b8152600401613e7c9695949392919061a4a5565b60206040518083038187803b158015613e9457600080fd5b5086fa93505050508015613ec5575060408051601f3d908101601f19168201909252613ec2918101906193b1565b60015b613ef3573d8080156129fe576040519150601f19603f3d011682016040523d82523d6000602084013e612a03565b80868381518110613f0057fe5b602002602001018181525050858281518110613f1857fe5b602002602001015160001415613f2e57506109e5565b50600101613dde565b60008083516003811115613f4757fe5b1480613f5f5750600183516003811115613f5d57fe5b145b80613f75575060408401516001600160801b0316155b80613f8b575060608401516001600160801b0316155b15613f9857506000614077565b613fa0618415565b600080846001600160a01b0316631fb0979588886040518363ffffffff1660e01b8152600401613fd192919061a40d565b60a06040518083038186803b158015613fe957600080fd5b505afa158015613ffd573d6000803e3d6000fd5b505050506040513d601f19601f82011682018060405250810190614021919061981f565b9194509250905060018360200151600481111561403a57fe5b141580614045575080155b80614058575086516001600160a01b0316155b156140695760009350505050614077565b506001600160801b03169150505b9392505050565b600060608061408d85876161ea565b6140988787876177f9565b9250826140a457610e61565b60405163276fdad960e11b81523090634edfb5b2906140cd908a9087908b908b9060040161a3d4565b60006040518083038186803b1580156140e557600080fd5b505afa1580156140f9573d6000803e3d6000fd5b505050506040513d6000823e601f3d908101601f1916820160405261412191908101906193c9565b8760800181905250866080015191506141986040518060600160405280878a604051602001614151929190619f24565b6040516020818303038152906040528152602001888a604051602001614178929190619f24565b604051602081830303815290604052815260200161796081525085616840565b90509450945094915050565b600080856001600160a01b031663901754d786866040518363ffffffff1660e01b81526004016141d5929190619cb0565b60206040518083038186803b1580156141ed57600080fd5b505afa158015614201573d6000803e3d6000fd5b505050506040513d601f19601f820116820180604052508101906142259190618b54565b90506001600160a01b03811661423f5760009150506114b3565b60006001600160a01b038616156142d1576040516370a0823160e01b81526001600160a01b038716906370a082319061427c908590600401619c83565b60206040518083038186803b15801561429457600080fd5b505afa1580156142a8573d6000803e3d6000fd5b505050506040513d601f19601f820116820180604052508101906142cc91906193b1565b6142dd565b816001600160a01b0316315b9050838110156142f2576000925050506114b3565b6040516303c2803f60e31b81526001600160a01b03831690631e1401f890620249f090614327908a908a908a90600401619dab565b60206040518083038187803b15801561433f57600080fd5b5086fa93505050508015614370575060408051601f3d908101601f1916820190925261436d918101906193b1565b60015b6143b0573d80801561439e576040519150601f19603f3d011682016040523d82523d6000602084013e6143a3565b606091505b50600093505050506114b3565b92506114b3915050565b60606143c683856161ea565b6020850151604080516002808252606082810190935281602001602082028036833701905050905085816000815181106143fc57fe5b60200260200101906001600160a01b031690816001600160a01b031681525050848160018151811061442a57fe5b6001600160a01b03909216602092830291909101909101528351806001600160401b038111801561445a57600080fd5b50604051908082528060200260200182016040528015614484578160200160208202803683370190505b50935061448f61838d565b614497616229565b905060005b8281101561108f5760606144b68b898481518110610f7157fe5b604051637c26833760e11b81529091506001600160a01b0387169063f84d066e906144ec9060019085908a90899060040161a179565b600060405180830381600087803b15801561450657600080fd5b505af192505050801561453b57506040513d6000823e601f3d908101601f191682016040526145389190810190619211565b60015b614569573d808015611031576040519150601f19603f3d011682016040523d82523d6000602084013e611036565b60008160008151811061457857fe5b60200260200101519050600081136145925750505061108f565b8089858151811061459f57fe5b60200260200101818152505050505060010161449c565b8051606090806001600160401b03811180156145d157600080fd5b506040519080825280602002602001820160405280156145fb578160200160208202803683370190505b50915060005b81811015611afa57866001600160a01b031663343fbcdd62061a80888888868151811061462a57fe5b60200260200101516040518563ffffffff1660e01b815260040161465093929190619dab565b60206040518083038187803b15801561466857600080fd5b5086fa93505050508015614699575060408051601f3d908101601f19168201909252614696918101906193b1565b60015b6146c7573d808015611aaa576040519150601f19603f3d011682016040523d82523d6000602084013e611aaf565b808483815181106146d457fe5b6020026020010181815250508382815181106146ec57fe5b6020026020010151600014156147025750611afa565b50600101614601565b600080606061471a85876161ea565b8351806001600160401b038111801561473257600080fd5b5060405190808252806020026020018201604052801561475c578160200160208202803683370190505b50915061476b89898989617a47565b945092506001600160a01b038316614783575061483d565b60005b8181101561483a5760006147f48986886040516020016147a893929190619d53565b6040516020818303038152906040528987896040516020016147cc93929190619d53565b6040516020818303038152906040528985815181106147e757fe5b6020026020010151617b9c565b90508084838151811061480357fe5b60200260200101818152505083828151811061481b57fe5b602002602001015160001415614831575061483a565b50600101614786565b50505b955095509592505050565b8051606090806001600160401b038111801561486357600080fd5b5060405190808252806020026020018201604052801561488d578160200160208202803683370190505b5091506000866001600160a01b031663182df0f56040518163ffffffff1660e01b815260040160206040518083038186803b1580156148cb57600080fd5b505afa1580156148df573d6000803e3d6000fd5b505050506040513d601f19601f8201168201806040525081019061490391906193b1565b90506000876001600160a01b031663313ce5676040518163ffffffff1660e01b815260040160206040518083038186803b15801561494057600080fd5b505afa158015614954573d6000803e3d6000fd5b505050506040513d601f19601f820116820180604052508101906149789190619955565b60ff169050876001600160a01b0316866001600160a01b031614156149ea5760005b83811015610972578282600a0a6402540be4008884815181106149b957fe5b60200260200101510202816149ca57fe5b048582815181106149d757fe5b602090810291909101015260010161499a565b876001600160a01b0316876001600160a01b031614156109e75760005b838110156109e55781600a0a6402540be4000283878381518110614a2757fe5b60200260200101510281614a3757fe5b04858281518110614a4457fe5b6020908102919091010152600101614a07565b60006060614a6584866161ea565b8251806001600160401b0381118015614a7d57600080fd5b50604051908082528060200260200182016040528015614aa7578160200160208202803683370190505b50915060005b81811015614b1c576000614ad6898989898681518110614ac957fe5b60200260200101516141a4565b905080848381518110614ae557fe5b602002602001018181525050838281518110614afd57fe5b602002602001015160001415614b135750614b1c565b50600101614aad565b5060405163901754d760e01b81526001600160a01b0388169063901754d790614b4b9089908990600401619cb0565b60206040518083038186803b158015614b6357600080fd5b505afa158015614b77573d6000803e3d6000fd5b505050506040513d601f19601f82011682018060405250810190614b9b9190618b54565b92505094509492505050565b6040805160608181019092526115219080614bc6868960808401619cb0565b60405160208183030381529060405281526020018688604051602001614bed929190619cb0565b6040516020818303038152906040528152602001617c8e81525083616840565b606082516001600160401b0381118015614c2657600080fd5b50604051908082528060200260200182016040528015614c50578160200160208202803683370190505b50905060005b83518114612f2d577f00000000000000000000000000000000000000000000000000000000000000006001600160a01b0316848281518110614c9457fe5b60200260200101516001600160a01b031614614cde57614cd983858381518110614cba57fe5b60200260200101516001600160a01b0316617cd590919063ffffffff16565b614cea565b826001600160a01b0316315b828281518110614cf657fe5b6020908102919091010152600101614c56565b6040805160608181019092526115219080614d28868960808401619cb0565b60405160208183030381529060405281526020018688604051602001614d4f929190619cb0565b6040516020818303038152906040528152602001617d9f81525083616840565b6060614d7b83856161ea565b8151806001600160401b0381118015614d9357600080fd5b50604051908082528060200260200182016040528015614dbd578160200160208202803683370190505b50915060006001600160a01b03861615614de057614ddb87876162ea565b614de3565b60005b905060006001600160a01b03861615614e0557614e0088876162ea565b614e08565b60005b905060005b838110156109e55760016001600160a01b038816614e5e57614e3d846395b68fe760e01b89858151811061116a57fe5b878481518110614e4957fe5b60200260200101819350828152505050614ef8565b6001600160a01b038916614e8457614e3d8363cd7724c360e01b89858151811061116a57fe5b6000614e9e856395b68fe760e01b8a868151811061116a57fe5b925090508015614edb57614eba8463cd7724c360e01b83616369565b888581518110614ec657fe5b60200260200101819450828152505050614ef6565b6000878481518110614ee957fe5b6020026020010181815250505b505b801580614f185750858281518110614f0c57fe5b60200260200101516000145b15614f2357506109e5565b50600101614e0d565b8051606090806001600160401b0381118015614f4757600080fd5b50604051908082528060200260200182016040528015614f71578160200160208202803683370190505b50915060005b81811015611c7f57856001600160a01b0316631f00ca74620249f0868481518110614f9e57fe5b6020026020010151886040518463ffffffff1660e01b8152600401614fc492919061a461565b60006040518083038187803b158015614fdc57600080fd5b5086fa9350505050801561501257506040513d6000823e601f3d908101601f1916820160405261500f9190810190619363565b60015b615040573d808015611c18576040519150601f19603f3d011682016040523d82523d6000602084013e611c1d565b8060008151811061504d57fe5b602002602001015184838151811061506157fe5b60200260200101818152505083828151811061507957fe5b60200260200101516000141561508f5750611c7f565b50600101614f77565b60006060806150a785876161ea565b6150b28787876177f9565b9250826150be57610e61565b60405163276fdad960e11b81523090634edfb5b2906150e7908a9087908b908b9060040161a3d4565b60006040518083038186803b1580156150ff57600080fd5b505afa158015615113573d6000803e3d6000fd5b505050506040513d6000823e601f3d908101601f1916820160405261513b91908101906193c9565b608088018190528451909250806001600160401b038111801561515d57600080fd5b50604051908082528060200260200182016040528015615187578160200160208202803683370190505b50915060005b81811015615272576000306001600160a01b031663f1ed7fa48b8b8b8b87815181106151b557fe5b60200260200101516040518563ffffffff1660e01b81526004016151dc949392919061a39e565b60206040518083038186803b1580156151f457600080fd5b505afa158015615208573d6000803e3d6000fd5b505050506040513d601f19601f8201168201806040525081019061522c91906193b1565b90508084838151811061523b57fe5b60200260200101818152505083828151811061525357fe5b6020026020010151600014156152695750615272565b5060010161518d565b50509450945094915050565b600080606061528d85876161ea565b61529988888888617a47565b935091506001600160a01b0382166152b05761483d565b8351806001600160401b03811180156152c857600080fd5b506040519080825280602002602001820160405280156152f2578160200160208202803683370190505b50604080516060810190915290925061535f90806153168987891560808501619d53565b604051602081830303815290604052815260200189868860405160200161533f93929190619d53565b6040516020818303038152906040528152602001617b9c81525086616840565b915050955095509592505050565b600080606061537c85876161ea565b8351806001600160401b038111801561539457600080fd5b506040519080825280602002602001820160405280156153be578160200160208202803683370190505b508851604051630939d86360e11b81529193506001600160a01b031690631273b0c6906153f1908a908a90600401619cb0565b60206040518083038186803b15801561540957600080fd5b505afa15801561541d573d6000803e3d6000fd5b505050506040513d601f19601f820116820180604052508101906154419190618b54565b925060006001600160a01b0384161561545f575060019350866154fe565b8851604051630939d86360e11b81526001600160a01b0390911690631273b0c690615490908a908c90600401619cb0565b60206040518083038186803b1580156154a857600080fd5b505afa1580156154bc573d6000803e3d6000fd5b505050506040513d601f19601f820116820180604052508101906154e09190618b54565b93506001600160a01b0384166154f7575050610e61565b5060009350855b836001600160a01b031663dd58b41c6040518163ffffffff1660e01b815260040160206040518083038186803b15801561553757600080fd5b505afa15801561554b573d6000803e3d6000fd5b505050506040513d601f19601f8201168201806040525081019061556f9190619395565b61557a575050610e61565b6155f260405180606001604052808987858e602001516040516020016155a39493929190619cca565b60405160208183030381529060405281526020018a87858e602001516040516020016155d29493929190619cca565b6040516020818303038152906040528152602001616a5281525087616840565b925050509450945094915050565b606083516001600160401b038111801561561957600080fd5b50604051908082528060200260200182016040528015615643578160200160208202803683370190505b50905060005b84518114610d03577f00000000000000000000000000000000000000000000000000000000000000006001600160a01b031685828151811061568757fe5b60200260200101516001600160a01b0316146156d3576156ce84848784815181106156ae57fe5b60200260200101516001600160a01b0316617e549092919063ffffffff16565b6156d6565b60005b8282815181106156e257fe5b6020908102919091010152600101615649565b8051606090806001600160401b038111801561571057600080fd5b5060405190808252806020026020018201604052801561573a578160200160208202803683370190505b50915060005b81811015611afa57866001600160a01b031663838e6a22620493e0888888868151811061576957fe5b60200260200101516040518563ffffffff1660e01b815260040161578f93929190619dab565b60206040518083038187803b1580156157a757600080fd5b5086fa935050505080156157d8575060408051601f3d908101601f191682019092526157d5918101906193b1565b60015b615806573d808015611aaa576040519150601f19603f3d011682016040523d82523d6000602084013e611aaf565b8084838151811061581357fe5b60200260200101818152505050600101615740565b600084608001515160001415615840575060006114b3565b84604001516001600160a01b031663418436bc6207a12087606001516001600160a01b0316876001600160a01b03161461587a5786615890565b73eeeeeeeeeeeeeeeeeeeeeeeeeeeeeeeeeeeeeeee5b88606001516001600160a01b0316876001600160a01b0316146158b357866158c9565b73eeeeeeeeeeeeeeeeeeeeeeeeeeeeeeeeeeeeeeee5b8660008b608001516040518763ffffffff1660e01b81526004016158f1959493929190619dcf565b60206040518083038187803b15801561590957600080fd5b5086fa9350505050801561593a575060408051601f3d908101601f19168201909252615937918101906193b1565b60015b615978573d808015615968576040519150601f19603f3d011682016040523d82523d6000602084013e61596d565b606091505b5060009150506114b3565b600061598385617f20565b60ff169050600061599387617f20565b60ff169050670de0b6b3a764000081600a0a83600a0a87860202816159b457fe5b04816159bc57fe5b0493505050506114b3565b600060606159d584866161ea565b8251806001600160401b03811180156159ed57600080fd5b50604051908082528060200260200182016040528015615a17578160200160208202803683370190505b509150615a8260405180606001604052808988604051602001615a3b929190619cb0565b60405160208183030381529060405281526020018989604051602001615a62929190619cb0565b6040516020818303038152906040528152602001617f2b81525085616840565b60405163901754d760e01b81529092506001600160a01b0388169063901754d790614b4b9089908990600401619cb0565b615abb6183fb565b615ac36183fb565b6000198060005b86518114615bbf57615afa6020888381518110615ae357fe5b602002602001015151038789848151811061362a57fe5b60006060306001600160a01b0316898481518110615b1457fe5b6020026020010151604051615b299190619c67565b6000604051808303816000865af19150503d8060008114615b66576040519150601f19603f3d011682016040523d82523d6000602084013e615b6b565b606091505b50915091508115615bb5576000615b8f60208351038361779990919063ffffffff16565b9050600081118015615ba057508481105b15615bb357838752602087018290529350835b505b5050600101615aca565b50600019811415615bd057506137f5565b60005b875181146137f257615c036020898381518110615bec57fe5b60200260200101515103838a848151811061362a57fe5b60006060306001600160a01b03168a8481518110615c1d57fe5b6020026020010151604051615c329190619c67565b6000604051808303816000865af19150503d8060008114615c6f576040519150601f19603f3d011682016040523d82523d6000602084013e615c74565b606091505b50915091508115615cbe576000615c9860208351038361779990919063ffffffff16565b9050600081118015615ca957508581105b15615cbc57838852602088018290529450845b505b5050600101615bd3565b60606000836001600160a01b031663c45a01556040518163ffffffff1660e01b815260040160206040518083038186803b158015615d0557600080fd5b505afa158015615d19573d6000803e3d6000fd5b505050506040513d601f19601f82011682018060405250810190615d3d9190618b54565b905060018351036001600160401b0381118015615d5957600080fd5b50604051908082528060200260200182016040528015615d83578160200160208202803683370190505b50915060005b8251811015615faf576060826001600160a01b0316635b1dc86f620249f0878581518110615db357fe5b6020026020010151888660010181518110615dca57fe5b60200260200101516040518463ffffffff1660e01b8152600401615def929190619cb0565b60006040518083038187803b158015615e0757600080fd5b5086fa93505050508015615e3d57506040513d6000823e601f3d908101601f19168201604052615e3a9190810190618f0c565b60015b615eab573d808015615e6b576040519150601f19603f3d011682016040523d82523d6000602084013e615e70565b606091505b506000805b50604051908082528060200260200182016040528015615e9f578160200160208202803683370190505b50945050505050615fb2565b8051615eb957600080615e75565b6000805b8251811015615fa3576000838281518110615ed457fe5b60200260200101516001600160a01b03166318160ddd6040518163ffffffff1660e01b815260040160206040518083038186803b158015615f1457600080fd5b505afa158015615f28573d6000803e3d6000fd5b505050506040513d601f19601f82011682018060405250810190615f4c91906193b1565b905082811115615f9a57809250838281518110615f6557fe5b6020026020010151888781518110615f7957fe5b60200260200101906001600160a01b031690816001600160a01b0316815250505b50600101615ebd565b50505050600101615d89565b50505b92915050565b6000606085600001516001600160a01b03166321f8a72187600001516001600160a01b0316639232494e6040518163ffffffff1660e01b815260040160206040518083038186803b15801561600c57600080fd5b505afa158015616020573d6000803e3d6000fd5b505050506040513d601f19601f8201168201806040525081019061604491906193b1565b6040518263ffffffff1660e01b8152600401616060919061a0b6565b60206040518083038186803b15801561607857600080fd5b505afa15801561608c573d6000803e3d6000fd5b505050506040513d601f19601f820116820180604052508101906160b09190618b54565b9150856020015151600014156160c5576161e1565b6000805b8760200151518110156161de576002886020015182815181106160e857fe5b60200260200101515110156160fc576161d6565b836001600160a01b0316637f9c0ecd620493e08a60200151848151811061611f57fe5b60200260200101518860018a51038151811061613757fe5b60200260200101516040518463ffffffff1660e01b815260040161615c929190619f6d565b60206040518083038187803b15801561617457600080fd5b5086fa935050505080156161a5575060408051601f3d908101601f191682019092526161a2918101906193b1565b60015b6161ae576161d6565b828111156161d457809250886020015182815181106161c957fe5b602002602001015193505b505b6001016160c9565b50505b94509492505050565b806001600160a01b0316826001600160a01b031614156162255760405162461bcd60e51b815260040161621c9061a2ac565b60405180910390fd5b5050565b61623161838d565b50604080516080810182523080825260006020830181905292820152606081019190915290565b604080516001808252818301909252606091829190816020015b61627a618437565b8152602001906001900390816162725790505090506040518060a0016040528085600001518152602001600081526020016001815260200184815260200160405180602001604052806000815250815250816000815181106162d857fe5b60209081029190910101529392505050565b6040516303795fb160e11b81526000906001600160a01b038416906306f2bf6290616319908590600401619c83565b60206040518083038186803b15801561633157600080fd5b505afa158015616345573d6000803e3d6000fd5b505050506040513d601f19601f820116820180604052508101906140779190618b54565b6000806001600160a01b03851661637f57610b90565b6060856001600160a01b0316620249f086866040516024016163a1919061a0b6565b60408051601f198184030181529181526020820180516001600160e01b03166001600160e01b03199094169390931790925290516163df9190619c67565b6000604051808303818686fa925050503d806000811461641b576040519150601f19603f3d011682016040523d82523d6000602084013e616420565b606091505b5090925090508115616443578080602001905181019061644091906193b1565b92505b50935093915050565b600080600080846001600160a01b031663d9638d368b602001516040518263ffffffff1660e01b8152600401616482919061a0b6565b60a06040518083038186803b15801561649a57600080fd5b505afa1580156164ae573d6000803e3d6000fd5b505050506040513d601f19601f820116820180604052508101906164d29190619916565b94509450505092506000620f424090508a604001516001600160a01b0316896001600160a01b031614156165fa5760006165118964e8d4a51000617f7b565b905060006165356b033b2e3c9fd0803ce800000061652f8885617fb1565b90617f7b565b905084811061654d5760009650505050505050616703565b60006165dc670de0b6b3a76400006165d68c6001600160a01b031663568d4b6f6040518163ffffffff1660e01b815260040160206040518083038186803b15801561659757600080fd5b505afa1580156165ab573d6000803e3d6000fd5b505050506040513d601f19601f820116820180604052508101906165cf91906193b1565b8690617f7b565b90617fcd565b905060006165ea8483617ff7565b9850616703975050505050505050565b8a604001516001600160a01b03168a6001600160a01b031614156166fa57878481111561662f57600095505050505050616703565b600061664b6b033b2e3c9fd0803ce800000061652f8885617ff7565b90508381116166635760009650505050505050616703565b60006166e88a6001600160a01b031663fae036d56040518163ffffffff1660e01b815260040160206040518083038186803b1580156166a157600080fd5b505afa1580156166b5573d6000803e3d6000fd5b505050506040513d601f19601f820116820180604052508101906166d991906193b1565b670de0b6b3a764000090617fb1565b905060006165ea826165d68688617f7b565b60009450505050505b9695505050505050565b600080616718618469565b8580602001905181019061672c919061945d565b915091506000858060200190518101906167469190619441565b905060006060306322db5ed160e21b8587866167618c618016565b604051602401616774949392919061a336565b60408051601f198184030181529181526020820180516001600160e01b03166001600160e01b03199094169390931790925290516167b29190619c67565b600060405180830381855afa9150503d80600081146167ed576040519150601f19603f3d011682016040523d82523d6000602084013e6167f2565b606091505b50915091508161680a57600095505050505050614077565b8080602001905181019061681e9190619363565b60008151811061682a57fe5b6020026020010151955050505050509392505050565b606081516001600160401b038111801561685957600080fd5b50604051908082528060200260200182016040528015616883578160200160208202803683370190505b50905081516000141561689557615fb2565b60006168c684600001518560200151856000815181106168b157fe5b6020026020010151876040015163ffffffff16565b9050806168d35750615fb2565b60006168f08560200151866000015184886040015163ffffffff16565b9050806168fe575050615fb2565b60005b8451811015616a49576000805b60058110156169f25761693587848151811061692657fe5b60200260200101518587618057565b945084616941576169f2565b61695061271561271087618057565b94508461695c576169f2565b600061697989602001518a60000151888c6040015163ffffffff16565b90508061698657506169f2565b80945087848151811061699557fe5b602002602001015185106169e9578784815181106169af57fe5b60200260200101516127108986815181106169c657fe5b6020026020010151870302816169d857fe5b049250600583116169e957506169f2565b5060010161690e565b50801580616a005750600581115b15616a0b5750616a49565b616a29868381518110616a1a57fe5b60200260200101518486618057565b858381518110616a3557fe5b602090810291909101015250600101616901565b50505092915050565b600080600080600087806020019051810190616a6e9190618ba9565b9350935093509350816001600160a01b0316846001600160a01b03161415616b58576040516351400f0b60e11b81526001600160a01b0384169063a2801e1690620493e090616ac1908a9060040161a0b6565b60206040518083038187803b158015616ad957600080fd5b5086fa93505050508015616b0a575060408051601f3d908101601f19168201909252616b07918101906193b1565b60015b616b4c573d808015616b38576040519150601f19603f3d011682016040523d82523d6000602084013e616b3d565b606091505b50600095505050505050614077565b94506140779350505050565b60405163ca19ebd960e01b81526001600160a01b0382169063ca19ebd990620493e090616ac19087908b90600401619c97565b60606002828451031015616bb15760405162461bcd60e51b815260040161621c9061a268565b616bb9618489565b5060408051608081018252606481526101f46020820152610bb8818301526127106060808301919091528251600480825260a082019094529192909190816020016020820280368337019050509050600080868681518110616c1757fe5b602002602001015190506000878760010181518110616c3257fe5b6020026020010151905060005b6004811015616d275760008a6001600160a01b0316631698ee8285858a8660048110616c6757fe5b60200201516040518463ffffffff1660e01b8152600401616c8a9392919061a0fe565b60206040518083038186803b158015616ca257600080fd5b505afa158015616cb6573d6000803e3d6000fd5b505050506040513d601f19601f82011682018060405250810190616cda9190618b54565b9050616ce5816180af565b15616d1e5780868680600101975081518110616cfd57fe5b60200260200101906001600160a01b031690816001600160a01b0316815250505b50600101616c3f565b50505080616d3757505050614077565b8551856002011415616e2d57806001600160401b0381118015616d5957600080fd5b50604051908082528060200260200182016040528015616d8d57816020015b6060815260200190600190039081616d785790505b50935060005b81811015616e2457604080516001808252818301909252906020808301908036833701905050858281518110616dc557fe5b6020026020010181905250828181518110616ddc57fe5b6020026020010151858281518110616df057fe5b6020026020010151600081518110616e0457fe5b6001600160a01b0390921660209283029190910190910152600101616d93565b50505050614077565b6060616e3d888888600101616b8b565b9050805160001415616e525750505050614077565b805182026001600160401b0381118015616e6b57600080fd5b50604051908082528060200260200182016040528015616e9f57816020015b6060815260200190600190039081616e8a5790505b50945060005b8281101561701f5760005b8251811015617016578251828102820190849083908110616ecd57fe5b6020026020010151516001016001600160401b0381118015616eee57600080fd5b50604051908082528060200260200182016040528015616f18578160200160208202803683370190505b50888281518110616f2557fe5b6020026020010181905250858381518110616f3c57fe5b6020026020010151888281518110616f5057fe5b6020026020010151600081518110616f6457fe5b60200260200101906001600160a01b031690816001600160a01b03168152505060005b848381518110616f9357fe5b60200260200101515181101561700c57848381518110616faf57fe5b60200260200101518181518110616fc257fe5b6020026020010151898381518110616fd657fe5b60200260200101518260010181518110616fec57fe5b6001600160a01b0390921660209283029190910190910152600101616f87565b5050600101616eb0565b50600101616ea5565b50505050509392505050565b60606002835110158015617043575081516001018351145b61705f5760405162461bcd60e51b815260040161621c9061a2f1565b81516003028351601402016001600160401b038111801561707f57600080fd5b506040519080825280601f01601f1916602001820160405280156170aa576020820181803683370190505b5090506020810160005b8451811015615faf5780156171595760008460018303815181106170d457fe5b60200260200101516001600160a01b031663ddca3f436040518163ffffffff1660e01b815260040160206040518083038186803b15801561711457600080fd5b505afa158015617128573d6000803e3d6000fd5b505050506040513d601f19601f8201168201806040525081019061714c919061989b565b60e81b8352506003909101905b600085828151811061716757fe5b602090810291909101015160601b8352506014909101906001016170b4565b600082820283158015906171a357508284828161719f57fe5b0414155b156171b2576000915050615fb2565b6706f05b59d3b200008101818110156171d057600092505050615fb2565b670de0b6b3a76400009004949350505050565b606081516001600160401b03811180156171fc57600080fd5b50604051908082528060200260200182016040528015617226578160200160208202803683370190505b50905060005b82518110156130205782600182855103038151811061724757fe5b602002602001015182828151811061725b57fe5b6001600160a01b039092166020928302919091019091015260010161722c565b606081516001600160401b038111801561729457600080fd5b506040519080825280602002602001820160405280156172be578160200160208202803683370190505b50905060005b8251811015613020578260018285510303815181106172df57fe5b60200260200101518282815181106172f357fe5b6001600160a01b03909216602092830291909101909101526001016172c4565b60008060008580602001905181019061732c9190618b70565b915091506000858060200190518101906173469190618b54565b90503063e8e4af0983858461735a8a618016565b6040518563ffffffff1660e01b81526004016173799493929190619cf5565b60006040518083038186803b15801561739157600080fd5b505afa9250505080156173c657506040513d6000823e601f3d908101601f191682016040526173c39190810190619363565b60015b617407573d8080156173f4576040519150601f19603f3d011682016040523d82523d6000602084013e6173f9565b606091505b506000945050505050614077565b8060008151811061741457fe5b6020026020010151945050505050614077565b60006114b3836165d661743b826001617ff7565b6174458887617f7b565b90617fb1565b60006012905060006060836001600160a01b031660405180604001604052806004815260200163313ce56760e01b8152506040516174899190619c67565b600060405180830381855afa9150503d80600081146174c4576040519150601f19603f3d011682016040523d82523d6000602084013e6174c9565b606091505b50915091508180156174dd57506020815110155b156174f0576174ed816000617799565b92505b5050919050565b600080600080846001600160a01b031663d9638d368b602001516040518263ffffffff1660e01b815260040161752d919061a0b6565b60a06040518083038186803b15801561754557600080fd5b505afa158015617559573d6000803e3d6000fd5b505050506040513d601f19601f8201168201806040525081019061757d9190619916565b945094505050925089604001516001600160a01b0316886001600160a01b03161415617694576000879050600061762d886001600160a01b031663568d4b6f6040518163ffffffff1660e01b815260040160206040518083038186803b1580156175e657600080fd5b505afa1580156175fa573d6000803e3d6000fd5b505050506040513d601f19601f8201168201806040525081019061761e91906193b1565b670de0b6b3a764000090617ff7565b90506000617647826165d685670de0b6b3a7640000617f7b565b905060006176656b033b2e3c9fd0803ce800000061652f8985617fb1565b905085811061767e576000975050505050505050616703565b60006165ea60016174458564e8d4a51000617fcd565b89604001516001600160a01b0316896001600160a01b031614156177795760006176c38864e8d4a51000617f7b565b90506000617703886001600160a01b031663fae036d56040518163ffffffff1660e01b815260040160206040518083038186803b1580156166a157600080fd5b9050600061771d670de0b6b3a76400006165d68585617f7b565b9050858111156177365760009650505050505050616703565b60006177526b033b2e3c9fd0803ce800000061652f8985617ff7565b905084811161776b576000975050505050505050616703565b509550616703945050505050565b5060009998505050505050505050565b6177948383836182bb565b505050565b600061407783836182e2565b6000806177b0618469565b858060200190518101906177c4919061945d565b915091506000858060200190518101906177de9190619441565b9050600060603063205e01d760e11b8587866167618c618016565b600080846020015190506060816001600160a01b031663910ffc7187606001516001600160a01b0316876001600160a01b031614617837578661784d565b73eeeeeeeeeeeeeeeeeeeeeeeeeeeeeeeeeeeeeeee5b88606001516001600160a01b0316876001600160a01b0316146178705786617886565b73eeeeeeeeeeeeeeeeeeeeeeeeeeeeeeeeeeeeeeee5b604080516000815260208101918290526001600160e01b031960e086901b169091526178ba92919060019060248101619d77565b60006040518083038186803b1580156178d257600080fd5b505afa1580156178e6573d6000803e3d6000fd5b505050506040513d6000823e601f3d908101601f1916820160405261790e9190810190618fa4565b50509050805186600001511061792a5750600091506140779050565b8086600001518151811061793a57fe5b6020026020010151925060f883901c60001c60bb1415611c7f5750600091506140779050565b60008061796b6184a7565b8480602001905181019061797f9190618c57565b915091506000868060200190518101906179999190618c57565b50604051633c7b5fe960e21b8152909150309063f1ed7fa4906179c6908590859088908b9060040161a39e565b60206040518083038186803b1580156179de57600080fd5b505afa925050508015617a0e575060408051601f3d908101601f19168201909252617a0b918101906193b1565b60015b617a3c573d8080156173f4576040519150601f19603f3d011682016040523d82523d6000602084013e6173f9565b935061407792505050565b6000806060866001600160a01b03166357a281dc86866040518363ffffffff1660e01b8152600401617a7a929190619cb0565b60006040518083038186803b158015617a9257600080fd5b505afa158015617aa6573d6000803e3d6000fd5b505050506040513d6000823e601f3d908101601f19168201604052617ace9190810190618f0c565b905060019150805160001415617b67576040516315e8a07760e21b81526001600160a01b038816906357a281dc90617b0c9087908990600401619cb0565b60006040518083038186803b158015617b2457600080fd5b505afa158015617b38573d6000803e3d6000fd5b505050506040513d6000823e601f3d908101601f19168201604052617b609190810190618f0c565b9050600091505b80518610617b7c5760008092509250506161e1565b808681518110617b8857fe5b602002602001015192505094509492505050565b60008060008086806020019051810190617bb69190618c07565b9250925092508015617c5a57604051633cd0243b60e11b81526001600160a01b038316906379a0487690620493e090617bf6906000908a90600401619c97565b604080518083038187803b158015617c0d57600080fd5b5086fa93505050508015617c3e575060408051601f3d908101601f19168201909252617c3b918101906198be565b60015b617c4e5760009350505050614077565b50935061407792505050565b6040516366410a2160e01b81526001600160a01b038316906366410a2190620493e090617bf6906000908a90600401619c97565b600080600085806020019051810190617ca79190618b70565b91509150600085806020019051810190617cc19190618b54565b9050306330d6570d83858461735a8a618016565b6000806060846001600160a01b03166370a0823160e01b85604051602401617cfd9190619c83565b60408051601f198184030181529181526020820180516001600160e01b03166001600160e01b0319909416939093179092529051617d3b9190619c67565b600060405180830381855afa9150503d8060008114617d76576040519150601f19603f3d011682016040523d82523d6000602084013e617d7b565b606091505b5091509150818015617d8f57506020815110155b15615faf57611521816000617799565b600080600085806020019051810190617db89190618b70565b91509150600085806020019051810190617dd29190618b54565b90503063a469841762061a80848685617dea8b618016565b6040518663ffffffff1660e01b8152600401617e099493929190619cf5565b60006040518083038187803b158015617e2157600080fd5b5086fa935050505080156173c657506040513d6000823e601f3d908101601f191682016040526173c39190810190619363565b6000806060856001600160a01b031663dd62ed3e60e01b8686604051602401617e7e929190619cb0565b60408051601f198184030181529181526020820180516001600160e01b03166001600160e01b0319909416939093179092529051617ebc9190619c67565b600060405180830381855afa9150503d8060008114617ef7576040519150601f19603f3d011682016040523d82523d6000602084013e617efc565b606091505b5091509150818015617f1057506020815110155b15611c7f57616703816000617799565b6000615fb28261744b565b600080600085806020019051810190617f449190618b70565b9150915060008086806020019051810190617f5f9190618b70565b91509150617f6f848483896141a4565b98975050505050505050565b600082617f8a57506000615fb2565b82820282848281617f9757fe5b041461407757614077617fac6001868661830c565b618366565b60008282018381101561407757614077617fac6000868661830c565b600081617fe357617fe3617fac6003858561830c565b6000828481617fee57fe5b04949350505050565b60008282111561801057618010617fac6002858561830c565b50900390565b60408051600180825281830190925260609160208083019080368337019050509050818160008151811061804657fe5b602002602001018181525050919050565b6000831580618064575081155b8061806d575082155b1561807a57506000614077565b8382028285828161808757fe5b0414618097576000915050614077565b83600185038201816180a557fe5b0495945050505050565b6000813b806180c2576000915050610e70565b50816001600160a01b0316630dfe16816040518163ffffffff1660e01b815260040160206040518083038186803b1580156180fc57600080fd5b505afa158015618110573d6000803e3d6000fd5b505050506040513d601f19601f820116820180604052508101906181349190618b54565b6001600160a01b03166370a08231836040518263ffffffff1660e01b815260040161815f9190619c83565b60206040518083038186803b15801561817757600080fd5b505afa15801561818b573d6000803e3d6000fd5b505050506040513d601f19601f820116820180604052508101906181af91906193b1565b6181bb57506000610e70565b816001600160a01b031663d21220a76040518163ffffffff1660e01b815260040160206040518083038186803b1580156181f457600080fd5b505afa158015618208573d6000803e3d6000fd5b505050506040513d601f19601f8201168201806040525081019061822c9190618b54565b6001600160a01b03166370a08231836040518263ffffffff1660e01b81526004016182579190619c83565b60206040518083038186803b15801561826f57600080fd5b505afa158015618283573d6000803e3d6000fd5b505050506040513d601f19601f820116820180604052508101906182a791906193b1565b6182b357506000610e70565b506001919050565b81602001835110156182da576182da617fac600585518560200161836e565b910160200152565b6000816020018351101561830357618303617fac600585518560200161836e565b50016020015190565b606063e946c1bb60e01b84848460405160240161832b9392919061a14a565b60408051601f198184030181529190526020810180516001600160e01b03166001600160e01b03199093169290921790915290509392505050565b805160208201fd5b6060632800659560e01b84848460405160240161832b9392919061a16b565b60408051608081018252600080825260208201819052918101829052606081019190915290565b6040518060a0016040528060008152602001600081526020016000815260200160008152602001600081525090565b60408051808201909152606081526000602082015290565b604051806040016040528060008152602001606081525090565b6040805160608101909152600080825260208201908152600060209091015290565b6040518060a0016040528060008019168152602001600081526020016000815260200160008152602001606081525090565b604080516060810182526000808252602082018190529181019190915290565b60405180608001604052806004906020820280368337509192915050565b6040518060a001604052806000815260200160006001600160a01b0316815260200160006001600160a01b0316815260200160006001600160a01b03168152602001606081525090565b8035615fb28161a5c8565b600082601f83011261850c578081fd5b813561851f61851a8261a53e565b61a518565b81815291506020808301908481018184028601820187101561854057600080fd5b60005b848110156185685781356185568161a5c8565b84529282019290820190600101618543565b505050505092915050565b600082601f830112618583578081fd5b813561859161851a8261a53e565b818152915060208083019084810160005b84811015618568576185b9888484358a01016184fc565b845292820192908201906001016185a2565b600082601f8301126185db578081fd5b81356185e961851a8261a53e565b818152915060208083019084810160005b8481101561856857618611888484358a01016187ba565b845292820192908201906001016185fa565b600082601f830112618633578081fd5b813561864161851a8261a53e565b81815291506020808301908481018184028601820187101561866257600080fd5b60005b848110156185685781356186788161a5c8565b84529282019290820190600101618665565b600082601f83011261869a578081fd5b81356186a861851a8261a53e565b81815291506020808301908481016080808502870183018810156186cb57600080fd5b60005b858110156186f2576186e08984618ab9565b855293830193918101916001016186ce565b50505050505092915050565b600082601f83011261870e578081fd5b813561871c61851a8261a53e565b81815291506020808301908481018184028601820187101561873d57600080fd5b60005b8481101561856857813584529282019290820190600101618740565b600082601f83011261876c578081fd5b815161877a61851a8261a53e565b81815291506020808301908481018184028601820187101561879b57600080fd5b60005b848110156185685781518452928201929082019060010161879e565b600082601f8301126187ca578081fd5b81356187d861851a8261a55d565b91508082528360208285010111156187ef57600080fd5b8060208401602084013760009082016020015292915050565b600082601f830112618818578081fd5b815161882661851a8261a55d565b915080825283602082850101111561883d57600080fd5b612f2d81602084016020860161a58b565b805160028110615fb257600080fd5b60006060828403121561886e578081fd5b618878606061a518565b905081356188858161a5c8565b815260208201356188958161a5eb565b602082015260408201356188a88161a5eb565b604082015292915050565b6000606082840312156188c4578081fd5b6188ce606061a518565b905081516188db8161a5c8565b815260208201516188eb8161a5eb565b602082015260408201516188a88161a5eb565b60006040828403121561890f578081fd5b618919604061a518565b905081356189268161a5c8565b815260208201356189368161a5c8565b602082015292915050565b600060a08284031215618952578081fd5b61895c60a061a518565b90508135815260208201356189708161a5c8565b602082015260408201356189838161a5c8565b604082015260608201356189968161a5c8565b606082015260808201356001600160401b038111156189b457600080fd5b6189c0848285016187ba565b60808301525092915050565b60006101808083850312156189df578182fd5b6189e88161a518565b9150506189f583836184f1565b8152618a0483602084016184f1565b6020820152618a168360408401618b16565b6040820152618a288360608401618b16565b6060820152618a3a8360808401618b16565b6080820152618a4c8360a084016184f1565b60a0820152618a5e8360c084016184f1565b60c0820152618a708360e084016184f1565b60e0820152610100618a84848285016184f1565b908201526101208281013590820152610140618aa284828501618b21565b818301525061016080830135818301525092915050565b600060808284031215618aca578081fd5b618ad4608061a518565b9050813560048110618ae557600080fd5b81526020820135618af58161a625565b80602083015250604082013560408201526060820135606082015292915050565b8035615fb28161a610565b80356001600160401b0381168114615fb257600080fd5b600060208284031215618b49578081fd5b81356140778161a5c8565b600060208284031215618b65578081fd5b81516140778161a5c8565b60008060408385031215618b82578081fd5b8251618b8d8161a5c8565b6020840151909250618b9e8161a5c8565b809150509250929050565b60008060008060808587031215618bbe578182fd5b8451618bc98161a5c8565b6020860151909450618bda8161a5c8565b6040860151909350618beb8161a5c8565b6060860151909250618bfc8161a5c8565b939692955090935050565b600080600060608486031215618c1b578081fd5b8351618c268161a5c8565b6020850151909350618c378161a5c8565b60408501519092508015158114618c4c578182fd5b809150509250925092565b60008060408385031215618c69578182fd5b8251618c748161a5c8565b60208401519092506001600160401b0380821115618c90578283fd5b9084019060a08287031215618ca3578283fd5b618cad60a061a518565b825181526020830151618cbf8161a5c8565b60208201526040830151618cd28161a5c8565b60408201526060830151618ce58161a5c8565b6060820152608083015182811115618cfb578485fd5b618d0788828601618808565b6080830152508093505050509250929050565b600080600080600060a08688031215618d31578283fd5b8535618d3c8161a5c8565b94506020860135618d4c8161a5c8565b93506040860135618d5c8161a5c8565b92506060860135618d6c8161a5c8565b915060808601356001600160401b03811115618d86578182fd5b618d92888289016186fe565b9150509295509295909350565b60008060008060808587031215618db4578182fd5b8435618dbf8161a5c8565b93506020850135618dcf8161a5c8565b92506040850135618ddf8161a5c8565b915060608501356001600160401b03811115618df9578182fd5b618e05878288016186fe565b91505092959194509250565b60008060008060808587031215618e26578182fd5b8435618e318161a5c8565b93506020850135618e418161a5c8565b92506040850135618e518161a5c8565b9396929550929360600135925050565b600080600060608486031215618e75578081fd5b8335618e808161a5c8565b925060208401356001600160401b0380821115618e9b578283fd5b618ea7878388016184fc565b93506040860135915080821115618ebc578283fd5b50618ec9868287016186fe565b9150509250925092565b600080600080600060a08688031215618eea578283fd5b8535618ef58161a5c8565b9450602086013593506040860135618d5c8161a5c8565b60006020808385031215618f1e578182fd5b82516001600160401b03811115618f33578283fd5b8301601f81018513618f43578283fd5b8051618f5161851a8261a53e565b8181528381019083850185840285018601891015618f6d578687fd5b8694505b83851015618f98578051618f848161a5c8565b835260019490940193918501918501618f71565b50979650505050505050565b600080600060608486031215618fb8578081fd5b83516001600160401b0380821115618fce578283fd5b818601915086601f830112618fe1578283fd5b8151618fef61851a8261a53e565b80828252602080830192508086018b82838702890101111561900f578788fd5b8796505b84871015619031578051845260019690960195928101928101619013565b508901519097509350505080821115619048578283fd5b506190558682870161875c565b925050619065856040860161884e565b90509250925092565b60008060208385031215619080578182fd5b82356001600160401b0380821115619096578384fd5b818501915085601f8301126190a9578384fd5b8135818111156190b7578485fd5b86602080830285010111156190ca578485fd5b60209290920196919550909350505050565b6000806000606084860312156190f0578081fd5b83356001600160401b0380821115619106578283fd5b619112878388016185cb565b94506020860135915080821115619127578283fd5b50619134868287016185cb565b925050604084013590509250925092565b600060208284031215619156578081fd5b81356001600160401b0381111561916b578182fd5b6114b384828501618623565b60008060408385031215619189578182fd5b82356001600160401b0381111561919e578283fd5b6191aa85828601618623565b9250506020830135618b9e8161a5c8565b6000806000606084860312156191cf578081fd5b83356001600160401b038111156191e4578182fd5b6191f086828701618623565b93505060208401356192018161a5c8565b91506040840135618c4c8161a5c8565b60006020808385031215619223578182fd5b82516001600160401b03811115619238578283fd5b8301601f81018513619248578283fd5b805161925661851a8261a53e565b8181528381019083850185840285018601891015619272578687fd5b8694505b83851015618f98578051835260019490940193918501918501619276565b6000806000606084860312156192a8578081fd5b83356001600160401b03808211156192be578283fd5b818601915086601f8301126192d1578283fd5b81356192df61851a8261a53e565b80828252602080830192508086016101808c838288028a01011115619302578889fd5b8897505b8588101561932e576193188d836189cc565b8552600197909701969382019390810190619306565b50919850890135945050505080821115619346578283fd5b506193538682870161868a565b92505061906585604086016184f1565b600060208284031215619374578081fd5b81516001600160401b03811115619389578182fd5b6114b38482850161875c565b6000602082840312156193a6578081fd5b81516140778161a5dd565b6000602082840312156193c2578081fd5b5051919050565b6000602082840312156193da578081fd5b81516001600160401b038111156193ef578182fd5b6114b384828501618808565b60008060006060848603121561940f578081fd5b833561941a8161a5c8565b925060208401356001600160401b0380821115619435578283fd5b618ea787838801618623565b600060208284031215619452578081fd5b81516140778161a601565b6000806080838503121561946f578182fd5b825161947a8161a601565b915061948984602085016188b3565b90509250929050565b60008060008084860360a08112156194a8578283fd5b60408112156194b5578283fd5b506194c0604061a518565b8535815260208601356194d28161a5c8565b6020820152935060408501356194e78161a5c8565b925060608501356194f78161a5c8565b915060808501356001600160401b03811115618df9578182fd5b60008060008060808587031215619526578182fd5b84356001600160401b038082111561953c578384fd5b908601906040828903121561954f578384fd5b619559604061a518565b61956389846184f1565b8152602083013582811115619576578586fd5b6195828a828601618573565b6020830152508096505061959988602089016184f1565b94506195a888604089016184f1565b935060608701359150808211156195bd578283fd5b50618e05878288016186fe565b60008060008060c085870312156195df578182fd5b6195e9868661885d565b935060608501356195f98161a601565b925060808501356196098161a601565b915060a08501356001600160401b03811115618df9578182fd5b60008060008060a08587031215619638578182fd5b61964286866188fe565b935060408501356194e78161a5c8565b60008060008060808587031215619667578182fd5b84356001600160401b038082111561967d578384fd5b61968988838901618941565b95506020870135915061969b8261a5c8565b9093506040860135906196ad8261a5c8565b909250606086013590808211156195bd578283fd5b600080600080608085870312156196d7578182fd5b84356001600160401b038111156196ec578283fd5b6196f887828801618941565b9450506020850135618e418161a5c8565b6000806000806080858703121561971e578182fd5b84356001600160401b03811115619733578283fd5b61973f87828801618941565b9450506020850135925060408501356197578161a5c8565b91506060850135618bfc8161a5c8565b6000806000610220848603121561977c578081fd5b61978685856189cc565b9250619796856101808601618ab9565b9150610200840135618c4c8161a5c8565b60008060008084860360c08112156197bd578283fd5b60608112156197ca578283fd5b506197d5606061a518565b85356197e08161a5c8565b81526020868101359082015260408601356197fa8161a5c8565b60408201529350606085013561980f8161a5c8565b925060808501356196098161a5c8565b600080600083850360a0811215619834578182fd5b6060811215619841578182fd5b5061984c606061a518565b84518152602085015160058110619861578283fd5b602082015260408501516198748161a610565b6040820152606085015190935061988a8161a610565b6080850151909250618c4c8161a5dd565b6000602082840312156198ac578081fd5b815162ffffff81168114614077578182fd5b600080604083850312156198d0578182fd5b505080516020909101519092909150565b600080600080608085870312156198f6578182fd5b505082516020840151604085015160609095015191969095509092509050565b600080600080600060a0868803121561992d578283fd5b5050835160208501516040860151606087015160809097015192989197509594509092509050565b600060208284031215619966578081fd5b81516140778161a625565b6001600160a01b0316815260200190565b600081518352602082015160208401526040820151604084015260608201516060840152608082015160a060808501526114b360a0850182619a3e565b6001600160a01b03169052565b6000815180845260208085019450808401835b83811015619a045781516001600160a01b0316875295820195908201906001016199df565b509495945050505050565b6000815180845260208085019450808401835b83811015619a0457815187529582019590820190600101619a22565b60008151808452619a5681602086016020860161a58b565b601f01601f19169290920160200192915050565b80516001600160a01b031682526020808201516001600160e01b03199081169184019190915260409182015116910152565b80516001600160a01b039081168352602080830151151590840152604080830151909116908301526060908101511515910152565b6000815183526020820151604060208501526114b36040850182619a3e565b600081518352602082015160018060a01b0380821660208601528060408501511660408601528060608501511660608601525050608082015160a060808501526114b360a0850182619a3e565b619b488282516199bf565b6020810151619b5a60208401826199bf565b506040810151619b6d6040840182619c3d565b506060810151619b806060840182619c3d565b506080810151619b936080840182619c3d565b5060a0810151619ba660a08401826199bf565b5060c0810151619bb960c08401826199bf565b5060e0810151619bcc60e08401826199bf565b5061010080820151619be0828501826199bf565b5050610120818101519083015261014080820151619c0082850182619c4a565b505061016090810151910152565b8051619c198161a5bb565b825260208181015160ff169083015260408082015190830152606090810151910152565b6001600160801b03169052565b6001600160401b03169052565b6000828483379101908152919050565b60008251619c7981846020870161a58b565b9190910192915050565b6001600160a01b0391909116815260200190565b6001600160a01b03929092168252602082015260400190565b6001600160a01b0392831681529116602082015260400190565b6001600160a01b03948516815292841660208401529083166040830152909116606082015260800190565b6001600160a01b03858116825284811660208301528316604082015260806060820181905260009061670390830184619a0f565b6001600160a01b039485168152928416602084015292166040820152606081019190915260800190565b6001600160a01b039384168152919092166020820152901515604082015260600190565b6001600160a01b03858116825284166020820152821515604082015260806060820181905260009061670390830184619a3e565b6001600160a01b039384168152919092166020820152604081019190915260600190565b6001600160a01b03868116825285166020820152604081018490526060810183905260a060808201819052600090619e0990830184619a3e565b979650505050505050565b6001600160a01b0384168152606060208201819052600090619e38908301856199cc565b82810360408401526167038185619a0f565b6001600160a01b03851681526000619e618561a5bb565b84602083015260806040830152619e7b6080830185619a0f565b8281036060840152619e098185619a0f565b6001600160a01b03898116825260009061010090619eaa8b61a5bb565b8a6020850152816040850152619ec28285018b619a0f565b91508382036060850152619ed6828a619a0f565b90881660808501529050619ee98661a5bb565b8560a084015282810360c0840152619f018186619a0f565b905082810360e0840152619f158185619a0f565b9b9a5050505050505050505050565b6001600160a01b03831681526040602082018190526000906114b390830184619af0565b600060408252619f5b60408301856199cc565b82810360208401526115218185619a0f565b600060408252619f8060408301856199cc565b90508260208301529392505050565b60006040820160408352808551808352606085019150602092506060838202860101838801855b83811015619fe457605f19888403018552619fd2838351619a3e565b94860194925090850190600101619fb6565b505085810384870152617f6f8188619a0f565b60208082528251828201819052600091906040908185019080840286018301878501865b8381101561a05e57888303603f190185528151805187855261a03f88860182619a3e565b918901511515948901949094529487019492509086019060010161a01b565b509098975050505050505050565b6000602082526140776020830184619a0f565b901515815260200190565b83151581526001600160a01b038316602082015260606040820181905260009061152190830184619a0f565b90815260200190565b600084825260606020830152619e386060830185619a3e565b6000602082526140776020830184619a3e565b600060408252619f806040830185619a3e565b6001600160a01b03938416815291909216602082015262ffffff909116604082015260600190565b6001600160a01b03831681526040602082018190526000906114b390830184619a0f565b6060810161a1578561a5bb565b938152602081019290925260409091015290565b606081016008851061a15757fe5b600060e0820161a1888761a580565b8352602060e08185015281875161a19f818561a0b6565b91508193508281028201838a01865b8381101561a1d857868303855261a1c6838351619982565b9486019492509085019060010161a1ae565b505086810360408801528094508851925061a1f3838261a0b6565b94505050818701845b8281101561a21d5761a20f858351619971565b94509083019060010161a1fc565b50505050809150506115216060830184619a9c565b600f93840b81529190920b6020820152604081019190915260600190565b600f83900b8152608081016140776020830184619a6a565b60208082526024908201527f556e6973776170563353616d706c65722f746f6b656e5061746820746f6f20736040820152631a1bdc9d60e21b606082015260800190565b60208082526025908201527f455243323042726964676553616d706c65722f494e56414c49445f544f4b454e6040820152642fa820a4a960d91b606082015260800190565b60208082526025908201527f556e6973776170563353616d706c65722f696e76616c69642070617468206c656040820152646e6774687360d81b606082015260800190565b600061a3428287619a6a565b84600f0b606083015283600f0b608083015260c060a083015261670360c0830184619a0f565b60006060825261a37b6060830186619ad1565b828103602084015261a38d8186619ad1565b915050826040830152949350505050565b60006080825261a3b16080830187619af0565b6001600160a01b0395861660208401529390941660408201526060015292915050565b60006080825261a3e76080830187619af0565b6020830195909552506001600160a01b0392831660408201529116606090910152919050565b610200810161a41c8285619b3d565b614077610180830184619c0e565b610220810161a4398286619b3d565b61a447610180830185619c0e565b6001600160a01b0392909216610200919091015292915050565b6000838252604060208301526114b360408301846199cc565b60008482526060602083015261a49360608301856199cc565b828103604084015261670381856199cc565b958652602086019490945260408501929092526060840152608083015260a082015260c00190565b6000808335601e1984360301811261a4e3578283fd5b8301803591506001600160401b0382111561a4fc578283fd5b60200191503681900382131561a51157600080fd5b9250929050565b6040518181016001600160401b038111828210171561a53657600080fd5b604052919050565b60006001600160401b0382111561a553578081fd5b5060209081020190565b60006001600160401b0382111561a572578081fd5b50601f01601f191660200190565b8060028110610e7057fe5b60005b8381101561a5a657818101518382015260200161a58e565b8381111561a5b5576000848401525b50505050565b6004811061a5c557fe5b50565b6001600160a01b038116811461a5c557600080fd5b801515811461a5c557600080fd5b6001600160e01b03198116811461a5c557600080fd5b80600f0b811461a5c557600080fd5b6001600160801b038116811461a5c557600080fd5b60ff8116811461a5c557600080fdfea2646970667358221220ee4835a76288f10c4bb9d4786030558d1c8d1cdb626b1ad75d1b9c093d776b2764736f6c634300060c0033",
                "opcodes": "PUSH1 0xA0 PUSH1 0x40 MSTORE PUSH32 0xEEEEEEEEEEEEEEEEEEEEEEEEEEEEEEEEEEEEEEEE000000000000000000000000 PUSH1 0x80 MSTORE CALLVALUE DUP1 ISZERO PUSH3 0x35 JUMPI PUSH1 0x0 DUP1 REVERT JUMPDEST POP PUSH1 0x80 MLOAD PUSH1 0x60 SHR PUSH2 0xA66A PUSH3 0x5E PUSH1 0x0 CODECOPY DUP1 PUSH2 0x2F87 MSTORE DUP1 PUSH2 0x4C60 MSTORE DUP1 PUSH2 0x5653 MSTORE POP PUSH2 0xA66A PUSH1 0x0 RETURN INVALID PUSH1 0x80 PUSH1 0x40 MSTORE CALLVALUE DUP1 ISZERO PUSH2 0x10 JUMPI PUSH1 0x0 DUP1 REVERT JUMPDEST POP PUSH1 0x4 CALLDATASIZE LT PUSH2 0x342 JUMPI PUSH1 0x0 CALLDATALOAD PUSH1 0xE0 SHR DUP1 PUSH4 0x7F7F4F13 GT PUSH2 0x1B8 JUMPI DUP1 PUSH4 0xB90CD2FB GT PUSH2 0x104 JUMPI DUP1 PUSH4 0xDDD5AA28 GT PUSH2 0xA2 JUMPI DUP1 PUSH4 0xF1ED7FA4 GT PUSH2 0x7C JUMPI DUP1 PUSH4 0xF1ED7FA4 EQ PUSH2 0x797 JUMPI DUP1 PUSH4 0xF3868E9C EQ PUSH2 0x48D JUMPI DUP1 PUSH4 0xF5A4994D EQ PUSH2 0x7AA JUMPI DUP1 PUSH4 0xFC9FE41B EQ PUSH2 0x7BD JUMPI PUSH2 0x342 JUMP JUMPDEST DUP1 PUSH4 0xDDD5AA28 EQ PUSH2 0x75E JUMPI DUP1 PUSH4 0xE78AC045 EQ PUSH2 0x771 JUMPI DUP1 PUSH4 0xE8E4AF09 EQ PUSH2 0x784 JUMPI PUSH2 0x342 JUMP JUMPDEST DUP1 PUSH4 0xC8319084 GT PUSH2 0xDE JUMPI DUP1 PUSH4 0xC8319084 EQ PUSH2 0x712 JUMPI DUP1 PUSH4 0xC8C74A37 EQ PUSH2 0x725 JUMPI DUP1 PUSH4 0xCC1621C9 EQ PUSH2 0x738 JUMPI DUP1 PUSH4 0xD9BCA372 EQ PUSH2 0x74B JUMPI PUSH2 0x342 JUMP JUMPDEST DUP1 PUSH4 0xB90CD2FB EQ PUSH2 0x6D9 JUMPI DUP1 PUSH4 0xBD71ECF6 EQ PUSH2 0x6EC JUMPI DUP1 PUSH4 0xC25C4138 EQ PUSH2 0x6FF JUMPI PUSH2 0x342 JUMP JUMPDEST DUP1 PUSH4 0x9E3F05C3 GT PUSH2 0x171 JUMPI DUP1 PUSH4 0xA4698417 GT PUSH2 0x14B JUMPI DUP1 PUSH4 0xA4698417 EQ PUSH2 0x67F JUMPI DUP1 PUSH4 0xA75E744B EQ PUSH2 0x692 JUMPI DUP1 PUSH4 0xA76BBEC4 EQ PUSH2 0x6A5 JUMPI DUP1 PUSH4 0xADC636BF EQ PUSH2 0x6B8 JUMPI PUSH2 0x342 JUMP JUMPDEST DUP1 PUSH4 0x9E3F05C3 EQ PUSH2 0x637 JUMPI DUP1 PUSH4 0x9EA0FF13 EQ PUSH2 0x659 JUMPI DUP1 PUSH4 0xA0295B8B EQ PUSH2 0x66C JUMPI PUSH2 0x342 JUMP JUMPDEST DUP1 PUSH4 0x7F7F4F13 EQ PUSH2 0x5B6 JUMPI DUP1 PUSH4 0x8B6D7B44 EQ PUSH2 0x5C9 JUMPI DUP1 PUSH4 0x8E5A0E07 EQ PUSH2 0x5DC JUMPI DUP1 PUSH4 0x9209483B EQ PUSH2 0x5FE JUMPI DUP1 PUSH4 0x98777748 EQ PUSH2 0x611 JUMPI DUP1 PUSH4 0x9BF3EE35 EQ PUSH2 0x624 JUMPI PUSH2 0x342 JUMP JUMPDEST DUP1 PUSH4 0x36052391 GT PUSH2 0x292 JUMPI DUP1 PUSH4 0x57494B1D GT PUSH2 0x230 JUMPI DUP1 PUSH4 0x66A1AC6B GT PUSH2 0x20A JUMPI DUP1 PUSH4 0x66A1AC6B EQ PUSH2 0x55D JUMPI DUP1 PUSH4 0x68BE3CF2 EQ PUSH2 0x570 JUMPI DUP1 PUSH4 0x706E2F9B EQ PUSH2 0x590 JUMPI DUP1 PUSH4 0x74C9D255 EQ PUSH2 0x5A3 JUMPI PUSH2 0x342 JUMP JUMPDEST DUP1 PUSH4 0x57494B1D EQ PUSH2 0x524 JUMPI DUP1 PUSH4 0x5AAE4E53 EQ PUSH2 0x537 JUMPI DUP1 PUSH4 0x5D5B674F EQ PUSH2 0x54A JUMPI PUSH2 0x342 JUMP JUMPDEST DUP1 PUSH4 0x494569DB GT PUSH2 0x26C JUMPI DUP1 PUSH4 0x494569DB EQ PUSH2 0x4C8 JUMPI DUP1 PUSH4 0x4EDFB5B2 EQ PUSH2 0x4DB JUMPI DUP1 PUSH4 0x51BE4EAA EQ PUSH2 0x4FB JUMPI DUP1 PUSH4 0x5505000A EQ PUSH2 0x503 JUMPI PUSH2 0x342 JUMP JUMPDEST DUP1 PUSH4 0x36052391 EQ PUSH2 0x48D JUMPI DUP1 PUSH4 0x40BC03AE EQ PUSH2 0x4A0 JUMPI DUP1 PUSH4 0x42CBB15C EQ PUSH2 0x4B3 JUMPI PUSH2 0x342 JUMP JUMPDEST DUP1 PUSH4 0x252322B3 GT PUSH2 0x2FF JUMPI DUP1 PUSH4 0x2AA64319 GT PUSH2 0x2D9 JUMPI DUP1 PUSH4 0x2AA64319 EQ PUSH2 0x432 JUMPI DUP1 PUSH4 0x2D753AA4 EQ PUSH2 0x454 JUMPI DUP1 PUSH4 0x30D6570D EQ PUSH2 0x467 JUMPI DUP1 PUSH4 0x3105FEC1 EQ PUSH2 0x47A JUMPI PUSH2 0x342 JUMP JUMPDEST DUP1 PUSH4 0x252322B3 EQ PUSH2 0x3F9 JUMPI DUP1 PUSH4 0x281E3432 EQ PUSH2 0x40C JUMPI DUP1 PUSH4 0x29FA4AA0 EQ PUSH2 0x41F JUMPI PUSH2 0x342 JUMP JUMPDEST DUP1 PUSH4 0x34EAFF9 EQ PUSH2 0x347 JUMPI DUP1 PUSH4 0x496D5DC EQ PUSH2 0x370 JUMPI DUP1 PUSH4 0x1022742B EQ PUSH2 0x391 JUMPI DUP1 PUSH4 0x149DAB0E EQ PUSH2 0x3A4 JUMPI DUP1 PUSH4 0x16279055 EQ PUSH2 0x3C6 JUMPI DUP1 PUSH4 0x2339078F EQ PUSH2 0x3E6 JUMPI JUMPDEST PUSH1 0x0 DUP1 REVERT JUMPDEST PUSH2 0x35A PUSH2 0x355 CALLDATASIZE PUSH1 0x4 PUSH2 0x8D9F JUMP JUMPDEST PUSH2 0x7D0 JUMP JUMPDEST PUSH1 0x40 MLOAD PUSH2 0x367 SWAP2 SWAP1 PUSH2 0xA06C JUMP JUMPDEST PUSH1 0x40 MLOAD DUP1 SWAP2 SUB SWAP1 RETURN JUMPDEST PUSH2 0x383 PUSH2 0x37E CALLDATASIZE PUSH1 0x4 PUSH2 0x8E61 JUMP JUMPDEST PUSH2 0x9F2 JUMP JUMPDEST PUSH1 0x40 MLOAD PUSH2 0x367 SWAP3 SWAP2 SWAP1 PUSH2 0x9F48 JUMP JUMPDEST PUSH2 0x35A PUSH2 0x39F CALLDATASIZE PUSH1 0x4 PUSH2 0x9294 JUMP JUMPDEST PUSH2 0xB98 JUMP JUMPDEST PUSH2 0x3B7 PUSH2 0x3B2 CALLDATASIZE PUSH1 0x4 PUSH2 0x9511 JUMP JUMPDEST PUSH2 0xD0B JUMP JUMPDEST PUSH1 0x40 MLOAD PUSH2 0x367 SWAP4 SWAP3 SWAP2 SWAP1 PUSH2 0x9E14 JUMP JUMPDEST PUSH2 0x3D9 PUSH2 0x3D4 CALLDATASIZE PUSH1 0x4 PUSH2 0x8B38 JUMP JUMPDEST PUSH2 0xE6B JUMP JUMPDEST PUSH1 0x40 MLOAD PUSH2 0x367 SWAP2 SWAP1 PUSH2 0xA07F JUMP JUMPDEST PUSH2 0x35A PUSH2 0x3F4 CALLDATASIZE PUSH1 0x4 PUSH2 0x9492 JUMP JUMPDEST PUSH2 0xE75 JUMP JUMPDEST PUSH2 0x35A PUSH2 0x407 CALLDATASIZE PUSH1 0x4 PUSH2 0x8D9F JUMP JUMPDEST PUSH2 0x109C JUMP JUMPDEST PUSH2 0x35A PUSH2 0x41A CALLDATASIZE PUSH1 0x4 PUSH2 0x97A7 JUMP JUMPDEST PUSH2 0x1266 JUMP JUMPDEST PUSH2 0x35A PUSH2 0x42D CALLDATASIZE PUSH1 0x4 PUSH2 0x95CA JUMP JUMPDEST PUSH2 0x14BB JUMP JUMPDEST PUSH2 0x445 PUSH2 0x440 CALLDATASIZE PUSH1 0x4 PUSH2 0x9623 JUMP JUMPDEST PUSH2 0x152A JUMP JUMPDEST PUSH1 0x40 MLOAD PUSH2 0x367 SWAP4 SWAP3 SWAP2 SWAP1 PUSH2 0xA08A JUMP JUMPDEST PUSH2 0x35A PUSH2 0x462 CALLDATASIZE PUSH1 0x4 PUSH2 0x8D1A JUMP JUMPDEST PUSH2 0x1807 JUMP JUMPDEST PUSH2 0x35A PUSH2 0x475 CALLDATASIZE PUSH1 0x4 PUSH2 0x8D9F JUMP JUMPDEST PUSH2 0x1990 JUMP JUMPDEST PUSH2 0x35A PUSH2 0x488 CALLDATASIZE PUSH1 0x4 PUSH2 0x8E61 JUMP JUMPDEST PUSH2 0x1B04 JUMP JUMPDEST PUSH2 0x35A PUSH2 0x49B CALLDATASIZE PUSH1 0x4 PUSH2 0x9623 JUMP JUMPDEST PUSH2 0x1C88 JUMP JUMPDEST PUSH2 0x35A PUSH2 0x4AE CALLDATASIZE PUSH1 0x4 PUSH2 0x95CA JUMP JUMPDEST PUSH2 0x1D1A JUMP JUMPDEST PUSH2 0x4BB PUSH2 0x1E9B JUMP JUMPDEST PUSH1 0x40 MLOAD PUSH2 0x367 SWAP2 SWAP1 PUSH2 0xA0B6 JUMP JUMPDEST PUSH2 0x383 PUSH2 0x4D6 CALLDATASIZE PUSH1 0x4 PUSH2 0x8E61 JUMP JUMPDEST PUSH2 0x1E9F JUMP JUMPDEST PUSH2 0x4EE PUSH2 0x4E9 CALLDATASIZE PUSH1 0x4 PUSH2 0x9709 JUMP JUMPDEST PUSH2 0x202B JUMP JUMPDEST PUSH1 0x40 MLOAD PUSH2 0x367 SWAP2 SWAP1 PUSH2 0xA0D8 JUMP JUMPDEST PUSH2 0x4BB PUSH2 0x22A9 JUMP JUMPDEST PUSH2 0x516 PUSH2 0x511 CALLDATASIZE PUSH1 0x4 PUSH2 0x93FB JUMP JUMPDEST PUSH2 0x22B1 JUMP JUMPDEST PUSH1 0x40 MLOAD PUSH2 0x367 SWAP3 SWAP2 SWAP1 PUSH2 0x9F8F JUMP JUMPDEST PUSH2 0x35A PUSH2 0x532 CALLDATASIZE PUSH1 0x4 PUSH2 0x8D9F JUMP JUMPDEST PUSH2 0x24FC JUMP JUMPDEST PUSH2 0x516 PUSH2 0x545 CALLDATASIZE PUSH1 0x4 PUSH2 0x93FB JUMP JUMPDEST PUSH2 0x2A73 JUMP JUMPDEST PUSH2 0x35A PUSH2 0x558 CALLDATASIZE PUSH1 0x4 PUSH2 0x8D9F JUMP JUMPDEST PUSH2 0x2CB8 JUMP JUMPDEST PUSH2 0x35A PUSH2 0x56B CALLDATASIZE PUSH1 0x4 PUSH2 0x9294 JUMP JUMPDEST PUSH2 0x2D1E JUMP JUMPDEST PUSH2 0x583 PUSH2 0x57E CALLDATASIZE PUSH1 0x4 PUSH2 0x906E JUMP JUMPDEST PUSH2 0x2DD3 JUMP JUMPDEST PUSH1 0x40 MLOAD PUSH2 0x367 SWAP2 SWAP1 PUSH2 0x9FF7 JUMP JUMPDEST PUSH2 0x35A PUSH2 0x59E CALLDATASIZE PUSH1 0x4 PUSH2 0x9145 JUMP JUMPDEST PUSH2 0x2F34 JUMP JUMPDEST PUSH2 0x3B7 PUSH2 0x5B1 CALLDATASIZE PUSH1 0x4 PUSH2 0x9511 JUMP JUMPDEST PUSH2 0x3026 JUMP JUMPDEST PUSH2 0x35A PUSH2 0x5C4 CALLDATASIZE PUSH1 0x4 PUSH2 0x97A7 JUMP JUMPDEST PUSH2 0x3035 JUMP JUMPDEST PUSH2 0x35A PUSH2 0x5D7 CALLDATASIZE PUSH1 0x4 PUSH2 0x95CA JUMP JUMPDEST PUSH2 0x3282 JUMP JUMPDEST PUSH2 0x5EF PUSH2 0x5EA CALLDATASIZE PUSH1 0x4 PUSH2 0x90DC JUMP JUMPDEST PUSH2 0x35E5 JUMP JUMPDEST PUSH1 0x40 MLOAD PUSH2 0x367 SWAP4 SWAP3 SWAP2 SWAP1 PUSH2 0xA368 JUMP JUMPDEST PUSH2 0x35A PUSH2 0x60C CALLDATASIZE PUSH1 0x4 PUSH2 0x95CA JUMP JUMPDEST PUSH2 0x37FE JUMP JUMPDEST PUSH2 0x35A PUSH2 0x61F CALLDATASIZE PUSH1 0x4 PUSH2 0x8D9F JUMP JUMPDEST PUSH2 0x39FE JUMP JUMPDEST PUSH2 0x4BB PUSH2 0x632 CALLDATASIZE PUSH1 0x4 PUSH2 0x9767 JUMP JUMPDEST PUSH2 0x3F37 JUMP JUMPDEST PUSH2 0x64A PUSH2 0x645 CALLDATASIZE PUSH1 0x4 PUSH2 0x9652 JUMP JUMPDEST PUSH2 0x407E JUMP JUMPDEST PUSH1 0x40 MLOAD PUSH2 0x367 SWAP4 SWAP3 SWAP2 SWAP1 PUSH2 0xA0BF JUMP JUMPDEST PUSH2 0x4BB PUSH2 0x667 CALLDATASIZE PUSH1 0x4 PUSH2 0x8E11 JUMP JUMPDEST PUSH2 0x41A4 JUMP JUMPDEST PUSH2 0x35A PUSH2 0x67A CALLDATASIZE PUSH1 0x4 PUSH2 0x9492 JUMP JUMPDEST PUSH2 0x43BA JUMP JUMPDEST PUSH2 0x35A PUSH2 0x68D CALLDATASIZE PUSH1 0x4 PUSH2 0x8D9F JUMP JUMPDEST PUSH2 0x45B6 JUMP JUMPDEST PUSH2 0x445 PUSH2 0x6A0 CALLDATASIZE PUSH1 0x4 PUSH2 0x8ED3 JUMP JUMPDEST PUSH2 0x470B JUMP JUMPDEST PUSH2 0x35A PUSH2 0x6B3 CALLDATASIZE PUSH1 0x4 PUSH2 0x8D9F JUMP JUMPDEST PUSH2 0x4848 JUMP JUMPDEST PUSH2 0x6CB PUSH2 0x6C6 CALLDATASIZE PUSH1 0x4 PUSH2 0x8D9F JUMP JUMPDEST PUSH2 0x4A57 JUMP JUMPDEST PUSH1 0x40 MLOAD PUSH2 0x367 SWAP3 SWAP2 SWAP1 PUSH2 0xA126 JUMP JUMPDEST PUSH2 0x35A PUSH2 0x6E7 CALLDATASIZE PUSH1 0x4 PUSH2 0x8D9F JUMP JUMPDEST PUSH2 0x4BA7 JUMP JUMPDEST PUSH2 0x35A PUSH2 0x6FA CALLDATASIZE PUSH1 0x4 PUSH2 0x9177 JUMP JUMPDEST PUSH2 0x4C0D JUMP JUMPDEST PUSH2 0x35A PUSH2 0x70D CALLDATASIZE PUSH1 0x4 PUSH2 0x8D9F JUMP JUMPDEST PUSH2 0x4D09 JUMP JUMPDEST PUSH2 0x35A PUSH2 0x720 CALLDATASIZE PUSH1 0x4 PUSH2 0x8D9F JUMP JUMPDEST PUSH2 0x4D6F JUMP JUMPDEST PUSH2 0x35A PUSH2 0x733 CALLDATASIZE PUSH1 0x4 PUSH2 0x8E61 JUMP JUMPDEST PUSH2 0x4F2C JUMP JUMPDEST PUSH2 0x64A PUSH2 0x746 CALLDATASIZE PUSH1 0x4 PUSH2 0x9652 JUMP JUMPDEST PUSH2 0x5098 JUMP JUMPDEST PUSH2 0x445 PUSH2 0x759 CALLDATASIZE PUSH1 0x4 PUSH2 0x8ED3 JUMP JUMPDEST PUSH2 0x527E JUMP JUMPDEST PUSH2 0x445 PUSH2 0x76C CALLDATASIZE PUSH1 0x4 PUSH2 0x9623 JUMP JUMPDEST PUSH2 0x536D JUMP JUMPDEST PUSH2 0x35A PUSH2 0x77F CALLDATASIZE PUSH1 0x4 PUSH2 0x91BB JUMP JUMPDEST PUSH2 0x5600 JUMP JUMPDEST PUSH2 0x35A PUSH2 0x792 CALLDATASIZE PUSH1 0x4 PUSH2 0x8D9F JUMP JUMPDEST PUSH2 0x56F5 JUMP JUMPDEST PUSH2 0x4BB PUSH2 0x7A5 CALLDATASIZE PUSH1 0x4 PUSH2 0x96C2 JUMP JUMPDEST PUSH2 0x5828 JUMP JUMPDEST PUSH2 0x6CB PUSH2 0x7B8 CALLDATASIZE PUSH1 0x4 PUSH2 0x8D9F JUMP JUMPDEST PUSH2 0x59C7 JUMP JUMPDEST PUSH2 0x5EF PUSH2 0x7CB CALLDATASIZE PUSH1 0x4 PUSH2 0x90DC JUMP JUMPDEST PUSH2 0x5AB3 JUMP JUMPDEST DUP1 MLOAD PUSH1 0x60 SWAP1 DUP1 PUSH1 0x1 PUSH1 0x1 PUSH1 0x40 SHL SUB DUP2 GT DUP1 ISZERO PUSH2 0x7EB JUMPI PUSH1 0x0 DUP1 REVERT JUMPDEST POP PUSH1 0x40 MLOAD SWAP1 DUP1 DUP3 MSTORE DUP1 PUSH1 0x20 MUL PUSH1 0x20 ADD DUP3 ADD PUSH1 0x40 MSTORE DUP1 ISZERO PUSH2 0x815 JUMPI DUP2 PUSH1 0x20 ADD PUSH1 0x20 DUP3 MUL DUP1 CALLDATASIZE DUP4 CALLDATACOPY ADD SWAP1 POP JUMPDEST POP SWAP2 POP PUSH1 0x0 DUP7 PUSH1 0x1 PUSH1 0x1 PUSH1 0xA0 SHL SUB AND PUSH4 0x182DF0F5 PUSH1 0x40 MLOAD DUP2 PUSH4 0xFFFFFFFF AND PUSH1 0xE0 SHL DUP2 MSTORE PUSH1 0x4 ADD PUSH1 0x20 PUSH1 0x40 MLOAD DUP1 DUP4 SUB DUP2 DUP7 DUP1 EXTCODESIZE ISZERO DUP1 ISZERO PUSH2 0x853 JUMPI PUSH1 0x0 DUP1 REVERT JUMPDEST POP GAS STATICCALL ISZERO DUP1 ISZERO PUSH2 0x867 JUMPI RETURNDATASIZE PUSH1 0x0 DUP1 RETURNDATACOPY RETURNDATASIZE PUSH1 0x0 REVERT JUMPDEST POP POP POP POP PUSH1 0x40 MLOAD RETURNDATASIZE PUSH1 0x1F NOT PUSH1 0x1F DUP3 ADD AND DUP3 ADD DUP1 PUSH1 0x40 MSTORE POP DUP2 ADD SWAP1 PUSH2 0x88B SWAP2 SWAP1 PUSH2 0x93B1 JUMP JUMPDEST SWAP1 POP PUSH1 0x0 DUP8 PUSH1 0x1 PUSH1 0x1 PUSH1 0xA0 SHL SUB AND PUSH4 0x313CE567 PUSH1 0x40 MLOAD DUP2 PUSH4 0xFFFFFFFF AND PUSH1 0xE0 SHL DUP2 MSTORE PUSH1 0x4 ADD PUSH1 0x20 PUSH1 0x40 MLOAD DUP1 DUP4 SUB DUP2 DUP7 DUP1 EXTCODESIZE ISZERO DUP1 ISZERO PUSH2 0x8C8 JUMPI PUSH1 0x0 DUP1 REVERT JUMPDEST POP GAS STATICCALL ISZERO DUP1 ISZERO PUSH2 0x8DC JUMPI RETURNDATASIZE PUSH1 0x0 DUP1 RETURNDATACOPY RETURNDATASIZE PUSH1 0x0 REVERT JUMPDEST POP POP POP POP PUSH1 0x40 MLOAD RETURNDATASIZE PUSH1 0x1F NOT PUSH1 0x1F DUP3 ADD AND DUP3 ADD DUP1 PUSH1 0x40 MSTORE POP DUP2 ADD SWAP1 PUSH2 0x900 SWAP2 SWAP1 PUSH2 0x9955 JUMP JUMPDEST PUSH1 0xFF AND SWAP1 POP DUP8 PUSH1 0x1 PUSH1 0x1 PUSH1 0xA0 SHL SUB AND DUP7 PUSH1 0x1 PUSH1 0x1 PUSH1 0xA0 SHL SUB AND EQ ISZERO PUSH2 0x978 JUMPI PUSH1 0x0 JUMPDEST DUP4 DUP2 LT ISZERO PUSH2 0x972 JUMPI DUP2 PUSH1 0xA EXP PUSH5 0x2540BE400 MUL DUP4 DUP8 DUP4 DUP2 MLOAD DUP2 LT PUSH2 0x942 JUMPI INVALID JUMPDEST PUSH1 0x20 MUL PUSH1 0x20 ADD ADD MLOAD MUL DUP2 PUSH2 0x952 JUMPI INVALID JUMPDEST DIV DUP6 DUP3 DUP2 MLOAD DUP2 LT PUSH2 0x95F JUMPI INVALID JUMPDEST PUSH1 0x20 SWAP1 DUP2 MUL SWAP2 SWAP1 SWAP2 ADD ADD MSTORE PUSH1 0x1 ADD PUSH2 0x922 JUMP JUMPDEST POP PUSH2 0x9E7 JUMP JUMPDEST DUP8 PUSH1 0x1 PUSH1 0x1 PUSH1 0xA0 SHL SUB AND DUP8 PUSH1 0x1 PUSH1 0x1 PUSH1 0xA0 SHL SUB AND EQ ISZERO PUSH2 0x9E7 JUMPI PUSH1 0x0 JUMPDEST DUP4 DUP2 LT ISZERO PUSH2 0x9E5 JUMPI DUP3 DUP3 PUSH1 0xA EXP PUSH5 0x2540BE400 DUP9 DUP5 DUP2 MLOAD DUP2 LT PUSH2 0x9B4 JUMPI INVALID JUMPDEST PUSH1 0x20 MUL PUSH1 0x20 ADD ADD MLOAD MUL MUL DUP2 PUSH2 0x9C5 JUMPI INVALID JUMPDEST DIV DUP6 DUP3 DUP2 MLOAD DUP2 LT PUSH2 0x9D2 JUMPI INVALID JUMPDEST PUSH1 0x20 SWAP1 DUP2 MUL SWAP2 SWAP1 SWAP2 ADD ADD MSTORE PUSH1 0x1 ADD PUSH2 0x995 JUMP JUMPDEST POP JUMPDEST POP POP POP SWAP5 SWAP4 POP POP POP POP JUMP JUMPDEST DUP1 MLOAD PUSH1 0x60 SWAP1 DUP2 SWAP1 DUP1 PUSH1 0x1 PUSH1 0x1 PUSH1 0x40 SHL SUB DUP2 GT DUP1 ISZERO PUSH2 0xA0F JUMPI PUSH1 0x0 DUP1 REVERT JUMPDEST POP PUSH1 0x40 MLOAD SWAP1 DUP1 DUP3 MSTORE DUP1 PUSH1 0x20 MUL PUSH1 0x20 ADD DUP3 ADD PUSH1 0x40 MSTORE DUP1 ISZERO PUSH2 0xA39 JUMPI DUP2 PUSH1 0x20 ADD PUSH1 0x20 DUP3 MUL DUP1 CALLDATASIZE DUP4 CALLDATACOPY ADD SWAP1 POP JUMPDEST POP SWAP2 POP PUSH2 0xA46 DUP7 DUP7 PUSH2 0x5CC8 JUMP JUMPDEST SWAP3 POP DUP3 MLOAD PUSH1 0x0 EQ ISZERO PUSH2 0xA58 JUMPI POP PUSH2 0xB90 JUMP JUMPDEST PUSH1 0x0 JUMPDEST DUP2 DUP2 LT ISZERO PUSH2 0xB8D JUMPI DUP7 PUSH1 0x1 PUSH1 0x1 PUSH1 0xA0 SHL SUB AND PUSH4 0xA8312B1D PUSH3 0x249F0 DUP8 DUP5 DUP2 MLOAD DUP2 LT PUSH2 0xA82 JUMPI INVALID JUMPDEST PUSH1 0x20 MUL PUSH1 0x20 ADD ADD MLOAD DUP8 DUP11 PUSH1 0x40 MLOAD DUP6 PUSH4 0xFFFFFFFF AND PUSH1 0xE0 SHL DUP2 MSTORE PUSH1 0x4 ADD PUSH2 0xAAA SWAP4 SWAP3 SWAP2 SWAP1 PUSH2 0xA47A JUMP JUMPDEST PUSH1 0x0 PUSH1 0x40 MLOAD DUP1 DUP4 SUB DUP2 DUP8 DUP1 EXTCODESIZE ISZERO DUP1 ISZERO PUSH2 0xAC2 JUMPI PUSH1 0x0 DUP1 REVERT JUMPDEST POP DUP7 STATICCALL SWAP4 POP POP POP POP DUP1 ISZERO PUSH2 0xAF8 JUMPI POP PUSH1 0x40 MLOAD RETURNDATASIZE PUSH1 0x0 DUP3 RETURNDATACOPY PUSH1 0x1F RETURNDATASIZE SWAP1 DUP2 ADD PUSH1 0x1F NOT AND DUP3 ADD PUSH1 0x40 MSTORE PUSH2 0xAF5 SWAP2 SWAP1 DUP2 ADD SWAP1 PUSH2 0x9363 JUMP JUMPDEST PUSH1 0x1 JUMPDEST PUSH2 0xB32 JUMPI RETURNDATASIZE DUP1 DUP1 ISZERO PUSH2 0xB26 JUMPI PUSH1 0x40 MLOAD SWAP2 POP PUSH1 0x1F NOT PUSH1 0x3F RETURNDATASIZE ADD AND DUP3 ADD PUSH1 0x40 MSTORE RETURNDATASIZE DUP3 MSTORE RETURNDATASIZE PUSH1 0x0 PUSH1 0x20 DUP5 ADD RETURNDATACOPY PUSH2 0xB2B JUMP JUMPDEST PUSH1 0x60 SWAP2 POP JUMPDEST POP POP PUSH2 0xB8D JUMP JUMPDEST DUP1 PUSH1 0x1 DUP9 MLOAD SUB DUP2 MLOAD DUP2 LT PUSH2 0xB42 JUMPI INVALID JUMPDEST PUSH1 0x20 MUL PUSH1 0x20 ADD ADD MLOAD DUP5 DUP4 DUP2 MLOAD DUP2 LT PUSH2 0xB56 JUMPI INVALID JUMPDEST PUSH1 0x20 MUL PUSH1 0x20 ADD ADD DUP2 DUP2 MSTORE POP POP DUP4 DUP3 DUP2 MLOAD DUP2 LT PUSH2 0xB6E JUMPI INVALID JUMPDEST PUSH1 0x20 MUL PUSH1 0x20 ADD ADD MLOAD PUSH1 0x0 EQ ISZERO PUSH2 0xB84 JUMPI POP PUSH2 0xB8D JUMP JUMPDEST POP PUSH1 0x1 ADD PUSH2 0xA5B JUMP JUMPDEST POP POP JUMPDEST SWAP4 POP SWAP4 SWAP2 POP POP JUMP JUMPDEST PUSH1 0x60 DUP4 MLOAD PUSH1 0x1 PUSH1 0x1 PUSH1 0x40 SHL SUB DUP2 GT DUP1 ISZERO PUSH2 0xBB1 JUMPI PUSH1 0x0 DUP1 REVERT JUMPDEST POP PUSH1 0x40 MLOAD SWAP1 DUP1 DUP3 MSTORE DUP1 PUSH1 0x20 MUL PUSH1 0x20 ADD DUP3 ADD PUSH1 0x40 MSTORE DUP1 ISZERO PUSH2 0xBDB JUMPI DUP2 PUSH1 0x20 ADD PUSH1 0x20 DUP3 MUL DUP1 CALLDATASIZE DUP4 CALLDATACOPY ADD SWAP1 POP JUMPDEST POP SWAP1 POP PUSH1 0x0 JUMPDEST DUP5 MLOAD DUP2 EQ PUSH2 0xD03 JUMPI ADDRESS PUSH1 0x1 PUSH1 0x1 PUSH1 0xA0 SHL SUB AND PUSH4 0x9BF3EE35 PUSH3 0x30D40 DUP8 DUP5 DUP2 MLOAD DUP2 LT PUSH2 0xC08 JUMPI INVALID JUMPDEST PUSH1 0x20 MUL PUSH1 0x20 ADD ADD MLOAD DUP8 DUP6 DUP2 MLOAD DUP2 LT PUSH2 0xC1C JUMPI INVALID JUMPDEST PUSH1 0x20 MUL PUSH1 0x20 ADD ADD MLOAD DUP8 PUSH1 0x40 MLOAD DUP6 PUSH4 0xFFFFFFFF AND PUSH1 0xE0 SHL DUP2 MSTORE PUSH1 0x4 ADD PUSH2 0xC43 SWAP4 SWAP3 SWAP2 SWAP1 PUSH2 0xA42A JUMP JUMPDEST PUSH1 0x20 PUSH1 0x40 MLOAD DUP1 DUP4 SUB DUP2 DUP8 DUP1 EXTCODESIZE ISZERO DUP1 ISZERO PUSH2 0xC5B JUMPI PUSH1 0x0 DUP1 REVERT JUMPDEST POP DUP7 STATICCALL SWAP4 POP POP POP POP DUP1 ISZERO PUSH2 0xC8C JUMPI POP PUSH1 0x40 DUP1 MLOAD PUSH1 0x1F RETURNDATASIZE SWAP1 DUP2 ADD PUSH1 0x1F NOT AND DUP3 ADD SWAP1 SWAP3 MSTORE PUSH2 0xC89 SWAP2 DUP2 ADD SWAP1 PUSH2 0x93B1 JUMP JUMPDEST PUSH1 0x1 JUMPDEST PUSH2 0xCE0 JUMPI RETURNDATASIZE DUP1 DUP1 ISZERO PUSH2 0xCBA JUMPI PUSH1 0x40 MLOAD SWAP2 POP PUSH1 0x1F NOT PUSH1 0x3F RETURNDATASIZE ADD AND DUP3 ADD PUSH1 0x40 MSTORE RETURNDATASIZE DUP3 MSTORE RETURNDATASIZE PUSH1 0x0 PUSH1 0x20 DUP5 ADD RETURNDATACOPY PUSH2 0xCBF JUMP JUMPDEST PUSH1 0x60 SWAP2 POP JUMPDEST POP PUSH1 0x0 DUP4 DUP4 DUP2 MLOAD DUP2 LT PUSH2 0xCCE JUMPI INVALID JUMPDEST PUSH1 0x20 MUL PUSH1 0x20 ADD ADD DUP2 DUP2 MSTORE POP POP POP PUSH2 0xCFB JUMP JUMPDEST DUP1 DUP4 DUP4 DUP2 MLOAD DUP2 LT PUSH2 0xCED JUMPI INVALID JUMPDEST PUSH1 0x20 MUL PUSH1 0x20 ADD ADD DUP2 DUP2 MSTORE POP POP POP JUMPDEST PUSH1 0x1 ADD PUSH2 0xBE1 JUMP JUMPDEST POP SWAP4 SWAP3 POP POP POP JUMP JUMPDEST PUSH1 0x0 PUSH1 0x60 DUP1 DUP7 PUSH1 0x20 ADD MLOAD MLOAD PUSH1 0x0 EQ ISZERO PUSH2 0xD23 JUMPI PUSH2 0xE61 JUMP JUMPDEST PUSH2 0xD2F DUP8 DUP8 DUP8 DUP8 PUSH2 0x5FB8 JUMP JUMPDEST DUP6 MLOAD SWAP2 SWAP5 POP SWAP3 POP PUSH1 0x1 PUSH1 0x1 PUSH1 0x40 SHL SUB DUP2 GT DUP1 ISZERO PUSH2 0xD4B JUMPI PUSH1 0x0 DUP1 REVERT JUMPDEST POP PUSH1 0x40 MLOAD SWAP1 DUP1 DUP3 MSTORE DUP1 PUSH1 0x20 MUL PUSH1 0x20 ADD DUP3 ADD PUSH1 0x40 MSTORE DUP1 ISZERO PUSH2 0xD75 JUMPI DUP2 PUSH1 0x20 ADD PUSH1 0x20 DUP3 MUL DUP1 CALLDATASIZE DUP4 CALLDATACOPY ADD SWAP1 POP JUMPDEST POP SWAP1 POP PUSH1 0x0 JUMPDEST DUP2 MLOAD DUP2 LT ISZERO PUSH2 0xE5F JUMPI DUP4 PUSH1 0x1 PUSH1 0x1 PUSH1 0xA0 SHL SUB AND PUSH4 0x7F9C0ECD PUSH3 0x493E0 DUP6 DUP9 DUP6 DUP2 MLOAD DUP2 LT PUSH2 0xDA4 JUMPI INVALID JUMPDEST PUSH1 0x20 MUL PUSH1 0x20 ADD ADD MLOAD PUSH1 0x40 MLOAD DUP5 PUSH4 0xFFFFFFFF AND PUSH1 0xE0 SHL DUP2 MSTORE PUSH1 0x4 ADD PUSH2 0xDC9 SWAP3 SWAP2 SWAP1 PUSH2 0x9F6D JUMP JUMPDEST PUSH1 0x20 PUSH1 0x40 MLOAD DUP1 DUP4 SUB DUP2 DUP8 DUP1 EXTCODESIZE ISZERO DUP1 ISZERO PUSH2 0xDE1 JUMPI PUSH1 0x0 DUP1 REVERT JUMPDEST POP DUP7 STATICCALL SWAP4 POP POP POP POP DUP1 ISZERO PUSH2 0xE12 JUMPI POP PUSH1 0x40 DUP1 MLOAD PUSH1 0x1F RETURNDATASIZE SWAP1 DUP2 ADD PUSH1 0x1F NOT AND DUP3 ADD SWAP1 SWAP3 MSTORE PUSH2 0xE0F SWAP2 DUP2 ADD SWAP1 PUSH2 0x93B1 JUMP JUMPDEST PUSH1 0x1 JUMPDEST PUSH2 0xE1B JUMPI PUSH2 0xE5F JUMP JUMPDEST DUP1 DUP4 DUP4 DUP2 MLOAD DUP2 LT PUSH2 0xE28 JUMPI INVALID JUMPDEST PUSH1 0x20 MUL PUSH1 0x20 ADD ADD DUP2 DUP2 MSTORE POP POP DUP3 DUP3 DUP2 MLOAD DUP2 LT PUSH2 0xE40 JUMPI INVALID JUMPDEST PUSH1 0x20 MUL PUSH1 0x20 ADD ADD MLOAD PUSH1 0x0 EQ ISZERO PUSH2 0xE56 JUMPI POP PUSH2 0xE5F JUMP JUMPDEST POP PUSH1 0x1 ADD PUSH2 0xD7B JUMP JUMPDEST POP JUMPDEST SWAP5 POP SWAP5 POP SWAP5 SWAP2 POP POP JUMP JUMPDEST DUP1 EXTCODESIZE ISZERO ISZERO JUMPDEST SWAP2 SWAP1 POP JUMP JUMPDEST PUSH1 0x60 PUSH2 0xE81 DUP4 DUP6 PUSH2 0x61EA JUMP JUMPDEST PUSH1 0x20 DUP6 ADD MLOAD PUSH1 0x40 DUP1 MLOAD PUSH1 0x2 DUP1 DUP3 MSTORE PUSH1 0x60 DUP3 DUP2 ADD SWAP1 SWAP4 MSTORE DUP2 PUSH1 0x20 ADD PUSH1 0x20 DUP3 MUL DUP1 CALLDATASIZE DUP4 CALLDATACOPY ADD SWAP1 POP POP SWAP1 POP DUP6 DUP2 PUSH1 0x0 DUP2 MLOAD DUP2 LT PUSH2 0xEB7 JUMPI INVALID JUMPDEST PUSH1 0x20 MUL PUSH1 0x20 ADD ADD SWAP1 PUSH1 0x1 PUSH1 0x1 PUSH1 0xA0 SHL SUB AND SWAP1 DUP2 PUSH1 0x1 PUSH1 0x1 PUSH1 0xA0 SHL SUB AND DUP2 MSTORE POP POP DUP5 DUP2 PUSH1 0x1 DUP2 MLOAD DUP2 LT PUSH2 0xEE5 JUMPI INVALID JUMPDEST PUSH1 0x1 PUSH1 0x1 PUSH1 0xA0 SHL SUB SWAP1 SWAP3 AND PUSH1 0x20 SWAP3 DUP4 MUL SWAP2 SWAP1 SWAP2 ADD SWAP1 SWAP2 ADD MSTORE DUP4 MLOAD DUP1 PUSH1 0x1 PUSH1 0x1 PUSH1 0x40 SHL SUB DUP2 GT DUP1 ISZERO PUSH2 0xF15 JUMPI PUSH1 0x0 DUP1 REVERT JUMPDEST POP PUSH1 0x40 MLOAD SWAP1 DUP1 DUP3 MSTORE DUP1 PUSH1 0x20 MUL PUSH1 0x20 ADD DUP3 ADD PUSH1 0x40 MSTORE DUP1 ISZERO PUSH2 0xF3F JUMPI DUP2 PUSH1 0x20 ADD PUSH1 0x20 DUP3 MUL DUP1 CALLDATASIZE DUP4 CALLDATACOPY ADD SWAP1 POP JUMPDEST POP SWAP4 POP PUSH2 0xF4A PUSH2 0x838D JUMP JUMPDEST PUSH2 0xF52 PUSH2 0x6229 JUMP JUMPDEST SWAP1 POP PUSH1 0x0 JUMPDEST DUP3 DUP2 LT ISZERO PUSH2 0x108F JUMPI PUSH1 0x60 PUSH2 0xF7E DUP12 DUP10 DUP5 DUP2 MLOAD DUP2 LT PUSH2 0xF71 JUMPI INVALID JUMPDEST PUSH1 0x20 MUL PUSH1 0x20 ADD ADD MLOAD PUSH2 0x6258 JUMP JUMPDEST PUSH1 0x40 MLOAD PUSH4 0x7C268337 PUSH1 0xE1 SHL DUP2 MSTORE SWAP1 SWAP2 POP PUSH1 0x1 PUSH1 0x1 PUSH1 0xA0 SHL SUB DUP8 AND SWAP1 PUSH4 0xF84D066E SWAP1 PUSH2 0xFB4 SWAP1 PUSH1 0x0 SWAP1 DUP6 SWAP1 DUP11 SWAP1 DUP10 SWAP1 PUSH1 0x4 ADD PUSH2 0xA179 JUMP JUMPDEST PUSH1 0x0 PUSH1 0x40 MLOAD DUP1 DUP4 SUB DUP2 PUSH1 0x0 DUP8 DUP1 EXTCODESIZE ISZERO DUP1 ISZERO PUSH2 0xFCE JUMPI PUSH1 0x0 DUP1 REVERT JUMPDEST POP GAS CALL SWAP3 POP POP POP DUP1 ISZERO PUSH2 0x1003 JUMPI POP PUSH1 0x40 MLOAD RETURNDATASIZE PUSH1 0x0 DUP3 RETURNDATACOPY PUSH1 0x1F RETURNDATASIZE SWAP1 DUP2 ADD PUSH1 0x1F NOT AND DUP3 ADD PUSH1 0x40 MSTORE PUSH2 0x1000 SWAP2 SWAP1 DUP2 ADD SWAP1 PUSH2 0x9211 JUMP JUMPDEST PUSH1 0x1 JUMPDEST PUSH2 0x103E JUMPI RETURNDATASIZE DUP1 DUP1 ISZERO PUSH2 0x1031 JUMPI PUSH1 0x40 MLOAD SWAP2 POP PUSH1 0x1F NOT PUSH1 0x3F RETURNDATASIZE ADD AND DUP3 ADD PUSH1 0x40 MSTORE RETURNDATASIZE DUP3 MSTORE RETURNDATASIZE PUSH1 0x0 PUSH1 0x20 DUP5 ADD RETURNDATACOPY PUSH2 0x1036 JUMP JUMPDEST PUSH1 0x60 SWAP2 POP JUMPDEST POP POP POP PUSH2 0x108F JUMP JUMPDEST PUSH1 0x0 DUP2 PUSH1 0x1 DUP2 MLOAD DUP2 LT PUSH2 0x104D JUMPI INVALID JUMPDEST PUSH1 0x20 MUL PUSH1 0x20 ADD ADD MLOAD PUSH1 0x0 NOT MUL SWAP1 POP PUSH1 0x0 DUP2 SGT PUSH2 0x106B JUMPI POP POP POP PUSH2 0x108F JUMP JUMPDEST DUP1 DUP10 DUP6 DUP2 MLOAD DUP2 LT PUSH2 0x1078 JUMPI INVALID JUMPDEST PUSH1 0x20 MUL PUSH1 0x20 ADD ADD DUP2 DUP2 MSTORE POP POP POP POP POP PUSH1 0x1 ADD PUSH2 0xF57 JUMP JUMPDEST POP POP POP POP POP SWAP5 SWAP4 POP POP POP POP JUMP JUMPDEST PUSH1 0x60 PUSH2 0x10A8 DUP4 DUP6 PUSH2 0x61EA JUMP JUMPDEST DUP2 MLOAD DUP1 PUSH1 0x1 PUSH1 0x1 PUSH1 0x40 SHL SUB DUP2 GT DUP1 ISZERO PUSH2 0x10C0 JUMPI PUSH1 0x0 DUP1 REVERT JUMPDEST POP PUSH1 0x40 MLOAD SWAP1 DUP1 DUP3 MSTORE DUP1 PUSH1 0x20 MUL PUSH1 0x20 ADD DUP3 ADD PUSH1 0x40 MSTORE DUP1 ISZERO PUSH2 0x10EA JUMPI DUP2 PUSH1 0x20 ADD PUSH1 0x20 DUP3 MUL DUP1 CALLDATASIZE DUP4 CALLDATACOPY ADD SWAP1 POP JUMPDEST POP SWAP2 POP PUSH1 0x0 PUSH1 0x1 PUSH1 0x1 PUSH1 0xA0 SHL SUB DUP7 AND ISZERO PUSH2 0x110D JUMPI PUSH2 0x1108 DUP8 DUP8 PUSH2 0x62EA JUMP JUMPDEST PUSH2 0x1110 JUMP JUMPDEST PUSH1 0x0 JUMPDEST SWAP1 POP PUSH1 0x0 PUSH1 0x1 PUSH1 0x1 PUSH1 0xA0 SHL SUB DUP7 AND ISZERO PUSH2 0x1132 JUMPI PUSH2 0x112D DUP9 DUP8 PUSH2 0x62EA JUMP JUMPDEST PUSH2 0x1135 JUMP JUMPDEST PUSH1 0x0 JUMPDEST SWAP1 POP PUSH1 0x0 JUMPDEST DUP4 DUP2 LT ISZERO PUSH2 0x9E5 JUMPI PUSH1 0x1 PUSH1 0x1 PUSH1 0x1 PUSH1 0xA0 SHL SUB DUP9 AND PUSH2 0x1198 JUMPI PUSH2 0x1177 DUP5 PUSH4 0x2640F62C PUSH1 0xE0 SHL DUP10 DUP6 DUP2 MLOAD DUP2 LT PUSH2 0x116A JUMPI INVALID JUMPDEST PUSH1 0x20 MUL PUSH1 0x20 ADD ADD MLOAD PUSH2 0x6369 JUMP JUMPDEST DUP8 DUP5 DUP2 MLOAD DUP2 LT PUSH2 0x1183 JUMPI INVALID JUMPDEST PUSH1 0x20 MUL PUSH1 0x20 ADD ADD DUP2 SWAP4 POP DUP3 DUP2 MSTORE POP POP POP PUSH2 0x1232 JUMP JUMPDEST PUSH1 0x1 PUSH1 0x1 PUSH1 0xA0 SHL SUB DUP10 AND PUSH2 0x11BE JUMPI PUSH2 0x1177 DUP4 PUSH4 0x59E94862 PUSH1 0xE0 SHL DUP10 DUP6 DUP2 MLOAD DUP2 LT PUSH2 0x116A JUMPI INVALID JUMPDEST PUSH1 0x0 PUSH2 0x11D8 DUP5 PUSH4 0x59E94862 PUSH1 0xE0 SHL DUP11 DUP7 DUP2 MLOAD DUP2 LT PUSH2 0x116A JUMPI INVALID JUMPDEST SWAP3 POP SWAP1 POP DUP1 ISZERO PUSH2 0x1215 JUMPI PUSH2 0x11F4 DUP6 PUSH4 0x9903D8B PUSH1 0xE2 SHL DUP4 PUSH2 0x6369 JUMP JUMPDEST DUP9 DUP6 DUP2 MLOAD DUP2 LT PUSH2 0x1200 JUMPI INVALID JUMPDEST PUSH1 0x20 MUL PUSH1 0x20 ADD ADD DUP2 SWAP5 POP DUP3 DUP2 MSTORE POP POP POP PUSH2 0x1230 JUMP JUMPDEST PUSH1 0x0 DUP8 DUP5 DUP2 MLOAD DUP2 LT PUSH2 0x1223 JUMPI INVALID JUMPDEST PUSH1 0x20 MUL PUSH1 0x20 ADD ADD DUP2 DUP2 MSTORE POP POP JUMPDEST POP JUMPDEST DUP1 ISZERO DUP1 PUSH2 0x1252 JUMPI POP DUP6 DUP3 DUP2 MLOAD DUP2 LT PUSH2 0x1246 JUMPI INVALID JUMPDEST PUSH1 0x20 MUL PUSH1 0x20 ADD ADD MLOAD PUSH1 0x0 EQ JUMPDEST ISZERO PUSH2 0x125D JUMPI POP PUSH2 0x9E5 JUMP JUMPDEST POP PUSH1 0x1 ADD PUSH2 0x113A JUMP JUMPDEST PUSH1 0x60 PUSH2 0x1272 DUP4 DUP6 PUSH2 0x61EA JUMP JUMPDEST PUSH1 0x0 DUP6 PUSH1 0x0 ADD MLOAD SWAP1 POP PUSH1 0x0 DUP2 PUSH1 0x1 PUSH1 0x1 PUSH1 0xA0 SHL SUB AND PUSH4 0x36569E77 PUSH1 0x40 MLOAD DUP2 PUSH4 0xFFFFFFFF AND PUSH1 0xE0 SHL DUP2 MSTORE PUSH1 0x4 ADD PUSH1 0x20 PUSH1 0x40 MLOAD DUP1 DUP4 SUB DUP2 DUP7 DUP1 EXTCODESIZE ISZERO DUP1 ISZERO PUSH2 0x12B6 JUMPI PUSH1 0x0 DUP1 REVERT JUMPDEST POP GAS STATICCALL ISZERO DUP1 ISZERO PUSH2 0x12CA JUMPI RETURNDATASIZE PUSH1 0x0 DUP1 RETURNDATACOPY RETURNDATASIZE PUSH1 0x0 REVERT JUMPDEST POP POP POP POP PUSH1 0x40 MLOAD RETURNDATASIZE PUSH1 0x1F NOT PUSH1 0x1F DUP3 ADD AND DUP3 ADD DUP1 PUSH1 0x40 MSTORE POP DUP2 ADD SWAP1 PUSH2 0x12EE SWAP2 SWAP1 PUSH2 0x8B54 JUMP JUMPDEST DUP5 MLOAD SWAP1 SWAP2 POP DUP1 PUSH1 0x1 PUSH1 0x1 PUSH1 0x40 SHL SUB DUP2 GT DUP1 ISZERO PUSH2 0x1309 JUMPI PUSH1 0x0 DUP1 REVERT JUMPDEST POP PUSH1 0x40 MLOAD SWAP1 DUP1 DUP3 MSTORE DUP1 PUSH1 0x20 MUL PUSH1 0x20 ADD DUP3 ADD PUSH1 0x40 MSTORE DUP1 ISZERO PUSH2 0x1333 JUMPI DUP2 PUSH1 0x20 ADD PUSH1 0x20 DUP3 MUL DUP1 CALLDATASIZE DUP4 CALLDATACOPY ADD SWAP1 POP JUMPDEST POP SWAP4 POP DUP3 PUSH1 0x1 PUSH1 0x1 PUSH1 0xA0 SHL SUB AND PUSH4 0xF4B9FA75 PUSH1 0x40 MLOAD DUP2 PUSH4 0xFFFFFFFF AND PUSH1 0xE0 SHL DUP2 MSTORE PUSH1 0x4 ADD PUSH1 0x20 PUSH1 0x40 MLOAD DUP1 DUP4 SUB DUP2 DUP7 DUP1 EXTCODESIZE ISZERO DUP1 ISZERO PUSH2 0x136F JUMPI PUSH1 0x0 DUP1 REVERT JUMPDEST POP GAS STATICCALL ISZERO DUP1 ISZERO PUSH2 0x1383 JUMPI RETURNDATASIZE PUSH1 0x0 DUP1 RETURNDATACOPY RETURNDATASIZE PUSH1 0x0 REVERT JUMPDEST POP POP POP POP PUSH1 0x40 MLOAD RETURNDATASIZE PUSH1 0x1F NOT PUSH1 0x1F DUP3 ADD AND DUP3 ADD DUP1 PUSH1 0x40 MSTORE POP DUP2 ADD SWAP1 PUSH2 0x13A7 SWAP2 SWAP1 PUSH2 0x8B54 JUMP JUMPDEST PUSH1 0x1 PUSH1 0x1 PUSH1 0xA0 SHL SUB AND DUP7 PUSH1 0x1 PUSH1 0x1 PUSH1 0xA0 SHL SUB AND EQ ISZERO DUP1 ISZERO PUSH2 0x144A JUMPI POP DUP3 PUSH1 0x1 PUSH1 0x1 PUSH1 0xA0 SHL SUB AND PUSH4 0xF4B9FA75 PUSH1 0x40 MLOAD DUP2 PUSH4 0xFFFFFFFF AND PUSH1 0xE0 SHL DUP2 MSTORE PUSH1 0x4 ADD PUSH1 0x20 PUSH1 0x40 MLOAD DUP1 DUP4 SUB DUP2 DUP7 DUP1 EXTCODESIZE ISZERO DUP1 ISZERO PUSH2 0x13FC JUMPI PUSH1 0x0 DUP1 REVERT JUMPDEST POP GAS STATICCALL ISZERO DUP1 ISZERO PUSH2 0x1410 JUMPI RETURNDATASIZE PUSH1 0x0 DUP1 RETURNDATACOPY RETURNDATASIZE PUSH1 0x0 REVERT JUMPDEST POP POP POP POP PUSH1 0x40 MLOAD RETURNDATASIZE PUSH1 0x1F NOT PUSH1 0x1F DUP3 ADD AND DUP3 ADD DUP1 PUSH1 0x40 MSTORE POP DUP2 ADD SWAP1 PUSH2 0x1434 SWAP2 SWAP1 PUSH2 0x8B54 JUMP JUMPDEST PUSH1 0x1 PUSH1 0x1 PUSH1 0xA0 SHL SUB AND DUP8 PUSH1 0x1 PUSH1 0x1 PUSH1 0xA0 SHL SUB AND EQ ISZERO JUMPDEST ISZERO PUSH2 0x1457 JUMPI POP POP POP PUSH2 0x14B3 JUMP JUMPDEST PUSH1 0x0 JUMPDEST DUP2 DUP2 LT ISZERO PUSH2 0x9E5 JUMPI PUSH1 0x0 PUSH2 0x1485 DUP11 DUP10 DUP12 DUP11 DUP7 DUP2 MLOAD DUP2 LT PUSH2 0x1476 JUMPI INVALID JUMPDEST PUSH1 0x20 MUL PUSH1 0x20 ADD ADD MLOAD DUP10 DUP10 PUSH2 0x644C JUMP JUMPDEST SWAP1 POP DUP1 PUSH2 0x1492 JUMPI POP PUSH2 0x9E5 JUMP JUMPDEST DUP1 DUP7 DUP4 DUP2 MLOAD DUP2 LT PUSH2 0x149F JUMPI INVALID JUMPDEST PUSH1 0x20 SWAP1 DUP2 MUL SWAP2 SWAP1 SWAP2 ADD ADD MSTORE POP PUSH1 0x1 ADD PUSH2 0x145A JUMP JUMPDEST SWAP5 SWAP4 POP POP POP POP JUMP JUMPDEST PUSH1 0x40 DUP1 MLOAD PUSH1 0x60 DUP2 DUP2 ADD SWAP1 SWAP3 MSTORE PUSH2 0x1521 SWAP1 DUP1 PUSH2 0x14DA DUP7 DUP10 PUSH1 0x80 DUP5 ADD PUSH2 0xA250 JUMP JUMPDEST PUSH1 0x40 MLOAD PUSH1 0x20 DUP2 DUP4 SUB SUB DUP2 MSTORE SWAP1 PUSH1 0x40 MSTORE DUP2 MSTORE PUSH1 0x20 ADD DUP7 DUP9 PUSH1 0x40 MLOAD PUSH1 0x20 ADD PUSH2 0x1501 SWAP3 SWAP2 SWAP1 PUSH2 0xA250 JUMP JUMPDEST PUSH1 0x40 MLOAD PUSH1 0x20 DUP2 DUP4 SUB SUB DUP2 MSTORE SWAP1 PUSH1 0x40 MSTORE DUP2 MSTORE PUSH1 0x20 ADD PUSH2 0x670D DUP2 MSTORE POP DUP4 PUSH2 0x6840 JUMP JUMPDEST SWAP6 SWAP5 POP POP POP POP POP JUMP JUMPDEST PUSH1 0x0 DUP1 PUSH1 0x60 PUSH2 0x1539 DUP6 DUP8 PUSH2 0x61EA JUMP JUMPDEST DUP4 MLOAD DUP1 PUSH1 0x1 PUSH1 0x1 PUSH1 0x40 SHL SUB DUP2 GT DUP1 ISZERO PUSH2 0x1551 JUMPI PUSH1 0x0 DUP1 REVERT JUMPDEST POP PUSH1 0x40 MLOAD SWAP1 DUP1 DUP3 MSTORE DUP1 PUSH1 0x20 MUL PUSH1 0x20 ADD DUP3 ADD PUSH1 0x40 MSTORE DUP1 ISZERO PUSH2 0x157B JUMPI DUP2 PUSH1 0x20 ADD PUSH1 0x20 DUP3 MUL DUP1 CALLDATASIZE DUP4 CALLDATACOPY ADD SWAP1 POP JUMPDEST POP DUP9 MLOAD PUSH1 0x40 MLOAD PUSH4 0x939D863 PUSH1 0xE1 SHL DUP2 MSTORE SWAP2 SWAP4 POP PUSH1 0x1 PUSH1 0x1 PUSH1 0xA0 SHL SUB AND SWAP1 PUSH4 0x1273B0C6 SWAP1 PUSH2 0x15AE SWAP1 DUP11 SWAP1 DUP11 SWAP1 PUSH1 0x4 ADD PUSH2 0x9CB0 JUMP JUMPDEST PUSH1 0x20 PUSH1 0x40 MLOAD DUP1 DUP4 SUB DUP2 DUP7 DUP1 EXTCODESIZE ISZERO DUP1 ISZERO PUSH2 0x15C6 JUMPI PUSH1 0x0 DUP1 REVERT JUMPDEST POP GAS STATICCALL ISZERO DUP1 ISZERO PUSH2 0x15DA JUMPI RETURNDATASIZE PUSH1 0x0 DUP1 RETURNDATACOPY RETURNDATASIZE PUSH1 0x0 REVERT JUMPDEST POP POP POP POP PUSH1 0x40 MLOAD RETURNDATASIZE PUSH1 0x1F NOT PUSH1 0x1F DUP3 ADD AND DUP3 ADD DUP1 PUSH1 0x40 MSTORE POP DUP2 ADD SWAP1 PUSH2 0x15FE SWAP2 SWAP1 PUSH2 0x8B54 JUMP JUMPDEST SWAP3 POP PUSH1 0x0 PUSH1 0x1 PUSH1 0x1 PUSH1 0xA0 SHL SUB DUP5 AND ISZERO PUSH2 0x161C JUMPI POP PUSH1 0x1 SWAP4 POP DUP7 PUSH2 0x16BB JUMP JUMPDEST DUP9 MLOAD PUSH1 0x40 MLOAD PUSH4 0x939D863 PUSH1 0xE1 SHL DUP2 MSTORE PUSH1 0x1 PUSH1 0x1 PUSH1 0xA0 SHL SUB SWAP1 SWAP2 AND SWAP1 PUSH4 0x1273B0C6 SWAP1 PUSH2 0x164D SWAP1 DUP11 SWAP1 DUP13 SWAP1 PUSH1 0x4 ADD PUSH2 0x9CB0 JUMP JUMPDEST PUSH1 0x20 PUSH1 0x40 MLOAD DUP1 DUP4 SUB DUP2 DUP7 DUP1 EXTCODESIZE ISZERO DUP1 ISZERO PUSH2 0x1665 JUMPI PUSH1 0x0 DUP1 REVERT JUMPDEST POP GAS STATICCALL ISZERO DUP1 ISZERO PUSH2 0x1679 JUMPI RETURNDATASIZE PUSH1 0x0 DUP1 RETURNDATACOPY RETURNDATASIZE PUSH1 0x0 REVERT JUMPDEST POP POP POP POP PUSH1 0x40 MLOAD RETURNDATASIZE PUSH1 0x1F NOT PUSH1 0x1F DUP3 ADD AND DUP3 ADD DUP1 PUSH1 0x40 MSTORE POP DUP2 ADD SWAP1 PUSH2 0x169D SWAP2 SWAP1 PUSH2 0x8B54 JUMP JUMPDEST SWAP4 POP PUSH1 0x1 PUSH1 0x1 PUSH1 0xA0 SHL SUB DUP5 AND PUSH2 0x16B4 JUMPI POP POP PUSH2 0xE61 JUMP JUMPDEST POP PUSH1 0x0 SWAP4 POP DUP6 JUMPDEST DUP4 PUSH1 0x1 PUSH1 0x1 PUSH1 0xA0 SHL SUB AND PUSH4 0xDD58B41C PUSH1 0x40 MLOAD DUP2 PUSH4 0xFFFFFFFF AND PUSH1 0xE0 SHL DUP2 MSTORE PUSH1 0x4 ADD PUSH1 0x20 PUSH1 0x40 MLOAD DUP1 DUP4 SUB DUP2 DUP7 DUP1 EXTCODESIZE ISZERO DUP1 ISZERO PUSH2 0x16F4 JUMPI PUSH1 0x0 DUP1 REVERT JUMPDEST POP GAS STATICCALL ISZERO DUP1 ISZERO PUSH2 0x1708 JUMPI RETURNDATASIZE PUSH1 0x0 DUP1 RETURNDATACOPY RETURNDATASIZE PUSH1 0x0 REVERT JUMPDEST POP POP POP POP PUSH1 0x40 MLOAD RETURNDATASIZE PUSH1 0x1F NOT PUSH1 0x1F DUP3 ADD AND DUP3 ADD DUP1 PUSH1 0x40 MSTORE POP DUP2 ADD SWAP1 PUSH2 0x172C SWAP2 SWAP1 PUSH2 0x9395 JUMP JUMPDEST PUSH2 0x1737 JUMPI POP POP PUSH2 0xE61 JUMP JUMPDEST PUSH1 0x0 JUMPDEST DUP3 DUP2 LT ISZERO PUSH2 0x17FA JUMPI PUSH1 0x0 PUSH2 0x17B4 DUP11 DUP8 DUP6 DUP15 PUSH1 0x20 ADD MLOAD PUSH1 0x40 MLOAD PUSH1 0x20 ADD PUSH2 0x1762 SWAP5 SWAP4 SWAP3 SWAP2 SWAP1 PUSH2 0x9CCA JUMP JUMPDEST PUSH1 0x40 MLOAD PUSH1 0x20 DUP2 DUP4 SUB SUB DUP2 MSTORE SWAP1 PUSH1 0x40 MSTORE DUP11 DUP9 DUP7 DUP16 PUSH1 0x20 ADD MLOAD PUSH1 0x40 MLOAD PUSH1 0x20 ADD PUSH2 0x178C SWAP5 SWAP4 SWAP3 SWAP2 SWAP1 PUSH2 0x9CCA JUMP JUMPDEST PUSH1 0x40 MLOAD PUSH1 0x20 DUP2 DUP4 SUB SUB DUP2 MSTORE SWAP1 PUSH1 0x40 MSTORE DUP11 DUP6 DUP2 MLOAD DUP2 LT PUSH2 0x17A7 JUMPI INVALID JUMPDEST PUSH1 0x20 MUL PUSH1 0x20 ADD ADD MLOAD PUSH2 0x6A52 JUMP JUMPDEST SWAP1 POP DUP1 DUP6 DUP4 DUP2 MLOAD DUP2 LT PUSH2 0x17C3 JUMPI INVALID JUMPDEST PUSH1 0x20 MUL PUSH1 0x20 ADD ADD DUP2 DUP2 MSTORE POP POP DUP5 DUP3 DUP2 MLOAD DUP2 LT PUSH2 0x17DB JUMPI INVALID JUMPDEST PUSH1 0x20 MUL PUSH1 0x20 ADD ADD MLOAD PUSH1 0x0 EQ ISZERO PUSH2 0x17F1 JUMPI POP PUSH2 0x17FA JUMP JUMPDEST POP PUSH1 0x1 ADD PUSH2 0x173A JUMP JUMPDEST POP POP POP SWAP5 POP SWAP5 POP SWAP5 SWAP2 POP POP JUMP JUMPDEST DUP1 MLOAD PUSH1 0x60 SWAP1 DUP1 PUSH1 0x1 PUSH1 0x1 PUSH1 0x40 SHL SUB DUP2 GT DUP1 ISZERO PUSH2 0x1822 JUMPI PUSH1 0x0 DUP1 REVERT JUMPDEST POP PUSH1 0x40 MLOAD SWAP1 DUP1 DUP3 MSTORE DUP1 PUSH1 0x20 MUL PUSH1 0x20 ADD DUP3 ADD PUSH1 0x40 MSTORE DUP1 ISZERO PUSH2 0x184C JUMPI DUP2 PUSH1 0x20 ADD PUSH1 0x20 DUP3 MUL DUP1 CALLDATASIZE DUP4 CALLDATACOPY ADD SWAP1 POP JUMPDEST POP SWAP2 POP PUSH1 0x1 PUSH1 0x1 PUSH1 0xA0 SHL SUB DUP8 AND PUSH2 0x1863 JUMPI POP PUSH2 0x1521 JUMP JUMPDEST PUSH1 0x0 JUMPDEST DUP2 DUP2 LT ISZERO PUSH2 0x1985 JUMPI PUSH1 0x0 PUSH1 0x60 DUP10 PUSH1 0x1 PUSH1 0x1 PUSH1 0xA0 SHL SUB AND PUSH3 0x61A80 PUSH4 0x6E79E133 PUSH1 0xE0 SHL DUP12 DUP12 DUP12 DUP12 DUP10 DUP2 MLOAD DUP2 LT PUSH2 0x1897 JUMPI INVALID JUMPDEST PUSH1 0x20 MUL PUSH1 0x20 ADD ADD MLOAD PUSH1 0x40 MLOAD PUSH1 0x24 ADD PUSH2 0x18B2 SWAP5 SWAP4 SWAP3 SWAP2 SWAP1 PUSH2 0x9D29 JUMP JUMPDEST PUSH1 0x40 DUP1 MLOAD PUSH1 0x1F NOT DUP2 DUP5 SUB ADD DUP2 MSTORE SWAP2 DUP2 MSTORE PUSH1 0x20 DUP3 ADD DUP1 MLOAD PUSH1 0x1 PUSH1 0x1 PUSH1 0xE0 SHL SUB AND PUSH1 0x1 PUSH1 0x1 PUSH1 0xE0 SHL SUB NOT SWAP1 SWAP5 AND SWAP4 SWAP1 SWAP4 OR SWAP1 SWAP3 MSTORE SWAP1 MLOAD PUSH2 0x18F0 SWAP2 SWAP1 PUSH2 0x9C67 JUMP JUMPDEST PUSH1 0x0 PUSH1 0x40 MLOAD DUP1 DUP4 SUB DUP2 DUP7 DUP7 STATICCALL SWAP3 POP POP POP RETURNDATASIZE DUP1 PUSH1 0x0 DUP2 EQ PUSH2 0x192C JUMPI PUSH1 0x40 MLOAD SWAP2 POP PUSH1 0x1F NOT PUSH1 0x3F RETURNDATASIZE ADD AND DUP3 ADD PUSH1 0x40 MSTORE RETURNDATASIZE DUP3 MSTORE RETURNDATASIZE PUSH1 0x0 PUSH1 0x20 DUP5 ADD RETURNDATACOPY PUSH2 0x1931 JUMP JUMPDEST PUSH1 0x60 SWAP2 POP JUMPDEST POP SWAP2 POP SWAP2 POP PUSH1 0x0 DUP3 ISZERO PUSH2 0x1955 JUMPI DUP2 DUP1 PUSH1 0x20 ADD SWAP1 MLOAD DUP2 ADD SWAP1 PUSH2 0x1952 SWAP2 SWAP1 PUSH2 0x93B1 JUMP JUMPDEST SWAP1 POP JUMPDEST DUP1 PUSH2 0x1962 JUMPI POP POP POP PUSH2 0x1985 JUMP JUMPDEST DUP1 DUP7 DUP6 DUP2 MLOAD DUP2 LT PUSH2 0x196F JUMPI INVALID JUMPDEST PUSH1 0x20 SWAP1 DUP2 MUL SWAP2 SWAP1 SWAP2 ADD ADD MSTORE POP POP POP PUSH1 0x1 ADD PUSH2 0x1866 JUMP JUMPDEST POP POP SWAP6 SWAP5 POP POP POP POP POP JUMP JUMPDEST PUSH1 0x60 PUSH2 0x199C DUP4 DUP6 PUSH2 0x61EA JUMP JUMPDEST DUP2 MLOAD DUP1 PUSH1 0x1 PUSH1 0x1 PUSH1 0x40 SHL SUB DUP2 GT DUP1 ISZERO PUSH2 0x19B4 JUMPI PUSH1 0x0 DUP1 REVERT JUMPDEST POP PUSH1 0x40 MLOAD SWAP1 DUP1 DUP3 MSTORE DUP1 PUSH1 0x20 MUL PUSH1 0x20 ADD DUP3 ADD PUSH1 0x40 MSTORE DUP1 ISZERO PUSH2 0x19DE JUMPI DUP2 PUSH1 0x20 ADD PUSH1 0x20 DUP3 MUL DUP1 CALLDATASIZE DUP4 CALLDATACOPY ADD SWAP1 POP JUMPDEST POP SWAP2 POP PUSH1 0x0 JUMPDEST DUP2 DUP2 LT ISZERO PUSH2 0x1AFA JUMPI DUP7 PUSH1 0x1 PUSH1 0x1 PUSH1 0xA0 SHL SUB AND PUSH4 0x72EA9076 PUSH3 0xC3500 DUP9 DUP9 DUP9 DUP7 DUP2 MLOAD DUP2 LT PUSH2 0x1A0D JUMPI INVALID JUMPDEST PUSH1 0x20 MUL PUSH1 0x20 ADD ADD MLOAD PUSH1 0x40 MLOAD DUP6 PUSH4 0xFFFFFFFF AND PUSH1 0xE0 SHL DUP2 MSTORE PUSH1 0x4 ADD PUSH2 0x1A33 SWAP4 SWAP3 SWAP2 SWAP1 PUSH2 0x9DAB JUMP JUMPDEST PUSH1 0x20 PUSH1 0x40 MLOAD DUP1 DUP4 SUB DUP2 DUP8 DUP1 EXTCODESIZE ISZERO DUP1 ISZERO PUSH2 0x1A4B JUMPI PUSH1 0x0 DUP1 REVERT JUMPDEST POP DUP7 STATICCALL SWAP4 POP POP POP POP DUP1 ISZERO PUSH2 0x1A7C JUMPI POP PUSH1 0x40 DUP1 MLOAD PUSH1 0x1F RETURNDATASIZE SWAP1 DUP2 ADD PUSH1 0x1F NOT AND DUP3 ADD SWAP1 SWAP3 MSTORE PUSH2 0x1A79 SWAP2 DUP2 ADD SWAP1 PUSH2 0x93B1 JUMP JUMPDEST PUSH1 0x1 JUMPDEST PUSH2 0x1AB6 JUMPI RETURNDATASIZE DUP1 DUP1 ISZERO PUSH2 0x1AAA JUMPI PUSH1 0x40 MLOAD SWAP2 POP PUSH1 0x1F NOT PUSH1 0x3F RETURNDATASIZE ADD AND DUP3 ADD PUSH1 0x40 MSTORE RETURNDATASIZE DUP3 MSTORE RETURNDATASIZE PUSH1 0x0 PUSH1 0x20 DUP5 ADD RETURNDATACOPY PUSH2 0x1AAF JUMP JUMPDEST PUSH1 0x60 SWAP2 POP JUMPDEST POP POP PUSH2 0x1AFA JUMP JUMPDEST DUP1 DUP5 DUP4 DUP2 MLOAD DUP2 LT PUSH2 0x1AC3 JUMPI INVALID JUMPDEST PUSH1 0x20 MUL PUSH1 0x20 ADD ADD DUP2 DUP2 MSTORE POP POP DUP4 DUP3 DUP2 MLOAD DUP2 LT PUSH2 0x1ADB JUMPI INVALID JUMPDEST PUSH1 0x20 MUL PUSH1 0x20 ADD ADD MLOAD PUSH1 0x0 EQ ISZERO PUSH2 0x1AF1 JUMPI POP PUSH2 0x1AFA JUMP JUMPDEST POP PUSH1 0x1 ADD PUSH2 0x19E4 JUMP JUMPDEST POP POP SWAP5 SWAP4 POP POP POP POP JUMP JUMPDEST DUP1 MLOAD PUSH1 0x60 SWAP1 DUP1 PUSH1 0x1 PUSH1 0x1 PUSH1 0x40 SHL SUB DUP2 GT DUP1 ISZERO PUSH2 0x1B1F JUMPI PUSH1 0x0 DUP1 REVERT JUMPDEST POP PUSH1 0x40 MLOAD SWAP1 DUP1 DUP3 MSTORE DUP1 PUSH1 0x20 MUL PUSH1 0x20 ADD DUP3 ADD PUSH1 0x40 MSTORE DUP1 ISZERO PUSH2 0x1B49 JUMPI DUP2 PUSH1 0x20 ADD PUSH1 0x20 DUP3 MUL DUP1 CALLDATASIZE DUP4 CALLDATACOPY ADD SWAP1 POP JUMPDEST POP SWAP2 POP PUSH1 0x0 JUMPDEST DUP2 DUP2 LT ISZERO PUSH2 0x1C7F JUMPI DUP6 PUSH1 0x1 PUSH1 0x1 PUSH1 0xA0 SHL SUB AND PUSH4 0xD06CA61F PUSH3 0x249F0 DUP7 DUP5 DUP2 MLOAD DUP2 LT PUSH2 0x1B76 JUMPI INVALID JUMPDEST PUSH1 0x20 MUL PUSH1 0x20 ADD ADD MLOAD DUP9 PUSH1 0x40 MLOAD DUP5 PUSH4 0xFFFFFFFF AND PUSH1 0xE0 SHL DUP2 MSTORE PUSH1 0x4 ADD PUSH2 0x1B9C SWAP3 SWAP2 SWAP1 PUSH2 0xA461 JUMP JUMPDEST PUSH1 0x0 PUSH1 0x40 MLOAD DUP1 DUP4 SUB DUP2 DUP8 DUP1 EXTCODESIZE ISZERO DUP1 ISZERO PUSH2 0x1BB4 JUMPI PUSH1 0x0 DUP1 REVERT JUMPDEST POP DUP7 STATICCALL SWAP4 POP POP POP POP DUP1 ISZERO PUSH2 0x1BEA JUMPI POP PUSH1 0x40 MLOAD RETURNDATASIZE PUSH1 0x0 DUP3 RETURNDATACOPY PUSH1 0x1F RETURNDATASIZE SWAP1 DUP2 ADD PUSH1 0x1F NOT AND DUP3 ADD PUSH1 0x40 MSTORE PUSH2 0x1BE7 SWAP2 SWAP1 DUP2 ADD SWAP1 PUSH2 0x9363 JUMP JUMPDEST PUSH1 0x1 JUMPDEST PUSH2 0x1C24 JUMPI RETURNDATASIZE DUP1 DUP1 ISZERO PUSH2 0x1C18 JUMPI PUSH1 0x40 MLOAD SWAP2 POP PUSH1 0x1F NOT PUSH1 0x3F RETURNDATASIZE ADD AND DUP3 ADD PUSH1 0x40 MSTORE RETURNDATASIZE DUP3 MSTORE RETURNDATASIZE PUSH1 0x0 PUSH1 0x20 DUP5 ADD RETURNDATACOPY PUSH2 0x1C1D JUMP JUMPDEST PUSH1 0x60 SWAP2 POP JUMPDEST POP POP PUSH2 0x1C7F JUMP JUMPDEST DUP1 PUSH1 0x1 DUP8 MLOAD SUB DUP2 MLOAD DUP2 LT PUSH2 0x1C34 JUMPI INVALID JUMPDEST PUSH1 0x20 MUL PUSH1 0x20 ADD ADD MLOAD DUP5 DUP4 DUP2 MLOAD DUP2 LT PUSH2 0x1C48 JUMPI INVALID JUMPDEST PUSH1 0x20 MUL PUSH1 0x20 ADD ADD DUP2 DUP2 MSTORE POP POP DUP4 DUP3 DUP2 MLOAD DUP2 LT PUSH2 0x1C60 JUMPI INVALID JUMPDEST PUSH1 0x20 MUL PUSH1 0x20 ADD ADD MLOAD PUSH1 0x0 EQ ISZERO PUSH2 0x1C76 JUMPI POP PUSH2 0x1C7F JUMP JUMPDEST POP PUSH1 0x1 ADD PUSH2 0x1B4F JUMP JUMPDEST POP POP SWAP4 SWAP3 POP POP POP JUMP JUMPDEST PUSH1 0x60 PUSH2 0x1C94 DUP4 DUP6 PUSH2 0x61EA JUMP JUMPDEST DUP5 PUSH1 0x20 ADD MLOAD PUSH1 0x1 PUSH1 0x1 PUSH1 0xA0 SHL SUB AND DUP5 PUSH1 0x1 PUSH1 0x1 PUSH1 0xA0 SHL SUB AND EQ ISZERO DUP1 PUSH2 0x1CC6 JUMPI POP DUP5 MLOAD PUSH1 0x1 PUSH1 0x1 PUSH1 0xA0 SHL SUB DUP5 DUP2 AND SWAP2 AND EQ ISZERO JUMPDEST ISZERO PUSH2 0xD03 JUMPI DUP2 MLOAD PUSH1 0x60 DUP2 PUSH1 0x1 PUSH1 0x1 PUSH1 0x40 SHL SUB DUP2 GT DUP1 ISZERO PUSH2 0x1CE5 JUMPI PUSH1 0x0 DUP1 REVERT JUMPDEST POP PUSH1 0x40 MLOAD SWAP1 DUP1 DUP3 MSTORE DUP1 PUSH1 0x20 MUL PUSH1 0x20 ADD DUP3 ADD PUSH1 0x40 MSTORE DUP1 ISZERO PUSH2 0x1D0F JUMPI DUP2 PUSH1 0x20 ADD PUSH1 0x20 DUP3 MUL DUP1 CALLDATASIZE DUP4 CALLDATACOPY ADD SWAP1 POP JUMPDEST POP SWAP3 POP PUSH2 0x14B3 SWAP2 POP POP JUMP JUMPDEST DUP1 MLOAD PUSH1 0x60 SWAP1 DUP1 PUSH1 0x1 PUSH1 0x1 PUSH1 0x40 SHL SUB DUP2 GT DUP1 ISZERO PUSH2 0x1D35 JUMPI PUSH1 0x0 DUP1 REVERT JUMPDEST POP PUSH1 0x40 MLOAD SWAP1 DUP1 DUP3 MSTORE DUP1 PUSH1 0x20 MUL PUSH1 0x20 ADD DUP3 ADD PUSH1 0x40 MSTORE DUP1 ISZERO PUSH2 0x1D5F JUMPI DUP2 PUSH1 0x20 ADD PUSH1 0x20 DUP3 MUL DUP1 CALLDATASIZE DUP4 CALLDATACOPY ADD SWAP1 POP JUMPDEST POP SWAP2 POP PUSH1 0x0 JUMPDEST DUP2 DUP2 LT ISZERO PUSH2 0x1AFA JUMPI PUSH1 0x0 PUSH1 0x60 DUP9 PUSH1 0x0 ADD MLOAD PUSH1 0x1 PUSH1 0x1 PUSH1 0xA0 SHL SUB AND PUSH3 0x1E8480 DUP11 PUSH1 0x20 ADD MLOAD DUP11 DUP11 DUP11 DUP9 DUP2 MLOAD DUP2 LT PUSH2 0x1D96 JUMPI INVALID JUMPDEST PUSH1 0x20 MUL PUSH1 0x20 ADD ADD MLOAD PUSH1 0x40 MLOAD PUSH1 0x24 ADD PUSH2 0x1DB0 SWAP4 SWAP3 SWAP2 SWAP1 PUSH2 0xA232 JUMP JUMPDEST PUSH1 0x40 DUP1 MLOAD PUSH1 0x1F NOT DUP2 DUP5 SUB ADD DUP2 MSTORE SWAP2 DUP2 MSTORE PUSH1 0x20 DUP3 ADD DUP1 MLOAD PUSH1 0x1 PUSH1 0x1 PUSH1 0xE0 SHL SUB AND PUSH1 0x1 PUSH1 0x1 PUSH1 0xE0 SHL SUB NOT SWAP1 SWAP5 AND SWAP4 SWAP1 SWAP4 OR SWAP1 SWAP3 MSTORE SWAP1 MLOAD PUSH2 0x1DEE SWAP2 SWAP1 PUSH2 0x9C67 JUMP JUMPDEST PUSH1 0x0 PUSH1 0x40 MLOAD DUP1 DUP4 SUB DUP2 DUP7 DUP7 STATICCALL SWAP3 POP POP POP RETURNDATASIZE DUP1 PUSH1 0x0 DUP2 EQ PUSH2 0x1E2A JUMPI PUSH1 0x40 MLOAD SWAP2 POP PUSH1 0x1F NOT PUSH1 0x3F RETURNDATASIZE ADD AND DUP3 ADD PUSH1 0x40 MSTORE RETURNDATASIZE DUP3 MSTORE RETURNDATASIZE PUSH1 0x0 PUSH1 0x20 DUP5 ADD RETURNDATACOPY PUSH2 0x1E2F JUMP JUMPDEST PUSH1 0x60 SWAP2 POP JUMPDEST POP SWAP2 POP SWAP2 POP PUSH1 0x0 DUP3 ISZERO PUSH2 0x1E53 JUMPI DUP2 DUP1 PUSH1 0x20 ADD SWAP1 MLOAD DUP2 ADD SWAP1 PUSH2 0x1E50 SWAP2 SWAP1 PUSH2 0x93B1 JUMP JUMPDEST SWAP1 POP JUMPDEST DUP1 DUP7 DUP6 DUP2 MLOAD DUP2 LT PUSH2 0x1E60 JUMPI INVALID JUMPDEST PUSH1 0x20 MUL PUSH1 0x20 ADD ADD DUP2 DUP2 MSTORE POP POP DUP6 DUP5 DUP2 MLOAD DUP2 LT PUSH2 0x1E78 JUMPI INVALID JUMPDEST PUSH1 0x20 MUL PUSH1 0x20 ADD ADD MLOAD PUSH1 0x0 EQ ISZERO PUSH2 0x1E90 JUMPI POP POP POP PUSH2 0x1AFA JUMP JUMPDEST POP POP POP PUSH1 0x1 ADD PUSH2 0x1D65 JUMP JUMPDEST NUMBER SWAP1 JUMP JUMPDEST DUP1 MLOAD PUSH1 0x60 SWAP1 DUP2 SWAP1 DUP1 PUSH1 0x1 PUSH1 0x1 PUSH1 0x40 SHL SUB DUP2 GT DUP1 ISZERO PUSH2 0x1EBC JUMPI PUSH1 0x0 DUP1 REVERT JUMPDEST POP PUSH1 0x40 MLOAD SWAP1 DUP1 DUP3 MSTORE DUP1 PUSH1 0x20 MUL PUSH1 0x20 ADD DUP3 ADD PUSH1 0x40 MSTORE DUP1 ISZERO PUSH2 0x1EE6 JUMPI DUP2 PUSH1 0x20 ADD PUSH1 0x20 DUP3 MUL DUP1 CALLDATASIZE DUP4 CALLDATACOPY ADD SWAP1 POP JUMPDEST POP SWAP2 POP PUSH2 0x1EF3 DUP7 DUP7 PUSH2 0x5CC8 JUMP JUMPDEST SWAP3 POP DUP3 MLOAD PUSH1 0x0 EQ ISZERO PUSH2 0x1F05 JUMPI POP PUSH2 0xB90 JUMP JUMPDEST PUSH1 0x0 JUMPDEST DUP2 DUP2 LT ISZERO PUSH2 0xB8D JUMPI DUP7 PUSH1 0x1 PUSH1 0x1 PUSH1 0xA0 SHL SUB AND PUSH4 0x9E269B68 PUSH3 0x249F0 DUP8 DUP5 DUP2 MLOAD DUP2 LT PUSH2 0x1F2F JUMPI INVALID JUMPDEST PUSH1 0x20 MUL PUSH1 0x20 ADD ADD MLOAD DUP8 DUP11 PUSH1 0x40 MLOAD DUP6 PUSH4 0xFFFFFFFF AND PUSH1 0xE0 SHL DUP2 MSTORE PUSH1 0x4 ADD PUSH2 0x1F57 SWAP4 SWAP3 SWAP2 SWAP1 PUSH2 0xA47A JUMP JUMPDEST PUSH1 0x0 PUSH1 0x40 MLOAD DUP1 DUP4 SUB DUP2 DUP8 DUP1 EXTCODESIZE ISZERO DUP1 ISZERO PUSH2 0x1F6F JUMPI PUSH1 0x0 DUP1 REVERT JUMPDEST POP DUP7 STATICCALL SWAP4 POP POP POP POP DUP1 ISZERO PUSH2 0x1FA5 JUMPI POP PUSH1 0x40 MLOAD RETURNDATASIZE PUSH1 0x0 DUP3 RETURNDATACOPY PUSH1 0x1F RETURNDATASIZE SWAP1 DUP2 ADD PUSH1 0x1F NOT AND DUP3 ADD PUSH1 0x40 MSTORE PUSH2 0x1FA2 SWAP2 SWAP1 DUP2 ADD SWAP1 PUSH2 0x9363 JUMP JUMPDEST PUSH1 0x1 JUMPDEST PUSH2 0x1FD3 JUMPI RETURNDATASIZE DUP1 DUP1 ISZERO PUSH2 0xB26 JUMPI PUSH1 0x40 MLOAD SWAP2 POP PUSH1 0x1F NOT PUSH1 0x3F RETURNDATASIZE ADD AND DUP3 ADD PUSH1 0x40 MSTORE RETURNDATASIZE DUP3 MSTORE RETURNDATASIZE PUSH1 0x0 PUSH1 0x20 DUP5 ADD RETURNDATACOPY PUSH2 0xB2B JUMP JUMPDEST DUP1 PUSH1 0x0 DUP2 MLOAD DUP2 LT PUSH2 0x1FE0 JUMPI INVALID JUMPDEST PUSH1 0x20 MUL PUSH1 0x20 ADD ADD MLOAD DUP5 DUP4 DUP2 MLOAD DUP2 LT PUSH2 0x1FF4 JUMPI INVALID JUMPDEST PUSH1 0x20 MUL PUSH1 0x20 ADD ADD DUP2 DUP2 MSTORE POP POP DUP4 DUP3 DUP2 MLOAD DUP2 LT PUSH2 0x200C JUMPI INVALID JUMPDEST PUSH1 0x20 MUL PUSH1 0x20 ADD ADD MLOAD PUSH1 0x0 EQ ISZERO PUSH2 0x2022 JUMPI POP PUSH2 0xB8D JUMP JUMPDEST POP PUSH1 0x1 ADD PUSH2 0x1F08 JUMP JUMPDEST PUSH1 0x20 DUP5 DUP2 ADD MLOAD PUSH1 0x40 DUP1 MLOAD PUSH1 0x1 DUP1 DUP3 MSTORE DUP2 DUP4 ADD SWAP1 SWAP3 MSTORE PUSH1 0x60 SWAP4 DUP5 SWAP3 SWAP1 DUP3 DUP2 ADD SWAP1 DUP1 CALLDATASIZE DUP4 CALLDATACOPY ADD SWAP1 POP POP SWAP1 POP DUP6 DUP2 PUSH1 0x0 DUP2 MLOAD DUP2 LT PUSH2 0x2062 JUMPI INVALID JUMPDEST PUSH1 0x20 SWAP1 DUP2 MUL SWAP2 SWAP1 SWAP2 ADD ADD MSTORE PUSH1 0x60 PUSH1 0x0 PUSH1 0x40 MLOAD SWAP1 DUP1 DUP3 MSTORE DUP1 PUSH1 0x20 MUL PUSH1 0x20 ADD DUP3 ADD PUSH1 0x40 MSTORE DUP1 ISZERO PUSH2 0x209A JUMPI DUP2 PUSH1 0x20 ADD PUSH1 0x20 DUP3 MUL DUP1 CALLDATASIZE DUP4 CALLDATACOPY ADD SWAP1 POP JUMPDEST POP SWAP1 POP DUP8 PUSH1 0x60 ADD MLOAD PUSH1 0x1 PUSH1 0x1 PUSH1 0xA0 SHL SUB AND DUP7 PUSH1 0x1 PUSH1 0x1 PUSH1 0xA0 SHL SUB AND EQ ISZERO PUSH2 0x218B JUMPI PUSH1 0x40 MLOAD PUSH4 0x81EFCBDD PUSH1 0xE0 SHL DUP2 MSTORE PUSH1 0x1 PUSH1 0x1 PUSH1 0xA0 SHL SUB DUP5 AND SWAP1 PUSH4 0x81EFCBDD SWAP1 PUSH3 0x7A120 SWAP1 PUSH2 0x20F3 SWAP1 DUP10 SWAP1 PUSH1 0x1 SWAP1 DUP9 SWAP1 DUP9 SWAP1 PUSH1 0x4 ADD PUSH2 0x9E4A JUMP JUMPDEST PUSH1 0x0 PUSH1 0x40 MLOAD DUP1 DUP4 SUB DUP2 DUP8 DUP1 EXTCODESIZE ISZERO DUP1 ISZERO PUSH2 0x210B JUMPI PUSH1 0x0 DUP1 REVERT JUMPDEST POP DUP7 STATICCALL SWAP4 POP POP POP POP DUP1 ISZERO PUSH2 0x2141 JUMPI POP PUSH1 0x40 MLOAD RETURNDATASIZE PUSH1 0x0 DUP3 RETURNDATACOPY PUSH1 0x1F RETURNDATASIZE SWAP1 DUP2 ADD PUSH1 0x1F NOT AND DUP3 ADD PUSH1 0x40 MSTORE PUSH2 0x213E SWAP2 SWAP1 DUP2 ADD SWAP1 PUSH2 0x93C9 JUMP JUMPDEST PUSH1 0x1 JUMPDEST PUSH2 0x217B JUMPI RETURNDATASIZE DUP1 DUP1 ISZERO PUSH2 0x216F JUMPI PUSH1 0x40 MLOAD SWAP2 POP PUSH1 0x1F NOT PUSH1 0x3F RETURNDATASIZE ADD AND DUP3 ADD PUSH1 0x40 MSTORE RETURNDATASIZE DUP3 MSTORE RETURNDATASIZE PUSH1 0x0 PUSH1 0x20 DUP5 ADD RETURNDATACOPY PUSH2 0x2174 JUMP JUMPDEST PUSH1 0x60 SWAP2 POP JUMPDEST POP POP PUSH2 0x2186 JUMP JUMPDEST SWAP4 POP PUSH2 0x14B3 SWAP3 POP POP POP JUMP JUMPDEST PUSH2 0x9E7 JUMP JUMPDEST DUP8 PUSH1 0x60 ADD MLOAD PUSH1 0x1 PUSH1 0x1 PUSH1 0xA0 SHL SUB AND DUP6 PUSH1 0x1 PUSH1 0x1 PUSH1 0xA0 SHL SUB AND EQ ISZERO PUSH2 0x21E1 JUMPI PUSH1 0x40 MLOAD PUSH4 0x61E597F9 PUSH1 0xE0 SHL DUP2 MSTORE PUSH1 0x1 PUSH1 0x1 PUSH1 0xA0 SHL SUB DUP5 AND SWAP1 PUSH4 0x61E597F9 SWAP1 PUSH3 0x7A120 SWAP1 PUSH2 0x20F3 SWAP1 DUP11 SWAP1 PUSH1 0x1 SWAP1 DUP9 SWAP1 DUP9 SWAP1 PUSH1 0x4 ADD PUSH2 0x9E4A JUMP JUMPDEST PUSH1 0x40 MLOAD PUSH4 0x2B9A6CD PUSH1 0xE1 SHL DUP2 MSTORE PUSH1 0x1 PUSH1 0x1 PUSH1 0xA0 SHL SUB DUP5 AND SWAP1 PUSH4 0x5734D9A SWAP1 PUSH3 0x7A120 SWAP1 PUSH2 0x2221 SWAP1 DUP11 SWAP1 PUSH1 0x1 SWAP1 DUP9 SWAP1 DUP9 SWAP1 DUP14 SWAP1 DUP5 SWAP1 DUP5 SWAP1 DUP5 SWAP1 PUSH1 0x4 ADD PUSH2 0x9E8D JUMP JUMPDEST PUSH1 0x0 PUSH1 0x40 MLOAD DUP1 DUP4 SUB DUP2 DUP8 DUP1 EXTCODESIZE ISZERO DUP1 ISZERO PUSH2 0x2239 JUMPI PUSH1 0x0 DUP1 REVERT JUMPDEST POP DUP7 STATICCALL SWAP4 POP POP POP POP DUP1 ISZERO PUSH2 0x226F JUMPI POP PUSH1 0x40 MLOAD RETURNDATASIZE PUSH1 0x0 DUP3 RETURNDATACOPY PUSH1 0x1F RETURNDATASIZE SWAP1 DUP2 ADD PUSH1 0x1F NOT AND DUP3 ADD PUSH1 0x40 MSTORE PUSH2 0x226C SWAP2 SWAP1 DUP2 ADD SWAP1 PUSH2 0x93C9 JUMP JUMPDEST PUSH1 0x1 JUMPDEST PUSH2 0x217B JUMPI RETURNDATASIZE DUP1 DUP1 ISZERO PUSH2 0x229D JUMPI PUSH1 0x40 MLOAD SWAP2 POP PUSH1 0x1F NOT PUSH1 0x3F RETURNDATASIZE ADD AND DUP3 ADD PUSH1 0x40 MSTORE RETURNDATASIZE DUP3 MSTORE RETURNDATASIZE PUSH1 0x0 PUSH1 0x20 DUP5 ADD RETURNDATACOPY PUSH2 0x22A2 JUMP JUMPDEST PUSH1 0x60 SWAP2 POP JUMPDEST POP POP PUSH2 0x9E7 JUMP JUMPDEST PUSH1 0x0 GAS SWAP1 POP SWAP1 JUMP JUMPDEST PUSH1 0x60 DUP1 PUSH1 0x60 PUSH2 0x2332 DUP7 PUSH1 0x1 PUSH1 0x1 PUSH1 0xA0 SHL SUB AND PUSH4 0xC45A0155 PUSH1 0x40 MLOAD DUP2 PUSH4 0xFFFFFFFF AND PUSH1 0xE0 SHL DUP2 MSTORE PUSH1 0x4 ADD PUSH1 0x20 PUSH1 0x40 MLOAD DUP1 DUP4 SUB DUP2 DUP7 DUP1 EXTCODESIZE ISZERO DUP1 ISZERO PUSH2 0x22F2 JUMPI PUSH1 0x0 DUP1 REVERT JUMPDEST POP GAS STATICCALL ISZERO DUP1 ISZERO PUSH2 0x2306 JUMPI RETURNDATASIZE PUSH1 0x0 DUP1 RETURNDATACOPY RETURNDATASIZE PUSH1 0x0 REVERT JUMPDEST POP POP POP POP PUSH1 0x40 MLOAD RETURNDATASIZE PUSH1 0x1F NOT PUSH1 0x1F DUP3 ADD AND DUP3 ADD DUP1 PUSH1 0x40 MSTORE POP DUP2 ADD SWAP1 PUSH2 0x232A SWAP2 SWAP1 PUSH2 0x8B54 JUMP JUMPDEST DUP7 PUSH1 0x0 PUSH2 0x6B8B JUMP JUMPDEST SWAP1 POP DUP4 MLOAD PUSH1 0x1 PUSH1 0x1 PUSH1 0x40 SHL SUB DUP2 GT DUP1 ISZERO PUSH2 0x234B JUMPI PUSH1 0x0 DUP1 REVERT JUMPDEST POP PUSH1 0x40 MLOAD SWAP1 DUP1 DUP3 MSTORE DUP1 PUSH1 0x20 MUL PUSH1 0x20 ADD DUP3 ADD PUSH1 0x40 MSTORE DUP1 ISZERO PUSH2 0x2375 JUMPI DUP2 PUSH1 0x20 ADD PUSH1 0x20 DUP3 MUL DUP1 CALLDATASIZE DUP4 CALLDATACOPY ADD SWAP1 POP JUMPDEST POP SWAP2 POP DUP4 MLOAD PUSH1 0x1 PUSH1 0x1 PUSH1 0x40 SHL SUB DUP2 GT DUP1 ISZERO PUSH2 0x238F JUMPI PUSH1 0x0 DUP1 REVERT JUMPDEST POP PUSH1 0x40 MLOAD SWAP1 DUP1 DUP3 MSTORE DUP1 PUSH1 0x20 MUL PUSH1 0x20 ADD DUP3 ADD PUSH1 0x40 MSTORE DUP1 ISZERO PUSH2 0x23C3 JUMPI DUP2 PUSH1 0x20 ADD JUMPDEST PUSH1 0x60 DUP2 MSTORE PUSH1 0x20 ADD SWAP1 PUSH1 0x1 SWAP1 SUB SWAP1 DUP2 PUSH2 0x23AE JUMPI SWAP1 POP JUMPDEST POP SWAP3 POP PUSH1 0x0 JUMPDEST DUP5 MLOAD DUP2 LT ISZERO PUSH2 0xB8D JUMPI PUSH1 0x60 PUSH1 0x0 DUP1 JUMPDEST DUP5 MLOAD DUP2 LT ISZERO PUSH2 0x24B4 JUMPI PUSH1 0x60 PUSH2 0x2400 DUP11 DUP8 DUP5 DUP2 MLOAD DUP2 LT PUSH2 0x23F3 JUMPI INVALID JUMPDEST PUSH1 0x20 MUL PUSH1 0x20 ADD ADD MLOAD PUSH2 0x702B JUMP JUMPDEST SWAP1 POP DUP11 PUSH1 0x1 PUSH1 0x1 PUSH1 0xA0 SHL SUB AND PUSH4 0xCDCA1753 PUSH3 0x927C0 DUP4 DUP13 DUP10 DUP2 MLOAD DUP2 LT PUSH2 0x2422 JUMPI INVALID JUMPDEST PUSH1 0x20 MUL PUSH1 0x20 ADD ADD MLOAD PUSH1 0x40 MLOAD DUP5 PUSH4 0xFFFFFFFF AND PUSH1 0xE0 SHL DUP2 MSTORE PUSH1 0x4 ADD PUSH2 0x2447 SWAP3 SWAP2 SWAP1 PUSH2 0xA0EB JUMP JUMPDEST PUSH1 0x20 PUSH1 0x40 MLOAD DUP1 DUP4 SUB DUP2 PUSH1 0x0 DUP9 DUP1 EXTCODESIZE ISZERO DUP1 ISZERO PUSH2 0x2461 JUMPI PUSH1 0x0 DUP1 REVERT JUMPDEST POP DUP8 CALL SWAP4 POP POP POP POP DUP1 ISZERO PUSH2 0x2492 JUMPI POP PUSH1 0x40 DUP1 MLOAD PUSH1 0x1F RETURNDATASIZE SWAP1 DUP2 ADD PUSH1 0x1F NOT AND DUP3 ADD SWAP1 SWAP3 MSTORE PUSH2 0x248F SWAP2 DUP2 ADD SWAP1 PUSH2 0x93B1 JUMP JUMPDEST PUSH1 0x1 JUMPDEST PUSH2 0x249B JUMPI PUSH2 0x24AB JUMP JUMPDEST DUP1 DUP5 GT PUSH2 0x24A9 JUMPI DUP1 SWAP4 POP DUP2 SWAP5 POP JUMPDEST POP JUMPDEST POP PUSH1 0x1 ADD PUSH2 0x23D8 JUMP JUMPDEST POP DUP1 PUSH2 0x24C1 JUMPI POP POP PUSH2 0xB8D JUMP JUMPDEST DUP1 DUP6 DUP5 DUP2 MLOAD DUP2 LT PUSH2 0x24CE JUMPI INVALID JUMPDEST PUSH1 0x20 MUL PUSH1 0x20 ADD ADD DUP2 DUP2 MSTORE POP POP DUP2 DUP7 DUP5 DUP2 MLOAD DUP2 LT PUSH2 0x24E7 JUMPI INVALID JUMPDEST PUSH1 0x20 SWAP1 DUP2 MUL SWAP2 SWAP1 SWAP2 ADD ADD MSTORE POP POP PUSH1 0x1 ADD PUSH2 0x23C9 JUMP JUMPDEST DUP1 MLOAD PUSH1 0x60 SWAP1 DUP6 SWAP1 DUP1 PUSH1 0x1 PUSH1 0x1 PUSH1 0x40 SHL SUB DUP2 GT DUP1 ISZERO PUSH2 0x2519 JUMPI PUSH1 0x0 DUP1 REVERT JUMPDEST POP PUSH1 0x40 MLOAD SWAP1 DUP1 DUP3 MSTORE DUP1 PUSH1 0x20 MUL PUSH1 0x20 ADD DUP3 ADD PUSH1 0x40 MSTORE DUP1 ISZERO PUSH2 0x2543 JUMPI DUP2 PUSH1 0x20 ADD PUSH1 0x20 DUP3 MUL DUP1 CALLDATASIZE DUP4 CALLDATACOPY ADD SWAP1 POP JUMPDEST POP PUSH1 0x40 MLOAD PUSH4 0xBCDED89 PUSH1 0xE2 SHL DUP2 MSTORE SWAP1 SWAP4 POP PUSH1 0x1 PUSH1 0x1 PUSH1 0xA0 SHL SUB DUP4 AND SWAP1 PUSH4 0x2F37B624 SWAP1 PUSH2 0x2573 SWAP1 DUP10 SWAP1 PUSH1 0x4 ADD PUSH2 0x9C83 JUMP JUMPDEST PUSH1 0x20 PUSH1 0x40 MLOAD DUP1 DUP4 SUB DUP2 DUP7 DUP1 EXTCODESIZE ISZERO DUP1 ISZERO PUSH2 0x258B JUMPI PUSH1 0x0 DUP1 REVERT JUMPDEST POP GAS STATICCALL ISZERO DUP1 ISZERO PUSH2 0x259F JUMPI RETURNDATASIZE PUSH1 0x0 DUP1 RETURNDATACOPY RETURNDATASIZE PUSH1 0x0 REVERT JUMPDEST POP POP POP POP PUSH1 0x40 MLOAD RETURNDATASIZE PUSH1 0x1F NOT PUSH1 0x1F DUP3 ADD AND DUP3 ADD DUP1 PUSH1 0x40 MSTORE POP DUP2 ADD SWAP1 PUSH2 0x25C3 SWAP2 SWAP1 PUSH2 0x9395 JUMP JUMPDEST ISZERO DUP1 PUSH2 0x2648 JUMPI POP PUSH1 0x40 MLOAD PUSH4 0xBCDED89 PUSH1 0xE2 SHL DUP2 MSTORE PUSH1 0x1 PUSH1 0x1 PUSH1 0xA0 SHL SUB DUP4 AND SWAP1 PUSH4 0x2F37B624 SWAP1 PUSH2 0x25F6 SWAP1 DUP9 SWAP1 PUSH1 0x4 ADD PUSH2 0x9C83 JUMP JUMPDEST PUSH1 0x20 PUSH1 0x40 MLOAD DUP1 DUP4 SUB DUP2 DUP7 DUP1 EXTCODESIZE ISZERO DUP1 ISZERO PUSH2 0x260E JUMPI PUSH1 0x0 DUP1 REVERT JUMPDEST POP GAS STATICCALL ISZERO DUP1 ISZERO PUSH2 0x2622 JUMPI RETURNDATASIZE PUSH1 0x0 DUP1 RETURNDATACOPY RETURNDATASIZE PUSH1 0x0 REVERT JUMPDEST POP POP POP POP PUSH1 0x40 MLOAD RETURNDATASIZE PUSH1 0x1F NOT PUSH1 0x1F DUP3 ADD AND DUP3 ADD DUP1 PUSH1 0x40 MSTORE POP DUP2 ADD SWAP1 PUSH2 0x2646 SWAP2 SWAP1 PUSH2 0x9395 JUMP JUMPDEST ISZERO JUMPDEST ISZERO PUSH2 0x2654 JUMPI POP POP PUSH2 0x14B3 JUMP JUMPDEST PUSH2 0x265C PUSH2 0x83B4 JUMP JUMPDEST PUSH1 0x40 MLOAD PUSH4 0xF8B2CB4F PUSH1 0xE0 SHL DUP2 MSTORE PUSH1 0x1 PUSH1 0x1 PUSH1 0xA0 SHL SUB DUP5 AND SWAP1 PUSH4 0xF8B2CB4F SWAP1 PUSH2 0x2688 SWAP1 DUP11 SWAP1 PUSH1 0x4 ADD PUSH2 0x9C83 JUMP JUMPDEST PUSH1 0x20 PUSH1 0x40 MLOAD DUP1 DUP4 SUB DUP2 DUP7 DUP1 EXTCODESIZE ISZERO DUP1 ISZERO PUSH2 0x26A0 JUMPI PUSH1 0x0 DUP1 REVERT JUMPDEST POP GAS STATICCALL ISZERO DUP1 ISZERO PUSH2 0x26B4 JUMPI RETURNDATASIZE PUSH1 0x0 DUP1 RETURNDATACOPY RETURNDATASIZE PUSH1 0x0 REVERT JUMPDEST POP POP POP POP PUSH1 0x40 MLOAD RETURNDATASIZE PUSH1 0x1F NOT PUSH1 0x1F DUP3 ADD AND DUP3 ADD DUP1 PUSH1 0x40 MSTORE POP DUP2 ADD SWAP1 PUSH2 0x26D8 SWAP2 SWAP1 PUSH2 0x93B1 JUMP JUMPDEST DUP2 MSTORE PUSH1 0x40 MLOAD PUSH4 0xF8B2CB4F PUSH1 0xE0 SHL DUP2 MSTORE PUSH1 0x1 PUSH1 0x1 PUSH1 0xA0 SHL SUB DUP5 AND SWAP1 PUSH4 0xF8B2CB4F SWAP1 PUSH2 0x2706 SWAP1 DUP10 SWAP1 PUSH1 0x4 ADD PUSH2 0x9C83 JUMP JUMPDEST PUSH1 0x20 PUSH1 0x40 MLOAD DUP1 DUP4 SUB DUP2 DUP7 DUP1 EXTCODESIZE ISZERO DUP1 ISZERO PUSH2 0x271E JUMPI PUSH1 0x0 DUP1 REVERT JUMPDEST POP GAS STATICCALL ISZERO DUP1 ISZERO PUSH2 0x2732 JUMPI RETURNDATASIZE PUSH1 0x0 DUP1 RETURNDATACOPY RETURNDATASIZE PUSH1 0x0 REVERT JUMPDEST POP POP POP POP PUSH1 0x40 MLOAD RETURNDATASIZE PUSH1 0x1F NOT PUSH1 0x1F DUP3 ADD AND DUP3 ADD DUP1 PUSH1 0x40 MSTORE POP DUP2 ADD SWAP1 PUSH2 0x2756 SWAP2 SWAP1 PUSH2 0x93B1 JUMP JUMPDEST PUSH1 0x20 DUP3 ADD MSTORE PUSH1 0x40 MLOAD PUSH4 0x4A46C673 PUSH1 0xE1 SHL DUP2 MSTORE PUSH1 0x1 PUSH1 0x1 PUSH1 0xA0 SHL SUB DUP5 AND SWAP1 PUSH4 0x948D8CE6 SWAP1 PUSH2 0x2787 SWAP1 DUP11 SWAP1 PUSH1 0x4 ADD PUSH2 0x9C83 JUMP JUMPDEST PUSH1 0x20 PUSH1 0x40 MLOAD DUP1 DUP4 SUB DUP2 DUP7 DUP1 EXTCODESIZE ISZERO DUP1 ISZERO PUSH2 0x279F JUMPI PUSH1 0x0 DUP1 REVERT JUMPDEST POP GAS STATICCALL ISZERO DUP1 ISZERO PUSH2 0x27B3 JUMPI RETURNDATASIZE PUSH1 0x0 DUP1 RETURNDATACOPY RETURNDATASIZE PUSH1 0x0 REVERT JUMPDEST POP POP POP POP PUSH1 0x40 MLOAD RETURNDATASIZE PUSH1 0x1F NOT PUSH1 0x1F DUP3 ADD AND DUP3 ADD DUP1 PUSH1 0x40 MSTORE POP DUP2 ADD SWAP1 PUSH2 0x27D7 SWAP2 SWAP1 PUSH2 0x93B1 JUMP JUMPDEST PUSH1 0x40 DUP1 DUP4 ADD SWAP2 SWAP1 SWAP2 MSTORE MLOAD PUSH4 0x4A46C673 PUSH1 0xE1 SHL DUP2 MSTORE PUSH1 0x1 PUSH1 0x1 PUSH1 0xA0 SHL SUB DUP5 AND SWAP1 PUSH4 0x948D8CE6 SWAP1 PUSH2 0x280A SWAP1 DUP10 SWAP1 PUSH1 0x4 ADD PUSH2 0x9C83 JUMP JUMPDEST PUSH1 0x20 PUSH1 0x40 MLOAD DUP1 DUP4 SUB DUP2 DUP7 DUP1 EXTCODESIZE ISZERO DUP1 ISZERO PUSH2 0x2822 JUMPI PUSH1 0x0 DUP1 REVERT JUMPDEST POP GAS STATICCALL ISZERO DUP1 ISZERO PUSH2 0x2836 JUMPI RETURNDATASIZE PUSH1 0x0 DUP1 RETURNDATACOPY RETURNDATASIZE PUSH1 0x0 REVERT JUMPDEST POP POP POP POP PUSH1 0x40 MLOAD RETURNDATASIZE PUSH1 0x1F NOT PUSH1 0x1F DUP3 ADD AND DUP3 ADD DUP1 PUSH1 0x40 MSTORE POP DUP2 ADD SWAP1 PUSH2 0x285A SWAP2 SWAP1 PUSH2 0x93B1 JUMP JUMPDEST DUP2 PUSH1 0x60 ADD DUP2 DUP2 MSTORE POP POP DUP3 PUSH1 0x1 PUSH1 0x1 PUSH1 0xA0 SHL SUB AND PUSH4 0xD4CADF68 PUSH1 0x40 MLOAD DUP2 PUSH4 0xFFFFFFFF AND PUSH1 0xE0 SHL DUP2 MSTORE PUSH1 0x4 ADD PUSH1 0x20 PUSH1 0x40 MLOAD DUP1 DUP4 SUB DUP2 DUP7 DUP1 EXTCODESIZE ISZERO DUP1 ISZERO PUSH2 0x289C JUMPI PUSH1 0x0 DUP1 REVERT JUMPDEST POP GAS STATICCALL ISZERO DUP1 ISZERO PUSH2 0x28B0 JUMPI RETURNDATASIZE PUSH1 0x0 DUP1 RETURNDATACOPY RETURNDATASIZE PUSH1 0x0 REVERT JUMPDEST POP POP POP POP PUSH1 0x40 MLOAD RETURNDATASIZE PUSH1 0x1F NOT PUSH1 0x1F DUP3 ADD AND DUP3 ADD DUP1 PUSH1 0x40 MSTORE POP DUP2 ADD SWAP1 PUSH2 0x28D4 SWAP2 SWAP1 PUSH2 0x93B1 JUMP JUMPDEST PUSH1 0x80 DUP3 ADD MSTORE PUSH1 0x0 JUMPDEST DUP3 DUP2 LT ISZERO PUSH2 0x9E5 JUMPI PUSH2 0x2907 DUP3 PUSH1 0x20 ADD MLOAD PUSH1 0x3 PUSH8 0xDE0B6B3A7640000 DUP2 PUSH2 0x28FE JUMPI INVALID JUMPDEST DIV PUSH1 0x1 ADD PUSH2 0x7186 JUMP JUMPDEST DUP7 DUP3 DUP2 MLOAD DUP2 LT PUSH2 0x2913 JUMPI INVALID JUMPDEST PUSH1 0x20 MUL PUSH1 0x20 ADD ADD MLOAD GT ISZERO PUSH2 0x2926 JUMPI PUSH2 0x9E5 JUMP JUMPDEST DUP4 PUSH1 0x1 PUSH1 0x1 PUSH1 0xA0 SHL SUB AND PUSH4 0xF8D6AED4 PUSH3 0x493E0 DUP5 PUSH1 0x0 ADD MLOAD DUP6 PUSH1 0x40 ADD MLOAD DUP7 PUSH1 0x20 ADD MLOAD DUP8 PUSH1 0x60 ADD MLOAD DUP13 DUP9 DUP2 MLOAD DUP2 LT PUSH2 0x2959 JUMPI INVALID JUMPDEST PUSH1 0x20 MUL PUSH1 0x20 ADD ADD MLOAD DUP10 PUSH1 0x80 ADD MLOAD PUSH1 0x40 MLOAD DUP9 PUSH4 0xFFFFFFFF AND PUSH1 0xE0 SHL DUP2 MSTORE PUSH1 0x4 ADD PUSH2 0x2987 SWAP7 SWAP6 SWAP5 SWAP4 SWAP3 SWAP2 SWAP1 PUSH2 0xA4A5 JUMP JUMPDEST PUSH1 0x20 PUSH1 0x40 MLOAD DUP1 DUP4 SUB DUP2 DUP8 DUP1 EXTCODESIZE ISZERO DUP1 ISZERO PUSH2 0x299F JUMPI PUSH1 0x0 DUP1 REVERT JUMPDEST POP DUP7 STATICCALL SWAP4 POP POP POP POP DUP1 ISZERO PUSH2 0x29D0 JUMPI POP PUSH1 0x40 DUP1 MLOAD PUSH1 0x1F RETURNDATASIZE SWAP1 DUP2 ADD PUSH1 0x1F NOT AND DUP3 ADD SWAP1 SWAP3 MSTORE PUSH2 0x29CD SWAP2 DUP2 ADD SWAP1 PUSH2 0x93B1 JUMP JUMPDEST PUSH1 0x1 JUMPDEST PUSH2 0x2A0A JUMPI RETURNDATASIZE DUP1 DUP1 ISZERO PUSH2 0x29FE JUMPI PUSH1 0x40 MLOAD SWAP2 POP PUSH1 0x1F NOT PUSH1 0x3F RETURNDATASIZE ADD AND DUP3 ADD PUSH1 0x40 MSTORE RETURNDATASIZE DUP3 MSTORE RETURNDATASIZE PUSH1 0x0 PUSH1 0x20 DUP5 ADD RETURNDATACOPY PUSH2 0x2A03 JUMP JUMPDEST PUSH1 0x60 SWAP2 POP JUMPDEST POP POP PUSH2 0x9E5 JUMP JUMPDEST DUP3 MLOAD PUSH2 0x2A22 SWAP1 PUSH1 0x2 PUSH8 0xDE0B6B3A7640000 JUMPDEST DIV PUSH2 0x7186 JUMP JUMPDEST DUP2 GT ISZERO PUSH2 0x2A2F JUMPI POP PUSH2 0x9E5 JUMP JUMPDEST DUP1 DUP7 DUP4 DUP2 MLOAD DUP2 LT PUSH2 0x2A3C JUMPI INVALID JUMPDEST PUSH1 0x20 MUL PUSH1 0x20 ADD ADD DUP2 DUP2 MSTORE POP POP DUP6 DUP3 DUP2 MLOAD DUP2 LT PUSH2 0x2A54 JUMPI INVALID JUMPDEST PUSH1 0x20 MUL PUSH1 0x20 ADD ADD MLOAD PUSH1 0x0 EQ ISZERO PUSH2 0x2A6A JUMPI POP PUSH2 0x9E5 JUMP JUMPDEST POP PUSH1 0x1 ADD PUSH2 0x28DC JUMP JUMPDEST PUSH1 0x60 DUP1 PUSH1 0x60 PUSH2 0x2AB4 DUP7 PUSH1 0x1 PUSH1 0x1 PUSH1 0xA0 SHL SUB AND PUSH4 0xC45A0155 PUSH1 0x40 MLOAD DUP2 PUSH4 0xFFFFFFFF AND PUSH1 0xE0 SHL DUP2 MSTORE PUSH1 0x4 ADD PUSH1 0x20 PUSH1 0x40 MLOAD DUP1 DUP4 SUB DUP2 DUP7 DUP1 EXTCODESIZE ISZERO DUP1 ISZERO PUSH2 0x22F2 JUMPI PUSH1 0x0 DUP1 REVERT JUMPDEST SWAP1 POP PUSH1 0x60 PUSH2 0x2AC1 DUP7 PUSH2 0x71E3 JUMP JUMPDEST SWAP1 POP DUP5 MLOAD PUSH1 0x1 PUSH1 0x1 PUSH1 0x40 SHL SUB DUP2 GT DUP1 ISZERO PUSH2 0x2ADA JUMPI PUSH1 0x0 DUP1 REVERT JUMPDEST POP PUSH1 0x40 MLOAD SWAP1 DUP1 DUP3 MSTORE DUP1 PUSH1 0x20 MUL PUSH1 0x20 ADD DUP3 ADD PUSH1 0x40 MSTORE DUP1 ISZERO PUSH2 0x2B04 JUMPI DUP2 PUSH1 0x20 ADD PUSH1 0x20 DUP3 MUL DUP1 CALLDATASIZE DUP4 CALLDATACOPY ADD SWAP1 POP JUMPDEST POP SWAP3 POP DUP5 MLOAD PUSH1 0x1 PUSH1 0x1 PUSH1 0x40 SHL SUB DUP2 GT DUP1 ISZERO PUSH2 0x2B1E JUMPI PUSH1 0x0 DUP1 REVERT JUMPDEST POP PUSH1 0x40 MLOAD SWAP1 DUP1 DUP3 MSTORE DUP1 PUSH1 0x20 MUL PUSH1 0x20 ADD DUP3 ADD PUSH1 0x40 MSTORE DUP1 ISZERO PUSH2 0x2B52 JUMPI DUP2 PUSH1 0x20 ADD JUMPDEST PUSH1 0x60 DUP2 MSTORE PUSH1 0x20 ADD SWAP1 PUSH1 0x1 SWAP1 SUB SWAP1 DUP2 PUSH2 0x2B3D JUMPI SWAP1 POP JUMPDEST POP SWAP4 POP PUSH1 0x0 JUMPDEST DUP6 MLOAD DUP2 LT ISZERO PUSH2 0x2CAD JUMPI PUSH1 0x60 PUSH1 0x0 DUP1 JUMPDEST DUP6 MLOAD DUP2 LT ISZERO PUSH2 0x2C65 JUMPI PUSH1 0x60 PUSH2 0x2B97 DUP7 PUSH2 0x2B92 DUP10 DUP6 DUP2 MLOAD DUP2 LT PUSH2 0x2B85 JUMPI INVALID JUMPDEST PUSH1 0x20 MUL PUSH1 0x20 ADD ADD MLOAD PUSH2 0x727B JUMP JUMPDEST PUSH2 0x702B JUMP JUMPDEST SWAP1 POP DUP12 PUSH1 0x1 PUSH1 0x1 PUSH1 0xA0 SHL SUB AND PUSH4 0x2F80BB1D PUSH3 0x927C0 DUP4 DUP14 DUP10 DUP2 MLOAD DUP2 LT PUSH2 0x2BB9 JUMPI INVALID JUMPDEST PUSH1 0x20 MUL PUSH1 0x20 ADD ADD MLOAD PUSH1 0x40 MLOAD DUP5 PUSH4 0xFFFFFFFF AND PUSH1 0xE0 SHL DUP2 MSTORE PUSH1 0x4 ADD PUSH2 0x2BDE SWAP3 SWAP2 SWAP1 PUSH2 0xA0EB JUMP JUMPDEST PUSH1 0x20 PUSH1 0x40 MLOAD DUP1 DUP4 SUB DUP2 PUSH1 0x0 DUP9 DUP1 EXTCODESIZE ISZERO DUP1 ISZERO PUSH2 0x2BF8 JUMPI PUSH1 0x0 DUP1 REVERT JUMPDEST POP DUP8 CALL SWAP4 POP POP POP POP DUP1 ISZERO PUSH2 0x2C29 JUMPI POP PUSH1 0x40 DUP1 MLOAD PUSH1 0x1F RETURNDATASIZE SWAP1 DUP2 ADD PUSH1 0x1F NOT AND DUP3 ADD SWAP1 SWAP3 MSTORE PUSH2 0x2C26 SWAP2 DUP2 ADD SWAP1 PUSH2 0x93B1 JUMP JUMPDEST PUSH1 0x1 JUMPDEST PUSH2 0x2C32 JUMPI PUSH2 0x2C5C JUMP JUMPDEST DUP4 ISZERO DUP1 PUSH2 0x2C3F JUMPI POP DUP1 DUP5 LT ISZERO JUMPDEST ISZERO PUSH2 0x2C5A JUMPI DUP1 SWAP4 POP PUSH2 0x2C57 DUP13 DUP10 DUP6 DUP2 MLOAD DUP2 LT PUSH2 0x23F3 JUMPI INVALID JUMPDEST SWAP5 POP JUMPDEST POP JUMPDEST POP PUSH1 0x1 ADD PUSH2 0x2B67 JUMP JUMPDEST POP DUP1 PUSH2 0x2C72 JUMPI POP POP PUSH2 0x2CAD JUMP JUMPDEST DUP1 DUP7 DUP5 DUP2 MLOAD DUP2 LT PUSH2 0x2C7F JUMPI INVALID JUMPDEST PUSH1 0x20 MUL PUSH1 0x20 ADD ADD DUP2 DUP2 MSTORE POP POP DUP2 DUP8 DUP5 DUP2 MLOAD DUP2 LT PUSH2 0x2C98 JUMPI INVALID JUMPDEST PUSH1 0x20 SWAP1 DUP2 MUL SWAP2 SWAP1 SWAP2 ADD ADD MSTORE POP POP PUSH1 0x1 ADD PUSH2 0x2B58 JUMP JUMPDEST POP POP POP SWAP4 POP SWAP4 SWAP2 POP POP JUMP JUMPDEST PUSH1 0x40 DUP1 MLOAD PUSH1 0x60 DUP2 DUP2 ADD SWAP1 SWAP3 MSTORE PUSH2 0x1521 SWAP1 DUP1 PUSH2 0x2CD7 DUP7 DUP10 PUSH1 0x80 DUP5 ADD PUSH2 0x9CB0 JUMP JUMPDEST PUSH1 0x40 MLOAD PUSH1 0x20 DUP2 DUP4 SUB SUB DUP2 MSTORE SWAP1 PUSH1 0x40 MSTORE DUP2 MSTORE PUSH1 0x20 ADD DUP7 DUP9 PUSH1 0x40 MLOAD PUSH1 0x20 ADD PUSH2 0x2CFE SWAP3 SWAP2 SWAP1 PUSH2 0x9CB0 JUMP JUMPDEST PUSH1 0x40 MLOAD PUSH1 0x20 DUP2 DUP4 SUB SUB DUP2 MSTORE SWAP1 PUSH1 0x40 MSTORE DUP2 MSTORE PUSH1 0x20 ADD PUSH2 0x7313 DUP2 MSTORE POP DUP4 PUSH2 0x6840 JUMP JUMPDEST PUSH1 0x60 PUSH2 0x2D2B DUP5 DUP5 DUP5 PUSH2 0xB98 JUMP JUMPDEST SWAP1 POP PUSH1 0x0 JUMPDEST DUP5 MLOAD DUP2 LT ISZERO PUSH2 0xD03 JUMPI DUP2 DUP2 DUP2 MLOAD DUP2 LT PUSH2 0x2D45 JUMPI INVALID JUMPDEST PUSH1 0x20 MUL PUSH1 0x20 ADD ADD MLOAD PUSH1 0x0 EQ PUSH2 0x2DCB JUMPI PUSH2 0x2DB2 DUP3 DUP3 DUP2 MLOAD DUP2 LT PUSH2 0x2D63 JUMPI INVALID JUMPDEST PUSH1 0x20 MUL PUSH1 0x20 ADD ADD MLOAD DUP7 DUP4 DUP2 MLOAD DUP2 LT PUSH2 0x2D77 JUMPI INVALID JUMPDEST PUSH1 0x20 MUL PUSH1 0x20 ADD ADD MLOAD PUSH1 0x60 ADD MLOAD PUSH1 0x1 PUSH1 0x1 PUSH1 0x80 SHL SUB AND DUP8 DUP5 DUP2 MLOAD DUP2 LT PUSH2 0x2D98 JUMPI INVALID JUMPDEST PUSH1 0x20 MUL PUSH1 0x20 ADD ADD MLOAD PUSH1 0x40 ADD MLOAD PUSH1 0x1 PUSH1 0x1 PUSH1 0x80 SHL SUB AND PUSH2 0x7427 JUMP JUMPDEST DUP3 DUP3 DUP2 MLOAD DUP2 LT PUSH2 0x2DBE JUMPI INVALID JUMPDEST PUSH1 0x20 MUL PUSH1 0x20 ADD ADD DUP2 DUP2 MSTORE POP POP JUMPDEST PUSH1 0x1 ADD PUSH2 0x2D30 JUMP JUMPDEST PUSH1 0x60 DUP2 PUSH1 0x1 PUSH1 0x1 PUSH1 0x40 SHL SUB DUP2 GT DUP1 ISZERO PUSH2 0x2DEB JUMPI PUSH1 0x0 DUP1 REVERT JUMPDEST POP PUSH1 0x40 MLOAD SWAP1 DUP1 DUP3 MSTORE DUP1 PUSH1 0x20 MUL PUSH1 0x20 ADD DUP3 ADD PUSH1 0x40 MSTORE DUP1 ISZERO PUSH2 0x2E25 JUMPI DUP2 PUSH1 0x20 ADD JUMPDEST PUSH2 0x2E12 PUSH2 0x83E3 JUMP JUMPDEST DUP2 MSTORE PUSH1 0x20 ADD SWAP1 PUSH1 0x1 SWAP1 SUB SWAP1 DUP2 PUSH2 0x2E0A JUMPI SWAP1 POP JUMPDEST POP SWAP1 POP PUSH1 0x0 JUMPDEST DUP1 DUP4 EQ PUSH2 0x2F2D JUMPI PUSH1 0x1 DUP3 DUP3 DUP2 MLOAD DUP2 LT PUSH2 0x2E40 JUMPI INVALID JUMPDEST PUSH1 0x20 SWAP1 DUP2 MUL SWAP2 SWAP1 SWAP2 ADD DUP2 ADD MLOAD SWAP2 ISZERO ISZERO SWAP2 ADD MSTORE DUP4 DUP4 DUP3 DUP2 DUP2 LT PUSH2 0x2E5E JUMPI INVALID JUMPDEST SWAP1 POP PUSH1 0x20 MUL DUP2 ADD SWAP1 PUSH2 0x2E70 SWAP2 SWAP1 PUSH2 0xA4CD JUMP JUMPDEST ISZERO ISZERO SWAP1 POP PUSH2 0x2E7D JUMPI PUSH2 0x2F25 JUMP JUMPDEST ADDRESS DUP5 DUP5 DUP4 DUP2 DUP2 LT PUSH2 0x2E8A JUMPI INVALID JUMPDEST SWAP1 POP PUSH1 0x20 MUL DUP2 ADD SWAP1 PUSH2 0x2E9C SWAP2 SWAP1 PUSH2 0xA4CD JUMP JUMPDEST PUSH1 0x40 MLOAD PUSH2 0x2EAA SWAP3 SWAP2 SWAP1 PUSH2 0x9C57 JUMP JUMPDEST PUSH1 0x0 PUSH1 0x40 MLOAD DUP1 DUP4 SUB DUP2 PUSH1 0x0 DUP7 GAS CALL SWAP2 POP POP RETURNDATASIZE DUP1 PUSH1 0x0 DUP2 EQ PUSH2 0x2EE7 JUMPI PUSH1 0x40 MLOAD SWAP2 POP PUSH1 0x1F NOT PUSH1 0x3F RETURNDATASIZE ADD AND DUP3 ADD PUSH1 0x40 MSTORE RETURNDATASIZE DUP3 MSTORE RETURNDATASIZE PUSH1 0x0 PUSH1 0x20 DUP5 ADD RETURNDATACOPY PUSH2 0x2EEC JUMP JUMPDEST PUSH1 0x60 SWAP2 POP JUMPDEST POP DUP4 DUP4 DUP2 MLOAD DUP2 LT PUSH2 0x2EF9 JUMPI INVALID JUMPDEST PUSH1 0x20 MUL PUSH1 0x20 ADD ADD MLOAD PUSH1 0x20 ADD DUP5 DUP5 DUP2 MLOAD DUP2 LT PUSH2 0x2F10 JUMPI INVALID JUMPDEST PUSH1 0x20 SWAP1 DUP2 MUL SWAP2 SWAP1 SWAP2 ADD ADD MLOAD SWAP2 SWAP1 SWAP2 MSTORE SWAP1 ISZERO ISZERO SWAP1 MSTORE JUMPDEST PUSH1 0x1 ADD PUSH2 0x2E2B JUMP JUMPDEST POP SWAP3 SWAP2 POP POP JUMP JUMPDEST PUSH1 0x60 DUP2 MLOAD PUSH1 0x1 PUSH1 0x1 PUSH1 0x40 SHL SUB DUP2 GT DUP1 ISZERO PUSH2 0x2F4D JUMPI PUSH1 0x0 DUP1 REVERT JUMPDEST POP PUSH1 0x40 MLOAD SWAP1 DUP1 DUP3 MSTORE DUP1 PUSH1 0x20 MUL PUSH1 0x20 ADD DUP3 ADD PUSH1 0x40 MSTORE DUP1 ISZERO PUSH2 0x2F77 JUMPI DUP2 PUSH1 0x20 ADD PUSH1 0x20 DUP3 MUL DUP1 CALLDATASIZE DUP4 CALLDATACOPY ADD SWAP1 POP JUMPDEST POP SWAP1 POP PUSH1 0x0 JUMPDEST DUP3 MLOAD DUP2 EQ PUSH2 0x3020 JUMPI PUSH32 0x0 PUSH1 0x1 PUSH1 0x1 PUSH1 0xA0 SHL SUB AND DUP4 DUP3 DUP2 MLOAD DUP2 LT PUSH2 0x2FBB JUMPI INVALID JUMPDEST PUSH1 0x20 MUL PUSH1 0x20 ADD ADD MLOAD PUSH1 0x1 PUSH1 0x1 PUSH1 0xA0 SHL SUB AND EQ PUSH2 0x2FFB JUMPI PUSH2 0x2FF6 DUP4 DUP3 DUP2 MLOAD DUP2 LT PUSH2 0x2FE0 JUMPI INVALID JUMPDEST PUSH1 0x20 MUL PUSH1 0x20 ADD ADD MLOAD PUSH1 0x1 PUSH1 0x1 PUSH1 0xA0 SHL SUB AND PUSH2 0x744B JUMP JUMPDEST PUSH2 0x2FFE JUMP JUMPDEST PUSH1 0x12 JUMPDEST PUSH1 0xFF AND DUP3 DUP3 DUP2 MLOAD DUP2 LT PUSH2 0x300D JUMPI INVALID JUMPDEST PUSH1 0x20 SWAP1 DUP2 MUL SWAP2 SWAP1 SWAP2 ADD ADD MSTORE PUSH1 0x1 ADD PUSH2 0x2F7D JUMP JUMPDEST POP SWAP2 SWAP1 POP JUMP JUMPDEST PUSH1 0x0 PUSH1 0x60 DUP1 SWAP5 POP SWAP5 POP SWAP5 SWAP2 POP POP JUMP JUMPDEST PUSH1 0x60 PUSH2 0x3041 DUP4 DUP6 PUSH2 0x61EA JUMP JUMPDEST PUSH1 0x0 DUP6 PUSH1 0x0 ADD MLOAD SWAP1 POP PUSH1 0x0 DUP2 PUSH1 0x1 PUSH1 0x1 PUSH1 0xA0 SHL SUB AND PUSH4 0x36569E77 PUSH1 0x40 MLOAD DUP2 PUSH4 0xFFFFFFFF AND PUSH1 0xE0 SHL DUP2 MSTORE PUSH1 0x4 ADD PUSH1 0x20 PUSH1 0x40 MLOAD DUP1 DUP4 SUB DUP2 DUP7 DUP1 EXTCODESIZE ISZERO DUP1 ISZERO PUSH2 0x3085 JUMPI PUSH1 0x0 DUP1 REVERT JUMPDEST POP GAS STATICCALL ISZERO DUP1 ISZERO PUSH2 0x3099 JUMPI RETURNDATASIZE PUSH1 0x0 DUP1 RETURNDATACOPY RETURNDATASIZE PUSH1 0x0 REVERT JUMPDEST POP POP POP POP PUSH1 0x40 MLOAD RETURNDATASIZE PUSH1 0x1F NOT PUSH1 0x1F DUP3 ADD AND DUP3 ADD DUP1 PUSH1 0x40 MSTORE POP DUP2 ADD SWAP1 PUSH2 0x30BD SWAP2 SWAP1 PUSH2 0x8B54 JUMP JUMPDEST DUP5 MLOAD SWAP1 SWAP2 POP DUP1 PUSH1 0x1 PUSH1 0x1 PUSH1 0x40 SHL SUB DUP2 GT DUP1 ISZERO PUSH2 0x30D8 JUMPI PUSH1 0x0 DUP1 REVERT JUMPDEST POP PUSH1 0x40 MLOAD SWAP1 DUP1 DUP3 MSTORE DUP1 PUSH1 0x20 MUL PUSH1 0x20 ADD DUP3 ADD PUSH1 0x40 MSTORE DUP1 ISZERO PUSH2 0x3102 JUMPI DUP2 PUSH1 0x20 ADD PUSH1 0x20 DUP3 MUL DUP1 CALLDATASIZE DUP4 CALLDATACOPY ADD SWAP1 POP JUMPDEST POP SWAP4 POP DUP3 PUSH1 0x1 PUSH1 0x1 PUSH1 0xA0 SHL SUB AND PUSH4 0xF4B9FA75 PUSH1 0x40 MLOAD DUP2 PUSH4 0xFFFFFFFF AND PUSH1 0xE0 SHL DUP2 MSTORE PUSH1 0x4 ADD PUSH1 0x20 PUSH1 0x40 MLOAD DUP1 DUP4 SUB DUP2 DUP7 DUP1 EXTCODESIZE ISZERO DUP1 ISZERO PUSH2 0x313E JUMPI PUSH1 0x0 DUP1 REVERT JUMPDEST POP GAS STATICCALL ISZERO DUP1 ISZERO PUSH2 0x3152 JUMPI RETURNDATASIZE PUSH1 0x0 DUP1 RETURNDATACOPY RETURNDATASIZE PUSH1 0x0 REVERT JUMPDEST POP POP POP POP PUSH1 0x40 MLOAD RETURNDATASIZE PUSH1 0x1F NOT PUSH1 0x1F DUP3 ADD AND DUP3 ADD DUP1 PUSH1 0x40 MSTORE POP DUP2 ADD SWAP1 PUSH2 0x3176 SWAP2 SWAP1 PUSH2 0x8B54 JUMP JUMPDEST PUSH1 0x1 PUSH1 0x1 PUSH1 0xA0 SHL SUB AND DUP7 PUSH1 0x1 PUSH1 0x1 PUSH1 0xA0 SHL SUB AND EQ ISZERO DUP1 ISZERO PUSH2 0x3219 JUMPI POP DUP3 PUSH1 0x1 PUSH1 0x1 PUSH1 0xA0 SHL SUB AND PUSH4 0xF4B9FA75 PUSH1 0x40 MLOAD DUP2 PUSH4 0xFFFFFFFF AND PUSH1 0xE0 SHL DUP2 MSTORE PUSH1 0x4 ADD PUSH1 0x20 PUSH1 0x40 MLOAD DUP1 DUP4 SUB DUP2 DUP7 DUP1 EXTCODESIZE ISZERO DUP1 ISZERO PUSH2 0x31CB JUMPI PUSH1 0x0 DUP1 REVERT JUMPDEST POP GAS STATICCALL ISZERO DUP1 ISZERO PUSH2 0x31DF JUMPI RETURNDATASIZE PUSH1 0x0 DUP1 RETURNDATACOPY RETURNDATASIZE PUSH1 0x0 REVERT JUMPDEST POP POP POP POP PUSH1 0x40 MLOAD RETURNDATASIZE PUSH1 0x1F NOT PUSH1 0x1F DUP3 ADD AND DUP3 ADD DUP1 PUSH1 0x40 MSTORE POP DUP2 ADD SWAP1 PUSH2 0x3203 SWAP2 SWAP1 PUSH2 0x8B54 JUMP JUMPDEST PUSH1 0x1 PUSH1 0x1 PUSH1 0xA0 SHL SUB AND DUP8 PUSH1 0x1 PUSH1 0x1 PUSH1 0xA0 SHL SUB AND EQ ISZERO JUMPDEST ISZERO PUSH2 0x3226 JUMPI POP POP POP PUSH2 0x14B3 JUMP JUMPDEST PUSH1 0x0 JUMPDEST DUP2 DUP2 LT ISZERO PUSH2 0x9E5 JUMPI PUSH1 0x0 PUSH2 0x3254 DUP11 DUP10 DUP12 DUP11 DUP7 DUP2 MLOAD DUP2 LT PUSH2 0x3245 JUMPI INVALID JUMPDEST PUSH1 0x20 MUL PUSH1 0x20 ADD ADD MLOAD DUP10 DUP10 PUSH2 0x74F7 JUMP JUMPDEST SWAP1 POP DUP1 PUSH2 0x3261 JUMPI POP PUSH2 0x9E5 JUMP JUMPDEST DUP1 DUP7 DUP4 DUP2 MLOAD DUP2 LT PUSH2 0x326E JUMPI INVALID JUMPDEST PUSH1 0x20 SWAP1 DUP2 MUL SWAP2 SWAP1 SWAP2 ADD ADD MSTORE POP PUSH1 0x1 ADD PUSH2 0x3229 JUMP JUMPDEST PUSH1 0x60 PUSH1 0x0 DUP6 PUSH1 0x0 ADD MLOAD PUSH1 0x1 PUSH1 0x1 PUSH1 0xA0 SHL SUB AND PUSH4 0xBBD7F255 DUP6 PUSH1 0xF SIGNEXTEND PUSH1 0x40 MLOAD DUP3 PUSH4 0xFFFFFFFF AND PUSH1 0xE0 SHL DUP2 MSTORE PUSH1 0x4 ADD PUSH2 0x32B9 SWAP2 SWAP1 PUSH2 0xA0B6 JUMP JUMPDEST PUSH1 0x20 PUSH1 0x40 MLOAD DUP1 DUP4 SUB DUP2 DUP7 DUP1 EXTCODESIZE ISZERO DUP1 ISZERO PUSH2 0x32D1 JUMPI PUSH1 0x0 DUP1 REVERT JUMPDEST POP GAS STATICCALL ISZERO DUP1 ISZERO PUSH2 0x32E5 JUMPI RETURNDATASIZE PUSH1 0x0 DUP1 RETURNDATACOPY RETURNDATASIZE PUSH1 0x0 REVERT JUMPDEST POP POP POP POP PUSH1 0x40 MLOAD RETURNDATASIZE PUSH1 0x1F NOT PUSH1 0x1F DUP3 ADD AND DUP3 ADD DUP1 PUSH1 0x40 MSTORE POP DUP2 ADD SWAP1 PUSH2 0x3309 SWAP2 SWAP1 PUSH2 0x93B1 JUMP JUMPDEST DUP7 MLOAD PUSH1 0x40 MLOAD PUSH4 0x1E010439 PUSH1 0xE0 SHL DUP2 MSTORE PUSH1 0x1 PUSH1 0x1 PUSH1 0xA0 SHL SUB SWAP1 SWAP2 AND SWAP1 PUSH4 0x1E010439 SWAP1 PUSH2 0x333C SWAP1 PUSH1 0xF DUP10 SWAP1 SIGNEXTEND SWAP1 PUSH1 0x4 ADD PUSH2 0xA0B6 JUMP JUMPDEST PUSH1 0x20 PUSH1 0x40 MLOAD DUP1 DUP4 SUB DUP2 DUP7 DUP1 EXTCODESIZE ISZERO DUP1 ISZERO PUSH2 0x3354 JUMPI PUSH1 0x0 DUP1 REVERT JUMPDEST POP GAS STATICCALL ISZERO DUP1 ISZERO PUSH2 0x3368 JUMPI RETURNDATASIZE PUSH1 0x0 DUP1 RETURNDATACOPY RETURNDATASIZE PUSH1 0x0 REVERT JUMPDEST POP POP POP POP PUSH1 0x40 MLOAD RETURNDATASIZE PUSH1 0x1F NOT PUSH1 0x1F DUP3 ADD AND DUP3 ADD DUP1 PUSH1 0x40 MSTORE POP DUP2 ADD SWAP1 PUSH2 0x338C SWAP2 SWAP1 PUSH2 0x93B1 JUMP JUMPDEST SUB SWAP1 POP PUSH1 0x0 DUP7 PUSH1 0x0 ADD MLOAD PUSH1 0x1 PUSH1 0x1 PUSH1 0xA0 SHL SUB AND PUSH4 0xC5829514 DUP7 PUSH1 0xF SIGNEXTEND PUSH1 0x40 MLOAD DUP3 PUSH4 0xFFFFFFFF AND PUSH1 0xE0 SHL DUP2 MSTORE PUSH1 0x4 ADD PUSH2 0x33C4 SWAP2 SWAP1 PUSH2 0xA0B6 JUMP JUMPDEST PUSH1 0x80 PUSH1 0x40 MLOAD DUP1 DUP4 SUB DUP2 DUP7 DUP1 EXTCODESIZE ISZERO DUP1 ISZERO PUSH2 0x33DC JUMPI PUSH1 0x0 DUP1 REVERT JUMPDEST POP GAS STATICCALL ISZERO DUP1 ISZERO PUSH2 0x33F0 JUMPI RETURNDATASIZE PUSH1 0x0 DUP1 RETURNDATACOPY RETURNDATASIZE PUSH1 0x0 REVERT JUMPDEST POP POP POP POP PUSH1 0x40 MLOAD RETURNDATASIZE PUSH1 0x1F NOT PUSH1 0x1F DUP3 ADD AND DUP3 ADD DUP1 PUSH1 0x40 MSTORE POP DUP2 ADD SWAP1 PUSH2 0x3414 SWAP2 SWAP1 PUSH2 0x98E1 JUMP JUMPDEST SWAP4 POP POP POP POP DUP1 PUSH1 0x12 SUB PUSH1 0xA EXP DUP3 DUP2 PUSH2 0x3428 JUMPI INVALID JUMPDEST DUP6 MLOAD SWAP2 SWAP1 DIV SWAP3 POP DUP1 PUSH1 0x1 PUSH1 0x1 PUSH1 0x40 SHL SUB DUP2 GT DUP1 ISZERO PUSH2 0x3445 JUMPI PUSH1 0x0 DUP1 REVERT JUMPDEST POP PUSH1 0x40 MLOAD SWAP1 DUP1 DUP3 MSTORE DUP1 PUSH1 0x20 MUL PUSH1 0x20 ADD DUP3 ADD PUSH1 0x40 MSTORE DUP1 ISZERO PUSH2 0x346F JUMPI DUP2 PUSH1 0x20 ADD PUSH1 0x20 DUP3 MUL DUP1 CALLDATASIZE DUP4 CALLDATACOPY ADD SWAP1 POP JUMPDEST POP SWAP4 POP PUSH1 0x0 JUMPDEST DUP2 DUP2 LT ISZERO PUSH2 0x9E5 JUMPI PUSH1 0x0 PUSH1 0x60 DUP11 PUSH1 0x0 ADD MLOAD PUSH1 0x1 PUSH1 0x1 PUSH1 0xA0 SHL SUB AND PUSH3 0x927C0 DUP13 PUSH1 0x20 ADD MLOAD DUP13 DUP13 DUP13 DUP9 DUP2 MLOAD DUP2 LT PUSH2 0x34A6 JUMPI INVALID JUMPDEST PUSH1 0x20 MUL PUSH1 0x20 ADD ADD MLOAD PUSH1 0x40 MLOAD PUSH1 0x24 ADD PUSH2 0x34C0 SWAP4 SWAP3 SWAP2 SWAP1 PUSH2 0xA232 JUMP JUMPDEST PUSH1 0x40 DUP1 MLOAD PUSH1 0x1F NOT DUP2 DUP5 SUB ADD DUP2 MSTORE SWAP2 DUP2 MSTORE PUSH1 0x20 DUP3 ADD DUP1 MLOAD PUSH1 0x1 PUSH1 0x1 PUSH1 0xE0 SHL SUB AND PUSH1 0x1 PUSH1 0x1 PUSH1 0xE0 SHL SUB NOT SWAP1 SWAP5 AND SWAP4 SWAP1 SWAP4 OR SWAP1 SWAP3 MSTORE SWAP1 MLOAD PUSH2 0x34FE SWAP2 SWAP1 PUSH2 0x9C67 JUMP JUMPDEST PUSH1 0x0 PUSH1 0x40 MLOAD DUP1 DUP4 SUB DUP2 DUP7 DUP7 STATICCALL SWAP3 POP POP POP RETURNDATASIZE DUP1 PUSH1 0x0 DUP2 EQ PUSH2 0x353A JUMPI PUSH1 0x40 MLOAD SWAP2 POP PUSH1 0x1F NOT PUSH1 0x3F RETURNDATASIZE ADD AND DUP3 ADD PUSH1 0x40 MSTORE RETURNDATASIZE DUP3 MSTORE RETURNDATASIZE PUSH1 0x0 PUSH1 0x20 DUP5 ADD RETURNDATACOPY PUSH2 0x353F JUMP JUMPDEST PUSH1 0x60 SWAP2 POP JUMPDEST POP SWAP2 POP SWAP2 POP PUSH1 0x0 DUP3 ISZERO PUSH2 0x3563 JUMPI DUP2 DUP1 PUSH1 0x20 ADD SWAP1 MLOAD DUP2 ADD SWAP1 PUSH2 0x3560 SWAP2 SWAP1 PUSH2 0x93B1 JUMP JUMPDEST SWAP1 POP JUMPDEST DUP7 DUP2 LT PUSH2 0x359D JUMPI DUP4 JUMPDEST DUP6 DUP2 LT ISZERO PUSH2 0x3594 JUMPI DUP8 DUP10 DUP3 DUP2 MLOAD DUP2 LT PUSH2 0x3581 JUMPI INVALID JUMPDEST PUSH1 0x20 SWAP1 DUP2 MUL SWAP2 SWAP1 SWAP2 ADD ADD MSTORE PUSH1 0x1 ADD PUSH2 0x356C JUMP JUMPDEST POP POP POP POP PUSH2 0x9E5 JUMP JUMPDEST DUP1 DUP9 DUP6 DUP2 MLOAD DUP2 LT PUSH2 0x35AA JUMPI INVALID JUMPDEST PUSH1 0x20 MUL PUSH1 0x20 ADD ADD DUP2 DUP2 MSTORE POP POP DUP8 DUP5 DUP2 MLOAD DUP2 LT PUSH2 0x35C2 JUMPI INVALID JUMPDEST PUSH1 0x20 MUL PUSH1 0x20 ADD ADD MLOAD PUSH1 0x0 EQ ISZERO PUSH2 0x35DA JUMPI POP POP POP PUSH2 0x9E5 JUMP JUMPDEST POP POP POP PUSH1 0x1 ADD PUSH2 0x3475 JUMP JUMPDEST PUSH2 0x35ED PUSH2 0x83FB JUMP JUMPDEST PUSH2 0x35F5 PUSH2 0x83FB JUMP JUMPDEST PUSH1 0x0 DUP1 DUP1 JUMPDEST DUP8 MLOAD DUP2 EQ PUSH2 0x36FA JUMPI PUSH2 0x3641 PUSH1 0x20 DUP10 DUP4 DUP2 MLOAD DUP2 LT PUSH2 0x3613 JUMPI INVALID JUMPDEST PUSH1 0x20 MUL PUSH1 0x20 ADD ADD MLOAD MLOAD SUB DUP8 DUP11 DUP5 DUP2 MLOAD DUP2 LT PUSH2 0x362A JUMPI INVALID JUMPDEST PUSH1 0x20 MUL PUSH1 0x20 ADD ADD MLOAD PUSH2 0x7789 SWAP1 SWAP3 SWAP2 SWAP1 PUSH4 0xFFFFFFFF AND JUMP JUMPDEST PUSH1 0x0 PUSH1 0x60 ADDRESS PUSH1 0x1 PUSH1 0x1 PUSH1 0xA0 SHL SUB AND DUP11 DUP5 DUP2 MLOAD DUP2 LT PUSH2 0x365B JUMPI INVALID JUMPDEST PUSH1 0x20 MUL PUSH1 0x20 ADD ADD MLOAD PUSH1 0x40 MLOAD PUSH2 0x3670 SWAP2 SWAP1 PUSH2 0x9C67 JUMP JUMPDEST PUSH1 0x0 PUSH1 0x40 MLOAD DUP1 DUP4 SUB DUP2 PUSH1 0x0 DUP7 GAS CALL SWAP2 POP POP RETURNDATASIZE DUP1 PUSH1 0x0 DUP2 EQ PUSH2 0x36AD JUMPI PUSH1 0x40 MLOAD SWAP2 POP PUSH1 0x1F NOT PUSH1 0x3F RETURNDATASIZE ADD AND DUP3 ADD PUSH1 0x40 MSTORE RETURNDATASIZE DUP3 MSTORE RETURNDATASIZE PUSH1 0x0 PUSH1 0x20 DUP5 ADD RETURNDATACOPY PUSH2 0x36B2 JUMP JUMPDEST PUSH1 0x60 SWAP2 POP JUMPDEST POP SWAP2 POP SWAP2 POP DUP2 ISZERO PUSH2 0x36F0 JUMPI PUSH1 0x0 PUSH2 0x36D6 PUSH1 0x20 DUP4 MLOAD SUB DUP4 PUSH2 0x7799 SWAP1 SWAP2 SWAP1 PUSH4 0xFFFFFFFF AND JUMP JUMPDEST SWAP1 POP DUP5 DUP2 GT ISZERO PUSH2 0x36EE JUMPI DUP4 DUP9 MSTORE PUSH1 0x20 DUP9 ADD DUP3 SWAP1 MSTORE SWAP4 POP DUP4 JUMPDEST POP JUMPDEST POP POP PUSH1 0x1 ADD PUSH2 0x35FA JUMP JUMPDEST POP DUP1 PUSH2 0x3706 JUMPI POP PUSH2 0x37F5 JUMP JUMPDEST PUSH1 0x0 JUMPDEST DUP7 MLOAD DUP2 EQ PUSH2 0x37F2 JUMPI PUSH2 0x3739 PUSH1 0x20 DUP9 DUP4 DUP2 MLOAD DUP2 LT PUSH2 0x3722 JUMPI INVALID JUMPDEST PUSH1 0x20 MUL PUSH1 0x20 ADD ADD MLOAD MLOAD SUB DUP4 DUP10 DUP5 DUP2 MLOAD DUP2 LT PUSH2 0x362A JUMPI INVALID JUMPDEST PUSH1 0x0 PUSH1 0x60 ADDRESS PUSH1 0x1 PUSH1 0x1 PUSH1 0xA0 SHL SUB AND DUP10 DUP5 DUP2 MLOAD DUP2 LT PUSH2 0x3753 JUMPI INVALID JUMPDEST PUSH1 0x20 MUL PUSH1 0x20 ADD ADD MLOAD PUSH1 0x40 MLOAD PUSH2 0x3768 SWAP2 SWAP1 PUSH2 0x9C67 JUMP JUMPDEST PUSH1 0x0 PUSH1 0x40 MLOAD DUP1 DUP4 SUB DUP2 PUSH1 0x0 DUP7 GAS CALL SWAP2 POP POP RETURNDATASIZE DUP1 PUSH1 0x0 DUP2 EQ PUSH2 0x37A5 JUMPI PUSH1 0x40 MLOAD SWAP2 POP PUSH1 0x1F NOT PUSH1 0x3F RETURNDATASIZE ADD AND DUP3 ADD PUSH1 0x40 MSTORE RETURNDATASIZE DUP3 MSTORE RETURNDATASIZE PUSH1 0x0 PUSH1 0x20 DUP5 ADD RETURNDATACOPY PUSH2 0x37AA JUMP JUMPDEST PUSH1 0x60 SWAP2 POP JUMPDEST POP SWAP2 POP SWAP2 POP DUP2 ISZERO PUSH2 0x37E8 JUMPI PUSH1 0x0 PUSH2 0x37CE PUSH1 0x20 DUP4 MLOAD SUB DUP4 PUSH2 0x7799 SWAP1 SWAP2 SWAP1 PUSH4 0xFFFFFFFF AND JUMP JUMPDEST SWAP1 POP DUP6 DUP2 GT ISZERO PUSH2 0x37E6 JUMPI DUP4 DUP8 MSTORE PUSH1 0x20 DUP8 ADD DUP3 SWAP1 MSTORE SWAP5 POP DUP5 JUMPDEST POP JUMPDEST POP POP PUSH1 0x1 ADD PUSH2 0x3709 JUMP JUMPDEST POP POP JUMPDEST SWAP4 POP SWAP4 POP SWAP4 SWAP1 POP JUMP JUMPDEST PUSH1 0x40 DUP5 ADD MLOAD PUSH1 0x60 SWAP1 PUSH1 0x1 PUSH1 0x1 PUSH1 0xE0 SHL SUB NOT AND PUSH2 0x3880 JUMPI PUSH1 0x40 DUP1 MLOAD PUSH1 0x60 DUP2 ADD SWAP1 SWAP2 MSTORE PUSH2 0x3879 SWAP1 DUP1 PUSH2 0x3832 DUP7 DUP10 PUSH1 0x80 DUP5 ADD PUSH2 0xA250 JUMP JUMPDEST PUSH1 0x40 MLOAD PUSH1 0x20 DUP2 DUP4 SUB SUB DUP2 MSTORE SWAP1 PUSH1 0x40 MSTORE DUP2 MSTORE PUSH1 0x20 ADD DUP7 DUP9 PUSH1 0x40 MLOAD PUSH1 0x20 ADD PUSH2 0x3859 SWAP3 SWAP2 SWAP1 PUSH2 0xA250 JUMP JUMPDEST PUSH1 0x40 MLOAD PUSH1 0x20 DUP2 DUP4 SUB SUB DUP2 MSTORE SWAP1 PUSH1 0x40 MSTORE DUP2 MSTORE PUSH1 0x20 ADD PUSH2 0x77A5 DUP2 MSTORE POP DUP4 PUSH2 0x6840 JUMP JUMPDEST SWAP1 POP PUSH2 0x14B3 JUMP JUMPDEST DUP2 MLOAD DUP1 PUSH1 0x1 PUSH1 0x1 PUSH1 0x40 SHL SUB DUP2 GT DUP1 ISZERO PUSH2 0x3898 JUMPI PUSH1 0x0 DUP1 REVERT JUMPDEST POP PUSH1 0x40 MLOAD SWAP1 DUP1 DUP3 MSTORE DUP1 PUSH1 0x20 MUL PUSH1 0x20 ADD DUP3 ADD PUSH1 0x40 MSTORE DUP1 ISZERO PUSH2 0x38C2 JUMPI DUP2 PUSH1 0x20 ADD PUSH1 0x20 DUP3 MUL DUP1 CALLDATASIZE DUP4 CALLDATACOPY ADD SWAP1 POP JUMPDEST POP SWAP2 POP PUSH1 0x0 JUMPDEST DUP2 DUP2 LT ISZERO PUSH2 0x1AFA JUMPI PUSH1 0x0 PUSH1 0x60 DUP9 PUSH1 0x0 ADD MLOAD PUSH1 0x1 PUSH1 0x1 PUSH1 0xA0 SHL SUB AND PUSH3 0x1E8480 DUP11 PUSH1 0x40 ADD MLOAD DUP11 DUP11 DUP11 DUP9 DUP2 MLOAD DUP2 LT PUSH2 0x38F9 JUMPI INVALID JUMPDEST PUSH1 0x20 MUL PUSH1 0x20 ADD ADD MLOAD PUSH1 0x40 MLOAD PUSH1 0x24 ADD PUSH2 0x3913 SWAP4 SWAP3 SWAP2 SWAP1 PUSH2 0xA232 JUMP JUMPDEST PUSH1 0x40 DUP1 MLOAD PUSH1 0x1F NOT DUP2 DUP5 SUB ADD DUP2 MSTORE SWAP2 DUP2 MSTORE PUSH1 0x20 DUP3 ADD DUP1 MLOAD PUSH1 0x1 PUSH1 0x1 PUSH1 0xE0 SHL SUB AND PUSH1 0x1 PUSH1 0x1 PUSH1 0xE0 SHL SUB NOT SWAP1 SWAP5 AND SWAP4 SWAP1 SWAP4 OR SWAP1 SWAP3 MSTORE SWAP1 MLOAD PUSH2 0x3951 SWAP2 SWAP1 PUSH2 0x9C67 JUMP JUMPDEST PUSH1 0x0 PUSH1 0x40 MLOAD DUP1 DUP4 SUB DUP2 DUP7 DUP7 STATICCALL SWAP3 POP POP POP RETURNDATASIZE DUP1 PUSH1 0x0 DUP2 EQ PUSH2 0x398D JUMPI PUSH1 0x40 MLOAD SWAP2 POP PUSH1 0x1F NOT PUSH1 0x3F RETURNDATASIZE ADD AND DUP3 ADD PUSH1 0x40 MSTORE RETURNDATASIZE DUP3 MSTORE RETURNDATASIZE PUSH1 0x0 PUSH1 0x20 DUP5 ADD RETURNDATACOPY PUSH2 0x3992 JUMP JUMPDEST PUSH1 0x60 SWAP2 POP JUMPDEST POP SWAP2 POP SWAP2 POP PUSH1 0x0 DUP3 ISZERO PUSH2 0x39B6 JUMPI DUP2 DUP1 PUSH1 0x20 ADD SWAP1 MLOAD DUP2 ADD SWAP1 PUSH2 0x39B3 SWAP2 SWAP1 PUSH2 0x93B1 JUMP JUMPDEST SWAP1 POP JUMPDEST DUP1 DUP7 DUP6 DUP2 MLOAD DUP2 LT PUSH2 0x39C3 JUMPI INVALID JUMPDEST PUSH1 0x20 MUL PUSH1 0x20 ADD ADD DUP2 DUP2 MSTORE POP POP DUP6 DUP5 DUP2 MLOAD DUP2 LT PUSH2 0x39DB JUMPI INVALID JUMPDEST PUSH1 0x20 MUL PUSH1 0x20 ADD ADD MLOAD PUSH1 0x0 EQ ISZERO PUSH2 0x39F3 JUMPI POP POP POP PUSH2 0x1AFA JUMP JUMPDEST POP POP POP PUSH1 0x1 ADD PUSH2 0x38C8 JUMP JUMPDEST DUP1 MLOAD PUSH1 0x60 SWAP1 DUP6 SWAP1 DUP1 PUSH1 0x1 PUSH1 0x1 PUSH1 0x40 SHL SUB DUP2 GT DUP1 ISZERO PUSH2 0x3A1B JUMPI PUSH1 0x0 DUP1 REVERT JUMPDEST POP PUSH1 0x40 MLOAD SWAP1 DUP1 DUP3 MSTORE DUP1 PUSH1 0x20 MUL PUSH1 0x20 ADD DUP3 ADD PUSH1 0x40 MSTORE DUP1 ISZERO PUSH2 0x3A45 JUMPI DUP2 PUSH1 0x20 ADD PUSH1 0x20 DUP3 MUL DUP1 CALLDATASIZE DUP4 CALLDATACOPY ADD SWAP1 POP JUMPDEST POP PUSH1 0x40 MLOAD PUSH4 0xBCDED89 PUSH1 0xE2 SHL DUP2 MSTORE SWAP1 SWAP4 POP PUSH1 0x1 PUSH1 0x1 PUSH1 0xA0 SHL SUB DUP4 AND SWAP1 PUSH4 0x2F37B624 SWAP1 PUSH2 0x3A75 SWAP1 DUP10 SWAP1 PUSH1 0x4 ADD PUSH2 0x9C83 JUMP JUMPDEST PUSH1 0x20 PUSH1 0x40 MLOAD DUP1 DUP4 SUB DUP2 DUP7 DUP1 EXTCODESIZE ISZERO DUP1 ISZERO PUSH2 0x3A8D JUMPI PUSH1 0x0 DUP1 REVERT JUMPDEST POP GAS STATICCALL ISZERO DUP1 ISZERO PUSH2 0x3AA1 JUMPI RETURNDATASIZE PUSH1 0x0 DUP1 RETURNDATACOPY RETURNDATASIZE PUSH1 0x0 REVERT JUMPDEST POP POP POP POP PUSH1 0x40 MLOAD RETURNDATASIZE PUSH1 0x1F NOT PUSH1 0x1F DUP3 ADD AND DUP3 ADD DUP1 PUSH1 0x40 MSTORE POP DUP2 ADD SWAP1 PUSH2 0x3AC5 SWAP2 SWAP1 PUSH2 0x9395 JUMP JUMPDEST ISZERO DUP1 PUSH2 0x3B4A JUMPI POP PUSH1 0x40 MLOAD PUSH4 0xBCDED89 PUSH1 0xE2 SHL DUP2 MSTORE PUSH1 0x1 PUSH1 0x1 PUSH1 0xA0 SHL SUB DUP4 AND SWAP1 PUSH4 0x2F37B624 SWAP1 PUSH2 0x3AF8 SWAP1 DUP9 SWAP1 PUSH1 0x4 ADD PUSH2 0x9C83 JUMP JUMPDEST PUSH1 0x20 PUSH1 0x40 MLOAD DUP1 DUP4 SUB DUP2 DUP7 DUP1 EXTCODESIZE ISZERO DUP1 ISZERO PUSH2 0x3B10 JUMPI PUSH1 0x0 DUP1 REVERT JUMPDEST POP GAS STATICCALL ISZERO DUP1 ISZERO PUSH2 0x3B24 JUMPI RETURNDATASIZE PUSH1 0x0 DUP1 RETURNDATACOPY RETURNDATASIZE PUSH1 0x0 REVERT JUMPDEST POP POP POP POP PUSH1 0x40 MLOAD RETURNDATASIZE PUSH1 0x1F NOT PUSH1 0x1F DUP3 ADD AND DUP3 ADD DUP1 PUSH1 0x40 MSTORE POP DUP2 ADD SWAP1 PUSH2 0x3B48 SWAP2 SWAP1 PUSH2 0x9395 JUMP JUMPDEST ISZERO JUMPDEST ISZERO PUSH2 0x3B56 JUMPI POP POP PUSH2 0x14B3 JUMP JUMPDEST PUSH2 0x3B5E PUSH2 0x83B4 JUMP JUMPDEST PUSH1 0x40 MLOAD PUSH4 0xF8B2CB4F PUSH1 0xE0 SHL DUP2 MSTORE PUSH1 0x1 PUSH1 0x1 PUSH1 0xA0 SHL SUB DUP5 AND SWAP1 PUSH4 0xF8B2CB4F SWAP1 PUSH2 0x3B8A SWAP1 DUP11 SWAP1 PUSH1 0x4 ADD PUSH2 0x9C83 JUMP JUMPDEST PUSH1 0x20 PUSH1 0x40 MLOAD DUP1 DUP4 SUB DUP2 DUP7 DUP1 EXTCODESIZE ISZERO DUP1 ISZERO PUSH2 0x3BA2 JUMPI PUSH1 0x0 DUP1 REVERT JUMPDEST POP GAS STATICCALL ISZERO DUP1 ISZERO PUSH2 0x3BB6 JUMPI RETURNDATASIZE PUSH1 0x0 DUP1 RETURNDATACOPY RETURNDATASIZE PUSH1 0x0 REVERT JUMPDEST POP POP POP POP PUSH1 0x40 MLOAD RETURNDATASIZE PUSH1 0x1F NOT PUSH1 0x1F DUP3 ADD AND DUP3 ADD DUP1 PUSH1 0x40 MSTORE POP DUP2 ADD SWAP1 PUSH2 0x3BDA SWAP2 SWAP1 PUSH2 0x93B1 JUMP JUMPDEST DUP2 MSTORE PUSH1 0x40 MLOAD PUSH4 0xF8B2CB4F PUSH1 0xE0 SHL DUP2 MSTORE PUSH1 0x1 PUSH1 0x1 PUSH1 0xA0 SHL SUB DUP5 AND SWAP1 PUSH4 0xF8B2CB4F SWAP1 PUSH2 0x3C08 SWAP1 DUP10 SWAP1 PUSH1 0x4 ADD PUSH2 0x9C83 JUMP JUMPDEST PUSH1 0x20 PUSH1 0x40 MLOAD DUP1 DUP4 SUB DUP2 DUP7 DUP1 EXTCODESIZE ISZERO DUP1 ISZERO PUSH2 0x3C20 JUMPI PUSH1 0x0 DUP1 REVERT JUMPDEST POP GAS STATICCALL ISZERO DUP1 ISZERO PUSH2 0x3C34 JUMPI RETURNDATASIZE PUSH1 0x0 DUP1 RETURNDATACOPY RETURNDATASIZE PUSH1 0x0 REVERT JUMPDEST POP POP POP POP PUSH1 0x40 MLOAD RETURNDATASIZE PUSH1 0x1F NOT PUSH1 0x1F DUP3 ADD AND DUP3 ADD DUP1 PUSH1 0x40 MSTORE POP DUP2 ADD SWAP1 PUSH2 0x3C58 SWAP2 SWAP1 PUSH2 0x93B1 JUMP JUMPDEST PUSH1 0x20 DUP3 ADD MSTORE PUSH1 0x40 MLOAD PUSH4 0x4A46C673 PUSH1 0xE1 SHL DUP2 MSTORE PUSH1 0x1 PUSH1 0x1 PUSH1 0xA0 SHL SUB DUP5 AND SWAP1 PUSH4 0x948D8CE6 SWAP1 PUSH2 0x3C89 SWAP1 DUP11 SWAP1 PUSH1 0x4 ADD PUSH2 0x9C83 JUMP JUMPDEST PUSH1 0x20 PUSH1 0x40 MLOAD DUP1 DUP4 SUB DUP2 DUP7 DUP1 EXTCODESIZE ISZERO DUP1 ISZERO PUSH2 0x3CA1 JUMPI PUSH1 0x0 DUP1 REVERT JUMPDEST POP GAS STATICCALL ISZERO DUP1 ISZERO PUSH2 0x3CB5 JUMPI RETURNDATASIZE PUSH1 0x0 DUP1 RETURNDATACOPY RETURNDATASIZE PUSH1 0x0 REVERT JUMPDEST POP POP POP POP PUSH1 0x40 MLOAD RETURNDATASIZE PUSH1 0x1F NOT PUSH1 0x1F DUP3 ADD AND DUP3 ADD DUP1 PUSH1 0x40 MSTORE POP DUP2 ADD SWAP1 PUSH2 0x3CD9 SWAP2 SWAP1 PUSH2 0x93B1 JUMP JUMPDEST PUSH1 0x40 DUP1 DUP4 ADD SWAP2 SWAP1 SWAP2 MSTORE MLOAD PUSH4 0x4A46C673 PUSH1 0xE1 SHL DUP2 MSTORE PUSH1 0x1 PUSH1 0x1 PUSH1 0xA0 SHL SUB DUP5 AND SWAP1 PUSH4 0x948D8CE6 SWAP1 PUSH2 0x3D0C SWAP1 DUP10 SWAP1 PUSH1 0x4 ADD PUSH2 0x9C83 JUMP JUMPDEST PUSH1 0x20 PUSH1 0x40 MLOAD DUP1 DUP4 SUB DUP2 DUP7 DUP1 EXTCODESIZE ISZERO DUP1 ISZERO PUSH2 0x3D24 JUMPI PUSH1 0x0 DUP1 REVERT JUMPDEST POP GAS STATICCALL ISZERO DUP1 ISZERO PUSH2 0x3D38 JUMPI RETURNDATASIZE PUSH1 0x0 DUP1 RETURNDATACOPY RETURNDATASIZE PUSH1 0x0 REVERT JUMPDEST POP POP POP POP PUSH1 0x40 MLOAD RETURNDATASIZE PUSH1 0x1F NOT PUSH1 0x1F DUP3 ADD AND DUP3 ADD DUP1 PUSH1 0x40 MSTORE POP DUP2 ADD SWAP1 PUSH2 0x3D5C SWAP2 SWAP1 PUSH2 0x93B1 JUMP JUMPDEST DUP2 PUSH1 0x60 ADD DUP2 DUP2 MSTORE POP POP DUP3 PUSH1 0x1 PUSH1 0x1 PUSH1 0xA0 SHL SUB AND PUSH4 0xD4CADF68 PUSH1 0x40 MLOAD DUP2 PUSH4 0xFFFFFFFF AND PUSH1 0xE0 SHL DUP2 MSTORE PUSH1 0x4 ADD PUSH1 0x20 PUSH1 0x40 MLOAD DUP1 DUP4 SUB DUP2 DUP7 DUP1 EXTCODESIZE ISZERO DUP1 ISZERO PUSH2 0x3D9E JUMPI PUSH1 0x0 DUP1 REVERT JUMPDEST POP GAS STATICCALL ISZERO DUP1 ISZERO PUSH2 0x3DB2 JUMPI RETURNDATASIZE PUSH1 0x0 DUP1 RETURNDATACOPY RETURNDATASIZE PUSH1 0x0 REVERT JUMPDEST POP POP POP POP PUSH1 0x40 MLOAD RETURNDATASIZE PUSH1 0x1F NOT PUSH1 0x1F DUP3 ADD AND DUP3 ADD DUP1 PUSH1 0x40 MSTORE POP DUP2 ADD SWAP1 PUSH2 0x3DD6 SWAP2 SWAP1 PUSH2 0x93B1 JUMP JUMPDEST PUSH1 0x80 DUP3 ADD MSTORE PUSH1 0x0 JUMPDEST DUP3 DUP2 LT ISZERO PUSH2 0x9E5 JUMPI DUP2 MLOAD PUSH2 0x3DFC SWAP1 PUSH1 0x2 PUSH8 0xDE0B6B3A7640000 PUSH2 0x2A1C JUMP JUMPDEST DUP7 DUP3 DUP2 MLOAD DUP2 LT PUSH2 0x3E08 JUMPI INVALID JUMPDEST PUSH1 0x20 MUL PUSH1 0x20 ADD ADD MLOAD GT ISZERO PUSH2 0x3E1B JUMPI PUSH2 0x9E5 JUMP JUMPDEST DUP4 PUSH1 0x1 PUSH1 0x1 PUSH1 0xA0 SHL SUB AND PUSH4 0xBA9530A6 PUSH3 0x493E0 DUP5 PUSH1 0x0 ADD MLOAD DUP6 PUSH1 0x40 ADD MLOAD DUP7 PUSH1 0x20 ADD MLOAD DUP8 PUSH1 0x60 ADD MLOAD DUP13 DUP9 DUP2 MLOAD DUP2 LT PUSH2 0x3E4E JUMPI INVALID JUMPDEST PUSH1 0x20 MUL PUSH1 0x20 ADD ADD MLOAD DUP10 PUSH1 0x80 ADD MLOAD PUSH1 0x40 MLOAD DUP9 PUSH4 0xFFFFFFFF AND PUSH1 0xE0 SHL DUP2 MSTORE PUSH1 0x4 ADD PUSH2 0x3E7C SWAP7 SWAP6 SWAP5 SWAP4 SWAP3 SWAP2 SWAP1 PUSH2 0xA4A5 JUMP JUMPDEST PUSH1 0x20 PUSH1 0x40 MLOAD DUP1 DUP4 SUB DUP2 DUP8 DUP1 EXTCODESIZE ISZERO DUP1 ISZERO PUSH2 0x3E94 JUMPI PUSH1 0x0 DUP1 REVERT JUMPDEST POP DUP7 STATICCALL SWAP4 POP POP POP POP DUP1 ISZERO PUSH2 0x3EC5 JUMPI POP PUSH1 0x40 DUP1 MLOAD PUSH1 0x1F RETURNDATASIZE SWAP1 DUP2 ADD PUSH1 0x1F NOT AND DUP3 ADD SWAP1 SWAP3 MSTORE PUSH2 0x3EC2 SWAP2 DUP2 ADD SWAP1 PUSH2 0x93B1 JUMP JUMPDEST PUSH1 0x1 JUMPDEST PUSH2 0x3EF3 JUMPI RETURNDATASIZE DUP1 DUP1 ISZERO PUSH2 0x29FE JUMPI PUSH1 0x40 MLOAD SWAP2 POP PUSH1 0x1F NOT PUSH1 0x3F RETURNDATASIZE ADD AND DUP3 ADD PUSH1 0x40 MSTORE RETURNDATASIZE DUP3 MSTORE RETURNDATASIZE PUSH1 0x0 PUSH1 0x20 DUP5 ADD RETURNDATACOPY PUSH2 0x2A03 JUMP JUMPDEST DUP1 DUP7 DUP4 DUP2 MLOAD DUP2 LT PUSH2 0x3F00 JUMPI INVALID JUMPDEST PUSH1 0x20 MUL PUSH1 0x20 ADD ADD DUP2 DUP2 MSTORE POP POP DUP6 DUP3 DUP2 MLOAD DUP2 LT PUSH2 0x3F18 JUMPI INVALID JUMPDEST PUSH1 0x20 MUL PUSH1 0x20 ADD ADD MLOAD PUSH1 0x0 EQ ISZERO PUSH2 0x3F2E JUMPI POP PUSH2 0x9E5 JUMP JUMPDEST POP PUSH1 0x1 ADD PUSH2 0x3DDE JUMP JUMPDEST PUSH1 0x0 DUP1 DUP4 MLOAD PUSH1 0x3 DUP2 GT ISZERO PUSH2 0x3F47 JUMPI INVALID JUMPDEST EQ DUP1 PUSH2 0x3F5F JUMPI POP PUSH1 0x1 DUP4 MLOAD PUSH1 0x3 DUP2 GT ISZERO PUSH2 0x3F5D JUMPI INVALID JUMPDEST EQ JUMPDEST DUP1 PUSH2 0x3F75 JUMPI POP PUSH1 0x40 DUP5 ADD MLOAD PUSH1 0x1 PUSH1 0x1 PUSH1 0x80 SHL SUB AND ISZERO JUMPDEST DUP1 PUSH2 0x3F8B JUMPI POP PUSH1 0x60 DUP5 ADD MLOAD PUSH1 0x1 PUSH1 0x1 PUSH1 0x80 SHL SUB AND ISZERO JUMPDEST ISZERO PUSH2 0x3F98 JUMPI POP PUSH1 0x0 PUSH2 0x4077 JUMP JUMPDEST PUSH2 0x3FA0 PUSH2 0x8415 JUMP JUMPDEST PUSH1 0x0 DUP1 DUP5 PUSH1 0x1 PUSH1 0x1 PUSH1 0xA0 SHL SUB AND PUSH4 0x1FB09795 DUP9 DUP9 PUSH1 0x40 MLOAD DUP4 PUSH4 0xFFFFFFFF AND PUSH1 0xE0 SHL DUP2 MSTORE PUSH1 0x4 ADD PUSH2 0x3FD1 SWAP3 SWAP2 SWAP1 PUSH2 0xA40D JUMP JUMPDEST PUSH1 0xA0 PUSH1 0x40 MLOAD DUP1 DUP4 SUB DUP2 DUP7 DUP1 EXTCODESIZE ISZERO DUP1 ISZERO PUSH2 0x3FE9 JUMPI PUSH1 0x0 DUP1 REVERT JUMPDEST POP GAS STATICCALL ISZERO DUP1 ISZERO PUSH2 0x3FFD JUMPI RETURNDATASIZE PUSH1 0x0 DUP1 RETURNDATACOPY RETURNDATASIZE PUSH1 0x0 REVERT JUMPDEST POP POP POP POP PUSH1 0x40 MLOAD RETURNDATASIZE PUSH1 0x1F NOT PUSH1 0x1F DUP3 ADD AND DUP3 ADD DUP1 PUSH1 0x40 MSTORE POP DUP2 ADD SWAP1 PUSH2 0x4021 SWAP2 SWAP1 PUSH2 0x981F JUMP JUMPDEST SWAP2 SWAP5 POP SWAP3 POP SWAP1 POP PUSH1 0x1 DUP4 PUSH1 0x20 ADD MLOAD PUSH1 0x4 DUP2 GT ISZERO PUSH2 0x403A JUMPI INVALID JUMPDEST EQ ISZERO DUP1 PUSH2 0x4045 JUMPI POP DUP1 ISZERO JUMPDEST DUP1 PUSH2 0x4058 JUMPI POP DUP7 MLOAD PUSH1 0x1 PUSH1 0x1 PUSH1 0xA0 SHL SUB AND ISZERO JUMPDEST ISZERO PUSH2 0x4069 JUMPI PUSH1 0x0 SWAP4 POP POP POP POP PUSH2 0x4077 JUMP JUMPDEST POP PUSH1 0x1 PUSH1 0x1 PUSH1 0x80 SHL SUB AND SWAP2 POP POP JUMPDEST SWAP4 SWAP3 POP POP POP JUMP JUMPDEST PUSH1 0x0 PUSH1 0x60 DUP1 PUSH2 0x408D DUP6 DUP8 PUSH2 0x61EA JUMP JUMPDEST PUSH2 0x4098 DUP8 DUP8 DUP8 PUSH2 0x77F9 JUMP JUMPDEST SWAP3 POP DUP3 PUSH2 0x40A4 JUMPI PUSH2 0xE61 JUMP JUMPDEST PUSH1 0x40 MLOAD PUSH4 0x276FDAD9 PUSH1 0xE1 SHL DUP2 MSTORE ADDRESS SWAP1 PUSH4 0x4EDFB5B2 SWAP1 PUSH2 0x40CD SWAP1 DUP11 SWAP1 DUP8 SWAP1 DUP12 SWAP1 DUP12 SWAP1 PUSH1 0x4 ADD PUSH2 0xA3D4 JUMP JUMPDEST PUSH1 0x0 PUSH1 0x40 MLOAD DUP1 DUP4 SUB DUP2 DUP7 DUP1 EXTCODESIZE ISZERO DUP1 ISZERO PUSH2 0x40E5 JUMPI PUSH1 0x0 DUP1 REVERT JUMPDEST POP GAS STATICCALL ISZERO DUP1 ISZERO PUSH2 0x40F9 JUMPI RETURNDATASIZE PUSH1 0x0 DUP1 RETURNDATACOPY RETURNDATASIZE PUSH1 0x0 REVERT JUMPDEST POP POP POP POP PUSH1 0x40 MLOAD RETURNDATASIZE PUSH1 0x0 DUP3 RETURNDATACOPY PUSH1 0x1F RETURNDATASIZE SWAP1 DUP2 ADD PUSH1 0x1F NOT AND DUP3 ADD PUSH1 0x40 MSTORE PUSH2 0x4121 SWAP2 SWAP1 DUP2 ADD SWAP1 PUSH2 0x93C9 JUMP JUMPDEST DUP8 PUSH1 0x80 ADD DUP2 SWAP1 MSTORE POP DUP7 PUSH1 0x80 ADD MLOAD SWAP2 POP PUSH2 0x4198 PUSH1 0x40 MLOAD DUP1 PUSH1 0x60 ADD PUSH1 0x40 MSTORE DUP1 DUP8 DUP11 PUSH1 0x40 MLOAD PUSH1 0x20 ADD PUSH2 0x4151 SWAP3 SWAP2 SWAP1 PUSH2 0x9F24 JUMP JUMPDEST PUSH1 0x40 MLOAD PUSH1 0x20 DUP2 DUP4 SUB SUB DUP2 MSTORE SWAP1 PUSH1 0x40 MSTORE DUP2 MSTORE PUSH1 0x20 ADD DUP9 DUP11 PUSH1 0x40 MLOAD PUSH1 0x20 ADD PUSH2 0x4178 SWAP3 SWAP2 SWAP1 PUSH2 0x9F24 JUMP JUMPDEST PUSH1 0x40 MLOAD PUSH1 0x20 DUP2 DUP4 SUB SUB DUP2 MSTORE SWAP1 PUSH1 0x40 MSTORE DUP2 MSTORE PUSH1 0x20 ADD PUSH2 0x7960 DUP2 MSTORE POP DUP6 PUSH2 0x6840 JUMP JUMPDEST SWAP1 POP SWAP5 POP SWAP5 POP SWAP5 SWAP2 POP POP JUMP JUMPDEST PUSH1 0x0 DUP1 DUP6 PUSH1 0x1 PUSH1 0x1 PUSH1 0xA0 SHL SUB AND PUSH4 0x901754D7 DUP7 DUP7 PUSH1 0x40 MLOAD DUP4 PUSH4 0xFFFFFFFF AND PUSH1 0xE0 SHL DUP2 MSTORE PUSH1 0x4 ADD PUSH2 0x41D5 SWAP3 SWAP2 SWAP1 PUSH2 0x9CB0 JUMP JUMPDEST PUSH1 0x20 PUSH1 0x40 MLOAD DUP1 DUP4 SUB DUP2 DUP7 DUP1 EXTCODESIZE ISZERO DUP1 ISZERO PUSH2 0x41ED JUMPI PUSH1 0x0 DUP1 REVERT JUMPDEST POP GAS STATICCALL ISZERO DUP1 ISZERO PUSH2 0x4201 JUMPI RETURNDATASIZE PUSH1 0x0 DUP1 RETURNDATACOPY RETURNDATASIZE PUSH1 0x0 REVERT JUMPDEST POP POP POP POP PUSH1 0x40 MLOAD RETURNDATASIZE PUSH1 0x1F NOT PUSH1 0x1F DUP3 ADD AND DUP3 ADD DUP1 PUSH1 0x40 MSTORE POP DUP2 ADD SWAP1 PUSH2 0x4225 SWAP2 SWAP1 PUSH2 0x8B54 JUMP JUMPDEST SWAP1 POP PUSH1 0x1 PUSH1 0x1 PUSH1 0xA0 SHL SUB DUP2 AND PUSH2 0x423F JUMPI PUSH1 0x0 SWAP2 POP POP PUSH2 0x14B3 JUMP JUMPDEST PUSH1 0x0 PUSH1 0x1 PUSH1 0x1 PUSH1 0xA0 SHL SUB DUP7 AND ISZERO PUSH2 0x42D1 JUMPI PUSH1 0x40 MLOAD PUSH4 0x70A08231 PUSH1 0xE0 SHL DUP2 MSTORE PUSH1 0x1 PUSH1 0x1 PUSH1 0xA0 SHL SUB DUP8 AND SWAP1 PUSH4 0x70A08231 SWAP1 PUSH2 0x427C SWAP1 DUP6 SWAP1 PUSH1 0x4 ADD PUSH2 0x9C83 JUMP JUMPDEST PUSH1 0x20 PUSH1 0x40 MLOAD DUP1 DUP4 SUB DUP2 DUP7 DUP1 EXTCODESIZE ISZERO DUP1 ISZERO PUSH2 0x4294 JUMPI PUSH1 0x0 DUP1 REVERT JUMPDEST POP GAS STATICCALL ISZERO DUP1 ISZERO PUSH2 0x42A8 JUMPI RETURNDATASIZE PUSH1 0x0 DUP1 RETURNDATACOPY RETURNDATASIZE PUSH1 0x0 REVERT JUMPDEST POP POP POP POP PUSH1 0x40 MLOAD RETURNDATASIZE PUSH1 0x1F NOT PUSH1 0x1F DUP3 ADD AND DUP3 ADD DUP1 PUSH1 0x40 MSTORE POP DUP2 ADD SWAP1 PUSH2 0x42CC SWAP2 SWAP1 PUSH2 0x93B1 JUMP JUMPDEST PUSH2 0x42DD JUMP JUMPDEST DUP2 PUSH1 0x1 PUSH1 0x1 PUSH1 0xA0 SHL SUB AND BALANCE JUMPDEST SWAP1 POP DUP4 DUP2 LT ISZERO PUSH2 0x42F2 JUMPI PUSH1 0x0 SWAP3 POP POP POP PUSH2 0x14B3 JUMP JUMPDEST PUSH1 0x40 MLOAD PUSH4 0x3C2803F PUSH1 0xE3 SHL DUP2 MSTORE PUSH1 0x1 PUSH1 0x1 PUSH1 0xA0 SHL SUB DUP4 AND SWAP1 PUSH4 0x1E1401F8 SWAP1 PUSH3 0x249F0 SWAP1 PUSH2 0x4327 SWAP1 DUP11 SWAP1 DUP11 SWAP1 DUP11 SWAP1 PUSH1 0x4 ADD PUSH2 0x9DAB JUMP JUMPDEST PUSH1 0x20 PUSH1 0x40 MLOAD DUP1 DUP4 SUB DUP2 DUP8 DUP1 EXTCODESIZE ISZERO DUP1 ISZERO PUSH2 0x433F JUMPI PUSH1 0x0 DUP1 REVERT JUMPDEST POP DUP7 STATICCALL SWAP4 POP POP POP POP DUP1 ISZERO PUSH2 0x4370 JUMPI POP PUSH1 0x40 DUP1 MLOAD PUSH1 0x1F RETURNDATASIZE SWAP1 DUP2 ADD PUSH1 0x1F NOT AND DUP3 ADD SWAP1 SWAP3 MSTORE PUSH2 0x436D SWAP2 DUP2 ADD SWAP1 PUSH2 0x93B1 JUMP JUMPDEST PUSH1 0x1 JUMPDEST PUSH2 0x43B0 JUMPI RETURNDATASIZE DUP1 DUP1 ISZERO PUSH2 0x439E JUMPI PUSH1 0x40 MLOAD SWAP2 POP PUSH1 0x1F NOT PUSH1 0x3F RETURNDATASIZE ADD AND DUP3 ADD PUSH1 0x40 MSTORE RETURNDATASIZE DUP3 MSTORE RETURNDATASIZE PUSH1 0x0 PUSH1 0x20 DUP5 ADD RETURNDATACOPY PUSH2 0x43A3 JUMP JUMPDEST PUSH1 0x60 SWAP2 POP JUMPDEST POP PUSH1 0x0 SWAP4 POP POP POP POP PUSH2 0x14B3 JUMP JUMPDEST SWAP3 POP PUSH2 0x14B3 SWAP2 POP POP JUMP JUMPDEST PUSH1 0x60 PUSH2 0x43C6 DUP4 DUP6 PUSH2 0x61EA JUMP JUMPDEST PUSH1 0x20 DUP6 ADD MLOAD PUSH1 0x40 DUP1 MLOAD PUSH1 0x2 DUP1 DUP3 MSTORE PUSH1 0x60 DUP3 DUP2 ADD SWAP1 SWAP4 MSTORE DUP2 PUSH1 0x20 ADD PUSH1 0x20 DUP3 MUL DUP1 CALLDATASIZE DUP4 CALLDATACOPY ADD SWAP1 POP POP SWAP1 POP DUP6 DUP2 PUSH1 0x0 DUP2 MLOAD DUP2 LT PUSH2 0x43FC JUMPI INVALID JUMPDEST PUSH1 0x20 MUL PUSH1 0x20 ADD ADD SWAP1 PUSH1 0x1 PUSH1 0x1 PUSH1 0xA0 SHL SUB AND SWAP1 DUP2 PUSH1 0x1 PUSH1 0x1 PUSH1 0xA0 SHL SUB AND DUP2 MSTORE POP POP DUP5 DUP2 PUSH1 0x1 DUP2 MLOAD DUP2 LT PUSH2 0x442A JUMPI INVALID JUMPDEST PUSH1 0x1 PUSH1 0x1 PUSH1 0xA0 SHL SUB SWAP1 SWAP3 AND PUSH1 0x20 SWAP3 DUP4 MUL SWAP2 SWAP1 SWAP2 ADD SWAP1 SWAP2 ADD MSTORE DUP4 MLOAD DUP1 PUSH1 0x1 PUSH1 0x1 PUSH1 0x40 SHL SUB DUP2 GT DUP1 ISZERO PUSH2 0x445A JUMPI PUSH1 0x0 DUP1 REVERT JUMPDEST POP PUSH1 0x40 MLOAD SWAP1 DUP1 DUP3 MSTORE DUP1 PUSH1 0x20 MUL PUSH1 0x20 ADD DUP3 ADD PUSH1 0x40 MSTORE DUP1 ISZERO PUSH2 0x4484 JUMPI DUP2 PUSH1 0x20 ADD PUSH1 0x20 DUP3 MUL DUP1 CALLDATASIZE DUP4 CALLDATACOPY ADD SWAP1 POP JUMPDEST POP SWAP4 POP PUSH2 0x448F PUSH2 0x838D JUMP JUMPDEST PUSH2 0x4497 PUSH2 0x6229 JUMP JUMPDEST SWAP1 POP PUSH1 0x0 JUMPDEST DUP3 DUP2 LT ISZERO PUSH2 0x108F JUMPI PUSH1 0x60 PUSH2 0x44B6 DUP12 DUP10 DUP5 DUP2 MLOAD DUP2 LT PUSH2 0xF71 JUMPI INVALID JUMPDEST PUSH1 0x40 MLOAD PUSH4 0x7C268337 PUSH1 0xE1 SHL DUP2 MSTORE SWAP1 SWAP2 POP PUSH1 0x1 PUSH1 0x1 PUSH1 0xA0 SHL SUB DUP8 AND SWAP1 PUSH4 0xF84D066E SWAP1 PUSH2 0x44EC SWAP1 PUSH1 0x1 SWAP1 DUP6 SWAP1 DUP11 SWAP1 DUP10 SWAP1 PUSH1 0x4 ADD PUSH2 0xA179 JUMP JUMPDEST PUSH1 0x0 PUSH1 0x40 MLOAD DUP1 DUP4 SUB DUP2 PUSH1 0x0 DUP8 DUP1 EXTCODESIZE ISZERO DUP1 ISZERO PUSH2 0x4506 JUMPI PUSH1 0x0 DUP1 REVERT JUMPDEST POP GAS CALL SWAP3 POP POP POP DUP1 ISZERO PUSH2 0x453B JUMPI POP PUSH1 0x40 MLOAD RETURNDATASIZE PUSH1 0x0 DUP3 RETURNDATACOPY PUSH1 0x1F RETURNDATASIZE SWAP1 DUP2 ADD PUSH1 0x1F NOT AND DUP3 ADD PUSH1 0x40 MSTORE PUSH2 0x4538 SWAP2 SWAP1 DUP2 ADD SWAP1 PUSH2 0x9211 JUMP JUMPDEST PUSH1 0x1 JUMPDEST PUSH2 0x4569 JUMPI RETURNDATASIZE DUP1 DUP1 ISZERO PUSH2 0x1031 JUMPI PUSH1 0x40 MLOAD SWAP2 POP PUSH1 0x1F NOT PUSH1 0x3F RETURNDATASIZE ADD AND DUP3 ADD PUSH1 0x40 MSTORE RETURNDATASIZE DUP3 MSTORE RETURNDATASIZE PUSH1 0x0 PUSH1 0x20 DUP5 ADD RETURNDATACOPY PUSH2 0x1036 JUMP JUMPDEST PUSH1 0x0 DUP2 PUSH1 0x0 DUP2 MLOAD DUP2 LT PUSH2 0x4578 JUMPI INVALID JUMPDEST PUSH1 0x20 MUL PUSH1 0x20 ADD ADD MLOAD SWAP1 POP PUSH1 0x0 DUP2 SGT PUSH2 0x4592 JUMPI POP POP POP PUSH2 0x108F JUMP JUMPDEST DUP1 DUP10 DUP6 DUP2 MLOAD DUP2 LT PUSH2 0x459F JUMPI INVALID JUMPDEST PUSH1 0x20 MUL PUSH1 0x20 ADD ADD DUP2 DUP2 MSTORE POP POP POP POP POP PUSH1 0x1 ADD PUSH2 0x449C JUMP JUMPDEST DUP1 MLOAD PUSH1 0x60 SWAP1 DUP1 PUSH1 0x1 PUSH1 0x1 PUSH1 0x40 SHL SUB DUP2 GT DUP1 ISZERO PUSH2 0x45D1 JUMPI PUSH1 0x0 DUP1 REVERT JUMPDEST POP PUSH1 0x40 MLOAD SWAP1 DUP1 DUP3 MSTORE DUP1 PUSH1 0x20 MUL PUSH1 0x20 ADD DUP3 ADD PUSH1 0x40 MSTORE DUP1 ISZERO PUSH2 0x45FB JUMPI DUP2 PUSH1 0x20 ADD PUSH1 0x20 DUP3 MUL DUP1 CALLDATASIZE DUP4 CALLDATACOPY ADD SWAP1 POP JUMPDEST POP SWAP2 POP PUSH1 0x0 JUMPDEST DUP2 DUP2 LT ISZERO PUSH2 0x1AFA JUMPI DUP7 PUSH1 0x1 PUSH1 0x1 PUSH1 0xA0 SHL SUB AND PUSH4 0x343FBCDD PUSH3 0x61A80 DUP9 DUP9 DUP9 DUP7 DUP2 MLOAD DUP2 LT PUSH2 0x462A JUMPI INVALID JUMPDEST PUSH1 0x20 MUL PUSH1 0x20 ADD ADD MLOAD PUSH1 0x40 MLOAD DUP6 PUSH4 0xFFFFFFFF AND PUSH1 0xE0 SHL DUP2 MSTORE PUSH1 0x4 ADD PUSH2 0x4650 SWAP4 SWAP3 SWAP2 SWAP1 PUSH2 0x9DAB JUMP JUMPDEST PUSH1 0x20 PUSH1 0x40 MLOAD DUP1 DUP4 SUB DUP2 DUP8 DUP1 EXTCODESIZE ISZERO DUP1 ISZERO PUSH2 0x4668 JUMPI PUSH1 0x0 DUP1 REVERT JUMPDEST POP DUP7 STATICCALL SWAP4 POP POP POP POP DUP1 ISZERO PUSH2 0x4699 JUMPI POP PUSH1 0x40 DUP1 MLOAD PUSH1 0x1F RETURNDATASIZE SWAP1 DUP2 ADD PUSH1 0x1F NOT AND DUP3 ADD SWAP1 SWAP3 MSTORE PUSH2 0x4696 SWAP2 DUP2 ADD SWAP1 PUSH2 0x93B1 JUMP JUMPDEST PUSH1 0x1 JUMPDEST PUSH2 0x46C7 JUMPI RETURNDATASIZE DUP1 DUP1 ISZERO PUSH2 0x1AAA JUMPI PUSH1 0x40 MLOAD SWAP2 POP PUSH1 0x1F NOT PUSH1 0x3F RETURNDATASIZE ADD AND DUP3 ADD PUSH1 0x40 MSTORE RETURNDATASIZE DUP3 MSTORE RETURNDATASIZE PUSH1 0x0 PUSH1 0x20 DUP5 ADD RETURNDATACOPY PUSH2 0x1AAF JUMP JUMPDEST DUP1 DUP5 DUP4 DUP2 MLOAD DUP2 LT PUSH2 0x46D4 JUMPI INVALID JUMPDEST PUSH1 0x20 MUL PUSH1 0x20 ADD ADD DUP2 DUP2 MSTORE POP POP DUP4 DUP3 DUP2 MLOAD DUP2 LT PUSH2 0x46EC JUMPI INVALID JUMPDEST PUSH1 0x20 MUL PUSH1 0x20 ADD ADD MLOAD PUSH1 0x0 EQ ISZERO PUSH2 0x4702 JUMPI POP PUSH2 0x1AFA JUMP JUMPDEST POP PUSH1 0x1 ADD PUSH2 0x4601 JUMP JUMPDEST PUSH1 0x0 DUP1 PUSH1 0x60 PUSH2 0x471A DUP6 DUP8 PUSH2 0x61EA JUMP JUMPDEST DUP4 MLOAD DUP1 PUSH1 0x1 PUSH1 0x1 PUSH1 0x40 SHL SUB DUP2 GT DUP1 ISZERO PUSH2 0x4732 JUMPI PUSH1 0x0 DUP1 REVERT JUMPDEST POP PUSH1 0x40 MLOAD SWAP1 DUP1 DUP3 MSTORE DUP1 PUSH1 0x20 MUL PUSH1 0x20 ADD DUP3 ADD PUSH1 0x40 MSTORE DUP1 ISZERO PUSH2 0x475C JUMPI DUP2 PUSH1 0x20 ADD PUSH1 0x20 DUP3 MUL DUP1 CALLDATASIZE DUP4 CALLDATACOPY ADD SWAP1 POP JUMPDEST POP SWAP2 POP PUSH2 0x476B DUP10 DUP10 DUP10 DUP10 PUSH2 0x7A47 JUMP JUMPDEST SWAP5 POP SWAP3 POP PUSH1 0x1 PUSH1 0x1 PUSH1 0xA0 SHL SUB DUP4 AND PUSH2 0x4783 JUMPI POP PUSH2 0x483D JUMP JUMPDEST PUSH1 0x0 JUMPDEST DUP2 DUP2 LT ISZERO PUSH2 0x483A JUMPI PUSH1 0x0 PUSH2 0x47F4 DUP10 DUP7 DUP9 PUSH1 0x40 MLOAD PUSH1 0x20 ADD PUSH2 0x47A8 SWAP4 SWAP3 SWAP2 SWAP1 PUSH2 0x9D53 JUMP JUMPDEST PUSH1 0x40 MLOAD PUSH1 0x20 DUP2 DUP4 SUB SUB DUP2 MSTORE SWAP1 PUSH1 0x40 MSTORE DUP10 DUP8 DUP10 PUSH1 0x40 MLOAD PUSH1 0x20 ADD PUSH2 0x47CC SWAP4 SWAP3 SWAP2 SWAP1 PUSH2 0x9D53 JUMP JUMPDEST PUSH1 0x40 MLOAD PUSH1 0x20 DUP2 DUP4 SUB SUB DUP2 MSTORE SWAP1 PUSH1 0x40 MSTORE DUP10 DUP6 DUP2 MLOAD DUP2 LT PUSH2 0x47E7 JUMPI INVALID JUMPDEST PUSH1 0x20 MUL PUSH1 0x20 ADD ADD MLOAD PUSH2 0x7B9C JUMP JUMPDEST SWAP1 POP DUP1 DUP5 DUP4 DUP2 MLOAD DUP2 LT PUSH2 0x4803 JUMPI INVALID JUMPDEST PUSH1 0x20 MUL PUSH1 0x20 ADD ADD DUP2 DUP2 MSTORE POP POP DUP4 DUP3 DUP2 MLOAD DUP2 LT PUSH2 0x481B JUMPI INVALID JUMPDEST PUSH1 0x20 MUL PUSH1 0x20 ADD ADD MLOAD PUSH1 0x0 EQ ISZERO PUSH2 0x4831 JUMPI POP PUSH2 0x483A JUMP JUMPDEST POP PUSH1 0x1 ADD PUSH2 0x4786 JUMP JUMPDEST POP POP JUMPDEST SWAP6 POP SWAP6 POP SWAP6 SWAP3 POP POP POP JUMP JUMPDEST DUP1 MLOAD PUSH1 0x60 SWAP1 DUP1 PUSH1 0x1 PUSH1 0x1 PUSH1 0x40 SHL SUB DUP2 GT DUP1 ISZERO PUSH2 0x4863 JUMPI PUSH1 0x0 DUP1 REVERT JUMPDEST POP PUSH1 0x40 MLOAD SWAP1 DUP1 DUP3 MSTORE DUP1 PUSH1 0x20 MUL PUSH1 0x20 ADD DUP3 ADD PUSH1 0x40 MSTORE DUP1 ISZERO PUSH2 0x488D JUMPI DUP2 PUSH1 0x20 ADD PUSH1 0x20 DUP3 MUL DUP1 CALLDATASIZE DUP4 CALLDATACOPY ADD SWAP1 POP JUMPDEST POP SWAP2 POP PUSH1 0x0 DUP7 PUSH1 0x1 PUSH1 0x1 PUSH1 0xA0 SHL SUB AND PUSH4 0x182DF0F5 PUSH1 0x40 MLOAD DUP2 PUSH4 0xFFFFFFFF AND PUSH1 0xE0 SHL DUP2 MSTORE PUSH1 0x4 ADD PUSH1 0x20 PUSH1 0x40 MLOAD DUP1 DUP4 SUB DUP2 DUP7 DUP1 EXTCODESIZE ISZERO DUP1 ISZERO PUSH2 0x48CB JUMPI PUSH1 0x0 DUP1 REVERT JUMPDEST POP GAS STATICCALL ISZERO DUP1 ISZERO PUSH2 0x48DF JUMPI RETURNDATASIZE PUSH1 0x0 DUP1 RETURNDATACOPY RETURNDATASIZE PUSH1 0x0 REVERT JUMPDEST POP POP POP POP PUSH1 0x40 MLOAD RETURNDATASIZE PUSH1 0x1F NOT PUSH1 0x1F DUP3 ADD AND DUP3 ADD DUP1 PUSH1 0x40 MSTORE POP DUP2 ADD SWAP1 PUSH2 0x4903 SWAP2 SWAP1 PUSH2 0x93B1 JUMP JUMPDEST SWAP1 POP PUSH1 0x0 DUP8 PUSH1 0x1 PUSH1 0x1 PUSH1 0xA0 SHL SUB AND PUSH4 0x313CE567 PUSH1 0x40 MLOAD DUP2 PUSH4 0xFFFFFFFF AND PUSH1 0xE0 SHL DUP2 MSTORE PUSH1 0x4 ADD PUSH1 0x20 PUSH1 0x40 MLOAD DUP1 DUP4 SUB DUP2 DUP7 DUP1 EXTCODESIZE ISZERO DUP1 ISZERO PUSH2 0x4940 JUMPI PUSH1 0x0 DUP1 REVERT JUMPDEST POP GAS STATICCALL ISZERO DUP1 ISZERO PUSH2 0x4954 JUMPI RETURNDATASIZE PUSH1 0x0 DUP1 RETURNDATACOPY RETURNDATASIZE PUSH1 0x0 REVERT JUMPDEST POP POP POP POP PUSH1 0x40 MLOAD RETURNDATASIZE PUSH1 0x1F NOT PUSH1 0x1F DUP3 ADD AND DUP3 ADD DUP1 PUSH1 0x40 MSTORE POP DUP2 ADD SWAP1 PUSH2 0x4978 SWAP2 SWAP1 PUSH2 0x9955 JUMP JUMPDEST PUSH1 0xFF AND SWAP1 POP DUP8 PUSH1 0x1 PUSH1 0x1 PUSH1 0xA0 SHL SUB AND DUP7 PUSH1 0x1 PUSH1 0x1 PUSH1 0xA0 SHL SUB AND EQ ISZERO PUSH2 0x49EA JUMPI PUSH1 0x0 JUMPDEST DUP4 DUP2 LT ISZERO PUSH2 0x972 JUMPI DUP3 DUP3 PUSH1 0xA EXP PUSH5 0x2540BE400 DUP9 DUP5 DUP2 MLOAD DUP2 LT PUSH2 0x49B9 JUMPI INVALID JUMPDEST PUSH1 0x20 MUL PUSH1 0x20 ADD ADD MLOAD MUL MUL DUP2 PUSH2 0x49CA JUMPI INVALID JUMPDEST DIV DUP6 DUP3 DUP2 MLOAD DUP2 LT PUSH2 0x49D7 JUMPI INVALID JUMPDEST PUSH1 0x20 SWAP1 DUP2 MUL SWAP2 SWAP1 SWAP2 ADD ADD MSTORE PUSH1 0x1 ADD PUSH2 0x499A JUMP JUMPDEST DUP8 PUSH1 0x1 PUSH1 0x1 PUSH1 0xA0 SHL SUB AND DUP8 PUSH1 0x1 PUSH1 0x1 PUSH1 0xA0 SHL SUB AND EQ ISZERO PUSH2 0x9E7 JUMPI PUSH1 0x0 JUMPDEST DUP4 DUP2 LT ISZERO PUSH2 0x9E5 JUMPI DUP2 PUSH1 0xA EXP PUSH5 0x2540BE400 MUL DUP4 DUP8 DUP4 DUP2 MLOAD DUP2 LT PUSH2 0x4A27 JUMPI INVALID JUMPDEST PUSH1 0x20 MUL PUSH1 0x20 ADD ADD MLOAD MUL DUP2 PUSH2 0x4A37 JUMPI INVALID JUMPDEST DIV DUP6 DUP3 DUP2 MLOAD DUP2 LT PUSH2 0x4A44 JUMPI INVALID JUMPDEST PUSH1 0x20 SWAP1 DUP2 MUL SWAP2 SWAP1 SWAP2 ADD ADD MSTORE PUSH1 0x1 ADD PUSH2 0x4A07 JUMP JUMPDEST PUSH1 0x0 PUSH1 0x60 PUSH2 0x4A65 DUP5 DUP7 PUSH2 0x61EA JUMP JUMPDEST DUP3 MLOAD DUP1 PUSH1 0x1 PUSH1 0x1 PUSH1 0x40 SHL SUB DUP2 GT DUP1 ISZERO PUSH2 0x4A7D JUMPI PUSH1 0x0 DUP1 REVERT JUMPDEST POP PUSH1 0x40 MLOAD SWAP1 DUP1 DUP3 MSTORE DUP1 PUSH1 0x20 MUL PUSH1 0x20 ADD DUP3 ADD PUSH1 0x40 MSTORE DUP1 ISZERO PUSH2 0x4AA7 JUMPI DUP2 PUSH1 0x20 ADD PUSH1 0x20 DUP3 MUL DUP1 CALLDATASIZE DUP4 CALLDATACOPY ADD SWAP1 POP JUMPDEST POP SWAP2 POP PUSH1 0x0 JUMPDEST DUP2 DUP2 LT ISZERO PUSH2 0x4B1C JUMPI PUSH1 0x0 PUSH2 0x4AD6 DUP10 DUP10 DUP10 DUP10 DUP7 DUP2 MLOAD DUP2 LT PUSH2 0x4AC9 JUMPI INVALID JUMPDEST PUSH1 0x20 MUL PUSH1 0x20 ADD ADD MLOAD PUSH2 0x41A4 JUMP JUMPDEST SWAP1 POP DUP1 DUP5 DUP4 DUP2 MLOAD DUP2 LT PUSH2 0x4AE5 JUMPI INVALID JUMPDEST PUSH1 0x20 MUL PUSH1 0x20 ADD ADD DUP2 DUP2 MSTORE POP POP DUP4 DUP3 DUP2 MLOAD DUP2 LT PUSH2 0x4AFD JUMPI INVALID JUMPDEST PUSH1 0x20 MUL PUSH1 0x20 ADD ADD MLOAD PUSH1 0x0 EQ ISZERO PUSH2 0x4B13 JUMPI POP PUSH2 0x4B1C JUMP JUMPDEST POP PUSH1 0x1 ADD PUSH2 0x4AAD JUMP JUMPDEST POP PUSH1 0x40 MLOAD PUSH4 0x901754D7 PUSH1 0xE0 SHL DUP2 MSTORE PUSH1 0x1 PUSH1 0x1 PUSH1 0xA0 SHL SUB DUP9 AND SWAP1 PUSH4 0x901754D7 SWAP1 PUSH2 0x4B4B SWAP1 DUP10 SWAP1 DUP10 SWAP1 PUSH1 0x4 ADD PUSH2 0x9CB0 JUMP JUMPDEST PUSH1 0x20 PUSH1 0x40 MLOAD DUP1 DUP4 SUB DUP2 DUP7 DUP1 EXTCODESIZE ISZERO DUP1 ISZERO PUSH2 0x4B63 JUMPI PUSH1 0x0 DUP1 REVERT JUMPDEST POP GAS STATICCALL ISZERO DUP1 ISZERO PUSH2 0x4B77 JUMPI RETURNDATASIZE PUSH1 0x0 DUP1 RETURNDATACOPY RETURNDATASIZE PUSH1 0x0 REVERT JUMPDEST POP POP POP POP PUSH1 0x40 MLOAD RETURNDATASIZE PUSH1 0x1F NOT PUSH1 0x1F DUP3 ADD AND DUP3 ADD DUP1 PUSH1 0x40 MSTORE POP DUP2 ADD SWAP1 PUSH2 0x4B9B SWAP2 SWAP1 PUSH2 0x8B54 JUMP JUMPDEST SWAP3 POP POP SWAP5 POP SWAP5 SWAP3 POP POP POP JUMP JUMPDEST PUSH1 0x40 DUP1 MLOAD PUSH1 0x60 DUP2 DUP2 ADD SWAP1 SWAP3 MSTORE PUSH2 0x1521 SWAP1 DUP1 PUSH2 0x4BC6 DUP7 DUP10 PUSH1 0x80 DUP5 ADD PUSH2 0x9CB0 JUMP JUMPDEST PUSH1 0x40 MLOAD PUSH1 0x20 DUP2 DUP4 SUB SUB DUP2 MSTORE SWAP1 PUSH1 0x40 MSTORE DUP2 MSTORE PUSH1 0x20 ADD DUP7 DUP9 PUSH1 0x40 MLOAD PUSH1 0x20 ADD PUSH2 0x4BED SWAP3 SWAP2 SWAP1 PUSH2 0x9CB0 JUMP JUMPDEST PUSH1 0x40 MLOAD PUSH1 0x20 DUP2 DUP4 SUB SUB DUP2 MSTORE SWAP1 PUSH1 0x40 MSTORE DUP2 MSTORE PUSH1 0x20 ADD PUSH2 0x7C8E DUP2 MSTORE POP DUP4 PUSH2 0x6840 JUMP JUMPDEST PUSH1 0x60 DUP3 MLOAD PUSH1 0x1 PUSH1 0x1 PUSH1 0x40 SHL SUB DUP2 GT DUP1 ISZERO PUSH2 0x4C26 JUMPI PUSH1 0x0 DUP1 REVERT JUMPDEST POP PUSH1 0x40 MLOAD SWAP1 DUP1 DUP3 MSTORE DUP1 PUSH1 0x20 MUL PUSH1 0x20 ADD DUP3 ADD PUSH1 0x40 MSTORE DUP1 ISZERO PUSH2 0x4C50 JUMPI DUP2 PUSH1 0x20 ADD PUSH1 0x20 DUP3 MUL DUP1 CALLDATASIZE DUP4 CALLDATACOPY ADD SWAP1 POP JUMPDEST POP SWAP1 POP PUSH1 0x0 JUMPDEST DUP4 MLOAD DUP2 EQ PUSH2 0x2F2D JUMPI PUSH32 0x0 PUSH1 0x1 PUSH1 0x1 PUSH1 0xA0 SHL SUB AND DUP5 DUP3 DUP2 MLOAD DUP2 LT PUSH2 0x4C94 JUMPI INVALID JUMPDEST PUSH1 0x20 MUL PUSH1 0x20 ADD ADD MLOAD PUSH1 0x1 PUSH1 0x1 PUSH1 0xA0 SHL SUB AND EQ PUSH2 0x4CDE JUMPI PUSH2 0x4CD9 DUP4 DUP6 DUP4 DUP2 MLOAD DUP2 LT PUSH2 0x4CBA JUMPI INVALID JUMPDEST PUSH1 0x20 MUL PUSH1 0x20 ADD ADD MLOAD PUSH1 0x1 PUSH1 0x1 PUSH1 0xA0 SHL SUB AND PUSH2 0x7CD5 SWAP1 SWAP2 SWAP1 PUSH4 0xFFFFFFFF AND JUMP JUMPDEST PUSH2 0x4CEA JUMP JUMPDEST DUP3 PUSH1 0x1 PUSH1 0x1 PUSH1 0xA0 SHL SUB AND BALANCE JUMPDEST DUP3 DUP3 DUP2 MLOAD DUP2 LT PUSH2 0x4CF6 JUMPI INVALID JUMPDEST PUSH1 0x20 SWAP1 DUP2 MUL SWAP2 SWAP1 SWAP2 ADD ADD MSTORE PUSH1 0x1 ADD PUSH2 0x4C56 JUMP JUMPDEST PUSH1 0x40 DUP1 MLOAD PUSH1 0x60 DUP2 DUP2 ADD SWAP1 SWAP3 MSTORE PUSH2 0x1521 SWAP1 DUP1 PUSH2 0x4D28 DUP7 DUP10 PUSH1 0x80 DUP5 ADD PUSH2 0x9CB0 JUMP JUMPDEST PUSH1 0x40 MLOAD PUSH1 0x20 DUP2 DUP4 SUB SUB DUP2 MSTORE SWAP1 PUSH1 0x40 MSTORE DUP2 MSTORE PUSH1 0x20 ADD DUP7 DUP9 PUSH1 0x40 MLOAD PUSH1 0x20 ADD PUSH2 0x4D4F SWAP3 SWAP2 SWAP1 PUSH2 0x9CB0 JUMP JUMPDEST PUSH1 0x40 MLOAD PUSH1 0x20 DUP2 DUP4 SUB SUB DUP2 MSTORE SWAP1 PUSH1 0x40 MSTORE DUP2 MSTORE PUSH1 0x20 ADD PUSH2 0x7D9F DUP2 MSTORE POP DUP4 PUSH2 0x6840 JUMP JUMPDEST PUSH1 0x60 PUSH2 0x4D7B DUP4 DUP6 PUSH2 0x61EA JUMP JUMPDEST DUP2 MLOAD DUP1 PUSH1 0x1 PUSH1 0x1 PUSH1 0x40 SHL SUB DUP2 GT DUP1 ISZERO PUSH2 0x4D93 JUMPI PUSH1 0x0 DUP1 REVERT JUMPDEST POP PUSH1 0x40 MLOAD SWAP1 DUP1 DUP3 MSTORE DUP1 PUSH1 0x20 MUL PUSH1 0x20 ADD DUP3 ADD PUSH1 0x40 MSTORE DUP1 ISZERO PUSH2 0x4DBD JUMPI DUP2 PUSH1 0x20 ADD PUSH1 0x20 DUP3 MUL DUP1 CALLDATASIZE DUP4 CALLDATACOPY ADD SWAP1 POP JUMPDEST POP SWAP2 POP PUSH1 0x0 PUSH1 0x1 PUSH1 0x1 PUSH1 0xA0 SHL SUB DUP7 AND ISZERO PUSH2 0x4DE0 JUMPI PUSH2 0x4DDB DUP8 DUP8 PUSH2 0x62EA JUMP JUMPDEST PUSH2 0x4DE3 JUMP JUMPDEST PUSH1 0x0 JUMPDEST SWAP1 POP PUSH1 0x0 PUSH1 0x1 PUSH1 0x1 PUSH1 0xA0 SHL SUB DUP7 AND ISZERO PUSH2 0x4E05 JUMPI PUSH2 0x4E00 DUP9 DUP8 PUSH2 0x62EA JUMP JUMPDEST PUSH2 0x4E08 JUMP JUMPDEST PUSH1 0x0 JUMPDEST SWAP1 POP PUSH1 0x0 JUMPDEST DUP4 DUP2 LT ISZERO PUSH2 0x9E5 JUMPI PUSH1 0x1 PUSH1 0x1 PUSH1 0x1 PUSH1 0xA0 SHL SUB DUP9 AND PUSH2 0x4E5E JUMPI PUSH2 0x4E3D DUP5 PUSH4 0x95B68FE7 PUSH1 0xE0 SHL DUP10 DUP6 DUP2 MLOAD DUP2 LT PUSH2 0x116A JUMPI INVALID JUMPDEST DUP8 DUP5 DUP2 MLOAD DUP2 LT PUSH2 0x4E49 JUMPI INVALID JUMPDEST PUSH1 0x20 MUL PUSH1 0x20 ADD ADD DUP2 SWAP4 POP DUP3 DUP2 MSTORE POP POP POP PUSH2 0x4EF8 JUMP JUMPDEST PUSH1 0x1 PUSH1 0x1 PUSH1 0xA0 SHL SUB DUP10 AND PUSH2 0x4E84 JUMPI PUSH2 0x4E3D DUP4 PUSH4 0xCD7724C3 PUSH1 0xE0 SHL DUP10 DUP6 DUP2 MLOAD DUP2 LT PUSH2 0x116A JUMPI INVALID JUMPDEST PUSH1 0x0 PUSH2 0x4E9E DUP6 PUSH4 0x95B68FE7 PUSH1 0xE0 SHL DUP11 DUP7 DUP2 MLOAD DUP2 LT PUSH2 0x116A JUMPI INVALID JUMPDEST SWAP3 POP SWAP1 POP DUP1 ISZERO PUSH2 0x4EDB JUMPI PUSH2 0x4EBA DUP5 PUSH4 0xCD7724C3 PUSH1 0xE0 SHL DUP4 PUSH2 0x6369 JUMP JUMPDEST DUP9 DUP6 DUP2 MLOAD DUP2 LT PUSH2 0x4EC6 JUMPI INVALID JUMPDEST PUSH1 0x20 MUL PUSH1 0x20 ADD ADD DUP2 SWAP5 POP DUP3 DUP2 MSTORE POP POP POP PUSH2 0x4EF6 JUMP JUMPDEST PUSH1 0x0 DUP8 DUP5 DUP2 MLOAD DUP2 LT PUSH2 0x4EE9 JUMPI INVALID JUMPDEST PUSH1 0x20 MUL PUSH1 0x20 ADD ADD DUP2 DUP2 MSTORE POP POP JUMPDEST POP JUMPDEST DUP1 ISZERO DUP1 PUSH2 0x4F18 JUMPI POP DUP6 DUP3 DUP2 MLOAD DUP2 LT PUSH2 0x4F0C JUMPI INVALID JUMPDEST PUSH1 0x20 MUL PUSH1 0x20 ADD ADD MLOAD PUSH1 0x0 EQ JUMPDEST ISZERO PUSH2 0x4F23 JUMPI POP PUSH2 0x9E5 JUMP JUMPDEST POP PUSH1 0x1 ADD PUSH2 0x4E0D JUMP JUMPDEST DUP1 MLOAD PUSH1 0x60 SWAP1 DUP1 PUSH1 0x1 PUSH1 0x1 PUSH1 0x40 SHL SUB DUP2 GT DUP1 ISZERO PUSH2 0x4F47 JUMPI PUSH1 0x0 DUP1 REVERT JUMPDEST POP PUSH1 0x40 MLOAD SWAP1 DUP1 DUP3 MSTORE DUP1 PUSH1 0x20 MUL PUSH1 0x20 ADD DUP3 ADD PUSH1 0x40 MSTORE DUP1 ISZERO PUSH2 0x4F71 JUMPI DUP2 PUSH1 0x20 ADD PUSH1 0x20 DUP3 MUL DUP1 CALLDATASIZE DUP4 CALLDATACOPY ADD SWAP1 POP JUMPDEST POP SWAP2 POP PUSH1 0x0 JUMPDEST DUP2 DUP2 LT ISZERO PUSH2 0x1C7F JUMPI DUP6 PUSH1 0x1 PUSH1 0x1 PUSH1 0xA0 SHL SUB AND PUSH4 0x1F00CA74 PUSH3 0x249F0 DUP7 DUP5 DUP2 MLOAD DUP2 LT PUSH2 0x4F9E JUMPI INVALID JUMPDEST PUSH1 0x20 MUL PUSH1 0x20 ADD ADD MLOAD DUP9 PUSH1 0x40 MLOAD DUP5 PUSH4 0xFFFFFFFF AND PUSH1 0xE0 SHL DUP2 MSTORE PUSH1 0x4 ADD PUSH2 0x4FC4 SWAP3 SWAP2 SWAP1 PUSH2 0xA461 JUMP JUMPDEST PUSH1 0x0 PUSH1 0x40 MLOAD DUP1 DUP4 SUB DUP2 DUP8 DUP1 EXTCODESIZE ISZERO DUP1 ISZERO PUSH2 0x4FDC JUMPI PUSH1 0x0 DUP1 REVERT JUMPDEST POP DUP7 STATICCALL SWAP4 POP POP POP POP DUP1 ISZERO PUSH2 0x5012 JUMPI POP PUSH1 0x40 MLOAD RETURNDATASIZE PUSH1 0x0 DUP3 RETURNDATACOPY PUSH1 0x1F RETURNDATASIZE SWAP1 DUP2 ADD PUSH1 0x1F NOT AND DUP3 ADD PUSH1 0x40 MSTORE PUSH2 0x500F SWAP2 SWAP1 DUP2 ADD SWAP1 PUSH2 0x9363 JUMP JUMPDEST PUSH1 0x1 JUMPDEST PUSH2 0x5040 JUMPI RETURNDATASIZE DUP1 DUP1 ISZERO PUSH2 0x1C18 JUMPI PUSH1 0x40 MLOAD SWAP2 POP PUSH1 0x1F NOT PUSH1 0x3F RETURNDATASIZE ADD AND DUP3 ADD PUSH1 0x40 MSTORE RETURNDATASIZE DUP3 MSTORE RETURNDATASIZE PUSH1 0x0 PUSH1 0x20 DUP5 ADD RETURNDATACOPY PUSH2 0x1C1D JUMP JUMPDEST DUP1 PUSH1 0x0 DUP2 MLOAD DUP2 LT PUSH2 0x504D JUMPI INVALID JUMPDEST PUSH1 0x20 MUL PUSH1 0x20 ADD ADD MLOAD DUP5 DUP4 DUP2 MLOAD DUP2 LT PUSH2 0x5061 JUMPI INVALID JUMPDEST PUSH1 0x20 MUL PUSH1 0x20 ADD ADD DUP2 DUP2 MSTORE POP POP DUP4 DUP3 DUP2 MLOAD DUP2 LT PUSH2 0x5079 JUMPI INVALID JUMPDEST PUSH1 0x20 MUL PUSH1 0x20 ADD ADD MLOAD PUSH1 0x0 EQ ISZERO PUSH2 0x508F JUMPI POP PUSH2 0x1C7F JUMP JUMPDEST POP PUSH1 0x1 ADD PUSH2 0x4F77 JUMP JUMPDEST PUSH1 0x0 PUSH1 0x60 DUP1 PUSH2 0x50A7 DUP6 DUP8 PUSH2 0x61EA JUMP JUMPDEST PUSH2 0x50B2 DUP8 DUP8 DUP8 PUSH2 0x77F9 JUMP JUMPDEST SWAP3 POP DUP3 PUSH2 0x50BE JUMPI PUSH2 0xE61 JUMP JUMPDEST PUSH1 0x40 MLOAD PUSH4 0x276FDAD9 PUSH1 0xE1 SHL DUP2 MSTORE ADDRESS SWAP1 PUSH4 0x4EDFB5B2 SWAP1 PUSH2 0x50E7 SWAP1 DUP11 SWAP1 DUP8 SWAP1 DUP12 SWAP1 DUP12 SWAP1 PUSH1 0x4 ADD PUSH2 0xA3D4 JUMP JUMPDEST PUSH1 0x0 PUSH1 0x40 MLOAD DUP1 DUP4 SUB DUP2 DUP7 DUP1 EXTCODESIZE ISZERO DUP1 ISZERO PUSH2 0x50FF JUMPI PUSH1 0x0 DUP1 REVERT JUMPDEST POP GAS STATICCALL ISZERO DUP1 ISZERO PUSH2 0x5113 JUMPI RETURNDATASIZE PUSH1 0x0 DUP1 RETURNDATACOPY RETURNDATASIZE PUSH1 0x0 REVERT JUMPDEST POP POP POP POP PUSH1 0x40 MLOAD RETURNDATASIZE PUSH1 0x0 DUP3 RETURNDATACOPY PUSH1 0x1F RETURNDATASIZE SWAP1 DUP2 ADD PUSH1 0x1F NOT AND DUP3 ADD PUSH1 0x40 MSTORE PUSH2 0x513B SWAP2 SWAP1 DUP2 ADD SWAP1 PUSH2 0x93C9 JUMP JUMPDEST PUSH1 0x80 DUP9 ADD DUP2 SWAP1 MSTORE DUP5 MLOAD SWAP1 SWAP3 POP DUP1 PUSH1 0x1 PUSH1 0x1 PUSH1 0x40 SHL SUB DUP2 GT DUP1 ISZERO PUSH2 0x515D JUMPI PUSH1 0x0 DUP1 REVERT JUMPDEST POP PUSH1 0x40 MLOAD SWAP1 DUP1 DUP3 MSTORE DUP1 PUSH1 0x20 MUL PUSH1 0x20 ADD DUP3 ADD PUSH1 0x40 MSTORE DUP1 ISZERO PUSH2 0x5187 JUMPI DUP2 PUSH1 0x20 ADD PUSH1 0x20 DUP3 MUL DUP1 CALLDATASIZE DUP4 CALLDATACOPY ADD SWAP1 POP JUMPDEST POP SWAP2 POP PUSH1 0x0 JUMPDEST DUP2 DUP2 LT ISZERO PUSH2 0x5272 JUMPI PUSH1 0x0 ADDRESS PUSH1 0x1 PUSH1 0x1 PUSH1 0xA0 SHL SUB AND PUSH4 0xF1ED7FA4 DUP12 DUP12 DUP12 DUP12 DUP8 DUP2 MLOAD DUP2 LT PUSH2 0x51B5 JUMPI INVALID JUMPDEST PUSH1 0x20 MUL PUSH1 0x20 ADD ADD MLOAD PUSH1 0x40 MLOAD DUP6 PUSH4 0xFFFFFFFF AND PUSH1 0xE0 SHL DUP2 MSTORE PUSH1 0x4 ADD PUSH2 0x51DC SWAP5 SWAP4 SWAP3 SWAP2 SWAP1 PUSH2 0xA39E JUMP JUMPDEST PUSH1 0x20 PUSH1 0x40 MLOAD DUP1 DUP4 SUB DUP2 DUP7 DUP1 EXTCODESIZE ISZERO DUP1 ISZERO PUSH2 0x51F4 JUMPI PUSH1 0x0 DUP1 REVERT JUMPDEST POP GAS STATICCALL ISZERO DUP1 ISZERO PUSH2 0x5208 JUMPI RETURNDATASIZE PUSH1 0x0 DUP1 RETURNDATACOPY RETURNDATASIZE PUSH1 0x0 REVERT JUMPDEST POP POP POP POP PUSH1 0x40 MLOAD RETURNDATASIZE PUSH1 0x1F NOT PUSH1 0x1F DUP3 ADD AND DUP3 ADD DUP1 PUSH1 0x40 MSTORE POP DUP2 ADD SWAP1 PUSH2 0x522C SWAP2 SWAP1 PUSH2 0x93B1 JUMP JUMPDEST SWAP1 POP DUP1 DUP5 DUP4 DUP2 MLOAD DUP2 LT PUSH2 0x523B JUMPI INVALID JUMPDEST PUSH1 0x20 MUL PUSH1 0x20 ADD ADD DUP2 DUP2 MSTORE POP POP DUP4 DUP3 DUP2 MLOAD DUP2 LT PUSH2 0x5253 JUMPI INVALID JUMPDEST PUSH1 0x20 MUL PUSH1 0x20 ADD ADD MLOAD PUSH1 0x0 EQ ISZERO PUSH2 0x5269 JUMPI POP PUSH2 0x5272 JUMP JUMPDEST POP PUSH1 0x1 ADD PUSH2 0x518D JUMP JUMPDEST POP POP SWAP5 POP SWAP5 POP SWAP5 SWAP2 POP POP JUMP JUMPDEST PUSH1 0x0 DUP1 PUSH1 0x60 PUSH2 0x528D DUP6 DUP8 PUSH2 0x61EA JUMP JUMPDEST PUSH2 0x5299 DUP9 DUP9 DUP9 DUP9 PUSH2 0x7A47 JUMP JUMPDEST SWAP4 POP SWAP2 POP PUSH1 0x1 PUSH1 0x1 PUSH1 0xA0 SHL SUB DUP3 AND PUSH2 0x52B0 JUMPI PUSH2 0x483D JUMP JUMPDEST DUP4 MLOAD DUP1 PUSH1 0x1 PUSH1 0x1 PUSH1 0x40 SHL SUB DUP2 GT DUP1 ISZERO PUSH2 0x52C8 JUMPI PUSH1 0x0 DUP1 REVERT JUMPDEST POP PUSH1 0x40 MLOAD SWAP1 DUP1 DUP3 MSTORE DUP1 PUSH1 0x20 MUL PUSH1 0x20 ADD DUP3 ADD PUSH1 0x40 MSTORE DUP1 ISZERO PUSH2 0x52F2 JUMPI DUP2 PUSH1 0x20 ADD PUSH1 0x20 DUP3 MUL DUP1 CALLDATASIZE DUP4 CALLDATACOPY ADD SWAP1 POP JUMPDEST POP PUSH1 0x40 DUP1 MLOAD PUSH1 0x60 DUP2 ADD SWAP1 SWAP2 MSTORE SWAP1 SWAP3 POP PUSH2 0x535F SWAP1 DUP1 PUSH2 0x5316 DUP10 DUP8 DUP10 ISZERO PUSH1 0x80 DUP6 ADD PUSH2 0x9D53 JUMP JUMPDEST PUSH1 0x40 MLOAD PUSH1 0x20 DUP2 DUP4 SUB SUB DUP2 MSTORE SWAP1 PUSH1 0x40 MSTORE DUP2 MSTORE PUSH1 0x20 ADD DUP10 DUP7 DUP9 PUSH1 0x40 MLOAD PUSH1 0x20 ADD PUSH2 0x533F SWAP4 SWAP3 SWAP2 SWAP1 PUSH2 0x9D53 JUMP JUMPDEST PUSH1 0x40 MLOAD PUSH1 0x20 DUP2 DUP4 SUB SUB DUP2 MSTORE SWAP1 PUSH1 0x40 MSTORE DUP2 MSTORE PUSH1 0x20 ADD PUSH2 0x7B9C DUP2 MSTORE POP DUP7 PUSH2 0x6840 JUMP JUMPDEST SWAP2 POP POP SWAP6 POP SWAP6 POP SWAP6 SWAP3 POP POP POP JUMP JUMPDEST PUSH1 0x0 DUP1 PUSH1 0x60 PUSH2 0x537C DUP6 DUP8 PUSH2 0x61EA JUMP JUMPDEST DUP4 MLOAD DUP1 PUSH1 0x1 PUSH1 0x1 PUSH1 0x40 SHL SUB DUP2 GT DUP1 ISZERO PUSH2 0x5394 JUMPI PUSH1 0x0 DUP1 REVERT JUMPDEST POP PUSH1 0x40 MLOAD SWAP1 DUP1 DUP3 MSTORE DUP1 PUSH1 0x20 MUL PUSH1 0x20 ADD DUP3 ADD PUSH1 0x40 MSTORE DUP1 ISZERO PUSH2 0x53BE JUMPI DUP2 PUSH1 0x20 ADD PUSH1 0x20 DUP3 MUL DUP1 CALLDATASIZE DUP4 CALLDATACOPY ADD SWAP1 POP JUMPDEST POP DUP9 MLOAD PUSH1 0x40 MLOAD PUSH4 0x939D863 PUSH1 0xE1 SHL DUP2 MSTORE SWAP2 SWAP4 POP PUSH1 0x1 PUSH1 0x1 PUSH1 0xA0 SHL SUB AND SWAP1 PUSH4 0x1273B0C6 SWAP1 PUSH2 0x53F1 SWAP1 DUP11 SWAP1 DUP11 SWAP1 PUSH1 0x4 ADD PUSH2 0x9CB0 JUMP JUMPDEST PUSH1 0x20 PUSH1 0x40 MLOAD DUP1 DUP4 SUB DUP2 DUP7 DUP1 EXTCODESIZE ISZERO DUP1 ISZERO PUSH2 0x5409 JUMPI PUSH1 0x0 DUP1 REVERT JUMPDEST POP GAS STATICCALL ISZERO DUP1 ISZERO PUSH2 0x541D JUMPI RETURNDATASIZE PUSH1 0x0 DUP1 RETURNDATACOPY RETURNDATASIZE PUSH1 0x0 REVERT JUMPDEST POP POP POP POP PUSH1 0x40 MLOAD RETURNDATASIZE PUSH1 0x1F NOT PUSH1 0x1F DUP3 ADD AND DUP3 ADD DUP1 PUSH1 0x40 MSTORE POP DUP2 ADD SWAP1 PUSH2 0x5441 SWAP2 SWAP1 PUSH2 0x8B54 JUMP JUMPDEST SWAP3 POP PUSH1 0x0 PUSH1 0x1 PUSH1 0x1 PUSH1 0xA0 SHL SUB DUP5 AND ISZERO PUSH2 0x545F JUMPI POP PUSH1 0x1 SWAP4 POP DUP7 PUSH2 0x54FE JUMP JUMPDEST DUP9 MLOAD PUSH1 0x40 MLOAD PUSH4 0x939D863 PUSH1 0xE1 SHL DUP2 MSTORE PUSH1 0x1 PUSH1 0x1 PUSH1 0xA0 SHL SUB SWAP1 SWAP2 AND SWAP1 PUSH4 0x1273B0C6 SWAP1 PUSH2 0x5490 SWAP1 DUP11 SWAP1 DUP13 SWAP1 PUSH1 0x4 ADD PUSH2 0x9CB0 JUMP JUMPDEST PUSH1 0x20 PUSH1 0x40 MLOAD DUP1 DUP4 SUB DUP2 DUP7 DUP1 EXTCODESIZE ISZERO DUP1 ISZERO PUSH2 0x54A8 JUMPI PUSH1 0x0 DUP1 REVERT JUMPDEST POP GAS STATICCALL ISZERO DUP1 ISZERO PUSH2 0x54BC JUMPI RETURNDATASIZE PUSH1 0x0 DUP1 RETURNDATACOPY RETURNDATASIZE PUSH1 0x0 REVERT JUMPDEST POP POP POP POP PUSH1 0x40 MLOAD RETURNDATASIZE PUSH1 0x1F NOT PUSH1 0x1F DUP3 ADD AND DUP3 ADD DUP1 PUSH1 0x40 MSTORE POP DUP2 ADD SWAP1 PUSH2 0x54E0 SWAP2 SWAP1 PUSH2 0x8B54 JUMP JUMPDEST SWAP4 POP PUSH1 0x1 PUSH1 0x1 PUSH1 0xA0 SHL SUB DUP5 AND PUSH2 0x54F7 JUMPI POP POP PUSH2 0xE61 JUMP JUMPDEST POP PUSH1 0x0 SWAP4 POP DUP6 JUMPDEST DUP4 PUSH1 0x1 PUSH1 0x1 PUSH1 0xA0 SHL SUB AND PUSH4 0xDD58B41C PUSH1 0x40 MLOAD DUP2 PUSH4 0xFFFFFFFF AND PUSH1 0xE0 SHL DUP2 MSTORE PUSH1 0x4 ADD PUSH1 0x20 PUSH1 0x40 MLOAD DUP1 DUP4 SUB DUP2 DUP7 DUP1 EXTCODESIZE ISZERO DUP1 ISZERO PUSH2 0x5537 JUMPI PUSH1 0x0 DUP1 REVERT JUMPDEST POP GAS STATICCALL ISZERO DUP1 ISZERO PUSH2 0x554B JUMPI RETURNDATASIZE PUSH1 0x0 DUP1 RETURNDATACOPY RETURNDATASIZE PUSH1 0x0 REVERT JUMPDEST POP POP POP POP PUSH1 0x40 MLOAD RETURNDATASIZE PUSH1 0x1F NOT PUSH1 0x1F DUP3 ADD AND DUP3 ADD DUP1 PUSH1 0x40 MSTORE POP DUP2 ADD SWAP1 PUSH2 0x556F SWAP2 SWAP1 PUSH2 0x9395 JUMP JUMPDEST PUSH2 0x557A JUMPI POP POP PUSH2 0xE61 JUMP JUMPDEST PUSH2 0x55F2 PUSH1 0x40 MLOAD DUP1 PUSH1 0x60 ADD PUSH1 0x40 MSTORE DUP1 DUP10 DUP8 DUP6 DUP15 PUSH1 0x20 ADD MLOAD PUSH1 0x40 MLOAD PUSH1 0x20 ADD PUSH2 0x55A3 SWAP5 SWAP4 SWAP3 SWAP2 SWAP1 PUSH2 0x9CCA JUMP JUMPDEST PUSH1 0x40 MLOAD PUSH1 0x20 DUP2 DUP4 SUB SUB DUP2 MSTORE SWAP1 PUSH1 0x40 MSTORE DUP2 MSTORE PUSH1 0x20 ADD DUP11 DUP8 DUP6 DUP15 PUSH1 0x20 ADD MLOAD PUSH1 0x40 MLOAD PUSH1 0x20 ADD PUSH2 0x55D2 SWAP5 SWAP4 SWAP3 SWAP2 SWAP1 PUSH2 0x9CCA JUMP JUMPDEST PUSH1 0x40 MLOAD PUSH1 0x20 DUP2 DUP4 SUB SUB DUP2 MSTORE SWAP1 PUSH1 0x40 MSTORE DUP2 MSTORE PUSH1 0x20 ADD PUSH2 0x6A52 DUP2 MSTORE POP DUP8 PUSH2 0x6840 JUMP JUMPDEST SWAP3 POP POP POP SWAP5 POP SWAP5 POP SWAP5 SWAP2 POP POP JUMP JUMPDEST PUSH1 0x60 DUP4 MLOAD PUSH1 0x1 PUSH1 0x1 PUSH1 0x40 SHL SUB DUP2 GT DUP1 ISZERO PUSH2 0x5619 JUMPI PUSH1 0x0 DUP1 REVERT JUMPDEST POP PUSH1 0x40 MLOAD SWAP1 DUP1 DUP3 MSTORE DUP1 PUSH1 0x20 MUL PUSH1 0x20 ADD DUP3 ADD PUSH1 0x40 MSTORE DUP1 ISZERO PUSH2 0x5643 JUMPI DUP2 PUSH1 0x20 ADD PUSH1 0x20 DUP3 MUL DUP1 CALLDATASIZE DUP4 CALLDATACOPY ADD SWAP1 POP JUMPDEST POP SWAP1 POP PUSH1 0x0 JUMPDEST DUP5 MLOAD DUP2 EQ PUSH2 0xD03 JUMPI PUSH32 0x0 PUSH1 0x1 PUSH1 0x1 PUSH1 0xA0 SHL SUB AND DUP6 DUP3 DUP2 MLOAD DUP2 LT PUSH2 0x5687 JUMPI INVALID JUMPDEST PUSH1 0x20 MUL PUSH1 0x20 ADD ADD MLOAD PUSH1 0x1 PUSH1 0x1 PUSH1 0xA0 SHL SUB AND EQ PUSH2 0x56D3 JUMPI PUSH2 0x56CE DUP5 DUP5 DUP8 DUP5 DUP2 MLOAD DUP2 LT PUSH2 0x56AE JUMPI INVALID JUMPDEST PUSH1 0x20 MUL PUSH1 0x20 ADD ADD MLOAD PUSH1 0x1 PUSH1 0x1 PUSH1 0xA0 SHL SUB AND PUSH2 0x7E54 SWAP1 SWAP3 SWAP2 SWAP1 PUSH4 0xFFFFFFFF AND JUMP JUMPDEST PUSH2 0x56D6 JUMP JUMPDEST PUSH1 0x0 JUMPDEST DUP3 DUP3 DUP2 MLOAD DUP2 LT PUSH2 0x56E2 JUMPI INVALID JUMPDEST PUSH1 0x20 SWAP1 DUP2 MUL SWAP2 SWAP1 SWAP2 ADD ADD MSTORE PUSH1 0x1 ADD PUSH2 0x5649 JUMP JUMPDEST DUP1 MLOAD PUSH1 0x60 SWAP1 DUP1 PUSH1 0x1 PUSH1 0x1 PUSH1 0x40 SHL SUB DUP2 GT DUP1 ISZERO PUSH2 0x5710 JUMPI PUSH1 0x0 DUP1 REVERT JUMPDEST POP PUSH1 0x40 MLOAD SWAP1 DUP1 DUP3 MSTORE DUP1 PUSH1 0x20 MUL PUSH1 0x20 ADD DUP3 ADD PUSH1 0x40 MSTORE DUP1 ISZERO PUSH2 0x573A JUMPI DUP2 PUSH1 0x20 ADD PUSH1 0x20 DUP3 MUL DUP1 CALLDATASIZE DUP4 CALLDATACOPY ADD SWAP1 POP JUMPDEST POP SWAP2 POP PUSH1 0x0 JUMPDEST DUP2 DUP2 LT ISZERO PUSH2 0x1AFA JUMPI DUP7 PUSH1 0x1 PUSH1 0x1 PUSH1 0xA0 SHL SUB AND PUSH4 0x838E6A22 PUSH3 0x493E0 DUP9 DUP9 DUP9 DUP7 DUP2 MLOAD DUP2 LT PUSH2 0x5769 JUMPI INVALID JUMPDEST PUSH1 0x20 MUL PUSH1 0x20 ADD ADD MLOAD PUSH1 0x40 MLOAD DUP6 PUSH4 0xFFFFFFFF AND PUSH1 0xE0 SHL DUP2 MSTORE PUSH1 0x4 ADD PUSH2 0x578F SWAP4 SWAP3 SWAP2 SWAP1 PUSH2 0x9DAB JUMP JUMPDEST PUSH1 0x20 PUSH1 0x40 MLOAD DUP1 DUP4 SUB DUP2 DUP8 DUP1 EXTCODESIZE ISZERO DUP1 ISZERO PUSH2 0x57A7 JUMPI PUSH1 0x0 DUP1 REVERT JUMPDEST POP DUP7 STATICCALL SWAP4 POP POP POP POP DUP1 ISZERO PUSH2 0x57D8 JUMPI POP PUSH1 0x40 DUP1 MLOAD PUSH1 0x1F RETURNDATASIZE SWAP1 DUP2 ADD PUSH1 0x1F NOT AND DUP3 ADD SWAP1 SWAP3 MSTORE PUSH2 0x57D5 SWAP2 DUP2 ADD SWAP1 PUSH2 0x93B1 JUMP JUMPDEST PUSH1 0x1 JUMPDEST PUSH2 0x5806 JUMPI RETURNDATASIZE DUP1 DUP1 ISZERO PUSH2 0x1AAA JUMPI PUSH1 0x40 MLOAD SWAP2 POP PUSH1 0x1F NOT PUSH1 0x3F RETURNDATASIZE ADD AND DUP3 ADD PUSH1 0x40 MSTORE RETURNDATASIZE DUP3 MSTORE RETURNDATASIZE PUSH1 0x0 PUSH1 0x20 DUP5 ADD RETURNDATACOPY PUSH2 0x1AAF JUMP JUMPDEST DUP1 DUP5 DUP4 DUP2 MLOAD DUP2 LT PUSH2 0x5813 JUMPI INVALID JUMPDEST PUSH1 0x20 MUL PUSH1 0x20 ADD ADD DUP2 DUP2 MSTORE POP POP POP PUSH1 0x1 ADD PUSH2 0x5740 JUMP JUMPDEST PUSH1 0x0 DUP5 PUSH1 0x80 ADD MLOAD MLOAD PUSH1 0x0 EQ ISZERO PUSH2 0x5840 JUMPI POP PUSH1 0x0 PUSH2 0x14B3 JUMP JUMPDEST DUP5 PUSH1 0x40 ADD MLOAD PUSH1 0x1 PUSH1 0x1 PUSH1 0xA0 SHL SUB AND PUSH4 0x418436BC PUSH3 0x7A120 DUP8 PUSH1 0x60 ADD MLOAD PUSH1 0x1 PUSH1 0x1 PUSH1 0xA0 SHL SUB AND DUP8 PUSH1 0x1 PUSH1 0x1 PUSH1 0xA0 SHL SUB AND EQ PUSH2 0x587A JUMPI DUP7 PUSH2 0x5890 JUMP JUMPDEST PUSH20 0xEEEEEEEEEEEEEEEEEEEEEEEEEEEEEEEEEEEEEEEE JUMPDEST DUP9 PUSH1 0x60 ADD MLOAD PUSH1 0x1 PUSH1 0x1 PUSH1 0xA0 SHL SUB AND DUP8 PUSH1 0x1 PUSH1 0x1 PUSH1 0xA0 SHL SUB AND EQ PUSH2 0x58B3 JUMPI DUP7 PUSH2 0x58C9 JUMP JUMPDEST PUSH20 0xEEEEEEEEEEEEEEEEEEEEEEEEEEEEEEEEEEEEEEEE JUMPDEST DUP7 PUSH1 0x0 DUP12 PUSH1 0x80 ADD MLOAD PUSH1 0x40 MLOAD DUP8 PUSH4 0xFFFFFFFF AND PUSH1 0xE0 SHL DUP2 MSTORE PUSH1 0x4 ADD PUSH2 0x58F1 SWAP6 SWAP5 SWAP4 SWAP3 SWAP2 SWAP1 PUSH2 0x9DCF JUMP JUMPDEST PUSH1 0x20 PUSH1 0x40 MLOAD DUP1 DUP4 SUB DUP2 DUP8 DUP1 EXTCODESIZE ISZERO DUP1 ISZERO PUSH2 0x5909 JUMPI PUSH1 0x0 DUP1 REVERT JUMPDEST POP DUP7 STATICCALL SWAP4 POP POP POP POP DUP1 ISZERO PUSH2 0x593A JUMPI POP PUSH1 0x40 DUP1 MLOAD PUSH1 0x1F RETURNDATASIZE SWAP1 DUP2 ADD PUSH1 0x1F NOT AND DUP3 ADD SWAP1 SWAP3 MSTORE PUSH2 0x5937 SWAP2 DUP2 ADD SWAP1 PUSH2 0x93B1 JUMP JUMPDEST PUSH1 0x1 JUMPDEST PUSH2 0x5978 JUMPI RETURNDATASIZE DUP1 DUP1 ISZERO PUSH2 0x5968 JUMPI PUSH1 0x40 MLOAD SWAP2 POP PUSH1 0x1F NOT PUSH1 0x3F RETURNDATASIZE ADD AND DUP3 ADD PUSH1 0x40 MSTORE RETURNDATASIZE DUP3 MSTORE RETURNDATASIZE PUSH1 0x0 PUSH1 0x20 DUP5 ADD RETURNDATACOPY PUSH2 0x596D JUMP JUMPDEST PUSH1 0x60 SWAP2 POP JUMPDEST POP PUSH1 0x0 SWAP2 POP POP PUSH2 0x14B3 JUMP JUMPDEST PUSH1 0x0 PUSH2 0x5983 DUP6 PUSH2 0x7F20 JUMP JUMPDEST PUSH1 0xFF AND SWAP1 POP PUSH1 0x0 PUSH2 0x5993 DUP8 PUSH2 0x7F20 JUMP JUMPDEST PUSH1 0xFF AND SWAP1 POP PUSH8 0xDE0B6B3A7640000 DUP2 PUSH1 0xA EXP DUP4 PUSH1 0xA EXP DUP8 DUP7 MUL MUL DUP2 PUSH2 0x59B4 JUMPI INVALID JUMPDEST DIV DUP2 PUSH2 0x59BC JUMPI INVALID JUMPDEST DIV SWAP4 POP POP POP POP PUSH2 0x14B3 JUMP JUMPDEST PUSH1 0x0 PUSH1 0x60 PUSH2 0x59D5 DUP5 DUP7 PUSH2 0x61EA JUMP JUMPDEST DUP3 MLOAD DUP1 PUSH1 0x1 PUSH1 0x1 PUSH1 0x40 SHL SUB DUP2 GT DUP1 ISZERO PUSH2 0x59ED JUMPI PUSH1 0x0 DUP1 REVERT JUMPDEST POP PUSH1 0x40 MLOAD SWAP1 DUP1 DUP3 MSTORE DUP1 PUSH1 0x20 MUL PUSH1 0x20 ADD DUP3 ADD PUSH1 0x40 MSTORE DUP1 ISZERO PUSH2 0x5A17 JUMPI DUP2 PUSH1 0x20 ADD PUSH1 0x20 DUP3 MUL DUP1 CALLDATASIZE DUP4 CALLDATACOPY ADD SWAP1 POP JUMPDEST POP SWAP2 POP PUSH2 0x5A82 PUSH1 0x40 MLOAD DUP1 PUSH1 0x60 ADD PUSH1 0x40 MSTORE DUP1 DUP10 DUP9 PUSH1 0x40 MLOAD PUSH1 0x20 ADD PUSH2 0x5A3B SWAP3 SWAP2 SWAP1 PUSH2 0x9CB0 JUMP JUMPDEST PUSH1 0x40 MLOAD PUSH1 0x20 DUP2 DUP4 SUB SUB DUP2 MSTORE SWAP1 PUSH1 0x40 MSTORE DUP2 MSTORE PUSH1 0x20 ADD DUP10 DUP10 PUSH1 0x40 MLOAD PUSH1 0x20 ADD PUSH2 0x5A62 SWAP3 SWAP2 SWAP1 PUSH2 0x9CB0 JUMP JUMPDEST PUSH1 0x40 MLOAD PUSH1 0x20 DUP2 DUP4 SUB SUB DUP2 MSTORE SWAP1 PUSH1 0x40 MSTORE DUP2 MSTORE PUSH1 0x20 ADD PUSH2 0x7F2B DUP2 MSTORE POP DUP6 PUSH2 0x6840 JUMP JUMPDEST PUSH1 0x40 MLOAD PUSH4 0x901754D7 PUSH1 0xE0 SHL DUP2 MSTORE SWAP1 SWAP3 POP PUSH1 0x1 PUSH1 0x1 PUSH1 0xA0 SHL SUB DUP9 AND SWAP1 PUSH4 0x901754D7 SWAP1 PUSH2 0x4B4B SWAP1 DUP10 SWAP1 DUP10 SWAP1 PUSH1 0x4 ADD PUSH2 0x9CB0 JUMP JUMPDEST PUSH2 0x5ABB PUSH2 0x83FB JUMP JUMPDEST PUSH2 0x5AC3 PUSH2 0x83FB JUMP JUMPDEST PUSH1 0x0 NOT DUP1 PUSH1 0x0 JUMPDEST DUP7 MLOAD DUP2 EQ PUSH2 0x5BBF JUMPI PUSH2 0x5AFA PUSH1 0x20 DUP9 DUP4 DUP2 MLOAD DUP2 LT PUSH2 0x5AE3 JUMPI INVALID JUMPDEST PUSH1 0x20 MUL PUSH1 0x20 ADD ADD MLOAD MLOAD SUB DUP8 DUP10 DUP5 DUP2 MLOAD DUP2 LT PUSH2 0x362A JUMPI INVALID JUMPDEST PUSH1 0x0 PUSH1 0x60 ADDRESS PUSH1 0x1 PUSH1 0x1 PUSH1 0xA0 SHL SUB AND DUP10 DUP5 DUP2 MLOAD DUP2 LT PUSH2 0x5B14 JUMPI INVALID JUMPDEST PUSH1 0x20 MUL PUSH1 0x20 ADD ADD MLOAD PUSH1 0x40 MLOAD PUSH2 0x5B29 SWAP2 SWAP1 PUSH2 0x9C67 JUMP JUMPDEST PUSH1 0x0 PUSH1 0x40 MLOAD DUP1 DUP4 SUB DUP2 PUSH1 0x0 DUP7 GAS CALL SWAP2 POP POP RETURNDATASIZE DUP1 PUSH1 0x0 DUP2 EQ PUSH2 0x5B66 JUMPI PUSH1 0x40 MLOAD SWAP2 POP PUSH1 0x1F NOT PUSH1 0x3F RETURNDATASIZE ADD AND DUP3 ADD PUSH1 0x40 MSTORE RETURNDATASIZE DUP3 MSTORE RETURNDATASIZE PUSH1 0x0 PUSH1 0x20 DUP5 ADD RETURNDATACOPY PUSH2 0x5B6B JUMP JUMPDEST PUSH1 0x60 SWAP2 POP JUMPDEST POP SWAP2 POP SWAP2 POP DUP2 ISZERO PUSH2 0x5BB5 JUMPI PUSH1 0x0 PUSH2 0x5B8F PUSH1 0x20 DUP4 MLOAD SUB DUP4 PUSH2 0x7799 SWAP1 SWAP2 SWAP1 PUSH4 0xFFFFFFFF AND JUMP JUMPDEST SWAP1 POP PUSH1 0x0 DUP2 GT DUP1 ISZERO PUSH2 0x5BA0 JUMPI POP DUP5 DUP2 LT JUMPDEST ISZERO PUSH2 0x5BB3 JUMPI DUP4 DUP8 MSTORE PUSH1 0x20 DUP8 ADD DUP3 SWAP1 MSTORE SWAP4 POP DUP4 JUMPDEST POP JUMPDEST POP POP PUSH1 0x1 ADD PUSH2 0x5ACA JUMP JUMPDEST POP PUSH1 0x0 NOT DUP2 EQ ISZERO PUSH2 0x5BD0 JUMPI POP PUSH2 0x37F5 JUMP JUMPDEST PUSH1 0x0 JUMPDEST DUP8 MLOAD DUP2 EQ PUSH2 0x37F2 JUMPI PUSH2 0x5C03 PUSH1 0x20 DUP10 DUP4 DUP2 MLOAD DUP2 LT PUSH2 0x5BEC JUMPI INVALID JUMPDEST PUSH1 0x20 MUL PUSH1 0x20 ADD ADD MLOAD MLOAD SUB DUP4 DUP11 DUP5 DUP2 MLOAD DUP2 LT PUSH2 0x362A JUMPI INVALID JUMPDEST PUSH1 0x0 PUSH1 0x60 ADDRESS PUSH1 0x1 PUSH1 0x1 PUSH1 0xA0 SHL SUB AND DUP11 DUP5 DUP2 MLOAD DUP2 LT PUSH2 0x5C1D JUMPI INVALID JUMPDEST PUSH1 0x20 MUL PUSH1 0x20 ADD ADD MLOAD PUSH1 0x40 MLOAD PUSH2 0x5C32 SWAP2 SWAP1 PUSH2 0x9C67 JUMP JUMPDEST PUSH1 0x0 PUSH1 0x40 MLOAD DUP1 DUP4 SUB DUP2 PUSH1 0x0 DUP7 GAS CALL SWAP2 POP POP RETURNDATASIZE DUP1 PUSH1 0x0 DUP2 EQ PUSH2 0x5C6F JUMPI PUSH1 0x40 MLOAD SWAP2 POP PUSH1 0x1F NOT PUSH1 0x3F RETURNDATASIZE ADD AND DUP3 ADD PUSH1 0x40 MSTORE RETURNDATASIZE DUP3 MSTORE RETURNDATASIZE PUSH1 0x0 PUSH1 0x20 DUP5 ADD RETURNDATACOPY PUSH2 0x5C74 JUMP JUMPDEST PUSH1 0x60 SWAP2 POP JUMPDEST POP SWAP2 POP SWAP2 POP DUP2 ISZERO PUSH2 0x5CBE JUMPI PUSH1 0x0 PUSH2 0x5C98 PUSH1 0x20 DUP4 MLOAD SUB DUP4 PUSH2 0x7799 SWAP1 SWAP2 SWAP1 PUSH4 0xFFFFFFFF AND JUMP JUMPDEST SWAP1 POP PUSH1 0x0 DUP2 GT DUP1 ISZERO PUSH2 0x5CA9 JUMPI POP DUP6 DUP2 LT JUMPDEST ISZERO PUSH2 0x5CBC JUMPI DUP4 DUP9 MSTORE PUSH1 0x20 DUP9 ADD DUP3 SWAP1 MSTORE SWAP5 POP DUP5 JUMPDEST POP JUMPDEST POP POP PUSH1 0x1 ADD PUSH2 0x5BD3 JUMP JUMPDEST PUSH1 0x60 PUSH1 0x0 DUP4 PUSH1 0x1 PUSH1 0x1 PUSH1 0xA0 SHL SUB AND PUSH4 0xC45A0155 PUSH1 0x40 MLOAD DUP2 PUSH4 0xFFFFFFFF AND PUSH1 0xE0 SHL DUP2 MSTORE PUSH1 0x4 ADD PUSH1 0x20 PUSH1 0x40 MLOAD DUP1 DUP4 SUB DUP2 DUP7 DUP1 EXTCODESIZE ISZERO DUP1 ISZERO PUSH2 0x5D05 JUMPI PUSH1 0x0 DUP1 REVERT JUMPDEST POP GAS STATICCALL ISZERO DUP1 ISZERO PUSH2 0x5D19 JUMPI RETURNDATASIZE PUSH1 0x0 DUP1 RETURNDATACOPY RETURNDATASIZE PUSH1 0x0 REVERT JUMPDEST POP POP POP POP PUSH1 0x40 MLOAD RETURNDATASIZE PUSH1 0x1F NOT PUSH1 0x1F DUP3 ADD AND DUP3 ADD DUP1 PUSH1 0x40 MSTORE POP DUP2 ADD SWAP1 PUSH2 0x5D3D SWAP2 SWAP1 PUSH2 0x8B54 JUMP JUMPDEST SWAP1 POP PUSH1 0x1 DUP4 MLOAD SUB PUSH1 0x1 PUSH1 0x1 PUSH1 0x40 SHL SUB DUP2 GT DUP1 ISZERO PUSH2 0x5D59 JUMPI PUSH1 0x0 DUP1 REVERT JUMPDEST POP PUSH1 0x40 MLOAD SWAP1 DUP1 DUP3 MSTORE DUP1 PUSH1 0x20 MUL PUSH1 0x20 ADD DUP3 ADD PUSH1 0x40 MSTORE DUP1 ISZERO PUSH2 0x5D83 JUMPI DUP2 PUSH1 0x20 ADD PUSH1 0x20 DUP3 MUL DUP1 CALLDATASIZE DUP4 CALLDATACOPY ADD SWAP1 POP JUMPDEST POP SWAP2 POP PUSH1 0x0 JUMPDEST DUP3 MLOAD DUP2 LT ISZERO PUSH2 0x5FAF JUMPI PUSH1 0x60 DUP3 PUSH1 0x1 PUSH1 0x1 PUSH1 0xA0 SHL SUB AND PUSH4 0x5B1DC86F PUSH3 0x249F0 DUP8 DUP6 DUP2 MLOAD DUP2 LT PUSH2 0x5DB3 JUMPI INVALID JUMPDEST PUSH1 0x20 MUL PUSH1 0x20 ADD ADD MLOAD DUP9 DUP7 PUSH1 0x1 ADD DUP2 MLOAD DUP2 LT PUSH2 0x5DCA JUMPI INVALID JUMPDEST PUSH1 0x20 MUL PUSH1 0x20 ADD ADD MLOAD PUSH1 0x40 MLOAD DUP5 PUSH4 0xFFFFFFFF AND PUSH1 0xE0 SHL DUP2 MSTORE PUSH1 0x4 ADD PUSH2 0x5DEF SWAP3 SWAP2 SWAP1 PUSH2 0x9CB0 JUMP JUMPDEST PUSH1 0x0 PUSH1 0x40 MLOAD DUP1 DUP4 SUB DUP2 DUP8 DUP1 EXTCODESIZE ISZERO DUP1 ISZERO PUSH2 0x5E07 JUMPI PUSH1 0x0 DUP1 REVERT JUMPDEST POP DUP7 STATICCALL SWAP4 POP POP POP POP DUP1 ISZERO PUSH2 0x5E3D JUMPI POP PUSH1 0x40 MLOAD RETURNDATASIZE PUSH1 0x0 DUP3 RETURNDATACOPY PUSH1 0x1F RETURNDATASIZE SWAP1 DUP2 ADD PUSH1 0x1F NOT AND DUP3 ADD PUSH1 0x40 MSTORE PUSH2 0x5E3A SWAP2 SWAP1 DUP2 ADD SWAP1 PUSH2 0x8F0C JUMP JUMPDEST PUSH1 0x1 JUMPDEST PUSH2 0x5EAB JUMPI RETURNDATASIZE DUP1 DUP1 ISZERO PUSH2 0x5E6B JUMPI PUSH1 0x40 MLOAD SWAP2 POP PUSH1 0x1F NOT PUSH1 0x3F RETURNDATASIZE ADD AND DUP3 ADD PUSH1 0x40 MSTORE RETURNDATASIZE DUP3 MSTORE RETURNDATASIZE PUSH1 0x0 PUSH1 0x20 DUP5 ADD RETURNDATACOPY PUSH2 0x5E70 JUMP JUMPDEST PUSH1 0x60 SWAP2 POP JUMPDEST POP PUSH1 0x0 DUP1 JUMPDEST POP PUSH1 0x40 MLOAD SWAP1 DUP1 DUP3 MSTORE DUP1 PUSH1 0x20 MUL PUSH1 0x20 ADD DUP3 ADD PUSH1 0x40 MSTORE DUP1 ISZERO PUSH2 0x5E9F JUMPI DUP2 PUSH1 0x20 ADD PUSH1 0x20 DUP3 MUL DUP1 CALLDATASIZE DUP4 CALLDATACOPY ADD SWAP1 POP JUMPDEST POP SWAP5 POP POP POP POP POP PUSH2 0x5FB2 JUMP JUMPDEST DUP1 MLOAD PUSH2 0x5EB9 JUMPI PUSH1 0x0 DUP1 PUSH2 0x5E75 JUMP JUMPDEST PUSH1 0x0 DUP1 JUMPDEST DUP3 MLOAD DUP2 LT ISZERO PUSH2 0x5FA3 JUMPI PUSH1 0x0 DUP4 DUP3 DUP2 MLOAD DUP2 LT PUSH2 0x5ED4 JUMPI INVALID JUMPDEST PUSH1 0x20 MUL PUSH1 0x20 ADD ADD MLOAD PUSH1 0x1 PUSH1 0x1 PUSH1 0xA0 SHL SUB AND PUSH4 0x18160DDD PUSH1 0x40 MLOAD DUP2 PUSH4 0xFFFFFFFF AND PUSH1 0xE0 SHL DUP2 MSTORE PUSH1 0x4 ADD PUSH1 0x20 PUSH1 0x40 MLOAD DUP1 DUP4 SUB DUP2 DUP7 DUP1 EXTCODESIZE ISZERO DUP1 ISZERO PUSH2 0x5F14 JUMPI PUSH1 0x0 DUP1 REVERT JUMPDEST POP GAS STATICCALL ISZERO DUP1 ISZERO PUSH2 0x5F28 JUMPI RETURNDATASIZE PUSH1 0x0 DUP1 RETURNDATACOPY RETURNDATASIZE PUSH1 0x0 REVERT JUMPDEST POP POP POP POP PUSH1 0x40 MLOAD RETURNDATASIZE PUSH1 0x1F NOT PUSH1 0x1F DUP3 ADD AND DUP3 ADD DUP1 PUSH1 0x40 MSTORE POP DUP2 ADD SWAP1 PUSH2 0x5F4C SWAP2 SWAP1 PUSH2 0x93B1 JUMP JUMPDEST SWAP1 POP DUP3 DUP2 GT ISZERO PUSH2 0x5F9A JUMPI DUP1 SWAP3 POP DUP4 DUP3 DUP2 MLOAD DUP2 LT PUSH2 0x5F65 JUMPI INVALID JUMPDEST PUSH1 0x20 MUL PUSH1 0x20 ADD ADD MLOAD DUP9 DUP8 DUP2 MLOAD DUP2 LT PUSH2 0x5F79 JUMPI INVALID JUMPDEST PUSH1 0x20 MUL PUSH1 0x20 ADD ADD SWAP1 PUSH1 0x1 PUSH1 0x1 PUSH1 0xA0 SHL SUB AND SWAP1 DUP2 PUSH1 0x1 PUSH1 0x1 PUSH1 0xA0 SHL SUB AND DUP2 MSTORE POP POP JUMPDEST POP PUSH1 0x1 ADD PUSH2 0x5EBD JUMP JUMPDEST POP POP POP POP PUSH1 0x1 ADD PUSH2 0x5D89 JUMP JUMPDEST POP POP JUMPDEST SWAP3 SWAP2 POP POP JUMP JUMPDEST PUSH1 0x0 PUSH1 0x60 DUP6 PUSH1 0x0 ADD MLOAD PUSH1 0x1 PUSH1 0x1 PUSH1 0xA0 SHL SUB AND PUSH4 0x21F8A721 DUP8 PUSH1 0x0 ADD MLOAD PUSH1 0x1 PUSH1 0x1 PUSH1 0xA0 SHL SUB AND PUSH4 0x9232494E PUSH1 0x40 MLOAD DUP2 PUSH4 0xFFFFFFFF AND PUSH1 0xE0 SHL DUP2 MSTORE PUSH1 0x4 ADD PUSH1 0x20 PUSH1 0x40 MLOAD DUP1 DUP4 SUB DUP2 DUP7 DUP1 EXTCODESIZE ISZERO DUP1 ISZERO PUSH2 0x600C JUMPI PUSH1 0x0 DUP1 REVERT JUMPDEST POP GAS STATICCALL ISZERO DUP1 ISZERO PUSH2 0x6020 JUMPI RETURNDATASIZE PUSH1 0x0 DUP1 RETURNDATACOPY RETURNDATASIZE PUSH1 0x0 REVERT JUMPDEST POP POP POP POP PUSH1 0x40 MLOAD RETURNDATASIZE PUSH1 0x1F NOT PUSH1 0x1F DUP3 ADD AND DUP3 ADD DUP1 PUSH1 0x40 MSTORE POP DUP2 ADD SWAP1 PUSH2 0x6044 SWAP2 SWAP1 PUSH2 0x93B1 JUMP JUMPDEST PUSH1 0x40 MLOAD DUP3 PUSH4 0xFFFFFFFF AND PUSH1 0xE0 SHL DUP2 MSTORE PUSH1 0x4 ADD PUSH2 0x6060 SWAP2 SWAP1 PUSH2 0xA0B6 JUMP JUMPDEST PUSH1 0x20 PUSH1 0x40 MLOAD DUP1 DUP4 SUB DUP2 DUP7 DUP1 EXTCODESIZE ISZERO DUP1 ISZERO PUSH2 0x6078 JUMPI PUSH1 0x0 DUP1 REVERT JUMPDEST POP GAS STATICCALL ISZERO DUP1 ISZERO PUSH2 0x608C JUMPI RETURNDATASIZE PUSH1 0x0 DUP1 RETURNDATACOPY RETURNDATASIZE PUSH1 0x0 REVERT JUMPDEST POP POP POP POP PUSH1 0x40 MLOAD RETURNDATASIZE PUSH1 0x1F NOT PUSH1 0x1F DUP3 ADD AND DUP3 ADD DUP1 PUSH1 0x40 MSTORE POP DUP2 ADD SWAP1 PUSH2 0x60B0 SWAP2 SWAP1 PUSH2 0x8B54 JUMP JUMPDEST SWAP2 POP DUP6 PUSH1 0x20 ADD MLOAD MLOAD PUSH1 0x0 EQ ISZERO PUSH2 0x60C5 JUMPI PUSH2 0x61E1 JUMP JUMPDEST PUSH1 0x0 DUP1 JUMPDEST DUP8 PUSH1 0x20 ADD MLOAD MLOAD DUP2 LT ISZERO PUSH2 0x61DE JUMPI PUSH1 0x2 DUP9 PUSH1 0x20 ADD MLOAD DUP3 DUP2 MLOAD DUP2 LT PUSH2 0x60E8 JUMPI INVALID JUMPDEST PUSH1 0x20 MUL PUSH1 0x20 ADD ADD MLOAD MLOAD LT ISZERO PUSH2 0x60FC JUMPI PUSH2 0x61D6 JUMP JUMPDEST DUP4 PUSH1 0x1 PUSH1 0x1 PUSH1 0xA0 SHL SUB AND PUSH4 0x7F9C0ECD PUSH3 0x493E0 DUP11 PUSH1 0x20 ADD MLOAD DUP5 DUP2 MLOAD DUP2 LT PUSH2 0x611F JUMPI INVALID JUMPDEST PUSH1 0x20 MUL PUSH1 0x20 ADD ADD MLOAD DUP9 PUSH1 0x1 DUP11 MLOAD SUB DUP2 MLOAD DUP2 LT PUSH2 0x6137 JUMPI INVALID JUMPDEST PUSH1 0x20 MUL PUSH1 0x20 ADD ADD MLOAD PUSH1 0x40 MLOAD DUP5 PUSH4 0xFFFFFFFF AND PUSH1 0xE0 SHL DUP2 MSTORE PUSH1 0x4 ADD PUSH2 0x615C SWAP3 SWAP2 SWAP1 PUSH2 0x9F6D JUMP JUMPDEST PUSH1 0x20 PUSH1 0x40 MLOAD DUP1 DUP4 SUB DUP2 DUP8 DUP1 EXTCODESIZE ISZERO DUP1 ISZERO PUSH2 0x6174 JUMPI PUSH1 0x0 DUP1 REVERT JUMPDEST POP DUP7 STATICCALL SWAP4 POP POP POP POP DUP1 ISZERO PUSH2 0x61A5 JUMPI POP PUSH1 0x40 DUP1 MLOAD PUSH1 0x1F RETURNDATASIZE SWAP1 DUP2 ADD PUSH1 0x1F NOT AND DUP3 ADD SWAP1 SWAP3 MSTORE PUSH2 0x61A2 SWAP2 DUP2 ADD SWAP1 PUSH2 0x93B1 JUMP JUMPDEST PUSH1 0x1 JUMPDEST PUSH2 0x61AE JUMPI PUSH2 0x61D6 JUMP JUMPDEST DUP3 DUP2 GT ISZERO PUSH2 0x61D4 JUMPI DUP1 SWAP3 POP DUP9 PUSH1 0x20 ADD MLOAD DUP3 DUP2 MLOAD DUP2 LT PUSH2 0x61C9 JUMPI INVALID JUMPDEST PUSH1 0x20 MUL PUSH1 0x20 ADD ADD MLOAD SWAP4 POP JUMPDEST POP JUMPDEST PUSH1 0x1 ADD PUSH2 0x60C9 JUMP JUMPDEST POP POP JUMPDEST SWAP5 POP SWAP5 SWAP3 POP POP POP JUMP JUMPDEST DUP1 PUSH1 0x1 PUSH1 0x1 PUSH1 0xA0 SHL SUB AND DUP3 PUSH1 0x1 PUSH1 0x1 PUSH1 0xA0 SHL SUB AND EQ ISZERO PUSH2 0x6225 JUMPI PUSH1 0x40 MLOAD PUSH3 0x461BCD PUSH1 0xE5 SHL DUP2 MSTORE PUSH1 0x4 ADD PUSH2 0x621C SWAP1 PUSH2 0xA2AC JUMP JUMPDEST PUSH1 0x40 MLOAD DUP1 SWAP2 SUB SWAP1 REVERT JUMPDEST POP POP JUMP JUMPDEST PUSH2 0x6231 PUSH2 0x838D JUMP JUMPDEST POP PUSH1 0x40 DUP1 MLOAD PUSH1 0x80 DUP2 ADD DUP3 MSTORE ADDRESS DUP1 DUP3 MSTORE PUSH1 0x0 PUSH1 0x20 DUP4 ADD DUP2 SWAP1 MSTORE SWAP3 DUP3 ADD MSTORE PUSH1 0x60 DUP2 ADD SWAP2 SWAP1 SWAP2 MSTORE SWAP1 JUMP JUMPDEST PUSH1 0x40 DUP1 MLOAD PUSH1 0x1 DUP1 DUP3 MSTORE DUP2 DUP4 ADD SWAP1 SWAP3 MSTORE PUSH1 0x60 SWAP2 DUP3 SWAP2 SWAP1 DUP2 PUSH1 0x20 ADD JUMPDEST PUSH2 0x627A PUSH2 0x8437 JUMP JUMPDEST DUP2 MSTORE PUSH1 0x20 ADD SWAP1 PUSH1 0x1 SWAP1 SUB SWAP1 DUP2 PUSH2 0x6272 JUMPI SWAP1 POP POP SWAP1 POP PUSH1 0x40 MLOAD DUP1 PUSH1 0xA0 ADD PUSH1 0x40 MSTORE DUP1 DUP6 PUSH1 0x0 ADD MLOAD DUP2 MSTORE PUSH1 0x20 ADD PUSH1 0x0 DUP2 MSTORE PUSH1 0x20 ADD PUSH1 0x1 DUP2 MSTORE PUSH1 0x20 ADD DUP5 DUP2 MSTORE PUSH1 0x20 ADD PUSH1 0x40 MLOAD DUP1 PUSH1 0x20 ADD PUSH1 0x40 MSTORE DUP1 PUSH1 0x0 DUP2 MSTORE POP DUP2 MSTORE POP DUP2 PUSH1 0x0 DUP2 MLOAD DUP2 LT PUSH2 0x62D8 JUMPI INVALID JUMPDEST PUSH1 0x20 SWAP1 DUP2 MUL SWAP2 SWAP1 SWAP2 ADD ADD MSTORE SWAP4 SWAP3 POP POP POP JUMP JUMPDEST PUSH1 0x40 MLOAD PUSH4 0x3795FB1 PUSH1 0xE1 SHL DUP2 MSTORE PUSH1 0x0 SWAP1 PUSH1 0x1 PUSH1 0x1 PUSH1 0xA0 SHL SUB DUP5 AND SWAP1 PUSH4 0x6F2BF62 SWAP1 PUSH2 0x6319 SWAP1 DUP6 SWAP1 PUSH1 0x4 ADD PUSH2 0x9C83 JUMP JUMPDEST PUSH1 0x20 PUSH1 0x40 MLOAD DUP1 DUP4 SUB DUP2 DUP7 DUP1 EXTCODESIZE ISZERO DUP1 ISZERO PUSH2 0x6331 JUMPI PUSH1 0x0 DUP1 REVERT JUMPDEST POP GAS STATICCALL ISZERO DUP1 ISZERO PUSH2 0x6345 JUMPI RETURNDATASIZE PUSH1 0x0 DUP1 RETURNDATACOPY RETURNDATASIZE PUSH1 0x0 REVERT JUMPDEST POP POP POP POP PUSH1 0x40 MLOAD RETURNDATASIZE PUSH1 0x1F NOT PUSH1 0x1F DUP3 ADD AND DUP3 ADD DUP1 PUSH1 0x40 MSTORE POP DUP2 ADD SWAP1 PUSH2 0x4077 SWAP2 SWAP1 PUSH2 0x8B54 JUMP JUMPDEST PUSH1 0x0 DUP1 PUSH1 0x1 PUSH1 0x1 PUSH1 0xA0 SHL SUB DUP6 AND PUSH2 0x637F JUMPI PUSH2 0xB90 JUMP JUMPDEST PUSH1 0x60 DUP6 PUSH1 0x1 PUSH1 0x1 PUSH1 0xA0 SHL SUB AND PUSH3 0x249F0 DUP7 DUP7 PUSH1 0x40 MLOAD PUSH1 0x24 ADD PUSH2 0x63A1 SWAP2 SWAP1 PUSH2 0xA0B6 JUMP JUMPDEST PUSH1 0x40 DUP1 MLOAD PUSH1 0x1F NOT DUP2 DUP5 SUB ADD DUP2 MSTORE SWAP2 DUP2 MSTORE PUSH1 0x20 DUP3 ADD DUP1 MLOAD PUSH1 0x1 PUSH1 0x1 PUSH1 0xE0 SHL SUB AND PUSH1 0x1 PUSH1 0x1 PUSH1 0xE0 SHL SUB NOT SWAP1 SWAP5 AND SWAP4 SWAP1 SWAP4 OR SWAP1 SWAP3 MSTORE SWAP1 MLOAD PUSH2 0x63DF SWAP2 SWAP1 PUSH2 0x9C67 JUMP JUMPDEST PUSH1 0x0 PUSH1 0x40 MLOAD DUP1 DUP4 SUB DUP2 DUP7 DUP7 STATICCALL SWAP3 POP POP POP RETURNDATASIZE DUP1 PUSH1 0x0 DUP2 EQ PUSH2 0x641B JUMPI PUSH1 0x40 MLOAD SWAP2 POP PUSH1 0x1F NOT PUSH1 0x3F RETURNDATASIZE ADD AND DUP3 ADD PUSH1 0x40 MSTORE RETURNDATASIZE DUP3 MSTORE RETURNDATASIZE PUSH1 0x0 PUSH1 0x20 DUP5 ADD RETURNDATACOPY PUSH2 0x6420 JUMP JUMPDEST PUSH1 0x60 SWAP2 POP JUMPDEST POP SWAP1 SWAP3 POP SWAP1 POP DUP2 ISZERO PUSH2 0x6443 JUMPI DUP1 DUP1 PUSH1 0x20 ADD SWAP1 MLOAD DUP2 ADD SWAP1 PUSH2 0x6440 SWAP2 SWAP1 PUSH2 0x93B1 JUMP JUMPDEST SWAP3 POP JUMPDEST POP SWAP4 POP SWAP4 SWAP2 POP POP JUMP JUMPDEST PUSH1 0x0 DUP1 PUSH1 0x0 DUP1 DUP5 PUSH1 0x1 PUSH1 0x1 PUSH1 0xA0 SHL SUB AND PUSH4 0xD9638D36 DUP12 PUSH1 0x20 ADD MLOAD PUSH1 0x40 MLOAD DUP3 PUSH4 0xFFFFFFFF AND PUSH1 0xE0 SHL DUP2 MSTORE PUSH1 0x4 ADD PUSH2 0x6482 SWAP2 SWAP1 PUSH2 0xA0B6 JUMP JUMPDEST PUSH1 0xA0 PUSH1 0x40 MLOAD DUP1 DUP4 SUB DUP2 DUP7 DUP1 EXTCODESIZE ISZERO DUP1 ISZERO PUSH2 0x649A JUMPI PUSH1 0x0 DUP1 REVERT JUMPDEST POP GAS STATICCALL ISZERO DUP1 ISZERO PUSH2 0x64AE JUMPI RETURNDATASIZE PUSH1 0x0 DUP1 RETURNDATACOPY RETURNDATASIZE PUSH1 0x0 REVERT JUMPDEST POP POP POP POP PUSH1 0x40 MLOAD RETURNDATASIZE PUSH1 0x1F NOT PUSH1 0x1F DUP3 ADD AND DUP3 ADD DUP1 PUSH1 0x40 MSTORE POP DUP2 ADD SWAP1 PUSH2 0x64D2 SWAP2 SWAP1 PUSH2 0x9916 JUMP JUMPDEST SWAP5 POP SWAP5 POP POP POP SWAP3 POP PUSH1 0x0 PUSH3 0xF4240 SWAP1 POP DUP11 PUSH1 0x40 ADD MLOAD PUSH1 0x1 PUSH1 0x1 PUSH1 0xA0 SHL SUB AND DUP10 PUSH1 0x1 PUSH1 0x1 PUSH1 0xA0 SHL SUB AND EQ ISZERO PUSH2 0x65FA JUMPI PUSH1 0x0 PUSH2 0x6511 DUP10 PUSH5 0xE8D4A51000 PUSH2 0x7F7B JUMP JUMPDEST SWAP1 POP PUSH1 0x0 PUSH2 0x6535 PUSH12 0x33B2E3C9FD0803CE8000000 PUSH2 0x652F DUP9 DUP6 PUSH2 0x7FB1 JUMP JUMPDEST SWAP1 PUSH2 0x7F7B JUMP JUMPDEST SWAP1 POP DUP5 DUP2 LT PUSH2 0x654D JUMPI PUSH1 0x0 SWAP7 POP POP POP POP POP POP POP PUSH2 0x6703 JUMP JUMPDEST PUSH1 0x0 PUSH2 0x65DC PUSH8 0xDE0B6B3A7640000 PUSH2 0x65D6 DUP13 PUSH1 0x1 PUSH1 0x1 PUSH1 0xA0 SHL SUB AND PUSH4 0x568D4B6F PUSH1 0x40 MLOAD DUP2 PUSH4 0xFFFFFFFF AND PUSH1 0xE0 SHL DUP2 MSTORE PUSH1 0x4 ADD PUSH1 0x20 PUSH1 0x40 MLOAD DUP1 DUP4 SUB DUP2 DUP7 DUP1 EXTCODESIZE ISZERO DUP1 ISZERO PUSH2 0x6597 JUMPI PUSH1 0x0 DUP1 REVERT JUMPDEST POP GAS STATICCALL ISZERO DUP1 ISZERO PUSH2 0x65AB JUMPI RETURNDATASIZE PUSH1 0x0 DUP1 RETURNDATACOPY RETURNDATASIZE PUSH1 0x0 REVERT JUMPDEST POP POP POP POP PUSH1 0x40 MLOAD RETURNDATASIZE PUSH1 0x1F NOT PUSH1 0x1F DUP3 ADD AND DUP3 ADD DUP1 PUSH1 0x40 MSTORE POP DUP2 ADD SWAP1 PUSH2 0x65CF SWAP2 SWAP1 PUSH2 0x93B1 JUMP JUMPDEST DUP7 SWAP1 PUSH2 0x7F7B JUMP JUMPDEST SWAP1 PUSH2 0x7FCD JUMP JUMPDEST SWAP1 POP PUSH1 0x0 PUSH2 0x65EA DUP5 DUP4 PUSH2 0x7FF7 JUMP JUMPDEST SWAP9 POP PUSH2 0x6703 SWAP8 POP POP POP POP POP POP POP POP JUMP JUMPDEST DUP11 PUSH1 0x40 ADD MLOAD PUSH1 0x1 PUSH1 0x1 PUSH1 0xA0 SHL SUB AND DUP11 PUSH1 0x1 PUSH1 0x1 PUSH1 0xA0 SHL SUB AND EQ ISZERO PUSH2 0x66FA JUMPI DUP8 DUP5 DUP2 GT ISZERO PUSH2 0x662F JUMPI PUSH1 0x0 SWAP6 POP POP POP POP POP POP PUSH2 0x6703 JUMP JUMPDEST PUSH1 0x0 PUSH2 0x664B PUSH12 0x33B2E3C9FD0803CE8000000 PUSH2 0x652F DUP9 DUP6 PUSH2 0x7FF7 JUMP JUMPDEST SWAP1 POP DUP4 DUP2 GT PUSH2 0x6663 JUMPI PUSH1 0x0 SWAP7 POP POP POP POP POP POP POP PUSH2 0x6703 JUMP JUMPDEST PUSH1 0x0 PUSH2 0x66E8 DUP11 PUSH1 0x1 PUSH1 0x1 PUSH1 0xA0 SHL SUB AND PUSH4 0xFAE036D5 PUSH1 0x40 MLOAD DUP2 PUSH4 0xFFFFFFFF AND PUSH1 0xE0 SHL DUP2 MSTORE PUSH1 0x4 ADD PUSH1 0x20 PUSH1 0x40 MLOAD DUP1 DUP4 SUB DUP2 DUP7 DUP1 EXTCODESIZE ISZERO DUP1 ISZERO PUSH2 0x66A1 JUMPI PUSH1 0x0 DUP1 REVERT JUMPDEST POP GAS STATICCALL ISZERO DUP1 ISZERO PUSH2 0x66B5 JUMPI RETURNDATASIZE PUSH1 0x0 DUP1 RETURNDATACOPY RETURNDATASIZE PUSH1 0x0 REVERT JUMPDEST POP POP POP POP PUSH1 0x40 MLOAD RETURNDATASIZE PUSH1 0x1F NOT PUSH1 0x1F DUP3 ADD AND DUP3 ADD DUP1 PUSH1 0x40 MSTORE POP DUP2 ADD SWAP1 PUSH2 0x66D9 SWAP2 SWAP1 PUSH2 0x93B1 JUMP JUMPDEST PUSH8 0xDE0B6B3A7640000 SWAP1 PUSH2 0x7FB1 JUMP JUMPDEST SWAP1 POP PUSH1 0x0 PUSH2 0x65EA DUP3 PUSH2 0x65D6 DUP7 DUP9 PUSH2 0x7F7B JUMP JUMPDEST PUSH1 0x0 SWAP5 POP POP POP POP POP JUMPDEST SWAP7 SWAP6 POP POP POP POP POP POP JUMP JUMPDEST PUSH1 0x0 DUP1 PUSH2 0x6718 PUSH2 0x8469 JUMP JUMPDEST DUP6 DUP1 PUSH1 0x20 ADD SWAP1 MLOAD DUP2 ADD SWAP1 PUSH2 0x672C SWAP2 SWAP1 PUSH2 0x945D JUMP JUMPDEST SWAP2 POP SWAP2 POP PUSH1 0x0 DUP6 DUP1 PUSH1 0x20 ADD SWAP1 MLOAD DUP2 ADD SWAP1 PUSH2 0x6746 SWAP2 SWAP1 PUSH2 0x9441 JUMP JUMPDEST SWAP1 POP PUSH1 0x0 PUSH1 0x60 ADDRESS PUSH4 0x22DB5ED1 PUSH1 0xE2 SHL DUP6 DUP8 DUP7 PUSH2 0x6761 DUP13 PUSH2 0x8016 JUMP JUMPDEST PUSH1 0x40 MLOAD PUSH1 0x24 ADD PUSH2 0x6774 SWAP5 SWAP4 SWAP3 SWAP2 SWAP1 PUSH2 0xA336 JUMP JUMPDEST PUSH1 0x40 DUP1 MLOAD PUSH1 0x1F NOT DUP2 DUP5 SUB ADD DUP2 MSTORE SWAP2 DUP2 MSTORE PUSH1 0x20 DUP3 ADD DUP1 MLOAD PUSH1 0x1 PUSH1 0x1 PUSH1 0xE0 SHL SUB AND PUSH1 0x1 PUSH1 0x1 PUSH1 0xE0 SHL SUB NOT SWAP1 SWAP5 AND SWAP4 SWAP1 SWAP4 OR SWAP1 SWAP3 MSTORE SWAP1 MLOAD PUSH2 0x67B2 SWAP2 SWAP1 PUSH2 0x9C67 JUMP JUMPDEST PUSH1 0x0 PUSH1 0x40 MLOAD DUP1 DUP4 SUB DUP2 DUP6 GAS STATICCALL SWAP2 POP POP RETURNDATASIZE DUP1 PUSH1 0x0 DUP2 EQ PUSH2 0x67ED JUMPI PUSH1 0x40 MLOAD SWAP2 POP PUSH1 0x1F NOT PUSH1 0x3F RETURNDATASIZE ADD AND DUP3 ADD PUSH1 0x40 MSTORE RETURNDATASIZE DUP3 MSTORE RETURNDATASIZE PUSH1 0x0 PUSH1 0x20 DUP5 ADD RETURNDATACOPY PUSH2 0x67F2 JUMP JUMPDEST PUSH1 0x60 SWAP2 POP JUMPDEST POP SWAP2 POP SWAP2 POP DUP2 PUSH2 0x680A JUMPI PUSH1 0x0 SWAP6 POP POP POP POP POP POP PUSH2 0x4077 JUMP JUMPDEST DUP1 DUP1 PUSH1 0x20 ADD SWAP1 MLOAD DUP2 ADD SWAP1 PUSH2 0x681E SWAP2 SWAP1 PUSH2 0x9363 JUMP JUMPDEST PUSH1 0x0 DUP2 MLOAD DUP2 LT PUSH2 0x682A JUMPI INVALID JUMPDEST PUSH1 0x20 MUL PUSH1 0x20 ADD ADD MLOAD SWAP6 POP POP POP POP POP POP SWAP4 SWAP3 POP POP POP JUMP JUMPDEST PUSH1 0x60 DUP2 MLOAD PUSH1 0x1 PUSH1 0x1 PUSH1 0x40 SHL SUB DUP2 GT DUP1 ISZERO PUSH2 0x6859 JUMPI PUSH1 0x0 DUP1 REVERT JUMPDEST POP PUSH1 0x40 MLOAD SWAP1 DUP1 DUP3 MSTORE DUP1 PUSH1 0x20 MUL PUSH1 0x20 ADD DUP3 ADD PUSH1 0x40 MSTORE DUP1 ISZERO PUSH2 0x6883 JUMPI DUP2 PUSH1 0x20 ADD PUSH1 0x20 DUP3 MUL DUP1 CALLDATASIZE DUP4 CALLDATACOPY ADD SWAP1 POP JUMPDEST POP SWAP1 POP DUP2 MLOAD PUSH1 0x0 EQ ISZERO PUSH2 0x6895 JUMPI PUSH2 0x5FB2 JUMP JUMPDEST PUSH1 0x0 PUSH2 0x68C6 DUP5 PUSH1 0x0 ADD MLOAD DUP6 PUSH1 0x20 ADD MLOAD DUP6 PUSH1 0x0 DUP2 MLOAD DUP2 LT PUSH2 0x68B1 JUMPI INVALID JUMPDEST PUSH1 0x20 MUL PUSH1 0x20 ADD ADD MLOAD DUP8 PUSH1 0x40 ADD MLOAD PUSH4 0xFFFFFFFF AND JUMP JUMPDEST SWAP1 POP DUP1 PUSH2 0x68D3 JUMPI POP PUSH2 0x5FB2 JUMP JUMPDEST PUSH1 0x0 PUSH2 0x68F0 DUP6 PUSH1 0x20 ADD MLOAD DUP7 PUSH1 0x0 ADD MLOAD DUP5 DUP9 PUSH1 0x40 ADD MLOAD PUSH4 0xFFFFFFFF AND JUMP JUMPDEST SWAP1 POP DUP1 PUSH2 0x68FE JUMPI POP POP PUSH2 0x5FB2 JUMP JUMPDEST PUSH1 0x0 JUMPDEST DUP5 MLOAD DUP2 LT ISZERO PUSH2 0x6A49 JUMPI PUSH1 0x0 DUP1 JUMPDEST PUSH1 0x5 DUP2 LT ISZERO PUSH2 0x69F2 JUMPI PUSH2 0x6935 DUP8 DUP5 DUP2 MLOAD DUP2 LT PUSH2 0x6926 JUMPI INVALID JUMPDEST PUSH1 0x20 MUL PUSH1 0x20 ADD ADD MLOAD DUP6 DUP8 PUSH2 0x8057 JUMP JUMPDEST SWAP5 POP DUP5 PUSH2 0x6941 JUMPI PUSH2 0x69F2 JUMP JUMPDEST PUSH2 0x6950 PUSH2 0x2715 PUSH2 0x2710 DUP8 PUSH2 0x8057 JUMP JUMPDEST SWAP5 POP DUP5 PUSH2 0x695C JUMPI PUSH2 0x69F2 JUMP JUMPDEST PUSH1 0x0 PUSH2 0x6979 DUP10 PUSH1 0x20 ADD MLOAD DUP11 PUSH1 0x0 ADD MLOAD DUP9 DUP13 PUSH1 0x40 ADD MLOAD PUSH4 0xFFFFFFFF AND JUMP JUMPDEST SWAP1 POP DUP1 PUSH2 0x6986 JUMPI POP PUSH2 0x69F2 JUMP JUMPDEST DUP1 SWAP5 POP DUP8 DUP5 DUP2 MLOAD DUP2 LT PUSH2 0x6995 JUMPI INVALID JUMPDEST PUSH1 0x20 MUL PUSH1 0x20 ADD ADD MLOAD DUP6 LT PUSH2 0x69E9 JUMPI DUP8 DUP5 DUP2 MLOAD DUP2 LT PUSH2 0x69AF JUMPI INVALID JUMPDEST PUSH1 0x20 MUL PUSH1 0x20 ADD ADD MLOAD PUSH2 0x2710 DUP10 DUP7 DUP2 MLOAD DUP2 LT PUSH2 0x69C6 JUMPI INVALID JUMPDEST PUSH1 0x20 MUL PUSH1 0x20 ADD ADD MLOAD DUP8 SUB MUL DUP2 PUSH2 0x69D8 JUMPI INVALID JUMPDEST DIV SWAP3 POP PUSH1 0x5 DUP4 GT PUSH2 0x69E9 JUMPI POP PUSH2 0x69F2 JUMP JUMPDEST POP PUSH1 0x1 ADD PUSH2 0x690E JUMP JUMPDEST POP DUP1 ISZERO DUP1 PUSH2 0x6A00 JUMPI POP PUSH1 0x5 DUP2 GT JUMPDEST ISZERO PUSH2 0x6A0B JUMPI POP PUSH2 0x6A49 JUMP JUMPDEST PUSH2 0x6A29 DUP7 DUP4 DUP2 MLOAD DUP2 LT PUSH2 0x6A1A JUMPI INVALID JUMPDEST PUSH1 0x20 MUL PUSH1 0x20 ADD ADD MLOAD DUP5 DUP7 PUSH2 0x8057 JUMP JUMPDEST DUP6 DUP4 DUP2 MLOAD DUP2 LT PUSH2 0x6A35 JUMPI INVALID JUMPDEST PUSH1 0x20 SWAP1 DUP2 MUL SWAP2 SWAP1 SWAP2 ADD ADD MSTORE POP PUSH1 0x1 ADD PUSH2 0x6901 JUMP JUMPDEST POP POP POP SWAP3 SWAP2 POP POP JUMP JUMPDEST PUSH1 0x0 DUP1 PUSH1 0x0 DUP1 PUSH1 0x0 DUP8 DUP1 PUSH1 0x20 ADD SWAP1 MLOAD DUP2 ADD SWAP1 PUSH2 0x6A6E SWAP2 SWAP1 PUSH2 0x8BA9 JUMP JUMPDEST SWAP4 POP SWAP4 POP SWAP4 POP SWAP4 POP DUP2 PUSH1 0x1 PUSH1 0x1 PUSH1 0xA0 SHL SUB AND DUP5 PUSH1 0x1 PUSH1 0x1 PUSH1 0xA0 SHL SUB AND EQ ISZERO PUSH2 0x6B58 JUMPI PUSH1 0x40 MLOAD PUSH4 0x51400F0B PUSH1 0xE1 SHL DUP2 MSTORE PUSH1 0x1 PUSH1 0x1 PUSH1 0xA0 SHL SUB DUP5 AND SWAP1 PUSH4 0xA2801E16 SWAP1 PUSH3 0x493E0 SWAP1 PUSH2 0x6AC1 SWAP1 DUP11 SWAP1 PUSH1 0x4 ADD PUSH2 0xA0B6 JUMP JUMPDEST PUSH1 0x20 PUSH1 0x40 MLOAD DUP1 DUP4 SUB DUP2 DUP8 DUP1 EXTCODESIZE ISZERO DUP1 ISZERO PUSH2 0x6AD9 JUMPI PUSH1 0x0 DUP1 REVERT JUMPDEST POP DUP7 STATICCALL SWAP4 POP POP POP POP DUP1 ISZERO PUSH2 0x6B0A JUMPI POP PUSH1 0x40 DUP1 MLOAD PUSH1 0x1F RETURNDATASIZE SWAP1 DUP2 ADD PUSH1 0x1F NOT AND DUP3 ADD SWAP1 SWAP3 MSTORE PUSH2 0x6B07 SWAP2 DUP2 ADD SWAP1 PUSH2 0x93B1 JUMP JUMPDEST PUSH1 0x1 JUMPDEST PUSH2 0x6B4C JUMPI RETURNDATASIZE DUP1 DUP1 ISZERO PUSH2 0x6B38 JUMPI PUSH1 0x40 MLOAD SWAP2 POP PUSH1 0x1F NOT PUSH1 0x3F RETURNDATASIZE ADD AND DUP3 ADD PUSH1 0x40 MSTORE RETURNDATASIZE DUP3 MSTORE RETURNDATASIZE PUSH1 0x0 PUSH1 0x20 DUP5 ADD RETURNDATACOPY PUSH2 0x6B3D JUMP JUMPDEST PUSH1 0x60 SWAP2 POP JUMPDEST POP PUSH1 0x0 SWAP6 POP POP POP POP POP POP PUSH2 0x4077 JUMP JUMPDEST SWAP5 POP PUSH2 0x4077 SWAP4 POP POP POP POP JUMP JUMPDEST PUSH1 0x40 MLOAD PUSH4 0xCA19EBD9 PUSH1 0xE0 SHL DUP2 MSTORE PUSH1 0x1 PUSH1 0x1 PUSH1 0xA0 SHL SUB DUP3 AND SWAP1 PUSH4 0xCA19EBD9 SWAP1 PUSH3 0x493E0 SWAP1 PUSH2 0x6AC1 SWAP1 DUP8 SWAP1 DUP12 SWAP1 PUSH1 0x4 ADD PUSH2 0x9C97 JUMP JUMPDEST PUSH1 0x60 PUSH1 0x2 DUP3 DUP5 MLOAD SUB LT ISZERO PUSH2 0x6BB1 JUMPI PUSH1 0x40 MLOAD PUSH3 0x461BCD PUSH1 0xE5 SHL DUP2 MSTORE PUSH1 0x4 ADD PUSH2 0x621C SWAP1 PUSH2 0xA268 JUMP JUMPDEST PUSH2 0x6BB9 PUSH2 0x8489 JUMP JUMPDEST POP PUSH1 0x40 DUP1 MLOAD PUSH1 0x80 DUP2 ADD DUP3 MSTORE PUSH1 0x64 DUP2 MSTORE PUSH2 0x1F4 PUSH1 0x20 DUP3 ADD MSTORE PUSH2 0xBB8 DUP2 DUP4 ADD MSTORE PUSH2 0x2710 PUSH1 0x60 DUP1 DUP4 ADD SWAP2 SWAP1 SWAP2 MSTORE DUP3 MLOAD PUSH1 0x4 DUP1 DUP3 MSTORE PUSH1 0xA0 DUP3 ADD SWAP1 SWAP5 MSTORE SWAP2 SWAP3 SWAP1 SWAP2 SWAP1 DUP2 PUSH1 0x20 ADD PUSH1 0x20 DUP3 MUL DUP1 CALLDATASIZE DUP4 CALLDATACOPY ADD SWAP1 POP POP SWAP1 POP PUSH1 0x0 DUP1 DUP7 DUP7 DUP2 MLOAD DUP2 LT PUSH2 0x6C17 JUMPI INVALID JUMPDEST PUSH1 0x20 MUL PUSH1 0x20 ADD ADD MLOAD SWAP1 POP PUSH1 0x0 DUP8 DUP8 PUSH1 0x1 ADD DUP2 MLOAD DUP2 LT PUSH2 0x6C32 JUMPI INVALID JUMPDEST PUSH1 0x20 MUL PUSH1 0x20 ADD ADD MLOAD SWAP1 POP PUSH1 0x0 JUMPDEST PUSH1 0x4 DUP2 LT ISZERO PUSH2 0x6D27 JUMPI PUSH1 0x0 DUP11 PUSH1 0x1 PUSH1 0x1 PUSH1 0xA0 SHL SUB AND PUSH4 0x1698EE82 DUP6 DUP6 DUP11 DUP7 PUSH1 0x4 DUP2 LT PUSH2 0x6C67 JUMPI INVALID JUMPDEST PUSH1 0x20 MUL ADD MLOAD PUSH1 0x40 MLOAD DUP5 PUSH4 0xFFFFFFFF AND PUSH1 0xE0 SHL DUP2 MSTORE PUSH1 0x4 ADD PUSH2 0x6C8A SWAP4 SWAP3 SWAP2 SWAP1 PUSH2 0xA0FE JUMP JUMPDEST PUSH1 0x20 PUSH1 0x40 MLOAD DUP1 DUP4 SUB DUP2 DUP7 DUP1 EXTCODESIZE ISZERO DUP1 ISZERO PUSH2 0x6CA2 JUMPI PUSH1 0x0 DUP1 REVERT JUMPDEST POP GAS STATICCALL ISZERO DUP1 ISZERO PUSH2 0x6CB6 JUMPI RETURNDATASIZE PUSH1 0x0 DUP1 RETURNDATACOPY RETURNDATASIZE PUSH1 0x0 REVERT JUMPDEST POP POP POP POP PUSH1 0x40 MLOAD RETURNDATASIZE PUSH1 0x1F NOT PUSH1 0x1F DUP3 ADD AND DUP3 ADD DUP1 PUSH1 0x40 MSTORE POP DUP2 ADD SWAP1 PUSH2 0x6CDA SWAP2 SWAP1 PUSH2 0x8B54 JUMP JUMPDEST SWAP1 POP PUSH2 0x6CE5 DUP2 PUSH2 0x80AF JUMP JUMPDEST ISZERO PUSH2 0x6D1E JUMPI DUP1 DUP7 DUP7 DUP1 PUSH1 0x1 ADD SWAP8 POP DUP2 MLOAD DUP2 LT PUSH2 0x6CFD JUMPI INVALID JUMPDEST PUSH1 0x20 MUL PUSH1 0x20 ADD ADD SWAP1 PUSH1 0x1 PUSH1 0x1 PUSH1 0xA0 SHL SUB AND SWAP1 DUP2 PUSH1 0x1 PUSH1 0x1 PUSH1 0xA0 SHL SUB AND DUP2 MSTORE POP POP JUMPDEST POP PUSH1 0x1 ADD PUSH2 0x6C3F JUMP JUMPDEST POP POP POP DUP1 PUSH2 0x6D37 JUMPI POP POP POP PUSH2 0x4077 JUMP JUMPDEST DUP6 MLOAD DUP6 PUSH1 0x2 ADD EQ ISZERO PUSH2 0x6E2D JUMPI DUP1 PUSH1 0x1 PUSH1 0x1 PUSH1 0x40 SHL SUB DUP2 GT DUP1 ISZERO PUSH2 0x6D59 JUMPI PUSH1 0x0 DUP1 REVERT JUMPDEST POP PUSH1 0x40 MLOAD SWAP1 DUP1 DUP3 MSTORE DUP1 PUSH1 0x20 MUL PUSH1 0x20 ADD DUP3 ADD PUSH1 0x40 MSTORE DUP1 ISZERO PUSH2 0x6D8D JUMPI DUP2 PUSH1 0x20 ADD JUMPDEST PUSH1 0x60 DUP2 MSTORE PUSH1 0x20 ADD SWAP1 PUSH1 0x1 SWAP1 SUB SWAP1 DUP2 PUSH2 0x6D78 JUMPI SWAP1 POP JUMPDEST POP SWAP4 POP PUSH1 0x0 JUMPDEST DUP2 DUP2 LT ISZERO PUSH2 0x6E24 JUMPI PUSH1 0x40 DUP1 MLOAD PUSH1 0x1 DUP1 DUP3 MSTORE DUP2 DUP4 ADD SWAP1 SWAP3 MSTORE SWAP1 PUSH1 0x20 DUP1 DUP4 ADD SWAP1 DUP1 CALLDATASIZE DUP4 CALLDATACOPY ADD SWAP1 POP POP DUP6 DUP3 DUP2 MLOAD DUP2 LT PUSH2 0x6DC5 JUMPI INVALID JUMPDEST PUSH1 0x20 MUL PUSH1 0x20 ADD ADD DUP2 SWAP1 MSTORE POP DUP3 DUP2 DUP2 MLOAD DUP2 LT PUSH2 0x6DDC JUMPI INVALID JUMPDEST PUSH1 0x20 MUL PUSH1 0x20 ADD ADD MLOAD DUP6 DUP3 DUP2 MLOAD DUP2 LT PUSH2 0x6DF0 JUMPI INVALID JUMPDEST PUSH1 0x20 MUL PUSH1 0x20 ADD ADD MLOAD PUSH1 0x0 DUP2 MLOAD DUP2 LT PUSH2 0x6E04 JUMPI INVALID JUMPDEST PUSH1 0x1 PUSH1 0x1 PUSH1 0xA0 SHL SUB SWAP1 SWAP3 AND PUSH1 0x20 SWAP3 DUP4 MUL SWAP2 SWAP1 SWAP2 ADD SWAP1 SWAP2 ADD MSTORE PUSH1 0x1 ADD PUSH2 0x6D93 JUMP JUMPDEST POP POP POP POP PUSH2 0x4077 JUMP JUMPDEST PUSH1 0x60 PUSH2 0x6E3D DUP9 DUP9 DUP9 PUSH1 0x1 ADD PUSH2 0x6B8B JUMP JUMPDEST SWAP1 POP DUP1 MLOAD PUSH1 0x0 EQ ISZERO PUSH2 0x6E52 JUMPI POP POP POP POP PUSH2 0x4077 JUMP JUMPDEST DUP1 MLOAD DUP3 MUL PUSH1 0x1 PUSH1 0x1 PUSH1 0x40 SHL SUB DUP2 GT DUP1 ISZERO PUSH2 0x6E6B JUMPI PUSH1 0x0 DUP1 REVERT JUMPDEST POP PUSH1 0x40 MLOAD SWAP1 DUP1 DUP3 MSTORE DUP1 PUSH1 0x20 MUL PUSH1 0x20 ADD DUP3 ADD PUSH1 0x40 MSTORE DUP1 ISZERO PUSH2 0x6E9F JUMPI DUP2 PUSH1 0x20 ADD JUMPDEST PUSH1 0x60 DUP2 MSTORE PUSH1 0x20 ADD SWAP1 PUSH1 0x1 SWAP1 SUB SWAP1 DUP2 PUSH2 0x6E8A JUMPI SWAP1 POP JUMPDEST POP SWAP5 POP PUSH1 0x0 JUMPDEST DUP3 DUP2 LT ISZERO PUSH2 0x701F JUMPI PUSH1 0x0 JUMPDEST DUP3 MLOAD DUP2 LT ISZERO PUSH2 0x7016 JUMPI DUP3 MLOAD DUP3 DUP2 MUL DUP3 ADD SWAP1 DUP5 SWAP1 DUP4 SWAP1 DUP2 LT PUSH2 0x6ECD JUMPI INVALID JUMPDEST PUSH1 0x20 MUL PUSH1 0x20 ADD ADD MLOAD MLOAD PUSH1 0x1 ADD PUSH1 0x1 PUSH1 0x1 PUSH1 0x40 SHL SUB DUP2 GT DUP1 ISZERO PUSH2 0x6EEE JUMPI PUSH1 0x0 DUP1 REVERT JUMPDEST POP PUSH1 0x40 MLOAD SWAP1 DUP1 DUP3 MSTORE DUP1 PUSH1 0x20 MUL PUSH1 0x20 ADD DUP3 ADD PUSH1 0x40 MSTORE DUP1 ISZERO PUSH2 0x6F18 JUMPI DUP2 PUSH1 0x20 ADD PUSH1 0x20 DUP3 MUL DUP1 CALLDATASIZE DUP4 CALLDATACOPY ADD SWAP1 POP JUMPDEST POP DUP9 DUP3 DUP2 MLOAD DUP2 LT PUSH2 0x6F25 JUMPI INVALID JUMPDEST PUSH1 0x20 MUL PUSH1 0x20 ADD ADD DUP2 SWAP1 MSTORE POP DUP6 DUP4 DUP2 MLOAD DUP2 LT PUSH2 0x6F3C JUMPI INVALID JUMPDEST PUSH1 0x20 MUL PUSH1 0x20 ADD ADD MLOAD DUP9 DUP3 DUP2 MLOAD DUP2 LT PUSH2 0x6F50 JUMPI INVALID JUMPDEST PUSH1 0x20 MUL PUSH1 0x20 ADD ADD MLOAD PUSH1 0x0 DUP2 MLOAD DUP2 LT PUSH2 0x6F64 JUMPI INVALID JUMPDEST PUSH1 0x20 MUL PUSH1 0x20 ADD ADD SWAP1 PUSH1 0x1 PUSH1 0x1 PUSH1 0xA0 SHL SUB AND SWAP1 DUP2 PUSH1 0x1 PUSH1 0x1 PUSH1 0xA0 SHL SUB AND DUP2 MSTORE POP POP PUSH1 0x0 JUMPDEST DUP5 DUP4 DUP2 MLOAD DUP2 LT PUSH2 0x6F93 JUMPI INVALID JUMPDEST PUSH1 0x20 MUL PUSH1 0x20 ADD ADD MLOAD MLOAD DUP2 LT ISZERO PUSH2 0x700C JUMPI DUP5 DUP4 DUP2 MLOAD DUP2 LT PUSH2 0x6FAF JUMPI INVALID JUMPDEST PUSH1 0x20 MUL PUSH1 0x20 ADD ADD MLOAD DUP2 DUP2 MLOAD DUP2 LT PUSH2 0x6FC2 JUMPI INVALID JUMPDEST PUSH1 0x20 MUL PUSH1 0x20 ADD ADD MLOAD DUP10 DUP4 DUP2 MLOAD DUP2 LT PUSH2 0x6FD6 JUMPI INVALID JUMPDEST PUSH1 0x20 MUL PUSH1 0x20 ADD ADD MLOAD DUP3 PUSH1 0x1 ADD DUP2 MLOAD DUP2 LT PUSH2 0x6FEC JUMPI INVALID JUMPDEST PUSH1 0x1 PUSH1 0x1 PUSH1 0xA0 SHL SUB SWAP1 SWAP3 AND PUSH1 0x20 SWAP3 DUP4 MUL SWAP2 SWAP1 SWAP2 ADD SWAP1 SWAP2 ADD MSTORE PUSH1 0x1 ADD PUSH2 0x6F87 JUMP JUMPDEST POP POP PUSH1 0x1 ADD PUSH2 0x6EB0 JUMP JUMPDEST POP PUSH1 0x1 ADD PUSH2 0x6EA5 JUMP JUMPDEST POP POP POP POP POP SWAP4 SWAP3 POP POP POP JUMP JUMPDEST PUSH1 0x60 PUSH1 0x2 DUP4 MLOAD LT ISZERO DUP1 ISZERO PUSH2 0x7043 JUMPI POP DUP2 MLOAD PUSH1 0x1 ADD DUP4 MLOAD EQ JUMPDEST PUSH2 0x705F JUMPI PUSH1 0x40 MLOAD PUSH3 0x461BCD PUSH1 0xE5 SHL DUP2 MSTORE PUSH1 0x4 ADD PUSH2 0x621C SWAP1 PUSH2 0xA2F1 JUMP JUMPDEST DUP2 MLOAD PUSH1 0x3 MUL DUP4 MLOAD PUSH1 0x14 MUL ADD PUSH1 0x1 PUSH1 0x1 PUSH1 0x40 SHL SUB DUP2 GT DUP1 ISZERO PUSH2 0x707F JUMPI PUSH1 0x0 DUP1 REVERT JUMPDEST POP PUSH1 0x40 MLOAD SWAP1 DUP1 DUP3 MSTORE DUP1 PUSH1 0x1F ADD PUSH1 0x1F NOT AND PUSH1 0x20 ADD DUP3 ADD PUSH1 0x40 MSTORE DUP1 ISZERO PUSH2 0x70AA JUMPI PUSH1 0x20 DUP3 ADD DUP2 DUP1 CALLDATASIZE DUP4 CALLDATACOPY ADD SWAP1 POP JUMPDEST POP SWAP1 POP PUSH1 0x20 DUP2 ADD PUSH1 0x0 JUMPDEST DUP5 MLOAD DUP2 LT ISZERO PUSH2 0x5FAF JUMPI DUP1 ISZERO PUSH2 0x7159 JUMPI PUSH1 0x0 DUP5 PUSH1 0x1 DUP4 SUB DUP2 MLOAD DUP2 LT PUSH2 0x70D4 JUMPI INVALID JUMPDEST PUSH1 0x20 MUL PUSH1 0x20 ADD ADD MLOAD PUSH1 0x1 PUSH1 0x1 PUSH1 0xA0 SHL SUB AND PUSH4 0xDDCA3F43 PUSH1 0x40 MLOAD DUP2 PUSH4 0xFFFFFFFF AND PUSH1 0xE0 SHL DUP2 MSTORE PUSH1 0x4 ADD PUSH1 0x20 PUSH1 0x40 MLOAD DUP1 DUP4 SUB DUP2 DUP7 DUP1 EXTCODESIZE ISZERO DUP1 ISZERO PUSH2 0x7114 JUMPI PUSH1 0x0 DUP1 REVERT JUMPDEST POP GAS STATICCALL ISZERO DUP1 ISZERO PUSH2 0x7128 JUMPI RETURNDATASIZE PUSH1 0x0 DUP1 RETURNDATACOPY RETURNDATASIZE PUSH1 0x0 REVERT JUMPDEST POP POP POP POP PUSH1 0x40 MLOAD RETURNDATASIZE PUSH1 0x1F NOT PUSH1 0x1F DUP3 ADD AND DUP3 ADD DUP1 PUSH1 0x40 MSTORE POP DUP2 ADD SWAP1 PUSH2 0x714C SWAP2 SWAP1 PUSH2 0x989B JUMP JUMPDEST PUSH1 0xE8 SHL DUP4 MSTORE POP PUSH1 0x3 SWAP1 SWAP2 ADD SWAP1 JUMPDEST PUSH1 0x0 DUP6 DUP3 DUP2 MLOAD DUP2 LT PUSH2 0x7167 JUMPI INVALID JUMPDEST PUSH1 0x20 SWAP1 DUP2 MUL SWAP2 SWAP1 SWAP2 ADD ADD MLOAD PUSH1 0x60 SHL DUP4 MSTORE POP PUSH1 0x14 SWAP1 SWAP2 ADD SWAP1 PUSH1 0x1 ADD PUSH2 0x70B4 JUMP JUMPDEST PUSH1 0x0 DUP3 DUP3 MUL DUP4 ISZERO DUP1 ISZERO SWAP1 PUSH2 0x71A3 JUMPI POP DUP3 DUP5 DUP3 DUP2 PUSH2 0x719F JUMPI INVALID JUMPDEST DIV EQ ISZERO JUMPDEST ISZERO PUSH2 0x71B2 JUMPI PUSH1 0x0 SWAP2 POP POP PUSH2 0x5FB2 JUMP JUMPDEST PUSH8 0x6F05B59D3B20000 DUP2 ADD DUP2 DUP2 LT ISZERO PUSH2 0x71D0 JUMPI PUSH1 0x0 SWAP3 POP POP POP PUSH2 0x5FB2 JUMP JUMPDEST PUSH8 0xDE0B6B3A7640000 SWAP1 DIV SWAP5 SWAP4 POP POP POP POP JUMP JUMPDEST PUSH1 0x60 DUP2 MLOAD PUSH1 0x1 PUSH1 0x1 PUSH1 0x40 SHL SUB DUP2 GT DUP1 ISZERO PUSH2 0x71FC JUMPI PUSH1 0x0 DUP1 REVERT JUMPDEST POP PUSH1 0x40 MLOAD SWAP1 DUP1 DUP3 MSTORE DUP1 PUSH1 0x20 MUL PUSH1 0x20 ADD DUP3 ADD PUSH1 0x40 MSTORE DUP1 ISZERO PUSH2 0x7226 JUMPI DUP2 PUSH1 0x20 ADD PUSH1 0x20 DUP3 MUL DUP1 CALLDATASIZE DUP4 CALLDATACOPY ADD SWAP1 POP JUMPDEST POP SWAP1 POP PUSH1 0x0 JUMPDEST DUP3 MLOAD DUP2 LT ISZERO PUSH2 0x3020 JUMPI DUP3 PUSH1 0x1 DUP3 DUP6 MLOAD SUB SUB DUP2 MLOAD DUP2 LT PUSH2 0x7247 JUMPI INVALID JUMPDEST PUSH1 0x20 MUL PUSH1 0x20 ADD ADD MLOAD DUP3 DUP3 DUP2 MLOAD DUP2 LT PUSH2 0x725B JUMPI INVALID JUMPDEST PUSH1 0x1 PUSH1 0x1 PUSH1 0xA0 SHL SUB SWAP1 SWAP3 AND PUSH1 0x20 SWAP3 DUP4 MUL SWAP2 SWAP1 SWAP2 ADD SWAP1 SWAP2 ADD MSTORE PUSH1 0x1 ADD PUSH2 0x722C JUMP JUMPDEST PUSH1 0x60 DUP2 MLOAD PUSH1 0x1 PUSH1 0x1 PUSH1 0x40 SHL SUB DUP2 GT DUP1 ISZERO PUSH2 0x7294 JUMPI PUSH1 0x0 DUP1 REVERT JUMPDEST POP PUSH1 0x40 MLOAD SWAP1 DUP1 DUP3 MSTORE DUP1 PUSH1 0x20 MUL PUSH1 0x20 ADD DUP3 ADD PUSH1 0x40 MSTORE DUP1 ISZERO PUSH2 0x72BE JUMPI DUP2 PUSH1 0x20 ADD PUSH1 0x20 DUP3 MUL DUP1 CALLDATASIZE DUP4 CALLDATACOPY ADD SWAP1 POP JUMPDEST POP SWAP1 POP PUSH1 0x0 JUMPDEST DUP3 MLOAD DUP2 LT ISZERO PUSH2 0x3020 JUMPI DUP3 PUSH1 0x1 DUP3 DUP6 MLOAD SUB SUB DUP2 MLOAD DUP2 LT PUSH2 0x72DF JUMPI INVALID JUMPDEST PUSH1 0x20 MUL PUSH1 0x20 ADD ADD MLOAD DUP3 DUP3 DUP2 MLOAD DUP2 LT PUSH2 0x72F3 JUMPI INVALID JUMPDEST PUSH1 0x1 PUSH1 0x1 PUSH1 0xA0 SHL SUB SWAP1 SWAP3 AND PUSH1 0x20 SWAP3 DUP4 MUL SWAP2 SWAP1 SWAP2 ADD SWAP1 SWAP2 ADD MSTORE PUSH1 0x1 ADD PUSH2 0x72C4 JUMP JUMPDEST PUSH1 0x0 DUP1 PUSH1 0x0 DUP6 DUP1 PUSH1 0x20 ADD SWAP1 MLOAD DUP2 ADD SWAP1 PUSH2 0x732C SWAP2 SWAP1 PUSH2 0x8B70 JUMP JUMPDEST SWAP2 POP SWAP2 POP PUSH1 0x0 DUP6 DUP1 PUSH1 0x20 ADD SWAP1 MLOAD DUP2 ADD SWAP1 PUSH2 0x7346 SWAP2 SWAP1 PUSH2 0x8B54 JUMP JUMPDEST SWAP1 POP ADDRESS PUSH4 0xE8E4AF09 DUP4 DUP6 DUP5 PUSH2 0x735A DUP11 PUSH2 0x8016 JUMP JUMPDEST PUSH1 0x40 MLOAD DUP6 PUSH4 0xFFFFFFFF AND PUSH1 0xE0 SHL DUP2 MSTORE PUSH1 0x4 ADD PUSH2 0x7379 SWAP5 SWAP4 SWAP3 SWAP2 SWAP1 PUSH2 0x9CF5 JUMP JUMPDEST PUSH1 0x0 PUSH1 0x40 MLOAD DUP1 DUP4 SUB DUP2 DUP7 DUP1 EXTCODESIZE ISZERO DUP1 ISZERO PUSH2 0x7391 JUMPI PUSH1 0x0 DUP1 REVERT JUMPDEST POP GAS STATICCALL SWAP3 POP POP POP DUP1 ISZERO PUSH2 0x73C6 JUMPI POP PUSH1 0x40 MLOAD RETURNDATASIZE PUSH1 0x0 DUP3 RETURNDATACOPY PUSH1 0x1F RETURNDATASIZE SWAP1 DUP2 ADD PUSH1 0x1F NOT AND DUP3 ADD PUSH1 0x40 MSTORE PUSH2 0x73C3 SWAP2 SWAP1 DUP2 ADD SWAP1 PUSH2 0x9363 JUMP JUMPDEST PUSH1 0x1 JUMPDEST PUSH2 0x7407 JUMPI RETURNDATASIZE DUP1 DUP1 ISZERO PUSH2 0x73F4 JUMPI PUSH1 0x40 MLOAD SWAP2 POP PUSH1 0x1F NOT PUSH1 0x3F RETURNDATASIZE ADD AND DUP3 ADD PUSH1 0x40 MSTORE RETURNDATASIZE DUP3 MSTORE RETURNDATASIZE PUSH1 0x0 PUSH1 0x20 DUP5 ADD RETURNDATACOPY PUSH2 0x73F9 JUMP JUMPDEST PUSH1 0x60 SWAP2 POP JUMPDEST POP PUSH1 0x0 SWAP5 POP POP POP POP POP PUSH2 0x4077 JUMP JUMPDEST DUP1 PUSH1 0x0 DUP2 MLOAD DUP2 LT PUSH2 0x7414 JUMPI INVALID JUMPDEST PUSH1 0x20 MUL PUSH1 0x20 ADD ADD MLOAD SWAP5 POP POP POP POP POP PUSH2 0x4077 JUMP JUMPDEST PUSH1 0x0 PUSH2 0x14B3 DUP4 PUSH2 0x65D6 PUSH2 0x743B DUP3 PUSH1 0x1 PUSH2 0x7FF7 JUMP JUMPDEST PUSH2 0x7445 DUP9 DUP8 PUSH2 0x7F7B JUMP JUMPDEST SWAP1 PUSH2 0x7FB1 JUMP JUMPDEST PUSH1 0x0 PUSH1 0x12 SWAP1 POP PUSH1 0x0 PUSH1 0x60 DUP4 PUSH1 0x1 PUSH1 0x1 PUSH1 0xA0 SHL SUB AND PUSH1 0x40 MLOAD DUP1 PUSH1 0x40 ADD PUSH1 0x40 MSTORE DUP1 PUSH1 0x4 DUP2 MSTORE PUSH1 0x20 ADD PUSH4 0x313CE567 PUSH1 0xE0 SHL DUP2 MSTORE POP PUSH1 0x40 MLOAD PUSH2 0x7489 SWAP2 SWAP1 PUSH2 0x9C67 JUMP JUMPDEST PUSH1 0x0 PUSH1 0x40 MLOAD DUP1 DUP4 SUB DUP2 DUP6 GAS STATICCALL SWAP2 POP POP RETURNDATASIZE DUP1 PUSH1 0x0 DUP2 EQ PUSH2 0x74C4 JUMPI PUSH1 0x40 MLOAD SWAP2 POP PUSH1 0x1F NOT PUSH1 0x3F RETURNDATASIZE ADD AND DUP3 ADD PUSH1 0x40 MSTORE RETURNDATASIZE DUP3 MSTORE RETURNDATASIZE PUSH1 0x0 PUSH1 0x20 DUP5 ADD RETURNDATACOPY PUSH2 0x74C9 JUMP JUMPDEST PUSH1 0x60 SWAP2 POP JUMPDEST POP SWAP2 POP SWAP2 POP DUP2 DUP1 ISZERO PUSH2 0x74DD JUMPI POP PUSH1 0x20 DUP2 MLOAD LT ISZERO JUMPDEST ISZERO PUSH2 0x74F0 JUMPI PUSH2 0x74ED DUP2 PUSH1 0x0 PUSH2 0x7799 JUMP JUMPDEST SWAP3 POP JUMPDEST POP POP SWAP2 SWAP1 POP JUMP JUMPDEST PUSH1 0x0 DUP1 PUSH1 0x0 DUP1 DUP5 PUSH1 0x1 PUSH1 0x1 PUSH1 0xA0 SHL SUB AND PUSH4 0xD9638D36 DUP12 PUSH1 0x20 ADD MLOAD PUSH1 0x40 MLOAD DUP3 PUSH4 0xFFFFFFFF AND PUSH1 0xE0 SHL DUP2 MSTORE PUSH1 0x4 ADD PUSH2 0x752D SWAP2 SWAP1 PUSH2 0xA0B6 JUMP JUMPDEST PUSH1 0xA0 PUSH1 0x40 MLOAD DUP1 DUP4 SUB DUP2 DUP7 DUP1 EXTCODESIZE ISZERO DUP1 ISZERO PUSH2 0x7545 JUMPI PUSH1 0x0 DUP1 REVERT JUMPDEST POP GAS STATICCALL ISZERO DUP1 ISZERO PUSH2 0x7559 JUMPI RETURNDATASIZE PUSH1 0x0 DUP1 RETURNDATACOPY RETURNDATASIZE PUSH1 0x0 REVERT JUMPDEST POP POP POP POP PUSH1 0x40 MLOAD RETURNDATASIZE PUSH1 0x1F NOT PUSH1 0x1F DUP3 ADD AND DUP3 ADD DUP1 PUSH1 0x40 MSTORE POP DUP2 ADD SWAP1 PUSH2 0x757D SWAP2 SWAP1 PUSH2 0x9916 JUMP JUMPDEST SWAP5 POP SWAP5 POP POP POP SWAP3 POP DUP10 PUSH1 0x40 ADD MLOAD PUSH1 0x1 PUSH1 0x1 PUSH1 0xA0 SHL SUB AND DUP9 PUSH1 0x1 PUSH1 0x1 PUSH1 0xA0 SHL SUB AND EQ ISZERO PUSH2 0x7694 JUMPI PUSH1 0x0 DUP8 SWAP1 POP PUSH1 0x0 PUSH2 0x762D DUP9 PUSH1 0x1 PUSH1 0x1 PUSH1 0xA0 SHL SUB AND PUSH4 0x568D4B6F PUSH1 0x40 MLOAD DUP2 PUSH4 0xFFFFFFFF AND PUSH1 0xE0 SHL DUP2 MSTORE PUSH1 0x4 ADD PUSH1 0x20 PUSH1 0x40 MLOAD DUP1 DUP4 SUB DUP2 DUP7 DUP1 EXTCODESIZE ISZERO DUP1 ISZERO PUSH2 0x75E6 JUMPI PUSH1 0x0 DUP1 REVERT JUMPDEST POP GAS STATICCALL ISZERO DUP1 ISZERO PUSH2 0x75FA JUMPI RETURNDATASIZE PUSH1 0x0 DUP1 RETURNDATACOPY RETURNDATASIZE PUSH1 0x0 REVERT JUMPDEST POP POP POP POP PUSH1 0x40 MLOAD RETURNDATASIZE PUSH1 0x1F NOT PUSH1 0x1F DUP3 ADD AND DUP3 ADD DUP1 PUSH1 0x40 MSTORE POP DUP2 ADD SWAP1 PUSH2 0x761E SWAP2 SWAP1 PUSH2 0x93B1 JUMP JUMPDEST PUSH8 0xDE0B6B3A7640000 SWAP1 PUSH2 0x7FF7 JUMP JUMPDEST SWAP1 POP PUSH1 0x0 PUSH2 0x7647 DUP3 PUSH2 0x65D6 DUP6 PUSH8 0xDE0B6B3A7640000 PUSH2 0x7F7B JUMP JUMPDEST SWAP1 POP PUSH1 0x0 PUSH2 0x7665 PUSH12 0x33B2E3C9FD0803CE8000000 PUSH2 0x652F DUP10 DUP6 PUSH2 0x7FB1 JUMP JUMPDEST SWAP1 POP DUP6 DUP2 LT PUSH2 0x767E JUMPI PUSH1 0x0 SWAP8 POP POP POP POP POP POP POP POP PUSH2 0x6703 JUMP JUMPDEST PUSH1 0x0 PUSH2 0x65EA PUSH1 0x1 PUSH2 0x7445 DUP6 PUSH5 0xE8D4A51000 PUSH2 0x7FCD JUMP JUMPDEST DUP10 PUSH1 0x40 ADD MLOAD PUSH1 0x1 PUSH1 0x1 PUSH1 0xA0 SHL SUB AND DUP10 PUSH1 0x1 PUSH1 0x1 PUSH1 0xA0 SHL SUB AND EQ ISZERO PUSH2 0x7779 JUMPI PUSH1 0x0 PUSH2 0x76C3 DUP9 PUSH5 0xE8D4A51000 PUSH2 0x7F7B JUMP JUMPDEST SWAP1 POP PUSH1 0x0 PUSH2 0x7703 DUP9 PUSH1 0x1 PUSH1 0x1 PUSH1 0xA0 SHL SUB AND PUSH4 0xFAE036D5 PUSH1 0x40 MLOAD DUP2 PUSH4 0xFFFFFFFF AND PUSH1 0xE0 SHL DUP2 MSTORE PUSH1 0x4 ADD PUSH1 0x20 PUSH1 0x40 MLOAD DUP1 DUP4 SUB DUP2 DUP7 DUP1 EXTCODESIZE ISZERO DUP1 ISZERO PUSH2 0x66A1 JUMPI PUSH1 0x0 DUP1 REVERT JUMPDEST SWAP1 POP PUSH1 0x0 PUSH2 0x771D PUSH8 0xDE0B6B3A7640000 PUSH2 0x65D6 DUP6 DUP6 PUSH2 0x7F7B JUMP JUMPDEST SWAP1 POP DUP6 DUP2 GT ISZERO PUSH2 0x7736 JUMPI PUSH1 0x0 SWAP7 POP POP POP POP POP POP POP PUSH2 0x6703 JUMP JUMPDEST PUSH1 0x0 PUSH2 0x7752 PUSH12 0x33B2E3C9FD0803CE8000000 PUSH2 0x652F DUP10 DUP6 PUSH2 0x7FF7 JUMP JUMPDEST SWAP1 POP DUP5 DUP2 GT PUSH2 0x776B JUMPI PUSH1 0x0 SWAP8 POP POP POP POP POP POP POP POP PUSH2 0x6703 JUMP JUMPDEST POP SWAP6 POP PUSH2 0x6703 SWAP5 POP POP POP POP POP JUMP JUMPDEST POP PUSH1 0x0 SWAP10 SWAP9 POP POP POP POP POP POP POP POP POP JUMP JUMPDEST PUSH2 0x7794 DUP4 DUP4 DUP4 PUSH2 0x82BB JUMP JUMPDEST POP POP POP JUMP JUMPDEST PUSH1 0x0 PUSH2 0x4077 DUP4 DUP4 PUSH2 0x82E2 JUMP JUMPDEST PUSH1 0x0 DUP1 PUSH2 0x77B0 PUSH2 0x8469 JUMP JUMPDEST DUP6 DUP1 PUSH1 0x20 ADD SWAP1 MLOAD DUP2 ADD SWAP1 PUSH2 0x77C4 SWAP2 SWAP1 PUSH2 0x945D JUMP JUMPDEST SWAP2 POP SWAP2 POP PUSH1 0x0 DUP6 DUP1 PUSH1 0x20 ADD SWAP1 MLOAD DUP2 ADD SWAP1 PUSH2 0x77DE SWAP2 SWAP1 PUSH2 0x9441 JUMP JUMPDEST SWAP1 POP PUSH1 0x0 PUSH1 0x60 ADDRESS PUSH4 0x205E01D7 PUSH1 0xE1 SHL DUP6 DUP8 DUP7 PUSH2 0x6761 DUP13 PUSH2 0x8016 JUMP JUMPDEST PUSH1 0x0 DUP1 DUP5 PUSH1 0x20 ADD MLOAD SWAP1 POP PUSH1 0x60 DUP2 PUSH1 0x1 PUSH1 0x1 PUSH1 0xA0 SHL SUB AND PUSH4 0x910FFC71 DUP8 PUSH1 0x60 ADD MLOAD PUSH1 0x1 PUSH1 0x1 PUSH1 0xA0 SHL SUB AND DUP8 PUSH1 0x1 PUSH1 0x1 PUSH1 0xA0 SHL SUB AND EQ PUSH2 0x7837 JUMPI DUP7 PUSH2 0x784D JUMP JUMPDEST PUSH20 0xEEEEEEEEEEEEEEEEEEEEEEEEEEEEEEEEEEEEEEEE JUMPDEST DUP9 PUSH1 0x60 ADD MLOAD PUSH1 0x1 PUSH1 0x1 PUSH1 0xA0 SHL SUB AND DUP8 PUSH1 0x1 PUSH1 0x1 PUSH1 0xA0 SHL SUB AND EQ PUSH2 0x7870 JUMPI DUP7 PUSH2 0x7886 JUMP JUMPDEST PUSH20 0xEEEEEEEEEEEEEEEEEEEEEEEEEEEEEEEEEEEEEEEE JUMPDEST PUSH1 0x40 DUP1 MLOAD PUSH1 0x0 DUP2 MSTORE PUSH1 0x20 DUP2 ADD SWAP2 DUP3 SWAP1 MSTORE PUSH1 0x1 PUSH1 0x1 PUSH1 0xE0 SHL SUB NOT PUSH1 0xE0 DUP7 SWAP1 SHL AND SWAP1 SWAP2 MSTORE PUSH2 0x78BA SWAP3 SWAP2 SWAP1 PUSH1 0x1 SWAP1 PUSH1 0x24 DUP2 ADD PUSH2 0x9D77 JUMP JUMPDEST PUSH1 0x0 PUSH1 0x40 MLOAD DUP1 DUP4 SUB DUP2 DUP7 DUP1 EXTCODESIZE ISZERO DUP1 ISZERO PUSH2 0x78D2 JUMPI PUSH1 0x0 DUP1 REVERT JUMPDEST POP GAS STATICCALL ISZERO DUP1 ISZERO PUSH2 0x78E6 JUMPI RETURNDATASIZE PUSH1 0x0 DUP1 RETURNDATACOPY RETURNDATASIZE PUSH1 0x0 REVERT JUMPDEST POP POP POP POP PUSH1 0x40 MLOAD RETURNDATASIZE PUSH1 0x0 DUP3 RETURNDATACOPY PUSH1 0x1F RETURNDATASIZE SWAP1 DUP2 ADD PUSH1 0x1F NOT AND DUP3 ADD PUSH1 0x40 MSTORE PUSH2 0x790E SWAP2 SWAP1 DUP2 ADD SWAP1 PUSH2 0x8FA4 JUMP JUMPDEST POP POP SWAP1 POP DUP1 MLOAD DUP7 PUSH1 0x0 ADD MLOAD LT PUSH2 0x792A JUMPI POP PUSH1 0x0 SWAP2 POP PUSH2 0x4077 SWAP1 POP JUMP JUMPDEST DUP1 DUP7 PUSH1 0x0 ADD MLOAD DUP2 MLOAD DUP2 LT PUSH2 0x793A JUMPI INVALID JUMPDEST PUSH1 0x20 MUL PUSH1 0x20 ADD ADD MLOAD SWAP3 POP PUSH1 0xF8 DUP4 SWAP1 SHR PUSH1 0x0 SHR PUSH1 0xBB EQ ISZERO PUSH2 0x1C7F JUMPI POP PUSH1 0x0 SWAP2 POP PUSH2 0x4077 SWAP1 POP JUMP JUMPDEST PUSH1 0x0 DUP1 PUSH2 0x796B PUSH2 0x84A7 JUMP JUMPDEST DUP5 DUP1 PUSH1 0x20 ADD SWAP1 MLOAD DUP2 ADD SWAP1 PUSH2 0x797F SWAP2 SWAP1 PUSH2 0x8C57 JUMP JUMPDEST SWAP2 POP SWAP2 POP PUSH1 0x0 DUP7 DUP1 PUSH1 0x20 ADD SWAP1 MLOAD DUP2 ADD SWAP1 PUSH2 0x7999 SWAP2 SWAP1 PUSH2 0x8C57 JUMP JUMPDEST POP PUSH1 0x40 MLOAD PUSH4 0x3C7B5FE9 PUSH1 0xE2 SHL DUP2 MSTORE SWAP1 SWAP2 POP ADDRESS SWAP1 PUSH4 0xF1ED7FA4 SWAP1 PUSH2 0x79C6 SWAP1 DUP6 SWAP1 DUP6 SWAP1 DUP9 SWAP1 DUP12 SWAP1 PUSH1 0x4 ADD PUSH2 0xA39E JUMP JUMPDEST PUSH1 0x20 PUSH1 0x40 MLOAD DUP1 DUP4 SUB DUP2 DUP7 DUP1 EXTCODESIZE ISZERO DUP1 ISZERO PUSH2 0x79DE JUMPI PUSH1 0x0 DUP1 REVERT JUMPDEST POP GAS STATICCALL SWAP3 POP POP POP DUP1 ISZERO PUSH2 0x7A0E JUMPI POP PUSH1 0x40 DUP1 MLOAD PUSH1 0x1F RETURNDATASIZE SWAP1 DUP2 ADD PUSH1 0x1F NOT AND DUP3 ADD SWAP1 SWAP3 MSTORE PUSH2 0x7A0B SWAP2 DUP2 ADD SWAP1 PUSH2 0x93B1 JUMP JUMPDEST PUSH1 0x1 JUMPDEST PUSH2 0x7A3C JUMPI RETURNDATASIZE DUP1 DUP1 ISZERO PUSH2 0x73F4 JUMPI PUSH1 0x40 MLOAD SWAP2 POP PUSH1 0x1F NOT PUSH1 0x3F RETURNDATASIZE ADD AND DUP3 ADD PUSH1 0x40 MSTORE RETURNDATASIZE DUP3 MSTORE RETURNDATASIZE PUSH1 0x0 PUSH1 0x20 DUP5 ADD RETURNDATACOPY PUSH2 0x73F9 JUMP JUMPDEST SWAP4 POP PUSH2 0x4077 SWAP3 POP POP POP JUMP JUMPDEST PUSH1 0x0 DUP1 PUSH1 0x60 DUP7 PUSH1 0x1 PUSH1 0x1 PUSH1 0xA0 SHL SUB AND PUSH4 0x57A281DC DUP7 DUP7 PUSH1 0x40 MLOAD DUP4 PUSH4 0xFFFFFFFF AND PUSH1 0xE0 SHL DUP2 MSTORE PUSH1 0x4 ADD PUSH2 0x7A7A SWAP3 SWAP2 SWAP1 PUSH2 0x9CB0 JUMP JUMPDEST PUSH1 0x0 PUSH1 0x40 MLOAD DUP1 DUP4 SUB DUP2 DUP7 DUP1 EXTCODESIZE ISZERO DUP1 ISZERO PUSH2 0x7A92 JUMPI PUSH1 0x0 DUP1 REVERT JUMPDEST POP GAS STATICCALL ISZERO DUP1 ISZERO PUSH2 0x7AA6 JUMPI RETURNDATASIZE PUSH1 0x0 DUP1 RETURNDATACOPY RETURNDATASIZE PUSH1 0x0 REVERT JUMPDEST POP POP POP POP PUSH1 0x40 MLOAD RETURNDATASIZE PUSH1 0x0 DUP3 RETURNDATACOPY PUSH1 0x1F RETURNDATASIZE SWAP1 DUP2 ADD PUSH1 0x1F NOT AND DUP3 ADD PUSH1 0x40 MSTORE PUSH2 0x7ACE SWAP2 SWAP1 DUP2 ADD SWAP1 PUSH2 0x8F0C JUMP JUMPDEST SWAP1 POP PUSH1 0x1 SWAP2 POP DUP1 MLOAD PUSH1 0x0 EQ ISZERO PUSH2 0x7B67 JUMPI PUSH1 0x40 MLOAD PUSH4 0x15E8A077 PUSH1 0xE2 SHL DUP2 MSTORE PUSH1 0x1 PUSH1 0x1 PUSH1 0xA0 SHL SUB DUP9 AND SWAP1 PUSH4 0x57A281DC SWAP1 PUSH2 0x7B0C SWAP1 DUP8 SWAP1 DUP10 SWAP1 PUSH1 0x4 ADD PUSH2 0x9CB0 JUMP JUMPDEST PUSH1 0x0 PUSH1 0x40 MLOAD DUP1 DUP4 SUB DUP2 DUP7 DUP1 EXTCODESIZE ISZERO DUP1 ISZERO PUSH2 0x7B24 JUMPI PUSH1 0x0 DUP1 REVERT JUMPDEST POP GAS STATICCALL ISZERO DUP1 ISZERO PUSH2 0x7B38 JUMPI RETURNDATASIZE PUSH1 0x0 DUP1 RETURNDATACOPY RETURNDATASIZE PUSH1 0x0 REVERT JUMPDEST POP POP POP POP PUSH1 0x40 MLOAD RETURNDATASIZE PUSH1 0x0 DUP3 RETURNDATACOPY PUSH1 0x1F RETURNDATASIZE SWAP1 DUP2 ADD PUSH1 0x1F NOT AND DUP3 ADD PUSH1 0x40 MSTORE PUSH2 0x7B60 SWAP2 SWAP1 DUP2 ADD SWAP1 PUSH2 0x8F0C JUMP JUMPDEST SWAP1 POP PUSH1 0x0 SWAP2 POP JUMPDEST DUP1 MLOAD DUP7 LT PUSH2 0x7B7C JUMPI PUSH1 0x0 DUP1 SWAP3 POP SWAP3 POP POP PUSH2 0x61E1 JUMP JUMPDEST DUP1 DUP7 DUP2 MLOAD DUP2 LT PUSH2 0x7B88 JUMPI INVALID JUMPDEST PUSH1 0x20 MUL PUSH1 0x20 ADD ADD MLOAD SWAP3 POP POP SWAP5 POP SWAP5 SWAP3 POP POP POP JUMP JUMPDEST PUSH1 0x0 DUP1 PUSH1 0x0 DUP1 DUP7 DUP1 PUSH1 0x20 ADD SWAP1 MLOAD DUP2 ADD SWAP1 PUSH2 0x7BB6 SWAP2 SWAP1 PUSH2 0x8C07 JUMP JUMPDEST SWAP3 POP SWAP3 POP SWAP3 POP DUP1 ISZERO PUSH2 0x7C5A JUMPI PUSH1 0x40 MLOAD PUSH4 0x3CD0243B PUSH1 0xE1 SHL DUP2 MSTORE PUSH1 0x1 PUSH1 0x1 PUSH1 0xA0 SHL SUB DUP4 AND SWAP1 PUSH4 0x79A04876 SWAP1 PUSH3 0x493E0 SWAP1 PUSH2 0x7BF6 SWAP1 PUSH1 0x0 SWAP1 DUP11 SWAP1 PUSH1 0x4 ADD PUSH2 0x9C97 JUMP JUMPDEST PUSH1 0x40 DUP1 MLOAD DUP1 DUP4 SUB DUP2 DUP8 DUP1 EXTCODESIZE ISZERO DUP1 ISZERO PUSH2 0x7C0D JUMPI PUSH1 0x0 DUP1 REVERT JUMPDEST POP DUP7 STATICCALL SWAP4 POP POP POP POP DUP1 ISZERO PUSH2 0x7C3E JUMPI POP PUSH1 0x40 DUP1 MLOAD PUSH1 0x1F RETURNDATASIZE SWAP1 DUP2 ADD PUSH1 0x1F NOT AND DUP3 ADD SWAP1 SWAP3 MSTORE PUSH2 0x7C3B SWAP2 DUP2 ADD SWAP1 PUSH2 0x98BE JUMP JUMPDEST PUSH1 0x1 JUMPDEST PUSH2 0x7C4E JUMPI PUSH1 0x0 SWAP4 POP POP POP POP PUSH2 0x4077 JUMP JUMPDEST POP SWAP4 POP PUSH2 0x4077 SWAP3 POP POP POP JUMP JUMPDEST PUSH1 0x40 MLOAD PUSH4 0x66410A21 PUSH1 0xE0 SHL DUP2 MSTORE PUSH1 0x1 PUSH1 0x1 PUSH1 0xA0 SHL SUB DUP4 AND SWAP1 PUSH4 0x66410A21 SWAP1 PUSH3 0x493E0 SWAP1 PUSH2 0x7BF6 SWAP1 PUSH1 0x0 SWAP1 DUP11 SWAP1 PUSH1 0x4 ADD PUSH2 0x9C97 JUMP JUMPDEST PUSH1 0x0 DUP1 PUSH1 0x0 DUP6 DUP1 PUSH1 0x20 ADD SWAP1 MLOAD DUP2 ADD SWAP1 PUSH2 0x7CA7 SWAP2 SWAP1 PUSH2 0x8B70 JUMP JUMPDEST SWAP2 POP SWAP2 POP PUSH1 0x0 DUP6 DUP1 PUSH1 0x20 ADD SWAP1 MLOAD DUP2 ADD SWAP1 PUSH2 0x7CC1 SWAP2 SWAP1 PUSH2 0x8B54 JUMP JUMPDEST SWAP1 POP ADDRESS PUSH4 0x30D6570D DUP4 DUP6 DUP5 PUSH2 0x735A DUP11 PUSH2 0x8016 JUMP JUMPDEST PUSH1 0x0 DUP1 PUSH1 0x60 DUP5 PUSH1 0x1 PUSH1 0x1 PUSH1 0xA0 SHL SUB AND PUSH4 0x70A08231 PUSH1 0xE0 SHL DUP6 PUSH1 0x40 MLOAD PUSH1 0x24 ADD PUSH2 0x7CFD SWAP2 SWAP1 PUSH2 0x9C83 JUMP JUMPDEST PUSH1 0x40 DUP1 MLOAD PUSH1 0x1F NOT DUP2 DUP5 SUB ADD DUP2 MSTORE SWAP2 DUP2 MSTORE PUSH1 0x20 DUP3 ADD DUP1 MLOAD PUSH1 0x1 PUSH1 0x1 PUSH1 0xE0 SHL SUB AND PUSH1 0x1 PUSH1 0x1 PUSH1 0xE0 SHL SUB NOT SWAP1 SWAP5 AND SWAP4 SWAP1 SWAP4 OR SWAP1 SWAP3 MSTORE SWAP1 MLOAD PUSH2 0x7D3B SWAP2 SWAP1 PUSH2 0x9C67 JUMP JUMPDEST PUSH1 0x0 PUSH1 0x40 MLOAD DUP1 DUP4 SUB DUP2 DUP6 GAS STATICCALL SWAP2 POP POP RETURNDATASIZE DUP1 PUSH1 0x0 DUP2 EQ PUSH2 0x7D76 JUMPI PUSH1 0x40 MLOAD SWAP2 POP PUSH1 0x1F NOT PUSH1 0x3F RETURNDATASIZE ADD AND DUP3 ADD PUSH1 0x40 MSTORE RETURNDATASIZE DUP3 MSTORE RETURNDATASIZE PUSH1 0x0 PUSH1 0x20 DUP5 ADD RETURNDATACOPY PUSH2 0x7D7B JUMP JUMPDEST PUSH1 0x60 SWAP2 POP JUMPDEST POP SWAP2 POP SWAP2 POP DUP2 DUP1 ISZERO PUSH2 0x7D8F JUMPI POP PUSH1 0x20 DUP2 MLOAD LT ISZERO JUMPDEST ISZERO PUSH2 0x5FAF JUMPI PUSH2 0x1521 DUP2 PUSH1 0x0 PUSH2 0x7799 JUMP JUMPDEST PUSH1 0x0 DUP1 PUSH1 0x0 DUP6 DUP1 PUSH1 0x20 ADD SWAP1 MLOAD DUP2 ADD SWAP1 PUSH2 0x7DB8 SWAP2 SWAP1 PUSH2 0x8B70 JUMP JUMPDEST SWAP2 POP SWAP2 POP PUSH1 0x0 DUP6 DUP1 PUSH1 0x20 ADD SWAP1 MLOAD DUP2 ADD SWAP1 PUSH2 0x7DD2 SWAP2 SWAP1 PUSH2 0x8B54 JUMP JUMPDEST SWAP1 POP ADDRESS PUSH4 0xA4698417 PUSH3 0x61A80 DUP5 DUP7 DUP6 PUSH2 0x7DEA DUP12 PUSH2 0x8016 JUMP JUMPDEST PUSH1 0x40 MLOAD DUP7 PUSH4 0xFFFFFFFF AND PUSH1 0xE0 SHL DUP2 MSTORE PUSH1 0x4 ADD PUSH2 0x7E09 SWAP5 SWAP4 SWAP3 SWAP2 SWAP1 PUSH2 0x9CF5 JUMP JUMPDEST PUSH1 0x0 PUSH1 0x40 MLOAD DUP1 DUP4 SUB DUP2 DUP8 DUP1 EXTCODESIZE ISZERO DUP1 ISZERO PUSH2 0x7E21 JUMPI PUSH1 0x0 DUP1 REVERT JUMPDEST POP DUP7 STATICCALL SWAP4 POP POP POP POP DUP1 ISZERO PUSH2 0x73C6 JUMPI POP PUSH1 0x40 MLOAD RETURNDATASIZE PUSH1 0x0 DUP3 RETURNDATACOPY PUSH1 0x1F RETURNDATASIZE SWAP1 DUP2 ADD PUSH1 0x1F NOT AND DUP3 ADD PUSH1 0x40 MSTORE PUSH2 0x73C3 SWAP2 SWAP1 DUP2 ADD SWAP1 PUSH2 0x9363 JUMP JUMPDEST PUSH1 0x0 DUP1 PUSH1 0x60 DUP6 PUSH1 0x1 PUSH1 0x1 PUSH1 0xA0 SHL SUB AND PUSH4 0xDD62ED3E PUSH1 0xE0 SHL DUP7 DUP7 PUSH1 0x40 MLOAD PUSH1 0x24 ADD PUSH2 0x7E7E SWAP3 SWAP2 SWAP1 PUSH2 0x9CB0 JUMP JUMPDEST PUSH1 0x40 DUP1 MLOAD PUSH1 0x1F NOT DUP2 DUP5 SUB ADD DUP2 MSTORE SWAP2 DUP2 MSTORE PUSH1 0x20 DUP3 ADD DUP1 MLOAD PUSH1 0x1 PUSH1 0x1 PUSH1 0xE0 SHL SUB AND PUSH1 0x1 PUSH1 0x1 PUSH1 0xE0 SHL SUB NOT SWAP1 SWAP5 AND SWAP4 SWAP1 SWAP4 OR SWAP1 SWAP3 MSTORE SWAP1 MLOAD PUSH2 0x7EBC SWAP2 SWAP1 PUSH2 0x9C67 JUMP JUMPDEST PUSH1 0x0 PUSH1 0x40 MLOAD DUP1 DUP4 SUB DUP2 DUP6 GAS STATICCALL SWAP2 POP POP RETURNDATASIZE DUP1 PUSH1 0x0 DUP2 EQ PUSH2 0x7EF7 JUMPI PUSH1 0x40 MLOAD SWAP2 POP PUSH1 0x1F NOT PUSH1 0x3F RETURNDATASIZE ADD AND DUP3 ADD PUSH1 0x40 MSTORE RETURNDATASIZE DUP3 MSTORE RETURNDATASIZE PUSH1 0x0 PUSH1 0x20 DUP5 ADD RETURNDATACOPY PUSH2 0x7EFC JUMP JUMPDEST PUSH1 0x60 SWAP2 POP JUMPDEST POP SWAP2 POP SWAP2 POP DUP2 DUP1 ISZERO PUSH2 0x7F10 JUMPI POP PUSH1 0x20 DUP2 MLOAD LT ISZERO JUMPDEST ISZERO PUSH2 0x1C7F JUMPI PUSH2 0x6703 DUP2 PUSH1 0x0 PUSH2 0x7799 JUMP JUMPDEST PUSH1 0x0 PUSH2 0x5FB2 DUP3 PUSH2 0x744B JUMP JUMPDEST PUSH1 0x0 DUP1 PUSH1 0x0 DUP6 DUP1 PUSH1 0x20 ADD SWAP1 MLOAD DUP2 ADD SWAP1 PUSH2 0x7F44 SWAP2 SWAP1 PUSH2 0x8B70 JUMP JUMPDEST SWAP2 POP SWAP2 POP PUSH1 0x0 DUP1 DUP7 DUP1 PUSH1 0x20 ADD SWAP1 MLOAD DUP2 ADD SWAP1 PUSH2 0x7F5F SWAP2 SWAP1 PUSH2 0x8B70 JUMP JUMPDEST SWAP2 POP SWAP2 POP PUSH2 0x7F6F DUP5 DUP5 DUP4 DUP10 PUSH2 0x41A4 JUMP JUMPDEST SWAP9 SWAP8 POP POP POP POP POP POP POP POP JUMP JUMPDEST PUSH1 0x0 DUP3 PUSH2 0x7F8A JUMPI POP PUSH1 0x0 PUSH2 0x5FB2 JUMP JUMPDEST DUP3 DUP3 MUL DUP3 DUP5 DUP3 DUP2 PUSH2 0x7F97 JUMPI INVALID JUMPDEST DIV EQ PUSH2 0x4077 JUMPI PUSH2 0x4077 PUSH2 0x7FAC PUSH1 0x1 DUP7 DUP7 PUSH2 0x830C JUMP JUMPDEST PUSH2 0x8366 JUMP JUMPDEST PUSH1 0x0 DUP3 DUP3 ADD DUP4 DUP2 LT ISZERO PUSH2 0x4077 JUMPI PUSH2 0x4077 PUSH2 0x7FAC PUSH1 0x0 DUP7 DUP7 PUSH2 0x830C JUMP JUMPDEST PUSH1 0x0 DUP2 PUSH2 0x7FE3 JUMPI PUSH2 0x7FE3 PUSH2 0x7FAC PUSH1 0x3 DUP6 DUP6 PUSH2 0x830C JUMP JUMPDEST PUSH1 0x0 DUP3 DUP5 DUP2 PUSH2 0x7FEE JUMPI INVALID JUMPDEST DIV SWAP5 SWAP4 POP POP POP POP JUMP JUMPDEST PUSH1 0x0 DUP3 DUP3 GT ISZERO PUSH2 0x8010 JUMPI PUSH2 0x8010 PUSH2 0x7FAC PUSH1 0x2 DUP6 DUP6 PUSH2 0x830C JUMP JUMPDEST POP SWAP1 SUB SWAP1 JUMP JUMPDEST PUSH1 0x40 DUP1 MLOAD PUSH1 0x1 DUP1 DUP3 MSTORE DUP2 DUP4 ADD SWAP1 SWAP3 MSTORE PUSH1 0x60 SWAP2 PUSH1 0x20 DUP1 DUP4 ADD SWAP1 DUP1 CALLDATASIZE DUP4 CALLDATACOPY ADD SWAP1 POP POP SWAP1 POP DUP2 DUP2 PUSH1 0x0 DUP2 MLOAD DUP2 LT PUSH2 0x8046 JUMPI INVALID JUMPDEST PUSH1 0x20 MUL PUSH1 0x20 ADD ADD DUP2 DUP2 MSTORE POP POP SWAP2 SWAP1 POP JUMP JUMPDEST PUSH1 0x0 DUP4 ISZERO DUP1 PUSH2 0x8064 JUMPI POP DUP2 ISZERO JUMPDEST DUP1 PUSH2 0x806D JUMPI POP DUP3 ISZERO JUMPDEST ISZERO PUSH2 0x807A JUMPI POP PUSH1 0x0 PUSH2 0x4077 JUMP JUMPDEST DUP4 DUP3 MUL DUP3 DUP6 DUP3 DUP2 PUSH2 0x8087 JUMPI INVALID JUMPDEST DIV EQ PUSH2 0x8097 JUMPI PUSH1 0x0 SWAP2 POP POP PUSH2 0x4077 JUMP JUMPDEST DUP4 PUSH1 0x1 DUP6 SUB DUP3 ADD DUP2 PUSH2 0x80A5 JUMPI INVALID JUMPDEST DIV SWAP6 SWAP5 POP POP POP POP POP JUMP JUMPDEST PUSH1 0x0 DUP2 EXTCODESIZE DUP1 PUSH2 0x80C2 JUMPI PUSH1 0x0 SWAP2 POP POP PUSH2 0xE70 JUMP JUMPDEST POP DUP2 PUSH1 0x1 PUSH1 0x1 PUSH1 0xA0 SHL SUB AND PUSH4 0xDFE1681 PUSH1 0x40 MLOAD DUP2 PUSH4 0xFFFFFFFF AND PUSH1 0xE0 SHL DUP2 MSTORE PUSH1 0x4 ADD PUSH1 0x20 PUSH1 0x40 MLOAD DUP1 DUP4 SUB DUP2 DUP7 DUP1 EXTCODESIZE ISZERO DUP1 ISZERO PUSH2 0x80FC JUMPI PUSH1 0x0 DUP1 REVERT JUMPDEST POP GAS STATICCALL ISZERO DUP1 ISZERO PUSH2 0x8110 JUMPI RETURNDATASIZE PUSH1 0x0 DUP1 RETURNDATACOPY RETURNDATASIZE PUSH1 0x0 REVERT JUMPDEST POP POP POP POP PUSH1 0x40 MLOAD RETURNDATASIZE PUSH1 0x1F NOT PUSH1 0x1F DUP3 ADD AND DUP3 ADD DUP1 PUSH1 0x40 MSTORE POP DUP2 ADD SWAP1 PUSH2 0x8134 SWAP2 SWAP1 PUSH2 0x8B54 JUMP JUMPDEST PUSH1 0x1 PUSH1 0x1 PUSH1 0xA0 SHL SUB AND PUSH4 0x70A08231 DUP4 PUSH1 0x40 MLOAD DUP3 PUSH4 0xFFFFFFFF AND PUSH1 0xE0 SHL DUP2 MSTORE PUSH1 0x4 ADD PUSH2 0x815F SWAP2 SWAP1 PUSH2 0x9C83 JUMP JUMPDEST PUSH1 0x20 PUSH1 0x40 MLOAD DUP1 DUP4 SUB DUP2 DUP7 DUP1 EXTCODESIZE ISZERO DUP1 ISZERO PUSH2 0x8177 JUMPI PUSH1 0x0 DUP1 REVERT JUMPDEST POP GAS STATICCALL ISZERO DUP1 ISZERO PUSH2 0x818B JUMPI RETURNDATASIZE PUSH1 0x0 DUP1 RETURNDATACOPY RETURNDATASIZE PUSH1 0x0 REVERT JUMPDEST POP POP POP POP PUSH1 0x40 MLOAD RETURNDATASIZE PUSH1 0x1F NOT PUSH1 0x1F DUP3 ADD AND DUP3 ADD DUP1 PUSH1 0x40 MSTORE POP DUP2 ADD SWAP1 PUSH2 0x81AF SWAP2 SWAP1 PUSH2 0x93B1 JUMP JUMPDEST PUSH2 0x81BB JUMPI POP PUSH1 0x0 PUSH2 0xE70 JUMP JUMPDEST DUP2 PUSH1 0x1 PUSH1 0x1 PUSH1 0xA0 SHL SUB AND PUSH4 0xD21220A7 PUSH1 0x40 MLOAD DUP2 PUSH4 0xFFFFFFFF AND PUSH1 0xE0 SHL DUP2 MSTORE PUSH1 0x4 ADD PUSH1 0x20 PUSH1 0x40 MLOAD DUP1 DUP4 SUB DUP2 DUP7 DUP1 EXTCODESIZE ISZERO DUP1 ISZERO PUSH2 0x81F4 JUMPI PUSH1 0x0 DUP1 REVERT JUMPDEST POP GAS STATICCALL ISZERO DUP1 ISZERO PUSH2 0x8208 JUMPI RETURNDATASIZE PUSH1 0x0 DUP1 RETURNDATACOPY RETURNDATASIZE PUSH1 0x0 REVERT JUMPDEST POP POP POP POP PUSH1 0x40 MLOAD RETURNDATASIZE PUSH1 0x1F NOT PUSH1 0x1F DUP3 ADD AND DUP3 ADD DUP1 PUSH1 0x40 MSTORE POP DUP2 ADD SWAP1 PUSH2 0x822C SWAP2 SWAP1 PUSH2 0x8B54 JUMP JUMPDEST PUSH1 0x1 PUSH1 0x1 PUSH1 0xA0 SHL SUB AND PUSH4 0x70A08231 DUP4 PUSH1 0x40 MLOAD DUP3 PUSH4 0xFFFFFFFF AND PUSH1 0xE0 SHL DUP2 MSTORE PUSH1 0x4 ADD PUSH2 0x8257 SWAP2 SWAP1 PUSH2 0x9C83 JUMP JUMPDEST PUSH1 0x20 PUSH1 0x40 MLOAD DUP1 DUP4 SUB DUP2 DUP7 DUP1 EXTCODESIZE ISZERO DUP1 ISZERO PUSH2 0x826F JUMPI PUSH1 0x0 DUP1 REVERT JUMPDEST POP GAS STATICCALL ISZERO DUP1 ISZERO PUSH2 0x8283 JUMPI RETURNDATASIZE PUSH1 0x0 DUP1 RETURNDATACOPY RETURNDATASIZE PUSH1 0x0 REVERT JUMPDEST POP POP POP POP PUSH1 0x40 MLOAD RETURNDATASIZE PUSH1 0x1F NOT PUSH1 0x1F DUP3 ADD AND DUP3 ADD DUP1 PUSH1 0x40 MSTORE POP DUP2 ADD SWAP1 PUSH2 0x82A7 SWAP2 SWAP1 PUSH2 0x93B1 JUMP JUMPDEST PUSH2 0x82B3 JUMPI POP PUSH1 0x0 PUSH2 0xE70 JUMP JUMPDEST POP PUSH1 0x1 SWAP2 SWAP1 POP JUMP JUMPDEST DUP2 PUSH1 0x20 ADD DUP4 MLOAD LT ISZERO PUSH2 0x82DA JUMPI PUSH2 0x82DA PUSH2 0x7FAC PUSH1 0x5 DUP6 MLOAD DUP6 PUSH1 0x20 ADD PUSH2 0x836E JUMP JUMPDEST SWAP2 ADD PUSH1 0x20 ADD MSTORE JUMP JUMPDEST PUSH1 0x0 DUP2 PUSH1 0x20 ADD DUP4 MLOAD LT ISZERO PUSH2 0x8303 JUMPI PUSH2 0x8303 PUSH2 0x7FAC PUSH1 0x5 DUP6 MLOAD DUP6 PUSH1 0x20 ADD PUSH2 0x836E JUMP JUMPDEST POP ADD PUSH1 0x20 ADD MLOAD SWAP1 JUMP JUMPDEST PUSH1 0x60 PUSH4 0xE946C1BB PUSH1 0xE0 SHL DUP5 DUP5 DUP5 PUSH1 0x40 MLOAD PUSH1 0x24 ADD PUSH2 0x832B SWAP4 SWAP3 SWAP2 SWAP1 PUSH2 0xA14A JUMP JUMPDEST PUSH1 0x40 DUP1 MLOAD PUSH1 0x1F NOT DUP2 DUP5 SUB ADD DUP2 MSTORE SWAP2 SWAP1 MSTORE PUSH1 0x20 DUP2 ADD DUP1 MLOAD PUSH1 0x1 PUSH1 0x1 PUSH1 0xE0 SHL SUB AND PUSH1 0x1 PUSH1 0x1 PUSH1 0xE0 SHL SUB NOT SWAP1 SWAP4 AND SWAP3 SWAP1 SWAP3 OR SWAP1 SWAP2 MSTORE SWAP1 POP SWAP4 SWAP3 POP POP POP JUMP JUMPDEST DUP1 MLOAD PUSH1 0x20 DUP3 ADD REVERT JUMPDEST PUSH1 0x60 PUSH4 0x28006595 PUSH1 0xE0 SHL DUP5 DUP5 DUP5 PUSH1 0x40 MLOAD PUSH1 0x24 ADD PUSH2 0x832B SWAP4 SWAP3 SWAP2 SWAP1 PUSH2 0xA16B JUMP JUMPDEST PUSH1 0x40 DUP1 MLOAD PUSH1 0x80 DUP2 ADD DUP3 MSTORE PUSH1 0x0 DUP1 DUP3 MSTORE PUSH1 0x20 DUP3 ADD DUP2 SWAP1 MSTORE SWAP2 DUP2 ADD DUP3 SWAP1 MSTORE PUSH1 0x60 DUP2 ADD SWAP2 SWAP1 SWAP2 MSTORE SWAP1 JUMP JUMPDEST PUSH1 0x40 MLOAD DUP1 PUSH1 0xA0 ADD PUSH1 0x40 MSTORE DUP1 PUSH1 0x0 DUP2 MSTORE PUSH1 0x20 ADD PUSH1 0x0 DUP2 MSTORE PUSH1 0x20 ADD PUSH1 0x0 DUP2 MSTORE PUSH1 0x20 ADD PUSH1 0x0 DUP2 MSTORE PUSH1 0x20 ADD PUSH1 0x0 DUP2 MSTORE POP SWAP1 JUMP JUMPDEST PUSH1 0x40 DUP1 MLOAD DUP1 DUP3 ADD SWAP1 SWAP2 MSTORE PUSH1 0x60 DUP2 MSTORE PUSH1 0x0 PUSH1 0x20 DUP3 ADD MSTORE SWAP1 JUMP JUMPDEST PUSH1 0x40 MLOAD DUP1 PUSH1 0x40 ADD PUSH1 0x40 MSTORE DUP1 PUSH1 0x0 DUP2 MSTORE PUSH1 0x20 ADD PUSH1 0x60 DUP2 MSTORE POP SWAP1 JUMP JUMPDEST PUSH1 0x40 DUP1 MLOAD PUSH1 0x60 DUP2 ADD SWAP1 SWAP2 MSTORE PUSH1 0x0 DUP1 DUP3 MSTORE PUSH1 0x20 DUP3 ADD SWAP1 DUP2 MSTORE PUSH1 0x0 PUSH1 0x20 SWAP1 SWAP2 ADD MSTORE SWAP1 JUMP JUMPDEST PUSH1 0x40 MLOAD DUP1 PUSH1 0xA0 ADD PUSH1 0x40 MSTORE DUP1 PUSH1 0x0 DUP1 NOT AND DUP2 MSTORE PUSH1 0x20 ADD PUSH1 0x0 DUP2 MSTORE PUSH1 0x20 ADD PUSH1 0x0 DUP2 MSTORE PUSH1 0x20 ADD PUSH1 0x0 DUP2 MSTORE PUSH1 0x20 ADD PUSH1 0x60 DUP2 MSTORE POP SWAP1 JUMP JUMPDEST PUSH1 0x40 DUP1 MLOAD PUSH1 0x60 DUP2 ADD DUP3 MSTORE PUSH1 0x0 DUP1 DUP3 MSTORE PUSH1 0x20 DUP3 ADD DUP2 SWAP1 MSTORE SWAP2 DUP2 ADD SWAP2 SWAP1 SWAP2 MSTORE SWAP1 JUMP JUMPDEST PUSH1 0x40 MLOAD DUP1 PUSH1 0x80 ADD PUSH1 0x40 MSTORE DUP1 PUSH1 0x4 SWAP1 PUSH1 0x20 DUP3 MUL DUP1 CALLDATASIZE DUP4 CALLDATACOPY POP SWAP2 SWAP3 SWAP2 POP POP JUMP JUMPDEST PUSH1 0x40 MLOAD DUP1 PUSH1 0xA0 ADD PUSH1 0x40 MSTORE DUP1 PUSH1 0x0 DUP2 MSTORE PUSH1 0x20 ADD PUSH1 0x0 PUSH1 0x1 PUSH1 0x1 PUSH1 0xA0 SHL SUB AND DUP2 MSTORE PUSH1 0x20 ADD PUSH1 0x0 PUSH1 0x1 PUSH1 0x1 PUSH1 0xA0 SHL SUB AND DUP2 MSTORE PUSH1 0x20 ADD PUSH1 0x0 PUSH1 0x1 PUSH1 0x1 PUSH1 0xA0 SHL SUB AND DUP2 MSTORE PUSH1 0x20 ADD PUSH1 0x60 DUP2 MSTORE POP SWAP1 JUMP JUMPDEST DUP1 CALLDATALOAD PUSH2 0x5FB2 DUP2 PUSH2 0xA5C8 JUMP JUMPDEST PUSH1 0x0 DUP3 PUSH1 0x1F DUP4 ADD SLT PUSH2 0x850C JUMPI DUP1 DUP2 REVERT JUMPDEST DUP2 CALLDATALOAD PUSH2 0x851F PUSH2 0x851A DUP3 PUSH2 0xA53E JUMP JUMPDEST PUSH2 0xA518 JUMP JUMPDEST DUP2 DUP2 MSTORE SWAP2 POP PUSH1 0x20 DUP1 DUP4 ADD SWAP1 DUP5 DUP2 ADD DUP2 DUP5 MUL DUP7 ADD DUP3 ADD DUP8 LT ISZERO PUSH2 0x8540 JUMPI PUSH1 0x0 DUP1 REVERT JUMPDEST PUSH1 0x0 JUMPDEST DUP5 DUP2 LT ISZERO PUSH2 0x8568 JUMPI DUP2 CALLDATALOAD PUSH2 0x8556 DUP2 PUSH2 0xA5C8 JUMP JUMPDEST DUP5 MSTORE SWAP3 DUP3 ADD SWAP3 SWAP1 DUP3 ADD SWAP1 PUSH1 0x1 ADD PUSH2 0x8543 JUMP JUMPDEST POP POP POP POP POP SWAP3 SWAP2 POP POP JUMP JUMPDEST PUSH1 0x0 DUP3 PUSH1 0x1F DUP4 ADD SLT PUSH2 0x8583 JUMPI DUP1 DUP2 REVERT JUMPDEST DUP2 CALLDATALOAD PUSH2 0x8591 PUSH2 0x851A DUP3 PUSH2 0xA53E JUMP JUMPDEST DUP2 DUP2 MSTORE SWAP2 POP PUSH1 0x20 DUP1 DUP4 ADD SWAP1 DUP5 DUP2 ADD PUSH1 0x0 JUMPDEST DUP5 DUP2 LT ISZERO PUSH2 0x8568 JUMPI PUSH2 0x85B9 DUP9 DUP5 DUP5 CALLDATALOAD DUP11 ADD ADD PUSH2 0x84FC JUMP JUMPDEST DUP5 MSTORE SWAP3 DUP3 ADD SWAP3 SWAP1 DUP3 ADD SWAP1 PUSH1 0x1 ADD PUSH2 0x85A2 JUMP JUMPDEST PUSH1 0x0 DUP3 PUSH1 0x1F DUP4 ADD SLT PUSH2 0x85DB JUMPI DUP1 DUP2 REVERT JUMPDEST DUP2 CALLDATALOAD PUSH2 0x85E9 PUSH2 0x851A DUP3 PUSH2 0xA53E JUMP JUMPDEST DUP2 DUP2 MSTORE SWAP2 POP PUSH1 0x20 DUP1 DUP4 ADD SWAP1 DUP5 DUP2 ADD PUSH1 0x0 JUMPDEST DUP5 DUP2 LT ISZERO PUSH2 0x8568 JUMPI PUSH2 0x8611 DUP9 DUP5 DUP5 CALLDATALOAD DUP11 ADD ADD PUSH2 0x87BA JUMP JUMPDEST DUP5 MSTORE SWAP3 DUP3 ADD SWAP3 SWAP1 DUP3 ADD SWAP1 PUSH1 0x1 ADD PUSH2 0x85FA JUMP JUMPDEST PUSH1 0x0 DUP3 PUSH1 0x1F DUP4 ADD SLT PUSH2 0x8633 JUMPI DUP1 DUP2 REVERT JUMPDEST DUP2 CALLDATALOAD PUSH2 0x8641 PUSH2 0x851A DUP3 PUSH2 0xA53E JUMP JUMPDEST DUP2 DUP2 MSTORE SWAP2 POP PUSH1 0x20 DUP1 DUP4 ADD SWAP1 DUP5 DUP2 ADD DUP2 DUP5 MUL DUP7 ADD DUP3 ADD DUP8 LT ISZERO PUSH2 0x8662 JUMPI PUSH1 0x0 DUP1 REVERT JUMPDEST PUSH1 0x0 JUMPDEST DUP5 DUP2 LT ISZERO PUSH2 0x8568 JUMPI DUP2 CALLDATALOAD PUSH2 0x8678 DUP2 PUSH2 0xA5C8 JUMP JUMPDEST DUP5 MSTORE SWAP3 DUP3 ADD SWAP3 SWAP1 DUP3 ADD SWAP1 PUSH1 0x1 ADD PUSH2 0x8665 JUMP JUMPDEST PUSH1 0x0 DUP3 PUSH1 0x1F DUP4 ADD SLT PUSH2 0x869A JUMPI DUP1 DUP2 REVERT JUMPDEST DUP2 CALLDATALOAD PUSH2 0x86A8 PUSH2 0x851A DUP3 PUSH2 0xA53E JUMP JUMPDEST DUP2 DUP2 MSTORE SWAP2 POP PUSH1 0x20 DUP1 DUP4 ADD SWAP1 DUP5 DUP2 ADD PUSH1 0x80 DUP1 DUP6 MUL DUP8 ADD DUP4 ADD DUP9 LT ISZERO PUSH2 0x86CB JUMPI PUSH1 0x0 DUP1 REVERT JUMPDEST PUSH1 0x0 JUMPDEST DUP6 DUP2 LT ISZERO PUSH2 0x86F2 JUMPI PUSH2 0x86E0 DUP10 DUP5 PUSH2 0x8AB9 JUMP JUMPDEST DUP6 MSTORE SWAP4 DUP4 ADD SWAP4 SWAP2 DUP2 ADD SWAP2 PUSH1 0x1 ADD PUSH2 0x86CE JUMP JUMPDEST POP POP POP POP POP POP SWAP3 SWAP2 POP POP JUMP JUMPDEST PUSH1 0x0 DUP3 PUSH1 0x1F DUP4 ADD SLT PUSH2 0x870E JUMPI DUP1 DUP2 REVERT JUMPDEST DUP2 CALLDATALOAD PUSH2 0x871C PUSH2 0x851A DUP3 PUSH2 0xA53E JUMP JUMPDEST DUP2 DUP2 MSTORE SWAP2 POP PUSH1 0x20 DUP1 DUP4 ADD SWAP1 DUP5 DUP2 ADD DUP2 DUP5 MUL DUP7 ADD DUP3 ADD DUP8 LT ISZERO PUSH2 0x873D JUMPI PUSH1 0x0 DUP1 REVERT JUMPDEST PUSH1 0x0 JUMPDEST DUP5 DUP2 LT ISZERO PUSH2 0x8568 JUMPI DUP2 CALLDATALOAD DUP5 MSTORE SWAP3 DUP3 ADD SWAP3 SWAP1 DUP3 ADD SWAP1 PUSH1 0x1 ADD PUSH2 0x8740 JUMP JUMPDEST PUSH1 0x0 DUP3 PUSH1 0x1F DUP4 ADD SLT PUSH2 0x876C JUMPI DUP1 DUP2 REVERT JUMPDEST DUP2 MLOAD PUSH2 0x877A PUSH2 0x851A DUP3 PUSH2 0xA53E JUMP JUMPDEST DUP2 DUP2 MSTORE SWAP2 POP PUSH1 0x20 DUP1 DUP4 ADD SWAP1 DUP5 DUP2 ADD DUP2 DUP5 MUL DUP7 ADD DUP3 ADD DUP8 LT ISZERO PUSH2 0x879B JUMPI PUSH1 0x0 DUP1 REVERT JUMPDEST PUSH1 0x0 JUMPDEST DUP5 DUP2 LT ISZERO PUSH2 0x8568 JUMPI DUP2 MLOAD DUP5 MSTORE SWAP3 DUP3 ADD SWAP3 SWAP1 DUP3 ADD SWAP1 PUSH1 0x1 ADD PUSH2 0x879E JUMP JUMPDEST PUSH1 0x0 DUP3 PUSH1 0x1F DUP4 ADD SLT PUSH2 0x87CA JUMPI DUP1 DUP2 REVERT JUMPDEST DUP2 CALLDATALOAD PUSH2 0x87D8 PUSH2 0x851A DUP3 PUSH2 0xA55D JUMP JUMPDEST SWAP2 POP DUP1 DUP3 MSTORE DUP4 PUSH1 0x20 DUP3 DUP6 ADD ADD GT ISZERO PUSH2 0x87EF JUMPI PUSH1 0x0 DUP1 REVERT JUMPDEST DUP1 PUSH1 0x20 DUP5 ADD PUSH1 0x20 DUP5 ADD CALLDATACOPY PUSH1 0x0 SWAP1 DUP3 ADD PUSH1 0x20 ADD MSTORE SWAP3 SWAP2 POP POP JUMP JUMPDEST PUSH1 0x0 DUP3 PUSH1 0x1F DUP4 ADD SLT PUSH2 0x8818 JUMPI DUP1 DUP2 REVERT JUMPDEST DUP2 MLOAD PUSH2 0x8826 PUSH2 0x851A DUP3 PUSH2 0xA55D JUMP JUMPDEST SWAP2 POP DUP1 DUP3 MSTORE DUP4 PUSH1 0x20 DUP3 DUP6 ADD ADD GT ISZERO PUSH2 0x883D JUMPI PUSH1 0x0 DUP1 REVERT JUMPDEST PUSH2 0x2F2D DUP2 PUSH1 0x20 DUP5 ADD PUSH1 0x20 DUP7 ADD PUSH2 0xA58B JUMP JUMPDEST DUP1 MLOAD PUSH1 0x2 DUP2 LT PUSH2 0x5FB2 JUMPI PUSH1 0x0 DUP1 REVERT JUMPDEST PUSH1 0x0 PUSH1 0x60 DUP3 DUP5 SUB SLT ISZERO PUSH2 0x886E JUMPI DUP1 DUP2 REVERT JUMPDEST PUSH2 0x8878 PUSH1 0x60 PUSH2 0xA518 JUMP JUMPDEST SWAP1 POP DUP2 CALLDATALOAD PUSH2 0x8885 DUP2 PUSH2 0xA5C8 JUMP JUMPDEST DUP2 MSTORE PUSH1 0x20 DUP3 ADD CALLDATALOAD PUSH2 0x8895 DUP2 PUSH2 0xA5EB JUMP JUMPDEST PUSH1 0x20 DUP3 ADD MSTORE PUSH1 0x40 DUP3 ADD CALLDATALOAD PUSH2 0x88A8 DUP2 PUSH2 0xA5EB JUMP JUMPDEST PUSH1 0x40 DUP3 ADD MSTORE SWAP3 SWAP2 POP POP JUMP JUMPDEST PUSH1 0x0 PUSH1 0x60 DUP3 DUP5 SUB SLT ISZERO PUSH2 0x88C4 JUMPI DUP1 DUP2 REVERT JUMPDEST PUSH2 0x88CE PUSH1 0x60 PUSH2 0xA518 JUMP JUMPDEST SWAP1 POP DUP2 MLOAD PUSH2 0x88DB DUP2 PUSH2 0xA5C8 JUMP JUMPDEST DUP2 MSTORE PUSH1 0x20 DUP3 ADD MLOAD PUSH2 0x88EB DUP2 PUSH2 0xA5EB JUMP JUMPDEST PUSH1 0x20 DUP3 ADD MSTORE PUSH1 0x40 DUP3 ADD MLOAD PUSH2 0x88A8 DUP2 PUSH2 0xA5EB JUMP JUMPDEST PUSH1 0x0 PUSH1 0x40 DUP3 DUP5 SUB SLT ISZERO PUSH2 0x890F JUMPI DUP1 DUP2 REVERT JUMPDEST PUSH2 0x8919 PUSH1 0x40 PUSH2 0xA518 JUMP JUMPDEST SWAP1 POP DUP2 CALLDATALOAD PUSH2 0x8926 DUP2 PUSH2 0xA5C8 JUMP JUMPDEST DUP2 MSTORE PUSH1 0x20 DUP3 ADD CALLDATALOAD PUSH2 0x8936 DUP2 PUSH2 0xA5C8 JUMP JUMPDEST PUSH1 0x20 DUP3 ADD MSTORE SWAP3 SWAP2 POP POP JUMP JUMPDEST PUSH1 0x0 PUSH1 0xA0 DUP3 DUP5 SUB SLT ISZERO PUSH2 0x8952 JUMPI DUP1 DUP2 REVERT JUMPDEST PUSH2 0x895C PUSH1 0xA0 PUSH2 0xA518 JUMP JUMPDEST SWAP1 POP DUP2 CALLDATALOAD DUP2 MSTORE PUSH1 0x20 DUP3 ADD CALLDATALOAD PUSH2 0x8970 DUP2 PUSH2 0xA5C8 JUMP JUMPDEST PUSH1 0x20 DUP3 ADD MSTORE PUSH1 0x40 DUP3 ADD CALLDATALOAD PUSH2 0x8983 DUP2 PUSH2 0xA5C8 JUMP JUMPDEST PUSH1 0x40 DUP3 ADD MSTORE PUSH1 0x60 DUP3 ADD CALLDATALOAD PUSH2 0x8996 DUP2 PUSH2 0xA5C8 JUMP JUMPDEST PUSH1 0x60 DUP3 ADD MSTORE PUSH1 0x80 DUP3 ADD CALLDATALOAD PUSH1 0x1 PUSH1 0x1 PUSH1 0x40 SHL SUB DUP2 GT ISZERO PUSH2 0x89B4 JUMPI PUSH1 0x0 DUP1 REVERT JUMPDEST PUSH2 0x89C0 DUP5 DUP3 DUP6 ADD PUSH2 0x87BA JUMP JUMPDEST PUSH1 0x80 DUP4 ADD MSTORE POP SWAP3 SWAP2 POP POP JUMP JUMPDEST PUSH1 0x0 PUSH2 0x180 DUP1 DUP4 DUP6 SUB SLT ISZERO PUSH2 0x89DF JUMPI DUP2 DUP3 REVERT JUMPDEST PUSH2 0x89E8 DUP2 PUSH2 0xA518 JUMP JUMPDEST SWAP2 POP POP PUSH2 0x89F5 DUP4 DUP4 PUSH2 0x84F1 JUMP JUMPDEST DUP2 MSTORE PUSH2 0x8A04 DUP4 PUSH1 0x20 DUP5 ADD PUSH2 0x84F1 JUMP JUMPDEST PUSH1 0x20 DUP3 ADD MSTORE PUSH2 0x8A16 DUP4 PUSH1 0x40 DUP5 ADD PUSH2 0x8B16 JUMP JUMPDEST PUSH1 0x40 DUP3 ADD MSTORE PUSH2 0x8A28 DUP4 PUSH1 0x60 DUP5 ADD PUSH2 0x8B16 JUMP JUMPDEST PUSH1 0x60 DUP3 ADD MSTORE PUSH2 0x8A3A DUP4 PUSH1 0x80 DUP5 ADD PUSH2 0x8B16 JUMP JUMPDEST PUSH1 0x80 DUP3 ADD MSTORE PUSH2 0x8A4C DUP4 PUSH1 0xA0 DUP5 ADD PUSH2 0x84F1 JUMP JUMPDEST PUSH1 0xA0 DUP3 ADD MSTORE PUSH2 0x8A5E DUP4 PUSH1 0xC0 DUP5 ADD PUSH2 0x84F1 JUMP JUMPDEST PUSH1 0xC0 DUP3 ADD MSTORE PUSH2 0x8A70 DUP4 PUSH1 0xE0 DUP5 ADD PUSH2 0x84F1 JUMP JUMPDEST PUSH1 0xE0 DUP3 ADD MSTORE PUSH2 0x100 PUSH2 0x8A84 DUP5 DUP3 DUP6 ADD PUSH2 0x84F1 JUMP JUMPDEST SWAP1 DUP3 ADD MSTORE PUSH2 0x120 DUP3 DUP2 ADD CALLDATALOAD SWAP1 DUP3 ADD MSTORE PUSH2 0x140 PUSH2 0x8AA2 DUP5 DUP3 DUP6 ADD PUSH2 0x8B21 JUMP JUMPDEST DUP2 DUP4 ADD MSTORE POP PUSH2 0x160 DUP1 DUP4 ADD CALLDATALOAD DUP2 DUP4 ADD MSTORE POP SWAP3 SWAP2 POP POP JUMP JUMPDEST PUSH1 0x0 PUSH1 0x80 DUP3 DUP5 SUB SLT ISZERO PUSH2 0x8ACA JUMPI DUP1 DUP2 REVERT JUMPDEST PUSH2 0x8AD4 PUSH1 0x80 PUSH2 0xA518 JUMP JUMPDEST SWAP1 POP DUP2 CALLDATALOAD PUSH1 0x4 DUP2 LT PUSH2 0x8AE5 JUMPI PUSH1 0x0 DUP1 REVERT JUMPDEST DUP2 MSTORE PUSH1 0x20 DUP3 ADD CALLDATALOAD PUSH2 0x8AF5 DUP2 PUSH2 0xA625 JUMP JUMPDEST DUP1 PUSH1 0x20 DUP4 ADD MSTORE POP PUSH1 0x40 DUP3 ADD CALLDATALOAD PUSH1 0x40 DUP3 ADD MSTORE PUSH1 0x60 DUP3 ADD CALLDATALOAD PUSH1 0x60 DUP3 ADD MSTORE SWAP3 SWAP2 POP POP JUMP JUMPDEST DUP1 CALLDATALOAD PUSH2 0x5FB2 DUP2 PUSH2 0xA610 JUMP JUMPDEST DUP1 CALLDATALOAD PUSH1 0x1 PUSH1 0x1 PUSH1 0x40 SHL SUB DUP2 AND DUP2 EQ PUSH2 0x5FB2 JUMPI PUSH1 0x0 DUP1 REVERT JUMPDEST PUSH1 0x0 PUSH1 0x20 DUP3 DUP5 SUB SLT ISZERO PUSH2 0x8B49 JUMPI DUP1 DUP2 REVERT JUMPDEST DUP2 CALLDATALOAD PUSH2 0x4077 DUP2 PUSH2 0xA5C8 JUMP JUMPDEST PUSH1 0x0 PUSH1 0x20 DUP3 DUP5 SUB SLT ISZERO PUSH2 0x8B65 JUMPI DUP1 DUP2 REVERT JUMPDEST DUP2 MLOAD PUSH2 0x4077 DUP2 PUSH2 0xA5C8 JUMP JUMPDEST PUSH1 0x0 DUP1 PUSH1 0x40 DUP4 DUP6 SUB SLT ISZERO PUSH2 0x8B82 JUMPI DUP1 DUP2 REVERT JUMPDEST DUP3 MLOAD PUSH2 0x8B8D DUP2 PUSH2 0xA5C8 JUMP JUMPDEST PUSH1 0x20 DUP5 ADD MLOAD SWAP1 SWAP3 POP PUSH2 0x8B9E DUP2 PUSH2 0xA5C8 JUMP JUMPDEST DUP1 SWAP2 POP POP SWAP3 POP SWAP3 SWAP1 POP JUMP JUMPDEST PUSH1 0x0 DUP1 PUSH1 0x0 DUP1 PUSH1 0x80 DUP6 DUP8 SUB SLT ISZERO PUSH2 0x8BBE JUMPI DUP2 DUP3 REVERT JUMPDEST DUP5 MLOAD PUSH2 0x8BC9 DUP2 PUSH2 0xA5C8 JUMP JUMPDEST PUSH1 0x20 DUP7 ADD MLOAD SWAP1 SWAP5 POP PUSH2 0x8BDA DUP2 PUSH2 0xA5C8 JUMP JUMPDEST PUSH1 0x40 DUP7 ADD MLOAD SWAP1 SWAP4 POP PUSH2 0x8BEB DUP2 PUSH2 0xA5C8 JUMP JUMPDEST PUSH1 0x60 DUP7 ADD MLOAD SWAP1 SWAP3 POP PUSH2 0x8BFC DUP2 PUSH2 0xA5C8 JUMP JUMPDEST SWAP4 SWAP7 SWAP3 SWAP6 POP SWAP1 SWAP4 POP POP JUMP JUMPDEST PUSH1 0x0 DUP1 PUSH1 0x0 PUSH1 0x60 DUP5 DUP7 SUB SLT ISZERO PUSH2 0x8C1B JUMPI DUP1 DUP2 REVERT JUMPDEST DUP4 MLOAD PUSH2 0x8C26 DUP2 PUSH2 0xA5C8 JUMP JUMPDEST PUSH1 0x20 DUP6 ADD MLOAD SWAP1 SWAP4 POP PUSH2 0x8C37 DUP2 PUSH2 0xA5C8 JUMP JUMPDEST PUSH1 0x40 DUP6 ADD MLOAD SWAP1 SWAP3 POP DUP1 ISZERO ISZERO DUP2 EQ PUSH2 0x8C4C JUMPI DUP2 DUP3 REVERT JUMPDEST DUP1 SWAP2 POP POP SWAP3 POP SWAP3 POP SWAP3 JUMP JUMPDEST PUSH1 0x0 DUP1 PUSH1 0x40 DUP4 DUP6 SUB SLT ISZERO PUSH2 0x8C69 JUMPI DUP2 DUP3 REVERT JUMPDEST DUP3 MLOAD PUSH2 0x8C74 DUP2 PUSH2 0xA5C8 JUMP JUMPDEST PUSH1 0x20 DUP5 ADD MLOAD SWAP1 SWAP3 POP PUSH1 0x1 PUSH1 0x1 PUSH1 0x40 SHL SUB DUP1 DUP3 GT ISZERO PUSH2 0x8C90 JUMPI DUP3 DUP4 REVERT JUMPDEST SWAP1 DUP5 ADD SWAP1 PUSH1 0xA0 DUP3 DUP8 SUB SLT ISZERO PUSH2 0x8CA3 JUMPI DUP3 DUP4 REVERT JUMPDEST PUSH2 0x8CAD PUSH1 0xA0 PUSH2 0xA518 JUMP JUMPDEST DUP3 MLOAD DUP2 MSTORE PUSH1 0x20 DUP4 ADD MLOAD PUSH2 0x8CBF DUP2 PUSH2 0xA5C8 JUMP JUMPDEST PUSH1 0x20 DUP3 ADD MSTORE PUSH1 0x40 DUP4 ADD MLOAD PUSH2 0x8CD2 DUP2 PUSH2 0xA5C8 JUMP JUMPDEST PUSH1 0x40 DUP3 ADD MSTORE PUSH1 0x60 DUP4 ADD MLOAD PUSH2 0x8CE5 DUP2 PUSH2 0xA5C8 JUMP JUMPDEST PUSH1 0x60 DUP3 ADD MSTORE PUSH1 0x80 DUP4 ADD MLOAD DUP3 DUP2 GT ISZERO PUSH2 0x8CFB JUMPI DUP5 DUP6 REVERT JUMPDEST PUSH2 0x8D07 DUP9 DUP3 DUP7 ADD PUSH2 0x8808 JUMP JUMPDEST PUSH1 0x80 DUP4 ADD MSTORE POP DUP1 SWAP4 POP POP POP POP SWAP3 POP SWAP3 SWAP1 POP JUMP JUMPDEST PUSH1 0x0 DUP1 PUSH1 0x0 DUP1 PUSH1 0x0 PUSH1 0xA0 DUP7 DUP9 SUB SLT ISZERO PUSH2 0x8D31 JUMPI DUP3 DUP4 REVERT JUMPDEST DUP6 CALLDATALOAD PUSH2 0x8D3C DUP2 PUSH2 0xA5C8 JUMP JUMPDEST SWAP5 POP PUSH1 0x20 DUP7 ADD CALLDATALOAD PUSH2 0x8D4C DUP2 PUSH2 0xA5C8 JUMP JUMPDEST SWAP4 POP PUSH1 0x40 DUP7 ADD CALLDATALOAD PUSH2 0x8D5C DUP2 PUSH2 0xA5C8 JUMP JUMPDEST SWAP3 POP PUSH1 0x60 DUP7 ADD CALLDATALOAD PUSH2 0x8D6C DUP2 PUSH2 0xA5C8 JUMP JUMPDEST SWAP2 POP PUSH1 0x80 DUP7 ADD CALLDATALOAD PUSH1 0x1 PUSH1 0x1 PUSH1 0x40 SHL SUB DUP2 GT ISZERO PUSH2 0x8D86 JUMPI DUP2 DUP3 REVERT JUMPDEST PUSH2 0x8D92 DUP9 DUP3 DUP10 ADD PUSH2 0x86FE JUMP JUMPDEST SWAP2 POP POP SWAP3 SWAP6 POP SWAP3 SWAP6 SWAP1 SWAP4 POP JUMP JUMPDEST PUSH1 0x0 DUP1 PUSH1 0x0 DUP1 PUSH1 0x80 DUP6 DUP8 SUB SLT ISZERO PUSH2 0x8DB4 JUMPI DUP2 DUP3 REVERT JUMPDEST DUP5 CALLDATALOAD PUSH2 0x8DBF DUP2 PUSH2 0xA5C8 JUMP JUMPDEST SWAP4 POP PUSH1 0x20 DUP6 ADD CALLDATALOAD PUSH2 0x8DCF DUP2 PUSH2 0xA5C8 JUMP JUMPDEST SWAP3 POP PUSH1 0x40 DUP6 ADD CALLDATALOAD PUSH2 0x8DDF DUP2 PUSH2 0xA5C8 JUMP JUMPDEST SWAP2 POP PUSH1 0x60 DUP6 ADD CALLDATALOAD PUSH1 0x1 PUSH1 0x1 PUSH1 0x40 SHL SUB DUP2 GT ISZERO PUSH2 0x8DF9 JUMPI DUP2 DUP3 REVERT JUMPDEST PUSH2 0x8E05 DUP8 DUP3 DUP9 ADD PUSH2 0x86FE JUMP JUMPDEST SWAP2 POP POP SWAP3 SWAP6 SWAP2 SWAP5 POP SWAP3 POP JUMP JUMPDEST PUSH1 0x0 DUP1 PUSH1 0x0 DUP1 PUSH1 0x80 DUP6 DUP8 SUB SLT ISZERO PUSH2 0x8E26 JUMPI DUP2 DUP3 REVERT JUMPDEST DUP5 CALLDATALOAD PUSH2 0x8E31 DUP2 PUSH2 0xA5C8 JUMP JUMPDEST SWAP4 POP PUSH1 0x20 DUP6 ADD CALLDATALOAD PUSH2 0x8E41 DUP2 PUSH2 0xA5C8 JUMP JUMPDEST SWAP3 POP PUSH1 0x40 DUP6 ADD CALLDATALOAD PUSH2 0x8E51 DUP2 PUSH2 0xA5C8 JUMP JUMPDEST SWAP4 SWAP7 SWAP3 SWAP6 POP SWAP3 SWAP4 PUSH1 0x60 ADD CALLDATALOAD SWAP3 POP POP JUMP JUMPDEST PUSH1 0x0 DUP1 PUSH1 0x0 PUSH1 0x60 DUP5 DUP7 SUB SLT ISZERO PUSH2 0x8E75 JUMPI DUP1 DUP2 REVERT JUMPDEST DUP4 CALLDATALOAD PUSH2 0x8E80 DUP2 PUSH2 0xA5C8 JUMP JUMPDEST SWAP3 POP PUSH1 0x20 DUP5 ADD CALLDATALOAD PUSH1 0x1 PUSH1 0x1 PUSH1 0x40 SHL SUB DUP1 DUP3 GT ISZERO PUSH2 0x8E9B JUMPI DUP3 DUP4 REVERT JUMPDEST PUSH2 0x8EA7 DUP8 DUP4 DUP9 ADD PUSH2 0x84FC JUMP JUMPDEST SWAP4 POP PUSH1 0x40 DUP7 ADD CALLDATALOAD SWAP2 POP DUP1 DUP3 GT ISZERO PUSH2 0x8EBC JUMPI DUP3 DUP4 REVERT JUMPDEST POP PUSH2 0x8EC9 DUP7 DUP3 DUP8 ADD PUSH2 0x86FE JUMP JUMPDEST SWAP2 POP POP SWAP3 POP SWAP3 POP SWAP3 JUMP JUMPDEST PUSH1 0x0 DUP1 PUSH1 0x0 DUP1 PUSH1 0x0 PUSH1 0xA0 DUP7 DUP9 SUB SLT ISZERO PUSH2 0x8EEA JUMPI DUP3 DUP4 REVERT JUMPDEST DUP6 CALLDATALOAD PUSH2 0x8EF5 DUP2 PUSH2 0xA5C8 JUMP JUMPDEST SWAP5 POP PUSH1 0x20 DUP7 ADD CALLDATALOAD SWAP4 POP PUSH1 0x40 DUP7 ADD CALLDATALOAD PUSH2 0x8D5C DUP2 PUSH2 0xA5C8 JUMP JUMPDEST PUSH1 0x0 PUSH1 0x20 DUP1 DUP4 DUP6 SUB SLT ISZERO PUSH2 0x8F1E JUMPI DUP2 DUP3 REVERT JUMPDEST DUP3 MLOAD PUSH1 0x1 PUSH1 0x1 PUSH1 0x40 SHL SUB DUP2 GT ISZERO PUSH2 0x8F33 JUMPI DUP3 DUP4 REVERT JUMPDEST DUP4 ADD PUSH1 0x1F DUP2 ADD DUP6 SGT PUSH2 0x8F43 JUMPI DUP3 DUP4 REVERT JUMPDEST DUP1 MLOAD PUSH2 0x8F51 PUSH2 0x851A DUP3 PUSH2 0xA53E JUMP JUMPDEST DUP2 DUP2 MSTORE DUP4 DUP2 ADD SWAP1 DUP4 DUP6 ADD DUP6 DUP5 MUL DUP6 ADD DUP7 ADD DUP10 LT ISZERO PUSH2 0x8F6D JUMPI DUP7 DUP8 REVERT JUMPDEST DUP7 SWAP5 POP JUMPDEST DUP4 DUP6 LT ISZERO PUSH2 0x8F98 JUMPI DUP1 MLOAD PUSH2 0x8F84 DUP2 PUSH2 0xA5C8 JUMP JUMPDEST DUP4 MSTORE PUSH1 0x1 SWAP5 SWAP1 SWAP5 ADD SWAP4 SWAP2 DUP6 ADD SWAP2 DUP6 ADD PUSH2 0x8F71 JUMP JUMPDEST POP SWAP8 SWAP7 POP POP POP POP POP POP POP JUMP JUMPDEST PUSH1 0x0 DUP1 PUSH1 0x0 PUSH1 0x60 DUP5 DUP7 SUB SLT ISZERO PUSH2 0x8FB8 JUMPI DUP1 DUP2 REVERT JUMPDEST DUP4 MLOAD PUSH1 0x1 PUSH1 0x1 PUSH1 0x40 SHL SUB DUP1 DUP3 GT ISZERO PUSH2 0x8FCE JUMPI DUP3 DUP4 REVERT JUMPDEST DUP2 DUP7 ADD SWAP2 POP DUP7 PUSH1 0x1F DUP4 ADD SLT PUSH2 0x8FE1 JUMPI DUP3 DUP4 REVERT JUMPDEST DUP2 MLOAD PUSH2 0x8FEF PUSH2 0x851A DUP3 PUSH2 0xA53E JUMP JUMPDEST DUP1 DUP3 DUP3 MSTORE PUSH1 0x20 DUP1 DUP4 ADD SWAP3 POP DUP1 DUP7 ADD DUP12 DUP3 DUP4 DUP8 MUL DUP10 ADD ADD GT ISZERO PUSH2 0x900F JUMPI DUP8 DUP9 REVERT JUMPDEST DUP8 SWAP7 POP JUMPDEST DUP5 DUP8 LT ISZERO PUSH2 0x9031 JUMPI DUP1 MLOAD DUP5 MSTORE PUSH1 0x1 SWAP7 SWAP1 SWAP7 ADD SWAP6 SWAP3 DUP2 ADD SWAP3 DUP2 ADD PUSH2 0x9013 JUMP JUMPDEST POP DUP10 ADD MLOAD SWAP1 SWAP8 POP SWAP4 POP POP POP DUP1 DUP3 GT ISZERO PUSH2 0x9048 JUMPI DUP3 DUP4 REVERT JUMPDEST POP PUSH2 0x9055 DUP7 DUP3 DUP8 ADD PUSH2 0x875C JUMP JUMPDEST SWAP3 POP POP PUSH2 0x9065 DUP6 PUSH1 0x40 DUP7 ADD PUSH2 0x884E JUMP JUMPDEST SWAP1 POP SWAP3 POP SWAP3 POP SWAP3 JUMP JUMPDEST PUSH1 0x0 DUP1 PUSH1 0x20 DUP4 DUP6 SUB SLT ISZERO PUSH2 0x9080 JUMPI DUP2 DUP3 REVERT JUMPDEST DUP3 CALLDATALOAD PUSH1 0x1 PUSH1 0x1 PUSH1 0x40 SHL SUB DUP1 DUP3 GT ISZERO PUSH2 0x9096 JUMPI DUP4 DUP5 REVERT JUMPDEST DUP2 DUP6 ADD SWAP2 POP DUP6 PUSH1 0x1F DUP4 ADD SLT PUSH2 0x90A9 JUMPI DUP4 DUP5 REVERT JUMPDEST DUP2 CALLDATALOAD DUP2 DUP2 GT ISZERO PUSH2 0x90B7 JUMPI DUP5 DUP6 REVERT JUMPDEST DUP7 PUSH1 0x20 DUP1 DUP4 MUL DUP6 ADD ADD GT ISZERO PUSH2 0x90CA JUMPI DUP5 DUP6 REVERT JUMPDEST PUSH1 0x20 SWAP3 SWAP1 SWAP3 ADD SWAP7 SWAP2 SWAP6 POP SWAP1 SWAP4 POP POP POP POP JUMP JUMPDEST PUSH1 0x0 DUP1 PUSH1 0x0 PUSH1 0x60 DUP5 DUP7 SUB SLT ISZERO PUSH2 0x90F0 JUMPI DUP1 DUP2 REVERT JUMPDEST DUP4 CALLDATALOAD PUSH1 0x1 PUSH1 0x1 PUSH1 0x40 SHL SUB DUP1 DUP3 GT ISZERO PUSH2 0x9106 JUMPI DUP3 DUP4 REVERT JUMPDEST PUSH2 0x9112 DUP8 DUP4 DUP9 ADD PUSH2 0x85CB JUMP JUMPDEST SWAP5 POP PUSH1 0x20 DUP7 ADD CALLDATALOAD SWAP2 POP DUP1 DUP3 GT ISZERO PUSH2 0x9127 JUMPI DUP3 DUP4 REVERT JUMPDEST POP PUSH2 0x9134 DUP7 DUP3 DUP8 ADD PUSH2 0x85CB JUMP JUMPDEST SWAP3 POP POP PUSH1 0x40 DUP5 ADD CALLDATALOAD SWAP1 POP SWAP3 POP SWAP3 POP SWAP3 JUMP JUMPDEST PUSH1 0x0 PUSH1 0x20 DUP3 DUP5 SUB SLT ISZERO PUSH2 0x9156 JUMPI DUP1 DUP2 REVERT JUMPDEST DUP2 CALLDATALOAD PUSH1 0x1 PUSH1 0x1 PUSH1 0x40 SHL SUB DUP2 GT ISZERO PUSH2 0x916B JUMPI DUP2 DUP3 REVERT JUMPDEST PUSH2 0x14B3 DUP5 DUP3 DUP6 ADD PUSH2 0x8623 JUMP JUMPDEST PUSH1 0x0 DUP1 PUSH1 0x40 DUP4 DUP6 SUB SLT ISZERO PUSH2 0x9189 JUMPI DUP2 DUP3 REVERT JUMPDEST DUP3 CALLDATALOAD PUSH1 0x1 PUSH1 0x1 PUSH1 0x40 SHL SUB DUP2 GT ISZERO PUSH2 0x919E JUMPI DUP3 DUP4 REVERT JUMPDEST PUSH2 0x91AA DUP6 DUP3 DUP7 ADD PUSH2 0x8623 JUMP JUMPDEST SWAP3 POP POP PUSH1 0x20 DUP4 ADD CALLDATALOAD PUSH2 0x8B9E DUP2 PUSH2 0xA5C8 JUMP JUMPDEST PUSH1 0x0 DUP1 PUSH1 0x0 PUSH1 0x60 DUP5 DUP7 SUB SLT ISZERO PUSH2 0x91CF JUMPI DUP1 DUP2 REVERT JUMPDEST DUP4 CALLDATALOAD PUSH1 0x1 PUSH1 0x1 PUSH1 0x40 SHL SUB DUP2 GT ISZERO PUSH2 0x91E4 JUMPI DUP2 DUP3 REVERT JUMPDEST PUSH2 0x91F0 DUP7 DUP3 DUP8 ADD PUSH2 0x8623 JUMP JUMPDEST SWAP4 POP POP PUSH1 0x20 DUP5 ADD CALLDATALOAD PUSH2 0x9201 DUP2 PUSH2 0xA5C8 JUMP JUMPDEST SWAP2 POP PUSH1 0x40 DUP5 ADD CALLDATALOAD PUSH2 0x8C4C DUP2 PUSH2 0xA5C8 JUMP JUMPDEST PUSH1 0x0 PUSH1 0x20 DUP1 DUP4 DUP6 SUB SLT ISZERO PUSH2 0x9223 JUMPI DUP2 DUP3 REVERT JUMPDEST DUP3 MLOAD PUSH1 0x1 PUSH1 0x1 PUSH1 0x40 SHL SUB DUP2 GT ISZERO PUSH2 0x9238 JUMPI DUP3 DUP4 REVERT JUMPDEST DUP4 ADD PUSH1 0x1F DUP2 ADD DUP6 SGT PUSH2 0x9248 JUMPI DUP3 DUP4 REVERT JUMPDEST DUP1 MLOAD PUSH2 0x9256 PUSH2 0x851A DUP3 PUSH2 0xA53E JUMP JUMPDEST DUP2 DUP2 MSTORE DUP4 DUP2 ADD SWAP1 DUP4 DUP6 ADD DUP6 DUP5 MUL DUP6 ADD DUP7 ADD DUP10 LT ISZERO PUSH2 0x9272 JUMPI DUP7 DUP8 REVERT JUMPDEST DUP7 SWAP5 POP JUMPDEST DUP4 DUP6 LT ISZERO PUSH2 0x8F98 JUMPI DUP1 MLOAD DUP4 MSTORE PUSH1 0x1 SWAP5 SWAP1 SWAP5 ADD SWAP4 SWAP2 DUP6 ADD SWAP2 DUP6 ADD PUSH2 0x9276 JUMP JUMPDEST PUSH1 0x0 DUP1 PUSH1 0x0 PUSH1 0x60 DUP5 DUP7 SUB SLT ISZERO PUSH2 0x92A8 JUMPI DUP1 DUP2 REVERT JUMPDEST DUP4 CALLDATALOAD PUSH1 0x1 PUSH1 0x1 PUSH1 0x40 SHL SUB DUP1 DUP3 GT ISZERO PUSH2 0x92BE JUMPI DUP3 DUP4 REVERT JUMPDEST DUP2 DUP7 ADD SWAP2 POP DUP7 PUSH1 0x1F DUP4 ADD SLT PUSH2 0x92D1 JUMPI DUP3 DUP4 REVERT JUMPDEST DUP2 CALLDATALOAD PUSH2 0x92DF PUSH2 0x851A DUP3 PUSH2 0xA53E JUMP JUMPDEST DUP1 DUP3 DUP3 MSTORE PUSH1 0x20 DUP1 DUP4 ADD SWAP3 POP DUP1 DUP7 ADD PUSH2 0x180 DUP13 DUP4 DUP3 DUP9 MUL DUP11 ADD ADD GT ISZERO PUSH2 0x9302 JUMPI DUP9 DUP10 REVERT JUMPDEST DUP9 SWAP8 POP JUMPDEST DUP6 DUP9 LT ISZERO PUSH2 0x932E JUMPI PUSH2 0x9318 DUP14 DUP4 PUSH2 0x89CC JUMP JUMPDEST DUP6 MSTORE PUSH1 0x1 SWAP8 SWAP1 SWAP8 ADD SWAP7 SWAP4 DUP3 ADD SWAP4 SWAP1 DUP2 ADD SWAP1 PUSH2 0x9306 JUMP JUMPDEST POP SWAP2 SWAP9 POP DUP10 ADD CALLDATALOAD SWAP5 POP POP POP POP DUP1 DUP3 GT ISZERO PUSH2 0x9346 JUMPI DUP3 DUP4 REVERT JUMPDEST POP PUSH2 0x9353 DUP7 DUP3 DUP8 ADD PUSH2 0x868A JUMP JUMPDEST SWAP3 POP POP PUSH2 0x9065 DUP6 PUSH1 0x40 DUP7 ADD PUSH2 0x84F1 JUMP JUMPDEST PUSH1 0x0 PUSH1 0x20 DUP3 DUP5 SUB SLT ISZERO PUSH2 0x9374 JUMPI DUP1 DUP2 REVERT JUMPDEST DUP2 MLOAD PUSH1 0x1 PUSH1 0x1 PUSH1 0x40 SHL SUB DUP2 GT ISZERO PUSH2 0x9389 JUMPI DUP2 DUP3 REVERT JUMPDEST PUSH2 0x14B3 DUP5 DUP3 DUP6 ADD PUSH2 0x875C JUMP JUMPDEST PUSH1 0x0 PUSH1 0x20 DUP3 DUP5 SUB SLT ISZERO PUSH2 0x93A6 JUMPI DUP1 DUP2 REVERT JUMPDEST DUP2 MLOAD PUSH2 0x4077 DUP2 PUSH2 0xA5DD JUMP JUMPDEST PUSH1 0x0 PUSH1 0x20 DUP3 DUP5 SUB SLT ISZERO PUSH2 0x93C2 JUMPI DUP1 DUP2 REVERT JUMPDEST POP MLOAD SWAP2 SWAP1 POP JUMP JUMPDEST PUSH1 0x0 PUSH1 0x20 DUP3 DUP5 SUB SLT ISZERO PUSH2 0x93DA JUMPI DUP1 DUP2 REVERT JUMPDEST DUP2 MLOAD PUSH1 0x1 PUSH1 0x1 PUSH1 0x40 SHL SUB DUP2 GT ISZERO PUSH2 0x93EF JUMPI DUP2 DUP3 REVERT JUMPDEST PUSH2 0x14B3 DUP5 DUP3 DUP6 ADD PUSH2 0x8808 JUMP JUMPDEST PUSH1 0x0 DUP1 PUSH1 0x0 PUSH1 0x60 DUP5 DUP7 SUB SLT ISZERO PUSH2 0x940F JUMPI DUP1 DUP2 REVERT JUMPDEST DUP4 CALLDATALOAD PUSH2 0x941A DUP2 PUSH2 0xA5C8 JUMP JUMPDEST SWAP3 POP PUSH1 0x20 DUP5 ADD CALLDATALOAD PUSH1 0x1 PUSH1 0x1 PUSH1 0x40 SHL SUB DUP1 DUP3 GT ISZERO PUSH2 0x9435 JUMPI DUP3 DUP4 REVERT JUMPDEST PUSH2 0x8EA7 DUP8 DUP4 DUP9 ADD PUSH2 0x8623 JUMP JUMPDEST PUSH1 0x0 PUSH1 0x20 DUP3 DUP5 SUB SLT ISZERO PUSH2 0x9452 JUMPI DUP1 DUP2 REVERT JUMPDEST DUP2 MLOAD PUSH2 0x4077 DUP2 PUSH2 0xA601 JUMP JUMPDEST PUSH1 0x0 DUP1 PUSH1 0x80 DUP4 DUP6 SUB SLT ISZERO PUSH2 0x946F JUMPI DUP2 DUP3 REVERT JUMPDEST DUP3 MLOAD PUSH2 0x947A DUP2 PUSH2 0xA601 JUMP JUMPDEST SWAP2 POP PUSH2 0x9489 DUP5 PUSH1 0x20 DUP6 ADD PUSH2 0x88B3 JUMP JUMPDEST SWAP1 POP SWAP3 POP SWAP3 SWAP1 POP JUMP JUMPDEST PUSH1 0x0 DUP1 PUSH1 0x0 DUP1 DUP5 DUP7 SUB PUSH1 0xA0 DUP2 SLT ISZERO PUSH2 0x94A8 JUMPI DUP3 DUP4 REVERT JUMPDEST PUSH1 0x40 DUP2 SLT ISZERO PUSH2 0x94B5 JUMPI DUP3 DUP4 REVERT JUMPDEST POP PUSH2 0x94C0 PUSH1 0x40 PUSH2 0xA518 JUMP JUMPDEST DUP6 CALLDATALOAD DUP2 MSTORE PUSH1 0x20 DUP7 ADD CALLDATALOAD PUSH2 0x94D2 DUP2 PUSH2 0xA5C8 JUMP JUMPDEST PUSH1 0x20 DUP3 ADD MSTORE SWAP4 POP PUSH1 0x40 DUP6 ADD CALLDATALOAD PUSH2 0x94E7 DUP2 PUSH2 0xA5C8 JUMP JUMPDEST SWAP3 POP PUSH1 0x60 DUP6 ADD CALLDATALOAD PUSH2 0x94F7 DUP2 PUSH2 0xA5C8 JUMP JUMPDEST SWAP2 POP PUSH1 0x80 DUP6 ADD CALLDATALOAD PUSH1 0x1 PUSH1 0x1 PUSH1 0x40 SHL SUB DUP2 GT ISZERO PUSH2 0x8DF9 JUMPI DUP2 DUP3 REVERT JUMPDEST PUSH1 0x0 DUP1 PUSH1 0x0 DUP1 PUSH1 0x80 DUP6 DUP8 SUB SLT ISZERO PUSH2 0x9526 JUMPI DUP2 DUP3 REVERT JUMPDEST DUP5 CALLDATALOAD PUSH1 0x1 PUSH1 0x1 PUSH1 0x40 SHL SUB DUP1 DUP3 GT ISZERO PUSH2 0x953C JUMPI DUP4 DUP5 REVERT JUMPDEST SWAP1 DUP7 ADD SWAP1 PUSH1 0x40 DUP3 DUP10 SUB SLT ISZERO PUSH2 0x954F JUMPI DUP4 DUP5 REVERT JUMPDEST PUSH2 0x9559 PUSH1 0x40 PUSH2 0xA518 JUMP JUMPDEST PUSH2 0x9563 DUP10 DUP5 PUSH2 0x84F1 JUMP JUMPDEST DUP2 MSTORE PUSH1 0x20 DUP4 ADD CALLDATALOAD DUP3 DUP2 GT ISZERO PUSH2 0x9576 JUMPI DUP6 DUP7 REVERT JUMPDEST PUSH2 0x9582 DUP11 DUP3 DUP7 ADD PUSH2 0x8573 JUMP JUMPDEST PUSH1 0x20 DUP4 ADD MSTORE POP DUP1 SWAP7 POP POP PUSH2 0x9599 DUP9 PUSH1 0x20 DUP10 ADD PUSH2 0x84F1 JUMP JUMPDEST SWAP5 POP PUSH2 0x95A8 DUP9 PUSH1 0x40 DUP10 ADD PUSH2 0x84F1 JUMP JUMPDEST SWAP4 POP PUSH1 0x60 DUP8 ADD CALLDATALOAD SWAP2 POP DUP1 DUP3 GT ISZERO PUSH2 0x95BD JUMPI DUP3 DUP4 REVERT JUMPDEST POP PUSH2 0x8E05 DUP8 DUP3 DUP9 ADD PUSH2 0x86FE JUMP JUMPDEST PUSH1 0x0 DUP1 PUSH1 0x0 DUP1 PUSH1 0xC0 DUP6 DUP8 SUB SLT ISZERO PUSH2 0x95DF JUMPI DUP2 DUP3 REVERT JUMPDEST PUSH2 0x95E9 DUP7 DUP7 PUSH2 0x885D JUMP JUMPDEST SWAP4 POP PUSH1 0x60 DUP6 ADD CALLDATALOAD PUSH2 0x95F9 DUP2 PUSH2 0xA601 JUMP JUMPDEST SWAP3 POP PUSH1 0x80 DUP6 ADD CALLDATALOAD PUSH2 0x9609 DUP2 PUSH2 0xA601 JUMP JUMPDEST SWAP2 POP PUSH1 0xA0 DUP6 ADD CALLDATALOAD PUSH1 0x1 PUSH1 0x1 PUSH1 0x40 SHL SUB DUP2 GT ISZERO PUSH2 0x8DF9 JUMPI DUP2 DUP3 REVERT JUMPDEST PUSH1 0x0 DUP1 PUSH1 0x0 DUP1 PUSH1 0xA0 DUP6 DUP8 SUB SLT ISZERO PUSH2 0x9638 JUMPI DUP2 DUP3 REVERT JUMPDEST PUSH2 0x9642 DUP7 DUP7 PUSH2 0x88FE JUMP JUMPDEST SWAP4 POP PUSH1 0x40 DUP6 ADD CALLDATALOAD PUSH2 0x94E7 DUP2 PUSH2 0xA5C8 JUMP JUMPDEST PUSH1 0x0 DUP1 PUSH1 0x0 DUP1 PUSH1 0x80 DUP6 DUP8 SUB SLT ISZERO PUSH2 0x9667 JUMPI DUP2 DUP3 REVERT JUMPDEST DUP5 CALLDATALOAD PUSH1 0x1 PUSH1 0x1 PUSH1 0x40 SHL SUB DUP1 DUP3 GT ISZERO PUSH2 0x967D JUMPI DUP4 DUP5 REVERT JUMPDEST PUSH2 0x9689 DUP9 DUP4 DUP10 ADD PUSH2 0x8941 JUMP JUMPDEST SWAP6 POP PUSH1 0x20 DUP8 ADD CALLDATALOAD SWAP2 POP PUSH2 0x969B DUP3 PUSH2 0xA5C8 JUMP JUMPDEST SWAP1 SWAP4 POP PUSH1 0x40 DUP7 ADD CALLDATALOAD SWAP1 PUSH2 0x96AD DUP3 PUSH2 0xA5C8 JUMP JUMPDEST SWAP1 SWAP3 POP PUSH1 0x60 DUP7 ADD CALLDATALOAD SWAP1 DUP1 DUP3 GT ISZERO PUSH2 0x95BD JUMPI DUP3 DUP4 REVERT JUMPDEST PUSH1 0x0 DUP1 PUSH1 0x0 DUP1 PUSH1 0x80 DUP6 DUP8 SUB SLT ISZERO PUSH2 0x96D7 JUMPI DUP2 DUP3 REVERT JUMPDEST DUP5 CALLDATALOAD PUSH1 0x1 PUSH1 0x1 PUSH1 0x40 SHL SUB DUP2 GT ISZERO PUSH2 0x96EC JUMPI DUP3 DUP4 REVERT JUMPDEST PUSH2 0x96F8 DUP8 DUP3 DUP9 ADD PUSH2 0x8941 JUMP JUMPDEST SWAP5 POP POP PUSH1 0x20 DUP6 ADD CALLDATALOAD PUSH2 0x8E41 DUP2 PUSH2 0xA5C8 JUMP JUMPDEST PUSH1 0x0 DUP1 PUSH1 0x0 DUP1 PUSH1 0x80 DUP6 DUP8 SUB SLT ISZERO PUSH2 0x971E JUMPI DUP2 DUP3 REVERT JUMPDEST DUP5 CALLDATALOAD PUSH1 0x1 PUSH1 0x1 PUSH1 0x40 SHL SUB DUP2 GT ISZERO PUSH2 0x9733 JUMPI DUP3 DUP4 REVERT JUMPDEST PUSH2 0x973F DUP8 DUP3 DUP9 ADD PUSH2 0x8941 JUMP JUMPDEST SWAP5 POP POP PUSH1 0x20 DUP6 ADD CALLDATALOAD SWAP3 POP PUSH1 0x40 DUP6 ADD CALLDATALOAD PUSH2 0x9757 DUP2 PUSH2 0xA5C8 JUMP JUMPDEST SWAP2 POP PUSH1 0x60 DUP6 ADD CALLDATALOAD PUSH2 0x8BFC DUP2 PUSH2 0xA5C8 JUMP JUMPDEST PUSH1 0x0 DUP1 PUSH1 0x0 PUSH2 0x220 DUP5 DUP7 SUB SLT ISZERO PUSH2 0x977C JUMPI DUP1 DUP2 REVERT JUMPDEST PUSH2 0x9786 DUP6 DUP6 PUSH2 0x89CC JUMP JUMPDEST SWAP3 POP PUSH2 0x9796 DUP6 PUSH2 0x180 DUP7 ADD PUSH2 0x8AB9 JUMP JUMPDEST SWAP2 POP PUSH2 0x200 DUP5 ADD CALLDATALOAD PUSH2 0x8C4C DUP2 PUSH2 0xA5C8 JUMP JUMPDEST PUSH1 0x0 DUP1 PUSH1 0x0 DUP1 DUP5 DUP7 SUB PUSH1 0xC0 DUP2 SLT ISZERO PUSH2 0x97BD JUMPI DUP3 DUP4 REVERT JUMPDEST PUSH1 0x60 DUP2 SLT ISZERO PUSH2 0x97CA JUMPI DUP3 DUP4 REVERT JUMPDEST POP PUSH2 0x97D5 PUSH1 0x60 PUSH2 0xA518 JUMP JUMPDEST DUP6 CALLDATALOAD PUSH2 0x97E0 DUP2 PUSH2 0xA5C8 JUMP JUMPDEST DUP2 MSTORE PUSH1 0x20 DUP7 DUP2 ADD CALLDATALOAD SWAP1 DUP3 ADD MSTORE PUSH1 0x40 DUP7 ADD CALLDATALOAD PUSH2 0x97FA DUP2 PUSH2 0xA5C8 JUMP JUMPDEST PUSH1 0x40 DUP3 ADD MSTORE SWAP4 POP PUSH1 0x60 DUP6 ADD CALLDATALOAD PUSH2 0x980F DUP2 PUSH2 0xA5C8 JUMP JUMPDEST SWAP3 POP PUSH1 0x80 DUP6 ADD CALLDATALOAD PUSH2 0x9609 DUP2 PUSH2 0xA5C8 JUMP JUMPDEST PUSH1 0x0 DUP1 PUSH1 0x0 DUP4 DUP6 SUB PUSH1 0xA0 DUP2 SLT ISZERO PUSH2 0x9834 JUMPI DUP2 DUP3 REVERT JUMPDEST PUSH1 0x60 DUP2 SLT ISZERO PUSH2 0x9841 JUMPI DUP2 DUP3 REVERT JUMPDEST POP PUSH2 0x984C PUSH1 0x60 PUSH2 0xA518 JUMP JUMPDEST DUP5 MLOAD DUP2 MSTORE PUSH1 0x20 DUP6 ADD MLOAD PUSH1 0x5 DUP2 LT PUSH2 0x9861 JUMPI DUP3 DUP4 REVERT JUMPDEST PUSH1 0x20 DUP3 ADD MSTORE PUSH1 0x40 DUP6 ADD MLOAD PUSH2 0x9874 DUP2 PUSH2 0xA610 JUMP JUMPDEST PUSH1 0x40 DUP3 ADD MSTORE PUSH1 0x60 DUP6 ADD MLOAD SWAP1 SWAP4 POP PUSH2 0x988A DUP2 PUSH2 0xA610 JUMP JUMPDEST PUSH1 0x80 DUP6 ADD MLOAD SWAP1 SWAP3 POP PUSH2 0x8C4C DUP2 PUSH2 0xA5DD JUMP JUMPDEST PUSH1 0x0 PUSH1 0x20 DUP3 DUP5 SUB SLT ISZERO PUSH2 0x98AC JUMPI DUP1 DUP2 REVERT JUMPDEST DUP2 MLOAD PUSH3 0xFFFFFF DUP2 AND DUP2 EQ PUSH2 0x4077 JUMPI DUP2 DUP3 REVERT JUMPDEST PUSH1 0x0 DUP1 PUSH1 0x40 DUP4 DUP6 SUB SLT ISZERO PUSH2 0x98D0 JUMPI DUP2 DUP3 REVERT JUMPDEST POP POP DUP1 MLOAD PUSH1 0x20 SWAP1 SWAP2 ADD MLOAD SWAP1 SWAP3 SWAP1 SWAP2 POP JUMP JUMPDEST PUSH1 0x0 DUP1 PUSH1 0x0 DUP1 PUSH1 0x80 DUP6 DUP8 SUB SLT ISZERO PUSH2 0x98F6 JUMPI DUP2 DUP3 REVERT JUMPDEST POP POP DUP3 MLOAD PUSH1 0x20 DUP5 ADD MLOAD PUSH1 0x40 DUP6 ADD MLOAD PUSH1 0x60 SWAP1 SWAP6 ADD MLOAD SWAP2 SWAP7 SWAP1 SWAP6 POP SWAP1 SWAP3 POP SWAP1 POP JUMP JUMPDEST PUSH1 0x0 DUP1 PUSH1 0x0 DUP1 PUSH1 0x0 PUSH1 0xA0 DUP7 DUP9 SUB SLT ISZERO PUSH2 0x992D JUMPI DUP3 DUP4 REVERT JUMPDEST POP POP DUP4 MLOAD PUSH1 0x20 DUP6 ADD MLOAD PUSH1 0x40 DUP7 ADD MLOAD PUSH1 0x60 DUP8 ADD MLOAD PUSH1 0x80 SWAP1 SWAP8 ADD MLOAD SWAP3 SWAP9 SWAP2 SWAP8 POP SWAP6 SWAP5 POP SWAP1 SWAP3 POP SWAP1 POP JUMP JUMPDEST PUSH1 0x0 PUSH1 0x20 DUP3 DUP5 SUB SLT ISZERO PUSH2 0x9966 JUMPI DUP1 DUP2 REVERT JUMPDEST DUP2 MLOAD PUSH2 0x4077 DUP2 PUSH2 0xA625 JUMP JUMPDEST PUSH1 0x1 PUSH1 0x1 PUSH1 0xA0 SHL SUB AND DUP2 MSTORE PUSH1 0x20 ADD SWAP1 JUMP JUMPDEST PUSH1 0x0 DUP2 MLOAD DUP4 MSTORE PUSH1 0x20 DUP3 ADD MLOAD PUSH1 0x20 DUP5 ADD MSTORE PUSH1 0x40 DUP3 ADD MLOAD PUSH1 0x40 DUP5 ADD MSTORE PUSH1 0x60 DUP3 ADD MLOAD PUSH1 0x60 DUP5 ADD MSTORE PUSH1 0x80 DUP3 ADD MLOAD PUSH1 0xA0 PUSH1 0x80 DUP6 ADD MSTORE PUSH2 0x14B3 PUSH1 0xA0 DUP6 ADD DUP3 PUSH2 0x9A3E JUMP JUMPDEST PUSH1 0x1 PUSH1 0x1 PUSH1 0xA0 SHL SUB AND SWAP1 MSTORE JUMP JUMPDEST PUSH1 0x0 DUP2 MLOAD DUP1 DUP5 MSTORE PUSH1 0x20 DUP1 DUP6 ADD SWAP5 POP DUP1 DUP5 ADD DUP4 JUMPDEST DUP4 DUP2 LT ISZERO PUSH2 0x9A04 JUMPI DUP2 MLOAD PUSH1 0x1 PUSH1 0x1 PUSH1 0xA0 SHL SUB AND DUP8 MSTORE SWAP6 DUP3 ADD SWAP6 SWAP1 DUP3 ADD SWAP1 PUSH1 0x1 ADD PUSH2 0x99DF JUMP JUMPDEST POP SWAP5 SWAP6 SWAP5 POP POP POP POP POP JUMP JUMPDEST PUSH1 0x0 DUP2 MLOAD DUP1 DUP5 MSTORE PUSH1 0x20 DUP1 DUP6 ADD SWAP5 POP DUP1 DUP5 ADD DUP4 JUMPDEST DUP4 DUP2 LT ISZERO PUSH2 0x9A04 JUMPI DUP2 MLOAD DUP8 MSTORE SWAP6 DUP3 ADD SWAP6 SWAP1 DUP3 ADD SWAP1 PUSH1 0x1 ADD PUSH2 0x9A22 JUMP JUMPDEST PUSH1 0x0 DUP2 MLOAD DUP1 DUP5 MSTORE PUSH2 0x9A56 DUP2 PUSH1 0x20 DUP7 ADD PUSH1 0x20 DUP7 ADD PUSH2 0xA58B JUMP JUMPDEST PUSH1 0x1F ADD PUSH1 0x1F NOT AND SWAP3 SWAP1 SWAP3 ADD PUSH1 0x20 ADD SWAP3 SWAP2 POP POP JUMP JUMPDEST DUP1 MLOAD PUSH1 0x1 PUSH1 0x1 PUSH1 0xA0 SHL SUB AND DUP3 MSTORE PUSH1 0x20 DUP1 DUP3 ADD MLOAD PUSH1 0x1 PUSH1 0x1 PUSH1 0xE0 SHL SUB NOT SWAP1 DUP2 AND SWAP2 DUP5 ADD SWAP2 SWAP1 SWAP2 MSTORE PUSH1 0x40 SWAP2 DUP3 ADD MLOAD AND SWAP2 ADD MSTORE JUMP JUMPDEST DUP1 MLOAD PUSH1 0x1 PUSH1 0x1 PUSH1 0xA0 SHL SUB SWAP1 DUP2 AND DUP4 MSTORE PUSH1 0x20 DUP1 DUP4 ADD MLOAD ISZERO ISZERO SWAP1 DUP5 ADD MSTORE PUSH1 0x40 DUP1 DUP4 ADD MLOAD SWAP1 SWAP2 AND SWAP1 DUP4 ADD MSTORE PUSH1 0x60 SWAP1 DUP2 ADD MLOAD ISZERO ISZERO SWAP2 ADD MSTORE JUMP JUMPDEST PUSH1 0x0 DUP2 MLOAD DUP4 MSTORE PUSH1 0x20 DUP3 ADD MLOAD PUSH1 0x40 PUSH1 0x20 DUP6 ADD MSTORE PUSH2 0x14B3 PUSH1 0x40 DUP6 ADD DUP3 PUSH2 0x9A3E JUMP JUMPDEST PUSH1 0x0 DUP2 MLOAD DUP4 MSTORE PUSH1 0x20 DUP3 ADD MLOAD PUSH1 0x1 DUP1 PUSH1 0xA0 SHL SUB DUP1 DUP3 AND PUSH1 0x20 DUP7 ADD MSTORE DUP1 PUSH1 0x40 DUP6 ADD MLOAD AND PUSH1 0x40 DUP7 ADD MSTORE DUP1 PUSH1 0x60 DUP6 ADD MLOAD AND PUSH1 0x60 DUP7 ADD MSTORE POP POP PUSH1 0x80 DUP3 ADD MLOAD PUSH1 0xA0 PUSH1 0x80 DUP6 ADD MSTORE PUSH2 0x14B3 PUSH1 0xA0 DUP6 ADD DUP3 PUSH2 0x9A3E JUMP JUMPDEST PUSH2 0x9B48 DUP3 DUP3 MLOAD PUSH2 0x99BF JUMP JUMPDEST PUSH1 0x20 DUP2 ADD MLOAD PUSH2 0x9B5A PUSH1 0x20 DUP5 ADD DUP3 PUSH2 0x99BF JUMP JUMPDEST POP PUSH1 0x40 DUP2 ADD MLOAD PUSH2 0x9B6D PUSH1 0x40 DUP5 ADD DUP3 PUSH2 0x9C3D JUMP JUMPDEST POP PUSH1 0x60 DUP2 ADD MLOAD PUSH2 0x9B80 PUSH1 0x60 DUP5 ADD DUP3 PUSH2 0x9C3D JUMP JUMPDEST POP PUSH1 0x80 DUP2 ADD MLOAD PUSH2 0x9B93 PUSH1 0x80 DUP5 ADD DUP3 PUSH2 0x9C3D JUMP JUMPDEST POP PUSH1 0xA0 DUP2 ADD MLOAD PUSH2 0x9BA6 PUSH1 0xA0 DUP5 ADD DUP3 PUSH2 0x99BF JUMP JUMPDEST POP PUSH1 0xC0 DUP2 ADD MLOAD PUSH2 0x9BB9 PUSH1 0xC0 DUP5 ADD DUP3 PUSH2 0x99BF JUMP JUMPDEST POP PUSH1 0xE0 DUP2 ADD MLOAD PUSH2 0x9BCC PUSH1 0xE0 DUP5 ADD DUP3 PUSH2 0x99BF JUMP JUMPDEST POP PUSH2 0x100 DUP1 DUP3 ADD MLOAD PUSH2 0x9BE0 DUP3 DUP6 ADD DUP3 PUSH2 0x99BF JUMP JUMPDEST POP POP PUSH2 0x120 DUP2 DUP2 ADD MLOAD SWAP1 DUP4 ADD MSTORE PUSH2 0x140 DUP1 DUP3 ADD MLOAD PUSH2 0x9C00 DUP3 DUP6 ADD DUP3 PUSH2 0x9C4A JUMP JUMPDEST POP POP PUSH2 0x160 SWAP1 DUP2 ADD MLOAD SWAP2 ADD MSTORE JUMP JUMPDEST DUP1 MLOAD PUSH2 0x9C19 DUP2 PUSH2 0xA5BB JUMP JUMPDEST DUP3 MSTORE PUSH1 0x20 DUP2 DUP2 ADD MLOAD PUSH1 0xFF AND SWAP1 DUP4 ADD MSTORE PUSH1 0x40 DUP1 DUP3 ADD MLOAD SWAP1 DUP4 ADD MSTORE PUSH1 0x60 SWAP1 DUP2 ADD MLOAD SWAP2 ADD MSTORE JUMP JUMPDEST PUSH1 0x1 PUSH1 0x1 PUSH1 0x80 SHL SUB AND SWAP1 MSTORE JUMP JUMPDEST PUSH1 0x1 PUSH1 0x1 PUSH1 0x40 SHL SUB AND SWAP1 MSTORE JUMP JUMPDEST PUSH1 0x0 DUP3 DUP5 DUP4 CALLDATACOPY SWAP2 ADD SWAP1 DUP2 MSTORE SWAP2 SWAP1 POP JUMP JUMPDEST PUSH1 0x0 DUP3 MLOAD PUSH2 0x9C79 DUP2 DUP5 PUSH1 0x20 DUP8 ADD PUSH2 0xA58B JUMP JUMPDEST SWAP2 SWAP1 SWAP2 ADD SWAP3 SWAP2 POP POP JUMP JUMPDEST PUSH1 0x1 PUSH1 0x1 PUSH1 0xA0 SHL SUB SWAP2 SWAP1 SWAP2 AND DUP2 MSTORE PUSH1 0x20 ADD SWAP1 JUMP JUMPDEST PUSH1 0x1 PUSH1 0x1 PUSH1 0xA0 SHL SUB SWAP3 SWAP1 SWAP3 AND DUP3 MSTORE PUSH1 0x20 DUP3 ADD MSTORE PUSH1 0x40 ADD SWAP1 JUMP JUMPDEST PUSH1 0x1 PUSH1 0x1 PUSH1 0xA0 SHL SUB SWAP3 DUP4 AND DUP2 MSTORE SWAP2 AND PUSH1 0x20 DUP3 ADD MSTORE PUSH1 0x40 ADD SWAP1 JUMP JUMPDEST PUSH1 0x1 PUSH1 0x1 PUSH1 0xA0 SHL SUB SWAP5 DUP6 AND DUP2 MSTORE SWAP3 DUP5 AND PUSH1 0x20 DUP5 ADD MSTORE SWAP1 DUP4 AND PUSH1 0x40 DUP4 ADD MSTORE SWAP1 SWAP2 AND PUSH1 0x60 DUP3 ADD MSTORE PUSH1 0x80 ADD SWAP1 JUMP JUMPDEST PUSH1 0x1 PUSH1 0x1 PUSH1 0xA0 SHL SUB DUP6 DUP2 AND DUP3 MSTORE DUP5 DUP2 AND PUSH1 0x20 DUP4 ADD MSTORE DUP4 AND PUSH1 0x40 DUP3 ADD MSTORE PUSH1 0x80 PUSH1 0x60 DUP3 ADD DUP2 SWAP1 MSTORE PUSH1 0x0 SWAP1 PUSH2 0x6703 SWAP1 DUP4 ADD DUP5 PUSH2 0x9A0F JUMP JUMPDEST PUSH1 0x1 PUSH1 0x1 PUSH1 0xA0 SHL SUB SWAP5 DUP6 AND DUP2 MSTORE SWAP3 DUP5 AND PUSH1 0x20 DUP5 ADD MSTORE SWAP3 AND PUSH1 0x40 DUP3 ADD MSTORE PUSH1 0x60 DUP2 ADD SWAP2 SWAP1 SWAP2 MSTORE PUSH1 0x80 ADD SWAP1 JUMP JUMPDEST PUSH1 0x1 PUSH1 0x1 PUSH1 0xA0 SHL SUB SWAP4 DUP5 AND DUP2 MSTORE SWAP2 SWAP1 SWAP3 AND PUSH1 0x20 DUP3 ADD MSTORE SWAP1 ISZERO ISZERO PUSH1 0x40 DUP3 ADD MSTORE PUSH1 0x60 ADD SWAP1 JUMP JUMPDEST PUSH1 0x1 PUSH1 0x1 PUSH1 0xA0 SHL SUB DUP6 DUP2 AND DUP3 MSTORE DUP5 AND PUSH1 0x20 DUP3 ADD MSTORE DUP3 ISZERO ISZERO PUSH1 0x40 DUP3 ADD MSTORE PUSH1 0x80 PUSH1 0x60 DUP3 ADD DUP2 SWAP1 MSTORE PUSH1 0x0 SWAP1 PUSH2 0x6703 SWAP1 DUP4 ADD DUP5 PUSH2 0x9A3E JUMP JUMPDEST PUSH1 0x1 PUSH1 0x1 PUSH1 0xA0 SHL SUB SWAP4 DUP5 AND DUP2 MSTORE SWAP2 SWAP1 SWAP3 AND PUSH1 0x20 DUP3 ADD MSTORE PUSH1 0x40 DUP2 ADD SWAP2 SWAP1 SWAP2 MSTORE PUSH1 0x60 ADD SWAP1 JUMP JUMPDEST PUSH1 0x1 PUSH1 0x1 PUSH1 0xA0 SHL SUB DUP7 DUP2 AND DUP3 MSTORE DUP6 AND PUSH1 0x20 DUP3 ADD MSTORE PUSH1 0x40 DUP2 ADD DUP5 SWAP1 MSTORE PUSH1 0x60 DUP2 ADD DUP4 SWAP1 MSTORE PUSH1 0xA0 PUSH1 0x80 DUP3 ADD DUP2 SWAP1 MSTORE PUSH1 0x0 SWAP1 PUSH2 0x9E09 SWAP1 DUP4 ADD DUP5 PUSH2 0x9A3E JUMP JUMPDEST SWAP8 SWAP7 POP POP POP POP POP POP POP JUMP JUMPDEST PUSH1 0x1 PUSH1 0x1 PUSH1 0xA0 SHL SUB DUP5 AND DUP2 MSTORE PUSH1 0x60 PUSH1 0x20 DUP3 ADD DUP2 SWAP1 MSTORE PUSH1 0x0 SWAP1 PUSH2 0x9E38 SWAP1 DUP4 ADD DUP6 PUSH2 0x99CC JUMP JUMPDEST DUP3 DUP2 SUB PUSH1 0x40 DUP5 ADD MSTORE PUSH2 0x6703 DUP2 DUP6 PUSH2 0x9A0F JUMP JUMPDEST PUSH1 0x1 PUSH1 0x1 PUSH1 0xA0 SHL SUB DUP6 AND DUP2 MSTORE PUSH1 0x0 PUSH2 0x9E61 DUP6 PUSH2 0xA5BB JUMP JUMPDEST DUP5 PUSH1 0x20 DUP4 ADD MSTORE PUSH1 0x80 PUSH1 0x40 DUP4 ADD MSTORE PUSH2 0x9E7B PUSH1 0x80 DUP4 ADD DUP6 PUSH2 0x9A0F JUMP JUMPDEST DUP3 DUP2 SUB PUSH1 0x60 DUP5 ADD MSTORE PUSH2 0x9E09 DUP2 DUP6 PUSH2 0x9A0F JUMP JUMPDEST PUSH1 0x1 PUSH1 0x1 PUSH1 0xA0 SHL SUB DUP10 DUP2 AND DUP3 MSTORE PUSH1 0x0 SWAP1 PUSH2 0x100 SWAP1 PUSH2 0x9EAA DUP12 PUSH2 0xA5BB JUMP JUMPDEST DUP11 PUSH1 0x20 DUP6 ADD MSTORE DUP2 PUSH1 0x40 DUP6 ADD MSTORE PUSH2 0x9EC2 DUP3 DUP6 ADD DUP12 PUSH2 0x9A0F JUMP JUMPDEST SWAP2 POP DUP4 DUP3 SUB PUSH1 0x60 DUP6 ADD MSTORE PUSH2 0x9ED6 DUP3 DUP11 PUSH2 0x9A0F JUMP JUMPDEST SWAP1 DUP9 AND PUSH1 0x80 DUP6 ADD MSTORE SWAP1 POP PUSH2 0x9EE9 DUP7 PUSH2 0xA5BB JUMP JUMPDEST DUP6 PUSH1 0xA0 DUP5 ADD MSTORE DUP3 DUP2 SUB PUSH1 0xC0 DUP5 ADD MSTORE PUSH2 0x9F01 DUP2 DUP7 PUSH2 0x9A0F JUMP JUMPDEST SWAP1 POP DUP3 DUP2 SUB PUSH1 0xE0 DUP5 ADD MSTORE PUSH2 0x9F15 DUP2 DUP6 PUSH2 0x9A0F JUMP JUMPDEST SWAP12 SWAP11 POP POP POP POP POP POP POP POP POP POP POP JUMP JUMPDEST PUSH1 0x1 PUSH1 0x1 PUSH1 0xA0 SHL SUB DUP4 AND DUP2 MSTORE PUSH1 0x40 PUSH1 0x20 DUP3 ADD DUP2 SWAP1 MSTORE PUSH1 0x0 SWAP1 PUSH2 0x14B3 SWAP1 DUP4 ADD DUP5 PUSH2 0x9AF0 JUMP JUMPDEST PUSH1 0x0 PUSH1 0x40 DUP3 MSTORE PUSH2 0x9F5B PUSH1 0x40 DUP4 ADD DUP6 PUSH2 0x99CC JUMP JUMPDEST DUP3 DUP2 SUB PUSH1 0x20 DUP5 ADD MSTORE PUSH2 0x1521 DUP2 DUP6 PUSH2 0x9A0F JUMP JUMPDEST PUSH1 0x0 PUSH1 0x40 DUP3 MSTORE PUSH2 0x9F80 PUSH1 0x40 DUP4 ADD DUP6 PUSH2 0x99CC JUMP JUMPDEST SWAP1 POP DUP3 PUSH1 0x20 DUP4 ADD MSTORE SWAP4 SWAP3 POP POP POP JUMP JUMPDEST PUSH1 0x0 PUSH1 0x40 DUP3 ADD PUSH1 0x40 DUP4 MSTORE DUP1 DUP6 MLOAD DUP1 DUP4 MSTORE PUSH1 0x60 DUP6 ADD SWAP2 POP PUSH1 0x20 SWAP3 POP PUSH1 0x60 DUP4 DUP3 MUL DUP7 ADD ADD DUP4 DUP9 ADD DUP6 JUMPDEST DUP4 DUP2 LT ISZERO PUSH2 0x9FE4 JUMPI PUSH1 0x5F NOT DUP9 DUP5 SUB ADD DUP6 MSTORE PUSH2 0x9FD2 DUP4 DUP4 MLOAD PUSH2 0x9A3E JUMP JUMPDEST SWAP5 DUP7 ADD SWAP5 SWAP3 POP SWAP1 DUP6 ADD SWAP1 PUSH1 0x1 ADD PUSH2 0x9FB6 JUMP JUMPDEST POP POP DUP6 DUP2 SUB DUP5 DUP8 ADD MSTORE PUSH2 0x7F6F DUP2 DUP9 PUSH2 0x9A0F JUMP JUMPDEST PUSH1 0x20 DUP1 DUP3 MSTORE DUP3 MLOAD DUP3 DUP3 ADD DUP2 SWAP1 MSTORE PUSH1 0x0 SWAP2 SWAP1 PUSH1 0x40 SWAP1 DUP2 DUP6 ADD SWAP1 DUP1 DUP5 MUL DUP7 ADD DUP4 ADD DUP8 DUP6 ADD DUP7 JUMPDEST DUP4 DUP2 LT ISZERO PUSH2 0xA05E JUMPI DUP9 DUP4 SUB PUSH1 0x3F NOT ADD DUP6 MSTORE DUP2 MLOAD DUP1 MLOAD DUP8 DUP6 MSTORE PUSH2 0xA03F DUP9 DUP7 ADD DUP3 PUSH2 0x9A3E JUMP JUMPDEST SWAP2 DUP10 ADD MLOAD ISZERO ISZERO SWAP5 DUP10 ADD SWAP5 SWAP1 SWAP5 MSTORE SWAP5 DUP8 ADD SWAP5 SWAP3 POP SWAP1 DUP7 ADD SWAP1 PUSH1 0x1 ADD PUSH2 0xA01B JUMP JUMPDEST POP SWAP1 SWAP9 SWAP8 POP POP POP POP POP POP POP POP JUMP JUMPDEST PUSH1 0x0 PUSH1 0x20 DUP3 MSTORE PUSH2 0x4077 PUSH1 0x20 DUP4 ADD DUP5 PUSH2 0x9A0F JUMP JUMPDEST SWAP1 ISZERO ISZERO DUP2 MSTORE PUSH1 0x20 ADD SWAP1 JUMP JUMPDEST DUP4 ISZERO ISZERO DUP2 MSTORE PUSH1 0x1 PUSH1 0x1 PUSH1 0xA0 SHL SUB DUP4 AND PUSH1 0x20 DUP3 ADD MSTORE PUSH1 0x60 PUSH1 0x40 DUP3 ADD DUP2 SWAP1 MSTORE PUSH1 0x0 SWAP1 PUSH2 0x1521 SWAP1 DUP4 ADD DUP5 PUSH2 0x9A0F JUMP JUMPDEST SWAP1 DUP2 MSTORE PUSH1 0x20 ADD SWAP1 JUMP JUMPDEST PUSH1 0x0 DUP5 DUP3 MSTORE PUSH1 0x60 PUSH1 0x20 DUP4 ADD MSTORE PUSH2 0x9E38 PUSH1 0x60 DUP4 ADD DUP6 PUSH2 0x9A3E JUMP JUMPDEST PUSH1 0x0 PUSH1 0x20 DUP3 MSTORE PUSH2 0x4077 PUSH1 0x20 DUP4 ADD DUP5 PUSH2 0x9A3E JUMP JUMPDEST PUSH1 0x0 PUSH1 0x40 DUP3 MSTORE PUSH2 0x9F80 PUSH1 0x40 DUP4 ADD DUP6 PUSH2 0x9A3E JUMP JUMPDEST PUSH1 0x1 PUSH1 0x1 PUSH1 0xA0 SHL SUB SWAP4 DUP5 AND DUP2 MSTORE SWAP2 SWAP1 SWAP3 AND PUSH1 0x20 DUP3 ADD MSTORE PUSH3 0xFFFFFF SWAP1 SWAP2 AND PUSH1 0x40 DUP3 ADD MSTORE PUSH1 0x60 ADD SWAP1 JUMP JUMPDEST PUSH1 0x1 PUSH1 0x1 PUSH1 0xA0 SHL SUB DUP4 AND DUP2 MSTORE PUSH1 0x40 PUSH1 0x20 DUP3 ADD DUP2 SWAP1 MSTORE PUSH1 0x0 SWAP1 PUSH2 0x14B3 SWAP1 DUP4 ADD DUP5 PUSH2 0x9A0F JUMP JUMPDEST PUSH1 0x60 DUP2 ADD PUSH2 0xA157 DUP6 PUSH2 0xA5BB JUMP JUMPDEST SWAP4 DUP2 MSTORE PUSH1 0x20 DUP2 ADD SWAP3 SWAP1 SWAP3 MSTORE PUSH1 0x40 SWAP1 SWAP2 ADD MSTORE SWAP1 JUMP JUMPDEST PUSH1 0x60 DUP2 ADD PUSH1 0x8 DUP6 LT PUSH2 0xA157 JUMPI INVALID JUMPDEST PUSH1 0x0 PUSH1 0xE0 DUP3 ADD PUSH2 0xA188 DUP8 PUSH2 0xA580 JUMP JUMPDEST DUP4 MSTORE PUSH1 0x20 PUSH1 0xE0 DUP2 DUP6 ADD MSTORE DUP2 DUP8 MLOAD PUSH2 0xA19F DUP2 DUP6 PUSH2 0xA0B6 JUMP JUMPDEST SWAP2 POP DUP2 SWAP4 POP DUP3 DUP2 MUL DUP3 ADD DUP4 DUP11 ADD DUP7 JUMPDEST DUP4 DUP2 LT ISZERO PUSH2 0xA1D8 JUMPI DUP7 DUP4 SUB DUP6 MSTORE PUSH2 0xA1C6 DUP4 DUP4 MLOAD PUSH2 0x9982 JUMP JUMPDEST SWAP5 DUP7 ADD SWAP5 SWAP3 POP SWAP1 DUP6 ADD SWAP1 PUSH1 0x1 ADD PUSH2 0xA1AE JUMP JUMPDEST POP POP DUP7 DUP2 SUB PUSH1 0x40 DUP9 ADD MSTORE DUP1 SWAP5 POP DUP9 MLOAD SWAP3 POP PUSH2 0xA1F3 DUP4 DUP3 PUSH2 0xA0B6 JUMP JUMPDEST SWAP5 POP POP POP DUP2 DUP8 ADD DUP5 JUMPDEST DUP3 DUP2 LT ISZERO PUSH2 0xA21D JUMPI PUSH2 0xA20F DUP6 DUP4 MLOAD PUSH2 0x9971 JUMP JUMPDEST SWAP5 POP SWAP1 DUP4 ADD SWAP1 PUSH1 0x1 ADD PUSH2 0xA1FC JUMP JUMPDEST POP POP POP POP DUP1 SWAP2 POP POP PUSH2 0x1521 PUSH1 0x60 DUP4 ADD DUP5 PUSH2 0x9A9C JUMP JUMPDEST PUSH1 0xF SWAP4 DUP5 SIGNEXTEND DUP2 MSTORE SWAP2 SWAP1 SWAP3 SIGNEXTEND PUSH1 0x20 DUP3 ADD MSTORE PUSH1 0x40 DUP2 ADD SWAP2 SWAP1 SWAP2 MSTORE PUSH1 0x60 ADD SWAP1 JUMP JUMPDEST PUSH1 0xF DUP4 SWAP1 SIGNEXTEND DUP2 MSTORE PUSH1 0x80 DUP2 ADD PUSH2 0x4077 PUSH1 0x20 DUP4 ADD DUP5 PUSH2 0x9A6A JUMP JUMPDEST PUSH1 0x20 DUP1 DUP3 MSTORE PUSH1 0x24 SWAP1 DUP3 ADD MSTORE PUSH32 0x556E6973776170563353616D706C65722F746F6B656E5061746820746F6F2073 PUSH1 0x40 DUP3 ADD MSTORE PUSH4 0x1A1BDC9D PUSH1 0xE2 SHL PUSH1 0x60 DUP3 ADD MSTORE PUSH1 0x80 ADD SWAP1 JUMP JUMPDEST PUSH1 0x20 DUP1 DUP3 MSTORE PUSH1 0x25 SWAP1 DUP3 ADD MSTORE PUSH32 0x455243323042726964676553616D706C65722F494E56414C49445F544F4B454E PUSH1 0x40 DUP3 ADD MSTORE PUSH5 0x2FA820A4A9 PUSH1 0xD9 SHL PUSH1 0x60 DUP3 ADD MSTORE PUSH1 0x80 ADD SWAP1 JUMP JUMPDEST PUSH1 0x20 DUP1 DUP3 MSTORE PUSH1 0x25 SWAP1 DUP3 ADD MSTORE PUSH32 0x556E6973776170563353616D706C65722F696E76616C69642070617468206C65 PUSH1 0x40 DUP3 ADD MSTORE PUSH5 0x6E67746873 PUSH1 0xD8 SHL PUSH1 0x60 DUP3 ADD MSTORE PUSH1 0x80 ADD SWAP1 JUMP JUMPDEST PUSH1 0x0 PUSH2 0xA342 DUP3 DUP8 PUSH2 0x9A6A JUMP JUMPDEST DUP5 PUSH1 0xF SIGNEXTEND PUSH1 0x60 DUP4 ADD MSTORE DUP4 PUSH1 0xF SIGNEXTEND PUSH1 0x80 DUP4 ADD MSTORE PUSH1 0xC0 PUSH1 0xA0 DUP4 ADD MSTORE PUSH2 0x6703 PUSH1 0xC0 DUP4 ADD DUP5 PUSH2 0x9A0F JUMP JUMPDEST PUSH1 0x0 PUSH1 0x60 DUP3 MSTORE PUSH2 0xA37B PUSH1 0x60 DUP4 ADD DUP7 PUSH2 0x9AD1 JUMP JUMPDEST DUP3 DUP2 SUB PUSH1 0x20 DUP5 ADD MSTORE PUSH2 0xA38D DUP2 DUP7 PUSH2 0x9AD1 JUMP JUMPDEST SWAP2 POP POP DUP3 PUSH1 0x40 DUP4 ADD MSTORE SWAP5 SWAP4 POP POP POP POP JUMP JUMPDEST PUSH1 0x0 PUSH1 0x80 DUP3 MSTORE PUSH2 0xA3B1 PUSH1 0x80 DUP4 ADD DUP8 PUSH2 0x9AF0 JUMP JUMPDEST PUSH1 0x1 PUSH1 0x1 PUSH1 0xA0 SHL SUB SWAP6 DUP7 AND PUSH1 0x20 DUP5 ADD MSTORE SWAP4 SWAP1 SWAP5 AND PUSH1 0x40 DUP3 ADD MSTORE PUSH1 0x60 ADD MSTORE SWAP3 SWAP2 POP POP JUMP JUMPDEST PUSH1 0x0 PUSH1 0x80 DUP3 MSTORE PUSH2 0xA3E7 PUSH1 0x80 DUP4 ADD DUP8 PUSH2 0x9AF0 JUMP JUMPDEST PUSH1 0x20 DUP4 ADD SWAP6 SWAP1 SWAP6 MSTORE POP PUSH1 0x1 PUSH1 0x1 PUSH1 0xA0 SHL SUB SWAP3 DUP4 AND PUSH1 0x40 DUP3 ADD MSTORE SWAP2 AND PUSH1 0x60 SWAP1 SWAP2 ADD MSTORE SWAP2 SWAP1 POP JUMP JUMPDEST PUSH2 0x200 DUP2 ADD PUSH2 0xA41C DUP3 DUP6 PUSH2 0x9B3D JUMP JUMPDEST PUSH2 0x4077 PUSH2 0x180 DUP4 ADD DUP5 PUSH2 0x9C0E JUMP JUMPDEST PUSH2 0x220 DUP2 ADD PUSH2 0xA439 DUP3 DUP7 PUSH2 0x9B3D JUMP JUMPDEST PUSH2 0xA447 PUSH2 0x180 DUP4 ADD DUP6 PUSH2 0x9C0E JUMP JUMPDEST PUSH1 0x1 PUSH1 0x1 PUSH1 0xA0 SHL SUB SWAP3 SWAP1 SWAP3 AND PUSH2 0x200 SWAP2 SWAP1 SWAP2 ADD MSTORE SWAP3 SWAP2 POP POP JUMP JUMPDEST PUSH1 0x0 DUP4 DUP3 MSTORE PUSH1 0x40 PUSH1 0x20 DUP4 ADD MSTORE PUSH2 0x14B3 PUSH1 0x40 DUP4 ADD DUP5 PUSH2 0x99CC JUMP JUMPDEST PUSH1 0x0 DUP5 DUP3 MSTORE PUSH1 0x60 PUSH1 0x20 DUP4 ADD MSTORE PUSH2 0xA493 PUSH1 0x60 DUP4 ADD DUP6 PUSH2 0x99CC JUMP JUMPDEST DUP3 DUP2 SUB PUSH1 0x40 DUP5 ADD MSTORE PUSH2 0x6703 DUP2 DUP6 PUSH2 0x99CC JUMP JUMPDEST SWAP6 DUP7 MSTORE PUSH1 0x20 DUP7 ADD SWAP5 SWAP1 SWAP5 MSTORE PUSH1 0x40 DUP6 ADD SWAP3 SWAP1 SWAP3 MSTORE PUSH1 0x60 DUP5 ADD MSTORE PUSH1 0x80 DUP4 ADD MSTORE PUSH1 0xA0 DUP3 ADD MSTORE PUSH1 0xC0 ADD SWAP1 JUMP JUMPDEST PUSH1 0x0 DUP1 DUP4 CALLDATALOAD PUSH1 0x1E NOT DUP5 CALLDATASIZE SUB ADD DUP2 SLT PUSH2 0xA4E3 JUMPI DUP3 DUP4 REVERT JUMPDEST DUP4 ADD DUP1 CALLDATALOAD SWAP2 POP PUSH1 0x1 PUSH1 0x1 PUSH1 0x40 SHL SUB DUP3 GT ISZERO PUSH2 0xA4FC JUMPI DUP3 DUP4 REVERT JUMPDEST PUSH1 0x20 ADD SWAP2 POP CALLDATASIZE DUP2 SWAP1 SUB DUP3 SGT ISZERO PUSH2 0xA511 JUMPI PUSH1 0x0 DUP1 REVERT JUMPDEST SWAP3 POP SWAP3 SWAP1 POP JUMP JUMPDEST PUSH1 0x40 MLOAD DUP2 DUP2 ADD PUSH1 0x1 PUSH1 0x1 PUSH1 0x40 SHL SUB DUP2 GT DUP3 DUP3 LT OR ISZERO PUSH2 0xA536 JUMPI PUSH1 0x0 DUP1 REVERT JUMPDEST PUSH1 0x40 MSTORE SWAP2 SWAP1 POP JUMP JUMPDEST PUSH1 0x0 PUSH1 0x1 PUSH1 0x1 PUSH1 0x40 SHL SUB DUP3 GT ISZERO PUSH2 0xA553 JUMPI DUP1 DUP2 REVERT JUMPDEST POP PUSH1 0x20 SWAP1 DUP2 MUL ADD SWAP1 JUMP JUMPDEST PUSH1 0x0 PUSH1 0x1 PUSH1 0x1 PUSH1 0x40 SHL SUB DUP3 GT ISZERO PUSH2 0xA572 JUMPI DUP1 DUP2 REVERT JUMPDEST POP PUSH1 0x1F ADD PUSH1 0x1F NOT AND PUSH1 0x20 ADD SWAP1 JUMP JUMPDEST DUP1 PUSH1 0x2 DUP2 LT PUSH2 0xE70 JUMPI INVALID JUMPDEST PUSH1 0x0 JUMPDEST DUP4 DUP2 LT ISZERO PUSH2 0xA5A6 JUMPI DUP2 DUP2 ADD MLOAD DUP4 DUP3 ADD MSTORE PUSH1 0x20 ADD PUSH2 0xA58E JUMP JUMPDEST DUP4 DUP2 GT ISZERO PUSH2 0xA5B5 JUMPI PUSH1 0x0 DUP5 DUP5 ADD MSTORE JUMPDEST POP POP POP POP JUMP JUMPDEST PUSH1 0x4 DUP2 LT PUSH2 0xA5C5 JUMPI INVALID JUMPDEST POP JUMP JUMPDEST PUSH1 0x1 PUSH1 0x1 PUSH1 0xA0 SHL SUB DUP2 AND DUP2 EQ PUSH2 0xA5C5 JUMPI PUSH1 0x0 DUP1 REVERT JUMPDEST DUP1 ISZERO ISZERO DUP2 EQ PUSH2 0xA5C5 JUMPI PUSH1 0x0 DUP1 REVERT JUMPDEST PUSH1 0x1 PUSH1 0x1 PUSH1 0xE0 SHL SUB NOT DUP2 AND DUP2 EQ PUSH2 0xA5C5 JUMPI PUSH1 0x0 DUP1 REVERT JUMPDEST DUP1 PUSH1 0xF SIGNEXTEND DUP2 EQ PUSH2 0xA5C5 JUMPI PUSH1 0x0 DUP1 REVERT JUMPDEST PUSH1 0x1 PUSH1 0x1 PUSH1 0x80 SHL SUB DUP2 AND DUP2 EQ PUSH2 0xA5C5 JUMPI PUSH1 0x0 DUP1 REVERT JUMPDEST PUSH1 0xFF DUP2 AND DUP2 EQ PUSH2 0xA5C5 JUMPI PUSH1 0x0 DUP1 REVERT INVALID LOG2 PUSH5 0x6970667358 0x22 SLT KECCAK256 0xEE 0x48 CALLDATALOAD 0xA7 PUSH3 0x88F10C 0x4B 0xB9 0xD4 PUSH25 0x6030558D1C8D1CDB626B1AD75D1B9C093D776B2764736F6C63 NUMBER STOP MOD 0xC STOP CALLER "
            }
        }
    },
    "sourceTreeHashHex": "0x8b11356e8c6cf9f1326b674b5216fdfe601588e98f4ddfa99314efbd5331be0b",
    "compiler": {
        "name": "solc",
        "version": "0.6.12+commit.27d51765",
        "settings": {
            "remappings": [
                "@0x/contracts-erc20=/Users/kim/Development/protocol/packages/asset-swapper/node_modules/@0x/contracts-erc20",
                "@0x/contracts-utils=/Users/kim/Development/protocol/packages/asset-swapper/node_modules/@0x/contracts-utils",
                "@0x/contracts-zero-ex=/Users/kim/Development/protocol/packages/asset-swapper/node_modules/@0x/contracts-zero-ex"
            ],
            "optimizer": {
                "enabled": true,
                "runs": 200,
                "details": {
                    "yul": true,
                    "deduplicate": true
                }
            },
            "outputSelection": {
                "*": {
                    "*": [
                        "abi",
                        "devdoc",
                        "evm.bytecode.object",
                        "evm.bytecode.sourceMap",
                        "evm.deployedBytecode.object",
                        "evm.deployedBytecode.sourceMap"
                    ]
                }
            },
            "evmVersion": "istanbul"
        }
    },
    "chains": {}
}