{
    "schemaVersion": "2.0.0",
    "contractName": "ERC20BridgeSampler",
    "compilerOutput": {
        "abi": [
            {
                "inputs": [
                    {
                        "internalType": "bytes[]",
                        "name": "callDatas",
                        "type": "bytes[]"
                    }
                ],
                "name": "batchCall",
                "outputs": [
                    {
                        "components": [
                            {
                                "internalType": "bytes",
                                "name": "data",
                                "type": "bytes"
                            },
                            {
                                "internalType": "bool",
                                "name": "success",
                                "type": "bool"
                            }
                        ],
                        "internalType": "struct ERC20BridgeSampler.CallResults[]",
                        "name": "callResults",
                        "type": "tuple[]"
                    }
                ],
                "stateMutability": "nonpayable",
                "type": "function"
            },
            {
                "inputs": [
                    {
                        "components": [
                            {
                                "internalType": "uint256",
                                "name": "reserveOffset",
                                "type": "uint256"
                            },
                            {
                                "internalType": "address",
                                "name": "hintHandler",
                                "type": "address"
                            },
                            {
                                "internalType": "address",
                                "name": "networkProxy",
                                "type": "address"
                            },
                            {
                                "internalType": "address",
                                "name": "weth",
                                "type": "address"
                            },
                            {
                                "internalType": "bytes",
                                "name": "hint",
                                "type": "bytes"
                            }
                        ],
                        "internalType": "struct KyberSampler.KyberSamplerOpts",
                        "name": "opts",
                        "type": "tuple"
                    },
                    {
                        "internalType": "bytes32",
                        "name": "reserveId",
                        "type": "bytes32"
                    },
                    {
                        "internalType": "address",
                        "name": "takerToken",
                        "type": "address"
                    },
                    {
                        "internalType": "address",
                        "name": "makerToken",
                        "type": "address"
                    }
                ],
                "name": "encodeKyberHint",
                "outputs": [
                    {
                        "internalType": "bytes",
                        "name": "hint",
                        "type": "bytes"
                    }
                ],
                "stateMutability": "view",
                "type": "function"
            },
            {
                "inputs": [
                    {
                        "internalType": "contract IERC20TokenV06[]",
                        "name": "tokens",
                        "type": "address[]"
                    },
                    {
                        "internalType": "address",
                        "name": "account",
                        "type": "address"
                    },
                    {
                        "internalType": "address",
                        "name": "spender",
                        "type": "address"
                    }
                ],
                "name": "getAllowanceOf",
                "outputs": [
                    {
                        "internalType": "uint256[]",
                        "name": "allowances",
                        "type": "uint256[]"
                    }
                ],
                "stateMutability": "view",
                "type": "function"
            },
            {
                "inputs": [
                    {
                        "internalType": "contract IERC20TokenV06[]",
                        "name": "tokens",
                        "type": "address[]"
                    },
                    {
                        "internalType": "address",
                        "name": "account",
                        "type": "address"
                    }
                ],
                "name": "getBalanceOf",
                "outputs": [
                    {
                        "internalType": "uint256[]",
                        "name": "balances",
                        "type": "uint256[]"
                    }
                ],
                "stateMutability": "view",
                "type": "function"
            },
            {
                "inputs": [
                    {
                        "components": [
                            {
                                "internalType": "contract IERC20TokenV06",
                                "name": "makerToken",
                                "type": "address"
                            },
                            {
                                "internalType": "contract IERC20TokenV06",
                                "name": "takerToken",
                                "type": "address"
                            },
                            {
                                "internalType": "uint128",
                                "name": "makerAmount",
                                "type": "uint128"
                            },
                            {
                                "internalType": "uint128",
                                "name": "takerAmount",
                                "type": "uint128"
                            },
                            {
                                "internalType": "uint128",
                                "name": "takerTokenFeeAmount",
                                "type": "uint128"
                            },
                            {
                                "internalType": "address",
                                "name": "maker",
                                "type": "address"
                            },
                            {
                                "internalType": "address",
                                "name": "taker",
                                "type": "address"
                            },
                            {
                                "internalType": "address",
                                "name": "sender",
                                "type": "address"
                            },
                            {
                                "internalType": "address",
                                "name": "feeRecipient",
                                "type": "address"
                            },
                            {
                                "internalType": "bytes32",
                                "name": "pool",
                                "type": "bytes32"
                            },
                            {
                                "internalType": "uint64",
                                "name": "expiry",
                                "type": "uint64"
                            },
                            {
                                "internalType": "uint256",
                                "name": "salt",
                                "type": "uint256"
                            }
                        ],
                        "internalType": "struct IExchange.LimitOrder[]",
                        "name": "orders",
                        "type": "tuple[]"
                    },
                    {
                        "components": [
                            {
                                "internalType": "enum IExchange.SignatureType",
                                "name": "signatureType",
                                "type": "uint8"
                            },
                            {
                                "internalType": "uint8",
                                "name": "v",
                                "type": "uint8"
                            },
                            {
                                "internalType": "bytes32",
                                "name": "r",
                                "type": "bytes32"
                            },
                            {
                                "internalType": "bytes32",
                                "name": "s",
                                "type": "bytes32"
                            }
                        ],
                        "internalType": "struct IExchange.Signature[]",
                        "name": "orderSignatures",
                        "type": "tuple[]"
                    },
                    {
                        "internalType": "contract IExchange",
                        "name": "exchange",
                        "type": "address"
                    }
                ],
                "name": "getLimitOrderFillableMakerAssetAmounts",
                "outputs": [
                    {
                        "internalType": "uint256[]",
                        "name": "orderFillableMakerAssetAmounts",
                        "type": "uint256[]"
                    }
                ],
                "stateMutability": "view",
                "type": "function"
            },
            {
                "inputs": [
                    {
                        "components": [
                            {
                                "internalType": "contract IERC20TokenV06",
                                "name": "makerToken",
                                "type": "address"
                            },
                            {
                                "internalType": "contract IERC20TokenV06",
                                "name": "takerToken",
                                "type": "address"
                            },
                            {
                                "internalType": "uint128",
                                "name": "makerAmount",
                                "type": "uint128"
                            },
                            {
                                "internalType": "uint128",
                                "name": "takerAmount",
                                "type": "uint128"
                            },
                            {
                                "internalType": "uint128",
                                "name": "takerTokenFeeAmount",
                                "type": "uint128"
                            },
                            {
                                "internalType": "address",
                                "name": "maker",
                                "type": "address"
                            },
                            {
                                "internalType": "address",
                                "name": "taker",
                                "type": "address"
                            },
                            {
                                "internalType": "address",
                                "name": "sender",
                                "type": "address"
                            },
                            {
                                "internalType": "address",
                                "name": "feeRecipient",
                                "type": "address"
                            },
                            {
                                "internalType": "bytes32",
                                "name": "pool",
                                "type": "bytes32"
                            },
                            {
                                "internalType": "uint64",
                                "name": "expiry",
                                "type": "uint64"
                            },
                            {
                                "internalType": "uint256",
                                "name": "salt",
                                "type": "uint256"
                            }
                        ],
                        "internalType": "struct IExchange.LimitOrder",
                        "name": "order",
                        "type": "tuple"
                    },
                    {
                        "components": [
                            {
                                "internalType": "enum IExchange.SignatureType",
                                "name": "signatureType",
                                "type": "uint8"
                            },
                            {
                                "internalType": "uint8",
                                "name": "v",
                                "type": "uint8"
                            },
                            {
                                "internalType": "bytes32",
                                "name": "r",
                                "type": "bytes32"
                            },
                            {
                                "internalType": "bytes32",
                                "name": "s",
                                "type": "bytes32"
                            }
                        ],
                        "internalType": "struct IExchange.Signature",
                        "name": "signature",
                        "type": "tuple"
                    },
                    {
                        "internalType": "contract IExchange",
                        "name": "exchange",
                        "type": "address"
                    }
                ],
                "name": "getLimitOrderFillableTakerAmount",
                "outputs": [
                    {
                        "internalType": "uint256",
                        "name": "fillableTakerAmount",
                        "type": "uint256"
                    }
                ],
                "stateMutability": "view",
                "type": "function"
            },
            {
                "inputs": [
                    {
                        "components": [
                            {
                                "internalType": "contract IERC20TokenV06",
                                "name": "makerToken",
                                "type": "address"
                            },
                            {
                                "internalType": "contract IERC20TokenV06",
                                "name": "takerToken",
                                "type": "address"
                            },
                            {
                                "internalType": "uint128",
                                "name": "makerAmount",
                                "type": "uint128"
                            },
                            {
                                "internalType": "uint128",
                                "name": "takerAmount",
                                "type": "uint128"
                            },
                            {
                                "internalType": "uint128",
                                "name": "takerTokenFeeAmount",
                                "type": "uint128"
                            },
                            {
                                "internalType": "address",
                                "name": "maker",
                                "type": "address"
                            },
                            {
                                "internalType": "address",
                                "name": "taker",
                                "type": "address"
                            },
                            {
                                "internalType": "address",
                                "name": "sender",
                                "type": "address"
                            },
                            {
                                "internalType": "address",
                                "name": "feeRecipient",
                                "type": "address"
                            },
                            {
                                "internalType": "bytes32",
                                "name": "pool",
                                "type": "bytes32"
                            },
                            {
                                "internalType": "uint64",
                                "name": "expiry",
                                "type": "uint64"
                            },
                            {
                                "internalType": "uint256",
                                "name": "salt",
                                "type": "uint256"
                            }
                        ],
                        "internalType": "struct IExchange.LimitOrder[]",
                        "name": "orders",
                        "type": "tuple[]"
                    },
                    {
                        "components": [
                            {
                                "internalType": "enum IExchange.SignatureType",
                                "name": "signatureType",
                                "type": "uint8"
                            },
                            {
                                "internalType": "uint8",
                                "name": "v",
                                "type": "uint8"
                            },
                            {
                                "internalType": "bytes32",
                                "name": "r",
                                "type": "bytes32"
                            },
                            {
                                "internalType": "bytes32",
                                "name": "s",
                                "type": "bytes32"
                            }
                        ],
                        "internalType": "struct IExchange.Signature[]",
                        "name": "orderSignatures",
                        "type": "tuple[]"
                    },
                    {
                        "internalType": "contract IExchange",
                        "name": "exchange",
                        "type": "address"
                    }
                ],
                "name": "getLimitOrderFillableTakerAssetAmounts",
                "outputs": [
                    {
                        "internalType": "uint256[]",
                        "name": "orderFillableTakerAssetAmounts",
                        "type": "uint256[]"
                    }
                ],
                "stateMutability": "view",
                "type": "function"
            },
            {
                "inputs": [
                    {
                        "internalType": "contract IERC20TokenV06[]",
                        "name": "tokens",
                        "type": "address[]"
                    }
                ],
                "name": "getTokenDecimals",
                "outputs": [
                    {
                        "internalType": "uint256[]",
                        "name": "decimals",
                        "type": "uint256[]"
                    }
                ],
                "stateMutability": "view",
                "type": "function"
            },
            {
                "inputs": [
                    {
                        "internalType": "address",
                        "name": "account",
                        "type": "address"
                    }
                ],
                "name": "isContract",
                "outputs": [
                    {
                        "internalType": "bool",
                        "name": "",
                        "type": "bool"
                    }
                ],
                "stateMutability": "view",
                "type": "function"
            },
            {
                "inputs": [
                    {
                        "internalType": "address",
                        "name": "poolAddress",
                        "type": "address"
                    },
                    {
                        "internalType": "address",
                        "name": "takerToken",
                        "type": "address"
                    },
                    {
                        "internalType": "address",
                        "name": "makerToken",
                        "type": "address"
                    },
                    {
                        "internalType": "uint256[]",
                        "name": "makerTokenAmounts",
                        "type": "uint256[]"
                    }
                ],
                "name": "sampleBuysFromBalancer",
                "outputs": [
                    {
                        "internalType": "uint256[]",
                        "name": "takerTokenAmounts",
                        "type": "uint256[]"
                    }
                ],
                "stateMutability": "view",
                "type": "function"
            },
            {
                "inputs": [
                    {
                        "components": [
                            {
                                "internalType": "bytes32",
                                "name": "poolId",
                                "type": "bytes32"
                            },
                            {
                                "internalType": "address",
                                "name": "vault",
                                "type": "address"
                            }
                        ],
                        "internalType": "struct BalancerV2Sampler.BalancerV2PoolInfo",
                        "name": "poolInfo",
                        "type": "tuple"
                    },
                    {
                        "internalType": "address",
                        "name": "takerToken",
                        "type": "address"
                    },
                    {
                        "internalType": "address",
                        "name": "makerToken",
                        "type": "address"
                    },
                    {
                        "internalType": "uint256[]",
                        "name": "makerTokenAmounts",
                        "type": "uint256[]"
                    }
                ],
                "name": "sampleBuysFromBalancerV2",
                "outputs": [
                    {
                        "internalType": "uint256[]",
                        "name": "takerTokenAmounts",
                        "type": "uint256[]"
                    }
                ],
                "stateMutability": "nonpayable",
                "type": "function"
            },
            {
                "inputs": [
                    {
                        "components": [
                            {
                                "internalType": "contract IBancorRegistry",
                                "name": "registry",
                                "type": "address"
                            },
                            {
                                "internalType": "address[][]",
                                "name": "paths",
                                "type": "address[][]"
                            }
                        ],
                        "internalType": "struct BancorSampler.BancorSamplerOpts",
                        "name": "opts",
                        "type": "tuple"
                    },
                    {
                        "internalType": "address",
                        "name": "takerToken",
                        "type": "address"
                    },
                    {
                        "internalType": "address",
                        "name": "makerToken",
                        "type": "address"
                    },
                    {
                        "internalType": "uint256[]",
                        "name": "makerTokenAmounts",
                        "type": "uint256[]"
                    }
                ],
                "name": "sampleBuysFromBancor",
                "outputs": [
                    {
                        "internalType": "address",
                        "name": "bancorNetwork",
                        "type": "address"
                    },
                    {
                        "internalType": "address[]",
                        "name": "path",
                        "type": "address[]"
                    },
                    {
                        "internalType": "uint256[]",
                        "name": "takerTokenAmounts",
                        "type": "uint256[]"
                    }
                ],
                "stateMutability": "view",
                "type": "function"
            },
            {
                "inputs": [
                    {
                        "components": [
                            {
                                "internalType": "address",
                                "name": "poolAddress",
                                "type": "address"
                            },
                            {
                                "internalType": "bytes4",
                                "name": "sellQuoteFunctionSelector",
                                "type": "bytes4"
                            },
                            {
                                "internalType": "bytes4",
                                "name": "buyQuoteFunctionSelector",
                                "type": "bytes4"
                            }
                        ],
                        "internalType": "struct CurveSampler.CurveInfo",
                        "name": "curveInfo",
                        "type": "tuple"
                    },
                    {
                        "internalType": "int128",
                        "name": "fromTokenIdx",
                        "type": "int128"
                    },
                    {
                        "internalType": "int128",
                        "name": "toTokenIdx",
                        "type": "int128"
                    },
                    {
                        "internalType": "uint256[]",
                        "name": "makerTokenAmounts",
                        "type": "uint256[]"
                    }
                ],
                "name": "sampleBuysFromCurve",
                "outputs": [
                    {
                        "internalType": "uint256[]",
                        "name": "takerTokenAmounts",
                        "type": "uint256[]"
                    }
                ],
                "stateMutability": "view",
                "type": "function"
            },
            {
                "inputs": [
                    {
                        "components": [
                            {
                                "internalType": "address",
                                "name": "registry",
                                "type": "address"
                            },
                            {
                                "internalType": "address",
                                "name": "helper",
                                "type": "address"
                            }
                        ],
                        "internalType": "struct DODOSampler.DODOSamplerOpts",
                        "name": "opts",
                        "type": "tuple"
                    },
                    {
                        "internalType": "address",
                        "name": "takerToken",
                        "type": "address"
                    },
                    {
                        "internalType": "address",
                        "name": "makerToken",
                        "type": "address"
                    },
                    {
                        "internalType": "uint256[]",
                        "name": "makerTokenAmounts",
                        "type": "uint256[]"
                    }
                ],
                "name": "sampleBuysFromDODO",
                "outputs": [
                    {
                        "internalType": "bool",
                        "name": "sellBase",
                        "type": "bool"
                    },
                    {
                        "internalType": "address",
                        "name": "pool",
                        "type": "address"
                    },
                    {
                        "internalType": "uint256[]",
                        "name": "takerTokenAmounts",
                        "type": "uint256[]"
                    }
                ],
                "stateMutability": "view",
                "type": "function"
            },
            {
                "inputs": [
                    {
                        "internalType": "address",
                        "name": "registry",
                        "type": "address"
                    },
                    {
                        "internalType": "uint256",
                        "name": "offset",
                        "type": "uint256"
                    },
                    {
                        "internalType": "address",
                        "name": "takerToken",
                        "type": "address"
                    },
                    {
                        "internalType": "address",
                        "name": "makerToken",
                        "type": "address"
                    },
                    {
                        "internalType": "uint256[]",
                        "name": "makerTokenAmounts",
                        "type": "uint256[]"
                    }
                ],
                "name": "sampleBuysFromDODOV2",
                "outputs": [
                    {
                        "internalType": "bool",
                        "name": "sellBase",
                        "type": "bool"
                    },
                    {
                        "internalType": "address",
                        "name": "pool",
                        "type": "address"
                    },
                    {
                        "internalType": "uint256[]",
                        "name": "takerTokenAmounts",
                        "type": "uint256[]"
                    }
                ],
                "stateMutability": "view",
                "type": "function"
            },
            {
                "inputs": [
                    {
                        "internalType": "address",
                        "name": "router",
                        "type": "address"
                    },
                    {
                        "internalType": "address[]",
                        "name": "path",
                        "type": "address[]"
                    },
                    {
                        "internalType": "uint256[]",
                        "name": "makerTokenAmounts",
                        "type": "uint256[]"
                    }
                ],
                "name": "sampleBuysFromKyberDmm",
                "outputs": [
                    {
                        "internalType": "address[]",
                        "name": "pools",
                        "type": "address[]"
                    },
                    {
                        "internalType": "uint256[]",
                        "name": "takerTokenAmounts",
                        "type": "uint256[]"
                    }
                ],
                "stateMutability": "view",
                "type": "function"
            },
            {
                "inputs": [
                    {
                        "components": [
                            {
                                "internalType": "uint256",
                                "name": "reserveOffset",
                                "type": "uint256"
                            },
                            {
                                "internalType": "address",
                                "name": "hintHandler",
                                "type": "address"
                            },
                            {
                                "internalType": "address",
                                "name": "networkProxy",
                                "type": "address"
                            },
                            {
                                "internalType": "address",
                                "name": "weth",
                                "type": "address"
                            },
                            {
                                "internalType": "bytes",
                                "name": "hint",
                                "type": "bytes"
                            }
                        ],
                        "internalType": "struct KyberSampler.KyberSamplerOpts",
                        "name": "opts",
                        "type": "tuple"
                    },
                    {
                        "internalType": "address",
                        "name": "takerToken",
                        "type": "address"
                    },
                    {
                        "internalType": "address",
                        "name": "makerToken",
                        "type": "address"
                    },
                    {
                        "internalType": "uint256[]",
                        "name": "makerTokenAmounts",
                        "type": "uint256[]"
                    }
                ],
                "name": "sampleBuysFromKyberNetwork",
                "outputs": [
                    {
                        "internalType": "bytes32",
                        "name": "reserveId",
                        "type": "bytes32"
                    },
                    {
                        "internalType": "bytes",
                        "name": "hint",
                        "type": "bytes"
                    },
                    {
                        "internalType": "uint256[]",
                        "name": "takerTokenAmounts",
                        "type": "uint256[]"
                    }
                ],
                "stateMutability": "view",
                "type": "function"
            },
            {
                "inputs": [
                    {
                        "components": [
                            {
                                "internalType": "address",
                                "name": "stEthToken",
                                "type": "address"
                            },
                            {
                                "internalType": "address",
                                "name": "wethToken",
                                "type": "address"
                            }
                        ],
                        "internalType": "struct LidoSampler.LidoInfo",
                        "name": "lidoInfo",
                        "type": "tuple"
                    },
                    {
                        "internalType": "address",
                        "name": "takerToken",
                        "type": "address"
                    },
                    {
                        "internalType": "address",
                        "name": "makerToken",
                        "type": "address"
                    },
                    {
                        "internalType": "uint256[]",
                        "name": "makerTokenAmounts",
                        "type": "uint256[]"
                    }
                ],
                "name": "sampleBuysFromLido",
                "outputs": [
                    {
                        "internalType": "uint256[]",
                        "name": "",
                        "type": "uint256[]"
                    }
                ],
                "stateMutability": "pure",
                "type": "function"
            },
            {
                "inputs": [
                    {
                        "internalType": "address",
                        "name": "providerAddress",
                        "type": "address"
                    },
                    {
                        "internalType": "address",
                        "name": "takerToken",
                        "type": "address"
                    },
                    {
                        "internalType": "address",
                        "name": "makerToken",
                        "type": "address"
                    },
                    {
                        "internalType": "uint256[]",
                        "name": "makerTokenAmounts",
                        "type": "uint256[]"
                    }
                ],
                "name": "sampleBuysFromLiquidityProvider",
                "outputs": [
                    {
                        "internalType": "uint256[]",
                        "name": "takerTokenAmounts",
                        "type": "uint256[]"
                    }
                ],
                "stateMutability": "view",
                "type": "function"
            },
            {
                "inputs": [
                    {
                        "internalType": "address",
                        "name": "router",
                        "type": "address"
                    },
                    {
                        "internalType": "address",
                        "name": "takerToken",
                        "type": "address"
                    },
                    {
                        "internalType": "address",
                        "name": "makerToken",
                        "type": "address"
                    },
                    {
                        "internalType": "uint256[]",
                        "name": "makerTokenAmounts",
                        "type": "uint256[]"
                    }
                ],
                "name": "sampleBuysFromMStable",
                "outputs": [
                    {
                        "internalType": "uint256[]",
                        "name": "takerTokenAmounts",
                        "type": "uint256[]"
                    }
                ],
                "stateMutability": "view",
                "type": "function"
            },
            {
                "inputs": [
                    {
                        "components": [
                            {
                                "internalType": "address",
                                "name": "psmAddress",
                                "type": "address"
                            },
                            {
                                "internalType": "bytes32",
                                "name": "ilkIdentifier",
                                "type": "bytes32"
                            },
                            {
                                "internalType": "address",
                                "name": "gemTokenAddress",
                                "type": "address"
                            }
                        ],
                        "internalType": "struct MakerPSMSampler.MakerPsmInfo",
                        "name": "psmInfo",
                        "type": "tuple"
                    },
                    {
                        "internalType": "address",
                        "name": "takerToken",
                        "type": "address"
                    },
                    {
                        "internalType": "address",
                        "name": "makerToken",
                        "type": "address"
                    },
                    {
                        "internalType": "uint256[]",
                        "name": "makerTokenAmounts",
                        "type": "uint256[]"
                    }
                ],
                "name": "sampleBuysFromMakerPsm",
                "outputs": [
                    {
                        "internalType": "uint256[]",
                        "name": "takerTokenAmounts",
                        "type": "uint256[]"
                    }
                ],
                "stateMutability": "view",
                "type": "function"
            },
            {
                "inputs": [
                    {
                        "internalType": "address",
                        "name": "registry",
                        "type": "address"
                    },
                    {
                        "internalType": "address",
                        "name": "takerToken",
                        "type": "address"
                    },
                    {
                        "internalType": "address",
                        "name": "makerToken",
                        "type": "address"
                    },
                    {
                        "internalType": "uint256[]",
                        "name": "makerTokenAmounts",
                        "type": "uint256[]"
                    }
                ],
                "name": "sampleBuysFromMooniswap",
                "outputs": [
                    {
                        "internalType": "contract IMooniswap",
                        "name": "pool",
                        "type": "address"
                    },
                    {
                        "internalType": "uint256[]",
                        "name": "takerTokenAmounts",
                        "type": "uint256[]"
                    }
                ],
                "stateMutability": "view",
                "type": "function"
            },
            {
                "inputs": [
                    {
                        "internalType": "address",
                        "name": "pool",
                        "type": "address"
                    },
                    {
                        "internalType": "address",
                        "name": "takerToken",
                        "type": "address"
                    },
                    {
                        "internalType": "address",
                        "name": "makerToken",
                        "type": "address"
                    },
                    {
                        "internalType": "uint256[]",
                        "name": "makerTokenAmounts",
                        "type": "uint256[]"
                    }
                ],
                "name": "sampleBuysFromShell",
                "outputs": [
                    {
                        "internalType": "uint256[]",
                        "name": "takerTokenAmounts",
                        "type": "uint256[]"
                    }
                ],
                "stateMutability": "view",
                "type": "function"
            },
            {
                "inputs": [
                    {
                        "components": [
                            {
                                "internalType": "address",
                                "name": "poolAddress",
                                "type": "address"
                            },
                            {
                                "internalType": "bytes4",
                                "name": "sellQuoteFunctionSelector",
                                "type": "bytes4"
                            },
                            {
                                "internalType": "bytes4",
                                "name": "buyQuoteFunctionSelector",
                                "type": "bytes4"
                            }
                        ],
                        "internalType": "struct SmoothySampler.SmoothyInfo",
                        "name": "smoothyInfo",
                        "type": "tuple"
                    },
                    {
                        "internalType": "int128",
                        "name": "fromTokenIdx",
                        "type": "int128"
                    },
                    {
                        "internalType": "int128",
                        "name": "toTokenIdx",
                        "type": "int128"
                    },
                    {
                        "internalType": "uint256[]",
                        "name": "makerTokenAmounts",
                        "type": "uint256[]"
                    }
                ],
                "name": "sampleBuysFromSmoothy",
                "outputs": [
                    {
                        "internalType": "uint256[]",
                        "name": "takerTokenAmounts",
                        "type": "uint256[]"
                    }
                ],
                "stateMutability": "view",
                "type": "function"
            },
            {
                "inputs": [
                    {
                        "internalType": "address",
                        "name": "router",
                        "type": "address"
                    },
                    {
                        "internalType": "address",
                        "name": "takerToken",
                        "type": "address"
                    },
                    {
                        "internalType": "address",
                        "name": "makerToken",
                        "type": "address"
                    },
                    {
                        "internalType": "uint256[]",
                        "name": "makerTokenAmounts",
                        "type": "uint256[]"
                    }
                ],
                "name": "sampleBuysFromUniswap",
                "outputs": [
                    {
                        "internalType": "uint256[]",
                        "name": "takerTokenAmounts",
                        "type": "uint256[]"
                    }
                ],
                "stateMutability": "view",
                "type": "function"
            },
            {
                "inputs": [
                    {
                        "internalType": "address",
                        "name": "router",
                        "type": "address"
                    },
                    {
                        "internalType": "address[]",
                        "name": "path",
                        "type": "address[]"
                    },
                    {
                        "internalType": "uint256[]",
                        "name": "makerTokenAmounts",
                        "type": "uint256[]"
                    }
                ],
                "name": "sampleBuysFromUniswapV2",
                "outputs": [
                    {
                        "internalType": "uint256[]",
                        "name": "takerTokenAmounts",
                        "type": "uint256[]"
                    }
                ],
                "stateMutability": "view",
                "type": "function"
            },
            {
                "inputs": [
                    {
                        "internalType": "contract IUniswapV3Quoter",
                        "name": "quoter",
                        "type": "address"
                    },
                    {
                        "internalType": "contract IERC20TokenV06[]",
                        "name": "path",
                        "type": "address[]"
                    },
                    {
                        "internalType": "uint256[]",
                        "name": "makerTokenAmounts",
                        "type": "uint256[]"
                    }
                ],
                "name": "sampleBuysFromUniswapV3",
                "outputs": [
                    {
                        "internalType": "bytes[]",
                        "name": "uniswapPaths",
                        "type": "bytes[]"
                    },
                    {
                        "internalType": "uint256[]",
                        "name": "takerTokenAmounts",
                        "type": "uint256[]"
                    }
                ],
                "stateMutability": "nonpayable",
                "type": "function"
            },
            {
                "inputs": [
                    {
                        "components": [
                            {
                                "internalType": "uint256",
                                "name": "reserveOffset",
                                "type": "uint256"
                            },
                            {
                                "internalType": "address",
                                "name": "hintHandler",
                                "type": "address"
                            },
                            {
                                "internalType": "address",
                                "name": "networkProxy",
                                "type": "address"
                            },
                            {
                                "internalType": "address",
                                "name": "weth",
                                "type": "address"
                            },
                            {
                                "internalType": "bytes",
                                "name": "hint",
                                "type": "bytes"
                            }
                        ],
                        "internalType": "struct KyberSampler.KyberSamplerOpts",
                        "name": "opts",
                        "type": "tuple"
                    },
                    {
                        "internalType": "address",
                        "name": "takerToken",
                        "type": "address"
                    },
                    {
                        "internalType": "address",
                        "name": "makerToken",
                        "type": "address"
                    },
                    {
                        "internalType": "uint256",
                        "name": "takerTokenAmount",
                        "type": "uint256"
                    }
                ],
                "name": "sampleSellFromKyberNetwork",
                "outputs": [
                    {
                        "internalType": "uint256",
                        "name": "makerTokenAmount",
                        "type": "uint256"
                    }
                ],
                "stateMutability": "view",
                "type": "function"
            },
            {
                "inputs": [
                    {
                        "internalType": "address",
                        "name": "poolAddress",
                        "type": "address"
                    },
                    {
                        "internalType": "address",
                        "name": "takerToken",
                        "type": "address"
                    },
                    {
                        "internalType": "address",
                        "name": "makerToken",
                        "type": "address"
                    },
                    {
                        "internalType": "uint256[]",
                        "name": "takerTokenAmounts",
                        "type": "uint256[]"
                    }
                ],
                "name": "sampleSellsFromBalancer",
                "outputs": [
                    {
                        "internalType": "uint256[]",
                        "name": "makerTokenAmounts",
                        "type": "uint256[]"
                    }
                ],
                "stateMutability": "view",
                "type": "function"
            },
            {
                "inputs": [
                    {
                        "components": [
                            {
                                "internalType": "bytes32",
                                "name": "poolId",
                                "type": "bytes32"
                            },
                            {
                                "internalType": "address",
                                "name": "vault",
                                "type": "address"
                            }
                        ],
                        "internalType": "struct BalancerV2Sampler.BalancerV2PoolInfo",
                        "name": "poolInfo",
                        "type": "tuple"
                    },
                    {
                        "internalType": "address",
                        "name": "takerToken",
                        "type": "address"
                    },
                    {
                        "internalType": "address",
                        "name": "makerToken",
                        "type": "address"
                    },
                    {
                        "internalType": "uint256[]",
                        "name": "takerTokenAmounts",
                        "type": "uint256[]"
                    }
                ],
                "name": "sampleSellsFromBalancerV2",
                "outputs": [
                    {
                        "internalType": "uint256[]",
                        "name": "makerTokenAmounts",
                        "type": "uint256[]"
                    }
                ],
                "stateMutability": "nonpayable",
                "type": "function"
            },
            {
                "inputs": [
                    {
                        "components": [
                            {
                                "internalType": "contract IBancorRegistry",
                                "name": "registry",
                                "type": "address"
                            },
                            {
                                "internalType": "address[][]",
                                "name": "paths",
                                "type": "address[][]"
                            }
                        ],
                        "internalType": "struct BancorSampler.BancorSamplerOpts",
                        "name": "opts",
                        "type": "tuple"
                    },
                    {
                        "internalType": "address",
                        "name": "takerToken",
                        "type": "address"
                    },
                    {
                        "internalType": "address",
                        "name": "makerToken",
                        "type": "address"
                    },
                    {
                        "internalType": "uint256[]",
                        "name": "takerTokenAmounts",
                        "type": "uint256[]"
                    }
                ],
                "name": "sampleSellsFromBancor",
                "outputs": [
                    {
                        "internalType": "address",
                        "name": "bancorNetwork",
                        "type": "address"
                    },
                    {
                        "internalType": "address[]",
                        "name": "path",
                        "type": "address[]"
                    },
                    {
                        "internalType": "uint256[]",
                        "name": "makerTokenAmounts",
                        "type": "uint256[]"
                    }
                ],
                "stateMutability": "view",
                "type": "function"
            },
            {
                "inputs": [
                    {
                        "components": [
                            {
                                "internalType": "address",
                                "name": "poolAddress",
                                "type": "address"
                            },
                            {
                                "internalType": "bytes4",
                                "name": "sellQuoteFunctionSelector",
                                "type": "bytes4"
                            },
                            {
                                "internalType": "bytes4",
                                "name": "buyQuoteFunctionSelector",
                                "type": "bytes4"
                            }
                        ],
                        "internalType": "struct CurveSampler.CurveInfo",
                        "name": "curveInfo",
                        "type": "tuple"
                    },
                    {
                        "internalType": "int128",
                        "name": "fromTokenIdx",
                        "type": "int128"
                    },
                    {
                        "internalType": "int128",
                        "name": "toTokenIdx",
                        "type": "int128"
                    },
                    {
                        "internalType": "uint256[]",
                        "name": "takerTokenAmounts",
                        "type": "uint256[]"
                    }
                ],
                "name": "sampleSellsFromCurve",
                "outputs": [
                    {
                        "internalType": "uint256[]",
                        "name": "makerTokenAmounts",
                        "type": "uint256[]"
                    }
                ],
                "stateMutability": "view",
                "type": "function"
            },
            {
                "inputs": [
                    {
                        "components": [
                            {
                                "internalType": "address",
                                "name": "registry",
                                "type": "address"
                            },
                            {
                                "internalType": "address",
                                "name": "helper",
                                "type": "address"
                            }
                        ],
                        "internalType": "struct DODOSampler.DODOSamplerOpts",
                        "name": "opts",
                        "type": "tuple"
                    },
                    {
                        "internalType": "address",
                        "name": "takerToken",
                        "type": "address"
                    },
                    {
                        "internalType": "address",
                        "name": "makerToken",
                        "type": "address"
                    },
                    {
                        "internalType": "uint256[]",
                        "name": "takerTokenAmounts",
                        "type": "uint256[]"
                    }
                ],
                "name": "sampleSellsFromDODO",
                "outputs": [
                    {
                        "internalType": "bool",
                        "name": "sellBase",
                        "type": "bool"
                    },
                    {
                        "internalType": "address",
                        "name": "pool",
                        "type": "address"
                    },
                    {
                        "internalType": "uint256[]",
                        "name": "makerTokenAmounts",
                        "type": "uint256[]"
                    }
                ],
                "stateMutability": "view",
                "type": "function"
            },
            {
                "inputs": [
                    {
                        "internalType": "address",
                        "name": "registry",
                        "type": "address"
                    },
                    {
                        "internalType": "uint256",
                        "name": "offset",
                        "type": "uint256"
                    },
                    {
                        "internalType": "address",
                        "name": "takerToken",
                        "type": "address"
                    },
                    {
                        "internalType": "address",
                        "name": "makerToken",
                        "type": "address"
                    },
                    {
                        "internalType": "uint256[]",
                        "name": "takerTokenAmounts",
                        "type": "uint256[]"
                    }
                ],
                "name": "sampleSellsFromDODOV2",
                "outputs": [
                    {
                        "internalType": "bool",
                        "name": "sellBase",
                        "type": "bool"
                    },
                    {
                        "internalType": "address",
                        "name": "pool",
                        "type": "address"
                    },
                    {
                        "internalType": "uint256[]",
                        "name": "makerTokenAmounts",
                        "type": "uint256[]"
                    }
                ],
                "stateMutability": "view",
                "type": "function"
            },
            {
                "inputs": [
                    {
                        "internalType": "address",
                        "name": "router",
                        "type": "address"
                    },
                    {
                        "internalType": "address[]",
                        "name": "path",
                        "type": "address[]"
                    },
                    {
                        "internalType": "uint256[]",
                        "name": "takerTokenAmounts",
                        "type": "uint256[]"
                    }
                ],
                "name": "sampleSellsFromKyberDmm",
                "outputs": [
                    {
                        "internalType": "address[]",
                        "name": "pools",
                        "type": "address[]"
                    },
                    {
                        "internalType": "uint256[]",
                        "name": "makerTokenAmounts",
                        "type": "uint256[]"
                    }
                ],
                "stateMutability": "view",
                "type": "function"
            },
            {
                "inputs": [
                    {
                        "components": [
                            {
                                "internalType": "uint256",
                                "name": "reserveOffset",
                                "type": "uint256"
                            },
                            {
                                "internalType": "address",
                                "name": "hintHandler",
                                "type": "address"
                            },
                            {
                                "internalType": "address",
                                "name": "networkProxy",
                                "type": "address"
                            },
                            {
                                "internalType": "address",
                                "name": "weth",
                                "type": "address"
                            },
                            {
                                "internalType": "bytes",
                                "name": "hint",
                                "type": "bytes"
                            }
                        ],
                        "internalType": "struct KyberSampler.KyberSamplerOpts",
                        "name": "opts",
                        "type": "tuple"
                    },
                    {
                        "internalType": "address",
                        "name": "takerToken",
                        "type": "address"
                    },
                    {
                        "internalType": "address",
                        "name": "makerToken",
                        "type": "address"
                    },
                    {
                        "internalType": "uint256[]",
                        "name": "takerTokenAmounts",
                        "type": "uint256[]"
                    }
                ],
                "name": "sampleSellsFromKyberNetwork",
                "outputs": [
                    {
                        "internalType": "bytes32",
                        "name": "reserveId",
                        "type": "bytes32"
                    },
                    {
                        "internalType": "bytes",
                        "name": "hint",
                        "type": "bytes"
                    },
                    {
                        "internalType": "uint256[]",
                        "name": "makerTokenAmounts",
                        "type": "uint256[]"
                    }
                ],
                "stateMutability": "view",
                "type": "function"
            },
            {
                "inputs": [
                    {
                        "components": [
                            {
                                "internalType": "address",
                                "name": "stEthToken",
                                "type": "address"
                            },
                            {
                                "internalType": "address",
                                "name": "wethToken",
                                "type": "address"
                            }
                        ],
                        "internalType": "struct LidoSampler.LidoInfo",
                        "name": "lidoInfo",
                        "type": "tuple"
                    },
                    {
                        "internalType": "address",
                        "name": "takerToken",
                        "type": "address"
                    },
                    {
                        "internalType": "address",
                        "name": "makerToken",
                        "type": "address"
                    },
                    {
                        "internalType": "uint256[]",
                        "name": "takerTokenAmounts",
                        "type": "uint256[]"
                    }
                ],
                "name": "sampleSellsFromLido",
                "outputs": [
                    {
                        "internalType": "uint256[]",
                        "name": "",
                        "type": "uint256[]"
                    }
                ],
                "stateMutability": "pure",
                "type": "function"
            },
            {
                "inputs": [
                    {
                        "internalType": "address",
                        "name": "providerAddress",
                        "type": "address"
                    },
                    {
                        "internalType": "address",
                        "name": "takerToken",
                        "type": "address"
                    },
                    {
                        "internalType": "address",
                        "name": "makerToken",
                        "type": "address"
                    },
                    {
                        "internalType": "uint256[]",
                        "name": "takerTokenAmounts",
                        "type": "uint256[]"
                    }
                ],
                "name": "sampleSellsFromLiquidityProvider",
                "outputs": [
                    {
                        "internalType": "uint256[]",
                        "name": "makerTokenAmounts",
                        "type": "uint256[]"
                    }
                ],
                "stateMutability": "view",
                "type": "function"
            },
            {
                "inputs": [
                    {
                        "internalType": "address",
                        "name": "router",
                        "type": "address"
                    },
                    {
                        "internalType": "address",
                        "name": "takerToken",
                        "type": "address"
                    },
                    {
                        "internalType": "address",
                        "name": "makerToken",
                        "type": "address"
                    },
                    {
                        "internalType": "uint256[]",
                        "name": "takerTokenAmounts",
                        "type": "uint256[]"
                    }
                ],
                "name": "sampleSellsFromMStable",
                "outputs": [
                    {
                        "internalType": "uint256[]",
                        "name": "makerTokenAmounts",
                        "type": "uint256[]"
                    }
                ],
                "stateMutability": "view",
                "type": "function"
            },
            {
                "inputs": [
                    {
                        "components": [
                            {
                                "internalType": "address",
                                "name": "psmAddress",
                                "type": "address"
                            },
                            {
                                "internalType": "bytes32",
                                "name": "ilkIdentifier",
                                "type": "bytes32"
                            },
                            {
                                "internalType": "address",
                                "name": "gemTokenAddress",
                                "type": "address"
                            }
                        ],
                        "internalType": "struct MakerPSMSampler.MakerPsmInfo",
                        "name": "psmInfo",
                        "type": "tuple"
                    },
                    {
                        "internalType": "address",
                        "name": "takerToken",
                        "type": "address"
                    },
                    {
                        "internalType": "address",
                        "name": "makerToken",
                        "type": "address"
                    },
                    {
                        "internalType": "uint256[]",
                        "name": "takerTokenAmounts",
                        "type": "uint256[]"
                    }
                ],
                "name": "sampleSellsFromMakerPsm",
                "outputs": [
                    {
                        "internalType": "uint256[]",
                        "name": "makerTokenAmounts",
                        "type": "uint256[]"
                    }
                ],
                "stateMutability": "view",
                "type": "function"
            },
            {
                "inputs": [
                    {
                        "internalType": "address",
                        "name": "registry",
                        "type": "address"
                    },
                    {
                        "internalType": "address",
                        "name": "takerToken",
                        "type": "address"
                    },
                    {
                        "internalType": "address",
                        "name": "makerToken",
                        "type": "address"
                    },
                    {
                        "internalType": "uint256[]",
                        "name": "takerTokenAmounts",
                        "type": "uint256[]"
                    }
                ],
                "name": "sampleSellsFromMooniswap",
                "outputs": [
                    {
                        "internalType": "contract IMooniswap",
                        "name": "pool",
                        "type": "address"
                    },
                    {
                        "internalType": "uint256[]",
                        "name": "makerTokenAmounts",
                        "type": "uint256[]"
                    }
                ],
                "stateMutability": "view",
                "type": "function"
            },
            {
                "inputs": [
                    {
                        "internalType": "address",
                        "name": "multibridge",
                        "type": "address"
                    },
                    {
                        "internalType": "address",
                        "name": "takerToken",
                        "type": "address"
                    },
                    {
                        "internalType": "address",
                        "name": "intermediateToken",
                        "type": "address"
                    },
                    {
                        "internalType": "address",
                        "name": "makerToken",
                        "type": "address"
                    },
                    {
                        "internalType": "uint256[]",
                        "name": "takerTokenAmounts",
                        "type": "uint256[]"
                    }
                ],
                "name": "sampleSellsFromMultiBridge",
                "outputs": [
                    {
                        "internalType": "uint256[]",
                        "name": "makerTokenAmounts",
                        "type": "uint256[]"
                    }
                ],
                "stateMutability": "view",
                "type": "function"
            },
            {
                "inputs": [
                    {
                        "internalType": "address",
                        "name": "pool",
                        "type": "address"
                    },
                    {
                        "internalType": "address",
                        "name": "takerToken",
                        "type": "address"
                    },
                    {
                        "internalType": "address",
                        "name": "makerToken",
                        "type": "address"
                    },
                    {
                        "internalType": "uint256[]",
                        "name": "takerTokenAmounts",
                        "type": "uint256[]"
                    }
                ],
                "name": "sampleSellsFromShell",
                "outputs": [
                    {
                        "internalType": "uint256[]",
                        "name": "makerTokenAmounts",
                        "type": "uint256[]"
                    }
                ],
                "stateMutability": "view",
                "type": "function"
            },
            {
                "inputs": [
                    {
                        "components": [
                            {
                                "internalType": "address",
                                "name": "poolAddress",
                                "type": "address"
                            },
                            {
                                "internalType": "bytes4",
                                "name": "sellQuoteFunctionSelector",
                                "type": "bytes4"
                            },
                            {
                                "internalType": "bytes4",
                                "name": "buyQuoteFunctionSelector",
                                "type": "bytes4"
                            }
                        ],
                        "internalType": "struct SmoothySampler.SmoothyInfo",
                        "name": "smoothyInfo",
                        "type": "tuple"
                    },
                    {
                        "internalType": "int128",
                        "name": "fromTokenIdx",
                        "type": "int128"
                    },
                    {
                        "internalType": "int128",
                        "name": "toTokenIdx",
                        "type": "int128"
                    },
                    {
                        "internalType": "uint256[]",
                        "name": "takerTokenAmounts",
                        "type": "uint256[]"
                    }
                ],
                "name": "sampleSellsFromSmoothy",
                "outputs": [
                    {
                        "internalType": "uint256[]",
                        "name": "makerTokenAmounts",
                        "type": "uint256[]"
                    }
                ],
                "stateMutability": "view",
                "type": "function"
            },
            {
                "inputs": [
                    {
                        "internalType": "address",
                        "name": "router",
                        "type": "address"
                    },
                    {
                        "internalType": "address",
                        "name": "takerToken",
                        "type": "address"
                    },
                    {
                        "internalType": "address",
                        "name": "makerToken",
                        "type": "address"
                    },
                    {
                        "internalType": "uint256[]",
                        "name": "takerTokenAmounts",
                        "type": "uint256[]"
                    }
                ],
                "name": "sampleSellsFromUniswap",
                "outputs": [
                    {
                        "internalType": "uint256[]",
                        "name": "makerTokenAmounts",
                        "type": "uint256[]"
                    }
                ],
                "stateMutability": "view",
                "type": "function"
            },
            {
                "inputs": [
                    {
                        "internalType": "address",
                        "name": "router",
                        "type": "address"
                    },
                    {
                        "internalType": "address[]",
                        "name": "path",
                        "type": "address[]"
                    },
                    {
                        "internalType": "uint256[]",
                        "name": "takerTokenAmounts",
                        "type": "uint256[]"
                    }
                ],
                "name": "sampleSellsFromUniswapV2",
                "outputs": [
                    {
                        "internalType": "uint256[]",
                        "name": "makerTokenAmounts",
                        "type": "uint256[]"
                    }
                ],
                "stateMutability": "view",
                "type": "function"
            },
            {
                "inputs": [
                    {
                        "internalType": "contract IUniswapV3Quoter",
                        "name": "quoter",
                        "type": "address"
                    },
                    {
                        "internalType": "contract IERC20TokenV06[]",
                        "name": "path",
                        "type": "address[]"
                    },
                    {
                        "internalType": "uint256[]",
                        "name": "takerTokenAmounts",
                        "type": "uint256[]"
                    }
                ],
                "name": "sampleSellsFromUniswapV3",
                "outputs": [
                    {
                        "internalType": "bytes[]",
                        "name": "uniswapPaths",
                        "type": "bytes[]"
                    },
                    {
                        "internalType": "uint256[]",
                        "name": "makerTokenAmounts",
                        "type": "uint256[]"
                    }
                ],
                "stateMutability": "nonpayable",
                "type": "function"
            },
            {
                "inputs": [
                    {
                        "internalType": "address",
                        "name": "registry",
                        "type": "address"
                    },
                    {
                        "internalType": "address",
                        "name": "mooniswapTakerToken",
                        "type": "address"
                    },
                    {
                        "internalType": "address",
                        "name": "mooniswapMakerToken",
                        "type": "address"
                    },
                    {
                        "internalType": "uint256",
                        "name": "takerTokenAmount",
                        "type": "uint256"
                    }
                ],
                "name": "sampleSingleSellFromMooniswapPool",
                "outputs": [
                    {
                        "internalType": "uint256",
                        "name": "",
                        "type": "uint256"
                    }
                ],
                "stateMutability": "view",
                "type": "function"
            },
            {
                "inputs": [
                    {
                        "internalType": "bytes[]",
                        "name": "firstHopCalls",
                        "type": "bytes[]"
                    },
                    {
                        "internalType": "bytes[]",
                        "name": "secondHopCalls",
                        "type": "bytes[]"
                    },
                    {
                        "internalType": "uint256",
                        "name": "buyAmount",
                        "type": "uint256"
                    }
                ],
                "name": "sampleTwoHopBuy",
                "outputs": [
                    {
                        "components": [
                            {
                                "internalType": "uint256",
                                "name": "sourceIndex",
                                "type": "uint256"
                            },
                            {
                                "internalType": "bytes",
                                "name": "returnData",
                                "type": "bytes"
                            }
                        ],
                        "internalType": "struct TwoHopSampler.HopInfo",
                        "name": "firstHop",
                        "type": "tuple"
                    },
                    {
                        "components": [
                            {
                                "internalType": "uint256",
                                "name": "sourceIndex",
                                "type": "uint256"
                            },
                            {
                                "internalType": "bytes",
                                "name": "returnData",
                                "type": "bytes"
                            }
                        ],
                        "internalType": "struct TwoHopSampler.HopInfo",
                        "name": "secondHop",
                        "type": "tuple"
                    },
                    {
                        "internalType": "uint256",
                        "name": "sellAmount",
                        "type": "uint256"
                    }
                ],
                "stateMutability": "nonpayable",
                "type": "function"
            },
            {
                "inputs": [
                    {
                        "internalType": "bytes[]",
                        "name": "firstHopCalls",
                        "type": "bytes[]"
                    },
                    {
                        "internalType": "bytes[]",
                        "name": "secondHopCalls",
                        "type": "bytes[]"
                    },
                    {
                        "internalType": "uint256",
                        "name": "sellAmount",
                        "type": "uint256"
                    }
                ],
                "name": "sampleTwoHopSell",
                "outputs": [
                    {
                        "components": [
                            {
                                "internalType": "uint256",
                                "name": "sourceIndex",
                                "type": "uint256"
                            },
                            {
                                "internalType": "bytes",
                                "name": "returnData",
                                "type": "bytes"
                            }
                        ],
                        "internalType": "struct TwoHopSampler.HopInfo",
                        "name": "firstHop",
                        "type": "tuple"
                    },
                    {
                        "components": [
                            {
                                "internalType": "uint256",
                                "name": "sourceIndex",
                                "type": "uint256"
                            },
                            {
                                "internalType": "bytes",
                                "name": "returnData",
                                "type": "bytes"
                            }
                        ],
                        "internalType": "struct TwoHopSampler.HopInfo",
                        "name": "secondHop",
                        "type": "tuple"
                    },
                    {
                        "internalType": "uint256",
                        "name": "buyAmount",
                        "type": "uint256"
                    }
                ],
                "stateMutability": "nonpayable",
                "type": "function"
            }
        ],
        "devdoc": {
            "kind": "dev",
            "methods": {
                "batchCall(bytes[])": {
                    "details": "Call multiple public functions on this contract in a single transaction.",
                    "params": {
                        "callDatas": "ABI-encoded call data for each function call."
                    },
                    "returns": {
                        "callResults": "ABI-encoded results data for each call."
                    }
                },
                "getLimitOrderFillableMakerAssetAmounts((address,address,uint128,uint128,uint128,address,address,address,address,bytes32,uint64,uint256)[],(uint8,uint8,bytes32,bytes32)[],address)": {
                    "details": "Queries the fillable taker asset amounts of native orders.      Effectively ignores orders that have empty signatures or",
                    "params": {
                        "exchange": "The V4 exchange.",
                        "orderSignatures": "Signatures for each respective order in `orders`.",
                        "orders": "Native orders to query."
                    },
                    "returns": {
                        "orderFillableMakerAssetAmounts": "How much maker asset can be filled         by each order in `orders`."
                    }
                },
                "getLimitOrderFillableTakerAmount((address,address,uint128,uint128,uint128,address,address,address,address,bytes32,uint64,uint256),(uint8,uint8,bytes32,bytes32),address)": {
                    "details": "Get the fillable taker amount of an order, taking into account      order state, maker fees, and maker balances."
                },
                "getLimitOrderFillableTakerAssetAmounts((address,address,uint128,uint128,uint128,address,address,address,address,bytes32,uint64,uint256)[],(uint8,uint8,bytes32,bytes32)[],address)": {
                    "details": "Queries the fillable taker asset amounts of native orders.      Effectively ignores orders that have empty signatures or      maker/taker asset amounts (returning 0).",
                    "params": {
                        "exchange": "The V4 exchange.",
                        "orderSignatures": "Signatures for each respective order in `orders`.",
                        "orders": "Native limit orders to query."
                    },
                    "returns": {
                        "orderFillableTakerAssetAmounts": "How much taker asset can be filled         by each order in `orders`."
                    }
                },
                "sampleBuysFromBalancer(address,address,address,uint256[])": {
                    "details": "Sample buy quotes from Balancer.",
                    "params": {
                        "makerToken": "Address of the maker token (what to buy).",
                        "makerTokenAmounts": "Maker token buy amount for each sample.",
                        "poolAddress": "Address of the Balancer pool to query.",
                        "takerToken": "Address of the taker token (what to sell)."
                    },
                    "returns": {
                        "takerTokenAmounts": "Taker amounts sold at each maker token         amount."
                    }
                },
                "sampleBuysFromBalancerV2((bytes32,address),address,address,uint256[])": {
                    "details": "Sample buy quotes from Balancer V2.",
                    "params": {
                        "makerToken": "Address of the maker token (what to buy).",
                        "makerTokenAmounts": "Maker token buy amount for each sample.",
                        "poolInfo": "Struct with pool related data",
                        "takerToken": "Address of the taker token (what to sell)."
                    },
                    "returns": {
                        "takerTokenAmounts": "Taker amounts sold at each maker token         amount."
                    }
                },
                "sampleBuysFromBancor((address,address[][]),address,address,uint256[])": {
                    "details": "Sample buy quotes from Bancor. Unimplemented",
                    "params": {
                        "makerToken": "Address of the maker token (what to buy).",
                        "makerTokenAmounts": "Maker token buy amount for each sample.",
                        "opts": "BancorSamplerOpts The Bancor registry contract address and paths",
                        "takerToken": "Address of the taker token (what to sell)."
                    },
                    "returns": {
                        "bancorNetwork": "the Bancor Network address",
                        "path": "the selected conversion path from bancor",
                        "takerTokenAmounts": "Taker amounts sold at each maker token         amount."
                    }
                },
                "sampleBuysFromCurve((address,bytes4,bytes4),int128,int128,uint256[])": {
                    "details": "Sample buy quotes from Curve.",
                    "params": {
                        "curveInfo": "Curve information specific to this token pair.",
                        "fromTokenIdx": "Index of the taker token (what to sell).",
                        "makerTokenAmounts": "Maker token buy amount for each sample.",
                        "toTokenIdx": "Index of the maker token (what to buy)."
                    },
                    "returns": {
                        "takerTokenAmounts": "Taker amounts sold at each maker token         amount."
                    }
                },
                "sampleBuysFromDODO((address,address),address,address,uint256[])": {
                    "details": "Sample buy quotes from DODO.",
                    "params": {
                        "makerToken": "Address of the maker token (what to buy).",
                        "makerTokenAmounts": "Maker token sell amount for each sample.",
                        "opts": "DODOSamplerOpts DODO Registry and helper addresses",
                        "takerToken": "Address of the taker token (what to sell)."
                    },
                    "returns": {
                        "pool": "the DODO pool address",
                        "sellBase": "whether the bridge needs to sell the base token",
                        "takerTokenAmounts": "Taker amounts sold at each maker token         amount."
                    }
                },
                "sampleBuysFromDODOV2(address,uint256,address,address,uint256[])": {
                    "details": "Sample buy quotes from DODO.",
                    "params": {
                        "makerToken": "Address of the maker token (what to buy).",
                        "makerTokenAmounts": "Maker token sell amount for each sample.",
                        "offset": "offset index for the pool in the registry.",
                        "registry": "Address of the registry to look up.",
                        "takerToken": "Address of the taker token (what to sell)."
                    },
                    "returns": {
                        "pool": "the DODO pool address",
                        "sellBase": "whether the bridge needs to sell the base token",
                        "takerTokenAmounts": "Taker amounts sold at each maker token         amount."
                    }
                },
                "sampleBuysFromKyberDmm(address,address[],uint256[])": {
                    "details": "Sample buy quotes from KyberDmm.",
                    "params": {
                        "makerTokenAmounts": "Maker token buy amount for each sample.",
                        "path": "Token route. Should be takerToken -> makerToken.",
                        "router": "Router to look up tokens and amounts"
                    },
                    "returns": {
                        "pools": "The pool addresses involved in the multi path trade",
                        "takerTokenAmounts": "Taker amounts sold at each maker token         amount."
                    }
                },
                "sampleBuysFromKyberNetwork((uint256,address,address,address,bytes),address,address,uint256[])": {
                    "details": "Sample buy quotes from Kyber.",
                    "params": {
                        "makerToken": "Address of the maker token (what to buy).",
                        "makerTokenAmounts": "Maker token buy amount for each sample.",
                        "opts": "KyberSamplerOpts The nth reserve",
                        "takerToken": "Address of the taker token (what to sell)."
                    },
                    "returns": {
                        "hint": "The hint for the selected reserve",
                        "reserveId": "The id of the reserve found at reserveOffset",
                        "takerTokenAmounts": "Taker amounts sold at each maker token amount."
                    }
                },
                "sampleBuysFromLido((address,address),address,address,uint256[])": {
                    "details": "Sample buy quotes from Lido.",
                    "params": {
                        "lidoInfo": "Info regarding a specific Lido deployment",
                        "makerToken": "Address of the maker token (what to buy).",
                        "makerTokenAmounts": "Maker token buy amount for each sample.",
                        "takerToken": "Address of the taker token (what to sell)."
                    },
                    "returns": {
                        "_0": "takerTokenAmounts Taker amounts sold at each maker token         amount."
                    }
                },
                "sampleBuysFromLiquidityProvider(address,address,address,uint256[])": {
                    "details": "Sample buy quotes from an arbitrary on-chain liquidity provider.",
                    "params": {
                        "makerToken": "Address of the maker token (what to buy).",
                        "makerTokenAmounts": "Maker token buy amount for each sample.",
                        "providerAddress": "Address of the liquidity provider.",
                        "takerToken": "Address of the taker token (what to sell)."
                    },
                    "returns": {
                        "takerTokenAmounts": "Taker amounts sold at each maker token         amount."
                    }
                },
                "sampleBuysFromMStable(address,address,address,uint256[])": {
                    "details": "Sample buy quotes from MStable contract",
                    "params": {
                        "makerToken": "Address of the maker token (what to buy).",
                        "makerTokenAmounts": "Maker token buy amount for each sample.",
                        "router": "Address of the mStable contract",
                        "takerToken": "Address of the taker token (what to sell)."
                    },
                    "returns": {
                        "takerTokenAmounts": "Taker amounts sold at each maker token         amount."
                    }
                },
                "sampleBuysFromMooniswap(address,address,address,uint256[])": {
                    "details": "Sample buy quotes from Mooniswap.",
                    "params": {
                        "makerToken": "Address of the maker token (what to buy).",
                        "makerTokenAmounts": "Maker token sell amount for each sample.",
                        "registry": "Address of the Mooniswap Registry.",
                        "takerToken": "Address of the taker token (what to sell)."
                    },
                    "returns": {
                        "pool": "The contract address for the pool",
                        "takerTokenAmounts": "Taker amounts sold at each maker token         amount."
                    }
                },
                "sampleBuysFromShell(address,address,address,uint256[])": {
                    "details": "Sample buy quotes from Shell pool contract",
                    "params": {
                        "makerToken": "Address of the maker token (what to buy).",
                        "makerTokenAmounts": "Maker token buy amount for each sample.",
                        "pool": "Address of the Shell pool contract",
                        "takerToken": "Address of the taker token (what to sell)."
                    },
                    "returns": {
                        "takerTokenAmounts": "Taker amounts sold at each maker token         amount."
                    }
                },
                "sampleBuysFromSmoothy((address,bytes4,bytes4),int128,int128,uint256[])": {
                    "details": "Sample buy quotes from Smoothy.",
                    "params": {
                        "fromTokenIdx": "Index of the taker token (what to sell).",
                        "makerTokenAmounts": "Maker token buy amount for each sample.",
                        "smoothyInfo": "Smoothy information specific to this token pair.",
                        "toTokenIdx": "Index of the maker token (what to buy)."
                    },
                    "returns": {
                        "takerTokenAmounts": "Taker amounts sold at each maker token         amount."
                    }
                },
                "sampleBuysFromUniswap(address,address,address,uint256[])": {
                    "details": "Sample buy quotes from Uniswap.",
                    "params": {
                        "makerToken": "Address of the maker token (what to buy).",
                        "makerTokenAmounts": "Maker token sell amount for each sample.",
                        "takerToken": "Address of the taker token (what to sell)."
                    },
                    "returns": {
                        "takerTokenAmounts": "Taker amounts sold at each maker token         amount."
                    }
                },
                "sampleBuysFromUniswapV2(address,address[],uint256[])": {
                    "details": "Sample buy quotes from UniswapV2.",
                    "params": {
                        "makerTokenAmounts": "Maker token buy amount for each sample.",
                        "path": "Token route. Should be takerToken -> makerToken.",
                        "router": "Router to look up tokens and amounts"
                    },
                    "returns": {
                        "takerTokenAmounts": "Taker amounts sold at each maker token         amount."
                    }
                },
                "sampleBuysFromUniswapV3(address,address[],uint256[])": {
                    "details": "Sample buy quotes from UniswapV3.",
                    "params": {
                        "makerTokenAmounts": "Maker token buy amount for each sample.",
                        "path": "Token route. Should be takerToken -> makerToken.",
                        "quoter": "UniswapV3 Quoter contract."
                    },
                    "returns": {
                        "takerTokenAmounts": "Taker amounts sold at each maker token         amount.",
                        "uniswapPaths": "The encoded uniswap path for each sample."
                    }
                },
                "sampleSellsFromBalancer(address,address,address,uint256[])": {
                    "details": "Sample sell quotes from Balancer.",
                    "params": {
                        "makerToken": "Address of the maker token (what to buy).",
                        "poolAddress": "Address of the Balancer pool to query.",
                        "takerToken": "Address of the taker token (what to sell).",
                        "takerTokenAmounts": "Taker token sell amount for each sample."
                    },
                    "returns": {
                        "makerTokenAmounts": "Maker amounts bought at each taker token         amount."
                    }
                },
                "sampleSellsFromBalancerV2((bytes32,address),address,address,uint256[])": {
                    "details": "Sample sell quotes from Balancer V2.",
                    "params": {
                        "makerToken": "Address of the maker token (what to buy).",
                        "poolInfo": "Struct with pool related data",
                        "takerToken": "Address of the taker token (what to sell).",
                        "takerTokenAmounts": "Taker token sell amount for each sample."
                    },
                    "returns": {
                        "makerTokenAmounts": "Maker amounts bought at each taker token         amount."
                    }
                },
                "sampleSellsFromBancor((address,address[][]),address,address,uint256[])": {
                    "details": "Sample sell quotes from Bancor.",
                    "params": {
                        "makerToken": "Address of the maker token (what to buy).",
                        "opts": "BancorSamplerOpts The Bancor registry contract address and paths",
                        "takerToken": "Address of the taker token (what to sell).",
                        "takerTokenAmounts": "Taker token sell amount for each sample."
                    },
                    "returns": {
                        "bancorNetwork": "the Bancor Network address",
                        "makerTokenAmounts": "Maker amounts bought at each taker token         amount.",
                        "path": "the selected conversion path from bancor"
                    }
                },
                "sampleSellsFromCurve((address,bytes4,bytes4),int128,int128,uint256[])": {
                    "details": "Sample sell quotes from Curve.",
                    "params": {
                        "curveInfo": "Curve information specific to this token pair.",
                        "fromTokenIdx": "Index of the taker token (what to sell).",
                        "takerTokenAmounts": "Taker token sell amount for each sample.",
                        "toTokenIdx": "Index of the maker token (what to buy)."
                    },
                    "returns": {
                        "makerTokenAmounts": "Maker amounts bought at each taker token         amount."
                    }
                },
                "sampleSellsFromDODO((address,address),address,address,uint256[])": {
                    "details": "Sample sell quotes from DODO.",
                    "params": {
                        "makerToken": "Address of the maker token (what to buy).",
                        "opts": "DODOSamplerOpts DODO Registry and helper addresses",
                        "takerToken": "Address of the taker token (what to sell).",
                        "takerTokenAmounts": "Taker token sell amount for each sample."
                    },
                    "returns": {
                        "makerTokenAmounts": "Maker amounts bought at each taker token         amount.",
                        "pool": "the DODO pool address",
                        "sellBase": "whether the bridge needs to sell the base token"
                    }
                },
                "sampleSellsFromDODOV2(address,uint256,address,address,uint256[])": {
                    "details": "Sample sell quotes from DODO V2.",
                    "params": {
                        "makerToken": "Address of the maker token (what to buy).",
                        "offset": "offset index for the pool in the registry.",
                        "registry": "Address of the registry to look up.",
                        "takerToken": "Address of the taker token (what to sell).",
                        "takerTokenAmounts": "Taker token sell amount for each sample."
                    },
                    "returns": {
                        "makerTokenAmounts": "Maker amounts bought at each taker token         amount.",
                        "pool": "the DODO pool address",
                        "sellBase": "whether the bridge needs to sell the base token"
                    }
                },
                "sampleSellsFromKyberDmm(address,address[],uint256[])": {
                    "details": "Sample sell quotes from KyberDmm.",
                    "params": {
                        "path": "Token route. Should be takerToken -> makerToken",
                        "router": "Router to look up tokens and amounts",
                        "takerTokenAmounts": "Taker token sell amount for each sample."
                    },
                    "returns": {
                        "makerTokenAmounts": "Maker amounts bought at each taker token         amount.",
                        "pools": "The pool addresses involved in the multi path trade"
                    }
                },
                "sampleSellsFromKyberNetwork((uint256,address,address,address,bytes),address,address,uint256[])": {
                    "details": "Sample sell quotes from Kyber.",
                    "params": {
                        "makerToken": "Address of the maker token (what to buy).",
                        "opts": "KyberSamplerOpts The nth reserve",
                        "takerToken": "Address of the taker token (what to sell).",
                        "takerTokenAmounts": "Taker token sell amount for each sample."
                    },
                    "returns": {
                        "hint": "The hint for the selected reserve",
                        "makerTokenAmounts": "Maker amounts bought at each taker token amount.",
                        "reserveId": "The id of the reserve found at reserveOffset"
                    }
                },
                "sampleSellsFromLido((address,address),address,address,uint256[])": {
                    "details": "Sample sell quotes from Lido",
                    "params": {
                        "lidoInfo": "Info regarding a specific Lido deployment",
                        "makerToken": "Address of the maker token (what to buy).",
                        "takerToken": "Address of the taker token (what to sell).",
                        "takerTokenAmounts": "Taker token sell amount for each sample."
                    },
                    "returns": {
                        "_0": "makerTokenAmounts Maker amounts bought at each taker token         amount."
                    }
                },
                "sampleSellsFromLiquidityProvider(address,address,address,uint256[])": {
                    "details": "Sample sell quotes from an arbitrary on-chain liquidity provider.",
                    "params": {
                        "makerToken": "Address of the maker token (what to buy).",
                        "providerAddress": "Address of the liquidity provider.",
                        "takerToken": "Address of the taker token (what to sell).",
                        "takerTokenAmounts": "Taker token sell amount for each sample."
                    },
                    "returns": {
                        "makerTokenAmounts": "Maker amounts bought at each taker token         amount."
                    }
                },
                "sampleSellsFromMStable(address,address,address,uint256[])": {
                    "details": "Sample sell quotes from the mStable contract",
                    "params": {
                        "makerToken": "Address of the maker token (what to buy).",
                        "router": "Address of the mStable contract",
                        "takerToken": "Address of the taker token (what to sell).",
                        "takerTokenAmounts": "Taker token sell amount for each sample."
                    },
                    "returns": {
                        "makerTokenAmounts": "Maker amounts bought at each taker token         amount."
                    }
                },
                "sampleSellsFromMakerPsm((address,bytes32,address),address,address,uint256[])": {
                    "details": "Sample sell quotes from Maker PSM"
                },
                "sampleSellsFromMooniswap(address,address,address,uint256[])": {
                    "details": "Sample sell quotes from Mooniswap.",
                    "params": {
                        "makerToken": "Address of the maker token (what to buy).",
                        "registry": "Address of the Mooniswap Registry.",
                        "takerToken": "Address of the taker token (what to sell).",
                        "takerTokenAmounts": "Taker token sell amount for each sample."
                    },
                    "returns": {
                        "makerTokenAmounts": "Maker amounts bought at each taker token         amount.",
                        "pool": "The contract address for the pool"
                    }
                },
                "sampleSellsFromMultiBridge(address,address,address,address,uint256[])": {
                    "details": "Sample sell quotes from MultiBridge.",
                    "params": {
                        "intermediateToken": "The address of the intermediate token to        use in an indirect route.",
                        "makerToken": "Address of the maker token (what to buy).",
                        "multibridge": "Address of the MultiBridge contract.",
                        "takerToken": "Address of the taker token (what to sell).",
                        "takerTokenAmounts": "Taker token sell amount for each sample."
                    },
                    "returns": {
                        "makerTokenAmounts": "Maker amounts bought at each taker token         amount."
                    }
                },
                "sampleSellsFromShell(address,address,address,uint256[])": {
                    "details": "Sample sell quotes from the Shell pool contract",
                    "params": {
                        "makerToken": "Address of the maker token (what to buy).",
                        "pool": "Address of the Shell pool contract",
                        "takerToken": "Address of the taker token (what to sell).",
                        "takerTokenAmounts": "Taker token sell amount for each sample."
                    },
                    "returns": {
                        "makerTokenAmounts": "Maker amounts bought at each taker token         amount."
                    }
                },
                "sampleSellsFromSmoothy((address,bytes4,bytes4),int128,int128,uint256[])": {
                    "details": "Sample sell quotes from Smoothy.",
                    "params": {
                        "fromTokenIdx": "Index of the taker token (what to sell).",
                        "smoothyInfo": "Smoothy information specific to this token pair.",
                        "takerTokenAmounts": "Taker token sell amount for each sample.",
                        "toTokenIdx": "Index of the maker token (what to buy)."
                    },
                    "returns": {
                        "makerTokenAmounts": "Maker amounts bought at each taker token         amount."
                    }
                },
                "sampleSellsFromUniswap(address,address,address,uint256[])": {
                    "details": "Sample sell quotes from Uniswap.",
                    "params": {
                        "makerToken": "Address of the maker token (what to buy).",
                        "router": "Address of the Uniswap Router",
                        "takerToken": "Address of the taker token (what to sell).",
                        "takerTokenAmounts": "Taker token sell amount for each sample."
                    },
                    "returns": {
                        "makerTokenAmounts": "Maker amounts bought at each taker token         amount."
                    }
                },
                "sampleSellsFromUniswapV2(address,address[],uint256[])": {
                    "details": "Sample sell quotes from UniswapV2.",
                    "params": {
                        "path": "Token route. Should be takerToken -> makerToken",
                        "router": "Router to look up tokens and amounts",
                        "takerTokenAmounts": "Taker token sell amount for each sample."
                    },
                    "returns": {
                        "makerTokenAmounts": "Maker amounts bought at each taker token         amount."
                    }
                },
                "sampleSellsFromUniswapV3(address,address[],uint256[])": {
                    "details": "Sample sell quotes from UniswapV3.",
                    "params": {
                        "path": "Token route. Should be takerToken -> makerToken",
                        "quoter": "UniswapV3 Quoter contract.",
                        "takerTokenAmounts": "Taker token sell amount for each sample."
                    },
                    "returns": {
                        "makerTokenAmounts": "Maker amounts bought at each taker token         amount.",
                        "uniswapPaths": "The encoded uniswap path for each sample."
                    }
                }
            },
            "version": 1
        },
        "evm": {
            "bytecode": {
                "linkReferences": {},
                "object": "0x60a06040527feeeeeeeeeeeeeeeeeeeeeeeeeeeeeeeeeeeeeeee0000000000000000000000006080523480156200003557600080fd5b5060805160601c61a1a26200005e60003980612cc2528061478c528061517f525061a1a26000f3fe608060405234801561001057600080fd5b50600436106102d65760003560e01c80638b6d7b4411610182578063bd71ecf6116100e9578063ddd5aa28116100a2578063f1ed7fa41161007c578063f1ed7fa4146106f5578063f3868e9c1461040e578063f5a4994d14610708578063fc9fe41b1461071b576102d6565b8063ddd5aa28146106bc578063e78ac045146106cf578063e8e4af09146106e2576102d6565b8063bd71ecf61461064a578063c25c41381461065d578063c831908414610670578063c8c74a3714610683578063cc1621c914610696578063d9bca372146106a9576102d6565b80639ea0ff131161013b5780639ea0ff13146105ca578063a0295b8b146105dd578063a4698417146105f0578063a75e744b14610603578063adc636bf14610616578063b90cd2fb14610637576102d6565b80638b6d7b441461052d5780638e5a0e07146105405780639209483b1461056257806398777748146105755780639bf3ee35146105885780639e3f05c3146105a8576102d6565b806336052391116102415780635aae4e53116101fa57806368be3cf2116101d457806368be3cf2146104d4578063706e2f9b146104f457806374c9d255146105075780637f7f4f131461051a576102d6565b80635aae4e531461049b5780635d5b674f146104ae57806366a1ac6b146104c1576102d6565b8063360523911461040e57806340bc03ae14610421578063494569db146104345780634edfb5b2146104475780635505000a1461046757806357494b1d14610488576102d6565b8063281e343211610293578063281e34321461038d57806329fa4aa0146103a05780632aa64319146103b35780632d753aa4146103d557806330d6570d146103e85780633105fec1146103fb576102d6565b80630496d5dc146102db5780631022742b14610305578063149dab0e1461032557806316279055146103475780632339078f14610367578063252322b31461037a575b600080fd5b6102ee6102e936600461898f565b61072e565b6040516102fc929190619a5b565b60405180910390f35b610318610313366004618dc4565b6108d4565b6040516102fc9190619b7f565b610338610333366004619045565b610a47565b6040516102fc9392919061992a565b61035a610355366004618671565b610ba7565b6040516102fc9190619b92565b610318610375366004618fc6565b610bb1565b6103186103883660046188cd565b610dd8565b61031861039b3660046192db565b610fae565b6103186103ae3660046190fe565b611203565b6103c66103c1366004619157565b611272565b6040516102fc93929190619b9d565b6103186103e3366004618848565b61154f565b6103186103f63660046188cd565b6116d8565b61031861040936600461898f565b61184c565b61031861041c366004619157565b6119d0565b61031861042f3660046190fe565b611a62565b6102ee61044236600461898f565b611be3565b61045a61045536600461923d565b611d6f565b6040516102fc9190619beb565b61047a610475366004618f2f565b611fec565b6040516102fc929190619aa2565b6103186104963660046188cd565b612237565b61047a6104a9366004618f2f565b6127ae565b6103186104bc3660046188cd565b6129f3565b6103186104cf366004618dc4565b612a59565b6104e76104e2366004618b93565b612b0e565b6040516102fc9190619b0a565b610318610502366004618c6a565b612c6f565b610338610515366004619045565b612d61565b6103186105283660046192db565b612d70565b61031861053b3660046190fe565b612fbd565b61055361054e366004618c01565b613320565b6040516102fc93929190619eb2565b6103186105703660046190fe565b613539565b6103186105833660046188cd565b613739565b61059b61059636600461929b565b613c72565b6040516102fc9190619bc9565b6105bb6105b6366004619186565b613db9565b6040516102fc93929190619bd2565b61059b6105d836600461893f565b613edf565b6103186105eb366004618fc6565b6140f5565b6103186105fe3660046188cd565b6142f1565b6103c6610611366004618a01565b614446565b6106296106243660046188cd565b614583565b6040516102fc929190619c39565b6103186106453660046188cd565b6146d3565b610318610658366004618c9c565b614739565b61031861066b3660046188cd565b614835565b61031861067e3660046188cd565b61489b565b61031861069136600461898f565b614a58565b6105bb6106a4366004619186565b614bc4565b6103c66106b7366004618a01565b614daa565b6103c66106ca366004619157565b614e99565b6103186106dd366004618ce0565b61512c565b6103186106f03660046188cd565b615221565b61059b6107033660046191f6565b615354565b6106296107163660046188cd565b6154f3565b610553610729366004618c01565b6155df565b80516060908190806001600160401b038111801561074b57600080fd5b50604051908082528060200260200182016040528015610775578160200160208202803683370190505b50915061078286866157f4565b925082516000141561079457506108cc565b60005b818110156108c957866001600160a01b031663a8312b1d620249f08784815181106107be57fe5b6020026020010151878a6040518563ffffffff1660e01b81526004016107e693929190619fc4565b60006040518083038187803b1580156107fe57600080fd5b5086fa9350505050801561083457506040513d6000823e601f3d908101601f191682016040526108319190810190618e93565b60015b61086e573d808015610862576040519150601f19603f3d011682016040523d82523d6000602084013e610867565b606091505b50506108c9565b8060018851038151811061087e57fe5b602002602001015184838151811061089257fe5b6020026020010181815250508382815181106108aa57fe5b6020026020010151600014156108c057506108c9565b50600101610797565b50505b935093915050565b606083516001600160401b03811180156108ed57600080fd5b50604051908082528060200260200182016040528015610917578160200160208202803683370190505b50905060005b84518114610a3f57306001600160a01b0316639bf3ee3562030d4087848151811061094457fe5b602002602001015187858151811061095857fe5b6020026020010151876040518563ffffffff1660e01b815260040161097f93929190619f74565b60206040518083038187803b15801561099757600080fd5b5086fa935050505080156109c8575060408051601f3d908101601f191682019092526109c591810190618ee5565b60015b610a1c573d8080156109f6576040519150601f19603f3d011682016040523d82523d6000602084013e6109fb565b606091505b506000838381518110610a0a57fe5b60200260200101818152505050610a37565b80838381518110610a2957fe5b602002602001018181525050505b60010161091d565b509392505050565b600060608086602001515160001415610a5f57610b9d565b610a6b87878787615ae3565b855191945092506001600160401b0381118015610a8757600080fd5b50604051908082528060200260200182016040528015610ab1578160200160208202803683370190505b50905060005b8151811015610b9b57836001600160a01b0316637f9c0ecd620493e085888581518110610ae057fe5b60200260200101516040518463ffffffff1660e01b8152600401610b05929190619a80565b60206040518083038187803b158015610b1d57600080fd5b5086fa93505050508015610b4e575060408051601f3d908101601f19168201909252610b4b91810190618ee5565b60015b610b5757610b9b565b80838381518110610b6457fe5b602002602001018181525050828281518110610b7c57fe5b602002602001015160001415610b925750610b9b565b50600101610ab7565b505b9450945094915050565b803b15155b919050565b6060610bbd8385615d15565b602085015160408051600280825260608281019093528160200160208202803683370190505090508581600081518110610bf357fe5b60200260200101906001600160a01b031690816001600160a01b0316815250508481600181518110610c2157fe5b6001600160a01b03909216602092830291909101909101528351806001600160401b0381118015610c5157600080fd5b50604051908082528060200260200182016040528015610c7b578160200160208202803683370190505b509350610c86617ea5565b610c8e615d4b565b905060005b82811015610dcb576060610cba8b898481518110610cad57fe5b6020026020010151615d7a565b604051637c26833760e11b81529091506001600160a01b0387169063f84d066e90610cf09060009085908a908990600401619c8c565b600060405180830381600087803b158015610d0a57600080fd5b505af1925050508015610d3f57506040513d6000823e601f3d908101601f19168201604052610d3c9190810190618d41565b60015b610d7a573d808015610d6d576040519150601f19603f3d011682016040523d82523d6000602084013e610d72565b606091505b505050610dcb565b600081600181518110610d8957fe5b602002602001015160001902905060008113610da757505050610dcb565b80898581518110610db457fe5b602002602001018181525050505050600101610c93565b5050505050949350505050565b6060610de48385615d15565b8151806001600160401b0381118015610dfc57600080fd5b50604051908082528060200260200182016040528015610e26578160200160208202803683370190505b50915060006001600160a01b03861615610e4957610e448787615e0c565b610e4c565b60005b905060006001600160a01b03861615610e6e57610e698887615e0c565b610e71565b60005b905060005b83811015610fa25760016001600160a01b038816610ed457610eb384632640f62c60e01b898581518110610ea657fe5b6020026020010151615e8b565b878481518110610ebf57fe5b60200260200101819350828152505050610f6e565b6001600160a01b038916610efa57610eb3836359e9486260e01b898581518110610ea657fe5b6000610f14846359e9486260e01b8a8681518110610ea657fe5b925090508015610f5157610f30856309903d8b60e21b83615e8b565b888581518110610f3c57fe5b60200260200101819450828152505050610f6c565b6000878481518110610f5f57fe5b6020026020010181815250505b505b801580610f8e5750858281518110610f8257fe5b60200260200101516000145b15610f995750610fa2565b50600101610e76565b50505050949350505050565b6060610fba8385615d15565b6000856000015190506000816001600160a01b03166336569e776040518163ffffffff1660e01b815260040160206040518083038186803b158015610ffe57600080fd5b505afa158015611012573d6000803e3d6000fd5b505050506040513d601f19601f82011682018060405250810190611036919061868d565b8451909150806001600160401b038111801561105157600080fd5b5060405190808252806020026020018201604052801561107b578160200160208202803683370190505b509350826001600160a01b031663f4b9fa756040518163ffffffff1660e01b815260040160206040518083038186803b1580156110b757600080fd5b505afa1580156110cb573d6000803e3d6000fd5b505050506040513d601f19601f820116820180604052508101906110ef919061868d565b6001600160a01b0316866001600160a01b0316141580156111925750826001600160a01b031663f4b9fa756040518163ffffffff1660e01b815260040160206040518083038186803b15801561114457600080fd5b505afa158015611158573d6000803e3d6000fd5b505050506040513d601f19601f8201168201806040525081019061117c919061868d565b6001600160a01b0316876001600160a01b031614155b1561119f575050506111fb565b60005b81811015610fa25760006111cd8a898b8a86815181106111be57fe5b60200260200101518989615f6e565b9050806111da5750610fa2565b808683815181106111e757fe5b6020908102919091010152506001016111a2565b949350505050565b6040805160608181019092526112699080611222868960808401619d63565b60405160208183030381529060405281526020018688604051602001611249929190619d63565b604051602081830303815290604052815260200161622f81525083616362565b95945050505050565b60008060606112818587615d15565b8351806001600160401b038111801561129957600080fd5b506040519080825280602002602001820160405280156112c3578160200160208202803683370190505b508851604051630939d86360e11b81529193506001600160a01b031690631273b0c6906112f6908a908a906004016197c6565b60206040518083038186803b15801561130e57600080fd5b505afa158015611322573d6000803e3d6000fd5b505050506040513d601f19601f82011682018060405250810190611346919061868d565b925060006001600160a01b0384161561136457506001935086611403565b8851604051630939d86360e11b81526001600160a01b0390911690631273b0c690611395908a908c906004016197c6565b60206040518083038186803b1580156113ad57600080fd5b505afa1580156113c1573d6000803e3d6000fd5b505050506040513d601f19601f820116820180604052508101906113e5919061868d565b93506001600160a01b0384166113fc575050610b9d565b5060009350855b836001600160a01b031663dd58b41c6040518163ffffffff1660e01b815260040160206040518083038186803b15801561143c57600080fd5b505afa158015611450573d6000803e3d6000fd5b505050506040513d601f19601f820116820180604052508101906114749190618ec5565b61147f575050610b9d565b60005b828110156115425760006114fc8a87858e602001516040516020016114aa94939291906197e0565b6040516020818303038152906040528a88868f602001516040516020016114d494939291906197e0565b6040516020818303038152906040528a85815181106114ef57fe5b6020026020010151616574565b90508085838151811061150b57fe5b60200260200101818152505084828151811061152357fe5b6020026020010151600014156115395750611542565b50600101611482565b5050509450945094915050565b8051606090806001600160401b038111801561156a57600080fd5b50604051908082528060200260200182016040528015611594578160200160208202803683370190505b5091506001600160a01b0387166115ab5750611269565b60005b818110156116cd5760006060896001600160a01b031662061a80636e79e13360e01b8b8b8b8b89815181106115df57fe5b60200260200101516040516024016115fa949392919061983f565b60408051601f198184030181529181526020820180516001600160e01b03166001600160e01b0319909416939093179092529051611638919061977d565b6000604051808303818686fa925050503d8060008114611674576040519150601f19603f3d011682016040523d82523d6000602084013e611679565b606091505b50915091506000821561169d578180602001905181019061169a9190618ee5565b90505b806116aa575050506116cd565b808685815181106116b757fe5b60209081029190910101525050506001016115ae565b505095945050505050565b60606116e48385615d15565b8151806001600160401b03811180156116fc57600080fd5b50604051908082528060200260200182016040528015611726578160200160208202803683370190505b50915060005b8181101561184257866001600160a01b03166372ea9076620c3500888888868151811061175557fe5b60200260200101516040518563ffffffff1660e01b815260040161177b939291906198c1565b60206040518083038187803b15801561179357600080fd5b5086fa935050505080156117c4575060408051601f3d908101601f191682019092526117c191810190618ee5565b60015b6117fe573d8080156117f2576040519150601f19603f3d011682016040523d82523d6000602084013e6117f7565b606091505b5050611842565b8084838151811061180b57fe5b60200260200101818152505083828151811061182357fe5b6020026020010151600014156118395750611842565b5060010161172c565b5050949350505050565b8051606090806001600160401b038111801561186757600080fd5b50604051908082528060200260200182016040528015611891578160200160208202803683370190505b50915060005b818110156119c757856001600160a01b031663d06ca61f620249f08684815181106118be57fe5b6020026020010151886040518463ffffffff1660e01b81526004016118e4929190619fab565b60006040518083038187803b1580156118fc57600080fd5b5086fa9350505050801561193257506040513d6000823e601f3d908101601f1916820160405261192f9190810190618e93565b60015b61196c573d808015611960576040519150601f19603f3d011682016040523d82523d6000602084013e611965565b606091505b50506119c7565b8060018751038151811061197c57fe5b602002602001015184838151811061199057fe5b6020026020010181815250508382815181106119a857fe5b6020026020010151600014156119be57506119c7565b50600101611897565b50509392505050565b60606119dc8385615d15565b84602001516001600160a01b0316846001600160a01b0316141580611a0e575084516001600160a01b03848116911614155b15610a3f5781516060816001600160401b0381118015611a2d57600080fd5b50604051908082528060200260200182016040528015611a57578160200160208202803683370190505b5092506111fb915050565b8051606090806001600160401b0381118015611a7d57600080fd5b50604051908082528060200260200182016040528015611aa7578160200160208202803683370190505b50915060005b81811015611842576000606088600001516001600160a01b0316621e84808a602001518a8a8a8881518110611ade57fe5b6020026020010151604051602401611af893929190619d45565b60408051601f198184030181529181526020820180516001600160e01b03166001600160e01b0319909416939093179092529051611b36919061977d565b6000604051808303818686fa925050503d8060008114611b72576040519150601f19603f3d011682016040523d82523d6000602084013e611b77565b606091505b509150915060008215611b9b5781806020019051810190611b989190618ee5565b90505b80868581518110611ba857fe5b602002602001018181525050858481518110611bc057fe5b602002602001015160001415611bd857505050611842565b505050600101611aad565b80516060908190806001600160401b0381118015611c0057600080fd5b50604051908082528060200260200182016040528015611c2a578160200160208202803683370190505b509150611c3786866157f4565b9250825160001415611c4957506108cc565b60005b818110156108c957866001600160a01b0316639e269b68620249f0878481518110611c7357fe5b6020026020010151878a6040518563ffffffff1660e01b8152600401611c9b93929190619fc4565b60006040518083038187803b158015611cb357600080fd5b5086fa93505050508015611ce957506040513d6000823e601f3d908101601f19168201604052611ce69190810190618e93565b60015b611d17573d808015610862576040519150601f19603f3d011682016040523d82523d6000602084013e610867565b80600081518110611d2457fe5b6020026020010151848381518110611d3857fe5b602002602001018181525050838281518110611d5057fe5b602002602001015160001415611d6657506108c9565b50600101611c4c565b60208481015160408051600180825281830190925260609384929082810190803683370190505090508581600081518110611da657fe5b602090810291909101015260606000604051908082528060200260200182016040528015611dde578160200160208202803683370190505b50905087606001516001600160a01b0316866001600160a01b03161415611ecf576040516381efcbdd60e01b81526001600160a01b038416906381efcbdd906207a12090611e3790899060019088908890600401619960565b60006040518083038187803b158015611e4f57600080fd5b5086fa93505050508015611e8557506040513d6000823e601f3d908101601f19168201604052611e829190810190618efd565b60015b611ebf573d808015611eb3576040519150601f19603f3d011682016040523d82523d6000602084013e611eb8565b606091505b5050611eca565b93506111fb92505050565b611fe1565b87606001516001600160a01b0316856001600160a01b03161415611f25576040516361e597f960e01b81526001600160a01b038416906361e597f9906207a12090611e37908a9060019088908890600401619960565b6040516302b9a6cd60e11b81526001600160a01b038416906305734d9a906207a12090611f65908a90600190889088908d908490849084906004016199a2565b60006040518083038187803b158015611f7d57600080fd5b5086fa93505050508015611fb357506040513d6000823e601f3d908101601f19168201604052611fb09190810190618efd565b60015b611ebf573d808015610dcb576040519150601f19603f3d011682016040523d82523d6000602084013e610dcb565b505050949350505050565b606080606061206d866001600160a01b031663c45a01556040518163ffffffff1660e01b815260040160206040518083038186803b15801561202d57600080fd5b505afa158015612041573d6000803e3d6000fd5b505050506040513d601f19601f82011682018060405250810190612065919061868d565b8660006166ad565b905083516001600160401b038111801561208657600080fd5b506040519080825280602002602001820160405280156120b0578160200160208202803683370190505b50915083516001600160401b03811180156120ca57600080fd5b506040519080825280602002602001820160405280156120fe57816020015b60608152602001906001900390816120e95790505b50925060005b84518110156108c95760606000805b84518110156121ef57606061213b8a87848151811061212e57fe5b6020026020010151616b43565b90508a6001600160a01b031663cdca1753620493e0838c898151811061215d57fe5b60200260200101516040518463ffffffff1660e01b8152600401612182929190619bfe565b602060405180830381600088803b15801561219c57600080fd5b5087f1935050505080156121cd575060408051601f3d908101601f191682019092526121ca91810190618ee5565b60015b6121d6576121e6565b8084116121e4578093508194505b505b50600101612113565b50806121fc5750506108c9565b8085848151811061220957fe5b6020026020010181815250508186848151811061222257fe5b60209081029190910101525050600101612104565b80516060908590806001600160401b038111801561225457600080fd5b5060405190808252806020026020018201604052801561227e578160200160208202803683370190505b50604051630bcded8960e21b81529093506001600160a01b03831690632f37b624906122ae908990600401619799565b60206040518083038186803b1580156122c657600080fd5b505afa1580156122da573d6000803e3d6000fd5b505050506040513d601f19601f820116820180604052508101906122fe9190618ec5565b15806123835750604051630bcded8960e21b81526001600160a01b03831690632f37b62490612331908890600401619799565b60206040518083038186803b15801561234957600080fd5b505afa15801561235d573d6000803e3d6000fd5b505050506040513d601f19601f820116820180604052508101906123819190618ec5565b155b1561238f5750506111fb565b612397617ecc565b60405163f8b2cb4f60e01b81526001600160a01b0384169063f8b2cb4f906123c3908a90600401619799565b60206040518083038186803b1580156123db57600080fd5b505afa1580156123ef573d6000803e3d6000fd5b505050506040513d601f19601f820116820180604052508101906124139190618ee5565b815260405163f8b2cb4f60e01b81526001600160a01b0384169063f8b2cb4f90612441908990600401619799565b60206040518083038186803b15801561245957600080fd5b505afa15801561246d573d6000803e3d6000fd5b505050506040513d601f19601f820116820180604052508101906124919190618ee5565b6020820152604051634a46c67360e11b81526001600160a01b0384169063948d8ce6906124c2908a90600401619799565b60206040518083038186803b1580156124da57600080fd5b505afa1580156124ee573d6000803e3d6000fd5b505050506040513d601f19601f820116820180604052508101906125129190618ee5565b60408083019190915251634a46c67360e11b81526001600160a01b0384169063948d8ce690612545908990600401619799565b60206040518083038186803b15801561255d57600080fd5b505afa158015612571573d6000803e3d6000fd5b505050506040513d601f19601f820116820180604052508101906125959190618ee5565b816060018181525050826001600160a01b031663d4cadf686040518163ffffffff1660e01b815260040160206040518083038186803b1580156125d757600080fd5b505afa1580156125eb573d6000803e3d6000fd5b505050506040513d601f19601f8201168201806040525081019061260f9190618ee5565b608082015260005b82811015610fa25761264282602001516003670de0b6b3a76400008161263957fe5b04600101616c9e565b86828151811061264e57fe5b6020026020010151111561266157610fa2565b836001600160a01b031663f8d6aed4620493e084600001518560400151866020015187606001518c888151811061269457fe5b602002602001015189608001516040518863ffffffff1660e01b81526004016126c296959493929190619fef565b60206040518083038187803b1580156126da57600080fd5b5086fa9350505050801561270b575060408051601f3d908101601f1916820190925261270891810190618ee5565b60015b612745573d808015612739576040519150601f19603f3d011682016040523d82523d6000602084013e61273e565b606091505b5050610fa2565b825161275d906002670de0b6b3a76400005b04616c9e565b81111561276a5750610fa2565b8086838151811061277757fe5b60200260200101818152505085828151811061278f57fe5b6020026020010151600014156127a55750610fa2565b50600101612617565b60608060606127ef866001600160a01b031663c45a01556040518163ffffffff1660e01b815260040160206040518083038186803b15801561202d57600080fd5b905060606127fc86616cfb565b905084516001600160401b038111801561281557600080fd5b5060405190808252806020026020018201604052801561283f578160200160208202803683370190505b50925084516001600160401b038111801561285957600080fd5b5060405190808252806020026020018201604052801561288d57816020015b60608152602001906001900390816128785790505b50935060005b85518110156129e85760606000805b85518110156129a05760606128d2866128cd8985815181106128c057fe5b6020026020010151616d93565b616b43565b90508b6001600160a01b0316632f80bb1d620493e0838d89815181106128f457fe5b60200260200101516040518463ffffffff1660e01b8152600401612919929190619bfe565b602060405180830381600088803b15801561293357600080fd5b5087f193505050508015612964575060408051601f3d908101601f1916820190925261296191810190618ee5565b60015b61296d57612997565b83158061297a5750808410155b15612995578093506129928c89858151811061212e57fe5b94505b505b506001016128a2565b50806129ad5750506129e8565b808684815181106129ba57fe5b602002602001018181525050818784815181106129d357fe5b60209081029190910101525050600101612893565b505050935093915050565b6040805160608181019092526112699080612a128689608084016197c6565b60405160208183030381529060405281526020018688604051602001612a399291906197c6565b6040516020818303038152906040528152602001616e2b81525083616362565b6060612a668484846108d4565b905060005b8451811015610a3f57818181518110612a8057fe5b6020026020010151600014612b0657612aed828281518110612a9e57fe5b6020026020010151868381518110612ab257fe5b6020026020010151606001516001600160801b0316878481518110612ad357fe5b6020026020010151604001516001600160801b0316616f3f565b828281518110612af957fe5b6020026020010181815250505b600101612a6b565b6060816001600160401b0381118015612b2657600080fd5b50604051908082528060200260200182016040528015612b6057816020015b612b4d617efb565b815260200190600190039081612b455790505b50905060005b808314612c68576001828281518110612b7b57fe5b602090810291909101810151911515910152838382818110612b9957fe5b9050602002810190612bab919061a017565b15159050612bb857612c60565b30848483818110612bc557fe5b9050602002810190612bd7919061a017565b604051612be592919061976d565b6000604051808303816000865af19150503d8060008114612c22576040519150601f19603f3d011682016040523d82523d6000602084013e612c27565b606091505b50838381518110612c3457fe5b6020026020010151602001848481518110612c4b57fe5b60209081029190910101519190915290151590525b600101612b66565b5092915050565b606081516001600160401b0381118015612c8857600080fd5b50604051908082528060200260200182016040528015612cb2578160200160208202803683370190505b50905060005b82518114612d5b577f00000000000000000000000000000000000000000000000000000000000000006001600160a01b0316838281518110612cf657fe5b60200260200101516001600160a01b031614612d3657612d31838281518110612d1b57fe5b60200260200101516001600160a01b0316616f63565b612d39565b60125b60ff16828281518110612d4857fe5b6020908102919091010152600101612cb8565b50919050565b60006060809450945094915050565b6060612d7c8385615d15565b6000856000015190506000816001600160a01b03166336569e776040518163ffffffff1660e01b815260040160206040518083038186803b158015612dc057600080fd5b505afa158015612dd4573d6000803e3d6000fd5b505050506040513d601f19601f82011682018060405250810190612df8919061868d565b8451909150806001600160401b0381118015612e1357600080fd5b50604051908082528060200260200182016040528015612e3d578160200160208202803683370190505b509350826001600160a01b031663f4b9fa756040518163ffffffff1660e01b815260040160206040518083038186803b158015612e7957600080fd5b505afa158015612e8d573d6000803e3d6000fd5b505050506040513d601f19601f82011682018060405250810190612eb1919061868d565b6001600160a01b0316866001600160a01b031614158015612f545750826001600160a01b031663f4b9fa756040518163ffffffff1660e01b815260040160206040518083038186803b158015612f0657600080fd5b505afa158015612f1a573d6000803e3d6000fd5b505050506040513d601f19601f82011682018060405250810190612f3e919061868d565b6001600160a01b0316876001600160a01b031614155b15612f61575050506111fb565b60005b81811015610fa2576000612f8f8a898b8a8681518110612f8057fe5b6020026020010151898961700f565b905080612f9c5750610fa2565b80868381518110612fa957fe5b602090810291909101015250600101612f64565b6060600085600001516001600160a01b031663bbd7f25585600f0b6040518263ffffffff1660e01b8152600401612ff49190619bc9565b60206040518083038186803b15801561300c57600080fd5b505afa158015613020573d6000803e3d6000fd5b505050506040513d601f19601f820116820180604052508101906130449190618ee5565b8651604051631e01043960e01b81526001600160a01b0390911690631e0104399061307790600f89900b90600401619bc9565b60206040518083038186803b15801561308f57600080fd5b505afa1580156130a3573d6000803e3d6000fd5b505050506040513d601f19601f820116820180604052508101906130c79190618ee5565b039050600086600001516001600160a01b031663c582951486600f0b6040518263ffffffff1660e01b81526004016130ff9190619bc9565b60806040518083038186803b15801561311757600080fd5b505afa15801561312b573d6000803e3d6000fd5b505050506040513d601f19601f8201168201806040525081019061314f9190619413565b935050505080601203600a0a828161316357fe5b85519190049250806001600160401b038111801561318057600080fd5b506040519080825280602002602001820160405280156131aa578160200160208202803683370190505b50935060005b81811015610fa257600060608a600001516001600160a01b0316620927c08c602001518c8c8c88815181106131e157fe5b60200260200101516040516024016131fb93929190619d45565b60408051601f198184030181529181526020820180516001600160e01b03166001600160e01b0319909416939093179092529051613239919061977d565b6000604051808303818686fa925050503d8060008114613275576040519150601f19603f3d011682016040523d82523d6000602084013e61327a565b606091505b50915091506000821561329e578180602001905181019061329b9190618ee5565b90505b8681106132d857835b858110156132cf57878982815181106132bc57fe5b60209081029190910101526001016132a7565b50505050610fa2565b808885815181106132e557fe5b6020026020010181815250508784815181106132fd57fe5b60200260200101516000141561331557505050610fa2565b5050506001016131b0565b613328617f13565b613330617f13565b600080805b875181146134355761337c602089838151811061334e57fe5b60200260200101515103878a848151811061336557fe5b60200260200101516172a19092919063ffffffff16565b60006060306001600160a01b03168a848151811061339657fe5b60200260200101516040516133ab919061977d565b6000604051808303816000865af19150503d80600081146133e8576040519150601f19603f3d011682016040523d82523d6000602084013e6133ed565b606091505b5091509150811561342b5760006134116020835103836172b190919063ffffffff16565b90508481111561342957838852602088018290529350835b505b5050600101613335565b50806134415750613530565b60005b8651811461352d57613474602088838151811061345d57fe5b602002602001015151038389848151811061336557fe5b60006060306001600160a01b031689848151811061348e57fe5b60200260200101516040516134a3919061977d565b6000604051808303816000865af19150503d80600081146134e0576040519150601f19603f3d011682016040523d82523d6000602084013e6134e5565b606091505b509150915081156135235760006135096020835103836172b190919063ffffffff16565b90508581111561352157838752602087018290529450845b505b5050600101613444565b50505b93509350939050565b60408401516060906001600160e01b0319166135bb5760408051606081019091526135b4908061356d868960808401619d63565b60405160208183030381529060405281526020018688604051602001613594929190619d63565b60405160208183030381529060405281526020016172bd81525083616362565b90506111fb565b8151806001600160401b03811180156135d357600080fd5b506040519080825280602002602001820160405280156135fd578160200160208202803683370190505b50915060005b81811015611842576000606088600001516001600160a01b0316621e84808a604001518a8a8a888151811061363457fe5b602002602001015160405160240161364e93929190619d45565b60408051601f198184030181529181526020820180516001600160e01b03166001600160e01b031990941693909317909252905161368c919061977d565b6000604051808303818686fa925050503d80600081146136c8576040519150601f19603f3d011682016040523d82523d6000602084013e6136cd565b606091505b5091509150600082156136f157818060200190518101906136ee9190618ee5565b90505b808685815181106136fe57fe5b60200260200101818152505085848151811061371657fe5b60200260200101516000141561372e57505050611842565b505050600101613603565b80516060908590806001600160401b038111801561375657600080fd5b50604051908082528060200260200182016040528015613780578160200160208202803683370190505b50604051630bcded8960e21b81529093506001600160a01b03831690632f37b624906137b0908990600401619799565b60206040518083038186803b1580156137c857600080fd5b505afa1580156137dc573d6000803e3d6000fd5b505050506040513d601f19601f820116820180604052508101906138009190618ec5565b15806138855750604051630bcded8960e21b81526001600160a01b03831690632f37b62490613833908890600401619799565b60206040518083038186803b15801561384b57600080fd5b505afa15801561385f573d6000803e3d6000fd5b505050506040513d601f19601f820116820180604052508101906138839190618ec5565b155b156138915750506111fb565b613899617ecc565b60405163f8b2cb4f60e01b81526001600160a01b0384169063f8b2cb4f906138c5908a90600401619799565b60206040518083038186803b1580156138dd57600080fd5b505afa1580156138f1573d6000803e3d6000fd5b505050506040513d601f19601f820116820180604052508101906139159190618ee5565b815260405163f8b2cb4f60e01b81526001600160a01b0384169063f8b2cb4f90613943908990600401619799565b60206040518083038186803b15801561395b57600080fd5b505afa15801561396f573d6000803e3d6000fd5b505050506040513d601f19601f820116820180604052508101906139939190618ee5565b6020820152604051634a46c67360e11b81526001600160a01b0384169063948d8ce6906139c4908a90600401619799565b60206040518083038186803b1580156139dc57600080fd5b505afa1580156139f0573d6000803e3d6000fd5b505050506040513d601f19601f82011682018060405250810190613a149190618ee5565b60408083019190915251634a46c67360e11b81526001600160a01b0384169063948d8ce690613a47908990600401619799565b60206040518083038186803b158015613a5f57600080fd5b505afa158015613a73573d6000803e3d6000fd5b505050506040513d601f19601f82011682018060405250810190613a979190618ee5565b816060018181525050826001600160a01b031663d4cadf686040518163ffffffff1660e01b815260040160206040518083038186803b158015613ad957600080fd5b505afa158015613aed573d6000803e3d6000fd5b505050506040513d601f19601f82011682018060405250810190613b119190618ee5565b608082015260005b82811015610fa2578151613b37906002670de0b6b3a7640000612757565b868281518110613b4357fe5b60200260200101511115613b5657610fa2565b836001600160a01b031663ba9530a6620493e084600001518560400151866020015187606001518c8881518110613b8957fe5b602002602001015189608001516040518863ffffffff1660e01b8152600401613bb796959493929190619fef565b60206040518083038187803b158015613bcf57600080fd5b5086fa93505050508015613c00575060408051601f3d908101601f19168201909252613bfd91810190618ee5565b60015b613c2e573d808015612739576040519150601f19603f3d011682016040523d82523d6000602084013e61273e565b80868381518110613c3b57fe5b602002602001018181525050858281518110613c5357fe5b602002602001015160001415613c695750610fa2565b50600101613b19565b60008083516003811115613c8257fe5b1480613c9a5750600183516003811115613c9857fe5b145b80613cb0575060408401516001600160801b0316155b80613cc6575060608401516001600160801b0316155b15613cd357506000613db2565b613cdb617f2d565b600080846001600160a01b0316631fb0979588886040518363ffffffff1660e01b8152600401613d0c929190619f57565b60a06040518083038186803b158015613d2457600080fd5b505afa158015613d38573d6000803e3d6000fd5b505050506040513d601f19601f82011682018060405250810190613d5c9190619353565b91945092509050600183602001516004811115613d7557fe5b141580613d80575080155b80613d93575086516001600160a01b0316155b15613da45760009350505050613db2565b506001600160801b03169150505b9392505050565b6000606080613dc88587615d15565b613dd3878787617311565b925082613ddf57610b9d565b60405163276fdad960e11b81523090634edfb5b290613e08908a9087908b908b90600401619f1e565b60006040518083038186803b158015613e2057600080fd5b505afa158015613e34573d6000803e3d6000fd5b505050506040513d6000823e601f3d908101601f19168201604052613e5c9190810190618efd565b876080018190525086608001519150613ed36040518060600160405280878a604051602001613e8c929190619a37565b6040516020818303038152906040528152602001888a604051602001613eb3929190619a37565b604051602081830303815290604052815260200161747881525085616362565b90509450945094915050565b600080856001600160a01b031663901754d786866040518363ffffffff1660e01b8152600401613f109291906197c6565b60206040518083038186803b158015613f2857600080fd5b505afa158015613f3c573d6000803e3d6000fd5b505050506040513d601f19601f82011682018060405250810190613f60919061868d565b90506001600160a01b038116613f7a5760009150506111fb565b60006001600160a01b0386161561400c576040516370a0823160e01b81526001600160a01b038716906370a0823190613fb7908590600401619799565b60206040518083038186803b158015613fcf57600080fd5b505afa158015613fe3573d6000803e3d6000fd5b505050506040513d601f19601f820116820180604052508101906140079190618ee5565b614018565b816001600160a01b0316315b90508381101561402d576000925050506111fb565b6040516303c2803f60e31b81526001600160a01b03831690631e1401f890620249f090614062908a908a908a906004016198c1565b60206040518083038187803b15801561407a57600080fd5b5086fa935050505080156140ab575060408051601f3d908101601f191682019092526140a891810190618ee5565b60015b6140eb573d8080156140d9576040519150601f19603f3d011682016040523d82523d6000602084013e6140de565b606091505b50600093505050506111fb565b92506111fb915050565b60606141018385615d15565b60208501516040805160028082526060828101909352816020016020820280368337019050509050858160008151811061413757fe5b60200260200101906001600160a01b031690816001600160a01b031681525050848160018151811061416557fe5b6001600160a01b03909216602092830291909101909101528351806001600160401b038111801561419557600080fd5b506040519080825280602002602001820160405280156141bf578160200160208202803683370190505b5093506141ca617ea5565b6141d2615d4b565b905060005b82811015610dcb5760606141f18b898481518110610cad57fe5b604051637c26833760e11b81529091506001600160a01b0387169063f84d066e906142279060019085908a908990600401619c8c565b600060405180830381600087803b15801561424157600080fd5b505af192505050801561427657506040513d6000823e601f3d908101601f191682016040526142739190810190618d41565b60015b6142a4573d808015610d6d576040519150601f19603f3d011682016040523d82523d6000602084013e610d72565b6000816000815181106142b357fe5b60200260200101519050600081136142cd57505050610dcb565b808985815181106142da57fe5b6020026020010181815250505050506001016141d7565b8051606090806001600160401b038111801561430c57600080fd5b50604051908082528060200260200182016040528015614336578160200160208202803683370190505b50915060005b8181101561184257866001600160a01b031663343fbcdd62061a80888888868151811061436557fe5b60200260200101516040518563ffffffff1660e01b815260040161438b939291906198c1565b60206040518083038187803b1580156143a357600080fd5b5086fa935050505080156143d4575060408051601f3d908101601f191682019092526143d191810190618ee5565b60015b614402573d8080156117f2576040519150601f19603f3d011682016040523d82523d6000602084013e6117f7565b8084838151811061440f57fe5b60200260200101818152505083828151811061442757fe5b60200260200101516000141561443d5750611842565b5060010161433c565b60008060606144558587615d15565b8351806001600160401b038111801561446d57600080fd5b50604051908082528060200260200182016040528015614497578160200160208202803683370190505b5091506144a68989898961755f565b945092506001600160a01b0383166144be5750614578565b60005b8181101561457557600061452f8986886040516020016144e393929190619869565b60405160208183030381529060405289878960405160200161450793929190619869565b60405160208183030381529060405289858151811061452257fe5b60200260200101516176b4565b90508084838151811061453e57fe5b60200260200101818152505083828151811061455657fe5b60200260200101516000141561456c5750614575565b506001016144c1565b50505b955095509592505050565b600060606145918486615d15565b8251806001600160401b03811180156145a957600080fd5b506040519080825280602002602001820160405280156145d3578160200160208202803683370190505b50915060005b818110156146485760006146028989898986815181106145f557fe5b6020026020010151613edf565b90508084838151811061461157fe5b60200260200101818152505083828151811061462957fe5b60200260200101516000141561463f5750614648565b506001016145d9565b5060405163901754d760e01b81526001600160a01b0388169063901754d79061467790899089906004016197c6565b60206040518083038186803b15801561468f57600080fd5b505afa1580156146a3573d6000803e3d6000fd5b505050506040513d601f19601f820116820180604052508101906146c7919061868d565b92505094509492505050565b60408051606081810190925261126990806146f28689608084016197c6565b604051602081830303815290604052815260200186886040516020016147199291906197c6565b60405160208183030381529060405281526020016177a681525083616362565b606082516001600160401b038111801561475257600080fd5b5060405190808252806020026020018201604052801561477c578160200160208202803683370190505b50905060005b83518114612c68577f00000000000000000000000000000000000000000000000000000000000000006001600160a01b03168482815181106147c057fe5b60200260200101516001600160a01b03161461480a57614805838583815181106147e657fe5b60200260200101516001600160a01b03166177ed90919063ffffffff16565b614816565b826001600160a01b0316315b82828151811061482257fe5b6020908102919091010152600101614782565b60408051606081810190925261126990806148548689608084016197c6565b6040516020818303038152906040528152602001868860405160200161487b9291906197c6565b60405160208183030381529060405281526020016178b781525083616362565b60606148a78385615d15565b8151806001600160401b03811180156148bf57600080fd5b506040519080825280602002602001820160405280156148e9578160200160208202803683370190505b50915060006001600160a01b0386161561490c576149078787615e0c565b61490f565b60005b905060006001600160a01b038616156149315761492c8887615e0c565b614934565b60005b905060005b83811015610fa25760016001600160a01b03881661498a57614969846395b68fe760e01b898581518110610ea657fe5b87848151811061497557fe5b60200260200101819350828152505050614a24565b6001600160a01b0389166149b0576149698363cd7724c360e01b898581518110610ea657fe5b60006149ca856395b68fe760e01b8a8681518110610ea657fe5b925090508015614a07576149e68463cd7724c360e01b83615e8b565b8885815181106149f257fe5b60200260200101819450828152505050614a22565b6000878481518110614a1557fe5b6020026020010181815250505b505b801580614a445750858281518110614a3857fe5b60200260200101516000145b15614a4f5750610fa2565b50600101614939565b8051606090806001600160401b0381118015614a7357600080fd5b50604051908082528060200260200182016040528015614a9d578160200160208202803683370190505b50915060005b818110156119c757856001600160a01b0316631f00ca74620249f0868481518110614aca57fe5b6020026020010151886040518463ffffffff1660e01b8152600401614af0929190619fab565b60006040518083038187803b158015614b0857600080fd5b5086fa93505050508015614b3e57506040513d6000823e601f3d908101601f19168201604052614b3b9190810190618e93565b60015b614b6c573d808015611960576040519150601f19603f3d011682016040523d82523d6000602084013e611965565b80600081518110614b7957fe5b6020026020010151848381518110614b8d57fe5b602002602001018181525050838281518110614ba557fe5b602002602001015160001415614bbb57506119c7565b50600101614aa3565b6000606080614bd38587615d15565b614bde878787617311565b925082614bea57610b9d565b60405163276fdad960e11b81523090634edfb5b290614c13908a9087908b908b90600401619f1e565b60006040518083038186803b158015614c2b57600080fd5b505afa158015614c3f573d6000803e3d6000fd5b505050506040513d6000823e601f3d908101601f19168201604052614c679190810190618efd565b608088018190528451909250806001600160401b0381118015614c8957600080fd5b50604051908082528060200260200182016040528015614cb3578160200160208202803683370190505b50915060005b81811015614d9e576000306001600160a01b031663f1ed7fa48b8b8b8b8781518110614ce157fe5b60200260200101516040518563ffffffff1660e01b8152600401614d089493929190619ee8565b60206040518083038186803b158015614d2057600080fd5b505afa158015614d34573d6000803e3d6000fd5b505050506040513d601f19601f82011682018060405250810190614d589190618ee5565b905080848381518110614d6757fe5b602002602001018181525050838281518110614d7f57fe5b602002602001015160001415614d955750614d9e565b50600101614cb9565b50509450945094915050565b6000806060614db98587615d15565b614dc58888888861755f565b935091506001600160a01b038216614ddc57614578565b8351806001600160401b0381118015614df457600080fd5b50604051908082528060200260200182016040528015614e1e578160200160208202803683370190505b506040805160608101909152909250614e8b9080614e428987891560808501619869565b6040516020818303038152906040528152602001898688604051602001614e6b93929190619869565b60405160208183030381529060405281526020016176b481525086616362565b915050955095509592505050565b6000806060614ea88587615d15565b8351806001600160401b0381118015614ec057600080fd5b50604051908082528060200260200182016040528015614eea578160200160208202803683370190505b508851604051630939d86360e11b81529193506001600160a01b031690631273b0c690614f1d908a908a906004016197c6565b60206040518083038186803b158015614f3557600080fd5b505afa158015614f49573d6000803e3d6000fd5b505050506040513d601f19601f82011682018060405250810190614f6d919061868d565b925060006001600160a01b03841615614f8b5750600193508661502a565b8851604051630939d86360e11b81526001600160a01b0390911690631273b0c690614fbc908a908c906004016197c6565b60206040518083038186803b158015614fd457600080fd5b505afa158015614fe8573d6000803e3d6000fd5b505050506040513d601f19601f8201168201806040525081019061500c919061868d565b93506001600160a01b038416615023575050610b9d565b5060009350855b836001600160a01b031663dd58b41c6040518163ffffffff1660e01b815260040160206040518083038186803b15801561506357600080fd5b505afa158015615077573d6000803e3d6000fd5b505050506040513d601f19601f8201168201806040525081019061509b9190618ec5565b6150a6575050610b9d565b61511e60405180606001604052808987858e602001516040516020016150cf94939291906197e0565b60405160208183030381529060405281526020018a87858e602001516040516020016150fe94939291906197e0565b604051602081830303815290604052815260200161657481525087616362565b925050509450945094915050565b606083516001600160401b038111801561514557600080fd5b5060405190808252806020026020018201604052801561516f578160200160208202803683370190505b50905060005b84518114610a3f577f00000000000000000000000000000000000000000000000000000000000000006001600160a01b03168582815181106151b357fe5b60200260200101516001600160a01b0316146151ff576151fa84848784815181106151da57fe5b60200260200101516001600160a01b031661796c9092919063ffffffff16565b615202565b60005b82828151811061520e57fe5b6020908102919091010152600101615175565b8051606090806001600160401b038111801561523c57600080fd5b50604051908082528060200260200182016040528015615266578160200160208202803683370190505b50915060005b8181101561184257866001600160a01b031663838e6a22620493e0888888868151811061529557fe5b60200260200101516040518563ffffffff1660e01b81526004016152bb939291906198c1565b60206040518083038187803b1580156152d357600080fd5b5086fa93505050508015615304575060408051601f3d908101601f1916820190925261530191810190618ee5565b60015b615332573d8080156117f2576040519150601f19603f3d011682016040523d82523d6000602084013e6117f7565b8084838151811061533f57fe5b6020026020010181815250505060010161526c565b60008460800151516000141561536c575060006111fb565b84604001516001600160a01b031663418436bc6207a12087606001516001600160a01b0316876001600160a01b0316146153a657866153bc565b73eeeeeeeeeeeeeeeeeeeeeeeeeeeeeeeeeeeeeeee5b88606001516001600160a01b0316876001600160a01b0316146153df57866153f5565b73eeeeeeeeeeeeeeeeeeeeeeeeeeeeeeeeeeeeeeee5b8660008b608001516040518763ffffffff1660e01b815260040161541d9594939291906198e5565b60206040518083038187803b15801561543557600080fd5b5086fa93505050508015615466575060408051601f3d908101601f1916820190925261546391810190618ee5565b60015b6154a4573d808015615494576040519150601f19603f3d011682016040523d82523d6000602084013e615499565b606091505b5060009150506111fb565b60006154af85617a38565b60ff16905060006154bf87617a38565b60ff169050670de0b6b3a764000081600a0a83600a0a87860202816154e057fe5b04816154e857fe5b0493505050506111fb565b600060606155018486615d15565b8251806001600160401b038111801561551957600080fd5b50604051908082528060200260200182016040528015615543578160200160208202803683370190505b5091506155ae604051806060016040528089886040516020016155679291906197c6565b6040516020818303038152906040528152602001898960405160200161558e9291906197c6565b6040516020818303038152906040528152602001617a4381525085616362565b60405163901754d760e01b81529092506001600160a01b0388169063901754d79061467790899089906004016197c6565b6155e7617f13565b6155ef617f13565b6000198060005b865181146156eb57615626602088838151811061560f57fe5b602002602001015151038789848151811061336557fe5b60006060306001600160a01b031689848151811061564057fe5b6020026020010151604051615655919061977d565b6000604051808303816000865af19150503d8060008114615692576040519150601f19603f3d011682016040523d82523d6000602084013e615697565b606091505b509150915081156156e15760006156bb6020835103836172b190919063ffffffff16565b90506000811180156156cc57508481105b156156df57838752602087018290529350835b505b50506001016155f6565b506000198114156156fc5750613530565b60005b8751811461352d5761572f602089838151811061571857fe5b60200260200101515103838a848151811061336557fe5b60006060306001600160a01b03168a848151811061574957fe5b602002602001015160405161575e919061977d565b6000604051808303816000865af19150503d806000811461579b576040519150601f19603f3d011682016040523d82523d6000602084013e6157a0565b606091505b509150915081156157ea5760006157c46020835103836172b190919063ffffffff16565b90506000811180156157d557508581105b156157e857838852602088018290529450845b505b50506001016156ff565b60606000836001600160a01b031663c45a01556040518163ffffffff1660e01b815260040160206040518083038186803b15801561583157600080fd5b505afa158015615845573d6000803e3d6000fd5b505050506040513d601f19601f82011682018060405250810190615869919061868d565b905060018351036001600160401b038111801561588557600080fd5b506040519080825280602002602001820160405280156158af578160200160208202803683370190505b50915060005b8251811015615ada576060826001600160a01b0316635b1dc86f620249f08785815181106158df57fe5b60200260200101518886600101815181106158f657fe5b60200260200101516040518463ffffffff1660e01b815260040161591b9291906197c6565b60006040518083038187803b15801561593357600080fd5b5086fa9350505050801561596957506040513d6000823e601f3d908101601f191682016040526159669190810190618a3a565b60015b6159b8573d808015615997576040519150601f19603f3d011682016040523d82523d6000602084013e61599c565b606091505b50506040805160008152602081019091529350615add92505050565b60006001825110156159e55760405162461bcd60e51b81526004016159dc90619e49565b60405180910390fd5b60005b8251811015615ace5760008382815181106159ff57fe5b60200260200101516001600160a01b03166318160ddd6040518163ffffffff1660e01b815260040160206040518083038186803b158015615a3f57600080fd5b505afa158015615a53573d6000803e3d6000fd5b505050506040513d601f19601f82011682018060405250810190615a779190618ee5565b905082811115615ac557809250838281518110615a9057fe5b6020026020010151888781518110615aa457fe5b60200260200101906001600160a01b031690816001600160a01b0316815250505b506001016159e8565b505050506001016158b5565b50505b92915050565b6000606085600001516001600160a01b03166321f8a72187600001516001600160a01b0316639232494e6040518163ffffffff1660e01b815260040160206040518083038186803b158015615b3757600080fd5b505afa158015615b4b573d6000803e3d6000fd5b505050506040513d601f19601f82011682018060405250810190615b6f9190618ee5565b6040518263ffffffff1660e01b8152600401615b8b9190619bc9565b60206040518083038186803b158015615ba357600080fd5b505afa158015615bb7573d6000803e3d6000fd5b505050506040513d601f19601f82011682018060405250810190615bdb919061868d565b915085602001515160001415615bf057615d0c565b6000805b876020015151811015615d0957600288602001518281518110615c1357fe5b6020026020010151511015615c2757615d01565b836001600160a01b0316637f9c0ecd620493e08a602001518481518110615c4a57fe5b60200260200101518860018a510381518110615c6257fe5b60200260200101516040518463ffffffff1660e01b8152600401615c87929190619a80565b60206040518083038187803b158015615c9f57600080fd5b5086fa93505050508015615cd0575060408051601f3d908101601f19168201909252615ccd91810190618ee5565b60015b615cd957615d01565b82811115615cff5780925088602001518281518110615cf457fe5b602002602001015193505b505b600101615bf4565b50505b94509492505050565b806001600160a01b0316826001600160a01b03161415615d475760405162461bcd60e51b81526004016159dc90619dbf565b5050565b615d53617ea5565b50604080516080810182523080825260006020830181905292820152606081019190915290565b604080516001808252818301909252606091829190816020015b615d9c617f4f565b815260200190600190039081615d945790505090506040518060a001604052808560000151815260200160008152602001600181526020018481526020016040518060200160405280600081525081525081600081518110615dfa57fe5b60209081029190910101529392505050565b6040516303795fb160e11b81526000906001600160a01b038416906306f2bf6290615e3b908590600401619799565b60206040518083038186803b158015615e5357600080fd5b505afa158015615e67573d6000803e3d6000fd5b505050506040513d601f19601f82011682018060405250810190613db2919061868d565b6000806001600160a01b038516615ea1576108cc565b6060856001600160a01b0316620249f08686604051602401615ec39190619bc9565b60408051601f198184030181529181526020820180516001600160e01b03166001600160e01b0319909416939093179092529051615f01919061977d565b6000604051808303818686fa925050503d8060008114615f3d576040519150601f19603f3d011682016040523d82523d6000602084013e615f42565b606091505b5090925090508115615f655780806020019051810190615f629190618ee5565b92505b50935093915050565b600080600080846001600160a01b031663d9638d368b602001516040518263ffffffff1660e01b8152600401615fa49190619bc9565b60a06040518083038186803b158015615fbc57600080fd5b505afa158015615fd0573d6000803e3d6000fd5b505050506040513d601f19601f82011682018060405250810190615ff49190619448565b94509450505092506000620f424090508a604001516001600160a01b0316896001600160a01b0316141561611c5760006160338964e8d4a51000617a93565b905060006160576b033b2e3c9fd0803ce80000006160518885617ac9565b90617a93565b905084811061606f5760009650505050505050616225565b60006160fe670de0b6b3a76400006160f88c6001600160a01b031663568d4b6f6040518163ffffffff1660e01b815260040160206040518083038186803b1580156160b957600080fd5b505afa1580156160cd573d6000803e3d6000fd5b505050506040513d601f19601f820116820180604052508101906160f19190618ee5565b8690617a93565b90617ae5565b9050600061610c8483617b0f565b9850616225975050505050505050565b8a604001516001600160a01b03168a6001600160a01b0316141561621c57878481111561615157600095505050505050616225565b600061616d6b033b2e3c9fd0803ce80000006160518885617b0f565b90508381116161855760009650505050505050616225565b600061620a8a6001600160a01b031663fae036d56040518163ffffffff1660e01b815260040160206040518083038186803b1580156161c357600080fd5b505afa1580156161d7573d6000803e3d6000fd5b505050506040513d601f19601f820116820180604052508101906161fb9190618ee5565b670de0b6b3a764000090617ac9565b9050600061610c826160f88688617a93565b60009450505050505b9695505050505050565b60008061623a617f81565b8580602001905181019061624e9190618f91565b915091506000858060200190518101906162689190618f75565b905060006060306322db5ed160e21b8587866162838c617b2e565b6040516024016162969493929190619e80565b60408051601f198184030181529181526020820180516001600160e01b03166001600160e01b03199094169390931790925290516162d4919061977d565b600060405180830381855afa9150503d806000811461630f576040519150601f19603f3d011682016040523d82523d6000602084013e616314565b606091505b50915091508161632c57600095505050505050613db2565b808060200190518101906163409190618e93565b60008151811061634c57fe5b6020026020010151955050505050509392505050565b606081516001600160401b038111801561637b57600080fd5b506040519080825280602002602001820160405280156163a5578160200160208202803683370190505b5090508151600014156163b757615add565b60006163e884600001518560200151856000815181106163d357fe5b6020026020010151876040015163ffffffff16565b9050806163f55750615add565b60006164128560200151866000015184886040015163ffffffff16565b905080616420575050615add565b60005b845181101561656b576000805b60058110156165145761645787848151811061644857fe5b60200260200101518587617b6f565b94508461646357616514565b61647261271561271087617b6f565b94508461647e57616514565b600061649b89602001518a60000151888c6040015163ffffffff16565b9050806164a85750616514565b8094508784815181106164b757fe5b6020026020010151851061650b578784815181106164d157fe5b60200260200101516127108986815181106164e857fe5b6020026020010151870302816164fa57fe5b0492506005831161650b5750616514565b50600101616430565b508015806165225750600581115b1561652d575061656b565b61654b86838151811061653c57fe5b60200260200101518486617b6f565b85838151811061655757fe5b602090810291909101015250600101616423565b50505092915050565b60008060008060008780602001905181019061659091906186e2565b9350935093509350816001600160a01b0316846001600160a01b0316141561667a576040516351400f0b60e11b81526001600160a01b0384169063a2801e1690620493e0906165e3908a90600401619bc9565b60206040518083038187803b1580156165fb57600080fd5b5086fa9350505050801561662c575060408051601f3d908101601f1916820190925261662991810190618ee5565b60015b61666e573d80801561665a576040519150601f19603f3d011682016040523d82523d6000602084013e61665f565b606091505b50600095505050505050613db2565b9450613db29350505050565b60405163ca19ebd960e01b81526001600160a01b0382169063ca19ebd990620493e0906165e39087908b906004016197ad565b606060028284510310156166d35760405162461bcd60e51b81526004016159dc90619d7b565b6166db617fa1565b5060408051606080820183526101f48252610bb86020830152612710828401528251600380825260808201909452919290919081602001602082028036833701905050905060008086868151811061672f57fe5b60200260200101519050600087876001018151811061674a57fe5b6020026020010151905060005b600381101561683f5760008a6001600160a01b0316631698ee8285858a866003811061677f57fe5b60200201516040518463ffffffff1660e01b81526004016167a293929190619c11565b60206040518083038186803b1580156167ba57600080fd5b505afa1580156167ce573d6000803e3d6000fd5b505050506040513d601f19601f820116820180604052508101906167f2919061868d565b90506167fd81617bc7565b15616836578086868060010197508151811061681557fe5b60200260200101906001600160a01b031690816001600160a01b0316815250505b50600101616757565b5050508061684f57505050613db2565b855185600201141561694557806001600160401b038111801561687157600080fd5b506040519080825280602002602001820160405280156168a557816020015b60608152602001906001900390816168905790505b50935060005b8181101561693c576040805160018082528183019092529060208083019080368337019050508582815181106168dd57fe5b60200260200101819052508281815181106168f457fe5b602002602001015185828151811061690857fe5b602002602001015160008151811061691c57fe5b6001600160a01b03909216602092830291909101909101526001016168ab565b50505050613db2565b60606169558888886001016166ad565b905080516000141561696a5750505050613db2565b805182026001600160401b038111801561698357600080fd5b506040519080825280602002602001820160405280156169b757816020015b60608152602001906001900390816169a25790505b50945060005b82811015616b375760005b8251811015616b2e5782518281028201908490839081106169e557fe5b6020026020010151516001016001600160401b0381118015616a0657600080fd5b50604051908082528060200260200182016040528015616a30578160200160208202803683370190505b50888281518110616a3d57fe5b6020026020010181905250858381518110616a5457fe5b6020026020010151888281518110616a6857fe5b6020026020010151600081518110616a7c57fe5b60200260200101906001600160a01b031690816001600160a01b03168152505060005b848381518110616aab57fe5b602002602001015151811015616b2457848381518110616ac757fe5b60200260200101518181518110616ada57fe5b6020026020010151898381518110616aee57fe5b60200260200101518260010181518110616b0457fe5b6001600160a01b0390921660209283029190910190910152600101616a9f565b50506001016169c8565b506001016169bd565b50505050509392505050565b60606002835110158015616b5b575081516001018351145b616b775760405162461bcd60e51b81526004016159dc90619e04565b81516003028351601402016001600160401b0381118015616b9757600080fd5b506040519080825280601f01601f191660200182016040528015616bc2576020820181803683370190505b5090506020810160005b8451811015615ada578015616c71576000846001830381518110616bec57fe5b60200260200101516001600160a01b031663ddca3f436040518163ffffffff1660e01b815260040160206040518083038186803b158015616c2c57600080fd5b505afa158015616c40573d6000803e3d6000fd5b505050506040513d601f19601f82011682018060405250810190616c6491906193cd565b60e81b8352506003909101905b6000858281518110616c7f57fe5b602090810291909101015160601b835250601490910190600101616bcc565b60008282028315801590616cbb575082848281616cb757fe5b0414155b15616cca576000915050615add565b6706f05b59d3b20000810181811015616ce857600092505050615add565b670de0b6b3a76400009004949350505050565b606081516001600160401b0381118015616d1457600080fd5b50604051908082528060200260200182016040528015616d3e578160200160208202803683370190505b50905060005b8251811015612d5b57826001828551030381518110616d5f57fe5b6020026020010151828281518110616d7357fe5b6001600160a01b0390921660209283029190910190910152600101616d44565b606081516001600160401b0381118015616dac57600080fd5b50604051908082528060200260200182016040528015616dd6578160200160208202803683370190505b50905060005b8251811015612d5b57826001828551030381518110616df757fe5b6020026020010151828281518110616e0b57fe5b6001600160a01b0390921660209283029190910190910152600101616ddc565b600080600085806020019051810190616e4491906186a9565b91509150600085806020019051810190616e5e919061868d565b90503063e8e4af09838584616e728a617b2e565b6040518563ffffffff1660e01b8152600401616e91949392919061980b565b60006040518083038186803b158015616ea957600080fd5b505afa925050508015616ede57506040513d6000823e601f3d908101601f19168201604052616edb9190810190618e93565b60015b616f1f573d808015616f0c576040519150601f19603f3d011682016040523d82523d6000602084013e616f11565b606091505b506000945050505050613db2565b80600081518110616f2c57fe5b6020026020010151945050505050613db2565b60006111fb836160f8616f53826001617b0f565b616f5d8887617a93565b90617ac9565b60006012905060006060836001600160a01b031660405180604001604052806004815260200163313ce56760e01b815250604051616fa1919061977d565b600060405180830381855afa9150503d8060008114616fdc576040519150601f19603f3d011682016040523d82523d6000602084013e616fe1565b606091505b5091509150818015616ff557506020815110155b15617008576170058160006172b1565b92505b5050919050565b600080600080846001600160a01b031663d9638d368b602001516040518263ffffffff1660e01b81526004016170459190619bc9565b60a06040518083038186803b15801561705d57600080fd5b505afa158015617071573d6000803e3d6000fd5b505050506040513d601f19601f820116820180604052508101906170959190619448565b945094505050925089604001516001600160a01b0316886001600160a01b031614156171ac5760008790506000617145886001600160a01b031663568d4b6f6040518163ffffffff1660e01b815260040160206040518083038186803b1580156170fe57600080fd5b505afa158015617112573d6000803e3d6000fd5b505050506040513d601f19601f820116820180604052508101906171369190618ee5565b670de0b6b3a764000090617b0f565b9050600061715f826160f885670de0b6b3a7640000617a93565b9050600061717d6b033b2e3c9fd0803ce80000006160518985617ac9565b9050858110617196576000975050505050505050616225565b600061610c6001616f5d8564e8d4a51000617ae5565b89604001516001600160a01b0316896001600160a01b031614156172915760006171db8864e8d4a51000617a93565b9050600061721b886001600160a01b031663fae036d56040518163ffffffff1660e01b815260040160206040518083038186803b1580156161c357600080fd5b90506000617235670de0b6b3a76400006160f88585617a93565b90508581111561724e5760009650505050505050616225565b600061726a6b033b2e3c9fd0803ce80000006160518985617b0f565b9050848111617283576000975050505050505050616225565b509550616225945050505050565b5060009998505050505050505050565b6172ac838383617dd3565b505050565b6000613db28383617dfa565b6000806172c8617f81565b858060200190518101906172dc9190618f91565b915091506000858060200190518101906172f69190618f75565b9050600060603063205e01d760e11b8587866162838c617b2e565b600080846020015190506060816001600160a01b031663910ffc7187606001516001600160a01b0316876001600160a01b03161461734f5786617365565b73eeeeeeeeeeeeeeeeeeeeeeeeeeeeeeeeeeeeeeee5b88606001516001600160a01b0316876001600160a01b031614617388578661739e565b73eeeeeeeeeeeeeeeeeeeeeeeeeeeeeeeeeeeeeeee5b604080516000815260208101918290526001600160e01b031960e086901b169091526173d29291906001906024810161988d565b60006040518083038186803b1580156173ea57600080fd5b505afa1580156173fe573d6000803e3d6000fd5b505050506040513d6000823e601f3d908101601f191682016040526174269190810190618ad2565b505090508051866000015110617442575060009150613db29050565b8086600001518151811061745257fe5b6020026020010151925060f883901c60001c60bb14156119c7575060009150613db29050565b600080617483617fbf565b848060200190518101906174979190618788565b915091506000868060200190518101906174b19190618788565b50604051633c7b5fe960e21b8152909150309063f1ed7fa4906174de908590859088908b90600401619ee8565b60206040518083038186803b1580156174f657600080fd5b505afa925050508015617526575060408051601f3d908101601f1916820190925261752391810190618ee5565b60015b617554573d808015616f0c576040519150601f19603f3d011682016040523d82523d6000602084013e616f11565b9350613db292505050565b6000806060866001600160a01b03166357a281dc86866040518363ffffffff1660e01b81526004016175929291906197c6565b60006040518083038186803b1580156175aa57600080fd5b505afa1580156175be573d6000803e3d6000fd5b505050506040513d6000823e601f3d908101601f191682016040526175e69190810190618a3a565b90506001915080516000141561767f576040516315e8a07760e21b81526001600160a01b038816906357a281dc9061762490879089906004016197c6565b60006040518083038186803b15801561763c57600080fd5b505afa158015617650573d6000803e3d6000fd5b505050506040513d6000823e601f3d908101601f191682016040526176789190810190618a3a565b9050600091505b80518610617694576000809250925050615d0c565b8086815181106176a057fe5b602002602001015192505094509492505050565b600080600080868060200190518101906176ce9190618740565b925092509250801561777257604051633cd0243b60e11b81526001600160a01b038316906379a0487690620493e09061770e906000908a906004016197ad565b604080518083038187803b15801561772557600080fd5b5086fa93505050508015617756575060408051601f3d908101601f19168201909252617753918101906193f0565b60015b6177665760009350505050613db2565b509350613db292505050565b6040516366410a2160e01b81526001600160a01b038316906366410a2190620493e09061770e906000908a906004016197ad565b6000806000858060200190518101906177bf91906186a9565b915091506000858060200190518101906177d9919061868d565b9050306330d6570d838584616e728a617b2e565b6000806060846001600160a01b03166370a0823160e01b856040516024016178159190619799565b60408051601f198184030181529181526020820180516001600160e01b03166001600160e01b0319909416939093179092529051617853919061977d565b600060405180830381855afa9150503d806000811461788e576040519150601f19603f3d011682016040523d82523d6000602084013e617893565b606091505b50915091508180156178a757506020815110155b15615ada576112698160006172b1565b6000806000858060200190518101906178d091906186a9565b915091506000858060200190518101906178ea919061868d565b90503063a469841762061a808486856179028b617b2e565b6040518663ffffffff1660e01b8152600401617921949392919061980b565b60006040518083038187803b15801561793957600080fd5b5086fa93505050508015616ede57506040513d6000823e601f3d908101601f19168201604052616edb9190810190618e93565b6000806060856001600160a01b031663dd62ed3e60e01b86866040516024016179969291906197c6565b60408051601f198184030181529181526020820180516001600160e01b03166001600160e01b03199094169390931790925290516179d4919061977d565b600060405180830381855afa9150503d8060008114617a0f576040519150601f19603f3d011682016040523d82523d6000602084013e617a14565b606091505b5091509150818015617a2857506020815110155b156119c7576162258160006172b1565b6000615add82616f63565b600080600085806020019051810190617a5c91906186a9565b9150915060008086806020019051810190617a7791906186a9565b91509150617a8784848389613edf565b98975050505050505050565b600082617aa257506000615add565b82820282848281617aaf57fe5b0414613db257613db2617ac460018686617e24565b617e7e565b600082820183811015613db257613db2617ac460008686617e24565b600081617afb57617afb617ac460038585617e24565b6000828481617b0657fe5b04949350505050565b600082821115617b2857617b28617ac460028585617e24565b50900390565b604080516001808252818301909252606091602080830190803683370190505090508181600081518110617b5e57fe5b602002602001018181525050919050565b6000831580617b7c575081155b80617b85575082155b15617b9257506000613db2565b83820282858281617b9f57fe5b0414617baf576000915050613db2565b8360018503820181617bbd57fe5b0495945050505050565b6000813b80617bda576000915050610bac565b50816001600160a01b0316630dfe16816040518163ffffffff1660e01b815260040160206040518083038186803b158015617c1457600080fd5b505afa158015617c28573d6000803e3d6000fd5b505050506040513d601f19601f82011682018060405250810190617c4c919061868d565b6001600160a01b03166370a08231836040518263ffffffff1660e01b8152600401617c779190619799565b60206040518083038186803b158015617c8f57600080fd5b505afa158015617ca3573d6000803e3d6000fd5b505050506040513d601f19601f82011682018060405250810190617cc79190618ee5565b617cd357506000610bac565b816001600160a01b031663d21220a76040518163ffffffff1660e01b815260040160206040518083038186803b158015617d0c57600080fd5b505afa158015617d20573d6000803e3d6000fd5b505050506040513d601f19601f82011682018060405250810190617d44919061868d565b6001600160a01b03166370a08231836040518263ffffffff1660e01b8152600401617d6f9190619799565b60206040518083038186803b158015617d8757600080fd5b505afa158015617d9b573d6000803e3d6000fd5b505050506040513d601f19601f82011682018060405250810190617dbf9190618ee5565b617dcb57506000610bac565b506001919050565b8160200183511015617df257617df2617ac46005855185602001617e86565b910160200152565b60008160200183511015617e1b57617e1b617ac46005855185602001617e86565b50016020015190565b606063e946c1bb60e01b848484604051602401617e4393929190619c5d565b60408051601f198184030181529190526020810180516001600160e01b03166001600160e01b03199093169290921790915290509392505050565b805160208201fd5b6060632800659560e01b848484604051602401617e4393929190619c7e565b60408051608081018252600080825260208201819052918101829052606081019190915290565b6040518060a0016040528060008152602001600081526020016000815260200160008152602001600081525090565b60408051808201909152606081526000602082015290565b604051806040016040528060008152602001606081525090565b6040805160608101909152600080825260208201908152600060209091015290565b6040518060a0016040528060008019168152602001600081526020016000815260200160008152602001606081525090565b604080516060810182526000808252602082018190529181019190915290565b60405180606001604052806003906020820280368337509192915050565b6040518060a001604052806000815260200160006001600160a01b0316815260200160006001600160a01b0316815260200160006001600160a01b03168152602001606081525090565b8035615add8161a11d565b8051615add8161a11d565b600082601f83011261802f578081fd5b813561804261803d8261a088565b61a062565b81815291506020808301908481018184028601820187101561806357600080fd5b60005b8481101561808b5781356180798161a11d565b84529282019290820190600101618066565b505050505092915050565b600082601f8301126180a6578081fd5b81356180b461803d8261a088565b818152915060208083019084810160005b8481101561808b576180dc888484358a010161801f565b845292820192908201906001016180c5565b600082601f8301126180fe578081fd5b813561810c61803d8261a088565b818152915060208083019084810160005b8481101561808b57618134888484358a01016182ed565b8452928201929082019060010161811d565b600082601f830112618156578081fd5b813561816461803d8261a088565b81815291506020808301908481018184028601820187101561818557600080fd5b60005b8481101561808b57813561819b8161a11d565b84529282019290820190600101618188565b600082601f8301126181bd578081fd5b81356181cb61803d8261a088565b81815291506020808301908481016080808502870183018810156181ee57600080fd5b60005b858110156182155761820389846185ec565b855293830193918101916001016181f1565b50505050505092915050565b600082601f830112618231578081fd5b813561823f61803d8261a088565b81815291506020808301908481018184028601820187101561826057600080fd5b60005b8481101561808b57813584529282019290820190600101618263565b600082601f83011261828f578081fd5b815161829d61803d8261a088565b8181529150602080830190848101818402860182018710156182be57600080fd5b60005b8481101561808b578151845292820192908201906001016182c1565b80518015158114615add57600080fd5b600082601f8301126182fd578081fd5b813561830b61803d8261a0a7565b915080825283602082850101111561832257600080fd5b8060208401602084013760009082016020015292915050565b600082601f83011261834b578081fd5b815161835961803d8261a0a7565b915080825283602082850101111561837057600080fd5b612c6881602084016020860161a0e0565b805160028110615add57600080fd5b6000606082840312156183a1578081fd5b6183ab606061a062565b905081356183b88161a11d565b815260208201356183c88161a132565b602082015260408201356183db8161a132565b604082015292915050565b6000606082840312156183f7578081fd5b618401606061a062565b9050815161840e8161a11d565b8152602082015161841e8161a132565b602082015260408201516183db8161a132565b600060408284031215618442578081fd5b61844c604061a062565b905081356184598161a11d565b815260208201356184698161a11d565b602082015292915050565b600060a08284031215618485578081fd5b61848f60a061a062565b90508135815260208201356184a38161a11d565b602082015260408201356184b68161a11d565b604082015260608201356184c98161a11d565b606082015260808201356001600160401b038111156184e757600080fd5b6184f3848285016182ed565b60808301525092915050565b6000610180808385031215618512578182fd5b61851b8161a062565b9150506185288383618009565b81526185378360208401618009565b6020820152618549836040840161864f565b604082015261855b836060840161864f565b606082015261856d836080840161864f565b608082015261857f8360a08401618009565b60a08201526185918360c08401618009565b60c08201526185a38360e08401618009565b60e08201526101006185b784828501618009565b9082015261012082810135908201526101406185d58482850161865a565b818301525061016080830135818301525092915050565b6000608082840312156185fd578081fd5b618607608061a062565b905081356004811061861857600080fd5b8152602082013560ff8116811461862e57600080fd5b80602083015250604082013560408201526060820135606082015292915050565b8035615add8161a157565b80356001600160401b0381168114615add57600080fd5b600060208284031215618682578081fd5b8135613db28161a11d565b60006020828403121561869e578081fd5b8151613db28161a11d565b600080604083850312156186bb578081fd5b82516186c68161a11d565b60208401519092506186d78161a11d565b809150509250929050565b600080600080608085870312156186f7578182fd5b84516187028161a11d565b60208601519094506187138161a11d565b60408601519093506187248161a11d565b60608601519092506187358161a11d565b939692955090935050565b600080600060608486031215618754578081fd5b835161875f8161a11d565b60208501519093506187708161a11d565b915061877f85604086016182dd565b90509250925092565b6000806040838503121561879a578182fd5b82516187a58161a11d565b60208401519092506001600160401b03808211156187c1578283fd5b9084019060a082870312156187d4578283fd5b6187de60a061a062565b825181526187ef8760208501618014565b60208201526188018760408501618014565b60408201526188138760608501618014565b6060820152608083015182811115618829578485fd5b6188358882860161833b565b6080830152508093505050509250929050565b600080600080600060a0868803121561885f578283fd5b853561886a8161a11d565b9450602086013561887a8161a11d565b9350604086013561888a8161a11d565b9250606086013561889a8161a11d565b915060808601356001600160401b038111156188b4578182fd5b6188c088828901618221565b9150509295509295909350565b600080600080608085870312156188e2578182fd5b84356188ed8161a11d565b935060208501356188fd8161a11d565b9250604085013561890d8161a11d565b915060608501356001600160401b03811115618927578182fd5b61893387828801618221565b91505092959194509250565b60008060008060808587031215618954578182fd5b843561895f8161a11d565b9350602085013561896f8161a11d565b9250604085013561897f8161a11d565b9396929550929360600135925050565b6000806000606084860312156189a3578081fd5b83356189ae8161a11d565b925060208401356001600160401b03808211156189c9578283fd5b6189d58783880161801f565b935060408601359150808211156189ea578283fd5b506189f786828701618221565b9150509250925092565b600080600080600060a08688031215618a18578283fd5b8535618a238161a11d565b945060208601359350604086013561888a8161a11d565b60006020808385031215618a4c578182fd5b82516001600160401b03811115618a61578283fd5b8301601f81018513618a71578283fd5b8051618a7f61803d8261a088565b8181528381019083850185840285018601891015618a9b578687fd5b8694505b83851015618ac6578051618ab28161a11d565b835260019490940193918501918501618a9f565b50979650505050505050565b600080600060608486031215618ae6578081fd5b83516001600160401b0380821115618afc578283fd5b818601915086601f830112618b0f578283fd5b8151618b1d61803d8261a088565b80828252602080830192508086018b828387028901011115618b3d578788fd5b8796505b84871015618b5f578051845260019690960195928101928101618b41565b508901519097509350505080821115618b76578283fd5b50618b838682870161827f565b92505061877f8560408601618381565b60008060208385031215618ba5578182fd5b82356001600160401b0380821115618bbb578384fd5b818501915085601f830112618bce578384fd5b813581811115618bdc578485fd5b8660208083028501011115618bef578485fd5b60209290920196919550909350505050565b600080600060608486031215618c15578081fd5b83356001600160401b0380821115618c2b578283fd5b618c37878388016180ee565b94506020860135915080821115618c4c578283fd5b50618c59868287016180ee565b925050604084013590509250925092565b600060208284031215618c7b578081fd5b81356001600160401b03811115618c90578182fd5b6111fb84828501618146565b60008060408385031215618cae578182fd5b82356001600160401b03811115618cc3578283fd5b618ccf85828601618146565b92505060208301356186d78161a11d565b600080600060608486031215618cf4578081fd5b83356001600160401b03811115618d09578182fd5b618d1586828701618146565b9350506020840135618d268161a11d565b91506040840135618d368161a11d565b809150509250925092565b60006020808385031215618d53578182fd5b82516001600160401b03811115618d68578283fd5b8301601f81018513618d78578283fd5b8051618d8661803d8261a088565b8181528381019083850185840285018601891015618da2578687fd5b8694505b83851015618ac6578051835260019490940193918501918501618da6565b600080600060608486031215618dd8578081fd5b83356001600160401b0380821115618dee578283fd5b818601915086601f830112618e01578283fd5b8135618e0f61803d8261a088565b80828252602080830192508086016101808c838288028a01011115618e32578889fd5b8897505b85881015618e5e57618e488d836184ff565b8552600197909701969382019390810190618e36565b50919850890135945050505080821115618e76578283fd5b50618e83868287016181ad565b92505061877f8560408601618009565b600060208284031215618ea4578081fd5b81516001600160401b03811115618eb9578182fd5b6111fb8482850161827f565b600060208284031215618ed6578081fd5b81518015158114613db2578182fd5b600060208284031215618ef6578081fd5b5051919050565b600060208284031215618f0e578081fd5b81516001600160401b03811115618f23578182fd5b6111fb8482850161833b565b600080600060608486031215618f43578081fd5b8335618f4e8161a11d565b925060208401356001600160401b0380821115618f69578283fd5b6189d587838801618146565b600060208284031215618f86578081fd5b8151613db28161a148565b60008060808385031215618fa3578182fd5b8251618fae8161a148565b9150618fbd84602085016183e6565b90509250929050565b60008060008084860360a0811215618fdc578283fd5b6040811215618fe9578283fd5b50618ff4604061a062565b8535815260208601356190068161a11d565b60208201529350604085013561901b8161a11d565b9250606085013561902b8161a11d565b915060808501356001600160401b03811115618927578182fd5b6000806000806080858703121561905a578182fd5b84356001600160401b0380821115619070578384fd5b9086019060408289031215619083578384fd5b61908d604061a062565b6190978984618009565b81526020830135828111156190aa578586fd5b6190b68a828601618096565b602083015250809650506190cd8860208901618009565b94506190dc8860408901618009565b935060608701359150808211156190f1578283fd5b5061893387828801618221565b60008060008060c08587031215619113578182fd5b61911d8686618390565b9350606085013561912d8161a148565b9250608085013561913d8161a148565b915060a08501356001600160401b03811115618927578182fd5b60008060008060a0858703121561916c578182fd5b6191768686618431565b9350604085013561901b8161a11d565b6000806000806080858703121561919b578182fd5b84356001600160401b03808211156191b1578384fd5b6191bd88838901618474565b9550602087013591506191cf8261a11d565b9093506040860135906191e18261a11d565b909250606086013590808211156190f1578283fd5b6000806000806080858703121561920b578182fd5b84356001600160401b03811115619220578283fd5b61922c87828801618474565b945050602085013561896f8161a11d565b60008060008060808587031215619252578182fd5b84356001600160401b03811115619267578283fd5b61927387828801618474565b94505060208501359250604085013561928b8161a11d565b915060608501356187358161a11d565b600080600061022084860312156192b0578081fd5b6192ba85856184ff565b92506192ca8561018086016185ec565b9150610200840135618d368161a11d565b60008060008084860360c08112156192f1578283fd5b60608112156192fe578283fd5b50619309606061a062565b85356193148161a11d565b815260208681013590820152604086013561932e8161a11d565b6040820152935060608501356193438161a11d565b9250608085013561913d8161a11d565b600080600083850360a0811215619368578182fd5b6060811215619375578182fd5b50619380606061a062565b84518152602085015160058110619395578283fd5b602082015260408501516193a88161a157565b604082015260608501519093506193be8161a157565b915061877f85608086016182dd565b6000602082840312156193de578081fd5b815162ffffff81168114613db2578182fd5b60008060408385031215619402578182fd5b505080516020909101519092909150565b60008060008060808587031215619428578182fd5b505082516020840151604085015160609095015191969095509092509050565b600080600080600060a0868803121561945f578283fd5b5050835160208501516040860151606087015160809097015192989197509594509092509050565b6001600160a01b0316815260200190565b600081518352602082015160208401526040820151604084015260608201516060840152608082015160a060808501526111fb60a0850182619554565b6001600160a01b03169052565b6000815180845260208085019450808401835b8381101561951a5781516001600160a01b0316875295820195908201906001016194f5565b509495945050505050565b6000815180845260208085019450808401835b8381101561951a57815187529582019590820190600101619538565b6000815180845261956c81602086016020860161a0e0565b601f01601f19169290920160200192915050565b80516001600160a01b031682526020808201516001600160e01b03199081169184019190915260409182015116910152565b80516001600160a01b039081168352602080830151151590840152604080830151909116908301526060908101511515910152565b6000815183526020820151604060208501526111fb6040850182619554565b600081518352602082015160018060a01b0380821660208601528060408501511660408601528060608501511660608601525050608082015160a060808501526111fb60a0850182619554565b61965e8282516194d5565b602081015161967060208401826194d5565b5060408101516196836040840182619753565b5060608101516196966060840182619753565b5060808101516196a96080840182619753565b5060a08101516196bc60a08401826194d5565b5060c08101516196cf60c08401826194d5565b5060e08101516196e260e08401826194d5565b50610100808201516196f6828501826194d5565b505061012081810151908301526101408082015161971682850182619760565b505061016090810151910152565b805161972f8161a110565b825260208181015160ff169083015260408082015190830152606090810151910152565b6001600160801b03169052565b6001600160401b03169052565b6000828483379101908152919050565b6000825161978f81846020870161a0e0565b9190910192915050565b6001600160a01b0391909116815260200190565b6001600160a01b03929092168252602082015260400190565b6001600160a01b0392831681529116602082015260400190565b6001600160a01b03948516815292841660208401529083166040830152909116606082015260800190565b6001600160a01b03858116825284811660208301528316604082015260806060820181905260009061622590830184619525565b6001600160a01b039485168152928416602084015292166040820152606081019190915260800190565b6001600160a01b039384168152919092166020820152901515604082015260600190565b6001600160a01b03858116825284166020820152821515604082015260806060820181905260009061622590830184619554565b6001600160a01b039384168152919092166020820152604081019190915260600190565b6001600160a01b03868116825285166020820152604081018490526060810183905260a06080820181905260009061991f90830184619554565b979650505050505050565b6001600160a01b038416815260606020820181905260009061994e908301856194e2565b82810360408401526162258185619525565b6001600160a01b038516815260006199778561a0ca565b6020830152608060408301526199906080830185619525565b828103606084015261991f8185619525565b6001600160a01b038981168252600090610100906199bf8b61a0ca565b60208501528160408501526199d68285018b619525565b915083820360608501526199ea828a619525565b908816608085015290506199fd8661a0ca565b60a084015282810360c0840152619a148186619525565b905082810360e0840152619a288185619525565b9b9a5050505050505050505050565b6001600160a01b03831681526040602082018190526000906111fb90830184619606565b600060408252619a6e60408301856194e2565b82810360208401526112698185619525565b600060408252619a9360408301856194e2565b90508260208301529392505050565b60006040820160408352808551808352606085019150602092506060838202860101838801855b83811015619af757605f19888403018552619ae5838351619554565b94860194925090850190600101619ac9565b505085810384870152617a878188619525565b60208082528251828201819052600091906040908185019080840286018301878501865b83811015619b7157888303603f1901855281518051878552619b5288860182619554565b9189015115159489019490945294870194925090860190600101619b2e565b509098975050505050505050565b600060208252613db26020830184619525565b901515815260200190565b83151581526001600160a01b038316602082015260606040820181905260009061126990830184619525565b90815260200190565b60008482526060602083015261994e6060830185619554565b600060208252613db26020830184619554565b600060408252619a936040830185619554565b6001600160a01b03938416815291909216602082015262ffffff909116604082015260600190565b6001600160a01b03831681526040602082018190526000906111fb90830184619525565b60608101619c6a8561a110565b938152602081019290925260409091015290565b6060810160088510619c6a57fe5b600060e08201619c9b8761a0d5565b8352602060e081850152818751619cb28185619bc9565b91508193508281028201838a01865b83811015619ceb578683038552619cd9838351619498565b94860194925090850190600101619cc1565b5050868103604088015280945088519250619d068382619bc9565b94505050818701845b82811015619d3057619d22858351619487565b945090830190600101619d0f565b505050508091505061126960608301846195b2565b600f93840b81529190920b6020820152604081019190915260600190565b600f83900b815260808101613db26020830184619580565b60208082526024908201527f556e6973776170563353616d706c65722f746f6b656e5061746820746f6f20736040820152631a1bdc9d60e21b606082015260800190565b60208082526025908201527f455243323042726964676553616d706c65722f494e56414c49445f544f4b454e6040820152642fa820a4a960d91b606082015260800190565b60208082526025908201527f556e6973776170563353616d706c65722f696e76616c69642070617468206c656040820152646e6774687360d81b606082015260800190565b6020808252601e908201527f4b79626572444d4d53616d706c65722f4e4f5f504f4f4c535f464f554e440000604082015260600190565b6000619e8c8287619580565b84600f0b606083015283600f0b608083015260c060a083015261622560c0830184619525565b600060608252619ec560608301866195e7565b8281036020840152619ed781866195e7565b915050826040830152949350505050565b600060808252619efb6080830187619606565b6001600160a01b0395861660208401529390941660408201526060015292915050565b600060808252619f316080830187619606565b6020830195909552506001600160a01b0392831660408201529116606090910152919050565b6102008101619f668285619653565b613db2610180830184619724565b6102208101619f838286619653565b619f91610180830185619724565b6001600160a01b0392909216610200919091015292915050565b6000838252604060208301526111fb60408301846194e2565b600084825260606020830152619fdd60608301856194e2565b828103604084015261622581856194e2565b958652602086019490945260408501929092526060840152608083015260a082015260c00190565b6000808335601e1984360301811261a02d578283fd5b8301803591506001600160401b0382111561a046578283fd5b60200191503681900382131561a05b57600080fd5b9250929050565b6040518181016001600160401b038111828210171561a08057600080fd5b604052919050565b60006001600160401b0382111561a09d578081fd5b5060209081020190565b60006001600160401b0382111561a0bc578081fd5b50601f01601f191660200190565b8060048110610bac57fe5b8060028110610bac57fe5b60005b8381101561a0fb57818101518382015260200161a0e3565b8381111561a10a576000848401525b50505050565b6004811061a11a57fe5b50565b6001600160a01b038116811461a11a57600080fd5b6001600160e01b03198116811461a11a57600080fd5b80600f0b811461a11a57600080fd5b6001600160801b038116811461a11a57600080fdfea26469706673582212209364a271a210907d3cb43d81a3c2a73ad5a08e539ee16ba6da74f8391a82e6fd64736f6c634300060c0033",
                "opcodes": "PUSH1 0xA0 PUSH1 0x40 MSTORE PUSH32 0xEEEEEEEEEEEEEEEEEEEEEEEEEEEEEEEEEEEEEEEE000000000000000000000000 PUSH1 0x80 MSTORE CALLVALUE DUP1 ISZERO PUSH3 0x35 JUMPI PUSH1 0x0 DUP1 REVERT JUMPDEST POP PUSH1 0x80 MLOAD PUSH1 0x60 SHR PUSH2 0xA1A2 PUSH3 0x5E PUSH1 0x0 CODECOPY DUP1 PUSH2 0x2CC2 MSTORE DUP1 PUSH2 0x478C MSTORE DUP1 PUSH2 0x517F MSTORE POP PUSH2 0xA1A2 PUSH1 0x0 RETURN INVALID PUSH1 0x80 PUSH1 0x40 MSTORE CALLVALUE DUP1 ISZERO PUSH2 0x10 JUMPI PUSH1 0x0 DUP1 REVERT JUMPDEST POP PUSH1 0x4 CALLDATASIZE LT PUSH2 0x2D6 JUMPI PUSH1 0x0 CALLDATALOAD PUSH1 0xE0 SHR DUP1 PUSH4 0x8B6D7B44 GT PUSH2 0x182 JUMPI DUP1 PUSH4 0xBD71ECF6 GT PUSH2 0xE9 JUMPI DUP1 PUSH4 0xDDD5AA28 GT PUSH2 0xA2 JUMPI DUP1 PUSH4 0xF1ED7FA4 GT PUSH2 0x7C JUMPI DUP1 PUSH4 0xF1ED7FA4 EQ PUSH2 0x6F5 JUMPI DUP1 PUSH4 0xF3868E9C EQ PUSH2 0x40E JUMPI DUP1 PUSH4 0xF5A4994D EQ PUSH2 0x708 JUMPI DUP1 PUSH4 0xFC9FE41B EQ PUSH2 0x71B JUMPI PUSH2 0x2D6 JUMP JUMPDEST DUP1 PUSH4 0xDDD5AA28 EQ PUSH2 0x6BC JUMPI DUP1 PUSH4 0xE78AC045 EQ PUSH2 0x6CF JUMPI DUP1 PUSH4 0xE8E4AF09 EQ PUSH2 0x6E2 JUMPI PUSH2 0x2D6 JUMP JUMPDEST DUP1 PUSH4 0xBD71ECF6 EQ PUSH2 0x64A JUMPI DUP1 PUSH4 0xC25C4138 EQ PUSH2 0x65D JUMPI DUP1 PUSH4 0xC8319084 EQ PUSH2 0x670 JUMPI DUP1 PUSH4 0xC8C74A37 EQ PUSH2 0x683 JUMPI DUP1 PUSH4 0xCC1621C9 EQ PUSH2 0x696 JUMPI DUP1 PUSH4 0xD9BCA372 EQ PUSH2 0x6A9 JUMPI PUSH2 0x2D6 JUMP JUMPDEST DUP1 PUSH4 0x9EA0FF13 GT PUSH2 0x13B JUMPI DUP1 PUSH4 0x9EA0FF13 EQ PUSH2 0x5CA JUMPI DUP1 PUSH4 0xA0295B8B EQ PUSH2 0x5DD JUMPI DUP1 PUSH4 0xA4698417 EQ PUSH2 0x5F0 JUMPI DUP1 PUSH4 0xA75E744B EQ PUSH2 0x603 JUMPI DUP1 PUSH4 0xADC636BF EQ PUSH2 0x616 JUMPI DUP1 PUSH4 0xB90CD2FB EQ PUSH2 0x637 JUMPI PUSH2 0x2D6 JUMP JUMPDEST DUP1 PUSH4 0x8B6D7B44 EQ PUSH2 0x52D JUMPI DUP1 PUSH4 0x8E5A0E07 EQ PUSH2 0x540 JUMPI DUP1 PUSH4 0x9209483B EQ PUSH2 0x562 JUMPI DUP1 PUSH4 0x98777748 EQ PUSH2 0x575 JUMPI DUP1 PUSH4 0x9BF3EE35 EQ PUSH2 0x588 JUMPI DUP1 PUSH4 0x9E3F05C3 EQ PUSH2 0x5A8 JUMPI PUSH2 0x2D6 JUMP JUMPDEST DUP1 PUSH4 0x36052391 GT PUSH2 0x241 JUMPI DUP1 PUSH4 0x5AAE4E53 GT PUSH2 0x1FA JUMPI DUP1 PUSH4 0x68BE3CF2 GT PUSH2 0x1D4 JUMPI DUP1 PUSH4 0x68BE3CF2 EQ PUSH2 0x4D4 JUMPI DUP1 PUSH4 0x706E2F9B EQ PUSH2 0x4F4 JUMPI DUP1 PUSH4 0x74C9D255 EQ PUSH2 0x507 JUMPI DUP1 PUSH4 0x7F7F4F13 EQ PUSH2 0x51A JUMPI PUSH2 0x2D6 JUMP JUMPDEST DUP1 PUSH4 0x5AAE4E53 EQ PUSH2 0x49B JUMPI DUP1 PUSH4 0x5D5B674F EQ PUSH2 0x4AE JUMPI DUP1 PUSH4 0x66A1AC6B EQ PUSH2 0x4C1 JUMPI PUSH2 0x2D6 JUMP JUMPDEST DUP1 PUSH4 0x36052391 EQ PUSH2 0x40E JUMPI DUP1 PUSH4 0x40BC03AE EQ PUSH2 0x421 JUMPI DUP1 PUSH4 0x494569DB EQ PUSH2 0x434 JUMPI DUP1 PUSH4 0x4EDFB5B2 EQ PUSH2 0x447 JUMPI DUP1 PUSH4 0x5505000A EQ PUSH2 0x467 JUMPI DUP1 PUSH4 0x57494B1D EQ PUSH2 0x488 JUMPI PUSH2 0x2D6 JUMP JUMPDEST DUP1 PUSH4 0x281E3432 GT PUSH2 0x293 JUMPI DUP1 PUSH4 0x281E3432 EQ PUSH2 0x38D JUMPI DUP1 PUSH4 0x29FA4AA0 EQ PUSH2 0x3A0 JUMPI DUP1 PUSH4 0x2AA64319 EQ PUSH2 0x3B3 JUMPI DUP1 PUSH4 0x2D753AA4 EQ PUSH2 0x3D5 JUMPI DUP1 PUSH4 0x30D6570D EQ PUSH2 0x3E8 JUMPI DUP1 PUSH4 0x3105FEC1 EQ PUSH2 0x3FB JUMPI PUSH2 0x2D6 JUMP JUMPDEST DUP1 PUSH4 0x496D5DC EQ PUSH2 0x2DB JUMPI DUP1 PUSH4 0x1022742B EQ PUSH2 0x305 JUMPI DUP1 PUSH4 0x149DAB0E EQ PUSH2 0x325 JUMPI DUP1 PUSH4 0x16279055 EQ PUSH2 0x347 JUMPI DUP1 PUSH4 0x2339078F EQ PUSH2 0x367 JUMPI DUP1 PUSH4 0x252322B3 EQ PUSH2 0x37A JUMPI JUMPDEST PUSH1 0x0 DUP1 REVERT JUMPDEST PUSH2 0x2EE PUSH2 0x2E9 CALLDATASIZE PUSH1 0x4 PUSH2 0x898F JUMP JUMPDEST PUSH2 0x72E JUMP JUMPDEST PUSH1 0x40 MLOAD PUSH2 0x2FC SWAP3 SWAP2 SWAP1 PUSH2 0x9A5B JUMP JUMPDEST PUSH1 0x40 MLOAD DUP1 SWAP2 SUB SWAP1 RETURN JUMPDEST PUSH2 0x318 PUSH2 0x313 CALLDATASIZE PUSH1 0x4 PUSH2 0x8DC4 JUMP JUMPDEST PUSH2 0x8D4 JUMP JUMPDEST PUSH1 0x40 MLOAD PUSH2 0x2FC SWAP2 SWAP1 PUSH2 0x9B7F JUMP JUMPDEST PUSH2 0x338 PUSH2 0x333 CALLDATASIZE PUSH1 0x4 PUSH2 0x9045 JUMP JUMPDEST PUSH2 0xA47 JUMP JUMPDEST PUSH1 0x40 MLOAD PUSH2 0x2FC SWAP4 SWAP3 SWAP2 SWAP1 PUSH2 0x992A JUMP JUMPDEST PUSH2 0x35A PUSH2 0x355 CALLDATASIZE PUSH1 0x4 PUSH2 0x8671 JUMP JUMPDEST PUSH2 0xBA7 JUMP JUMPDEST PUSH1 0x40 MLOAD PUSH2 0x2FC SWAP2 SWAP1 PUSH2 0x9B92 JUMP JUMPDEST PUSH2 0x318 PUSH2 0x375 CALLDATASIZE PUSH1 0x4 PUSH2 0x8FC6 JUMP JUMPDEST PUSH2 0xBB1 JUMP JUMPDEST PUSH2 0x318 PUSH2 0x388 CALLDATASIZE PUSH1 0x4 PUSH2 0x88CD JUMP JUMPDEST PUSH2 0xDD8 JUMP JUMPDEST PUSH2 0x318 PUSH2 0x39B CALLDATASIZE PUSH1 0x4 PUSH2 0x92DB JUMP JUMPDEST PUSH2 0xFAE JUMP JUMPDEST PUSH2 0x318 PUSH2 0x3AE CALLDATASIZE PUSH1 0x4 PUSH2 0x90FE JUMP JUMPDEST PUSH2 0x1203 JUMP JUMPDEST PUSH2 0x3C6 PUSH2 0x3C1 CALLDATASIZE PUSH1 0x4 PUSH2 0x9157 JUMP JUMPDEST PUSH2 0x1272 JUMP JUMPDEST PUSH1 0x40 MLOAD PUSH2 0x2FC SWAP4 SWAP3 SWAP2 SWAP1 PUSH2 0x9B9D JUMP JUMPDEST PUSH2 0x318 PUSH2 0x3E3 CALLDATASIZE PUSH1 0x4 PUSH2 0x8848 JUMP JUMPDEST PUSH2 0x154F JUMP JUMPDEST PUSH2 0x318 PUSH2 0x3F6 CALLDATASIZE PUSH1 0x4 PUSH2 0x88CD JUMP JUMPDEST PUSH2 0x16D8 JUMP JUMPDEST PUSH2 0x318 PUSH2 0x409 CALLDATASIZE PUSH1 0x4 PUSH2 0x898F JUMP JUMPDEST PUSH2 0x184C JUMP JUMPDEST PUSH2 0x318 PUSH2 0x41C CALLDATASIZE PUSH1 0x4 PUSH2 0x9157 JUMP JUMPDEST PUSH2 0x19D0 JUMP JUMPDEST PUSH2 0x318 PUSH2 0x42F CALLDATASIZE PUSH1 0x4 PUSH2 0x90FE JUMP JUMPDEST PUSH2 0x1A62 JUMP JUMPDEST PUSH2 0x2EE PUSH2 0x442 CALLDATASIZE PUSH1 0x4 PUSH2 0x898F JUMP JUMPDEST PUSH2 0x1BE3 JUMP JUMPDEST PUSH2 0x45A PUSH2 0x455 CALLDATASIZE PUSH1 0x4 PUSH2 0x923D JUMP JUMPDEST PUSH2 0x1D6F JUMP JUMPDEST PUSH1 0x40 MLOAD PUSH2 0x2FC SWAP2 SWAP1 PUSH2 0x9BEB JUMP JUMPDEST PUSH2 0x47A PUSH2 0x475 CALLDATASIZE PUSH1 0x4 PUSH2 0x8F2F JUMP JUMPDEST PUSH2 0x1FEC JUMP JUMPDEST PUSH1 0x40 MLOAD PUSH2 0x2FC SWAP3 SWAP2 SWAP1 PUSH2 0x9AA2 JUMP JUMPDEST PUSH2 0x318 PUSH2 0x496 CALLDATASIZE PUSH1 0x4 PUSH2 0x88CD JUMP JUMPDEST PUSH2 0x2237 JUMP JUMPDEST PUSH2 0x47A PUSH2 0x4A9 CALLDATASIZE PUSH1 0x4 PUSH2 0x8F2F JUMP JUMPDEST PUSH2 0x27AE JUMP JUMPDEST PUSH2 0x318 PUSH2 0x4BC CALLDATASIZE PUSH1 0x4 PUSH2 0x88CD JUMP JUMPDEST PUSH2 0x29F3 JUMP JUMPDEST PUSH2 0x318 PUSH2 0x4CF CALLDATASIZE PUSH1 0x4 PUSH2 0x8DC4 JUMP JUMPDEST PUSH2 0x2A59 JUMP JUMPDEST PUSH2 0x4E7 PUSH2 0x4E2 CALLDATASIZE PUSH1 0x4 PUSH2 0x8B93 JUMP JUMPDEST PUSH2 0x2B0E JUMP JUMPDEST PUSH1 0x40 MLOAD PUSH2 0x2FC SWAP2 SWAP1 PUSH2 0x9B0A JUMP JUMPDEST PUSH2 0x318 PUSH2 0x502 CALLDATASIZE PUSH1 0x4 PUSH2 0x8C6A JUMP JUMPDEST PUSH2 0x2C6F JUMP JUMPDEST PUSH2 0x338 PUSH2 0x515 CALLDATASIZE PUSH1 0x4 PUSH2 0x9045 JUMP JUMPDEST PUSH2 0x2D61 JUMP JUMPDEST PUSH2 0x318 PUSH2 0x528 CALLDATASIZE PUSH1 0x4 PUSH2 0x92DB JUMP JUMPDEST PUSH2 0x2D70 JUMP JUMPDEST PUSH2 0x318 PUSH2 0x53B CALLDATASIZE PUSH1 0x4 PUSH2 0x90FE JUMP JUMPDEST PUSH2 0x2FBD JUMP JUMPDEST PUSH2 0x553 PUSH2 0x54E CALLDATASIZE PUSH1 0x4 PUSH2 0x8C01 JUMP JUMPDEST PUSH2 0x3320 JUMP JUMPDEST PUSH1 0x40 MLOAD PUSH2 0x2FC SWAP4 SWAP3 SWAP2 SWAP1 PUSH2 0x9EB2 JUMP JUMPDEST PUSH2 0x318 PUSH2 0x570 CALLDATASIZE PUSH1 0x4 PUSH2 0x90FE JUMP JUMPDEST PUSH2 0x3539 JUMP JUMPDEST PUSH2 0x318 PUSH2 0x583 CALLDATASIZE PUSH1 0x4 PUSH2 0x88CD JUMP JUMPDEST PUSH2 0x3739 JUMP JUMPDEST PUSH2 0x59B PUSH2 0x596 CALLDATASIZE PUSH1 0x4 PUSH2 0x929B JUMP JUMPDEST PUSH2 0x3C72 JUMP JUMPDEST PUSH1 0x40 MLOAD PUSH2 0x2FC SWAP2 SWAP1 PUSH2 0x9BC9 JUMP JUMPDEST PUSH2 0x5BB PUSH2 0x5B6 CALLDATASIZE PUSH1 0x4 PUSH2 0x9186 JUMP JUMPDEST PUSH2 0x3DB9 JUMP JUMPDEST PUSH1 0x40 MLOAD PUSH2 0x2FC SWAP4 SWAP3 SWAP2 SWAP1 PUSH2 0x9BD2 JUMP JUMPDEST PUSH2 0x59B PUSH2 0x5D8 CALLDATASIZE PUSH1 0x4 PUSH2 0x893F JUMP JUMPDEST PUSH2 0x3EDF JUMP JUMPDEST PUSH2 0x318 PUSH2 0x5EB CALLDATASIZE PUSH1 0x4 PUSH2 0x8FC6 JUMP JUMPDEST PUSH2 0x40F5 JUMP JUMPDEST PUSH2 0x318 PUSH2 0x5FE CALLDATASIZE PUSH1 0x4 PUSH2 0x88CD JUMP JUMPDEST PUSH2 0x42F1 JUMP JUMPDEST PUSH2 0x3C6 PUSH2 0x611 CALLDATASIZE PUSH1 0x4 PUSH2 0x8A01 JUMP JUMPDEST PUSH2 0x4446 JUMP JUMPDEST PUSH2 0x629 PUSH2 0x624 CALLDATASIZE PUSH1 0x4 PUSH2 0x88CD JUMP JUMPDEST PUSH2 0x4583 JUMP JUMPDEST PUSH1 0x40 MLOAD PUSH2 0x2FC SWAP3 SWAP2 SWAP1 PUSH2 0x9C39 JUMP JUMPDEST PUSH2 0x318 PUSH2 0x645 CALLDATASIZE PUSH1 0x4 PUSH2 0x88CD JUMP JUMPDEST PUSH2 0x46D3 JUMP JUMPDEST PUSH2 0x318 PUSH2 0x658 CALLDATASIZE PUSH1 0x4 PUSH2 0x8C9C JUMP JUMPDEST PUSH2 0x4739 JUMP JUMPDEST PUSH2 0x318 PUSH2 0x66B CALLDATASIZE PUSH1 0x4 PUSH2 0x88CD JUMP JUMPDEST PUSH2 0x4835 JUMP JUMPDEST PUSH2 0x318 PUSH2 0x67E CALLDATASIZE PUSH1 0x4 PUSH2 0x88CD JUMP JUMPDEST PUSH2 0x489B JUMP JUMPDEST PUSH2 0x318 PUSH2 0x691 CALLDATASIZE PUSH1 0x4 PUSH2 0x898F JUMP JUMPDEST PUSH2 0x4A58 JUMP JUMPDEST PUSH2 0x5BB PUSH2 0x6A4 CALLDATASIZE PUSH1 0x4 PUSH2 0x9186 JUMP JUMPDEST PUSH2 0x4BC4 JUMP JUMPDEST PUSH2 0x3C6 PUSH2 0x6B7 CALLDATASIZE PUSH1 0x4 PUSH2 0x8A01 JUMP JUMPDEST PUSH2 0x4DAA JUMP JUMPDEST PUSH2 0x3C6 PUSH2 0x6CA CALLDATASIZE PUSH1 0x4 PUSH2 0x9157 JUMP JUMPDEST PUSH2 0x4E99 JUMP JUMPDEST PUSH2 0x318 PUSH2 0x6DD CALLDATASIZE PUSH1 0x4 PUSH2 0x8CE0 JUMP JUMPDEST PUSH2 0x512C JUMP JUMPDEST PUSH2 0x318 PUSH2 0x6F0 CALLDATASIZE PUSH1 0x4 PUSH2 0x88CD JUMP JUMPDEST PUSH2 0x5221 JUMP JUMPDEST PUSH2 0x59B PUSH2 0x703 CALLDATASIZE PUSH1 0x4 PUSH2 0x91F6 JUMP JUMPDEST PUSH2 0x5354 JUMP JUMPDEST PUSH2 0x629 PUSH2 0x716 CALLDATASIZE PUSH1 0x4 PUSH2 0x88CD JUMP JUMPDEST PUSH2 0x54F3 JUMP JUMPDEST PUSH2 0x553 PUSH2 0x729 CALLDATASIZE PUSH1 0x4 PUSH2 0x8C01 JUMP JUMPDEST PUSH2 0x55DF JUMP JUMPDEST DUP1 MLOAD PUSH1 0x60 SWAP1 DUP2 SWAP1 DUP1 PUSH1 0x1 PUSH1 0x1 PUSH1 0x40 SHL SUB DUP2 GT DUP1 ISZERO PUSH2 0x74B JUMPI PUSH1 0x0 DUP1 REVERT JUMPDEST POP PUSH1 0x40 MLOAD SWAP1 DUP1 DUP3 MSTORE DUP1 PUSH1 0x20 MUL PUSH1 0x20 ADD DUP3 ADD PUSH1 0x40 MSTORE DUP1 ISZERO PUSH2 0x775 JUMPI DUP2 PUSH1 0x20 ADD PUSH1 0x20 DUP3 MUL DUP1 CALLDATASIZE DUP4 CALLDATACOPY ADD SWAP1 POP JUMPDEST POP SWAP2 POP PUSH2 0x782 DUP7 DUP7 PUSH2 0x57F4 JUMP JUMPDEST SWAP3 POP DUP3 MLOAD PUSH1 0x0 EQ ISZERO PUSH2 0x794 JUMPI POP PUSH2 0x8CC JUMP JUMPDEST PUSH1 0x0 JUMPDEST DUP2 DUP2 LT ISZERO PUSH2 0x8C9 JUMPI DUP7 PUSH1 0x1 PUSH1 0x1 PUSH1 0xA0 SHL SUB AND PUSH4 0xA8312B1D PUSH3 0x249F0 DUP8 DUP5 DUP2 MLOAD DUP2 LT PUSH2 0x7BE JUMPI INVALID JUMPDEST PUSH1 0x20 MUL PUSH1 0x20 ADD ADD MLOAD DUP8 DUP11 PUSH1 0x40 MLOAD DUP6 PUSH4 0xFFFFFFFF AND PUSH1 0xE0 SHL DUP2 MSTORE PUSH1 0x4 ADD PUSH2 0x7E6 SWAP4 SWAP3 SWAP2 SWAP1 PUSH2 0x9FC4 JUMP JUMPDEST PUSH1 0x0 PUSH1 0x40 MLOAD DUP1 DUP4 SUB DUP2 DUP8 DUP1 EXTCODESIZE ISZERO DUP1 ISZERO PUSH2 0x7FE JUMPI PUSH1 0x0 DUP1 REVERT JUMPDEST POP DUP7 STATICCALL SWAP4 POP POP POP POP DUP1 ISZERO PUSH2 0x834 JUMPI POP PUSH1 0x40 MLOAD RETURNDATASIZE PUSH1 0x0 DUP3 RETURNDATACOPY PUSH1 0x1F RETURNDATASIZE SWAP1 DUP2 ADD PUSH1 0x1F NOT AND DUP3 ADD PUSH1 0x40 MSTORE PUSH2 0x831 SWAP2 SWAP1 DUP2 ADD SWAP1 PUSH2 0x8E93 JUMP JUMPDEST PUSH1 0x1 JUMPDEST PUSH2 0x86E JUMPI RETURNDATASIZE DUP1 DUP1 ISZERO PUSH2 0x862 JUMPI PUSH1 0x40 MLOAD SWAP2 POP PUSH1 0x1F NOT PUSH1 0x3F RETURNDATASIZE ADD AND DUP3 ADD PUSH1 0x40 MSTORE RETURNDATASIZE DUP3 MSTORE RETURNDATASIZE PUSH1 0x0 PUSH1 0x20 DUP5 ADD RETURNDATACOPY PUSH2 0x867 JUMP JUMPDEST PUSH1 0x60 SWAP2 POP JUMPDEST POP POP PUSH2 0x8C9 JUMP JUMPDEST DUP1 PUSH1 0x1 DUP9 MLOAD SUB DUP2 MLOAD DUP2 LT PUSH2 0x87E JUMPI INVALID JUMPDEST PUSH1 0x20 MUL PUSH1 0x20 ADD ADD MLOAD DUP5 DUP4 DUP2 MLOAD DUP2 LT PUSH2 0x892 JUMPI INVALID JUMPDEST PUSH1 0x20 MUL PUSH1 0x20 ADD ADD DUP2 DUP2 MSTORE POP POP DUP4 DUP3 DUP2 MLOAD DUP2 LT PUSH2 0x8AA JUMPI INVALID JUMPDEST PUSH1 0x20 MUL PUSH1 0x20 ADD ADD MLOAD PUSH1 0x0 EQ ISZERO PUSH2 0x8C0 JUMPI POP PUSH2 0x8C9 JUMP JUMPDEST POP PUSH1 0x1 ADD PUSH2 0x797 JUMP JUMPDEST POP POP JUMPDEST SWAP4 POP SWAP4 SWAP2 POP POP JUMP JUMPDEST PUSH1 0x60 DUP4 MLOAD PUSH1 0x1 PUSH1 0x1 PUSH1 0x40 SHL SUB DUP2 GT DUP1 ISZERO PUSH2 0x8ED JUMPI PUSH1 0x0 DUP1 REVERT JUMPDEST POP PUSH1 0x40 MLOAD SWAP1 DUP1 DUP3 MSTORE DUP1 PUSH1 0x20 MUL PUSH1 0x20 ADD DUP3 ADD PUSH1 0x40 MSTORE DUP1 ISZERO PUSH2 0x917 JUMPI DUP2 PUSH1 0x20 ADD PUSH1 0x20 DUP3 MUL DUP1 CALLDATASIZE DUP4 CALLDATACOPY ADD SWAP1 POP JUMPDEST POP SWAP1 POP PUSH1 0x0 JUMPDEST DUP5 MLOAD DUP2 EQ PUSH2 0xA3F JUMPI ADDRESS PUSH1 0x1 PUSH1 0x1 PUSH1 0xA0 SHL SUB AND PUSH4 0x9BF3EE35 PUSH3 0x30D40 DUP8 DUP5 DUP2 MLOAD DUP2 LT PUSH2 0x944 JUMPI INVALID JUMPDEST PUSH1 0x20 MUL PUSH1 0x20 ADD ADD MLOAD DUP8 DUP6 DUP2 MLOAD DUP2 LT PUSH2 0x958 JUMPI INVALID JUMPDEST PUSH1 0x20 MUL PUSH1 0x20 ADD ADD MLOAD DUP8 PUSH1 0x40 MLOAD DUP6 PUSH4 0xFFFFFFFF AND PUSH1 0xE0 SHL DUP2 MSTORE PUSH1 0x4 ADD PUSH2 0x97F SWAP4 SWAP3 SWAP2 SWAP1 PUSH2 0x9F74 JUMP JUMPDEST PUSH1 0x20 PUSH1 0x40 MLOAD DUP1 DUP4 SUB DUP2 DUP8 DUP1 EXTCODESIZE ISZERO DUP1 ISZERO PUSH2 0x997 JUMPI PUSH1 0x0 DUP1 REVERT JUMPDEST POP DUP7 STATICCALL SWAP4 POP POP POP POP DUP1 ISZERO PUSH2 0x9C8 JUMPI POP PUSH1 0x40 DUP1 MLOAD PUSH1 0x1F RETURNDATASIZE SWAP1 DUP2 ADD PUSH1 0x1F NOT AND DUP3 ADD SWAP1 SWAP3 MSTORE PUSH2 0x9C5 SWAP2 DUP2 ADD SWAP1 PUSH2 0x8EE5 JUMP JUMPDEST PUSH1 0x1 JUMPDEST PUSH2 0xA1C JUMPI RETURNDATASIZE DUP1 DUP1 ISZERO PUSH2 0x9F6 JUMPI PUSH1 0x40 MLOAD SWAP2 POP PUSH1 0x1F NOT PUSH1 0x3F RETURNDATASIZE ADD AND DUP3 ADD PUSH1 0x40 MSTORE RETURNDATASIZE DUP3 MSTORE RETURNDATASIZE PUSH1 0x0 PUSH1 0x20 DUP5 ADD RETURNDATACOPY PUSH2 0x9FB JUMP JUMPDEST PUSH1 0x60 SWAP2 POP JUMPDEST POP PUSH1 0x0 DUP4 DUP4 DUP2 MLOAD DUP2 LT PUSH2 0xA0A JUMPI INVALID JUMPDEST PUSH1 0x20 MUL PUSH1 0x20 ADD ADD DUP2 DUP2 MSTORE POP POP POP PUSH2 0xA37 JUMP JUMPDEST DUP1 DUP4 DUP4 DUP2 MLOAD DUP2 LT PUSH2 0xA29 JUMPI INVALID JUMPDEST PUSH1 0x20 MUL PUSH1 0x20 ADD ADD DUP2 DUP2 MSTORE POP POP POP JUMPDEST PUSH1 0x1 ADD PUSH2 0x91D JUMP JUMPDEST POP SWAP4 SWAP3 POP POP POP JUMP JUMPDEST PUSH1 0x0 PUSH1 0x60 DUP1 DUP7 PUSH1 0x20 ADD MLOAD MLOAD PUSH1 0x0 EQ ISZERO PUSH2 0xA5F JUMPI PUSH2 0xB9D JUMP JUMPDEST PUSH2 0xA6B DUP8 DUP8 DUP8 DUP8 PUSH2 0x5AE3 JUMP JUMPDEST DUP6 MLOAD SWAP2 SWAP5 POP SWAP3 POP PUSH1 0x1 PUSH1 0x1 PUSH1 0x40 SHL SUB DUP2 GT DUP1 ISZERO PUSH2 0xA87 JUMPI PUSH1 0x0 DUP1 REVERT JUMPDEST POP PUSH1 0x40 MLOAD SWAP1 DUP1 DUP3 MSTORE DUP1 PUSH1 0x20 MUL PUSH1 0x20 ADD DUP3 ADD PUSH1 0x40 MSTORE DUP1 ISZERO PUSH2 0xAB1 JUMPI DUP2 PUSH1 0x20 ADD PUSH1 0x20 DUP3 MUL DUP1 CALLDATASIZE DUP4 CALLDATACOPY ADD SWAP1 POP JUMPDEST POP SWAP1 POP PUSH1 0x0 JUMPDEST DUP2 MLOAD DUP2 LT ISZERO PUSH2 0xB9B JUMPI DUP4 PUSH1 0x1 PUSH1 0x1 PUSH1 0xA0 SHL SUB AND PUSH4 0x7F9C0ECD PUSH3 0x493E0 DUP6 DUP9 DUP6 DUP2 MLOAD DUP2 LT PUSH2 0xAE0 JUMPI INVALID JUMPDEST PUSH1 0x20 MUL PUSH1 0x20 ADD ADD MLOAD PUSH1 0x40 MLOAD DUP5 PUSH4 0xFFFFFFFF AND PUSH1 0xE0 SHL DUP2 MSTORE PUSH1 0x4 ADD PUSH2 0xB05 SWAP3 SWAP2 SWAP1 PUSH2 0x9A80 JUMP JUMPDEST PUSH1 0x20 PUSH1 0x40 MLOAD DUP1 DUP4 SUB DUP2 DUP8 DUP1 EXTCODESIZE ISZERO DUP1 ISZERO PUSH2 0xB1D JUMPI PUSH1 0x0 DUP1 REVERT JUMPDEST POP DUP7 STATICCALL SWAP4 POP POP POP POP DUP1 ISZERO PUSH2 0xB4E JUMPI POP PUSH1 0x40 DUP1 MLOAD PUSH1 0x1F RETURNDATASIZE SWAP1 DUP2 ADD PUSH1 0x1F NOT AND DUP3 ADD SWAP1 SWAP3 MSTORE PUSH2 0xB4B SWAP2 DUP2 ADD SWAP1 PUSH2 0x8EE5 JUMP JUMPDEST PUSH1 0x1 JUMPDEST PUSH2 0xB57 JUMPI PUSH2 0xB9B JUMP JUMPDEST DUP1 DUP4 DUP4 DUP2 MLOAD DUP2 LT PUSH2 0xB64 JUMPI INVALID JUMPDEST PUSH1 0x20 MUL PUSH1 0x20 ADD ADD DUP2 DUP2 MSTORE POP POP DUP3 DUP3 DUP2 MLOAD DUP2 LT PUSH2 0xB7C JUMPI INVALID JUMPDEST PUSH1 0x20 MUL PUSH1 0x20 ADD ADD MLOAD PUSH1 0x0 EQ ISZERO PUSH2 0xB92 JUMPI POP PUSH2 0xB9B JUMP JUMPDEST POP PUSH1 0x1 ADD PUSH2 0xAB7 JUMP JUMPDEST POP JUMPDEST SWAP5 POP SWAP5 POP SWAP5 SWAP2 POP POP JUMP JUMPDEST DUP1 EXTCODESIZE ISZERO ISZERO JUMPDEST SWAP2 SWAP1 POP JUMP JUMPDEST PUSH1 0x60 PUSH2 0xBBD DUP4 DUP6 PUSH2 0x5D15 JUMP JUMPDEST PUSH1 0x20 DUP6 ADD MLOAD PUSH1 0x40 DUP1 MLOAD PUSH1 0x2 DUP1 DUP3 MSTORE PUSH1 0x60 DUP3 DUP2 ADD SWAP1 SWAP4 MSTORE DUP2 PUSH1 0x20 ADD PUSH1 0x20 DUP3 MUL DUP1 CALLDATASIZE DUP4 CALLDATACOPY ADD SWAP1 POP POP SWAP1 POP DUP6 DUP2 PUSH1 0x0 DUP2 MLOAD DUP2 LT PUSH2 0xBF3 JUMPI INVALID JUMPDEST PUSH1 0x20 MUL PUSH1 0x20 ADD ADD SWAP1 PUSH1 0x1 PUSH1 0x1 PUSH1 0xA0 SHL SUB AND SWAP1 DUP2 PUSH1 0x1 PUSH1 0x1 PUSH1 0xA0 SHL SUB AND DUP2 MSTORE POP POP DUP5 DUP2 PUSH1 0x1 DUP2 MLOAD DUP2 LT PUSH2 0xC21 JUMPI INVALID JUMPDEST PUSH1 0x1 PUSH1 0x1 PUSH1 0xA0 SHL SUB SWAP1 SWAP3 AND PUSH1 0x20 SWAP3 DUP4 MUL SWAP2 SWAP1 SWAP2 ADD SWAP1 SWAP2 ADD MSTORE DUP4 MLOAD DUP1 PUSH1 0x1 PUSH1 0x1 PUSH1 0x40 SHL SUB DUP2 GT DUP1 ISZERO PUSH2 0xC51 JUMPI PUSH1 0x0 DUP1 REVERT JUMPDEST POP PUSH1 0x40 MLOAD SWAP1 DUP1 DUP3 MSTORE DUP1 PUSH1 0x20 MUL PUSH1 0x20 ADD DUP3 ADD PUSH1 0x40 MSTORE DUP1 ISZERO PUSH2 0xC7B JUMPI DUP2 PUSH1 0x20 ADD PUSH1 0x20 DUP3 MUL DUP1 CALLDATASIZE DUP4 CALLDATACOPY ADD SWAP1 POP JUMPDEST POP SWAP4 POP PUSH2 0xC86 PUSH2 0x7EA5 JUMP JUMPDEST PUSH2 0xC8E PUSH2 0x5D4B JUMP JUMPDEST SWAP1 POP PUSH1 0x0 JUMPDEST DUP3 DUP2 LT ISZERO PUSH2 0xDCB JUMPI PUSH1 0x60 PUSH2 0xCBA DUP12 DUP10 DUP5 DUP2 MLOAD DUP2 LT PUSH2 0xCAD JUMPI INVALID JUMPDEST PUSH1 0x20 MUL PUSH1 0x20 ADD ADD MLOAD PUSH2 0x5D7A JUMP JUMPDEST PUSH1 0x40 MLOAD PUSH4 0x7C268337 PUSH1 0xE1 SHL DUP2 MSTORE SWAP1 SWAP2 POP PUSH1 0x1 PUSH1 0x1 PUSH1 0xA0 SHL SUB DUP8 AND SWAP1 PUSH4 0xF84D066E SWAP1 PUSH2 0xCF0 SWAP1 PUSH1 0x0 SWAP1 DUP6 SWAP1 DUP11 SWAP1 DUP10 SWAP1 PUSH1 0x4 ADD PUSH2 0x9C8C JUMP JUMPDEST PUSH1 0x0 PUSH1 0x40 MLOAD DUP1 DUP4 SUB DUP2 PUSH1 0x0 DUP8 DUP1 EXTCODESIZE ISZERO DUP1 ISZERO PUSH2 0xD0A JUMPI PUSH1 0x0 DUP1 REVERT JUMPDEST POP GAS CALL SWAP3 POP POP POP DUP1 ISZERO PUSH2 0xD3F JUMPI POP PUSH1 0x40 MLOAD RETURNDATASIZE PUSH1 0x0 DUP3 RETURNDATACOPY PUSH1 0x1F RETURNDATASIZE SWAP1 DUP2 ADD PUSH1 0x1F NOT AND DUP3 ADD PUSH1 0x40 MSTORE PUSH2 0xD3C SWAP2 SWAP1 DUP2 ADD SWAP1 PUSH2 0x8D41 JUMP JUMPDEST PUSH1 0x1 JUMPDEST PUSH2 0xD7A JUMPI RETURNDATASIZE DUP1 DUP1 ISZERO PUSH2 0xD6D JUMPI PUSH1 0x40 MLOAD SWAP2 POP PUSH1 0x1F NOT PUSH1 0x3F RETURNDATASIZE ADD AND DUP3 ADD PUSH1 0x40 MSTORE RETURNDATASIZE DUP3 MSTORE RETURNDATASIZE PUSH1 0x0 PUSH1 0x20 DUP5 ADD RETURNDATACOPY PUSH2 0xD72 JUMP JUMPDEST PUSH1 0x60 SWAP2 POP JUMPDEST POP POP POP PUSH2 0xDCB JUMP JUMPDEST PUSH1 0x0 DUP2 PUSH1 0x1 DUP2 MLOAD DUP2 LT PUSH2 0xD89 JUMPI INVALID JUMPDEST PUSH1 0x20 MUL PUSH1 0x20 ADD ADD MLOAD PUSH1 0x0 NOT MUL SWAP1 POP PUSH1 0x0 DUP2 SGT PUSH2 0xDA7 JUMPI POP POP POP PUSH2 0xDCB JUMP JUMPDEST DUP1 DUP10 DUP6 DUP2 MLOAD DUP2 LT PUSH2 0xDB4 JUMPI INVALID JUMPDEST PUSH1 0x20 MUL PUSH1 0x20 ADD ADD DUP2 DUP2 MSTORE POP POP POP POP POP PUSH1 0x1 ADD PUSH2 0xC93 JUMP JUMPDEST POP POP POP POP POP SWAP5 SWAP4 POP POP POP POP JUMP JUMPDEST PUSH1 0x60 PUSH2 0xDE4 DUP4 DUP6 PUSH2 0x5D15 JUMP JUMPDEST DUP2 MLOAD DUP1 PUSH1 0x1 PUSH1 0x1 PUSH1 0x40 SHL SUB DUP2 GT DUP1 ISZERO PUSH2 0xDFC JUMPI PUSH1 0x0 DUP1 REVERT JUMPDEST POP PUSH1 0x40 MLOAD SWAP1 DUP1 DUP3 MSTORE DUP1 PUSH1 0x20 MUL PUSH1 0x20 ADD DUP3 ADD PUSH1 0x40 MSTORE DUP1 ISZERO PUSH2 0xE26 JUMPI DUP2 PUSH1 0x20 ADD PUSH1 0x20 DUP3 MUL DUP1 CALLDATASIZE DUP4 CALLDATACOPY ADD SWAP1 POP JUMPDEST POP SWAP2 POP PUSH1 0x0 PUSH1 0x1 PUSH1 0x1 PUSH1 0xA0 SHL SUB DUP7 AND ISZERO PUSH2 0xE49 JUMPI PUSH2 0xE44 DUP8 DUP8 PUSH2 0x5E0C JUMP JUMPDEST PUSH2 0xE4C JUMP JUMPDEST PUSH1 0x0 JUMPDEST SWAP1 POP PUSH1 0x0 PUSH1 0x1 PUSH1 0x1 PUSH1 0xA0 SHL SUB DUP7 AND ISZERO PUSH2 0xE6E JUMPI PUSH2 0xE69 DUP9 DUP8 PUSH2 0x5E0C JUMP JUMPDEST PUSH2 0xE71 JUMP JUMPDEST PUSH1 0x0 JUMPDEST SWAP1 POP PUSH1 0x0 JUMPDEST DUP4 DUP2 LT ISZERO PUSH2 0xFA2 JUMPI PUSH1 0x1 PUSH1 0x1 PUSH1 0x1 PUSH1 0xA0 SHL SUB DUP9 AND PUSH2 0xED4 JUMPI PUSH2 0xEB3 DUP5 PUSH4 0x2640F62C PUSH1 0xE0 SHL DUP10 DUP6 DUP2 MLOAD DUP2 LT PUSH2 0xEA6 JUMPI INVALID JUMPDEST PUSH1 0x20 MUL PUSH1 0x20 ADD ADD MLOAD PUSH2 0x5E8B JUMP JUMPDEST DUP8 DUP5 DUP2 MLOAD DUP2 LT PUSH2 0xEBF JUMPI INVALID JUMPDEST PUSH1 0x20 MUL PUSH1 0x20 ADD ADD DUP2 SWAP4 POP DUP3 DUP2 MSTORE POP POP POP PUSH2 0xF6E JUMP JUMPDEST PUSH1 0x1 PUSH1 0x1 PUSH1 0xA0 SHL SUB DUP10 AND PUSH2 0xEFA JUMPI PUSH2 0xEB3 DUP4 PUSH4 0x59E94862 PUSH1 0xE0 SHL DUP10 DUP6 DUP2 MLOAD DUP2 LT PUSH2 0xEA6 JUMPI INVALID JUMPDEST PUSH1 0x0 PUSH2 0xF14 DUP5 PUSH4 0x59E94862 PUSH1 0xE0 SHL DUP11 DUP7 DUP2 MLOAD DUP2 LT PUSH2 0xEA6 JUMPI INVALID JUMPDEST SWAP3 POP SWAP1 POP DUP1 ISZERO PUSH2 0xF51 JUMPI PUSH2 0xF30 DUP6 PUSH4 0x9903D8B PUSH1 0xE2 SHL DUP4 PUSH2 0x5E8B JUMP JUMPDEST DUP9 DUP6 DUP2 MLOAD DUP2 LT PUSH2 0xF3C JUMPI INVALID JUMPDEST PUSH1 0x20 MUL PUSH1 0x20 ADD ADD DUP2 SWAP5 POP DUP3 DUP2 MSTORE POP POP POP PUSH2 0xF6C JUMP JUMPDEST PUSH1 0x0 DUP8 DUP5 DUP2 MLOAD DUP2 LT PUSH2 0xF5F JUMPI INVALID JUMPDEST PUSH1 0x20 MUL PUSH1 0x20 ADD ADD DUP2 DUP2 MSTORE POP POP JUMPDEST POP JUMPDEST DUP1 ISZERO DUP1 PUSH2 0xF8E JUMPI POP DUP6 DUP3 DUP2 MLOAD DUP2 LT PUSH2 0xF82 JUMPI INVALID JUMPDEST PUSH1 0x20 MUL PUSH1 0x20 ADD ADD MLOAD PUSH1 0x0 EQ JUMPDEST ISZERO PUSH2 0xF99 JUMPI POP PUSH2 0xFA2 JUMP JUMPDEST POP PUSH1 0x1 ADD PUSH2 0xE76 JUMP JUMPDEST POP POP POP POP SWAP5 SWAP4 POP POP POP POP JUMP JUMPDEST PUSH1 0x60 PUSH2 0xFBA DUP4 DUP6 PUSH2 0x5D15 JUMP JUMPDEST PUSH1 0x0 DUP6 PUSH1 0x0 ADD MLOAD SWAP1 POP PUSH1 0x0 DUP2 PUSH1 0x1 PUSH1 0x1 PUSH1 0xA0 SHL SUB AND PUSH4 0x36569E77 PUSH1 0x40 MLOAD DUP2 PUSH4 0xFFFFFFFF AND PUSH1 0xE0 SHL DUP2 MSTORE PUSH1 0x4 ADD PUSH1 0x20 PUSH1 0x40 MLOAD DUP1 DUP4 SUB DUP2 DUP7 DUP1 EXTCODESIZE ISZERO DUP1 ISZERO PUSH2 0xFFE JUMPI PUSH1 0x0 DUP1 REVERT JUMPDEST POP GAS STATICCALL ISZERO DUP1 ISZERO PUSH2 0x1012 JUMPI RETURNDATASIZE PUSH1 0x0 DUP1 RETURNDATACOPY RETURNDATASIZE PUSH1 0x0 REVERT JUMPDEST POP POP POP POP PUSH1 0x40 MLOAD RETURNDATASIZE PUSH1 0x1F NOT PUSH1 0x1F DUP3 ADD AND DUP3 ADD DUP1 PUSH1 0x40 MSTORE POP DUP2 ADD SWAP1 PUSH2 0x1036 SWAP2 SWAP1 PUSH2 0x868D JUMP JUMPDEST DUP5 MLOAD SWAP1 SWAP2 POP DUP1 PUSH1 0x1 PUSH1 0x1 PUSH1 0x40 SHL SUB DUP2 GT DUP1 ISZERO PUSH2 0x1051 JUMPI PUSH1 0x0 DUP1 REVERT JUMPDEST POP PUSH1 0x40 MLOAD SWAP1 DUP1 DUP3 MSTORE DUP1 PUSH1 0x20 MUL PUSH1 0x20 ADD DUP3 ADD PUSH1 0x40 MSTORE DUP1 ISZERO PUSH2 0x107B JUMPI DUP2 PUSH1 0x20 ADD PUSH1 0x20 DUP3 MUL DUP1 CALLDATASIZE DUP4 CALLDATACOPY ADD SWAP1 POP JUMPDEST POP SWAP4 POP DUP3 PUSH1 0x1 PUSH1 0x1 PUSH1 0xA0 SHL SUB AND PUSH4 0xF4B9FA75 PUSH1 0x40 MLOAD DUP2 PUSH4 0xFFFFFFFF AND PUSH1 0xE0 SHL DUP2 MSTORE PUSH1 0x4 ADD PUSH1 0x20 PUSH1 0x40 MLOAD DUP1 DUP4 SUB DUP2 DUP7 DUP1 EXTCODESIZE ISZERO DUP1 ISZERO PUSH2 0x10B7 JUMPI PUSH1 0x0 DUP1 REVERT JUMPDEST POP GAS STATICCALL ISZERO DUP1 ISZERO PUSH2 0x10CB JUMPI RETURNDATASIZE PUSH1 0x0 DUP1 RETURNDATACOPY RETURNDATASIZE PUSH1 0x0 REVERT JUMPDEST POP POP POP POP PUSH1 0x40 MLOAD RETURNDATASIZE PUSH1 0x1F NOT PUSH1 0x1F DUP3 ADD AND DUP3 ADD DUP1 PUSH1 0x40 MSTORE POP DUP2 ADD SWAP1 PUSH2 0x10EF SWAP2 SWAP1 PUSH2 0x868D JUMP JUMPDEST PUSH1 0x1 PUSH1 0x1 PUSH1 0xA0 SHL SUB AND DUP7 PUSH1 0x1 PUSH1 0x1 PUSH1 0xA0 SHL SUB AND EQ ISZERO DUP1 ISZERO PUSH2 0x1192 JUMPI POP DUP3 PUSH1 0x1 PUSH1 0x1 PUSH1 0xA0 SHL SUB AND PUSH4 0xF4B9FA75 PUSH1 0x40 MLOAD DUP2 PUSH4 0xFFFFFFFF AND PUSH1 0xE0 SHL DUP2 MSTORE PUSH1 0x4 ADD PUSH1 0x20 PUSH1 0x40 MLOAD DUP1 DUP4 SUB DUP2 DUP7 DUP1 EXTCODESIZE ISZERO DUP1 ISZERO PUSH2 0x1144 JUMPI PUSH1 0x0 DUP1 REVERT JUMPDEST POP GAS STATICCALL ISZERO DUP1 ISZERO PUSH2 0x1158 JUMPI RETURNDATASIZE PUSH1 0x0 DUP1 RETURNDATACOPY RETURNDATASIZE PUSH1 0x0 REVERT JUMPDEST POP POP POP POP PUSH1 0x40 MLOAD RETURNDATASIZE PUSH1 0x1F NOT PUSH1 0x1F DUP3 ADD AND DUP3 ADD DUP1 PUSH1 0x40 MSTORE POP DUP2 ADD SWAP1 PUSH2 0x117C SWAP2 SWAP1 PUSH2 0x868D JUMP JUMPDEST PUSH1 0x1 PUSH1 0x1 PUSH1 0xA0 SHL SUB AND DUP8 PUSH1 0x1 PUSH1 0x1 PUSH1 0xA0 SHL SUB AND EQ ISZERO JUMPDEST ISZERO PUSH2 0x119F JUMPI POP POP POP PUSH2 0x11FB JUMP JUMPDEST PUSH1 0x0 JUMPDEST DUP2 DUP2 LT ISZERO PUSH2 0xFA2 JUMPI PUSH1 0x0 PUSH2 0x11CD DUP11 DUP10 DUP12 DUP11 DUP7 DUP2 MLOAD DUP2 LT PUSH2 0x11BE JUMPI INVALID JUMPDEST PUSH1 0x20 MUL PUSH1 0x20 ADD ADD MLOAD DUP10 DUP10 PUSH2 0x5F6E JUMP JUMPDEST SWAP1 POP DUP1 PUSH2 0x11DA JUMPI POP PUSH2 0xFA2 JUMP JUMPDEST DUP1 DUP7 DUP4 DUP2 MLOAD DUP2 LT PUSH2 0x11E7 JUMPI INVALID JUMPDEST PUSH1 0x20 SWAP1 DUP2 MUL SWAP2 SWAP1 SWAP2 ADD ADD MSTORE POP PUSH1 0x1 ADD PUSH2 0x11A2 JUMP JUMPDEST SWAP5 SWAP4 POP POP POP POP JUMP JUMPDEST PUSH1 0x40 DUP1 MLOAD PUSH1 0x60 DUP2 DUP2 ADD SWAP1 SWAP3 MSTORE PUSH2 0x1269 SWAP1 DUP1 PUSH2 0x1222 DUP7 DUP10 PUSH1 0x80 DUP5 ADD PUSH2 0x9D63 JUMP JUMPDEST PUSH1 0x40 MLOAD PUSH1 0x20 DUP2 DUP4 SUB SUB DUP2 MSTORE SWAP1 PUSH1 0x40 MSTORE DUP2 MSTORE PUSH1 0x20 ADD DUP7 DUP9 PUSH1 0x40 MLOAD PUSH1 0x20 ADD PUSH2 0x1249 SWAP3 SWAP2 SWAP1 PUSH2 0x9D63 JUMP JUMPDEST PUSH1 0x40 MLOAD PUSH1 0x20 DUP2 DUP4 SUB SUB DUP2 MSTORE SWAP1 PUSH1 0x40 MSTORE DUP2 MSTORE PUSH1 0x20 ADD PUSH2 0x622F DUP2 MSTORE POP DUP4 PUSH2 0x6362 JUMP JUMPDEST SWAP6 SWAP5 POP POP POP POP POP JUMP JUMPDEST PUSH1 0x0 DUP1 PUSH1 0x60 PUSH2 0x1281 DUP6 DUP8 PUSH2 0x5D15 JUMP JUMPDEST DUP4 MLOAD DUP1 PUSH1 0x1 PUSH1 0x1 PUSH1 0x40 SHL SUB DUP2 GT DUP1 ISZERO PUSH2 0x1299 JUMPI PUSH1 0x0 DUP1 REVERT JUMPDEST POP PUSH1 0x40 MLOAD SWAP1 DUP1 DUP3 MSTORE DUP1 PUSH1 0x20 MUL PUSH1 0x20 ADD DUP3 ADD PUSH1 0x40 MSTORE DUP1 ISZERO PUSH2 0x12C3 JUMPI DUP2 PUSH1 0x20 ADD PUSH1 0x20 DUP3 MUL DUP1 CALLDATASIZE DUP4 CALLDATACOPY ADD SWAP1 POP JUMPDEST POP DUP9 MLOAD PUSH1 0x40 MLOAD PUSH4 0x939D863 PUSH1 0xE1 SHL DUP2 MSTORE SWAP2 SWAP4 POP PUSH1 0x1 PUSH1 0x1 PUSH1 0xA0 SHL SUB AND SWAP1 PUSH4 0x1273B0C6 SWAP1 PUSH2 0x12F6 SWAP1 DUP11 SWAP1 DUP11 SWAP1 PUSH1 0x4 ADD PUSH2 0x97C6 JUMP JUMPDEST PUSH1 0x20 PUSH1 0x40 MLOAD DUP1 DUP4 SUB DUP2 DUP7 DUP1 EXTCODESIZE ISZERO DUP1 ISZERO PUSH2 0x130E JUMPI PUSH1 0x0 DUP1 REVERT JUMPDEST POP GAS STATICCALL ISZERO DUP1 ISZERO PUSH2 0x1322 JUMPI RETURNDATASIZE PUSH1 0x0 DUP1 RETURNDATACOPY RETURNDATASIZE PUSH1 0x0 REVERT JUMPDEST POP POP POP POP PUSH1 0x40 MLOAD RETURNDATASIZE PUSH1 0x1F NOT PUSH1 0x1F DUP3 ADD AND DUP3 ADD DUP1 PUSH1 0x40 MSTORE POP DUP2 ADD SWAP1 PUSH2 0x1346 SWAP2 SWAP1 PUSH2 0x868D JUMP JUMPDEST SWAP3 POP PUSH1 0x0 PUSH1 0x1 PUSH1 0x1 PUSH1 0xA0 SHL SUB DUP5 AND ISZERO PUSH2 0x1364 JUMPI POP PUSH1 0x1 SWAP4 POP DUP7 PUSH2 0x1403 JUMP JUMPDEST DUP9 MLOAD PUSH1 0x40 MLOAD PUSH4 0x939D863 PUSH1 0xE1 SHL DUP2 MSTORE PUSH1 0x1 PUSH1 0x1 PUSH1 0xA0 SHL SUB SWAP1 SWAP2 AND SWAP1 PUSH4 0x1273B0C6 SWAP1 PUSH2 0x1395 SWAP1 DUP11 SWAP1 DUP13 SWAP1 PUSH1 0x4 ADD PUSH2 0x97C6 JUMP JUMPDEST PUSH1 0x20 PUSH1 0x40 MLOAD DUP1 DUP4 SUB DUP2 DUP7 DUP1 EXTCODESIZE ISZERO DUP1 ISZERO PUSH2 0x13AD JUMPI PUSH1 0x0 DUP1 REVERT JUMPDEST POP GAS STATICCALL ISZERO DUP1 ISZERO PUSH2 0x13C1 JUMPI RETURNDATASIZE PUSH1 0x0 DUP1 RETURNDATACOPY RETURNDATASIZE PUSH1 0x0 REVERT JUMPDEST POP POP POP POP PUSH1 0x40 MLOAD RETURNDATASIZE PUSH1 0x1F NOT PUSH1 0x1F DUP3 ADD AND DUP3 ADD DUP1 PUSH1 0x40 MSTORE POP DUP2 ADD SWAP1 PUSH2 0x13E5 SWAP2 SWAP1 PUSH2 0x868D JUMP JUMPDEST SWAP4 POP PUSH1 0x1 PUSH1 0x1 PUSH1 0xA0 SHL SUB DUP5 AND PUSH2 0x13FC JUMPI POP POP PUSH2 0xB9D JUMP JUMPDEST POP PUSH1 0x0 SWAP4 POP DUP6 JUMPDEST DUP4 PUSH1 0x1 PUSH1 0x1 PUSH1 0xA0 SHL SUB AND PUSH4 0xDD58B41C PUSH1 0x40 MLOAD DUP2 PUSH4 0xFFFFFFFF AND PUSH1 0xE0 SHL DUP2 MSTORE PUSH1 0x4 ADD PUSH1 0x20 PUSH1 0x40 MLOAD DUP1 DUP4 SUB DUP2 DUP7 DUP1 EXTCODESIZE ISZERO DUP1 ISZERO PUSH2 0x143C JUMPI PUSH1 0x0 DUP1 REVERT JUMPDEST POP GAS STATICCALL ISZERO DUP1 ISZERO PUSH2 0x1450 JUMPI RETURNDATASIZE PUSH1 0x0 DUP1 RETURNDATACOPY RETURNDATASIZE PUSH1 0x0 REVERT JUMPDEST POP POP POP POP PUSH1 0x40 MLOAD RETURNDATASIZE PUSH1 0x1F NOT PUSH1 0x1F DUP3 ADD AND DUP3 ADD DUP1 PUSH1 0x40 MSTORE POP DUP2 ADD SWAP1 PUSH2 0x1474 SWAP2 SWAP1 PUSH2 0x8EC5 JUMP JUMPDEST PUSH2 0x147F JUMPI POP POP PUSH2 0xB9D JUMP JUMPDEST PUSH1 0x0 JUMPDEST DUP3 DUP2 LT ISZERO PUSH2 0x1542 JUMPI PUSH1 0x0 PUSH2 0x14FC DUP11 DUP8 DUP6 DUP15 PUSH1 0x20 ADD MLOAD PUSH1 0x40 MLOAD PUSH1 0x20 ADD PUSH2 0x14AA SWAP5 SWAP4 SWAP3 SWAP2 SWAP1 PUSH2 0x97E0 JUMP JUMPDEST PUSH1 0x40 MLOAD PUSH1 0x20 DUP2 DUP4 SUB SUB DUP2 MSTORE SWAP1 PUSH1 0x40 MSTORE DUP11 DUP9 DUP7 DUP16 PUSH1 0x20 ADD MLOAD PUSH1 0x40 MLOAD PUSH1 0x20 ADD PUSH2 0x14D4 SWAP5 SWAP4 SWAP3 SWAP2 SWAP1 PUSH2 0x97E0 JUMP JUMPDEST PUSH1 0x40 MLOAD PUSH1 0x20 DUP2 DUP4 SUB SUB DUP2 MSTORE SWAP1 PUSH1 0x40 MSTORE DUP11 DUP6 DUP2 MLOAD DUP2 LT PUSH2 0x14EF JUMPI INVALID JUMPDEST PUSH1 0x20 MUL PUSH1 0x20 ADD ADD MLOAD PUSH2 0x6574 JUMP JUMPDEST SWAP1 POP DUP1 DUP6 DUP4 DUP2 MLOAD DUP2 LT PUSH2 0x150B JUMPI INVALID JUMPDEST PUSH1 0x20 MUL PUSH1 0x20 ADD ADD DUP2 DUP2 MSTORE POP POP DUP5 DUP3 DUP2 MLOAD DUP2 LT PUSH2 0x1523 JUMPI INVALID JUMPDEST PUSH1 0x20 MUL PUSH1 0x20 ADD ADD MLOAD PUSH1 0x0 EQ ISZERO PUSH2 0x1539 JUMPI POP PUSH2 0x1542 JUMP JUMPDEST POP PUSH1 0x1 ADD PUSH2 0x1482 JUMP JUMPDEST POP POP POP SWAP5 POP SWAP5 POP SWAP5 SWAP2 POP POP JUMP JUMPDEST DUP1 MLOAD PUSH1 0x60 SWAP1 DUP1 PUSH1 0x1 PUSH1 0x1 PUSH1 0x40 SHL SUB DUP2 GT DUP1 ISZERO PUSH2 0x156A JUMPI PUSH1 0x0 DUP1 REVERT JUMPDEST POP PUSH1 0x40 MLOAD SWAP1 DUP1 DUP3 MSTORE DUP1 PUSH1 0x20 MUL PUSH1 0x20 ADD DUP3 ADD PUSH1 0x40 MSTORE DUP1 ISZERO PUSH2 0x1594 JUMPI DUP2 PUSH1 0x20 ADD PUSH1 0x20 DUP3 MUL DUP1 CALLDATASIZE DUP4 CALLDATACOPY ADD SWAP1 POP JUMPDEST POP SWAP2 POP PUSH1 0x1 PUSH1 0x1 PUSH1 0xA0 SHL SUB DUP8 AND PUSH2 0x15AB JUMPI POP PUSH2 0x1269 JUMP JUMPDEST PUSH1 0x0 JUMPDEST DUP2 DUP2 LT ISZERO PUSH2 0x16CD JUMPI PUSH1 0x0 PUSH1 0x60 DUP10 PUSH1 0x1 PUSH1 0x1 PUSH1 0xA0 SHL SUB AND PUSH3 0x61A80 PUSH4 0x6E79E133 PUSH1 0xE0 SHL DUP12 DUP12 DUP12 DUP12 DUP10 DUP2 MLOAD DUP2 LT PUSH2 0x15DF JUMPI INVALID JUMPDEST PUSH1 0x20 MUL PUSH1 0x20 ADD ADD MLOAD PUSH1 0x40 MLOAD PUSH1 0x24 ADD PUSH2 0x15FA SWAP5 SWAP4 SWAP3 SWAP2 SWAP1 PUSH2 0x983F JUMP JUMPDEST PUSH1 0x40 DUP1 MLOAD PUSH1 0x1F NOT DUP2 DUP5 SUB ADD DUP2 MSTORE SWAP2 DUP2 MSTORE PUSH1 0x20 DUP3 ADD DUP1 MLOAD PUSH1 0x1 PUSH1 0x1 PUSH1 0xE0 SHL SUB AND PUSH1 0x1 PUSH1 0x1 PUSH1 0xE0 SHL SUB NOT SWAP1 SWAP5 AND SWAP4 SWAP1 SWAP4 OR SWAP1 SWAP3 MSTORE SWAP1 MLOAD PUSH2 0x1638 SWAP2 SWAP1 PUSH2 0x977D JUMP JUMPDEST PUSH1 0x0 PUSH1 0x40 MLOAD DUP1 DUP4 SUB DUP2 DUP7 DUP7 STATICCALL SWAP3 POP POP POP RETURNDATASIZE DUP1 PUSH1 0x0 DUP2 EQ PUSH2 0x1674 JUMPI PUSH1 0x40 MLOAD SWAP2 POP PUSH1 0x1F NOT PUSH1 0x3F RETURNDATASIZE ADD AND DUP3 ADD PUSH1 0x40 MSTORE RETURNDATASIZE DUP3 MSTORE RETURNDATASIZE PUSH1 0x0 PUSH1 0x20 DUP5 ADD RETURNDATACOPY PUSH2 0x1679 JUMP JUMPDEST PUSH1 0x60 SWAP2 POP JUMPDEST POP SWAP2 POP SWAP2 POP PUSH1 0x0 DUP3 ISZERO PUSH2 0x169D JUMPI DUP2 DUP1 PUSH1 0x20 ADD SWAP1 MLOAD DUP2 ADD SWAP1 PUSH2 0x169A SWAP2 SWAP1 PUSH2 0x8EE5 JUMP JUMPDEST SWAP1 POP JUMPDEST DUP1 PUSH2 0x16AA JUMPI POP POP POP PUSH2 0x16CD JUMP JUMPDEST DUP1 DUP7 DUP6 DUP2 MLOAD DUP2 LT PUSH2 0x16B7 JUMPI INVALID JUMPDEST PUSH1 0x20 SWAP1 DUP2 MUL SWAP2 SWAP1 SWAP2 ADD ADD MSTORE POP POP POP PUSH1 0x1 ADD PUSH2 0x15AE JUMP JUMPDEST POP POP SWAP6 SWAP5 POP POP POP POP POP JUMP JUMPDEST PUSH1 0x60 PUSH2 0x16E4 DUP4 DUP6 PUSH2 0x5D15 JUMP JUMPDEST DUP2 MLOAD DUP1 PUSH1 0x1 PUSH1 0x1 PUSH1 0x40 SHL SUB DUP2 GT DUP1 ISZERO PUSH2 0x16FC JUMPI PUSH1 0x0 DUP1 REVERT JUMPDEST POP PUSH1 0x40 MLOAD SWAP1 DUP1 DUP3 MSTORE DUP1 PUSH1 0x20 MUL PUSH1 0x20 ADD DUP3 ADD PUSH1 0x40 MSTORE DUP1 ISZERO PUSH2 0x1726 JUMPI DUP2 PUSH1 0x20 ADD PUSH1 0x20 DUP3 MUL DUP1 CALLDATASIZE DUP4 CALLDATACOPY ADD SWAP1 POP JUMPDEST POP SWAP2 POP PUSH1 0x0 JUMPDEST DUP2 DUP2 LT ISZERO PUSH2 0x1842 JUMPI DUP7 PUSH1 0x1 PUSH1 0x1 PUSH1 0xA0 SHL SUB AND PUSH4 0x72EA9076 PUSH3 0xC3500 DUP9 DUP9 DUP9 DUP7 DUP2 MLOAD DUP2 LT PUSH2 0x1755 JUMPI INVALID JUMPDEST PUSH1 0x20 MUL PUSH1 0x20 ADD ADD MLOAD PUSH1 0x40 MLOAD DUP6 PUSH4 0xFFFFFFFF AND PUSH1 0xE0 SHL DUP2 MSTORE PUSH1 0x4 ADD PUSH2 0x177B SWAP4 SWAP3 SWAP2 SWAP1 PUSH2 0x98C1 JUMP JUMPDEST PUSH1 0x20 PUSH1 0x40 MLOAD DUP1 DUP4 SUB DUP2 DUP8 DUP1 EXTCODESIZE ISZERO DUP1 ISZERO PUSH2 0x1793 JUMPI PUSH1 0x0 DUP1 REVERT JUMPDEST POP DUP7 STATICCALL SWAP4 POP POP POP POP DUP1 ISZERO PUSH2 0x17C4 JUMPI POP PUSH1 0x40 DUP1 MLOAD PUSH1 0x1F RETURNDATASIZE SWAP1 DUP2 ADD PUSH1 0x1F NOT AND DUP3 ADD SWAP1 SWAP3 MSTORE PUSH2 0x17C1 SWAP2 DUP2 ADD SWAP1 PUSH2 0x8EE5 JUMP JUMPDEST PUSH1 0x1 JUMPDEST PUSH2 0x17FE JUMPI RETURNDATASIZE DUP1 DUP1 ISZERO PUSH2 0x17F2 JUMPI PUSH1 0x40 MLOAD SWAP2 POP PUSH1 0x1F NOT PUSH1 0x3F RETURNDATASIZE ADD AND DUP3 ADD PUSH1 0x40 MSTORE RETURNDATASIZE DUP3 MSTORE RETURNDATASIZE PUSH1 0x0 PUSH1 0x20 DUP5 ADD RETURNDATACOPY PUSH2 0x17F7 JUMP JUMPDEST PUSH1 0x60 SWAP2 POP JUMPDEST POP POP PUSH2 0x1842 JUMP JUMPDEST DUP1 DUP5 DUP4 DUP2 MLOAD DUP2 LT PUSH2 0x180B JUMPI INVALID JUMPDEST PUSH1 0x20 MUL PUSH1 0x20 ADD ADD DUP2 DUP2 MSTORE POP POP DUP4 DUP3 DUP2 MLOAD DUP2 LT PUSH2 0x1823 JUMPI INVALID JUMPDEST PUSH1 0x20 MUL PUSH1 0x20 ADD ADD MLOAD PUSH1 0x0 EQ ISZERO PUSH2 0x1839 JUMPI POP PUSH2 0x1842 JUMP JUMPDEST POP PUSH1 0x1 ADD PUSH2 0x172C JUMP JUMPDEST POP POP SWAP5 SWAP4 POP POP POP POP JUMP JUMPDEST DUP1 MLOAD PUSH1 0x60 SWAP1 DUP1 PUSH1 0x1 PUSH1 0x1 PUSH1 0x40 SHL SUB DUP2 GT DUP1 ISZERO PUSH2 0x1867 JUMPI PUSH1 0x0 DUP1 REVERT JUMPDEST POP PUSH1 0x40 MLOAD SWAP1 DUP1 DUP3 MSTORE DUP1 PUSH1 0x20 MUL PUSH1 0x20 ADD DUP3 ADD PUSH1 0x40 MSTORE DUP1 ISZERO PUSH2 0x1891 JUMPI DUP2 PUSH1 0x20 ADD PUSH1 0x20 DUP3 MUL DUP1 CALLDATASIZE DUP4 CALLDATACOPY ADD SWAP1 POP JUMPDEST POP SWAP2 POP PUSH1 0x0 JUMPDEST DUP2 DUP2 LT ISZERO PUSH2 0x19C7 JUMPI DUP6 PUSH1 0x1 PUSH1 0x1 PUSH1 0xA0 SHL SUB AND PUSH4 0xD06CA61F PUSH3 0x249F0 DUP7 DUP5 DUP2 MLOAD DUP2 LT PUSH2 0x18BE JUMPI INVALID JUMPDEST PUSH1 0x20 MUL PUSH1 0x20 ADD ADD MLOAD DUP9 PUSH1 0x40 MLOAD DUP5 PUSH4 0xFFFFFFFF AND PUSH1 0xE0 SHL DUP2 MSTORE PUSH1 0x4 ADD PUSH2 0x18E4 SWAP3 SWAP2 SWAP1 PUSH2 0x9FAB JUMP JUMPDEST PUSH1 0x0 PUSH1 0x40 MLOAD DUP1 DUP4 SUB DUP2 DUP8 DUP1 EXTCODESIZE ISZERO DUP1 ISZERO PUSH2 0x18FC JUMPI PUSH1 0x0 DUP1 REVERT JUMPDEST POP DUP7 STATICCALL SWAP4 POP POP POP POP DUP1 ISZERO PUSH2 0x1932 JUMPI POP PUSH1 0x40 MLOAD RETURNDATASIZE PUSH1 0x0 DUP3 RETURNDATACOPY PUSH1 0x1F RETURNDATASIZE SWAP1 DUP2 ADD PUSH1 0x1F NOT AND DUP3 ADD PUSH1 0x40 MSTORE PUSH2 0x192F SWAP2 SWAP1 DUP2 ADD SWAP1 PUSH2 0x8E93 JUMP JUMPDEST PUSH1 0x1 JUMPDEST PUSH2 0x196C JUMPI RETURNDATASIZE DUP1 DUP1 ISZERO PUSH2 0x1960 JUMPI PUSH1 0x40 MLOAD SWAP2 POP PUSH1 0x1F NOT PUSH1 0x3F RETURNDATASIZE ADD AND DUP3 ADD PUSH1 0x40 MSTORE RETURNDATASIZE DUP3 MSTORE RETURNDATASIZE PUSH1 0x0 PUSH1 0x20 DUP5 ADD RETURNDATACOPY PUSH2 0x1965 JUMP JUMPDEST PUSH1 0x60 SWAP2 POP JUMPDEST POP POP PUSH2 0x19C7 JUMP JUMPDEST DUP1 PUSH1 0x1 DUP8 MLOAD SUB DUP2 MLOAD DUP2 LT PUSH2 0x197C JUMPI INVALID JUMPDEST PUSH1 0x20 MUL PUSH1 0x20 ADD ADD MLOAD DUP5 DUP4 DUP2 MLOAD DUP2 LT PUSH2 0x1990 JUMPI INVALID JUMPDEST PUSH1 0x20 MUL PUSH1 0x20 ADD ADD DUP2 DUP2 MSTORE POP POP DUP4 DUP3 DUP2 MLOAD DUP2 LT PUSH2 0x19A8 JUMPI INVALID JUMPDEST PUSH1 0x20 MUL PUSH1 0x20 ADD ADD MLOAD PUSH1 0x0 EQ ISZERO PUSH2 0x19BE JUMPI POP PUSH2 0x19C7 JUMP JUMPDEST POP PUSH1 0x1 ADD PUSH2 0x1897 JUMP JUMPDEST POP POP SWAP4 SWAP3 POP POP POP JUMP JUMPDEST PUSH1 0x60 PUSH2 0x19DC DUP4 DUP6 PUSH2 0x5D15 JUMP JUMPDEST DUP5 PUSH1 0x20 ADD MLOAD PUSH1 0x1 PUSH1 0x1 PUSH1 0xA0 SHL SUB AND DUP5 PUSH1 0x1 PUSH1 0x1 PUSH1 0xA0 SHL SUB AND EQ ISZERO DUP1 PUSH2 0x1A0E JUMPI POP DUP5 MLOAD PUSH1 0x1 PUSH1 0x1 PUSH1 0xA0 SHL SUB DUP5 DUP2 AND SWAP2 AND EQ ISZERO JUMPDEST ISZERO PUSH2 0xA3F JUMPI DUP2 MLOAD PUSH1 0x60 DUP2 PUSH1 0x1 PUSH1 0x1 PUSH1 0x40 SHL SUB DUP2 GT DUP1 ISZERO PUSH2 0x1A2D JUMPI PUSH1 0x0 DUP1 REVERT JUMPDEST POP PUSH1 0x40 MLOAD SWAP1 DUP1 DUP3 MSTORE DUP1 PUSH1 0x20 MUL PUSH1 0x20 ADD DUP3 ADD PUSH1 0x40 MSTORE DUP1 ISZERO PUSH2 0x1A57 JUMPI DUP2 PUSH1 0x20 ADD PUSH1 0x20 DUP3 MUL DUP1 CALLDATASIZE DUP4 CALLDATACOPY ADD SWAP1 POP JUMPDEST POP SWAP3 POP PUSH2 0x11FB SWAP2 POP POP JUMP JUMPDEST DUP1 MLOAD PUSH1 0x60 SWAP1 DUP1 PUSH1 0x1 PUSH1 0x1 PUSH1 0x40 SHL SUB DUP2 GT DUP1 ISZERO PUSH2 0x1A7D JUMPI PUSH1 0x0 DUP1 REVERT JUMPDEST POP PUSH1 0x40 MLOAD SWAP1 DUP1 DUP3 MSTORE DUP1 PUSH1 0x20 MUL PUSH1 0x20 ADD DUP3 ADD PUSH1 0x40 MSTORE DUP1 ISZERO PUSH2 0x1AA7 JUMPI DUP2 PUSH1 0x20 ADD PUSH1 0x20 DUP3 MUL DUP1 CALLDATASIZE DUP4 CALLDATACOPY ADD SWAP1 POP JUMPDEST POP SWAP2 POP PUSH1 0x0 JUMPDEST DUP2 DUP2 LT ISZERO PUSH2 0x1842 JUMPI PUSH1 0x0 PUSH1 0x60 DUP9 PUSH1 0x0 ADD MLOAD PUSH1 0x1 PUSH1 0x1 PUSH1 0xA0 SHL SUB AND PUSH3 0x1E8480 DUP11 PUSH1 0x20 ADD MLOAD DUP11 DUP11 DUP11 DUP9 DUP2 MLOAD DUP2 LT PUSH2 0x1ADE JUMPI INVALID JUMPDEST PUSH1 0x20 MUL PUSH1 0x20 ADD ADD MLOAD PUSH1 0x40 MLOAD PUSH1 0x24 ADD PUSH2 0x1AF8 SWAP4 SWAP3 SWAP2 SWAP1 PUSH2 0x9D45 JUMP JUMPDEST PUSH1 0x40 DUP1 MLOAD PUSH1 0x1F NOT DUP2 DUP5 SUB ADD DUP2 MSTORE SWAP2 DUP2 MSTORE PUSH1 0x20 DUP3 ADD DUP1 MLOAD PUSH1 0x1 PUSH1 0x1 PUSH1 0xE0 SHL SUB AND PUSH1 0x1 PUSH1 0x1 PUSH1 0xE0 SHL SUB NOT SWAP1 SWAP5 AND SWAP4 SWAP1 SWAP4 OR SWAP1 SWAP3 MSTORE SWAP1 MLOAD PUSH2 0x1B36 SWAP2 SWAP1 PUSH2 0x977D JUMP JUMPDEST PUSH1 0x0 PUSH1 0x40 MLOAD DUP1 DUP4 SUB DUP2 DUP7 DUP7 STATICCALL SWAP3 POP POP POP RETURNDATASIZE DUP1 PUSH1 0x0 DUP2 EQ PUSH2 0x1B72 JUMPI PUSH1 0x40 MLOAD SWAP2 POP PUSH1 0x1F NOT PUSH1 0x3F RETURNDATASIZE ADD AND DUP3 ADD PUSH1 0x40 MSTORE RETURNDATASIZE DUP3 MSTORE RETURNDATASIZE PUSH1 0x0 PUSH1 0x20 DUP5 ADD RETURNDATACOPY PUSH2 0x1B77 JUMP JUMPDEST PUSH1 0x60 SWAP2 POP JUMPDEST POP SWAP2 POP SWAP2 POP PUSH1 0x0 DUP3 ISZERO PUSH2 0x1B9B JUMPI DUP2 DUP1 PUSH1 0x20 ADD SWAP1 MLOAD DUP2 ADD SWAP1 PUSH2 0x1B98 SWAP2 SWAP1 PUSH2 0x8EE5 JUMP JUMPDEST SWAP1 POP JUMPDEST DUP1 DUP7 DUP6 DUP2 MLOAD DUP2 LT PUSH2 0x1BA8 JUMPI INVALID JUMPDEST PUSH1 0x20 MUL PUSH1 0x20 ADD ADD DUP2 DUP2 MSTORE POP POP DUP6 DUP5 DUP2 MLOAD DUP2 LT PUSH2 0x1BC0 JUMPI INVALID JUMPDEST PUSH1 0x20 MUL PUSH1 0x20 ADD ADD MLOAD PUSH1 0x0 EQ ISZERO PUSH2 0x1BD8 JUMPI POP POP POP PUSH2 0x1842 JUMP JUMPDEST POP POP POP PUSH1 0x1 ADD PUSH2 0x1AAD JUMP JUMPDEST DUP1 MLOAD PUSH1 0x60 SWAP1 DUP2 SWAP1 DUP1 PUSH1 0x1 PUSH1 0x1 PUSH1 0x40 SHL SUB DUP2 GT DUP1 ISZERO PUSH2 0x1C00 JUMPI PUSH1 0x0 DUP1 REVERT JUMPDEST POP PUSH1 0x40 MLOAD SWAP1 DUP1 DUP3 MSTORE DUP1 PUSH1 0x20 MUL PUSH1 0x20 ADD DUP3 ADD PUSH1 0x40 MSTORE DUP1 ISZERO PUSH2 0x1C2A JUMPI DUP2 PUSH1 0x20 ADD PUSH1 0x20 DUP3 MUL DUP1 CALLDATASIZE DUP4 CALLDATACOPY ADD SWAP1 POP JUMPDEST POP SWAP2 POP PUSH2 0x1C37 DUP7 DUP7 PUSH2 0x57F4 JUMP JUMPDEST SWAP3 POP DUP3 MLOAD PUSH1 0x0 EQ ISZERO PUSH2 0x1C49 JUMPI POP PUSH2 0x8CC JUMP JUMPDEST PUSH1 0x0 JUMPDEST DUP2 DUP2 LT ISZERO PUSH2 0x8C9 JUMPI DUP7 PUSH1 0x1 PUSH1 0x1 PUSH1 0xA0 SHL SUB AND PUSH4 0x9E269B68 PUSH3 0x249F0 DUP8 DUP5 DUP2 MLOAD DUP2 LT PUSH2 0x1C73 JUMPI INVALID JUMPDEST PUSH1 0x20 MUL PUSH1 0x20 ADD ADD MLOAD DUP8 DUP11 PUSH1 0x40 MLOAD DUP6 PUSH4 0xFFFFFFFF AND PUSH1 0xE0 SHL DUP2 MSTORE PUSH1 0x4 ADD PUSH2 0x1C9B SWAP4 SWAP3 SWAP2 SWAP1 PUSH2 0x9FC4 JUMP JUMPDEST PUSH1 0x0 PUSH1 0x40 MLOAD DUP1 DUP4 SUB DUP2 DUP8 DUP1 EXTCODESIZE ISZERO DUP1 ISZERO PUSH2 0x1CB3 JUMPI PUSH1 0x0 DUP1 REVERT JUMPDEST POP DUP7 STATICCALL SWAP4 POP POP POP POP DUP1 ISZERO PUSH2 0x1CE9 JUMPI POP PUSH1 0x40 MLOAD RETURNDATASIZE PUSH1 0x0 DUP3 RETURNDATACOPY PUSH1 0x1F RETURNDATASIZE SWAP1 DUP2 ADD PUSH1 0x1F NOT AND DUP3 ADD PUSH1 0x40 MSTORE PUSH2 0x1CE6 SWAP2 SWAP1 DUP2 ADD SWAP1 PUSH2 0x8E93 JUMP JUMPDEST PUSH1 0x1 JUMPDEST PUSH2 0x1D17 JUMPI RETURNDATASIZE DUP1 DUP1 ISZERO PUSH2 0x862 JUMPI PUSH1 0x40 MLOAD SWAP2 POP PUSH1 0x1F NOT PUSH1 0x3F RETURNDATASIZE ADD AND DUP3 ADD PUSH1 0x40 MSTORE RETURNDATASIZE DUP3 MSTORE RETURNDATASIZE PUSH1 0x0 PUSH1 0x20 DUP5 ADD RETURNDATACOPY PUSH2 0x867 JUMP JUMPDEST DUP1 PUSH1 0x0 DUP2 MLOAD DUP2 LT PUSH2 0x1D24 JUMPI INVALID JUMPDEST PUSH1 0x20 MUL PUSH1 0x20 ADD ADD MLOAD DUP5 DUP4 DUP2 MLOAD DUP2 LT PUSH2 0x1D38 JUMPI INVALID JUMPDEST PUSH1 0x20 MUL PUSH1 0x20 ADD ADD DUP2 DUP2 MSTORE POP POP DUP4 DUP3 DUP2 MLOAD DUP2 LT PUSH2 0x1D50 JUMPI INVALID JUMPDEST PUSH1 0x20 MUL PUSH1 0x20 ADD ADD MLOAD PUSH1 0x0 EQ ISZERO PUSH2 0x1D66 JUMPI POP PUSH2 0x8C9 JUMP JUMPDEST POP PUSH1 0x1 ADD PUSH2 0x1C4C JUMP JUMPDEST PUSH1 0x20 DUP5 DUP2 ADD MLOAD PUSH1 0x40 DUP1 MLOAD PUSH1 0x1 DUP1 DUP3 MSTORE DUP2 DUP4 ADD SWAP1 SWAP3 MSTORE PUSH1 0x60 SWAP4 DUP5 SWAP3 SWAP1 DUP3 DUP2 ADD SWAP1 DUP1 CALLDATASIZE DUP4 CALLDATACOPY ADD SWAP1 POP POP SWAP1 POP DUP6 DUP2 PUSH1 0x0 DUP2 MLOAD DUP2 LT PUSH2 0x1DA6 JUMPI INVALID JUMPDEST PUSH1 0x20 SWAP1 DUP2 MUL SWAP2 SWAP1 SWAP2 ADD ADD MSTORE PUSH1 0x60 PUSH1 0x0 PUSH1 0x40 MLOAD SWAP1 DUP1 DUP3 MSTORE DUP1 PUSH1 0x20 MUL PUSH1 0x20 ADD DUP3 ADD PUSH1 0x40 MSTORE DUP1 ISZERO PUSH2 0x1DDE JUMPI DUP2 PUSH1 0x20 ADD PUSH1 0x20 DUP3 MUL DUP1 CALLDATASIZE DUP4 CALLDATACOPY ADD SWAP1 POP JUMPDEST POP SWAP1 POP DUP8 PUSH1 0x60 ADD MLOAD PUSH1 0x1 PUSH1 0x1 PUSH1 0xA0 SHL SUB AND DUP7 PUSH1 0x1 PUSH1 0x1 PUSH1 0xA0 SHL SUB AND EQ ISZERO PUSH2 0x1ECF JUMPI PUSH1 0x40 MLOAD PUSH4 0x81EFCBDD PUSH1 0xE0 SHL DUP2 MSTORE PUSH1 0x1 PUSH1 0x1 PUSH1 0xA0 SHL SUB DUP5 AND SWAP1 PUSH4 0x81EFCBDD SWAP1 PUSH3 0x7A120 SWAP1 PUSH2 0x1E37 SWAP1 DUP10 SWAP1 PUSH1 0x1 SWAP1 DUP9 SWAP1 DUP9 SWAP1 PUSH1 0x4 ADD PUSH2 0x9960 JUMP JUMPDEST PUSH1 0x0 PUSH1 0x40 MLOAD DUP1 DUP4 SUB DUP2 DUP8 DUP1 EXTCODESIZE ISZERO DUP1 ISZERO PUSH2 0x1E4F JUMPI PUSH1 0x0 DUP1 REVERT JUMPDEST POP DUP7 STATICCALL SWAP4 POP POP POP POP DUP1 ISZERO PUSH2 0x1E85 JUMPI POP PUSH1 0x40 MLOAD RETURNDATASIZE PUSH1 0x0 DUP3 RETURNDATACOPY PUSH1 0x1F RETURNDATASIZE SWAP1 DUP2 ADD PUSH1 0x1F NOT AND DUP3 ADD PUSH1 0x40 MSTORE PUSH2 0x1E82 SWAP2 SWAP1 DUP2 ADD SWAP1 PUSH2 0x8EFD JUMP JUMPDEST PUSH1 0x1 JUMPDEST PUSH2 0x1EBF JUMPI RETURNDATASIZE DUP1 DUP1 ISZERO PUSH2 0x1EB3 JUMPI PUSH1 0x40 MLOAD SWAP2 POP PUSH1 0x1F NOT PUSH1 0x3F RETURNDATASIZE ADD AND DUP3 ADD PUSH1 0x40 MSTORE RETURNDATASIZE DUP3 MSTORE RETURNDATASIZE PUSH1 0x0 PUSH1 0x20 DUP5 ADD RETURNDATACOPY PUSH2 0x1EB8 JUMP JUMPDEST PUSH1 0x60 SWAP2 POP JUMPDEST POP POP PUSH2 0x1ECA JUMP JUMPDEST SWAP4 POP PUSH2 0x11FB SWAP3 POP POP POP JUMP JUMPDEST PUSH2 0x1FE1 JUMP JUMPDEST DUP8 PUSH1 0x60 ADD MLOAD PUSH1 0x1 PUSH1 0x1 PUSH1 0xA0 SHL SUB AND DUP6 PUSH1 0x1 PUSH1 0x1 PUSH1 0xA0 SHL SUB AND EQ ISZERO PUSH2 0x1F25 JUMPI PUSH1 0x40 MLOAD PUSH4 0x61E597F9 PUSH1 0xE0 SHL DUP2 MSTORE PUSH1 0x1 PUSH1 0x1 PUSH1 0xA0 SHL SUB DUP5 AND SWAP1 PUSH4 0x61E597F9 SWAP1 PUSH3 0x7A120 SWAP1 PUSH2 0x1E37 SWAP1 DUP11 SWAP1 PUSH1 0x1 SWAP1 DUP9 SWAP1 DUP9 SWAP1 PUSH1 0x4 ADD PUSH2 0x9960 JUMP JUMPDEST PUSH1 0x40 MLOAD PUSH4 0x2B9A6CD PUSH1 0xE1 SHL DUP2 MSTORE PUSH1 0x1 PUSH1 0x1 PUSH1 0xA0 SHL SUB DUP5 AND SWAP1 PUSH4 0x5734D9A SWAP1 PUSH3 0x7A120 SWAP1 PUSH2 0x1F65 SWAP1 DUP11 SWAP1 PUSH1 0x1 SWAP1 DUP9 SWAP1 DUP9 SWAP1 DUP14 SWAP1 DUP5 SWAP1 DUP5 SWAP1 DUP5 SWAP1 PUSH1 0x4 ADD PUSH2 0x99A2 JUMP JUMPDEST PUSH1 0x0 PUSH1 0x40 MLOAD DUP1 DUP4 SUB DUP2 DUP8 DUP1 EXTCODESIZE ISZERO DUP1 ISZERO PUSH2 0x1F7D JUMPI PUSH1 0x0 DUP1 REVERT JUMPDEST POP DUP7 STATICCALL SWAP4 POP POP POP POP DUP1 ISZERO PUSH2 0x1FB3 JUMPI POP PUSH1 0x40 MLOAD RETURNDATASIZE PUSH1 0x0 DUP3 RETURNDATACOPY PUSH1 0x1F RETURNDATASIZE SWAP1 DUP2 ADD PUSH1 0x1F NOT AND DUP3 ADD PUSH1 0x40 MSTORE PUSH2 0x1FB0 SWAP2 SWAP1 DUP2 ADD SWAP1 PUSH2 0x8EFD JUMP JUMPDEST PUSH1 0x1 JUMPDEST PUSH2 0x1EBF JUMPI RETURNDATASIZE DUP1 DUP1 ISZERO PUSH2 0xDCB JUMPI PUSH1 0x40 MLOAD SWAP2 POP PUSH1 0x1F NOT PUSH1 0x3F RETURNDATASIZE ADD AND DUP3 ADD PUSH1 0x40 MSTORE RETURNDATASIZE DUP3 MSTORE RETURNDATASIZE PUSH1 0x0 PUSH1 0x20 DUP5 ADD RETURNDATACOPY PUSH2 0xDCB JUMP JUMPDEST POP POP POP SWAP5 SWAP4 POP POP POP POP JUMP JUMPDEST PUSH1 0x60 DUP1 PUSH1 0x60 PUSH2 0x206D DUP7 PUSH1 0x1 PUSH1 0x1 PUSH1 0xA0 SHL SUB AND PUSH4 0xC45A0155 PUSH1 0x40 MLOAD DUP2 PUSH4 0xFFFFFFFF AND PUSH1 0xE0 SHL DUP2 MSTORE PUSH1 0x4 ADD PUSH1 0x20 PUSH1 0x40 MLOAD DUP1 DUP4 SUB DUP2 DUP7 DUP1 EXTCODESIZE ISZERO DUP1 ISZERO PUSH2 0x202D JUMPI PUSH1 0x0 DUP1 REVERT JUMPDEST POP GAS STATICCALL ISZERO DUP1 ISZERO PUSH2 0x2041 JUMPI RETURNDATASIZE PUSH1 0x0 DUP1 RETURNDATACOPY RETURNDATASIZE PUSH1 0x0 REVERT JUMPDEST POP POP POP POP PUSH1 0x40 MLOAD RETURNDATASIZE PUSH1 0x1F NOT PUSH1 0x1F DUP3 ADD AND DUP3 ADD DUP1 PUSH1 0x40 MSTORE POP DUP2 ADD SWAP1 PUSH2 0x2065 SWAP2 SWAP1 PUSH2 0x868D JUMP JUMPDEST DUP7 PUSH1 0x0 PUSH2 0x66AD JUMP JUMPDEST SWAP1 POP DUP4 MLOAD PUSH1 0x1 PUSH1 0x1 PUSH1 0x40 SHL SUB DUP2 GT DUP1 ISZERO PUSH2 0x2086 JUMPI PUSH1 0x0 DUP1 REVERT JUMPDEST POP PUSH1 0x40 MLOAD SWAP1 DUP1 DUP3 MSTORE DUP1 PUSH1 0x20 MUL PUSH1 0x20 ADD DUP3 ADD PUSH1 0x40 MSTORE DUP1 ISZERO PUSH2 0x20B0 JUMPI DUP2 PUSH1 0x20 ADD PUSH1 0x20 DUP3 MUL DUP1 CALLDATASIZE DUP4 CALLDATACOPY ADD SWAP1 POP JUMPDEST POP SWAP2 POP DUP4 MLOAD PUSH1 0x1 PUSH1 0x1 PUSH1 0x40 SHL SUB DUP2 GT DUP1 ISZERO PUSH2 0x20CA JUMPI PUSH1 0x0 DUP1 REVERT JUMPDEST POP PUSH1 0x40 MLOAD SWAP1 DUP1 DUP3 MSTORE DUP1 PUSH1 0x20 MUL PUSH1 0x20 ADD DUP3 ADD PUSH1 0x40 MSTORE DUP1 ISZERO PUSH2 0x20FE JUMPI DUP2 PUSH1 0x20 ADD JUMPDEST PUSH1 0x60 DUP2 MSTORE PUSH1 0x20 ADD SWAP1 PUSH1 0x1 SWAP1 SUB SWAP1 DUP2 PUSH2 0x20E9 JUMPI SWAP1 POP JUMPDEST POP SWAP3 POP PUSH1 0x0 JUMPDEST DUP5 MLOAD DUP2 LT ISZERO PUSH2 0x8C9 JUMPI PUSH1 0x60 PUSH1 0x0 DUP1 JUMPDEST DUP5 MLOAD DUP2 LT ISZERO PUSH2 0x21EF JUMPI PUSH1 0x60 PUSH2 0x213B DUP11 DUP8 DUP5 DUP2 MLOAD DUP2 LT PUSH2 0x212E JUMPI INVALID JUMPDEST PUSH1 0x20 MUL PUSH1 0x20 ADD ADD MLOAD PUSH2 0x6B43 JUMP JUMPDEST SWAP1 POP DUP11 PUSH1 0x1 PUSH1 0x1 PUSH1 0xA0 SHL SUB AND PUSH4 0xCDCA1753 PUSH3 0x493E0 DUP4 DUP13 DUP10 DUP2 MLOAD DUP2 LT PUSH2 0x215D JUMPI INVALID JUMPDEST PUSH1 0x20 MUL PUSH1 0x20 ADD ADD MLOAD PUSH1 0x40 MLOAD DUP5 PUSH4 0xFFFFFFFF AND PUSH1 0xE0 SHL DUP2 MSTORE PUSH1 0x4 ADD PUSH2 0x2182 SWAP3 SWAP2 SWAP1 PUSH2 0x9BFE JUMP JUMPDEST PUSH1 0x20 PUSH1 0x40 MLOAD DUP1 DUP4 SUB DUP2 PUSH1 0x0 DUP9 DUP1 EXTCODESIZE ISZERO DUP1 ISZERO PUSH2 0x219C JUMPI PUSH1 0x0 DUP1 REVERT JUMPDEST POP DUP8 CALL SWAP4 POP POP POP POP DUP1 ISZERO PUSH2 0x21CD JUMPI POP PUSH1 0x40 DUP1 MLOAD PUSH1 0x1F RETURNDATASIZE SWAP1 DUP2 ADD PUSH1 0x1F NOT AND DUP3 ADD SWAP1 SWAP3 MSTORE PUSH2 0x21CA SWAP2 DUP2 ADD SWAP1 PUSH2 0x8EE5 JUMP JUMPDEST PUSH1 0x1 JUMPDEST PUSH2 0x21D6 JUMPI PUSH2 0x21E6 JUMP JUMPDEST DUP1 DUP5 GT PUSH2 0x21E4 JUMPI DUP1 SWAP4 POP DUP2 SWAP5 POP JUMPDEST POP JUMPDEST POP PUSH1 0x1 ADD PUSH2 0x2113 JUMP JUMPDEST POP DUP1 PUSH2 0x21FC JUMPI POP POP PUSH2 0x8C9 JUMP JUMPDEST DUP1 DUP6 DUP5 DUP2 MLOAD DUP2 LT PUSH2 0x2209 JUMPI INVALID JUMPDEST PUSH1 0x20 MUL PUSH1 0x20 ADD ADD DUP2 DUP2 MSTORE POP POP DUP2 DUP7 DUP5 DUP2 MLOAD DUP2 LT PUSH2 0x2222 JUMPI INVALID JUMPDEST PUSH1 0x20 SWAP1 DUP2 MUL SWAP2 SWAP1 SWAP2 ADD ADD MSTORE POP POP PUSH1 0x1 ADD PUSH2 0x2104 JUMP JUMPDEST DUP1 MLOAD PUSH1 0x60 SWAP1 DUP6 SWAP1 DUP1 PUSH1 0x1 PUSH1 0x1 PUSH1 0x40 SHL SUB DUP2 GT DUP1 ISZERO PUSH2 0x2254 JUMPI PUSH1 0x0 DUP1 REVERT JUMPDEST POP PUSH1 0x40 MLOAD SWAP1 DUP1 DUP3 MSTORE DUP1 PUSH1 0x20 MUL PUSH1 0x20 ADD DUP3 ADD PUSH1 0x40 MSTORE DUP1 ISZERO PUSH2 0x227E JUMPI DUP2 PUSH1 0x20 ADD PUSH1 0x20 DUP3 MUL DUP1 CALLDATASIZE DUP4 CALLDATACOPY ADD SWAP1 POP JUMPDEST POP PUSH1 0x40 MLOAD PUSH4 0xBCDED89 PUSH1 0xE2 SHL DUP2 MSTORE SWAP1 SWAP4 POP PUSH1 0x1 PUSH1 0x1 PUSH1 0xA0 SHL SUB DUP4 AND SWAP1 PUSH4 0x2F37B624 SWAP1 PUSH2 0x22AE SWAP1 DUP10 SWAP1 PUSH1 0x4 ADD PUSH2 0x9799 JUMP JUMPDEST PUSH1 0x20 PUSH1 0x40 MLOAD DUP1 DUP4 SUB DUP2 DUP7 DUP1 EXTCODESIZE ISZERO DUP1 ISZERO PUSH2 0x22C6 JUMPI PUSH1 0x0 DUP1 REVERT JUMPDEST POP GAS STATICCALL ISZERO DUP1 ISZERO PUSH2 0x22DA JUMPI RETURNDATASIZE PUSH1 0x0 DUP1 RETURNDATACOPY RETURNDATASIZE PUSH1 0x0 REVERT JUMPDEST POP POP POP POP PUSH1 0x40 MLOAD RETURNDATASIZE PUSH1 0x1F NOT PUSH1 0x1F DUP3 ADD AND DUP3 ADD DUP1 PUSH1 0x40 MSTORE POP DUP2 ADD SWAP1 PUSH2 0x22FE SWAP2 SWAP1 PUSH2 0x8EC5 JUMP JUMPDEST ISZERO DUP1 PUSH2 0x2383 JUMPI POP PUSH1 0x40 MLOAD PUSH4 0xBCDED89 PUSH1 0xE2 SHL DUP2 MSTORE PUSH1 0x1 PUSH1 0x1 PUSH1 0xA0 SHL SUB DUP4 AND SWAP1 PUSH4 0x2F37B624 SWAP1 PUSH2 0x2331 SWAP1 DUP9 SWAP1 PUSH1 0x4 ADD PUSH2 0x9799 JUMP JUMPDEST PUSH1 0x20 PUSH1 0x40 MLOAD DUP1 DUP4 SUB DUP2 DUP7 DUP1 EXTCODESIZE ISZERO DUP1 ISZERO PUSH2 0x2349 JUMPI PUSH1 0x0 DUP1 REVERT JUMPDEST POP GAS STATICCALL ISZERO DUP1 ISZERO PUSH2 0x235D JUMPI RETURNDATASIZE PUSH1 0x0 DUP1 RETURNDATACOPY RETURNDATASIZE PUSH1 0x0 REVERT JUMPDEST POP POP POP POP PUSH1 0x40 MLOAD RETURNDATASIZE PUSH1 0x1F NOT PUSH1 0x1F DUP3 ADD AND DUP3 ADD DUP1 PUSH1 0x40 MSTORE POP DUP2 ADD SWAP1 PUSH2 0x2381 SWAP2 SWAP1 PUSH2 0x8EC5 JUMP JUMPDEST ISZERO JUMPDEST ISZERO PUSH2 0x238F JUMPI POP POP PUSH2 0x11FB JUMP JUMPDEST PUSH2 0x2397 PUSH2 0x7ECC JUMP JUMPDEST PUSH1 0x40 MLOAD PUSH4 0xF8B2CB4F PUSH1 0xE0 SHL DUP2 MSTORE PUSH1 0x1 PUSH1 0x1 PUSH1 0xA0 SHL SUB DUP5 AND SWAP1 PUSH4 0xF8B2CB4F SWAP1 PUSH2 0x23C3 SWAP1 DUP11 SWAP1 PUSH1 0x4 ADD PUSH2 0x9799 JUMP JUMPDEST PUSH1 0x20 PUSH1 0x40 MLOAD DUP1 DUP4 SUB DUP2 DUP7 DUP1 EXTCODESIZE ISZERO DUP1 ISZERO PUSH2 0x23DB JUMPI PUSH1 0x0 DUP1 REVERT JUMPDEST POP GAS STATICCALL ISZERO DUP1 ISZERO PUSH2 0x23EF JUMPI RETURNDATASIZE PUSH1 0x0 DUP1 RETURNDATACOPY RETURNDATASIZE PUSH1 0x0 REVERT JUMPDEST POP POP POP POP PUSH1 0x40 MLOAD RETURNDATASIZE PUSH1 0x1F NOT PUSH1 0x1F DUP3 ADD AND DUP3 ADD DUP1 PUSH1 0x40 MSTORE POP DUP2 ADD SWAP1 PUSH2 0x2413 SWAP2 SWAP1 PUSH2 0x8EE5 JUMP JUMPDEST DUP2 MSTORE PUSH1 0x40 MLOAD PUSH4 0xF8B2CB4F PUSH1 0xE0 SHL DUP2 MSTORE PUSH1 0x1 PUSH1 0x1 PUSH1 0xA0 SHL SUB DUP5 AND SWAP1 PUSH4 0xF8B2CB4F SWAP1 PUSH2 0x2441 SWAP1 DUP10 SWAP1 PUSH1 0x4 ADD PUSH2 0x9799 JUMP JUMPDEST PUSH1 0x20 PUSH1 0x40 MLOAD DUP1 DUP4 SUB DUP2 DUP7 DUP1 EXTCODESIZE ISZERO DUP1 ISZERO PUSH2 0x2459 JUMPI PUSH1 0x0 DUP1 REVERT JUMPDEST POP GAS STATICCALL ISZERO DUP1 ISZERO PUSH2 0x246D JUMPI RETURNDATASIZE PUSH1 0x0 DUP1 RETURNDATACOPY RETURNDATASIZE PUSH1 0x0 REVERT JUMPDEST POP POP POP POP PUSH1 0x40 MLOAD RETURNDATASIZE PUSH1 0x1F NOT PUSH1 0x1F DUP3 ADD AND DUP3 ADD DUP1 PUSH1 0x40 MSTORE POP DUP2 ADD SWAP1 PUSH2 0x2491 SWAP2 SWAP1 PUSH2 0x8EE5 JUMP JUMPDEST PUSH1 0x20 DUP3 ADD MSTORE PUSH1 0x40 MLOAD PUSH4 0x4A46C673 PUSH1 0xE1 SHL DUP2 MSTORE PUSH1 0x1 PUSH1 0x1 PUSH1 0xA0 SHL SUB DUP5 AND SWAP1 PUSH4 0x948D8CE6 SWAP1 PUSH2 0x24C2 SWAP1 DUP11 SWAP1 PUSH1 0x4 ADD PUSH2 0x9799 JUMP JUMPDEST PUSH1 0x20 PUSH1 0x40 MLOAD DUP1 DUP4 SUB DUP2 DUP7 DUP1 EXTCODESIZE ISZERO DUP1 ISZERO PUSH2 0x24DA JUMPI PUSH1 0x0 DUP1 REVERT JUMPDEST POP GAS STATICCALL ISZERO DUP1 ISZERO PUSH2 0x24EE JUMPI RETURNDATASIZE PUSH1 0x0 DUP1 RETURNDATACOPY RETURNDATASIZE PUSH1 0x0 REVERT JUMPDEST POP POP POP POP PUSH1 0x40 MLOAD RETURNDATASIZE PUSH1 0x1F NOT PUSH1 0x1F DUP3 ADD AND DUP3 ADD DUP1 PUSH1 0x40 MSTORE POP DUP2 ADD SWAP1 PUSH2 0x2512 SWAP2 SWAP1 PUSH2 0x8EE5 JUMP JUMPDEST PUSH1 0x40 DUP1 DUP4 ADD SWAP2 SWAP1 SWAP2 MSTORE MLOAD PUSH4 0x4A46C673 PUSH1 0xE1 SHL DUP2 MSTORE PUSH1 0x1 PUSH1 0x1 PUSH1 0xA0 SHL SUB DUP5 AND SWAP1 PUSH4 0x948D8CE6 SWAP1 PUSH2 0x2545 SWAP1 DUP10 SWAP1 PUSH1 0x4 ADD PUSH2 0x9799 JUMP JUMPDEST PUSH1 0x20 PUSH1 0x40 MLOAD DUP1 DUP4 SUB DUP2 DUP7 DUP1 EXTCODESIZE ISZERO DUP1 ISZERO PUSH2 0x255D JUMPI PUSH1 0x0 DUP1 REVERT JUMPDEST POP GAS STATICCALL ISZERO DUP1 ISZERO PUSH2 0x2571 JUMPI RETURNDATASIZE PUSH1 0x0 DUP1 RETURNDATACOPY RETURNDATASIZE PUSH1 0x0 REVERT JUMPDEST POP POP POP POP PUSH1 0x40 MLOAD RETURNDATASIZE PUSH1 0x1F NOT PUSH1 0x1F DUP3 ADD AND DUP3 ADD DUP1 PUSH1 0x40 MSTORE POP DUP2 ADD SWAP1 PUSH2 0x2595 SWAP2 SWAP1 PUSH2 0x8EE5 JUMP JUMPDEST DUP2 PUSH1 0x60 ADD DUP2 DUP2 MSTORE POP POP DUP3 PUSH1 0x1 PUSH1 0x1 PUSH1 0xA0 SHL SUB AND PUSH4 0xD4CADF68 PUSH1 0x40 MLOAD DUP2 PUSH4 0xFFFFFFFF AND PUSH1 0xE0 SHL DUP2 MSTORE PUSH1 0x4 ADD PUSH1 0x20 PUSH1 0x40 MLOAD DUP1 DUP4 SUB DUP2 DUP7 DUP1 EXTCODESIZE ISZERO DUP1 ISZERO PUSH2 0x25D7 JUMPI PUSH1 0x0 DUP1 REVERT JUMPDEST POP GAS STATICCALL ISZERO DUP1 ISZERO PUSH2 0x25EB JUMPI RETURNDATASIZE PUSH1 0x0 DUP1 RETURNDATACOPY RETURNDATASIZE PUSH1 0x0 REVERT JUMPDEST POP POP POP POP PUSH1 0x40 MLOAD RETURNDATASIZE PUSH1 0x1F NOT PUSH1 0x1F DUP3 ADD AND DUP3 ADD DUP1 PUSH1 0x40 MSTORE POP DUP2 ADD SWAP1 PUSH2 0x260F SWAP2 SWAP1 PUSH2 0x8EE5 JUMP JUMPDEST PUSH1 0x80 DUP3 ADD MSTORE PUSH1 0x0 JUMPDEST DUP3 DUP2 LT ISZERO PUSH2 0xFA2 JUMPI PUSH2 0x2642 DUP3 PUSH1 0x20 ADD MLOAD PUSH1 0x3 PUSH8 0xDE0B6B3A7640000 DUP2 PUSH2 0x2639 JUMPI INVALID JUMPDEST DIV PUSH1 0x1 ADD PUSH2 0x6C9E JUMP JUMPDEST DUP7 DUP3 DUP2 MLOAD DUP2 LT PUSH2 0x264E JUMPI INVALID JUMPDEST PUSH1 0x20 MUL PUSH1 0x20 ADD ADD MLOAD GT ISZERO PUSH2 0x2661 JUMPI PUSH2 0xFA2 JUMP JUMPDEST DUP4 PUSH1 0x1 PUSH1 0x1 PUSH1 0xA0 SHL SUB AND PUSH4 0xF8D6AED4 PUSH3 0x493E0 DUP5 PUSH1 0x0 ADD MLOAD DUP6 PUSH1 0x40 ADD MLOAD DUP7 PUSH1 0x20 ADD MLOAD DUP8 PUSH1 0x60 ADD MLOAD DUP13 DUP9 DUP2 MLOAD DUP2 LT PUSH2 0x2694 JUMPI INVALID JUMPDEST PUSH1 0x20 MUL PUSH1 0x20 ADD ADD MLOAD DUP10 PUSH1 0x80 ADD MLOAD PUSH1 0x40 MLOAD DUP9 PUSH4 0xFFFFFFFF AND PUSH1 0xE0 SHL DUP2 MSTORE PUSH1 0x4 ADD PUSH2 0x26C2 SWAP7 SWAP6 SWAP5 SWAP4 SWAP3 SWAP2 SWAP1 PUSH2 0x9FEF JUMP JUMPDEST PUSH1 0x20 PUSH1 0x40 MLOAD DUP1 DUP4 SUB DUP2 DUP8 DUP1 EXTCODESIZE ISZERO DUP1 ISZERO PUSH2 0x26DA JUMPI PUSH1 0x0 DUP1 REVERT JUMPDEST POP DUP7 STATICCALL SWAP4 POP POP POP POP DUP1 ISZERO PUSH2 0x270B JUMPI POP PUSH1 0x40 DUP1 MLOAD PUSH1 0x1F RETURNDATASIZE SWAP1 DUP2 ADD PUSH1 0x1F NOT AND DUP3 ADD SWAP1 SWAP3 MSTORE PUSH2 0x2708 SWAP2 DUP2 ADD SWAP1 PUSH2 0x8EE5 JUMP JUMPDEST PUSH1 0x1 JUMPDEST PUSH2 0x2745 JUMPI RETURNDATASIZE DUP1 DUP1 ISZERO PUSH2 0x2739 JUMPI PUSH1 0x40 MLOAD SWAP2 POP PUSH1 0x1F NOT PUSH1 0x3F RETURNDATASIZE ADD AND DUP3 ADD PUSH1 0x40 MSTORE RETURNDATASIZE DUP3 MSTORE RETURNDATASIZE PUSH1 0x0 PUSH1 0x20 DUP5 ADD RETURNDATACOPY PUSH2 0x273E JUMP JUMPDEST PUSH1 0x60 SWAP2 POP JUMPDEST POP POP PUSH2 0xFA2 JUMP JUMPDEST DUP3 MLOAD PUSH2 0x275D SWAP1 PUSH1 0x2 PUSH8 0xDE0B6B3A7640000 JUMPDEST DIV PUSH2 0x6C9E JUMP JUMPDEST DUP2 GT ISZERO PUSH2 0x276A JUMPI POP PUSH2 0xFA2 JUMP JUMPDEST DUP1 DUP7 DUP4 DUP2 MLOAD DUP2 LT PUSH2 0x2777 JUMPI INVALID JUMPDEST PUSH1 0x20 MUL PUSH1 0x20 ADD ADD DUP2 DUP2 MSTORE POP POP DUP6 DUP3 DUP2 MLOAD DUP2 LT PUSH2 0x278F JUMPI INVALID JUMPDEST PUSH1 0x20 MUL PUSH1 0x20 ADD ADD MLOAD PUSH1 0x0 EQ ISZERO PUSH2 0x27A5 JUMPI POP PUSH2 0xFA2 JUMP JUMPDEST POP PUSH1 0x1 ADD PUSH2 0x2617 JUMP JUMPDEST PUSH1 0x60 DUP1 PUSH1 0x60 PUSH2 0x27EF DUP7 PUSH1 0x1 PUSH1 0x1 PUSH1 0xA0 SHL SUB AND PUSH4 0xC45A0155 PUSH1 0x40 MLOAD DUP2 PUSH4 0xFFFFFFFF AND PUSH1 0xE0 SHL DUP2 MSTORE PUSH1 0x4 ADD PUSH1 0x20 PUSH1 0x40 MLOAD DUP1 DUP4 SUB DUP2 DUP7 DUP1 EXTCODESIZE ISZERO DUP1 ISZERO PUSH2 0x202D JUMPI PUSH1 0x0 DUP1 REVERT JUMPDEST SWAP1 POP PUSH1 0x60 PUSH2 0x27FC DUP7 PUSH2 0x6CFB JUMP JUMPDEST SWAP1 POP DUP5 MLOAD PUSH1 0x1 PUSH1 0x1 PUSH1 0x40 SHL SUB DUP2 GT DUP1 ISZERO PUSH2 0x2815 JUMPI PUSH1 0x0 DUP1 REVERT JUMPDEST POP PUSH1 0x40 MLOAD SWAP1 DUP1 DUP3 MSTORE DUP1 PUSH1 0x20 MUL PUSH1 0x20 ADD DUP3 ADD PUSH1 0x40 MSTORE DUP1 ISZERO PUSH2 0x283F JUMPI DUP2 PUSH1 0x20 ADD PUSH1 0x20 DUP3 MUL DUP1 CALLDATASIZE DUP4 CALLDATACOPY ADD SWAP1 POP JUMPDEST POP SWAP3 POP DUP5 MLOAD PUSH1 0x1 PUSH1 0x1 PUSH1 0x40 SHL SUB DUP2 GT DUP1 ISZERO PUSH2 0x2859 JUMPI PUSH1 0x0 DUP1 REVERT JUMPDEST POP PUSH1 0x40 MLOAD SWAP1 DUP1 DUP3 MSTORE DUP1 PUSH1 0x20 MUL PUSH1 0x20 ADD DUP3 ADD PUSH1 0x40 MSTORE DUP1 ISZERO PUSH2 0x288D JUMPI DUP2 PUSH1 0x20 ADD JUMPDEST PUSH1 0x60 DUP2 MSTORE PUSH1 0x20 ADD SWAP1 PUSH1 0x1 SWAP1 SUB SWAP1 DUP2 PUSH2 0x2878 JUMPI SWAP1 POP JUMPDEST POP SWAP4 POP PUSH1 0x0 JUMPDEST DUP6 MLOAD DUP2 LT ISZERO PUSH2 0x29E8 JUMPI PUSH1 0x60 PUSH1 0x0 DUP1 JUMPDEST DUP6 MLOAD DUP2 LT ISZERO PUSH2 0x29A0 JUMPI PUSH1 0x60 PUSH2 0x28D2 DUP7 PUSH2 0x28CD DUP10 DUP6 DUP2 MLOAD DUP2 LT PUSH2 0x28C0 JUMPI INVALID JUMPDEST PUSH1 0x20 MUL PUSH1 0x20 ADD ADD MLOAD PUSH2 0x6D93 JUMP JUMPDEST PUSH2 0x6B43 JUMP JUMPDEST SWAP1 POP DUP12 PUSH1 0x1 PUSH1 0x1 PUSH1 0xA0 SHL SUB AND PUSH4 0x2F80BB1D PUSH3 0x493E0 DUP4 DUP14 DUP10 DUP2 MLOAD DUP2 LT PUSH2 0x28F4 JUMPI INVALID JUMPDEST PUSH1 0x20 MUL PUSH1 0x20 ADD ADD MLOAD PUSH1 0x40 MLOAD DUP5 PUSH4 0xFFFFFFFF AND PUSH1 0xE0 SHL DUP2 MSTORE PUSH1 0x4 ADD PUSH2 0x2919 SWAP3 SWAP2 SWAP1 PUSH2 0x9BFE JUMP JUMPDEST PUSH1 0x20 PUSH1 0x40 MLOAD DUP1 DUP4 SUB DUP2 PUSH1 0x0 DUP9 DUP1 EXTCODESIZE ISZERO DUP1 ISZERO PUSH2 0x2933 JUMPI PUSH1 0x0 DUP1 REVERT JUMPDEST POP DUP8 CALL SWAP4 POP POP POP POP DUP1 ISZERO PUSH2 0x2964 JUMPI POP PUSH1 0x40 DUP1 MLOAD PUSH1 0x1F RETURNDATASIZE SWAP1 DUP2 ADD PUSH1 0x1F NOT AND DUP3 ADD SWAP1 SWAP3 MSTORE PUSH2 0x2961 SWAP2 DUP2 ADD SWAP1 PUSH2 0x8EE5 JUMP JUMPDEST PUSH1 0x1 JUMPDEST PUSH2 0x296D JUMPI PUSH2 0x2997 JUMP JUMPDEST DUP4 ISZERO DUP1 PUSH2 0x297A JUMPI POP DUP1 DUP5 LT ISZERO JUMPDEST ISZERO PUSH2 0x2995 JUMPI DUP1 SWAP4 POP PUSH2 0x2992 DUP13 DUP10 DUP6 DUP2 MLOAD DUP2 LT PUSH2 0x212E JUMPI INVALID JUMPDEST SWAP5 POP JUMPDEST POP JUMPDEST POP PUSH1 0x1 ADD PUSH2 0x28A2 JUMP JUMPDEST POP DUP1 PUSH2 0x29AD JUMPI POP POP PUSH2 0x29E8 JUMP JUMPDEST DUP1 DUP7 DUP5 DUP2 MLOAD DUP2 LT PUSH2 0x29BA JUMPI INVALID JUMPDEST PUSH1 0x20 MUL PUSH1 0x20 ADD ADD DUP2 DUP2 MSTORE POP POP DUP2 DUP8 DUP5 DUP2 MLOAD DUP2 LT PUSH2 0x29D3 JUMPI INVALID JUMPDEST PUSH1 0x20 SWAP1 DUP2 MUL SWAP2 SWAP1 SWAP2 ADD ADD MSTORE POP POP PUSH1 0x1 ADD PUSH2 0x2893 JUMP JUMPDEST POP POP POP SWAP4 POP SWAP4 SWAP2 POP POP JUMP JUMPDEST PUSH1 0x40 DUP1 MLOAD PUSH1 0x60 DUP2 DUP2 ADD SWAP1 SWAP3 MSTORE PUSH2 0x1269 SWAP1 DUP1 PUSH2 0x2A12 DUP7 DUP10 PUSH1 0x80 DUP5 ADD PUSH2 0x97C6 JUMP JUMPDEST PUSH1 0x40 MLOAD PUSH1 0x20 DUP2 DUP4 SUB SUB DUP2 MSTORE SWAP1 PUSH1 0x40 MSTORE DUP2 MSTORE PUSH1 0x20 ADD DUP7 DUP9 PUSH1 0x40 MLOAD PUSH1 0x20 ADD PUSH2 0x2A39 SWAP3 SWAP2 SWAP1 PUSH2 0x97C6 JUMP JUMPDEST PUSH1 0x40 MLOAD PUSH1 0x20 DUP2 DUP4 SUB SUB DUP2 MSTORE SWAP1 PUSH1 0x40 MSTORE DUP2 MSTORE PUSH1 0x20 ADD PUSH2 0x6E2B DUP2 MSTORE POP DUP4 PUSH2 0x6362 JUMP JUMPDEST PUSH1 0x60 PUSH2 0x2A66 DUP5 DUP5 DUP5 PUSH2 0x8D4 JUMP JUMPDEST SWAP1 POP PUSH1 0x0 JUMPDEST DUP5 MLOAD DUP2 LT ISZERO PUSH2 0xA3F JUMPI DUP2 DUP2 DUP2 MLOAD DUP2 LT PUSH2 0x2A80 JUMPI INVALID JUMPDEST PUSH1 0x20 MUL PUSH1 0x20 ADD ADD MLOAD PUSH1 0x0 EQ PUSH2 0x2B06 JUMPI PUSH2 0x2AED DUP3 DUP3 DUP2 MLOAD DUP2 LT PUSH2 0x2A9E JUMPI INVALID JUMPDEST PUSH1 0x20 MUL PUSH1 0x20 ADD ADD MLOAD DUP7 DUP4 DUP2 MLOAD DUP2 LT PUSH2 0x2AB2 JUMPI INVALID JUMPDEST PUSH1 0x20 MUL PUSH1 0x20 ADD ADD MLOAD PUSH1 0x60 ADD MLOAD PUSH1 0x1 PUSH1 0x1 PUSH1 0x80 SHL SUB AND DUP8 DUP5 DUP2 MLOAD DUP2 LT PUSH2 0x2AD3 JUMPI INVALID JUMPDEST PUSH1 0x20 MUL PUSH1 0x20 ADD ADD MLOAD PUSH1 0x40 ADD MLOAD PUSH1 0x1 PUSH1 0x1 PUSH1 0x80 SHL SUB AND PUSH2 0x6F3F JUMP JUMPDEST DUP3 DUP3 DUP2 MLOAD DUP2 LT PUSH2 0x2AF9 JUMPI INVALID JUMPDEST PUSH1 0x20 MUL PUSH1 0x20 ADD ADD DUP2 DUP2 MSTORE POP POP JUMPDEST PUSH1 0x1 ADD PUSH2 0x2A6B JUMP JUMPDEST PUSH1 0x60 DUP2 PUSH1 0x1 PUSH1 0x1 PUSH1 0x40 SHL SUB DUP2 GT DUP1 ISZERO PUSH2 0x2B26 JUMPI PUSH1 0x0 DUP1 REVERT JUMPDEST POP PUSH1 0x40 MLOAD SWAP1 DUP1 DUP3 MSTORE DUP1 PUSH1 0x20 MUL PUSH1 0x20 ADD DUP3 ADD PUSH1 0x40 MSTORE DUP1 ISZERO PUSH2 0x2B60 JUMPI DUP2 PUSH1 0x20 ADD JUMPDEST PUSH2 0x2B4D PUSH2 0x7EFB JUMP JUMPDEST DUP2 MSTORE PUSH1 0x20 ADD SWAP1 PUSH1 0x1 SWAP1 SUB SWAP1 DUP2 PUSH2 0x2B45 JUMPI SWAP1 POP JUMPDEST POP SWAP1 POP PUSH1 0x0 JUMPDEST DUP1 DUP4 EQ PUSH2 0x2C68 JUMPI PUSH1 0x1 DUP3 DUP3 DUP2 MLOAD DUP2 LT PUSH2 0x2B7B JUMPI INVALID JUMPDEST PUSH1 0x20 SWAP1 DUP2 MUL SWAP2 SWAP1 SWAP2 ADD DUP2 ADD MLOAD SWAP2 ISZERO ISZERO SWAP2 ADD MSTORE DUP4 DUP4 DUP3 DUP2 DUP2 LT PUSH2 0x2B99 JUMPI INVALID JUMPDEST SWAP1 POP PUSH1 0x20 MUL DUP2 ADD SWAP1 PUSH2 0x2BAB SWAP2 SWAP1 PUSH2 0xA017 JUMP JUMPDEST ISZERO ISZERO SWAP1 POP PUSH2 0x2BB8 JUMPI PUSH2 0x2C60 JUMP JUMPDEST ADDRESS DUP5 DUP5 DUP4 DUP2 DUP2 LT PUSH2 0x2BC5 JUMPI INVALID JUMPDEST SWAP1 POP PUSH1 0x20 MUL DUP2 ADD SWAP1 PUSH2 0x2BD7 SWAP2 SWAP1 PUSH2 0xA017 JUMP JUMPDEST PUSH1 0x40 MLOAD PUSH2 0x2BE5 SWAP3 SWAP2 SWAP1 PUSH2 0x976D JUMP JUMPDEST PUSH1 0x0 PUSH1 0x40 MLOAD DUP1 DUP4 SUB DUP2 PUSH1 0x0 DUP7 GAS CALL SWAP2 POP POP RETURNDATASIZE DUP1 PUSH1 0x0 DUP2 EQ PUSH2 0x2C22 JUMPI PUSH1 0x40 MLOAD SWAP2 POP PUSH1 0x1F NOT PUSH1 0x3F RETURNDATASIZE ADD AND DUP3 ADD PUSH1 0x40 MSTORE RETURNDATASIZE DUP3 MSTORE RETURNDATASIZE PUSH1 0x0 PUSH1 0x20 DUP5 ADD RETURNDATACOPY PUSH2 0x2C27 JUMP JUMPDEST PUSH1 0x60 SWAP2 POP JUMPDEST POP DUP4 DUP4 DUP2 MLOAD DUP2 LT PUSH2 0x2C34 JUMPI INVALID JUMPDEST PUSH1 0x20 MUL PUSH1 0x20 ADD ADD MLOAD PUSH1 0x20 ADD DUP5 DUP5 DUP2 MLOAD DUP2 LT PUSH2 0x2C4B JUMPI INVALID JUMPDEST PUSH1 0x20 SWAP1 DUP2 MUL SWAP2 SWAP1 SWAP2 ADD ADD MLOAD SWAP2 SWAP1 SWAP2 MSTORE SWAP1 ISZERO ISZERO SWAP1 MSTORE JUMPDEST PUSH1 0x1 ADD PUSH2 0x2B66 JUMP JUMPDEST POP SWAP3 SWAP2 POP POP JUMP JUMPDEST PUSH1 0x60 DUP2 MLOAD PUSH1 0x1 PUSH1 0x1 PUSH1 0x40 SHL SUB DUP2 GT DUP1 ISZERO PUSH2 0x2C88 JUMPI PUSH1 0x0 DUP1 REVERT JUMPDEST POP PUSH1 0x40 MLOAD SWAP1 DUP1 DUP3 MSTORE DUP1 PUSH1 0x20 MUL PUSH1 0x20 ADD DUP3 ADD PUSH1 0x40 MSTORE DUP1 ISZERO PUSH2 0x2CB2 JUMPI DUP2 PUSH1 0x20 ADD PUSH1 0x20 DUP3 MUL DUP1 CALLDATASIZE DUP4 CALLDATACOPY ADD SWAP1 POP JUMPDEST POP SWAP1 POP PUSH1 0x0 JUMPDEST DUP3 MLOAD DUP2 EQ PUSH2 0x2D5B JUMPI PUSH32 0x0 PUSH1 0x1 PUSH1 0x1 PUSH1 0xA0 SHL SUB AND DUP4 DUP3 DUP2 MLOAD DUP2 LT PUSH2 0x2CF6 JUMPI INVALID JUMPDEST PUSH1 0x20 MUL PUSH1 0x20 ADD ADD MLOAD PUSH1 0x1 PUSH1 0x1 PUSH1 0xA0 SHL SUB AND EQ PUSH2 0x2D36 JUMPI PUSH2 0x2D31 DUP4 DUP3 DUP2 MLOAD DUP2 LT PUSH2 0x2D1B JUMPI INVALID JUMPDEST PUSH1 0x20 MUL PUSH1 0x20 ADD ADD MLOAD PUSH1 0x1 PUSH1 0x1 PUSH1 0xA0 SHL SUB AND PUSH2 0x6F63 JUMP JUMPDEST PUSH2 0x2D39 JUMP JUMPDEST PUSH1 0x12 JUMPDEST PUSH1 0xFF AND DUP3 DUP3 DUP2 MLOAD DUP2 LT PUSH2 0x2D48 JUMPI INVALID JUMPDEST PUSH1 0x20 SWAP1 DUP2 MUL SWAP2 SWAP1 SWAP2 ADD ADD MSTORE PUSH1 0x1 ADD PUSH2 0x2CB8 JUMP JUMPDEST POP SWAP2 SWAP1 POP JUMP JUMPDEST PUSH1 0x0 PUSH1 0x60 DUP1 SWAP5 POP SWAP5 POP SWAP5 SWAP2 POP POP JUMP JUMPDEST PUSH1 0x60 PUSH2 0x2D7C DUP4 DUP6 PUSH2 0x5D15 JUMP JUMPDEST PUSH1 0x0 DUP6 PUSH1 0x0 ADD MLOAD SWAP1 POP PUSH1 0x0 DUP2 PUSH1 0x1 PUSH1 0x1 PUSH1 0xA0 SHL SUB AND PUSH4 0x36569E77 PUSH1 0x40 MLOAD DUP2 PUSH4 0xFFFFFFFF AND PUSH1 0xE0 SHL DUP2 MSTORE PUSH1 0x4 ADD PUSH1 0x20 PUSH1 0x40 MLOAD DUP1 DUP4 SUB DUP2 DUP7 DUP1 EXTCODESIZE ISZERO DUP1 ISZERO PUSH2 0x2DC0 JUMPI PUSH1 0x0 DUP1 REVERT JUMPDEST POP GAS STATICCALL ISZERO DUP1 ISZERO PUSH2 0x2DD4 JUMPI RETURNDATASIZE PUSH1 0x0 DUP1 RETURNDATACOPY RETURNDATASIZE PUSH1 0x0 REVERT JUMPDEST POP POP POP POP PUSH1 0x40 MLOAD RETURNDATASIZE PUSH1 0x1F NOT PUSH1 0x1F DUP3 ADD AND DUP3 ADD DUP1 PUSH1 0x40 MSTORE POP DUP2 ADD SWAP1 PUSH2 0x2DF8 SWAP2 SWAP1 PUSH2 0x868D JUMP JUMPDEST DUP5 MLOAD SWAP1 SWAP2 POP DUP1 PUSH1 0x1 PUSH1 0x1 PUSH1 0x40 SHL SUB DUP2 GT DUP1 ISZERO PUSH2 0x2E13 JUMPI PUSH1 0x0 DUP1 REVERT JUMPDEST POP PUSH1 0x40 MLOAD SWAP1 DUP1 DUP3 MSTORE DUP1 PUSH1 0x20 MUL PUSH1 0x20 ADD DUP3 ADD PUSH1 0x40 MSTORE DUP1 ISZERO PUSH2 0x2E3D JUMPI DUP2 PUSH1 0x20 ADD PUSH1 0x20 DUP3 MUL DUP1 CALLDATASIZE DUP4 CALLDATACOPY ADD SWAP1 POP JUMPDEST POP SWAP4 POP DUP3 PUSH1 0x1 PUSH1 0x1 PUSH1 0xA0 SHL SUB AND PUSH4 0xF4B9FA75 PUSH1 0x40 MLOAD DUP2 PUSH4 0xFFFFFFFF AND PUSH1 0xE0 SHL DUP2 MSTORE PUSH1 0x4 ADD PUSH1 0x20 PUSH1 0x40 MLOAD DUP1 DUP4 SUB DUP2 DUP7 DUP1 EXTCODESIZE ISZERO DUP1 ISZERO PUSH2 0x2E79 JUMPI PUSH1 0x0 DUP1 REVERT JUMPDEST POP GAS STATICCALL ISZERO DUP1 ISZERO PUSH2 0x2E8D JUMPI RETURNDATASIZE PUSH1 0x0 DUP1 RETURNDATACOPY RETURNDATASIZE PUSH1 0x0 REVERT JUMPDEST POP POP POP POP PUSH1 0x40 MLOAD RETURNDATASIZE PUSH1 0x1F NOT PUSH1 0x1F DUP3 ADD AND DUP3 ADD DUP1 PUSH1 0x40 MSTORE POP DUP2 ADD SWAP1 PUSH2 0x2EB1 SWAP2 SWAP1 PUSH2 0x868D JUMP JUMPDEST PUSH1 0x1 PUSH1 0x1 PUSH1 0xA0 SHL SUB AND DUP7 PUSH1 0x1 PUSH1 0x1 PUSH1 0xA0 SHL SUB AND EQ ISZERO DUP1 ISZERO PUSH2 0x2F54 JUMPI POP DUP3 PUSH1 0x1 PUSH1 0x1 PUSH1 0xA0 SHL SUB AND PUSH4 0xF4B9FA75 PUSH1 0x40 MLOAD DUP2 PUSH4 0xFFFFFFFF AND PUSH1 0xE0 SHL DUP2 MSTORE PUSH1 0x4 ADD PUSH1 0x20 PUSH1 0x40 MLOAD DUP1 DUP4 SUB DUP2 DUP7 DUP1 EXTCODESIZE ISZERO DUP1 ISZERO PUSH2 0x2F06 JUMPI PUSH1 0x0 DUP1 REVERT JUMPDEST POP GAS STATICCALL ISZERO DUP1 ISZERO PUSH2 0x2F1A JUMPI RETURNDATASIZE PUSH1 0x0 DUP1 RETURNDATACOPY RETURNDATASIZE PUSH1 0x0 REVERT JUMPDEST POP POP POP POP PUSH1 0x40 MLOAD RETURNDATASIZE PUSH1 0x1F NOT PUSH1 0x1F DUP3 ADD AND DUP3 ADD DUP1 PUSH1 0x40 MSTORE POP DUP2 ADD SWAP1 PUSH2 0x2F3E SWAP2 SWAP1 PUSH2 0x868D JUMP JUMPDEST PUSH1 0x1 PUSH1 0x1 PUSH1 0xA0 SHL SUB AND DUP8 PUSH1 0x1 PUSH1 0x1 PUSH1 0xA0 SHL SUB AND EQ ISZERO JUMPDEST ISZERO PUSH2 0x2F61 JUMPI POP POP POP PUSH2 0x11FB JUMP JUMPDEST PUSH1 0x0 JUMPDEST DUP2 DUP2 LT ISZERO PUSH2 0xFA2 JUMPI PUSH1 0x0 PUSH2 0x2F8F DUP11 DUP10 DUP12 DUP11 DUP7 DUP2 MLOAD DUP2 LT PUSH2 0x2F80 JUMPI INVALID JUMPDEST PUSH1 0x20 MUL PUSH1 0x20 ADD ADD MLOAD DUP10 DUP10 PUSH2 0x700F JUMP JUMPDEST SWAP1 POP DUP1 PUSH2 0x2F9C JUMPI POP PUSH2 0xFA2 JUMP JUMPDEST DUP1 DUP7 DUP4 DUP2 MLOAD DUP2 LT PUSH2 0x2FA9 JUMPI INVALID JUMPDEST PUSH1 0x20 SWAP1 DUP2 MUL SWAP2 SWAP1 SWAP2 ADD ADD MSTORE POP PUSH1 0x1 ADD PUSH2 0x2F64 JUMP JUMPDEST PUSH1 0x60 PUSH1 0x0 DUP6 PUSH1 0x0 ADD MLOAD PUSH1 0x1 PUSH1 0x1 PUSH1 0xA0 SHL SUB AND PUSH4 0xBBD7F255 DUP6 PUSH1 0xF SIGNEXTEND PUSH1 0x40 MLOAD DUP3 PUSH4 0xFFFFFFFF AND PUSH1 0xE0 SHL DUP2 MSTORE PUSH1 0x4 ADD PUSH2 0x2FF4 SWAP2 SWAP1 PUSH2 0x9BC9 JUMP JUMPDEST PUSH1 0x20 PUSH1 0x40 MLOAD DUP1 DUP4 SUB DUP2 DUP7 DUP1 EXTCODESIZE ISZERO DUP1 ISZERO PUSH2 0x300C JUMPI PUSH1 0x0 DUP1 REVERT JUMPDEST POP GAS STATICCALL ISZERO DUP1 ISZERO PUSH2 0x3020 JUMPI RETURNDATASIZE PUSH1 0x0 DUP1 RETURNDATACOPY RETURNDATASIZE PUSH1 0x0 REVERT JUMPDEST POP POP POP POP PUSH1 0x40 MLOAD RETURNDATASIZE PUSH1 0x1F NOT PUSH1 0x1F DUP3 ADD AND DUP3 ADD DUP1 PUSH1 0x40 MSTORE POP DUP2 ADD SWAP1 PUSH2 0x3044 SWAP2 SWAP1 PUSH2 0x8EE5 JUMP JUMPDEST DUP7 MLOAD PUSH1 0x40 MLOAD PUSH4 0x1E010439 PUSH1 0xE0 SHL DUP2 MSTORE PUSH1 0x1 PUSH1 0x1 PUSH1 0xA0 SHL SUB SWAP1 SWAP2 AND SWAP1 PUSH4 0x1E010439 SWAP1 PUSH2 0x3077 SWAP1 PUSH1 0xF DUP10 SWAP1 SIGNEXTEND SWAP1 PUSH1 0x4 ADD PUSH2 0x9BC9 JUMP JUMPDEST PUSH1 0x20 PUSH1 0x40 MLOAD DUP1 DUP4 SUB DUP2 DUP7 DUP1 EXTCODESIZE ISZERO DUP1 ISZERO PUSH2 0x308F JUMPI PUSH1 0x0 DUP1 REVERT JUMPDEST POP GAS STATICCALL ISZERO DUP1 ISZERO PUSH2 0x30A3 JUMPI RETURNDATASIZE PUSH1 0x0 DUP1 RETURNDATACOPY RETURNDATASIZE PUSH1 0x0 REVERT JUMPDEST POP POP POP POP PUSH1 0x40 MLOAD RETURNDATASIZE PUSH1 0x1F NOT PUSH1 0x1F DUP3 ADD AND DUP3 ADD DUP1 PUSH1 0x40 MSTORE POP DUP2 ADD SWAP1 PUSH2 0x30C7 SWAP2 SWAP1 PUSH2 0x8EE5 JUMP JUMPDEST SUB SWAP1 POP PUSH1 0x0 DUP7 PUSH1 0x0 ADD MLOAD PUSH1 0x1 PUSH1 0x1 PUSH1 0xA0 SHL SUB AND PUSH4 0xC5829514 DUP7 PUSH1 0xF SIGNEXTEND PUSH1 0x40 MLOAD DUP3 PUSH4 0xFFFFFFFF AND PUSH1 0xE0 SHL DUP2 MSTORE PUSH1 0x4 ADD PUSH2 0x30FF SWAP2 SWAP1 PUSH2 0x9BC9 JUMP JUMPDEST PUSH1 0x80 PUSH1 0x40 MLOAD DUP1 DUP4 SUB DUP2 DUP7 DUP1 EXTCODESIZE ISZERO DUP1 ISZERO PUSH2 0x3117 JUMPI PUSH1 0x0 DUP1 REVERT JUMPDEST POP GAS STATICCALL ISZERO DUP1 ISZERO PUSH2 0x312B JUMPI RETURNDATASIZE PUSH1 0x0 DUP1 RETURNDATACOPY RETURNDATASIZE PUSH1 0x0 REVERT JUMPDEST POP POP POP POP PUSH1 0x40 MLOAD RETURNDATASIZE PUSH1 0x1F NOT PUSH1 0x1F DUP3 ADD AND DUP3 ADD DUP1 PUSH1 0x40 MSTORE POP DUP2 ADD SWAP1 PUSH2 0x314F SWAP2 SWAP1 PUSH2 0x9413 JUMP JUMPDEST SWAP4 POP POP POP POP DUP1 PUSH1 0x12 SUB PUSH1 0xA EXP DUP3 DUP2 PUSH2 0x3163 JUMPI INVALID JUMPDEST DUP6 MLOAD SWAP2 SWAP1 DIV SWAP3 POP DUP1 PUSH1 0x1 PUSH1 0x1 PUSH1 0x40 SHL SUB DUP2 GT DUP1 ISZERO PUSH2 0x3180 JUMPI PUSH1 0x0 DUP1 REVERT JUMPDEST POP PUSH1 0x40 MLOAD SWAP1 DUP1 DUP3 MSTORE DUP1 PUSH1 0x20 MUL PUSH1 0x20 ADD DUP3 ADD PUSH1 0x40 MSTORE DUP1 ISZERO PUSH2 0x31AA JUMPI DUP2 PUSH1 0x20 ADD PUSH1 0x20 DUP3 MUL DUP1 CALLDATASIZE DUP4 CALLDATACOPY ADD SWAP1 POP JUMPDEST POP SWAP4 POP PUSH1 0x0 JUMPDEST DUP2 DUP2 LT ISZERO PUSH2 0xFA2 JUMPI PUSH1 0x0 PUSH1 0x60 DUP11 PUSH1 0x0 ADD MLOAD PUSH1 0x1 PUSH1 0x1 PUSH1 0xA0 SHL SUB AND PUSH3 0x927C0 DUP13 PUSH1 0x20 ADD MLOAD DUP13 DUP13 DUP13 DUP9 DUP2 MLOAD DUP2 LT PUSH2 0x31E1 JUMPI INVALID JUMPDEST PUSH1 0x20 MUL PUSH1 0x20 ADD ADD MLOAD PUSH1 0x40 MLOAD PUSH1 0x24 ADD PUSH2 0x31FB SWAP4 SWAP3 SWAP2 SWAP1 PUSH2 0x9D45 JUMP JUMPDEST PUSH1 0x40 DUP1 MLOAD PUSH1 0x1F NOT DUP2 DUP5 SUB ADD DUP2 MSTORE SWAP2 DUP2 MSTORE PUSH1 0x20 DUP3 ADD DUP1 MLOAD PUSH1 0x1 PUSH1 0x1 PUSH1 0xE0 SHL SUB AND PUSH1 0x1 PUSH1 0x1 PUSH1 0xE0 SHL SUB NOT SWAP1 SWAP5 AND SWAP4 SWAP1 SWAP4 OR SWAP1 SWAP3 MSTORE SWAP1 MLOAD PUSH2 0x3239 SWAP2 SWAP1 PUSH2 0x977D JUMP JUMPDEST PUSH1 0x0 PUSH1 0x40 MLOAD DUP1 DUP4 SUB DUP2 DUP7 DUP7 STATICCALL SWAP3 POP POP POP RETURNDATASIZE DUP1 PUSH1 0x0 DUP2 EQ PUSH2 0x3275 JUMPI PUSH1 0x40 MLOAD SWAP2 POP PUSH1 0x1F NOT PUSH1 0x3F RETURNDATASIZE ADD AND DUP3 ADD PUSH1 0x40 MSTORE RETURNDATASIZE DUP3 MSTORE RETURNDATASIZE PUSH1 0x0 PUSH1 0x20 DUP5 ADD RETURNDATACOPY PUSH2 0x327A JUMP JUMPDEST PUSH1 0x60 SWAP2 POP JUMPDEST POP SWAP2 POP SWAP2 POP PUSH1 0x0 DUP3 ISZERO PUSH2 0x329E JUMPI DUP2 DUP1 PUSH1 0x20 ADD SWAP1 MLOAD DUP2 ADD SWAP1 PUSH2 0x329B SWAP2 SWAP1 PUSH2 0x8EE5 JUMP JUMPDEST SWAP1 POP JUMPDEST DUP7 DUP2 LT PUSH2 0x32D8 JUMPI DUP4 JUMPDEST DUP6 DUP2 LT ISZERO PUSH2 0x32CF JUMPI DUP8 DUP10 DUP3 DUP2 MLOAD DUP2 LT PUSH2 0x32BC JUMPI INVALID JUMPDEST PUSH1 0x20 SWAP1 DUP2 MUL SWAP2 SWAP1 SWAP2 ADD ADD MSTORE PUSH1 0x1 ADD PUSH2 0x32A7 JUMP JUMPDEST POP POP POP POP PUSH2 0xFA2 JUMP JUMPDEST DUP1 DUP9 DUP6 DUP2 MLOAD DUP2 LT PUSH2 0x32E5 JUMPI INVALID JUMPDEST PUSH1 0x20 MUL PUSH1 0x20 ADD ADD DUP2 DUP2 MSTORE POP POP DUP8 DUP5 DUP2 MLOAD DUP2 LT PUSH2 0x32FD JUMPI INVALID JUMPDEST PUSH1 0x20 MUL PUSH1 0x20 ADD ADD MLOAD PUSH1 0x0 EQ ISZERO PUSH2 0x3315 JUMPI POP POP POP PUSH2 0xFA2 JUMP JUMPDEST POP POP POP PUSH1 0x1 ADD PUSH2 0x31B0 JUMP JUMPDEST PUSH2 0x3328 PUSH2 0x7F13 JUMP JUMPDEST PUSH2 0x3330 PUSH2 0x7F13 JUMP JUMPDEST PUSH1 0x0 DUP1 DUP1 JUMPDEST DUP8 MLOAD DUP2 EQ PUSH2 0x3435 JUMPI PUSH2 0x337C PUSH1 0x20 DUP10 DUP4 DUP2 MLOAD DUP2 LT PUSH2 0x334E JUMPI INVALID JUMPDEST PUSH1 0x20 MUL PUSH1 0x20 ADD ADD MLOAD MLOAD SUB DUP8 DUP11 DUP5 DUP2 MLOAD DUP2 LT PUSH2 0x3365 JUMPI INVALID JUMPDEST PUSH1 0x20 MUL PUSH1 0x20 ADD ADD MLOAD PUSH2 0x72A1 SWAP1 SWAP3 SWAP2 SWAP1 PUSH4 0xFFFFFFFF AND JUMP JUMPDEST PUSH1 0x0 PUSH1 0x60 ADDRESS PUSH1 0x1 PUSH1 0x1 PUSH1 0xA0 SHL SUB AND DUP11 DUP5 DUP2 MLOAD DUP2 LT PUSH2 0x3396 JUMPI INVALID JUMPDEST PUSH1 0x20 MUL PUSH1 0x20 ADD ADD MLOAD PUSH1 0x40 MLOAD PUSH2 0x33AB SWAP2 SWAP1 PUSH2 0x977D JUMP JUMPDEST PUSH1 0x0 PUSH1 0x40 MLOAD DUP1 DUP4 SUB DUP2 PUSH1 0x0 DUP7 GAS CALL SWAP2 POP POP RETURNDATASIZE DUP1 PUSH1 0x0 DUP2 EQ PUSH2 0x33E8 JUMPI PUSH1 0x40 MLOAD SWAP2 POP PUSH1 0x1F NOT PUSH1 0x3F RETURNDATASIZE ADD AND DUP3 ADD PUSH1 0x40 MSTORE RETURNDATASIZE DUP3 MSTORE RETURNDATASIZE PUSH1 0x0 PUSH1 0x20 DUP5 ADD RETURNDATACOPY PUSH2 0x33ED JUMP JUMPDEST PUSH1 0x60 SWAP2 POP JUMPDEST POP SWAP2 POP SWAP2 POP DUP2 ISZERO PUSH2 0x342B JUMPI PUSH1 0x0 PUSH2 0x3411 PUSH1 0x20 DUP4 MLOAD SUB DUP4 PUSH2 0x72B1 SWAP1 SWAP2 SWAP1 PUSH4 0xFFFFFFFF AND JUMP JUMPDEST SWAP1 POP DUP5 DUP2 GT ISZERO PUSH2 0x3429 JUMPI DUP4 DUP9 MSTORE PUSH1 0x20 DUP9 ADD DUP3 SWAP1 MSTORE SWAP4 POP DUP4 JUMPDEST POP JUMPDEST POP POP PUSH1 0x1 ADD PUSH2 0x3335 JUMP JUMPDEST POP DUP1 PUSH2 0x3441 JUMPI POP PUSH2 0x3530 JUMP JUMPDEST PUSH1 0x0 JUMPDEST DUP7 MLOAD DUP2 EQ PUSH2 0x352D JUMPI PUSH2 0x3474 PUSH1 0x20 DUP9 DUP4 DUP2 MLOAD DUP2 LT PUSH2 0x345D JUMPI INVALID JUMPDEST PUSH1 0x20 MUL PUSH1 0x20 ADD ADD MLOAD MLOAD SUB DUP4 DUP10 DUP5 DUP2 MLOAD DUP2 LT PUSH2 0x3365 JUMPI INVALID JUMPDEST PUSH1 0x0 PUSH1 0x60 ADDRESS PUSH1 0x1 PUSH1 0x1 PUSH1 0xA0 SHL SUB AND DUP10 DUP5 DUP2 MLOAD DUP2 LT PUSH2 0x348E JUMPI INVALID JUMPDEST PUSH1 0x20 MUL PUSH1 0x20 ADD ADD MLOAD PUSH1 0x40 MLOAD PUSH2 0x34A3 SWAP2 SWAP1 PUSH2 0x977D JUMP JUMPDEST PUSH1 0x0 PUSH1 0x40 MLOAD DUP1 DUP4 SUB DUP2 PUSH1 0x0 DUP7 GAS CALL SWAP2 POP POP RETURNDATASIZE DUP1 PUSH1 0x0 DUP2 EQ PUSH2 0x34E0 JUMPI PUSH1 0x40 MLOAD SWAP2 POP PUSH1 0x1F NOT PUSH1 0x3F RETURNDATASIZE ADD AND DUP3 ADD PUSH1 0x40 MSTORE RETURNDATASIZE DUP3 MSTORE RETURNDATASIZE PUSH1 0x0 PUSH1 0x20 DUP5 ADD RETURNDATACOPY PUSH2 0x34E5 JUMP JUMPDEST PUSH1 0x60 SWAP2 POP JUMPDEST POP SWAP2 POP SWAP2 POP DUP2 ISZERO PUSH2 0x3523 JUMPI PUSH1 0x0 PUSH2 0x3509 PUSH1 0x20 DUP4 MLOAD SUB DUP4 PUSH2 0x72B1 SWAP1 SWAP2 SWAP1 PUSH4 0xFFFFFFFF AND JUMP JUMPDEST SWAP1 POP DUP6 DUP2 GT ISZERO PUSH2 0x3521 JUMPI DUP4 DUP8 MSTORE PUSH1 0x20 DUP8 ADD DUP3 SWAP1 MSTORE SWAP5 POP DUP5 JUMPDEST POP JUMPDEST POP POP PUSH1 0x1 ADD PUSH2 0x3444 JUMP JUMPDEST POP POP JUMPDEST SWAP4 POP SWAP4 POP SWAP4 SWAP1 POP JUMP JUMPDEST PUSH1 0x40 DUP5 ADD MLOAD PUSH1 0x60 SWAP1 PUSH1 0x1 PUSH1 0x1 PUSH1 0xE0 SHL SUB NOT AND PUSH2 0x35BB JUMPI PUSH1 0x40 DUP1 MLOAD PUSH1 0x60 DUP2 ADD SWAP1 SWAP2 MSTORE PUSH2 0x35B4 SWAP1 DUP1 PUSH2 0x356D DUP7 DUP10 PUSH1 0x80 DUP5 ADD PUSH2 0x9D63 JUMP JUMPDEST PUSH1 0x40 MLOAD PUSH1 0x20 DUP2 DUP4 SUB SUB DUP2 MSTORE SWAP1 PUSH1 0x40 MSTORE DUP2 MSTORE PUSH1 0x20 ADD DUP7 DUP9 PUSH1 0x40 MLOAD PUSH1 0x20 ADD PUSH2 0x3594 SWAP3 SWAP2 SWAP1 PUSH2 0x9D63 JUMP JUMPDEST PUSH1 0x40 MLOAD PUSH1 0x20 DUP2 DUP4 SUB SUB DUP2 MSTORE SWAP1 PUSH1 0x40 MSTORE DUP2 MSTORE PUSH1 0x20 ADD PUSH2 0x72BD DUP2 MSTORE POP DUP4 PUSH2 0x6362 JUMP JUMPDEST SWAP1 POP PUSH2 0x11FB JUMP JUMPDEST DUP2 MLOAD DUP1 PUSH1 0x1 PUSH1 0x1 PUSH1 0x40 SHL SUB DUP2 GT DUP1 ISZERO PUSH2 0x35D3 JUMPI PUSH1 0x0 DUP1 REVERT JUMPDEST POP PUSH1 0x40 MLOAD SWAP1 DUP1 DUP3 MSTORE DUP1 PUSH1 0x20 MUL PUSH1 0x20 ADD DUP3 ADD PUSH1 0x40 MSTORE DUP1 ISZERO PUSH2 0x35FD JUMPI DUP2 PUSH1 0x20 ADD PUSH1 0x20 DUP3 MUL DUP1 CALLDATASIZE DUP4 CALLDATACOPY ADD SWAP1 POP JUMPDEST POP SWAP2 POP PUSH1 0x0 JUMPDEST DUP2 DUP2 LT ISZERO PUSH2 0x1842 JUMPI PUSH1 0x0 PUSH1 0x60 DUP9 PUSH1 0x0 ADD MLOAD PUSH1 0x1 PUSH1 0x1 PUSH1 0xA0 SHL SUB AND PUSH3 0x1E8480 DUP11 PUSH1 0x40 ADD MLOAD DUP11 DUP11 DUP11 DUP9 DUP2 MLOAD DUP2 LT PUSH2 0x3634 JUMPI INVALID JUMPDEST PUSH1 0x20 MUL PUSH1 0x20 ADD ADD MLOAD PUSH1 0x40 MLOAD PUSH1 0x24 ADD PUSH2 0x364E SWAP4 SWAP3 SWAP2 SWAP1 PUSH2 0x9D45 JUMP JUMPDEST PUSH1 0x40 DUP1 MLOAD PUSH1 0x1F NOT DUP2 DUP5 SUB ADD DUP2 MSTORE SWAP2 DUP2 MSTORE PUSH1 0x20 DUP3 ADD DUP1 MLOAD PUSH1 0x1 PUSH1 0x1 PUSH1 0xE0 SHL SUB AND PUSH1 0x1 PUSH1 0x1 PUSH1 0xE0 SHL SUB NOT SWAP1 SWAP5 AND SWAP4 SWAP1 SWAP4 OR SWAP1 SWAP3 MSTORE SWAP1 MLOAD PUSH2 0x368C SWAP2 SWAP1 PUSH2 0x977D JUMP JUMPDEST PUSH1 0x0 PUSH1 0x40 MLOAD DUP1 DUP4 SUB DUP2 DUP7 DUP7 STATICCALL SWAP3 POP POP POP RETURNDATASIZE DUP1 PUSH1 0x0 DUP2 EQ PUSH2 0x36C8 JUMPI PUSH1 0x40 MLOAD SWAP2 POP PUSH1 0x1F NOT PUSH1 0x3F RETURNDATASIZE ADD AND DUP3 ADD PUSH1 0x40 MSTORE RETURNDATASIZE DUP3 MSTORE RETURNDATASIZE PUSH1 0x0 PUSH1 0x20 DUP5 ADD RETURNDATACOPY PUSH2 0x36CD JUMP JUMPDEST PUSH1 0x60 SWAP2 POP JUMPDEST POP SWAP2 POP SWAP2 POP PUSH1 0x0 DUP3 ISZERO PUSH2 0x36F1 JUMPI DUP2 DUP1 PUSH1 0x20 ADD SWAP1 MLOAD DUP2 ADD SWAP1 PUSH2 0x36EE SWAP2 SWAP1 PUSH2 0x8EE5 JUMP JUMPDEST SWAP1 POP JUMPDEST DUP1 DUP7 DUP6 DUP2 MLOAD DUP2 LT PUSH2 0x36FE JUMPI INVALID JUMPDEST PUSH1 0x20 MUL PUSH1 0x20 ADD ADD DUP2 DUP2 MSTORE POP POP DUP6 DUP5 DUP2 MLOAD DUP2 LT PUSH2 0x3716 JUMPI INVALID JUMPDEST PUSH1 0x20 MUL PUSH1 0x20 ADD ADD MLOAD PUSH1 0x0 EQ ISZERO PUSH2 0x372E JUMPI POP POP POP PUSH2 0x1842 JUMP JUMPDEST POP POP POP PUSH1 0x1 ADD PUSH2 0x3603 JUMP JUMPDEST DUP1 MLOAD PUSH1 0x60 SWAP1 DUP6 SWAP1 DUP1 PUSH1 0x1 PUSH1 0x1 PUSH1 0x40 SHL SUB DUP2 GT DUP1 ISZERO PUSH2 0x3756 JUMPI PUSH1 0x0 DUP1 REVERT JUMPDEST POP PUSH1 0x40 MLOAD SWAP1 DUP1 DUP3 MSTORE DUP1 PUSH1 0x20 MUL PUSH1 0x20 ADD DUP3 ADD PUSH1 0x40 MSTORE DUP1 ISZERO PUSH2 0x3780 JUMPI DUP2 PUSH1 0x20 ADD PUSH1 0x20 DUP3 MUL DUP1 CALLDATASIZE DUP4 CALLDATACOPY ADD SWAP1 POP JUMPDEST POP PUSH1 0x40 MLOAD PUSH4 0xBCDED89 PUSH1 0xE2 SHL DUP2 MSTORE SWAP1 SWAP4 POP PUSH1 0x1 PUSH1 0x1 PUSH1 0xA0 SHL SUB DUP4 AND SWAP1 PUSH4 0x2F37B624 SWAP1 PUSH2 0x37B0 SWAP1 DUP10 SWAP1 PUSH1 0x4 ADD PUSH2 0x9799 JUMP JUMPDEST PUSH1 0x20 PUSH1 0x40 MLOAD DUP1 DUP4 SUB DUP2 DUP7 DUP1 EXTCODESIZE ISZERO DUP1 ISZERO PUSH2 0x37C8 JUMPI PUSH1 0x0 DUP1 REVERT JUMPDEST POP GAS STATICCALL ISZERO DUP1 ISZERO PUSH2 0x37DC JUMPI RETURNDATASIZE PUSH1 0x0 DUP1 RETURNDATACOPY RETURNDATASIZE PUSH1 0x0 REVERT JUMPDEST POP POP POP POP PUSH1 0x40 MLOAD RETURNDATASIZE PUSH1 0x1F NOT PUSH1 0x1F DUP3 ADD AND DUP3 ADD DUP1 PUSH1 0x40 MSTORE POP DUP2 ADD SWAP1 PUSH2 0x3800 SWAP2 SWAP1 PUSH2 0x8EC5 JUMP JUMPDEST ISZERO DUP1 PUSH2 0x3885 JUMPI POP PUSH1 0x40 MLOAD PUSH4 0xBCDED89 PUSH1 0xE2 SHL DUP2 MSTORE PUSH1 0x1 PUSH1 0x1 PUSH1 0xA0 SHL SUB DUP4 AND SWAP1 PUSH4 0x2F37B624 SWAP1 PUSH2 0x3833 SWAP1 DUP9 SWAP1 PUSH1 0x4 ADD PUSH2 0x9799 JUMP JUMPDEST PUSH1 0x20 PUSH1 0x40 MLOAD DUP1 DUP4 SUB DUP2 DUP7 DUP1 EXTCODESIZE ISZERO DUP1 ISZERO PUSH2 0x384B JUMPI PUSH1 0x0 DUP1 REVERT JUMPDEST POP GAS STATICCALL ISZERO DUP1 ISZERO PUSH2 0x385F JUMPI RETURNDATASIZE PUSH1 0x0 DUP1 RETURNDATACOPY RETURNDATASIZE PUSH1 0x0 REVERT JUMPDEST POP POP POP POP PUSH1 0x40 MLOAD RETURNDATASIZE PUSH1 0x1F NOT PUSH1 0x1F DUP3 ADD AND DUP3 ADD DUP1 PUSH1 0x40 MSTORE POP DUP2 ADD SWAP1 PUSH2 0x3883 SWAP2 SWAP1 PUSH2 0x8EC5 JUMP JUMPDEST ISZERO JUMPDEST ISZERO PUSH2 0x3891 JUMPI POP POP PUSH2 0x11FB JUMP JUMPDEST PUSH2 0x3899 PUSH2 0x7ECC JUMP JUMPDEST PUSH1 0x40 MLOAD PUSH4 0xF8B2CB4F PUSH1 0xE0 SHL DUP2 MSTORE PUSH1 0x1 PUSH1 0x1 PUSH1 0xA0 SHL SUB DUP5 AND SWAP1 PUSH4 0xF8B2CB4F SWAP1 PUSH2 0x38C5 SWAP1 DUP11 SWAP1 PUSH1 0x4 ADD PUSH2 0x9799 JUMP JUMPDEST PUSH1 0x20 PUSH1 0x40 MLOAD DUP1 DUP4 SUB DUP2 DUP7 DUP1 EXTCODESIZE ISZERO DUP1 ISZERO PUSH2 0x38DD JUMPI PUSH1 0x0 DUP1 REVERT JUMPDEST POP GAS STATICCALL ISZERO DUP1 ISZERO PUSH2 0x38F1 JUMPI RETURNDATASIZE PUSH1 0x0 DUP1 RETURNDATACOPY RETURNDATASIZE PUSH1 0x0 REVERT JUMPDEST POP POP POP POP PUSH1 0x40 MLOAD RETURNDATASIZE PUSH1 0x1F NOT PUSH1 0x1F DUP3 ADD AND DUP3 ADD DUP1 PUSH1 0x40 MSTORE POP DUP2 ADD SWAP1 PUSH2 0x3915 SWAP2 SWAP1 PUSH2 0x8EE5 JUMP JUMPDEST DUP2 MSTORE PUSH1 0x40 MLOAD PUSH4 0xF8B2CB4F PUSH1 0xE0 SHL DUP2 MSTORE PUSH1 0x1 PUSH1 0x1 PUSH1 0xA0 SHL SUB DUP5 AND SWAP1 PUSH4 0xF8B2CB4F SWAP1 PUSH2 0x3943 SWAP1 DUP10 SWAP1 PUSH1 0x4 ADD PUSH2 0x9799 JUMP JUMPDEST PUSH1 0x20 PUSH1 0x40 MLOAD DUP1 DUP4 SUB DUP2 DUP7 DUP1 EXTCODESIZE ISZERO DUP1 ISZERO PUSH2 0x395B JUMPI PUSH1 0x0 DUP1 REVERT JUMPDEST POP GAS STATICCALL ISZERO DUP1 ISZERO PUSH2 0x396F JUMPI RETURNDATASIZE PUSH1 0x0 DUP1 RETURNDATACOPY RETURNDATASIZE PUSH1 0x0 REVERT JUMPDEST POP POP POP POP PUSH1 0x40 MLOAD RETURNDATASIZE PUSH1 0x1F NOT PUSH1 0x1F DUP3 ADD AND DUP3 ADD DUP1 PUSH1 0x40 MSTORE POP DUP2 ADD SWAP1 PUSH2 0x3993 SWAP2 SWAP1 PUSH2 0x8EE5 JUMP JUMPDEST PUSH1 0x20 DUP3 ADD MSTORE PUSH1 0x40 MLOAD PUSH4 0x4A46C673 PUSH1 0xE1 SHL DUP2 MSTORE PUSH1 0x1 PUSH1 0x1 PUSH1 0xA0 SHL SUB DUP5 AND SWAP1 PUSH4 0x948D8CE6 SWAP1 PUSH2 0x39C4 SWAP1 DUP11 SWAP1 PUSH1 0x4 ADD PUSH2 0x9799 JUMP JUMPDEST PUSH1 0x20 PUSH1 0x40 MLOAD DUP1 DUP4 SUB DUP2 DUP7 DUP1 EXTCODESIZE ISZERO DUP1 ISZERO PUSH2 0x39DC JUMPI PUSH1 0x0 DUP1 REVERT JUMPDEST POP GAS STATICCALL ISZERO DUP1 ISZERO PUSH2 0x39F0 JUMPI RETURNDATASIZE PUSH1 0x0 DUP1 RETURNDATACOPY RETURNDATASIZE PUSH1 0x0 REVERT JUMPDEST POP POP POP POP PUSH1 0x40 MLOAD RETURNDATASIZE PUSH1 0x1F NOT PUSH1 0x1F DUP3 ADD AND DUP3 ADD DUP1 PUSH1 0x40 MSTORE POP DUP2 ADD SWAP1 PUSH2 0x3A14 SWAP2 SWAP1 PUSH2 0x8EE5 JUMP JUMPDEST PUSH1 0x40 DUP1 DUP4 ADD SWAP2 SWAP1 SWAP2 MSTORE MLOAD PUSH4 0x4A46C673 PUSH1 0xE1 SHL DUP2 MSTORE PUSH1 0x1 PUSH1 0x1 PUSH1 0xA0 SHL SUB DUP5 AND SWAP1 PUSH4 0x948D8CE6 SWAP1 PUSH2 0x3A47 SWAP1 DUP10 SWAP1 PUSH1 0x4 ADD PUSH2 0x9799 JUMP JUMPDEST PUSH1 0x20 PUSH1 0x40 MLOAD DUP1 DUP4 SUB DUP2 DUP7 DUP1 EXTCODESIZE ISZERO DUP1 ISZERO PUSH2 0x3A5F JUMPI PUSH1 0x0 DUP1 REVERT JUMPDEST POP GAS STATICCALL ISZERO DUP1 ISZERO PUSH2 0x3A73 JUMPI RETURNDATASIZE PUSH1 0x0 DUP1 RETURNDATACOPY RETURNDATASIZE PUSH1 0x0 REVERT JUMPDEST POP POP POP POP PUSH1 0x40 MLOAD RETURNDATASIZE PUSH1 0x1F NOT PUSH1 0x1F DUP3 ADD AND DUP3 ADD DUP1 PUSH1 0x40 MSTORE POP DUP2 ADD SWAP1 PUSH2 0x3A97 SWAP2 SWAP1 PUSH2 0x8EE5 JUMP JUMPDEST DUP2 PUSH1 0x60 ADD DUP2 DUP2 MSTORE POP POP DUP3 PUSH1 0x1 PUSH1 0x1 PUSH1 0xA0 SHL SUB AND PUSH4 0xD4CADF68 PUSH1 0x40 MLOAD DUP2 PUSH4 0xFFFFFFFF AND PUSH1 0xE0 SHL DUP2 MSTORE PUSH1 0x4 ADD PUSH1 0x20 PUSH1 0x40 MLOAD DUP1 DUP4 SUB DUP2 DUP7 DUP1 EXTCODESIZE ISZERO DUP1 ISZERO PUSH2 0x3AD9 JUMPI PUSH1 0x0 DUP1 REVERT JUMPDEST POP GAS STATICCALL ISZERO DUP1 ISZERO PUSH2 0x3AED JUMPI RETURNDATASIZE PUSH1 0x0 DUP1 RETURNDATACOPY RETURNDATASIZE PUSH1 0x0 REVERT JUMPDEST POP POP POP POP PUSH1 0x40 MLOAD RETURNDATASIZE PUSH1 0x1F NOT PUSH1 0x1F DUP3 ADD AND DUP3 ADD DUP1 PUSH1 0x40 MSTORE POP DUP2 ADD SWAP1 PUSH2 0x3B11 SWAP2 SWAP1 PUSH2 0x8EE5 JUMP JUMPDEST PUSH1 0x80 DUP3 ADD MSTORE PUSH1 0x0 JUMPDEST DUP3 DUP2 LT ISZERO PUSH2 0xFA2 JUMPI DUP2 MLOAD PUSH2 0x3B37 SWAP1 PUSH1 0x2 PUSH8 0xDE0B6B3A7640000 PUSH2 0x2757 JUMP JUMPDEST DUP7 DUP3 DUP2 MLOAD DUP2 LT PUSH2 0x3B43 JUMPI INVALID JUMPDEST PUSH1 0x20 MUL PUSH1 0x20 ADD ADD MLOAD GT ISZERO PUSH2 0x3B56 JUMPI PUSH2 0xFA2 JUMP JUMPDEST DUP4 PUSH1 0x1 PUSH1 0x1 PUSH1 0xA0 SHL SUB AND PUSH4 0xBA9530A6 PUSH3 0x493E0 DUP5 PUSH1 0x0 ADD MLOAD DUP6 PUSH1 0x40 ADD MLOAD DUP7 PUSH1 0x20 ADD MLOAD DUP8 PUSH1 0x60 ADD MLOAD DUP13 DUP9 DUP2 MLOAD DUP2 LT PUSH2 0x3B89 JUMPI INVALID JUMPDEST PUSH1 0x20 MUL PUSH1 0x20 ADD ADD MLOAD DUP10 PUSH1 0x80 ADD MLOAD PUSH1 0x40 MLOAD DUP9 PUSH4 0xFFFFFFFF AND PUSH1 0xE0 SHL DUP2 MSTORE PUSH1 0x4 ADD PUSH2 0x3BB7 SWAP7 SWAP6 SWAP5 SWAP4 SWAP3 SWAP2 SWAP1 PUSH2 0x9FEF JUMP JUMPDEST PUSH1 0x20 PUSH1 0x40 MLOAD DUP1 DUP4 SUB DUP2 DUP8 DUP1 EXTCODESIZE ISZERO DUP1 ISZERO PUSH2 0x3BCF JUMPI PUSH1 0x0 DUP1 REVERT JUMPDEST POP DUP7 STATICCALL SWAP4 POP POP POP POP DUP1 ISZERO PUSH2 0x3C00 JUMPI POP PUSH1 0x40 DUP1 MLOAD PUSH1 0x1F RETURNDATASIZE SWAP1 DUP2 ADD PUSH1 0x1F NOT AND DUP3 ADD SWAP1 SWAP3 MSTORE PUSH2 0x3BFD SWAP2 DUP2 ADD SWAP1 PUSH2 0x8EE5 JUMP JUMPDEST PUSH1 0x1 JUMPDEST PUSH2 0x3C2E JUMPI RETURNDATASIZE DUP1 DUP1 ISZERO PUSH2 0x2739 JUMPI PUSH1 0x40 MLOAD SWAP2 POP PUSH1 0x1F NOT PUSH1 0x3F RETURNDATASIZE ADD AND DUP3 ADD PUSH1 0x40 MSTORE RETURNDATASIZE DUP3 MSTORE RETURNDATASIZE PUSH1 0x0 PUSH1 0x20 DUP5 ADD RETURNDATACOPY PUSH2 0x273E JUMP JUMPDEST DUP1 DUP7 DUP4 DUP2 MLOAD DUP2 LT PUSH2 0x3C3B JUMPI INVALID JUMPDEST PUSH1 0x20 MUL PUSH1 0x20 ADD ADD DUP2 DUP2 MSTORE POP POP DUP6 DUP3 DUP2 MLOAD DUP2 LT PUSH2 0x3C53 JUMPI INVALID JUMPDEST PUSH1 0x20 MUL PUSH1 0x20 ADD ADD MLOAD PUSH1 0x0 EQ ISZERO PUSH2 0x3C69 JUMPI POP PUSH2 0xFA2 JUMP JUMPDEST POP PUSH1 0x1 ADD PUSH2 0x3B19 JUMP JUMPDEST PUSH1 0x0 DUP1 DUP4 MLOAD PUSH1 0x3 DUP2 GT ISZERO PUSH2 0x3C82 JUMPI INVALID JUMPDEST EQ DUP1 PUSH2 0x3C9A JUMPI POP PUSH1 0x1 DUP4 MLOAD PUSH1 0x3 DUP2 GT ISZERO PUSH2 0x3C98 JUMPI INVALID JUMPDEST EQ JUMPDEST DUP1 PUSH2 0x3CB0 JUMPI POP PUSH1 0x40 DUP5 ADD MLOAD PUSH1 0x1 PUSH1 0x1 PUSH1 0x80 SHL SUB AND ISZERO JUMPDEST DUP1 PUSH2 0x3CC6 JUMPI POP PUSH1 0x60 DUP5 ADD MLOAD PUSH1 0x1 PUSH1 0x1 PUSH1 0x80 SHL SUB AND ISZERO JUMPDEST ISZERO PUSH2 0x3CD3 JUMPI POP PUSH1 0x0 PUSH2 0x3DB2 JUMP JUMPDEST PUSH2 0x3CDB PUSH2 0x7F2D JUMP JUMPDEST PUSH1 0x0 DUP1 DUP5 PUSH1 0x1 PUSH1 0x1 PUSH1 0xA0 SHL SUB AND PUSH4 0x1FB09795 DUP9 DUP9 PUSH1 0x40 MLOAD DUP4 PUSH4 0xFFFFFFFF AND PUSH1 0xE0 SHL DUP2 MSTORE PUSH1 0x4 ADD PUSH2 0x3D0C SWAP3 SWAP2 SWAP1 PUSH2 0x9F57 JUMP JUMPDEST PUSH1 0xA0 PUSH1 0x40 MLOAD DUP1 DUP4 SUB DUP2 DUP7 DUP1 EXTCODESIZE ISZERO DUP1 ISZERO PUSH2 0x3D24 JUMPI PUSH1 0x0 DUP1 REVERT JUMPDEST POP GAS STATICCALL ISZERO DUP1 ISZERO PUSH2 0x3D38 JUMPI RETURNDATASIZE PUSH1 0x0 DUP1 RETURNDATACOPY RETURNDATASIZE PUSH1 0x0 REVERT JUMPDEST POP POP POP POP PUSH1 0x40 MLOAD RETURNDATASIZE PUSH1 0x1F NOT PUSH1 0x1F DUP3 ADD AND DUP3 ADD DUP1 PUSH1 0x40 MSTORE POP DUP2 ADD SWAP1 PUSH2 0x3D5C SWAP2 SWAP1 PUSH2 0x9353 JUMP JUMPDEST SWAP2 SWAP5 POP SWAP3 POP SWAP1 POP PUSH1 0x1 DUP4 PUSH1 0x20 ADD MLOAD PUSH1 0x4 DUP2 GT ISZERO PUSH2 0x3D75 JUMPI INVALID JUMPDEST EQ ISZERO DUP1 PUSH2 0x3D80 JUMPI POP DUP1 ISZERO JUMPDEST DUP1 PUSH2 0x3D93 JUMPI POP DUP7 MLOAD PUSH1 0x1 PUSH1 0x1 PUSH1 0xA0 SHL SUB AND ISZERO JUMPDEST ISZERO PUSH2 0x3DA4 JUMPI PUSH1 0x0 SWAP4 POP POP POP POP PUSH2 0x3DB2 JUMP JUMPDEST POP PUSH1 0x1 PUSH1 0x1 PUSH1 0x80 SHL SUB AND SWAP2 POP POP JUMPDEST SWAP4 SWAP3 POP POP POP JUMP JUMPDEST PUSH1 0x0 PUSH1 0x60 DUP1 PUSH2 0x3DC8 DUP6 DUP8 PUSH2 0x5D15 JUMP JUMPDEST PUSH2 0x3DD3 DUP8 DUP8 DUP8 PUSH2 0x7311 JUMP JUMPDEST SWAP3 POP DUP3 PUSH2 0x3DDF JUMPI PUSH2 0xB9D JUMP JUMPDEST PUSH1 0x40 MLOAD PUSH4 0x276FDAD9 PUSH1 0xE1 SHL DUP2 MSTORE ADDRESS SWAP1 PUSH4 0x4EDFB5B2 SWAP1 PUSH2 0x3E08 SWAP1 DUP11 SWAP1 DUP8 SWAP1 DUP12 SWAP1 DUP12 SWAP1 PUSH1 0x4 ADD PUSH2 0x9F1E JUMP JUMPDEST PUSH1 0x0 PUSH1 0x40 MLOAD DUP1 DUP4 SUB DUP2 DUP7 DUP1 EXTCODESIZE ISZERO DUP1 ISZERO PUSH2 0x3E20 JUMPI PUSH1 0x0 DUP1 REVERT JUMPDEST POP GAS STATICCALL ISZERO DUP1 ISZERO PUSH2 0x3E34 JUMPI RETURNDATASIZE PUSH1 0x0 DUP1 RETURNDATACOPY RETURNDATASIZE PUSH1 0x0 REVERT JUMPDEST POP POP POP POP PUSH1 0x40 MLOAD RETURNDATASIZE PUSH1 0x0 DUP3 RETURNDATACOPY PUSH1 0x1F RETURNDATASIZE SWAP1 DUP2 ADD PUSH1 0x1F NOT AND DUP3 ADD PUSH1 0x40 MSTORE PUSH2 0x3E5C SWAP2 SWAP1 DUP2 ADD SWAP1 PUSH2 0x8EFD JUMP JUMPDEST DUP8 PUSH1 0x80 ADD DUP2 SWAP1 MSTORE POP DUP7 PUSH1 0x80 ADD MLOAD SWAP2 POP PUSH2 0x3ED3 PUSH1 0x40 MLOAD DUP1 PUSH1 0x60 ADD PUSH1 0x40 MSTORE DUP1 DUP8 DUP11 PUSH1 0x40 MLOAD PUSH1 0x20 ADD PUSH2 0x3E8C SWAP3 SWAP2 SWAP1 PUSH2 0x9A37 JUMP JUMPDEST PUSH1 0x40 MLOAD PUSH1 0x20 DUP2 DUP4 SUB SUB DUP2 MSTORE SWAP1 PUSH1 0x40 MSTORE DUP2 MSTORE PUSH1 0x20 ADD DUP9 DUP11 PUSH1 0x40 MLOAD PUSH1 0x20 ADD PUSH2 0x3EB3 SWAP3 SWAP2 SWAP1 PUSH2 0x9A37 JUMP JUMPDEST PUSH1 0x40 MLOAD PUSH1 0x20 DUP2 DUP4 SUB SUB DUP2 MSTORE SWAP1 PUSH1 0x40 MSTORE DUP2 MSTORE PUSH1 0x20 ADD PUSH2 0x7478 DUP2 MSTORE POP DUP6 PUSH2 0x6362 JUMP JUMPDEST SWAP1 POP SWAP5 POP SWAP5 POP SWAP5 SWAP2 POP POP JUMP JUMPDEST PUSH1 0x0 DUP1 DUP6 PUSH1 0x1 PUSH1 0x1 PUSH1 0xA0 SHL SUB AND PUSH4 0x901754D7 DUP7 DUP7 PUSH1 0x40 MLOAD DUP4 PUSH4 0xFFFFFFFF AND PUSH1 0xE0 SHL DUP2 MSTORE PUSH1 0x4 ADD PUSH2 0x3F10 SWAP3 SWAP2 SWAP1 PUSH2 0x97C6 JUMP JUMPDEST PUSH1 0x20 PUSH1 0x40 MLOAD DUP1 DUP4 SUB DUP2 DUP7 DUP1 EXTCODESIZE ISZERO DUP1 ISZERO PUSH2 0x3F28 JUMPI PUSH1 0x0 DUP1 REVERT JUMPDEST POP GAS STATICCALL ISZERO DUP1 ISZERO PUSH2 0x3F3C JUMPI RETURNDATASIZE PUSH1 0x0 DUP1 RETURNDATACOPY RETURNDATASIZE PUSH1 0x0 REVERT JUMPDEST POP POP POP POP PUSH1 0x40 MLOAD RETURNDATASIZE PUSH1 0x1F NOT PUSH1 0x1F DUP3 ADD AND DUP3 ADD DUP1 PUSH1 0x40 MSTORE POP DUP2 ADD SWAP1 PUSH2 0x3F60 SWAP2 SWAP1 PUSH2 0x868D JUMP JUMPDEST SWAP1 POP PUSH1 0x1 PUSH1 0x1 PUSH1 0xA0 SHL SUB DUP2 AND PUSH2 0x3F7A JUMPI PUSH1 0x0 SWAP2 POP POP PUSH2 0x11FB JUMP JUMPDEST PUSH1 0x0 PUSH1 0x1 PUSH1 0x1 PUSH1 0xA0 SHL SUB DUP7 AND ISZERO PUSH2 0x400C JUMPI PUSH1 0x40 MLOAD PUSH4 0x70A08231 PUSH1 0xE0 SHL DUP2 MSTORE PUSH1 0x1 PUSH1 0x1 PUSH1 0xA0 SHL SUB DUP8 AND SWAP1 PUSH4 0x70A08231 SWAP1 PUSH2 0x3FB7 SWAP1 DUP6 SWAP1 PUSH1 0x4 ADD PUSH2 0x9799 JUMP JUMPDEST PUSH1 0x20 PUSH1 0x40 MLOAD DUP1 DUP4 SUB DUP2 DUP7 DUP1 EXTCODESIZE ISZERO DUP1 ISZERO PUSH2 0x3FCF JUMPI PUSH1 0x0 DUP1 REVERT JUMPDEST POP GAS STATICCALL ISZERO DUP1 ISZERO PUSH2 0x3FE3 JUMPI RETURNDATASIZE PUSH1 0x0 DUP1 RETURNDATACOPY RETURNDATASIZE PUSH1 0x0 REVERT JUMPDEST POP POP POP POP PUSH1 0x40 MLOAD RETURNDATASIZE PUSH1 0x1F NOT PUSH1 0x1F DUP3 ADD AND DUP3 ADD DUP1 PUSH1 0x40 MSTORE POP DUP2 ADD SWAP1 PUSH2 0x4007 SWAP2 SWAP1 PUSH2 0x8EE5 JUMP JUMPDEST PUSH2 0x4018 JUMP JUMPDEST DUP2 PUSH1 0x1 PUSH1 0x1 PUSH1 0xA0 SHL SUB AND BALANCE JUMPDEST SWAP1 POP DUP4 DUP2 LT ISZERO PUSH2 0x402D JUMPI PUSH1 0x0 SWAP3 POP POP POP PUSH2 0x11FB JUMP JUMPDEST PUSH1 0x40 MLOAD PUSH4 0x3C2803F PUSH1 0xE3 SHL DUP2 MSTORE PUSH1 0x1 PUSH1 0x1 PUSH1 0xA0 SHL SUB DUP4 AND SWAP1 PUSH4 0x1E1401F8 SWAP1 PUSH3 0x249F0 SWAP1 PUSH2 0x4062 SWAP1 DUP11 SWAP1 DUP11 SWAP1 DUP11 SWAP1 PUSH1 0x4 ADD PUSH2 0x98C1 JUMP JUMPDEST PUSH1 0x20 PUSH1 0x40 MLOAD DUP1 DUP4 SUB DUP2 DUP8 DUP1 EXTCODESIZE ISZERO DUP1 ISZERO PUSH2 0x407A JUMPI PUSH1 0x0 DUP1 REVERT JUMPDEST POP DUP7 STATICCALL SWAP4 POP POP POP POP DUP1 ISZERO PUSH2 0x40AB JUMPI POP PUSH1 0x40 DUP1 MLOAD PUSH1 0x1F RETURNDATASIZE SWAP1 DUP2 ADD PUSH1 0x1F NOT AND DUP3 ADD SWAP1 SWAP3 MSTORE PUSH2 0x40A8 SWAP2 DUP2 ADD SWAP1 PUSH2 0x8EE5 JUMP JUMPDEST PUSH1 0x1 JUMPDEST PUSH2 0x40EB JUMPI RETURNDATASIZE DUP1 DUP1 ISZERO PUSH2 0x40D9 JUMPI PUSH1 0x40 MLOAD SWAP2 POP PUSH1 0x1F NOT PUSH1 0x3F RETURNDATASIZE ADD AND DUP3 ADD PUSH1 0x40 MSTORE RETURNDATASIZE DUP3 MSTORE RETURNDATASIZE PUSH1 0x0 PUSH1 0x20 DUP5 ADD RETURNDATACOPY PUSH2 0x40DE JUMP JUMPDEST PUSH1 0x60 SWAP2 POP JUMPDEST POP PUSH1 0x0 SWAP4 POP POP POP POP PUSH2 0x11FB JUMP JUMPDEST SWAP3 POP PUSH2 0x11FB SWAP2 POP POP JUMP JUMPDEST PUSH1 0x60 PUSH2 0x4101 DUP4 DUP6 PUSH2 0x5D15 JUMP JUMPDEST PUSH1 0x20 DUP6 ADD MLOAD PUSH1 0x40 DUP1 MLOAD PUSH1 0x2 DUP1 DUP3 MSTORE PUSH1 0x60 DUP3 DUP2 ADD SWAP1 SWAP4 MSTORE DUP2 PUSH1 0x20 ADD PUSH1 0x20 DUP3 MUL DUP1 CALLDATASIZE DUP4 CALLDATACOPY ADD SWAP1 POP POP SWAP1 POP DUP6 DUP2 PUSH1 0x0 DUP2 MLOAD DUP2 LT PUSH2 0x4137 JUMPI INVALID JUMPDEST PUSH1 0x20 MUL PUSH1 0x20 ADD ADD SWAP1 PUSH1 0x1 PUSH1 0x1 PUSH1 0xA0 SHL SUB AND SWAP1 DUP2 PUSH1 0x1 PUSH1 0x1 PUSH1 0xA0 SHL SUB AND DUP2 MSTORE POP POP DUP5 DUP2 PUSH1 0x1 DUP2 MLOAD DUP2 LT PUSH2 0x4165 JUMPI INVALID JUMPDEST PUSH1 0x1 PUSH1 0x1 PUSH1 0xA0 SHL SUB SWAP1 SWAP3 AND PUSH1 0x20 SWAP3 DUP4 MUL SWAP2 SWAP1 SWAP2 ADD SWAP1 SWAP2 ADD MSTORE DUP4 MLOAD DUP1 PUSH1 0x1 PUSH1 0x1 PUSH1 0x40 SHL SUB DUP2 GT DUP1 ISZERO PUSH2 0x4195 JUMPI PUSH1 0x0 DUP1 REVERT JUMPDEST POP PUSH1 0x40 MLOAD SWAP1 DUP1 DUP3 MSTORE DUP1 PUSH1 0x20 MUL PUSH1 0x20 ADD DUP3 ADD PUSH1 0x40 MSTORE DUP1 ISZERO PUSH2 0x41BF JUMPI DUP2 PUSH1 0x20 ADD PUSH1 0x20 DUP3 MUL DUP1 CALLDATASIZE DUP4 CALLDATACOPY ADD SWAP1 POP JUMPDEST POP SWAP4 POP PUSH2 0x41CA PUSH2 0x7EA5 JUMP JUMPDEST PUSH2 0x41D2 PUSH2 0x5D4B JUMP JUMPDEST SWAP1 POP PUSH1 0x0 JUMPDEST DUP3 DUP2 LT ISZERO PUSH2 0xDCB JUMPI PUSH1 0x60 PUSH2 0x41F1 DUP12 DUP10 DUP5 DUP2 MLOAD DUP2 LT PUSH2 0xCAD JUMPI INVALID JUMPDEST PUSH1 0x40 MLOAD PUSH4 0x7C268337 PUSH1 0xE1 SHL DUP2 MSTORE SWAP1 SWAP2 POP PUSH1 0x1 PUSH1 0x1 PUSH1 0xA0 SHL SUB DUP8 AND SWAP1 PUSH4 0xF84D066E SWAP1 PUSH2 0x4227 SWAP1 PUSH1 0x1 SWAP1 DUP6 SWAP1 DUP11 SWAP1 DUP10 SWAP1 PUSH1 0x4 ADD PUSH2 0x9C8C JUMP JUMPDEST PUSH1 0x0 PUSH1 0x40 MLOAD DUP1 DUP4 SUB DUP2 PUSH1 0x0 DUP8 DUP1 EXTCODESIZE ISZERO DUP1 ISZERO PUSH2 0x4241 JUMPI PUSH1 0x0 DUP1 REVERT JUMPDEST POP GAS CALL SWAP3 POP POP POP DUP1 ISZERO PUSH2 0x4276 JUMPI POP PUSH1 0x40 MLOAD RETURNDATASIZE PUSH1 0x0 DUP3 RETURNDATACOPY PUSH1 0x1F RETURNDATASIZE SWAP1 DUP2 ADD PUSH1 0x1F NOT AND DUP3 ADD PUSH1 0x40 MSTORE PUSH2 0x4273 SWAP2 SWAP1 DUP2 ADD SWAP1 PUSH2 0x8D41 JUMP JUMPDEST PUSH1 0x1 JUMPDEST PUSH2 0x42A4 JUMPI RETURNDATASIZE DUP1 DUP1 ISZERO PUSH2 0xD6D JUMPI PUSH1 0x40 MLOAD SWAP2 POP PUSH1 0x1F NOT PUSH1 0x3F RETURNDATASIZE ADD AND DUP3 ADD PUSH1 0x40 MSTORE RETURNDATASIZE DUP3 MSTORE RETURNDATASIZE PUSH1 0x0 PUSH1 0x20 DUP5 ADD RETURNDATACOPY PUSH2 0xD72 JUMP JUMPDEST PUSH1 0x0 DUP2 PUSH1 0x0 DUP2 MLOAD DUP2 LT PUSH2 0x42B3 JUMPI INVALID JUMPDEST PUSH1 0x20 MUL PUSH1 0x20 ADD ADD MLOAD SWAP1 POP PUSH1 0x0 DUP2 SGT PUSH2 0x42CD JUMPI POP POP POP PUSH2 0xDCB JUMP JUMPDEST DUP1 DUP10 DUP6 DUP2 MLOAD DUP2 LT PUSH2 0x42DA JUMPI INVALID JUMPDEST PUSH1 0x20 MUL PUSH1 0x20 ADD ADD DUP2 DUP2 MSTORE POP POP POP POP POP PUSH1 0x1 ADD PUSH2 0x41D7 JUMP JUMPDEST DUP1 MLOAD PUSH1 0x60 SWAP1 DUP1 PUSH1 0x1 PUSH1 0x1 PUSH1 0x40 SHL SUB DUP2 GT DUP1 ISZERO PUSH2 0x430C JUMPI PUSH1 0x0 DUP1 REVERT JUMPDEST POP PUSH1 0x40 MLOAD SWAP1 DUP1 DUP3 MSTORE DUP1 PUSH1 0x20 MUL PUSH1 0x20 ADD DUP3 ADD PUSH1 0x40 MSTORE DUP1 ISZERO PUSH2 0x4336 JUMPI DUP2 PUSH1 0x20 ADD PUSH1 0x20 DUP3 MUL DUP1 CALLDATASIZE DUP4 CALLDATACOPY ADD SWAP1 POP JUMPDEST POP SWAP2 POP PUSH1 0x0 JUMPDEST DUP2 DUP2 LT ISZERO PUSH2 0x1842 JUMPI DUP7 PUSH1 0x1 PUSH1 0x1 PUSH1 0xA0 SHL SUB AND PUSH4 0x343FBCDD PUSH3 0x61A80 DUP9 DUP9 DUP9 DUP7 DUP2 MLOAD DUP2 LT PUSH2 0x4365 JUMPI INVALID JUMPDEST PUSH1 0x20 MUL PUSH1 0x20 ADD ADD MLOAD PUSH1 0x40 MLOAD DUP6 PUSH4 0xFFFFFFFF AND PUSH1 0xE0 SHL DUP2 MSTORE PUSH1 0x4 ADD PUSH2 0x438B SWAP4 SWAP3 SWAP2 SWAP1 PUSH2 0x98C1 JUMP JUMPDEST PUSH1 0x20 PUSH1 0x40 MLOAD DUP1 DUP4 SUB DUP2 DUP8 DUP1 EXTCODESIZE ISZERO DUP1 ISZERO PUSH2 0x43A3 JUMPI PUSH1 0x0 DUP1 REVERT JUMPDEST POP DUP7 STATICCALL SWAP4 POP POP POP POP DUP1 ISZERO PUSH2 0x43D4 JUMPI POP PUSH1 0x40 DUP1 MLOAD PUSH1 0x1F RETURNDATASIZE SWAP1 DUP2 ADD PUSH1 0x1F NOT AND DUP3 ADD SWAP1 SWAP3 MSTORE PUSH2 0x43D1 SWAP2 DUP2 ADD SWAP1 PUSH2 0x8EE5 JUMP JUMPDEST PUSH1 0x1 JUMPDEST PUSH2 0x4402 JUMPI RETURNDATASIZE DUP1 DUP1 ISZERO PUSH2 0x17F2 JUMPI PUSH1 0x40 MLOAD SWAP2 POP PUSH1 0x1F NOT PUSH1 0x3F RETURNDATASIZE ADD AND DUP3 ADD PUSH1 0x40 MSTORE RETURNDATASIZE DUP3 MSTORE RETURNDATASIZE PUSH1 0x0 PUSH1 0x20 DUP5 ADD RETURNDATACOPY PUSH2 0x17F7 JUMP JUMPDEST DUP1 DUP5 DUP4 DUP2 MLOAD DUP2 LT PUSH2 0x440F JUMPI INVALID JUMPDEST PUSH1 0x20 MUL PUSH1 0x20 ADD ADD DUP2 DUP2 MSTORE POP POP DUP4 DUP3 DUP2 MLOAD DUP2 LT PUSH2 0x4427 JUMPI INVALID JUMPDEST PUSH1 0x20 MUL PUSH1 0x20 ADD ADD MLOAD PUSH1 0x0 EQ ISZERO PUSH2 0x443D JUMPI POP PUSH2 0x1842 JUMP JUMPDEST POP PUSH1 0x1 ADD PUSH2 0x433C JUMP JUMPDEST PUSH1 0x0 DUP1 PUSH1 0x60 PUSH2 0x4455 DUP6 DUP8 PUSH2 0x5D15 JUMP JUMPDEST DUP4 MLOAD DUP1 PUSH1 0x1 PUSH1 0x1 PUSH1 0x40 SHL SUB DUP2 GT DUP1 ISZERO PUSH2 0x446D JUMPI PUSH1 0x0 DUP1 REVERT JUMPDEST POP PUSH1 0x40 MLOAD SWAP1 DUP1 DUP3 MSTORE DUP1 PUSH1 0x20 MUL PUSH1 0x20 ADD DUP3 ADD PUSH1 0x40 MSTORE DUP1 ISZERO PUSH2 0x4497 JUMPI DUP2 PUSH1 0x20 ADD PUSH1 0x20 DUP3 MUL DUP1 CALLDATASIZE DUP4 CALLDATACOPY ADD SWAP1 POP JUMPDEST POP SWAP2 POP PUSH2 0x44A6 DUP10 DUP10 DUP10 DUP10 PUSH2 0x755F JUMP JUMPDEST SWAP5 POP SWAP3 POP PUSH1 0x1 PUSH1 0x1 PUSH1 0xA0 SHL SUB DUP4 AND PUSH2 0x44BE JUMPI POP PUSH2 0x4578 JUMP JUMPDEST PUSH1 0x0 JUMPDEST DUP2 DUP2 LT ISZERO PUSH2 0x4575 JUMPI PUSH1 0x0 PUSH2 0x452F DUP10 DUP7 DUP9 PUSH1 0x40 MLOAD PUSH1 0x20 ADD PUSH2 0x44E3 SWAP4 SWAP3 SWAP2 SWAP1 PUSH2 0x9869 JUMP JUMPDEST PUSH1 0x40 MLOAD PUSH1 0x20 DUP2 DUP4 SUB SUB DUP2 MSTORE SWAP1 PUSH1 0x40 MSTORE DUP10 DUP8 DUP10 PUSH1 0x40 MLOAD PUSH1 0x20 ADD PUSH2 0x4507 SWAP4 SWAP3 SWAP2 SWAP1 PUSH2 0x9869 JUMP JUMPDEST PUSH1 0x40 MLOAD PUSH1 0x20 DUP2 DUP4 SUB SUB DUP2 MSTORE SWAP1 PUSH1 0x40 MSTORE DUP10 DUP6 DUP2 MLOAD DUP2 LT PUSH2 0x4522 JUMPI INVALID JUMPDEST PUSH1 0x20 MUL PUSH1 0x20 ADD ADD MLOAD PUSH2 0x76B4 JUMP JUMPDEST SWAP1 POP DUP1 DUP5 DUP4 DUP2 MLOAD DUP2 LT PUSH2 0x453E JUMPI INVALID JUMPDEST PUSH1 0x20 MUL PUSH1 0x20 ADD ADD DUP2 DUP2 MSTORE POP POP DUP4 DUP3 DUP2 MLOAD DUP2 LT PUSH2 0x4556 JUMPI INVALID JUMPDEST PUSH1 0x20 MUL PUSH1 0x20 ADD ADD MLOAD PUSH1 0x0 EQ ISZERO PUSH2 0x456C JUMPI POP PUSH2 0x4575 JUMP JUMPDEST POP PUSH1 0x1 ADD PUSH2 0x44C1 JUMP JUMPDEST POP POP JUMPDEST SWAP6 POP SWAP6 POP SWAP6 SWAP3 POP POP POP JUMP JUMPDEST PUSH1 0x0 PUSH1 0x60 PUSH2 0x4591 DUP5 DUP7 PUSH2 0x5D15 JUMP JUMPDEST DUP3 MLOAD DUP1 PUSH1 0x1 PUSH1 0x1 PUSH1 0x40 SHL SUB DUP2 GT DUP1 ISZERO PUSH2 0x45A9 JUMPI PUSH1 0x0 DUP1 REVERT JUMPDEST POP PUSH1 0x40 MLOAD SWAP1 DUP1 DUP3 MSTORE DUP1 PUSH1 0x20 MUL PUSH1 0x20 ADD DUP3 ADD PUSH1 0x40 MSTORE DUP1 ISZERO PUSH2 0x45D3 JUMPI DUP2 PUSH1 0x20 ADD PUSH1 0x20 DUP3 MUL DUP1 CALLDATASIZE DUP4 CALLDATACOPY ADD SWAP1 POP JUMPDEST POP SWAP2 POP PUSH1 0x0 JUMPDEST DUP2 DUP2 LT ISZERO PUSH2 0x4648 JUMPI PUSH1 0x0 PUSH2 0x4602 DUP10 DUP10 DUP10 DUP10 DUP7 DUP2 MLOAD DUP2 LT PUSH2 0x45F5 JUMPI INVALID JUMPDEST PUSH1 0x20 MUL PUSH1 0x20 ADD ADD MLOAD PUSH2 0x3EDF JUMP JUMPDEST SWAP1 POP DUP1 DUP5 DUP4 DUP2 MLOAD DUP2 LT PUSH2 0x4611 JUMPI INVALID JUMPDEST PUSH1 0x20 MUL PUSH1 0x20 ADD ADD DUP2 DUP2 MSTORE POP POP DUP4 DUP3 DUP2 MLOAD DUP2 LT PUSH2 0x4629 JUMPI INVALID JUMPDEST PUSH1 0x20 MUL PUSH1 0x20 ADD ADD MLOAD PUSH1 0x0 EQ ISZERO PUSH2 0x463F JUMPI POP PUSH2 0x4648 JUMP JUMPDEST POP PUSH1 0x1 ADD PUSH2 0x45D9 JUMP JUMPDEST POP PUSH1 0x40 MLOAD PUSH4 0x901754D7 PUSH1 0xE0 SHL DUP2 MSTORE PUSH1 0x1 PUSH1 0x1 PUSH1 0xA0 SHL SUB DUP9 AND SWAP1 PUSH4 0x901754D7 SWAP1 PUSH2 0x4677 SWAP1 DUP10 SWAP1 DUP10 SWAP1 PUSH1 0x4 ADD PUSH2 0x97C6 JUMP JUMPDEST PUSH1 0x20 PUSH1 0x40 MLOAD DUP1 DUP4 SUB DUP2 DUP7 DUP1 EXTCODESIZE ISZERO DUP1 ISZERO PUSH2 0x468F JUMPI PUSH1 0x0 DUP1 REVERT JUMPDEST POP GAS STATICCALL ISZERO DUP1 ISZERO PUSH2 0x46A3 JUMPI RETURNDATASIZE PUSH1 0x0 DUP1 RETURNDATACOPY RETURNDATASIZE PUSH1 0x0 REVERT JUMPDEST POP POP POP POP PUSH1 0x40 MLOAD RETURNDATASIZE PUSH1 0x1F NOT PUSH1 0x1F DUP3 ADD AND DUP3 ADD DUP1 PUSH1 0x40 MSTORE POP DUP2 ADD SWAP1 PUSH2 0x46C7 SWAP2 SWAP1 PUSH2 0x868D JUMP JUMPDEST SWAP3 POP POP SWAP5 POP SWAP5 SWAP3 POP POP POP JUMP JUMPDEST PUSH1 0x40 DUP1 MLOAD PUSH1 0x60 DUP2 DUP2 ADD SWAP1 SWAP3 MSTORE PUSH2 0x1269 SWAP1 DUP1 PUSH2 0x46F2 DUP7 DUP10 PUSH1 0x80 DUP5 ADD PUSH2 0x97C6 JUMP JUMPDEST PUSH1 0x40 MLOAD PUSH1 0x20 DUP2 DUP4 SUB SUB DUP2 MSTORE SWAP1 PUSH1 0x40 MSTORE DUP2 MSTORE PUSH1 0x20 ADD DUP7 DUP9 PUSH1 0x40 MLOAD PUSH1 0x20 ADD PUSH2 0x4719 SWAP3 SWAP2 SWAP1 PUSH2 0x97C6 JUMP JUMPDEST PUSH1 0x40 MLOAD PUSH1 0x20 DUP2 DUP4 SUB SUB DUP2 MSTORE SWAP1 PUSH1 0x40 MSTORE DUP2 MSTORE PUSH1 0x20 ADD PUSH2 0x77A6 DUP2 MSTORE POP DUP4 PUSH2 0x6362 JUMP JUMPDEST PUSH1 0x60 DUP3 MLOAD PUSH1 0x1 PUSH1 0x1 PUSH1 0x40 SHL SUB DUP2 GT DUP1 ISZERO PUSH2 0x4752 JUMPI PUSH1 0x0 DUP1 REVERT JUMPDEST POP PUSH1 0x40 MLOAD SWAP1 DUP1 DUP3 MSTORE DUP1 PUSH1 0x20 MUL PUSH1 0x20 ADD DUP3 ADD PUSH1 0x40 MSTORE DUP1 ISZERO PUSH2 0x477C JUMPI DUP2 PUSH1 0x20 ADD PUSH1 0x20 DUP3 MUL DUP1 CALLDATASIZE DUP4 CALLDATACOPY ADD SWAP1 POP JUMPDEST POP SWAP1 POP PUSH1 0x0 JUMPDEST DUP4 MLOAD DUP2 EQ PUSH2 0x2C68 JUMPI PUSH32 0x0 PUSH1 0x1 PUSH1 0x1 PUSH1 0xA0 SHL SUB AND DUP5 DUP3 DUP2 MLOAD DUP2 LT PUSH2 0x47C0 JUMPI INVALID JUMPDEST PUSH1 0x20 MUL PUSH1 0x20 ADD ADD MLOAD PUSH1 0x1 PUSH1 0x1 PUSH1 0xA0 SHL SUB AND EQ PUSH2 0x480A JUMPI PUSH2 0x4805 DUP4 DUP6 DUP4 DUP2 MLOAD DUP2 LT PUSH2 0x47E6 JUMPI INVALID JUMPDEST PUSH1 0x20 MUL PUSH1 0x20 ADD ADD MLOAD PUSH1 0x1 PUSH1 0x1 PUSH1 0xA0 SHL SUB AND PUSH2 0x77ED SWAP1 SWAP2 SWAP1 PUSH4 0xFFFFFFFF AND JUMP JUMPDEST PUSH2 0x4816 JUMP JUMPDEST DUP3 PUSH1 0x1 PUSH1 0x1 PUSH1 0xA0 SHL SUB AND BALANCE JUMPDEST DUP3 DUP3 DUP2 MLOAD DUP2 LT PUSH2 0x4822 JUMPI INVALID JUMPDEST PUSH1 0x20 SWAP1 DUP2 MUL SWAP2 SWAP1 SWAP2 ADD ADD MSTORE PUSH1 0x1 ADD PUSH2 0x4782 JUMP JUMPDEST PUSH1 0x40 DUP1 MLOAD PUSH1 0x60 DUP2 DUP2 ADD SWAP1 SWAP3 MSTORE PUSH2 0x1269 SWAP1 DUP1 PUSH2 0x4854 DUP7 DUP10 PUSH1 0x80 DUP5 ADD PUSH2 0x97C6 JUMP JUMPDEST PUSH1 0x40 MLOAD PUSH1 0x20 DUP2 DUP4 SUB SUB DUP2 MSTORE SWAP1 PUSH1 0x40 MSTORE DUP2 MSTORE PUSH1 0x20 ADD DUP7 DUP9 PUSH1 0x40 MLOAD PUSH1 0x20 ADD PUSH2 0x487B SWAP3 SWAP2 SWAP1 PUSH2 0x97C6 JUMP JUMPDEST PUSH1 0x40 MLOAD PUSH1 0x20 DUP2 DUP4 SUB SUB DUP2 MSTORE SWAP1 PUSH1 0x40 MSTORE DUP2 MSTORE PUSH1 0x20 ADD PUSH2 0x78B7 DUP2 MSTORE POP DUP4 PUSH2 0x6362 JUMP JUMPDEST PUSH1 0x60 PUSH2 0x48A7 DUP4 DUP6 PUSH2 0x5D15 JUMP JUMPDEST DUP2 MLOAD DUP1 PUSH1 0x1 PUSH1 0x1 PUSH1 0x40 SHL SUB DUP2 GT DUP1 ISZERO PUSH2 0x48BF JUMPI PUSH1 0x0 DUP1 REVERT JUMPDEST POP PUSH1 0x40 MLOAD SWAP1 DUP1 DUP3 MSTORE DUP1 PUSH1 0x20 MUL PUSH1 0x20 ADD DUP3 ADD PUSH1 0x40 MSTORE DUP1 ISZERO PUSH2 0x48E9 JUMPI DUP2 PUSH1 0x20 ADD PUSH1 0x20 DUP3 MUL DUP1 CALLDATASIZE DUP4 CALLDATACOPY ADD SWAP1 POP JUMPDEST POP SWAP2 POP PUSH1 0x0 PUSH1 0x1 PUSH1 0x1 PUSH1 0xA0 SHL SUB DUP7 AND ISZERO PUSH2 0x490C JUMPI PUSH2 0x4907 DUP8 DUP8 PUSH2 0x5E0C JUMP JUMPDEST PUSH2 0x490F JUMP JUMPDEST PUSH1 0x0 JUMPDEST SWAP1 POP PUSH1 0x0 PUSH1 0x1 PUSH1 0x1 PUSH1 0xA0 SHL SUB DUP7 AND ISZERO PUSH2 0x4931 JUMPI PUSH2 0x492C DUP9 DUP8 PUSH2 0x5E0C JUMP JUMPDEST PUSH2 0x4934 JUMP JUMPDEST PUSH1 0x0 JUMPDEST SWAP1 POP PUSH1 0x0 JUMPDEST DUP4 DUP2 LT ISZERO PUSH2 0xFA2 JUMPI PUSH1 0x1 PUSH1 0x1 PUSH1 0x1 PUSH1 0xA0 SHL SUB DUP9 AND PUSH2 0x498A JUMPI PUSH2 0x4969 DUP5 PUSH4 0x95B68FE7 PUSH1 0xE0 SHL DUP10 DUP6 DUP2 MLOAD DUP2 LT PUSH2 0xEA6 JUMPI INVALID JUMPDEST DUP8 DUP5 DUP2 MLOAD DUP2 LT PUSH2 0x4975 JUMPI INVALID JUMPDEST PUSH1 0x20 MUL PUSH1 0x20 ADD ADD DUP2 SWAP4 POP DUP3 DUP2 MSTORE POP POP POP PUSH2 0x4A24 JUMP JUMPDEST PUSH1 0x1 PUSH1 0x1 PUSH1 0xA0 SHL SUB DUP10 AND PUSH2 0x49B0 JUMPI PUSH2 0x4969 DUP4 PUSH4 0xCD7724C3 PUSH1 0xE0 SHL DUP10 DUP6 DUP2 MLOAD DUP2 LT PUSH2 0xEA6 JUMPI INVALID JUMPDEST PUSH1 0x0 PUSH2 0x49CA DUP6 PUSH4 0x95B68FE7 PUSH1 0xE0 SHL DUP11 DUP7 DUP2 MLOAD DUP2 LT PUSH2 0xEA6 JUMPI INVALID JUMPDEST SWAP3 POP SWAP1 POP DUP1 ISZERO PUSH2 0x4A07 JUMPI PUSH2 0x49E6 DUP5 PUSH4 0xCD7724C3 PUSH1 0xE0 SHL DUP4 PUSH2 0x5E8B JUMP JUMPDEST DUP9 DUP6 DUP2 MLOAD DUP2 LT PUSH2 0x49F2 JUMPI INVALID JUMPDEST PUSH1 0x20 MUL PUSH1 0x20 ADD ADD DUP2 SWAP5 POP DUP3 DUP2 MSTORE POP POP POP PUSH2 0x4A22 JUMP JUMPDEST PUSH1 0x0 DUP8 DUP5 DUP2 MLOAD DUP2 LT PUSH2 0x4A15 JUMPI INVALID JUMPDEST PUSH1 0x20 MUL PUSH1 0x20 ADD ADD DUP2 DUP2 MSTORE POP POP JUMPDEST POP JUMPDEST DUP1 ISZERO DUP1 PUSH2 0x4A44 JUMPI POP DUP6 DUP3 DUP2 MLOAD DUP2 LT PUSH2 0x4A38 JUMPI INVALID JUMPDEST PUSH1 0x20 MUL PUSH1 0x20 ADD ADD MLOAD PUSH1 0x0 EQ JUMPDEST ISZERO PUSH2 0x4A4F JUMPI POP PUSH2 0xFA2 JUMP JUMPDEST POP PUSH1 0x1 ADD PUSH2 0x4939 JUMP JUMPDEST DUP1 MLOAD PUSH1 0x60 SWAP1 DUP1 PUSH1 0x1 PUSH1 0x1 PUSH1 0x40 SHL SUB DUP2 GT DUP1 ISZERO PUSH2 0x4A73 JUMPI PUSH1 0x0 DUP1 REVERT JUMPDEST POP PUSH1 0x40 MLOAD SWAP1 DUP1 DUP3 MSTORE DUP1 PUSH1 0x20 MUL PUSH1 0x20 ADD DUP3 ADD PUSH1 0x40 MSTORE DUP1 ISZERO PUSH2 0x4A9D JUMPI DUP2 PUSH1 0x20 ADD PUSH1 0x20 DUP3 MUL DUP1 CALLDATASIZE DUP4 CALLDATACOPY ADD SWAP1 POP JUMPDEST POP SWAP2 POP PUSH1 0x0 JUMPDEST DUP2 DUP2 LT ISZERO PUSH2 0x19C7 JUMPI DUP6 PUSH1 0x1 PUSH1 0x1 PUSH1 0xA0 SHL SUB AND PUSH4 0x1F00CA74 PUSH3 0x249F0 DUP7 DUP5 DUP2 MLOAD DUP2 LT PUSH2 0x4ACA JUMPI INVALID JUMPDEST PUSH1 0x20 MUL PUSH1 0x20 ADD ADD MLOAD DUP9 PUSH1 0x40 MLOAD DUP5 PUSH4 0xFFFFFFFF AND PUSH1 0xE0 SHL DUP2 MSTORE PUSH1 0x4 ADD PUSH2 0x4AF0 SWAP3 SWAP2 SWAP1 PUSH2 0x9FAB JUMP JUMPDEST PUSH1 0x0 PUSH1 0x40 MLOAD DUP1 DUP4 SUB DUP2 DUP8 DUP1 EXTCODESIZE ISZERO DUP1 ISZERO PUSH2 0x4B08 JUMPI PUSH1 0x0 DUP1 REVERT JUMPDEST POP DUP7 STATICCALL SWAP4 POP POP POP POP DUP1 ISZERO PUSH2 0x4B3E JUMPI POP PUSH1 0x40 MLOAD RETURNDATASIZE PUSH1 0x0 DUP3 RETURNDATACOPY PUSH1 0x1F RETURNDATASIZE SWAP1 DUP2 ADD PUSH1 0x1F NOT AND DUP3 ADD PUSH1 0x40 MSTORE PUSH2 0x4B3B SWAP2 SWAP1 DUP2 ADD SWAP1 PUSH2 0x8E93 JUMP JUMPDEST PUSH1 0x1 JUMPDEST PUSH2 0x4B6C JUMPI RETURNDATASIZE DUP1 DUP1 ISZERO PUSH2 0x1960 JUMPI PUSH1 0x40 MLOAD SWAP2 POP PUSH1 0x1F NOT PUSH1 0x3F RETURNDATASIZE ADD AND DUP3 ADD PUSH1 0x40 MSTORE RETURNDATASIZE DUP3 MSTORE RETURNDATASIZE PUSH1 0x0 PUSH1 0x20 DUP5 ADD RETURNDATACOPY PUSH2 0x1965 JUMP JUMPDEST DUP1 PUSH1 0x0 DUP2 MLOAD DUP2 LT PUSH2 0x4B79 JUMPI INVALID JUMPDEST PUSH1 0x20 MUL PUSH1 0x20 ADD ADD MLOAD DUP5 DUP4 DUP2 MLOAD DUP2 LT PUSH2 0x4B8D JUMPI INVALID JUMPDEST PUSH1 0x20 MUL PUSH1 0x20 ADD ADD DUP2 DUP2 MSTORE POP POP DUP4 DUP3 DUP2 MLOAD DUP2 LT PUSH2 0x4BA5 JUMPI INVALID JUMPDEST PUSH1 0x20 MUL PUSH1 0x20 ADD ADD MLOAD PUSH1 0x0 EQ ISZERO PUSH2 0x4BBB JUMPI POP PUSH2 0x19C7 JUMP JUMPDEST POP PUSH1 0x1 ADD PUSH2 0x4AA3 JUMP JUMPDEST PUSH1 0x0 PUSH1 0x60 DUP1 PUSH2 0x4BD3 DUP6 DUP8 PUSH2 0x5D15 JUMP JUMPDEST PUSH2 0x4BDE DUP8 DUP8 DUP8 PUSH2 0x7311 JUMP JUMPDEST SWAP3 POP DUP3 PUSH2 0x4BEA JUMPI PUSH2 0xB9D JUMP JUMPDEST PUSH1 0x40 MLOAD PUSH4 0x276FDAD9 PUSH1 0xE1 SHL DUP2 MSTORE ADDRESS SWAP1 PUSH4 0x4EDFB5B2 SWAP1 PUSH2 0x4C13 SWAP1 DUP11 SWAP1 DUP8 SWAP1 DUP12 SWAP1 DUP12 SWAP1 PUSH1 0x4 ADD PUSH2 0x9F1E JUMP JUMPDEST PUSH1 0x0 PUSH1 0x40 MLOAD DUP1 DUP4 SUB DUP2 DUP7 DUP1 EXTCODESIZE ISZERO DUP1 ISZERO PUSH2 0x4C2B JUMPI PUSH1 0x0 DUP1 REVERT JUMPDEST POP GAS STATICCALL ISZERO DUP1 ISZERO PUSH2 0x4C3F JUMPI RETURNDATASIZE PUSH1 0x0 DUP1 RETURNDATACOPY RETURNDATASIZE PUSH1 0x0 REVERT JUMPDEST POP POP POP POP PUSH1 0x40 MLOAD RETURNDATASIZE PUSH1 0x0 DUP3 RETURNDATACOPY PUSH1 0x1F RETURNDATASIZE SWAP1 DUP2 ADD PUSH1 0x1F NOT AND DUP3 ADD PUSH1 0x40 MSTORE PUSH2 0x4C67 SWAP2 SWAP1 DUP2 ADD SWAP1 PUSH2 0x8EFD JUMP JUMPDEST PUSH1 0x80 DUP9 ADD DUP2 SWAP1 MSTORE DUP5 MLOAD SWAP1 SWAP3 POP DUP1 PUSH1 0x1 PUSH1 0x1 PUSH1 0x40 SHL SUB DUP2 GT DUP1 ISZERO PUSH2 0x4C89 JUMPI PUSH1 0x0 DUP1 REVERT JUMPDEST POP PUSH1 0x40 MLOAD SWAP1 DUP1 DUP3 MSTORE DUP1 PUSH1 0x20 MUL PUSH1 0x20 ADD DUP3 ADD PUSH1 0x40 MSTORE DUP1 ISZERO PUSH2 0x4CB3 JUMPI DUP2 PUSH1 0x20 ADD PUSH1 0x20 DUP3 MUL DUP1 CALLDATASIZE DUP4 CALLDATACOPY ADD SWAP1 POP JUMPDEST POP SWAP2 POP PUSH1 0x0 JUMPDEST DUP2 DUP2 LT ISZERO PUSH2 0x4D9E JUMPI PUSH1 0x0 ADDRESS PUSH1 0x1 PUSH1 0x1 PUSH1 0xA0 SHL SUB AND PUSH4 0xF1ED7FA4 DUP12 DUP12 DUP12 DUP12 DUP8 DUP2 MLOAD DUP2 LT PUSH2 0x4CE1 JUMPI INVALID JUMPDEST PUSH1 0x20 MUL PUSH1 0x20 ADD ADD MLOAD PUSH1 0x40 MLOAD DUP6 PUSH4 0xFFFFFFFF AND PUSH1 0xE0 SHL DUP2 MSTORE PUSH1 0x4 ADD PUSH2 0x4D08 SWAP5 SWAP4 SWAP3 SWAP2 SWAP1 PUSH2 0x9EE8 JUMP JUMPDEST PUSH1 0x20 PUSH1 0x40 MLOAD DUP1 DUP4 SUB DUP2 DUP7 DUP1 EXTCODESIZE ISZERO DUP1 ISZERO PUSH2 0x4D20 JUMPI PUSH1 0x0 DUP1 REVERT JUMPDEST POP GAS STATICCALL ISZERO DUP1 ISZERO PUSH2 0x4D34 JUMPI RETURNDATASIZE PUSH1 0x0 DUP1 RETURNDATACOPY RETURNDATASIZE PUSH1 0x0 REVERT JUMPDEST POP POP POP POP PUSH1 0x40 MLOAD RETURNDATASIZE PUSH1 0x1F NOT PUSH1 0x1F DUP3 ADD AND DUP3 ADD DUP1 PUSH1 0x40 MSTORE POP DUP2 ADD SWAP1 PUSH2 0x4D58 SWAP2 SWAP1 PUSH2 0x8EE5 JUMP JUMPDEST SWAP1 POP DUP1 DUP5 DUP4 DUP2 MLOAD DUP2 LT PUSH2 0x4D67 JUMPI INVALID JUMPDEST PUSH1 0x20 MUL PUSH1 0x20 ADD ADD DUP2 DUP2 MSTORE POP POP DUP4 DUP3 DUP2 MLOAD DUP2 LT PUSH2 0x4D7F JUMPI INVALID JUMPDEST PUSH1 0x20 MUL PUSH1 0x20 ADD ADD MLOAD PUSH1 0x0 EQ ISZERO PUSH2 0x4D95 JUMPI POP PUSH2 0x4D9E JUMP JUMPDEST POP PUSH1 0x1 ADD PUSH2 0x4CB9 JUMP JUMPDEST POP POP SWAP5 POP SWAP5 POP SWAP5 SWAP2 POP POP JUMP JUMPDEST PUSH1 0x0 DUP1 PUSH1 0x60 PUSH2 0x4DB9 DUP6 DUP8 PUSH2 0x5D15 JUMP JUMPDEST PUSH2 0x4DC5 DUP9 DUP9 DUP9 DUP9 PUSH2 0x755F JUMP JUMPDEST SWAP4 POP SWAP2 POP PUSH1 0x1 PUSH1 0x1 PUSH1 0xA0 SHL SUB DUP3 AND PUSH2 0x4DDC JUMPI PUSH2 0x4578 JUMP JUMPDEST DUP4 MLOAD DUP1 PUSH1 0x1 PUSH1 0x1 PUSH1 0x40 SHL SUB DUP2 GT DUP1 ISZERO PUSH2 0x4DF4 JUMPI PUSH1 0x0 DUP1 REVERT JUMPDEST POP PUSH1 0x40 MLOAD SWAP1 DUP1 DUP3 MSTORE DUP1 PUSH1 0x20 MUL PUSH1 0x20 ADD DUP3 ADD PUSH1 0x40 MSTORE DUP1 ISZERO PUSH2 0x4E1E JUMPI DUP2 PUSH1 0x20 ADD PUSH1 0x20 DUP3 MUL DUP1 CALLDATASIZE DUP4 CALLDATACOPY ADD SWAP1 POP JUMPDEST POP PUSH1 0x40 DUP1 MLOAD PUSH1 0x60 DUP2 ADD SWAP1 SWAP2 MSTORE SWAP1 SWAP3 POP PUSH2 0x4E8B SWAP1 DUP1 PUSH2 0x4E42 DUP10 DUP8 DUP10 ISZERO PUSH1 0x80 DUP6 ADD PUSH2 0x9869 JUMP JUMPDEST PUSH1 0x40 MLOAD PUSH1 0x20 DUP2 DUP4 SUB SUB DUP2 MSTORE SWAP1 PUSH1 0x40 MSTORE DUP2 MSTORE PUSH1 0x20 ADD DUP10 DUP7 DUP9 PUSH1 0x40 MLOAD PUSH1 0x20 ADD PUSH2 0x4E6B SWAP4 SWAP3 SWAP2 SWAP1 PUSH2 0x9869 JUMP JUMPDEST PUSH1 0x40 MLOAD PUSH1 0x20 DUP2 DUP4 SUB SUB DUP2 MSTORE SWAP1 PUSH1 0x40 MSTORE DUP2 MSTORE PUSH1 0x20 ADD PUSH2 0x76B4 DUP2 MSTORE POP DUP7 PUSH2 0x6362 JUMP JUMPDEST SWAP2 POP POP SWAP6 POP SWAP6 POP SWAP6 SWAP3 POP POP POP JUMP JUMPDEST PUSH1 0x0 DUP1 PUSH1 0x60 PUSH2 0x4EA8 DUP6 DUP8 PUSH2 0x5D15 JUMP JUMPDEST DUP4 MLOAD DUP1 PUSH1 0x1 PUSH1 0x1 PUSH1 0x40 SHL SUB DUP2 GT DUP1 ISZERO PUSH2 0x4EC0 JUMPI PUSH1 0x0 DUP1 REVERT JUMPDEST POP PUSH1 0x40 MLOAD SWAP1 DUP1 DUP3 MSTORE DUP1 PUSH1 0x20 MUL PUSH1 0x20 ADD DUP3 ADD PUSH1 0x40 MSTORE DUP1 ISZERO PUSH2 0x4EEA JUMPI DUP2 PUSH1 0x20 ADD PUSH1 0x20 DUP3 MUL DUP1 CALLDATASIZE DUP4 CALLDATACOPY ADD SWAP1 POP JUMPDEST POP DUP9 MLOAD PUSH1 0x40 MLOAD PUSH4 0x939D863 PUSH1 0xE1 SHL DUP2 MSTORE SWAP2 SWAP4 POP PUSH1 0x1 PUSH1 0x1 PUSH1 0xA0 SHL SUB AND SWAP1 PUSH4 0x1273B0C6 SWAP1 PUSH2 0x4F1D SWAP1 DUP11 SWAP1 DUP11 SWAP1 PUSH1 0x4 ADD PUSH2 0x97C6 JUMP JUMPDEST PUSH1 0x20 PUSH1 0x40 MLOAD DUP1 DUP4 SUB DUP2 DUP7 DUP1 EXTCODESIZE ISZERO DUP1 ISZERO PUSH2 0x4F35 JUMPI PUSH1 0x0 DUP1 REVERT JUMPDEST POP GAS STATICCALL ISZERO DUP1 ISZERO PUSH2 0x4F49 JUMPI RETURNDATASIZE PUSH1 0x0 DUP1 RETURNDATACOPY RETURNDATASIZE PUSH1 0x0 REVERT JUMPDEST POP POP POP POP PUSH1 0x40 MLOAD RETURNDATASIZE PUSH1 0x1F NOT PUSH1 0x1F DUP3 ADD AND DUP3 ADD DUP1 PUSH1 0x40 MSTORE POP DUP2 ADD SWAP1 PUSH2 0x4F6D SWAP2 SWAP1 PUSH2 0x868D JUMP JUMPDEST SWAP3 POP PUSH1 0x0 PUSH1 0x1 PUSH1 0x1 PUSH1 0xA0 SHL SUB DUP5 AND ISZERO PUSH2 0x4F8B JUMPI POP PUSH1 0x1 SWAP4 POP DUP7 PUSH2 0x502A JUMP JUMPDEST DUP9 MLOAD PUSH1 0x40 MLOAD PUSH4 0x939D863 PUSH1 0xE1 SHL DUP2 MSTORE PUSH1 0x1 PUSH1 0x1 PUSH1 0xA0 SHL SUB SWAP1 SWAP2 AND SWAP1 PUSH4 0x1273B0C6 SWAP1 PUSH2 0x4FBC SWAP1 DUP11 SWAP1 DUP13 SWAP1 PUSH1 0x4 ADD PUSH2 0x97C6 JUMP JUMPDEST PUSH1 0x20 PUSH1 0x40 MLOAD DUP1 DUP4 SUB DUP2 DUP7 DUP1 EXTCODESIZE ISZERO DUP1 ISZERO PUSH2 0x4FD4 JUMPI PUSH1 0x0 DUP1 REVERT JUMPDEST POP GAS STATICCALL ISZERO DUP1 ISZERO PUSH2 0x4FE8 JUMPI RETURNDATASIZE PUSH1 0x0 DUP1 RETURNDATACOPY RETURNDATASIZE PUSH1 0x0 REVERT JUMPDEST POP POP POP POP PUSH1 0x40 MLOAD RETURNDATASIZE PUSH1 0x1F NOT PUSH1 0x1F DUP3 ADD AND DUP3 ADD DUP1 PUSH1 0x40 MSTORE POP DUP2 ADD SWAP1 PUSH2 0x500C SWAP2 SWAP1 PUSH2 0x868D JUMP JUMPDEST SWAP4 POP PUSH1 0x1 PUSH1 0x1 PUSH1 0xA0 SHL SUB DUP5 AND PUSH2 0x5023 JUMPI POP POP PUSH2 0xB9D JUMP JUMPDEST POP PUSH1 0x0 SWAP4 POP DUP6 JUMPDEST DUP4 PUSH1 0x1 PUSH1 0x1 PUSH1 0xA0 SHL SUB AND PUSH4 0xDD58B41C PUSH1 0x40 MLOAD DUP2 PUSH4 0xFFFFFFFF AND PUSH1 0xE0 SHL DUP2 MSTORE PUSH1 0x4 ADD PUSH1 0x20 PUSH1 0x40 MLOAD DUP1 DUP4 SUB DUP2 DUP7 DUP1 EXTCODESIZE ISZERO DUP1 ISZERO PUSH2 0x5063 JUMPI PUSH1 0x0 DUP1 REVERT JUMPDEST POP GAS STATICCALL ISZERO DUP1 ISZERO PUSH2 0x5077 JUMPI RETURNDATASIZE PUSH1 0x0 DUP1 RETURNDATACOPY RETURNDATASIZE PUSH1 0x0 REVERT JUMPDEST POP POP POP POP PUSH1 0x40 MLOAD RETURNDATASIZE PUSH1 0x1F NOT PUSH1 0x1F DUP3 ADD AND DUP3 ADD DUP1 PUSH1 0x40 MSTORE POP DUP2 ADD SWAP1 PUSH2 0x509B SWAP2 SWAP1 PUSH2 0x8EC5 JUMP JUMPDEST PUSH2 0x50A6 JUMPI POP POP PUSH2 0xB9D JUMP JUMPDEST PUSH2 0x511E PUSH1 0x40 MLOAD DUP1 PUSH1 0x60 ADD PUSH1 0x40 MSTORE DUP1 DUP10 DUP8 DUP6 DUP15 PUSH1 0x20 ADD MLOAD PUSH1 0x40 MLOAD PUSH1 0x20 ADD PUSH2 0x50CF SWAP5 SWAP4 SWAP3 SWAP2 SWAP1 PUSH2 0x97E0 JUMP JUMPDEST PUSH1 0x40 MLOAD PUSH1 0x20 DUP2 DUP4 SUB SUB DUP2 MSTORE SWAP1 PUSH1 0x40 MSTORE DUP2 MSTORE PUSH1 0x20 ADD DUP11 DUP8 DUP6 DUP15 PUSH1 0x20 ADD MLOAD PUSH1 0x40 MLOAD PUSH1 0x20 ADD PUSH2 0x50FE SWAP5 SWAP4 SWAP3 SWAP2 SWAP1 PUSH2 0x97E0 JUMP JUMPDEST PUSH1 0x40 MLOAD PUSH1 0x20 DUP2 DUP4 SUB SUB DUP2 MSTORE SWAP1 PUSH1 0x40 MSTORE DUP2 MSTORE PUSH1 0x20 ADD PUSH2 0x6574 DUP2 MSTORE POP DUP8 PUSH2 0x6362 JUMP JUMPDEST SWAP3 POP POP POP SWAP5 POP SWAP5 POP SWAP5 SWAP2 POP POP JUMP JUMPDEST PUSH1 0x60 DUP4 MLOAD PUSH1 0x1 PUSH1 0x1 PUSH1 0x40 SHL SUB DUP2 GT DUP1 ISZERO PUSH2 0x5145 JUMPI PUSH1 0x0 DUP1 REVERT JUMPDEST POP PUSH1 0x40 MLOAD SWAP1 DUP1 DUP3 MSTORE DUP1 PUSH1 0x20 MUL PUSH1 0x20 ADD DUP3 ADD PUSH1 0x40 MSTORE DUP1 ISZERO PUSH2 0x516F JUMPI DUP2 PUSH1 0x20 ADD PUSH1 0x20 DUP3 MUL DUP1 CALLDATASIZE DUP4 CALLDATACOPY ADD SWAP1 POP JUMPDEST POP SWAP1 POP PUSH1 0x0 JUMPDEST DUP5 MLOAD DUP2 EQ PUSH2 0xA3F JUMPI PUSH32 0x0 PUSH1 0x1 PUSH1 0x1 PUSH1 0xA0 SHL SUB AND DUP6 DUP3 DUP2 MLOAD DUP2 LT PUSH2 0x51B3 JUMPI INVALID JUMPDEST PUSH1 0x20 MUL PUSH1 0x20 ADD ADD MLOAD PUSH1 0x1 PUSH1 0x1 PUSH1 0xA0 SHL SUB AND EQ PUSH2 0x51FF JUMPI PUSH2 0x51FA DUP5 DUP5 DUP8 DUP5 DUP2 MLOAD DUP2 LT PUSH2 0x51DA JUMPI INVALID JUMPDEST PUSH1 0x20 MUL PUSH1 0x20 ADD ADD MLOAD PUSH1 0x1 PUSH1 0x1 PUSH1 0xA0 SHL SUB AND PUSH2 0x796C SWAP1 SWAP3 SWAP2 SWAP1 PUSH4 0xFFFFFFFF AND JUMP JUMPDEST PUSH2 0x5202 JUMP JUMPDEST PUSH1 0x0 JUMPDEST DUP3 DUP3 DUP2 MLOAD DUP2 LT PUSH2 0x520E JUMPI INVALID JUMPDEST PUSH1 0x20 SWAP1 DUP2 MUL SWAP2 SWAP1 SWAP2 ADD ADD MSTORE PUSH1 0x1 ADD PUSH2 0x5175 JUMP JUMPDEST DUP1 MLOAD PUSH1 0x60 SWAP1 DUP1 PUSH1 0x1 PUSH1 0x1 PUSH1 0x40 SHL SUB DUP2 GT DUP1 ISZERO PUSH2 0x523C JUMPI PUSH1 0x0 DUP1 REVERT JUMPDEST POP PUSH1 0x40 MLOAD SWAP1 DUP1 DUP3 MSTORE DUP1 PUSH1 0x20 MUL PUSH1 0x20 ADD DUP3 ADD PUSH1 0x40 MSTORE DUP1 ISZERO PUSH2 0x5266 JUMPI DUP2 PUSH1 0x20 ADD PUSH1 0x20 DUP3 MUL DUP1 CALLDATASIZE DUP4 CALLDATACOPY ADD SWAP1 POP JUMPDEST POP SWAP2 POP PUSH1 0x0 JUMPDEST DUP2 DUP2 LT ISZERO PUSH2 0x1842 JUMPI DUP7 PUSH1 0x1 PUSH1 0x1 PUSH1 0xA0 SHL SUB AND PUSH4 0x838E6A22 PUSH3 0x493E0 DUP9 DUP9 DUP9 DUP7 DUP2 MLOAD DUP2 LT PUSH2 0x5295 JUMPI INVALID JUMPDEST PUSH1 0x20 MUL PUSH1 0x20 ADD ADD MLOAD PUSH1 0x40 MLOAD DUP6 PUSH4 0xFFFFFFFF AND PUSH1 0xE0 SHL DUP2 MSTORE PUSH1 0x4 ADD PUSH2 0x52BB SWAP4 SWAP3 SWAP2 SWAP1 PUSH2 0x98C1 JUMP JUMPDEST PUSH1 0x20 PUSH1 0x40 MLOAD DUP1 DUP4 SUB DUP2 DUP8 DUP1 EXTCODESIZE ISZERO DUP1 ISZERO PUSH2 0x52D3 JUMPI PUSH1 0x0 DUP1 REVERT JUMPDEST POP DUP7 STATICCALL SWAP4 POP POP POP POP DUP1 ISZERO PUSH2 0x5304 JUMPI POP PUSH1 0x40 DUP1 MLOAD PUSH1 0x1F RETURNDATASIZE SWAP1 DUP2 ADD PUSH1 0x1F NOT AND DUP3 ADD SWAP1 SWAP3 MSTORE PUSH2 0x5301 SWAP2 DUP2 ADD SWAP1 PUSH2 0x8EE5 JUMP JUMPDEST PUSH1 0x1 JUMPDEST PUSH2 0x5332 JUMPI RETURNDATASIZE DUP1 DUP1 ISZERO PUSH2 0x17F2 JUMPI PUSH1 0x40 MLOAD SWAP2 POP PUSH1 0x1F NOT PUSH1 0x3F RETURNDATASIZE ADD AND DUP3 ADD PUSH1 0x40 MSTORE RETURNDATASIZE DUP3 MSTORE RETURNDATASIZE PUSH1 0x0 PUSH1 0x20 DUP5 ADD RETURNDATACOPY PUSH2 0x17F7 JUMP JUMPDEST DUP1 DUP5 DUP4 DUP2 MLOAD DUP2 LT PUSH2 0x533F JUMPI INVALID JUMPDEST PUSH1 0x20 MUL PUSH1 0x20 ADD ADD DUP2 DUP2 MSTORE POP POP POP PUSH1 0x1 ADD PUSH2 0x526C JUMP JUMPDEST PUSH1 0x0 DUP5 PUSH1 0x80 ADD MLOAD MLOAD PUSH1 0x0 EQ ISZERO PUSH2 0x536C JUMPI POP PUSH1 0x0 PUSH2 0x11FB JUMP JUMPDEST DUP5 PUSH1 0x40 ADD MLOAD PUSH1 0x1 PUSH1 0x1 PUSH1 0xA0 SHL SUB AND PUSH4 0x418436BC PUSH3 0x7A120 DUP8 PUSH1 0x60 ADD MLOAD PUSH1 0x1 PUSH1 0x1 PUSH1 0xA0 SHL SUB AND DUP8 PUSH1 0x1 PUSH1 0x1 PUSH1 0xA0 SHL SUB AND EQ PUSH2 0x53A6 JUMPI DUP7 PUSH2 0x53BC JUMP JUMPDEST PUSH20 0xEEEEEEEEEEEEEEEEEEEEEEEEEEEEEEEEEEEEEEEE JUMPDEST DUP9 PUSH1 0x60 ADD MLOAD PUSH1 0x1 PUSH1 0x1 PUSH1 0xA0 SHL SUB AND DUP8 PUSH1 0x1 PUSH1 0x1 PUSH1 0xA0 SHL SUB AND EQ PUSH2 0x53DF JUMPI DUP7 PUSH2 0x53F5 JUMP JUMPDEST PUSH20 0xEEEEEEEEEEEEEEEEEEEEEEEEEEEEEEEEEEEEEEEE JUMPDEST DUP7 PUSH1 0x0 DUP12 PUSH1 0x80 ADD MLOAD PUSH1 0x40 MLOAD DUP8 PUSH4 0xFFFFFFFF AND PUSH1 0xE0 SHL DUP2 MSTORE PUSH1 0x4 ADD PUSH2 0x541D SWAP6 SWAP5 SWAP4 SWAP3 SWAP2 SWAP1 PUSH2 0x98E5 JUMP JUMPDEST PUSH1 0x20 PUSH1 0x40 MLOAD DUP1 DUP4 SUB DUP2 DUP8 DUP1 EXTCODESIZE ISZERO DUP1 ISZERO PUSH2 0x5435 JUMPI PUSH1 0x0 DUP1 REVERT JUMPDEST POP DUP7 STATICCALL SWAP4 POP POP POP POP DUP1 ISZERO PUSH2 0x5466 JUMPI POP PUSH1 0x40 DUP1 MLOAD PUSH1 0x1F RETURNDATASIZE SWAP1 DUP2 ADD PUSH1 0x1F NOT AND DUP3 ADD SWAP1 SWAP3 MSTORE PUSH2 0x5463 SWAP2 DUP2 ADD SWAP1 PUSH2 0x8EE5 JUMP JUMPDEST PUSH1 0x1 JUMPDEST PUSH2 0x54A4 JUMPI RETURNDATASIZE DUP1 DUP1 ISZERO PUSH2 0x5494 JUMPI PUSH1 0x40 MLOAD SWAP2 POP PUSH1 0x1F NOT PUSH1 0x3F RETURNDATASIZE ADD AND DUP3 ADD PUSH1 0x40 MSTORE RETURNDATASIZE DUP3 MSTORE RETURNDATASIZE PUSH1 0x0 PUSH1 0x20 DUP5 ADD RETURNDATACOPY PUSH2 0x5499 JUMP JUMPDEST PUSH1 0x60 SWAP2 POP JUMPDEST POP PUSH1 0x0 SWAP2 POP POP PUSH2 0x11FB JUMP JUMPDEST PUSH1 0x0 PUSH2 0x54AF DUP6 PUSH2 0x7A38 JUMP JUMPDEST PUSH1 0xFF AND SWAP1 POP PUSH1 0x0 PUSH2 0x54BF DUP8 PUSH2 0x7A38 JUMP JUMPDEST PUSH1 0xFF AND SWAP1 POP PUSH8 0xDE0B6B3A7640000 DUP2 PUSH1 0xA EXP DUP4 PUSH1 0xA EXP DUP8 DUP7 MUL MUL DUP2 PUSH2 0x54E0 JUMPI INVALID JUMPDEST DIV DUP2 PUSH2 0x54E8 JUMPI INVALID JUMPDEST DIV SWAP4 POP POP POP POP PUSH2 0x11FB JUMP JUMPDEST PUSH1 0x0 PUSH1 0x60 PUSH2 0x5501 DUP5 DUP7 PUSH2 0x5D15 JUMP JUMPDEST DUP3 MLOAD DUP1 PUSH1 0x1 PUSH1 0x1 PUSH1 0x40 SHL SUB DUP2 GT DUP1 ISZERO PUSH2 0x5519 JUMPI PUSH1 0x0 DUP1 REVERT JUMPDEST POP PUSH1 0x40 MLOAD SWAP1 DUP1 DUP3 MSTORE DUP1 PUSH1 0x20 MUL PUSH1 0x20 ADD DUP3 ADD PUSH1 0x40 MSTORE DUP1 ISZERO PUSH2 0x5543 JUMPI DUP2 PUSH1 0x20 ADD PUSH1 0x20 DUP3 MUL DUP1 CALLDATASIZE DUP4 CALLDATACOPY ADD SWAP1 POP JUMPDEST POP SWAP2 POP PUSH2 0x55AE PUSH1 0x40 MLOAD DUP1 PUSH1 0x60 ADD PUSH1 0x40 MSTORE DUP1 DUP10 DUP9 PUSH1 0x40 MLOAD PUSH1 0x20 ADD PUSH2 0x5567 SWAP3 SWAP2 SWAP1 PUSH2 0x97C6 JUMP JUMPDEST PUSH1 0x40 MLOAD PUSH1 0x20 DUP2 DUP4 SUB SUB DUP2 MSTORE SWAP1 PUSH1 0x40 MSTORE DUP2 MSTORE PUSH1 0x20 ADD DUP10 DUP10 PUSH1 0x40 MLOAD PUSH1 0x20 ADD PUSH2 0x558E SWAP3 SWAP2 SWAP1 PUSH2 0x97C6 JUMP JUMPDEST PUSH1 0x40 MLOAD PUSH1 0x20 DUP2 DUP4 SUB SUB DUP2 MSTORE SWAP1 PUSH1 0x40 MSTORE DUP2 MSTORE PUSH1 0x20 ADD PUSH2 0x7A43 DUP2 MSTORE POP DUP6 PUSH2 0x6362 JUMP JUMPDEST PUSH1 0x40 MLOAD PUSH4 0x901754D7 PUSH1 0xE0 SHL DUP2 MSTORE SWAP1 SWAP3 POP PUSH1 0x1 PUSH1 0x1 PUSH1 0xA0 SHL SUB DUP9 AND SWAP1 PUSH4 0x901754D7 SWAP1 PUSH2 0x4677 SWAP1 DUP10 SWAP1 DUP10 SWAP1 PUSH1 0x4 ADD PUSH2 0x97C6 JUMP JUMPDEST PUSH2 0x55E7 PUSH2 0x7F13 JUMP JUMPDEST PUSH2 0x55EF PUSH2 0x7F13 JUMP JUMPDEST PUSH1 0x0 NOT DUP1 PUSH1 0x0 JUMPDEST DUP7 MLOAD DUP2 EQ PUSH2 0x56EB JUMPI PUSH2 0x5626 PUSH1 0x20 DUP9 DUP4 DUP2 MLOAD DUP2 LT PUSH2 0x560F JUMPI INVALID JUMPDEST PUSH1 0x20 MUL PUSH1 0x20 ADD ADD MLOAD MLOAD SUB DUP8 DUP10 DUP5 DUP2 MLOAD DUP2 LT PUSH2 0x3365 JUMPI INVALID JUMPDEST PUSH1 0x0 PUSH1 0x60 ADDRESS PUSH1 0x1 PUSH1 0x1 PUSH1 0xA0 SHL SUB AND DUP10 DUP5 DUP2 MLOAD DUP2 LT PUSH2 0x5640 JUMPI INVALID JUMPDEST PUSH1 0x20 MUL PUSH1 0x20 ADD ADD MLOAD PUSH1 0x40 MLOAD PUSH2 0x5655 SWAP2 SWAP1 PUSH2 0x977D JUMP JUMPDEST PUSH1 0x0 PUSH1 0x40 MLOAD DUP1 DUP4 SUB DUP2 PUSH1 0x0 DUP7 GAS CALL SWAP2 POP POP RETURNDATASIZE DUP1 PUSH1 0x0 DUP2 EQ PUSH2 0x5692 JUMPI PUSH1 0x40 MLOAD SWAP2 POP PUSH1 0x1F NOT PUSH1 0x3F RETURNDATASIZE ADD AND DUP3 ADD PUSH1 0x40 MSTORE RETURNDATASIZE DUP3 MSTORE RETURNDATASIZE PUSH1 0x0 PUSH1 0x20 DUP5 ADD RETURNDATACOPY PUSH2 0x5697 JUMP JUMPDEST PUSH1 0x60 SWAP2 POP JUMPDEST POP SWAP2 POP SWAP2 POP DUP2 ISZERO PUSH2 0x56E1 JUMPI PUSH1 0x0 PUSH2 0x56BB PUSH1 0x20 DUP4 MLOAD SUB DUP4 PUSH2 0x72B1 SWAP1 SWAP2 SWAP1 PUSH4 0xFFFFFFFF AND JUMP JUMPDEST SWAP1 POP PUSH1 0x0 DUP2 GT DUP1 ISZERO PUSH2 0x56CC JUMPI POP DUP5 DUP2 LT JUMPDEST ISZERO PUSH2 0x56DF JUMPI DUP4 DUP8 MSTORE PUSH1 0x20 DUP8 ADD DUP3 SWAP1 MSTORE SWAP4 POP DUP4 JUMPDEST POP JUMPDEST POP POP PUSH1 0x1 ADD PUSH2 0x55F6 JUMP JUMPDEST POP PUSH1 0x0 NOT DUP2 EQ ISZERO PUSH2 0x56FC JUMPI POP PUSH2 0x3530 JUMP JUMPDEST PUSH1 0x0 JUMPDEST DUP8 MLOAD DUP2 EQ PUSH2 0x352D JUMPI PUSH2 0x572F PUSH1 0x20 DUP10 DUP4 DUP2 MLOAD DUP2 LT PUSH2 0x5718 JUMPI INVALID JUMPDEST PUSH1 0x20 MUL PUSH1 0x20 ADD ADD MLOAD MLOAD SUB DUP4 DUP11 DUP5 DUP2 MLOAD DUP2 LT PUSH2 0x3365 JUMPI INVALID JUMPDEST PUSH1 0x0 PUSH1 0x60 ADDRESS PUSH1 0x1 PUSH1 0x1 PUSH1 0xA0 SHL SUB AND DUP11 DUP5 DUP2 MLOAD DUP2 LT PUSH2 0x5749 JUMPI INVALID JUMPDEST PUSH1 0x20 MUL PUSH1 0x20 ADD ADD MLOAD PUSH1 0x40 MLOAD PUSH2 0x575E SWAP2 SWAP1 PUSH2 0x977D JUMP JUMPDEST PUSH1 0x0 PUSH1 0x40 MLOAD DUP1 DUP4 SUB DUP2 PUSH1 0x0 DUP7 GAS CALL SWAP2 POP POP RETURNDATASIZE DUP1 PUSH1 0x0 DUP2 EQ PUSH2 0x579B JUMPI PUSH1 0x40 MLOAD SWAP2 POP PUSH1 0x1F NOT PUSH1 0x3F RETURNDATASIZE ADD AND DUP3 ADD PUSH1 0x40 MSTORE RETURNDATASIZE DUP3 MSTORE RETURNDATASIZE PUSH1 0x0 PUSH1 0x20 DUP5 ADD RETURNDATACOPY PUSH2 0x57A0 JUMP JUMPDEST PUSH1 0x60 SWAP2 POP JUMPDEST POP SWAP2 POP SWAP2 POP DUP2 ISZERO PUSH2 0x57EA JUMPI PUSH1 0x0 PUSH2 0x57C4 PUSH1 0x20 DUP4 MLOAD SUB DUP4 PUSH2 0x72B1 SWAP1 SWAP2 SWAP1 PUSH4 0xFFFFFFFF AND JUMP JUMPDEST SWAP1 POP PUSH1 0x0 DUP2 GT DUP1 ISZERO PUSH2 0x57D5 JUMPI POP DUP6 DUP2 LT JUMPDEST ISZERO PUSH2 0x57E8 JUMPI DUP4 DUP9 MSTORE PUSH1 0x20 DUP9 ADD DUP3 SWAP1 MSTORE SWAP5 POP DUP5 JUMPDEST POP JUMPDEST POP POP PUSH1 0x1 ADD PUSH2 0x56FF JUMP JUMPDEST PUSH1 0x60 PUSH1 0x0 DUP4 PUSH1 0x1 PUSH1 0x1 PUSH1 0xA0 SHL SUB AND PUSH4 0xC45A0155 PUSH1 0x40 MLOAD DUP2 PUSH4 0xFFFFFFFF AND PUSH1 0xE0 SHL DUP2 MSTORE PUSH1 0x4 ADD PUSH1 0x20 PUSH1 0x40 MLOAD DUP1 DUP4 SUB DUP2 DUP7 DUP1 EXTCODESIZE ISZERO DUP1 ISZERO PUSH2 0x5831 JUMPI PUSH1 0x0 DUP1 REVERT JUMPDEST POP GAS STATICCALL ISZERO DUP1 ISZERO PUSH2 0x5845 JUMPI RETURNDATASIZE PUSH1 0x0 DUP1 RETURNDATACOPY RETURNDATASIZE PUSH1 0x0 REVERT JUMPDEST POP POP POP POP PUSH1 0x40 MLOAD RETURNDATASIZE PUSH1 0x1F NOT PUSH1 0x1F DUP3 ADD AND DUP3 ADD DUP1 PUSH1 0x40 MSTORE POP DUP2 ADD SWAP1 PUSH2 0x5869 SWAP2 SWAP1 PUSH2 0x868D JUMP JUMPDEST SWAP1 POP PUSH1 0x1 DUP4 MLOAD SUB PUSH1 0x1 PUSH1 0x1 PUSH1 0x40 SHL SUB DUP2 GT DUP1 ISZERO PUSH2 0x5885 JUMPI PUSH1 0x0 DUP1 REVERT JUMPDEST POP PUSH1 0x40 MLOAD SWAP1 DUP1 DUP3 MSTORE DUP1 PUSH1 0x20 MUL PUSH1 0x20 ADD DUP3 ADD PUSH1 0x40 MSTORE DUP1 ISZERO PUSH2 0x58AF JUMPI DUP2 PUSH1 0x20 ADD PUSH1 0x20 DUP3 MUL DUP1 CALLDATASIZE DUP4 CALLDATACOPY ADD SWAP1 POP JUMPDEST POP SWAP2 POP PUSH1 0x0 JUMPDEST DUP3 MLOAD DUP2 LT ISZERO PUSH2 0x5ADA JUMPI PUSH1 0x60 DUP3 PUSH1 0x1 PUSH1 0x1 PUSH1 0xA0 SHL SUB AND PUSH4 0x5B1DC86F PUSH3 0x249F0 DUP8 DUP6 DUP2 MLOAD DUP2 LT PUSH2 0x58DF JUMPI INVALID JUMPDEST PUSH1 0x20 MUL PUSH1 0x20 ADD ADD MLOAD DUP9 DUP7 PUSH1 0x1 ADD DUP2 MLOAD DUP2 LT PUSH2 0x58F6 JUMPI INVALID JUMPDEST PUSH1 0x20 MUL PUSH1 0x20 ADD ADD MLOAD PUSH1 0x40 MLOAD DUP5 PUSH4 0xFFFFFFFF AND PUSH1 0xE0 SHL DUP2 MSTORE PUSH1 0x4 ADD PUSH2 0x591B SWAP3 SWAP2 SWAP1 PUSH2 0x97C6 JUMP JUMPDEST PUSH1 0x0 PUSH1 0x40 MLOAD DUP1 DUP4 SUB DUP2 DUP8 DUP1 EXTCODESIZE ISZERO DUP1 ISZERO PUSH2 0x5933 JUMPI PUSH1 0x0 DUP1 REVERT JUMPDEST POP DUP7 STATICCALL SWAP4 POP POP POP POP DUP1 ISZERO PUSH2 0x5969 JUMPI POP PUSH1 0x40 MLOAD RETURNDATASIZE PUSH1 0x0 DUP3 RETURNDATACOPY PUSH1 0x1F RETURNDATASIZE SWAP1 DUP2 ADD PUSH1 0x1F NOT AND DUP3 ADD PUSH1 0x40 MSTORE PUSH2 0x5966 SWAP2 SWAP1 DUP2 ADD SWAP1 PUSH2 0x8A3A JUMP JUMPDEST PUSH1 0x1 JUMPDEST PUSH2 0x59B8 JUMPI RETURNDATASIZE DUP1 DUP1 ISZERO PUSH2 0x5997 JUMPI PUSH1 0x40 MLOAD SWAP2 POP PUSH1 0x1F NOT PUSH1 0x3F RETURNDATASIZE ADD AND DUP3 ADD PUSH1 0x40 MSTORE RETURNDATASIZE DUP3 MSTORE RETURNDATASIZE PUSH1 0x0 PUSH1 0x20 DUP5 ADD RETURNDATACOPY PUSH2 0x599C JUMP JUMPDEST PUSH1 0x60 SWAP2 POP JUMPDEST POP POP PUSH1 0x40 DUP1 MLOAD PUSH1 0x0 DUP2 MSTORE PUSH1 0x20 DUP2 ADD SWAP1 SWAP2 MSTORE SWAP4 POP PUSH2 0x5ADD SWAP3 POP POP POP JUMP JUMPDEST PUSH1 0x0 PUSH1 0x1 DUP3 MLOAD LT ISZERO PUSH2 0x59E5 JUMPI PUSH1 0x40 MLOAD PUSH3 0x461BCD PUSH1 0xE5 SHL DUP2 MSTORE PUSH1 0x4 ADD PUSH2 0x59DC SWAP1 PUSH2 0x9E49 JUMP JUMPDEST PUSH1 0x40 MLOAD DUP1 SWAP2 SUB SWAP1 REVERT JUMPDEST PUSH1 0x0 JUMPDEST DUP3 MLOAD DUP2 LT ISZERO PUSH2 0x5ACE JUMPI PUSH1 0x0 DUP4 DUP3 DUP2 MLOAD DUP2 LT PUSH2 0x59FF JUMPI INVALID JUMPDEST PUSH1 0x20 MUL PUSH1 0x20 ADD ADD MLOAD PUSH1 0x1 PUSH1 0x1 PUSH1 0xA0 SHL SUB AND PUSH4 0x18160DDD PUSH1 0x40 MLOAD DUP2 PUSH4 0xFFFFFFFF AND PUSH1 0xE0 SHL DUP2 MSTORE PUSH1 0x4 ADD PUSH1 0x20 PUSH1 0x40 MLOAD DUP1 DUP4 SUB DUP2 DUP7 DUP1 EXTCODESIZE ISZERO DUP1 ISZERO PUSH2 0x5A3F JUMPI PUSH1 0x0 DUP1 REVERT JUMPDEST POP GAS STATICCALL ISZERO DUP1 ISZERO PUSH2 0x5A53 JUMPI RETURNDATASIZE PUSH1 0x0 DUP1 RETURNDATACOPY RETURNDATASIZE PUSH1 0x0 REVERT JUMPDEST POP POP POP POP PUSH1 0x40 MLOAD RETURNDATASIZE PUSH1 0x1F NOT PUSH1 0x1F DUP3 ADD AND DUP3 ADD DUP1 PUSH1 0x40 MSTORE POP DUP2 ADD SWAP1 PUSH2 0x5A77 SWAP2 SWAP1 PUSH2 0x8EE5 JUMP JUMPDEST SWAP1 POP DUP3 DUP2 GT ISZERO PUSH2 0x5AC5 JUMPI DUP1 SWAP3 POP DUP4 DUP3 DUP2 MLOAD DUP2 LT PUSH2 0x5A90 JUMPI INVALID JUMPDEST PUSH1 0x20 MUL PUSH1 0x20 ADD ADD MLOAD DUP9 DUP8 DUP2 MLOAD DUP2 LT PUSH2 0x5AA4 JUMPI INVALID JUMPDEST PUSH1 0x20 MUL PUSH1 0x20 ADD ADD SWAP1 PUSH1 0x1 PUSH1 0x1 PUSH1 0xA0 SHL SUB AND SWAP1 DUP2 PUSH1 0x1 PUSH1 0x1 PUSH1 0xA0 SHL SUB AND DUP2 MSTORE POP POP JUMPDEST POP PUSH1 0x1 ADD PUSH2 0x59E8 JUMP JUMPDEST POP POP POP POP PUSH1 0x1 ADD PUSH2 0x58B5 JUMP JUMPDEST POP POP JUMPDEST SWAP3 SWAP2 POP POP JUMP JUMPDEST PUSH1 0x0 PUSH1 0x60 DUP6 PUSH1 0x0 ADD MLOAD PUSH1 0x1 PUSH1 0x1 PUSH1 0xA0 SHL SUB AND PUSH4 0x21F8A721 DUP8 PUSH1 0x0 ADD MLOAD PUSH1 0x1 PUSH1 0x1 PUSH1 0xA0 SHL SUB AND PUSH4 0x9232494E PUSH1 0x40 MLOAD DUP2 PUSH4 0xFFFFFFFF AND PUSH1 0xE0 SHL DUP2 MSTORE PUSH1 0x4 ADD PUSH1 0x20 PUSH1 0x40 MLOAD DUP1 DUP4 SUB DUP2 DUP7 DUP1 EXTCODESIZE ISZERO DUP1 ISZERO PUSH2 0x5B37 JUMPI PUSH1 0x0 DUP1 REVERT JUMPDEST POP GAS STATICCALL ISZERO DUP1 ISZERO PUSH2 0x5B4B JUMPI RETURNDATASIZE PUSH1 0x0 DUP1 RETURNDATACOPY RETURNDATASIZE PUSH1 0x0 REVERT JUMPDEST POP POP POP POP PUSH1 0x40 MLOAD RETURNDATASIZE PUSH1 0x1F NOT PUSH1 0x1F DUP3 ADD AND DUP3 ADD DUP1 PUSH1 0x40 MSTORE POP DUP2 ADD SWAP1 PUSH2 0x5B6F SWAP2 SWAP1 PUSH2 0x8EE5 JUMP JUMPDEST PUSH1 0x40 MLOAD DUP3 PUSH4 0xFFFFFFFF AND PUSH1 0xE0 SHL DUP2 MSTORE PUSH1 0x4 ADD PUSH2 0x5B8B SWAP2 SWAP1 PUSH2 0x9BC9 JUMP JUMPDEST PUSH1 0x20 PUSH1 0x40 MLOAD DUP1 DUP4 SUB DUP2 DUP7 DUP1 EXTCODESIZE ISZERO DUP1 ISZERO PUSH2 0x5BA3 JUMPI PUSH1 0x0 DUP1 REVERT JUMPDEST POP GAS STATICCALL ISZERO DUP1 ISZERO PUSH2 0x5BB7 JUMPI RETURNDATASIZE PUSH1 0x0 DUP1 RETURNDATACOPY RETURNDATASIZE PUSH1 0x0 REVERT JUMPDEST POP POP POP POP PUSH1 0x40 MLOAD RETURNDATASIZE PUSH1 0x1F NOT PUSH1 0x1F DUP3 ADD AND DUP3 ADD DUP1 PUSH1 0x40 MSTORE POP DUP2 ADD SWAP1 PUSH2 0x5BDB SWAP2 SWAP1 PUSH2 0x868D JUMP JUMPDEST SWAP2 POP DUP6 PUSH1 0x20 ADD MLOAD MLOAD PUSH1 0x0 EQ ISZERO PUSH2 0x5BF0 JUMPI PUSH2 0x5D0C JUMP JUMPDEST PUSH1 0x0 DUP1 JUMPDEST DUP8 PUSH1 0x20 ADD MLOAD MLOAD DUP2 LT ISZERO PUSH2 0x5D09 JUMPI PUSH1 0x2 DUP9 PUSH1 0x20 ADD MLOAD DUP3 DUP2 MLOAD DUP2 LT PUSH2 0x5C13 JUMPI INVALID JUMPDEST PUSH1 0x20 MUL PUSH1 0x20 ADD ADD MLOAD MLOAD LT ISZERO PUSH2 0x5C27 JUMPI PUSH2 0x5D01 JUMP JUMPDEST DUP4 PUSH1 0x1 PUSH1 0x1 PUSH1 0xA0 SHL SUB AND PUSH4 0x7F9C0ECD PUSH3 0x493E0 DUP11 PUSH1 0x20 ADD MLOAD DUP5 DUP2 MLOAD DUP2 LT PUSH2 0x5C4A JUMPI INVALID JUMPDEST PUSH1 0x20 MUL PUSH1 0x20 ADD ADD MLOAD DUP9 PUSH1 0x1 DUP11 MLOAD SUB DUP2 MLOAD DUP2 LT PUSH2 0x5C62 JUMPI INVALID JUMPDEST PUSH1 0x20 MUL PUSH1 0x20 ADD ADD MLOAD PUSH1 0x40 MLOAD DUP5 PUSH4 0xFFFFFFFF AND PUSH1 0xE0 SHL DUP2 MSTORE PUSH1 0x4 ADD PUSH2 0x5C87 SWAP3 SWAP2 SWAP1 PUSH2 0x9A80 JUMP JUMPDEST PUSH1 0x20 PUSH1 0x40 MLOAD DUP1 DUP4 SUB DUP2 DUP8 DUP1 EXTCODESIZE ISZERO DUP1 ISZERO PUSH2 0x5C9F JUMPI PUSH1 0x0 DUP1 REVERT JUMPDEST POP DUP7 STATICCALL SWAP4 POP POP POP POP DUP1 ISZERO PUSH2 0x5CD0 JUMPI POP PUSH1 0x40 DUP1 MLOAD PUSH1 0x1F RETURNDATASIZE SWAP1 DUP2 ADD PUSH1 0x1F NOT AND DUP3 ADD SWAP1 SWAP3 MSTORE PUSH2 0x5CCD SWAP2 DUP2 ADD SWAP1 PUSH2 0x8EE5 JUMP JUMPDEST PUSH1 0x1 JUMPDEST PUSH2 0x5CD9 JUMPI PUSH2 0x5D01 JUMP JUMPDEST DUP3 DUP2 GT ISZERO PUSH2 0x5CFF JUMPI DUP1 SWAP3 POP DUP9 PUSH1 0x20 ADD MLOAD DUP3 DUP2 MLOAD DUP2 LT PUSH2 0x5CF4 JUMPI INVALID JUMPDEST PUSH1 0x20 MUL PUSH1 0x20 ADD ADD MLOAD SWAP4 POP JUMPDEST POP JUMPDEST PUSH1 0x1 ADD PUSH2 0x5BF4 JUMP JUMPDEST POP POP JUMPDEST SWAP5 POP SWAP5 SWAP3 POP POP POP JUMP JUMPDEST DUP1 PUSH1 0x1 PUSH1 0x1 PUSH1 0xA0 SHL SUB AND DUP3 PUSH1 0x1 PUSH1 0x1 PUSH1 0xA0 SHL SUB AND EQ ISZERO PUSH2 0x5D47 JUMPI PUSH1 0x40 MLOAD PUSH3 0x461BCD PUSH1 0xE5 SHL DUP2 MSTORE PUSH1 0x4 ADD PUSH2 0x59DC SWAP1 PUSH2 0x9DBF JUMP JUMPDEST POP POP JUMP JUMPDEST PUSH2 0x5D53 PUSH2 0x7EA5 JUMP JUMPDEST POP PUSH1 0x40 DUP1 MLOAD PUSH1 0x80 DUP2 ADD DUP3 MSTORE ADDRESS DUP1 DUP3 MSTORE PUSH1 0x0 PUSH1 0x20 DUP4 ADD DUP2 SWAP1 MSTORE SWAP3 DUP3 ADD MSTORE PUSH1 0x60 DUP2 ADD SWAP2 SWAP1 SWAP2 MSTORE SWAP1 JUMP JUMPDEST PUSH1 0x40 DUP1 MLOAD PUSH1 0x1 DUP1 DUP3 MSTORE DUP2 DUP4 ADD SWAP1 SWAP3 MSTORE PUSH1 0x60 SWAP2 DUP3 SWAP2 SWAP1 DUP2 PUSH1 0x20 ADD JUMPDEST PUSH2 0x5D9C PUSH2 0x7F4F JUMP JUMPDEST DUP2 MSTORE PUSH1 0x20 ADD SWAP1 PUSH1 0x1 SWAP1 SUB SWAP1 DUP2 PUSH2 0x5D94 JUMPI SWAP1 POP POP SWAP1 POP PUSH1 0x40 MLOAD DUP1 PUSH1 0xA0 ADD PUSH1 0x40 MSTORE DUP1 DUP6 PUSH1 0x0 ADD MLOAD DUP2 MSTORE PUSH1 0x20 ADD PUSH1 0x0 DUP2 MSTORE PUSH1 0x20 ADD PUSH1 0x1 DUP2 MSTORE PUSH1 0x20 ADD DUP5 DUP2 MSTORE PUSH1 0x20 ADD PUSH1 0x40 MLOAD DUP1 PUSH1 0x20 ADD PUSH1 0x40 MSTORE DUP1 PUSH1 0x0 DUP2 MSTORE POP DUP2 MSTORE POP DUP2 PUSH1 0x0 DUP2 MLOAD DUP2 LT PUSH2 0x5DFA JUMPI INVALID JUMPDEST PUSH1 0x20 SWAP1 DUP2 MUL SWAP2 SWAP1 SWAP2 ADD ADD MSTORE SWAP4 SWAP3 POP POP POP JUMP JUMPDEST PUSH1 0x40 MLOAD PUSH4 0x3795FB1 PUSH1 0xE1 SHL DUP2 MSTORE PUSH1 0x0 SWAP1 PUSH1 0x1 PUSH1 0x1 PUSH1 0xA0 SHL SUB DUP5 AND SWAP1 PUSH4 0x6F2BF62 SWAP1 PUSH2 0x5E3B SWAP1 DUP6 SWAP1 PUSH1 0x4 ADD PUSH2 0x9799 JUMP JUMPDEST PUSH1 0x20 PUSH1 0x40 MLOAD DUP1 DUP4 SUB DUP2 DUP7 DUP1 EXTCODESIZE ISZERO DUP1 ISZERO PUSH2 0x5E53 JUMPI PUSH1 0x0 DUP1 REVERT JUMPDEST POP GAS STATICCALL ISZERO DUP1 ISZERO PUSH2 0x5E67 JUMPI RETURNDATASIZE PUSH1 0x0 DUP1 RETURNDATACOPY RETURNDATASIZE PUSH1 0x0 REVERT JUMPDEST POP POP POP POP PUSH1 0x40 MLOAD RETURNDATASIZE PUSH1 0x1F NOT PUSH1 0x1F DUP3 ADD AND DUP3 ADD DUP1 PUSH1 0x40 MSTORE POP DUP2 ADD SWAP1 PUSH2 0x3DB2 SWAP2 SWAP1 PUSH2 0x868D JUMP JUMPDEST PUSH1 0x0 DUP1 PUSH1 0x1 PUSH1 0x1 PUSH1 0xA0 SHL SUB DUP6 AND PUSH2 0x5EA1 JUMPI PUSH2 0x8CC JUMP JUMPDEST PUSH1 0x60 DUP6 PUSH1 0x1 PUSH1 0x1 PUSH1 0xA0 SHL SUB AND PUSH3 0x249F0 DUP7 DUP7 PUSH1 0x40 MLOAD PUSH1 0x24 ADD PUSH2 0x5EC3 SWAP2 SWAP1 PUSH2 0x9BC9 JUMP JUMPDEST PUSH1 0x40 DUP1 MLOAD PUSH1 0x1F NOT DUP2 DUP5 SUB ADD DUP2 MSTORE SWAP2 DUP2 MSTORE PUSH1 0x20 DUP3 ADD DUP1 MLOAD PUSH1 0x1 PUSH1 0x1 PUSH1 0xE0 SHL SUB AND PUSH1 0x1 PUSH1 0x1 PUSH1 0xE0 SHL SUB NOT SWAP1 SWAP5 AND SWAP4 SWAP1 SWAP4 OR SWAP1 SWAP3 MSTORE SWAP1 MLOAD PUSH2 0x5F01 SWAP2 SWAP1 PUSH2 0x977D JUMP JUMPDEST PUSH1 0x0 PUSH1 0x40 MLOAD DUP1 DUP4 SUB DUP2 DUP7 DUP7 STATICCALL SWAP3 POP POP POP RETURNDATASIZE DUP1 PUSH1 0x0 DUP2 EQ PUSH2 0x5F3D JUMPI PUSH1 0x40 MLOAD SWAP2 POP PUSH1 0x1F NOT PUSH1 0x3F RETURNDATASIZE ADD AND DUP3 ADD PUSH1 0x40 MSTORE RETURNDATASIZE DUP3 MSTORE RETURNDATASIZE PUSH1 0x0 PUSH1 0x20 DUP5 ADD RETURNDATACOPY PUSH2 0x5F42 JUMP JUMPDEST PUSH1 0x60 SWAP2 POP JUMPDEST POP SWAP1 SWAP3 POP SWAP1 POP DUP2 ISZERO PUSH2 0x5F65 JUMPI DUP1 DUP1 PUSH1 0x20 ADD SWAP1 MLOAD DUP2 ADD SWAP1 PUSH2 0x5F62 SWAP2 SWAP1 PUSH2 0x8EE5 JUMP JUMPDEST SWAP3 POP JUMPDEST POP SWAP4 POP SWAP4 SWAP2 POP POP JUMP JUMPDEST PUSH1 0x0 DUP1 PUSH1 0x0 DUP1 DUP5 PUSH1 0x1 PUSH1 0x1 PUSH1 0xA0 SHL SUB AND PUSH4 0xD9638D36 DUP12 PUSH1 0x20 ADD MLOAD PUSH1 0x40 MLOAD DUP3 PUSH4 0xFFFFFFFF AND PUSH1 0xE0 SHL DUP2 MSTORE PUSH1 0x4 ADD PUSH2 0x5FA4 SWAP2 SWAP1 PUSH2 0x9BC9 JUMP JUMPDEST PUSH1 0xA0 PUSH1 0x40 MLOAD DUP1 DUP4 SUB DUP2 DUP7 DUP1 EXTCODESIZE ISZERO DUP1 ISZERO PUSH2 0x5FBC JUMPI PUSH1 0x0 DUP1 REVERT JUMPDEST POP GAS STATICCALL ISZERO DUP1 ISZERO PUSH2 0x5FD0 JUMPI RETURNDATASIZE PUSH1 0x0 DUP1 RETURNDATACOPY RETURNDATASIZE PUSH1 0x0 REVERT JUMPDEST POP POP POP POP PUSH1 0x40 MLOAD RETURNDATASIZE PUSH1 0x1F NOT PUSH1 0x1F DUP3 ADD AND DUP3 ADD DUP1 PUSH1 0x40 MSTORE POP DUP2 ADD SWAP1 PUSH2 0x5FF4 SWAP2 SWAP1 PUSH2 0x9448 JUMP JUMPDEST SWAP5 POP SWAP5 POP POP POP SWAP3 POP PUSH1 0x0 PUSH3 0xF4240 SWAP1 POP DUP11 PUSH1 0x40 ADD MLOAD PUSH1 0x1 PUSH1 0x1 PUSH1 0xA0 SHL SUB AND DUP10 PUSH1 0x1 PUSH1 0x1 PUSH1 0xA0 SHL SUB AND EQ ISZERO PUSH2 0x611C JUMPI PUSH1 0x0 PUSH2 0x6033 DUP10 PUSH5 0xE8D4A51000 PUSH2 0x7A93 JUMP JUMPDEST SWAP1 POP PUSH1 0x0 PUSH2 0x6057 PUSH12 0x33B2E3C9FD0803CE8000000 PUSH2 0x6051 DUP9 DUP6 PUSH2 0x7AC9 JUMP JUMPDEST SWAP1 PUSH2 0x7A93 JUMP JUMPDEST SWAP1 POP DUP5 DUP2 LT PUSH2 0x606F JUMPI PUSH1 0x0 SWAP7 POP POP POP POP POP POP POP PUSH2 0x6225 JUMP JUMPDEST PUSH1 0x0 PUSH2 0x60FE PUSH8 0xDE0B6B3A7640000 PUSH2 0x60F8 DUP13 PUSH1 0x1 PUSH1 0x1 PUSH1 0xA0 SHL SUB AND PUSH4 0x568D4B6F PUSH1 0x40 MLOAD DUP2 PUSH4 0xFFFFFFFF AND PUSH1 0xE0 SHL DUP2 MSTORE PUSH1 0x4 ADD PUSH1 0x20 PUSH1 0x40 MLOAD DUP1 DUP4 SUB DUP2 DUP7 DUP1 EXTCODESIZE ISZERO DUP1 ISZERO PUSH2 0x60B9 JUMPI PUSH1 0x0 DUP1 REVERT JUMPDEST POP GAS STATICCALL ISZERO DUP1 ISZERO PUSH2 0x60CD JUMPI RETURNDATASIZE PUSH1 0x0 DUP1 RETURNDATACOPY RETURNDATASIZE PUSH1 0x0 REVERT JUMPDEST POP POP POP POP PUSH1 0x40 MLOAD RETURNDATASIZE PUSH1 0x1F NOT PUSH1 0x1F DUP3 ADD AND DUP3 ADD DUP1 PUSH1 0x40 MSTORE POP DUP2 ADD SWAP1 PUSH2 0x60F1 SWAP2 SWAP1 PUSH2 0x8EE5 JUMP JUMPDEST DUP7 SWAP1 PUSH2 0x7A93 JUMP JUMPDEST SWAP1 PUSH2 0x7AE5 JUMP JUMPDEST SWAP1 POP PUSH1 0x0 PUSH2 0x610C DUP5 DUP4 PUSH2 0x7B0F JUMP JUMPDEST SWAP9 POP PUSH2 0x6225 SWAP8 POP POP POP POP POP POP POP POP JUMP JUMPDEST DUP11 PUSH1 0x40 ADD MLOAD PUSH1 0x1 PUSH1 0x1 PUSH1 0xA0 SHL SUB AND DUP11 PUSH1 0x1 PUSH1 0x1 PUSH1 0xA0 SHL SUB AND EQ ISZERO PUSH2 0x621C JUMPI DUP8 DUP5 DUP2 GT ISZERO PUSH2 0x6151 JUMPI PUSH1 0x0 SWAP6 POP POP POP POP POP POP PUSH2 0x6225 JUMP JUMPDEST PUSH1 0x0 PUSH2 0x616D PUSH12 0x33B2E3C9FD0803CE8000000 PUSH2 0x6051 DUP9 DUP6 PUSH2 0x7B0F JUMP JUMPDEST SWAP1 POP DUP4 DUP2 GT PUSH2 0x6185 JUMPI PUSH1 0x0 SWAP7 POP POP POP POP POP POP POP PUSH2 0x6225 JUMP JUMPDEST PUSH1 0x0 PUSH2 0x620A DUP11 PUSH1 0x1 PUSH1 0x1 PUSH1 0xA0 SHL SUB AND PUSH4 0xFAE036D5 PUSH1 0x40 MLOAD DUP2 PUSH4 0xFFFFFFFF AND PUSH1 0xE0 SHL DUP2 MSTORE PUSH1 0x4 ADD PUSH1 0x20 PUSH1 0x40 MLOAD DUP1 DUP4 SUB DUP2 DUP7 DUP1 EXTCODESIZE ISZERO DUP1 ISZERO PUSH2 0x61C3 JUMPI PUSH1 0x0 DUP1 REVERT JUMPDEST POP GAS STATICCALL ISZERO DUP1 ISZERO PUSH2 0x61D7 JUMPI RETURNDATASIZE PUSH1 0x0 DUP1 RETURNDATACOPY RETURNDATASIZE PUSH1 0x0 REVERT JUMPDEST POP POP POP POP PUSH1 0x40 MLOAD RETURNDATASIZE PUSH1 0x1F NOT PUSH1 0x1F DUP3 ADD AND DUP3 ADD DUP1 PUSH1 0x40 MSTORE POP DUP2 ADD SWAP1 PUSH2 0x61FB SWAP2 SWAP1 PUSH2 0x8EE5 JUMP JUMPDEST PUSH8 0xDE0B6B3A7640000 SWAP1 PUSH2 0x7AC9 JUMP JUMPDEST SWAP1 POP PUSH1 0x0 PUSH2 0x610C DUP3 PUSH2 0x60F8 DUP7 DUP9 PUSH2 0x7A93 JUMP JUMPDEST PUSH1 0x0 SWAP5 POP POP POP POP POP JUMPDEST SWAP7 SWAP6 POP POP POP POP POP POP JUMP JUMPDEST PUSH1 0x0 DUP1 PUSH2 0x623A PUSH2 0x7F81 JUMP JUMPDEST DUP6 DUP1 PUSH1 0x20 ADD SWAP1 MLOAD DUP2 ADD SWAP1 PUSH2 0x624E SWAP2 SWAP1 PUSH2 0x8F91 JUMP JUMPDEST SWAP2 POP SWAP2 POP PUSH1 0x0 DUP6 DUP1 PUSH1 0x20 ADD SWAP1 MLOAD DUP2 ADD SWAP1 PUSH2 0x6268 SWAP2 SWAP1 PUSH2 0x8F75 JUMP JUMPDEST SWAP1 POP PUSH1 0x0 PUSH1 0x60 ADDRESS PUSH4 0x22DB5ED1 PUSH1 0xE2 SHL DUP6 DUP8 DUP7 PUSH2 0x6283 DUP13 PUSH2 0x7B2E JUMP JUMPDEST PUSH1 0x40 MLOAD PUSH1 0x24 ADD PUSH2 0x6296 SWAP5 SWAP4 SWAP3 SWAP2 SWAP1 PUSH2 0x9E80 JUMP JUMPDEST PUSH1 0x40 DUP1 MLOAD PUSH1 0x1F NOT DUP2 DUP5 SUB ADD DUP2 MSTORE SWAP2 DUP2 MSTORE PUSH1 0x20 DUP3 ADD DUP1 MLOAD PUSH1 0x1 PUSH1 0x1 PUSH1 0xE0 SHL SUB AND PUSH1 0x1 PUSH1 0x1 PUSH1 0xE0 SHL SUB NOT SWAP1 SWAP5 AND SWAP4 SWAP1 SWAP4 OR SWAP1 SWAP3 MSTORE SWAP1 MLOAD PUSH2 0x62D4 SWAP2 SWAP1 PUSH2 0x977D JUMP JUMPDEST PUSH1 0x0 PUSH1 0x40 MLOAD DUP1 DUP4 SUB DUP2 DUP6 GAS STATICCALL SWAP2 POP POP RETURNDATASIZE DUP1 PUSH1 0x0 DUP2 EQ PUSH2 0x630F JUMPI PUSH1 0x40 MLOAD SWAP2 POP PUSH1 0x1F NOT PUSH1 0x3F RETURNDATASIZE ADD AND DUP3 ADD PUSH1 0x40 MSTORE RETURNDATASIZE DUP3 MSTORE RETURNDATASIZE PUSH1 0x0 PUSH1 0x20 DUP5 ADD RETURNDATACOPY PUSH2 0x6314 JUMP JUMPDEST PUSH1 0x60 SWAP2 POP JUMPDEST POP SWAP2 POP SWAP2 POP DUP2 PUSH2 0x632C JUMPI PUSH1 0x0 SWAP6 POP POP POP POP POP POP PUSH2 0x3DB2 JUMP JUMPDEST DUP1 DUP1 PUSH1 0x20 ADD SWAP1 MLOAD DUP2 ADD SWAP1 PUSH2 0x6340 SWAP2 SWAP1 PUSH2 0x8E93 JUMP JUMPDEST PUSH1 0x0 DUP2 MLOAD DUP2 LT PUSH2 0x634C JUMPI INVALID JUMPDEST PUSH1 0x20 MUL PUSH1 0x20 ADD ADD MLOAD SWAP6 POP POP POP POP POP POP SWAP4 SWAP3 POP POP POP JUMP JUMPDEST PUSH1 0x60 DUP2 MLOAD PUSH1 0x1 PUSH1 0x1 PUSH1 0x40 SHL SUB DUP2 GT DUP1 ISZERO PUSH2 0x637B JUMPI PUSH1 0x0 DUP1 REVERT JUMPDEST POP PUSH1 0x40 MLOAD SWAP1 DUP1 DUP3 MSTORE DUP1 PUSH1 0x20 MUL PUSH1 0x20 ADD DUP3 ADD PUSH1 0x40 MSTORE DUP1 ISZERO PUSH2 0x63A5 JUMPI DUP2 PUSH1 0x20 ADD PUSH1 0x20 DUP3 MUL DUP1 CALLDATASIZE DUP4 CALLDATACOPY ADD SWAP1 POP JUMPDEST POP SWAP1 POP DUP2 MLOAD PUSH1 0x0 EQ ISZERO PUSH2 0x63B7 JUMPI PUSH2 0x5ADD JUMP JUMPDEST PUSH1 0x0 PUSH2 0x63E8 DUP5 PUSH1 0x0 ADD MLOAD DUP6 PUSH1 0x20 ADD MLOAD DUP6 PUSH1 0x0 DUP2 MLOAD DUP2 LT PUSH2 0x63D3 JUMPI INVALID JUMPDEST PUSH1 0x20 MUL PUSH1 0x20 ADD ADD MLOAD DUP8 PUSH1 0x40 ADD MLOAD PUSH4 0xFFFFFFFF AND JUMP JUMPDEST SWAP1 POP DUP1 PUSH2 0x63F5 JUMPI POP PUSH2 0x5ADD JUMP JUMPDEST PUSH1 0x0 PUSH2 0x6412 DUP6 PUSH1 0x20 ADD MLOAD DUP7 PUSH1 0x0 ADD MLOAD DUP5 DUP9 PUSH1 0x40 ADD MLOAD PUSH4 0xFFFFFFFF AND JUMP JUMPDEST SWAP1 POP DUP1 PUSH2 0x6420 JUMPI POP POP PUSH2 0x5ADD JUMP JUMPDEST PUSH1 0x0 JUMPDEST DUP5 MLOAD DUP2 LT ISZERO PUSH2 0x656B JUMPI PUSH1 0x0 DUP1 JUMPDEST PUSH1 0x5 DUP2 LT ISZERO PUSH2 0x6514 JUMPI PUSH2 0x6457 DUP8 DUP5 DUP2 MLOAD DUP2 LT PUSH2 0x6448 JUMPI INVALID JUMPDEST PUSH1 0x20 MUL PUSH1 0x20 ADD ADD MLOAD DUP6 DUP8 PUSH2 0x7B6F JUMP JUMPDEST SWAP5 POP DUP5 PUSH2 0x6463 JUMPI PUSH2 0x6514 JUMP JUMPDEST PUSH2 0x6472 PUSH2 0x2715 PUSH2 0x2710 DUP8 PUSH2 0x7B6F JUMP JUMPDEST SWAP5 POP DUP5 PUSH2 0x647E JUMPI PUSH2 0x6514 JUMP JUMPDEST PUSH1 0x0 PUSH2 0x649B DUP10 PUSH1 0x20 ADD MLOAD DUP11 PUSH1 0x0 ADD MLOAD DUP9 DUP13 PUSH1 0x40 ADD MLOAD PUSH4 0xFFFFFFFF AND JUMP JUMPDEST SWAP1 POP DUP1 PUSH2 0x64A8 JUMPI POP PUSH2 0x6514 JUMP JUMPDEST DUP1 SWAP5 POP DUP8 DUP5 DUP2 MLOAD DUP2 LT PUSH2 0x64B7 JUMPI INVALID JUMPDEST PUSH1 0x20 MUL PUSH1 0x20 ADD ADD MLOAD DUP6 LT PUSH2 0x650B JUMPI DUP8 DUP5 DUP2 MLOAD DUP2 LT PUSH2 0x64D1 JUMPI INVALID JUMPDEST PUSH1 0x20 MUL PUSH1 0x20 ADD ADD MLOAD PUSH2 0x2710 DUP10 DUP7 DUP2 MLOAD DUP2 LT PUSH2 0x64E8 JUMPI INVALID JUMPDEST PUSH1 0x20 MUL PUSH1 0x20 ADD ADD MLOAD DUP8 SUB MUL DUP2 PUSH2 0x64FA JUMPI INVALID JUMPDEST DIV SWAP3 POP PUSH1 0x5 DUP4 GT PUSH2 0x650B JUMPI POP PUSH2 0x6514 JUMP JUMPDEST POP PUSH1 0x1 ADD PUSH2 0x6430 JUMP JUMPDEST POP DUP1 ISZERO DUP1 PUSH2 0x6522 JUMPI POP PUSH1 0x5 DUP2 GT JUMPDEST ISZERO PUSH2 0x652D JUMPI POP PUSH2 0x656B JUMP JUMPDEST PUSH2 0x654B DUP7 DUP4 DUP2 MLOAD DUP2 LT PUSH2 0x653C JUMPI INVALID JUMPDEST PUSH1 0x20 MUL PUSH1 0x20 ADD ADD MLOAD DUP5 DUP7 PUSH2 0x7B6F JUMP JUMPDEST DUP6 DUP4 DUP2 MLOAD DUP2 LT PUSH2 0x6557 JUMPI INVALID JUMPDEST PUSH1 0x20 SWAP1 DUP2 MUL SWAP2 SWAP1 SWAP2 ADD ADD MSTORE POP PUSH1 0x1 ADD PUSH2 0x6423 JUMP JUMPDEST POP POP POP SWAP3 SWAP2 POP POP JUMP JUMPDEST PUSH1 0x0 DUP1 PUSH1 0x0 DUP1 PUSH1 0x0 DUP8 DUP1 PUSH1 0x20 ADD SWAP1 MLOAD DUP2 ADD SWAP1 PUSH2 0x6590 SWAP2 SWAP1 PUSH2 0x86E2 JUMP JUMPDEST SWAP4 POP SWAP4 POP SWAP4 POP SWAP4 POP DUP2 PUSH1 0x1 PUSH1 0x1 PUSH1 0xA0 SHL SUB AND DUP5 PUSH1 0x1 PUSH1 0x1 PUSH1 0xA0 SHL SUB AND EQ ISZERO PUSH2 0x667A JUMPI PUSH1 0x40 MLOAD PUSH4 0x51400F0B PUSH1 0xE1 SHL DUP2 MSTORE PUSH1 0x1 PUSH1 0x1 PUSH1 0xA0 SHL SUB DUP5 AND SWAP1 PUSH4 0xA2801E16 SWAP1 PUSH3 0x493E0 SWAP1 PUSH2 0x65E3 SWAP1 DUP11 SWAP1 PUSH1 0x4 ADD PUSH2 0x9BC9 JUMP JUMPDEST PUSH1 0x20 PUSH1 0x40 MLOAD DUP1 DUP4 SUB DUP2 DUP8 DUP1 EXTCODESIZE ISZERO DUP1 ISZERO PUSH2 0x65FB JUMPI PUSH1 0x0 DUP1 REVERT JUMPDEST POP DUP7 STATICCALL SWAP4 POP POP POP POP DUP1 ISZERO PUSH2 0x662C JUMPI POP PUSH1 0x40 DUP1 MLOAD PUSH1 0x1F RETURNDATASIZE SWAP1 DUP2 ADD PUSH1 0x1F NOT AND DUP3 ADD SWAP1 SWAP3 MSTORE PUSH2 0x6629 SWAP2 DUP2 ADD SWAP1 PUSH2 0x8EE5 JUMP JUMPDEST PUSH1 0x1 JUMPDEST PUSH2 0x666E JUMPI RETURNDATASIZE DUP1 DUP1 ISZERO PUSH2 0x665A JUMPI PUSH1 0x40 MLOAD SWAP2 POP PUSH1 0x1F NOT PUSH1 0x3F RETURNDATASIZE ADD AND DUP3 ADD PUSH1 0x40 MSTORE RETURNDATASIZE DUP3 MSTORE RETURNDATASIZE PUSH1 0x0 PUSH1 0x20 DUP5 ADD RETURNDATACOPY PUSH2 0x665F JUMP JUMPDEST PUSH1 0x60 SWAP2 POP JUMPDEST POP PUSH1 0x0 SWAP6 POP POP POP POP POP POP PUSH2 0x3DB2 JUMP JUMPDEST SWAP5 POP PUSH2 0x3DB2 SWAP4 POP POP POP POP JUMP JUMPDEST PUSH1 0x40 MLOAD PUSH4 0xCA19EBD9 PUSH1 0xE0 SHL DUP2 MSTORE PUSH1 0x1 PUSH1 0x1 PUSH1 0xA0 SHL SUB DUP3 AND SWAP1 PUSH4 0xCA19EBD9 SWAP1 PUSH3 0x493E0 SWAP1 PUSH2 0x65E3 SWAP1 DUP8 SWAP1 DUP12 SWAP1 PUSH1 0x4 ADD PUSH2 0x97AD JUMP JUMPDEST PUSH1 0x60 PUSH1 0x2 DUP3 DUP5 MLOAD SUB LT ISZERO PUSH2 0x66D3 JUMPI PUSH1 0x40 MLOAD PUSH3 0x461BCD PUSH1 0xE5 SHL DUP2 MSTORE PUSH1 0x4 ADD PUSH2 0x59DC SWAP1 PUSH2 0x9D7B JUMP JUMPDEST PUSH2 0x66DB PUSH2 0x7FA1 JUMP JUMPDEST POP PUSH1 0x40 DUP1 MLOAD PUSH1 0x60 DUP1 DUP3 ADD DUP4 MSTORE PUSH2 0x1F4 DUP3 MSTORE PUSH2 0xBB8 PUSH1 0x20 DUP4 ADD MSTORE PUSH2 0x2710 DUP3 DUP5 ADD MSTORE DUP3 MLOAD PUSH1 0x3 DUP1 DUP3 MSTORE PUSH1 0x80 DUP3 ADD SWAP1 SWAP5 MSTORE SWAP2 SWAP3 SWAP1 SWAP2 SWAP1 DUP2 PUSH1 0x20 ADD PUSH1 0x20 DUP3 MUL DUP1 CALLDATASIZE DUP4 CALLDATACOPY ADD SWAP1 POP POP SWAP1 POP PUSH1 0x0 DUP1 DUP7 DUP7 DUP2 MLOAD DUP2 LT PUSH2 0x672F JUMPI INVALID JUMPDEST PUSH1 0x20 MUL PUSH1 0x20 ADD ADD MLOAD SWAP1 POP PUSH1 0x0 DUP8 DUP8 PUSH1 0x1 ADD DUP2 MLOAD DUP2 LT PUSH2 0x674A JUMPI INVALID JUMPDEST PUSH1 0x20 MUL PUSH1 0x20 ADD ADD MLOAD SWAP1 POP PUSH1 0x0 JUMPDEST PUSH1 0x3 DUP2 LT ISZERO PUSH2 0x683F JUMPI PUSH1 0x0 DUP11 PUSH1 0x1 PUSH1 0x1 PUSH1 0xA0 SHL SUB AND PUSH4 0x1698EE82 DUP6 DUP6 DUP11 DUP7 PUSH1 0x3 DUP2 LT PUSH2 0x677F JUMPI INVALID JUMPDEST PUSH1 0x20 MUL ADD MLOAD PUSH1 0x40 MLOAD DUP5 PUSH4 0xFFFFFFFF AND PUSH1 0xE0 SHL DUP2 MSTORE PUSH1 0x4 ADD PUSH2 0x67A2 SWAP4 SWAP3 SWAP2 SWAP1 PUSH2 0x9C11 JUMP JUMPDEST PUSH1 0x20 PUSH1 0x40 MLOAD DUP1 DUP4 SUB DUP2 DUP7 DUP1 EXTCODESIZE ISZERO DUP1 ISZERO PUSH2 0x67BA JUMPI PUSH1 0x0 DUP1 REVERT JUMPDEST POP GAS STATICCALL ISZERO DUP1 ISZERO PUSH2 0x67CE JUMPI RETURNDATASIZE PUSH1 0x0 DUP1 RETURNDATACOPY RETURNDATASIZE PUSH1 0x0 REVERT JUMPDEST POP POP POP POP PUSH1 0x40 MLOAD RETURNDATASIZE PUSH1 0x1F NOT PUSH1 0x1F DUP3 ADD AND DUP3 ADD DUP1 PUSH1 0x40 MSTORE POP DUP2 ADD SWAP1 PUSH2 0x67F2 SWAP2 SWAP1 PUSH2 0x868D JUMP JUMPDEST SWAP1 POP PUSH2 0x67FD DUP2 PUSH2 0x7BC7 JUMP JUMPDEST ISZERO PUSH2 0x6836 JUMPI DUP1 DUP7 DUP7 DUP1 PUSH1 0x1 ADD SWAP8 POP DUP2 MLOAD DUP2 LT PUSH2 0x6815 JUMPI INVALID JUMPDEST PUSH1 0x20 MUL PUSH1 0x20 ADD ADD SWAP1 PUSH1 0x1 PUSH1 0x1 PUSH1 0xA0 SHL SUB AND SWAP1 DUP2 PUSH1 0x1 PUSH1 0x1 PUSH1 0xA0 SHL SUB AND DUP2 MSTORE POP POP JUMPDEST POP PUSH1 0x1 ADD PUSH2 0x6757 JUMP JUMPDEST POP POP POP DUP1 PUSH2 0x684F JUMPI POP POP POP PUSH2 0x3DB2 JUMP JUMPDEST DUP6 MLOAD DUP6 PUSH1 0x2 ADD EQ ISZERO PUSH2 0x6945 JUMPI DUP1 PUSH1 0x1 PUSH1 0x1 PUSH1 0x40 SHL SUB DUP2 GT DUP1 ISZERO PUSH2 0x6871 JUMPI PUSH1 0x0 DUP1 REVERT JUMPDEST POP PUSH1 0x40 MLOAD SWAP1 DUP1 DUP3 MSTORE DUP1 PUSH1 0x20 MUL PUSH1 0x20 ADD DUP3 ADD PUSH1 0x40 MSTORE DUP1 ISZERO PUSH2 0x68A5 JUMPI DUP2 PUSH1 0x20 ADD JUMPDEST PUSH1 0x60 DUP2 MSTORE PUSH1 0x20 ADD SWAP1 PUSH1 0x1 SWAP1 SUB SWAP1 DUP2 PUSH2 0x6890 JUMPI SWAP1 POP JUMPDEST POP SWAP4 POP PUSH1 0x0 JUMPDEST DUP2 DUP2 LT ISZERO PUSH2 0x693C JUMPI PUSH1 0x40 DUP1 MLOAD PUSH1 0x1 DUP1 DUP3 MSTORE DUP2 DUP4 ADD SWAP1 SWAP3 MSTORE SWAP1 PUSH1 0x20 DUP1 DUP4 ADD SWAP1 DUP1 CALLDATASIZE DUP4 CALLDATACOPY ADD SWAP1 POP POP DUP6 DUP3 DUP2 MLOAD DUP2 LT PUSH2 0x68DD JUMPI INVALID JUMPDEST PUSH1 0x20 MUL PUSH1 0x20 ADD ADD DUP2 SWAP1 MSTORE POP DUP3 DUP2 DUP2 MLOAD DUP2 LT PUSH2 0x68F4 JUMPI INVALID JUMPDEST PUSH1 0x20 MUL PUSH1 0x20 ADD ADD MLOAD DUP6 DUP3 DUP2 MLOAD DUP2 LT PUSH2 0x6908 JUMPI INVALID JUMPDEST PUSH1 0x20 MUL PUSH1 0x20 ADD ADD MLOAD PUSH1 0x0 DUP2 MLOAD DUP2 LT PUSH2 0x691C JUMPI INVALID JUMPDEST PUSH1 0x1 PUSH1 0x1 PUSH1 0xA0 SHL SUB SWAP1 SWAP3 AND PUSH1 0x20 SWAP3 DUP4 MUL SWAP2 SWAP1 SWAP2 ADD SWAP1 SWAP2 ADD MSTORE PUSH1 0x1 ADD PUSH2 0x68AB JUMP JUMPDEST POP POP POP POP PUSH2 0x3DB2 JUMP JUMPDEST PUSH1 0x60 PUSH2 0x6955 DUP9 DUP9 DUP9 PUSH1 0x1 ADD PUSH2 0x66AD JUMP JUMPDEST SWAP1 POP DUP1 MLOAD PUSH1 0x0 EQ ISZERO PUSH2 0x696A JUMPI POP POP POP POP PUSH2 0x3DB2 JUMP JUMPDEST DUP1 MLOAD DUP3 MUL PUSH1 0x1 PUSH1 0x1 PUSH1 0x40 SHL SUB DUP2 GT DUP1 ISZERO PUSH2 0x6983 JUMPI PUSH1 0x0 DUP1 REVERT JUMPDEST POP PUSH1 0x40 MLOAD SWAP1 DUP1 DUP3 MSTORE DUP1 PUSH1 0x20 MUL PUSH1 0x20 ADD DUP3 ADD PUSH1 0x40 MSTORE DUP1 ISZERO PUSH2 0x69B7 JUMPI DUP2 PUSH1 0x20 ADD JUMPDEST PUSH1 0x60 DUP2 MSTORE PUSH1 0x20 ADD SWAP1 PUSH1 0x1 SWAP1 SUB SWAP1 DUP2 PUSH2 0x69A2 JUMPI SWAP1 POP JUMPDEST POP SWAP5 POP PUSH1 0x0 JUMPDEST DUP3 DUP2 LT ISZERO PUSH2 0x6B37 JUMPI PUSH1 0x0 JUMPDEST DUP3 MLOAD DUP2 LT ISZERO PUSH2 0x6B2E JUMPI DUP3 MLOAD DUP3 DUP2 MUL DUP3 ADD SWAP1 DUP5 SWAP1 DUP4 SWAP1 DUP2 LT PUSH2 0x69E5 JUMPI INVALID JUMPDEST PUSH1 0x20 MUL PUSH1 0x20 ADD ADD MLOAD MLOAD PUSH1 0x1 ADD PUSH1 0x1 PUSH1 0x1 PUSH1 0x40 SHL SUB DUP2 GT DUP1 ISZERO PUSH2 0x6A06 JUMPI PUSH1 0x0 DUP1 REVERT JUMPDEST POP PUSH1 0x40 MLOAD SWAP1 DUP1 DUP3 MSTORE DUP1 PUSH1 0x20 MUL PUSH1 0x20 ADD DUP3 ADD PUSH1 0x40 MSTORE DUP1 ISZERO PUSH2 0x6A30 JUMPI DUP2 PUSH1 0x20 ADD PUSH1 0x20 DUP3 MUL DUP1 CALLDATASIZE DUP4 CALLDATACOPY ADD SWAP1 POP JUMPDEST POP DUP9 DUP3 DUP2 MLOAD DUP2 LT PUSH2 0x6A3D JUMPI INVALID JUMPDEST PUSH1 0x20 MUL PUSH1 0x20 ADD ADD DUP2 SWAP1 MSTORE POP DUP6 DUP4 DUP2 MLOAD DUP2 LT PUSH2 0x6A54 JUMPI INVALID JUMPDEST PUSH1 0x20 MUL PUSH1 0x20 ADD ADD MLOAD DUP9 DUP3 DUP2 MLOAD DUP2 LT PUSH2 0x6A68 JUMPI INVALID JUMPDEST PUSH1 0x20 MUL PUSH1 0x20 ADD ADD MLOAD PUSH1 0x0 DUP2 MLOAD DUP2 LT PUSH2 0x6A7C JUMPI INVALID JUMPDEST PUSH1 0x20 MUL PUSH1 0x20 ADD ADD SWAP1 PUSH1 0x1 PUSH1 0x1 PUSH1 0xA0 SHL SUB AND SWAP1 DUP2 PUSH1 0x1 PUSH1 0x1 PUSH1 0xA0 SHL SUB AND DUP2 MSTORE POP POP PUSH1 0x0 JUMPDEST DUP5 DUP4 DUP2 MLOAD DUP2 LT PUSH2 0x6AAB JUMPI INVALID JUMPDEST PUSH1 0x20 MUL PUSH1 0x20 ADD ADD MLOAD MLOAD DUP2 LT ISZERO PUSH2 0x6B24 JUMPI DUP5 DUP4 DUP2 MLOAD DUP2 LT PUSH2 0x6AC7 JUMPI INVALID JUMPDEST PUSH1 0x20 MUL PUSH1 0x20 ADD ADD MLOAD DUP2 DUP2 MLOAD DUP2 LT PUSH2 0x6ADA JUMPI INVALID JUMPDEST PUSH1 0x20 MUL PUSH1 0x20 ADD ADD MLOAD DUP10 DUP4 DUP2 MLOAD DUP2 LT PUSH2 0x6AEE JUMPI INVALID JUMPDEST PUSH1 0x20 MUL PUSH1 0x20 ADD ADD MLOAD DUP3 PUSH1 0x1 ADD DUP2 MLOAD DUP2 LT PUSH2 0x6B04 JUMPI INVALID JUMPDEST PUSH1 0x1 PUSH1 0x1 PUSH1 0xA0 SHL SUB SWAP1 SWAP3 AND PUSH1 0x20 SWAP3 DUP4 MUL SWAP2 SWAP1 SWAP2 ADD SWAP1 SWAP2 ADD MSTORE PUSH1 0x1 ADD PUSH2 0x6A9F JUMP JUMPDEST POP POP PUSH1 0x1 ADD PUSH2 0x69C8 JUMP JUMPDEST POP PUSH1 0x1 ADD PUSH2 0x69BD JUMP JUMPDEST POP POP POP POP POP SWAP4 SWAP3 POP POP POP JUMP JUMPDEST PUSH1 0x60 PUSH1 0x2 DUP4 MLOAD LT ISZERO DUP1 ISZERO PUSH2 0x6B5B JUMPI POP DUP2 MLOAD PUSH1 0x1 ADD DUP4 MLOAD EQ JUMPDEST PUSH2 0x6B77 JUMPI PUSH1 0x40 MLOAD PUSH3 0x461BCD PUSH1 0xE5 SHL DUP2 MSTORE PUSH1 0x4 ADD PUSH2 0x59DC SWAP1 PUSH2 0x9E04 JUMP JUMPDEST DUP2 MLOAD PUSH1 0x3 MUL DUP4 MLOAD PUSH1 0x14 MUL ADD PUSH1 0x1 PUSH1 0x1 PUSH1 0x40 SHL SUB DUP2 GT DUP1 ISZERO PUSH2 0x6B97 JUMPI PUSH1 0x0 DUP1 REVERT JUMPDEST POP PUSH1 0x40 MLOAD SWAP1 DUP1 DUP3 MSTORE DUP1 PUSH1 0x1F ADD PUSH1 0x1F NOT AND PUSH1 0x20 ADD DUP3 ADD PUSH1 0x40 MSTORE DUP1 ISZERO PUSH2 0x6BC2 JUMPI PUSH1 0x20 DUP3 ADD DUP2 DUP1 CALLDATASIZE DUP4 CALLDATACOPY ADD SWAP1 POP JUMPDEST POP SWAP1 POP PUSH1 0x20 DUP2 ADD PUSH1 0x0 JUMPDEST DUP5 MLOAD DUP2 LT ISZERO PUSH2 0x5ADA JUMPI DUP1 ISZERO PUSH2 0x6C71 JUMPI PUSH1 0x0 DUP5 PUSH1 0x1 DUP4 SUB DUP2 MLOAD DUP2 LT PUSH2 0x6BEC JUMPI INVALID JUMPDEST PUSH1 0x20 MUL PUSH1 0x20 ADD ADD MLOAD PUSH1 0x1 PUSH1 0x1 PUSH1 0xA0 SHL SUB AND PUSH4 0xDDCA3F43 PUSH1 0x40 MLOAD DUP2 PUSH4 0xFFFFFFFF AND PUSH1 0xE0 SHL DUP2 MSTORE PUSH1 0x4 ADD PUSH1 0x20 PUSH1 0x40 MLOAD DUP1 DUP4 SUB DUP2 DUP7 DUP1 EXTCODESIZE ISZERO DUP1 ISZERO PUSH2 0x6C2C JUMPI PUSH1 0x0 DUP1 REVERT JUMPDEST POP GAS STATICCALL ISZERO DUP1 ISZERO PUSH2 0x6C40 JUMPI RETURNDATASIZE PUSH1 0x0 DUP1 RETURNDATACOPY RETURNDATASIZE PUSH1 0x0 REVERT JUMPDEST POP POP POP POP PUSH1 0x40 MLOAD RETURNDATASIZE PUSH1 0x1F NOT PUSH1 0x1F DUP3 ADD AND DUP3 ADD DUP1 PUSH1 0x40 MSTORE POP DUP2 ADD SWAP1 PUSH2 0x6C64 SWAP2 SWAP1 PUSH2 0x93CD JUMP JUMPDEST PUSH1 0xE8 SHL DUP4 MSTORE POP PUSH1 0x3 SWAP1 SWAP2 ADD SWAP1 JUMPDEST PUSH1 0x0 DUP6 DUP3 DUP2 MLOAD DUP2 LT PUSH2 0x6C7F JUMPI INVALID JUMPDEST PUSH1 0x20 SWAP1 DUP2 MUL SWAP2 SWAP1 SWAP2 ADD ADD MLOAD PUSH1 0x60 SHL DUP4 MSTORE POP PUSH1 0x14 SWAP1 SWAP2 ADD SWAP1 PUSH1 0x1 ADD PUSH2 0x6BCC JUMP JUMPDEST PUSH1 0x0 DUP3 DUP3 MUL DUP4 ISZERO DUP1 ISZERO SWAP1 PUSH2 0x6CBB JUMPI POP DUP3 DUP5 DUP3 DUP2 PUSH2 0x6CB7 JUMPI INVALID JUMPDEST DIV EQ ISZERO JUMPDEST ISZERO PUSH2 0x6CCA JUMPI PUSH1 0x0 SWAP2 POP POP PUSH2 0x5ADD JUMP JUMPDEST PUSH8 0x6F05B59D3B20000 DUP2 ADD DUP2 DUP2 LT ISZERO PUSH2 0x6CE8 JUMPI PUSH1 0x0 SWAP3 POP POP POP PUSH2 0x5ADD JUMP JUMPDEST PUSH8 0xDE0B6B3A7640000 SWAP1 DIV SWAP5 SWAP4 POP POP POP POP JUMP JUMPDEST PUSH1 0x60 DUP2 MLOAD PUSH1 0x1 PUSH1 0x1 PUSH1 0x40 SHL SUB DUP2 GT DUP1 ISZERO PUSH2 0x6D14 JUMPI PUSH1 0x0 DUP1 REVERT JUMPDEST POP PUSH1 0x40 MLOAD SWAP1 DUP1 DUP3 MSTORE DUP1 PUSH1 0x20 MUL PUSH1 0x20 ADD DUP3 ADD PUSH1 0x40 MSTORE DUP1 ISZERO PUSH2 0x6D3E JUMPI DUP2 PUSH1 0x20 ADD PUSH1 0x20 DUP3 MUL DUP1 CALLDATASIZE DUP4 CALLDATACOPY ADD SWAP1 POP JUMPDEST POP SWAP1 POP PUSH1 0x0 JUMPDEST DUP3 MLOAD DUP2 LT ISZERO PUSH2 0x2D5B JUMPI DUP3 PUSH1 0x1 DUP3 DUP6 MLOAD SUB SUB DUP2 MLOAD DUP2 LT PUSH2 0x6D5F JUMPI INVALID JUMPDEST PUSH1 0x20 MUL PUSH1 0x20 ADD ADD MLOAD DUP3 DUP3 DUP2 MLOAD DUP2 LT PUSH2 0x6D73 JUMPI INVALID JUMPDEST PUSH1 0x1 PUSH1 0x1 PUSH1 0xA0 SHL SUB SWAP1 SWAP3 AND PUSH1 0x20 SWAP3 DUP4 MUL SWAP2 SWAP1 SWAP2 ADD SWAP1 SWAP2 ADD MSTORE PUSH1 0x1 ADD PUSH2 0x6D44 JUMP JUMPDEST PUSH1 0x60 DUP2 MLOAD PUSH1 0x1 PUSH1 0x1 PUSH1 0x40 SHL SUB DUP2 GT DUP1 ISZERO PUSH2 0x6DAC JUMPI PUSH1 0x0 DUP1 REVERT JUMPDEST POP PUSH1 0x40 MLOAD SWAP1 DUP1 DUP3 MSTORE DUP1 PUSH1 0x20 MUL PUSH1 0x20 ADD DUP3 ADD PUSH1 0x40 MSTORE DUP1 ISZERO PUSH2 0x6DD6 JUMPI DUP2 PUSH1 0x20 ADD PUSH1 0x20 DUP3 MUL DUP1 CALLDATASIZE DUP4 CALLDATACOPY ADD SWAP1 POP JUMPDEST POP SWAP1 POP PUSH1 0x0 JUMPDEST DUP3 MLOAD DUP2 LT ISZERO PUSH2 0x2D5B JUMPI DUP3 PUSH1 0x1 DUP3 DUP6 MLOAD SUB SUB DUP2 MLOAD DUP2 LT PUSH2 0x6DF7 JUMPI INVALID JUMPDEST PUSH1 0x20 MUL PUSH1 0x20 ADD ADD MLOAD DUP3 DUP3 DUP2 MLOAD DUP2 LT PUSH2 0x6E0B JUMPI INVALID JUMPDEST PUSH1 0x1 PUSH1 0x1 PUSH1 0xA0 SHL SUB SWAP1 SWAP3 AND PUSH1 0x20 SWAP3 DUP4 MUL SWAP2 SWAP1 SWAP2 ADD SWAP1 SWAP2 ADD MSTORE PUSH1 0x1 ADD PUSH2 0x6DDC JUMP JUMPDEST PUSH1 0x0 DUP1 PUSH1 0x0 DUP6 DUP1 PUSH1 0x20 ADD SWAP1 MLOAD DUP2 ADD SWAP1 PUSH2 0x6E44 SWAP2 SWAP1 PUSH2 0x86A9 JUMP JUMPDEST SWAP2 POP SWAP2 POP PUSH1 0x0 DUP6 DUP1 PUSH1 0x20 ADD SWAP1 MLOAD DUP2 ADD SWAP1 PUSH2 0x6E5E SWAP2 SWAP1 PUSH2 0x868D JUMP JUMPDEST SWAP1 POP ADDRESS PUSH4 0xE8E4AF09 DUP4 DUP6 DUP5 PUSH2 0x6E72 DUP11 PUSH2 0x7B2E JUMP JUMPDEST PUSH1 0x40 MLOAD DUP6 PUSH4 0xFFFFFFFF AND PUSH1 0xE0 SHL DUP2 MSTORE PUSH1 0x4 ADD PUSH2 0x6E91 SWAP5 SWAP4 SWAP3 SWAP2 SWAP1 PUSH2 0x980B JUMP JUMPDEST PUSH1 0x0 PUSH1 0x40 MLOAD DUP1 DUP4 SUB DUP2 DUP7 DUP1 EXTCODESIZE ISZERO DUP1 ISZERO PUSH2 0x6EA9 JUMPI PUSH1 0x0 DUP1 REVERT JUMPDEST POP GAS STATICCALL SWAP3 POP POP POP DUP1 ISZERO PUSH2 0x6EDE JUMPI POP PUSH1 0x40 MLOAD RETURNDATASIZE PUSH1 0x0 DUP3 RETURNDATACOPY PUSH1 0x1F RETURNDATASIZE SWAP1 DUP2 ADD PUSH1 0x1F NOT AND DUP3 ADD PUSH1 0x40 MSTORE PUSH2 0x6EDB SWAP2 SWAP1 DUP2 ADD SWAP1 PUSH2 0x8E93 JUMP JUMPDEST PUSH1 0x1 JUMPDEST PUSH2 0x6F1F JUMPI RETURNDATASIZE DUP1 DUP1 ISZERO PUSH2 0x6F0C JUMPI PUSH1 0x40 MLOAD SWAP2 POP PUSH1 0x1F NOT PUSH1 0x3F RETURNDATASIZE ADD AND DUP3 ADD PUSH1 0x40 MSTORE RETURNDATASIZE DUP3 MSTORE RETURNDATASIZE PUSH1 0x0 PUSH1 0x20 DUP5 ADD RETURNDATACOPY PUSH2 0x6F11 JUMP JUMPDEST PUSH1 0x60 SWAP2 POP JUMPDEST POP PUSH1 0x0 SWAP5 POP POP POP POP POP PUSH2 0x3DB2 JUMP JUMPDEST DUP1 PUSH1 0x0 DUP2 MLOAD DUP2 LT PUSH2 0x6F2C JUMPI INVALID JUMPDEST PUSH1 0x20 MUL PUSH1 0x20 ADD ADD MLOAD SWAP5 POP POP POP POP POP PUSH2 0x3DB2 JUMP JUMPDEST PUSH1 0x0 PUSH2 0x11FB DUP4 PUSH2 0x60F8 PUSH2 0x6F53 DUP3 PUSH1 0x1 PUSH2 0x7B0F JUMP JUMPDEST PUSH2 0x6F5D DUP9 DUP8 PUSH2 0x7A93 JUMP JUMPDEST SWAP1 PUSH2 0x7AC9 JUMP JUMPDEST PUSH1 0x0 PUSH1 0x12 SWAP1 POP PUSH1 0x0 PUSH1 0x60 DUP4 PUSH1 0x1 PUSH1 0x1 PUSH1 0xA0 SHL SUB AND PUSH1 0x40 MLOAD DUP1 PUSH1 0x40 ADD PUSH1 0x40 MSTORE DUP1 PUSH1 0x4 DUP2 MSTORE PUSH1 0x20 ADD PUSH4 0x313CE567 PUSH1 0xE0 SHL DUP2 MSTORE POP PUSH1 0x40 MLOAD PUSH2 0x6FA1 SWAP2 SWAP1 PUSH2 0x977D JUMP JUMPDEST PUSH1 0x0 PUSH1 0x40 MLOAD DUP1 DUP4 SUB DUP2 DUP6 GAS STATICCALL SWAP2 POP POP RETURNDATASIZE DUP1 PUSH1 0x0 DUP2 EQ PUSH2 0x6FDC JUMPI PUSH1 0x40 MLOAD SWAP2 POP PUSH1 0x1F NOT PUSH1 0x3F RETURNDATASIZE ADD AND DUP3 ADD PUSH1 0x40 MSTORE RETURNDATASIZE DUP3 MSTORE RETURNDATASIZE PUSH1 0x0 PUSH1 0x20 DUP5 ADD RETURNDATACOPY PUSH2 0x6FE1 JUMP JUMPDEST PUSH1 0x60 SWAP2 POP JUMPDEST POP SWAP2 POP SWAP2 POP DUP2 DUP1 ISZERO PUSH2 0x6FF5 JUMPI POP PUSH1 0x20 DUP2 MLOAD LT ISZERO JUMPDEST ISZERO PUSH2 0x7008 JUMPI PUSH2 0x7005 DUP2 PUSH1 0x0 PUSH2 0x72B1 JUMP JUMPDEST SWAP3 POP JUMPDEST POP POP SWAP2 SWAP1 POP JUMP JUMPDEST PUSH1 0x0 DUP1 PUSH1 0x0 DUP1 DUP5 PUSH1 0x1 PUSH1 0x1 PUSH1 0xA0 SHL SUB AND PUSH4 0xD9638D36 DUP12 PUSH1 0x20 ADD MLOAD PUSH1 0x40 MLOAD DUP3 PUSH4 0xFFFFFFFF AND PUSH1 0xE0 SHL DUP2 MSTORE PUSH1 0x4 ADD PUSH2 0x7045 SWAP2 SWAP1 PUSH2 0x9BC9 JUMP JUMPDEST PUSH1 0xA0 PUSH1 0x40 MLOAD DUP1 DUP4 SUB DUP2 DUP7 DUP1 EXTCODESIZE ISZERO DUP1 ISZERO PUSH2 0x705D JUMPI PUSH1 0x0 DUP1 REVERT JUMPDEST POP GAS STATICCALL ISZERO DUP1 ISZERO PUSH2 0x7071 JUMPI RETURNDATASIZE PUSH1 0x0 DUP1 RETURNDATACOPY RETURNDATASIZE PUSH1 0x0 REVERT JUMPDEST POP POP POP POP PUSH1 0x40 MLOAD RETURNDATASIZE PUSH1 0x1F NOT PUSH1 0x1F DUP3 ADD AND DUP3 ADD DUP1 PUSH1 0x40 MSTORE POP DUP2 ADD SWAP1 PUSH2 0x7095 SWAP2 SWAP1 PUSH2 0x9448 JUMP JUMPDEST SWAP5 POP SWAP5 POP POP POP SWAP3 POP DUP10 PUSH1 0x40 ADD MLOAD PUSH1 0x1 PUSH1 0x1 PUSH1 0xA0 SHL SUB AND DUP9 PUSH1 0x1 PUSH1 0x1 PUSH1 0xA0 SHL SUB AND EQ ISZERO PUSH2 0x71AC JUMPI PUSH1 0x0 DUP8 SWAP1 POP PUSH1 0x0 PUSH2 0x7145 DUP9 PUSH1 0x1 PUSH1 0x1 PUSH1 0xA0 SHL SUB AND PUSH4 0x568D4B6F PUSH1 0x40 MLOAD DUP2 PUSH4 0xFFFFFFFF AND PUSH1 0xE0 SHL DUP2 MSTORE PUSH1 0x4 ADD PUSH1 0x20 PUSH1 0x40 MLOAD DUP1 DUP4 SUB DUP2 DUP7 DUP1 EXTCODESIZE ISZERO DUP1 ISZERO PUSH2 0x70FE JUMPI PUSH1 0x0 DUP1 REVERT JUMPDEST POP GAS STATICCALL ISZERO DUP1 ISZERO PUSH2 0x7112 JUMPI RETURNDATASIZE PUSH1 0x0 DUP1 RETURNDATACOPY RETURNDATASIZE PUSH1 0x0 REVERT JUMPDEST POP POP POP POP PUSH1 0x40 MLOAD RETURNDATASIZE PUSH1 0x1F NOT PUSH1 0x1F DUP3 ADD AND DUP3 ADD DUP1 PUSH1 0x40 MSTORE POP DUP2 ADD SWAP1 PUSH2 0x7136 SWAP2 SWAP1 PUSH2 0x8EE5 JUMP JUMPDEST PUSH8 0xDE0B6B3A7640000 SWAP1 PUSH2 0x7B0F JUMP JUMPDEST SWAP1 POP PUSH1 0x0 PUSH2 0x715F DUP3 PUSH2 0x60F8 DUP6 PUSH8 0xDE0B6B3A7640000 PUSH2 0x7A93 JUMP JUMPDEST SWAP1 POP PUSH1 0x0 PUSH2 0x717D PUSH12 0x33B2E3C9FD0803CE8000000 PUSH2 0x6051 DUP10 DUP6 PUSH2 0x7AC9 JUMP JUMPDEST SWAP1 POP DUP6 DUP2 LT PUSH2 0x7196 JUMPI PUSH1 0x0 SWAP8 POP POP POP POP POP POP POP POP PUSH2 0x6225 JUMP JUMPDEST PUSH1 0x0 PUSH2 0x610C PUSH1 0x1 PUSH2 0x6F5D DUP6 PUSH5 0xE8D4A51000 PUSH2 0x7AE5 JUMP JUMPDEST DUP10 PUSH1 0x40 ADD MLOAD PUSH1 0x1 PUSH1 0x1 PUSH1 0xA0 SHL SUB AND DUP10 PUSH1 0x1 PUSH1 0x1 PUSH1 0xA0 SHL SUB AND EQ ISZERO PUSH2 0x7291 JUMPI PUSH1 0x0 PUSH2 0x71DB DUP9 PUSH5 0xE8D4A51000 PUSH2 0x7A93 JUMP JUMPDEST SWAP1 POP PUSH1 0x0 PUSH2 0x721B DUP9 PUSH1 0x1 PUSH1 0x1 PUSH1 0xA0 SHL SUB AND PUSH4 0xFAE036D5 PUSH1 0x40 MLOAD DUP2 PUSH4 0xFFFFFFFF AND PUSH1 0xE0 SHL DUP2 MSTORE PUSH1 0x4 ADD PUSH1 0x20 PUSH1 0x40 MLOAD DUP1 DUP4 SUB DUP2 DUP7 DUP1 EXTCODESIZE ISZERO DUP1 ISZERO PUSH2 0x61C3 JUMPI PUSH1 0x0 DUP1 REVERT JUMPDEST SWAP1 POP PUSH1 0x0 PUSH2 0x7235 PUSH8 0xDE0B6B3A7640000 PUSH2 0x60F8 DUP6 DUP6 PUSH2 0x7A93 JUMP JUMPDEST SWAP1 POP DUP6 DUP2 GT ISZERO PUSH2 0x724E JUMPI PUSH1 0x0 SWAP7 POP POP POP POP POP POP POP PUSH2 0x6225 JUMP JUMPDEST PUSH1 0x0 PUSH2 0x726A PUSH12 0x33B2E3C9FD0803CE8000000 PUSH2 0x6051 DUP10 DUP6 PUSH2 0x7B0F JUMP JUMPDEST SWAP1 POP DUP5 DUP2 GT PUSH2 0x7283 JUMPI PUSH1 0x0 SWAP8 POP POP POP POP POP POP POP POP PUSH2 0x6225 JUMP JUMPDEST POP SWAP6 POP PUSH2 0x6225 SWAP5 POP POP POP POP POP JUMP JUMPDEST POP PUSH1 0x0 SWAP10 SWAP9 POP POP POP POP POP POP POP POP POP JUMP JUMPDEST PUSH2 0x72AC DUP4 DUP4 DUP4 PUSH2 0x7DD3 JUMP JUMPDEST POP POP POP JUMP JUMPDEST PUSH1 0x0 PUSH2 0x3DB2 DUP4 DUP4 PUSH2 0x7DFA JUMP JUMPDEST PUSH1 0x0 DUP1 PUSH2 0x72C8 PUSH2 0x7F81 JUMP JUMPDEST DUP6 DUP1 PUSH1 0x20 ADD SWAP1 MLOAD DUP2 ADD SWAP1 PUSH2 0x72DC SWAP2 SWAP1 PUSH2 0x8F91 JUMP JUMPDEST SWAP2 POP SWAP2 POP PUSH1 0x0 DUP6 DUP1 PUSH1 0x20 ADD SWAP1 MLOAD DUP2 ADD SWAP1 PUSH2 0x72F6 SWAP2 SWAP1 PUSH2 0x8F75 JUMP JUMPDEST SWAP1 POP PUSH1 0x0 PUSH1 0x60 ADDRESS PUSH4 0x205E01D7 PUSH1 0xE1 SHL DUP6 DUP8 DUP7 PUSH2 0x6283 DUP13 PUSH2 0x7B2E JUMP JUMPDEST PUSH1 0x0 DUP1 DUP5 PUSH1 0x20 ADD MLOAD SWAP1 POP PUSH1 0x60 DUP2 PUSH1 0x1 PUSH1 0x1 PUSH1 0xA0 SHL SUB AND PUSH4 0x910FFC71 DUP8 PUSH1 0x60 ADD MLOAD PUSH1 0x1 PUSH1 0x1 PUSH1 0xA0 SHL SUB AND DUP8 PUSH1 0x1 PUSH1 0x1 PUSH1 0xA0 SHL SUB AND EQ PUSH2 0x734F JUMPI DUP7 PUSH2 0x7365 JUMP JUMPDEST PUSH20 0xEEEEEEEEEEEEEEEEEEEEEEEEEEEEEEEEEEEEEEEE JUMPDEST DUP9 PUSH1 0x60 ADD MLOAD PUSH1 0x1 PUSH1 0x1 PUSH1 0xA0 SHL SUB AND DUP8 PUSH1 0x1 PUSH1 0x1 PUSH1 0xA0 SHL SUB AND EQ PUSH2 0x7388 JUMPI DUP7 PUSH2 0x739E JUMP JUMPDEST PUSH20 0xEEEEEEEEEEEEEEEEEEEEEEEEEEEEEEEEEEEEEEEE JUMPDEST PUSH1 0x40 DUP1 MLOAD PUSH1 0x0 DUP2 MSTORE PUSH1 0x20 DUP2 ADD SWAP2 DUP3 SWAP1 MSTORE PUSH1 0x1 PUSH1 0x1 PUSH1 0xE0 SHL SUB NOT PUSH1 0xE0 DUP7 SWAP1 SHL AND SWAP1 SWAP2 MSTORE PUSH2 0x73D2 SWAP3 SWAP2 SWAP1 PUSH1 0x1 SWAP1 PUSH1 0x24 DUP2 ADD PUSH2 0x988D JUMP JUMPDEST PUSH1 0x0 PUSH1 0x40 MLOAD DUP1 DUP4 SUB DUP2 DUP7 DUP1 EXTCODESIZE ISZERO DUP1 ISZERO PUSH2 0x73EA JUMPI PUSH1 0x0 DUP1 REVERT JUMPDEST POP GAS STATICCALL ISZERO DUP1 ISZERO PUSH2 0x73FE JUMPI RETURNDATASIZE PUSH1 0x0 DUP1 RETURNDATACOPY RETURNDATASIZE PUSH1 0x0 REVERT JUMPDEST POP POP POP POP PUSH1 0x40 MLOAD RETURNDATASIZE PUSH1 0x0 DUP3 RETURNDATACOPY PUSH1 0x1F RETURNDATASIZE SWAP1 DUP2 ADD PUSH1 0x1F NOT AND DUP3 ADD PUSH1 0x40 MSTORE PUSH2 0x7426 SWAP2 SWAP1 DUP2 ADD SWAP1 PUSH2 0x8AD2 JUMP JUMPDEST POP POP SWAP1 POP DUP1 MLOAD DUP7 PUSH1 0x0 ADD MLOAD LT PUSH2 0x7442 JUMPI POP PUSH1 0x0 SWAP2 POP PUSH2 0x3DB2 SWAP1 POP JUMP JUMPDEST DUP1 DUP7 PUSH1 0x0 ADD MLOAD DUP2 MLOAD DUP2 LT PUSH2 0x7452 JUMPI INVALID JUMPDEST PUSH1 0x20 MUL PUSH1 0x20 ADD ADD MLOAD SWAP3 POP PUSH1 0xF8 DUP4 SWAP1 SHR PUSH1 0x0 SHR PUSH1 0xBB EQ ISZERO PUSH2 0x19C7 JUMPI POP PUSH1 0x0 SWAP2 POP PUSH2 0x3DB2 SWAP1 POP JUMP JUMPDEST PUSH1 0x0 DUP1 PUSH2 0x7483 PUSH2 0x7FBF JUMP JUMPDEST DUP5 DUP1 PUSH1 0x20 ADD SWAP1 MLOAD DUP2 ADD SWAP1 PUSH2 0x7497 SWAP2 SWAP1 PUSH2 0x8788 JUMP JUMPDEST SWAP2 POP SWAP2 POP PUSH1 0x0 DUP7 DUP1 PUSH1 0x20 ADD SWAP1 MLOAD DUP2 ADD SWAP1 PUSH2 0x74B1 SWAP2 SWAP1 PUSH2 0x8788 JUMP JUMPDEST POP PUSH1 0x40 MLOAD PUSH4 0x3C7B5FE9 PUSH1 0xE2 SHL DUP2 MSTORE SWAP1 SWAP2 POP ADDRESS SWAP1 PUSH4 0xF1ED7FA4 SWAP1 PUSH2 0x74DE SWAP1 DUP6 SWAP1 DUP6 SWAP1 DUP9 SWAP1 DUP12 SWAP1 PUSH1 0x4 ADD PUSH2 0x9EE8 JUMP JUMPDEST PUSH1 0x20 PUSH1 0x40 MLOAD DUP1 DUP4 SUB DUP2 DUP7 DUP1 EXTCODESIZE ISZERO DUP1 ISZERO PUSH2 0x74F6 JUMPI PUSH1 0x0 DUP1 REVERT JUMPDEST POP GAS STATICCALL SWAP3 POP POP POP DUP1 ISZERO PUSH2 0x7526 JUMPI POP PUSH1 0x40 DUP1 MLOAD PUSH1 0x1F RETURNDATASIZE SWAP1 DUP2 ADD PUSH1 0x1F NOT AND DUP3 ADD SWAP1 SWAP3 MSTORE PUSH2 0x7523 SWAP2 DUP2 ADD SWAP1 PUSH2 0x8EE5 JUMP JUMPDEST PUSH1 0x1 JUMPDEST PUSH2 0x7554 JUMPI RETURNDATASIZE DUP1 DUP1 ISZERO PUSH2 0x6F0C JUMPI PUSH1 0x40 MLOAD SWAP2 POP PUSH1 0x1F NOT PUSH1 0x3F RETURNDATASIZE ADD AND DUP3 ADD PUSH1 0x40 MSTORE RETURNDATASIZE DUP3 MSTORE RETURNDATASIZE PUSH1 0x0 PUSH1 0x20 DUP5 ADD RETURNDATACOPY PUSH2 0x6F11 JUMP JUMPDEST SWAP4 POP PUSH2 0x3DB2 SWAP3 POP POP POP JUMP JUMPDEST PUSH1 0x0 DUP1 PUSH1 0x60 DUP7 PUSH1 0x1 PUSH1 0x1 PUSH1 0xA0 SHL SUB AND PUSH4 0x57A281DC DUP7 DUP7 PUSH1 0x40 MLOAD DUP4 PUSH4 0xFFFFFFFF AND PUSH1 0xE0 SHL DUP2 MSTORE PUSH1 0x4 ADD PUSH2 0x7592 SWAP3 SWAP2 SWAP1 PUSH2 0x97C6 JUMP JUMPDEST PUSH1 0x0 PUSH1 0x40 MLOAD DUP1 DUP4 SUB DUP2 DUP7 DUP1 EXTCODESIZE ISZERO DUP1 ISZERO PUSH2 0x75AA JUMPI PUSH1 0x0 DUP1 REVERT JUMPDEST POP GAS STATICCALL ISZERO DUP1 ISZERO PUSH2 0x75BE JUMPI RETURNDATASIZE PUSH1 0x0 DUP1 RETURNDATACOPY RETURNDATASIZE PUSH1 0x0 REVERT JUMPDEST POP POP POP POP PUSH1 0x40 MLOAD RETURNDATASIZE PUSH1 0x0 DUP3 RETURNDATACOPY PUSH1 0x1F RETURNDATASIZE SWAP1 DUP2 ADD PUSH1 0x1F NOT AND DUP3 ADD PUSH1 0x40 MSTORE PUSH2 0x75E6 SWAP2 SWAP1 DUP2 ADD SWAP1 PUSH2 0x8A3A JUMP JUMPDEST SWAP1 POP PUSH1 0x1 SWAP2 POP DUP1 MLOAD PUSH1 0x0 EQ ISZERO PUSH2 0x767F JUMPI PUSH1 0x40 MLOAD PUSH4 0x15E8A077 PUSH1 0xE2 SHL DUP2 MSTORE PUSH1 0x1 PUSH1 0x1 PUSH1 0xA0 SHL SUB DUP9 AND SWAP1 PUSH4 0x57A281DC SWAP1 PUSH2 0x7624 SWAP1 DUP8 SWAP1 DUP10 SWAP1 PUSH1 0x4 ADD PUSH2 0x97C6 JUMP JUMPDEST PUSH1 0x0 PUSH1 0x40 MLOAD DUP1 DUP4 SUB DUP2 DUP7 DUP1 EXTCODESIZE ISZERO DUP1 ISZERO PUSH2 0x763C JUMPI PUSH1 0x0 DUP1 REVERT JUMPDEST POP GAS STATICCALL ISZERO DUP1 ISZERO PUSH2 0x7650 JUMPI RETURNDATASIZE PUSH1 0x0 DUP1 RETURNDATACOPY RETURNDATASIZE PUSH1 0x0 REVERT JUMPDEST POP POP POP POP PUSH1 0x40 MLOAD RETURNDATASIZE PUSH1 0x0 DUP3 RETURNDATACOPY PUSH1 0x1F RETURNDATASIZE SWAP1 DUP2 ADD PUSH1 0x1F NOT AND DUP3 ADD PUSH1 0x40 MSTORE PUSH2 0x7678 SWAP2 SWAP1 DUP2 ADD SWAP1 PUSH2 0x8A3A JUMP JUMPDEST SWAP1 POP PUSH1 0x0 SWAP2 POP JUMPDEST DUP1 MLOAD DUP7 LT PUSH2 0x7694 JUMPI PUSH1 0x0 DUP1 SWAP3 POP SWAP3 POP POP PUSH2 0x5D0C JUMP JUMPDEST DUP1 DUP7 DUP2 MLOAD DUP2 LT PUSH2 0x76A0 JUMPI INVALID JUMPDEST PUSH1 0x20 MUL PUSH1 0x20 ADD ADD MLOAD SWAP3 POP POP SWAP5 POP SWAP5 SWAP3 POP POP POP JUMP JUMPDEST PUSH1 0x0 DUP1 PUSH1 0x0 DUP1 DUP7 DUP1 PUSH1 0x20 ADD SWAP1 MLOAD DUP2 ADD SWAP1 PUSH2 0x76CE SWAP2 SWAP1 PUSH2 0x8740 JUMP JUMPDEST SWAP3 POP SWAP3 POP SWAP3 POP DUP1 ISZERO PUSH2 0x7772 JUMPI PUSH1 0x40 MLOAD PUSH4 0x3CD0243B PUSH1 0xE1 SHL DUP2 MSTORE PUSH1 0x1 PUSH1 0x1 PUSH1 0xA0 SHL SUB DUP4 AND SWAP1 PUSH4 0x79A04876 SWAP1 PUSH3 0x493E0 SWAP1 PUSH2 0x770E SWAP1 PUSH1 0x0 SWAP1 DUP11 SWAP1 PUSH1 0x4 ADD PUSH2 0x97AD JUMP JUMPDEST PUSH1 0x40 DUP1 MLOAD DUP1 DUP4 SUB DUP2 DUP8 DUP1 EXTCODESIZE ISZERO DUP1 ISZERO PUSH2 0x7725 JUMPI PUSH1 0x0 DUP1 REVERT JUMPDEST POP DUP7 STATICCALL SWAP4 POP POP POP POP DUP1 ISZERO PUSH2 0x7756 JUMPI POP PUSH1 0x40 DUP1 MLOAD PUSH1 0x1F RETURNDATASIZE SWAP1 DUP2 ADD PUSH1 0x1F NOT AND DUP3 ADD SWAP1 SWAP3 MSTORE PUSH2 0x7753 SWAP2 DUP2 ADD SWAP1 PUSH2 0x93F0 JUMP JUMPDEST PUSH1 0x1 JUMPDEST PUSH2 0x7766 JUMPI PUSH1 0x0 SWAP4 POP POP POP POP PUSH2 0x3DB2 JUMP JUMPDEST POP SWAP4 POP PUSH2 0x3DB2 SWAP3 POP POP POP JUMP JUMPDEST PUSH1 0x40 MLOAD PUSH4 0x66410A21 PUSH1 0xE0 SHL DUP2 MSTORE PUSH1 0x1 PUSH1 0x1 PUSH1 0xA0 SHL SUB DUP4 AND SWAP1 PUSH4 0x66410A21 SWAP1 PUSH3 0x493E0 SWAP1 PUSH2 0x770E SWAP1 PUSH1 0x0 SWAP1 DUP11 SWAP1 PUSH1 0x4 ADD PUSH2 0x97AD JUMP JUMPDEST PUSH1 0x0 DUP1 PUSH1 0x0 DUP6 DUP1 PUSH1 0x20 ADD SWAP1 MLOAD DUP2 ADD SWAP1 PUSH2 0x77BF SWAP2 SWAP1 PUSH2 0x86A9 JUMP JUMPDEST SWAP2 POP SWAP2 POP PUSH1 0x0 DUP6 DUP1 PUSH1 0x20 ADD SWAP1 MLOAD DUP2 ADD SWAP1 PUSH2 0x77D9 SWAP2 SWAP1 PUSH2 0x868D JUMP JUMPDEST SWAP1 POP ADDRESS PUSH4 0x30D6570D DUP4 DUP6 DUP5 PUSH2 0x6E72 DUP11 PUSH2 0x7B2E JUMP JUMPDEST PUSH1 0x0 DUP1 PUSH1 0x60 DUP5 PUSH1 0x1 PUSH1 0x1 PUSH1 0xA0 SHL SUB AND PUSH4 0x70A08231 PUSH1 0xE0 SHL DUP6 PUSH1 0x40 MLOAD PUSH1 0x24 ADD PUSH2 0x7815 SWAP2 SWAP1 PUSH2 0x9799 JUMP JUMPDEST PUSH1 0x40 DUP1 MLOAD PUSH1 0x1F NOT DUP2 DUP5 SUB ADD DUP2 MSTORE SWAP2 DUP2 MSTORE PUSH1 0x20 DUP3 ADD DUP1 MLOAD PUSH1 0x1 PUSH1 0x1 PUSH1 0xE0 SHL SUB AND PUSH1 0x1 PUSH1 0x1 PUSH1 0xE0 SHL SUB NOT SWAP1 SWAP5 AND SWAP4 SWAP1 SWAP4 OR SWAP1 SWAP3 MSTORE SWAP1 MLOAD PUSH2 0x7853 SWAP2 SWAP1 PUSH2 0x977D JUMP JUMPDEST PUSH1 0x0 PUSH1 0x40 MLOAD DUP1 DUP4 SUB DUP2 DUP6 GAS STATICCALL SWAP2 POP POP RETURNDATASIZE DUP1 PUSH1 0x0 DUP2 EQ PUSH2 0x788E JUMPI PUSH1 0x40 MLOAD SWAP2 POP PUSH1 0x1F NOT PUSH1 0x3F RETURNDATASIZE ADD AND DUP3 ADD PUSH1 0x40 MSTORE RETURNDATASIZE DUP3 MSTORE RETURNDATASIZE PUSH1 0x0 PUSH1 0x20 DUP5 ADD RETURNDATACOPY PUSH2 0x7893 JUMP JUMPDEST PUSH1 0x60 SWAP2 POP JUMPDEST POP SWAP2 POP SWAP2 POP DUP2 DUP1 ISZERO PUSH2 0x78A7 JUMPI POP PUSH1 0x20 DUP2 MLOAD LT ISZERO JUMPDEST ISZERO PUSH2 0x5ADA JUMPI PUSH2 0x1269 DUP2 PUSH1 0x0 PUSH2 0x72B1 JUMP JUMPDEST PUSH1 0x0 DUP1 PUSH1 0x0 DUP6 DUP1 PUSH1 0x20 ADD SWAP1 MLOAD DUP2 ADD SWAP1 PUSH2 0x78D0 SWAP2 SWAP1 PUSH2 0x86A9 JUMP JUMPDEST SWAP2 POP SWAP2 POP PUSH1 0x0 DUP6 DUP1 PUSH1 0x20 ADD SWAP1 MLOAD DUP2 ADD SWAP1 PUSH2 0x78EA SWAP2 SWAP1 PUSH2 0x868D JUMP JUMPDEST SWAP1 POP ADDRESS PUSH4 0xA4698417 PUSH3 0x61A80 DUP5 DUP7 DUP6 PUSH2 0x7902 DUP12 PUSH2 0x7B2E JUMP JUMPDEST PUSH1 0x40 MLOAD DUP7 PUSH4 0xFFFFFFFF AND PUSH1 0xE0 SHL DUP2 MSTORE PUSH1 0x4 ADD PUSH2 0x7921 SWAP5 SWAP4 SWAP3 SWAP2 SWAP1 PUSH2 0x980B JUMP JUMPDEST PUSH1 0x0 PUSH1 0x40 MLOAD DUP1 DUP4 SUB DUP2 DUP8 DUP1 EXTCODESIZE ISZERO DUP1 ISZERO PUSH2 0x7939 JUMPI PUSH1 0x0 DUP1 REVERT JUMPDEST POP DUP7 STATICCALL SWAP4 POP POP POP POP DUP1 ISZERO PUSH2 0x6EDE JUMPI POP PUSH1 0x40 MLOAD RETURNDATASIZE PUSH1 0x0 DUP3 RETURNDATACOPY PUSH1 0x1F RETURNDATASIZE SWAP1 DUP2 ADD PUSH1 0x1F NOT AND DUP3 ADD PUSH1 0x40 MSTORE PUSH2 0x6EDB SWAP2 SWAP1 DUP2 ADD SWAP1 PUSH2 0x8E93 JUMP JUMPDEST PUSH1 0x0 DUP1 PUSH1 0x60 DUP6 PUSH1 0x1 PUSH1 0x1 PUSH1 0xA0 SHL SUB AND PUSH4 0xDD62ED3E PUSH1 0xE0 SHL DUP7 DUP7 PUSH1 0x40 MLOAD PUSH1 0x24 ADD PUSH2 0x7996 SWAP3 SWAP2 SWAP1 PUSH2 0x97C6 JUMP JUMPDEST PUSH1 0x40 DUP1 MLOAD PUSH1 0x1F NOT DUP2 DUP5 SUB ADD DUP2 MSTORE SWAP2 DUP2 MSTORE PUSH1 0x20 DUP3 ADD DUP1 MLOAD PUSH1 0x1 PUSH1 0x1 PUSH1 0xE0 SHL SUB AND PUSH1 0x1 PUSH1 0x1 PUSH1 0xE0 SHL SUB NOT SWAP1 SWAP5 AND SWAP4 SWAP1 SWAP4 OR SWAP1 SWAP3 MSTORE SWAP1 MLOAD PUSH2 0x79D4 SWAP2 SWAP1 PUSH2 0x977D JUMP JUMPDEST PUSH1 0x0 PUSH1 0x40 MLOAD DUP1 DUP4 SUB DUP2 DUP6 GAS STATICCALL SWAP2 POP POP RETURNDATASIZE DUP1 PUSH1 0x0 DUP2 EQ PUSH2 0x7A0F JUMPI PUSH1 0x40 MLOAD SWAP2 POP PUSH1 0x1F NOT PUSH1 0x3F RETURNDATASIZE ADD AND DUP3 ADD PUSH1 0x40 MSTORE RETURNDATASIZE DUP3 MSTORE RETURNDATASIZE PUSH1 0x0 PUSH1 0x20 DUP5 ADD RETURNDATACOPY PUSH2 0x7A14 JUMP JUMPDEST PUSH1 0x60 SWAP2 POP JUMPDEST POP SWAP2 POP SWAP2 POP DUP2 DUP1 ISZERO PUSH2 0x7A28 JUMPI POP PUSH1 0x20 DUP2 MLOAD LT ISZERO JUMPDEST ISZERO PUSH2 0x19C7 JUMPI PUSH2 0x6225 DUP2 PUSH1 0x0 PUSH2 0x72B1 JUMP JUMPDEST PUSH1 0x0 PUSH2 0x5ADD DUP3 PUSH2 0x6F63 JUMP JUMPDEST PUSH1 0x0 DUP1 PUSH1 0x0 DUP6 DUP1 PUSH1 0x20 ADD SWAP1 MLOAD DUP2 ADD SWAP1 PUSH2 0x7A5C SWAP2 SWAP1 PUSH2 0x86A9 JUMP JUMPDEST SWAP2 POP SWAP2 POP PUSH1 0x0 DUP1 DUP7 DUP1 PUSH1 0x20 ADD SWAP1 MLOAD DUP2 ADD SWAP1 PUSH2 0x7A77 SWAP2 SWAP1 PUSH2 0x86A9 JUMP JUMPDEST SWAP2 POP SWAP2 POP PUSH2 0x7A87 DUP5 DUP5 DUP4 DUP10 PUSH2 0x3EDF JUMP JUMPDEST SWAP9 SWAP8 POP POP POP POP POP POP POP POP JUMP JUMPDEST PUSH1 0x0 DUP3 PUSH2 0x7AA2 JUMPI POP PUSH1 0x0 PUSH2 0x5ADD JUMP JUMPDEST DUP3 DUP3 MUL DUP3 DUP5 DUP3 DUP2 PUSH2 0x7AAF JUMPI INVALID JUMPDEST DIV EQ PUSH2 0x3DB2 JUMPI PUSH2 0x3DB2 PUSH2 0x7AC4 PUSH1 0x1 DUP7 DUP7 PUSH2 0x7E24 JUMP JUMPDEST PUSH2 0x7E7E JUMP JUMPDEST PUSH1 0x0 DUP3 DUP3 ADD DUP4 DUP2 LT ISZERO PUSH2 0x3DB2 JUMPI PUSH2 0x3DB2 PUSH2 0x7AC4 PUSH1 0x0 DUP7 DUP7 PUSH2 0x7E24 JUMP JUMPDEST PUSH1 0x0 DUP2 PUSH2 0x7AFB JUMPI PUSH2 0x7AFB PUSH2 0x7AC4 PUSH1 0x3 DUP6 DUP6 PUSH2 0x7E24 JUMP JUMPDEST PUSH1 0x0 DUP3 DUP5 DUP2 PUSH2 0x7B06 JUMPI INVALID JUMPDEST DIV SWAP5 SWAP4 POP POP POP POP JUMP JUMPDEST PUSH1 0x0 DUP3 DUP3 GT ISZERO PUSH2 0x7B28 JUMPI PUSH2 0x7B28 PUSH2 0x7AC4 PUSH1 0x2 DUP6 DUP6 PUSH2 0x7E24 JUMP JUMPDEST POP SWAP1 SUB SWAP1 JUMP JUMPDEST PUSH1 0x40 DUP1 MLOAD PUSH1 0x1 DUP1 DUP3 MSTORE DUP2 DUP4 ADD SWAP1 SWAP3 MSTORE PUSH1 0x60 SWAP2 PUSH1 0x20 DUP1 DUP4 ADD SWAP1 DUP1 CALLDATASIZE DUP4 CALLDATACOPY ADD SWAP1 POP POP SWAP1 POP DUP2 DUP2 PUSH1 0x0 DUP2 MLOAD DUP2 LT PUSH2 0x7B5E JUMPI INVALID JUMPDEST PUSH1 0x20 MUL PUSH1 0x20 ADD ADD DUP2 DUP2 MSTORE POP POP SWAP2 SWAP1 POP JUMP JUMPDEST PUSH1 0x0 DUP4 ISZERO DUP1 PUSH2 0x7B7C JUMPI POP DUP2 ISZERO JUMPDEST DUP1 PUSH2 0x7B85 JUMPI POP DUP3 ISZERO JUMPDEST ISZERO PUSH2 0x7B92 JUMPI POP PUSH1 0x0 PUSH2 0x3DB2 JUMP JUMPDEST DUP4 DUP3 MUL DUP3 DUP6 DUP3 DUP2 PUSH2 0x7B9F JUMPI INVALID JUMPDEST DIV EQ PUSH2 0x7BAF JUMPI PUSH1 0x0 SWAP2 POP POP PUSH2 0x3DB2 JUMP JUMPDEST DUP4 PUSH1 0x1 DUP6 SUB DUP3 ADD DUP2 PUSH2 0x7BBD JUMPI INVALID JUMPDEST DIV SWAP6 SWAP5 POP POP POP POP POP JUMP JUMPDEST PUSH1 0x0 DUP2 EXTCODESIZE DUP1 PUSH2 0x7BDA JUMPI PUSH1 0x0 SWAP2 POP POP PUSH2 0xBAC JUMP JUMPDEST POP DUP2 PUSH1 0x1 PUSH1 0x1 PUSH1 0xA0 SHL SUB AND PUSH4 0xDFE1681 PUSH1 0x40 MLOAD DUP2 PUSH4 0xFFFFFFFF AND PUSH1 0xE0 SHL DUP2 MSTORE PUSH1 0x4 ADD PUSH1 0x20 PUSH1 0x40 MLOAD DUP1 DUP4 SUB DUP2 DUP7 DUP1 EXTCODESIZE ISZERO DUP1 ISZERO PUSH2 0x7C14 JUMPI PUSH1 0x0 DUP1 REVERT JUMPDEST POP GAS STATICCALL ISZERO DUP1 ISZERO PUSH2 0x7C28 JUMPI RETURNDATASIZE PUSH1 0x0 DUP1 RETURNDATACOPY RETURNDATASIZE PUSH1 0x0 REVERT JUMPDEST POP POP POP POP PUSH1 0x40 MLOAD RETURNDATASIZE PUSH1 0x1F NOT PUSH1 0x1F DUP3 ADD AND DUP3 ADD DUP1 PUSH1 0x40 MSTORE POP DUP2 ADD SWAP1 PUSH2 0x7C4C SWAP2 SWAP1 PUSH2 0x868D JUMP JUMPDEST PUSH1 0x1 PUSH1 0x1 PUSH1 0xA0 SHL SUB AND PUSH4 0x70A08231 DUP4 PUSH1 0x40 MLOAD DUP3 PUSH4 0xFFFFFFFF AND PUSH1 0xE0 SHL DUP2 MSTORE PUSH1 0x4 ADD PUSH2 0x7C77 SWAP2 SWAP1 PUSH2 0x9799 JUMP JUMPDEST PUSH1 0x20 PUSH1 0x40 MLOAD DUP1 DUP4 SUB DUP2 DUP7 DUP1 EXTCODESIZE ISZERO DUP1 ISZERO PUSH2 0x7C8F JUMPI PUSH1 0x0 DUP1 REVERT JUMPDEST POP GAS STATICCALL ISZERO DUP1 ISZERO PUSH2 0x7CA3 JUMPI RETURNDATASIZE PUSH1 0x0 DUP1 RETURNDATACOPY RETURNDATASIZE PUSH1 0x0 REVERT JUMPDEST POP POP POP POP PUSH1 0x40 MLOAD RETURNDATASIZE PUSH1 0x1F NOT PUSH1 0x1F DUP3 ADD AND DUP3 ADD DUP1 PUSH1 0x40 MSTORE POP DUP2 ADD SWAP1 PUSH2 0x7CC7 SWAP2 SWAP1 PUSH2 0x8EE5 JUMP JUMPDEST PUSH2 0x7CD3 JUMPI POP PUSH1 0x0 PUSH2 0xBAC JUMP JUMPDEST DUP2 PUSH1 0x1 PUSH1 0x1 PUSH1 0xA0 SHL SUB AND PUSH4 0xD21220A7 PUSH1 0x40 MLOAD DUP2 PUSH4 0xFFFFFFFF AND PUSH1 0xE0 SHL DUP2 MSTORE PUSH1 0x4 ADD PUSH1 0x20 PUSH1 0x40 MLOAD DUP1 DUP4 SUB DUP2 DUP7 DUP1 EXTCODESIZE ISZERO DUP1 ISZERO PUSH2 0x7D0C JUMPI PUSH1 0x0 DUP1 REVERT JUMPDEST POP GAS STATICCALL ISZERO DUP1 ISZERO PUSH2 0x7D20 JUMPI RETURNDATASIZE PUSH1 0x0 DUP1 RETURNDATACOPY RETURNDATASIZE PUSH1 0x0 REVERT JUMPDEST POP POP POP POP PUSH1 0x40 MLOAD RETURNDATASIZE PUSH1 0x1F NOT PUSH1 0x1F DUP3 ADD AND DUP3 ADD DUP1 PUSH1 0x40 MSTORE POP DUP2 ADD SWAP1 PUSH2 0x7D44 SWAP2 SWAP1 PUSH2 0x868D JUMP JUMPDEST PUSH1 0x1 PUSH1 0x1 PUSH1 0xA0 SHL SUB AND PUSH4 0x70A08231 DUP4 PUSH1 0x40 MLOAD DUP3 PUSH4 0xFFFFFFFF AND PUSH1 0xE0 SHL DUP2 MSTORE PUSH1 0x4 ADD PUSH2 0x7D6F SWAP2 SWAP1 PUSH2 0x9799 JUMP JUMPDEST PUSH1 0x20 PUSH1 0x40 MLOAD DUP1 DUP4 SUB DUP2 DUP7 DUP1 EXTCODESIZE ISZERO DUP1 ISZERO PUSH2 0x7D87 JUMPI PUSH1 0x0 DUP1 REVERT JUMPDEST POP GAS STATICCALL ISZERO DUP1 ISZERO PUSH2 0x7D9B JUMPI RETURNDATASIZE PUSH1 0x0 DUP1 RETURNDATACOPY RETURNDATASIZE PUSH1 0x0 REVERT JUMPDEST POP POP POP POP PUSH1 0x40 MLOAD RETURNDATASIZE PUSH1 0x1F NOT PUSH1 0x1F DUP3 ADD AND DUP3 ADD DUP1 PUSH1 0x40 MSTORE POP DUP2 ADD SWAP1 PUSH2 0x7DBF SWAP2 SWAP1 PUSH2 0x8EE5 JUMP JUMPDEST PUSH2 0x7DCB JUMPI POP PUSH1 0x0 PUSH2 0xBAC JUMP JUMPDEST POP PUSH1 0x1 SWAP2 SWAP1 POP JUMP JUMPDEST DUP2 PUSH1 0x20 ADD DUP4 MLOAD LT ISZERO PUSH2 0x7DF2 JUMPI PUSH2 0x7DF2 PUSH2 0x7AC4 PUSH1 0x5 DUP6 MLOAD DUP6 PUSH1 0x20 ADD PUSH2 0x7E86 JUMP JUMPDEST SWAP2 ADD PUSH1 0x20 ADD MSTORE JUMP JUMPDEST PUSH1 0x0 DUP2 PUSH1 0x20 ADD DUP4 MLOAD LT ISZERO PUSH2 0x7E1B JUMPI PUSH2 0x7E1B PUSH2 0x7AC4 PUSH1 0x5 DUP6 MLOAD DUP6 PUSH1 0x20 ADD PUSH2 0x7E86 JUMP JUMPDEST POP ADD PUSH1 0x20 ADD MLOAD SWAP1 JUMP JUMPDEST PUSH1 0x60 PUSH4 0xE946C1BB PUSH1 0xE0 SHL DUP5 DUP5 DUP5 PUSH1 0x40 MLOAD PUSH1 0x24 ADD PUSH2 0x7E43 SWAP4 SWAP3 SWAP2 SWAP1 PUSH2 0x9C5D JUMP JUMPDEST PUSH1 0x40 DUP1 MLOAD PUSH1 0x1F NOT DUP2 DUP5 SUB ADD DUP2 MSTORE SWAP2 SWAP1 MSTORE PUSH1 0x20 DUP2 ADD DUP1 MLOAD PUSH1 0x1 PUSH1 0x1 PUSH1 0xE0 SHL SUB AND PUSH1 0x1 PUSH1 0x1 PUSH1 0xE0 SHL SUB NOT SWAP1 SWAP4 AND SWAP3 SWAP1 SWAP3 OR SWAP1 SWAP2 MSTORE SWAP1 POP SWAP4 SWAP3 POP POP POP JUMP JUMPDEST DUP1 MLOAD PUSH1 0x20 DUP3 ADD REVERT JUMPDEST PUSH1 0x60 PUSH4 0x28006595 PUSH1 0xE0 SHL DUP5 DUP5 DUP5 PUSH1 0x40 MLOAD PUSH1 0x24 ADD PUSH2 0x7E43 SWAP4 SWAP3 SWAP2 SWAP1 PUSH2 0x9C7E JUMP JUMPDEST PUSH1 0x40 DUP1 MLOAD PUSH1 0x80 DUP2 ADD DUP3 MSTORE PUSH1 0x0 DUP1 DUP3 MSTORE PUSH1 0x20 DUP3 ADD DUP2 SWAP1 MSTORE SWAP2 DUP2 ADD DUP3 SWAP1 MSTORE PUSH1 0x60 DUP2 ADD SWAP2 SWAP1 SWAP2 MSTORE SWAP1 JUMP JUMPDEST PUSH1 0x40 MLOAD DUP1 PUSH1 0xA0 ADD PUSH1 0x40 MSTORE DUP1 PUSH1 0x0 DUP2 MSTORE PUSH1 0x20 ADD PUSH1 0x0 DUP2 MSTORE PUSH1 0x20 ADD PUSH1 0x0 DUP2 MSTORE PUSH1 0x20 ADD PUSH1 0x0 DUP2 MSTORE PUSH1 0x20 ADD PUSH1 0x0 DUP2 MSTORE POP SWAP1 JUMP JUMPDEST PUSH1 0x40 DUP1 MLOAD DUP1 DUP3 ADD SWAP1 SWAP2 MSTORE PUSH1 0x60 DUP2 MSTORE PUSH1 0x0 PUSH1 0x20 DUP3 ADD MSTORE SWAP1 JUMP JUMPDEST PUSH1 0x40 MLOAD DUP1 PUSH1 0x40 ADD PUSH1 0x40 MSTORE DUP1 PUSH1 0x0 DUP2 MSTORE PUSH1 0x20 ADD PUSH1 0x60 DUP2 MSTORE POP SWAP1 JUMP JUMPDEST PUSH1 0x40 DUP1 MLOAD PUSH1 0x60 DUP2 ADD SWAP1 SWAP2 MSTORE PUSH1 0x0 DUP1 DUP3 MSTORE PUSH1 0x20 DUP3 ADD SWAP1 DUP2 MSTORE PUSH1 0x0 PUSH1 0x20 SWAP1 SWAP2 ADD MSTORE SWAP1 JUMP JUMPDEST PUSH1 0x40 MLOAD DUP1 PUSH1 0xA0 ADD PUSH1 0x40 MSTORE DUP1 PUSH1 0x0 DUP1 NOT AND DUP2 MSTORE PUSH1 0x20 ADD PUSH1 0x0 DUP2 MSTORE PUSH1 0x20 ADD PUSH1 0x0 DUP2 MSTORE PUSH1 0x20 ADD PUSH1 0x0 DUP2 MSTORE PUSH1 0x20 ADD PUSH1 0x60 DUP2 MSTORE POP SWAP1 JUMP JUMPDEST PUSH1 0x40 DUP1 MLOAD PUSH1 0x60 DUP2 ADD DUP3 MSTORE PUSH1 0x0 DUP1 DUP3 MSTORE PUSH1 0x20 DUP3 ADD DUP2 SWAP1 MSTORE SWAP2 DUP2 ADD SWAP2 SWAP1 SWAP2 MSTORE SWAP1 JUMP JUMPDEST PUSH1 0x40 MLOAD DUP1 PUSH1 0x60 ADD PUSH1 0x40 MSTORE DUP1 PUSH1 0x3 SWAP1 PUSH1 0x20 DUP3 MUL DUP1 CALLDATASIZE DUP4 CALLDATACOPY POP SWAP2 SWAP3 SWAP2 POP POP JUMP JUMPDEST PUSH1 0x40 MLOAD DUP1 PUSH1 0xA0 ADD PUSH1 0x40 MSTORE DUP1 PUSH1 0x0 DUP2 MSTORE PUSH1 0x20 ADD PUSH1 0x0 PUSH1 0x1 PUSH1 0x1 PUSH1 0xA0 SHL SUB AND DUP2 MSTORE PUSH1 0x20 ADD PUSH1 0x0 PUSH1 0x1 PUSH1 0x1 PUSH1 0xA0 SHL SUB AND DUP2 MSTORE PUSH1 0x20 ADD PUSH1 0x0 PUSH1 0x1 PUSH1 0x1 PUSH1 0xA0 SHL SUB AND DUP2 MSTORE PUSH1 0x20 ADD PUSH1 0x60 DUP2 MSTORE POP SWAP1 JUMP JUMPDEST DUP1 CALLDATALOAD PUSH2 0x5ADD DUP2 PUSH2 0xA11D JUMP JUMPDEST DUP1 MLOAD PUSH2 0x5ADD DUP2 PUSH2 0xA11D JUMP JUMPDEST PUSH1 0x0 DUP3 PUSH1 0x1F DUP4 ADD SLT PUSH2 0x802F JUMPI DUP1 DUP2 REVERT JUMPDEST DUP2 CALLDATALOAD PUSH2 0x8042 PUSH2 0x803D DUP3 PUSH2 0xA088 JUMP JUMPDEST PUSH2 0xA062 JUMP JUMPDEST DUP2 DUP2 MSTORE SWAP2 POP PUSH1 0x20 DUP1 DUP4 ADD SWAP1 DUP5 DUP2 ADD DUP2 DUP5 MUL DUP7 ADD DUP3 ADD DUP8 LT ISZERO PUSH2 0x8063 JUMPI PUSH1 0x0 DUP1 REVERT JUMPDEST PUSH1 0x0 JUMPDEST DUP5 DUP2 LT ISZERO PUSH2 0x808B JUMPI DUP2 CALLDATALOAD PUSH2 0x8079 DUP2 PUSH2 0xA11D JUMP JUMPDEST DUP5 MSTORE SWAP3 DUP3 ADD SWAP3 SWAP1 DUP3 ADD SWAP1 PUSH1 0x1 ADD PUSH2 0x8066 JUMP JUMPDEST POP POP POP POP POP SWAP3 SWAP2 POP POP JUMP JUMPDEST PUSH1 0x0 DUP3 PUSH1 0x1F DUP4 ADD SLT PUSH2 0x80A6 JUMPI DUP1 DUP2 REVERT JUMPDEST DUP2 CALLDATALOAD PUSH2 0x80B4 PUSH2 0x803D DUP3 PUSH2 0xA088 JUMP JUMPDEST DUP2 DUP2 MSTORE SWAP2 POP PUSH1 0x20 DUP1 DUP4 ADD SWAP1 DUP5 DUP2 ADD PUSH1 0x0 JUMPDEST DUP5 DUP2 LT ISZERO PUSH2 0x808B JUMPI PUSH2 0x80DC DUP9 DUP5 DUP5 CALLDATALOAD DUP11 ADD ADD PUSH2 0x801F JUMP JUMPDEST DUP5 MSTORE SWAP3 DUP3 ADD SWAP3 SWAP1 DUP3 ADD SWAP1 PUSH1 0x1 ADD PUSH2 0x80C5 JUMP JUMPDEST PUSH1 0x0 DUP3 PUSH1 0x1F DUP4 ADD SLT PUSH2 0x80FE JUMPI DUP1 DUP2 REVERT JUMPDEST DUP2 CALLDATALOAD PUSH2 0x810C PUSH2 0x803D DUP3 PUSH2 0xA088 JUMP JUMPDEST DUP2 DUP2 MSTORE SWAP2 POP PUSH1 0x20 DUP1 DUP4 ADD SWAP1 DUP5 DUP2 ADD PUSH1 0x0 JUMPDEST DUP5 DUP2 LT ISZERO PUSH2 0x808B JUMPI PUSH2 0x8134 DUP9 DUP5 DUP5 CALLDATALOAD DUP11 ADD ADD PUSH2 0x82ED JUMP JUMPDEST DUP5 MSTORE SWAP3 DUP3 ADD SWAP3 SWAP1 DUP3 ADD SWAP1 PUSH1 0x1 ADD PUSH2 0x811D JUMP JUMPDEST PUSH1 0x0 DUP3 PUSH1 0x1F DUP4 ADD SLT PUSH2 0x8156 JUMPI DUP1 DUP2 REVERT JUMPDEST DUP2 CALLDATALOAD PUSH2 0x8164 PUSH2 0x803D DUP3 PUSH2 0xA088 JUMP JUMPDEST DUP2 DUP2 MSTORE SWAP2 POP PUSH1 0x20 DUP1 DUP4 ADD SWAP1 DUP5 DUP2 ADD DUP2 DUP5 MUL DUP7 ADD DUP3 ADD DUP8 LT ISZERO PUSH2 0x8185 JUMPI PUSH1 0x0 DUP1 REVERT JUMPDEST PUSH1 0x0 JUMPDEST DUP5 DUP2 LT ISZERO PUSH2 0x808B JUMPI DUP2 CALLDATALOAD PUSH2 0x819B DUP2 PUSH2 0xA11D JUMP JUMPDEST DUP5 MSTORE SWAP3 DUP3 ADD SWAP3 SWAP1 DUP3 ADD SWAP1 PUSH1 0x1 ADD PUSH2 0x8188 JUMP JUMPDEST PUSH1 0x0 DUP3 PUSH1 0x1F DUP4 ADD SLT PUSH2 0x81BD JUMPI DUP1 DUP2 REVERT JUMPDEST DUP2 CALLDATALOAD PUSH2 0x81CB PUSH2 0x803D DUP3 PUSH2 0xA088 JUMP JUMPDEST DUP2 DUP2 MSTORE SWAP2 POP PUSH1 0x20 DUP1 DUP4 ADD SWAP1 DUP5 DUP2 ADD PUSH1 0x80 DUP1 DUP6 MUL DUP8 ADD DUP4 ADD DUP9 LT ISZERO PUSH2 0x81EE JUMPI PUSH1 0x0 DUP1 REVERT JUMPDEST PUSH1 0x0 JUMPDEST DUP6 DUP2 LT ISZERO PUSH2 0x8215 JUMPI PUSH2 0x8203 DUP10 DUP5 PUSH2 0x85EC JUMP JUMPDEST DUP6 MSTORE SWAP4 DUP4 ADD SWAP4 SWAP2 DUP2 ADD SWAP2 PUSH1 0x1 ADD PUSH2 0x81F1 JUMP JUMPDEST POP POP POP POP POP POP SWAP3 SWAP2 POP POP JUMP JUMPDEST PUSH1 0x0 DUP3 PUSH1 0x1F DUP4 ADD SLT PUSH2 0x8231 JUMPI DUP1 DUP2 REVERT JUMPDEST DUP2 CALLDATALOAD PUSH2 0x823F PUSH2 0x803D DUP3 PUSH2 0xA088 JUMP JUMPDEST DUP2 DUP2 MSTORE SWAP2 POP PUSH1 0x20 DUP1 DUP4 ADD SWAP1 DUP5 DUP2 ADD DUP2 DUP5 MUL DUP7 ADD DUP3 ADD DUP8 LT ISZERO PUSH2 0x8260 JUMPI PUSH1 0x0 DUP1 REVERT JUMPDEST PUSH1 0x0 JUMPDEST DUP5 DUP2 LT ISZERO PUSH2 0x808B JUMPI DUP2 CALLDATALOAD DUP5 MSTORE SWAP3 DUP3 ADD SWAP3 SWAP1 DUP3 ADD SWAP1 PUSH1 0x1 ADD PUSH2 0x8263 JUMP JUMPDEST PUSH1 0x0 DUP3 PUSH1 0x1F DUP4 ADD SLT PUSH2 0x828F JUMPI DUP1 DUP2 REVERT JUMPDEST DUP2 MLOAD PUSH2 0x829D PUSH2 0x803D DUP3 PUSH2 0xA088 JUMP JUMPDEST DUP2 DUP2 MSTORE SWAP2 POP PUSH1 0x20 DUP1 DUP4 ADD SWAP1 DUP5 DUP2 ADD DUP2 DUP5 MUL DUP7 ADD DUP3 ADD DUP8 LT ISZERO PUSH2 0x82BE JUMPI PUSH1 0x0 DUP1 REVERT JUMPDEST PUSH1 0x0 JUMPDEST DUP5 DUP2 LT ISZERO PUSH2 0x808B JUMPI DUP2 MLOAD DUP5 MSTORE SWAP3 DUP3 ADD SWAP3 SWAP1 DUP3 ADD SWAP1 PUSH1 0x1 ADD PUSH2 0x82C1 JUMP JUMPDEST DUP1 MLOAD DUP1 ISZERO ISZERO DUP2 EQ PUSH2 0x5ADD JUMPI PUSH1 0x0 DUP1 REVERT JUMPDEST PUSH1 0x0 DUP3 PUSH1 0x1F DUP4 ADD SLT PUSH2 0x82FD JUMPI DUP1 DUP2 REVERT JUMPDEST DUP2 CALLDATALOAD PUSH2 0x830B PUSH2 0x803D DUP3 PUSH2 0xA0A7 JUMP JUMPDEST SWAP2 POP DUP1 DUP3 MSTORE DUP4 PUSH1 0x20 DUP3 DUP6 ADD ADD GT ISZERO PUSH2 0x8322 JUMPI PUSH1 0x0 DUP1 REVERT JUMPDEST DUP1 PUSH1 0x20 DUP5 ADD PUSH1 0x20 DUP5 ADD CALLDATACOPY PUSH1 0x0 SWAP1 DUP3 ADD PUSH1 0x20 ADD MSTORE SWAP3 SWAP2 POP POP JUMP JUMPDEST PUSH1 0x0 DUP3 PUSH1 0x1F DUP4 ADD SLT PUSH2 0x834B JUMPI DUP1 DUP2 REVERT JUMPDEST DUP2 MLOAD PUSH2 0x8359 PUSH2 0x803D DUP3 PUSH2 0xA0A7 JUMP JUMPDEST SWAP2 POP DUP1 DUP3 MSTORE DUP4 PUSH1 0x20 DUP3 DUP6 ADD ADD GT ISZERO PUSH2 0x8370 JUMPI PUSH1 0x0 DUP1 REVERT JUMPDEST PUSH2 0x2C68 DUP2 PUSH1 0x20 DUP5 ADD PUSH1 0x20 DUP7 ADD PUSH2 0xA0E0 JUMP JUMPDEST DUP1 MLOAD PUSH1 0x2 DUP2 LT PUSH2 0x5ADD JUMPI PUSH1 0x0 DUP1 REVERT JUMPDEST PUSH1 0x0 PUSH1 0x60 DUP3 DUP5 SUB SLT ISZERO PUSH2 0x83A1 JUMPI DUP1 DUP2 REVERT JUMPDEST PUSH2 0x83AB PUSH1 0x60 PUSH2 0xA062 JUMP JUMPDEST SWAP1 POP DUP2 CALLDATALOAD PUSH2 0x83B8 DUP2 PUSH2 0xA11D JUMP JUMPDEST DUP2 MSTORE PUSH1 0x20 DUP3 ADD CALLDATALOAD PUSH2 0x83C8 DUP2 PUSH2 0xA132 JUMP JUMPDEST PUSH1 0x20 DUP3 ADD MSTORE PUSH1 0x40 DUP3 ADD CALLDATALOAD PUSH2 0x83DB DUP2 PUSH2 0xA132 JUMP JUMPDEST PUSH1 0x40 DUP3 ADD MSTORE SWAP3 SWAP2 POP POP JUMP JUMPDEST PUSH1 0x0 PUSH1 0x60 DUP3 DUP5 SUB SLT ISZERO PUSH2 0x83F7 JUMPI DUP1 DUP2 REVERT JUMPDEST PUSH2 0x8401 PUSH1 0x60 PUSH2 0xA062 JUMP JUMPDEST SWAP1 POP DUP2 MLOAD PUSH2 0x840E DUP2 PUSH2 0xA11D JUMP JUMPDEST DUP2 MSTORE PUSH1 0x20 DUP3 ADD MLOAD PUSH2 0x841E DUP2 PUSH2 0xA132 JUMP JUMPDEST PUSH1 0x20 DUP3 ADD MSTORE PUSH1 0x40 DUP3 ADD MLOAD PUSH2 0x83DB DUP2 PUSH2 0xA132 JUMP JUMPDEST PUSH1 0x0 PUSH1 0x40 DUP3 DUP5 SUB SLT ISZERO PUSH2 0x8442 JUMPI DUP1 DUP2 REVERT JUMPDEST PUSH2 0x844C PUSH1 0x40 PUSH2 0xA062 JUMP JUMPDEST SWAP1 POP DUP2 CALLDATALOAD PUSH2 0x8459 DUP2 PUSH2 0xA11D JUMP JUMPDEST DUP2 MSTORE PUSH1 0x20 DUP3 ADD CALLDATALOAD PUSH2 0x8469 DUP2 PUSH2 0xA11D JUMP JUMPDEST PUSH1 0x20 DUP3 ADD MSTORE SWAP3 SWAP2 POP POP JUMP JUMPDEST PUSH1 0x0 PUSH1 0xA0 DUP3 DUP5 SUB SLT ISZERO PUSH2 0x8485 JUMPI DUP1 DUP2 REVERT JUMPDEST PUSH2 0x848F PUSH1 0xA0 PUSH2 0xA062 JUMP JUMPDEST SWAP1 POP DUP2 CALLDATALOAD DUP2 MSTORE PUSH1 0x20 DUP3 ADD CALLDATALOAD PUSH2 0x84A3 DUP2 PUSH2 0xA11D JUMP JUMPDEST PUSH1 0x20 DUP3 ADD MSTORE PUSH1 0x40 DUP3 ADD CALLDATALOAD PUSH2 0x84B6 DUP2 PUSH2 0xA11D JUMP JUMPDEST PUSH1 0x40 DUP3 ADD MSTORE PUSH1 0x60 DUP3 ADD CALLDATALOAD PUSH2 0x84C9 DUP2 PUSH2 0xA11D JUMP JUMPDEST PUSH1 0x60 DUP3 ADD MSTORE PUSH1 0x80 DUP3 ADD CALLDATALOAD PUSH1 0x1 PUSH1 0x1 PUSH1 0x40 SHL SUB DUP2 GT ISZERO PUSH2 0x84E7 JUMPI PUSH1 0x0 DUP1 REVERT JUMPDEST PUSH2 0x84F3 DUP5 DUP3 DUP6 ADD PUSH2 0x82ED JUMP JUMPDEST PUSH1 0x80 DUP4 ADD MSTORE POP SWAP3 SWAP2 POP POP JUMP JUMPDEST PUSH1 0x0 PUSH2 0x180 DUP1 DUP4 DUP6 SUB SLT ISZERO PUSH2 0x8512 JUMPI DUP2 DUP3 REVERT JUMPDEST PUSH2 0x851B DUP2 PUSH2 0xA062 JUMP JUMPDEST SWAP2 POP POP PUSH2 0x8528 DUP4 DUP4 PUSH2 0x8009 JUMP JUMPDEST DUP2 MSTORE PUSH2 0x8537 DUP4 PUSH1 0x20 DUP5 ADD PUSH2 0x8009 JUMP JUMPDEST PUSH1 0x20 DUP3 ADD MSTORE PUSH2 0x8549 DUP4 PUSH1 0x40 DUP5 ADD PUSH2 0x864F JUMP JUMPDEST PUSH1 0x40 DUP3 ADD MSTORE PUSH2 0x855B DUP4 PUSH1 0x60 DUP5 ADD PUSH2 0x864F JUMP JUMPDEST PUSH1 0x60 DUP3 ADD MSTORE PUSH2 0x856D DUP4 PUSH1 0x80 DUP5 ADD PUSH2 0x864F JUMP JUMPDEST PUSH1 0x80 DUP3 ADD MSTORE PUSH2 0x857F DUP4 PUSH1 0xA0 DUP5 ADD PUSH2 0x8009 JUMP JUMPDEST PUSH1 0xA0 DUP3 ADD MSTORE PUSH2 0x8591 DUP4 PUSH1 0xC0 DUP5 ADD PUSH2 0x8009 JUMP JUMPDEST PUSH1 0xC0 DUP3 ADD MSTORE PUSH2 0x85A3 DUP4 PUSH1 0xE0 DUP5 ADD PUSH2 0x8009 JUMP JUMPDEST PUSH1 0xE0 DUP3 ADD MSTORE PUSH2 0x100 PUSH2 0x85B7 DUP5 DUP3 DUP6 ADD PUSH2 0x8009 JUMP JUMPDEST SWAP1 DUP3 ADD MSTORE PUSH2 0x120 DUP3 DUP2 ADD CALLDATALOAD SWAP1 DUP3 ADD MSTORE PUSH2 0x140 PUSH2 0x85D5 DUP5 DUP3 DUP6 ADD PUSH2 0x865A JUMP JUMPDEST DUP2 DUP4 ADD MSTORE POP PUSH2 0x160 DUP1 DUP4 ADD CALLDATALOAD DUP2 DUP4 ADD MSTORE POP SWAP3 SWAP2 POP POP JUMP JUMPDEST PUSH1 0x0 PUSH1 0x80 DUP3 DUP5 SUB SLT ISZERO PUSH2 0x85FD JUMPI DUP1 DUP2 REVERT JUMPDEST PUSH2 0x8607 PUSH1 0x80 PUSH2 0xA062 JUMP JUMPDEST SWAP1 POP DUP2 CALLDATALOAD PUSH1 0x4 DUP2 LT PUSH2 0x8618 JUMPI PUSH1 0x0 DUP1 REVERT JUMPDEST DUP2 MSTORE PUSH1 0x20 DUP3 ADD CALLDATALOAD PUSH1 0xFF DUP2 AND DUP2 EQ PUSH2 0x862E JUMPI PUSH1 0x0 DUP1 REVERT JUMPDEST DUP1 PUSH1 0x20 DUP4 ADD MSTORE POP PUSH1 0x40 DUP3 ADD CALLDATALOAD PUSH1 0x40 DUP3 ADD MSTORE PUSH1 0x60 DUP3 ADD CALLDATALOAD PUSH1 0x60 DUP3 ADD MSTORE SWAP3 SWAP2 POP POP JUMP JUMPDEST DUP1 CALLDATALOAD PUSH2 0x5ADD DUP2 PUSH2 0xA157 JUMP JUMPDEST DUP1 CALLDATALOAD PUSH1 0x1 PUSH1 0x1 PUSH1 0x40 SHL SUB DUP2 AND DUP2 EQ PUSH2 0x5ADD JUMPI PUSH1 0x0 DUP1 REVERT JUMPDEST PUSH1 0x0 PUSH1 0x20 DUP3 DUP5 SUB SLT ISZERO PUSH2 0x8682 JUMPI DUP1 DUP2 REVERT JUMPDEST DUP2 CALLDATALOAD PUSH2 0x3DB2 DUP2 PUSH2 0xA11D JUMP JUMPDEST PUSH1 0x0 PUSH1 0x20 DUP3 DUP5 SUB SLT ISZERO PUSH2 0x869E JUMPI DUP1 DUP2 REVERT JUMPDEST DUP2 MLOAD PUSH2 0x3DB2 DUP2 PUSH2 0xA11D JUMP JUMPDEST PUSH1 0x0 DUP1 PUSH1 0x40 DUP4 DUP6 SUB SLT ISZERO PUSH2 0x86BB JUMPI DUP1 DUP2 REVERT JUMPDEST DUP3 MLOAD PUSH2 0x86C6 DUP2 PUSH2 0xA11D JUMP JUMPDEST PUSH1 0x20 DUP5 ADD MLOAD SWAP1 SWAP3 POP PUSH2 0x86D7 DUP2 PUSH2 0xA11D JUMP JUMPDEST DUP1 SWAP2 POP POP SWAP3 POP SWAP3 SWAP1 POP JUMP JUMPDEST PUSH1 0x0 DUP1 PUSH1 0x0 DUP1 PUSH1 0x80 DUP6 DUP8 SUB SLT ISZERO PUSH2 0x86F7 JUMPI DUP2 DUP3 REVERT JUMPDEST DUP5 MLOAD PUSH2 0x8702 DUP2 PUSH2 0xA11D JUMP JUMPDEST PUSH1 0x20 DUP7 ADD MLOAD SWAP1 SWAP5 POP PUSH2 0x8713 DUP2 PUSH2 0xA11D JUMP JUMPDEST PUSH1 0x40 DUP7 ADD MLOAD SWAP1 SWAP4 POP PUSH2 0x8724 DUP2 PUSH2 0xA11D JUMP JUMPDEST PUSH1 0x60 DUP7 ADD MLOAD SWAP1 SWAP3 POP PUSH2 0x8735 DUP2 PUSH2 0xA11D JUMP JUMPDEST SWAP4 SWAP7 SWAP3 SWAP6 POP SWAP1 SWAP4 POP POP JUMP JUMPDEST PUSH1 0x0 DUP1 PUSH1 0x0 PUSH1 0x60 DUP5 DUP7 SUB SLT ISZERO PUSH2 0x8754 JUMPI DUP1 DUP2 REVERT JUMPDEST DUP4 MLOAD PUSH2 0x875F DUP2 PUSH2 0xA11D JUMP JUMPDEST PUSH1 0x20 DUP6 ADD MLOAD SWAP1 SWAP4 POP PUSH2 0x8770 DUP2 PUSH2 0xA11D JUMP JUMPDEST SWAP2 POP PUSH2 0x877F DUP6 PUSH1 0x40 DUP7 ADD PUSH2 0x82DD JUMP JUMPDEST SWAP1 POP SWAP3 POP SWAP3 POP SWAP3 JUMP JUMPDEST PUSH1 0x0 DUP1 PUSH1 0x40 DUP4 DUP6 SUB SLT ISZERO PUSH2 0x879A JUMPI DUP2 DUP3 REVERT JUMPDEST DUP3 MLOAD PUSH2 0x87A5 DUP2 PUSH2 0xA11D JUMP JUMPDEST PUSH1 0x20 DUP5 ADD MLOAD SWAP1 SWAP3 POP PUSH1 0x1 PUSH1 0x1 PUSH1 0x40 SHL SUB DUP1 DUP3 GT ISZERO PUSH2 0x87C1 JUMPI DUP3 DUP4 REVERT JUMPDEST SWAP1 DUP5 ADD SWAP1 PUSH1 0xA0 DUP3 DUP8 SUB SLT ISZERO PUSH2 0x87D4 JUMPI DUP3 DUP4 REVERT JUMPDEST PUSH2 0x87DE PUSH1 0xA0 PUSH2 0xA062 JUMP JUMPDEST DUP3 MLOAD DUP2 MSTORE PUSH2 0x87EF DUP8 PUSH1 0x20 DUP6 ADD PUSH2 0x8014 JUMP JUMPDEST PUSH1 0x20 DUP3 ADD MSTORE PUSH2 0x8801 DUP8 PUSH1 0x40 DUP6 ADD PUSH2 0x8014 JUMP JUMPDEST PUSH1 0x40 DUP3 ADD MSTORE PUSH2 0x8813 DUP8 PUSH1 0x60 DUP6 ADD PUSH2 0x8014 JUMP JUMPDEST PUSH1 0x60 DUP3 ADD MSTORE PUSH1 0x80 DUP4 ADD MLOAD DUP3 DUP2 GT ISZERO PUSH2 0x8829 JUMPI DUP5 DUP6 REVERT JUMPDEST PUSH2 0x8835 DUP9 DUP3 DUP7 ADD PUSH2 0x833B JUMP JUMPDEST PUSH1 0x80 DUP4 ADD MSTORE POP DUP1 SWAP4 POP POP POP POP SWAP3 POP SWAP3 SWAP1 POP JUMP JUMPDEST PUSH1 0x0 DUP1 PUSH1 0x0 DUP1 PUSH1 0x0 PUSH1 0xA0 DUP7 DUP9 SUB SLT ISZERO PUSH2 0x885F JUMPI DUP3 DUP4 REVERT JUMPDEST DUP6 CALLDATALOAD PUSH2 0x886A DUP2 PUSH2 0xA11D JUMP JUMPDEST SWAP5 POP PUSH1 0x20 DUP7 ADD CALLDATALOAD PUSH2 0x887A DUP2 PUSH2 0xA11D JUMP JUMPDEST SWAP4 POP PUSH1 0x40 DUP7 ADD CALLDATALOAD PUSH2 0x888A DUP2 PUSH2 0xA11D JUMP JUMPDEST SWAP3 POP PUSH1 0x60 DUP7 ADD CALLDATALOAD PUSH2 0x889A DUP2 PUSH2 0xA11D JUMP JUMPDEST SWAP2 POP PUSH1 0x80 DUP7 ADD CALLDATALOAD PUSH1 0x1 PUSH1 0x1 PUSH1 0x40 SHL SUB DUP2 GT ISZERO PUSH2 0x88B4 JUMPI DUP2 DUP3 REVERT JUMPDEST PUSH2 0x88C0 DUP9 DUP3 DUP10 ADD PUSH2 0x8221 JUMP JUMPDEST SWAP2 POP POP SWAP3 SWAP6 POP SWAP3 SWAP6 SWAP1 SWAP4 POP JUMP JUMPDEST PUSH1 0x0 DUP1 PUSH1 0x0 DUP1 PUSH1 0x80 DUP6 DUP8 SUB SLT ISZERO PUSH2 0x88E2 JUMPI DUP2 DUP3 REVERT JUMPDEST DUP5 CALLDATALOAD PUSH2 0x88ED DUP2 PUSH2 0xA11D JUMP JUMPDEST SWAP4 POP PUSH1 0x20 DUP6 ADD CALLDATALOAD PUSH2 0x88FD DUP2 PUSH2 0xA11D JUMP JUMPDEST SWAP3 POP PUSH1 0x40 DUP6 ADD CALLDATALOAD PUSH2 0x890D DUP2 PUSH2 0xA11D JUMP JUMPDEST SWAP2 POP PUSH1 0x60 DUP6 ADD CALLDATALOAD PUSH1 0x1 PUSH1 0x1 PUSH1 0x40 SHL SUB DUP2 GT ISZERO PUSH2 0x8927 JUMPI DUP2 DUP3 REVERT JUMPDEST PUSH2 0x8933 DUP8 DUP3 DUP9 ADD PUSH2 0x8221 JUMP JUMPDEST SWAP2 POP POP SWAP3 SWAP6 SWAP2 SWAP5 POP SWAP3 POP JUMP JUMPDEST PUSH1 0x0 DUP1 PUSH1 0x0 DUP1 PUSH1 0x80 DUP6 DUP8 SUB SLT ISZERO PUSH2 0x8954 JUMPI DUP2 DUP3 REVERT JUMPDEST DUP5 CALLDATALOAD PUSH2 0x895F DUP2 PUSH2 0xA11D JUMP JUMPDEST SWAP4 POP PUSH1 0x20 DUP6 ADD CALLDATALOAD PUSH2 0x896F DUP2 PUSH2 0xA11D JUMP JUMPDEST SWAP3 POP PUSH1 0x40 DUP6 ADD CALLDATALOAD PUSH2 0x897F DUP2 PUSH2 0xA11D JUMP JUMPDEST SWAP4 SWAP7 SWAP3 SWAP6 POP SWAP3 SWAP4 PUSH1 0x60 ADD CALLDATALOAD SWAP3 POP POP JUMP JUMPDEST PUSH1 0x0 DUP1 PUSH1 0x0 PUSH1 0x60 DUP5 DUP7 SUB SLT ISZERO PUSH2 0x89A3 JUMPI DUP1 DUP2 REVERT JUMPDEST DUP4 CALLDATALOAD PUSH2 0x89AE DUP2 PUSH2 0xA11D JUMP JUMPDEST SWAP3 POP PUSH1 0x20 DUP5 ADD CALLDATALOAD PUSH1 0x1 PUSH1 0x1 PUSH1 0x40 SHL SUB DUP1 DUP3 GT ISZERO PUSH2 0x89C9 JUMPI DUP3 DUP4 REVERT JUMPDEST PUSH2 0x89D5 DUP8 DUP4 DUP9 ADD PUSH2 0x801F JUMP JUMPDEST SWAP4 POP PUSH1 0x40 DUP7 ADD CALLDATALOAD SWAP2 POP DUP1 DUP3 GT ISZERO PUSH2 0x89EA JUMPI DUP3 DUP4 REVERT JUMPDEST POP PUSH2 0x89F7 DUP7 DUP3 DUP8 ADD PUSH2 0x8221 JUMP JUMPDEST SWAP2 POP POP SWAP3 POP SWAP3 POP SWAP3 JUMP JUMPDEST PUSH1 0x0 DUP1 PUSH1 0x0 DUP1 PUSH1 0x0 PUSH1 0xA0 DUP7 DUP9 SUB SLT ISZERO PUSH2 0x8A18 JUMPI DUP3 DUP4 REVERT JUMPDEST DUP6 CALLDATALOAD PUSH2 0x8A23 DUP2 PUSH2 0xA11D JUMP JUMPDEST SWAP5 POP PUSH1 0x20 DUP7 ADD CALLDATALOAD SWAP4 POP PUSH1 0x40 DUP7 ADD CALLDATALOAD PUSH2 0x888A DUP2 PUSH2 0xA11D JUMP JUMPDEST PUSH1 0x0 PUSH1 0x20 DUP1 DUP4 DUP6 SUB SLT ISZERO PUSH2 0x8A4C JUMPI DUP2 DUP3 REVERT JUMPDEST DUP3 MLOAD PUSH1 0x1 PUSH1 0x1 PUSH1 0x40 SHL SUB DUP2 GT ISZERO PUSH2 0x8A61 JUMPI DUP3 DUP4 REVERT JUMPDEST DUP4 ADD PUSH1 0x1F DUP2 ADD DUP6 SGT PUSH2 0x8A71 JUMPI DUP3 DUP4 REVERT JUMPDEST DUP1 MLOAD PUSH2 0x8A7F PUSH2 0x803D DUP3 PUSH2 0xA088 JUMP JUMPDEST DUP2 DUP2 MSTORE DUP4 DUP2 ADD SWAP1 DUP4 DUP6 ADD DUP6 DUP5 MUL DUP6 ADD DUP7 ADD DUP10 LT ISZERO PUSH2 0x8A9B JUMPI DUP7 DUP8 REVERT JUMPDEST DUP7 SWAP5 POP JUMPDEST DUP4 DUP6 LT ISZERO PUSH2 0x8AC6 JUMPI DUP1 MLOAD PUSH2 0x8AB2 DUP2 PUSH2 0xA11D JUMP JUMPDEST DUP4 MSTORE PUSH1 0x1 SWAP5 SWAP1 SWAP5 ADD SWAP4 SWAP2 DUP6 ADD SWAP2 DUP6 ADD PUSH2 0x8A9F JUMP JUMPDEST POP SWAP8 SWAP7 POP POP POP POP POP POP POP JUMP JUMPDEST PUSH1 0x0 DUP1 PUSH1 0x0 PUSH1 0x60 DUP5 DUP7 SUB SLT ISZERO PUSH2 0x8AE6 JUMPI DUP1 DUP2 REVERT JUMPDEST DUP4 MLOAD PUSH1 0x1 PUSH1 0x1 PUSH1 0x40 SHL SUB DUP1 DUP3 GT ISZERO PUSH2 0x8AFC JUMPI DUP3 DUP4 REVERT JUMPDEST DUP2 DUP7 ADD SWAP2 POP DUP7 PUSH1 0x1F DUP4 ADD SLT PUSH2 0x8B0F JUMPI DUP3 DUP4 REVERT JUMPDEST DUP2 MLOAD PUSH2 0x8B1D PUSH2 0x803D DUP3 PUSH2 0xA088 JUMP JUMPDEST DUP1 DUP3 DUP3 MSTORE PUSH1 0x20 DUP1 DUP4 ADD SWAP3 POP DUP1 DUP7 ADD DUP12 DUP3 DUP4 DUP8 MUL DUP10 ADD ADD GT ISZERO PUSH2 0x8B3D JUMPI DUP8 DUP9 REVERT JUMPDEST DUP8 SWAP7 POP JUMPDEST DUP5 DUP8 LT ISZERO PUSH2 0x8B5F JUMPI DUP1 MLOAD DUP5 MSTORE PUSH1 0x1 SWAP7 SWAP1 SWAP7 ADD SWAP6 SWAP3 DUP2 ADD SWAP3 DUP2 ADD PUSH2 0x8B41 JUMP JUMPDEST POP DUP10 ADD MLOAD SWAP1 SWAP8 POP SWAP4 POP POP POP DUP1 DUP3 GT ISZERO PUSH2 0x8B76 JUMPI DUP3 DUP4 REVERT JUMPDEST POP PUSH2 0x8B83 DUP7 DUP3 DUP8 ADD PUSH2 0x827F JUMP JUMPDEST SWAP3 POP POP PUSH2 0x877F DUP6 PUSH1 0x40 DUP7 ADD PUSH2 0x8381 JUMP JUMPDEST PUSH1 0x0 DUP1 PUSH1 0x20 DUP4 DUP6 SUB SLT ISZERO PUSH2 0x8BA5 JUMPI DUP2 DUP3 REVERT JUMPDEST DUP3 CALLDATALOAD PUSH1 0x1 PUSH1 0x1 PUSH1 0x40 SHL SUB DUP1 DUP3 GT ISZERO PUSH2 0x8BBB JUMPI DUP4 DUP5 REVERT JUMPDEST DUP2 DUP6 ADD SWAP2 POP DUP6 PUSH1 0x1F DUP4 ADD SLT PUSH2 0x8BCE JUMPI DUP4 DUP5 REVERT JUMPDEST DUP2 CALLDATALOAD DUP2 DUP2 GT ISZERO PUSH2 0x8BDC JUMPI DUP5 DUP6 REVERT JUMPDEST DUP7 PUSH1 0x20 DUP1 DUP4 MUL DUP6 ADD ADD GT ISZERO PUSH2 0x8BEF JUMPI DUP5 DUP6 REVERT JUMPDEST PUSH1 0x20 SWAP3 SWAP1 SWAP3 ADD SWAP7 SWAP2 SWAP6 POP SWAP1 SWAP4 POP POP POP POP JUMP JUMPDEST PUSH1 0x0 DUP1 PUSH1 0x0 PUSH1 0x60 DUP5 DUP7 SUB SLT ISZERO PUSH2 0x8C15 JUMPI DUP1 DUP2 REVERT JUMPDEST DUP4 CALLDATALOAD PUSH1 0x1 PUSH1 0x1 PUSH1 0x40 SHL SUB DUP1 DUP3 GT ISZERO PUSH2 0x8C2B JUMPI DUP3 DUP4 REVERT JUMPDEST PUSH2 0x8C37 DUP8 DUP4 DUP9 ADD PUSH2 0x80EE JUMP JUMPDEST SWAP5 POP PUSH1 0x20 DUP7 ADD CALLDATALOAD SWAP2 POP DUP1 DUP3 GT ISZERO PUSH2 0x8C4C JUMPI DUP3 DUP4 REVERT JUMPDEST POP PUSH2 0x8C59 DUP7 DUP3 DUP8 ADD PUSH2 0x80EE JUMP JUMPDEST SWAP3 POP POP PUSH1 0x40 DUP5 ADD CALLDATALOAD SWAP1 POP SWAP3 POP SWAP3 POP SWAP3 JUMP JUMPDEST PUSH1 0x0 PUSH1 0x20 DUP3 DUP5 SUB SLT ISZERO PUSH2 0x8C7B JUMPI DUP1 DUP2 REVERT JUMPDEST DUP2 CALLDATALOAD PUSH1 0x1 PUSH1 0x1 PUSH1 0x40 SHL SUB DUP2 GT ISZERO PUSH2 0x8C90 JUMPI DUP2 DUP3 REVERT JUMPDEST PUSH2 0x11FB DUP5 DUP3 DUP6 ADD PUSH2 0x8146 JUMP JUMPDEST PUSH1 0x0 DUP1 PUSH1 0x40 DUP4 DUP6 SUB SLT ISZERO PUSH2 0x8CAE JUMPI DUP2 DUP3 REVERT JUMPDEST DUP3 CALLDATALOAD PUSH1 0x1 PUSH1 0x1 PUSH1 0x40 SHL SUB DUP2 GT ISZERO PUSH2 0x8CC3 JUMPI DUP3 DUP4 REVERT JUMPDEST PUSH2 0x8CCF DUP6 DUP3 DUP7 ADD PUSH2 0x8146 JUMP JUMPDEST SWAP3 POP POP PUSH1 0x20 DUP4 ADD CALLDATALOAD PUSH2 0x86D7 DUP2 PUSH2 0xA11D JUMP JUMPDEST PUSH1 0x0 DUP1 PUSH1 0x0 PUSH1 0x60 DUP5 DUP7 SUB SLT ISZERO PUSH2 0x8CF4 JUMPI DUP1 DUP2 REVERT JUMPDEST DUP4 CALLDATALOAD PUSH1 0x1 PUSH1 0x1 PUSH1 0x40 SHL SUB DUP2 GT ISZERO PUSH2 0x8D09 JUMPI DUP2 DUP3 REVERT JUMPDEST PUSH2 0x8D15 DUP7 DUP3 DUP8 ADD PUSH2 0x8146 JUMP JUMPDEST SWAP4 POP POP PUSH1 0x20 DUP5 ADD CALLDATALOAD PUSH2 0x8D26 DUP2 PUSH2 0xA11D JUMP JUMPDEST SWAP2 POP PUSH1 0x40 DUP5 ADD CALLDATALOAD PUSH2 0x8D36 DUP2 PUSH2 0xA11D JUMP JUMPDEST DUP1 SWAP2 POP POP SWAP3 POP SWAP3 POP SWAP3 JUMP JUMPDEST PUSH1 0x0 PUSH1 0x20 DUP1 DUP4 DUP6 SUB SLT ISZERO PUSH2 0x8D53 JUMPI DUP2 DUP3 REVERT JUMPDEST DUP3 MLOAD PUSH1 0x1 PUSH1 0x1 PUSH1 0x40 SHL SUB DUP2 GT ISZERO PUSH2 0x8D68 JUMPI DUP3 DUP4 REVERT JUMPDEST DUP4 ADD PUSH1 0x1F DUP2 ADD DUP6 SGT PUSH2 0x8D78 JUMPI DUP3 DUP4 REVERT JUMPDEST DUP1 MLOAD PUSH2 0x8D86 PUSH2 0x803D DUP3 PUSH2 0xA088 JUMP JUMPDEST DUP2 DUP2 MSTORE DUP4 DUP2 ADD SWAP1 DUP4 DUP6 ADD DUP6 DUP5 MUL DUP6 ADD DUP7 ADD DUP10 LT ISZERO PUSH2 0x8DA2 JUMPI DUP7 DUP8 REVERT JUMPDEST DUP7 SWAP5 POP JUMPDEST DUP4 DUP6 LT ISZERO PUSH2 0x8AC6 JUMPI DUP1 MLOAD DUP4 MSTORE PUSH1 0x1 SWAP5 SWAP1 SWAP5 ADD SWAP4 SWAP2 DUP6 ADD SWAP2 DUP6 ADD PUSH2 0x8DA6 JUMP JUMPDEST PUSH1 0x0 DUP1 PUSH1 0x0 PUSH1 0x60 DUP5 DUP7 SUB SLT ISZERO PUSH2 0x8DD8 JUMPI DUP1 DUP2 REVERT JUMPDEST DUP4 CALLDATALOAD PUSH1 0x1 PUSH1 0x1 PUSH1 0x40 SHL SUB DUP1 DUP3 GT ISZERO PUSH2 0x8DEE JUMPI DUP3 DUP4 REVERT JUMPDEST DUP2 DUP7 ADD SWAP2 POP DUP7 PUSH1 0x1F DUP4 ADD SLT PUSH2 0x8E01 JUMPI DUP3 DUP4 REVERT JUMPDEST DUP2 CALLDATALOAD PUSH2 0x8E0F PUSH2 0x803D DUP3 PUSH2 0xA088 JUMP JUMPDEST DUP1 DUP3 DUP3 MSTORE PUSH1 0x20 DUP1 DUP4 ADD SWAP3 POP DUP1 DUP7 ADD PUSH2 0x180 DUP13 DUP4 DUP3 DUP9 MUL DUP11 ADD ADD GT ISZERO PUSH2 0x8E32 JUMPI DUP9 DUP10 REVERT JUMPDEST DUP9 SWAP8 POP JUMPDEST DUP6 DUP9 LT ISZERO PUSH2 0x8E5E JUMPI PUSH2 0x8E48 DUP14 DUP4 PUSH2 0x84FF JUMP JUMPDEST DUP6 MSTORE PUSH1 0x1 SWAP8 SWAP1 SWAP8 ADD SWAP7 SWAP4 DUP3 ADD SWAP4 SWAP1 DUP2 ADD SWAP1 PUSH2 0x8E36 JUMP JUMPDEST POP SWAP2 SWAP9 POP DUP10 ADD CALLDATALOAD SWAP5 POP POP POP POP DUP1 DUP3 GT ISZERO PUSH2 0x8E76 JUMPI DUP3 DUP4 REVERT JUMPDEST POP PUSH2 0x8E83 DUP7 DUP3 DUP8 ADD PUSH2 0x81AD JUMP JUMPDEST SWAP3 POP POP PUSH2 0x877F DUP6 PUSH1 0x40 DUP7 ADD PUSH2 0x8009 JUMP JUMPDEST PUSH1 0x0 PUSH1 0x20 DUP3 DUP5 SUB SLT ISZERO PUSH2 0x8EA4 JUMPI DUP1 DUP2 REVERT JUMPDEST DUP2 MLOAD PUSH1 0x1 PUSH1 0x1 PUSH1 0x40 SHL SUB DUP2 GT ISZERO PUSH2 0x8EB9 JUMPI DUP2 DUP3 REVERT JUMPDEST PUSH2 0x11FB DUP5 DUP3 DUP6 ADD PUSH2 0x827F JUMP JUMPDEST PUSH1 0x0 PUSH1 0x20 DUP3 DUP5 SUB SLT ISZERO PUSH2 0x8ED6 JUMPI DUP1 DUP2 REVERT JUMPDEST DUP2 MLOAD DUP1 ISZERO ISZERO DUP2 EQ PUSH2 0x3DB2 JUMPI DUP2 DUP3 REVERT JUMPDEST PUSH1 0x0 PUSH1 0x20 DUP3 DUP5 SUB SLT ISZERO PUSH2 0x8EF6 JUMPI DUP1 DUP2 REVERT JUMPDEST POP MLOAD SWAP2 SWAP1 POP JUMP JUMPDEST PUSH1 0x0 PUSH1 0x20 DUP3 DUP5 SUB SLT ISZERO PUSH2 0x8F0E JUMPI DUP1 DUP2 REVERT JUMPDEST DUP2 MLOAD PUSH1 0x1 PUSH1 0x1 PUSH1 0x40 SHL SUB DUP2 GT ISZERO PUSH2 0x8F23 JUMPI DUP2 DUP3 REVERT JUMPDEST PUSH2 0x11FB DUP5 DUP3 DUP6 ADD PUSH2 0x833B JUMP JUMPDEST PUSH1 0x0 DUP1 PUSH1 0x0 PUSH1 0x60 DUP5 DUP7 SUB SLT ISZERO PUSH2 0x8F43 JUMPI DUP1 DUP2 REVERT JUMPDEST DUP4 CALLDATALOAD PUSH2 0x8F4E DUP2 PUSH2 0xA11D JUMP JUMPDEST SWAP3 POP PUSH1 0x20 DUP5 ADD CALLDATALOAD PUSH1 0x1 PUSH1 0x1 PUSH1 0x40 SHL SUB DUP1 DUP3 GT ISZERO PUSH2 0x8F69 JUMPI DUP3 DUP4 REVERT JUMPDEST PUSH2 0x89D5 DUP8 DUP4 DUP9 ADD PUSH2 0x8146 JUMP JUMPDEST PUSH1 0x0 PUSH1 0x20 DUP3 DUP5 SUB SLT ISZERO PUSH2 0x8F86 JUMPI DUP1 DUP2 REVERT JUMPDEST DUP2 MLOAD PUSH2 0x3DB2 DUP2 PUSH2 0xA148 JUMP JUMPDEST PUSH1 0x0 DUP1 PUSH1 0x80 DUP4 DUP6 SUB SLT ISZERO PUSH2 0x8FA3 JUMPI DUP2 DUP3 REVERT JUMPDEST DUP3 MLOAD PUSH2 0x8FAE DUP2 PUSH2 0xA148 JUMP JUMPDEST SWAP2 POP PUSH2 0x8FBD DUP5 PUSH1 0x20 DUP6 ADD PUSH2 0x83E6 JUMP JUMPDEST SWAP1 POP SWAP3 POP SWAP3 SWAP1 POP JUMP JUMPDEST PUSH1 0x0 DUP1 PUSH1 0x0 DUP1 DUP5 DUP7 SUB PUSH1 0xA0 DUP2 SLT ISZERO PUSH2 0x8FDC JUMPI DUP3 DUP4 REVERT JUMPDEST PUSH1 0x40 DUP2 SLT ISZERO PUSH2 0x8FE9 JUMPI DUP3 DUP4 REVERT JUMPDEST POP PUSH2 0x8FF4 PUSH1 0x40 PUSH2 0xA062 JUMP JUMPDEST DUP6 CALLDATALOAD DUP2 MSTORE PUSH1 0x20 DUP7 ADD CALLDATALOAD PUSH2 0x9006 DUP2 PUSH2 0xA11D JUMP JUMPDEST PUSH1 0x20 DUP3 ADD MSTORE SWAP4 POP PUSH1 0x40 DUP6 ADD CALLDATALOAD PUSH2 0x901B DUP2 PUSH2 0xA11D JUMP JUMPDEST SWAP3 POP PUSH1 0x60 DUP6 ADD CALLDATALOAD PUSH2 0x902B DUP2 PUSH2 0xA11D JUMP JUMPDEST SWAP2 POP PUSH1 0x80 DUP6 ADD CALLDATALOAD PUSH1 0x1 PUSH1 0x1 PUSH1 0x40 SHL SUB DUP2 GT ISZERO PUSH2 0x8927 JUMPI DUP2 DUP3 REVERT JUMPDEST PUSH1 0x0 DUP1 PUSH1 0x0 DUP1 PUSH1 0x80 DUP6 DUP8 SUB SLT ISZERO PUSH2 0x905A JUMPI DUP2 DUP3 REVERT JUMPDEST DUP5 CALLDATALOAD PUSH1 0x1 PUSH1 0x1 PUSH1 0x40 SHL SUB DUP1 DUP3 GT ISZERO PUSH2 0x9070 JUMPI DUP4 DUP5 REVERT JUMPDEST SWAP1 DUP7 ADD SWAP1 PUSH1 0x40 DUP3 DUP10 SUB SLT ISZERO PUSH2 0x9083 JUMPI DUP4 DUP5 REVERT JUMPDEST PUSH2 0x908D PUSH1 0x40 PUSH2 0xA062 JUMP JUMPDEST PUSH2 0x9097 DUP10 DUP5 PUSH2 0x8009 JUMP JUMPDEST DUP2 MSTORE PUSH1 0x20 DUP4 ADD CALLDATALOAD DUP3 DUP2 GT ISZERO PUSH2 0x90AA JUMPI DUP6 DUP7 REVERT JUMPDEST PUSH2 0x90B6 DUP11 DUP3 DUP7 ADD PUSH2 0x8096 JUMP JUMPDEST PUSH1 0x20 DUP4 ADD MSTORE POP DUP1 SWAP7 POP POP PUSH2 0x90CD DUP9 PUSH1 0x20 DUP10 ADD PUSH2 0x8009 JUMP JUMPDEST SWAP5 POP PUSH2 0x90DC DUP9 PUSH1 0x40 DUP10 ADD PUSH2 0x8009 JUMP JUMPDEST SWAP4 POP PUSH1 0x60 DUP8 ADD CALLDATALOAD SWAP2 POP DUP1 DUP3 GT ISZERO PUSH2 0x90F1 JUMPI DUP3 DUP4 REVERT JUMPDEST POP PUSH2 0x8933 DUP8 DUP3 DUP9 ADD PUSH2 0x8221 JUMP JUMPDEST PUSH1 0x0 DUP1 PUSH1 0x0 DUP1 PUSH1 0xC0 DUP6 DUP8 SUB SLT ISZERO PUSH2 0x9113 JUMPI DUP2 DUP3 REVERT JUMPDEST PUSH2 0x911D DUP7 DUP7 PUSH2 0x8390 JUMP JUMPDEST SWAP4 POP PUSH1 0x60 DUP6 ADD CALLDATALOAD PUSH2 0x912D DUP2 PUSH2 0xA148 JUMP JUMPDEST SWAP3 POP PUSH1 0x80 DUP6 ADD CALLDATALOAD PUSH2 0x913D DUP2 PUSH2 0xA148 JUMP JUMPDEST SWAP2 POP PUSH1 0xA0 DUP6 ADD CALLDATALOAD PUSH1 0x1 PUSH1 0x1 PUSH1 0x40 SHL SUB DUP2 GT ISZERO PUSH2 0x8927 JUMPI DUP2 DUP3 REVERT JUMPDEST PUSH1 0x0 DUP1 PUSH1 0x0 DUP1 PUSH1 0xA0 DUP6 DUP8 SUB SLT ISZERO PUSH2 0x916C JUMPI DUP2 DUP3 REVERT JUMPDEST PUSH2 0x9176 DUP7 DUP7 PUSH2 0x8431 JUMP JUMPDEST SWAP4 POP PUSH1 0x40 DUP6 ADD CALLDATALOAD PUSH2 0x901B DUP2 PUSH2 0xA11D JUMP JUMPDEST PUSH1 0x0 DUP1 PUSH1 0x0 DUP1 PUSH1 0x80 DUP6 DUP8 SUB SLT ISZERO PUSH2 0x919B JUMPI DUP2 DUP3 REVERT JUMPDEST DUP5 CALLDATALOAD PUSH1 0x1 PUSH1 0x1 PUSH1 0x40 SHL SUB DUP1 DUP3 GT ISZERO PUSH2 0x91B1 JUMPI DUP4 DUP5 REVERT JUMPDEST PUSH2 0x91BD DUP9 DUP4 DUP10 ADD PUSH2 0x8474 JUMP JUMPDEST SWAP6 POP PUSH1 0x20 DUP8 ADD CALLDATALOAD SWAP2 POP PUSH2 0x91CF DUP3 PUSH2 0xA11D JUMP JUMPDEST SWAP1 SWAP4 POP PUSH1 0x40 DUP7 ADD CALLDATALOAD SWAP1 PUSH2 0x91E1 DUP3 PUSH2 0xA11D JUMP JUMPDEST SWAP1 SWAP3 POP PUSH1 0x60 DUP7 ADD CALLDATALOAD SWAP1 DUP1 DUP3 GT ISZERO PUSH2 0x90F1 JUMPI DUP3 DUP4 REVERT JUMPDEST PUSH1 0x0 DUP1 PUSH1 0x0 DUP1 PUSH1 0x80 DUP6 DUP8 SUB SLT ISZERO PUSH2 0x920B JUMPI DUP2 DUP3 REVERT JUMPDEST DUP5 CALLDATALOAD PUSH1 0x1 PUSH1 0x1 PUSH1 0x40 SHL SUB DUP2 GT ISZERO PUSH2 0x9220 JUMPI DUP3 DUP4 REVERT JUMPDEST PUSH2 0x922C DUP8 DUP3 DUP9 ADD PUSH2 0x8474 JUMP JUMPDEST SWAP5 POP POP PUSH1 0x20 DUP6 ADD CALLDATALOAD PUSH2 0x896F DUP2 PUSH2 0xA11D JUMP JUMPDEST PUSH1 0x0 DUP1 PUSH1 0x0 DUP1 PUSH1 0x80 DUP6 DUP8 SUB SLT ISZERO PUSH2 0x9252 JUMPI DUP2 DUP3 REVERT JUMPDEST DUP5 CALLDATALOAD PUSH1 0x1 PUSH1 0x1 PUSH1 0x40 SHL SUB DUP2 GT ISZERO PUSH2 0x9267 JUMPI DUP3 DUP4 REVERT JUMPDEST PUSH2 0x9273 DUP8 DUP3 DUP9 ADD PUSH2 0x8474 JUMP JUMPDEST SWAP5 POP POP PUSH1 0x20 DUP6 ADD CALLDATALOAD SWAP3 POP PUSH1 0x40 DUP6 ADD CALLDATALOAD PUSH2 0x928B DUP2 PUSH2 0xA11D JUMP JUMPDEST SWAP2 POP PUSH1 0x60 DUP6 ADD CALLDATALOAD PUSH2 0x8735 DUP2 PUSH2 0xA11D JUMP JUMPDEST PUSH1 0x0 DUP1 PUSH1 0x0 PUSH2 0x220 DUP5 DUP7 SUB SLT ISZERO PUSH2 0x92B0 JUMPI DUP1 DUP2 REVERT JUMPDEST PUSH2 0x92BA DUP6 DUP6 PUSH2 0x84FF JUMP JUMPDEST SWAP3 POP PUSH2 0x92CA DUP6 PUSH2 0x180 DUP7 ADD PUSH2 0x85EC JUMP JUMPDEST SWAP2 POP PUSH2 0x200 DUP5 ADD CALLDATALOAD PUSH2 0x8D36 DUP2 PUSH2 0xA11D JUMP JUMPDEST PUSH1 0x0 DUP1 PUSH1 0x0 DUP1 DUP5 DUP7 SUB PUSH1 0xC0 DUP2 SLT ISZERO PUSH2 0x92F1 JUMPI DUP3 DUP4 REVERT JUMPDEST PUSH1 0x60 DUP2 SLT ISZERO PUSH2 0x92FE JUMPI DUP3 DUP4 REVERT JUMPDEST POP PUSH2 0x9309 PUSH1 0x60 PUSH2 0xA062 JUMP JUMPDEST DUP6 CALLDATALOAD PUSH2 0x9314 DUP2 PUSH2 0xA11D JUMP JUMPDEST DUP2 MSTORE PUSH1 0x20 DUP7 DUP2 ADD CALLDATALOAD SWAP1 DUP3 ADD MSTORE PUSH1 0x40 DUP7 ADD CALLDATALOAD PUSH2 0x932E DUP2 PUSH2 0xA11D JUMP JUMPDEST PUSH1 0x40 DUP3 ADD MSTORE SWAP4 POP PUSH1 0x60 DUP6 ADD CALLDATALOAD PUSH2 0x9343 DUP2 PUSH2 0xA11D JUMP JUMPDEST SWAP3 POP PUSH1 0x80 DUP6 ADD CALLDATALOAD PUSH2 0x913D DUP2 PUSH2 0xA11D JUMP JUMPDEST PUSH1 0x0 DUP1 PUSH1 0x0 DUP4 DUP6 SUB PUSH1 0xA0 DUP2 SLT ISZERO PUSH2 0x9368 JUMPI DUP2 DUP3 REVERT JUMPDEST PUSH1 0x60 DUP2 SLT ISZERO PUSH2 0x9375 JUMPI DUP2 DUP3 REVERT JUMPDEST POP PUSH2 0x9380 PUSH1 0x60 PUSH2 0xA062 JUMP JUMPDEST DUP5 MLOAD DUP2 MSTORE PUSH1 0x20 DUP6 ADD MLOAD PUSH1 0x5 DUP2 LT PUSH2 0x9395 JUMPI DUP3 DUP4 REVERT JUMPDEST PUSH1 0x20 DUP3 ADD MSTORE PUSH1 0x40 DUP6 ADD MLOAD PUSH2 0x93A8 DUP2 PUSH2 0xA157 JUMP JUMPDEST PUSH1 0x40 DUP3 ADD MSTORE PUSH1 0x60 DUP6 ADD MLOAD SWAP1 SWAP4 POP PUSH2 0x93BE DUP2 PUSH2 0xA157 JUMP JUMPDEST SWAP2 POP PUSH2 0x877F DUP6 PUSH1 0x80 DUP7 ADD PUSH2 0x82DD JUMP JUMPDEST PUSH1 0x0 PUSH1 0x20 DUP3 DUP5 SUB SLT ISZERO PUSH2 0x93DE JUMPI DUP1 DUP2 REVERT JUMPDEST DUP2 MLOAD PUSH3 0xFFFFFF DUP2 AND DUP2 EQ PUSH2 0x3DB2 JUMPI DUP2 DUP3 REVERT JUMPDEST PUSH1 0x0 DUP1 PUSH1 0x40 DUP4 DUP6 SUB SLT ISZERO PUSH2 0x9402 JUMPI DUP2 DUP3 REVERT JUMPDEST POP POP DUP1 MLOAD PUSH1 0x20 SWAP1 SWAP2 ADD MLOAD SWAP1 SWAP3 SWAP1 SWAP2 POP JUMP JUMPDEST PUSH1 0x0 DUP1 PUSH1 0x0 DUP1 PUSH1 0x80 DUP6 DUP8 SUB SLT ISZERO PUSH2 0x9428 JUMPI DUP2 DUP3 REVERT JUMPDEST POP POP DUP3 MLOAD PUSH1 0x20 DUP5 ADD MLOAD PUSH1 0x40 DUP6 ADD MLOAD PUSH1 0x60 SWAP1 SWAP6 ADD MLOAD SWAP2 SWAP7 SWAP1 SWAP6 POP SWAP1 SWAP3 POP SWAP1 POP JUMP JUMPDEST PUSH1 0x0 DUP1 PUSH1 0x0 DUP1 PUSH1 0x0 PUSH1 0xA0 DUP7 DUP9 SUB SLT ISZERO PUSH2 0x945F JUMPI DUP3 DUP4 REVERT JUMPDEST POP POP DUP4 MLOAD PUSH1 0x20 DUP6 ADD MLOAD PUSH1 0x40 DUP7 ADD MLOAD PUSH1 0x60 DUP8 ADD MLOAD PUSH1 0x80 SWAP1 SWAP8 ADD MLOAD SWAP3 SWAP9 SWAP2 SWAP8 POP SWAP6 SWAP5 POP SWAP1 SWAP3 POP SWAP1 POP JUMP JUMPDEST PUSH1 0x1 PUSH1 0x1 PUSH1 0xA0 SHL SUB AND DUP2 MSTORE PUSH1 0x20 ADD SWAP1 JUMP JUMPDEST PUSH1 0x0 DUP2 MLOAD DUP4 MSTORE PUSH1 0x20 DUP3 ADD MLOAD PUSH1 0x20 DUP5 ADD MSTORE PUSH1 0x40 DUP3 ADD MLOAD PUSH1 0x40 DUP5 ADD MSTORE PUSH1 0x60 DUP3 ADD MLOAD PUSH1 0x60 DUP5 ADD MSTORE PUSH1 0x80 DUP3 ADD MLOAD PUSH1 0xA0 PUSH1 0x80 DUP6 ADD MSTORE PUSH2 0x11FB PUSH1 0xA0 DUP6 ADD DUP3 PUSH2 0x9554 JUMP JUMPDEST PUSH1 0x1 PUSH1 0x1 PUSH1 0xA0 SHL SUB AND SWAP1 MSTORE JUMP JUMPDEST PUSH1 0x0 DUP2 MLOAD DUP1 DUP5 MSTORE PUSH1 0x20 DUP1 DUP6 ADD SWAP5 POP DUP1 DUP5 ADD DUP4 JUMPDEST DUP4 DUP2 LT ISZERO PUSH2 0x951A JUMPI DUP2 MLOAD PUSH1 0x1 PUSH1 0x1 PUSH1 0xA0 SHL SUB AND DUP8 MSTORE SWAP6 DUP3 ADD SWAP6 SWAP1 DUP3 ADD SWAP1 PUSH1 0x1 ADD PUSH2 0x94F5 JUMP JUMPDEST POP SWAP5 SWAP6 SWAP5 POP POP POP POP POP JUMP JUMPDEST PUSH1 0x0 DUP2 MLOAD DUP1 DUP5 MSTORE PUSH1 0x20 DUP1 DUP6 ADD SWAP5 POP DUP1 DUP5 ADD DUP4 JUMPDEST DUP4 DUP2 LT ISZERO PUSH2 0x951A JUMPI DUP2 MLOAD DUP8 MSTORE SWAP6 DUP3 ADD SWAP6 SWAP1 DUP3 ADD SWAP1 PUSH1 0x1 ADD PUSH2 0x9538 JUMP JUMPDEST PUSH1 0x0 DUP2 MLOAD DUP1 DUP5 MSTORE PUSH2 0x956C DUP2 PUSH1 0x20 DUP7 ADD PUSH1 0x20 DUP7 ADD PUSH2 0xA0E0 JUMP JUMPDEST PUSH1 0x1F ADD PUSH1 0x1F NOT AND SWAP3 SWAP1 SWAP3 ADD PUSH1 0x20 ADD SWAP3 SWAP2 POP POP JUMP JUMPDEST DUP1 MLOAD PUSH1 0x1 PUSH1 0x1 PUSH1 0xA0 SHL SUB AND DUP3 MSTORE PUSH1 0x20 DUP1 DUP3 ADD MLOAD PUSH1 0x1 PUSH1 0x1 PUSH1 0xE0 SHL SUB NOT SWAP1 DUP2 AND SWAP2 DUP5 ADD SWAP2 SWAP1 SWAP2 MSTORE PUSH1 0x40 SWAP2 DUP3 ADD MLOAD AND SWAP2 ADD MSTORE JUMP JUMPDEST DUP1 MLOAD PUSH1 0x1 PUSH1 0x1 PUSH1 0xA0 SHL SUB SWAP1 DUP2 AND DUP4 MSTORE PUSH1 0x20 DUP1 DUP4 ADD MLOAD ISZERO ISZERO SWAP1 DUP5 ADD MSTORE PUSH1 0x40 DUP1 DUP4 ADD MLOAD SWAP1 SWAP2 AND SWAP1 DUP4 ADD MSTORE PUSH1 0x60 SWAP1 DUP2 ADD MLOAD ISZERO ISZERO SWAP2 ADD MSTORE JUMP JUMPDEST PUSH1 0x0 DUP2 MLOAD DUP4 MSTORE PUSH1 0x20 DUP3 ADD MLOAD PUSH1 0x40 PUSH1 0x20 DUP6 ADD MSTORE PUSH2 0x11FB PUSH1 0x40 DUP6 ADD DUP3 PUSH2 0x9554 JUMP JUMPDEST PUSH1 0x0 DUP2 MLOAD DUP4 MSTORE PUSH1 0x20 DUP3 ADD MLOAD PUSH1 0x1 DUP1 PUSH1 0xA0 SHL SUB DUP1 DUP3 AND PUSH1 0x20 DUP7 ADD MSTORE DUP1 PUSH1 0x40 DUP6 ADD MLOAD AND PUSH1 0x40 DUP7 ADD MSTORE DUP1 PUSH1 0x60 DUP6 ADD MLOAD AND PUSH1 0x60 DUP7 ADD MSTORE POP POP PUSH1 0x80 DUP3 ADD MLOAD PUSH1 0xA0 PUSH1 0x80 DUP6 ADD MSTORE PUSH2 0x11FB PUSH1 0xA0 DUP6 ADD DUP3 PUSH2 0x9554 JUMP JUMPDEST PUSH2 0x965E DUP3 DUP3 MLOAD PUSH2 0x94D5 JUMP JUMPDEST PUSH1 0x20 DUP2 ADD MLOAD PUSH2 0x9670 PUSH1 0x20 DUP5 ADD DUP3 PUSH2 0x94D5 JUMP JUMPDEST POP PUSH1 0x40 DUP2 ADD MLOAD PUSH2 0x9683 PUSH1 0x40 DUP5 ADD DUP3 PUSH2 0x9753 JUMP JUMPDEST POP PUSH1 0x60 DUP2 ADD MLOAD PUSH2 0x9696 PUSH1 0x60 DUP5 ADD DUP3 PUSH2 0x9753 JUMP JUMPDEST POP PUSH1 0x80 DUP2 ADD MLOAD PUSH2 0x96A9 PUSH1 0x80 DUP5 ADD DUP3 PUSH2 0x9753 JUMP JUMPDEST POP PUSH1 0xA0 DUP2 ADD MLOAD PUSH2 0x96BC PUSH1 0xA0 DUP5 ADD DUP3 PUSH2 0x94D5 JUMP JUMPDEST POP PUSH1 0xC0 DUP2 ADD MLOAD PUSH2 0x96CF PUSH1 0xC0 DUP5 ADD DUP3 PUSH2 0x94D5 JUMP JUMPDEST POP PUSH1 0xE0 DUP2 ADD MLOAD PUSH2 0x96E2 PUSH1 0xE0 DUP5 ADD DUP3 PUSH2 0x94D5 JUMP JUMPDEST POP PUSH2 0x100 DUP1 DUP3 ADD MLOAD PUSH2 0x96F6 DUP3 DUP6 ADD DUP3 PUSH2 0x94D5 JUMP JUMPDEST POP POP PUSH2 0x120 DUP2 DUP2 ADD MLOAD SWAP1 DUP4 ADD MSTORE PUSH2 0x140 DUP1 DUP3 ADD MLOAD PUSH2 0x9716 DUP3 DUP6 ADD DUP3 PUSH2 0x9760 JUMP JUMPDEST POP POP PUSH2 0x160 SWAP1 DUP2 ADD MLOAD SWAP2 ADD MSTORE JUMP JUMPDEST DUP1 MLOAD PUSH2 0x972F DUP2 PUSH2 0xA110 JUMP JUMPDEST DUP3 MSTORE PUSH1 0x20 DUP2 DUP2 ADD MLOAD PUSH1 0xFF AND SWAP1 DUP4 ADD MSTORE PUSH1 0x40 DUP1 DUP3 ADD MLOAD SWAP1 DUP4 ADD MSTORE PUSH1 0x60 SWAP1 DUP2 ADD MLOAD SWAP2 ADD MSTORE JUMP JUMPDEST PUSH1 0x1 PUSH1 0x1 PUSH1 0x80 SHL SUB AND SWAP1 MSTORE JUMP JUMPDEST PUSH1 0x1 PUSH1 0x1 PUSH1 0x40 SHL SUB AND SWAP1 MSTORE JUMP JUMPDEST PUSH1 0x0 DUP3 DUP5 DUP4 CALLDATACOPY SWAP2 ADD SWAP1 DUP2 MSTORE SWAP2 SWAP1 POP JUMP JUMPDEST PUSH1 0x0 DUP3 MLOAD PUSH2 0x978F DUP2 DUP5 PUSH1 0x20 DUP8 ADD PUSH2 0xA0E0 JUMP JUMPDEST SWAP2 SWAP1 SWAP2 ADD SWAP3 SWAP2 POP POP JUMP JUMPDEST PUSH1 0x1 PUSH1 0x1 PUSH1 0xA0 SHL SUB SWAP2 SWAP1 SWAP2 AND DUP2 MSTORE PUSH1 0x20 ADD SWAP1 JUMP JUMPDEST PUSH1 0x1 PUSH1 0x1 PUSH1 0xA0 SHL SUB SWAP3 SWAP1 SWAP3 AND DUP3 MSTORE PUSH1 0x20 DUP3 ADD MSTORE PUSH1 0x40 ADD SWAP1 JUMP JUMPDEST PUSH1 0x1 PUSH1 0x1 PUSH1 0xA0 SHL SUB SWAP3 DUP4 AND DUP2 MSTORE SWAP2 AND PUSH1 0x20 DUP3 ADD MSTORE PUSH1 0x40 ADD SWAP1 JUMP JUMPDEST PUSH1 0x1 PUSH1 0x1 PUSH1 0xA0 SHL SUB SWAP5 DUP6 AND DUP2 MSTORE SWAP3 DUP5 AND PUSH1 0x20 DUP5 ADD MSTORE SWAP1 DUP4 AND PUSH1 0x40 DUP4 ADD MSTORE SWAP1 SWAP2 AND PUSH1 0x60 DUP3 ADD MSTORE PUSH1 0x80 ADD SWAP1 JUMP JUMPDEST PUSH1 0x1 PUSH1 0x1 PUSH1 0xA0 SHL SUB DUP6 DUP2 AND DUP3 MSTORE DUP5 DUP2 AND PUSH1 0x20 DUP4 ADD MSTORE DUP4 AND PUSH1 0x40 DUP3 ADD MSTORE PUSH1 0x80 PUSH1 0x60 DUP3 ADD DUP2 SWAP1 MSTORE PUSH1 0x0 SWAP1 PUSH2 0x6225 SWAP1 DUP4 ADD DUP5 PUSH2 0x9525 JUMP JUMPDEST PUSH1 0x1 PUSH1 0x1 PUSH1 0xA0 SHL SUB SWAP5 DUP6 AND DUP2 MSTORE SWAP3 DUP5 AND PUSH1 0x20 DUP5 ADD MSTORE SWAP3 AND PUSH1 0x40 DUP3 ADD MSTORE PUSH1 0x60 DUP2 ADD SWAP2 SWAP1 SWAP2 MSTORE PUSH1 0x80 ADD SWAP1 JUMP JUMPDEST PUSH1 0x1 PUSH1 0x1 PUSH1 0xA0 SHL SUB SWAP4 DUP5 AND DUP2 MSTORE SWAP2 SWAP1 SWAP3 AND PUSH1 0x20 DUP3 ADD MSTORE SWAP1 ISZERO ISZERO PUSH1 0x40 DUP3 ADD MSTORE PUSH1 0x60 ADD SWAP1 JUMP JUMPDEST PUSH1 0x1 PUSH1 0x1 PUSH1 0xA0 SHL SUB DUP6 DUP2 AND DUP3 MSTORE DUP5 AND PUSH1 0x20 DUP3 ADD MSTORE DUP3 ISZERO ISZERO PUSH1 0x40 DUP3 ADD MSTORE PUSH1 0x80 PUSH1 0x60 DUP3 ADD DUP2 SWAP1 MSTORE PUSH1 0x0 SWAP1 PUSH2 0x6225 SWAP1 DUP4 ADD DUP5 PUSH2 0x9554 JUMP JUMPDEST PUSH1 0x1 PUSH1 0x1 PUSH1 0xA0 SHL SUB SWAP4 DUP5 AND DUP2 MSTORE SWAP2 SWAP1 SWAP3 AND PUSH1 0x20 DUP3 ADD MSTORE PUSH1 0x40 DUP2 ADD SWAP2 SWAP1 SWAP2 MSTORE PUSH1 0x60 ADD SWAP1 JUMP JUMPDEST PUSH1 0x1 PUSH1 0x1 PUSH1 0xA0 SHL SUB DUP7 DUP2 AND DUP3 MSTORE DUP6 AND PUSH1 0x20 DUP3 ADD MSTORE PUSH1 0x40 DUP2 ADD DUP5 SWAP1 MSTORE PUSH1 0x60 DUP2 ADD DUP4 SWAP1 MSTORE PUSH1 0xA0 PUSH1 0x80 DUP3 ADD DUP2 SWAP1 MSTORE PUSH1 0x0 SWAP1 PUSH2 0x991F SWAP1 DUP4 ADD DUP5 PUSH2 0x9554 JUMP JUMPDEST SWAP8 SWAP7 POP POP POP POP POP POP POP JUMP JUMPDEST PUSH1 0x1 PUSH1 0x1 PUSH1 0xA0 SHL SUB DUP5 AND DUP2 MSTORE PUSH1 0x60 PUSH1 0x20 DUP3 ADD DUP2 SWAP1 MSTORE PUSH1 0x0 SWAP1 PUSH2 0x994E SWAP1 DUP4 ADD DUP6 PUSH2 0x94E2 JUMP JUMPDEST DUP3 DUP2 SUB PUSH1 0x40 DUP5 ADD MSTORE PUSH2 0x6225 DUP2 DUP6 PUSH2 0x9525 JUMP JUMPDEST PUSH1 0x1 PUSH1 0x1 PUSH1 0xA0 SHL SUB DUP6 AND DUP2 MSTORE PUSH1 0x0 PUSH2 0x9977 DUP6 PUSH2 0xA0CA JUMP JUMPDEST PUSH1 0x20 DUP4 ADD MSTORE PUSH1 0x80 PUSH1 0x40 DUP4 ADD MSTORE PUSH2 0x9990 PUSH1 0x80 DUP4 ADD DUP6 PUSH2 0x9525 JUMP JUMPDEST DUP3 DUP2 SUB PUSH1 0x60 DUP5 ADD MSTORE PUSH2 0x991F DUP2 DUP6 PUSH2 0x9525 JUMP JUMPDEST PUSH1 0x1 PUSH1 0x1 PUSH1 0xA0 SHL SUB DUP10 DUP2 AND DUP3 MSTORE PUSH1 0x0 SWAP1 PUSH2 0x100 SWAP1 PUSH2 0x99BF DUP12 PUSH2 0xA0CA JUMP JUMPDEST PUSH1 0x20 DUP6 ADD MSTORE DUP2 PUSH1 0x40 DUP6 ADD MSTORE PUSH2 0x99D6 DUP3 DUP6 ADD DUP12 PUSH2 0x9525 JUMP JUMPDEST SWAP2 POP DUP4 DUP3 SUB PUSH1 0x60 DUP6 ADD MSTORE PUSH2 0x99EA DUP3 DUP11 PUSH2 0x9525 JUMP JUMPDEST SWAP1 DUP9 AND PUSH1 0x80 DUP6 ADD MSTORE SWAP1 POP PUSH2 0x99FD DUP7 PUSH2 0xA0CA JUMP JUMPDEST PUSH1 0xA0 DUP5 ADD MSTORE DUP3 DUP2 SUB PUSH1 0xC0 DUP5 ADD MSTORE PUSH2 0x9A14 DUP2 DUP7 PUSH2 0x9525 JUMP JUMPDEST SWAP1 POP DUP3 DUP2 SUB PUSH1 0xE0 DUP5 ADD MSTORE PUSH2 0x9A28 DUP2 DUP6 PUSH2 0x9525 JUMP JUMPDEST SWAP12 SWAP11 POP POP POP POP POP POP POP POP POP POP POP JUMP JUMPDEST PUSH1 0x1 PUSH1 0x1 PUSH1 0xA0 SHL SUB DUP4 AND DUP2 MSTORE PUSH1 0x40 PUSH1 0x20 DUP3 ADD DUP2 SWAP1 MSTORE PUSH1 0x0 SWAP1 PUSH2 0x11FB SWAP1 DUP4 ADD DUP5 PUSH2 0x9606 JUMP JUMPDEST PUSH1 0x0 PUSH1 0x40 DUP3 MSTORE PUSH2 0x9A6E PUSH1 0x40 DUP4 ADD DUP6 PUSH2 0x94E2 JUMP JUMPDEST DUP3 DUP2 SUB PUSH1 0x20 DUP5 ADD MSTORE PUSH2 0x1269 DUP2 DUP6 PUSH2 0x9525 JUMP JUMPDEST PUSH1 0x0 PUSH1 0x40 DUP3 MSTORE PUSH2 0x9A93 PUSH1 0x40 DUP4 ADD DUP6 PUSH2 0x94E2 JUMP JUMPDEST SWAP1 POP DUP3 PUSH1 0x20 DUP4 ADD MSTORE SWAP4 SWAP3 POP POP POP JUMP JUMPDEST PUSH1 0x0 PUSH1 0x40 DUP3 ADD PUSH1 0x40 DUP4 MSTORE DUP1 DUP6 MLOAD DUP1 DUP4 MSTORE PUSH1 0x60 DUP6 ADD SWAP2 POP PUSH1 0x20 SWAP3 POP PUSH1 0x60 DUP4 DUP3 MUL DUP7 ADD ADD DUP4 DUP9 ADD DUP6 JUMPDEST DUP4 DUP2 LT ISZERO PUSH2 0x9AF7 JUMPI PUSH1 0x5F NOT DUP9 DUP5 SUB ADD DUP6 MSTORE PUSH2 0x9AE5 DUP4 DUP4 MLOAD PUSH2 0x9554 JUMP JUMPDEST SWAP5 DUP7 ADD SWAP5 SWAP3 POP SWAP1 DUP6 ADD SWAP1 PUSH1 0x1 ADD PUSH2 0x9AC9 JUMP JUMPDEST POP POP DUP6 DUP2 SUB DUP5 DUP8 ADD MSTORE PUSH2 0x7A87 DUP2 DUP9 PUSH2 0x9525 JUMP JUMPDEST PUSH1 0x20 DUP1 DUP3 MSTORE DUP3 MLOAD DUP3 DUP3 ADD DUP2 SWAP1 MSTORE PUSH1 0x0 SWAP2 SWAP1 PUSH1 0x40 SWAP1 DUP2 DUP6 ADD SWAP1 DUP1 DUP5 MUL DUP7 ADD DUP4 ADD DUP8 DUP6 ADD DUP7 JUMPDEST DUP4 DUP2 LT ISZERO PUSH2 0x9B71 JUMPI DUP9 DUP4 SUB PUSH1 0x3F NOT ADD DUP6 MSTORE DUP2 MLOAD DUP1 MLOAD DUP8 DUP6 MSTORE PUSH2 0x9B52 DUP9 DUP7 ADD DUP3 PUSH2 0x9554 JUMP JUMPDEST SWAP2 DUP10 ADD MLOAD ISZERO ISZERO SWAP5 DUP10 ADD SWAP5 SWAP1 SWAP5 MSTORE SWAP5 DUP8 ADD SWAP5 SWAP3 POP SWAP1 DUP7 ADD SWAP1 PUSH1 0x1 ADD PUSH2 0x9B2E JUMP JUMPDEST POP SWAP1 SWAP9 SWAP8 POP POP POP POP POP POP POP POP JUMP JUMPDEST PUSH1 0x0 PUSH1 0x20 DUP3 MSTORE PUSH2 0x3DB2 PUSH1 0x20 DUP4 ADD DUP5 PUSH2 0x9525 JUMP JUMPDEST SWAP1 ISZERO ISZERO DUP2 MSTORE PUSH1 0x20 ADD SWAP1 JUMP JUMPDEST DUP4 ISZERO ISZERO DUP2 MSTORE PUSH1 0x1 PUSH1 0x1 PUSH1 0xA0 SHL SUB DUP4 AND PUSH1 0x20 DUP3 ADD MSTORE PUSH1 0x60 PUSH1 0x40 DUP3 ADD DUP2 SWAP1 MSTORE PUSH1 0x0 SWAP1 PUSH2 0x1269 SWAP1 DUP4 ADD DUP5 PUSH2 0x9525 JUMP JUMPDEST SWAP1 DUP2 MSTORE PUSH1 0x20 ADD SWAP1 JUMP JUMPDEST PUSH1 0x0 DUP5 DUP3 MSTORE PUSH1 0x60 PUSH1 0x20 DUP4 ADD MSTORE PUSH2 0x994E PUSH1 0x60 DUP4 ADD DUP6 PUSH2 0x9554 JUMP JUMPDEST PUSH1 0x0 PUSH1 0x20 DUP3 MSTORE PUSH2 0x3DB2 PUSH1 0x20 DUP4 ADD DUP5 PUSH2 0x9554 JUMP JUMPDEST PUSH1 0x0 PUSH1 0x40 DUP3 MSTORE PUSH2 0x9A93 PUSH1 0x40 DUP4 ADD DUP6 PUSH2 0x9554 JUMP JUMPDEST PUSH1 0x1 PUSH1 0x1 PUSH1 0xA0 SHL SUB SWAP4 DUP5 AND DUP2 MSTORE SWAP2 SWAP1 SWAP3 AND PUSH1 0x20 DUP3 ADD MSTORE PUSH3 0xFFFFFF SWAP1 SWAP2 AND PUSH1 0x40 DUP3 ADD MSTORE PUSH1 0x60 ADD SWAP1 JUMP JUMPDEST PUSH1 0x1 PUSH1 0x1 PUSH1 0xA0 SHL SUB DUP4 AND DUP2 MSTORE PUSH1 0x40 PUSH1 0x20 DUP3 ADD DUP2 SWAP1 MSTORE PUSH1 0x0 SWAP1 PUSH2 0x11FB SWAP1 DUP4 ADD DUP5 PUSH2 0x9525 JUMP JUMPDEST PUSH1 0x60 DUP2 ADD PUSH2 0x9C6A DUP6 PUSH2 0xA110 JUMP JUMPDEST SWAP4 DUP2 MSTORE PUSH1 0x20 DUP2 ADD SWAP3 SWAP1 SWAP3 MSTORE PUSH1 0x40 SWAP1 SWAP2 ADD MSTORE SWAP1 JUMP JUMPDEST PUSH1 0x60 DUP2 ADD PUSH1 0x8 DUP6 LT PUSH2 0x9C6A JUMPI INVALID JUMPDEST PUSH1 0x0 PUSH1 0xE0 DUP3 ADD PUSH2 0x9C9B DUP8 PUSH2 0xA0D5 JUMP JUMPDEST DUP4 MSTORE PUSH1 0x20 PUSH1 0xE0 DUP2 DUP6 ADD MSTORE DUP2 DUP8 MLOAD PUSH2 0x9CB2 DUP2 DUP6 PUSH2 0x9BC9 JUMP JUMPDEST SWAP2 POP DUP2 SWAP4 POP DUP3 DUP2 MUL DUP3 ADD DUP4 DUP11 ADD DUP7 JUMPDEST DUP4 DUP2 LT ISZERO PUSH2 0x9CEB JUMPI DUP7 DUP4 SUB DUP6 MSTORE PUSH2 0x9CD9 DUP4 DUP4 MLOAD PUSH2 0x9498 JUMP JUMPDEST SWAP5 DUP7 ADD SWAP5 SWAP3 POP SWAP1 DUP6 ADD SWAP1 PUSH1 0x1 ADD PUSH2 0x9CC1 JUMP JUMPDEST POP POP DUP7 DUP2 SUB PUSH1 0x40 DUP9 ADD MSTORE DUP1 SWAP5 POP DUP9 MLOAD SWAP3 POP PUSH2 0x9D06 DUP4 DUP3 PUSH2 0x9BC9 JUMP JUMPDEST SWAP5 POP POP POP DUP2 DUP8 ADD DUP5 JUMPDEST DUP3 DUP2 LT ISZERO PUSH2 0x9D30 JUMPI PUSH2 0x9D22 DUP6 DUP4 MLOAD PUSH2 0x9487 JUMP JUMPDEST SWAP5 POP SWAP1 DUP4 ADD SWAP1 PUSH1 0x1 ADD PUSH2 0x9D0F JUMP JUMPDEST POP POP POP POP DUP1 SWAP2 POP POP PUSH2 0x1269 PUSH1 0x60 DUP4 ADD DUP5 PUSH2 0x95B2 JUMP JUMPDEST PUSH1 0xF SWAP4 DUP5 SIGNEXTEND DUP2 MSTORE SWAP2 SWAP1 SWAP3 SIGNEXTEND PUSH1 0x20 DUP3 ADD MSTORE PUSH1 0x40 DUP2 ADD SWAP2 SWAP1 SWAP2 MSTORE PUSH1 0x60 ADD SWAP1 JUMP JUMPDEST PUSH1 0xF DUP4 SWAP1 SIGNEXTEND DUP2 MSTORE PUSH1 0x80 DUP2 ADD PUSH2 0x3DB2 PUSH1 0x20 DUP4 ADD DUP5 PUSH2 0x9580 JUMP JUMPDEST PUSH1 0x20 DUP1 DUP3 MSTORE PUSH1 0x24 SWAP1 DUP3 ADD MSTORE PUSH32 0x556E6973776170563353616D706C65722F746F6B656E5061746820746F6F2073 PUSH1 0x40 DUP3 ADD MSTORE PUSH4 0x1A1BDC9D PUSH1 0xE2 SHL PUSH1 0x60 DUP3 ADD MSTORE PUSH1 0x80 ADD SWAP1 JUMP JUMPDEST PUSH1 0x20 DUP1 DUP3 MSTORE PUSH1 0x25 SWAP1 DUP3 ADD MSTORE PUSH32 0x455243323042726964676553616D706C65722F494E56414C49445F544F4B454E PUSH1 0x40 DUP3 ADD MSTORE PUSH5 0x2FA820A4A9 PUSH1 0xD9 SHL PUSH1 0x60 DUP3 ADD MSTORE PUSH1 0x80 ADD SWAP1 JUMP JUMPDEST PUSH1 0x20 DUP1 DUP3 MSTORE PUSH1 0x25 SWAP1 DUP3 ADD MSTORE PUSH32 0x556E6973776170563353616D706C65722F696E76616C69642070617468206C65 PUSH1 0x40 DUP3 ADD MSTORE PUSH5 0x6E67746873 PUSH1 0xD8 SHL PUSH1 0x60 DUP3 ADD MSTORE PUSH1 0x80 ADD SWAP1 JUMP JUMPDEST PUSH1 0x20 DUP1 DUP3 MSTORE PUSH1 0x1E SWAP1 DUP3 ADD MSTORE PUSH32 0x4B79626572444D4D53616D706C65722F4E4F5F504F4F4C535F464F554E440000 PUSH1 0x40 DUP3 ADD MSTORE PUSH1 0x60 ADD SWAP1 JUMP JUMPDEST PUSH1 0x0 PUSH2 0x9E8C DUP3 DUP8 PUSH2 0x9580 JUMP JUMPDEST DUP5 PUSH1 0xF SIGNEXTEND PUSH1 0x60 DUP4 ADD MSTORE DUP4 PUSH1 0xF SIGNEXTEND PUSH1 0x80 DUP4 ADD MSTORE PUSH1 0xC0 PUSH1 0xA0 DUP4 ADD MSTORE PUSH2 0x6225 PUSH1 0xC0 DUP4 ADD DUP5 PUSH2 0x9525 JUMP JUMPDEST PUSH1 0x0 PUSH1 0x60 DUP3 MSTORE PUSH2 0x9EC5 PUSH1 0x60 DUP4 ADD DUP7 PUSH2 0x95E7 JUMP JUMPDEST DUP3 DUP2 SUB PUSH1 0x20 DUP5 ADD MSTORE PUSH2 0x9ED7 DUP2 DUP7 PUSH2 0x95E7 JUMP JUMPDEST SWAP2 POP POP DUP3 PUSH1 0x40 DUP4 ADD MSTORE SWAP5 SWAP4 POP POP POP POP JUMP JUMPDEST PUSH1 0x0 PUSH1 0x80 DUP3 MSTORE PUSH2 0x9EFB PUSH1 0x80 DUP4 ADD DUP8 PUSH2 0x9606 JUMP JUMPDEST PUSH1 0x1 PUSH1 0x1 PUSH1 0xA0 SHL SUB SWAP6 DUP7 AND PUSH1 0x20 DUP5 ADD MSTORE SWAP4 SWAP1 SWAP5 AND PUSH1 0x40 DUP3 ADD MSTORE PUSH1 0x60 ADD MSTORE SWAP3 SWAP2 POP POP JUMP JUMPDEST PUSH1 0x0 PUSH1 0x80 DUP3 MSTORE PUSH2 0x9F31 PUSH1 0x80 DUP4 ADD DUP8 PUSH2 0x9606 JUMP JUMPDEST PUSH1 0x20 DUP4 ADD SWAP6 SWAP1 SWAP6 MSTORE POP PUSH1 0x1 PUSH1 0x1 PUSH1 0xA0 SHL SUB SWAP3 DUP4 AND PUSH1 0x40 DUP3 ADD MSTORE SWAP2 AND PUSH1 0x60 SWAP1 SWAP2 ADD MSTORE SWAP2 SWAP1 POP JUMP JUMPDEST PUSH2 0x200 DUP2 ADD PUSH2 0x9F66 DUP3 DUP6 PUSH2 0x9653 JUMP JUMPDEST PUSH2 0x3DB2 PUSH2 0x180 DUP4 ADD DUP5 PUSH2 0x9724 JUMP JUMPDEST PUSH2 0x220 DUP2 ADD PUSH2 0x9F83 DUP3 DUP7 PUSH2 0x9653 JUMP JUMPDEST PUSH2 0x9F91 PUSH2 0x180 DUP4 ADD DUP6 PUSH2 0x9724 JUMP JUMPDEST PUSH1 0x1 PUSH1 0x1 PUSH1 0xA0 SHL SUB SWAP3 SWAP1 SWAP3 AND PUSH2 0x200 SWAP2 SWAP1 SWAP2 ADD MSTORE SWAP3 SWAP2 POP POP JUMP JUMPDEST PUSH1 0x0 DUP4 DUP3 MSTORE PUSH1 0x40 PUSH1 0x20 DUP4 ADD MSTORE PUSH2 0x11FB PUSH1 0x40 DUP4 ADD DUP5 PUSH2 0x94E2 JUMP JUMPDEST PUSH1 0x0 DUP5 DUP3 MSTORE PUSH1 0x60 PUSH1 0x20 DUP4 ADD MSTORE PUSH2 0x9FDD PUSH1 0x60 DUP4 ADD DUP6 PUSH2 0x94E2 JUMP JUMPDEST DUP3 DUP2 SUB PUSH1 0x40 DUP5 ADD MSTORE PUSH2 0x6225 DUP2 DUP6 PUSH2 0x94E2 JUMP JUMPDEST SWAP6 DUP7 MSTORE PUSH1 0x20 DUP7 ADD SWAP5 SWAP1 SWAP5 MSTORE PUSH1 0x40 DUP6 ADD SWAP3 SWAP1 SWAP3 MSTORE PUSH1 0x60 DUP5 ADD MSTORE PUSH1 0x80 DUP4 ADD MSTORE PUSH1 0xA0 DUP3 ADD MSTORE PUSH1 0xC0 ADD SWAP1 JUMP JUMPDEST PUSH1 0x0 DUP1 DUP4 CALLDATALOAD PUSH1 0x1E NOT DUP5 CALLDATASIZE SUB ADD DUP2 SLT PUSH2 0xA02D JUMPI DUP3 DUP4 REVERT JUMPDEST DUP4 ADD DUP1 CALLDATALOAD SWAP2 POP PUSH1 0x1 PUSH1 0x1 PUSH1 0x40 SHL SUB DUP3 GT ISZERO PUSH2 0xA046 JUMPI DUP3 DUP4 REVERT JUMPDEST PUSH1 0x20 ADD SWAP2 POP CALLDATASIZE DUP2 SWAP1 SUB DUP3 SGT ISZERO PUSH2 0xA05B JUMPI PUSH1 0x0 DUP1 REVERT JUMPDEST SWAP3 POP SWAP3 SWAP1 POP JUMP JUMPDEST PUSH1 0x40 MLOAD DUP2 DUP2 ADD PUSH1 0x1 PUSH1 0x1 PUSH1 0x40 SHL SUB DUP2 GT DUP3 DUP3 LT OR ISZERO PUSH2 0xA080 JUMPI PUSH1 0x0 DUP1 REVERT JUMPDEST PUSH1 0x40 MSTORE SWAP2 SWAP1 POP JUMP JUMPDEST PUSH1 0x0 PUSH1 0x1 PUSH1 0x1 PUSH1 0x40 SHL SUB DUP3 GT ISZERO PUSH2 0xA09D JUMPI DUP1 DUP2 REVERT JUMPDEST POP PUSH1 0x20 SWAP1 DUP2 MUL ADD SWAP1 JUMP JUMPDEST PUSH1 0x0 PUSH1 0x1 PUSH1 0x1 PUSH1 0x40 SHL SUB DUP3 GT ISZERO PUSH2 0xA0BC JUMPI DUP1 DUP2 REVERT JUMPDEST POP PUSH1 0x1F ADD PUSH1 0x1F NOT AND PUSH1 0x20 ADD SWAP1 JUMP JUMPDEST DUP1 PUSH1 0x4 DUP2 LT PUSH2 0xBAC JUMPI INVALID JUMPDEST DUP1 PUSH1 0x2 DUP2 LT PUSH2 0xBAC JUMPI INVALID JUMPDEST PUSH1 0x0 JUMPDEST DUP4 DUP2 LT ISZERO PUSH2 0xA0FB JUMPI DUP2 DUP2 ADD MLOAD DUP4 DUP3 ADD MSTORE PUSH1 0x20 ADD PUSH2 0xA0E3 JUMP JUMPDEST DUP4 DUP2 GT ISZERO PUSH2 0xA10A JUMPI PUSH1 0x0 DUP5 DUP5 ADD MSTORE JUMPDEST POP POP POP POP JUMP JUMPDEST PUSH1 0x4 DUP2 LT PUSH2 0xA11A JUMPI INVALID JUMPDEST POP JUMP JUMPDEST PUSH1 0x1 PUSH1 0x1 PUSH1 0xA0 SHL SUB DUP2 AND DUP2 EQ PUSH2 0xA11A JUMPI PUSH1 0x0 DUP1 REVERT JUMPDEST PUSH1 0x1 PUSH1 0x1 PUSH1 0xE0 SHL SUB NOT DUP2 AND DUP2 EQ PUSH2 0xA11A JUMPI PUSH1 0x0 DUP1 REVERT JUMPDEST DUP1 PUSH1 0xF SIGNEXTEND DUP2 EQ PUSH2 0xA11A JUMPI PUSH1 0x0 DUP1 REVERT JUMPDEST PUSH1 0x1 PUSH1 0x1 PUSH1 0x80 SHL SUB DUP2 AND DUP2 EQ PUSH2 0xA11A JUMPI PUSH1 0x0 DUP1 REVERT INVALID LOG2 PUSH5 0x6970667358 0x22 SLT KECCAK256 SWAP4 PUSH5 0xA271A21090 PUSH30 0x3CB43D81A3C2A73AD5A08E539EE16BA6DA74F8391A82E6FD64736F6C6343 STOP MOD 0xC STOP CALLER "
            }
        }
    },
    "sourceTreeHashHex": "0xd720dfe3255cf30d401ed8c2cd79b9967f8d3b8360e29e4b1a2a9122769702a7",
    "compiler": {
        "name": "solc",
        "version": "0.6.12+commit.27d51765",
        "settings": {
            "remappings": [
                "@0x/contracts-erc20=/Users/kim/Development/protocol/packages/asset-swapper/node_modules/@0x/contracts-erc20",
                "@0x/contracts-utils=/Users/kim/Development/protocol/packages/asset-swapper/node_modules/@0x/contracts-utils",
                "@0x/contracts-zero-ex=/Users/kim/Development/protocol/packages/asset-swapper/node_modules/@0x/contracts-zero-ex"
            ],
            "optimizer": {
                "enabled": true,
                "runs": 200,
                "details": {
                    "yul": true,
                    "deduplicate": true
                }
            },
            "outputSelection": {
                "*": {
                    "*": [
                        "abi",
                        "devdoc",
                        "evm.bytecode.object",
                        "evm.bytecode.sourceMap",
                        "evm.deployedBytecode.object",
                        "evm.deployedBytecode.sourceMap"
                    ]
                }
            },
            "evmVersion": "istanbul"
        }
    },
    "chains": {}
}