{
    "schemaVersion": "2.0.0",
    "contractName": "KyberSampler",
    "compilerOutput": {
        "abi": [
            {
                "constant": true,
                "inputs": [
                    {
                        "internalType": "address",
                        "name": "takerToken",
                        "type": "address"
                    },
                    {
                        "internalType": "address",
                        "name": "makerToken",
                        "type": "address"
                    },
                    {
                        "internalType": "uint256[]",
                        "name": "makerTokenAmounts",
                        "type": "uint256[]"
                    }
                ],
                "name": "sampleBuysFromKyberNetwork",
                "outputs": [
                    {
                        "internalType": "uint256[]",
                        "name": "takerTokenAmounts",
                        "type": "uint256[]"
                    }
                ],
                "payable": false,
                "stateMutability": "view",
                "type": "function"
            },
            {
                "constant": true,
                "inputs": [
                    {
                        "internalType": "address",
                        "name": "takerToken",
                        "type": "address"
                    },
                    {
                        "internalType": "address",
                        "name": "makerToken",
                        "type": "address"
                    },
                    {
                        "internalType": "uint256[]",
                        "name": "takerTokenAmounts",
                        "type": "uint256[]"
                    }
                ],
                "name": "sampleSellsFromKyberNetwork",
                "outputs": [
                    {
                        "internalType": "uint256[]",
                        "name": "makerTokenAmounts",
                        "type": "uint256[]"
                    }
                ],
                "payable": false,
                "stateMutability": "view",
                "type": "function"
            }
        ],
        "devdoc": {
            "methods": {
                "sampleBuysFromKyberNetwork(address,address,uint256[])": {
                    "details": "Sample buy quotes from Kyber.",
                    "params": {
                        "makerToken": "Address of the maker token (what to buy).",
                        "makerTokenAmounts": "Maker token buy amount for each sample.",
                        "takerToken": "Address of the taker token (what to sell)."
                    },
                    "return": "takerTokenAmounts Taker amounts sold at each maker token         amount."
                },
                "sampleSellsFromKyberNetwork(address,address,uint256[])": {
                    "details": "Sample sell quotes from Kyber.",
                    "params": {
                        "makerToken": "Address of the maker token (what to buy).",
                        "takerToken": "Address of the taker token (what to sell).",
                        "takerTokenAmounts": "Taker token sell amount for each sample."
                    },
                    "return": "makerTokenAmounts Maker amounts bought at each taker token         amount."
                }
            }
        },
        "evm": {
            "bytecode": {
                "linkReferences": {},
                "object": "0x608060405234801561001057600080fd5b50611977806100206000396000f3fe608060405234801561001057600080fd5b50600436106100365760003560e01c80630cc6600b1461003b5780634cb8e25314610064575b600080fd5b61004e610049366004611312565b610077565b60405161005b91906117ef565b60405180910390f35b61004e610072366004611312565b6100f1565b60606100838385610224565b6100e76040518060600160405280856040516020016100a2919061167d565b6040516020818303038152906040528152602001866040516020016100c7919061167d565b60405160208183030381529060405281526020016102978152508361040f565b90505b9392505050565b60606100fd8385610224565b8151604080518281526020808402820101909152818015610128578160200160208202803883390190505b50915060006101356105e5565b90506000805b83811015610219578273ffffffffffffffffffffffffffffffffffffffff168873ffffffffffffffffffffffffffffffffffffffff1614806101a857508273ffffffffffffffffffffffffffffffffffffffff168773ffffffffffffffffffffffffffffffffffffffff16145b156101d2576101cb88888884815181106101be57fe5b60200260200101516105fd565b91506101f9565b6101e388848884815181106101be57fe5b915081156101f9576101f68388846105fd565b91505b8185828151811061020657fe5b602090810291909101015260010161013b565b505050509392505050565b8073ffffffffffffffffffffffffffffffffffffffff168273ffffffffffffffffffffffffffffffffffffffff161415610293576040517f08c379a000000000000000000000000000000000000000000000000000000000815260040161028a90611831565b60405180910390fd5b5050565b60008060603073ffffffffffffffffffffffffffffffffffffffff16634cb8e25360e01b878060200190516102cf91908101906112f6565b878060200190516102e391908101906112f6565b6102ec88610e1d565b6040516024016102fe9392919061169e565b604080517fffffffffffffffffffffffffffffffffffffffffffffffffffffffffffffffe08184030181529181526020820180517bffffffffffffffffffffffffffffffffffffffffffffffffffffffff167fffffffff000000000000000000000000000000000000000000000000000000009094169390931790925290516103879190611661565b600060405180830381855afa9150503d80600081146103c2576040519150601f19603f3d011682016040523d82523d6000602084013e6103c7565b606091505b5091509150816103dc576000925050506100ea565b808060200190516103f091908101906114d1565b6000815181106103fc57fe5b6020026020010151925050509392505050565b6060815160405190808252806020026020018201604052801561043c578160200160208202803883390190505b50905081516000141561044e576105df565b600061047f846000015185602001518560008151811061046a57fe5b6020026020010151876040015163ffffffff16565b90508061048c57506105df565b60006104a98560200151866000015184886040015163ffffffff16565b9050806104b857506105df9050565b60005b84518110156105db5760005b600581101561059d576104ee8683815181106104df57fe5b60200260200101518486610e5e565b93506104ff613a9861271086610e5e565b9350600061051e88602001518960000151878b6040015163ffffffff16565b90508061052b575061059d565b80935086838151811061053a57fe5b6020026020010151841061059457600087848151811061055657fe5b602002602001015161271089868151811061056d57fe5b60200260200101518703028161057f57fe5b049050611388811161059257505061059d565b505b506001016104c7565b506105bc8582815181106105ad57fe5b60200260200101518385610e5e565b8482815181106105c857fe5b60209081029190910101526001016104bb565b5050505b92915050565b73c02aaa39b223fe8d0a0e5c4f27ead9083c756cc290565b600080600061060a610ea0565b9150915060608173ffffffffffffffffffffffffffffffffffffffff16633d3dc52c6106346105e5565b73ffffffffffffffffffffffffffffffffffffffff168973ffffffffffffffffffffffffffffffffffffffff161461066c578861066e565b875b6040518263ffffffff1660e01b815260040161068a919061167d565b60006040518083038186803b1580156106a257600080fd5b505afa1580156106b6573d6000803e3d6000fd5b505050506040513d6000823e601f3d9081017fffffffffffffffffffffffffffffffffffffffffffffffffffffffffffffffe01682016040526106fc91908101906114d1565b604080516000808252602082019092529192505b82518110156109b5576040517f106e9a4b00000000000000000000000000000000000000000000000000000000815273ffffffffffffffffffffffffffffffffffffffff85169063106e9a4b9061077f907331e085afd48a1d6e51cc193153d625e8f0514c7f9060040161167d565b60206040518083038186803b15801561079757600080fd5b505afa1580156107ab573d6000803e3d6000fd5b505050506040513d601f19601f820116820180604052506107cf9190810190611564565b8382815181106107db57fe5b602002602001015114806108b657506040517f106e9a4b00000000000000000000000000000000000000000000000000000000815273ffffffffffffffffffffffffffffffffffffffff85169063106e9a4b90610850907310908c875d865c66f271f5d3949848971c9595c99060040161167d565b60206040518083038186803b15801561086857600080fd5b505afa15801561087c573d6000803e3d6000fd5b505050506040513d601f19601f820116820180604052506108a09190810190611564565b8382815181106108ac57fe5b6020026020010151145b8061098857506040517f106e9a4b00000000000000000000000000000000000000000000000000000000815273ffffffffffffffffffffffffffffffffffffffff85169063106e9a4b9061092290731e158c0e93c30d24e918ef83d1e0be23595c3c0f9060040161167d565b60206040518083038186803b15801561093a57600080fd5b505afa15801561094e573d6000803e3d6000fd5b505050506040513d601f19601f820116820180604052506109729190810190611564565b83828151811061097e57fe5b6020026020010151145b156109ad576109aa8284838151811061099d57fe5b6020026020010151610fd4565b91505b600101610710565b5060606109c06105e5565b73ffffffffffffffffffffffffffffffffffffffff168973ffffffffffffffffffffffffffffffffffffffff161415610ad7578473ffffffffffffffffffffffffffffffffffffffff166381efcbdd896002856000604051908082528060200260200182016040528015610a3e578160200160208202803883390190505b506040518563ffffffff1660e01b8152600401610a5e949392919061176a565b60006040518083038186803b158015610a7657600080fd5b505afa158015610a8a573d6000803e3d6000fd5b505050506040513d6000823e601f3d9081017fffffffffffffffffffffffffffffffffffffffffffffffffffffffffffffffe0168201604052610ad0919081019061157c565b9050610bb7565b8473ffffffffffffffffffffffffffffffffffffffff166381efcbdd8a6002856000604051908082528060200260200182016040528015610b22578160200160208202803883390190505b506040518563ffffffff1660e01b8152600401610b42949392919061176a565b60006040518083038186803b158015610b5a57600080fd5b505afa158015610b6e573d6000803e3d6000fd5b505050506040513d6000823e601f3d9081017fffffffffffffffffffffffffffffffffffffffffffffffffffffffffffffffe0168201604052610bb4919081019061157c565b90505b60006060610bc361106a565b73ffffffffffffffffffffffffffffffffffffffff166216e3607f418436bc00000000000000000000000000000000000000000000000000000000610c066105e5565b73ffffffffffffffffffffffffffffffffffffffff168e73ffffffffffffffffffffffffffffffffffffffff1614610c3e578d610c54565b73eeeeeeeeeeeeeeeeeeeeeeeeeeeeeeeeeeeeeeee5b610c5c6105e5565b73ffffffffffffffffffffffffffffffffffffffff168e73ffffffffffffffffffffffffffffffffffffffff1614610c94578d610caa565b73eeeeeeeeeeeeeeeeeeeeeeeeeeeeeeeeeeeeeeee5b8d600089604051602401610cc29594939291906116e0565b604080517fffffffffffffffffffffffffffffffffffffffffffffffffffffffffffffffe08184030181529181526020820180517bffffffffffffffffffffffffffffffffffffffffffffffffffffffff167fffffffff00000000000000000000000000000000000000000000000000000000909416939093179092529051610d4b9190611661565b6000604051808303818686fa925050503d8060008114610d87576040519150601f19603f3d011682016040523d82523d6000602084013e610d8c565b606091505b50909250905060008215610db55781806020019051610dae9190810190611564565b9050610dc6565b6000985050505050505050506100ea565b6000610dd18c611082565b60ff1690506000610de18e611082565b60ff169050670de0b6b3a764000081600a0a83600a0a8e86020281610e0257fe5b0481610e0a57fe5b049e9d5050505050505050505050505050565b604080516001808252818301909252606091602080830190803883390190505090508181600081518110610e4d57fe5b602002602001018181525050919050565b60006100e783610e94610e7882600163ffffffff61108d16565b610e88888763ffffffff6110b116565b9063ffffffff6110e216565b9063ffffffff6110fe16565b600080610eab61106a565b73ffffffffffffffffffffffffffffffffffffffff1663b78b842d6040518163ffffffff1660e01b815260040160206040518083038186803b158015610ef057600080fd5b505afa158015610f04573d6000803e3d6000fd5b505050506040513d601f19601f82011682018060405250610f2891908101906112f6565b73ffffffffffffffffffffffffffffffffffffffff1663c3a2a93a6040518163ffffffff1660e01b815260040160006040518083038186803b158015610f6d57600080fd5b505afa158015610f81573d6000803e3d6000fd5b505050506040513d6000823e601f3d9081017fffffffffffffffffffffffffffffffffffffffffffffffffffffffffffffffe0168201604052610fc791908101906113d1565b5091955093505050509091565b60608251600101604051908082528060200260200182016040528015611004578160200160208202803883390190505b50905060005b83518110156110465783818151811061101f57fe5b602002602001015182828151811061103357fe5b602090810291909101015260010161100a565b50818160018351038151811061105857fe5b60200260200101818152505092915050565b739aab3f75489902f3a48495025729a0af77d4b11e90565b60006105df82611128565b6000828211156110ab576110ab6110a6600285856111f9565b61129e565b50900390565b6000826110c0575060006105df565b828202828482816110cd57fe5b04146100ea576100ea6110a6600186866111f9565b6000828201838110156100ea576100ea6110a6600086866111f9565b600081611114576111146110a6600385856111f9565b600082848161111f57fe5b04949350505050565b600060129050600060608373ffffffffffffffffffffffffffffffffffffffff166040518060400160405280600481526020017f313ce5670000000000000000000000000000000000000000000000000000000081525060405161118c9190611661565b600060405180830381855afa9150503d80600081146111c7576040519150601f19603f3d011682016040523d82523d6000602084013e6111cc565b606091505b50915091508180156111df575080516020145b156111f2576111ef8160006112a6565b92505b5050919050565b606063e946c1bb60e01b84848460405160240161121893929190611802565b604080517fffffffffffffffffffffffffffffffffffffffffffffffffffffffffffffffe08184030181529190526020810180517bffffffffffffffffffffffffffffffffffffffffffffffffffffffff167fffffffff000000000000000000000000000000000000000000000000000000009093169290921790915290509392505050565b805160208201fd5b60006100ea8383600081602001835110156112ce576112ce6110a660058551856020016112d7565b50016020015190565b6060632800659560e01b84848460405160240161121893929190611823565b600060208284031215611307578081fd5b81516100ea81611912565b600080600060608486031215611326578182fd5b833561133181611912565b925060208481013561134281611912565b9250604085013567ffffffffffffffff81111561135d578283fd5b80860187601f82011261136e578384fd5b8035915061138361137e836118b5565b61188e565b82815283810190828501858502840186018b101561139f578687fd5b8693505b848410156113c15780358352600193909301929185019185016113a3565b5080955050505050509250925092565b60008060008060008060c087890312156113e9578182fd5b86516113f481611912565b8096505060208088015161140781611912565b604089015190965061141881611912565b606089015190955061142981611912565b608089015190945061143a81611912565b60a089015190935067ffffffffffffffff811115611456578283fd5b8089018a601f820112611467578384fd5b8051915061147761137e836118b5565b82815283810190828501858502840186018e1015611493578687fd5b8693505b848410156114be5780516114aa81611912565b835260019390930192918501918501611497565b5080955050505050509295509295509295565b600060208083850312156114e3578182fd5b825167ffffffffffffffff8111156114f9578283fd5b80840185601f82011261150a578384fd5b8051915061151a61137e836118b5565b8281528381019082850185850284018601891015611536578687fd5b8693505b8484101561155857805183526001939093019291850191850161153a565b50979650505050505050565b600060208284031215611575578081fd5b5051919050565b60006020828403121561158d578081fd5b815167ffffffffffffffff808211156115a4578283fd5b81840185601f8201126115b5578384fd5b80519250818311156115c5578384fd5b6115f660207fffffffffffffffffffffffffffffffffffffffffffffffffffffffffffffffe0601f8601160161188e565b915082825285602084830101111561160c578384fd5b61161d8360208401602084016118d5565b50949350505050565b6000815180845260208401935060208301825b82811015611657578151865260209586019590910190600101611639565b5093949350505050565b600082516116738184602087016118d5565b9190910192915050565b73ffffffffffffffffffffffffffffffffffffffff91909116815260200190565b600073ffffffffffffffffffffffffffffffffffffffff8086168352808516602084015250606060408301526116d76060830184611626565b95945050505050565b600073ffffffffffffffffffffffffffffffffffffffff808816835280871660208401525084604083015260ff8416606083015260a0608083015282518060a08401526117348160c08501602087016118d5565b601f017fffffffffffffffffffffffffffffffffffffffffffffffffffffffffffffffe0169190910160c0019695505050505050565b60006080820173ffffffffffffffffffffffffffffffffffffffff8716835261179286611905565b60208381018790526080604085015285519182905285019060a0840190835b818110156117cf5783518352602093840193909201916001016117b1565b505083810360608501526117e38186611626565b98975050505050505050565b6000602082526100ea6020830184611626565b6060810161180f85611905565b938152602081019290925260409091015290565b606081016008851061180f57fe5b60208082526025908201527f455243323042726964676553616d706c65722f494e56414c49445f544f4b454e60408201527f5f50414952000000000000000000000000000000000000000000000000000000606082015260800190565b60405181810167ffffffffffffffff811182821017156118ad57600080fd5b604052919050565b600067ffffffffffffffff8211156118cb578081fd5b5060209081020190565b60005b838110156118f05781810151838201526020016118d8565b838111156118ff576000848401525b50505050565b6004811061190f57fe5b50565b73ffffffffffffffffffffffffffffffffffffffff8116811461190f57600080fdfea365627a7a7231582008b6b0475ac7242a0ab18d2cbb696168c9289d31c53abc78900f74e94aaffd216c6578706572696d656e74616cf564736f6c63430005110040",
                "opcodes": "PUSH1 0x80 PUSH1 0x40 MSTORE CALLVALUE DUP1 ISZERO PUSH2 0x10 JUMPI PUSH1 0x0 DUP1 REVERT JUMPDEST POP PUSH2 0x1977 DUP1 PUSH2 0x20 PUSH1 0x0 CODECOPY PUSH1 0x0 RETURN INVALID PUSH1 0x80 PUSH1 0x40 MSTORE CALLVALUE DUP1 ISZERO PUSH2 0x10 JUMPI PUSH1 0x0 DUP1 REVERT JUMPDEST POP PUSH1 0x4 CALLDATASIZE LT PUSH2 0x36 JUMPI PUSH1 0x0 CALLDATALOAD PUSH1 0xE0 SHR DUP1 PUSH4 0xCC6600B EQ PUSH2 0x3B JUMPI DUP1 PUSH4 0x4CB8E253 EQ PUSH2 0x64 JUMPI JUMPDEST PUSH1 0x0 DUP1 REVERT JUMPDEST PUSH2 0x4E PUSH2 0x49 CALLDATASIZE PUSH1 0x4 PUSH2 0x1312 JUMP JUMPDEST PUSH2 0x77 JUMP JUMPDEST PUSH1 0x40 MLOAD PUSH2 0x5B SWAP2 SWAP1 PUSH2 0x17EF JUMP JUMPDEST PUSH1 0x40 MLOAD DUP1 SWAP2 SUB SWAP1 RETURN JUMPDEST PUSH2 0x4E PUSH2 0x72 CALLDATASIZE PUSH1 0x4 PUSH2 0x1312 JUMP JUMPDEST PUSH2 0xF1 JUMP JUMPDEST PUSH1 0x60 PUSH2 0x83 DUP4 DUP6 PUSH2 0x224 JUMP JUMPDEST PUSH2 0xE7 PUSH1 0x40 MLOAD DUP1 PUSH1 0x60 ADD PUSH1 0x40 MSTORE DUP1 DUP6 PUSH1 0x40 MLOAD PUSH1 0x20 ADD PUSH2 0xA2 SWAP2 SWAP1 PUSH2 0x167D JUMP JUMPDEST PUSH1 0x40 MLOAD PUSH1 0x20 DUP2 DUP4 SUB SUB DUP2 MSTORE SWAP1 PUSH1 0x40 MSTORE DUP2 MSTORE PUSH1 0x20 ADD DUP7 PUSH1 0x40 MLOAD PUSH1 0x20 ADD PUSH2 0xC7 SWAP2 SWAP1 PUSH2 0x167D JUMP JUMPDEST PUSH1 0x40 MLOAD PUSH1 0x20 DUP2 DUP4 SUB SUB DUP2 MSTORE SWAP1 PUSH1 0x40 MSTORE DUP2 MSTORE PUSH1 0x20 ADD PUSH2 0x297 DUP2 MSTORE POP DUP4 PUSH2 0x40F JUMP JUMPDEST SWAP1 POP JUMPDEST SWAP4 SWAP3 POP POP POP JUMP JUMPDEST PUSH1 0x60 PUSH2 0xFD DUP4 DUP6 PUSH2 0x224 JUMP JUMPDEST DUP2 MLOAD PUSH1 0x40 DUP1 MLOAD DUP3 DUP2 MSTORE PUSH1 0x20 DUP1 DUP5 MUL DUP3 ADD ADD SWAP1 SWAP2 MSTORE DUP2 DUP1 ISZERO PUSH2 0x128 JUMPI DUP2 PUSH1 0x20 ADD PUSH1 0x20 DUP3 MUL DUP1 CODESIZE DUP4 CODECOPY ADD SWAP1 POP JUMPDEST POP SWAP2 POP PUSH1 0x0 PUSH2 0x135 PUSH2 0x5E5 JUMP JUMPDEST SWAP1 POP PUSH1 0x0 DUP1 JUMPDEST DUP4 DUP2 LT ISZERO PUSH2 0x219 JUMPI DUP3 PUSH20 0xFFFFFFFFFFFFFFFFFFFFFFFFFFFFFFFFFFFFFFFF AND DUP9 PUSH20 0xFFFFFFFFFFFFFFFFFFFFFFFFFFFFFFFFFFFFFFFF AND EQ DUP1 PUSH2 0x1A8 JUMPI POP DUP3 PUSH20 0xFFFFFFFFFFFFFFFFFFFFFFFFFFFFFFFFFFFFFFFF AND DUP8 PUSH20 0xFFFFFFFFFFFFFFFFFFFFFFFFFFFFFFFFFFFFFFFF AND EQ JUMPDEST ISZERO PUSH2 0x1D2 JUMPI PUSH2 0x1CB DUP9 DUP9 DUP9 DUP5 DUP2 MLOAD DUP2 LT PUSH2 0x1BE JUMPI INVALID JUMPDEST PUSH1 0x20 MUL PUSH1 0x20 ADD ADD MLOAD PUSH2 0x5FD JUMP JUMPDEST SWAP2 POP PUSH2 0x1F9 JUMP JUMPDEST PUSH2 0x1E3 DUP9 DUP5 DUP9 DUP5 DUP2 MLOAD DUP2 LT PUSH2 0x1BE JUMPI INVALID JUMPDEST SWAP2 POP DUP2 ISZERO PUSH2 0x1F9 JUMPI PUSH2 0x1F6 DUP4 DUP9 DUP5 PUSH2 0x5FD JUMP JUMPDEST SWAP2 POP JUMPDEST DUP2 DUP6 DUP3 DUP2 MLOAD DUP2 LT PUSH2 0x206 JUMPI INVALID JUMPDEST PUSH1 0x20 SWAP1 DUP2 MUL SWAP2 SWAP1 SWAP2 ADD ADD MSTORE PUSH1 0x1 ADD PUSH2 0x13B JUMP JUMPDEST POP POP POP POP SWAP4 SWAP3 POP POP POP JUMP JUMPDEST DUP1 PUSH20 0xFFFFFFFFFFFFFFFFFFFFFFFFFFFFFFFFFFFFFFFF AND DUP3 PUSH20 0xFFFFFFFFFFFFFFFFFFFFFFFFFFFFFFFFFFFFFFFF AND EQ ISZERO PUSH2 0x293 JUMPI PUSH1 0x40 MLOAD PUSH32 0x8C379A000000000000000000000000000000000000000000000000000000000 DUP2 MSTORE PUSH1 0x4 ADD PUSH2 0x28A SWAP1 PUSH2 0x1831 JUMP JUMPDEST PUSH1 0x40 MLOAD DUP1 SWAP2 SUB SWAP1 REVERT JUMPDEST POP POP JUMP JUMPDEST PUSH1 0x0 DUP1 PUSH1 0x60 ADDRESS PUSH20 0xFFFFFFFFFFFFFFFFFFFFFFFFFFFFFFFFFFFFFFFF AND PUSH4 0x4CB8E253 PUSH1 0xE0 SHL DUP8 DUP1 PUSH1 0x20 ADD SWAP1 MLOAD PUSH2 0x2CF SWAP2 SWAP1 DUP2 ADD SWAP1 PUSH2 0x12F6 JUMP JUMPDEST DUP8 DUP1 PUSH1 0x20 ADD SWAP1 MLOAD PUSH2 0x2E3 SWAP2 SWAP1 DUP2 ADD SWAP1 PUSH2 0x12F6 JUMP JUMPDEST PUSH2 0x2EC DUP9 PUSH2 0xE1D JUMP JUMPDEST PUSH1 0x40 MLOAD PUSH1 0x24 ADD PUSH2 0x2FE SWAP4 SWAP3 SWAP2 SWAP1 PUSH2 0x169E JUMP JUMPDEST PUSH1 0x40 DUP1 MLOAD PUSH32 0xFFFFFFFFFFFFFFFFFFFFFFFFFFFFFFFFFFFFFFFFFFFFFFFFFFFFFFFFFFFFFFE0 DUP2 DUP5 SUB ADD DUP2 MSTORE SWAP2 DUP2 MSTORE PUSH1 0x20 DUP3 ADD DUP1 MLOAD PUSH28 0xFFFFFFFFFFFFFFFFFFFFFFFFFFFFFFFFFFFFFFFFFFFFFFFFFFFFFFFF AND PUSH32 0xFFFFFFFF00000000000000000000000000000000000000000000000000000000 SWAP1 SWAP5 AND SWAP4 SWAP1 SWAP4 OR SWAP1 SWAP3 MSTORE SWAP1 MLOAD PUSH2 0x387 SWAP2 SWAP1 PUSH2 0x1661 JUMP JUMPDEST PUSH1 0x0 PUSH1 0x40 MLOAD DUP1 DUP4 SUB DUP2 DUP6 GAS STATICCALL SWAP2 POP POP RETURNDATASIZE DUP1 PUSH1 0x0 DUP2 EQ PUSH2 0x3C2 JUMPI PUSH1 0x40 MLOAD SWAP2 POP PUSH1 0x1F NOT PUSH1 0x3F RETURNDATASIZE ADD AND DUP3 ADD PUSH1 0x40 MSTORE RETURNDATASIZE DUP3 MSTORE RETURNDATASIZE PUSH1 0x0 PUSH1 0x20 DUP5 ADD RETURNDATACOPY PUSH2 0x3C7 JUMP JUMPDEST PUSH1 0x60 SWAP2 POP JUMPDEST POP SWAP2 POP SWAP2 POP DUP2 PUSH2 0x3DC JUMPI PUSH1 0x0 SWAP3 POP POP POP PUSH2 0xEA JUMP JUMPDEST DUP1 DUP1 PUSH1 0x20 ADD SWAP1 MLOAD PUSH2 0x3F0 SWAP2 SWAP1 DUP2 ADD SWAP1 PUSH2 0x14D1 JUMP JUMPDEST PUSH1 0x0 DUP2 MLOAD DUP2 LT PUSH2 0x3FC JUMPI INVALID JUMPDEST PUSH1 0x20 MUL PUSH1 0x20 ADD ADD MLOAD SWAP3 POP POP POP SWAP4 SWAP3 POP POP POP JUMP JUMPDEST PUSH1 0x60 DUP2 MLOAD PUSH1 0x40 MLOAD SWAP1 DUP1 DUP3 MSTORE DUP1 PUSH1 0x20 MUL PUSH1 0x20 ADD DUP3 ADD PUSH1 0x40 MSTORE DUP1 ISZERO PUSH2 0x43C JUMPI DUP2 PUSH1 0x20 ADD PUSH1 0x20 DUP3 MUL DUP1 CODESIZE DUP4 CODECOPY ADD SWAP1 POP JUMPDEST POP SWAP1 POP DUP2 MLOAD PUSH1 0x0 EQ ISZERO PUSH2 0x44E JUMPI PUSH2 0x5DF JUMP JUMPDEST PUSH1 0x0 PUSH2 0x47F DUP5 PUSH1 0x0 ADD MLOAD DUP6 PUSH1 0x20 ADD MLOAD DUP6 PUSH1 0x0 DUP2 MLOAD DUP2 LT PUSH2 0x46A JUMPI INVALID JUMPDEST PUSH1 0x20 MUL PUSH1 0x20 ADD ADD MLOAD DUP8 PUSH1 0x40 ADD MLOAD PUSH4 0xFFFFFFFF AND JUMP JUMPDEST SWAP1 POP DUP1 PUSH2 0x48C JUMPI POP PUSH2 0x5DF JUMP JUMPDEST PUSH1 0x0 PUSH2 0x4A9 DUP6 PUSH1 0x20 ADD MLOAD DUP7 PUSH1 0x0 ADD MLOAD DUP5 DUP9 PUSH1 0x40 ADD MLOAD PUSH4 0xFFFFFFFF AND JUMP JUMPDEST SWAP1 POP DUP1 PUSH2 0x4B8 JUMPI POP PUSH2 0x5DF SWAP1 POP JUMP JUMPDEST PUSH1 0x0 JUMPDEST DUP5 MLOAD DUP2 LT ISZERO PUSH2 0x5DB JUMPI PUSH1 0x0 JUMPDEST PUSH1 0x5 DUP2 LT ISZERO PUSH2 0x59D JUMPI PUSH2 0x4EE DUP7 DUP4 DUP2 MLOAD DUP2 LT PUSH2 0x4DF JUMPI INVALID JUMPDEST PUSH1 0x20 MUL PUSH1 0x20 ADD ADD MLOAD DUP5 DUP7 PUSH2 0xE5E JUMP JUMPDEST SWAP4 POP PUSH2 0x4FF PUSH2 0x3A98 PUSH2 0x2710 DUP7 PUSH2 0xE5E JUMP JUMPDEST SWAP4 POP PUSH1 0x0 PUSH2 0x51E DUP9 PUSH1 0x20 ADD MLOAD DUP10 PUSH1 0x0 ADD MLOAD DUP8 DUP12 PUSH1 0x40 ADD MLOAD PUSH4 0xFFFFFFFF AND JUMP JUMPDEST SWAP1 POP DUP1 PUSH2 0x52B JUMPI POP PUSH2 0x59D JUMP JUMPDEST DUP1 SWAP4 POP DUP7 DUP4 DUP2 MLOAD DUP2 LT PUSH2 0x53A JUMPI INVALID JUMPDEST PUSH1 0x20 MUL PUSH1 0x20 ADD ADD MLOAD DUP5 LT PUSH2 0x594 JUMPI PUSH1 0x0 DUP8 DUP5 DUP2 MLOAD DUP2 LT PUSH2 0x556 JUMPI INVALID JUMPDEST PUSH1 0x20 MUL PUSH1 0x20 ADD ADD MLOAD PUSH2 0x2710 DUP10 DUP7 DUP2 MLOAD DUP2 LT PUSH2 0x56D JUMPI INVALID JUMPDEST PUSH1 0x20 MUL PUSH1 0x20 ADD ADD MLOAD DUP8 SUB MUL DUP2 PUSH2 0x57F JUMPI INVALID JUMPDEST DIV SWAP1 POP PUSH2 0x1388 DUP2 GT PUSH2 0x592 JUMPI POP POP PUSH2 0x59D JUMP JUMPDEST POP JUMPDEST POP PUSH1 0x1 ADD PUSH2 0x4C7 JUMP JUMPDEST POP PUSH2 0x5BC DUP6 DUP3 DUP2 MLOAD DUP2 LT PUSH2 0x5AD JUMPI INVALID JUMPDEST PUSH1 0x20 MUL PUSH1 0x20 ADD ADD MLOAD DUP4 DUP6 PUSH2 0xE5E JUMP JUMPDEST DUP5 DUP3 DUP2 MLOAD DUP2 LT PUSH2 0x5C8 JUMPI INVALID JUMPDEST PUSH1 0x20 SWAP1 DUP2 MUL SWAP2 SWAP1 SWAP2 ADD ADD MSTORE PUSH1 0x1 ADD PUSH2 0x4BB JUMP JUMPDEST POP POP POP JUMPDEST SWAP3 SWAP2 POP POP JUMP JUMPDEST PUSH20 0xC02AAA39B223FE8D0A0E5C4F27EAD9083C756CC2 SWAP1 JUMP JUMPDEST PUSH1 0x0 DUP1 PUSH1 0x0 PUSH2 0x60A PUSH2 0xEA0 JUMP JUMPDEST SWAP2 POP SWAP2 POP PUSH1 0x60 DUP2 PUSH20 0xFFFFFFFFFFFFFFFFFFFFFFFFFFFFFFFFFFFFFFFF AND PUSH4 0x3D3DC52C PUSH2 0x634 PUSH2 0x5E5 JUMP JUMPDEST PUSH20 0xFFFFFFFFFFFFFFFFFFFFFFFFFFFFFFFFFFFFFFFF AND DUP10 PUSH20 0xFFFFFFFFFFFFFFFFFFFFFFFFFFFFFFFFFFFFFFFF AND EQ PUSH2 0x66C JUMPI DUP9 PUSH2 0x66E JUMP JUMPDEST DUP8 JUMPDEST PUSH1 0x40 MLOAD DUP3 PUSH4 0xFFFFFFFF AND PUSH1 0xE0 SHL DUP2 MSTORE PUSH1 0x4 ADD PUSH2 0x68A SWAP2 SWAP1 PUSH2 0x167D JUMP JUMPDEST PUSH1 0x0 PUSH1 0x40 MLOAD DUP1 DUP4 SUB DUP2 DUP7 DUP1 EXTCODESIZE ISZERO DUP1 ISZERO PUSH2 0x6A2 JUMPI PUSH1 0x0 DUP1 REVERT JUMPDEST POP GAS STATICCALL ISZERO DUP1 ISZERO PUSH2 0x6B6 JUMPI RETURNDATASIZE PUSH1 0x0 DUP1 RETURNDATACOPY RETURNDATASIZE PUSH1 0x0 REVERT JUMPDEST POP POP POP POP PUSH1 0x40 MLOAD RETURNDATASIZE PUSH1 0x0 DUP3 RETURNDATACOPY PUSH1 0x1F RETURNDATASIZE SWAP1 DUP2 ADD PUSH32 0xFFFFFFFFFFFFFFFFFFFFFFFFFFFFFFFFFFFFFFFFFFFFFFFFFFFFFFFFFFFFFFE0 AND DUP3 ADD PUSH1 0x40 MSTORE PUSH2 0x6FC SWAP2 SWAP1 DUP2 ADD SWAP1 PUSH2 0x14D1 JUMP JUMPDEST PUSH1 0x40 DUP1 MLOAD PUSH1 0x0 DUP1 DUP3 MSTORE PUSH1 0x20 DUP3 ADD SWAP1 SWAP3 MSTORE SWAP2 SWAP3 POP JUMPDEST DUP3 MLOAD DUP2 LT ISZERO PUSH2 0x9B5 JUMPI PUSH1 0x40 MLOAD PUSH32 0x106E9A4B00000000000000000000000000000000000000000000000000000000 DUP2 MSTORE PUSH20 0xFFFFFFFFFFFFFFFFFFFFFFFFFFFFFFFFFFFFFFFF DUP6 AND SWAP1 PUSH4 0x106E9A4B SWAP1 PUSH2 0x77F SWAP1 PUSH20 0x31E085AFD48A1D6E51CC193153D625E8F0514C7F SWAP1 PUSH1 0x4 ADD PUSH2 0x167D JUMP JUMPDEST PUSH1 0x20 PUSH1 0x40 MLOAD DUP1 DUP4 SUB DUP2 DUP7 DUP1 EXTCODESIZE ISZERO DUP1 ISZERO PUSH2 0x797 JUMPI PUSH1 0x0 DUP1 REVERT JUMPDEST POP GAS STATICCALL ISZERO DUP1 ISZERO PUSH2 0x7AB JUMPI RETURNDATASIZE PUSH1 0x0 DUP1 RETURNDATACOPY RETURNDATASIZE PUSH1 0x0 REVERT JUMPDEST POP POP POP POP PUSH1 0x40 MLOAD RETURNDATASIZE PUSH1 0x1F NOT PUSH1 0x1F DUP3 ADD AND DUP3 ADD DUP1 PUSH1 0x40 MSTORE POP PUSH2 0x7CF SWAP2 SWAP1 DUP2 ADD SWAP1 PUSH2 0x1564 JUMP JUMPDEST DUP4 DUP3 DUP2 MLOAD DUP2 LT PUSH2 0x7DB JUMPI INVALID JUMPDEST PUSH1 0x20 MUL PUSH1 0x20 ADD ADD MLOAD EQ DUP1 PUSH2 0x8B6 JUMPI POP PUSH1 0x40 MLOAD PUSH32 0x106E9A4B00000000000000000000000000000000000000000000000000000000 DUP2 MSTORE PUSH20 0xFFFFFFFFFFFFFFFFFFFFFFFFFFFFFFFFFFFFFFFF DUP6 AND SWAP1 PUSH4 0x106E9A4B SWAP1 PUSH2 0x850 SWAP1 PUSH20 0x10908C875D865C66F271F5D3949848971C9595C9 SWAP1 PUSH1 0x4 ADD PUSH2 0x167D JUMP JUMPDEST PUSH1 0x20 PUSH1 0x40 MLOAD DUP1 DUP4 SUB DUP2 DUP7 DUP1 EXTCODESIZE ISZERO DUP1 ISZERO PUSH2 0x868 JUMPI PUSH1 0x0 DUP1 REVERT JUMPDEST POP GAS STATICCALL ISZERO DUP1 ISZERO PUSH2 0x87C JUMPI RETURNDATASIZE PUSH1 0x0 DUP1 RETURNDATACOPY RETURNDATASIZE PUSH1 0x0 REVERT JUMPDEST POP POP POP POP PUSH1 0x40 MLOAD RETURNDATASIZE PUSH1 0x1F NOT PUSH1 0x1F DUP3 ADD AND DUP3 ADD DUP1 PUSH1 0x40 MSTORE POP PUSH2 0x8A0 SWAP2 SWAP1 DUP2 ADD SWAP1 PUSH2 0x1564 JUMP JUMPDEST DUP4 DUP3 DUP2 MLOAD DUP2 LT PUSH2 0x8AC JUMPI INVALID JUMPDEST PUSH1 0x20 MUL PUSH1 0x20 ADD ADD MLOAD EQ JUMPDEST DUP1 PUSH2 0x988 JUMPI POP PUSH1 0x40 MLOAD PUSH32 0x106E9A4B00000000000000000000000000000000000000000000000000000000 DUP2 MSTORE PUSH20 0xFFFFFFFFFFFFFFFFFFFFFFFFFFFFFFFFFFFFFFFF DUP6 AND SWAP1 PUSH4 0x106E9A4B SWAP1 PUSH2 0x922 SWAP1 PUSH20 0x1E158C0E93C30D24E918EF83D1E0BE23595C3C0F SWAP1 PUSH1 0x4 ADD PUSH2 0x167D JUMP JUMPDEST PUSH1 0x20 PUSH1 0x40 MLOAD DUP1 DUP4 SUB DUP2 DUP7 DUP1 EXTCODESIZE ISZERO DUP1 ISZERO PUSH2 0x93A JUMPI PUSH1 0x0 DUP1 REVERT JUMPDEST POP GAS STATICCALL ISZERO DUP1 ISZERO PUSH2 0x94E JUMPI RETURNDATASIZE PUSH1 0x0 DUP1 RETURNDATACOPY RETURNDATASIZE PUSH1 0x0 REVERT JUMPDEST POP POP POP POP PUSH1 0x40 MLOAD RETURNDATASIZE PUSH1 0x1F NOT PUSH1 0x1F DUP3 ADD AND DUP3 ADD DUP1 PUSH1 0x40 MSTORE POP PUSH2 0x972 SWAP2 SWAP1 DUP2 ADD SWAP1 PUSH2 0x1564 JUMP JUMPDEST DUP4 DUP3 DUP2 MLOAD DUP2 LT PUSH2 0x97E JUMPI INVALID JUMPDEST PUSH1 0x20 MUL PUSH1 0x20 ADD ADD MLOAD EQ JUMPDEST ISZERO PUSH2 0x9AD JUMPI PUSH2 0x9AA DUP3 DUP5 DUP4 DUP2 MLOAD DUP2 LT PUSH2 0x99D JUMPI INVALID JUMPDEST PUSH1 0x20 MUL PUSH1 0x20 ADD ADD MLOAD PUSH2 0xFD4 JUMP JUMPDEST SWAP2 POP JUMPDEST PUSH1 0x1 ADD PUSH2 0x710 JUMP JUMPDEST POP PUSH1 0x60 PUSH2 0x9C0 PUSH2 0x5E5 JUMP JUMPDEST PUSH20 0xFFFFFFFFFFFFFFFFFFFFFFFFFFFFFFFFFFFFFFFF AND DUP10 PUSH20 0xFFFFFFFFFFFFFFFFFFFFFFFFFFFFFFFFFFFFFFFF AND EQ ISZERO PUSH2 0xAD7 JUMPI DUP5 PUSH20 0xFFFFFFFFFFFFFFFFFFFFFFFFFFFFFFFFFFFFFFFF AND PUSH4 0x81EFCBDD DUP10 PUSH1 0x2 DUP6 PUSH1 0x0 PUSH1 0x40 MLOAD SWAP1 DUP1 DUP3 MSTORE DUP1 PUSH1 0x20 MUL PUSH1 0x20 ADD DUP3 ADD PUSH1 0x40 MSTORE DUP1 ISZERO PUSH2 0xA3E JUMPI DUP2 PUSH1 0x20 ADD PUSH1 0x20 DUP3 MUL DUP1 CODESIZE DUP4 CODECOPY ADD SWAP1 POP JUMPDEST POP PUSH1 0x40 MLOAD DUP6 PUSH4 0xFFFFFFFF AND PUSH1 0xE0 SHL DUP2 MSTORE PUSH1 0x4 ADD PUSH2 0xA5E SWAP5 SWAP4 SWAP3 SWAP2 SWAP1 PUSH2 0x176A JUMP JUMPDEST PUSH1 0x0 PUSH1 0x40 MLOAD DUP1 DUP4 SUB DUP2 DUP7 DUP1 EXTCODESIZE ISZERO DUP1 ISZERO PUSH2 0xA76 JUMPI PUSH1 0x0 DUP1 REVERT JUMPDEST POP GAS STATICCALL ISZERO DUP1 ISZERO PUSH2 0xA8A JUMPI RETURNDATASIZE PUSH1 0x0 DUP1 RETURNDATACOPY RETURNDATASIZE PUSH1 0x0 REVERT JUMPDEST POP POP POP POP PUSH1 0x40 MLOAD RETURNDATASIZE PUSH1 0x0 DUP3 RETURNDATACOPY PUSH1 0x1F RETURNDATASIZE SWAP1 DUP2 ADD PUSH32 0xFFFFFFFFFFFFFFFFFFFFFFFFFFFFFFFFFFFFFFFFFFFFFFFFFFFFFFFFFFFFFFE0 AND DUP3 ADD PUSH1 0x40 MSTORE PUSH2 0xAD0 SWAP2 SWAP1 DUP2 ADD SWAP1 PUSH2 0x157C JUMP JUMPDEST SWAP1 POP PUSH2 0xBB7 JUMP JUMPDEST DUP5 PUSH20 0xFFFFFFFFFFFFFFFFFFFFFFFFFFFFFFFFFFFFFFFF AND PUSH4 0x81EFCBDD DUP11 PUSH1 0x2 DUP6 PUSH1 0x0 PUSH1 0x40 MLOAD SWAP1 DUP1 DUP3 MSTORE DUP1 PUSH1 0x20 MUL PUSH1 0x20 ADD DUP3 ADD PUSH1 0x40 MSTORE DUP1 ISZERO PUSH2 0xB22 JUMPI DUP2 PUSH1 0x20 ADD PUSH1 0x20 DUP3 MUL DUP1 CODESIZE DUP4 CODECOPY ADD SWAP1 POP JUMPDEST POP PUSH1 0x40 MLOAD DUP6 PUSH4 0xFFFFFFFF AND PUSH1 0xE0 SHL DUP2 MSTORE PUSH1 0x4 ADD PUSH2 0xB42 SWAP5 SWAP4 SWAP3 SWAP2 SWAP1 PUSH2 0x176A JUMP JUMPDEST PUSH1 0x0 PUSH1 0x40 MLOAD DUP1 DUP4 SUB DUP2 DUP7 DUP1 EXTCODESIZE ISZERO DUP1 ISZERO PUSH2 0xB5A JUMPI PUSH1 0x0 DUP1 REVERT JUMPDEST POP GAS STATICCALL ISZERO DUP1 ISZERO PUSH2 0xB6E JUMPI RETURNDATASIZE PUSH1 0x0 DUP1 RETURNDATACOPY RETURNDATASIZE PUSH1 0x0 REVERT JUMPDEST POP POP POP POP PUSH1 0x40 MLOAD RETURNDATASIZE PUSH1 0x0 DUP3 RETURNDATACOPY PUSH1 0x1F RETURNDATASIZE SWAP1 DUP2 ADD PUSH32 0xFFFFFFFFFFFFFFFFFFFFFFFFFFFFFFFFFFFFFFFFFFFFFFFFFFFFFFFFFFFFFFE0 AND DUP3 ADD PUSH1 0x40 MSTORE PUSH2 0xBB4 SWAP2 SWAP1 DUP2 ADD SWAP1 PUSH2 0x157C JUMP JUMPDEST SWAP1 POP JUMPDEST PUSH1 0x0 PUSH1 0x60 PUSH2 0xBC3 PUSH2 0x106A JUMP JUMPDEST PUSH20 0xFFFFFFFFFFFFFFFFFFFFFFFFFFFFFFFFFFFFFFFF AND PUSH3 0x16E360 PUSH32 0x418436BC00000000000000000000000000000000000000000000000000000000 PUSH2 0xC06 PUSH2 0x5E5 JUMP JUMPDEST PUSH20 0xFFFFFFFFFFFFFFFFFFFFFFFFFFFFFFFFFFFFFFFF AND DUP15 PUSH20 0xFFFFFFFFFFFFFFFFFFFFFFFFFFFFFFFFFFFFFFFF AND EQ PUSH2 0xC3E JUMPI DUP14 PUSH2 0xC54 JUMP JUMPDEST PUSH20 0xEEEEEEEEEEEEEEEEEEEEEEEEEEEEEEEEEEEEEEEE JUMPDEST PUSH2 0xC5C PUSH2 0x5E5 JUMP JUMPDEST PUSH20 0xFFFFFFFFFFFFFFFFFFFFFFFFFFFFFFFFFFFFFFFF AND DUP15 PUSH20 0xFFFFFFFFFFFFFFFFFFFFFFFFFFFFFFFFFFFFFFFF AND EQ PUSH2 0xC94 JUMPI DUP14 PUSH2 0xCAA JUMP JUMPDEST PUSH20 0xEEEEEEEEEEEEEEEEEEEEEEEEEEEEEEEEEEEEEEEE JUMPDEST DUP14 PUSH1 0x0 DUP10 PUSH1 0x40 MLOAD PUSH1 0x24 ADD PUSH2 0xCC2 SWAP6 SWAP5 SWAP4 SWAP3 SWAP2 SWAP1 PUSH2 0x16E0 JUMP JUMPDEST PUSH1 0x40 DUP1 MLOAD PUSH32 0xFFFFFFFFFFFFFFFFFFFFFFFFFFFFFFFFFFFFFFFFFFFFFFFFFFFFFFFFFFFFFFE0 DUP2 DUP5 SUB ADD DUP2 MSTORE SWAP2 DUP2 MSTORE PUSH1 0x20 DUP3 ADD DUP1 MLOAD PUSH28 0xFFFFFFFFFFFFFFFFFFFFFFFFFFFFFFFFFFFFFFFFFFFFFFFFFFFFFFFF AND PUSH32 0xFFFFFFFF00000000000000000000000000000000000000000000000000000000 SWAP1 SWAP5 AND SWAP4 SWAP1 SWAP4 OR SWAP1 SWAP3 MSTORE SWAP1 MLOAD PUSH2 0xD4B SWAP2 SWAP1 PUSH2 0x1661 JUMP JUMPDEST PUSH1 0x0 PUSH1 0x40 MLOAD DUP1 DUP4 SUB DUP2 DUP7 DUP7 STATICCALL SWAP3 POP POP POP RETURNDATASIZE DUP1 PUSH1 0x0 DUP2 EQ PUSH2 0xD87 JUMPI PUSH1 0x40 MLOAD SWAP2 POP PUSH1 0x1F NOT PUSH1 0x3F RETURNDATASIZE ADD AND DUP3 ADD PUSH1 0x40 MSTORE RETURNDATASIZE DUP3 MSTORE RETURNDATASIZE PUSH1 0x0 PUSH1 0x20 DUP5 ADD RETURNDATACOPY PUSH2 0xD8C JUMP JUMPDEST PUSH1 0x60 SWAP2 POP JUMPDEST POP SWAP1 SWAP3 POP SWAP1 POP PUSH1 0x0 DUP3 ISZERO PUSH2 0xDB5 JUMPI DUP2 DUP1 PUSH1 0x20 ADD SWAP1 MLOAD PUSH2 0xDAE SWAP2 SWAP1 DUP2 ADD SWAP1 PUSH2 0x1564 JUMP JUMPDEST SWAP1 POP PUSH2 0xDC6 JUMP JUMPDEST PUSH1 0x0 SWAP9 POP POP POP POP POP POP POP POP POP PUSH2 0xEA JUMP JUMPDEST PUSH1 0x0 PUSH2 0xDD1 DUP13 PUSH2 0x1082 JUMP JUMPDEST PUSH1 0xFF AND SWAP1 POP PUSH1 0x0 PUSH2 0xDE1 DUP15 PUSH2 0x1082 JUMP JUMPDEST PUSH1 0xFF AND SWAP1 POP PUSH8 0xDE0B6B3A7640000 DUP2 PUSH1 0xA EXP DUP4 PUSH1 0xA EXP DUP15 DUP7 MUL MUL DUP2 PUSH2 0xE02 JUMPI INVALID JUMPDEST DIV DUP2 PUSH2 0xE0A JUMPI INVALID JUMPDEST DIV SWAP15 SWAP14 POP POP POP POP POP POP POP POP POP POP POP POP POP POP JUMP JUMPDEST PUSH1 0x40 DUP1 MLOAD PUSH1 0x1 DUP1 DUP3 MSTORE DUP2 DUP4 ADD SWAP1 SWAP3 MSTORE PUSH1 0x60 SWAP2 PUSH1 0x20 DUP1 DUP4 ADD SWAP1 DUP1 CODESIZE DUP4 CODECOPY ADD SWAP1 POP POP SWAP1 POP DUP2 DUP2 PUSH1 0x0 DUP2 MLOAD DUP2 LT PUSH2 0xE4D JUMPI INVALID JUMPDEST PUSH1 0x20 MUL PUSH1 0x20 ADD ADD DUP2 DUP2 MSTORE POP POP SWAP2 SWAP1 POP JUMP JUMPDEST PUSH1 0x0 PUSH2 0xE7 DUP4 PUSH2 0xE94 PUSH2 0xE78 DUP3 PUSH1 0x1 PUSH4 0xFFFFFFFF PUSH2 0x108D AND JUMP JUMPDEST PUSH2 0xE88 DUP9 DUP8 PUSH4 0xFFFFFFFF PUSH2 0x10B1 AND JUMP JUMPDEST SWAP1 PUSH4 0xFFFFFFFF PUSH2 0x10E2 AND JUMP JUMPDEST SWAP1 PUSH4 0xFFFFFFFF PUSH2 0x10FE AND JUMP JUMPDEST PUSH1 0x0 DUP1 PUSH2 0xEAB PUSH2 0x106A JUMP JUMPDEST PUSH20 0xFFFFFFFFFFFFFFFFFFFFFFFFFFFFFFFFFFFFFFFF AND PUSH4 0xB78B842D PUSH1 0x40 MLOAD DUP2 PUSH4 0xFFFFFFFF AND PUSH1 0xE0 SHL DUP2 MSTORE PUSH1 0x4 ADD PUSH1 0x20 PUSH1 0x40 MLOAD DUP1 DUP4 SUB DUP2 DUP7 DUP1 EXTCODESIZE ISZERO DUP1 ISZERO PUSH2 0xEF0 JUMPI PUSH1 0x0 DUP1 REVERT JUMPDEST POP GAS STATICCALL ISZERO DUP1 ISZERO PUSH2 0xF04 JUMPI RETURNDATASIZE PUSH1 0x0 DUP1 RETURNDATACOPY RETURNDATASIZE PUSH1 0x0 REVERT JUMPDEST POP POP POP POP PUSH1 0x40 MLOAD RETURNDATASIZE PUSH1 0x1F NOT PUSH1 0x1F DUP3 ADD AND DUP3 ADD DUP1 PUSH1 0x40 MSTORE POP PUSH2 0xF28 SWAP2 SWAP1 DUP2 ADD SWAP1 PUSH2 0x12F6 JUMP JUMPDEST PUSH20 0xFFFFFFFFFFFFFFFFFFFFFFFFFFFFFFFFFFFFFFFF AND PUSH4 0xC3A2A93A PUSH1 0x40 MLOAD DUP2 PUSH4 0xFFFFFFFF AND PUSH1 0xE0 SHL DUP2 MSTORE PUSH1 0x4 ADD PUSH1 0x0 PUSH1 0x40 MLOAD DUP1 DUP4 SUB DUP2 DUP7 DUP1 EXTCODESIZE ISZERO DUP1 ISZERO PUSH2 0xF6D JUMPI PUSH1 0x0 DUP1 REVERT JUMPDEST POP GAS STATICCALL ISZERO DUP1 ISZERO PUSH2 0xF81 JUMPI RETURNDATASIZE PUSH1 0x0 DUP1 RETURNDATACOPY RETURNDATASIZE PUSH1 0x0 REVERT JUMPDEST POP POP POP POP PUSH1 0x40 MLOAD RETURNDATASIZE PUSH1 0x0 DUP3 RETURNDATACOPY PUSH1 0x1F RETURNDATASIZE SWAP1 DUP2 ADD PUSH32 0xFFFFFFFFFFFFFFFFFFFFFFFFFFFFFFFFFFFFFFFFFFFFFFFFFFFFFFFFFFFFFFE0 AND DUP3 ADD PUSH1 0x40 MSTORE PUSH2 0xFC7 SWAP2 SWAP1 DUP2 ADD SWAP1 PUSH2 0x13D1 JUMP JUMPDEST POP SWAP2 SWAP6 POP SWAP4 POP POP POP POP SWAP1 SWAP2 JUMP JUMPDEST PUSH1 0x60 DUP3 MLOAD PUSH1 0x1 ADD PUSH1 0x40 MLOAD SWAP1 DUP1 DUP3 MSTORE DUP1 PUSH1 0x20 MUL PUSH1 0x20 ADD DUP3 ADD PUSH1 0x40 MSTORE DUP1 ISZERO PUSH2 0x1004 JUMPI DUP2 PUSH1 0x20 ADD PUSH1 0x20 DUP3 MUL DUP1 CODESIZE DUP4 CODECOPY ADD SWAP1 POP JUMPDEST POP SWAP1 POP PUSH1 0x0 JUMPDEST DUP4 MLOAD DUP2 LT ISZERO PUSH2 0x1046 JUMPI DUP4 DUP2 DUP2 MLOAD DUP2 LT PUSH2 0x101F JUMPI INVALID JUMPDEST PUSH1 0x20 MUL PUSH1 0x20 ADD ADD MLOAD DUP3 DUP3 DUP2 MLOAD DUP2 LT PUSH2 0x1033 JUMPI INVALID JUMPDEST PUSH1 0x20 SWAP1 DUP2 MUL SWAP2 SWAP1 SWAP2 ADD ADD MSTORE PUSH1 0x1 ADD PUSH2 0x100A JUMP JUMPDEST POP DUP2 DUP2 PUSH1 0x1 DUP4 MLOAD SUB DUP2 MLOAD DUP2 LT PUSH2 0x1058 JUMPI INVALID JUMPDEST PUSH1 0x20 MUL PUSH1 0x20 ADD ADD DUP2 DUP2 MSTORE POP POP SWAP3 SWAP2 POP POP JUMP JUMPDEST PUSH20 0x9AAB3F75489902F3A48495025729A0AF77D4B11E SWAP1 JUMP JUMPDEST PUSH1 0x0 PUSH2 0x5DF DUP3 PUSH2 0x1128 JUMP JUMPDEST PUSH1 0x0 DUP3 DUP3 GT ISZERO PUSH2 0x10AB JUMPI PUSH2 0x10AB PUSH2 0x10A6 PUSH1 0x2 DUP6 DUP6 PUSH2 0x11F9 JUMP JUMPDEST PUSH2 0x129E JUMP JUMPDEST POP SWAP1 SUB SWAP1 JUMP JUMPDEST PUSH1 0x0 DUP3 PUSH2 0x10C0 JUMPI POP PUSH1 0x0 PUSH2 0x5DF JUMP JUMPDEST DUP3 DUP3 MUL DUP3 DUP5 DUP3 DUP2 PUSH2 0x10CD JUMPI INVALID JUMPDEST DIV EQ PUSH2 0xEA JUMPI PUSH2 0xEA PUSH2 0x10A6 PUSH1 0x1 DUP7 DUP7 PUSH2 0x11F9 JUMP JUMPDEST PUSH1 0x0 DUP3 DUP3 ADD DUP4 DUP2 LT ISZERO PUSH2 0xEA JUMPI PUSH2 0xEA PUSH2 0x10A6 PUSH1 0x0 DUP7 DUP7 PUSH2 0x11F9 JUMP JUMPDEST PUSH1 0x0 DUP2 PUSH2 0x1114 JUMPI PUSH2 0x1114 PUSH2 0x10A6 PUSH1 0x3 DUP6 DUP6 PUSH2 0x11F9 JUMP JUMPDEST PUSH1 0x0 DUP3 DUP5 DUP2 PUSH2 0x111F JUMPI INVALID JUMPDEST DIV SWAP5 SWAP4 POP POP POP POP JUMP JUMPDEST PUSH1 0x0 PUSH1 0x12 SWAP1 POP PUSH1 0x0 PUSH1 0x60 DUP4 PUSH20 0xFFFFFFFFFFFFFFFFFFFFFFFFFFFFFFFFFFFFFFFF AND PUSH1 0x40 MLOAD DUP1 PUSH1 0x40 ADD PUSH1 0x40 MSTORE DUP1 PUSH1 0x4 DUP2 MSTORE PUSH1 0x20 ADD PUSH32 0x313CE56700000000000000000000000000000000000000000000000000000000 DUP2 MSTORE POP PUSH1 0x40 MLOAD PUSH2 0x118C SWAP2 SWAP1 PUSH2 0x1661 JUMP JUMPDEST PUSH1 0x0 PUSH1 0x40 MLOAD DUP1 DUP4 SUB DUP2 DUP6 GAS STATICCALL SWAP2 POP POP RETURNDATASIZE DUP1 PUSH1 0x0 DUP2 EQ PUSH2 0x11C7 JUMPI PUSH1 0x40 MLOAD SWAP2 POP PUSH1 0x1F NOT PUSH1 0x3F RETURNDATASIZE ADD AND DUP3 ADD PUSH1 0x40 MSTORE RETURNDATASIZE DUP3 MSTORE RETURNDATASIZE PUSH1 0x0 PUSH1 0x20 DUP5 ADD RETURNDATACOPY PUSH2 0x11CC JUMP JUMPDEST PUSH1 0x60 SWAP2 POP JUMPDEST POP SWAP2 POP SWAP2 POP DUP2 DUP1 ISZERO PUSH2 0x11DF JUMPI POP DUP1 MLOAD PUSH1 0x20 EQ JUMPDEST ISZERO PUSH2 0x11F2 JUMPI PUSH2 0x11EF DUP2 PUSH1 0x0 PUSH2 0x12A6 JUMP JUMPDEST SWAP3 POP JUMPDEST POP POP SWAP2 SWAP1 POP JUMP JUMPDEST PUSH1 0x60 PUSH4 0xE946C1BB PUSH1 0xE0 SHL DUP5 DUP5 DUP5 PUSH1 0x40 MLOAD PUSH1 0x24 ADD PUSH2 0x1218 SWAP4 SWAP3 SWAP2 SWAP1 PUSH2 0x1802 JUMP JUMPDEST PUSH1 0x40 DUP1 MLOAD PUSH32 0xFFFFFFFFFFFFFFFFFFFFFFFFFFFFFFFFFFFFFFFFFFFFFFFFFFFFFFFFFFFFFFE0 DUP2 DUP5 SUB ADD DUP2 MSTORE SWAP2 SWAP1 MSTORE PUSH1 0x20 DUP2 ADD DUP1 MLOAD PUSH28 0xFFFFFFFFFFFFFFFFFFFFFFFFFFFFFFFFFFFFFFFFFFFFFFFFFFFFFFFF AND PUSH32 0xFFFFFFFF00000000000000000000000000000000000000000000000000000000 SWAP1 SWAP4 AND SWAP3 SWAP1 SWAP3 OR SWAP1 SWAP2 MSTORE SWAP1 POP SWAP4 SWAP3 POP POP POP JUMP JUMPDEST DUP1 MLOAD PUSH1 0x20 DUP3 ADD REVERT JUMPDEST PUSH1 0x0 PUSH2 0xEA DUP4 DUP4 PUSH1 0x0 DUP2 PUSH1 0x20 ADD DUP4 MLOAD LT ISZERO PUSH2 0x12CE JUMPI PUSH2 0x12CE PUSH2 0x10A6 PUSH1 0x5 DUP6 MLOAD DUP6 PUSH1 0x20 ADD PUSH2 0x12D7 JUMP JUMPDEST POP ADD PUSH1 0x20 ADD MLOAD SWAP1 JUMP JUMPDEST PUSH1 0x60 PUSH4 0x28006595 PUSH1 0xE0 SHL DUP5 DUP5 DUP5 PUSH1 0x40 MLOAD PUSH1 0x24 ADD PUSH2 0x1218 SWAP4 SWAP3 SWAP2 SWAP1 PUSH2 0x1823 JUMP JUMPDEST PUSH1 0x0 PUSH1 0x20 DUP3 DUP5 SUB SLT ISZERO PUSH2 0x1307 JUMPI DUP1 DUP2 REVERT JUMPDEST DUP2 MLOAD PUSH2 0xEA DUP2 PUSH2 0x1912 JUMP JUMPDEST PUSH1 0x0 DUP1 PUSH1 0x0 PUSH1 0x60 DUP5 DUP7 SUB SLT ISZERO PUSH2 0x1326 JUMPI DUP2 DUP3 REVERT JUMPDEST DUP4 CALLDATALOAD PUSH2 0x1331 DUP2 PUSH2 0x1912 JUMP JUMPDEST SWAP3 POP PUSH1 0x20 DUP5 DUP2 ADD CALLDATALOAD PUSH2 0x1342 DUP2 PUSH2 0x1912 JUMP JUMPDEST SWAP3 POP PUSH1 0x40 DUP6 ADD CALLDATALOAD PUSH8 0xFFFFFFFFFFFFFFFF DUP2 GT ISZERO PUSH2 0x135D JUMPI DUP3 DUP4 REVERT JUMPDEST DUP1 DUP7 ADD DUP8 PUSH1 0x1F DUP3 ADD SLT PUSH2 0x136E JUMPI DUP4 DUP5 REVERT JUMPDEST DUP1 CALLDATALOAD SWAP2 POP PUSH2 0x1383 PUSH2 0x137E DUP4 PUSH2 0x18B5 JUMP JUMPDEST PUSH2 0x188E JUMP JUMPDEST DUP3 DUP2 MSTORE DUP4 DUP2 ADD SWAP1 DUP3 DUP6 ADD DUP6 DUP6 MUL DUP5 ADD DUP7 ADD DUP12 LT ISZERO PUSH2 0x139F JUMPI DUP7 DUP8 REVERT JUMPDEST DUP7 SWAP4 POP JUMPDEST DUP5 DUP5 LT ISZERO PUSH2 0x13C1 JUMPI DUP1 CALLDATALOAD DUP4 MSTORE PUSH1 0x1 SWAP4 SWAP1 SWAP4 ADD SWAP3 SWAP2 DUP6 ADD SWAP2 DUP6 ADD PUSH2 0x13A3 JUMP JUMPDEST POP DUP1 SWAP6 POP POP POP POP POP POP SWAP3 POP SWAP3 POP SWAP3 JUMP JUMPDEST PUSH1 0x0 DUP1 PUSH1 0x0 DUP1 PUSH1 0x0 DUP1 PUSH1 0xC0 DUP8 DUP10 SUB SLT ISZERO PUSH2 0x13E9 JUMPI DUP2 DUP3 REVERT JUMPDEST DUP7 MLOAD PUSH2 0x13F4 DUP2 PUSH2 0x1912 JUMP JUMPDEST DUP1 SWAP7 POP POP PUSH1 0x20 DUP1 DUP9 ADD MLOAD PUSH2 0x1407 DUP2 PUSH2 0x1912 JUMP JUMPDEST PUSH1 0x40 DUP10 ADD MLOAD SWAP1 SWAP7 POP PUSH2 0x1418 DUP2 PUSH2 0x1912 JUMP JUMPDEST PUSH1 0x60 DUP10 ADD MLOAD SWAP1 SWAP6 POP PUSH2 0x1429 DUP2 PUSH2 0x1912 JUMP JUMPDEST PUSH1 0x80 DUP10 ADD MLOAD SWAP1 SWAP5 POP PUSH2 0x143A DUP2 PUSH2 0x1912 JUMP JUMPDEST PUSH1 0xA0 DUP10 ADD MLOAD SWAP1 SWAP4 POP PUSH8 0xFFFFFFFFFFFFFFFF DUP2 GT ISZERO PUSH2 0x1456 JUMPI DUP3 DUP4 REVERT JUMPDEST DUP1 DUP10 ADD DUP11 PUSH1 0x1F DUP3 ADD SLT PUSH2 0x1467 JUMPI DUP4 DUP5 REVERT JUMPDEST DUP1 MLOAD SWAP2 POP PUSH2 0x1477 PUSH2 0x137E DUP4 PUSH2 0x18B5 JUMP JUMPDEST DUP3 DUP2 MSTORE DUP4 DUP2 ADD SWAP1 DUP3 DUP6 ADD DUP6 DUP6 MUL DUP5 ADD DUP7 ADD DUP15 LT ISZERO PUSH2 0x1493 JUMPI DUP7 DUP8 REVERT JUMPDEST DUP7 SWAP4 POP JUMPDEST DUP5 DUP5 LT ISZERO PUSH2 0x14BE JUMPI DUP1 MLOAD PUSH2 0x14AA DUP2 PUSH2 0x1912 JUMP JUMPDEST DUP4 MSTORE PUSH1 0x1 SWAP4 SWAP1 SWAP4 ADD SWAP3 SWAP2 DUP6 ADD SWAP2 DUP6 ADD PUSH2 0x1497 JUMP JUMPDEST POP DUP1 SWAP6 POP POP POP POP POP POP SWAP3 SWAP6 POP SWAP3 SWAP6 POP SWAP3 SWAP6 JUMP JUMPDEST PUSH1 0x0 PUSH1 0x20 DUP1 DUP4 DUP6 SUB SLT ISZERO PUSH2 0x14E3 JUMPI DUP2 DUP3 REVERT JUMPDEST DUP3 MLOAD PUSH8 0xFFFFFFFFFFFFFFFF DUP2 GT ISZERO PUSH2 0x14F9 JUMPI DUP3 DUP4 REVERT JUMPDEST DUP1 DUP5 ADD DUP6 PUSH1 0x1F DUP3 ADD SLT PUSH2 0x150A JUMPI DUP4 DUP5 REVERT JUMPDEST DUP1 MLOAD SWAP2 POP PUSH2 0x151A PUSH2 0x137E DUP4 PUSH2 0x18B5 JUMP JUMPDEST DUP3 DUP2 MSTORE DUP4 DUP2 ADD SWAP1 DUP3 DUP6 ADD DUP6 DUP6 MUL DUP5 ADD DUP7 ADD DUP10 LT ISZERO PUSH2 0x1536 JUMPI DUP7 DUP8 REVERT JUMPDEST DUP7 SWAP4 POP JUMPDEST DUP5 DUP5 LT ISZERO PUSH2 0x1558 JUMPI DUP1 MLOAD DUP4 MSTORE PUSH1 0x1 SWAP4 SWAP1 SWAP4 ADD SWAP3 SWAP2 DUP6 ADD SWAP2 DUP6 ADD PUSH2 0x153A JUMP JUMPDEST POP SWAP8 SWAP7 POP POP POP POP POP POP POP JUMP JUMPDEST PUSH1 0x0 PUSH1 0x20 DUP3 DUP5 SUB SLT ISZERO PUSH2 0x1575 JUMPI DUP1 DUP2 REVERT JUMPDEST POP MLOAD SWAP2 SWAP1 POP JUMP JUMPDEST PUSH1 0x0 PUSH1 0x20 DUP3 DUP5 SUB SLT ISZERO PUSH2 0x158D JUMPI DUP1 DUP2 REVERT JUMPDEST DUP2 MLOAD PUSH8 0xFFFFFFFFFFFFFFFF DUP1 DUP3 GT ISZERO PUSH2 0x15A4 JUMPI DUP3 DUP4 REVERT JUMPDEST DUP2 DUP5 ADD DUP6 PUSH1 0x1F DUP3 ADD SLT PUSH2 0x15B5 JUMPI DUP4 DUP5 REVERT JUMPDEST DUP1 MLOAD SWAP3 POP DUP2 DUP4 GT ISZERO PUSH2 0x15C5 JUMPI DUP4 DUP5 REVERT JUMPDEST PUSH2 0x15F6 PUSH1 0x20 PUSH32 0xFFFFFFFFFFFFFFFFFFFFFFFFFFFFFFFFFFFFFFFFFFFFFFFFFFFFFFFFFFFFFFE0 PUSH1 0x1F DUP7 ADD AND ADD PUSH2 0x188E JUMP JUMPDEST SWAP2 POP DUP3 DUP3 MSTORE DUP6 PUSH1 0x20 DUP5 DUP4 ADD ADD GT ISZERO PUSH2 0x160C JUMPI DUP4 DUP5 REVERT JUMPDEST PUSH2 0x161D DUP4 PUSH1 0x20 DUP5 ADD PUSH1 0x20 DUP5 ADD PUSH2 0x18D5 JUMP JUMPDEST POP SWAP5 SWAP4 POP POP POP POP JUMP JUMPDEST PUSH1 0x0 DUP2 MLOAD DUP1 DUP5 MSTORE PUSH1 0x20 DUP5 ADD SWAP4 POP PUSH1 0x20 DUP4 ADD DUP3 JUMPDEST DUP3 DUP2 LT ISZERO PUSH2 0x1657 JUMPI DUP2 MLOAD DUP7 MSTORE PUSH1 0x20 SWAP6 DUP7 ADD SWAP6 SWAP1 SWAP2 ADD SWAP1 PUSH1 0x1 ADD PUSH2 0x1639 JUMP JUMPDEST POP SWAP4 SWAP5 SWAP4 POP POP POP POP JUMP JUMPDEST PUSH1 0x0 DUP3 MLOAD PUSH2 0x1673 DUP2 DUP5 PUSH1 0x20 DUP8 ADD PUSH2 0x18D5 JUMP JUMPDEST SWAP2 SWAP1 SWAP2 ADD SWAP3 SWAP2 POP POP JUMP JUMPDEST PUSH20 0xFFFFFFFFFFFFFFFFFFFFFFFFFFFFFFFFFFFFFFFF SWAP2 SWAP1 SWAP2 AND DUP2 MSTORE PUSH1 0x20 ADD SWAP1 JUMP JUMPDEST PUSH1 0x0 PUSH20 0xFFFFFFFFFFFFFFFFFFFFFFFFFFFFFFFFFFFFFFFF DUP1 DUP7 AND DUP4 MSTORE DUP1 DUP6 AND PUSH1 0x20 DUP5 ADD MSTORE POP PUSH1 0x60 PUSH1 0x40 DUP4 ADD MSTORE PUSH2 0x16D7 PUSH1 0x60 DUP4 ADD DUP5 PUSH2 0x1626 JUMP JUMPDEST SWAP6 SWAP5 POP POP POP POP POP JUMP JUMPDEST PUSH1 0x0 PUSH20 0xFFFFFFFFFFFFFFFFFFFFFFFFFFFFFFFFFFFFFFFF DUP1 DUP9 AND DUP4 MSTORE DUP1 DUP8 AND PUSH1 0x20 DUP5 ADD MSTORE POP DUP5 PUSH1 0x40 DUP4 ADD MSTORE PUSH1 0xFF DUP5 AND PUSH1 0x60 DUP4 ADD MSTORE PUSH1 0xA0 PUSH1 0x80 DUP4 ADD MSTORE DUP3 MLOAD DUP1 PUSH1 0xA0 DUP5 ADD MSTORE PUSH2 0x1734 DUP2 PUSH1 0xC0 DUP6 ADD PUSH1 0x20 DUP8 ADD PUSH2 0x18D5 JUMP JUMPDEST PUSH1 0x1F ADD PUSH32 0xFFFFFFFFFFFFFFFFFFFFFFFFFFFFFFFFFFFFFFFFFFFFFFFFFFFFFFFFFFFFFFE0 AND SWAP2 SWAP1 SWAP2 ADD PUSH1 0xC0 ADD SWAP7 SWAP6 POP POP POP POP POP POP JUMP JUMPDEST PUSH1 0x0 PUSH1 0x80 DUP3 ADD PUSH20 0xFFFFFFFFFFFFFFFFFFFFFFFFFFFFFFFFFFFFFFFF DUP8 AND DUP4 MSTORE PUSH2 0x1792 DUP7 PUSH2 0x1905 JUMP JUMPDEST PUSH1 0x20 DUP4 DUP2 ADD DUP8 SWAP1 MSTORE PUSH1 0x80 PUSH1 0x40 DUP6 ADD MSTORE DUP6 MLOAD SWAP2 DUP3 SWAP1 MSTORE DUP6 ADD SWAP1 PUSH1 0xA0 DUP5 ADD SWAP1 DUP4 JUMPDEST DUP2 DUP2 LT ISZERO PUSH2 0x17CF JUMPI DUP4 MLOAD DUP4 MSTORE PUSH1 0x20 SWAP4 DUP5 ADD SWAP4 SWAP1 SWAP3 ADD SWAP2 PUSH1 0x1 ADD PUSH2 0x17B1 JUMP JUMPDEST POP POP DUP4 DUP2 SUB PUSH1 0x60 DUP6 ADD MSTORE PUSH2 0x17E3 DUP2 DUP7 PUSH2 0x1626 JUMP JUMPDEST SWAP9 SWAP8 POP POP POP POP POP POP POP POP JUMP JUMPDEST PUSH1 0x0 PUSH1 0x20 DUP3 MSTORE PUSH2 0xEA PUSH1 0x20 DUP4 ADD DUP5 PUSH2 0x1626 JUMP JUMPDEST PUSH1 0x60 DUP2 ADD PUSH2 0x180F DUP6 PUSH2 0x1905 JUMP JUMPDEST SWAP4 DUP2 MSTORE PUSH1 0x20 DUP2 ADD SWAP3 SWAP1 SWAP3 MSTORE PUSH1 0x40 SWAP1 SWAP2 ADD MSTORE SWAP1 JUMP JUMPDEST PUSH1 0x60 DUP2 ADD PUSH1 0x8 DUP6 LT PUSH2 0x180F JUMPI INVALID JUMPDEST PUSH1 0x20 DUP1 DUP3 MSTORE PUSH1 0x25 SWAP1 DUP3 ADD MSTORE PUSH32 0x455243323042726964676553616D706C65722F494E56414C49445F544F4B454E PUSH1 0x40 DUP3 ADD MSTORE PUSH32 0x5F50414952000000000000000000000000000000000000000000000000000000 PUSH1 0x60 DUP3 ADD MSTORE PUSH1 0x80 ADD SWAP1 JUMP JUMPDEST PUSH1 0x40 MLOAD DUP2 DUP2 ADD PUSH8 0xFFFFFFFFFFFFFFFF DUP2 GT DUP3 DUP3 LT OR ISZERO PUSH2 0x18AD JUMPI PUSH1 0x0 DUP1 REVERT JUMPDEST PUSH1 0x40 MSTORE SWAP2 SWAP1 POP JUMP JUMPDEST PUSH1 0x0 PUSH8 0xFFFFFFFFFFFFFFFF DUP3 GT ISZERO PUSH2 0x18CB JUMPI DUP1 DUP2 REVERT JUMPDEST POP PUSH1 0x20 SWAP1 DUP2 MUL ADD SWAP1 JUMP JUMPDEST PUSH1 0x0 JUMPDEST DUP4 DUP2 LT ISZERO PUSH2 0x18F0 JUMPI DUP2 DUP2 ADD MLOAD DUP4 DUP3 ADD MSTORE PUSH1 0x20 ADD PUSH2 0x18D8 JUMP JUMPDEST DUP4 DUP2 GT ISZERO PUSH2 0x18FF JUMPI PUSH1 0x0 DUP5 DUP5 ADD MSTORE JUMPDEST POP POP POP POP JUMP JUMPDEST PUSH1 0x4 DUP2 LT PUSH2 0x190F JUMPI INVALID JUMPDEST POP JUMP JUMPDEST PUSH20 0xFFFFFFFFFFFFFFFFFFFFFFFFFFFFFFFFFFFFFFFF DUP2 AND DUP2 EQ PUSH2 0x190F JUMPI PUSH1 0x0 DUP1 REVERT INVALID LOG3 PUSH6 0x627A7A723158 KECCAK256 ADDMOD 0xB6 0xB0 SELFBALANCE GAS 0xC7 0x24 0x2A EXP 0xB1 DUP14 0x2C 0xBB PUSH10 0x6168C9289D31C53ABC78 SWAP1 0xF PUSH21 0xE94AAFFD216C6578706572696D656E74616CF56473 PUSH16 0x6C634300051100400000000000000000 "
            }
        }
    },
    "sourceTreeHashHex": "0x5a9be7c334ea4621de35a0b9e0a1f7058da4a859dc5bd9addfab5143a6f7b6d0",
    "compiler": {
        "name": "solc",
        "version": "0.5.17+commit.d19bba13",
        "settings": {
            "remappings": [
                "@0x/contracts-exchange-libs=/Users/jacob/projects/ethdev/0x/workspace-remote/workspace/0x-monorepo/packages/asset-swapper/node_modules/@0x/contracts-exchange-libs",
                "@0x/contracts-utils=/Users/jacob/projects/ethdev/0x/workspace-remote/workspace/0x-monorepo/packages/asset-swapper/node_modules/@0x/contracts-utils",
                "@0x/contracts-erc20=/Users/jacob/projects/ethdev/0x/workspace-remote/workspace/0x-monorepo/packages/asset-swapper/node_modules/@0x/contracts-erc20",
                "@0x/contracts-exchange=/Users/jacob/projects/ethdev/0x/workspace-remote/workspace/0x-monorepo/packages/asset-swapper/node_modules/@0x/contracts-exchange",
                "@0x/contracts-asset-proxy=/Users/jacob/projects/ethdev/0x/workspace-remote/workspace/0x-monorepo/packages/asset-swapper/node_modules/@0x/contracts-asset-proxy"
            ],
            "optimizer": {
                "enabled": true,
                "runs": 1000000,
                "details": {
                    "yul": true,
                    "deduplicate": true,
                    "cse": true,
                    "constantOptimizer": true
                }
            },
            "outputSelection": {
                "*": {
                    "*": [
                        "abi",
                        "devdoc",
                        "evm.bytecode.object",
                        "evm.bytecode.sourceMap",
                        "evm.deployedBytecode.object",
                        "evm.deployedBytecode.sourceMap"
                    ]
                }
            },
            "evmVersion": "istanbul"
        }
    },
    "chains": {}
}