{
    "schemaVersion": "2.0.0",
    "contractName": "KyberDmmSampler",
    "compilerOutput": {
        "abi": [
            {
                "inputs": [
                    {
                        "internalType": "bytes4",
                        "name": "selector",
                        "type": "bytes4"
                    },
                    {
                        "internalType": "address",
                        "name": "sellToken",
                        "type": "address"
                    },
                    {
                        "internalType": "address",
                        "name": "buyToken",
                        "type": "address"
                    },
                    {
                        "internalType": "bytes",
                        "name": "bridgeData",
                        "type": "bytes"
                    },
                    {
                        "internalType": "uint256",
                        "name": "amountIn",
                        "type": "uint256"
                    }
                ],
                "name": "_mintCallRevert",
                "outputs": [],
                "stateMutability": "nonpayable",
                "type": "function"
            },
            {
                "inputs": [
                    {
                        "internalType": "address",
                        "name": "router",
                        "type": "address"
                    },
                    {
                        "internalType": "address[]",
                        "name": "path",
                        "type": "address[]"
                    },
                    {
                        "internalType": "uint256[]",
                        "name": "makerTokenAmounts",
                        "type": "uint256[]"
                    }
                ],
                "name": "sampleBuysFromKyberDmm",
                "outputs": [
                    {
                        "internalType": "address[]",
                        "name": "pools",
                        "type": "address[]"
                    },
                    {
                        "internalType": "uint256[]",
                        "name": "gasUsed",
                        "type": "uint256[]"
                    },
                    {
                        "internalType": "uint256[]",
                        "name": "takerTokenAmounts",
                        "type": "uint256[]"
                    }
                ],
                "stateMutability": "nonpayable",
                "type": "function"
            },
            {
                "inputs": [
                    {
                        "internalType": "address",
                        "name": "router",
                        "type": "address"
                    },
                    {
                        "internalType": "address[]",
                        "name": "path",
                        "type": "address[]"
                    },
                    {
                        "internalType": "uint256[]",
                        "name": "takerTokenAmounts",
                        "type": "uint256[]"
                    }
                ],
                "name": "sampleSellsFromKyberDmm",
                "outputs": [
                    {
                        "internalType": "address[]",
                        "name": "pools",
                        "type": "address[]"
                    },
                    {
                        "internalType": "uint256[]",
                        "name": "gasUsed",
                        "type": "uint256[]"
                    },
                    {
                        "internalType": "uint256[]",
                        "name": "makerTokenAmounts",
                        "type": "uint256[]"
                    }
                ],
                "stateMutability": "nonpayable",
                "type": "function"
            },
            {
                "inputs": [
                    {
                        "internalType": "address",
                        "name": "sellToken",
                        "type": "address"
                    },
                    {
                        "internalType": "address",
                        "name": "buyToken",
                        "type": "address"
                    },
                    {
                        "internalType": "bytes",
                        "name": "bridgeData",
                        "type": "bytes"
                    },
                    {
                        "internalType": "uint256",
                        "name": "takerTokenAmount",
                        "type": "uint256"
                    }
                ],
                "name": "sampleSwapFromKyberDmm",
                "outputs": [
                    {
                        "internalType": "uint256",
                        "name": "",
                        "type": "uint256"
                    }
                ],
                "stateMutability": "nonpayable",
                "type": "function"
            }
        ],
        "devdoc": {
            "kind": "dev",
            "methods": {
                "_mintCallRevert(bytes4,address,address,bytes,uint256)": {
                    "details": "Mints the sell token, then performs the swap, then reverts with the amount out. The SwapRevertSamplerQuoteOpts has been unrolled here as our ABI encoder cannot support encoding the function"
                },
                "sampleBuysFromKyberDmm(address,address[],uint256[])": {
                    "details": "Sample buy quotes from KyberDmm.",
                    "params": {
                        "makerTokenAmounts": "Maker token buy amount for each sample.",
                        "path": "Token route. Should be takerToken -> makerToken.",
                        "router": "Router to look up tokens and amounts"
                    },
                    "returns": {
                        "gasUsed": "gas consumed in each sample sell",
                        "pools": "The pool addresses involved in the multi path trade",
                        "takerTokenAmounts": "Taker amounts sold at each maker token         amount."
                    }
                },
                "sampleSellsFromKyberDmm(address,address[],uint256[])": {
                    "details": "Sample sell quotes from KyberDmm.",
                    "params": {
                        "path": "Token route. Should be takerToken -> makerToken",
                        "router": "Router to look up tokens and amounts",
                        "takerTokenAmounts": "Taker token sell amount for each sample."
                    },
                    "returns": {
                        "gasUsed": "gas consumed in each sample sell",
                        "makerTokenAmounts": "Maker amounts bought at each taker token         amount.",
                        "pools": "The pool addresses involved in the multi path trade"
                    }
                }
            },
            "stateVariables": {
                "KYBER_DMM_CALL_GAS": {
                    "details": "Gas limit for KyberDmm calls."
                }
            },
            "version": 1
        },
        "evm": {
            "bytecode": {
                "linkReferences": {},
                "object": "0x608060405234801561001057600080fd5b50611e2c806100206000396000f3fe6080604052600436106100435760003560e01c8063027be69e1461004f5780630496d5dc14610071578063494569db146100a95780637a82dcb9146100c95761004a565b3661004a57005b600080fd5b34801561005b57600080fd5b5061006f61006a36600461186a565b6100f6565b005b34801561007d57600080fd5b5061009161008c366004611713565b61052d565b6040516100a093929190611acd565b60405180910390f35b3480156100b557600080fd5b506100916100c4366004611713565b6105f3565b3480156100d557600080fd5b506100e96100e43660046116ac565b61078a565b6040516100a09190611d14565b6040516355c3705360e11b8152849084906001600160a01b0383169063ab86e0a69061012890309087906004016119f9565b600060405180830381600087803b15801561014257600080fd5b505af1925050508015610153575060015b50856001600160a01b031663d0e30db0846040518263ffffffff1660e01b81526004016000604051808303818588803b15801561018f57600080fd5b505af1935050505080156101a1575060015b506040516355c3705360e11b81526001600160a01b0382169063ab86e0a6906101d19030906000906004016119f9565b600060405180830381600087803b1580156101eb57600080fd5b505af19250505080156101fc575060015b506040516370a0823160e01b815283906001600160a01b038416906370a082319061022b9030906004016119e5565b602060405180830381600087803b15801561024557600080fd5b505af1158015610259573d6000803e3d6000fd5b505050506040513d601f19601f8201168201806040525081019061027d91906118f0565b146102a35760405162461bcd60e51b815260040161029a90611c4d565b60405180910390fd5b6040516370a0823160e01b81526001600160a01b038216906370a08231906102cf9030906004016119e5565b602060405180830381600087803b1580156102e957600080fd5b505af11580156102fd573d6000803e3d6000fd5b505050506040513d601f19601f8201168201806040525081019061032191906118f0565b1561033e5760405162461bcd60e51b815260040161029a90611bd3565b6040516000904780156108fc029183818181858288f1935050505015801561036a573d6000803e3d6000fd5b5061133761def160901b016001600160a01b031663d0afdca96040518163ffffffff1660e01b8152600401600060405180830381600087803b1580156103af57600080fd5b505af19250505080156103c0575060015b5060005a905060006060306001600160a01b03168a8a8a8a8a6040516024016103ec9493929190611a2c565b60408051601f198184030181529181526020820180516001600160e01b03166001600160e01b031990941693909317909252905161042a91906119c9565b6000604051808303816000865af19150503d8060008114610467576040519150601f19603f3d011682016040523d82523d6000602084013e61046c565b606091505b50915091505a8303925061133761def160901b016001600160a01b0316630c18c1626040518163ffffffff1660e01b815260040160206040518083038186803b1580156104b857600080fd5b505afa9250505080156104e8575060408051601f3d908101601f191682019092526104e5918101906118f0565b60015b6104f1576104f6565b909203915b8161050457610504816107a0565b6105218180602001905181019061051b91906118f0565b846107a8565b50505050505050505050565b606080606061053c86866107b9565b925082516000141561054d576105ea565b6105e460405180608001604052808760008151811061056857fe5b60200260200101516001600160a01b031681526020018760018951038151811061058e57fe5b60200260200101516001600160a01b031681526020018886896040516020016105b993929190611a8d565b60408051601f1981840301815291815290825230602090811b637a82dcb91790911b910152856109b7565b90925090505b93509350939050565b606080606061060286866107b9565b9250825160001415610613576105ea565b606085516001600160401b038111801561062c57600080fd5b50604051908082528060200260200182016040528015610656578160200160208202803683370190505b50905060005b86518110156106ab5786600182895103038151811061067757fe5b602002602001015182828151811061068b57fe5b6001600160a01b039092166020928302919091019091015260010161065c565b5060606106b888836107b9565b905061077a6040518060a00160405280896000815181106106d557fe5b60200260200101516001600160a01b031681526020018960018b5103815181106106fb57fe5b60200260200101516001600160a01b031681526020018a888b60405160200161072693929190611a8d565b60405160208183030381529060405281526020018a848660405160200161074f93929190611a8d565b60408051601f1981840301815291815290825230602090811b637a82dcb91790911b91015287610ba7565b9094509250505093509350939050565b6000610797848385611015565b95945050505050565b805160208201fd5b604051828152816020820152604081fd5b606060018251036001600160401b03811180156107d557600080fd5b506040519080825280602002602001820160405280156107ff578160200160208202803683370190505b5090506000836001600160a01b031663c45a01556040518163ffffffff1660e01b815260040160206040518083038186803b15801561083d57600080fd5b505afa158015610851573d6000803e3d6000fd5b505050506040513d601f19601f82011682018060405250810190610875919061161d565b905060005b82518110156109ae57816001600160a01b03166365da9289620249f08684815181106108a257fe5b60200260200101518785600101815181106108b957fe5b602002602001015160006040518563ffffffff1660e01b81526004016108e193929190611a69565b60206040518083038187803b1580156108f957600080fd5b5086fa9350505050801561092a575060408051601f3d908101601f191682019092526109279181019061161d565b60015b610978573d808015610958576040519150601f19603f3d011682016040523d82523d6000602084013e61095d565b606091505b505060408051600081526020810190915292506109b1915050565b8084838151811061098557fe5b60200260200101906001600160a01b031690816001600160a01b0316815250505060010161087a565b50505b92915050565b60608082516001600160401b03811180156109d157600080fd5b506040519080825280602002602001820160405280156109fb578160200160208202803683370190505b50905082516001600160401b0381118015610a1557600080fd5b50604051908082528060200260200182016040528015610a3f578160200160208202803683370190505b50915060005b8351811015610b9f57306001600160a01b031663027be69e621e848087606001518060601c9060401c63ffffffff16905060e01b886000015189602001518a604001518a8881518110610a9457fe5b60200260200101516040518763ffffffff1660e01b8152600401610abc959493929190611b06565b600060405180830381600088803b158015610ad657600080fd5b5087f193505050508015610ae8575060015b610b7f573d808015610b16576040519150601f19603f3d011682016040523d82523d6000602084013e610b1b565b606091505b50610b278160006111af565b848481518110610b3357fe5b60200260200101868581518110610b4657fe5b6020026020010182815250828152505050828281518110610b6357fe5b602002602001015160001415610b795750610b9f565b50610b97565b60405162461bcd60e51b815260040161029a90611c90565b600101610a45565b509250929050565b60608082516001600160401b0381118015610bc157600080fd5b50604051908082528060200260200182016040528015610beb578160200160208202803683370190505b50905082516001600160401b0381118015610c0557600080fd5b50604051908082528060200260200182016040528015610c2f578160200160208202803683370190505b509150825160001415610c415761100e565b6040805160018082528183019092526060916020808301908036833701905050905083600081518110610c7057fe5b602002602001015181600081518110610c8557fe5b602002602001018181525050610c996114ad565b50604080516080808201835287516001600160a01b0390811683526020808a0151909116908301528783015182840152870151640100000000600160c01b0390831c90811663ffffffff9091161790911b6060820152610cf76114ad565b604051806080016040528088602001516001600160a01b0316815260200188600001516001600160a01b031681526020018860600151815260200188608001518060601c9060401c63ffffffff1663ffffffff169060201b1760401b8152509050610d6281846109b7565b90508093505082600081518110610d7557fe5b602002602001015160001415610d8d5750505061100e565b6060610d9983856109b7565b90508091505080600081518110610dac57fe5b602002602001015160001415610dc5575050505061100e565b60005b875181101561100857606060005b6005811015610f8157610e258a8481518110610dee57fe5b602002602001015185600081518110610e0357fe5b602002602001015189600081518110610e1857fe5b60200260200101516111f9565b87600081518110610e3257fe5b60200260200101818152505086600081518110610e4b57fe5b602002602001015160001415610e6057610f81565b610e7960056127100161271089600081518110610e1857fe5b87600081518110610e8657fe5b60200260200101818152505086600081518110610e9f57fe5b602002602001015160001415610eb457610f81565b6060610ec087896109b7565b805191945091508190600090610ed257fe5b602002602001015160001415610ee85750610f81565b8094508a8481518110610ef757fe5b602002602001015185600081518110610f0c57fe5b602002602001015110610f785760008b8581518110610f2757fe5b60200260200101516127108d8781518110610f3e57fe5b602002602001015188600081518110610f5357fe5b6020026020010151030281610f6457fe5b04905060058111610f76575050610f81565b505b50600101610dd6565b5080600081518110610f8f57fe5b6020026020010151888381518110610fa357fe5b602002602001018181525050610fe8898381518110610fbe57fe5b602002602001015184600081518110610fd357fe5b602002602001015188600081518110610e1857fe5b878381518110610ff457fe5b602090810291909101015250600101610dc8565b50505050505b9250929050565b6000806060808480602001905181019061102f9190611639565b81519295509093509150600111156110595760405162461bcd60e51b815260040161029a90611cc5565b815160010181511461107d5760405162461bcd60e51b815260040161029a90611c0a565b866001600160a01b03168160018351038151811061109757fe5b60200260200101516001600160a01b0316146110c55760405162461bcd60e51b815260040161029a90611b76565b6110f78387836000815181106110d757fe5b60200260200101516001600160a01b03166112519092919063ffffffff16565b60405163ceb757d560e01b81526060906001600160a01b0385169063ceb757d590611131908a906001908890889030904290600401611d1d565b600060405180830381600087803b15801561114b57600080fd5b505af115801561115f573d6000803e3d6000fd5b505050506040513d6000823e601f3d908101601f1916820160405261118791908101906117db565b90508060018251038151811061119957fe5b60200260200101519450505050505b9392505050565b60008083516040146111da5782156111cf576111ca846107a0565b6111da565b50600090508061100e565b838060200190518101906111ee9190611908565b915091509250929050565b6000831580611206575081155b8061120f575082155b1561121c575060006111a8565b8382028285828161122957fe5b04146112395760009150506111a8565b836001850382018161124757fe5b0495945050505050565b604051636eb1769f60e11b815281906001600160a01b0385169063dd62ed3e906112819030908790600401611a12565b60206040518083038186803b15801561129957600080fd5b505afa1580156112ad573d6000803e3d6000fd5b505050506040513d601f19601f820116820180604052508101906112d191906118f0565b10156112e4576112e483836000196112e9565b505050565b606063095ea7b360e01b83836040516024016113069291906119f9565b60408051601f198184030181529190526020810180516001600160e01b03166001600160e01b0319909316929092179091529050611344848261134a565b50505050565b60006060836001600160a01b03168360405161136691906119c9565b6000604051808303816000865af19150503d80600081146113a3576040519150601f19603f3d011682016040523d82523d6000602084013e6113a8565b606091505b50915091508180156113be57506113be816113d7565b156113ca5750506113d3565b611344816107a0565b5050565b60008151600014156113eb57506001611418565b602082511061141857600061140183600061141d565b90508060011415611416576001915050611418565b505b919050565b60006111a883836000816020018351101561144a5761144a6114456005855185602001611453565b6107a0565b50016020015190565b6060632800659560e01b84848460405160240161147293929190611b54565b60408051601f198184030181529190526020810180516001600160e01b03166001600160e01b03199093169290921790915290509392505050565b6040805160808101825260008082526020820181905260609282018390529181019190915290565b80356109b181611dde565b600082601f8301126114f0578081fd5b81516115036114fe82611d93565b611d6d565b81815291506020808301908481018184028601820187101561152457600080fd5b60005b8481101561154c57815161153a81611dde565b84529282019290820190600101611527565b505050505092915050565b600082601f830112611567578081fd5b81356115756114fe82611d93565b81815291506020808301908481018184028601820187101561159657600080fd5b60005b8481101561154c57813584529282019290820190600101611599565b600082601f8301126115c5578081fd5b81356001600160401b038111156115da578182fd5b6115ed601f8201601f1916602001611d6d565b915080825283602082850101111561160457600080fd5b8060208401602084013760009082016020015292915050565b60006020828403121561162e578081fd5b81516111a881611dde565b60008060006060848603121561164d578182fd5b835161165881611dde565b60208501519093506001600160401b0380821115611674578384fd5b611680878388016114e0565b93506040860151915080821115611695578283fd5b506116a2868287016114e0565b9150509250925092565b600080600080608085870312156116c1578081fd5b84356116cc81611dde565b935060208501356116dc81611dde565b925060408501356001600160401b038111156116f6578182fd5b611702878288016115b5565b949793965093946060013593505050565b600080600060608486031215611727578283fd5b833561173281611dde565b92506020848101356001600160401b038082111561174e578485fd5b818701915087601f830112611761578485fd5b813561176f6114fe82611d93565b81815284810190848601868402860187018c101561178b578889fd5b8895505b838610156117b5576117a18c826114d5565b83526001959095019491860191860161178f565b509650505060408701359250808311156117cd578384fd5b50506116a286828701611557565b600060208083850312156117ed578182fd5b82516001600160401b03811115611802578283fd5b8301601f81018513611812578283fd5b80516118206114fe82611d93565b818152838101908385018584028501860189101561183c578687fd5b8694505b8385101561185e578051835260019490940193918501918501611840565b50979650505050505050565b600080600080600060a08688031215611881578081fd5b85356001600160e01b031981168114611898578182fd5b945060208601356118a881611dde565b935060408601356118b881611dde565b925060608601356001600160401b038111156118d2578182fd5b6118de888289016115b5565b95989497509295608001359392505050565b600060208284031215611901578081fd5b5051919050565b6000806040838503121561191a578182fd5b505080516020909101519092909150565b6000815180845260208085019450808401835b838110156119635781516001600160a01b03168752958201959082019060010161193e565b509495945050505050565b6000815180845260208085019450808401835b8381101561196357815187529582019590820190600101611981565b600081518084526119b5816020860160208601611db2565b601f01601f19169290920160200192915050565b600082516119db818460208701611db2565b9190910192915050565b6001600160a01b0391909116815260200190565b6001600160a01b03929092168252602082015260400190565b6001600160a01b0392831681529116602082015260400190565b6001600160a01b03858116825284166020820152608060408201819052600090611a589083018561199d565b905082606083015295945050505050565b6001600160a01b039384168152919092166020820152604081019190915260600190565b6001600160a01b0384168152606060208201819052600090611ab19083018561192b565b8281036040840152611ac3818561192b565b9695505050505050565b600060608252611ae0606083018661192b565b8281036020840152611af2818661196e565b90508281036040840152611ac3818561196e565b6001600160e01b0319861681526001600160a01b0385811660208301528416604082015260a060608201819052600090611b429083018561199d565b90508260808301529695505050505050565b6060810160088510611b6257fe5b938152602081019290925260409091015290565b6020808252603a908201527f4d6978696e4b79626572446d6d2f4c4153545f454c454d454e545f4f465f504160408201527f54485f4d5553545f4d415443485f4f55545055545f544f4b454e000000000000606082015260800190565b6020808252601d908201527f42616c616e6365206f6620627579546f6b656e206d7573742062652030000000604082015260600190565b60208082526023908201527f4d6978696e4b79626572446d6d2f41525241595f4c454e4754485f4d49534d416040820152620a886960eb1b606082015260800190565b60208082526023908201527f4661696c656420746f206d696e74206f72206465706f7369742073656c6c546f60408201526235b2b760e91b606082015260800190565b6020808252818101527f537761702053616d706c652073686f756c642068617665207265766572746564604082015260600190565b6020808252602f908201527f4d6978696e4b79626572446d6d2f504f4f4c535f4c454e4754485f4d5553545f60408201526e42455f41545f4c454153545f4f4e4560881b606082015260800190565b90815260200190565b600087825286602083015260c06040830152611d3c60c083018761192b565b8281036060840152611d4e818761192b565b6001600160a01b03959095166080840152505060a00152949350505050565b6040518181016001600160401b0381118282101715611d8b57600080fd5b604052919050565b60006001600160401b03821115611da8578081fd5b5060209081020190565b60005b83811015611dcd578181015183820152602001611db5565b838111156113445750506000910152565b6001600160a01b0381168114611df357600080fd5b5056fea26469706673582212204da67e9489604f745fd79f55c5a76c85bb1dde585db43e1116fb4582daa7354864736f6c634300060c0033",
                "opcodes": "PUSH1 0x80 PUSH1 0x40 MSTORE CALLVALUE DUP1 ISZERO PUSH2 0x10 JUMPI PUSH1 0x0 DUP1 REVERT JUMPDEST POP PUSH2 0x1E2C DUP1 PUSH2 0x20 PUSH1 0x0 CODECOPY PUSH1 0x0 RETURN INVALID PUSH1 0x80 PUSH1 0x40 MSTORE PUSH1 0x4 CALLDATASIZE LT PUSH2 0x43 JUMPI PUSH1 0x0 CALLDATALOAD PUSH1 0xE0 SHR DUP1 PUSH4 0x27BE69E EQ PUSH2 0x4F JUMPI DUP1 PUSH4 0x496D5DC EQ PUSH2 0x71 JUMPI DUP1 PUSH4 0x494569DB EQ PUSH2 0xA9 JUMPI DUP1 PUSH4 0x7A82DCB9 EQ PUSH2 0xC9 JUMPI PUSH2 0x4A JUMP JUMPDEST CALLDATASIZE PUSH2 0x4A JUMPI STOP JUMPDEST PUSH1 0x0 DUP1 REVERT JUMPDEST CALLVALUE DUP1 ISZERO PUSH2 0x5B JUMPI PUSH1 0x0 DUP1 REVERT JUMPDEST POP PUSH2 0x6F PUSH2 0x6A CALLDATASIZE PUSH1 0x4 PUSH2 0x186A JUMP JUMPDEST PUSH2 0xF6 JUMP JUMPDEST STOP JUMPDEST CALLVALUE DUP1 ISZERO PUSH2 0x7D JUMPI PUSH1 0x0 DUP1 REVERT JUMPDEST POP PUSH2 0x91 PUSH2 0x8C CALLDATASIZE PUSH1 0x4 PUSH2 0x1713 JUMP JUMPDEST PUSH2 0x52D JUMP JUMPDEST PUSH1 0x40 MLOAD PUSH2 0xA0 SWAP4 SWAP3 SWAP2 SWAP1 PUSH2 0x1ACD JUMP JUMPDEST PUSH1 0x40 MLOAD DUP1 SWAP2 SUB SWAP1 RETURN JUMPDEST CALLVALUE DUP1 ISZERO PUSH2 0xB5 JUMPI PUSH1 0x0 DUP1 REVERT JUMPDEST POP PUSH2 0x91 PUSH2 0xC4 CALLDATASIZE PUSH1 0x4 PUSH2 0x1713 JUMP JUMPDEST PUSH2 0x5F3 JUMP JUMPDEST CALLVALUE DUP1 ISZERO PUSH2 0xD5 JUMPI PUSH1 0x0 DUP1 REVERT JUMPDEST POP PUSH2 0xE9 PUSH2 0xE4 CALLDATASIZE PUSH1 0x4 PUSH2 0x16AC JUMP JUMPDEST PUSH2 0x78A JUMP JUMPDEST PUSH1 0x40 MLOAD PUSH2 0xA0 SWAP2 SWAP1 PUSH2 0x1D14 JUMP JUMPDEST PUSH1 0x40 MLOAD PUSH4 0x55C37053 PUSH1 0xE1 SHL DUP2 MSTORE DUP5 SWAP1 DUP5 SWAP1 PUSH1 0x1 PUSH1 0x1 PUSH1 0xA0 SHL SUB DUP4 AND SWAP1 PUSH4 0xAB86E0A6 SWAP1 PUSH2 0x128 SWAP1 ADDRESS SWAP1 DUP8 SWAP1 PUSH1 0x4 ADD PUSH2 0x19F9 JUMP JUMPDEST PUSH1 0x0 PUSH1 0x40 MLOAD DUP1 DUP4 SUB DUP2 PUSH1 0x0 DUP8 DUP1 EXTCODESIZE ISZERO DUP1 ISZERO PUSH2 0x142 JUMPI PUSH1 0x0 DUP1 REVERT JUMPDEST POP GAS CALL SWAP3 POP POP POP DUP1 ISZERO PUSH2 0x153 JUMPI POP PUSH1 0x1 JUMPDEST POP DUP6 PUSH1 0x1 PUSH1 0x1 PUSH1 0xA0 SHL SUB AND PUSH4 0xD0E30DB0 DUP5 PUSH1 0x40 MLOAD DUP3 PUSH4 0xFFFFFFFF AND PUSH1 0xE0 SHL DUP2 MSTORE PUSH1 0x4 ADD PUSH1 0x0 PUSH1 0x40 MLOAD DUP1 DUP4 SUB DUP2 DUP6 DUP9 DUP1 EXTCODESIZE ISZERO DUP1 ISZERO PUSH2 0x18F JUMPI PUSH1 0x0 DUP1 REVERT JUMPDEST POP GAS CALL SWAP4 POP POP POP POP DUP1 ISZERO PUSH2 0x1A1 JUMPI POP PUSH1 0x1 JUMPDEST POP PUSH1 0x40 MLOAD PUSH4 0x55C37053 PUSH1 0xE1 SHL DUP2 MSTORE PUSH1 0x1 PUSH1 0x1 PUSH1 0xA0 SHL SUB DUP3 AND SWAP1 PUSH4 0xAB86E0A6 SWAP1 PUSH2 0x1D1 SWAP1 ADDRESS SWAP1 PUSH1 0x0 SWAP1 PUSH1 0x4 ADD PUSH2 0x19F9 JUMP JUMPDEST PUSH1 0x0 PUSH1 0x40 MLOAD DUP1 DUP4 SUB DUP2 PUSH1 0x0 DUP8 DUP1 EXTCODESIZE ISZERO DUP1 ISZERO PUSH2 0x1EB JUMPI PUSH1 0x0 DUP1 REVERT JUMPDEST POP GAS CALL SWAP3 POP POP POP DUP1 ISZERO PUSH2 0x1FC JUMPI POP PUSH1 0x1 JUMPDEST POP PUSH1 0x40 MLOAD PUSH4 0x70A08231 PUSH1 0xE0 SHL DUP2 MSTORE DUP4 SWAP1 PUSH1 0x1 PUSH1 0x1 PUSH1 0xA0 SHL SUB DUP5 AND SWAP1 PUSH4 0x70A08231 SWAP1 PUSH2 0x22B SWAP1 ADDRESS SWAP1 PUSH1 0x4 ADD PUSH2 0x19E5 JUMP JUMPDEST PUSH1 0x20 PUSH1 0x40 MLOAD DUP1 DUP4 SUB DUP2 PUSH1 0x0 DUP8 DUP1 EXTCODESIZE ISZERO DUP1 ISZERO PUSH2 0x245 JUMPI PUSH1 0x0 DUP1 REVERT JUMPDEST POP GAS CALL ISZERO DUP1 ISZERO PUSH2 0x259 JUMPI RETURNDATASIZE PUSH1 0x0 DUP1 RETURNDATACOPY RETURNDATASIZE PUSH1 0x0 REVERT JUMPDEST POP POP POP POP PUSH1 0x40 MLOAD RETURNDATASIZE PUSH1 0x1F NOT PUSH1 0x1F DUP3 ADD AND DUP3 ADD DUP1 PUSH1 0x40 MSTORE POP DUP2 ADD SWAP1 PUSH2 0x27D SWAP2 SWAP1 PUSH2 0x18F0 JUMP JUMPDEST EQ PUSH2 0x2A3 JUMPI PUSH1 0x40 MLOAD PUSH3 0x461BCD PUSH1 0xE5 SHL DUP2 MSTORE PUSH1 0x4 ADD PUSH2 0x29A SWAP1 PUSH2 0x1C4D JUMP JUMPDEST PUSH1 0x40 MLOAD DUP1 SWAP2 SUB SWAP1 REVERT JUMPDEST PUSH1 0x40 MLOAD PUSH4 0x70A08231 PUSH1 0xE0 SHL DUP2 MSTORE PUSH1 0x1 PUSH1 0x1 PUSH1 0xA0 SHL SUB DUP3 AND SWAP1 PUSH4 0x70A08231 SWAP1 PUSH2 0x2CF SWAP1 ADDRESS SWAP1 PUSH1 0x4 ADD PUSH2 0x19E5 JUMP JUMPDEST PUSH1 0x20 PUSH1 0x40 MLOAD DUP1 DUP4 SUB DUP2 PUSH1 0x0 DUP8 DUP1 EXTCODESIZE ISZERO DUP1 ISZERO PUSH2 0x2E9 JUMPI PUSH1 0x0 DUP1 REVERT JUMPDEST POP GAS CALL ISZERO DUP1 ISZERO PUSH2 0x2FD JUMPI RETURNDATASIZE PUSH1 0x0 DUP1 RETURNDATACOPY RETURNDATASIZE PUSH1 0x0 REVERT JUMPDEST POP POP POP POP PUSH1 0x40 MLOAD RETURNDATASIZE PUSH1 0x1F NOT PUSH1 0x1F DUP3 ADD AND DUP3 ADD DUP1 PUSH1 0x40 MSTORE POP DUP2 ADD SWAP1 PUSH2 0x321 SWAP2 SWAP1 PUSH2 0x18F0 JUMP JUMPDEST ISZERO PUSH2 0x33E JUMPI PUSH1 0x40 MLOAD PUSH3 0x461BCD PUSH1 0xE5 SHL DUP2 MSTORE PUSH1 0x4 ADD PUSH2 0x29A SWAP1 PUSH2 0x1BD3 JUMP JUMPDEST PUSH1 0x40 MLOAD PUSH1 0x0 SWAP1 SELFBALANCE DUP1 ISZERO PUSH2 0x8FC MUL SWAP2 DUP4 DUP2 DUP2 DUP2 DUP6 DUP3 DUP9 CALL SWAP4 POP POP POP POP ISZERO DUP1 ISZERO PUSH2 0x36A JUMPI RETURNDATASIZE PUSH1 0x0 DUP1 RETURNDATACOPY RETURNDATASIZE PUSH1 0x0 REVERT JUMPDEST POP PUSH2 0x1337 PUSH2 0xDEF1 PUSH1 0x90 SHL ADD PUSH1 0x1 PUSH1 0x1 PUSH1 0xA0 SHL SUB AND PUSH4 0xD0AFDCA9 PUSH1 0x40 MLOAD DUP2 PUSH4 0xFFFFFFFF AND PUSH1 0xE0 SHL DUP2 MSTORE PUSH1 0x4 ADD PUSH1 0x0 PUSH1 0x40 MLOAD DUP1 DUP4 SUB DUP2 PUSH1 0x0 DUP8 DUP1 EXTCODESIZE ISZERO DUP1 ISZERO PUSH2 0x3AF JUMPI PUSH1 0x0 DUP1 REVERT JUMPDEST POP GAS CALL SWAP3 POP POP POP DUP1 ISZERO PUSH2 0x3C0 JUMPI POP PUSH1 0x1 JUMPDEST POP PUSH1 0x0 GAS SWAP1 POP PUSH1 0x0 PUSH1 0x60 ADDRESS PUSH1 0x1 PUSH1 0x1 PUSH1 0xA0 SHL SUB AND DUP11 DUP11 DUP11 DUP11 DUP11 PUSH1 0x40 MLOAD PUSH1 0x24 ADD PUSH2 0x3EC SWAP5 SWAP4 SWAP3 SWAP2 SWAP1 PUSH2 0x1A2C JUMP JUMPDEST PUSH1 0x40 DUP1 MLOAD PUSH1 0x1F NOT DUP2 DUP5 SUB ADD DUP2 MSTORE SWAP2 DUP2 MSTORE PUSH1 0x20 DUP3 ADD DUP1 MLOAD PUSH1 0x1 PUSH1 0x1 PUSH1 0xE0 SHL SUB AND PUSH1 0x1 PUSH1 0x1 PUSH1 0xE0 SHL SUB NOT SWAP1 SWAP5 AND SWAP4 SWAP1 SWAP4 OR SWAP1 SWAP3 MSTORE SWAP1 MLOAD PUSH2 0x42A SWAP2 SWAP1 PUSH2 0x19C9 JUMP JUMPDEST PUSH1 0x0 PUSH1 0x40 MLOAD DUP1 DUP4 SUB DUP2 PUSH1 0x0 DUP7 GAS CALL SWAP2 POP POP RETURNDATASIZE DUP1 PUSH1 0x0 DUP2 EQ PUSH2 0x467 JUMPI PUSH1 0x40 MLOAD SWAP2 POP PUSH1 0x1F NOT PUSH1 0x3F RETURNDATASIZE ADD AND DUP3 ADD PUSH1 0x40 MSTORE RETURNDATASIZE DUP3 MSTORE RETURNDATASIZE PUSH1 0x0 PUSH1 0x20 DUP5 ADD RETURNDATACOPY PUSH2 0x46C JUMP JUMPDEST PUSH1 0x60 SWAP2 POP JUMPDEST POP SWAP2 POP SWAP2 POP GAS DUP4 SUB SWAP3 POP PUSH2 0x1337 PUSH2 0xDEF1 PUSH1 0x90 SHL ADD PUSH1 0x1 PUSH1 0x1 PUSH1 0xA0 SHL SUB AND PUSH4 0xC18C162 PUSH1 0x40 MLOAD DUP2 PUSH4 0xFFFFFFFF AND PUSH1 0xE0 SHL DUP2 MSTORE PUSH1 0x4 ADD PUSH1 0x20 PUSH1 0x40 MLOAD DUP1 DUP4 SUB DUP2 DUP7 DUP1 EXTCODESIZE ISZERO DUP1 ISZERO PUSH2 0x4B8 JUMPI PUSH1 0x0 DUP1 REVERT JUMPDEST POP GAS STATICCALL SWAP3 POP POP POP DUP1 ISZERO PUSH2 0x4E8 JUMPI POP PUSH1 0x40 DUP1 MLOAD PUSH1 0x1F RETURNDATASIZE SWAP1 DUP2 ADD PUSH1 0x1F NOT AND DUP3 ADD SWAP1 SWAP3 MSTORE PUSH2 0x4E5 SWAP2 DUP2 ADD SWAP1 PUSH2 0x18F0 JUMP JUMPDEST PUSH1 0x1 JUMPDEST PUSH2 0x4F1 JUMPI PUSH2 0x4F6 JUMP JUMPDEST SWAP1 SWAP3 SUB SWAP2 JUMPDEST DUP2 PUSH2 0x504 JUMPI PUSH2 0x504 DUP2 PUSH2 0x7A0 JUMP JUMPDEST PUSH2 0x521 DUP2 DUP1 PUSH1 0x20 ADD SWAP1 MLOAD DUP2 ADD SWAP1 PUSH2 0x51B SWAP2 SWAP1 PUSH2 0x18F0 JUMP JUMPDEST DUP5 PUSH2 0x7A8 JUMP JUMPDEST POP POP POP POP POP POP POP POP POP POP JUMP JUMPDEST PUSH1 0x60 DUP1 PUSH1 0x60 PUSH2 0x53C DUP7 DUP7 PUSH2 0x7B9 JUMP JUMPDEST SWAP3 POP DUP3 MLOAD PUSH1 0x0 EQ ISZERO PUSH2 0x54D JUMPI PUSH2 0x5EA JUMP JUMPDEST PUSH2 0x5E4 PUSH1 0x40 MLOAD DUP1 PUSH1 0x80 ADD PUSH1 0x40 MSTORE DUP1 DUP8 PUSH1 0x0 DUP2 MLOAD DUP2 LT PUSH2 0x568 JUMPI INVALID JUMPDEST PUSH1 0x20 MUL PUSH1 0x20 ADD ADD MLOAD PUSH1 0x1 PUSH1 0x1 PUSH1 0xA0 SHL SUB AND DUP2 MSTORE PUSH1 0x20 ADD DUP8 PUSH1 0x1 DUP10 MLOAD SUB DUP2 MLOAD DUP2 LT PUSH2 0x58E JUMPI INVALID JUMPDEST PUSH1 0x20 MUL PUSH1 0x20 ADD ADD MLOAD PUSH1 0x1 PUSH1 0x1 PUSH1 0xA0 SHL SUB AND DUP2 MSTORE PUSH1 0x20 ADD DUP9 DUP7 DUP10 PUSH1 0x40 MLOAD PUSH1 0x20 ADD PUSH2 0x5B9 SWAP4 SWAP3 SWAP2 SWAP1 PUSH2 0x1A8D JUMP JUMPDEST PUSH1 0x40 DUP1 MLOAD PUSH1 0x1F NOT DUP2 DUP5 SUB ADD DUP2 MSTORE SWAP2 DUP2 MSTORE SWAP1 DUP3 MSTORE ADDRESS PUSH1 0x20 SWAP1 DUP2 SHL PUSH4 0x7A82DCB9 OR SWAP1 SWAP2 SHL SWAP2 ADD MSTORE DUP6 PUSH2 0x9B7 JUMP JUMPDEST SWAP1 SWAP3 POP SWAP1 POP JUMPDEST SWAP4 POP SWAP4 POP SWAP4 SWAP1 POP JUMP JUMPDEST PUSH1 0x60 DUP1 PUSH1 0x60 PUSH2 0x602 DUP7 DUP7 PUSH2 0x7B9 JUMP JUMPDEST SWAP3 POP DUP3 MLOAD PUSH1 0x0 EQ ISZERO PUSH2 0x613 JUMPI PUSH2 0x5EA JUMP JUMPDEST PUSH1 0x60 DUP6 MLOAD PUSH1 0x1 PUSH1 0x1 PUSH1 0x40 SHL SUB DUP2 GT DUP1 ISZERO PUSH2 0x62C JUMPI PUSH1 0x0 DUP1 REVERT JUMPDEST POP PUSH1 0x40 MLOAD SWAP1 DUP1 DUP3 MSTORE DUP1 PUSH1 0x20 MUL PUSH1 0x20 ADD DUP3 ADD PUSH1 0x40 MSTORE DUP1 ISZERO PUSH2 0x656 JUMPI DUP2 PUSH1 0x20 ADD PUSH1 0x20 DUP3 MUL DUP1 CALLDATASIZE DUP4 CALLDATACOPY ADD SWAP1 POP JUMPDEST POP SWAP1 POP PUSH1 0x0 JUMPDEST DUP7 MLOAD DUP2 LT ISZERO PUSH2 0x6AB JUMPI DUP7 PUSH1 0x1 DUP3 DUP10 MLOAD SUB SUB DUP2 MLOAD DUP2 LT PUSH2 0x677 JUMPI INVALID JUMPDEST PUSH1 0x20 MUL PUSH1 0x20 ADD ADD MLOAD DUP3 DUP3 DUP2 MLOAD DUP2 LT PUSH2 0x68B JUMPI INVALID JUMPDEST PUSH1 0x1 PUSH1 0x1 PUSH1 0xA0 SHL SUB SWAP1 SWAP3 AND PUSH1 0x20 SWAP3 DUP4 MUL SWAP2 SWAP1 SWAP2 ADD SWAP1 SWAP2 ADD MSTORE PUSH1 0x1 ADD PUSH2 0x65C JUMP JUMPDEST POP PUSH1 0x60 PUSH2 0x6B8 DUP9 DUP4 PUSH2 0x7B9 JUMP JUMPDEST SWAP1 POP PUSH2 0x77A PUSH1 0x40 MLOAD DUP1 PUSH1 0xA0 ADD PUSH1 0x40 MSTORE DUP1 DUP10 PUSH1 0x0 DUP2 MLOAD DUP2 LT PUSH2 0x6D5 JUMPI INVALID JUMPDEST PUSH1 0x20 MUL PUSH1 0x20 ADD ADD MLOAD PUSH1 0x1 PUSH1 0x1 PUSH1 0xA0 SHL SUB AND DUP2 MSTORE PUSH1 0x20 ADD DUP10 PUSH1 0x1 DUP12 MLOAD SUB DUP2 MLOAD DUP2 LT PUSH2 0x6FB JUMPI INVALID JUMPDEST PUSH1 0x20 MUL PUSH1 0x20 ADD ADD MLOAD PUSH1 0x1 PUSH1 0x1 PUSH1 0xA0 SHL SUB AND DUP2 MSTORE PUSH1 0x20 ADD DUP11 DUP9 DUP12 PUSH1 0x40 MLOAD PUSH1 0x20 ADD PUSH2 0x726 SWAP4 SWAP3 SWAP2 SWAP1 PUSH2 0x1A8D JUMP JUMPDEST PUSH1 0x40 MLOAD PUSH1 0x20 DUP2 DUP4 SUB SUB DUP2 MSTORE SWAP1 PUSH1 0x40 MSTORE DUP2 MSTORE PUSH1 0x20 ADD DUP11 DUP5 DUP7 PUSH1 0x40 MLOAD PUSH1 0x20 ADD PUSH2 0x74F SWAP4 SWAP3 SWAP2 SWAP1 PUSH2 0x1A8D JUMP JUMPDEST PUSH1 0x40 DUP1 MLOAD PUSH1 0x1F NOT DUP2 DUP5 SUB ADD DUP2 MSTORE SWAP2 DUP2 MSTORE SWAP1 DUP3 MSTORE ADDRESS PUSH1 0x20 SWAP1 DUP2 SHL PUSH4 0x7A82DCB9 OR SWAP1 SWAP2 SHL SWAP2 ADD MSTORE DUP8 PUSH2 0xBA7 JUMP JUMPDEST SWAP1 SWAP5 POP SWAP3 POP POP POP SWAP4 POP SWAP4 POP SWAP4 SWAP1 POP JUMP JUMPDEST PUSH1 0x0 PUSH2 0x797 DUP5 DUP4 DUP6 PUSH2 0x1015 JUMP JUMPDEST SWAP6 SWAP5 POP POP POP POP POP JUMP JUMPDEST DUP1 MLOAD PUSH1 0x20 DUP3 ADD REVERT JUMPDEST PUSH1 0x40 MLOAD DUP3 DUP2 MSTORE DUP2 PUSH1 0x20 DUP3 ADD MSTORE PUSH1 0x40 DUP2 REVERT JUMPDEST PUSH1 0x60 PUSH1 0x1 DUP3 MLOAD SUB PUSH1 0x1 PUSH1 0x1 PUSH1 0x40 SHL SUB DUP2 GT DUP1 ISZERO PUSH2 0x7D5 JUMPI PUSH1 0x0 DUP1 REVERT JUMPDEST POP PUSH1 0x40 MLOAD SWAP1 DUP1 DUP3 MSTORE DUP1 PUSH1 0x20 MUL PUSH1 0x20 ADD DUP3 ADD PUSH1 0x40 MSTORE DUP1 ISZERO PUSH2 0x7FF JUMPI DUP2 PUSH1 0x20 ADD PUSH1 0x20 DUP3 MUL DUP1 CALLDATASIZE DUP4 CALLDATACOPY ADD SWAP1 POP JUMPDEST POP SWAP1 POP PUSH1 0x0 DUP4 PUSH1 0x1 PUSH1 0x1 PUSH1 0xA0 SHL SUB AND PUSH4 0xC45A0155 PUSH1 0x40 MLOAD DUP2 PUSH4 0xFFFFFFFF AND PUSH1 0xE0 SHL DUP2 MSTORE PUSH1 0x4 ADD PUSH1 0x20 PUSH1 0x40 MLOAD DUP1 DUP4 SUB DUP2 DUP7 DUP1 EXTCODESIZE ISZERO DUP1 ISZERO PUSH2 0x83D JUMPI PUSH1 0x0 DUP1 REVERT JUMPDEST POP GAS STATICCALL ISZERO DUP1 ISZERO PUSH2 0x851 JUMPI RETURNDATASIZE PUSH1 0x0 DUP1 RETURNDATACOPY RETURNDATASIZE PUSH1 0x0 REVERT JUMPDEST POP POP POP POP PUSH1 0x40 MLOAD RETURNDATASIZE PUSH1 0x1F NOT PUSH1 0x1F DUP3 ADD AND DUP3 ADD DUP1 PUSH1 0x40 MSTORE POP DUP2 ADD SWAP1 PUSH2 0x875 SWAP2 SWAP1 PUSH2 0x161D JUMP JUMPDEST SWAP1 POP PUSH1 0x0 JUMPDEST DUP3 MLOAD DUP2 LT ISZERO PUSH2 0x9AE JUMPI DUP2 PUSH1 0x1 PUSH1 0x1 PUSH1 0xA0 SHL SUB AND PUSH4 0x65DA9289 PUSH3 0x249F0 DUP7 DUP5 DUP2 MLOAD DUP2 LT PUSH2 0x8A2 JUMPI INVALID JUMPDEST PUSH1 0x20 MUL PUSH1 0x20 ADD ADD MLOAD DUP8 DUP6 PUSH1 0x1 ADD DUP2 MLOAD DUP2 LT PUSH2 0x8B9 JUMPI INVALID JUMPDEST PUSH1 0x20 MUL PUSH1 0x20 ADD ADD MLOAD PUSH1 0x0 PUSH1 0x40 MLOAD DUP6 PUSH4 0xFFFFFFFF AND PUSH1 0xE0 SHL DUP2 MSTORE PUSH1 0x4 ADD PUSH2 0x8E1 SWAP4 SWAP3 SWAP2 SWAP1 PUSH2 0x1A69 JUMP JUMPDEST PUSH1 0x20 PUSH1 0x40 MLOAD DUP1 DUP4 SUB DUP2 DUP8 DUP1 EXTCODESIZE ISZERO DUP1 ISZERO PUSH2 0x8F9 JUMPI PUSH1 0x0 DUP1 REVERT JUMPDEST POP DUP7 STATICCALL SWAP4 POP POP POP POP DUP1 ISZERO PUSH2 0x92A JUMPI POP PUSH1 0x40 DUP1 MLOAD PUSH1 0x1F RETURNDATASIZE SWAP1 DUP2 ADD PUSH1 0x1F NOT AND DUP3 ADD SWAP1 SWAP3 MSTORE PUSH2 0x927 SWAP2 DUP2 ADD SWAP1 PUSH2 0x161D JUMP JUMPDEST PUSH1 0x1 JUMPDEST PUSH2 0x978 JUMPI RETURNDATASIZE DUP1 DUP1 ISZERO PUSH2 0x958 JUMPI PUSH1 0x40 MLOAD SWAP2 POP PUSH1 0x1F NOT PUSH1 0x3F RETURNDATASIZE ADD AND DUP3 ADD PUSH1 0x40 MSTORE RETURNDATASIZE DUP3 MSTORE RETURNDATASIZE PUSH1 0x0 PUSH1 0x20 DUP5 ADD RETURNDATACOPY PUSH2 0x95D JUMP JUMPDEST PUSH1 0x60 SWAP2 POP JUMPDEST POP POP PUSH1 0x40 DUP1 MLOAD PUSH1 0x0 DUP2 MSTORE PUSH1 0x20 DUP2 ADD SWAP1 SWAP2 MSTORE SWAP3 POP PUSH2 0x9B1 SWAP2 POP POP JUMP JUMPDEST DUP1 DUP5 DUP4 DUP2 MLOAD DUP2 LT PUSH2 0x985 JUMPI INVALID JUMPDEST PUSH1 0x20 MUL PUSH1 0x20 ADD ADD SWAP1 PUSH1 0x1 PUSH1 0x1 PUSH1 0xA0 SHL SUB AND SWAP1 DUP2 PUSH1 0x1 PUSH1 0x1 PUSH1 0xA0 SHL SUB AND DUP2 MSTORE POP POP POP PUSH1 0x1 ADD PUSH2 0x87A JUMP JUMPDEST POP POP JUMPDEST SWAP3 SWAP2 POP POP JUMP JUMPDEST PUSH1 0x60 DUP1 DUP3 MLOAD PUSH1 0x1 PUSH1 0x1 PUSH1 0x40 SHL SUB DUP2 GT DUP1 ISZERO PUSH2 0x9D1 JUMPI PUSH1 0x0 DUP1 REVERT JUMPDEST POP PUSH1 0x40 MLOAD SWAP1 DUP1 DUP3 MSTORE DUP1 PUSH1 0x20 MUL PUSH1 0x20 ADD DUP3 ADD PUSH1 0x40 MSTORE DUP1 ISZERO PUSH2 0x9FB JUMPI DUP2 PUSH1 0x20 ADD PUSH1 0x20 DUP3 MUL DUP1 CALLDATASIZE DUP4 CALLDATACOPY ADD SWAP1 POP JUMPDEST POP SWAP1 POP DUP3 MLOAD PUSH1 0x1 PUSH1 0x1 PUSH1 0x40 SHL SUB DUP2 GT DUP1 ISZERO PUSH2 0xA15 JUMPI PUSH1 0x0 DUP1 REVERT JUMPDEST POP PUSH1 0x40 MLOAD SWAP1 DUP1 DUP3 MSTORE DUP1 PUSH1 0x20 MUL PUSH1 0x20 ADD DUP3 ADD PUSH1 0x40 MSTORE DUP1 ISZERO PUSH2 0xA3F JUMPI DUP2 PUSH1 0x20 ADD PUSH1 0x20 DUP3 MUL DUP1 CALLDATASIZE DUP4 CALLDATACOPY ADD SWAP1 POP JUMPDEST POP SWAP2 POP PUSH1 0x0 JUMPDEST DUP4 MLOAD DUP2 LT ISZERO PUSH2 0xB9F JUMPI ADDRESS PUSH1 0x1 PUSH1 0x1 PUSH1 0xA0 SHL SUB AND PUSH4 0x27BE69E PUSH3 0x1E8480 DUP8 PUSH1 0x60 ADD MLOAD DUP1 PUSH1 0x60 SHR SWAP1 PUSH1 0x40 SHR PUSH4 0xFFFFFFFF AND SWAP1 POP PUSH1 0xE0 SHL DUP9 PUSH1 0x0 ADD MLOAD DUP10 PUSH1 0x20 ADD MLOAD DUP11 PUSH1 0x40 ADD MLOAD DUP11 DUP9 DUP2 MLOAD DUP2 LT PUSH2 0xA94 JUMPI INVALID JUMPDEST PUSH1 0x20 MUL PUSH1 0x20 ADD ADD MLOAD PUSH1 0x40 MLOAD DUP8 PUSH4 0xFFFFFFFF AND PUSH1 0xE0 SHL DUP2 MSTORE PUSH1 0x4 ADD PUSH2 0xABC SWAP6 SWAP5 SWAP4 SWAP3 SWAP2 SWAP1 PUSH2 0x1B06 JUMP JUMPDEST PUSH1 0x0 PUSH1 0x40 MLOAD DUP1 DUP4 SUB DUP2 PUSH1 0x0 DUP9 DUP1 EXTCODESIZE ISZERO DUP1 ISZERO PUSH2 0xAD6 JUMPI PUSH1 0x0 DUP1 REVERT JUMPDEST POP DUP8 CALL SWAP4 POP POP POP POP DUP1 ISZERO PUSH2 0xAE8 JUMPI POP PUSH1 0x1 JUMPDEST PUSH2 0xB7F JUMPI RETURNDATASIZE DUP1 DUP1 ISZERO PUSH2 0xB16 JUMPI PUSH1 0x40 MLOAD SWAP2 POP PUSH1 0x1F NOT PUSH1 0x3F RETURNDATASIZE ADD AND DUP3 ADD PUSH1 0x40 MSTORE RETURNDATASIZE DUP3 MSTORE RETURNDATASIZE PUSH1 0x0 PUSH1 0x20 DUP5 ADD RETURNDATACOPY PUSH2 0xB1B JUMP JUMPDEST PUSH1 0x60 SWAP2 POP JUMPDEST POP PUSH2 0xB27 DUP2 PUSH1 0x0 PUSH2 0x11AF JUMP JUMPDEST DUP5 DUP5 DUP2 MLOAD DUP2 LT PUSH2 0xB33 JUMPI INVALID JUMPDEST PUSH1 0x20 MUL PUSH1 0x20 ADD ADD DUP7 DUP6 DUP2 MLOAD DUP2 LT PUSH2 0xB46 JUMPI INVALID JUMPDEST PUSH1 0x20 MUL PUSH1 0x20 ADD ADD DUP3 DUP2 MSTORE POP DUP3 DUP2 MSTORE POP POP POP DUP3 DUP3 DUP2 MLOAD DUP2 LT PUSH2 0xB63 JUMPI INVALID JUMPDEST PUSH1 0x20 MUL PUSH1 0x20 ADD ADD MLOAD PUSH1 0x0 EQ ISZERO PUSH2 0xB79 JUMPI POP PUSH2 0xB9F JUMP JUMPDEST POP PUSH2 0xB97 JUMP JUMPDEST PUSH1 0x40 MLOAD PUSH3 0x461BCD PUSH1 0xE5 SHL DUP2 MSTORE PUSH1 0x4 ADD PUSH2 0x29A SWAP1 PUSH2 0x1C90 JUMP JUMPDEST PUSH1 0x1 ADD PUSH2 0xA45 JUMP JUMPDEST POP SWAP3 POP SWAP3 SWAP1 POP JUMP JUMPDEST PUSH1 0x60 DUP1 DUP3 MLOAD PUSH1 0x1 PUSH1 0x1 PUSH1 0x40 SHL SUB DUP2 GT DUP1 ISZERO PUSH2 0xBC1 JUMPI PUSH1 0x0 DUP1 REVERT JUMPDEST POP PUSH1 0x40 MLOAD SWAP1 DUP1 DUP3 MSTORE DUP1 PUSH1 0x20 MUL PUSH1 0x20 ADD DUP3 ADD PUSH1 0x40 MSTORE DUP1 ISZERO PUSH2 0xBEB JUMPI DUP2 PUSH1 0x20 ADD PUSH1 0x20 DUP3 MUL DUP1 CALLDATASIZE DUP4 CALLDATACOPY ADD SWAP1 POP JUMPDEST POP SWAP1 POP DUP3 MLOAD PUSH1 0x1 PUSH1 0x1 PUSH1 0x40 SHL SUB DUP2 GT DUP1 ISZERO PUSH2 0xC05 JUMPI PUSH1 0x0 DUP1 REVERT JUMPDEST POP PUSH1 0x40 MLOAD SWAP1 DUP1 DUP3 MSTORE DUP1 PUSH1 0x20 MUL PUSH1 0x20 ADD DUP3 ADD PUSH1 0x40 MSTORE DUP1 ISZERO PUSH2 0xC2F JUMPI DUP2 PUSH1 0x20 ADD PUSH1 0x20 DUP3 MUL DUP1 CALLDATASIZE DUP4 CALLDATACOPY ADD SWAP1 POP JUMPDEST POP SWAP2 POP DUP3 MLOAD PUSH1 0x0 EQ ISZERO PUSH2 0xC41 JUMPI PUSH2 0x100E JUMP JUMPDEST PUSH1 0x40 DUP1 MLOAD PUSH1 0x1 DUP1 DUP3 MSTORE DUP2 DUP4 ADD SWAP1 SWAP3 MSTORE PUSH1 0x60 SWAP2 PUSH1 0x20 DUP1 DUP4 ADD SWAP1 DUP1 CALLDATASIZE DUP4 CALLDATACOPY ADD SWAP1 POP POP SWAP1 POP DUP4 PUSH1 0x0 DUP2 MLOAD DUP2 LT PUSH2 0xC70 JUMPI INVALID JUMPDEST PUSH1 0x20 MUL PUSH1 0x20 ADD ADD MLOAD DUP2 PUSH1 0x0 DUP2 MLOAD DUP2 LT PUSH2 0xC85 JUMPI INVALID JUMPDEST PUSH1 0x20 MUL PUSH1 0x20 ADD ADD DUP2 DUP2 MSTORE POP POP PUSH2 0xC99 PUSH2 0x14AD JUMP JUMPDEST POP PUSH1 0x40 DUP1 MLOAD PUSH1 0x80 DUP1 DUP3 ADD DUP4 MSTORE DUP8 MLOAD PUSH1 0x1 PUSH1 0x1 PUSH1 0xA0 SHL SUB SWAP1 DUP2 AND DUP4 MSTORE PUSH1 0x20 DUP1 DUP11 ADD MLOAD SWAP1 SWAP2 AND SWAP1 DUP4 ADD MSTORE DUP8 DUP4 ADD MLOAD DUP3 DUP5 ADD MSTORE DUP8 ADD MLOAD PUSH5 0x100000000 PUSH1 0x1 PUSH1 0xC0 SHL SUB SWAP1 DUP4 SHR SWAP1 DUP2 AND PUSH4 0xFFFFFFFF SWAP1 SWAP2 AND OR SWAP1 SWAP2 SHL PUSH1 0x60 DUP3 ADD MSTORE PUSH2 0xCF7 PUSH2 0x14AD JUMP JUMPDEST PUSH1 0x40 MLOAD DUP1 PUSH1 0x80 ADD PUSH1 0x40 MSTORE DUP1 DUP9 PUSH1 0x20 ADD MLOAD PUSH1 0x1 PUSH1 0x1 PUSH1 0xA0 SHL SUB AND DUP2 MSTORE PUSH1 0x20 ADD DUP9 PUSH1 0x0 ADD MLOAD PUSH1 0x1 PUSH1 0x1 PUSH1 0xA0 SHL SUB AND DUP2 MSTORE PUSH1 0x20 ADD DUP9 PUSH1 0x60 ADD MLOAD DUP2 MSTORE PUSH1 0x20 ADD DUP9 PUSH1 0x80 ADD MLOAD DUP1 PUSH1 0x60 SHR SWAP1 PUSH1 0x40 SHR PUSH4 0xFFFFFFFF AND PUSH4 0xFFFFFFFF AND SWAP1 PUSH1 0x20 SHL OR PUSH1 0x40 SHL DUP2 MSTORE POP SWAP1 POP PUSH2 0xD62 DUP2 DUP5 PUSH2 0x9B7 JUMP JUMPDEST SWAP1 POP DUP1 SWAP4 POP POP DUP3 PUSH1 0x0 DUP2 MLOAD DUP2 LT PUSH2 0xD75 JUMPI INVALID JUMPDEST PUSH1 0x20 MUL PUSH1 0x20 ADD ADD MLOAD PUSH1 0x0 EQ ISZERO PUSH2 0xD8D JUMPI POP POP POP PUSH2 0x100E JUMP JUMPDEST PUSH1 0x60 PUSH2 0xD99 DUP4 DUP6 PUSH2 0x9B7 JUMP JUMPDEST SWAP1 POP DUP1 SWAP2 POP POP DUP1 PUSH1 0x0 DUP2 MLOAD DUP2 LT PUSH2 0xDAC JUMPI INVALID JUMPDEST PUSH1 0x20 MUL PUSH1 0x20 ADD ADD MLOAD PUSH1 0x0 EQ ISZERO PUSH2 0xDC5 JUMPI POP POP POP POP PUSH2 0x100E JUMP JUMPDEST PUSH1 0x0 JUMPDEST DUP8 MLOAD DUP2 LT ISZERO PUSH2 0x1008 JUMPI PUSH1 0x60 PUSH1 0x0 JUMPDEST PUSH1 0x5 DUP2 LT ISZERO PUSH2 0xF81 JUMPI PUSH2 0xE25 DUP11 DUP5 DUP2 MLOAD DUP2 LT PUSH2 0xDEE JUMPI INVALID JUMPDEST PUSH1 0x20 MUL PUSH1 0x20 ADD ADD MLOAD DUP6 PUSH1 0x0 DUP2 MLOAD DUP2 LT PUSH2 0xE03 JUMPI INVALID JUMPDEST PUSH1 0x20 MUL PUSH1 0x20 ADD ADD MLOAD DUP10 PUSH1 0x0 DUP2 MLOAD DUP2 LT PUSH2 0xE18 JUMPI INVALID JUMPDEST PUSH1 0x20 MUL PUSH1 0x20 ADD ADD MLOAD PUSH2 0x11F9 JUMP JUMPDEST DUP8 PUSH1 0x0 DUP2 MLOAD DUP2 LT PUSH2 0xE32 JUMPI INVALID JUMPDEST PUSH1 0x20 MUL PUSH1 0x20 ADD ADD DUP2 DUP2 MSTORE POP POP DUP7 PUSH1 0x0 DUP2 MLOAD DUP2 LT PUSH2 0xE4B JUMPI INVALID JUMPDEST PUSH1 0x20 MUL PUSH1 0x20 ADD ADD MLOAD PUSH1 0x0 EQ ISZERO PUSH2 0xE60 JUMPI PUSH2 0xF81 JUMP JUMPDEST PUSH2 0xE79 PUSH1 0x5 PUSH2 0x2710 ADD PUSH2 0x2710 DUP10 PUSH1 0x0 DUP2 MLOAD DUP2 LT PUSH2 0xE18 JUMPI INVALID JUMPDEST DUP8 PUSH1 0x0 DUP2 MLOAD DUP2 LT PUSH2 0xE86 JUMPI INVALID JUMPDEST PUSH1 0x20 MUL PUSH1 0x20 ADD ADD DUP2 DUP2 MSTORE POP POP DUP7 PUSH1 0x0 DUP2 MLOAD DUP2 LT PUSH2 0xE9F JUMPI INVALID JUMPDEST PUSH1 0x20 MUL PUSH1 0x20 ADD ADD MLOAD PUSH1 0x0 EQ ISZERO PUSH2 0xEB4 JUMPI PUSH2 0xF81 JUMP JUMPDEST PUSH1 0x60 PUSH2 0xEC0 DUP8 DUP10 PUSH2 0x9B7 JUMP JUMPDEST DUP1 MLOAD SWAP2 SWAP5 POP SWAP2 POP DUP2 SWAP1 PUSH1 0x0 SWAP1 PUSH2 0xED2 JUMPI INVALID JUMPDEST PUSH1 0x20 MUL PUSH1 0x20 ADD ADD MLOAD PUSH1 0x0 EQ ISZERO PUSH2 0xEE8 JUMPI POP PUSH2 0xF81 JUMP JUMPDEST DUP1 SWAP5 POP DUP11 DUP5 DUP2 MLOAD DUP2 LT PUSH2 0xEF7 JUMPI INVALID JUMPDEST PUSH1 0x20 MUL PUSH1 0x20 ADD ADD MLOAD DUP6 PUSH1 0x0 DUP2 MLOAD DUP2 LT PUSH2 0xF0C JUMPI INVALID JUMPDEST PUSH1 0x20 MUL PUSH1 0x20 ADD ADD MLOAD LT PUSH2 0xF78 JUMPI PUSH1 0x0 DUP12 DUP6 DUP2 MLOAD DUP2 LT PUSH2 0xF27 JUMPI INVALID JUMPDEST PUSH1 0x20 MUL PUSH1 0x20 ADD ADD MLOAD PUSH2 0x2710 DUP14 DUP8 DUP2 MLOAD DUP2 LT PUSH2 0xF3E JUMPI INVALID JUMPDEST PUSH1 0x20 MUL PUSH1 0x20 ADD ADD MLOAD DUP9 PUSH1 0x0 DUP2 MLOAD DUP2 LT PUSH2 0xF53 JUMPI INVALID JUMPDEST PUSH1 0x20 MUL PUSH1 0x20 ADD ADD MLOAD SUB MUL DUP2 PUSH2 0xF64 JUMPI INVALID JUMPDEST DIV SWAP1 POP PUSH1 0x5 DUP2 GT PUSH2 0xF76 JUMPI POP POP PUSH2 0xF81 JUMP JUMPDEST POP JUMPDEST POP PUSH1 0x1 ADD PUSH2 0xDD6 JUMP JUMPDEST POP DUP1 PUSH1 0x0 DUP2 MLOAD DUP2 LT PUSH2 0xF8F JUMPI INVALID JUMPDEST PUSH1 0x20 MUL PUSH1 0x20 ADD ADD MLOAD DUP9 DUP4 DUP2 MLOAD DUP2 LT PUSH2 0xFA3 JUMPI INVALID JUMPDEST PUSH1 0x20 MUL PUSH1 0x20 ADD ADD DUP2 DUP2 MSTORE POP POP PUSH2 0xFE8 DUP10 DUP4 DUP2 MLOAD DUP2 LT PUSH2 0xFBE JUMPI INVALID JUMPDEST PUSH1 0x20 MUL PUSH1 0x20 ADD ADD MLOAD DUP5 PUSH1 0x0 DUP2 MLOAD DUP2 LT PUSH2 0xFD3 JUMPI INVALID JUMPDEST PUSH1 0x20 MUL PUSH1 0x20 ADD ADD MLOAD DUP9 PUSH1 0x0 DUP2 MLOAD DUP2 LT PUSH2 0xE18 JUMPI INVALID JUMPDEST DUP8 DUP4 DUP2 MLOAD DUP2 LT PUSH2 0xFF4 JUMPI INVALID JUMPDEST PUSH1 0x20 SWAP1 DUP2 MUL SWAP2 SWAP1 SWAP2 ADD ADD MSTORE POP PUSH1 0x1 ADD PUSH2 0xDC8 JUMP JUMPDEST POP POP POP POP POP JUMPDEST SWAP3 POP SWAP3 SWAP1 POP JUMP JUMPDEST PUSH1 0x0 DUP1 PUSH1 0x60 DUP1 DUP5 DUP1 PUSH1 0x20 ADD SWAP1 MLOAD DUP2 ADD SWAP1 PUSH2 0x102F SWAP2 SWAP1 PUSH2 0x1639 JUMP JUMPDEST DUP2 MLOAD SWAP3 SWAP6 POP SWAP1 SWAP4 POP SWAP2 POP PUSH1 0x1 GT ISZERO PUSH2 0x1059 JUMPI PUSH1 0x40 MLOAD PUSH3 0x461BCD PUSH1 0xE5 SHL DUP2 MSTORE PUSH1 0x4 ADD PUSH2 0x29A SWAP1 PUSH2 0x1CC5 JUMP JUMPDEST DUP2 MLOAD PUSH1 0x1 ADD DUP2 MLOAD EQ PUSH2 0x107D JUMPI PUSH1 0x40 MLOAD PUSH3 0x461BCD PUSH1 0xE5 SHL DUP2 MSTORE PUSH1 0x4 ADD PUSH2 0x29A SWAP1 PUSH2 0x1C0A JUMP JUMPDEST DUP7 PUSH1 0x1 PUSH1 0x1 PUSH1 0xA0 SHL SUB AND DUP2 PUSH1 0x1 DUP4 MLOAD SUB DUP2 MLOAD DUP2 LT PUSH2 0x1097 JUMPI INVALID JUMPDEST PUSH1 0x20 MUL PUSH1 0x20 ADD ADD MLOAD PUSH1 0x1 PUSH1 0x1 PUSH1 0xA0 SHL SUB AND EQ PUSH2 0x10C5 JUMPI PUSH1 0x40 MLOAD PUSH3 0x461BCD PUSH1 0xE5 SHL DUP2 MSTORE PUSH1 0x4 ADD PUSH2 0x29A SWAP1 PUSH2 0x1B76 JUMP JUMPDEST PUSH2 0x10F7 DUP4 DUP8 DUP4 PUSH1 0x0 DUP2 MLOAD DUP2 LT PUSH2 0x10D7 JUMPI INVALID JUMPDEST PUSH1 0x20 MUL PUSH1 0x20 ADD ADD MLOAD PUSH1 0x1 PUSH1 0x1 PUSH1 0xA0 SHL SUB AND PUSH2 0x1251 SWAP1 SWAP3 SWAP2 SWAP1 PUSH4 0xFFFFFFFF AND JUMP JUMPDEST PUSH1 0x40 MLOAD PUSH4 0xCEB757D5 PUSH1 0xE0 SHL DUP2 MSTORE PUSH1 0x60 SWAP1 PUSH1 0x1 PUSH1 0x1 PUSH1 0xA0 SHL SUB DUP6 AND SWAP1 PUSH4 0xCEB757D5 SWAP1 PUSH2 0x1131 SWAP1 DUP11 SWAP1 PUSH1 0x1 SWAP1 DUP9 SWAP1 DUP9 SWAP1 ADDRESS SWAP1 TIMESTAMP SWAP1 PUSH1 0x4 ADD PUSH2 0x1D1D JUMP JUMPDEST PUSH1 0x0 PUSH1 0x40 MLOAD DUP1 DUP4 SUB DUP2 PUSH1 0x0 DUP8 DUP1 EXTCODESIZE ISZERO DUP1 ISZERO PUSH2 0x114B JUMPI PUSH1 0x0 DUP1 REVERT JUMPDEST POP GAS CALL ISZERO DUP1 ISZERO PUSH2 0x115F JUMPI RETURNDATASIZE PUSH1 0x0 DUP1 RETURNDATACOPY RETURNDATASIZE PUSH1 0x0 REVERT JUMPDEST POP POP POP POP PUSH1 0x40 MLOAD RETURNDATASIZE PUSH1 0x0 DUP3 RETURNDATACOPY PUSH1 0x1F RETURNDATASIZE SWAP1 DUP2 ADD PUSH1 0x1F NOT AND DUP3 ADD PUSH1 0x40 MSTORE PUSH2 0x1187 SWAP2 SWAP1 DUP2 ADD SWAP1 PUSH2 0x17DB JUMP JUMPDEST SWAP1 POP DUP1 PUSH1 0x1 DUP3 MLOAD SUB DUP2 MLOAD DUP2 LT PUSH2 0x1199 JUMPI INVALID JUMPDEST PUSH1 0x20 MUL PUSH1 0x20 ADD ADD MLOAD SWAP5 POP POP POP POP POP JUMPDEST SWAP4 SWAP3 POP POP POP JUMP JUMPDEST PUSH1 0x0 DUP1 DUP4 MLOAD PUSH1 0x40 EQ PUSH2 0x11DA JUMPI DUP3 ISZERO PUSH2 0x11CF JUMPI PUSH2 0x11CA DUP5 PUSH2 0x7A0 JUMP JUMPDEST PUSH2 0x11DA JUMP JUMPDEST POP PUSH1 0x0 SWAP1 POP DUP1 PUSH2 0x100E JUMP JUMPDEST DUP4 DUP1 PUSH1 0x20 ADD SWAP1 MLOAD DUP2 ADD SWAP1 PUSH2 0x11EE SWAP2 SWAP1 PUSH2 0x1908 JUMP JUMPDEST SWAP2 POP SWAP2 POP SWAP3 POP SWAP3 SWAP1 POP JUMP JUMPDEST PUSH1 0x0 DUP4 ISZERO DUP1 PUSH2 0x1206 JUMPI POP DUP2 ISZERO JUMPDEST DUP1 PUSH2 0x120F JUMPI POP DUP3 ISZERO JUMPDEST ISZERO PUSH2 0x121C JUMPI POP PUSH1 0x0 PUSH2 0x11A8 JUMP JUMPDEST DUP4 DUP3 MUL DUP3 DUP6 DUP3 DUP2 PUSH2 0x1229 JUMPI INVALID JUMPDEST DIV EQ PUSH2 0x1239 JUMPI PUSH1 0x0 SWAP2 POP POP PUSH2 0x11A8 JUMP JUMPDEST DUP4 PUSH1 0x1 DUP6 SUB DUP3 ADD DUP2 PUSH2 0x1247 JUMPI INVALID JUMPDEST DIV SWAP6 SWAP5 POP POP POP POP POP JUMP JUMPDEST PUSH1 0x40 MLOAD PUSH4 0x6EB1769F PUSH1 0xE1 SHL DUP2 MSTORE DUP2 SWAP1 PUSH1 0x1 PUSH1 0x1 PUSH1 0xA0 SHL SUB DUP6 AND SWAP1 PUSH4 0xDD62ED3E SWAP1 PUSH2 0x1281 SWAP1 ADDRESS SWAP1 DUP8 SWAP1 PUSH1 0x4 ADD PUSH2 0x1A12 JUMP JUMPDEST PUSH1 0x20 PUSH1 0x40 MLOAD DUP1 DUP4 SUB DUP2 DUP7 DUP1 EXTCODESIZE ISZERO DUP1 ISZERO PUSH2 0x1299 JUMPI PUSH1 0x0 DUP1 REVERT JUMPDEST POP GAS STATICCALL ISZERO DUP1 ISZERO PUSH2 0x12AD JUMPI RETURNDATASIZE PUSH1 0x0 DUP1 RETURNDATACOPY RETURNDATASIZE PUSH1 0x0 REVERT JUMPDEST POP POP POP POP PUSH1 0x40 MLOAD RETURNDATASIZE PUSH1 0x1F NOT PUSH1 0x1F DUP3 ADD AND DUP3 ADD DUP1 PUSH1 0x40 MSTORE POP DUP2 ADD SWAP1 PUSH2 0x12D1 SWAP2 SWAP1 PUSH2 0x18F0 JUMP JUMPDEST LT ISZERO PUSH2 0x12E4 JUMPI PUSH2 0x12E4 DUP4 DUP4 PUSH1 0x0 NOT PUSH2 0x12E9 JUMP JUMPDEST POP POP POP JUMP JUMPDEST PUSH1 0x60 PUSH4 0x95EA7B3 PUSH1 0xE0 SHL DUP4 DUP4 PUSH1 0x40 MLOAD PUSH1 0x24 ADD PUSH2 0x1306 SWAP3 SWAP2 SWAP1 PUSH2 0x19F9 JUMP JUMPDEST PUSH1 0x40 DUP1 MLOAD PUSH1 0x1F NOT DUP2 DUP5 SUB ADD DUP2 MSTORE SWAP2 SWAP1 MSTORE PUSH1 0x20 DUP2 ADD DUP1 MLOAD PUSH1 0x1 PUSH1 0x1 PUSH1 0xE0 SHL SUB AND PUSH1 0x1 PUSH1 0x1 PUSH1 0xE0 SHL SUB NOT SWAP1 SWAP4 AND SWAP3 SWAP1 SWAP3 OR SWAP1 SWAP2 MSTORE SWAP1 POP PUSH2 0x1344 DUP5 DUP3 PUSH2 0x134A JUMP JUMPDEST POP POP POP POP JUMP JUMPDEST PUSH1 0x0 PUSH1 0x60 DUP4 PUSH1 0x1 PUSH1 0x1 PUSH1 0xA0 SHL SUB AND DUP4 PUSH1 0x40 MLOAD PUSH2 0x1366 SWAP2 SWAP1 PUSH2 0x19C9 JUMP JUMPDEST PUSH1 0x0 PUSH1 0x40 MLOAD DUP1 DUP4 SUB DUP2 PUSH1 0x0 DUP7 GAS CALL SWAP2 POP POP RETURNDATASIZE DUP1 PUSH1 0x0 DUP2 EQ PUSH2 0x13A3 JUMPI PUSH1 0x40 MLOAD SWAP2 POP PUSH1 0x1F NOT PUSH1 0x3F RETURNDATASIZE ADD AND DUP3 ADD PUSH1 0x40 MSTORE RETURNDATASIZE DUP3 MSTORE RETURNDATASIZE PUSH1 0x0 PUSH1 0x20 DUP5 ADD RETURNDATACOPY PUSH2 0x13A8 JUMP JUMPDEST PUSH1 0x60 SWAP2 POP JUMPDEST POP SWAP2 POP SWAP2 POP DUP2 DUP1 ISZERO PUSH2 0x13BE JUMPI POP PUSH2 0x13BE DUP2 PUSH2 0x13D7 JUMP JUMPDEST ISZERO PUSH2 0x13CA JUMPI POP POP PUSH2 0x13D3 JUMP JUMPDEST PUSH2 0x1344 DUP2 PUSH2 0x7A0 JUMP JUMPDEST POP POP JUMP JUMPDEST PUSH1 0x0 DUP2 MLOAD PUSH1 0x0 EQ ISZERO PUSH2 0x13EB JUMPI POP PUSH1 0x1 PUSH2 0x1418 JUMP JUMPDEST PUSH1 0x20 DUP3 MLOAD LT PUSH2 0x1418 JUMPI PUSH1 0x0 PUSH2 0x1401 DUP4 PUSH1 0x0 PUSH2 0x141D JUMP JUMPDEST SWAP1 POP DUP1 PUSH1 0x1 EQ ISZERO PUSH2 0x1416 JUMPI PUSH1 0x1 SWAP2 POP POP PUSH2 0x1418 JUMP JUMPDEST POP JUMPDEST SWAP2 SWAP1 POP JUMP JUMPDEST PUSH1 0x0 PUSH2 0x11A8 DUP4 DUP4 PUSH1 0x0 DUP2 PUSH1 0x20 ADD DUP4 MLOAD LT ISZERO PUSH2 0x144A JUMPI PUSH2 0x144A PUSH2 0x1445 PUSH1 0x5 DUP6 MLOAD DUP6 PUSH1 0x20 ADD PUSH2 0x1453 JUMP JUMPDEST PUSH2 0x7A0 JUMP JUMPDEST POP ADD PUSH1 0x20 ADD MLOAD SWAP1 JUMP JUMPDEST PUSH1 0x60 PUSH4 0x28006595 PUSH1 0xE0 SHL DUP5 DUP5 DUP5 PUSH1 0x40 MLOAD PUSH1 0x24 ADD PUSH2 0x1472 SWAP4 SWAP3 SWAP2 SWAP1 PUSH2 0x1B54 JUMP JUMPDEST PUSH1 0x40 DUP1 MLOAD PUSH1 0x1F NOT DUP2 DUP5 SUB ADD DUP2 MSTORE SWAP2 SWAP1 MSTORE PUSH1 0x20 DUP2 ADD DUP1 MLOAD PUSH1 0x1 PUSH1 0x1 PUSH1 0xE0 SHL SUB AND PUSH1 0x1 PUSH1 0x1 PUSH1 0xE0 SHL SUB NOT SWAP1 SWAP4 AND SWAP3 SWAP1 SWAP3 OR SWAP1 SWAP2 MSTORE SWAP1 POP SWAP4 SWAP3 POP POP POP JUMP JUMPDEST PUSH1 0x40 DUP1 MLOAD PUSH1 0x80 DUP2 ADD DUP3 MSTORE PUSH1 0x0 DUP1 DUP3 MSTORE PUSH1 0x20 DUP3 ADD DUP2 SWAP1 MSTORE PUSH1 0x60 SWAP3 DUP3 ADD DUP4 SWAP1 MSTORE SWAP2 DUP2 ADD SWAP2 SWAP1 SWAP2 MSTORE SWAP1 JUMP JUMPDEST DUP1 CALLDATALOAD PUSH2 0x9B1 DUP2 PUSH2 0x1DDE JUMP JUMPDEST PUSH1 0x0 DUP3 PUSH1 0x1F DUP4 ADD SLT PUSH2 0x14F0 JUMPI DUP1 DUP2 REVERT JUMPDEST DUP2 MLOAD PUSH2 0x1503 PUSH2 0x14FE DUP3 PUSH2 0x1D93 JUMP JUMPDEST PUSH2 0x1D6D JUMP JUMPDEST DUP2 DUP2 MSTORE SWAP2 POP PUSH1 0x20 DUP1 DUP4 ADD SWAP1 DUP5 DUP2 ADD DUP2 DUP5 MUL DUP7 ADD DUP3 ADD DUP8 LT ISZERO PUSH2 0x1524 JUMPI PUSH1 0x0 DUP1 REVERT JUMPDEST PUSH1 0x0 JUMPDEST DUP5 DUP2 LT ISZERO PUSH2 0x154C JUMPI DUP2 MLOAD PUSH2 0x153A DUP2 PUSH2 0x1DDE JUMP JUMPDEST DUP5 MSTORE SWAP3 DUP3 ADD SWAP3 SWAP1 DUP3 ADD SWAP1 PUSH1 0x1 ADD PUSH2 0x1527 JUMP JUMPDEST POP POP POP POP POP SWAP3 SWAP2 POP POP JUMP JUMPDEST PUSH1 0x0 DUP3 PUSH1 0x1F DUP4 ADD SLT PUSH2 0x1567 JUMPI DUP1 DUP2 REVERT JUMPDEST DUP2 CALLDATALOAD PUSH2 0x1575 PUSH2 0x14FE DUP3 PUSH2 0x1D93 JUMP JUMPDEST DUP2 DUP2 MSTORE SWAP2 POP PUSH1 0x20 DUP1 DUP4 ADD SWAP1 DUP5 DUP2 ADD DUP2 DUP5 MUL DUP7 ADD DUP3 ADD DUP8 LT ISZERO PUSH2 0x1596 JUMPI PUSH1 0x0 DUP1 REVERT JUMPDEST PUSH1 0x0 JUMPDEST DUP5 DUP2 LT ISZERO PUSH2 0x154C JUMPI DUP2 CALLDATALOAD DUP5 MSTORE SWAP3 DUP3 ADD SWAP3 SWAP1 DUP3 ADD SWAP1 PUSH1 0x1 ADD PUSH2 0x1599 JUMP JUMPDEST PUSH1 0x0 DUP3 PUSH1 0x1F DUP4 ADD SLT PUSH2 0x15C5 JUMPI DUP1 DUP2 REVERT JUMPDEST DUP2 CALLDATALOAD PUSH1 0x1 PUSH1 0x1 PUSH1 0x40 SHL SUB DUP2 GT ISZERO PUSH2 0x15DA JUMPI DUP2 DUP3 REVERT JUMPDEST PUSH2 0x15ED PUSH1 0x1F DUP3 ADD PUSH1 0x1F NOT AND PUSH1 0x20 ADD PUSH2 0x1D6D JUMP JUMPDEST SWAP2 POP DUP1 DUP3 MSTORE DUP4 PUSH1 0x20 DUP3 DUP6 ADD ADD GT ISZERO PUSH2 0x1604 JUMPI PUSH1 0x0 DUP1 REVERT JUMPDEST DUP1 PUSH1 0x20 DUP5 ADD PUSH1 0x20 DUP5 ADD CALLDATACOPY PUSH1 0x0 SWAP1 DUP3 ADD PUSH1 0x20 ADD MSTORE SWAP3 SWAP2 POP POP JUMP JUMPDEST PUSH1 0x0 PUSH1 0x20 DUP3 DUP5 SUB SLT ISZERO PUSH2 0x162E JUMPI DUP1 DUP2 REVERT JUMPDEST DUP2 MLOAD PUSH2 0x11A8 DUP2 PUSH2 0x1DDE JUMP JUMPDEST PUSH1 0x0 DUP1 PUSH1 0x0 PUSH1 0x60 DUP5 DUP7 SUB SLT ISZERO PUSH2 0x164D JUMPI DUP2 DUP3 REVERT JUMPDEST DUP4 MLOAD PUSH2 0x1658 DUP2 PUSH2 0x1DDE JUMP JUMPDEST PUSH1 0x20 DUP6 ADD MLOAD SWAP1 SWAP4 POP PUSH1 0x1 PUSH1 0x1 PUSH1 0x40 SHL SUB DUP1 DUP3 GT ISZERO PUSH2 0x1674 JUMPI DUP4 DUP5 REVERT JUMPDEST PUSH2 0x1680 DUP8 DUP4 DUP9 ADD PUSH2 0x14E0 JUMP JUMPDEST SWAP4 POP PUSH1 0x40 DUP7 ADD MLOAD SWAP2 POP DUP1 DUP3 GT ISZERO PUSH2 0x1695 JUMPI DUP3 DUP4 REVERT JUMPDEST POP PUSH2 0x16A2 DUP7 DUP3 DUP8 ADD PUSH2 0x14E0 JUMP JUMPDEST SWAP2 POP POP SWAP3 POP SWAP3 POP SWAP3 JUMP JUMPDEST PUSH1 0x0 DUP1 PUSH1 0x0 DUP1 PUSH1 0x80 DUP6 DUP8 SUB SLT ISZERO PUSH2 0x16C1 JUMPI DUP1 DUP2 REVERT JUMPDEST DUP5 CALLDATALOAD PUSH2 0x16CC DUP2 PUSH2 0x1DDE JUMP JUMPDEST SWAP4 POP PUSH1 0x20 DUP6 ADD CALLDATALOAD PUSH2 0x16DC DUP2 PUSH2 0x1DDE JUMP JUMPDEST SWAP3 POP PUSH1 0x40 DUP6 ADD CALLDATALOAD PUSH1 0x1 PUSH1 0x1 PUSH1 0x40 SHL SUB DUP2 GT ISZERO PUSH2 0x16F6 JUMPI DUP2 DUP3 REVERT JUMPDEST PUSH2 0x1702 DUP8 DUP3 DUP9 ADD PUSH2 0x15B5 JUMP JUMPDEST SWAP5 SWAP8 SWAP4 SWAP7 POP SWAP4 SWAP5 PUSH1 0x60 ADD CALLDATALOAD SWAP4 POP POP POP JUMP JUMPDEST PUSH1 0x0 DUP1 PUSH1 0x0 PUSH1 0x60 DUP5 DUP7 SUB SLT ISZERO PUSH2 0x1727 JUMPI DUP3 DUP4 REVERT JUMPDEST DUP4 CALLDATALOAD PUSH2 0x1732 DUP2 PUSH2 0x1DDE JUMP JUMPDEST SWAP3 POP PUSH1 0x20 DUP5 DUP2 ADD CALLDATALOAD PUSH1 0x1 PUSH1 0x1 PUSH1 0x40 SHL SUB DUP1 DUP3 GT ISZERO PUSH2 0x174E JUMPI DUP5 DUP6 REVERT JUMPDEST DUP2 DUP8 ADD SWAP2 POP DUP8 PUSH1 0x1F DUP4 ADD SLT PUSH2 0x1761 JUMPI DUP5 DUP6 REVERT JUMPDEST DUP2 CALLDATALOAD PUSH2 0x176F PUSH2 0x14FE DUP3 PUSH2 0x1D93 JUMP JUMPDEST DUP2 DUP2 MSTORE DUP5 DUP2 ADD SWAP1 DUP5 DUP7 ADD DUP7 DUP5 MUL DUP7 ADD DUP8 ADD DUP13 LT ISZERO PUSH2 0x178B JUMPI DUP9 DUP10 REVERT JUMPDEST DUP9 SWAP6 POP JUMPDEST DUP4 DUP7 LT ISZERO PUSH2 0x17B5 JUMPI PUSH2 0x17A1 DUP13 DUP3 PUSH2 0x14D5 JUMP JUMPDEST DUP4 MSTORE PUSH1 0x1 SWAP6 SWAP1 SWAP6 ADD SWAP5 SWAP2 DUP7 ADD SWAP2 DUP7 ADD PUSH2 0x178F JUMP JUMPDEST POP SWAP7 POP POP POP PUSH1 0x40 DUP8 ADD CALLDATALOAD SWAP3 POP DUP1 DUP4 GT ISZERO PUSH2 0x17CD JUMPI DUP4 DUP5 REVERT JUMPDEST POP POP PUSH2 0x16A2 DUP7 DUP3 DUP8 ADD PUSH2 0x1557 JUMP JUMPDEST PUSH1 0x0 PUSH1 0x20 DUP1 DUP4 DUP6 SUB SLT ISZERO PUSH2 0x17ED JUMPI DUP2 DUP3 REVERT JUMPDEST DUP3 MLOAD PUSH1 0x1 PUSH1 0x1 PUSH1 0x40 SHL SUB DUP2 GT ISZERO PUSH2 0x1802 JUMPI DUP3 DUP4 REVERT JUMPDEST DUP4 ADD PUSH1 0x1F DUP2 ADD DUP6 SGT PUSH2 0x1812 JUMPI DUP3 DUP4 REVERT JUMPDEST DUP1 MLOAD PUSH2 0x1820 PUSH2 0x14FE DUP3 PUSH2 0x1D93 JUMP JUMPDEST DUP2 DUP2 MSTORE DUP4 DUP2 ADD SWAP1 DUP4 DUP6 ADD DUP6 DUP5 MUL DUP6 ADD DUP7 ADD DUP10 LT ISZERO PUSH2 0x183C JUMPI DUP7 DUP8 REVERT JUMPDEST DUP7 SWAP5 POP JUMPDEST DUP4 DUP6 LT ISZERO PUSH2 0x185E JUMPI DUP1 MLOAD DUP4 MSTORE PUSH1 0x1 SWAP5 SWAP1 SWAP5 ADD SWAP4 SWAP2 DUP6 ADD SWAP2 DUP6 ADD PUSH2 0x1840 JUMP JUMPDEST POP SWAP8 SWAP7 POP POP POP POP POP POP POP JUMP JUMPDEST PUSH1 0x0 DUP1 PUSH1 0x0 DUP1 PUSH1 0x0 PUSH1 0xA0 DUP7 DUP9 SUB SLT ISZERO PUSH2 0x1881 JUMPI DUP1 DUP2 REVERT JUMPDEST DUP6 CALLDATALOAD PUSH1 0x1 PUSH1 0x1 PUSH1 0xE0 SHL SUB NOT DUP2 AND DUP2 EQ PUSH2 0x1898 JUMPI DUP2 DUP3 REVERT JUMPDEST SWAP5 POP PUSH1 0x20 DUP7 ADD CALLDATALOAD PUSH2 0x18A8 DUP2 PUSH2 0x1DDE JUMP JUMPDEST SWAP4 POP PUSH1 0x40 DUP7 ADD CALLDATALOAD PUSH2 0x18B8 DUP2 PUSH2 0x1DDE JUMP JUMPDEST SWAP3 POP PUSH1 0x60 DUP7 ADD CALLDATALOAD PUSH1 0x1 PUSH1 0x1 PUSH1 0x40 SHL SUB DUP2 GT ISZERO PUSH2 0x18D2 JUMPI DUP2 DUP3 REVERT JUMPDEST PUSH2 0x18DE DUP9 DUP3 DUP10 ADD PUSH2 0x15B5 JUMP JUMPDEST SWAP6 SWAP9 SWAP5 SWAP8 POP SWAP3 SWAP6 PUSH1 0x80 ADD CALLDATALOAD SWAP4 SWAP3 POP POP POP JUMP JUMPDEST PUSH1 0x0 PUSH1 0x20 DUP3 DUP5 SUB SLT ISZERO PUSH2 0x1901 JUMPI DUP1 DUP2 REVERT JUMPDEST POP MLOAD SWAP2 SWAP1 POP JUMP JUMPDEST PUSH1 0x0 DUP1 PUSH1 0x40 DUP4 DUP6 SUB SLT ISZERO PUSH2 0x191A JUMPI DUP2 DUP3 REVERT JUMPDEST POP POP DUP1 MLOAD PUSH1 0x20 SWAP1 SWAP2 ADD MLOAD SWAP1 SWAP3 SWAP1 SWAP2 POP JUMP JUMPDEST PUSH1 0x0 DUP2 MLOAD DUP1 DUP5 MSTORE PUSH1 0x20 DUP1 DUP6 ADD SWAP5 POP DUP1 DUP5 ADD DUP4 JUMPDEST DUP4 DUP2 LT ISZERO PUSH2 0x1963 JUMPI DUP2 MLOAD PUSH1 0x1 PUSH1 0x1 PUSH1 0xA0 SHL SUB AND DUP8 MSTORE SWAP6 DUP3 ADD SWAP6 SWAP1 DUP3 ADD SWAP1 PUSH1 0x1 ADD PUSH2 0x193E JUMP JUMPDEST POP SWAP5 SWAP6 SWAP5 POP POP POP POP POP JUMP JUMPDEST PUSH1 0x0 DUP2 MLOAD DUP1 DUP5 MSTORE PUSH1 0x20 DUP1 DUP6 ADD SWAP5 POP DUP1 DUP5 ADD DUP4 JUMPDEST DUP4 DUP2 LT ISZERO PUSH2 0x1963 JUMPI DUP2 MLOAD DUP8 MSTORE SWAP6 DUP3 ADD SWAP6 SWAP1 DUP3 ADD SWAP1 PUSH1 0x1 ADD PUSH2 0x1981 JUMP JUMPDEST PUSH1 0x0 DUP2 MLOAD DUP1 DUP5 MSTORE PUSH2 0x19B5 DUP2 PUSH1 0x20 DUP7 ADD PUSH1 0x20 DUP7 ADD PUSH2 0x1DB2 JUMP JUMPDEST PUSH1 0x1F ADD PUSH1 0x1F NOT AND SWAP3 SWAP1 SWAP3 ADD PUSH1 0x20 ADD SWAP3 SWAP2 POP POP JUMP JUMPDEST PUSH1 0x0 DUP3 MLOAD PUSH2 0x19DB DUP2 DUP5 PUSH1 0x20 DUP8 ADD PUSH2 0x1DB2 JUMP JUMPDEST SWAP2 SWAP1 SWAP2 ADD SWAP3 SWAP2 POP POP JUMP JUMPDEST PUSH1 0x1 PUSH1 0x1 PUSH1 0xA0 SHL SUB SWAP2 SWAP1 SWAP2 AND DUP2 MSTORE PUSH1 0x20 ADD SWAP1 JUMP JUMPDEST PUSH1 0x1 PUSH1 0x1 PUSH1 0xA0 SHL SUB SWAP3 SWAP1 SWAP3 AND DUP3 MSTORE PUSH1 0x20 DUP3 ADD MSTORE PUSH1 0x40 ADD SWAP1 JUMP JUMPDEST PUSH1 0x1 PUSH1 0x1 PUSH1 0xA0 SHL SUB SWAP3 DUP4 AND DUP2 MSTORE SWAP2 AND PUSH1 0x20 DUP3 ADD MSTORE PUSH1 0x40 ADD SWAP1 JUMP JUMPDEST PUSH1 0x1 PUSH1 0x1 PUSH1 0xA0 SHL SUB DUP6 DUP2 AND DUP3 MSTORE DUP5 AND PUSH1 0x20 DUP3 ADD MSTORE PUSH1 0x80 PUSH1 0x40 DUP3 ADD DUP2 SWAP1 MSTORE PUSH1 0x0 SWAP1 PUSH2 0x1A58 SWAP1 DUP4 ADD DUP6 PUSH2 0x199D JUMP JUMPDEST SWAP1 POP DUP3 PUSH1 0x60 DUP4 ADD MSTORE SWAP6 SWAP5 POP POP POP POP POP JUMP JUMPDEST PUSH1 0x1 PUSH1 0x1 PUSH1 0xA0 SHL SUB SWAP4 DUP5 AND DUP2 MSTORE SWAP2 SWAP1 SWAP3 AND PUSH1 0x20 DUP3 ADD MSTORE PUSH1 0x40 DUP2 ADD SWAP2 SWAP1 SWAP2 MSTORE PUSH1 0x60 ADD SWAP1 JUMP JUMPDEST PUSH1 0x1 PUSH1 0x1 PUSH1 0xA0 SHL SUB DUP5 AND DUP2 MSTORE PUSH1 0x60 PUSH1 0x20 DUP3 ADD DUP2 SWAP1 MSTORE PUSH1 0x0 SWAP1 PUSH2 0x1AB1 SWAP1 DUP4 ADD DUP6 PUSH2 0x192B JUMP JUMPDEST DUP3 DUP2 SUB PUSH1 0x40 DUP5 ADD MSTORE PUSH2 0x1AC3 DUP2 DUP6 PUSH2 0x192B JUMP JUMPDEST SWAP7 SWAP6 POP POP POP POP POP POP JUMP JUMPDEST PUSH1 0x0 PUSH1 0x60 DUP3 MSTORE PUSH2 0x1AE0 PUSH1 0x60 DUP4 ADD DUP7 PUSH2 0x192B JUMP JUMPDEST DUP3 DUP2 SUB PUSH1 0x20 DUP5 ADD MSTORE PUSH2 0x1AF2 DUP2 DUP7 PUSH2 0x196E JUMP JUMPDEST SWAP1 POP DUP3 DUP2 SUB PUSH1 0x40 DUP5 ADD MSTORE PUSH2 0x1AC3 DUP2 DUP6 PUSH2 0x196E JUMP JUMPDEST PUSH1 0x1 PUSH1 0x1 PUSH1 0xE0 SHL SUB NOT DUP7 AND DUP2 MSTORE PUSH1 0x1 PUSH1 0x1 PUSH1 0xA0 SHL SUB DUP6 DUP2 AND PUSH1 0x20 DUP4 ADD MSTORE DUP5 AND PUSH1 0x40 DUP3 ADD MSTORE PUSH1 0xA0 PUSH1 0x60 DUP3 ADD DUP2 SWAP1 MSTORE PUSH1 0x0 SWAP1 PUSH2 0x1B42 SWAP1 DUP4 ADD DUP6 PUSH2 0x199D JUMP JUMPDEST SWAP1 POP DUP3 PUSH1 0x80 DUP4 ADD MSTORE SWAP7 SWAP6 POP POP POP POP POP POP JUMP JUMPDEST PUSH1 0x60 DUP2 ADD PUSH1 0x8 DUP6 LT PUSH2 0x1B62 JUMPI INVALID JUMPDEST SWAP4 DUP2 MSTORE PUSH1 0x20 DUP2 ADD SWAP3 SWAP1 SWAP3 MSTORE PUSH1 0x40 SWAP1 SWAP2 ADD MSTORE SWAP1 JUMP JUMPDEST PUSH1 0x20 DUP1 DUP3 MSTORE PUSH1 0x3A SWAP1 DUP3 ADD MSTORE PUSH32 0x4D6978696E4B79626572446D6D2F4C4153545F454C454D454E545F4F465F5041 PUSH1 0x40 DUP3 ADD MSTORE PUSH32 0x54485F4D5553545F4D415443485F4F55545055545F544F4B454E000000000000 PUSH1 0x60 DUP3 ADD MSTORE PUSH1 0x80 ADD SWAP1 JUMP JUMPDEST PUSH1 0x20 DUP1 DUP3 MSTORE PUSH1 0x1D SWAP1 DUP3 ADD MSTORE PUSH32 0x42616C616E6365206F6620627579546F6B656E206D7573742062652030000000 PUSH1 0x40 DUP3 ADD MSTORE PUSH1 0x60 ADD SWAP1 JUMP JUMPDEST PUSH1 0x20 DUP1 DUP3 MSTORE PUSH1 0x23 SWAP1 DUP3 ADD MSTORE PUSH32 0x4D6978696E4B79626572446D6D2F41525241595F4C454E4754485F4D49534D41 PUSH1 0x40 DUP3 ADD MSTORE PUSH3 0xA8869 PUSH1 0xEB SHL PUSH1 0x60 DUP3 ADD MSTORE PUSH1 0x80 ADD SWAP1 JUMP JUMPDEST PUSH1 0x20 DUP1 DUP3 MSTORE PUSH1 0x23 SWAP1 DUP3 ADD MSTORE PUSH32 0x4661696C656420746F206D696E74206F72206465706F7369742073656C6C546F PUSH1 0x40 DUP3 ADD MSTORE PUSH3 0x35B2B7 PUSH1 0xE9 SHL PUSH1 0x60 DUP3 ADD MSTORE PUSH1 0x80 ADD SWAP1 JUMP JUMPDEST PUSH1 0x20 DUP1 DUP3 MSTORE DUP2 DUP2 ADD MSTORE PUSH32 0x537761702053616D706C652073686F756C642068617665207265766572746564 PUSH1 0x40 DUP3 ADD MSTORE PUSH1 0x60 ADD SWAP1 JUMP JUMPDEST PUSH1 0x20 DUP1 DUP3 MSTORE PUSH1 0x2F SWAP1 DUP3 ADD MSTORE PUSH32 0x4D6978696E4B79626572446D6D2F504F4F4C535F4C454E4754485F4D5553545F PUSH1 0x40 DUP3 ADD MSTORE PUSH15 0x42455F41545F4C454153545F4F4E45 PUSH1 0x88 SHL PUSH1 0x60 DUP3 ADD MSTORE PUSH1 0x80 ADD SWAP1 JUMP JUMPDEST SWAP1 DUP2 MSTORE PUSH1 0x20 ADD SWAP1 JUMP JUMPDEST PUSH1 0x0 DUP8 DUP3 MSTORE DUP7 PUSH1 0x20 DUP4 ADD MSTORE PUSH1 0xC0 PUSH1 0x40 DUP4 ADD MSTORE PUSH2 0x1D3C PUSH1 0xC0 DUP4 ADD DUP8 PUSH2 0x192B JUMP JUMPDEST DUP3 DUP2 SUB PUSH1 0x60 DUP5 ADD MSTORE PUSH2 0x1D4E DUP2 DUP8 PUSH2 0x192B JUMP JUMPDEST PUSH1 0x1 PUSH1 0x1 PUSH1 0xA0 SHL SUB SWAP6 SWAP1 SWAP6 AND PUSH1 0x80 DUP5 ADD MSTORE POP POP PUSH1 0xA0 ADD MSTORE SWAP5 SWAP4 POP POP POP POP JUMP JUMPDEST PUSH1 0x40 MLOAD DUP2 DUP2 ADD PUSH1 0x1 PUSH1 0x1 PUSH1 0x40 SHL SUB DUP2 GT DUP3 DUP3 LT OR ISZERO PUSH2 0x1D8B JUMPI PUSH1 0x0 DUP1 REVERT JUMPDEST PUSH1 0x40 MSTORE SWAP2 SWAP1 POP JUMP JUMPDEST PUSH1 0x0 PUSH1 0x1 PUSH1 0x1 PUSH1 0x40 SHL SUB DUP3 GT ISZERO PUSH2 0x1DA8 JUMPI DUP1 DUP2 REVERT JUMPDEST POP PUSH1 0x20 SWAP1 DUP2 MUL ADD SWAP1 JUMP JUMPDEST PUSH1 0x0 JUMPDEST DUP4 DUP2 LT ISZERO PUSH2 0x1DCD JUMPI DUP2 DUP2 ADD MLOAD DUP4 DUP3 ADD MSTORE PUSH1 0x20 ADD PUSH2 0x1DB5 JUMP JUMPDEST DUP4 DUP2 GT ISZERO PUSH2 0x1344 JUMPI POP POP PUSH1 0x0 SWAP2 ADD MSTORE JUMP JUMPDEST PUSH1 0x1 PUSH1 0x1 PUSH1 0xA0 SHL SUB DUP2 AND DUP2 EQ PUSH2 0x1DF3 JUMPI PUSH1 0x0 DUP1 REVERT JUMPDEST POP JUMP INVALID LOG2 PUSH5 0x6970667358 0x22 SLT KECCAK256 0x4D 0xA6 PUSH31 0x9489604F745FD79F55C5A76C85BB1DDE585DB43E1116FB4582DAA735486473 PUSH16 0x6C634300060C00330000000000000000 "
            }
        }
    },
    "sourceTreeHashHex": "0x1aa67bd87b7caefd4845c698bb4f8e6eed1e663bd36030d897861d379df3144c",
    "compiler": {
        "name": "solc",
        "version": "0.6.12+commit.27d51765",
        "settings": {
            "remappings": [
                "@0x/contracts-zero-ex=/Users/jacob/projects/ethdev/0x/workspace-remote/workspace/0x-monorepo/packages/asset-swapper/node_modules/@0x/contracts-zero-ex",
                "@0x/contracts-erc20=/Users/jacob/projects/ethdev/0x/workspace-remote/workspace/0x-monorepo/packages/asset-swapper/node_modules/@0x/contracts-erc20",
                "@0x/contracts-utils=/Users/jacob/projects/ethdev/0x/workspace-remote/workspace/0x-monorepo/packages/asset-swapper/node_modules/@0x/contracts-utils"
            ],
            "optimizer": {
                "enabled": true,
                "runs": 200,
                "details": {
                    "yul": true,
                    "deduplicate": true
                }
            },
            "outputSelection": {
                "*": {
                    "*": [
                        "abi",
                        "devdoc",
                        "evm.bytecode.object",
                        "evm.bytecode.sourceMap",
                        "evm.deployedBytecode.object",
                        "evm.deployedBytecode.sourceMap"
                    ]
                }
            },
            "evmVersion": "istanbul"
        }
    },
    "chains": {}
}