{
    "schemaVersion": "2.0.0",
    "contractName": "KyberSampler",
    "compilerOutput": {
        "abi": [
            {
                "inputs": [
                    {
                        "components": [
                            {
                                "internalType": "uint256",
                                "name": "reserveOffset",
                                "type": "uint256"
                            },
                            {
                                "internalType": "address",
                                "name": "hintHandler",
                                "type": "address"
                            },
                            {
                                "internalType": "address",
                                "name": "networkProxy",
                                "type": "address"
                            },
                            {
                                "internalType": "address",
                                "name": "weth",
                                "type": "address"
                            },
                            {
                                "internalType": "bytes",
                                "name": "hint",
                                "type": "bytes"
                            }
                        ],
                        "internalType": "struct KyberSampler.KyberSamplerOpts",
                        "name": "opts",
                        "type": "tuple"
                    },
                    {
                        "internalType": "bytes32",
                        "name": "reserveId",
                        "type": "bytes32"
                    },
                    {
                        "internalType": "address",
                        "name": "takerToken",
                        "type": "address"
                    },
                    {
                        "internalType": "address",
                        "name": "makerToken",
                        "type": "address"
                    }
                ],
                "name": "encodeKyberHint",
                "outputs": [
                    {
                        "internalType": "bytes",
                        "name": "hint",
                        "type": "bytes"
                    }
                ],
                "stateMutability": "view",
                "type": "function"
            },
            {
                "inputs": [
                    {
                        "components": [
                            {
                                "internalType": "uint256",
                                "name": "reserveOffset",
                                "type": "uint256"
                            },
                            {
                                "internalType": "address",
                                "name": "hintHandler",
                                "type": "address"
                            },
                            {
                                "internalType": "address",
                                "name": "networkProxy",
                                "type": "address"
                            },
                            {
                                "internalType": "address",
                                "name": "weth",
                                "type": "address"
                            },
                            {
                                "internalType": "bytes",
                                "name": "hint",
                                "type": "bytes"
                            }
                        ],
                        "internalType": "struct KyberSampler.KyberSamplerOpts",
                        "name": "opts",
                        "type": "tuple"
                    },
                    {
                        "internalType": "address",
                        "name": "takerToken",
                        "type": "address"
                    },
                    {
                        "internalType": "address",
                        "name": "makerToken",
                        "type": "address"
                    },
                    {
                        "internalType": "uint256[]",
                        "name": "makerTokenAmounts",
                        "type": "uint256[]"
                    }
                ],
                "name": "sampleBuysFromKyberNetwork",
                "outputs": [
                    {
                        "internalType": "bytes32",
                        "name": "reserveId",
                        "type": "bytes32"
                    },
                    {
                        "internalType": "bytes",
                        "name": "hint",
                        "type": "bytes"
                    },
                    {
                        "internalType": "uint256[]",
                        "name": "takerTokenAmounts",
                        "type": "uint256[]"
                    }
                ],
                "stateMutability": "view",
                "type": "function"
            },
            {
                "inputs": [
                    {
                        "components": [
                            {
                                "internalType": "uint256",
                                "name": "reserveOffset",
                                "type": "uint256"
                            },
                            {
                                "internalType": "address",
                                "name": "hintHandler",
                                "type": "address"
                            },
                            {
                                "internalType": "address",
                                "name": "networkProxy",
                                "type": "address"
                            },
                            {
                                "internalType": "address",
                                "name": "weth",
                                "type": "address"
                            },
                            {
                                "internalType": "bytes",
                                "name": "hint",
                                "type": "bytes"
                            }
                        ],
                        "internalType": "struct KyberSampler.KyberSamplerOpts",
                        "name": "opts",
                        "type": "tuple"
                    },
                    {
                        "internalType": "address",
                        "name": "takerToken",
                        "type": "address"
                    },
                    {
                        "internalType": "address",
                        "name": "makerToken",
                        "type": "address"
                    },
                    {
                        "internalType": "uint256",
                        "name": "takerTokenAmount",
                        "type": "uint256"
                    }
                ],
                "name": "sampleSellFromKyberNetwork",
                "outputs": [
                    {
                        "internalType": "uint256",
                        "name": "makerTokenAmount",
                        "type": "uint256"
                    }
                ],
                "stateMutability": "view",
                "type": "function"
            },
            {
                "inputs": [
                    {
                        "components": [
                            {
                                "internalType": "uint256",
                                "name": "reserveOffset",
                                "type": "uint256"
                            },
                            {
                                "internalType": "address",
                                "name": "hintHandler",
                                "type": "address"
                            },
                            {
                                "internalType": "address",
                                "name": "networkProxy",
                                "type": "address"
                            },
                            {
                                "internalType": "address",
                                "name": "weth",
                                "type": "address"
                            },
                            {
                                "internalType": "bytes",
                                "name": "hint",
                                "type": "bytes"
                            }
                        ],
                        "internalType": "struct KyberSampler.KyberSamplerOpts",
                        "name": "opts",
                        "type": "tuple"
                    },
                    {
                        "internalType": "address",
                        "name": "takerToken",
                        "type": "address"
                    },
                    {
                        "internalType": "address",
                        "name": "makerToken",
                        "type": "address"
                    },
                    {
                        "internalType": "uint256[]",
                        "name": "takerTokenAmounts",
                        "type": "uint256[]"
                    }
                ],
                "name": "sampleSellsFromKyberNetwork",
                "outputs": [
                    {
                        "internalType": "bytes32",
                        "name": "reserveId",
                        "type": "bytes32"
                    },
                    {
                        "internalType": "bytes",
                        "name": "hint",
                        "type": "bytes"
                    },
                    {
                        "internalType": "uint256[]",
                        "name": "makerTokenAmounts",
                        "type": "uint256[]"
                    }
                ],
                "stateMutability": "view",
                "type": "function"
            }
        ],
        "devdoc": {
            "kind": "dev",
            "methods": {
                "sampleBuysFromKyberNetwork((uint256,address,address,address,bytes),address,address,uint256[])": {
                    "details": "Sample buy quotes from Kyber.",
                    "params": {
                        "makerToken": "Address of the maker token (what to buy).",
                        "makerTokenAmounts": "Maker token buy amount for each sample.",
                        "opts": "KyberSamplerOpts The nth reserve",
                        "takerToken": "Address of the taker token (what to sell)."
                    },
                    "returns": {
                        "hint": "The hint for the selected reserve",
                        "reserveId": "The id of the reserve found at reserveOffset",
                        "takerTokenAmounts": "Taker amounts sold at each maker token amount."
                    }
                },
                "sampleSellsFromKyberNetwork((uint256,address,address,address,bytes),address,address,uint256[])": {
                    "details": "Sample sell quotes from Kyber.",
                    "params": {
                        "makerToken": "Address of the maker token (what to buy).",
                        "opts": "KyberSamplerOpts The nth reserve",
                        "takerToken": "Address of the taker token (what to sell).",
                        "takerTokenAmounts": "Taker token sell amount for each sample."
                    },
                    "returns": {
                        "hint": "The hint for the selected reserve",
                        "makerTokenAmounts": "Maker amounts bought at each taker token amount.",
                        "reserveId": "The id of the reserve found at reserveOffset"
                    }
                }
            },
            "stateVariables": {
                "KYBER_CALL_GAS": {
                    "details": "Gas limit for Kyber calls."
                },
                "KYBER_ETH_ADDRESS": {
                    "details": "Kyber ETH pseudo-address."
                }
            },
            "version": 1
        },
        "evm": {
            "bytecode": {
                "linkReferences": {},
                "object": "0x608060405234801561001057600080fd5b50611aba806100206000396000f3fe608060405234801561001057600080fd5b506004361061004c5760003560e01c80634edfb5b2146100515780639e3f05c31461007a578063cc1621c91461009c578063f1ed7fa4146100af575b600080fd5b61006461005f3660046113f9565b6100cf565b604051610071919061185e565b60405180910390f35b61008d610088366004611300565b610355565b6040516100719392919061182a565b61008d6100aa366004611300565b61047c565b6100c26100bd36600461138e565b610662565b604051610071919061191b565b6020848101516040805160018082528183019092526060938492908281019080368337019050509050858160008151811061010657fe5b60209081029190910101526060600060405190808252806020026020018201604052801561013e578160200160208202803683370190505b50905087606001516001600160a01b0316866001600160a01b0316141561022f576040516381efcbdd60e01b81526001600160a01b038416906381efcbdd906207a1209061019790899060019088908890600401611737565b60006040518083038187803b1580156101af57600080fd5b5086fa935050505080156101e557506040513d6000823e601f3d908101601f191682016040526101e291908101906112cc565b60015b61021f573d808015610213576040519150601f19603f3d011682016040523d82523d6000602084013e610218565b606091505b505061022a565b935061034d92505050565b610349565b87606001516001600160a01b0316856001600160a01b03161415610285576040516361e597f960e01b81526001600160a01b038416906361e597f9906207a12090610197908a9060019088908890600401611737565b6040516302b9a6cd60e11b81526001600160a01b038416906305734d9a906207a120906102c5908a90600190889088908d90849084908490600401611778565b60006040518083038187803b1580156102dd57600080fd5b5086fa9350505050801561031357506040513d6000823e601f3d908101601f1916820160405261031091908101906112cc565b60015b61021f573d808015610341576040519150601f19603f3d011682016040523d82523d6000602084013e610346565b606091505b50505b5050505b949350505050565b60006060806103648587610801565b61036f878787610840565b92508261037b57610472565b60405163276fdad960e11b81523090634edfb5b2906103a4908a9087908b908b906004016118e1565b60006040518083038186803b1580156103bc57600080fd5b505afa1580156103d0573d6000803e3d6000fd5b505050506040513d6000823e601f3d908101601f191682016040526103f891908101906112cc565b87608001819052508660800151915061046f6040518060600160405280878a60405160200161042892919061180a565b6040516020818303038152906040528152602001888a60405160200161044f92919061180a565b60405160208183030381529060405281526020016109b181525085610aab565b90505b9450945094915050565b600060608061048b8587610801565b610496878787610840565b9250826104a257610472565b60405163276fdad960e11b81523090634edfb5b2906104cb908a9087908b908b906004016118e1565b60006040518083038186803b1580156104e357600080fd5b505afa1580156104f7573d6000803e3d6000fd5b505050506040513d6000823e601f3d908101601f1916820160405261051f91908101906112cc565b608088018190528451909250806001600160401b038111801561054157600080fd5b5060405190808252806020026020018201604052801561056b578160200160208202803683370190505b50915060005b81811015610656576000306001600160a01b031663f1ed7fa48b8b8b8b878151811061059957fe5b60200260200101516040518563ffffffff1660e01b81526004016105c094939291906118a7565b60206040518083038186803b1580156105d857600080fd5b505afa1580156105ec573d6000803e3d6000fd5b505050506040513d601f19601f820116820180604052508101906106109190611464565b90508084838151811061061f57fe5b60200260200101818152505083828151811061063757fe5b60200260200101516000141561064d5750610656565b50600101610571565b50509450945094915050565b60008460800151516000141561067a5750600061034d565b84604001516001600160a01b031663418436bc6207a12087606001516001600160a01b0316876001600160a01b0316146106b457866106ca565b73eeeeeeeeeeeeeeeeeeeeeeeeeeeeeeeeeeeeeeee5b88606001516001600160a01b0316876001600160a01b0316146106ed5786610703565b73eeeeeeeeeeeeeeeeeeeeeeeeeeeeeeeeeeeeeeee5b8660008b608001516040518763ffffffff1660e01b815260040161072b9594939291906116e5565b60206040518083038187803b15801561074357600080fd5b5086fa93505050508015610774575060408051601f3d908101601f1916820190925261077191810190611464565b60015b6107b2573d8080156107a2576040519150601f19603f3d011682016040523d82523d6000602084013e6107a7565b606091505b50600091505061034d565b60006107bd85610cbe565b60ff16905060006107cd87610cbe565b60ff169050670de0b6b3a764000081600a0a83600a0a87860202816107ee57fe5b04816107f657fe5b04935050505061034d565b806001600160a01b0316826001600160a01b0316141561083c5760405162461bcd60e51b815260040161083390611897565b60405180910390fd5b5050565b600080846020015190506060816001600160a01b031663910ffc7187606001516001600160a01b0316876001600160a01b03161461087e5786610894565b73eeeeeeeeeeeeeeeeeeeeeeeeeeeeeeeeeeeeeeee5b88606001516001600160a01b0316876001600160a01b0316146108b757866108cd565b73eeeeeeeeeeeeeeeeeeeeeeeeeeeeeeeeeeeeeeee5b604080516000815260208101918290526001600160e01b031960e086901b16909152610901929190600190602481016116a1565b60006040518083038186803b15801561091957600080fd5b505afa15801561092d573d6000803e3d6000fd5b505050506040513d6000823e601f3d908101601f191682016040526109559190810190611252565b5050905080518660000151106109715750600091506109aa9050565b8086600001518151811061098157fe5b6020026020010151925060f883901c60001c60bb14156109a75750600091506109aa9050565b50505b9392505050565b6000806109bc610e6d565b848060200190518101906109d09190611201565b915091506000868060200190518101906109ea9190611201565b50604051633c7b5fe960e21b8152909150309063f1ed7fa490610a17908590859088908b906004016118a7565b60206040518083038186803b158015610a2f57600080fd5b505afa925050508015610a5f575060408051601f3d908101601f19168201909252610a5c91810190611464565b60015b610aa0573d808015610a8d576040519150601f19603f3d011682016040523d82523d6000602084013e610a92565b606091505b5060009450505050506109aa565b93506109aa92505050565b606081516001600160401b0381118015610ac457600080fd5b50604051908082528060200260200182016040528015610aee578160200160208202803683370190505b509050815160001415610b0057610cb8565b6000610b318460000151856020015185600081518110610b1c57fe5b6020026020010151876040015163ffffffff16565b905080610b3e5750610cb8565b6000610b5b8560200151866000015184886040015163ffffffff16565b905080610b69575050610cb8565b60005b8451811015610cb4576000805b6005811015610c5d57610ba0878481518110610b9157fe5b60200260200101518587610cd1565b945084610bac57610c5d565b610bbb61271561271087610cd1565b945084610bc757610c5d565b6000610be489602001518a60000151888c6040015163ffffffff16565b905080610bf15750610c5d565b809450878481518110610c0057fe5b60200260200101518510610c5457878481518110610c1a57fe5b6020026020010151612710898681518110610c3157fe5b602002602001015187030281610c4357fe5b04925060058311610c545750610c5d565b50600101610b79565b50801580610c6b5750600581115b15610c765750610cb4565b610c94868381518110610c8557fe5b60200260200101518486610cd1565b858381518110610ca057fe5b602090810291909101015250600101610b6c565b5050505b92915050565b6000610cc982610d29565b90505b919050565b6000831580610cde575081155b80610ce7575082155b15610cf4575060006109aa565b83820282858281610d0157fe5b0414610d115760009150506109aa565b8360018503820181610d1f57fe5b0495945050505050565b60006012905060006060836001600160a01b031660405180604001604052806004815260200163313ce56760e01b815250604051610d679190611695565b600060405180830381855afa9150503d8060008114610da2576040519150601f19603f3d011682016040523d82523d6000602084013e610da7565b606091505b5091509150818015610dbb57506020815110155b15610dce57610dcb816000610dd5565b92505b5050919050565b60006109aa838360008160200183511015610e0257610e02610dfd6005855185602001610e0b565b610e65565b50016020015190565b6060632800659560e01b848484604051602401610e2a9392919061186f565b60408051601f198184030181529190526020810180516001600160e01b03166001600160e01b03199093169290921790915290509392505050565b805160208201fd5b6040518060a001604052806000815260200160006001600160a01b0316815260200160006001600160a01b0316815260200160006001600160a01b03168152602001606081525090565b8035610cb881611a5a565b8051610cb881611a5a565b600082601f830112610ede57600080fd5b8151610ef1610eec8261194f565b611929565b91508181835260208401935060208101905083856020840282011115610f1657600080fd5b60005b83811015610f425781610f2c8882611037565b8452506020928301929190910190600101610f19565b5050505092915050565b600082601f830112610f5d57600080fd5b8135610f6b610eec8261194f565b91508181835260208401935060208101905083856020840282011115610f9057600080fd5b60005b83811015610f425781610fa6888261102c565b8452506020928301929190910190600101610f93565b600082601f830112610fcd57600080fd5b8151610fdb610eec8261194f565b9150818183526020840193506020810190508385602084028201111561100057600080fd5b60005b83811015610f4257816110168882611037565b8452506020928301929190910190600101611003565b8035610cb881611a6e565b8051610cb881611a6e565b600082601f83011261105357600080fd5b8135611061610eec8261196f565b9150808252602083016020830185838301111561107d57600080fd5b610cb48382846119fd565b600082601f83011261109957600080fd5b81516110a7610eec8261196f565b915080825260208301602083018583830111156110c357600080fd5b610cb4838284611a09565b8051610cb881611a77565b600060a082840312156110eb57600080fd5b6110f560a0611929565b90506000611103848461102c565b825250602061111484848301610eb7565b602083015250604061112884828501610eb7565b604083015250606061113c84828501610eb7565b60608301525060808201356001600160401b0381111561115b57600080fd5b61116784828501611042565b60808301525092915050565b600060a0828403121561118557600080fd5b61118f60a0611929565b9050600061119d8484611037565b82525060206111ae84848301610ec2565b60208301525060406111c284828501610ec2565b60408301525060606111d684828501610ec2565b60608301525060808201516001600160401b038111156111f557600080fd5b61116784828501611088565b6000806040838503121561121457600080fd5b60006112208585610ec2565b92505060208301516001600160401b0381111561123c57600080fd5b61124885828601611173565b9150509250929050565b60008060006060848603121561126757600080fd5b83516001600160401b0381111561127d57600080fd5b61128986828701610ecd565b93505060208401516001600160401b038111156112a557600080fd5b6112b186828701610fbc565b92505060406112c2868287016110ce565b9150509250925092565b6000602082840312156112de57600080fd5b81516001600160401b038111156112f457600080fd5b61034d84828501611088565b6000806000806080858703121561131657600080fd5b84356001600160401b0381111561132c57600080fd5b611338878288016110d9565b945050602061134987828801610eb7565b935050604061135a87828801610eb7565b92505060608501356001600160401b0381111561137657600080fd5b61138287828801610f4c565b91505092959194509250565b600080600080608085870312156113a457600080fd5b84356001600160401b038111156113ba57600080fd5b6113c6878288016110d9565b94505060206113d787828801610eb7565b93505060406113e887828801610eb7565b92505060606113828782880161102c565b6000806000806080858703121561140f57600080fd5b84356001600160401b0381111561142557600080fd5b611431878288016110d9565b94505060206114428782880161102c565b935050604061145387828801610eb7565b925050606061138287828801610eb7565b60006020828403121561147657600080fd5b600061034d8484611037565b600061148e8383611555565b505060200190565b61149f816119a9565b82525050565b60006114b08261199c565b6114ba81856119a0565b93506114c583611996565b8060005b838110156114f35781516114dd8882611482565b97506114e883611996565b9250506001016114c9565b509495945050505050565b60006115098261199c565b61151381856119a0565b935061151e83611996565b8060005b838110156114f35781516115368882611482565b975061154183611996565b925050600101611522565b61149f816119b4565b61149f816119b9565b60006115698261199c565b61157381856119a0565b9350611583818560208601611a09565b61158c81611a39565b9093019392505050565b60006115a18261199c565b6115ab8185610ccc565b93506115bb818560208601611a09565b9290920192915050565b61149f816119dc565b61149f816119e7565b61149f816119f2565b60006115ed6025836119a0565b7f455243323042726964676553616d706c65722f494e56414c49445f544f4b454e8152642fa820a4a960d91b602082015260400192915050565b805160009060a084019061163b8582611555565b50602083015161164e6020860182611496565b5060408301516116616040860182611496565b5060608301516116746060860182611496565b506080830151848203608086015261168c828261155e565b95945050505050565b60006109aa8284611596565b608081016116af8287611496565b6116bc6020830186611496565b6116c9604083018561154c565b81810360608301526116db818461155e565b9695505050505050565b60a081016116f38288611496565b6117006020830187611496565b61170d6040830186611555565b61171a60608301856115d7565b818103608083015261172c818461155e565b979650505050505050565b608081016117458287611496565b61175260208301866115ce565b818103604083015261176481856114a5565b905081810360608301526116db81846114fe565b6101008101611787828b611496565b611794602083018a6115ce565b81810360408301526117a681896114a5565b905081810360608301526117ba81886114fe565b90506117c96080830187611496565b6117d660a08301866115ce565b81810360c08301526117e881856114a5565b905081810360e08301526117fc81846114fe565b9a9950505050505050505050565b604081016118188285611496565b818103602083015261034d8184611627565b606081016118388286611555565b818103602083015261184a818561155e565b9050818103604083015261168c81846114fe565b602080825281016109aa818461155e565b6060810161187d82866115c5565b61188a6020830185611555565b61034d6040830184611555565b60208082528101610cc9816115e0565b608080825281016118b88187611627565b90506118c76020830186611496565b6118d46040830185611496565b61168c6060830184611555565b608080825281016118f28187611627565b90506119016020830186611555565b61190e6040830185611496565b61168c6060830184611496565b60208101610cb88284611555565b6040518181016001600160401b038111828210171561194757600080fd5b604052919050565b60006001600160401b0382111561196557600080fd5b5060209081020190565b60006001600160401b0382111561198557600080fd5b506020601f91909101601f19160190565b60200190565b5190565b90815260200190565b6000610cc9826119d0565b151590565b90565b80610ccc81611a43565b80610ccc81611a50565b6001600160a01b031690565b6000610cc9826119bc565b6000610cc9826119c6565b6000610cc9826119b9565b82818337506000910152565b60005b83811015611a24578181015183820152602001611a0c565b83811115611a33576000848401525b50505050565b601f01601f191690565b60088110611a4d57fe5b50565b60048110611a4d57fe5b611a63816119a9565b8114611a4d57600080fd5b611a63816119b9565b60028110611a4d57600080fdfea264697066735822122088a4e2e7b146cfc2f4bbbf7a72b0ddc7ecfbc96e0c0051f3adca0ebcd89fc1ef64736f6c634300060c0033",
                "opcodes": "PUSH1 0x80 PUSH1 0x40 MSTORE CALLVALUE DUP1 ISZERO PUSH2 0x10 JUMPI PUSH1 0x0 DUP1 REVERT JUMPDEST POP PUSH2 0x1ABA DUP1 PUSH2 0x20 PUSH1 0x0 CODECOPY PUSH1 0x0 RETURN INVALID PUSH1 0x80 PUSH1 0x40 MSTORE CALLVALUE DUP1 ISZERO PUSH2 0x10 JUMPI PUSH1 0x0 DUP1 REVERT JUMPDEST POP PUSH1 0x4 CALLDATASIZE LT PUSH2 0x4C JUMPI PUSH1 0x0 CALLDATALOAD PUSH1 0xE0 SHR DUP1 PUSH4 0x4EDFB5B2 EQ PUSH2 0x51 JUMPI DUP1 PUSH4 0x9E3F05C3 EQ PUSH2 0x7A JUMPI DUP1 PUSH4 0xCC1621C9 EQ PUSH2 0x9C JUMPI DUP1 PUSH4 0xF1ED7FA4 EQ PUSH2 0xAF JUMPI JUMPDEST PUSH1 0x0 DUP1 REVERT JUMPDEST PUSH2 0x64 PUSH2 0x5F CALLDATASIZE PUSH1 0x4 PUSH2 0x13F9 JUMP JUMPDEST PUSH2 0xCF JUMP JUMPDEST PUSH1 0x40 MLOAD PUSH2 0x71 SWAP2 SWAP1 PUSH2 0x185E JUMP JUMPDEST PUSH1 0x40 MLOAD DUP1 SWAP2 SUB SWAP1 RETURN JUMPDEST PUSH2 0x8D PUSH2 0x88 CALLDATASIZE PUSH1 0x4 PUSH2 0x1300 JUMP JUMPDEST PUSH2 0x355 JUMP JUMPDEST PUSH1 0x40 MLOAD PUSH2 0x71 SWAP4 SWAP3 SWAP2 SWAP1 PUSH2 0x182A JUMP JUMPDEST PUSH2 0x8D PUSH2 0xAA CALLDATASIZE PUSH1 0x4 PUSH2 0x1300 JUMP JUMPDEST PUSH2 0x47C JUMP JUMPDEST PUSH2 0xC2 PUSH2 0xBD CALLDATASIZE PUSH1 0x4 PUSH2 0x138E JUMP JUMPDEST PUSH2 0x662 JUMP JUMPDEST PUSH1 0x40 MLOAD PUSH2 0x71 SWAP2 SWAP1 PUSH2 0x191B JUMP JUMPDEST PUSH1 0x20 DUP5 DUP2 ADD MLOAD PUSH1 0x40 DUP1 MLOAD PUSH1 0x1 DUP1 DUP3 MSTORE DUP2 DUP4 ADD SWAP1 SWAP3 MSTORE PUSH1 0x60 SWAP4 DUP5 SWAP3 SWAP1 DUP3 DUP2 ADD SWAP1 DUP1 CALLDATASIZE DUP4 CALLDATACOPY ADD SWAP1 POP POP SWAP1 POP DUP6 DUP2 PUSH1 0x0 DUP2 MLOAD DUP2 LT PUSH2 0x106 JUMPI INVALID JUMPDEST PUSH1 0x20 SWAP1 DUP2 MUL SWAP2 SWAP1 SWAP2 ADD ADD MSTORE PUSH1 0x60 PUSH1 0x0 PUSH1 0x40 MLOAD SWAP1 DUP1 DUP3 MSTORE DUP1 PUSH1 0x20 MUL PUSH1 0x20 ADD DUP3 ADD PUSH1 0x40 MSTORE DUP1 ISZERO PUSH2 0x13E JUMPI DUP2 PUSH1 0x20 ADD PUSH1 0x20 DUP3 MUL DUP1 CALLDATASIZE DUP4 CALLDATACOPY ADD SWAP1 POP JUMPDEST POP SWAP1 POP DUP8 PUSH1 0x60 ADD MLOAD PUSH1 0x1 PUSH1 0x1 PUSH1 0xA0 SHL SUB AND DUP7 PUSH1 0x1 PUSH1 0x1 PUSH1 0xA0 SHL SUB AND EQ ISZERO PUSH2 0x22F JUMPI PUSH1 0x40 MLOAD PUSH4 0x81EFCBDD PUSH1 0xE0 SHL DUP2 MSTORE PUSH1 0x1 PUSH1 0x1 PUSH1 0xA0 SHL SUB DUP5 AND SWAP1 PUSH4 0x81EFCBDD SWAP1 PUSH3 0x7A120 SWAP1 PUSH2 0x197 SWAP1 DUP10 SWAP1 PUSH1 0x1 SWAP1 DUP9 SWAP1 DUP9 SWAP1 PUSH1 0x4 ADD PUSH2 0x1737 JUMP JUMPDEST PUSH1 0x0 PUSH1 0x40 MLOAD DUP1 DUP4 SUB DUP2 DUP8 DUP1 EXTCODESIZE ISZERO DUP1 ISZERO PUSH2 0x1AF JUMPI PUSH1 0x0 DUP1 REVERT JUMPDEST POP DUP7 STATICCALL SWAP4 POP POP POP POP DUP1 ISZERO PUSH2 0x1E5 JUMPI POP PUSH1 0x40 MLOAD RETURNDATASIZE PUSH1 0x0 DUP3 RETURNDATACOPY PUSH1 0x1F RETURNDATASIZE SWAP1 DUP2 ADD PUSH1 0x1F NOT AND DUP3 ADD PUSH1 0x40 MSTORE PUSH2 0x1E2 SWAP2 SWAP1 DUP2 ADD SWAP1 PUSH2 0x12CC JUMP JUMPDEST PUSH1 0x1 JUMPDEST PUSH2 0x21F JUMPI RETURNDATASIZE DUP1 DUP1 ISZERO PUSH2 0x213 JUMPI PUSH1 0x40 MLOAD SWAP2 POP PUSH1 0x1F NOT PUSH1 0x3F RETURNDATASIZE ADD AND DUP3 ADD PUSH1 0x40 MSTORE RETURNDATASIZE DUP3 MSTORE RETURNDATASIZE PUSH1 0x0 PUSH1 0x20 DUP5 ADD RETURNDATACOPY PUSH2 0x218 JUMP JUMPDEST PUSH1 0x60 SWAP2 POP JUMPDEST POP POP PUSH2 0x22A JUMP JUMPDEST SWAP4 POP PUSH2 0x34D SWAP3 POP POP POP JUMP JUMPDEST PUSH2 0x349 JUMP JUMPDEST DUP8 PUSH1 0x60 ADD MLOAD PUSH1 0x1 PUSH1 0x1 PUSH1 0xA0 SHL SUB AND DUP6 PUSH1 0x1 PUSH1 0x1 PUSH1 0xA0 SHL SUB AND EQ ISZERO PUSH2 0x285 JUMPI PUSH1 0x40 MLOAD PUSH4 0x61E597F9 PUSH1 0xE0 SHL DUP2 MSTORE PUSH1 0x1 PUSH1 0x1 PUSH1 0xA0 SHL SUB DUP5 AND SWAP1 PUSH4 0x61E597F9 SWAP1 PUSH3 0x7A120 SWAP1 PUSH2 0x197 SWAP1 DUP11 SWAP1 PUSH1 0x1 SWAP1 DUP9 SWAP1 DUP9 SWAP1 PUSH1 0x4 ADD PUSH2 0x1737 JUMP JUMPDEST PUSH1 0x40 MLOAD PUSH4 0x2B9A6CD PUSH1 0xE1 SHL DUP2 MSTORE PUSH1 0x1 PUSH1 0x1 PUSH1 0xA0 SHL SUB DUP5 AND SWAP1 PUSH4 0x5734D9A SWAP1 PUSH3 0x7A120 SWAP1 PUSH2 0x2C5 SWAP1 DUP11 SWAP1 PUSH1 0x1 SWAP1 DUP9 SWAP1 DUP9 SWAP1 DUP14 SWAP1 DUP5 SWAP1 DUP5 SWAP1 DUP5 SWAP1 PUSH1 0x4 ADD PUSH2 0x1778 JUMP JUMPDEST PUSH1 0x0 PUSH1 0x40 MLOAD DUP1 DUP4 SUB DUP2 DUP8 DUP1 EXTCODESIZE ISZERO DUP1 ISZERO PUSH2 0x2DD JUMPI PUSH1 0x0 DUP1 REVERT JUMPDEST POP DUP7 STATICCALL SWAP4 POP POP POP POP DUP1 ISZERO PUSH2 0x313 JUMPI POP PUSH1 0x40 MLOAD RETURNDATASIZE PUSH1 0x0 DUP3 RETURNDATACOPY PUSH1 0x1F RETURNDATASIZE SWAP1 DUP2 ADD PUSH1 0x1F NOT AND DUP3 ADD PUSH1 0x40 MSTORE PUSH2 0x310 SWAP2 SWAP1 DUP2 ADD SWAP1 PUSH2 0x12CC JUMP JUMPDEST PUSH1 0x1 JUMPDEST PUSH2 0x21F JUMPI RETURNDATASIZE DUP1 DUP1 ISZERO PUSH2 0x341 JUMPI PUSH1 0x40 MLOAD SWAP2 POP PUSH1 0x1F NOT PUSH1 0x3F RETURNDATASIZE ADD AND DUP3 ADD PUSH1 0x40 MSTORE RETURNDATASIZE DUP3 MSTORE RETURNDATASIZE PUSH1 0x0 PUSH1 0x20 DUP5 ADD RETURNDATACOPY PUSH2 0x346 JUMP JUMPDEST PUSH1 0x60 SWAP2 POP JUMPDEST POP POP JUMPDEST POP POP POP JUMPDEST SWAP5 SWAP4 POP POP POP POP JUMP JUMPDEST PUSH1 0x0 PUSH1 0x60 DUP1 PUSH2 0x364 DUP6 DUP8 PUSH2 0x801 JUMP JUMPDEST PUSH2 0x36F DUP8 DUP8 DUP8 PUSH2 0x840 JUMP JUMPDEST SWAP3 POP DUP3 PUSH2 0x37B JUMPI PUSH2 0x472 JUMP JUMPDEST PUSH1 0x40 MLOAD PUSH4 0x276FDAD9 PUSH1 0xE1 SHL DUP2 MSTORE ADDRESS SWAP1 PUSH4 0x4EDFB5B2 SWAP1 PUSH2 0x3A4 SWAP1 DUP11 SWAP1 DUP8 SWAP1 DUP12 SWAP1 DUP12 SWAP1 PUSH1 0x4 ADD PUSH2 0x18E1 JUMP JUMPDEST PUSH1 0x0 PUSH1 0x40 MLOAD DUP1 DUP4 SUB DUP2 DUP7 DUP1 EXTCODESIZE ISZERO DUP1 ISZERO PUSH2 0x3BC JUMPI PUSH1 0x0 DUP1 REVERT JUMPDEST POP GAS STATICCALL ISZERO DUP1 ISZERO PUSH2 0x3D0 JUMPI RETURNDATASIZE PUSH1 0x0 DUP1 RETURNDATACOPY RETURNDATASIZE PUSH1 0x0 REVERT JUMPDEST POP POP POP POP PUSH1 0x40 MLOAD RETURNDATASIZE PUSH1 0x0 DUP3 RETURNDATACOPY PUSH1 0x1F RETURNDATASIZE SWAP1 DUP2 ADD PUSH1 0x1F NOT AND DUP3 ADD PUSH1 0x40 MSTORE PUSH2 0x3F8 SWAP2 SWAP1 DUP2 ADD SWAP1 PUSH2 0x12CC JUMP JUMPDEST DUP8 PUSH1 0x80 ADD DUP2 SWAP1 MSTORE POP DUP7 PUSH1 0x80 ADD MLOAD SWAP2 POP PUSH2 0x46F PUSH1 0x40 MLOAD DUP1 PUSH1 0x60 ADD PUSH1 0x40 MSTORE DUP1 DUP8 DUP11 PUSH1 0x40 MLOAD PUSH1 0x20 ADD PUSH2 0x428 SWAP3 SWAP2 SWAP1 PUSH2 0x180A JUMP JUMPDEST PUSH1 0x40 MLOAD PUSH1 0x20 DUP2 DUP4 SUB SUB DUP2 MSTORE SWAP1 PUSH1 0x40 MSTORE DUP2 MSTORE PUSH1 0x20 ADD DUP9 DUP11 PUSH1 0x40 MLOAD PUSH1 0x20 ADD PUSH2 0x44F SWAP3 SWAP2 SWAP1 PUSH2 0x180A JUMP JUMPDEST PUSH1 0x40 MLOAD PUSH1 0x20 DUP2 DUP4 SUB SUB DUP2 MSTORE SWAP1 PUSH1 0x40 MSTORE DUP2 MSTORE PUSH1 0x20 ADD PUSH2 0x9B1 DUP2 MSTORE POP DUP6 PUSH2 0xAAB JUMP JUMPDEST SWAP1 POP JUMPDEST SWAP5 POP SWAP5 POP SWAP5 SWAP2 POP POP JUMP JUMPDEST PUSH1 0x0 PUSH1 0x60 DUP1 PUSH2 0x48B DUP6 DUP8 PUSH2 0x801 JUMP JUMPDEST PUSH2 0x496 DUP8 DUP8 DUP8 PUSH2 0x840 JUMP JUMPDEST SWAP3 POP DUP3 PUSH2 0x4A2 JUMPI PUSH2 0x472 JUMP JUMPDEST PUSH1 0x40 MLOAD PUSH4 0x276FDAD9 PUSH1 0xE1 SHL DUP2 MSTORE ADDRESS SWAP1 PUSH4 0x4EDFB5B2 SWAP1 PUSH2 0x4CB SWAP1 DUP11 SWAP1 DUP8 SWAP1 DUP12 SWAP1 DUP12 SWAP1 PUSH1 0x4 ADD PUSH2 0x18E1 JUMP JUMPDEST PUSH1 0x0 PUSH1 0x40 MLOAD DUP1 DUP4 SUB DUP2 DUP7 DUP1 EXTCODESIZE ISZERO DUP1 ISZERO PUSH2 0x4E3 JUMPI PUSH1 0x0 DUP1 REVERT JUMPDEST POP GAS STATICCALL ISZERO DUP1 ISZERO PUSH2 0x4F7 JUMPI RETURNDATASIZE PUSH1 0x0 DUP1 RETURNDATACOPY RETURNDATASIZE PUSH1 0x0 REVERT JUMPDEST POP POP POP POP PUSH1 0x40 MLOAD RETURNDATASIZE PUSH1 0x0 DUP3 RETURNDATACOPY PUSH1 0x1F RETURNDATASIZE SWAP1 DUP2 ADD PUSH1 0x1F NOT AND DUP3 ADD PUSH1 0x40 MSTORE PUSH2 0x51F SWAP2 SWAP1 DUP2 ADD SWAP1 PUSH2 0x12CC JUMP JUMPDEST PUSH1 0x80 DUP9 ADD DUP2 SWAP1 MSTORE DUP5 MLOAD SWAP1 SWAP3 POP DUP1 PUSH1 0x1 PUSH1 0x1 PUSH1 0x40 SHL SUB DUP2 GT DUP1 ISZERO PUSH2 0x541 JUMPI PUSH1 0x0 DUP1 REVERT JUMPDEST POP PUSH1 0x40 MLOAD SWAP1 DUP1 DUP3 MSTORE DUP1 PUSH1 0x20 MUL PUSH1 0x20 ADD DUP3 ADD PUSH1 0x40 MSTORE DUP1 ISZERO PUSH2 0x56B JUMPI DUP2 PUSH1 0x20 ADD PUSH1 0x20 DUP3 MUL DUP1 CALLDATASIZE DUP4 CALLDATACOPY ADD SWAP1 POP JUMPDEST POP SWAP2 POP PUSH1 0x0 JUMPDEST DUP2 DUP2 LT ISZERO PUSH2 0x656 JUMPI PUSH1 0x0 ADDRESS PUSH1 0x1 PUSH1 0x1 PUSH1 0xA0 SHL SUB AND PUSH4 0xF1ED7FA4 DUP12 DUP12 DUP12 DUP12 DUP8 DUP2 MLOAD DUP2 LT PUSH2 0x599 JUMPI INVALID JUMPDEST PUSH1 0x20 MUL PUSH1 0x20 ADD ADD MLOAD PUSH1 0x40 MLOAD DUP6 PUSH4 0xFFFFFFFF AND PUSH1 0xE0 SHL DUP2 MSTORE PUSH1 0x4 ADD PUSH2 0x5C0 SWAP5 SWAP4 SWAP3 SWAP2 SWAP1 PUSH2 0x18A7 JUMP JUMPDEST PUSH1 0x20 PUSH1 0x40 MLOAD DUP1 DUP4 SUB DUP2 DUP7 DUP1 EXTCODESIZE ISZERO DUP1 ISZERO PUSH2 0x5D8 JUMPI PUSH1 0x0 DUP1 REVERT JUMPDEST POP GAS STATICCALL ISZERO DUP1 ISZERO PUSH2 0x5EC JUMPI RETURNDATASIZE PUSH1 0x0 DUP1 RETURNDATACOPY RETURNDATASIZE PUSH1 0x0 REVERT JUMPDEST POP POP POP POP PUSH1 0x40 MLOAD RETURNDATASIZE PUSH1 0x1F NOT PUSH1 0x1F DUP3 ADD AND DUP3 ADD DUP1 PUSH1 0x40 MSTORE POP DUP2 ADD SWAP1 PUSH2 0x610 SWAP2 SWAP1 PUSH2 0x1464 JUMP JUMPDEST SWAP1 POP DUP1 DUP5 DUP4 DUP2 MLOAD DUP2 LT PUSH2 0x61F JUMPI INVALID JUMPDEST PUSH1 0x20 MUL PUSH1 0x20 ADD ADD DUP2 DUP2 MSTORE POP POP DUP4 DUP3 DUP2 MLOAD DUP2 LT PUSH2 0x637 JUMPI INVALID JUMPDEST PUSH1 0x20 MUL PUSH1 0x20 ADD ADD MLOAD PUSH1 0x0 EQ ISZERO PUSH2 0x64D JUMPI POP PUSH2 0x656 JUMP JUMPDEST POP PUSH1 0x1 ADD PUSH2 0x571 JUMP JUMPDEST POP POP SWAP5 POP SWAP5 POP SWAP5 SWAP2 POP POP JUMP JUMPDEST PUSH1 0x0 DUP5 PUSH1 0x80 ADD MLOAD MLOAD PUSH1 0x0 EQ ISZERO PUSH2 0x67A JUMPI POP PUSH1 0x0 PUSH2 0x34D JUMP JUMPDEST DUP5 PUSH1 0x40 ADD MLOAD PUSH1 0x1 PUSH1 0x1 PUSH1 0xA0 SHL SUB AND PUSH4 0x418436BC PUSH3 0x7A120 DUP8 PUSH1 0x60 ADD MLOAD PUSH1 0x1 PUSH1 0x1 PUSH1 0xA0 SHL SUB AND DUP8 PUSH1 0x1 PUSH1 0x1 PUSH1 0xA0 SHL SUB AND EQ PUSH2 0x6B4 JUMPI DUP7 PUSH2 0x6CA JUMP JUMPDEST PUSH20 0xEEEEEEEEEEEEEEEEEEEEEEEEEEEEEEEEEEEEEEEE JUMPDEST DUP9 PUSH1 0x60 ADD MLOAD PUSH1 0x1 PUSH1 0x1 PUSH1 0xA0 SHL SUB AND DUP8 PUSH1 0x1 PUSH1 0x1 PUSH1 0xA0 SHL SUB AND EQ PUSH2 0x6ED JUMPI DUP7 PUSH2 0x703 JUMP JUMPDEST PUSH20 0xEEEEEEEEEEEEEEEEEEEEEEEEEEEEEEEEEEEEEEEE JUMPDEST DUP7 PUSH1 0x0 DUP12 PUSH1 0x80 ADD MLOAD PUSH1 0x40 MLOAD DUP8 PUSH4 0xFFFFFFFF AND PUSH1 0xE0 SHL DUP2 MSTORE PUSH1 0x4 ADD PUSH2 0x72B SWAP6 SWAP5 SWAP4 SWAP3 SWAP2 SWAP1 PUSH2 0x16E5 JUMP JUMPDEST PUSH1 0x20 PUSH1 0x40 MLOAD DUP1 DUP4 SUB DUP2 DUP8 DUP1 EXTCODESIZE ISZERO DUP1 ISZERO PUSH2 0x743 JUMPI PUSH1 0x0 DUP1 REVERT JUMPDEST POP DUP7 STATICCALL SWAP4 POP POP POP POP DUP1 ISZERO PUSH2 0x774 JUMPI POP PUSH1 0x40 DUP1 MLOAD PUSH1 0x1F RETURNDATASIZE SWAP1 DUP2 ADD PUSH1 0x1F NOT AND DUP3 ADD SWAP1 SWAP3 MSTORE PUSH2 0x771 SWAP2 DUP2 ADD SWAP1 PUSH2 0x1464 JUMP JUMPDEST PUSH1 0x1 JUMPDEST PUSH2 0x7B2 JUMPI RETURNDATASIZE DUP1 DUP1 ISZERO PUSH2 0x7A2 JUMPI PUSH1 0x40 MLOAD SWAP2 POP PUSH1 0x1F NOT PUSH1 0x3F RETURNDATASIZE ADD AND DUP3 ADD PUSH1 0x40 MSTORE RETURNDATASIZE DUP3 MSTORE RETURNDATASIZE PUSH1 0x0 PUSH1 0x20 DUP5 ADD RETURNDATACOPY PUSH2 0x7A7 JUMP JUMPDEST PUSH1 0x60 SWAP2 POP JUMPDEST POP PUSH1 0x0 SWAP2 POP POP PUSH2 0x34D JUMP JUMPDEST PUSH1 0x0 PUSH2 0x7BD DUP6 PUSH2 0xCBE JUMP JUMPDEST PUSH1 0xFF AND SWAP1 POP PUSH1 0x0 PUSH2 0x7CD DUP8 PUSH2 0xCBE JUMP JUMPDEST PUSH1 0xFF AND SWAP1 POP PUSH8 0xDE0B6B3A7640000 DUP2 PUSH1 0xA EXP DUP4 PUSH1 0xA EXP DUP8 DUP7 MUL MUL DUP2 PUSH2 0x7EE JUMPI INVALID JUMPDEST DIV DUP2 PUSH2 0x7F6 JUMPI INVALID JUMPDEST DIV SWAP4 POP POP POP POP PUSH2 0x34D JUMP JUMPDEST DUP1 PUSH1 0x1 PUSH1 0x1 PUSH1 0xA0 SHL SUB AND DUP3 PUSH1 0x1 PUSH1 0x1 PUSH1 0xA0 SHL SUB AND EQ ISZERO PUSH2 0x83C JUMPI PUSH1 0x40 MLOAD PUSH3 0x461BCD PUSH1 0xE5 SHL DUP2 MSTORE PUSH1 0x4 ADD PUSH2 0x833 SWAP1 PUSH2 0x1897 JUMP JUMPDEST PUSH1 0x40 MLOAD DUP1 SWAP2 SUB SWAP1 REVERT JUMPDEST POP POP JUMP JUMPDEST PUSH1 0x0 DUP1 DUP5 PUSH1 0x20 ADD MLOAD SWAP1 POP PUSH1 0x60 DUP2 PUSH1 0x1 PUSH1 0x1 PUSH1 0xA0 SHL SUB AND PUSH4 0x910FFC71 DUP8 PUSH1 0x60 ADD MLOAD PUSH1 0x1 PUSH1 0x1 PUSH1 0xA0 SHL SUB AND DUP8 PUSH1 0x1 PUSH1 0x1 PUSH1 0xA0 SHL SUB AND EQ PUSH2 0x87E JUMPI DUP7 PUSH2 0x894 JUMP JUMPDEST PUSH20 0xEEEEEEEEEEEEEEEEEEEEEEEEEEEEEEEEEEEEEEEE JUMPDEST DUP9 PUSH1 0x60 ADD MLOAD PUSH1 0x1 PUSH1 0x1 PUSH1 0xA0 SHL SUB AND DUP8 PUSH1 0x1 PUSH1 0x1 PUSH1 0xA0 SHL SUB AND EQ PUSH2 0x8B7 JUMPI DUP7 PUSH2 0x8CD JUMP JUMPDEST PUSH20 0xEEEEEEEEEEEEEEEEEEEEEEEEEEEEEEEEEEEEEEEE JUMPDEST PUSH1 0x40 DUP1 MLOAD PUSH1 0x0 DUP2 MSTORE PUSH1 0x20 DUP2 ADD SWAP2 DUP3 SWAP1 MSTORE PUSH1 0x1 PUSH1 0x1 PUSH1 0xE0 SHL SUB NOT PUSH1 0xE0 DUP7 SWAP1 SHL AND SWAP1 SWAP2 MSTORE PUSH2 0x901 SWAP3 SWAP2 SWAP1 PUSH1 0x1 SWAP1 PUSH1 0x24 DUP2 ADD PUSH2 0x16A1 JUMP JUMPDEST PUSH1 0x0 PUSH1 0x40 MLOAD DUP1 DUP4 SUB DUP2 DUP7 DUP1 EXTCODESIZE ISZERO DUP1 ISZERO PUSH2 0x919 JUMPI PUSH1 0x0 DUP1 REVERT JUMPDEST POP GAS STATICCALL ISZERO DUP1 ISZERO PUSH2 0x92D JUMPI RETURNDATASIZE PUSH1 0x0 DUP1 RETURNDATACOPY RETURNDATASIZE PUSH1 0x0 REVERT JUMPDEST POP POP POP POP PUSH1 0x40 MLOAD RETURNDATASIZE PUSH1 0x0 DUP3 RETURNDATACOPY PUSH1 0x1F RETURNDATASIZE SWAP1 DUP2 ADD PUSH1 0x1F NOT AND DUP3 ADD PUSH1 0x40 MSTORE PUSH2 0x955 SWAP2 SWAP1 DUP2 ADD SWAP1 PUSH2 0x1252 JUMP JUMPDEST POP POP SWAP1 POP DUP1 MLOAD DUP7 PUSH1 0x0 ADD MLOAD LT PUSH2 0x971 JUMPI POP PUSH1 0x0 SWAP2 POP PUSH2 0x9AA SWAP1 POP JUMP JUMPDEST DUP1 DUP7 PUSH1 0x0 ADD MLOAD DUP2 MLOAD DUP2 LT PUSH2 0x981 JUMPI INVALID JUMPDEST PUSH1 0x20 MUL PUSH1 0x20 ADD ADD MLOAD SWAP3 POP PUSH1 0xF8 DUP4 SWAP1 SHR PUSH1 0x0 SHR PUSH1 0xBB EQ ISZERO PUSH2 0x9A7 JUMPI POP PUSH1 0x0 SWAP2 POP PUSH2 0x9AA SWAP1 POP JUMP JUMPDEST POP POP JUMPDEST SWAP4 SWAP3 POP POP POP JUMP JUMPDEST PUSH1 0x0 DUP1 PUSH2 0x9BC PUSH2 0xE6D JUMP JUMPDEST DUP5 DUP1 PUSH1 0x20 ADD SWAP1 MLOAD DUP2 ADD SWAP1 PUSH2 0x9D0 SWAP2 SWAP1 PUSH2 0x1201 JUMP JUMPDEST SWAP2 POP SWAP2 POP PUSH1 0x0 DUP7 DUP1 PUSH1 0x20 ADD SWAP1 MLOAD DUP2 ADD SWAP1 PUSH2 0x9EA SWAP2 SWAP1 PUSH2 0x1201 JUMP JUMPDEST POP PUSH1 0x40 MLOAD PUSH4 0x3C7B5FE9 PUSH1 0xE2 SHL DUP2 MSTORE SWAP1 SWAP2 POP ADDRESS SWAP1 PUSH4 0xF1ED7FA4 SWAP1 PUSH2 0xA17 SWAP1 DUP6 SWAP1 DUP6 SWAP1 DUP9 SWAP1 DUP12 SWAP1 PUSH1 0x4 ADD PUSH2 0x18A7 JUMP JUMPDEST PUSH1 0x20 PUSH1 0x40 MLOAD DUP1 DUP4 SUB DUP2 DUP7 DUP1 EXTCODESIZE ISZERO DUP1 ISZERO PUSH2 0xA2F JUMPI PUSH1 0x0 DUP1 REVERT JUMPDEST POP GAS STATICCALL SWAP3 POP POP POP DUP1 ISZERO PUSH2 0xA5F JUMPI POP PUSH1 0x40 DUP1 MLOAD PUSH1 0x1F RETURNDATASIZE SWAP1 DUP2 ADD PUSH1 0x1F NOT AND DUP3 ADD SWAP1 SWAP3 MSTORE PUSH2 0xA5C SWAP2 DUP2 ADD SWAP1 PUSH2 0x1464 JUMP JUMPDEST PUSH1 0x1 JUMPDEST PUSH2 0xAA0 JUMPI RETURNDATASIZE DUP1 DUP1 ISZERO PUSH2 0xA8D JUMPI PUSH1 0x40 MLOAD SWAP2 POP PUSH1 0x1F NOT PUSH1 0x3F RETURNDATASIZE ADD AND DUP3 ADD PUSH1 0x40 MSTORE RETURNDATASIZE DUP3 MSTORE RETURNDATASIZE PUSH1 0x0 PUSH1 0x20 DUP5 ADD RETURNDATACOPY PUSH2 0xA92 JUMP JUMPDEST PUSH1 0x60 SWAP2 POP JUMPDEST POP PUSH1 0x0 SWAP5 POP POP POP POP POP PUSH2 0x9AA JUMP JUMPDEST SWAP4 POP PUSH2 0x9AA SWAP3 POP POP POP JUMP JUMPDEST PUSH1 0x60 DUP2 MLOAD PUSH1 0x1 PUSH1 0x1 PUSH1 0x40 SHL SUB DUP2 GT DUP1 ISZERO PUSH2 0xAC4 JUMPI PUSH1 0x0 DUP1 REVERT JUMPDEST POP PUSH1 0x40 MLOAD SWAP1 DUP1 DUP3 MSTORE DUP1 PUSH1 0x20 MUL PUSH1 0x20 ADD DUP3 ADD PUSH1 0x40 MSTORE DUP1 ISZERO PUSH2 0xAEE JUMPI DUP2 PUSH1 0x20 ADD PUSH1 0x20 DUP3 MUL DUP1 CALLDATASIZE DUP4 CALLDATACOPY ADD SWAP1 POP JUMPDEST POP SWAP1 POP DUP2 MLOAD PUSH1 0x0 EQ ISZERO PUSH2 0xB00 JUMPI PUSH2 0xCB8 JUMP JUMPDEST PUSH1 0x0 PUSH2 0xB31 DUP5 PUSH1 0x0 ADD MLOAD DUP6 PUSH1 0x20 ADD MLOAD DUP6 PUSH1 0x0 DUP2 MLOAD DUP2 LT PUSH2 0xB1C JUMPI INVALID JUMPDEST PUSH1 0x20 MUL PUSH1 0x20 ADD ADD MLOAD DUP8 PUSH1 0x40 ADD MLOAD PUSH4 0xFFFFFFFF AND JUMP JUMPDEST SWAP1 POP DUP1 PUSH2 0xB3E JUMPI POP PUSH2 0xCB8 JUMP JUMPDEST PUSH1 0x0 PUSH2 0xB5B DUP6 PUSH1 0x20 ADD MLOAD DUP7 PUSH1 0x0 ADD MLOAD DUP5 DUP9 PUSH1 0x40 ADD MLOAD PUSH4 0xFFFFFFFF AND JUMP JUMPDEST SWAP1 POP DUP1 PUSH2 0xB69 JUMPI POP POP PUSH2 0xCB8 JUMP JUMPDEST PUSH1 0x0 JUMPDEST DUP5 MLOAD DUP2 LT ISZERO PUSH2 0xCB4 JUMPI PUSH1 0x0 DUP1 JUMPDEST PUSH1 0x5 DUP2 LT ISZERO PUSH2 0xC5D JUMPI PUSH2 0xBA0 DUP8 DUP5 DUP2 MLOAD DUP2 LT PUSH2 0xB91 JUMPI INVALID JUMPDEST PUSH1 0x20 MUL PUSH1 0x20 ADD ADD MLOAD DUP6 DUP8 PUSH2 0xCD1 JUMP JUMPDEST SWAP5 POP DUP5 PUSH2 0xBAC JUMPI PUSH2 0xC5D JUMP JUMPDEST PUSH2 0xBBB PUSH2 0x2715 PUSH2 0x2710 DUP8 PUSH2 0xCD1 JUMP JUMPDEST SWAP5 POP DUP5 PUSH2 0xBC7 JUMPI PUSH2 0xC5D JUMP JUMPDEST PUSH1 0x0 PUSH2 0xBE4 DUP10 PUSH1 0x20 ADD MLOAD DUP11 PUSH1 0x0 ADD MLOAD DUP9 DUP13 PUSH1 0x40 ADD MLOAD PUSH4 0xFFFFFFFF AND JUMP JUMPDEST SWAP1 POP DUP1 PUSH2 0xBF1 JUMPI POP PUSH2 0xC5D JUMP JUMPDEST DUP1 SWAP5 POP DUP8 DUP5 DUP2 MLOAD DUP2 LT PUSH2 0xC00 JUMPI INVALID JUMPDEST PUSH1 0x20 MUL PUSH1 0x20 ADD ADD MLOAD DUP6 LT PUSH2 0xC54 JUMPI DUP8 DUP5 DUP2 MLOAD DUP2 LT PUSH2 0xC1A JUMPI INVALID JUMPDEST PUSH1 0x20 MUL PUSH1 0x20 ADD ADD MLOAD PUSH2 0x2710 DUP10 DUP7 DUP2 MLOAD DUP2 LT PUSH2 0xC31 JUMPI INVALID JUMPDEST PUSH1 0x20 MUL PUSH1 0x20 ADD ADD MLOAD DUP8 SUB MUL DUP2 PUSH2 0xC43 JUMPI INVALID JUMPDEST DIV SWAP3 POP PUSH1 0x5 DUP4 GT PUSH2 0xC54 JUMPI POP PUSH2 0xC5D JUMP JUMPDEST POP PUSH1 0x1 ADD PUSH2 0xB79 JUMP JUMPDEST POP DUP1 ISZERO DUP1 PUSH2 0xC6B JUMPI POP PUSH1 0x5 DUP2 GT JUMPDEST ISZERO PUSH2 0xC76 JUMPI POP PUSH2 0xCB4 JUMP JUMPDEST PUSH2 0xC94 DUP7 DUP4 DUP2 MLOAD DUP2 LT PUSH2 0xC85 JUMPI INVALID JUMPDEST PUSH1 0x20 MUL PUSH1 0x20 ADD ADD MLOAD DUP5 DUP7 PUSH2 0xCD1 JUMP JUMPDEST DUP6 DUP4 DUP2 MLOAD DUP2 LT PUSH2 0xCA0 JUMPI INVALID JUMPDEST PUSH1 0x20 SWAP1 DUP2 MUL SWAP2 SWAP1 SWAP2 ADD ADD MSTORE POP PUSH1 0x1 ADD PUSH2 0xB6C JUMP JUMPDEST POP POP POP JUMPDEST SWAP3 SWAP2 POP POP JUMP JUMPDEST PUSH1 0x0 PUSH2 0xCC9 DUP3 PUSH2 0xD29 JUMP JUMPDEST SWAP1 POP JUMPDEST SWAP2 SWAP1 POP JUMP JUMPDEST PUSH1 0x0 DUP4 ISZERO DUP1 PUSH2 0xCDE JUMPI POP DUP2 ISZERO JUMPDEST DUP1 PUSH2 0xCE7 JUMPI POP DUP3 ISZERO JUMPDEST ISZERO PUSH2 0xCF4 JUMPI POP PUSH1 0x0 PUSH2 0x9AA JUMP JUMPDEST DUP4 DUP3 MUL DUP3 DUP6 DUP3 DUP2 PUSH2 0xD01 JUMPI INVALID JUMPDEST DIV EQ PUSH2 0xD11 JUMPI PUSH1 0x0 SWAP2 POP POP PUSH2 0x9AA JUMP JUMPDEST DUP4 PUSH1 0x1 DUP6 SUB DUP3 ADD DUP2 PUSH2 0xD1F JUMPI INVALID JUMPDEST DIV SWAP6 SWAP5 POP POP POP POP POP JUMP JUMPDEST PUSH1 0x0 PUSH1 0x12 SWAP1 POP PUSH1 0x0 PUSH1 0x60 DUP4 PUSH1 0x1 PUSH1 0x1 PUSH1 0xA0 SHL SUB AND PUSH1 0x40 MLOAD DUP1 PUSH1 0x40 ADD PUSH1 0x40 MSTORE DUP1 PUSH1 0x4 DUP2 MSTORE PUSH1 0x20 ADD PUSH4 0x313CE567 PUSH1 0xE0 SHL DUP2 MSTORE POP PUSH1 0x40 MLOAD PUSH2 0xD67 SWAP2 SWAP1 PUSH2 0x1695 JUMP JUMPDEST PUSH1 0x0 PUSH1 0x40 MLOAD DUP1 DUP4 SUB DUP2 DUP6 GAS STATICCALL SWAP2 POP POP RETURNDATASIZE DUP1 PUSH1 0x0 DUP2 EQ PUSH2 0xDA2 JUMPI PUSH1 0x40 MLOAD SWAP2 POP PUSH1 0x1F NOT PUSH1 0x3F RETURNDATASIZE ADD AND DUP3 ADD PUSH1 0x40 MSTORE RETURNDATASIZE DUP3 MSTORE RETURNDATASIZE PUSH1 0x0 PUSH1 0x20 DUP5 ADD RETURNDATACOPY PUSH2 0xDA7 JUMP JUMPDEST PUSH1 0x60 SWAP2 POP JUMPDEST POP SWAP2 POP SWAP2 POP DUP2 DUP1 ISZERO PUSH2 0xDBB JUMPI POP PUSH1 0x20 DUP2 MLOAD LT ISZERO JUMPDEST ISZERO PUSH2 0xDCE JUMPI PUSH2 0xDCB DUP2 PUSH1 0x0 PUSH2 0xDD5 JUMP JUMPDEST SWAP3 POP JUMPDEST POP POP SWAP2 SWAP1 POP JUMP JUMPDEST PUSH1 0x0 PUSH2 0x9AA DUP4 DUP4 PUSH1 0x0 DUP2 PUSH1 0x20 ADD DUP4 MLOAD LT ISZERO PUSH2 0xE02 JUMPI PUSH2 0xE02 PUSH2 0xDFD PUSH1 0x5 DUP6 MLOAD DUP6 PUSH1 0x20 ADD PUSH2 0xE0B JUMP JUMPDEST PUSH2 0xE65 JUMP JUMPDEST POP ADD PUSH1 0x20 ADD MLOAD SWAP1 JUMP JUMPDEST PUSH1 0x60 PUSH4 0x28006595 PUSH1 0xE0 SHL DUP5 DUP5 DUP5 PUSH1 0x40 MLOAD PUSH1 0x24 ADD PUSH2 0xE2A SWAP4 SWAP3 SWAP2 SWAP1 PUSH2 0x186F JUMP JUMPDEST PUSH1 0x40 DUP1 MLOAD PUSH1 0x1F NOT DUP2 DUP5 SUB ADD DUP2 MSTORE SWAP2 SWAP1 MSTORE PUSH1 0x20 DUP2 ADD DUP1 MLOAD PUSH1 0x1 PUSH1 0x1 PUSH1 0xE0 SHL SUB AND PUSH1 0x1 PUSH1 0x1 PUSH1 0xE0 SHL SUB NOT SWAP1 SWAP4 AND SWAP3 SWAP1 SWAP3 OR SWAP1 SWAP2 MSTORE SWAP1 POP SWAP4 SWAP3 POP POP POP JUMP JUMPDEST DUP1 MLOAD PUSH1 0x20 DUP3 ADD REVERT JUMPDEST PUSH1 0x40 MLOAD DUP1 PUSH1 0xA0 ADD PUSH1 0x40 MSTORE DUP1 PUSH1 0x0 DUP2 MSTORE PUSH1 0x20 ADD PUSH1 0x0 PUSH1 0x1 PUSH1 0x1 PUSH1 0xA0 SHL SUB AND DUP2 MSTORE PUSH1 0x20 ADD PUSH1 0x0 PUSH1 0x1 PUSH1 0x1 PUSH1 0xA0 SHL SUB AND DUP2 MSTORE PUSH1 0x20 ADD PUSH1 0x0 PUSH1 0x1 PUSH1 0x1 PUSH1 0xA0 SHL SUB AND DUP2 MSTORE PUSH1 0x20 ADD PUSH1 0x60 DUP2 MSTORE POP SWAP1 JUMP JUMPDEST DUP1 CALLDATALOAD PUSH2 0xCB8 DUP2 PUSH2 0x1A5A JUMP JUMPDEST DUP1 MLOAD PUSH2 0xCB8 DUP2 PUSH2 0x1A5A JUMP JUMPDEST PUSH1 0x0 DUP3 PUSH1 0x1F DUP4 ADD SLT PUSH2 0xEDE JUMPI PUSH1 0x0 DUP1 REVERT JUMPDEST DUP2 MLOAD PUSH2 0xEF1 PUSH2 0xEEC DUP3 PUSH2 0x194F JUMP JUMPDEST PUSH2 0x1929 JUMP JUMPDEST SWAP2 POP DUP2 DUP2 DUP4 MSTORE PUSH1 0x20 DUP5 ADD SWAP4 POP PUSH1 0x20 DUP2 ADD SWAP1 POP DUP4 DUP6 PUSH1 0x20 DUP5 MUL DUP3 ADD GT ISZERO PUSH2 0xF16 JUMPI PUSH1 0x0 DUP1 REVERT JUMPDEST PUSH1 0x0 JUMPDEST DUP4 DUP2 LT ISZERO PUSH2 0xF42 JUMPI DUP2 PUSH2 0xF2C DUP9 DUP3 PUSH2 0x1037 JUMP JUMPDEST DUP5 MSTORE POP PUSH1 0x20 SWAP3 DUP4 ADD SWAP3 SWAP2 SWAP1 SWAP2 ADD SWAP1 PUSH1 0x1 ADD PUSH2 0xF19 JUMP JUMPDEST POP POP POP POP SWAP3 SWAP2 POP POP JUMP JUMPDEST PUSH1 0x0 DUP3 PUSH1 0x1F DUP4 ADD SLT PUSH2 0xF5D JUMPI PUSH1 0x0 DUP1 REVERT JUMPDEST DUP2 CALLDATALOAD PUSH2 0xF6B PUSH2 0xEEC DUP3 PUSH2 0x194F JUMP JUMPDEST SWAP2 POP DUP2 DUP2 DUP4 MSTORE PUSH1 0x20 DUP5 ADD SWAP4 POP PUSH1 0x20 DUP2 ADD SWAP1 POP DUP4 DUP6 PUSH1 0x20 DUP5 MUL DUP3 ADD GT ISZERO PUSH2 0xF90 JUMPI PUSH1 0x0 DUP1 REVERT JUMPDEST PUSH1 0x0 JUMPDEST DUP4 DUP2 LT ISZERO PUSH2 0xF42 JUMPI DUP2 PUSH2 0xFA6 DUP9 DUP3 PUSH2 0x102C JUMP JUMPDEST DUP5 MSTORE POP PUSH1 0x20 SWAP3 DUP4 ADD SWAP3 SWAP2 SWAP1 SWAP2 ADD SWAP1 PUSH1 0x1 ADD PUSH2 0xF93 JUMP JUMPDEST PUSH1 0x0 DUP3 PUSH1 0x1F DUP4 ADD SLT PUSH2 0xFCD JUMPI PUSH1 0x0 DUP1 REVERT JUMPDEST DUP2 MLOAD PUSH2 0xFDB PUSH2 0xEEC DUP3 PUSH2 0x194F JUMP JUMPDEST SWAP2 POP DUP2 DUP2 DUP4 MSTORE PUSH1 0x20 DUP5 ADD SWAP4 POP PUSH1 0x20 DUP2 ADD SWAP1 POP DUP4 DUP6 PUSH1 0x20 DUP5 MUL DUP3 ADD GT ISZERO PUSH2 0x1000 JUMPI PUSH1 0x0 DUP1 REVERT JUMPDEST PUSH1 0x0 JUMPDEST DUP4 DUP2 LT ISZERO PUSH2 0xF42 JUMPI DUP2 PUSH2 0x1016 DUP9 DUP3 PUSH2 0x1037 JUMP JUMPDEST DUP5 MSTORE POP PUSH1 0x20 SWAP3 DUP4 ADD SWAP3 SWAP2 SWAP1 SWAP2 ADD SWAP1 PUSH1 0x1 ADD PUSH2 0x1003 JUMP JUMPDEST DUP1 CALLDATALOAD PUSH2 0xCB8 DUP2 PUSH2 0x1A6E JUMP JUMPDEST DUP1 MLOAD PUSH2 0xCB8 DUP2 PUSH2 0x1A6E JUMP JUMPDEST PUSH1 0x0 DUP3 PUSH1 0x1F DUP4 ADD SLT PUSH2 0x1053 JUMPI PUSH1 0x0 DUP1 REVERT JUMPDEST DUP2 CALLDATALOAD PUSH2 0x1061 PUSH2 0xEEC DUP3 PUSH2 0x196F JUMP JUMPDEST SWAP2 POP DUP1 DUP3 MSTORE PUSH1 0x20 DUP4 ADD PUSH1 0x20 DUP4 ADD DUP6 DUP4 DUP4 ADD GT ISZERO PUSH2 0x107D JUMPI PUSH1 0x0 DUP1 REVERT JUMPDEST PUSH2 0xCB4 DUP4 DUP3 DUP5 PUSH2 0x19FD JUMP JUMPDEST PUSH1 0x0 DUP3 PUSH1 0x1F DUP4 ADD SLT PUSH2 0x1099 JUMPI PUSH1 0x0 DUP1 REVERT JUMPDEST DUP2 MLOAD PUSH2 0x10A7 PUSH2 0xEEC DUP3 PUSH2 0x196F JUMP JUMPDEST SWAP2 POP DUP1 DUP3 MSTORE PUSH1 0x20 DUP4 ADD PUSH1 0x20 DUP4 ADD DUP6 DUP4 DUP4 ADD GT ISZERO PUSH2 0x10C3 JUMPI PUSH1 0x0 DUP1 REVERT JUMPDEST PUSH2 0xCB4 DUP4 DUP3 DUP5 PUSH2 0x1A09 JUMP JUMPDEST DUP1 MLOAD PUSH2 0xCB8 DUP2 PUSH2 0x1A77 JUMP JUMPDEST PUSH1 0x0 PUSH1 0xA0 DUP3 DUP5 SUB SLT ISZERO PUSH2 0x10EB JUMPI PUSH1 0x0 DUP1 REVERT JUMPDEST PUSH2 0x10F5 PUSH1 0xA0 PUSH2 0x1929 JUMP JUMPDEST SWAP1 POP PUSH1 0x0 PUSH2 0x1103 DUP5 DUP5 PUSH2 0x102C JUMP JUMPDEST DUP3 MSTORE POP PUSH1 0x20 PUSH2 0x1114 DUP5 DUP5 DUP4 ADD PUSH2 0xEB7 JUMP JUMPDEST PUSH1 0x20 DUP4 ADD MSTORE POP PUSH1 0x40 PUSH2 0x1128 DUP5 DUP3 DUP6 ADD PUSH2 0xEB7 JUMP JUMPDEST PUSH1 0x40 DUP4 ADD MSTORE POP PUSH1 0x60 PUSH2 0x113C DUP5 DUP3 DUP6 ADD PUSH2 0xEB7 JUMP JUMPDEST PUSH1 0x60 DUP4 ADD MSTORE POP PUSH1 0x80 DUP3 ADD CALLDATALOAD PUSH1 0x1 PUSH1 0x1 PUSH1 0x40 SHL SUB DUP2 GT ISZERO PUSH2 0x115B JUMPI PUSH1 0x0 DUP1 REVERT JUMPDEST PUSH2 0x1167 DUP5 DUP3 DUP6 ADD PUSH2 0x1042 JUMP JUMPDEST PUSH1 0x80 DUP4 ADD MSTORE POP SWAP3 SWAP2 POP POP JUMP JUMPDEST PUSH1 0x0 PUSH1 0xA0 DUP3 DUP5 SUB SLT ISZERO PUSH2 0x1185 JUMPI PUSH1 0x0 DUP1 REVERT JUMPDEST PUSH2 0x118F PUSH1 0xA0 PUSH2 0x1929 JUMP JUMPDEST SWAP1 POP PUSH1 0x0 PUSH2 0x119D DUP5 DUP5 PUSH2 0x1037 JUMP JUMPDEST DUP3 MSTORE POP PUSH1 0x20 PUSH2 0x11AE DUP5 DUP5 DUP4 ADD PUSH2 0xEC2 JUMP JUMPDEST PUSH1 0x20 DUP4 ADD MSTORE POP PUSH1 0x40 PUSH2 0x11C2 DUP5 DUP3 DUP6 ADD PUSH2 0xEC2 JUMP JUMPDEST PUSH1 0x40 DUP4 ADD MSTORE POP PUSH1 0x60 PUSH2 0x11D6 DUP5 DUP3 DUP6 ADD PUSH2 0xEC2 JUMP JUMPDEST PUSH1 0x60 DUP4 ADD MSTORE POP PUSH1 0x80 DUP3 ADD MLOAD PUSH1 0x1 PUSH1 0x1 PUSH1 0x40 SHL SUB DUP2 GT ISZERO PUSH2 0x11F5 JUMPI PUSH1 0x0 DUP1 REVERT JUMPDEST PUSH2 0x1167 DUP5 DUP3 DUP6 ADD PUSH2 0x1088 JUMP JUMPDEST PUSH1 0x0 DUP1 PUSH1 0x40 DUP4 DUP6 SUB SLT ISZERO PUSH2 0x1214 JUMPI PUSH1 0x0 DUP1 REVERT JUMPDEST PUSH1 0x0 PUSH2 0x1220 DUP6 DUP6 PUSH2 0xEC2 JUMP JUMPDEST SWAP3 POP POP PUSH1 0x20 DUP4 ADD MLOAD PUSH1 0x1 PUSH1 0x1 PUSH1 0x40 SHL SUB DUP2 GT ISZERO PUSH2 0x123C JUMPI PUSH1 0x0 DUP1 REVERT JUMPDEST PUSH2 0x1248 DUP6 DUP3 DUP7 ADD PUSH2 0x1173 JUMP JUMPDEST SWAP2 POP POP SWAP3 POP SWAP3 SWAP1 POP JUMP JUMPDEST PUSH1 0x0 DUP1 PUSH1 0x0 PUSH1 0x60 DUP5 DUP7 SUB SLT ISZERO PUSH2 0x1267 JUMPI PUSH1 0x0 DUP1 REVERT JUMPDEST DUP4 MLOAD PUSH1 0x1 PUSH1 0x1 PUSH1 0x40 SHL SUB DUP2 GT ISZERO PUSH2 0x127D JUMPI PUSH1 0x0 DUP1 REVERT JUMPDEST PUSH2 0x1289 DUP7 DUP3 DUP8 ADD PUSH2 0xECD JUMP JUMPDEST SWAP4 POP POP PUSH1 0x20 DUP5 ADD MLOAD PUSH1 0x1 PUSH1 0x1 PUSH1 0x40 SHL SUB DUP2 GT ISZERO PUSH2 0x12A5 JUMPI PUSH1 0x0 DUP1 REVERT JUMPDEST PUSH2 0x12B1 DUP7 DUP3 DUP8 ADD PUSH2 0xFBC JUMP JUMPDEST SWAP3 POP POP PUSH1 0x40 PUSH2 0x12C2 DUP7 DUP3 DUP8 ADD PUSH2 0x10CE JUMP JUMPDEST SWAP2 POP POP SWAP3 POP SWAP3 POP SWAP3 JUMP JUMPDEST PUSH1 0x0 PUSH1 0x20 DUP3 DUP5 SUB SLT ISZERO PUSH2 0x12DE JUMPI PUSH1 0x0 DUP1 REVERT JUMPDEST DUP2 MLOAD PUSH1 0x1 PUSH1 0x1 PUSH1 0x40 SHL SUB DUP2 GT ISZERO PUSH2 0x12F4 JUMPI PUSH1 0x0 DUP1 REVERT JUMPDEST PUSH2 0x34D DUP5 DUP3 DUP6 ADD PUSH2 0x1088 JUMP JUMPDEST PUSH1 0x0 DUP1 PUSH1 0x0 DUP1 PUSH1 0x80 DUP6 DUP8 SUB SLT ISZERO PUSH2 0x1316 JUMPI PUSH1 0x0 DUP1 REVERT JUMPDEST DUP5 CALLDATALOAD PUSH1 0x1 PUSH1 0x1 PUSH1 0x40 SHL SUB DUP2 GT ISZERO PUSH2 0x132C JUMPI PUSH1 0x0 DUP1 REVERT JUMPDEST PUSH2 0x1338 DUP8 DUP3 DUP9 ADD PUSH2 0x10D9 JUMP JUMPDEST SWAP5 POP POP PUSH1 0x20 PUSH2 0x1349 DUP8 DUP3 DUP9 ADD PUSH2 0xEB7 JUMP JUMPDEST SWAP4 POP POP PUSH1 0x40 PUSH2 0x135A DUP8 DUP3 DUP9 ADD PUSH2 0xEB7 JUMP JUMPDEST SWAP3 POP POP PUSH1 0x60 DUP6 ADD CALLDATALOAD PUSH1 0x1 PUSH1 0x1 PUSH1 0x40 SHL SUB DUP2 GT ISZERO PUSH2 0x1376 JUMPI PUSH1 0x0 DUP1 REVERT JUMPDEST PUSH2 0x1382 DUP8 DUP3 DUP9 ADD PUSH2 0xF4C JUMP JUMPDEST SWAP2 POP POP SWAP3 SWAP6 SWAP2 SWAP5 POP SWAP3 POP JUMP JUMPDEST PUSH1 0x0 DUP1 PUSH1 0x0 DUP1 PUSH1 0x80 DUP6 DUP8 SUB SLT ISZERO PUSH2 0x13A4 JUMPI PUSH1 0x0 DUP1 REVERT JUMPDEST DUP5 CALLDATALOAD PUSH1 0x1 PUSH1 0x1 PUSH1 0x40 SHL SUB DUP2 GT ISZERO PUSH2 0x13BA JUMPI PUSH1 0x0 DUP1 REVERT JUMPDEST PUSH2 0x13C6 DUP8 DUP3 DUP9 ADD PUSH2 0x10D9 JUMP JUMPDEST SWAP5 POP POP PUSH1 0x20 PUSH2 0x13D7 DUP8 DUP3 DUP9 ADD PUSH2 0xEB7 JUMP JUMPDEST SWAP4 POP POP PUSH1 0x40 PUSH2 0x13E8 DUP8 DUP3 DUP9 ADD PUSH2 0xEB7 JUMP JUMPDEST SWAP3 POP POP PUSH1 0x60 PUSH2 0x1382 DUP8 DUP3 DUP9 ADD PUSH2 0x102C JUMP JUMPDEST PUSH1 0x0 DUP1 PUSH1 0x0 DUP1 PUSH1 0x80 DUP6 DUP8 SUB SLT ISZERO PUSH2 0x140F JUMPI PUSH1 0x0 DUP1 REVERT JUMPDEST DUP5 CALLDATALOAD PUSH1 0x1 PUSH1 0x1 PUSH1 0x40 SHL SUB DUP2 GT ISZERO PUSH2 0x1425 JUMPI PUSH1 0x0 DUP1 REVERT JUMPDEST PUSH2 0x1431 DUP8 DUP3 DUP9 ADD PUSH2 0x10D9 JUMP JUMPDEST SWAP5 POP POP PUSH1 0x20 PUSH2 0x1442 DUP8 DUP3 DUP9 ADD PUSH2 0x102C JUMP JUMPDEST SWAP4 POP POP PUSH1 0x40 PUSH2 0x1453 DUP8 DUP3 DUP9 ADD PUSH2 0xEB7 JUMP JUMPDEST SWAP3 POP POP PUSH1 0x60 PUSH2 0x1382 DUP8 DUP3 DUP9 ADD PUSH2 0xEB7 JUMP JUMPDEST PUSH1 0x0 PUSH1 0x20 DUP3 DUP5 SUB SLT ISZERO PUSH2 0x1476 JUMPI PUSH1 0x0 DUP1 REVERT JUMPDEST PUSH1 0x0 PUSH2 0x34D DUP5 DUP5 PUSH2 0x1037 JUMP JUMPDEST PUSH1 0x0 PUSH2 0x148E DUP4 DUP4 PUSH2 0x1555 JUMP JUMPDEST POP POP PUSH1 0x20 ADD SWAP1 JUMP JUMPDEST PUSH2 0x149F DUP2 PUSH2 0x19A9 JUMP JUMPDEST DUP3 MSTORE POP POP JUMP JUMPDEST PUSH1 0x0 PUSH2 0x14B0 DUP3 PUSH2 0x199C JUMP JUMPDEST PUSH2 0x14BA DUP2 DUP6 PUSH2 0x19A0 JUMP JUMPDEST SWAP4 POP PUSH2 0x14C5 DUP4 PUSH2 0x1996 JUMP JUMPDEST DUP1 PUSH1 0x0 JUMPDEST DUP4 DUP2 LT ISZERO PUSH2 0x14F3 JUMPI DUP2 MLOAD PUSH2 0x14DD DUP9 DUP3 PUSH2 0x1482 JUMP JUMPDEST SWAP8 POP PUSH2 0x14E8 DUP4 PUSH2 0x1996 JUMP JUMPDEST SWAP3 POP POP PUSH1 0x1 ADD PUSH2 0x14C9 JUMP JUMPDEST POP SWAP5 SWAP6 SWAP5 POP POP POP POP POP JUMP JUMPDEST PUSH1 0x0 PUSH2 0x1509 DUP3 PUSH2 0x199C JUMP JUMPDEST PUSH2 0x1513 DUP2 DUP6 PUSH2 0x19A0 JUMP JUMPDEST SWAP4 POP PUSH2 0x151E DUP4 PUSH2 0x1996 JUMP JUMPDEST DUP1 PUSH1 0x0 JUMPDEST DUP4 DUP2 LT ISZERO PUSH2 0x14F3 JUMPI DUP2 MLOAD PUSH2 0x1536 DUP9 DUP3 PUSH2 0x1482 JUMP JUMPDEST SWAP8 POP PUSH2 0x1541 DUP4 PUSH2 0x1996 JUMP JUMPDEST SWAP3 POP POP PUSH1 0x1 ADD PUSH2 0x1522 JUMP JUMPDEST PUSH2 0x149F DUP2 PUSH2 0x19B4 JUMP JUMPDEST PUSH2 0x149F DUP2 PUSH2 0x19B9 JUMP JUMPDEST PUSH1 0x0 PUSH2 0x1569 DUP3 PUSH2 0x199C JUMP JUMPDEST PUSH2 0x1573 DUP2 DUP6 PUSH2 0x19A0 JUMP JUMPDEST SWAP4 POP PUSH2 0x1583 DUP2 DUP6 PUSH1 0x20 DUP7 ADD PUSH2 0x1A09 JUMP JUMPDEST PUSH2 0x158C DUP2 PUSH2 0x1A39 JUMP JUMPDEST SWAP1 SWAP4 ADD SWAP4 SWAP3 POP POP POP JUMP JUMPDEST PUSH1 0x0 PUSH2 0x15A1 DUP3 PUSH2 0x199C JUMP JUMPDEST PUSH2 0x15AB DUP2 DUP6 PUSH2 0xCCC JUMP JUMPDEST SWAP4 POP PUSH2 0x15BB DUP2 DUP6 PUSH1 0x20 DUP7 ADD PUSH2 0x1A09 JUMP JUMPDEST SWAP3 SWAP1 SWAP3 ADD SWAP3 SWAP2 POP POP JUMP JUMPDEST PUSH2 0x149F DUP2 PUSH2 0x19DC JUMP JUMPDEST PUSH2 0x149F DUP2 PUSH2 0x19E7 JUMP JUMPDEST PUSH2 0x149F DUP2 PUSH2 0x19F2 JUMP JUMPDEST PUSH1 0x0 PUSH2 0x15ED PUSH1 0x25 DUP4 PUSH2 0x19A0 JUMP JUMPDEST PUSH32 0x455243323042726964676553616D706C65722F494E56414C49445F544F4B454E DUP2 MSTORE PUSH5 0x2FA820A4A9 PUSH1 0xD9 SHL PUSH1 0x20 DUP3 ADD MSTORE PUSH1 0x40 ADD SWAP3 SWAP2 POP POP JUMP JUMPDEST DUP1 MLOAD PUSH1 0x0 SWAP1 PUSH1 0xA0 DUP5 ADD SWAP1 PUSH2 0x163B DUP6 DUP3 PUSH2 0x1555 JUMP JUMPDEST POP PUSH1 0x20 DUP4 ADD MLOAD PUSH2 0x164E PUSH1 0x20 DUP7 ADD DUP3 PUSH2 0x1496 JUMP JUMPDEST POP PUSH1 0x40 DUP4 ADD MLOAD PUSH2 0x1661 PUSH1 0x40 DUP7 ADD DUP3 PUSH2 0x1496 JUMP JUMPDEST POP PUSH1 0x60 DUP4 ADD MLOAD PUSH2 0x1674 PUSH1 0x60 DUP7 ADD DUP3 PUSH2 0x1496 JUMP JUMPDEST POP PUSH1 0x80 DUP4 ADD MLOAD DUP5 DUP3 SUB PUSH1 0x80 DUP7 ADD MSTORE PUSH2 0x168C DUP3 DUP3 PUSH2 0x155E JUMP JUMPDEST SWAP6 SWAP5 POP POP POP POP POP JUMP JUMPDEST PUSH1 0x0 PUSH2 0x9AA DUP3 DUP5 PUSH2 0x1596 JUMP JUMPDEST PUSH1 0x80 DUP2 ADD PUSH2 0x16AF DUP3 DUP8 PUSH2 0x1496 JUMP JUMPDEST PUSH2 0x16BC PUSH1 0x20 DUP4 ADD DUP7 PUSH2 0x1496 JUMP JUMPDEST PUSH2 0x16C9 PUSH1 0x40 DUP4 ADD DUP6 PUSH2 0x154C JUMP JUMPDEST DUP2 DUP2 SUB PUSH1 0x60 DUP4 ADD MSTORE PUSH2 0x16DB DUP2 DUP5 PUSH2 0x155E JUMP JUMPDEST SWAP7 SWAP6 POP POP POP POP POP POP JUMP JUMPDEST PUSH1 0xA0 DUP2 ADD PUSH2 0x16F3 DUP3 DUP9 PUSH2 0x1496 JUMP JUMPDEST PUSH2 0x1700 PUSH1 0x20 DUP4 ADD DUP8 PUSH2 0x1496 JUMP JUMPDEST PUSH2 0x170D PUSH1 0x40 DUP4 ADD DUP7 PUSH2 0x1555 JUMP JUMPDEST PUSH2 0x171A PUSH1 0x60 DUP4 ADD DUP6 PUSH2 0x15D7 JUMP JUMPDEST DUP2 DUP2 SUB PUSH1 0x80 DUP4 ADD MSTORE PUSH2 0x172C DUP2 DUP5 PUSH2 0x155E JUMP JUMPDEST SWAP8 SWAP7 POP POP POP POP POP POP POP JUMP JUMPDEST PUSH1 0x80 DUP2 ADD PUSH2 0x1745 DUP3 DUP8 PUSH2 0x1496 JUMP JUMPDEST PUSH2 0x1752 PUSH1 0x20 DUP4 ADD DUP7 PUSH2 0x15CE JUMP JUMPDEST DUP2 DUP2 SUB PUSH1 0x40 DUP4 ADD MSTORE PUSH2 0x1764 DUP2 DUP6 PUSH2 0x14A5 JUMP JUMPDEST SWAP1 POP DUP2 DUP2 SUB PUSH1 0x60 DUP4 ADD MSTORE PUSH2 0x16DB DUP2 DUP5 PUSH2 0x14FE JUMP JUMPDEST PUSH2 0x100 DUP2 ADD PUSH2 0x1787 DUP3 DUP12 PUSH2 0x1496 JUMP JUMPDEST PUSH2 0x1794 PUSH1 0x20 DUP4 ADD DUP11 PUSH2 0x15CE JUMP JUMPDEST DUP2 DUP2 SUB PUSH1 0x40 DUP4 ADD MSTORE PUSH2 0x17A6 DUP2 DUP10 PUSH2 0x14A5 JUMP JUMPDEST SWAP1 POP DUP2 DUP2 SUB PUSH1 0x60 DUP4 ADD MSTORE PUSH2 0x17BA DUP2 DUP9 PUSH2 0x14FE JUMP JUMPDEST SWAP1 POP PUSH2 0x17C9 PUSH1 0x80 DUP4 ADD DUP8 PUSH2 0x1496 JUMP JUMPDEST PUSH2 0x17D6 PUSH1 0xA0 DUP4 ADD DUP7 PUSH2 0x15CE JUMP JUMPDEST DUP2 DUP2 SUB PUSH1 0xC0 DUP4 ADD MSTORE PUSH2 0x17E8 DUP2 DUP6 PUSH2 0x14A5 JUMP JUMPDEST SWAP1 POP DUP2 DUP2 SUB PUSH1 0xE0 DUP4 ADD MSTORE PUSH2 0x17FC DUP2 DUP5 PUSH2 0x14FE JUMP JUMPDEST SWAP11 SWAP10 POP POP POP POP POP POP POP POP POP POP JUMP JUMPDEST PUSH1 0x40 DUP2 ADD PUSH2 0x1818 DUP3 DUP6 PUSH2 0x1496 JUMP JUMPDEST DUP2 DUP2 SUB PUSH1 0x20 DUP4 ADD MSTORE PUSH2 0x34D DUP2 DUP5 PUSH2 0x1627 JUMP JUMPDEST PUSH1 0x60 DUP2 ADD PUSH2 0x1838 DUP3 DUP7 PUSH2 0x1555 JUMP JUMPDEST DUP2 DUP2 SUB PUSH1 0x20 DUP4 ADD MSTORE PUSH2 0x184A DUP2 DUP6 PUSH2 0x155E JUMP JUMPDEST SWAP1 POP DUP2 DUP2 SUB PUSH1 0x40 DUP4 ADD MSTORE PUSH2 0x168C DUP2 DUP5 PUSH2 0x14FE JUMP JUMPDEST PUSH1 0x20 DUP1 DUP3 MSTORE DUP2 ADD PUSH2 0x9AA DUP2 DUP5 PUSH2 0x155E JUMP JUMPDEST PUSH1 0x60 DUP2 ADD PUSH2 0x187D DUP3 DUP7 PUSH2 0x15C5 JUMP JUMPDEST PUSH2 0x188A PUSH1 0x20 DUP4 ADD DUP6 PUSH2 0x1555 JUMP JUMPDEST PUSH2 0x34D PUSH1 0x40 DUP4 ADD DUP5 PUSH2 0x1555 JUMP JUMPDEST PUSH1 0x20 DUP1 DUP3 MSTORE DUP2 ADD PUSH2 0xCC9 DUP2 PUSH2 0x15E0 JUMP JUMPDEST PUSH1 0x80 DUP1 DUP3 MSTORE DUP2 ADD PUSH2 0x18B8 DUP2 DUP8 PUSH2 0x1627 JUMP JUMPDEST SWAP1 POP PUSH2 0x18C7 PUSH1 0x20 DUP4 ADD DUP7 PUSH2 0x1496 JUMP JUMPDEST PUSH2 0x18D4 PUSH1 0x40 DUP4 ADD DUP6 PUSH2 0x1496 JUMP JUMPDEST PUSH2 0x168C PUSH1 0x60 DUP4 ADD DUP5 PUSH2 0x1555 JUMP JUMPDEST PUSH1 0x80 DUP1 DUP3 MSTORE DUP2 ADD PUSH2 0x18F2 DUP2 DUP8 PUSH2 0x1627 JUMP JUMPDEST SWAP1 POP PUSH2 0x1901 PUSH1 0x20 DUP4 ADD DUP7 PUSH2 0x1555 JUMP JUMPDEST PUSH2 0x190E PUSH1 0x40 DUP4 ADD DUP6 PUSH2 0x1496 JUMP JUMPDEST PUSH2 0x168C PUSH1 0x60 DUP4 ADD DUP5 PUSH2 0x1496 JUMP JUMPDEST PUSH1 0x20 DUP2 ADD PUSH2 0xCB8 DUP3 DUP5 PUSH2 0x1555 JUMP JUMPDEST PUSH1 0x40 MLOAD DUP2 DUP2 ADD PUSH1 0x1 PUSH1 0x1 PUSH1 0x40 SHL SUB DUP2 GT DUP3 DUP3 LT OR ISZERO PUSH2 0x1947 JUMPI PUSH1 0x0 DUP1 REVERT JUMPDEST PUSH1 0x40 MSTORE SWAP2 SWAP1 POP JUMP JUMPDEST PUSH1 0x0 PUSH1 0x1 PUSH1 0x1 PUSH1 0x40 SHL SUB DUP3 GT ISZERO PUSH2 0x1965 JUMPI PUSH1 0x0 DUP1 REVERT JUMPDEST POP PUSH1 0x20 SWAP1 DUP2 MUL ADD SWAP1 JUMP JUMPDEST PUSH1 0x0 PUSH1 0x1 PUSH1 0x1 PUSH1 0x40 SHL SUB DUP3 GT ISZERO PUSH2 0x1985 JUMPI PUSH1 0x0 DUP1 REVERT JUMPDEST POP PUSH1 0x20 PUSH1 0x1F SWAP2 SWAP1 SWAP2 ADD PUSH1 0x1F NOT AND ADD SWAP1 JUMP JUMPDEST PUSH1 0x20 ADD SWAP1 JUMP JUMPDEST MLOAD SWAP1 JUMP JUMPDEST SWAP1 DUP2 MSTORE PUSH1 0x20 ADD SWAP1 JUMP JUMPDEST PUSH1 0x0 PUSH2 0xCC9 DUP3 PUSH2 0x19D0 JUMP JUMPDEST ISZERO ISZERO SWAP1 JUMP JUMPDEST SWAP1 JUMP JUMPDEST DUP1 PUSH2 0xCCC DUP2 PUSH2 0x1A43 JUMP JUMPDEST DUP1 PUSH2 0xCCC DUP2 PUSH2 0x1A50 JUMP JUMPDEST PUSH1 0x1 PUSH1 0x1 PUSH1 0xA0 SHL SUB AND SWAP1 JUMP JUMPDEST PUSH1 0x0 PUSH2 0xCC9 DUP3 PUSH2 0x19BC JUMP JUMPDEST PUSH1 0x0 PUSH2 0xCC9 DUP3 PUSH2 0x19C6 JUMP JUMPDEST PUSH1 0x0 PUSH2 0xCC9 DUP3 PUSH2 0x19B9 JUMP JUMPDEST DUP3 DUP2 DUP4 CALLDATACOPY POP PUSH1 0x0 SWAP2 ADD MSTORE JUMP JUMPDEST PUSH1 0x0 JUMPDEST DUP4 DUP2 LT ISZERO PUSH2 0x1A24 JUMPI DUP2 DUP2 ADD MLOAD DUP4 DUP3 ADD MSTORE PUSH1 0x20 ADD PUSH2 0x1A0C JUMP JUMPDEST DUP4 DUP2 GT ISZERO PUSH2 0x1A33 JUMPI PUSH1 0x0 DUP5 DUP5 ADD MSTORE JUMPDEST POP POP POP POP JUMP JUMPDEST PUSH1 0x1F ADD PUSH1 0x1F NOT AND SWAP1 JUMP JUMPDEST PUSH1 0x8 DUP2 LT PUSH2 0x1A4D JUMPI INVALID JUMPDEST POP JUMP JUMPDEST PUSH1 0x4 DUP2 LT PUSH2 0x1A4D JUMPI INVALID JUMPDEST PUSH2 0x1A63 DUP2 PUSH2 0x19A9 JUMP JUMPDEST DUP2 EQ PUSH2 0x1A4D JUMPI PUSH1 0x0 DUP1 REVERT JUMPDEST PUSH2 0x1A63 DUP2 PUSH2 0x19B9 JUMP JUMPDEST PUSH1 0x2 DUP2 LT PUSH2 0x1A4D JUMPI PUSH1 0x0 DUP1 REVERT INVALID LOG2 PUSH5 0x6970667358 0x22 SLT KECCAK256 DUP9 LOG4 0xE2 0xE7 0xB1 CHAINID 0xCF 0xC2 DELEGATECALL 0xBB 0xBF PUSH27 0x72B0DDC7ECFBC96E0C0051F3ADCA0EBCD89FC1EF64736F6C634300 MOD 0xC STOP CALLER "
            }
        }
    },
    "sourceTreeHashHex": "0x24dfcf39f05c9055b8cc8981bf7501e1fcf72ca24ee149c9303fc4bb75bfa186",
    "compiler": {
        "name": "solc",
        "version": "0.6.12+commit.27d51765",
        "settings": {
            "remappings": [
                "@0x/contracts-utils=/home/cluracan/code/0x/protocol/node_modules/@0x/contracts-utils",
                "@0x/contracts-erc20=/home/cluracan/code/0x/protocol/node_modules/@0x/contracts-erc20",
                "@0x/contracts-zero-ex=/home/cluracan/code/0x/protocol/node_modules/@0x/contracts-zero-ex"
            ],
            "optimizer": {
                "enabled": true,
                "runs": 200,
                "details": {
                    "yul": false,
                    "deduplicate": true
                }
            },
            "outputSelection": {
                "*": {
                    "*": [
                        "abi",
                        "devdoc",
                        "evm.bytecode.object",
                        "evm.bytecode.sourceMap",
                        "evm.deployedBytecode.object",
                        "evm.deployedBytecode.sourceMap"
                    ]
                }
            },
            "evmVersion": "istanbul"
        }
    },
    "chains": {}
}