{
    "schemaVersion": "2.0.0",
    "contractName": "KyberSampler",
    "compilerOutput": {
        "abi": [
            {
                "inputs": [
                    {
                        "internalType": "contract IEtherTokenV06",
                        "name": "weth",
                        "type": "address"
                    }
                ],
                "stateMutability": "nonpayable",
                "type": "constructor"
            },
            {
                "inputs": [
                    {
                        "internalType": "bytes4",
                        "name": "selector",
                        "type": "bytes4"
                    },
                    {
                        "internalType": "address",
                        "name": "sellToken",
                        "type": "address"
                    },
                    {
                        "internalType": "address",
                        "name": "buyToken",
                        "type": "address"
                    },
                    {
                        "internalType": "bytes",
                        "name": "bridgeData",
                        "type": "bytes"
                    },
                    {
                        "internalType": "uint256",
                        "name": "amountIn",
                        "type": "uint256"
                    }
                ],
                "name": "_callRevert",
                "outputs": [],
                "stateMutability": "nonpayable",
                "type": "function"
            },
            {
                "inputs": [
                    {
                        "internalType": "bytes4",
                        "name": "selector",
                        "type": "bytes4"
                    },
                    {
                        "internalType": "address",
                        "name": "sellToken",
                        "type": "address"
                    },
                    {
                        "internalType": "address",
                        "name": "buyToken",
                        "type": "address"
                    },
                    {
                        "internalType": "bytes",
                        "name": "bridgeData",
                        "type": "bytes"
                    },
                    {
                        "internalType": "uint256[]",
                        "name": "amountsIn",
                        "type": "uint256[]"
                    }
                ],
                "name": "_mintCallRevert",
                "outputs": [],
                "stateMutability": "nonpayable",
                "type": "function"
            },
            {
                "inputs": [
                    {
                        "components": [
                            {
                                "internalType": "uint256",
                                "name": "reserveOffset",
                                "type": "uint256"
                            },
                            {
                                "internalType": "address",
                                "name": "hintHandler",
                                "type": "address"
                            },
                            {
                                "internalType": "address",
                                "name": "networkProxy",
                                "type": "address"
                            },
                            {
                                "internalType": "address",
                                "name": "weth",
                                "type": "address"
                            },
                            {
                                "internalType": "bytes",
                                "name": "hint",
                                "type": "bytes"
                            }
                        ],
                        "internalType": "struct KyberSampler.KyberSamplerOpts",
                        "name": "opts",
                        "type": "tuple"
                    },
                    {
                        "internalType": "bytes32",
                        "name": "reserveId",
                        "type": "bytes32"
                    },
                    {
                        "internalType": "address",
                        "name": "takerToken",
                        "type": "address"
                    },
                    {
                        "internalType": "address",
                        "name": "makerToken",
                        "type": "address"
                    }
                ],
                "name": "encodeKyberHint",
                "outputs": [
                    {
                        "internalType": "bytes",
                        "name": "hint",
                        "type": "bytes"
                    }
                ],
                "stateMutability": "view",
                "type": "function"
            },
            {
                "inputs": [
                    {
                        "components": [
                            {
                                "internalType": "uint256",
                                "name": "reserveOffset",
                                "type": "uint256"
                            },
                            {
                                "internalType": "address",
                                "name": "hintHandler",
                                "type": "address"
                            },
                            {
                                "internalType": "address",
                                "name": "networkProxy",
                                "type": "address"
                            },
                            {
                                "internalType": "address",
                                "name": "weth",
                                "type": "address"
                            },
                            {
                                "internalType": "bytes",
                                "name": "hint",
                                "type": "bytes"
                            }
                        ],
                        "internalType": "struct KyberSampler.KyberSamplerOpts",
                        "name": "opts",
                        "type": "tuple"
                    },
                    {
                        "internalType": "address",
                        "name": "takerToken",
                        "type": "address"
                    },
                    {
                        "internalType": "address",
                        "name": "makerToken",
                        "type": "address"
                    },
                    {
                        "internalType": "uint256[]",
                        "name": "makerTokenAmounts",
                        "type": "uint256[]"
                    }
                ],
                "name": "sampleBuysFromKyberNetwork",
                "outputs": [
                    {
                        "internalType": "bytes32",
                        "name": "reserveId",
                        "type": "bytes32"
                    },
                    {
                        "internalType": "bytes",
                        "name": "hint",
                        "type": "bytes"
                    },
                    {
                        "internalType": "uint256[]",
                        "name": "gasUsed",
                        "type": "uint256[]"
                    },
                    {
                        "internalType": "uint256[]",
                        "name": "takerTokenAmounts",
                        "type": "uint256[]"
                    }
                ],
                "stateMutability": "nonpayable",
                "type": "function"
            },
            {
                "inputs": [
                    {
                        "components": [
                            {
                                "internalType": "uint256",
                                "name": "reserveOffset",
                                "type": "uint256"
                            },
                            {
                                "internalType": "address",
                                "name": "hintHandler",
                                "type": "address"
                            },
                            {
                                "internalType": "address",
                                "name": "networkProxy",
                                "type": "address"
                            },
                            {
                                "internalType": "address",
                                "name": "weth",
                                "type": "address"
                            },
                            {
                                "internalType": "bytes",
                                "name": "hint",
                                "type": "bytes"
                            }
                        ],
                        "internalType": "struct KyberSampler.KyberSamplerOpts",
                        "name": "opts",
                        "type": "tuple"
                    },
                    {
                        "internalType": "address",
                        "name": "takerToken",
                        "type": "address"
                    },
                    {
                        "internalType": "address",
                        "name": "makerToken",
                        "type": "address"
                    },
                    {
                        "internalType": "uint256[]",
                        "name": "takerTokenAmounts",
                        "type": "uint256[]"
                    }
                ],
                "name": "sampleSellsFromKyberNetwork",
                "outputs": [
                    {
                        "internalType": "bytes32",
                        "name": "reserveId",
                        "type": "bytes32"
                    },
                    {
                        "internalType": "bytes",
                        "name": "hint",
                        "type": "bytes"
                    },
                    {
                        "internalType": "uint256[]",
                        "name": "gasUsed",
                        "type": "uint256[]"
                    },
                    {
                        "internalType": "uint256[]",
                        "name": "makerTokenAmounts",
                        "type": "uint256[]"
                    }
                ],
                "stateMutability": "nonpayable",
                "type": "function"
            },
            {
                "inputs": [
                    {
                        "internalType": "address",
                        "name": "sellToken",
                        "type": "address"
                    },
                    {
                        "internalType": "address",
                        "name": "buyToken",
                        "type": "address"
                    },
                    {
                        "internalType": "bytes",
                        "name": "bridgeData",
                        "type": "bytes"
                    },
                    {
                        "internalType": "uint256",
                        "name": "takerTokenAmount",
                        "type": "uint256"
                    }
                ],
                "name": "sampleSwapFromKyber",
                "outputs": [
                    {
                        "internalType": "uint256",
                        "name": "",
                        "type": "uint256"
                    }
                ],
                "stateMutability": "nonpayable",
                "type": "function"
            }
        ],
        "devdoc": {
            "kind": "dev",
            "methods": {
                "_mintCallRevert(bytes4,address,address,bytes,uint256[])": {
                    "details": "Mints the sell token, then performs the swap, then reverts with the amount out. The SwapRevertSamplerQuoteOpts has been unrolled here as our ABI encoder cannot support encoding the function"
                },
                "sampleBuysFromKyberNetwork((uint256,address,address,address,bytes),address,address,uint256[])": {
                    "details": "Sample buy quotes from Kyber.",
                    "params": {
                        "makerToken": "Address of the maker token (what to buy).",
                        "makerTokenAmounts": "Maker token buy amount for each sample.",
                        "opts": "KyberSamplerOpts The nth reserve",
                        "takerToken": "Address of the taker token (what to sell)."
                    },
                    "returns": {
                        "gasUsed": "Gas consumed for each sample.",
                        "hint": "The hint for the selected reserve",
                        "reserveId": "The id of the reserve found at reserveOffset",
                        "takerTokenAmounts": "Taker amounts sold at each maker token amount."
                    }
                },
                "sampleSellsFromKyberNetwork((uint256,address,address,address,bytes),address,address,uint256[])": {
                    "details": "Sample sell quotes from Kyber.",
                    "params": {
                        "makerToken": "Address of the maker token (what to buy).",
                        "opts": "KyberSamplerOpts The nth reserve",
                        "takerToken": "Address of the taker token (what to sell).",
                        "takerTokenAmounts": "Taker token sell amount for each sample."
                    },
                    "returns": {
                        "gasUsed": "Gas consumed per sample.",
                        "hint": "The hint for the selected reserve",
                        "makerTokenAmounts": "Maker amounts bought at each taker token amount.",
                        "reserveId": "The id of the reserve found at reserveOffset"
                    }
                }
            },
            "stateVariables": {
                "KYBER_CALL_GAS": {
                    "details": "Gas limit for Kyber calls."
                },
                "KYBER_ETH_ADDRESS": {
                    "details": "Kyber ETH pseudo-address."
                }
            },
            "version": 1
        },
        "evm": {
            "bytecode": {
                "linkReferences": {},
                "object": "0x60c06040527feeeeeeeeeeeeeeeeeeeeeeeeeeeeeeeeeeeeeeee0000000000000000000000006080523480156200003557600080fd5b50604051620027213803806200272183398101604081905262000058916200006e565b60601b6001600160601b03191660a0526200009e565b60006020828403121562000080578081fd5b81516001600160a01b038116811462000097578182fd5b9392505050565b60805160601c60a05160601c612663620000be60003950506126636000f3fe6080604052600436106100595760003560e01c80631f4ff03e146100655780634edfb5b21461008757806378fee41c146100bd5780639e3f05c3146100dd578063a095a0361461010d578063cc1621c91461013a57610060565b3661006057005b600080fd5b34801561007157600080fd5b50610085610080366004611ccf565b61015a565b005b34801561009357600080fd5b506100a76100a2366004611f8d565b6105c9565b6040516100b491906123d5565b60405180910390f35b3480156100c957600080fd5b506100856100d8366004611d67565b61084f565b3480156100e957600080fd5b506100fd6100f8366004611f04565b610a0f565b6040516100b494939291906122ee565b34801561011957600080fd5b5061012d610128366004611b3e565b610b57565b6040516100b49190612557565b34801561014657600080fd5b506100fd610155366004611f04565b610bd0565b8051849084906000908490600019810190811061017357fe5b60200260200101519050826001600160a01b031663ab86e0a630836040518363ffffffff1660e01b81526004016101ab929190612114565b600060405180830381600087803b1580156101c557600080fd5b505af19250505080156101d6575060015b50866001600160a01b031663d0e30db0826040518263ffffffff1660e01b81526004016000604051808303818588803b15801561021257600080fd5b505af193505050508015610224575060015b506040516355c3705360e11b81526001600160a01b0383169063ab86e0a690610254903090600090600401612114565b600060405180830381600087803b15801561026e57600080fd5b505af192505050801561027f575060015b506040516370a0823160e01b815281906001600160a01b038516906370a08231906102ae903090600401612100565b602060405180830381600087803b1580156102c857600080fd5b505af11580156102dc573d6000803e3d6000fd5b505050506040513d601f19601f820116820180604052508101906103009190611ff6565b146103265760405162461bcd60e51b815260040161031d90612493565b60405180910390fd5b6040516370a0823160e01b81526001600160a01b038316906370a0823190610352903090600401612100565b602060405180830381600087803b15801561036c57600080fd5b505af1158015610380573d6000803e3d6000fd5b505050506040513d601f19601f820116820180604052508101906103a49190611ff6565b156103c15760405162461bcd60e51b815260040161031d9061245c565b6040516000904780156108fc029183818181858288f193505050501580156103ed573d6000803e3d6000fd5b50606084516001600160401b038111801561040757600080fd5b50604051908082528060200260200182016040528015610431578160200160208202803683370190505b509050606085516001600160401b038111801561044d57600080fd5b50604051908082528060200260200182016040528015610477578160200160208202803683370190505b50905060005b86518110156105b257306001600160a01b03166378fee41c621e84808d8d8d8d8d88815181106104a957fe5b60200260200101516040518763ffffffff1660e01b81526004016104d1959493929190612387565b600060405180830381600088803b1580156104eb57600080fd5b5087f1935050505080156104fd575060015b610592573d80801561052b576040519150601f19603f3d011682016040523d82523d6000602084013e610530565b606091505b5061053a81610ce2565b85848151811061054657fe5b6020026020010185858151811061055957fe5b602002602001018281525082815250505083828151811061057657fe5b60200260200101516000141561058c57506105b2565b506105aa565b60405162461bcd60e51b815260040161031d906124d6565b60010161047d565b506105bd8282610d17565b50505050505050505050565b6020848101516040805160018082528183019092526060938492908281019080368337019050509050858160008151811061060057fe5b602090810291909101015260606000604051908082528060200260200182016040528015610638578160200160208202803683370190505b50905087606001516001600160a01b0316866001600160a01b03161415610729576040516381efcbdd60e01b81526001600160a01b038416906381efcbdd906207a12090610691908990600190889088906004016121dc565b60006040518083038187803b1580156106a957600080fd5b5086fa935050505080156106df57506040513d6000823e601f3d908101601f191682016040526106dc9190810190611de1565b60015b610719573d80801561070d576040519150601f19603f3d011682016040523d82523d6000602084013e610712565b606091505b5050610724565b935061084792505050565b610843565b87606001516001600160a01b0316856001600160a01b0316141561077f576040516361e597f960e01b81526001600160a01b038416906361e597f9906207a12090610691908a90600190889088906004016121dc565b6040516302b9a6cd60e11b81526001600160a01b038416906305734d9a906207a120906107bf908a90600190889088908d9084908490849060040161222b565b60006040518083038187803b1580156107d757600080fd5b5086fa9350505050801561080d57506040513d6000823e601f3d908101601f1916820160405261080a9190810190611de1565b60015b610719573d80801561083b576040519150601f19603f3d011682016040523d82523d6000602084013e610840565b606091505b50505b5050505b949350505050565b61133761def160901b016001600160a01b031663d0afdca96040518163ffffffff1660e01b8152600401600060405180830381600087803b15801561089357600080fd5b505af19250505080156108a4575060015b5060005a905060006060306001600160a01b031688888888886040516024016108d0949392919061217b565b60408051601f198184030181529181526020820180516001600160e01b03166001600160e01b031990941693909317909252905161090e91906120e4565b6000604051808303816000865af19150503d806000811461094b576040519150601f19603f3d011682016040523d82523d6000602084013e610950565b606091505b50915091505a8303925061133761def160901b016001600160a01b0316630c18c1626040518163ffffffff1660e01b815260040160206040518083038186803b15801561099c57600080fd5b505afa9250505080156109cc575060408051601f3d908101601f191682019092526109c991810190611ff6565b60015b6109d5576109da565b909203915b816109e8576109e881610d45565b610a05818060200190518101906109ff9190611ff6565b84610d4d565b5050505050505050565b60006060806060610a21888888610d5e565b935083610a2d57610b4c565b60405163276fdad960e11b81523090634edfb5b290610a56908b9088908c908c9060040161251e565b60006040518083038186803b158015610a6e57600080fd5b505afa158015610a82573d6000803e3d6000fd5b505050506040513d6000823e601f3d908101601f19168201604052610aaa9190810190611de1565b886080018190525087608001519250610b466040518060a00160405280896001600160a01b03168152602001886001600160a01b031681526020018a604051602001610af6919061250b565b60405160208183030381529060405281526020018a604051602001610b1b919061250b565b60408051601f1981840301815291815290825230602090811b63a095a0361790911b91015286610ecf565b90925090505b945094509450949050565b6000610b616118cb565b83806020019051810190610b759190611e57565b9050610bc673eeeeeeeeeeeeeeeeeeeeeeeeeeeeeeeeeeeeeeee826060015188888786604001518760800151604051602001610bb29291906121b8565b60405160208183030381529060405261133d565b9695505050505050565b60006060806060610be2888888610d5e565b935083610bee57610b4c565b60405163276fdad960e11b81523090634edfb5b290610c17908b9088908c908c9060040161251e565b60006040518083038186803b158015610c2f57600080fd5b505afa158015610c43573d6000803e3d6000fd5b505050506040513d6000823e601f3d908101601f19168201604052610c6b9190810190611de1565b886080018190525087608001519250610b466040518060800160405280896001600160a01b03168152602001886001600160a01b031681526020018a604051602001610cb7919061250b565b60408051601f1981840301815291815290825230602090811b63a095a0361790911b9101528661153f565b6000808251604014610cf957506000905080610d12565b82806020019051810190610d0d919061200e565b915091505b915091565b60608282604051602001610d2c9291906122c0565b6040516020818303038152906040529050805160208201fd5b805160208201fd5b604051828152816020820152604081fd5b600080846020015190506060816001600160a01b031663910ffc7187606001516001600160a01b0316876001600160a01b031614610d9c5786610db2565b73eeeeeeeeeeeeeeeeeeeeeeeeeeeeeeeeeeeeeeee5b88606001516001600160a01b0316876001600160a01b031614610dd55786610deb565b73eeeeeeeeeeeeeeeeeeeeeeeeeeeeeeeeeeeeeeee5b604080516000815260208101918290526001600160e01b031960e086901b16909152610e1f92919060019060248101612147565b60006040518083038186803b158015610e3757600080fd5b505afa158015610e4b573d6000803e3d6000fd5b505050506040513d6000823e601f3d908101601f19168201604052610e739190810190611ba5565b505090508051866000015110610e8f575060009150610ec89050565b80866000015181518110610e9f57fe5b6020026020010151925060f883901c60001c60bb1415610ec5575060009150610ec89050565b50505b9392505050565b60608082516001600160401b0381118015610ee957600080fd5b50604051908082528060200260200182016040528015610f13578160200160208202803683370190505b50905082516001600160401b0381118015610f2d57600080fd5b50604051908082528060200260200182016040528015610f57578160200160208202803683370190505b509150825160001415610f6957611336565b6040805160018082528183019092526060916020808301908036833701905050905083600081518110610f9857fe5b602002602001015181600081518110610fad57fe5b602002602001018181525050610fc1611915565b50604080516080808201835287516001600160a01b0390811683526020808a0151909116908301528783015182840152870151640100000000600160c01b0390831c90811663ffffffff9091161790911b606082015261101f611915565b604051806080016040528088602001516001600160a01b0316815260200188600001516001600160a01b031681526020018860600151815260200188608001518060601c9060401c63ffffffff1663ffffffff169060201b1760401b815250905061108a818461153f565b9050809350508260008151811061109d57fe5b6020026020010151600014156110b557505050611336565b60606110c1838561153f565b905080915050806000815181106110d457fe5b6020026020010151600014156110ed5750505050611336565b60005b875181101561133057606060005b60058110156112a95761114d8a848151811061111657fe5b60200260200101518560008151811061112b57fe5b60200260200101518960008151811061114057fe5b6020026020010151611609565b8760008151811061115a57fe5b6020026020010181815250508660008151811061117357fe5b602002602001015160001415611188576112a9565b6111a16005612710016127108960008151811061114057fe5b876000815181106111ae57fe5b602002602001018181525050866000815181106111c757fe5b6020026020010151600014156111dc576112a9565b60606111e8878961153f565b8051919450915081906000906111fa57fe5b60200260200101516000141561121057506112a9565b8094508a848151811061121f57fe5b60200260200101518560008151811061123457fe5b6020026020010151106112a05760008b858151811061124f57fe5b60200260200101516127108d878151811061126657fe5b60200260200101518860008151811061127b57fe5b602002602001015103028161128c57fe5b0490506005811161129e5750506112a9565b505b506001016110fe565b50806000815181106112b757fe5b60200260200101518883815181106112cb57fe5b6020026020010181815250506113108983815181106112e657fe5b6020026020010151846000815181106112fb57fe5b60200260200101518860008151811061114057fe5b87838151811061131c57fe5b6020908102919091010152506001016110f0565b50505050505b9250929050565b6000806060838060200190518101906113569190611e13565b915091506000886001600160a01b0316886001600160a01b03161461138e576113896001600160a01b0389168488611661565b6113f0565b50604051632e1a7d4d60e01b815285906001600160a01b038a1690632e1a7d4d906113bd908490600401612557565b600060405180830381600087803b1580156113d757600080fd5b505af11580156113eb573d6000803e3d6000fd5b505050505b826001600160a01b03166329589f61828b6001600160a01b03168b6001600160a01b03161461141f578a611421565b8c5b898d6001600160a01b03168c6001600160a01b031614611441578b611443565b8e5b30600019600160008b6040518a63ffffffff1660e01b815260040161146f9897969594939291906123e8565b6020604051808303818588803b15801561148857600080fd5b505af115801561149c573d6000803e3d6000fd5b50505050506040513d601f19601f820116820180604052508101906114c19190611ff6565b9350886001600160a01b0316876001600160a01b0316141561153257886001600160a01b031663d0e30db0856040518263ffffffff1660e01b81526004016000604051808303818588803b15801561151857600080fd5b505af115801561152c573d6000803e3d6000fd5b50505050505b5050509695505050505050565b606082810151835160208501516040808701519051630fa7f81f60e11b815285943094631f4ff03e9461158b9460a09390931b6001600160e01b03191693919290918a9060040161232d565b600060405180830381600087803b1580156115a557600080fd5b505af19250505080156115b6575060015b610592573d8080156115e4576040519150601f19603f3d011682016040523d82523d6000602084013e6115e9565b606091505b50808060200190518101906115fe9190611c6f565b935091506113369050565b6000831580611616575081155b8061161f575082155b1561162c57506000610ec8565b8382028285828161163957fe5b0414611649576000915050610ec8565b836001850382018161165757fe5b0495945050505050565b604051636eb1769f60e11b815281906001600160a01b0385169063dd62ed3e90611691903090879060040161212d565b60206040518083038186803b1580156116a957600080fd5b505afa1580156116bd573d6000803e3d6000fd5b505050506040513d601f19601f820116820180604052508101906116e19190611ff6565b10156116f4576116f483836000196116f9565b505050565b606063095ea7b360e01b8383604051602401611716929190612114565b60408051601f198184030181529190526020810180516001600160e01b03166001600160e01b0319909316929092179091529050611754848261175a565b50505050565b60006060836001600160a01b03168360405161177691906120e4565b6000604051808303816000865af19150503d80600081146117b3576040519150601f19603f3d011682016040523d82523d6000602084013e6117b8565b606091505b50915091508180156117ce57506117ce816117e7565b156117da5750506117e3565b61175481610d45565b5050565b60008151600014156117fb57506001611828565b602082511061182857600061181183600061182d565b90508060011415611826576001915050611828565b505b919050565b60006118398383611842565b90505b92915050565b60008160200183511015611868576118686118636005855185602001611871565b610d45565b50016020015190565b6060632800659560e01b8484846040516024016118909392919061243a565b60408051601f198184030181529190526020810180516001600160e01b03166001600160e01b03199093169290921790915290509392505050565b6040518060a001604052806000815260200160006001600160a01b0316815260200160006001600160a01b0316815260200160006001600160a01b03168152602001606081525090565b6040805160808101825260008082526020820181905260609282018390529181019190915290565b600082601f83011261194d578081fd5b813561196061195b82612586565b612560565b81815291506020808301908481018184028601820187101561198157600080fd5b60005b848110156119a057813584529282019290820190600101611984565b505050505092915050565b600082601f8301126119bb578081fd5b81516119c961195b82612586565b8181529150602080830190848101818402860182018710156119ea57600080fd5b60005b848110156119a0578151845292820192908201906001016119ed565b600082601f830112611a19578081fd5b8135611a2761195b826125a5565b9150808252836020828501011115611a3e57600080fd5b8060208401602084013760009082016020015292915050565b600082601f830112611a67578081fd5b8151611a7561195b826125a5565b9150808252836020828501011115611a8c57600080fd5b611a9d8160208401602086016125d3565b5092915050565b80516002811061183c57600080fd5b600060a08284031215611ac4578081fd5b611ace60a0612560565b9050813581526020820135611ae2816125ff565b60208201526040820135611af5816125ff565b60408201526060820135611b08816125ff565b606082015260808201356001600160401b03811115611b2657600080fd5b611b3284828501611a09565b60808301525092915050565b60008060008060808587031215611b53578384fd5b8435611b5e816125ff565b93506020850135611b6e816125ff565b925060408501356001600160401b03811115611b88578283fd5b611b9487828801611a09565b949793965093946060013593505050565b600080600060608486031215611bb9578283fd5b83516001600160401b0380821115611bcf578485fd5b818601915086601f830112611be2578485fd5b8151611bf061195b82612586565b80828252602080830192508086018b828387028901011115611c1057898afd5b8996505b84871015611c32578051845260019690960195928101928101611c14565b508901519097509350505080821115611c49578384fd5b50611c56868287016119ab565b925050611c668560408601611aa4565b90509250925092565b60008060408385031215611c81578182fd5b82516001600160401b0380821115611c97578384fd5b611ca3868387016119ab565b93506020850151915080821115611cb8578283fd5b50611cc5858286016119ab565b9150509250929050565b600080600080600060a08688031215611ce6578081fd5b8535611cf181612617565b94506020860135611d01816125ff565b93506040860135611d11816125ff565b925060608601356001600160401b0380821115611d2c578283fd5b611d3889838a01611a09565b93506080880135915080821115611d4d578283fd5b50611d5a8882890161193d565b9150509295509295909350565b600080600080600060a08688031215611d7e578283fd5b8535611d8981612617565b94506020860135611d99816125ff565b93506040860135611da9816125ff565b925060608601356001600160401b03811115611dc3578182fd5b611dcf88828901611a09565b95989497509295608001359392505050565b600060208284031215611df2578081fd5b81516001600160401b03811115611e07578182fd5b61084784828501611a57565b60008060408385031215611e25578182fd5b8251611e30816125ff565b60208401519092506001600160401b03811115611e4b578182fd5b611cc585828601611a57565b600060208284031215611e68578081fd5b81516001600160401b0380821115611e7e578283fd5b9083019060a08286031215611e91578283fd5b611e9b60a0612560565b825181526020830151611ead816125ff565b60208201526040830151611ec0816125ff565b60408201526060830151611ed3816125ff565b6060820152608083015182811115611ee9578485fd5b611ef587828601611a57565b60808301525095945050505050565b60008060008060808587031215611f19578182fd5b84356001600160401b0380821115611f2f578384fd5b611f3b88838901611ab3565b955060208701359150611f4d826125ff565b909350604086013590611f5f826125ff565b90925060608601359080821115611f74578283fd5b50611f818782880161193d565b91505092959194509250565b60008060008060808587031215611fa2578182fd5b84356001600160401b03811115611fb7578283fd5b611fc387828801611ab3565b945050602085013592506040850135611fdb816125ff565b91506060850135611feb816125ff565b939692955090935050565b600060208284031215612007578081fd5b5051919050565b60008060408385031215612020578182fd5b505080516020909101519092909150565b6000815180845260208085019450808401835b8381101561206057815187529582019590820190600101612044565b509495945050505050565b600081518084526120838160208601602086016125d3565b601f01601f19169290920160200192915050565b600081518352602082015160018060a01b0380821660208601528060408501511660408601528060608501511660608601525050608082015160a0608085015261084760a085018261206b565b600082516120f68184602087016125d3565b9190910192915050565b6001600160a01b0391909116815260200190565b6001600160a01b03929092168252602082015260400190565b6001600160a01b0392831681529116602082015260400190565b6001600160a01b038581168252841660208201528215156040820152608060608201819052600090610bc69083018461206b565b6001600160a01b038581168252841660208201526080604082018190526000906121a79083018561206b565b905082606083015295945050505050565b6001600160a01b03831681526040602082018190526000906108479083018461206b565b6001600160a01b03851681526000600485106121f457fe5b8460208301526080604083015261220e6080830185612031565b82810360608401526122208185612031565b979650505050505050565b6001600160a01b038981168252600090610100906122488b6125c8565b602085015281604085015261225f8285018b612031565b91508382036060850152612273828a612031565b90881660808501529050612286866125c8565b60a084015282810360c084015261229d8186612031565b905082810360e08401526122b18185612031565b9b9a5050505050505050505050565b6000604082526122d36040830185612031565b82810360208401526122e58185612031565b95945050505050565b600085825260806020830152612307608083018661206b565b82810360408401526123198186612031565b905082810360608401526122208185612031565b6001600160e01b0319861681526001600160a01b0385811660208301528416604082015260a0606082018190526000906123699083018561206b565b828103608084015261237b8185612031565b98975050505050505050565b6001600160e01b0319861681526001600160a01b0385811660208301528416604082015260a0606082018190526000906123c39083018561206b565b90508260808301529695505050505050565b600060208252610ec8602083018461206b565b6001600160a01b03898116825260208201899052878116604083015286811660608301526080820186905260a08201859052831660c082015261010060e082018190526000906122b18382018561206b565b606081016008851061244857fe5b938152602081019290925260409091015290565b6020808252601d908201527f42616c616e6365206f6620627579546f6b656e206d7573742062652030000000604082015260600190565b60208082526023908201527f4661696c656420746f206d696e74206f72206465706f7369742073656c6c546f60408201526235b2b760e91b606082015260800190565b6020808252818101527f537761702053616d706c652073686f756c642068617665207265766572746564604082015260600190565b600060208252610ec86020830184612097565b6000608082526125316080830187612097565b6020830195909552506001600160a01b0392831660408201529116606090910152919050565b90815260200190565b6040518181016001600160401b038111828210171561257e57600080fd5b604052919050565b60006001600160401b0382111561259b578081fd5b5060209081020190565b60006001600160401b038211156125ba578081fd5b50601f01601f191660200190565b806004811061182857fe5b60005b838110156125ee5781810151838201526020016125d6565b838111156117545750506000910152565b6001600160a01b038116811461261457600080fd5b50565b6001600160e01b03198116811461261457600080fdfea26469706673582212204cd637d024e083b933412a20c0ed170288d053e638cf2015aa9a2ef9efa5e60d64736f6c634300060c0033",
                "opcodes": "PUSH1 0xC0 PUSH1 0x40 MSTORE PUSH32 0xEEEEEEEEEEEEEEEEEEEEEEEEEEEEEEEEEEEEEEEE000000000000000000000000 PUSH1 0x80 MSTORE CALLVALUE DUP1 ISZERO PUSH3 0x35 JUMPI PUSH1 0x0 DUP1 REVERT JUMPDEST POP PUSH1 0x40 MLOAD PUSH3 0x2721 CODESIZE SUB DUP1 PUSH3 0x2721 DUP4 CODECOPY DUP2 ADD PUSH1 0x40 DUP2 SWAP1 MSTORE PUSH3 0x58 SWAP2 PUSH3 0x6E JUMP JUMPDEST PUSH1 0x60 SHL PUSH1 0x1 PUSH1 0x1 PUSH1 0x60 SHL SUB NOT AND PUSH1 0xA0 MSTORE PUSH3 0x9E JUMP JUMPDEST PUSH1 0x0 PUSH1 0x20 DUP3 DUP5 SUB SLT ISZERO PUSH3 0x80 JUMPI DUP1 DUP2 REVERT JUMPDEST DUP2 MLOAD PUSH1 0x1 PUSH1 0x1 PUSH1 0xA0 SHL SUB DUP2 AND DUP2 EQ PUSH3 0x97 JUMPI DUP2 DUP3 REVERT JUMPDEST SWAP4 SWAP3 POP POP POP JUMP JUMPDEST PUSH1 0x80 MLOAD PUSH1 0x60 SHR PUSH1 0xA0 MLOAD PUSH1 0x60 SHR PUSH2 0x2663 PUSH3 0xBE PUSH1 0x0 CODECOPY POP POP PUSH2 0x2663 PUSH1 0x0 RETURN INVALID PUSH1 0x80 PUSH1 0x40 MSTORE PUSH1 0x4 CALLDATASIZE LT PUSH2 0x59 JUMPI PUSH1 0x0 CALLDATALOAD PUSH1 0xE0 SHR DUP1 PUSH4 0x1F4FF03E EQ PUSH2 0x65 JUMPI DUP1 PUSH4 0x4EDFB5B2 EQ PUSH2 0x87 JUMPI DUP1 PUSH4 0x78FEE41C EQ PUSH2 0xBD JUMPI DUP1 PUSH4 0x9E3F05C3 EQ PUSH2 0xDD JUMPI DUP1 PUSH4 0xA095A036 EQ PUSH2 0x10D JUMPI DUP1 PUSH4 0xCC1621C9 EQ PUSH2 0x13A JUMPI PUSH2 0x60 JUMP JUMPDEST CALLDATASIZE PUSH2 0x60 JUMPI STOP JUMPDEST PUSH1 0x0 DUP1 REVERT JUMPDEST CALLVALUE DUP1 ISZERO PUSH2 0x71 JUMPI PUSH1 0x0 DUP1 REVERT JUMPDEST POP PUSH2 0x85 PUSH2 0x80 CALLDATASIZE PUSH1 0x4 PUSH2 0x1CCF JUMP JUMPDEST PUSH2 0x15A JUMP JUMPDEST STOP JUMPDEST CALLVALUE DUP1 ISZERO PUSH2 0x93 JUMPI PUSH1 0x0 DUP1 REVERT JUMPDEST POP PUSH2 0xA7 PUSH2 0xA2 CALLDATASIZE PUSH1 0x4 PUSH2 0x1F8D JUMP JUMPDEST PUSH2 0x5C9 JUMP JUMPDEST PUSH1 0x40 MLOAD PUSH2 0xB4 SWAP2 SWAP1 PUSH2 0x23D5 JUMP JUMPDEST PUSH1 0x40 MLOAD DUP1 SWAP2 SUB SWAP1 RETURN JUMPDEST CALLVALUE DUP1 ISZERO PUSH2 0xC9 JUMPI PUSH1 0x0 DUP1 REVERT JUMPDEST POP PUSH2 0x85 PUSH2 0xD8 CALLDATASIZE PUSH1 0x4 PUSH2 0x1D67 JUMP JUMPDEST PUSH2 0x84F JUMP JUMPDEST CALLVALUE DUP1 ISZERO PUSH2 0xE9 JUMPI PUSH1 0x0 DUP1 REVERT JUMPDEST POP PUSH2 0xFD PUSH2 0xF8 CALLDATASIZE PUSH1 0x4 PUSH2 0x1F04 JUMP JUMPDEST PUSH2 0xA0F JUMP JUMPDEST PUSH1 0x40 MLOAD PUSH2 0xB4 SWAP5 SWAP4 SWAP3 SWAP2 SWAP1 PUSH2 0x22EE JUMP JUMPDEST CALLVALUE DUP1 ISZERO PUSH2 0x119 JUMPI PUSH1 0x0 DUP1 REVERT JUMPDEST POP PUSH2 0x12D PUSH2 0x128 CALLDATASIZE PUSH1 0x4 PUSH2 0x1B3E JUMP JUMPDEST PUSH2 0xB57 JUMP JUMPDEST PUSH1 0x40 MLOAD PUSH2 0xB4 SWAP2 SWAP1 PUSH2 0x2557 JUMP JUMPDEST CALLVALUE DUP1 ISZERO PUSH2 0x146 JUMPI PUSH1 0x0 DUP1 REVERT JUMPDEST POP PUSH2 0xFD PUSH2 0x155 CALLDATASIZE PUSH1 0x4 PUSH2 0x1F04 JUMP JUMPDEST PUSH2 0xBD0 JUMP JUMPDEST DUP1 MLOAD DUP5 SWAP1 DUP5 SWAP1 PUSH1 0x0 SWAP1 DUP5 SWAP1 PUSH1 0x0 NOT DUP2 ADD SWAP1 DUP2 LT PUSH2 0x173 JUMPI INVALID JUMPDEST PUSH1 0x20 MUL PUSH1 0x20 ADD ADD MLOAD SWAP1 POP DUP3 PUSH1 0x1 PUSH1 0x1 PUSH1 0xA0 SHL SUB AND PUSH4 0xAB86E0A6 ADDRESS DUP4 PUSH1 0x40 MLOAD DUP4 PUSH4 0xFFFFFFFF AND PUSH1 0xE0 SHL DUP2 MSTORE PUSH1 0x4 ADD PUSH2 0x1AB SWAP3 SWAP2 SWAP1 PUSH2 0x2114 JUMP JUMPDEST PUSH1 0x0 PUSH1 0x40 MLOAD DUP1 DUP4 SUB DUP2 PUSH1 0x0 DUP8 DUP1 EXTCODESIZE ISZERO DUP1 ISZERO PUSH2 0x1C5 JUMPI PUSH1 0x0 DUP1 REVERT JUMPDEST POP GAS CALL SWAP3 POP POP POP DUP1 ISZERO PUSH2 0x1D6 JUMPI POP PUSH1 0x1 JUMPDEST POP DUP7 PUSH1 0x1 PUSH1 0x1 PUSH1 0xA0 SHL SUB AND PUSH4 0xD0E30DB0 DUP3 PUSH1 0x40 MLOAD DUP3 PUSH4 0xFFFFFFFF AND PUSH1 0xE0 SHL DUP2 MSTORE PUSH1 0x4 ADD PUSH1 0x0 PUSH1 0x40 MLOAD DUP1 DUP4 SUB DUP2 DUP6 DUP9 DUP1 EXTCODESIZE ISZERO DUP1 ISZERO PUSH2 0x212 JUMPI PUSH1 0x0 DUP1 REVERT JUMPDEST POP GAS CALL SWAP4 POP POP POP POP DUP1 ISZERO PUSH2 0x224 JUMPI POP PUSH1 0x1 JUMPDEST POP PUSH1 0x40 MLOAD PUSH4 0x55C37053 PUSH1 0xE1 SHL DUP2 MSTORE PUSH1 0x1 PUSH1 0x1 PUSH1 0xA0 SHL SUB DUP4 AND SWAP1 PUSH4 0xAB86E0A6 SWAP1 PUSH2 0x254 SWAP1 ADDRESS SWAP1 PUSH1 0x0 SWAP1 PUSH1 0x4 ADD PUSH2 0x2114 JUMP JUMPDEST PUSH1 0x0 PUSH1 0x40 MLOAD DUP1 DUP4 SUB DUP2 PUSH1 0x0 DUP8 DUP1 EXTCODESIZE ISZERO DUP1 ISZERO PUSH2 0x26E JUMPI PUSH1 0x0 DUP1 REVERT JUMPDEST POP GAS CALL SWAP3 POP POP POP DUP1 ISZERO PUSH2 0x27F JUMPI POP PUSH1 0x1 JUMPDEST POP PUSH1 0x40 MLOAD PUSH4 0x70A08231 PUSH1 0xE0 SHL DUP2 MSTORE DUP2 SWAP1 PUSH1 0x1 PUSH1 0x1 PUSH1 0xA0 SHL SUB DUP6 AND SWAP1 PUSH4 0x70A08231 SWAP1 PUSH2 0x2AE SWAP1 ADDRESS SWAP1 PUSH1 0x4 ADD PUSH2 0x2100 JUMP JUMPDEST PUSH1 0x20 PUSH1 0x40 MLOAD DUP1 DUP4 SUB DUP2 PUSH1 0x0 DUP8 DUP1 EXTCODESIZE ISZERO DUP1 ISZERO PUSH2 0x2C8 JUMPI PUSH1 0x0 DUP1 REVERT JUMPDEST POP GAS CALL ISZERO DUP1 ISZERO PUSH2 0x2DC JUMPI RETURNDATASIZE PUSH1 0x0 DUP1 RETURNDATACOPY RETURNDATASIZE PUSH1 0x0 REVERT JUMPDEST POP POP POP POP PUSH1 0x40 MLOAD RETURNDATASIZE PUSH1 0x1F NOT PUSH1 0x1F DUP3 ADD AND DUP3 ADD DUP1 PUSH1 0x40 MSTORE POP DUP2 ADD SWAP1 PUSH2 0x300 SWAP2 SWAP1 PUSH2 0x1FF6 JUMP JUMPDEST EQ PUSH2 0x326 JUMPI PUSH1 0x40 MLOAD PUSH3 0x461BCD PUSH1 0xE5 SHL DUP2 MSTORE PUSH1 0x4 ADD PUSH2 0x31D SWAP1 PUSH2 0x2493 JUMP JUMPDEST PUSH1 0x40 MLOAD DUP1 SWAP2 SUB SWAP1 REVERT JUMPDEST PUSH1 0x40 MLOAD PUSH4 0x70A08231 PUSH1 0xE0 SHL DUP2 MSTORE PUSH1 0x1 PUSH1 0x1 PUSH1 0xA0 SHL SUB DUP4 AND SWAP1 PUSH4 0x70A08231 SWAP1 PUSH2 0x352 SWAP1 ADDRESS SWAP1 PUSH1 0x4 ADD PUSH2 0x2100 JUMP JUMPDEST PUSH1 0x20 PUSH1 0x40 MLOAD DUP1 DUP4 SUB DUP2 PUSH1 0x0 DUP8 DUP1 EXTCODESIZE ISZERO DUP1 ISZERO PUSH2 0x36C JUMPI PUSH1 0x0 DUP1 REVERT JUMPDEST POP GAS CALL ISZERO DUP1 ISZERO PUSH2 0x380 JUMPI RETURNDATASIZE PUSH1 0x0 DUP1 RETURNDATACOPY RETURNDATASIZE PUSH1 0x0 REVERT JUMPDEST POP POP POP POP PUSH1 0x40 MLOAD RETURNDATASIZE PUSH1 0x1F NOT PUSH1 0x1F DUP3 ADD AND DUP3 ADD DUP1 PUSH1 0x40 MSTORE POP DUP2 ADD SWAP1 PUSH2 0x3A4 SWAP2 SWAP1 PUSH2 0x1FF6 JUMP JUMPDEST ISZERO PUSH2 0x3C1 JUMPI PUSH1 0x40 MLOAD PUSH3 0x461BCD PUSH1 0xE5 SHL DUP2 MSTORE PUSH1 0x4 ADD PUSH2 0x31D SWAP1 PUSH2 0x245C JUMP JUMPDEST PUSH1 0x40 MLOAD PUSH1 0x0 SWAP1 SELFBALANCE DUP1 ISZERO PUSH2 0x8FC MUL SWAP2 DUP4 DUP2 DUP2 DUP2 DUP6 DUP3 DUP9 CALL SWAP4 POP POP POP POP ISZERO DUP1 ISZERO PUSH2 0x3ED JUMPI RETURNDATASIZE PUSH1 0x0 DUP1 RETURNDATACOPY RETURNDATASIZE PUSH1 0x0 REVERT JUMPDEST POP PUSH1 0x60 DUP5 MLOAD PUSH1 0x1 PUSH1 0x1 PUSH1 0x40 SHL SUB DUP2 GT DUP1 ISZERO PUSH2 0x407 JUMPI PUSH1 0x0 DUP1 REVERT JUMPDEST POP PUSH1 0x40 MLOAD SWAP1 DUP1 DUP3 MSTORE DUP1 PUSH1 0x20 MUL PUSH1 0x20 ADD DUP3 ADD PUSH1 0x40 MSTORE DUP1 ISZERO PUSH2 0x431 JUMPI DUP2 PUSH1 0x20 ADD PUSH1 0x20 DUP3 MUL DUP1 CALLDATASIZE DUP4 CALLDATACOPY ADD SWAP1 POP JUMPDEST POP SWAP1 POP PUSH1 0x60 DUP6 MLOAD PUSH1 0x1 PUSH1 0x1 PUSH1 0x40 SHL SUB DUP2 GT DUP1 ISZERO PUSH2 0x44D JUMPI PUSH1 0x0 DUP1 REVERT JUMPDEST POP PUSH1 0x40 MLOAD SWAP1 DUP1 DUP3 MSTORE DUP1 PUSH1 0x20 MUL PUSH1 0x20 ADD DUP3 ADD PUSH1 0x40 MSTORE DUP1 ISZERO PUSH2 0x477 JUMPI DUP2 PUSH1 0x20 ADD PUSH1 0x20 DUP3 MUL DUP1 CALLDATASIZE DUP4 CALLDATACOPY ADD SWAP1 POP JUMPDEST POP SWAP1 POP PUSH1 0x0 JUMPDEST DUP7 MLOAD DUP2 LT ISZERO PUSH2 0x5B2 JUMPI ADDRESS PUSH1 0x1 PUSH1 0x1 PUSH1 0xA0 SHL SUB AND PUSH4 0x78FEE41C PUSH3 0x1E8480 DUP14 DUP14 DUP14 DUP14 DUP14 DUP9 DUP2 MLOAD DUP2 LT PUSH2 0x4A9 JUMPI INVALID JUMPDEST PUSH1 0x20 MUL PUSH1 0x20 ADD ADD MLOAD PUSH1 0x40 MLOAD DUP8 PUSH4 0xFFFFFFFF AND PUSH1 0xE0 SHL DUP2 MSTORE PUSH1 0x4 ADD PUSH2 0x4D1 SWAP6 SWAP5 SWAP4 SWAP3 SWAP2 SWAP1 PUSH2 0x2387 JUMP JUMPDEST PUSH1 0x0 PUSH1 0x40 MLOAD DUP1 DUP4 SUB DUP2 PUSH1 0x0 DUP9 DUP1 EXTCODESIZE ISZERO DUP1 ISZERO PUSH2 0x4EB JUMPI PUSH1 0x0 DUP1 REVERT JUMPDEST POP DUP8 CALL SWAP4 POP POP POP POP DUP1 ISZERO PUSH2 0x4FD JUMPI POP PUSH1 0x1 JUMPDEST PUSH2 0x592 JUMPI RETURNDATASIZE DUP1 DUP1 ISZERO PUSH2 0x52B JUMPI PUSH1 0x40 MLOAD SWAP2 POP PUSH1 0x1F NOT PUSH1 0x3F RETURNDATASIZE ADD AND DUP3 ADD PUSH1 0x40 MSTORE RETURNDATASIZE DUP3 MSTORE RETURNDATASIZE PUSH1 0x0 PUSH1 0x20 DUP5 ADD RETURNDATACOPY PUSH2 0x530 JUMP JUMPDEST PUSH1 0x60 SWAP2 POP JUMPDEST POP PUSH2 0x53A DUP2 PUSH2 0xCE2 JUMP JUMPDEST DUP6 DUP5 DUP2 MLOAD DUP2 LT PUSH2 0x546 JUMPI INVALID JUMPDEST PUSH1 0x20 MUL PUSH1 0x20 ADD ADD DUP6 DUP6 DUP2 MLOAD DUP2 LT PUSH2 0x559 JUMPI INVALID JUMPDEST PUSH1 0x20 MUL PUSH1 0x20 ADD ADD DUP3 DUP2 MSTORE POP DUP3 DUP2 MSTORE POP POP POP DUP4 DUP3 DUP2 MLOAD DUP2 LT PUSH2 0x576 JUMPI INVALID JUMPDEST PUSH1 0x20 MUL PUSH1 0x20 ADD ADD MLOAD PUSH1 0x0 EQ ISZERO PUSH2 0x58C JUMPI POP PUSH2 0x5B2 JUMP JUMPDEST POP PUSH2 0x5AA JUMP JUMPDEST PUSH1 0x40 MLOAD PUSH3 0x461BCD PUSH1 0xE5 SHL DUP2 MSTORE PUSH1 0x4 ADD PUSH2 0x31D SWAP1 PUSH2 0x24D6 JUMP JUMPDEST PUSH1 0x1 ADD PUSH2 0x47D JUMP JUMPDEST POP PUSH2 0x5BD DUP3 DUP3 PUSH2 0xD17 JUMP JUMPDEST POP POP POP POP POP POP POP POP POP POP JUMP JUMPDEST PUSH1 0x20 DUP5 DUP2 ADD MLOAD PUSH1 0x40 DUP1 MLOAD PUSH1 0x1 DUP1 DUP3 MSTORE DUP2 DUP4 ADD SWAP1 SWAP3 MSTORE PUSH1 0x60 SWAP4 DUP5 SWAP3 SWAP1 DUP3 DUP2 ADD SWAP1 DUP1 CALLDATASIZE DUP4 CALLDATACOPY ADD SWAP1 POP POP SWAP1 POP DUP6 DUP2 PUSH1 0x0 DUP2 MLOAD DUP2 LT PUSH2 0x600 JUMPI INVALID JUMPDEST PUSH1 0x20 SWAP1 DUP2 MUL SWAP2 SWAP1 SWAP2 ADD ADD MSTORE PUSH1 0x60 PUSH1 0x0 PUSH1 0x40 MLOAD SWAP1 DUP1 DUP3 MSTORE DUP1 PUSH1 0x20 MUL PUSH1 0x20 ADD DUP3 ADD PUSH1 0x40 MSTORE DUP1 ISZERO PUSH2 0x638 JUMPI DUP2 PUSH1 0x20 ADD PUSH1 0x20 DUP3 MUL DUP1 CALLDATASIZE DUP4 CALLDATACOPY ADD SWAP1 POP JUMPDEST POP SWAP1 POP DUP8 PUSH1 0x60 ADD MLOAD PUSH1 0x1 PUSH1 0x1 PUSH1 0xA0 SHL SUB AND DUP7 PUSH1 0x1 PUSH1 0x1 PUSH1 0xA0 SHL SUB AND EQ ISZERO PUSH2 0x729 JUMPI PUSH1 0x40 MLOAD PUSH4 0x81EFCBDD PUSH1 0xE0 SHL DUP2 MSTORE PUSH1 0x1 PUSH1 0x1 PUSH1 0xA0 SHL SUB DUP5 AND SWAP1 PUSH4 0x81EFCBDD SWAP1 PUSH3 0x7A120 SWAP1 PUSH2 0x691 SWAP1 DUP10 SWAP1 PUSH1 0x1 SWAP1 DUP9 SWAP1 DUP9 SWAP1 PUSH1 0x4 ADD PUSH2 0x21DC JUMP JUMPDEST PUSH1 0x0 PUSH1 0x40 MLOAD DUP1 DUP4 SUB DUP2 DUP8 DUP1 EXTCODESIZE ISZERO DUP1 ISZERO PUSH2 0x6A9 JUMPI PUSH1 0x0 DUP1 REVERT JUMPDEST POP DUP7 STATICCALL SWAP4 POP POP POP POP DUP1 ISZERO PUSH2 0x6DF JUMPI POP PUSH1 0x40 MLOAD RETURNDATASIZE PUSH1 0x0 DUP3 RETURNDATACOPY PUSH1 0x1F RETURNDATASIZE SWAP1 DUP2 ADD PUSH1 0x1F NOT AND DUP3 ADD PUSH1 0x40 MSTORE PUSH2 0x6DC SWAP2 SWAP1 DUP2 ADD SWAP1 PUSH2 0x1DE1 JUMP JUMPDEST PUSH1 0x1 JUMPDEST PUSH2 0x719 JUMPI RETURNDATASIZE DUP1 DUP1 ISZERO PUSH2 0x70D JUMPI PUSH1 0x40 MLOAD SWAP2 POP PUSH1 0x1F NOT PUSH1 0x3F RETURNDATASIZE ADD AND DUP3 ADD PUSH1 0x40 MSTORE RETURNDATASIZE DUP3 MSTORE RETURNDATASIZE PUSH1 0x0 PUSH1 0x20 DUP5 ADD RETURNDATACOPY PUSH2 0x712 JUMP JUMPDEST PUSH1 0x60 SWAP2 POP JUMPDEST POP POP PUSH2 0x724 JUMP JUMPDEST SWAP4 POP PUSH2 0x847 SWAP3 POP POP POP JUMP JUMPDEST PUSH2 0x843 JUMP JUMPDEST DUP8 PUSH1 0x60 ADD MLOAD PUSH1 0x1 PUSH1 0x1 PUSH1 0xA0 SHL SUB AND DUP6 PUSH1 0x1 PUSH1 0x1 PUSH1 0xA0 SHL SUB AND EQ ISZERO PUSH2 0x77F JUMPI PUSH1 0x40 MLOAD PUSH4 0x61E597F9 PUSH1 0xE0 SHL DUP2 MSTORE PUSH1 0x1 PUSH1 0x1 PUSH1 0xA0 SHL SUB DUP5 AND SWAP1 PUSH4 0x61E597F9 SWAP1 PUSH3 0x7A120 SWAP1 PUSH2 0x691 SWAP1 DUP11 SWAP1 PUSH1 0x1 SWAP1 DUP9 SWAP1 DUP9 SWAP1 PUSH1 0x4 ADD PUSH2 0x21DC JUMP JUMPDEST PUSH1 0x40 MLOAD PUSH4 0x2B9A6CD PUSH1 0xE1 SHL DUP2 MSTORE PUSH1 0x1 PUSH1 0x1 PUSH1 0xA0 SHL SUB DUP5 AND SWAP1 PUSH4 0x5734D9A SWAP1 PUSH3 0x7A120 SWAP1 PUSH2 0x7BF SWAP1 DUP11 SWAP1 PUSH1 0x1 SWAP1 DUP9 SWAP1 DUP9 SWAP1 DUP14 SWAP1 DUP5 SWAP1 DUP5 SWAP1 DUP5 SWAP1 PUSH1 0x4 ADD PUSH2 0x222B JUMP JUMPDEST PUSH1 0x0 PUSH1 0x40 MLOAD DUP1 DUP4 SUB DUP2 DUP8 DUP1 EXTCODESIZE ISZERO DUP1 ISZERO PUSH2 0x7D7 JUMPI PUSH1 0x0 DUP1 REVERT JUMPDEST POP DUP7 STATICCALL SWAP4 POP POP POP POP DUP1 ISZERO PUSH2 0x80D JUMPI POP PUSH1 0x40 MLOAD RETURNDATASIZE PUSH1 0x0 DUP3 RETURNDATACOPY PUSH1 0x1F RETURNDATASIZE SWAP1 DUP2 ADD PUSH1 0x1F NOT AND DUP3 ADD PUSH1 0x40 MSTORE PUSH2 0x80A SWAP2 SWAP1 DUP2 ADD SWAP1 PUSH2 0x1DE1 JUMP JUMPDEST PUSH1 0x1 JUMPDEST PUSH2 0x719 JUMPI RETURNDATASIZE DUP1 DUP1 ISZERO PUSH2 0x83B JUMPI PUSH1 0x40 MLOAD SWAP2 POP PUSH1 0x1F NOT PUSH1 0x3F RETURNDATASIZE ADD AND DUP3 ADD PUSH1 0x40 MSTORE RETURNDATASIZE DUP3 MSTORE RETURNDATASIZE PUSH1 0x0 PUSH1 0x20 DUP5 ADD RETURNDATACOPY PUSH2 0x840 JUMP JUMPDEST PUSH1 0x60 SWAP2 POP JUMPDEST POP POP JUMPDEST POP POP POP JUMPDEST SWAP5 SWAP4 POP POP POP POP JUMP JUMPDEST PUSH2 0x1337 PUSH2 0xDEF1 PUSH1 0x90 SHL ADD PUSH1 0x1 PUSH1 0x1 PUSH1 0xA0 SHL SUB AND PUSH4 0xD0AFDCA9 PUSH1 0x40 MLOAD DUP2 PUSH4 0xFFFFFFFF AND PUSH1 0xE0 SHL DUP2 MSTORE PUSH1 0x4 ADD PUSH1 0x0 PUSH1 0x40 MLOAD DUP1 DUP4 SUB DUP2 PUSH1 0x0 DUP8 DUP1 EXTCODESIZE ISZERO DUP1 ISZERO PUSH2 0x893 JUMPI PUSH1 0x0 DUP1 REVERT JUMPDEST POP GAS CALL SWAP3 POP POP POP DUP1 ISZERO PUSH2 0x8A4 JUMPI POP PUSH1 0x1 JUMPDEST POP PUSH1 0x0 GAS SWAP1 POP PUSH1 0x0 PUSH1 0x60 ADDRESS PUSH1 0x1 PUSH1 0x1 PUSH1 0xA0 SHL SUB AND DUP9 DUP9 DUP9 DUP9 DUP9 PUSH1 0x40 MLOAD PUSH1 0x24 ADD PUSH2 0x8D0 SWAP5 SWAP4 SWAP3 SWAP2 SWAP1 PUSH2 0x217B JUMP JUMPDEST PUSH1 0x40 DUP1 MLOAD PUSH1 0x1F NOT DUP2 DUP5 SUB ADD DUP2 MSTORE SWAP2 DUP2 MSTORE PUSH1 0x20 DUP3 ADD DUP1 MLOAD PUSH1 0x1 PUSH1 0x1 PUSH1 0xE0 SHL SUB AND PUSH1 0x1 PUSH1 0x1 PUSH1 0xE0 SHL SUB NOT SWAP1 SWAP5 AND SWAP4 SWAP1 SWAP4 OR SWAP1 SWAP3 MSTORE SWAP1 MLOAD PUSH2 0x90E SWAP2 SWAP1 PUSH2 0x20E4 JUMP JUMPDEST PUSH1 0x0 PUSH1 0x40 MLOAD DUP1 DUP4 SUB DUP2 PUSH1 0x0 DUP7 GAS CALL SWAP2 POP POP RETURNDATASIZE DUP1 PUSH1 0x0 DUP2 EQ PUSH2 0x94B JUMPI PUSH1 0x40 MLOAD SWAP2 POP PUSH1 0x1F NOT PUSH1 0x3F RETURNDATASIZE ADD AND DUP3 ADD PUSH1 0x40 MSTORE RETURNDATASIZE DUP3 MSTORE RETURNDATASIZE PUSH1 0x0 PUSH1 0x20 DUP5 ADD RETURNDATACOPY PUSH2 0x950 JUMP JUMPDEST PUSH1 0x60 SWAP2 POP JUMPDEST POP SWAP2 POP SWAP2 POP GAS DUP4 SUB SWAP3 POP PUSH2 0x1337 PUSH2 0xDEF1 PUSH1 0x90 SHL ADD PUSH1 0x1 PUSH1 0x1 PUSH1 0xA0 SHL SUB AND PUSH4 0xC18C162 PUSH1 0x40 MLOAD DUP2 PUSH4 0xFFFFFFFF AND PUSH1 0xE0 SHL DUP2 MSTORE PUSH1 0x4 ADD PUSH1 0x20 PUSH1 0x40 MLOAD DUP1 DUP4 SUB DUP2 DUP7 DUP1 EXTCODESIZE ISZERO DUP1 ISZERO PUSH2 0x99C JUMPI PUSH1 0x0 DUP1 REVERT JUMPDEST POP GAS STATICCALL SWAP3 POP POP POP DUP1 ISZERO PUSH2 0x9CC JUMPI POP PUSH1 0x40 DUP1 MLOAD PUSH1 0x1F RETURNDATASIZE SWAP1 DUP2 ADD PUSH1 0x1F NOT AND DUP3 ADD SWAP1 SWAP3 MSTORE PUSH2 0x9C9 SWAP2 DUP2 ADD SWAP1 PUSH2 0x1FF6 JUMP JUMPDEST PUSH1 0x1 JUMPDEST PUSH2 0x9D5 JUMPI PUSH2 0x9DA JUMP JUMPDEST SWAP1 SWAP3 SUB SWAP2 JUMPDEST DUP2 PUSH2 0x9E8 JUMPI PUSH2 0x9E8 DUP2 PUSH2 0xD45 JUMP JUMPDEST PUSH2 0xA05 DUP2 DUP1 PUSH1 0x20 ADD SWAP1 MLOAD DUP2 ADD SWAP1 PUSH2 0x9FF SWAP2 SWAP1 PUSH2 0x1FF6 JUMP JUMPDEST DUP5 PUSH2 0xD4D JUMP JUMPDEST POP POP POP POP POP POP POP POP JUMP JUMPDEST PUSH1 0x0 PUSH1 0x60 DUP1 PUSH1 0x60 PUSH2 0xA21 DUP9 DUP9 DUP9 PUSH2 0xD5E JUMP JUMPDEST SWAP4 POP DUP4 PUSH2 0xA2D JUMPI PUSH2 0xB4C JUMP JUMPDEST PUSH1 0x40 MLOAD PUSH4 0x276FDAD9 PUSH1 0xE1 SHL DUP2 MSTORE ADDRESS SWAP1 PUSH4 0x4EDFB5B2 SWAP1 PUSH2 0xA56 SWAP1 DUP12 SWAP1 DUP9 SWAP1 DUP13 SWAP1 DUP13 SWAP1 PUSH1 0x4 ADD PUSH2 0x251E JUMP JUMPDEST PUSH1 0x0 PUSH1 0x40 MLOAD DUP1 DUP4 SUB DUP2 DUP7 DUP1 EXTCODESIZE ISZERO DUP1 ISZERO PUSH2 0xA6E JUMPI PUSH1 0x0 DUP1 REVERT JUMPDEST POP GAS STATICCALL ISZERO DUP1 ISZERO PUSH2 0xA82 JUMPI RETURNDATASIZE PUSH1 0x0 DUP1 RETURNDATACOPY RETURNDATASIZE PUSH1 0x0 REVERT JUMPDEST POP POP POP POP PUSH1 0x40 MLOAD RETURNDATASIZE PUSH1 0x0 DUP3 RETURNDATACOPY PUSH1 0x1F RETURNDATASIZE SWAP1 DUP2 ADD PUSH1 0x1F NOT AND DUP3 ADD PUSH1 0x40 MSTORE PUSH2 0xAAA SWAP2 SWAP1 DUP2 ADD SWAP1 PUSH2 0x1DE1 JUMP JUMPDEST DUP9 PUSH1 0x80 ADD DUP2 SWAP1 MSTORE POP DUP8 PUSH1 0x80 ADD MLOAD SWAP3 POP PUSH2 0xB46 PUSH1 0x40 MLOAD DUP1 PUSH1 0xA0 ADD PUSH1 0x40 MSTORE DUP1 DUP10 PUSH1 0x1 PUSH1 0x1 PUSH1 0xA0 SHL SUB AND DUP2 MSTORE PUSH1 0x20 ADD DUP9 PUSH1 0x1 PUSH1 0x1 PUSH1 0xA0 SHL SUB AND DUP2 MSTORE PUSH1 0x20 ADD DUP11 PUSH1 0x40 MLOAD PUSH1 0x20 ADD PUSH2 0xAF6 SWAP2 SWAP1 PUSH2 0x250B JUMP JUMPDEST PUSH1 0x40 MLOAD PUSH1 0x20 DUP2 DUP4 SUB SUB DUP2 MSTORE SWAP1 PUSH1 0x40 MSTORE DUP2 MSTORE PUSH1 0x20 ADD DUP11 PUSH1 0x40 MLOAD PUSH1 0x20 ADD PUSH2 0xB1B SWAP2 SWAP1 PUSH2 0x250B JUMP JUMPDEST PUSH1 0x40 DUP1 MLOAD PUSH1 0x1F NOT DUP2 DUP5 SUB ADD DUP2 MSTORE SWAP2 DUP2 MSTORE SWAP1 DUP3 MSTORE ADDRESS PUSH1 0x20 SWAP1 DUP2 SHL PUSH4 0xA095A036 OR SWAP1 SWAP2 SHL SWAP2 ADD MSTORE DUP7 PUSH2 0xECF JUMP JUMPDEST SWAP1 SWAP3 POP SWAP1 POP JUMPDEST SWAP5 POP SWAP5 POP SWAP5 POP SWAP5 SWAP1 POP JUMP JUMPDEST PUSH1 0x0 PUSH2 0xB61 PUSH2 0x18CB JUMP JUMPDEST DUP4 DUP1 PUSH1 0x20 ADD SWAP1 MLOAD DUP2 ADD SWAP1 PUSH2 0xB75 SWAP2 SWAP1 PUSH2 0x1E57 JUMP JUMPDEST SWAP1 POP PUSH2 0xBC6 PUSH20 0xEEEEEEEEEEEEEEEEEEEEEEEEEEEEEEEEEEEEEEEE DUP3 PUSH1 0x60 ADD MLOAD DUP9 DUP9 DUP8 DUP7 PUSH1 0x40 ADD MLOAD DUP8 PUSH1 0x80 ADD MLOAD PUSH1 0x40 MLOAD PUSH1 0x20 ADD PUSH2 0xBB2 SWAP3 SWAP2 SWAP1 PUSH2 0x21B8 JUMP JUMPDEST PUSH1 0x40 MLOAD PUSH1 0x20 DUP2 DUP4 SUB SUB DUP2 MSTORE SWAP1 PUSH1 0x40 MSTORE PUSH2 0x133D JUMP JUMPDEST SWAP7 SWAP6 POP POP POP POP POP POP JUMP JUMPDEST PUSH1 0x0 PUSH1 0x60 DUP1 PUSH1 0x60 PUSH2 0xBE2 DUP9 DUP9 DUP9 PUSH2 0xD5E JUMP JUMPDEST SWAP4 POP DUP4 PUSH2 0xBEE JUMPI PUSH2 0xB4C JUMP JUMPDEST PUSH1 0x40 MLOAD PUSH4 0x276FDAD9 PUSH1 0xE1 SHL DUP2 MSTORE ADDRESS SWAP1 PUSH4 0x4EDFB5B2 SWAP1 PUSH2 0xC17 SWAP1 DUP12 SWAP1 DUP9 SWAP1 DUP13 SWAP1 DUP13 SWAP1 PUSH1 0x4 ADD PUSH2 0x251E JUMP JUMPDEST PUSH1 0x0 PUSH1 0x40 MLOAD DUP1 DUP4 SUB DUP2 DUP7 DUP1 EXTCODESIZE ISZERO DUP1 ISZERO PUSH2 0xC2F JUMPI PUSH1 0x0 DUP1 REVERT JUMPDEST POP GAS STATICCALL ISZERO DUP1 ISZERO PUSH2 0xC43 JUMPI RETURNDATASIZE PUSH1 0x0 DUP1 RETURNDATACOPY RETURNDATASIZE PUSH1 0x0 REVERT JUMPDEST POP POP POP POP PUSH1 0x40 MLOAD RETURNDATASIZE PUSH1 0x0 DUP3 RETURNDATACOPY PUSH1 0x1F RETURNDATASIZE SWAP1 DUP2 ADD PUSH1 0x1F NOT AND DUP3 ADD PUSH1 0x40 MSTORE PUSH2 0xC6B SWAP2 SWAP1 DUP2 ADD SWAP1 PUSH2 0x1DE1 JUMP JUMPDEST DUP9 PUSH1 0x80 ADD DUP2 SWAP1 MSTORE POP DUP8 PUSH1 0x80 ADD MLOAD SWAP3 POP PUSH2 0xB46 PUSH1 0x40 MLOAD DUP1 PUSH1 0x80 ADD PUSH1 0x40 MSTORE DUP1 DUP10 PUSH1 0x1 PUSH1 0x1 PUSH1 0xA0 SHL SUB AND DUP2 MSTORE PUSH1 0x20 ADD DUP9 PUSH1 0x1 PUSH1 0x1 PUSH1 0xA0 SHL SUB AND DUP2 MSTORE PUSH1 0x20 ADD DUP11 PUSH1 0x40 MLOAD PUSH1 0x20 ADD PUSH2 0xCB7 SWAP2 SWAP1 PUSH2 0x250B JUMP JUMPDEST PUSH1 0x40 DUP1 MLOAD PUSH1 0x1F NOT DUP2 DUP5 SUB ADD DUP2 MSTORE SWAP2 DUP2 MSTORE SWAP1 DUP3 MSTORE ADDRESS PUSH1 0x20 SWAP1 DUP2 SHL PUSH4 0xA095A036 OR SWAP1 SWAP2 SHL SWAP2 ADD MSTORE DUP7 PUSH2 0x153F JUMP JUMPDEST PUSH1 0x0 DUP1 DUP3 MLOAD PUSH1 0x40 EQ PUSH2 0xCF9 JUMPI POP PUSH1 0x0 SWAP1 POP DUP1 PUSH2 0xD12 JUMP JUMPDEST DUP3 DUP1 PUSH1 0x20 ADD SWAP1 MLOAD DUP2 ADD SWAP1 PUSH2 0xD0D SWAP2 SWAP1 PUSH2 0x200E JUMP JUMPDEST SWAP2 POP SWAP2 POP JUMPDEST SWAP2 POP SWAP2 JUMP JUMPDEST PUSH1 0x60 DUP3 DUP3 PUSH1 0x40 MLOAD PUSH1 0x20 ADD PUSH2 0xD2C SWAP3 SWAP2 SWAP1 PUSH2 0x22C0 JUMP JUMPDEST PUSH1 0x40 MLOAD PUSH1 0x20 DUP2 DUP4 SUB SUB DUP2 MSTORE SWAP1 PUSH1 0x40 MSTORE SWAP1 POP DUP1 MLOAD PUSH1 0x20 DUP3 ADD REVERT JUMPDEST DUP1 MLOAD PUSH1 0x20 DUP3 ADD REVERT JUMPDEST PUSH1 0x40 MLOAD DUP3 DUP2 MSTORE DUP2 PUSH1 0x20 DUP3 ADD MSTORE PUSH1 0x40 DUP2 REVERT JUMPDEST PUSH1 0x0 DUP1 DUP5 PUSH1 0x20 ADD MLOAD SWAP1 POP PUSH1 0x60 DUP2 PUSH1 0x1 PUSH1 0x1 PUSH1 0xA0 SHL SUB AND PUSH4 0x910FFC71 DUP8 PUSH1 0x60 ADD MLOAD PUSH1 0x1 PUSH1 0x1 PUSH1 0xA0 SHL SUB AND DUP8 PUSH1 0x1 PUSH1 0x1 PUSH1 0xA0 SHL SUB AND EQ PUSH2 0xD9C JUMPI DUP7 PUSH2 0xDB2 JUMP JUMPDEST PUSH20 0xEEEEEEEEEEEEEEEEEEEEEEEEEEEEEEEEEEEEEEEE JUMPDEST DUP9 PUSH1 0x60 ADD MLOAD PUSH1 0x1 PUSH1 0x1 PUSH1 0xA0 SHL SUB AND DUP8 PUSH1 0x1 PUSH1 0x1 PUSH1 0xA0 SHL SUB AND EQ PUSH2 0xDD5 JUMPI DUP7 PUSH2 0xDEB JUMP JUMPDEST PUSH20 0xEEEEEEEEEEEEEEEEEEEEEEEEEEEEEEEEEEEEEEEE JUMPDEST PUSH1 0x40 DUP1 MLOAD PUSH1 0x0 DUP2 MSTORE PUSH1 0x20 DUP2 ADD SWAP2 DUP3 SWAP1 MSTORE PUSH1 0x1 PUSH1 0x1 PUSH1 0xE0 SHL SUB NOT PUSH1 0xE0 DUP7 SWAP1 SHL AND SWAP1 SWAP2 MSTORE PUSH2 0xE1F SWAP3 SWAP2 SWAP1 PUSH1 0x1 SWAP1 PUSH1 0x24 DUP2 ADD PUSH2 0x2147 JUMP JUMPDEST PUSH1 0x0 PUSH1 0x40 MLOAD DUP1 DUP4 SUB DUP2 DUP7 DUP1 EXTCODESIZE ISZERO DUP1 ISZERO PUSH2 0xE37 JUMPI PUSH1 0x0 DUP1 REVERT JUMPDEST POP GAS STATICCALL ISZERO DUP1 ISZERO PUSH2 0xE4B JUMPI RETURNDATASIZE PUSH1 0x0 DUP1 RETURNDATACOPY RETURNDATASIZE PUSH1 0x0 REVERT JUMPDEST POP POP POP POP PUSH1 0x40 MLOAD RETURNDATASIZE PUSH1 0x0 DUP3 RETURNDATACOPY PUSH1 0x1F RETURNDATASIZE SWAP1 DUP2 ADD PUSH1 0x1F NOT AND DUP3 ADD PUSH1 0x40 MSTORE PUSH2 0xE73 SWAP2 SWAP1 DUP2 ADD SWAP1 PUSH2 0x1BA5 JUMP JUMPDEST POP POP SWAP1 POP DUP1 MLOAD DUP7 PUSH1 0x0 ADD MLOAD LT PUSH2 0xE8F JUMPI POP PUSH1 0x0 SWAP2 POP PUSH2 0xEC8 SWAP1 POP JUMP JUMPDEST DUP1 DUP7 PUSH1 0x0 ADD MLOAD DUP2 MLOAD DUP2 LT PUSH2 0xE9F JUMPI INVALID JUMPDEST PUSH1 0x20 MUL PUSH1 0x20 ADD ADD MLOAD SWAP3 POP PUSH1 0xF8 DUP4 SWAP1 SHR PUSH1 0x0 SHR PUSH1 0xBB EQ ISZERO PUSH2 0xEC5 JUMPI POP PUSH1 0x0 SWAP2 POP PUSH2 0xEC8 SWAP1 POP JUMP JUMPDEST POP POP JUMPDEST SWAP4 SWAP3 POP POP POP JUMP JUMPDEST PUSH1 0x60 DUP1 DUP3 MLOAD PUSH1 0x1 PUSH1 0x1 PUSH1 0x40 SHL SUB DUP2 GT DUP1 ISZERO PUSH2 0xEE9 JUMPI PUSH1 0x0 DUP1 REVERT JUMPDEST POP PUSH1 0x40 MLOAD SWAP1 DUP1 DUP3 MSTORE DUP1 PUSH1 0x20 MUL PUSH1 0x20 ADD DUP3 ADD PUSH1 0x40 MSTORE DUP1 ISZERO PUSH2 0xF13 JUMPI DUP2 PUSH1 0x20 ADD PUSH1 0x20 DUP3 MUL DUP1 CALLDATASIZE DUP4 CALLDATACOPY ADD SWAP1 POP JUMPDEST POP SWAP1 POP DUP3 MLOAD PUSH1 0x1 PUSH1 0x1 PUSH1 0x40 SHL SUB DUP2 GT DUP1 ISZERO PUSH2 0xF2D JUMPI PUSH1 0x0 DUP1 REVERT JUMPDEST POP PUSH1 0x40 MLOAD SWAP1 DUP1 DUP3 MSTORE DUP1 PUSH1 0x20 MUL PUSH1 0x20 ADD DUP3 ADD PUSH1 0x40 MSTORE DUP1 ISZERO PUSH2 0xF57 JUMPI DUP2 PUSH1 0x20 ADD PUSH1 0x20 DUP3 MUL DUP1 CALLDATASIZE DUP4 CALLDATACOPY ADD SWAP1 POP JUMPDEST POP SWAP2 POP DUP3 MLOAD PUSH1 0x0 EQ ISZERO PUSH2 0xF69 JUMPI PUSH2 0x1336 JUMP JUMPDEST PUSH1 0x40 DUP1 MLOAD PUSH1 0x1 DUP1 DUP3 MSTORE DUP2 DUP4 ADD SWAP1 SWAP3 MSTORE PUSH1 0x60 SWAP2 PUSH1 0x20 DUP1 DUP4 ADD SWAP1 DUP1 CALLDATASIZE DUP4 CALLDATACOPY ADD SWAP1 POP POP SWAP1 POP DUP4 PUSH1 0x0 DUP2 MLOAD DUP2 LT PUSH2 0xF98 JUMPI INVALID JUMPDEST PUSH1 0x20 MUL PUSH1 0x20 ADD ADD MLOAD DUP2 PUSH1 0x0 DUP2 MLOAD DUP2 LT PUSH2 0xFAD JUMPI INVALID JUMPDEST PUSH1 0x20 MUL PUSH1 0x20 ADD ADD DUP2 DUP2 MSTORE POP POP PUSH2 0xFC1 PUSH2 0x1915 JUMP JUMPDEST POP PUSH1 0x40 DUP1 MLOAD PUSH1 0x80 DUP1 DUP3 ADD DUP4 MSTORE DUP8 MLOAD PUSH1 0x1 PUSH1 0x1 PUSH1 0xA0 SHL SUB SWAP1 DUP2 AND DUP4 MSTORE PUSH1 0x20 DUP1 DUP11 ADD MLOAD SWAP1 SWAP2 AND SWAP1 DUP4 ADD MSTORE DUP8 DUP4 ADD MLOAD DUP3 DUP5 ADD MSTORE DUP8 ADD MLOAD PUSH5 0x100000000 PUSH1 0x1 PUSH1 0xC0 SHL SUB SWAP1 DUP4 SHR SWAP1 DUP2 AND PUSH4 0xFFFFFFFF SWAP1 SWAP2 AND OR SWAP1 SWAP2 SHL PUSH1 0x60 DUP3 ADD MSTORE PUSH2 0x101F PUSH2 0x1915 JUMP JUMPDEST PUSH1 0x40 MLOAD DUP1 PUSH1 0x80 ADD PUSH1 0x40 MSTORE DUP1 DUP9 PUSH1 0x20 ADD MLOAD PUSH1 0x1 PUSH1 0x1 PUSH1 0xA0 SHL SUB AND DUP2 MSTORE PUSH1 0x20 ADD DUP9 PUSH1 0x0 ADD MLOAD PUSH1 0x1 PUSH1 0x1 PUSH1 0xA0 SHL SUB AND DUP2 MSTORE PUSH1 0x20 ADD DUP9 PUSH1 0x60 ADD MLOAD DUP2 MSTORE PUSH1 0x20 ADD DUP9 PUSH1 0x80 ADD MLOAD DUP1 PUSH1 0x60 SHR SWAP1 PUSH1 0x40 SHR PUSH4 0xFFFFFFFF AND PUSH4 0xFFFFFFFF AND SWAP1 PUSH1 0x20 SHL OR PUSH1 0x40 SHL DUP2 MSTORE POP SWAP1 POP PUSH2 0x108A DUP2 DUP5 PUSH2 0x153F JUMP JUMPDEST SWAP1 POP DUP1 SWAP4 POP POP DUP3 PUSH1 0x0 DUP2 MLOAD DUP2 LT PUSH2 0x109D JUMPI INVALID JUMPDEST PUSH1 0x20 MUL PUSH1 0x20 ADD ADD MLOAD PUSH1 0x0 EQ ISZERO PUSH2 0x10B5 JUMPI POP POP POP PUSH2 0x1336 JUMP JUMPDEST PUSH1 0x60 PUSH2 0x10C1 DUP4 DUP6 PUSH2 0x153F JUMP JUMPDEST SWAP1 POP DUP1 SWAP2 POP POP DUP1 PUSH1 0x0 DUP2 MLOAD DUP2 LT PUSH2 0x10D4 JUMPI INVALID JUMPDEST PUSH1 0x20 MUL PUSH1 0x20 ADD ADD MLOAD PUSH1 0x0 EQ ISZERO PUSH2 0x10ED JUMPI POP POP POP POP PUSH2 0x1336 JUMP JUMPDEST PUSH1 0x0 JUMPDEST DUP8 MLOAD DUP2 LT ISZERO PUSH2 0x1330 JUMPI PUSH1 0x60 PUSH1 0x0 JUMPDEST PUSH1 0x5 DUP2 LT ISZERO PUSH2 0x12A9 JUMPI PUSH2 0x114D DUP11 DUP5 DUP2 MLOAD DUP2 LT PUSH2 0x1116 JUMPI INVALID JUMPDEST PUSH1 0x20 MUL PUSH1 0x20 ADD ADD MLOAD DUP6 PUSH1 0x0 DUP2 MLOAD DUP2 LT PUSH2 0x112B JUMPI INVALID JUMPDEST PUSH1 0x20 MUL PUSH1 0x20 ADD ADD MLOAD DUP10 PUSH1 0x0 DUP2 MLOAD DUP2 LT PUSH2 0x1140 JUMPI INVALID JUMPDEST PUSH1 0x20 MUL PUSH1 0x20 ADD ADD MLOAD PUSH2 0x1609 JUMP JUMPDEST DUP8 PUSH1 0x0 DUP2 MLOAD DUP2 LT PUSH2 0x115A JUMPI INVALID JUMPDEST PUSH1 0x20 MUL PUSH1 0x20 ADD ADD DUP2 DUP2 MSTORE POP POP DUP7 PUSH1 0x0 DUP2 MLOAD DUP2 LT PUSH2 0x1173 JUMPI INVALID JUMPDEST PUSH1 0x20 MUL PUSH1 0x20 ADD ADD MLOAD PUSH1 0x0 EQ ISZERO PUSH2 0x1188 JUMPI PUSH2 0x12A9 JUMP JUMPDEST PUSH2 0x11A1 PUSH1 0x5 PUSH2 0x2710 ADD PUSH2 0x2710 DUP10 PUSH1 0x0 DUP2 MLOAD DUP2 LT PUSH2 0x1140 JUMPI INVALID JUMPDEST DUP8 PUSH1 0x0 DUP2 MLOAD DUP2 LT PUSH2 0x11AE JUMPI INVALID JUMPDEST PUSH1 0x20 MUL PUSH1 0x20 ADD ADD DUP2 DUP2 MSTORE POP POP DUP7 PUSH1 0x0 DUP2 MLOAD DUP2 LT PUSH2 0x11C7 JUMPI INVALID JUMPDEST PUSH1 0x20 MUL PUSH1 0x20 ADD ADD MLOAD PUSH1 0x0 EQ ISZERO PUSH2 0x11DC JUMPI PUSH2 0x12A9 JUMP JUMPDEST PUSH1 0x60 PUSH2 0x11E8 DUP8 DUP10 PUSH2 0x153F JUMP JUMPDEST DUP1 MLOAD SWAP2 SWAP5 POP SWAP2 POP DUP2 SWAP1 PUSH1 0x0 SWAP1 PUSH2 0x11FA JUMPI INVALID JUMPDEST PUSH1 0x20 MUL PUSH1 0x20 ADD ADD MLOAD PUSH1 0x0 EQ ISZERO PUSH2 0x1210 JUMPI POP PUSH2 0x12A9 JUMP JUMPDEST DUP1 SWAP5 POP DUP11 DUP5 DUP2 MLOAD DUP2 LT PUSH2 0x121F JUMPI INVALID JUMPDEST PUSH1 0x20 MUL PUSH1 0x20 ADD ADD MLOAD DUP6 PUSH1 0x0 DUP2 MLOAD DUP2 LT PUSH2 0x1234 JUMPI INVALID JUMPDEST PUSH1 0x20 MUL PUSH1 0x20 ADD ADD MLOAD LT PUSH2 0x12A0 JUMPI PUSH1 0x0 DUP12 DUP6 DUP2 MLOAD DUP2 LT PUSH2 0x124F JUMPI INVALID JUMPDEST PUSH1 0x20 MUL PUSH1 0x20 ADD ADD MLOAD PUSH2 0x2710 DUP14 DUP8 DUP2 MLOAD DUP2 LT PUSH2 0x1266 JUMPI INVALID JUMPDEST PUSH1 0x20 MUL PUSH1 0x20 ADD ADD MLOAD DUP9 PUSH1 0x0 DUP2 MLOAD DUP2 LT PUSH2 0x127B JUMPI INVALID JUMPDEST PUSH1 0x20 MUL PUSH1 0x20 ADD ADD MLOAD SUB MUL DUP2 PUSH2 0x128C JUMPI INVALID JUMPDEST DIV SWAP1 POP PUSH1 0x5 DUP2 GT PUSH2 0x129E JUMPI POP POP PUSH2 0x12A9 JUMP JUMPDEST POP JUMPDEST POP PUSH1 0x1 ADD PUSH2 0x10FE JUMP JUMPDEST POP DUP1 PUSH1 0x0 DUP2 MLOAD DUP2 LT PUSH2 0x12B7 JUMPI INVALID JUMPDEST PUSH1 0x20 MUL PUSH1 0x20 ADD ADD MLOAD DUP9 DUP4 DUP2 MLOAD DUP2 LT PUSH2 0x12CB JUMPI INVALID JUMPDEST PUSH1 0x20 MUL PUSH1 0x20 ADD ADD DUP2 DUP2 MSTORE POP POP PUSH2 0x1310 DUP10 DUP4 DUP2 MLOAD DUP2 LT PUSH2 0x12E6 JUMPI INVALID JUMPDEST PUSH1 0x20 MUL PUSH1 0x20 ADD ADD MLOAD DUP5 PUSH1 0x0 DUP2 MLOAD DUP2 LT PUSH2 0x12FB JUMPI INVALID JUMPDEST PUSH1 0x20 MUL PUSH1 0x20 ADD ADD MLOAD DUP9 PUSH1 0x0 DUP2 MLOAD DUP2 LT PUSH2 0x1140 JUMPI INVALID JUMPDEST DUP8 DUP4 DUP2 MLOAD DUP2 LT PUSH2 0x131C JUMPI INVALID JUMPDEST PUSH1 0x20 SWAP1 DUP2 MUL SWAP2 SWAP1 SWAP2 ADD ADD MSTORE POP PUSH1 0x1 ADD PUSH2 0x10F0 JUMP JUMPDEST POP POP POP POP POP JUMPDEST SWAP3 POP SWAP3 SWAP1 POP JUMP JUMPDEST PUSH1 0x0 DUP1 PUSH1 0x60 DUP4 DUP1 PUSH1 0x20 ADD SWAP1 MLOAD DUP2 ADD SWAP1 PUSH2 0x1356 SWAP2 SWAP1 PUSH2 0x1E13 JUMP JUMPDEST SWAP2 POP SWAP2 POP PUSH1 0x0 DUP9 PUSH1 0x1 PUSH1 0x1 PUSH1 0xA0 SHL SUB AND DUP9 PUSH1 0x1 PUSH1 0x1 PUSH1 0xA0 SHL SUB AND EQ PUSH2 0x138E JUMPI PUSH2 0x1389 PUSH1 0x1 PUSH1 0x1 PUSH1 0xA0 SHL SUB DUP10 AND DUP5 DUP9 PUSH2 0x1661 JUMP JUMPDEST PUSH2 0x13F0 JUMP JUMPDEST POP PUSH1 0x40 MLOAD PUSH4 0x2E1A7D4D PUSH1 0xE0 SHL DUP2 MSTORE DUP6 SWAP1 PUSH1 0x1 PUSH1 0x1 PUSH1 0xA0 SHL SUB DUP11 AND SWAP1 PUSH4 0x2E1A7D4D SWAP1 PUSH2 0x13BD SWAP1 DUP5 SWAP1 PUSH1 0x4 ADD PUSH2 0x2557 JUMP JUMPDEST PUSH1 0x0 PUSH1 0x40 MLOAD DUP1 DUP4 SUB DUP2 PUSH1 0x0 DUP8 DUP1 EXTCODESIZE ISZERO DUP1 ISZERO PUSH2 0x13D7 JUMPI PUSH1 0x0 DUP1 REVERT JUMPDEST POP GAS CALL ISZERO DUP1 ISZERO PUSH2 0x13EB JUMPI RETURNDATASIZE PUSH1 0x0 DUP1 RETURNDATACOPY RETURNDATASIZE PUSH1 0x0 REVERT JUMPDEST POP POP POP POP JUMPDEST DUP3 PUSH1 0x1 PUSH1 0x1 PUSH1 0xA0 SHL SUB AND PUSH4 0x29589F61 DUP3 DUP12 PUSH1 0x1 PUSH1 0x1 PUSH1 0xA0 SHL SUB AND DUP12 PUSH1 0x1 PUSH1 0x1 PUSH1 0xA0 SHL SUB AND EQ PUSH2 0x141F JUMPI DUP11 PUSH2 0x1421 JUMP JUMPDEST DUP13 JUMPDEST DUP10 DUP14 PUSH1 0x1 PUSH1 0x1 PUSH1 0xA0 SHL SUB AND DUP13 PUSH1 0x1 PUSH1 0x1 PUSH1 0xA0 SHL SUB AND EQ PUSH2 0x1441 JUMPI DUP12 PUSH2 0x1443 JUMP JUMPDEST DUP15 JUMPDEST ADDRESS PUSH1 0x0 NOT PUSH1 0x1 PUSH1 0x0 DUP12 PUSH1 0x40 MLOAD DUP11 PUSH4 0xFFFFFFFF AND PUSH1 0xE0 SHL DUP2 MSTORE PUSH1 0x4 ADD PUSH2 0x146F SWAP9 SWAP8 SWAP7 SWAP6 SWAP5 SWAP4 SWAP3 SWAP2 SWAP1 PUSH2 0x23E8 JUMP JUMPDEST PUSH1 0x20 PUSH1 0x40 MLOAD DUP1 DUP4 SUB DUP2 DUP6 DUP9 DUP1 EXTCODESIZE ISZERO DUP1 ISZERO PUSH2 0x1488 JUMPI PUSH1 0x0 DUP1 REVERT JUMPDEST POP GAS CALL ISZERO DUP1 ISZERO PUSH2 0x149C JUMPI RETURNDATASIZE PUSH1 0x0 DUP1 RETURNDATACOPY RETURNDATASIZE PUSH1 0x0 REVERT JUMPDEST POP POP POP POP POP PUSH1 0x40 MLOAD RETURNDATASIZE PUSH1 0x1F NOT PUSH1 0x1F DUP3 ADD AND DUP3 ADD DUP1 PUSH1 0x40 MSTORE POP DUP2 ADD SWAP1 PUSH2 0x14C1 SWAP2 SWAP1 PUSH2 0x1FF6 JUMP JUMPDEST SWAP4 POP DUP9 PUSH1 0x1 PUSH1 0x1 PUSH1 0xA0 SHL SUB AND DUP8 PUSH1 0x1 PUSH1 0x1 PUSH1 0xA0 SHL SUB AND EQ ISZERO PUSH2 0x1532 JUMPI DUP9 PUSH1 0x1 PUSH1 0x1 PUSH1 0xA0 SHL SUB AND PUSH4 0xD0E30DB0 DUP6 PUSH1 0x40 MLOAD DUP3 PUSH4 0xFFFFFFFF AND PUSH1 0xE0 SHL DUP2 MSTORE PUSH1 0x4 ADD PUSH1 0x0 PUSH1 0x40 MLOAD DUP1 DUP4 SUB DUP2 DUP6 DUP9 DUP1 EXTCODESIZE ISZERO DUP1 ISZERO PUSH2 0x1518 JUMPI PUSH1 0x0 DUP1 REVERT JUMPDEST POP GAS CALL ISZERO DUP1 ISZERO PUSH2 0x152C JUMPI RETURNDATASIZE PUSH1 0x0 DUP1 RETURNDATACOPY RETURNDATASIZE PUSH1 0x0 REVERT JUMPDEST POP POP POP POP POP JUMPDEST POP POP POP SWAP7 SWAP6 POP POP POP POP POP POP JUMP JUMPDEST PUSH1 0x60 DUP3 DUP2 ADD MLOAD DUP4 MLOAD PUSH1 0x20 DUP6 ADD MLOAD PUSH1 0x40 DUP1 DUP8 ADD MLOAD SWAP1 MLOAD PUSH4 0xFA7F81F PUSH1 0xE1 SHL DUP2 MSTORE DUP6 SWAP5 ADDRESS SWAP5 PUSH4 0x1F4FF03E SWAP5 PUSH2 0x158B SWAP5 PUSH1 0xA0 SWAP4 SWAP1 SWAP4 SHL PUSH1 0x1 PUSH1 0x1 PUSH1 0xE0 SHL SUB NOT AND SWAP4 SWAP2 SWAP3 SWAP1 SWAP2 DUP11 SWAP1 PUSH1 0x4 ADD PUSH2 0x232D JUMP JUMPDEST PUSH1 0x0 PUSH1 0x40 MLOAD DUP1 DUP4 SUB DUP2 PUSH1 0x0 DUP8 DUP1 EXTCODESIZE ISZERO DUP1 ISZERO PUSH2 0x15A5 JUMPI PUSH1 0x0 DUP1 REVERT JUMPDEST POP GAS CALL SWAP3 POP POP POP DUP1 ISZERO PUSH2 0x15B6 JUMPI POP PUSH1 0x1 JUMPDEST PUSH2 0x592 JUMPI RETURNDATASIZE DUP1 DUP1 ISZERO PUSH2 0x15E4 JUMPI PUSH1 0x40 MLOAD SWAP2 POP PUSH1 0x1F NOT PUSH1 0x3F RETURNDATASIZE ADD AND DUP3 ADD PUSH1 0x40 MSTORE RETURNDATASIZE DUP3 MSTORE RETURNDATASIZE PUSH1 0x0 PUSH1 0x20 DUP5 ADD RETURNDATACOPY PUSH2 0x15E9 JUMP JUMPDEST PUSH1 0x60 SWAP2 POP JUMPDEST POP DUP1 DUP1 PUSH1 0x20 ADD SWAP1 MLOAD DUP2 ADD SWAP1 PUSH2 0x15FE SWAP2 SWAP1 PUSH2 0x1C6F JUMP JUMPDEST SWAP4 POP SWAP2 POP PUSH2 0x1336 SWAP1 POP JUMP JUMPDEST PUSH1 0x0 DUP4 ISZERO DUP1 PUSH2 0x1616 JUMPI POP DUP2 ISZERO JUMPDEST DUP1 PUSH2 0x161F JUMPI POP DUP3 ISZERO JUMPDEST ISZERO PUSH2 0x162C JUMPI POP PUSH1 0x0 PUSH2 0xEC8 JUMP JUMPDEST DUP4 DUP3 MUL DUP3 DUP6 DUP3 DUP2 PUSH2 0x1639 JUMPI INVALID JUMPDEST DIV EQ PUSH2 0x1649 JUMPI PUSH1 0x0 SWAP2 POP POP PUSH2 0xEC8 JUMP JUMPDEST DUP4 PUSH1 0x1 DUP6 SUB DUP3 ADD DUP2 PUSH2 0x1657 JUMPI INVALID JUMPDEST DIV SWAP6 SWAP5 POP POP POP POP POP JUMP JUMPDEST PUSH1 0x40 MLOAD PUSH4 0x6EB1769F PUSH1 0xE1 SHL DUP2 MSTORE DUP2 SWAP1 PUSH1 0x1 PUSH1 0x1 PUSH1 0xA0 SHL SUB DUP6 AND SWAP1 PUSH4 0xDD62ED3E SWAP1 PUSH2 0x1691 SWAP1 ADDRESS SWAP1 DUP8 SWAP1 PUSH1 0x4 ADD PUSH2 0x212D JUMP JUMPDEST PUSH1 0x20 PUSH1 0x40 MLOAD DUP1 DUP4 SUB DUP2 DUP7 DUP1 EXTCODESIZE ISZERO DUP1 ISZERO PUSH2 0x16A9 JUMPI PUSH1 0x0 DUP1 REVERT JUMPDEST POP GAS STATICCALL ISZERO DUP1 ISZERO PUSH2 0x16BD JUMPI RETURNDATASIZE PUSH1 0x0 DUP1 RETURNDATACOPY RETURNDATASIZE PUSH1 0x0 REVERT JUMPDEST POP POP POP POP PUSH1 0x40 MLOAD RETURNDATASIZE PUSH1 0x1F NOT PUSH1 0x1F DUP3 ADD AND DUP3 ADD DUP1 PUSH1 0x40 MSTORE POP DUP2 ADD SWAP1 PUSH2 0x16E1 SWAP2 SWAP1 PUSH2 0x1FF6 JUMP JUMPDEST LT ISZERO PUSH2 0x16F4 JUMPI PUSH2 0x16F4 DUP4 DUP4 PUSH1 0x0 NOT PUSH2 0x16F9 JUMP JUMPDEST POP POP POP JUMP JUMPDEST PUSH1 0x60 PUSH4 0x95EA7B3 PUSH1 0xE0 SHL DUP4 DUP4 PUSH1 0x40 MLOAD PUSH1 0x24 ADD PUSH2 0x1716 SWAP3 SWAP2 SWAP1 PUSH2 0x2114 JUMP JUMPDEST PUSH1 0x40 DUP1 MLOAD PUSH1 0x1F NOT DUP2 DUP5 SUB ADD DUP2 MSTORE SWAP2 SWAP1 MSTORE PUSH1 0x20 DUP2 ADD DUP1 MLOAD PUSH1 0x1 PUSH1 0x1 PUSH1 0xE0 SHL SUB AND PUSH1 0x1 PUSH1 0x1 PUSH1 0xE0 SHL SUB NOT SWAP1 SWAP4 AND SWAP3 SWAP1 SWAP3 OR SWAP1 SWAP2 MSTORE SWAP1 POP PUSH2 0x1754 DUP5 DUP3 PUSH2 0x175A JUMP JUMPDEST POP POP POP POP JUMP JUMPDEST PUSH1 0x0 PUSH1 0x60 DUP4 PUSH1 0x1 PUSH1 0x1 PUSH1 0xA0 SHL SUB AND DUP4 PUSH1 0x40 MLOAD PUSH2 0x1776 SWAP2 SWAP1 PUSH2 0x20E4 JUMP JUMPDEST PUSH1 0x0 PUSH1 0x40 MLOAD DUP1 DUP4 SUB DUP2 PUSH1 0x0 DUP7 GAS CALL SWAP2 POP POP RETURNDATASIZE DUP1 PUSH1 0x0 DUP2 EQ PUSH2 0x17B3 JUMPI PUSH1 0x40 MLOAD SWAP2 POP PUSH1 0x1F NOT PUSH1 0x3F RETURNDATASIZE ADD AND DUP3 ADD PUSH1 0x40 MSTORE RETURNDATASIZE DUP3 MSTORE RETURNDATASIZE PUSH1 0x0 PUSH1 0x20 DUP5 ADD RETURNDATACOPY PUSH2 0x17B8 JUMP JUMPDEST PUSH1 0x60 SWAP2 POP JUMPDEST POP SWAP2 POP SWAP2 POP DUP2 DUP1 ISZERO PUSH2 0x17CE JUMPI POP PUSH2 0x17CE DUP2 PUSH2 0x17E7 JUMP JUMPDEST ISZERO PUSH2 0x17DA JUMPI POP POP PUSH2 0x17E3 JUMP JUMPDEST PUSH2 0x1754 DUP2 PUSH2 0xD45 JUMP JUMPDEST POP POP JUMP JUMPDEST PUSH1 0x0 DUP2 MLOAD PUSH1 0x0 EQ ISZERO PUSH2 0x17FB JUMPI POP PUSH1 0x1 PUSH2 0x1828 JUMP JUMPDEST PUSH1 0x20 DUP3 MLOAD LT PUSH2 0x1828 JUMPI PUSH1 0x0 PUSH2 0x1811 DUP4 PUSH1 0x0 PUSH2 0x182D JUMP JUMPDEST SWAP1 POP DUP1 PUSH1 0x1 EQ ISZERO PUSH2 0x1826 JUMPI PUSH1 0x1 SWAP2 POP POP PUSH2 0x1828 JUMP JUMPDEST POP JUMPDEST SWAP2 SWAP1 POP JUMP JUMPDEST PUSH1 0x0 PUSH2 0x1839 DUP4 DUP4 PUSH2 0x1842 JUMP JUMPDEST SWAP1 POP JUMPDEST SWAP3 SWAP2 POP POP JUMP JUMPDEST PUSH1 0x0 DUP2 PUSH1 0x20 ADD DUP4 MLOAD LT ISZERO PUSH2 0x1868 JUMPI PUSH2 0x1868 PUSH2 0x1863 PUSH1 0x5 DUP6 MLOAD DUP6 PUSH1 0x20 ADD PUSH2 0x1871 JUMP JUMPDEST PUSH2 0xD45 JUMP JUMPDEST POP ADD PUSH1 0x20 ADD MLOAD SWAP1 JUMP JUMPDEST PUSH1 0x60 PUSH4 0x28006595 PUSH1 0xE0 SHL DUP5 DUP5 DUP5 PUSH1 0x40 MLOAD PUSH1 0x24 ADD PUSH2 0x1890 SWAP4 SWAP3 SWAP2 SWAP1 PUSH2 0x243A JUMP JUMPDEST PUSH1 0x40 DUP1 MLOAD PUSH1 0x1F NOT DUP2 DUP5 SUB ADD DUP2 MSTORE SWAP2 SWAP1 MSTORE PUSH1 0x20 DUP2 ADD DUP1 MLOAD PUSH1 0x1 PUSH1 0x1 PUSH1 0xE0 SHL SUB AND PUSH1 0x1 PUSH1 0x1 PUSH1 0xE0 SHL SUB NOT SWAP1 SWAP4 AND SWAP3 SWAP1 SWAP3 OR SWAP1 SWAP2 MSTORE SWAP1 POP SWAP4 SWAP3 POP POP POP JUMP JUMPDEST PUSH1 0x40 MLOAD DUP1 PUSH1 0xA0 ADD PUSH1 0x40 MSTORE DUP1 PUSH1 0x0 DUP2 MSTORE PUSH1 0x20 ADD PUSH1 0x0 PUSH1 0x1 PUSH1 0x1 PUSH1 0xA0 SHL SUB AND DUP2 MSTORE PUSH1 0x20 ADD PUSH1 0x0 PUSH1 0x1 PUSH1 0x1 PUSH1 0xA0 SHL SUB AND DUP2 MSTORE PUSH1 0x20 ADD PUSH1 0x0 PUSH1 0x1 PUSH1 0x1 PUSH1 0xA0 SHL SUB AND DUP2 MSTORE PUSH1 0x20 ADD PUSH1 0x60 DUP2 MSTORE POP SWAP1 JUMP JUMPDEST PUSH1 0x40 DUP1 MLOAD PUSH1 0x80 DUP2 ADD DUP3 MSTORE PUSH1 0x0 DUP1 DUP3 MSTORE PUSH1 0x20 DUP3 ADD DUP2 SWAP1 MSTORE PUSH1 0x60 SWAP3 DUP3 ADD DUP4 SWAP1 MSTORE SWAP2 DUP2 ADD SWAP2 SWAP1 SWAP2 MSTORE SWAP1 JUMP JUMPDEST PUSH1 0x0 DUP3 PUSH1 0x1F DUP4 ADD SLT PUSH2 0x194D JUMPI DUP1 DUP2 REVERT JUMPDEST DUP2 CALLDATALOAD PUSH2 0x1960 PUSH2 0x195B DUP3 PUSH2 0x2586 JUMP JUMPDEST PUSH2 0x2560 JUMP JUMPDEST DUP2 DUP2 MSTORE SWAP2 POP PUSH1 0x20 DUP1 DUP4 ADD SWAP1 DUP5 DUP2 ADD DUP2 DUP5 MUL DUP7 ADD DUP3 ADD DUP8 LT ISZERO PUSH2 0x1981 JUMPI PUSH1 0x0 DUP1 REVERT JUMPDEST PUSH1 0x0 JUMPDEST DUP5 DUP2 LT ISZERO PUSH2 0x19A0 JUMPI DUP2 CALLDATALOAD DUP5 MSTORE SWAP3 DUP3 ADD SWAP3 SWAP1 DUP3 ADD SWAP1 PUSH1 0x1 ADD PUSH2 0x1984 JUMP JUMPDEST POP POP POP POP POP SWAP3 SWAP2 POP POP JUMP JUMPDEST PUSH1 0x0 DUP3 PUSH1 0x1F DUP4 ADD SLT PUSH2 0x19BB JUMPI DUP1 DUP2 REVERT JUMPDEST DUP2 MLOAD PUSH2 0x19C9 PUSH2 0x195B DUP3 PUSH2 0x2586 JUMP JUMPDEST DUP2 DUP2 MSTORE SWAP2 POP PUSH1 0x20 DUP1 DUP4 ADD SWAP1 DUP5 DUP2 ADD DUP2 DUP5 MUL DUP7 ADD DUP3 ADD DUP8 LT ISZERO PUSH2 0x19EA JUMPI PUSH1 0x0 DUP1 REVERT JUMPDEST PUSH1 0x0 JUMPDEST DUP5 DUP2 LT ISZERO PUSH2 0x19A0 JUMPI DUP2 MLOAD DUP5 MSTORE SWAP3 DUP3 ADD SWAP3 SWAP1 DUP3 ADD SWAP1 PUSH1 0x1 ADD PUSH2 0x19ED JUMP JUMPDEST PUSH1 0x0 DUP3 PUSH1 0x1F DUP4 ADD SLT PUSH2 0x1A19 JUMPI DUP1 DUP2 REVERT JUMPDEST DUP2 CALLDATALOAD PUSH2 0x1A27 PUSH2 0x195B DUP3 PUSH2 0x25A5 JUMP JUMPDEST SWAP2 POP DUP1 DUP3 MSTORE DUP4 PUSH1 0x20 DUP3 DUP6 ADD ADD GT ISZERO PUSH2 0x1A3E JUMPI PUSH1 0x0 DUP1 REVERT JUMPDEST DUP1 PUSH1 0x20 DUP5 ADD PUSH1 0x20 DUP5 ADD CALLDATACOPY PUSH1 0x0 SWAP1 DUP3 ADD PUSH1 0x20 ADD MSTORE SWAP3 SWAP2 POP POP JUMP JUMPDEST PUSH1 0x0 DUP3 PUSH1 0x1F DUP4 ADD SLT PUSH2 0x1A67 JUMPI DUP1 DUP2 REVERT JUMPDEST DUP2 MLOAD PUSH2 0x1A75 PUSH2 0x195B DUP3 PUSH2 0x25A5 JUMP JUMPDEST SWAP2 POP DUP1 DUP3 MSTORE DUP4 PUSH1 0x20 DUP3 DUP6 ADD ADD GT ISZERO PUSH2 0x1A8C JUMPI PUSH1 0x0 DUP1 REVERT JUMPDEST PUSH2 0x1A9D DUP2 PUSH1 0x20 DUP5 ADD PUSH1 0x20 DUP7 ADD PUSH2 0x25D3 JUMP JUMPDEST POP SWAP3 SWAP2 POP POP JUMP JUMPDEST DUP1 MLOAD PUSH1 0x2 DUP2 LT PUSH2 0x183C JUMPI PUSH1 0x0 DUP1 REVERT JUMPDEST PUSH1 0x0 PUSH1 0xA0 DUP3 DUP5 SUB SLT ISZERO PUSH2 0x1AC4 JUMPI DUP1 DUP2 REVERT JUMPDEST PUSH2 0x1ACE PUSH1 0xA0 PUSH2 0x2560 JUMP JUMPDEST SWAP1 POP DUP2 CALLDATALOAD DUP2 MSTORE PUSH1 0x20 DUP3 ADD CALLDATALOAD PUSH2 0x1AE2 DUP2 PUSH2 0x25FF JUMP JUMPDEST PUSH1 0x20 DUP3 ADD MSTORE PUSH1 0x40 DUP3 ADD CALLDATALOAD PUSH2 0x1AF5 DUP2 PUSH2 0x25FF JUMP JUMPDEST PUSH1 0x40 DUP3 ADD MSTORE PUSH1 0x60 DUP3 ADD CALLDATALOAD PUSH2 0x1B08 DUP2 PUSH2 0x25FF JUMP JUMPDEST PUSH1 0x60 DUP3 ADD MSTORE PUSH1 0x80 DUP3 ADD CALLDATALOAD PUSH1 0x1 PUSH1 0x1 PUSH1 0x40 SHL SUB DUP2 GT ISZERO PUSH2 0x1B26 JUMPI PUSH1 0x0 DUP1 REVERT JUMPDEST PUSH2 0x1B32 DUP5 DUP3 DUP6 ADD PUSH2 0x1A09 JUMP JUMPDEST PUSH1 0x80 DUP4 ADD MSTORE POP SWAP3 SWAP2 POP POP JUMP JUMPDEST PUSH1 0x0 DUP1 PUSH1 0x0 DUP1 PUSH1 0x80 DUP6 DUP8 SUB SLT ISZERO PUSH2 0x1B53 JUMPI DUP4 DUP5 REVERT JUMPDEST DUP5 CALLDATALOAD PUSH2 0x1B5E DUP2 PUSH2 0x25FF JUMP JUMPDEST SWAP4 POP PUSH1 0x20 DUP6 ADD CALLDATALOAD PUSH2 0x1B6E DUP2 PUSH2 0x25FF JUMP JUMPDEST SWAP3 POP PUSH1 0x40 DUP6 ADD CALLDATALOAD PUSH1 0x1 PUSH1 0x1 PUSH1 0x40 SHL SUB DUP2 GT ISZERO PUSH2 0x1B88 JUMPI DUP3 DUP4 REVERT JUMPDEST PUSH2 0x1B94 DUP8 DUP3 DUP9 ADD PUSH2 0x1A09 JUMP JUMPDEST SWAP5 SWAP8 SWAP4 SWAP7 POP SWAP4 SWAP5 PUSH1 0x60 ADD CALLDATALOAD SWAP4 POP POP POP JUMP JUMPDEST PUSH1 0x0 DUP1 PUSH1 0x0 PUSH1 0x60 DUP5 DUP7 SUB SLT ISZERO PUSH2 0x1BB9 JUMPI DUP3 DUP4 REVERT JUMPDEST DUP4 MLOAD PUSH1 0x1 PUSH1 0x1 PUSH1 0x40 SHL SUB DUP1 DUP3 GT ISZERO PUSH2 0x1BCF JUMPI DUP5 DUP6 REVERT JUMPDEST DUP2 DUP7 ADD SWAP2 POP DUP7 PUSH1 0x1F DUP4 ADD SLT PUSH2 0x1BE2 JUMPI DUP5 DUP6 REVERT JUMPDEST DUP2 MLOAD PUSH2 0x1BF0 PUSH2 0x195B DUP3 PUSH2 0x2586 JUMP JUMPDEST DUP1 DUP3 DUP3 MSTORE PUSH1 0x20 DUP1 DUP4 ADD SWAP3 POP DUP1 DUP7 ADD DUP12 DUP3 DUP4 DUP8 MUL DUP10 ADD ADD GT ISZERO PUSH2 0x1C10 JUMPI DUP10 DUP11 REVERT JUMPDEST DUP10 SWAP7 POP JUMPDEST DUP5 DUP8 LT ISZERO PUSH2 0x1C32 JUMPI DUP1 MLOAD DUP5 MSTORE PUSH1 0x1 SWAP7 SWAP1 SWAP7 ADD SWAP6 SWAP3 DUP2 ADD SWAP3 DUP2 ADD PUSH2 0x1C14 JUMP JUMPDEST POP DUP10 ADD MLOAD SWAP1 SWAP8 POP SWAP4 POP POP POP DUP1 DUP3 GT ISZERO PUSH2 0x1C49 JUMPI DUP4 DUP5 REVERT JUMPDEST POP PUSH2 0x1C56 DUP7 DUP3 DUP8 ADD PUSH2 0x19AB JUMP JUMPDEST SWAP3 POP POP PUSH2 0x1C66 DUP6 PUSH1 0x40 DUP7 ADD PUSH2 0x1AA4 JUMP JUMPDEST SWAP1 POP SWAP3 POP SWAP3 POP SWAP3 JUMP JUMPDEST PUSH1 0x0 DUP1 PUSH1 0x40 DUP4 DUP6 SUB SLT ISZERO PUSH2 0x1C81 JUMPI DUP2 DUP3 REVERT JUMPDEST DUP3 MLOAD PUSH1 0x1 PUSH1 0x1 PUSH1 0x40 SHL SUB DUP1 DUP3 GT ISZERO PUSH2 0x1C97 JUMPI DUP4 DUP5 REVERT JUMPDEST PUSH2 0x1CA3 DUP7 DUP4 DUP8 ADD PUSH2 0x19AB JUMP JUMPDEST SWAP4 POP PUSH1 0x20 DUP6 ADD MLOAD SWAP2 POP DUP1 DUP3 GT ISZERO PUSH2 0x1CB8 JUMPI DUP3 DUP4 REVERT JUMPDEST POP PUSH2 0x1CC5 DUP6 DUP3 DUP7 ADD PUSH2 0x19AB JUMP JUMPDEST SWAP2 POP POP SWAP3 POP SWAP3 SWAP1 POP JUMP JUMPDEST PUSH1 0x0 DUP1 PUSH1 0x0 DUP1 PUSH1 0x0 PUSH1 0xA0 DUP7 DUP9 SUB SLT ISZERO PUSH2 0x1CE6 JUMPI DUP1 DUP2 REVERT JUMPDEST DUP6 CALLDATALOAD PUSH2 0x1CF1 DUP2 PUSH2 0x2617 JUMP JUMPDEST SWAP5 POP PUSH1 0x20 DUP7 ADD CALLDATALOAD PUSH2 0x1D01 DUP2 PUSH2 0x25FF JUMP JUMPDEST SWAP4 POP PUSH1 0x40 DUP7 ADD CALLDATALOAD PUSH2 0x1D11 DUP2 PUSH2 0x25FF JUMP JUMPDEST SWAP3 POP PUSH1 0x60 DUP7 ADD CALLDATALOAD PUSH1 0x1 PUSH1 0x1 PUSH1 0x40 SHL SUB DUP1 DUP3 GT ISZERO PUSH2 0x1D2C JUMPI DUP3 DUP4 REVERT JUMPDEST PUSH2 0x1D38 DUP10 DUP4 DUP11 ADD PUSH2 0x1A09 JUMP JUMPDEST SWAP4 POP PUSH1 0x80 DUP9 ADD CALLDATALOAD SWAP2 POP DUP1 DUP3 GT ISZERO PUSH2 0x1D4D JUMPI DUP3 DUP4 REVERT JUMPDEST POP PUSH2 0x1D5A DUP9 DUP3 DUP10 ADD PUSH2 0x193D JUMP JUMPDEST SWAP2 POP POP SWAP3 SWAP6 POP SWAP3 SWAP6 SWAP1 SWAP4 POP JUMP JUMPDEST PUSH1 0x0 DUP1 PUSH1 0x0 DUP1 PUSH1 0x0 PUSH1 0xA0 DUP7 DUP9 SUB SLT ISZERO PUSH2 0x1D7E JUMPI DUP3 DUP4 REVERT JUMPDEST DUP6 CALLDATALOAD PUSH2 0x1D89 DUP2 PUSH2 0x2617 JUMP JUMPDEST SWAP5 POP PUSH1 0x20 DUP7 ADD CALLDATALOAD PUSH2 0x1D99 DUP2 PUSH2 0x25FF JUMP JUMPDEST SWAP4 POP PUSH1 0x40 DUP7 ADD CALLDATALOAD PUSH2 0x1DA9 DUP2 PUSH2 0x25FF JUMP JUMPDEST SWAP3 POP PUSH1 0x60 DUP7 ADD CALLDATALOAD PUSH1 0x1 PUSH1 0x1 PUSH1 0x40 SHL SUB DUP2 GT ISZERO PUSH2 0x1DC3 JUMPI DUP2 DUP3 REVERT JUMPDEST PUSH2 0x1DCF DUP9 DUP3 DUP10 ADD PUSH2 0x1A09 JUMP JUMPDEST SWAP6 SWAP9 SWAP5 SWAP8 POP SWAP3 SWAP6 PUSH1 0x80 ADD CALLDATALOAD SWAP4 SWAP3 POP POP POP JUMP JUMPDEST PUSH1 0x0 PUSH1 0x20 DUP3 DUP5 SUB SLT ISZERO PUSH2 0x1DF2 JUMPI DUP1 DUP2 REVERT JUMPDEST DUP2 MLOAD PUSH1 0x1 PUSH1 0x1 PUSH1 0x40 SHL SUB DUP2 GT ISZERO PUSH2 0x1E07 JUMPI DUP2 DUP3 REVERT JUMPDEST PUSH2 0x847 DUP5 DUP3 DUP6 ADD PUSH2 0x1A57 JUMP JUMPDEST PUSH1 0x0 DUP1 PUSH1 0x40 DUP4 DUP6 SUB SLT ISZERO PUSH2 0x1E25 JUMPI DUP2 DUP3 REVERT JUMPDEST DUP3 MLOAD PUSH2 0x1E30 DUP2 PUSH2 0x25FF JUMP JUMPDEST PUSH1 0x20 DUP5 ADD MLOAD SWAP1 SWAP3 POP PUSH1 0x1 PUSH1 0x1 PUSH1 0x40 SHL SUB DUP2 GT ISZERO PUSH2 0x1E4B JUMPI DUP2 DUP3 REVERT JUMPDEST PUSH2 0x1CC5 DUP6 DUP3 DUP7 ADD PUSH2 0x1A57 JUMP JUMPDEST PUSH1 0x0 PUSH1 0x20 DUP3 DUP5 SUB SLT ISZERO PUSH2 0x1E68 JUMPI DUP1 DUP2 REVERT JUMPDEST DUP2 MLOAD PUSH1 0x1 PUSH1 0x1 PUSH1 0x40 SHL SUB DUP1 DUP3 GT ISZERO PUSH2 0x1E7E JUMPI DUP3 DUP4 REVERT JUMPDEST SWAP1 DUP4 ADD SWAP1 PUSH1 0xA0 DUP3 DUP7 SUB SLT ISZERO PUSH2 0x1E91 JUMPI DUP3 DUP4 REVERT JUMPDEST PUSH2 0x1E9B PUSH1 0xA0 PUSH2 0x2560 JUMP JUMPDEST DUP3 MLOAD DUP2 MSTORE PUSH1 0x20 DUP4 ADD MLOAD PUSH2 0x1EAD DUP2 PUSH2 0x25FF JUMP JUMPDEST PUSH1 0x20 DUP3 ADD MSTORE PUSH1 0x40 DUP4 ADD MLOAD PUSH2 0x1EC0 DUP2 PUSH2 0x25FF JUMP JUMPDEST PUSH1 0x40 DUP3 ADD MSTORE PUSH1 0x60 DUP4 ADD MLOAD PUSH2 0x1ED3 DUP2 PUSH2 0x25FF JUMP JUMPDEST PUSH1 0x60 DUP3 ADD MSTORE PUSH1 0x80 DUP4 ADD MLOAD DUP3 DUP2 GT ISZERO PUSH2 0x1EE9 JUMPI DUP5 DUP6 REVERT JUMPDEST PUSH2 0x1EF5 DUP8 DUP3 DUP7 ADD PUSH2 0x1A57 JUMP JUMPDEST PUSH1 0x80 DUP4 ADD MSTORE POP SWAP6 SWAP5 POP POP POP POP POP JUMP JUMPDEST PUSH1 0x0 DUP1 PUSH1 0x0 DUP1 PUSH1 0x80 DUP6 DUP8 SUB SLT ISZERO PUSH2 0x1F19 JUMPI DUP2 DUP3 REVERT JUMPDEST DUP5 CALLDATALOAD PUSH1 0x1 PUSH1 0x1 PUSH1 0x40 SHL SUB DUP1 DUP3 GT ISZERO PUSH2 0x1F2F JUMPI DUP4 DUP5 REVERT JUMPDEST PUSH2 0x1F3B DUP9 DUP4 DUP10 ADD PUSH2 0x1AB3 JUMP JUMPDEST SWAP6 POP PUSH1 0x20 DUP8 ADD CALLDATALOAD SWAP2 POP PUSH2 0x1F4D DUP3 PUSH2 0x25FF JUMP JUMPDEST SWAP1 SWAP4 POP PUSH1 0x40 DUP7 ADD CALLDATALOAD SWAP1 PUSH2 0x1F5F DUP3 PUSH2 0x25FF JUMP JUMPDEST SWAP1 SWAP3 POP PUSH1 0x60 DUP7 ADD CALLDATALOAD SWAP1 DUP1 DUP3 GT ISZERO PUSH2 0x1F74 JUMPI DUP3 DUP4 REVERT JUMPDEST POP PUSH2 0x1F81 DUP8 DUP3 DUP9 ADD PUSH2 0x193D JUMP JUMPDEST SWAP2 POP POP SWAP3 SWAP6 SWAP2 SWAP5 POP SWAP3 POP JUMP JUMPDEST PUSH1 0x0 DUP1 PUSH1 0x0 DUP1 PUSH1 0x80 DUP6 DUP8 SUB SLT ISZERO PUSH2 0x1FA2 JUMPI DUP2 DUP3 REVERT JUMPDEST DUP5 CALLDATALOAD PUSH1 0x1 PUSH1 0x1 PUSH1 0x40 SHL SUB DUP2 GT ISZERO PUSH2 0x1FB7 JUMPI DUP3 DUP4 REVERT JUMPDEST PUSH2 0x1FC3 DUP8 DUP3 DUP9 ADD PUSH2 0x1AB3 JUMP JUMPDEST SWAP5 POP POP PUSH1 0x20 DUP6 ADD CALLDATALOAD SWAP3 POP PUSH1 0x40 DUP6 ADD CALLDATALOAD PUSH2 0x1FDB DUP2 PUSH2 0x25FF JUMP JUMPDEST SWAP2 POP PUSH1 0x60 DUP6 ADD CALLDATALOAD PUSH2 0x1FEB DUP2 PUSH2 0x25FF JUMP JUMPDEST SWAP4 SWAP7 SWAP3 SWAP6 POP SWAP1 SWAP4 POP POP JUMP JUMPDEST PUSH1 0x0 PUSH1 0x20 DUP3 DUP5 SUB SLT ISZERO PUSH2 0x2007 JUMPI DUP1 DUP2 REVERT JUMPDEST POP MLOAD SWAP2 SWAP1 POP JUMP JUMPDEST PUSH1 0x0 DUP1 PUSH1 0x40 DUP4 DUP6 SUB SLT ISZERO PUSH2 0x2020 JUMPI DUP2 DUP3 REVERT JUMPDEST POP POP DUP1 MLOAD PUSH1 0x20 SWAP1 SWAP2 ADD MLOAD SWAP1 SWAP3 SWAP1 SWAP2 POP JUMP JUMPDEST PUSH1 0x0 DUP2 MLOAD DUP1 DUP5 MSTORE PUSH1 0x20 DUP1 DUP6 ADD SWAP5 POP DUP1 DUP5 ADD DUP4 JUMPDEST DUP4 DUP2 LT ISZERO PUSH2 0x2060 JUMPI DUP2 MLOAD DUP8 MSTORE SWAP6 DUP3 ADD SWAP6 SWAP1 DUP3 ADD SWAP1 PUSH1 0x1 ADD PUSH2 0x2044 JUMP JUMPDEST POP SWAP5 SWAP6 SWAP5 POP POP POP POP POP JUMP JUMPDEST PUSH1 0x0 DUP2 MLOAD DUP1 DUP5 MSTORE PUSH2 0x2083 DUP2 PUSH1 0x20 DUP7 ADD PUSH1 0x20 DUP7 ADD PUSH2 0x25D3 JUMP JUMPDEST PUSH1 0x1F ADD PUSH1 0x1F NOT AND SWAP3 SWAP1 SWAP3 ADD PUSH1 0x20 ADD SWAP3 SWAP2 POP POP JUMP JUMPDEST PUSH1 0x0 DUP2 MLOAD DUP4 MSTORE PUSH1 0x20 DUP3 ADD MLOAD PUSH1 0x1 DUP1 PUSH1 0xA0 SHL SUB DUP1 DUP3 AND PUSH1 0x20 DUP7 ADD MSTORE DUP1 PUSH1 0x40 DUP6 ADD MLOAD AND PUSH1 0x40 DUP7 ADD MSTORE DUP1 PUSH1 0x60 DUP6 ADD MLOAD AND PUSH1 0x60 DUP7 ADD MSTORE POP POP PUSH1 0x80 DUP3 ADD MLOAD PUSH1 0xA0 PUSH1 0x80 DUP6 ADD MSTORE PUSH2 0x847 PUSH1 0xA0 DUP6 ADD DUP3 PUSH2 0x206B JUMP JUMPDEST PUSH1 0x0 DUP3 MLOAD PUSH2 0x20F6 DUP2 DUP5 PUSH1 0x20 DUP8 ADD PUSH2 0x25D3 JUMP JUMPDEST SWAP2 SWAP1 SWAP2 ADD SWAP3 SWAP2 POP POP JUMP JUMPDEST PUSH1 0x1 PUSH1 0x1 PUSH1 0xA0 SHL SUB SWAP2 SWAP1 SWAP2 AND DUP2 MSTORE PUSH1 0x20 ADD SWAP1 JUMP JUMPDEST PUSH1 0x1 PUSH1 0x1 PUSH1 0xA0 SHL SUB SWAP3 SWAP1 SWAP3 AND DUP3 MSTORE PUSH1 0x20 DUP3 ADD MSTORE PUSH1 0x40 ADD SWAP1 JUMP JUMPDEST PUSH1 0x1 PUSH1 0x1 PUSH1 0xA0 SHL SUB SWAP3 DUP4 AND DUP2 MSTORE SWAP2 AND PUSH1 0x20 DUP3 ADD MSTORE PUSH1 0x40 ADD SWAP1 JUMP JUMPDEST PUSH1 0x1 PUSH1 0x1 PUSH1 0xA0 SHL SUB DUP6 DUP2 AND DUP3 MSTORE DUP5 AND PUSH1 0x20 DUP3 ADD MSTORE DUP3 ISZERO ISZERO PUSH1 0x40 DUP3 ADD MSTORE PUSH1 0x80 PUSH1 0x60 DUP3 ADD DUP2 SWAP1 MSTORE PUSH1 0x0 SWAP1 PUSH2 0xBC6 SWAP1 DUP4 ADD DUP5 PUSH2 0x206B JUMP JUMPDEST PUSH1 0x1 PUSH1 0x1 PUSH1 0xA0 SHL SUB DUP6 DUP2 AND DUP3 MSTORE DUP5 AND PUSH1 0x20 DUP3 ADD MSTORE PUSH1 0x80 PUSH1 0x40 DUP3 ADD DUP2 SWAP1 MSTORE PUSH1 0x0 SWAP1 PUSH2 0x21A7 SWAP1 DUP4 ADD DUP6 PUSH2 0x206B JUMP JUMPDEST SWAP1 POP DUP3 PUSH1 0x60 DUP4 ADD MSTORE SWAP6 SWAP5 POP POP POP POP POP JUMP JUMPDEST PUSH1 0x1 PUSH1 0x1 PUSH1 0xA0 SHL SUB DUP4 AND DUP2 MSTORE PUSH1 0x40 PUSH1 0x20 DUP3 ADD DUP2 SWAP1 MSTORE PUSH1 0x0 SWAP1 PUSH2 0x847 SWAP1 DUP4 ADD DUP5 PUSH2 0x206B JUMP JUMPDEST PUSH1 0x1 PUSH1 0x1 PUSH1 0xA0 SHL SUB DUP6 AND DUP2 MSTORE PUSH1 0x0 PUSH1 0x4 DUP6 LT PUSH2 0x21F4 JUMPI INVALID JUMPDEST DUP5 PUSH1 0x20 DUP4 ADD MSTORE PUSH1 0x80 PUSH1 0x40 DUP4 ADD MSTORE PUSH2 0x220E PUSH1 0x80 DUP4 ADD DUP6 PUSH2 0x2031 JUMP JUMPDEST DUP3 DUP2 SUB PUSH1 0x60 DUP5 ADD MSTORE PUSH2 0x2220 DUP2 DUP6 PUSH2 0x2031 JUMP JUMPDEST SWAP8 SWAP7 POP POP POP POP POP POP POP JUMP JUMPDEST PUSH1 0x1 PUSH1 0x1 PUSH1 0xA0 SHL SUB DUP10 DUP2 AND DUP3 MSTORE PUSH1 0x0 SWAP1 PUSH2 0x100 SWAP1 PUSH2 0x2248 DUP12 PUSH2 0x25C8 JUMP JUMPDEST PUSH1 0x20 DUP6 ADD MSTORE DUP2 PUSH1 0x40 DUP6 ADD MSTORE PUSH2 0x225F DUP3 DUP6 ADD DUP12 PUSH2 0x2031 JUMP JUMPDEST SWAP2 POP DUP4 DUP3 SUB PUSH1 0x60 DUP6 ADD MSTORE PUSH2 0x2273 DUP3 DUP11 PUSH2 0x2031 JUMP JUMPDEST SWAP1 DUP9 AND PUSH1 0x80 DUP6 ADD MSTORE SWAP1 POP PUSH2 0x2286 DUP7 PUSH2 0x25C8 JUMP JUMPDEST PUSH1 0xA0 DUP5 ADD MSTORE DUP3 DUP2 SUB PUSH1 0xC0 DUP5 ADD MSTORE PUSH2 0x229D DUP2 DUP7 PUSH2 0x2031 JUMP JUMPDEST SWAP1 POP DUP3 DUP2 SUB PUSH1 0xE0 DUP5 ADD MSTORE PUSH2 0x22B1 DUP2 DUP6 PUSH2 0x2031 JUMP JUMPDEST SWAP12 SWAP11 POP POP POP POP POP POP POP POP POP POP POP JUMP JUMPDEST PUSH1 0x0 PUSH1 0x40 DUP3 MSTORE PUSH2 0x22D3 PUSH1 0x40 DUP4 ADD DUP6 PUSH2 0x2031 JUMP JUMPDEST DUP3 DUP2 SUB PUSH1 0x20 DUP5 ADD MSTORE PUSH2 0x22E5 DUP2 DUP6 PUSH2 0x2031 JUMP JUMPDEST SWAP6 SWAP5 POP POP POP POP POP JUMP JUMPDEST PUSH1 0x0 DUP6 DUP3 MSTORE PUSH1 0x80 PUSH1 0x20 DUP4 ADD MSTORE PUSH2 0x2307 PUSH1 0x80 DUP4 ADD DUP7 PUSH2 0x206B JUMP JUMPDEST DUP3 DUP2 SUB PUSH1 0x40 DUP5 ADD MSTORE PUSH2 0x2319 DUP2 DUP7 PUSH2 0x2031 JUMP JUMPDEST SWAP1 POP DUP3 DUP2 SUB PUSH1 0x60 DUP5 ADD MSTORE PUSH2 0x2220 DUP2 DUP6 PUSH2 0x2031 JUMP JUMPDEST PUSH1 0x1 PUSH1 0x1 PUSH1 0xE0 SHL SUB NOT DUP7 AND DUP2 MSTORE PUSH1 0x1 PUSH1 0x1 PUSH1 0xA0 SHL SUB DUP6 DUP2 AND PUSH1 0x20 DUP4 ADD MSTORE DUP5 AND PUSH1 0x40 DUP3 ADD MSTORE PUSH1 0xA0 PUSH1 0x60 DUP3 ADD DUP2 SWAP1 MSTORE PUSH1 0x0 SWAP1 PUSH2 0x2369 SWAP1 DUP4 ADD DUP6 PUSH2 0x206B JUMP JUMPDEST DUP3 DUP2 SUB PUSH1 0x80 DUP5 ADD MSTORE PUSH2 0x237B DUP2 DUP6 PUSH2 0x2031 JUMP JUMPDEST SWAP9 SWAP8 POP POP POP POP POP POP POP POP JUMP JUMPDEST PUSH1 0x1 PUSH1 0x1 PUSH1 0xE0 SHL SUB NOT DUP7 AND DUP2 MSTORE PUSH1 0x1 PUSH1 0x1 PUSH1 0xA0 SHL SUB DUP6 DUP2 AND PUSH1 0x20 DUP4 ADD MSTORE DUP5 AND PUSH1 0x40 DUP3 ADD MSTORE PUSH1 0xA0 PUSH1 0x60 DUP3 ADD DUP2 SWAP1 MSTORE PUSH1 0x0 SWAP1 PUSH2 0x23C3 SWAP1 DUP4 ADD DUP6 PUSH2 0x206B JUMP JUMPDEST SWAP1 POP DUP3 PUSH1 0x80 DUP4 ADD MSTORE SWAP7 SWAP6 POP POP POP POP POP POP JUMP JUMPDEST PUSH1 0x0 PUSH1 0x20 DUP3 MSTORE PUSH2 0xEC8 PUSH1 0x20 DUP4 ADD DUP5 PUSH2 0x206B JUMP JUMPDEST PUSH1 0x1 PUSH1 0x1 PUSH1 0xA0 SHL SUB DUP10 DUP2 AND DUP3 MSTORE PUSH1 0x20 DUP3 ADD DUP10 SWAP1 MSTORE DUP8 DUP2 AND PUSH1 0x40 DUP4 ADD MSTORE DUP7 DUP2 AND PUSH1 0x60 DUP4 ADD MSTORE PUSH1 0x80 DUP3 ADD DUP7 SWAP1 MSTORE PUSH1 0xA0 DUP3 ADD DUP6 SWAP1 MSTORE DUP4 AND PUSH1 0xC0 DUP3 ADD MSTORE PUSH2 0x100 PUSH1 0xE0 DUP3 ADD DUP2 SWAP1 MSTORE PUSH1 0x0 SWAP1 PUSH2 0x22B1 DUP4 DUP3 ADD DUP6 PUSH2 0x206B JUMP JUMPDEST PUSH1 0x60 DUP2 ADD PUSH1 0x8 DUP6 LT PUSH2 0x2448 JUMPI INVALID JUMPDEST SWAP4 DUP2 MSTORE PUSH1 0x20 DUP2 ADD SWAP3 SWAP1 SWAP3 MSTORE PUSH1 0x40 SWAP1 SWAP2 ADD MSTORE SWAP1 JUMP JUMPDEST PUSH1 0x20 DUP1 DUP3 MSTORE PUSH1 0x1D SWAP1 DUP3 ADD MSTORE PUSH32 0x42616C616E6365206F6620627579546F6B656E206D7573742062652030000000 PUSH1 0x40 DUP3 ADD MSTORE PUSH1 0x60 ADD SWAP1 JUMP JUMPDEST PUSH1 0x20 DUP1 DUP3 MSTORE PUSH1 0x23 SWAP1 DUP3 ADD MSTORE PUSH32 0x4661696C656420746F206D696E74206F72206465706F7369742073656C6C546F PUSH1 0x40 DUP3 ADD MSTORE PUSH3 0x35B2B7 PUSH1 0xE9 SHL PUSH1 0x60 DUP3 ADD MSTORE PUSH1 0x80 ADD SWAP1 JUMP JUMPDEST PUSH1 0x20 DUP1 DUP3 MSTORE DUP2 DUP2 ADD MSTORE PUSH32 0x537761702053616D706C652073686F756C642068617665207265766572746564 PUSH1 0x40 DUP3 ADD MSTORE PUSH1 0x60 ADD SWAP1 JUMP JUMPDEST PUSH1 0x0 PUSH1 0x20 DUP3 MSTORE PUSH2 0xEC8 PUSH1 0x20 DUP4 ADD DUP5 PUSH2 0x2097 JUMP JUMPDEST PUSH1 0x0 PUSH1 0x80 DUP3 MSTORE PUSH2 0x2531 PUSH1 0x80 DUP4 ADD DUP8 PUSH2 0x2097 JUMP JUMPDEST PUSH1 0x20 DUP4 ADD SWAP6 SWAP1 SWAP6 MSTORE POP PUSH1 0x1 PUSH1 0x1 PUSH1 0xA0 SHL SUB SWAP3 DUP4 AND PUSH1 0x40 DUP3 ADD MSTORE SWAP2 AND PUSH1 0x60 SWAP1 SWAP2 ADD MSTORE SWAP2 SWAP1 POP JUMP JUMPDEST SWAP1 DUP2 MSTORE PUSH1 0x20 ADD SWAP1 JUMP JUMPDEST PUSH1 0x40 MLOAD DUP2 DUP2 ADD PUSH1 0x1 PUSH1 0x1 PUSH1 0x40 SHL SUB DUP2 GT DUP3 DUP3 LT OR ISZERO PUSH2 0x257E JUMPI PUSH1 0x0 DUP1 REVERT JUMPDEST PUSH1 0x40 MSTORE SWAP2 SWAP1 POP JUMP JUMPDEST PUSH1 0x0 PUSH1 0x1 PUSH1 0x1 PUSH1 0x40 SHL SUB DUP3 GT ISZERO PUSH2 0x259B JUMPI DUP1 DUP2 REVERT JUMPDEST POP PUSH1 0x20 SWAP1 DUP2 MUL ADD SWAP1 JUMP JUMPDEST PUSH1 0x0 PUSH1 0x1 PUSH1 0x1 PUSH1 0x40 SHL SUB DUP3 GT ISZERO PUSH2 0x25BA JUMPI DUP1 DUP2 REVERT JUMPDEST POP PUSH1 0x1F ADD PUSH1 0x1F NOT AND PUSH1 0x20 ADD SWAP1 JUMP JUMPDEST DUP1 PUSH1 0x4 DUP2 LT PUSH2 0x1828 JUMPI INVALID JUMPDEST PUSH1 0x0 JUMPDEST DUP4 DUP2 LT ISZERO PUSH2 0x25EE JUMPI DUP2 DUP2 ADD MLOAD DUP4 DUP3 ADD MSTORE PUSH1 0x20 ADD PUSH2 0x25D6 JUMP JUMPDEST DUP4 DUP2 GT ISZERO PUSH2 0x1754 JUMPI POP POP PUSH1 0x0 SWAP2 ADD MSTORE JUMP JUMPDEST PUSH1 0x1 PUSH1 0x1 PUSH1 0xA0 SHL SUB DUP2 AND DUP2 EQ PUSH2 0x2614 JUMPI PUSH1 0x0 DUP1 REVERT JUMPDEST POP JUMP JUMPDEST PUSH1 0x1 PUSH1 0x1 PUSH1 0xE0 SHL SUB NOT DUP2 AND DUP2 EQ PUSH2 0x2614 JUMPI PUSH1 0x0 DUP1 REVERT INVALID LOG2 PUSH5 0x6970667358 0x22 SLT KECCAK256 0x4C 0xD6 CALLDATACOPY 0xD0 0x24 0xE0 DUP4 0xB9 CALLER COINBASE 0x2A KECCAK256 0xC0 0xED OR MUL DUP9 0xD0 MSTORE8 0xE6 CODESIZE 0xCF KECCAK256 ISZERO 0xAA SWAP11 0x2E 0xF9 0xEF 0xA5 0xE6 0xD PUSH5 0x736F6C6343 STOP MOD 0xC STOP CALLER "
            }
        }
    },
    "sourceTreeHashHex": "0xfa834c0b26ee6ffa6dbabbfe72ead26bba1a5a49cab80f2632e6b4633943b641",
    "compiler": {
        "name": "solc",
        "version": "0.6.12+commit.27d51765",
        "settings": {
            "remappings": [
                "@0x/contracts-zero-ex=/Users/jacob/projects/ethdev/0x/workspace-remote/workspace/0x-monorepo/packages/asset-swapper/node_modules/@0x/contracts-zero-ex",
                "@0x/contracts-erc20=/Users/jacob/projects/ethdev/0x/workspace-remote/workspace/0x-monorepo/packages/asset-swapper/node_modules/@0x/contracts-erc20",
                "@0x/contracts-utils=/Users/jacob/projects/ethdev/0x/workspace-remote/workspace/0x-monorepo/packages/asset-swapper/node_modules/@0x/contracts-utils"
            ],
            "optimizer": {
                "enabled": true,
                "runs": 200,
                "details": {
                    "yul": true,
                    "deduplicate": true
                }
            },
            "outputSelection": {
                "*": {
                    "*": [
                        "abi",
                        "devdoc",
                        "evm.bytecode.object",
                        "evm.bytecode.sourceMap",
                        "evm.deployedBytecode.object",
                        "evm.deployedBytecode.sourceMap"
                    ]
                }
            },
            "evmVersion": "istanbul"
        }
    },
    "chains": {}
}