{
    "schemaVersion": "2.0.0",
    "contractName": "LidoSampler",
    "compilerOutput": {
        "abi": [
            {
                "inputs": [
                    {
                        "components": [
                            {
                                "internalType": "address",
                                "name": "stEthToken",
                                "type": "address"
                            },
                            {
                                "internalType": "address",
                                "name": "wethToken",
                                "type": "address"
                            },
                            {
                                "internalType": "address",
                                "name": "wstEthToken",
                                "type": "address"
                            }
                        ],
                        "internalType": "struct LidoSampler.LidoInfo",
                        "name": "lidoInfo",
                        "type": "tuple"
                    },
                    {
                        "internalType": "address",
                        "name": "takerToken",
                        "type": "address"
                    },
                    {
                        "internalType": "address",
                        "name": "makerToken",
                        "type": "address"
                    },
                    {
                        "internalType": "uint256[]",
                        "name": "makerTokenAmounts",
                        "type": "uint256[]"
                    }
                ],
                "name": "sampleBuysFromLido",
                "outputs": [
                    {
                        "internalType": "uint256[]",
                        "name": "",
                        "type": "uint256[]"
                    }
                ],
                "stateMutability": "view",
                "type": "function"
            },
            {
                "inputs": [
                    {
                        "components": [
                            {
                                "internalType": "address",
                                "name": "stEthToken",
                                "type": "address"
                            },
                            {
                                "internalType": "address",
                                "name": "wethToken",
                                "type": "address"
                            },
                            {
                                "internalType": "address",
                                "name": "wstEthToken",
                                "type": "address"
                            }
                        ],
                        "internalType": "struct LidoSampler.LidoInfo",
                        "name": "lidoInfo",
                        "type": "tuple"
                    },
                    {
                        "internalType": "address",
                        "name": "takerToken",
                        "type": "address"
                    },
                    {
                        "internalType": "address",
                        "name": "makerToken",
                        "type": "address"
                    },
                    {
                        "internalType": "uint256[]",
                        "name": "takerTokenAmounts",
                        "type": "uint256[]"
                    }
                ],
                "name": "sampleSellsFromLido",
                "outputs": [
                    {
                        "internalType": "uint256[]",
                        "name": "",
                        "type": "uint256[]"
                    }
                ],
                "stateMutability": "view",
                "type": "function"
            }
        ],
        "devdoc": {
            "kind": "dev",
            "methods": {
                "sampleBuysFromLido((address,address,address),address,address,uint256[])": {
                    "details": "Sample buy quotes from Lido.",
                    "params": {
                        "lidoInfo": "Info regarding a specific Lido deployment",
                        "makerToken": "Address of the maker token (what to buy).",
                        "makerTokenAmounts": "Maker token buy amount for each sample.",
                        "takerToken": "Address of the taker token (what to sell)."
                    },
                    "returns": {
                        "_0": "takerTokenAmounts Taker amounts sold at each maker token         amount."
                    }
                },
                "sampleSellsFromLido((address,address,address),address,address,uint256[])": {
                    "details": "Sample sell quotes from Lido",
                    "params": {
                        "lidoInfo": "Info regarding a specific Lido deployment",
                        "makerToken": "Address of the maker token (what to buy).",
                        "takerToken": "Address of the taker token (what to sell).",
                        "takerTokenAmounts": "Taker token sell amount for each sample."
                    },
                    "returns": {
                        "_0": "makerTokenAmounts Maker amounts bought at each taker token         amount."
                    }
                }
            },
            "version": 1
        },
        "evm": {
            "bytecode": {
                "linkReferences": {},
                "object": "0x608060405234801561001057600080fd5b50610704806100206000396000f3fe608060405234801561001057600080fd5b50600436106100365760003560e01c80635e74363a1461003b5780636eb9dae514610064575b600080fd5b61004e6100493660046104af565b610077565b60405161005b9190610609565b60405180910390f35b61004e6100723660046104af565b6100d7565b60606100838385610122565b84602001516001600160a01b0316846001600160a01b03161480156100b4575084516001600160a01b038481169116145b156100c05750806100cf565b6100cc85858585610161565b90505b949350505050565b606084602001516001600160a01b0316846001600160a01b031614801561010a575084516001600160a01b038481169116145b156101165750806100cf565b6100cc85848685610161565b806001600160a01b0316826001600160a01b0316141561015d5760405162461bcd60e51b815260040161015490610621565b60405180910390fd5b5050565b6040840151815160609190828167ffffffffffffffff8111801561018457600080fd5b506040519080825280602002602001820160405280156101ae578160200160208202803683370190505b50905087600001516001600160a01b0316876001600160a01b03161480156101eb575087604001516001600160a01b0316866001600160a01b0316145b156102b45760005b828110156102a957836001600160a01b031663b0e3890087838151811061021657fe5b60200260200101516040518263ffffffff1660e01b815260040161023a9190610631565b60206040518083038186803b15801561025257600080fd5b505afa158015610266573d6000803e3d6000fd5b505050506040513d601f19601f8201168201806040525081019061028a9190610528565b82828151811061029657fe5b60209081029190910101526001016101f3565b5092506100cf915050565b87604001516001600160a01b0316876001600160a01b03161480156102e5575087516001600160a01b038781169116145b156103a35760005b828110156102a957836001600160a01b031663bb2952fc87838151811061031057fe5b60200260200101516040518263ffffffff1660e01b81526004016103349190610631565b60206040518083038186803b15801561034c57600080fd5b505afa158015610360573d6000803e3d6000fd5b505050506040513d601f19601f820116820180604052508101906103849190610528565b82828151811061039057fe5b60209081029190910101526001016102ed565b979650505050505050565b80356103b9816106ae565b92915050565b600082601f8301126103d057600080fd5b81356103e36103de82610666565b61063f565b9150818183526020840193506020810190508385602084028201111561040857600080fd5b60005b83811015610434578161041e8882610499565b845250602092830192919091019060010161040b565b5050505092915050565b60006060828403121561045057600080fd5b61045a606061063f565b9050600061046884846103ae565b8252506020610479848483016103ae565b602083015250604061048d848285016103ae565b60408301525092915050565b80356103b9816106c5565b80516103b9816106c5565b60008060008060c085870312156104c557600080fd5b60006104d1878761043e565b94505060606104e2878288016103ae565b93505060806104f3878288016103ae565b92505060a085013567ffffffffffffffff81111561051057600080fd5b61051c878288016103bf565b91505092959194509250565b60006020828403121561053a57600080fd5b60006100cf84846104a4565b600061055283836105fa565b505060200190565b60006105658261068d565b61056f8185610691565b935061057a83610687565b8060005b838110156105a85781516105928882610546565b975061059d83610687565b92505060010161057e565b509495945050505050565b60006105c0602583610691565b7f455243323042726964676553616d706c65722f494e56414c49445f544f4b454e8152642fa820a4a960d91b602082015260400192915050565b610603816106ab565b82525050565b6020808252810161061a818461055a565b9392505050565b602080825281016103b9816105b3565b602081016103b982846105fa565b60405181810167ffffffffffffffff8111828210171561065e57600080fd5b604052919050565b600067ffffffffffffffff82111561067d57600080fd5b5060209081020190565b60200190565b5190565b90815260200190565b60006001600160a01b0382166103b9565b90565b6106b78161069a565b81146106c257600080fd5b50565b6106b7816106ab56fea2646970667358221220d58865476d6bd963dc7f8bacdfc2dfa5c3a47f85ea099799a32ac28f67cb3b0f64736f6c634300060c0033",
                "opcodes": "PUSH1 0x80 PUSH1 0x40 MSTORE CALLVALUE DUP1 ISZERO PUSH2 0x10 JUMPI PUSH1 0x0 DUP1 REVERT JUMPDEST POP PUSH2 0x704 DUP1 PUSH2 0x20 PUSH1 0x0 CODECOPY PUSH1 0x0 RETURN INVALID PUSH1 0x80 PUSH1 0x40 MSTORE CALLVALUE DUP1 ISZERO PUSH2 0x10 JUMPI PUSH1 0x0 DUP1 REVERT JUMPDEST POP PUSH1 0x4 CALLDATASIZE LT PUSH2 0x36 JUMPI PUSH1 0x0 CALLDATALOAD PUSH1 0xE0 SHR DUP1 PUSH4 0x5E74363A EQ PUSH2 0x3B JUMPI DUP1 PUSH4 0x6EB9DAE5 EQ PUSH2 0x64 JUMPI JUMPDEST PUSH1 0x0 DUP1 REVERT JUMPDEST PUSH2 0x4E PUSH2 0x49 CALLDATASIZE PUSH1 0x4 PUSH2 0x4AF JUMP JUMPDEST PUSH2 0x77 JUMP JUMPDEST PUSH1 0x40 MLOAD PUSH2 0x5B SWAP2 SWAP1 PUSH2 0x609 JUMP JUMPDEST PUSH1 0x40 MLOAD DUP1 SWAP2 SUB SWAP1 RETURN JUMPDEST PUSH2 0x4E PUSH2 0x72 CALLDATASIZE PUSH1 0x4 PUSH2 0x4AF JUMP JUMPDEST PUSH2 0xD7 JUMP JUMPDEST PUSH1 0x60 PUSH2 0x83 DUP4 DUP6 PUSH2 0x122 JUMP JUMPDEST DUP5 PUSH1 0x20 ADD MLOAD PUSH1 0x1 PUSH1 0x1 PUSH1 0xA0 SHL SUB AND DUP5 PUSH1 0x1 PUSH1 0x1 PUSH1 0xA0 SHL SUB AND EQ DUP1 ISZERO PUSH2 0xB4 JUMPI POP DUP5 MLOAD PUSH1 0x1 PUSH1 0x1 PUSH1 0xA0 SHL SUB DUP5 DUP2 AND SWAP2 AND EQ JUMPDEST ISZERO PUSH2 0xC0 JUMPI POP DUP1 PUSH2 0xCF JUMP JUMPDEST PUSH2 0xCC DUP6 DUP6 DUP6 DUP6 PUSH2 0x161 JUMP JUMPDEST SWAP1 POP JUMPDEST SWAP5 SWAP4 POP POP POP POP JUMP JUMPDEST PUSH1 0x60 DUP5 PUSH1 0x20 ADD MLOAD PUSH1 0x1 PUSH1 0x1 PUSH1 0xA0 SHL SUB AND DUP5 PUSH1 0x1 PUSH1 0x1 PUSH1 0xA0 SHL SUB AND EQ DUP1 ISZERO PUSH2 0x10A JUMPI POP DUP5 MLOAD PUSH1 0x1 PUSH1 0x1 PUSH1 0xA0 SHL SUB DUP5 DUP2 AND SWAP2 AND EQ JUMPDEST ISZERO PUSH2 0x116 JUMPI POP DUP1 PUSH2 0xCF JUMP JUMPDEST PUSH2 0xCC DUP6 DUP5 DUP7 DUP6 PUSH2 0x161 JUMP JUMPDEST DUP1 PUSH1 0x1 PUSH1 0x1 PUSH1 0xA0 SHL SUB AND DUP3 PUSH1 0x1 PUSH1 0x1 PUSH1 0xA0 SHL SUB AND EQ ISZERO PUSH2 0x15D JUMPI PUSH1 0x40 MLOAD PUSH3 0x461BCD PUSH1 0xE5 SHL DUP2 MSTORE PUSH1 0x4 ADD PUSH2 0x154 SWAP1 PUSH2 0x621 JUMP JUMPDEST PUSH1 0x40 MLOAD DUP1 SWAP2 SUB SWAP1 REVERT JUMPDEST POP POP JUMP JUMPDEST PUSH1 0x40 DUP5 ADD MLOAD DUP2 MLOAD PUSH1 0x60 SWAP2 SWAP1 DUP3 DUP2 PUSH8 0xFFFFFFFFFFFFFFFF DUP2 GT DUP1 ISZERO PUSH2 0x184 JUMPI PUSH1 0x0 DUP1 REVERT JUMPDEST POP PUSH1 0x40 MLOAD SWAP1 DUP1 DUP3 MSTORE DUP1 PUSH1 0x20 MUL PUSH1 0x20 ADD DUP3 ADD PUSH1 0x40 MSTORE DUP1 ISZERO PUSH2 0x1AE JUMPI DUP2 PUSH1 0x20 ADD PUSH1 0x20 DUP3 MUL DUP1 CALLDATASIZE DUP4 CALLDATACOPY ADD SWAP1 POP JUMPDEST POP SWAP1 POP DUP8 PUSH1 0x0 ADD MLOAD PUSH1 0x1 PUSH1 0x1 PUSH1 0xA0 SHL SUB AND DUP8 PUSH1 0x1 PUSH1 0x1 PUSH1 0xA0 SHL SUB AND EQ DUP1 ISZERO PUSH2 0x1EB JUMPI POP DUP8 PUSH1 0x40 ADD MLOAD PUSH1 0x1 PUSH1 0x1 PUSH1 0xA0 SHL SUB AND DUP7 PUSH1 0x1 PUSH1 0x1 PUSH1 0xA0 SHL SUB AND EQ JUMPDEST ISZERO PUSH2 0x2B4 JUMPI PUSH1 0x0 JUMPDEST DUP3 DUP2 LT ISZERO PUSH2 0x2A9 JUMPI DUP4 PUSH1 0x1 PUSH1 0x1 PUSH1 0xA0 SHL SUB AND PUSH4 0xB0E38900 DUP8 DUP4 DUP2 MLOAD DUP2 LT PUSH2 0x216 JUMPI INVALID JUMPDEST PUSH1 0x20 MUL PUSH1 0x20 ADD ADD MLOAD PUSH1 0x40 MLOAD DUP3 PUSH4 0xFFFFFFFF AND PUSH1 0xE0 SHL DUP2 MSTORE PUSH1 0x4 ADD PUSH2 0x23A SWAP2 SWAP1 PUSH2 0x631 JUMP JUMPDEST PUSH1 0x20 PUSH1 0x40 MLOAD DUP1 DUP4 SUB DUP2 DUP7 DUP1 EXTCODESIZE ISZERO DUP1 ISZERO PUSH2 0x252 JUMPI PUSH1 0x0 DUP1 REVERT JUMPDEST POP GAS STATICCALL ISZERO DUP1 ISZERO PUSH2 0x266 JUMPI RETURNDATASIZE PUSH1 0x0 DUP1 RETURNDATACOPY RETURNDATASIZE PUSH1 0x0 REVERT JUMPDEST POP POP POP POP PUSH1 0x40 MLOAD RETURNDATASIZE PUSH1 0x1F NOT PUSH1 0x1F DUP3 ADD AND DUP3 ADD DUP1 PUSH1 0x40 MSTORE POP DUP2 ADD SWAP1 PUSH2 0x28A SWAP2 SWAP1 PUSH2 0x528 JUMP JUMPDEST DUP3 DUP3 DUP2 MLOAD DUP2 LT PUSH2 0x296 JUMPI INVALID JUMPDEST PUSH1 0x20 SWAP1 DUP2 MUL SWAP2 SWAP1 SWAP2 ADD ADD MSTORE PUSH1 0x1 ADD PUSH2 0x1F3 JUMP JUMPDEST POP SWAP3 POP PUSH2 0xCF SWAP2 POP POP JUMP JUMPDEST DUP8 PUSH1 0x40 ADD MLOAD PUSH1 0x1 PUSH1 0x1 PUSH1 0xA0 SHL SUB AND DUP8 PUSH1 0x1 PUSH1 0x1 PUSH1 0xA0 SHL SUB AND EQ DUP1 ISZERO PUSH2 0x2E5 JUMPI POP DUP8 MLOAD PUSH1 0x1 PUSH1 0x1 PUSH1 0xA0 SHL SUB DUP8 DUP2 AND SWAP2 AND EQ JUMPDEST ISZERO PUSH2 0x3A3 JUMPI PUSH1 0x0 JUMPDEST DUP3 DUP2 LT ISZERO PUSH2 0x2A9 JUMPI DUP4 PUSH1 0x1 PUSH1 0x1 PUSH1 0xA0 SHL SUB AND PUSH4 0xBB2952FC DUP8 DUP4 DUP2 MLOAD DUP2 LT PUSH2 0x310 JUMPI INVALID JUMPDEST PUSH1 0x20 MUL PUSH1 0x20 ADD ADD MLOAD PUSH1 0x40 MLOAD DUP3 PUSH4 0xFFFFFFFF AND PUSH1 0xE0 SHL DUP2 MSTORE PUSH1 0x4 ADD PUSH2 0x334 SWAP2 SWAP1 PUSH2 0x631 JUMP JUMPDEST PUSH1 0x20 PUSH1 0x40 MLOAD DUP1 DUP4 SUB DUP2 DUP7 DUP1 EXTCODESIZE ISZERO DUP1 ISZERO PUSH2 0x34C JUMPI PUSH1 0x0 DUP1 REVERT JUMPDEST POP GAS STATICCALL ISZERO DUP1 ISZERO PUSH2 0x360 JUMPI RETURNDATASIZE PUSH1 0x0 DUP1 RETURNDATACOPY RETURNDATASIZE PUSH1 0x0 REVERT JUMPDEST POP POP POP POP PUSH1 0x40 MLOAD RETURNDATASIZE PUSH1 0x1F NOT PUSH1 0x1F DUP3 ADD AND DUP3 ADD DUP1 PUSH1 0x40 MSTORE POP DUP2 ADD SWAP1 PUSH2 0x384 SWAP2 SWAP1 PUSH2 0x528 JUMP JUMPDEST DUP3 DUP3 DUP2 MLOAD DUP2 LT PUSH2 0x390 JUMPI INVALID JUMPDEST PUSH1 0x20 SWAP1 DUP2 MUL SWAP2 SWAP1 SWAP2 ADD ADD MSTORE PUSH1 0x1 ADD PUSH2 0x2ED JUMP JUMPDEST SWAP8 SWAP7 POP POP POP POP POP POP POP JUMP JUMPDEST DUP1 CALLDATALOAD PUSH2 0x3B9 DUP2 PUSH2 0x6AE JUMP JUMPDEST SWAP3 SWAP2 POP POP JUMP JUMPDEST PUSH1 0x0 DUP3 PUSH1 0x1F DUP4 ADD SLT PUSH2 0x3D0 JUMPI PUSH1 0x0 DUP1 REVERT JUMPDEST DUP2 CALLDATALOAD PUSH2 0x3E3 PUSH2 0x3DE DUP3 PUSH2 0x666 JUMP JUMPDEST PUSH2 0x63F JUMP JUMPDEST SWAP2 POP DUP2 DUP2 DUP4 MSTORE PUSH1 0x20 DUP5 ADD SWAP4 POP PUSH1 0x20 DUP2 ADD SWAP1 POP DUP4 DUP6 PUSH1 0x20 DUP5 MUL DUP3 ADD GT ISZERO PUSH2 0x408 JUMPI PUSH1 0x0 DUP1 REVERT JUMPDEST PUSH1 0x0 JUMPDEST DUP4 DUP2 LT ISZERO PUSH2 0x434 JUMPI DUP2 PUSH2 0x41E DUP9 DUP3 PUSH2 0x499 JUMP JUMPDEST DUP5 MSTORE POP PUSH1 0x20 SWAP3 DUP4 ADD SWAP3 SWAP2 SWAP1 SWAP2 ADD SWAP1 PUSH1 0x1 ADD PUSH2 0x40B JUMP JUMPDEST POP POP POP POP SWAP3 SWAP2 POP POP JUMP JUMPDEST PUSH1 0x0 PUSH1 0x60 DUP3 DUP5 SUB SLT ISZERO PUSH2 0x450 JUMPI PUSH1 0x0 DUP1 REVERT JUMPDEST PUSH2 0x45A PUSH1 0x60 PUSH2 0x63F JUMP JUMPDEST SWAP1 POP PUSH1 0x0 PUSH2 0x468 DUP5 DUP5 PUSH2 0x3AE JUMP JUMPDEST DUP3 MSTORE POP PUSH1 0x20 PUSH2 0x479 DUP5 DUP5 DUP4 ADD PUSH2 0x3AE JUMP JUMPDEST PUSH1 0x20 DUP4 ADD MSTORE POP PUSH1 0x40 PUSH2 0x48D DUP5 DUP3 DUP6 ADD PUSH2 0x3AE JUMP JUMPDEST PUSH1 0x40 DUP4 ADD MSTORE POP SWAP3 SWAP2 POP POP JUMP JUMPDEST DUP1 CALLDATALOAD PUSH2 0x3B9 DUP2 PUSH2 0x6C5 JUMP JUMPDEST DUP1 MLOAD PUSH2 0x3B9 DUP2 PUSH2 0x6C5 JUMP JUMPDEST PUSH1 0x0 DUP1 PUSH1 0x0 DUP1 PUSH1 0xC0 DUP6 DUP8 SUB SLT ISZERO PUSH2 0x4C5 JUMPI PUSH1 0x0 DUP1 REVERT JUMPDEST PUSH1 0x0 PUSH2 0x4D1 DUP8 DUP8 PUSH2 0x43E JUMP JUMPDEST SWAP5 POP POP PUSH1 0x60 PUSH2 0x4E2 DUP8 DUP3 DUP9 ADD PUSH2 0x3AE JUMP JUMPDEST SWAP4 POP POP PUSH1 0x80 PUSH2 0x4F3 DUP8 DUP3 DUP9 ADD PUSH2 0x3AE JUMP JUMPDEST SWAP3 POP POP PUSH1 0xA0 DUP6 ADD CALLDATALOAD PUSH8 0xFFFFFFFFFFFFFFFF DUP2 GT ISZERO PUSH2 0x510 JUMPI PUSH1 0x0 DUP1 REVERT JUMPDEST PUSH2 0x51C DUP8 DUP3 DUP9 ADD PUSH2 0x3BF JUMP JUMPDEST SWAP2 POP POP SWAP3 SWAP6 SWAP2 SWAP5 POP SWAP3 POP JUMP JUMPDEST PUSH1 0x0 PUSH1 0x20 DUP3 DUP5 SUB SLT ISZERO PUSH2 0x53A JUMPI PUSH1 0x0 DUP1 REVERT JUMPDEST PUSH1 0x0 PUSH2 0xCF DUP5 DUP5 PUSH2 0x4A4 JUMP JUMPDEST PUSH1 0x0 PUSH2 0x552 DUP4 DUP4 PUSH2 0x5FA JUMP JUMPDEST POP POP PUSH1 0x20 ADD SWAP1 JUMP JUMPDEST PUSH1 0x0 PUSH2 0x565 DUP3 PUSH2 0x68D JUMP JUMPDEST PUSH2 0x56F DUP2 DUP6 PUSH2 0x691 JUMP JUMPDEST SWAP4 POP PUSH2 0x57A DUP4 PUSH2 0x687 JUMP JUMPDEST DUP1 PUSH1 0x0 JUMPDEST DUP4 DUP2 LT ISZERO PUSH2 0x5A8 JUMPI DUP2 MLOAD PUSH2 0x592 DUP9 DUP3 PUSH2 0x546 JUMP JUMPDEST SWAP8 POP PUSH2 0x59D DUP4 PUSH2 0x687 JUMP JUMPDEST SWAP3 POP POP PUSH1 0x1 ADD PUSH2 0x57E JUMP JUMPDEST POP SWAP5 SWAP6 SWAP5 POP POP POP POP POP JUMP JUMPDEST PUSH1 0x0 PUSH2 0x5C0 PUSH1 0x25 DUP4 PUSH2 0x691 JUMP JUMPDEST PUSH32 0x455243323042726964676553616D706C65722F494E56414C49445F544F4B454E DUP2 MSTORE PUSH5 0x2FA820A4A9 PUSH1 0xD9 SHL PUSH1 0x20 DUP3 ADD MSTORE PUSH1 0x40 ADD SWAP3 SWAP2 POP POP JUMP JUMPDEST PUSH2 0x603 DUP2 PUSH2 0x6AB JUMP JUMPDEST DUP3 MSTORE POP POP JUMP JUMPDEST PUSH1 0x20 DUP1 DUP3 MSTORE DUP2 ADD PUSH2 0x61A DUP2 DUP5 PUSH2 0x55A JUMP JUMPDEST SWAP4 SWAP3 POP POP POP JUMP JUMPDEST PUSH1 0x20 DUP1 DUP3 MSTORE DUP2 ADD PUSH2 0x3B9 DUP2 PUSH2 0x5B3 JUMP JUMPDEST PUSH1 0x20 DUP2 ADD PUSH2 0x3B9 DUP3 DUP5 PUSH2 0x5FA JUMP JUMPDEST PUSH1 0x40 MLOAD DUP2 DUP2 ADD PUSH8 0xFFFFFFFFFFFFFFFF DUP2 GT DUP3 DUP3 LT OR ISZERO PUSH2 0x65E JUMPI PUSH1 0x0 DUP1 REVERT JUMPDEST PUSH1 0x40 MSTORE SWAP2 SWAP1 POP JUMP JUMPDEST PUSH1 0x0 PUSH8 0xFFFFFFFFFFFFFFFF DUP3 GT ISZERO PUSH2 0x67D JUMPI PUSH1 0x0 DUP1 REVERT JUMPDEST POP PUSH1 0x20 SWAP1 DUP2 MUL ADD SWAP1 JUMP JUMPDEST PUSH1 0x20 ADD SWAP1 JUMP JUMPDEST MLOAD SWAP1 JUMP JUMPDEST SWAP1 DUP2 MSTORE PUSH1 0x20 ADD SWAP1 JUMP JUMPDEST PUSH1 0x0 PUSH1 0x1 PUSH1 0x1 PUSH1 0xA0 SHL SUB DUP3 AND PUSH2 0x3B9 JUMP JUMPDEST SWAP1 JUMP JUMPDEST PUSH2 0x6B7 DUP2 PUSH2 0x69A JUMP JUMPDEST DUP2 EQ PUSH2 0x6C2 JUMPI PUSH1 0x0 DUP1 REVERT JUMPDEST POP JUMP JUMPDEST PUSH2 0x6B7 DUP2 PUSH2 0x6AB JUMP INVALID LOG2 PUSH5 0x6970667358 0x22 SLT KECCAK256 0xD5 DUP9 PUSH6 0x476D6BD963DC PUSH32 0x8BACDFC2DFA5C3A47F85EA099799A32AC28F67CB3B0F64736F6C634300060C00 CALLER "
            }
        }
    },
    "sourceTreeHashHex": "0x42147e5a35633ccc39b70bdf665524078a02ec99c4d4e08aa16d691a5a21dedc",
    "compiler": {
        "name": "solc",
        "version": "0.6.12+commit.27d51765",
        "settings": {
            "remappings": [
                "@0x/contracts-utils=/Users/jacob/projects/ethdev/0x/workspace-remote/workspace/protocol/node_modules/@0x/contracts-utils",
                "@0x/contracts-erc20=/Users/jacob/projects/ethdev/0x/workspace-remote/workspace/protocol/node_modules/@0x/contracts-erc20",
                "@0x/contracts-zero-ex=/Users/jacob/projects/ethdev/0x/workspace-remote/workspace/protocol/packages/asset-swapper/node_modules/@0x/contracts-zero-ex"
            ],
            "optimizer": {
                "enabled": true,
                "runs": 200,
                "details": {
                    "yul": false,
                    "deduplicate": true
                }
            },
            "outputSelection": {
                "*": {
                    "*": [
                        "abi",
                        "devdoc",
                        "evm.bytecode.object",
                        "evm.bytecode.sourceMap",
                        "evm.deployedBytecode.object",
                        "evm.deployedBytecode.sourceMap"
                    ]
                }
            },
            "evmVersion": "istanbul"
        }
    },
    "chains": {}
}