{
    "schemaVersion": "2.0.0",
    "contractName": "LiquidityProviderSampler",
    "compilerOutput": {
        "abi": [
            {
                "inputs": [
                    {
                        "internalType": "address",
                        "name": "providerAddress",
                        "type": "address"
                    },
                    {
                        "internalType": "address",
                        "name": "takerToken",
                        "type": "address"
                    },
                    {
                        "internalType": "address",
                        "name": "makerToken",
                        "type": "address"
                    }
                ],
                "name": "sampleBuysFromLiquidityProviderGlobal",
                "outputs": [
                    {
                        "internalType": "uint256[]",
                        "name": "takerTokenAmounts",
                        "type": "uint256[]"
                    }
                ],
                "stateMutability": "view",
                "type": "function"
            },
            {
                "inputs": [
                    {
                        "internalType": "address",
                        "name": "providerAddress",
                        "type": "address"
                    },
                    {
                        "internalType": "address",
                        "name": "takerToken",
                        "type": "address"
                    },
                    {
                        "internalType": "address",
                        "name": "makerToken",
                        "type": "address"
                    },
                    {
                        "internalType": "uint256[]",
                        "name": "takerTokenAmounts",
                        "type": "uint256[]"
                    }
                ],
                "name": "sampleSellsFromLiquidityProvider",
                "outputs": [
                    {
                        "internalType": "uint256[]",
                        "name": "makerTokenAmounts",
                        "type": "uint256[]"
                    }
                ],
                "stateMutability": "view",
                "type": "function"
            },
            {
                "inputs": [
                    {
                        "internalType": "address",
                        "name": "providerAddress",
                        "type": "address"
                    },
                    {
                        "internalType": "address",
                        "name": "takerToken",
                        "type": "address"
                    },
                    {
                        "internalType": "address",
                        "name": "makerToken",
                        "type": "address"
                    }
                ],
                "name": "sampleSellsFromLiquidityProviderGlobal",
                "outputs": [
                    {
                        "internalType": "uint256[]",
                        "name": "makerTokenAmounts",
                        "type": "uint256[]"
                    }
                ],
                "stateMutability": "view",
                "type": "function"
            },
            {
                "inputs": [
                    {
                        "internalType": "uint256[]",
                        "name": "sampleValues",
                        "type": "uint256[]"
                    }
                ],
                "name": "setSampleValues",
                "outputs": [],
                "stateMutability": "nonpayable",
                "type": "function"
            }
        ],
        "devdoc": {
            "kind": "dev",
            "methods": {
                "sampleBuysFromLiquidityProviderGlobal(address,address,address)": {
                    "details": "Sample buy quotes from an arbitrary on-chain liquidity provider.",
                    "params": {
                        "makerToken": "Address of the maker token (what to buy).",
                        "providerAddress": "Address of the liquidity provider.",
                        "takerToken": "Address of the taker token (what to sell)."
                    },
                    "returns": {
                        "takerTokenAmounts": "Taker amounts sold at each maker token         amount."
                    }
                },
                "sampleSellsFromLiquidityProvider(address,address,address,uint256[])": {
                    "details": "Sample sell quotes from an arbitrary on-chain liquidity provider.",
                    "params": {
                        "makerToken": "Address of the maker token (what to buy).",
                        "providerAddress": "Address of the liquidity provider.",
                        "takerToken": "Address of the taker token (what to sell).",
                        "takerTokenAmounts": "Taker token sell amount for each sample."
                    },
                    "returns": {
                        "makerTokenAmounts": "Maker amounts bought at each taker token         amount."
                    }
                },
                "sampleSellsFromLiquidityProviderGlobal(address,address,address)": {
                    "details": "Sample sell quotes from an arbitrary on-chain liquidity provider.",
                    "params": {
                        "makerToken": "Address of the maker token (what to buy).",
                        "providerAddress": "Address of the liquidity provider.",
                        "takerToken": "Address of the taker token (what to sell)."
                    },
                    "returns": {
                        "makerTokenAmounts": "Maker amounts bought at each taker token         amount."
                    }
                }
            },
            "stateVariables": {
                "DEFAULT_CALL_GAS": {
                    "details": "Default gas limit for liquidity provider calls."
                }
            },
            "version": 1
        },
        "evm": {
            "bytecode": {
                "linkReferences": {},
                "object": "0x6000608081905260a0604081905261001891908161002b565b5034801561002557600080fd5b5061008b565b828054828255906000526020600020908101928215610066579160200282015b8281111561006657825182559160200191906001019061004b565b50610072929150610076565b5090565b5b808211156100725760008155600101610077565b610bdd8061009a6000396000f3fe608060405234801561001057600080fd5b506004361061004c5760003560e01c80638d23f45414610051578063a46984171461007a578063b494dde21461008d578063b9184dd1146100a0575b600080fd5b61006461005f36600461087a565b6100b5565b6040516100719190610b11565b60405180910390f35b6100646100883660046108c4565b61011b565b61006461009b36600461087a565b610287565b6100b36100ae366004610937565b610308565b005b6060610113848484600080548060200260200160405190810160405280929190818152602001828054801561010957602002820191906000526020600020905b8154815260200190600101908083116100f5575b505050505061031f565b949350505050565b80516060908067ffffffffffffffff8111801561013757600080fd5b50604051908082528060200260200182016040528015610161578160200160208202803683370190505b50915060005b8181101561027d57866001600160a01b031663343fbcdd62061a80888888868151811061019057fe5b60200260200101516040518563ffffffff1660e01b81526004016101b693929190610b24565b60206040518083038187803b1580156101ce57600080fd5b5086fa935050505080156101ff575060408051601f3d908101601f191682019092526101fc918101906109fa565b60015b610239573d80801561022d576040519150601f19603f3d011682016040523d82523d6000602084013e610232565b606091505b505061027d565b8084838151811061024657fe5b60200260200101818152505083828151811061025e57fe5b602002602001015160001415610274575061027d565b50600101610167565b5050949350505050565b60405163a469841760e01b8152606090309063a4698417906102b490879087908790600090600401610aa4565b60006040518083038186803b1580156102cc57600080fd5b505afa1580156102e0573d6000803e3d6000fd5b505050506040513d6000823e601f3d908101601f19168201604052610113919081019061096a565b805161031b906000906020840190610757565b5050565b604080516060818101909252610385908061033e868960808401610a4c565b60405160208183030381529060405281526020018688604051602001610365929190610a4c565b604051602081830303815290604052815260200161038e815250836104aa565b95945050505050565b6000806000858060200190518101906103a79190610841565b915091506000858060200190518101906103c19190610825565b90503063a469841762061a808486856103d98b6106be565b6040518663ffffffff1660e01b81526004016103f89493929190610a66565b60006040518083038187803b15801561041057600080fd5b5086fa9350505050801561044657506040513d6000823e601f3d908101601f19168201604052610443919081019061096a565b60015b610487573d808015610474576040519150601f19603f3d011682016040523d82523d6000602084013e610479565b606091505b5060009450505050506104a3565b8060008151811061049457fe5b60200260200101519450505050505b9392505050565b6060815167ffffffffffffffff811180156104c457600080fd5b506040519080825280602002602001820160405280156104ee578160200160208202803683370190505b509050815160001415610500576106b8565b6000610531846000015185602001518560008151811061051c57fe5b6020026020010151876040015163ffffffff16565b90508061053e57506106b8565b600061055b8560200151866000015184886040015163ffffffff16565b9050806105695750506106b8565b60005b84518110156106b4576000805b600581101561065d576105a087848151811061059157fe5b602002602001015185876106ff565b9450846105ac5761065d565b6105bb612715612710876106ff565b9450846105c75761065d565b60006105e489602001518a60000151888c6040015163ffffffff16565b9050806105f1575061065d565b80945087848151811061060057fe5b602002602001015185106106545787848151811061061a57fe5b602002602001015161271089868151811061063157fe5b60200260200101518703028161064357fe5b04925060058311610654575061065d565b50600101610579565b5080158061066b5750600581115b1561067657506106b4565b61069486838151811061068557fe5b602002602001015184866106ff565b8583815181106106a057fe5b60209081029190910101525060010161056c565b5050505b92915050565b6040805160018082528183019092526060916020808301908036833701905050905081816000815181106106ee57fe5b602002602001018181525050919050565b600083158061070c575081155b80610715575082155b15610722575060006104a3565b8382028285828161072f57fe5b041461073f5760009150506104a3565b836001850382018161074d57fe5b0495945050505050565b828054828255906000526020600020908101928215610792579160200282015b82811115610792578251825591602001919060010190610777565b5061079e9291506107a2565b5090565b5b8082111561079e57600081556001016107a3565b600082601f8301126107c7578081fd5b81356107da6107d582610b6f565b610b48565b8181529150602080830190848101818402860182018710156107fb57600080fd5b60005b8481101561081a578135845292820192908201906001016107fe565b505050505092915050565b600060208284031215610836578081fd5b81516104a381610b8f565b60008060408385031215610853578081fd5b825161085e81610b8f565b602084015190925061086f81610b8f565b809150509250929050565b60008060006060848603121561088e578081fd5b833561089981610b8f565b925060208401356108a981610b8f565b915060408401356108b981610b8f565b809150509250925092565b600080600080608085870312156108d9578081fd5b84356108e481610b8f565b935060208501356108f481610b8f565b9250604085013561090481610b8f565b9150606085013567ffffffffffffffff81111561091f578182fd5b61092b878288016107b7565b91505092959194509250565b600060208284031215610948578081fd5b813567ffffffffffffffff81111561095e578182fd5b610113848285016107b7565b6000602080838503121561097c578182fd5b825167ffffffffffffffff811115610992578283fd5b8301601f810185136109a2578283fd5b80516109b06107d582610b6f565b81815283810190838501858402850186018910156109cc578687fd5b8694505b838510156109ee5780518352600194909401939185019185016109d0565b50979650505050505050565b600060208284031215610a0b578081fd5b5051919050565b6000815180845260208085019450808401835b83811015610a4157815187529582019590820190600101610a25565b509495945050505050565b6001600160a01b0392831681529116602082015260400190565b6001600160a01b038581168252848116602083015283166040820152608060608201819052600090610a9a90830184610a12565b9695505050505050565b60006080820160018060a01b038088168452602081881681860152818716604086015260806060860152829150855480845260a0860192508685528185209350845b81811015610b0257845484526001948501949383019301610ae6565b50919998505050505050505050565b6000602082526104a36020830184610a12565b6001600160a01b039384168152919092166020820152604081019190915260600190565b60405181810167ffffffffffffffff81118282101715610b6757600080fd5b604052919050565b600067ffffffffffffffff821115610b85578081fd5b5060209081020190565b6001600160a01b0381168114610ba457600080fd5b5056fea2646970667358221220c3f2fffa2f45e0b7580a1682c5257e6cf53bd4d8d013ff3858f908243f8259cd64736f6c634300060c0033",
                "opcodes": "PUSH1 0x0 PUSH1 0x80 DUP2 SWAP1 MSTORE PUSH1 0xA0 PUSH1 0x40 DUP2 SWAP1 MSTORE PUSH2 0x18 SWAP2 SWAP1 DUP2 PUSH2 0x2B JUMP JUMPDEST POP CALLVALUE DUP1 ISZERO PUSH2 0x25 JUMPI PUSH1 0x0 DUP1 REVERT JUMPDEST POP PUSH2 0x8B JUMP JUMPDEST DUP3 DUP1 SLOAD DUP3 DUP3 SSTORE SWAP1 PUSH1 0x0 MSTORE PUSH1 0x20 PUSH1 0x0 KECCAK256 SWAP1 DUP2 ADD SWAP3 DUP3 ISZERO PUSH2 0x66 JUMPI SWAP2 PUSH1 0x20 MUL DUP3 ADD JUMPDEST DUP3 DUP2 GT ISZERO PUSH2 0x66 JUMPI DUP3 MLOAD DUP3 SSTORE SWAP2 PUSH1 0x20 ADD SWAP2 SWAP1 PUSH1 0x1 ADD SWAP1 PUSH2 0x4B JUMP JUMPDEST POP PUSH2 0x72 SWAP3 SWAP2 POP PUSH2 0x76 JUMP JUMPDEST POP SWAP1 JUMP JUMPDEST JUMPDEST DUP1 DUP3 GT ISZERO PUSH2 0x72 JUMPI PUSH1 0x0 DUP2 SSTORE PUSH1 0x1 ADD PUSH2 0x77 JUMP JUMPDEST PUSH2 0xBDD DUP1 PUSH2 0x9A PUSH1 0x0 CODECOPY PUSH1 0x0 RETURN INVALID PUSH1 0x80 PUSH1 0x40 MSTORE CALLVALUE DUP1 ISZERO PUSH2 0x10 JUMPI PUSH1 0x0 DUP1 REVERT JUMPDEST POP PUSH1 0x4 CALLDATASIZE LT PUSH2 0x4C JUMPI PUSH1 0x0 CALLDATALOAD PUSH1 0xE0 SHR DUP1 PUSH4 0x8D23F454 EQ PUSH2 0x51 JUMPI DUP1 PUSH4 0xA4698417 EQ PUSH2 0x7A JUMPI DUP1 PUSH4 0xB494DDE2 EQ PUSH2 0x8D JUMPI DUP1 PUSH4 0xB9184DD1 EQ PUSH2 0xA0 JUMPI JUMPDEST PUSH1 0x0 DUP1 REVERT JUMPDEST PUSH2 0x64 PUSH2 0x5F CALLDATASIZE PUSH1 0x4 PUSH2 0x87A JUMP JUMPDEST PUSH2 0xB5 JUMP JUMPDEST PUSH1 0x40 MLOAD PUSH2 0x71 SWAP2 SWAP1 PUSH2 0xB11 JUMP JUMPDEST PUSH1 0x40 MLOAD DUP1 SWAP2 SUB SWAP1 RETURN JUMPDEST PUSH2 0x64 PUSH2 0x88 CALLDATASIZE PUSH1 0x4 PUSH2 0x8C4 JUMP JUMPDEST PUSH2 0x11B JUMP JUMPDEST PUSH2 0x64 PUSH2 0x9B CALLDATASIZE PUSH1 0x4 PUSH2 0x87A JUMP JUMPDEST PUSH2 0x287 JUMP JUMPDEST PUSH2 0xB3 PUSH2 0xAE CALLDATASIZE PUSH1 0x4 PUSH2 0x937 JUMP JUMPDEST PUSH2 0x308 JUMP JUMPDEST STOP JUMPDEST PUSH1 0x60 PUSH2 0x113 DUP5 DUP5 DUP5 PUSH1 0x0 DUP1 SLOAD DUP1 PUSH1 0x20 MUL PUSH1 0x20 ADD PUSH1 0x40 MLOAD SWAP1 DUP2 ADD PUSH1 0x40 MSTORE DUP1 SWAP3 SWAP2 SWAP1 DUP2 DUP2 MSTORE PUSH1 0x20 ADD DUP3 DUP1 SLOAD DUP1 ISZERO PUSH2 0x109 JUMPI PUSH1 0x20 MUL DUP3 ADD SWAP2 SWAP1 PUSH1 0x0 MSTORE PUSH1 0x20 PUSH1 0x0 KECCAK256 SWAP1 JUMPDEST DUP2 SLOAD DUP2 MSTORE PUSH1 0x20 ADD SWAP1 PUSH1 0x1 ADD SWAP1 DUP1 DUP4 GT PUSH2 0xF5 JUMPI JUMPDEST POP POP POP POP POP PUSH2 0x31F JUMP JUMPDEST SWAP5 SWAP4 POP POP POP POP JUMP JUMPDEST DUP1 MLOAD PUSH1 0x60 SWAP1 DUP1 PUSH8 0xFFFFFFFFFFFFFFFF DUP2 GT DUP1 ISZERO PUSH2 0x137 JUMPI PUSH1 0x0 DUP1 REVERT JUMPDEST POP PUSH1 0x40 MLOAD SWAP1 DUP1 DUP3 MSTORE DUP1 PUSH1 0x20 MUL PUSH1 0x20 ADD DUP3 ADD PUSH1 0x40 MSTORE DUP1 ISZERO PUSH2 0x161 JUMPI DUP2 PUSH1 0x20 ADD PUSH1 0x20 DUP3 MUL DUP1 CALLDATASIZE DUP4 CALLDATACOPY ADD SWAP1 POP JUMPDEST POP SWAP2 POP PUSH1 0x0 JUMPDEST DUP2 DUP2 LT ISZERO PUSH2 0x27D JUMPI DUP7 PUSH1 0x1 PUSH1 0x1 PUSH1 0xA0 SHL SUB AND PUSH4 0x343FBCDD PUSH3 0x61A80 DUP9 DUP9 DUP9 DUP7 DUP2 MLOAD DUP2 LT PUSH2 0x190 JUMPI INVALID JUMPDEST PUSH1 0x20 MUL PUSH1 0x20 ADD ADD MLOAD PUSH1 0x40 MLOAD DUP6 PUSH4 0xFFFFFFFF AND PUSH1 0xE0 SHL DUP2 MSTORE PUSH1 0x4 ADD PUSH2 0x1B6 SWAP4 SWAP3 SWAP2 SWAP1 PUSH2 0xB24 JUMP JUMPDEST PUSH1 0x20 PUSH1 0x40 MLOAD DUP1 DUP4 SUB DUP2 DUP8 DUP1 EXTCODESIZE ISZERO DUP1 ISZERO PUSH2 0x1CE JUMPI PUSH1 0x0 DUP1 REVERT JUMPDEST POP DUP7 STATICCALL SWAP4 POP POP POP POP DUP1 ISZERO PUSH2 0x1FF JUMPI POP PUSH1 0x40 DUP1 MLOAD PUSH1 0x1F RETURNDATASIZE SWAP1 DUP2 ADD PUSH1 0x1F NOT AND DUP3 ADD SWAP1 SWAP3 MSTORE PUSH2 0x1FC SWAP2 DUP2 ADD SWAP1 PUSH2 0x9FA JUMP JUMPDEST PUSH1 0x1 JUMPDEST PUSH2 0x239 JUMPI RETURNDATASIZE DUP1 DUP1 ISZERO PUSH2 0x22D JUMPI PUSH1 0x40 MLOAD SWAP2 POP PUSH1 0x1F NOT PUSH1 0x3F RETURNDATASIZE ADD AND DUP3 ADD PUSH1 0x40 MSTORE RETURNDATASIZE DUP3 MSTORE RETURNDATASIZE PUSH1 0x0 PUSH1 0x20 DUP5 ADD RETURNDATACOPY PUSH2 0x232 JUMP JUMPDEST PUSH1 0x60 SWAP2 POP JUMPDEST POP POP PUSH2 0x27D JUMP JUMPDEST DUP1 DUP5 DUP4 DUP2 MLOAD DUP2 LT PUSH2 0x246 JUMPI INVALID JUMPDEST PUSH1 0x20 MUL PUSH1 0x20 ADD ADD DUP2 DUP2 MSTORE POP POP DUP4 DUP3 DUP2 MLOAD DUP2 LT PUSH2 0x25E JUMPI INVALID JUMPDEST PUSH1 0x20 MUL PUSH1 0x20 ADD ADD MLOAD PUSH1 0x0 EQ ISZERO PUSH2 0x274 JUMPI POP PUSH2 0x27D JUMP JUMPDEST POP PUSH1 0x1 ADD PUSH2 0x167 JUMP JUMPDEST POP POP SWAP5 SWAP4 POP POP POP POP JUMP JUMPDEST PUSH1 0x40 MLOAD PUSH4 0xA4698417 PUSH1 0xE0 SHL DUP2 MSTORE PUSH1 0x60 SWAP1 ADDRESS SWAP1 PUSH4 0xA4698417 SWAP1 PUSH2 0x2B4 SWAP1 DUP8 SWAP1 DUP8 SWAP1 DUP8 SWAP1 PUSH1 0x0 SWAP1 PUSH1 0x4 ADD PUSH2 0xAA4 JUMP JUMPDEST PUSH1 0x0 PUSH1 0x40 MLOAD DUP1 DUP4 SUB DUP2 DUP7 DUP1 EXTCODESIZE ISZERO DUP1 ISZERO PUSH2 0x2CC JUMPI PUSH1 0x0 DUP1 REVERT JUMPDEST POP GAS STATICCALL ISZERO DUP1 ISZERO PUSH2 0x2E0 JUMPI RETURNDATASIZE PUSH1 0x0 DUP1 RETURNDATACOPY RETURNDATASIZE PUSH1 0x0 REVERT JUMPDEST POP POP POP POP PUSH1 0x40 MLOAD RETURNDATASIZE PUSH1 0x0 DUP3 RETURNDATACOPY PUSH1 0x1F RETURNDATASIZE SWAP1 DUP2 ADD PUSH1 0x1F NOT AND DUP3 ADD PUSH1 0x40 MSTORE PUSH2 0x113 SWAP2 SWAP1 DUP2 ADD SWAP1 PUSH2 0x96A JUMP JUMPDEST DUP1 MLOAD PUSH2 0x31B SWAP1 PUSH1 0x0 SWAP1 PUSH1 0x20 DUP5 ADD SWAP1 PUSH2 0x757 JUMP JUMPDEST POP POP JUMP JUMPDEST PUSH1 0x40 DUP1 MLOAD PUSH1 0x60 DUP2 DUP2 ADD SWAP1 SWAP3 MSTORE PUSH2 0x385 SWAP1 DUP1 PUSH2 0x33E DUP7 DUP10 PUSH1 0x80 DUP5 ADD PUSH2 0xA4C JUMP JUMPDEST PUSH1 0x40 MLOAD PUSH1 0x20 DUP2 DUP4 SUB SUB DUP2 MSTORE SWAP1 PUSH1 0x40 MSTORE DUP2 MSTORE PUSH1 0x20 ADD DUP7 DUP9 PUSH1 0x40 MLOAD PUSH1 0x20 ADD PUSH2 0x365 SWAP3 SWAP2 SWAP1 PUSH2 0xA4C JUMP JUMPDEST PUSH1 0x40 MLOAD PUSH1 0x20 DUP2 DUP4 SUB SUB DUP2 MSTORE SWAP1 PUSH1 0x40 MSTORE DUP2 MSTORE PUSH1 0x20 ADD PUSH2 0x38E DUP2 MSTORE POP DUP4 PUSH2 0x4AA JUMP JUMPDEST SWAP6 SWAP5 POP POP POP POP POP JUMP JUMPDEST PUSH1 0x0 DUP1 PUSH1 0x0 DUP6 DUP1 PUSH1 0x20 ADD SWAP1 MLOAD DUP2 ADD SWAP1 PUSH2 0x3A7 SWAP2 SWAP1 PUSH2 0x841 JUMP JUMPDEST SWAP2 POP SWAP2 POP PUSH1 0x0 DUP6 DUP1 PUSH1 0x20 ADD SWAP1 MLOAD DUP2 ADD SWAP1 PUSH2 0x3C1 SWAP2 SWAP1 PUSH2 0x825 JUMP JUMPDEST SWAP1 POP ADDRESS PUSH4 0xA4698417 PUSH3 0x61A80 DUP5 DUP7 DUP6 PUSH2 0x3D9 DUP12 PUSH2 0x6BE JUMP JUMPDEST PUSH1 0x40 MLOAD DUP7 PUSH4 0xFFFFFFFF AND PUSH1 0xE0 SHL DUP2 MSTORE PUSH1 0x4 ADD PUSH2 0x3F8 SWAP5 SWAP4 SWAP3 SWAP2 SWAP1 PUSH2 0xA66 JUMP JUMPDEST PUSH1 0x0 PUSH1 0x40 MLOAD DUP1 DUP4 SUB DUP2 DUP8 DUP1 EXTCODESIZE ISZERO DUP1 ISZERO PUSH2 0x410 JUMPI PUSH1 0x0 DUP1 REVERT JUMPDEST POP DUP7 STATICCALL SWAP4 POP POP POP POP DUP1 ISZERO PUSH2 0x446 JUMPI POP PUSH1 0x40 MLOAD RETURNDATASIZE PUSH1 0x0 DUP3 RETURNDATACOPY PUSH1 0x1F RETURNDATASIZE SWAP1 DUP2 ADD PUSH1 0x1F NOT AND DUP3 ADD PUSH1 0x40 MSTORE PUSH2 0x443 SWAP2 SWAP1 DUP2 ADD SWAP1 PUSH2 0x96A JUMP JUMPDEST PUSH1 0x1 JUMPDEST PUSH2 0x487 JUMPI RETURNDATASIZE DUP1 DUP1 ISZERO PUSH2 0x474 JUMPI PUSH1 0x40 MLOAD SWAP2 POP PUSH1 0x1F NOT PUSH1 0x3F RETURNDATASIZE ADD AND DUP3 ADD PUSH1 0x40 MSTORE RETURNDATASIZE DUP3 MSTORE RETURNDATASIZE PUSH1 0x0 PUSH1 0x20 DUP5 ADD RETURNDATACOPY PUSH2 0x479 JUMP JUMPDEST PUSH1 0x60 SWAP2 POP JUMPDEST POP PUSH1 0x0 SWAP5 POP POP POP POP POP PUSH2 0x4A3 JUMP JUMPDEST DUP1 PUSH1 0x0 DUP2 MLOAD DUP2 LT PUSH2 0x494 JUMPI INVALID JUMPDEST PUSH1 0x20 MUL PUSH1 0x20 ADD ADD MLOAD SWAP5 POP POP POP POP POP JUMPDEST SWAP4 SWAP3 POP POP POP JUMP JUMPDEST PUSH1 0x60 DUP2 MLOAD PUSH8 0xFFFFFFFFFFFFFFFF DUP2 GT DUP1 ISZERO PUSH2 0x4C4 JUMPI PUSH1 0x0 DUP1 REVERT JUMPDEST POP PUSH1 0x40 MLOAD SWAP1 DUP1 DUP3 MSTORE DUP1 PUSH1 0x20 MUL PUSH1 0x20 ADD DUP3 ADD PUSH1 0x40 MSTORE DUP1 ISZERO PUSH2 0x4EE JUMPI DUP2 PUSH1 0x20 ADD PUSH1 0x20 DUP3 MUL DUP1 CALLDATASIZE DUP4 CALLDATACOPY ADD SWAP1 POP JUMPDEST POP SWAP1 POP DUP2 MLOAD PUSH1 0x0 EQ ISZERO PUSH2 0x500 JUMPI PUSH2 0x6B8 JUMP JUMPDEST PUSH1 0x0 PUSH2 0x531 DUP5 PUSH1 0x0 ADD MLOAD DUP6 PUSH1 0x20 ADD MLOAD DUP6 PUSH1 0x0 DUP2 MLOAD DUP2 LT PUSH2 0x51C JUMPI INVALID JUMPDEST PUSH1 0x20 MUL PUSH1 0x20 ADD ADD MLOAD DUP8 PUSH1 0x40 ADD MLOAD PUSH4 0xFFFFFFFF AND JUMP JUMPDEST SWAP1 POP DUP1 PUSH2 0x53E JUMPI POP PUSH2 0x6B8 JUMP JUMPDEST PUSH1 0x0 PUSH2 0x55B DUP6 PUSH1 0x20 ADD MLOAD DUP7 PUSH1 0x0 ADD MLOAD DUP5 DUP9 PUSH1 0x40 ADD MLOAD PUSH4 0xFFFFFFFF AND JUMP JUMPDEST SWAP1 POP DUP1 PUSH2 0x569 JUMPI POP POP PUSH2 0x6B8 JUMP JUMPDEST PUSH1 0x0 JUMPDEST DUP5 MLOAD DUP2 LT ISZERO PUSH2 0x6B4 JUMPI PUSH1 0x0 DUP1 JUMPDEST PUSH1 0x5 DUP2 LT ISZERO PUSH2 0x65D JUMPI PUSH2 0x5A0 DUP8 DUP5 DUP2 MLOAD DUP2 LT PUSH2 0x591 JUMPI INVALID JUMPDEST PUSH1 0x20 MUL PUSH1 0x20 ADD ADD MLOAD DUP6 DUP8 PUSH2 0x6FF JUMP JUMPDEST SWAP5 POP DUP5 PUSH2 0x5AC JUMPI PUSH2 0x65D JUMP JUMPDEST PUSH2 0x5BB PUSH2 0x2715 PUSH2 0x2710 DUP8 PUSH2 0x6FF JUMP JUMPDEST SWAP5 POP DUP5 PUSH2 0x5C7 JUMPI PUSH2 0x65D JUMP JUMPDEST PUSH1 0x0 PUSH2 0x5E4 DUP10 PUSH1 0x20 ADD MLOAD DUP11 PUSH1 0x0 ADD MLOAD DUP9 DUP13 PUSH1 0x40 ADD MLOAD PUSH4 0xFFFFFFFF AND JUMP JUMPDEST SWAP1 POP DUP1 PUSH2 0x5F1 JUMPI POP PUSH2 0x65D JUMP JUMPDEST DUP1 SWAP5 POP DUP8 DUP5 DUP2 MLOAD DUP2 LT PUSH2 0x600 JUMPI INVALID JUMPDEST PUSH1 0x20 MUL PUSH1 0x20 ADD ADD MLOAD DUP6 LT PUSH2 0x654 JUMPI DUP8 DUP5 DUP2 MLOAD DUP2 LT PUSH2 0x61A JUMPI INVALID JUMPDEST PUSH1 0x20 MUL PUSH1 0x20 ADD ADD MLOAD PUSH2 0x2710 DUP10 DUP7 DUP2 MLOAD DUP2 LT PUSH2 0x631 JUMPI INVALID JUMPDEST PUSH1 0x20 MUL PUSH1 0x20 ADD ADD MLOAD DUP8 SUB MUL DUP2 PUSH2 0x643 JUMPI INVALID JUMPDEST DIV SWAP3 POP PUSH1 0x5 DUP4 GT PUSH2 0x654 JUMPI POP PUSH2 0x65D JUMP JUMPDEST POP PUSH1 0x1 ADD PUSH2 0x579 JUMP JUMPDEST POP DUP1 ISZERO DUP1 PUSH2 0x66B JUMPI POP PUSH1 0x5 DUP2 GT JUMPDEST ISZERO PUSH2 0x676 JUMPI POP PUSH2 0x6B4 JUMP JUMPDEST PUSH2 0x694 DUP7 DUP4 DUP2 MLOAD DUP2 LT PUSH2 0x685 JUMPI INVALID JUMPDEST PUSH1 0x20 MUL PUSH1 0x20 ADD ADD MLOAD DUP5 DUP7 PUSH2 0x6FF JUMP JUMPDEST DUP6 DUP4 DUP2 MLOAD DUP2 LT PUSH2 0x6A0 JUMPI INVALID JUMPDEST PUSH1 0x20 SWAP1 DUP2 MUL SWAP2 SWAP1 SWAP2 ADD ADD MSTORE POP PUSH1 0x1 ADD PUSH2 0x56C JUMP JUMPDEST POP POP POP JUMPDEST SWAP3 SWAP2 POP POP JUMP JUMPDEST PUSH1 0x40 DUP1 MLOAD PUSH1 0x1 DUP1 DUP3 MSTORE DUP2 DUP4 ADD SWAP1 SWAP3 MSTORE PUSH1 0x60 SWAP2 PUSH1 0x20 DUP1 DUP4 ADD SWAP1 DUP1 CALLDATASIZE DUP4 CALLDATACOPY ADD SWAP1 POP POP SWAP1 POP DUP2 DUP2 PUSH1 0x0 DUP2 MLOAD DUP2 LT PUSH2 0x6EE JUMPI INVALID JUMPDEST PUSH1 0x20 MUL PUSH1 0x20 ADD ADD DUP2 DUP2 MSTORE POP POP SWAP2 SWAP1 POP JUMP JUMPDEST PUSH1 0x0 DUP4 ISZERO DUP1 PUSH2 0x70C JUMPI POP DUP2 ISZERO JUMPDEST DUP1 PUSH2 0x715 JUMPI POP DUP3 ISZERO JUMPDEST ISZERO PUSH2 0x722 JUMPI POP PUSH1 0x0 PUSH2 0x4A3 JUMP JUMPDEST DUP4 DUP3 MUL DUP3 DUP6 DUP3 DUP2 PUSH2 0x72F JUMPI INVALID JUMPDEST DIV EQ PUSH2 0x73F JUMPI PUSH1 0x0 SWAP2 POP POP PUSH2 0x4A3 JUMP JUMPDEST DUP4 PUSH1 0x1 DUP6 SUB DUP3 ADD DUP2 PUSH2 0x74D JUMPI INVALID JUMPDEST DIV SWAP6 SWAP5 POP POP POP POP POP JUMP JUMPDEST DUP3 DUP1 SLOAD DUP3 DUP3 SSTORE SWAP1 PUSH1 0x0 MSTORE PUSH1 0x20 PUSH1 0x0 KECCAK256 SWAP1 DUP2 ADD SWAP3 DUP3 ISZERO PUSH2 0x792 JUMPI SWAP2 PUSH1 0x20 MUL DUP3 ADD JUMPDEST DUP3 DUP2 GT ISZERO PUSH2 0x792 JUMPI DUP3 MLOAD DUP3 SSTORE SWAP2 PUSH1 0x20 ADD SWAP2 SWAP1 PUSH1 0x1 ADD SWAP1 PUSH2 0x777 JUMP JUMPDEST POP PUSH2 0x79E SWAP3 SWAP2 POP PUSH2 0x7A2 JUMP JUMPDEST POP SWAP1 JUMP JUMPDEST JUMPDEST DUP1 DUP3 GT ISZERO PUSH2 0x79E JUMPI PUSH1 0x0 DUP2 SSTORE PUSH1 0x1 ADD PUSH2 0x7A3 JUMP JUMPDEST PUSH1 0x0 DUP3 PUSH1 0x1F DUP4 ADD SLT PUSH2 0x7C7 JUMPI DUP1 DUP2 REVERT JUMPDEST DUP2 CALLDATALOAD PUSH2 0x7DA PUSH2 0x7D5 DUP3 PUSH2 0xB6F JUMP JUMPDEST PUSH2 0xB48 JUMP JUMPDEST DUP2 DUP2 MSTORE SWAP2 POP PUSH1 0x20 DUP1 DUP4 ADD SWAP1 DUP5 DUP2 ADD DUP2 DUP5 MUL DUP7 ADD DUP3 ADD DUP8 LT ISZERO PUSH2 0x7FB JUMPI PUSH1 0x0 DUP1 REVERT JUMPDEST PUSH1 0x0 JUMPDEST DUP5 DUP2 LT ISZERO PUSH2 0x81A JUMPI DUP2 CALLDATALOAD DUP5 MSTORE SWAP3 DUP3 ADD SWAP3 SWAP1 DUP3 ADD SWAP1 PUSH1 0x1 ADD PUSH2 0x7FE JUMP JUMPDEST POP POP POP POP POP SWAP3 SWAP2 POP POP JUMP JUMPDEST PUSH1 0x0 PUSH1 0x20 DUP3 DUP5 SUB SLT ISZERO PUSH2 0x836 JUMPI DUP1 DUP2 REVERT JUMPDEST DUP2 MLOAD PUSH2 0x4A3 DUP2 PUSH2 0xB8F JUMP JUMPDEST PUSH1 0x0 DUP1 PUSH1 0x40 DUP4 DUP6 SUB SLT ISZERO PUSH2 0x853 JUMPI DUP1 DUP2 REVERT JUMPDEST DUP3 MLOAD PUSH2 0x85E DUP2 PUSH2 0xB8F JUMP JUMPDEST PUSH1 0x20 DUP5 ADD MLOAD SWAP1 SWAP3 POP PUSH2 0x86F DUP2 PUSH2 0xB8F JUMP JUMPDEST DUP1 SWAP2 POP POP SWAP3 POP SWAP3 SWAP1 POP JUMP JUMPDEST PUSH1 0x0 DUP1 PUSH1 0x0 PUSH1 0x60 DUP5 DUP7 SUB SLT ISZERO PUSH2 0x88E JUMPI DUP1 DUP2 REVERT JUMPDEST DUP4 CALLDATALOAD PUSH2 0x899 DUP2 PUSH2 0xB8F JUMP JUMPDEST SWAP3 POP PUSH1 0x20 DUP5 ADD CALLDATALOAD PUSH2 0x8A9 DUP2 PUSH2 0xB8F JUMP JUMPDEST SWAP2 POP PUSH1 0x40 DUP5 ADD CALLDATALOAD PUSH2 0x8B9 DUP2 PUSH2 0xB8F JUMP JUMPDEST DUP1 SWAP2 POP POP SWAP3 POP SWAP3 POP SWAP3 JUMP JUMPDEST PUSH1 0x0 DUP1 PUSH1 0x0 DUP1 PUSH1 0x80 DUP6 DUP8 SUB SLT ISZERO PUSH2 0x8D9 JUMPI DUP1 DUP2 REVERT JUMPDEST DUP5 CALLDATALOAD PUSH2 0x8E4 DUP2 PUSH2 0xB8F JUMP JUMPDEST SWAP4 POP PUSH1 0x20 DUP6 ADD CALLDATALOAD PUSH2 0x8F4 DUP2 PUSH2 0xB8F JUMP JUMPDEST SWAP3 POP PUSH1 0x40 DUP6 ADD CALLDATALOAD PUSH2 0x904 DUP2 PUSH2 0xB8F JUMP JUMPDEST SWAP2 POP PUSH1 0x60 DUP6 ADD CALLDATALOAD PUSH8 0xFFFFFFFFFFFFFFFF DUP2 GT ISZERO PUSH2 0x91F JUMPI DUP2 DUP3 REVERT JUMPDEST PUSH2 0x92B DUP8 DUP3 DUP9 ADD PUSH2 0x7B7 JUMP JUMPDEST SWAP2 POP POP SWAP3 SWAP6 SWAP2 SWAP5 POP SWAP3 POP JUMP JUMPDEST PUSH1 0x0 PUSH1 0x20 DUP3 DUP5 SUB SLT ISZERO PUSH2 0x948 JUMPI DUP1 DUP2 REVERT JUMPDEST DUP2 CALLDATALOAD PUSH8 0xFFFFFFFFFFFFFFFF DUP2 GT ISZERO PUSH2 0x95E JUMPI DUP2 DUP3 REVERT JUMPDEST PUSH2 0x113 DUP5 DUP3 DUP6 ADD PUSH2 0x7B7 JUMP JUMPDEST PUSH1 0x0 PUSH1 0x20 DUP1 DUP4 DUP6 SUB SLT ISZERO PUSH2 0x97C JUMPI DUP2 DUP3 REVERT JUMPDEST DUP3 MLOAD PUSH8 0xFFFFFFFFFFFFFFFF DUP2 GT ISZERO PUSH2 0x992 JUMPI DUP3 DUP4 REVERT JUMPDEST DUP4 ADD PUSH1 0x1F DUP2 ADD DUP6 SGT PUSH2 0x9A2 JUMPI DUP3 DUP4 REVERT JUMPDEST DUP1 MLOAD PUSH2 0x9B0 PUSH2 0x7D5 DUP3 PUSH2 0xB6F JUMP JUMPDEST DUP2 DUP2 MSTORE DUP4 DUP2 ADD SWAP1 DUP4 DUP6 ADD DUP6 DUP5 MUL DUP6 ADD DUP7 ADD DUP10 LT ISZERO PUSH2 0x9CC JUMPI DUP7 DUP8 REVERT JUMPDEST DUP7 SWAP5 POP JUMPDEST DUP4 DUP6 LT ISZERO PUSH2 0x9EE JUMPI DUP1 MLOAD DUP4 MSTORE PUSH1 0x1 SWAP5 SWAP1 SWAP5 ADD SWAP4 SWAP2 DUP6 ADD SWAP2 DUP6 ADD PUSH2 0x9D0 JUMP JUMPDEST POP SWAP8 SWAP7 POP POP POP POP POP POP POP JUMP JUMPDEST PUSH1 0x0 PUSH1 0x20 DUP3 DUP5 SUB SLT ISZERO PUSH2 0xA0B JUMPI DUP1 DUP2 REVERT JUMPDEST POP MLOAD SWAP2 SWAP1 POP JUMP JUMPDEST PUSH1 0x0 DUP2 MLOAD DUP1 DUP5 MSTORE PUSH1 0x20 DUP1 DUP6 ADD SWAP5 POP DUP1 DUP5 ADD DUP4 JUMPDEST DUP4 DUP2 LT ISZERO PUSH2 0xA41 JUMPI DUP2 MLOAD DUP8 MSTORE SWAP6 DUP3 ADD SWAP6 SWAP1 DUP3 ADD SWAP1 PUSH1 0x1 ADD PUSH2 0xA25 JUMP JUMPDEST POP SWAP5 SWAP6 SWAP5 POP POP POP POP POP JUMP JUMPDEST PUSH1 0x1 PUSH1 0x1 PUSH1 0xA0 SHL SUB SWAP3 DUP4 AND DUP2 MSTORE SWAP2 AND PUSH1 0x20 DUP3 ADD MSTORE PUSH1 0x40 ADD SWAP1 JUMP JUMPDEST PUSH1 0x1 PUSH1 0x1 PUSH1 0xA0 SHL SUB DUP6 DUP2 AND DUP3 MSTORE DUP5 DUP2 AND PUSH1 0x20 DUP4 ADD MSTORE DUP4 AND PUSH1 0x40 DUP3 ADD MSTORE PUSH1 0x80 PUSH1 0x60 DUP3 ADD DUP2 SWAP1 MSTORE PUSH1 0x0 SWAP1 PUSH2 0xA9A SWAP1 DUP4 ADD DUP5 PUSH2 0xA12 JUMP JUMPDEST SWAP7 SWAP6 POP POP POP POP POP POP JUMP JUMPDEST PUSH1 0x0 PUSH1 0x80 DUP3 ADD PUSH1 0x1 DUP1 PUSH1 0xA0 SHL SUB DUP1 DUP9 AND DUP5 MSTORE PUSH1 0x20 DUP2 DUP9 AND DUP2 DUP7 ADD MSTORE DUP2 DUP8 AND PUSH1 0x40 DUP7 ADD MSTORE PUSH1 0x80 PUSH1 0x60 DUP7 ADD MSTORE DUP3 SWAP2 POP DUP6 SLOAD DUP1 DUP5 MSTORE PUSH1 0xA0 DUP7 ADD SWAP3 POP DUP7 DUP6 MSTORE DUP2 DUP6 KECCAK256 SWAP4 POP DUP5 JUMPDEST DUP2 DUP2 LT ISZERO PUSH2 0xB02 JUMPI DUP5 SLOAD DUP5 MSTORE PUSH1 0x1 SWAP5 DUP6 ADD SWAP5 SWAP4 DUP4 ADD SWAP4 ADD PUSH2 0xAE6 JUMP JUMPDEST POP SWAP2 SWAP10 SWAP9 POP POP POP POP POP POP POP POP POP JUMP JUMPDEST PUSH1 0x0 PUSH1 0x20 DUP3 MSTORE PUSH2 0x4A3 PUSH1 0x20 DUP4 ADD DUP5 PUSH2 0xA12 JUMP JUMPDEST PUSH1 0x1 PUSH1 0x1 PUSH1 0xA0 SHL SUB SWAP4 DUP5 AND DUP2 MSTORE SWAP2 SWAP1 SWAP3 AND PUSH1 0x20 DUP3 ADD MSTORE PUSH1 0x40 DUP2 ADD SWAP2 SWAP1 SWAP2 MSTORE PUSH1 0x60 ADD SWAP1 JUMP JUMPDEST PUSH1 0x40 MLOAD DUP2 DUP2 ADD PUSH8 0xFFFFFFFFFFFFFFFF DUP2 GT DUP3 DUP3 LT OR ISZERO PUSH2 0xB67 JUMPI PUSH1 0x0 DUP1 REVERT JUMPDEST PUSH1 0x40 MSTORE SWAP2 SWAP1 POP JUMP JUMPDEST PUSH1 0x0 PUSH8 0xFFFFFFFFFFFFFFFF DUP3 GT ISZERO PUSH2 0xB85 JUMPI DUP1 DUP2 REVERT JUMPDEST POP PUSH1 0x20 SWAP1 DUP2 MUL ADD SWAP1 JUMP JUMPDEST PUSH1 0x1 PUSH1 0x1 PUSH1 0xA0 SHL SUB DUP2 AND DUP2 EQ PUSH2 0xBA4 JUMPI PUSH1 0x0 DUP1 REVERT JUMPDEST POP JUMP INVALID LOG2 PUSH5 0x6970667358 0x22 SLT KECCAK256 0xC3 CALLCODE SELFDESTRUCT STATICCALL 0x2F GASLIMIT 0xE0 0xB7 PC EXP AND DUP3 0xC5 0x25 PUSH31 0x6CF53BD4D8D013FF3858F908243F8259CD64736F6C634300060C0033000000 "
            }
        }
    },
    "sourceTreeHashHex": "0x8753afb67d50c6aa479567e0b5de19404d7d21f33ccd7ab1b4b99901ba26bfb9",
    "compiler": {
        "name": "solc",
        "version": "0.6.12+commit.27d51765",
        "settings": {
            "remappings": [
                "@0x/contracts-utils=/Users/jacob/projects/ethdev/0x/workspace-remote/workspace/protocol/packages/asset-swapper/node_modules/@0x/contracts-utils",
                "@0x/contracts-erc20=/Users/jacob/projects/ethdev/0x/workspace-remote/workspace/protocol/packages/asset-swapper/node_modules/@0x/contracts-erc20",
                "@0x/contracts-zero-ex=/Users/jacob/projects/ethdev/0x/workspace-remote/workspace/protocol/packages/asset-swapper/node_modules/@0x/contracts-zero-ex"
            ],
            "optimizer": {
                "enabled": true,
                "runs": 200,
                "details": {
                    "yul": true,
                    "deduplicate": true
                }
            },
            "outputSelection": {
                "*": {
                    "*": [
                        "abi",
                        "devdoc",
                        "evm.bytecode.object",
                        "evm.bytecode.sourceMap",
                        "evm.deployedBytecode.object",
                        "evm.deployedBytecode.sourceMap"
                    ]
                }
            },
            "evmVersion": "istanbul"
        }
    },
    "chains": {}
}