{
    "schemaVersion": "2.0.0",
    "contractName": "LiquidityProviderSampler",
    "compilerOutput": {
        "abi": [
            {
                "inputs": [
                    {
                        "internalType": "address",
                        "name": "providerAddress",
                        "type": "address"
                    },
                    {
                        "internalType": "address",
                        "name": "takerToken",
                        "type": "address"
                    },
                    {
                        "internalType": "address",
                        "name": "makerToken",
                        "type": "address"
                    },
                    {
                        "internalType": "uint256[]",
                        "name": "makerTokenAmounts",
                        "type": "uint256[]"
                    }
                ],
                "name": "sampleBuysFromLiquidityProvider",
                "outputs": [
                    {
                        "internalType": "uint256[]",
                        "name": "takerTokenAmounts",
                        "type": "uint256[]"
                    }
                ],
                "stateMutability": "view",
                "type": "function"
            },
            {
                "inputs": [
                    {
                        "internalType": "address",
                        "name": "providerAddress",
                        "type": "address"
                    },
                    {
                        "internalType": "address",
                        "name": "takerToken",
                        "type": "address"
                    },
                    {
                        "internalType": "address",
                        "name": "makerToken",
                        "type": "address"
                    },
                    {
                        "internalType": "uint256[]",
                        "name": "takerTokenAmounts",
                        "type": "uint256[]"
                    }
                ],
                "name": "sampleSellsFromLiquidityProvider",
                "outputs": [
                    {
                        "internalType": "uint256[]",
                        "name": "makerTokenAmounts",
                        "type": "uint256[]"
                    }
                ],
                "stateMutability": "view",
                "type": "function"
            }
        ],
        "devdoc": {
            "kind": "dev",
            "methods": {
                "sampleBuysFromLiquidityProvider(address,address,address,uint256[])": {
                    "details": "Sample buy quotes from an arbitrary on-chain liquidity provider.",
                    "params": {
                        "makerToken": "Address of the maker token (what to buy).",
                        "makerTokenAmounts": "Maker token buy amount for each sample.",
                        "providerAddress": "Address of the liquidity provider.",
                        "takerToken": "Address of the taker token (what to sell)."
                    },
                    "returns": {
                        "takerTokenAmounts": "Taker amounts sold at each maker token         amount."
                    }
                },
                "sampleSellsFromLiquidityProvider(address,address,address,uint256[])": {
                    "details": "Sample sell quotes from an arbitrary on-chain liquidity provider.",
                    "params": {
                        "makerToken": "Address of the maker token (what to buy).",
                        "providerAddress": "Address of the liquidity provider.",
                        "takerToken": "Address of the taker token (what to sell).",
                        "takerTokenAmounts": "Taker token sell amount for each sample."
                    },
                    "returns": {
                        "makerTokenAmounts": "Maker amounts bought at each taker token         amount."
                    }
                }
            },
            "stateVariables": {
                "DEFAULT_CALL_GAS": {
                    "details": "Default gas limit for liquidity provider calls."
                }
            },
            "version": 1
        },
        "evm": {
            "bytecode": {
                "linkReferences": {},
                "object": "0x608060405234801561001057600080fd5b50610a40806100206000396000f3fe608060405234801561001057600080fd5b50600436106100365760003560e01c8063a46984171461003b578063c25c41381461006b575b600080fd5b61005560048036038101906100509190610722565b61009b565b604051610062919061095d565b60405180910390f35b61008560048036038101906100809190610722565b610224565b604051610092919061095d565b60405180910390f35b60606000825190508067ffffffffffffffff811180156100ba57600080fd5b506040519080825280602002602001820160405280156100e95781602001602082028036833780820191505090505b50915060005b8181101561021a578673ffffffffffffffffffffffffffffffffffffffff1663343fbcdd62061a80888888868151811061012557fe5b60200260200101516040518563ffffffff1660e01b815260040161014b93929190610978565b60206040518083038187803b15801561016357600080fd5b5086fa9350505050801561019557506040513d601f19601f82011682018060405250810190610192919061089f565b60015b6101d1573d80600081146101c5576040519150601f19603f3d011682016040523d82523d6000602084013e6101ca565b606091505b505061021a565b808483815181106101de57fe5b60200260200101818152505060008483815181106101f857fe5b6020026020010151141561020c575061021a565b5080806001019150506100ef565b5050949350505050565b606061028e604051806060016040528085886040516020016102479291906108fb565b6040516020818303038152906040528152602001868860405160200161026e9291906108fb565b6040516020818303038152906040528152602001610298815250836103cd565b9050949350505050565b6000806000858060200190518101906102b191906106e8565b915091506000858060200190518101906102cb91906106c2565b90503073ffffffffffffffffffffffffffffffffffffffff1663a469841762061a808486856102f98b6105f3565b6040518663ffffffff1660e01b8152600401610318949392919061091f565b60006040518083038187803b15801561033057600080fd5b5086fa9350505050801561036757506040513d6000823e3d601f19601f8201168201806040525081019061036491906107ff565b60015b6103aa573d8060008114610397576040519150601f19603f3d011682016040523d82523d6000602084013e61039c565b606091505b5060009450505050506103c6565b806000815181106103b757fe5b60200260200101519450505050505b9392505050565b6060815167ffffffffffffffff811180156103e757600080fd5b506040519080825280602002602001820160405280156104165781602001602082028036833780820191505090505b509050600082511415610428576105ed565b6000610459846000015185602001518560008151811061044457fe5b6020026020010151876040015163ffffffff16565b9050600081141561046a57506105ed565b60006104878560200151866000015184886040015163ffffffff16565b905060008114156104995750506105ed565b60005b84518110156105e95760005b60058110156105a5576104cf8683815181106104c057fe5b6020026020010151848661065e565b935060008414156104df576105a5565b6104f16005612710016127108661065e565b93506000841415610501576105a5565b600061051e88602001518960000151878b6040015163ffffffff16565b9050600081141561052f57506105a5565b80935086838151811061053e57fe5b6020026020010151841061059757600087848151811061055a57fe5b602002602001015161271089868151811061057157fe5b60200260200101518703028161058357fe5b049050600581116105955750506105a5565b505b5080806001019150506104a8565b506105c48582815181106105b557fe5b6020026020010151838561065e565b8482815181106105d057fe5b602002602001018181525050808060010191505061049c565b5050505b92915050565b6060600167ffffffffffffffff8111801561060d57600080fd5b5060405190808252806020026020018201604052801561063c5781602001602082028036833780820191505090505b509050818160008151811061064d57fe5b602002602001018181525050919050565b60008084148061066e5750600082145b806106795750600083145b1561068757600090506106bb565b600082850290508285828161069857fe5b04146106a85760009150506106bb565b83600185038201816106b657fe5b049150505b9392505050565b6000602082840312156106d3578081fd5b81516106de816109f3565b8091505092915050565b600080604083850312156106fa578081fd5b8251610705816109f3565b809250506020830151610717816109f3565b809150509250929050565b60008060008060808587031215610737578182fd5b8435610742816109f3565b80945050602080860135610755816109f3565b809450506040860135610767816109f3565b80935050606086013567ffffffffffffffff811115610784578283fd5b808701905087601f820112610797578283fd5b80356107aa6107a5826109d0565b6109a3565b8082825284820191508484018b8687860287010111156107c8578687fd5b8694505b838510156107ed5780358352858301925085810190506001850194506107cc565b50809550505050505092959194509250565b60006020808385031215610811578182fd5b825167ffffffffffffffff811115610827578283fd5b808401905084601f82011261083a578283fd5b805161084d610848826109d0565b6109a3565b8082825284820191508484018886878602870101111561086b578687fd5b8694505b8385101561089057805183528583019250858101905060018501945061086f565b50809550505050505092915050565b6000602082840312156108b0578081fd5b8151905092915050565b6000815180845260208085019450808401835b838110156108ee5781518752828701965082820191506001810190506108cd565b5050505082905092915050565b600060408201905060018060a01b0380851683528084166020840152509392505050565b600060018060a01b03808716835280861660208401528085166040840152506080606083015261095260808301846108ba565b905095945050505050565b60006020825261097060208301846108ba565b905092915050565b600060608201905060018060a01b038086168352808516602084015250826040830152949350505050565b6000604051905081810181811067ffffffffffffffff821117156109c657600080fd5b8060405250919050565b600067ffffffffffffffff8211156109e6578081fd5b6020808302019050919050565b60018060a01b0381168114610a0757600080fd5b5056fea2646970667358221220c49d4b977b62e4f5bd162fa759c8943a2698ca90696994bb01aefba01520ef2564736f6c634300060c0033",
                "opcodes": "PUSH1 0x80 PUSH1 0x40 MSTORE CALLVALUE DUP1 ISZERO PUSH2 0x10 JUMPI PUSH1 0x0 DUP1 REVERT JUMPDEST POP PUSH2 0xA40 DUP1 PUSH2 0x20 PUSH1 0x0 CODECOPY PUSH1 0x0 RETURN INVALID PUSH1 0x80 PUSH1 0x40 MSTORE CALLVALUE DUP1 ISZERO PUSH2 0x10 JUMPI PUSH1 0x0 DUP1 REVERT JUMPDEST POP PUSH1 0x4 CALLDATASIZE LT PUSH2 0x36 JUMPI PUSH1 0x0 CALLDATALOAD PUSH1 0xE0 SHR DUP1 PUSH4 0xA4698417 EQ PUSH2 0x3B JUMPI DUP1 PUSH4 0xC25C4138 EQ PUSH2 0x6B JUMPI JUMPDEST PUSH1 0x0 DUP1 REVERT JUMPDEST PUSH2 0x55 PUSH1 0x4 DUP1 CALLDATASIZE SUB DUP2 ADD SWAP1 PUSH2 0x50 SWAP2 SWAP1 PUSH2 0x722 JUMP JUMPDEST PUSH2 0x9B JUMP JUMPDEST PUSH1 0x40 MLOAD PUSH2 0x62 SWAP2 SWAP1 PUSH2 0x95D JUMP JUMPDEST PUSH1 0x40 MLOAD DUP1 SWAP2 SUB SWAP1 RETURN JUMPDEST PUSH2 0x85 PUSH1 0x4 DUP1 CALLDATASIZE SUB DUP2 ADD SWAP1 PUSH2 0x80 SWAP2 SWAP1 PUSH2 0x722 JUMP JUMPDEST PUSH2 0x224 JUMP JUMPDEST PUSH1 0x40 MLOAD PUSH2 0x92 SWAP2 SWAP1 PUSH2 0x95D JUMP JUMPDEST PUSH1 0x40 MLOAD DUP1 SWAP2 SUB SWAP1 RETURN JUMPDEST PUSH1 0x60 PUSH1 0x0 DUP3 MLOAD SWAP1 POP DUP1 PUSH8 0xFFFFFFFFFFFFFFFF DUP2 GT DUP1 ISZERO PUSH2 0xBA JUMPI PUSH1 0x0 DUP1 REVERT JUMPDEST POP PUSH1 0x40 MLOAD SWAP1 DUP1 DUP3 MSTORE DUP1 PUSH1 0x20 MUL PUSH1 0x20 ADD DUP3 ADD PUSH1 0x40 MSTORE DUP1 ISZERO PUSH2 0xE9 JUMPI DUP2 PUSH1 0x20 ADD PUSH1 0x20 DUP3 MUL DUP1 CALLDATASIZE DUP4 CALLDATACOPY DUP1 DUP3 ADD SWAP2 POP POP SWAP1 POP JUMPDEST POP SWAP2 POP PUSH1 0x0 JUMPDEST DUP2 DUP2 LT ISZERO PUSH2 0x21A JUMPI DUP7 PUSH20 0xFFFFFFFFFFFFFFFFFFFFFFFFFFFFFFFFFFFFFFFF AND PUSH4 0x343FBCDD PUSH3 0x61A80 DUP9 DUP9 DUP9 DUP7 DUP2 MLOAD DUP2 LT PUSH2 0x125 JUMPI INVALID JUMPDEST PUSH1 0x20 MUL PUSH1 0x20 ADD ADD MLOAD PUSH1 0x40 MLOAD DUP6 PUSH4 0xFFFFFFFF AND PUSH1 0xE0 SHL DUP2 MSTORE PUSH1 0x4 ADD PUSH2 0x14B SWAP4 SWAP3 SWAP2 SWAP1 PUSH2 0x978 JUMP JUMPDEST PUSH1 0x20 PUSH1 0x40 MLOAD DUP1 DUP4 SUB DUP2 DUP8 DUP1 EXTCODESIZE ISZERO DUP1 ISZERO PUSH2 0x163 JUMPI PUSH1 0x0 DUP1 REVERT JUMPDEST POP DUP7 STATICCALL SWAP4 POP POP POP POP DUP1 ISZERO PUSH2 0x195 JUMPI POP PUSH1 0x40 MLOAD RETURNDATASIZE PUSH1 0x1F NOT PUSH1 0x1F DUP3 ADD AND DUP3 ADD DUP1 PUSH1 0x40 MSTORE POP DUP2 ADD SWAP1 PUSH2 0x192 SWAP2 SWAP1 PUSH2 0x89F JUMP JUMPDEST PUSH1 0x1 JUMPDEST PUSH2 0x1D1 JUMPI RETURNDATASIZE DUP1 PUSH1 0x0 DUP2 EQ PUSH2 0x1C5 JUMPI PUSH1 0x40 MLOAD SWAP2 POP PUSH1 0x1F NOT PUSH1 0x3F RETURNDATASIZE ADD AND DUP3 ADD PUSH1 0x40 MSTORE RETURNDATASIZE DUP3 MSTORE RETURNDATASIZE PUSH1 0x0 PUSH1 0x20 DUP5 ADD RETURNDATACOPY PUSH2 0x1CA JUMP JUMPDEST PUSH1 0x60 SWAP2 POP JUMPDEST POP POP PUSH2 0x21A JUMP JUMPDEST DUP1 DUP5 DUP4 DUP2 MLOAD DUP2 LT PUSH2 0x1DE JUMPI INVALID JUMPDEST PUSH1 0x20 MUL PUSH1 0x20 ADD ADD DUP2 DUP2 MSTORE POP POP PUSH1 0x0 DUP5 DUP4 DUP2 MLOAD DUP2 LT PUSH2 0x1F8 JUMPI INVALID JUMPDEST PUSH1 0x20 MUL PUSH1 0x20 ADD ADD MLOAD EQ ISZERO PUSH2 0x20C JUMPI POP PUSH2 0x21A JUMP JUMPDEST POP DUP1 DUP1 PUSH1 0x1 ADD SWAP2 POP POP PUSH2 0xEF JUMP JUMPDEST POP POP SWAP5 SWAP4 POP POP POP POP JUMP JUMPDEST PUSH1 0x60 PUSH2 0x28E PUSH1 0x40 MLOAD DUP1 PUSH1 0x60 ADD PUSH1 0x40 MSTORE DUP1 DUP6 DUP9 PUSH1 0x40 MLOAD PUSH1 0x20 ADD PUSH2 0x247 SWAP3 SWAP2 SWAP1 PUSH2 0x8FB JUMP JUMPDEST PUSH1 0x40 MLOAD PUSH1 0x20 DUP2 DUP4 SUB SUB DUP2 MSTORE SWAP1 PUSH1 0x40 MSTORE DUP2 MSTORE PUSH1 0x20 ADD DUP7 DUP9 PUSH1 0x40 MLOAD PUSH1 0x20 ADD PUSH2 0x26E SWAP3 SWAP2 SWAP1 PUSH2 0x8FB JUMP JUMPDEST PUSH1 0x40 MLOAD PUSH1 0x20 DUP2 DUP4 SUB SUB DUP2 MSTORE SWAP1 PUSH1 0x40 MSTORE DUP2 MSTORE PUSH1 0x20 ADD PUSH2 0x298 DUP2 MSTORE POP DUP4 PUSH2 0x3CD JUMP JUMPDEST SWAP1 POP SWAP5 SWAP4 POP POP POP POP JUMP JUMPDEST PUSH1 0x0 DUP1 PUSH1 0x0 DUP6 DUP1 PUSH1 0x20 ADD SWAP1 MLOAD DUP2 ADD SWAP1 PUSH2 0x2B1 SWAP2 SWAP1 PUSH2 0x6E8 JUMP JUMPDEST SWAP2 POP SWAP2 POP PUSH1 0x0 DUP6 DUP1 PUSH1 0x20 ADD SWAP1 MLOAD DUP2 ADD SWAP1 PUSH2 0x2CB SWAP2 SWAP1 PUSH2 0x6C2 JUMP JUMPDEST SWAP1 POP ADDRESS PUSH20 0xFFFFFFFFFFFFFFFFFFFFFFFFFFFFFFFFFFFFFFFF AND PUSH4 0xA4698417 PUSH3 0x61A80 DUP5 DUP7 DUP6 PUSH2 0x2F9 DUP12 PUSH2 0x5F3 JUMP JUMPDEST PUSH1 0x40 MLOAD DUP7 PUSH4 0xFFFFFFFF AND PUSH1 0xE0 SHL DUP2 MSTORE PUSH1 0x4 ADD PUSH2 0x318 SWAP5 SWAP4 SWAP3 SWAP2 SWAP1 PUSH2 0x91F JUMP JUMPDEST PUSH1 0x0 PUSH1 0x40 MLOAD DUP1 DUP4 SUB DUP2 DUP8 DUP1 EXTCODESIZE ISZERO DUP1 ISZERO PUSH2 0x330 JUMPI PUSH1 0x0 DUP1 REVERT JUMPDEST POP DUP7 STATICCALL SWAP4 POP POP POP POP DUP1 ISZERO PUSH2 0x367 JUMPI POP PUSH1 0x40 MLOAD RETURNDATASIZE PUSH1 0x0 DUP3 RETURNDATACOPY RETURNDATASIZE PUSH1 0x1F NOT PUSH1 0x1F DUP3 ADD AND DUP3 ADD DUP1 PUSH1 0x40 MSTORE POP DUP2 ADD SWAP1 PUSH2 0x364 SWAP2 SWAP1 PUSH2 0x7FF JUMP JUMPDEST PUSH1 0x1 JUMPDEST PUSH2 0x3AA JUMPI RETURNDATASIZE DUP1 PUSH1 0x0 DUP2 EQ PUSH2 0x397 JUMPI PUSH1 0x40 MLOAD SWAP2 POP PUSH1 0x1F NOT PUSH1 0x3F RETURNDATASIZE ADD AND DUP3 ADD PUSH1 0x40 MSTORE RETURNDATASIZE DUP3 MSTORE RETURNDATASIZE PUSH1 0x0 PUSH1 0x20 DUP5 ADD RETURNDATACOPY PUSH2 0x39C JUMP JUMPDEST PUSH1 0x60 SWAP2 POP JUMPDEST POP PUSH1 0x0 SWAP5 POP POP POP POP POP PUSH2 0x3C6 JUMP JUMPDEST DUP1 PUSH1 0x0 DUP2 MLOAD DUP2 LT PUSH2 0x3B7 JUMPI INVALID JUMPDEST PUSH1 0x20 MUL PUSH1 0x20 ADD ADD MLOAD SWAP5 POP POP POP POP POP JUMPDEST SWAP4 SWAP3 POP POP POP JUMP JUMPDEST PUSH1 0x60 DUP2 MLOAD PUSH8 0xFFFFFFFFFFFFFFFF DUP2 GT DUP1 ISZERO PUSH2 0x3E7 JUMPI PUSH1 0x0 DUP1 REVERT JUMPDEST POP PUSH1 0x40 MLOAD SWAP1 DUP1 DUP3 MSTORE DUP1 PUSH1 0x20 MUL PUSH1 0x20 ADD DUP3 ADD PUSH1 0x40 MSTORE DUP1 ISZERO PUSH2 0x416 JUMPI DUP2 PUSH1 0x20 ADD PUSH1 0x20 DUP3 MUL DUP1 CALLDATASIZE DUP4 CALLDATACOPY DUP1 DUP3 ADD SWAP2 POP POP SWAP1 POP JUMPDEST POP SWAP1 POP PUSH1 0x0 DUP3 MLOAD EQ ISZERO PUSH2 0x428 JUMPI PUSH2 0x5ED JUMP JUMPDEST PUSH1 0x0 PUSH2 0x459 DUP5 PUSH1 0x0 ADD MLOAD DUP6 PUSH1 0x20 ADD MLOAD DUP6 PUSH1 0x0 DUP2 MLOAD DUP2 LT PUSH2 0x444 JUMPI INVALID JUMPDEST PUSH1 0x20 MUL PUSH1 0x20 ADD ADD MLOAD DUP8 PUSH1 0x40 ADD MLOAD PUSH4 0xFFFFFFFF AND JUMP JUMPDEST SWAP1 POP PUSH1 0x0 DUP2 EQ ISZERO PUSH2 0x46A JUMPI POP PUSH2 0x5ED JUMP JUMPDEST PUSH1 0x0 PUSH2 0x487 DUP6 PUSH1 0x20 ADD MLOAD DUP7 PUSH1 0x0 ADD MLOAD DUP5 DUP9 PUSH1 0x40 ADD MLOAD PUSH4 0xFFFFFFFF AND JUMP JUMPDEST SWAP1 POP PUSH1 0x0 DUP2 EQ ISZERO PUSH2 0x499 JUMPI POP POP PUSH2 0x5ED JUMP JUMPDEST PUSH1 0x0 JUMPDEST DUP5 MLOAD DUP2 LT ISZERO PUSH2 0x5E9 JUMPI PUSH1 0x0 JUMPDEST PUSH1 0x5 DUP2 LT ISZERO PUSH2 0x5A5 JUMPI PUSH2 0x4CF DUP7 DUP4 DUP2 MLOAD DUP2 LT PUSH2 0x4C0 JUMPI INVALID JUMPDEST PUSH1 0x20 MUL PUSH1 0x20 ADD ADD MLOAD DUP5 DUP7 PUSH2 0x65E JUMP JUMPDEST SWAP4 POP PUSH1 0x0 DUP5 EQ ISZERO PUSH2 0x4DF JUMPI PUSH2 0x5A5 JUMP JUMPDEST PUSH2 0x4F1 PUSH1 0x5 PUSH2 0x2710 ADD PUSH2 0x2710 DUP7 PUSH2 0x65E JUMP JUMPDEST SWAP4 POP PUSH1 0x0 DUP5 EQ ISZERO PUSH2 0x501 JUMPI PUSH2 0x5A5 JUMP JUMPDEST PUSH1 0x0 PUSH2 0x51E DUP9 PUSH1 0x20 ADD MLOAD DUP10 PUSH1 0x0 ADD MLOAD DUP8 DUP12 PUSH1 0x40 ADD MLOAD PUSH4 0xFFFFFFFF AND JUMP JUMPDEST SWAP1 POP PUSH1 0x0 DUP2 EQ ISZERO PUSH2 0x52F JUMPI POP PUSH2 0x5A5 JUMP JUMPDEST DUP1 SWAP4 POP DUP7 DUP4 DUP2 MLOAD DUP2 LT PUSH2 0x53E JUMPI INVALID JUMPDEST PUSH1 0x20 MUL PUSH1 0x20 ADD ADD MLOAD DUP5 LT PUSH2 0x597 JUMPI PUSH1 0x0 DUP8 DUP5 DUP2 MLOAD DUP2 LT PUSH2 0x55A JUMPI INVALID JUMPDEST PUSH1 0x20 MUL PUSH1 0x20 ADD ADD MLOAD PUSH2 0x2710 DUP10 DUP7 DUP2 MLOAD DUP2 LT PUSH2 0x571 JUMPI INVALID JUMPDEST PUSH1 0x20 MUL PUSH1 0x20 ADD ADD MLOAD DUP8 SUB MUL DUP2 PUSH2 0x583 JUMPI INVALID JUMPDEST DIV SWAP1 POP PUSH1 0x5 DUP2 GT PUSH2 0x595 JUMPI POP POP PUSH2 0x5A5 JUMP JUMPDEST POP JUMPDEST POP DUP1 DUP1 PUSH1 0x1 ADD SWAP2 POP POP PUSH2 0x4A8 JUMP JUMPDEST POP PUSH2 0x5C4 DUP6 DUP3 DUP2 MLOAD DUP2 LT PUSH2 0x5B5 JUMPI INVALID JUMPDEST PUSH1 0x20 MUL PUSH1 0x20 ADD ADD MLOAD DUP4 DUP6 PUSH2 0x65E JUMP JUMPDEST DUP5 DUP3 DUP2 MLOAD DUP2 LT PUSH2 0x5D0 JUMPI INVALID JUMPDEST PUSH1 0x20 MUL PUSH1 0x20 ADD ADD DUP2 DUP2 MSTORE POP POP DUP1 DUP1 PUSH1 0x1 ADD SWAP2 POP POP PUSH2 0x49C JUMP JUMPDEST POP POP POP JUMPDEST SWAP3 SWAP2 POP POP JUMP JUMPDEST PUSH1 0x60 PUSH1 0x1 PUSH8 0xFFFFFFFFFFFFFFFF DUP2 GT DUP1 ISZERO PUSH2 0x60D JUMPI PUSH1 0x0 DUP1 REVERT JUMPDEST POP PUSH1 0x40 MLOAD SWAP1 DUP1 DUP3 MSTORE DUP1 PUSH1 0x20 MUL PUSH1 0x20 ADD DUP3 ADD PUSH1 0x40 MSTORE DUP1 ISZERO PUSH2 0x63C JUMPI DUP2 PUSH1 0x20 ADD PUSH1 0x20 DUP3 MUL DUP1 CALLDATASIZE DUP4 CALLDATACOPY DUP1 DUP3 ADD SWAP2 POP POP SWAP1 POP JUMPDEST POP SWAP1 POP DUP2 DUP2 PUSH1 0x0 DUP2 MLOAD DUP2 LT PUSH2 0x64D JUMPI INVALID JUMPDEST PUSH1 0x20 MUL PUSH1 0x20 ADD ADD DUP2 DUP2 MSTORE POP POP SWAP2 SWAP1 POP JUMP JUMPDEST PUSH1 0x0 DUP1 DUP5 EQ DUP1 PUSH2 0x66E JUMPI POP PUSH1 0x0 DUP3 EQ JUMPDEST DUP1 PUSH2 0x679 JUMPI POP PUSH1 0x0 DUP4 EQ JUMPDEST ISZERO PUSH2 0x687 JUMPI PUSH1 0x0 SWAP1 POP PUSH2 0x6BB JUMP JUMPDEST PUSH1 0x0 DUP3 DUP6 MUL SWAP1 POP DUP3 DUP6 DUP3 DUP2 PUSH2 0x698 JUMPI INVALID JUMPDEST DIV EQ PUSH2 0x6A8 JUMPI PUSH1 0x0 SWAP2 POP POP PUSH2 0x6BB JUMP JUMPDEST DUP4 PUSH1 0x1 DUP6 SUB DUP3 ADD DUP2 PUSH2 0x6B6 JUMPI INVALID JUMPDEST DIV SWAP2 POP POP JUMPDEST SWAP4 SWAP3 POP POP POP JUMP JUMPDEST PUSH1 0x0 PUSH1 0x20 DUP3 DUP5 SUB SLT ISZERO PUSH2 0x6D3 JUMPI DUP1 DUP2 REVERT JUMPDEST DUP2 MLOAD PUSH2 0x6DE DUP2 PUSH2 0x9F3 JUMP JUMPDEST DUP1 SWAP2 POP POP SWAP3 SWAP2 POP POP JUMP JUMPDEST PUSH1 0x0 DUP1 PUSH1 0x40 DUP4 DUP6 SUB SLT ISZERO PUSH2 0x6FA JUMPI DUP1 DUP2 REVERT JUMPDEST DUP3 MLOAD PUSH2 0x705 DUP2 PUSH2 0x9F3 JUMP JUMPDEST DUP1 SWAP3 POP POP PUSH1 0x20 DUP4 ADD MLOAD PUSH2 0x717 DUP2 PUSH2 0x9F3 JUMP JUMPDEST DUP1 SWAP2 POP POP SWAP3 POP SWAP3 SWAP1 POP JUMP JUMPDEST PUSH1 0x0 DUP1 PUSH1 0x0 DUP1 PUSH1 0x80 DUP6 DUP8 SUB SLT ISZERO PUSH2 0x737 JUMPI DUP2 DUP3 REVERT JUMPDEST DUP5 CALLDATALOAD PUSH2 0x742 DUP2 PUSH2 0x9F3 JUMP JUMPDEST DUP1 SWAP5 POP POP PUSH1 0x20 DUP1 DUP7 ADD CALLDATALOAD PUSH2 0x755 DUP2 PUSH2 0x9F3 JUMP JUMPDEST DUP1 SWAP5 POP POP PUSH1 0x40 DUP7 ADD CALLDATALOAD PUSH2 0x767 DUP2 PUSH2 0x9F3 JUMP JUMPDEST DUP1 SWAP4 POP POP PUSH1 0x60 DUP7 ADD CALLDATALOAD PUSH8 0xFFFFFFFFFFFFFFFF DUP2 GT ISZERO PUSH2 0x784 JUMPI DUP3 DUP4 REVERT JUMPDEST DUP1 DUP8 ADD SWAP1 POP DUP8 PUSH1 0x1F DUP3 ADD SLT PUSH2 0x797 JUMPI DUP3 DUP4 REVERT JUMPDEST DUP1 CALLDATALOAD PUSH2 0x7AA PUSH2 0x7A5 DUP3 PUSH2 0x9D0 JUMP JUMPDEST PUSH2 0x9A3 JUMP JUMPDEST DUP1 DUP3 DUP3 MSTORE DUP5 DUP3 ADD SWAP2 POP DUP5 DUP5 ADD DUP12 DUP7 DUP8 DUP7 MUL DUP8 ADD ADD GT ISZERO PUSH2 0x7C8 JUMPI DUP7 DUP8 REVERT JUMPDEST DUP7 SWAP5 POP JUMPDEST DUP4 DUP6 LT ISZERO PUSH2 0x7ED JUMPI DUP1 CALLDATALOAD DUP4 MSTORE DUP6 DUP4 ADD SWAP3 POP DUP6 DUP2 ADD SWAP1 POP PUSH1 0x1 DUP6 ADD SWAP5 POP PUSH2 0x7CC JUMP JUMPDEST POP DUP1 SWAP6 POP POP POP POP POP POP SWAP3 SWAP6 SWAP2 SWAP5 POP SWAP3 POP JUMP JUMPDEST PUSH1 0x0 PUSH1 0x20 DUP1 DUP4 DUP6 SUB SLT ISZERO PUSH2 0x811 JUMPI DUP2 DUP3 REVERT JUMPDEST DUP3 MLOAD PUSH8 0xFFFFFFFFFFFFFFFF DUP2 GT ISZERO PUSH2 0x827 JUMPI DUP3 DUP4 REVERT JUMPDEST DUP1 DUP5 ADD SWAP1 POP DUP5 PUSH1 0x1F DUP3 ADD SLT PUSH2 0x83A JUMPI DUP3 DUP4 REVERT JUMPDEST DUP1 MLOAD PUSH2 0x84D PUSH2 0x848 DUP3 PUSH2 0x9D0 JUMP JUMPDEST PUSH2 0x9A3 JUMP JUMPDEST DUP1 DUP3 DUP3 MSTORE DUP5 DUP3 ADD SWAP2 POP DUP5 DUP5 ADD DUP9 DUP7 DUP8 DUP7 MUL DUP8 ADD ADD GT ISZERO PUSH2 0x86B JUMPI DUP7 DUP8 REVERT JUMPDEST DUP7 SWAP5 POP JUMPDEST DUP4 DUP6 LT ISZERO PUSH2 0x890 JUMPI DUP1 MLOAD DUP4 MSTORE DUP6 DUP4 ADD SWAP3 POP DUP6 DUP2 ADD SWAP1 POP PUSH1 0x1 DUP6 ADD SWAP5 POP PUSH2 0x86F JUMP JUMPDEST POP DUP1 SWAP6 POP POP POP POP POP POP SWAP3 SWAP2 POP POP JUMP JUMPDEST PUSH1 0x0 PUSH1 0x20 DUP3 DUP5 SUB SLT ISZERO PUSH2 0x8B0 JUMPI DUP1 DUP2 REVERT JUMPDEST DUP2 MLOAD SWAP1 POP SWAP3 SWAP2 POP POP JUMP JUMPDEST PUSH1 0x0 DUP2 MLOAD DUP1 DUP5 MSTORE PUSH1 0x20 DUP1 DUP6 ADD SWAP5 POP DUP1 DUP5 ADD DUP4 JUMPDEST DUP4 DUP2 LT ISZERO PUSH2 0x8EE JUMPI DUP2 MLOAD DUP8 MSTORE DUP3 DUP8 ADD SWAP7 POP DUP3 DUP3 ADD SWAP2 POP PUSH1 0x1 DUP2 ADD SWAP1 POP PUSH2 0x8CD JUMP JUMPDEST POP POP POP POP DUP3 SWAP1 POP SWAP3 SWAP2 POP POP JUMP JUMPDEST PUSH1 0x0 PUSH1 0x40 DUP3 ADD SWAP1 POP PUSH1 0x1 DUP1 PUSH1 0xA0 SHL SUB DUP1 DUP6 AND DUP4 MSTORE DUP1 DUP5 AND PUSH1 0x20 DUP5 ADD MSTORE POP SWAP4 SWAP3 POP POP POP JUMP JUMPDEST PUSH1 0x0 PUSH1 0x1 DUP1 PUSH1 0xA0 SHL SUB DUP1 DUP8 AND DUP4 MSTORE DUP1 DUP7 AND PUSH1 0x20 DUP5 ADD MSTORE DUP1 DUP6 AND PUSH1 0x40 DUP5 ADD MSTORE POP PUSH1 0x80 PUSH1 0x60 DUP4 ADD MSTORE PUSH2 0x952 PUSH1 0x80 DUP4 ADD DUP5 PUSH2 0x8BA JUMP JUMPDEST SWAP1 POP SWAP6 SWAP5 POP POP POP POP POP JUMP JUMPDEST PUSH1 0x0 PUSH1 0x20 DUP3 MSTORE PUSH2 0x970 PUSH1 0x20 DUP4 ADD DUP5 PUSH2 0x8BA JUMP JUMPDEST SWAP1 POP SWAP3 SWAP2 POP POP JUMP JUMPDEST PUSH1 0x0 PUSH1 0x60 DUP3 ADD SWAP1 POP PUSH1 0x1 DUP1 PUSH1 0xA0 SHL SUB DUP1 DUP7 AND DUP4 MSTORE DUP1 DUP6 AND PUSH1 0x20 DUP5 ADD MSTORE POP DUP3 PUSH1 0x40 DUP4 ADD MSTORE SWAP5 SWAP4 POP POP POP POP JUMP JUMPDEST PUSH1 0x0 PUSH1 0x40 MLOAD SWAP1 POP DUP2 DUP2 ADD DUP2 DUP2 LT PUSH8 0xFFFFFFFFFFFFFFFF DUP3 GT OR ISZERO PUSH2 0x9C6 JUMPI PUSH1 0x0 DUP1 REVERT JUMPDEST DUP1 PUSH1 0x40 MSTORE POP SWAP2 SWAP1 POP JUMP JUMPDEST PUSH1 0x0 PUSH8 0xFFFFFFFFFFFFFFFF DUP3 GT ISZERO PUSH2 0x9E6 JUMPI DUP1 DUP2 REVERT JUMPDEST PUSH1 0x20 DUP1 DUP4 MUL ADD SWAP1 POP SWAP2 SWAP1 POP JUMP JUMPDEST PUSH1 0x1 DUP1 PUSH1 0xA0 SHL SUB DUP2 AND DUP2 EQ PUSH2 0xA07 JUMPI PUSH1 0x0 DUP1 REVERT JUMPDEST POP JUMP INVALID LOG2 PUSH5 0x6970667358 0x22 SLT KECCAK256 0xC4 SWAP14 0x4B SWAP8 PUSH28 0x62E4F5BD162FA759C8943A2698CA90696994BB01AEFBA01520EF2564 PUSH20 0x6F6C634300060C00330000000000000000000000 "
            }
        }
    },
    "sourceTreeHashHex": "0x2b5de272f3f7ebbd6907f2b9a7a4cda9803d751dc372638a584a7c1417699bd2",
    "compiler": {
        "name": "solc",
        "version": "0.6.12+commit.27d51765",
        "settings": {
            "remappings": [
                "@0x/contracts-utils=/Users/kim/Development/protocol/packages/asset-swapper/node_modules/@0x/contracts-utils",
                "@0x/contracts-erc20=/Users/kim/Development/protocol/packages/asset-swapper/node_modules/@0x/contracts-erc20",
                "@0x/contracts-zero-ex=/Users/kim/Development/protocol/packages/asset-swapper/node_modules/@0x/contracts-zero-ex"
            ],
            "optimizer": {
                "enabled": false,
                "runs": 200,
                "details": {
                    "yul": true
                }
            },
            "outputSelection": {
                "*": {
                    "*": [
                        "abi",
                        "devdoc",
                        "evm.bytecode.object",
                        "evm.bytecode.sourceMap",
                        "evm.deployedBytecode.object",
                        "evm.deployedBytecode.sourceMap"
                    ]
                }
            },
            "evmVersion": "istanbul"
        }
    },
    "chains": {}
}