{
    "schemaVersion": "2.0.0",
    "contractName": "MooniswapSampler",
    "compilerOutput": {
        "abi": [
            {
                "constant": true,
                "inputs": [
                    {
                        "internalType": "address",
                        "name": "takerToken",
                        "type": "address"
                    },
                    {
                        "internalType": "address",
                        "name": "makerToken",
                        "type": "address"
                    },
                    {
                        "internalType": "uint256[]",
                        "name": "makerTokenAmounts",
                        "type": "uint256[]"
                    }
                ],
                "name": "sampleBuysFromMooniswap",
                "outputs": [
                    {
                        "internalType": "uint256[]",
                        "name": "takerTokenAmounts",
                        "type": "uint256[]"
                    }
                ],
                "payable": false,
                "stateMutability": "view",
                "type": "function"
            },
            {
                "constant": true,
                "inputs": [
                    {
                        "internalType": "address",
                        "name": "takerToken",
                        "type": "address"
                    },
                    {
                        "internalType": "address",
                        "name": "makerToken",
                        "type": "address"
                    },
                    {
                        "internalType": "uint256[]",
                        "name": "takerTokenAmounts",
                        "type": "uint256[]"
                    }
                ],
                "name": "sampleSellsFromMooniswap",
                "outputs": [
                    {
                        "internalType": "uint256[]",
                        "name": "makerTokenAmounts",
                        "type": "uint256[]"
                    }
                ],
                "payable": false,
                "stateMutability": "view",
                "type": "function"
            }
        ],
        "devdoc": {
            "methods": {
                "sampleBuysFromMooniswap(address,address,uint256[])": {
                    "details": "Sample buy quotes from Mooniswap.",
                    "params": {
                        "makerToken": "Address of the maker token (what to buy).",
                        "makerTokenAmounts": "Maker token sell amount for each sample.",
                        "takerToken": "Address of the taker token (what to sell)."
                    },
                    "return": "takerTokenAmounts Taker amounts sold at each maker token         amount."
                },
                "sampleSellsFromMooniswap(address,address,uint256[])": {
                    "details": "Sample sell quotes from Mooniswap.",
                    "params": {
                        "makerToken": "Address of the maker token (what to buy).",
                        "takerToken": "Address of the taker token (what to sell).",
                        "takerTokenAmounts": "Taker token sell amount for each sample."
                    },
                    "return": "makerTokenAmounts Maker amounts bought at each taker token         amount."
                }
            }
        },
        "evm": {
            "bytecode": {
                "linkReferences": {},
                "object": "0x608060405234801561001057600080fd5b50610ecc806100206000396000f3fe608060405234801561001057600080fd5b50600436106100365760003560e01c806367b881e71461003b578063cdb3b4af14610064575b600080fd5b61004e610049366004610af2565b610077565b60405161005b9190610d8b565b60405180910390f35b61004e610072366004610af2565b6100e7565b60606100dd6040518060600160405280856040516020016100989190610cd0565b6040516020818303038152906040528152602001866040516020016100bd9190610cd0565b604051602081830303815290604052815260200161050a81525083610693565b90505b9392505050565b60606100f38385610868565b815160408051828152602080840282010190915281801561011e578160200160208202803883390190505b509150600061012b6108db565b73ffffffffffffffffffffffffffffffffffffffff168673ffffffffffffffffffffffffffffffffffffffff16146101635785610166565b60005b905060006101726108db565b73ffffffffffffffffffffffffffffffffffffffff168673ffffffffffffffffffffffffffffffffffffffff16146101aa57856101ad565b60005b905060006101b96108f3565b73ffffffffffffffffffffffffffffffffffffffff1663901754d784846040518363ffffffff1660e01b81526004016101f3929190610cf1565b60206040518083038186803b15801561020b57600080fd5b505afa15801561021f573d6000803e3d6000fd5b505050506040513d601f19601f820116820180604052506102439190810190610ad6565b905073ffffffffffffffffffffffffffffffffffffffff811661026a57506100e092505050565b600073ffffffffffffffffffffffffffffffffffffffff84161561032f576040517f70a0823100000000000000000000000000000000000000000000000000000000815273ffffffffffffffffffffffffffffffffffffffff8516906370a08231906102da908590600401610cd0565b60206040518083038186803b1580156102f257600080fd5b505afa158015610306573d6000803e3d6000fd5b505050506040513d601f19601f8201168201806040525061032a9190810190610c44565b610348565b8173ffffffffffffffffffffffffffffffffffffffff16315b905060005b858110156104fd5787818151811061036157fe5b6020026020010151821015610375576104fd565b600060608473ffffffffffffffffffffffffffffffffffffffff16620249f0600073ffffffffffffffffffffffffffffffffffffffff16631e1401f8905060e01b89898e88815181106103c457fe5b60200260200101516040516024016103de93929190610d5a565b604080517fffffffffffffffffffffffffffffffffffffffffffffffffffffffffffffffe08184030181529181526020820180517bffffffffffffffffffffffffffffffffffffffffffffffffffffffff167fffffffff000000000000000000000000000000000000000000000000000000009094169390931790925290516104679190610c97565b6000604051808303818686fa925050503d80600081146104a3576040519150601f19603f3d011682016040523d82523d6000602084013e6104a8565b606091505b509092509050600082156104cd57818060200190516104ca9190810190610c44565b90505b806104da575050506104fd565b808a85815181106104e757fe5b602090810291909101015250505060010161034d565b5050505050509392505050565b600080848060200190516105219190810190610ad6565b90506000848060200190516105399190810190610ad6565b905060006060307fcdb3b4af00000000000000000000000000000000000000000000000000000000858561056c8a61090b565b60405160240161057e93929190610d18565b604080517fffffffffffffffffffffffffffffffffffffffffffffffffffffffffffffffe08184030181529181526020820180517bffffffffffffffffffffffffffffffffffffffffffffffffffffffff167fffffffff000000000000000000000000000000000000000000000000000000009094169390931790925290516106079190610c97565b600060405180830381855afa9150503d8060008114610642576040519150601f19603f3d011682016040523d82523d6000602084013e610647565b606091505b50915091508161065e5760009450505050506100e0565b808060200190516106729190810190610bb1565b60008151811061067e57fe5b60200260200101519450505050509392505050565b606081516040519080825280602002602001820160405280156106c0578160200160208202803883390190505b5090508151600014156106d257610862565b600061070384600001518560200151856000815181106106ee57fe5b6020026020010151876040015163ffffffff16565b9050806107105750610862565b600061072d8560200151866000015184886040015163ffffffff16565b90508061073c57506108629050565b60005b845181101561085e5760005b60058110156108205761077286838151811061076357fe5b6020026020010151848661094c565b93506107836127156127108661094c565b935060006107a288602001518960000151878b6040015163ffffffff16565b9050806107af5750610820565b8093508683815181106107be57fe5b602002602001015184106108175760008784815181106107da57fe5b60200260200101516127108986815181106107f157fe5b60200260200101518703028161080357fe5b04905060058111610815575050610820565b505b5060010161074b565b5061083f85828151811061083057fe5b6020026020010151838561094c565b84828151811061084b57fe5b602090810291909101015260010161073f565b5050505b92915050565b8073ffffffffffffffffffffffffffffffffffffffff168273ffffffffffffffffffffffffffffffffffffffff1614156108d7576040517f08c379a00000000000000000000000000000000000000000000000000000000081526004016108ce90610dc0565b60405180910390fd5b5050565b73c02aaa39b223fe8d0a0e5c4f27ead9083c756cc290565b7371cd6666064c3a1354a3b4dca5fa1e2d3ee7d30390565b60408051600180825281830190925260609160208083019080388339019050509050818160008151811061093b57fe5b602002602001018181525050919050565b60006100dd8361098261096682600163ffffffff61098e16565b610976888763ffffffff6109b216565b9063ffffffff6109e316565b9063ffffffff6109ff16565b6000828211156109ac576109ac6109a760028585610a29565b610ace565b50900390565b6000826109c157506000610862565b828202828482816109ce57fe5b04146100e0576100e06109a760018686610a29565b6000828201838110156100e0576100e06109a760008686610a29565b600081610a1557610a156109a760038585610a29565b6000828481610a2057fe5b04949350505050565b606063e946c1bb60e01b848484604051602401610a4893929190610d9e565b604080517fffffffffffffffffffffffffffffffffffffffffffffffffffffffffffffffe08184030181529190526020810180517bffffffffffffffffffffffffffffffffffffffffffffffffffffffff167fffffffff000000000000000000000000000000000000000000000000000000009093169290921790915290509392505050565b805160208201fd5b600060208284031215610ae7578081fd5b81516100e081610e64565b600080600060608486031215610b06578182fd5b8335610b1181610e64565b9250602084810135610b2281610e64565b9250604085013567ffffffffffffffff811115610b3d578283fd5b80860187601f820112610b4e578384fd5b80359150610b63610b5e83610e44565b610e1d565b82815283810190828501858502840186018b1015610b7f578687fd5b8693505b84841015610ba1578035835260019390930192918501918501610b83565b5080955050505050509250925092565b60006020808385031215610bc3578182fd5b825167ffffffffffffffff811115610bd9578283fd5b80840185601f820112610bea578384fd5b80519150610bfa610b5e83610e44565b8281528381019082850185850284018601891015610c16578687fd5b8693505b84841015610c38578051835260019390930192918501918501610c1a565b50979650505050505050565b600060208284031215610c55578081fd5b5051919050565b6000815180845260208401935060208301825b82811015610c8d578151865260209586019590910190600101610c6f565b5093949350505050565b60008251815b81811015610cb75760208186018101518583015201610c9d565b81811115610cc55782828501525b509190910192915050565b73ffffffffffffffffffffffffffffffffffffffff91909116815260200190565b73ffffffffffffffffffffffffffffffffffffffff92831681529116602082015260400190565b600073ffffffffffffffffffffffffffffffffffffffff808616835280851660208401525060606040830152610d516060830184610c5c565b95945050505050565b73ffffffffffffffffffffffffffffffffffffffff9384168152919092166020820152604081019190915260600190565b6000602082526100e06020830184610c5c565b6060810160048510610dac57fe5b938152602081019290925260409091015290565b60208082526025908201527f455243323042726964676553616d706c65722f494e56414c49445f544f4b454e60408201527f5f50414952000000000000000000000000000000000000000000000000000000606082015260800190565b60405181810167ffffffffffffffff81118282101715610e3c57600080fd5b604052919050565b600067ffffffffffffffff821115610e5a578081fd5b5060209081020190565b73ffffffffffffffffffffffffffffffffffffffff81168114610e8657600080fd5b5056fea365627a7a723158209fea53906265843dddfe6578191eade5de7f53f2080158c54297e064c06505b06c6578706572696d656e74616cf564736f6c63430005110040",
                "opcodes": "PUSH1 0x80 PUSH1 0x40 MSTORE CALLVALUE DUP1 ISZERO PUSH2 0x10 JUMPI PUSH1 0x0 DUP1 REVERT JUMPDEST POP PUSH2 0xECC DUP1 PUSH2 0x20 PUSH1 0x0 CODECOPY PUSH1 0x0 RETURN INVALID PUSH1 0x80 PUSH1 0x40 MSTORE CALLVALUE DUP1 ISZERO PUSH2 0x10 JUMPI PUSH1 0x0 DUP1 REVERT JUMPDEST POP PUSH1 0x4 CALLDATASIZE LT PUSH2 0x36 JUMPI PUSH1 0x0 CALLDATALOAD PUSH1 0xE0 SHR DUP1 PUSH4 0x67B881E7 EQ PUSH2 0x3B JUMPI DUP1 PUSH4 0xCDB3B4AF EQ PUSH2 0x64 JUMPI JUMPDEST PUSH1 0x0 DUP1 REVERT JUMPDEST PUSH2 0x4E PUSH2 0x49 CALLDATASIZE PUSH1 0x4 PUSH2 0xAF2 JUMP JUMPDEST PUSH2 0x77 JUMP JUMPDEST PUSH1 0x40 MLOAD PUSH2 0x5B SWAP2 SWAP1 PUSH2 0xD8B JUMP JUMPDEST PUSH1 0x40 MLOAD DUP1 SWAP2 SUB SWAP1 RETURN JUMPDEST PUSH2 0x4E PUSH2 0x72 CALLDATASIZE PUSH1 0x4 PUSH2 0xAF2 JUMP JUMPDEST PUSH2 0xE7 JUMP JUMPDEST PUSH1 0x60 PUSH2 0xDD PUSH1 0x40 MLOAD DUP1 PUSH1 0x60 ADD PUSH1 0x40 MSTORE DUP1 DUP6 PUSH1 0x40 MLOAD PUSH1 0x20 ADD PUSH2 0x98 SWAP2 SWAP1 PUSH2 0xCD0 JUMP JUMPDEST PUSH1 0x40 MLOAD PUSH1 0x20 DUP2 DUP4 SUB SUB DUP2 MSTORE SWAP1 PUSH1 0x40 MSTORE DUP2 MSTORE PUSH1 0x20 ADD DUP7 PUSH1 0x40 MLOAD PUSH1 0x20 ADD PUSH2 0xBD SWAP2 SWAP1 PUSH2 0xCD0 JUMP JUMPDEST PUSH1 0x40 MLOAD PUSH1 0x20 DUP2 DUP4 SUB SUB DUP2 MSTORE SWAP1 PUSH1 0x40 MSTORE DUP2 MSTORE PUSH1 0x20 ADD PUSH2 0x50A DUP2 MSTORE POP DUP4 PUSH2 0x693 JUMP JUMPDEST SWAP1 POP JUMPDEST SWAP4 SWAP3 POP POP POP JUMP JUMPDEST PUSH1 0x60 PUSH2 0xF3 DUP4 DUP6 PUSH2 0x868 JUMP JUMPDEST DUP2 MLOAD PUSH1 0x40 DUP1 MLOAD DUP3 DUP2 MSTORE PUSH1 0x20 DUP1 DUP5 MUL DUP3 ADD ADD SWAP1 SWAP2 MSTORE DUP2 DUP1 ISZERO PUSH2 0x11E JUMPI DUP2 PUSH1 0x20 ADD PUSH1 0x20 DUP3 MUL DUP1 CODESIZE DUP4 CODECOPY ADD SWAP1 POP JUMPDEST POP SWAP2 POP PUSH1 0x0 PUSH2 0x12B PUSH2 0x8DB JUMP JUMPDEST PUSH20 0xFFFFFFFFFFFFFFFFFFFFFFFFFFFFFFFFFFFFFFFF AND DUP7 PUSH20 0xFFFFFFFFFFFFFFFFFFFFFFFFFFFFFFFFFFFFFFFF AND EQ PUSH2 0x163 JUMPI DUP6 PUSH2 0x166 JUMP JUMPDEST PUSH1 0x0 JUMPDEST SWAP1 POP PUSH1 0x0 PUSH2 0x172 PUSH2 0x8DB JUMP JUMPDEST PUSH20 0xFFFFFFFFFFFFFFFFFFFFFFFFFFFFFFFFFFFFFFFF AND DUP7 PUSH20 0xFFFFFFFFFFFFFFFFFFFFFFFFFFFFFFFFFFFFFFFF AND EQ PUSH2 0x1AA JUMPI DUP6 PUSH2 0x1AD JUMP JUMPDEST PUSH1 0x0 JUMPDEST SWAP1 POP PUSH1 0x0 PUSH2 0x1B9 PUSH2 0x8F3 JUMP JUMPDEST PUSH20 0xFFFFFFFFFFFFFFFFFFFFFFFFFFFFFFFFFFFFFFFF AND PUSH4 0x901754D7 DUP5 DUP5 PUSH1 0x40 MLOAD DUP4 PUSH4 0xFFFFFFFF AND PUSH1 0xE0 SHL DUP2 MSTORE PUSH1 0x4 ADD PUSH2 0x1F3 SWAP3 SWAP2 SWAP1 PUSH2 0xCF1 JUMP JUMPDEST PUSH1 0x20 PUSH1 0x40 MLOAD DUP1 DUP4 SUB DUP2 DUP7 DUP1 EXTCODESIZE ISZERO DUP1 ISZERO PUSH2 0x20B JUMPI PUSH1 0x0 DUP1 REVERT JUMPDEST POP GAS STATICCALL ISZERO DUP1 ISZERO PUSH2 0x21F JUMPI RETURNDATASIZE PUSH1 0x0 DUP1 RETURNDATACOPY RETURNDATASIZE PUSH1 0x0 REVERT JUMPDEST POP POP POP POP PUSH1 0x40 MLOAD RETURNDATASIZE PUSH1 0x1F NOT PUSH1 0x1F DUP3 ADD AND DUP3 ADD DUP1 PUSH1 0x40 MSTORE POP PUSH2 0x243 SWAP2 SWAP1 DUP2 ADD SWAP1 PUSH2 0xAD6 JUMP JUMPDEST SWAP1 POP PUSH20 0xFFFFFFFFFFFFFFFFFFFFFFFFFFFFFFFFFFFFFFFF DUP2 AND PUSH2 0x26A JUMPI POP PUSH2 0xE0 SWAP3 POP POP POP JUMP JUMPDEST PUSH1 0x0 PUSH20 0xFFFFFFFFFFFFFFFFFFFFFFFFFFFFFFFFFFFFFFFF DUP5 AND ISZERO PUSH2 0x32F JUMPI PUSH1 0x40 MLOAD PUSH32 0x70A0823100000000000000000000000000000000000000000000000000000000 DUP2 MSTORE PUSH20 0xFFFFFFFFFFFFFFFFFFFFFFFFFFFFFFFFFFFFFFFF DUP6 AND SWAP1 PUSH4 0x70A08231 SWAP1 PUSH2 0x2DA SWAP1 DUP6 SWAP1 PUSH1 0x4 ADD PUSH2 0xCD0 JUMP JUMPDEST PUSH1 0x20 PUSH1 0x40 MLOAD DUP1 DUP4 SUB DUP2 DUP7 DUP1 EXTCODESIZE ISZERO DUP1 ISZERO PUSH2 0x2F2 JUMPI PUSH1 0x0 DUP1 REVERT JUMPDEST POP GAS STATICCALL ISZERO DUP1 ISZERO PUSH2 0x306 JUMPI RETURNDATASIZE PUSH1 0x0 DUP1 RETURNDATACOPY RETURNDATASIZE PUSH1 0x0 REVERT JUMPDEST POP POP POP POP PUSH1 0x40 MLOAD RETURNDATASIZE PUSH1 0x1F NOT PUSH1 0x1F DUP3 ADD AND DUP3 ADD DUP1 PUSH1 0x40 MSTORE POP PUSH2 0x32A SWAP2 SWAP1 DUP2 ADD SWAP1 PUSH2 0xC44 JUMP JUMPDEST PUSH2 0x348 JUMP JUMPDEST DUP2 PUSH20 0xFFFFFFFFFFFFFFFFFFFFFFFFFFFFFFFFFFFFFFFF AND BALANCE JUMPDEST SWAP1 POP PUSH1 0x0 JUMPDEST DUP6 DUP2 LT ISZERO PUSH2 0x4FD JUMPI DUP8 DUP2 DUP2 MLOAD DUP2 LT PUSH2 0x361 JUMPI INVALID JUMPDEST PUSH1 0x20 MUL PUSH1 0x20 ADD ADD MLOAD DUP3 LT ISZERO PUSH2 0x375 JUMPI PUSH2 0x4FD JUMP JUMPDEST PUSH1 0x0 PUSH1 0x60 DUP5 PUSH20 0xFFFFFFFFFFFFFFFFFFFFFFFFFFFFFFFFFFFFFFFF AND PUSH3 0x249F0 PUSH1 0x0 PUSH20 0xFFFFFFFFFFFFFFFFFFFFFFFFFFFFFFFFFFFFFFFF AND PUSH4 0x1E1401F8 SWAP1 POP PUSH1 0xE0 SHL DUP10 DUP10 DUP15 DUP9 DUP2 MLOAD DUP2 LT PUSH2 0x3C4 JUMPI INVALID JUMPDEST PUSH1 0x20 MUL PUSH1 0x20 ADD ADD MLOAD PUSH1 0x40 MLOAD PUSH1 0x24 ADD PUSH2 0x3DE SWAP4 SWAP3 SWAP2 SWAP1 PUSH2 0xD5A JUMP JUMPDEST PUSH1 0x40 DUP1 MLOAD PUSH32 0xFFFFFFFFFFFFFFFFFFFFFFFFFFFFFFFFFFFFFFFFFFFFFFFFFFFFFFFFFFFFFFE0 DUP2 DUP5 SUB ADD DUP2 MSTORE SWAP2 DUP2 MSTORE PUSH1 0x20 DUP3 ADD DUP1 MLOAD PUSH28 0xFFFFFFFFFFFFFFFFFFFFFFFFFFFFFFFFFFFFFFFFFFFFFFFFFFFFFFFF AND PUSH32 0xFFFFFFFF00000000000000000000000000000000000000000000000000000000 SWAP1 SWAP5 AND SWAP4 SWAP1 SWAP4 OR SWAP1 SWAP3 MSTORE SWAP1 MLOAD PUSH2 0x467 SWAP2 SWAP1 PUSH2 0xC97 JUMP JUMPDEST PUSH1 0x0 PUSH1 0x40 MLOAD DUP1 DUP4 SUB DUP2 DUP7 DUP7 STATICCALL SWAP3 POP POP POP RETURNDATASIZE DUP1 PUSH1 0x0 DUP2 EQ PUSH2 0x4A3 JUMPI PUSH1 0x40 MLOAD SWAP2 POP PUSH1 0x1F NOT PUSH1 0x3F RETURNDATASIZE ADD AND DUP3 ADD PUSH1 0x40 MSTORE RETURNDATASIZE DUP3 MSTORE RETURNDATASIZE PUSH1 0x0 PUSH1 0x20 DUP5 ADD RETURNDATACOPY PUSH2 0x4A8 JUMP JUMPDEST PUSH1 0x60 SWAP2 POP JUMPDEST POP SWAP1 SWAP3 POP SWAP1 POP PUSH1 0x0 DUP3 ISZERO PUSH2 0x4CD JUMPI DUP2 DUP1 PUSH1 0x20 ADD SWAP1 MLOAD PUSH2 0x4CA SWAP2 SWAP1 DUP2 ADD SWAP1 PUSH2 0xC44 JUMP JUMPDEST SWAP1 POP JUMPDEST DUP1 PUSH2 0x4DA JUMPI POP POP POP PUSH2 0x4FD JUMP JUMPDEST DUP1 DUP11 DUP6 DUP2 MLOAD DUP2 LT PUSH2 0x4E7 JUMPI INVALID JUMPDEST PUSH1 0x20 SWAP1 DUP2 MUL SWAP2 SWAP1 SWAP2 ADD ADD MSTORE POP POP POP PUSH1 0x1 ADD PUSH2 0x34D JUMP JUMPDEST POP POP POP POP POP POP SWAP4 SWAP3 POP POP POP JUMP JUMPDEST PUSH1 0x0 DUP1 DUP5 DUP1 PUSH1 0x20 ADD SWAP1 MLOAD PUSH2 0x521 SWAP2 SWAP1 DUP2 ADD SWAP1 PUSH2 0xAD6 JUMP JUMPDEST SWAP1 POP PUSH1 0x0 DUP5 DUP1 PUSH1 0x20 ADD SWAP1 MLOAD PUSH2 0x539 SWAP2 SWAP1 DUP2 ADD SWAP1 PUSH2 0xAD6 JUMP JUMPDEST SWAP1 POP PUSH1 0x0 PUSH1 0x60 ADDRESS PUSH32 0xCDB3B4AF00000000000000000000000000000000000000000000000000000000 DUP6 DUP6 PUSH2 0x56C DUP11 PUSH2 0x90B JUMP JUMPDEST PUSH1 0x40 MLOAD PUSH1 0x24 ADD PUSH2 0x57E SWAP4 SWAP3 SWAP2 SWAP1 PUSH2 0xD18 JUMP JUMPDEST PUSH1 0x40 DUP1 MLOAD PUSH32 0xFFFFFFFFFFFFFFFFFFFFFFFFFFFFFFFFFFFFFFFFFFFFFFFFFFFFFFFFFFFFFFE0 DUP2 DUP5 SUB ADD DUP2 MSTORE SWAP2 DUP2 MSTORE PUSH1 0x20 DUP3 ADD DUP1 MLOAD PUSH28 0xFFFFFFFFFFFFFFFFFFFFFFFFFFFFFFFFFFFFFFFFFFFFFFFFFFFFFFFF AND PUSH32 0xFFFFFFFF00000000000000000000000000000000000000000000000000000000 SWAP1 SWAP5 AND SWAP4 SWAP1 SWAP4 OR SWAP1 SWAP3 MSTORE SWAP1 MLOAD PUSH2 0x607 SWAP2 SWAP1 PUSH2 0xC97 JUMP JUMPDEST PUSH1 0x0 PUSH1 0x40 MLOAD DUP1 DUP4 SUB DUP2 DUP6 GAS STATICCALL SWAP2 POP POP RETURNDATASIZE DUP1 PUSH1 0x0 DUP2 EQ PUSH2 0x642 JUMPI PUSH1 0x40 MLOAD SWAP2 POP PUSH1 0x1F NOT PUSH1 0x3F RETURNDATASIZE ADD AND DUP3 ADD PUSH1 0x40 MSTORE RETURNDATASIZE DUP3 MSTORE RETURNDATASIZE PUSH1 0x0 PUSH1 0x20 DUP5 ADD RETURNDATACOPY PUSH2 0x647 JUMP JUMPDEST PUSH1 0x60 SWAP2 POP JUMPDEST POP SWAP2 POP SWAP2 POP DUP2 PUSH2 0x65E JUMPI PUSH1 0x0 SWAP5 POP POP POP POP POP PUSH2 0xE0 JUMP JUMPDEST DUP1 DUP1 PUSH1 0x20 ADD SWAP1 MLOAD PUSH2 0x672 SWAP2 SWAP1 DUP2 ADD SWAP1 PUSH2 0xBB1 JUMP JUMPDEST PUSH1 0x0 DUP2 MLOAD DUP2 LT PUSH2 0x67E JUMPI INVALID JUMPDEST PUSH1 0x20 MUL PUSH1 0x20 ADD ADD MLOAD SWAP5 POP POP POP POP POP SWAP4 SWAP3 POP POP POP JUMP JUMPDEST PUSH1 0x60 DUP2 MLOAD PUSH1 0x40 MLOAD SWAP1 DUP1 DUP3 MSTORE DUP1 PUSH1 0x20 MUL PUSH1 0x20 ADD DUP3 ADD PUSH1 0x40 MSTORE DUP1 ISZERO PUSH2 0x6C0 JUMPI DUP2 PUSH1 0x20 ADD PUSH1 0x20 DUP3 MUL DUP1 CODESIZE DUP4 CODECOPY ADD SWAP1 POP JUMPDEST POP SWAP1 POP DUP2 MLOAD PUSH1 0x0 EQ ISZERO PUSH2 0x6D2 JUMPI PUSH2 0x862 JUMP JUMPDEST PUSH1 0x0 PUSH2 0x703 DUP5 PUSH1 0x0 ADD MLOAD DUP6 PUSH1 0x20 ADD MLOAD DUP6 PUSH1 0x0 DUP2 MLOAD DUP2 LT PUSH2 0x6EE JUMPI INVALID JUMPDEST PUSH1 0x20 MUL PUSH1 0x20 ADD ADD MLOAD DUP8 PUSH1 0x40 ADD MLOAD PUSH4 0xFFFFFFFF AND JUMP JUMPDEST SWAP1 POP DUP1 PUSH2 0x710 JUMPI POP PUSH2 0x862 JUMP JUMPDEST PUSH1 0x0 PUSH2 0x72D DUP6 PUSH1 0x20 ADD MLOAD DUP7 PUSH1 0x0 ADD MLOAD DUP5 DUP9 PUSH1 0x40 ADD MLOAD PUSH4 0xFFFFFFFF AND JUMP JUMPDEST SWAP1 POP DUP1 PUSH2 0x73C JUMPI POP PUSH2 0x862 SWAP1 POP JUMP JUMPDEST PUSH1 0x0 JUMPDEST DUP5 MLOAD DUP2 LT ISZERO PUSH2 0x85E JUMPI PUSH1 0x0 JUMPDEST PUSH1 0x5 DUP2 LT ISZERO PUSH2 0x820 JUMPI PUSH2 0x772 DUP7 DUP4 DUP2 MLOAD DUP2 LT PUSH2 0x763 JUMPI INVALID JUMPDEST PUSH1 0x20 MUL PUSH1 0x20 ADD ADD MLOAD DUP5 DUP7 PUSH2 0x94C JUMP JUMPDEST SWAP4 POP PUSH2 0x783 PUSH2 0x2715 PUSH2 0x2710 DUP7 PUSH2 0x94C JUMP JUMPDEST SWAP4 POP PUSH1 0x0 PUSH2 0x7A2 DUP9 PUSH1 0x20 ADD MLOAD DUP10 PUSH1 0x0 ADD MLOAD DUP8 DUP12 PUSH1 0x40 ADD MLOAD PUSH4 0xFFFFFFFF AND JUMP JUMPDEST SWAP1 POP DUP1 PUSH2 0x7AF JUMPI POP PUSH2 0x820 JUMP JUMPDEST DUP1 SWAP4 POP DUP7 DUP4 DUP2 MLOAD DUP2 LT PUSH2 0x7BE JUMPI INVALID JUMPDEST PUSH1 0x20 MUL PUSH1 0x20 ADD ADD MLOAD DUP5 LT PUSH2 0x817 JUMPI PUSH1 0x0 DUP8 DUP5 DUP2 MLOAD DUP2 LT PUSH2 0x7DA JUMPI INVALID JUMPDEST PUSH1 0x20 MUL PUSH1 0x20 ADD ADD MLOAD PUSH2 0x2710 DUP10 DUP7 DUP2 MLOAD DUP2 LT PUSH2 0x7F1 JUMPI INVALID JUMPDEST PUSH1 0x20 MUL PUSH1 0x20 ADD ADD MLOAD DUP8 SUB MUL DUP2 PUSH2 0x803 JUMPI INVALID JUMPDEST DIV SWAP1 POP PUSH1 0x5 DUP2 GT PUSH2 0x815 JUMPI POP POP PUSH2 0x820 JUMP JUMPDEST POP JUMPDEST POP PUSH1 0x1 ADD PUSH2 0x74B JUMP JUMPDEST POP PUSH2 0x83F DUP6 DUP3 DUP2 MLOAD DUP2 LT PUSH2 0x830 JUMPI INVALID JUMPDEST PUSH1 0x20 MUL PUSH1 0x20 ADD ADD MLOAD DUP4 DUP6 PUSH2 0x94C JUMP JUMPDEST DUP5 DUP3 DUP2 MLOAD DUP2 LT PUSH2 0x84B JUMPI INVALID JUMPDEST PUSH1 0x20 SWAP1 DUP2 MUL SWAP2 SWAP1 SWAP2 ADD ADD MSTORE PUSH1 0x1 ADD PUSH2 0x73F JUMP JUMPDEST POP POP POP JUMPDEST SWAP3 SWAP2 POP POP JUMP JUMPDEST DUP1 PUSH20 0xFFFFFFFFFFFFFFFFFFFFFFFFFFFFFFFFFFFFFFFF AND DUP3 PUSH20 0xFFFFFFFFFFFFFFFFFFFFFFFFFFFFFFFFFFFFFFFF AND EQ ISZERO PUSH2 0x8D7 JUMPI PUSH1 0x40 MLOAD PUSH32 0x8C379A000000000000000000000000000000000000000000000000000000000 DUP2 MSTORE PUSH1 0x4 ADD PUSH2 0x8CE SWAP1 PUSH2 0xDC0 JUMP JUMPDEST PUSH1 0x40 MLOAD DUP1 SWAP2 SUB SWAP1 REVERT JUMPDEST POP POP JUMP JUMPDEST PUSH20 0xC02AAA39B223FE8D0A0E5C4F27EAD9083C756CC2 SWAP1 JUMP JUMPDEST PUSH20 0x71CD6666064C3A1354A3B4DCA5FA1E2D3EE7D303 SWAP1 JUMP JUMPDEST PUSH1 0x40 DUP1 MLOAD PUSH1 0x1 DUP1 DUP3 MSTORE DUP2 DUP4 ADD SWAP1 SWAP3 MSTORE PUSH1 0x60 SWAP2 PUSH1 0x20 DUP1 DUP4 ADD SWAP1 DUP1 CODESIZE DUP4 CODECOPY ADD SWAP1 POP POP SWAP1 POP DUP2 DUP2 PUSH1 0x0 DUP2 MLOAD DUP2 LT PUSH2 0x93B JUMPI INVALID JUMPDEST PUSH1 0x20 MUL PUSH1 0x20 ADD ADD DUP2 DUP2 MSTORE POP POP SWAP2 SWAP1 POP JUMP JUMPDEST PUSH1 0x0 PUSH2 0xDD DUP4 PUSH2 0x982 PUSH2 0x966 DUP3 PUSH1 0x1 PUSH4 0xFFFFFFFF PUSH2 0x98E AND JUMP JUMPDEST PUSH2 0x976 DUP9 DUP8 PUSH4 0xFFFFFFFF PUSH2 0x9B2 AND JUMP JUMPDEST SWAP1 PUSH4 0xFFFFFFFF PUSH2 0x9E3 AND JUMP JUMPDEST SWAP1 PUSH4 0xFFFFFFFF PUSH2 0x9FF AND JUMP JUMPDEST PUSH1 0x0 DUP3 DUP3 GT ISZERO PUSH2 0x9AC JUMPI PUSH2 0x9AC PUSH2 0x9A7 PUSH1 0x2 DUP6 DUP6 PUSH2 0xA29 JUMP JUMPDEST PUSH2 0xACE JUMP JUMPDEST POP SWAP1 SUB SWAP1 JUMP JUMPDEST PUSH1 0x0 DUP3 PUSH2 0x9C1 JUMPI POP PUSH1 0x0 PUSH2 0x862 JUMP JUMPDEST DUP3 DUP3 MUL DUP3 DUP5 DUP3 DUP2 PUSH2 0x9CE JUMPI INVALID JUMPDEST DIV EQ PUSH2 0xE0 JUMPI PUSH2 0xE0 PUSH2 0x9A7 PUSH1 0x1 DUP7 DUP7 PUSH2 0xA29 JUMP JUMPDEST PUSH1 0x0 DUP3 DUP3 ADD DUP4 DUP2 LT ISZERO PUSH2 0xE0 JUMPI PUSH2 0xE0 PUSH2 0x9A7 PUSH1 0x0 DUP7 DUP7 PUSH2 0xA29 JUMP JUMPDEST PUSH1 0x0 DUP2 PUSH2 0xA15 JUMPI PUSH2 0xA15 PUSH2 0x9A7 PUSH1 0x3 DUP6 DUP6 PUSH2 0xA29 JUMP JUMPDEST PUSH1 0x0 DUP3 DUP5 DUP2 PUSH2 0xA20 JUMPI INVALID JUMPDEST DIV SWAP5 SWAP4 POP POP POP POP JUMP JUMPDEST PUSH1 0x60 PUSH4 0xE946C1BB PUSH1 0xE0 SHL DUP5 DUP5 DUP5 PUSH1 0x40 MLOAD PUSH1 0x24 ADD PUSH2 0xA48 SWAP4 SWAP3 SWAP2 SWAP1 PUSH2 0xD9E JUMP JUMPDEST PUSH1 0x40 DUP1 MLOAD PUSH32 0xFFFFFFFFFFFFFFFFFFFFFFFFFFFFFFFFFFFFFFFFFFFFFFFFFFFFFFFFFFFFFFE0 DUP2 DUP5 SUB ADD DUP2 MSTORE SWAP2 SWAP1 MSTORE PUSH1 0x20 DUP2 ADD DUP1 MLOAD PUSH28 0xFFFFFFFFFFFFFFFFFFFFFFFFFFFFFFFFFFFFFFFFFFFFFFFFFFFFFFFF AND PUSH32 0xFFFFFFFF00000000000000000000000000000000000000000000000000000000 SWAP1 SWAP4 AND SWAP3 SWAP1 SWAP3 OR SWAP1 SWAP2 MSTORE SWAP1 POP SWAP4 SWAP3 POP POP POP JUMP JUMPDEST DUP1 MLOAD PUSH1 0x20 DUP3 ADD REVERT JUMPDEST PUSH1 0x0 PUSH1 0x20 DUP3 DUP5 SUB SLT ISZERO PUSH2 0xAE7 JUMPI DUP1 DUP2 REVERT JUMPDEST DUP2 MLOAD PUSH2 0xE0 DUP2 PUSH2 0xE64 JUMP JUMPDEST PUSH1 0x0 DUP1 PUSH1 0x0 PUSH1 0x60 DUP5 DUP7 SUB SLT ISZERO PUSH2 0xB06 JUMPI DUP2 DUP3 REVERT JUMPDEST DUP4 CALLDATALOAD PUSH2 0xB11 DUP2 PUSH2 0xE64 JUMP JUMPDEST SWAP3 POP PUSH1 0x20 DUP5 DUP2 ADD CALLDATALOAD PUSH2 0xB22 DUP2 PUSH2 0xE64 JUMP JUMPDEST SWAP3 POP PUSH1 0x40 DUP6 ADD CALLDATALOAD PUSH8 0xFFFFFFFFFFFFFFFF DUP2 GT ISZERO PUSH2 0xB3D JUMPI DUP3 DUP4 REVERT JUMPDEST DUP1 DUP7 ADD DUP8 PUSH1 0x1F DUP3 ADD SLT PUSH2 0xB4E JUMPI DUP4 DUP5 REVERT JUMPDEST DUP1 CALLDATALOAD SWAP2 POP PUSH2 0xB63 PUSH2 0xB5E DUP4 PUSH2 0xE44 JUMP JUMPDEST PUSH2 0xE1D JUMP JUMPDEST DUP3 DUP2 MSTORE DUP4 DUP2 ADD SWAP1 DUP3 DUP6 ADD DUP6 DUP6 MUL DUP5 ADD DUP7 ADD DUP12 LT ISZERO PUSH2 0xB7F JUMPI DUP7 DUP8 REVERT JUMPDEST DUP7 SWAP4 POP JUMPDEST DUP5 DUP5 LT ISZERO PUSH2 0xBA1 JUMPI DUP1 CALLDATALOAD DUP4 MSTORE PUSH1 0x1 SWAP4 SWAP1 SWAP4 ADD SWAP3 SWAP2 DUP6 ADD SWAP2 DUP6 ADD PUSH2 0xB83 JUMP JUMPDEST POP DUP1 SWAP6 POP POP POP POP POP POP SWAP3 POP SWAP3 POP SWAP3 JUMP JUMPDEST PUSH1 0x0 PUSH1 0x20 DUP1 DUP4 DUP6 SUB SLT ISZERO PUSH2 0xBC3 JUMPI DUP2 DUP3 REVERT JUMPDEST DUP3 MLOAD PUSH8 0xFFFFFFFFFFFFFFFF DUP2 GT ISZERO PUSH2 0xBD9 JUMPI DUP3 DUP4 REVERT JUMPDEST DUP1 DUP5 ADD DUP6 PUSH1 0x1F DUP3 ADD SLT PUSH2 0xBEA JUMPI DUP4 DUP5 REVERT JUMPDEST DUP1 MLOAD SWAP2 POP PUSH2 0xBFA PUSH2 0xB5E DUP4 PUSH2 0xE44 JUMP JUMPDEST DUP3 DUP2 MSTORE DUP4 DUP2 ADD SWAP1 DUP3 DUP6 ADD DUP6 DUP6 MUL DUP5 ADD DUP7 ADD DUP10 LT ISZERO PUSH2 0xC16 JUMPI DUP7 DUP8 REVERT JUMPDEST DUP7 SWAP4 POP JUMPDEST DUP5 DUP5 LT ISZERO PUSH2 0xC38 JUMPI DUP1 MLOAD DUP4 MSTORE PUSH1 0x1 SWAP4 SWAP1 SWAP4 ADD SWAP3 SWAP2 DUP6 ADD SWAP2 DUP6 ADD PUSH2 0xC1A JUMP JUMPDEST POP SWAP8 SWAP7 POP POP POP POP POP POP POP JUMP JUMPDEST PUSH1 0x0 PUSH1 0x20 DUP3 DUP5 SUB SLT ISZERO PUSH2 0xC55 JUMPI DUP1 DUP2 REVERT JUMPDEST POP MLOAD SWAP2 SWAP1 POP JUMP JUMPDEST PUSH1 0x0 DUP2 MLOAD DUP1 DUP5 MSTORE PUSH1 0x20 DUP5 ADD SWAP4 POP PUSH1 0x20 DUP4 ADD DUP3 JUMPDEST DUP3 DUP2 LT ISZERO PUSH2 0xC8D JUMPI DUP2 MLOAD DUP7 MSTORE PUSH1 0x20 SWAP6 DUP7 ADD SWAP6 SWAP1 SWAP2 ADD SWAP1 PUSH1 0x1 ADD PUSH2 0xC6F JUMP JUMPDEST POP SWAP4 SWAP5 SWAP4 POP POP POP POP JUMP JUMPDEST PUSH1 0x0 DUP3 MLOAD DUP2 JUMPDEST DUP2 DUP2 LT ISZERO PUSH2 0xCB7 JUMPI PUSH1 0x20 DUP2 DUP7 ADD DUP2 ADD MLOAD DUP6 DUP4 ADD MSTORE ADD PUSH2 0xC9D JUMP JUMPDEST DUP2 DUP2 GT ISZERO PUSH2 0xCC5 JUMPI DUP3 DUP3 DUP6 ADD MSTORE JUMPDEST POP SWAP2 SWAP1 SWAP2 ADD SWAP3 SWAP2 POP POP JUMP JUMPDEST PUSH20 0xFFFFFFFFFFFFFFFFFFFFFFFFFFFFFFFFFFFFFFFF SWAP2 SWAP1 SWAP2 AND DUP2 MSTORE PUSH1 0x20 ADD SWAP1 JUMP JUMPDEST PUSH20 0xFFFFFFFFFFFFFFFFFFFFFFFFFFFFFFFFFFFFFFFF SWAP3 DUP4 AND DUP2 MSTORE SWAP2 AND PUSH1 0x20 DUP3 ADD MSTORE PUSH1 0x40 ADD SWAP1 JUMP JUMPDEST PUSH1 0x0 PUSH20 0xFFFFFFFFFFFFFFFFFFFFFFFFFFFFFFFFFFFFFFFF DUP1 DUP7 AND DUP4 MSTORE DUP1 DUP6 AND PUSH1 0x20 DUP5 ADD MSTORE POP PUSH1 0x60 PUSH1 0x40 DUP4 ADD MSTORE PUSH2 0xD51 PUSH1 0x60 DUP4 ADD DUP5 PUSH2 0xC5C JUMP JUMPDEST SWAP6 SWAP5 POP POP POP POP POP JUMP JUMPDEST PUSH20 0xFFFFFFFFFFFFFFFFFFFFFFFFFFFFFFFFFFFFFFFF SWAP4 DUP5 AND DUP2 MSTORE SWAP2 SWAP1 SWAP3 AND PUSH1 0x20 DUP3 ADD MSTORE PUSH1 0x40 DUP2 ADD SWAP2 SWAP1 SWAP2 MSTORE PUSH1 0x60 ADD SWAP1 JUMP JUMPDEST PUSH1 0x0 PUSH1 0x20 DUP3 MSTORE PUSH2 0xE0 PUSH1 0x20 DUP4 ADD DUP5 PUSH2 0xC5C JUMP JUMPDEST PUSH1 0x60 DUP2 ADD PUSH1 0x4 DUP6 LT PUSH2 0xDAC JUMPI INVALID JUMPDEST SWAP4 DUP2 MSTORE PUSH1 0x20 DUP2 ADD SWAP3 SWAP1 SWAP3 MSTORE PUSH1 0x40 SWAP1 SWAP2 ADD MSTORE SWAP1 JUMP JUMPDEST PUSH1 0x20 DUP1 DUP3 MSTORE PUSH1 0x25 SWAP1 DUP3 ADD MSTORE PUSH32 0x455243323042726964676553616D706C65722F494E56414C49445F544F4B454E PUSH1 0x40 DUP3 ADD MSTORE PUSH32 0x5F50414952000000000000000000000000000000000000000000000000000000 PUSH1 0x60 DUP3 ADD MSTORE PUSH1 0x80 ADD SWAP1 JUMP JUMPDEST PUSH1 0x40 MLOAD DUP2 DUP2 ADD PUSH8 0xFFFFFFFFFFFFFFFF DUP2 GT DUP3 DUP3 LT OR ISZERO PUSH2 0xE3C JUMPI PUSH1 0x0 DUP1 REVERT JUMPDEST PUSH1 0x40 MSTORE SWAP2 SWAP1 POP JUMP JUMPDEST PUSH1 0x0 PUSH8 0xFFFFFFFFFFFFFFFF DUP3 GT ISZERO PUSH2 0xE5A JUMPI DUP1 DUP2 REVERT JUMPDEST POP PUSH1 0x20 SWAP1 DUP2 MUL ADD SWAP1 JUMP JUMPDEST PUSH20 0xFFFFFFFFFFFFFFFFFFFFFFFFFFFFFFFFFFFFFFFF DUP2 AND DUP2 EQ PUSH2 0xE86 JUMPI PUSH1 0x0 DUP1 REVERT JUMPDEST POP JUMP INVALID LOG3 PUSH6 0x627A7A723158 KECCAK256 SWAP16 0xEA MSTORE8 SWAP1 PUSH3 0x65843D 0xDD INVALID PUSH6 0x78191EADE5DE PUSH32 0x53F2080158C54297E064C06505B06C6578706572696D656E74616CF564736F6C PUSH4 0x43000511 STOP BLOCKHASH "
            }
        }
    },
    "sourceTreeHashHex": "0xdc7035c0225d9323b412078e8102a0336eef213aeb8036e4af313a368a8dafb3",
    "compiler": {
        "name": "solc",
        "version": "0.5.17+commit.d19bba13",
        "settings": {
            "remappings": [
                "@0x/contracts-exchange-libs=/Users/jacob/projects/ethdev/0x/workspace-remote/workspace/0x-monorepo/node_modules/@0x/contracts-exchange-libs",
                "@0x/contracts-utils=/Users/jacob/projects/ethdev/0x/workspace-remote/workspace/0x-monorepo/node_modules/@0x/contracts-utils",
                "@0x/contracts-erc20=/Users/jacob/projects/ethdev/0x/workspace-remote/workspace/0x-monorepo/node_modules/@0x/contracts-erc20",
                "@0x/contracts-exchange=/Users/jacob/projects/ethdev/0x/workspace-remote/workspace/0x-monorepo/node_modules/@0x/contracts-exchange",
                "@0x/contracts-asset-proxy=/Users/jacob/projects/ethdev/0x/workspace-remote/workspace/0x-monorepo/node_modules/@0x/contracts-asset-proxy"
            ],
            "optimizer": {
                "enabled": true,
                "runs": 1000000,
                "details": {
                    "yul": true,
                    "deduplicate": true,
                    "cse": true,
                    "constantOptimizer": true
                }
            },
            "outputSelection": {
                "*": {
                    "*": [
                        "abi",
                        "devdoc",
                        "evm.bytecode.object",
                        "evm.bytecode.sourceMap",
                        "evm.deployedBytecode.object",
                        "evm.deployedBytecode.sourceMap"
                    ]
                }
            },
            "evmVersion": "istanbul"
        }
    },
    "chains": {}
}