{
    "schemaVersion": "2.0.0",
    "contractName": "MStableSampler",
    "compilerOutput": {
        "abi": [
            {
                "inputs": [
                    {
                        "internalType": "address",
                        "name": "router",
                        "type": "address"
                    },
                    {
                        "internalType": "address",
                        "name": "takerToken",
                        "type": "address"
                    },
                    {
                        "internalType": "address",
                        "name": "makerToken",
                        "type": "address"
                    },
                    {
                        "internalType": "uint256[]",
                        "name": "makerTokenAmounts",
                        "type": "uint256[]"
                    }
                ],
                "name": "sampleBuysFromMStable",
                "outputs": [
                    {
                        "internalType": "uint256[]",
                        "name": "takerTokenAmounts",
                        "type": "uint256[]"
                    }
                ],
                "stateMutability": "view",
                "type": "function"
            },
            {
                "inputs": [
                    {
                        "internalType": "address",
                        "name": "router",
                        "type": "address"
                    },
                    {
                        "internalType": "address",
                        "name": "takerToken",
                        "type": "address"
                    },
                    {
                        "internalType": "address",
                        "name": "makerToken",
                        "type": "address"
                    },
                    {
                        "internalType": "uint256[]",
                        "name": "takerTokenAmounts",
                        "type": "uint256[]"
                    }
                ],
                "name": "sampleSellsFromMStable",
                "outputs": [
                    {
                        "internalType": "uint256[]",
                        "name": "makerTokenAmounts",
                        "type": "uint256[]"
                    }
                ],
                "stateMutability": "view",
                "type": "function"
            }
        ],
        "devdoc": {
            "kind": "dev",
            "methods": {
                "sampleBuysFromMStable(address,address,address,uint256[])": {
                    "details": "Sample buy quotes from MStable contract",
                    "params": {
                        "makerToken": "Address of the maker token (what to buy).",
                        "makerTokenAmounts": "Maker token buy amount for each sample.",
                        "router": "Address of the mStable contract",
                        "takerToken": "Address of the taker token (what to sell)."
                    },
                    "returns": {
                        "takerTokenAmounts": "Taker amounts sold at each maker token         amount."
                    }
                },
                "sampleSellsFromMStable(address,address,address,uint256[])": {
                    "details": "Sample sell quotes from the mStable contract",
                    "params": {
                        "makerToken": "Address of the maker token (what to buy).",
                        "router": "Address of the mStable contract",
                        "takerToken": "Address of the taker token (what to sell).",
                        "takerTokenAmounts": "Taker token sell amount for each sample."
                    },
                    "returns": {
                        "makerTokenAmounts": "Maker amounts bought at each taker token         amount."
                    }
                }
            },
            "stateVariables": {
                "DEFAULT_CALL_GAS": {
                    "details": "Default gas limit for mStable calls."
                }
            },
            "version": 1
        },
        "evm": {
            "bytecode": {
                "linkReferences": {},
                "object": "0x608060405234801561001057600080fd5b50610ad8806100206000396000f3fe608060405234801561001057600080fd5b50600436106100365760003560e01c806330d6570d1461003b578063b90cd2fb14610064575b600080fd5b61004e6100493660046107d3565b610077565b60405161005b91906109f2565b60405180910390f35b61004e6100723660046107d3565b6101ec565b6060610083838561025d565b81518067ffffffffffffffff8111801561009c57600080fd5b506040519080825280602002602001820160405280156100c6578160200160208202803683370190505b50915060005b818110156101e257866001600160a01b03166372ea9076620c350088888886815181106100f557fe5b60200260200101516040518563ffffffff1660e01b815260040161011b939291906109ca565b60206040518083038187803b15801561013357600080fd5b5086fa93505050508015610164575060408051601f3d908101601f1916820190925261016191810190610881565b60015b61019e573d808015610192576040519150601f19603f3d011682016040523d82523d6000602084013e610197565b606091505b50506101e2565b808483815181106101ab57fe5b6020026020010181815250508382815181106101c357fe5b6020026020010151600014156101d957506101e2565b506001016100cc565b5050949350505050565b604080516060818101909252610252908061020b86896080840161096b565b6040516020818303038152906040528152602001868860405160200161023292919061096b565b604051602081830303815290604052815260200161029c815250836103b3565b90505b949350505050565b806001600160a01b0316826001600160a01b031614156102985760405162461bcd60e51b815260040161028f90610a03565b60405180910390fd5b5050565b6000806000858060200190518101906102b59190610799565b915091506000858060200190518101906102cf919061077b565b9050306330d6570d8385846102e38a6105c7565b6040518563ffffffff1660e01b81526004016103029493929190610986565b60006040518083038186803b15801561031a57600080fd5b505afa92505050801561034f57506040513d6000823e601f3d908101601f1916820160405261034c919081019061084c565b60015b610390573d80801561037d576040519150601f19603f3d011682016040523d82523d6000602084013e610382565b606091505b5060009450505050506103ac565b8060008151811061039d57fe5b60200260200101519450505050505b9392505050565b6060815167ffffffffffffffff811180156103cd57600080fd5b506040519080825280602002602001820160405280156103f7578160200160208202803683370190505b509050815160001415610409576105c1565b600061043a846000015185602001518560008151811061042557fe5b6020026020010151876040015163ffffffff16565b90508061044757506105c1565b60006104648560200151866000015184886040015163ffffffff16565b9050806104725750506105c1565b60005b84518110156105bd576000805b6005811015610566576104a987848151811061049a57fe5b60200260200101518587610608565b9450846104b557610566565b6104c461271561271087610608565b9450846104d057610566565b60006104ed89602001518a60000151888c6040015163ffffffff16565b9050806104fa5750610566565b80945087848151811061050957fe5b6020026020010151851061055d5787848151811061052357fe5b602002602001015161271089868151811061053a57fe5b60200260200101518703028161054c57fe5b0492506005831161055d5750610566565b50600101610482565b508015806105745750600581115b1561057f57506105bd565b61059d86838151811061058e57fe5b60200260200101518486610608565b8583815181106105a957fe5b602090810291909101015250600101610475565b5050505b92915050565b6040805160018082528183019092526060916020808301908036833701905050905081816000815181106105f757fe5b602002602001018181525050919050565b6000831580610615575081155b8061061e575082155b1561062b575060006103ac565b8382028285828161063857fe5b04146106485760009150506103ac565b836001850382018161065657fe5b0495945050505050565b80356105c181610a82565b80516105c181610a82565b600082601f83011261068757600080fd5b813561069a61069582610a3a565b610a13565b915081818352602084019350602081019050838560208402820111156106bf57600080fd5b60005b838110156106eb57816106d58882610765565b84525060209283019291909101906001016106c2565b5050505092915050565b600082601f83011261070657600080fd5b815161071461069582610a3a565b9150818183526020840193506020810190508385602084028201111561073957600080fd5b60005b838110156106eb578161074f8882610770565b845250602092830192919091019060010161073c565b80356105c181610a99565b80516105c181610a99565b60006020828403121561078d57600080fd5b6000610255848461066b565b600080604083850312156107ac57600080fd5b60006107b8858561066b565b92505060206107c98582860161066b565b9150509250929050565b600080600080608085870312156107e957600080fd5b60006107f58787610660565b945050602061080687828801610660565b935050604061081787828801610660565b925050606085013567ffffffffffffffff81111561083457600080fd5b61084087828801610676565b91505092959194509250565b60006020828403121561085e57600080fd5b815167ffffffffffffffff81111561087557600080fd5b610255848285016106f5565b60006020828403121561089357600080fd5b60006102558484610770565b60006108ab8383610962565b505060200190565b6108bc81610a6e565b82525050565b60006108cd82610a61565b6108d78185610a65565b93506108e283610a5b565b8060005b838110156109105781516108fa888261089f565b975061090583610a5b565b9250506001016108e6565b509495945050505050565b6000610928602583610a65565b7f455243323042726964676553616d706c65722f494e56414c49445f544f4b454e8152642fa820a4a960d91b602082015260400192915050565b6108bc81610a7f565b6040810161097982856108b3565b6103ac60208301846108b3565b6080810161099482876108b3565b6109a160208301866108b3565b6109ae60408301856108b3565b81810360608301526109c081846108c2565b9695505050505050565b606081016109d882866108b3565b6109e560208301856108b3565b6102556040830184610962565b602080825281016103ac81846108c2565b602080825281016105c18161091b565b60405181810167ffffffffffffffff81118282101715610a3257600080fd5b604052919050565b600067ffffffffffffffff821115610a5157600080fd5b5060209081020190565b60200190565b5190565b90815260200190565b60006001600160a01b0382166105c1565b90565b610a8b81610a6e565b8114610a9657600080fd5b50565b610a8b81610a7f56fea26469706673582212208e41eb6e81e5912abfc832970f6a9533ced32f8480875a33030432cddcc00a6464736f6c634300060c0033",
                "opcodes": "PUSH1 0x80 PUSH1 0x40 MSTORE CALLVALUE DUP1 ISZERO PUSH2 0x10 JUMPI PUSH1 0x0 DUP1 REVERT JUMPDEST POP PUSH2 0xAD8 DUP1 PUSH2 0x20 PUSH1 0x0 CODECOPY PUSH1 0x0 RETURN INVALID PUSH1 0x80 PUSH1 0x40 MSTORE CALLVALUE DUP1 ISZERO PUSH2 0x10 JUMPI PUSH1 0x0 DUP1 REVERT JUMPDEST POP PUSH1 0x4 CALLDATASIZE LT PUSH2 0x36 JUMPI PUSH1 0x0 CALLDATALOAD PUSH1 0xE0 SHR DUP1 PUSH4 0x30D6570D EQ PUSH2 0x3B JUMPI DUP1 PUSH4 0xB90CD2FB EQ PUSH2 0x64 JUMPI JUMPDEST PUSH1 0x0 DUP1 REVERT JUMPDEST PUSH2 0x4E PUSH2 0x49 CALLDATASIZE PUSH1 0x4 PUSH2 0x7D3 JUMP JUMPDEST PUSH2 0x77 JUMP JUMPDEST PUSH1 0x40 MLOAD PUSH2 0x5B SWAP2 SWAP1 PUSH2 0x9F2 JUMP JUMPDEST PUSH1 0x40 MLOAD DUP1 SWAP2 SUB SWAP1 RETURN JUMPDEST PUSH2 0x4E PUSH2 0x72 CALLDATASIZE PUSH1 0x4 PUSH2 0x7D3 JUMP JUMPDEST PUSH2 0x1EC JUMP JUMPDEST PUSH1 0x60 PUSH2 0x83 DUP4 DUP6 PUSH2 0x25D JUMP JUMPDEST DUP2 MLOAD DUP1 PUSH8 0xFFFFFFFFFFFFFFFF DUP2 GT DUP1 ISZERO PUSH2 0x9C JUMPI PUSH1 0x0 DUP1 REVERT JUMPDEST POP PUSH1 0x40 MLOAD SWAP1 DUP1 DUP3 MSTORE DUP1 PUSH1 0x20 MUL PUSH1 0x20 ADD DUP3 ADD PUSH1 0x40 MSTORE DUP1 ISZERO PUSH2 0xC6 JUMPI DUP2 PUSH1 0x20 ADD PUSH1 0x20 DUP3 MUL DUP1 CALLDATASIZE DUP4 CALLDATACOPY ADD SWAP1 POP JUMPDEST POP SWAP2 POP PUSH1 0x0 JUMPDEST DUP2 DUP2 LT ISZERO PUSH2 0x1E2 JUMPI DUP7 PUSH1 0x1 PUSH1 0x1 PUSH1 0xA0 SHL SUB AND PUSH4 0x72EA9076 PUSH3 0xC3500 DUP9 DUP9 DUP9 DUP7 DUP2 MLOAD DUP2 LT PUSH2 0xF5 JUMPI INVALID JUMPDEST PUSH1 0x20 MUL PUSH1 0x20 ADD ADD MLOAD PUSH1 0x40 MLOAD DUP6 PUSH4 0xFFFFFFFF AND PUSH1 0xE0 SHL DUP2 MSTORE PUSH1 0x4 ADD PUSH2 0x11B SWAP4 SWAP3 SWAP2 SWAP1 PUSH2 0x9CA JUMP JUMPDEST PUSH1 0x20 PUSH1 0x40 MLOAD DUP1 DUP4 SUB DUP2 DUP8 DUP1 EXTCODESIZE ISZERO DUP1 ISZERO PUSH2 0x133 JUMPI PUSH1 0x0 DUP1 REVERT JUMPDEST POP DUP7 STATICCALL SWAP4 POP POP POP POP DUP1 ISZERO PUSH2 0x164 JUMPI POP PUSH1 0x40 DUP1 MLOAD PUSH1 0x1F RETURNDATASIZE SWAP1 DUP2 ADD PUSH1 0x1F NOT AND DUP3 ADD SWAP1 SWAP3 MSTORE PUSH2 0x161 SWAP2 DUP2 ADD SWAP1 PUSH2 0x881 JUMP JUMPDEST PUSH1 0x1 JUMPDEST PUSH2 0x19E JUMPI RETURNDATASIZE DUP1 DUP1 ISZERO PUSH2 0x192 JUMPI PUSH1 0x40 MLOAD SWAP2 POP PUSH1 0x1F NOT PUSH1 0x3F RETURNDATASIZE ADD AND DUP3 ADD PUSH1 0x40 MSTORE RETURNDATASIZE DUP3 MSTORE RETURNDATASIZE PUSH1 0x0 PUSH1 0x20 DUP5 ADD RETURNDATACOPY PUSH2 0x197 JUMP JUMPDEST PUSH1 0x60 SWAP2 POP JUMPDEST POP POP PUSH2 0x1E2 JUMP JUMPDEST DUP1 DUP5 DUP4 DUP2 MLOAD DUP2 LT PUSH2 0x1AB JUMPI INVALID JUMPDEST PUSH1 0x20 MUL PUSH1 0x20 ADD ADD DUP2 DUP2 MSTORE POP POP DUP4 DUP3 DUP2 MLOAD DUP2 LT PUSH2 0x1C3 JUMPI INVALID JUMPDEST PUSH1 0x20 MUL PUSH1 0x20 ADD ADD MLOAD PUSH1 0x0 EQ ISZERO PUSH2 0x1D9 JUMPI POP PUSH2 0x1E2 JUMP JUMPDEST POP PUSH1 0x1 ADD PUSH2 0xCC JUMP JUMPDEST POP POP SWAP5 SWAP4 POP POP POP POP JUMP JUMPDEST PUSH1 0x40 DUP1 MLOAD PUSH1 0x60 DUP2 DUP2 ADD SWAP1 SWAP3 MSTORE PUSH2 0x252 SWAP1 DUP1 PUSH2 0x20B DUP7 DUP10 PUSH1 0x80 DUP5 ADD PUSH2 0x96B JUMP JUMPDEST PUSH1 0x40 MLOAD PUSH1 0x20 DUP2 DUP4 SUB SUB DUP2 MSTORE SWAP1 PUSH1 0x40 MSTORE DUP2 MSTORE PUSH1 0x20 ADD DUP7 DUP9 PUSH1 0x40 MLOAD PUSH1 0x20 ADD PUSH2 0x232 SWAP3 SWAP2 SWAP1 PUSH2 0x96B JUMP JUMPDEST PUSH1 0x40 MLOAD PUSH1 0x20 DUP2 DUP4 SUB SUB DUP2 MSTORE SWAP1 PUSH1 0x40 MSTORE DUP2 MSTORE PUSH1 0x20 ADD PUSH2 0x29C DUP2 MSTORE POP DUP4 PUSH2 0x3B3 JUMP JUMPDEST SWAP1 POP JUMPDEST SWAP5 SWAP4 POP POP POP POP JUMP JUMPDEST DUP1 PUSH1 0x1 PUSH1 0x1 PUSH1 0xA0 SHL SUB AND DUP3 PUSH1 0x1 PUSH1 0x1 PUSH1 0xA0 SHL SUB AND EQ ISZERO PUSH2 0x298 JUMPI PUSH1 0x40 MLOAD PUSH3 0x461BCD PUSH1 0xE5 SHL DUP2 MSTORE PUSH1 0x4 ADD PUSH2 0x28F SWAP1 PUSH2 0xA03 JUMP JUMPDEST PUSH1 0x40 MLOAD DUP1 SWAP2 SUB SWAP1 REVERT JUMPDEST POP POP JUMP JUMPDEST PUSH1 0x0 DUP1 PUSH1 0x0 DUP6 DUP1 PUSH1 0x20 ADD SWAP1 MLOAD DUP2 ADD SWAP1 PUSH2 0x2B5 SWAP2 SWAP1 PUSH2 0x799 JUMP JUMPDEST SWAP2 POP SWAP2 POP PUSH1 0x0 DUP6 DUP1 PUSH1 0x20 ADD SWAP1 MLOAD DUP2 ADD SWAP1 PUSH2 0x2CF SWAP2 SWAP1 PUSH2 0x77B JUMP JUMPDEST SWAP1 POP ADDRESS PUSH4 0x30D6570D DUP4 DUP6 DUP5 PUSH2 0x2E3 DUP11 PUSH2 0x5C7 JUMP JUMPDEST PUSH1 0x40 MLOAD DUP6 PUSH4 0xFFFFFFFF AND PUSH1 0xE0 SHL DUP2 MSTORE PUSH1 0x4 ADD PUSH2 0x302 SWAP5 SWAP4 SWAP3 SWAP2 SWAP1 PUSH2 0x986 JUMP JUMPDEST PUSH1 0x0 PUSH1 0x40 MLOAD DUP1 DUP4 SUB DUP2 DUP7 DUP1 EXTCODESIZE ISZERO DUP1 ISZERO PUSH2 0x31A JUMPI PUSH1 0x0 DUP1 REVERT JUMPDEST POP GAS STATICCALL SWAP3 POP POP POP DUP1 ISZERO PUSH2 0x34F JUMPI POP PUSH1 0x40 MLOAD RETURNDATASIZE PUSH1 0x0 DUP3 RETURNDATACOPY PUSH1 0x1F RETURNDATASIZE SWAP1 DUP2 ADD PUSH1 0x1F NOT AND DUP3 ADD PUSH1 0x40 MSTORE PUSH2 0x34C SWAP2 SWAP1 DUP2 ADD SWAP1 PUSH2 0x84C JUMP JUMPDEST PUSH1 0x1 JUMPDEST PUSH2 0x390 JUMPI RETURNDATASIZE DUP1 DUP1 ISZERO PUSH2 0x37D JUMPI PUSH1 0x40 MLOAD SWAP2 POP PUSH1 0x1F NOT PUSH1 0x3F RETURNDATASIZE ADD AND DUP3 ADD PUSH1 0x40 MSTORE RETURNDATASIZE DUP3 MSTORE RETURNDATASIZE PUSH1 0x0 PUSH1 0x20 DUP5 ADD RETURNDATACOPY PUSH2 0x382 JUMP JUMPDEST PUSH1 0x60 SWAP2 POP JUMPDEST POP PUSH1 0x0 SWAP5 POP POP POP POP POP PUSH2 0x3AC JUMP JUMPDEST DUP1 PUSH1 0x0 DUP2 MLOAD DUP2 LT PUSH2 0x39D JUMPI INVALID JUMPDEST PUSH1 0x20 MUL PUSH1 0x20 ADD ADD MLOAD SWAP5 POP POP POP POP POP JUMPDEST SWAP4 SWAP3 POP POP POP JUMP JUMPDEST PUSH1 0x60 DUP2 MLOAD PUSH8 0xFFFFFFFFFFFFFFFF DUP2 GT DUP1 ISZERO PUSH2 0x3CD JUMPI PUSH1 0x0 DUP1 REVERT JUMPDEST POP PUSH1 0x40 MLOAD SWAP1 DUP1 DUP3 MSTORE DUP1 PUSH1 0x20 MUL PUSH1 0x20 ADD DUP3 ADD PUSH1 0x40 MSTORE DUP1 ISZERO PUSH2 0x3F7 JUMPI DUP2 PUSH1 0x20 ADD PUSH1 0x20 DUP3 MUL DUP1 CALLDATASIZE DUP4 CALLDATACOPY ADD SWAP1 POP JUMPDEST POP SWAP1 POP DUP2 MLOAD PUSH1 0x0 EQ ISZERO PUSH2 0x409 JUMPI PUSH2 0x5C1 JUMP JUMPDEST PUSH1 0x0 PUSH2 0x43A DUP5 PUSH1 0x0 ADD MLOAD DUP6 PUSH1 0x20 ADD MLOAD DUP6 PUSH1 0x0 DUP2 MLOAD DUP2 LT PUSH2 0x425 JUMPI INVALID JUMPDEST PUSH1 0x20 MUL PUSH1 0x20 ADD ADD MLOAD DUP8 PUSH1 0x40 ADD MLOAD PUSH4 0xFFFFFFFF AND JUMP JUMPDEST SWAP1 POP DUP1 PUSH2 0x447 JUMPI POP PUSH2 0x5C1 JUMP JUMPDEST PUSH1 0x0 PUSH2 0x464 DUP6 PUSH1 0x20 ADD MLOAD DUP7 PUSH1 0x0 ADD MLOAD DUP5 DUP9 PUSH1 0x40 ADD MLOAD PUSH4 0xFFFFFFFF AND JUMP JUMPDEST SWAP1 POP DUP1 PUSH2 0x472 JUMPI POP POP PUSH2 0x5C1 JUMP JUMPDEST PUSH1 0x0 JUMPDEST DUP5 MLOAD DUP2 LT ISZERO PUSH2 0x5BD JUMPI PUSH1 0x0 DUP1 JUMPDEST PUSH1 0x5 DUP2 LT ISZERO PUSH2 0x566 JUMPI PUSH2 0x4A9 DUP8 DUP5 DUP2 MLOAD DUP2 LT PUSH2 0x49A JUMPI INVALID JUMPDEST PUSH1 0x20 MUL PUSH1 0x20 ADD ADD MLOAD DUP6 DUP8 PUSH2 0x608 JUMP JUMPDEST SWAP5 POP DUP5 PUSH2 0x4B5 JUMPI PUSH2 0x566 JUMP JUMPDEST PUSH2 0x4C4 PUSH2 0x2715 PUSH2 0x2710 DUP8 PUSH2 0x608 JUMP JUMPDEST SWAP5 POP DUP5 PUSH2 0x4D0 JUMPI PUSH2 0x566 JUMP JUMPDEST PUSH1 0x0 PUSH2 0x4ED DUP10 PUSH1 0x20 ADD MLOAD DUP11 PUSH1 0x0 ADD MLOAD DUP9 DUP13 PUSH1 0x40 ADD MLOAD PUSH4 0xFFFFFFFF AND JUMP JUMPDEST SWAP1 POP DUP1 PUSH2 0x4FA JUMPI POP PUSH2 0x566 JUMP JUMPDEST DUP1 SWAP5 POP DUP8 DUP5 DUP2 MLOAD DUP2 LT PUSH2 0x509 JUMPI INVALID JUMPDEST PUSH1 0x20 MUL PUSH1 0x20 ADD ADD MLOAD DUP6 LT PUSH2 0x55D JUMPI DUP8 DUP5 DUP2 MLOAD DUP2 LT PUSH2 0x523 JUMPI INVALID JUMPDEST PUSH1 0x20 MUL PUSH1 0x20 ADD ADD MLOAD PUSH2 0x2710 DUP10 DUP7 DUP2 MLOAD DUP2 LT PUSH2 0x53A JUMPI INVALID JUMPDEST PUSH1 0x20 MUL PUSH1 0x20 ADD ADD MLOAD DUP8 SUB MUL DUP2 PUSH2 0x54C JUMPI INVALID JUMPDEST DIV SWAP3 POP PUSH1 0x5 DUP4 GT PUSH2 0x55D JUMPI POP PUSH2 0x566 JUMP JUMPDEST POP PUSH1 0x1 ADD PUSH2 0x482 JUMP JUMPDEST POP DUP1 ISZERO DUP1 PUSH2 0x574 JUMPI POP PUSH1 0x5 DUP2 GT JUMPDEST ISZERO PUSH2 0x57F JUMPI POP PUSH2 0x5BD JUMP JUMPDEST PUSH2 0x59D DUP7 DUP4 DUP2 MLOAD DUP2 LT PUSH2 0x58E JUMPI INVALID JUMPDEST PUSH1 0x20 MUL PUSH1 0x20 ADD ADD MLOAD DUP5 DUP7 PUSH2 0x608 JUMP JUMPDEST DUP6 DUP4 DUP2 MLOAD DUP2 LT PUSH2 0x5A9 JUMPI INVALID JUMPDEST PUSH1 0x20 SWAP1 DUP2 MUL SWAP2 SWAP1 SWAP2 ADD ADD MSTORE POP PUSH1 0x1 ADD PUSH2 0x475 JUMP JUMPDEST POP POP POP JUMPDEST SWAP3 SWAP2 POP POP JUMP JUMPDEST PUSH1 0x40 DUP1 MLOAD PUSH1 0x1 DUP1 DUP3 MSTORE DUP2 DUP4 ADD SWAP1 SWAP3 MSTORE PUSH1 0x60 SWAP2 PUSH1 0x20 DUP1 DUP4 ADD SWAP1 DUP1 CALLDATASIZE DUP4 CALLDATACOPY ADD SWAP1 POP POP SWAP1 POP DUP2 DUP2 PUSH1 0x0 DUP2 MLOAD DUP2 LT PUSH2 0x5F7 JUMPI INVALID JUMPDEST PUSH1 0x20 MUL PUSH1 0x20 ADD ADD DUP2 DUP2 MSTORE POP POP SWAP2 SWAP1 POP JUMP JUMPDEST PUSH1 0x0 DUP4 ISZERO DUP1 PUSH2 0x615 JUMPI POP DUP2 ISZERO JUMPDEST DUP1 PUSH2 0x61E JUMPI POP DUP3 ISZERO JUMPDEST ISZERO PUSH2 0x62B JUMPI POP PUSH1 0x0 PUSH2 0x3AC JUMP JUMPDEST DUP4 DUP3 MUL DUP3 DUP6 DUP3 DUP2 PUSH2 0x638 JUMPI INVALID JUMPDEST DIV EQ PUSH2 0x648 JUMPI PUSH1 0x0 SWAP2 POP POP PUSH2 0x3AC JUMP JUMPDEST DUP4 PUSH1 0x1 DUP6 SUB DUP3 ADD DUP2 PUSH2 0x656 JUMPI INVALID JUMPDEST DIV SWAP6 SWAP5 POP POP POP POP POP JUMP JUMPDEST DUP1 CALLDATALOAD PUSH2 0x5C1 DUP2 PUSH2 0xA82 JUMP JUMPDEST DUP1 MLOAD PUSH2 0x5C1 DUP2 PUSH2 0xA82 JUMP JUMPDEST PUSH1 0x0 DUP3 PUSH1 0x1F DUP4 ADD SLT PUSH2 0x687 JUMPI PUSH1 0x0 DUP1 REVERT JUMPDEST DUP2 CALLDATALOAD PUSH2 0x69A PUSH2 0x695 DUP3 PUSH2 0xA3A JUMP JUMPDEST PUSH2 0xA13 JUMP JUMPDEST SWAP2 POP DUP2 DUP2 DUP4 MSTORE PUSH1 0x20 DUP5 ADD SWAP4 POP PUSH1 0x20 DUP2 ADD SWAP1 POP DUP4 DUP6 PUSH1 0x20 DUP5 MUL DUP3 ADD GT ISZERO PUSH2 0x6BF JUMPI PUSH1 0x0 DUP1 REVERT JUMPDEST PUSH1 0x0 JUMPDEST DUP4 DUP2 LT ISZERO PUSH2 0x6EB JUMPI DUP2 PUSH2 0x6D5 DUP9 DUP3 PUSH2 0x765 JUMP JUMPDEST DUP5 MSTORE POP PUSH1 0x20 SWAP3 DUP4 ADD SWAP3 SWAP2 SWAP1 SWAP2 ADD SWAP1 PUSH1 0x1 ADD PUSH2 0x6C2 JUMP JUMPDEST POP POP POP POP SWAP3 SWAP2 POP POP JUMP JUMPDEST PUSH1 0x0 DUP3 PUSH1 0x1F DUP4 ADD SLT PUSH2 0x706 JUMPI PUSH1 0x0 DUP1 REVERT JUMPDEST DUP2 MLOAD PUSH2 0x714 PUSH2 0x695 DUP3 PUSH2 0xA3A JUMP JUMPDEST SWAP2 POP DUP2 DUP2 DUP4 MSTORE PUSH1 0x20 DUP5 ADD SWAP4 POP PUSH1 0x20 DUP2 ADD SWAP1 POP DUP4 DUP6 PUSH1 0x20 DUP5 MUL DUP3 ADD GT ISZERO PUSH2 0x739 JUMPI PUSH1 0x0 DUP1 REVERT JUMPDEST PUSH1 0x0 JUMPDEST DUP4 DUP2 LT ISZERO PUSH2 0x6EB JUMPI DUP2 PUSH2 0x74F DUP9 DUP3 PUSH2 0x770 JUMP JUMPDEST DUP5 MSTORE POP PUSH1 0x20 SWAP3 DUP4 ADD SWAP3 SWAP2 SWAP1 SWAP2 ADD SWAP1 PUSH1 0x1 ADD PUSH2 0x73C JUMP JUMPDEST DUP1 CALLDATALOAD PUSH2 0x5C1 DUP2 PUSH2 0xA99 JUMP JUMPDEST DUP1 MLOAD PUSH2 0x5C1 DUP2 PUSH2 0xA99 JUMP JUMPDEST PUSH1 0x0 PUSH1 0x20 DUP3 DUP5 SUB SLT ISZERO PUSH2 0x78D JUMPI PUSH1 0x0 DUP1 REVERT JUMPDEST PUSH1 0x0 PUSH2 0x255 DUP5 DUP5 PUSH2 0x66B JUMP JUMPDEST PUSH1 0x0 DUP1 PUSH1 0x40 DUP4 DUP6 SUB SLT ISZERO PUSH2 0x7AC JUMPI PUSH1 0x0 DUP1 REVERT JUMPDEST PUSH1 0x0 PUSH2 0x7B8 DUP6 DUP6 PUSH2 0x66B JUMP JUMPDEST SWAP3 POP POP PUSH1 0x20 PUSH2 0x7C9 DUP6 DUP3 DUP7 ADD PUSH2 0x66B JUMP JUMPDEST SWAP2 POP POP SWAP3 POP SWAP3 SWAP1 POP JUMP JUMPDEST PUSH1 0x0 DUP1 PUSH1 0x0 DUP1 PUSH1 0x80 DUP6 DUP8 SUB SLT ISZERO PUSH2 0x7E9 JUMPI PUSH1 0x0 DUP1 REVERT JUMPDEST PUSH1 0x0 PUSH2 0x7F5 DUP8 DUP8 PUSH2 0x660 JUMP JUMPDEST SWAP5 POP POP PUSH1 0x20 PUSH2 0x806 DUP8 DUP3 DUP9 ADD PUSH2 0x660 JUMP JUMPDEST SWAP4 POP POP PUSH1 0x40 PUSH2 0x817 DUP8 DUP3 DUP9 ADD PUSH2 0x660 JUMP JUMPDEST SWAP3 POP POP PUSH1 0x60 DUP6 ADD CALLDATALOAD PUSH8 0xFFFFFFFFFFFFFFFF DUP2 GT ISZERO PUSH2 0x834 JUMPI PUSH1 0x0 DUP1 REVERT JUMPDEST PUSH2 0x840 DUP8 DUP3 DUP9 ADD PUSH2 0x676 JUMP JUMPDEST SWAP2 POP POP SWAP3 SWAP6 SWAP2 SWAP5 POP SWAP3 POP JUMP JUMPDEST PUSH1 0x0 PUSH1 0x20 DUP3 DUP5 SUB SLT ISZERO PUSH2 0x85E JUMPI PUSH1 0x0 DUP1 REVERT JUMPDEST DUP2 MLOAD PUSH8 0xFFFFFFFFFFFFFFFF DUP2 GT ISZERO PUSH2 0x875 JUMPI PUSH1 0x0 DUP1 REVERT JUMPDEST PUSH2 0x255 DUP5 DUP3 DUP6 ADD PUSH2 0x6F5 JUMP JUMPDEST PUSH1 0x0 PUSH1 0x20 DUP3 DUP5 SUB SLT ISZERO PUSH2 0x893 JUMPI PUSH1 0x0 DUP1 REVERT JUMPDEST PUSH1 0x0 PUSH2 0x255 DUP5 DUP5 PUSH2 0x770 JUMP JUMPDEST PUSH1 0x0 PUSH2 0x8AB DUP4 DUP4 PUSH2 0x962 JUMP JUMPDEST POP POP PUSH1 0x20 ADD SWAP1 JUMP JUMPDEST PUSH2 0x8BC DUP2 PUSH2 0xA6E JUMP JUMPDEST DUP3 MSTORE POP POP JUMP JUMPDEST PUSH1 0x0 PUSH2 0x8CD DUP3 PUSH2 0xA61 JUMP JUMPDEST PUSH2 0x8D7 DUP2 DUP6 PUSH2 0xA65 JUMP JUMPDEST SWAP4 POP PUSH2 0x8E2 DUP4 PUSH2 0xA5B JUMP JUMPDEST DUP1 PUSH1 0x0 JUMPDEST DUP4 DUP2 LT ISZERO PUSH2 0x910 JUMPI DUP2 MLOAD PUSH2 0x8FA DUP9 DUP3 PUSH2 0x89F JUMP JUMPDEST SWAP8 POP PUSH2 0x905 DUP4 PUSH2 0xA5B JUMP JUMPDEST SWAP3 POP POP PUSH1 0x1 ADD PUSH2 0x8E6 JUMP JUMPDEST POP SWAP5 SWAP6 SWAP5 POP POP POP POP POP JUMP JUMPDEST PUSH1 0x0 PUSH2 0x928 PUSH1 0x25 DUP4 PUSH2 0xA65 JUMP JUMPDEST PUSH32 0x455243323042726964676553616D706C65722F494E56414C49445F544F4B454E DUP2 MSTORE PUSH5 0x2FA820A4A9 PUSH1 0xD9 SHL PUSH1 0x20 DUP3 ADD MSTORE PUSH1 0x40 ADD SWAP3 SWAP2 POP POP JUMP JUMPDEST PUSH2 0x8BC DUP2 PUSH2 0xA7F JUMP JUMPDEST PUSH1 0x40 DUP2 ADD PUSH2 0x979 DUP3 DUP6 PUSH2 0x8B3 JUMP JUMPDEST PUSH2 0x3AC PUSH1 0x20 DUP4 ADD DUP5 PUSH2 0x8B3 JUMP JUMPDEST PUSH1 0x80 DUP2 ADD PUSH2 0x994 DUP3 DUP8 PUSH2 0x8B3 JUMP JUMPDEST PUSH2 0x9A1 PUSH1 0x20 DUP4 ADD DUP7 PUSH2 0x8B3 JUMP JUMPDEST PUSH2 0x9AE PUSH1 0x40 DUP4 ADD DUP6 PUSH2 0x8B3 JUMP JUMPDEST DUP2 DUP2 SUB PUSH1 0x60 DUP4 ADD MSTORE PUSH2 0x9C0 DUP2 DUP5 PUSH2 0x8C2 JUMP JUMPDEST SWAP7 SWAP6 POP POP POP POP POP POP JUMP JUMPDEST PUSH1 0x60 DUP2 ADD PUSH2 0x9D8 DUP3 DUP7 PUSH2 0x8B3 JUMP JUMPDEST PUSH2 0x9E5 PUSH1 0x20 DUP4 ADD DUP6 PUSH2 0x8B3 JUMP JUMPDEST PUSH2 0x255 PUSH1 0x40 DUP4 ADD DUP5 PUSH2 0x962 JUMP JUMPDEST PUSH1 0x20 DUP1 DUP3 MSTORE DUP2 ADD PUSH2 0x3AC DUP2 DUP5 PUSH2 0x8C2 JUMP JUMPDEST PUSH1 0x20 DUP1 DUP3 MSTORE DUP2 ADD PUSH2 0x5C1 DUP2 PUSH2 0x91B JUMP JUMPDEST PUSH1 0x40 MLOAD DUP2 DUP2 ADD PUSH8 0xFFFFFFFFFFFFFFFF DUP2 GT DUP3 DUP3 LT OR ISZERO PUSH2 0xA32 JUMPI PUSH1 0x0 DUP1 REVERT JUMPDEST PUSH1 0x40 MSTORE SWAP2 SWAP1 POP JUMP JUMPDEST PUSH1 0x0 PUSH8 0xFFFFFFFFFFFFFFFF DUP3 GT ISZERO PUSH2 0xA51 JUMPI PUSH1 0x0 DUP1 REVERT JUMPDEST POP PUSH1 0x20 SWAP1 DUP2 MUL ADD SWAP1 JUMP JUMPDEST PUSH1 0x20 ADD SWAP1 JUMP JUMPDEST MLOAD SWAP1 JUMP JUMPDEST SWAP1 DUP2 MSTORE PUSH1 0x20 ADD SWAP1 JUMP JUMPDEST PUSH1 0x0 PUSH1 0x1 PUSH1 0x1 PUSH1 0xA0 SHL SUB DUP3 AND PUSH2 0x5C1 JUMP JUMPDEST SWAP1 JUMP JUMPDEST PUSH2 0xA8B DUP2 PUSH2 0xA6E JUMP JUMPDEST DUP2 EQ PUSH2 0xA96 JUMPI PUSH1 0x0 DUP1 REVERT JUMPDEST POP JUMP JUMPDEST PUSH2 0xA8B DUP2 PUSH2 0xA7F JUMP INVALID LOG2 PUSH5 0x6970667358 0x22 SLT KECCAK256 DUP15 COINBASE 0xEB PUSH15 0x81E5912ABFC832970F6A9533CED32F DUP5 DUP1 DUP8 GAS CALLER SUB DIV ORIGIN 0xCD 0xDC 0xC0 EXP PUSH5 0x64736F6C63 NUMBER STOP MOD 0xC STOP CALLER "
            }
        }
    },
    "sourceTreeHashHex": "0x5f64ecc1e3e934ea9682be3f41e7e868baadf65301d2ca594382b95f47d5ee15",
    "compiler": {
        "name": "solc",
        "version": "0.6.12+commit.27d51765",
        "settings": {
            "remappings": [
                "@0x/contracts-utils=/Users/kyuc/code/0x/protocol/packages/asset-swapper/node_modules/@0x/contracts-utils",
                "@0x/contracts-erc20=/Users/kyuc/code/0x/protocol/packages/asset-swapper/node_modules/@0x/contracts-erc20",
                "@0x/contracts-zero-ex=/Users/kyuc/code/0x/protocol/packages/asset-swapper/node_modules/@0x/contracts-zero-ex"
            ],
            "optimizer": {
                "enabled": true,
                "runs": 200,
                "details": {
                    "yul": false,
                    "deduplicate": true
                }
            },
            "outputSelection": {
                "*": {
                    "*": [
                        "abi",
                        "devdoc",
                        "evm.bytecode.object",
                        "evm.bytecode.sourceMap",
                        "evm.deployedBytecode.object",
                        "evm.deployedBytecode.sourceMap"
                    ]
                }
            },
            "evmVersion": "istanbul"
        }
    },
    "chains": {}
}