{
    "schemaVersion": "2.0.0",
    "contractName": "NativeOrderSampler",
    "compilerOutput": {
        "abi": [
            {
                "inputs": [
                    {
                        "components": [
                            {
                                "internalType": "contract IERC20TokenV06",
                                "name": "makerToken",
                                "type": "address"
                            },
                            {
                                "internalType": "contract IERC20TokenV06",
                                "name": "takerToken",
                                "type": "address"
                            },
                            {
                                "internalType": "uint128",
                                "name": "makerAmount",
                                "type": "uint128"
                            },
                            {
                                "internalType": "uint128",
                                "name": "takerAmount",
                                "type": "uint128"
                            },
                            {
                                "internalType": "uint128",
                                "name": "takerTokenFeeAmount",
                                "type": "uint128"
                            },
                            {
                                "internalType": "address",
                                "name": "maker",
                                "type": "address"
                            },
                            {
                                "internalType": "address",
                                "name": "taker",
                                "type": "address"
                            },
                            {
                                "internalType": "address",
                                "name": "sender",
                                "type": "address"
                            },
                            {
                                "internalType": "address",
                                "name": "feeRecipient",
                                "type": "address"
                            },
                            {
                                "internalType": "bytes32",
                                "name": "pool",
                                "type": "bytes32"
                            },
                            {
                                "internalType": "uint64",
                                "name": "expiry",
                                "type": "uint64"
                            },
                            {
                                "internalType": "uint256",
                                "name": "salt",
                                "type": "uint256"
                            }
                        ],
                        "internalType": "struct IExchange.LimitOrder[]",
                        "name": "orders",
                        "type": "tuple[]"
                    },
                    {
                        "components": [
                            {
                                "internalType": "enum IExchange.SignatureType",
                                "name": "signatureType",
                                "type": "uint8"
                            },
                            {
                                "internalType": "uint8",
                                "name": "v",
                                "type": "uint8"
                            },
                            {
                                "internalType": "bytes32",
                                "name": "r",
                                "type": "bytes32"
                            },
                            {
                                "internalType": "bytes32",
                                "name": "s",
                                "type": "bytes32"
                            }
                        ],
                        "internalType": "struct IExchange.Signature[]",
                        "name": "orderSignatures",
                        "type": "tuple[]"
                    },
                    {
                        "internalType": "contract IExchange",
                        "name": "exchange",
                        "type": "address"
                    }
                ],
                "name": "getLimitOrderFillableMakerAssetAmounts",
                "outputs": [
                    {
                        "internalType": "uint256[]",
                        "name": "orderFillableMakerAssetAmounts",
                        "type": "uint256[]"
                    }
                ],
                "stateMutability": "view",
                "type": "function"
            },
            {
                "inputs": [
                    {
                        "components": [
                            {
                                "internalType": "contract IERC20TokenV06",
                                "name": "makerToken",
                                "type": "address"
                            },
                            {
                                "internalType": "contract IERC20TokenV06",
                                "name": "takerToken",
                                "type": "address"
                            },
                            {
                                "internalType": "uint128",
                                "name": "makerAmount",
                                "type": "uint128"
                            },
                            {
                                "internalType": "uint128",
                                "name": "takerAmount",
                                "type": "uint128"
                            },
                            {
                                "internalType": "uint128",
                                "name": "takerTokenFeeAmount",
                                "type": "uint128"
                            },
                            {
                                "internalType": "address",
                                "name": "maker",
                                "type": "address"
                            },
                            {
                                "internalType": "address",
                                "name": "taker",
                                "type": "address"
                            },
                            {
                                "internalType": "address",
                                "name": "sender",
                                "type": "address"
                            },
                            {
                                "internalType": "address",
                                "name": "feeRecipient",
                                "type": "address"
                            },
                            {
                                "internalType": "bytes32",
                                "name": "pool",
                                "type": "bytes32"
                            },
                            {
                                "internalType": "uint64",
                                "name": "expiry",
                                "type": "uint64"
                            },
                            {
                                "internalType": "uint256",
                                "name": "salt",
                                "type": "uint256"
                            }
                        ],
                        "internalType": "struct IExchange.LimitOrder",
                        "name": "order",
                        "type": "tuple"
                    },
                    {
                        "components": [
                            {
                                "internalType": "enum IExchange.SignatureType",
                                "name": "signatureType",
                                "type": "uint8"
                            },
                            {
                                "internalType": "uint8",
                                "name": "v",
                                "type": "uint8"
                            },
                            {
                                "internalType": "bytes32",
                                "name": "r",
                                "type": "bytes32"
                            },
                            {
                                "internalType": "bytes32",
                                "name": "s",
                                "type": "bytes32"
                            }
                        ],
                        "internalType": "struct IExchange.Signature",
                        "name": "signature",
                        "type": "tuple"
                    },
                    {
                        "internalType": "contract IExchange",
                        "name": "exchange",
                        "type": "address"
                    }
                ],
                "name": "getLimitOrderFillableTakerAmount",
                "outputs": [
                    {
                        "internalType": "uint256",
                        "name": "fillableTakerAmount",
                        "type": "uint256"
                    }
                ],
                "stateMutability": "view",
                "type": "function"
            },
            {
                "inputs": [
                    {
                        "components": [
                            {
                                "internalType": "contract IERC20TokenV06",
                                "name": "makerToken",
                                "type": "address"
                            },
                            {
                                "internalType": "contract IERC20TokenV06",
                                "name": "takerToken",
                                "type": "address"
                            },
                            {
                                "internalType": "uint128",
                                "name": "makerAmount",
                                "type": "uint128"
                            },
                            {
                                "internalType": "uint128",
                                "name": "takerAmount",
                                "type": "uint128"
                            },
                            {
                                "internalType": "uint128",
                                "name": "takerTokenFeeAmount",
                                "type": "uint128"
                            },
                            {
                                "internalType": "address",
                                "name": "maker",
                                "type": "address"
                            },
                            {
                                "internalType": "address",
                                "name": "taker",
                                "type": "address"
                            },
                            {
                                "internalType": "address",
                                "name": "sender",
                                "type": "address"
                            },
                            {
                                "internalType": "address",
                                "name": "feeRecipient",
                                "type": "address"
                            },
                            {
                                "internalType": "bytes32",
                                "name": "pool",
                                "type": "bytes32"
                            },
                            {
                                "internalType": "uint64",
                                "name": "expiry",
                                "type": "uint64"
                            },
                            {
                                "internalType": "uint256",
                                "name": "salt",
                                "type": "uint256"
                            }
                        ],
                        "internalType": "struct IExchange.LimitOrder[]",
                        "name": "orders",
                        "type": "tuple[]"
                    },
                    {
                        "components": [
                            {
                                "internalType": "enum IExchange.SignatureType",
                                "name": "signatureType",
                                "type": "uint8"
                            },
                            {
                                "internalType": "uint8",
                                "name": "v",
                                "type": "uint8"
                            },
                            {
                                "internalType": "bytes32",
                                "name": "r",
                                "type": "bytes32"
                            },
                            {
                                "internalType": "bytes32",
                                "name": "s",
                                "type": "bytes32"
                            }
                        ],
                        "internalType": "struct IExchange.Signature[]",
                        "name": "orderSignatures",
                        "type": "tuple[]"
                    },
                    {
                        "internalType": "contract IExchange",
                        "name": "exchange",
                        "type": "address"
                    }
                ],
                "name": "getLimitOrderFillableTakerAssetAmounts",
                "outputs": [
                    {
                        "internalType": "uint256[]",
                        "name": "orderFillableTakerAssetAmounts",
                        "type": "uint256[]"
                    }
                ],
                "stateMutability": "view",
                "type": "function"
            }
        ],
        "devdoc": {
            "kind": "dev",
            "methods": {
                "getLimitOrderFillableMakerAssetAmounts((address,address,uint128,uint128,uint128,address,address,address,address,bytes32,uint64,uint256)[],(uint8,uint8,bytes32,bytes32)[],address)": {
                    "details": "Queries the fillable taker asset amounts of native orders.      Effectively ignores orders that have empty signatures or",
                    "params": {
                        "exchange": "The V4 exchange.",
                        "orderSignatures": "Signatures for each respective order in `orders`.",
                        "orders": "Native orders to query."
                    },
                    "returns": {
                        "orderFillableMakerAssetAmounts": "How much maker asset can be filled         by each order in `orders`."
                    }
                },
                "getLimitOrderFillableTakerAmount((address,address,uint128,uint128,uint128,address,address,address,address,bytes32,uint64,uint256),(uint8,uint8,bytes32,bytes32),address)": {
                    "details": "Get the fillable taker amount of an order, taking into account      order state, maker fees, and maker balances."
                },
                "getLimitOrderFillableTakerAssetAmounts((address,address,uint128,uint128,uint128,address,address,address,address,bytes32,uint64,uint256)[],(uint8,uint8,bytes32,bytes32)[],address)": {
                    "details": "Queries the fillable taker asset amounts of native orders.      Effectively ignores orders that have empty signatures or      maker/taker asset amounts (returning 0).",
                    "params": {
                        "exchange": "The V4 exchange.",
                        "orderSignatures": "Signatures for each respective order in `orders`.",
                        "orders": "Native limit orders to query."
                    },
                    "returns": {
                        "orderFillableTakerAssetAmounts": "How much taker asset can be filled         by each order in `orders`."
                    }
                }
            },
            "stateVariables": {
                "DEFAULT_CALL_GAS": {
                    "details": "Gas limit for calls to `getOrderFillableTakerAmount()`."
                }
            },
            "version": 1
        },
        "evm": {
            "bytecode": {
                "linkReferences": {},
                "object": "0x608060405234801561001057600080fd5b50610de3806100206000396000f3fe608060405234801561001057600080fd5b50600436106100415760003560e01c80631022742b1461004657806366a1ac6b146100765780639bf3ee35146100a6575b600080fd5b610060600480360381019061005b9190610917565b6100d6565b60405161006d9190610c33565b60405180910390f35b610090600480360381019061008b9190610917565b610264565b60405161009d9190610c33565b60405180910390f35b6100c060048036038101906100bb91906109f9565b610336565b6040516100cd9190610d07565b60405180910390f35b6060835167ffffffffffffffff811180156100f057600080fd5b5060405190808252806020026020018201604052801561011f5781602001602082028036833780820191505090505b50905060005b8451811461025c573073ffffffffffffffffffffffffffffffffffffffff16639bf3ee3562030d4087848151811061015957fe5b602002602001015187858151811061016d57fe5b6020026020010151876040518563ffffffff1660e01b815260040161019493929190610ccf565b60206040518083038187803b1580156101ac57600080fd5b5086fa935050505080156101de57506040513d601f19601f820116820180604052508101906101db9190610ad5565b60015b610234573d806000811461020e576040519150601f19603f3d011682016040523d82523d6000602084013e610213565b606091505b50600083838151811061022257fe5b6020026020010181815250505061024f565b8083838151811061024157fe5b602002602001018181525050505b8080600101915050610125565b509392505050565b60606102718484846100d6565b905060005b845181101561032e57600082828151811061028d57fe5b6020026020010151146103235761030a8282815181106102a957fe5b60200260200101518683815181106102bd57fe5b6020026020010151606001516fffffffffffffffffffffffffffffffff168784815181106102e757fe5b6020026020010151604001516fffffffffffffffffffffffffffffffff166104fa565b82828151811061031657fe5b6020026020010181815250505b806001019050610276565b509392505050565b600080600381111561034457fe5b8360000151600381111561035457fe5b148061037a57506001600381111561036857fe5b8360000151600381111561037857fe5b145b8061039b5750600084604001516fffffffffffffffffffffffffffffffff16145b806103bc5750600084606001516fffffffffffffffffffffffffffffffff16145b156103ca57600090506104f3565b6103d26106b6565b6000808473ffffffffffffffffffffffffffffffffffffffff16631fb0979588886040518363ffffffff1660e01b8152600401610410929190610ca7565b60a06040518083038186803b15801561042857600080fd5b505afa15801561043c573d6000803e3d6000fd5b505050506040513d601f19601f820116820180604052508101906104609190610a44565b9250925092506001600481111561047357fe5b8360200151600481111561048357fe5b14158061048e575080155b806104c95750600073ffffffffffffffffffffffffffffffffffffffff16876000015173ffffffffffffffffffffffffffffffffffffffff16145b156104da57600093505050506104f3565b816fffffffffffffffffffffffffffffffff1693505050505b9392505050565b60006105468361053861051760018761054f90919063ffffffff16565b61052a868961057990919063ffffffff16565b6105c390919063ffffffff16565b6105f290919063ffffffff16565b90509392505050565b60008282111561056e5761056d61056860028585610629565b6106ae565b5b818303905092915050565b60008083141561058c57600090506105bd565b600082840290508284828161059d57fe5b04146105b8576105b76105b260018686610629565b6106ae565b5b809150505b92915050565b6000808284019050838110156105e8576105e76105e260008686610629565b6106ae565b5b8091505092915050565b6000808214156106115761061061060b60038585610629565b6106ae565b5b600082848161061c57fe5b0490508091505092915050565b606063e946c1bb60e01b84848460405160240161064893929190610c7f565b604051602081830303815290604052907bffffffffffffffffffffffffffffffffffffffffffffffffffffffff19166020820180517bffffffffffffffffffffffffffffffffffffffffffffffffffffffff838183161783525050505090509392505050565b805160208201fd5b604051806060016040528060008019168152602001600060048111156106d857fe5b815260200160006fffffffffffffffffffffffffffffffff1681525090565b60008135905061070681610d75565b92915050565b600082601f83011261071c578081fd5b813561072f61072a82610d45565b610d18565b9150818183526020808401915080850160808783828702890101111561075457600080fd5b60005b8581101561078057610769898461087b565b855283850194508183019250600181019050610757565b50505050505092915050565b600061018080838503121561079f578182fd5b6107a881610d18565b9150506107b583836106f7565b81526107c483602084016106f7565b60208201526107d683604084016108e0565b60408201526107e883606084016108e0565b60608201526107fa83608084016108e0565b608082015261080c8360a084016106f7565b60a082015261081e8360c084016106f7565b60c08201526108308360e084016106f7565b60e0820152610100610844848285016106f7565b8183015250610120808301358183015250610140610864848285016108f5565b818301525061016080830135818301525092915050565b60006080828403121561088c578081fd5b6108966080610d18565b90508135600481106108a757600080fd5b80825250602082013560ff811681146108bf57600080fd5b80602083015250604082013560408201526060820135606082015292915050565b6000813590506108ef81610d8c565b92915050565b60008135905067ffffffffffffffff8116811461091157600080fd5b92915050565b60008060006060848603121561092b578283fd5b833567ffffffffffffffff80821115610942578485fd5b818601915086601f830112610955578485fd5b813561096861096382610d45565b610d18565b80828252602080830192508086016101808c838288028a0101111561098b578a8bfd5b8a97505b858810156109b8576109a18d8361078c565b85528285019450808201915060018801975061098f565b5050819850808a0135955050505050808211156109d3578384fd5b506109e08682870161070c565b9250506109f085604086016106f7565b90509250925092565b60008060006102208486031215610a0e578283fd5b610a18858561078c565b9250610a2885610180860161087b565b9150610200840135610a3981610d75565b809150509250925092565b600080600083850360a0811215610a59578384fd5b6060811215610a66578384fd5b50610a716060610d18565b84518152602085015160058110610a86578485fd5b806020830152506040850151610a9b81610d8c565b80604083015250809350506060840151610ab481610d8c565b8092505060808401518015158114610aca578182fd5b809150509250925092565b600060208284031215610ae6578081fd5b8151905092915050565b60018060a01b03811682525050565b610b0a828251610af0565b6020810151610b1c6020840182610af0565b506040810151610b2f6040840182610c09565b506060810151610b426060840182610c09565b506080810151610b556080840182610c09565b5060a0810151610b6860a0840182610af0565b5060c0810151610b7b60c0840182610af0565b5060e0810151610b8e60e0840182610af0565b5061010080820151610ba282850182610af0565b505061012080820151818401525061014080820151610bc382850182610c22565b50506101608082015181840152505050565b8051610be081610d68565b8083525060ff602082015116602083015260408101516040830152606081015160608301525050565b6fffffffffffffffffffffffffffffffff811682525050565b67ffffffffffffffff811682525050565b600060208083018184528085518083526040860191508387019250845b81811015610c71578351835284830192508484019350600181019050610c50565b505080935050505092915050565b6000606082019050610c9085610d68565b848252836020830152826040830152949350505050565b600061020082019050610cba8285610aff565b610cc8610180830184610bd5565b9392505050565b600061022082019050610ce28286610aff565b610cf0610180830185610bd5565b60018060a01b038316610200830152949350505050565b600060208201905082825292915050565b6000604051905081810181811067ffffffffffffffff82111715610d3b57600080fd5b8060405250919050565b600067ffffffffffffffff821115610d5b578081fd5b6020808302019050919050565b60048110610d7257fe5b50565b60018060a01b0381168114610d8957600080fd5b50565b6fffffffffffffffffffffffffffffffff81168114610daa57600080fd5b5056fea2646970667358221220c6c7a2e606f0ba58ce853bb6d7ee73cca88644a3ad4c39e9853b9413ae1e811f64736f6c634300060c0033",
                "opcodes": "PUSH1 0x80 PUSH1 0x40 MSTORE CALLVALUE DUP1 ISZERO PUSH2 0x10 JUMPI PUSH1 0x0 DUP1 REVERT JUMPDEST POP PUSH2 0xDE3 DUP1 PUSH2 0x20 PUSH1 0x0 CODECOPY PUSH1 0x0 RETURN INVALID PUSH1 0x80 PUSH1 0x40 MSTORE CALLVALUE DUP1 ISZERO PUSH2 0x10 JUMPI PUSH1 0x0 DUP1 REVERT JUMPDEST POP PUSH1 0x4 CALLDATASIZE LT PUSH2 0x41 JUMPI PUSH1 0x0 CALLDATALOAD PUSH1 0xE0 SHR DUP1 PUSH4 0x1022742B EQ PUSH2 0x46 JUMPI DUP1 PUSH4 0x66A1AC6B EQ PUSH2 0x76 JUMPI DUP1 PUSH4 0x9BF3EE35 EQ PUSH2 0xA6 JUMPI JUMPDEST PUSH1 0x0 DUP1 REVERT JUMPDEST PUSH2 0x60 PUSH1 0x4 DUP1 CALLDATASIZE SUB DUP2 ADD SWAP1 PUSH2 0x5B SWAP2 SWAP1 PUSH2 0x917 JUMP JUMPDEST PUSH2 0xD6 JUMP JUMPDEST PUSH1 0x40 MLOAD PUSH2 0x6D SWAP2 SWAP1 PUSH2 0xC33 JUMP JUMPDEST PUSH1 0x40 MLOAD DUP1 SWAP2 SUB SWAP1 RETURN JUMPDEST PUSH2 0x90 PUSH1 0x4 DUP1 CALLDATASIZE SUB DUP2 ADD SWAP1 PUSH2 0x8B SWAP2 SWAP1 PUSH2 0x917 JUMP JUMPDEST PUSH2 0x264 JUMP JUMPDEST PUSH1 0x40 MLOAD PUSH2 0x9D SWAP2 SWAP1 PUSH2 0xC33 JUMP JUMPDEST PUSH1 0x40 MLOAD DUP1 SWAP2 SUB SWAP1 RETURN JUMPDEST PUSH2 0xC0 PUSH1 0x4 DUP1 CALLDATASIZE SUB DUP2 ADD SWAP1 PUSH2 0xBB SWAP2 SWAP1 PUSH2 0x9F9 JUMP JUMPDEST PUSH2 0x336 JUMP JUMPDEST PUSH1 0x40 MLOAD PUSH2 0xCD SWAP2 SWAP1 PUSH2 0xD07 JUMP JUMPDEST PUSH1 0x40 MLOAD DUP1 SWAP2 SUB SWAP1 RETURN JUMPDEST PUSH1 0x60 DUP4 MLOAD PUSH8 0xFFFFFFFFFFFFFFFF DUP2 GT DUP1 ISZERO PUSH2 0xF0 JUMPI PUSH1 0x0 DUP1 REVERT JUMPDEST POP PUSH1 0x40 MLOAD SWAP1 DUP1 DUP3 MSTORE DUP1 PUSH1 0x20 MUL PUSH1 0x20 ADD DUP3 ADD PUSH1 0x40 MSTORE DUP1 ISZERO PUSH2 0x11F JUMPI DUP2 PUSH1 0x20 ADD PUSH1 0x20 DUP3 MUL DUP1 CALLDATASIZE DUP4 CALLDATACOPY DUP1 DUP3 ADD SWAP2 POP POP SWAP1 POP JUMPDEST POP SWAP1 POP PUSH1 0x0 JUMPDEST DUP5 MLOAD DUP2 EQ PUSH2 0x25C JUMPI ADDRESS PUSH20 0xFFFFFFFFFFFFFFFFFFFFFFFFFFFFFFFFFFFFFFFF AND PUSH4 0x9BF3EE35 PUSH3 0x30D40 DUP8 DUP5 DUP2 MLOAD DUP2 LT PUSH2 0x159 JUMPI INVALID JUMPDEST PUSH1 0x20 MUL PUSH1 0x20 ADD ADD MLOAD DUP8 DUP6 DUP2 MLOAD DUP2 LT PUSH2 0x16D JUMPI INVALID JUMPDEST PUSH1 0x20 MUL PUSH1 0x20 ADD ADD MLOAD DUP8 PUSH1 0x40 MLOAD DUP6 PUSH4 0xFFFFFFFF AND PUSH1 0xE0 SHL DUP2 MSTORE PUSH1 0x4 ADD PUSH2 0x194 SWAP4 SWAP3 SWAP2 SWAP1 PUSH2 0xCCF JUMP JUMPDEST PUSH1 0x20 PUSH1 0x40 MLOAD DUP1 DUP4 SUB DUP2 DUP8 DUP1 EXTCODESIZE ISZERO DUP1 ISZERO PUSH2 0x1AC JUMPI PUSH1 0x0 DUP1 REVERT JUMPDEST POP DUP7 STATICCALL SWAP4 POP POP POP POP DUP1 ISZERO PUSH2 0x1DE JUMPI POP PUSH1 0x40 MLOAD RETURNDATASIZE PUSH1 0x1F NOT PUSH1 0x1F DUP3 ADD AND DUP3 ADD DUP1 PUSH1 0x40 MSTORE POP DUP2 ADD SWAP1 PUSH2 0x1DB SWAP2 SWAP1 PUSH2 0xAD5 JUMP JUMPDEST PUSH1 0x1 JUMPDEST PUSH2 0x234 JUMPI RETURNDATASIZE DUP1 PUSH1 0x0 DUP2 EQ PUSH2 0x20E JUMPI PUSH1 0x40 MLOAD SWAP2 POP PUSH1 0x1F NOT PUSH1 0x3F RETURNDATASIZE ADD AND DUP3 ADD PUSH1 0x40 MSTORE RETURNDATASIZE DUP3 MSTORE RETURNDATASIZE PUSH1 0x0 PUSH1 0x20 DUP5 ADD RETURNDATACOPY PUSH2 0x213 JUMP JUMPDEST PUSH1 0x60 SWAP2 POP JUMPDEST POP PUSH1 0x0 DUP4 DUP4 DUP2 MLOAD DUP2 LT PUSH2 0x222 JUMPI INVALID JUMPDEST PUSH1 0x20 MUL PUSH1 0x20 ADD ADD DUP2 DUP2 MSTORE POP POP POP PUSH2 0x24F JUMP JUMPDEST DUP1 DUP4 DUP4 DUP2 MLOAD DUP2 LT PUSH2 0x241 JUMPI INVALID JUMPDEST PUSH1 0x20 MUL PUSH1 0x20 ADD ADD DUP2 DUP2 MSTORE POP POP POP JUMPDEST DUP1 DUP1 PUSH1 0x1 ADD SWAP2 POP POP PUSH2 0x125 JUMP JUMPDEST POP SWAP4 SWAP3 POP POP POP JUMP JUMPDEST PUSH1 0x60 PUSH2 0x271 DUP5 DUP5 DUP5 PUSH2 0xD6 JUMP JUMPDEST SWAP1 POP PUSH1 0x0 JUMPDEST DUP5 MLOAD DUP2 LT ISZERO PUSH2 0x32E JUMPI PUSH1 0x0 DUP3 DUP3 DUP2 MLOAD DUP2 LT PUSH2 0x28D JUMPI INVALID JUMPDEST PUSH1 0x20 MUL PUSH1 0x20 ADD ADD MLOAD EQ PUSH2 0x323 JUMPI PUSH2 0x30A DUP3 DUP3 DUP2 MLOAD DUP2 LT PUSH2 0x2A9 JUMPI INVALID JUMPDEST PUSH1 0x20 MUL PUSH1 0x20 ADD ADD MLOAD DUP7 DUP4 DUP2 MLOAD DUP2 LT PUSH2 0x2BD JUMPI INVALID JUMPDEST PUSH1 0x20 MUL PUSH1 0x20 ADD ADD MLOAD PUSH1 0x60 ADD MLOAD PUSH16 0xFFFFFFFFFFFFFFFFFFFFFFFFFFFFFFFF AND DUP8 DUP5 DUP2 MLOAD DUP2 LT PUSH2 0x2E7 JUMPI INVALID JUMPDEST PUSH1 0x20 MUL PUSH1 0x20 ADD ADD MLOAD PUSH1 0x40 ADD MLOAD PUSH16 0xFFFFFFFFFFFFFFFFFFFFFFFFFFFFFFFF AND PUSH2 0x4FA JUMP JUMPDEST DUP3 DUP3 DUP2 MLOAD DUP2 LT PUSH2 0x316 JUMPI INVALID JUMPDEST PUSH1 0x20 MUL PUSH1 0x20 ADD ADD DUP2 DUP2 MSTORE POP POP JUMPDEST DUP1 PUSH1 0x1 ADD SWAP1 POP PUSH2 0x276 JUMP JUMPDEST POP SWAP4 SWAP3 POP POP POP JUMP JUMPDEST PUSH1 0x0 DUP1 PUSH1 0x3 DUP2 GT ISZERO PUSH2 0x344 JUMPI INVALID JUMPDEST DUP4 PUSH1 0x0 ADD MLOAD PUSH1 0x3 DUP2 GT ISZERO PUSH2 0x354 JUMPI INVALID JUMPDEST EQ DUP1 PUSH2 0x37A JUMPI POP PUSH1 0x1 PUSH1 0x3 DUP2 GT ISZERO PUSH2 0x368 JUMPI INVALID JUMPDEST DUP4 PUSH1 0x0 ADD MLOAD PUSH1 0x3 DUP2 GT ISZERO PUSH2 0x378 JUMPI INVALID JUMPDEST EQ JUMPDEST DUP1 PUSH2 0x39B JUMPI POP PUSH1 0x0 DUP5 PUSH1 0x40 ADD MLOAD PUSH16 0xFFFFFFFFFFFFFFFFFFFFFFFFFFFFFFFF AND EQ JUMPDEST DUP1 PUSH2 0x3BC JUMPI POP PUSH1 0x0 DUP5 PUSH1 0x60 ADD MLOAD PUSH16 0xFFFFFFFFFFFFFFFFFFFFFFFFFFFFFFFF AND EQ JUMPDEST ISZERO PUSH2 0x3CA JUMPI PUSH1 0x0 SWAP1 POP PUSH2 0x4F3 JUMP JUMPDEST PUSH2 0x3D2 PUSH2 0x6B6 JUMP JUMPDEST PUSH1 0x0 DUP1 DUP5 PUSH20 0xFFFFFFFFFFFFFFFFFFFFFFFFFFFFFFFFFFFFFFFF AND PUSH4 0x1FB09795 DUP9 DUP9 PUSH1 0x40 MLOAD DUP4 PUSH4 0xFFFFFFFF AND PUSH1 0xE0 SHL DUP2 MSTORE PUSH1 0x4 ADD PUSH2 0x410 SWAP3 SWAP2 SWAP1 PUSH2 0xCA7 JUMP JUMPDEST PUSH1 0xA0 PUSH1 0x40 MLOAD DUP1 DUP4 SUB DUP2 DUP7 DUP1 EXTCODESIZE ISZERO DUP1 ISZERO PUSH2 0x428 JUMPI PUSH1 0x0 DUP1 REVERT JUMPDEST POP GAS STATICCALL ISZERO DUP1 ISZERO PUSH2 0x43C JUMPI RETURNDATASIZE PUSH1 0x0 DUP1 RETURNDATACOPY RETURNDATASIZE PUSH1 0x0 REVERT JUMPDEST POP POP POP POP PUSH1 0x40 MLOAD RETURNDATASIZE PUSH1 0x1F NOT PUSH1 0x1F DUP3 ADD AND DUP3 ADD DUP1 PUSH1 0x40 MSTORE POP DUP2 ADD SWAP1 PUSH2 0x460 SWAP2 SWAP1 PUSH2 0xA44 JUMP JUMPDEST SWAP3 POP SWAP3 POP SWAP3 POP PUSH1 0x1 PUSH1 0x4 DUP2 GT ISZERO PUSH2 0x473 JUMPI INVALID JUMPDEST DUP4 PUSH1 0x20 ADD MLOAD PUSH1 0x4 DUP2 GT ISZERO PUSH2 0x483 JUMPI INVALID JUMPDEST EQ ISZERO DUP1 PUSH2 0x48E JUMPI POP DUP1 ISZERO JUMPDEST DUP1 PUSH2 0x4C9 JUMPI POP PUSH1 0x0 PUSH20 0xFFFFFFFFFFFFFFFFFFFFFFFFFFFFFFFFFFFFFFFF AND DUP8 PUSH1 0x0 ADD MLOAD PUSH20 0xFFFFFFFFFFFFFFFFFFFFFFFFFFFFFFFFFFFFFFFF AND EQ JUMPDEST ISZERO PUSH2 0x4DA JUMPI PUSH1 0x0 SWAP4 POP POP POP POP PUSH2 0x4F3 JUMP JUMPDEST DUP2 PUSH16 0xFFFFFFFFFFFFFFFFFFFFFFFFFFFFFFFF AND SWAP4 POP POP POP POP JUMPDEST SWAP4 SWAP3 POP POP POP JUMP JUMPDEST PUSH1 0x0 PUSH2 0x546 DUP4 PUSH2 0x538 PUSH2 0x517 PUSH1 0x1 DUP8 PUSH2 0x54F SWAP1 SWAP2 SWAP1 PUSH4 0xFFFFFFFF AND JUMP JUMPDEST PUSH2 0x52A DUP7 DUP10 PUSH2 0x579 SWAP1 SWAP2 SWAP1 PUSH4 0xFFFFFFFF AND JUMP JUMPDEST PUSH2 0x5C3 SWAP1 SWAP2 SWAP1 PUSH4 0xFFFFFFFF AND JUMP JUMPDEST PUSH2 0x5F2 SWAP1 SWAP2 SWAP1 PUSH4 0xFFFFFFFF AND JUMP JUMPDEST SWAP1 POP SWAP4 SWAP3 POP POP POP JUMP JUMPDEST PUSH1 0x0 DUP3 DUP3 GT ISZERO PUSH2 0x56E JUMPI PUSH2 0x56D PUSH2 0x568 PUSH1 0x2 DUP6 DUP6 PUSH2 0x629 JUMP JUMPDEST PUSH2 0x6AE JUMP JUMPDEST JUMPDEST DUP2 DUP4 SUB SWAP1 POP SWAP3 SWAP2 POP POP JUMP JUMPDEST PUSH1 0x0 DUP1 DUP4 EQ ISZERO PUSH2 0x58C JUMPI PUSH1 0x0 SWAP1 POP PUSH2 0x5BD JUMP JUMPDEST PUSH1 0x0 DUP3 DUP5 MUL SWAP1 POP DUP3 DUP5 DUP3 DUP2 PUSH2 0x59D JUMPI INVALID JUMPDEST DIV EQ PUSH2 0x5B8 JUMPI PUSH2 0x5B7 PUSH2 0x5B2 PUSH1 0x1 DUP7 DUP7 PUSH2 0x629 JUMP JUMPDEST PUSH2 0x6AE JUMP JUMPDEST JUMPDEST DUP1 SWAP2 POP POP JUMPDEST SWAP3 SWAP2 POP POP JUMP JUMPDEST PUSH1 0x0 DUP1 DUP3 DUP5 ADD SWAP1 POP DUP4 DUP2 LT ISZERO PUSH2 0x5E8 JUMPI PUSH2 0x5E7 PUSH2 0x5E2 PUSH1 0x0 DUP7 DUP7 PUSH2 0x629 JUMP JUMPDEST PUSH2 0x6AE JUMP JUMPDEST JUMPDEST DUP1 SWAP2 POP POP SWAP3 SWAP2 POP POP JUMP JUMPDEST PUSH1 0x0 DUP1 DUP3 EQ ISZERO PUSH2 0x611 JUMPI PUSH2 0x610 PUSH2 0x60B PUSH1 0x3 DUP6 DUP6 PUSH2 0x629 JUMP JUMPDEST PUSH2 0x6AE JUMP JUMPDEST JUMPDEST PUSH1 0x0 DUP3 DUP5 DUP2 PUSH2 0x61C JUMPI INVALID JUMPDEST DIV SWAP1 POP DUP1 SWAP2 POP POP SWAP3 SWAP2 POP POP JUMP JUMPDEST PUSH1 0x60 PUSH4 0xE946C1BB PUSH1 0xE0 SHL DUP5 DUP5 DUP5 PUSH1 0x40 MLOAD PUSH1 0x24 ADD PUSH2 0x648 SWAP4 SWAP3 SWAP2 SWAP1 PUSH2 0xC7F JUMP JUMPDEST PUSH1 0x40 MLOAD PUSH1 0x20 DUP2 DUP4 SUB SUB DUP2 MSTORE SWAP1 PUSH1 0x40 MSTORE SWAP1 PUSH28 0xFFFFFFFFFFFFFFFFFFFFFFFFFFFFFFFFFFFFFFFFFFFFFFFFFFFFFFFF NOT AND PUSH1 0x20 DUP3 ADD DUP1 MLOAD PUSH28 0xFFFFFFFFFFFFFFFFFFFFFFFFFFFFFFFFFFFFFFFFFFFFFFFFFFFFFFFF DUP4 DUP2 DUP4 AND OR DUP4 MSTORE POP POP POP POP SWAP1 POP SWAP4 SWAP3 POP POP POP JUMP JUMPDEST DUP1 MLOAD PUSH1 0x20 DUP3 ADD REVERT JUMPDEST PUSH1 0x40 MLOAD DUP1 PUSH1 0x60 ADD PUSH1 0x40 MSTORE DUP1 PUSH1 0x0 DUP1 NOT AND DUP2 MSTORE PUSH1 0x20 ADD PUSH1 0x0 PUSH1 0x4 DUP2 GT ISZERO PUSH2 0x6D8 JUMPI INVALID JUMPDEST DUP2 MSTORE PUSH1 0x20 ADD PUSH1 0x0 PUSH16 0xFFFFFFFFFFFFFFFFFFFFFFFFFFFFFFFF AND DUP2 MSTORE POP SWAP1 JUMP JUMPDEST PUSH1 0x0 DUP2 CALLDATALOAD SWAP1 POP PUSH2 0x706 DUP2 PUSH2 0xD75 JUMP JUMPDEST SWAP3 SWAP2 POP POP JUMP JUMPDEST PUSH1 0x0 DUP3 PUSH1 0x1F DUP4 ADD SLT PUSH2 0x71C JUMPI DUP1 DUP2 REVERT JUMPDEST DUP2 CALLDATALOAD PUSH2 0x72F PUSH2 0x72A DUP3 PUSH2 0xD45 JUMP JUMPDEST PUSH2 0xD18 JUMP JUMPDEST SWAP2 POP DUP2 DUP2 DUP4 MSTORE PUSH1 0x20 DUP1 DUP5 ADD SWAP2 POP DUP1 DUP6 ADD PUSH1 0x80 DUP8 DUP4 DUP3 DUP8 MUL DUP10 ADD ADD GT ISZERO PUSH2 0x754 JUMPI PUSH1 0x0 DUP1 REVERT JUMPDEST PUSH1 0x0 JUMPDEST DUP6 DUP2 LT ISZERO PUSH2 0x780 JUMPI PUSH2 0x769 DUP10 DUP5 PUSH2 0x87B JUMP JUMPDEST DUP6 MSTORE DUP4 DUP6 ADD SWAP5 POP DUP2 DUP4 ADD SWAP3 POP PUSH1 0x1 DUP2 ADD SWAP1 POP PUSH2 0x757 JUMP JUMPDEST POP POP POP POP POP POP SWAP3 SWAP2 POP POP JUMP JUMPDEST PUSH1 0x0 PUSH2 0x180 DUP1 DUP4 DUP6 SUB SLT ISZERO PUSH2 0x79F JUMPI DUP2 DUP3 REVERT JUMPDEST PUSH2 0x7A8 DUP2 PUSH2 0xD18 JUMP JUMPDEST SWAP2 POP POP PUSH2 0x7B5 DUP4 DUP4 PUSH2 0x6F7 JUMP JUMPDEST DUP2 MSTORE PUSH2 0x7C4 DUP4 PUSH1 0x20 DUP5 ADD PUSH2 0x6F7 JUMP JUMPDEST PUSH1 0x20 DUP3 ADD MSTORE PUSH2 0x7D6 DUP4 PUSH1 0x40 DUP5 ADD PUSH2 0x8E0 JUMP JUMPDEST PUSH1 0x40 DUP3 ADD MSTORE PUSH2 0x7E8 DUP4 PUSH1 0x60 DUP5 ADD PUSH2 0x8E0 JUMP JUMPDEST PUSH1 0x60 DUP3 ADD MSTORE PUSH2 0x7FA DUP4 PUSH1 0x80 DUP5 ADD PUSH2 0x8E0 JUMP JUMPDEST PUSH1 0x80 DUP3 ADD MSTORE PUSH2 0x80C DUP4 PUSH1 0xA0 DUP5 ADD PUSH2 0x6F7 JUMP JUMPDEST PUSH1 0xA0 DUP3 ADD MSTORE PUSH2 0x81E DUP4 PUSH1 0xC0 DUP5 ADD PUSH2 0x6F7 JUMP JUMPDEST PUSH1 0xC0 DUP3 ADD MSTORE PUSH2 0x830 DUP4 PUSH1 0xE0 DUP5 ADD PUSH2 0x6F7 JUMP JUMPDEST PUSH1 0xE0 DUP3 ADD MSTORE PUSH2 0x100 PUSH2 0x844 DUP5 DUP3 DUP6 ADD PUSH2 0x6F7 JUMP JUMPDEST DUP2 DUP4 ADD MSTORE POP PUSH2 0x120 DUP1 DUP4 ADD CALLDATALOAD DUP2 DUP4 ADD MSTORE POP PUSH2 0x140 PUSH2 0x864 DUP5 DUP3 DUP6 ADD PUSH2 0x8F5 JUMP JUMPDEST DUP2 DUP4 ADD MSTORE POP PUSH2 0x160 DUP1 DUP4 ADD CALLDATALOAD DUP2 DUP4 ADD MSTORE POP SWAP3 SWAP2 POP POP JUMP JUMPDEST PUSH1 0x0 PUSH1 0x80 DUP3 DUP5 SUB SLT ISZERO PUSH2 0x88C JUMPI DUP1 DUP2 REVERT JUMPDEST PUSH2 0x896 PUSH1 0x80 PUSH2 0xD18 JUMP JUMPDEST SWAP1 POP DUP2 CALLDATALOAD PUSH1 0x4 DUP2 LT PUSH2 0x8A7 JUMPI PUSH1 0x0 DUP1 REVERT JUMPDEST DUP1 DUP3 MSTORE POP PUSH1 0x20 DUP3 ADD CALLDATALOAD PUSH1 0xFF DUP2 AND DUP2 EQ PUSH2 0x8BF JUMPI PUSH1 0x0 DUP1 REVERT JUMPDEST DUP1 PUSH1 0x20 DUP4 ADD MSTORE POP PUSH1 0x40 DUP3 ADD CALLDATALOAD PUSH1 0x40 DUP3 ADD MSTORE PUSH1 0x60 DUP3 ADD CALLDATALOAD PUSH1 0x60 DUP3 ADD MSTORE SWAP3 SWAP2 POP POP JUMP JUMPDEST PUSH1 0x0 DUP2 CALLDATALOAD SWAP1 POP PUSH2 0x8EF DUP2 PUSH2 0xD8C JUMP JUMPDEST SWAP3 SWAP2 POP POP JUMP JUMPDEST PUSH1 0x0 DUP2 CALLDATALOAD SWAP1 POP PUSH8 0xFFFFFFFFFFFFFFFF DUP2 AND DUP2 EQ PUSH2 0x911 JUMPI PUSH1 0x0 DUP1 REVERT JUMPDEST SWAP3 SWAP2 POP POP JUMP JUMPDEST PUSH1 0x0 DUP1 PUSH1 0x0 PUSH1 0x60 DUP5 DUP7 SUB SLT ISZERO PUSH2 0x92B JUMPI DUP3 DUP4 REVERT JUMPDEST DUP4 CALLDATALOAD PUSH8 0xFFFFFFFFFFFFFFFF DUP1 DUP3 GT ISZERO PUSH2 0x942 JUMPI DUP5 DUP6 REVERT JUMPDEST DUP2 DUP7 ADD SWAP2 POP DUP7 PUSH1 0x1F DUP4 ADD SLT PUSH2 0x955 JUMPI DUP5 DUP6 REVERT JUMPDEST DUP2 CALLDATALOAD PUSH2 0x968 PUSH2 0x963 DUP3 PUSH2 0xD45 JUMP JUMPDEST PUSH2 0xD18 JUMP JUMPDEST DUP1 DUP3 DUP3 MSTORE PUSH1 0x20 DUP1 DUP4 ADD SWAP3 POP DUP1 DUP7 ADD PUSH2 0x180 DUP13 DUP4 DUP3 DUP9 MUL DUP11 ADD ADD GT ISZERO PUSH2 0x98B JUMPI DUP11 DUP12 REVERT JUMPDEST DUP11 SWAP8 POP JUMPDEST DUP6 DUP9 LT ISZERO PUSH2 0x9B8 JUMPI PUSH2 0x9A1 DUP14 DUP4 PUSH2 0x78C JUMP JUMPDEST DUP6 MSTORE DUP3 DUP6 ADD SWAP5 POP DUP1 DUP3 ADD SWAP2 POP PUSH1 0x1 DUP9 ADD SWAP8 POP PUSH2 0x98F JUMP JUMPDEST POP POP DUP2 SWAP9 POP DUP1 DUP11 ADD CALLDATALOAD SWAP6 POP POP POP POP POP DUP1 DUP3 GT ISZERO PUSH2 0x9D3 JUMPI DUP4 DUP5 REVERT JUMPDEST POP PUSH2 0x9E0 DUP7 DUP3 DUP8 ADD PUSH2 0x70C JUMP JUMPDEST SWAP3 POP POP PUSH2 0x9F0 DUP6 PUSH1 0x40 DUP7 ADD PUSH2 0x6F7 JUMP JUMPDEST SWAP1 POP SWAP3 POP SWAP3 POP SWAP3 JUMP JUMPDEST PUSH1 0x0 DUP1 PUSH1 0x0 PUSH2 0x220 DUP5 DUP7 SUB SLT ISZERO PUSH2 0xA0E JUMPI DUP3 DUP4 REVERT JUMPDEST PUSH2 0xA18 DUP6 DUP6 PUSH2 0x78C JUMP JUMPDEST SWAP3 POP PUSH2 0xA28 DUP6 PUSH2 0x180 DUP7 ADD PUSH2 0x87B JUMP JUMPDEST SWAP2 POP PUSH2 0x200 DUP5 ADD CALLDATALOAD PUSH2 0xA39 DUP2 PUSH2 0xD75 JUMP JUMPDEST DUP1 SWAP2 POP POP SWAP3 POP SWAP3 POP SWAP3 JUMP JUMPDEST PUSH1 0x0 DUP1 PUSH1 0x0 DUP4 DUP6 SUB PUSH1 0xA0 DUP2 SLT ISZERO PUSH2 0xA59 JUMPI DUP4 DUP5 REVERT JUMPDEST PUSH1 0x60 DUP2 SLT ISZERO PUSH2 0xA66 JUMPI DUP4 DUP5 REVERT JUMPDEST POP PUSH2 0xA71 PUSH1 0x60 PUSH2 0xD18 JUMP JUMPDEST DUP5 MLOAD DUP2 MSTORE PUSH1 0x20 DUP6 ADD MLOAD PUSH1 0x5 DUP2 LT PUSH2 0xA86 JUMPI DUP5 DUP6 REVERT JUMPDEST DUP1 PUSH1 0x20 DUP4 ADD MSTORE POP PUSH1 0x40 DUP6 ADD MLOAD PUSH2 0xA9B DUP2 PUSH2 0xD8C JUMP JUMPDEST DUP1 PUSH1 0x40 DUP4 ADD MSTORE POP DUP1 SWAP4 POP POP PUSH1 0x60 DUP5 ADD MLOAD PUSH2 0xAB4 DUP2 PUSH2 0xD8C JUMP JUMPDEST DUP1 SWAP3 POP POP PUSH1 0x80 DUP5 ADD MLOAD DUP1 ISZERO ISZERO DUP2 EQ PUSH2 0xACA JUMPI DUP2 DUP3 REVERT JUMPDEST DUP1 SWAP2 POP POP SWAP3 POP SWAP3 POP SWAP3 JUMP JUMPDEST PUSH1 0x0 PUSH1 0x20 DUP3 DUP5 SUB SLT ISZERO PUSH2 0xAE6 JUMPI DUP1 DUP2 REVERT JUMPDEST DUP2 MLOAD SWAP1 POP SWAP3 SWAP2 POP POP JUMP JUMPDEST PUSH1 0x1 DUP1 PUSH1 0xA0 SHL SUB DUP2 AND DUP3 MSTORE POP POP JUMP JUMPDEST PUSH2 0xB0A DUP3 DUP3 MLOAD PUSH2 0xAF0 JUMP JUMPDEST PUSH1 0x20 DUP2 ADD MLOAD PUSH2 0xB1C PUSH1 0x20 DUP5 ADD DUP3 PUSH2 0xAF0 JUMP JUMPDEST POP PUSH1 0x40 DUP2 ADD MLOAD PUSH2 0xB2F PUSH1 0x40 DUP5 ADD DUP3 PUSH2 0xC09 JUMP JUMPDEST POP PUSH1 0x60 DUP2 ADD MLOAD PUSH2 0xB42 PUSH1 0x60 DUP5 ADD DUP3 PUSH2 0xC09 JUMP JUMPDEST POP PUSH1 0x80 DUP2 ADD MLOAD PUSH2 0xB55 PUSH1 0x80 DUP5 ADD DUP3 PUSH2 0xC09 JUMP JUMPDEST POP PUSH1 0xA0 DUP2 ADD MLOAD PUSH2 0xB68 PUSH1 0xA0 DUP5 ADD DUP3 PUSH2 0xAF0 JUMP JUMPDEST POP PUSH1 0xC0 DUP2 ADD MLOAD PUSH2 0xB7B PUSH1 0xC0 DUP5 ADD DUP3 PUSH2 0xAF0 JUMP JUMPDEST POP PUSH1 0xE0 DUP2 ADD MLOAD PUSH2 0xB8E PUSH1 0xE0 DUP5 ADD DUP3 PUSH2 0xAF0 JUMP JUMPDEST POP PUSH2 0x100 DUP1 DUP3 ADD MLOAD PUSH2 0xBA2 DUP3 DUP6 ADD DUP3 PUSH2 0xAF0 JUMP JUMPDEST POP POP PUSH2 0x120 DUP1 DUP3 ADD MLOAD DUP2 DUP5 ADD MSTORE POP PUSH2 0x140 DUP1 DUP3 ADD MLOAD PUSH2 0xBC3 DUP3 DUP6 ADD DUP3 PUSH2 0xC22 JUMP JUMPDEST POP POP PUSH2 0x160 DUP1 DUP3 ADD MLOAD DUP2 DUP5 ADD MSTORE POP POP POP JUMP JUMPDEST DUP1 MLOAD PUSH2 0xBE0 DUP2 PUSH2 0xD68 JUMP JUMPDEST DUP1 DUP4 MSTORE POP PUSH1 0xFF PUSH1 0x20 DUP3 ADD MLOAD AND PUSH1 0x20 DUP4 ADD MSTORE PUSH1 0x40 DUP2 ADD MLOAD PUSH1 0x40 DUP4 ADD MSTORE PUSH1 0x60 DUP2 ADD MLOAD PUSH1 0x60 DUP4 ADD MSTORE POP POP JUMP JUMPDEST PUSH16 0xFFFFFFFFFFFFFFFFFFFFFFFFFFFFFFFF DUP2 AND DUP3 MSTORE POP POP JUMP JUMPDEST PUSH8 0xFFFFFFFFFFFFFFFF DUP2 AND DUP3 MSTORE POP POP JUMP JUMPDEST PUSH1 0x0 PUSH1 0x20 DUP1 DUP4 ADD DUP2 DUP5 MSTORE DUP1 DUP6 MLOAD DUP1 DUP4 MSTORE PUSH1 0x40 DUP7 ADD SWAP2 POP DUP4 DUP8 ADD SWAP3 POP DUP5 JUMPDEST DUP2 DUP2 LT ISZERO PUSH2 0xC71 JUMPI DUP4 MLOAD DUP4 MSTORE DUP5 DUP4 ADD SWAP3 POP DUP5 DUP5 ADD SWAP4 POP PUSH1 0x1 DUP2 ADD SWAP1 POP PUSH2 0xC50 JUMP JUMPDEST POP POP DUP1 SWAP4 POP POP POP POP SWAP3 SWAP2 POP POP JUMP JUMPDEST PUSH1 0x0 PUSH1 0x60 DUP3 ADD SWAP1 POP PUSH2 0xC90 DUP6 PUSH2 0xD68 JUMP JUMPDEST DUP5 DUP3 MSTORE DUP4 PUSH1 0x20 DUP4 ADD MSTORE DUP3 PUSH1 0x40 DUP4 ADD MSTORE SWAP5 SWAP4 POP POP POP POP JUMP JUMPDEST PUSH1 0x0 PUSH2 0x200 DUP3 ADD SWAP1 POP PUSH2 0xCBA DUP3 DUP6 PUSH2 0xAFF JUMP JUMPDEST PUSH2 0xCC8 PUSH2 0x180 DUP4 ADD DUP5 PUSH2 0xBD5 JUMP JUMPDEST SWAP4 SWAP3 POP POP POP JUMP JUMPDEST PUSH1 0x0 PUSH2 0x220 DUP3 ADD SWAP1 POP PUSH2 0xCE2 DUP3 DUP7 PUSH2 0xAFF JUMP JUMPDEST PUSH2 0xCF0 PUSH2 0x180 DUP4 ADD DUP6 PUSH2 0xBD5 JUMP JUMPDEST PUSH1 0x1 DUP1 PUSH1 0xA0 SHL SUB DUP4 AND PUSH2 0x200 DUP4 ADD MSTORE SWAP5 SWAP4 POP POP POP POP JUMP JUMPDEST PUSH1 0x0 PUSH1 0x20 DUP3 ADD SWAP1 POP DUP3 DUP3 MSTORE SWAP3 SWAP2 POP POP JUMP JUMPDEST PUSH1 0x0 PUSH1 0x40 MLOAD SWAP1 POP DUP2 DUP2 ADD DUP2 DUP2 LT PUSH8 0xFFFFFFFFFFFFFFFF DUP3 GT OR ISZERO PUSH2 0xD3B JUMPI PUSH1 0x0 DUP1 REVERT JUMPDEST DUP1 PUSH1 0x40 MSTORE POP SWAP2 SWAP1 POP JUMP JUMPDEST PUSH1 0x0 PUSH8 0xFFFFFFFFFFFFFFFF DUP3 GT ISZERO PUSH2 0xD5B JUMPI DUP1 DUP2 REVERT JUMPDEST PUSH1 0x20 DUP1 DUP4 MUL ADD SWAP1 POP SWAP2 SWAP1 POP JUMP JUMPDEST PUSH1 0x4 DUP2 LT PUSH2 0xD72 JUMPI INVALID JUMPDEST POP JUMP JUMPDEST PUSH1 0x1 DUP1 PUSH1 0xA0 SHL SUB DUP2 AND DUP2 EQ PUSH2 0xD89 JUMPI PUSH1 0x0 DUP1 REVERT JUMPDEST POP JUMP JUMPDEST PUSH16 0xFFFFFFFFFFFFFFFFFFFFFFFFFFFFFFFF DUP2 AND DUP2 EQ PUSH2 0xDAA JUMPI PUSH1 0x0 DUP1 REVERT JUMPDEST POP JUMP INVALID LOG2 PUSH5 0x6970667358 0x22 SLT KECCAK256 0xC6 0xC7 LOG2 0xE6 MOD CREATE 0xBA PC 0xCE DUP6 EXTCODESIZE 0xB6 0xD7 0xEE PUSH20 0xCCA88644A3AD4C39E9853B9413AE1E811F64736F PUSH13 0x634300060C0033000000000000 "
            }
        }
    },
    "sourceTreeHashHex": "0xd25fd5430736282ac1421090b862ede5be0585e26790605a83d70eec5ce0290d",
    "compiler": {
        "name": "solc",
        "version": "0.6.12+commit.27d51765",
        "settings": {
            "remappings": [
                "@0x/contracts-utils=/Users/kim/Development/protocol/packages/asset-swapper/node_modules/@0x/contracts-utils",
                "@0x/contracts-erc20=/Users/kim/Development/protocol/packages/asset-swapper/node_modules/@0x/contracts-erc20",
                "@0x/contracts-zero-ex=/Users/kim/Development/protocol/packages/asset-swapper/node_modules/@0x/contracts-zero-ex"
            ],
            "optimizer": {
                "enabled": false,
                "runs": 200,
                "details": {
                    "yul": true
                }
            },
            "outputSelection": {
                "*": {
                    "*": [
                        "abi",
                        "devdoc",
                        "evm.bytecode.object",
                        "evm.bytecode.sourceMap",
                        "evm.deployedBytecode.object",
                        "evm.deployedBytecode.sourceMap"
                    ]
                }
            },
            "evmVersion": "istanbul"
        }
    },
    "chains": {}
}