{
    "schemaVersion": "2.0.0",
    "contractName": "NativeOrderSampler",
    "compilerOutput": {
        "abi": [
            {
                "constant": true,
                "inputs": [
                    {
                        "components": [
                            {
                                "internalType": "address",
                                "name": "makerAddress",
                                "type": "address"
                            },
                            {
                                "internalType": "address",
                                "name": "takerAddress",
                                "type": "address"
                            },
                            {
                                "internalType": "address",
                                "name": "feeRecipientAddress",
                                "type": "address"
                            },
                            {
                                "internalType": "address",
                                "name": "senderAddress",
                                "type": "address"
                            },
                            {
                                "internalType": "uint256",
                                "name": "makerAssetAmount",
                                "type": "uint256"
                            },
                            {
                                "internalType": "uint256",
                                "name": "takerAssetAmount",
                                "type": "uint256"
                            },
                            {
                                "internalType": "uint256",
                                "name": "makerFee",
                                "type": "uint256"
                            },
                            {
                                "internalType": "uint256",
                                "name": "takerFee",
                                "type": "uint256"
                            },
                            {
                                "internalType": "uint256",
                                "name": "expirationTimeSeconds",
                                "type": "uint256"
                            },
                            {
                                "internalType": "uint256",
                                "name": "salt",
                                "type": "uint256"
                            },
                            {
                                "internalType": "bytes",
                                "name": "makerAssetData",
                                "type": "bytes"
                            },
                            {
                                "internalType": "bytes",
                                "name": "takerAssetData",
                                "type": "bytes"
                            },
                            {
                                "internalType": "bytes",
                                "name": "makerFeeAssetData",
                                "type": "bytes"
                            },
                            {
                                "internalType": "bytes",
                                "name": "takerFeeAssetData",
                                "type": "bytes"
                            }
                        ],
                        "internalType": "struct LibOrder.Order[]",
                        "name": "orders",
                        "type": "tuple[]"
                    },
                    {
                        "internalType": "bytes[]",
                        "name": "orderSignatures",
                        "type": "bytes[]"
                    },
                    {
                        "internalType": "contract IExchange",
                        "name": "exchange",
                        "type": "address"
                    }
                ],
                "name": "getOrderFillableMakerAssetAmounts",
                "outputs": [
                    {
                        "internalType": "uint256[]",
                        "name": "orderFillableMakerAssetAmounts",
                        "type": "uint256[]"
                    }
                ],
                "payable": false,
                "stateMutability": "view",
                "type": "function"
            },
            {
                "constant": true,
                "inputs": [
                    {
                        "components": [
                            {
                                "internalType": "address",
                                "name": "makerAddress",
                                "type": "address"
                            },
                            {
                                "internalType": "address",
                                "name": "takerAddress",
                                "type": "address"
                            },
                            {
                                "internalType": "address",
                                "name": "feeRecipientAddress",
                                "type": "address"
                            },
                            {
                                "internalType": "address",
                                "name": "senderAddress",
                                "type": "address"
                            },
                            {
                                "internalType": "uint256",
                                "name": "makerAssetAmount",
                                "type": "uint256"
                            },
                            {
                                "internalType": "uint256",
                                "name": "takerAssetAmount",
                                "type": "uint256"
                            },
                            {
                                "internalType": "uint256",
                                "name": "makerFee",
                                "type": "uint256"
                            },
                            {
                                "internalType": "uint256",
                                "name": "takerFee",
                                "type": "uint256"
                            },
                            {
                                "internalType": "uint256",
                                "name": "expirationTimeSeconds",
                                "type": "uint256"
                            },
                            {
                                "internalType": "uint256",
                                "name": "salt",
                                "type": "uint256"
                            },
                            {
                                "internalType": "bytes",
                                "name": "makerAssetData",
                                "type": "bytes"
                            },
                            {
                                "internalType": "bytes",
                                "name": "takerAssetData",
                                "type": "bytes"
                            },
                            {
                                "internalType": "bytes",
                                "name": "makerFeeAssetData",
                                "type": "bytes"
                            },
                            {
                                "internalType": "bytes",
                                "name": "takerFeeAssetData",
                                "type": "bytes"
                            }
                        ],
                        "internalType": "struct LibOrder.Order",
                        "name": "order",
                        "type": "tuple"
                    },
                    {
                        "internalType": "bytes",
                        "name": "signature",
                        "type": "bytes"
                    },
                    {
                        "internalType": "contract IExchange",
                        "name": "exchange",
                        "type": "address"
                    }
                ],
                "name": "getOrderFillableTakerAmount",
                "outputs": [
                    {
                        "internalType": "uint256",
                        "name": "fillableTakerAmount",
                        "type": "uint256"
                    }
                ],
                "payable": false,
                "stateMutability": "view",
                "type": "function"
            },
            {
                "constant": true,
                "inputs": [
                    {
                        "components": [
                            {
                                "internalType": "address",
                                "name": "makerAddress",
                                "type": "address"
                            },
                            {
                                "internalType": "address",
                                "name": "takerAddress",
                                "type": "address"
                            },
                            {
                                "internalType": "address",
                                "name": "feeRecipientAddress",
                                "type": "address"
                            },
                            {
                                "internalType": "address",
                                "name": "senderAddress",
                                "type": "address"
                            },
                            {
                                "internalType": "uint256",
                                "name": "makerAssetAmount",
                                "type": "uint256"
                            },
                            {
                                "internalType": "uint256",
                                "name": "takerAssetAmount",
                                "type": "uint256"
                            },
                            {
                                "internalType": "uint256",
                                "name": "makerFee",
                                "type": "uint256"
                            },
                            {
                                "internalType": "uint256",
                                "name": "takerFee",
                                "type": "uint256"
                            },
                            {
                                "internalType": "uint256",
                                "name": "expirationTimeSeconds",
                                "type": "uint256"
                            },
                            {
                                "internalType": "uint256",
                                "name": "salt",
                                "type": "uint256"
                            },
                            {
                                "internalType": "bytes",
                                "name": "makerAssetData",
                                "type": "bytes"
                            },
                            {
                                "internalType": "bytes",
                                "name": "takerAssetData",
                                "type": "bytes"
                            },
                            {
                                "internalType": "bytes",
                                "name": "makerFeeAssetData",
                                "type": "bytes"
                            },
                            {
                                "internalType": "bytes",
                                "name": "takerFeeAssetData",
                                "type": "bytes"
                            }
                        ],
                        "internalType": "struct LibOrder.Order[]",
                        "name": "orders",
                        "type": "tuple[]"
                    },
                    {
                        "internalType": "bytes[]",
                        "name": "orderSignatures",
                        "type": "bytes[]"
                    },
                    {
                        "internalType": "contract IExchange",
                        "name": "exchange",
                        "type": "address"
                    }
                ],
                "name": "getOrderFillableTakerAssetAmounts",
                "outputs": [
                    {
                        "internalType": "uint256[]",
                        "name": "orderFillableTakerAssetAmounts",
                        "type": "uint256[]"
                    }
                ],
                "payable": false,
                "stateMutability": "view",
                "type": "function"
            },
            {
                "constant": true,
                "inputs": [
                    {
                        "internalType": "address",
                        "name": "makerTokenAddress",
                        "type": "address"
                    },
                    {
                        "internalType": "address",
                        "name": "takerTokenAddress",
                        "type": "address"
                    }
                ],
                "name": "getTokenDecimals",
                "outputs": [
                    {
                        "internalType": "uint256",
                        "name": "",
                        "type": "uint256"
                    },
                    {
                        "internalType": "uint256",
                        "name": "",
                        "type": "uint256"
                    }
                ],
                "payable": false,
                "stateMutability": "view",
                "type": "function"
            }
        ],
        "devdoc": {
            "methods": {
                "getOrderFillableMakerAssetAmounts((address,address,address,address,uint256,uint256,uint256,uint256,uint256,uint256,bytes,bytes,bytes,bytes)[],bytes[],address)": {
                    "details": "Queries the fillable taker asset amounts of native orders.      Effectively ignores orders that have empty signatures or",
                    "params": {
                        "exchange": "The V3 exchange.",
                        "orderSignatures": "Signatures for each respective order in `orders`.",
                        "orders": "Native orders to query."
                    },
                    "return": "orderFillableMakerAssetAmounts How much maker asset can be filled         by each order in `orders`."
                },
                "getOrderFillableTakerAmount((address,address,address,address,uint256,uint256,uint256,uint256,uint256,uint256,bytes,bytes,bytes,bytes),bytes,address)": {
                    "details": "Get the fillable taker amount of an order, taking into account      order state, maker fees, and maker balances."
                },
                "getOrderFillableTakerAssetAmounts((address,address,address,address,uint256,uint256,uint256,uint256,uint256,uint256,bytes,bytes,bytes,bytes)[],bytes[],address)": {
                    "details": "Queries the fillable taker asset amounts of native orders.      Effectively ignores orders that have empty signatures or      maker/taker asset amounts (returning 0).",
                    "params": {
                        "exchange": "The V3 exchange.",
                        "orderSignatures": "Signatures for each respective order in `orders`.",
                        "orders": "Native orders to query."
                    },
                    "return": "orderFillableTakerAssetAmounts How much taker asset can be filled         by each order in `orders`."
                }
            }
        },
        "evm": {
            "bytecode": {
                "linkReferences": {},
                "object": "0x608060405234801561001057600080fd5b5061171d806100206000396000f3fe608060405234801561001057600080fd5b506004361061004c5760003560e01c806339b085ad146100515780633b77ebae1461007a578063e9a8e4421461009a578063fcb5c43c146100ad575b600080fd5b61006461005f366004611154565b6100ce565b60405161007191906114d4565b60405180910390f35b61008d61008836600461127e565b610283565b6040516100719190611611565b6100646100a8366004611154565b6108d6565b6100c06100bb36600461111c565b610979565b60405161007192919061161a565b606083516040519080825280602002602001820160405280156100fb578160200160208202803883390190505b50905060005b8451811461027b57600060603073ffffffffffffffffffffffffffffffffffffffff1662030d40633b77ebae60e01b89868151811061013c57fe5b602002602001015189878151811061015057fe5b60200260200101518960405160240161016b939291906115c5565b604080517fffffffffffffffffffffffffffffffffffffffffffffffffffffffffffffffe08184030181529181526020820180517bffffffffffffffffffffffffffffffffffffffffffffffffffffffff167fffffffff000000000000000000000000000000000000000000000000000000009094169390931790925290516101f49190611470565b6000604051808303818686fa925050503d8060008114610230576040519150601f19603f3d011682016040523d82523d6000602084013e610235565b606091505b50915091508161024657600061025a565b8080602001905161025a91908101906112f3565b84848151811061026657fe5b60209081029190910101525050600101610101565b509392505050565b600082516000148061029757506080840151155b806102a4575060a0840151155b156102b1575060006108cf565b6102b9610e93565b6040517f9d3fa4b900000000000000000000000000000000000000000000000000000000815273ffffffffffffffffffffffffffffffffffffffff841690639d3fa4b99061030b9088906004016115b2565b60606040518083038186803b15801561032357600080fd5b505afa158015610337573d6000803e3d6000fd5b505050506040513d601f19601f8201168201806040525061035b9190810190611236565b905060038151600681111561036c57fe5b1461037b5760009150506108cf565b602081015185516040517f8171c40700000000000000000000000000000000000000000000000000000000815273ffffffffffffffffffffffffffffffffffffffff861692638171c407926103d4928990600401611517565b60206040518083038186803b1580156103ec57600080fd5b505afa158015610400573d6000803e3d6000fd5b505050506040513d601f19601f820116820180604052506104249190810190611216565b6104325760009150506108cf565b6040517f6070410800000000000000000000000000000000000000000000000000000000815260009073ffffffffffffffffffffffffffffffffffffffff8516906360704108906104a7907ff47261b00000000000000000000000000000000000000000000000000000000090600401611555565b60206040518083038186803b1580156104bf57600080fd5b505afa1580156104d3573d6000803e3d6000fd5b505050506040513d601f19601f820116820180604052506104f79190810190611100565b905060006105098761014001516109a7565b905073ffffffffffffffffffffffffffffffffffffffff811661053257600093505050506108cf565b6000808860c0015111610546576000610554565b6105548861018001516109a7565b9050600061057385604001518a60a00151610a4490919063ffffffff16565b905080955060006105de828b60a001518673ffffffffffffffffffffffffffffffffffffffff168673ffffffffffffffffffffffffffffffffffffffff16146105c0578c608001516105d9565b60c08d015160808e01516105d99163ffffffff610a6d16565b610a89565b8a516040517f70a082310000000000000000000000000000000000000000000000000000000081529192506000916107349173ffffffffffffffffffffffffffffffffffffffff8816916370a082319161063a9160040161148c565b60206040518083038186803b15801561065257600080fd5b505afa158015610666573d6000803e3d6000fd5b505050506040513d601f19601f8201168201806040525061068a91908101906112f3565b8c516040517fdd62ed3e00000000000000000000000000000000000000000000000000000000815273ffffffffffffffffffffffffffffffffffffffff89169163dd62ed3e916106df91908c906004016114ad565b60206040518083038186803b1580156106f757600080fd5b505afa15801561070b573d6000803e3d6000fd5b505050506040513d601f19601f8201168201806040525061072f91908101906112f3565b610ad1565b90508181101561074c57610749818385610ae7565b97505b8473ffffffffffffffffffffffffffffffffffffffff168473ffffffffffffffffffffffffffffffffffffffff161415801561079d575073ffffffffffffffffffffffffffffffffffffffff841615155b156108c7578a516040517f70a082310000000000000000000000000000000000000000000000000000000081526000916108a19173ffffffffffffffffffffffffffffffffffffffff8816916370a08231916107fc919060040161148c565b60206040518083038186803b15801561081457600080fd5b505afa158015610828573d6000803e3d6000fd5b505050506040513d601f19601f8201168201806040525061084c91908101906112f3565b8d516040517fdd62ed3e00000000000000000000000000000000000000000000000000000000815273ffffffffffffffffffffffffffffffffffffffff89169163dd62ed3e916106df91908d906004016114ad565b90508b60c001518110156108c5576108c28961072f838f60c0015188610ae7565b98505b505b505050505050505b9392505050565b60606108e38484846100ce565b905060005b845181101561027b578181815181106108fd57fe5b60200260200101516000146109715761095882828151811061091b57fe5b602002602001015186838151811061092f57fe5b602002602001015160a0015187848151811061094757fe5b602002602001015160800151610ae7565b82828151811061096457fe5b6020026020010181815250505b6001016108e8565b600080600061098785610b1d565b60ff169050600061099785610b1d565b9193505060ff1690509250929050565b60008151600014156109bb57506000610a3f565b81516024141580610a1e57507ff47261b0000000000000000000000000000000000000000000000000000000006109f983600063ffffffff610bee16565b7fffffffff000000000000000000000000000000000000000000000000000000001614155b15610a2b57506000610a3f565b610a3c82601063ffffffff610c3a16565b90505b919050565b600082821115610a6257610a62610a5d60028585610c7a565b610d1f565b508082035b92915050565b6000828201838110156108cf576108cf610a5d60008686610c7a565b6000610a96848484610d27565b15610aa957610aa9610a5d858585610d8d565b610ac983610abd868563ffffffff610dac16565b9063ffffffff610ddd16565b949350505050565b6000818310610ae057816108cf565b5090919050565b6000610ac983610abd610b0182600163ffffffff610a4416565b610b11888763ffffffff610dac16565b9063ffffffff610a6d16565b600060129050600060608373ffffffffffffffffffffffffffffffffffffffff166040518060400160405280600481526020017f313ce56700000000000000000000000000000000000000000000000000000000815250604051610b819190611470565b600060405180830381855afa9150503d8060008114610bbc576040519150601f19603f3d011682016040523d82523d6000602084013e610bc1565b606091505b5091509150818015610bd4575080516020145b15610be757610be4816000610e07565b92505b5050919050565b60008160040183511015610c0f57610c0f610a5d6003855185600401610e13565b5001602001517fffffffff000000000000000000000000000000000000000000000000000000001690565b60008160140183511015610c5b57610c5b610a5d6004855185601401610e13565b50016014015173ffffffffffffffffffffffffffffffffffffffff1690565b606063e946c1bb60e01b848484604051602401610c9993929190611582565b604080517fffffffffffffffffffffffffffffffffffffffffffffffffffffffffffffffe08184030181529190526020810180517bffffffffffffffffffffffffffffffffffffffffffffffffffffffff167fffffffff000000000000000000000000000000000000000000000000000000009093169290921790915290509392505050565b805160208201fd5b600082610d3957610d39610a5d610e32565b811580610d44575083155b15610d51575060006108cf565b60008380610d5b57fe5b8584099050610d70858463ffffffff610dac16565b610d82826103e863ffffffff610dac16565b101595945050505050565b606063339f3de260e01b848484604051602401610c9993929190611628565b600082610dbb57506000610a67565b82820282848281610dc857fe5b04146108cf576108cf610a5d60018686610c7a565b600081610df357610df3610a5d60038585610c7a565b6000828481610dfe57fe5b04949350505050565b60006108cf8383610e69565b6060632800659560e01b848484604051602401610c99939291906115a4565b60408051808201909152600481527fa791837c00000000000000000000000000000000000000000000000000000000602082015290565b60008160200183511015610e8a57610e8a610a5d6005855185602001610e13565b50016020015190565b6040805160608101909152806000815260006020820181905260409091015290565b8035610a67816116b5565b600082601f830112610ed0578081fd5b8135610ee3610ede82611665565b61163e565b8181529150602080830190840160005b83811015610f2057610f0b8760208435890101610f2a565b83526020928301929190910190600101610ef3565b5050505092915050565b600082601f830112610f3a578081fd5b813567ffffffffffffffff811115610f50578182fd5b610f8160207fffffffffffffffffffffffffffffffffffffffffffffffffffffffffffffffe0601f8401160161163e565b9150808252836020828501011115610f9857600080fd5b8060208401602084013760009082016020015292915050565b60006101c0808385031215610fc4578182fd5b610fcd8161163e565b915050610fda8383610eb5565b8152610fe98360208401610eb5565b6020820152610ffb8360408401610eb5565b604082015261100d8360608401610eb5565b60608201526080820135608082015260a082013560a082015260c082013560c082015260e082013560e08201526101008083013581830152506101208083013581830152506101408083013567ffffffffffffffff8082111561106f57600080fd5b61107b86838701610f2a565b8385015261016092508285013591508082111561109757600080fd5b6110a386838701610f2a565b838501526101809250828501359150808211156110bf57600080fd5b6110cb86838701610f2a565b838501526101a09250828501359150808211156110e757600080fd5b506110f485828601610f2a565b82840152505092915050565b600060208284031215611111578081fd5b81516108cf816116b5565b6000806040838503121561112e578081fd5b8235611139816116b5565b91506020830135611149816116b5565b809150509250929050565b600080600060608486031215611168578081fd5b833567ffffffffffffffff8082111561117f578283fd5b81860187601f820112611190578384fd5b803592506111a0610ede84611665565b83815260208082019190838101875b878110156111d8576111c68d848435890101610fb1565b855293820193908201906001016111af565b509198508901359450505050808211156111f0578283fd5b506111fd86828701610ec0565b92505061120d8560408601610eb5565b90509250925092565b600060208284031215611227578081fd5b815180151581146108cf578182fd5b600060608284031215611247578081fd5b611251606061163e565b82516007811061125f578283fd5b8152602083810151908201526040928301519281019290925250919050565b600080600060608486031215611292578081fd5b833567ffffffffffffffff808211156112a9578283fd5b6112b587838801610fb1565b945060208601359150808211156112ca578283fd5b506112d786828701610f2a565b92505060408401356112e8816116b5565b809150509250925092565b600060208284031215611304578081fd5b5051919050565b73ffffffffffffffffffffffffffffffffffffffff169052565b6000815180845261133d816020860160208601611685565b601f017fffffffffffffffffffffffffffffffffffffffffffffffffffffffffffffffe0169290920160200192915050565b60006101c061137f84845161130b565b6020830151611391602086018261130b565b5060408301516113a4604086018261130b565b5060608301516113b7606086018261130b565b506080830151608085015260a083015160a085015260c083015160c085015260e083015160e085015261010080840151818601525061012080840151818601525061014080840151828287015261141083870182611325565b9150506101609150818401518582038387015261142d8282611325565b9250505061018080840151858303828701526114498382611325565b9150506101a0915081840151858203838701526114668282611325565b9695505050505050565b60008251611482818460208701611685565b9190910192915050565b73ffffffffffffffffffffffffffffffffffffffff91909116815260200190565b73ffffffffffffffffffffffffffffffffffffffff92831681529116602082015260400190565b602080825282518282018190526000918401906040840190835b8181101561150c5783518352602093840193909201916001016114ee565b509095945050505050565b600084825273ffffffffffffffffffffffffffffffffffffffff841660208301526060604083015261154c6060830184611325565b95945050505050565b7fffffffff0000000000000000000000000000000000000000000000000000000091909116815260200190565b606081016004851061159057fe5b938152602081019290925260409091015290565b606081016008851061159057fe5b6000602082526108cf602083018461136f565b6000606082526115d8606083018661136f565b82810360208401526115ea8186611325565b91505073ffffffffffffffffffffffffffffffffffffffff83166040830152949350505050565b90815260200190565b918252602082015260400190565b9283526020830191909152604082015260600190565b60405181810167ffffffffffffffff8111828210171561165d57600080fd5b604052919050565b600067ffffffffffffffff82111561167b578081fd5b5060209081020190565b60005b838110156116a0578181015183820152602001611688565b838111156116af576000848401525b50505050565b73ffffffffffffffffffffffffffffffffffffffff811681146116d757600080fd5b5056fea365627a7a72315820aaf00cd73fdcd8eb56ea340ad2ca12d41520df02f07a4b511a9f85ae5cffe1036c6578706572696d656e74616cf564736f6c63430005110040",
                "opcodes": "PUSH1 0x80 PUSH1 0x40 MSTORE CALLVALUE DUP1 ISZERO PUSH2 0x10 JUMPI PUSH1 0x0 DUP1 REVERT JUMPDEST POP PUSH2 0x171D DUP1 PUSH2 0x20 PUSH1 0x0 CODECOPY PUSH1 0x0 RETURN INVALID PUSH1 0x80 PUSH1 0x40 MSTORE CALLVALUE DUP1 ISZERO PUSH2 0x10 JUMPI PUSH1 0x0 DUP1 REVERT JUMPDEST POP PUSH1 0x4 CALLDATASIZE LT PUSH2 0x4C JUMPI PUSH1 0x0 CALLDATALOAD PUSH1 0xE0 SHR DUP1 PUSH4 0x39B085AD EQ PUSH2 0x51 JUMPI DUP1 PUSH4 0x3B77EBAE EQ PUSH2 0x7A JUMPI DUP1 PUSH4 0xE9A8E442 EQ PUSH2 0x9A JUMPI DUP1 PUSH4 0xFCB5C43C EQ PUSH2 0xAD JUMPI JUMPDEST PUSH1 0x0 DUP1 REVERT JUMPDEST PUSH2 0x64 PUSH2 0x5F CALLDATASIZE PUSH1 0x4 PUSH2 0x1154 JUMP JUMPDEST PUSH2 0xCE JUMP JUMPDEST PUSH1 0x40 MLOAD PUSH2 0x71 SWAP2 SWAP1 PUSH2 0x14D4 JUMP JUMPDEST PUSH1 0x40 MLOAD DUP1 SWAP2 SUB SWAP1 RETURN JUMPDEST PUSH2 0x8D PUSH2 0x88 CALLDATASIZE PUSH1 0x4 PUSH2 0x127E JUMP JUMPDEST PUSH2 0x283 JUMP JUMPDEST PUSH1 0x40 MLOAD PUSH2 0x71 SWAP2 SWAP1 PUSH2 0x1611 JUMP JUMPDEST PUSH2 0x64 PUSH2 0xA8 CALLDATASIZE PUSH1 0x4 PUSH2 0x1154 JUMP JUMPDEST PUSH2 0x8D6 JUMP JUMPDEST PUSH2 0xC0 PUSH2 0xBB CALLDATASIZE PUSH1 0x4 PUSH2 0x111C JUMP JUMPDEST PUSH2 0x979 JUMP JUMPDEST PUSH1 0x40 MLOAD PUSH2 0x71 SWAP3 SWAP2 SWAP1 PUSH2 0x161A JUMP JUMPDEST PUSH1 0x60 DUP4 MLOAD PUSH1 0x40 MLOAD SWAP1 DUP1 DUP3 MSTORE DUP1 PUSH1 0x20 MUL PUSH1 0x20 ADD DUP3 ADD PUSH1 0x40 MSTORE DUP1 ISZERO PUSH2 0xFB JUMPI DUP2 PUSH1 0x20 ADD PUSH1 0x20 DUP3 MUL DUP1 CODESIZE DUP4 CODECOPY ADD SWAP1 POP JUMPDEST POP SWAP1 POP PUSH1 0x0 JUMPDEST DUP5 MLOAD DUP2 EQ PUSH2 0x27B JUMPI PUSH1 0x0 PUSH1 0x60 ADDRESS PUSH20 0xFFFFFFFFFFFFFFFFFFFFFFFFFFFFFFFFFFFFFFFF AND PUSH3 0x30D40 PUSH4 0x3B77EBAE PUSH1 0xE0 SHL DUP10 DUP7 DUP2 MLOAD DUP2 LT PUSH2 0x13C JUMPI INVALID JUMPDEST PUSH1 0x20 MUL PUSH1 0x20 ADD ADD MLOAD DUP10 DUP8 DUP2 MLOAD DUP2 LT PUSH2 0x150 JUMPI INVALID JUMPDEST PUSH1 0x20 MUL PUSH1 0x20 ADD ADD MLOAD DUP10 PUSH1 0x40 MLOAD PUSH1 0x24 ADD PUSH2 0x16B SWAP4 SWAP3 SWAP2 SWAP1 PUSH2 0x15C5 JUMP JUMPDEST PUSH1 0x40 DUP1 MLOAD PUSH32 0xFFFFFFFFFFFFFFFFFFFFFFFFFFFFFFFFFFFFFFFFFFFFFFFFFFFFFFFFFFFFFFE0 DUP2 DUP5 SUB ADD DUP2 MSTORE SWAP2 DUP2 MSTORE PUSH1 0x20 DUP3 ADD DUP1 MLOAD PUSH28 0xFFFFFFFFFFFFFFFFFFFFFFFFFFFFFFFFFFFFFFFFFFFFFFFFFFFFFFFF AND PUSH32 0xFFFFFFFF00000000000000000000000000000000000000000000000000000000 SWAP1 SWAP5 AND SWAP4 SWAP1 SWAP4 OR SWAP1 SWAP3 MSTORE SWAP1 MLOAD PUSH2 0x1F4 SWAP2 SWAP1 PUSH2 0x1470 JUMP JUMPDEST PUSH1 0x0 PUSH1 0x40 MLOAD DUP1 DUP4 SUB DUP2 DUP7 DUP7 STATICCALL SWAP3 POP POP POP RETURNDATASIZE DUP1 PUSH1 0x0 DUP2 EQ PUSH2 0x230 JUMPI PUSH1 0x40 MLOAD SWAP2 POP PUSH1 0x1F NOT PUSH1 0x3F RETURNDATASIZE ADD AND DUP3 ADD PUSH1 0x40 MSTORE RETURNDATASIZE DUP3 MSTORE RETURNDATASIZE PUSH1 0x0 PUSH1 0x20 DUP5 ADD RETURNDATACOPY PUSH2 0x235 JUMP JUMPDEST PUSH1 0x60 SWAP2 POP JUMPDEST POP SWAP2 POP SWAP2 POP DUP2 PUSH2 0x246 JUMPI PUSH1 0x0 PUSH2 0x25A JUMP JUMPDEST DUP1 DUP1 PUSH1 0x20 ADD SWAP1 MLOAD PUSH2 0x25A SWAP2 SWAP1 DUP2 ADD SWAP1 PUSH2 0x12F3 JUMP JUMPDEST DUP5 DUP5 DUP2 MLOAD DUP2 LT PUSH2 0x266 JUMPI INVALID JUMPDEST PUSH1 0x20 SWAP1 DUP2 MUL SWAP2 SWAP1 SWAP2 ADD ADD MSTORE POP POP PUSH1 0x1 ADD PUSH2 0x101 JUMP JUMPDEST POP SWAP4 SWAP3 POP POP POP JUMP JUMPDEST PUSH1 0x0 DUP3 MLOAD PUSH1 0x0 EQ DUP1 PUSH2 0x297 JUMPI POP PUSH1 0x80 DUP5 ADD MLOAD ISZERO JUMPDEST DUP1 PUSH2 0x2A4 JUMPI POP PUSH1 0xA0 DUP5 ADD MLOAD ISZERO JUMPDEST ISZERO PUSH2 0x2B1 JUMPI POP PUSH1 0x0 PUSH2 0x8CF JUMP JUMPDEST PUSH2 0x2B9 PUSH2 0xE93 JUMP JUMPDEST PUSH1 0x40 MLOAD PUSH32 0x9D3FA4B900000000000000000000000000000000000000000000000000000000 DUP2 MSTORE PUSH20 0xFFFFFFFFFFFFFFFFFFFFFFFFFFFFFFFFFFFFFFFF DUP5 AND SWAP1 PUSH4 0x9D3FA4B9 SWAP1 PUSH2 0x30B SWAP1 DUP9 SWAP1 PUSH1 0x4 ADD PUSH2 0x15B2 JUMP JUMPDEST PUSH1 0x60 PUSH1 0x40 MLOAD DUP1 DUP4 SUB DUP2 DUP7 DUP1 EXTCODESIZE ISZERO DUP1 ISZERO PUSH2 0x323 JUMPI PUSH1 0x0 DUP1 REVERT JUMPDEST POP GAS STATICCALL ISZERO DUP1 ISZERO PUSH2 0x337 JUMPI RETURNDATASIZE PUSH1 0x0 DUP1 RETURNDATACOPY RETURNDATASIZE PUSH1 0x0 REVERT JUMPDEST POP POP POP POP PUSH1 0x40 MLOAD RETURNDATASIZE PUSH1 0x1F NOT PUSH1 0x1F DUP3 ADD AND DUP3 ADD DUP1 PUSH1 0x40 MSTORE POP PUSH2 0x35B SWAP2 SWAP1 DUP2 ADD SWAP1 PUSH2 0x1236 JUMP JUMPDEST SWAP1 POP PUSH1 0x3 DUP2 MLOAD PUSH1 0x6 DUP2 GT ISZERO PUSH2 0x36C JUMPI INVALID JUMPDEST EQ PUSH2 0x37B JUMPI PUSH1 0x0 SWAP2 POP POP PUSH2 0x8CF JUMP JUMPDEST PUSH1 0x20 DUP2 ADD MLOAD DUP6 MLOAD PUSH1 0x40 MLOAD PUSH32 0x8171C40700000000000000000000000000000000000000000000000000000000 DUP2 MSTORE PUSH20 0xFFFFFFFFFFFFFFFFFFFFFFFFFFFFFFFFFFFFFFFF DUP7 AND SWAP3 PUSH4 0x8171C407 SWAP3 PUSH2 0x3D4 SWAP3 DUP10 SWAP1 PUSH1 0x4 ADD PUSH2 0x1517 JUMP JUMPDEST PUSH1 0x20 PUSH1 0x40 MLOAD DUP1 DUP4 SUB DUP2 DUP7 DUP1 EXTCODESIZE ISZERO DUP1 ISZERO PUSH2 0x3EC JUMPI PUSH1 0x0 DUP1 REVERT JUMPDEST POP GAS STATICCALL ISZERO DUP1 ISZERO PUSH2 0x400 JUMPI RETURNDATASIZE PUSH1 0x0 DUP1 RETURNDATACOPY RETURNDATASIZE PUSH1 0x0 REVERT JUMPDEST POP POP POP POP PUSH1 0x40 MLOAD RETURNDATASIZE PUSH1 0x1F NOT PUSH1 0x1F DUP3 ADD AND DUP3 ADD DUP1 PUSH1 0x40 MSTORE POP PUSH2 0x424 SWAP2 SWAP1 DUP2 ADD SWAP1 PUSH2 0x1216 JUMP JUMPDEST PUSH2 0x432 JUMPI PUSH1 0x0 SWAP2 POP POP PUSH2 0x8CF JUMP JUMPDEST PUSH1 0x40 MLOAD PUSH32 0x6070410800000000000000000000000000000000000000000000000000000000 DUP2 MSTORE PUSH1 0x0 SWAP1 PUSH20 0xFFFFFFFFFFFFFFFFFFFFFFFFFFFFFFFFFFFFFFFF DUP6 AND SWAP1 PUSH4 0x60704108 SWAP1 PUSH2 0x4A7 SWAP1 PUSH32 0xF47261B000000000000000000000000000000000000000000000000000000000 SWAP1 PUSH1 0x4 ADD PUSH2 0x1555 JUMP JUMPDEST PUSH1 0x20 PUSH1 0x40 MLOAD DUP1 DUP4 SUB DUP2 DUP7 DUP1 EXTCODESIZE ISZERO DUP1 ISZERO PUSH2 0x4BF JUMPI PUSH1 0x0 DUP1 REVERT JUMPDEST POP GAS STATICCALL ISZERO DUP1 ISZERO PUSH2 0x4D3 JUMPI RETURNDATASIZE PUSH1 0x0 DUP1 RETURNDATACOPY RETURNDATASIZE PUSH1 0x0 REVERT JUMPDEST POP POP POP POP PUSH1 0x40 MLOAD RETURNDATASIZE PUSH1 0x1F NOT PUSH1 0x1F DUP3 ADD AND DUP3 ADD DUP1 PUSH1 0x40 MSTORE POP PUSH2 0x4F7 SWAP2 SWAP1 DUP2 ADD SWAP1 PUSH2 0x1100 JUMP JUMPDEST SWAP1 POP PUSH1 0x0 PUSH2 0x509 DUP8 PUSH2 0x140 ADD MLOAD PUSH2 0x9A7 JUMP JUMPDEST SWAP1 POP PUSH20 0xFFFFFFFFFFFFFFFFFFFFFFFFFFFFFFFFFFFFFFFF DUP2 AND PUSH2 0x532 JUMPI PUSH1 0x0 SWAP4 POP POP POP POP PUSH2 0x8CF JUMP JUMPDEST PUSH1 0x0 DUP1 DUP9 PUSH1 0xC0 ADD MLOAD GT PUSH2 0x546 JUMPI PUSH1 0x0 PUSH2 0x554 JUMP JUMPDEST PUSH2 0x554 DUP9 PUSH2 0x180 ADD MLOAD PUSH2 0x9A7 JUMP JUMPDEST SWAP1 POP PUSH1 0x0 PUSH2 0x573 DUP6 PUSH1 0x40 ADD MLOAD DUP11 PUSH1 0xA0 ADD MLOAD PUSH2 0xA44 SWAP1 SWAP2 SWAP1 PUSH4 0xFFFFFFFF AND JUMP JUMPDEST SWAP1 POP DUP1 SWAP6 POP PUSH1 0x0 PUSH2 0x5DE DUP3 DUP12 PUSH1 0xA0 ADD MLOAD DUP7 PUSH20 0xFFFFFFFFFFFFFFFFFFFFFFFFFFFFFFFFFFFFFFFF AND DUP7 PUSH20 0xFFFFFFFFFFFFFFFFFFFFFFFFFFFFFFFFFFFFFFFF AND EQ PUSH2 0x5C0 JUMPI DUP13 PUSH1 0x80 ADD MLOAD PUSH2 0x5D9 JUMP JUMPDEST PUSH1 0xC0 DUP14 ADD MLOAD PUSH1 0x80 DUP15 ADD MLOAD PUSH2 0x5D9 SWAP2 PUSH4 0xFFFFFFFF PUSH2 0xA6D AND JUMP JUMPDEST PUSH2 0xA89 JUMP JUMPDEST DUP11 MLOAD PUSH1 0x40 MLOAD PUSH32 0x70A0823100000000000000000000000000000000000000000000000000000000 DUP2 MSTORE SWAP2 SWAP3 POP PUSH1 0x0 SWAP2 PUSH2 0x734 SWAP2 PUSH20 0xFFFFFFFFFFFFFFFFFFFFFFFFFFFFFFFFFFFFFFFF DUP9 AND SWAP2 PUSH4 0x70A08231 SWAP2 PUSH2 0x63A SWAP2 PUSH1 0x4 ADD PUSH2 0x148C JUMP JUMPDEST PUSH1 0x20 PUSH1 0x40 MLOAD DUP1 DUP4 SUB DUP2 DUP7 DUP1 EXTCODESIZE ISZERO DUP1 ISZERO PUSH2 0x652 JUMPI PUSH1 0x0 DUP1 REVERT JUMPDEST POP GAS STATICCALL ISZERO DUP1 ISZERO PUSH2 0x666 JUMPI RETURNDATASIZE PUSH1 0x0 DUP1 RETURNDATACOPY RETURNDATASIZE PUSH1 0x0 REVERT JUMPDEST POP POP POP POP PUSH1 0x40 MLOAD RETURNDATASIZE PUSH1 0x1F NOT PUSH1 0x1F DUP3 ADD AND DUP3 ADD DUP1 PUSH1 0x40 MSTORE POP PUSH2 0x68A SWAP2 SWAP1 DUP2 ADD SWAP1 PUSH2 0x12F3 JUMP JUMPDEST DUP13 MLOAD PUSH1 0x40 MLOAD PUSH32 0xDD62ED3E00000000000000000000000000000000000000000000000000000000 DUP2 MSTORE PUSH20 0xFFFFFFFFFFFFFFFFFFFFFFFFFFFFFFFFFFFFFFFF DUP10 AND SWAP2 PUSH4 0xDD62ED3E SWAP2 PUSH2 0x6DF SWAP2 SWAP1 DUP13 SWAP1 PUSH1 0x4 ADD PUSH2 0x14AD JUMP JUMPDEST PUSH1 0x20 PUSH1 0x40 MLOAD DUP1 DUP4 SUB DUP2 DUP7 DUP1 EXTCODESIZE ISZERO DUP1 ISZERO PUSH2 0x6F7 JUMPI PUSH1 0x0 DUP1 REVERT JUMPDEST POP GAS STATICCALL ISZERO DUP1 ISZERO PUSH2 0x70B JUMPI RETURNDATASIZE PUSH1 0x0 DUP1 RETURNDATACOPY RETURNDATASIZE PUSH1 0x0 REVERT JUMPDEST POP POP POP POP PUSH1 0x40 MLOAD RETURNDATASIZE PUSH1 0x1F NOT PUSH1 0x1F DUP3 ADD AND DUP3 ADD DUP1 PUSH1 0x40 MSTORE POP PUSH2 0x72F SWAP2 SWAP1 DUP2 ADD SWAP1 PUSH2 0x12F3 JUMP JUMPDEST PUSH2 0xAD1 JUMP JUMPDEST SWAP1 POP DUP2 DUP2 LT ISZERO PUSH2 0x74C JUMPI PUSH2 0x749 DUP2 DUP4 DUP6 PUSH2 0xAE7 JUMP JUMPDEST SWAP8 POP JUMPDEST DUP5 PUSH20 0xFFFFFFFFFFFFFFFFFFFFFFFFFFFFFFFFFFFFFFFF AND DUP5 PUSH20 0xFFFFFFFFFFFFFFFFFFFFFFFFFFFFFFFFFFFFFFFF AND EQ ISZERO DUP1 ISZERO PUSH2 0x79D JUMPI POP PUSH20 0xFFFFFFFFFFFFFFFFFFFFFFFFFFFFFFFFFFFFFFFF DUP5 AND ISZERO ISZERO JUMPDEST ISZERO PUSH2 0x8C7 JUMPI DUP11 MLOAD PUSH1 0x40 MLOAD PUSH32 0x70A0823100000000000000000000000000000000000000000000000000000000 DUP2 MSTORE PUSH1 0x0 SWAP2 PUSH2 0x8A1 SWAP2 PUSH20 0xFFFFFFFFFFFFFFFFFFFFFFFFFFFFFFFFFFFFFFFF DUP9 AND SWAP2 PUSH4 0x70A08231 SWAP2 PUSH2 0x7FC SWAP2 SWAP1 PUSH1 0x4 ADD PUSH2 0x148C JUMP JUMPDEST PUSH1 0x20 PUSH1 0x40 MLOAD DUP1 DUP4 SUB DUP2 DUP7 DUP1 EXTCODESIZE ISZERO DUP1 ISZERO PUSH2 0x814 JUMPI PUSH1 0x0 DUP1 REVERT JUMPDEST POP GAS STATICCALL ISZERO DUP1 ISZERO PUSH2 0x828 JUMPI RETURNDATASIZE PUSH1 0x0 DUP1 RETURNDATACOPY RETURNDATASIZE PUSH1 0x0 REVERT JUMPDEST POP POP POP POP PUSH1 0x40 MLOAD RETURNDATASIZE PUSH1 0x1F NOT PUSH1 0x1F DUP3 ADD AND DUP3 ADD DUP1 PUSH1 0x40 MSTORE POP PUSH2 0x84C SWAP2 SWAP1 DUP2 ADD SWAP1 PUSH2 0x12F3 JUMP JUMPDEST DUP14 MLOAD PUSH1 0x40 MLOAD PUSH32 0xDD62ED3E00000000000000000000000000000000000000000000000000000000 DUP2 MSTORE PUSH20 0xFFFFFFFFFFFFFFFFFFFFFFFFFFFFFFFFFFFFFFFF DUP10 AND SWAP2 PUSH4 0xDD62ED3E SWAP2 PUSH2 0x6DF SWAP2 SWAP1 DUP14 SWAP1 PUSH1 0x4 ADD PUSH2 0x14AD JUMP JUMPDEST SWAP1 POP DUP12 PUSH1 0xC0 ADD MLOAD DUP2 LT ISZERO PUSH2 0x8C5 JUMPI PUSH2 0x8C2 DUP10 PUSH2 0x72F DUP4 DUP16 PUSH1 0xC0 ADD MLOAD DUP9 PUSH2 0xAE7 JUMP JUMPDEST SWAP9 POP JUMPDEST POP JUMPDEST POP POP POP POP POP POP POP JUMPDEST SWAP4 SWAP3 POP POP POP JUMP JUMPDEST PUSH1 0x60 PUSH2 0x8E3 DUP5 DUP5 DUP5 PUSH2 0xCE JUMP JUMPDEST SWAP1 POP PUSH1 0x0 JUMPDEST DUP5 MLOAD DUP2 LT ISZERO PUSH2 0x27B JUMPI DUP2 DUP2 DUP2 MLOAD DUP2 LT PUSH2 0x8FD JUMPI INVALID JUMPDEST PUSH1 0x20 MUL PUSH1 0x20 ADD ADD MLOAD PUSH1 0x0 EQ PUSH2 0x971 JUMPI PUSH2 0x958 DUP3 DUP3 DUP2 MLOAD DUP2 LT PUSH2 0x91B JUMPI INVALID JUMPDEST PUSH1 0x20 MUL PUSH1 0x20 ADD ADD MLOAD DUP7 DUP4 DUP2 MLOAD DUP2 LT PUSH2 0x92F JUMPI INVALID JUMPDEST PUSH1 0x20 MUL PUSH1 0x20 ADD ADD MLOAD PUSH1 0xA0 ADD MLOAD DUP8 DUP5 DUP2 MLOAD DUP2 LT PUSH2 0x947 JUMPI INVALID JUMPDEST PUSH1 0x20 MUL PUSH1 0x20 ADD ADD MLOAD PUSH1 0x80 ADD MLOAD PUSH2 0xAE7 JUMP JUMPDEST DUP3 DUP3 DUP2 MLOAD DUP2 LT PUSH2 0x964 JUMPI INVALID JUMPDEST PUSH1 0x20 MUL PUSH1 0x20 ADD ADD DUP2 DUP2 MSTORE POP POP JUMPDEST PUSH1 0x1 ADD PUSH2 0x8E8 JUMP JUMPDEST PUSH1 0x0 DUP1 PUSH1 0x0 PUSH2 0x987 DUP6 PUSH2 0xB1D JUMP JUMPDEST PUSH1 0xFF AND SWAP1 POP PUSH1 0x0 PUSH2 0x997 DUP6 PUSH2 0xB1D JUMP JUMPDEST SWAP2 SWAP4 POP POP PUSH1 0xFF AND SWAP1 POP SWAP3 POP SWAP3 SWAP1 POP JUMP JUMPDEST PUSH1 0x0 DUP2 MLOAD PUSH1 0x0 EQ ISZERO PUSH2 0x9BB JUMPI POP PUSH1 0x0 PUSH2 0xA3F JUMP JUMPDEST DUP2 MLOAD PUSH1 0x24 EQ ISZERO DUP1 PUSH2 0xA1E JUMPI POP PUSH32 0xF47261B000000000000000000000000000000000000000000000000000000000 PUSH2 0x9F9 DUP4 PUSH1 0x0 PUSH4 0xFFFFFFFF PUSH2 0xBEE AND JUMP JUMPDEST PUSH32 0xFFFFFFFF00000000000000000000000000000000000000000000000000000000 AND EQ ISZERO JUMPDEST ISZERO PUSH2 0xA2B JUMPI POP PUSH1 0x0 PUSH2 0xA3F JUMP JUMPDEST PUSH2 0xA3C DUP3 PUSH1 0x10 PUSH4 0xFFFFFFFF PUSH2 0xC3A AND JUMP JUMPDEST SWAP1 POP JUMPDEST SWAP2 SWAP1 POP JUMP JUMPDEST PUSH1 0x0 DUP3 DUP3 GT ISZERO PUSH2 0xA62 JUMPI PUSH2 0xA62 PUSH2 0xA5D PUSH1 0x2 DUP6 DUP6 PUSH2 0xC7A JUMP JUMPDEST PUSH2 0xD1F JUMP JUMPDEST POP DUP1 DUP3 SUB JUMPDEST SWAP3 SWAP2 POP POP JUMP JUMPDEST PUSH1 0x0 DUP3 DUP3 ADD DUP4 DUP2 LT ISZERO PUSH2 0x8CF JUMPI PUSH2 0x8CF PUSH2 0xA5D PUSH1 0x0 DUP7 DUP7 PUSH2 0xC7A JUMP JUMPDEST PUSH1 0x0 PUSH2 0xA96 DUP5 DUP5 DUP5 PUSH2 0xD27 JUMP JUMPDEST ISZERO PUSH2 0xAA9 JUMPI PUSH2 0xAA9 PUSH2 0xA5D DUP6 DUP6 DUP6 PUSH2 0xD8D JUMP JUMPDEST PUSH2 0xAC9 DUP4 PUSH2 0xABD DUP7 DUP6 PUSH4 0xFFFFFFFF PUSH2 0xDAC AND JUMP JUMPDEST SWAP1 PUSH4 0xFFFFFFFF PUSH2 0xDDD AND JUMP JUMPDEST SWAP5 SWAP4 POP POP POP POP JUMP JUMPDEST PUSH1 0x0 DUP2 DUP4 LT PUSH2 0xAE0 JUMPI DUP2 PUSH2 0x8CF JUMP JUMPDEST POP SWAP1 SWAP2 SWAP1 POP JUMP JUMPDEST PUSH1 0x0 PUSH2 0xAC9 DUP4 PUSH2 0xABD PUSH2 0xB01 DUP3 PUSH1 0x1 PUSH4 0xFFFFFFFF PUSH2 0xA44 AND JUMP JUMPDEST PUSH2 0xB11 DUP9 DUP8 PUSH4 0xFFFFFFFF PUSH2 0xDAC AND JUMP JUMPDEST SWAP1 PUSH4 0xFFFFFFFF PUSH2 0xA6D AND JUMP JUMPDEST PUSH1 0x0 PUSH1 0x12 SWAP1 POP PUSH1 0x0 PUSH1 0x60 DUP4 PUSH20 0xFFFFFFFFFFFFFFFFFFFFFFFFFFFFFFFFFFFFFFFF AND PUSH1 0x40 MLOAD DUP1 PUSH1 0x40 ADD PUSH1 0x40 MSTORE DUP1 PUSH1 0x4 DUP2 MSTORE PUSH1 0x20 ADD PUSH32 0x313CE56700000000000000000000000000000000000000000000000000000000 DUP2 MSTORE POP PUSH1 0x40 MLOAD PUSH2 0xB81 SWAP2 SWAP1 PUSH2 0x1470 JUMP JUMPDEST PUSH1 0x0 PUSH1 0x40 MLOAD DUP1 DUP4 SUB DUP2 DUP6 GAS STATICCALL SWAP2 POP POP RETURNDATASIZE DUP1 PUSH1 0x0 DUP2 EQ PUSH2 0xBBC JUMPI PUSH1 0x40 MLOAD SWAP2 POP PUSH1 0x1F NOT PUSH1 0x3F RETURNDATASIZE ADD AND DUP3 ADD PUSH1 0x40 MSTORE RETURNDATASIZE DUP3 MSTORE RETURNDATASIZE PUSH1 0x0 PUSH1 0x20 DUP5 ADD RETURNDATACOPY PUSH2 0xBC1 JUMP JUMPDEST PUSH1 0x60 SWAP2 POP JUMPDEST POP SWAP2 POP SWAP2 POP DUP2 DUP1 ISZERO PUSH2 0xBD4 JUMPI POP DUP1 MLOAD PUSH1 0x20 EQ JUMPDEST ISZERO PUSH2 0xBE7 JUMPI PUSH2 0xBE4 DUP2 PUSH1 0x0 PUSH2 0xE07 JUMP JUMPDEST SWAP3 POP JUMPDEST POP POP SWAP2 SWAP1 POP JUMP JUMPDEST PUSH1 0x0 DUP2 PUSH1 0x4 ADD DUP4 MLOAD LT ISZERO PUSH2 0xC0F JUMPI PUSH2 0xC0F PUSH2 0xA5D PUSH1 0x3 DUP6 MLOAD DUP6 PUSH1 0x4 ADD PUSH2 0xE13 JUMP JUMPDEST POP ADD PUSH1 0x20 ADD MLOAD PUSH32 0xFFFFFFFF00000000000000000000000000000000000000000000000000000000 AND SWAP1 JUMP JUMPDEST PUSH1 0x0 DUP2 PUSH1 0x14 ADD DUP4 MLOAD LT ISZERO PUSH2 0xC5B JUMPI PUSH2 0xC5B PUSH2 0xA5D PUSH1 0x4 DUP6 MLOAD DUP6 PUSH1 0x14 ADD PUSH2 0xE13 JUMP JUMPDEST POP ADD PUSH1 0x14 ADD MLOAD PUSH20 0xFFFFFFFFFFFFFFFFFFFFFFFFFFFFFFFFFFFFFFFF AND SWAP1 JUMP JUMPDEST PUSH1 0x60 PUSH4 0xE946C1BB PUSH1 0xE0 SHL DUP5 DUP5 DUP5 PUSH1 0x40 MLOAD PUSH1 0x24 ADD PUSH2 0xC99 SWAP4 SWAP3 SWAP2 SWAP1 PUSH2 0x1582 JUMP JUMPDEST PUSH1 0x40 DUP1 MLOAD PUSH32 0xFFFFFFFFFFFFFFFFFFFFFFFFFFFFFFFFFFFFFFFFFFFFFFFFFFFFFFFFFFFFFFE0 DUP2 DUP5 SUB ADD DUP2 MSTORE SWAP2 SWAP1 MSTORE PUSH1 0x20 DUP2 ADD DUP1 MLOAD PUSH28 0xFFFFFFFFFFFFFFFFFFFFFFFFFFFFFFFFFFFFFFFFFFFFFFFFFFFFFFFF AND PUSH32 0xFFFFFFFF00000000000000000000000000000000000000000000000000000000 SWAP1 SWAP4 AND SWAP3 SWAP1 SWAP3 OR SWAP1 SWAP2 MSTORE SWAP1 POP SWAP4 SWAP3 POP POP POP JUMP JUMPDEST DUP1 MLOAD PUSH1 0x20 DUP3 ADD REVERT JUMPDEST PUSH1 0x0 DUP3 PUSH2 0xD39 JUMPI PUSH2 0xD39 PUSH2 0xA5D PUSH2 0xE32 JUMP JUMPDEST DUP2 ISZERO DUP1 PUSH2 0xD44 JUMPI POP DUP4 ISZERO JUMPDEST ISZERO PUSH2 0xD51 JUMPI POP PUSH1 0x0 PUSH2 0x8CF JUMP JUMPDEST PUSH1 0x0 DUP4 DUP1 PUSH2 0xD5B JUMPI INVALID JUMPDEST DUP6 DUP5 MULMOD SWAP1 POP PUSH2 0xD70 DUP6 DUP5 PUSH4 0xFFFFFFFF PUSH2 0xDAC AND JUMP JUMPDEST PUSH2 0xD82 DUP3 PUSH2 0x3E8 PUSH4 0xFFFFFFFF PUSH2 0xDAC AND JUMP JUMPDEST LT ISZERO SWAP6 SWAP5 POP POP POP POP POP JUMP JUMPDEST PUSH1 0x60 PUSH4 0x339F3DE2 PUSH1 0xE0 SHL DUP5 DUP5 DUP5 PUSH1 0x40 MLOAD PUSH1 0x24 ADD PUSH2 0xC99 SWAP4 SWAP3 SWAP2 SWAP1 PUSH2 0x1628 JUMP JUMPDEST PUSH1 0x0 DUP3 PUSH2 0xDBB JUMPI POP PUSH1 0x0 PUSH2 0xA67 JUMP JUMPDEST DUP3 DUP3 MUL DUP3 DUP5 DUP3 DUP2 PUSH2 0xDC8 JUMPI INVALID JUMPDEST DIV EQ PUSH2 0x8CF JUMPI PUSH2 0x8CF PUSH2 0xA5D PUSH1 0x1 DUP7 DUP7 PUSH2 0xC7A JUMP JUMPDEST PUSH1 0x0 DUP2 PUSH2 0xDF3 JUMPI PUSH2 0xDF3 PUSH2 0xA5D PUSH1 0x3 DUP6 DUP6 PUSH2 0xC7A JUMP JUMPDEST PUSH1 0x0 DUP3 DUP5 DUP2 PUSH2 0xDFE JUMPI INVALID JUMPDEST DIV SWAP5 SWAP4 POP POP POP POP JUMP JUMPDEST PUSH1 0x0 PUSH2 0x8CF DUP4 DUP4 PUSH2 0xE69 JUMP JUMPDEST PUSH1 0x60 PUSH4 0x28006595 PUSH1 0xE0 SHL DUP5 DUP5 DUP5 PUSH1 0x40 MLOAD PUSH1 0x24 ADD PUSH2 0xC99 SWAP4 SWAP3 SWAP2 SWAP1 PUSH2 0x15A4 JUMP JUMPDEST PUSH1 0x40 DUP1 MLOAD DUP1 DUP3 ADD SWAP1 SWAP2 MSTORE PUSH1 0x4 DUP2 MSTORE PUSH32 0xA791837C00000000000000000000000000000000000000000000000000000000 PUSH1 0x20 DUP3 ADD MSTORE SWAP1 JUMP JUMPDEST PUSH1 0x0 DUP2 PUSH1 0x20 ADD DUP4 MLOAD LT ISZERO PUSH2 0xE8A JUMPI PUSH2 0xE8A PUSH2 0xA5D PUSH1 0x5 DUP6 MLOAD DUP6 PUSH1 0x20 ADD PUSH2 0xE13 JUMP JUMPDEST POP ADD PUSH1 0x20 ADD MLOAD SWAP1 JUMP JUMPDEST PUSH1 0x40 DUP1 MLOAD PUSH1 0x60 DUP2 ADD SWAP1 SWAP2 MSTORE DUP1 PUSH1 0x0 DUP2 MSTORE PUSH1 0x0 PUSH1 0x20 DUP3 ADD DUP2 SWAP1 MSTORE PUSH1 0x40 SWAP1 SWAP2 ADD MSTORE SWAP1 JUMP JUMPDEST DUP1 CALLDATALOAD PUSH2 0xA67 DUP2 PUSH2 0x16B5 JUMP JUMPDEST PUSH1 0x0 DUP3 PUSH1 0x1F DUP4 ADD SLT PUSH2 0xED0 JUMPI DUP1 DUP2 REVERT JUMPDEST DUP2 CALLDATALOAD PUSH2 0xEE3 PUSH2 0xEDE DUP3 PUSH2 0x1665 JUMP JUMPDEST PUSH2 0x163E JUMP JUMPDEST DUP2 DUP2 MSTORE SWAP2 POP PUSH1 0x20 DUP1 DUP4 ADD SWAP1 DUP5 ADD PUSH1 0x0 JUMPDEST DUP4 DUP2 LT ISZERO PUSH2 0xF20 JUMPI PUSH2 0xF0B DUP8 PUSH1 0x20 DUP5 CALLDATALOAD DUP10 ADD ADD PUSH2 0xF2A JUMP JUMPDEST DUP4 MSTORE PUSH1 0x20 SWAP3 DUP4 ADD SWAP3 SWAP2 SWAP1 SWAP2 ADD SWAP1 PUSH1 0x1 ADD PUSH2 0xEF3 JUMP JUMPDEST POP POP POP POP SWAP3 SWAP2 POP POP JUMP JUMPDEST PUSH1 0x0 DUP3 PUSH1 0x1F DUP4 ADD SLT PUSH2 0xF3A JUMPI DUP1 DUP2 REVERT JUMPDEST DUP2 CALLDATALOAD PUSH8 0xFFFFFFFFFFFFFFFF DUP2 GT ISZERO PUSH2 0xF50 JUMPI DUP2 DUP3 REVERT JUMPDEST PUSH2 0xF81 PUSH1 0x20 PUSH32 0xFFFFFFFFFFFFFFFFFFFFFFFFFFFFFFFFFFFFFFFFFFFFFFFFFFFFFFFFFFFFFFE0 PUSH1 0x1F DUP5 ADD AND ADD PUSH2 0x163E JUMP JUMPDEST SWAP2 POP DUP1 DUP3 MSTORE DUP4 PUSH1 0x20 DUP3 DUP6 ADD ADD GT ISZERO PUSH2 0xF98 JUMPI PUSH1 0x0 DUP1 REVERT JUMPDEST DUP1 PUSH1 0x20 DUP5 ADD PUSH1 0x20 DUP5 ADD CALLDATACOPY PUSH1 0x0 SWAP1 DUP3 ADD PUSH1 0x20 ADD MSTORE SWAP3 SWAP2 POP POP JUMP JUMPDEST PUSH1 0x0 PUSH2 0x1C0 DUP1 DUP4 DUP6 SUB SLT ISZERO PUSH2 0xFC4 JUMPI DUP2 DUP3 REVERT JUMPDEST PUSH2 0xFCD DUP2 PUSH2 0x163E JUMP JUMPDEST SWAP2 POP POP PUSH2 0xFDA DUP4 DUP4 PUSH2 0xEB5 JUMP JUMPDEST DUP2 MSTORE PUSH2 0xFE9 DUP4 PUSH1 0x20 DUP5 ADD PUSH2 0xEB5 JUMP JUMPDEST PUSH1 0x20 DUP3 ADD MSTORE PUSH2 0xFFB DUP4 PUSH1 0x40 DUP5 ADD PUSH2 0xEB5 JUMP JUMPDEST PUSH1 0x40 DUP3 ADD MSTORE PUSH2 0x100D DUP4 PUSH1 0x60 DUP5 ADD PUSH2 0xEB5 JUMP JUMPDEST PUSH1 0x60 DUP3 ADD MSTORE PUSH1 0x80 DUP3 ADD CALLDATALOAD PUSH1 0x80 DUP3 ADD MSTORE PUSH1 0xA0 DUP3 ADD CALLDATALOAD PUSH1 0xA0 DUP3 ADD MSTORE PUSH1 0xC0 DUP3 ADD CALLDATALOAD PUSH1 0xC0 DUP3 ADD MSTORE PUSH1 0xE0 DUP3 ADD CALLDATALOAD PUSH1 0xE0 DUP3 ADD MSTORE PUSH2 0x100 DUP1 DUP4 ADD CALLDATALOAD DUP2 DUP4 ADD MSTORE POP PUSH2 0x120 DUP1 DUP4 ADD CALLDATALOAD DUP2 DUP4 ADD MSTORE POP PUSH2 0x140 DUP1 DUP4 ADD CALLDATALOAD PUSH8 0xFFFFFFFFFFFFFFFF DUP1 DUP3 GT ISZERO PUSH2 0x106F JUMPI PUSH1 0x0 DUP1 REVERT JUMPDEST PUSH2 0x107B DUP7 DUP4 DUP8 ADD PUSH2 0xF2A JUMP JUMPDEST DUP4 DUP6 ADD MSTORE PUSH2 0x160 SWAP3 POP DUP3 DUP6 ADD CALLDATALOAD SWAP2 POP DUP1 DUP3 GT ISZERO PUSH2 0x1097 JUMPI PUSH1 0x0 DUP1 REVERT JUMPDEST PUSH2 0x10A3 DUP7 DUP4 DUP8 ADD PUSH2 0xF2A JUMP JUMPDEST DUP4 DUP6 ADD MSTORE PUSH2 0x180 SWAP3 POP DUP3 DUP6 ADD CALLDATALOAD SWAP2 POP DUP1 DUP3 GT ISZERO PUSH2 0x10BF JUMPI PUSH1 0x0 DUP1 REVERT JUMPDEST PUSH2 0x10CB DUP7 DUP4 DUP8 ADD PUSH2 0xF2A JUMP JUMPDEST DUP4 DUP6 ADD MSTORE PUSH2 0x1A0 SWAP3 POP DUP3 DUP6 ADD CALLDATALOAD SWAP2 POP DUP1 DUP3 GT ISZERO PUSH2 0x10E7 JUMPI PUSH1 0x0 DUP1 REVERT JUMPDEST POP PUSH2 0x10F4 DUP6 DUP3 DUP7 ADD PUSH2 0xF2A JUMP JUMPDEST DUP3 DUP5 ADD MSTORE POP POP SWAP3 SWAP2 POP POP JUMP JUMPDEST PUSH1 0x0 PUSH1 0x20 DUP3 DUP5 SUB SLT ISZERO PUSH2 0x1111 JUMPI DUP1 DUP2 REVERT JUMPDEST DUP2 MLOAD PUSH2 0x8CF DUP2 PUSH2 0x16B5 JUMP JUMPDEST PUSH1 0x0 DUP1 PUSH1 0x40 DUP4 DUP6 SUB SLT ISZERO PUSH2 0x112E JUMPI DUP1 DUP2 REVERT JUMPDEST DUP3 CALLDATALOAD PUSH2 0x1139 DUP2 PUSH2 0x16B5 JUMP JUMPDEST SWAP2 POP PUSH1 0x20 DUP4 ADD CALLDATALOAD PUSH2 0x1149 DUP2 PUSH2 0x16B5 JUMP JUMPDEST DUP1 SWAP2 POP POP SWAP3 POP SWAP3 SWAP1 POP JUMP JUMPDEST PUSH1 0x0 DUP1 PUSH1 0x0 PUSH1 0x60 DUP5 DUP7 SUB SLT ISZERO PUSH2 0x1168 JUMPI DUP1 DUP2 REVERT JUMPDEST DUP4 CALLDATALOAD PUSH8 0xFFFFFFFFFFFFFFFF DUP1 DUP3 GT ISZERO PUSH2 0x117F JUMPI DUP3 DUP4 REVERT JUMPDEST DUP2 DUP7 ADD DUP8 PUSH1 0x1F DUP3 ADD SLT PUSH2 0x1190 JUMPI DUP4 DUP5 REVERT JUMPDEST DUP1 CALLDATALOAD SWAP3 POP PUSH2 0x11A0 PUSH2 0xEDE DUP5 PUSH2 0x1665 JUMP JUMPDEST DUP4 DUP2 MSTORE PUSH1 0x20 DUP1 DUP3 ADD SWAP2 SWAP1 DUP4 DUP2 ADD DUP8 JUMPDEST DUP8 DUP2 LT ISZERO PUSH2 0x11D8 JUMPI PUSH2 0x11C6 DUP14 DUP5 DUP5 CALLDATALOAD DUP10 ADD ADD PUSH2 0xFB1 JUMP JUMPDEST DUP6 MSTORE SWAP4 DUP3 ADD SWAP4 SWAP1 DUP3 ADD SWAP1 PUSH1 0x1 ADD PUSH2 0x11AF JUMP JUMPDEST POP SWAP2 SWAP9 POP DUP10 ADD CALLDATALOAD SWAP5 POP POP POP POP DUP1 DUP3 GT ISZERO PUSH2 0x11F0 JUMPI DUP3 DUP4 REVERT JUMPDEST POP PUSH2 0x11FD DUP7 DUP3 DUP8 ADD PUSH2 0xEC0 JUMP JUMPDEST SWAP3 POP POP PUSH2 0x120D DUP6 PUSH1 0x40 DUP7 ADD PUSH2 0xEB5 JUMP JUMPDEST SWAP1 POP SWAP3 POP SWAP3 POP SWAP3 JUMP JUMPDEST PUSH1 0x0 PUSH1 0x20 DUP3 DUP5 SUB SLT ISZERO PUSH2 0x1227 JUMPI DUP1 DUP2 REVERT JUMPDEST DUP2 MLOAD DUP1 ISZERO ISZERO DUP2 EQ PUSH2 0x8CF JUMPI DUP2 DUP3 REVERT JUMPDEST PUSH1 0x0 PUSH1 0x60 DUP3 DUP5 SUB SLT ISZERO PUSH2 0x1247 JUMPI DUP1 DUP2 REVERT JUMPDEST PUSH2 0x1251 PUSH1 0x60 PUSH2 0x163E JUMP JUMPDEST DUP3 MLOAD PUSH1 0x7 DUP2 LT PUSH2 0x125F JUMPI DUP3 DUP4 REVERT JUMPDEST DUP2 MSTORE PUSH1 0x20 DUP4 DUP2 ADD MLOAD SWAP1 DUP3 ADD MSTORE PUSH1 0x40 SWAP3 DUP4 ADD MLOAD SWAP3 DUP2 ADD SWAP3 SWAP1 SWAP3 MSTORE POP SWAP2 SWAP1 POP JUMP JUMPDEST PUSH1 0x0 DUP1 PUSH1 0x0 PUSH1 0x60 DUP5 DUP7 SUB SLT ISZERO PUSH2 0x1292 JUMPI DUP1 DUP2 REVERT JUMPDEST DUP4 CALLDATALOAD PUSH8 0xFFFFFFFFFFFFFFFF DUP1 DUP3 GT ISZERO PUSH2 0x12A9 JUMPI DUP3 DUP4 REVERT JUMPDEST PUSH2 0x12B5 DUP8 DUP4 DUP9 ADD PUSH2 0xFB1 JUMP JUMPDEST SWAP5 POP PUSH1 0x20 DUP7 ADD CALLDATALOAD SWAP2 POP DUP1 DUP3 GT ISZERO PUSH2 0x12CA JUMPI DUP3 DUP4 REVERT JUMPDEST POP PUSH2 0x12D7 DUP7 DUP3 DUP8 ADD PUSH2 0xF2A JUMP JUMPDEST SWAP3 POP POP PUSH1 0x40 DUP5 ADD CALLDATALOAD PUSH2 0x12E8 DUP2 PUSH2 0x16B5 JUMP JUMPDEST DUP1 SWAP2 POP POP SWAP3 POP SWAP3 POP SWAP3 JUMP JUMPDEST PUSH1 0x0 PUSH1 0x20 DUP3 DUP5 SUB SLT ISZERO PUSH2 0x1304 JUMPI DUP1 DUP2 REVERT JUMPDEST POP MLOAD SWAP2 SWAP1 POP JUMP JUMPDEST PUSH20 0xFFFFFFFFFFFFFFFFFFFFFFFFFFFFFFFFFFFFFFFF AND SWAP1 MSTORE JUMP JUMPDEST PUSH1 0x0 DUP2 MLOAD DUP1 DUP5 MSTORE PUSH2 0x133D DUP2 PUSH1 0x20 DUP7 ADD PUSH1 0x20 DUP7 ADD PUSH2 0x1685 JUMP JUMPDEST PUSH1 0x1F ADD PUSH32 0xFFFFFFFFFFFFFFFFFFFFFFFFFFFFFFFFFFFFFFFFFFFFFFFFFFFFFFFFFFFFFFE0 AND SWAP3 SWAP1 SWAP3 ADD PUSH1 0x20 ADD SWAP3 SWAP2 POP POP JUMP JUMPDEST PUSH1 0x0 PUSH2 0x1C0 PUSH2 0x137F DUP5 DUP5 MLOAD PUSH2 0x130B JUMP JUMPDEST PUSH1 0x20 DUP4 ADD MLOAD PUSH2 0x1391 PUSH1 0x20 DUP7 ADD DUP3 PUSH2 0x130B JUMP JUMPDEST POP PUSH1 0x40 DUP4 ADD MLOAD PUSH2 0x13A4 PUSH1 0x40 DUP7 ADD DUP3 PUSH2 0x130B JUMP JUMPDEST POP PUSH1 0x60 DUP4 ADD MLOAD PUSH2 0x13B7 PUSH1 0x60 DUP7 ADD DUP3 PUSH2 0x130B JUMP JUMPDEST POP PUSH1 0x80 DUP4 ADD MLOAD PUSH1 0x80 DUP6 ADD MSTORE PUSH1 0xA0 DUP4 ADD MLOAD PUSH1 0xA0 DUP6 ADD MSTORE PUSH1 0xC0 DUP4 ADD MLOAD PUSH1 0xC0 DUP6 ADD MSTORE PUSH1 0xE0 DUP4 ADD MLOAD PUSH1 0xE0 DUP6 ADD MSTORE PUSH2 0x100 DUP1 DUP5 ADD MLOAD DUP2 DUP7 ADD MSTORE POP PUSH2 0x120 DUP1 DUP5 ADD MLOAD DUP2 DUP7 ADD MSTORE POP PUSH2 0x140 DUP1 DUP5 ADD MLOAD DUP3 DUP3 DUP8 ADD MSTORE PUSH2 0x1410 DUP4 DUP8 ADD DUP3 PUSH2 0x1325 JUMP JUMPDEST SWAP2 POP POP PUSH2 0x160 SWAP2 POP DUP2 DUP5 ADD MLOAD DUP6 DUP3 SUB DUP4 DUP8 ADD MSTORE PUSH2 0x142D DUP3 DUP3 PUSH2 0x1325 JUMP JUMPDEST SWAP3 POP POP POP PUSH2 0x180 DUP1 DUP5 ADD MLOAD DUP6 DUP4 SUB DUP3 DUP8 ADD MSTORE PUSH2 0x1449 DUP4 DUP3 PUSH2 0x1325 JUMP JUMPDEST SWAP2 POP POP PUSH2 0x1A0 SWAP2 POP DUP2 DUP5 ADD MLOAD DUP6 DUP3 SUB DUP4 DUP8 ADD MSTORE PUSH2 0x1466 DUP3 DUP3 PUSH2 0x1325 JUMP JUMPDEST SWAP7 SWAP6 POP POP POP POP POP POP JUMP JUMPDEST PUSH1 0x0 DUP3 MLOAD PUSH2 0x1482 DUP2 DUP5 PUSH1 0x20 DUP8 ADD PUSH2 0x1685 JUMP JUMPDEST SWAP2 SWAP1 SWAP2 ADD SWAP3 SWAP2 POP POP JUMP JUMPDEST PUSH20 0xFFFFFFFFFFFFFFFFFFFFFFFFFFFFFFFFFFFFFFFF SWAP2 SWAP1 SWAP2 AND DUP2 MSTORE PUSH1 0x20 ADD SWAP1 JUMP JUMPDEST PUSH20 0xFFFFFFFFFFFFFFFFFFFFFFFFFFFFFFFFFFFFFFFF SWAP3 DUP4 AND DUP2 MSTORE SWAP2 AND PUSH1 0x20 DUP3 ADD MSTORE PUSH1 0x40 ADD SWAP1 JUMP JUMPDEST PUSH1 0x20 DUP1 DUP3 MSTORE DUP3 MLOAD DUP3 DUP3 ADD DUP2 SWAP1 MSTORE PUSH1 0x0 SWAP2 DUP5 ADD SWAP1 PUSH1 0x40 DUP5 ADD SWAP1 DUP4 JUMPDEST DUP2 DUP2 LT ISZERO PUSH2 0x150C JUMPI DUP4 MLOAD DUP4 MSTORE PUSH1 0x20 SWAP4 DUP5 ADD SWAP4 SWAP1 SWAP3 ADD SWAP2 PUSH1 0x1 ADD PUSH2 0x14EE JUMP JUMPDEST POP SWAP1 SWAP6 SWAP5 POP POP POP POP POP JUMP JUMPDEST PUSH1 0x0 DUP5 DUP3 MSTORE PUSH20 0xFFFFFFFFFFFFFFFFFFFFFFFFFFFFFFFFFFFFFFFF DUP5 AND PUSH1 0x20 DUP4 ADD MSTORE PUSH1 0x60 PUSH1 0x40 DUP4 ADD MSTORE PUSH2 0x154C PUSH1 0x60 DUP4 ADD DUP5 PUSH2 0x1325 JUMP JUMPDEST SWAP6 SWAP5 POP POP POP POP POP JUMP JUMPDEST PUSH32 0xFFFFFFFF00000000000000000000000000000000000000000000000000000000 SWAP2 SWAP1 SWAP2 AND DUP2 MSTORE PUSH1 0x20 ADD SWAP1 JUMP JUMPDEST PUSH1 0x60 DUP2 ADD PUSH1 0x4 DUP6 LT PUSH2 0x1590 JUMPI INVALID JUMPDEST SWAP4 DUP2 MSTORE PUSH1 0x20 DUP2 ADD SWAP3 SWAP1 SWAP3 MSTORE PUSH1 0x40 SWAP1 SWAP2 ADD MSTORE SWAP1 JUMP JUMPDEST PUSH1 0x60 DUP2 ADD PUSH1 0x8 DUP6 LT PUSH2 0x1590 JUMPI INVALID JUMPDEST PUSH1 0x0 PUSH1 0x20 DUP3 MSTORE PUSH2 0x8CF PUSH1 0x20 DUP4 ADD DUP5 PUSH2 0x136F JUMP JUMPDEST PUSH1 0x0 PUSH1 0x60 DUP3 MSTORE PUSH2 0x15D8 PUSH1 0x60 DUP4 ADD DUP7 PUSH2 0x136F JUMP JUMPDEST DUP3 DUP2 SUB PUSH1 0x20 DUP5 ADD MSTORE PUSH2 0x15EA DUP2 DUP7 PUSH2 0x1325 JUMP JUMPDEST SWAP2 POP POP PUSH20 0xFFFFFFFFFFFFFFFFFFFFFFFFFFFFFFFFFFFFFFFF DUP4 AND PUSH1 0x40 DUP4 ADD MSTORE SWAP5 SWAP4 POP POP POP POP JUMP JUMPDEST SWAP1 DUP2 MSTORE PUSH1 0x20 ADD SWAP1 JUMP JUMPDEST SWAP2 DUP3 MSTORE PUSH1 0x20 DUP3 ADD MSTORE PUSH1 0x40 ADD SWAP1 JUMP JUMPDEST SWAP3 DUP4 MSTORE PUSH1 0x20 DUP4 ADD SWAP2 SWAP1 SWAP2 MSTORE PUSH1 0x40 DUP3 ADD MSTORE PUSH1 0x60 ADD SWAP1 JUMP JUMPDEST PUSH1 0x40 MLOAD DUP2 DUP2 ADD PUSH8 0xFFFFFFFFFFFFFFFF DUP2 GT DUP3 DUP3 LT OR ISZERO PUSH2 0x165D JUMPI PUSH1 0x0 DUP1 REVERT JUMPDEST PUSH1 0x40 MSTORE SWAP2 SWAP1 POP JUMP JUMPDEST PUSH1 0x0 PUSH8 0xFFFFFFFFFFFFFFFF DUP3 GT ISZERO PUSH2 0x167B JUMPI DUP1 DUP2 REVERT JUMPDEST POP PUSH1 0x20 SWAP1 DUP2 MUL ADD SWAP1 JUMP JUMPDEST PUSH1 0x0 JUMPDEST DUP4 DUP2 LT ISZERO PUSH2 0x16A0 JUMPI DUP2 DUP2 ADD MLOAD DUP4 DUP3 ADD MSTORE PUSH1 0x20 ADD PUSH2 0x1688 JUMP JUMPDEST DUP4 DUP2 GT ISZERO PUSH2 0x16AF JUMPI PUSH1 0x0 DUP5 DUP5 ADD MSTORE JUMPDEST POP POP POP POP JUMP JUMPDEST PUSH20 0xFFFFFFFFFFFFFFFFFFFFFFFFFFFFFFFFFFFFFFFF DUP2 AND DUP2 EQ PUSH2 0x16D7 JUMPI PUSH1 0x0 DUP1 REVERT JUMPDEST POP JUMP INVALID LOG3 PUSH6 0x627A7A723158 KECCAK256 0xAA CREATE 0xC 0xD7 EXTCODEHASH 0xDC 0xD8 0xEB JUMP 0xEA CALLVALUE EXP 0xD2 0xCA SLT 0xD4 ISZERO KECCAK256 0xDF MUL CREATE PUSH27 0x4B511A9F85AE5CFFE1036C6578706572696D656E74616CF564736F PUSH13 0x63430005110040000000000000 "
            }
        }
    },
    "sourceTreeHashHex": "0xb7a3c613ebc4ef28bb738419085d0637ad883de7f18cdc055e116c396868f4b6",
    "compiler": {
        "name": "solc",
        "version": "0.5.17+commit.d19bba13",
        "settings": {
            "remappings": [
                "@0x/contracts-exchange-libs=/home/gene/dev/0x/protocol/packages/asset-swapper/node_modules/@0x/contracts-exchange-libs",
                "@0x/contracts-utils=/home/gene/dev/0x/protocol/packages/asset-swapper/node_modules/@0x/contracts-utils",
                "@0x/contracts-erc20=/home/gene/dev/0x/protocol/packages/asset-swapper/node_modules/@0x/contracts-erc20",
                "@0x/contracts-exchange=/home/gene/dev/0x/protocol/packages/asset-swapper/node_modules/@0x/contracts-exchange",
                "@0x/contracts-asset-proxy=/home/gene/dev/0x/protocol/packages/asset-swapper/node_modules/@0x/contracts-asset-proxy"
            ],
            "optimizer": {
                "enabled": true,
                "runs": 62500,
                "details": {
                    "yul": true,
                    "deduplicate": true,
                    "cse": true,
                    "constantOptimizer": true
                }
            },
            "outputSelection": {
                "*": {
                    "*": [
                        "abi",
                        "devdoc",
                        "evm.bytecode.object",
                        "evm.bytecode.sourceMap",
                        "evm.deployedBytecode.object",
                        "evm.deployedBytecode.sourceMap"
                    ]
                }
            },
            "evmVersion": "istanbul"
        }
    },
    "chains": {}
}