{
    "schemaVersion": "2.0.0",
    "contractName": "OrderTransferSimulationUtils",
    "compilerOutput": {
        "abi": [
            {
                "inputs": [
                    {
                        "internalType": "address",
                        "name": "_exchange",
                        "type": "address"
                    }
                ],
                "payable": false,
                "stateMutability": "nonpayable",
                "type": "constructor"
            },
            {
                "constant": false,
                "inputs": [
                    {
                        "components": [
                            {
                                "internalType": "address",
                                "name": "makerAddress",
                                "type": "address"
                            },
                            {
                                "internalType": "address",
                                "name": "takerAddress",
                                "type": "address"
                            },
                            {
                                "internalType": "address",
                                "name": "feeRecipientAddress",
                                "type": "address"
                            },
                            {
                                "internalType": "address",
                                "name": "senderAddress",
                                "type": "address"
                            },
                            {
                                "internalType": "uint256",
                                "name": "makerAssetAmount",
                                "type": "uint256"
                            },
                            {
                                "internalType": "uint256",
                                "name": "takerAssetAmount",
                                "type": "uint256"
                            },
                            {
                                "internalType": "uint256",
                                "name": "makerFee",
                                "type": "uint256"
                            },
                            {
                                "internalType": "uint256",
                                "name": "takerFee",
                                "type": "uint256"
                            },
                            {
                                "internalType": "uint256",
                                "name": "expirationTimeSeconds",
                                "type": "uint256"
                            },
                            {
                                "internalType": "uint256",
                                "name": "salt",
                                "type": "uint256"
                            },
                            {
                                "internalType": "bytes",
                                "name": "makerAssetData",
                                "type": "bytes"
                            },
                            {
                                "internalType": "bytes",
                                "name": "takerAssetData",
                                "type": "bytes"
                            },
                            {
                                "internalType": "bytes",
                                "name": "makerFeeAssetData",
                                "type": "bytes"
                            },
                            {
                                "internalType": "bytes",
                                "name": "takerFeeAssetData",
                                "type": "bytes"
                            }
                        ],
                        "internalType": "struct LibOrder.Order",
                        "name": "order",
                        "type": "tuple"
                    },
                    {
                        "internalType": "address",
                        "name": "takerAddress",
                        "type": "address"
                    },
                    {
                        "internalType": "uint256",
                        "name": "takerAssetFillAmount",
                        "type": "uint256"
                    }
                ],
                "name": "getSimulatedOrderMakerTransferResults",
                "outputs": [
                    {
                        "internalType": "enum OrderTransferSimulationUtils.OrderTransferResults",
                        "name": "orderTransferResults",
                        "type": "uint8"
                    }
                ],
                "payable": false,
                "stateMutability": "nonpayable",
                "type": "function"
            },
            {
                "constant": false,
                "inputs": [
                    {
                        "components": [
                            {
                                "internalType": "address",
                                "name": "makerAddress",
                                "type": "address"
                            },
                            {
                                "internalType": "address",
                                "name": "takerAddress",
                                "type": "address"
                            },
                            {
                                "internalType": "address",
                                "name": "feeRecipientAddress",
                                "type": "address"
                            },
                            {
                                "internalType": "address",
                                "name": "senderAddress",
                                "type": "address"
                            },
                            {
                                "internalType": "uint256",
                                "name": "makerAssetAmount",
                                "type": "uint256"
                            },
                            {
                                "internalType": "uint256",
                                "name": "takerAssetAmount",
                                "type": "uint256"
                            },
                            {
                                "internalType": "uint256",
                                "name": "makerFee",
                                "type": "uint256"
                            },
                            {
                                "internalType": "uint256",
                                "name": "takerFee",
                                "type": "uint256"
                            },
                            {
                                "internalType": "uint256",
                                "name": "expirationTimeSeconds",
                                "type": "uint256"
                            },
                            {
                                "internalType": "uint256",
                                "name": "salt",
                                "type": "uint256"
                            },
                            {
                                "internalType": "bytes",
                                "name": "makerAssetData",
                                "type": "bytes"
                            },
                            {
                                "internalType": "bytes",
                                "name": "takerAssetData",
                                "type": "bytes"
                            },
                            {
                                "internalType": "bytes",
                                "name": "makerFeeAssetData",
                                "type": "bytes"
                            },
                            {
                                "internalType": "bytes",
                                "name": "takerFeeAssetData",
                                "type": "bytes"
                            }
                        ],
                        "internalType": "struct LibOrder.Order",
                        "name": "order",
                        "type": "tuple"
                    },
                    {
                        "internalType": "address",
                        "name": "takerAddress",
                        "type": "address"
                    },
                    {
                        "internalType": "uint256",
                        "name": "takerAssetFillAmount",
                        "type": "uint256"
                    }
                ],
                "name": "getSimulatedOrderTransferResults",
                "outputs": [
                    {
                        "internalType": "enum OrderTransferSimulationUtils.OrderTransferResults",
                        "name": "orderTransferResults",
                        "type": "uint8"
                    }
                ],
                "payable": false,
                "stateMutability": "nonpayable",
                "type": "function"
            },
            {
                "constant": false,
                "inputs": [
                    {
                        "components": [
                            {
                                "internalType": "address",
                                "name": "makerAddress",
                                "type": "address"
                            },
                            {
                                "internalType": "address",
                                "name": "takerAddress",
                                "type": "address"
                            },
                            {
                                "internalType": "address",
                                "name": "feeRecipientAddress",
                                "type": "address"
                            },
                            {
                                "internalType": "address",
                                "name": "senderAddress",
                                "type": "address"
                            },
                            {
                                "internalType": "uint256",
                                "name": "makerAssetAmount",
                                "type": "uint256"
                            },
                            {
                                "internalType": "uint256",
                                "name": "takerAssetAmount",
                                "type": "uint256"
                            },
                            {
                                "internalType": "uint256",
                                "name": "makerFee",
                                "type": "uint256"
                            },
                            {
                                "internalType": "uint256",
                                "name": "takerFee",
                                "type": "uint256"
                            },
                            {
                                "internalType": "uint256",
                                "name": "expirationTimeSeconds",
                                "type": "uint256"
                            },
                            {
                                "internalType": "uint256",
                                "name": "salt",
                                "type": "uint256"
                            },
                            {
                                "internalType": "bytes",
                                "name": "makerAssetData",
                                "type": "bytes"
                            },
                            {
                                "internalType": "bytes",
                                "name": "takerAssetData",
                                "type": "bytes"
                            },
                            {
                                "internalType": "bytes",
                                "name": "makerFeeAssetData",
                                "type": "bytes"
                            },
                            {
                                "internalType": "bytes",
                                "name": "takerFeeAssetData",
                                "type": "bytes"
                            }
                        ],
                        "internalType": "struct LibOrder.Order[]",
                        "name": "orders",
                        "type": "tuple[]"
                    },
                    {
                        "internalType": "address[]",
                        "name": "takerAddresses",
                        "type": "address[]"
                    },
                    {
                        "internalType": "uint256[]",
                        "name": "takerAssetFillAmounts",
                        "type": "uint256[]"
                    }
                ],
                "name": "getSimulatedOrdersTransferResults",
                "outputs": [
                    {
                        "internalType": "enum OrderTransferSimulationUtils.OrderTransferResults[]",
                        "name": "orderTransferResults",
                        "type": "uint8[]"
                    }
                ],
                "payable": false,
                "stateMutability": "nonpayable",
                "type": "function"
            }
        ],
        "devdoc": {
            "methods": {
                "getSimulatedOrderMakerTransferResults((address,address,address,address,uint256,uint256,uint256,uint256,uint256,uint256,bytes,bytes,bytes,bytes),address,uint256)": {
                    "details": "Simulates the maker transfers within an order and returns the index of the first failed transfer.",
                    "params": {
                        "order": "The order to simulate transfers for.",
                        "takerAddress": "The address of the taker that will fill the order.",
                        "takerAssetFillAmount": "The amount of takerAsset that the taker wished to fill."
                    },
                    "return": "The index of the first failed transfer (or 4 if all transfers are successful)."
                },
                "getSimulatedOrderTransferResults((address,address,address,address,uint256,uint256,uint256,uint256,uint256,uint256,bytes,bytes,bytes,bytes),address,uint256)": {
                    "details": "Simulates all of the transfers within an order and returns the index of the first failed transfer.",
                    "params": {
                        "order": "The order to simulate transfers for.",
                        "takerAddress": "The address of the taker that will fill the order.",
                        "takerAssetFillAmount": "The amount of takerAsset that the taker wished to fill."
                    },
                    "return": "The index of the first failed transfer (or 4 if all transfers are successful)."
                },
                "getSimulatedOrdersTransferResults((address,address,address,address,uint256,uint256,uint256,uint256,uint256,uint256,bytes,bytes,bytes,bytes)[],address[],uint256[])": {
                    "details": "Simulates all of the transfers for each given order and returns the indices of each first failed transfer.",
                    "params": {
                        "orders": "Array of orders to individually simulate transfers for.",
                        "takerAddresses": "Array of addresses of takers that will fill each order.",
                        "takerAssetFillAmounts": "Array of amounts of takerAsset that will be filled for each order."
                    },
                    "return": "The indices of the first failed transfer (or 4 if all transfers are successful) for each order."
                }
            }
        },
        "evm": {
            "bytecode": {
                "linkReferences": {},
                "object": "0x608060405234801561001057600080fd5b5060405161177938038061177983398101604081905261002f91610054565b600080546001600160a01b0319166001600160a01b0392909216919091179055610082565b600060208284031215610065578081fd5b81516001600160a01b038116811461007b578182fd5b9392505050565b6116e8806100916000396000f3fe608060405234801561001057600080fd5b50600436106100415760003560e01c80637982653e14610046578063a5cd62ba1461006f578063d36379051461008f575b600080fd5b6100596100543660046112be565b6100a2565b604051610066919061155d565b60405180910390f35b61008261007d36600461118a565b61035e565b60405161006691906114e1565b61005961009d3660046112be565b610421565b60006100ac610e86565b61013c85846000809054906101000a90046001600160a01b03166001600160a01b0316631ce4c78b6040518163ffffffff1660e01b815260040160206040518083038186803b1580156100fe57600080fd5b505afa158015610112573d6000803e3d6000fd5b505050506040513d601f19601f820116820180604052506101369190810190611314565b3a6107d0565b60408051600280825260608281019093529293509091816020015b60608152602001906001900390816101575750506040805160028082526060808301845293945090916020830190803883395050604080516002808252606080830184529495509092509060208301908038833950506040805160028082526060808301845294955090925090602083019080388339019050509050886101400151846000815181106101e657fe5b602002602001018190525088600001518360008151811061020357fe5b6001600160a01b039283166020918202929092010152881615610226578761023c565b73377f698c4c287018d09b516f415317aec59193325b8260008151811061024957fe5b60200260200101906001600160a01b031690816001600160a01b03168152505084600001518160008151811061027b57fe5b6020026020010181815250508861018001518460018151811061029a57fe5b60200260200101819052508860000151836001815181106102b757fe5b6001600160a01b03928316602091820292909201015260408a015116156102e25788604001516102f8565b73377f698c4c287018d09b516f415317aec59193325b8260018151811061030557fe5b60200260200101906001600160a01b031690816001600160a01b03168152505084604001518160018151811061033757fe5b60200260200101818152505061034f84848484610848565b955050505050505b9392505050565b606060008451905080604051908082528060200260200182016040528015610390578160200160208202803883390190505b50915060005b818114610418576103e18682815181106103ac57fe5b60200260200101518683815181106103c057fe5b60200260200101518684815181106103d457fe5b6020026020010151610421565b8382815181106103ed57fe5b6020026020010190600481111561040057fe5b9081600481111561040d57fe5b905250600101610396565b50509392505050565b600061042b610e86565b61047d85846000809054906101000a90046001600160a01b03166001600160a01b0316631ce4c78b6040518163ffffffff1660e01b815260040160206040518083038186803b1580156100fe57600080fd5b60408051600480825260a0820190925291925060609190816020015b606081526020019060019003908161049957505060408051600480825260a082019092529192506060919060208201608080388339505060408051600480825260a08201909252929350606092915060208201608080388339505060408051600480825260a082019092529293506060929150602082016080803883390190505090508861016001518460008151811061052f57fe5b6020026020010181905250878360008151811061054857fe5b60200260200101906001600160a01b031690816001600160a01b03168152505088600001518260008151811061057a57fe5b60200260200101906001600160a01b031690816001600160a01b03168152505086816000815181106105a857fe5b602002602001018181525050886101400151846001815181106105c757fe5b60200260200101819052508860000151836001815181106105e457fe5b6001600160a01b039283166020918202929092010152881615610607578761061d565b73377f698c4c287018d09b516f415317aec59193325b8260018151811061062a57fe5b60200260200101906001600160a01b031690816001600160a01b03168152505084600001518160018151811061065c57fe5b602002602001018181525050886101a001518460028151811061067b57fe5b6020026020010181905250878360028151811061069457fe5b6001600160a01b03928316602091820292909201015260408a015116156106bf5788604001516106d5565b73377f698c4c287018d09b516f415317aec59193325b826002815181106106e257fe5b60200260200101906001600160a01b031690816001600160a01b03168152505084606001518160028151811061071457fe5b6020026020010181815250508861018001518460038151811061073357fe5b602002602001018190525088600001518360038151811061075057fe5b6001600160a01b03928316602091820292909201015260408a0151161561077b578860400151610791565b73377f698c4c287018d09b516f415317aec59193325b8260038151811061079e57fe5b60200260200101906001600160a01b031690816001600160a01b03168152505084604001518160038151811061033757fe5b6107d8610e86565b6020810184905260a085015160808601516107f4918691610a86565b815260a085015160c086015161080b918691610a86565b604082015260a085015160e0860151610825918691610a86565b606082015261083a828463ffffffff610acb16565b60808201525b949350505050565b6040516000906060907fb04fbddd0000000000000000000000000000000000000000000000000000000090610887908890889088908890602401611413565b60408051601f198184030181529181526020820180517bffffffffffffffffffffffffffffffffffffffffffffffffffffffff167fffffffff000000000000000000000000000000000000000000000000000000009094169390931790925260005491519092506060916001600160a01b0316906109069084906113f7565b6000604051808303816000865af19150503d8060008114610943576040519150601f19603f3d011682016040523d82523d6000602084013e610948565b606091505b5091506000905061095f828263ffffffff610b0516565b9050610969610b51565b7fffffffff00000000000000000000000000000000000000000000000000000000828116911614156109be5760006109a083610b75565b5091505060ff811660048111156109b357fe5b945050505050610840565b6109c6610bd7565b7fffffffff0000000000000000000000000000000000000000000000000000000082811691161415610a115760006109fd83610bfb565b509091505060ff811660048111156109b357fe5b815160208301207ff43f26ea5a94b478394a975e856464913dc1a8a1ca70939d974aa7c238aa0ce01415610a4b5760049350505050610840565b6040517f08c379a0000000000000000000000000000000000000000000000000000000008152600401610a7d90611570565b60405180910390fd5b6000610a93848484610c42565b15610aab57610aab610aa6858585610ca8565b610d2f565b61084083610abf868563ffffffff610acb16565b9063ffffffff610d3716565b600082610ada57506000610aff565b82820282848281610ae757fe5b0414610afc57610afc610aa660018686610d61565b90505b92915050565b60008160040183511015610b2657610b26610aa66003855185600401610d80565b5001602001517fffffffff000000000000000000000000000000000000000000000000000000001690565b7f488219a60000000000000000000000000000000000000000000000000000000090565b6000806060610b8b84610b86610b51565b610d9f565b6000610ba46004865187610e119092919063ffffffff16565b806020019051610bb7919081019061132c565b9094509250905060ff81166001811115610bcd57fe5b9350509193909250565b7f4678472b0000000000000000000000000000000000000000000000000000000090565b6000606080610c0c84610b86610bd7565b8351610c2290859060049063ffffffff610e1116565b806020019051610c35919081019061125e565b9196909550909350915050565b600082610c5457610c54610aa6610e4f565b811580610c5f575083155b15610c6c57506000610357565b60008380610c7657fe5b8584099050610c8b858463ffffffff610acb16565b610c9d826103e863ffffffff610acb16565b101595945050505050565b606063339f3de260e01b848484604051602401610cc7939291906115de565b60408051601f198184030181529190526020810180517bffffffffffffffffffffffffffffffffffffffffffffffffffffffff167fffffffff000000000000000000000000000000000000000000000000000000009093169290921790915290509392505050565b805160208201fd5b600081610d4d57610d4d610aa660038585610d61565b6000828481610d5857fe5b04949350505050565b606063e946c1bb60e01b848484604051602401610cc79392919061152d565b6060632800659560e01b848484604051602401610cc79392919061154f565b6000610dac836000610b05565b90507fffffffff0000000000000000000000000000000000000000000000000000000080821690831614610e0c576040517f08c379a0000000000000000000000000000000000000000000000000000000008152600401610a7d906115a7565b505050565b606081831115610e2a57610e2a610aa660008585610d80565b8351821115610e4357610e43610aa66001848751610d80565b50819003910190815290565b60408051808201909152600481527fa791837c00000000000000000000000000000000000000000000000000000000602082015290565b6040518060a0016040528060008152602001600081526020016000815260200160008152602001600081525090565b80356001600160a01b0381168114610aff57600080fd5b600082601f830112610edc578081fd5b8135610eef610eea8261161b565b6115f4565b818152915060208083019084810181840286018201871015610f1057600080fd5b60005b84811015610f3757610f258883610eb5565b84529282019290820190600101610f13565b505050505092915050565b600082601f830112610f52578081fd5b8135610f60610eea8261161b565b818152915060208083019084810181840286018201871015610f8157600080fd5b60005b84811015610f3757813584529282019290820190600101610f84565b600082601f830112610fb0578081fd5b8135610fbe610eea8261163b565b9150808252836020828501011115610fd557600080fd5b8060208401602084013760009082016020015292915050565b600082601f830112610ffe578081fd5b815161100c610eea8261163b565b915080825283602082850101111561102357600080fd5b611034816020840160208601611668565b5092915050565b60006101c080838503121561104e578182fd5b611057816115f4565b9150506110648383610eb5565b81526110738360208401610eb5565b60208201526110858360408401610eb5565b60408201526110978360608401610eb5565b60608201526080820135608082015260a082013560a082015260c082013560c082015260e082013560e08201526101008083013581830152506101208083013581830152506101408083013567ffffffffffffffff808211156110f957600080fd5b61110586838701610fa0565b8385015261016092508285013591508082111561112157600080fd5b61112d86838701610fa0565b8385015261018092508285013591508082111561114957600080fd5b61115586838701610fa0565b838501526101a092508285013591508082111561117157600080fd5b5061117e85828601610fa0565b82840152505092915050565b60008060006060848603121561119e578283fd5b833567ffffffffffffffff808211156111b5578485fd5b81860187601f8201126111c6578586fd5b803592506111d6610eea8461161b565b83815260208082019190838101895b8781101561120e576111fc8d84843589010161103b565b855293820193908201906001016111e5565b50919850890135945050505080821115611226578384fd5b61123287838801610ecc565b93506040860135915080821115611247578283fd5b5061125486828701610f42565b9150509250925092565b600080600060608486031215611272578283fd5b83519250602084015167ffffffffffffffff80821115611290578384fd5b61129c87838801610fee565b935060408601519150808211156112b1578283fd5b5061125486828701610fee565b6000806000606084860312156112d2578283fd5b833567ffffffffffffffff8111156112e8578384fd5b6112f48682870161103b565b9350506113048560208601610eb5565b9150604084013590509250925092565b600060208284031215611325578081fd5b5051919050565b600080600060608486031215611340578081fd5b835160ff81168114611350578182fd5b60208501516040860151919450925067ffffffffffffffff811115611373578182fd5b61125486828701610fee565b60008151808452611397816020860160208601611668565b601f01601f19169290920160200192915050565b815260200190565b6000815180845260208401935060208301825b828110156113ed5781516001600160a01b03168652602095860195909101906001016113c6565b5093949350505050565b60008251611409818460208701611668565b9190910192915050565b6000608082016080835280875161142a818461165f565b915081925060208082028301818b01865b8481101561146557868303865261145383835161137f565b9584019592509083019060010161143b565b505086810382880152611478818b6113b3565b945050858403604087015261148d84896113b3565b92508583036060870152829350865191506114a8828461165f565b93508087019250845b828110156114d2576114c48585516113ab565b9450928101926001016114b1565b50929998505050505050505050565b602080825282518282018190526000918401906040840190835b8181101561152257835161150e81611698565b8352602093840193909201916001016114fb565b509095945050505050565b606081016004851061153b57fe5b938152602081019290925260409091015290565b606081016008851061153b57fe5b6020810161156a83611698565b91905290565b60208082526013908201527f554e4b4e4f574e5f52455455524e5f4441544100000000000000000000000000604082015260600190565b6020808252600c908201527f4241445f53454c4543544f520000000000000000000000000000000000000000604082015260600190565b9283526020830191909152604082015260600190565b60405181810167ffffffffffffffff8111828210171561161357600080fd5b604052919050565b600067ffffffffffffffff821115611631578081fd5b5060209081020190565b600067ffffffffffffffff821115611651578081fd5b50601f01601f191660200190565b90815260200190565b60005b8381101561168357818101518382015260200161166b565b83811115611692576000848401525b50505050565b600581106116a257fe5b5056fea365627a7a723158207be821ab47dc5850934b7ef17ebac22feffe2b6ae5af20ec2e0e35c5e99fe9926c6578706572696d656e74616cf564736f6c63430005110040",
                "opcodes": "PUSH1 0x80 PUSH1 0x40 MSTORE CALLVALUE DUP1 ISZERO PUSH2 0x10 JUMPI PUSH1 0x0 DUP1 REVERT JUMPDEST POP PUSH1 0x40 MLOAD PUSH2 0x1779 CODESIZE SUB DUP1 PUSH2 0x1779 DUP4 CODECOPY DUP2 ADD PUSH1 0x40 DUP2 SWAP1 MSTORE PUSH2 0x2F SWAP2 PUSH2 0x54 JUMP JUMPDEST PUSH1 0x0 DUP1 SLOAD PUSH1 0x1 PUSH1 0x1 PUSH1 0xA0 SHL SUB NOT AND PUSH1 0x1 PUSH1 0x1 PUSH1 0xA0 SHL SUB SWAP3 SWAP1 SWAP3 AND SWAP2 SWAP1 SWAP2 OR SWAP1 SSTORE PUSH2 0x82 JUMP JUMPDEST PUSH1 0x0 PUSH1 0x20 DUP3 DUP5 SUB SLT ISZERO PUSH2 0x65 JUMPI DUP1 DUP2 REVERT JUMPDEST DUP2 MLOAD PUSH1 0x1 PUSH1 0x1 PUSH1 0xA0 SHL SUB DUP2 AND DUP2 EQ PUSH2 0x7B JUMPI DUP2 DUP3 REVERT JUMPDEST SWAP4 SWAP3 POP POP POP JUMP JUMPDEST PUSH2 0x16E8 DUP1 PUSH2 0x91 PUSH1 0x0 CODECOPY PUSH1 0x0 RETURN INVALID PUSH1 0x80 PUSH1 0x40 MSTORE CALLVALUE DUP1 ISZERO PUSH2 0x10 JUMPI PUSH1 0x0 DUP1 REVERT JUMPDEST POP PUSH1 0x4 CALLDATASIZE LT PUSH2 0x41 JUMPI PUSH1 0x0 CALLDATALOAD PUSH1 0xE0 SHR DUP1 PUSH4 0x7982653E EQ PUSH2 0x46 JUMPI DUP1 PUSH4 0xA5CD62BA EQ PUSH2 0x6F JUMPI DUP1 PUSH4 0xD3637905 EQ PUSH2 0x8F JUMPI JUMPDEST PUSH1 0x0 DUP1 REVERT JUMPDEST PUSH2 0x59 PUSH2 0x54 CALLDATASIZE PUSH1 0x4 PUSH2 0x12BE JUMP JUMPDEST PUSH2 0xA2 JUMP JUMPDEST PUSH1 0x40 MLOAD PUSH2 0x66 SWAP2 SWAP1 PUSH2 0x155D JUMP JUMPDEST PUSH1 0x40 MLOAD DUP1 SWAP2 SUB SWAP1 RETURN JUMPDEST PUSH2 0x82 PUSH2 0x7D CALLDATASIZE PUSH1 0x4 PUSH2 0x118A JUMP JUMPDEST PUSH2 0x35E JUMP JUMPDEST PUSH1 0x40 MLOAD PUSH2 0x66 SWAP2 SWAP1 PUSH2 0x14E1 JUMP JUMPDEST PUSH2 0x59 PUSH2 0x9D CALLDATASIZE PUSH1 0x4 PUSH2 0x12BE JUMP JUMPDEST PUSH2 0x421 JUMP JUMPDEST PUSH1 0x0 PUSH2 0xAC PUSH2 0xE86 JUMP JUMPDEST PUSH2 0x13C DUP6 DUP5 PUSH1 0x0 DUP1 SWAP1 SLOAD SWAP1 PUSH2 0x100 EXP SWAP1 DIV PUSH1 0x1 PUSH1 0x1 PUSH1 0xA0 SHL SUB AND PUSH1 0x1 PUSH1 0x1 PUSH1 0xA0 SHL SUB AND PUSH4 0x1CE4C78B PUSH1 0x40 MLOAD DUP2 PUSH4 0xFFFFFFFF AND PUSH1 0xE0 SHL DUP2 MSTORE PUSH1 0x4 ADD PUSH1 0x20 PUSH1 0x40 MLOAD DUP1 DUP4 SUB DUP2 DUP7 DUP1 EXTCODESIZE ISZERO DUP1 ISZERO PUSH2 0xFE JUMPI PUSH1 0x0 DUP1 REVERT JUMPDEST POP GAS STATICCALL ISZERO DUP1 ISZERO PUSH2 0x112 JUMPI RETURNDATASIZE PUSH1 0x0 DUP1 RETURNDATACOPY RETURNDATASIZE PUSH1 0x0 REVERT JUMPDEST POP POP POP POP PUSH1 0x40 MLOAD RETURNDATASIZE PUSH1 0x1F NOT PUSH1 0x1F DUP3 ADD AND DUP3 ADD DUP1 PUSH1 0x40 MSTORE POP PUSH2 0x136 SWAP2 SWAP1 DUP2 ADD SWAP1 PUSH2 0x1314 JUMP JUMPDEST GASPRICE PUSH2 0x7D0 JUMP JUMPDEST PUSH1 0x40 DUP1 MLOAD PUSH1 0x2 DUP1 DUP3 MSTORE PUSH1 0x60 DUP3 DUP2 ADD SWAP1 SWAP4 MSTORE SWAP3 SWAP4 POP SWAP1 SWAP2 DUP2 PUSH1 0x20 ADD JUMPDEST PUSH1 0x60 DUP2 MSTORE PUSH1 0x20 ADD SWAP1 PUSH1 0x1 SWAP1 SUB SWAP1 DUP2 PUSH2 0x157 JUMPI POP POP PUSH1 0x40 DUP1 MLOAD PUSH1 0x2 DUP1 DUP3 MSTORE PUSH1 0x60 DUP1 DUP4 ADD DUP5 MSTORE SWAP4 SWAP5 POP SWAP1 SWAP2 PUSH1 0x20 DUP4 ADD SWAP1 DUP1 CODESIZE DUP4 CODECOPY POP POP PUSH1 0x40 DUP1 MLOAD PUSH1 0x2 DUP1 DUP3 MSTORE PUSH1 0x60 DUP1 DUP4 ADD DUP5 MSTORE SWAP5 SWAP6 POP SWAP1 SWAP3 POP SWAP1 PUSH1 0x20 DUP4 ADD SWAP1 DUP1 CODESIZE DUP4 CODECOPY POP POP PUSH1 0x40 DUP1 MLOAD PUSH1 0x2 DUP1 DUP3 MSTORE PUSH1 0x60 DUP1 DUP4 ADD DUP5 MSTORE SWAP5 SWAP6 POP SWAP1 SWAP3 POP SWAP1 PUSH1 0x20 DUP4 ADD SWAP1 DUP1 CODESIZE DUP4 CODECOPY ADD SWAP1 POP POP SWAP1 POP DUP9 PUSH2 0x140 ADD MLOAD DUP5 PUSH1 0x0 DUP2 MLOAD DUP2 LT PUSH2 0x1E6 JUMPI INVALID JUMPDEST PUSH1 0x20 MUL PUSH1 0x20 ADD ADD DUP2 SWAP1 MSTORE POP DUP9 PUSH1 0x0 ADD MLOAD DUP4 PUSH1 0x0 DUP2 MLOAD DUP2 LT PUSH2 0x203 JUMPI INVALID JUMPDEST PUSH1 0x1 PUSH1 0x1 PUSH1 0xA0 SHL SUB SWAP3 DUP4 AND PUSH1 0x20 SWAP2 DUP3 MUL SWAP3 SWAP1 SWAP3 ADD ADD MSTORE DUP9 AND ISZERO PUSH2 0x226 JUMPI DUP8 PUSH2 0x23C JUMP JUMPDEST PUSH20 0x377F698C4C287018D09B516F415317AEC5919332 JUMPDEST DUP3 PUSH1 0x0 DUP2 MLOAD DUP2 LT PUSH2 0x249 JUMPI INVALID JUMPDEST PUSH1 0x20 MUL PUSH1 0x20 ADD ADD SWAP1 PUSH1 0x1 PUSH1 0x1 PUSH1 0xA0 SHL SUB AND SWAP1 DUP2 PUSH1 0x1 PUSH1 0x1 PUSH1 0xA0 SHL SUB AND DUP2 MSTORE POP POP DUP5 PUSH1 0x0 ADD MLOAD DUP2 PUSH1 0x0 DUP2 MLOAD DUP2 LT PUSH2 0x27B JUMPI INVALID JUMPDEST PUSH1 0x20 MUL PUSH1 0x20 ADD ADD DUP2 DUP2 MSTORE POP POP DUP9 PUSH2 0x180 ADD MLOAD DUP5 PUSH1 0x1 DUP2 MLOAD DUP2 LT PUSH2 0x29A JUMPI INVALID JUMPDEST PUSH1 0x20 MUL PUSH1 0x20 ADD ADD DUP2 SWAP1 MSTORE POP DUP9 PUSH1 0x0 ADD MLOAD DUP4 PUSH1 0x1 DUP2 MLOAD DUP2 LT PUSH2 0x2B7 JUMPI INVALID JUMPDEST PUSH1 0x1 PUSH1 0x1 PUSH1 0xA0 SHL SUB SWAP3 DUP4 AND PUSH1 0x20 SWAP2 DUP3 MUL SWAP3 SWAP1 SWAP3 ADD ADD MSTORE PUSH1 0x40 DUP11 ADD MLOAD AND ISZERO PUSH2 0x2E2 JUMPI DUP9 PUSH1 0x40 ADD MLOAD PUSH2 0x2F8 JUMP JUMPDEST PUSH20 0x377F698C4C287018D09B516F415317AEC5919332 JUMPDEST DUP3 PUSH1 0x1 DUP2 MLOAD DUP2 LT PUSH2 0x305 JUMPI INVALID JUMPDEST PUSH1 0x20 MUL PUSH1 0x20 ADD ADD SWAP1 PUSH1 0x1 PUSH1 0x1 PUSH1 0xA0 SHL SUB AND SWAP1 DUP2 PUSH1 0x1 PUSH1 0x1 PUSH1 0xA0 SHL SUB AND DUP2 MSTORE POP POP DUP5 PUSH1 0x40 ADD MLOAD DUP2 PUSH1 0x1 DUP2 MLOAD DUP2 LT PUSH2 0x337 JUMPI INVALID JUMPDEST PUSH1 0x20 MUL PUSH1 0x20 ADD ADD DUP2 DUP2 MSTORE POP POP PUSH2 0x34F DUP5 DUP5 DUP5 DUP5 PUSH2 0x848 JUMP JUMPDEST SWAP6 POP POP POP POP POP POP JUMPDEST SWAP4 SWAP3 POP POP POP JUMP JUMPDEST PUSH1 0x60 PUSH1 0x0 DUP5 MLOAD SWAP1 POP DUP1 PUSH1 0x40 MLOAD SWAP1 DUP1 DUP3 MSTORE DUP1 PUSH1 0x20 MUL PUSH1 0x20 ADD DUP3 ADD PUSH1 0x40 MSTORE DUP1 ISZERO PUSH2 0x390 JUMPI DUP2 PUSH1 0x20 ADD PUSH1 0x20 DUP3 MUL DUP1 CODESIZE DUP4 CODECOPY ADD SWAP1 POP JUMPDEST POP SWAP2 POP PUSH1 0x0 JUMPDEST DUP2 DUP2 EQ PUSH2 0x418 JUMPI PUSH2 0x3E1 DUP7 DUP3 DUP2 MLOAD DUP2 LT PUSH2 0x3AC JUMPI INVALID JUMPDEST PUSH1 0x20 MUL PUSH1 0x20 ADD ADD MLOAD DUP7 DUP4 DUP2 MLOAD DUP2 LT PUSH2 0x3C0 JUMPI INVALID JUMPDEST PUSH1 0x20 MUL PUSH1 0x20 ADD ADD MLOAD DUP7 DUP5 DUP2 MLOAD DUP2 LT PUSH2 0x3D4 JUMPI INVALID JUMPDEST PUSH1 0x20 MUL PUSH1 0x20 ADD ADD MLOAD PUSH2 0x421 JUMP JUMPDEST DUP4 DUP3 DUP2 MLOAD DUP2 LT PUSH2 0x3ED JUMPI INVALID JUMPDEST PUSH1 0x20 MUL PUSH1 0x20 ADD ADD SWAP1 PUSH1 0x4 DUP2 GT ISZERO PUSH2 0x400 JUMPI INVALID JUMPDEST SWAP1 DUP2 PUSH1 0x4 DUP2 GT ISZERO PUSH2 0x40D JUMPI INVALID JUMPDEST SWAP1 MSTORE POP PUSH1 0x1 ADD PUSH2 0x396 JUMP JUMPDEST POP POP SWAP4 SWAP3 POP POP POP JUMP JUMPDEST PUSH1 0x0 PUSH2 0x42B PUSH2 0xE86 JUMP JUMPDEST PUSH2 0x47D DUP6 DUP5 PUSH1 0x0 DUP1 SWAP1 SLOAD SWAP1 PUSH2 0x100 EXP SWAP1 DIV PUSH1 0x1 PUSH1 0x1 PUSH1 0xA0 SHL SUB AND PUSH1 0x1 PUSH1 0x1 PUSH1 0xA0 SHL SUB AND PUSH4 0x1CE4C78B PUSH1 0x40 MLOAD DUP2 PUSH4 0xFFFFFFFF AND PUSH1 0xE0 SHL DUP2 MSTORE PUSH1 0x4 ADD PUSH1 0x20 PUSH1 0x40 MLOAD DUP1 DUP4 SUB DUP2 DUP7 DUP1 EXTCODESIZE ISZERO DUP1 ISZERO PUSH2 0xFE JUMPI PUSH1 0x0 DUP1 REVERT JUMPDEST PUSH1 0x40 DUP1 MLOAD PUSH1 0x4 DUP1 DUP3 MSTORE PUSH1 0xA0 DUP3 ADD SWAP1 SWAP3 MSTORE SWAP2 SWAP3 POP PUSH1 0x60 SWAP2 SWAP1 DUP2 PUSH1 0x20 ADD JUMPDEST PUSH1 0x60 DUP2 MSTORE PUSH1 0x20 ADD SWAP1 PUSH1 0x1 SWAP1 SUB SWAP1 DUP2 PUSH2 0x499 JUMPI POP POP PUSH1 0x40 DUP1 MLOAD PUSH1 0x4 DUP1 DUP3 MSTORE PUSH1 0xA0 DUP3 ADD SWAP1 SWAP3 MSTORE SWAP2 SWAP3 POP PUSH1 0x60 SWAP2 SWAP1 PUSH1 0x20 DUP3 ADD PUSH1 0x80 DUP1 CODESIZE DUP4 CODECOPY POP POP PUSH1 0x40 DUP1 MLOAD PUSH1 0x4 DUP1 DUP3 MSTORE PUSH1 0xA0 DUP3 ADD SWAP1 SWAP3 MSTORE SWAP3 SWAP4 POP PUSH1 0x60 SWAP3 SWAP2 POP PUSH1 0x20 DUP3 ADD PUSH1 0x80 DUP1 CODESIZE DUP4 CODECOPY POP POP PUSH1 0x40 DUP1 MLOAD PUSH1 0x4 DUP1 DUP3 MSTORE PUSH1 0xA0 DUP3 ADD SWAP1 SWAP3 MSTORE SWAP3 SWAP4 POP PUSH1 0x60 SWAP3 SWAP2 POP PUSH1 0x20 DUP3 ADD PUSH1 0x80 DUP1 CODESIZE DUP4 CODECOPY ADD SWAP1 POP POP SWAP1 POP DUP9 PUSH2 0x160 ADD MLOAD DUP5 PUSH1 0x0 DUP2 MLOAD DUP2 LT PUSH2 0x52F JUMPI INVALID JUMPDEST PUSH1 0x20 MUL PUSH1 0x20 ADD ADD DUP2 SWAP1 MSTORE POP DUP8 DUP4 PUSH1 0x0 DUP2 MLOAD DUP2 LT PUSH2 0x548 JUMPI INVALID JUMPDEST PUSH1 0x20 MUL PUSH1 0x20 ADD ADD SWAP1 PUSH1 0x1 PUSH1 0x1 PUSH1 0xA0 SHL SUB AND SWAP1 DUP2 PUSH1 0x1 PUSH1 0x1 PUSH1 0xA0 SHL SUB AND DUP2 MSTORE POP POP DUP9 PUSH1 0x0 ADD MLOAD DUP3 PUSH1 0x0 DUP2 MLOAD DUP2 LT PUSH2 0x57A JUMPI INVALID JUMPDEST PUSH1 0x20 MUL PUSH1 0x20 ADD ADD SWAP1 PUSH1 0x1 PUSH1 0x1 PUSH1 0xA0 SHL SUB AND SWAP1 DUP2 PUSH1 0x1 PUSH1 0x1 PUSH1 0xA0 SHL SUB AND DUP2 MSTORE POP POP DUP7 DUP2 PUSH1 0x0 DUP2 MLOAD DUP2 LT PUSH2 0x5A8 JUMPI INVALID JUMPDEST PUSH1 0x20 MUL PUSH1 0x20 ADD ADD DUP2 DUP2 MSTORE POP POP DUP9 PUSH2 0x140 ADD MLOAD DUP5 PUSH1 0x1 DUP2 MLOAD DUP2 LT PUSH2 0x5C7 JUMPI INVALID JUMPDEST PUSH1 0x20 MUL PUSH1 0x20 ADD ADD DUP2 SWAP1 MSTORE POP DUP9 PUSH1 0x0 ADD MLOAD DUP4 PUSH1 0x1 DUP2 MLOAD DUP2 LT PUSH2 0x5E4 JUMPI INVALID JUMPDEST PUSH1 0x1 PUSH1 0x1 PUSH1 0xA0 SHL SUB SWAP3 DUP4 AND PUSH1 0x20 SWAP2 DUP3 MUL SWAP3 SWAP1 SWAP3 ADD ADD MSTORE DUP9 AND ISZERO PUSH2 0x607 JUMPI DUP8 PUSH2 0x61D JUMP JUMPDEST PUSH20 0x377F698C4C287018D09B516F415317AEC5919332 JUMPDEST DUP3 PUSH1 0x1 DUP2 MLOAD DUP2 LT PUSH2 0x62A JUMPI INVALID JUMPDEST PUSH1 0x20 MUL PUSH1 0x20 ADD ADD SWAP1 PUSH1 0x1 PUSH1 0x1 PUSH1 0xA0 SHL SUB AND SWAP1 DUP2 PUSH1 0x1 PUSH1 0x1 PUSH1 0xA0 SHL SUB AND DUP2 MSTORE POP POP DUP5 PUSH1 0x0 ADD MLOAD DUP2 PUSH1 0x1 DUP2 MLOAD DUP2 LT PUSH2 0x65C JUMPI INVALID JUMPDEST PUSH1 0x20 MUL PUSH1 0x20 ADD ADD DUP2 DUP2 MSTORE POP POP DUP9 PUSH2 0x1A0 ADD MLOAD DUP5 PUSH1 0x2 DUP2 MLOAD DUP2 LT PUSH2 0x67B JUMPI INVALID JUMPDEST PUSH1 0x20 MUL PUSH1 0x20 ADD ADD DUP2 SWAP1 MSTORE POP DUP8 DUP4 PUSH1 0x2 DUP2 MLOAD DUP2 LT PUSH2 0x694 JUMPI INVALID JUMPDEST PUSH1 0x1 PUSH1 0x1 PUSH1 0xA0 SHL SUB SWAP3 DUP4 AND PUSH1 0x20 SWAP2 DUP3 MUL SWAP3 SWAP1 SWAP3 ADD ADD MSTORE PUSH1 0x40 DUP11 ADD MLOAD AND ISZERO PUSH2 0x6BF JUMPI DUP9 PUSH1 0x40 ADD MLOAD PUSH2 0x6D5 JUMP JUMPDEST PUSH20 0x377F698C4C287018D09B516F415317AEC5919332 JUMPDEST DUP3 PUSH1 0x2 DUP2 MLOAD DUP2 LT PUSH2 0x6E2 JUMPI INVALID JUMPDEST PUSH1 0x20 MUL PUSH1 0x20 ADD ADD SWAP1 PUSH1 0x1 PUSH1 0x1 PUSH1 0xA0 SHL SUB AND SWAP1 DUP2 PUSH1 0x1 PUSH1 0x1 PUSH1 0xA0 SHL SUB AND DUP2 MSTORE POP POP DUP5 PUSH1 0x60 ADD MLOAD DUP2 PUSH1 0x2 DUP2 MLOAD DUP2 LT PUSH2 0x714 JUMPI INVALID JUMPDEST PUSH1 0x20 MUL PUSH1 0x20 ADD ADD DUP2 DUP2 MSTORE POP POP DUP9 PUSH2 0x180 ADD MLOAD DUP5 PUSH1 0x3 DUP2 MLOAD DUP2 LT PUSH2 0x733 JUMPI INVALID JUMPDEST PUSH1 0x20 MUL PUSH1 0x20 ADD ADD DUP2 SWAP1 MSTORE POP DUP9 PUSH1 0x0 ADD MLOAD DUP4 PUSH1 0x3 DUP2 MLOAD DUP2 LT PUSH2 0x750 JUMPI INVALID JUMPDEST PUSH1 0x1 PUSH1 0x1 PUSH1 0xA0 SHL SUB SWAP3 DUP4 AND PUSH1 0x20 SWAP2 DUP3 MUL SWAP3 SWAP1 SWAP3 ADD ADD MSTORE PUSH1 0x40 DUP11 ADD MLOAD AND ISZERO PUSH2 0x77B JUMPI DUP9 PUSH1 0x40 ADD MLOAD PUSH2 0x791 JUMP JUMPDEST PUSH20 0x377F698C4C287018D09B516F415317AEC5919332 JUMPDEST DUP3 PUSH1 0x3 DUP2 MLOAD DUP2 LT PUSH2 0x79E JUMPI INVALID JUMPDEST PUSH1 0x20 MUL PUSH1 0x20 ADD ADD SWAP1 PUSH1 0x1 PUSH1 0x1 PUSH1 0xA0 SHL SUB AND SWAP1 DUP2 PUSH1 0x1 PUSH1 0x1 PUSH1 0xA0 SHL SUB AND DUP2 MSTORE POP POP DUP5 PUSH1 0x40 ADD MLOAD DUP2 PUSH1 0x3 DUP2 MLOAD DUP2 LT PUSH2 0x337 JUMPI INVALID JUMPDEST PUSH2 0x7D8 PUSH2 0xE86 JUMP JUMPDEST PUSH1 0x20 DUP2 ADD DUP5 SWAP1 MSTORE PUSH1 0xA0 DUP6 ADD MLOAD PUSH1 0x80 DUP7 ADD MLOAD PUSH2 0x7F4 SWAP2 DUP7 SWAP2 PUSH2 0xA86 JUMP JUMPDEST DUP2 MSTORE PUSH1 0xA0 DUP6 ADD MLOAD PUSH1 0xC0 DUP7 ADD MLOAD PUSH2 0x80B SWAP2 DUP7 SWAP2 PUSH2 0xA86 JUMP JUMPDEST PUSH1 0x40 DUP3 ADD MSTORE PUSH1 0xA0 DUP6 ADD MLOAD PUSH1 0xE0 DUP7 ADD MLOAD PUSH2 0x825 SWAP2 DUP7 SWAP2 PUSH2 0xA86 JUMP JUMPDEST PUSH1 0x60 DUP3 ADD MSTORE PUSH2 0x83A DUP3 DUP5 PUSH4 0xFFFFFFFF PUSH2 0xACB AND JUMP JUMPDEST PUSH1 0x80 DUP3 ADD MSTORE JUMPDEST SWAP5 SWAP4 POP POP POP POP JUMP JUMPDEST PUSH1 0x40 MLOAD PUSH1 0x0 SWAP1 PUSH1 0x60 SWAP1 PUSH32 0xB04FBDDD00000000000000000000000000000000000000000000000000000000 SWAP1 PUSH2 0x887 SWAP1 DUP9 SWAP1 DUP9 SWAP1 DUP9 SWAP1 DUP9 SWAP1 PUSH1 0x24 ADD PUSH2 0x1413 JUMP JUMPDEST PUSH1 0x40 DUP1 MLOAD PUSH1 0x1F NOT DUP2 DUP5 SUB ADD DUP2 MSTORE SWAP2 DUP2 MSTORE PUSH1 0x20 DUP3 ADD DUP1 MLOAD PUSH28 0xFFFFFFFFFFFFFFFFFFFFFFFFFFFFFFFFFFFFFFFFFFFFFFFFFFFFFFFF AND PUSH32 0xFFFFFFFF00000000000000000000000000000000000000000000000000000000 SWAP1 SWAP5 AND SWAP4 SWAP1 SWAP4 OR SWAP1 SWAP3 MSTORE PUSH1 0x0 SLOAD SWAP2 MLOAD SWAP1 SWAP3 POP PUSH1 0x60 SWAP2 PUSH1 0x1 PUSH1 0x1 PUSH1 0xA0 SHL SUB AND SWAP1 PUSH2 0x906 SWAP1 DUP5 SWAP1 PUSH2 0x13F7 JUMP JUMPDEST PUSH1 0x0 PUSH1 0x40 MLOAD DUP1 DUP4 SUB DUP2 PUSH1 0x0 DUP7 GAS CALL SWAP2 POP POP RETURNDATASIZE DUP1 PUSH1 0x0 DUP2 EQ PUSH2 0x943 JUMPI PUSH1 0x40 MLOAD SWAP2 POP PUSH1 0x1F NOT PUSH1 0x3F RETURNDATASIZE ADD AND DUP3 ADD PUSH1 0x40 MSTORE RETURNDATASIZE DUP3 MSTORE RETURNDATASIZE PUSH1 0x0 PUSH1 0x20 DUP5 ADD RETURNDATACOPY PUSH2 0x948 JUMP JUMPDEST PUSH1 0x60 SWAP2 POP JUMPDEST POP SWAP2 POP PUSH1 0x0 SWAP1 POP PUSH2 0x95F DUP3 DUP3 PUSH4 0xFFFFFFFF PUSH2 0xB05 AND JUMP JUMPDEST SWAP1 POP PUSH2 0x969 PUSH2 0xB51 JUMP JUMPDEST PUSH32 0xFFFFFFFF00000000000000000000000000000000000000000000000000000000 DUP3 DUP2 AND SWAP2 AND EQ ISZERO PUSH2 0x9BE JUMPI PUSH1 0x0 PUSH2 0x9A0 DUP4 PUSH2 0xB75 JUMP JUMPDEST POP SWAP2 POP POP PUSH1 0xFF DUP2 AND PUSH1 0x4 DUP2 GT ISZERO PUSH2 0x9B3 JUMPI INVALID JUMPDEST SWAP5 POP POP POP POP POP PUSH2 0x840 JUMP JUMPDEST PUSH2 0x9C6 PUSH2 0xBD7 JUMP JUMPDEST PUSH32 0xFFFFFFFF00000000000000000000000000000000000000000000000000000000 DUP3 DUP2 AND SWAP2 AND EQ ISZERO PUSH2 0xA11 JUMPI PUSH1 0x0 PUSH2 0x9FD DUP4 PUSH2 0xBFB JUMP JUMPDEST POP SWAP1 SWAP2 POP POP PUSH1 0xFF DUP2 AND PUSH1 0x4 DUP2 GT ISZERO PUSH2 0x9B3 JUMPI INVALID JUMPDEST DUP2 MLOAD PUSH1 0x20 DUP4 ADD KECCAK256 PUSH32 0xF43F26EA5A94B478394A975E856464913DC1A8A1CA70939D974AA7C238AA0CE0 EQ ISZERO PUSH2 0xA4B JUMPI PUSH1 0x4 SWAP4 POP POP POP POP PUSH2 0x840 JUMP JUMPDEST PUSH1 0x40 MLOAD PUSH32 0x8C379A000000000000000000000000000000000000000000000000000000000 DUP2 MSTORE PUSH1 0x4 ADD PUSH2 0xA7D SWAP1 PUSH2 0x1570 JUMP JUMPDEST PUSH1 0x40 MLOAD DUP1 SWAP2 SUB SWAP1 REVERT JUMPDEST PUSH1 0x0 PUSH2 0xA93 DUP5 DUP5 DUP5 PUSH2 0xC42 JUMP JUMPDEST ISZERO PUSH2 0xAAB JUMPI PUSH2 0xAAB PUSH2 0xAA6 DUP6 DUP6 DUP6 PUSH2 0xCA8 JUMP JUMPDEST PUSH2 0xD2F JUMP JUMPDEST PUSH2 0x840 DUP4 PUSH2 0xABF DUP7 DUP6 PUSH4 0xFFFFFFFF PUSH2 0xACB AND JUMP JUMPDEST SWAP1 PUSH4 0xFFFFFFFF PUSH2 0xD37 AND JUMP JUMPDEST PUSH1 0x0 DUP3 PUSH2 0xADA JUMPI POP PUSH1 0x0 PUSH2 0xAFF JUMP JUMPDEST DUP3 DUP3 MUL DUP3 DUP5 DUP3 DUP2 PUSH2 0xAE7 JUMPI INVALID JUMPDEST DIV EQ PUSH2 0xAFC JUMPI PUSH2 0xAFC PUSH2 0xAA6 PUSH1 0x1 DUP7 DUP7 PUSH2 0xD61 JUMP JUMPDEST SWAP1 POP JUMPDEST SWAP3 SWAP2 POP POP JUMP JUMPDEST PUSH1 0x0 DUP2 PUSH1 0x4 ADD DUP4 MLOAD LT ISZERO PUSH2 0xB26 JUMPI PUSH2 0xB26 PUSH2 0xAA6 PUSH1 0x3 DUP6 MLOAD DUP6 PUSH1 0x4 ADD PUSH2 0xD80 JUMP JUMPDEST POP ADD PUSH1 0x20 ADD MLOAD PUSH32 0xFFFFFFFF00000000000000000000000000000000000000000000000000000000 AND SWAP1 JUMP JUMPDEST PUSH32 0x488219A600000000000000000000000000000000000000000000000000000000 SWAP1 JUMP JUMPDEST PUSH1 0x0 DUP1 PUSH1 0x60 PUSH2 0xB8B DUP5 PUSH2 0xB86 PUSH2 0xB51 JUMP JUMPDEST PUSH2 0xD9F JUMP JUMPDEST PUSH1 0x0 PUSH2 0xBA4 PUSH1 0x4 DUP7 MLOAD DUP8 PUSH2 0xE11 SWAP1 SWAP3 SWAP2 SWAP1 PUSH4 0xFFFFFFFF AND JUMP JUMPDEST DUP1 PUSH1 0x20 ADD SWAP1 MLOAD PUSH2 0xBB7 SWAP2 SWAP1 DUP2 ADD SWAP1 PUSH2 0x132C JUMP JUMPDEST SWAP1 SWAP5 POP SWAP3 POP SWAP1 POP PUSH1 0xFF DUP2 AND PUSH1 0x1 DUP2 GT ISZERO PUSH2 0xBCD JUMPI INVALID JUMPDEST SWAP4 POP POP SWAP2 SWAP4 SWAP1 SWAP3 POP JUMP JUMPDEST PUSH32 0x4678472B00000000000000000000000000000000000000000000000000000000 SWAP1 JUMP JUMPDEST PUSH1 0x0 PUSH1 0x60 DUP1 PUSH2 0xC0C DUP5 PUSH2 0xB86 PUSH2 0xBD7 JUMP JUMPDEST DUP4 MLOAD PUSH2 0xC22 SWAP1 DUP6 SWAP1 PUSH1 0x4 SWAP1 PUSH4 0xFFFFFFFF PUSH2 0xE11 AND JUMP JUMPDEST DUP1 PUSH1 0x20 ADD SWAP1 MLOAD PUSH2 0xC35 SWAP2 SWAP1 DUP2 ADD SWAP1 PUSH2 0x125E JUMP JUMPDEST SWAP2 SWAP7 SWAP1 SWAP6 POP SWAP1 SWAP4 POP SWAP2 POP POP JUMP JUMPDEST PUSH1 0x0 DUP3 PUSH2 0xC54 JUMPI PUSH2 0xC54 PUSH2 0xAA6 PUSH2 0xE4F JUMP JUMPDEST DUP2 ISZERO DUP1 PUSH2 0xC5F JUMPI POP DUP4 ISZERO JUMPDEST ISZERO PUSH2 0xC6C JUMPI POP PUSH1 0x0 PUSH2 0x357 JUMP JUMPDEST PUSH1 0x0 DUP4 DUP1 PUSH2 0xC76 JUMPI INVALID JUMPDEST DUP6 DUP5 MULMOD SWAP1 POP PUSH2 0xC8B DUP6 DUP5 PUSH4 0xFFFFFFFF PUSH2 0xACB AND JUMP JUMPDEST PUSH2 0xC9D DUP3 PUSH2 0x3E8 PUSH4 0xFFFFFFFF PUSH2 0xACB AND JUMP JUMPDEST LT ISZERO SWAP6 SWAP5 POP POP POP POP POP JUMP JUMPDEST PUSH1 0x60 PUSH4 0x339F3DE2 PUSH1 0xE0 SHL DUP5 DUP5 DUP5 PUSH1 0x40 MLOAD PUSH1 0x24 ADD PUSH2 0xCC7 SWAP4 SWAP3 SWAP2 SWAP1 PUSH2 0x15DE JUMP JUMPDEST PUSH1 0x40 DUP1 MLOAD PUSH1 0x1F NOT DUP2 DUP5 SUB ADD DUP2 MSTORE SWAP2 SWAP1 MSTORE PUSH1 0x20 DUP2 ADD DUP1 MLOAD PUSH28 0xFFFFFFFFFFFFFFFFFFFFFFFFFFFFFFFFFFFFFFFFFFFFFFFFFFFFFFFF AND PUSH32 0xFFFFFFFF00000000000000000000000000000000000000000000000000000000 SWAP1 SWAP4 AND SWAP3 SWAP1 SWAP3 OR SWAP1 SWAP2 MSTORE SWAP1 POP SWAP4 SWAP3 POP POP POP JUMP JUMPDEST DUP1 MLOAD PUSH1 0x20 DUP3 ADD REVERT JUMPDEST PUSH1 0x0 DUP2 PUSH2 0xD4D JUMPI PUSH2 0xD4D PUSH2 0xAA6 PUSH1 0x3 DUP6 DUP6 PUSH2 0xD61 JUMP JUMPDEST PUSH1 0x0 DUP3 DUP5 DUP2 PUSH2 0xD58 JUMPI INVALID JUMPDEST DIV SWAP5 SWAP4 POP POP POP POP JUMP JUMPDEST PUSH1 0x60 PUSH4 0xE946C1BB PUSH1 0xE0 SHL DUP5 DUP5 DUP5 PUSH1 0x40 MLOAD PUSH1 0x24 ADD PUSH2 0xCC7 SWAP4 SWAP3 SWAP2 SWAP1 PUSH2 0x152D JUMP JUMPDEST PUSH1 0x60 PUSH4 0x28006595 PUSH1 0xE0 SHL DUP5 DUP5 DUP5 PUSH1 0x40 MLOAD PUSH1 0x24 ADD PUSH2 0xCC7 SWAP4 SWAP3 SWAP2 SWAP1 PUSH2 0x154F JUMP JUMPDEST PUSH1 0x0 PUSH2 0xDAC DUP4 PUSH1 0x0 PUSH2 0xB05 JUMP JUMPDEST SWAP1 POP PUSH32 0xFFFFFFFF00000000000000000000000000000000000000000000000000000000 DUP1 DUP3 AND SWAP1 DUP4 AND EQ PUSH2 0xE0C JUMPI PUSH1 0x40 MLOAD PUSH32 0x8C379A000000000000000000000000000000000000000000000000000000000 DUP2 MSTORE PUSH1 0x4 ADD PUSH2 0xA7D SWAP1 PUSH2 0x15A7 JUMP JUMPDEST POP POP POP JUMP JUMPDEST PUSH1 0x60 DUP2 DUP4 GT ISZERO PUSH2 0xE2A JUMPI PUSH2 0xE2A PUSH2 0xAA6 PUSH1 0x0 DUP6 DUP6 PUSH2 0xD80 JUMP JUMPDEST DUP4 MLOAD DUP3 GT ISZERO PUSH2 0xE43 JUMPI PUSH2 0xE43 PUSH2 0xAA6 PUSH1 0x1 DUP5 DUP8 MLOAD PUSH2 0xD80 JUMP JUMPDEST POP DUP2 SWAP1 SUB SWAP2 ADD SWAP1 DUP2 MSTORE SWAP1 JUMP JUMPDEST PUSH1 0x40 DUP1 MLOAD DUP1 DUP3 ADD SWAP1 SWAP2 MSTORE PUSH1 0x4 DUP2 MSTORE PUSH32 0xA791837C00000000000000000000000000000000000000000000000000000000 PUSH1 0x20 DUP3 ADD MSTORE SWAP1 JUMP JUMPDEST PUSH1 0x40 MLOAD DUP1 PUSH1 0xA0 ADD PUSH1 0x40 MSTORE DUP1 PUSH1 0x0 DUP2 MSTORE PUSH1 0x20 ADD PUSH1 0x0 DUP2 MSTORE PUSH1 0x20 ADD PUSH1 0x0 DUP2 MSTORE PUSH1 0x20 ADD PUSH1 0x0 DUP2 MSTORE PUSH1 0x20 ADD PUSH1 0x0 DUP2 MSTORE POP SWAP1 JUMP JUMPDEST DUP1 CALLDATALOAD PUSH1 0x1 PUSH1 0x1 PUSH1 0xA0 SHL SUB DUP2 AND DUP2 EQ PUSH2 0xAFF JUMPI PUSH1 0x0 DUP1 REVERT JUMPDEST PUSH1 0x0 DUP3 PUSH1 0x1F DUP4 ADD SLT PUSH2 0xEDC JUMPI DUP1 DUP2 REVERT JUMPDEST DUP2 CALLDATALOAD PUSH2 0xEEF PUSH2 0xEEA DUP3 PUSH2 0x161B JUMP JUMPDEST PUSH2 0x15F4 JUMP JUMPDEST DUP2 DUP2 MSTORE SWAP2 POP PUSH1 0x20 DUP1 DUP4 ADD SWAP1 DUP5 DUP2 ADD DUP2 DUP5 MUL DUP7 ADD DUP3 ADD DUP8 LT ISZERO PUSH2 0xF10 JUMPI PUSH1 0x0 DUP1 REVERT JUMPDEST PUSH1 0x0 JUMPDEST DUP5 DUP2 LT ISZERO PUSH2 0xF37 JUMPI PUSH2 0xF25 DUP9 DUP4 PUSH2 0xEB5 JUMP JUMPDEST DUP5 MSTORE SWAP3 DUP3 ADD SWAP3 SWAP1 DUP3 ADD SWAP1 PUSH1 0x1 ADD PUSH2 0xF13 JUMP JUMPDEST POP POP POP POP POP SWAP3 SWAP2 POP POP JUMP JUMPDEST PUSH1 0x0 DUP3 PUSH1 0x1F DUP4 ADD SLT PUSH2 0xF52 JUMPI DUP1 DUP2 REVERT JUMPDEST DUP2 CALLDATALOAD PUSH2 0xF60 PUSH2 0xEEA DUP3 PUSH2 0x161B JUMP JUMPDEST DUP2 DUP2 MSTORE SWAP2 POP PUSH1 0x20 DUP1 DUP4 ADD SWAP1 DUP5 DUP2 ADD DUP2 DUP5 MUL DUP7 ADD DUP3 ADD DUP8 LT ISZERO PUSH2 0xF81 JUMPI PUSH1 0x0 DUP1 REVERT JUMPDEST PUSH1 0x0 JUMPDEST DUP5 DUP2 LT ISZERO PUSH2 0xF37 JUMPI DUP2 CALLDATALOAD DUP5 MSTORE SWAP3 DUP3 ADD SWAP3 SWAP1 DUP3 ADD SWAP1 PUSH1 0x1 ADD PUSH2 0xF84 JUMP JUMPDEST PUSH1 0x0 DUP3 PUSH1 0x1F DUP4 ADD SLT PUSH2 0xFB0 JUMPI DUP1 DUP2 REVERT JUMPDEST DUP2 CALLDATALOAD PUSH2 0xFBE PUSH2 0xEEA DUP3 PUSH2 0x163B JUMP JUMPDEST SWAP2 POP DUP1 DUP3 MSTORE DUP4 PUSH1 0x20 DUP3 DUP6 ADD ADD GT ISZERO PUSH2 0xFD5 JUMPI PUSH1 0x0 DUP1 REVERT JUMPDEST DUP1 PUSH1 0x20 DUP5 ADD PUSH1 0x20 DUP5 ADD CALLDATACOPY PUSH1 0x0 SWAP1 DUP3 ADD PUSH1 0x20 ADD MSTORE SWAP3 SWAP2 POP POP JUMP JUMPDEST PUSH1 0x0 DUP3 PUSH1 0x1F DUP4 ADD SLT PUSH2 0xFFE JUMPI DUP1 DUP2 REVERT JUMPDEST DUP2 MLOAD PUSH2 0x100C PUSH2 0xEEA DUP3 PUSH2 0x163B JUMP JUMPDEST SWAP2 POP DUP1 DUP3 MSTORE DUP4 PUSH1 0x20 DUP3 DUP6 ADD ADD GT ISZERO PUSH2 0x1023 JUMPI PUSH1 0x0 DUP1 REVERT JUMPDEST PUSH2 0x1034 DUP2 PUSH1 0x20 DUP5 ADD PUSH1 0x20 DUP7 ADD PUSH2 0x1668 JUMP JUMPDEST POP SWAP3 SWAP2 POP POP JUMP JUMPDEST PUSH1 0x0 PUSH2 0x1C0 DUP1 DUP4 DUP6 SUB SLT ISZERO PUSH2 0x104E JUMPI DUP2 DUP3 REVERT JUMPDEST PUSH2 0x1057 DUP2 PUSH2 0x15F4 JUMP JUMPDEST SWAP2 POP POP PUSH2 0x1064 DUP4 DUP4 PUSH2 0xEB5 JUMP JUMPDEST DUP2 MSTORE PUSH2 0x1073 DUP4 PUSH1 0x20 DUP5 ADD PUSH2 0xEB5 JUMP JUMPDEST PUSH1 0x20 DUP3 ADD MSTORE PUSH2 0x1085 DUP4 PUSH1 0x40 DUP5 ADD PUSH2 0xEB5 JUMP JUMPDEST PUSH1 0x40 DUP3 ADD MSTORE PUSH2 0x1097 DUP4 PUSH1 0x60 DUP5 ADD PUSH2 0xEB5 JUMP JUMPDEST PUSH1 0x60 DUP3 ADD MSTORE PUSH1 0x80 DUP3 ADD CALLDATALOAD PUSH1 0x80 DUP3 ADD MSTORE PUSH1 0xA0 DUP3 ADD CALLDATALOAD PUSH1 0xA0 DUP3 ADD MSTORE PUSH1 0xC0 DUP3 ADD CALLDATALOAD PUSH1 0xC0 DUP3 ADD MSTORE PUSH1 0xE0 DUP3 ADD CALLDATALOAD PUSH1 0xE0 DUP3 ADD MSTORE PUSH2 0x100 DUP1 DUP4 ADD CALLDATALOAD DUP2 DUP4 ADD MSTORE POP PUSH2 0x120 DUP1 DUP4 ADD CALLDATALOAD DUP2 DUP4 ADD MSTORE POP PUSH2 0x140 DUP1 DUP4 ADD CALLDATALOAD PUSH8 0xFFFFFFFFFFFFFFFF DUP1 DUP3 GT ISZERO PUSH2 0x10F9 JUMPI PUSH1 0x0 DUP1 REVERT JUMPDEST PUSH2 0x1105 DUP7 DUP4 DUP8 ADD PUSH2 0xFA0 JUMP JUMPDEST DUP4 DUP6 ADD MSTORE PUSH2 0x160 SWAP3 POP DUP3 DUP6 ADD CALLDATALOAD SWAP2 POP DUP1 DUP3 GT ISZERO PUSH2 0x1121 JUMPI PUSH1 0x0 DUP1 REVERT JUMPDEST PUSH2 0x112D DUP7 DUP4 DUP8 ADD PUSH2 0xFA0 JUMP JUMPDEST DUP4 DUP6 ADD MSTORE PUSH2 0x180 SWAP3 POP DUP3 DUP6 ADD CALLDATALOAD SWAP2 POP DUP1 DUP3 GT ISZERO PUSH2 0x1149 JUMPI PUSH1 0x0 DUP1 REVERT JUMPDEST PUSH2 0x1155 DUP7 DUP4 DUP8 ADD PUSH2 0xFA0 JUMP JUMPDEST DUP4 DUP6 ADD MSTORE PUSH2 0x1A0 SWAP3 POP DUP3 DUP6 ADD CALLDATALOAD SWAP2 POP DUP1 DUP3 GT ISZERO PUSH2 0x1171 JUMPI PUSH1 0x0 DUP1 REVERT JUMPDEST POP PUSH2 0x117E DUP6 DUP3 DUP7 ADD PUSH2 0xFA0 JUMP JUMPDEST DUP3 DUP5 ADD MSTORE POP POP SWAP3 SWAP2 POP POP JUMP JUMPDEST PUSH1 0x0 DUP1 PUSH1 0x0 PUSH1 0x60 DUP5 DUP7 SUB SLT ISZERO PUSH2 0x119E JUMPI DUP3 DUP4 REVERT JUMPDEST DUP4 CALLDATALOAD PUSH8 0xFFFFFFFFFFFFFFFF DUP1 DUP3 GT ISZERO PUSH2 0x11B5 JUMPI DUP5 DUP6 REVERT JUMPDEST DUP2 DUP7 ADD DUP8 PUSH1 0x1F DUP3 ADD SLT PUSH2 0x11C6 JUMPI DUP6 DUP7 REVERT JUMPDEST DUP1 CALLDATALOAD SWAP3 POP PUSH2 0x11D6 PUSH2 0xEEA DUP5 PUSH2 0x161B JUMP JUMPDEST DUP4 DUP2 MSTORE PUSH1 0x20 DUP1 DUP3 ADD SWAP2 SWAP1 DUP4 DUP2 ADD DUP10 JUMPDEST DUP8 DUP2 LT ISZERO PUSH2 0x120E JUMPI PUSH2 0x11FC DUP14 DUP5 DUP5 CALLDATALOAD DUP10 ADD ADD PUSH2 0x103B JUMP JUMPDEST DUP6 MSTORE SWAP4 DUP3 ADD SWAP4 SWAP1 DUP3 ADD SWAP1 PUSH1 0x1 ADD PUSH2 0x11E5 JUMP JUMPDEST POP SWAP2 SWAP9 POP DUP10 ADD CALLDATALOAD SWAP5 POP POP POP POP DUP1 DUP3 GT ISZERO PUSH2 0x1226 JUMPI DUP4 DUP5 REVERT JUMPDEST PUSH2 0x1232 DUP8 DUP4 DUP9 ADD PUSH2 0xECC JUMP JUMPDEST SWAP4 POP PUSH1 0x40 DUP7 ADD CALLDATALOAD SWAP2 POP DUP1 DUP3 GT ISZERO PUSH2 0x1247 JUMPI DUP3 DUP4 REVERT JUMPDEST POP PUSH2 0x1254 DUP7 DUP3 DUP8 ADD PUSH2 0xF42 JUMP JUMPDEST SWAP2 POP POP SWAP3 POP SWAP3 POP SWAP3 JUMP JUMPDEST PUSH1 0x0 DUP1 PUSH1 0x0 PUSH1 0x60 DUP5 DUP7 SUB SLT ISZERO PUSH2 0x1272 JUMPI DUP3 DUP4 REVERT JUMPDEST DUP4 MLOAD SWAP3 POP PUSH1 0x20 DUP5 ADD MLOAD PUSH8 0xFFFFFFFFFFFFFFFF DUP1 DUP3 GT ISZERO PUSH2 0x1290 JUMPI DUP4 DUP5 REVERT JUMPDEST PUSH2 0x129C DUP8 DUP4 DUP9 ADD PUSH2 0xFEE JUMP JUMPDEST SWAP4 POP PUSH1 0x40 DUP7 ADD MLOAD SWAP2 POP DUP1 DUP3 GT ISZERO PUSH2 0x12B1 JUMPI DUP3 DUP4 REVERT JUMPDEST POP PUSH2 0x1254 DUP7 DUP3 DUP8 ADD PUSH2 0xFEE JUMP JUMPDEST PUSH1 0x0 DUP1 PUSH1 0x0 PUSH1 0x60 DUP5 DUP7 SUB SLT ISZERO PUSH2 0x12D2 JUMPI DUP3 DUP4 REVERT JUMPDEST DUP4 CALLDATALOAD PUSH8 0xFFFFFFFFFFFFFFFF DUP2 GT ISZERO PUSH2 0x12E8 JUMPI DUP4 DUP5 REVERT JUMPDEST PUSH2 0x12F4 DUP7 DUP3 DUP8 ADD PUSH2 0x103B JUMP JUMPDEST SWAP4 POP POP PUSH2 0x1304 DUP6 PUSH1 0x20 DUP7 ADD PUSH2 0xEB5 JUMP JUMPDEST SWAP2 POP PUSH1 0x40 DUP5 ADD CALLDATALOAD SWAP1 POP SWAP3 POP SWAP3 POP SWAP3 JUMP JUMPDEST PUSH1 0x0 PUSH1 0x20 DUP3 DUP5 SUB SLT ISZERO PUSH2 0x1325 JUMPI DUP1 DUP2 REVERT JUMPDEST POP MLOAD SWAP2 SWAP1 POP JUMP JUMPDEST PUSH1 0x0 DUP1 PUSH1 0x0 PUSH1 0x60 DUP5 DUP7 SUB SLT ISZERO PUSH2 0x1340 JUMPI DUP1 DUP2 REVERT JUMPDEST DUP4 MLOAD PUSH1 0xFF DUP2 AND DUP2 EQ PUSH2 0x1350 JUMPI DUP2 DUP3 REVERT JUMPDEST PUSH1 0x20 DUP6 ADD MLOAD PUSH1 0x40 DUP7 ADD MLOAD SWAP2 SWAP5 POP SWAP3 POP PUSH8 0xFFFFFFFFFFFFFFFF DUP2 GT ISZERO PUSH2 0x1373 JUMPI DUP2 DUP3 REVERT JUMPDEST PUSH2 0x1254 DUP7 DUP3 DUP8 ADD PUSH2 0xFEE JUMP JUMPDEST PUSH1 0x0 DUP2 MLOAD DUP1 DUP5 MSTORE PUSH2 0x1397 DUP2 PUSH1 0x20 DUP7 ADD PUSH1 0x20 DUP7 ADD PUSH2 0x1668 JUMP JUMPDEST PUSH1 0x1F ADD PUSH1 0x1F NOT AND SWAP3 SWAP1 SWAP3 ADD PUSH1 0x20 ADD SWAP3 SWAP2 POP POP JUMP JUMPDEST DUP2 MSTORE PUSH1 0x20 ADD SWAP1 JUMP JUMPDEST PUSH1 0x0 DUP2 MLOAD DUP1 DUP5 MSTORE PUSH1 0x20 DUP5 ADD SWAP4 POP PUSH1 0x20 DUP4 ADD DUP3 JUMPDEST DUP3 DUP2 LT ISZERO PUSH2 0x13ED JUMPI DUP2 MLOAD PUSH1 0x1 PUSH1 0x1 PUSH1 0xA0 SHL SUB AND DUP7 MSTORE PUSH1 0x20 SWAP6 DUP7 ADD SWAP6 SWAP1 SWAP2 ADD SWAP1 PUSH1 0x1 ADD PUSH2 0x13C6 JUMP JUMPDEST POP SWAP4 SWAP5 SWAP4 POP POP POP POP JUMP JUMPDEST PUSH1 0x0 DUP3 MLOAD PUSH2 0x1409 DUP2 DUP5 PUSH1 0x20 DUP8 ADD PUSH2 0x1668 JUMP JUMPDEST SWAP2 SWAP1 SWAP2 ADD SWAP3 SWAP2 POP POP JUMP JUMPDEST PUSH1 0x0 PUSH1 0x80 DUP3 ADD PUSH1 0x80 DUP4 MSTORE DUP1 DUP8 MLOAD PUSH2 0x142A DUP2 DUP5 PUSH2 0x165F JUMP JUMPDEST SWAP2 POP DUP2 SWAP3 POP PUSH1 0x20 DUP1 DUP3 MUL DUP4 ADD DUP2 DUP12 ADD DUP7 JUMPDEST DUP5 DUP2 LT ISZERO PUSH2 0x1465 JUMPI DUP7 DUP4 SUB DUP7 MSTORE PUSH2 0x1453 DUP4 DUP4 MLOAD PUSH2 0x137F JUMP JUMPDEST SWAP6 DUP5 ADD SWAP6 SWAP3 POP SWAP1 DUP4 ADD SWAP1 PUSH1 0x1 ADD PUSH2 0x143B JUMP JUMPDEST POP POP DUP7 DUP2 SUB DUP3 DUP9 ADD MSTORE PUSH2 0x1478 DUP2 DUP12 PUSH2 0x13B3 JUMP JUMPDEST SWAP5 POP POP DUP6 DUP5 SUB PUSH1 0x40 DUP8 ADD MSTORE PUSH2 0x148D DUP5 DUP10 PUSH2 0x13B3 JUMP JUMPDEST SWAP3 POP DUP6 DUP4 SUB PUSH1 0x60 DUP8 ADD MSTORE DUP3 SWAP4 POP DUP7 MLOAD SWAP2 POP PUSH2 0x14A8 DUP3 DUP5 PUSH2 0x165F JUMP JUMPDEST SWAP4 POP DUP1 DUP8 ADD SWAP3 POP DUP5 JUMPDEST DUP3 DUP2 LT ISZERO PUSH2 0x14D2 JUMPI PUSH2 0x14C4 DUP6 DUP6 MLOAD PUSH2 0x13AB JUMP JUMPDEST SWAP5 POP SWAP3 DUP2 ADD SWAP3 PUSH1 0x1 ADD PUSH2 0x14B1 JUMP JUMPDEST POP SWAP3 SWAP10 SWAP9 POP POP POP POP POP POP POP POP POP JUMP JUMPDEST PUSH1 0x20 DUP1 DUP3 MSTORE DUP3 MLOAD DUP3 DUP3 ADD DUP2 SWAP1 MSTORE PUSH1 0x0 SWAP2 DUP5 ADD SWAP1 PUSH1 0x40 DUP5 ADD SWAP1 DUP4 JUMPDEST DUP2 DUP2 LT ISZERO PUSH2 0x1522 JUMPI DUP4 MLOAD PUSH2 0x150E DUP2 PUSH2 0x1698 JUMP JUMPDEST DUP4 MSTORE PUSH1 0x20 SWAP4 DUP5 ADD SWAP4 SWAP1 SWAP3 ADD SWAP2 PUSH1 0x1 ADD PUSH2 0x14FB JUMP JUMPDEST POP SWAP1 SWAP6 SWAP5 POP POP POP POP POP JUMP JUMPDEST PUSH1 0x60 DUP2 ADD PUSH1 0x4 DUP6 LT PUSH2 0x153B JUMPI INVALID JUMPDEST SWAP4 DUP2 MSTORE PUSH1 0x20 DUP2 ADD SWAP3 SWAP1 SWAP3 MSTORE PUSH1 0x40 SWAP1 SWAP2 ADD MSTORE SWAP1 JUMP JUMPDEST PUSH1 0x60 DUP2 ADD PUSH1 0x8 DUP6 LT PUSH2 0x153B JUMPI INVALID JUMPDEST PUSH1 0x20 DUP2 ADD PUSH2 0x156A DUP4 PUSH2 0x1698 JUMP JUMPDEST SWAP2 SWAP1 MSTORE SWAP1 JUMP JUMPDEST PUSH1 0x20 DUP1 DUP3 MSTORE PUSH1 0x13 SWAP1 DUP3 ADD MSTORE PUSH32 0x554E4B4E4F574E5F52455455524E5F4441544100000000000000000000000000 PUSH1 0x40 DUP3 ADD MSTORE PUSH1 0x60 ADD SWAP1 JUMP JUMPDEST PUSH1 0x20 DUP1 DUP3 MSTORE PUSH1 0xC SWAP1 DUP3 ADD MSTORE PUSH32 0x4241445F53454C4543544F520000000000000000000000000000000000000000 PUSH1 0x40 DUP3 ADD MSTORE PUSH1 0x60 ADD SWAP1 JUMP JUMPDEST SWAP3 DUP4 MSTORE PUSH1 0x20 DUP4 ADD SWAP2 SWAP1 SWAP2 MSTORE PUSH1 0x40 DUP3 ADD MSTORE PUSH1 0x60 ADD SWAP1 JUMP JUMPDEST PUSH1 0x40 MLOAD DUP2 DUP2 ADD PUSH8 0xFFFFFFFFFFFFFFFF DUP2 GT DUP3 DUP3 LT OR ISZERO PUSH2 0x1613 JUMPI PUSH1 0x0 DUP1 REVERT JUMPDEST PUSH1 0x40 MSTORE SWAP2 SWAP1 POP JUMP JUMPDEST PUSH1 0x0 PUSH8 0xFFFFFFFFFFFFFFFF DUP3 GT ISZERO PUSH2 0x1631 JUMPI DUP1 DUP2 REVERT JUMPDEST POP PUSH1 0x20 SWAP1 DUP2 MUL ADD SWAP1 JUMP JUMPDEST PUSH1 0x0 PUSH8 0xFFFFFFFFFFFFFFFF DUP3 GT ISZERO PUSH2 0x1651 JUMPI DUP1 DUP2 REVERT JUMPDEST POP PUSH1 0x1F ADD PUSH1 0x1F NOT AND PUSH1 0x20 ADD SWAP1 JUMP JUMPDEST SWAP1 DUP2 MSTORE PUSH1 0x20 ADD SWAP1 JUMP JUMPDEST PUSH1 0x0 JUMPDEST DUP4 DUP2 LT ISZERO PUSH2 0x1683 JUMPI DUP2 DUP2 ADD MLOAD DUP4 DUP3 ADD MSTORE PUSH1 0x20 ADD PUSH2 0x166B JUMP JUMPDEST DUP4 DUP2 GT ISZERO PUSH2 0x1692 JUMPI PUSH1 0x0 DUP5 DUP5 ADD MSTORE JUMPDEST POP POP POP POP JUMP JUMPDEST PUSH1 0x5 DUP2 LT PUSH2 0x16A2 JUMPI INVALID JUMPDEST POP JUMP INVALID LOG3 PUSH6 0x627A7A723158 KECCAK256 PUSH28 0xE821AB47DC5850934B7EF17EBAC22FEFFE2B6AE5AF20EC2E0E35C5E9 SWAP16 0xE9 SWAP3 PUSH13 0x6578706572696D656E74616CF5 PUSH5 0x736F6C6343 STOP SDIV GT STOP BLOCKHASH "
            }
        }
    },
    "sourceTreeHashHex": "0x99d0b803931a4fca4de61c5f202a99e9e54dfdce0e7496a29bbf9471c306fe8a",
    "compiler": {
        "name": "solc",
        "version": "0.5.17+commit.d19bba13",
        "settings": {
            "remappings": [
                "@0x/contracts-asset-proxy=/Users/rickmorty/Documents/projects/0x/0x-monorepo/node_modules/@0x/contracts-asset-proxy",
                "@0x/contracts-exchange=/Users/rickmorty/Documents/projects/0x/0x-monorepo/node_modules/@0x/contracts-exchange",
                "@0x/contracts-exchange-libs=/Users/rickmorty/Documents/projects/0x/0x-monorepo/node_modules/@0x/contracts-exchange-libs",
                "@0x/contracts-utils=/Users/rickmorty/Documents/projects/0x/0x-monorepo/node_modules/@0x/contracts-utils",
                "@0x/contracts-erc20=/Users/rickmorty/Documents/projects/0x/0x-monorepo/node_modules/@0x/contracts-erc20",
                "@0x/contracts-erc721=/Users/rickmorty/Documents/projects/0x/0x-monorepo/node_modules/@0x/contracts-erc721",
                "@0x/contracts-erc1155=/Users/rickmorty/Documents/projects/0x/0x-monorepo/node_modules/@0x/contracts-erc1155"
            ],
            "optimizer": {
                "enabled": true,
                "runs": 5000,
                "details": {
                    "yul": true,
                    "deduplicate": true,
                    "cse": true,
                    "constantOptimizer": true
                }
            },
            "outputSelection": {
                "*": {
                    "*": [
                        "abi",
                        "devdoc",
                        "evm.bytecode.object",
                        "evm.bytecode.sourceMap",
                        "evm.deployedBytecode.object",
                        "evm.deployedBytecode.sourceMap"
                    ]
                }
            },
            "evmVersion": "istanbul"
        }
    },
    "chains": {}
}