{
    "schemaVersion": "2.0.0",
    "contractName": "ShellSampler",
    "compilerOutput": {
        "abi": [
            {
                "inputs": [
                    {
                        "internalType": "address",
                        "name": "pool",
                        "type": "address"
                    },
                    {
                        "internalType": "address",
                        "name": "takerToken",
                        "type": "address"
                    },
                    {
                        "internalType": "address",
                        "name": "makerToken",
                        "type": "address"
                    },
                    {
                        "internalType": "uint256[]",
                        "name": "makerTokenAmounts",
                        "type": "uint256[]"
                    }
                ],
                "name": "sampleBuysFromShell",
                "outputs": [
                    {
                        "internalType": "uint256[]",
                        "name": "takerTokenAmounts",
                        "type": "uint256[]"
                    }
                ],
                "stateMutability": "view",
                "type": "function"
            },
            {
                "inputs": [
                    {
                        "internalType": "address",
                        "name": "pool",
                        "type": "address"
                    },
                    {
                        "internalType": "address",
                        "name": "takerToken",
                        "type": "address"
                    },
                    {
                        "internalType": "address",
                        "name": "makerToken",
                        "type": "address"
                    },
                    {
                        "internalType": "uint256[]",
                        "name": "takerTokenAmounts",
                        "type": "uint256[]"
                    }
                ],
                "name": "sampleSellsFromShell",
                "outputs": [
                    {
                        "internalType": "uint256[]",
                        "name": "makerTokenAmounts",
                        "type": "uint256[]"
                    }
                ],
                "stateMutability": "view",
                "type": "function"
            }
        ],
        "devdoc": {
            "kind": "dev",
            "methods": {
                "sampleBuysFromShell(address,address,address,uint256[])": {
                    "details": "Sample buy quotes from Shell pool contract",
                    "params": {
                        "makerToken": "Address of the maker token (what to buy).",
                        "makerTokenAmounts": "Maker token buy amount for each sample.",
                        "pool": "Address of the Shell pool contract",
                        "takerToken": "Address of the taker token (what to sell)."
                    },
                    "returns": {
                        "takerTokenAmounts": "Taker amounts sold at each maker token         amount."
                    }
                },
                "sampleSellsFromShell(address,address,address,uint256[])": {
                    "details": "Sample sell quotes from the Shell pool contract",
                    "params": {
                        "makerToken": "Address of the maker token (what to buy).",
                        "pool": "Address of the Shell pool contract",
                        "takerToken": "Address of the taker token (what to sell).",
                        "takerTokenAmounts": "Taker token sell amount for each sample."
                    },
                    "returns": {
                        "makerTokenAmounts": "Maker amounts bought at each taker token         amount."
                    }
                }
            },
            "stateVariables": {
                "DEFAULT_CALL_GAS": {
                    "details": "Default gas limit for Shell calls."
                }
            },
            "version": 1
        },
        "evm": {
            "bytecode": {
                "linkReferences": {},
                "object": "0x608060405234801561001057600080fd5b5061058b806100206000396000f3fe608060405234801561001057600080fd5b50600436106100365760003560e01c80635d5b674f1461003b578063e8e4af0914610064575b600080fd5b61004e61004936600461038f565b610077565b60405161005b91906104a5565b60405180910390f35b61004e61007236600461038f565b61020e565b80516060908067ffffffffffffffff8111801561009357600080fd5b506040519080825280602002602001820160405280156100bd578160200160208202803683370190505b50915060005b81811015610204578673ffffffffffffffffffffffffffffffffffffffff1663525d0da7620493e088888886815181106100f957fe5b60200260200101516040518563ffffffff1660e01b815260040161011f93929190610474565b60206040518083038187803b15801561013757600080fd5b5086fa93505050508015610186575060408051601f3d9081017fffffffffffffffffffffffffffffffffffffffffffffffffffffffffffffffe01682019092526101839181019061045c565b60015b6101c0573d8080156101b4576040519150601f19603f3d011682016040523d82523d6000602084013e6101b9565b606091505b5050610204565b808483815181106101cd57fe5b6020026020010181815250508382815181106101e557fe5b6020026020010151600014156101fb5750610204565b506001016100c3565b5050949350505050565b80516060908067ffffffffffffffff8111801561022a57600080fd5b50604051908082528060200260200182016040528015610254578160200160208202803683370190505b50915060005b81811015610204578673ffffffffffffffffffffffffffffffffffffffff1663838e6a22620493e0888888868151811061029057fe5b60200260200101516040518563ffffffff1660e01b81526004016102b693929190610474565b60206040518083038187803b1580156102ce57600080fd5b5086fa9350505050801561031d575060408051601f3d9081017fffffffffffffffffffffffffffffffffffffffffffffffffffffffffffffffe016820190925261031a9181019061045c565b60015b61034b573d8080156101b4576040519150601f19603f3d011682016040523d82523d6000602084013e6101b9565b8084838151811061035857fe5b60200260200101818152505083828151811061037057fe5b6020026020010151600014156103865750610204565b5060010161025a565b600080600080608085870312156103a4578384fd5b84356103af81610530565b93506020858101356103c081610530565b935060408601356103d081610530565b9250606086013567ffffffffffffffff8111156103eb578283fd5b8601601f810188136103fb578283fd5b803561040e61040982610510565b6104e9565b81815283810190838501858402850186018c101561042a578687fd5b8694505b8385101561044c57803583526001949094019391850191850161042e565b50979a9699509497505050505050565b60006020828403121561046d578081fd5b5051919050565b73ffffffffffffffffffffffffffffffffffffffff9384168152919092166020820152604081019190915260600190565b6020808252825182820181905260009190848201906040850190845b818110156104dd578351835292840192918401916001016104c1565b50909695505050505050565b60405181810167ffffffffffffffff8111828210171561050857600080fd5b604052919050565b600067ffffffffffffffff821115610526578081fd5b5060209081020190565b73ffffffffffffffffffffffffffffffffffffffff8116811461055257600080fd5b5056fea2646970667358221220344ce51665ce4423053556457325eab3957109ac7cb5185bad4c4d9736c1e82064736f6c634300060c0033",
                "opcodes": "PUSH1 0x80 PUSH1 0x40 MSTORE CALLVALUE DUP1 ISZERO PUSH2 0x10 JUMPI PUSH1 0x0 DUP1 REVERT JUMPDEST POP PUSH2 0x58B DUP1 PUSH2 0x20 PUSH1 0x0 CODECOPY PUSH1 0x0 RETURN INVALID PUSH1 0x80 PUSH1 0x40 MSTORE CALLVALUE DUP1 ISZERO PUSH2 0x10 JUMPI PUSH1 0x0 DUP1 REVERT JUMPDEST POP PUSH1 0x4 CALLDATASIZE LT PUSH2 0x36 JUMPI PUSH1 0x0 CALLDATALOAD PUSH1 0xE0 SHR DUP1 PUSH4 0x5D5B674F EQ PUSH2 0x3B JUMPI DUP1 PUSH4 0xE8E4AF09 EQ PUSH2 0x64 JUMPI JUMPDEST PUSH1 0x0 DUP1 REVERT JUMPDEST PUSH2 0x4E PUSH2 0x49 CALLDATASIZE PUSH1 0x4 PUSH2 0x38F JUMP JUMPDEST PUSH2 0x77 JUMP JUMPDEST PUSH1 0x40 MLOAD PUSH2 0x5B SWAP2 SWAP1 PUSH2 0x4A5 JUMP JUMPDEST PUSH1 0x40 MLOAD DUP1 SWAP2 SUB SWAP1 RETURN JUMPDEST PUSH2 0x4E PUSH2 0x72 CALLDATASIZE PUSH1 0x4 PUSH2 0x38F JUMP JUMPDEST PUSH2 0x20E JUMP JUMPDEST DUP1 MLOAD PUSH1 0x60 SWAP1 DUP1 PUSH8 0xFFFFFFFFFFFFFFFF DUP2 GT DUP1 ISZERO PUSH2 0x93 JUMPI PUSH1 0x0 DUP1 REVERT JUMPDEST POP PUSH1 0x40 MLOAD SWAP1 DUP1 DUP3 MSTORE DUP1 PUSH1 0x20 MUL PUSH1 0x20 ADD DUP3 ADD PUSH1 0x40 MSTORE DUP1 ISZERO PUSH2 0xBD JUMPI DUP2 PUSH1 0x20 ADD PUSH1 0x20 DUP3 MUL DUP1 CALLDATASIZE DUP4 CALLDATACOPY ADD SWAP1 POP JUMPDEST POP SWAP2 POP PUSH1 0x0 JUMPDEST DUP2 DUP2 LT ISZERO PUSH2 0x204 JUMPI DUP7 PUSH20 0xFFFFFFFFFFFFFFFFFFFFFFFFFFFFFFFFFFFFFFFF AND PUSH4 0x525D0DA7 PUSH3 0x493E0 DUP9 DUP9 DUP9 DUP7 DUP2 MLOAD DUP2 LT PUSH2 0xF9 JUMPI INVALID JUMPDEST PUSH1 0x20 MUL PUSH1 0x20 ADD ADD MLOAD PUSH1 0x40 MLOAD DUP6 PUSH4 0xFFFFFFFF AND PUSH1 0xE0 SHL DUP2 MSTORE PUSH1 0x4 ADD PUSH2 0x11F SWAP4 SWAP3 SWAP2 SWAP1 PUSH2 0x474 JUMP JUMPDEST PUSH1 0x20 PUSH1 0x40 MLOAD DUP1 DUP4 SUB DUP2 DUP8 DUP1 EXTCODESIZE ISZERO DUP1 ISZERO PUSH2 0x137 JUMPI PUSH1 0x0 DUP1 REVERT JUMPDEST POP DUP7 STATICCALL SWAP4 POP POP POP POP DUP1 ISZERO PUSH2 0x186 JUMPI POP PUSH1 0x40 DUP1 MLOAD PUSH1 0x1F RETURNDATASIZE SWAP1 DUP2 ADD PUSH32 0xFFFFFFFFFFFFFFFFFFFFFFFFFFFFFFFFFFFFFFFFFFFFFFFFFFFFFFFFFFFFFFE0 AND DUP3 ADD SWAP1 SWAP3 MSTORE PUSH2 0x183 SWAP2 DUP2 ADD SWAP1 PUSH2 0x45C JUMP JUMPDEST PUSH1 0x1 JUMPDEST PUSH2 0x1C0 JUMPI RETURNDATASIZE DUP1 DUP1 ISZERO PUSH2 0x1B4 JUMPI PUSH1 0x40 MLOAD SWAP2 POP PUSH1 0x1F NOT PUSH1 0x3F RETURNDATASIZE ADD AND DUP3 ADD PUSH1 0x40 MSTORE RETURNDATASIZE DUP3 MSTORE RETURNDATASIZE PUSH1 0x0 PUSH1 0x20 DUP5 ADD RETURNDATACOPY PUSH2 0x1B9 JUMP JUMPDEST PUSH1 0x60 SWAP2 POP JUMPDEST POP POP PUSH2 0x204 JUMP JUMPDEST DUP1 DUP5 DUP4 DUP2 MLOAD DUP2 LT PUSH2 0x1CD JUMPI INVALID JUMPDEST PUSH1 0x20 MUL PUSH1 0x20 ADD ADD DUP2 DUP2 MSTORE POP POP DUP4 DUP3 DUP2 MLOAD DUP2 LT PUSH2 0x1E5 JUMPI INVALID JUMPDEST PUSH1 0x20 MUL PUSH1 0x20 ADD ADD MLOAD PUSH1 0x0 EQ ISZERO PUSH2 0x1FB JUMPI POP PUSH2 0x204 JUMP JUMPDEST POP PUSH1 0x1 ADD PUSH2 0xC3 JUMP JUMPDEST POP POP SWAP5 SWAP4 POP POP POP POP JUMP JUMPDEST DUP1 MLOAD PUSH1 0x60 SWAP1 DUP1 PUSH8 0xFFFFFFFFFFFFFFFF DUP2 GT DUP1 ISZERO PUSH2 0x22A JUMPI PUSH1 0x0 DUP1 REVERT JUMPDEST POP PUSH1 0x40 MLOAD SWAP1 DUP1 DUP3 MSTORE DUP1 PUSH1 0x20 MUL PUSH1 0x20 ADD DUP3 ADD PUSH1 0x40 MSTORE DUP1 ISZERO PUSH2 0x254 JUMPI DUP2 PUSH1 0x20 ADD PUSH1 0x20 DUP3 MUL DUP1 CALLDATASIZE DUP4 CALLDATACOPY ADD SWAP1 POP JUMPDEST POP SWAP2 POP PUSH1 0x0 JUMPDEST DUP2 DUP2 LT ISZERO PUSH2 0x204 JUMPI DUP7 PUSH20 0xFFFFFFFFFFFFFFFFFFFFFFFFFFFFFFFFFFFFFFFF AND PUSH4 0x838E6A22 PUSH3 0x493E0 DUP9 DUP9 DUP9 DUP7 DUP2 MLOAD DUP2 LT PUSH2 0x290 JUMPI INVALID JUMPDEST PUSH1 0x20 MUL PUSH1 0x20 ADD ADD MLOAD PUSH1 0x40 MLOAD DUP6 PUSH4 0xFFFFFFFF AND PUSH1 0xE0 SHL DUP2 MSTORE PUSH1 0x4 ADD PUSH2 0x2B6 SWAP4 SWAP3 SWAP2 SWAP1 PUSH2 0x474 JUMP JUMPDEST PUSH1 0x20 PUSH1 0x40 MLOAD DUP1 DUP4 SUB DUP2 DUP8 DUP1 EXTCODESIZE ISZERO DUP1 ISZERO PUSH2 0x2CE JUMPI PUSH1 0x0 DUP1 REVERT JUMPDEST POP DUP7 STATICCALL SWAP4 POP POP POP POP DUP1 ISZERO PUSH2 0x31D JUMPI POP PUSH1 0x40 DUP1 MLOAD PUSH1 0x1F RETURNDATASIZE SWAP1 DUP2 ADD PUSH32 0xFFFFFFFFFFFFFFFFFFFFFFFFFFFFFFFFFFFFFFFFFFFFFFFFFFFFFFFFFFFFFFE0 AND DUP3 ADD SWAP1 SWAP3 MSTORE PUSH2 0x31A SWAP2 DUP2 ADD SWAP1 PUSH2 0x45C JUMP JUMPDEST PUSH1 0x1 JUMPDEST PUSH2 0x34B JUMPI RETURNDATASIZE DUP1 DUP1 ISZERO PUSH2 0x1B4 JUMPI PUSH1 0x40 MLOAD SWAP2 POP PUSH1 0x1F NOT PUSH1 0x3F RETURNDATASIZE ADD AND DUP3 ADD PUSH1 0x40 MSTORE RETURNDATASIZE DUP3 MSTORE RETURNDATASIZE PUSH1 0x0 PUSH1 0x20 DUP5 ADD RETURNDATACOPY PUSH2 0x1B9 JUMP JUMPDEST DUP1 DUP5 DUP4 DUP2 MLOAD DUP2 LT PUSH2 0x358 JUMPI INVALID JUMPDEST PUSH1 0x20 MUL PUSH1 0x20 ADD ADD DUP2 DUP2 MSTORE POP POP DUP4 DUP3 DUP2 MLOAD DUP2 LT PUSH2 0x370 JUMPI INVALID JUMPDEST PUSH1 0x20 MUL PUSH1 0x20 ADD ADD MLOAD PUSH1 0x0 EQ ISZERO PUSH2 0x386 JUMPI POP PUSH2 0x204 JUMP JUMPDEST POP PUSH1 0x1 ADD PUSH2 0x25A JUMP JUMPDEST PUSH1 0x0 DUP1 PUSH1 0x0 DUP1 PUSH1 0x80 DUP6 DUP8 SUB SLT ISZERO PUSH2 0x3A4 JUMPI DUP4 DUP5 REVERT JUMPDEST DUP5 CALLDATALOAD PUSH2 0x3AF DUP2 PUSH2 0x530 JUMP JUMPDEST SWAP4 POP PUSH1 0x20 DUP6 DUP2 ADD CALLDATALOAD PUSH2 0x3C0 DUP2 PUSH2 0x530 JUMP JUMPDEST SWAP4 POP PUSH1 0x40 DUP7 ADD CALLDATALOAD PUSH2 0x3D0 DUP2 PUSH2 0x530 JUMP JUMPDEST SWAP3 POP PUSH1 0x60 DUP7 ADD CALLDATALOAD PUSH8 0xFFFFFFFFFFFFFFFF DUP2 GT ISZERO PUSH2 0x3EB JUMPI DUP3 DUP4 REVERT JUMPDEST DUP7 ADD PUSH1 0x1F DUP2 ADD DUP9 SGT PUSH2 0x3FB JUMPI DUP3 DUP4 REVERT JUMPDEST DUP1 CALLDATALOAD PUSH2 0x40E PUSH2 0x409 DUP3 PUSH2 0x510 JUMP JUMPDEST PUSH2 0x4E9 JUMP JUMPDEST DUP2 DUP2 MSTORE DUP4 DUP2 ADD SWAP1 DUP4 DUP6 ADD DUP6 DUP5 MUL DUP6 ADD DUP7 ADD DUP13 LT ISZERO PUSH2 0x42A JUMPI DUP7 DUP8 REVERT JUMPDEST DUP7 SWAP5 POP JUMPDEST DUP4 DUP6 LT ISZERO PUSH2 0x44C JUMPI DUP1 CALLDATALOAD DUP4 MSTORE PUSH1 0x1 SWAP5 SWAP1 SWAP5 ADD SWAP4 SWAP2 DUP6 ADD SWAP2 DUP6 ADD PUSH2 0x42E JUMP JUMPDEST POP SWAP8 SWAP11 SWAP7 SWAP10 POP SWAP5 SWAP8 POP POP POP POP POP POP JUMP JUMPDEST PUSH1 0x0 PUSH1 0x20 DUP3 DUP5 SUB SLT ISZERO PUSH2 0x46D JUMPI DUP1 DUP2 REVERT JUMPDEST POP MLOAD SWAP2 SWAP1 POP JUMP JUMPDEST PUSH20 0xFFFFFFFFFFFFFFFFFFFFFFFFFFFFFFFFFFFFFFFF SWAP4 DUP5 AND DUP2 MSTORE SWAP2 SWAP1 SWAP3 AND PUSH1 0x20 DUP3 ADD MSTORE PUSH1 0x40 DUP2 ADD SWAP2 SWAP1 SWAP2 MSTORE PUSH1 0x60 ADD SWAP1 JUMP JUMPDEST PUSH1 0x20 DUP1 DUP3 MSTORE DUP3 MLOAD DUP3 DUP3 ADD DUP2 SWAP1 MSTORE PUSH1 0x0 SWAP2 SWAP1 DUP5 DUP3 ADD SWAP1 PUSH1 0x40 DUP6 ADD SWAP1 DUP5 JUMPDEST DUP2 DUP2 LT ISZERO PUSH2 0x4DD JUMPI DUP4 MLOAD DUP4 MSTORE SWAP3 DUP5 ADD SWAP3 SWAP2 DUP5 ADD SWAP2 PUSH1 0x1 ADD PUSH2 0x4C1 JUMP JUMPDEST POP SWAP1 SWAP7 SWAP6 POP POP POP POP POP POP JUMP JUMPDEST PUSH1 0x40 MLOAD DUP2 DUP2 ADD PUSH8 0xFFFFFFFFFFFFFFFF DUP2 GT DUP3 DUP3 LT OR ISZERO PUSH2 0x508 JUMPI PUSH1 0x0 DUP1 REVERT JUMPDEST PUSH1 0x40 MSTORE SWAP2 SWAP1 POP JUMP JUMPDEST PUSH1 0x0 PUSH8 0xFFFFFFFFFFFFFFFF DUP3 GT ISZERO PUSH2 0x526 JUMPI DUP1 DUP2 REVERT JUMPDEST POP PUSH1 0x20 SWAP1 DUP2 MUL ADD SWAP1 JUMP JUMPDEST PUSH20 0xFFFFFFFFFFFFFFFFFFFFFFFFFFFFFFFFFFFFFFFF DUP2 AND DUP2 EQ PUSH2 0x552 JUMPI PUSH1 0x0 DUP1 REVERT JUMPDEST POP JUMP INVALID LOG2 PUSH5 0x6970667358 0x22 SLT KECCAK256 CALLVALUE 0x4C 0xE5 AND PUSH6 0xCE4423053556 GASLIMIT PUSH20 0x25EAB3957109AC7CB5185BAD4C4D9736C1E82064 PUSH20 0x6F6C634300060C00330000000000000000000000 "
            }
        }
    },
    "sourceTreeHashHex": "0xd3abed7d9a15e675c2bfaed773d9680b24c2632bb4fe4cd83ec0bef1b8463cfc",
    "compiler": {
        "name": "solc",
        "version": "0.6.12+commit.27d51765",
        "settings": {
            "remappings": [
                "@0x/contracts-utils=/Users/jacob/projects/ethdev/0x/workspace-remote/workspace/0x-monorepo/packages/asset-swapper/node_modules/@0x/contracts-utils",
                "@0x/contracts-erc20=/Users/jacob/projects/ethdev/0x/workspace-remote/workspace/0x-monorepo/packages/asset-swapper/node_modules/@0x/contracts-erc20",
                "@0x/contracts-zero-ex=/Users/jacob/projects/ethdev/0x/workspace-remote/workspace/0x-monorepo/packages/asset-swapper/node_modules/@0x/contracts-zero-ex"
            ],
            "optimizer": {
                "enabled": true,
                "runs": 62500,
                "details": {
                    "yul": true,
                    "deduplicate": true,
                    "cse": true,
                    "constantOptimizer": true
                }
            },
            "outputSelection": {
                "*": {
                    "*": [
                        "abi",
                        "devdoc",
                        "evm.bytecode.object",
                        "evm.bytecode.sourceMap",
                        "evm.deployedBytecode.object",
                        "evm.deployedBytecode.sourceMap"
                    ]
                }
            },
            "evmVersion": "istanbul"
        }
    },
    "chains": {}
}