{
    "schemaVersion": "2.0.0",
    "contractName": "TestERC20BridgeSampler",
    "compilerOutput": {
        "abi": [
            {
                "inputs": [],
                "stateMutability": "nonpayable",
                "type": "constructor"
            },
            {
                "inputs": [],
                "name": "FAILURE_ADDRESS",
                "outputs": [
                    {
                        "internalType": "address payable",
                        "name": "",
                        "type": "address"
                    }
                ],
                "stateMutability": "view",
                "type": "function"
            },
            {
                "inputs": [
                    {
                        "internalType": "bytes[]",
                        "name": "callDatas",
                        "type": "bytes[]"
                    }
                ],
                "name": "batchCall",
                "outputs": [
                    {
                        "internalType": "bytes[]",
                        "name": "callResults",
                        "type": "bytes[]"
                    }
                ],
                "stateMutability": "view",
                "type": "function"
            },
            {
                "inputs": [
                    {
                        "internalType": "address[]",
                        "name": "tokenAddresses",
                        "type": "address[]"
                    }
                ],
                "name": "createTokenExchanges",
                "outputs": [],
                "stateMutability": "nonpayable",
                "type": "function"
            },
            {
                "inputs": [],
                "name": "enableFailTrigger",
                "outputs": [],
                "stateMutability": "payable",
                "type": "function"
            },
            {
                "inputs": [
                    {
                        "internalType": "bytes32",
                        "name": "reserveId",
                        "type": "bytes32"
                    },
                    {
                        "internalType": "address",
                        "name": "takerToken",
                        "type": "address"
                    },
                    {
                        "internalType": "address",
                        "name": "makerToken",
                        "type": "address"
                    }
                ],
                "name": "encodeKyberHint",
                "outputs": [
                    {
                        "internalType": "bytes",
                        "name": "hint",
                        "type": "bytes"
                    }
                ],
                "stateMutability": "view",
                "type": "function"
            },
            {
                "inputs": [],
                "name": "eth2Dai",
                "outputs": [
                    {
                        "internalType": "contract TestERC20BridgeSamplerEth2Dai",
                        "name": "",
                        "type": "address"
                    }
                ],
                "stateMutability": "view",
                "type": "function"
            },
            {
                "inputs": [
                    {
                        "components": [
                            {
                                "internalType": "address",
                                "name": "makerAddress",
                                "type": "address"
                            },
                            {
                                "internalType": "address",
                                "name": "takerAddress",
                                "type": "address"
                            },
                            {
                                "internalType": "address",
                                "name": "feeRecipientAddress",
                                "type": "address"
                            },
                            {
                                "internalType": "address",
                                "name": "senderAddress",
                                "type": "address"
                            },
                            {
                                "internalType": "uint256",
                                "name": "makerAssetAmount",
                                "type": "uint256"
                            },
                            {
                                "internalType": "uint256",
                                "name": "takerAssetAmount",
                                "type": "uint256"
                            },
                            {
                                "internalType": "uint256",
                                "name": "makerFee",
                                "type": "uint256"
                            },
                            {
                                "internalType": "uint256",
                                "name": "takerFee",
                                "type": "uint256"
                            },
                            {
                                "internalType": "uint256",
                                "name": "expirationTimeSeconds",
                                "type": "uint256"
                            },
                            {
                                "internalType": "uint256",
                                "name": "salt",
                                "type": "uint256"
                            },
                            {
                                "internalType": "bytes",
                                "name": "makerAssetData",
                                "type": "bytes"
                            },
                            {
                                "internalType": "bytes",
                                "name": "takerAssetData",
                                "type": "bytes"
                            },
                            {
                                "internalType": "bytes",
                                "name": "makerFeeAssetData",
                                "type": "bytes"
                            },
                            {
                                "internalType": "bytes",
                                "name": "takerFeeAssetData",
                                "type": "bytes"
                            }
                        ],
                        "internalType": "struct IExchange.Order[]",
                        "name": "orders",
                        "type": "tuple[]"
                    },
                    {
                        "internalType": "bytes[]",
                        "name": "orderSignatures",
                        "type": "bytes[]"
                    },
                    {
                        "internalType": "contract IExchange",
                        "name": "exchange",
                        "type": "address"
                    }
                ],
                "name": "getOrderFillableMakerAssetAmounts",
                "outputs": [
                    {
                        "internalType": "uint256[]",
                        "name": "orderFillableMakerAssetAmounts",
                        "type": "uint256[]"
                    }
                ],
                "stateMutability": "view",
                "type": "function"
            },
            {
                "inputs": [
                    {
                        "components": [
                            {
                                "internalType": "address",
                                "name": "makerAddress",
                                "type": "address"
                            },
                            {
                                "internalType": "address",
                                "name": "takerAddress",
                                "type": "address"
                            },
                            {
                                "internalType": "address",
                                "name": "feeRecipientAddress",
                                "type": "address"
                            },
                            {
                                "internalType": "address",
                                "name": "senderAddress",
                                "type": "address"
                            },
                            {
                                "internalType": "uint256",
                                "name": "makerAssetAmount",
                                "type": "uint256"
                            },
                            {
                                "internalType": "uint256",
                                "name": "takerAssetAmount",
                                "type": "uint256"
                            },
                            {
                                "internalType": "uint256",
                                "name": "makerFee",
                                "type": "uint256"
                            },
                            {
                                "internalType": "uint256",
                                "name": "takerFee",
                                "type": "uint256"
                            },
                            {
                                "internalType": "uint256",
                                "name": "expirationTimeSeconds",
                                "type": "uint256"
                            },
                            {
                                "internalType": "uint256",
                                "name": "salt",
                                "type": "uint256"
                            },
                            {
                                "internalType": "bytes",
                                "name": "makerAssetData",
                                "type": "bytes"
                            },
                            {
                                "internalType": "bytes",
                                "name": "takerAssetData",
                                "type": "bytes"
                            },
                            {
                                "internalType": "bytes",
                                "name": "makerFeeAssetData",
                                "type": "bytes"
                            },
                            {
                                "internalType": "bytes",
                                "name": "takerFeeAssetData",
                                "type": "bytes"
                            }
                        ],
                        "internalType": "struct IExchange.Order",
                        "name": "order",
                        "type": "tuple"
                    },
                    {
                        "internalType": "bytes",
                        "name": "",
                        "type": "bytes"
                    },
                    {
                        "internalType": "contract IExchange",
                        "name": "",
                        "type": "address"
                    }
                ],
                "name": "getOrderFillableTakerAmount",
                "outputs": [
                    {
                        "internalType": "uint256",
                        "name": "fillableTakerAmount",
                        "type": "uint256"
                    }
                ],
                "stateMutability": "view",
                "type": "function"
            },
            {
                "inputs": [
                    {
                        "components": [
                            {
                                "internalType": "address",
                                "name": "makerAddress",
                                "type": "address"
                            },
                            {
                                "internalType": "address",
                                "name": "takerAddress",
                                "type": "address"
                            },
                            {
                                "internalType": "address",
                                "name": "feeRecipientAddress",
                                "type": "address"
                            },
                            {
                                "internalType": "address",
                                "name": "senderAddress",
                                "type": "address"
                            },
                            {
                                "internalType": "uint256",
                                "name": "makerAssetAmount",
                                "type": "uint256"
                            },
                            {
                                "internalType": "uint256",
                                "name": "takerAssetAmount",
                                "type": "uint256"
                            },
                            {
                                "internalType": "uint256",
                                "name": "makerFee",
                                "type": "uint256"
                            },
                            {
                                "internalType": "uint256",
                                "name": "takerFee",
                                "type": "uint256"
                            },
                            {
                                "internalType": "uint256",
                                "name": "expirationTimeSeconds",
                                "type": "uint256"
                            },
                            {
                                "internalType": "uint256",
                                "name": "salt",
                                "type": "uint256"
                            },
                            {
                                "internalType": "bytes",
                                "name": "makerAssetData",
                                "type": "bytes"
                            },
                            {
                                "internalType": "bytes",
                                "name": "takerAssetData",
                                "type": "bytes"
                            },
                            {
                                "internalType": "bytes",
                                "name": "makerFeeAssetData",
                                "type": "bytes"
                            },
                            {
                                "internalType": "bytes",
                                "name": "takerFeeAssetData",
                                "type": "bytes"
                            }
                        ],
                        "internalType": "struct IExchange.Order[]",
                        "name": "orders",
                        "type": "tuple[]"
                    },
                    {
                        "internalType": "bytes[]",
                        "name": "orderSignatures",
                        "type": "bytes[]"
                    },
                    {
                        "internalType": "contract IExchange",
                        "name": "exchange",
                        "type": "address"
                    }
                ],
                "name": "getOrderFillableTakerAssetAmounts",
                "outputs": [
                    {
                        "internalType": "uint256[]",
                        "name": "orderFillableTakerAssetAmounts",
                        "type": "uint256[]"
                    }
                ],
                "stateMutability": "view",
                "type": "function"
            },
            {
                "inputs": [
                    {
                        "internalType": "address",
                        "name": "makerTokenAddress",
                        "type": "address"
                    },
                    {
                        "internalType": "address",
                        "name": "takerTokenAddress",
                        "type": "address"
                    }
                ],
                "name": "getTokenDecimals",
                "outputs": [
                    {
                        "internalType": "uint256",
                        "name": "",
                        "type": "uint256"
                    },
                    {
                        "internalType": "uint256",
                        "name": "",
                        "type": "uint256"
                    }
                ],
                "stateMutability": "view",
                "type": "function"
            },
            {
                "inputs": [],
                "name": "kyber",
                "outputs": [
                    {
                        "internalType": "contract TestERC20BridgeSamplerKyberNetwork",
                        "name": "",
                        "type": "address"
                    }
                ],
                "stateMutability": "view",
                "type": "function"
            },
            {
                "inputs": [
                    {
                        "internalType": "address",
                        "name": "poolAddress",
                        "type": "address"
                    },
                    {
                        "internalType": "address",
                        "name": "takerToken",
                        "type": "address"
                    },
                    {
                        "internalType": "address",
                        "name": "makerToken",
                        "type": "address"
                    },
                    {
                        "internalType": "uint256[]",
                        "name": "makerTokenAmounts",
                        "type": "uint256[]"
                    }
                ],
                "name": "sampleBuysFromBalancer",
                "outputs": [
                    {
                        "internalType": "uint256[]",
                        "name": "takerTokenAmounts",
                        "type": "uint256[]"
                    }
                ],
                "stateMutability": "view",
                "type": "function"
            },
            {
                "inputs": [
                    {
                        "internalType": "address[][]",
                        "name": "paths",
                        "type": "address[][]"
                    },
                    {
                        "internalType": "address",
                        "name": "takerToken",
                        "type": "address"
                    },
                    {
                        "internalType": "address",
                        "name": "makerToken",
                        "type": "address"
                    },
                    {
                        "internalType": "uint256[]",
                        "name": "makerTokenAmounts",
                        "type": "uint256[]"
                    }
                ],
                "name": "sampleBuysFromBancor",
                "outputs": [
                    {
                        "internalType": "address",
                        "name": "bancorNetwork",
                        "type": "address"
                    },
                    {
                        "internalType": "address[]",
                        "name": "path",
                        "type": "address[]"
                    },
                    {
                        "internalType": "uint256[]",
                        "name": "takerTokenAmounts",
                        "type": "uint256[]"
                    }
                ],
                "stateMutability": "view",
                "type": "function"
            },
            {
                "inputs": [
                    {
                        "components": [
                            {
                                "internalType": "address",
                                "name": "poolAddress",
                                "type": "address"
                            },
                            {
                                "internalType": "bytes4",
                                "name": "sellQuoteFunctionSelector",
                                "type": "bytes4"
                            },
                            {
                                "internalType": "bytes4",
                                "name": "buyQuoteFunctionSelector",
                                "type": "bytes4"
                            }
                        ],
                        "internalType": "struct CurveSampler.CurveInfo",
                        "name": "curveInfo",
                        "type": "tuple"
                    },
                    {
                        "internalType": "int128",
                        "name": "fromTokenIdx",
                        "type": "int128"
                    },
                    {
                        "internalType": "int128",
                        "name": "toTokenIdx",
                        "type": "int128"
                    },
                    {
                        "internalType": "uint256[]",
                        "name": "makerTokenAmounts",
                        "type": "uint256[]"
                    }
                ],
                "name": "sampleBuysFromCurve",
                "outputs": [
                    {
                        "internalType": "uint256[]",
                        "name": "takerTokenAmounts",
                        "type": "uint256[]"
                    }
                ],
                "stateMutability": "view",
                "type": "function"
            },
            {
                "inputs": [
                    {
                        "internalType": "address",
                        "name": "takerToken",
                        "type": "address"
                    },
                    {
                        "internalType": "address",
                        "name": "makerToken",
                        "type": "address"
                    },
                    {
                        "internalType": "uint256[]",
                        "name": "makerTokenAmounts",
                        "type": "uint256[]"
                    }
                ],
                "name": "sampleBuysFromDODO",
                "outputs": [
                    {
                        "internalType": "bool",
                        "name": "sellBase",
                        "type": "bool"
                    },
                    {
                        "internalType": "address",
                        "name": "pool",
                        "type": "address"
                    },
                    {
                        "internalType": "uint256[]",
                        "name": "takerTokenAmounts",
                        "type": "uint256[]"
                    }
                ],
                "stateMutability": "view",
                "type": "function"
            },
            {
                "inputs": [
                    {
                        "internalType": "address",
                        "name": "takerToken",
                        "type": "address"
                    },
                    {
                        "internalType": "address",
                        "name": "makerToken",
                        "type": "address"
                    },
                    {
                        "internalType": "uint256[]",
                        "name": "makerTokenAmounts",
                        "type": "uint256[]"
                    }
                ],
                "name": "sampleBuysFromEth2Dai",
                "outputs": [
                    {
                        "internalType": "uint256[]",
                        "name": "takerTokenAmounts",
                        "type": "uint256[]"
                    }
                ],
                "stateMutability": "view",
                "type": "function"
            },
            {
                "inputs": [
                    {
                        "internalType": "bytes32",
                        "name": "reserveId",
                        "type": "bytes32"
                    },
                    {
                        "internalType": "address",
                        "name": "takerToken",
                        "type": "address"
                    },
                    {
                        "internalType": "address",
                        "name": "makerToken",
                        "type": "address"
                    },
                    {
                        "internalType": "uint256[]",
                        "name": "makerTokenAmounts",
                        "type": "uint256[]"
                    }
                ],
                "name": "sampleBuysFromKyberNetwork",
                "outputs": [
                    {
                        "internalType": "bytes",
                        "name": "hint",
                        "type": "bytes"
                    },
                    {
                        "internalType": "uint256[]",
                        "name": "takerTokenAmounts",
                        "type": "uint256[]"
                    }
                ],
                "stateMutability": "view",
                "type": "function"
            },
            {
                "inputs": [
                    {
                        "internalType": "address",
                        "name": "providerAddress",
                        "type": "address"
                    },
                    {
                        "internalType": "address",
                        "name": "takerToken",
                        "type": "address"
                    },
                    {
                        "internalType": "address",
                        "name": "makerToken",
                        "type": "address"
                    },
                    {
                        "internalType": "uint256[]",
                        "name": "makerTokenAmounts",
                        "type": "uint256[]"
                    }
                ],
                "name": "sampleBuysFromLiquidityProvider",
                "outputs": [
                    {
                        "internalType": "uint256[]",
                        "name": "takerTokenAmounts",
                        "type": "uint256[]"
                    }
                ],
                "stateMutability": "view",
                "type": "function"
            },
            {
                "inputs": [
                    {
                        "internalType": "address",
                        "name": "takerToken",
                        "type": "address"
                    },
                    {
                        "internalType": "address",
                        "name": "makerToken",
                        "type": "address"
                    },
                    {
                        "internalType": "uint256[]",
                        "name": "makerTokenAmounts",
                        "type": "uint256[]"
                    }
                ],
                "name": "sampleBuysFromMStable",
                "outputs": [
                    {
                        "internalType": "uint256[]",
                        "name": "takerTokenAmounts",
                        "type": "uint256[]"
                    }
                ],
                "stateMutability": "view",
                "type": "function"
            },
            {
                "inputs": [
                    {
                        "internalType": "address",
                        "name": "takerToken",
                        "type": "address"
                    },
                    {
                        "internalType": "address",
                        "name": "makerToken",
                        "type": "address"
                    },
                    {
                        "internalType": "uint256[]",
                        "name": "makerTokenAmounts",
                        "type": "uint256[]"
                    }
                ],
                "name": "sampleBuysFromMooniswap",
                "outputs": [
                    {
                        "internalType": "contract IMooniswap",
                        "name": "pool",
                        "type": "address"
                    },
                    {
                        "internalType": "uint256[]",
                        "name": "takerTokenAmounts",
                        "type": "uint256[]"
                    }
                ],
                "stateMutability": "view",
                "type": "function"
            },
            {
                "inputs": [
                    {
                        "internalType": "address",
                        "name": "pool",
                        "type": "address"
                    },
                    {
                        "internalType": "address",
                        "name": "takerToken",
                        "type": "address"
                    },
                    {
                        "internalType": "address",
                        "name": "makerToken",
                        "type": "address"
                    },
                    {
                        "internalType": "uint256[]",
                        "name": "makerTokenAmounts",
                        "type": "uint256[]"
                    }
                ],
                "name": "sampleBuysFromShell",
                "outputs": [
                    {
                        "internalType": "uint256[]",
                        "name": "takerTokenAmounts",
                        "type": "uint256[]"
                    }
                ],
                "stateMutability": "view",
                "type": "function"
            },
            {
                "inputs": [
                    {
                        "internalType": "address",
                        "name": "router",
                        "type": "address"
                    },
                    {
                        "internalType": "address[]",
                        "name": "path",
                        "type": "address[]"
                    },
                    {
                        "internalType": "uint256[]",
                        "name": "makerTokenAmounts",
                        "type": "uint256[]"
                    }
                ],
                "name": "sampleBuysFromSushiSwap",
                "outputs": [
                    {
                        "internalType": "uint256[]",
                        "name": "takerTokenAmounts",
                        "type": "uint256[]"
                    }
                ],
                "stateMutability": "view",
                "type": "function"
            },
            {
                "inputs": [
                    {
                        "internalType": "address",
                        "name": "takerToken",
                        "type": "address"
                    },
                    {
                        "internalType": "address",
                        "name": "makerToken",
                        "type": "address"
                    },
                    {
                        "internalType": "uint256[]",
                        "name": "makerTokenAmounts",
                        "type": "uint256[]"
                    }
                ],
                "name": "sampleBuysFromUniswap",
                "outputs": [
                    {
                        "internalType": "uint256[]",
                        "name": "takerTokenAmounts",
                        "type": "uint256[]"
                    }
                ],
                "stateMutability": "view",
                "type": "function"
            },
            {
                "inputs": [
                    {
                        "internalType": "address[]",
                        "name": "path",
                        "type": "address[]"
                    },
                    {
                        "internalType": "uint256[]",
                        "name": "makerTokenAmounts",
                        "type": "uint256[]"
                    }
                ],
                "name": "sampleBuysFromUniswapV2",
                "outputs": [
                    {
                        "internalType": "uint256[]",
                        "name": "takerTokenAmounts",
                        "type": "uint256[]"
                    }
                ],
                "stateMutability": "view",
                "type": "function"
            },
            {
                "inputs": [
                    {
                        "internalType": "bytes",
                        "name": "hint",
                        "type": "bytes"
                    },
                    {
                        "internalType": "address",
                        "name": "takerToken",
                        "type": "address"
                    },
                    {
                        "internalType": "address",
                        "name": "makerToken",
                        "type": "address"
                    },
                    {
                        "internalType": "uint256",
                        "name": "takerTokenAmount",
                        "type": "uint256"
                    }
                ],
                "name": "sampleSellFromKyberNetwork",
                "outputs": [
                    {
                        "internalType": "uint256",
                        "name": "makerTokenAmount",
                        "type": "uint256"
                    }
                ],
                "stateMutability": "view",
                "type": "function"
            },
            {
                "inputs": [
                    {
                        "internalType": "address",
                        "name": "poolAddress",
                        "type": "address"
                    },
                    {
                        "internalType": "address",
                        "name": "takerToken",
                        "type": "address"
                    },
                    {
                        "internalType": "address",
                        "name": "makerToken",
                        "type": "address"
                    },
                    {
                        "internalType": "uint256[]",
                        "name": "takerTokenAmounts",
                        "type": "uint256[]"
                    }
                ],
                "name": "sampleSellsFromBalancer",
                "outputs": [
                    {
                        "internalType": "uint256[]",
                        "name": "makerTokenAmounts",
                        "type": "uint256[]"
                    }
                ],
                "stateMutability": "view",
                "type": "function"
            },
            {
                "inputs": [
                    {
                        "internalType": "address[][]",
                        "name": "paths",
                        "type": "address[][]"
                    },
                    {
                        "internalType": "address",
                        "name": "takerToken",
                        "type": "address"
                    },
                    {
                        "internalType": "address",
                        "name": "makerToken",
                        "type": "address"
                    },
                    {
                        "internalType": "uint256[]",
                        "name": "takerTokenAmounts",
                        "type": "uint256[]"
                    }
                ],
                "name": "sampleSellsFromBancor",
                "outputs": [
                    {
                        "internalType": "address",
                        "name": "bancorNetwork",
                        "type": "address"
                    },
                    {
                        "internalType": "address[]",
                        "name": "path",
                        "type": "address[]"
                    },
                    {
                        "internalType": "uint256[]",
                        "name": "makerTokenAmounts",
                        "type": "uint256[]"
                    }
                ],
                "stateMutability": "view",
                "type": "function"
            },
            {
                "inputs": [
                    {
                        "components": [
                            {
                                "internalType": "address",
                                "name": "poolAddress",
                                "type": "address"
                            },
                            {
                                "internalType": "bytes4",
                                "name": "sellQuoteFunctionSelector",
                                "type": "bytes4"
                            },
                            {
                                "internalType": "bytes4",
                                "name": "buyQuoteFunctionSelector",
                                "type": "bytes4"
                            }
                        ],
                        "internalType": "struct CurveSampler.CurveInfo",
                        "name": "curveInfo",
                        "type": "tuple"
                    },
                    {
                        "internalType": "int128",
                        "name": "fromTokenIdx",
                        "type": "int128"
                    },
                    {
                        "internalType": "int128",
                        "name": "toTokenIdx",
                        "type": "int128"
                    },
                    {
                        "internalType": "uint256[]",
                        "name": "takerTokenAmounts",
                        "type": "uint256[]"
                    }
                ],
                "name": "sampleSellsFromCurve",
                "outputs": [
                    {
                        "internalType": "uint256[]",
                        "name": "makerTokenAmounts",
                        "type": "uint256[]"
                    }
                ],
                "stateMutability": "view",
                "type": "function"
            },
            {
                "inputs": [
                    {
                        "internalType": "address",
                        "name": "takerToken",
                        "type": "address"
                    },
                    {
                        "internalType": "address",
                        "name": "makerToken",
                        "type": "address"
                    },
                    {
                        "internalType": "uint256[]",
                        "name": "takerTokenAmounts",
                        "type": "uint256[]"
                    }
                ],
                "name": "sampleSellsFromDODO",
                "outputs": [
                    {
                        "internalType": "bool",
                        "name": "sellBase",
                        "type": "bool"
                    },
                    {
                        "internalType": "address",
                        "name": "pool",
                        "type": "address"
                    },
                    {
                        "internalType": "uint256[]",
                        "name": "makerTokenAmounts",
                        "type": "uint256[]"
                    }
                ],
                "stateMutability": "view",
                "type": "function"
            },
            {
                "inputs": [
                    {
                        "internalType": "address",
                        "name": "takerToken",
                        "type": "address"
                    },
                    {
                        "internalType": "address",
                        "name": "makerToken",
                        "type": "address"
                    },
                    {
                        "internalType": "uint256[]",
                        "name": "takerTokenAmounts",
                        "type": "uint256[]"
                    }
                ],
                "name": "sampleSellsFromEth2Dai",
                "outputs": [
                    {
                        "internalType": "uint256[]",
                        "name": "makerTokenAmounts",
                        "type": "uint256[]"
                    }
                ],
                "stateMutability": "view",
                "type": "function"
            },
            {
                "inputs": [
                    {
                        "internalType": "bytes32",
                        "name": "reserveId",
                        "type": "bytes32"
                    },
                    {
                        "internalType": "address",
                        "name": "takerToken",
                        "type": "address"
                    },
                    {
                        "internalType": "address",
                        "name": "makerToken",
                        "type": "address"
                    },
                    {
                        "internalType": "uint256[]",
                        "name": "takerTokenAmounts",
                        "type": "uint256[]"
                    }
                ],
                "name": "sampleSellsFromKyberNetwork",
                "outputs": [
                    {
                        "internalType": "bytes",
                        "name": "hint",
                        "type": "bytes"
                    },
                    {
                        "internalType": "uint256[]",
                        "name": "makerTokenAmounts",
                        "type": "uint256[]"
                    }
                ],
                "stateMutability": "view",
                "type": "function"
            },
            {
                "inputs": [
                    {
                        "internalType": "address",
                        "name": "providerAddress",
                        "type": "address"
                    },
                    {
                        "internalType": "address",
                        "name": "takerToken",
                        "type": "address"
                    },
                    {
                        "internalType": "address",
                        "name": "makerToken",
                        "type": "address"
                    },
                    {
                        "internalType": "uint256[]",
                        "name": "takerTokenAmounts",
                        "type": "uint256[]"
                    }
                ],
                "name": "sampleSellsFromLiquidityProvider",
                "outputs": [
                    {
                        "internalType": "uint256[]",
                        "name": "makerTokenAmounts",
                        "type": "uint256[]"
                    }
                ],
                "stateMutability": "view",
                "type": "function"
            },
            {
                "inputs": [
                    {
                        "internalType": "address",
                        "name": "takerToken",
                        "type": "address"
                    },
                    {
                        "internalType": "address",
                        "name": "makerToken",
                        "type": "address"
                    },
                    {
                        "internalType": "uint256[]",
                        "name": "takerTokenAmounts",
                        "type": "uint256[]"
                    }
                ],
                "name": "sampleSellsFromMStable",
                "outputs": [
                    {
                        "internalType": "uint256[]",
                        "name": "makerTokenAmounts",
                        "type": "uint256[]"
                    }
                ],
                "stateMutability": "view",
                "type": "function"
            },
            {
                "inputs": [
                    {
                        "internalType": "address",
                        "name": "takerToken",
                        "type": "address"
                    },
                    {
                        "internalType": "address",
                        "name": "makerToken",
                        "type": "address"
                    },
                    {
                        "internalType": "uint256[]",
                        "name": "takerTokenAmounts",
                        "type": "uint256[]"
                    }
                ],
                "name": "sampleSellsFromMooniswap",
                "outputs": [
                    {
                        "internalType": "contract IMooniswap",
                        "name": "pool",
                        "type": "address"
                    },
                    {
                        "internalType": "uint256[]",
                        "name": "makerTokenAmounts",
                        "type": "uint256[]"
                    }
                ],
                "stateMutability": "view",
                "type": "function"
            },
            {
                "inputs": [
                    {
                        "internalType": "address",
                        "name": "multibridge",
                        "type": "address"
                    },
                    {
                        "internalType": "address",
                        "name": "takerToken",
                        "type": "address"
                    },
                    {
                        "internalType": "address",
                        "name": "intermediateToken",
                        "type": "address"
                    },
                    {
                        "internalType": "address",
                        "name": "makerToken",
                        "type": "address"
                    },
                    {
                        "internalType": "uint256[]",
                        "name": "takerTokenAmounts",
                        "type": "uint256[]"
                    }
                ],
                "name": "sampleSellsFromMultiBridge",
                "outputs": [
                    {
                        "internalType": "uint256[]",
                        "name": "makerTokenAmounts",
                        "type": "uint256[]"
                    }
                ],
                "stateMutability": "view",
                "type": "function"
            },
            {
                "inputs": [
                    {
                        "internalType": "address",
                        "name": "pool",
                        "type": "address"
                    },
                    {
                        "internalType": "address",
                        "name": "takerToken",
                        "type": "address"
                    },
                    {
                        "internalType": "address",
                        "name": "makerToken",
                        "type": "address"
                    },
                    {
                        "internalType": "uint256[]",
                        "name": "takerTokenAmounts",
                        "type": "uint256[]"
                    }
                ],
                "name": "sampleSellsFromShell",
                "outputs": [
                    {
                        "internalType": "uint256[]",
                        "name": "makerTokenAmounts",
                        "type": "uint256[]"
                    }
                ],
                "stateMutability": "view",
                "type": "function"
            },
            {
                "inputs": [
                    {
                        "internalType": "address",
                        "name": "router",
                        "type": "address"
                    },
                    {
                        "internalType": "address[]",
                        "name": "path",
                        "type": "address[]"
                    },
                    {
                        "internalType": "uint256[]",
                        "name": "takerTokenAmounts",
                        "type": "uint256[]"
                    }
                ],
                "name": "sampleSellsFromSushiSwap",
                "outputs": [
                    {
                        "internalType": "uint256[]",
                        "name": "makerTokenAmounts",
                        "type": "uint256[]"
                    }
                ],
                "stateMutability": "view",
                "type": "function"
            },
            {
                "inputs": [
                    {
                        "internalType": "address",
                        "name": "takerToken",
                        "type": "address"
                    },
                    {
                        "internalType": "address",
                        "name": "makerToken",
                        "type": "address"
                    },
                    {
                        "internalType": "uint256[]",
                        "name": "takerTokenAmounts",
                        "type": "uint256[]"
                    }
                ],
                "name": "sampleSellsFromUniswap",
                "outputs": [
                    {
                        "internalType": "uint256[]",
                        "name": "makerTokenAmounts",
                        "type": "uint256[]"
                    }
                ],
                "stateMutability": "view",
                "type": "function"
            },
            {
                "inputs": [
                    {
                        "internalType": "address[]",
                        "name": "path",
                        "type": "address[]"
                    },
                    {
                        "internalType": "uint256[]",
                        "name": "takerTokenAmounts",
                        "type": "uint256[]"
                    }
                ],
                "name": "sampleSellsFromUniswapV2",
                "outputs": [
                    {
                        "internalType": "uint256[]",
                        "name": "makerTokenAmounts",
                        "type": "uint256[]"
                    }
                ],
                "stateMutability": "view",
                "type": "function"
            },
            {
                "inputs": [
                    {
                        "internalType": "address",
                        "name": "mooniswapTakerToken",
                        "type": "address"
                    },
                    {
                        "internalType": "address",
                        "name": "mooniswapMakerToken",
                        "type": "address"
                    },
                    {
                        "internalType": "uint256",
                        "name": "takerTokenAmount",
                        "type": "uint256"
                    }
                ],
                "name": "sampleSingleSellFromMooniswapPool",
                "outputs": [
                    {
                        "internalType": "uint256",
                        "name": "",
                        "type": "uint256"
                    }
                ],
                "stateMutability": "view",
                "type": "function"
            },
            {
                "inputs": [
                    {
                        "internalType": "bytes[]",
                        "name": "firstHopCalls",
                        "type": "bytes[]"
                    },
                    {
                        "internalType": "bytes[]",
                        "name": "secondHopCalls",
                        "type": "bytes[]"
                    },
                    {
                        "internalType": "uint256",
                        "name": "buyAmount",
                        "type": "uint256"
                    }
                ],
                "name": "sampleTwoHopBuy",
                "outputs": [
                    {
                        "components": [
                            {
                                "internalType": "uint256",
                                "name": "sourceIndex",
                                "type": "uint256"
                            },
                            {
                                "internalType": "bytes",
                                "name": "returnData",
                                "type": "bytes"
                            }
                        ],
                        "internalType": "struct TwoHopSampler.HopInfo",
                        "name": "firstHop",
                        "type": "tuple"
                    },
                    {
                        "components": [
                            {
                                "internalType": "uint256",
                                "name": "sourceIndex",
                                "type": "uint256"
                            },
                            {
                                "internalType": "bytes",
                                "name": "returnData",
                                "type": "bytes"
                            }
                        ],
                        "internalType": "struct TwoHopSampler.HopInfo",
                        "name": "secondHop",
                        "type": "tuple"
                    },
                    {
                        "internalType": "uint256",
                        "name": "sellAmount",
                        "type": "uint256"
                    }
                ],
                "stateMutability": "view",
                "type": "function"
            },
            {
                "inputs": [
                    {
                        "internalType": "bytes[]",
                        "name": "firstHopCalls",
                        "type": "bytes[]"
                    },
                    {
                        "internalType": "bytes[]",
                        "name": "secondHopCalls",
                        "type": "bytes[]"
                    },
                    {
                        "internalType": "uint256",
                        "name": "sellAmount",
                        "type": "uint256"
                    }
                ],
                "name": "sampleTwoHopSell",
                "outputs": [
                    {
                        "components": [
                            {
                                "internalType": "uint256",
                                "name": "sourceIndex",
                                "type": "uint256"
                            },
                            {
                                "internalType": "bytes",
                                "name": "returnData",
                                "type": "bytes"
                            }
                        ],
                        "internalType": "struct TwoHopSampler.HopInfo",
                        "name": "firstHop",
                        "type": "tuple"
                    },
                    {
                        "components": [
                            {
                                "internalType": "uint256",
                                "name": "sourceIndex",
                                "type": "uint256"
                            },
                            {
                                "internalType": "bytes",
                                "name": "returnData",
                                "type": "bytes"
                            }
                        ],
                        "internalType": "struct TwoHopSampler.HopInfo",
                        "name": "secondHop",
                        "type": "tuple"
                    },
                    {
                        "internalType": "uint256",
                        "name": "buyAmount",
                        "type": "uint256"
                    }
                ],
                "stateMutability": "view",
                "type": "function"
            },
            {
                "inputs": [],
                "name": "uniswap",
                "outputs": [
                    {
                        "internalType": "contract TestERC20BridgeSamplerUniswapExchangeFactory",
                        "name": "",
                        "type": "address"
                    }
                ],
                "stateMutability": "view",
                "type": "function"
            },
            {
                "inputs": [],
                "name": "uniswapV2Router",
                "outputs": [
                    {
                        "internalType": "contract TestERC20BridgeSamplerUniswapV2Router01",
                        "name": "",
                        "type": "address"
                    }
                ],
                "stateMutability": "view",
                "type": "function"
            }
        ],
        "devdoc": {
            "kind": "dev",
            "methods": {
                "batchCall(bytes[])": {
                    "details": "Call multiple public functions on this contract in a single transaction.",
                    "params": {
                        "callDatas": "ABI-encoded call data for each function call."
                    },
                    "returns": {
                        "callResults": "ABI-encoded results data for each call."
                    }
                },
                "getOrderFillableMakerAssetAmounts((address,address,address,address,uint256,uint256,uint256,uint256,uint256,uint256,bytes,bytes,bytes,bytes)[],bytes[],address)": {
                    "details": "Queries the fillable taker asset amounts of native orders.      Effectively ignores orders that have empty signatures or",
                    "params": {
                        "exchange": "The V3 exchange.",
                        "orderSignatures": "Signatures for each respective order in `orders`.",
                        "orders": "Native orders to query."
                    },
                    "returns": {
                        "orderFillableMakerAssetAmounts": "How much maker asset can be filled         by each order in `orders`."
                    }
                },
                "getOrderFillableTakerAssetAmounts((address,address,address,address,uint256,uint256,uint256,uint256,uint256,uint256,bytes,bytes,bytes,bytes)[],bytes[],address)": {
                    "details": "Queries the fillable taker asset amounts of native orders.      Effectively ignores orders that have empty signatures or      maker/taker asset amounts (returning 0).",
                    "params": {
                        "exchange": "The V3 exchange.",
                        "orderSignatures": "Signatures for each respective order in `orders`.",
                        "orders": "Native orders to query."
                    },
                    "returns": {
                        "orderFillableTakerAssetAmounts": "How much taker asset can be filled         by each order in `orders`."
                    }
                },
                "sampleBuysFromBalancer(address,address,address,uint256[])": {
                    "details": "Sample buy quotes from Balancer.",
                    "params": {
                        "makerToken": "Address of the maker token (what to buy).",
                        "makerTokenAmounts": "Maker token buy amount for each sample.",
                        "poolAddress": "Address of the Balancer pool to query.",
                        "takerToken": "Address of the taker token (what to sell)."
                    },
                    "returns": {
                        "takerTokenAmounts": "Taker amounts sold at each maker token         amount."
                    }
                },
                "sampleBuysFromBancor(address[][],address,address,uint256[])": {
                    "details": "Sample buy quotes from Bancor. Unimplemented",
                    "params": {
                        "makerToken": "Address of the maker token (what to buy).",
                        "makerTokenAmounts": "Maker token buy amount for each sample.",
                        "paths": "The paths to check for Bancor. Only the best is used",
                        "takerToken": "Address of the taker token (what to sell)."
                    },
                    "returns": {
                        "bancorNetwork": "the Bancor Network address",
                        "path": "the selected conversion path from bancor",
                        "takerTokenAmounts": "Taker amounts sold at each maker token         amount."
                    }
                },
                "sampleBuysFromCurve((address,bytes4,bytes4),int128,int128,uint256[])": {
                    "details": "Sample buy quotes from Curve.",
                    "params": {
                        "curveInfo": "Curve information specific to this token pair.",
                        "fromTokenIdx": "Index of the taker token (what to sell).",
                        "makerTokenAmounts": "Maker token buy amount for each sample.",
                        "toTokenIdx": "Index of the maker token (what to buy)."
                    },
                    "returns": {
                        "takerTokenAmounts": "Taker amounts sold at each maker token         amount."
                    }
                },
                "sampleBuysFromDODO(address,address,uint256[])": {
                    "details": "Sample buy quotes from DODO.",
                    "params": {
                        "makerToken": "Address of the maker token (what to buy).",
                        "makerTokenAmounts": "Maker token sell amount for each sample.",
                        "takerToken": "Address of the taker token (what to sell)."
                    },
                    "returns": {
                        "pool": "the DODO pool address",
                        "sellBase": "whether the bridge needs to sell the base token",
                        "takerTokenAmounts": "Taker amounts sold at each maker token         amount."
                    }
                },
                "sampleBuysFromEth2Dai(address,address,uint256[])": {
                    "details": "Sample buy quotes from Eth2Dai/Oasis.",
                    "params": {
                        "makerToken": "Address of the maker token (what to buy).",
                        "takerToken": "Address of the taker token (what to sell).",
                        "takerTokenAmounts": "Maker token sell amount for each sample."
                    },
                    "returns": {
                        "takerTokenAmounts": "Taker amounts sold at each maker token         amount."
                    }
                },
                "sampleBuysFromKyberNetwork(bytes32,address,address,uint256[])": {
                    "details": "Sample buy quotes from Kyber.",
                    "params": {
                        "makerToken": "Address of the maker token (what to buy).",
                        "makerTokenAmounts": "Maker token buy amount for each sample.",
                        "reserveId": "The selected kyber reserve",
                        "takerToken": "Address of the taker token (what to sell)."
                    },
                    "returns": {
                        "hint": "The hint for the selected reserve",
                        "takerTokenAmounts": "Taker amounts sold at each maker token amount."
                    }
                },
                "sampleBuysFromLiquidityProvider(address,address,address,uint256[])": {
                    "details": "Sample buy quotes from an arbitrary on-chain liquidity provider.",
                    "params": {
                        "makerToken": "Address of the maker token (what to buy).",
                        "makerTokenAmounts": "Maker token buy amount for each sample.",
                        "providerAddress": "Address of the liquidity provider.",
                        "takerToken": "Address of the taker token (what to sell)."
                    },
                    "returns": {
                        "takerTokenAmounts": "Taker amounts sold at each maker token         amount."
                    }
                },
                "sampleBuysFromMStable(address,address,uint256[])": {
                    "details": "Sample buy quotes from MStable mUSD contract",
                    "params": {
                        "makerToken": "Address of the maker token (what to buy).",
                        "makerTokenAmounts": "Maker token buy amount for each sample.",
                        "takerToken": "Address of the taker token (what to sell)."
                    },
                    "returns": {
                        "takerTokenAmounts": "Taker amounts sold at each maker token         amount."
                    }
                },
                "sampleBuysFromMooniswap(address,address,uint256[])": {
                    "details": "Sample buy quotes from Mooniswap.",
                    "params": {
                        "makerToken": "Address of the maker token (what to buy).",
                        "makerTokenAmounts": "Maker token sell amount for each sample.",
                        "takerToken": "Address of the taker token (what to sell)."
                    },
                    "returns": {
                        "pool": "The contract address for the pool",
                        "takerTokenAmounts": "Taker amounts sold at each maker token         amount."
                    }
                },
                "sampleBuysFromShell(address,address,address,uint256[])": {
                    "details": "Sample buy quotes from Shell pool contract",
                    "params": {
                        "makerToken": "Address of the maker token (what to buy).",
                        "makerTokenAmounts": "Maker token buy amount for each sample.",
                        "pool": "Address of the Shell pool contract",
                        "takerToken": "Address of the taker token (what to sell)."
                    },
                    "returns": {
                        "takerTokenAmounts": "Taker amounts sold at each maker token         amount."
                    }
                },
                "sampleBuysFromSushiSwap(address,address[],uint256[])": {
                    "details": "Sample buy quotes from SushiSwap",
                    "params": {
                        "makerTokenAmounts": "Maker token buy amount for each sample.",
                        "path": "Token route. Should be takerToken -> makerToken.",
                        "router": "Router to look up tokens and amounts"
                    },
                    "returns": {
                        "takerTokenAmounts": "Taker amounts sold at each maker token         amount."
                    }
                },
                "sampleBuysFromUniswap(address,address,uint256[])": {
                    "details": "Sample buy quotes from Uniswap.",
                    "params": {
                        "makerToken": "Address of the maker token (what to buy).",
                        "makerTokenAmounts": "Maker token sell amount for each sample.",
                        "takerToken": "Address of the taker token (what to sell)."
                    },
                    "returns": {
                        "takerTokenAmounts": "Taker amounts sold at each maker token         amount."
                    }
                },
                "sampleBuysFromUniswapV2(address[],uint256[])": {
                    "details": "Sample buy quotes from UniswapV2.",
                    "params": {
                        "makerTokenAmounts": "Maker token buy amount for each sample.",
                        "path": "Token route. Should be takerToken -> makerToken."
                    },
                    "returns": {
                        "takerTokenAmounts": "Taker amounts sold at each maker token         amount."
                    }
                },
                "sampleSellsFromBalancer(address,address,address,uint256[])": {
                    "details": "Sample sell quotes from Balancer.",
                    "params": {
                        "makerToken": "Address of the maker token (what to buy).",
                        "poolAddress": "Address of the Balancer pool to query.",
                        "takerToken": "Address of the taker token (what to sell).",
                        "takerTokenAmounts": "Taker token sell amount for each sample."
                    },
                    "returns": {
                        "makerTokenAmounts": "Maker amounts bought at each taker token         amount."
                    }
                },
                "sampleSellsFromBancor(address[][],address,address,uint256[])": {
                    "details": "Sample sell quotes from Bancor.",
                    "params": {
                        "makerToken": "Address of the maker token (what to buy).",
                        "paths": "The paths to check for Bancor. Only the best is used",
                        "takerToken": "Address of the taker token (what to sell).",
                        "takerTokenAmounts": "Taker token sell amount for each sample."
                    },
                    "returns": {
                        "bancorNetwork": "the Bancor Network address",
                        "makerTokenAmounts": "Maker amounts bought at each taker token         amount.",
                        "path": "the selected conversion path from bancor"
                    }
                },
                "sampleSellsFromCurve((address,bytes4,bytes4),int128,int128,uint256[])": {
                    "details": "Sample sell quotes from Curve.",
                    "params": {
                        "curveInfo": "Curve information specific to this token pair.",
                        "fromTokenIdx": "Index of the taker token (what to sell).",
                        "takerTokenAmounts": "Taker token sell amount for each sample.",
                        "toTokenIdx": "Index of the maker token (what to buy)."
                    },
                    "returns": {
                        "makerTokenAmounts": "Maker amounts bought at each taker token         amount."
                    }
                },
                "sampleSellsFromDODO(address,address,uint256[])": {
                    "details": "Sample sell quotes from DODO.",
                    "params": {
                        "makerToken": "Address of the maker token (what to buy).",
                        "takerToken": "Address of the taker token (what to sell).",
                        "takerTokenAmounts": "Taker token sell amount for each sample."
                    },
                    "returns": {
                        "makerTokenAmounts": "Maker amounts bought at each taker token         amount.",
                        "pool": "the DODO pool address",
                        "sellBase": "whether the bridge needs to sell the base token"
                    }
                },
                "sampleSellsFromEth2Dai(address,address,uint256[])": {
                    "details": "Sample sell quotes from Eth2Dai/Oasis.",
                    "params": {
                        "makerToken": "Address of the maker token (what to buy).",
                        "takerToken": "Address of the taker token (what to sell).",
                        "takerTokenAmounts": "Taker token sell amount for each sample."
                    },
                    "returns": {
                        "makerTokenAmounts": "Maker amounts bought at each taker token         amount."
                    }
                },
                "sampleSellsFromKyberNetwork(bytes32,address,address,uint256[])": {
                    "details": "Sample sell quotes from Kyber.",
                    "params": {
                        "makerToken": "Address of the maker token (what to buy).",
                        "reserveId": "The selected kyber reserve",
                        "takerToken": "Address of the taker token (what to sell).",
                        "takerTokenAmounts": "Taker token sell amount for each sample."
                    },
                    "returns": {
                        "hint": "The hint for the selected reserve",
                        "makerTokenAmounts": "Maker amounts bought at each taker token amount."
                    }
                },
                "sampleSellsFromLiquidityProvider(address,address,address,uint256[])": {
                    "details": "Sample sell quotes from an arbitrary on-chain liquidity provider.",
                    "params": {
                        "makerToken": "Address of the maker token (what to buy).",
                        "providerAddress": "Address of the liquidity provider.",
                        "takerToken": "Address of the taker token (what to sell).",
                        "takerTokenAmounts": "Taker token sell amount for each sample."
                    },
                    "returns": {
                        "makerTokenAmounts": "Maker amounts bought at each taker token         amount."
                    }
                },
                "sampleSellsFromMStable(address,address,uint256[])": {
                    "details": "Sample sell quotes from the mStable mUSD contract",
                    "params": {
                        "makerToken": "Address of the maker token (what to buy).",
                        "takerToken": "Address of the taker token (what to sell).",
                        "takerTokenAmounts": "Taker token sell amount for each sample."
                    },
                    "returns": {
                        "makerTokenAmounts": "Maker amounts bought at each taker token         amount."
                    }
                },
                "sampleSellsFromMooniswap(address,address,uint256[])": {
                    "details": "Sample sell quotes from Mooniswap.",
                    "params": {
                        "makerToken": "Address of the maker token (what to buy).",
                        "takerToken": "Address of the taker token (what to sell).",
                        "takerTokenAmounts": "Taker token sell amount for each sample."
                    },
                    "returns": {
                        "makerTokenAmounts": "Maker amounts bought at each taker token         amount.",
                        "pool": "The contract address for the pool"
                    }
                },
                "sampleSellsFromMultiBridge(address,address,address,address,uint256[])": {
                    "details": "Sample sell quotes from MultiBridge.",
                    "params": {
                        "intermediateToken": "The address of the intermediate token to        use in an indirect route.",
                        "makerToken": "Address of the maker token (what to buy).",
                        "multibridge": "Address of the MultiBridge contract.",
                        "takerToken": "Address of the taker token (what to sell).",
                        "takerTokenAmounts": "Taker token sell amount for each sample."
                    },
                    "returns": {
                        "makerTokenAmounts": "Maker amounts bought at each taker token         amount."
                    }
                },
                "sampleSellsFromShell(address,address,address,uint256[])": {
                    "details": "Sample sell quotes from the Shell pool contract",
                    "params": {
                        "makerToken": "Address of the maker token (what to buy).",
                        "pool": "Address of the Shell pool contract",
                        "takerToken": "Address of the taker token (what to sell).",
                        "takerTokenAmounts": "Taker token sell amount for each sample."
                    },
                    "returns": {
                        "makerTokenAmounts": "Maker amounts bought at each taker token         amount."
                    }
                },
                "sampleSellsFromSushiSwap(address,address[],uint256[])": {
                    "details": "Sample sell quotes from SushiSwap.",
                    "params": {
                        "path": "Token route. Should be takerToken -> makerToken",
                        "router": "Router to look up tokens and amounts",
                        "takerTokenAmounts": "Taker token sell amount for each sample."
                    },
                    "returns": {
                        "makerTokenAmounts": "Maker amounts bought at each taker token         amount."
                    }
                },
                "sampleSellsFromUniswap(address,address,uint256[])": {
                    "details": "Sample sell quotes from Uniswap.",
                    "params": {
                        "makerToken": "Address of the maker token (what to buy).",
                        "takerToken": "Address of the taker token (what to sell).",
                        "takerTokenAmounts": "Taker token sell amount for each sample."
                    },
                    "returns": {
                        "makerTokenAmounts": "Maker amounts bought at each taker token         amount."
                    }
                },
                "sampleSellsFromUniswapV2(address[],uint256[])": {
                    "details": "Sample sell quotes from UniswapV2.",
                    "params": {
                        "path": "Token route. Should be takerToken -> makerToken",
                        "takerTokenAmounts": "Taker token sell amount for each sample."
                    },
                    "returns": {
                        "makerTokenAmounts": "Maker amounts bought at each taker token         amount."
                    }
                }
            },
            "version": 1
        },
        "evm": {
            "bytecode": {
                "linkReferences": {},
                "object": "0x60806040523480156200001157600080fd5b50604051620000209062000148565b604051809103906000f0801580156200003d573d6000803e3d6000fd5b50600080546001600160a01b0319166001600160a01b03929092169190911790556040516200006c9062000156565b604051809103906000f08015801562000089573d6000803e3d6000fd5b50600180546001600160a01b0319166001600160a01b0392909216919091179055604051620000b89062000164565b604051809103906000f080158015620000d5573d6000803e3d6000fd5b50600280546001600160a01b0319166001600160a01b0392909216919091179055604051620001049062000172565b604051809103906000f08015801562000121573d6000803e3d6000fd5b50600380546001600160a01b0319166001600160a01b039290921691909117905562000180565b6108d0806200783183390190565b61088d806200810183390190565b61050e806200898e83390190565b6109478062008e9c83390190565b6176a180620001906000396000f3fe6080604052600436106102e75760003560e01c8063742bd05011610184578063ca7893ba116100d6578063e68248f71161008a578063fc9fe41b11610064578063fc9fe41b1461085d578063fcb5c43c1461087d578063fea12a03146108ab576102e7565b8063e68248f7146107fd578063e8e4af091461081d578063e9a8e4421461083d576102e7565b8063cdb3b4af116100bb578063cdb3b4af1461079d578063cf879d7e146107bd578063d442057b146107dd576102e7565b8063ca7893ba14610768578063cd72d78914610788576102e7565b8063a469841711610138578063bccc34c611610112578063bccc34c6146106ec578063be5b12b414610719578063c25c413814610748576102e7565b8063a46984171461068c578063abffc761146106ac578063bc61a695146106cc576102e7565b80639209483b116101695780639209483b146106375780639877774814610657578063a2d10ba514610677576102e7565b8063742bd050146105e85780638e5a0e0714610608576102e7565b806340bc03ae1161023d57806364ee6ade116101f15780636db8658f116101cb5780636db8658f146105885780636dd6b78d146105a857806370bba11a146105c8576102e7565b806364ee6ade1461050d57806367b881e71461052d57806368be3cf21461055b576102e7565b806357494b1d1161022257806357494b1d146104ad5780635d5b674f146104cd57806360ee052a146104ed576102e7565b806340bc03ae1461046d5780634703a7e61461048d576102e7565b80632681f7e41161029f5780633126865711610279578063312686571461040d57806339b085ad1461042d5780633b77ebae1461044d576102e7565b80632681f7e41461039d5780632ca854f3146103b25780632d753aa4146103e0576102e7565b806311f2928b116102d057806311f2928b1461034457806315e42a611461034e5780631694505e1461037b576102e7565b80630b054f8d146102ec5780630fe3fe5b14610324575b600080fd5b3480156102f857600080fd5b5061030c610307366004616586565b6108c0565b60405161031b93929190616e71565b60405180910390f35b34801561033057600080fd5b5061030c61033f366004616586565b610b1a565b61034c610b29565b005b34801561035a57600080fd5b5061036e610369366004616929565b610b6c565b60405161031b919061713b565b34801561038757600080fd5b50610390610d51565b60405161031b9190616cc7565b3480156103a957600080fd5b50610390610d6d565b3480156103be57600080fd5b506103d26103cd3660046168cf565b610d89565b60405161031b9291906171c6565b3480156103ec57600080fd5b506104006103fb3660046162ed565b610f5e565b60405161031b91906170f1565b34801561041957600080fd5b5061034c6104283660046164ef565b611130565b34801561043957600080fd5b506104006104483660046166bb565b6111be565b34801561045957600080fd5b5061036e610468366004616ac6565b61133f565b34801561047957600080fd5b50610400610488366004616a2a565b611387565b34801561049957600080fd5b506104006104a83660046163e6565b611535565b3480156104b957600080fd5b506104006104c8366004616373565b61169b565b3480156104d957600080fd5b506104006104e8366004616373565b611cd6565b3480156104f957600080fd5b506104006105083660046163e6565b611e23565b34801561051957600080fd5b506104006105283660046163e6565b6120a0565b34801561053957600080fd5b5061054d6105483660046163e6565b6121f1565b60405161031b9291906171eb565b34801561056757600080fd5b5061057b6105763660046164ef565b6123d8565b60405161031b9190617073565b34801561059457600080fd5b5061036e6105a3366004616446565b61250a565b3480156105b457600080fd5b506104006105c33660046163e6565b6127a7565b3480156105d457600080fd5b506104006105e3366004616486565b612a0c565b3480156105f457600080fd5b50610400610603366004616486565b612b67565b34801561061457600080fd5b50610628610623366004616651565b612cbf565b60405161031b9392919061730f565b34801561064357600080fd5b50610400610652366004616a2a565b612eee565b34801561066357600080fd5b50610400610672366004616373565b613129565b34801561068357600080fd5b5061039061373d565b34801561069857600080fd5b506104006106a7366004616373565b613759565b3480156106b857600080fd5b506104006106c736600461652f565b61389a565b3480156106d857600080fd5b506104006106e73660046163e6565b613a10565b3480156106f857600080fd5b5061070c610707366004616899565b613b5f565b60405161031b9190617170565b34801561072557600080fd5b506107396107343660046163e6565b613e98565b60405161031b93929190617104565b34801561075457600080fd5b50610400610763366004616373565b61419b565b34801561077457600080fd5b506104006107833660046163e6565b614201565b34801561079457600080fd5b50610390614267565b3480156107a957600080fd5b5061054d6107b83660046163e6565b61427f565b3480156107c957600080fd5b506103d26107d83660046168cf565b6143c3565b3480156107e957600080fd5b506107396107f83660046163e6565b6144d9565b34801561080957600080fd5b5061040061081836600461652f565b6147a6565b34801561082957600080fd5b50610400610838366004616373565b614905565b34801561084957600080fd5b506104006108583660046166bb565b614a46565b34801561086957600080fd5b50610628610878366004616651565b614ae9565b34801561088957600080fd5b5061089d6108983660046162c0565b614d50565b60405161031b9291906174bf565b3480156108b757600080fd5b50610390614d7f565b60006060806108cd614d9b565b92508651600014156108de57610b10565b6000805b88518110156109f45760028982815181106108f957fe5b602002602001015151101561090d576109ec565b8473ffffffffffffffffffffffffffffffffffffffff16637f9c0ecd620493e08b848151811061093957fe5b60200260200101518960018b51038151811061095157fe5b60200260200101516040518463ffffffff1660e01b8152600401610976929190617051565b60206040518083038187803b15801561098e57600080fd5b5086fa935050505080156109bf575060408051601f3d908101601f191682019092526109bc91810190616881565b60015b6109c8576109ec565b828111156109ea578092508982815181106109df57fe5b602002602001015194505b505b6001016108e2565b5084518067ffffffffffffffff81118015610a0e57600080fd5b50604051908082528060200260200182016040528015610a38578160200160208202803683370190505b50925060005b81811015610b0c578573ffffffffffffffffffffffffffffffffffffffff16637f9c0ecd620493e0878a8581518110610a7357fe5b60200260200101516040518463ffffffff1660e01b8152600401610a98929190617051565b60206040518083038187803b158015610ab057600080fd5b5086fa93505050508015610ae1575060408051601f3d908101601f19168201909252610ade91810190616881565b60015b610aea57610b0c565b80858381518110610af757fe5b60200260200101818152505050600101610a3e565b5050505b9450945094915050565b60006060809450945094915050565b60405173e9db8717bc5dfb20aaf538b4a5a02b7791ff430c903480156108fc02916000818181858888f19350505050158015610b69573d6000803e3d6000fd5b50565b6000845160001415610b8057506000610d49565b610b88614eb4565b73ffffffffffffffffffffffffffffffffffffffff1663418436bc6207a120610baf614ed0565b73ffffffffffffffffffffffffffffffffffffffff168773ffffffffffffffffffffffffffffffffffffffff1614610be75786610bfd565b73eeeeeeeeeeeeeeeeeeeeeeeeeeeeeeeeeeeeeeee5b610c05614ed0565b73ffffffffffffffffffffffffffffffffffffffff168773ffffffffffffffffffffffffffffffffffffffff1614610c3d5786610c53565b73eeeeeeeeeeeeeeeeeeeeeeeeeeeeeeeeeeeeeeee5b8660008b6040518763ffffffff1660e01b8152600401610c77959493929190616e21565b60206040518083038187803b158015610c8f57600080fd5b5086fa93505050508015610cc0575060408051601f3d908101601f19168201909252610cbd91810190616881565b60015b610cfe573d808015610cee576040519150601f19603f3d011682016040523d82523d6000602084013e610cf3565b606091505b506000915050610d49565b6000610d0985614ee8565b60ff1690506000610d1987614ee8565b60ff169050670de0b6b3a764000081600a0a83600a0a8786020281610d3a57fe5b0481610d4257fe5b0493505050505b949350505050565b60015473ffffffffffffffffffffffffffffffffffffffff1681565b60005473ffffffffffffffffffffffffffffffffffffffff1681565b606080610d968486614efb565b82518067ffffffffffffffff81118015610daf57600080fd5b50604051908082528060200260200182016040528015610dd9578160200160208202803683370190505b506040517fbccc34c6000000000000000000000000000000000000000000000000000000008152909250309063bccc34c690610e1d908a908a908a90600401617144565b60006040518083038186803b158015610e3557600080fd5b505afa158015610e49573d6000803e3d6000fd5b505050506040513d6000823e601f3d908101601f19168201604052610e7191908101906168f6565b925060005b81811015610f525760003073ffffffffffffffffffffffffffffffffffffffff166315e42a61868a8a8a8781518110610eab57fe5b60200260200101516040518563ffffffff1660e01b8152600401610ed29493929190617183565b60206040518083038186803b158015610eea57600080fd5b505afa158015610efe573d6000803e3d6000fd5b505050506040513d601f19601f82011682018060405250810190610f229190616881565b905080610f3157505050610f55565b80848381518110610f3e57fe5b602090810291909101015250600101610e76565b50505b94509492505050565b80516060908067ffffffffffffffff81118015610f7a57600080fd5b50604051908082528060200260200182016040528015610fa4578160200160208202803683370190505b50915073ffffffffffffffffffffffffffffffffffffffff8716610fc85750611127565b60005b8181101561112457600060608973ffffffffffffffffffffffffffffffffffffffff1662061a80636e79e13360e01b8b8b8b8b898151811061100957fe5b60200260200101516040516024016110249493929190616d80565b60408051601f198184030181529181526020820180517bffffffffffffffffffffffffffffffffffffffffffffffffffffffff167fffffffff0000000000000000000000000000000000000000000000000000000090941693909317909252905161108f9190616cab565b6000604051808303818686fa925050503d80600081146110cb576040519150601f19603f3d011682016040523d82523d6000602084013e6110d0565b606091505b5091509150600082156110f457818060200190518101906110f19190616881565b90505b8061110157505050611124565b8086858151811061110e57fe5b6020908102919091010152505050600101610fcb565b50505b95945050505050565b6000546040517f3126865700000000000000000000000000000000000000000000000000000000815273ffffffffffffffffffffffffffffffffffffffff909116906331268657906111889085908590600401616ff6565b600060405180830381600087803b1580156111a257600080fd5b505af11580156111b6573d6000803e3d6000fd5b505050505050565b6060835167ffffffffffffffff811180156111d857600080fd5b50604051908082528060200260200182016040528015611202578160200160208202803683370190505b50905060005b84518114611337573073ffffffffffffffffffffffffffffffffffffffff16633b77ebae62030d4087848151811061123c57fe5b602002602001015187858151811061125057fe5b6020026020010151876040518563ffffffff1660e01b815260040161127793929190617345565b60206040518083038187803b15801561128f57600080fd5b5086fa935050505080156112c0575060408051601f3d908101601f191682019092526112bd91810190616881565b60015b611314573d8080156112ee576040519150601f19603f3d011682016040523d82523d6000602084013e6112f3565b606091505b50600083838151811061130257fe5b6020026020010181815250505061132f565b8083838151811061132157fe5b602002602001018181525050505b600101611208565b509392505050565b60008360a0015184610120015160405160200161135c919061713b565b6040516020818303038152906040528051906020012060001c8161137c57fe5b0690505b9392505050565b80516060908067ffffffffffffffff811180156113a357600080fd5b506040519080825280602002602001820160405280156113cd578160200160208202803683370190505b50915060005b8181101561152b5760006060886000015173ffffffffffffffffffffffffffffffffffffffff16621e84808a602001518a8a8a888151811061141157fe5b602002602001015160405160240161142b9392919061724a565b60408051601f198184030181529181526020820180517bffffffffffffffffffffffffffffffffffffffffffffffffffffffff167fffffffff000000000000000000000000000000000000000000000000000000009094169390931790925290516114969190616cab565b6000604051808303818686fa925050503d80600081146114d2576040519150601f19603f3d011682016040523d82523d6000602084013e6114d7565b606091505b5091509150600082156114fb57818060200190518101906114f89190616881565b90505b806115085750505061152b565b8086858151811061151557fe5b60209081029190910101525050506001016113d3565b5050949350505050565b60606115418385614efb565b81518067ffffffffffffffff8111801561155a57600080fd5b50604051908082528060200260200182016040528015611584578160200160208202803683370190505b50915060005b818110156116925761159a614f6e565b73ffffffffffffffffffffffffffffffffffffffff1663ff1fd974620f424088888886815181106115c757fe5b60200260200101516040518563ffffffff1660e01b81526004016115ed93929190616df0565b60206040518083038187803b15801561160557600080fd5b5086fa93505050508015611636575060408051601f3d908101601f1916820190925261163391810190616881565b60015b611670573d808015611664576040519150601f19603f3d011682016040523d82523d6000602084013e611669565b606091505b5050611692565b8084838151811061167d57fe5b6020026020010181815250505060010161158a565b50509392505050565b805160609085908067ffffffffffffffff811180156116b957600080fd5b506040519080825280602002602001820160405280156116e3578160200160208202803683370190505b506040517f2f37b62400000000000000000000000000000000000000000000000000000000815290935073ffffffffffffffffffffffffffffffffffffffff831690632f37b62490611739908990600401616cc7565b60206040518083038186803b15801561175157600080fd5b505afa158015611765573d6000803e3d6000fd5b505050506040513d601f19601f82011682018060405250810190611789919061680d565b158061183457506040517f2f37b62400000000000000000000000000000000000000000000000000000000815273ffffffffffffffffffffffffffffffffffffffff831690632f37b624906117e2908890600401616cc7565b60206040518083038186803b1580156117fa57600080fd5b505afa15801561180e573d6000803e3d6000fd5b505050506040513d601f19601f82011682018060405250810190611832919061680d565b155b15611840575050610d49565b611848615e0a565b6040517ff8b2cb4f00000000000000000000000000000000000000000000000000000000815273ffffffffffffffffffffffffffffffffffffffff84169063f8b2cb4f9061189a908a90600401616cc7565b60206040518083038186803b1580156118b257600080fd5b505afa1580156118c6573d6000803e3d6000fd5b505050506040513d601f19601f820116820180604052508101906118ea9190616881565b81526040517ff8b2cb4f00000000000000000000000000000000000000000000000000000000815273ffffffffffffffffffffffffffffffffffffffff84169063f8b2cb4f9061193e908990600401616cc7565b60206040518083038186803b15801561195657600080fd5b505afa15801561196a573d6000803e3d6000fd5b505050506040513d601f19601f8201168201806040525081019061198e9190616881565b60208201526040517f948d8ce600000000000000000000000000000000000000000000000000000000815273ffffffffffffffffffffffffffffffffffffffff84169063948d8ce6906119e5908a90600401616cc7565b60206040518083038186803b1580156119fd57600080fd5b505afa158015611a11573d6000803e3d6000fd5b505050506040513d601f19601f82011682018060405250810190611a359190616881565b604080830191909152517f948d8ce600000000000000000000000000000000000000000000000000000000815273ffffffffffffffffffffffffffffffffffffffff84169063948d8ce690611a8e908990600401616cc7565b60206040518083038186803b158015611aa657600080fd5b505afa158015611aba573d6000803e3d6000fd5b505050506040513d601f19601f82011682018060405250810190611ade9190616881565b8160600181815250508273ffffffffffffffffffffffffffffffffffffffff1663d4cadf686040518163ffffffff1660e01b815260040160206040518083038186803b158015611b2d57600080fd5b505afa158015611b41573d6000803e3d6000fd5b505050506040513d601f19601f82011682018060405250810190611b659190616881565b608082015260005b82811015611cca57611b9882602001516003670de0b6b3a764000081611b8f57fe5b04600101614f8a565b868281518110611ba457fe5b60200260200101511115611bb757611cca565b8373ffffffffffffffffffffffffffffffffffffffff1663f8d6aed4620493e084600001518560400151866020015187606001518c8881518110611bf757fe5b602002602001015189608001516040518863ffffffff1660e01b8152600401611c25969594939291906174cd565b60206040518083038187803b158015611c3d57600080fd5b5086fa93505050508015611c6e575060408051601f3d908101601f19168201909252611c6b91810190616881565b60015b611ca8573d808015611c9c576040519150601f19603f3d011682016040523d82523d6000602084013e611ca1565b606091505b5050611cca565b80868381518110611cb557fe5b60200260200101818152505050600101611b6d565b50505050949350505050565b80516060908067ffffffffffffffff81118015611cf257600080fd5b50604051908082528060200260200182016040528015611d1c578160200160208202803683370190505b50915060005b8181101561152b578673ffffffffffffffffffffffffffffffffffffffff1663525d0da7620493e08888888681518110611d5857fe5b60200260200101516040518563ffffffff1660e01b8152600401611d7e93929190616df0565b60206040518083038187803b158015611d9657600080fd5b5086fa93505050508015611dc7575060408051601f3d908101601f19168201909252611dc491810190616881565b60015b611e01573d808015611df5576040519150601f19603f3d011682016040523d82523d6000602084013e611dfa565b606091505b505061152b565b80848381518110611e0e57fe5b60200260200101818152505050600101611d22565b6060611e2f8385614efb565b81518067ffffffffffffffff81118015611e4857600080fd5b50604051908082528060200260200182016040528015611e72578160200160208202803683370190505b5091506000611e7f614ed0565b73ffffffffffffffffffffffffffffffffffffffff168673ffffffffffffffffffffffffffffffffffffffff1614611ebf57611eba86614fe9565b611ec2565b60005b90506000611ece614ed0565b73ffffffffffffffffffffffffffffffffffffffff168673ffffffffffffffffffffffffffffffffffffffff1614611f0e57611f0986614fe9565b611f11565b60005b905060005b83811015612095576001611f28614ed0565b73ffffffffffffffffffffffffffffffffffffffff168873ffffffffffffffffffffffffffffffffffffffff161415611fa157611f8084632640f62c60e01b898581518110611f7357fe5b602002602001015161507b565b878481518110611f8c57fe5b60200260200101819350828152505050612081565b611fa9614ed0565b73ffffffffffffffffffffffffffffffffffffffff168973ffffffffffffffffffffffffffffffffffffffff161415611ff457611f80836359e9486260e01b898581518110611f7357fe5b600061200e846359e9486260e01b8a8681518110611f7357fe5b92509050801561206457612043857f2640f62c000000000000000000000000000000000000000000000000000000008361507b565b88858151811061204f57fe5b6020026020010181945082815250505061207f565b600087848151811061207257fe5b6020026020010181815250505b505b8061208c5750612095565b50600101611f16565b505050509392505050565b60606120ac8385614efb565b81518067ffffffffffffffff811180156120c557600080fd5b506040519080825280602002602001820160405280156120ef578160200160208202803683370190505b50915060005b8181101561169257612105614f6e565b73ffffffffffffffffffffffffffffffffffffffff1663144a2752620f4240878988868151811061213257fe5b60200260200101516040518563ffffffff1660e01b815260040161215893929190616df0565b60206040518083038187803b15801561217057600080fd5b5086fa935050505080156121a1575060408051601f3d908101601f1916820190925261219e91810190616881565b60015b6121cf573d808015611664576040519150601f19603f3d011682016040523d82523d6000602084013e611669565b808483815181106121dc57fe5b602002602001018181525050506001016120f5565b600060606121ff8486614efb565b82518067ffffffffffffffff8111801561221857600080fd5b50604051908082528060200260200182016040528015612242578160200160208202803683370190505b509150600061224f614ed0565b73ffffffffffffffffffffffffffffffffffffffff168773ffffffffffffffffffffffffffffffffffffffff1614612287578661228a565b60005b90506000612296614ed0565b73ffffffffffffffffffffffffffffffffffffffff168773ffffffffffffffffffffffffffffffffffffffff16146122ce57866122d1565b60005b90506123376040518060600160405280836040516020016122f29190616cc7565b6040516020818303038152906040528152602001846040516020016123179190616cc7565b60405160208183030381529060405281526020016151a6815250876151ec565b93506123416153ea565b73ffffffffffffffffffffffffffffffffffffffff1663901754d783836040518363ffffffff1660e01b815260040161237b929190616ce8565b60206040518083038186803b15801561239357600080fd5b505afa1580156123a7573d6000803e3d6000fd5b505050506040513d601f19601f820116820180604052508101906123cb91906161d0565b9450505050935093915050565b60608167ffffffffffffffff811180156123f157600080fd5b5060405190808252806020026020018201604052801561242557816020015b60608152602001906001900390816124105790505b50905060005b8083146125035783838281811061243e57fe5b905060200281019061245091906174f5565b1515905061245d576124fb565b600060603086868581811061246e57fe5b905060200281019061248091906174f5565b60405161248e929190616c9b565b600060405180830381855afa9150503d80600081146124c9576040519150601f19603f3d011682016040523d82523d6000602084013e6124ce565b606091505b5091509150816124e057805160208201fd5b808484815181106124ed57fe5b602002602001018190525050505b60010161242b565b5092915050565b6000806125156153ea565b73ffffffffffffffffffffffffffffffffffffffff1663901754d786866040518363ffffffff1660e01b815260040161254f929190616ce8565b60206040518083038186803b15801561256757600080fd5b505afa15801561257b573d6000803e3d6000fd5b505050506040513d601f19601f8201168201806040525081019061259f91906161d0565b905073ffffffffffffffffffffffffffffffffffffffff81166125c6576000915050611380565b600073ffffffffffffffffffffffffffffffffffffffff86161561268b576040517f70a0823100000000000000000000000000000000000000000000000000000000815273ffffffffffffffffffffffffffffffffffffffff8716906370a0823190612636908590600401616cc7565b60206040518083038186803b15801561264e57600080fd5b505afa158015612662573d6000803e3d6000fd5b505050506040513d601f19601f820116820180604052508101906126869190616881565b6126a4565b8173ffffffffffffffffffffffffffffffffffffffff16315b9050838110156126b957600092505050611380565b6040517f1e1401f800000000000000000000000000000000000000000000000000000000815273ffffffffffffffffffffffffffffffffffffffff831690631e1401f890620249f090612714908a908a908a90600401616df0565b60206040518083038187803b15801561272c57600080fd5b5086fa9350505050801561275d575060408051601f3d908101601f1916820190925261275a91810190616881565b60015b61279d573d80801561278b576040519150601f19603f3d011682016040523d82523d6000602084013e612790565b606091505b5060009350505050611380565b9250611380915050565b60606127b38385614efb565b81518067ffffffffffffffff811180156127cc57600080fd5b506040519080825280602002602001820160405280156127f6578160200160208202803683370190505b5091506000612803614ed0565b73ffffffffffffffffffffffffffffffffffffffff168673ffffffffffffffffffffffffffffffffffffffff16146128435761283e86614fe9565b612846565b60005b90506000612852614ed0565b73ffffffffffffffffffffffffffffffffffffffff168673ffffffffffffffffffffffffffffffffffffffff16146128925761288d86614fe9565b612895565b60005b905060005b838110156120955760016128ac614ed0565b73ffffffffffffffffffffffffffffffffffffffff168873ffffffffffffffffffffffffffffffffffffffff161415612918576128f7846395b68fe760e01b898581518110611f7357fe5b87848151811061290357fe5b602002602001018193508281525050506129f8565b612920614ed0565b73ffffffffffffffffffffffffffffffffffffffff168973ffffffffffffffffffffffffffffffffffffffff16141561296b576128f78363cd7724c360e01b898581518110611f7357fe5b6000612985856395b68fe760e01b8a8681518110611f7357fe5b9250905080156129db576129ba847fcd7724c3000000000000000000000000000000000000000000000000000000008361507b565b8885815181106129c657fe5b602002602001018194508281525050506129f6565b60008784815181106129e957fe5b6020026020010181815250505b505b80612a035750612095565b5060010161289a565b80516060908067ffffffffffffffff81118015612a2857600080fd5b50604051908082528060200260200182016040528015612a52578160200160208202803683370190505b50915060005b81811015611692578573ffffffffffffffffffffffffffffffffffffffff1663d06ca61f620249f0868481518110612a8c57fe5b6020026020010151886040518463ffffffff1660e01b8152600401612ab29291906174a6565b60006040518083038187803b158015612aca57600080fd5b5086fa93505050508015612b0057506040513d6000823e601f3d908101601f19168201604052612afd919081019061677d565b60015b612b2e573d808015611664576040519150601f19603f3d011682016040523d82523d6000602084013e611669565b80600187510381518110612b3e57fe5b6020026020010151848381518110612b5257fe5b60200260200101818152505050600101612a58565b80516060908067ffffffffffffffff81118015612b8357600080fd5b50604051908082528060200260200182016040528015612bad578160200160208202803683370190505b50915060005b81811015611692578573ffffffffffffffffffffffffffffffffffffffff16631f00ca74620249f0868481518110612be757fe5b6020026020010151886040518463ffffffff1660e01b8152600401612c0d9291906174a6565b60006040518083038187803b158015612c2557600080fd5b5086fa93505050508015612c5b57506040513d6000823e601f3d908101601f19168201604052612c58919081019061677d565b60015b612c89573d808015611664576040519150601f19603f3d011682016040523d82523d6000602084013e611669565b80600081518110612c9657fe5b6020026020010151848381518110612caa57fe5b60200260200101818152505050600101612bb3565b612cc7615e39565b612ccf615e39565b600080805b87518114612ddf57612d1b6020898381518110612ced57fe5b60200260200101515103878a8481518110612d0457fe5b60200260200101516154029092919063ffffffff16565b600060603073ffffffffffffffffffffffffffffffffffffffff168a8481518110612d4257fe5b6020026020010151604051612d579190616cab565b600060405180830381855afa9150503d8060008114612d92576040519150601f19603f3d011682016040523d82523d6000602084013e612d97565b606091505b50915091508115612dd5576000612dbb60208351038361541290919063ffffffff16565b905084811115612dd357838852602088018290529350835b505b5050600101612cd4565b5080612deb5750612ee5565b60005b86518114612ee257612e1e6020888381518110612e0757fe5b6020026020010151510383898481518110612d0457fe5b600060603073ffffffffffffffffffffffffffffffffffffffff16898481518110612e4557fe5b6020026020010151604051612e5a9190616cab565b600060405180830381855afa9150503d8060008114612e95576040519150601f19603f3d011682016040523d82523d6000602084013e612e9a565b606091505b50915091508115612ed8576000612ebe60208351038361541290919063ffffffff16565b905085811115612ed657838752602087018290529450845b505b5050600101612dee565b50505b93509350939050565b60408401516060907fffffffff0000000000000000000000000000000000000000000000000000000016612f88576040805160608101909152612f819080612f3a868960808401617268565b60405160208183030381529060405281526020018688604051602001612f61929190617268565b604051602081830303815290604052815260200161541e815250836151ec565b9050610d49565b81518067ffffffffffffffff81118015612fa157600080fd5b50604051908082528060200260200182016040528015612fcb578160200160208202803683370190505b50915060005b8181101561152b5760006060886000015173ffffffffffffffffffffffffffffffffffffffff16621e84808a604001518a8a8a888151811061300f57fe5b60200260200101516040516024016130299392919061724a565b60408051601f198184030181529181526020820180517bffffffffffffffffffffffffffffffffffffffffffffffffffffffff167fffffffff000000000000000000000000000000000000000000000000000000009094169390931790925290516130949190616cab565b6000604051808303818686fa925050503d80600081146130d0576040519150601f19603f3d011682016040523d82523d6000602084013e6130d5565b606091505b5091509150600082156130f957818060200190518101906130f69190616881565b90505b806131065750505061152b565b8086858151811061311357fe5b6020908102919091010152505050600101612fd1565b805160609085908067ffffffffffffffff8111801561314757600080fd5b50604051908082528060200260200182016040528015613171578160200160208202803683370190505b506040517f2f37b62400000000000000000000000000000000000000000000000000000000815290935073ffffffffffffffffffffffffffffffffffffffff831690632f37b624906131c7908990600401616cc7565b60206040518083038186803b1580156131df57600080fd5b505afa1580156131f3573d6000803e3d6000fd5b505050506040513d601f19601f82011682018060405250810190613217919061680d565b15806132c257506040517f2f37b62400000000000000000000000000000000000000000000000000000000815273ffffffffffffffffffffffffffffffffffffffff831690632f37b62490613270908890600401616cc7565b60206040518083038186803b15801561328857600080fd5b505afa15801561329c573d6000803e3d6000fd5b505050506040513d601f19601f820116820180604052508101906132c0919061680d565b155b156132ce575050610d49565b6132d6615e0a565b6040517ff8b2cb4f00000000000000000000000000000000000000000000000000000000815273ffffffffffffffffffffffffffffffffffffffff84169063f8b2cb4f90613328908a90600401616cc7565b60206040518083038186803b15801561334057600080fd5b505afa158015613354573d6000803e3d6000fd5b505050506040513d601f19601f820116820180604052508101906133789190616881565b81526040517ff8b2cb4f00000000000000000000000000000000000000000000000000000000815273ffffffffffffffffffffffffffffffffffffffff84169063f8b2cb4f906133cc908990600401616cc7565b60206040518083038186803b1580156133e457600080fd5b505afa1580156133f8573d6000803e3d6000fd5b505050506040513d601f19601f8201168201806040525081019061341c9190616881565b60208201526040517f948d8ce600000000000000000000000000000000000000000000000000000000815273ffffffffffffffffffffffffffffffffffffffff84169063948d8ce690613473908a90600401616cc7565b60206040518083038186803b15801561348b57600080fd5b505afa15801561349f573d6000803e3d6000fd5b505050506040513d601f19601f820116820180604052508101906134c39190616881565b604080830191909152517f948d8ce600000000000000000000000000000000000000000000000000000000815273ffffffffffffffffffffffffffffffffffffffff84169063948d8ce69061351c908990600401616cc7565b60206040518083038186803b15801561353457600080fd5b505afa158015613548573d6000803e3d6000fd5b505050506040513d601f19601f8201168201806040525081019061356c9190616881565b8160600181815250508273ffffffffffffffffffffffffffffffffffffffff1663d4cadf686040518163ffffffff1660e01b815260040160206040518083038186803b1580156135bb57600080fd5b505afa1580156135cf573d6000803e3d6000fd5b505050506040513d601f19601f820116820180604052508101906135f39190616881565b608082015260005b82811015611cca578151613617906706f05b59d3b20000614f8a565b86828151811061362357fe5b6020026020010151111561363657611cca565b8373ffffffffffffffffffffffffffffffffffffffff1663ba9530a6620493e084600001518560400151866020015187606001518c888151811061367657fe5b602002602001015189608001516040518863ffffffff1660e01b81526004016136a4969594939291906174cd565b60206040518083038187803b1580156136bc57600080fd5b5086fa935050505080156136ed575060408051601f3d908101601f191682019092526136ea91810190616881565b60015b61371b573d808015611c9c576040519150601f19603f3d011682016040523d82523d6000602084013e611ca1565b8086838151811061372857fe5b602002602001018181525050506001016135fb565b60035473ffffffffffffffffffffffffffffffffffffffff1681565b80516060908067ffffffffffffffff8111801561377557600080fd5b5060405190808252806020026020018201604052801561379f578160200160208202803683370190505b50915060005b8181101561152b578673ffffffffffffffffffffffffffffffffffffffff1663343fbcdd62061a8088888886815181106137db57fe5b60200260200101516040518563ffffffff1660e01b815260040161380193929190616df0565b60206040518083038187803b15801561381957600080fd5b5086fa9350505050801561384a575060408051601f3d908101601f1916820190925261384791810190616881565b60015b613878573d808015611df5576040519150601f19603f3d011682016040523d82523d6000602084013e611dfa565b8084838151811061388557fe5b602002602001018181525050506001016137a5565b80516060908067ffffffffffffffff811180156138b657600080fd5b506040519080825280602002602001820160405280156138e0578160200160208202803683370190505b50915060005b81811015613a08576138f6615597565b73ffffffffffffffffffffffffffffffffffffffff1663d06ca61f620249f086848151811061392157fe5b6020026020010151886040518463ffffffff1660e01b81526004016139479291906174a6565b60006040518083038187803b15801561395f57600080fd5b5086fa9350505050801561399557506040513d6000823e601f3d908101601f19168201604052613992919081019061677d565b60015b6139cf573d8080156139c3576040519150601f19603f3d011682016040523d82523d6000602084013e6139c8565b606091505b5050613a08565b806001875103815181106139df57fe5b60200260200101518483815181106139f357fe5b602002602001018181525050506001016138e6565b505092915050565b80516060908067ffffffffffffffff81118015613a2c57600080fd5b50604051908082528060200260200182016040528015613a56578160200160208202803683370190505b50915060005b8181101561169257613a6c6155b3565b73ffffffffffffffffffffffffffffffffffffffff166372ea9076620c35008888888681518110613a9957fe5b60200260200101516040518563ffffffff1660e01b8152600401613abf93929190616df0565b60006040518083038187803b158015613ad757600080fd5b5086fa93505050508015613b0d57506040513d6000823e601f3d908101601f19168201604052613b0a9190810190616829565b60015b613b3b573d808015611664576040519150601f19603f3d011682016040523d82523d6000602084013e611669565b80868581518110613b4857fe5b602002602001018181525050505050600101613a5c565b60606000613b6b614eb4565b60408051600180825281830190925291925060609190602080830190803683370190505090508581600081518110613b9f57fe5b602090810291909101015260606000604051908082528060200260200182016040528015613bd7578160200160208202803683370190505b509050613be2614ed0565b73ffffffffffffffffffffffffffffffffffffffff168673ffffffffffffffffffffffffffffffffffffffff161415613d0b576040517f81efcbdd00000000000000000000000000000000000000000000000000000000815273ffffffffffffffffffffffffffffffffffffffff8416906381efcbdd906207a12090613c7390899060019088908890600401616ee1565b60006040518083038187803b158015613c8b57600080fd5b5086fa93505050508015613cc157506040513d6000823e601f3d908101601f19168201604052613cbe91908101906168f6565b60015b613cfb573d808015613cef576040519150601f19603f3d011682016040523d82523d6000602084013e613cf4565b606091505b5050613d06565b935061138092505050565b613e8e565b613d13614ed0565b73ffffffffffffffffffffffffffffffffffffffff168573ffffffffffffffffffffffffffffffffffffffff161415613da4576040517f61e597f900000000000000000000000000000000000000000000000000000000815273ffffffffffffffffffffffffffffffffffffffff8416906361e597f9906207a12090613c73908a9060019088908890600401616ee1565b6040517f05734d9a00000000000000000000000000000000000000000000000000000000815273ffffffffffffffffffffffffffffffffffffffff8416906305734d9a906207a12090613e0a908a90600190889088908d90849084908490600401616f30565b60006040518083038187803b158015613e2257600080fd5b5086fa93505050508015613e5857506040513d6000823e601f3d908101601f19168201604052613e5591908101906168f6565b60015b613cfb573d808015613e86576040519150601f19603f3d011682016040523d82523d6000602084013e613e8b565b606091505b50505b5050509392505050565b6000806060613ea78587614efb565b83518067ffffffffffffffff81118015613ec057600080fd5b50604051908082528060200260200182016040528015613eea578160200160208202803683370190505b509150613ef56155cb565b73ffffffffffffffffffffffffffffffffffffffff16631273b0c688886040518363ffffffff1660e01b8152600401613f2f929190616ce8565b60206040518083038186803b158015613f4757600080fd5b505afa158015613f5b573d6000803e3d6000fd5b505050506040513d601f19601f82011682018060405250810190613f7f91906161d0565b9250600073ffffffffffffffffffffffffffffffffffffffff841615613faa57506001935086614067565b613fb26155cb565b73ffffffffffffffffffffffffffffffffffffffff16631273b0c6888a6040518363ffffffff1660e01b8152600401613fec929190616ce8565b60206040518083038186803b15801561400457600080fd5b505afa158015614018573d6000803e3d6000fd5b505050506040513d601f19601f8201168201806040525081019061403c91906161d0565b935073ffffffffffffffffffffffffffffffffffffffff8416614060575050612ee5565b5060009350855b8373ffffffffffffffffffffffffffffffffffffffff1663dd58b41c6040518163ffffffff1660e01b815260040160206040518083038186803b1580156140ad57600080fd5b505afa1580156140c1573d6000803e3d6000fd5b505050506040513d601f19601f820116820180604052508101906140e5919061680d565b6140f0575050612ee5565b60005b8281101561418f5760006141618a878560405160200161411593929190616d0f565b6040516020818303038152906040528a888660405160200161413993929190616d0f565b6040516020818303038152906040528a858151811061415457fe5b60200260200101516155e3565b90508061416e575061418f565b8085838151811061417b57fe5b6020908102919091010152506001016140f3565b50505093509350939050565b60408051606081810190925261112790806141ba868960808401616ce8565b604051602081830303815290604052815260200186886040516020016141e1929190616ce8565b604051602081830303815290604052815260200161575e815250836151ec565b6060610d496040518060600160405280856040516020016142229190616cc7565b6040516020818303038152906040528152602001866040516020016142479190616cc7565b6040516020818303038152906040528152602001615864815250836151ec565b73e9db8717bc5dfb20aaf538b4a5a02b7791ff430c81565b6000606061428d8486614efb565b82518067ffffffffffffffff811180156142a657600080fd5b506040519080825280602002602001820160405280156142d0578160200160208202803683370190505b50915060006142dd614ed0565b73ffffffffffffffffffffffffffffffffffffffff168773ffffffffffffffffffffffffffffffffffffffff16146143155786614318565b60005b90506000614324614ed0565b73ffffffffffffffffffffffffffffffffffffffff168773ffffffffffffffffffffffffffffffffffffffff161461435c578661435f565b60005b905060005b838110156143ba57600061438c84848a858151811061437f57fe5b602002602001015161250a565b90508061439957506143ba565b808683815181106143a657fe5b602090810291909101015250600101614364565b506123416153ea565b6060806143d08486614efb565b6040517fbccc34c6000000000000000000000000000000000000000000000000000000008152309063bccc34c69061441090899089908990600401617144565b60006040518083038186803b15801561442857600080fd5b505afa15801561443c573d6000803e3d6000fd5b505050506040513d6000823e601f3d908101601f1916820160405261446491908101906168f6565b91506144ce60405180606001604052808685604051602001614487929190616eb2565b604051602081830303815290604052815260200187856040516020016144ae929190616eb2565b604051602081830303815290604052815260200161595e815250846151ec565b905094509492505050565b60008060606144e88587614efb565b83518067ffffffffffffffff8111801561450157600080fd5b5060405190808252806020026020018201604052801561452b578160200160208202803683370190505b5091506145366155cb565b73ffffffffffffffffffffffffffffffffffffffff16631273b0c688886040518363ffffffff1660e01b8152600401614570929190616ce8565b60206040518083038186803b15801561458857600080fd5b505afa15801561459c573d6000803e3d6000fd5b505050506040513d601f19601f820116820180604052508101906145c091906161d0565b9250600073ffffffffffffffffffffffffffffffffffffffff8416156145eb575060019350866146a8565b6145f36155cb565b73ffffffffffffffffffffffffffffffffffffffff16631273b0c6888a6040518363ffffffff1660e01b815260040161462d929190616ce8565b60206040518083038186803b15801561464557600080fd5b505afa158015614659573d6000803e3d6000fd5b505050506040513d601f19601f8201168201806040525081019061467d91906161d0565b935073ffffffffffffffffffffffffffffffffffffffff84166146a1575050612ee5565b5060009350855b8373ffffffffffffffffffffffffffffffffffffffff1663dd58b41c6040518163ffffffff1660e01b815260040160206040518083038186803b1580156146ee57600080fd5b505afa158015614702573d6000803e3d6000fd5b505050506040513d601f19601f82011682018060405250810190614726919061680d565b614731575050612ee5565b604080516060810190915261479990806147508a888660808501616d0f565b60405160208183030381529060405281526020018a878560405160200161477993929190616d0f565b60405160208183030381529060405281526020016155e3815250876151ec565b9250505093509350939050565b80516060908067ffffffffffffffff811180156147c257600080fd5b506040519080825280602002602001820160405280156147ec578160200160208202803683370190505b50915060005b81811015613a0857614802615597565b73ffffffffffffffffffffffffffffffffffffffff16631f00ca74620249f086848151811061482d57fe5b6020026020010151886040518463ffffffff1660e01b81526004016148539291906174a6565b60006040518083038187803b15801561486b57600080fd5b5086fa935050505080156148a157506040513d6000823e601f3d908101601f1916820160405261489e919081019061677d565b60015b6148cf573d8080156139c3576040519150601f19603f3d011682016040523d82523d6000602084013e6139c8565b806000815181106148dc57fe5b60200260200101518483815181106148f057fe5b602002602001018181525050506001016147f2565b80516060908067ffffffffffffffff8111801561492157600080fd5b5060405190808252806020026020018201604052801561494b578160200160208202803683370190505b50915060005b8181101561152b578673ffffffffffffffffffffffffffffffffffffffff1663838e6a22620493e0888888868151811061498757fe5b60200260200101516040518563ffffffff1660e01b81526004016149ad93929190616df0565b60206040518083038187803b1580156149c557600080fd5b5086fa935050505080156149f6575060408051601f3d908101601f191682019092526149f391810190616881565b60015b614a24573d808015611df5576040519150601f19603f3d011682016040523d82523d6000602084013e611dfa565b80848381518110614a3157fe5b60200260200101818152505050600101614951565b6060614a538484846111be565b905060005b845181101561133757818181518110614a6d57fe5b6020026020010151600014614ae157614ac8828281518110614a8b57fe5b6020026020010151868381518110614a9f57fe5b602002602001015160a00151878481518110614ab757fe5b602002602001015160800151615a1c565b828281518110614ad457fe5b6020026020010181815250505b600101614a58565b614af1615e39565b614af9615e39565b7fffffffffffffffffffffffffffffffffffffffffffffffffffffffffffffffff8060005b86518114614c1e57614b4e6020888381518110614b3757fe5b6020026020010151510387898481518110612d0457fe5b600060603073ffffffffffffffffffffffffffffffffffffffff16898481518110614b7557fe5b6020026020010151604051614b8a9190616cab565b600060405180830381855afa9150503d8060008114614bc5576040519150601f19603f3d011682016040523d82523d6000602084013e614bca565b606091505b50915091508115614c14576000614bee60208351038361541290919063ffffffff16565b9050600081118015614bff57508481105b15614c1257838752602087018290529350835b505b5050600101614b1e565b507fffffffffffffffffffffffffffffffffffffffffffffffffffffffffffffffff811415614c4d5750612ee5565b60005b87518114612ee257614c806020898381518110614c6957fe5b60200260200101515103838a8481518110612d0457fe5b600060603073ffffffffffffffffffffffffffffffffffffffff168a8481518110614ca757fe5b6020026020010151604051614cbc9190616cab565b600060405180830381855afa9150503d8060008114614cf7576040519150601f19603f3d011682016040523d82523d6000602084013e614cfc565b606091505b50915091508115614d46576000614d2060208351038361541290919063ffffffff16565b9050600081118015614d3157508581105b15614d4457838852602088018290529450845b505b5050600101614c50565b6000806000614d5e85615a46565b60ff1690506000614d6e85615a46565b9193505060ff1690505b9250929050565b60025473ffffffffffffffffffffffffffffffffffffffff1681565b600080614da6615b17565b90508073ffffffffffffffffffffffffffffffffffffffff166321f8a7218273ffffffffffffffffffffffffffffffffffffffff16639232494e6040518163ffffffff1660e01b815260040160206040518083038186803b158015614e0a57600080fd5b505afa158015614e1e573d6000803e3d6000fd5b505050506040513d601f19601f82011682018060405250810190614e429190616881565b6040518263ffffffff1660e01b8152600401614e5e919061713b565b60206040518083038186803b158015614e7657600080fd5b505afa158015614e8a573d6000803e3d6000fd5b505050506040513d601f19601f82011682018060405250810190614eae91906161d0565b91505090565b60035473ffffffffffffffffffffffffffffffffffffffff1690565b73c02aaa39b223fe8d0a0e5c4f27ead9083c756cc290565b6000614ef382615b2f565b90505b919050565b8073ffffffffffffffffffffffffffffffffffffffff168273ffffffffffffffffffffffffffffffffffffffff161415614f6a576040517f08c379a0000000000000000000000000000000000000000000000000000000008152600401614f6190617280565b60405180910390fd5b5050565b60025473ffffffffffffffffffffffffffffffffffffffff1690565b60008282028315801590614fa7575082848281614fa357fe5b0414155b15614fb6576000915050614fe3565b6706f05b59d3b20000810181811015614fd457600092505050614fe3565b670de0b6b3a764000090049150505b92915050565b6000614ff3615ba3565b73ffffffffffffffffffffffffffffffffffffffff166306f2bf62836040518263ffffffff1660e01b815260040161502b9190616cc7565b60206040518083038186803b15801561504357600080fd5b505afa158015615057573d6000803e3d6000fd5b505050506040513d601f19601f82011682018060405250810190614ef391906161d0565b60008073ffffffffffffffffffffffffffffffffffffffff851661509e5761519e565b60608573ffffffffffffffffffffffffffffffffffffffff16620249f086866040516024016150cd919061713b565b60408051601f198184030181529181526020820180517bffffffffffffffffffffffffffffffffffffffffffffffffffffffff167fffffffff000000000000000000000000000000000000000000000000000000009094169390931790925290516151389190616cab565b6000604051808303818686fa925050503d8060008114615174576040519150601f19603f3d011682016040523d82523d6000602084013e615179565b606091505b509092509050811561519c57808060200190518101906151999190616881565b92505b505b935093915050565b600080848060200190518101906151bd91906161d0565b90506000848060200190518101906151d591906161d0565b90506151e282828661250a565b9695505050505050565b6060815167ffffffffffffffff8111801561520657600080fd5b50604051908082528060200260200182016040528015615230578160200160208202803683370190505b50905081516000141561524257614fe3565b6000615273846000015185602001518560008151811061525e57fe5b6020026020010151876040015163ffffffff16565b9050806152805750614fe3565b600061529d8560200151866000015184886040015163ffffffff16565b9050806152ab575050614fe3565b60005b84518110156153e15760005b60058110156153a3576152e18683815181106152d257fe5b60200260200101518486615bbf565b9350836152ed576153a3565b6152fc61271561271086615bbf565b935083615308576153a3565b600061532588602001518960000151878b6040015163ffffffff16565b90508061533257506153a3565b80935086838151811061534157fe5b6020026020010151841061539a57600087848151811061535d57fe5b602002602001015161271089868151811061537457fe5b60200260200101518703028161538657fe5b049050600581116153985750506153a3565b505b506001016152ba565b506153c28582815181106153b357fe5b60200260200101518385615bbf565b8482815181106153ce57fe5b60209081029190910101526001016152ae565b50505092915050565b7371cd6666064c3a1354a3b4dca5fa1e2d3ee7d30390565b61540d838383615c17565b505050565b60006113808383615c43565b600080615429615e53565b8580602001905181019061543d91906169ad565b915091506000858060200190518101906154579190616991565b905060006060307f40bc03ae0000000000000000000000000000000000000000000000000000000085878661548b8c615c6d565b60405160240161549e94939291906172dd565b60408051601f198184030181529181526020820180517bffffffffffffffffffffffffffffffffffffffffffffffffffffffff167fffffffff000000000000000000000000000000000000000000000000000000009094169390931790925290516155099190616cab565b600060405180830381855afa9150503d8060008114615544576040519150601f19603f3d011682016040523d82523d6000602084013e615549565b606091505b50915091508161556157600095505050505050611380565b80806020019051810190615575919061677d565b60008151811061558157fe5b6020026020010151955050505050509392505050565b60015473ffffffffffffffffffffffffffffffffffffffff1690565b73e2f2a5c287993345a840db3b0845fbc70f5935a590565b733a97247df274a17c59a3bd12735ea3fcdfb4995090565b600080600080868060200190518101906155fd9190616225565b9250925092508073ffffffffffffffffffffffffffffffffffffffff168373ffffffffffffffffffffffffffffffffffffffff161415615718576040517fa2801e1600000000000000000000000000000000000000000000000000000000815273ffffffffffffffffffffffffffffffffffffffff83169063a2801e1690620493e09061568e90899060040161713b565b60206040518083038187803b1580156156a657600080fd5b5086fa935050505080156156d7575060408051601f3d908101601f191682019092526156d491810190616881565b60015b613cfb573d808015615705576040519150601f19603f3d011682016040523d82523d6000602084013e61570a565b606091505b506000945050505050611380565b615720615cae565b73ffffffffffffffffffffffffffffffffffffffff1663ca19ebd9620493e084886040518463ffffffff1660e01b815260040161568e929190616fd0565b60008060008580602001905181019061577791906161ec565b9150915060008580602001905181019061579191906161d0565b90503063a469841762061a808486856157a98b615c6d565b6040518663ffffffff1660e01b81526004016157c89493929190616d3f565b60006040518083038187803b1580156157e057600080fd5b5086fa9350505050801561581657506040513d6000823e601f3d908101601f19168201604052615813919081019061677d565b60015b615844573d808015615705576040519150601f19603f3d011682016040523d82523d6000602084013e61570a565b8060008151811061585157fe5b6020026020010151945050505050611380565b6000808480602001905181019061587b91906161d0565b905060008480602001905181019061589391906161d0565b90503063bc61a69583836158a688615c6d565b6040518463ffffffff1660e01b81526004016158c493929190616db7565b60006040518083038186803b1580156158dc57600080fd5b505afa92505050801561591157506040513d6000823e601f3d908101601f1916820160405261590e919081019061677d565b60015b61593f573d80801561278b576040519150601f19603f3d011682016040523d82523d6000602084013e612790565b8060008151811061594c57fe5b60200260200101519350505050611380565b6000806060848060200190518101906159779190616271565b915091506000868060200190518101906159919190616271565b506040517f15e42a6100000000000000000000000000000000000000000000000000000000815290915030906315e42a61906159d7908590859088908b90600401617183565b60206040518083038186803b1580156159ef57600080fd5b505afa9250505080156156d7575060408051601f3d908101601f191682019092526156d491810190616881565b6000610d4983615a40615a30826001615cc6565b615a3a8887615ce5565b90615d16565b90615d32565b600060129050600060608373ffffffffffffffffffffffffffffffffffffffff166040518060400160405280600481526020017f313ce56700000000000000000000000000000000000000000000000000000000815250604051615aaa9190616cab565b600060405180830381855afa9150503d8060008114615ae5576040519150601f19603f3d011682016040523d82523d6000602084013e615aea565b606091505b5091509150818015615afd575080516020145b15615b1057615b0d816000615412565b92505b5050919050565b7352ae12abe5d8bd778bd5397f99ca900624cfadd490565b600073ffffffffffffffffffffffffffffffffffffffff821673c02aaa39b223fe8d0a0e5c4f27ead9083c756cc21415615b6b57506012614ef6565b600082604051602001615b7e9190616c6b565b60408051808303601f190181529190528051602090910120600f166004019392505050565b60005473ffffffffffffffffffffffffffffffffffffffff1690565b6000831580615bcc575081155b80615bd5575082155b15615be257506000611380565b83820282858281615bef57fe5b0414615bff576000915050611380565b8360018503820181615c0d57fe5b0495945050505050565b8160200183511015615c3b57615c3b615c366005855185602001615d5c565b615de3565b910160200152565b60008160200183511015615c6457615c64615c366005855185602001615d5c565b50016020015190565b604080516001808252818301909252606091602080830190803683370190505090508181600081518110615c9d57fe5b602002602001018181525050919050565b73533da777aedce766ceae696bf90f8541a4ba80eb90565b600082821115615cdf57615cdf615c3660028585615deb565b50900390565b600082615cf457506000614fe3565b82820282848281615d0157fe5b041461138057611380615c3660018686615deb565b60008282018381101561138057611380615c3660008686615deb565b600081615d4857615d48615c3660038585615deb565b6000828481615d5357fe5b04949350505050565b6060632800659560e01b848484604051602401615d7b9392919061723c565b60408051601f198184030181529190526020810180517bffffffffffffffffffffffffffffffffffffffffffffffffffffffff167fffffffff000000000000000000000000000000000000000000000000000000009093169290921790915290509392505050565b805160208201fd5b606063e946c1bb60e01b848484604051602401615d7b9392919061721a565b6040518060a0016040528060008152602001600081526020016000815260200160008152602001600081525090565b604051806040016040528060008152602001606081525090565b604080516060810182526000808252602082018190529181019190915290565b8035614fe3816175fe565b60008083601f840112615e8f578182fd5b50813567ffffffffffffffff811115615ea6578182fd5b6020830191508360208083028501011115614d7857600080fd5b600082601f830112615ed0578081fd5b8135615ee3615ede8261757f565b617558565b818152915060208083019084810181840286018201871015615f0457600080fd5b60005b84811015615f2c578135615f1a816175fe565b84529282019290820190600101615f07565b505050505092915050565b600082601f830112615f47578081fd5b8135615f55615ede8261757f565b818152915060208083019084810160005b84811015615f2c57615f7d888484358a0101615fed565b84529282019290820190600101615f66565b600082601f830112615f9f578081fd5b8135615fad615ede8261757f565b818152915060208083019084810181840286018201871015615fce57600080fd5b60005b84811015615f2c57813584529282019290820190600101615fd1565b600082601f830112615ffd578081fd5b813561600b615ede8261759f565b915080825283602082850101111561602257600080fd5b8060208401602084013760009082016020015292915050565b600082601f83011261604b578081fd5b8151616059615ede8261759f565b915080825283602082850101111561607057600080fd5b6125038160208401602086016175ce565b60006101c0808385031215616094578182fd5b61609d81617558565b9150506160aa8383615e73565b81526160b98360208401615e73565b60208201526160cb8360408401615e73565b60408201526160dd8360608401615e73565b60608201526080820135608082015260a082013560a082015260c082013560c082015260e082013560e08201526101008083013581830152506101208083013581830152506101408083013567ffffffffffffffff8082111561613f57600080fd5b61614b86838701615fed565b8385015261016092508285013591508082111561616757600080fd5b61617386838701615fed565b8385015261018092508285013591508082111561618f57600080fd5b61619b86838701615fed565b838501526101a09250828501359150808211156161b757600080fd5b506161c485828601615fed565b82840152505092915050565b6000602082840312156161e1578081fd5b8151611380816175fe565b600080604083850312156161fe578081fd5b8251616209816175fe565b602084015190925061621a816175fe565b809150509250929050565b600080600060608486031215616239578081fd5b8351616244816175fe565b6020850151909350616255816175fe565b6040850151909250616266816175fe565b809150509250925092565b60008060408385031215616283578182fd5b825161628e816175fe565b602084015190925067ffffffffffffffff8111156162aa578182fd5b6162b68582860161603b565b9150509250929050565b600080604083850312156162d2578182fd5b82356162dd816175fe565b9150602083013561621a816175fe565b600080600080600060a08688031215616304578283fd5b853561630f816175fe565b9450602086013561631f816175fe565b9350604086013561632f816175fe565b9250606086013561633f816175fe565b9150608086013567ffffffffffffffff81111561635a578182fd5b61636688828901615f8f565b9150509295509295909350565b60008060008060808587031215616388578182fd5b8435616393816175fe565b935060208501356163a3816175fe565b925060408501356163b3816175fe565b9150606085013567ffffffffffffffff8111156163ce578182fd5b6163da87828801615f8f565b91505092959194509250565b6000806000606084860312156163fa578081fd5b8335616405816175fe565b92506020840135616415816175fe565b9150604084013567ffffffffffffffff811115616430578182fd5b61643c86828701615f8f565b9150509250925092565b60008060006060848603121561645a578081fd5b8335616465816175fe565b92506020840135616475816175fe565b929592945050506040919091013590565b60008060006060848603121561649a578081fd5b83356164a5816175fe565b9250602084013567ffffffffffffffff808211156164c1578283fd5b6164cd87838801615ec0565b935060408601359150808211156164e2578283fd5b5061643c86828701615f8f565b60008060208385031215616501578182fd5b823567ffffffffffffffff811115616517578283fd5b61652385828601615e7e565b90969095509350505050565b60008060408385031215616541578182fd5b823567ffffffffffffffff80821115616558578384fd5b61656486838701615ec0565b93506020850135915080821115616579578283fd5b506162b685828601615f8f565b6000806000806080858703121561659b578182fd5b843567ffffffffffffffff808211156165b2578384fd5b818701915087601f8301126165c5578384fd5b81356165d3615ede8261757f565b81815260208082019190858101885b8581101561660b576165f98e8484358b0101615ec0565b855293820193908201906001016165e2565b505081995061661c8c828d01615e73565b98505050505061662f8860408901615e73565b93506060870135915080821115616644578283fd5b506163da87828801615f8f565b600080600060608486031215616665578081fd5b833567ffffffffffffffff8082111561667c578283fd5b61668887838801615f37565b9450602086013591508082111561669d578283fd5b506166aa86828701615f37565b925050604084013590509250925092565b6000806000606084860312156166cf578081fd5b833567ffffffffffffffff808211156166e6578283fd5b818601915086601f8301126166f9578283fd5b8135616707615ede8261757f565b81815260208082019190858101875b8581101561673f5761672d8d8484358b0101616081565b85529382019390820190600101616716565b50919850890135945050505080821115616757578283fd5b5061676486828701615f37565b9250506167748560408601615e73565b90509250925092565b6000602080838503121561678f578182fd5b825167ffffffffffffffff8111156167a5578283fd5b8301601f810185136167b5578283fd5b80516167c3615ede8261757f565b81815283810190838501858402850186018910156167df578687fd5b8694505b838510156168015780518352600194909401939185019185016167e3565b50979650505050505050565b60006020828403121561681e578081fd5b815161138081617620565b60008060006060848603121561683d578081fd5b835161684881617620565b602085015190935067ffffffffffffffff811115616864578182fd5b6168708682870161603b565b925050604084015190509250925092565b600060208284031215616892578081fd5b5051919050565b6000806000606084860312156168ad578081fd5b8335925060208401356168bf816175fe565b91506040840135616266816175fe565b600080600080608085870312156168e4578182fd5b8435935060208501356163a3816175fe565b600060208284031215616907578081fd5b815167ffffffffffffffff81111561691d578182fd5b610d498482850161603b565b6000806000806080858703121561693e578182fd5b843567ffffffffffffffff811115616954578283fd5b61696087828801615fed565b9450506020850135616971816175fe565b92506040850135616981816175fe565b9396929550929360600135925050565b6000602082840312156169a2578081fd5b81516113808161765c565b60008082840360808112156169c0578283fd5b83516169cb8161765c565b92506060601f19820112156169de578182fd5b506169e96060617558565b60208401516169f7816175fe565b81526040840151616a078161762e565b60208201526060840151616a1a8161762e565b6040820152919491935090915050565b60008060008084860360c0811215616a40578283fd5b6060811215616a4d578283fd5b50616a586060617558565b8535616a63816175fe565b81526020860135616a738161762e565b60208201526040860135616a868161762e565b604082015293506060850135616a9b8161765c565b92506080850135616aab8161765c565b915060a085013567ffffffffffffffff8111156163ce578182fd5b600080600060608486031215616ada578081fd5b833567ffffffffffffffff80821115616af1578283fd5b616afd87838801616081565b94506020860135915080821115616b12578283fd5b50616b1f86828701615fed565b9250506040840135616266816175fe565b73ffffffffffffffffffffffffffffffffffffffff169052565b6000815180845260208085019450808401835b83811015616b8f57815173ffffffffffffffffffffffffffffffffffffffff1687529582019590820190600101616b5d565b509495945050505050565b6000815180845260208085019450808401835b83811015616b8f57815187529582019590820190600101616bad565b60008151808452616be18160208601602086016175ce565b601f01601f19169290920160200192915050565b805173ffffffffffffffffffffffffffffffffffffffff1682526020808201517fffffffff000000000000000000000000000000000000000000000000000000009081169184019190915260409182015116910152565b600081518352602082015160406020850152610d496040850182616bc9565b60609190911b7fffffffffffffffffffffffffffffffffffffffff00000000000000000000000016815260140190565b6000828483379101908152919050565b60008251616cbd8184602087016175ce565b9190910192915050565b73ffffffffffffffffffffffffffffffffffffffff91909116815260200190565b73ffffffffffffffffffffffffffffffffffffffff92831681529116602082015260400190565b73ffffffffffffffffffffffffffffffffffffffff93841681529183166020830152909116604082015260600190565b600073ffffffffffffffffffffffffffffffffffffffff80871683528086166020840152808516604084015250608060608301526151e26080830184616b9a565b73ffffffffffffffffffffffffffffffffffffffff9485168152928416602084015292166040820152606081019190915260800190565b600073ffffffffffffffffffffffffffffffffffffffff8086168352808516602084015250606060408301526111276060830184616b9a565b73ffffffffffffffffffffffffffffffffffffffff9384168152919092166020820152604081019190915260600190565b600073ffffffffffffffffffffffffffffffffffffffff808816835280871660208401525084604083015283606083015260a06080830152616e6660a0830184616bc9565b979650505050505050565b600073ffffffffffffffffffffffffffffffffffffffff8516825260606020830152616ea06060830185616b4a565b82810360408401526151e28185616b9a565b600073ffffffffffffffffffffffffffffffffffffffff8416825260406020830152610d496040830184616bc9565b600073ffffffffffffffffffffffffffffffffffffffff86168252616f05856175c3565b602083015260806040830152616f1e6080830185616b9a565b8281036060840152616e668185616b9a565b600061010073ffffffffffffffffffffffffffffffffffffffff808c168452616f588b6175c3565b6020850152816040850152616f6f8285018b616b9a565b91508382036060850152616f83828a616b9a565b90881660808501529050616f96866175c3565b60a084015282810360c0840152616fad8186616b9a565b905082810360e0840152616fc18185616b9a565b9b9a5050505050505050505050565b73ffffffffffffffffffffffffffffffffffffffff929092168252602082015260400190565b60208082528181018390526000908460408401835b8681101561704657823561701e816175fe565b73ffffffffffffffffffffffffffffffffffffffff168252918301919083019060010161700b565b509695505050505050565b6000604082526170646040830185616b4a565b90508260208301529392505050565b6000602080830181845280855180835260408601915060408482028701019250838701855b828110156170e4577fffffffffffffffffffffffffffffffffffffffffffffffffffffffffffffffc08886030184526170d2858351616bc9565b94509285019290850190600101617098565b5092979650505050505050565b6000602082526113806020830184616b9a565b6000841515825273ffffffffffffffffffffffffffffffffffffffff84166020830152606060408301526111276060830184616b9a565b90815260200190565b92835273ffffffffffffffffffffffffffffffffffffffff918216602084015216604082015260600190565b6000602082526113806020830184616bc9565b6000608082526171966080830187616bc9565b73ffffffffffffffffffffffffffffffffffffffff95861660208401529390941660408201526060015292915050565b6000604082526171d96040830185616bc9565b82810360208401526111278185616b9a565b600073ffffffffffffffffffffffffffffffffffffffff8416825260406020830152610d496040830184616b9a565b606081016004851061722857fe5b938152602081019290925260409091015290565b606081016008851061722857fe5b600f93840b81529190920b6020820152604081019190915260600190565b600f83900b8152608081016113806020830184616bf5565b60208082526025908201527f455243323042726964676553616d706c65722f494e56414c49445f544f4b454e60408201527f5f50414952000000000000000000000000000000000000000000000000000000606082015260800190565b60006172e98287616bf5565b84600f0b606083015283600f0b608083015260c060a08301526151e260c0830184616b9a565b6000606082526173226060830186616c4c565b82810360208401526173348186616c4c565b915050826040830152949350505050565b600060608252617359606083018651616b30565b602085015161736b6080840182616b30565b50604085015161737e60a0840182616b30565b50606085015161739160c0840182616b30565b50608085015160e083015260a0850151610100818185015260c08701519150610120828186015260e0880151925061014083818701528289015193506101609250838387015281890151935061018091508382870152808901519350506101c06101a08181880152617407610220880186616bc9565b9450838a015193507fffffffffffffffffffffffffffffffffffffffffffffffffffffffffffffffa08088870301838901526174438686616bc9565b9550838b0151945080888703016101e08901526174608686616bc9565b9550818b015194508088870301610200890152505050506174818282616bc9565b91505082810360208401526174968186616bc9565b915050610d496040830184616b30565b600083825260406020830152610d496040830184616b4a565b918252602082015260400190565b958652602086019490945260408501929092526060840152608083015260a082015260c00190565b60008083357fffffffffffffffffffffffffffffffffffffffffffffffffffffffffffffffe1843603018112617529578283fd5b83018035915067ffffffffffffffff821115617543578283fd5b602001915036819003821315614d7857600080fd5b60405181810167ffffffffffffffff8111828210171561757757600080fd5b604052919050565b600067ffffffffffffffff821115617595578081fd5b5060209081020190565b600067ffffffffffffffff8211156175b5578081fd5b50601f01601f191660200190565b8060048110614ef657fe5b60005b838110156175e95781810151838201526020016175d1565b838111156175f8576000848401525b50505050565b73ffffffffffffffffffffffffffffffffffffffff81168114610b6957600080fd5b8015158114610b6957600080fd5b7fffffffff0000000000000000000000000000000000000000000000000000000081168114610b6957600080fd5b80600f0b8114610b6957600080fdfea264697066735822122031e6e08e69ed71265021ac9bb07e2941a68e648e8560bebe3ee444259eb1655b64736f6c634300060c0033608060405234801561001057600080fd5b506108b0806100206000396000f3fe608060405234801561001057600080fd5b50600436106100365760003560e01c806306f2bf621461003b5780633126865714610064575b600080fd5b61004e610049366004610173565b610079565b60405161005b919061021d565b60405180910390f35b6100776100723660046101ae565b6100a4565b005b73ffffffffffffffffffffffffffffffffffffffff9081166000908152602081905260409020541690565b60005b818110156101615760008383838181106100bd57fe5b90506020020160208101906100d29190610173565b9050806040516100e190610166565b6100eb919061021d565b604051809103906000f080158015610107573d6000803e3d6000fd5b5073ffffffffffffffffffffffffffffffffffffffff918216600090815260208190526040902080547fffffffffffffffffffffffff000000000000000000000000000000000000000016919092161790556001016100a7565b505050565b61063c8061023f83390190565b600060208284031215610184578081fd5b813573ffffffffffffffffffffffffffffffffffffffff811681146101a7578182fd5b9392505050565b600080602083850312156101c0578081fd5b823567ffffffffffffffff808211156101d7578283fd5b818501915085601f8301126101ea578283fd5b8135818111156101f8578384fd5b866020808302850101111561020b578384fd5b60209290920196919550909350505050565b73ffffffffffffffffffffffffffffffffffffffff9190911681526020019056fe608060405234801561001057600080fd5b5060405161063c38038061063c83398101604081905261002f9161009e565b600080546001600160a01b0319166001600160a01b03831617905560405161007d907f1d6a6a0506b0b4a554b907a4c29d9f4674e461989d9c1921feb17b26716385ab9083906020016100cc565b60408051601f198184030181529190528051602090910120600155506100e7565b6000602082840312156100af578081fd5b81516001600160a01b03811681146100c5578182fd5b9392505050565b91825260601b6001600160601b031916602082015260340190565b610546806100f66000396000f3fe60806040526004361061007b5760003560e01c80639d76ea581161004e5780639d76ea58146100e0578063bfa0b13314610102578063cd72d78914610117578063cd7724c3146100c05761007b565b806311f2928b146100805780632640f62c1461008a57806359e948621461008a57806395b68fe7146100c0575b600080fd5b61008861012c565b005b34801561009657600080fd5b506100aa6100a5366004610429565b61016f565b6040516100b791906104d0565b60405180910390f35b3480156100cc57600080fd5b506100aa6100db366004610429565b6101ae565b3480156100ec57600080fd5b506100f56101e7565b6040516100b791906104af565b34801561010e57600080fd5b506100aa610203565b34801561012357600080fd5b506100f5610209565b60405173e9db8717bc5dfb20aaf538b4a5a02b7791ff430c903480156108fc02916000818181858888f1935050505015801561016c573d6000803e3d6000fd5b50565b6000610179610221565b6101a6600154610187610279565b60005473ffffffffffffffffffffffffffffffffffffffff1685610291565b90505b919050565b60006101b8610221565b6001546000546101a6919073ffffffffffffffffffffffffffffffffffffffff166101e1610279565b856102f2565b60005473ffffffffffffffffffffffffffffffffffffffff1681565b60015481565b73e9db8717bc5dfb20aaf538b4a5a02b7791ff430c81565b73e9db8717bc5dfb20aaf538b4a5a02b7791ff430c3115610277576040517f08c379a000000000000000000000000000000000000000000000000000000000815260040161026e906104d9565b60405180910390fd5b565b73c02aaa39b223fe8d0a0e5c4f27ead9083c756cc290565b60008061029d8561033e565b60ff16600a0a905060006102b08561033e565b60ff16600a0a905060006102c58888886103d0565b9050818184670de0b6b3a7640000880202816102dd57fe5b04816102e557fe5b0498975050505050505050565b6000806102fe8561033e565b60ff16600a0a905060006103118561033e565b60ff16600a0a905060006103268888886103d0565b9050670de0b6b3a7640000838383880202816102dd57fe5b600073ffffffffffffffffffffffffffffffffffffffff821673c02aaa39b223fe8d0a0e5c4f27ead9083c756cc2141561037a575060126101a9565b60008260405160200161038d9190610441565b604080518083037fffffffffffffffffffffffffffffffffffffffffffffffffffffffffffffffe00181529190528051602090910120600f166004019392505050565b6000808484846040516020016103e893929190610471565b6040516020818303038152906040528051906020012090506064670de0b6b3a76400008161041257fe5b0468056ba3d73af34f000082060195945050505050565b60006020828403121561043a578081fd5b5035919050565b60609190911b7fffffffffffffffffffffffffffffffffffffffff00000000000000000000000016815260140190565b9283527fffffffffffffffffffffffffffffffffffffffff000000000000000000000000606092831b81166020850152911b16603482015260480190565b73ffffffffffffffffffffffffffffffffffffffff91909116815260200190565b90815260200190565b6020808252600e908201527f4641494c5f54524947474552454400000000000000000000000000000000000060408201526060019056fea2646970667358221220259f8284e0986be532d1994d98c719e5cab8c5cbaddbc698be781400504e864464736f6c634300060c0033a2646970667358221220eda320c885b7684a02f0b2eb85f2e74ee223337306eafd785c3cd2e5b999a9fa64736f6c634300060c0033608060405234801561001057600080fd5b5061086d806100206000396000f3fe60806040526004361061003f5760003560e01c806311f2928b146100445780631f00ca741461004e578063cd72d78914610084578063d06ca61f146100a6575b600080fd5b61004c6100c6565b005b34801561005a57600080fd5b5061006e61006936600461067d565b610109565b60405161007b9190610785565b60405180910390f35b34801561009057600080fd5b506100996102cd565b60405161007b9190610764565b3480156100b257600080fd5b5061006e6100c136600461067d565b6102e5565b60405173e9db8717bc5dfb20aaf538b4a5a02b7791ff430c903480156108fc02916000818181858888f19350505050158015610106573d6000803e3d6000fd5b50565b6060600282101561014f576040517f08c379a000000000000000000000000000000000000000000000000000000000815260040161014690610800565b60405180910390fd5b610157610459565b8167ffffffffffffffff8111801561016e57600080fd5b50604051908082528060200260200182016040528015610198578160200160208202803683370190505b509050838160018585905003815181106101ae57fe5b60209081029190910101527fffffffffffffffffffffffffffffffffffffffffffffffffffffffffffffffff82015b80156102c5576102847fadc7fcb33c735913b8635927e66896b356a53a912ab2ceff929e60a04b53b3c185857fffffffffffffffffffffffffffffffffffffffffffffffffffffffffffffffff850181811061023557fe5b905060200201602081019061024a9190610642565b86868581811061025657fe5b905060200201602081019061026b9190610642565b85858151811061027757fe5b60200260200101516104a8565b82600183038151811061029357fe5b60209081029190910101527fffffffffffffffffffffffffffffffffffffffffffffffffffffffffffffffff016101dd565b509392505050565b73e9db8717bc5dfb20aaf538b4a5a02b7791ff430c81565b60606002821015610322576040517f08c379a000000000000000000000000000000000000000000000000000000000815260040161014690610800565b61032a610459565b8167ffffffffffffffff8111801561034157600080fd5b5060405190808252806020026020018201604052801561036b578160200160208202803683370190505b509050838160008151811061037c57fe5b60200260200101818152505060005b7fffffffffffffffffffffffffffffffffffffffffffffffffffffffffffffffff83018110156102c5576104377fadc7fcb33c735913b8635927e66896b356a53a912ab2ceff929e60a04b53b3c18585848181106103e557fe5b90506020020160208101906103fa9190610642565b86868560010181811061040957fe5b905060200201602081019061041e9190610642565b85858151811061042a57fe5b6020026020010151610509565b82826001018151811061044657fe5b602090810291909101015260010161038b565b73e9db8717bc5dfb20aaf538b4a5a02b7791ff430c31156104a6576040517f08c379a0000000000000000000000000000000000000000000000000000000008152600401610146906107c9565b565b6000806104b485610555565b60ff16600a0a905060006104c785610555565b60ff16600a0a905060006104dc8888886105e9565b9050818184670de0b6b3a7640000880202816104f457fe5b04816104fc57fe5b0498975050505050505050565b60008061051585610555565b60ff16600a0a9050600061052885610555565b60ff16600a0a9050600061053d8888886105e9565b9050670de0b6b3a7640000838383880202816104f457fe5b600073ffffffffffffffffffffffffffffffffffffffff821673c02aaa39b223fe8d0a0e5c4f27ead9083c756cc21415610591575060126105e4565b6000826040516020016105a491906106f6565b604080518083037fffffffffffffffffffffffffffffffffffffffffffffffffffffffffffffffe00181529190528051602090910120600f166004019150505b919050565b60008084848460405160200161060193929190610726565b6040516020818303038152906040528051906020012090506064670de0b6b3a76400008161062b57fe5b0468056ba3d73af34f000082060195945050505050565b600060208284031215610653578081fd5b813573ffffffffffffffffffffffffffffffffffffffff81168114610676578182fd5b9392505050565b600080600060408486031215610691578182fd5b83359250602084013567ffffffffffffffff808211156106af578384fd5b818601915086601f8301126106c2578384fd5b8135818111156106d0578485fd5b87602080830285010111156106e3578485fd5b6020830194508093505050509250925092565b60609190911b7fffffffffffffffffffffffffffffffffffffffff00000000000000000000000016815260140190565b9283527fffffffffffffffffffffffffffffffffffffffff000000000000000000000000606092831b81166020850152911b16603482015260480190565b73ffffffffffffffffffffffffffffffffffffffff91909116815260200190565b6020808252825182820181905260009190848201906040850190845b818110156107bd578351835292840192918401916001016107a1565b50909695505050505050565b6020808252600e908201527f4641494c5f545249474745524544000000000000000000000000000000000000604082015260600190565b6020808252600e908201527f504154485f544f4f5f53484f525400000000000000000000000000000000000060408201526060019056fea2646970667358221220dd2b561fd926bb79ddabbc7012e8c88ce5f7a459d923c4ecaf2a057067effe5564736f6c634300060c0033608060405234801561001057600080fd5b506104ee806100206000396000f3fe60806040526004361061003f5760003560e01c806311f2928b14610044578063144a27521461004e578063cd72d78914610084578063ff1fd974146100a6575b600080fd5b61004c6100c6565b005b34801561005a57600080fd5b5061006e610069366004610387565b610109565b60405161007b919061048d565b60405180910390f35b34801561009057600080fd5b50610099610147565b60405161007b9190610435565b3480156100b257600080fd5b5061006e6100c1366004610387565b61015f565b60405173e9db8717bc5dfb20aaf538b4a5a02b7791ff430c903480156108fc02916000818181858888f19350505050158015610106573d6000803e3d6000fd5b50565b6000610113610195565b61013f7fb713b61bb9bb2958a0f5d1534b21e94fc68c4c0c034b0902ed844f2f6cd1b4f78486856101ed565b949350505050565b73e9db8717bc5dfb20aaf538b4a5a02b7791ff430c81565b6000610169610195565b61013f7fb713b61bb9bb2958a0f5d1534b21e94fc68c4c0c034b0902ed844f2f6cd1b4f785858561024e565b73e9db8717bc5dfb20aaf538b4a5a02b7791ff430c31156101eb576040517f08c379a00000000000000000000000000000000000000000000000000000000081526004016101e290610456565b60405180910390fd5b565b6000806101f98561029a565b60ff16600a0a9050600061020c8561029a565b60ff16600a0a9050600061022188888861032e565b9050670de0b6b3a76400008383838802028161023957fe5b048161024157fe5b0498975050505050505050565b60008061025a8561029a565b60ff16600a0a9050600061026d8561029a565b60ff16600a0a9050600061028288888861032e565b9050818184670de0b6b3a76400008802028161023957fe5b600073ffffffffffffffffffffffffffffffffffffffff821673c02aaa39b223fe8d0a0e5c4f27ead9083c756cc214156102d657506012610329565b6000826040516020016102e991906103c7565b604080518083037fffffffffffffffffffffffffffffffffffffffffffffffffffffffffffffffe00181529190528051602090910120600f166004019150505b919050565b600080848484604051602001610346939291906103f7565b6040516020818303038152906040528051906020012090506064670de0b6b3a76400008161037057fe5b0468056ba3d73af34f000082060195945050505050565b60008060006060848603121561039b578283fd5b83356103a681610496565b925060208401356103b681610496565b929592945050506040919091013590565b60609190911b7fffffffffffffffffffffffffffffffffffffffff00000000000000000000000016815260140190565b9283527fffffffffffffffffffffffffffffffffffffffff000000000000000000000000606092831b81166020850152911b16603482015260480190565b73ffffffffffffffffffffffffffffffffffffffff91909116815260200190565b6020808252600e908201527f4641494c5f545249474745524544000000000000000000000000000000000000604082015260600190565b90815260200190565b73ffffffffffffffffffffffffffffffffffffffff8116811461010657600080fdfea26469706673582212207d41e8951134a3b76167dae046919d703e25f00321aed168cf33bdaaf1cadb2864736f6c634300060c0033608060405234801561001057600080fd5b50610927806100206000396000f3fe60806040526004361061007b5760003560e01c8063809a9e551161004e578063809a9e551461010d57806381efcbdd146100ed578063a734f06e1461013b578063cd72d7891461015d5761007b565b806305734d9a1461008057806311f2928b146100b6578063418436bc146100c057806361e597f9146100ed575b600080fd5b34801561008c57600080fd5b506100a061009b36600461068f565b610172565b6040516100ad9190610810565b60405180910390f35b6100be6101a6565b005b3480156100cc57600080fd5b506100e06100db366004610556565b6101e9565b6040516100ad91906108b8565b3480156100f957600080fd5b506100a06101083660046105fb565b6102ab565b34801561011957600080fd5b5061012d610128366004610516565b6102d9565b6040516100ad9291906108c1565b34801561014757600080fd5b5061015061039b565b6040516100ad91906107ef565b34801561016957600080fd5b506101506103b3565b60608c60405160200161018591906107ef565b60405160208183030381529060405290509c9b505050505050505050505050565b60405173e9db8717bc5dfb20aaf538b4a5a02b7791ff430c903480156108fc02916000818181858888f193505050501580156101e6573d6000803e3d6000fd5b50565b60006101f36103cb565b73ffffffffffffffffffffffffffffffffffffffff871673eeeeeeeeeeeeeeeeeeeeeeeeeeeeeeeeeeeeeeee1461022a5786610232565b610232610423565b965073ffffffffffffffffffffffffffffffffffffffff861673eeeeeeeeeeeeeeeeeeeeeeeeeeeeeeeeeeeeeeee1461026b5785610273565b610273610423565b95506102a07f0ff3ca9d46195c39f9a12afb74207b4970349fb3cfb1e459bbf170298d326bc7888861043b565b979650505050505050565b6060866040516020016102be91906107ef565b60405160208183030381529060405290509695505050505050565b6000806102e46103cb565b73ffffffffffffffffffffffffffffffffffffffff851673eeeeeeeeeeeeeeeeeeeeeeeeeeeeeeeeeeeeeeee1461031b5784610323565b610323610423565b945073ffffffffffffffffffffffffffffffffffffffff841673eeeeeeeeeeeeeeeeeeeeeeeeeeeeeeeeeeeeeeee1461035c5783610364565b610364610423565b93506103917f0ff3ca9d46195c39f9a12afb74207b4970349fb3cfb1e459bbf170298d326bc7868661043b565b9150935093915050565b73eeeeeeeeeeeeeeeeeeeeeeeeeeeeeeeeeeeeeeee81565b73e9db8717bc5dfb20aaf538b4a5a02b7791ff430c81565b73e9db8717bc5dfb20aaf538b4a5a02b7791ff430c3115610421576040517f08c379a000000000000000000000000000000000000000000000000000000000815260040161041890610881565b60405180910390fd5b565b73c02aaa39b223fe8d0a0e5c4f27ead9083c756cc290565b600080848484604051602001610453939291906107b1565b6040516020818303038152906040528051906020012090506064670de0b6b3a76400008161047d57fe5b0468056ba3d73af34f000082060195945050505050565b803573ffffffffffffffffffffffffffffffffffffffff811681146104b857600080fd5b92915050565b60008083601f8401126104cf578182fd5b50813567ffffffffffffffff8111156104e6578182fd5b602083019150836020808302850101111561050057600080fd5b9250929050565b8035600481106104b857600080fd5b60008060006060848603121561052a578283fd5b8335610535816108cf565b92506020840135610545816108cf565b929592945050506040919091013590565b60008060008060008060a0878903121561056e578182fd5b8635610579816108cf565b95506020870135610589816108cf565b94506040870135935060608701359250608087013567ffffffffffffffff808211156105b3578384fd5b818901915089601f8301126105c6578384fd5b8135818111156105d4578485fd5b8a60208285010111156105e5578485fd5b6020830194508093505050509295509295509295565b60008060008060008060808789031215610613578182fd5b61061d8888610494565b9550602087013560048110610630578283fd5b9450604087013567ffffffffffffffff8082111561064c578384fd5b6106588a838b016104be565b90965094506060890135915080821115610670578384fd5b5061067d89828a016104be565b979a9699509497509295939492505050565b6000806000806000806000806000806000806101008d8f0312156106b1578586fd5b6106bb8e8e610494565b9b506106ca8e60208f01610507565b9a5067ffffffffffffffff60408e013511156106e4578586fd5b6106f48e60408f01358f016104be565b909a50985067ffffffffffffffff60608e01351115610711578586fd5b6107218e60608f01358f016104be565b90985096506107338e60808f01610494565b95506107428e60a08f01610507565b945067ffffffffffffffff60c08e0135111561075c578384fd5b61076c8e60c08f01358f016104be565b909450925067ffffffffffffffff60e08e01351115610789578081fd5b6107998e60e08f01358f016104be565b81935080925050509295989b509295989b509295989b565b9283527fffffffffffffffffffffffffffffffffffffffff000000000000000000000000606092831b81166020850152911b16603482015260480190565b73ffffffffffffffffffffffffffffffffffffffff91909116815260200190565b6000602080835283518082850152825b8181101561083c57858101830151858201604001528201610820565b8181111561084d5783604083870101525b50601f017fffffffffffffffffffffffffffffffffffffffffffffffffffffffffffffffe016929092016040019392505050565b6020808252600e908201527f4641494c5f545249474745524544000000000000000000000000000000000000604082015260600190565b90815260200190565b918252602082015260400190565b73ffffffffffffffffffffffffffffffffffffffff811681146101e657600080fdfea264697066735822122025ea0449d7b59898caa8cc8c945c914ee5e36d4308ead5dc70657bde9606e7b464736f6c634300060c0033",
                "opcodes": "PUSH1 0x80 PUSH1 0x40 MSTORE CALLVALUE DUP1 ISZERO PUSH3 0x11 JUMPI PUSH1 0x0 DUP1 REVERT JUMPDEST POP PUSH1 0x40 MLOAD PUSH3 0x20 SWAP1 PUSH3 0x148 JUMP JUMPDEST PUSH1 0x40 MLOAD DUP1 SWAP2 SUB SWAP1 PUSH1 0x0 CREATE DUP1 ISZERO DUP1 ISZERO PUSH3 0x3D JUMPI RETURNDATASIZE PUSH1 0x0 DUP1 RETURNDATACOPY RETURNDATASIZE PUSH1 0x0 REVERT JUMPDEST POP PUSH1 0x0 DUP1 SLOAD PUSH1 0x1 PUSH1 0x1 PUSH1 0xA0 SHL SUB NOT AND PUSH1 0x1 PUSH1 0x1 PUSH1 0xA0 SHL SUB SWAP3 SWAP1 SWAP3 AND SWAP2 SWAP1 SWAP2 OR SWAP1 SSTORE PUSH1 0x40 MLOAD PUSH3 0x6C SWAP1 PUSH3 0x156 JUMP JUMPDEST PUSH1 0x40 MLOAD DUP1 SWAP2 SUB SWAP1 PUSH1 0x0 CREATE DUP1 ISZERO DUP1 ISZERO PUSH3 0x89 JUMPI RETURNDATASIZE PUSH1 0x0 DUP1 RETURNDATACOPY RETURNDATASIZE PUSH1 0x0 REVERT JUMPDEST POP PUSH1 0x1 DUP1 SLOAD PUSH1 0x1 PUSH1 0x1 PUSH1 0xA0 SHL SUB NOT AND PUSH1 0x1 PUSH1 0x1 PUSH1 0xA0 SHL SUB SWAP3 SWAP1 SWAP3 AND SWAP2 SWAP1 SWAP2 OR SWAP1 SSTORE PUSH1 0x40 MLOAD PUSH3 0xB8 SWAP1 PUSH3 0x164 JUMP JUMPDEST PUSH1 0x40 MLOAD DUP1 SWAP2 SUB SWAP1 PUSH1 0x0 CREATE DUP1 ISZERO DUP1 ISZERO PUSH3 0xD5 JUMPI RETURNDATASIZE PUSH1 0x0 DUP1 RETURNDATACOPY RETURNDATASIZE PUSH1 0x0 REVERT JUMPDEST POP PUSH1 0x2 DUP1 SLOAD PUSH1 0x1 PUSH1 0x1 PUSH1 0xA0 SHL SUB NOT AND PUSH1 0x1 PUSH1 0x1 PUSH1 0xA0 SHL SUB SWAP3 SWAP1 SWAP3 AND SWAP2 SWAP1 SWAP2 OR SWAP1 SSTORE PUSH1 0x40 MLOAD PUSH3 0x104 SWAP1 PUSH3 0x172 JUMP JUMPDEST PUSH1 0x40 MLOAD DUP1 SWAP2 SUB SWAP1 PUSH1 0x0 CREATE DUP1 ISZERO DUP1 ISZERO PUSH3 0x121 JUMPI RETURNDATASIZE PUSH1 0x0 DUP1 RETURNDATACOPY RETURNDATASIZE PUSH1 0x0 REVERT JUMPDEST POP PUSH1 0x3 DUP1 SLOAD PUSH1 0x1 PUSH1 0x1 PUSH1 0xA0 SHL SUB NOT AND PUSH1 0x1 PUSH1 0x1 PUSH1 0xA0 SHL SUB SWAP3 SWAP1 SWAP3 AND SWAP2 SWAP1 SWAP2 OR SWAP1 SSTORE PUSH3 0x180 JUMP JUMPDEST PUSH2 0x8D0 DUP1 PUSH3 0x7831 DUP4 CODECOPY ADD SWAP1 JUMP JUMPDEST PUSH2 0x88D DUP1 PUSH3 0x8101 DUP4 CODECOPY ADD SWAP1 JUMP JUMPDEST PUSH2 0x50E DUP1 PUSH3 0x898E DUP4 CODECOPY ADD SWAP1 JUMP JUMPDEST PUSH2 0x947 DUP1 PUSH3 0x8E9C DUP4 CODECOPY ADD SWAP1 JUMP JUMPDEST PUSH2 0x76A1 DUP1 PUSH3 0x190 PUSH1 0x0 CODECOPY PUSH1 0x0 RETURN INVALID PUSH1 0x80 PUSH1 0x40 MSTORE PUSH1 0x4 CALLDATASIZE LT PUSH2 0x2E7 JUMPI PUSH1 0x0 CALLDATALOAD PUSH1 0xE0 SHR DUP1 PUSH4 0x742BD050 GT PUSH2 0x184 JUMPI DUP1 PUSH4 0xCA7893BA GT PUSH2 0xD6 JUMPI DUP1 PUSH4 0xE68248F7 GT PUSH2 0x8A JUMPI DUP1 PUSH4 0xFC9FE41B GT PUSH2 0x64 JUMPI DUP1 PUSH4 0xFC9FE41B EQ PUSH2 0x85D JUMPI DUP1 PUSH4 0xFCB5C43C EQ PUSH2 0x87D JUMPI DUP1 PUSH4 0xFEA12A03 EQ PUSH2 0x8AB JUMPI PUSH2 0x2E7 JUMP JUMPDEST DUP1 PUSH4 0xE68248F7 EQ PUSH2 0x7FD JUMPI DUP1 PUSH4 0xE8E4AF09 EQ PUSH2 0x81D JUMPI DUP1 PUSH4 0xE9A8E442 EQ PUSH2 0x83D JUMPI PUSH2 0x2E7 JUMP JUMPDEST DUP1 PUSH4 0xCDB3B4AF GT PUSH2 0xBB JUMPI DUP1 PUSH4 0xCDB3B4AF EQ PUSH2 0x79D JUMPI DUP1 PUSH4 0xCF879D7E EQ PUSH2 0x7BD JUMPI DUP1 PUSH4 0xD442057B EQ PUSH2 0x7DD JUMPI PUSH2 0x2E7 JUMP JUMPDEST DUP1 PUSH4 0xCA7893BA EQ PUSH2 0x768 JUMPI DUP1 PUSH4 0xCD72D789 EQ PUSH2 0x788 JUMPI PUSH2 0x2E7 JUMP JUMPDEST DUP1 PUSH4 0xA4698417 GT PUSH2 0x138 JUMPI DUP1 PUSH4 0xBCCC34C6 GT PUSH2 0x112 JUMPI DUP1 PUSH4 0xBCCC34C6 EQ PUSH2 0x6EC JUMPI DUP1 PUSH4 0xBE5B12B4 EQ PUSH2 0x719 JUMPI DUP1 PUSH4 0xC25C4138 EQ PUSH2 0x748 JUMPI PUSH2 0x2E7 JUMP JUMPDEST DUP1 PUSH4 0xA4698417 EQ PUSH2 0x68C JUMPI DUP1 PUSH4 0xABFFC761 EQ PUSH2 0x6AC JUMPI DUP1 PUSH4 0xBC61A695 EQ PUSH2 0x6CC JUMPI PUSH2 0x2E7 JUMP JUMPDEST DUP1 PUSH4 0x9209483B GT PUSH2 0x169 JUMPI DUP1 PUSH4 0x9209483B EQ PUSH2 0x637 JUMPI DUP1 PUSH4 0x98777748 EQ PUSH2 0x657 JUMPI DUP1 PUSH4 0xA2D10BA5 EQ PUSH2 0x677 JUMPI PUSH2 0x2E7 JUMP JUMPDEST DUP1 PUSH4 0x742BD050 EQ PUSH2 0x5E8 JUMPI DUP1 PUSH4 0x8E5A0E07 EQ PUSH2 0x608 JUMPI PUSH2 0x2E7 JUMP JUMPDEST DUP1 PUSH4 0x40BC03AE GT PUSH2 0x23D JUMPI DUP1 PUSH4 0x64EE6ADE GT PUSH2 0x1F1 JUMPI DUP1 PUSH4 0x6DB8658F GT PUSH2 0x1CB JUMPI DUP1 PUSH4 0x6DB8658F EQ PUSH2 0x588 JUMPI DUP1 PUSH4 0x6DD6B78D EQ PUSH2 0x5A8 JUMPI DUP1 PUSH4 0x70BBA11A EQ PUSH2 0x5C8 JUMPI PUSH2 0x2E7 JUMP JUMPDEST DUP1 PUSH4 0x64EE6ADE EQ PUSH2 0x50D JUMPI DUP1 PUSH4 0x67B881E7 EQ PUSH2 0x52D JUMPI DUP1 PUSH4 0x68BE3CF2 EQ PUSH2 0x55B JUMPI PUSH2 0x2E7 JUMP JUMPDEST DUP1 PUSH4 0x57494B1D GT PUSH2 0x222 JUMPI DUP1 PUSH4 0x57494B1D EQ PUSH2 0x4AD JUMPI DUP1 PUSH4 0x5D5B674F EQ PUSH2 0x4CD JUMPI DUP1 PUSH4 0x60EE052A EQ PUSH2 0x4ED JUMPI PUSH2 0x2E7 JUMP JUMPDEST DUP1 PUSH4 0x40BC03AE EQ PUSH2 0x46D JUMPI DUP1 PUSH4 0x4703A7E6 EQ PUSH2 0x48D JUMPI PUSH2 0x2E7 JUMP JUMPDEST DUP1 PUSH4 0x2681F7E4 GT PUSH2 0x29F JUMPI DUP1 PUSH4 0x31268657 GT PUSH2 0x279 JUMPI DUP1 PUSH4 0x31268657 EQ PUSH2 0x40D JUMPI DUP1 PUSH4 0x39B085AD EQ PUSH2 0x42D JUMPI DUP1 PUSH4 0x3B77EBAE EQ PUSH2 0x44D JUMPI PUSH2 0x2E7 JUMP JUMPDEST DUP1 PUSH4 0x2681F7E4 EQ PUSH2 0x39D JUMPI DUP1 PUSH4 0x2CA854F3 EQ PUSH2 0x3B2 JUMPI DUP1 PUSH4 0x2D753AA4 EQ PUSH2 0x3E0 JUMPI PUSH2 0x2E7 JUMP JUMPDEST DUP1 PUSH4 0x11F2928B GT PUSH2 0x2D0 JUMPI DUP1 PUSH4 0x11F2928B EQ PUSH2 0x344 JUMPI DUP1 PUSH4 0x15E42A61 EQ PUSH2 0x34E JUMPI DUP1 PUSH4 0x1694505E EQ PUSH2 0x37B JUMPI PUSH2 0x2E7 JUMP JUMPDEST DUP1 PUSH4 0xB054F8D EQ PUSH2 0x2EC JUMPI DUP1 PUSH4 0xFE3FE5B EQ PUSH2 0x324 JUMPI JUMPDEST PUSH1 0x0 DUP1 REVERT JUMPDEST CALLVALUE DUP1 ISZERO PUSH2 0x2F8 JUMPI PUSH1 0x0 DUP1 REVERT JUMPDEST POP PUSH2 0x30C PUSH2 0x307 CALLDATASIZE PUSH1 0x4 PUSH2 0x6586 JUMP JUMPDEST PUSH2 0x8C0 JUMP JUMPDEST PUSH1 0x40 MLOAD PUSH2 0x31B SWAP4 SWAP3 SWAP2 SWAP1 PUSH2 0x6E71 JUMP JUMPDEST PUSH1 0x40 MLOAD DUP1 SWAP2 SUB SWAP1 RETURN JUMPDEST CALLVALUE DUP1 ISZERO PUSH2 0x330 JUMPI PUSH1 0x0 DUP1 REVERT JUMPDEST POP PUSH2 0x30C PUSH2 0x33F CALLDATASIZE PUSH1 0x4 PUSH2 0x6586 JUMP JUMPDEST PUSH2 0xB1A JUMP JUMPDEST PUSH2 0x34C PUSH2 0xB29 JUMP JUMPDEST STOP JUMPDEST CALLVALUE DUP1 ISZERO PUSH2 0x35A JUMPI PUSH1 0x0 DUP1 REVERT JUMPDEST POP PUSH2 0x36E PUSH2 0x369 CALLDATASIZE PUSH1 0x4 PUSH2 0x6929 JUMP JUMPDEST PUSH2 0xB6C JUMP JUMPDEST PUSH1 0x40 MLOAD PUSH2 0x31B SWAP2 SWAP1 PUSH2 0x713B JUMP JUMPDEST CALLVALUE DUP1 ISZERO PUSH2 0x387 JUMPI PUSH1 0x0 DUP1 REVERT JUMPDEST POP PUSH2 0x390 PUSH2 0xD51 JUMP JUMPDEST PUSH1 0x40 MLOAD PUSH2 0x31B SWAP2 SWAP1 PUSH2 0x6CC7 JUMP JUMPDEST CALLVALUE DUP1 ISZERO PUSH2 0x3A9 JUMPI PUSH1 0x0 DUP1 REVERT JUMPDEST POP PUSH2 0x390 PUSH2 0xD6D JUMP JUMPDEST CALLVALUE DUP1 ISZERO PUSH2 0x3BE JUMPI PUSH1 0x0 DUP1 REVERT JUMPDEST POP PUSH2 0x3D2 PUSH2 0x3CD CALLDATASIZE PUSH1 0x4 PUSH2 0x68CF JUMP JUMPDEST PUSH2 0xD89 JUMP JUMPDEST PUSH1 0x40 MLOAD PUSH2 0x31B SWAP3 SWAP2 SWAP1 PUSH2 0x71C6 JUMP JUMPDEST CALLVALUE DUP1 ISZERO PUSH2 0x3EC JUMPI PUSH1 0x0 DUP1 REVERT JUMPDEST POP PUSH2 0x400 PUSH2 0x3FB CALLDATASIZE PUSH1 0x4 PUSH2 0x62ED JUMP JUMPDEST PUSH2 0xF5E JUMP JUMPDEST PUSH1 0x40 MLOAD PUSH2 0x31B SWAP2 SWAP1 PUSH2 0x70F1 JUMP JUMPDEST CALLVALUE DUP1 ISZERO PUSH2 0x419 JUMPI PUSH1 0x0 DUP1 REVERT JUMPDEST POP PUSH2 0x34C PUSH2 0x428 CALLDATASIZE PUSH1 0x4 PUSH2 0x64EF JUMP JUMPDEST PUSH2 0x1130 JUMP JUMPDEST CALLVALUE DUP1 ISZERO PUSH2 0x439 JUMPI PUSH1 0x0 DUP1 REVERT JUMPDEST POP PUSH2 0x400 PUSH2 0x448 CALLDATASIZE PUSH1 0x4 PUSH2 0x66BB JUMP JUMPDEST PUSH2 0x11BE JUMP JUMPDEST CALLVALUE DUP1 ISZERO PUSH2 0x459 JUMPI PUSH1 0x0 DUP1 REVERT JUMPDEST POP PUSH2 0x36E PUSH2 0x468 CALLDATASIZE PUSH1 0x4 PUSH2 0x6AC6 JUMP JUMPDEST PUSH2 0x133F JUMP JUMPDEST CALLVALUE DUP1 ISZERO PUSH2 0x479 JUMPI PUSH1 0x0 DUP1 REVERT JUMPDEST POP PUSH2 0x400 PUSH2 0x488 CALLDATASIZE PUSH1 0x4 PUSH2 0x6A2A JUMP JUMPDEST PUSH2 0x1387 JUMP JUMPDEST CALLVALUE DUP1 ISZERO PUSH2 0x499 JUMPI PUSH1 0x0 DUP1 REVERT JUMPDEST POP PUSH2 0x400 PUSH2 0x4A8 CALLDATASIZE PUSH1 0x4 PUSH2 0x63E6 JUMP JUMPDEST PUSH2 0x1535 JUMP JUMPDEST CALLVALUE DUP1 ISZERO PUSH2 0x4B9 JUMPI PUSH1 0x0 DUP1 REVERT JUMPDEST POP PUSH2 0x400 PUSH2 0x4C8 CALLDATASIZE PUSH1 0x4 PUSH2 0x6373 JUMP JUMPDEST PUSH2 0x169B JUMP JUMPDEST CALLVALUE DUP1 ISZERO PUSH2 0x4D9 JUMPI PUSH1 0x0 DUP1 REVERT JUMPDEST POP PUSH2 0x400 PUSH2 0x4E8 CALLDATASIZE PUSH1 0x4 PUSH2 0x6373 JUMP JUMPDEST PUSH2 0x1CD6 JUMP JUMPDEST CALLVALUE DUP1 ISZERO PUSH2 0x4F9 JUMPI PUSH1 0x0 DUP1 REVERT JUMPDEST POP PUSH2 0x400 PUSH2 0x508 CALLDATASIZE PUSH1 0x4 PUSH2 0x63E6 JUMP JUMPDEST PUSH2 0x1E23 JUMP JUMPDEST CALLVALUE DUP1 ISZERO PUSH2 0x519 JUMPI PUSH1 0x0 DUP1 REVERT JUMPDEST POP PUSH2 0x400 PUSH2 0x528 CALLDATASIZE PUSH1 0x4 PUSH2 0x63E6 JUMP JUMPDEST PUSH2 0x20A0 JUMP JUMPDEST CALLVALUE DUP1 ISZERO PUSH2 0x539 JUMPI PUSH1 0x0 DUP1 REVERT JUMPDEST POP PUSH2 0x54D PUSH2 0x548 CALLDATASIZE PUSH1 0x4 PUSH2 0x63E6 JUMP JUMPDEST PUSH2 0x21F1 JUMP JUMPDEST PUSH1 0x40 MLOAD PUSH2 0x31B SWAP3 SWAP2 SWAP1 PUSH2 0x71EB JUMP JUMPDEST CALLVALUE DUP1 ISZERO PUSH2 0x567 JUMPI PUSH1 0x0 DUP1 REVERT JUMPDEST POP PUSH2 0x57B PUSH2 0x576 CALLDATASIZE PUSH1 0x4 PUSH2 0x64EF JUMP JUMPDEST PUSH2 0x23D8 JUMP JUMPDEST PUSH1 0x40 MLOAD PUSH2 0x31B SWAP2 SWAP1 PUSH2 0x7073 JUMP JUMPDEST CALLVALUE DUP1 ISZERO PUSH2 0x594 JUMPI PUSH1 0x0 DUP1 REVERT JUMPDEST POP PUSH2 0x36E PUSH2 0x5A3 CALLDATASIZE PUSH1 0x4 PUSH2 0x6446 JUMP JUMPDEST PUSH2 0x250A JUMP JUMPDEST CALLVALUE DUP1 ISZERO PUSH2 0x5B4 JUMPI PUSH1 0x0 DUP1 REVERT JUMPDEST POP PUSH2 0x400 PUSH2 0x5C3 CALLDATASIZE PUSH1 0x4 PUSH2 0x63E6 JUMP JUMPDEST PUSH2 0x27A7 JUMP JUMPDEST CALLVALUE DUP1 ISZERO PUSH2 0x5D4 JUMPI PUSH1 0x0 DUP1 REVERT JUMPDEST POP PUSH2 0x400 PUSH2 0x5E3 CALLDATASIZE PUSH1 0x4 PUSH2 0x6486 JUMP JUMPDEST PUSH2 0x2A0C JUMP JUMPDEST CALLVALUE DUP1 ISZERO PUSH2 0x5F4 JUMPI PUSH1 0x0 DUP1 REVERT JUMPDEST POP PUSH2 0x400 PUSH2 0x603 CALLDATASIZE PUSH1 0x4 PUSH2 0x6486 JUMP JUMPDEST PUSH2 0x2B67 JUMP JUMPDEST CALLVALUE DUP1 ISZERO PUSH2 0x614 JUMPI PUSH1 0x0 DUP1 REVERT JUMPDEST POP PUSH2 0x628 PUSH2 0x623 CALLDATASIZE PUSH1 0x4 PUSH2 0x6651 JUMP JUMPDEST PUSH2 0x2CBF JUMP JUMPDEST PUSH1 0x40 MLOAD PUSH2 0x31B SWAP4 SWAP3 SWAP2 SWAP1 PUSH2 0x730F JUMP JUMPDEST CALLVALUE DUP1 ISZERO PUSH2 0x643 JUMPI PUSH1 0x0 DUP1 REVERT JUMPDEST POP PUSH2 0x400 PUSH2 0x652 CALLDATASIZE PUSH1 0x4 PUSH2 0x6A2A JUMP JUMPDEST PUSH2 0x2EEE JUMP JUMPDEST CALLVALUE DUP1 ISZERO PUSH2 0x663 JUMPI PUSH1 0x0 DUP1 REVERT JUMPDEST POP PUSH2 0x400 PUSH2 0x672 CALLDATASIZE PUSH1 0x4 PUSH2 0x6373 JUMP JUMPDEST PUSH2 0x3129 JUMP JUMPDEST CALLVALUE DUP1 ISZERO PUSH2 0x683 JUMPI PUSH1 0x0 DUP1 REVERT JUMPDEST POP PUSH2 0x390 PUSH2 0x373D JUMP JUMPDEST CALLVALUE DUP1 ISZERO PUSH2 0x698 JUMPI PUSH1 0x0 DUP1 REVERT JUMPDEST POP PUSH2 0x400 PUSH2 0x6A7 CALLDATASIZE PUSH1 0x4 PUSH2 0x6373 JUMP JUMPDEST PUSH2 0x3759 JUMP JUMPDEST CALLVALUE DUP1 ISZERO PUSH2 0x6B8 JUMPI PUSH1 0x0 DUP1 REVERT JUMPDEST POP PUSH2 0x400 PUSH2 0x6C7 CALLDATASIZE PUSH1 0x4 PUSH2 0x652F JUMP JUMPDEST PUSH2 0x389A JUMP JUMPDEST CALLVALUE DUP1 ISZERO PUSH2 0x6D8 JUMPI PUSH1 0x0 DUP1 REVERT JUMPDEST POP PUSH2 0x400 PUSH2 0x6E7 CALLDATASIZE PUSH1 0x4 PUSH2 0x63E6 JUMP JUMPDEST PUSH2 0x3A10 JUMP JUMPDEST CALLVALUE DUP1 ISZERO PUSH2 0x6F8 JUMPI PUSH1 0x0 DUP1 REVERT JUMPDEST POP PUSH2 0x70C PUSH2 0x707 CALLDATASIZE PUSH1 0x4 PUSH2 0x6899 JUMP JUMPDEST PUSH2 0x3B5F JUMP JUMPDEST PUSH1 0x40 MLOAD PUSH2 0x31B SWAP2 SWAP1 PUSH2 0x7170 JUMP JUMPDEST CALLVALUE DUP1 ISZERO PUSH2 0x725 JUMPI PUSH1 0x0 DUP1 REVERT JUMPDEST POP PUSH2 0x739 PUSH2 0x734 CALLDATASIZE PUSH1 0x4 PUSH2 0x63E6 JUMP JUMPDEST PUSH2 0x3E98 JUMP JUMPDEST PUSH1 0x40 MLOAD PUSH2 0x31B SWAP4 SWAP3 SWAP2 SWAP1 PUSH2 0x7104 JUMP JUMPDEST CALLVALUE DUP1 ISZERO PUSH2 0x754 JUMPI PUSH1 0x0 DUP1 REVERT JUMPDEST POP PUSH2 0x400 PUSH2 0x763 CALLDATASIZE PUSH1 0x4 PUSH2 0x6373 JUMP JUMPDEST PUSH2 0x419B JUMP JUMPDEST CALLVALUE DUP1 ISZERO PUSH2 0x774 JUMPI PUSH1 0x0 DUP1 REVERT JUMPDEST POP PUSH2 0x400 PUSH2 0x783 CALLDATASIZE PUSH1 0x4 PUSH2 0x63E6 JUMP JUMPDEST PUSH2 0x4201 JUMP JUMPDEST CALLVALUE DUP1 ISZERO PUSH2 0x794 JUMPI PUSH1 0x0 DUP1 REVERT JUMPDEST POP PUSH2 0x390 PUSH2 0x4267 JUMP JUMPDEST CALLVALUE DUP1 ISZERO PUSH2 0x7A9 JUMPI PUSH1 0x0 DUP1 REVERT JUMPDEST POP PUSH2 0x54D PUSH2 0x7B8 CALLDATASIZE PUSH1 0x4 PUSH2 0x63E6 JUMP JUMPDEST PUSH2 0x427F JUMP JUMPDEST CALLVALUE DUP1 ISZERO PUSH2 0x7C9 JUMPI PUSH1 0x0 DUP1 REVERT JUMPDEST POP PUSH2 0x3D2 PUSH2 0x7D8 CALLDATASIZE PUSH1 0x4 PUSH2 0x68CF JUMP JUMPDEST PUSH2 0x43C3 JUMP JUMPDEST CALLVALUE DUP1 ISZERO PUSH2 0x7E9 JUMPI PUSH1 0x0 DUP1 REVERT JUMPDEST POP PUSH2 0x739 PUSH2 0x7F8 CALLDATASIZE PUSH1 0x4 PUSH2 0x63E6 JUMP JUMPDEST PUSH2 0x44D9 JUMP JUMPDEST CALLVALUE DUP1 ISZERO PUSH2 0x809 JUMPI PUSH1 0x0 DUP1 REVERT JUMPDEST POP PUSH2 0x400 PUSH2 0x818 CALLDATASIZE PUSH1 0x4 PUSH2 0x652F JUMP JUMPDEST PUSH2 0x47A6 JUMP JUMPDEST CALLVALUE DUP1 ISZERO PUSH2 0x829 JUMPI PUSH1 0x0 DUP1 REVERT JUMPDEST POP PUSH2 0x400 PUSH2 0x838 CALLDATASIZE PUSH1 0x4 PUSH2 0x6373 JUMP JUMPDEST PUSH2 0x4905 JUMP JUMPDEST CALLVALUE DUP1 ISZERO PUSH2 0x849 JUMPI PUSH1 0x0 DUP1 REVERT JUMPDEST POP PUSH2 0x400 PUSH2 0x858 CALLDATASIZE PUSH1 0x4 PUSH2 0x66BB JUMP JUMPDEST PUSH2 0x4A46 JUMP JUMPDEST CALLVALUE DUP1 ISZERO PUSH2 0x869 JUMPI PUSH1 0x0 DUP1 REVERT JUMPDEST POP PUSH2 0x628 PUSH2 0x878 CALLDATASIZE PUSH1 0x4 PUSH2 0x6651 JUMP JUMPDEST PUSH2 0x4AE9 JUMP JUMPDEST CALLVALUE DUP1 ISZERO PUSH2 0x889 JUMPI PUSH1 0x0 DUP1 REVERT JUMPDEST POP PUSH2 0x89D PUSH2 0x898 CALLDATASIZE PUSH1 0x4 PUSH2 0x62C0 JUMP JUMPDEST PUSH2 0x4D50 JUMP JUMPDEST PUSH1 0x40 MLOAD PUSH2 0x31B SWAP3 SWAP2 SWAP1 PUSH2 0x74BF JUMP JUMPDEST CALLVALUE DUP1 ISZERO PUSH2 0x8B7 JUMPI PUSH1 0x0 DUP1 REVERT JUMPDEST POP PUSH2 0x390 PUSH2 0x4D7F JUMP JUMPDEST PUSH1 0x0 PUSH1 0x60 DUP1 PUSH2 0x8CD PUSH2 0x4D9B JUMP JUMPDEST SWAP3 POP DUP7 MLOAD PUSH1 0x0 EQ ISZERO PUSH2 0x8DE JUMPI PUSH2 0xB10 JUMP JUMPDEST PUSH1 0x0 DUP1 JUMPDEST DUP9 MLOAD DUP2 LT ISZERO PUSH2 0x9F4 JUMPI PUSH1 0x2 DUP10 DUP3 DUP2 MLOAD DUP2 LT PUSH2 0x8F9 JUMPI INVALID JUMPDEST PUSH1 0x20 MUL PUSH1 0x20 ADD ADD MLOAD MLOAD LT ISZERO PUSH2 0x90D JUMPI PUSH2 0x9EC JUMP JUMPDEST DUP5 PUSH20 0xFFFFFFFFFFFFFFFFFFFFFFFFFFFFFFFFFFFFFFFF AND PUSH4 0x7F9C0ECD PUSH3 0x493E0 DUP12 DUP5 DUP2 MLOAD DUP2 LT PUSH2 0x939 JUMPI INVALID JUMPDEST PUSH1 0x20 MUL PUSH1 0x20 ADD ADD MLOAD DUP10 PUSH1 0x1 DUP12 MLOAD SUB DUP2 MLOAD DUP2 LT PUSH2 0x951 JUMPI INVALID JUMPDEST PUSH1 0x20 MUL PUSH1 0x20 ADD ADD MLOAD PUSH1 0x40 MLOAD DUP5 PUSH4 0xFFFFFFFF AND PUSH1 0xE0 SHL DUP2 MSTORE PUSH1 0x4 ADD PUSH2 0x976 SWAP3 SWAP2 SWAP1 PUSH2 0x7051 JUMP JUMPDEST PUSH1 0x20 PUSH1 0x40 MLOAD DUP1 DUP4 SUB DUP2 DUP8 DUP1 EXTCODESIZE ISZERO DUP1 ISZERO PUSH2 0x98E JUMPI PUSH1 0x0 DUP1 REVERT JUMPDEST POP DUP7 STATICCALL SWAP4 POP POP POP POP DUP1 ISZERO PUSH2 0x9BF JUMPI POP PUSH1 0x40 DUP1 MLOAD PUSH1 0x1F RETURNDATASIZE SWAP1 DUP2 ADD PUSH1 0x1F NOT AND DUP3 ADD SWAP1 SWAP3 MSTORE PUSH2 0x9BC SWAP2 DUP2 ADD SWAP1 PUSH2 0x6881 JUMP JUMPDEST PUSH1 0x1 JUMPDEST PUSH2 0x9C8 JUMPI PUSH2 0x9EC JUMP JUMPDEST DUP3 DUP2 GT ISZERO PUSH2 0x9EA JUMPI DUP1 SWAP3 POP DUP10 DUP3 DUP2 MLOAD DUP2 LT PUSH2 0x9DF JUMPI INVALID JUMPDEST PUSH1 0x20 MUL PUSH1 0x20 ADD ADD MLOAD SWAP5 POP JUMPDEST POP JUMPDEST PUSH1 0x1 ADD PUSH2 0x8E2 JUMP JUMPDEST POP DUP5 MLOAD DUP1 PUSH8 0xFFFFFFFFFFFFFFFF DUP2 GT DUP1 ISZERO PUSH2 0xA0E JUMPI PUSH1 0x0 DUP1 REVERT JUMPDEST POP PUSH1 0x40 MLOAD SWAP1 DUP1 DUP3 MSTORE DUP1 PUSH1 0x20 MUL PUSH1 0x20 ADD DUP3 ADD PUSH1 0x40 MSTORE DUP1 ISZERO PUSH2 0xA38 JUMPI DUP2 PUSH1 0x20 ADD PUSH1 0x20 DUP3 MUL DUP1 CALLDATASIZE DUP4 CALLDATACOPY ADD SWAP1 POP JUMPDEST POP SWAP3 POP PUSH1 0x0 JUMPDEST DUP2 DUP2 LT ISZERO PUSH2 0xB0C JUMPI DUP6 PUSH20 0xFFFFFFFFFFFFFFFFFFFFFFFFFFFFFFFFFFFFFFFF AND PUSH4 0x7F9C0ECD PUSH3 0x493E0 DUP8 DUP11 DUP6 DUP2 MLOAD DUP2 LT PUSH2 0xA73 JUMPI INVALID JUMPDEST PUSH1 0x20 MUL PUSH1 0x20 ADD ADD MLOAD PUSH1 0x40 MLOAD DUP5 PUSH4 0xFFFFFFFF AND PUSH1 0xE0 SHL DUP2 MSTORE PUSH1 0x4 ADD PUSH2 0xA98 SWAP3 SWAP2 SWAP1 PUSH2 0x7051 JUMP JUMPDEST PUSH1 0x20 PUSH1 0x40 MLOAD DUP1 DUP4 SUB DUP2 DUP8 DUP1 EXTCODESIZE ISZERO DUP1 ISZERO PUSH2 0xAB0 JUMPI PUSH1 0x0 DUP1 REVERT JUMPDEST POP DUP7 STATICCALL SWAP4 POP POP POP POP DUP1 ISZERO PUSH2 0xAE1 JUMPI POP PUSH1 0x40 DUP1 MLOAD PUSH1 0x1F RETURNDATASIZE SWAP1 DUP2 ADD PUSH1 0x1F NOT AND DUP3 ADD SWAP1 SWAP3 MSTORE PUSH2 0xADE SWAP2 DUP2 ADD SWAP1 PUSH2 0x6881 JUMP JUMPDEST PUSH1 0x1 JUMPDEST PUSH2 0xAEA JUMPI PUSH2 0xB0C JUMP JUMPDEST DUP1 DUP6 DUP4 DUP2 MLOAD DUP2 LT PUSH2 0xAF7 JUMPI INVALID JUMPDEST PUSH1 0x20 MUL PUSH1 0x20 ADD ADD DUP2 DUP2 MSTORE POP POP POP PUSH1 0x1 ADD PUSH2 0xA3E JUMP JUMPDEST POP POP POP JUMPDEST SWAP5 POP SWAP5 POP SWAP5 SWAP2 POP POP JUMP JUMPDEST PUSH1 0x0 PUSH1 0x60 DUP1 SWAP5 POP SWAP5 POP SWAP5 SWAP2 POP POP JUMP JUMPDEST PUSH1 0x40 MLOAD PUSH20 0xE9DB8717BC5DFB20AAF538B4A5A02B7791FF430C SWAP1 CALLVALUE DUP1 ISZERO PUSH2 0x8FC MUL SWAP2 PUSH1 0x0 DUP2 DUP2 DUP2 DUP6 DUP9 DUP9 CALL SWAP4 POP POP POP POP ISZERO DUP1 ISZERO PUSH2 0xB69 JUMPI RETURNDATASIZE PUSH1 0x0 DUP1 RETURNDATACOPY RETURNDATASIZE PUSH1 0x0 REVERT JUMPDEST POP JUMP JUMPDEST PUSH1 0x0 DUP5 MLOAD PUSH1 0x0 EQ ISZERO PUSH2 0xB80 JUMPI POP PUSH1 0x0 PUSH2 0xD49 JUMP JUMPDEST PUSH2 0xB88 PUSH2 0x4EB4 JUMP JUMPDEST PUSH20 0xFFFFFFFFFFFFFFFFFFFFFFFFFFFFFFFFFFFFFFFF AND PUSH4 0x418436BC PUSH3 0x7A120 PUSH2 0xBAF PUSH2 0x4ED0 JUMP JUMPDEST PUSH20 0xFFFFFFFFFFFFFFFFFFFFFFFFFFFFFFFFFFFFFFFF AND DUP8 PUSH20 0xFFFFFFFFFFFFFFFFFFFFFFFFFFFFFFFFFFFFFFFF AND EQ PUSH2 0xBE7 JUMPI DUP7 PUSH2 0xBFD JUMP JUMPDEST PUSH20 0xEEEEEEEEEEEEEEEEEEEEEEEEEEEEEEEEEEEEEEEE JUMPDEST PUSH2 0xC05 PUSH2 0x4ED0 JUMP JUMPDEST PUSH20 0xFFFFFFFFFFFFFFFFFFFFFFFFFFFFFFFFFFFFFFFF AND DUP8 PUSH20 0xFFFFFFFFFFFFFFFFFFFFFFFFFFFFFFFFFFFFFFFF AND EQ PUSH2 0xC3D JUMPI DUP7 PUSH2 0xC53 JUMP JUMPDEST PUSH20 0xEEEEEEEEEEEEEEEEEEEEEEEEEEEEEEEEEEEEEEEE JUMPDEST DUP7 PUSH1 0x0 DUP12 PUSH1 0x40 MLOAD DUP8 PUSH4 0xFFFFFFFF AND PUSH1 0xE0 SHL DUP2 MSTORE PUSH1 0x4 ADD PUSH2 0xC77 SWAP6 SWAP5 SWAP4 SWAP3 SWAP2 SWAP1 PUSH2 0x6E21 JUMP JUMPDEST PUSH1 0x20 PUSH1 0x40 MLOAD DUP1 DUP4 SUB DUP2 DUP8 DUP1 EXTCODESIZE ISZERO DUP1 ISZERO PUSH2 0xC8F JUMPI PUSH1 0x0 DUP1 REVERT JUMPDEST POP DUP7 STATICCALL SWAP4 POP POP POP POP DUP1 ISZERO PUSH2 0xCC0 JUMPI POP PUSH1 0x40 DUP1 MLOAD PUSH1 0x1F RETURNDATASIZE SWAP1 DUP2 ADD PUSH1 0x1F NOT AND DUP3 ADD SWAP1 SWAP3 MSTORE PUSH2 0xCBD SWAP2 DUP2 ADD SWAP1 PUSH2 0x6881 JUMP JUMPDEST PUSH1 0x1 JUMPDEST PUSH2 0xCFE JUMPI RETURNDATASIZE DUP1 DUP1 ISZERO PUSH2 0xCEE JUMPI PUSH1 0x40 MLOAD SWAP2 POP PUSH1 0x1F NOT PUSH1 0x3F RETURNDATASIZE ADD AND DUP3 ADD PUSH1 0x40 MSTORE RETURNDATASIZE DUP3 MSTORE RETURNDATASIZE PUSH1 0x0 PUSH1 0x20 DUP5 ADD RETURNDATACOPY PUSH2 0xCF3 JUMP JUMPDEST PUSH1 0x60 SWAP2 POP JUMPDEST POP PUSH1 0x0 SWAP2 POP POP PUSH2 0xD49 JUMP JUMPDEST PUSH1 0x0 PUSH2 0xD09 DUP6 PUSH2 0x4EE8 JUMP JUMPDEST PUSH1 0xFF AND SWAP1 POP PUSH1 0x0 PUSH2 0xD19 DUP8 PUSH2 0x4EE8 JUMP JUMPDEST PUSH1 0xFF AND SWAP1 POP PUSH8 0xDE0B6B3A7640000 DUP2 PUSH1 0xA EXP DUP4 PUSH1 0xA EXP DUP8 DUP7 MUL MUL DUP2 PUSH2 0xD3A JUMPI INVALID JUMPDEST DIV DUP2 PUSH2 0xD42 JUMPI INVALID JUMPDEST DIV SWAP4 POP POP POP POP JUMPDEST SWAP5 SWAP4 POP POP POP POP JUMP JUMPDEST PUSH1 0x1 SLOAD PUSH20 0xFFFFFFFFFFFFFFFFFFFFFFFFFFFFFFFFFFFFFFFF AND DUP2 JUMP JUMPDEST PUSH1 0x0 SLOAD PUSH20 0xFFFFFFFFFFFFFFFFFFFFFFFFFFFFFFFFFFFFFFFF AND DUP2 JUMP JUMPDEST PUSH1 0x60 DUP1 PUSH2 0xD96 DUP5 DUP7 PUSH2 0x4EFB JUMP JUMPDEST DUP3 MLOAD DUP1 PUSH8 0xFFFFFFFFFFFFFFFF DUP2 GT DUP1 ISZERO PUSH2 0xDAF JUMPI PUSH1 0x0 DUP1 REVERT JUMPDEST POP PUSH1 0x40 MLOAD SWAP1 DUP1 DUP3 MSTORE DUP1 PUSH1 0x20 MUL PUSH1 0x20 ADD DUP3 ADD PUSH1 0x40 MSTORE DUP1 ISZERO PUSH2 0xDD9 JUMPI DUP2 PUSH1 0x20 ADD PUSH1 0x20 DUP3 MUL DUP1 CALLDATASIZE DUP4 CALLDATACOPY ADD SWAP1 POP JUMPDEST POP PUSH1 0x40 MLOAD PUSH32 0xBCCC34C600000000000000000000000000000000000000000000000000000000 DUP2 MSTORE SWAP1 SWAP3 POP ADDRESS SWAP1 PUSH4 0xBCCC34C6 SWAP1 PUSH2 0xE1D SWAP1 DUP11 SWAP1 DUP11 SWAP1 DUP11 SWAP1 PUSH1 0x4 ADD PUSH2 0x7144 JUMP JUMPDEST PUSH1 0x0 PUSH1 0x40 MLOAD DUP1 DUP4 SUB DUP2 DUP7 DUP1 EXTCODESIZE ISZERO DUP1 ISZERO PUSH2 0xE35 JUMPI PUSH1 0x0 DUP1 REVERT JUMPDEST POP GAS STATICCALL ISZERO DUP1 ISZERO PUSH2 0xE49 JUMPI RETURNDATASIZE PUSH1 0x0 DUP1 RETURNDATACOPY RETURNDATASIZE PUSH1 0x0 REVERT JUMPDEST POP POP POP POP PUSH1 0x40 MLOAD RETURNDATASIZE PUSH1 0x0 DUP3 RETURNDATACOPY PUSH1 0x1F RETURNDATASIZE SWAP1 DUP2 ADD PUSH1 0x1F NOT AND DUP3 ADD PUSH1 0x40 MSTORE PUSH2 0xE71 SWAP2 SWAP1 DUP2 ADD SWAP1 PUSH2 0x68F6 JUMP JUMPDEST SWAP3 POP PUSH1 0x0 JUMPDEST DUP2 DUP2 LT ISZERO PUSH2 0xF52 JUMPI PUSH1 0x0 ADDRESS PUSH20 0xFFFFFFFFFFFFFFFFFFFFFFFFFFFFFFFFFFFFFFFF AND PUSH4 0x15E42A61 DUP7 DUP11 DUP11 DUP11 DUP8 DUP2 MLOAD DUP2 LT PUSH2 0xEAB JUMPI INVALID JUMPDEST PUSH1 0x20 MUL PUSH1 0x20 ADD ADD MLOAD PUSH1 0x40 MLOAD DUP6 PUSH4 0xFFFFFFFF AND PUSH1 0xE0 SHL DUP2 MSTORE PUSH1 0x4 ADD PUSH2 0xED2 SWAP5 SWAP4 SWAP3 SWAP2 SWAP1 PUSH2 0x7183 JUMP JUMPDEST PUSH1 0x20 PUSH1 0x40 MLOAD DUP1 DUP4 SUB DUP2 DUP7 DUP1 EXTCODESIZE ISZERO DUP1 ISZERO PUSH2 0xEEA JUMPI PUSH1 0x0 DUP1 REVERT JUMPDEST POP GAS STATICCALL ISZERO DUP1 ISZERO PUSH2 0xEFE JUMPI RETURNDATASIZE PUSH1 0x0 DUP1 RETURNDATACOPY RETURNDATASIZE PUSH1 0x0 REVERT JUMPDEST POP POP POP POP PUSH1 0x40 MLOAD RETURNDATASIZE PUSH1 0x1F NOT PUSH1 0x1F DUP3 ADD AND DUP3 ADD DUP1 PUSH1 0x40 MSTORE POP DUP2 ADD SWAP1 PUSH2 0xF22 SWAP2 SWAP1 PUSH2 0x6881 JUMP JUMPDEST SWAP1 POP DUP1 PUSH2 0xF31 JUMPI POP POP POP PUSH2 0xF55 JUMP JUMPDEST DUP1 DUP5 DUP4 DUP2 MLOAD DUP2 LT PUSH2 0xF3E JUMPI INVALID JUMPDEST PUSH1 0x20 SWAP1 DUP2 MUL SWAP2 SWAP1 SWAP2 ADD ADD MSTORE POP PUSH1 0x1 ADD PUSH2 0xE76 JUMP JUMPDEST POP POP JUMPDEST SWAP5 POP SWAP5 SWAP3 POP POP POP JUMP JUMPDEST DUP1 MLOAD PUSH1 0x60 SWAP1 DUP1 PUSH8 0xFFFFFFFFFFFFFFFF DUP2 GT DUP1 ISZERO PUSH2 0xF7A JUMPI PUSH1 0x0 DUP1 REVERT JUMPDEST POP PUSH1 0x40 MLOAD SWAP1 DUP1 DUP3 MSTORE DUP1 PUSH1 0x20 MUL PUSH1 0x20 ADD DUP3 ADD PUSH1 0x40 MSTORE DUP1 ISZERO PUSH2 0xFA4 JUMPI DUP2 PUSH1 0x20 ADD PUSH1 0x20 DUP3 MUL DUP1 CALLDATASIZE DUP4 CALLDATACOPY ADD SWAP1 POP JUMPDEST POP SWAP2 POP PUSH20 0xFFFFFFFFFFFFFFFFFFFFFFFFFFFFFFFFFFFFFFFF DUP8 AND PUSH2 0xFC8 JUMPI POP PUSH2 0x1127 JUMP JUMPDEST PUSH1 0x0 JUMPDEST DUP2 DUP2 LT ISZERO PUSH2 0x1124 JUMPI PUSH1 0x0 PUSH1 0x60 DUP10 PUSH20 0xFFFFFFFFFFFFFFFFFFFFFFFFFFFFFFFFFFFFFFFF AND PUSH3 0x61A80 PUSH4 0x6E79E133 PUSH1 0xE0 SHL DUP12 DUP12 DUP12 DUP12 DUP10 DUP2 MLOAD DUP2 LT PUSH2 0x1009 JUMPI INVALID JUMPDEST PUSH1 0x20 MUL PUSH1 0x20 ADD ADD MLOAD PUSH1 0x40 MLOAD PUSH1 0x24 ADD PUSH2 0x1024 SWAP5 SWAP4 SWAP3 SWAP2 SWAP1 PUSH2 0x6D80 JUMP JUMPDEST PUSH1 0x40 DUP1 MLOAD PUSH1 0x1F NOT DUP2 DUP5 SUB ADD DUP2 MSTORE SWAP2 DUP2 MSTORE PUSH1 0x20 DUP3 ADD DUP1 MLOAD PUSH28 0xFFFFFFFFFFFFFFFFFFFFFFFFFFFFFFFFFFFFFFFFFFFFFFFFFFFFFFFF AND PUSH32 0xFFFFFFFF00000000000000000000000000000000000000000000000000000000 SWAP1 SWAP5 AND SWAP4 SWAP1 SWAP4 OR SWAP1 SWAP3 MSTORE SWAP1 MLOAD PUSH2 0x108F SWAP2 SWAP1 PUSH2 0x6CAB JUMP JUMPDEST PUSH1 0x0 PUSH1 0x40 MLOAD DUP1 DUP4 SUB DUP2 DUP7 DUP7 STATICCALL SWAP3 POP POP POP RETURNDATASIZE DUP1 PUSH1 0x0 DUP2 EQ PUSH2 0x10CB JUMPI PUSH1 0x40 MLOAD SWAP2 POP PUSH1 0x1F NOT PUSH1 0x3F RETURNDATASIZE ADD AND DUP3 ADD PUSH1 0x40 MSTORE RETURNDATASIZE DUP3 MSTORE RETURNDATASIZE PUSH1 0x0 PUSH1 0x20 DUP5 ADD RETURNDATACOPY PUSH2 0x10D0 JUMP JUMPDEST PUSH1 0x60 SWAP2 POP JUMPDEST POP SWAP2 POP SWAP2 POP PUSH1 0x0 DUP3 ISZERO PUSH2 0x10F4 JUMPI DUP2 DUP1 PUSH1 0x20 ADD SWAP1 MLOAD DUP2 ADD SWAP1 PUSH2 0x10F1 SWAP2 SWAP1 PUSH2 0x6881 JUMP JUMPDEST SWAP1 POP JUMPDEST DUP1 PUSH2 0x1101 JUMPI POP POP POP PUSH2 0x1124 JUMP JUMPDEST DUP1 DUP7 DUP6 DUP2 MLOAD DUP2 LT PUSH2 0x110E JUMPI INVALID JUMPDEST PUSH1 0x20 SWAP1 DUP2 MUL SWAP2 SWAP1 SWAP2 ADD ADD MSTORE POP POP POP PUSH1 0x1 ADD PUSH2 0xFCB JUMP JUMPDEST POP POP JUMPDEST SWAP6 SWAP5 POP POP POP POP POP JUMP JUMPDEST PUSH1 0x0 SLOAD PUSH1 0x40 MLOAD PUSH32 0x3126865700000000000000000000000000000000000000000000000000000000 DUP2 MSTORE PUSH20 0xFFFFFFFFFFFFFFFFFFFFFFFFFFFFFFFFFFFFFFFF SWAP1 SWAP2 AND SWAP1 PUSH4 0x31268657 SWAP1 PUSH2 0x1188 SWAP1 DUP6 SWAP1 DUP6 SWAP1 PUSH1 0x4 ADD PUSH2 0x6FF6 JUMP JUMPDEST PUSH1 0x0 PUSH1 0x40 MLOAD DUP1 DUP4 SUB DUP2 PUSH1 0x0 DUP8 DUP1 EXTCODESIZE ISZERO DUP1 ISZERO PUSH2 0x11A2 JUMPI PUSH1 0x0 DUP1 REVERT JUMPDEST POP GAS CALL ISZERO DUP1 ISZERO PUSH2 0x11B6 JUMPI RETURNDATASIZE PUSH1 0x0 DUP1 RETURNDATACOPY RETURNDATASIZE PUSH1 0x0 REVERT JUMPDEST POP POP POP POP POP POP JUMP JUMPDEST PUSH1 0x60 DUP4 MLOAD PUSH8 0xFFFFFFFFFFFFFFFF DUP2 GT DUP1 ISZERO PUSH2 0x11D8 JUMPI PUSH1 0x0 DUP1 REVERT JUMPDEST POP PUSH1 0x40 MLOAD SWAP1 DUP1 DUP3 MSTORE DUP1 PUSH1 0x20 MUL PUSH1 0x20 ADD DUP3 ADD PUSH1 0x40 MSTORE DUP1 ISZERO PUSH2 0x1202 JUMPI DUP2 PUSH1 0x20 ADD PUSH1 0x20 DUP3 MUL DUP1 CALLDATASIZE DUP4 CALLDATACOPY ADD SWAP1 POP JUMPDEST POP SWAP1 POP PUSH1 0x0 JUMPDEST DUP5 MLOAD DUP2 EQ PUSH2 0x1337 JUMPI ADDRESS PUSH20 0xFFFFFFFFFFFFFFFFFFFFFFFFFFFFFFFFFFFFFFFF AND PUSH4 0x3B77EBAE PUSH3 0x30D40 DUP8 DUP5 DUP2 MLOAD DUP2 LT PUSH2 0x123C JUMPI INVALID JUMPDEST PUSH1 0x20 MUL PUSH1 0x20 ADD ADD MLOAD DUP8 DUP6 DUP2 MLOAD DUP2 LT PUSH2 0x1250 JUMPI INVALID JUMPDEST PUSH1 0x20 MUL PUSH1 0x20 ADD ADD MLOAD DUP8 PUSH1 0x40 MLOAD DUP6 PUSH4 0xFFFFFFFF AND PUSH1 0xE0 SHL DUP2 MSTORE PUSH1 0x4 ADD PUSH2 0x1277 SWAP4 SWAP3 SWAP2 SWAP1 PUSH2 0x7345 JUMP JUMPDEST PUSH1 0x20 PUSH1 0x40 MLOAD DUP1 DUP4 SUB DUP2 DUP8 DUP1 EXTCODESIZE ISZERO DUP1 ISZERO PUSH2 0x128F JUMPI PUSH1 0x0 DUP1 REVERT JUMPDEST POP DUP7 STATICCALL SWAP4 POP POP POP POP DUP1 ISZERO PUSH2 0x12C0 JUMPI POP PUSH1 0x40 DUP1 MLOAD PUSH1 0x1F RETURNDATASIZE SWAP1 DUP2 ADD PUSH1 0x1F NOT AND DUP3 ADD SWAP1 SWAP3 MSTORE PUSH2 0x12BD SWAP2 DUP2 ADD SWAP1 PUSH2 0x6881 JUMP JUMPDEST PUSH1 0x1 JUMPDEST PUSH2 0x1314 JUMPI RETURNDATASIZE DUP1 DUP1 ISZERO PUSH2 0x12EE JUMPI PUSH1 0x40 MLOAD SWAP2 POP PUSH1 0x1F NOT PUSH1 0x3F RETURNDATASIZE ADD AND DUP3 ADD PUSH1 0x40 MSTORE RETURNDATASIZE DUP3 MSTORE RETURNDATASIZE PUSH1 0x0 PUSH1 0x20 DUP5 ADD RETURNDATACOPY PUSH2 0x12F3 JUMP JUMPDEST PUSH1 0x60 SWAP2 POP JUMPDEST POP PUSH1 0x0 DUP4 DUP4 DUP2 MLOAD DUP2 LT PUSH2 0x1302 JUMPI INVALID JUMPDEST PUSH1 0x20 MUL PUSH1 0x20 ADD ADD DUP2 DUP2 MSTORE POP POP POP PUSH2 0x132F JUMP JUMPDEST DUP1 DUP4 DUP4 DUP2 MLOAD DUP2 LT PUSH2 0x1321 JUMPI INVALID JUMPDEST PUSH1 0x20 MUL PUSH1 0x20 ADD ADD DUP2 DUP2 MSTORE POP POP POP JUMPDEST PUSH1 0x1 ADD PUSH2 0x1208 JUMP JUMPDEST POP SWAP4 SWAP3 POP POP POP JUMP JUMPDEST PUSH1 0x0 DUP4 PUSH1 0xA0 ADD MLOAD DUP5 PUSH2 0x120 ADD MLOAD PUSH1 0x40 MLOAD PUSH1 0x20 ADD PUSH2 0x135C SWAP2 SWAP1 PUSH2 0x713B JUMP JUMPDEST PUSH1 0x40 MLOAD PUSH1 0x20 DUP2 DUP4 SUB SUB DUP2 MSTORE SWAP1 PUSH1 0x40 MSTORE DUP1 MLOAD SWAP1 PUSH1 0x20 ADD KECCAK256 PUSH1 0x0 SHR DUP2 PUSH2 0x137C JUMPI INVALID JUMPDEST MOD SWAP1 POP JUMPDEST SWAP4 SWAP3 POP POP POP JUMP JUMPDEST DUP1 MLOAD PUSH1 0x60 SWAP1 DUP1 PUSH8 0xFFFFFFFFFFFFFFFF DUP2 GT DUP1 ISZERO PUSH2 0x13A3 JUMPI PUSH1 0x0 DUP1 REVERT JUMPDEST POP PUSH1 0x40 MLOAD SWAP1 DUP1 DUP3 MSTORE DUP1 PUSH1 0x20 MUL PUSH1 0x20 ADD DUP3 ADD PUSH1 0x40 MSTORE DUP1 ISZERO PUSH2 0x13CD JUMPI DUP2 PUSH1 0x20 ADD PUSH1 0x20 DUP3 MUL DUP1 CALLDATASIZE DUP4 CALLDATACOPY ADD SWAP1 POP JUMPDEST POP SWAP2 POP PUSH1 0x0 JUMPDEST DUP2 DUP2 LT ISZERO PUSH2 0x152B JUMPI PUSH1 0x0 PUSH1 0x60 DUP9 PUSH1 0x0 ADD MLOAD PUSH20 0xFFFFFFFFFFFFFFFFFFFFFFFFFFFFFFFFFFFFFFFF AND PUSH3 0x1E8480 DUP11 PUSH1 0x20 ADD MLOAD DUP11 DUP11 DUP11 DUP9 DUP2 MLOAD DUP2 LT PUSH2 0x1411 JUMPI INVALID JUMPDEST PUSH1 0x20 MUL PUSH1 0x20 ADD ADD MLOAD PUSH1 0x40 MLOAD PUSH1 0x24 ADD PUSH2 0x142B SWAP4 SWAP3 SWAP2 SWAP1 PUSH2 0x724A JUMP JUMPDEST PUSH1 0x40 DUP1 MLOAD PUSH1 0x1F NOT DUP2 DUP5 SUB ADD DUP2 MSTORE SWAP2 DUP2 MSTORE PUSH1 0x20 DUP3 ADD DUP1 MLOAD PUSH28 0xFFFFFFFFFFFFFFFFFFFFFFFFFFFFFFFFFFFFFFFFFFFFFFFFFFFFFFFF AND PUSH32 0xFFFFFFFF00000000000000000000000000000000000000000000000000000000 SWAP1 SWAP5 AND SWAP4 SWAP1 SWAP4 OR SWAP1 SWAP3 MSTORE SWAP1 MLOAD PUSH2 0x1496 SWAP2 SWAP1 PUSH2 0x6CAB JUMP JUMPDEST PUSH1 0x0 PUSH1 0x40 MLOAD DUP1 DUP4 SUB DUP2 DUP7 DUP7 STATICCALL SWAP3 POP POP POP RETURNDATASIZE DUP1 PUSH1 0x0 DUP2 EQ PUSH2 0x14D2 JUMPI PUSH1 0x40 MLOAD SWAP2 POP PUSH1 0x1F NOT PUSH1 0x3F RETURNDATASIZE ADD AND DUP3 ADD PUSH1 0x40 MSTORE RETURNDATASIZE DUP3 MSTORE RETURNDATASIZE PUSH1 0x0 PUSH1 0x20 DUP5 ADD RETURNDATACOPY PUSH2 0x14D7 JUMP JUMPDEST PUSH1 0x60 SWAP2 POP JUMPDEST POP SWAP2 POP SWAP2 POP PUSH1 0x0 DUP3 ISZERO PUSH2 0x14FB JUMPI DUP2 DUP1 PUSH1 0x20 ADD SWAP1 MLOAD DUP2 ADD SWAP1 PUSH2 0x14F8 SWAP2 SWAP1 PUSH2 0x6881 JUMP JUMPDEST SWAP1 POP JUMPDEST DUP1 PUSH2 0x1508 JUMPI POP POP POP PUSH2 0x152B JUMP JUMPDEST DUP1 DUP7 DUP6 DUP2 MLOAD DUP2 LT PUSH2 0x1515 JUMPI INVALID JUMPDEST PUSH1 0x20 SWAP1 DUP2 MUL SWAP2 SWAP1 SWAP2 ADD ADD MSTORE POP POP POP PUSH1 0x1 ADD PUSH2 0x13D3 JUMP JUMPDEST POP POP SWAP5 SWAP4 POP POP POP POP JUMP JUMPDEST PUSH1 0x60 PUSH2 0x1541 DUP4 DUP6 PUSH2 0x4EFB JUMP JUMPDEST DUP2 MLOAD DUP1 PUSH8 0xFFFFFFFFFFFFFFFF DUP2 GT DUP1 ISZERO PUSH2 0x155A JUMPI PUSH1 0x0 DUP1 REVERT JUMPDEST POP PUSH1 0x40 MLOAD SWAP1 DUP1 DUP3 MSTORE DUP1 PUSH1 0x20 MUL PUSH1 0x20 ADD DUP3 ADD PUSH1 0x40 MSTORE DUP1 ISZERO PUSH2 0x1584 JUMPI DUP2 PUSH1 0x20 ADD PUSH1 0x20 DUP3 MUL DUP1 CALLDATASIZE DUP4 CALLDATACOPY ADD SWAP1 POP JUMPDEST POP SWAP2 POP PUSH1 0x0 JUMPDEST DUP2 DUP2 LT ISZERO PUSH2 0x1692 JUMPI PUSH2 0x159A PUSH2 0x4F6E JUMP JUMPDEST PUSH20 0xFFFFFFFFFFFFFFFFFFFFFFFFFFFFFFFFFFFFFFFF AND PUSH4 0xFF1FD974 PUSH3 0xF4240 DUP9 DUP9 DUP9 DUP7 DUP2 MLOAD DUP2 LT PUSH2 0x15C7 JUMPI INVALID JUMPDEST PUSH1 0x20 MUL PUSH1 0x20 ADD ADD MLOAD PUSH1 0x40 MLOAD DUP6 PUSH4 0xFFFFFFFF AND PUSH1 0xE0 SHL DUP2 MSTORE PUSH1 0x4 ADD PUSH2 0x15ED SWAP4 SWAP3 SWAP2 SWAP1 PUSH2 0x6DF0 JUMP JUMPDEST PUSH1 0x20 PUSH1 0x40 MLOAD DUP1 DUP4 SUB DUP2 DUP8 DUP1 EXTCODESIZE ISZERO DUP1 ISZERO PUSH2 0x1605 JUMPI PUSH1 0x0 DUP1 REVERT JUMPDEST POP DUP7 STATICCALL SWAP4 POP POP POP POP DUP1 ISZERO PUSH2 0x1636 JUMPI POP PUSH1 0x40 DUP1 MLOAD PUSH1 0x1F RETURNDATASIZE SWAP1 DUP2 ADD PUSH1 0x1F NOT AND DUP3 ADD SWAP1 SWAP3 MSTORE PUSH2 0x1633 SWAP2 DUP2 ADD SWAP1 PUSH2 0x6881 JUMP JUMPDEST PUSH1 0x1 JUMPDEST PUSH2 0x1670 JUMPI RETURNDATASIZE DUP1 DUP1 ISZERO PUSH2 0x1664 JUMPI PUSH1 0x40 MLOAD SWAP2 POP PUSH1 0x1F NOT PUSH1 0x3F RETURNDATASIZE ADD AND DUP3 ADD PUSH1 0x40 MSTORE RETURNDATASIZE DUP3 MSTORE RETURNDATASIZE PUSH1 0x0 PUSH1 0x20 DUP5 ADD RETURNDATACOPY PUSH2 0x1669 JUMP JUMPDEST PUSH1 0x60 SWAP2 POP JUMPDEST POP POP PUSH2 0x1692 JUMP JUMPDEST DUP1 DUP5 DUP4 DUP2 MLOAD DUP2 LT PUSH2 0x167D JUMPI INVALID JUMPDEST PUSH1 0x20 MUL PUSH1 0x20 ADD ADD DUP2 DUP2 MSTORE POP POP POP PUSH1 0x1 ADD PUSH2 0x158A JUMP JUMPDEST POP POP SWAP4 SWAP3 POP POP POP JUMP JUMPDEST DUP1 MLOAD PUSH1 0x60 SWAP1 DUP6 SWAP1 DUP1 PUSH8 0xFFFFFFFFFFFFFFFF DUP2 GT DUP1 ISZERO PUSH2 0x16B9 JUMPI PUSH1 0x0 DUP1 REVERT JUMPDEST POP PUSH1 0x40 MLOAD SWAP1 DUP1 DUP3 MSTORE DUP1 PUSH1 0x20 MUL PUSH1 0x20 ADD DUP3 ADD PUSH1 0x40 MSTORE DUP1 ISZERO PUSH2 0x16E3 JUMPI DUP2 PUSH1 0x20 ADD PUSH1 0x20 DUP3 MUL DUP1 CALLDATASIZE DUP4 CALLDATACOPY ADD SWAP1 POP JUMPDEST POP PUSH1 0x40 MLOAD PUSH32 0x2F37B62400000000000000000000000000000000000000000000000000000000 DUP2 MSTORE SWAP1 SWAP4 POP PUSH20 0xFFFFFFFFFFFFFFFFFFFFFFFFFFFFFFFFFFFFFFFF DUP4 AND SWAP1 PUSH4 0x2F37B624 SWAP1 PUSH2 0x1739 SWAP1 DUP10 SWAP1 PUSH1 0x4 ADD PUSH2 0x6CC7 JUMP JUMPDEST PUSH1 0x20 PUSH1 0x40 MLOAD DUP1 DUP4 SUB DUP2 DUP7 DUP1 EXTCODESIZE ISZERO DUP1 ISZERO PUSH2 0x1751 JUMPI PUSH1 0x0 DUP1 REVERT JUMPDEST POP GAS STATICCALL ISZERO DUP1 ISZERO PUSH2 0x1765 JUMPI RETURNDATASIZE PUSH1 0x0 DUP1 RETURNDATACOPY RETURNDATASIZE PUSH1 0x0 REVERT JUMPDEST POP POP POP POP PUSH1 0x40 MLOAD RETURNDATASIZE PUSH1 0x1F NOT PUSH1 0x1F DUP3 ADD AND DUP3 ADD DUP1 PUSH1 0x40 MSTORE POP DUP2 ADD SWAP1 PUSH2 0x1789 SWAP2 SWAP1 PUSH2 0x680D JUMP JUMPDEST ISZERO DUP1 PUSH2 0x1834 JUMPI POP PUSH1 0x40 MLOAD PUSH32 0x2F37B62400000000000000000000000000000000000000000000000000000000 DUP2 MSTORE PUSH20 0xFFFFFFFFFFFFFFFFFFFFFFFFFFFFFFFFFFFFFFFF DUP4 AND SWAP1 PUSH4 0x2F37B624 SWAP1 PUSH2 0x17E2 SWAP1 DUP9 SWAP1 PUSH1 0x4 ADD PUSH2 0x6CC7 JUMP JUMPDEST PUSH1 0x20 PUSH1 0x40 MLOAD DUP1 DUP4 SUB DUP2 DUP7 DUP1 EXTCODESIZE ISZERO DUP1 ISZERO PUSH2 0x17FA JUMPI PUSH1 0x0 DUP1 REVERT JUMPDEST POP GAS STATICCALL ISZERO DUP1 ISZERO PUSH2 0x180E JUMPI RETURNDATASIZE PUSH1 0x0 DUP1 RETURNDATACOPY RETURNDATASIZE PUSH1 0x0 REVERT JUMPDEST POP POP POP POP PUSH1 0x40 MLOAD RETURNDATASIZE PUSH1 0x1F NOT PUSH1 0x1F DUP3 ADD AND DUP3 ADD DUP1 PUSH1 0x40 MSTORE POP DUP2 ADD SWAP1 PUSH2 0x1832 SWAP2 SWAP1 PUSH2 0x680D JUMP JUMPDEST ISZERO JUMPDEST ISZERO PUSH2 0x1840 JUMPI POP POP PUSH2 0xD49 JUMP JUMPDEST PUSH2 0x1848 PUSH2 0x5E0A JUMP JUMPDEST PUSH1 0x40 MLOAD PUSH32 0xF8B2CB4F00000000000000000000000000000000000000000000000000000000 DUP2 MSTORE PUSH20 0xFFFFFFFFFFFFFFFFFFFFFFFFFFFFFFFFFFFFFFFF DUP5 AND SWAP1 PUSH4 0xF8B2CB4F SWAP1 PUSH2 0x189A SWAP1 DUP11 SWAP1 PUSH1 0x4 ADD PUSH2 0x6CC7 JUMP JUMPDEST PUSH1 0x20 PUSH1 0x40 MLOAD DUP1 DUP4 SUB DUP2 DUP7 DUP1 EXTCODESIZE ISZERO DUP1 ISZERO PUSH2 0x18B2 JUMPI PUSH1 0x0 DUP1 REVERT JUMPDEST POP GAS STATICCALL ISZERO DUP1 ISZERO PUSH2 0x18C6 JUMPI RETURNDATASIZE PUSH1 0x0 DUP1 RETURNDATACOPY RETURNDATASIZE PUSH1 0x0 REVERT JUMPDEST POP POP POP POP PUSH1 0x40 MLOAD RETURNDATASIZE PUSH1 0x1F NOT PUSH1 0x1F DUP3 ADD AND DUP3 ADD DUP1 PUSH1 0x40 MSTORE POP DUP2 ADD SWAP1 PUSH2 0x18EA SWAP2 SWAP1 PUSH2 0x6881 JUMP JUMPDEST DUP2 MSTORE PUSH1 0x40 MLOAD PUSH32 0xF8B2CB4F00000000000000000000000000000000000000000000000000000000 DUP2 MSTORE PUSH20 0xFFFFFFFFFFFFFFFFFFFFFFFFFFFFFFFFFFFFFFFF DUP5 AND SWAP1 PUSH4 0xF8B2CB4F SWAP1 PUSH2 0x193E SWAP1 DUP10 SWAP1 PUSH1 0x4 ADD PUSH2 0x6CC7 JUMP JUMPDEST PUSH1 0x20 PUSH1 0x40 MLOAD DUP1 DUP4 SUB DUP2 DUP7 DUP1 EXTCODESIZE ISZERO DUP1 ISZERO PUSH2 0x1956 JUMPI PUSH1 0x0 DUP1 REVERT JUMPDEST POP GAS STATICCALL ISZERO DUP1 ISZERO PUSH2 0x196A JUMPI RETURNDATASIZE PUSH1 0x0 DUP1 RETURNDATACOPY RETURNDATASIZE PUSH1 0x0 REVERT JUMPDEST POP POP POP POP PUSH1 0x40 MLOAD RETURNDATASIZE PUSH1 0x1F NOT PUSH1 0x1F DUP3 ADD AND DUP3 ADD DUP1 PUSH1 0x40 MSTORE POP DUP2 ADD SWAP1 PUSH2 0x198E SWAP2 SWAP1 PUSH2 0x6881 JUMP JUMPDEST PUSH1 0x20 DUP3 ADD MSTORE PUSH1 0x40 MLOAD PUSH32 0x948D8CE600000000000000000000000000000000000000000000000000000000 DUP2 MSTORE PUSH20 0xFFFFFFFFFFFFFFFFFFFFFFFFFFFFFFFFFFFFFFFF DUP5 AND SWAP1 PUSH4 0x948D8CE6 SWAP1 PUSH2 0x19E5 SWAP1 DUP11 SWAP1 PUSH1 0x4 ADD PUSH2 0x6CC7 JUMP JUMPDEST PUSH1 0x20 PUSH1 0x40 MLOAD DUP1 DUP4 SUB DUP2 DUP7 DUP1 EXTCODESIZE ISZERO DUP1 ISZERO PUSH2 0x19FD JUMPI PUSH1 0x0 DUP1 REVERT JUMPDEST POP GAS STATICCALL ISZERO DUP1 ISZERO PUSH2 0x1A11 JUMPI RETURNDATASIZE PUSH1 0x0 DUP1 RETURNDATACOPY RETURNDATASIZE PUSH1 0x0 REVERT JUMPDEST POP POP POP POP PUSH1 0x40 MLOAD RETURNDATASIZE PUSH1 0x1F NOT PUSH1 0x1F DUP3 ADD AND DUP3 ADD DUP1 PUSH1 0x40 MSTORE POP DUP2 ADD SWAP1 PUSH2 0x1A35 SWAP2 SWAP1 PUSH2 0x6881 JUMP JUMPDEST PUSH1 0x40 DUP1 DUP4 ADD SWAP2 SWAP1 SWAP2 MSTORE MLOAD PUSH32 0x948D8CE600000000000000000000000000000000000000000000000000000000 DUP2 MSTORE PUSH20 0xFFFFFFFFFFFFFFFFFFFFFFFFFFFFFFFFFFFFFFFF DUP5 AND SWAP1 PUSH4 0x948D8CE6 SWAP1 PUSH2 0x1A8E SWAP1 DUP10 SWAP1 PUSH1 0x4 ADD PUSH2 0x6CC7 JUMP JUMPDEST PUSH1 0x20 PUSH1 0x40 MLOAD DUP1 DUP4 SUB DUP2 DUP7 DUP1 EXTCODESIZE ISZERO DUP1 ISZERO PUSH2 0x1AA6 JUMPI PUSH1 0x0 DUP1 REVERT JUMPDEST POP GAS STATICCALL ISZERO DUP1 ISZERO PUSH2 0x1ABA JUMPI RETURNDATASIZE PUSH1 0x0 DUP1 RETURNDATACOPY RETURNDATASIZE PUSH1 0x0 REVERT JUMPDEST POP POP POP POP PUSH1 0x40 MLOAD RETURNDATASIZE PUSH1 0x1F NOT PUSH1 0x1F DUP3 ADD AND DUP3 ADD DUP1 PUSH1 0x40 MSTORE POP DUP2 ADD SWAP1 PUSH2 0x1ADE SWAP2 SWAP1 PUSH2 0x6881 JUMP JUMPDEST DUP2 PUSH1 0x60 ADD DUP2 DUP2 MSTORE POP POP DUP3 PUSH20 0xFFFFFFFFFFFFFFFFFFFFFFFFFFFFFFFFFFFFFFFF AND PUSH4 0xD4CADF68 PUSH1 0x40 MLOAD DUP2 PUSH4 0xFFFFFFFF AND PUSH1 0xE0 SHL DUP2 MSTORE PUSH1 0x4 ADD PUSH1 0x20 PUSH1 0x40 MLOAD DUP1 DUP4 SUB DUP2 DUP7 DUP1 EXTCODESIZE ISZERO DUP1 ISZERO PUSH2 0x1B2D JUMPI PUSH1 0x0 DUP1 REVERT JUMPDEST POP GAS STATICCALL ISZERO DUP1 ISZERO PUSH2 0x1B41 JUMPI RETURNDATASIZE PUSH1 0x0 DUP1 RETURNDATACOPY RETURNDATASIZE PUSH1 0x0 REVERT JUMPDEST POP POP POP POP PUSH1 0x40 MLOAD RETURNDATASIZE PUSH1 0x1F NOT PUSH1 0x1F DUP3 ADD AND DUP3 ADD DUP1 PUSH1 0x40 MSTORE POP DUP2 ADD SWAP1 PUSH2 0x1B65 SWAP2 SWAP1 PUSH2 0x6881 JUMP JUMPDEST PUSH1 0x80 DUP3 ADD MSTORE PUSH1 0x0 JUMPDEST DUP3 DUP2 LT ISZERO PUSH2 0x1CCA JUMPI PUSH2 0x1B98 DUP3 PUSH1 0x20 ADD MLOAD PUSH1 0x3 PUSH8 0xDE0B6B3A7640000 DUP2 PUSH2 0x1B8F JUMPI INVALID JUMPDEST DIV PUSH1 0x1 ADD PUSH2 0x4F8A JUMP JUMPDEST DUP7 DUP3 DUP2 MLOAD DUP2 LT PUSH2 0x1BA4 JUMPI INVALID JUMPDEST PUSH1 0x20 MUL PUSH1 0x20 ADD ADD MLOAD GT ISZERO PUSH2 0x1BB7 JUMPI PUSH2 0x1CCA JUMP JUMPDEST DUP4 PUSH20 0xFFFFFFFFFFFFFFFFFFFFFFFFFFFFFFFFFFFFFFFF AND PUSH4 0xF8D6AED4 PUSH3 0x493E0 DUP5 PUSH1 0x0 ADD MLOAD DUP6 PUSH1 0x40 ADD MLOAD DUP7 PUSH1 0x20 ADD MLOAD DUP8 PUSH1 0x60 ADD MLOAD DUP13 DUP9 DUP2 MLOAD DUP2 LT PUSH2 0x1BF7 JUMPI INVALID JUMPDEST PUSH1 0x20 MUL PUSH1 0x20 ADD ADD MLOAD DUP10 PUSH1 0x80 ADD MLOAD PUSH1 0x40 MLOAD DUP9 PUSH4 0xFFFFFFFF AND PUSH1 0xE0 SHL DUP2 MSTORE PUSH1 0x4 ADD PUSH2 0x1C25 SWAP7 SWAP6 SWAP5 SWAP4 SWAP3 SWAP2 SWAP1 PUSH2 0x74CD JUMP JUMPDEST PUSH1 0x20 PUSH1 0x40 MLOAD DUP1 DUP4 SUB DUP2 DUP8 DUP1 EXTCODESIZE ISZERO DUP1 ISZERO PUSH2 0x1C3D JUMPI PUSH1 0x0 DUP1 REVERT JUMPDEST POP DUP7 STATICCALL SWAP4 POP POP POP POP DUP1 ISZERO PUSH2 0x1C6E JUMPI POP PUSH1 0x40 DUP1 MLOAD PUSH1 0x1F RETURNDATASIZE SWAP1 DUP2 ADD PUSH1 0x1F NOT AND DUP3 ADD SWAP1 SWAP3 MSTORE PUSH2 0x1C6B SWAP2 DUP2 ADD SWAP1 PUSH2 0x6881 JUMP JUMPDEST PUSH1 0x1 JUMPDEST PUSH2 0x1CA8 JUMPI RETURNDATASIZE DUP1 DUP1 ISZERO PUSH2 0x1C9C JUMPI PUSH1 0x40 MLOAD SWAP2 POP PUSH1 0x1F NOT PUSH1 0x3F RETURNDATASIZE ADD AND DUP3 ADD PUSH1 0x40 MSTORE RETURNDATASIZE DUP3 MSTORE RETURNDATASIZE PUSH1 0x0 PUSH1 0x20 DUP5 ADD RETURNDATACOPY PUSH2 0x1CA1 JUMP JUMPDEST PUSH1 0x60 SWAP2 POP JUMPDEST POP POP PUSH2 0x1CCA JUMP JUMPDEST DUP1 DUP7 DUP4 DUP2 MLOAD DUP2 LT PUSH2 0x1CB5 JUMPI INVALID JUMPDEST PUSH1 0x20 MUL PUSH1 0x20 ADD ADD DUP2 DUP2 MSTORE POP POP POP PUSH1 0x1 ADD PUSH2 0x1B6D JUMP JUMPDEST POP POP POP POP SWAP5 SWAP4 POP POP POP POP JUMP JUMPDEST DUP1 MLOAD PUSH1 0x60 SWAP1 DUP1 PUSH8 0xFFFFFFFFFFFFFFFF DUP2 GT DUP1 ISZERO PUSH2 0x1CF2 JUMPI PUSH1 0x0 DUP1 REVERT JUMPDEST POP PUSH1 0x40 MLOAD SWAP1 DUP1 DUP3 MSTORE DUP1 PUSH1 0x20 MUL PUSH1 0x20 ADD DUP3 ADD PUSH1 0x40 MSTORE DUP1 ISZERO PUSH2 0x1D1C JUMPI DUP2 PUSH1 0x20 ADD PUSH1 0x20 DUP3 MUL DUP1 CALLDATASIZE DUP4 CALLDATACOPY ADD SWAP1 POP JUMPDEST POP SWAP2 POP PUSH1 0x0 JUMPDEST DUP2 DUP2 LT ISZERO PUSH2 0x152B JUMPI DUP7 PUSH20 0xFFFFFFFFFFFFFFFFFFFFFFFFFFFFFFFFFFFFFFFF AND PUSH4 0x525D0DA7 PUSH3 0x493E0 DUP9 DUP9 DUP9 DUP7 DUP2 MLOAD DUP2 LT PUSH2 0x1D58 JUMPI INVALID JUMPDEST PUSH1 0x20 MUL PUSH1 0x20 ADD ADD MLOAD PUSH1 0x40 MLOAD DUP6 PUSH4 0xFFFFFFFF AND PUSH1 0xE0 SHL DUP2 MSTORE PUSH1 0x4 ADD PUSH2 0x1D7E SWAP4 SWAP3 SWAP2 SWAP1 PUSH2 0x6DF0 JUMP JUMPDEST PUSH1 0x20 PUSH1 0x40 MLOAD DUP1 DUP4 SUB DUP2 DUP8 DUP1 EXTCODESIZE ISZERO DUP1 ISZERO PUSH2 0x1D96 JUMPI PUSH1 0x0 DUP1 REVERT JUMPDEST POP DUP7 STATICCALL SWAP4 POP POP POP POP DUP1 ISZERO PUSH2 0x1DC7 JUMPI POP PUSH1 0x40 DUP1 MLOAD PUSH1 0x1F RETURNDATASIZE SWAP1 DUP2 ADD PUSH1 0x1F NOT AND DUP3 ADD SWAP1 SWAP3 MSTORE PUSH2 0x1DC4 SWAP2 DUP2 ADD SWAP1 PUSH2 0x6881 JUMP JUMPDEST PUSH1 0x1 JUMPDEST PUSH2 0x1E01 JUMPI RETURNDATASIZE DUP1 DUP1 ISZERO PUSH2 0x1DF5 JUMPI PUSH1 0x40 MLOAD SWAP2 POP PUSH1 0x1F NOT PUSH1 0x3F RETURNDATASIZE ADD AND DUP3 ADD PUSH1 0x40 MSTORE RETURNDATASIZE DUP3 MSTORE RETURNDATASIZE PUSH1 0x0 PUSH1 0x20 DUP5 ADD RETURNDATACOPY PUSH2 0x1DFA JUMP JUMPDEST PUSH1 0x60 SWAP2 POP JUMPDEST POP POP PUSH2 0x152B JUMP JUMPDEST DUP1 DUP5 DUP4 DUP2 MLOAD DUP2 LT PUSH2 0x1E0E JUMPI INVALID JUMPDEST PUSH1 0x20 MUL PUSH1 0x20 ADD ADD DUP2 DUP2 MSTORE POP POP POP PUSH1 0x1 ADD PUSH2 0x1D22 JUMP JUMPDEST PUSH1 0x60 PUSH2 0x1E2F DUP4 DUP6 PUSH2 0x4EFB JUMP JUMPDEST DUP2 MLOAD DUP1 PUSH8 0xFFFFFFFFFFFFFFFF DUP2 GT DUP1 ISZERO PUSH2 0x1E48 JUMPI PUSH1 0x0 DUP1 REVERT JUMPDEST POP PUSH1 0x40 MLOAD SWAP1 DUP1 DUP3 MSTORE DUP1 PUSH1 0x20 MUL PUSH1 0x20 ADD DUP3 ADD PUSH1 0x40 MSTORE DUP1 ISZERO PUSH2 0x1E72 JUMPI DUP2 PUSH1 0x20 ADD PUSH1 0x20 DUP3 MUL DUP1 CALLDATASIZE DUP4 CALLDATACOPY ADD SWAP1 POP JUMPDEST POP SWAP2 POP PUSH1 0x0 PUSH2 0x1E7F PUSH2 0x4ED0 JUMP JUMPDEST PUSH20 0xFFFFFFFFFFFFFFFFFFFFFFFFFFFFFFFFFFFFFFFF AND DUP7 PUSH20 0xFFFFFFFFFFFFFFFFFFFFFFFFFFFFFFFFFFFFFFFF AND EQ PUSH2 0x1EBF JUMPI PUSH2 0x1EBA DUP7 PUSH2 0x4FE9 JUMP JUMPDEST PUSH2 0x1EC2 JUMP JUMPDEST PUSH1 0x0 JUMPDEST SWAP1 POP PUSH1 0x0 PUSH2 0x1ECE PUSH2 0x4ED0 JUMP JUMPDEST PUSH20 0xFFFFFFFFFFFFFFFFFFFFFFFFFFFFFFFFFFFFFFFF AND DUP7 PUSH20 0xFFFFFFFFFFFFFFFFFFFFFFFFFFFFFFFFFFFFFFFF AND EQ PUSH2 0x1F0E JUMPI PUSH2 0x1F09 DUP7 PUSH2 0x4FE9 JUMP JUMPDEST PUSH2 0x1F11 JUMP JUMPDEST PUSH1 0x0 JUMPDEST SWAP1 POP PUSH1 0x0 JUMPDEST DUP4 DUP2 LT ISZERO PUSH2 0x2095 JUMPI PUSH1 0x1 PUSH2 0x1F28 PUSH2 0x4ED0 JUMP JUMPDEST PUSH20 0xFFFFFFFFFFFFFFFFFFFFFFFFFFFFFFFFFFFFFFFF AND DUP9 PUSH20 0xFFFFFFFFFFFFFFFFFFFFFFFFFFFFFFFFFFFFFFFF AND EQ ISZERO PUSH2 0x1FA1 JUMPI PUSH2 0x1F80 DUP5 PUSH4 0x2640F62C PUSH1 0xE0 SHL DUP10 DUP6 DUP2 MLOAD DUP2 LT PUSH2 0x1F73 JUMPI INVALID JUMPDEST PUSH1 0x20 MUL PUSH1 0x20 ADD ADD MLOAD PUSH2 0x507B JUMP JUMPDEST DUP8 DUP5 DUP2 MLOAD DUP2 LT PUSH2 0x1F8C JUMPI INVALID JUMPDEST PUSH1 0x20 MUL PUSH1 0x20 ADD ADD DUP2 SWAP4 POP DUP3 DUP2 MSTORE POP POP POP PUSH2 0x2081 JUMP JUMPDEST PUSH2 0x1FA9 PUSH2 0x4ED0 JUMP JUMPDEST PUSH20 0xFFFFFFFFFFFFFFFFFFFFFFFFFFFFFFFFFFFFFFFF AND DUP10 PUSH20 0xFFFFFFFFFFFFFFFFFFFFFFFFFFFFFFFFFFFFFFFF AND EQ ISZERO PUSH2 0x1FF4 JUMPI PUSH2 0x1F80 DUP4 PUSH4 0x59E94862 PUSH1 0xE0 SHL DUP10 DUP6 DUP2 MLOAD DUP2 LT PUSH2 0x1F73 JUMPI INVALID JUMPDEST PUSH1 0x0 PUSH2 0x200E DUP5 PUSH4 0x59E94862 PUSH1 0xE0 SHL DUP11 DUP7 DUP2 MLOAD DUP2 LT PUSH2 0x1F73 JUMPI INVALID JUMPDEST SWAP3 POP SWAP1 POP DUP1 ISZERO PUSH2 0x2064 JUMPI PUSH2 0x2043 DUP6 PUSH32 0x2640F62C00000000000000000000000000000000000000000000000000000000 DUP4 PUSH2 0x507B JUMP JUMPDEST DUP9 DUP6 DUP2 MLOAD DUP2 LT PUSH2 0x204F JUMPI INVALID JUMPDEST PUSH1 0x20 MUL PUSH1 0x20 ADD ADD DUP2 SWAP5 POP DUP3 DUP2 MSTORE POP POP POP PUSH2 0x207F JUMP JUMPDEST PUSH1 0x0 DUP8 DUP5 DUP2 MLOAD DUP2 LT PUSH2 0x2072 JUMPI INVALID JUMPDEST PUSH1 0x20 MUL PUSH1 0x20 ADD ADD DUP2 DUP2 MSTORE POP POP JUMPDEST POP JUMPDEST DUP1 PUSH2 0x208C JUMPI POP PUSH2 0x2095 JUMP JUMPDEST POP PUSH1 0x1 ADD PUSH2 0x1F16 JUMP JUMPDEST POP POP POP POP SWAP4 SWAP3 POP POP POP JUMP JUMPDEST PUSH1 0x60 PUSH2 0x20AC DUP4 DUP6 PUSH2 0x4EFB JUMP JUMPDEST DUP2 MLOAD DUP1 PUSH8 0xFFFFFFFFFFFFFFFF DUP2 GT DUP1 ISZERO PUSH2 0x20C5 JUMPI PUSH1 0x0 DUP1 REVERT JUMPDEST POP PUSH1 0x40 MLOAD SWAP1 DUP1 DUP3 MSTORE DUP1 PUSH1 0x20 MUL PUSH1 0x20 ADD DUP3 ADD PUSH1 0x40 MSTORE DUP1 ISZERO PUSH2 0x20EF JUMPI DUP2 PUSH1 0x20 ADD PUSH1 0x20 DUP3 MUL DUP1 CALLDATASIZE DUP4 CALLDATACOPY ADD SWAP1 POP JUMPDEST POP SWAP2 POP PUSH1 0x0 JUMPDEST DUP2 DUP2 LT ISZERO PUSH2 0x1692 JUMPI PUSH2 0x2105 PUSH2 0x4F6E JUMP JUMPDEST PUSH20 0xFFFFFFFFFFFFFFFFFFFFFFFFFFFFFFFFFFFFFFFF AND PUSH4 0x144A2752 PUSH3 0xF4240 DUP8 DUP10 DUP9 DUP7 DUP2 MLOAD DUP2 LT PUSH2 0x2132 JUMPI INVALID JUMPDEST PUSH1 0x20 MUL PUSH1 0x20 ADD ADD MLOAD PUSH1 0x40 MLOAD DUP6 PUSH4 0xFFFFFFFF AND PUSH1 0xE0 SHL DUP2 MSTORE PUSH1 0x4 ADD PUSH2 0x2158 SWAP4 SWAP3 SWAP2 SWAP1 PUSH2 0x6DF0 JUMP JUMPDEST PUSH1 0x20 PUSH1 0x40 MLOAD DUP1 DUP4 SUB DUP2 DUP8 DUP1 EXTCODESIZE ISZERO DUP1 ISZERO PUSH2 0x2170 JUMPI PUSH1 0x0 DUP1 REVERT JUMPDEST POP DUP7 STATICCALL SWAP4 POP POP POP POP DUP1 ISZERO PUSH2 0x21A1 JUMPI POP PUSH1 0x40 DUP1 MLOAD PUSH1 0x1F RETURNDATASIZE SWAP1 DUP2 ADD PUSH1 0x1F NOT AND DUP3 ADD SWAP1 SWAP3 MSTORE PUSH2 0x219E SWAP2 DUP2 ADD SWAP1 PUSH2 0x6881 JUMP JUMPDEST PUSH1 0x1 JUMPDEST PUSH2 0x21CF JUMPI RETURNDATASIZE DUP1 DUP1 ISZERO PUSH2 0x1664 JUMPI PUSH1 0x40 MLOAD SWAP2 POP PUSH1 0x1F NOT PUSH1 0x3F RETURNDATASIZE ADD AND DUP3 ADD PUSH1 0x40 MSTORE RETURNDATASIZE DUP3 MSTORE RETURNDATASIZE PUSH1 0x0 PUSH1 0x20 DUP5 ADD RETURNDATACOPY PUSH2 0x1669 JUMP JUMPDEST DUP1 DUP5 DUP4 DUP2 MLOAD DUP2 LT PUSH2 0x21DC JUMPI INVALID JUMPDEST PUSH1 0x20 MUL PUSH1 0x20 ADD ADD DUP2 DUP2 MSTORE POP POP POP PUSH1 0x1 ADD PUSH2 0x20F5 JUMP JUMPDEST PUSH1 0x0 PUSH1 0x60 PUSH2 0x21FF DUP5 DUP7 PUSH2 0x4EFB JUMP JUMPDEST DUP3 MLOAD DUP1 PUSH8 0xFFFFFFFFFFFFFFFF DUP2 GT DUP1 ISZERO PUSH2 0x2218 JUMPI PUSH1 0x0 DUP1 REVERT JUMPDEST POP PUSH1 0x40 MLOAD SWAP1 DUP1 DUP3 MSTORE DUP1 PUSH1 0x20 MUL PUSH1 0x20 ADD DUP3 ADD PUSH1 0x40 MSTORE DUP1 ISZERO PUSH2 0x2242 JUMPI DUP2 PUSH1 0x20 ADD PUSH1 0x20 DUP3 MUL DUP1 CALLDATASIZE DUP4 CALLDATACOPY ADD SWAP1 POP JUMPDEST POP SWAP2 POP PUSH1 0x0 PUSH2 0x224F PUSH2 0x4ED0 JUMP JUMPDEST PUSH20 0xFFFFFFFFFFFFFFFFFFFFFFFFFFFFFFFFFFFFFFFF AND DUP8 PUSH20 0xFFFFFFFFFFFFFFFFFFFFFFFFFFFFFFFFFFFFFFFF AND EQ PUSH2 0x2287 JUMPI DUP7 PUSH2 0x228A JUMP JUMPDEST PUSH1 0x0 JUMPDEST SWAP1 POP PUSH1 0x0 PUSH2 0x2296 PUSH2 0x4ED0 JUMP JUMPDEST PUSH20 0xFFFFFFFFFFFFFFFFFFFFFFFFFFFFFFFFFFFFFFFF AND DUP8 PUSH20 0xFFFFFFFFFFFFFFFFFFFFFFFFFFFFFFFFFFFFFFFF AND EQ PUSH2 0x22CE JUMPI DUP7 PUSH2 0x22D1 JUMP JUMPDEST PUSH1 0x0 JUMPDEST SWAP1 POP PUSH2 0x2337 PUSH1 0x40 MLOAD DUP1 PUSH1 0x60 ADD PUSH1 0x40 MSTORE DUP1 DUP4 PUSH1 0x40 MLOAD PUSH1 0x20 ADD PUSH2 0x22F2 SWAP2 SWAP1 PUSH2 0x6CC7 JUMP JUMPDEST PUSH1 0x40 MLOAD PUSH1 0x20 DUP2 DUP4 SUB SUB DUP2 MSTORE SWAP1 PUSH1 0x40 MSTORE DUP2 MSTORE PUSH1 0x20 ADD DUP5 PUSH1 0x40 MLOAD PUSH1 0x20 ADD PUSH2 0x2317 SWAP2 SWAP1 PUSH2 0x6CC7 JUMP JUMPDEST PUSH1 0x40 MLOAD PUSH1 0x20 DUP2 DUP4 SUB SUB DUP2 MSTORE SWAP1 PUSH1 0x40 MSTORE DUP2 MSTORE PUSH1 0x20 ADD PUSH2 0x51A6 DUP2 MSTORE POP DUP8 PUSH2 0x51EC JUMP JUMPDEST SWAP4 POP PUSH2 0x2341 PUSH2 0x53EA JUMP JUMPDEST PUSH20 0xFFFFFFFFFFFFFFFFFFFFFFFFFFFFFFFFFFFFFFFF AND PUSH4 0x901754D7 DUP4 DUP4 PUSH1 0x40 MLOAD DUP4 PUSH4 0xFFFFFFFF AND PUSH1 0xE0 SHL DUP2 MSTORE PUSH1 0x4 ADD PUSH2 0x237B SWAP3 SWAP2 SWAP1 PUSH2 0x6CE8 JUMP JUMPDEST PUSH1 0x20 PUSH1 0x40 MLOAD DUP1 DUP4 SUB DUP2 DUP7 DUP1 EXTCODESIZE ISZERO DUP1 ISZERO PUSH2 0x2393 JUMPI PUSH1 0x0 DUP1 REVERT JUMPDEST POP GAS STATICCALL ISZERO DUP1 ISZERO PUSH2 0x23A7 JUMPI RETURNDATASIZE PUSH1 0x0 DUP1 RETURNDATACOPY RETURNDATASIZE PUSH1 0x0 REVERT JUMPDEST POP POP POP POP PUSH1 0x40 MLOAD RETURNDATASIZE PUSH1 0x1F NOT PUSH1 0x1F DUP3 ADD AND DUP3 ADD DUP1 PUSH1 0x40 MSTORE POP DUP2 ADD SWAP1 PUSH2 0x23CB SWAP2 SWAP1 PUSH2 0x61D0 JUMP JUMPDEST SWAP5 POP POP POP POP SWAP4 POP SWAP4 SWAP2 POP POP JUMP JUMPDEST PUSH1 0x60 DUP2 PUSH8 0xFFFFFFFFFFFFFFFF DUP2 GT DUP1 ISZERO PUSH2 0x23F1 JUMPI PUSH1 0x0 DUP1 REVERT JUMPDEST POP PUSH1 0x40 MLOAD SWAP1 DUP1 DUP3 MSTORE DUP1 PUSH1 0x20 MUL PUSH1 0x20 ADD DUP3 ADD PUSH1 0x40 MSTORE DUP1 ISZERO PUSH2 0x2425 JUMPI DUP2 PUSH1 0x20 ADD JUMPDEST PUSH1 0x60 DUP2 MSTORE PUSH1 0x20 ADD SWAP1 PUSH1 0x1 SWAP1 SUB SWAP1 DUP2 PUSH2 0x2410 JUMPI SWAP1 POP JUMPDEST POP SWAP1 POP PUSH1 0x0 JUMPDEST DUP1 DUP4 EQ PUSH2 0x2503 JUMPI DUP4 DUP4 DUP3 DUP2 DUP2 LT PUSH2 0x243E JUMPI INVALID JUMPDEST SWAP1 POP PUSH1 0x20 MUL DUP2 ADD SWAP1 PUSH2 0x2450 SWAP2 SWAP1 PUSH2 0x74F5 JUMP JUMPDEST ISZERO ISZERO SWAP1 POP PUSH2 0x245D JUMPI PUSH2 0x24FB JUMP JUMPDEST PUSH1 0x0 PUSH1 0x60 ADDRESS DUP7 DUP7 DUP6 DUP2 DUP2 LT PUSH2 0x246E JUMPI INVALID JUMPDEST SWAP1 POP PUSH1 0x20 MUL DUP2 ADD SWAP1 PUSH2 0x2480 SWAP2 SWAP1 PUSH2 0x74F5 JUMP JUMPDEST PUSH1 0x40 MLOAD PUSH2 0x248E SWAP3 SWAP2 SWAP1 PUSH2 0x6C9B JUMP JUMPDEST PUSH1 0x0 PUSH1 0x40 MLOAD DUP1 DUP4 SUB DUP2 DUP6 GAS STATICCALL SWAP2 POP POP RETURNDATASIZE DUP1 PUSH1 0x0 DUP2 EQ PUSH2 0x24C9 JUMPI PUSH1 0x40 MLOAD SWAP2 POP PUSH1 0x1F NOT PUSH1 0x3F RETURNDATASIZE ADD AND DUP3 ADD PUSH1 0x40 MSTORE RETURNDATASIZE DUP3 MSTORE RETURNDATASIZE PUSH1 0x0 PUSH1 0x20 DUP5 ADD RETURNDATACOPY PUSH2 0x24CE JUMP JUMPDEST PUSH1 0x60 SWAP2 POP JUMPDEST POP SWAP2 POP SWAP2 POP DUP2 PUSH2 0x24E0 JUMPI DUP1 MLOAD PUSH1 0x20 DUP3 ADD REVERT JUMPDEST DUP1 DUP5 DUP5 DUP2 MLOAD DUP2 LT PUSH2 0x24ED JUMPI INVALID JUMPDEST PUSH1 0x20 MUL PUSH1 0x20 ADD ADD DUP2 SWAP1 MSTORE POP POP POP JUMPDEST PUSH1 0x1 ADD PUSH2 0x242B JUMP JUMPDEST POP SWAP3 SWAP2 POP POP JUMP JUMPDEST PUSH1 0x0 DUP1 PUSH2 0x2515 PUSH2 0x53EA JUMP JUMPDEST PUSH20 0xFFFFFFFFFFFFFFFFFFFFFFFFFFFFFFFFFFFFFFFF AND PUSH4 0x901754D7 DUP7 DUP7 PUSH1 0x40 MLOAD DUP4 PUSH4 0xFFFFFFFF AND PUSH1 0xE0 SHL DUP2 MSTORE PUSH1 0x4 ADD PUSH2 0x254F SWAP3 SWAP2 SWAP1 PUSH2 0x6CE8 JUMP JUMPDEST PUSH1 0x20 PUSH1 0x40 MLOAD DUP1 DUP4 SUB DUP2 DUP7 DUP1 EXTCODESIZE ISZERO DUP1 ISZERO PUSH2 0x2567 JUMPI PUSH1 0x0 DUP1 REVERT JUMPDEST POP GAS STATICCALL ISZERO DUP1 ISZERO PUSH2 0x257B JUMPI RETURNDATASIZE PUSH1 0x0 DUP1 RETURNDATACOPY RETURNDATASIZE PUSH1 0x0 REVERT JUMPDEST POP POP POP POP PUSH1 0x40 MLOAD RETURNDATASIZE PUSH1 0x1F NOT PUSH1 0x1F DUP3 ADD AND DUP3 ADD DUP1 PUSH1 0x40 MSTORE POP DUP2 ADD SWAP1 PUSH2 0x259F SWAP2 SWAP1 PUSH2 0x61D0 JUMP JUMPDEST SWAP1 POP PUSH20 0xFFFFFFFFFFFFFFFFFFFFFFFFFFFFFFFFFFFFFFFF DUP2 AND PUSH2 0x25C6 JUMPI PUSH1 0x0 SWAP2 POP POP PUSH2 0x1380 JUMP JUMPDEST PUSH1 0x0 PUSH20 0xFFFFFFFFFFFFFFFFFFFFFFFFFFFFFFFFFFFFFFFF DUP7 AND ISZERO PUSH2 0x268B JUMPI PUSH1 0x40 MLOAD PUSH32 0x70A0823100000000000000000000000000000000000000000000000000000000 DUP2 MSTORE PUSH20 0xFFFFFFFFFFFFFFFFFFFFFFFFFFFFFFFFFFFFFFFF DUP8 AND SWAP1 PUSH4 0x70A08231 SWAP1 PUSH2 0x2636 SWAP1 DUP6 SWAP1 PUSH1 0x4 ADD PUSH2 0x6CC7 JUMP JUMPDEST PUSH1 0x20 PUSH1 0x40 MLOAD DUP1 DUP4 SUB DUP2 DUP7 DUP1 EXTCODESIZE ISZERO DUP1 ISZERO PUSH2 0x264E JUMPI PUSH1 0x0 DUP1 REVERT JUMPDEST POP GAS STATICCALL ISZERO DUP1 ISZERO PUSH2 0x2662 JUMPI RETURNDATASIZE PUSH1 0x0 DUP1 RETURNDATACOPY RETURNDATASIZE PUSH1 0x0 REVERT JUMPDEST POP POP POP POP PUSH1 0x40 MLOAD RETURNDATASIZE PUSH1 0x1F NOT PUSH1 0x1F DUP3 ADD AND DUP3 ADD DUP1 PUSH1 0x40 MSTORE POP DUP2 ADD SWAP1 PUSH2 0x2686 SWAP2 SWAP1 PUSH2 0x6881 JUMP JUMPDEST PUSH2 0x26A4 JUMP JUMPDEST DUP2 PUSH20 0xFFFFFFFFFFFFFFFFFFFFFFFFFFFFFFFFFFFFFFFF AND BALANCE JUMPDEST SWAP1 POP DUP4 DUP2 LT ISZERO PUSH2 0x26B9 JUMPI PUSH1 0x0 SWAP3 POP POP POP PUSH2 0x1380 JUMP JUMPDEST PUSH1 0x40 MLOAD PUSH32 0x1E1401F800000000000000000000000000000000000000000000000000000000 DUP2 MSTORE PUSH20 0xFFFFFFFFFFFFFFFFFFFFFFFFFFFFFFFFFFFFFFFF DUP4 AND SWAP1 PUSH4 0x1E1401F8 SWAP1 PUSH3 0x249F0 SWAP1 PUSH2 0x2714 SWAP1 DUP11 SWAP1 DUP11 SWAP1 DUP11 SWAP1 PUSH1 0x4 ADD PUSH2 0x6DF0 JUMP JUMPDEST PUSH1 0x20 PUSH1 0x40 MLOAD DUP1 DUP4 SUB DUP2 DUP8 DUP1 EXTCODESIZE ISZERO DUP1 ISZERO PUSH2 0x272C JUMPI PUSH1 0x0 DUP1 REVERT JUMPDEST POP DUP7 STATICCALL SWAP4 POP POP POP POP DUP1 ISZERO PUSH2 0x275D JUMPI POP PUSH1 0x40 DUP1 MLOAD PUSH1 0x1F RETURNDATASIZE SWAP1 DUP2 ADD PUSH1 0x1F NOT AND DUP3 ADD SWAP1 SWAP3 MSTORE PUSH2 0x275A SWAP2 DUP2 ADD SWAP1 PUSH2 0x6881 JUMP JUMPDEST PUSH1 0x1 JUMPDEST PUSH2 0x279D JUMPI RETURNDATASIZE DUP1 DUP1 ISZERO PUSH2 0x278B JUMPI PUSH1 0x40 MLOAD SWAP2 POP PUSH1 0x1F NOT PUSH1 0x3F RETURNDATASIZE ADD AND DUP3 ADD PUSH1 0x40 MSTORE RETURNDATASIZE DUP3 MSTORE RETURNDATASIZE PUSH1 0x0 PUSH1 0x20 DUP5 ADD RETURNDATACOPY PUSH2 0x2790 JUMP JUMPDEST PUSH1 0x60 SWAP2 POP JUMPDEST POP PUSH1 0x0 SWAP4 POP POP POP POP PUSH2 0x1380 JUMP JUMPDEST SWAP3 POP PUSH2 0x1380 SWAP2 POP POP JUMP JUMPDEST PUSH1 0x60 PUSH2 0x27B3 DUP4 DUP6 PUSH2 0x4EFB JUMP JUMPDEST DUP2 MLOAD DUP1 PUSH8 0xFFFFFFFFFFFFFFFF DUP2 GT DUP1 ISZERO PUSH2 0x27CC JUMPI PUSH1 0x0 DUP1 REVERT JUMPDEST POP PUSH1 0x40 MLOAD SWAP1 DUP1 DUP3 MSTORE DUP1 PUSH1 0x20 MUL PUSH1 0x20 ADD DUP3 ADD PUSH1 0x40 MSTORE DUP1 ISZERO PUSH2 0x27F6 JUMPI DUP2 PUSH1 0x20 ADD PUSH1 0x20 DUP3 MUL DUP1 CALLDATASIZE DUP4 CALLDATACOPY ADD SWAP1 POP JUMPDEST POP SWAP2 POP PUSH1 0x0 PUSH2 0x2803 PUSH2 0x4ED0 JUMP JUMPDEST PUSH20 0xFFFFFFFFFFFFFFFFFFFFFFFFFFFFFFFFFFFFFFFF AND DUP7 PUSH20 0xFFFFFFFFFFFFFFFFFFFFFFFFFFFFFFFFFFFFFFFF AND EQ PUSH2 0x2843 JUMPI PUSH2 0x283E DUP7 PUSH2 0x4FE9 JUMP JUMPDEST PUSH2 0x2846 JUMP JUMPDEST PUSH1 0x0 JUMPDEST SWAP1 POP PUSH1 0x0 PUSH2 0x2852 PUSH2 0x4ED0 JUMP JUMPDEST PUSH20 0xFFFFFFFFFFFFFFFFFFFFFFFFFFFFFFFFFFFFFFFF AND DUP7 PUSH20 0xFFFFFFFFFFFFFFFFFFFFFFFFFFFFFFFFFFFFFFFF AND EQ PUSH2 0x2892 JUMPI PUSH2 0x288D DUP7 PUSH2 0x4FE9 JUMP JUMPDEST PUSH2 0x2895 JUMP JUMPDEST PUSH1 0x0 JUMPDEST SWAP1 POP PUSH1 0x0 JUMPDEST DUP4 DUP2 LT ISZERO PUSH2 0x2095 JUMPI PUSH1 0x1 PUSH2 0x28AC PUSH2 0x4ED0 JUMP JUMPDEST PUSH20 0xFFFFFFFFFFFFFFFFFFFFFFFFFFFFFFFFFFFFFFFF AND DUP9 PUSH20 0xFFFFFFFFFFFFFFFFFFFFFFFFFFFFFFFFFFFFFFFF AND EQ ISZERO PUSH2 0x2918 JUMPI PUSH2 0x28F7 DUP5 PUSH4 0x95B68FE7 PUSH1 0xE0 SHL DUP10 DUP6 DUP2 MLOAD DUP2 LT PUSH2 0x1F73 JUMPI INVALID JUMPDEST DUP8 DUP5 DUP2 MLOAD DUP2 LT PUSH2 0x2903 JUMPI INVALID JUMPDEST PUSH1 0x20 MUL PUSH1 0x20 ADD ADD DUP2 SWAP4 POP DUP3 DUP2 MSTORE POP POP POP PUSH2 0x29F8 JUMP JUMPDEST PUSH2 0x2920 PUSH2 0x4ED0 JUMP JUMPDEST PUSH20 0xFFFFFFFFFFFFFFFFFFFFFFFFFFFFFFFFFFFFFFFF AND DUP10 PUSH20 0xFFFFFFFFFFFFFFFFFFFFFFFFFFFFFFFFFFFFFFFF AND EQ ISZERO PUSH2 0x296B JUMPI PUSH2 0x28F7 DUP4 PUSH4 0xCD7724C3 PUSH1 0xE0 SHL DUP10 DUP6 DUP2 MLOAD DUP2 LT PUSH2 0x1F73 JUMPI INVALID JUMPDEST PUSH1 0x0 PUSH2 0x2985 DUP6 PUSH4 0x95B68FE7 PUSH1 0xE0 SHL DUP11 DUP7 DUP2 MLOAD DUP2 LT PUSH2 0x1F73 JUMPI INVALID JUMPDEST SWAP3 POP SWAP1 POP DUP1 ISZERO PUSH2 0x29DB JUMPI PUSH2 0x29BA DUP5 PUSH32 0xCD7724C300000000000000000000000000000000000000000000000000000000 DUP4 PUSH2 0x507B JUMP JUMPDEST DUP9 DUP6 DUP2 MLOAD DUP2 LT PUSH2 0x29C6 JUMPI INVALID JUMPDEST PUSH1 0x20 MUL PUSH1 0x20 ADD ADD DUP2 SWAP5 POP DUP3 DUP2 MSTORE POP POP POP PUSH2 0x29F6 JUMP JUMPDEST PUSH1 0x0 DUP8 DUP5 DUP2 MLOAD DUP2 LT PUSH2 0x29E9 JUMPI INVALID JUMPDEST PUSH1 0x20 MUL PUSH1 0x20 ADD ADD DUP2 DUP2 MSTORE POP POP JUMPDEST POP JUMPDEST DUP1 PUSH2 0x2A03 JUMPI POP PUSH2 0x2095 JUMP JUMPDEST POP PUSH1 0x1 ADD PUSH2 0x289A JUMP JUMPDEST DUP1 MLOAD PUSH1 0x60 SWAP1 DUP1 PUSH8 0xFFFFFFFFFFFFFFFF DUP2 GT DUP1 ISZERO PUSH2 0x2A28 JUMPI PUSH1 0x0 DUP1 REVERT JUMPDEST POP PUSH1 0x40 MLOAD SWAP1 DUP1 DUP3 MSTORE DUP1 PUSH1 0x20 MUL PUSH1 0x20 ADD DUP3 ADD PUSH1 0x40 MSTORE DUP1 ISZERO PUSH2 0x2A52 JUMPI DUP2 PUSH1 0x20 ADD PUSH1 0x20 DUP3 MUL DUP1 CALLDATASIZE DUP4 CALLDATACOPY ADD SWAP1 POP JUMPDEST POP SWAP2 POP PUSH1 0x0 JUMPDEST DUP2 DUP2 LT ISZERO PUSH2 0x1692 JUMPI DUP6 PUSH20 0xFFFFFFFFFFFFFFFFFFFFFFFFFFFFFFFFFFFFFFFF AND PUSH4 0xD06CA61F PUSH3 0x249F0 DUP7 DUP5 DUP2 MLOAD DUP2 LT PUSH2 0x2A8C JUMPI INVALID JUMPDEST PUSH1 0x20 MUL PUSH1 0x20 ADD ADD MLOAD DUP9 PUSH1 0x40 MLOAD DUP5 PUSH4 0xFFFFFFFF AND PUSH1 0xE0 SHL DUP2 MSTORE PUSH1 0x4 ADD PUSH2 0x2AB2 SWAP3 SWAP2 SWAP1 PUSH2 0x74A6 JUMP JUMPDEST PUSH1 0x0 PUSH1 0x40 MLOAD DUP1 DUP4 SUB DUP2 DUP8 DUP1 EXTCODESIZE ISZERO DUP1 ISZERO PUSH2 0x2ACA JUMPI PUSH1 0x0 DUP1 REVERT JUMPDEST POP DUP7 STATICCALL SWAP4 POP POP POP POP DUP1 ISZERO PUSH2 0x2B00 JUMPI POP PUSH1 0x40 MLOAD RETURNDATASIZE PUSH1 0x0 DUP3 RETURNDATACOPY PUSH1 0x1F RETURNDATASIZE SWAP1 DUP2 ADD PUSH1 0x1F NOT AND DUP3 ADD PUSH1 0x40 MSTORE PUSH2 0x2AFD SWAP2 SWAP1 DUP2 ADD SWAP1 PUSH2 0x677D JUMP JUMPDEST PUSH1 0x1 JUMPDEST PUSH2 0x2B2E JUMPI RETURNDATASIZE DUP1 DUP1 ISZERO PUSH2 0x1664 JUMPI PUSH1 0x40 MLOAD SWAP2 POP PUSH1 0x1F NOT PUSH1 0x3F RETURNDATASIZE ADD AND DUP3 ADD PUSH1 0x40 MSTORE RETURNDATASIZE DUP3 MSTORE RETURNDATASIZE PUSH1 0x0 PUSH1 0x20 DUP5 ADD RETURNDATACOPY PUSH2 0x1669 JUMP JUMPDEST DUP1 PUSH1 0x1 DUP8 MLOAD SUB DUP2 MLOAD DUP2 LT PUSH2 0x2B3E JUMPI INVALID JUMPDEST PUSH1 0x20 MUL PUSH1 0x20 ADD ADD MLOAD DUP5 DUP4 DUP2 MLOAD DUP2 LT PUSH2 0x2B52 JUMPI INVALID JUMPDEST PUSH1 0x20 MUL PUSH1 0x20 ADD ADD DUP2 DUP2 MSTORE POP POP POP PUSH1 0x1 ADD PUSH2 0x2A58 JUMP JUMPDEST DUP1 MLOAD PUSH1 0x60 SWAP1 DUP1 PUSH8 0xFFFFFFFFFFFFFFFF DUP2 GT DUP1 ISZERO PUSH2 0x2B83 JUMPI PUSH1 0x0 DUP1 REVERT JUMPDEST POP PUSH1 0x40 MLOAD SWAP1 DUP1 DUP3 MSTORE DUP1 PUSH1 0x20 MUL PUSH1 0x20 ADD DUP3 ADD PUSH1 0x40 MSTORE DUP1 ISZERO PUSH2 0x2BAD JUMPI DUP2 PUSH1 0x20 ADD PUSH1 0x20 DUP3 MUL DUP1 CALLDATASIZE DUP4 CALLDATACOPY ADD SWAP1 POP JUMPDEST POP SWAP2 POP PUSH1 0x0 JUMPDEST DUP2 DUP2 LT ISZERO PUSH2 0x1692 JUMPI DUP6 PUSH20 0xFFFFFFFFFFFFFFFFFFFFFFFFFFFFFFFFFFFFFFFF AND PUSH4 0x1F00CA74 PUSH3 0x249F0 DUP7 DUP5 DUP2 MLOAD DUP2 LT PUSH2 0x2BE7 JUMPI INVALID JUMPDEST PUSH1 0x20 MUL PUSH1 0x20 ADD ADD MLOAD DUP9 PUSH1 0x40 MLOAD DUP5 PUSH4 0xFFFFFFFF AND PUSH1 0xE0 SHL DUP2 MSTORE PUSH1 0x4 ADD PUSH2 0x2C0D SWAP3 SWAP2 SWAP1 PUSH2 0x74A6 JUMP JUMPDEST PUSH1 0x0 PUSH1 0x40 MLOAD DUP1 DUP4 SUB DUP2 DUP8 DUP1 EXTCODESIZE ISZERO DUP1 ISZERO PUSH2 0x2C25 JUMPI PUSH1 0x0 DUP1 REVERT JUMPDEST POP DUP7 STATICCALL SWAP4 POP POP POP POP DUP1 ISZERO PUSH2 0x2C5B JUMPI POP PUSH1 0x40 MLOAD RETURNDATASIZE PUSH1 0x0 DUP3 RETURNDATACOPY PUSH1 0x1F RETURNDATASIZE SWAP1 DUP2 ADD PUSH1 0x1F NOT AND DUP3 ADD PUSH1 0x40 MSTORE PUSH2 0x2C58 SWAP2 SWAP1 DUP2 ADD SWAP1 PUSH2 0x677D JUMP JUMPDEST PUSH1 0x1 JUMPDEST PUSH2 0x2C89 JUMPI RETURNDATASIZE DUP1 DUP1 ISZERO PUSH2 0x1664 JUMPI PUSH1 0x40 MLOAD SWAP2 POP PUSH1 0x1F NOT PUSH1 0x3F RETURNDATASIZE ADD AND DUP3 ADD PUSH1 0x40 MSTORE RETURNDATASIZE DUP3 MSTORE RETURNDATASIZE PUSH1 0x0 PUSH1 0x20 DUP5 ADD RETURNDATACOPY PUSH2 0x1669 JUMP JUMPDEST DUP1 PUSH1 0x0 DUP2 MLOAD DUP2 LT PUSH2 0x2C96 JUMPI INVALID JUMPDEST PUSH1 0x20 MUL PUSH1 0x20 ADD ADD MLOAD DUP5 DUP4 DUP2 MLOAD DUP2 LT PUSH2 0x2CAA JUMPI INVALID JUMPDEST PUSH1 0x20 MUL PUSH1 0x20 ADD ADD DUP2 DUP2 MSTORE POP POP POP PUSH1 0x1 ADD PUSH2 0x2BB3 JUMP JUMPDEST PUSH2 0x2CC7 PUSH2 0x5E39 JUMP JUMPDEST PUSH2 0x2CCF PUSH2 0x5E39 JUMP JUMPDEST PUSH1 0x0 DUP1 DUP1 JUMPDEST DUP8 MLOAD DUP2 EQ PUSH2 0x2DDF JUMPI PUSH2 0x2D1B PUSH1 0x20 DUP10 DUP4 DUP2 MLOAD DUP2 LT PUSH2 0x2CED JUMPI INVALID JUMPDEST PUSH1 0x20 MUL PUSH1 0x20 ADD ADD MLOAD MLOAD SUB DUP8 DUP11 DUP5 DUP2 MLOAD DUP2 LT PUSH2 0x2D04 JUMPI INVALID JUMPDEST PUSH1 0x20 MUL PUSH1 0x20 ADD ADD MLOAD PUSH2 0x5402 SWAP1 SWAP3 SWAP2 SWAP1 PUSH4 0xFFFFFFFF AND JUMP JUMPDEST PUSH1 0x0 PUSH1 0x60 ADDRESS PUSH20 0xFFFFFFFFFFFFFFFFFFFFFFFFFFFFFFFFFFFFFFFF AND DUP11 DUP5 DUP2 MLOAD DUP2 LT PUSH2 0x2D42 JUMPI INVALID JUMPDEST PUSH1 0x20 MUL PUSH1 0x20 ADD ADD MLOAD PUSH1 0x40 MLOAD PUSH2 0x2D57 SWAP2 SWAP1 PUSH2 0x6CAB JUMP JUMPDEST PUSH1 0x0 PUSH1 0x40 MLOAD DUP1 DUP4 SUB DUP2 DUP6 GAS STATICCALL SWAP2 POP POP RETURNDATASIZE DUP1 PUSH1 0x0 DUP2 EQ PUSH2 0x2D92 JUMPI PUSH1 0x40 MLOAD SWAP2 POP PUSH1 0x1F NOT PUSH1 0x3F RETURNDATASIZE ADD AND DUP3 ADD PUSH1 0x40 MSTORE RETURNDATASIZE DUP3 MSTORE RETURNDATASIZE PUSH1 0x0 PUSH1 0x20 DUP5 ADD RETURNDATACOPY PUSH2 0x2D97 JUMP JUMPDEST PUSH1 0x60 SWAP2 POP JUMPDEST POP SWAP2 POP SWAP2 POP DUP2 ISZERO PUSH2 0x2DD5 JUMPI PUSH1 0x0 PUSH2 0x2DBB PUSH1 0x20 DUP4 MLOAD SUB DUP4 PUSH2 0x5412 SWAP1 SWAP2 SWAP1 PUSH4 0xFFFFFFFF AND JUMP JUMPDEST SWAP1 POP DUP5 DUP2 GT ISZERO PUSH2 0x2DD3 JUMPI DUP4 DUP9 MSTORE PUSH1 0x20 DUP9 ADD DUP3 SWAP1 MSTORE SWAP4 POP DUP4 JUMPDEST POP JUMPDEST POP POP PUSH1 0x1 ADD PUSH2 0x2CD4 JUMP JUMPDEST POP DUP1 PUSH2 0x2DEB JUMPI POP PUSH2 0x2EE5 JUMP JUMPDEST PUSH1 0x0 JUMPDEST DUP7 MLOAD DUP2 EQ PUSH2 0x2EE2 JUMPI PUSH2 0x2E1E PUSH1 0x20 DUP9 DUP4 DUP2 MLOAD DUP2 LT PUSH2 0x2E07 JUMPI INVALID JUMPDEST PUSH1 0x20 MUL PUSH1 0x20 ADD ADD MLOAD MLOAD SUB DUP4 DUP10 DUP5 DUP2 MLOAD DUP2 LT PUSH2 0x2D04 JUMPI INVALID JUMPDEST PUSH1 0x0 PUSH1 0x60 ADDRESS PUSH20 0xFFFFFFFFFFFFFFFFFFFFFFFFFFFFFFFFFFFFFFFF AND DUP10 DUP5 DUP2 MLOAD DUP2 LT PUSH2 0x2E45 JUMPI INVALID JUMPDEST PUSH1 0x20 MUL PUSH1 0x20 ADD ADD MLOAD PUSH1 0x40 MLOAD PUSH2 0x2E5A SWAP2 SWAP1 PUSH2 0x6CAB JUMP JUMPDEST PUSH1 0x0 PUSH1 0x40 MLOAD DUP1 DUP4 SUB DUP2 DUP6 GAS STATICCALL SWAP2 POP POP RETURNDATASIZE DUP1 PUSH1 0x0 DUP2 EQ PUSH2 0x2E95 JUMPI PUSH1 0x40 MLOAD SWAP2 POP PUSH1 0x1F NOT PUSH1 0x3F RETURNDATASIZE ADD AND DUP3 ADD PUSH1 0x40 MSTORE RETURNDATASIZE DUP3 MSTORE RETURNDATASIZE PUSH1 0x0 PUSH1 0x20 DUP5 ADD RETURNDATACOPY PUSH2 0x2E9A JUMP JUMPDEST PUSH1 0x60 SWAP2 POP JUMPDEST POP SWAP2 POP SWAP2 POP DUP2 ISZERO PUSH2 0x2ED8 JUMPI PUSH1 0x0 PUSH2 0x2EBE PUSH1 0x20 DUP4 MLOAD SUB DUP4 PUSH2 0x5412 SWAP1 SWAP2 SWAP1 PUSH4 0xFFFFFFFF AND JUMP JUMPDEST SWAP1 POP DUP6 DUP2 GT ISZERO PUSH2 0x2ED6 JUMPI DUP4 DUP8 MSTORE PUSH1 0x20 DUP8 ADD DUP3 SWAP1 MSTORE SWAP5 POP DUP5 JUMPDEST POP JUMPDEST POP POP PUSH1 0x1 ADD PUSH2 0x2DEE JUMP JUMPDEST POP POP JUMPDEST SWAP4 POP SWAP4 POP SWAP4 SWAP1 POP JUMP JUMPDEST PUSH1 0x40 DUP5 ADD MLOAD PUSH1 0x60 SWAP1 PUSH32 0xFFFFFFFF00000000000000000000000000000000000000000000000000000000 AND PUSH2 0x2F88 JUMPI PUSH1 0x40 DUP1 MLOAD PUSH1 0x60 DUP2 ADD SWAP1 SWAP2 MSTORE PUSH2 0x2F81 SWAP1 DUP1 PUSH2 0x2F3A DUP7 DUP10 PUSH1 0x80 DUP5 ADD PUSH2 0x7268 JUMP JUMPDEST PUSH1 0x40 MLOAD PUSH1 0x20 DUP2 DUP4 SUB SUB DUP2 MSTORE SWAP1 PUSH1 0x40 MSTORE DUP2 MSTORE PUSH1 0x20 ADD DUP7 DUP9 PUSH1 0x40 MLOAD PUSH1 0x20 ADD PUSH2 0x2F61 SWAP3 SWAP2 SWAP1 PUSH2 0x7268 JUMP JUMPDEST PUSH1 0x40 MLOAD PUSH1 0x20 DUP2 DUP4 SUB SUB DUP2 MSTORE SWAP1 PUSH1 0x40 MSTORE DUP2 MSTORE PUSH1 0x20 ADD PUSH2 0x541E DUP2 MSTORE POP DUP4 PUSH2 0x51EC JUMP JUMPDEST SWAP1 POP PUSH2 0xD49 JUMP JUMPDEST DUP2 MLOAD DUP1 PUSH8 0xFFFFFFFFFFFFFFFF DUP2 GT DUP1 ISZERO PUSH2 0x2FA1 JUMPI PUSH1 0x0 DUP1 REVERT JUMPDEST POP PUSH1 0x40 MLOAD SWAP1 DUP1 DUP3 MSTORE DUP1 PUSH1 0x20 MUL PUSH1 0x20 ADD DUP3 ADD PUSH1 0x40 MSTORE DUP1 ISZERO PUSH2 0x2FCB JUMPI DUP2 PUSH1 0x20 ADD PUSH1 0x20 DUP3 MUL DUP1 CALLDATASIZE DUP4 CALLDATACOPY ADD SWAP1 POP JUMPDEST POP SWAP2 POP PUSH1 0x0 JUMPDEST DUP2 DUP2 LT ISZERO PUSH2 0x152B JUMPI PUSH1 0x0 PUSH1 0x60 DUP9 PUSH1 0x0 ADD MLOAD PUSH20 0xFFFFFFFFFFFFFFFFFFFFFFFFFFFFFFFFFFFFFFFF AND PUSH3 0x1E8480 DUP11 PUSH1 0x40 ADD MLOAD DUP11 DUP11 DUP11 DUP9 DUP2 MLOAD DUP2 LT PUSH2 0x300F JUMPI INVALID JUMPDEST PUSH1 0x20 MUL PUSH1 0x20 ADD ADD MLOAD PUSH1 0x40 MLOAD PUSH1 0x24 ADD PUSH2 0x3029 SWAP4 SWAP3 SWAP2 SWAP1 PUSH2 0x724A JUMP JUMPDEST PUSH1 0x40 DUP1 MLOAD PUSH1 0x1F NOT DUP2 DUP5 SUB ADD DUP2 MSTORE SWAP2 DUP2 MSTORE PUSH1 0x20 DUP3 ADD DUP1 MLOAD PUSH28 0xFFFFFFFFFFFFFFFFFFFFFFFFFFFFFFFFFFFFFFFFFFFFFFFFFFFFFFFF AND PUSH32 0xFFFFFFFF00000000000000000000000000000000000000000000000000000000 SWAP1 SWAP5 AND SWAP4 SWAP1 SWAP4 OR SWAP1 SWAP3 MSTORE SWAP1 MLOAD PUSH2 0x3094 SWAP2 SWAP1 PUSH2 0x6CAB JUMP JUMPDEST PUSH1 0x0 PUSH1 0x40 MLOAD DUP1 DUP4 SUB DUP2 DUP7 DUP7 STATICCALL SWAP3 POP POP POP RETURNDATASIZE DUP1 PUSH1 0x0 DUP2 EQ PUSH2 0x30D0 JUMPI PUSH1 0x40 MLOAD SWAP2 POP PUSH1 0x1F NOT PUSH1 0x3F RETURNDATASIZE ADD AND DUP3 ADD PUSH1 0x40 MSTORE RETURNDATASIZE DUP3 MSTORE RETURNDATASIZE PUSH1 0x0 PUSH1 0x20 DUP5 ADD RETURNDATACOPY PUSH2 0x30D5 JUMP JUMPDEST PUSH1 0x60 SWAP2 POP JUMPDEST POP SWAP2 POP SWAP2 POP PUSH1 0x0 DUP3 ISZERO PUSH2 0x30F9 JUMPI DUP2 DUP1 PUSH1 0x20 ADD SWAP1 MLOAD DUP2 ADD SWAP1 PUSH2 0x30F6 SWAP2 SWAP1 PUSH2 0x6881 JUMP JUMPDEST SWAP1 POP JUMPDEST DUP1 PUSH2 0x3106 JUMPI POP POP POP PUSH2 0x152B JUMP JUMPDEST DUP1 DUP7 DUP6 DUP2 MLOAD DUP2 LT PUSH2 0x3113 JUMPI INVALID JUMPDEST PUSH1 0x20 SWAP1 DUP2 MUL SWAP2 SWAP1 SWAP2 ADD ADD MSTORE POP POP POP PUSH1 0x1 ADD PUSH2 0x2FD1 JUMP JUMPDEST DUP1 MLOAD PUSH1 0x60 SWAP1 DUP6 SWAP1 DUP1 PUSH8 0xFFFFFFFFFFFFFFFF DUP2 GT DUP1 ISZERO PUSH2 0x3147 JUMPI PUSH1 0x0 DUP1 REVERT JUMPDEST POP PUSH1 0x40 MLOAD SWAP1 DUP1 DUP3 MSTORE DUP1 PUSH1 0x20 MUL PUSH1 0x20 ADD DUP3 ADD PUSH1 0x40 MSTORE DUP1 ISZERO PUSH2 0x3171 JUMPI DUP2 PUSH1 0x20 ADD PUSH1 0x20 DUP3 MUL DUP1 CALLDATASIZE DUP4 CALLDATACOPY ADD SWAP1 POP JUMPDEST POP PUSH1 0x40 MLOAD PUSH32 0x2F37B62400000000000000000000000000000000000000000000000000000000 DUP2 MSTORE SWAP1 SWAP4 POP PUSH20 0xFFFFFFFFFFFFFFFFFFFFFFFFFFFFFFFFFFFFFFFF DUP4 AND SWAP1 PUSH4 0x2F37B624 SWAP1 PUSH2 0x31C7 SWAP1 DUP10 SWAP1 PUSH1 0x4 ADD PUSH2 0x6CC7 JUMP JUMPDEST PUSH1 0x20 PUSH1 0x40 MLOAD DUP1 DUP4 SUB DUP2 DUP7 DUP1 EXTCODESIZE ISZERO DUP1 ISZERO PUSH2 0x31DF JUMPI PUSH1 0x0 DUP1 REVERT JUMPDEST POP GAS STATICCALL ISZERO DUP1 ISZERO PUSH2 0x31F3 JUMPI RETURNDATASIZE PUSH1 0x0 DUP1 RETURNDATACOPY RETURNDATASIZE PUSH1 0x0 REVERT JUMPDEST POP POP POP POP PUSH1 0x40 MLOAD RETURNDATASIZE PUSH1 0x1F NOT PUSH1 0x1F DUP3 ADD AND DUP3 ADD DUP1 PUSH1 0x40 MSTORE POP DUP2 ADD SWAP1 PUSH2 0x3217 SWAP2 SWAP1 PUSH2 0x680D JUMP JUMPDEST ISZERO DUP1 PUSH2 0x32C2 JUMPI POP PUSH1 0x40 MLOAD PUSH32 0x2F37B62400000000000000000000000000000000000000000000000000000000 DUP2 MSTORE PUSH20 0xFFFFFFFFFFFFFFFFFFFFFFFFFFFFFFFFFFFFFFFF DUP4 AND SWAP1 PUSH4 0x2F37B624 SWAP1 PUSH2 0x3270 SWAP1 DUP9 SWAP1 PUSH1 0x4 ADD PUSH2 0x6CC7 JUMP JUMPDEST PUSH1 0x20 PUSH1 0x40 MLOAD DUP1 DUP4 SUB DUP2 DUP7 DUP1 EXTCODESIZE ISZERO DUP1 ISZERO PUSH2 0x3288 JUMPI PUSH1 0x0 DUP1 REVERT JUMPDEST POP GAS STATICCALL ISZERO DUP1 ISZERO PUSH2 0x329C JUMPI RETURNDATASIZE PUSH1 0x0 DUP1 RETURNDATACOPY RETURNDATASIZE PUSH1 0x0 REVERT JUMPDEST POP POP POP POP PUSH1 0x40 MLOAD RETURNDATASIZE PUSH1 0x1F NOT PUSH1 0x1F DUP3 ADD AND DUP3 ADD DUP1 PUSH1 0x40 MSTORE POP DUP2 ADD SWAP1 PUSH2 0x32C0 SWAP2 SWAP1 PUSH2 0x680D JUMP JUMPDEST ISZERO JUMPDEST ISZERO PUSH2 0x32CE JUMPI POP POP PUSH2 0xD49 JUMP JUMPDEST PUSH2 0x32D6 PUSH2 0x5E0A JUMP JUMPDEST PUSH1 0x40 MLOAD PUSH32 0xF8B2CB4F00000000000000000000000000000000000000000000000000000000 DUP2 MSTORE PUSH20 0xFFFFFFFFFFFFFFFFFFFFFFFFFFFFFFFFFFFFFFFF DUP5 AND SWAP1 PUSH4 0xF8B2CB4F SWAP1 PUSH2 0x3328 SWAP1 DUP11 SWAP1 PUSH1 0x4 ADD PUSH2 0x6CC7 JUMP JUMPDEST PUSH1 0x20 PUSH1 0x40 MLOAD DUP1 DUP4 SUB DUP2 DUP7 DUP1 EXTCODESIZE ISZERO DUP1 ISZERO PUSH2 0x3340 JUMPI PUSH1 0x0 DUP1 REVERT JUMPDEST POP GAS STATICCALL ISZERO DUP1 ISZERO PUSH2 0x3354 JUMPI RETURNDATASIZE PUSH1 0x0 DUP1 RETURNDATACOPY RETURNDATASIZE PUSH1 0x0 REVERT JUMPDEST POP POP POP POP PUSH1 0x40 MLOAD RETURNDATASIZE PUSH1 0x1F NOT PUSH1 0x1F DUP3 ADD AND DUP3 ADD DUP1 PUSH1 0x40 MSTORE POP DUP2 ADD SWAP1 PUSH2 0x3378 SWAP2 SWAP1 PUSH2 0x6881 JUMP JUMPDEST DUP2 MSTORE PUSH1 0x40 MLOAD PUSH32 0xF8B2CB4F00000000000000000000000000000000000000000000000000000000 DUP2 MSTORE PUSH20 0xFFFFFFFFFFFFFFFFFFFFFFFFFFFFFFFFFFFFFFFF DUP5 AND SWAP1 PUSH4 0xF8B2CB4F SWAP1 PUSH2 0x33CC SWAP1 DUP10 SWAP1 PUSH1 0x4 ADD PUSH2 0x6CC7 JUMP JUMPDEST PUSH1 0x20 PUSH1 0x40 MLOAD DUP1 DUP4 SUB DUP2 DUP7 DUP1 EXTCODESIZE ISZERO DUP1 ISZERO PUSH2 0x33E4 JUMPI PUSH1 0x0 DUP1 REVERT JUMPDEST POP GAS STATICCALL ISZERO DUP1 ISZERO PUSH2 0x33F8 JUMPI RETURNDATASIZE PUSH1 0x0 DUP1 RETURNDATACOPY RETURNDATASIZE PUSH1 0x0 REVERT JUMPDEST POP POP POP POP PUSH1 0x40 MLOAD RETURNDATASIZE PUSH1 0x1F NOT PUSH1 0x1F DUP3 ADD AND DUP3 ADD DUP1 PUSH1 0x40 MSTORE POP DUP2 ADD SWAP1 PUSH2 0x341C SWAP2 SWAP1 PUSH2 0x6881 JUMP JUMPDEST PUSH1 0x20 DUP3 ADD MSTORE PUSH1 0x40 MLOAD PUSH32 0x948D8CE600000000000000000000000000000000000000000000000000000000 DUP2 MSTORE PUSH20 0xFFFFFFFFFFFFFFFFFFFFFFFFFFFFFFFFFFFFFFFF DUP5 AND SWAP1 PUSH4 0x948D8CE6 SWAP1 PUSH2 0x3473 SWAP1 DUP11 SWAP1 PUSH1 0x4 ADD PUSH2 0x6CC7 JUMP JUMPDEST PUSH1 0x20 PUSH1 0x40 MLOAD DUP1 DUP4 SUB DUP2 DUP7 DUP1 EXTCODESIZE ISZERO DUP1 ISZERO PUSH2 0x348B JUMPI PUSH1 0x0 DUP1 REVERT JUMPDEST POP GAS STATICCALL ISZERO DUP1 ISZERO PUSH2 0x349F JUMPI RETURNDATASIZE PUSH1 0x0 DUP1 RETURNDATACOPY RETURNDATASIZE PUSH1 0x0 REVERT JUMPDEST POP POP POP POP PUSH1 0x40 MLOAD RETURNDATASIZE PUSH1 0x1F NOT PUSH1 0x1F DUP3 ADD AND DUP3 ADD DUP1 PUSH1 0x40 MSTORE POP DUP2 ADD SWAP1 PUSH2 0x34C3 SWAP2 SWAP1 PUSH2 0x6881 JUMP JUMPDEST PUSH1 0x40 DUP1 DUP4 ADD SWAP2 SWAP1 SWAP2 MSTORE MLOAD PUSH32 0x948D8CE600000000000000000000000000000000000000000000000000000000 DUP2 MSTORE PUSH20 0xFFFFFFFFFFFFFFFFFFFFFFFFFFFFFFFFFFFFFFFF DUP5 AND SWAP1 PUSH4 0x948D8CE6 SWAP1 PUSH2 0x351C SWAP1 DUP10 SWAP1 PUSH1 0x4 ADD PUSH2 0x6CC7 JUMP JUMPDEST PUSH1 0x20 PUSH1 0x40 MLOAD DUP1 DUP4 SUB DUP2 DUP7 DUP1 EXTCODESIZE ISZERO DUP1 ISZERO PUSH2 0x3534 JUMPI PUSH1 0x0 DUP1 REVERT JUMPDEST POP GAS STATICCALL ISZERO DUP1 ISZERO PUSH2 0x3548 JUMPI RETURNDATASIZE PUSH1 0x0 DUP1 RETURNDATACOPY RETURNDATASIZE PUSH1 0x0 REVERT JUMPDEST POP POP POP POP PUSH1 0x40 MLOAD RETURNDATASIZE PUSH1 0x1F NOT PUSH1 0x1F DUP3 ADD AND DUP3 ADD DUP1 PUSH1 0x40 MSTORE POP DUP2 ADD SWAP1 PUSH2 0x356C SWAP2 SWAP1 PUSH2 0x6881 JUMP JUMPDEST DUP2 PUSH1 0x60 ADD DUP2 DUP2 MSTORE POP POP DUP3 PUSH20 0xFFFFFFFFFFFFFFFFFFFFFFFFFFFFFFFFFFFFFFFF AND PUSH4 0xD4CADF68 PUSH1 0x40 MLOAD DUP2 PUSH4 0xFFFFFFFF AND PUSH1 0xE0 SHL DUP2 MSTORE PUSH1 0x4 ADD PUSH1 0x20 PUSH1 0x40 MLOAD DUP1 DUP4 SUB DUP2 DUP7 DUP1 EXTCODESIZE ISZERO DUP1 ISZERO PUSH2 0x35BB JUMPI PUSH1 0x0 DUP1 REVERT JUMPDEST POP GAS STATICCALL ISZERO DUP1 ISZERO PUSH2 0x35CF JUMPI RETURNDATASIZE PUSH1 0x0 DUP1 RETURNDATACOPY RETURNDATASIZE PUSH1 0x0 REVERT JUMPDEST POP POP POP POP PUSH1 0x40 MLOAD RETURNDATASIZE PUSH1 0x1F NOT PUSH1 0x1F DUP3 ADD AND DUP3 ADD DUP1 PUSH1 0x40 MSTORE POP DUP2 ADD SWAP1 PUSH2 0x35F3 SWAP2 SWAP1 PUSH2 0x6881 JUMP JUMPDEST PUSH1 0x80 DUP3 ADD MSTORE PUSH1 0x0 JUMPDEST DUP3 DUP2 LT ISZERO PUSH2 0x1CCA JUMPI DUP2 MLOAD PUSH2 0x3617 SWAP1 PUSH8 0x6F05B59D3B20000 PUSH2 0x4F8A JUMP JUMPDEST DUP7 DUP3 DUP2 MLOAD DUP2 LT PUSH2 0x3623 JUMPI INVALID JUMPDEST PUSH1 0x20 MUL PUSH1 0x20 ADD ADD MLOAD GT ISZERO PUSH2 0x3636 JUMPI PUSH2 0x1CCA JUMP JUMPDEST DUP4 PUSH20 0xFFFFFFFFFFFFFFFFFFFFFFFFFFFFFFFFFFFFFFFF AND PUSH4 0xBA9530A6 PUSH3 0x493E0 DUP5 PUSH1 0x0 ADD MLOAD DUP6 PUSH1 0x40 ADD MLOAD DUP7 PUSH1 0x20 ADD MLOAD DUP8 PUSH1 0x60 ADD MLOAD DUP13 DUP9 DUP2 MLOAD DUP2 LT PUSH2 0x3676 JUMPI INVALID JUMPDEST PUSH1 0x20 MUL PUSH1 0x20 ADD ADD MLOAD DUP10 PUSH1 0x80 ADD MLOAD PUSH1 0x40 MLOAD DUP9 PUSH4 0xFFFFFFFF AND PUSH1 0xE0 SHL DUP2 MSTORE PUSH1 0x4 ADD PUSH2 0x36A4 SWAP7 SWAP6 SWAP5 SWAP4 SWAP3 SWAP2 SWAP1 PUSH2 0x74CD JUMP JUMPDEST PUSH1 0x20 PUSH1 0x40 MLOAD DUP1 DUP4 SUB DUP2 DUP8 DUP1 EXTCODESIZE ISZERO DUP1 ISZERO PUSH2 0x36BC JUMPI PUSH1 0x0 DUP1 REVERT JUMPDEST POP DUP7 STATICCALL SWAP4 POP POP POP POP DUP1 ISZERO PUSH2 0x36ED JUMPI POP PUSH1 0x40 DUP1 MLOAD PUSH1 0x1F RETURNDATASIZE SWAP1 DUP2 ADD PUSH1 0x1F NOT AND DUP3 ADD SWAP1 SWAP3 MSTORE PUSH2 0x36EA SWAP2 DUP2 ADD SWAP1 PUSH2 0x6881 JUMP JUMPDEST PUSH1 0x1 JUMPDEST PUSH2 0x371B JUMPI RETURNDATASIZE DUP1 DUP1 ISZERO PUSH2 0x1C9C JUMPI PUSH1 0x40 MLOAD SWAP2 POP PUSH1 0x1F NOT PUSH1 0x3F RETURNDATASIZE ADD AND DUP3 ADD PUSH1 0x40 MSTORE RETURNDATASIZE DUP3 MSTORE RETURNDATASIZE PUSH1 0x0 PUSH1 0x20 DUP5 ADD RETURNDATACOPY PUSH2 0x1CA1 JUMP JUMPDEST DUP1 DUP7 DUP4 DUP2 MLOAD DUP2 LT PUSH2 0x3728 JUMPI INVALID JUMPDEST PUSH1 0x20 MUL PUSH1 0x20 ADD ADD DUP2 DUP2 MSTORE POP POP POP PUSH1 0x1 ADD PUSH2 0x35FB JUMP JUMPDEST PUSH1 0x3 SLOAD PUSH20 0xFFFFFFFFFFFFFFFFFFFFFFFFFFFFFFFFFFFFFFFF AND DUP2 JUMP JUMPDEST DUP1 MLOAD PUSH1 0x60 SWAP1 DUP1 PUSH8 0xFFFFFFFFFFFFFFFF DUP2 GT DUP1 ISZERO PUSH2 0x3775 JUMPI PUSH1 0x0 DUP1 REVERT JUMPDEST POP PUSH1 0x40 MLOAD SWAP1 DUP1 DUP3 MSTORE DUP1 PUSH1 0x20 MUL PUSH1 0x20 ADD DUP3 ADD PUSH1 0x40 MSTORE DUP1 ISZERO PUSH2 0x379F JUMPI DUP2 PUSH1 0x20 ADD PUSH1 0x20 DUP3 MUL DUP1 CALLDATASIZE DUP4 CALLDATACOPY ADD SWAP1 POP JUMPDEST POP SWAP2 POP PUSH1 0x0 JUMPDEST DUP2 DUP2 LT ISZERO PUSH2 0x152B JUMPI DUP7 PUSH20 0xFFFFFFFFFFFFFFFFFFFFFFFFFFFFFFFFFFFFFFFF AND PUSH4 0x343FBCDD PUSH3 0x61A80 DUP9 DUP9 DUP9 DUP7 DUP2 MLOAD DUP2 LT PUSH2 0x37DB JUMPI INVALID JUMPDEST PUSH1 0x20 MUL PUSH1 0x20 ADD ADD MLOAD PUSH1 0x40 MLOAD DUP6 PUSH4 0xFFFFFFFF AND PUSH1 0xE0 SHL DUP2 MSTORE PUSH1 0x4 ADD PUSH2 0x3801 SWAP4 SWAP3 SWAP2 SWAP1 PUSH2 0x6DF0 JUMP JUMPDEST PUSH1 0x20 PUSH1 0x40 MLOAD DUP1 DUP4 SUB DUP2 DUP8 DUP1 EXTCODESIZE ISZERO DUP1 ISZERO PUSH2 0x3819 JUMPI PUSH1 0x0 DUP1 REVERT JUMPDEST POP DUP7 STATICCALL SWAP4 POP POP POP POP DUP1 ISZERO PUSH2 0x384A JUMPI POP PUSH1 0x40 DUP1 MLOAD PUSH1 0x1F RETURNDATASIZE SWAP1 DUP2 ADD PUSH1 0x1F NOT AND DUP3 ADD SWAP1 SWAP3 MSTORE PUSH2 0x3847 SWAP2 DUP2 ADD SWAP1 PUSH2 0x6881 JUMP JUMPDEST PUSH1 0x1 JUMPDEST PUSH2 0x3878 JUMPI RETURNDATASIZE DUP1 DUP1 ISZERO PUSH2 0x1DF5 JUMPI PUSH1 0x40 MLOAD SWAP2 POP PUSH1 0x1F NOT PUSH1 0x3F RETURNDATASIZE ADD AND DUP3 ADD PUSH1 0x40 MSTORE RETURNDATASIZE DUP3 MSTORE RETURNDATASIZE PUSH1 0x0 PUSH1 0x20 DUP5 ADD RETURNDATACOPY PUSH2 0x1DFA JUMP JUMPDEST DUP1 DUP5 DUP4 DUP2 MLOAD DUP2 LT PUSH2 0x3885 JUMPI INVALID JUMPDEST PUSH1 0x20 MUL PUSH1 0x20 ADD ADD DUP2 DUP2 MSTORE POP POP POP PUSH1 0x1 ADD PUSH2 0x37A5 JUMP JUMPDEST DUP1 MLOAD PUSH1 0x60 SWAP1 DUP1 PUSH8 0xFFFFFFFFFFFFFFFF DUP2 GT DUP1 ISZERO PUSH2 0x38B6 JUMPI PUSH1 0x0 DUP1 REVERT JUMPDEST POP PUSH1 0x40 MLOAD SWAP1 DUP1 DUP3 MSTORE DUP1 PUSH1 0x20 MUL PUSH1 0x20 ADD DUP3 ADD PUSH1 0x40 MSTORE DUP1 ISZERO PUSH2 0x38E0 JUMPI DUP2 PUSH1 0x20 ADD PUSH1 0x20 DUP3 MUL DUP1 CALLDATASIZE DUP4 CALLDATACOPY ADD SWAP1 POP JUMPDEST POP SWAP2 POP PUSH1 0x0 JUMPDEST DUP2 DUP2 LT ISZERO PUSH2 0x3A08 JUMPI PUSH2 0x38F6 PUSH2 0x5597 JUMP JUMPDEST PUSH20 0xFFFFFFFFFFFFFFFFFFFFFFFFFFFFFFFFFFFFFFFF AND PUSH4 0xD06CA61F PUSH3 0x249F0 DUP7 DUP5 DUP2 MLOAD DUP2 LT PUSH2 0x3921 JUMPI INVALID JUMPDEST PUSH1 0x20 MUL PUSH1 0x20 ADD ADD MLOAD DUP9 PUSH1 0x40 MLOAD DUP5 PUSH4 0xFFFFFFFF AND PUSH1 0xE0 SHL DUP2 MSTORE PUSH1 0x4 ADD PUSH2 0x3947 SWAP3 SWAP2 SWAP1 PUSH2 0x74A6 JUMP JUMPDEST PUSH1 0x0 PUSH1 0x40 MLOAD DUP1 DUP4 SUB DUP2 DUP8 DUP1 EXTCODESIZE ISZERO DUP1 ISZERO PUSH2 0x395F JUMPI PUSH1 0x0 DUP1 REVERT JUMPDEST POP DUP7 STATICCALL SWAP4 POP POP POP POP DUP1 ISZERO PUSH2 0x3995 JUMPI POP PUSH1 0x40 MLOAD RETURNDATASIZE PUSH1 0x0 DUP3 RETURNDATACOPY PUSH1 0x1F RETURNDATASIZE SWAP1 DUP2 ADD PUSH1 0x1F NOT AND DUP3 ADD PUSH1 0x40 MSTORE PUSH2 0x3992 SWAP2 SWAP1 DUP2 ADD SWAP1 PUSH2 0x677D JUMP JUMPDEST PUSH1 0x1 JUMPDEST PUSH2 0x39CF JUMPI RETURNDATASIZE DUP1 DUP1 ISZERO PUSH2 0x39C3 JUMPI PUSH1 0x40 MLOAD SWAP2 POP PUSH1 0x1F NOT PUSH1 0x3F RETURNDATASIZE ADD AND DUP3 ADD PUSH1 0x40 MSTORE RETURNDATASIZE DUP3 MSTORE RETURNDATASIZE PUSH1 0x0 PUSH1 0x20 DUP5 ADD RETURNDATACOPY PUSH2 0x39C8 JUMP JUMPDEST PUSH1 0x60 SWAP2 POP JUMPDEST POP POP PUSH2 0x3A08 JUMP JUMPDEST DUP1 PUSH1 0x1 DUP8 MLOAD SUB DUP2 MLOAD DUP2 LT PUSH2 0x39DF JUMPI INVALID JUMPDEST PUSH1 0x20 MUL PUSH1 0x20 ADD ADD MLOAD DUP5 DUP4 DUP2 MLOAD DUP2 LT PUSH2 0x39F3 JUMPI INVALID JUMPDEST PUSH1 0x20 MUL PUSH1 0x20 ADD ADD DUP2 DUP2 MSTORE POP POP POP PUSH1 0x1 ADD PUSH2 0x38E6 JUMP JUMPDEST POP POP SWAP3 SWAP2 POP POP JUMP JUMPDEST DUP1 MLOAD PUSH1 0x60 SWAP1 DUP1 PUSH8 0xFFFFFFFFFFFFFFFF DUP2 GT DUP1 ISZERO PUSH2 0x3A2C JUMPI PUSH1 0x0 DUP1 REVERT JUMPDEST POP PUSH1 0x40 MLOAD SWAP1 DUP1 DUP3 MSTORE DUP1 PUSH1 0x20 MUL PUSH1 0x20 ADD DUP3 ADD PUSH1 0x40 MSTORE DUP1 ISZERO PUSH2 0x3A56 JUMPI DUP2 PUSH1 0x20 ADD PUSH1 0x20 DUP3 MUL DUP1 CALLDATASIZE DUP4 CALLDATACOPY ADD SWAP1 POP JUMPDEST POP SWAP2 POP PUSH1 0x0 JUMPDEST DUP2 DUP2 LT ISZERO PUSH2 0x1692 JUMPI PUSH2 0x3A6C PUSH2 0x55B3 JUMP JUMPDEST PUSH20 0xFFFFFFFFFFFFFFFFFFFFFFFFFFFFFFFFFFFFFFFF AND PUSH4 0x72EA9076 PUSH3 0xC3500 DUP9 DUP9 DUP9 DUP7 DUP2 MLOAD DUP2 LT PUSH2 0x3A99 JUMPI INVALID JUMPDEST PUSH1 0x20 MUL PUSH1 0x20 ADD ADD MLOAD PUSH1 0x40 MLOAD DUP6 PUSH4 0xFFFFFFFF AND PUSH1 0xE0 SHL DUP2 MSTORE PUSH1 0x4 ADD PUSH2 0x3ABF SWAP4 SWAP3 SWAP2 SWAP1 PUSH2 0x6DF0 JUMP JUMPDEST PUSH1 0x0 PUSH1 0x40 MLOAD DUP1 DUP4 SUB DUP2 DUP8 DUP1 EXTCODESIZE ISZERO DUP1 ISZERO PUSH2 0x3AD7 JUMPI PUSH1 0x0 DUP1 REVERT JUMPDEST POP DUP7 STATICCALL SWAP4 POP POP POP POP DUP1 ISZERO PUSH2 0x3B0D JUMPI POP PUSH1 0x40 MLOAD RETURNDATASIZE PUSH1 0x0 DUP3 RETURNDATACOPY PUSH1 0x1F RETURNDATASIZE SWAP1 DUP2 ADD PUSH1 0x1F NOT AND DUP3 ADD PUSH1 0x40 MSTORE PUSH2 0x3B0A SWAP2 SWAP1 DUP2 ADD SWAP1 PUSH2 0x6829 JUMP JUMPDEST PUSH1 0x1 JUMPDEST PUSH2 0x3B3B JUMPI RETURNDATASIZE DUP1 DUP1 ISZERO PUSH2 0x1664 JUMPI PUSH1 0x40 MLOAD SWAP2 POP PUSH1 0x1F NOT PUSH1 0x3F RETURNDATASIZE ADD AND DUP3 ADD PUSH1 0x40 MSTORE RETURNDATASIZE DUP3 MSTORE RETURNDATASIZE PUSH1 0x0 PUSH1 0x20 DUP5 ADD RETURNDATACOPY PUSH2 0x1669 JUMP JUMPDEST DUP1 DUP7 DUP6 DUP2 MLOAD DUP2 LT PUSH2 0x3B48 JUMPI INVALID JUMPDEST PUSH1 0x20 MUL PUSH1 0x20 ADD ADD DUP2 DUP2 MSTORE POP POP POP POP POP PUSH1 0x1 ADD PUSH2 0x3A5C JUMP JUMPDEST PUSH1 0x60 PUSH1 0x0 PUSH2 0x3B6B PUSH2 0x4EB4 JUMP JUMPDEST PUSH1 0x40 DUP1 MLOAD PUSH1 0x1 DUP1 DUP3 MSTORE DUP2 DUP4 ADD SWAP1 SWAP3 MSTORE SWAP2 SWAP3 POP PUSH1 0x60 SWAP2 SWAP1 PUSH1 0x20 DUP1 DUP4 ADD SWAP1 DUP1 CALLDATASIZE DUP4 CALLDATACOPY ADD SWAP1 POP POP SWAP1 POP DUP6 DUP2 PUSH1 0x0 DUP2 MLOAD DUP2 LT PUSH2 0x3B9F JUMPI INVALID JUMPDEST PUSH1 0x20 SWAP1 DUP2 MUL SWAP2 SWAP1 SWAP2 ADD ADD MSTORE PUSH1 0x60 PUSH1 0x0 PUSH1 0x40 MLOAD SWAP1 DUP1 DUP3 MSTORE DUP1 PUSH1 0x20 MUL PUSH1 0x20 ADD DUP3 ADD PUSH1 0x40 MSTORE DUP1 ISZERO PUSH2 0x3BD7 JUMPI DUP2 PUSH1 0x20 ADD PUSH1 0x20 DUP3 MUL DUP1 CALLDATASIZE DUP4 CALLDATACOPY ADD SWAP1 POP JUMPDEST POP SWAP1 POP PUSH2 0x3BE2 PUSH2 0x4ED0 JUMP JUMPDEST PUSH20 0xFFFFFFFFFFFFFFFFFFFFFFFFFFFFFFFFFFFFFFFF AND DUP7 PUSH20 0xFFFFFFFFFFFFFFFFFFFFFFFFFFFFFFFFFFFFFFFF AND EQ ISZERO PUSH2 0x3D0B JUMPI PUSH1 0x40 MLOAD PUSH32 0x81EFCBDD00000000000000000000000000000000000000000000000000000000 DUP2 MSTORE PUSH20 0xFFFFFFFFFFFFFFFFFFFFFFFFFFFFFFFFFFFFFFFF DUP5 AND SWAP1 PUSH4 0x81EFCBDD SWAP1 PUSH3 0x7A120 SWAP1 PUSH2 0x3C73 SWAP1 DUP10 SWAP1 PUSH1 0x1 SWAP1 DUP9 SWAP1 DUP9 SWAP1 PUSH1 0x4 ADD PUSH2 0x6EE1 JUMP JUMPDEST PUSH1 0x0 PUSH1 0x40 MLOAD DUP1 DUP4 SUB DUP2 DUP8 DUP1 EXTCODESIZE ISZERO DUP1 ISZERO PUSH2 0x3C8B JUMPI PUSH1 0x0 DUP1 REVERT JUMPDEST POP DUP7 STATICCALL SWAP4 POP POP POP POP DUP1 ISZERO PUSH2 0x3CC1 JUMPI POP PUSH1 0x40 MLOAD RETURNDATASIZE PUSH1 0x0 DUP3 RETURNDATACOPY PUSH1 0x1F RETURNDATASIZE SWAP1 DUP2 ADD PUSH1 0x1F NOT AND DUP3 ADD PUSH1 0x40 MSTORE PUSH2 0x3CBE SWAP2 SWAP1 DUP2 ADD SWAP1 PUSH2 0x68F6 JUMP JUMPDEST PUSH1 0x1 JUMPDEST PUSH2 0x3CFB JUMPI RETURNDATASIZE DUP1 DUP1 ISZERO PUSH2 0x3CEF JUMPI PUSH1 0x40 MLOAD SWAP2 POP PUSH1 0x1F NOT PUSH1 0x3F RETURNDATASIZE ADD AND DUP3 ADD PUSH1 0x40 MSTORE RETURNDATASIZE DUP3 MSTORE RETURNDATASIZE PUSH1 0x0 PUSH1 0x20 DUP5 ADD RETURNDATACOPY PUSH2 0x3CF4 JUMP JUMPDEST PUSH1 0x60 SWAP2 POP JUMPDEST POP POP PUSH2 0x3D06 JUMP JUMPDEST SWAP4 POP PUSH2 0x1380 SWAP3 POP POP POP JUMP JUMPDEST PUSH2 0x3E8E JUMP JUMPDEST PUSH2 0x3D13 PUSH2 0x4ED0 JUMP JUMPDEST PUSH20 0xFFFFFFFFFFFFFFFFFFFFFFFFFFFFFFFFFFFFFFFF AND DUP6 PUSH20 0xFFFFFFFFFFFFFFFFFFFFFFFFFFFFFFFFFFFFFFFF AND EQ ISZERO PUSH2 0x3DA4 JUMPI PUSH1 0x40 MLOAD PUSH32 0x61E597F900000000000000000000000000000000000000000000000000000000 DUP2 MSTORE PUSH20 0xFFFFFFFFFFFFFFFFFFFFFFFFFFFFFFFFFFFFFFFF DUP5 AND SWAP1 PUSH4 0x61E597F9 SWAP1 PUSH3 0x7A120 SWAP1 PUSH2 0x3C73 SWAP1 DUP11 SWAP1 PUSH1 0x1 SWAP1 DUP9 SWAP1 DUP9 SWAP1 PUSH1 0x4 ADD PUSH2 0x6EE1 JUMP JUMPDEST PUSH1 0x40 MLOAD PUSH32 0x5734D9A00000000000000000000000000000000000000000000000000000000 DUP2 MSTORE PUSH20 0xFFFFFFFFFFFFFFFFFFFFFFFFFFFFFFFFFFFFFFFF DUP5 AND SWAP1 PUSH4 0x5734D9A SWAP1 PUSH3 0x7A120 SWAP1 PUSH2 0x3E0A SWAP1 DUP11 SWAP1 PUSH1 0x1 SWAP1 DUP9 SWAP1 DUP9 SWAP1 DUP14 SWAP1 DUP5 SWAP1 DUP5 SWAP1 DUP5 SWAP1 PUSH1 0x4 ADD PUSH2 0x6F30 JUMP JUMPDEST PUSH1 0x0 PUSH1 0x40 MLOAD DUP1 DUP4 SUB DUP2 DUP8 DUP1 EXTCODESIZE ISZERO DUP1 ISZERO PUSH2 0x3E22 JUMPI PUSH1 0x0 DUP1 REVERT JUMPDEST POP DUP7 STATICCALL SWAP4 POP POP POP POP DUP1 ISZERO PUSH2 0x3E58 JUMPI POP PUSH1 0x40 MLOAD RETURNDATASIZE PUSH1 0x0 DUP3 RETURNDATACOPY PUSH1 0x1F RETURNDATASIZE SWAP1 DUP2 ADD PUSH1 0x1F NOT AND DUP3 ADD PUSH1 0x40 MSTORE PUSH2 0x3E55 SWAP2 SWAP1 DUP2 ADD SWAP1 PUSH2 0x68F6 JUMP JUMPDEST PUSH1 0x1 JUMPDEST PUSH2 0x3CFB JUMPI RETURNDATASIZE DUP1 DUP1 ISZERO PUSH2 0x3E86 JUMPI PUSH1 0x40 MLOAD SWAP2 POP PUSH1 0x1F NOT PUSH1 0x3F RETURNDATASIZE ADD AND DUP3 ADD PUSH1 0x40 MSTORE RETURNDATASIZE DUP3 MSTORE RETURNDATASIZE PUSH1 0x0 PUSH1 0x20 DUP5 ADD RETURNDATACOPY PUSH2 0x3E8B JUMP JUMPDEST PUSH1 0x60 SWAP2 POP JUMPDEST POP POP JUMPDEST POP POP POP SWAP4 SWAP3 POP POP POP JUMP JUMPDEST PUSH1 0x0 DUP1 PUSH1 0x60 PUSH2 0x3EA7 DUP6 DUP8 PUSH2 0x4EFB JUMP JUMPDEST DUP4 MLOAD DUP1 PUSH8 0xFFFFFFFFFFFFFFFF DUP2 GT DUP1 ISZERO PUSH2 0x3EC0 JUMPI PUSH1 0x0 DUP1 REVERT JUMPDEST POP PUSH1 0x40 MLOAD SWAP1 DUP1 DUP3 MSTORE DUP1 PUSH1 0x20 MUL PUSH1 0x20 ADD DUP3 ADD PUSH1 0x40 MSTORE DUP1 ISZERO PUSH2 0x3EEA JUMPI DUP2 PUSH1 0x20 ADD PUSH1 0x20 DUP3 MUL DUP1 CALLDATASIZE DUP4 CALLDATACOPY ADD SWAP1 POP JUMPDEST POP SWAP2 POP PUSH2 0x3EF5 PUSH2 0x55CB JUMP JUMPDEST PUSH20 0xFFFFFFFFFFFFFFFFFFFFFFFFFFFFFFFFFFFFFFFF AND PUSH4 0x1273B0C6 DUP9 DUP9 PUSH1 0x40 MLOAD DUP4 PUSH4 0xFFFFFFFF AND PUSH1 0xE0 SHL DUP2 MSTORE PUSH1 0x4 ADD PUSH2 0x3F2F SWAP3 SWAP2 SWAP1 PUSH2 0x6CE8 JUMP JUMPDEST PUSH1 0x20 PUSH1 0x40 MLOAD DUP1 DUP4 SUB DUP2 DUP7 DUP1 EXTCODESIZE ISZERO DUP1 ISZERO PUSH2 0x3F47 JUMPI PUSH1 0x0 DUP1 REVERT JUMPDEST POP GAS STATICCALL ISZERO DUP1 ISZERO PUSH2 0x3F5B JUMPI RETURNDATASIZE PUSH1 0x0 DUP1 RETURNDATACOPY RETURNDATASIZE PUSH1 0x0 REVERT JUMPDEST POP POP POP POP PUSH1 0x40 MLOAD RETURNDATASIZE PUSH1 0x1F NOT PUSH1 0x1F DUP3 ADD AND DUP3 ADD DUP1 PUSH1 0x40 MSTORE POP DUP2 ADD SWAP1 PUSH2 0x3F7F SWAP2 SWAP1 PUSH2 0x61D0 JUMP JUMPDEST SWAP3 POP PUSH1 0x0 PUSH20 0xFFFFFFFFFFFFFFFFFFFFFFFFFFFFFFFFFFFFFFFF DUP5 AND ISZERO PUSH2 0x3FAA JUMPI POP PUSH1 0x1 SWAP4 POP DUP7 PUSH2 0x4067 JUMP JUMPDEST PUSH2 0x3FB2 PUSH2 0x55CB JUMP JUMPDEST PUSH20 0xFFFFFFFFFFFFFFFFFFFFFFFFFFFFFFFFFFFFFFFF AND PUSH4 0x1273B0C6 DUP9 DUP11 PUSH1 0x40 MLOAD DUP4 PUSH4 0xFFFFFFFF AND PUSH1 0xE0 SHL DUP2 MSTORE PUSH1 0x4 ADD PUSH2 0x3FEC SWAP3 SWAP2 SWAP1 PUSH2 0x6CE8 JUMP JUMPDEST PUSH1 0x20 PUSH1 0x40 MLOAD DUP1 DUP4 SUB DUP2 DUP7 DUP1 EXTCODESIZE ISZERO DUP1 ISZERO PUSH2 0x4004 JUMPI PUSH1 0x0 DUP1 REVERT JUMPDEST POP GAS STATICCALL ISZERO DUP1 ISZERO PUSH2 0x4018 JUMPI RETURNDATASIZE PUSH1 0x0 DUP1 RETURNDATACOPY RETURNDATASIZE PUSH1 0x0 REVERT JUMPDEST POP POP POP POP PUSH1 0x40 MLOAD RETURNDATASIZE PUSH1 0x1F NOT PUSH1 0x1F DUP3 ADD AND DUP3 ADD DUP1 PUSH1 0x40 MSTORE POP DUP2 ADD SWAP1 PUSH2 0x403C SWAP2 SWAP1 PUSH2 0x61D0 JUMP JUMPDEST SWAP4 POP PUSH20 0xFFFFFFFFFFFFFFFFFFFFFFFFFFFFFFFFFFFFFFFF DUP5 AND PUSH2 0x4060 JUMPI POP POP PUSH2 0x2EE5 JUMP JUMPDEST POP PUSH1 0x0 SWAP4 POP DUP6 JUMPDEST DUP4 PUSH20 0xFFFFFFFFFFFFFFFFFFFFFFFFFFFFFFFFFFFFFFFF AND PUSH4 0xDD58B41C PUSH1 0x40 MLOAD DUP2 PUSH4 0xFFFFFFFF AND PUSH1 0xE0 SHL DUP2 MSTORE PUSH1 0x4 ADD PUSH1 0x20 PUSH1 0x40 MLOAD DUP1 DUP4 SUB DUP2 DUP7 DUP1 EXTCODESIZE ISZERO DUP1 ISZERO PUSH2 0x40AD JUMPI PUSH1 0x0 DUP1 REVERT JUMPDEST POP GAS STATICCALL ISZERO DUP1 ISZERO PUSH2 0x40C1 JUMPI RETURNDATASIZE PUSH1 0x0 DUP1 RETURNDATACOPY RETURNDATASIZE PUSH1 0x0 REVERT JUMPDEST POP POP POP POP PUSH1 0x40 MLOAD RETURNDATASIZE PUSH1 0x1F NOT PUSH1 0x1F DUP3 ADD AND DUP3 ADD DUP1 PUSH1 0x40 MSTORE POP DUP2 ADD SWAP1 PUSH2 0x40E5 SWAP2 SWAP1 PUSH2 0x680D JUMP JUMPDEST PUSH2 0x40F0 JUMPI POP POP PUSH2 0x2EE5 JUMP JUMPDEST PUSH1 0x0 JUMPDEST DUP3 DUP2 LT ISZERO PUSH2 0x418F JUMPI PUSH1 0x0 PUSH2 0x4161 DUP11 DUP8 DUP6 PUSH1 0x40 MLOAD PUSH1 0x20 ADD PUSH2 0x4115 SWAP4 SWAP3 SWAP2 SWAP1 PUSH2 0x6D0F JUMP JUMPDEST PUSH1 0x40 MLOAD PUSH1 0x20 DUP2 DUP4 SUB SUB DUP2 MSTORE SWAP1 PUSH1 0x40 MSTORE DUP11 DUP9 DUP7 PUSH1 0x40 MLOAD PUSH1 0x20 ADD PUSH2 0x4139 SWAP4 SWAP3 SWAP2 SWAP1 PUSH2 0x6D0F JUMP JUMPDEST PUSH1 0x40 MLOAD PUSH1 0x20 DUP2 DUP4 SUB SUB DUP2 MSTORE SWAP1 PUSH1 0x40 MSTORE DUP11 DUP6 DUP2 MLOAD DUP2 LT PUSH2 0x4154 JUMPI INVALID JUMPDEST PUSH1 0x20 MUL PUSH1 0x20 ADD ADD MLOAD PUSH2 0x55E3 JUMP JUMPDEST SWAP1 POP DUP1 PUSH2 0x416E JUMPI POP PUSH2 0x418F JUMP JUMPDEST DUP1 DUP6 DUP4 DUP2 MLOAD DUP2 LT PUSH2 0x417B JUMPI INVALID JUMPDEST PUSH1 0x20 SWAP1 DUP2 MUL SWAP2 SWAP1 SWAP2 ADD ADD MSTORE POP PUSH1 0x1 ADD PUSH2 0x40F3 JUMP JUMPDEST POP POP POP SWAP4 POP SWAP4 POP SWAP4 SWAP1 POP JUMP JUMPDEST PUSH1 0x40 DUP1 MLOAD PUSH1 0x60 DUP2 DUP2 ADD SWAP1 SWAP3 MSTORE PUSH2 0x1127 SWAP1 DUP1 PUSH2 0x41BA DUP7 DUP10 PUSH1 0x80 DUP5 ADD PUSH2 0x6CE8 JUMP JUMPDEST PUSH1 0x40 MLOAD PUSH1 0x20 DUP2 DUP4 SUB SUB DUP2 MSTORE SWAP1 PUSH1 0x40 MSTORE DUP2 MSTORE PUSH1 0x20 ADD DUP7 DUP9 PUSH1 0x40 MLOAD PUSH1 0x20 ADD PUSH2 0x41E1 SWAP3 SWAP2 SWAP1 PUSH2 0x6CE8 JUMP JUMPDEST PUSH1 0x40 MLOAD PUSH1 0x20 DUP2 DUP4 SUB SUB DUP2 MSTORE SWAP1 PUSH1 0x40 MSTORE DUP2 MSTORE PUSH1 0x20 ADD PUSH2 0x575E DUP2 MSTORE POP DUP4 PUSH2 0x51EC JUMP JUMPDEST PUSH1 0x60 PUSH2 0xD49 PUSH1 0x40 MLOAD DUP1 PUSH1 0x60 ADD PUSH1 0x40 MSTORE DUP1 DUP6 PUSH1 0x40 MLOAD PUSH1 0x20 ADD PUSH2 0x4222 SWAP2 SWAP1 PUSH2 0x6CC7 JUMP JUMPDEST PUSH1 0x40 MLOAD PUSH1 0x20 DUP2 DUP4 SUB SUB DUP2 MSTORE SWAP1 PUSH1 0x40 MSTORE DUP2 MSTORE PUSH1 0x20 ADD DUP7 PUSH1 0x40 MLOAD PUSH1 0x20 ADD PUSH2 0x4247 SWAP2 SWAP1 PUSH2 0x6CC7 JUMP JUMPDEST PUSH1 0x40 MLOAD PUSH1 0x20 DUP2 DUP4 SUB SUB DUP2 MSTORE SWAP1 PUSH1 0x40 MSTORE DUP2 MSTORE PUSH1 0x20 ADD PUSH2 0x5864 DUP2 MSTORE POP DUP4 PUSH2 0x51EC JUMP JUMPDEST PUSH20 0xE9DB8717BC5DFB20AAF538B4A5A02B7791FF430C DUP2 JUMP JUMPDEST PUSH1 0x0 PUSH1 0x60 PUSH2 0x428D DUP5 DUP7 PUSH2 0x4EFB JUMP JUMPDEST DUP3 MLOAD DUP1 PUSH8 0xFFFFFFFFFFFFFFFF DUP2 GT DUP1 ISZERO PUSH2 0x42A6 JUMPI PUSH1 0x0 DUP1 REVERT JUMPDEST POP PUSH1 0x40 MLOAD SWAP1 DUP1 DUP3 MSTORE DUP1 PUSH1 0x20 MUL PUSH1 0x20 ADD DUP3 ADD PUSH1 0x40 MSTORE DUP1 ISZERO PUSH2 0x42D0 JUMPI DUP2 PUSH1 0x20 ADD PUSH1 0x20 DUP3 MUL DUP1 CALLDATASIZE DUP4 CALLDATACOPY ADD SWAP1 POP JUMPDEST POP SWAP2 POP PUSH1 0x0 PUSH2 0x42DD PUSH2 0x4ED0 JUMP JUMPDEST PUSH20 0xFFFFFFFFFFFFFFFFFFFFFFFFFFFFFFFFFFFFFFFF AND DUP8 PUSH20 0xFFFFFFFFFFFFFFFFFFFFFFFFFFFFFFFFFFFFFFFF AND EQ PUSH2 0x4315 JUMPI DUP7 PUSH2 0x4318 JUMP JUMPDEST PUSH1 0x0 JUMPDEST SWAP1 POP PUSH1 0x0 PUSH2 0x4324 PUSH2 0x4ED0 JUMP JUMPDEST PUSH20 0xFFFFFFFFFFFFFFFFFFFFFFFFFFFFFFFFFFFFFFFF AND DUP8 PUSH20 0xFFFFFFFFFFFFFFFFFFFFFFFFFFFFFFFFFFFFFFFF AND EQ PUSH2 0x435C JUMPI DUP7 PUSH2 0x435F JUMP JUMPDEST PUSH1 0x0 JUMPDEST SWAP1 POP PUSH1 0x0 JUMPDEST DUP4 DUP2 LT ISZERO PUSH2 0x43BA JUMPI PUSH1 0x0 PUSH2 0x438C DUP5 DUP5 DUP11 DUP6 DUP2 MLOAD DUP2 LT PUSH2 0x437F JUMPI INVALID JUMPDEST PUSH1 0x20 MUL PUSH1 0x20 ADD ADD MLOAD PUSH2 0x250A JUMP JUMPDEST SWAP1 POP DUP1 PUSH2 0x4399 JUMPI POP PUSH2 0x43BA JUMP JUMPDEST DUP1 DUP7 DUP4 DUP2 MLOAD DUP2 LT PUSH2 0x43A6 JUMPI INVALID JUMPDEST PUSH1 0x20 SWAP1 DUP2 MUL SWAP2 SWAP1 SWAP2 ADD ADD MSTORE POP PUSH1 0x1 ADD PUSH2 0x4364 JUMP JUMPDEST POP PUSH2 0x2341 PUSH2 0x53EA JUMP JUMPDEST PUSH1 0x60 DUP1 PUSH2 0x43D0 DUP5 DUP7 PUSH2 0x4EFB JUMP JUMPDEST PUSH1 0x40 MLOAD PUSH32 0xBCCC34C600000000000000000000000000000000000000000000000000000000 DUP2 MSTORE ADDRESS SWAP1 PUSH4 0xBCCC34C6 SWAP1 PUSH2 0x4410 SWAP1 DUP10 SWAP1 DUP10 SWAP1 DUP10 SWAP1 PUSH1 0x4 ADD PUSH2 0x7144 JUMP JUMPDEST PUSH1 0x0 PUSH1 0x40 MLOAD DUP1 DUP4 SUB DUP2 DUP7 DUP1 EXTCODESIZE ISZERO DUP1 ISZERO PUSH2 0x4428 JUMPI PUSH1 0x0 DUP1 REVERT JUMPDEST POP GAS STATICCALL ISZERO DUP1 ISZERO PUSH2 0x443C JUMPI RETURNDATASIZE PUSH1 0x0 DUP1 RETURNDATACOPY RETURNDATASIZE PUSH1 0x0 REVERT JUMPDEST POP POP POP POP PUSH1 0x40 MLOAD RETURNDATASIZE PUSH1 0x0 DUP3 RETURNDATACOPY PUSH1 0x1F RETURNDATASIZE SWAP1 DUP2 ADD PUSH1 0x1F NOT AND DUP3 ADD PUSH1 0x40 MSTORE PUSH2 0x4464 SWAP2 SWAP1 DUP2 ADD SWAP1 PUSH2 0x68F6 JUMP JUMPDEST SWAP2 POP PUSH2 0x44CE PUSH1 0x40 MLOAD DUP1 PUSH1 0x60 ADD PUSH1 0x40 MSTORE DUP1 DUP7 DUP6 PUSH1 0x40 MLOAD PUSH1 0x20 ADD PUSH2 0x4487 SWAP3 SWAP2 SWAP1 PUSH2 0x6EB2 JUMP JUMPDEST PUSH1 0x40 MLOAD PUSH1 0x20 DUP2 DUP4 SUB SUB DUP2 MSTORE SWAP1 PUSH1 0x40 MSTORE DUP2 MSTORE PUSH1 0x20 ADD DUP8 DUP6 PUSH1 0x40 MLOAD PUSH1 0x20 ADD PUSH2 0x44AE SWAP3 SWAP2 SWAP1 PUSH2 0x6EB2 JUMP JUMPDEST PUSH1 0x40 MLOAD PUSH1 0x20 DUP2 DUP4 SUB SUB DUP2 MSTORE SWAP1 PUSH1 0x40 MSTORE DUP2 MSTORE PUSH1 0x20 ADD PUSH2 0x595E DUP2 MSTORE POP DUP5 PUSH2 0x51EC JUMP JUMPDEST SWAP1 POP SWAP5 POP SWAP5 SWAP3 POP POP POP JUMP JUMPDEST PUSH1 0x0 DUP1 PUSH1 0x60 PUSH2 0x44E8 DUP6 DUP8 PUSH2 0x4EFB JUMP JUMPDEST DUP4 MLOAD DUP1 PUSH8 0xFFFFFFFFFFFFFFFF DUP2 GT DUP1 ISZERO PUSH2 0x4501 JUMPI PUSH1 0x0 DUP1 REVERT JUMPDEST POP PUSH1 0x40 MLOAD SWAP1 DUP1 DUP3 MSTORE DUP1 PUSH1 0x20 MUL PUSH1 0x20 ADD DUP3 ADD PUSH1 0x40 MSTORE DUP1 ISZERO PUSH2 0x452B JUMPI DUP2 PUSH1 0x20 ADD PUSH1 0x20 DUP3 MUL DUP1 CALLDATASIZE DUP4 CALLDATACOPY ADD SWAP1 POP JUMPDEST POP SWAP2 POP PUSH2 0x4536 PUSH2 0x55CB JUMP JUMPDEST PUSH20 0xFFFFFFFFFFFFFFFFFFFFFFFFFFFFFFFFFFFFFFFF AND PUSH4 0x1273B0C6 DUP9 DUP9 PUSH1 0x40 MLOAD DUP4 PUSH4 0xFFFFFFFF AND PUSH1 0xE0 SHL DUP2 MSTORE PUSH1 0x4 ADD PUSH2 0x4570 SWAP3 SWAP2 SWAP1 PUSH2 0x6CE8 JUMP JUMPDEST PUSH1 0x20 PUSH1 0x40 MLOAD DUP1 DUP4 SUB DUP2 DUP7 DUP1 EXTCODESIZE ISZERO DUP1 ISZERO PUSH2 0x4588 JUMPI PUSH1 0x0 DUP1 REVERT JUMPDEST POP GAS STATICCALL ISZERO DUP1 ISZERO PUSH2 0x459C JUMPI RETURNDATASIZE PUSH1 0x0 DUP1 RETURNDATACOPY RETURNDATASIZE PUSH1 0x0 REVERT JUMPDEST POP POP POP POP PUSH1 0x40 MLOAD RETURNDATASIZE PUSH1 0x1F NOT PUSH1 0x1F DUP3 ADD AND DUP3 ADD DUP1 PUSH1 0x40 MSTORE POP DUP2 ADD SWAP1 PUSH2 0x45C0 SWAP2 SWAP1 PUSH2 0x61D0 JUMP JUMPDEST SWAP3 POP PUSH1 0x0 PUSH20 0xFFFFFFFFFFFFFFFFFFFFFFFFFFFFFFFFFFFFFFFF DUP5 AND ISZERO PUSH2 0x45EB JUMPI POP PUSH1 0x1 SWAP4 POP DUP7 PUSH2 0x46A8 JUMP JUMPDEST PUSH2 0x45F3 PUSH2 0x55CB JUMP JUMPDEST PUSH20 0xFFFFFFFFFFFFFFFFFFFFFFFFFFFFFFFFFFFFFFFF AND PUSH4 0x1273B0C6 DUP9 DUP11 PUSH1 0x40 MLOAD DUP4 PUSH4 0xFFFFFFFF AND PUSH1 0xE0 SHL DUP2 MSTORE PUSH1 0x4 ADD PUSH2 0x462D SWAP3 SWAP2 SWAP1 PUSH2 0x6CE8 JUMP JUMPDEST PUSH1 0x20 PUSH1 0x40 MLOAD DUP1 DUP4 SUB DUP2 DUP7 DUP1 EXTCODESIZE ISZERO DUP1 ISZERO PUSH2 0x4645 JUMPI PUSH1 0x0 DUP1 REVERT JUMPDEST POP GAS STATICCALL ISZERO DUP1 ISZERO PUSH2 0x4659 JUMPI RETURNDATASIZE PUSH1 0x0 DUP1 RETURNDATACOPY RETURNDATASIZE PUSH1 0x0 REVERT JUMPDEST POP POP POP POP PUSH1 0x40 MLOAD RETURNDATASIZE PUSH1 0x1F NOT PUSH1 0x1F DUP3 ADD AND DUP3 ADD DUP1 PUSH1 0x40 MSTORE POP DUP2 ADD SWAP1 PUSH2 0x467D SWAP2 SWAP1 PUSH2 0x61D0 JUMP JUMPDEST SWAP4 POP PUSH20 0xFFFFFFFFFFFFFFFFFFFFFFFFFFFFFFFFFFFFFFFF DUP5 AND PUSH2 0x46A1 JUMPI POP POP PUSH2 0x2EE5 JUMP JUMPDEST POP PUSH1 0x0 SWAP4 POP DUP6 JUMPDEST DUP4 PUSH20 0xFFFFFFFFFFFFFFFFFFFFFFFFFFFFFFFFFFFFFFFF AND PUSH4 0xDD58B41C PUSH1 0x40 MLOAD DUP2 PUSH4 0xFFFFFFFF AND PUSH1 0xE0 SHL DUP2 MSTORE PUSH1 0x4 ADD PUSH1 0x20 PUSH1 0x40 MLOAD DUP1 DUP4 SUB DUP2 DUP7 DUP1 EXTCODESIZE ISZERO DUP1 ISZERO PUSH2 0x46EE JUMPI PUSH1 0x0 DUP1 REVERT JUMPDEST POP GAS STATICCALL ISZERO DUP1 ISZERO PUSH2 0x4702 JUMPI RETURNDATASIZE PUSH1 0x0 DUP1 RETURNDATACOPY RETURNDATASIZE PUSH1 0x0 REVERT JUMPDEST POP POP POP POP PUSH1 0x40 MLOAD RETURNDATASIZE PUSH1 0x1F NOT PUSH1 0x1F DUP3 ADD AND DUP3 ADD DUP1 PUSH1 0x40 MSTORE POP DUP2 ADD SWAP1 PUSH2 0x4726 SWAP2 SWAP1 PUSH2 0x680D JUMP JUMPDEST PUSH2 0x4731 JUMPI POP POP PUSH2 0x2EE5 JUMP JUMPDEST PUSH1 0x40 DUP1 MLOAD PUSH1 0x60 DUP2 ADD SWAP1 SWAP2 MSTORE PUSH2 0x4799 SWAP1 DUP1 PUSH2 0x4750 DUP11 DUP9 DUP7 PUSH1 0x80 DUP6 ADD PUSH2 0x6D0F JUMP JUMPDEST PUSH1 0x40 MLOAD PUSH1 0x20 DUP2 DUP4 SUB SUB DUP2 MSTORE SWAP1 PUSH1 0x40 MSTORE DUP2 MSTORE PUSH1 0x20 ADD DUP11 DUP8 DUP6 PUSH1 0x40 MLOAD PUSH1 0x20 ADD PUSH2 0x4779 SWAP4 SWAP3 SWAP2 SWAP1 PUSH2 0x6D0F JUMP JUMPDEST PUSH1 0x40 MLOAD PUSH1 0x20 DUP2 DUP4 SUB SUB DUP2 MSTORE SWAP1 PUSH1 0x40 MSTORE DUP2 MSTORE PUSH1 0x20 ADD PUSH2 0x55E3 DUP2 MSTORE POP DUP8 PUSH2 0x51EC JUMP JUMPDEST SWAP3 POP POP POP SWAP4 POP SWAP4 POP SWAP4 SWAP1 POP JUMP JUMPDEST DUP1 MLOAD PUSH1 0x60 SWAP1 DUP1 PUSH8 0xFFFFFFFFFFFFFFFF DUP2 GT DUP1 ISZERO PUSH2 0x47C2 JUMPI PUSH1 0x0 DUP1 REVERT JUMPDEST POP PUSH1 0x40 MLOAD SWAP1 DUP1 DUP3 MSTORE DUP1 PUSH1 0x20 MUL PUSH1 0x20 ADD DUP3 ADD PUSH1 0x40 MSTORE DUP1 ISZERO PUSH2 0x47EC JUMPI DUP2 PUSH1 0x20 ADD PUSH1 0x20 DUP3 MUL DUP1 CALLDATASIZE DUP4 CALLDATACOPY ADD SWAP1 POP JUMPDEST POP SWAP2 POP PUSH1 0x0 JUMPDEST DUP2 DUP2 LT ISZERO PUSH2 0x3A08 JUMPI PUSH2 0x4802 PUSH2 0x5597 JUMP JUMPDEST PUSH20 0xFFFFFFFFFFFFFFFFFFFFFFFFFFFFFFFFFFFFFFFF AND PUSH4 0x1F00CA74 PUSH3 0x249F0 DUP7 DUP5 DUP2 MLOAD DUP2 LT PUSH2 0x482D JUMPI INVALID JUMPDEST PUSH1 0x20 MUL PUSH1 0x20 ADD ADD MLOAD DUP9 PUSH1 0x40 MLOAD DUP5 PUSH4 0xFFFFFFFF AND PUSH1 0xE0 SHL DUP2 MSTORE PUSH1 0x4 ADD PUSH2 0x4853 SWAP3 SWAP2 SWAP1 PUSH2 0x74A6 JUMP JUMPDEST PUSH1 0x0 PUSH1 0x40 MLOAD DUP1 DUP4 SUB DUP2 DUP8 DUP1 EXTCODESIZE ISZERO DUP1 ISZERO PUSH2 0x486B JUMPI PUSH1 0x0 DUP1 REVERT JUMPDEST POP DUP7 STATICCALL SWAP4 POP POP POP POP DUP1 ISZERO PUSH2 0x48A1 JUMPI POP PUSH1 0x40 MLOAD RETURNDATASIZE PUSH1 0x0 DUP3 RETURNDATACOPY PUSH1 0x1F RETURNDATASIZE SWAP1 DUP2 ADD PUSH1 0x1F NOT AND DUP3 ADD PUSH1 0x40 MSTORE PUSH2 0x489E SWAP2 SWAP1 DUP2 ADD SWAP1 PUSH2 0x677D JUMP JUMPDEST PUSH1 0x1 JUMPDEST PUSH2 0x48CF JUMPI RETURNDATASIZE DUP1 DUP1 ISZERO PUSH2 0x39C3 JUMPI PUSH1 0x40 MLOAD SWAP2 POP PUSH1 0x1F NOT PUSH1 0x3F RETURNDATASIZE ADD AND DUP3 ADD PUSH1 0x40 MSTORE RETURNDATASIZE DUP3 MSTORE RETURNDATASIZE PUSH1 0x0 PUSH1 0x20 DUP5 ADD RETURNDATACOPY PUSH2 0x39C8 JUMP JUMPDEST DUP1 PUSH1 0x0 DUP2 MLOAD DUP2 LT PUSH2 0x48DC JUMPI INVALID JUMPDEST PUSH1 0x20 MUL PUSH1 0x20 ADD ADD MLOAD DUP5 DUP4 DUP2 MLOAD DUP2 LT PUSH2 0x48F0 JUMPI INVALID JUMPDEST PUSH1 0x20 MUL PUSH1 0x20 ADD ADD DUP2 DUP2 MSTORE POP POP POP PUSH1 0x1 ADD PUSH2 0x47F2 JUMP JUMPDEST DUP1 MLOAD PUSH1 0x60 SWAP1 DUP1 PUSH8 0xFFFFFFFFFFFFFFFF DUP2 GT DUP1 ISZERO PUSH2 0x4921 JUMPI PUSH1 0x0 DUP1 REVERT JUMPDEST POP PUSH1 0x40 MLOAD SWAP1 DUP1 DUP3 MSTORE DUP1 PUSH1 0x20 MUL PUSH1 0x20 ADD DUP3 ADD PUSH1 0x40 MSTORE DUP1 ISZERO PUSH2 0x494B JUMPI DUP2 PUSH1 0x20 ADD PUSH1 0x20 DUP3 MUL DUP1 CALLDATASIZE DUP4 CALLDATACOPY ADD SWAP1 POP JUMPDEST POP SWAP2 POP PUSH1 0x0 JUMPDEST DUP2 DUP2 LT ISZERO PUSH2 0x152B JUMPI DUP7 PUSH20 0xFFFFFFFFFFFFFFFFFFFFFFFFFFFFFFFFFFFFFFFF AND PUSH4 0x838E6A22 PUSH3 0x493E0 DUP9 DUP9 DUP9 DUP7 DUP2 MLOAD DUP2 LT PUSH2 0x4987 JUMPI INVALID JUMPDEST PUSH1 0x20 MUL PUSH1 0x20 ADD ADD MLOAD PUSH1 0x40 MLOAD DUP6 PUSH4 0xFFFFFFFF AND PUSH1 0xE0 SHL DUP2 MSTORE PUSH1 0x4 ADD PUSH2 0x49AD SWAP4 SWAP3 SWAP2 SWAP1 PUSH2 0x6DF0 JUMP JUMPDEST PUSH1 0x20 PUSH1 0x40 MLOAD DUP1 DUP4 SUB DUP2 DUP8 DUP1 EXTCODESIZE ISZERO DUP1 ISZERO PUSH2 0x49C5 JUMPI PUSH1 0x0 DUP1 REVERT JUMPDEST POP DUP7 STATICCALL SWAP4 POP POP POP POP DUP1 ISZERO PUSH2 0x49F6 JUMPI POP PUSH1 0x40 DUP1 MLOAD PUSH1 0x1F RETURNDATASIZE SWAP1 DUP2 ADD PUSH1 0x1F NOT AND DUP3 ADD SWAP1 SWAP3 MSTORE PUSH2 0x49F3 SWAP2 DUP2 ADD SWAP1 PUSH2 0x6881 JUMP JUMPDEST PUSH1 0x1 JUMPDEST PUSH2 0x4A24 JUMPI RETURNDATASIZE DUP1 DUP1 ISZERO PUSH2 0x1DF5 JUMPI PUSH1 0x40 MLOAD SWAP2 POP PUSH1 0x1F NOT PUSH1 0x3F RETURNDATASIZE ADD AND DUP3 ADD PUSH1 0x40 MSTORE RETURNDATASIZE DUP3 MSTORE RETURNDATASIZE PUSH1 0x0 PUSH1 0x20 DUP5 ADD RETURNDATACOPY PUSH2 0x1DFA JUMP JUMPDEST DUP1 DUP5 DUP4 DUP2 MLOAD DUP2 LT PUSH2 0x4A31 JUMPI INVALID JUMPDEST PUSH1 0x20 MUL PUSH1 0x20 ADD ADD DUP2 DUP2 MSTORE POP POP POP PUSH1 0x1 ADD PUSH2 0x4951 JUMP JUMPDEST PUSH1 0x60 PUSH2 0x4A53 DUP5 DUP5 DUP5 PUSH2 0x11BE JUMP JUMPDEST SWAP1 POP PUSH1 0x0 JUMPDEST DUP5 MLOAD DUP2 LT ISZERO PUSH2 0x1337 JUMPI DUP2 DUP2 DUP2 MLOAD DUP2 LT PUSH2 0x4A6D JUMPI INVALID JUMPDEST PUSH1 0x20 MUL PUSH1 0x20 ADD ADD MLOAD PUSH1 0x0 EQ PUSH2 0x4AE1 JUMPI PUSH2 0x4AC8 DUP3 DUP3 DUP2 MLOAD DUP2 LT PUSH2 0x4A8B JUMPI INVALID JUMPDEST PUSH1 0x20 MUL PUSH1 0x20 ADD ADD MLOAD DUP7 DUP4 DUP2 MLOAD DUP2 LT PUSH2 0x4A9F JUMPI INVALID JUMPDEST PUSH1 0x20 MUL PUSH1 0x20 ADD ADD MLOAD PUSH1 0xA0 ADD MLOAD DUP8 DUP5 DUP2 MLOAD DUP2 LT PUSH2 0x4AB7 JUMPI INVALID JUMPDEST PUSH1 0x20 MUL PUSH1 0x20 ADD ADD MLOAD PUSH1 0x80 ADD MLOAD PUSH2 0x5A1C JUMP JUMPDEST DUP3 DUP3 DUP2 MLOAD DUP2 LT PUSH2 0x4AD4 JUMPI INVALID JUMPDEST PUSH1 0x20 MUL PUSH1 0x20 ADD ADD DUP2 DUP2 MSTORE POP POP JUMPDEST PUSH1 0x1 ADD PUSH2 0x4A58 JUMP JUMPDEST PUSH2 0x4AF1 PUSH2 0x5E39 JUMP JUMPDEST PUSH2 0x4AF9 PUSH2 0x5E39 JUMP JUMPDEST PUSH32 0xFFFFFFFFFFFFFFFFFFFFFFFFFFFFFFFFFFFFFFFFFFFFFFFFFFFFFFFFFFFFFFFF DUP1 PUSH1 0x0 JUMPDEST DUP7 MLOAD DUP2 EQ PUSH2 0x4C1E JUMPI PUSH2 0x4B4E PUSH1 0x20 DUP9 DUP4 DUP2 MLOAD DUP2 LT PUSH2 0x4B37 JUMPI INVALID JUMPDEST PUSH1 0x20 MUL PUSH1 0x20 ADD ADD MLOAD MLOAD SUB DUP8 DUP10 DUP5 DUP2 MLOAD DUP2 LT PUSH2 0x2D04 JUMPI INVALID JUMPDEST PUSH1 0x0 PUSH1 0x60 ADDRESS PUSH20 0xFFFFFFFFFFFFFFFFFFFFFFFFFFFFFFFFFFFFFFFF AND DUP10 DUP5 DUP2 MLOAD DUP2 LT PUSH2 0x4B75 JUMPI INVALID JUMPDEST PUSH1 0x20 MUL PUSH1 0x20 ADD ADD MLOAD PUSH1 0x40 MLOAD PUSH2 0x4B8A SWAP2 SWAP1 PUSH2 0x6CAB JUMP JUMPDEST PUSH1 0x0 PUSH1 0x40 MLOAD DUP1 DUP4 SUB DUP2 DUP6 GAS STATICCALL SWAP2 POP POP RETURNDATASIZE DUP1 PUSH1 0x0 DUP2 EQ PUSH2 0x4BC5 JUMPI PUSH1 0x40 MLOAD SWAP2 POP PUSH1 0x1F NOT PUSH1 0x3F RETURNDATASIZE ADD AND DUP3 ADD PUSH1 0x40 MSTORE RETURNDATASIZE DUP3 MSTORE RETURNDATASIZE PUSH1 0x0 PUSH1 0x20 DUP5 ADD RETURNDATACOPY PUSH2 0x4BCA JUMP JUMPDEST PUSH1 0x60 SWAP2 POP JUMPDEST POP SWAP2 POP SWAP2 POP DUP2 ISZERO PUSH2 0x4C14 JUMPI PUSH1 0x0 PUSH2 0x4BEE PUSH1 0x20 DUP4 MLOAD SUB DUP4 PUSH2 0x5412 SWAP1 SWAP2 SWAP1 PUSH4 0xFFFFFFFF AND JUMP JUMPDEST SWAP1 POP PUSH1 0x0 DUP2 GT DUP1 ISZERO PUSH2 0x4BFF JUMPI POP DUP5 DUP2 LT JUMPDEST ISZERO PUSH2 0x4C12 JUMPI DUP4 DUP8 MSTORE PUSH1 0x20 DUP8 ADD DUP3 SWAP1 MSTORE SWAP4 POP DUP4 JUMPDEST POP JUMPDEST POP POP PUSH1 0x1 ADD PUSH2 0x4B1E JUMP JUMPDEST POP PUSH32 0xFFFFFFFFFFFFFFFFFFFFFFFFFFFFFFFFFFFFFFFFFFFFFFFFFFFFFFFFFFFFFFFF DUP2 EQ ISZERO PUSH2 0x4C4D JUMPI POP PUSH2 0x2EE5 JUMP JUMPDEST PUSH1 0x0 JUMPDEST DUP8 MLOAD DUP2 EQ PUSH2 0x2EE2 JUMPI PUSH2 0x4C80 PUSH1 0x20 DUP10 DUP4 DUP2 MLOAD DUP2 LT PUSH2 0x4C69 JUMPI INVALID JUMPDEST PUSH1 0x20 MUL PUSH1 0x20 ADD ADD MLOAD MLOAD SUB DUP4 DUP11 DUP5 DUP2 MLOAD DUP2 LT PUSH2 0x2D04 JUMPI INVALID JUMPDEST PUSH1 0x0 PUSH1 0x60 ADDRESS PUSH20 0xFFFFFFFFFFFFFFFFFFFFFFFFFFFFFFFFFFFFFFFF AND DUP11 DUP5 DUP2 MLOAD DUP2 LT PUSH2 0x4CA7 JUMPI INVALID JUMPDEST PUSH1 0x20 MUL PUSH1 0x20 ADD ADD MLOAD PUSH1 0x40 MLOAD PUSH2 0x4CBC SWAP2 SWAP1 PUSH2 0x6CAB JUMP JUMPDEST PUSH1 0x0 PUSH1 0x40 MLOAD DUP1 DUP4 SUB DUP2 DUP6 GAS STATICCALL SWAP2 POP POP RETURNDATASIZE DUP1 PUSH1 0x0 DUP2 EQ PUSH2 0x4CF7 JUMPI PUSH1 0x40 MLOAD SWAP2 POP PUSH1 0x1F NOT PUSH1 0x3F RETURNDATASIZE ADD AND DUP3 ADD PUSH1 0x40 MSTORE RETURNDATASIZE DUP3 MSTORE RETURNDATASIZE PUSH1 0x0 PUSH1 0x20 DUP5 ADD RETURNDATACOPY PUSH2 0x4CFC JUMP JUMPDEST PUSH1 0x60 SWAP2 POP JUMPDEST POP SWAP2 POP SWAP2 POP DUP2 ISZERO PUSH2 0x4D46 JUMPI PUSH1 0x0 PUSH2 0x4D20 PUSH1 0x20 DUP4 MLOAD SUB DUP4 PUSH2 0x5412 SWAP1 SWAP2 SWAP1 PUSH4 0xFFFFFFFF AND JUMP JUMPDEST SWAP1 POP PUSH1 0x0 DUP2 GT DUP1 ISZERO PUSH2 0x4D31 JUMPI POP DUP6 DUP2 LT JUMPDEST ISZERO PUSH2 0x4D44 JUMPI DUP4 DUP9 MSTORE PUSH1 0x20 DUP9 ADD DUP3 SWAP1 MSTORE SWAP5 POP DUP5 JUMPDEST POP JUMPDEST POP POP PUSH1 0x1 ADD PUSH2 0x4C50 JUMP JUMPDEST PUSH1 0x0 DUP1 PUSH1 0x0 PUSH2 0x4D5E DUP6 PUSH2 0x5A46 JUMP JUMPDEST PUSH1 0xFF AND SWAP1 POP PUSH1 0x0 PUSH2 0x4D6E DUP6 PUSH2 0x5A46 JUMP JUMPDEST SWAP2 SWAP4 POP POP PUSH1 0xFF AND SWAP1 POP JUMPDEST SWAP3 POP SWAP3 SWAP1 POP JUMP JUMPDEST PUSH1 0x2 SLOAD PUSH20 0xFFFFFFFFFFFFFFFFFFFFFFFFFFFFFFFFFFFFFFFF AND DUP2 JUMP JUMPDEST PUSH1 0x0 DUP1 PUSH2 0x4DA6 PUSH2 0x5B17 JUMP JUMPDEST SWAP1 POP DUP1 PUSH20 0xFFFFFFFFFFFFFFFFFFFFFFFFFFFFFFFFFFFFFFFF AND PUSH4 0x21F8A721 DUP3 PUSH20 0xFFFFFFFFFFFFFFFFFFFFFFFFFFFFFFFFFFFFFFFF AND PUSH4 0x9232494E PUSH1 0x40 MLOAD DUP2 PUSH4 0xFFFFFFFF AND PUSH1 0xE0 SHL DUP2 MSTORE PUSH1 0x4 ADD PUSH1 0x20 PUSH1 0x40 MLOAD DUP1 DUP4 SUB DUP2 DUP7 DUP1 EXTCODESIZE ISZERO DUP1 ISZERO PUSH2 0x4E0A JUMPI PUSH1 0x0 DUP1 REVERT JUMPDEST POP GAS STATICCALL ISZERO DUP1 ISZERO PUSH2 0x4E1E JUMPI RETURNDATASIZE PUSH1 0x0 DUP1 RETURNDATACOPY RETURNDATASIZE PUSH1 0x0 REVERT JUMPDEST POP POP POP POP PUSH1 0x40 MLOAD RETURNDATASIZE PUSH1 0x1F NOT PUSH1 0x1F DUP3 ADD AND DUP3 ADD DUP1 PUSH1 0x40 MSTORE POP DUP2 ADD SWAP1 PUSH2 0x4E42 SWAP2 SWAP1 PUSH2 0x6881 JUMP JUMPDEST PUSH1 0x40 MLOAD DUP3 PUSH4 0xFFFFFFFF AND PUSH1 0xE0 SHL DUP2 MSTORE PUSH1 0x4 ADD PUSH2 0x4E5E SWAP2 SWAP1 PUSH2 0x713B JUMP JUMPDEST PUSH1 0x20 PUSH1 0x40 MLOAD DUP1 DUP4 SUB DUP2 DUP7 DUP1 EXTCODESIZE ISZERO DUP1 ISZERO PUSH2 0x4E76 JUMPI PUSH1 0x0 DUP1 REVERT JUMPDEST POP GAS STATICCALL ISZERO DUP1 ISZERO PUSH2 0x4E8A JUMPI RETURNDATASIZE PUSH1 0x0 DUP1 RETURNDATACOPY RETURNDATASIZE PUSH1 0x0 REVERT JUMPDEST POP POP POP POP PUSH1 0x40 MLOAD RETURNDATASIZE PUSH1 0x1F NOT PUSH1 0x1F DUP3 ADD AND DUP3 ADD DUP1 PUSH1 0x40 MSTORE POP DUP2 ADD SWAP1 PUSH2 0x4EAE SWAP2 SWAP1 PUSH2 0x61D0 JUMP JUMPDEST SWAP2 POP POP SWAP1 JUMP JUMPDEST PUSH1 0x3 SLOAD PUSH20 0xFFFFFFFFFFFFFFFFFFFFFFFFFFFFFFFFFFFFFFFF AND SWAP1 JUMP JUMPDEST PUSH20 0xC02AAA39B223FE8D0A0E5C4F27EAD9083C756CC2 SWAP1 JUMP JUMPDEST PUSH1 0x0 PUSH2 0x4EF3 DUP3 PUSH2 0x5B2F JUMP JUMPDEST SWAP1 POP JUMPDEST SWAP2 SWAP1 POP JUMP JUMPDEST DUP1 PUSH20 0xFFFFFFFFFFFFFFFFFFFFFFFFFFFFFFFFFFFFFFFF AND DUP3 PUSH20 0xFFFFFFFFFFFFFFFFFFFFFFFFFFFFFFFFFFFFFFFF AND EQ ISZERO PUSH2 0x4F6A JUMPI PUSH1 0x40 MLOAD PUSH32 0x8C379A000000000000000000000000000000000000000000000000000000000 DUP2 MSTORE PUSH1 0x4 ADD PUSH2 0x4F61 SWAP1 PUSH2 0x7280 JUMP JUMPDEST PUSH1 0x40 MLOAD DUP1 SWAP2 SUB SWAP1 REVERT JUMPDEST POP POP JUMP JUMPDEST PUSH1 0x2 SLOAD PUSH20 0xFFFFFFFFFFFFFFFFFFFFFFFFFFFFFFFFFFFFFFFF AND SWAP1 JUMP JUMPDEST PUSH1 0x0 DUP3 DUP3 MUL DUP4 ISZERO DUP1 ISZERO SWAP1 PUSH2 0x4FA7 JUMPI POP DUP3 DUP5 DUP3 DUP2 PUSH2 0x4FA3 JUMPI INVALID JUMPDEST DIV EQ ISZERO JUMPDEST ISZERO PUSH2 0x4FB6 JUMPI PUSH1 0x0 SWAP2 POP POP PUSH2 0x4FE3 JUMP JUMPDEST PUSH8 0x6F05B59D3B20000 DUP2 ADD DUP2 DUP2 LT ISZERO PUSH2 0x4FD4 JUMPI PUSH1 0x0 SWAP3 POP POP POP PUSH2 0x4FE3 JUMP JUMPDEST PUSH8 0xDE0B6B3A7640000 SWAP1 DIV SWAP2 POP POP JUMPDEST SWAP3 SWAP2 POP POP JUMP JUMPDEST PUSH1 0x0 PUSH2 0x4FF3 PUSH2 0x5BA3 JUMP JUMPDEST PUSH20 0xFFFFFFFFFFFFFFFFFFFFFFFFFFFFFFFFFFFFFFFF AND PUSH4 0x6F2BF62 DUP4 PUSH1 0x40 MLOAD DUP3 PUSH4 0xFFFFFFFF AND PUSH1 0xE0 SHL DUP2 MSTORE PUSH1 0x4 ADD PUSH2 0x502B SWAP2 SWAP1 PUSH2 0x6CC7 JUMP JUMPDEST PUSH1 0x20 PUSH1 0x40 MLOAD DUP1 DUP4 SUB DUP2 DUP7 DUP1 EXTCODESIZE ISZERO DUP1 ISZERO PUSH2 0x5043 JUMPI PUSH1 0x0 DUP1 REVERT JUMPDEST POP GAS STATICCALL ISZERO DUP1 ISZERO PUSH2 0x5057 JUMPI RETURNDATASIZE PUSH1 0x0 DUP1 RETURNDATACOPY RETURNDATASIZE PUSH1 0x0 REVERT JUMPDEST POP POP POP POP PUSH1 0x40 MLOAD RETURNDATASIZE PUSH1 0x1F NOT PUSH1 0x1F DUP3 ADD AND DUP3 ADD DUP1 PUSH1 0x40 MSTORE POP DUP2 ADD SWAP1 PUSH2 0x4EF3 SWAP2 SWAP1 PUSH2 0x61D0 JUMP JUMPDEST PUSH1 0x0 DUP1 PUSH20 0xFFFFFFFFFFFFFFFFFFFFFFFFFFFFFFFFFFFFFFFF DUP6 AND PUSH2 0x509E JUMPI PUSH2 0x519E JUMP JUMPDEST PUSH1 0x60 DUP6 PUSH20 0xFFFFFFFFFFFFFFFFFFFFFFFFFFFFFFFFFFFFFFFF AND PUSH3 0x249F0 DUP7 DUP7 PUSH1 0x40 MLOAD PUSH1 0x24 ADD PUSH2 0x50CD SWAP2 SWAP1 PUSH2 0x713B JUMP JUMPDEST PUSH1 0x40 DUP1 MLOAD PUSH1 0x1F NOT DUP2 DUP5 SUB ADD DUP2 MSTORE SWAP2 DUP2 MSTORE PUSH1 0x20 DUP3 ADD DUP1 MLOAD PUSH28 0xFFFFFFFFFFFFFFFFFFFFFFFFFFFFFFFFFFFFFFFFFFFFFFFFFFFFFFFF AND PUSH32 0xFFFFFFFF00000000000000000000000000000000000000000000000000000000 SWAP1 SWAP5 AND SWAP4 SWAP1 SWAP4 OR SWAP1 SWAP3 MSTORE SWAP1 MLOAD PUSH2 0x5138 SWAP2 SWAP1 PUSH2 0x6CAB JUMP JUMPDEST PUSH1 0x0 PUSH1 0x40 MLOAD DUP1 DUP4 SUB DUP2 DUP7 DUP7 STATICCALL SWAP3 POP POP POP RETURNDATASIZE DUP1 PUSH1 0x0 DUP2 EQ PUSH2 0x5174 JUMPI PUSH1 0x40 MLOAD SWAP2 POP PUSH1 0x1F NOT PUSH1 0x3F RETURNDATASIZE ADD AND DUP3 ADD PUSH1 0x40 MSTORE RETURNDATASIZE DUP3 MSTORE RETURNDATASIZE PUSH1 0x0 PUSH1 0x20 DUP5 ADD RETURNDATACOPY PUSH2 0x5179 JUMP JUMPDEST PUSH1 0x60 SWAP2 POP JUMPDEST POP SWAP1 SWAP3 POP SWAP1 POP DUP2 ISZERO PUSH2 0x519C JUMPI DUP1 DUP1 PUSH1 0x20 ADD SWAP1 MLOAD DUP2 ADD SWAP1 PUSH2 0x5199 SWAP2 SWAP1 PUSH2 0x6881 JUMP JUMPDEST SWAP3 POP JUMPDEST POP JUMPDEST SWAP4 POP SWAP4 SWAP2 POP POP JUMP JUMPDEST PUSH1 0x0 DUP1 DUP5 DUP1 PUSH1 0x20 ADD SWAP1 MLOAD DUP2 ADD SWAP1 PUSH2 0x51BD SWAP2 SWAP1 PUSH2 0x61D0 JUMP JUMPDEST SWAP1 POP PUSH1 0x0 DUP5 DUP1 PUSH1 0x20 ADD SWAP1 MLOAD DUP2 ADD SWAP1 PUSH2 0x51D5 SWAP2 SWAP1 PUSH2 0x61D0 JUMP JUMPDEST SWAP1 POP PUSH2 0x51E2 DUP3 DUP3 DUP7 PUSH2 0x250A JUMP JUMPDEST SWAP7 SWAP6 POP POP POP POP POP POP JUMP JUMPDEST PUSH1 0x60 DUP2 MLOAD PUSH8 0xFFFFFFFFFFFFFFFF DUP2 GT DUP1 ISZERO PUSH2 0x5206 JUMPI PUSH1 0x0 DUP1 REVERT JUMPDEST POP PUSH1 0x40 MLOAD SWAP1 DUP1 DUP3 MSTORE DUP1 PUSH1 0x20 MUL PUSH1 0x20 ADD DUP3 ADD PUSH1 0x40 MSTORE DUP1 ISZERO PUSH2 0x5230 JUMPI DUP2 PUSH1 0x20 ADD PUSH1 0x20 DUP3 MUL DUP1 CALLDATASIZE DUP4 CALLDATACOPY ADD SWAP1 POP JUMPDEST POP SWAP1 POP DUP2 MLOAD PUSH1 0x0 EQ ISZERO PUSH2 0x5242 JUMPI PUSH2 0x4FE3 JUMP JUMPDEST PUSH1 0x0 PUSH2 0x5273 DUP5 PUSH1 0x0 ADD MLOAD DUP6 PUSH1 0x20 ADD MLOAD DUP6 PUSH1 0x0 DUP2 MLOAD DUP2 LT PUSH2 0x525E JUMPI INVALID JUMPDEST PUSH1 0x20 MUL PUSH1 0x20 ADD ADD MLOAD DUP8 PUSH1 0x40 ADD MLOAD PUSH4 0xFFFFFFFF AND JUMP JUMPDEST SWAP1 POP DUP1 PUSH2 0x5280 JUMPI POP PUSH2 0x4FE3 JUMP JUMPDEST PUSH1 0x0 PUSH2 0x529D DUP6 PUSH1 0x20 ADD MLOAD DUP7 PUSH1 0x0 ADD MLOAD DUP5 DUP9 PUSH1 0x40 ADD MLOAD PUSH4 0xFFFFFFFF AND JUMP JUMPDEST SWAP1 POP DUP1 PUSH2 0x52AB JUMPI POP POP PUSH2 0x4FE3 JUMP JUMPDEST PUSH1 0x0 JUMPDEST DUP5 MLOAD DUP2 LT ISZERO PUSH2 0x53E1 JUMPI PUSH1 0x0 JUMPDEST PUSH1 0x5 DUP2 LT ISZERO PUSH2 0x53A3 JUMPI PUSH2 0x52E1 DUP7 DUP4 DUP2 MLOAD DUP2 LT PUSH2 0x52D2 JUMPI INVALID JUMPDEST PUSH1 0x20 MUL PUSH1 0x20 ADD ADD MLOAD DUP5 DUP7 PUSH2 0x5BBF JUMP JUMPDEST SWAP4 POP DUP4 PUSH2 0x52ED JUMPI PUSH2 0x53A3 JUMP JUMPDEST PUSH2 0x52FC PUSH2 0x2715 PUSH2 0x2710 DUP7 PUSH2 0x5BBF JUMP JUMPDEST SWAP4 POP DUP4 PUSH2 0x5308 JUMPI PUSH2 0x53A3 JUMP JUMPDEST PUSH1 0x0 PUSH2 0x5325 DUP9 PUSH1 0x20 ADD MLOAD DUP10 PUSH1 0x0 ADD MLOAD DUP8 DUP12 PUSH1 0x40 ADD MLOAD PUSH4 0xFFFFFFFF AND JUMP JUMPDEST SWAP1 POP DUP1 PUSH2 0x5332 JUMPI POP PUSH2 0x53A3 JUMP JUMPDEST DUP1 SWAP4 POP DUP7 DUP4 DUP2 MLOAD DUP2 LT PUSH2 0x5341 JUMPI INVALID JUMPDEST PUSH1 0x20 MUL PUSH1 0x20 ADD ADD MLOAD DUP5 LT PUSH2 0x539A JUMPI PUSH1 0x0 DUP8 DUP5 DUP2 MLOAD DUP2 LT PUSH2 0x535D JUMPI INVALID JUMPDEST PUSH1 0x20 MUL PUSH1 0x20 ADD ADD MLOAD PUSH2 0x2710 DUP10 DUP7 DUP2 MLOAD DUP2 LT PUSH2 0x5374 JUMPI INVALID JUMPDEST PUSH1 0x20 MUL PUSH1 0x20 ADD ADD MLOAD DUP8 SUB MUL DUP2 PUSH2 0x5386 JUMPI INVALID JUMPDEST DIV SWAP1 POP PUSH1 0x5 DUP2 GT PUSH2 0x5398 JUMPI POP POP PUSH2 0x53A3 JUMP JUMPDEST POP JUMPDEST POP PUSH1 0x1 ADD PUSH2 0x52BA JUMP JUMPDEST POP PUSH2 0x53C2 DUP6 DUP3 DUP2 MLOAD DUP2 LT PUSH2 0x53B3 JUMPI INVALID JUMPDEST PUSH1 0x20 MUL PUSH1 0x20 ADD ADD MLOAD DUP4 DUP6 PUSH2 0x5BBF JUMP JUMPDEST DUP5 DUP3 DUP2 MLOAD DUP2 LT PUSH2 0x53CE JUMPI INVALID JUMPDEST PUSH1 0x20 SWAP1 DUP2 MUL SWAP2 SWAP1 SWAP2 ADD ADD MSTORE PUSH1 0x1 ADD PUSH2 0x52AE JUMP JUMPDEST POP POP POP SWAP3 SWAP2 POP POP JUMP JUMPDEST PUSH20 0x71CD6666064C3A1354A3B4DCA5FA1E2D3EE7D303 SWAP1 JUMP JUMPDEST PUSH2 0x540D DUP4 DUP4 DUP4 PUSH2 0x5C17 JUMP JUMPDEST POP POP POP JUMP JUMPDEST PUSH1 0x0 PUSH2 0x1380 DUP4 DUP4 PUSH2 0x5C43 JUMP JUMPDEST PUSH1 0x0 DUP1 PUSH2 0x5429 PUSH2 0x5E53 JUMP JUMPDEST DUP6 DUP1 PUSH1 0x20 ADD SWAP1 MLOAD DUP2 ADD SWAP1 PUSH2 0x543D SWAP2 SWAP1 PUSH2 0x69AD JUMP JUMPDEST SWAP2 POP SWAP2 POP PUSH1 0x0 DUP6 DUP1 PUSH1 0x20 ADD SWAP1 MLOAD DUP2 ADD SWAP1 PUSH2 0x5457 SWAP2 SWAP1 PUSH2 0x6991 JUMP JUMPDEST SWAP1 POP PUSH1 0x0 PUSH1 0x60 ADDRESS PUSH32 0x40BC03AE00000000000000000000000000000000000000000000000000000000 DUP6 DUP8 DUP7 PUSH2 0x548B DUP13 PUSH2 0x5C6D JUMP JUMPDEST PUSH1 0x40 MLOAD PUSH1 0x24 ADD PUSH2 0x549E SWAP5 SWAP4 SWAP3 SWAP2 SWAP1 PUSH2 0x72DD JUMP JUMPDEST PUSH1 0x40 DUP1 MLOAD PUSH1 0x1F NOT DUP2 DUP5 SUB ADD DUP2 MSTORE SWAP2 DUP2 MSTORE PUSH1 0x20 DUP3 ADD DUP1 MLOAD PUSH28 0xFFFFFFFFFFFFFFFFFFFFFFFFFFFFFFFFFFFFFFFFFFFFFFFFFFFFFFFF AND PUSH32 0xFFFFFFFF00000000000000000000000000000000000000000000000000000000 SWAP1 SWAP5 AND SWAP4 SWAP1 SWAP4 OR SWAP1 SWAP3 MSTORE SWAP1 MLOAD PUSH2 0x5509 SWAP2 SWAP1 PUSH2 0x6CAB JUMP JUMPDEST PUSH1 0x0 PUSH1 0x40 MLOAD DUP1 DUP4 SUB DUP2 DUP6 GAS STATICCALL SWAP2 POP POP RETURNDATASIZE DUP1 PUSH1 0x0 DUP2 EQ PUSH2 0x5544 JUMPI PUSH1 0x40 MLOAD SWAP2 POP PUSH1 0x1F NOT PUSH1 0x3F RETURNDATASIZE ADD AND DUP3 ADD PUSH1 0x40 MSTORE RETURNDATASIZE DUP3 MSTORE RETURNDATASIZE PUSH1 0x0 PUSH1 0x20 DUP5 ADD RETURNDATACOPY PUSH2 0x5549 JUMP JUMPDEST PUSH1 0x60 SWAP2 POP JUMPDEST POP SWAP2 POP SWAP2 POP DUP2 PUSH2 0x5561 JUMPI PUSH1 0x0 SWAP6 POP POP POP POP POP POP PUSH2 0x1380 JUMP JUMPDEST DUP1 DUP1 PUSH1 0x20 ADD SWAP1 MLOAD DUP2 ADD SWAP1 PUSH2 0x5575 SWAP2 SWAP1 PUSH2 0x677D JUMP JUMPDEST PUSH1 0x0 DUP2 MLOAD DUP2 LT PUSH2 0x5581 JUMPI INVALID JUMPDEST PUSH1 0x20 MUL PUSH1 0x20 ADD ADD MLOAD SWAP6 POP POP POP POP POP POP SWAP4 SWAP3 POP POP POP JUMP JUMPDEST PUSH1 0x1 SLOAD PUSH20 0xFFFFFFFFFFFFFFFFFFFFFFFFFFFFFFFFFFFFFFFF AND SWAP1 JUMP JUMPDEST PUSH20 0xE2F2A5C287993345A840DB3B0845FBC70F5935A5 SWAP1 JUMP JUMPDEST PUSH20 0x3A97247DF274A17C59A3BD12735EA3FCDFB49950 SWAP1 JUMP JUMPDEST PUSH1 0x0 DUP1 PUSH1 0x0 DUP1 DUP7 DUP1 PUSH1 0x20 ADD SWAP1 MLOAD DUP2 ADD SWAP1 PUSH2 0x55FD SWAP2 SWAP1 PUSH2 0x6225 JUMP JUMPDEST SWAP3 POP SWAP3 POP SWAP3 POP DUP1 PUSH20 0xFFFFFFFFFFFFFFFFFFFFFFFFFFFFFFFFFFFFFFFF AND DUP4 PUSH20 0xFFFFFFFFFFFFFFFFFFFFFFFFFFFFFFFFFFFFFFFF AND EQ ISZERO PUSH2 0x5718 JUMPI PUSH1 0x40 MLOAD PUSH32 0xA2801E1600000000000000000000000000000000000000000000000000000000 DUP2 MSTORE PUSH20 0xFFFFFFFFFFFFFFFFFFFFFFFFFFFFFFFFFFFFFFFF DUP4 AND SWAP1 PUSH4 0xA2801E16 SWAP1 PUSH3 0x493E0 SWAP1 PUSH2 0x568E SWAP1 DUP10 SWAP1 PUSH1 0x4 ADD PUSH2 0x713B JUMP JUMPDEST PUSH1 0x20 PUSH1 0x40 MLOAD DUP1 DUP4 SUB DUP2 DUP8 DUP1 EXTCODESIZE ISZERO DUP1 ISZERO PUSH2 0x56A6 JUMPI PUSH1 0x0 DUP1 REVERT JUMPDEST POP DUP7 STATICCALL SWAP4 POP POP POP POP DUP1 ISZERO PUSH2 0x56D7 JUMPI POP PUSH1 0x40 DUP1 MLOAD PUSH1 0x1F RETURNDATASIZE SWAP1 DUP2 ADD PUSH1 0x1F NOT AND DUP3 ADD SWAP1 SWAP3 MSTORE PUSH2 0x56D4 SWAP2 DUP2 ADD SWAP1 PUSH2 0x6881 JUMP JUMPDEST PUSH1 0x1 JUMPDEST PUSH2 0x3CFB JUMPI RETURNDATASIZE DUP1 DUP1 ISZERO PUSH2 0x5705 JUMPI PUSH1 0x40 MLOAD SWAP2 POP PUSH1 0x1F NOT PUSH1 0x3F RETURNDATASIZE ADD AND DUP3 ADD PUSH1 0x40 MSTORE RETURNDATASIZE DUP3 MSTORE RETURNDATASIZE PUSH1 0x0 PUSH1 0x20 DUP5 ADD RETURNDATACOPY PUSH2 0x570A JUMP JUMPDEST PUSH1 0x60 SWAP2 POP JUMPDEST POP PUSH1 0x0 SWAP5 POP POP POP POP POP PUSH2 0x1380 JUMP JUMPDEST PUSH2 0x5720 PUSH2 0x5CAE JUMP JUMPDEST PUSH20 0xFFFFFFFFFFFFFFFFFFFFFFFFFFFFFFFFFFFFFFFF AND PUSH4 0xCA19EBD9 PUSH3 0x493E0 DUP5 DUP9 PUSH1 0x40 MLOAD DUP5 PUSH4 0xFFFFFFFF AND PUSH1 0xE0 SHL DUP2 MSTORE PUSH1 0x4 ADD PUSH2 0x568E SWAP3 SWAP2 SWAP1 PUSH2 0x6FD0 JUMP JUMPDEST PUSH1 0x0 DUP1 PUSH1 0x0 DUP6 DUP1 PUSH1 0x20 ADD SWAP1 MLOAD DUP2 ADD SWAP1 PUSH2 0x5777 SWAP2 SWAP1 PUSH2 0x61EC JUMP JUMPDEST SWAP2 POP SWAP2 POP PUSH1 0x0 DUP6 DUP1 PUSH1 0x20 ADD SWAP1 MLOAD DUP2 ADD SWAP1 PUSH2 0x5791 SWAP2 SWAP1 PUSH2 0x61D0 JUMP JUMPDEST SWAP1 POP ADDRESS PUSH4 0xA4698417 PUSH3 0x61A80 DUP5 DUP7 DUP6 PUSH2 0x57A9 DUP12 PUSH2 0x5C6D JUMP JUMPDEST PUSH1 0x40 MLOAD DUP7 PUSH4 0xFFFFFFFF AND PUSH1 0xE0 SHL DUP2 MSTORE PUSH1 0x4 ADD PUSH2 0x57C8 SWAP5 SWAP4 SWAP3 SWAP2 SWAP1 PUSH2 0x6D3F JUMP JUMPDEST PUSH1 0x0 PUSH1 0x40 MLOAD DUP1 DUP4 SUB DUP2 DUP8 DUP1 EXTCODESIZE ISZERO DUP1 ISZERO PUSH2 0x57E0 JUMPI PUSH1 0x0 DUP1 REVERT JUMPDEST POP DUP7 STATICCALL SWAP4 POP POP POP POP DUP1 ISZERO PUSH2 0x5816 JUMPI POP PUSH1 0x40 MLOAD RETURNDATASIZE PUSH1 0x0 DUP3 RETURNDATACOPY PUSH1 0x1F RETURNDATASIZE SWAP1 DUP2 ADD PUSH1 0x1F NOT AND DUP3 ADD PUSH1 0x40 MSTORE PUSH2 0x5813 SWAP2 SWAP1 DUP2 ADD SWAP1 PUSH2 0x677D JUMP JUMPDEST PUSH1 0x1 JUMPDEST PUSH2 0x5844 JUMPI RETURNDATASIZE DUP1 DUP1 ISZERO PUSH2 0x5705 JUMPI PUSH1 0x40 MLOAD SWAP2 POP PUSH1 0x1F NOT PUSH1 0x3F RETURNDATASIZE ADD AND DUP3 ADD PUSH1 0x40 MSTORE RETURNDATASIZE DUP3 MSTORE RETURNDATASIZE PUSH1 0x0 PUSH1 0x20 DUP5 ADD RETURNDATACOPY PUSH2 0x570A JUMP JUMPDEST DUP1 PUSH1 0x0 DUP2 MLOAD DUP2 LT PUSH2 0x5851 JUMPI INVALID JUMPDEST PUSH1 0x20 MUL PUSH1 0x20 ADD ADD MLOAD SWAP5 POP POP POP POP POP PUSH2 0x1380 JUMP JUMPDEST PUSH1 0x0 DUP1 DUP5 DUP1 PUSH1 0x20 ADD SWAP1 MLOAD DUP2 ADD SWAP1 PUSH2 0x587B SWAP2 SWAP1 PUSH2 0x61D0 JUMP JUMPDEST SWAP1 POP PUSH1 0x0 DUP5 DUP1 PUSH1 0x20 ADD SWAP1 MLOAD DUP2 ADD SWAP1 PUSH2 0x5893 SWAP2 SWAP1 PUSH2 0x61D0 JUMP JUMPDEST SWAP1 POP ADDRESS PUSH4 0xBC61A695 DUP4 DUP4 PUSH2 0x58A6 DUP9 PUSH2 0x5C6D JUMP JUMPDEST PUSH1 0x40 MLOAD DUP5 PUSH4 0xFFFFFFFF AND PUSH1 0xE0 SHL DUP2 MSTORE PUSH1 0x4 ADD PUSH2 0x58C4 SWAP4 SWAP3 SWAP2 SWAP1 PUSH2 0x6DB7 JUMP JUMPDEST PUSH1 0x0 PUSH1 0x40 MLOAD DUP1 DUP4 SUB DUP2 DUP7 DUP1 EXTCODESIZE ISZERO DUP1 ISZERO PUSH2 0x58DC JUMPI PUSH1 0x0 DUP1 REVERT JUMPDEST POP GAS STATICCALL SWAP3 POP POP POP DUP1 ISZERO PUSH2 0x5911 JUMPI POP PUSH1 0x40 MLOAD RETURNDATASIZE PUSH1 0x0 DUP3 RETURNDATACOPY PUSH1 0x1F RETURNDATASIZE SWAP1 DUP2 ADD PUSH1 0x1F NOT AND DUP3 ADD PUSH1 0x40 MSTORE PUSH2 0x590E SWAP2 SWAP1 DUP2 ADD SWAP1 PUSH2 0x677D JUMP JUMPDEST PUSH1 0x1 JUMPDEST PUSH2 0x593F JUMPI RETURNDATASIZE DUP1 DUP1 ISZERO PUSH2 0x278B JUMPI PUSH1 0x40 MLOAD SWAP2 POP PUSH1 0x1F NOT PUSH1 0x3F RETURNDATASIZE ADD AND DUP3 ADD PUSH1 0x40 MSTORE RETURNDATASIZE DUP3 MSTORE RETURNDATASIZE PUSH1 0x0 PUSH1 0x20 DUP5 ADD RETURNDATACOPY PUSH2 0x2790 JUMP JUMPDEST DUP1 PUSH1 0x0 DUP2 MLOAD DUP2 LT PUSH2 0x594C JUMPI INVALID JUMPDEST PUSH1 0x20 MUL PUSH1 0x20 ADD ADD MLOAD SWAP4 POP POP POP POP PUSH2 0x1380 JUMP JUMPDEST PUSH1 0x0 DUP1 PUSH1 0x60 DUP5 DUP1 PUSH1 0x20 ADD SWAP1 MLOAD DUP2 ADD SWAP1 PUSH2 0x5977 SWAP2 SWAP1 PUSH2 0x6271 JUMP JUMPDEST SWAP2 POP SWAP2 POP PUSH1 0x0 DUP7 DUP1 PUSH1 0x20 ADD SWAP1 MLOAD DUP2 ADD SWAP1 PUSH2 0x5991 SWAP2 SWAP1 PUSH2 0x6271 JUMP JUMPDEST POP PUSH1 0x40 MLOAD PUSH32 0x15E42A6100000000000000000000000000000000000000000000000000000000 DUP2 MSTORE SWAP1 SWAP2 POP ADDRESS SWAP1 PUSH4 0x15E42A61 SWAP1 PUSH2 0x59D7 SWAP1 DUP6 SWAP1 DUP6 SWAP1 DUP9 SWAP1 DUP12 SWAP1 PUSH1 0x4 ADD PUSH2 0x7183 JUMP JUMPDEST PUSH1 0x20 PUSH1 0x40 MLOAD DUP1 DUP4 SUB DUP2 DUP7 DUP1 EXTCODESIZE ISZERO DUP1 ISZERO PUSH2 0x59EF JUMPI PUSH1 0x0 DUP1 REVERT JUMPDEST POP GAS STATICCALL SWAP3 POP POP POP DUP1 ISZERO PUSH2 0x56D7 JUMPI POP PUSH1 0x40 DUP1 MLOAD PUSH1 0x1F RETURNDATASIZE SWAP1 DUP2 ADD PUSH1 0x1F NOT AND DUP3 ADD SWAP1 SWAP3 MSTORE PUSH2 0x56D4 SWAP2 DUP2 ADD SWAP1 PUSH2 0x6881 JUMP JUMPDEST PUSH1 0x0 PUSH2 0xD49 DUP4 PUSH2 0x5A40 PUSH2 0x5A30 DUP3 PUSH1 0x1 PUSH2 0x5CC6 JUMP JUMPDEST PUSH2 0x5A3A DUP9 DUP8 PUSH2 0x5CE5 JUMP JUMPDEST SWAP1 PUSH2 0x5D16 JUMP JUMPDEST SWAP1 PUSH2 0x5D32 JUMP JUMPDEST PUSH1 0x0 PUSH1 0x12 SWAP1 POP PUSH1 0x0 PUSH1 0x60 DUP4 PUSH20 0xFFFFFFFFFFFFFFFFFFFFFFFFFFFFFFFFFFFFFFFF AND PUSH1 0x40 MLOAD DUP1 PUSH1 0x40 ADD PUSH1 0x40 MSTORE DUP1 PUSH1 0x4 DUP2 MSTORE PUSH1 0x20 ADD PUSH32 0x313CE56700000000000000000000000000000000000000000000000000000000 DUP2 MSTORE POP PUSH1 0x40 MLOAD PUSH2 0x5AAA SWAP2 SWAP1 PUSH2 0x6CAB JUMP JUMPDEST PUSH1 0x0 PUSH1 0x40 MLOAD DUP1 DUP4 SUB DUP2 DUP6 GAS STATICCALL SWAP2 POP POP RETURNDATASIZE DUP1 PUSH1 0x0 DUP2 EQ PUSH2 0x5AE5 JUMPI PUSH1 0x40 MLOAD SWAP2 POP PUSH1 0x1F NOT PUSH1 0x3F RETURNDATASIZE ADD AND DUP3 ADD PUSH1 0x40 MSTORE RETURNDATASIZE DUP3 MSTORE RETURNDATASIZE PUSH1 0x0 PUSH1 0x20 DUP5 ADD RETURNDATACOPY PUSH2 0x5AEA JUMP JUMPDEST PUSH1 0x60 SWAP2 POP JUMPDEST POP SWAP2 POP SWAP2 POP DUP2 DUP1 ISZERO PUSH2 0x5AFD JUMPI POP DUP1 MLOAD PUSH1 0x20 EQ JUMPDEST ISZERO PUSH2 0x5B10 JUMPI PUSH2 0x5B0D DUP2 PUSH1 0x0 PUSH2 0x5412 JUMP JUMPDEST SWAP3 POP JUMPDEST POP POP SWAP2 SWAP1 POP JUMP JUMPDEST PUSH20 0x52AE12ABE5D8BD778BD5397F99CA900624CFADD4 SWAP1 JUMP JUMPDEST PUSH1 0x0 PUSH20 0xFFFFFFFFFFFFFFFFFFFFFFFFFFFFFFFFFFFFFFFF DUP3 AND PUSH20 0xC02AAA39B223FE8D0A0E5C4F27EAD9083C756CC2 EQ ISZERO PUSH2 0x5B6B JUMPI POP PUSH1 0x12 PUSH2 0x4EF6 JUMP JUMPDEST PUSH1 0x0 DUP3 PUSH1 0x40 MLOAD PUSH1 0x20 ADD PUSH2 0x5B7E SWAP2 SWAP1 PUSH2 0x6C6B JUMP JUMPDEST PUSH1 0x40 DUP1 MLOAD DUP1 DUP4 SUB PUSH1 0x1F NOT ADD DUP2 MSTORE SWAP2 SWAP1 MSTORE DUP1 MLOAD PUSH1 0x20 SWAP1 SWAP2 ADD KECCAK256 PUSH1 0xF AND PUSH1 0x4 ADD SWAP4 SWAP3 POP POP POP JUMP JUMPDEST PUSH1 0x0 SLOAD PUSH20 0xFFFFFFFFFFFFFFFFFFFFFFFFFFFFFFFFFFFFFFFF AND SWAP1 JUMP JUMPDEST PUSH1 0x0 DUP4 ISZERO DUP1 PUSH2 0x5BCC JUMPI POP DUP2 ISZERO JUMPDEST DUP1 PUSH2 0x5BD5 JUMPI POP DUP3 ISZERO JUMPDEST ISZERO PUSH2 0x5BE2 JUMPI POP PUSH1 0x0 PUSH2 0x1380 JUMP JUMPDEST DUP4 DUP3 MUL DUP3 DUP6 DUP3 DUP2 PUSH2 0x5BEF JUMPI INVALID JUMPDEST DIV EQ PUSH2 0x5BFF JUMPI PUSH1 0x0 SWAP2 POP POP PUSH2 0x1380 JUMP JUMPDEST DUP4 PUSH1 0x1 DUP6 SUB DUP3 ADD DUP2 PUSH2 0x5C0D JUMPI INVALID JUMPDEST DIV SWAP6 SWAP5 POP POP POP POP POP JUMP JUMPDEST DUP2 PUSH1 0x20 ADD DUP4 MLOAD LT ISZERO PUSH2 0x5C3B JUMPI PUSH2 0x5C3B PUSH2 0x5C36 PUSH1 0x5 DUP6 MLOAD DUP6 PUSH1 0x20 ADD PUSH2 0x5D5C JUMP JUMPDEST PUSH2 0x5DE3 JUMP JUMPDEST SWAP2 ADD PUSH1 0x20 ADD MSTORE JUMP JUMPDEST PUSH1 0x0 DUP2 PUSH1 0x20 ADD DUP4 MLOAD LT ISZERO PUSH2 0x5C64 JUMPI PUSH2 0x5C64 PUSH2 0x5C36 PUSH1 0x5 DUP6 MLOAD DUP6 PUSH1 0x20 ADD PUSH2 0x5D5C JUMP JUMPDEST POP ADD PUSH1 0x20 ADD MLOAD SWAP1 JUMP JUMPDEST PUSH1 0x40 DUP1 MLOAD PUSH1 0x1 DUP1 DUP3 MSTORE DUP2 DUP4 ADD SWAP1 SWAP3 MSTORE PUSH1 0x60 SWAP2 PUSH1 0x20 DUP1 DUP4 ADD SWAP1 DUP1 CALLDATASIZE DUP4 CALLDATACOPY ADD SWAP1 POP POP SWAP1 POP DUP2 DUP2 PUSH1 0x0 DUP2 MLOAD DUP2 LT PUSH2 0x5C9D JUMPI INVALID JUMPDEST PUSH1 0x20 MUL PUSH1 0x20 ADD ADD DUP2 DUP2 MSTORE POP POP SWAP2 SWAP1 POP JUMP JUMPDEST PUSH20 0x533DA777AEDCE766CEAE696BF90F8541A4BA80EB SWAP1 JUMP JUMPDEST PUSH1 0x0 DUP3 DUP3 GT ISZERO PUSH2 0x5CDF JUMPI PUSH2 0x5CDF PUSH2 0x5C36 PUSH1 0x2 DUP6 DUP6 PUSH2 0x5DEB JUMP JUMPDEST POP SWAP1 SUB SWAP1 JUMP JUMPDEST PUSH1 0x0 DUP3 PUSH2 0x5CF4 JUMPI POP PUSH1 0x0 PUSH2 0x4FE3 JUMP JUMPDEST DUP3 DUP3 MUL DUP3 DUP5 DUP3 DUP2 PUSH2 0x5D01 JUMPI INVALID JUMPDEST DIV EQ PUSH2 0x1380 JUMPI PUSH2 0x1380 PUSH2 0x5C36 PUSH1 0x1 DUP7 DUP7 PUSH2 0x5DEB JUMP JUMPDEST PUSH1 0x0 DUP3 DUP3 ADD DUP4 DUP2 LT ISZERO PUSH2 0x1380 JUMPI PUSH2 0x1380 PUSH2 0x5C36 PUSH1 0x0 DUP7 DUP7 PUSH2 0x5DEB JUMP JUMPDEST PUSH1 0x0 DUP2 PUSH2 0x5D48 JUMPI PUSH2 0x5D48 PUSH2 0x5C36 PUSH1 0x3 DUP6 DUP6 PUSH2 0x5DEB JUMP JUMPDEST PUSH1 0x0 DUP3 DUP5 DUP2 PUSH2 0x5D53 JUMPI INVALID JUMPDEST DIV SWAP5 SWAP4 POP POP POP POP JUMP JUMPDEST PUSH1 0x60 PUSH4 0x28006595 PUSH1 0xE0 SHL DUP5 DUP5 DUP5 PUSH1 0x40 MLOAD PUSH1 0x24 ADD PUSH2 0x5D7B SWAP4 SWAP3 SWAP2 SWAP1 PUSH2 0x723C JUMP JUMPDEST PUSH1 0x40 DUP1 MLOAD PUSH1 0x1F NOT DUP2 DUP5 SUB ADD DUP2 MSTORE SWAP2 SWAP1 MSTORE PUSH1 0x20 DUP2 ADD DUP1 MLOAD PUSH28 0xFFFFFFFFFFFFFFFFFFFFFFFFFFFFFFFFFFFFFFFFFFFFFFFFFFFFFFFF AND PUSH32 0xFFFFFFFF00000000000000000000000000000000000000000000000000000000 SWAP1 SWAP4 AND SWAP3 SWAP1 SWAP3 OR SWAP1 SWAP2 MSTORE SWAP1 POP SWAP4 SWAP3 POP POP POP JUMP JUMPDEST DUP1 MLOAD PUSH1 0x20 DUP3 ADD REVERT JUMPDEST PUSH1 0x60 PUSH4 0xE946C1BB PUSH1 0xE0 SHL DUP5 DUP5 DUP5 PUSH1 0x40 MLOAD PUSH1 0x24 ADD PUSH2 0x5D7B SWAP4 SWAP3 SWAP2 SWAP1 PUSH2 0x721A JUMP JUMPDEST PUSH1 0x40 MLOAD DUP1 PUSH1 0xA0 ADD PUSH1 0x40 MSTORE DUP1 PUSH1 0x0 DUP2 MSTORE PUSH1 0x20 ADD PUSH1 0x0 DUP2 MSTORE PUSH1 0x20 ADD PUSH1 0x0 DUP2 MSTORE PUSH1 0x20 ADD PUSH1 0x0 DUP2 MSTORE PUSH1 0x20 ADD PUSH1 0x0 DUP2 MSTORE POP SWAP1 JUMP JUMPDEST PUSH1 0x40 MLOAD DUP1 PUSH1 0x40 ADD PUSH1 0x40 MSTORE DUP1 PUSH1 0x0 DUP2 MSTORE PUSH1 0x20 ADD PUSH1 0x60 DUP2 MSTORE POP SWAP1 JUMP JUMPDEST PUSH1 0x40 DUP1 MLOAD PUSH1 0x60 DUP2 ADD DUP3 MSTORE PUSH1 0x0 DUP1 DUP3 MSTORE PUSH1 0x20 DUP3 ADD DUP2 SWAP1 MSTORE SWAP2 DUP2 ADD SWAP2 SWAP1 SWAP2 MSTORE SWAP1 JUMP JUMPDEST DUP1 CALLDATALOAD PUSH2 0x4FE3 DUP2 PUSH2 0x75FE JUMP JUMPDEST PUSH1 0x0 DUP1 DUP4 PUSH1 0x1F DUP5 ADD SLT PUSH2 0x5E8F JUMPI DUP2 DUP3 REVERT JUMPDEST POP DUP2 CALLDATALOAD PUSH8 0xFFFFFFFFFFFFFFFF DUP2 GT ISZERO PUSH2 0x5EA6 JUMPI DUP2 DUP3 REVERT JUMPDEST PUSH1 0x20 DUP4 ADD SWAP2 POP DUP4 PUSH1 0x20 DUP1 DUP4 MUL DUP6 ADD ADD GT ISZERO PUSH2 0x4D78 JUMPI PUSH1 0x0 DUP1 REVERT JUMPDEST PUSH1 0x0 DUP3 PUSH1 0x1F DUP4 ADD SLT PUSH2 0x5ED0 JUMPI DUP1 DUP2 REVERT JUMPDEST DUP2 CALLDATALOAD PUSH2 0x5EE3 PUSH2 0x5EDE DUP3 PUSH2 0x757F JUMP JUMPDEST PUSH2 0x7558 JUMP JUMPDEST DUP2 DUP2 MSTORE SWAP2 POP PUSH1 0x20 DUP1 DUP4 ADD SWAP1 DUP5 DUP2 ADD DUP2 DUP5 MUL DUP7 ADD DUP3 ADD DUP8 LT ISZERO PUSH2 0x5F04 JUMPI PUSH1 0x0 DUP1 REVERT JUMPDEST PUSH1 0x0 JUMPDEST DUP5 DUP2 LT ISZERO PUSH2 0x5F2C JUMPI DUP2 CALLDATALOAD PUSH2 0x5F1A DUP2 PUSH2 0x75FE JUMP JUMPDEST DUP5 MSTORE SWAP3 DUP3 ADD SWAP3 SWAP1 DUP3 ADD SWAP1 PUSH1 0x1 ADD PUSH2 0x5F07 JUMP JUMPDEST POP POP POP POP POP SWAP3 SWAP2 POP POP JUMP JUMPDEST PUSH1 0x0 DUP3 PUSH1 0x1F DUP4 ADD SLT PUSH2 0x5F47 JUMPI DUP1 DUP2 REVERT JUMPDEST DUP2 CALLDATALOAD PUSH2 0x5F55 PUSH2 0x5EDE DUP3 PUSH2 0x757F JUMP JUMPDEST DUP2 DUP2 MSTORE SWAP2 POP PUSH1 0x20 DUP1 DUP4 ADD SWAP1 DUP5 DUP2 ADD PUSH1 0x0 JUMPDEST DUP5 DUP2 LT ISZERO PUSH2 0x5F2C JUMPI PUSH2 0x5F7D DUP9 DUP5 DUP5 CALLDATALOAD DUP11 ADD ADD PUSH2 0x5FED JUMP JUMPDEST DUP5 MSTORE SWAP3 DUP3 ADD SWAP3 SWAP1 DUP3 ADD SWAP1 PUSH1 0x1 ADD PUSH2 0x5F66 JUMP JUMPDEST PUSH1 0x0 DUP3 PUSH1 0x1F DUP4 ADD SLT PUSH2 0x5F9F JUMPI DUP1 DUP2 REVERT JUMPDEST DUP2 CALLDATALOAD PUSH2 0x5FAD PUSH2 0x5EDE DUP3 PUSH2 0x757F JUMP JUMPDEST DUP2 DUP2 MSTORE SWAP2 POP PUSH1 0x20 DUP1 DUP4 ADD SWAP1 DUP5 DUP2 ADD DUP2 DUP5 MUL DUP7 ADD DUP3 ADD DUP8 LT ISZERO PUSH2 0x5FCE JUMPI PUSH1 0x0 DUP1 REVERT JUMPDEST PUSH1 0x0 JUMPDEST DUP5 DUP2 LT ISZERO PUSH2 0x5F2C JUMPI DUP2 CALLDATALOAD DUP5 MSTORE SWAP3 DUP3 ADD SWAP3 SWAP1 DUP3 ADD SWAP1 PUSH1 0x1 ADD PUSH2 0x5FD1 JUMP JUMPDEST PUSH1 0x0 DUP3 PUSH1 0x1F DUP4 ADD SLT PUSH2 0x5FFD JUMPI DUP1 DUP2 REVERT JUMPDEST DUP2 CALLDATALOAD PUSH2 0x600B PUSH2 0x5EDE DUP3 PUSH2 0x759F JUMP JUMPDEST SWAP2 POP DUP1 DUP3 MSTORE DUP4 PUSH1 0x20 DUP3 DUP6 ADD ADD GT ISZERO PUSH2 0x6022 JUMPI PUSH1 0x0 DUP1 REVERT JUMPDEST DUP1 PUSH1 0x20 DUP5 ADD PUSH1 0x20 DUP5 ADD CALLDATACOPY PUSH1 0x0 SWAP1 DUP3 ADD PUSH1 0x20 ADD MSTORE SWAP3 SWAP2 POP POP JUMP JUMPDEST PUSH1 0x0 DUP3 PUSH1 0x1F DUP4 ADD SLT PUSH2 0x604B JUMPI DUP1 DUP2 REVERT JUMPDEST DUP2 MLOAD PUSH2 0x6059 PUSH2 0x5EDE DUP3 PUSH2 0x759F JUMP JUMPDEST SWAP2 POP DUP1 DUP3 MSTORE DUP4 PUSH1 0x20 DUP3 DUP6 ADD ADD GT ISZERO PUSH2 0x6070 JUMPI PUSH1 0x0 DUP1 REVERT JUMPDEST PUSH2 0x2503 DUP2 PUSH1 0x20 DUP5 ADD PUSH1 0x20 DUP7 ADD PUSH2 0x75CE JUMP JUMPDEST PUSH1 0x0 PUSH2 0x1C0 DUP1 DUP4 DUP6 SUB SLT ISZERO PUSH2 0x6094 JUMPI DUP2 DUP3 REVERT JUMPDEST PUSH2 0x609D DUP2 PUSH2 0x7558 JUMP JUMPDEST SWAP2 POP POP PUSH2 0x60AA DUP4 DUP4 PUSH2 0x5E73 JUMP JUMPDEST DUP2 MSTORE PUSH2 0x60B9 DUP4 PUSH1 0x20 DUP5 ADD PUSH2 0x5E73 JUMP JUMPDEST PUSH1 0x20 DUP3 ADD MSTORE PUSH2 0x60CB DUP4 PUSH1 0x40 DUP5 ADD PUSH2 0x5E73 JUMP JUMPDEST PUSH1 0x40 DUP3 ADD MSTORE PUSH2 0x60DD DUP4 PUSH1 0x60 DUP5 ADD PUSH2 0x5E73 JUMP JUMPDEST PUSH1 0x60 DUP3 ADD MSTORE PUSH1 0x80 DUP3 ADD CALLDATALOAD PUSH1 0x80 DUP3 ADD MSTORE PUSH1 0xA0 DUP3 ADD CALLDATALOAD PUSH1 0xA0 DUP3 ADD MSTORE PUSH1 0xC0 DUP3 ADD CALLDATALOAD PUSH1 0xC0 DUP3 ADD MSTORE PUSH1 0xE0 DUP3 ADD CALLDATALOAD PUSH1 0xE0 DUP3 ADD MSTORE PUSH2 0x100 DUP1 DUP4 ADD CALLDATALOAD DUP2 DUP4 ADD MSTORE POP PUSH2 0x120 DUP1 DUP4 ADD CALLDATALOAD DUP2 DUP4 ADD MSTORE POP PUSH2 0x140 DUP1 DUP4 ADD CALLDATALOAD PUSH8 0xFFFFFFFFFFFFFFFF DUP1 DUP3 GT ISZERO PUSH2 0x613F JUMPI PUSH1 0x0 DUP1 REVERT JUMPDEST PUSH2 0x614B DUP7 DUP4 DUP8 ADD PUSH2 0x5FED JUMP JUMPDEST DUP4 DUP6 ADD MSTORE PUSH2 0x160 SWAP3 POP DUP3 DUP6 ADD CALLDATALOAD SWAP2 POP DUP1 DUP3 GT ISZERO PUSH2 0x6167 JUMPI PUSH1 0x0 DUP1 REVERT JUMPDEST PUSH2 0x6173 DUP7 DUP4 DUP8 ADD PUSH2 0x5FED JUMP JUMPDEST DUP4 DUP6 ADD MSTORE PUSH2 0x180 SWAP3 POP DUP3 DUP6 ADD CALLDATALOAD SWAP2 POP DUP1 DUP3 GT ISZERO PUSH2 0x618F JUMPI PUSH1 0x0 DUP1 REVERT JUMPDEST PUSH2 0x619B DUP7 DUP4 DUP8 ADD PUSH2 0x5FED JUMP JUMPDEST DUP4 DUP6 ADD MSTORE PUSH2 0x1A0 SWAP3 POP DUP3 DUP6 ADD CALLDATALOAD SWAP2 POP DUP1 DUP3 GT ISZERO PUSH2 0x61B7 JUMPI PUSH1 0x0 DUP1 REVERT JUMPDEST POP PUSH2 0x61C4 DUP6 DUP3 DUP7 ADD PUSH2 0x5FED JUMP JUMPDEST DUP3 DUP5 ADD MSTORE POP POP SWAP3 SWAP2 POP POP JUMP JUMPDEST PUSH1 0x0 PUSH1 0x20 DUP3 DUP5 SUB SLT ISZERO PUSH2 0x61E1 JUMPI DUP1 DUP2 REVERT JUMPDEST DUP2 MLOAD PUSH2 0x1380 DUP2 PUSH2 0x75FE JUMP JUMPDEST PUSH1 0x0 DUP1 PUSH1 0x40 DUP4 DUP6 SUB SLT ISZERO PUSH2 0x61FE JUMPI DUP1 DUP2 REVERT JUMPDEST DUP3 MLOAD PUSH2 0x6209 DUP2 PUSH2 0x75FE JUMP JUMPDEST PUSH1 0x20 DUP5 ADD MLOAD SWAP1 SWAP3 POP PUSH2 0x621A DUP2 PUSH2 0x75FE JUMP JUMPDEST DUP1 SWAP2 POP POP SWAP3 POP SWAP3 SWAP1 POP JUMP JUMPDEST PUSH1 0x0 DUP1 PUSH1 0x0 PUSH1 0x60 DUP5 DUP7 SUB SLT ISZERO PUSH2 0x6239 JUMPI DUP1 DUP2 REVERT JUMPDEST DUP4 MLOAD PUSH2 0x6244 DUP2 PUSH2 0x75FE JUMP JUMPDEST PUSH1 0x20 DUP6 ADD MLOAD SWAP1 SWAP4 POP PUSH2 0x6255 DUP2 PUSH2 0x75FE JUMP JUMPDEST PUSH1 0x40 DUP6 ADD MLOAD SWAP1 SWAP3 POP PUSH2 0x6266 DUP2 PUSH2 0x75FE JUMP JUMPDEST DUP1 SWAP2 POP POP SWAP3 POP SWAP3 POP SWAP3 JUMP JUMPDEST PUSH1 0x0 DUP1 PUSH1 0x40 DUP4 DUP6 SUB SLT ISZERO PUSH2 0x6283 JUMPI DUP2 DUP3 REVERT JUMPDEST DUP3 MLOAD PUSH2 0x628E DUP2 PUSH2 0x75FE JUMP JUMPDEST PUSH1 0x20 DUP5 ADD MLOAD SWAP1 SWAP3 POP PUSH8 0xFFFFFFFFFFFFFFFF DUP2 GT ISZERO PUSH2 0x62AA JUMPI DUP2 DUP3 REVERT JUMPDEST PUSH2 0x62B6 DUP6 DUP3 DUP7 ADD PUSH2 0x603B JUMP JUMPDEST SWAP2 POP POP SWAP3 POP SWAP3 SWAP1 POP JUMP JUMPDEST PUSH1 0x0 DUP1 PUSH1 0x40 DUP4 DUP6 SUB SLT ISZERO PUSH2 0x62D2 JUMPI DUP2 DUP3 REVERT JUMPDEST DUP3 CALLDATALOAD PUSH2 0x62DD DUP2 PUSH2 0x75FE JUMP JUMPDEST SWAP2 POP PUSH1 0x20 DUP4 ADD CALLDATALOAD PUSH2 0x621A DUP2 PUSH2 0x75FE JUMP JUMPDEST PUSH1 0x0 DUP1 PUSH1 0x0 DUP1 PUSH1 0x0 PUSH1 0xA0 DUP7 DUP9 SUB SLT ISZERO PUSH2 0x6304 JUMPI DUP3 DUP4 REVERT JUMPDEST DUP6 CALLDATALOAD PUSH2 0x630F DUP2 PUSH2 0x75FE JUMP JUMPDEST SWAP5 POP PUSH1 0x20 DUP7 ADD CALLDATALOAD PUSH2 0x631F DUP2 PUSH2 0x75FE JUMP JUMPDEST SWAP4 POP PUSH1 0x40 DUP7 ADD CALLDATALOAD PUSH2 0x632F DUP2 PUSH2 0x75FE JUMP JUMPDEST SWAP3 POP PUSH1 0x60 DUP7 ADD CALLDATALOAD PUSH2 0x633F DUP2 PUSH2 0x75FE JUMP JUMPDEST SWAP2 POP PUSH1 0x80 DUP7 ADD CALLDATALOAD PUSH8 0xFFFFFFFFFFFFFFFF DUP2 GT ISZERO PUSH2 0x635A JUMPI DUP2 DUP3 REVERT JUMPDEST PUSH2 0x6366 DUP9 DUP3 DUP10 ADD PUSH2 0x5F8F JUMP JUMPDEST SWAP2 POP POP SWAP3 SWAP6 POP SWAP3 SWAP6 SWAP1 SWAP4 POP JUMP JUMPDEST PUSH1 0x0 DUP1 PUSH1 0x0 DUP1 PUSH1 0x80 DUP6 DUP8 SUB SLT ISZERO PUSH2 0x6388 JUMPI DUP2 DUP3 REVERT JUMPDEST DUP5 CALLDATALOAD PUSH2 0x6393 DUP2 PUSH2 0x75FE JUMP JUMPDEST SWAP4 POP PUSH1 0x20 DUP6 ADD CALLDATALOAD PUSH2 0x63A3 DUP2 PUSH2 0x75FE JUMP JUMPDEST SWAP3 POP PUSH1 0x40 DUP6 ADD CALLDATALOAD PUSH2 0x63B3 DUP2 PUSH2 0x75FE JUMP JUMPDEST SWAP2 POP PUSH1 0x60 DUP6 ADD CALLDATALOAD PUSH8 0xFFFFFFFFFFFFFFFF DUP2 GT ISZERO PUSH2 0x63CE JUMPI DUP2 DUP3 REVERT JUMPDEST PUSH2 0x63DA DUP8 DUP3 DUP9 ADD PUSH2 0x5F8F JUMP JUMPDEST SWAP2 POP POP SWAP3 SWAP6 SWAP2 SWAP5 POP SWAP3 POP JUMP JUMPDEST PUSH1 0x0 DUP1 PUSH1 0x0 PUSH1 0x60 DUP5 DUP7 SUB SLT ISZERO PUSH2 0x63FA JUMPI DUP1 DUP2 REVERT JUMPDEST DUP4 CALLDATALOAD PUSH2 0x6405 DUP2 PUSH2 0x75FE JUMP JUMPDEST SWAP3 POP PUSH1 0x20 DUP5 ADD CALLDATALOAD PUSH2 0x6415 DUP2 PUSH2 0x75FE JUMP JUMPDEST SWAP2 POP PUSH1 0x40 DUP5 ADD CALLDATALOAD PUSH8 0xFFFFFFFFFFFFFFFF DUP2 GT ISZERO PUSH2 0x6430 JUMPI DUP2 DUP3 REVERT JUMPDEST PUSH2 0x643C DUP7 DUP3 DUP8 ADD PUSH2 0x5F8F JUMP JUMPDEST SWAP2 POP POP SWAP3 POP SWAP3 POP SWAP3 JUMP JUMPDEST PUSH1 0x0 DUP1 PUSH1 0x0 PUSH1 0x60 DUP5 DUP7 SUB SLT ISZERO PUSH2 0x645A JUMPI DUP1 DUP2 REVERT JUMPDEST DUP4 CALLDATALOAD PUSH2 0x6465 DUP2 PUSH2 0x75FE JUMP JUMPDEST SWAP3 POP PUSH1 0x20 DUP5 ADD CALLDATALOAD PUSH2 0x6475 DUP2 PUSH2 0x75FE JUMP JUMPDEST SWAP3 SWAP6 SWAP3 SWAP5 POP POP POP PUSH1 0x40 SWAP2 SWAP1 SWAP2 ADD CALLDATALOAD SWAP1 JUMP JUMPDEST PUSH1 0x0 DUP1 PUSH1 0x0 PUSH1 0x60 DUP5 DUP7 SUB SLT ISZERO PUSH2 0x649A JUMPI DUP1 DUP2 REVERT JUMPDEST DUP4 CALLDATALOAD PUSH2 0x64A5 DUP2 PUSH2 0x75FE JUMP JUMPDEST SWAP3 POP PUSH1 0x20 DUP5 ADD CALLDATALOAD PUSH8 0xFFFFFFFFFFFFFFFF DUP1 DUP3 GT ISZERO PUSH2 0x64C1 JUMPI DUP3 DUP4 REVERT JUMPDEST PUSH2 0x64CD DUP8 DUP4 DUP9 ADD PUSH2 0x5EC0 JUMP JUMPDEST SWAP4 POP PUSH1 0x40 DUP7 ADD CALLDATALOAD SWAP2 POP DUP1 DUP3 GT ISZERO PUSH2 0x64E2 JUMPI DUP3 DUP4 REVERT JUMPDEST POP PUSH2 0x643C DUP7 DUP3 DUP8 ADD PUSH2 0x5F8F JUMP JUMPDEST PUSH1 0x0 DUP1 PUSH1 0x20 DUP4 DUP6 SUB SLT ISZERO PUSH2 0x6501 JUMPI DUP2 DUP3 REVERT JUMPDEST DUP3 CALLDATALOAD PUSH8 0xFFFFFFFFFFFFFFFF DUP2 GT ISZERO PUSH2 0x6517 JUMPI DUP3 DUP4 REVERT JUMPDEST PUSH2 0x6523 DUP6 DUP3 DUP7 ADD PUSH2 0x5E7E JUMP JUMPDEST SWAP1 SWAP7 SWAP1 SWAP6 POP SWAP4 POP POP POP POP JUMP JUMPDEST PUSH1 0x0 DUP1 PUSH1 0x40 DUP4 DUP6 SUB SLT ISZERO PUSH2 0x6541 JUMPI DUP2 DUP3 REVERT JUMPDEST DUP3 CALLDATALOAD PUSH8 0xFFFFFFFFFFFFFFFF DUP1 DUP3 GT ISZERO PUSH2 0x6558 JUMPI DUP4 DUP5 REVERT JUMPDEST PUSH2 0x6564 DUP7 DUP4 DUP8 ADD PUSH2 0x5EC0 JUMP JUMPDEST SWAP4 POP PUSH1 0x20 DUP6 ADD CALLDATALOAD SWAP2 POP DUP1 DUP3 GT ISZERO PUSH2 0x6579 JUMPI DUP3 DUP4 REVERT JUMPDEST POP PUSH2 0x62B6 DUP6 DUP3 DUP7 ADD PUSH2 0x5F8F JUMP JUMPDEST PUSH1 0x0 DUP1 PUSH1 0x0 DUP1 PUSH1 0x80 DUP6 DUP8 SUB SLT ISZERO PUSH2 0x659B JUMPI DUP2 DUP3 REVERT JUMPDEST DUP5 CALLDATALOAD PUSH8 0xFFFFFFFFFFFFFFFF DUP1 DUP3 GT ISZERO PUSH2 0x65B2 JUMPI DUP4 DUP5 REVERT JUMPDEST DUP2 DUP8 ADD SWAP2 POP DUP8 PUSH1 0x1F DUP4 ADD SLT PUSH2 0x65C5 JUMPI DUP4 DUP5 REVERT JUMPDEST DUP2 CALLDATALOAD PUSH2 0x65D3 PUSH2 0x5EDE DUP3 PUSH2 0x757F JUMP JUMPDEST DUP2 DUP2 MSTORE PUSH1 0x20 DUP1 DUP3 ADD SWAP2 SWAP1 DUP6 DUP2 ADD DUP9 JUMPDEST DUP6 DUP2 LT ISZERO PUSH2 0x660B JUMPI PUSH2 0x65F9 DUP15 DUP5 DUP5 CALLDATALOAD DUP12 ADD ADD PUSH2 0x5EC0 JUMP JUMPDEST DUP6 MSTORE SWAP4 DUP3 ADD SWAP4 SWAP1 DUP3 ADD SWAP1 PUSH1 0x1 ADD PUSH2 0x65E2 JUMP JUMPDEST POP POP DUP2 SWAP10 POP PUSH2 0x661C DUP13 DUP3 DUP14 ADD PUSH2 0x5E73 JUMP JUMPDEST SWAP9 POP POP POP POP POP PUSH2 0x662F DUP9 PUSH1 0x40 DUP10 ADD PUSH2 0x5E73 JUMP JUMPDEST SWAP4 POP PUSH1 0x60 DUP8 ADD CALLDATALOAD SWAP2 POP DUP1 DUP3 GT ISZERO PUSH2 0x6644 JUMPI DUP3 DUP4 REVERT JUMPDEST POP PUSH2 0x63DA DUP8 DUP3 DUP9 ADD PUSH2 0x5F8F JUMP JUMPDEST PUSH1 0x0 DUP1 PUSH1 0x0 PUSH1 0x60 DUP5 DUP7 SUB SLT ISZERO PUSH2 0x6665 JUMPI DUP1 DUP2 REVERT JUMPDEST DUP4 CALLDATALOAD PUSH8 0xFFFFFFFFFFFFFFFF DUP1 DUP3 GT ISZERO PUSH2 0x667C JUMPI DUP3 DUP4 REVERT JUMPDEST PUSH2 0x6688 DUP8 DUP4 DUP9 ADD PUSH2 0x5F37 JUMP JUMPDEST SWAP5 POP PUSH1 0x20 DUP7 ADD CALLDATALOAD SWAP2 POP DUP1 DUP3 GT ISZERO PUSH2 0x669D JUMPI DUP3 DUP4 REVERT JUMPDEST POP PUSH2 0x66AA DUP7 DUP3 DUP8 ADD PUSH2 0x5F37 JUMP JUMPDEST SWAP3 POP POP PUSH1 0x40 DUP5 ADD CALLDATALOAD SWAP1 POP SWAP3 POP SWAP3 POP SWAP3 JUMP JUMPDEST PUSH1 0x0 DUP1 PUSH1 0x0 PUSH1 0x60 DUP5 DUP7 SUB SLT ISZERO PUSH2 0x66CF JUMPI DUP1 DUP2 REVERT JUMPDEST DUP4 CALLDATALOAD PUSH8 0xFFFFFFFFFFFFFFFF DUP1 DUP3 GT ISZERO PUSH2 0x66E6 JUMPI DUP3 DUP4 REVERT JUMPDEST DUP2 DUP7 ADD SWAP2 POP DUP7 PUSH1 0x1F DUP4 ADD SLT PUSH2 0x66F9 JUMPI DUP3 DUP4 REVERT JUMPDEST DUP2 CALLDATALOAD PUSH2 0x6707 PUSH2 0x5EDE DUP3 PUSH2 0x757F JUMP JUMPDEST DUP2 DUP2 MSTORE PUSH1 0x20 DUP1 DUP3 ADD SWAP2 SWAP1 DUP6 DUP2 ADD DUP8 JUMPDEST DUP6 DUP2 LT ISZERO PUSH2 0x673F JUMPI PUSH2 0x672D DUP14 DUP5 DUP5 CALLDATALOAD DUP12 ADD ADD PUSH2 0x6081 JUMP JUMPDEST DUP6 MSTORE SWAP4 DUP3 ADD SWAP4 SWAP1 DUP3 ADD SWAP1 PUSH1 0x1 ADD PUSH2 0x6716 JUMP JUMPDEST POP SWAP2 SWAP9 POP DUP10 ADD CALLDATALOAD SWAP5 POP POP POP POP DUP1 DUP3 GT ISZERO PUSH2 0x6757 JUMPI DUP3 DUP4 REVERT JUMPDEST POP PUSH2 0x6764 DUP7 DUP3 DUP8 ADD PUSH2 0x5F37 JUMP JUMPDEST SWAP3 POP POP PUSH2 0x6774 DUP6 PUSH1 0x40 DUP7 ADD PUSH2 0x5E73 JUMP JUMPDEST SWAP1 POP SWAP3 POP SWAP3 POP SWAP3 JUMP JUMPDEST PUSH1 0x0 PUSH1 0x20 DUP1 DUP4 DUP6 SUB SLT ISZERO PUSH2 0x678F JUMPI DUP2 DUP3 REVERT JUMPDEST DUP3 MLOAD PUSH8 0xFFFFFFFFFFFFFFFF DUP2 GT ISZERO PUSH2 0x67A5 JUMPI DUP3 DUP4 REVERT JUMPDEST DUP4 ADD PUSH1 0x1F DUP2 ADD DUP6 SGT PUSH2 0x67B5 JUMPI DUP3 DUP4 REVERT JUMPDEST DUP1 MLOAD PUSH2 0x67C3 PUSH2 0x5EDE DUP3 PUSH2 0x757F JUMP JUMPDEST DUP2 DUP2 MSTORE DUP4 DUP2 ADD SWAP1 DUP4 DUP6 ADD DUP6 DUP5 MUL DUP6 ADD DUP7 ADD DUP10 LT ISZERO PUSH2 0x67DF JUMPI DUP7 DUP8 REVERT JUMPDEST DUP7 SWAP5 POP JUMPDEST DUP4 DUP6 LT ISZERO PUSH2 0x6801 JUMPI DUP1 MLOAD DUP4 MSTORE PUSH1 0x1 SWAP5 SWAP1 SWAP5 ADD SWAP4 SWAP2 DUP6 ADD SWAP2 DUP6 ADD PUSH2 0x67E3 JUMP JUMPDEST POP SWAP8 SWAP7 POP POP POP POP POP POP POP JUMP JUMPDEST PUSH1 0x0 PUSH1 0x20 DUP3 DUP5 SUB SLT ISZERO PUSH2 0x681E JUMPI DUP1 DUP2 REVERT JUMPDEST DUP2 MLOAD PUSH2 0x1380 DUP2 PUSH2 0x7620 JUMP JUMPDEST PUSH1 0x0 DUP1 PUSH1 0x0 PUSH1 0x60 DUP5 DUP7 SUB SLT ISZERO PUSH2 0x683D JUMPI DUP1 DUP2 REVERT JUMPDEST DUP4 MLOAD PUSH2 0x6848 DUP2 PUSH2 0x7620 JUMP JUMPDEST PUSH1 0x20 DUP6 ADD MLOAD SWAP1 SWAP4 POP PUSH8 0xFFFFFFFFFFFFFFFF DUP2 GT ISZERO PUSH2 0x6864 JUMPI DUP2 DUP3 REVERT JUMPDEST PUSH2 0x6870 DUP7 DUP3 DUP8 ADD PUSH2 0x603B JUMP JUMPDEST SWAP3 POP POP PUSH1 0x40 DUP5 ADD MLOAD SWAP1 POP SWAP3 POP SWAP3 POP SWAP3 JUMP JUMPDEST PUSH1 0x0 PUSH1 0x20 DUP3 DUP5 SUB SLT ISZERO PUSH2 0x6892 JUMPI DUP1 DUP2 REVERT JUMPDEST POP MLOAD SWAP2 SWAP1 POP JUMP JUMPDEST PUSH1 0x0 DUP1 PUSH1 0x0 PUSH1 0x60 DUP5 DUP7 SUB SLT ISZERO PUSH2 0x68AD JUMPI DUP1 DUP2 REVERT JUMPDEST DUP4 CALLDATALOAD SWAP3 POP PUSH1 0x20 DUP5 ADD CALLDATALOAD PUSH2 0x68BF DUP2 PUSH2 0x75FE JUMP JUMPDEST SWAP2 POP PUSH1 0x40 DUP5 ADD CALLDATALOAD PUSH2 0x6266 DUP2 PUSH2 0x75FE JUMP JUMPDEST PUSH1 0x0 DUP1 PUSH1 0x0 DUP1 PUSH1 0x80 DUP6 DUP8 SUB SLT ISZERO PUSH2 0x68E4 JUMPI DUP2 DUP3 REVERT JUMPDEST DUP5 CALLDATALOAD SWAP4 POP PUSH1 0x20 DUP6 ADD CALLDATALOAD PUSH2 0x63A3 DUP2 PUSH2 0x75FE JUMP JUMPDEST PUSH1 0x0 PUSH1 0x20 DUP3 DUP5 SUB SLT ISZERO PUSH2 0x6907 JUMPI DUP1 DUP2 REVERT JUMPDEST DUP2 MLOAD PUSH8 0xFFFFFFFFFFFFFFFF DUP2 GT ISZERO PUSH2 0x691D JUMPI DUP2 DUP3 REVERT JUMPDEST PUSH2 0xD49 DUP5 DUP3 DUP6 ADD PUSH2 0x603B JUMP JUMPDEST PUSH1 0x0 DUP1 PUSH1 0x0 DUP1 PUSH1 0x80 DUP6 DUP8 SUB SLT ISZERO PUSH2 0x693E JUMPI DUP2 DUP3 REVERT JUMPDEST DUP5 CALLDATALOAD PUSH8 0xFFFFFFFFFFFFFFFF DUP2 GT ISZERO PUSH2 0x6954 JUMPI DUP3 DUP4 REVERT JUMPDEST PUSH2 0x6960 DUP8 DUP3 DUP9 ADD PUSH2 0x5FED JUMP JUMPDEST SWAP5 POP POP PUSH1 0x20 DUP6 ADD CALLDATALOAD PUSH2 0x6971 DUP2 PUSH2 0x75FE JUMP JUMPDEST SWAP3 POP PUSH1 0x40 DUP6 ADD CALLDATALOAD PUSH2 0x6981 DUP2 PUSH2 0x75FE JUMP JUMPDEST SWAP4 SWAP7 SWAP3 SWAP6 POP SWAP3 SWAP4 PUSH1 0x60 ADD CALLDATALOAD SWAP3 POP POP JUMP JUMPDEST PUSH1 0x0 PUSH1 0x20 DUP3 DUP5 SUB SLT ISZERO PUSH2 0x69A2 JUMPI DUP1 DUP2 REVERT JUMPDEST DUP2 MLOAD PUSH2 0x1380 DUP2 PUSH2 0x765C JUMP JUMPDEST PUSH1 0x0 DUP1 DUP3 DUP5 SUB PUSH1 0x80 DUP2 SLT ISZERO PUSH2 0x69C0 JUMPI DUP3 DUP4 REVERT JUMPDEST DUP4 MLOAD PUSH2 0x69CB DUP2 PUSH2 0x765C JUMP JUMPDEST SWAP3 POP PUSH1 0x60 PUSH1 0x1F NOT DUP3 ADD SLT ISZERO PUSH2 0x69DE JUMPI DUP2 DUP3 REVERT JUMPDEST POP PUSH2 0x69E9 PUSH1 0x60 PUSH2 0x7558 JUMP JUMPDEST PUSH1 0x20 DUP5 ADD MLOAD PUSH2 0x69F7 DUP2 PUSH2 0x75FE JUMP JUMPDEST DUP2 MSTORE PUSH1 0x40 DUP5 ADD MLOAD PUSH2 0x6A07 DUP2 PUSH2 0x762E JUMP JUMPDEST PUSH1 0x20 DUP3 ADD MSTORE PUSH1 0x60 DUP5 ADD MLOAD PUSH2 0x6A1A DUP2 PUSH2 0x762E JUMP JUMPDEST PUSH1 0x40 DUP3 ADD MSTORE SWAP2 SWAP5 SWAP2 SWAP4 POP SWAP1 SWAP2 POP POP JUMP JUMPDEST PUSH1 0x0 DUP1 PUSH1 0x0 DUP1 DUP5 DUP7 SUB PUSH1 0xC0 DUP2 SLT ISZERO PUSH2 0x6A40 JUMPI DUP3 DUP4 REVERT JUMPDEST PUSH1 0x60 DUP2 SLT ISZERO PUSH2 0x6A4D JUMPI DUP3 DUP4 REVERT JUMPDEST POP PUSH2 0x6A58 PUSH1 0x60 PUSH2 0x7558 JUMP JUMPDEST DUP6 CALLDATALOAD PUSH2 0x6A63 DUP2 PUSH2 0x75FE JUMP JUMPDEST DUP2 MSTORE PUSH1 0x20 DUP7 ADD CALLDATALOAD PUSH2 0x6A73 DUP2 PUSH2 0x762E JUMP JUMPDEST PUSH1 0x20 DUP3 ADD MSTORE PUSH1 0x40 DUP7 ADD CALLDATALOAD PUSH2 0x6A86 DUP2 PUSH2 0x762E JUMP JUMPDEST PUSH1 0x40 DUP3 ADD MSTORE SWAP4 POP PUSH1 0x60 DUP6 ADD CALLDATALOAD PUSH2 0x6A9B DUP2 PUSH2 0x765C JUMP JUMPDEST SWAP3 POP PUSH1 0x80 DUP6 ADD CALLDATALOAD PUSH2 0x6AAB DUP2 PUSH2 0x765C JUMP JUMPDEST SWAP2 POP PUSH1 0xA0 DUP6 ADD CALLDATALOAD PUSH8 0xFFFFFFFFFFFFFFFF DUP2 GT ISZERO PUSH2 0x63CE JUMPI DUP2 DUP3 REVERT JUMPDEST PUSH1 0x0 DUP1 PUSH1 0x0 PUSH1 0x60 DUP5 DUP7 SUB SLT ISZERO PUSH2 0x6ADA JUMPI DUP1 DUP2 REVERT JUMPDEST DUP4 CALLDATALOAD PUSH8 0xFFFFFFFFFFFFFFFF DUP1 DUP3 GT ISZERO PUSH2 0x6AF1 JUMPI DUP3 DUP4 REVERT JUMPDEST PUSH2 0x6AFD DUP8 DUP4 DUP9 ADD PUSH2 0x6081 JUMP JUMPDEST SWAP5 POP PUSH1 0x20 DUP7 ADD CALLDATALOAD SWAP2 POP DUP1 DUP3 GT ISZERO PUSH2 0x6B12 JUMPI DUP3 DUP4 REVERT JUMPDEST POP PUSH2 0x6B1F DUP7 DUP3 DUP8 ADD PUSH2 0x5FED JUMP JUMPDEST SWAP3 POP POP PUSH1 0x40 DUP5 ADD CALLDATALOAD PUSH2 0x6266 DUP2 PUSH2 0x75FE JUMP JUMPDEST PUSH20 0xFFFFFFFFFFFFFFFFFFFFFFFFFFFFFFFFFFFFFFFF AND SWAP1 MSTORE JUMP JUMPDEST PUSH1 0x0 DUP2 MLOAD DUP1 DUP5 MSTORE PUSH1 0x20 DUP1 DUP6 ADD SWAP5 POP DUP1 DUP5 ADD DUP4 JUMPDEST DUP4 DUP2 LT ISZERO PUSH2 0x6B8F JUMPI DUP2 MLOAD PUSH20 0xFFFFFFFFFFFFFFFFFFFFFFFFFFFFFFFFFFFFFFFF AND DUP8 MSTORE SWAP6 DUP3 ADD SWAP6 SWAP1 DUP3 ADD SWAP1 PUSH1 0x1 ADD PUSH2 0x6B5D JUMP JUMPDEST POP SWAP5 SWAP6 SWAP5 POP POP POP POP POP JUMP JUMPDEST PUSH1 0x0 DUP2 MLOAD DUP1 DUP5 MSTORE PUSH1 0x20 DUP1 DUP6 ADD SWAP5 POP DUP1 DUP5 ADD DUP4 JUMPDEST DUP4 DUP2 LT ISZERO PUSH2 0x6B8F JUMPI DUP2 MLOAD DUP8 MSTORE SWAP6 DUP3 ADD SWAP6 SWAP1 DUP3 ADD SWAP1 PUSH1 0x1 ADD PUSH2 0x6BAD JUMP JUMPDEST PUSH1 0x0 DUP2 MLOAD DUP1 DUP5 MSTORE PUSH2 0x6BE1 DUP2 PUSH1 0x20 DUP7 ADD PUSH1 0x20 DUP7 ADD PUSH2 0x75CE JUMP JUMPDEST PUSH1 0x1F ADD PUSH1 0x1F NOT AND SWAP3 SWAP1 SWAP3 ADD PUSH1 0x20 ADD SWAP3 SWAP2 POP POP JUMP JUMPDEST DUP1 MLOAD PUSH20 0xFFFFFFFFFFFFFFFFFFFFFFFFFFFFFFFFFFFFFFFF AND DUP3 MSTORE PUSH1 0x20 DUP1 DUP3 ADD MLOAD PUSH32 0xFFFFFFFF00000000000000000000000000000000000000000000000000000000 SWAP1 DUP2 AND SWAP2 DUP5 ADD SWAP2 SWAP1 SWAP2 MSTORE PUSH1 0x40 SWAP2 DUP3 ADD MLOAD AND SWAP2 ADD MSTORE JUMP JUMPDEST PUSH1 0x0 DUP2 MLOAD DUP4 MSTORE PUSH1 0x20 DUP3 ADD MLOAD PUSH1 0x40 PUSH1 0x20 DUP6 ADD MSTORE PUSH2 0xD49 PUSH1 0x40 DUP6 ADD DUP3 PUSH2 0x6BC9 JUMP JUMPDEST PUSH1 0x60 SWAP2 SWAP1 SWAP2 SHL PUSH32 0xFFFFFFFFFFFFFFFFFFFFFFFFFFFFFFFFFFFFFFFF000000000000000000000000 AND DUP2 MSTORE PUSH1 0x14 ADD SWAP1 JUMP JUMPDEST PUSH1 0x0 DUP3 DUP5 DUP4 CALLDATACOPY SWAP2 ADD SWAP1 DUP2 MSTORE SWAP2 SWAP1 POP JUMP JUMPDEST PUSH1 0x0 DUP3 MLOAD PUSH2 0x6CBD DUP2 DUP5 PUSH1 0x20 DUP8 ADD PUSH2 0x75CE JUMP JUMPDEST SWAP2 SWAP1 SWAP2 ADD SWAP3 SWAP2 POP POP JUMP JUMPDEST PUSH20 0xFFFFFFFFFFFFFFFFFFFFFFFFFFFFFFFFFFFFFFFF SWAP2 SWAP1 SWAP2 AND DUP2 MSTORE PUSH1 0x20 ADD SWAP1 JUMP JUMPDEST PUSH20 0xFFFFFFFFFFFFFFFFFFFFFFFFFFFFFFFFFFFFFFFF SWAP3 DUP4 AND DUP2 MSTORE SWAP2 AND PUSH1 0x20 DUP3 ADD MSTORE PUSH1 0x40 ADD SWAP1 JUMP JUMPDEST PUSH20 0xFFFFFFFFFFFFFFFFFFFFFFFFFFFFFFFFFFFFFFFF SWAP4 DUP5 AND DUP2 MSTORE SWAP2 DUP4 AND PUSH1 0x20 DUP4 ADD MSTORE SWAP1 SWAP2 AND PUSH1 0x40 DUP3 ADD MSTORE PUSH1 0x60 ADD SWAP1 JUMP JUMPDEST PUSH1 0x0 PUSH20 0xFFFFFFFFFFFFFFFFFFFFFFFFFFFFFFFFFFFFFFFF DUP1 DUP8 AND DUP4 MSTORE DUP1 DUP7 AND PUSH1 0x20 DUP5 ADD MSTORE DUP1 DUP6 AND PUSH1 0x40 DUP5 ADD MSTORE POP PUSH1 0x80 PUSH1 0x60 DUP4 ADD MSTORE PUSH2 0x51E2 PUSH1 0x80 DUP4 ADD DUP5 PUSH2 0x6B9A JUMP JUMPDEST PUSH20 0xFFFFFFFFFFFFFFFFFFFFFFFFFFFFFFFFFFFFFFFF SWAP5 DUP6 AND DUP2 MSTORE SWAP3 DUP5 AND PUSH1 0x20 DUP5 ADD MSTORE SWAP3 AND PUSH1 0x40 DUP3 ADD MSTORE PUSH1 0x60 DUP2 ADD SWAP2 SWAP1 SWAP2 MSTORE PUSH1 0x80 ADD SWAP1 JUMP JUMPDEST PUSH1 0x0 PUSH20 0xFFFFFFFFFFFFFFFFFFFFFFFFFFFFFFFFFFFFFFFF DUP1 DUP7 AND DUP4 MSTORE DUP1 DUP6 AND PUSH1 0x20 DUP5 ADD MSTORE POP PUSH1 0x60 PUSH1 0x40 DUP4 ADD MSTORE PUSH2 0x1127 PUSH1 0x60 DUP4 ADD DUP5 PUSH2 0x6B9A JUMP JUMPDEST PUSH20 0xFFFFFFFFFFFFFFFFFFFFFFFFFFFFFFFFFFFFFFFF SWAP4 DUP5 AND DUP2 MSTORE SWAP2 SWAP1 SWAP3 AND PUSH1 0x20 DUP3 ADD MSTORE PUSH1 0x40 DUP2 ADD SWAP2 SWAP1 SWAP2 MSTORE PUSH1 0x60 ADD SWAP1 JUMP JUMPDEST PUSH1 0x0 PUSH20 0xFFFFFFFFFFFFFFFFFFFFFFFFFFFFFFFFFFFFFFFF DUP1 DUP9 AND DUP4 MSTORE DUP1 DUP8 AND PUSH1 0x20 DUP5 ADD MSTORE POP DUP5 PUSH1 0x40 DUP4 ADD MSTORE DUP4 PUSH1 0x60 DUP4 ADD MSTORE PUSH1 0xA0 PUSH1 0x80 DUP4 ADD MSTORE PUSH2 0x6E66 PUSH1 0xA0 DUP4 ADD DUP5 PUSH2 0x6BC9 JUMP JUMPDEST SWAP8 SWAP7 POP POP POP POP POP POP POP JUMP JUMPDEST PUSH1 0x0 PUSH20 0xFFFFFFFFFFFFFFFFFFFFFFFFFFFFFFFFFFFFFFFF DUP6 AND DUP3 MSTORE PUSH1 0x60 PUSH1 0x20 DUP4 ADD MSTORE PUSH2 0x6EA0 PUSH1 0x60 DUP4 ADD DUP6 PUSH2 0x6B4A JUMP JUMPDEST DUP3 DUP2 SUB PUSH1 0x40 DUP5 ADD MSTORE PUSH2 0x51E2 DUP2 DUP6 PUSH2 0x6B9A JUMP JUMPDEST PUSH1 0x0 PUSH20 0xFFFFFFFFFFFFFFFFFFFFFFFFFFFFFFFFFFFFFFFF DUP5 AND DUP3 MSTORE PUSH1 0x40 PUSH1 0x20 DUP4 ADD MSTORE PUSH2 0xD49 PUSH1 0x40 DUP4 ADD DUP5 PUSH2 0x6BC9 JUMP JUMPDEST PUSH1 0x0 PUSH20 0xFFFFFFFFFFFFFFFFFFFFFFFFFFFFFFFFFFFFFFFF DUP7 AND DUP3 MSTORE PUSH2 0x6F05 DUP6 PUSH2 0x75C3 JUMP JUMPDEST PUSH1 0x20 DUP4 ADD MSTORE PUSH1 0x80 PUSH1 0x40 DUP4 ADD MSTORE PUSH2 0x6F1E PUSH1 0x80 DUP4 ADD DUP6 PUSH2 0x6B9A JUMP JUMPDEST DUP3 DUP2 SUB PUSH1 0x60 DUP5 ADD MSTORE PUSH2 0x6E66 DUP2 DUP6 PUSH2 0x6B9A JUMP JUMPDEST PUSH1 0x0 PUSH2 0x100 PUSH20 0xFFFFFFFFFFFFFFFFFFFFFFFFFFFFFFFFFFFFFFFF DUP1 DUP13 AND DUP5 MSTORE PUSH2 0x6F58 DUP12 PUSH2 0x75C3 JUMP JUMPDEST PUSH1 0x20 DUP6 ADD MSTORE DUP2 PUSH1 0x40 DUP6 ADD MSTORE PUSH2 0x6F6F DUP3 DUP6 ADD DUP12 PUSH2 0x6B9A JUMP JUMPDEST SWAP2 POP DUP4 DUP3 SUB PUSH1 0x60 DUP6 ADD MSTORE PUSH2 0x6F83 DUP3 DUP11 PUSH2 0x6B9A JUMP JUMPDEST SWAP1 DUP9 AND PUSH1 0x80 DUP6 ADD MSTORE SWAP1 POP PUSH2 0x6F96 DUP7 PUSH2 0x75C3 JUMP JUMPDEST PUSH1 0xA0 DUP5 ADD MSTORE DUP3 DUP2 SUB PUSH1 0xC0 DUP5 ADD MSTORE PUSH2 0x6FAD DUP2 DUP7 PUSH2 0x6B9A JUMP JUMPDEST SWAP1 POP DUP3 DUP2 SUB PUSH1 0xE0 DUP5 ADD MSTORE PUSH2 0x6FC1 DUP2 DUP6 PUSH2 0x6B9A JUMP JUMPDEST SWAP12 SWAP11 POP POP POP POP POP POP POP POP POP POP POP JUMP JUMPDEST PUSH20 0xFFFFFFFFFFFFFFFFFFFFFFFFFFFFFFFFFFFFFFFF SWAP3 SWAP1 SWAP3 AND DUP3 MSTORE PUSH1 0x20 DUP3 ADD MSTORE PUSH1 0x40 ADD SWAP1 JUMP JUMPDEST PUSH1 0x20 DUP1 DUP3 MSTORE DUP2 DUP2 ADD DUP4 SWAP1 MSTORE PUSH1 0x0 SWAP1 DUP5 PUSH1 0x40 DUP5 ADD DUP4 JUMPDEST DUP7 DUP2 LT ISZERO PUSH2 0x7046 JUMPI DUP3 CALLDATALOAD PUSH2 0x701E DUP2 PUSH2 0x75FE JUMP JUMPDEST PUSH20 0xFFFFFFFFFFFFFFFFFFFFFFFFFFFFFFFFFFFFFFFF AND DUP3 MSTORE SWAP2 DUP4 ADD SWAP2 SWAP1 DUP4 ADD SWAP1 PUSH1 0x1 ADD PUSH2 0x700B JUMP JUMPDEST POP SWAP7 SWAP6 POP POP POP POP POP POP JUMP JUMPDEST PUSH1 0x0 PUSH1 0x40 DUP3 MSTORE PUSH2 0x7064 PUSH1 0x40 DUP4 ADD DUP6 PUSH2 0x6B4A JUMP JUMPDEST SWAP1 POP DUP3 PUSH1 0x20 DUP4 ADD MSTORE SWAP4 SWAP3 POP POP POP JUMP JUMPDEST PUSH1 0x0 PUSH1 0x20 DUP1 DUP4 ADD DUP2 DUP5 MSTORE DUP1 DUP6 MLOAD DUP1 DUP4 MSTORE PUSH1 0x40 DUP7 ADD SWAP2 POP PUSH1 0x40 DUP5 DUP3 MUL DUP8 ADD ADD SWAP3 POP DUP4 DUP8 ADD DUP6 JUMPDEST DUP3 DUP2 LT ISZERO PUSH2 0x70E4 JUMPI PUSH32 0xFFFFFFFFFFFFFFFFFFFFFFFFFFFFFFFFFFFFFFFFFFFFFFFFFFFFFFFFFFFFFFC0 DUP9 DUP7 SUB ADD DUP5 MSTORE PUSH2 0x70D2 DUP6 DUP4 MLOAD PUSH2 0x6BC9 JUMP JUMPDEST SWAP5 POP SWAP3 DUP6 ADD SWAP3 SWAP1 DUP6 ADD SWAP1 PUSH1 0x1 ADD PUSH2 0x7098 JUMP JUMPDEST POP SWAP3 SWAP8 SWAP7 POP POP POP POP POP POP POP JUMP JUMPDEST PUSH1 0x0 PUSH1 0x20 DUP3 MSTORE PUSH2 0x1380 PUSH1 0x20 DUP4 ADD DUP5 PUSH2 0x6B9A JUMP JUMPDEST PUSH1 0x0 DUP5 ISZERO ISZERO DUP3 MSTORE PUSH20 0xFFFFFFFFFFFFFFFFFFFFFFFFFFFFFFFFFFFFFFFF DUP5 AND PUSH1 0x20 DUP4 ADD MSTORE PUSH1 0x60 PUSH1 0x40 DUP4 ADD MSTORE PUSH2 0x1127 PUSH1 0x60 DUP4 ADD DUP5 PUSH2 0x6B9A JUMP JUMPDEST SWAP1 DUP2 MSTORE PUSH1 0x20 ADD SWAP1 JUMP JUMPDEST SWAP3 DUP4 MSTORE PUSH20 0xFFFFFFFFFFFFFFFFFFFFFFFFFFFFFFFFFFFFFFFF SWAP2 DUP3 AND PUSH1 0x20 DUP5 ADD MSTORE AND PUSH1 0x40 DUP3 ADD MSTORE PUSH1 0x60 ADD SWAP1 JUMP JUMPDEST PUSH1 0x0 PUSH1 0x20 DUP3 MSTORE PUSH2 0x1380 PUSH1 0x20 DUP4 ADD DUP5 PUSH2 0x6BC9 JUMP JUMPDEST PUSH1 0x0 PUSH1 0x80 DUP3 MSTORE PUSH2 0x7196 PUSH1 0x80 DUP4 ADD DUP8 PUSH2 0x6BC9 JUMP JUMPDEST PUSH20 0xFFFFFFFFFFFFFFFFFFFFFFFFFFFFFFFFFFFFFFFF SWAP6 DUP7 AND PUSH1 0x20 DUP5 ADD MSTORE SWAP4 SWAP1 SWAP5 AND PUSH1 0x40 DUP3 ADD MSTORE PUSH1 0x60 ADD MSTORE SWAP3 SWAP2 POP POP JUMP JUMPDEST PUSH1 0x0 PUSH1 0x40 DUP3 MSTORE PUSH2 0x71D9 PUSH1 0x40 DUP4 ADD DUP6 PUSH2 0x6BC9 JUMP JUMPDEST DUP3 DUP2 SUB PUSH1 0x20 DUP5 ADD MSTORE PUSH2 0x1127 DUP2 DUP6 PUSH2 0x6B9A JUMP JUMPDEST PUSH1 0x0 PUSH20 0xFFFFFFFFFFFFFFFFFFFFFFFFFFFFFFFFFFFFFFFF DUP5 AND DUP3 MSTORE PUSH1 0x40 PUSH1 0x20 DUP4 ADD MSTORE PUSH2 0xD49 PUSH1 0x40 DUP4 ADD DUP5 PUSH2 0x6B9A JUMP JUMPDEST PUSH1 0x60 DUP2 ADD PUSH1 0x4 DUP6 LT PUSH2 0x7228 JUMPI INVALID JUMPDEST SWAP4 DUP2 MSTORE PUSH1 0x20 DUP2 ADD SWAP3 SWAP1 SWAP3 MSTORE PUSH1 0x40 SWAP1 SWAP2 ADD MSTORE SWAP1 JUMP JUMPDEST PUSH1 0x60 DUP2 ADD PUSH1 0x8 DUP6 LT PUSH2 0x7228 JUMPI INVALID JUMPDEST PUSH1 0xF SWAP4 DUP5 SIGNEXTEND DUP2 MSTORE SWAP2 SWAP1 SWAP3 SIGNEXTEND PUSH1 0x20 DUP3 ADD MSTORE PUSH1 0x40 DUP2 ADD SWAP2 SWAP1 SWAP2 MSTORE PUSH1 0x60 ADD SWAP1 JUMP JUMPDEST PUSH1 0xF DUP4 SWAP1 SIGNEXTEND DUP2 MSTORE PUSH1 0x80 DUP2 ADD PUSH2 0x1380 PUSH1 0x20 DUP4 ADD DUP5 PUSH2 0x6BF5 JUMP JUMPDEST PUSH1 0x20 DUP1 DUP3 MSTORE PUSH1 0x25 SWAP1 DUP3 ADD MSTORE PUSH32 0x455243323042726964676553616D706C65722F494E56414C49445F544F4B454E PUSH1 0x40 DUP3 ADD MSTORE PUSH32 0x5F50414952000000000000000000000000000000000000000000000000000000 PUSH1 0x60 DUP3 ADD MSTORE PUSH1 0x80 ADD SWAP1 JUMP JUMPDEST PUSH1 0x0 PUSH2 0x72E9 DUP3 DUP8 PUSH2 0x6BF5 JUMP JUMPDEST DUP5 PUSH1 0xF SIGNEXTEND PUSH1 0x60 DUP4 ADD MSTORE DUP4 PUSH1 0xF SIGNEXTEND PUSH1 0x80 DUP4 ADD MSTORE PUSH1 0xC0 PUSH1 0xA0 DUP4 ADD MSTORE PUSH2 0x51E2 PUSH1 0xC0 DUP4 ADD DUP5 PUSH2 0x6B9A JUMP JUMPDEST PUSH1 0x0 PUSH1 0x60 DUP3 MSTORE PUSH2 0x7322 PUSH1 0x60 DUP4 ADD DUP7 PUSH2 0x6C4C JUMP JUMPDEST DUP3 DUP2 SUB PUSH1 0x20 DUP5 ADD MSTORE PUSH2 0x7334 DUP2 DUP7 PUSH2 0x6C4C JUMP JUMPDEST SWAP2 POP POP DUP3 PUSH1 0x40 DUP4 ADD MSTORE SWAP5 SWAP4 POP POP POP POP JUMP JUMPDEST PUSH1 0x0 PUSH1 0x60 DUP3 MSTORE PUSH2 0x7359 PUSH1 0x60 DUP4 ADD DUP7 MLOAD PUSH2 0x6B30 JUMP JUMPDEST PUSH1 0x20 DUP6 ADD MLOAD PUSH2 0x736B PUSH1 0x80 DUP5 ADD DUP3 PUSH2 0x6B30 JUMP JUMPDEST POP PUSH1 0x40 DUP6 ADD MLOAD PUSH2 0x737E PUSH1 0xA0 DUP5 ADD DUP3 PUSH2 0x6B30 JUMP JUMPDEST POP PUSH1 0x60 DUP6 ADD MLOAD PUSH2 0x7391 PUSH1 0xC0 DUP5 ADD DUP3 PUSH2 0x6B30 JUMP JUMPDEST POP PUSH1 0x80 DUP6 ADD MLOAD PUSH1 0xE0 DUP4 ADD MSTORE PUSH1 0xA0 DUP6 ADD MLOAD PUSH2 0x100 DUP2 DUP2 DUP6 ADD MSTORE PUSH1 0xC0 DUP8 ADD MLOAD SWAP2 POP PUSH2 0x120 DUP3 DUP2 DUP7 ADD MSTORE PUSH1 0xE0 DUP9 ADD MLOAD SWAP3 POP PUSH2 0x140 DUP4 DUP2 DUP8 ADD MSTORE DUP3 DUP10 ADD MLOAD SWAP4 POP PUSH2 0x160 SWAP3 POP DUP4 DUP4 DUP8 ADD MSTORE DUP2 DUP10 ADD MLOAD SWAP4 POP PUSH2 0x180 SWAP2 POP DUP4 DUP3 DUP8 ADD MSTORE DUP1 DUP10 ADD MLOAD SWAP4 POP POP PUSH2 0x1C0 PUSH2 0x1A0 DUP2 DUP2 DUP9 ADD MSTORE PUSH2 0x7407 PUSH2 0x220 DUP9 ADD DUP7 PUSH2 0x6BC9 JUMP JUMPDEST SWAP5 POP DUP4 DUP11 ADD MLOAD SWAP4 POP PUSH32 0xFFFFFFFFFFFFFFFFFFFFFFFFFFFFFFFFFFFFFFFFFFFFFFFFFFFFFFFFFFFFFFA0 DUP1 DUP9 DUP8 SUB ADD DUP4 DUP10 ADD MSTORE PUSH2 0x7443 DUP7 DUP7 PUSH2 0x6BC9 JUMP JUMPDEST SWAP6 POP DUP4 DUP12 ADD MLOAD SWAP5 POP DUP1 DUP9 DUP8 SUB ADD PUSH2 0x1E0 DUP10 ADD MSTORE PUSH2 0x7460 DUP7 DUP7 PUSH2 0x6BC9 JUMP JUMPDEST SWAP6 POP DUP2 DUP12 ADD MLOAD SWAP5 POP DUP1 DUP9 DUP8 SUB ADD PUSH2 0x200 DUP10 ADD MSTORE POP POP POP POP PUSH2 0x7481 DUP3 DUP3 PUSH2 0x6BC9 JUMP JUMPDEST SWAP2 POP POP DUP3 DUP2 SUB PUSH1 0x20 DUP5 ADD MSTORE PUSH2 0x7496 DUP2 DUP7 PUSH2 0x6BC9 JUMP JUMPDEST SWAP2 POP POP PUSH2 0xD49 PUSH1 0x40 DUP4 ADD DUP5 PUSH2 0x6B30 JUMP JUMPDEST PUSH1 0x0 DUP4 DUP3 MSTORE PUSH1 0x40 PUSH1 0x20 DUP4 ADD MSTORE PUSH2 0xD49 PUSH1 0x40 DUP4 ADD DUP5 PUSH2 0x6B4A JUMP JUMPDEST SWAP2 DUP3 MSTORE PUSH1 0x20 DUP3 ADD MSTORE PUSH1 0x40 ADD SWAP1 JUMP JUMPDEST SWAP6 DUP7 MSTORE PUSH1 0x20 DUP7 ADD SWAP5 SWAP1 SWAP5 MSTORE PUSH1 0x40 DUP6 ADD SWAP3 SWAP1 SWAP3 MSTORE PUSH1 0x60 DUP5 ADD MSTORE PUSH1 0x80 DUP4 ADD MSTORE PUSH1 0xA0 DUP3 ADD MSTORE PUSH1 0xC0 ADD SWAP1 JUMP JUMPDEST PUSH1 0x0 DUP1 DUP4 CALLDATALOAD PUSH32 0xFFFFFFFFFFFFFFFFFFFFFFFFFFFFFFFFFFFFFFFFFFFFFFFFFFFFFFFFFFFFFFE1 DUP5 CALLDATASIZE SUB ADD DUP2 SLT PUSH2 0x7529 JUMPI DUP3 DUP4 REVERT JUMPDEST DUP4 ADD DUP1 CALLDATALOAD SWAP2 POP PUSH8 0xFFFFFFFFFFFFFFFF DUP3 GT ISZERO PUSH2 0x7543 JUMPI DUP3 DUP4 REVERT JUMPDEST PUSH1 0x20 ADD SWAP2 POP CALLDATASIZE DUP2 SWAP1 SUB DUP3 SGT ISZERO PUSH2 0x4D78 JUMPI PUSH1 0x0 DUP1 REVERT JUMPDEST PUSH1 0x40 MLOAD DUP2 DUP2 ADD PUSH8 0xFFFFFFFFFFFFFFFF DUP2 GT DUP3 DUP3 LT OR ISZERO PUSH2 0x7577 JUMPI PUSH1 0x0 DUP1 REVERT JUMPDEST PUSH1 0x40 MSTORE SWAP2 SWAP1 POP JUMP JUMPDEST PUSH1 0x0 PUSH8 0xFFFFFFFFFFFFFFFF DUP3 GT ISZERO PUSH2 0x7595 JUMPI DUP1 DUP2 REVERT JUMPDEST POP PUSH1 0x20 SWAP1 DUP2 MUL ADD SWAP1 JUMP JUMPDEST PUSH1 0x0 PUSH8 0xFFFFFFFFFFFFFFFF DUP3 GT ISZERO PUSH2 0x75B5 JUMPI DUP1 DUP2 REVERT JUMPDEST POP PUSH1 0x1F ADD PUSH1 0x1F NOT AND PUSH1 0x20 ADD SWAP1 JUMP JUMPDEST DUP1 PUSH1 0x4 DUP2 LT PUSH2 0x4EF6 JUMPI INVALID JUMPDEST PUSH1 0x0 JUMPDEST DUP4 DUP2 LT ISZERO PUSH2 0x75E9 JUMPI DUP2 DUP2 ADD MLOAD DUP4 DUP3 ADD MSTORE PUSH1 0x20 ADD PUSH2 0x75D1 JUMP JUMPDEST DUP4 DUP2 GT ISZERO PUSH2 0x75F8 JUMPI PUSH1 0x0 DUP5 DUP5 ADD MSTORE JUMPDEST POP POP POP POP JUMP JUMPDEST PUSH20 0xFFFFFFFFFFFFFFFFFFFFFFFFFFFFFFFFFFFFFFFF DUP2 AND DUP2 EQ PUSH2 0xB69 JUMPI PUSH1 0x0 DUP1 REVERT JUMPDEST DUP1 ISZERO ISZERO DUP2 EQ PUSH2 0xB69 JUMPI PUSH1 0x0 DUP1 REVERT JUMPDEST PUSH32 0xFFFFFFFF00000000000000000000000000000000000000000000000000000000 DUP2 AND DUP2 EQ PUSH2 0xB69 JUMPI PUSH1 0x0 DUP1 REVERT JUMPDEST DUP1 PUSH1 0xF SIGNEXTEND DUP2 EQ PUSH2 0xB69 JUMPI PUSH1 0x0 DUP1 REVERT INVALID LOG2 PUSH5 0x6970667358 0x22 SLT KECCAK256 BALANCE 0xE6 0xE0 DUP15 PUSH10 0xED71265021AC9BB07E29 COINBASE 0xA6 DUP15 PUSH5 0x8E8560BEBE RETURNDATACOPY 0xE4 DIFFICULTY 0x25 SWAP15 0xB1 PUSH6 0x5B64736F6C63 NUMBER STOP MOD 0xC STOP CALLER PUSH1 0x80 PUSH1 0x40 MSTORE CALLVALUE DUP1 ISZERO PUSH2 0x10 JUMPI PUSH1 0x0 DUP1 REVERT JUMPDEST POP PUSH2 0x8B0 DUP1 PUSH2 0x20 PUSH1 0x0 CODECOPY PUSH1 0x0 RETURN INVALID PUSH1 0x80 PUSH1 0x40 MSTORE CALLVALUE DUP1 ISZERO PUSH2 0x10 JUMPI PUSH1 0x0 DUP1 REVERT JUMPDEST POP PUSH1 0x4 CALLDATASIZE LT PUSH2 0x36 JUMPI PUSH1 0x0 CALLDATALOAD PUSH1 0xE0 SHR DUP1 PUSH4 0x6F2BF62 EQ PUSH2 0x3B JUMPI DUP1 PUSH4 0x31268657 EQ PUSH2 0x64 JUMPI JUMPDEST PUSH1 0x0 DUP1 REVERT JUMPDEST PUSH2 0x4E PUSH2 0x49 CALLDATASIZE PUSH1 0x4 PUSH2 0x173 JUMP JUMPDEST PUSH2 0x79 JUMP JUMPDEST PUSH1 0x40 MLOAD PUSH2 0x5B SWAP2 SWAP1 PUSH2 0x21D JUMP JUMPDEST PUSH1 0x40 MLOAD DUP1 SWAP2 SUB SWAP1 RETURN JUMPDEST PUSH2 0x77 PUSH2 0x72 CALLDATASIZE PUSH1 0x4 PUSH2 0x1AE JUMP JUMPDEST PUSH2 0xA4 JUMP JUMPDEST STOP JUMPDEST PUSH20 0xFFFFFFFFFFFFFFFFFFFFFFFFFFFFFFFFFFFFFFFF SWAP1 DUP2 AND PUSH1 0x0 SWAP1 DUP2 MSTORE PUSH1 0x20 DUP2 SWAP1 MSTORE PUSH1 0x40 SWAP1 KECCAK256 SLOAD AND SWAP1 JUMP JUMPDEST PUSH1 0x0 JUMPDEST DUP2 DUP2 LT ISZERO PUSH2 0x161 JUMPI PUSH1 0x0 DUP4 DUP4 DUP4 DUP2 DUP2 LT PUSH2 0xBD JUMPI INVALID JUMPDEST SWAP1 POP PUSH1 0x20 MUL ADD PUSH1 0x20 DUP2 ADD SWAP1 PUSH2 0xD2 SWAP2 SWAP1 PUSH2 0x173 JUMP JUMPDEST SWAP1 POP DUP1 PUSH1 0x40 MLOAD PUSH2 0xE1 SWAP1 PUSH2 0x166 JUMP JUMPDEST PUSH2 0xEB SWAP2 SWAP1 PUSH2 0x21D JUMP JUMPDEST PUSH1 0x40 MLOAD DUP1 SWAP2 SUB SWAP1 PUSH1 0x0 CREATE DUP1 ISZERO DUP1 ISZERO PUSH2 0x107 JUMPI RETURNDATASIZE PUSH1 0x0 DUP1 RETURNDATACOPY RETURNDATASIZE PUSH1 0x0 REVERT JUMPDEST POP PUSH20 0xFFFFFFFFFFFFFFFFFFFFFFFFFFFFFFFFFFFFFFFF SWAP2 DUP3 AND PUSH1 0x0 SWAP1 DUP2 MSTORE PUSH1 0x20 DUP2 SWAP1 MSTORE PUSH1 0x40 SWAP1 KECCAK256 DUP1 SLOAD PUSH32 0xFFFFFFFFFFFFFFFFFFFFFFFF0000000000000000000000000000000000000000 AND SWAP2 SWAP1 SWAP3 AND OR SWAP1 SSTORE PUSH1 0x1 ADD PUSH2 0xA7 JUMP JUMPDEST POP POP POP JUMP JUMPDEST PUSH2 0x63C DUP1 PUSH2 0x23F DUP4 CODECOPY ADD SWAP1 JUMP JUMPDEST PUSH1 0x0 PUSH1 0x20 DUP3 DUP5 SUB SLT ISZERO PUSH2 0x184 JUMPI DUP1 DUP2 REVERT JUMPDEST DUP2 CALLDATALOAD PUSH20 0xFFFFFFFFFFFFFFFFFFFFFFFFFFFFFFFFFFFFFFFF DUP2 AND DUP2 EQ PUSH2 0x1A7 JUMPI DUP2 DUP3 REVERT JUMPDEST SWAP4 SWAP3 POP POP POP JUMP JUMPDEST PUSH1 0x0 DUP1 PUSH1 0x20 DUP4 DUP6 SUB SLT ISZERO PUSH2 0x1C0 JUMPI DUP1 DUP2 REVERT JUMPDEST DUP3 CALLDATALOAD PUSH8 0xFFFFFFFFFFFFFFFF DUP1 DUP3 GT ISZERO PUSH2 0x1D7 JUMPI DUP3 DUP4 REVERT JUMPDEST DUP2 DUP6 ADD SWAP2 POP DUP6 PUSH1 0x1F DUP4 ADD SLT PUSH2 0x1EA JUMPI DUP3 DUP4 REVERT JUMPDEST DUP2 CALLDATALOAD DUP2 DUP2 GT ISZERO PUSH2 0x1F8 JUMPI DUP4 DUP5 REVERT JUMPDEST DUP7 PUSH1 0x20 DUP1 DUP4 MUL DUP6 ADD ADD GT ISZERO PUSH2 0x20B JUMPI DUP4 DUP5 REVERT JUMPDEST PUSH1 0x20 SWAP3 SWAP1 SWAP3 ADD SWAP7 SWAP2 SWAP6 POP SWAP1 SWAP4 POP POP POP POP JUMP JUMPDEST PUSH20 0xFFFFFFFFFFFFFFFFFFFFFFFFFFFFFFFFFFFFFFFF SWAP2 SWAP1 SWAP2 AND DUP2 MSTORE PUSH1 0x20 ADD SWAP1 JUMP INVALID PUSH1 0x80 PUSH1 0x40 MSTORE CALLVALUE DUP1 ISZERO PUSH2 0x10 JUMPI PUSH1 0x0 DUP1 REVERT JUMPDEST POP PUSH1 0x40 MLOAD PUSH2 0x63C CODESIZE SUB DUP1 PUSH2 0x63C DUP4 CODECOPY DUP2 ADD PUSH1 0x40 DUP2 SWAP1 MSTORE PUSH2 0x2F SWAP2 PUSH2 0x9E JUMP JUMPDEST PUSH1 0x0 DUP1 SLOAD PUSH1 0x1 PUSH1 0x1 PUSH1 0xA0 SHL SUB NOT AND PUSH1 0x1 PUSH1 0x1 PUSH1 0xA0 SHL SUB DUP4 AND OR SWAP1 SSTORE PUSH1 0x40 MLOAD PUSH2 0x7D SWAP1 PUSH32 0x1D6A6A0506B0B4A554B907A4C29D9F4674E461989D9C1921FEB17B26716385AB SWAP1 DUP4 SWAP1 PUSH1 0x20 ADD PUSH2 0xCC JUMP JUMPDEST PUSH1 0x40 DUP1 MLOAD PUSH1 0x1F NOT DUP2 DUP5 SUB ADD DUP2 MSTORE SWAP2 SWAP1 MSTORE DUP1 MLOAD PUSH1 0x20 SWAP1 SWAP2 ADD KECCAK256 PUSH1 0x1 SSTORE POP PUSH2 0xE7 JUMP JUMPDEST PUSH1 0x0 PUSH1 0x20 DUP3 DUP5 SUB SLT ISZERO PUSH2 0xAF JUMPI DUP1 DUP2 REVERT JUMPDEST DUP2 MLOAD PUSH1 0x1 PUSH1 0x1 PUSH1 0xA0 SHL SUB DUP2 AND DUP2 EQ PUSH2 0xC5 JUMPI DUP2 DUP3 REVERT JUMPDEST SWAP4 SWAP3 POP POP POP JUMP JUMPDEST SWAP2 DUP3 MSTORE PUSH1 0x60 SHL PUSH1 0x1 PUSH1 0x1 PUSH1 0x60 SHL SUB NOT AND PUSH1 0x20 DUP3 ADD MSTORE PUSH1 0x34 ADD SWAP1 JUMP JUMPDEST PUSH2 0x546 DUP1 PUSH2 0xF6 PUSH1 0x0 CODECOPY PUSH1 0x0 RETURN INVALID PUSH1 0x80 PUSH1 0x40 MSTORE PUSH1 0x4 CALLDATASIZE LT PUSH2 0x7B JUMPI PUSH1 0x0 CALLDATALOAD PUSH1 0xE0 SHR DUP1 PUSH4 0x9D76EA58 GT PUSH2 0x4E JUMPI DUP1 PUSH4 0x9D76EA58 EQ PUSH2 0xE0 JUMPI DUP1 PUSH4 0xBFA0B133 EQ PUSH2 0x102 JUMPI DUP1 PUSH4 0xCD72D789 EQ PUSH2 0x117 JUMPI DUP1 PUSH4 0xCD7724C3 EQ PUSH2 0xC0 JUMPI PUSH2 0x7B JUMP JUMPDEST DUP1 PUSH4 0x11F2928B EQ PUSH2 0x80 JUMPI DUP1 PUSH4 0x2640F62C EQ PUSH2 0x8A JUMPI DUP1 PUSH4 0x59E94862 EQ PUSH2 0x8A JUMPI DUP1 PUSH4 0x95B68FE7 EQ PUSH2 0xC0 JUMPI JUMPDEST PUSH1 0x0 DUP1 REVERT JUMPDEST PUSH2 0x88 PUSH2 0x12C JUMP JUMPDEST STOP JUMPDEST CALLVALUE DUP1 ISZERO PUSH2 0x96 JUMPI PUSH1 0x0 DUP1 REVERT JUMPDEST POP PUSH2 0xAA PUSH2 0xA5 CALLDATASIZE PUSH1 0x4 PUSH2 0x429 JUMP JUMPDEST PUSH2 0x16F JUMP JUMPDEST PUSH1 0x40 MLOAD PUSH2 0xB7 SWAP2 SWAP1 PUSH2 0x4D0 JUMP JUMPDEST PUSH1 0x40 MLOAD DUP1 SWAP2 SUB SWAP1 RETURN JUMPDEST CALLVALUE DUP1 ISZERO PUSH2 0xCC JUMPI PUSH1 0x0 DUP1 REVERT JUMPDEST POP PUSH2 0xAA PUSH2 0xDB CALLDATASIZE PUSH1 0x4 PUSH2 0x429 JUMP JUMPDEST PUSH2 0x1AE JUMP JUMPDEST CALLVALUE DUP1 ISZERO PUSH2 0xEC JUMPI PUSH1 0x0 DUP1 REVERT JUMPDEST POP PUSH2 0xF5 PUSH2 0x1E7 JUMP JUMPDEST PUSH1 0x40 MLOAD PUSH2 0xB7 SWAP2 SWAP1 PUSH2 0x4AF JUMP JUMPDEST CALLVALUE DUP1 ISZERO PUSH2 0x10E JUMPI PUSH1 0x0 DUP1 REVERT JUMPDEST POP PUSH2 0xAA PUSH2 0x203 JUMP JUMPDEST CALLVALUE DUP1 ISZERO PUSH2 0x123 JUMPI PUSH1 0x0 DUP1 REVERT JUMPDEST POP PUSH2 0xF5 PUSH2 0x209 JUMP JUMPDEST PUSH1 0x40 MLOAD PUSH20 0xE9DB8717BC5DFB20AAF538B4A5A02B7791FF430C SWAP1 CALLVALUE DUP1 ISZERO PUSH2 0x8FC MUL SWAP2 PUSH1 0x0 DUP2 DUP2 DUP2 DUP6 DUP9 DUP9 CALL SWAP4 POP POP POP POP ISZERO DUP1 ISZERO PUSH2 0x16C JUMPI RETURNDATASIZE PUSH1 0x0 DUP1 RETURNDATACOPY RETURNDATASIZE PUSH1 0x0 REVERT JUMPDEST POP JUMP JUMPDEST PUSH1 0x0 PUSH2 0x179 PUSH2 0x221 JUMP JUMPDEST PUSH2 0x1A6 PUSH1 0x1 SLOAD PUSH2 0x187 PUSH2 0x279 JUMP JUMPDEST PUSH1 0x0 SLOAD PUSH20 0xFFFFFFFFFFFFFFFFFFFFFFFFFFFFFFFFFFFFFFFF AND DUP6 PUSH2 0x291 JUMP JUMPDEST SWAP1 POP JUMPDEST SWAP2 SWAP1 POP JUMP JUMPDEST PUSH1 0x0 PUSH2 0x1B8 PUSH2 0x221 JUMP JUMPDEST PUSH1 0x1 SLOAD PUSH1 0x0 SLOAD PUSH2 0x1A6 SWAP2 SWAP1 PUSH20 0xFFFFFFFFFFFFFFFFFFFFFFFFFFFFFFFFFFFFFFFF AND PUSH2 0x1E1 PUSH2 0x279 JUMP JUMPDEST DUP6 PUSH2 0x2F2 JUMP JUMPDEST PUSH1 0x0 SLOAD PUSH20 0xFFFFFFFFFFFFFFFFFFFFFFFFFFFFFFFFFFFFFFFF AND DUP2 JUMP JUMPDEST PUSH1 0x1 SLOAD DUP2 JUMP JUMPDEST PUSH20 0xE9DB8717BC5DFB20AAF538B4A5A02B7791FF430C DUP2 JUMP JUMPDEST PUSH20 0xE9DB8717BC5DFB20AAF538B4A5A02B7791FF430C BALANCE ISZERO PUSH2 0x277 JUMPI PUSH1 0x40 MLOAD PUSH32 0x8C379A000000000000000000000000000000000000000000000000000000000 DUP2 MSTORE PUSH1 0x4 ADD PUSH2 0x26E SWAP1 PUSH2 0x4D9 JUMP JUMPDEST PUSH1 0x40 MLOAD DUP1 SWAP2 SUB SWAP1 REVERT JUMPDEST JUMP JUMPDEST PUSH20 0xC02AAA39B223FE8D0A0E5C4F27EAD9083C756CC2 SWAP1 JUMP JUMPDEST PUSH1 0x0 DUP1 PUSH2 0x29D DUP6 PUSH2 0x33E JUMP JUMPDEST PUSH1 0xFF AND PUSH1 0xA EXP SWAP1 POP PUSH1 0x0 PUSH2 0x2B0 DUP6 PUSH2 0x33E JUMP JUMPDEST PUSH1 0xFF AND PUSH1 0xA EXP SWAP1 POP PUSH1 0x0 PUSH2 0x2C5 DUP9 DUP9 DUP9 PUSH2 0x3D0 JUMP JUMPDEST SWAP1 POP DUP2 DUP2 DUP5 PUSH8 0xDE0B6B3A7640000 DUP9 MUL MUL DUP2 PUSH2 0x2DD JUMPI INVALID JUMPDEST DIV DUP2 PUSH2 0x2E5 JUMPI INVALID JUMPDEST DIV SWAP9 SWAP8 POP POP POP POP POP POP POP POP JUMP JUMPDEST PUSH1 0x0 DUP1 PUSH2 0x2FE DUP6 PUSH2 0x33E JUMP JUMPDEST PUSH1 0xFF AND PUSH1 0xA EXP SWAP1 POP PUSH1 0x0 PUSH2 0x311 DUP6 PUSH2 0x33E JUMP JUMPDEST PUSH1 0xFF AND PUSH1 0xA EXP SWAP1 POP PUSH1 0x0 PUSH2 0x326 DUP9 DUP9 DUP9 PUSH2 0x3D0 JUMP JUMPDEST SWAP1 POP PUSH8 0xDE0B6B3A7640000 DUP4 DUP4 DUP4 DUP9 MUL MUL DUP2 PUSH2 0x2DD JUMPI INVALID JUMPDEST PUSH1 0x0 PUSH20 0xFFFFFFFFFFFFFFFFFFFFFFFFFFFFFFFFFFFFFFFF DUP3 AND PUSH20 0xC02AAA39B223FE8D0A0E5C4F27EAD9083C756CC2 EQ ISZERO PUSH2 0x37A JUMPI POP PUSH1 0x12 PUSH2 0x1A9 JUMP JUMPDEST PUSH1 0x0 DUP3 PUSH1 0x40 MLOAD PUSH1 0x20 ADD PUSH2 0x38D SWAP2 SWAP1 PUSH2 0x441 JUMP JUMPDEST PUSH1 0x40 DUP1 MLOAD DUP1 DUP4 SUB PUSH32 0xFFFFFFFFFFFFFFFFFFFFFFFFFFFFFFFFFFFFFFFFFFFFFFFFFFFFFFFFFFFFFFE0 ADD DUP2 MSTORE SWAP2 SWAP1 MSTORE DUP1 MLOAD PUSH1 0x20 SWAP1 SWAP2 ADD KECCAK256 PUSH1 0xF AND PUSH1 0x4 ADD SWAP4 SWAP3 POP POP POP JUMP JUMPDEST PUSH1 0x0 DUP1 DUP5 DUP5 DUP5 PUSH1 0x40 MLOAD PUSH1 0x20 ADD PUSH2 0x3E8 SWAP4 SWAP3 SWAP2 SWAP1 PUSH2 0x471 JUMP JUMPDEST PUSH1 0x40 MLOAD PUSH1 0x20 DUP2 DUP4 SUB SUB DUP2 MSTORE SWAP1 PUSH1 0x40 MSTORE DUP1 MLOAD SWAP1 PUSH1 0x20 ADD KECCAK256 SWAP1 POP PUSH1 0x64 PUSH8 0xDE0B6B3A7640000 DUP2 PUSH2 0x412 JUMPI INVALID JUMPDEST DIV PUSH9 0x56BA3D73AF34F0000 DUP3 MOD ADD SWAP6 SWAP5 POP POP POP POP POP JUMP JUMPDEST PUSH1 0x0 PUSH1 0x20 DUP3 DUP5 SUB SLT ISZERO PUSH2 0x43A JUMPI DUP1 DUP2 REVERT JUMPDEST POP CALLDATALOAD SWAP2 SWAP1 POP JUMP JUMPDEST PUSH1 0x60 SWAP2 SWAP1 SWAP2 SHL PUSH32 0xFFFFFFFFFFFFFFFFFFFFFFFFFFFFFFFFFFFFFFFF000000000000000000000000 AND DUP2 MSTORE PUSH1 0x14 ADD SWAP1 JUMP JUMPDEST SWAP3 DUP4 MSTORE PUSH32 0xFFFFFFFFFFFFFFFFFFFFFFFFFFFFFFFFFFFFFFFF000000000000000000000000 PUSH1 0x60 SWAP3 DUP4 SHL DUP2 AND PUSH1 0x20 DUP6 ADD MSTORE SWAP2 SHL AND PUSH1 0x34 DUP3 ADD MSTORE PUSH1 0x48 ADD SWAP1 JUMP JUMPDEST PUSH20 0xFFFFFFFFFFFFFFFFFFFFFFFFFFFFFFFFFFFFFFFF SWAP2 SWAP1 SWAP2 AND DUP2 MSTORE PUSH1 0x20 ADD SWAP1 JUMP JUMPDEST SWAP1 DUP2 MSTORE PUSH1 0x20 ADD SWAP1 JUMP JUMPDEST PUSH1 0x20 DUP1 DUP3 MSTORE PUSH1 0xE SWAP1 DUP3 ADD MSTORE PUSH32 0x4641494C5F545249474745524544000000000000000000000000000000000000 PUSH1 0x40 DUP3 ADD MSTORE PUSH1 0x60 ADD SWAP1 JUMP INVALID LOG2 PUSH5 0x6970667358 0x22 SLT KECCAK256 0x25 SWAP16 DUP3 DUP5 0xE0 SWAP9 PUSH12 0xE532D1994D98C719E5CAB8C5 0xCB 0xAD 0xDB 0xC6 SWAP9 0xBE PUSH25 0x1400504E864464736F6C634300060C0033A264697066735822 SLT KECCAK256 0xED LOG3 KECCAK256 0xC8 DUP6 0xB7 PUSH9 0x4A02F0B2EB85F2E74E 0xE2 0x23 CALLER PUSH20 0x6EAFD785C3CD2E5B999A9FA64736F6C63430006 0xC STOP CALLER PUSH1 0x80 PUSH1 0x40 MSTORE CALLVALUE DUP1 ISZERO PUSH2 0x10 JUMPI PUSH1 0x0 DUP1 REVERT JUMPDEST POP PUSH2 0x86D DUP1 PUSH2 0x20 PUSH1 0x0 CODECOPY PUSH1 0x0 RETURN INVALID PUSH1 0x80 PUSH1 0x40 MSTORE PUSH1 0x4 CALLDATASIZE LT PUSH2 0x3F JUMPI PUSH1 0x0 CALLDATALOAD PUSH1 0xE0 SHR DUP1 PUSH4 0x11F2928B EQ PUSH2 0x44 JUMPI DUP1 PUSH4 0x1F00CA74 EQ PUSH2 0x4E JUMPI DUP1 PUSH4 0xCD72D789 EQ PUSH2 0x84 JUMPI DUP1 PUSH4 0xD06CA61F EQ PUSH2 0xA6 JUMPI JUMPDEST PUSH1 0x0 DUP1 REVERT JUMPDEST PUSH2 0x4C PUSH2 0xC6 JUMP JUMPDEST STOP JUMPDEST CALLVALUE DUP1 ISZERO PUSH2 0x5A JUMPI PUSH1 0x0 DUP1 REVERT JUMPDEST POP PUSH2 0x6E PUSH2 0x69 CALLDATASIZE PUSH1 0x4 PUSH2 0x67D JUMP JUMPDEST PUSH2 0x109 JUMP JUMPDEST PUSH1 0x40 MLOAD PUSH2 0x7B SWAP2 SWAP1 PUSH2 0x785 JUMP JUMPDEST PUSH1 0x40 MLOAD DUP1 SWAP2 SUB SWAP1 RETURN JUMPDEST CALLVALUE DUP1 ISZERO PUSH2 0x90 JUMPI PUSH1 0x0 DUP1 REVERT JUMPDEST POP PUSH2 0x99 PUSH2 0x2CD JUMP JUMPDEST PUSH1 0x40 MLOAD PUSH2 0x7B SWAP2 SWAP1 PUSH2 0x764 JUMP JUMPDEST CALLVALUE DUP1 ISZERO PUSH2 0xB2 JUMPI PUSH1 0x0 DUP1 REVERT JUMPDEST POP PUSH2 0x6E PUSH2 0xC1 CALLDATASIZE PUSH1 0x4 PUSH2 0x67D JUMP JUMPDEST PUSH2 0x2E5 JUMP JUMPDEST PUSH1 0x40 MLOAD PUSH20 0xE9DB8717BC5DFB20AAF538B4A5A02B7791FF430C SWAP1 CALLVALUE DUP1 ISZERO PUSH2 0x8FC MUL SWAP2 PUSH1 0x0 DUP2 DUP2 DUP2 DUP6 DUP9 DUP9 CALL SWAP4 POP POP POP POP ISZERO DUP1 ISZERO PUSH2 0x106 JUMPI RETURNDATASIZE PUSH1 0x0 DUP1 RETURNDATACOPY RETURNDATASIZE PUSH1 0x0 REVERT JUMPDEST POP JUMP JUMPDEST PUSH1 0x60 PUSH1 0x2 DUP3 LT ISZERO PUSH2 0x14F JUMPI PUSH1 0x40 MLOAD PUSH32 0x8C379A000000000000000000000000000000000000000000000000000000000 DUP2 MSTORE PUSH1 0x4 ADD PUSH2 0x146 SWAP1 PUSH2 0x800 JUMP JUMPDEST PUSH1 0x40 MLOAD DUP1 SWAP2 SUB SWAP1 REVERT JUMPDEST PUSH2 0x157 PUSH2 0x459 JUMP JUMPDEST DUP2 PUSH8 0xFFFFFFFFFFFFFFFF DUP2 GT DUP1 ISZERO PUSH2 0x16E JUMPI PUSH1 0x0 DUP1 REVERT JUMPDEST POP PUSH1 0x40 MLOAD SWAP1 DUP1 DUP3 MSTORE DUP1 PUSH1 0x20 MUL PUSH1 0x20 ADD DUP3 ADD PUSH1 0x40 MSTORE DUP1 ISZERO PUSH2 0x198 JUMPI DUP2 PUSH1 0x20 ADD PUSH1 0x20 DUP3 MUL DUP1 CALLDATASIZE DUP4 CALLDATACOPY ADD SWAP1 POP JUMPDEST POP SWAP1 POP DUP4 DUP2 PUSH1 0x1 DUP6 DUP6 SWAP1 POP SUB DUP2 MLOAD DUP2 LT PUSH2 0x1AE JUMPI INVALID JUMPDEST PUSH1 0x20 SWAP1 DUP2 MUL SWAP2 SWAP1 SWAP2 ADD ADD MSTORE PUSH32 0xFFFFFFFFFFFFFFFFFFFFFFFFFFFFFFFFFFFFFFFFFFFFFFFFFFFFFFFFFFFFFFFF DUP3 ADD JUMPDEST DUP1 ISZERO PUSH2 0x2C5 JUMPI PUSH2 0x284 PUSH32 0xADC7FCB33C735913B8635927E66896B356A53A912AB2CEFF929E60A04B53B3C1 DUP6 DUP6 PUSH32 0xFFFFFFFFFFFFFFFFFFFFFFFFFFFFFFFFFFFFFFFFFFFFFFFFFFFFFFFFFFFFFFFF DUP6 ADD DUP2 DUP2 LT PUSH2 0x235 JUMPI INVALID JUMPDEST SWAP1 POP PUSH1 0x20 MUL ADD PUSH1 0x20 DUP2 ADD SWAP1 PUSH2 0x24A SWAP2 SWAP1 PUSH2 0x642 JUMP JUMPDEST DUP7 DUP7 DUP6 DUP2 DUP2 LT PUSH2 0x256 JUMPI INVALID JUMPDEST SWAP1 POP PUSH1 0x20 MUL ADD PUSH1 0x20 DUP2 ADD SWAP1 PUSH2 0x26B SWAP2 SWAP1 PUSH2 0x642 JUMP JUMPDEST DUP6 DUP6 DUP2 MLOAD DUP2 LT PUSH2 0x277 JUMPI INVALID JUMPDEST PUSH1 0x20 MUL PUSH1 0x20 ADD ADD MLOAD PUSH2 0x4A8 JUMP JUMPDEST DUP3 PUSH1 0x1 DUP4 SUB DUP2 MLOAD DUP2 LT PUSH2 0x293 JUMPI INVALID JUMPDEST PUSH1 0x20 SWAP1 DUP2 MUL SWAP2 SWAP1 SWAP2 ADD ADD MSTORE PUSH32 0xFFFFFFFFFFFFFFFFFFFFFFFFFFFFFFFFFFFFFFFFFFFFFFFFFFFFFFFFFFFFFFFF ADD PUSH2 0x1DD JUMP JUMPDEST POP SWAP4 SWAP3 POP POP POP JUMP JUMPDEST PUSH20 0xE9DB8717BC5DFB20AAF538B4A5A02B7791FF430C DUP2 JUMP JUMPDEST PUSH1 0x60 PUSH1 0x2 DUP3 LT ISZERO PUSH2 0x322 JUMPI PUSH1 0x40 MLOAD PUSH32 0x8C379A000000000000000000000000000000000000000000000000000000000 DUP2 MSTORE PUSH1 0x4 ADD PUSH2 0x146 SWAP1 PUSH2 0x800 JUMP JUMPDEST PUSH2 0x32A PUSH2 0x459 JUMP JUMPDEST DUP2 PUSH8 0xFFFFFFFFFFFFFFFF DUP2 GT DUP1 ISZERO PUSH2 0x341 JUMPI PUSH1 0x0 DUP1 REVERT JUMPDEST POP PUSH1 0x40 MLOAD SWAP1 DUP1 DUP3 MSTORE DUP1 PUSH1 0x20 MUL PUSH1 0x20 ADD DUP3 ADD PUSH1 0x40 MSTORE DUP1 ISZERO PUSH2 0x36B JUMPI DUP2 PUSH1 0x20 ADD PUSH1 0x20 DUP3 MUL DUP1 CALLDATASIZE DUP4 CALLDATACOPY ADD SWAP1 POP JUMPDEST POP SWAP1 POP DUP4 DUP2 PUSH1 0x0 DUP2 MLOAD DUP2 LT PUSH2 0x37C JUMPI INVALID JUMPDEST PUSH1 0x20 MUL PUSH1 0x20 ADD ADD DUP2 DUP2 MSTORE POP POP PUSH1 0x0 JUMPDEST PUSH32 0xFFFFFFFFFFFFFFFFFFFFFFFFFFFFFFFFFFFFFFFFFFFFFFFFFFFFFFFFFFFFFFFF DUP4 ADD DUP2 LT ISZERO PUSH2 0x2C5 JUMPI PUSH2 0x437 PUSH32 0xADC7FCB33C735913B8635927E66896B356A53A912AB2CEFF929E60A04B53B3C1 DUP6 DUP6 DUP5 DUP2 DUP2 LT PUSH2 0x3E5 JUMPI INVALID JUMPDEST SWAP1 POP PUSH1 0x20 MUL ADD PUSH1 0x20 DUP2 ADD SWAP1 PUSH2 0x3FA SWAP2 SWAP1 PUSH2 0x642 JUMP JUMPDEST DUP7 DUP7 DUP6 PUSH1 0x1 ADD DUP2 DUP2 LT PUSH2 0x409 JUMPI INVALID JUMPDEST SWAP1 POP PUSH1 0x20 MUL ADD PUSH1 0x20 DUP2 ADD SWAP1 PUSH2 0x41E SWAP2 SWAP1 PUSH2 0x642 JUMP JUMPDEST DUP6 DUP6 DUP2 MLOAD DUP2 LT PUSH2 0x42A JUMPI INVALID JUMPDEST PUSH1 0x20 MUL PUSH1 0x20 ADD ADD MLOAD PUSH2 0x509 JUMP JUMPDEST DUP3 DUP3 PUSH1 0x1 ADD DUP2 MLOAD DUP2 LT PUSH2 0x446 JUMPI INVALID JUMPDEST PUSH1 0x20 SWAP1 DUP2 MUL SWAP2 SWAP1 SWAP2 ADD ADD MSTORE PUSH1 0x1 ADD PUSH2 0x38B JUMP JUMPDEST PUSH20 0xE9DB8717BC5DFB20AAF538B4A5A02B7791FF430C BALANCE ISZERO PUSH2 0x4A6 JUMPI PUSH1 0x40 MLOAD PUSH32 0x8C379A000000000000000000000000000000000000000000000000000000000 DUP2 MSTORE PUSH1 0x4 ADD PUSH2 0x146 SWAP1 PUSH2 0x7C9 JUMP JUMPDEST JUMP JUMPDEST PUSH1 0x0 DUP1 PUSH2 0x4B4 DUP6 PUSH2 0x555 JUMP JUMPDEST PUSH1 0xFF AND PUSH1 0xA EXP SWAP1 POP PUSH1 0x0 PUSH2 0x4C7 DUP6 PUSH2 0x555 JUMP JUMPDEST PUSH1 0xFF AND PUSH1 0xA EXP SWAP1 POP PUSH1 0x0 PUSH2 0x4DC DUP9 DUP9 DUP9 PUSH2 0x5E9 JUMP JUMPDEST SWAP1 POP DUP2 DUP2 DUP5 PUSH8 0xDE0B6B3A7640000 DUP9 MUL MUL DUP2 PUSH2 0x4F4 JUMPI INVALID JUMPDEST DIV DUP2 PUSH2 0x4FC JUMPI INVALID JUMPDEST DIV SWAP9 SWAP8 POP POP POP POP POP POP POP POP JUMP JUMPDEST PUSH1 0x0 DUP1 PUSH2 0x515 DUP6 PUSH2 0x555 JUMP JUMPDEST PUSH1 0xFF AND PUSH1 0xA EXP SWAP1 POP PUSH1 0x0 PUSH2 0x528 DUP6 PUSH2 0x555 JUMP JUMPDEST PUSH1 0xFF AND PUSH1 0xA EXP SWAP1 POP PUSH1 0x0 PUSH2 0x53D DUP9 DUP9 DUP9 PUSH2 0x5E9 JUMP JUMPDEST SWAP1 POP PUSH8 0xDE0B6B3A7640000 DUP4 DUP4 DUP4 DUP9 MUL MUL DUP2 PUSH2 0x4F4 JUMPI INVALID JUMPDEST PUSH1 0x0 PUSH20 0xFFFFFFFFFFFFFFFFFFFFFFFFFFFFFFFFFFFFFFFF DUP3 AND PUSH20 0xC02AAA39B223FE8D0A0E5C4F27EAD9083C756CC2 EQ ISZERO PUSH2 0x591 JUMPI POP PUSH1 0x12 PUSH2 0x5E4 JUMP JUMPDEST PUSH1 0x0 DUP3 PUSH1 0x40 MLOAD PUSH1 0x20 ADD PUSH2 0x5A4 SWAP2 SWAP1 PUSH2 0x6F6 JUMP JUMPDEST PUSH1 0x40 DUP1 MLOAD DUP1 DUP4 SUB PUSH32 0xFFFFFFFFFFFFFFFFFFFFFFFFFFFFFFFFFFFFFFFFFFFFFFFFFFFFFFFFFFFFFFE0 ADD DUP2 MSTORE SWAP2 SWAP1 MSTORE DUP1 MLOAD PUSH1 0x20 SWAP1 SWAP2 ADD KECCAK256 PUSH1 0xF AND PUSH1 0x4 ADD SWAP2 POP POP JUMPDEST SWAP2 SWAP1 POP JUMP JUMPDEST PUSH1 0x0 DUP1 DUP5 DUP5 DUP5 PUSH1 0x40 MLOAD PUSH1 0x20 ADD PUSH2 0x601 SWAP4 SWAP3 SWAP2 SWAP1 PUSH2 0x726 JUMP JUMPDEST PUSH1 0x40 MLOAD PUSH1 0x20 DUP2 DUP4 SUB SUB DUP2 MSTORE SWAP1 PUSH1 0x40 MSTORE DUP1 MLOAD SWAP1 PUSH1 0x20 ADD KECCAK256 SWAP1 POP PUSH1 0x64 PUSH8 0xDE0B6B3A7640000 DUP2 PUSH2 0x62B JUMPI INVALID JUMPDEST DIV PUSH9 0x56BA3D73AF34F0000 DUP3 MOD ADD SWAP6 SWAP5 POP POP POP POP POP JUMP JUMPDEST PUSH1 0x0 PUSH1 0x20 DUP3 DUP5 SUB SLT ISZERO PUSH2 0x653 JUMPI DUP1 DUP2 REVERT JUMPDEST DUP2 CALLDATALOAD PUSH20 0xFFFFFFFFFFFFFFFFFFFFFFFFFFFFFFFFFFFFFFFF DUP2 AND DUP2 EQ PUSH2 0x676 JUMPI DUP2 DUP3 REVERT JUMPDEST SWAP4 SWAP3 POP POP POP JUMP JUMPDEST PUSH1 0x0 DUP1 PUSH1 0x0 PUSH1 0x40 DUP5 DUP7 SUB SLT ISZERO PUSH2 0x691 JUMPI DUP2 DUP3 REVERT JUMPDEST DUP4 CALLDATALOAD SWAP3 POP PUSH1 0x20 DUP5 ADD CALLDATALOAD PUSH8 0xFFFFFFFFFFFFFFFF DUP1 DUP3 GT ISZERO PUSH2 0x6AF JUMPI DUP4 DUP5 REVERT JUMPDEST DUP2 DUP7 ADD SWAP2 POP DUP7 PUSH1 0x1F DUP4 ADD SLT PUSH2 0x6C2 JUMPI DUP4 DUP5 REVERT JUMPDEST DUP2 CALLDATALOAD DUP2 DUP2 GT ISZERO PUSH2 0x6D0 JUMPI DUP5 DUP6 REVERT JUMPDEST DUP8 PUSH1 0x20 DUP1 DUP4 MUL DUP6 ADD ADD GT ISZERO PUSH2 0x6E3 JUMPI DUP5 DUP6 REVERT JUMPDEST PUSH1 0x20 DUP4 ADD SWAP5 POP DUP1 SWAP4 POP POP POP POP SWAP3 POP SWAP3 POP SWAP3 JUMP JUMPDEST PUSH1 0x60 SWAP2 SWAP1 SWAP2 SHL PUSH32 0xFFFFFFFFFFFFFFFFFFFFFFFFFFFFFFFFFFFFFFFF000000000000000000000000 AND DUP2 MSTORE PUSH1 0x14 ADD SWAP1 JUMP JUMPDEST SWAP3 DUP4 MSTORE PUSH32 0xFFFFFFFFFFFFFFFFFFFFFFFFFFFFFFFFFFFFFFFF000000000000000000000000 PUSH1 0x60 SWAP3 DUP4 SHL DUP2 AND PUSH1 0x20 DUP6 ADD MSTORE SWAP2 SHL AND PUSH1 0x34 DUP3 ADD MSTORE PUSH1 0x48 ADD SWAP1 JUMP JUMPDEST PUSH20 0xFFFFFFFFFFFFFFFFFFFFFFFFFFFFFFFFFFFFFFFF SWAP2 SWAP1 SWAP2 AND DUP2 MSTORE PUSH1 0x20 ADD SWAP1 JUMP JUMPDEST PUSH1 0x20 DUP1 DUP3 MSTORE DUP3 MLOAD DUP3 DUP3 ADD DUP2 SWAP1 MSTORE PUSH1 0x0 SWAP2 SWAP1 DUP5 DUP3 ADD SWAP1 PUSH1 0x40 DUP6 ADD SWAP1 DUP5 JUMPDEST DUP2 DUP2 LT ISZERO PUSH2 0x7BD JUMPI DUP4 MLOAD DUP4 MSTORE SWAP3 DUP5 ADD SWAP3 SWAP2 DUP5 ADD SWAP2 PUSH1 0x1 ADD PUSH2 0x7A1 JUMP JUMPDEST POP SWAP1 SWAP7 SWAP6 POP POP POP POP POP POP JUMP JUMPDEST PUSH1 0x20 DUP1 DUP3 MSTORE PUSH1 0xE SWAP1 DUP3 ADD MSTORE PUSH32 0x4641494C5F545249474745524544000000000000000000000000000000000000 PUSH1 0x40 DUP3 ADD MSTORE PUSH1 0x60 ADD SWAP1 JUMP JUMPDEST PUSH1 0x20 DUP1 DUP3 MSTORE PUSH1 0xE SWAP1 DUP3 ADD MSTORE PUSH32 0x504154485F544F4F5F53484F5254000000000000000000000000000000000000 PUSH1 0x40 DUP3 ADD MSTORE PUSH1 0x60 ADD SWAP1 JUMP INVALID LOG2 PUSH5 0x6970667358 0x22 SLT KECCAK256 0xDD 0x2B JUMP 0x1F 0xD9 0x26 0xBB PUSH26 0xDDABBC7012E8C88CE5F7A459D923C4ECAF2A057067EFFE556473 PUSH16 0x6C634300060C00336080604052348015 PUSH2 0x10 JUMPI PUSH1 0x0 DUP1 REVERT JUMPDEST POP PUSH2 0x4EE DUP1 PUSH2 0x20 PUSH1 0x0 CODECOPY PUSH1 0x0 RETURN INVALID PUSH1 0x80 PUSH1 0x40 MSTORE PUSH1 0x4 CALLDATASIZE LT PUSH2 0x3F JUMPI PUSH1 0x0 CALLDATALOAD PUSH1 0xE0 SHR DUP1 PUSH4 0x11F2928B EQ PUSH2 0x44 JUMPI DUP1 PUSH4 0x144A2752 EQ PUSH2 0x4E JUMPI DUP1 PUSH4 0xCD72D789 EQ PUSH2 0x84 JUMPI DUP1 PUSH4 0xFF1FD974 EQ PUSH2 0xA6 JUMPI JUMPDEST PUSH1 0x0 DUP1 REVERT JUMPDEST PUSH2 0x4C PUSH2 0xC6 JUMP JUMPDEST STOP JUMPDEST CALLVALUE DUP1 ISZERO PUSH2 0x5A JUMPI PUSH1 0x0 DUP1 REVERT JUMPDEST POP PUSH2 0x6E PUSH2 0x69 CALLDATASIZE PUSH1 0x4 PUSH2 0x387 JUMP JUMPDEST PUSH2 0x109 JUMP JUMPDEST PUSH1 0x40 MLOAD PUSH2 0x7B SWAP2 SWAP1 PUSH2 0x48D JUMP JUMPDEST PUSH1 0x40 MLOAD DUP1 SWAP2 SUB SWAP1 RETURN JUMPDEST CALLVALUE DUP1 ISZERO PUSH2 0x90 JUMPI PUSH1 0x0 DUP1 REVERT JUMPDEST POP PUSH2 0x99 PUSH2 0x147 JUMP JUMPDEST PUSH1 0x40 MLOAD PUSH2 0x7B SWAP2 SWAP1 PUSH2 0x435 JUMP JUMPDEST CALLVALUE DUP1 ISZERO PUSH2 0xB2 JUMPI PUSH1 0x0 DUP1 REVERT JUMPDEST POP PUSH2 0x6E PUSH2 0xC1 CALLDATASIZE PUSH1 0x4 PUSH2 0x387 JUMP JUMPDEST PUSH2 0x15F JUMP JUMPDEST PUSH1 0x40 MLOAD PUSH20 0xE9DB8717BC5DFB20AAF538B4A5A02B7791FF430C SWAP1 CALLVALUE DUP1 ISZERO PUSH2 0x8FC MUL SWAP2 PUSH1 0x0 DUP2 DUP2 DUP2 DUP6 DUP9 DUP9 CALL SWAP4 POP POP POP POP ISZERO DUP1 ISZERO PUSH2 0x106 JUMPI RETURNDATASIZE PUSH1 0x0 DUP1 RETURNDATACOPY RETURNDATASIZE PUSH1 0x0 REVERT JUMPDEST POP JUMP JUMPDEST PUSH1 0x0 PUSH2 0x113 PUSH2 0x195 JUMP JUMPDEST PUSH2 0x13F PUSH32 0xB713B61BB9BB2958A0F5D1534B21E94FC68C4C0C034B0902ED844F2F6CD1B4F7 DUP5 DUP7 DUP6 PUSH2 0x1ED JUMP JUMPDEST SWAP5 SWAP4 POP POP POP POP JUMP JUMPDEST PUSH20 0xE9DB8717BC5DFB20AAF538B4A5A02B7791FF430C DUP2 JUMP JUMPDEST PUSH1 0x0 PUSH2 0x169 PUSH2 0x195 JUMP JUMPDEST PUSH2 0x13F PUSH32 0xB713B61BB9BB2958A0F5D1534B21E94FC68C4C0C034B0902ED844F2F6CD1B4F7 DUP6 DUP6 DUP6 PUSH2 0x24E JUMP JUMPDEST PUSH20 0xE9DB8717BC5DFB20AAF538B4A5A02B7791FF430C BALANCE ISZERO PUSH2 0x1EB JUMPI PUSH1 0x40 MLOAD PUSH32 0x8C379A000000000000000000000000000000000000000000000000000000000 DUP2 MSTORE PUSH1 0x4 ADD PUSH2 0x1E2 SWAP1 PUSH2 0x456 JUMP JUMPDEST PUSH1 0x40 MLOAD DUP1 SWAP2 SUB SWAP1 REVERT JUMPDEST JUMP JUMPDEST PUSH1 0x0 DUP1 PUSH2 0x1F9 DUP6 PUSH2 0x29A JUMP JUMPDEST PUSH1 0xFF AND PUSH1 0xA EXP SWAP1 POP PUSH1 0x0 PUSH2 0x20C DUP6 PUSH2 0x29A JUMP JUMPDEST PUSH1 0xFF AND PUSH1 0xA EXP SWAP1 POP PUSH1 0x0 PUSH2 0x221 DUP9 DUP9 DUP9 PUSH2 0x32E JUMP JUMPDEST SWAP1 POP PUSH8 0xDE0B6B3A7640000 DUP4 DUP4 DUP4 DUP9 MUL MUL DUP2 PUSH2 0x239 JUMPI INVALID JUMPDEST DIV DUP2 PUSH2 0x241 JUMPI INVALID JUMPDEST DIV SWAP9 SWAP8 POP POP POP POP POP POP POP POP JUMP JUMPDEST PUSH1 0x0 DUP1 PUSH2 0x25A DUP6 PUSH2 0x29A JUMP JUMPDEST PUSH1 0xFF AND PUSH1 0xA EXP SWAP1 POP PUSH1 0x0 PUSH2 0x26D DUP6 PUSH2 0x29A JUMP JUMPDEST PUSH1 0xFF AND PUSH1 0xA EXP SWAP1 POP PUSH1 0x0 PUSH2 0x282 DUP9 DUP9 DUP9 PUSH2 0x32E JUMP JUMPDEST SWAP1 POP DUP2 DUP2 DUP5 PUSH8 0xDE0B6B3A7640000 DUP9 MUL MUL DUP2 PUSH2 0x239 JUMPI INVALID JUMPDEST PUSH1 0x0 PUSH20 0xFFFFFFFFFFFFFFFFFFFFFFFFFFFFFFFFFFFFFFFF DUP3 AND PUSH20 0xC02AAA39B223FE8D0A0E5C4F27EAD9083C756CC2 EQ ISZERO PUSH2 0x2D6 JUMPI POP PUSH1 0x12 PUSH2 0x329 JUMP JUMPDEST PUSH1 0x0 DUP3 PUSH1 0x40 MLOAD PUSH1 0x20 ADD PUSH2 0x2E9 SWAP2 SWAP1 PUSH2 0x3C7 JUMP JUMPDEST PUSH1 0x40 DUP1 MLOAD DUP1 DUP4 SUB PUSH32 0xFFFFFFFFFFFFFFFFFFFFFFFFFFFFFFFFFFFFFFFFFFFFFFFFFFFFFFFFFFFFFFE0 ADD DUP2 MSTORE SWAP2 SWAP1 MSTORE DUP1 MLOAD PUSH1 0x20 SWAP1 SWAP2 ADD KECCAK256 PUSH1 0xF AND PUSH1 0x4 ADD SWAP2 POP POP JUMPDEST SWAP2 SWAP1 POP JUMP JUMPDEST PUSH1 0x0 DUP1 DUP5 DUP5 DUP5 PUSH1 0x40 MLOAD PUSH1 0x20 ADD PUSH2 0x346 SWAP4 SWAP3 SWAP2 SWAP1 PUSH2 0x3F7 JUMP JUMPDEST PUSH1 0x40 MLOAD PUSH1 0x20 DUP2 DUP4 SUB SUB DUP2 MSTORE SWAP1 PUSH1 0x40 MSTORE DUP1 MLOAD SWAP1 PUSH1 0x20 ADD KECCAK256 SWAP1 POP PUSH1 0x64 PUSH8 0xDE0B6B3A7640000 DUP2 PUSH2 0x370 JUMPI INVALID JUMPDEST DIV PUSH9 0x56BA3D73AF34F0000 DUP3 MOD ADD SWAP6 SWAP5 POP POP POP POP POP JUMP JUMPDEST PUSH1 0x0 DUP1 PUSH1 0x0 PUSH1 0x60 DUP5 DUP7 SUB SLT ISZERO PUSH2 0x39B JUMPI DUP3 DUP4 REVERT JUMPDEST DUP4 CALLDATALOAD PUSH2 0x3A6 DUP2 PUSH2 0x496 JUMP JUMPDEST SWAP3 POP PUSH1 0x20 DUP5 ADD CALLDATALOAD PUSH2 0x3B6 DUP2 PUSH2 0x496 JUMP JUMPDEST SWAP3 SWAP6 SWAP3 SWAP5 POP POP POP PUSH1 0x40 SWAP2 SWAP1 SWAP2 ADD CALLDATALOAD SWAP1 JUMP JUMPDEST PUSH1 0x60 SWAP2 SWAP1 SWAP2 SHL PUSH32 0xFFFFFFFFFFFFFFFFFFFFFFFFFFFFFFFFFFFFFFFF000000000000000000000000 AND DUP2 MSTORE PUSH1 0x14 ADD SWAP1 JUMP JUMPDEST SWAP3 DUP4 MSTORE PUSH32 0xFFFFFFFFFFFFFFFFFFFFFFFFFFFFFFFFFFFFFFFF000000000000000000000000 PUSH1 0x60 SWAP3 DUP4 SHL DUP2 AND PUSH1 0x20 DUP6 ADD MSTORE SWAP2 SHL AND PUSH1 0x34 DUP3 ADD MSTORE PUSH1 0x48 ADD SWAP1 JUMP JUMPDEST PUSH20 0xFFFFFFFFFFFFFFFFFFFFFFFFFFFFFFFFFFFFFFFF SWAP2 SWAP1 SWAP2 AND DUP2 MSTORE PUSH1 0x20 ADD SWAP1 JUMP JUMPDEST PUSH1 0x20 DUP1 DUP3 MSTORE PUSH1 0xE SWAP1 DUP3 ADD MSTORE PUSH32 0x4641494C5F545249474745524544000000000000000000000000000000000000 PUSH1 0x40 DUP3 ADD MSTORE PUSH1 0x60 ADD SWAP1 JUMP JUMPDEST SWAP1 DUP2 MSTORE PUSH1 0x20 ADD SWAP1 JUMP JUMPDEST PUSH20 0xFFFFFFFFFFFFFFFFFFFFFFFFFFFFFFFFFFFFFFFF DUP2 AND DUP2 EQ PUSH2 0x106 JUMPI PUSH1 0x0 DUP1 REVERT INVALID LOG2 PUSH5 0x6970667358 0x22 SLT KECCAK256 PUSH30 0x41E8951134A3B76167DAE046919D703E25F00321AED168CF33BDAAF1CADB 0x28 PUSH5 0x736F6C6343 STOP MOD 0xC STOP CALLER PUSH1 0x80 PUSH1 0x40 MSTORE CALLVALUE DUP1 ISZERO PUSH2 0x10 JUMPI PUSH1 0x0 DUP1 REVERT JUMPDEST POP PUSH2 0x927 DUP1 PUSH2 0x20 PUSH1 0x0 CODECOPY PUSH1 0x0 RETURN INVALID PUSH1 0x80 PUSH1 0x40 MSTORE PUSH1 0x4 CALLDATASIZE LT PUSH2 0x7B JUMPI PUSH1 0x0 CALLDATALOAD PUSH1 0xE0 SHR DUP1 PUSH4 0x809A9E55 GT PUSH2 0x4E JUMPI DUP1 PUSH4 0x809A9E55 EQ PUSH2 0x10D JUMPI DUP1 PUSH4 0x81EFCBDD EQ PUSH2 0xED JUMPI DUP1 PUSH4 0xA734F06E EQ PUSH2 0x13B JUMPI DUP1 PUSH4 0xCD72D789 EQ PUSH2 0x15D JUMPI PUSH2 0x7B JUMP JUMPDEST DUP1 PUSH4 0x5734D9A EQ PUSH2 0x80 JUMPI DUP1 PUSH4 0x11F2928B EQ PUSH2 0xB6 JUMPI DUP1 PUSH4 0x418436BC EQ PUSH2 0xC0 JUMPI DUP1 PUSH4 0x61E597F9 EQ PUSH2 0xED JUMPI JUMPDEST PUSH1 0x0 DUP1 REVERT JUMPDEST CALLVALUE DUP1 ISZERO PUSH2 0x8C JUMPI PUSH1 0x0 DUP1 REVERT JUMPDEST POP PUSH2 0xA0 PUSH2 0x9B CALLDATASIZE PUSH1 0x4 PUSH2 0x68F JUMP JUMPDEST PUSH2 0x172 JUMP JUMPDEST PUSH1 0x40 MLOAD PUSH2 0xAD SWAP2 SWAP1 PUSH2 0x810 JUMP JUMPDEST PUSH1 0x40 MLOAD DUP1 SWAP2 SUB SWAP1 RETURN JUMPDEST PUSH2 0xBE PUSH2 0x1A6 JUMP JUMPDEST STOP JUMPDEST CALLVALUE DUP1 ISZERO PUSH2 0xCC JUMPI PUSH1 0x0 DUP1 REVERT JUMPDEST POP PUSH2 0xE0 PUSH2 0xDB CALLDATASIZE PUSH1 0x4 PUSH2 0x556 JUMP JUMPDEST PUSH2 0x1E9 JUMP JUMPDEST PUSH1 0x40 MLOAD PUSH2 0xAD SWAP2 SWAP1 PUSH2 0x8B8 JUMP JUMPDEST CALLVALUE DUP1 ISZERO PUSH2 0xF9 JUMPI PUSH1 0x0 DUP1 REVERT JUMPDEST POP PUSH2 0xA0 PUSH2 0x108 CALLDATASIZE PUSH1 0x4 PUSH2 0x5FB JUMP JUMPDEST PUSH2 0x2AB JUMP JUMPDEST CALLVALUE DUP1 ISZERO PUSH2 0x119 JUMPI PUSH1 0x0 DUP1 REVERT JUMPDEST POP PUSH2 0x12D PUSH2 0x128 CALLDATASIZE PUSH1 0x4 PUSH2 0x516 JUMP JUMPDEST PUSH2 0x2D9 JUMP JUMPDEST PUSH1 0x40 MLOAD PUSH2 0xAD SWAP3 SWAP2 SWAP1 PUSH2 0x8C1 JUMP JUMPDEST CALLVALUE DUP1 ISZERO PUSH2 0x147 JUMPI PUSH1 0x0 DUP1 REVERT JUMPDEST POP PUSH2 0x150 PUSH2 0x39B JUMP JUMPDEST PUSH1 0x40 MLOAD PUSH2 0xAD SWAP2 SWAP1 PUSH2 0x7EF JUMP JUMPDEST CALLVALUE DUP1 ISZERO PUSH2 0x169 JUMPI PUSH1 0x0 DUP1 REVERT JUMPDEST POP PUSH2 0x150 PUSH2 0x3B3 JUMP JUMPDEST PUSH1 0x60 DUP13 PUSH1 0x40 MLOAD PUSH1 0x20 ADD PUSH2 0x185 SWAP2 SWAP1 PUSH2 0x7EF JUMP JUMPDEST PUSH1 0x40 MLOAD PUSH1 0x20 DUP2 DUP4 SUB SUB DUP2 MSTORE SWAP1 PUSH1 0x40 MSTORE SWAP1 POP SWAP13 SWAP12 POP POP POP POP POP POP POP POP POP POP POP POP JUMP JUMPDEST PUSH1 0x40 MLOAD PUSH20 0xE9DB8717BC5DFB20AAF538B4A5A02B7791FF430C SWAP1 CALLVALUE DUP1 ISZERO PUSH2 0x8FC MUL SWAP2 PUSH1 0x0 DUP2 DUP2 DUP2 DUP6 DUP9 DUP9 CALL SWAP4 POP POP POP POP ISZERO DUP1 ISZERO PUSH2 0x1E6 JUMPI RETURNDATASIZE PUSH1 0x0 DUP1 RETURNDATACOPY RETURNDATASIZE PUSH1 0x0 REVERT JUMPDEST POP JUMP JUMPDEST PUSH1 0x0 PUSH2 0x1F3 PUSH2 0x3CB JUMP JUMPDEST PUSH20 0xFFFFFFFFFFFFFFFFFFFFFFFFFFFFFFFFFFFFFFFF DUP8 AND PUSH20 0xEEEEEEEEEEEEEEEEEEEEEEEEEEEEEEEEEEEEEEEE EQ PUSH2 0x22A JUMPI DUP7 PUSH2 0x232 JUMP JUMPDEST PUSH2 0x232 PUSH2 0x423 JUMP JUMPDEST SWAP7 POP PUSH20 0xFFFFFFFFFFFFFFFFFFFFFFFFFFFFFFFFFFFFFFFF DUP7 AND PUSH20 0xEEEEEEEEEEEEEEEEEEEEEEEEEEEEEEEEEEEEEEEE EQ PUSH2 0x26B JUMPI DUP6 PUSH2 0x273 JUMP JUMPDEST PUSH2 0x273 PUSH2 0x423 JUMP JUMPDEST SWAP6 POP PUSH2 0x2A0 PUSH32 0xFF3CA9D46195C39F9A12AFB74207B4970349FB3CFB1E459BBF170298D326BC7 DUP9 DUP9 PUSH2 0x43B JUMP JUMPDEST SWAP8 SWAP7 POP POP POP POP POP POP POP JUMP JUMPDEST PUSH1 0x60 DUP7 PUSH1 0x40 MLOAD PUSH1 0x20 ADD PUSH2 0x2BE SWAP2 SWAP1 PUSH2 0x7EF JUMP JUMPDEST PUSH1 0x40 MLOAD PUSH1 0x20 DUP2 DUP4 SUB SUB DUP2 MSTORE SWAP1 PUSH1 0x40 MSTORE SWAP1 POP SWAP7 SWAP6 POP POP POP POP POP POP JUMP JUMPDEST PUSH1 0x0 DUP1 PUSH2 0x2E4 PUSH2 0x3CB JUMP JUMPDEST PUSH20 0xFFFFFFFFFFFFFFFFFFFFFFFFFFFFFFFFFFFFFFFF DUP6 AND PUSH20 0xEEEEEEEEEEEEEEEEEEEEEEEEEEEEEEEEEEEEEEEE EQ PUSH2 0x31B JUMPI DUP5 PUSH2 0x323 JUMP JUMPDEST PUSH2 0x323 PUSH2 0x423 JUMP JUMPDEST SWAP5 POP PUSH20 0xFFFFFFFFFFFFFFFFFFFFFFFFFFFFFFFFFFFFFFFF DUP5 AND PUSH20 0xEEEEEEEEEEEEEEEEEEEEEEEEEEEEEEEEEEEEEEEE EQ PUSH2 0x35C JUMPI DUP4 PUSH2 0x364 JUMP JUMPDEST PUSH2 0x364 PUSH2 0x423 JUMP JUMPDEST SWAP4 POP PUSH2 0x391 PUSH32 0xFF3CA9D46195C39F9A12AFB74207B4970349FB3CFB1E459BBF170298D326BC7 DUP7 DUP7 PUSH2 0x43B JUMP JUMPDEST SWAP2 POP SWAP4 POP SWAP4 SWAP2 POP POP JUMP JUMPDEST PUSH20 0xEEEEEEEEEEEEEEEEEEEEEEEEEEEEEEEEEEEEEEEE DUP2 JUMP JUMPDEST PUSH20 0xE9DB8717BC5DFB20AAF538B4A5A02B7791FF430C DUP2 JUMP JUMPDEST PUSH20 0xE9DB8717BC5DFB20AAF538B4A5A02B7791FF430C BALANCE ISZERO PUSH2 0x421 JUMPI PUSH1 0x40 MLOAD PUSH32 0x8C379A000000000000000000000000000000000000000000000000000000000 DUP2 MSTORE PUSH1 0x4 ADD PUSH2 0x418 SWAP1 PUSH2 0x881 JUMP JUMPDEST PUSH1 0x40 MLOAD DUP1 SWAP2 SUB SWAP1 REVERT JUMPDEST JUMP JUMPDEST PUSH20 0xC02AAA39B223FE8D0A0E5C4F27EAD9083C756CC2 SWAP1 JUMP JUMPDEST PUSH1 0x0 DUP1 DUP5 DUP5 DUP5 PUSH1 0x40 MLOAD PUSH1 0x20 ADD PUSH2 0x453 SWAP4 SWAP3 SWAP2 SWAP1 PUSH2 0x7B1 JUMP JUMPDEST PUSH1 0x40 MLOAD PUSH1 0x20 DUP2 DUP4 SUB SUB DUP2 MSTORE SWAP1 PUSH1 0x40 MSTORE DUP1 MLOAD SWAP1 PUSH1 0x20 ADD KECCAK256 SWAP1 POP PUSH1 0x64 PUSH8 0xDE0B6B3A7640000 DUP2 PUSH2 0x47D JUMPI INVALID JUMPDEST DIV PUSH9 0x56BA3D73AF34F0000 DUP3 MOD ADD SWAP6 SWAP5 POP POP POP POP POP JUMP JUMPDEST DUP1 CALLDATALOAD PUSH20 0xFFFFFFFFFFFFFFFFFFFFFFFFFFFFFFFFFFFFFFFF DUP2 AND DUP2 EQ PUSH2 0x4B8 JUMPI PUSH1 0x0 DUP1 REVERT JUMPDEST SWAP3 SWAP2 POP POP JUMP JUMPDEST PUSH1 0x0 DUP1 DUP4 PUSH1 0x1F DUP5 ADD SLT PUSH2 0x4CF JUMPI DUP2 DUP3 REVERT JUMPDEST POP DUP2 CALLDATALOAD PUSH8 0xFFFFFFFFFFFFFFFF DUP2 GT ISZERO PUSH2 0x4E6 JUMPI DUP2 DUP3 REVERT JUMPDEST PUSH1 0x20 DUP4 ADD SWAP2 POP DUP4 PUSH1 0x20 DUP1 DUP4 MUL DUP6 ADD ADD GT ISZERO PUSH2 0x500 JUMPI PUSH1 0x0 DUP1 REVERT JUMPDEST SWAP3 POP SWAP3 SWAP1 POP JUMP JUMPDEST DUP1 CALLDATALOAD PUSH1 0x4 DUP2 LT PUSH2 0x4B8 JUMPI PUSH1 0x0 DUP1 REVERT JUMPDEST PUSH1 0x0 DUP1 PUSH1 0x0 PUSH1 0x60 DUP5 DUP7 SUB SLT ISZERO PUSH2 0x52A JUMPI DUP3 DUP4 REVERT JUMPDEST DUP4 CALLDATALOAD PUSH2 0x535 DUP2 PUSH2 0x8CF JUMP JUMPDEST SWAP3 POP PUSH1 0x20 DUP5 ADD CALLDATALOAD PUSH2 0x545 DUP2 PUSH2 0x8CF JUMP JUMPDEST SWAP3 SWAP6 SWAP3 SWAP5 POP POP POP PUSH1 0x40 SWAP2 SWAP1 SWAP2 ADD CALLDATALOAD SWAP1 JUMP JUMPDEST PUSH1 0x0 DUP1 PUSH1 0x0 DUP1 PUSH1 0x0 DUP1 PUSH1 0xA0 DUP8 DUP10 SUB SLT ISZERO PUSH2 0x56E JUMPI DUP2 DUP3 REVERT JUMPDEST DUP7 CALLDATALOAD PUSH2 0x579 DUP2 PUSH2 0x8CF JUMP JUMPDEST SWAP6 POP PUSH1 0x20 DUP8 ADD CALLDATALOAD PUSH2 0x589 DUP2 PUSH2 0x8CF JUMP JUMPDEST SWAP5 POP PUSH1 0x40 DUP8 ADD CALLDATALOAD SWAP4 POP PUSH1 0x60 DUP8 ADD CALLDATALOAD SWAP3 POP PUSH1 0x80 DUP8 ADD CALLDATALOAD PUSH8 0xFFFFFFFFFFFFFFFF DUP1 DUP3 GT ISZERO PUSH2 0x5B3 JUMPI DUP4 DUP5 REVERT JUMPDEST DUP2 DUP10 ADD SWAP2 POP DUP10 PUSH1 0x1F DUP4 ADD SLT PUSH2 0x5C6 JUMPI DUP4 DUP5 REVERT JUMPDEST DUP2 CALLDATALOAD DUP2 DUP2 GT ISZERO PUSH2 0x5D4 JUMPI DUP5 DUP6 REVERT JUMPDEST DUP11 PUSH1 0x20 DUP3 DUP6 ADD ADD GT ISZERO PUSH2 0x5E5 JUMPI DUP5 DUP6 REVERT JUMPDEST PUSH1 0x20 DUP4 ADD SWAP5 POP DUP1 SWAP4 POP POP POP POP SWAP3 SWAP6 POP SWAP3 SWAP6 POP SWAP3 SWAP6 JUMP JUMPDEST PUSH1 0x0 DUP1 PUSH1 0x0 DUP1 PUSH1 0x0 DUP1 PUSH1 0x80 DUP8 DUP10 SUB SLT ISZERO PUSH2 0x613 JUMPI DUP2 DUP3 REVERT JUMPDEST PUSH2 0x61D DUP9 DUP9 PUSH2 0x494 JUMP JUMPDEST SWAP6 POP PUSH1 0x20 DUP8 ADD CALLDATALOAD PUSH1 0x4 DUP2 LT PUSH2 0x630 JUMPI DUP3 DUP4 REVERT JUMPDEST SWAP5 POP PUSH1 0x40 DUP8 ADD CALLDATALOAD PUSH8 0xFFFFFFFFFFFFFFFF DUP1 DUP3 GT ISZERO PUSH2 0x64C JUMPI DUP4 DUP5 REVERT JUMPDEST PUSH2 0x658 DUP11 DUP4 DUP12 ADD PUSH2 0x4BE JUMP JUMPDEST SWAP1 SWAP7 POP SWAP5 POP PUSH1 0x60 DUP10 ADD CALLDATALOAD SWAP2 POP DUP1 DUP3 GT ISZERO PUSH2 0x670 JUMPI DUP4 DUP5 REVERT JUMPDEST POP PUSH2 0x67D DUP10 DUP3 DUP11 ADD PUSH2 0x4BE JUMP JUMPDEST SWAP8 SWAP11 SWAP7 SWAP10 POP SWAP5 SWAP8 POP SWAP3 SWAP6 SWAP4 SWAP5 SWAP3 POP POP POP JUMP JUMPDEST PUSH1 0x0 DUP1 PUSH1 0x0 DUP1 PUSH1 0x0 DUP1 PUSH1 0x0 DUP1 PUSH1 0x0 DUP1 PUSH1 0x0 DUP1 PUSH2 0x100 DUP14 DUP16 SUB SLT ISZERO PUSH2 0x6B1 JUMPI DUP6 DUP7 REVERT JUMPDEST PUSH2 0x6BB DUP15 DUP15 PUSH2 0x494 JUMP JUMPDEST SWAP12 POP PUSH2 0x6CA DUP15 PUSH1 0x20 DUP16 ADD PUSH2 0x507 JUMP JUMPDEST SWAP11 POP PUSH8 0xFFFFFFFFFFFFFFFF PUSH1 0x40 DUP15 ADD CALLDATALOAD GT ISZERO PUSH2 0x6E4 JUMPI DUP6 DUP7 REVERT JUMPDEST PUSH2 0x6F4 DUP15 PUSH1 0x40 DUP16 ADD CALLDATALOAD DUP16 ADD PUSH2 0x4BE JUMP JUMPDEST SWAP1 SWAP11 POP SWAP9 POP PUSH8 0xFFFFFFFFFFFFFFFF PUSH1 0x60 DUP15 ADD CALLDATALOAD GT ISZERO PUSH2 0x711 JUMPI DUP6 DUP7 REVERT JUMPDEST PUSH2 0x721 DUP15 PUSH1 0x60 DUP16 ADD CALLDATALOAD DUP16 ADD PUSH2 0x4BE JUMP JUMPDEST SWAP1 SWAP9 POP SWAP7 POP PUSH2 0x733 DUP15 PUSH1 0x80 DUP16 ADD PUSH2 0x494 JUMP JUMPDEST SWAP6 POP PUSH2 0x742 DUP15 PUSH1 0xA0 DUP16 ADD PUSH2 0x507 JUMP JUMPDEST SWAP5 POP PUSH8 0xFFFFFFFFFFFFFFFF PUSH1 0xC0 DUP15 ADD CALLDATALOAD GT ISZERO PUSH2 0x75C JUMPI DUP4 DUP5 REVERT JUMPDEST PUSH2 0x76C DUP15 PUSH1 0xC0 DUP16 ADD CALLDATALOAD DUP16 ADD PUSH2 0x4BE JUMP JUMPDEST SWAP1 SWAP5 POP SWAP3 POP PUSH8 0xFFFFFFFFFFFFFFFF PUSH1 0xE0 DUP15 ADD CALLDATALOAD GT ISZERO PUSH2 0x789 JUMPI DUP1 DUP2 REVERT JUMPDEST PUSH2 0x799 DUP15 PUSH1 0xE0 DUP16 ADD CALLDATALOAD DUP16 ADD PUSH2 0x4BE JUMP JUMPDEST DUP2 SWAP4 POP DUP1 SWAP3 POP POP POP SWAP3 SWAP6 SWAP9 SWAP12 POP SWAP3 SWAP6 SWAP9 SWAP12 POP SWAP3 SWAP6 SWAP9 SWAP12 JUMP JUMPDEST SWAP3 DUP4 MSTORE PUSH32 0xFFFFFFFFFFFFFFFFFFFFFFFFFFFFFFFFFFFFFFFF000000000000000000000000 PUSH1 0x60 SWAP3 DUP4 SHL DUP2 AND PUSH1 0x20 DUP6 ADD MSTORE SWAP2 SHL AND PUSH1 0x34 DUP3 ADD MSTORE PUSH1 0x48 ADD SWAP1 JUMP JUMPDEST PUSH20 0xFFFFFFFFFFFFFFFFFFFFFFFFFFFFFFFFFFFFFFFF SWAP2 SWAP1 SWAP2 AND DUP2 MSTORE PUSH1 0x20 ADD SWAP1 JUMP JUMPDEST PUSH1 0x0 PUSH1 0x20 DUP1 DUP4 MSTORE DUP4 MLOAD DUP1 DUP3 DUP6 ADD MSTORE DUP3 JUMPDEST DUP2 DUP2 LT ISZERO PUSH2 0x83C JUMPI DUP6 DUP2 ADD DUP4 ADD MLOAD DUP6 DUP3 ADD PUSH1 0x40 ADD MSTORE DUP3 ADD PUSH2 0x820 JUMP JUMPDEST DUP2 DUP2 GT ISZERO PUSH2 0x84D JUMPI DUP4 PUSH1 0x40 DUP4 DUP8 ADD ADD MSTORE JUMPDEST POP PUSH1 0x1F ADD PUSH32 0xFFFFFFFFFFFFFFFFFFFFFFFFFFFFFFFFFFFFFFFFFFFFFFFFFFFFFFFFFFFFFFE0 AND SWAP3 SWAP1 SWAP3 ADD PUSH1 0x40 ADD SWAP4 SWAP3 POP POP POP JUMP JUMPDEST PUSH1 0x20 DUP1 DUP3 MSTORE PUSH1 0xE SWAP1 DUP3 ADD MSTORE PUSH32 0x4641494C5F545249474745524544000000000000000000000000000000000000 PUSH1 0x40 DUP3 ADD MSTORE PUSH1 0x60 ADD SWAP1 JUMP JUMPDEST SWAP1 DUP2 MSTORE PUSH1 0x20 ADD SWAP1 JUMP JUMPDEST SWAP2 DUP3 MSTORE PUSH1 0x20 DUP3 ADD MSTORE PUSH1 0x40 ADD SWAP1 JUMP JUMPDEST PUSH20 0xFFFFFFFFFFFFFFFFFFFFFFFFFFFFFFFFFFFFFFFF DUP2 AND DUP2 EQ PUSH2 0x1E6 JUMPI PUSH1 0x0 DUP1 REVERT INVALID LOG2 PUSH5 0x6970667358 0x22 SLT KECCAK256 0x25 0xEA DIV 0x49 0xD7 0xB5 SWAP9 SWAP9 0xCA 0xA8 0xCC DUP13 SWAP5 0x5C SWAP2 0x4E 0xE5 0xE3 PUSH14 0x4308EAD5DC70657BDE9606E7B464 PUSH20 0x6F6C634300060C00330000000000000000000000 "
            }
        }
    },
    "sourceTreeHashHex": "0xa45f962b3f384b722766c711125db1b4d67c6097ac32c819dacc87cc7177dde1",
    "compiler": {
        "name": "solc",
        "version": "0.6.12+commit.27d51765",
        "settings": {
            "remappings": [
                "@0x/contracts-utils=/Users/jacob/projects/ethdev/0x/workspace-remote/workspace/0x-monorepo/packages/asset-swapper/node_modules/@0x/contracts-utils",
                "@0x/contracts-erc20=/Users/jacob/projects/ethdev/0x/workspace-remote/workspace/0x-monorepo/packages/asset-swapper/node_modules/@0x/contracts-erc20",
                "@0x/contracts-zero-ex=/Users/jacob/projects/ethdev/0x/workspace-remote/workspace/0x-monorepo/packages/asset-swapper/node_modules/@0x/contracts-zero-ex"
            ],
            "optimizer": {
                "enabled": true,
                "runs": 62500,
                "details": {
                    "yul": true,
                    "deduplicate": true,
                    "cse": true,
                    "constantOptimizer": true
                }
            },
            "outputSelection": {
                "*": {
                    "*": [
                        "abi",
                        "devdoc",
                        "evm.bytecode.object",
                        "evm.bytecode.sourceMap",
                        "evm.deployedBytecode.object",
                        "evm.deployedBytecode.sourceMap"
                    ]
                }
            },
            "evmVersion": "istanbul"
        }
    },
    "chains": {}
}