{
    "schemaVersion": "2.0.0",
    "contractName": "TestNativeOrderSampler",
    "compilerOutput": {
        "abi": [
            {
                "inputs": [
                    {
                        "internalType": "uint256",
                        "name": "count",
                        "type": "uint256"
                    }
                ],
                "name": "createTokens",
                "outputs": [
                    {
                        "internalType": "contract TestNativeOrderSamplerToken[]",
                        "name": "tokens",
                        "type": "address[]"
                    }
                ],
                "stateMutability": "nonpayable",
                "type": "function"
            },
            {
                "inputs": [
                    {
                        "internalType": "contract IERC20TokenV06[]",
                        "name": "tokens",
                        "type": "address[]"
                    },
                    {
                        "internalType": "address",
                        "name": "account",
                        "type": "address"
                    },
                    {
                        "internalType": "address",
                        "name": "spender",
                        "type": "address"
                    }
                ],
                "name": "getAllowanceOf",
                "outputs": [
                    {
                        "internalType": "uint256[]",
                        "name": "allowances",
                        "type": "uint256[]"
                    }
                ],
                "stateMutability": "view",
                "type": "function"
            },
            {
                "inputs": [
                    {
                        "internalType": "contract IERC20TokenV06[]",
                        "name": "tokens",
                        "type": "address[]"
                    },
                    {
                        "internalType": "address",
                        "name": "account",
                        "type": "address"
                    }
                ],
                "name": "getBalanceOf",
                "outputs": [
                    {
                        "internalType": "uint256[]",
                        "name": "balances",
                        "type": "uint256[]"
                    }
                ],
                "stateMutability": "view",
                "type": "function"
            },
            {
                "inputs": [],
                "name": "getBlockNumber",
                "outputs": [
                    {
                        "internalType": "uint256",
                        "name": "",
                        "type": "uint256"
                    }
                ],
                "stateMutability": "view",
                "type": "function"
            },
            {
                "inputs": [],
                "name": "getGasLeft",
                "outputs": [
                    {
                        "internalType": "uint256",
                        "name": "",
                        "type": "uint256"
                    }
                ],
                "stateMutability": "nonpayable",
                "type": "function"
            },
            {
                "inputs": [
                    {
                        "components": [
                            {
                                "internalType": "contract IERC20TokenV06",
                                "name": "makerToken",
                                "type": "address"
                            },
                            {
                                "internalType": "contract IERC20TokenV06",
                                "name": "takerToken",
                                "type": "address"
                            },
                            {
                                "internalType": "uint128",
                                "name": "makerAmount",
                                "type": "uint128"
                            },
                            {
                                "internalType": "uint128",
                                "name": "takerAmount",
                                "type": "uint128"
                            },
                            {
                                "internalType": "uint128",
                                "name": "takerTokenFeeAmount",
                                "type": "uint128"
                            },
                            {
                                "internalType": "address",
                                "name": "maker",
                                "type": "address"
                            },
                            {
                                "internalType": "address",
                                "name": "taker",
                                "type": "address"
                            },
                            {
                                "internalType": "address",
                                "name": "sender",
                                "type": "address"
                            },
                            {
                                "internalType": "address",
                                "name": "feeRecipient",
                                "type": "address"
                            },
                            {
                                "internalType": "bytes32",
                                "name": "pool",
                                "type": "bytes32"
                            },
                            {
                                "internalType": "uint64",
                                "name": "expiry",
                                "type": "uint64"
                            },
                            {
                                "internalType": "uint256",
                                "name": "salt",
                                "type": "uint256"
                            }
                        ],
                        "internalType": "struct IExchange.LimitOrder[]",
                        "name": "orders",
                        "type": "tuple[]"
                    },
                    {
                        "components": [
                            {
                                "internalType": "enum IExchange.SignatureType",
                                "name": "signatureType",
                                "type": "uint8"
                            },
                            {
                                "internalType": "uint8",
                                "name": "v",
                                "type": "uint8"
                            },
                            {
                                "internalType": "bytes32",
                                "name": "r",
                                "type": "bytes32"
                            },
                            {
                                "internalType": "bytes32",
                                "name": "s",
                                "type": "bytes32"
                            }
                        ],
                        "internalType": "struct IExchange.Signature[]",
                        "name": "orderSignatures",
                        "type": "tuple[]"
                    },
                    {
                        "internalType": "contract IExchange",
                        "name": "exchange",
                        "type": "address"
                    }
                ],
                "name": "getLimitOrderFillableMakerAssetAmounts",
                "outputs": [
                    {
                        "internalType": "uint256[]",
                        "name": "orderFillableMakerAssetAmounts",
                        "type": "uint256[]"
                    }
                ],
                "stateMutability": "view",
                "type": "function"
            },
            {
                "inputs": [
                    {
                        "components": [
                            {
                                "internalType": "contract IERC20TokenV06",
                                "name": "makerToken",
                                "type": "address"
                            },
                            {
                                "internalType": "contract IERC20TokenV06",
                                "name": "takerToken",
                                "type": "address"
                            },
                            {
                                "internalType": "uint128",
                                "name": "makerAmount",
                                "type": "uint128"
                            },
                            {
                                "internalType": "uint128",
                                "name": "takerAmount",
                                "type": "uint128"
                            },
                            {
                                "internalType": "uint128",
                                "name": "takerTokenFeeAmount",
                                "type": "uint128"
                            },
                            {
                                "internalType": "address",
                                "name": "maker",
                                "type": "address"
                            },
                            {
                                "internalType": "address",
                                "name": "taker",
                                "type": "address"
                            },
                            {
                                "internalType": "address",
                                "name": "sender",
                                "type": "address"
                            },
                            {
                                "internalType": "address",
                                "name": "feeRecipient",
                                "type": "address"
                            },
                            {
                                "internalType": "bytes32",
                                "name": "pool",
                                "type": "bytes32"
                            },
                            {
                                "internalType": "uint64",
                                "name": "expiry",
                                "type": "uint64"
                            },
                            {
                                "internalType": "uint256",
                                "name": "salt",
                                "type": "uint256"
                            }
                        ],
                        "internalType": "struct IExchange.LimitOrder",
                        "name": "order",
                        "type": "tuple"
                    },
                    {
                        "components": [
                            {
                                "internalType": "enum IExchange.SignatureType",
                                "name": "signatureType",
                                "type": "uint8"
                            },
                            {
                                "internalType": "uint8",
                                "name": "v",
                                "type": "uint8"
                            },
                            {
                                "internalType": "bytes32",
                                "name": "r",
                                "type": "bytes32"
                            },
                            {
                                "internalType": "bytes32",
                                "name": "s",
                                "type": "bytes32"
                            }
                        ],
                        "internalType": "struct IExchange.Signature",
                        "name": "signature",
                        "type": "tuple"
                    },
                    {
                        "internalType": "contract IExchange",
                        "name": "exchange",
                        "type": "address"
                    }
                ],
                "name": "getLimitOrderFillableTakerAmount",
                "outputs": [
                    {
                        "internalType": "uint256",
                        "name": "fillableTakerAmount",
                        "type": "uint256"
                    }
                ],
                "stateMutability": "view",
                "type": "function"
            },
            {
                "inputs": [
                    {
                        "components": [
                            {
                                "internalType": "contract IERC20TokenV06",
                                "name": "makerToken",
                                "type": "address"
                            },
                            {
                                "internalType": "contract IERC20TokenV06",
                                "name": "takerToken",
                                "type": "address"
                            },
                            {
                                "internalType": "uint128",
                                "name": "makerAmount",
                                "type": "uint128"
                            },
                            {
                                "internalType": "uint128",
                                "name": "takerAmount",
                                "type": "uint128"
                            },
                            {
                                "internalType": "uint128",
                                "name": "takerTokenFeeAmount",
                                "type": "uint128"
                            },
                            {
                                "internalType": "address",
                                "name": "maker",
                                "type": "address"
                            },
                            {
                                "internalType": "address",
                                "name": "taker",
                                "type": "address"
                            },
                            {
                                "internalType": "address",
                                "name": "sender",
                                "type": "address"
                            },
                            {
                                "internalType": "address",
                                "name": "feeRecipient",
                                "type": "address"
                            },
                            {
                                "internalType": "bytes32",
                                "name": "pool",
                                "type": "bytes32"
                            },
                            {
                                "internalType": "uint64",
                                "name": "expiry",
                                "type": "uint64"
                            },
                            {
                                "internalType": "uint256",
                                "name": "salt",
                                "type": "uint256"
                            }
                        ],
                        "internalType": "struct IExchange.LimitOrder[]",
                        "name": "orders",
                        "type": "tuple[]"
                    },
                    {
                        "components": [
                            {
                                "internalType": "enum IExchange.SignatureType",
                                "name": "signatureType",
                                "type": "uint8"
                            },
                            {
                                "internalType": "uint8",
                                "name": "v",
                                "type": "uint8"
                            },
                            {
                                "internalType": "bytes32",
                                "name": "r",
                                "type": "bytes32"
                            },
                            {
                                "internalType": "bytes32",
                                "name": "s",
                                "type": "bytes32"
                            }
                        ],
                        "internalType": "struct IExchange.Signature[]",
                        "name": "orderSignatures",
                        "type": "tuple[]"
                    },
                    {
                        "internalType": "contract IExchange",
                        "name": "exchange",
                        "type": "address"
                    }
                ],
                "name": "getLimitOrderFillableTakerAssetAmounts",
                "outputs": [
                    {
                        "internalType": "uint256[]",
                        "name": "orderFillableTakerAssetAmounts",
                        "type": "uint256[]"
                    }
                ],
                "stateMutability": "view",
                "type": "function"
            },
            {
                "inputs": [
                    {
                        "components": [
                            {
                                "internalType": "contract IERC20TokenV06",
                                "name": "makerToken",
                                "type": "address"
                            },
                            {
                                "internalType": "contract IERC20TokenV06",
                                "name": "takerToken",
                                "type": "address"
                            },
                            {
                                "internalType": "uint128",
                                "name": "makerAmount",
                                "type": "uint128"
                            },
                            {
                                "internalType": "uint128",
                                "name": "takerAmount",
                                "type": "uint128"
                            },
                            {
                                "internalType": "uint128",
                                "name": "takerTokenFeeAmount",
                                "type": "uint128"
                            },
                            {
                                "internalType": "address",
                                "name": "maker",
                                "type": "address"
                            },
                            {
                                "internalType": "address",
                                "name": "taker",
                                "type": "address"
                            },
                            {
                                "internalType": "address",
                                "name": "sender",
                                "type": "address"
                            },
                            {
                                "internalType": "address",
                                "name": "feeRecipient",
                                "type": "address"
                            },
                            {
                                "internalType": "bytes32",
                                "name": "pool",
                                "type": "bytes32"
                            },
                            {
                                "internalType": "uint64",
                                "name": "expiry",
                                "type": "uint64"
                            },
                            {
                                "internalType": "uint256",
                                "name": "salt",
                                "type": "uint256"
                            }
                        ],
                        "internalType": "struct IExchange.LimitOrder",
                        "name": "order",
                        "type": "tuple"
                    },
                    {
                        "components": [
                            {
                                "internalType": "enum IExchange.SignatureType",
                                "name": "signatureType",
                                "type": "uint8"
                            },
                            {
                                "internalType": "uint8",
                                "name": "v",
                                "type": "uint8"
                            },
                            {
                                "internalType": "bytes32",
                                "name": "r",
                                "type": "bytes32"
                            },
                            {
                                "internalType": "bytes32",
                                "name": "s",
                                "type": "bytes32"
                            }
                        ],
                        "internalType": "struct IExchange.Signature",
                        "name": "signature",
                        "type": "tuple"
                    }
                ],
                "name": "getLimitOrderRelevantState",
                "outputs": [
                    {
                        "components": [
                            {
                                "internalType": "bytes32",
                                "name": "orderHash",
                                "type": "bytes32"
                            },
                            {
                                "internalType": "enum IExchange.OrderStatus",
                                "name": "status",
                                "type": "uint8"
                            },
                            {
                                "internalType": "uint128",
                                "name": "takerTokenFilledAmount",
                                "type": "uint128"
                            }
                        ],
                        "internalType": "struct IExchange.OrderInfo",
                        "name": "orderInfo",
                        "type": "tuple"
                    },
                    {
                        "internalType": "uint128",
                        "name": "actualFillableTakerTokenAmount",
                        "type": "uint128"
                    },
                    {
                        "internalType": "bool",
                        "name": "isSignatureValid",
                        "type": "bool"
                    }
                ],
                "stateMutability": "view",
                "type": "function"
            },
            {
                "inputs": [
                    {
                        "internalType": "contract IERC20TokenV06[]",
                        "name": "tokens",
                        "type": "address[]"
                    }
                ],
                "name": "getTokenDecimals",
                "outputs": [
                    {
                        "internalType": "uint256[]",
                        "name": "decimals",
                        "type": "uint256[]"
                    }
                ],
                "stateMutability": "view",
                "type": "function"
            },
            {
                "inputs": [
                    {
                        "internalType": "address",
                        "name": "account",
                        "type": "address"
                    }
                ],
                "name": "isContract",
                "outputs": [
                    {
                        "internalType": "bool",
                        "name": "",
                        "type": "bool"
                    }
                ],
                "stateMutability": "view",
                "type": "function"
            },
            {
                "inputs": [
                    {
                        "internalType": "contract TestNativeOrderSamplerToken",
                        "name": "token",
                        "type": "address"
                    },
                    {
                        "internalType": "address",
                        "name": "owner",
                        "type": "address"
                    },
                    {
                        "internalType": "address",
                        "name": "spender",
                        "type": "address"
                    },
                    {
                        "internalType": "uint256",
                        "name": "balance",
                        "type": "uint256"
                    },
                    {
                        "internalType": "uint256",
                        "name": "allowance",
                        "type": "uint256"
                    }
                ],
                "name": "setTokenBalanceAndAllowance",
                "outputs": [],
                "stateMutability": "nonpayable",
                "type": "function"
            }
        ],
        "devdoc": {
            "kind": "dev",
            "methods": {
                "getLimitOrderFillableMakerAssetAmounts((address,address,uint128,uint128,uint128,address,address,address,address,bytes32,uint64,uint256)[],(uint8,uint8,bytes32,bytes32)[],address)": {
                    "details": "Queries the fillable taker asset amounts of native orders.      Effectively ignores orders that have empty signatures or",
                    "params": {
                        "exchange": "The V4 exchange.",
                        "orderSignatures": "Signatures for each respective order in `orders`.",
                        "orders": "Native orders to query."
                    },
                    "returns": {
                        "orderFillableMakerAssetAmounts": "How much maker asset can be filled         by each order in `orders`."
                    }
                },
                "getLimitOrderFillableTakerAmount((address,address,uint128,uint128,uint128,address,address,address,address,bytes32,uint64,uint256),(uint8,uint8,bytes32,bytes32),address)": {
                    "details": "Get the fillable taker amount of an order, taking into account      order state, maker fees, and maker balances."
                },
                "getLimitOrderFillableTakerAssetAmounts((address,address,uint128,uint128,uint128,address,address,address,address,bytes32,uint64,uint256)[],(uint8,uint8,bytes32,bytes32)[],address)": {
                    "details": "Queries the fillable taker asset amounts of native orders.      Effectively ignores orders that have empty signatures or      maker/taker asset amounts (returning 0).",
                    "params": {
                        "exchange": "The V4 exchange.",
                        "orderSignatures": "Signatures for each respective order in `orders`.",
                        "orders": "Native limit orders to query."
                    },
                    "returns": {
                        "orderFillableTakerAssetAmounts": "How much taker asset can be filled         by each order in `orders`."
                    }
                }
            },
            "version": 1
        },
        "evm": {
            "bytecode": {
                "linkReferences": {},
                "object": "0x60a06040527feeeeeeeeeeeeeeeeeeeeeeeeeeeeeeeeeeeeeeee00000000000000000000000060805234801561003457600080fd5b5060805160601c611f3c61005c60003980610567528061084552806109b35250611f3c6000f3fe608060405234801561001057600080fd5b50600436106100b45760003560e01c8063706e2f9b11610071578063706e2f9b146101545780637e1f2bb8146101675780639bf3ee3514610187578063bd71ecf61461019a578063c662178c146101ad578063e78ac045146101c2576100b4565b80631022742b146100b957806316279055146100e25780631fb097951461010257806342cbb15c1461012457806351be4eaa1461013957806366a1ac6b14610141575b600080fd5b6100cc6100c73660046114e1565b6101d5565b6040516100d99190611a09565b60405180910390f35b6100f56100f03660046113dc565b610348565b6040516100d99190611a1a565b6101156101103660046115c6565b610352565b6040516100d993929190611ac1565b61012c610453565b6040516100d99190611ae9565b61012c610457565b6100cc61014f3660046114e1565b61045f565b6100cc6101623660046113fa565b610514565b61017a610175366004611681565b610606565b6040516100d991906119f8565b61012c6101953660046115f8565b6106ab565b6100cc6101a836600461142e565b6107f2565b6101c06101bb366004611551565b6108f5565b005b6100cc6101d036600461147e565b610960565b606083516001600160401b03811180156101ee57600080fd5b50604051908082528060200260200182016040528015610218578160200160208202803683370190505b50905060005b8451811461034057306001600160a01b0316639bf3ee3562030d4087848151811061024557fe5b602002602001015187858151811061025957fe5b6020026020010151876040518563ffffffff1660e01b815260040161028093929190611a96565b60206040518083038187803b15801561029857600080fd5b5086fa935050505080156102c9575060408051601f3d908101601f191682019092526102c69181019061169f565b60015b61031d573d8080156102f7576040519150601f19603f3d011682016040523d82523d6000602084013e6102fc565b606091505b50600083838151811061030b57fe5b60200260200101818152505050610338565b8083838151811061032a57fe5b602002602001018181525050505b60010161021e565b509392505050565b803b15155b919050565b61035a610fda565b6000808461016001516040516020016103739190611ae9565b60408051601f198184030181529190528051602090910120835261016085015160ff90811614156103aa57600260208401526103b2565b600160208401525b506101408401516001600160401b0316604083810182905260608601518682015191860135600160f81b14926000926103fd929182036001600160801b039081169281169116610a55565b905061041a8161041588600001518960a00151610a73565b610b7b565b90506104496104448288604001516001600160801b031689606001516001600160801b0316610b91565b610bb5565b9250509250925092565b4390565b60005a905090565b606061046c8484846101d5565b905060005b84518110156103405781818151811061048657fe5b602002602001015160001461050c576104f38282815181106104a457fe5b60200260200101518683815181106104b857fe5b6020026020010151606001516001600160801b03168784815181106104d957fe5b6020026020010151604001516001600160801b0316610b91565b8282815181106104ff57fe5b6020026020010181815250505b600101610471565b606081516001600160401b038111801561052d57600080fd5b50604051908082528060200260200182016040528015610557578160200160208202803683370190505b50905060005b82518114610600577f00000000000000000000000000000000000000000000000000000000000000006001600160a01b031683828151811061059b57fe5b60200260200101516001600160a01b0316146105db576105d68382815181106105c057fe5b60200260200101516001600160a01b0316610bdd565b6105de565b60125b60ff168282815181106105ed57fe5b602090810291909101015260010161055d565b50919050565b6060816001600160401b038111801561061e57600080fd5b50604051908082528060200260200182016040528015610648578160200160208202803683370190505b50905060005b828110156106005760405161066290610ffc565b604051809103906000f08015801561067e573d6000803e3d6000fd5b5082828151811061068b57fe5b6001600160a01b039092166020928302919091019091015260010161064e565b600080835160038111156106bb57fe5b14806106d357506001835160038111156106d157fe5b145b806106e9575060408401516001600160801b0316155b806106ff575060608401516001600160801b0316155b1561070c575060006107eb565b610714610fda565b600080846001600160a01b0316631fb0979588886040518363ffffffff1660e01b8152600401610745929190611a79565b60a06040518083038186803b15801561075d57600080fd5b505afa158015610771573d6000803e3d6000fd5b505050506040513d601f19601f82011682018060405250810190610795919061163e565b919450925090506001836020015160048111156107ae57fe5b1415806107b9575080155b806107cc575086516001600160a01b0316155b156107dd57600093505050506107eb565b506001600160801b03169150505b9392505050565b606082516001600160401b038111801561080b57600080fd5b50604051908082528060200260200182016040528015610835578160200160208202803683370190505b50905060005b835181146108ee577f00000000000000000000000000000000000000000000000000000000000000006001600160a01b031684828151811061087957fe5b60200260200101516001600160a01b0316146108c3576108be8385838151811061089f57fe5b60200260200101516001600160a01b0316610c8990919063ffffffff16565b6108cf565b826001600160a01b0316315b8282815181106108db57fe5b602090810291909101015260010161083b565b5092915050565b604051633c9dc74d60e01b81526001600160a01b03861690633c9dc74d906109279087908790879087906004016119ba565b600060405180830381600087803b15801561094157600080fd5b505af1158015610955573d6000803e3d6000fd5b505050505050505050565b606083516001600160401b038111801561097957600080fd5b506040519080825280602002602001820160405280156109a3578160200160208202803683370190505b50905060005b84518114610340577f00000000000000000000000000000000000000000000000000000000000000006001600160a01b03168582815181106109e757fe5b60200260200101516001600160a01b031614610a3357610a2e8484878481518110610a0e57fe5b60200260200101516001600160a01b0316610d5e9092919063ffffffff16565b610a36565b60005b828281518110610a4257fe5b60209081029190910101526001016109a9565b6000610a6b83610a658685610e36565b90610e67565b949350505050565b6000610b72836001600160a01b031663dd62ed3e84306040518363ffffffff1660e01b8152600401610aa692919061199f565b60206040518083038186803b158015610abe57600080fd5b505afa158015610ad2573d6000803e3d6000fd5b505050506040513d601f19601f82011682018060405250810190610af6919061169f565b6040516370a0823160e01b81526001600160a01b038616906370a0823190610b22908790600401611991565b60206040518083038186803b158015610b3a57600080fd5b505afa158015610b4e573d6000803e3d6000fd5b505050506040513d601f19601f82011682018060405250810190610415919061169f565b90505b92915050565b6000818310610b8a5781610b72565b5090919050565b6000610a6b83610a65610ba5826001610e91565b610baf8887610e36565b90610eb0565b60006001600160801b03821115610bd957610bd9610bd4600384610ecc565b610f23565b5090565b60006012905060006060836001600160a01b031660405180604001604052806004815260200163313ce56760e01b815250604051610c1b9190611985565b600060405180830381855afa9150503d8060008114610c56576040519150601f19603f3d011682016040523d82523d6000602084013e610c5b565b606091505b5091509150818015610c6f57506020815110155b15610c8257610c7f816000610f2b565b92505b5050919050565b6000806060846001600160a01b03166370a0823160e01b85604051602401610cb19190611991565b60408051601f198184030181529181526020820180516001600160e01b03166001600160e01b0319909416939093179092529051610cef9190611985565b600060405180830381855afa9150503d8060008114610d2a576040519150601f19603f3d011682016040523d82523d6000602084013e610d2f565b606091505b5091509150818015610d4357506020815110155b15610d5657610d53816000610f2b565b92505b505092915050565b6000806060856001600160a01b031663dd62ed3e60e01b8686604051602401610d8892919061199f565b60408051601f198184030181529181526020820180516001600160e01b03166001600160e01b0319909416939093179092529051610dc69190611985565b600060405180830381855afa9150503d8060008114610e01576040519150601f19603f3d011682016040523d82523d6000602084013e610e06565b606091505b5091509150818015610e1a57506020815110155b15610e2d57610e2a816000610f2b565b92505b50509392505050565b600082610e4557506000610b75565b82820282848281610e5257fe5b0414610b7257610b72610bd460018686610f37565b600081610e7d57610e7d610bd460038585610f37565b6000828481610e8857fe5b04949350505050565b600082821115610eaa57610eaa610bd460028585610f37565b50900390565b600082820183811015610b7257610b72610bd460008686610f37565b606063c996af7b60e01b8383604051602401610ee9929190611a50565b60408051601f198184030181529190526020810180516001600160e01b03166001600160e01b031990931692909217909152905092915050565b805160208201fd5b6000610b728383610f91565b606063e946c1bb60e01b848484604051602401610f5693929190611a28565b60408051601f198184030181529190526020810180516001600160e01b03166001600160e01b03199093169290921790915290509392505050565b60008160200183511015610fb257610fb2610bd46005855185602001610fbb565b50016020015190565b6060632800659560e01b848484604051602401610f5693929190611a6b565b6040805160608101909152600080825260208201908152600060209091015290565b61027e80611c8983390190565b8035610b7581611c24565b600082601f83011261102557600080fd5b813561103861103382611b1d565b611af7565b9150818183526020840193506020810190508385602084028201111561105d57600080fd5b60005b838110156110895781611073888261119a565b8452506020928301929190910190600101611060565b5050505092915050565b600082601f8301126110a457600080fd5b81356110b261103382611b1d565b91508181835260208401935060208101905083856101808402820111156110d857600080fd5b60005b8381101561108957816110ee88826111bb565b84525060209092019161018091909101906001016110db565b600082601f83011261111857600080fd5b813561112661103382611b1d565b9150818183526020840193506020810190508385608084028201111561114b57600080fd5b60005b8381101561108957816111618882611341565b8452506020909201916080919091019060010161114e565b8051610b7581611c38565b8035610b7581611c41565b8051610b7581611c41565b8035610b7581611c4a565b8051610b7581611c53565b8035610b7581611c60565b600061018082840312156111ce57600080fd5b6111d9610180611af7565b905060006111e7848461119a565b82525060206111f88484830161119a565b602083015250604061120c848285016113b0565b6040830152506060611220848285016113b0565b6060830152506080611234848285016113b0565b60808301525060a061124884828501611009565b60a08301525060c061125c84828501611009565b60c08301525060e061127084828501611009565b60e08301525061010061128584828501611009565b6101008301525061012061129b84828501611184565b610120830152506101406112b1848285016113c6565b610140830152506101606112c784828501611184565b6101608301525092915050565b6000606082840312156112e657600080fd5b6112f06060611af7565b905060006112fe848461118f565b825250602061130f848483016111a5565b6020830152506040611323848285016113bb565b60408301525092915050565b60006080828403121561060057600080fd5b60006080828403121561135357600080fd5b61135d6080611af7565b9050600061136b84846111b0565b825250602061137c848483016113d1565b602083015250604061139084828501611184565b60408301525060606113a484828501611184565b60608301525092915050565b8035610b7581611c6d565b8051610b7581611c6d565b8035610b7581611c76565b8035610b7581611c7f565b6000602082840312156113ee57600080fd5b6000610a6b8484611009565b60006020828403121561140c57600080fd5b81356001600160401b0381111561142257600080fd5b610a6b84828501611014565b6000806040838503121561144157600080fd5b82356001600160401b0381111561145757600080fd5b61146385828601611014565b925050602061147485828601611009565b9150509250929050565b60008060006060848603121561149357600080fd5b83356001600160401b038111156114a957600080fd5b6114b586828701611014565b93505060206114c686828701611009565b92505060406114d786828701611009565b9150509250925092565b6000806000606084860312156114f657600080fd5b83356001600160401b0381111561150c57600080fd5b61151886828701611093565b93505060208401356001600160401b0381111561153457600080fd5b61154086828701611107565b92505060406114d78682870161119a565b600080600080600060a0868803121561156957600080fd5b6000611575888861119a565b955050602061158688828901611009565b945050604061159788828901611009565b93505060606115a888828901611184565b92505060806115b988828901611184565b9150509295509295909350565b60008061020083850312156115da57600080fd5b60006115e685856111bb565b9250506101806114748582860161132f565b6000806000610220848603121561160e57600080fd5b600061161a86866111bb565b93505061018061162c86828701611341565b9250506102006114d78682870161119a565b600080600060a0848603121561165357600080fd5b600061165f86866112d4565b9350506060611670868287016113bb565b92505060806114d786828701611179565b60006020828403121561169357600080fd5b6000610a6b8484611184565b6000602082840312156116b157600080fd5b6000610a6b848461118f565b60006116c983836117d4565b505060200190565b60006116c9838361179c565b6116e681611b50565b82525050565b60006116f782611b43565b6117018185611b47565b935061170c83611b3d565b8060005b8381101561173a57815161172488826116bd565b975061172f83611b3d565b925050600101611710565b509495945050505050565b600061175082611b43565b61175a8185611b47565b935061176583611b3d565b8060005b8381101561173a57815161177d88826116d1565b975061178883611b3d565b925050600101611769565b6116e681611b5b565b6116e681611b60565b60006117b082611b43565b6117ba818561034d565b93506117ca818560208601611bd7565b9290920192915050565b6116e681611b63565b6116e681611bb6565b6116e681611bc1565b6116e681611bcc565b805161018083019061180a84826117d4565b50602082015161181d60208501826117d4565b506040820151611830604085018261196a565b506060820151611843606085018261196a565b506080820151611856608085018261196a565b5060a082015161186960a08501826116dd565b5060c082015161187c60c08501826116dd565b5060e082015161188f60e08501826116dd565b506101008201516118a46101008501826116dd565b506101208201516118b961012085018261179c565b506101408201516118ce610140850182611973565b506101608201516118e361016085018261179c565b50505050565b805160608301906118fa848261179c565b50602082015161190d60208501826117ef565b5060408201516118e3604085018261196a565b8051608083019061193184826117dd565b506020820151611944602085018261197c565b506040820151611957604085018261179c565b5060608201516118e3606085018261179c565b6116e681611b8c565b6116e681611ba4565b6116e681611bb0565b60006107eb82846117a5565b60208101610b7582846116dd565b604081016119ad82856116dd565b6107eb60208301846116dd565b608081016119c882876116dd565b6119d560208301866116dd565b6119e2604083018561179c565b6119ef606083018461179c565b95945050505050565b60208082528101610b7281846116ec565b60208082528101610b728184611745565b60208101610b758284611793565b60608101611a3682866117dd565b611a43602083018561179c565b610a6b604083018461179c565b60408101611a5e82856117dd565b6107eb602083018461179c565b60608101611a3682866117e6565b6102008101611a8882856117f8565b6107eb610180830184611920565b6102208101611aa582866117f8565b611ab3610180830185611920565b610a6b6102008301846117d4565b60a08101611acf82866118e9565b611adc606083018561196a565b610a6b6080830184611793565b60208101610b75828461179c565b6040518181016001600160401b0381118282101715611b1557600080fd5b604052919050565b60006001600160401b03821115611b3357600080fd5b5060209081020190565b60200190565b5190565b90815260200190565b6000610b7582611b98565b151590565b90565b6000610b7582611b50565b8061034d81611c03565b8061034d81611c10565b8061034d81611c1a565b6001600160801b031690565b6001600160a01b031690565b6001600160401b031690565b60ff1690565b6000610b7582611b6e565b6000610b7582611b78565b6000610b7582611b82565b60005b83811015611bf2578181015183820152602001611bda565b838111156118e35750506000910152565b60048110611c0d57fe5b50565b60088110611c0d57fe5b60058110611c0d57fe5b611c2d81611b50565b8114611c0d57600080fd5b611c2d81611b5b565b611c2d81611b60565b611c2d81611b63565b60058110611c0d57600080fd5b60048110611c0d57600080fd5b611c2d81611b8c565b611c2d81611ba4565b611c2d81611bb056fe608060405234801561001057600080fd5b5061025e806100206000396000f3fe608060405234801561001057600080fd5b50600436106100415760003560e01c80633c9dc74d1461004657806370a082311461005b578063dd62ed3e14610084575b600080fd5b610059610054366004610176565b610097565b005b61006e610069366004610116565b6100cb565b60405161007b91906101e6565b60405180910390f35b61006e61009236600461013c565b6100dd565b6001600160a01b03938416600090815260208181526040808320949094556001815283822094909516815292909352902055565b60006020819052908152604090205481565b600160209081526000928352604080842090915290825290205481565b803561010581610208565b92915050565b80356101058161021f565b60006020828403121561012857600080fd5b600061013484846100fa565b949350505050565b6000806040838503121561014f57600080fd5b600061015b85856100fa565b925050602061016c858286016100fa565b9150509250929050565b6000806000806080858703121561018c57600080fd5b600061019887876100fa565b94505060206101a9878288016100fa565b93505060406101ba8782880161010b565b92505060606101cb8782880161010b565b91505092959194509250565b6101e081610205565b82525050565b6020810161010582846101d7565b60006001600160a01b038216610105565b90565b610211816101f4565b811461021c57600080fd5b50565b6102118161020556fea26469706673582212209f11661bcf6f65c9dacb4e32b63887630460b9812b04a11ea87391c49a93ffbb64736f6c634300060c0033a2646970667358221220884e59b9d05bb14a2cb1a9e37557ad2ffee324d199ed1df25512ee333138e88864736f6c634300060c0033",
                "opcodes": "PUSH1 0xA0 PUSH1 0x40 MSTORE PUSH32 0xEEEEEEEEEEEEEEEEEEEEEEEEEEEEEEEEEEEEEEEE000000000000000000000000 PUSH1 0x80 MSTORE CALLVALUE DUP1 ISZERO PUSH2 0x34 JUMPI PUSH1 0x0 DUP1 REVERT JUMPDEST POP PUSH1 0x80 MLOAD PUSH1 0x60 SHR PUSH2 0x1F3C PUSH2 0x5C PUSH1 0x0 CODECOPY DUP1 PUSH2 0x567 MSTORE DUP1 PUSH2 0x845 MSTORE DUP1 PUSH2 0x9B3 MSTORE POP PUSH2 0x1F3C PUSH1 0x0 RETURN INVALID PUSH1 0x80 PUSH1 0x40 MSTORE CALLVALUE DUP1 ISZERO PUSH2 0x10 JUMPI PUSH1 0x0 DUP1 REVERT JUMPDEST POP PUSH1 0x4 CALLDATASIZE LT PUSH2 0xB4 JUMPI PUSH1 0x0 CALLDATALOAD PUSH1 0xE0 SHR DUP1 PUSH4 0x706E2F9B GT PUSH2 0x71 JUMPI DUP1 PUSH4 0x706E2F9B EQ PUSH2 0x154 JUMPI DUP1 PUSH4 0x7E1F2BB8 EQ PUSH2 0x167 JUMPI DUP1 PUSH4 0x9BF3EE35 EQ PUSH2 0x187 JUMPI DUP1 PUSH4 0xBD71ECF6 EQ PUSH2 0x19A JUMPI DUP1 PUSH4 0xC662178C EQ PUSH2 0x1AD JUMPI DUP1 PUSH4 0xE78AC045 EQ PUSH2 0x1C2 JUMPI PUSH2 0xB4 JUMP JUMPDEST DUP1 PUSH4 0x1022742B EQ PUSH2 0xB9 JUMPI DUP1 PUSH4 0x16279055 EQ PUSH2 0xE2 JUMPI DUP1 PUSH4 0x1FB09795 EQ PUSH2 0x102 JUMPI DUP1 PUSH4 0x42CBB15C EQ PUSH2 0x124 JUMPI DUP1 PUSH4 0x51BE4EAA EQ PUSH2 0x139 JUMPI DUP1 PUSH4 0x66A1AC6B EQ PUSH2 0x141 JUMPI JUMPDEST PUSH1 0x0 DUP1 REVERT JUMPDEST PUSH2 0xCC PUSH2 0xC7 CALLDATASIZE PUSH1 0x4 PUSH2 0x14E1 JUMP JUMPDEST PUSH2 0x1D5 JUMP JUMPDEST PUSH1 0x40 MLOAD PUSH2 0xD9 SWAP2 SWAP1 PUSH2 0x1A09 JUMP JUMPDEST PUSH1 0x40 MLOAD DUP1 SWAP2 SUB SWAP1 RETURN JUMPDEST PUSH2 0xF5 PUSH2 0xF0 CALLDATASIZE PUSH1 0x4 PUSH2 0x13DC JUMP JUMPDEST PUSH2 0x348 JUMP JUMPDEST PUSH1 0x40 MLOAD PUSH2 0xD9 SWAP2 SWAP1 PUSH2 0x1A1A JUMP JUMPDEST PUSH2 0x115 PUSH2 0x110 CALLDATASIZE PUSH1 0x4 PUSH2 0x15C6 JUMP JUMPDEST PUSH2 0x352 JUMP JUMPDEST PUSH1 0x40 MLOAD PUSH2 0xD9 SWAP4 SWAP3 SWAP2 SWAP1 PUSH2 0x1AC1 JUMP JUMPDEST PUSH2 0x12C PUSH2 0x453 JUMP JUMPDEST PUSH1 0x40 MLOAD PUSH2 0xD9 SWAP2 SWAP1 PUSH2 0x1AE9 JUMP JUMPDEST PUSH2 0x12C PUSH2 0x457 JUMP JUMPDEST PUSH2 0xCC PUSH2 0x14F CALLDATASIZE PUSH1 0x4 PUSH2 0x14E1 JUMP JUMPDEST PUSH2 0x45F JUMP JUMPDEST PUSH2 0xCC PUSH2 0x162 CALLDATASIZE PUSH1 0x4 PUSH2 0x13FA JUMP JUMPDEST PUSH2 0x514 JUMP JUMPDEST PUSH2 0x17A PUSH2 0x175 CALLDATASIZE PUSH1 0x4 PUSH2 0x1681 JUMP JUMPDEST PUSH2 0x606 JUMP JUMPDEST PUSH1 0x40 MLOAD PUSH2 0xD9 SWAP2 SWAP1 PUSH2 0x19F8 JUMP JUMPDEST PUSH2 0x12C PUSH2 0x195 CALLDATASIZE PUSH1 0x4 PUSH2 0x15F8 JUMP JUMPDEST PUSH2 0x6AB JUMP JUMPDEST PUSH2 0xCC PUSH2 0x1A8 CALLDATASIZE PUSH1 0x4 PUSH2 0x142E JUMP JUMPDEST PUSH2 0x7F2 JUMP JUMPDEST PUSH2 0x1C0 PUSH2 0x1BB CALLDATASIZE PUSH1 0x4 PUSH2 0x1551 JUMP JUMPDEST PUSH2 0x8F5 JUMP JUMPDEST STOP JUMPDEST PUSH2 0xCC PUSH2 0x1D0 CALLDATASIZE PUSH1 0x4 PUSH2 0x147E JUMP JUMPDEST PUSH2 0x960 JUMP JUMPDEST PUSH1 0x60 DUP4 MLOAD PUSH1 0x1 PUSH1 0x1 PUSH1 0x40 SHL SUB DUP2 GT DUP1 ISZERO PUSH2 0x1EE JUMPI PUSH1 0x0 DUP1 REVERT JUMPDEST POP PUSH1 0x40 MLOAD SWAP1 DUP1 DUP3 MSTORE DUP1 PUSH1 0x20 MUL PUSH1 0x20 ADD DUP3 ADD PUSH1 0x40 MSTORE DUP1 ISZERO PUSH2 0x218 JUMPI DUP2 PUSH1 0x20 ADD PUSH1 0x20 DUP3 MUL DUP1 CALLDATASIZE DUP4 CALLDATACOPY ADD SWAP1 POP JUMPDEST POP SWAP1 POP PUSH1 0x0 JUMPDEST DUP5 MLOAD DUP2 EQ PUSH2 0x340 JUMPI ADDRESS PUSH1 0x1 PUSH1 0x1 PUSH1 0xA0 SHL SUB AND PUSH4 0x9BF3EE35 PUSH3 0x30D40 DUP8 DUP5 DUP2 MLOAD DUP2 LT PUSH2 0x245 JUMPI INVALID JUMPDEST PUSH1 0x20 MUL PUSH1 0x20 ADD ADD MLOAD DUP8 DUP6 DUP2 MLOAD DUP2 LT PUSH2 0x259 JUMPI INVALID JUMPDEST PUSH1 0x20 MUL PUSH1 0x20 ADD ADD MLOAD DUP8 PUSH1 0x40 MLOAD DUP6 PUSH4 0xFFFFFFFF AND PUSH1 0xE0 SHL DUP2 MSTORE PUSH1 0x4 ADD PUSH2 0x280 SWAP4 SWAP3 SWAP2 SWAP1 PUSH2 0x1A96 JUMP JUMPDEST PUSH1 0x20 PUSH1 0x40 MLOAD DUP1 DUP4 SUB DUP2 DUP8 DUP1 EXTCODESIZE ISZERO DUP1 ISZERO PUSH2 0x298 JUMPI PUSH1 0x0 DUP1 REVERT JUMPDEST POP DUP7 STATICCALL SWAP4 POP POP POP POP DUP1 ISZERO PUSH2 0x2C9 JUMPI POP PUSH1 0x40 DUP1 MLOAD PUSH1 0x1F RETURNDATASIZE SWAP1 DUP2 ADD PUSH1 0x1F NOT AND DUP3 ADD SWAP1 SWAP3 MSTORE PUSH2 0x2C6 SWAP2 DUP2 ADD SWAP1 PUSH2 0x169F JUMP JUMPDEST PUSH1 0x1 JUMPDEST PUSH2 0x31D JUMPI RETURNDATASIZE DUP1 DUP1 ISZERO PUSH2 0x2F7 JUMPI PUSH1 0x40 MLOAD SWAP2 POP PUSH1 0x1F NOT PUSH1 0x3F RETURNDATASIZE ADD AND DUP3 ADD PUSH1 0x40 MSTORE RETURNDATASIZE DUP3 MSTORE RETURNDATASIZE PUSH1 0x0 PUSH1 0x20 DUP5 ADD RETURNDATACOPY PUSH2 0x2FC JUMP JUMPDEST PUSH1 0x60 SWAP2 POP JUMPDEST POP PUSH1 0x0 DUP4 DUP4 DUP2 MLOAD DUP2 LT PUSH2 0x30B JUMPI INVALID JUMPDEST PUSH1 0x20 MUL PUSH1 0x20 ADD ADD DUP2 DUP2 MSTORE POP POP POP PUSH2 0x338 JUMP JUMPDEST DUP1 DUP4 DUP4 DUP2 MLOAD DUP2 LT PUSH2 0x32A JUMPI INVALID JUMPDEST PUSH1 0x20 MUL PUSH1 0x20 ADD ADD DUP2 DUP2 MSTORE POP POP POP JUMPDEST PUSH1 0x1 ADD PUSH2 0x21E JUMP JUMPDEST POP SWAP4 SWAP3 POP POP POP JUMP JUMPDEST DUP1 EXTCODESIZE ISZERO ISZERO JUMPDEST SWAP2 SWAP1 POP JUMP JUMPDEST PUSH2 0x35A PUSH2 0xFDA JUMP JUMPDEST PUSH1 0x0 DUP1 DUP5 PUSH2 0x160 ADD MLOAD PUSH1 0x40 MLOAD PUSH1 0x20 ADD PUSH2 0x373 SWAP2 SWAP1 PUSH2 0x1AE9 JUMP JUMPDEST PUSH1 0x40 DUP1 MLOAD PUSH1 0x1F NOT DUP2 DUP5 SUB ADD DUP2 MSTORE SWAP2 SWAP1 MSTORE DUP1 MLOAD PUSH1 0x20 SWAP1 SWAP2 ADD KECCAK256 DUP4 MSTORE PUSH2 0x160 DUP6 ADD MLOAD PUSH1 0xFF SWAP1 DUP2 AND EQ ISZERO PUSH2 0x3AA JUMPI PUSH1 0x2 PUSH1 0x20 DUP5 ADD MSTORE PUSH2 0x3B2 JUMP JUMPDEST PUSH1 0x1 PUSH1 0x20 DUP5 ADD MSTORE JUMPDEST POP PUSH2 0x140 DUP5 ADD MLOAD PUSH1 0x1 PUSH1 0x1 PUSH1 0x40 SHL SUB AND PUSH1 0x40 DUP4 DUP2 ADD DUP3 SWAP1 MSTORE PUSH1 0x60 DUP7 ADD MLOAD DUP7 DUP3 ADD MLOAD SWAP2 DUP7 ADD CALLDATALOAD PUSH1 0x1 PUSH1 0xF8 SHL EQ SWAP3 PUSH1 0x0 SWAP3 PUSH2 0x3FD SWAP3 SWAP2 DUP3 SUB PUSH1 0x1 PUSH1 0x1 PUSH1 0x80 SHL SUB SWAP1 DUP2 AND SWAP3 DUP2 AND SWAP2 AND PUSH2 0xA55 JUMP JUMPDEST SWAP1 POP PUSH2 0x41A DUP2 PUSH2 0x415 DUP9 PUSH1 0x0 ADD MLOAD DUP10 PUSH1 0xA0 ADD MLOAD PUSH2 0xA73 JUMP JUMPDEST PUSH2 0xB7B JUMP JUMPDEST SWAP1 POP PUSH2 0x449 PUSH2 0x444 DUP3 DUP9 PUSH1 0x40 ADD MLOAD PUSH1 0x1 PUSH1 0x1 PUSH1 0x80 SHL SUB AND DUP10 PUSH1 0x60 ADD MLOAD PUSH1 0x1 PUSH1 0x1 PUSH1 0x80 SHL SUB AND PUSH2 0xB91 JUMP JUMPDEST PUSH2 0xBB5 JUMP JUMPDEST SWAP3 POP POP SWAP3 POP SWAP3 POP SWAP3 JUMP JUMPDEST NUMBER SWAP1 JUMP JUMPDEST PUSH1 0x0 GAS SWAP1 POP SWAP1 JUMP JUMPDEST PUSH1 0x60 PUSH2 0x46C DUP5 DUP5 DUP5 PUSH2 0x1D5 JUMP JUMPDEST SWAP1 POP PUSH1 0x0 JUMPDEST DUP5 MLOAD DUP2 LT ISZERO PUSH2 0x340 JUMPI DUP2 DUP2 DUP2 MLOAD DUP2 LT PUSH2 0x486 JUMPI INVALID JUMPDEST PUSH1 0x20 MUL PUSH1 0x20 ADD ADD MLOAD PUSH1 0x0 EQ PUSH2 0x50C JUMPI PUSH2 0x4F3 DUP3 DUP3 DUP2 MLOAD DUP2 LT PUSH2 0x4A4 JUMPI INVALID JUMPDEST PUSH1 0x20 MUL PUSH1 0x20 ADD ADD MLOAD DUP7 DUP4 DUP2 MLOAD DUP2 LT PUSH2 0x4B8 JUMPI INVALID JUMPDEST PUSH1 0x20 MUL PUSH1 0x20 ADD ADD MLOAD PUSH1 0x60 ADD MLOAD PUSH1 0x1 PUSH1 0x1 PUSH1 0x80 SHL SUB AND DUP8 DUP5 DUP2 MLOAD DUP2 LT PUSH2 0x4D9 JUMPI INVALID JUMPDEST PUSH1 0x20 MUL PUSH1 0x20 ADD ADD MLOAD PUSH1 0x40 ADD MLOAD PUSH1 0x1 PUSH1 0x1 PUSH1 0x80 SHL SUB AND PUSH2 0xB91 JUMP JUMPDEST DUP3 DUP3 DUP2 MLOAD DUP2 LT PUSH2 0x4FF JUMPI INVALID JUMPDEST PUSH1 0x20 MUL PUSH1 0x20 ADD ADD DUP2 DUP2 MSTORE POP POP JUMPDEST PUSH1 0x1 ADD PUSH2 0x471 JUMP JUMPDEST PUSH1 0x60 DUP2 MLOAD PUSH1 0x1 PUSH1 0x1 PUSH1 0x40 SHL SUB DUP2 GT DUP1 ISZERO PUSH2 0x52D JUMPI PUSH1 0x0 DUP1 REVERT JUMPDEST POP PUSH1 0x40 MLOAD SWAP1 DUP1 DUP3 MSTORE DUP1 PUSH1 0x20 MUL PUSH1 0x20 ADD DUP3 ADD PUSH1 0x40 MSTORE DUP1 ISZERO PUSH2 0x557 JUMPI DUP2 PUSH1 0x20 ADD PUSH1 0x20 DUP3 MUL DUP1 CALLDATASIZE DUP4 CALLDATACOPY ADD SWAP1 POP JUMPDEST POP SWAP1 POP PUSH1 0x0 JUMPDEST DUP3 MLOAD DUP2 EQ PUSH2 0x600 JUMPI PUSH32 0x0 PUSH1 0x1 PUSH1 0x1 PUSH1 0xA0 SHL SUB AND DUP4 DUP3 DUP2 MLOAD DUP2 LT PUSH2 0x59B JUMPI INVALID JUMPDEST PUSH1 0x20 MUL PUSH1 0x20 ADD ADD MLOAD PUSH1 0x1 PUSH1 0x1 PUSH1 0xA0 SHL SUB AND EQ PUSH2 0x5DB JUMPI PUSH2 0x5D6 DUP4 DUP3 DUP2 MLOAD DUP2 LT PUSH2 0x5C0 JUMPI INVALID JUMPDEST PUSH1 0x20 MUL PUSH1 0x20 ADD ADD MLOAD PUSH1 0x1 PUSH1 0x1 PUSH1 0xA0 SHL SUB AND PUSH2 0xBDD JUMP JUMPDEST PUSH2 0x5DE JUMP JUMPDEST PUSH1 0x12 JUMPDEST PUSH1 0xFF AND DUP3 DUP3 DUP2 MLOAD DUP2 LT PUSH2 0x5ED JUMPI INVALID JUMPDEST PUSH1 0x20 SWAP1 DUP2 MUL SWAP2 SWAP1 SWAP2 ADD ADD MSTORE PUSH1 0x1 ADD PUSH2 0x55D JUMP JUMPDEST POP SWAP2 SWAP1 POP JUMP JUMPDEST PUSH1 0x60 DUP2 PUSH1 0x1 PUSH1 0x1 PUSH1 0x40 SHL SUB DUP2 GT DUP1 ISZERO PUSH2 0x61E JUMPI PUSH1 0x0 DUP1 REVERT JUMPDEST POP PUSH1 0x40 MLOAD SWAP1 DUP1 DUP3 MSTORE DUP1 PUSH1 0x20 MUL PUSH1 0x20 ADD DUP3 ADD PUSH1 0x40 MSTORE DUP1 ISZERO PUSH2 0x648 JUMPI DUP2 PUSH1 0x20 ADD PUSH1 0x20 DUP3 MUL DUP1 CALLDATASIZE DUP4 CALLDATACOPY ADD SWAP1 POP JUMPDEST POP SWAP1 POP PUSH1 0x0 JUMPDEST DUP3 DUP2 LT ISZERO PUSH2 0x600 JUMPI PUSH1 0x40 MLOAD PUSH2 0x662 SWAP1 PUSH2 0xFFC JUMP JUMPDEST PUSH1 0x40 MLOAD DUP1 SWAP2 SUB SWAP1 PUSH1 0x0 CREATE DUP1 ISZERO DUP1 ISZERO PUSH2 0x67E JUMPI RETURNDATASIZE PUSH1 0x0 DUP1 RETURNDATACOPY RETURNDATASIZE PUSH1 0x0 REVERT JUMPDEST POP DUP3 DUP3 DUP2 MLOAD DUP2 LT PUSH2 0x68B JUMPI INVALID JUMPDEST PUSH1 0x1 PUSH1 0x1 PUSH1 0xA0 SHL SUB SWAP1 SWAP3 AND PUSH1 0x20 SWAP3 DUP4 MUL SWAP2 SWAP1 SWAP2 ADD SWAP1 SWAP2 ADD MSTORE PUSH1 0x1 ADD PUSH2 0x64E JUMP JUMPDEST PUSH1 0x0 DUP1 DUP4 MLOAD PUSH1 0x3 DUP2 GT ISZERO PUSH2 0x6BB JUMPI INVALID JUMPDEST EQ DUP1 PUSH2 0x6D3 JUMPI POP PUSH1 0x1 DUP4 MLOAD PUSH1 0x3 DUP2 GT ISZERO PUSH2 0x6D1 JUMPI INVALID JUMPDEST EQ JUMPDEST DUP1 PUSH2 0x6E9 JUMPI POP PUSH1 0x40 DUP5 ADD MLOAD PUSH1 0x1 PUSH1 0x1 PUSH1 0x80 SHL SUB AND ISZERO JUMPDEST DUP1 PUSH2 0x6FF JUMPI POP PUSH1 0x60 DUP5 ADD MLOAD PUSH1 0x1 PUSH1 0x1 PUSH1 0x80 SHL SUB AND ISZERO JUMPDEST ISZERO PUSH2 0x70C JUMPI POP PUSH1 0x0 PUSH2 0x7EB JUMP JUMPDEST PUSH2 0x714 PUSH2 0xFDA JUMP JUMPDEST PUSH1 0x0 DUP1 DUP5 PUSH1 0x1 PUSH1 0x1 PUSH1 0xA0 SHL SUB AND PUSH4 0x1FB09795 DUP9 DUP9 PUSH1 0x40 MLOAD DUP4 PUSH4 0xFFFFFFFF AND PUSH1 0xE0 SHL DUP2 MSTORE PUSH1 0x4 ADD PUSH2 0x745 SWAP3 SWAP2 SWAP1 PUSH2 0x1A79 JUMP JUMPDEST PUSH1 0xA0 PUSH1 0x40 MLOAD DUP1 DUP4 SUB DUP2 DUP7 DUP1 EXTCODESIZE ISZERO DUP1 ISZERO PUSH2 0x75D JUMPI PUSH1 0x0 DUP1 REVERT JUMPDEST POP GAS STATICCALL ISZERO DUP1 ISZERO PUSH2 0x771 JUMPI RETURNDATASIZE PUSH1 0x0 DUP1 RETURNDATACOPY RETURNDATASIZE PUSH1 0x0 REVERT JUMPDEST POP POP POP POP PUSH1 0x40 MLOAD RETURNDATASIZE PUSH1 0x1F NOT PUSH1 0x1F DUP3 ADD AND DUP3 ADD DUP1 PUSH1 0x40 MSTORE POP DUP2 ADD SWAP1 PUSH2 0x795 SWAP2 SWAP1 PUSH2 0x163E JUMP JUMPDEST SWAP2 SWAP5 POP SWAP3 POP SWAP1 POP PUSH1 0x1 DUP4 PUSH1 0x20 ADD MLOAD PUSH1 0x4 DUP2 GT ISZERO PUSH2 0x7AE JUMPI INVALID JUMPDEST EQ ISZERO DUP1 PUSH2 0x7B9 JUMPI POP DUP1 ISZERO JUMPDEST DUP1 PUSH2 0x7CC JUMPI POP DUP7 MLOAD PUSH1 0x1 PUSH1 0x1 PUSH1 0xA0 SHL SUB AND ISZERO JUMPDEST ISZERO PUSH2 0x7DD JUMPI PUSH1 0x0 SWAP4 POP POP POP POP PUSH2 0x7EB JUMP JUMPDEST POP PUSH1 0x1 PUSH1 0x1 PUSH1 0x80 SHL SUB AND SWAP2 POP POP JUMPDEST SWAP4 SWAP3 POP POP POP JUMP JUMPDEST PUSH1 0x60 DUP3 MLOAD PUSH1 0x1 PUSH1 0x1 PUSH1 0x40 SHL SUB DUP2 GT DUP1 ISZERO PUSH2 0x80B JUMPI PUSH1 0x0 DUP1 REVERT JUMPDEST POP PUSH1 0x40 MLOAD SWAP1 DUP1 DUP3 MSTORE DUP1 PUSH1 0x20 MUL PUSH1 0x20 ADD DUP3 ADD PUSH1 0x40 MSTORE DUP1 ISZERO PUSH2 0x835 JUMPI DUP2 PUSH1 0x20 ADD PUSH1 0x20 DUP3 MUL DUP1 CALLDATASIZE DUP4 CALLDATACOPY ADD SWAP1 POP JUMPDEST POP SWAP1 POP PUSH1 0x0 JUMPDEST DUP4 MLOAD DUP2 EQ PUSH2 0x8EE JUMPI PUSH32 0x0 PUSH1 0x1 PUSH1 0x1 PUSH1 0xA0 SHL SUB AND DUP5 DUP3 DUP2 MLOAD DUP2 LT PUSH2 0x879 JUMPI INVALID JUMPDEST PUSH1 0x20 MUL PUSH1 0x20 ADD ADD MLOAD PUSH1 0x1 PUSH1 0x1 PUSH1 0xA0 SHL SUB AND EQ PUSH2 0x8C3 JUMPI PUSH2 0x8BE DUP4 DUP6 DUP4 DUP2 MLOAD DUP2 LT PUSH2 0x89F JUMPI INVALID JUMPDEST PUSH1 0x20 MUL PUSH1 0x20 ADD ADD MLOAD PUSH1 0x1 PUSH1 0x1 PUSH1 0xA0 SHL SUB AND PUSH2 0xC89 SWAP1 SWAP2 SWAP1 PUSH4 0xFFFFFFFF AND JUMP JUMPDEST PUSH2 0x8CF JUMP JUMPDEST DUP3 PUSH1 0x1 PUSH1 0x1 PUSH1 0xA0 SHL SUB AND BALANCE JUMPDEST DUP3 DUP3 DUP2 MLOAD DUP2 LT PUSH2 0x8DB JUMPI INVALID JUMPDEST PUSH1 0x20 SWAP1 DUP2 MUL SWAP2 SWAP1 SWAP2 ADD ADD MSTORE PUSH1 0x1 ADD PUSH2 0x83B JUMP JUMPDEST POP SWAP3 SWAP2 POP POP JUMP JUMPDEST PUSH1 0x40 MLOAD PUSH4 0x3C9DC74D PUSH1 0xE0 SHL DUP2 MSTORE PUSH1 0x1 PUSH1 0x1 PUSH1 0xA0 SHL SUB DUP7 AND SWAP1 PUSH4 0x3C9DC74D SWAP1 PUSH2 0x927 SWAP1 DUP8 SWAP1 DUP8 SWAP1 DUP8 SWAP1 DUP8 SWAP1 PUSH1 0x4 ADD PUSH2 0x19BA JUMP JUMPDEST PUSH1 0x0 PUSH1 0x40 MLOAD DUP1 DUP4 SUB DUP2 PUSH1 0x0 DUP8 DUP1 EXTCODESIZE ISZERO DUP1 ISZERO PUSH2 0x941 JUMPI PUSH1 0x0 DUP1 REVERT JUMPDEST POP GAS CALL ISZERO DUP1 ISZERO PUSH2 0x955 JUMPI RETURNDATASIZE PUSH1 0x0 DUP1 RETURNDATACOPY RETURNDATASIZE PUSH1 0x0 REVERT JUMPDEST POP POP POP POP POP POP POP POP POP JUMP JUMPDEST PUSH1 0x60 DUP4 MLOAD PUSH1 0x1 PUSH1 0x1 PUSH1 0x40 SHL SUB DUP2 GT DUP1 ISZERO PUSH2 0x979 JUMPI PUSH1 0x0 DUP1 REVERT JUMPDEST POP PUSH1 0x40 MLOAD SWAP1 DUP1 DUP3 MSTORE DUP1 PUSH1 0x20 MUL PUSH1 0x20 ADD DUP3 ADD PUSH1 0x40 MSTORE DUP1 ISZERO PUSH2 0x9A3 JUMPI DUP2 PUSH1 0x20 ADD PUSH1 0x20 DUP3 MUL DUP1 CALLDATASIZE DUP4 CALLDATACOPY ADD SWAP1 POP JUMPDEST POP SWAP1 POP PUSH1 0x0 JUMPDEST DUP5 MLOAD DUP2 EQ PUSH2 0x340 JUMPI PUSH32 0x0 PUSH1 0x1 PUSH1 0x1 PUSH1 0xA0 SHL SUB AND DUP6 DUP3 DUP2 MLOAD DUP2 LT PUSH2 0x9E7 JUMPI INVALID JUMPDEST PUSH1 0x20 MUL PUSH1 0x20 ADD ADD MLOAD PUSH1 0x1 PUSH1 0x1 PUSH1 0xA0 SHL SUB AND EQ PUSH2 0xA33 JUMPI PUSH2 0xA2E DUP5 DUP5 DUP8 DUP5 DUP2 MLOAD DUP2 LT PUSH2 0xA0E JUMPI INVALID JUMPDEST PUSH1 0x20 MUL PUSH1 0x20 ADD ADD MLOAD PUSH1 0x1 PUSH1 0x1 PUSH1 0xA0 SHL SUB AND PUSH2 0xD5E SWAP1 SWAP3 SWAP2 SWAP1 PUSH4 0xFFFFFFFF AND JUMP JUMPDEST PUSH2 0xA36 JUMP JUMPDEST PUSH1 0x0 JUMPDEST DUP3 DUP3 DUP2 MLOAD DUP2 LT PUSH2 0xA42 JUMPI INVALID JUMPDEST PUSH1 0x20 SWAP1 DUP2 MUL SWAP2 SWAP1 SWAP2 ADD ADD MSTORE PUSH1 0x1 ADD PUSH2 0x9A9 JUMP JUMPDEST PUSH1 0x0 PUSH2 0xA6B DUP4 PUSH2 0xA65 DUP7 DUP6 PUSH2 0xE36 JUMP JUMPDEST SWAP1 PUSH2 0xE67 JUMP JUMPDEST SWAP5 SWAP4 POP POP POP POP JUMP JUMPDEST PUSH1 0x0 PUSH2 0xB72 DUP4 PUSH1 0x1 PUSH1 0x1 PUSH1 0xA0 SHL SUB AND PUSH4 0xDD62ED3E DUP5 ADDRESS PUSH1 0x40 MLOAD DUP4 PUSH4 0xFFFFFFFF AND PUSH1 0xE0 SHL DUP2 MSTORE PUSH1 0x4 ADD PUSH2 0xAA6 SWAP3 SWAP2 SWAP1 PUSH2 0x199F JUMP JUMPDEST PUSH1 0x20 PUSH1 0x40 MLOAD DUP1 DUP4 SUB DUP2 DUP7 DUP1 EXTCODESIZE ISZERO DUP1 ISZERO PUSH2 0xABE JUMPI PUSH1 0x0 DUP1 REVERT JUMPDEST POP GAS STATICCALL ISZERO DUP1 ISZERO PUSH2 0xAD2 JUMPI RETURNDATASIZE PUSH1 0x0 DUP1 RETURNDATACOPY RETURNDATASIZE PUSH1 0x0 REVERT JUMPDEST POP POP POP POP PUSH1 0x40 MLOAD RETURNDATASIZE PUSH1 0x1F NOT PUSH1 0x1F DUP3 ADD AND DUP3 ADD DUP1 PUSH1 0x40 MSTORE POP DUP2 ADD SWAP1 PUSH2 0xAF6 SWAP2 SWAP1 PUSH2 0x169F JUMP JUMPDEST PUSH1 0x40 MLOAD PUSH4 0x70A08231 PUSH1 0xE0 SHL DUP2 MSTORE PUSH1 0x1 PUSH1 0x1 PUSH1 0xA0 SHL SUB DUP7 AND SWAP1 PUSH4 0x70A08231 SWAP1 PUSH2 0xB22 SWAP1 DUP8 SWAP1 PUSH1 0x4 ADD PUSH2 0x1991 JUMP JUMPDEST PUSH1 0x20 PUSH1 0x40 MLOAD DUP1 DUP4 SUB DUP2 DUP7 DUP1 EXTCODESIZE ISZERO DUP1 ISZERO PUSH2 0xB3A JUMPI PUSH1 0x0 DUP1 REVERT JUMPDEST POP GAS STATICCALL ISZERO DUP1 ISZERO PUSH2 0xB4E JUMPI RETURNDATASIZE PUSH1 0x0 DUP1 RETURNDATACOPY RETURNDATASIZE PUSH1 0x0 REVERT JUMPDEST POP POP POP POP PUSH1 0x40 MLOAD RETURNDATASIZE PUSH1 0x1F NOT PUSH1 0x1F DUP3 ADD AND DUP3 ADD DUP1 PUSH1 0x40 MSTORE POP DUP2 ADD SWAP1 PUSH2 0x415 SWAP2 SWAP1 PUSH2 0x169F JUMP JUMPDEST SWAP1 POP JUMPDEST SWAP3 SWAP2 POP POP JUMP JUMPDEST PUSH1 0x0 DUP2 DUP4 LT PUSH2 0xB8A JUMPI DUP2 PUSH2 0xB72 JUMP JUMPDEST POP SWAP1 SWAP2 SWAP1 POP JUMP JUMPDEST PUSH1 0x0 PUSH2 0xA6B DUP4 PUSH2 0xA65 PUSH2 0xBA5 DUP3 PUSH1 0x1 PUSH2 0xE91 JUMP JUMPDEST PUSH2 0xBAF DUP9 DUP8 PUSH2 0xE36 JUMP JUMPDEST SWAP1 PUSH2 0xEB0 JUMP JUMPDEST PUSH1 0x0 PUSH1 0x1 PUSH1 0x1 PUSH1 0x80 SHL SUB DUP3 GT ISZERO PUSH2 0xBD9 JUMPI PUSH2 0xBD9 PUSH2 0xBD4 PUSH1 0x3 DUP5 PUSH2 0xECC JUMP JUMPDEST PUSH2 0xF23 JUMP JUMPDEST POP SWAP1 JUMP JUMPDEST PUSH1 0x0 PUSH1 0x12 SWAP1 POP PUSH1 0x0 PUSH1 0x60 DUP4 PUSH1 0x1 PUSH1 0x1 PUSH1 0xA0 SHL SUB AND PUSH1 0x40 MLOAD DUP1 PUSH1 0x40 ADD PUSH1 0x40 MSTORE DUP1 PUSH1 0x4 DUP2 MSTORE PUSH1 0x20 ADD PUSH4 0x313CE567 PUSH1 0xE0 SHL DUP2 MSTORE POP PUSH1 0x40 MLOAD PUSH2 0xC1B SWAP2 SWAP1 PUSH2 0x1985 JUMP JUMPDEST PUSH1 0x0 PUSH1 0x40 MLOAD DUP1 DUP4 SUB DUP2 DUP6 GAS STATICCALL SWAP2 POP POP RETURNDATASIZE DUP1 PUSH1 0x0 DUP2 EQ PUSH2 0xC56 JUMPI PUSH1 0x40 MLOAD SWAP2 POP PUSH1 0x1F NOT PUSH1 0x3F RETURNDATASIZE ADD AND DUP3 ADD PUSH1 0x40 MSTORE RETURNDATASIZE DUP3 MSTORE RETURNDATASIZE PUSH1 0x0 PUSH1 0x20 DUP5 ADD RETURNDATACOPY PUSH2 0xC5B JUMP JUMPDEST PUSH1 0x60 SWAP2 POP JUMPDEST POP SWAP2 POP SWAP2 POP DUP2 DUP1 ISZERO PUSH2 0xC6F JUMPI POP PUSH1 0x20 DUP2 MLOAD LT ISZERO JUMPDEST ISZERO PUSH2 0xC82 JUMPI PUSH2 0xC7F DUP2 PUSH1 0x0 PUSH2 0xF2B JUMP JUMPDEST SWAP3 POP JUMPDEST POP POP SWAP2 SWAP1 POP JUMP JUMPDEST PUSH1 0x0 DUP1 PUSH1 0x60 DUP5 PUSH1 0x1 PUSH1 0x1 PUSH1 0xA0 SHL SUB AND PUSH4 0x70A08231 PUSH1 0xE0 SHL DUP6 PUSH1 0x40 MLOAD PUSH1 0x24 ADD PUSH2 0xCB1 SWAP2 SWAP1 PUSH2 0x1991 JUMP JUMPDEST PUSH1 0x40 DUP1 MLOAD PUSH1 0x1F NOT DUP2 DUP5 SUB ADD DUP2 MSTORE SWAP2 DUP2 MSTORE PUSH1 0x20 DUP3 ADD DUP1 MLOAD PUSH1 0x1 PUSH1 0x1 PUSH1 0xE0 SHL SUB AND PUSH1 0x1 PUSH1 0x1 PUSH1 0xE0 SHL SUB NOT SWAP1 SWAP5 AND SWAP4 SWAP1 SWAP4 OR SWAP1 SWAP3 MSTORE SWAP1 MLOAD PUSH2 0xCEF SWAP2 SWAP1 PUSH2 0x1985 JUMP JUMPDEST PUSH1 0x0 PUSH1 0x40 MLOAD DUP1 DUP4 SUB DUP2 DUP6 GAS STATICCALL SWAP2 POP POP RETURNDATASIZE DUP1 PUSH1 0x0 DUP2 EQ PUSH2 0xD2A JUMPI PUSH1 0x40 MLOAD SWAP2 POP PUSH1 0x1F NOT PUSH1 0x3F RETURNDATASIZE ADD AND DUP3 ADD PUSH1 0x40 MSTORE RETURNDATASIZE DUP3 MSTORE RETURNDATASIZE PUSH1 0x0 PUSH1 0x20 DUP5 ADD RETURNDATACOPY PUSH2 0xD2F JUMP JUMPDEST PUSH1 0x60 SWAP2 POP JUMPDEST POP SWAP2 POP SWAP2 POP DUP2 DUP1 ISZERO PUSH2 0xD43 JUMPI POP PUSH1 0x20 DUP2 MLOAD LT ISZERO JUMPDEST ISZERO PUSH2 0xD56 JUMPI PUSH2 0xD53 DUP2 PUSH1 0x0 PUSH2 0xF2B JUMP JUMPDEST SWAP3 POP JUMPDEST POP POP SWAP3 SWAP2 POP POP JUMP JUMPDEST PUSH1 0x0 DUP1 PUSH1 0x60 DUP6 PUSH1 0x1 PUSH1 0x1 PUSH1 0xA0 SHL SUB AND PUSH4 0xDD62ED3E PUSH1 0xE0 SHL DUP7 DUP7 PUSH1 0x40 MLOAD PUSH1 0x24 ADD PUSH2 0xD88 SWAP3 SWAP2 SWAP1 PUSH2 0x199F JUMP JUMPDEST PUSH1 0x40 DUP1 MLOAD PUSH1 0x1F NOT DUP2 DUP5 SUB ADD DUP2 MSTORE SWAP2 DUP2 MSTORE PUSH1 0x20 DUP3 ADD DUP1 MLOAD PUSH1 0x1 PUSH1 0x1 PUSH1 0xE0 SHL SUB AND PUSH1 0x1 PUSH1 0x1 PUSH1 0xE0 SHL SUB NOT SWAP1 SWAP5 AND SWAP4 SWAP1 SWAP4 OR SWAP1 SWAP3 MSTORE SWAP1 MLOAD PUSH2 0xDC6 SWAP2 SWAP1 PUSH2 0x1985 JUMP JUMPDEST PUSH1 0x0 PUSH1 0x40 MLOAD DUP1 DUP4 SUB DUP2 DUP6 GAS STATICCALL SWAP2 POP POP RETURNDATASIZE DUP1 PUSH1 0x0 DUP2 EQ PUSH2 0xE01 JUMPI PUSH1 0x40 MLOAD SWAP2 POP PUSH1 0x1F NOT PUSH1 0x3F RETURNDATASIZE ADD AND DUP3 ADD PUSH1 0x40 MSTORE RETURNDATASIZE DUP3 MSTORE RETURNDATASIZE PUSH1 0x0 PUSH1 0x20 DUP5 ADD RETURNDATACOPY PUSH2 0xE06 JUMP JUMPDEST PUSH1 0x60 SWAP2 POP JUMPDEST POP SWAP2 POP SWAP2 POP DUP2 DUP1 ISZERO PUSH2 0xE1A JUMPI POP PUSH1 0x20 DUP2 MLOAD LT ISZERO JUMPDEST ISZERO PUSH2 0xE2D JUMPI PUSH2 0xE2A DUP2 PUSH1 0x0 PUSH2 0xF2B JUMP JUMPDEST SWAP3 POP JUMPDEST POP POP SWAP4 SWAP3 POP POP POP JUMP JUMPDEST PUSH1 0x0 DUP3 PUSH2 0xE45 JUMPI POP PUSH1 0x0 PUSH2 0xB75 JUMP JUMPDEST DUP3 DUP3 MUL DUP3 DUP5 DUP3 DUP2 PUSH2 0xE52 JUMPI INVALID JUMPDEST DIV EQ PUSH2 0xB72 JUMPI PUSH2 0xB72 PUSH2 0xBD4 PUSH1 0x1 DUP7 DUP7 PUSH2 0xF37 JUMP JUMPDEST PUSH1 0x0 DUP2 PUSH2 0xE7D JUMPI PUSH2 0xE7D PUSH2 0xBD4 PUSH1 0x3 DUP6 DUP6 PUSH2 0xF37 JUMP JUMPDEST PUSH1 0x0 DUP3 DUP5 DUP2 PUSH2 0xE88 JUMPI INVALID JUMPDEST DIV SWAP5 SWAP4 POP POP POP POP JUMP JUMPDEST PUSH1 0x0 DUP3 DUP3 GT ISZERO PUSH2 0xEAA JUMPI PUSH2 0xEAA PUSH2 0xBD4 PUSH1 0x2 DUP6 DUP6 PUSH2 0xF37 JUMP JUMPDEST POP SWAP1 SUB SWAP1 JUMP JUMPDEST PUSH1 0x0 DUP3 DUP3 ADD DUP4 DUP2 LT ISZERO PUSH2 0xB72 JUMPI PUSH2 0xB72 PUSH2 0xBD4 PUSH1 0x0 DUP7 DUP7 PUSH2 0xF37 JUMP JUMPDEST PUSH1 0x60 PUSH4 0xC996AF7B PUSH1 0xE0 SHL DUP4 DUP4 PUSH1 0x40 MLOAD PUSH1 0x24 ADD PUSH2 0xEE9 SWAP3 SWAP2 SWAP1 PUSH2 0x1A50 JUMP JUMPDEST PUSH1 0x40 DUP1 MLOAD PUSH1 0x1F NOT DUP2 DUP5 SUB ADD DUP2 MSTORE SWAP2 SWAP1 MSTORE PUSH1 0x20 DUP2 ADD DUP1 MLOAD PUSH1 0x1 PUSH1 0x1 PUSH1 0xE0 SHL SUB AND PUSH1 0x1 PUSH1 0x1 PUSH1 0xE0 SHL SUB NOT SWAP1 SWAP4 AND SWAP3 SWAP1 SWAP3 OR SWAP1 SWAP2 MSTORE SWAP1 POP SWAP3 SWAP2 POP POP JUMP JUMPDEST DUP1 MLOAD PUSH1 0x20 DUP3 ADD REVERT JUMPDEST PUSH1 0x0 PUSH2 0xB72 DUP4 DUP4 PUSH2 0xF91 JUMP JUMPDEST PUSH1 0x60 PUSH4 0xE946C1BB PUSH1 0xE0 SHL DUP5 DUP5 DUP5 PUSH1 0x40 MLOAD PUSH1 0x24 ADD PUSH2 0xF56 SWAP4 SWAP3 SWAP2 SWAP1 PUSH2 0x1A28 JUMP JUMPDEST PUSH1 0x40 DUP1 MLOAD PUSH1 0x1F NOT DUP2 DUP5 SUB ADD DUP2 MSTORE SWAP2 SWAP1 MSTORE PUSH1 0x20 DUP2 ADD DUP1 MLOAD PUSH1 0x1 PUSH1 0x1 PUSH1 0xE0 SHL SUB AND PUSH1 0x1 PUSH1 0x1 PUSH1 0xE0 SHL SUB NOT SWAP1 SWAP4 AND SWAP3 SWAP1 SWAP3 OR SWAP1 SWAP2 MSTORE SWAP1 POP SWAP4 SWAP3 POP POP POP JUMP JUMPDEST PUSH1 0x0 DUP2 PUSH1 0x20 ADD DUP4 MLOAD LT ISZERO PUSH2 0xFB2 JUMPI PUSH2 0xFB2 PUSH2 0xBD4 PUSH1 0x5 DUP6 MLOAD DUP6 PUSH1 0x20 ADD PUSH2 0xFBB JUMP JUMPDEST POP ADD PUSH1 0x20 ADD MLOAD SWAP1 JUMP JUMPDEST PUSH1 0x60 PUSH4 0x28006595 PUSH1 0xE0 SHL DUP5 DUP5 DUP5 PUSH1 0x40 MLOAD PUSH1 0x24 ADD PUSH2 0xF56 SWAP4 SWAP3 SWAP2 SWAP1 PUSH2 0x1A6B JUMP JUMPDEST PUSH1 0x40 DUP1 MLOAD PUSH1 0x60 DUP2 ADD SWAP1 SWAP2 MSTORE PUSH1 0x0 DUP1 DUP3 MSTORE PUSH1 0x20 DUP3 ADD SWAP1 DUP2 MSTORE PUSH1 0x0 PUSH1 0x20 SWAP1 SWAP2 ADD MSTORE SWAP1 JUMP JUMPDEST PUSH2 0x27E DUP1 PUSH2 0x1C89 DUP4 CODECOPY ADD SWAP1 JUMP JUMPDEST DUP1 CALLDATALOAD PUSH2 0xB75 DUP2 PUSH2 0x1C24 JUMP JUMPDEST PUSH1 0x0 DUP3 PUSH1 0x1F DUP4 ADD SLT PUSH2 0x1025 JUMPI PUSH1 0x0 DUP1 REVERT JUMPDEST DUP2 CALLDATALOAD PUSH2 0x1038 PUSH2 0x1033 DUP3 PUSH2 0x1B1D JUMP JUMPDEST PUSH2 0x1AF7 JUMP JUMPDEST SWAP2 POP DUP2 DUP2 DUP4 MSTORE PUSH1 0x20 DUP5 ADD SWAP4 POP PUSH1 0x20 DUP2 ADD SWAP1 POP DUP4 DUP6 PUSH1 0x20 DUP5 MUL DUP3 ADD GT ISZERO PUSH2 0x105D JUMPI PUSH1 0x0 DUP1 REVERT JUMPDEST PUSH1 0x0 JUMPDEST DUP4 DUP2 LT ISZERO PUSH2 0x1089 JUMPI DUP2 PUSH2 0x1073 DUP9 DUP3 PUSH2 0x119A JUMP JUMPDEST DUP5 MSTORE POP PUSH1 0x20 SWAP3 DUP4 ADD SWAP3 SWAP2 SWAP1 SWAP2 ADD SWAP1 PUSH1 0x1 ADD PUSH2 0x1060 JUMP JUMPDEST POP POP POP POP SWAP3 SWAP2 POP POP JUMP JUMPDEST PUSH1 0x0 DUP3 PUSH1 0x1F DUP4 ADD SLT PUSH2 0x10A4 JUMPI PUSH1 0x0 DUP1 REVERT JUMPDEST DUP2 CALLDATALOAD PUSH2 0x10B2 PUSH2 0x1033 DUP3 PUSH2 0x1B1D JUMP JUMPDEST SWAP2 POP DUP2 DUP2 DUP4 MSTORE PUSH1 0x20 DUP5 ADD SWAP4 POP PUSH1 0x20 DUP2 ADD SWAP1 POP DUP4 DUP6 PUSH2 0x180 DUP5 MUL DUP3 ADD GT ISZERO PUSH2 0x10D8 JUMPI PUSH1 0x0 DUP1 REVERT JUMPDEST PUSH1 0x0 JUMPDEST DUP4 DUP2 LT ISZERO PUSH2 0x1089 JUMPI DUP2 PUSH2 0x10EE DUP9 DUP3 PUSH2 0x11BB JUMP JUMPDEST DUP5 MSTORE POP PUSH1 0x20 SWAP1 SWAP3 ADD SWAP2 PUSH2 0x180 SWAP2 SWAP1 SWAP2 ADD SWAP1 PUSH1 0x1 ADD PUSH2 0x10DB JUMP JUMPDEST PUSH1 0x0 DUP3 PUSH1 0x1F DUP4 ADD SLT PUSH2 0x1118 JUMPI PUSH1 0x0 DUP1 REVERT JUMPDEST DUP2 CALLDATALOAD PUSH2 0x1126 PUSH2 0x1033 DUP3 PUSH2 0x1B1D JUMP JUMPDEST SWAP2 POP DUP2 DUP2 DUP4 MSTORE PUSH1 0x20 DUP5 ADD SWAP4 POP PUSH1 0x20 DUP2 ADD SWAP1 POP DUP4 DUP6 PUSH1 0x80 DUP5 MUL DUP3 ADD GT ISZERO PUSH2 0x114B JUMPI PUSH1 0x0 DUP1 REVERT JUMPDEST PUSH1 0x0 JUMPDEST DUP4 DUP2 LT ISZERO PUSH2 0x1089 JUMPI DUP2 PUSH2 0x1161 DUP9 DUP3 PUSH2 0x1341 JUMP JUMPDEST DUP5 MSTORE POP PUSH1 0x20 SWAP1 SWAP3 ADD SWAP2 PUSH1 0x80 SWAP2 SWAP1 SWAP2 ADD SWAP1 PUSH1 0x1 ADD PUSH2 0x114E JUMP JUMPDEST DUP1 MLOAD PUSH2 0xB75 DUP2 PUSH2 0x1C38 JUMP JUMPDEST DUP1 CALLDATALOAD PUSH2 0xB75 DUP2 PUSH2 0x1C41 JUMP JUMPDEST DUP1 MLOAD PUSH2 0xB75 DUP2 PUSH2 0x1C41 JUMP JUMPDEST DUP1 CALLDATALOAD PUSH2 0xB75 DUP2 PUSH2 0x1C4A JUMP JUMPDEST DUP1 MLOAD PUSH2 0xB75 DUP2 PUSH2 0x1C53 JUMP JUMPDEST DUP1 CALLDATALOAD PUSH2 0xB75 DUP2 PUSH2 0x1C60 JUMP JUMPDEST PUSH1 0x0 PUSH2 0x180 DUP3 DUP5 SUB SLT ISZERO PUSH2 0x11CE JUMPI PUSH1 0x0 DUP1 REVERT JUMPDEST PUSH2 0x11D9 PUSH2 0x180 PUSH2 0x1AF7 JUMP JUMPDEST SWAP1 POP PUSH1 0x0 PUSH2 0x11E7 DUP5 DUP5 PUSH2 0x119A JUMP JUMPDEST DUP3 MSTORE POP PUSH1 0x20 PUSH2 0x11F8 DUP5 DUP5 DUP4 ADD PUSH2 0x119A JUMP JUMPDEST PUSH1 0x20 DUP4 ADD MSTORE POP PUSH1 0x40 PUSH2 0x120C DUP5 DUP3 DUP6 ADD PUSH2 0x13B0 JUMP JUMPDEST PUSH1 0x40 DUP4 ADD MSTORE POP PUSH1 0x60 PUSH2 0x1220 DUP5 DUP3 DUP6 ADD PUSH2 0x13B0 JUMP JUMPDEST PUSH1 0x60 DUP4 ADD MSTORE POP PUSH1 0x80 PUSH2 0x1234 DUP5 DUP3 DUP6 ADD PUSH2 0x13B0 JUMP JUMPDEST PUSH1 0x80 DUP4 ADD MSTORE POP PUSH1 0xA0 PUSH2 0x1248 DUP5 DUP3 DUP6 ADD PUSH2 0x1009 JUMP JUMPDEST PUSH1 0xA0 DUP4 ADD MSTORE POP PUSH1 0xC0 PUSH2 0x125C DUP5 DUP3 DUP6 ADD PUSH2 0x1009 JUMP JUMPDEST PUSH1 0xC0 DUP4 ADD MSTORE POP PUSH1 0xE0 PUSH2 0x1270 DUP5 DUP3 DUP6 ADD PUSH2 0x1009 JUMP JUMPDEST PUSH1 0xE0 DUP4 ADD MSTORE POP PUSH2 0x100 PUSH2 0x1285 DUP5 DUP3 DUP6 ADD PUSH2 0x1009 JUMP JUMPDEST PUSH2 0x100 DUP4 ADD MSTORE POP PUSH2 0x120 PUSH2 0x129B DUP5 DUP3 DUP6 ADD PUSH2 0x1184 JUMP JUMPDEST PUSH2 0x120 DUP4 ADD MSTORE POP PUSH2 0x140 PUSH2 0x12B1 DUP5 DUP3 DUP6 ADD PUSH2 0x13C6 JUMP JUMPDEST PUSH2 0x140 DUP4 ADD MSTORE POP PUSH2 0x160 PUSH2 0x12C7 DUP5 DUP3 DUP6 ADD PUSH2 0x1184 JUMP JUMPDEST PUSH2 0x160 DUP4 ADD MSTORE POP SWAP3 SWAP2 POP POP JUMP JUMPDEST PUSH1 0x0 PUSH1 0x60 DUP3 DUP5 SUB SLT ISZERO PUSH2 0x12E6 JUMPI PUSH1 0x0 DUP1 REVERT JUMPDEST PUSH2 0x12F0 PUSH1 0x60 PUSH2 0x1AF7 JUMP JUMPDEST SWAP1 POP PUSH1 0x0 PUSH2 0x12FE DUP5 DUP5 PUSH2 0x118F JUMP JUMPDEST DUP3 MSTORE POP PUSH1 0x20 PUSH2 0x130F DUP5 DUP5 DUP4 ADD PUSH2 0x11A5 JUMP JUMPDEST PUSH1 0x20 DUP4 ADD MSTORE POP PUSH1 0x40 PUSH2 0x1323 DUP5 DUP3 DUP6 ADD PUSH2 0x13BB JUMP JUMPDEST PUSH1 0x40 DUP4 ADD MSTORE POP SWAP3 SWAP2 POP POP JUMP JUMPDEST PUSH1 0x0 PUSH1 0x80 DUP3 DUP5 SUB SLT ISZERO PUSH2 0x600 JUMPI PUSH1 0x0 DUP1 REVERT JUMPDEST PUSH1 0x0 PUSH1 0x80 DUP3 DUP5 SUB SLT ISZERO PUSH2 0x1353 JUMPI PUSH1 0x0 DUP1 REVERT JUMPDEST PUSH2 0x135D PUSH1 0x80 PUSH2 0x1AF7 JUMP JUMPDEST SWAP1 POP PUSH1 0x0 PUSH2 0x136B DUP5 DUP5 PUSH2 0x11B0 JUMP JUMPDEST DUP3 MSTORE POP PUSH1 0x20 PUSH2 0x137C DUP5 DUP5 DUP4 ADD PUSH2 0x13D1 JUMP JUMPDEST PUSH1 0x20 DUP4 ADD MSTORE POP PUSH1 0x40 PUSH2 0x1390 DUP5 DUP3 DUP6 ADD PUSH2 0x1184 JUMP JUMPDEST PUSH1 0x40 DUP4 ADD MSTORE POP PUSH1 0x60 PUSH2 0x13A4 DUP5 DUP3 DUP6 ADD PUSH2 0x1184 JUMP JUMPDEST PUSH1 0x60 DUP4 ADD MSTORE POP SWAP3 SWAP2 POP POP JUMP JUMPDEST DUP1 CALLDATALOAD PUSH2 0xB75 DUP2 PUSH2 0x1C6D JUMP JUMPDEST DUP1 MLOAD PUSH2 0xB75 DUP2 PUSH2 0x1C6D JUMP JUMPDEST DUP1 CALLDATALOAD PUSH2 0xB75 DUP2 PUSH2 0x1C76 JUMP JUMPDEST DUP1 CALLDATALOAD PUSH2 0xB75 DUP2 PUSH2 0x1C7F JUMP JUMPDEST PUSH1 0x0 PUSH1 0x20 DUP3 DUP5 SUB SLT ISZERO PUSH2 0x13EE JUMPI PUSH1 0x0 DUP1 REVERT JUMPDEST PUSH1 0x0 PUSH2 0xA6B DUP5 DUP5 PUSH2 0x1009 JUMP JUMPDEST PUSH1 0x0 PUSH1 0x20 DUP3 DUP5 SUB SLT ISZERO PUSH2 0x140C JUMPI PUSH1 0x0 DUP1 REVERT JUMPDEST DUP2 CALLDATALOAD PUSH1 0x1 PUSH1 0x1 PUSH1 0x40 SHL SUB DUP2 GT ISZERO PUSH2 0x1422 JUMPI PUSH1 0x0 DUP1 REVERT JUMPDEST PUSH2 0xA6B DUP5 DUP3 DUP6 ADD PUSH2 0x1014 JUMP JUMPDEST PUSH1 0x0 DUP1 PUSH1 0x40 DUP4 DUP6 SUB SLT ISZERO PUSH2 0x1441 JUMPI PUSH1 0x0 DUP1 REVERT JUMPDEST DUP3 CALLDATALOAD PUSH1 0x1 PUSH1 0x1 PUSH1 0x40 SHL SUB DUP2 GT ISZERO PUSH2 0x1457 JUMPI PUSH1 0x0 DUP1 REVERT JUMPDEST PUSH2 0x1463 DUP6 DUP3 DUP7 ADD PUSH2 0x1014 JUMP JUMPDEST SWAP3 POP POP PUSH1 0x20 PUSH2 0x1474 DUP6 DUP3 DUP7 ADD PUSH2 0x1009 JUMP JUMPDEST SWAP2 POP POP SWAP3 POP SWAP3 SWAP1 POP JUMP JUMPDEST PUSH1 0x0 DUP1 PUSH1 0x0 PUSH1 0x60 DUP5 DUP7 SUB SLT ISZERO PUSH2 0x1493 JUMPI PUSH1 0x0 DUP1 REVERT JUMPDEST DUP4 CALLDATALOAD PUSH1 0x1 PUSH1 0x1 PUSH1 0x40 SHL SUB DUP2 GT ISZERO PUSH2 0x14A9 JUMPI PUSH1 0x0 DUP1 REVERT JUMPDEST PUSH2 0x14B5 DUP7 DUP3 DUP8 ADD PUSH2 0x1014 JUMP JUMPDEST SWAP4 POP POP PUSH1 0x20 PUSH2 0x14C6 DUP7 DUP3 DUP8 ADD PUSH2 0x1009 JUMP JUMPDEST SWAP3 POP POP PUSH1 0x40 PUSH2 0x14D7 DUP7 DUP3 DUP8 ADD PUSH2 0x1009 JUMP JUMPDEST SWAP2 POP POP SWAP3 POP SWAP3 POP SWAP3 JUMP JUMPDEST PUSH1 0x0 DUP1 PUSH1 0x0 PUSH1 0x60 DUP5 DUP7 SUB SLT ISZERO PUSH2 0x14F6 JUMPI PUSH1 0x0 DUP1 REVERT JUMPDEST DUP4 CALLDATALOAD PUSH1 0x1 PUSH1 0x1 PUSH1 0x40 SHL SUB DUP2 GT ISZERO PUSH2 0x150C JUMPI PUSH1 0x0 DUP1 REVERT JUMPDEST PUSH2 0x1518 DUP7 DUP3 DUP8 ADD PUSH2 0x1093 JUMP JUMPDEST SWAP4 POP POP PUSH1 0x20 DUP5 ADD CALLDATALOAD PUSH1 0x1 PUSH1 0x1 PUSH1 0x40 SHL SUB DUP2 GT ISZERO PUSH2 0x1534 JUMPI PUSH1 0x0 DUP1 REVERT JUMPDEST PUSH2 0x1540 DUP7 DUP3 DUP8 ADD PUSH2 0x1107 JUMP JUMPDEST SWAP3 POP POP PUSH1 0x40 PUSH2 0x14D7 DUP7 DUP3 DUP8 ADD PUSH2 0x119A JUMP JUMPDEST PUSH1 0x0 DUP1 PUSH1 0x0 DUP1 PUSH1 0x0 PUSH1 0xA0 DUP7 DUP9 SUB SLT ISZERO PUSH2 0x1569 JUMPI PUSH1 0x0 DUP1 REVERT JUMPDEST PUSH1 0x0 PUSH2 0x1575 DUP9 DUP9 PUSH2 0x119A JUMP JUMPDEST SWAP6 POP POP PUSH1 0x20 PUSH2 0x1586 DUP9 DUP3 DUP10 ADD PUSH2 0x1009 JUMP JUMPDEST SWAP5 POP POP PUSH1 0x40 PUSH2 0x1597 DUP9 DUP3 DUP10 ADD PUSH2 0x1009 JUMP JUMPDEST SWAP4 POP POP PUSH1 0x60 PUSH2 0x15A8 DUP9 DUP3 DUP10 ADD PUSH2 0x1184 JUMP JUMPDEST SWAP3 POP POP PUSH1 0x80 PUSH2 0x15B9 DUP9 DUP3 DUP10 ADD PUSH2 0x1184 JUMP JUMPDEST SWAP2 POP POP SWAP3 SWAP6 POP SWAP3 SWAP6 SWAP1 SWAP4 POP JUMP JUMPDEST PUSH1 0x0 DUP1 PUSH2 0x200 DUP4 DUP6 SUB SLT ISZERO PUSH2 0x15DA JUMPI PUSH1 0x0 DUP1 REVERT JUMPDEST PUSH1 0x0 PUSH2 0x15E6 DUP6 DUP6 PUSH2 0x11BB JUMP JUMPDEST SWAP3 POP POP PUSH2 0x180 PUSH2 0x1474 DUP6 DUP3 DUP7 ADD PUSH2 0x132F JUMP JUMPDEST PUSH1 0x0 DUP1 PUSH1 0x0 PUSH2 0x220 DUP5 DUP7 SUB SLT ISZERO PUSH2 0x160E JUMPI PUSH1 0x0 DUP1 REVERT JUMPDEST PUSH1 0x0 PUSH2 0x161A DUP7 DUP7 PUSH2 0x11BB JUMP JUMPDEST SWAP4 POP POP PUSH2 0x180 PUSH2 0x162C DUP7 DUP3 DUP8 ADD PUSH2 0x1341 JUMP JUMPDEST SWAP3 POP POP PUSH2 0x200 PUSH2 0x14D7 DUP7 DUP3 DUP8 ADD PUSH2 0x119A JUMP JUMPDEST PUSH1 0x0 DUP1 PUSH1 0x0 PUSH1 0xA0 DUP5 DUP7 SUB SLT ISZERO PUSH2 0x1653 JUMPI PUSH1 0x0 DUP1 REVERT JUMPDEST PUSH1 0x0 PUSH2 0x165F DUP7 DUP7 PUSH2 0x12D4 JUMP JUMPDEST SWAP4 POP POP PUSH1 0x60 PUSH2 0x1670 DUP7 DUP3 DUP8 ADD PUSH2 0x13BB JUMP JUMPDEST SWAP3 POP POP PUSH1 0x80 PUSH2 0x14D7 DUP7 DUP3 DUP8 ADD PUSH2 0x1179 JUMP JUMPDEST PUSH1 0x0 PUSH1 0x20 DUP3 DUP5 SUB SLT ISZERO PUSH2 0x1693 JUMPI PUSH1 0x0 DUP1 REVERT JUMPDEST PUSH1 0x0 PUSH2 0xA6B DUP5 DUP5 PUSH2 0x1184 JUMP JUMPDEST PUSH1 0x0 PUSH1 0x20 DUP3 DUP5 SUB SLT ISZERO PUSH2 0x16B1 JUMPI PUSH1 0x0 DUP1 REVERT JUMPDEST PUSH1 0x0 PUSH2 0xA6B DUP5 DUP5 PUSH2 0x118F JUMP JUMPDEST PUSH1 0x0 PUSH2 0x16C9 DUP4 DUP4 PUSH2 0x17D4 JUMP JUMPDEST POP POP PUSH1 0x20 ADD SWAP1 JUMP JUMPDEST PUSH1 0x0 PUSH2 0x16C9 DUP4 DUP4 PUSH2 0x179C JUMP JUMPDEST PUSH2 0x16E6 DUP2 PUSH2 0x1B50 JUMP JUMPDEST DUP3 MSTORE POP POP JUMP JUMPDEST PUSH1 0x0 PUSH2 0x16F7 DUP3 PUSH2 0x1B43 JUMP JUMPDEST PUSH2 0x1701 DUP2 DUP6 PUSH2 0x1B47 JUMP JUMPDEST SWAP4 POP PUSH2 0x170C DUP4 PUSH2 0x1B3D JUMP JUMPDEST DUP1 PUSH1 0x0 JUMPDEST DUP4 DUP2 LT ISZERO PUSH2 0x173A JUMPI DUP2 MLOAD PUSH2 0x1724 DUP9 DUP3 PUSH2 0x16BD JUMP JUMPDEST SWAP8 POP PUSH2 0x172F DUP4 PUSH2 0x1B3D JUMP JUMPDEST SWAP3 POP POP PUSH1 0x1 ADD PUSH2 0x1710 JUMP JUMPDEST POP SWAP5 SWAP6 SWAP5 POP POP POP POP POP JUMP JUMPDEST PUSH1 0x0 PUSH2 0x1750 DUP3 PUSH2 0x1B43 JUMP JUMPDEST PUSH2 0x175A DUP2 DUP6 PUSH2 0x1B47 JUMP JUMPDEST SWAP4 POP PUSH2 0x1765 DUP4 PUSH2 0x1B3D JUMP JUMPDEST DUP1 PUSH1 0x0 JUMPDEST DUP4 DUP2 LT ISZERO PUSH2 0x173A JUMPI DUP2 MLOAD PUSH2 0x177D DUP9 DUP3 PUSH2 0x16D1 JUMP JUMPDEST SWAP8 POP PUSH2 0x1788 DUP4 PUSH2 0x1B3D JUMP JUMPDEST SWAP3 POP POP PUSH1 0x1 ADD PUSH2 0x1769 JUMP JUMPDEST PUSH2 0x16E6 DUP2 PUSH2 0x1B5B JUMP JUMPDEST PUSH2 0x16E6 DUP2 PUSH2 0x1B60 JUMP JUMPDEST PUSH1 0x0 PUSH2 0x17B0 DUP3 PUSH2 0x1B43 JUMP JUMPDEST PUSH2 0x17BA DUP2 DUP6 PUSH2 0x34D JUMP JUMPDEST SWAP4 POP PUSH2 0x17CA DUP2 DUP6 PUSH1 0x20 DUP7 ADD PUSH2 0x1BD7 JUMP JUMPDEST SWAP3 SWAP1 SWAP3 ADD SWAP3 SWAP2 POP POP JUMP JUMPDEST PUSH2 0x16E6 DUP2 PUSH2 0x1B63 JUMP JUMPDEST PUSH2 0x16E6 DUP2 PUSH2 0x1BB6 JUMP JUMPDEST PUSH2 0x16E6 DUP2 PUSH2 0x1BC1 JUMP JUMPDEST PUSH2 0x16E6 DUP2 PUSH2 0x1BCC JUMP JUMPDEST DUP1 MLOAD PUSH2 0x180 DUP4 ADD SWAP1 PUSH2 0x180A DUP5 DUP3 PUSH2 0x17D4 JUMP JUMPDEST POP PUSH1 0x20 DUP3 ADD MLOAD PUSH2 0x181D PUSH1 0x20 DUP6 ADD DUP3 PUSH2 0x17D4 JUMP JUMPDEST POP PUSH1 0x40 DUP3 ADD MLOAD PUSH2 0x1830 PUSH1 0x40 DUP6 ADD DUP3 PUSH2 0x196A JUMP JUMPDEST POP PUSH1 0x60 DUP3 ADD MLOAD PUSH2 0x1843 PUSH1 0x60 DUP6 ADD DUP3 PUSH2 0x196A JUMP JUMPDEST POP PUSH1 0x80 DUP3 ADD MLOAD PUSH2 0x1856 PUSH1 0x80 DUP6 ADD DUP3 PUSH2 0x196A JUMP JUMPDEST POP PUSH1 0xA0 DUP3 ADD MLOAD PUSH2 0x1869 PUSH1 0xA0 DUP6 ADD DUP3 PUSH2 0x16DD JUMP JUMPDEST POP PUSH1 0xC0 DUP3 ADD MLOAD PUSH2 0x187C PUSH1 0xC0 DUP6 ADD DUP3 PUSH2 0x16DD JUMP JUMPDEST POP PUSH1 0xE0 DUP3 ADD MLOAD PUSH2 0x188F PUSH1 0xE0 DUP6 ADD DUP3 PUSH2 0x16DD JUMP JUMPDEST POP PUSH2 0x100 DUP3 ADD MLOAD PUSH2 0x18A4 PUSH2 0x100 DUP6 ADD DUP3 PUSH2 0x16DD JUMP JUMPDEST POP PUSH2 0x120 DUP3 ADD MLOAD PUSH2 0x18B9 PUSH2 0x120 DUP6 ADD DUP3 PUSH2 0x179C JUMP JUMPDEST POP PUSH2 0x140 DUP3 ADD MLOAD PUSH2 0x18CE PUSH2 0x140 DUP6 ADD DUP3 PUSH2 0x1973 JUMP JUMPDEST POP PUSH2 0x160 DUP3 ADD MLOAD PUSH2 0x18E3 PUSH2 0x160 DUP6 ADD DUP3 PUSH2 0x179C JUMP JUMPDEST POP POP POP POP JUMP JUMPDEST DUP1 MLOAD PUSH1 0x60 DUP4 ADD SWAP1 PUSH2 0x18FA DUP5 DUP3 PUSH2 0x179C JUMP JUMPDEST POP PUSH1 0x20 DUP3 ADD MLOAD PUSH2 0x190D PUSH1 0x20 DUP6 ADD DUP3 PUSH2 0x17EF JUMP JUMPDEST POP PUSH1 0x40 DUP3 ADD MLOAD PUSH2 0x18E3 PUSH1 0x40 DUP6 ADD DUP3 PUSH2 0x196A JUMP JUMPDEST DUP1 MLOAD PUSH1 0x80 DUP4 ADD SWAP1 PUSH2 0x1931 DUP5 DUP3 PUSH2 0x17DD JUMP JUMPDEST POP PUSH1 0x20 DUP3 ADD MLOAD PUSH2 0x1944 PUSH1 0x20 DUP6 ADD DUP3 PUSH2 0x197C JUMP JUMPDEST POP PUSH1 0x40 DUP3 ADD MLOAD PUSH2 0x1957 PUSH1 0x40 DUP6 ADD DUP3 PUSH2 0x179C JUMP JUMPDEST POP PUSH1 0x60 DUP3 ADD MLOAD PUSH2 0x18E3 PUSH1 0x60 DUP6 ADD DUP3 PUSH2 0x179C JUMP JUMPDEST PUSH2 0x16E6 DUP2 PUSH2 0x1B8C JUMP JUMPDEST PUSH2 0x16E6 DUP2 PUSH2 0x1BA4 JUMP JUMPDEST PUSH2 0x16E6 DUP2 PUSH2 0x1BB0 JUMP JUMPDEST PUSH1 0x0 PUSH2 0x7EB DUP3 DUP5 PUSH2 0x17A5 JUMP JUMPDEST PUSH1 0x20 DUP2 ADD PUSH2 0xB75 DUP3 DUP5 PUSH2 0x16DD JUMP JUMPDEST PUSH1 0x40 DUP2 ADD PUSH2 0x19AD DUP3 DUP6 PUSH2 0x16DD JUMP JUMPDEST PUSH2 0x7EB PUSH1 0x20 DUP4 ADD DUP5 PUSH2 0x16DD JUMP JUMPDEST PUSH1 0x80 DUP2 ADD PUSH2 0x19C8 DUP3 DUP8 PUSH2 0x16DD JUMP JUMPDEST PUSH2 0x19D5 PUSH1 0x20 DUP4 ADD DUP7 PUSH2 0x16DD JUMP JUMPDEST PUSH2 0x19E2 PUSH1 0x40 DUP4 ADD DUP6 PUSH2 0x179C JUMP JUMPDEST PUSH2 0x19EF PUSH1 0x60 DUP4 ADD DUP5 PUSH2 0x179C JUMP JUMPDEST SWAP6 SWAP5 POP POP POP POP POP JUMP JUMPDEST PUSH1 0x20 DUP1 DUP3 MSTORE DUP2 ADD PUSH2 0xB72 DUP2 DUP5 PUSH2 0x16EC JUMP JUMPDEST PUSH1 0x20 DUP1 DUP3 MSTORE DUP2 ADD PUSH2 0xB72 DUP2 DUP5 PUSH2 0x1745 JUMP JUMPDEST PUSH1 0x20 DUP2 ADD PUSH2 0xB75 DUP3 DUP5 PUSH2 0x1793 JUMP JUMPDEST PUSH1 0x60 DUP2 ADD PUSH2 0x1A36 DUP3 DUP7 PUSH2 0x17DD JUMP JUMPDEST PUSH2 0x1A43 PUSH1 0x20 DUP4 ADD DUP6 PUSH2 0x179C JUMP JUMPDEST PUSH2 0xA6B PUSH1 0x40 DUP4 ADD DUP5 PUSH2 0x179C JUMP JUMPDEST PUSH1 0x40 DUP2 ADD PUSH2 0x1A5E DUP3 DUP6 PUSH2 0x17DD JUMP JUMPDEST PUSH2 0x7EB PUSH1 0x20 DUP4 ADD DUP5 PUSH2 0x179C JUMP JUMPDEST PUSH1 0x60 DUP2 ADD PUSH2 0x1A36 DUP3 DUP7 PUSH2 0x17E6 JUMP JUMPDEST PUSH2 0x200 DUP2 ADD PUSH2 0x1A88 DUP3 DUP6 PUSH2 0x17F8 JUMP JUMPDEST PUSH2 0x7EB PUSH2 0x180 DUP4 ADD DUP5 PUSH2 0x1920 JUMP JUMPDEST PUSH2 0x220 DUP2 ADD PUSH2 0x1AA5 DUP3 DUP7 PUSH2 0x17F8 JUMP JUMPDEST PUSH2 0x1AB3 PUSH2 0x180 DUP4 ADD DUP6 PUSH2 0x1920 JUMP JUMPDEST PUSH2 0xA6B PUSH2 0x200 DUP4 ADD DUP5 PUSH2 0x17D4 JUMP JUMPDEST PUSH1 0xA0 DUP2 ADD PUSH2 0x1ACF DUP3 DUP7 PUSH2 0x18E9 JUMP JUMPDEST PUSH2 0x1ADC PUSH1 0x60 DUP4 ADD DUP6 PUSH2 0x196A JUMP JUMPDEST PUSH2 0xA6B PUSH1 0x80 DUP4 ADD DUP5 PUSH2 0x1793 JUMP JUMPDEST PUSH1 0x20 DUP2 ADD PUSH2 0xB75 DUP3 DUP5 PUSH2 0x179C JUMP JUMPDEST PUSH1 0x40 MLOAD DUP2 DUP2 ADD PUSH1 0x1 PUSH1 0x1 PUSH1 0x40 SHL SUB DUP2 GT DUP3 DUP3 LT OR ISZERO PUSH2 0x1B15 JUMPI PUSH1 0x0 DUP1 REVERT JUMPDEST PUSH1 0x40 MSTORE SWAP2 SWAP1 POP JUMP JUMPDEST PUSH1 0x0 PUSH1 0x1 PUSH1 0x1 PUSH1 0x40 SHL SUB DUP3 GT ISZERO PUSH2 0x1B33 JUMPI PUSH1 0x0 DUP1 REVERT JUMPDEST POP PUSH1 0x20 SWAP1 DUP2 MUL ADD SWAP1 JUMP JUMPDEST PUSH1 0x20 ADD SWAP1 JUMP JUMPDEST MLOAD SWAP1 JUMP JUMPDEST SWAP1 DUP2 MSTORE PUSH1 0x20 ADD SWAP1 JUMP JUMPDEST PUSH1 0x0 PUSH2 0xB75 DUP3 PUSH2 0x1B98 JUMP JUMPDEST ISZERO ISZERO SWAP1 JUMP JUMPDEST SWAP1 JUMP JUMPDEST PUSH1 0x0 PUSH2 0xB75 DUP3 PUSH2 0x1B50 JUMP JUMPDEST DUP1 PUSH2 0x34D DUP2 PUSH2 0x1C03 JUMP JUMPDEST DUP1 PUSH2 0x34D DUP2 PUSH2 0x1C10 JUMP JUMPDEST DUP1 PUSH2 0x34D DUP2 PUSH2 0x1C1A JUMP JUMPDEST PUSH1 0x1 PUSH1 0x1 PUSH1 0x80 SHL SUB AND SWAP1 JUMP JUMPDEST PUSH1 0x1 PUSH1 0x1 PUSH1 0xA0 SHL SUB AND SWAP1 JUMP JUMPDEST PUSH1 0x1 PUSH1 0x1 PUSH1 0x40 SHL SUB AND SWAP1 JUMP JUMPDEST PUSH1 0xFF AND SWAP1 JUMP JUMPDEST PUSH1 0x0 PUSH2 0xB75 DUP3 PUSH2 0x1B6E JUMP JUMPDEST PUSH1 0x0 PUSH2 0xB75 DUP3 PUSH2 0x1B78 JUMP JUMPDEST PUSH1 0x0 PUSH2 0xB75 DUP3 PUSH2 0x1B82 JUMP JUMPDEST PUSH1 0x0 JUMPDEST DUP4 DUP2 LT ISZERO PUSH2 0x1BF2 JUMPI DUP2 DUP2 ADD MLOAD DUP4 DUP3 ADD MSTORE PUSH1 0x20 ADD PUSH2 0x1BDA JUMP JUMPDEST DUP4 DUP2 GT ISZERO PUSH2 0x18E3 JUMPI POP POP PUSH1 0x0 SWAP2 ADD MSTORE JUMP JUMPDEST PUSH1 0x4 DUP2 LT PUSH2 0x1C0D JUMPI INVALID JUMPDEST POP JUMP JUMPDEST PUSH1 0x8 DUP2 LT PUSH2 0x1C0D JUMPI INVALID JUMPDEST PUSH1 0x5 DUP2 LT PUSH2 0x1C0D JUMPI INVALID JUMPDEST PUSH2 0x1C2D DUP2 PUSH2 0x1B50 JUMP JUMPDEST DUP2 EQ PUSH2 0x1C0D JUMPI PUSH1 0x0 DUP1 REVERT JUMPDEST PUSH2 0x1C2D DUP2 PUSH2 0x1B5B JUMP JUMPDEST PUSH2 0x1C2D DUP2 PUSH2 0x1B60 JUMP JUMPDEST PUSH2 0x1C2D DUP2 PUSH2 0x1B63 JUMP JUMPDEST PUSH1 0x5 DUP2 LT PUSH2 0x1C0D JUMPI PUSH1 0x0 DUP1 REVERT JUMPDEST PUSH1 0x4 DUP2 LT PUSH2 0x1C0D JUMPI PUSH1 0x0 DUP1 REVERT JUMPDEST PUSH2 0x1C2D DUP2 PUSH2 0x1B8C JUMP JUMPDEST PUSH2 0x1C2D DUP2 PUSH2 0x1BA4 JUMP JUMPDEST PUSH2 0x1C2D DUP2 PUSH2 0x1BB0 JUMP INVALID PUSH1 0x80 PUSH1 0x40 MSTORE CALLVALUE DUP1 ISZERO PUSH2 0x10 JUMPI PUSH1 0x0 DUP1 REVERT JUMPDEST POP PUSH2 0x25E DUP1 PUSH2 0x20 PUSH1 0x0 CODECOPY PUSH1 0x0 RETURN INVALID PUSH1 0x80 PUSH1 0x40 MSTORE CALLVALUE DUP1 ISZERO PUSH2 0x10 JUMPI PUSH1 0x0 DUP1 REVERT JUMPDEST POP PUSH1 0x4 CALLDATASIZE LT PUSH2 0x41 JUMPI PUSH1 0x0 CALLDATALOAD PUSH1 0xE0 SHR DUP1 PUSH4 0x3C9DC74D EQ PUSH2 0x46 JUMPI DUP1 PUSH4 0x70A08231 EQ PUSH2 0x5B JUMPI DUP1 PUSH4 0xDD62ED3E EQ PUSH2 0x84 JUMPI JUMPDEST PUSH1 0x0 DUP1 REVERT JUMPDEST PUSH2 0x59 PUSH2 0x54 CALLDATASIZE PUSH1 0x4 PUSH2 0x176 JUMP JUMPDEST PUSH2 0x97 JUMP JUMPDEST STOP JUMPDEST PUSH2 0x6E PUSH2 0x69 CALLDATASIZE PUSH1 0x4 PUSH2 0x116 JUMP JUMPDEST PUSH2 0xCB JUMP JUMPDEST PUSH1 0x40 MLOAD PUSH2 0x7B SWAP2 SWAP1 PUSH2 0x1E6 JUMP JUMPDEST PUSH1 0x40 MLOAD DUP1 SWAP2 SUB SWAP1 RETURN JUMPDEST PUSH2 0x6E PUSH2 0x92 CALLDATASIZE PUSH1 0x4 PUSH2 0x13C JUMP JUMPDEST PUSH2 0xDD JUMP JUMPDEST PUSH1 0x1 PUSH1 0x1 PUSH1 0xA0 SHL SUB SWAP4 DUP5 AND PUSH1 0x0 SWAP1 DUP2 MSTORE PUSH1 0x20 DUP2 DUP2 MSTORE PUSH1 0x40 DUP1 DUP4 KECCAK256 SWAP5 SWAP1 SWAP5 SSTORE PUSH1 0x1 DUP2 MSTORE DUP4 DUP3 KECCAK256 SWAP5 SWAP1 SWAP6 AND DUP2 MSTORE SWAP3 SWAP1 SWAP4 MSTORE SWAP1 KECCAK256 SSTORE JUMP JUMPDEST PUSH1 0x0 PUSH1 0x20 DUP2 SWAP1 MSTORE SWAP1 DUP2 MSTORE PUSH1 0x40 SWAP1 KECCAK256 SLOAD DUP2 JUMP JUMPDEST PUSH1 0x1 PUSH1 0x20 SWAP1 DUP2 MSTORE PUSH1 0x0 SWAP3 DUP4 MSTORE PUSH1 0x40 DUP1 DUP5 KECCAK256 SWAP1 SWAP2 MSTORE SWAP1 DUP3 MSTORE SWAP1 KECCAK256 SLOAD DUP2 JUMP JUMPDEST DUP1 CALLDATALOAD PUSH2 0x105 DUP2 PUSH2 0x208 JUMP JUMPDEST SWAP3 SWAP2 POP POP JUMP JUMPDEST DUP1 CALLDATALOAD PUSH2 0x105 DUP2 PUSH2 0x21F JUMP JUMPDEST PUSH1 0x0 PUSH1 0x20 DUP3 DUP5 SUB SLT ISZERO PUSH2 0x128 JUMPI PUSH1 0x0 DUP1 REVERT JUMPDEST PUSH1 0x0 PUSH2 0x134 DUP5 DUP5 PUSH2 0xFA JUMP JUMPDEST SWAP5 SWAP4 POP POP POP POP JUMP JUMPDEST PUSH1 0x0 DUP1 PUSH1 0x40 DUP4 DUP6 SUB SLT ISZERO PUSH2 0x14F JUMPI PUSH1 0x0 DUP1 REVERT JUMPDEST PUSH1 0x0 PUSH2 0x15B DUP6 DUP6 PUSH2 0xFA JUMP JUMPDEST SWAP3 POP POP PUSH1 0x20 PUSH2 0x16C DUP6 DUP3 DUP7 ADD PUSH2 0xFA JUMP JUMPDEST SWAP2 POP POP SWAP3 POP SWAP3 SWAP1 POP JUMP JUMPDEST PUSH1 0x0 DUP1 PUSH1 0x0 DUP1 PUSH1 0x80 DUP6 DUP8 SUB SLT ISZERO PUSH2 0x18C JUMPI PUSH1 0x0 DUP1 REVERT JUMPDEST PUSH1 0x0 PUSH2 0x198 DUP8 DUP8 PUSH2 0xFA JUMP JUMPDEST SWAP5 POP POP PUSH1 0x20 PUSH2 0x1A9 DUP8 DUP3 DUP9 ADD PUSH2 0xFA JUMP JUMPDEST SWAP4 POP POP PUSH1 0x40 PUSH2 0x1BA DUP8 DUP3 DUP9 ADD PUSH2 0x10B JUMP JUMPDEST SWAP3 POP POP PUSH1 0x60 PUSH2 0x1CB DUP8 DUP3 DUP9 ADD PUSH2 0x10B JUMP JUMPDEST SWAP2 POP POP SWAP3 SWAP6 SWAP2 SWAP5 POP SWAP3 POP JUMP JUMPDEST PUSH2 0x1E0 DUP2 PUSH2 0x205 JUMP JUMPDEST DUP3 MSTORE POP POP JUMP JUMPDEST PUSH1 0x20 DUP2 ADD PUSH2 0x105 DUP3 DUP5 PUSH2 0x1D7 JUMP JUMPDEST PUSH1 0x0 PUSH1 0x1 PUSH1 0x1 PUSH1 0xA0 SHL SUB DUP3 AND PUSH2 0x105 JUMP JUMPDEST SWAP1 JUMP JUMPDEST PUSH2 0x211 DUP2 PUSH2 0x1F4 JUMP JUMPDEST DUP2 EQ PUSH2 0x21C JUMPI PUSH1 0x0 DUP1 REVERT JUMPDEST POP JUMP JUMPDEST PUSH2 0x211 DUP2 PUSH2 0x205 JUMP INVALID LOG2 PUSH5 0x6970667358 0x22 SLT KECCAK256 SWAP16 GT PUSH7 0x1BCF6F65C9DACB 0x4E ORIGIN 0xB6 CODESIZE DUP8 PUSH4 0x460B981 0x2B DIV LOG1 0x1E 0xA8 PUSH20 0x91C49A93FFBB64736F6C634300060C0033A26469 PUSH17 0x667358221220884E59B9D05BB14A2CB1A9 0xE3 PUSH22 0x57AD2FFEE324D199ED1DF25512EE333138E88864736F PUSH13 0x634300060C0033000000000000 "
            }
        }
    },
    "sourceTreeHashHex": "0xf55786b5345ad9f88006e7e7296043d338db829bf7aea185d8231d62f9541301",
    "compiler": {
        "name": "solc",
        "version": "0.6.12+commit.27d51765",
        "settings": {
            "remappings": [
                "@0x/contracts-utils=/home/cluracan/code/0x/protocol/node_modules/@0x/contracts-utils",
                "@0x/contracts-erc20=/home/cluracan/code/0x/protocol/node_modules/@0x/contracts-erc20",
                "@0x/contracts-zero-ex=/home/cluracan/code/0x/protocol/node_modules/@0x/contracts-zero-ex"
            ],
            "optimizer": {
                "enabled": true,
                "runs": 200,
                "details": {
                    "yul": false,
                    "deduplicate": true
                }
            },
            "outputSelection": {
                "*": {
                    "*": [
                        "abi",
                        "devdoc",
                        "evm.bytecode.object",
                        "evm.bytecode.sourceMap",
                        "evm.deployedBytecode.object",
                        "evm.deployedBytecode.sourceMap"
                    ]
                }
            },
            "evmVersion": "istanbul"
        }
    },
    "chains": {}
}