{
    "schemaVersion": "2.0.0",
    "contractName": "TestLibDydxBalance",
    "compilerOutput": {
        "abi": [
            {
                "constant": true,
                "inputs": [
                    {
                        "components": [
                            {
                                "internalType": "contract IDydx",
                                "name": "dydx",
                                "type": "address"
                            },
                            {
                                "internalType": "address",
                                "name": "bridgeAddress",
                                "type": "address"
                            },
                            {
                                "internalType": "address",
                                "name": "makerAddress",
                                "type": "address"
                            },
                            {
                                "internalType": "address",
                                "name": "makerTokenAddress",
                                "type": "address"
                            },
                            {
                                "internalType": "address",
                                "name": "takerTokenAddress",
                                "type": "address"
                            },
                            {
                                "internalType": "int256",
                                "name": "orderMakerToTakerRate",
                                "type": "int256"
                            },
                            {
                                "internalType": "uint256[]",
                                "name": "accounts",
                                "type": "uint256[]"
                            },
                            {
                                "components": [
                                    {
                                        "internalType": "enum IDydxBridge.BridgeActionType",
                                        "name": "actionType",
                                        "type": "uint8"
                                    },
                                    {
                                        "internalType": "uint256",
                                        "name": "accountIdx",
                                        "type": "uint256"
                                    },
                                    {
                                        "internalType": "uint256",
                                        "name": "marketId",
                                        "type": "uint256"
                                    },
                                    {
                                        "internalType": "uint256",
                                        "name": "conversionRateNumerator",
                                        "type": "uint256"
                                    },
                                    {
                                        "internalType": "uint256",
                                        "name": "conversionRateDenominator",
                                        "type": "uint256"
                                    }
                                ],
                                "internalType": "struct IDydxBridge.BridgeAction[]",
                                "name": "actions",
                                "type": "tuple[]"
                            }
                        ],
                        "internalType": "struct LibDydxBalance.BalanceCheckInfo",
                        "name": "info",
                        "type": "tuple"
                    }
                ],
                "name": "areActionsWellFormed",
                "outputs": [
                    {
                        "internalType": "bool",
                        "name": "areWellFormed",
                        "type": "bool"
                    }
                ],
                "payable": false,
                "stateMutability": "view",
                "type": "function"
            },
            {
                "constant": false,
                "inputs": [
                    {
                        "internalType": "uint8",
                        "name": "decimals",
                        "type": "uint8"
                    }
                ],
                "name": "createToken",
                "outputs": [
                    {
                        "internalType": "address",
                        "name": "",
                        "type": "address"
                    }
                ],
                "payable": false,
                "stateMutability": "nonpayable",
                "type": "function"
            },
            {
                "constant": true,
                "inputs": [
                    {
                        "components": [
                            {
                                "internalType": "contract IDydx",
                                "name": "dydx",
                                "type": "address"
                            },
                            {
                                "internalType": "address",
                                "name": "bridgeAddress",
                                "type": "address"
                            },
                            {
                                "internalType": "address",
                                "name": "makerAddress",
                                "type": "address"
                            },
                            {
                                "internalType": "address",
                                "name": "makerTokenAddress",
                                "type": "address"
                            },
                            {
                                "internalType": "address",
                                "name": "takerTokenAddress",
                                "type": "address"
                            },
                            {
                                "internalType": "int256",
                                "name": "orderMakerToTakerRate",
                                "type": "int256"
                            },
                            {
                                "internalType": "uint256[]",
                                "name": "accounts",
                                "type": "uint256[]"
                            },
                            {
                                "components": [
                                    {
                                        "internalType": "enum IDydxBridge.BridgeActionType",
                                        "name": "actionType",
                                        "type": "uint8"
                                    },
                                    {
                                        "internalType": "uint256",
                                        "name": "accountIdx",
                                        "type": "uint256"
                                    },
                                    {
                                        "internalType": "uint256",
                                        "name": "marketId",
                                        "type": "uint256"
                                    },
                                    {
                                        "internalType": "uint256",
                                        "name": "conversionRateNumerator",
                                        "type": "uint256"
                                    },
                                    {
                                        "internalType": "uint256",
                                        "name": "conversionRateDenominator",
                                        "type": "uint256"
                                    }
                                ],
                                "internalType": "struct IDydxBridge.BridgeAction[]",
                                "name": "actions",
                                "type": "tuple[]"
                            }
                        ],
                        "internalType": "struct LibDydxBalance.BalanceCheckInfo",
                        "name": "info",
                        "type": "tuple"
                    }
                ],
                "name": "getDepositableMakerAmount",
                "outputs": [
                    {
                        "internalType": "uint256",
                        "name": "depositableMakerAmount",
                        "type": "uint256"
                    }
                ],
                "payable": false,
                "stateMutability": "view",
                "type": "function"
            },
            {
                "constant": true,
                "inputs": [
                    {
                        "components": [
                            {
                                "internalType": "address",
                                "name": "makerAddress",
                                "type": "address"
                            },
                            {
                                "internalType": "address",
                                "name": "takerAddress",
                                "type": "address"
                            },
                            {
                                "internalType": "address",
                                "name": "feeRecipientAddress",
                                "type": "address"
                            },
                            {
                                "internalType": "address",
                                "name": "senderAddress",
                                "type": "address"
                            },
                            {
                                "internalType": "uint256",
                                "name": "makerAssetAmount",
                                "type": "uint256"
                            },
                            {
                                "internalType": "uint256",
                                "name": "takerAssetAmount",
                                "type": "uint256"
                            },
                            {
                                "internalType": "uint256",
                                "name": "makerFee",
                                "type": "uint256"
                            },
                            {
                                "internalType": "uint256",
                                "name": "takerFee",
                                "type": "uint256"
                            },
                            {
                                "internalType": "uint256",
                                "name": "expirationTimeSeconds",
                                "type": "uint256"
                            },
                            {
                                "internalType": "uint256",
                                "name": "salt",
                                "type": "uint256"
                            },
                            {
                                "internalType": "bytes",
                                "name": "makerAssetData",
                                "type": "bytes"
                            },
                            {
                                "internalType": "bytes",
                                "name": "takerAssetData",
                                "type": "bytes"
                            },
                            {
                                "internalType": "bytes",
                                "name": "makerFeeAssetData",
                                "type": "bytes"
                            },
                            {
                                "internalType": "bytes",
                                "name": "takerFeeAssetData",
                                "type": "bytes"
                            }
                        ],
                        "internalType": "struct LibOrder.Order",
                        "name": "order",
                        "type": "tuple"
                    },
                    {
                        "internalType": "address",
                        "name": "dydx",
                        "type": "address"
                    }
                ],
                "name": "getDydxMakerBalance",
                "outputs": [
                    {
                        "internalType": "uint256",
                        "name": "balance",
                        "type": "uint256"
                    }
                ],
                "payable": false,
                "stateMutability": "view",
                "type": "function"
            },
            {
                "constant": true,
                "inputs": [
                    {
                        "components": [
                            {
                                "internalType": "contract IDydx",
                                "name": "dydx",
                                "type": "address"
                            },
                            {
                                "internalType": "address",
                                "name": "bridgeAddress",
                                "type": "address"
                            },
                            {
                                "internalType": "address",
                                "name": "makerAddress",
                                "type": "address"
                            },
                            {
                                "internalType": "address",
                                "name": "makerTokenAddress",
                                "type": "address"
                            },
                            {
                                "internalType": "address",
                                "name": "takerTokenAddress",
                                "type": "address"
                            },
                            {
                                "internalType": "int256",
                                "name": "orderMakerToTakerRate",
                                "type": "int256"
                            },
                            {
                                "internalType": "uint256[]",
                                "name": "accounts",
                                "type": "uint256[]"
                            },
                            {
                                "components": [
                                    {
                                        "internalType": "enum IDydxBridge.BridgeActionType",
                                        "name": "actionType",
                                        "type": "uint8"
                                    },
                                    {
                                        "internalType": "uint256",
                                        "name": "accountIdx",
                                        "type": "uint256"
                                    },
                                    {
                                        "internalType": "uint256",
                                        "name": "marketId",
                                        "type": "uint256"
                                    },
                                    {
                                        "internalType": "uint256",
                                        "name": "conversionRateNumerator",
                                        "type": "uint256"
                                    },
                                    {
                                        "internalType": "uint256",
                                        "name": "conversionRateDenominator",
                                        "type": "uint256"
                                    }
                                ],
                                "internalType": "struct IDydxBridge.BridgeAction[]",
                                "name": "actions",
                                "type": "tuple[]"
                            }
                        ],
                        "internalType": "struct LibDydxBalance.BalanceCheckInfo",
                        "name": "info",
                        "type": "tuple"
                    }
                ],
                "name": "getSolventMakerAmount",
                "outputs": [
                    {
                        "internalType": "uint256",
                        "name": "solventMakerAmount",
                        "type": "uint256"
                    }
                ],
                "payable": false,
                "stateMutability": "view",
                "type": "function"
            },
            {
                "constant": false,
                "inputs": [
                    {
                        "internalType": "address",
                        "name": "tokenAddress",
                        "type": "address"
                    },
                    {
                        "internalType": "address",
                        "name": "owner",
                        "type": "address"
                    },
                    {
                        "internalType": "address",
                        "name": "spender",
                        "type": "address"
                    },
                    {
                        "internalType": "uint256",
                        "name": "allowance",
                        "type": "uint256"
                    }
                ],
                "name": "setTokenApproval",
                "outputs": [],
                "payable": false,
                "stateMutability": "nonpayable",
                "type": "function"
            },
            {
                "constant": false,
                "inputs": [
                    {
                        "internalType": "address",
                        "name": "tokenAddress",
                        "type": "address"
                    },
                    {
                        "internalType": "address",
                        "name": "owner",
                        "type": "address"
                    },
                    {
                        "internalType": "uint256",
                        "name": "balance",
                        "type": "uint256"
                    }
                ],
                "name": "setTokenBalance",
                "outputs": [],
                "payable": false,
                "stateMutability": "nonpayable",
                "type": "function"
            }
        ],
        "devdoc": {
            "methods": {}
        },
        "evm": {
            "bytecode": {
                "linkReferences": {
                    "/Users/rickmorty/Documents/projects/0x/0x-monorepo/contracts/dev-utils/contracts/src/LibDydxBalance.sol": {
                        "LibDydxBalance": [
                            {
                                "length": 20,
                                "start": 603
                            }
                        ]
                    }
                },
                "object": "0x608060405234801561001057600080fd5b50612608806100206000396000f3fe60806040523480156200001157600080fd5b5060043610620000885760003560e01c806358067e15116200006357806358067e1514620000ec5780635aed4ec314620001125780635f54d2ba1462000138578063795001f4146200014f5762000088565b806304f5fd3d146200008d578063060dac8814620000bc578063519353b514620000d5575b600080fd5b620000a46200009e36600462001a87565b62000166565b604051620000b39190620021b2565b60405180910390f35b620000d3620000cd36600462001a42565b6200017b565b005b620000a4620000e636600462001baf565b62000210565b62000103620000fd36600462001a87565b620002c4565b604051620000b3919062001ee8565b620001296200012336600462001e01565b620002d1565b604051620000b3919062001e7d565b620000d362000149366004620019eb565b62000355565b620000a46200016036600462001a87565b620003ed565b60006200017382620003fa565b90505b919050565b6001600160a01b03808416600090815260208190526040908190205490517fe30443bc00000000000000000000000000000000000000000000000000000000815291169063e30443bc90620001d7908590859060040162001ecf565b600060405180830381600087803b158015620001f257600080fd5b505af115801562000207573d6000803e3d6000fd5b50505050505050565b6040517fd12a796000000000000000000000000000000000000000000000000000000000815260009073__$9b2d7ef2247de471c5cb1425c931cdd0e4$__9063d12a79609062000267908690869060040162002058565b60206040518083038186803b1580156200028057600080fd5b505af415801562000295573d6000803e3d6000fd5b505050506040513d601f19601f82011682018060405250620002bb919081019062001de8565b90505b92915050565b6000620001738262000656565b60008082604051620002e3906200175f565b620002ef9190620021bb565b604051809103906000f0801580156200030c573d6000803e3d6000fd5b506001600160a01b038116600081815260208190526040902080547fffffffffffffffffffffffff00000000000000000000000000000000000000001690911790559392505050565b6001600160a01b03808516600090815260208190526040908190205490517f0c9fcec9000000000000000000000000000000000000000000000000000000008152911690630c9fcec990620003b39086908690869060040162001eab565b600060405180830381600087803b158015620003ce57600080fd5b505af1158015620003e3573d6000803e3d6000fd5b5050505050505050565b600062000173826200087b565b60e08101515160001990600111156200040f57fe5b620004196200176d565b60e0830151805160001981019081106200042f57fe5b602002602001015190506001808111156200044657fe5b815160018111156200045457fe5b146200045c57fe5b60006200047e62000471856000015162000a11565b655af3107a400062000ab7565b905060005b8460c00151518110156200064e57600080620004b8878860c001518581518110620004aa57fe5b602002602001015162000ac5565b9150915080600014158015620004d8575083620004d6838362000bb8565b125b15620004ed5760009550505050505062000176565b846020015183146200050157505062000645565b6000805b60018960e0015151038110156200059057620005206200176d565b8960e0015182815181106200053157fe5b60200260200101519050600060018111156200054957fe5b815160018111156200055757fe5b146200055f57fe5b8581602001511415620005865762000583836200057d8c8462000c29565b62000ab7565b92505b5060010162000505565b5060006200059f898862000c29565b905085620005ae838362000f35565b12620005be575050505062000645565b81620005cb878362000f4f565b1415620005dc575050505062000645565b600062000616620005f986620005f38a8862000f70565b62000fa5565b62000610620006098a8662000f4f565b8662000fd9565b62000f35565b90506200063d89620006378c60600151620006318562000fea565b62001003565b6200107d565b985050505050505b60010162000483565b505050919050565b60008160e001515160001415620006705750600062000176565b60005b8260e001515181101562000746576200068b6200176d565b8360e0015182815181106200069c57fe5b6020026020010151905060006001811115620006b457fe5b81516001811115620006c257fe5b14620006cf575062000746565b604081015160005b838110156200071c57818660e001518281518110620006f257fe5b60200260200101516040015114156200071357600094505050505062000176565b600101620006d7565b508460c00151518260200151106200073b576000935050505062000176565b505060010162000673565b8260e001515181600101146200076157600091505062000176565b6200076b6200176d565b8360e0015182815181106200077c57fe5b602002602001015190506001808111156200079357fe5b81516001811115620007a157fe5b14620007b35760009250505062000176565b83606001516001600160a01b031684600001516001600160a01b031663062bd3e983604001516040518263ffffffff1660e01b8152600401620007f79190620021b2565b60206040518083038186803b1580156200081057600080fd5b505afa15801562000825573d6000803e3d6000fd5b505050506040513d601f19601f820116820180604052506200084b9190810190620019cc565b6001600160a01b031614620008665760009250505062000176565b8360c001515181602001511092505050919050565b60001960005b8260e001515181101562000a0b57620008996200176d565b8360e001518281518110620008aa57fe5b6020026020010151905060006001811115620008c257fe5b81516001811115620008d057fe5b14620008dd575062000a02565b6000620008ea8262001095565b9050600085600001516001600160a01b031663062bd3e984604001516040518263ffffffff1660e01b8152600401620009249190620021b2565b60206040518083038186803b1580156200093d57600080fd5b505afa15801562000952573d6000803e3d6000fd5b505050506040513d601f19601f82011682018060405250620009789190810190620019cc565b60808701519091506001600160a01b031615801590620009ad575085608001516001600160a01b0316816001600160a01b0316145b15620009c657620009c3828760a0015162000fd9565b91505b6000821315620009fe576000620009e78288604001518960000151620010c8565b9050620009fa86620006378386620010e7565b9550505b5050505b60010162000881565b50919050565b600062000a1d6200179d565b826001600160a01b031663697947956040518163ffffffff1660e01b815260040160806040518083038186803b15801562000a5757600080fd5b505afa15801562000a6c573d6000803e3d6000fd5b505050506040513d601f19601f8201168201806040525062000a92919081019062001d49565b905062000ab062000aa26200110c565b8251516200057d9062001118565b9392505050565b6000620002bb838362001141565b60008062000ad2620017e4565b62000adc620017e4565b85600001516001600160a01b031663f9416052604051806040016040528089604001516001600160a01b03168152602001888152506040518263ffffffff1660e01b815260040162000b2f919062002038565b604080518083038186803b15801562000b4757600080fd5b505afa15801562000b5c573d6000803e3d6000fd5b505050506040513d601f19601f8201168201806040525062000b82919081019062001db8565b81519193509150670de0b6b3a76400009004670de0b6b3a764000082600001518162000baa57fe5b049350935050509250929050565b60008083121562000be65760405162461bcd60e51b815260040162000bdd9062001f5c565b60405180910390fd5b600082121562000c0a5760405162461bcd60e51b815260040162000bdd9062001f5c565b620002bb62000c2284670de0b6b3a7640000620011a5565b8362001208565b60008083600001516001600160a01b031663062bd3e984604001516040518263ffffffff1660e01b815260040162000c629190620021b2565b60206040518083038186803b15801562000c7b57600080fd5b505afa15801562000c90573d6000803e3d6000fd5b505050506040513d601f19601f8201168201806040525062000cb69190810190620019cc565b9050600062000cc985606001516200128d565b60ff169050600062000cdb836200128d565b60ff16905081811162000d105762000d0a818303600a0a62000cfd8762001095565b9063ffffffff6200135916565b62000d32565b62000d32828203600a0a62000d258762001095565b9063ffffffff6200139716565b9350600086600001516001600160a01b0316638928378e87604001516040518263ffffffff1660e01b815260040162000d6c9190620021b2565b60206040518083038186803b15801562000d8557600080fd5b505afa15801562000d9a573d6000803e3d6000fd5b505050506040513d601f19601f8201168201806040525062000dc0919081019062001b91565b519050601282111562000e0c5762000e04817fffffffffffffffffffffffffffffffffffffffffffffffffffffffffffffffee8401600a0a63ffffffff6200135916565b905062000e28565b62000e25816012849003600a0a63ffffffff6200139716565b90505b62000e348186620013c6565b9450600062000eee62000e466200110c565b89516040808b015190517ffd04b6060000000000000000000000000000000000000000000000000000000081526001600160a01b039092169163fd04b6069162000e9391600401620021b2565b60206040518083038186803b15801562000eac57600080fd5b505afa15801562000ec1573d6000803e3d6000fd5b505050506040513d601f19601f8201168201806040525062000ee7919081019062001b91565b51620013eb565b905060008751600181111562000f0057fe5b141562000f1b5762000f13868262000f35565b955062000f2a565b62000f27868262000f4f565b95505b505050505092915050565b6000620002bb62000c2284670de0b6b3a7640000620011a5565b6000620002bb62000f618484620011a5565b670de0b6b3a764000062001208565b60008082121562000f955760405162461bcd60e51b815260040162000bdd9062001f5c565b620002bb62000f618484620011a5565b60008083121562000fca5760405162461bcd60e51b815260040162000bdd9062001f5c565b620002bb838360000362001141565b6000620002bb838360000362001141565b600080821262000ffb578162000173565b600092915050565b60008062001011846200128d565b60ff169050601281116200103e5762001038836012839003600a0a63ffffffff6200139716565b62001075565b62001075837fffffffffffffffffffffffffffffffffffffffffffffffffffffffffffffffee8301600a0a63ffffffff6200135916565b949350505050565b60008183106200108e5781620002bb565b5090919050565b60008160800151600014620010be57620010b88260600151836080015162000bb8565b62000173565b620001736200110c565b600062001075620010db8585856200141c565b62000637868662001548565b60008083121562000c0a5760405162461bcd60e51b815260040162000bdd9062001f5c565b670de0b6b3a764000090565b6000808212156200113d5760405162461bcd60e51b815260040162000bdd9062001f5c565b5090565b818101600083128015620011555750600082125b80156200116157508281135b80620011855750600083138015620011795750600082135b80156200118557508281125b15620002be5760405162461bcd60e51b815260040162000bdd9062001f25565b6000821580620011b3575081155b15620011c257506000620002be565b5081810281838281620011d157fe5b05148015620011e9575082828281620011e657fe5b05145b620002be5760405162461bcd60e51b815260040162000bdd9062001f93565b6000816200122a5760405162461bcd60e51b815260040162000bdd9062002001565b7f8000000000000000000000000000000000000000000000000000000000000000831415806200125c57508160001914155b6200127b5760405162461bcd60e51b815260040162000bdd9062001fca565b8183816200128557fe5b059392505050565b60006012905060006060836001600160a01b03166040518060400160405280600481526020017f313ce56700000000000000000000000000000000000000000000000000000000815250604051620012e6919062001e5f565b600060405180830381855afa9150503d806000811462001323576040519150601f19603f3d011682016040523d82523d6000602084013e62001328565b606091505b50915091508180156200133c575080516020145b1562001352576200134f81600062001671565b92505b5050919050565b6000826200136a57506000620002be565b828202828482816200137857fe5b0414620002bb57620002bb62001391600186866200167f565b62001708565b600081620013b157620013b162001391600385856200167f565b6000828481620013bd57fe5b04949350505050565b60008083121562000f955760405162461bcd60e51b815260040162000bdd9062001f5c565b600080821215620014105760405162461bcd60e51b815260040162000bdd9062001f5c565b620002bb838362001141565b60405160009081906060906001600160a01b038716907fdd62ed3e000000000000000000000000000000000000000000000000000000009062001466908890889060240162001e91565b60408051601f198184030181529181526020820180517bffffffffffffffffffffffffffffffffffffffffffffffffffffffff167fffffffff00000000000000000000000000000000000000000000000000000000909416939093179092529051620014d3919062001e5f565b600060405180830381855afa9150503d806000811462001510576040519150601f19603f3d011682016040523d82523d6000602084013e62001515565b606091505b509150915081801562001529575080516020145b156200153f576200153c81600062001671565b92505b50509392505050565b60405160009081906060906001600160a01b038616907f70a0823100000000000000000000000000000000000000000000000000000000906200159090879060240162001e7d565b60408051601f198184030181529181526020820180517bffffffffffffffffffffffffffffffffffffffffffffffffffffffff167fffffffff00000000000000000000000000000000000000000000000000000000909416939093179092529051620015fd919062001e5f565b600060405180830381855afa9150503d80600081146200163a576040519150601f19603f3d011682016040523d82523d6000602084013e6200163f565b606091505b509150915081801562001653575080516020145b1562001669576200166681600062001671565b92505b505092915050565b6000620002bb838362001710565b606063e946c1bb60e01b848484604051602401620016a09392919062001ef3565b60408051601f198184030181529190526020810180517bffffffffffffffffffffffffffffffffffffffffffffffffffffffff167fffffffff000000000000000000000000000000000000000000000000000000009093169290921790915290509392505050565b805160208201fd5b600081602001835110156200173557620017356200139160058551856020016200173e565b50016020015190565b6060632800659560e01b848484604051602401620016a09392919062001f16565b610367806200225f83390190565b6040805160a081019091528060008152602001600081526020016000815260200160008152602001600081525090565b6040518060800160405280620017b2620017e4565b8152602001620017c1620017e4565b8152602001620017d0620017e4565b8152602001620017df620017e4565b905290565b6040518060200160405280600081525090565b8035620002be8162002245565b600082601f83011262001815578081fd5b81356200182c6200182682620021f1565b620021c9565b818152915060208083019084810160a08402860182018710156200184f57600080fd5b60005b8481101562000f2a5760a082890312156200186c57600080fd5b6200187860a0620021c9565b62001884898462001994565b8152828401358482015260408084013590820152606080840135908201526080808401359082015284529282019260a09091019060010162001852565b600082601f830112620018d2578081fd5b8135620018e36200182682620021f1565b8181529150602080830190848101818402860182018710156200190557600080fd5b60005b8481101562000f2a5781358452928201929082019060010162001908565b600082601f83011262001937578081fd5b813567ffffffffffffffff8111156200194e578182fd5b620019636020601f19601f84011601620021c9565b91508082528360208285010111156200197b57600080fd5b8060208401602084013760009082016020015292915050565b803560028110620002be57600080fd5b600060208284031215620019b6578081fd5b620019c26020620021c9565b9151825250919050565b600060208284031215620019de578081fd5b8151620002bb8162002245565b6000806000806080858703121562001a01578283fd5b843562001a0e8162002245565b9350602085013562001a208162002245565b9250604085013562001a328162002245565b9396929550929360600135925050565b60008060006060848603121562001a57578081fd5b833562001a648162002245565b9250602084013562001a768162002245565b929592945050506040919091013590565b60006020828403121562001a99578081fd5b813567ffffffffffffffff8082111562001ab1578283fd5b61010091840180860383131562001ac6578384fd5b62001ad183620021c9565b62001add8783620017f7565b815262001aee8760208401620017f7565b602082015262001b028760408401620017f7565b604082015262001b168760608401620017f7565b606082015262001b2a8760808401620017f7565b608082015260a082013560a082015260c082013593508284111562001b4d578485fd5b62001b5b87858401620018c1565b60c082015260e082013593508284111562001b74578485fd5b62001b828785840162001804565b60e08201529695505050505050565b60006020828403121562001ba3578081fd5b620002bb8383620019a4565b6000806040838503121562001bc2578182fd5b823567ffffffffffffffff8082111562001bda578384fd5b6101c091850180870383131562001bef578485fd5b62001bfa83620021c9565b62001c068883620017f7565b815262001c178860208401620017f7565b602082015262001c2b8860408401620017f7565b604082015262001c3f8860608401620017f7565b60608201526080820135608082015260a082013560a082015260c082013560c082015260e082013560e082015261010093508382013584820152610120935083820135848201526101409350838201358381111562001c9c578687fd5b62001caa8982850162001926565b85830152506101609350838201358381111562001cc5578687fd5b62001cd38982850162001926565b85830152506101809350838201358381111562001cee578687fd5b62001cfc8982850162001926565b85830152506101a09350838201358381111562001d17578687fd5b62001d258982850162001926565b85830152508095505050505062001d408460208501620017f7565b90509250929050565b60006080828403121562001d5b578081fd5b62001d676080620021c9565b62001d738484620019a4565b815262001d848460208501620019a4565b602082015262001d988460408501620019a4565b604082015262001dac8460608501620019a4565b60608201529392505050565b6000806040838503121562001dcb578182fd5b62001dd78484620019a4565b915062001d408460208501620019a4565b60006020828403121562001dfa578081fd5b5051919050565b60006020828403121562001e13578081fd5b813560ff81168114620002bb578182fd5b6001600160a01b03169052565b6000815180845262001e4b81602086016020860162002212565b601f01601f19169290920160200192915050565b6000825162001e7381846020870162002212565b9190910192915050565b6001600160a01b0391909116815260200190565b6001600160a01b0392831681529116602082015260400190565b6001600160a01b039384168152919092166020820152604081019190915260600190565b6001600160a01b03929092168252602082015260400190565b901515815260200190565b606081016004851062001f0257fe5b938152602081019290925260409091015290565b606081016008851062001f0257fe5b60208082526018908201527f4431382f444543494d414c5f4144445f4f564552464c4f570000000000000000604082015260600190565b60208082526019908201527f4431382f444543494d414c5f56414c55455f544f4f5f42494700000000000000604082015260600190565b60208082526018908201527f4431382f444543494d414c5f4d554c5f4f564552464c4f570000000000000000604082015260600190565b60208082526018908201527f4431382f444543494d414c5f4449565f4f564552464c4f570000000000000000604082015260600190565b60208082526017908201527f4431382f444543494d414c5f4449565f42595f5a45524f000000000000000000604082015260600190565b81516001600160a01b031681526020918201519181019190915260400190565b6000604082526200206e60408301855162001e24565b602084015162002082606084018262001e24565b50604084015162002097608084018262001e24565b506060840151620020ac60a084018262001e24565b50608084015160c083015260a084015160e083015260c0840151610100818185015260e086015191506101208281860152818701519250610140915082828601528087015192505061016082818601528187015192506101c0915061018082818701526200211f61020087018562001e31565b8289015194507fffffffffffffffffffffffffffffffffffffffffffffffffffffffffffffffc092506101a083888303018189015262002160828762001e31565b838b015196508489820301868a01526200217b818862001e31565b955050808a0151955050505080858303016101e0860152506200219f818362001e31565b9250505062000ab0602083018462001e24565b90815260200190565b60ff91909116815260200190565b60405181810167ffffffffffffffff81118282101715620021e957600080fd5b604052919050565b600067ffffffffffffffff82111562002208578081fd5b5060209081020190565b60005b838110156200222f57818101518382015260200162002215565b838111156200223f576000848401525b50505050565b6001600160a01b03811681146200225b57600080fd5b5056fe608060405234801561001057600080fd5b5060405161036738038061036783398101604081905261002f91610048565b6000805460ff191660ff92909216919091179055610070565b600060208284031215610059578081fd5b815160ff81168114610069578182fd5b9392505050565b6102e88061007f6000396000f3fe608060405234801561001057600080fd5b50600436106100675760003560e01c806370a082311161005057806370a082311461009f578063dd62ed3e146100bf578063e30443bc146100d257610067565b80630c9fcec91461006c578063313ce56714610081575b600080fd5b61007f61007a3660046101ff565b6100e5565b005b61008961011e565b6040516100969190610272565b60405180910390f35b6100b26100ad3660046101a9565b610127565b6040516100969190610269565b6100b26100cd3660046101cb565b610139565b61007f6100e036600461023f565b610156565b73ffffffffffffffffffffffffffffffffffffffff92831660009081526002602090815260408083209490951682529290925291902055565b60005460ff1681565b60016020526000908152604090205481565b600260209081526000928352604080842090915290825290205481565b73ffffffffffffffffffffffffffffffffffffffff909116600090815260016020526040902055565b803573ffffffffffffffffffffffffffffffffffffffff811681146101a357600080fd5b92915050565b6000602082840312156101ba578081fd5b6101c4838361017f565b9392505050565b600080604083850312156101dd578081fd5b6101e7848461017f565b91506101f6846020850161017f565b90509250929050565b600080600060608486031215610213578081fd5b833561021e81610280565b9250602084013561022e81610280565b929592945050506040919091013590565b60008060408385031215610251578182fd5b61025b848461017f565b946020939093013593505050565b90815260200190565b60ff91909116815260200190565b73ffffffffffffffffffffffffffffffffffffffff811681146102a257600080fd5b5056fea365627a7a723158206bc7d0881d2ee5d99bc078f7e7a00cd836a810b6ba96749c50808315798d88df6c6578706572696d656e74616cf564736f6c63430005110040a365627a7a7231582091127c28ad6bd484848d4ad9c1a204b5c3c6fa0c3dacde26b2cf5b6c08c5af026c6578706572696d656e74616cf564736f6c63430005110040",
                "opcodes": "PUSH1 0x80 PUSH1 0x40 MSTORE CALLVALUE DUP1 ISZERO PUSH2 0x10 JUMPI PUSH1 0x0 DUP1 REVERT JUMPDEST POP PUSH2 0x2608 DUP1 PUSH2 0x20 PUSH1 0x0 CODECOPY PUSH1 0x0 RETURN INVALID PUSH1 0x80 PUSH1 0x40 MSTORE CALLVALUE DUP1 ISZERO PUSH3 0x11 JUMPI PUSH1 0x0 DUP1 REVERT JUMPDEST POP PUSH1 0x4 CALLDATASIZE LT PUSH3 0x88 JUMPI PUSH1 0x0 CALLDATALOAD PUSH1 0xE0 SHR DUP1 PUSH4 0x58067E15 GT PUSH3 0x63 JUMPI DUP1 PUSH4 0x58067E15 EQ PUSH3 0xEC JUMPI DUP1 PUSH4 0x5AED4EC3 EQ PUSH3 0x112 JUMPI DUP1 PUSH4 0x5F54D2BA EQ PUSH3 0x138 JUMPI DUP1 PUSH4 0x795001F4 EQ PUSH3 0x14F JUMPI PUSH3 0x88 JUMP JUMPDEST DUP1 PUSH4 0x4F5FD3D EQ PUSH3 0x8D JUMPI DUP1 PUSH4 0x60DAC88 EQ PUSH3 0xBC JUMPI DUP1 PUSH4 0x519353B5 EQ PUSH3 0xD5 JUMPI JUMPDEST PUSH1 0x0 DUP1 REVERT JUMPDEST PUSH3 0xA4 PUSH3 0x9E CALLDATASIZE PUSH1 0x4 PUSH3 0x1A87 JUMP JUMPDEST PUSH3 0x166 JUMP JUMPDEST PUSH1 0x40 MLOAD PUSH3 0xB3 SWAP2 SWAP1 PUSH3 0x21B2 JUMP JUMPDEST PUSH1 0x40 MLOAD DUP1 SWAP2 SUB SWAP1 RETURN JUMPDEST PUSH3 0xD3 PUSH3 0xCD CALLDATASIZE PUSH1 0x4 PUSH3 0x1A42 JUMP JUMPDEST PUSH3 0x17B JUMP JUMPDEST STOP JUMPDEST PUSH3 0xA4 PUSH3 0xE6 CALLDATASIZE PUSH1 0x4 PUSH3 0x1BAF JUMP JUMPDEST PUSH3 0x210 JUMP JUMPDEST PUSH3 0x103 PUSH3 0xFD CALLDATASIZE PUSH1 0x4 PUSH3 0x1A87 JUMP JUMPDEST PUSH3 0x2C4 JUMP JUMPDEST PUSH1 0x40 MLOAD PUSH3 0xB3 SWAP2 SWAP1 PUSH3 0x1EE8 JUMP JUMPDEST PUSH3 0x129 PUSH3 0x123 CALLDATASIZE PUSH1 0x4 PUSH3 0x1E01 JUMP JUMPDEST PUSH3 0x2D1 JUMP JUMPDEST PUSH1 0x40 MLOAD PUSH3 0xB3 SWAP2 SWAP1 PUSH3 0x1E7D JUMP JUMPDEST PUSH3 0xD3 PUSH3 0x149 CALLDATASIZE PUSH1 0x4 PUSH3 0x19EB JUMP JUMPDEST PUSH3 0x355 JUMP JUMPDEST PUSH3 0xA4 PUSH3 0x160 CALLDATASIZE PUSH1 0x4 PUSH3 0x1A87 JUMP JUMPDEST PUSH3 0x3ED JUMP JUMPDEST PUSH1 0x0 PUSH3 0x173 DUP3 PUSH3 0x3FA JUMP JUMPDEST SWAP1 POP JUMPDEST SWAP2 SWAP1 POP JUMP JUMPDEST PUSH1 0x1 PUSH1 0x1 PUSH1 0xA0 SHL SUB DUP1 DUP5 AND PUSH1 0x0 SWAP1 DUP2 MSTORE PUSH1 0x20 DUP2 SWAP1 MSTORE PUSH1 0x40 SWAP1 DUP2 SWAP1 KECCAK256 SLOAD SWAP1 MLOAD PUSH32 0xE30443BC00000000000000000000000000000000000000000000000000000000 DUP2 MSTORE SWAP2 AND SWAP1 PUSH4 0xE30443BC SWAP1 PUSH3 0x1D7 SWAP1 DUP6 SWAP1 DUP6 SWAP1 PUSH1 0x4 ADD PUSH3 0x1ECF JUMP JUMPDEST PUSH1 0x0 PUSH1 0x40 MLOAD DUP1 DUP4 SUB DUP2 PUSH1 0x0 DUP8 DUP1 EXTCODESIZE ISZERO DUP1 ISZERO PUSH3 0x1F2 JUMPI PUSH1 0x0 DUP1 REVERT JUMPDEST POP GAS CALL ISZERO DUP1 ISZERO PUSH3 0x207 JUMPI RETURNDATASIZE PUSH1 0x0 DUP1 RETURNDATACOPY RETURNDATASIZE PUSH1 0x0 REVERT JUMPDEST POP POP POP POP POP POP POP JUMP JUMPDEST PUSH1 0x40 MLOAD PUSH32 0xD12A796000000000000000000000000000000000000000000000000000000000 DUP2 MSTORE PUSH1 0x0 SWAP1 PUSH20 0x0 SWAP1 PUSH4 0xD12A7960 SWAP1 PUSH3 0x267 SWAP1 DUP7 SWAP1 DUP7 SWAP1 PUSH1 0x4 ADD PUSH3 0x2058 JUMP JUMPDEST PUSH1 0x20 PUSH1 0x40 MLOAD DUP1 DUP4 SUB DUP2 DUP7 DUP1 EXTCODESIZE ISZERO DUP1 ISZERO PUSH3 0x280 JUMPI PUSH1 0x0 DUP1 REVERT JUMPDEST POP GAS DELEGATECALL ISZERO DUP1 ISZERO PUSH3 0x295 JUMPI RETURNDATASIZE PUSH1 0x0 DUP1 RETURNDATACOPY RETURNDATASIZE PUSH1 0x0 REVERT JUMPDEST POP POP POP POP PUSH1 0x40 MLOAD RETURNDATASIZE PUSH1 0x1F NOT PUSH1 0x1F DUP3 ADD AND DUP3 ADD DUP1 PUSH1 0x40 MSTORE POP PUSH3 0x2BB SWAP2 SWAP1 DUP2 ADD SWAP1 PUSH3 0x1DE8 JUMP JUMPDEST SWAP1 POP JUMPDEST SWAP3 SWAP2 POP POP JUMP JUMPDEST PUSH1 0x0 PUSH3 0x173 DUP3 PUSH3 0x656 JUMP JUMPDEST PUSH1 0x0 DUP1 DUP3 PUSH1 0x40 MLOAD PUSH3 0x2E3 SWAP1 PUSH3 0x175F JUMP JUMPDEST PUSH3 0x2EF SWAP2 SWAP1 PUSH3 0x21BB JUMP JUMPDEST PUSH1 0x40 MLOAD DUP1 SWAP2 SUB SWAP1 PUSH1 0x0 CREATE DUP1 ISZERO DUP1 ISZERO PUSH3 0x30C JUMPI RETURNDATASIZE PUSH1 0x0 DUP1 RETURNDATACOPY RETURNDATASIZE PUSH1 0x0 REVERT JUMPDEST POP PUSH1 0x1 PUSH1 0x1 PUSH1 0xA0 SHL SUB DUP2 AND PUSH1 0x0 DUP2 DUP2 MSTORE PUSH1 0x20 DUP2 SWAP1 MSTORE PUSH1 0x40 SWAP1 KECCAK256 DUP1 SLOAD PUSH32 0xFFFFFFFFFFFFFFFFFFFFFFFF0000000000000000000000000000000000000000 AND SWAP1 SWAP2 OR SWAP1 SSTORE SWAP4 SWAP3 POP POP POP JUMP JUMPDEST PUSH1 0x1 PUSH1 0x1 PUSH1 0xA0 SHL SUB DUP1 DUP6 AND PUSH1 0x0 SWAP1 DUP2 MSTORE PUSH1 0x20 DUP2 SWAP1 MSTORE PUSH1 0x40 SWAP1 DUP2 SWAP1 KECCAK256 SLOAD SWAP1 MLOAD PUSH32 0xC9FCEC900000000000000000000000000000000000000000000000000000000 DUP2 MSTORE SWAP2 AND SWAP1 PUSH4 0xC9FCEC9 SWAP1 PUSH3 0x3B3 SWAP1 DUP7 SWAP1 DUP7 SWAP1 DUP7 SWAP1 PUSH1 0x4 ADD PUSH3 0x1EAB JUMP JUMPDEST PUSH1 0x0 PUSH1 0x40 MLOAD DUP1 DUP4 SUB DUP2 PUSH1 0x0 DUP8 DUP1 EXTCODESIZE ISZERO DUP1 ISZERO PUSH3 0x3CE JUMPI PUSH1 0x0 DUP1 REVERT JUMPDEST POP GAS CALL ISZERO DUP1 ISZERO PUSH3 0x3E3 JUMPI RETURNDATASIZE PUSH1 0x0 DUP1 RETURNDATACOPY RETURNDATASIZE PUSH1 0x0 REVERT JUMPDEST POP POP POP POP POP POP POP POP JUMP JUMPDEST PUSH1 0x0 PUSH3 0x173 DUP3 PUSH3 0x87B JUMP JUMPDEST PUSH1 0xE0 DUP2 ADD MLOAD MLOAD PUSH1 0x0 NOT SWAP1 PUSH1 0x1 GT ISZERO PUSH3 0x40F JUMPI INVALID JUMPDEST PUSH3 0x419 PUSH3 0x176D JUMP JUMPDEST PUSH1 0xE0 DUP4 ADD MLOAD DUP1 MLOAD PUSH1 0x0 NOT DUP2 ADD SWAP1 DUP2 LT PUSH3 0x42F JUMPI INVALID JUMPDEST PUSH1 0x20 MUL PUSH1 0x20 ADD ADD MLOAD SWAP1 POP PUSH1 0x1 DUP1 DUP2 GT ISZERO PUSH3 0x446 JUMPI INVALID JUMPDEST DUP2 MLOAD PUSH1 0x1 DUP2 GT ISZERO PUSH3 0x454 JUMPI INVALID JUMPDEST EQ PUSH3 0x45C JUMPI INVALID JUMPDEST PUSH1 0x0 PUSH3 0x47E PUSH3 0x471 DUP6 PUSH1 0x0 ADD MLOAD PUSH3 0xA11 JUMP JUMPDEST PUSH6 0x5AF3107A4000 PUSH3 0xAB7 JUMP JUMPDEST SWAP1 POP PUSH1 0x0 JUMPDEST DUP5 PUSH1 0xC0 ADD MLOAD MLOAD DUP2 LT ISZERO PUSH3 0x64E JUMPI PUSH1 0x0 DUP1 PUSH3 0x4B8 DUP8 DUP9 PUSH1 0xC0 ADD MLOAD DUP6 DUP2 MLOAD DUP2 LT PUSH3 0x4AA JUMPI INVALID JUMPDEST PUSH1 0x20 MUL PUSH1 0x20 ADD ADD MLOAD PUSH3 0xAC5 JUMP JUMPDEST SWAP2 POP SWAP2 POP DUP1 PUSH1 0x0 EQ ISZERO DUP1 ISZERO PUSH3 0x4D8 JUMPI POP DUP4 PUSH3 0x4D6 DUP4 DUP4 PUSH3 0xBB8 JUMP JUMPDEST SLT JUMPDEST ISZERO PUSH3 0x4ED JUMPI PUSH1 0x0 SWAP6 POP POP POP POP POP POP PUSH3 0x176 JUMP JUMPDEST DUP5 PUSH1 0x20 ADD MLOAD DUP4 EQ PUSH3 0x501 JUMPI POP POP PUSH3 0x645 JUMP JUMPDEST PUSH1 0x0 DUP1 JUMPDEST PUSH1 0x1 DUP10 PUSH1 0xE0 ADD MLOAD MLOAD SUB DUP2 LT ISZERO PUSH3 0x590 JUMPI PUSH3 0x520 PUSH3 0x176D JUMP JUMPDEST DUP10 PUSH1 0xE0 ADD MLOAD DUP3 DUP2 MLOAD DUP2 LT PUSH3 0x531 JUMPI INVALID JUMPDEST PUSH1 0x20 MUL PUSH1 0x20 ADD ADD MLOAD SWAP1 POP PUSH1 0x0 PUSH1 0x1 DUP2 GT ISZERO PUSH3 0x549 JUMPI INVALID JUMPDEST DUP2 MLOAD PUSH1 0x1 DUP2 GT ISZERO PUSH3 0x557 JUMPI INVALID JUMPDEST EQ PUSH3 0x55F JUMPI INVALID JUMPDEST DUP6 DUP2 PUSH1 0x20 ADD MLOAD EQ ISZERO PUSH3 0x586 JUMPI PUSH3 0x583 DUP4 PUSH3 0x57D DUP13 DUP5 PUSH3 0xC29 JUMP JUMPDEST PUSH3 0xAB7 JUMP JUMPDEST SWAP3 POP JUMPDEST POP PUSH1 0x1 ADD PUSH3 0x505 JUMP JUMPDEST POP PUSH1 0x0 PUSH3 0x59F DUP10 DUP9 PUSH3 0xC29 JUMP JUMPDEST SWAP1 POP DUP6 PUSH3 0x5AE DUP4 DUP4 PUSH3 0xF35 JUMP JUMPDEST SLT PUSH3 0x5BE JUMPI POP POP POP POP PUSH3 0x645 JUMP JUMPDEST DUP2 PUSH3 0x5CB DUP8 DUP4 PUSH3 0xF4F JUMP JUMPDEST EQ ISZERO PUSH3 0x5DC JUMPI POP POP POP POP PUSH3 0x645 JUMP JUMPDEST PUSH1 0x0 PUSH3 0x616 PUSH3 0x5F9 DUP7 PUSH3 0x5F3 DUP11 DUP9 PUSH3 0xF70 JUMP JUMPDEST PUSH3 0xFA5 JUMP JUMPDEST PUSH3 0x610 PUSH3 0x609 DUP11 DUP7 PUSH3 0xF4F JUMP JUMPDEST DUP7 PUSH3 0xFD9 JUMP JUMPDEST PUSH3 0xF35 JUMP JUMPDEST SWAP1 POP PUSH3 0x63D DUP10 PUSH3 0x637 DUP13 PUSH1 0x60 ADD MLOAD PUSH3 0x631 DUP6 PUSH3 0xFEA JUMP JUMPDEST PUSH3 0x1003 JUMP JUMPDEST PUSH3 0x107D JUMP JUMPDEST SWAP9 POP POP POP POP POP POP JUMPDEST PUSH1 0x1 ADD PUSH3 0x483 JUMP JUMPDEST POP POP POP SWAP2 SWAP1 POP JUMP JUMPDEST PUSH1 0x0 DUP2 PUSH1 0xE0 ADD MLOAD MLOAD PUSH1 0x0 EQ ISZERO PUSH3 0x670 JUMPI POP PUSH1 0x0 PUSH3 0x176 JUMP JUMPDEST PUSH1 0x0 JUMPDEST DUP3 PUSH1 0xE0 ADD MLOAD MLOAD DUP2 LT ISZERO PUSH3 0x746 JUMPI PUSH3 0x68B PUSH3 0x176D JUMP JUMPDEST DUP4 PUSH1 0xE0 ADD MLOAD DUP3 DUP2 MLOAD DUP2 LT PUSH3 0x69C JUMPI INVALID JUMPDEST PUSH1 0x20 MUL PUSH1 0x20 ADD ADD MLOAD SWAP1 POP PUSH1 0x0 PUSH1 0x1 DUP2 GT ISZERO PUSH3 0x6B4 JUMPI INVALID JUMPDEST DUP2 MLOAD PUSH1 0x1 DUP2 GT ISZERO PUSH3 0x6C2 JUMPI INVALID JUMPDEST EQ PUSH3 0x6CF JUMPI POP PUSH3 0x746 JUMP JUMPDEST PUSH1 0x40 DUP2 ADD MLOAD PUSH1 0x0 JUMPDEST DUP4 DUP2 LT ISZERO PUSH3 0x71C JUMPI DUP2 DUP7 PUSH1 0xE0 ADD MLOAD DUP3 DUP2 MLOAD DUP2 LT PUSH3 0x6F2 JUMPI INVALID JUMPDEST PUSH1 0x20 MUL PUSH1 0x20 ADD ADD MLOAD PUSH1 0x40 ADD MLOAD EQ ISZERO PUSH3 0x713 JUMPI PUSH1 0x0 SWAP5 POP POP POP POP POP PUSH3 0x176 JUMP JUMPDEST PUSH1 0x1 ADD PUSH3 0x6D7 JUMP JUMPDEST POP DUP5 PUSH1 0xC0 ADD MLOAD MLOAD DUP3 PUSH1 0x20 ADD MLOAD LT PUSH3 0x73B JUMPI PUSH1 0x0 SWAP4 POP POP POP POP PUSH3 0x176 JUMP JUMPDEST POP POP PUSH1 0x1 ADD PUSH3 0x673 JUMP JUMPDEST DUP3 PUSH1 0xE0 ADD MLOAD MLOAD DUP2 PUSH1 0x1 ADD EQ PUSH3 0x761 JUMPI PUSH1 0x0 SWAP2 POP POP PUSH3 0x176 JUMP JUMPDEST PUSH3 0x76B PUSH3 0x176D JUMP JUMPDEST DUP4 PUSH1 0xE0 ADD MLOAD DUP3 DUP2 MLOAD DUP2 LT PUSH3 0x77C JUMPI INVALID JUMPDEST PUSH1 0x20 MUL PUSH1 0x20 ADD ADD MLOAD SWAP1 POP PUSH1 0x1 DUP1 DUP2 GT ISZERO PUSH3 0x793 JUMPI INVALID JUMPDEST DUP2 MLOAD PUSH1 0x1 DUP2 GT ISZERO PUSH3 0x7A1 JUMPI INVALID JUMPDEST EQ PUSH3 0x7B3 JUMPI PUSH1 0x0 SWAP3 POP POP POP PUSH3 0x176 JUMP JUMPDEST DUP4 PUSH1 0x60 ADD MLOAD PUSH1 0x1 PUSH1 0x1 PUSH1 0xA0 SHL SUB AND DUP5 PUSH1 0x0 ADD MLOAD PUSH1 0x1 PUSH1 0x1 PUSH1 0xA0 SHL SUB AND PUSH4 0x62BD3E9 DUP4 PUSH1 0x40 ADD MLOAD PUSH1 0x40 MLOAD DUP3 PUSH4 0xFFFFFFFF AND PUSH1 0xE0 SHL DUP2 MSTORE PUSH1 0x4 ADD PUSH3 0x7F7 SWAP2 SWAP1 PUSH3 0x21B2 JUMP JUMPDEST PUSH1 0x20 PUSH1 0x40 MLOAD DUP1 DUP4 SUB DUP2 DUP7 DUP1 EXTCODESIZE ISZERO DUP1 ISZERO PUSH3 0x810 JUMPI PUSH1 0x0 DUP1 REVERT JUMPDEST POP GAS STATICCALL ISZERO DUP1 ISZERO PUSH3 0x825 JUMPI RETURNDATASIZE PUSH1 0x0 DUP1 RETURNDATACOPY RETURNDATASIZE PUSH1 0x0 REVERT JUMPDEST POP POP POP POP PUSH1 0x40 MLOAD RETURNDATASIZE PUSH1 0x1F NOT PUSH1 0x1F DUP3 ADD AND DUP3 ADD DUP1 PUSH1 0x40 MSTORE POP PUSH3 0x84B SWAP2 SWAP1 DUP2 ADD SWAP1 PUSH3 0x19CC JUMP JUMPDEST PUSH1 0x1 PUSH1 0x1 PUSH1 0xA0 SHL SUB AND EQ PUSH3 0x866 JUMPI PUSH1 0x0 SWAP3 POP POP POP PUSH3 0x176 JUMP JUMPDEST DUP4 PUSH1 0xC0 ADD MLOAD MLOAD DUP2 PUSH1 0x20 ADD MLOAD LT SWAP3 POP POP POP SWAP2 SWAP1 POP JUMP JUMPDEST PUSH1 0x0 NOT PUSH1 0x0 JUMPDEST DUP3 PUSH1 0xE0 ADD MLOAD MLOAD DUP2 LT ISZERO PUSH3 0xA0B JUMPI PUSH3 0x899 PUSH3 0x176D JUMP JUMPDEST DUP4 PUSH1 0xE0 ADD MLOAD DUP3 DUP2 MLOAD DUP2 LT PUSH3 0x8AA JUMPI INVALID JUMPDEST PUSH1 0x20 MUL PUSH1 0x20 ADD ADD MLOAD SWAP1 POP PUSH1 0x0 PUSH1 0x1 DUP2 GT ISZERO PUSH3 0x8C2 JUMPI INVALID JUMPDEST DUP2 MLOAD PUSH1 0x1 DUP2 GT ISZERO PUSH3 0x8D0 JUMPI INVALID JUMPDEST EQ PUSH3 0x8DD JUMPI POP PUSH3 0xA02 JUMP JUMPDEST PUSH1 0x0 PUSH3 0x8EA DUP3 PUSH3 0x1095 JUMP JUMPDEST SWAP1 POP PUSH1 0x0 DUP6 PUSH1 0x0 ADD MLOAD PUSH1 0x1 PUSH1 0x1 PUSH1 0xA0 SHL SUB AND PUSH4 0x62BD3E9 DUP5 PUSH1 0x40 ADD MLOAD PUSH1 0x40 MLOAD DUP3 PUSH4 0xFFFFFFFF AND PUSH1 0xE0 SHL DUP2 MSTORE PUSH1 0x4 ADD PUSH3 0x924 SWAP2 SWAP1 PUSH3 0x21B2 JUMP JUMPDEST PUSH1 0x20 PUSH1 0x40 MLOAD DUP1 DUP4 SUB DUP2 DUP7 DUP1 EXTCODESIZE ISZERO DUP1 ISZERO PUSH3 0x93D JUMPI PUSH1 0x0 DUP1 REVERT JUMPDEST POP GAS STATICCALL ISZERO DUP1 ISZERO PUSH3 0x952 JUMPI RETURNDATASIZE PUSH1 0x0 DUP1 RETURNDATACOPY RETURNDATASIZE PUSH1 0x0 REVERT JUMPDEST POP POP POP POP PUSH1 0x40 MLOAD RETURNDATASIZE PUSH1 0x1F NOT PUSH1 0x1F DUP3 ADD AND DUP3 ADD DUP1 PUSH1 0x40 MSTORE POP PUSH3 0x978 SWAP2 SWAP1 DUP2 ADD SWAP1 PUSH3 0x19CC JUMP JUMPDEST PUSH1 0x80 DUP8 ADD MLOAD SWAP1 SWAP2 POP PUSH1 0x1 PUSH1 0x1 PUSH1 0xA0 SHL SUB AND ISZERO DUP1 ISZERO SWAP1 PUSH3 0x9AD JUMPI POP DUP6 PUSH1 0x80 ADD MLOAD PUSH1 0x1 PUSH1 0x1 PUSH1 0xA0 SHL SUB AND DUP2 PUSH1 0x1 PUSH1 0x1 PUSH1 0xA0 SHL SUB AND EQ JUMPDEST ISZERO PUSH3 0x9C6 JUMPI PUSH3 0x9C3 DUP3 DUP8 PUSH1 0xA0 ADD MLOAD PUSH3 0xFD9 JUMP JUMPDEST SWAP2 POP JUMPDEST PUSH1 0x0 DUP3 SGT ISZERO PUSH3 0x9FE JUMPI PUSH1 0x0 PUSH3 0x9E7 DUP3 DUP9 PUSH1 0x40 ADD MLOAD DUP10 PUSH1 0x0 ADD MLOAD PUSH3 0x10C8 JUMP JUMPDEST SWAP1 POP PUSH3 0x9FA DUP7 PUSH3 0x637 DUP4 DUP7 PUSH3 0x10E7 JUMP JUMPDEST SWAP6 POP POP JUMPDEST POP POP POP JUMPDEST PUSH1 0x1 ADD PUSH3 0x881 JUMP JUMPDEST POP SWAP2 SWAP1 POP JUMP JUMPDEST PUSH1 0x0 PUSH3 0xA1D PUSH3 0x179D JUMP JUMPDEST DUP3 PUSH1 0x1 PUSH1 0x1 PUSH1 0xA0 SHL SUB AND PUSH4 0x69794795 PUSH1 0x40 MLOAD DUP2 PUSH4 0xFFFFFFFF AND PUSH1 0xE0 SHL DUP2 MSTORE PUSH1 0x4 ADD PUSH1 0x80 PUSH1 0x40 MLOAD DUP1 DUP4 SUB DUP2 DUP7 DUP1 EXTCODESIZE ISZERO DUP1 ISZERO PUSH3 0xA57 JUMPI PUSH1 0x0 DUP1 REVERT JUMPDEST POP GAS STATICCALL ISZERO DUP1 ISZERO PUSH3 0xA6C JUMPI RETURNDATASIZE PUSH1 0x0 DUP1 RETURNDATACOPY RETURNDATASIZE PUSH1 0x0 REVERT JUMPDEST POP POP POP POP PUSH1 0x40 MLOAD RETURNDATASIZE PUSH1 0x1F NOT PUSH1 0x1F DUP3 ADD AND DUP3 ADD DUP1 PUSH1 0x40 MSTORE POP PUSH3 0xA92 SWAP2 SWAP1 DUP2 ADD SWAP1 PUSH3 0x1D49 JUMP JUMPDEST SWAP1 POP PUSH3 0xAB0 PUSH3 0xAA2 PUSH3 0x110C JUMP JUMPDEST DUP3 MLOAD MLOAD PUSH3 0x57D SWAP1 PUSH3 0x1118 JUMP JUMPDEST SWAP4 SWAP3 POP POP POP JUMP JUMPDEST PUSH1 0x0 PUSH3 0x2BB DUP4 DUP4 PUSH3 0x1141 JUMP JUMPDEST PUSH1 0x0 DUP1 PUSH3 0xAD2 PUSH3 0x17E4 JUMP JUMPDEST PUSH3 0xADC PUSH3 0x17E4 JUMP JUMPDEST DUP6 PUSH1 0x0 ADD MLOAD PUSH1 0x1 PUSH1 0x1 PUSH1 0xA0 SHL SUB AND PUSH4 0xF9416052 PUSH1 0x40 MLOAD DUP1 PUSH1 0x40 ADD PUSH1 0x40 MSTORE DUP1 DUP10 PUSH1 0x40 ADD MLOAD PUSH1 0x1 PUSH1 0x1 PUSH1 0xA0 SHL SUB AND DUP2 MSTORE PUSH1 0x20 ADD DUP9 DUP2 MSTORE POP PUSH1 0x40 MLOAD DUP3 PUSH4 0xFFFFFFFF AND PUSH1 0xE0 SHL DUP2 MSTORE PUSH1 0x4 ADD PUSH3 0xB2F SWAP2 SWAP1 PUSH3 0x2038 JUMP JUMPDEST PUSH1 0x40 DUP1 MLOAD DUP1 DUP4 SUB DUP2 DUP7 DUP1 EXTCODESIZE ISZERO DUP1 ISZERO PUSH3 0xB47 JUMPI PUSH1 0x0 DUP1 REVERT JUMPDEST POP GAS STATICCALL ISZERO DUP1 ISZERO PUSH3 0xB5C JUMPI RETURNDATASIZE PUSH1 0x0 DUP1 RETURNDATACOPY RETURNDATASIZE PUSH1 0x0 REVERT JUMPDEST POP POP POP POP PUSH1 0x40 MLOAD RETURNDATASIZE PUSH1 0x1F NOT PUSH1 0x1F DUP3 ADD AND DUP3 ADD DUP1 PUSH1 0x40 MSTORE POP PUSH3 0xB82 SWAP2 SWAP1 DUP2 ADD SWAP1 PUSH3 0x1DB8 JUMP JUMPDEST DUP2 MLOAD SWAP2 SWAP4 POP SWAP2 POP PUSH8 0xDE0B6B3A7640000 SWAP1 DIV PUSH8 0xDE0B6B3A7640000 DUP3 PUSH1 0x0 ADD MLOAD DUP2 PUSH3 0xBAA JUMPI INVALID JUMPDEST DIV SWAP4 POP SWAP4 POP POP POP SWAP3 POP SWAP3 SWAP1 POP JUMP JUMPDEST PUSH1 0x0 DUP1 DUP4 SLT ISZERO PUSH3 0xBE6 JUMPI PUSH1 0x40 MLOAD PUSH3 0x461BCD PUSH1 0xE5 SHL DUP2 MSTORE PUSH1 0x4 ADD PUSH3 0xBDD SWAP1 PUSH3 0x1F5C JUMP JUMPDEST PUSH1 0x40 MLOAD DUP1 SWAP2 SUB SWAP1 REVERT JUMPDEST PUSH1 0x0 DUP3 SLT ISZERO PUSH3 0xC0A JUMPI PUSH1 0x40 MLOAD PUSH3 0x461BCD PUSH1 0xE5 SHL DUP2 MSTORE PUSH1 0x4 ADD PUSH3 0xBDD SWAP1 PUSH3 0x1F5C JUMP JUMPDEST PUSH3 0x2BB PUSH3 0xC22 DUP5 PUSH8 0xDE0B6B3A7640000 PUSH3 0x11A5 JUMP JUMPDEST DUP4 PUSH3 0x1208 JUMP JUMPDEST PUSH1 0x0 DUP1 DUP4 PUSH1 0x0 ADD MLOAD PUSH1 0x1 PUSH1 0x1 PUSH1 0xA0 SHL SUB AND PUSH4 0x62BD3E9 DUP5 PUSH1 0x40 ADD MLOAD PUSH1 0x40 MLOAD DUP3 PUSH4 0xFFFFFFFF AND PUSH1 0xE0 SHL DUP2 MSTORE PUSH1 0x4 ADD PUSH3 0xC62 SWAP2 SWAP1 PUSH3 0x21B2 JUMP JUMPDEST PUSH1 0x20 PUSH1 0x40 MLOAD DUP1 DUP4 SUB DUP2 DUP7 DUP1 EXTCODESIZE ISZERO DUP1 ISZERO PUSH3 0xC7B JUMPI PUSH1 0x0 DUP1 REVERT JUMPDEST POP GAS STATICCALL ISZERO DUP1 ISZERO PUSH3 0xC90 JUMPI RETURNDATASIZE PUSH1 0x0 DUP1 RETURNDATACOPY RETURNDATASIZE PUSH1 0x0 REVERT JUMPDEST POP POP POP POP PUSH1 0x40 MLOAD RETURNDATASIZE PUSH1 0x1F NOT PUSH1 0x1F DUP3 ADD AND DUP3 ADD DUP1 PUSH1 0x40 MSTORE POP PUSH3 0xCB6 SWAP2 SWAP1 DUP2 ADD SWAP1 PUSH3 0x19CC JUMP JUMPDEST SWAP1 POP PUSH1 0x0 PUSH3 0xCC9 DUP6 PUSH1 0x60 ADD MLOAD PUSH3 0x128D JUMP JUMPDEST PUSH1 0xFF AND SWAP1 POP PUSH1 0x0 PUSH3 0xCDB DUP4 PUSH3 0x128D JUMP JUMPDEST PUSH1 0xFF AND SWAP1 POP DUP2 DUP2 GT PUSH3 0xD10 JUMPI PUSH3 0xD0A DUP2 DUP4 SUB PUSH1 0xA EXP PUSH3 0xCFD DUP8 PUSH3 0x1095 JUMP JUMPDEST SWAP1 PUSH4 0xFFFFFFFF PUSH3 0x1359 AND JUMP JUMPDEST PUSH3 0xD32 JUMP JUMPDEST PUSH3 0xD32 DUP3 DUP3 SUB PUSH1 0xA EXP PUSH3 0xD25 DUP8 PUSH3 0x1095 JUMP JUMPDEST SWAP1 PUSH4 0xFFFFFFFF PUSH3 0x1397 AND JUMP JUMPDEST SWAP4 POP PUSH1 0x0 DUP7 PUSH1 0x0 ADD MLOAD PUSH1 0x1 PUSH1 0x1 PUSH1 0xA0 SHL SUB AND PUSH4 0x8928378E DUP8 PUSH1 0x40 ADD MLOAD PUSH1 0x40 MLOAD DUP3 PUSH4 0xFFFFFFFF AND PUSH1 0xE0 SHL DUP2 MSTORE PUSH1 0x4 ADD PUSH3 0xD6C SWAP2 SWAP1 PUSH3 0x21B2 JUMP JUMPDEST PUSH1 0x20 PUSH1 0x40 MLOAD DUP1 DUP4 SUB DUP2 DUP7 DUP1 EXTCODESIZE ISZERO DUP1 ISZERO PUSH3 0xD85 JUMPI PUSH1 0x0 DUP1 REVERT JUMPDEST POP GAS STATICCALL ISZERO DUP1 ISZERO PUSH3 0xD9A JUMPI RETURNDATASIZE PUSH1 0x0 DUP1 RETURNDATACOPY RETURNDATASIZE PUSH1 0x0 REVERT JUMPDEST POP POP POP POP PUSH1 0x40 MLOAD RETURNDATASIZE PUSH1 0x1F NOT PUSH1 0x1F DUP3 ADD AND DUP3 ADD DUP1 PUSH1 0x40 MSTORE POP PUSH3 0xDC0 SWAP2 SWAP1 DUP2 ADD SWAP1 PUSH3 0x1B91 JUMP JUMPDEST MLOAD SWAP1 POP PUSH1 0x12 DUP3 GT ISZERO PUSH3 0xE0C JUMPI PUSH3 0xE04 DUP2 PUSH32 0xFFFFFFFFFFFFFFFFFFFFFFFFFFFFFFFFFFFFFFFFFFFFFFFFFFFFFFFFFFFFFFEE DUP5 ADD PUSH1 0xA EXP PUSH4 0xFFFFFFFF PUSH3 0x1359 AND JUMP JUMPDEST SWAP1 POP PUSH3 0xE28 JUMP JUMPDEST PUSH3 0xE25 DUP2 PUSH1 0x12 DUP5 SWAP1 SUB PUSH1 0xA EXP PUSH4 0xFFFFFFFF PUSH3 0x1397 AND JUMP JUMPDEST SWAP1 POP JUMPDEST PUSH3 0xE34 DUP2 DUP7 PUSH3 0x13C6 JUMP JUMPDEST SWAP5 POP PUSH1 0x0 PUSH3 0xEEE PUSH3 0xE46 PUSH3 0x110C JUMP JUMPDEST DUP10 MLOAD PUSH1 0x40 DUP1 DUP12 ADD MLOAD SWAP1 MLOAD PUSH32 0xFD04B60600000000000000000000000000000000000000000000000000000000 DUP2 MSTORE PUSH1 0x1 PUSH1 0x1 PUSH1 0xA0 SHL SUB SWAP1 SWAP3 AND SWAP2 PUSH4 0xFD04B606 SWAP2 PUSH3 0xE93 SWAP2 PUSH1 0x4 ADD PUSH3 0x21B2 JUMP JUMPDEST PUSH1 0x20 PUSH1 0x40 MLOAD DUP1 DUP4 SUB DUP2 DUP7 DUP1 EXTCODESIZE ISZERO DUP1 ISZERO PUSH3 0xEAC JUMPI PUSH1 0x0 DUP1 REVERT JUMPDEST POP GAS STATICCALL ISZERO DUP1 ISZERO PUSH3 0xEC1 JUMPI RETURNDATASIZE PUSH1 0x0 DUP1 RETURNDATACOPY RETURNDATASIZE PUSH1 0x0 REVERT JUMPDEST POP POP POP POP PUSH1 0x40 MLOAD RETURNDATASIZE PUSH1 0x1F NOT PUSH1 0x1F DUP3 ADD AND DUP3 ADD DUP1 PUSH1 0x40 MSTORE POP PUSH3 0xEE7 SWAP2 SWAP1 DUP2 ADD SWAP1 PUSH3 0x1B91 JUMP JUMPDEST MLOAD PUSH3 0x13EB JUMP JUMPDEST SWAP1 POP PUSH1 0x0 DUP8 MLOAD PUSH1 0x1 DUP2 GT ISZERO PUSH3 0xF00 JUMPI INVALID JUMPDEST EQ ISZERO PUSH3 0xF1B JUMPI PUSH3 0xF13 DUP7 DUP3 PUSH3 0xF35 JUMP JUMPDEST SWAP6 POP PUSH3 0xF2A JUMP JUMPDEST PUSH3 0xF27 DUP7 DUP3 PUSH3 0xF4F JUMP JUMPDEST SWAP6 POP JUMPDEST POP POP POP POP POP SWAP3 SWAP2 POP POP JUMP JUMPDEST PUSH1 0x0 PUSH3 0x2BB PUSH3 0xC22 DUP5 PUSH8 0xDE0B6B3A7640000 PUSH3 0x11A5 JUMP JUMPDEST PUSH1 0x0 PUSH3 0x2BB PUSH3 0xF61 DUP5 DUP5 PUSH3 0x11A5 JUMP JUMPDEST PUSH8 0xDE0B6B3A7640000 PUSH3 0x1208 JUMP JUMPDEST PUSH1 0x0 DUP1 DUP3 SLT ISZERO PUSH3 0xF95 JUMPI PUSH1 0x40 MLOAD PUSH3 0x461BCD PUSH1 0xE5 SHL DUP2 MSTORE PUSH1 0x4 ADD PUSH3 0xBDD SWAP1 PUSH3 0x1F5C JUMP JUMPDEST PUSH3 0x2BB PUSH3 0xF61 DUP5 DUP5 PUSH3 0x11A5 JUMP JUMPDEST PUSH1 0x0 DUP1 DUP4 SLT ISZERO PUSH3 0xFCA JUMPI PUSH1 0x40 MLOAD PUSH3 0x461BCD PUSH1 0xE5 SHL DUP2 MSTORE PUSH1 0x4 ADD PUSH3 0xBDD SWAP1 PUSH3 0x1F5C JUMP JUMPDEST PUSH3 0x2BB DUP4 DUP4 PUSH1 0x0 SUB PUSH3 0x1141 JUMP JUMPDEST PUSH1 0x0 PUSH3 0x2BB DUP4 DUP4 PUSH1 0x0 SUB PUSH3 0x1141 JUMP JUMPDEST PUSH1 0x0 DUP1 DUP3 SLT PUSH3 0xFFB JUMPI DUP2 PUSH3 0x173 JUMP JUMPDEST PUSH1 0x0 SWAP3 SWAP2 POP POP JUMP JUMPDEST PUSH1 0x0 DUP1 PUSH3 0x1011 DUP5 PUSH3 0x128D JUMP JUMPDEST PUSH1 0xFF AND SWAP1 POP PUSH1 0x12 DUP2 GT PUSH3 0x103E JUMPI PUSH3 0x1038 DUP4 PUSH1 0x12 DUP4 SWAP1 SUB PUSH1 0xA EXP PUSH4 0xFFFFFFFF PUSH3 0x1397 AND JUMP JUMPDEST PUSH3 0x1075 JUMP JUMPDEST PUSH3 0x1075 DUP4 PUSH32 0xFFFFFFFFFFFFFFFFFFFFFFFFFFFFFFFFFFFFFFFFFFFFFFFFFFFFFFFFFFFFFFEE DUP4 ADD PUSH1 0xA EXP PUSH4 0xFFFFFFFF PUSH3 0x1359 AND JUMP JUMPDEST SWAP5 SWAP4 POP POP POP POP JUMP JUMPDEST PUSH1 0x0 DUP2 DUP4 LT PUSH3 0x108E JUMPI DUP2 PUSH3 0x2BB JUMP JUMPDEST POP SWAP1 SWAP2 SWAP1 POP JUMP JUMPDEST PUSH1 0x0 DUP2 PUSH1 0x80 ADD MLOAD PUSH1 0x0 EQ PUSH3 0x10BE JUMPI PUSH3 0x10B8 DUP3 PUSH1 0x60 ADD MLOAD DUP4 PUSH1 0x80 ADD MLOAD PUSH3 0xBB8 JUMP JUMPDEST PUSH3 0x173 JUMP JUMPDEST PUSH3 0x173 PUSH3 0x110C JUMP JUMPDEST PUSH1 0x0 PUSH3 0x1075 PUSH3 0x10DB DUP6 DUP6 DUP6 PUSH3 0x141C JUMP JUMPDEST PUSH3 0x637 DUP7 DUP7 PUSH3 0x1548 JUMP JUMPDEST PUSH1 0x0 DUP1 DUP4 SLT ISZERO PUSH3 0xC0A JUMPI PUSH1 0x40 MLOAD PUSH3 0x461BCD PUSH1 0xE5 SHL DUP2 MSTORE PUSH1 0x4 ADD PUSH3 0xBDD SWAP1 PUSH3 0x1F5C JUMP JUMPDEST PUSH8 0xDE0B6B3A7640000 SWAP1 JUMP JUMPDEST PUSH1 0x0 DUP1 DUP3 SLT ISZERO PUSH3 0x113D JUMPI PUSH1 0x40 MLOAD PUSH3 0x461BCD PUSH1 0xE5 SHL DUP2 MSTORE PUSH1 0x4 ADD PUSH3 0xBDD SWAP1 PUSH3 0x1F5C JUMP JUMPDEST POP SWAP1 JUMP JUMPDEST DUP2 DUP2 ADD PUSH1 0x0 DUP4 SLT DUP1 ISZERO PUSH3 0x1155 JUMPI POP PUSH1 0x0 DUP3 SLT JUMPDEST DUP1 ISZERO PUSH3 0x1161 JUMPI POP DUP3 DUP2 SGT JUMPDEST DUP1 PUSH3 0x1185 JUMPI POP PUSH1 0x0 DUP4 SGT DUP1 ISZERO PUSH3 0x1179 JUMPI POP PUSH1 0x0 DUP3 SGT JUMPDEST DUP1 ISZERO PUSH3 0x1185 JUMPI POP DUP3 DUP2 SLT JUMPDEST ISZERO PUSH3 0x2BE JUMPI PUSH1 0x40 MLOAD PUSH3 0x461BCD PUSH1 0xE5 SHL DUP2 MSTORE PUSH1 0x4 ADD PUSH3 0xBDD SWAP1 PUSH3 0x1F25 JUMP JUMPDEST PUSH1 0x0 DUP3 ISZERO DUP1 PUSH3 0x11B3 JUMPI POP DUP2 ISZERO JUMPDEST ISZERO PUSH3 0x11C2 JUMPI POP PUSH1 0x0 PUSH3 0x2BE JUMP JUMPDEST POP DUP2 DUP2 MUL DUP2 DUP4 DUP3 DUP2 PUSH3 0x11D1 JUMPI INVALID JUMPDEST SDIV EQ DUP1 ISZERO PUSH3 0x11E9 JUMPI POP DUP3 DUP3 DUP3 DUP2 PUSH3 0x11E6 JUMPI INVALID JUMPDEST SDIV EQ JUMPDEST PUSH3 0x2BE JUMPI PUSH1 0x40 MLOAD PUSH3 0x461BCD PUSH1 0xE5 SHL DUP2 MSTORE PUSH1 0x4 ADD PUSH3 0xBDD SWAP1 PUSH3 0x1F93 JUMP JUMPDEST PUSH1 0x0 DUP2 PUSH3 0x122A JUMPI PUSH1 0x40 MLOAD PUSH3 0x461BCD PUSH1 0xE5 SHL DUP2 MSTORE PUSH1 0x4 ADD PUSH3 0xBDD SWAP1 PUSH3 0x2001 JUMP JUMPDEST PUSH32 0x8000000000000000000000000000000000000000000000000000000000000000 DUP4 EQ ISZERO DUP1 PUSH3 0x125C JUMPI POP DUP2 PUSH1 0x0 NOT EQ ISZERO JUMPDEST PUSH3 0x127B JUMPI PUSH1 0x40 MLOAD PUSH3 0x461BCD PUSH1 0xE5 SHL DUP2 MSTORE PUSH1 0x4 ADD PUSH3 0xBDD SWAP1 PUSH3 0x1FCA JUMP JUMPDEST DUP2 DUP4 DUP2 PUSH3 0x1285 JUMPI INVALID JUMPDEST SDIV SWAP4 SWAP3 POP POP POP JUMP JUMPDEST PUSH1 0x0 PUSH1 0x12 SWAP1 POP PUSH1 0x0 PUSH1 0x60 DUP4 PUSH1 0x1 PUSH1 0x1 PUSH1 0xA0 SHL SUB AND PUSH1 0x40 MLOAD DUP1 PUSH1 0x40 ADD PUSH1 0x40 MSTORE DUP1 PUSH1 0x4 DUP2 MSTORE PUSH1 0x20 ADD PUSH32 0x313CE56700000000000000000000000000000000000000000000000000000000 DUP2 MSTORE POP PUSH1 0x40 MLOAD PUSH3 0x12E6 SWAP2 SWAP1 PUSH3 0x1E5F JUMP JUMPDEST PUSH1 0x0 PUSH1 0x40 MLOAD DUP1 DUP4 SUB DUP2 DUP6 GAS STATICCALL SWAP2 POP POP RETURNDATASIZE DUP1 PUSH1 0x0 DUP2 EQ PUSH3 0x1323 JUMPI PUSH1 0x40 MLOAD SWAP2 POP PUSH1 0x1F NOT PUSH1 0x3F RETURNDATASIZE ADD AND DUP3 ADD PUSH1 0x40 MSTORE RETURNDATASIZE DUP3 MSTORE RETURNDATASIZE PUSH1 0x0 PUSH1 0x20 DUP5 ADD RETURNDATACOPY PUSH3 0x1328 JUMP JUMPDEST PUSH1 0x60 SWAP2 POP JUMPDEST POP SWAP2 POP SWAP2 POP DUP2 DUP1 ISZERO PUSH3 0x133C JUMPI POP DUP1 MLOAD PUSH1 0x20 EQ JUMPDEST ISZERO PUSH3 0x1352 JUMPI PUSH3 0x134F DUP2 PUSH1 0x0 PUSH3 0x1671 JUMP JUMPDEST SWAP3 POP JUMPDEST POP POP SWAP2 SWAP1 POP JUMP JUMPDEST PUSH1 0x0 DUP3 PUSH3 0x136A JUMPI POP PUSH1 0x0 PUSH3 0x2BE JUMP JUMPDEST DUP3 DUP3 MUL DUP3 DUP5 DUP3 DUP2 PUSH3 0x1378 JUMPI INVALID JUMPDEST DIV EQ PUSH3 0x2BB JUMPI PUSH3 0x2BB PUSH3 0x1391 PUSH1 0x1 DUP7 DUP7 PUSH3 0x167F JUMP JUMPDEST PUSH3 0x1708 JUMP JUMPDEST PUSH1 0x0 DUP2 PUSH3 0x13B1 JUMPI PUSH3 0x13B1 PUSH3 0x1391 PUSH1 0x3 DUP6 DUP6 PUSH3 0x167F JUMP JUMPDEST PUSH1 0x0 DUP3 DUP5 DUP2 PUSH3 0x13BD JUMPI INVALID JUMPDEST DIV SWAP5 SWAP4 POP POP POP POP JUMP JUMPDEST PUSH1 0x0 DUP1 DUP4 SLT ISZERO PUSH3 0xF95 JUMPI PUSH1 0x40 MLOAD PUSH3 0x461BCD PUSH1 0xE5 SHL DUP2 MSTORE PUSH1 0x4 ADD PUSH3 0xBDD SWAP1 PUSH3 0x1F5C JUMP JUMPDEST PUSH1 0x0 DUP1 DUP3 SLT ISZERO PUSH3 0x1410 JUMPI PUSH1 0x40 MLOAD PUSH3 0x461BCD PUSH1 0xE5 SHL DUP2 MSTORE PUSH1 0x4 ADD PUSH3 0xBDD SWAP1 PUSH3 0x1F5C JUMP JUMPDEST PUSH3 0x2BB DUP4 DUP4 PUSH3 0x1141 JUMP JUMPDEST PUSH1 0x40 MLOAD PUSH1 0x0 SWAP1 DUP2 SWAP1 PUSH1 0x60 SWAP1 PUSH1 0x1 PUSH1 0x1 PUSH1 0xA0 SHL SUB DUP8 AND SWAP1 PUSH32 0xDD62ED3E00000000000000000000000000000000000000000000000000000000 SWAP1 PUSH3 0x1466 SWAP1 DUP9 SWAP1 DUP9 SWAP1 PUSH1 0x24 ADD PUSH3 0x1E91 JUMP JUMPDEST PUSH1 0x40 DUP1 MLOAD PUSH1 0x1F NOT DUP2 DUP5 SUB ADD DUP2 MSTORE SWAP2 DUP2 MSTORE PUSH1 0x20 DUP3 ADD DUP1 MLOAD PUSH28 0xFFFFFFFFFFFFFFFFFFFFFFFFFFFFFFFFFFFFFFFFFFFFFFFFFFFFFFFF AND PUSH32 0xFFFFFFFF00000000000000000000000000000000000000000000000000000000 SWAP1 SWAP5 AND SWAP4 SWAP1 SWAP4 OR SWAP1 SWAP3 MSTORE SWAP1 MLOAD PUSH3 0x14D3 SWAP2 SWAP1 PUSH3 0x1E5F JUMP JUMPDEST PUSH1 0x0 PUSH1 0x40 MLOAD DUP1 DUP4 SUB DUP2 DUP6 GAS STATICCALL SWAP2 POP POP RETURNDATASIZE DUP1 PUSH1 0x0 DUP2 EQ PUSH3 0x1510 JUMPI PUSH1 0x40 MLOAD SWAP2 POP PUSH1 0x1F NOT PUSH1 0x3F RETURNDATASIZE ADD AND DUP3 ADD PUSH1 0x40 MSTORE RETURNDATASIZE DUP3 MSTORE RETURNDATASIZE PUSH1 0x0 PUSH1 0x20 DUP5 ADD RETURNDATACOPY PUSH3 0x1515 JUMP JUMPDEST PUSH1 0x60 SWAP2 POP JUMPDEST POP SWAP2 POP SWAP2 POP DUP2 DUP1 ISZERO PUSH3 0x1529 JUMPI POP DUP1 MLOAD PUSH1 0x20 EQ JUMPDEST ISZERO PUSH3 0x153F JUMPI PUSH3 0x153C DUP2 PUSH1 0x0 PUSH3 0x1671 JUMP JUMPDEST SWAP3 POP JUMPDEST POP POP SWAP4 SWAP3 POP POP POP JUMP JUMPDEST PUSH1 0x40 MLOAD PUSH1 0x0 SWAP1 DUP2 SWAP1 PUSH1 0x60 SWAP1 PUSH1 0x1 PUSH1 0x1 PUSH1 0xA0 SHL SUB DUP7 AND SWAP1 PUSH32 0x70A0823100000000000000000000000000000000000000000000000000000000 SWAP1 PUSH3 0x1590 SWAP1 DUP8 SWAP1 PUSH1 0x24 ADD PUSH3 0x1E7D JUMP JUMPDEST PUSH1 0x40 DUP1 MLOAD PUSH1 0x1F NOT DUP2 DUP5 SUB ADD DUP2 MSTORE SWAP2 DUP2 MSTORE PUSH1 0x20 DUP3 ADD DUP1 MLOAD PUSH28 0xFFFFFFFFFFFFFFFFFFFFFFFFFFFFFFFFFFFFFFFFFFFFFFFFFFFFFFFF AND PUSH32 0xFFFFFFFF00000000000000000000000000000000000000000000000000000000 SWAP1 SWAP5 AND SWAP4 SWAP1 SWAP4 OR SWAP1 SWAP3 MSTORE SWAP1 MLOAD PUSH3 0x15FD SWAP2 SWAP1 PUSH3 0x1E5F JUMP JUMPDEST PUSH1 0x0 PUSH1 0x40 MLOAD DUP1 DUP4 SUB DUP2 DUP6 GAS STATICCALL SWAP2 POP POP RETURNDATASIZE DUP1 PUSH1 0x0 DUP2 EQ PUSH3 0x163A JUMPI PUSH1 0x40 MLOAD SWAP2 POP PUSH1 0x1F NOT PUSH1 0x3F RETURNDATASIZE ADD AND DUP3 ADD PUSH1 0x40 MSTORE RETURNDATASIZE DUP3 MSTORE RETURNDATASIZE PUSH1 0x0 PUSH1 0x20 DUP5 ADD RETURNDATACOPY PUSH3 0x163F JUMP JUMPDEST PUSH1 0x60 SWAP2 POP JUMPDEST POP SWAP2 POP SWAP2 POP DUP2 DUP1 ISZERO PUSH3 0x1653 JUMPI POP DUP1 MLOAD PUSH1 0x20 EQ JUMPDEST ISZERO PUSH3 0x1669 JUMPI PUSH3 0x1666 DUP2 PUSH1 0x0 PUSH3 0x1671 JUMP JUMPDEST SWAP3 POP JUMPDEST POP POP SWAP3 SWAP2 POP POP JUMP JUMPDEST PUSH1 0x0 PUSH3 0x2BB DUP4 DUP4 PUSH3 0x1710 JUMP JUMPDEST PUSH1 0x60 PUSH4 0xE946C1BB PUSH1 0xE0 SHL DUP5 DUP5 DUP5 PUSH1 0x40 MLOAD PUSH1 0x24 ADD PUSH3 0x16A0 SWAP4 SWAP3 SWAP2 SWAP1 PUSH3 0x1EF3 JUMP JUMPDEST PUSH1 0x40 DUP1 MLOAD PUSH1 0x1F NOT DUP2 DUP5 SUB ADD DUP2 MSTORE SWAP2 SWAP1 MSTORE PUSH1 0x20 DUP2 ADD DUP1 MLOAD PUSH28 0xFFFFFFFFFFFFFFFFFFFFFFFFFFFFFFFFFFFFFFFFFFFFFFFFFFFFFFFF AND PUSH32 0xFFFFFFFF00000000000000000000000000000000000000000000000000000000 SWAP1 SWAP4 AND SWAP3 SWAP1 SWAP3 OR SWAP1 SWAP2 MSTORE SWAP1 POP SWAP4 SWAP3 POP POP POP JUMP JUMPDEST DUP1 MLOAD PUSH1 0x20 DUP3 ADD REVERT JUMPDEST PUSH1 0x0 DUP2 PUSH1 0x20 ADD DUP4 MLOAD LT ISZERO PUSH3 0x1735 JUMPI PUSH3 0x1735 PUSH3 0x1391 PUSH1 0x5 DUP6 MLOAD DUP6 PUSH1 0x20 ADD PUSH3 0x173E JUMP JUMPDEST POP ADD PUSH1 0x20 ADD MLOAD SWAP1 JUMP JUMPDEST PUSH1 0x60 PUSH4 0x28006595 PUSH1 0xE0 SHL DUP5 DUP5 DUP5 PUSH1 0x40 MLOAD PUSH1 0x24 ADD PUSH3 0x16A0 SWAP4 SWAP3 SWAP2 SWAP1 PUSH3 0x1F16 JUMP JUMPDEST PUSH2 0x367 DUP1 PUSH3 0x225F DUP4 CODECOPY ADD SWAP1 JUMP JUMPDEST PUSH1 0x40 DUP1 MLOAD PUSH1 0xA0 DUP2 ADD SWAP1 SWAP2 MSTORE DUP1 PUSH1 0x0 DUP2 MSTORE PUSH1 0x20 ADD PUSH1 0x0 DUP2 MSTORE PUSH1 0x20 ADD PUSH1 0x0 DUP2 MSTORE PUSH1 0x20 ADD PUSH1 0x0 DUP2 MSTORE PUSH1 0x20 ADD PUSH1 0x0 DUP2 MSTORE POP SWAP1 JUMP JUMPDEST PUSH1 0x40 MLOAD DUP1 PUSH1 0x80 ADD PUSH1 0x40 MSTORE DUP1 PUSH3 0x17B2 PUSH3 0x17E4 JUMP JUMPDEST DUP2 MSTORE PUSH1 0x20 ADD PUSH3 0x17C1 PUSH3 0x17E4 JUMP JUMPDEST DUP2 MSTORE PUSH1 0x20 ADD PUSH3 0x17D0 PUSH3 0x17E4 JUMP JUMPDEST DUP2 MSTORE PUSH1 0x20 ADD PUSH3 0x17DF PUSH3 0x17E4 JUMP JUMPDEST SWAP1 MSTORE SWAP1 JUMP JUMPDEST PUSH1 0x40 MLOAD DUP1 PUSH1 0x20 ADD PUSH1 0x40 MSTORE DUP1 PUSH1 0x0 DUP2 MSTORE POP SWAP1 JUMP JUMPDEST DUP1 CALLDATALOAD PUSH3 0x2BE DUP2 PUSH3 0x2245 JUMP JUMPDEST PUSH1 0x0 DUP3 PUSH1 0x1F DUP4 ADD SLT PUSH3 0x1815 JUMPI DUP1 DUP2 REVERT JUMPDEST DUP2 CALLDATALOAD PUSH3 0x182C PUSH3 0x1826 DUP3 PUSH3 0x21F1 JUMP JUMPDEST PUSH3 0x21C9 JUMP JUMPDEST DUP2 DUP2 MSTORE SWAP2 POP PUSH1 0x20 DUP1 DUP4 ADD SWAP1 DUP5 DUP2 ADD PUSH1 0xA0 DUP5 MUL DUP7 ADD DUP3 ADD DUP8 LT ISZERO PUSH3 0x184F JUMPI PUSH1 0x0 DUP1 REVERT JUMPDEST PUSH1 0x0 JUMPDEST DUP5 DUP2 LT ISZERO PUSH3 0xF2A JUMPI PUSH1 0xA0 DUP3 DUP10 SUB SLT ISZERO PUSH3 0x186C JUMPI PUSH1 0x0 DUP1 REVERT JUMPDEST PUSH3 0x1878 PUSH1 0xA0 PUSH3 0x21C9 JUMP JUMPDEST PUSH3 0x1884 DUP10 DUP5 PUSH3 0x1994 JUMP JUMPDEST DUP2 MSTORE DUP3 DUP5 ADD CALLDATALOAD DUP5 DUP3 ADD MSTORE PUSH1 0x40 DUP1 DUP5 ADD CALLDATALOAD SWAP1 DUP3 ADD MSTORE PUSH1 0x60 DUP1 DUP5 ADD CALLDATALOAD SWAP1 DUP3 ADD MSTORE PUSH1 0x80 DUP1 DUP5 ADD CALLDATALOAD SWAP1 DUP3 ADD MSTORE DUP5 MSTORE SWAP3 DUP3 ADD SWAP3 PUSH1 0xA0 SWAP1 SWAP2 ADD SWAP1 PUSH1 0x1 ADD PUSH3 0x1852 JUMP JUMPDEST PUSH1 0x0 DUP3 PUSH1 0x1F DUP4 ADD SLT PUSH3 0x18D2 JUMPI DUP1 DUP2 REVERT JUMPDEST DUP2 CALLDATALOAD PUSH3 0x18E3 PUSH3 0x1826 DUP3 PUSH3 0x21F1 JUMP JUMPDEST DUP2 DUP2 MSTORE SWAP2 POP PUSH1 0x20 DUP1 DUP4 ADD SWAP1 DUP5 DUP2 ADD DUP2 DUP5 MUL DUP7 ADD DUP3 ADD DUP8 LT ISZERO PUSH3 0x1905 JUMPI PUSH1 0x0 DUP1 REVERT JUMPDEST PUSH1 0x0 JUMPDEST DUP5 DUP2 LT ISZERO PUSH3 0xF2A JUMPI DUP2 CALLDATALOAD DUP5 MSTORE SWAP3 DUP3 ADD SWAP3 SWAP1 DUP3 ADD SWAP1 PUSH1 0x1 ADD PUSH3 0x1908 JUMP JUMPDEST PUSH1 0x0 DUP3 PUSH1 0x1F DUP4 ADD SLT PUSH3 0x1937 JUMPI DUP1 DUP2 REVERT JUMPDEST DUP2 CALLDATALOAD PUSH8 0xFFFFFFFFFFFFFFFF DUP2 GT ISZERO PUSH3 0x194E JUMPI DUP2 DUP3 REVERT JUMPDEST PUSH3 0x1963 PUSH1 0x20 PUSH1 0x1F NOT PUSH1 0x1F DUP5 ADD AND ADD PUSH3 0x21C9 JUMP JUMPDEST SWAP2 POP DUP1 DUP3 MSTORE DUP4 PUSH1 0x20 DUP3 DUP6 ADD ADD GT ISZERO PUSH3 0x197B JUMPI PUSH1 0x0 DUP1 REVERT JUMPDEST DUP1 PUSH1 0x20 DUP5 ADD PUSH1 0x20 DUP5 ADD CALLDATACOPY PUSH1 0x0 SWAP1 DUP3 ADD PUSH1 0x20 ADD MSTORE SWAP3 SWAP2 POP POP JUMP JUMPDEST DUP1 CALLDATALOAD PUSH1 0x2 DUP2 LT PUSH3 0x2BE JUMPI PUSH1 0x0 DUP1 REVERT JUMPDEST PUSH1 0x0 PUSH1 0x20 DUP3 DUP5 SUB SLT ISZERO PUSH3 0x19B6 JUMPI DUP1 DUP2 REVERT JUMPDEST PUSH3 0x19C2 PUSH1 0x20 PUSH3 0x21C9 JUMP JUMPDEST SWAP2 MLOAD DUP3 MSTORE POP SWAP2 SWAP1 POP JUMP JUMPDEST PUSH1 0x0 PUSH1 0x20 DUP3 DUP5 SUB SLT ISZERO PUSH3 0x19DE JUMPI DUP1 DUP2 REVERT JUMPDEST DUP2 MLOAD PUSH3 0x2BB DUP2 PUSH3 0x2245 JUMP JUMPDEST PUSH1 0x0 DUP1 PUSH1 0x0 DUP1 PUSH1 0x80 DUP6 DUP8 SUB SLT ISZERO PUSH3 0x1A01 JUMPI DUP3 DUP4 REVERT JUMPDEST DUP5 CALLDATALOAD PUSH3 0x1A0E DUP2 PUSH3 0x2245 JUMP JUMPDEST SWAP4 POP PUSH1 0x20 DUP6 ADD CALLDATALOAD PUSH3 0x1A20 DUP2 PUSH3 0x2245 JUMP JUMPDEST SWAP3 POP PUSH1 0x40 DUP6 ADD CALLDATALOAD PUSH3 0x1A32 DUP2 PUSH3 0x2245 JUMP JUMPDEST SWAP4 SWAP7 SWAP3 SWAP6 POP SWAP3 SWAP4 PUSH1 0x60 ADD CALLDATALOAD SWAP3 POP POP JUMP JUMPDEST PUSH1 0x0 DUP1 PUSH1 0x0 PUSH1 0x60 DUP5 DUP7 SUB SLT ISZERO PUSH3 0x1A57 JUMPI DUP1 DUP2 REVERT JUMPDEST DUP4 CALLDATALOAD PUSH3 0x1A64 DUP2 PUSH3 0x2245 JUMP JUMPDEST SWAP3 POP PUSH1 0x20 DUP5 ADD CALLDATALOAD PUSH3 0x1A76 DUP2 PUSH3 0x2245 JUMP JUMPDEST SWAP3 SWAP6 SWAP3 SWAP5 POP POP POP PUSH1 0x40 SWAP2 SWAP1 SWAP2 ADD CALLDATALOAD SWAP1 JUMP JUMPDEST PUSH1 0x0 PUSH1 0x20 DUP3 DUP5 SUB SLT ISZERO PUSH3 0x1A99 JUMPI DUP1 DUP2 REVERT JUMPDEST DUP2 CALLDATALOAD PUSH8 0xFFFFFFFFFFFFFFFF DUP1 DUP3 GT ISZERO PUSH3 0x1AB1 JUMPI DUP3 DUP4 REVERT JUMPDEST PUSH2 0x100 SWAP2 DUP5 ADD DUP1 DUP7 SUB DUP4 SGT ISZERO PUSH3 0x1AC6 JUMPI DUP4 DUP5 REVERT JUMPDEST PUSH3 0x1AD1 DUP4 PUSH3 0x21C9 JUMP JUMPDEST PUSH3 0x1ADD DUP8 DUP4 PUSH3 0x17F7 JUMP JUMPDEST DUP2 MSTORE PUSH3 0x1AEE DUP8 PUSH1 0x20 DUP5 ADD PUSH3 0x17F7 JUMP JUMPDEST PUSH1 0x20 DUP3 ADD MSTORE PUSH3 0x1B02 DUP8 PUSH1 0x40 DUP5 ADD PUSH3 0x17F7 JUMP JUMPDEST PUSH1 0x40 DUP3 ADD MSTORE PUSH3 0x1B16 DUP8 PUSH1 0x60 DUP5 ADD PUSH3 0x17F7 JUMP JUMPDEST PUSH1 0x60 DUP3 ADD MSTORE PUSH3 0x1B2A DUP8 PUSH1 0x80 DUP5 ADD PUSH3 0x17F7 JUMP JUMPDEST PUSH1 0x80 DUP3 ADD MSTORE PUSH1 0xA0 DUP3 ADD CALLDATALOAD PUSH1 0xA0 DUP3 ADD MSTORE PUSH1 0xC0 DUP3 ADD CALLDATALOAD SWAP4 POP DUP3 DUP5 GT ISZERO PUSH3 0x1B4D JUMPI DUP5 DUP6 REVERT JUMPDEST PUSH3 0x1B5B DUP8 DUP6 DUP5 ADD PUSH3 0x18C1 JUMP JUMPDEST PUSH1 0xC0 DUP3 ADD MSTORE PUSH1 0xE0 DUP3 ADD CALLDATALOAD SWAP4 POP DUP3 DUP5 GT ISZERO PUSH3 0x1B74 JUMPI DUP5 DUP6 REVERT JUMPDEST PUSH3 0x1B82 DUP8 DUP6 DUP5 ADD PUSH3 0x1804 JUMP JUMPDEST PUSH1 0xE0 DUP3 ADD MSTORE SWAP7 SWAP6 POP POP POP POP POP POP JUMP JUMPDEST PUSH1 0x0 PUSH1 0x20 DUP3 DUP5 SUB SLT ISZERO PUSH3 0x1BA3 JUMPI DUP1 DUP2 REVERT JUMPDEST PUSH3 0x2BB DUP4 DUP4 PUSH3 0x19A4 JUMP JUMPDEST PUSH1 0x0 DUP1 PUSH1 0x40 DUP4 DUP6 SUB SLT ISZERO PUSH3 0x1BC2 JUMPI DUP2 DUP3 REVERT JUMPDEST DUP3 CALLDATALOAD PUSH8 0xFFFFFFFFFFFFFFFF DUP1 DUP3 GT ISZERO PUSH3 0x1BDA JUMPI DUP4 DUP5 REVERT JUMPDEST PUSH2 0x1C0 SWAP2 DUP6 ADD DUP1 DUP8 SUB DUP4 SGT ISZERO PUSH3 0x1BEF JUMPI DUP5 DUP6 REVERT JUMPDEST PUSH3 0x1BFA DUP4 PUSH3 0x21C9 JUMP JUMPDEST PUSH3 0x1C06 DUP9 DUP4 PUSH3 0x17F7 JUMP JUMPDEST DUP2 MSTORE PUSH3 0x1C17 DUP9 PUSH1 0x20 DUP5 ADD PUSH3 0x17F7 JUMP JUMPDEST PUSH1 0x20 DUP3 ADD MSTORE PUSH3 0x1C2B DUP9 PUSH1 0x40 DUP5 ADD PUSH3 0x17F7 JUMP JUMPDEST PUSH1 0x40 DUP3 ADD MSTORE PUSH3 0x1C3F DUP9 PUSH1 0x60 DUP5 ADD PUSH3 0x17F7 JUMP JUMPDEST PUSH1 0x60 DUP3 ADD MSTORE PUSH1 0x80 DUP3 ADD CALLDATALOAD PUSH1 0x80 DUP3 ADD MSTORE PUSH1 0xA0 DUP3 ADD CALLDATALOAD PUSH1 0xA0 DUP3 ADD MSTORE PUSH1 0xC0 DUP3 ADD CALLDATALOAD PUSH1 0xC0 DUP3 ADD MSTORE PUSH1 0xE0 DUP3 ADD CALLDATALOAD PUSH1 0xE0 DUP3 ADD MSTORE PUSH2 0x100 SWAP4 POP DUP4 DUP3 ADD CALLDATALOAD DUP5 DUP3 ADD MSTORE PUSH2 0x120 SWAP4 POP DUP4 DUP3 ADD CALLDATALOAD DUP5 DUP3 ADD MSTORE PUSH2 0x140 SWAP4 POP DUP4 DUP3 ADD CALLDATALOAD DUP4 DUP2 GT ISZERO PUSH3 0x1C9C JUMPI DUP7 DUP8 REVERT JUMPDEST PUSH3 0x1CAA DUP10 DUP3 DUP6 ADD PUSH3 0x1926 JUMP JUMPDEST DUP6 DUP4 ADD MSTORE POP PUSH2 0x160 SWAP4 POP DUP4 DUP3 ADD CALLDATALOAD DUP4 DUP2 GT ISZERO PUSH3 0x1CC5 JUMPI DUP7 DUP8 REVERT JUMPDEST PUSH3 0x1CD3 DUP10 DUP3 DUP6 ADD PUSH3 0x1926 JUMP JUMPDEST DUP6 DUP4 ADD MSTORE POP PUSH2 0x180 SWAP4 POP DUP4 DUP3 ADD CALLDATALOAD DUP4 DUP2 GT ISZERO PUSH3 0x1CEE JUMPI DUP7 DUP8 REVERT JUMPDEST PUSH3 0x1CFC DUP10 DUP3 DUP6 ADD PUSH3 0x1926 JUMP JUMPDEST DUP6 DUP4 ADD MSTORE POP PUSH2 0x1A0 SWAP4 POP DUP4 DUP3 ADD CALLDATALOAD DUP4 DUP2 GT ISZERO PUSH3 0x1D17 JUMPI DUP7 DUP8 REVERT JUMPDEST PUSH3 0x1D25 DUP10 DUP3 DUP6 ADD PUSH3 0x1926 JUMP JUMPDEST DUP6 DUP4 ADD MSTORE POP DUP1 SWAP6 POP POP POP POP POP PUSH3 0x1D40 DUP5 PUSH1 0x20 DUP6 ADD PUSH3 0x17F7 JUMP JUMPDEST SWAP1 POP SWAP3 POP SWAP3 SWAP1 POP JUMP JUMPDEST PUSH1 0x0 PUSH1 0x80 DUP3 DUP5 SUB SLT ISZERO PUSH3 0x1D5B JUMPI DUP1 DUP2 REVERT JUMPDEST PUSH3 0x1D67 PUSH1 0x80 PUSH3 0x21C9 JUMP JUMPDEST PUSH3 0x1D73 DUP5 DUP5 PUSH3 0x19A4 JUMP JUMPDEST DUP2 MSTORE PUSH3 0x1D84 DUP5 PUSH1 0x20 DUP6 ADD PUSH3 0x19A4 JUMP JUMPDEST PUSH1 0x20 DUP3 ADD MSTORE PUSH3 0x1D98 DUP5 PUSH1 0x40 DUP6 ADD PUSH3 0x19A4 JUMP JUMPDEST PUSH1 0x40 DUP3 ADD MSTORE PUSH3 0x1DAC DUP5 PUSH1 0x60 DUP6 ADD PUSH3 0x19A4 JUMP JUMPDEST PUSH1 0x60 DUP3 ADD MSTORE SWAP4 SWAP3 POP POP POP JUMP JUMPDEST PUSH1 0x0 DUP1 PUSH1 0x40 DUP4 DUP6 SUB SLT ISZERO PUSH3 0x1DCB JUMPI DUP2 DUP3 REVERT JUMPDEST PUSH3 0x1DD7 DUP5 DUP5 PUSH3 0x19A4 JUMP JUMPDEST SWAP2 POP PUSH3 0x1D40 DUP5 PUSH1 0x20 DUP6 ADD PUSH3 0x19A4 JUMP JUMPDEST PUSH1 0x0 PUSH1 0x20 DUP3 DUP5 SUB SLT ISZERO PUSH3 0x1DFA JUMPI DUP1 DUP2 REVERT JUMPDEST POP MLOAD SWAP2 SWAP1 POP JUMP JUMPDEST PUSH1 0x0 PUSH1 0x20 DUP3 DUP5 SUB SLT ISZERO PUSH3 0x1E13 JUMPI DUP1 DUP2 REVERT JUMPDEST DUP2 CALLDATALOAD PUSH1 0xFF DUP2 AND DUP2 EQ PUSH3 0x2BB JUMPI DUP2 DUP3 REVERT JUMPDEST PUSH1 0x1 PUSH1 0x1 PUSH1 0xA0 SHL SUB AND SWAP1 MSTORE JUMP JUMPDEST PUSH1 0x0 DUP2 MLOAD DUP1 DUP5 MSTORE PUSH3 0x1E4B DUP2 PUSH1 0x20 DUP7 ADD PUSH1 0x20 DUP7 ADD PUSH3 0x2212 JUMP JUMPDEST PUSH1 0x1F ADD PUSH1 0x1F NOT AND SWAP3 SWAP1 SWAP3 ADD PUSH1 0x20 ADD SWAP3 SWAP2 POP POP JUMP JUMPDEST PUSH1 0x0 DUP3 MLOAD PUSH3 0x1E73 DUP2 DUP5 PUSH1 0x20 DUP8 ADD PUSH3 0x2212 JUMP JUMPDEST SWAP2 SWAP1 SWAP2 ADD SWAP3 SWAP2 POP POP JUMP JUMPDEST PUSH1 0x1 PUSH1 0x1 PUSH1 0xA0 SHL SUB SWAP2 SWAP1 SWAP2 AND DUP2 MSTORE PUSH1 0x20 ADD SWAP1 JUMP JUMPDEST PUSH1 0x1 PUSH1 0x1 PUSH1 0xA0 SHL SUB SWAP3 DUP4 AND DUP2 MSTORE SWAP2 AND PUSH1 0x20 DUP3 ADD MSTORE PUSH1 0x40 ADD SWAP1 JUMP JUMPDEST PUSH1 0x1 PUSH1 0x1 PUSH1 0xA0 SHL SUB SWAP4 DUP5 AND DUP2 MSTORE SWAP2 SWAP1 SWAP3 AND PUSH1 0x20 DUP3 ADD MSTORE PUSH1 0x40 DUP2 ADD SWAP2 SWAP1 SWAP2 MSTORE PUSH1 0x60 ADD SWAP1 JUMP JUMPDEST PUSH1 0x1 PUSH1 0x1 PUSH1 0xA0 SHL SUB SWAP3 SWAP1 SWAP3 AND DUP3 MSTORE PUSH1 0x20 DUP3 ADD MSTORE PUSH1 0x40 ADD SWAP1 JUMP JUMPDEST SWAP1 ISZERO ISZERO DUP2 MSTORE PUSH1 0x20 ADD SWAP1 JUMP JUMPDEST PUSH1 0x60 DUP2 ADD PUSH1 0x4 DUP6 LT PUSH3 0x1F02 JUMPI INVALID JUMPDEST SWAP4 DUP2 MSTORE PUSH1 0x20 DUP2 ADD SWAP3 SWAP1 SWAP3 MSTORE PUSH1 0x40 SWAP1 SWAP2 ADD MSTORE SWAP1 JUMP JUMPDEST PUSH1 0x60 DUP2 ADD PUSH1 0x8 DUP6 LT PUSH3 0x1F02 JUMPI INVALID JUMPDEST PUSH1 0x20 DUP1 DUP3 MSTORE PUSH1 0x18 SWAP1 DUP3 ADD MSTORE PUSH32 0x4431382F444543494D414C5F4144445F4F564552464C4F570000000000000000 PUSH1 0x40 DUP3 ADD MSTORE PUSH1 0x60 ADD SWAP1 JUMP JUMPDEST PUSH1 0x20 DUP1 DUP3 MSTORE PUSH1 0x19 SWAP1 DUP3 ADD MSTORE PUSH32 0x4431382F444543494D414C5F56414C55455F544F4F5F42494700000000000000 PUSH1 0x40 DUP3 ADD MSTORE PUSH1 0x60 ADD SWAP1 JUMP JUMPDEST PUSH1 0x20 DUP1 DUP3 MSTORE PUSH1 0x18 SWAP1 DUP3 ADD MSTORE PUSH32 0x4431382F444543494D414C5F4D554C5F4F564552464C4F570000000000000000 PUSH1 0x40 DUP3 ADD MSTORE PUSH1 0x60 ADD SWAP1 JUMP JUMPDEST PUSH1 0x20 DUP1 DUP3 MSTORE PUSH1 0x18 SWAP1 DUP3 ADD MSTORE PUSH32 0x4431382F444543494D414C5F4449565F4F564552464C4F570000000000000000 PUSH1 0x40 DUP3 ADD MSTORE PUSH1 0x60 ADD SWAP1 JUMP JUMPDEST PUSH1 0x20 DUP1 DUP3 MSTORE PUSH1 0x17 SWAP1 DUP3 ADD MSTORE PUSH32 0x4431382F444543494D414C5F4449565F42595F5A45524F000000000000000000 PUSH1 0x40 DUP3 ADD MSTORE PUSH1 0x60 ADD SWAP1 JUMP JUMPDEST DUP2 MLOAD PUSH1 0x1 PUSH1 0x1 PUSH1 0xA0 SHL SUB AND DUP2 MSTORE PUSH1 0x20 SWAP2 DUP3 ADD MLOAD SWAP2 DUP2 ADD SWAP2 SWAP1 SWAP2 MSTORE PUSH1 0x40 ADD SWAP1 JUMP JUMPDEST PUSH1 0x0 PUSH1 0x40 DUP3 MSTORE PUSH3 0x206E PUSH1 0x40 DUP4 ADD DUP6 MLOAD PUSH3 0x1E24 JUMP JUMPDEST PUSH1 0x20 DUP5 ADD MLOAD PUSH3 0x2082 PUSH1 0x60 DUP5 ADD DUP3 PUSH3 0x1E24 JUMP JUMPDEST POP PUSH1 0x40 DUP5 ADD MLOAD PUSH3 0x2097 PUSH1 0x80 DUP5 ADD DUP3 PUSH3 0x1E24 JUMP JUMPDEST POP PUSH1 0x60 DUP5 ADD MLOAD PUSH3 0x20AC PUSH1 0xA0 DUP5 ADD DUP3 PUSH3 0x1E24 JUMP JUMPDEST POP PUSH1 0x80 DUP5 ADD MLOAD PUSH1 0xC0 DUP4 ADD MSTORE PUSH1 0xA0 DUP5 ADD MLOAD PUSH1 0xE0 DUP4 ADD MSTORE PUSH1 0xC0 DUP5 ADD MLOAD PUSH2 0x100 DUP2 DUP2 DUP6 ADD MSTORE PUSH1 0xE0 DUP7 ADD MLOAD SWAP2 POP PUSH2 0x120 DUP3 DUP2 DUP7 ADD MSTORE DUP2 DUP8 ADD MLOAD SWAP3 POP PUSH2 0x140 SWAP2 POP DUP3 DUP3 DUP7 ADD MSTORE DUP1 DUP8 ADD MLOAD SWAP3 POP POP PUSH2 0x160 DUP3 DUP2 DUP7 ADD MSTORE DUP2 DUP8 ADD MLOAD SWAP3 POP PUSH2 0x1C0 SWAP2 POP PUSH2 0x180 DUP3 DUP2 DUP8 ADD MSTORE PUSH3 0x211F PUSH2 0x200 DUP8 ADD DUP6 PUSH3 0x1E31 JUMP JUMPDEST DUP3 DUP10 ADD MLOAD SWAP5 POP PUSH32 0xFFFFFFFFFFFFFFFFFFFFFFFFFFFFFFFFFFFFFFFFFFFFFFFFFFFFFFFFFFFFFFC0 SWAP3 POP PUSH2 0x1A0 DUP4 DUP9 DUP4 SUB ADD DUP2 DUP10 ADD MSTORE PUSH3 0x2160 DUP3 DUP8 PUSH3 0x1E31 JUMP JUMPDEST DUP4 DUP12 ADD MLOAD SWAP7 POP DUP5 DUP10 DUP3 SUB ADD DUP7 DUP11 ADD MSTORE PUSH3 0x217B DUP2 DUP9 PUSH3 0x1E31 JUMP JUMPDEST SWAP6 POP POP DUP1 DUP11 ADD MLOAD SWAP6 POP POP POP POP DUP1 DUP6 DUP4 SUB ADD PUSH2 0x1E0 DUP7 ADD MSTORE POP PUSH3 0x219F DUP2 DUP4 PUSH3 0x1E31 JUMP JUMPDEST SWAP3 POP POP POP PUSH3 0xAB0 PUSH1 0x20 DUP4 ADD DUP5 PUSH3 0x1E24 JUMP JUMPDEST SWAP1 DUP2 MSTORE PUSH1 0x20 ADD SWAP1 JUMP JUMPDEST PUSH1 0xFF SWAP2 SWAP1 SWAP2 AND DUP2 MSTORE PUSH1 0x20 ADD SWAP1 JUMP JUMPDEST PUSH1 0x40 MLOAD DUP2 DUP2 ADD PUSH8 0xFFFFFFFFFFFFFFFF DUP2 GT DUP3 DUP3 LT OR ISZERO PUSH3 0x21E9 JUMPI PUSH1 0x0 DUP1 REVERT JUMPDEST PUSH1 0x40 MSTORE SWAP2 SWAP1 POP JUMP JUMPDEST PUSH1 0x0 PUSH8 0xFFFFFFFFFFFFFFFF DUP3 GT ISZERO PUSH3 0x2208 JUMPI DUP1 DUP2 REVERT JUMPDEST POP PUSH1 0x20 SWAP1 DUP2 MUL ADD SWAP1 JUMP JUMPDEST PUSH1 0x0 JUMPDEST DUP4 DUP2 LT ISZERO PUSH3 0x222F JUMPI DUP2 DUP2 ADD MLOAD DUP4 DUP3 ADD MSTORE PUSH1 0x20 ADD PUSH3 0x2215 JUMP JUMPDEST DUP4 DUP2 GT ISZERO PUSH3 0x223F JUMPI PUSH1 0x0 DUP5 DUP5 ADD MSTORE JUMPDEST POP POP POP POP JUMP JUMPDEST PUSH1 0x1 PUSH1 0x1 PUSH1 0xA0 SHL SUB DUP2 AND DUP2 EQ PUSH3 0x225B JUMPI PUSH1 0x0 DUP1 REVERT JUMPDEST POP JUMP INVALID PUSH1 0x80 PUSH1 0x40 MSTORE CALLVALUE DUP1 ISZERO PUSH2 0x10 JUMPI PUSH1 0x0 DUP1 REVERT JUMPDEST POP PUSH1 0x40 MLOAD PUSH2 0x367 CODESIZE SUB DUP1 PUSH2 0x367 DUP4 CODECOPY DUP2 ADD PUSH1 0x40 DUP2 SWAP1 MSTORE PUSH2 0x2F SWAP2 PUSH2 0x48 JUMP JUMPDEST PUSH1 0x0 DUP1 SLOAD PUSH1 0xFF NOT AND PUSH1 0xFF SWAP3 SWAP1 SWAP3 AND SWAP2 SWAP1 SWAP2 OR SWAP1 SSTORE PUSH2 0x70 JUMP JUMPDEST PUSH1 0x0 PUSH1 0x20 DUP3 DUP5 SUB SLT ISZERO PUSH2 0x59 JUMPI DUP1 DUP2 REVERT JUMPDEST DUP2 MLOAD PUSH1 0xFF DUP2 AND DUP2 EQ PUSH2 0x69 JUMPI DUP2 DUP3 REVERT JUMPDEST SWAP4 SWAP3 POP POP POP JUMP JUMPDEST PUSH2 0x2E8 DUP1 PUSH2 0x7F PUSH1 0x0 CODECOPY PUSH1 0x0 RETURN INVALID PUSH1 0x80 PUSH1 0x40 MSTORE CALLVALUE DUP1 ISZERO PUSH2 0x10 JUMPI PUSH1 0x0 DUP1 REVERT JUMPDEST POP PUSH1 0x4 CALLDATASIZE LT PUSH2 0x67 JUMPI PUSH1 0x0 CALLDATALOAD PUSH1 0xE0 SHR DUP1 PUSH4 0x70A08231 GT PUSH2 0x50 JUMPI DUP1 PUSH4 0x70A08231 EQ PUSH2 0x9F JUMPI DUP1 PUSH4 0xDD62ED3E EQ PUSH2 0xBF JUMPI DUP1 PUSH4 0xE30443BC EQ PUSH2 0xD2 JUMPI PUSH2 0x67 JUMP JUMPDEST DUP1 PUSH4 0xC9FCEC9 EQ PUSH2 0x6C JUMPI DUP1 PUSH4 0x313CE567 EQ PUSH2 0x81 JUMPI JUMPDEST PUSH1 0x0 DUP1 REVERT JUMPDEST PUSH2 0x7F PUSH2 0x7A CALLDATASIZE PUSH1 0x4 PUSH2 0x1FF JUMP JUMPDEST PUSH2 0xE5 JUMP JUMPDEST STOP JUMPDEST PUSH2 0x89 PUSH2 0x11E JUMP JUMPDEST PUSH1 0x40 MLOAD PUSH2 0x96 SWAP2 SWAP1 PUSH2 0x272 JUMP JUMPDEST PUSH1 0x40 MLOAD DUP1 SWAP2 SUB SWAP1 RETURN JUMPDEST PUSH2 0xB2 PUSH2 0xAD CALLDATASIZE PUSH1 0x4 PUSH2 0x1A9 JUMP JUMPDEST PUSH2 0x127 JUMP JUMPDEST PUSH1 0x40 MLOAD PUSH2 0x96 SWAP2 SWAP1 PUSH2 0x269 JUMP JUMPDEST PUSH2 0xB2 PUSH2 0xCD CALLDATASIZE PUSH1 0x4 PUSH2 0x1CB JUMP JUMPDEST PUSH2 0x139 JUMP JUMPDEST PUSH2 0x7F PUSH2 0xE0 CALLDATASIZE PUSH1 0x4 PUSH2 0x23F JUMP JUMPDEST PUSH2 0x156 JUMP JUMPDEST PUSH20 0xFFFFFFFFFFFFFFFFFFFFFFFFFFFFFFFFFFFFFFFF SWAP3 DUP4 AND PUSH1 0x0 SWAP1 DUP2 MSTORE PUSH1 0x2 PUSH1 0x20 SWAP1 DUP2 MSTORE PUSH1 0x40 DUP1 DUP4 KECCAK256 SWAP5 SWAP1 SWAP6 AND DUP3 MSTORE SWAP3 SWAP1 SWAP3 MSTORE SWAP2 SWAP1 KECCAK256 SSTORE JUMP JUMPDEST PUSH1 0x0 SLOAD PUSH1 0xFF AND DUP2 JUMP JUMPDEST PUSH1 0x1 PUSH1 0x20 MSTORE PUSH1 0x0 SWAP1 DUP2 MSTORE PUSH1 0x40 SWAP1 KECCAK256 SLOAD DUP2 JUMP JUMPDEST PUSH1 0x2 PUSH1 0x20 SWAP1 DUP2 MSTORE PUSH1 0x0 SWAP3 DUP4 MSTORE PUSH1 0x40 DUP1 DUP5 KECCAK256 SWAP1 SWAP2 MSTORE SWAP1 DUP3 MSTORE SWAP1 KECCAK256 SLOAD DUP2 JUMP JUMPDEST PUSH20 0xFFFFFFFFFFFFFFFFFFFFFFFFFFFFFFFFFFFFFFFF SWAP1 SWAP2 AND PUSH1 0x0 SWAP1 DUP2 MSTORE PUSH1 0x1 PUSH1 0x20 MSTORE PUSH1 0x40 SWAP1 KECCAK256 SSTORE JUMP JUMPDEST DUP1 CALLDATALOAD PUSH20 0xFFFFFFFFFFFFFFFFFFFFFFFFFFFFFFFFFFFFFFFF DUP2 AND DUP2 EQ PUSH2 0x1A3 JUMPI PUSH1 0x0 DUP1 REVERT JUMPDEST SWAP3 SWAP2 POP POP JUMP JUMPDEST PUSH1 0x0 PUSH1 0x20 DUP3 DUP5 SUB SLT ISZERO PUSH2 0x1BA JUMPI DUP1 DUP2 REVERT JUMPDEST PUSH2 0x1C4 DUP4 DUP4 PUSH2 0x17F JUMP JUMPDEST SWAP4 SWAP3 POP POP POP JUMP JUMPDEST PUSH1 0x0 DUP1 PUSH1 0x40 DUP4 DUP6 SUB SLT ISZERO PUSH2 0x1DD JUMPI DUP1 DUP2 REVERT JUMPDEST PUSH2 0x1E7 DUP5 DUP5 PUSH2 0x17F JUMP JUMPDEST SWAP2 POP PUSH2 0x1F6 DUP5 PUSH1 0x20 DUP6 ADD PUSH2 0x17F JUMP JUMPDEST SWAP1 POP SWAP3 POP SWAP3 SWAP1 POP JUMP JUMPDEST PUSH1 0x0 DUP1 PUSH1 0x0 PUSH1 0x60 DUP5 DUP7 SUB SLT ISZERO PUSH2 0x213 JUMPI DUP1 DUP2 REVERT JUMPDEST DUP4 CALLDATALOAD PUSH2 0x21E DUP2 PUSH2 0x280 JUMP JUMPDEST SWAP3 POP PUSH1 0x20 DUP5 ADD CALLDATALOAD PUSH2 0x22E DUP2 PUSH2 0x280 JUMP JUMPDEST SWAP3 SWAP6 SWAP3 SWAP5 POP POP POP PUSH1 0x40 SWAP2 SWAP1 SWAP2 ADD CALLDATALOAD SWAP1 JUMP JUMPDEST PUSH1 0x0 DUP1 PUSH1 0x40 DUP4 DUP6 SUB SLT ISZERO PUSH2 0x251 JUMPI DUP2 DUP3 REVERT JUMPDEST PUSH2 0x25B DUP5 DUP5 PUSH2 0x17F JUMP JUMPDEST SWAP5 PUSH1 0x20 SWAP4 SWAP1 SWAP4 ADD CALLDATALOAD SWAP4 POP POP POP JUMP JUMPDEST SWAP1 DUP2 MSTORE PUSH1 0x20 ADD SWAP1 JUMP JUMPDEST PUSH1 0xFF SWAP2 SWAP1 SWAP2 AND DUP2 MSTORE PUSH1 0x20 ADD SWAP1 JUMP JUMPDEST PUSH20 0xFFFFFFFFFFFFFFFFFFFFFFFFFFFFFFFFFFFFFFFF DUP2 AND DUP2 EQ PUSH2 0x2A2 JUMPI PUSH1 0x0 DUP1 REVERT JUMPDEST POP JUMP INVALID LOG3 PUSH6 0x627A7A723158 KECCAK256 PUSH12 0xC7D0881D2EE5D99BC078F7E7 LOG0 0xC 0xD8 CALLDATASIZE 0xA8 LT 0xB6 0xBA SWAP7 PUSH21 0x9C50808315798D88DF6C6578706572696D656E7461 PUSH13 0xF564736F6C63430005110040A3 PUSH6 0x627A7A723158 KECCAK256 SWAP2 SLT PUSH29 0x28AD6BD484848D4AD9C1A204B5C3C6FA0C3DACDE26B2CF5B6C08C5AF02 PUSH13 0x6578706572696D656E74616CF5 PUSH5 0x736F6C6343 STOP SDIV GT STOP BLOCKHASH "
            }
        }
    },
    "sourceTreeHashHex": "0x234b7fec4f419e08ad6344e145524b85d95711a870877fecc3ad52ec6be65e65",
    "compiler": {
        "name": "solc",
        "version": "0.5.17+commit.d19bba13",
        "settings": {
            "remappings": [
                "@0x/contracts-asset-proxy=/Users/rickmorty/Documents/projects/0x/0x-monorepo/node_modules/@0x/contracts-asset-proxy",
                "@0x/contracts-exchange=/Users/rickmorty/Documents/projects/0x/0x-monorepo/node_modules/@0x/contracts-exchange",
                "@0x/contracts-exchange-libs=/Users/rickmorty/Documents/projects/0x/0x-monorepo/node_modules/@0x/contracts-exchange-libs",
                "@0x/contracts-utils=/Users/rickmorty/Documents/projects/0x/0x-monorepo/node_modules/@0x/contracts-utils",
                "@0x/contracts-erc20=/Users/rickmorty/Documents/projects/0x/0x-monorepo/node_modules/@0x/contracts-erc20",
                "@0x/contracts-erc721=/Users/rickmorty/Documents/projects/0x/0x-monorepo/node_modules/@0x/contracts-erc721",
                "@0x/contracts-erc1155=/Users/rickmorty/Documents/projects/0x/0x-monorepo/node_modules/@0x/contracts-erc1155"
            ],
            "optimizer": {
                "enabled": true,
                "runs": 5000,
                "details": {
                    "yul": true,
                    "deduplicate": true,
                    "cse": true,
                    "constantOptimizer": true
                }
            },
            "outputSelection": {
                "*": {
                    "*": [
                        "abi",
                        "devdoc",
                        "evm.bytecode.object",
                        "evm.bytecode.sourceMap",
                        "evm.deployedBytecode.object",
                        "evm.deployedBytecode.sourceMap"
                    ]
                }
            },
            "evmVersion": "istanbul"
        }
    },
    "chains": {}
}