{
    "schemaVersion": "2.0.0",
    "contractName": "TestNativeOrderSampler",
    "compilerOutput": {
        "abi": [
            {
                "constant": false,
                "inputs": [
                    {
                        "internalType": "uint256",
                        "name": "count",
                        "type": "uint256"
                    }
                ],
                "name": "createTokens",
                "outputs": [
                    {
                        "internalType": "contract TestNativeOrderSamplerToken[]",
                        "name": "tokens",
                        "type": "address[]"
                    }
                ],
                "payable": false,
                "stateMutability": "nonpayable",
                "type": "function"
            },
            {
                "constant": true,
                "inputs": [
                    {
                        "internalType": "bytes4",
                        "name": "proxyId",
                        "type": "bytes4"
                    }
                ],
                "name": "getAssetProxy",
                "outputs": [
                    {
                        "internalType": "address",
                        "name": "",
                        "type": "address"
                    }
                ],
                "payable": false,
                "stateMutability": "pure",
                "type": "function"
            },
            {
                "constant": true,
                "inputs": [
                    {
                        "components": [
                            {
                                "internalType": "address",
                                "name": "makerAddress",
                                "type": "address"
                            },
                            {
                                "internalType": "address",
                                "name": "takerAddress",
                                "type": "address"
                            },
                            {
                                "internalType": "address",
                                "name": "feeRecipientAddress",
                                "type": "address"
                            },
                            {
                                "internalType": "address",
                                "name": "senderAddress",
                                "type": "address"
                            },
                            {
                                "internalType": "uint256",
                                "name": "makerAssetAmount",
                                "type": "uint256"
                            },
                            {
                                "internalType": "uint256",
                                "name": "takerAssetAmount",
                                "type": "uint256"
                            },
                            {
                                "internalType": "uint256",
                                "name": "makerFee",
                                "type": "uint256"
                            },
                            {
                                "internalType": "uint256",
                                "name": "takerFee",
                                "type": "uint256"
                            },
                            {
                                "internalType": "uint256",
                                "name": "expirationTimeSeconds",
                                "type": "uint256"
                            },
                            {
                                "internalType": "uint256",
                                "name": "salt",
                                "type": "uint256"
                            },
                            {
                                "internalType": "bytes",
                                "name": "makerAssetData",
                                "type": "bytes"
                            },
                            {
                                "internalType": "bytes",
                                "name": "takerAssetData",
                                "type": "bytes"
                            },
                            {
                                "internalType": "bytes",
                                "name": "makerFeeAssetData",
                                "type": "bytes"
                            },
                            {
                                "internalType": "bytes",
                                "name": "takerFeeAssetData",
                                "type": "bytes"
                            }
                        ],
                        "internalType": "struct LibOrder.Order[]",
                        "name": "orders",
                        "type": "tuple[]"
                    },
                    {
                        "internalType": "bytes[]",
                        "name": "orderSignatures",
                        "type": "bytes[]"
                    },
                    {
                        "internalType": "contract IExchange",
                        "name": "exchange",
                        "type": "address"
                    }
                ],
                "name": "getOrderFillableMakerAssetAmounts",
                "outputs": [
                    {
                        "internalType": "uint256[]",
                        "name": "orderFillableMakerAssetAmounts",
                        "type": "uint256[]"
                    }
                ],
                "payable": false,
                "stateMutability": "view",
                "type": "function"
            },
            {
                "constant": true,
                "inputs": [
                    {
                        "components": [
                            {
                                "internalType": "address",
                                "name": "makerAddress",
                                "type": "address"
                            },
                            {
                                "internalType": "address",
                                "name": "takerAddress",
                                "type": "address"
                            },
                            {
                                "internalType": "address",
                                "name": "feeRecipientAddress",
                                "type": "address"
                            },
                            {
                                "internalType": "address",
                                "name": "senderAddress",
                                "type": "address"
                            },
                            {
                                "internalType": "uint256",
                                "name": "makerAssetAmount",
                                "type": "uint256"
                            },
                            {
                                "internalType": "uint256",
                                "name": "takerAssetAmount",
                                "type": "uint256"
                            },
                            {
                                "internalType": "uint256",
                                "name": "makerFee",
                                "type": "uint256"
                            },
                            {
                                "internalType": "uint256",
                                "name": "takerFee",
                                "type": "uint256"
                            },
                            {
                                "internalType": "uint256",
                                "name": "expirationTimeSeconds",
                                "type": "uint256"
                            },
                            {
                                "internalType": "uint256",
                                "name": "salt",
                                "type": "uint256"
                            },
                            {
                                "internalType": "bytes",
                                "name": "makerAssetData",
                                "type": "bytes"
                            },
                            {
                                "internalType": "bytes",
                                "name": "takerAssetData",
                                "type": "bytes"
                            },
                            {
                                "internalType": "bytes",
                                "name": "makerFeeAssetData",
                                "type": "bytes"
                            },
                            {
                                "internalType": "bytes",
                                "name": "takerFeeAssetData",
                                "type": "bytes"
                            }
                        ],
                        "internalType": "struct LibOrder.Order",
                        "name": "order",
                        "type": "tuple"
                    },
                    {
                        "internalType": "bytes",
                        "name": "signature",
                        "type": "bytes"
                    },
                    {
                        "internalType": "contract IExchange",
                        "name": "exchange",
                        "type": "address"
                    }
                ],
                "name": "getOrderFillableTakerAmount",
                "outputs": [
                    {
                        "internalType": "uint256",
                        "name": "fillableTakerAmount",
                        "type": "uint256"
                    }
                ],
                "payable": false,
                "stateMutability": "view",
                "type": "function"
            },
            {
                "constant": true,
                "inputs": [
                    {
                        "components": [
                            {
                                "internalType": "address",
                                "name": "makerAddress",
                                "type": "address"
                            },
                            {
                                "internalType": "address",
                                "name": "takerAddress",
                                "type": "address"
                            },
                            {
                                "internalType": "address",
                                "name": "feeRecipientAddress",
                                "type": "address"
                            },
                            {
                                "internalType": "address",
                                "name": "senderAddress",
                                "type": "address"
                            },
                            {
                                "internalType": "uint256",
                                "name": "makerAssetAmount",
                                "type": "uint256"
                            },
                            {
                                "internalType": "uint256",
                                "name": "takerAssetAmount",
                                "type": "uint256"
                            },
                            {
                                "internalType": "uint256",
                                "name": "makerFee",
                                "type": "uint256"
                            },
                            {
                                "internalType": "uint256",
                                "name": "takerFee",
                                "type": "uint256"
                            },
                            {
                                "internalType": "uint256",
                                "name": "expirationTimeSeconds",
                                "type": "uint256"
                            },
                            {
                                "internalType": "uint256",
                                "name": "salt",
                                "type": "uint256"
                            },
                            {
                                "internalType": "bytes",
                                "name": "makerAssetData",
                                "type": "bytes"
                            },
                            {
                                "internalType": "bytes",
                                "name": "takerAssetData",
                                "type": "bytes"
                            },
                            {
                                "internalType": "bytes",
                                "name": "makerFeeAssetData",
                                "type": "bytes"
                            },
                            {
                                "internalType": "bytes",
                                "name": "takerFeeAssetData",
                                "type": "bytes"
                            }
                        ],
                        "internalType": "struct LibOrder.Order[]",
                        "name": "orders",
                        "type": "tuple[]"
                    },
                    {
                        "internalType": "bytes[]",
                        "name": "orderSignatures",
                        "type": "bytes[]"
                    },
                    {
                        "internalType": "contract IExchange",
                        "name": "exchange",
                        "type": "address"
                    }
                ],
                "name": "getOrderFillableTakerAssetAmounts",
                "outputs": [
                    {
                        "internalType": "uint256[]",
                        "name": "orderFillableTakerAssetAmounts",
                        "type": "uint256[]"
                    }
                ],
                "payable": false,
                "stateMutability": "view",
                "type": "function"
            },
            {
                "constant": true,
                "inputs": [
                    {
                        "components": [
                            {
                                "internalType": "address",
                                "name": "makerAddress",
                                "type": "address"
                            },
                            {
                                "internalType": "address",
                                "name": "takerAddress",
                                "type": "address"
                            },
                            {
                                "internalType": "address",
                                "name": "feeRecipientAddress",
                                "type": "address"
                            },
                            {
                                "internalType": "address",
                                "name": "senderAddress",
                                "type": "address"
                            },
                            {
                                "internalType": "uint256",
                                "name": "makerAssetAmount",
                                "type": "uint256"
                            },
                            {
                                "internalType": "uint256",
                                "name": "takerAssetAmount",
                                "type": "uint256"
                            },
                            {
                                "internalType": "uint256",
                                "name": "makerFee",
                                "type": "uint256"
                            },
                            {
                                "internalType": "uint256",
                                "name": "takerFee",
                                "type": "uint256"
                            },
                            {
                                "internalType": "uint256",
                                "name": "expirationTimeSeconds",
                                "type": "uint256"
                            },
                            {
                                "internalType": "uint256",
                                "name": "salt",
                                "type": "uint256"
                            },
                            {
                                "internalType": "bytes",
                                "name": "makerAssetData",
                                "type": "bytes"
                            },
                            {
                                "internalType": "bytes",
                                "name": "takerAssetData",
                                "type": "bytes"
                            },
                            {
                                "internalType": "bytes",
                                "name": "makerFeeAssetData",
                                "type": "bytes"
                            },
                            {
                                "internalType": "bytes",
                                "name": "takerFeeAssetData",
                                "type": "bytes"
                            }
                        ],
                        "internalType": "struct LibOrder.Order",
                        "name": "order",
                        "type": "tuple"
                    }
                ],
                "name": "getOrderInfo",
                "outputs": [
                    {
                        "components": [
                            {
                                "internalType": "enum LibOrder.OrderStatus",
                                "name": "orderStatus",
                                "type": "uint8"
                            },
                            {
                                "internalType": "bytes32",
                                "name": "orderHash",
                                "type": "bytes32"
                            },
                            {
                                "internalType": "uint256",
                                "name": "orderTakerAssetFilledAmount",
                                "type": "uint256"
                            }
                        ],
                        "internalType": "struct LibOrder.OrderInfo",
                        "name": "orderInfo",
                        "type": "tuple"
                    }
                ],
                "payable": false,
                "stateMutability": "pure",
                "type": "function"
            },
            {
                "constant": true,
                "inputs": [
                    {
                        "internalType": "bytes32",
                        "name": "",
                        "type": "bytes32"
                    },
                    {
                        "internalType": "address",
                        "name": "",
                        "type": "address"
                    },
                    {
                        "internalType": "bytes",
                        "name": "signature",
                        "type": "bytes"
                    }
                ],
                "name": "isValidHashSignature",
                "outputs": [
                    {
                        "internalType": "bool",
                        "name": "isValid",
                        "type": "bool"
                    }
                ],
                "payable": false,
                "stateMutability": "pure",
                "type": "function"
            },
            {
                "constant": false,
                "inputs": [
                    {
                        "internalType": "contract TestNativeOrderSamplerToken",
                        "name": "token",
                        "type": "address"
                    },
                    {
                        "internalType": "address",
                        "name": "owner",
                        "type": "address"
                    },
                    {
                        "internalType": "address",
                        "name": "spender",
                        "type": "address"
                    },
                    {
                        "internalType": "uint256",
                        "name": "balance",
                        "type": "uint256"
                    },
                    {
                        "internalType": "uint256",
                        "name": "allowance",
                        "type": "uint256"
                    }
                ],
                "name": "setTokenBalanceAndAllowance",
                "outputs": [],
                "payable": false,
                "stateMutability": "nonpayable",
                "type": "function"
            }
        ],
        "devdoc": {
            "methods": {
                "getOrderFillableMakerAssetAmounts((address,address,address,address,uint256,uint256,uint256,uint256,uint256,uint256,bytes,bytes,bytes,bytes)[],bytes[],address)": {
                    "details": "Queries the fillable taker asset amounts of native orders.      Effectively ignores orders that have empty signatures or",
                    "params": {
                        "exchange": "The V3 exchange.",
                        "orderSignatures": "Signatures for each respective order in `orders`.",
                        "orders": "Native orders to query."
                    },
                    "return": "orderFillableMakerAssetAmounts How much maker asset can be filled         by each order in `orders`."
                },
                "getOrderFillableTakerAmount((address,address,address,address,uint256,uint256,uint256,uint256,uint256,uint256,bytes,bytes,bytes,bytes),bytes,address)": {
                    "details": "Get the fillable taker amount of an order, taking into account      order state, maker fees, and maker balances."
                },
                "getOrderFillableTakerAssetAmounts((address,address,address,address,uint256,uint256,uint256,uint256,uint256,uint256,bytes,bytes,bytes,bytes)[],bytes[],address)": {
                    "details": "Queries the fillable taker asset amounts of native orders.      Effectively ignores orders that have empty signatures or      maker/taker asset amounts (returning 0).",
                    "params": {
                        "exchange": "The V3 exchange.",
                        "orderSignatures": "Signatures for each respective order in `orders`.",
                        "orders": "Native orders to query."
                    },
                    "return": "orderFillableTakerAssetAmounts How much taker asset can be filled         by each order in `orders`."
                }
            }
        },
        "evm": {
            "bytecode": {
                "linkReferences": {},
                "object": "0x608060405234801561001057600080fd5b50611d1c806100206000396000f3fe608060405234801561001057600080fd5b50600436106100885760003560e01c80638171c4071161005b5780638171c407146101165780639d3fa4b914610136578063c662178c14610156578063e9a8e4421461016b57610088565b806339b085ad1461008d5780633b77ebae146100b657806360704108146100d65780637e1f2bb8146100f6575b600080fd5b6100a061009b3660046112c2565b61017e565b6040516100ad919061187c565b60405180910390f35b6100c96100c4366004611546565b610333565b6040516100ad91906119e8565b6100e96100e436600461142a565b610986565b6040516100ad91906117a5565b6101096101043660046115bb565b6109ba565b6040516100ad9190611823565b6101296101243660046113a4565b610a5c565b6040516100ad91906118b4565b61014961014436600461150c565b610a95565b6040516100ad919061195a565b61016961016436600461146a565b610b1a565b005b6100a06101793660046112c2565b610bab565b606083516040519080825280602002602001820160405280156101ab578160200160208202803883390190505b50905060005b8451811461032b57600060603073ffffffffffffffffffffffffffffffffffffffff1662030d40633b77ebae60e01b8986815181106101ec57fe5b602002602001015189878151811061020057fe5b60200260200101518960405160240161021b9392919061199c565b604080517fffffffffffffffffffffffffffffffffffffffffffffffffffffffffffffffe08184030181529181526020820180517bffffffffffffffffffffffffffffffffffffffffffffffffffffffff167fffffffff000000000000000000000000000000000000000000000000000000009094169390931790925290516102a49190611760565b6000604051808303818686fa925050503d80600081146102e0576040519150601f19603f3d011682016040523d82523d6000602084013e6102e5565b606091505b5091509150816102f657600061030a565b8080602001905161030a91908101906115d3565b84848151811061031657fe5b602090810291909101015250506001016101b1565b509392505050565b600082516000148061034757506080840151155b80610354575060a0840151155b156103615750600061097f565b61036961102c565b6040517f9d3fa4b900000000000000000000000000000000000000000000000000000000815273ffffffffffffffffffffffffffffffffffffffff841690639d3fa4b9906103bb908890600401611989565b60606040518083038186803b1580156103d357600080fd5b505afa1580156103e7573d6000803e3d6000fd5b505050506040513d601f19601f8201168201806040525061040b91908101906114c4565b905060038151600681111561041c57fe5b1461042b57600091505061097f565b602081015185516040517f8171c40700000000000000000000000000000000000000000000000000000000815273ffffffffffffffffffffffffffffffffffffffff861692638171c407926104849289906004016118bf565b60206040518083038186803b15801561049c57600080fd5b505afa1580156104b0573d6000803e3d6000fd5b505050506040513d601f19601f820116820180604052506104d49190810190611384565b6104e257600091505061097f565b6040517f6070410800000000000000000000000000000000000000000000000000000000815260009073ffffffffffffffffffffffffffffffffffffffff851690636070410890610557907ff47261b000000000000000000000000000000000000000000000000000000000906004016118fd565b60206040518083038186803b15801561056f57600080fd5b505afa158015610583573d6000803e3d6000fd5b505050506040513d601f19601f820116820180604052506105a791908101906112a6565b905060006105b9876101400151610c4e565b905073ffffffffffffffffffffffffffffffffffffffff81166105e2576000935050505061097f565b6000808860c00151116105f6576000610604565b610604886101800151610c4e565b9050600061062385604001518a60a00151610ce990919063ffffffff16565b9050809550600061068e828b60a001518673ffffffffffffffffffffffffffffffffffffffff168673ffffffffffffffffffffffffffffffffffffffff1614610670578c60800151610689565b60c08d015160808e01516106899163ffffffff610d0d16565b610d29565b8a516040517f70a082310000000000000000000000000000000000000000000000000000000081529192506000916107e49173ffffffffffffffffffffffffffffffffffffffff8816916370a08231916106ea916004016117a5565b60206040518083038186803b15801561070257600080fd5b505afa158015610716573d6000803e3d6000fd5b505050506040513d601f19601f8201168201806040525061073a91908101906115d3565b8c516040517fdd62ed3e00000000000000000000000000000000000000000000000000000000815273ffffffffffffffffffffffffffffffffffffffff89169163dd62ed3e9161078f91908c906004016117c6565b60206040518083038186803b1580156107a757600080fd5b505afa1580156107bb573d6000803e3d6000fd5b505050506040513d601f19601f820116820180604052506107df91908101906115d3565b610d71565b9050818110156107fc576107f9818385610d87565b97505b8473ffffffffffffffffffffffffffffffffffffffff168473ffffffffffffffffffffffffffffffffffffffff161415801561084d575073ffffffffffffffffffffffffffffffffffffffff841615155b15610977578a516040517f70a082310000000000000000000000000000000000000000000000000000000081526000916109519173ffffffffffffffffffffffffffffffffffffffff8816916370a08231916108ac91906004016117a5565b60206040518083038186803b1580156108c457600080fd5b505afa1580156108d8573d6000803e3d6000fd5b505050506040513d601f19601f820116820180604052506108fc91908101906115d3565b8d516040517fdd62ed3e00000000000000000000000000000000000000000000000000000000815273ffffffffffffffffffffffffffffffffffffffff89169163dd62ed3e9161078f91908d906004016117c6565b90508b60c0015181101561097557610972896107df838f60c0015188610d87565b98505b505b505050505050505b9392505050565b60008160405160200161099991906118fd565b6040516020818303038152906040528051906020012060001c90505b919050565b6060816040519080825280602002602001820160405280156109e6578160200160208202803883390190505b50905060005b82811015610a5657604051610a009061104e565b604051809103906000f080158015610a1c573d6000803e3d6000fd5b50828281518110610a2957fe5b73ffffffffffffffffffffffffffffffffffffffff909216602092830291909101909101526001016109ec565b50919050565b6000604051610a6a9061177c565b60405180910390208383604051610a82929190611750565b6040518091039020149050949350505050565b610a9d61102c565b816101200135604051602001610ab391906119e8565b604080517fffffffffffffffffffffffffffffffffffffffffffffffffffffffffffffffe081840301815291905280516020918201209082015260ff61012083013581161415610b065760058152610b0b565b600381525b61010090910135604082015290565b6040517f3c9dc74d00000000000000000000000000000000000000000000000000000000815273ffffffffffffffffffffffffffffffffffffffff861690633c9dc74d90610b729087908790879087906004016117ed565b600060405180830381600087803b158015610b8c57600080fd5b505af1158015610ba0573d6000803e3d6000fd5b505050505050505050565b6060610bb884848461017e565b905060005b845181101561032b57818181518110610bd257fe5b6020026020010151600014610c4657610c2d828281518110610bf057fe5b6020026020010151868381518110610c0457fe5b602002602001015160a00151878481518110610c1c57fe5b602002602001015160800151610d87565b828281518110610c3957fe5b6020026020010181815250505b600101610bbd565b6000815160001415610c62575060006109b5565b81516024141580610cc557507ff47261b000000000000000000000000000000000000000000000000000000000610ca083600063ffffffff610dbd16565b7fffffffff000000000000000000000000000000000000000000000000000000001614155b15610cd2575060006109b5565b610ce382601063ffffffff610e0916565b92915050565b600082821115610d0757610d07610d0260028585610e49565b610eee565b50900390565b60008282018381101561097f5761097f610d0260008686610e49565b6000610d36848484610ef6565b15610d4957610d49610d02858585610f5c565b610d6983610d5d868563ffffffff610f7b16565b9063ffffffff610fac16565b949350505050565b6000818310610d80578161097f565b5090919050565b6000610d6983610d5d610da182600163ffffffff610ce916565b610db1888763ffffffff610f7b16565b9063ffffffff610d0d16565b60008160040183511015610dde57610dde610d026003855185600401610fd6565b5001602001517fffffffff000000000000000000000000000000000000000000000000000000001690565b60008160140183511015610e2a57610e2a610d026004855185601401610fd6565b50016014015173ffffffffffffffffffffffffffffffffffffffff1690565b606063e946c1bb60e01b848484604051602401610e689392919061192a565b604080517fffffffffffffffffffffffffffffffffffffffffffffffffffffffffffffffe08184030181529190526020810180517bffffffffffffffffffffffffffffffffffffffffffffffffffffffff167fffffffff000000000000000000000000000000000000000000000000000000009093169290921790915290509392505050565b805160208201fd5b600082610f0857610f08610d02610ff5565b811580610f13575083155b15610f205750600061097f565b60008380610f2a57fe5b8584099050610f3f858463ffffffff610f7b16565b610f51826103e863ffffffff610f7b16565b101595945050505050565b606063339f3de260e01b848484604051602401610e68939291906119f1565b600082610f8a57506000610ce3565b82820282848281610f9757fe5b041461097f5761097f610d0260018686610e49565b600081610fc257610fc2610d0260038585610e49565b6000828481610fcd57fe5b04949350505050565b6060632800659560e01b848484604051602401610e689392919061194c565b60408051808201909152600481527fa791837c00000000000000000000000000000000000000000000000000000000602082015290565b6040805160608101909152806000815260006020820181905260409091015290565b61023680611aa483390190565b8035610ce381611a7e565b600082601f830112611076578081fd5b813561108961108482611a2e565b611a07565b8181529150602080830190840160005b838110156110c6576110b187602084358901016110d0565b83526020928301929190910190600101611099565b5050505092915050565b600082601f8301126110e0578081fd5b813567ffffffffffffffff8111156110f6578182fd5b61112760207fffffffffffffffffffffffffffffffffffffffffffffffffffffffffffffffe0601f84011601611a07565b915080825283602082850101111561113e57600080fd5b8060208401602084013760009082016020015292915050565b60006101c080838503121561116a578182fd5b61117381611a07565b915050611180838361105b565b815261118f836020840161105b565b60208201526111a1836040840161105b565b60408201526111b3836060840161105b565b60608201526080820135608082015260a082013560a082015260c082013560c082015260e082013560e08201526101008083013581830152506101208083013581830152506101408083013567ffffffffffffffff8082111561121557600080fd5b611221868387016110d0565b8385015261016092508285013591508082111561123d57600080fd5b611249868387016110d0565b8385015261018092508285013591508082111561126557600080fd5b611271868387016110d0565b838501526101a092508285013591508082111561128d57600080fd5b5061129a858286016110d0565b82840152505092915050565b6000602082840312156112b7578081fd5b815161097f81611a7e565b6000806000606084860312156112d6578182fd5b833567ffffffffffffffff808211156112ed578384fd5b81860187601f8201126112fe578485fd5b8035925061130e61108484611a2e565b83815260208082019190838101885b87811015611346576113348d848435890101611157565b8552938201939082019060010161131d565b5091985089013594505050508082111561135e578384fd5b5061136b86828701611066565b92505061137b856040860161105b565b90509250925092565b600060208284031215611395578081fd5b8151801515811461097f578182fd5b600080600080606085870312156113b9578182fd5b8435935060208501356113cb81611a7e565b9250604085013567ffffffffffffffff808211156113e7578384fd5b81870188601f8201126113f8578485fd5b8035925081831115611408578485fd5b886020848301011115611419578485fd5b959894975050602090940194505050565b60006020828403121561143b578081fd5b81357fffffffff000000000000000000000000000000000000000000000000000000008116811461097f578182fd5b600080600080600060a08688031215611481578283fd5b853561148c81611a7e565b9450602086013561149c81611a7e565b935060408601356114ac81611a7e565b94979396509394606081013594506080013592915050565b6000606082840312156114d5578081fd5b6114df6060611a07565b8251600781106114ed578283fd5b8152602083810151908201526040928301519281019290925250919050565b60006020828403121561151d578081fd5b813567ffffffffffffffff811115611533578182fd5b8083016101c08186031215610d69578283fd5b60008060006060848603121561155a578081fd5b833567ffffffffffffffff80821115611571578283fd5b61157d87838801611157565b94506020860135915080821115611592578283fd5b5061159f868287016110d0565b92505060408401356115b081611a7e565b809150509250925092565b6000602082840312156115cc578081fd5b5035919050565b6000602082840312156115e4578081fd5b5051919050565b73ffffffffffffffffffffffffffffffffffffffff169052565b6000815180845261161d816020860160208601611a4e565b601f017fffffffffffffffffffffffffffffffffffffffffffffffffffffffffffffffe0169290920160200192915050565b60006101c061165f8484516115eb565b602083015161167160208601826115eb565b50604083015161168460408601826115eb565b50606083015161169760608601826115eb565b506080830151608085015260a083015160a085015260c083015160c085015260e083015160e08501526101008084015181860152506101208084015181860152506101408084015182828701526116f083870182611605565b9150506101609150818401518582038387015261170d8282611605565b9250505061018080840151858303828701526117298382611605565b9150506101a0915081840151858203838701526117468282611605565b9695505050505050565b6000828483379101908152919050565b60008251611772818460208701611a4e565b9190910192915050565b7f0100000000000000000000000000000000000000000000000000000000000000815260010190565b73ffffffffffffffffffffffffffffffffffffffff91909116815260200190565b73ffffffffffffffffffffffffffffffffffffffff92831681529116602082015260400190565b73ffffffffffffffffffffffffffffffffffffffff94851681529290931660208301526040820152606081019190915260800190565b602080825282518282018190526000918401906040840190835b8181101561187157835173ffffffffffffffffffffffffffffffffffffffff1683526020938401939092019160010161183d565b509095945050505050565b602080825282518282018190526000918401906040840190835b81811015611871578351835260209384019390920191600101611896565b901515815260200190565b600084825273ffffffffffffffffffffffffffffffffffffffff84166020830152606060408301526118f46060830184611605565b95945050505050565b7fffffffff0000000000000000000000000000000000000000000000000000000091909116815260200190565b606081016004851061193857fe5b938152602081019290925260409091015290565b606081016008851061193857fe5b815160608201906007811061196b57fe5b80835250602083015160208301526040830151604083015292915050565b60006020825261097f602083018461164f565b6000606082526119af606083018661164f565b82810360208401526119c18186611605565b91505073ffffffffffffffffffffffffffffffffffffffff83166040830152949350505050565b90815260200190565b9283526020830191909152604082015260600190565b60405181810167ffffffffffffffff81118282101715611a2657600080fd5b604052919050565b600067ffffffffffffffff821115611a44578081fd5b5060209081020190565b60005b83811015611a69578181015183820152602001611a51565b83811115611a78576000848401525b50505050565b73ffffffffffffffffffffffffffffffffffffffff81168114611aa057600080fd5b5056fe608060405234801561001057600080fd5b50610216806100206000396000f3fe608060405234801561001057600080fd5b50600436106100415760003560e01c80633c9dc74d1461004657806370a082311461005b578063dd62ed3e14610084575b600080fd5b610059610054366004610187565b610097565b005b61006e610069366004610131565b6100d8565b60405161007b91906101ca565b60405180910390f35b61006e610092366004610153565b6100ea565b73ffffffffffffffffffffffffffffffffffffffff938416600090815260208181526040808320949094556001815283822094909516815292909352902055565b60006020819052908152604090205481565b600160209081526000928352604080842090915290825290205481565b803573ffffffffffffffffffffffffffffffffffffffff8116811461012b57600080fd5b92915050565b600060208284031215610142578081fd5b61014c8383610107565b9392505050565b60008060408385031215610165578081fd5b61016f8484610107565b915061017e8460208501610107565b90509250929050565b6000806000806080858703121561019c578182fd5b6101a68686610107565b93506101b58660208701610107565b93969395505050506040820135916060013590565b9081526020019056fea365627a7a72315820f11ed58753252a6cbc64045dd41bb3544201388e9451fa8893ead4e25b5a17656c6578706572696d656e74616cf564736f6c63430005110040a365627a7a72315820e1785d3d48242b9583372fa25b4c6703a53ea6cbc34290c01de226febc9352726c6578706572696d656e74616cf564736f6c63430005110040",
                "opcodes": "PUSH1 0x80 PUSH1 0x40 MSTORE CALLVALUE DUP1 ISZERO PUSH2 0x10 JUMPI PUSH1 0x0 DUP1 REVERT JUMPDEST POP PUSH2 0x1D1C DUP1 PUSH2 0x20 PUSH1 0x0 CODECOPY PUSH1 0x0 RETURN INVALID PUSH1 0x80 PUSH1 0x40 MSTORE CALLVALUE DUP1 ISZERO PUSH2 0x10 JUMPI PUSH1 0x0 DUP1 REVERT JUMPDEST POP PUSH1 0x4 CALLDATASIZE LT PUSH2 0x88 JUMPI PUSH1 0x0 CALLDATALOAD PUSH1 0xE0 SHR DUP1 PUSH4 0x8171C407 GT PUSH2 0x5B JUMPI DUP1 PUSH4 0x8171C407 EQ PUSH2 0x116 JUMPI DUP1 PUSH4 0x9D3FA4B9 EQ PUSH2 0x136 JUMPI DUP1 PUSH4 0xC662178C EQ PUSH2 0x156 JUMPI DUP1 PUSH4 0xE9A8E442 EQ PUSH2 0x16B JUMPI PUSH2 0x88 JUMP JUMPDEST DUP1 PUSH4 0x39B085AD EQ PUSH2 0x8D JUMPI DUP1 PUSH4 0x3B77EBAE EQ PUSH2 0xB6 JUMPI DUP1 PUSH4 0x60704108 EQ PUSH2 0xD6 JUMPI DUP1 PUSH4 0x7E1F2BB8 EQ PUSH2 0xF6 JUMPI JUMPDEST PUSH1 0x0 DUP1 REVERT JUMPDEST PUSH2 0xA0 PUSH2 0x9B CALLDATASIZE PUSH1 0x4 PUSH2 0x12C2 JUMP JUMPDEST PUSH2 0x17E JUMP JUMPDEST PUSH1 0x40 MLOAD PUSH2 0xAD SWAP2 SWAP1 PUSH2 0x187C JUMP JUMPDEST PUSH1 0x40 MLOAD DUP1 SWAP2 SUB SWAP1 RETURN JUMPDEST PUSH2 0xC9 PUSH2 0xC4 CALLDATASIZE PUSH1 0x4 PUSH2 0x1546 JUMP JUMPDEST PUSH2 0x333 JUMP JUMPDEST PUSH1 0x40 MLOAD PUSH2 0xAD SWAP2 SWAP1 PUSH2 0x19E8 JUMP JUMPDEST PUSH2 0xE9 PUSH2 0xE4 CALLDATASIZE PUSH1 0x4 PUSH2 0x142A JUMP JUMPDEST PUSH2 0x986 JUMP JUMPDEST PUSH1 0x40 MLOAD PUSH2 0xAD SWAP2 SWAP1 PUSH2 0x17A5 JUMP JUMPDEST PUSH2 0x109 PUSH2 0x104 CALLDATASIZE PUSH1 0x4 PUSH2 0x15BB JUMP JUMPDEST PUSH2 0x9BA JUMP JUMPDEST PUSH1 0x40 MLOAD PUSH2 0xAD SWAP2 SWAP1 PUSH2 0x1823 JUMP JUMPDEST PUSH2 0x129 PUSH2 0x124 CALLDATASIZE PUSH1 0x4 PUSH2 0x13A4 JUMP JUMPDEST PUSH2 0xA5C JUMP JUMPDEST PUSH1 0x40 MLOAD PUSH2 0xAD SWAP2 SWAP1 PUSH2 0x18B4 JUMP JUMPDEST PUSH2 0x149 PUSH2 0x144 CALLDATASIZE PUSH1 0x4 PUSH2 0x150C JUMP JUMPDEST PUSH2 0xA95 JUMP JUMPDEST PUSH1 0x40 MLOAD PUSH2 0xAD SWAP2 SWAP1 PUSH2 0x195A JUMP JUMPDEST PUSH2 0x169 PUSH2 0x164 CALLDATASIZE PUSH1 0x4 PUSH2 0x146A JUMP JUMPDEST PUSH2 0xB1A JUMP JUMPDEST STOP JUMPDEST PUSH2 0xA0 PUSH2 0x179 CALLDATASIZE PUSH1 0x4 PUSH2 0x12C2 JUMP JUMPDEST PUSH2 0xBAB JUMP JUMPDEST PUSH1 0x60 DUP4 MLOAD PUSH1 0x40 MLOAD SWAP1 DUP1 DUP3 MSTORE DUP1 PUSH1 0x20 MUL PUSH1 0x20 ADD DUP3 ADD PUSH1 0x40 MSTORE DUP1 ISZERO PUSH2 0x1AB JUMPI DUP2 PUSH1 0x20 ADD PUSH1 0x20 DUP3 MUL DUP1 CODESIZE DUP4 CODECOPY ADD SWAP1 POP JUMPDEST POP SWAP1 POP PUSH1 0x0 JUMPDEST DUP5 MLOAD DUP2 EQ PUSH2 0x32B JUMPI PUSH1 0x0 PUSH1 0x60 ADDRESS PUSH20 0xFFFFFFFFFFFFFFFFFFFFFFFFFFFFFFFFFFFFFFFF AND PUSH3 0x30D40 PUSH4 0x3B77EBAE PUSH1 0xE0 SHL DUP10 DUP7 DUP2 MLOAD DUP2 LT PUSH2 0x1EC JUMPI INVALID JUMPDEST PUSH1 0x20 MUL PUSH1 0x20 ADD ADD MLOAD DUP10 DUP8 DUP2 MLOAD DUP2 LT PUSH2 0x200 JUMPI INVALID JUMPDEST PUSH1 0x20 MUL PUSH1 0x20 ADD ADD MLOAD DUP10 PUSH1 0x40 MLOAD PUSH1 0x24 ADD PUSH2 0x21B SWAP4 SWAP3 SWAP2 SWAP1 PUSH2 0x199C JUMP JUMPDEST PUSH1 0x40 DUP1 MLOAD PUSH32 0xFFFFFFFFFFFFFFFFFFFFFFFFFFFFFFFFFFFFFFFFFFFFFFFFFFFFFFFFFFFFFFE0 DUP2 DUP5 SUB ADD DUP2 MSTORE SWAP2 DUP2 MSTORE PUSH1 0x20 DUP3 ADD DUP1 MLOAD PUSH28 0xFFFFFFFFFFFFFFFFFFFFFFFFFFFFFFFFFFFFFFFFFFFFFFFFFFFFFFFF AND PUSH32 0xFFFFFFFF00000000000000000000000000000000000000000000000000000000 SWAP1 SWAP5 AND SWAP4 SWAP1 SWAP4 OR SWAP1 SWAP3 MSTORE SWAP1 MLOAD PUSH2 0x2A4 SWAP2 SWAP1 PUSH2 0x1760 JUMP JUMPDEST PUSH1 0x0 PUSH1 0x40 MLOAD DUP1 DUP4 SUB DUP2 DUP7 DUP7 STATICCALL SWAP3 POP POP POP RETURNDATASIZE DUP1 PUSH1 0x0 DUP2 EQ PUSH2 0x2E0 JUMPI PUSH1 0x40 MLOAD SWAP2 POP PUSH1 0x1F NOT PUSH1 0x3F RETURNDATASIZE ADD AND DUP3 ADD PUSH1 0x40 MSTORE RETURNDATASIZE DUP3 MSTORE RETURNDATASIZE PUSH1 0x0 PUSH1 0x20 DUP5 ADD RETURNDATACOPY PUSH2 0x2E5 JUMP JUMPDEST PUSH1 0x60 SWAP2 POP JUMPDEST POP SWAP2 POP SWAP2 POP DUP2 PUSH2 0x2F6 JUMPI PUSH1 0x0 PUSH2 0x30A JUMP JUMPDEST DUP1 DUP1 PUSH1 0x20 ADD SWAP1 MLOAD PUSH2 0x30A SWAP2 SWAP1 DUP2 ADD SWAP1 PUSH2 0x15D3 JUMP JUMPDEST DUP5 DUP5 DUP2 MLOAD DUP2 LT PUSH2 0x316 JUMPI INVALID JUMPDEST PUSH1 0x20 SWAP1 DUP2 MUL SWAP2 SWAP1 SWAP2 ADD ADD MSTORE POP POP PUSH1 0x1 ADD PUSH2 0x1B1 JUMP JUMPDEST POP SWAP4 SWAP3 POP POP POP JUMP JUMPDEST PUSH1 0x0 DUP3 MLOAD PUSH1 0x0 EQ DUP1 PUSH2 0x347 JUMPI POP PUSH1 0x80 DUP5 ADD MLOAD ISZERO JUMPDEST DUP1 PUSH2 0x354 JUMPI POP PUSH1 0xA0 DUP5 ADD MLOAD ISZERO JUMPDEST ISZERO PUSH2 0x361 JUMPI POP PUSH1 0x0 PUSH2 0x97F JUMP JUMPDEST PUSH2 0x369 PUSH2 0x102C JUMP JUMPDEST PUSH1 0x40 MLOAD PUSH32 0x9D3FA4B900000000000000000000000000000000000000000000000000000000 DUP2 MSTORE PUSH20 0xFFFFFFFFFFFFFFFFFFFFFFFFFFFFFFFFFFFFFFFF DUP5 AND SWAP1 PUSH4 0x9D3FA4B9 SWAP1 PUSH2 0x3BB SWAP1 DUP9 SWAP1 PUSH1 0x4 ADD PUSH2 0x1989 JUMP JUMPDEST PUSH1 0x60 PUSH1 0x40 MLOAD DUP1 DUP4 SUB DUP2 DUP7 DUP1 EXTCODESIZE ISZERO DUP1 ISZERO PUSH2 0x3D3 JUMPI PUSH1 0x0 DUP1 REVERT JUMPDEST POP GAS STATICCALL ISZERO DUP1 ISZERO PUSH2 0x3E7 JUMPI RETURNDATASIZE PUSH1 0x0 DUP1 RETURNDATACOPY RETURNDATASIZE PUSH1 0x0 REVERT JUMPDEST POP POP POP POP PUSH1 0x40 MLOAD RETURNDATASIZE PUSH1 0x1F NOT PUSH1 0x1F DUP3 ADD AND DUP3 ADD DUP1 PUSH1 0x40 MSTORE POP PUSH2 0x40B SWAP2 SWAP1 DUP2 ADD SWAP1 PUSH2 0x14C4 JUMP JUMPDEST SWAP1 POP PUSH1 0x3 DUP2 MLOAD PUSH1 0x6 DUP2 GT ISZERO PUSH2 0x41C JUMPI INVALID JUMPDEST EQ PUSH2 0x42B JUMPI PUSH1 0x0 SWAP2 POP POP PUSH2 0x97F JUMP JUMPDEST PUSH1 0x20 DUP2 ADD MLOAD DUP6 MLOAD PUSH1 0x40 MLOAD PUSH32 0x8171C40700000000000000000000000000000000000000000000000000000000 DUP2 MSTORE PUSH20 0xFFFFFFFFFFFFFFFFFFFFFFFFFFFFFFFFFFFFFFFF DUP7 AND SWAP3 PUSH4 0x8171C407 SWAP3 PUSH2 0x484 SWAP3 DUP10 SWAP1 PUSH1 0x4 ADD PUSH2 0x18BF JUMP JUMPDEST PUSH1 0x20 PUSH1 0x40 MLOAD DUP1 DUP4 SUB DUP2 DUP7 DUP1 EXTCODESIZE ISZERO DUP1 ISZERO PUSH2 0x49C JUMPI PUSH1 0x0 DUP1 REVERT JUMPDEST POP GAS STATICCALL ISZERO DUP1 ISZERO PUSH2 0x4B0 JUMPI RETURNDATASIZE PUSH1 0x0 DUP1 RETURNDATACOPY RETURNDATASIZE PUSH1 0x0 REVERT JUMPDEST POP POP POP POP PUSH1 0x40 MLOAD RETURNDATASIZE PUSH1 0x1F NOT PUSH1 0x1F DUP3 ADD AND DUP3 ADD DUP1 PUSH1 0x40 MSTORE POP PUSH2 0x4D4 SWAP2 SWAP1 DUP2 ADD SWAP1 PUSH2 0x1384 JUMP JUMPDEST PUSH2 0x4E2 JUMPI PUSH1 0x0 SWAP2 POP POP PUSH2 0x97F JUMP JUMPDEST PUSH1 0x40 MLOAD PUSH32 0x6070410800000000000000000000000000000000000000000000000000000000 DUP2 MSTORE PUSH1 0x0 SWAP1 PUSH20 0xFFFFFFFFFFFFFFFFFFFFFFFFFFFFFFFFFFFFFFFF DUP6 AND SWAP1 PUSH4 0x60704108 SWAP1 PUSH2 0x557 SWAP1 PUSH32 0xF47261B000000000000000000000000000000000000000000000000000000000 SWAP1 PUSH1 0x4 ADD PUSH2 0x18FD JUMP JUMPDEST PUSH1 0x20 PUSH1 0x40 MLOAD DUP1 DUP4 SUB DUP2 DUP7 DUP1 EXTCODESIZE ISZERO DUP1 ISZERO PUSH2 0x56F JUMPI PUSH1 0x0 DUP1 REVERT JUMPDEST POP GAS STATICCALL ISZERO DUP1 ISZERO PUSH2 0x583 JUMPI RETURNDATASIZE PUSH1 0x0 DUP1 RETURNDATACOPY RETURNDATASIZE PUSH1 0x0 REVERT JUMPDEST POP POP POP POP PUSH1 0x40 MLOAD RETURNDATASIZE PUSH1 0x1F NOT PUSH1 0x1F DUP3 ADD AND DUP3 ADD DUP1 PUSH1 0x40 MSTORE POP PUSH2 0x5A7 SWAP2 SWAP1 DUP2 ADD SWAP1 PUSH2 0x12A6 JUMP JUMPDEST SWAP1 POP PUSH1 0x0 PUSH2 0x5B9 DUP8 PUSH2 0x140 ADD MLOAD PUSH2 0xC4E JUMP JUMPDEST SWAP1 POP PUSH20 0xFFFFFFFFFFFFFFFFFFFFFFFFFFFFFFFFFFFFFFFF DUP2 AND PUSH2 0x5E2 JUMPI PUSH1 0x0 SWAP4 POP POP POP POP PUSH2 0x97F JUMP JUMPDEST PUSH1 0x0 DUP1 DUP9 PUSH1 0xC0 ADD MLOAD GT PUSH2 0x5F6 JUMPI PUSH1 0x0 PUSH2 0x604 JUMP JUMPDEST PUSH2 0x604 DUP9 PUSH2 0x180 ADD MLOAD PUSH2 0xC4E JUMP JUMPDEST SWAP1 POP PUSH1 0x0 PUSH2 0x623 DUP6 PUSH1 0x40 ADD MLOAD DUP11 PUSH1 0xA0 ADD MLOAD PUSH2 0xCE9 SWAP1 SWAP2 SWAP1 PUSH4 0xFFFFFFFF AND JUMP JUMPDEST SWAP1 POP DUP1 SWAP6 POP PUSH1 0x0 PUSH2 0x68E DUP3 DUP12 PUSH1 0xA0 ADD MLOAD DUP7 PUSH20 0xFFFFFFFFFFFFFFFFFFFFFFFFFFFFFFFFFFFFFFFF AND DUP7 PUSH20 0xFFFFFFFFFFFFFFFFFFFFFFFFFFFFFFFFFFFFFFFF AND EQ PUSH2 0x670 JUMPI DUP13 PUSH1 0x80 ADD MLOAD PUSH2 0x689 JUMP JUMPDEST PUSH1 0xC0 DUP14 ADD MLOAD PUSH1 0x80 DUP15 ADD MLOAD PUSH2 0x689 SWAP2 PUSH4 0xFFFFFFFF PUSH2 0xD0D AND JUMP JUMPDEST PUSH2 0xD29 JUMP JUMPDEST DUP11 MLOAD PUSH1 0x40 MLOAD PUSH32 0x70A0823100000000000000000000000000000000000000000000000000000000 DUP2 MSTORE SWAP2 SWAP3 POP PUSH1 0x0 SWAP2 PUSH2 0x7E4 SWAP2 PUSH20 0xFFFFFFFFFFFFFFFFFFFFFFFFFFFFFFFFFFFFFFFF DUP9 AND SWAP2 PUSH4 0x70A08231 SWAP2 PUSH2 0x6EA SWAP2 PUSH1 0x4 ADD PUSH2 0x17A5 JUMP JUMPDEST PUSH1 0x20 PUSH1 0x40 MLOAD DUP1 DUP4 SUB DUP2 DUP7 DUP1 EXTCODESIZE ISZERO DUP1 ISZERO PUSH2 0x702 JUMPI PUSH1 0x0 DUP1 REVERT JUMPDEST POP GAS STATICCALL ISZERO DUP1 ISZERO PUSH2 0x716 JUMPI RETURNDATASIZE PUSH1 0x0 DUP1 RETURNDATACOPY RETURNDATASIZE PUSH1 0x0 REVERT JUMPDEST POP POP POP POP PUSH1 0x40 MLOAD RETURNDATASIZE PUSH1 0x1F NOT PUSH1 0x1F DUP3 ADD AND DUP3 ADD DUP1 PUSH1 0x40 MSTORE POP PUSH2 0x73A SWAP2 SWAP1 DUP2 ADD SWAP1 PUSH2 0x15D3 JUMP JUMPDEST DUP13 MLOAD PUSH1 0x40 MLOAD PUSH32 0xDD62ED3E00000000000000000000000000000000000000000000000000000000 DUP2 MSTORE PUSH20 0xFFFFFFFFFFFFFFFFFFFFFFFFFFFFFFFFFFFFFFFF DUP10 AND SWAP2 PUSH4 0xDD62ED3E SWAP2 PUSH2 0x78F SWAP2 SWAP1 DUP13 SWAP1 PUSH1 0x4 ADD PUSH2 0x17C6 JUMP JUMPDEST PUSH1 0x20 PUSH1 0x40 MLOAD DUP1 DUP4 SUB DUP2 DUP7 DUP1 EXTCODESIZE ISZERO DUP1 ISZERO PUSH2 0x7A7 JUMPI PUSH1 0x0 DUP1 REVERT JUMPDEST POP GAS STATICCALL ISZERO DUP1 ISZERO PUSH2 0x7BB JUMPI RETURNDATASIZE PUSH1 0x0 DUP1 RETURNDATACOPY RETURNDATASIZE PUSH1 0x0 REVERT JUMPDEST POP POP POP POP PUSH1 0x40 MLOAD RETURNDATASIZE PUSH1 0x1F NOT PUSH1 0x1F DUP3 ADD AND DUP3 ADD DUP1 PUSH1 0x40 MSTORE POP PUSH2 0x7DF SWAP2 SWAP1 DUP2 ADD SWAP1 PUSH2 0x15D3 JUMP JUMPDEST PUSH2 0xD71 JUMP JUMPDEST SWAP1 POP DUP2 DUP2 LT ISZERO PUSH2 0x7FC JUMPI PUSH2 0x7F9 DUP2 DUP4 DUP6 PUSH2 0xD87 JUMP JUMPDEST SWAP8 POP JUMPDEST DUP5 PUSH20 0xFFFFFFFFFFFFFFFFFFFFFFFFFFFFFFFFFFFFFFFF AND DUP5 PUSH20 0xFFFFFFFFFFFFFFFFFFFFFFFFFFFFFFFFFFFFFFFF AND EQ ISZERO DUP1 ISZERO PUSH2 0x84D JUMPI POP PUSH20 0xFFFFFFFFFFFFFFFFFFFFFFFFFFFFFFFFFFFFFFFF DUP5 AND ISZERO ISZERO JUMPDEST ISZERO PUSH2 0x977 JUMPI DUP11 MLOAD PUSH1 0x40 MLOAD PUSH32 0x70A0823100000000000000000000000000000000000000000000000000000000 DUP2 MSTORE PUSH1 0x0 SWAP2 PUSH2 0x951 SWAP2 PUSH20 0xFFFFFFFFFFFFFFFFFFFFFFFFFFFFFFFFFFFFFFFF DUP9 AND SWAP2 PUSH4 0x70A08231 SWAP2 PUSH2 0x8AC SWAP2 SWAP1 PUSH1 0x4 ADD PUSH2 0x17A5 JUMP JUMPDEST PUSH1 0x20 PUSH1 0x40 MLOAD DUP1 DUP4 SUB DUP2 DUP7 DUP1 EXTCODESIZE ISZERO DUP1 ISZERO PUSH2 0x8C4 JUMPI PUSH1 0x0 DUP1 REVERT JUMPDEST POP GAS STATICCALL ISZERO DUP1 ISZERO PUSH2 0x8D8 JUMPI RETURNDATASIZE PUSH1 0x0 DUP1 RETURNDATACOPY RETURNDATASIZE PUSH1 0x0 REVERT JUMPDEST POP POP POP POP PUSH1 0x40 MLOAD RETURNDATASIZE PUSH1 0x1F NOT PUSH1 0x1F DUP3 ADD AND DUP3 ADD DUP1 PUSH1 0x40 MSTORE POP PUSH2 0x8FC SWAP2 SWAP1 DUP2 ADD SWAP1 PUSH2 0x15D3 JUMP JUMPDEST DUP14 MLOAD PUSH1 0x40 MLOAD PUSH32 0xDD62ED3E00000000000000000000000000000000000000000000000000000000 DUP2 MSTORE PUSH20 0xFFFFFFFFFFFFFFFFFFFFFFFFFFFFFFFFFFFFFFFF DUP10 AND SWAP2 PUSH4 0xDD62ED3E SWAP2 PUSH2 0x78F SWAP2 SWAP1 DUP14 SWAP1 PUSH1 0x4 ADD PUSH2 0x17C6 JUMP JUMPDEST SWAP1 POP DUP12 PUSH1 0xC0 ADD MLOAD DUP2 LT ISZERO PUSH2 0x975 JUMPI PUSH2 0x972 DUP10 PUSH2 0x7DF DUP4 DUP16 PUSH1 0xC0 ADD MLOAD DUP9 PUSH2 0xD87 JUMP JUMPDEST SWAP9 POP JUMPDEST POP JUMPDEST POP POP POP POP POP POP POP JUMPDEST SWAP4 SWAP3 POP POP POP JUMP JUMPDEST PUSH1 0x0 DUP2 PUSH1 0x40 MLOAD PUSH1 0x20 ADD PUSH2 0x999 SWAP2 SWAP1 PUSH2 0x18FD JUMP JUMPDEST PUSH1 0x40 MLOAD PUSH1 0x20 DUP2 DUP4 SUB SUB DUP2 MSTORE SWAP1 PUSH1 0x40 MSTORE DUP1 MLOAD SWAP1 PUSH1 0x20 ADD KECCAK256 PUSH1 0x0 SHR SWAP1 POP JUMPDEST SWAP2 SWAP1 POP JUMP JUMPDEST PUSH1 0x60 DUP2 PUSH1 0x40 MLOAD SWAP1 DUP1 DUP3 MSTORE DUP1 PUSH1 0x20 MUL PUSH1 0x20 ADD DUP3 ADD PUSH1 0x40 MSTORE DUP1 ISZERO PUSH2 0x9E6 JUMPI DUP2 PUSH1 0x20 ADD PUSH1 0x20 DUP3 MUL DUP1 CODESIZE DUP4 CODECOPY ADD SWAP1 POP JUMPDEST POP SWAP1 POP PUSH1 0x0 JUMPDEST DUP3 DUP2 LT ISZERO PUSH2 0xA56 JUMPI PUSH1 0x40 MLOAD PUSH2 0xA00 SWAP1 PUSH2 0x104E JUMP JUMPDEST PUSH1 0x40 MLOAD DUP1 SWAP2 SUB SWAP1 PUSH1 0x0 CREATE DUP1 ISZERO DUP1 ISZERO PUSH2 0xA1C JUMPI RETURNDATASIZE PUSH1 0x0 DUP1 RETURNDATACOPY RETURNDATASIZE PUSH1 0x0 REVERT JUMPDEST POP DUP3 DUP3 DUP2 MLOAD DUP2 LT PUSH2 0xA29 JUMPI INVALID JUMPDEST PUSH20 0xFFFFFFFFFFFFFFFFFFFFFFFFFFFFFFFFFFFFFFFF SWAP1 SWAP3 AND PUSH1 0x20 SWAP3 DUP4 MUL SWAP2 SWAP1 SWAP2 ADD SWAP1 SWAP2 ADD MSTORE PUSH1 0x1 ADD PUSH2 0x9EC JUMP JUMPDEST POP SWAP2 SWAP1 POP JUMP JUMPDEST PUSH1 0x0 PUSH1 0x40 MLOAD PUSH2 0xA6A SWAP1 PUSH2 0x177C JUMP JUMPDEST PUSH1 0x40 MLOAD DUP1 SWAP2 SUB SWAP1 KECCAK256 DUP4 DUP4 PUSH1 0x40 MLOAD PUSH2 0xA82 SWAP3 SWAP2 SWAP1 PUSH2 0x1750 JUMP JUMPDEST PUSH1 0x40 MLOAD DUP1 SWAP2 SUB SWAP1 KECCAK256 EQ SWAP1 POP SWAP5 SWAP4 POP POP POP POP JUMP JUMPDEST PUSH2 0xA9D PUSH2 0x102C JUMP JUMPDEST DUP2 PUSH2 0x120 ADD CALLDATALOAD PUSH1 0x40 MLOAD PUSH1 0x20 ADD PUSH2 0xAB3 SWAP2 SWAP1 PUSH2 0x19E8 JUMP JUMPDEST PUSH1 0x40 DUP1 MLOAD PUSH32 0xFFFFFFFFFFFFFFFFFFFFFFFFFFFFFFFFFFFFFFFFFFFFFFFFFFFFFFFFFFFFFFE0 DUP2 DUP5 SUB ADD DUP2 MSTORE SWAP2 SWAP1 MSTORE DUP1 MLOAD PUSH1 0x20 SWAP2 DUP3 ADD KECCAK256 SWAP1 DUP3 ADD MSTORE PUSH1 0xFF PUSH2 0x120 DUP4 ADD CALLDATALOAD DUP2 AND EQ ISZERO PUSH2 0xB06 JUMPI PUSH1 0x5 DUP2 MSTORE PUSH2 0xB0B JUMP JUMPDEST PUSH1 0x3 DUP2 MSTORE JUMPDEST PUSH2 0x100 SWAP1 SWAP2 ADD CALLDATALOAD PUSH1 0x40 DUP3 ADD MSTORE SWAP1 JUMP JUMPDEST PUSH1 0x40 MLOAD PUSH32 0x3C9DC74D00000000000000000000000000000000000000000000000000000000 DUP2 MSTORE PUSH20 0xFFFFFFFFFFFFFFFFFFFFFFFFFFFFFFFFFFFFFFFF DUP7 AND SWAP1 PUSH4 0x3C9DC74D SWAP1 PUSH2 0xB72 SWAP1 DUP8 SWAP1 DUP8 SWAP1 DUP8 SWAP1 DUP8 SWAP1 PUSH1 0x4 ADD PUSH2 0x17ED JUMP JUMPDEST PUSH1 0x0 PUSH1 0x40 MLOAD DUP1 DUP4 SUB DUP2 PUSH1 0x0 DUP8 DUP1 EXTCODESIZE ISZERO DUP1 ISZERO PUSH2 0xB8C JUMPI PUSH1 0x0 DUP1 REVERT JUMPDEST POP GAS CALL ISZERO DUP1 ISZERO PUSH2 0xBA0 JUMPI RETURNDATASIZE PUSH1 0x0 DUP1 RETURNDATACOPY RETURNDATASIZE PUSH1 0x0 REVERT JUMPDEST POP POP POP POP POP POP POP POP POP JUMP JUMPDEST PUSH1 0x60 PUSH2 0xBB8 DUP5 DUP5 DUP5 PUSH2 0x17E JUMP JUMPDEST SWAP1 POP PUSH1 0x0 JUMPDEST DUP5 MLOAD DUP2 LT ISZERO PUSH2 0x32B JUMPI DUP2 DUP2 DUP2 MLOAD DUP2 LT PUSH2 0xBD2 JUMPI INVALID JUMPDEST PUSH1 0x20 MUL PUSH1 0x20 ADD ADD MLOAD PUSH1 0x0 EQ PUSH2 0xC46 JUMPI PUSH2 0xC2D DUP3 DUP3 DUP2 MLOAD DUP2 LT PUSH2 0xBF0 JUMPI INVALID JUMPDEST PUSH1 0x20 MUL PUSH1 0x20 ADD ADD MLOAD DUP7 DUP4 DUP2 MLOAD DUP2 LT PUSH2 0xC04 JUMPI INVALID JUMPDEST PUSH1 0x20 MUL PUSH1 0x20 ADD ADD MLOAD PUSH1 0xA0 ADD MLOAD DUP8 DUP5 DUP2 MLOAD DUP2 LT PUSH2 0xC1C JUMPI INVALID JUMPDEST PUSH1 0x20 MUL PUSH1 0x20 ADD ADD MLOAD PUSH1 0x80 ADD MLOAD PUSH2 0xD87 JUMP JUMPDEST DUP3 DUP3 DUP2 MLOAD DUP2 LT PUSH2 0xC39 JUMPI INVALID JUMPDEST PUSH1 0x20 MUL PUSH1 0x20 ADD ADD DUP2 DUP2 MSTORE POP POP JUMPDEST PUSH1 0x1 ADD PUSH2 0xBBD JUMP JUMPDEST PUSH1 0x0 DUP2 MLOAD PUSH1 0x0 EQ ISZERO PUSH2 0xC62 JUMPI POP PUSH1 0x0 PUSH2 0x9B5 JUMP JUMPDEST DUP2 MLOAD PUSH1 0x24 EQ ISZERO DUP1 PUSH2 0xCC5 JUMPI POP PUSH32 0xF47261B000000000000000000000000000000000000000000000000000000000 PUSH2 0xCA0 DUP4 PUSH1 0x0 PUSH4 0xFFFFFFFF PUSH2 0xDBD AND JUMP JUMPDEST PUSH32 0xFFFFFFFF00000000000000000000000000000000000000000000000000000000 AND EQ ISZERO JUMPDEST ISZERO PUSH2 0xCD2 JUMPI POP PUSH1 0x0 PUSH2 0x9B5 JUMP JUMPDEST PUSH2 0xCE3 DUP3 PUSH1 0x10 PUSH4 0xFFFFFFFF PUSH2 0xE09 AND JUMP JUMPDEST SWAP3 SWAP2 POP POP JUMP JUMPDEST PUSH1 0x0 DUP3 DUP3 GT ISZERO PUSH2 0xD07 JUMPI PUSH2 0xD07 PUSH2 0xD02 PUSH1 0x2 DUP6 DUP6 PUSH2 0xE49 JUMP JUMPDEST PUSH2 0xEEE JUMP JUMPDEST POP SWAP1 SUB SWAP1 JUMP JUMPDEST PUSH1 0x0 DUP3 DUP3 ADD DUP4 DUP2 LT ISZERO PUSH2 0x97F JUMPI PUSH2 0x97F PUSH2 0xD02 PUSH1 0x0 DUP7 DUP7 PUSH2 0xE49 JUMP JUMPDEST PUSH1 0x0 PUSH2 0xD36 DUP5 DUP5 DUP5 PUSH2 0xEF6 JUMP JUMPDEST ISZERO PUSH2 0xD49 JUMPI PUSH2 0xD49 PUSH2 0xD02 DUP6 DUP6 DUP6 PUSH2 0xF5C JUMP JUMPDEST PUSH2 0xD69 DUP4 PUSH2 0xD5D DUP7 DUP6 PUSH4 0xFFFFFFFF PUSH2 0xF7B AND JUMP JUMPDEST SWAP1 PUSH4 0xFFFFFFFF PUSH2 0xFAC AND JUMP JUMPDEST SWAP5 SWAP4 POP POP POP POP JUMP JUMPDEST PUSH1 0x0 DUP2 DUP4 LT PUSH2 0xD80 JUMPI DUP2 PUSH2 0x97F JUMP JUMPDEST POP SWAP1 SWAP2 SWAP1 POP JUMP JUMPDEST PUSH1 0x0 PUSH2 0xD69 DUP4 PUSH2 0xD5D PUSH2 0xDA1 DUP3 PUSH1 0x1 PUSH4 0xFFFFFFFF PUSH2 0xCE9 AND JUMP JUMPDEST PUSH2 0xDB1 DUP9 DUP8 PUSH4 0xFFFFFFFF PUSH2 0xF7B AND JUMP JUMPDEST SWAP1 PUSH4 0xFFFFFFFF PUSH2 0xD0D AND JUMP JUMPDEST PUSH1 0x0 DUP2 PUSH1 0x4 ADD DUP4 MLOAD LT ISZERO PUSH2 0xDDE JUMPI PUSH2 0xDDE PUSH2 0xD02 PUSH1 0x3 DUP6 MLOAD DUP6 PUSH1 0x4 ADD PUSH2 0xFD6 JUMP JUMPDEST POP ADD PUSH1 0x20 ADD MLOAD PUSH32 0xFFFFFFFF00000000000000000000000000000000000000000000000000000000 AND SWAP1 JUMP JUMPDEST PUSH1 0x0 DUP2 PUSH1 0x14 ADD DUP4 MLOAD LT ISZERO PUSH2 0xE2A JUMPI PUSH2 0xE2A PUSH2 0xD02 PUSH1 0x4 DUP6 MLOAD DUP6 PUSH1 0x14 ADD PUSH2 0xFD6 JUMP JUMPDEST POP ADD PUSH1 0x14 ADD MLOAD PUSH20 0xFFFFFFFFFFFFFFFFFFFFFFFFFFFFFFFFFFFFFFFF AND SWAP1 JUMP JUMPDEST PUSH1 0x60 PUSH4 0xE946C1BB PUSH1 0xE0 SHL DUP5 DUP5 DUP5 PUSH1 0x40 MLOAD PUSH1 0x24 ADD PUSH2 0xE68 SWAP4 SWAP3 SWAP2 SWAP1 PUSH2 0x192A JUMP JUMPDEST PUSH1 0x40 DUP1 MLOAD PUSH32 0xFFFFFFFFFFFFFFFFFFFFFFFFFFFFFFFFFFFFFFFFFFFFFFFFFFFFFFFFFFFFFFE0 DUP2 DUP5 SUB ADD DUP2 MSTORE SWAP2 SWAP1 MSTORE PUSH1 0x20 DUP2 ADD DUP1 MLOAD PUSH28 0xFFFFFFFFFFFFFFFFFFFFFFFFFFFFFFFFFFFFFFFFFFFFFFFFFFFFFFFF AND PUSH32 0xFFFFFFFF00000000000000000000000000000000000000000000000000000000 SWAP1 SWAP4 AND SWAP3 SWAP1 SWAP3 OR SWAP1 SWAP2 MSTORE SWAP1 POP SWAP4 SWAP3 POP POP POP JUMP JUMPDEST DUP1 MLOAD PUSH1 0x20 DUP3 ADD REVERT JUMPDEST PUSH1 0x0 DUP3 PUSH2 0xF08 JUMPI PUSH2 0xF08 PUSH2 0xD02 PUSH2 0xFF5 JUMP JUMPDEST DUP2 ISZERO DUP1 PUSH2 0xF13 JUMPI POP DUP4 ISZERO JUMPDEST ISZERO PUSH2 0xF20 JUMPI POP PUSH1 0x0 PUSH2 0x97F JUMP JUMPDEST PUSH1 0x0 DUP4 DUP1 PUSH2 0xF2A JUMPI INVALID JUMPDEST DUP6 DUP5 MULMOD SWAP1 POP PUSH2 0xF3F DUP6 DUP5 PUSH4 0xFFFFFFFF PUSH2 0xF7B AND JUMP JUMPDEST PUSH2 0xF51 DUP3 PUSH2 0x3E8 PUSH4 0xFFFFFFFF PUSH2 0xF7B AND JUMP JUMPDEST LT ISZERO SWAP6 SWAP5 POP POP POP POP POP JUMP JUMPDEST PUSH1 0x60 PUSH4 0x339F3DE2 PUSH1 0xE0 SHL DUP5 DUP5 DUP5 PUSH1 0x40 MLOAD PUSH1 0x24 ADD PUSH2 0xE68 SWAP4 SWAP3 SWAP2 SWAP1 PUSH2 0x19F1 JUMP JUMPDEST PUSH1 0x0 DUP3 PUSH2 0xF8A JUMPI POP PUSH1 0x0 PUSH2 0xCE3 JUMP JUMPDEST DUP3 DUP3 MUL DUP3 DUP5 DUP3 DUP2 PUSH2 0xF97 JUMPI INVALID JUMPDEST DIV EQ PUSH2 0x97F JUMPI PUSH2 0x97F PUSH2 0xD02 PUSH1 0x1 DUP7 DUP7 PUSH2 0xE49 JUMP JUMPDEST PUSH1 0x0 DUP2 PUSH2 0xFC2 JUMPI PUSH2 0xFC2 PUSH2 0xD02 PUSH1 0x3 DUP6 DUP6 PUSH2 0xE49 JUMP JUMPDEST PUSH1 0x0 DUP3 DUP5 DUP2 PUSH2 0xFCD JUMPI INVALID JUMPDEST DIV SWAP5 SWAP4 POP POP POP POP JUMP JUMPDEST PUSH1 0x60 PUSH4 0x28006595 PUSH1 0xE0 SHL DUP5 DUP5 DUP5 PUSH1 0x40 MLOAD PUSH1 0x24 ADD PUSH2 0xE68 SWAP4 SWAP3 SWAP2 SWAP1 PUSH2 0x194C JUMP JUMPDEST PUSH1 0x40 DUP1 MLOAD DUP1 DUP3 ADD SWAP1 SWAP2 MSTORE PUSH1 0x4 DUP2 MSTORE PUSH32 0xA791837C00000000000000000000000000000000000000000000000000000000 PUSH1 0x20 DUP3 ADD MSTORE SWAP1 JUMP JUMPDEST PUSH1 0x40 DUP1 MLOAD PUSH1 0x60 DUP2 ADD SWAP1 SWAP2 MSTORE DUP1 PUSH1 0x0 DUP2 MSTORE PUSH1 0x0 PUSH1 0x20 DUP3 ADD DUP2 SWAP1 MSTORE PUSH1 0x40 SWAP1 SWAP2 ADD MSTORE SWAP1 JUMP JUMPDEST PUSH2 0x236 DUP1 PUSH2 0x1AA4 DUP4 CODECOPY ADD SWAP1 JUMP JUMPDEST DUP1 CALLDATALOAD PUSH2 0xCE3 DUP2 PUSH2 0x1A7E JUMP JUMPDEST PUSH1 0x0 DUP3 PUSH1 0x1F DUP4 ADD SLT PUSH2 0x1076 JUMPI DUP1 DUP2 REVERT JUMPDEST DUP2 CALLDATALOAD PUSH2 0x1089 PUSH2 0x1084 DUP3 PUSH2 0x1A2E JUMP JUMPDEST PUSH2 0x1A07 JUMP JUMPDEST DUP2 DUP2 MSTORE SWAP2 POP PUSH1 0x20 DUP1 DUP4 ADD SWAP1 DUP5 ADD PUSH1 0x0 JUMPDEST DUP4 DUP2 LT ISZERO PUSH2 0x10C6 JUMPI PUSH2 0x10B1 DUP8 PUSH1 0x20 DUP5 CALLDATALOAD DUP10 ADD ADD PUSH2 0x10D0 JUMP JUMPDEST DUP4 MSTORE PUSH1 0x20 SWAP3 DUP4 ADD SWAP3 SWAP2 SWAP1 SWAP2 ADD SWAP1 PUSH1 0x1 ADD PUSH2 0x1099 JUMP JUMPDEST POP POP POP POP SWAP3 SWAP2 POP POP JUMP JUMPDEST PUSH1 0x0 DUP3 PUSH1 0x1F DUP4 ADD SLT PUSH2 0x10E0 JUMPI DUP1 DUP2 REVERT JUMPDEST DUP2 CALLDATALOAD PUSH8 0xFFFFFFFFFFFFFFFF DUP2 GT ISZERO PUSH2 0x10F6 JUMPI DUP2 DUP3 REVERT JUMPDEST PUSH2 0x1127 PUSH1 0x20 PUSH32 0xFFFFFFFFFFFFFFFFFFFFFFFFFFFFFFFFFFFFFFFFFFFFFFFFFFFFFFFFFFFFFFE0 PUSH1 0x1F DUP5 ADD AND ADD PUSH2 0x1A07 JUMP JUMPDEST SWAP2 POP DUP1 DUP3 MSTORE DUP4 PUSH1 0x20 DUP3 DUP6 ADD ADD GT ISZERO PUSH2 0x113E JUMPI PUSH1 0x0 DUP1 REVERT JUMPDEST DUP1 PUSH1 0x20 DUP5 ADD PUSH1 0x20 DUP5 ADD CALLDATACOPY PUSH1 0x0 SWAP1 DUP3 ADD PUSH1 0x20 ADD MSTORE SWAP3 SWAP2 POP POP JUMP JUMPDEST PUSH1 0x0 PUSH2 0x1C0 DUP1 DUP4 DUP6 SUB SLT ISZERO PUSH2 0x116A JUMPI DUP2 DUP3 REVERT JUMPDEST PUSH2 0x1173 DUP2 PUSH2 0x1A07 JUMP JUMPDEST SWAP2 POP POP PUSH2 0x1180 DUP4 DUP4 PUSH2 0x105B JUMP JUMPDEST DUP2 MSTORE PUSH2 0x118F DUP4 PUSH1 0x20 DUP5 ADD PUSH2 0x105B JUMP JUMPDEST PUSH1 0x20 DUP3 ADD MSTORE PUSH2 0x11A1 DUP4 PUSH1 0x40 DUP5 ADD PUSH2 0x105B JUMP JUMPDEST PUSH1 0x40 DUP3 ADD MSTORE PUSH2 0x11B3 DUP4 PUSH1 0x60 DUP5 ADD PUSH2 0x105B JUMP JUMPDEST PUSH1 0x60 DUP3 ADD MSTORE PUSH1 0x80 DUP3 ADD CALLDATALOAD PUSH1 0x80 DUP3 ADD MSTORE PUSH1 0xA0 DUP3 ADD CALLDATALOAD PUSH1 0xA0 DUP3 ADD MSTORE PUSH1 0xC0 DUP3 ADD CALLDATALOAD PUSH1 0xC0 DUP3 ADD MSTORE PUSH1 0xE0 DUP3 ADD CALLDATALOAD PUSH1 0xE0 DUP3 ADD MSTORE PUSH2 0x100 DUP1 DUP4 ADD CALLDATALOAD DUP2 DUP4 ADD MSTORE POP PUSH2 0x120 DUP1 DUP4 ADD CALLDATALOAD DUP2 DUP4 ADD MSTORE POP PUSH2 0x140 DUP1 DUP4 ADD CALLDATALOAD PUSH8 0xFFFFFFFFFFFFFFFF DUP1 DUP3 GT ISZERO PUSH2 0x1215 JUMPI PUSH1 0x0 DUP1 REVERT JUMPDEST PUSH2 0x1221 DUP7 DUP4 DUP8 ADD PUSH2 0x10D0 JUMP JUMPDEST DUP4 DUP6 ADD MSTORE PUSH2 0x160 SWAP3 POP DUP3 DUP6 ADD CALLDATALOAD SWAP2 POP DUP1 DUP3 GT ISZERO PUSH2 0x123D JUMPI PUSH1 0x0 DUP1 REVERT JUMPDEST PUSH2 0x1249 DUP7 DUP4 DUP8 ADD PUSH2 0x10D0 JUMP JUMPDEST DUP4 DUP6 ADD MSTORE PUSH2 0x180 SWAP3 POP DUP3 DUP6 ADD CALLDATALOAD SWAP2 POP DUP1 DUP3 GT ISZERO PUSH2 0x1265 JUMPI PUSH1 0x0 DUP1 REVERT JUMPDEST PUSH2 0x1271 DUP7 DUP4 DUP8 ADD PUSH2 0x10D0 JUMP JUMPDEST DUP4 DUP6 ADD MSTORE PUSH2 0x1A0 SWAP3 POP DUP3 DUP6 ADD CALLDATALOAD SWAP2 POP DUP1 DUP3 GT ISZERO PUSH2 0x128D JUMPI PUSH1 0x0 DUP1 REVERT JUMPDEST POP PUSH2 0x129A DUP6 DUP3 DUP7 ADD PUSH2 0x10D0 JUMP JUMPDEST DUP3 DUP5 ADD MSTORE POP POP SWAP3 SWAP2 POP POP JUMP JUMPDEST PUSH1 0x0 PUSH1 0x20 DUP3 DUP5 SUB SLT ISZERO PUSH2 0x12B7 JUMPI DUP1 DUP2 REVERT JUMPDEST DUP2 MLOAD PUSH2 0x97F DUP2 PUSH2 0x1A7E JUMP JUMPDEST PUSH1 0x0 DUP1 PUSH1 0x0 PUSH1 0x60 DUP5 DUP7 SUB SLT ISZERO PUSH2 0x12D6 JUMPI DUP2 DUP3 REVERT JUMPDEST DUP4 CALLDATALOAD PUSH8 0xFFFFFFFFFFFFFFFF DUP1 DUP3 GT ISZERO PUSH2 0x12ED JUMPI DUP4 DUP5 REVERT JUMPDEST DUP2 DUP7 ADD DUP8 PUSH1 0x1F DUP3 ADD SLT PUSH2 0x12FE JUMPI DUP5 DUP6 REVERT JUMPDEST DUP1 CALLDATALOAD SWAP3 POP PUSH2 0x130E PUSH2 0x1084 DUP5 PUSH2 0x1A2E JUMP JUMPDEST DUP4 DUP2 MSTORE PUSH1 0x20 DUP1 DUP3 ADD SWAP2 SWAP1 DUP4 DUP2 ADD DUP9 JUMPDEST DUP8 DUP2 LT ISZERO PUSH2 0x1346 JUMPI PUSH2 0x1334 DUP14 DUP5 DUP5 CALLDATALOAD DUP10 ADD ADD PUSH2 0x1157 JUMP JUMPDEST DUP6 MSTORE SWAP4 DUP3 ADD SWAP4 SWAP1 DUP3 ADD SWAP1 PUSH1 0x1 ADD PUSH2 0x131D JUMP JUMPDEST POP SWAP2 SWAP9 POP DUP10 ADD CALLDATALOAD SWAP5 POP POP POP POP DUP1 DUP3 GT ISZERO PUSH2 0x135E JUMPI DUP4 DUP5 REVERT JUMPDEST POP PUSH2 0x136B DUP7 DUP3 DUP8 ADD PUSH2 0x1066 JUMP JUMPDEST SWAP3 POP POP PUSH2 0x137B DUP6 PUSH1 0x40 DUP7 ADD PUSH2 0x105B JUMP JUMPDEST SWAP1 POP SWAP3 POP SWAP3 POP SWAP3 JUMP JUMPDEST PUSH1 0x0 PUSH1 0x20 DUP3 DUP5 SUB SLT ISZERO PUSH2 0x1395 JUMPI DUP1 DUP2 REVERT JUMPDEST DUP2 MLOAD DUP1 ISZERO ISZERO DUP2 EQ PUSH2 0x97F JUMPI DUP2 DUP3 REVERT JUMPDEST PUSH1 0x0 DUP1 PUSH1 0x0 DUP1 PUSH1 0x60 DUP6 DUP8 SUB SLT ISZERO PUSH2 0x13B9 JUMPI DUP2 DUP3 REVERT JUMPDEST DUP5 CALLDATALOAD SWAP4 POP PUSH1 0x20 DUP6 ADD CALLDATALOAD PUSH2 0x13CB DUP2 PUSH2 0x1A7E JUMP JUMPDEST SWAP3 POP PUSH1 0x40 DUP6 ADD CALLDATALOAD PUSH8 0xFFFFFFFFFFFFFFFF DUP1 DUP3 GT ISZERO PUSH2 0x13E7 JUMPI DUP4 DUP5 REVERT JUMPDEST DUP2 DUP8 ADD DUP9 PUSH1 0x1F DUP3 ADD SLT PUSH2 0x13F8 JUMPI DUP5 DUP6 REVERT JUMPDEST DUP1 CALLDATALOAD SWAP3 POP DUP2 DUP4 GT ISZERO PUSH2 0x1408 JUMPI DUP5 DUP6 REVERT JUMPDEST DUP9 PUSH1 0x20 DUP5 DUP4 ADD ADD GT ISZERO PUSH2 0x1419 JUMPI DUP5 DUP6 REVERT JUMPDEST SWAP6 SWAP9 SWAP5 SWAP8 POP POP PUSH1 0x20 SWAP1 SWAP5 ADD SWAP5 POP POP POP JUMP JUMPDEST PUSH1 0x0 PUSH1 0x20 DUP3 DUP5 SUB SLT ISZERO PUSH2 0x143B JUMPI DUP1 DUP2 REVERT JUMPDEST DUP2 CALLDATALOAD PUSH32 0xFFFFFFFF00000000000000000000000000000000000000000000000000000000 DUP2 AND DUP2 EQ PUSH2 0x97F JUMPI DUP2 DUP3 REVERT JUMPDEST PUSH1 0x0 DUP1 PUSH1 0x0 DUP1 PUSH1 0x0 PUSH1 0xA0 DUP7 DUP9 SUB SLT ISZERO PUSH2 0x1481 JUMPI DUP3 DUP4 REVERT JUMPDEST DUP6 CALLDATALOAD PUSH2 0x148C DUP2 PUSH2 0x1A7E JUMP JUMPDEST SWAP5 POP PUSH1 0x20 DUP7 ADD CALLDATALOAD PUSH2 0x149C DUP2 PUSH2 0x1A7E JUMP JUMPDEST SWAP4 POP PUSH1 0x40 DUP7 ADD CALLDATALOAD PUSH2 0x14AC DUP2 PUSH2 0x1A7E JUMP JUMPDEST SWAP5 SWAP8 SWAP4 SWAP7 POP SWAP4 SWAP5 PUSH1 0x60 DUP2 ADD CALLDATALOAD SWAP5 POP PUSH1 0x80 ADD CALLDATALOAD SWAP3 SWAP2 POP POP JUMP JUMPDEST PUSH1 0x0 PUSH1 0x60 DUP3 DUP5 SUB SLT ISZERO PUSH2 0x14D5 JUMPI DUP1 DUP2 REVERT JUMPDEST PUSH2 0x14DF PUSH1 0x60 PUSH2 0x1A07 JUMP JUMPDEST DUP3 MLOAD PUSH1 0x7 DUP2 LT PUSH2 0x14ED JUMPI DUP3 DUP4 REVERT JUMPDEST DUP2 MSTORE PUSH1 0x20 DUP4 DUP2 ADD MLOAD SWAP1 DUP3 ADD MSTORE PUSH1 0x40 SWAP3 DUP4 ADD MLOAD SWAP3 DUP2 ADD SWAP3 SWAP1 SWAP3 MSTORE POP SWAP2 SWAP1 POP JUMP JUMPDEST PUSH1 0x0 PUSH1 0x20 DUP3 DUP5 SUB SLT ISZERO PUSH2 0x151D JUMPI DUP1 DUP2 REVERT JUMPDEST DUP2 CALLDATALOAD PUSH8 0xFFFFFFFFFFFFFFFF DUP2 GT ISZERO PUSH2 0x1533 JUMPI DUP2 DUP3 REVERT JUMPDEST DUP1 DUP4 ADD PUSH2 0x1C0 DUP2 DUP7 SUB SLT ISZERO PUSH2 0xD69 JUMPI DUP3 DUP4 REVERT JUMPDEST PUSH1 0x0 DUP1 PUSH1 0x0 PUSH1 0x60 DUP5 DUP7 SUB SLT ISZERO PUSH2 0x155A JUMPI DUP1 DUP2 REVERT JUMPDEST DUP4 CALLDATALOAD PUSH8 0xFFFFFFFFFFFFFFFF DUP1 DUP3 GT ISZERO PUSH2 0x1571 JUMPI DUP3 DUP4 REVERT JUMPDEST PUSH2 0x157D DUP8 DUP4 DUP9 ADD PUSH2 0x1157 JUMP JUMPDEST SWAP5 POP PUSH1 0x20 DUP7 ADD CALLDATALOAD SWAP2 POP DUP1 DUP3 GT ISZERO PUSH2 0x1592 JUMPI DUP3 DUP4 REVERT JUMPDEST POP PUSH2 0x159F DUP7 DUP3 DUP8 ADD PUSH2 0x10D0 JUMP JUMPDEST SWAP3 POP POP PUSH1 0x40 DUP5 ADD CALLDATALOAD PUSH2 0x15B0 DUP2 PUSH2 0x1A7E JUMP JUMPDEST DUP1 SWAP2 POP POP SWAP3 POP SWAP3 POP SWAP3 JUMP JUMPDEST PUSH1 0x0 PUSH1 0x20 DUP3 DUP5 SUB SLT ISZERO PUSH2 0x15CC JUMPI DUP1 DUP2 REVERT JUMPDEST POP CALLDATALOAD SWAP2 SWAP1 POP JUMP JUMPDEST PUSH1 0x0 PUSH1 0x20 DUP3 DUP5 SUB SLT ISZERO PUSH2 0x15E4 JUMPI DUP1 DUP2 REVERT JUMPDEST POP MLOAD SWAP2 SWAP1 POP JUMP JUMPDEST PUSH20 0xFFFFFFFFFFFFFFFFFFFFFFFFFFFFFFFFFFFFFFFF AND SWAP1 MSTORE JUMP JUMPDEST PUSH1 0x0 DUP2 MLOAD DUP1 DUP5 MSTORE PUSH2 0x161D DUP2 PUSH1 0x20 DUP7 ADD PUSH1 0x20 DUP7 ADD PUSH2 0x1A4E JUMP JUMPDEST PUSH1 0x1F ADD PUSH32 0xFFFFFFFFFFFFFFFFFFFFFFFFFFFFFFFFFFFFFFFFFFFFFFFFFFFFFFFFFFFFFFE0 AND SWAP3 SWAP1 SWAP3 ADD PUSH1 0x20 ADD SWAP3 SWAP2 POP POP JUMP JUMPDEST PUSH1 0x0 PUSH2 0x1C0 PUSH2 0x165F DUP5 DUP5 MLOAD PUSH2 0x15EB JUMP JUMPDEST PUSH1 0x20 DUP4 ADD MLOAD PUSH2 0x1671 PUSH1 0x20 DUP7 ADD DUP3 PUSH2 0x15EB JUMP JUMPDEST POP PUSH1 0x40 DUP4 ADD MLOAD PUSH2 0x1684 PUSH1 0x40 DUP7 ADD DUP3 PUSH2 0x15EB JUMP JUMPDEST POP PUSH1 0x60 DUP4 ADD MLOAD PUSH2 0x1697 PUSH1 0x60 DUP7 ADD DUP3 PUSH2 0x15EB JUMP JUMPDEST POP PUSH1 0x80 DUP4 ADD MLOAD PUSH1 0x80 DUP6 ADD MSTORE PUSH1 0xA0 DUP4 ADD MLOAD PUSH1 0xA0 DUP6 ADD MSTORE PUSH1 0xC0 DUP4 ADD MLOAD PUSH1 0xC0 DUP6 ADD MSTORE PUSH1 0xE0 DUP4 ADD MLOAD PUSH1 0xE0 DUP6 ADD MSTORE PUSH2 0x100 DUP1 DUP5 ADD MLOAD DUP2 DUP7 ADD MSTORE POP PUSH2 0x120 DUP1 DUP5 ADD MLOAD DUP2 DUP7 ADD MSTORE POP PUSH2 0x140 DUP1 DUP5 ADD MLOAD DUP3 DUP3 DUP8 ADD MSTORE PUSH2 0x16F0 DUP4 DUP8 ADD DUP3 PUSH2 0x1605 JUMP JUMPDEST SWAP2 POP POP PUSH2 0x160 SWAP2 POP DUP2 DUP5 ADD MLOAD DUP6 DUP3 SUB DUP4 DUP8 ADD MSTORE PUSH2 0x170D DUP3 DUP3 PUSH2 0x1605 JUMP JUMPDEST SWAP3 POP POP POP PUSH2 0x180 DUP1 DUP5 ADD MLOAD DUP6 DUP4 SUB DUP3 DUP8 ADD MSTORE PUSH2 0x1729 DUP4 DUP3 PUSH2 0x1605 JUMP JUMPDEST SWAP2 POP POP PUSH2 0x1A0 SWAP2 POP DUP2 DUP5 ADD MLOAD DUP6 DUP3 SUB DUP4 DUP8 ADD MSTORE PUSH2 0x1746 DUP3 DUP3 PUSH2 0x1605 JUMP JUMPDEST SWAP7 SWAP6 POP POP POP POP POP POP JUMP JUMPDEST PUSH1 0x0 DUP3 DUP5 DUP4 CALLDATACOPY SWAP2 ADD SWAP1 DUP2 MSTORE SWAP2 SWAP1 POP JUMP JUMPDEST PUSH1 0x0 DUP3 MLOAD PUSH2 0x1772 DUP2 DUP5 PUSH1 0x20 DUP8 ADD PUSH2 0x1A4E JUMP JUMPDEST SWAP2 SWAP1 SWAP2 ADD SWAP3 SWAP2 POP POP JUMP JUMPDEST PUSH32 0x100000000000000000000000000000000000000000000000000000000000000 DUP2 MSTORE PUSH1 0x1 ADD SWAP1 JUMP JUMPDEST PUSH20 0xFFFFFFFFFFFFFFFFFFFFFFFFFFFFFFFFFFFFFFFF SWAP2 SWAP1 SWAP2 AND DUP2 MSTORE PUSH1 0x20 ADD SWAP1 JUMP JUMPDEST PUSH20 0xFFFFFFFFFFFFFFFFFFFFFFFFFFFFFFFFFFFFFFFF SWAP3 DUP4 AND DUP2 MSTORE SWAP2 AND PUSH1 0x20 DUP3 ADD MSTORE PUSH1 0x40 ADD SWAP1 JUMP JUMPDEST PUSH20 0xFFFFFFFFFFFFFFFFFFFFFFFFFFFFFFFFFFFFFFFF SWAP5 DUP6 AND DUP2 MSTORE SWAP3 SWAP1 SWAP4 AND PUSH1 0x20 DUP4 ADD MSTORE PUSH1 0x40 DUP3 ADD MSTORE PUSH1 0x60 DUP2 ADD SWAP2 SWAP1 SWAP2 MSTORE PUSH1 0x80 ADD SWAP1 JUMP JUMPDEST PUSH1 0x20 DUP1 DUP3 MSTORE DUP3 MLOAD DUP3 DUP3 ADD DUP2 SWAP1 MSTORE PUSH1 0x0 SWAP2 DUP5 ADD SWAP1 PUSH1 0x40 DUP5 ADD SWAP1 DUP4 JUMPDEST DUP2 DUP2 LT ISZERO PUSH2 0x1871 JUMPI DUP4 MLOAD PUSH20 0xFFFFFFFFFFFFFFFFFFFFFFFFFFFFFFFFFFFFFFFF AND DUP4 MSTORE PUSH1 0x20 SWAP4 DUP5 ADD SWAP4 SWAP1 SWAP3 ADD SWAP2 PUSH1 0x1 ADD PUSH2 0x183D JUMP JUMPDEST POP SWAP1 SWAP6 SWAP5 POP POP POP POP POP JUMP JUMPDEST PUSH1 0x20 DUP1 DUP3 MSTORE DUP3 MLOAD DUP3 DUP3 ADD DUP2 SWAP1 MSTORE PUSH1 0x0 SWAP2 DUP5 ADD SWAP1 PUSH1 0x40 DUP5 ADD SWAP1 DUP4 JUMPDEST DUP2 DUP2 LT ISZERO PUSH2 0x1871 JUMPI DUP4 MLOAD DUP4 MSTORE PUSH1 0x20 SWAP4 DUP5 ADD SWAP4 SWAP1 SWAP3 ADD SWAP2 PUSH1 0x1 ADD PUSH2 0x1896 JUMP JUMPDEST SWAP1 ISZERO ISZERO DUP2 MSTORE PUSH1 0x20 ADD SWAP1 JUMP JUMPDEST PUSH1 0x0 DUP5 DUP3 MSTORE PUSH20 0xFFFFFFFFFFFFFFFFFFFFFFFFFFFFFFFFFFFFFFFF DUP5 AND PUSH1 0x20 DUP4 ADD MSTORE PUSH1 0x60 PUSH1 0x40 DUP4 ADD MSTORE PUSH2 0x18F4 PUSH1 0x60 DUP4 ADD DUP5 PUSH2 0x1605 JUMP JUMPDEST SWAP6 SWAP5 POP POP POP POP POP JUMP JUMPDEST PUSH32 0xFFFFFFFF00000000000000000000000000000000000000000000000000000000 SWAP2 SWAP1 SWAP2 AND DUP2 MSTORE PUSH1 0x20 ADD SWAP1 JUMP JUMPDEST PUSH1 0x60 DUP2 ADD PUSH1 0x4 DUP6 LT PUSH2 0x1938 JUMPI INVALID JUMPDEST SWAP4 DUP2 MSTORE PUSH1 0x20 DUP2 ADD SWAP3 SWAP1 SWAP3 MSTORE PUSH1 0x40 SWAP1 SWAP2 ADD MSTORE SWAP1 JUMP JUMPDEST PUSH1 0x60 DUP2 ADD PUSH1 0x8 DUP6 LT PUSH2 0x1938 JUMPI INVALID JUMPDEST DUP2 MLOAD PUSH1 0x60 DUP3 ADD SWAP1 PUSH1 0x7 DUP2 LT PUSH2 0x196B JUMPI INVALID JUMPDEST DUP1 DUP4 MSTORE POP PUSH1 0x20 DUP4 ADD MLOAD PUSH1 0x20 DUP4 ADD MSTORE PUSH1 0x40 DUP4 ADD MLOAD PUSH1 0x40 DUP4 ADD MSTORE SWAP3 SWAP2 POP POP JUMP JUMPDEST PUSH1 0x0 PUSH1 0x20 DUP3 MSTORE PUSH2 0x97F PUSH1 0x20 DUP4 ADD DUP5 PUSH2 0x164F JUMP JUMPDEST PUSH1 0x0 PUSH1 0x60 DUP3 MSTORE PUSH2 0x19AF PUSH1 0x60 DUP4 ADD DUP7 PUSH2 0x164F JUMP JUMPDEST DUP3 DUP2 SUB PUSH1 0x20 DUP5 ADD MSTORE PUSH2 0x19C1 DUP2 DUP7 PUSH2 0x1605 JUMP JUMPDEST SWAP2 POP POP PUSH20 0xFFFFFFFFFFFFFFFFFFFFFFFFFFFFFFFFFFFFFFFF DUP4 AND PUSH1 0x40 DUP4 ADD MSTORE SWAP5 SWAP4 POP POP POP POP JUMP JUMPDEST SWAP1 DUP2 MSTORE PUSH1 0x20 ADD SWAP1 JUMP JUMPDEST SWAP3 DUP4 MSTORE PUSH1 0x20 DUP4 ADD SWAP2 SWAP1 SWAP2 MSTORE PUSH1 0x40 DUP3 ADD MSTORE PUSH1 0x60 ADD SWAP1 JUMP JUMPDEST PUSH1 0x40 MLOAD DUP2 DUP2 ADD PUSH8 0xFFFFFFFFFFFFFFFF DUP2 GT DUP3 DUP3 LT OR ISZERO PUSH2 0x1A26 JUMPI PUSH1 0x0 DUP1 REVERT JUMPDEST PUSH1 0x40 MSTORE SWAP2 SWAP1 POP JUMP JUMPDEST PUSH1 0x0 PUSH8 0xFFFFFFFFFFFFFFFF DUP3 GT ISZERO PUSH2 0x1A44 JUMPI DUP1 DUP2 REVERT JUMPDEST POP PUSH1 0x20 SWAP1 DUP2 MUL ADD SWAP1 JUMP JUMPDEST PUSH1 0x0 JUMPDEST DUP4 DUP2 LT ISZERO PUSH2 0x1A69 JUMPI DUP2 DUP2 ADD MLOAD DUP4 DUP3 ADD MSTORE PUSH1 0x20 ADD PUSH2 0x1A51 JUMP JUMPDEST DUP4 DUP2 GT ISZERO PUSH2 0x1A78 JUMPI PUSH1 0x0 DUP5 DUP5 ADD MSTORE JUMPDEST POP POP POP POP JUMP JUMPDEST PUSH20 0xFFFFFFFFFFFFFFFFFFFFFFFFFFFFFFFFFFFFFFFF DUP2 AND DUP2 EQ PUSH2 0x1AA0 JUMPI PUSH1 0x0 DUP1 REVERT JUMPDEST POP JUMP INVALID PUSH1 0x80 PUSH1 0x40 MSTORE CALLVALUE DUP1 ISZERO PUSH2 0x10 JUMPI PUSH1 0x0 DUP1 REVERT JUMPDEST POP PUSH2 0x216 DUP1 PUSH2 0x20 PUSH1 0x0 CODECOPY PUSH1 0x0 RETURN INVALID PUSH1 0x80 PUSH1 0x40 MSTORE CALLVALUE DUP1 ISZERO PUSH2 0x10 JUMPI PUSH1 0x0 DUP1 REVERT JUMPDEST POP PUSH1 0x4 CALLDATASIZE LT PUSH2 0x41 JUMPI PUSH1 0x0 CALLDATALOAD PUSH1 0xE0 SHR DUP1 PUSH4 0x3C9DC74D EQ PUSH2 0x46 JUMPI DUP1 PUSH4 0x70A08231 EQ PUSH2 0x5B JUMPI DUP1 PUSH4 0xDD62ED3E EQ PUSH2 0x84 JUMPI JUMPDEST PUSH1 0x0 DUP1 REVERT JUMPDEST PUSH2 0x59 PUSH2 0x54 CALLDATASIZE PUSH1 0x4 PUSH2 0x187 JUMP JUMPDEST PUSH2 0x97 JUMP JUMPDEST STOP JUMPDEST PUSH2 0x6E PUSH2 0x69 CALLDATASIZE PUSH1 0x4 PUSH2 0x131 JUMP JUMPDEST PUSH2 0xD8 JUMP JUMPDEST PUSH1 0x40 MLOAD PUSH2 0x7B SWAP2 SWAP1 PUSH2 0x1CA JUMP JUMPDEST PUSH1 0x40 MLOAD DUP1 SWAP2 SUB SWAP1 RETURN JUMPDEST PUSH2 0x6E PUSH2 0x92 CALLDATASIZE PUSH1 0x4 PUSH2 0x153 JUMP JUMPDEST PUSH2 0xEA JUMP JUMPDEST PUSH20 0xFFFFFFFFFFFFFFFFFFFFFFFFFFFFFFFFFFFFFFFF SWAP4 DUP5 AND PUSH1 0x0 SWAP1 DUP2 MSTORE PUSH1 0x20 DUP2 DUP2 MSTORE PUSH1 0x40 DUP1 DUP4 KECCAK256 SWAP5 SWAP1 SWAP5 SSTORE PUSH1 0x1 DUP2 MSTORE DUP4 DUP3 KECCAK256 SWAP5 SWAP1 SWAP6 AND DUP2 MSTORE SWAP3 SWAP1 SWAP4 MSTORE SWAP1 KECCAK256 SSTORE JUMP JUMPDEST PUSH1 0x0 PUSH1 0x20 DUP2 SWAP1 MSTORE SWAP1 DUP2 MSTORE PUSH1 0x40 SWAP1 KECCAK256 SLOAD DUP2 JUMP JUMPDEST PUSH1 0x1 PUSH1 0x20 SWAP1 DUP2 MSTORE PUSH1 0x0 SWAP3 DUP4 MSTORE PUSH1 0x40 DUP1 DUP5 KECCAK256 SWAP1 SWAP2 MSTORE SWAP1 DUP3 MSTORE SWAP1 KECCAK256 SLOAD DUP2 JUMP JUMPDEST DUP1 CALLDATALOAD PUSH20 0xFFFFFFFFFFFFFFFFFFFFFFFFFFFFFFFFFFFFFFFF DUP2 AND DUP2 EQ PUSH2 0x12B JUMPI PUSH1 0x0 DUP1 REVERT JUMPDEST SWAP3 SWAP2 POP POP JUMP JUMPDEST PUSH1 0x0 PUSH1 0x20 DUP3 DUP5 SUB SLT ISZERO PUSH2 0x142 JUMPI DUP1 DUP2 REVERT JUMPDEST PUSH2 0x14C DUP4 DUP4 PUSH2 0x107 JUMP JUMPDEST SWAP4 SWAP3 POP POP POP JUMP JUMPDEST PUSH1 0x0 DUP1 PUSH1 0x40 DUP4 DUP6 SUB SLT ISZERO PUSH2 0x165 JUMPI DUP1 DUP2 REVERT JUMPDEST PUSH2 0x16F DUP5 DUP5 PUSH2 0x107 JUMP JUMPDEST SWAP2 POP PUSH2 0x17E DUP5 PUSH1 0x20 DUP6 ADD PUSH2 0x107 JUMP JUMPDEST SWAP1 POP SWAP3 POP SWAP3 SWAP1 POP JUMP JUMPDEST PUSH1 0x0 DUP1 PUSH1 0x0 DUP1 PUSH1 0x80 DUP6 DUP8 SUB SLT ISZERO PUSH2 0x19C JUMPI DUP2 DUP3 REVERT JUMPDEST PUSH2 0x1A6 DUP7 DUP7 PUSH2 0x107 JUMP JUMPDEST SWAP4 POP PUSH2 0x1B5 DUP7 PUSH1 0x20 DUP8 ADD PUSH2 0x107 JUMP JUMPDEST SWAP4 SWAP7 SWAP4 SWAP6 POP POP POP POP PUSH1 0x40 DUP3 ADD CALLDATALOAD SWAP2 PUSH1 0x60 ADD CALLDATALOAD SWAP1 JUMP JUMPDEST SWAP1 DUP2 MSTORE PUSH1 0x20 ADD SWAP1 JUMP INVALID LOG3 PUSH6 0x627A7A723158 KECCAK256 CALL 0x1E 0xD5 DUP8 MSTORE8 0x25 0x2A PUSH13 0xBC64045DD41BB3544201388E94 MLOAD STATICCALL DUP9 SWAP4 0xEA 0xD4 0xE2 JUMPDEST GAS OR PUSH6 0x6C6578706572 PUSH10 0x6D656E74616CF564736F PUSH13 0x63430005110040A365627A7A72 BALANCE PC KECCAK256 0xE1 PUSH25 0x5D3D48242B9583372FA25B4C6703A53EA6CBC34290C01DE226 INVALID 0xBC SWAP4 MSTORE PUSH19 0x6C6578706572696D656E74616CF564736F6C63 NUMBER STOP SDIV GT STOP BLOCKHASH "
            }
        }
    },
    "sourceTreeHashHex": "0x2a3d3d61e689637264f99b9ced9551905f5cd5d53b63b7293df3e2ce7a18d4de",
    "compiler": {
        "name": "solc",
        "version": "0.5.17+commit.d19bba13",
        "settings": {
            "remappings": [
                "@0x/contracts-exchange-libs=/Users/kim/Development/0x-monorepo/packages/asset-swapper/node_modules/@0x/contracts-exchange-libs",
                "@0x/contracts-utils=/Users/kim/Development/0x-monorepo/packages/asset-swapper/node_modules/@0x/contracts-utils",
                "@0x/contracts-erc20=/Users/kim/Development/0x-monorepo/packages/asset-swapper/node_modules/@0x/contracts-erc20",
                "@0x/contracts-exchange=/Users/kim/Development/0x-monorepo/packages/asset-swapper/node_modules/@0x/contracts-exchange",
                "@0x/contracts-asset-proxy=/Users/kim/Development/0x-monorepo/packages/asset-swapper/node_modules/@0x/contracts-asset-proxy"
            ],
            "optimizer": {
                "enabled": true,
                "runs": 1000000,
                "details": {
                    "yul": true,
                    "deduplicate": true,
                    "cse": true,
                    "constantOptimizer": true
                }
            },
            "outputSelection": {
                "*": {
                    "*": [
                        "abi",
                        "devdoc",
                        "evm.bytecode.object",
                        "evm.bytecode.sourceMap",
                        "evm.deployedBytecode.object",
                        "evm.deployedBytecode.sourceMap"
                    ]
                }
            },
            "evmVersion": "istanbul"
        }
    },
    "chains": {}
}