{
    "schemaVersion": "2.0.0",
    "contractName": "TestERC20BridgeSampler",
    "compilerOutput": {
        "abi": [
            {
                "inputs": [],
                "payable": false,
                "stateMutability": "nonpayable",
                "type": "constructor"
            },
            {
                "constant": true,
                "inputs": [],
                "name": "FAILURE_ADDRESS",
                "outputs": [
                    {
                        "internalType": "address payable",
                        "name": "",
                        "type": "address"
                    }
                ],
                "payable": false,
                "stateMutability": "view",
                "type": "function"
            },
            {
                "constant": true,
                "inputs": [
                    {
                        "internalType": "bytes[]",
                        "name": "callDatas",
                        "type": "bytes[]"
                    }
                ],
                "name": "batchCall",
                "outputs": [
                    {
                        "internalType": "bytes[]",
                        "name": "callResults",
                        "type": "bytes[]"
                    }
                ],
                "payable": false,
                "stateMutability": "view",
                "type": "function"
            },
            {
                "constant": false,
                "inputs": [
                    {
                        "internalType": "address[]",
                        "name": "tokenAddresses",
                        "type": "address[]"
                    }
                ],
                "name": "createTokenExchanges",
                "outputs": [],
                "payable": false,
                "stateMutability": "nonpayable",
                "type": "function"
            },
            {
                "constant": false,
                "inputs": [],
                "name": "enableFailTrigger",
                "outputs": [],
                "payable": true,
                "stateMutability": "payable",
                "type": "function"
            },
            {
                "constant": true,
                "inputs": [],
                "name": "eth2Dai",
                "outputs": [
                    {
                        "internalType": "contract TestERC20BridgeSamplerEth2Dai",
                        "name": "",
                        "type": "address"
                    }
                ],
                "payable": false,
                "stateMutability": "view",
                "type": "function"
            },
            {
                "constant": true,
                "inputs": [
                    {
                        "internalType": "address",
                        "name": "registryAddress",
                        "type": "address"
                    },
                    {
                        "internalType": "address",
                        "name": "takerToken",
                        "type": "address"
                    },
                    {
                        "internalType": "address",
                        "name": "makerToken",
                        "type": "address"
                    }
                ],
                "name": "getLiquidityProviderFromRegistry",
                "outputs": [
                    {
                        "internalType": "address",
                        "name": "providerAddress",
                        "type": "address"
                    }
                ],
                "payable": false,
                "stateMutability": "view",
                "type": "function"
            },
            {
                "constant": true,
                "inputs": [
                    {
                        "components": [
                            {
                                "internalType": "address",
                                "name": "makerAddress",
                                "type": "address"
                            },
                            {
                                "internalType": "address",
                                "name": "takerAddress",
                                "type": "address"
                            },
                            {
                                "internalType": "address",
                                "name": "feeRecipientAddress",
                                "type": "address"
                            },
                            {
                                "internalType": "address",
                                "name": "senderAddress",
                                "type": "address"
                            },
                            {
                                "internalType": "uint256",
                                "name": "makerAssetAmount",
                                "type": "uint256"
                            },
                            {
                                "internalType": "uint256",
                                "name": "takerAssetAmount",
                                "type": "uint256"
                            },
                            {
                                "internalType": "uint256",
                                "name": "makerFee",
                                "type": "uint256"
                            },
                            {
                                "internalType": "uint256",
                                "name": "takerFee",
                                "type": "uint256"
                            },
                            {
                                "internalType": "uint256",
                                "name": "expirationTimeSeconds",
                                "type": "uint256"
                            },
                            {
                                "internalType": "uint256",
                                "name": "salt",
                                "type": "uint256"
                            },
                            {
                                "internalType": "bytes",
                                "name": "makerAssetData",
                                "type": "bytes"
                            },
                            {
                                "internalType": "bytes",
                                "name": "takerAssetData",
                                "type": "bytes"
                            },
                            {
                                "internalType": "bytes",
                                "name": "makerFeeAssetData",
                                "type": "bytes"
                            },
                            {
                                "internalType": "bytes",
                                "name": "takerFeeAssetData",
                                "type": "bytes"
                            }
                        ],
                        "internalType": "struct LibOrder.Order[]",
                        "name": "orders",
                        "type": "tuple[]"
                    },
                    {
                        "internalType": "bytes[]",
                        "name": "orderSignatures",
                        "type": "bytes[]"
                    },
                    {
                        "internalType": "contract IExchange",
                        "name": "exchange",
                        "type": "address"
                    }
                ],
                "name": "getOrderFillableMakerAssetAmounts",
                "outputs": [
                    {
                        "internalType": "uint256[]",
                        "name": "orderFillableMakerAssetAmounts",
                        "type": "uint256[]"
                    }
                ],
                "payable": false,
                "stateMutability": "view",
                "type": "function"
            },
            {
                "constant": true,
                "inputs": [
                    {
                        "components": [
                            {
                                "internalType": "address",
                                "name": "makerAddress",
                                "type": "address"
                            },
                            {
                                "internalType": "address",
                                "name": "takerAddress",
                                "type": "address"
                            },
                            {
                                "internalType": "address",
                                "name": "feeRecipientAddress",
                                "type": "address"
                            },
                            {
                                "internalType": "address",
                                "name": "senderAddress",
                                "type": "address"
                            },
                            {
                                "internalType": "uint256",
                                "name": "makerAssetAmount",
                                "type": "uint256"
                            },
                            {
                                "internalType": "uint256",
                                "name": "takerAssetAmount",
                                "type": "uint256"
                            },
                            {
                                "internalType": "uint256",
                                "name": "makerFee",
                                "type": "uint256"
                            },
                            {
                                "internalType": "uint256",
                                "name": "takerFee",
                                "type": "uint256"
                            },
                            {
                                "internalType": "uint256",
                                "name": "expirationTimeSeconds",
                                "type": "uint256"
                            },
                            {
                                "internalType": "uint256",
                                "name": "salt",
                                "type": "uint256"
                            },
                            {
                                "internalType": "bytes",
                                "name": "makerAssetData",
                                "type": "bytes"
                            },
                            {
                                "internalType": "bytes",
                                "name": "takerAssetData",
                                "type": "bytes"
                            },
                            {
                                "internalType": "bytes",
                                "name": "makerFeeAssetData",
                                "type": "bytes"
                            },
                            {
                                "internalType": "bytes",
                                "name": "takerFeeAssetData",
                                "type": "bytes"
                            }
                        ],
                        "internalType": "struct LibOrder.Order",
                        "name": "order",
                        "type": "tuple"
                    },
                    {
                        "internalType": "bytes",
                        "name": "",
                        "type": "bytes"
                    },
                    {
                        "internalType": "contract IExchange",
                        "name": "",
                        "type": "address"
                    }
                ],
                "name": "getOrderFillableTakerAmount",
                "outputs": [
                    {
                        "internalType": "uint256",
                        "name": "fillableTakerAmount",
                        "type": "uint256"
                    }
                ],
                "payable": false,
                "stateMutability": "view",
                "type": "function"
            },
            {
                "constant": true,
                "inputs": [
                    {
                        "components": [
                            {
                                "internalType": "address",
                                "name": "makerAddress",
                                "type": "address"
                            },
                            {
                                "internalType": "address",
                                "name": "takerAddress",
                                "type": "address"
                            },
                            {
                                "internalType": "address",
                                "name": "feeRecipientAddress",
                                "type": "address"
                            },
                            {
                                "internalType": "address",
                                "name": "senderAddress",
                                "type": "address"
                            },
                            {
                                "internalType": "uint256",
                                "name": "makerAssetAmount",
                                "type": "uint256"
                            },
                            {
                                "internalType": "uint256",
                                "name": "takerAssetAmount",
                                "type": "uint256"
                            },
                            {
                                "internalType": "uint256",
                                "name": "makerFee",
                                "type": "uint256"
                            },
                            {
                                "internalType": "uint256",
                                "name": "takerFee",
                                "type": "uint256"
                            },
                            {
                                "internalType": "uint256",
                                "name": "expirationTimeSeconds",
                                "type": "uint256"
                            },
                            {
                                "internalType": "uint256",
                                "name": "salt",
                                "type": "uint256"
                            },
                            {
                                "internalType": "bytes",
                                "name": "makerAssetData",
                                "type": "bytes"
                            },
                            {
                                "internalType": "bytes",
                                "name": "takerAssetData",
                                "type": "bytes"
                            },
                            {
                                "internalType": "bytes",
                                "name": "makerFeeAssetData",
                                "type": "bytes"
                            },
                            {
                                "internalType": "bytes",
                                "name": "takerFeeAssetData",
                                "type": "bytes"
                            }
                        ],
                        "internalType": "struct LibOrder.Order[]",
                        "name": "orders",
                        "type": "tuple[]"
                    },
                    {
                        "internalType": "bytes[]",
                        "name": "orderSignatures",
                        "type": "bytes[]"
                    },
                    {
                        "internalType": "contract IExchange",
                        "name": "exchange",
                        "type": "address"
                    }
                ],
                "name": "getOrderFillableTakerAssetAmounts",
                "outputs": [
                    {
                        "internalType": "uint256[]",
                        "name": "orderFillableTakerAssetAmounts",
                        "type": "uint256[]"
                    }
                ],
                "payable": false,
                "stateMutability": "view",
                "type": "function"
            },
            {
                "constant": true,
                "inputs": [],
                "name": "kyber",
                "outputs": [
                    {
                        "internalType": "contract TestERC20BridgeSamplerKyberNetwork",
                        "name": "",
                        "type": "address"
                    }
                ],
                "payable": false,
                "stateMutability": "view",
                "type": "function"
            },
            {
                "constant": true,
                "inputs": [
                    {
                        "components": [
                            {
                                "internalType": "address",
                                "name": "poolAddress",
                                "type": "address"
                            },
                            {
                                "internalType": "bytes4",
                                "name": "sellQuoteFunctionSelector",
                                "type": "bytes4"
                            },
                            {
                                "internalType": "bytes4",
                                "name": "buyQuoteFunctionSelector",
                                "type": "bytes4"
                            }
                        ],
                        "internalType": "struct CurveSampler.CurveInfo",
                        "name": "curveInfo",
                        "type": "tuple"
                    },
                    {
                        "internalType": "int128",
                        "name": "fromTokenIdx",
                        "type": "int128"
                    },
                    {
                        "internalType": "int128",
                        "name": "toTokenIdx",
                        "type": "int128"
                    },
                    {
                        "internalType": "uint256[]",
                        "name": "makerTokenAmounts",
                        "type": "uint256[]"
                    }
                ],
                "name": "sampleBuysFromCurve",
                "outputs": [
                    {
                        "internalType": "uint256[]",
                        "name": "takerTokenAmounts",
                        "type": "uint256[]"
                    }
                ],
                "payable": false,
                "stateMutability": "view",
                "type": "function"
            },
            {
                "constant": true,
                "inputs": [
                    {
                        "internalType": "address",
                        "name": "takerToken",
                        "type": "address"
                    },
                    {
                        "internalType": "address",
                        "name": "makerToken",
                        "type": "address"
                    },
                    {
                        "internalType": "uint256[]",
                        "name": "makerTokenAmounts",
                        "type": "uint256[]"
                    }
                ],
                "name": "sampleBuysFromEth2Dai",
                "outputs": [
                    {
                        "internalType": "uint256[]",
                        "name": "takerTokenAmounts",
                        "type": "uint256[]"
                    }
                ],
                "payable": false,
                "stateMutability": "view",
                "type": "function"
            },
            {
                "constant": true,
                "inputs": [
                    {
                        "internalType": "address",
                        "name": "takerToken",
                        "type": "address"
                    },
                    {
                        "internalType": "address",
                        "name": "makerToken",
                        "type": "address"
                    },
                    {
                        "internalType": "uint256[]",
                        "name": "makerTokenAmounts",
                        "type": "uint256[]"
                    }
                ],
                "name": "sampleBuysFromKyberNetwork",
                "outputs": [
                    {
                        "internalType": "uint256[]",
                        "name": "takerTokenAmounts",
                        "type": "uint256[]"
                    }
                ],
                "payable": false,
                "stateMutability": "view",
                "type": "function"
            },
            {
                "constant": true,
                "inputs": [
                    {
                        "internalType": "address",
                        "name": "registryAddress",
                        "type": "address"
                    },
                    {
                        "internalType": "address",
                        "name": "takerToken",
                        "type": "address"
                    },
                    {
                        "internalType": "address",
                        "name": "makerToken",
                        "type": "address"
                    },
                    {
                        "internalType": "uint256[]",
                        "name": "makerTokenAmounts",
                        "type": "uint256[]"
                    }
                ],
                "name": "sampleBuysFromLiquidityProviderRegistry",
                "outputs": [
                    {
                        "internalType": "uint256[]",
                        "name": "takerTokenAmounts",
                        "type": "uint256[]"
                    }
                ],
                "payable": false,
                "stateMutability": "view",
                "type": "function"
            },
            {
                "constant": true,
                "inputs": [
                    {
                        "internalType": "address",
                        "name": "takerToken",
                        "type": "address"
                    },
                    {
                        "internalType": "address",
                        "name": "makerToken",
                        "type": "address"
                    },
                    {
                        "internalType": "uint256[]",
                        "name": "makerTokenAmounts",
                        "type": "uint256[]"
                    }
                ],
                "name": "sampleBuysFromMStable",
                "outputs": [
                    {
                        "internalType": "uint256[]",
                        "name": "takerTokenAmounts",
                        "type": "uint256[]"
                    }
                ],
                "payable": false,
                "stateMutability": "view",
                "type": "function"
            },
            {
                "constant": true,
                "inputs": [
                    {
                        "internalType": "address",
                        "name": "takerToken",
                        "type": "address"
                    },
                    {
                        "internalType": "address",
                        "name": "makerToken",
                        "type": "address"
                    },
                    {
                        "internalType": "uint256[]",
                        "name": "makerTokenAmounts",
                        "type": "uint256[]"
                    }
                ],
                "name": "sampleBuysFromMooniswap",
                "outputs": [
                    {
                        "internalType": "uint256[]",
                        "name": "takerTokenAmounts",
                        "type": "uint256[]"
                    }
                ],
                "payable": false,
                "stateMutability": "view",
                "type": "function"
            },
            {
                "constant": true,
                "inputs": [
                    {
                        "internalType": "address",
                        "name": "takerToken",
                        "type": "address"
                    },
                    {
                        "internalType": "address",
                        "name": "makerToken",
                        "type": "address"
                    },
                    {
                        "internalType": "uint256[]",
                        "name": "makerTokenAmounts",
                        "type": "uint256[]"
                    }
                ],
                "name": "sampleBuysFromUniswap",
                "outputs": [
                    {
                        "internalType": "uint256[]",
                        "name": "takerTokenAmounts",
                        "type": "uint256[]"
                    }
                ],
                "payable": false,
                "stateMutability": "view",
                "type": "function"
            },
            {
                "constant": true,
                "inputs": [
                    {
                        "internalType": "address[]",
                        "name": "path",
                        "type": "address[]"
                    },
                    {
                        "internalType": "uint256[]",
                        "name": "makerTokenAmounts",
                        "type": "uint256[]"
                    }
                ],
                "name": "sampleBuysFromUniswapV2",
                "outputs": [
                    {
                        "internalType": "uint256[]",
                        "name": "takerTokenAmounts",
                        "type": "uint256[]"
                    }
                ],
                "payable": false,
                "stateMutability": "view",
                "type": "function"
            },
            {
                "constant": true,
                "inputs": [
                    {
                        "components": [
                            {
                                "internalType": "address",
                                "name": "poolAddress",
                                "type": "address"
                            },
                            {
                                "internalType": "bytes4",
                                "name": "sellQuoteFunctionSelector",
                                "type": "bytes4"
                            },
                            {
                                "internalType": "bytes4",
                                "name": "buyQuoteFunctionSelector",
                                "type": "bytes4"
                            }
                        ],
                        "internalType": "struct CurveSampler.CurveInfo",
                        "name": "curveInfo",
                        "type": "tuple"
                    },
                    {
                        "internalType": "int128",
                        "name": "fromTokenIdx",
                        "type": "int128"
                    },
                    {
                        "internalType": "int128",
                        "name": "toTokenIdx",
                        "type": "int128"
                    },
                    {
                        "internalType": "uint256[]",
                        "name": "takerTokenAmounts",
                        "type": "uint256[]"
                    }
                ],
                "name": "sampleSellsFromCurve",
                "outputs": [
                    {
                        "internalType": "uint256[]",
                        "name": "makerTokenAmounts",
                        "type": "uint256[]"
                    }
                ],
                "payable": false,
                "stateMutability": "view",
                "type": "function"
            },
            {
                "constant": true,
                "inputs": [
                    {
                        "internalType": "address",
                        "name": "takerToken",
                        "type": "address"
                    },
                    {
                        "internalType": "address",
                        "name": "makerToken",
                        "type": "address"
                    },
                    {
                        "internalType": "uint256[]",
                        "name": "takerTokenAmounts",
                        "type": "uint256[]"
                    }
                ],
                "name": "sampleSellsFromEth2Dai",
                "outputs": [
                    {
                        "internalType": "uint256[]",
                        "name": "makerTokenAmounts",
                        "type": "uint256[]"
                    }
                ],
                "payable": false,
                "stateMutability": "view",
                "type": "function"
            },
            {
                "constant": true,
                "inputs": [
                    {
                        "internalType": "address",
                        "name": "takerToken",
                        "type": "address"
                    },
                    {
                        "internalType": "address",
                        "name": "makerToken",
                        "type": "address"
                    },
                    {
                        "internalType": "uint256[]",
                        "name": "takerTokenAmounts",
                        "type": "uint256[]"
                    }
                ],
                "name": "sampleSellsFromKyberNetwork",
                "outputs": [
                    {
                        "internalType": "uint256[]",
                        "name": "makerTokenAmounts",
                        "type": "uint256[]"
                    }
                ],
                "payable": false,
                "stateMutability": "view",
                "type": "function"
            },
            {
                "constant": true,
                "inputs": [
                    {
                        "internalType": "address",
                        "name": "registryAddress",
                        "type": "address"
                    },
                    {
                        "internalType": "address",
                        "name": "takerToken",
                        "type": "address"
                    },
                    {
                        "internalType": "address",
                        "name": "makerToken",
                        "type": "address"
                    },
                    {
                        "internalType": "uint256[]",
                        "name": "takerTokenAmounts",
                        "type": "uint256[]"
                    }
                ],
                "name": "sampleSellsFromLiquidityProviderRegistry",
                "outputs": [
                    {
                        "internalType": "uint256[]",
                        "name": "makerTokenAmounts",
                        "type": "uint256[]"
                    }
                ],
                "payable": false,
                "stateMutability": "view",
                "type": "function"
            },
            {
                "constant": true,
                "inputs": [
                    {
                        "internalType": "address",
                        "name": "takerToken",
                        "type": "address"
                    },
                    {
                        "internalType": "address",
                        "name": "makerToken",
                        "type": "address"
                    },
                    {
                        "internalType": "uint256[]",
                        "name": "takerTokenAmounts",
                        "type": "uint256[]"
                    }
                ],
                "name": "sampleSellsFromMStable",
                "outputs": [
                    {
                        "internalType": "uint256[]",
                        "name": "makerTokenAmounts",
                        "type": "uint256[]"
                    }
                ],
                "payable": false,
                "stateMutability": "view",
                "type": "function"
            },
            {
                "constant": true,
                "inputs": [
                    {
                        "internalType": "address",
                        "name": "takerToken",
                        "type": "address"
                    },
                    {
                        "internalType": "address",
                        "name": "makerToken",
                        "type": "address"
                    },
                    {
                        "internalType": "uint256[]",
                        "name": "takerTokenAmounts",
                        "type": "uint256[]"
                    }
                ],
                "name": "sampleSellsFromMooniswap",
                "outputs": [
                    {
                        "internalType": "uint256[]",
                        "name": "makerTokenAmounts",
                        "type": "uint256[]"
                    }
                ],
                "payable": false,
                "stateMutability": "view",
                "type": "function"
            },
            {
                "constant": true,
                "inputs": [
                    {
                        "internalType": "address",
                        "name": "multibridge",
                        "type": "address"
                    },
                    {
                        "internalType": "address",
                        "name": "takerToken",
                        "type": "address"
                    },
                    {
                        "internalType": "address",
                        "name": "intermediateToken",
                        "type": "address"
                    },
                    {
                        "internalType": "address",
                        "name": "makerToken",
                        "type": "address"
                    },
                    {
                        "internalType": "uint256[]",
                        "name": "takerTokenAmounts",
                        "type": "uint256[]"
                    }
                ],
                "name": "sampleSellsFromMultiBridge",
                "outputs": [
                    {
                        "internalType": "uint256[]",
                        "name": "makerTokenAmounts",
                        "type": "uint256[]"
                    }
                ],
                "payable": false,
                "stateMutability": "view",
                "type": "function"
            },
            {
                "constant": true,
                "inputs": [
                    {
                        "internalType": "address",
                        "name": "takerToken",
                        "type": "address"
                    },
                    {
                        "internalType": "address",
                        "name": "makerToken",
                        "type": "address"
                    },
                    {
                        "internalType": "uint256[]",
                        "name": "takerTokenAmounts",
                        "type": "uint256[]"
                    }
                ],
                "name": "sampleSellsFromUniswap",
                "outputs": [
                    {
                        "internalType": "uint256[]",
                        "name": "makerTokenAmounts",
                        "type": "uint256[]"
                    }
                ],
                "payable": false,
                "stateMutability": "view",
                "type": "function"
            },
            {
                "constant": true,
                "inputs": [
                    {
                        "internalType": "address[]",
                        "name": "path",
                        "type": "address[]"
                    },
                    {
                        "internalType": "uint256[]",
                        "name": "takerTokenAmounts",
                        "type": "uint256[]"
                    }
                ],
                "name": "sampleSellsFromUniswapV2",
                "outputs": [
                    {
                        "internalType": "uint256[]",
                        "name": "makerTokenAmounts",
                        "type": "uint256[]"
                    }
                ],
                "payable": false,
                "stateMutability": "view",
                "type": "function"
            },
            {
                "constant": true,
                "inputs": [],
                "name": "uniswap",
                "outputs": [
                    {
                        "internalType": "contract TestERC20BridgeSamplerUniswapExchangeFactory",
                        "name": "",
                        "type": "address"
                    }
                ],
                "payable": false,
                "stateMutability": "view",
                "type": "function"
            },
            {
                "constant": true,
                "inputs": [],
                "name": "uniswapV2Router",
                "outputs": [
                    {
                        "internalType": "contract TestERC20BridgeSamplerUniswapV2Router01",
                        "name": "",
                        "type": "address"
                    }
                ],
                "payable": false,
                "stateMutability": "view",
                "type": "function"
            }
        ],
        "devdoc": {
            "methods": {
                "batchCall(bytes[])": {
                    "details": "Call multiple public functions on this contract in a single transaction.",
                    "params": {
                        "callDatas": "ABI-encoded call data for each function call."
                    },
                    "return": "callResults ABI-encoded results data for each call."
                },
                "getLiquidityProviderFromRegistry(address,address,address)": {
                    "details": "Returns the address of a liquidity provider for the given market      (takerToken, makerToken), from a registry of liquidity providers.      Returns address(0) if no such provider exists in the registry.",
                    "params": {
                        "makerToken": "Maker asset managed by liquidity provider.",
                        "takerToken": "Taker asset managed by liquidity provider."
                    },
                    "return": "providerAddress Address of the liquidity provider."
                },
                "getOrderFillableMakerAssetAmounts((address,address,address,address,uint256,uint256,uint256,uint256,uint256,uint256,bytes,bytes,bytes,bytes)[],bytes[],address)": {
                    "details": "Queries the fillable taker asset amounts of native orders.      Effectively ignores orders that have empty signatures or",
                    "params": {
                        "exchange": "The V3 exchange.",
                        "orderSignatures": "Signatures for each respective order in `orders`.",
                        "orders": "Native orders to query."
                    },
                    "return": "orderFillableMakerAssetAmounts How much maker asset can be filled         by each order in `orders`."
                },
                "getOrderFillableTakerAssetAmounts((address,address,address,address,uint256,uint256,uint256,uint256,uint256,uint256,bytes,bytes,bytes,bytes)[],bytes[],address)": {
                    "details": "Queries the fillable taker asset amounts of native orders.      Effectively ignores orders that have empty signatures or      maker/taker asset amounts (returning 0).",
                    "params": {
                        "exchange": "The V3 exchange.",
                        "orderSignatures": "Signatures for each respective order in `orders`.",
                        "orders": "Native orders to query."
                    },
                    "return": "orderFillableTakerAssetAmounts How much taker asset can be filled         by each order in `orders`."
                },
                "sampleBuysFromCurve((address,bytes4,bytes4),int128,int128,uint256[])": {
                    "details": "Sample buy quotes from Curve.",
                    "params": {
                        "curveInfo": "Curve information specific to this token pair.",
                        "fromTokenIdx": "Index of the taker token (what to sell).",
                        "makerTokenAmounts": "Maker token buy amount for each sample.",
                        "toTokenIdx": "Index of the maker token (what to buy)."
                    },
                    "return": "takerTokenAmounts Taker amounts sold at each maker token         amount."
                },
                "sampleBuysFromEth2Dai(address,address,uint256[])": {
                    "details": "Sample buy quotes from Eth2Dai/Oasis.",
                    "params": {
                        "makerToken": "Address of the maker token (what to buy).",
                        "takerToken": "Address of the taker token (what to sell).",
                        "takerTokenAmounts": "Maker token sell amount for each sample."
                    },
                    "return": "takerTokenAmounts Taker amounts sold at each maker token         amount."
                },
                "sampleBuysFromKyberNetwork(address,address,uint256[])": {
                    "details": "Sample buy quotes from Kyber.",
                    "params": {
                        "makerToken": "Address of the maker token (what to buy).",
                        "makerTokenAmounts": "Maker token buy amount for each sample.",
                        "takerToken": "Address of the taker token (what to sell)."
                    },
                    "return": "takerTokenAmounts Taker amounts sold at each maker token         amount."
                },
                "sampleBuysFromLiquidityProviderRegistry(address,address,address,uint256[])": {
                    "details": "Sample buy quotes from an arbitrary on-chain liquidity provider.",
                    "params": {
                        "makerToken": "Address of the maker token (what to buy).",
                        "makerTokenAmounts": "Maker token buy amount for each sample.",
                        "registryAddress": "Address of the liquidity provider registry contract.",
                        "takerToken": "Address of the taker token (what to sell)."
                    },
                    "return": "takerTokenAmounts Taker amounts sold at each maker token         amount."
                },
                "sampleBuysFromMStable(address,address,uint256[])": {
                    "details": "Sample buy quotes from MStable mUSD contract",
                    "params": {
                        "makerToken": "Address of the maker token (what to buy).",
                        "makerTokenAmounts": "Maker token buy amount for each sample.",
                        "takerToken": "Address of the taker token (what to sell)."
                    },
                    "return": "takerTokenAmounts Taker amounts sold at each maker token         amount."
                },
                "sampleBuysFromMooniswap(address,address,uint256[])": {
                    "details": "Sample buy quotes from Mooniswap.",
                    "params": {
                        "makerToken": "Address of the maker token (what to buy).",
                        "makerTokenAmounts": "Maker token sell amount for each sample.",
                        "takerToken": "Address of the taker token (what to sell)."
                    },
                    "return": "takerTokenAmounts Taker amounts sold at each maker token         amount."
                },
                "sampleBuysFromUniswap(address,address,uint256[])": {
                    "details": "Sample buy quotes from Uniswap.",
                    "params": {
                        "makerToken": "Address of the maker token (what to buy).",
                        "makerTokenAmounts": "Maker token sell amount for each sample.",
                        "takerToken": "Address of the taker token (what to sell)."
                    },
                    "return": "takerTokenAmounts Taker amounts sold at each maker token         amount."
                },
                "sampleBuysFromUniswapV2(address[],uint256[])": {
                    "details": "Sample buy quotes from UniswapV2.",
                    "params": {
                        "makerTokenAmounts": "Maker token buy amount for each sample.",
                        "path": "Token route. Should be takerToken -> makerToken."
                    },
                    "return": "takerTokenAmounts Taker amounts sold at each maker token         amount."
                },
                "sampleSellsFromCurve((address,bytes4,bytes4),int128,int128,uint256[])": {
                    "details": "Sample sell quotes from Curve.",
                    "params": {
                        "curveInfo": "Curve information specific to this token pair.",
                        "fromTokenIdx": "Index of the taker token (what to sell).",
                        "takerTokenAmounts": "Taker token sell amount for each sample.",
                        "toTokenIdx": "Index of the maker token (what to buy)."
                    },
                    "return": "makerTokenAmounts Maker amounts bought at each taker token         amount."
                },
                "sampleSellsFromEth2Dai(address,address,uint256[])": {
                    "details": "Sample sell quotes from Eth2Dai/Oasis.",
                    "params": {
                        "makerToken": "Address of the maker token (what to buy).",
                        "takerToken": "Address of the taker token (what to sell).",
                        "takerTokenAmounts": "Taker token sell amount for each sample."
                    },
                    "return": "makerTokenAmounts Maker amounts bought at each taker token         amount."
                },
                "sampleSellsFromKyberNetwork(address,address,uint256[])": {
                    "details": "Sample sell quotes from Kyber.",
                    "params": {
                        "makerToken": "Address of the maker token (what to buy).",
                        "takerToken": "Address of the taker token (what to sell).",
                        "takerTokenAmounts": "Taker token sell amount for each sample."
                    },
                    "return": "makerTokenAmounts Maker amounts bought at each taker token         amount."
                },
                "sampleSellsFromLiquidityProviderRegistry(address,address,address,uint256[])": {
                    "details": "Sample sell quotes from an arbitrary on-chain liquidity provider.",
                    "params": {
                        "makerToken": "Address of the maker token (what to buy).",
                        "registryAddress": "Address of the liquidity provider registry contract.",
                        "takerToken": "Address of the taker token (what to sell).",
                        "takerTokenAmounts": "Taker token sell amount for each sample."
                    },
                    "return": "makerTokenAmounts Maker amounts bought at each taker token         amount."
                },
                "sampleSellsFromMStable(address,address,uint256[])": {
                    "details": "Sample sell quotes from the mStable mUSD contract",
                    "params": {
                        "makerToken": "Address of the maker token (what to buy).",
                        "takerToken": "Address of the taker token (what to sell).",
                        "takerTokenAmounts": "Taker token sell amount for each sample."
                    },
                    "return": "makerTokenAmounts Maker amounts bought at each taker token         amount."
                },
                "sampleSellsFromMooniswap(address,address,uint256[])": {
                    "details": "Sample sell quotes from Mooniswap.",
                    "params": {
                        "makerToken": "Address of the maker token (what to buy).",
                        "takerToken": "Address of the taker token (what to sell).",
                        "takerTokenAmounts": "Taker token sell amount for each sample."
                    },
                    "return": "makerTokenAmounts Maker amounts bought at each taker token         amount."
                },
                "sampleSellsFromMultiBridge(address,address,address,address,uint256[])": {
                    "details": "Sample sell quotes from MultiBridge.",
                    "params": {
                        "intermediateToken": "The address of the intermediate token to        use in an indirect route.",
                        "makerToken": "Address of the maker token (what to buy).",
                        "multibridge": "Address of the MultiBridge contract.",
                        "takerToken": "Address of the taker token (what to sell).",
                        "takerTokenAmounts": "Taker token sell amount for each sample."
                    },
                    "return": "makerTokenAmounts Maker amounts bought at each taker token         amount."
                },
                "sampleSellsFromUniswap(address,address,uint256[])": {
                    "details": "Sample sell quotes from Uniswap.",
                    "params": {
                        "makerToken": "Address of the maker token (what to buy).",
                        "takerToken": "Address of the taker token (what to sell).",
                        "takerTokenAmounts": "Taker token sell amount for each sample."
                    },
                    "return": "makerTokenAmounts Maker amounts bought at each taker token         amount."
                },
                "sampleSellsFromUniswapV2(address[],uint256[])": {
                    "details": "Sample sell quotes from UniswapV2.",
                    "params": {
                        "path": "Token route. Should be takerToken -> makerToken",
                        "takerTokenAmounts": "Taker token sell amount for each sample."
                    },
                    "return": "makerTokenAmounts Maker amounts bought at each taker token         amount."
                }
            }
        },
        "evm": {
            "bytecode": {
                "linkReferences": {},
                "object": "0x60806040523480156200001157600080fd5b50604051620000209062000148565b604051809103906000f0801580156200003d573d6000803e3d6000fd5b50600080546001600160a01b0319166001600160a01b03929092169190911790556040516200006c9062000156565b604051809103906000f08015801562000089573d6000803e3d6000fd5b50600180546001600160a01b0319166001600160a01b0392909216919091179055604051620000b89062000164565b604051809103906000f080158015620000d5573d6000803e3d6000fd5b50600280546001600160a01b0319166001600160a01b0392909216919091179055604051620001049062000172565b604051809103906000f08015801562000121573d6000803e3d6000fd5b50600380546001600160a01b0319166001600160a01b039290921691909117905562000180565b6108e780620055fe83390190565b6108668062005ee583390190565b61051b806200674b83390190565b6109878062006c6683390190565b61546e80620001906000396000f3fe6080604052600436106101c25760003560e01c806368be3cf2116100f7578063bc61a69511610095578063cdb3b4af11610064578063cdb3b4af146104e2578063e68248f714610502578063e9a8e44214610522578063fea12a0314610542576101c2565b8063bc61a6951461046d578063c7f7142e1461048d578063ca7893ba146104ad578063cd72d789146104cd576101c2565b80639f76ad35116100d15780639f76ad35146103f8578063a2c28d4b14610418578063a2d10ba514610438578063abffc7611461044d576101c2565b806368be3cf21461038b5780636dd6b78d146103b85780639209483b146103d8576101c2565b80633b77ebae116101645780634cb8e2531161013e5780634cb8e2531461030b57806360ee052a1461032b57806364ee6ade1461034b57806367b881e71461036b576101c2565b80633b77ebae1461029e57806340bc03ae146102cb5780634703a7e6146102eb576101c2565b80632681f7e4116101a05780632681f7e4146102295780632d753aa41461023e578063312686571461025e57806339b085ad1461027e576101c2565b80630cc6600b146101c757806311f2928b146101fd5780631694505e14610207575b600080fd5b3480156101d357600080fd5b506101e76101e23660046145e3565b610557565b6040516101f49190615034565b60405180910390f35b6102056105d1565b005b34801561021357600080fd5b5061021c610614565b6040516101f49190614d50565b34801561023557600080fd5b5061021c610630565b34801561024a57600080fd5b506101e76102593660046144ea565b61064c565b34801561026a57600080fd5b50610205610279366004614742565b610843565b34801561028a57600080fd5b506101e76102993660046148d8565b6108d1565b3480156102aa57600080fd5b506102be6102b9366004614b94565b610a86565b6040516101f4919061529c565b3480156102d757600080fd5b506101e76102e6366004614af8565b610acc565b3480156102f757600080fd5b506101e76103063660046145e3565b610c85565b34801561031757600080fd5b506101e76103263660046145e3565b610e62565b34801561033757600080fd5b506101e76103463660046145e3565b610f95565b34801561035757600080fd5b506101e76103663660046145e3565b61124a565b34801561037757600080fd5b506101e76103863660046145e3565b61141e565b34801561039757600080fd5b506103ab6103a6366004614742565b611484565b6040516101f49190614fb6565b3480156103c457600080fd5b506101e76103d33660046145e3565b61164d565b3480156103e457600080fd5b506101e76103f3366004614af8565b6118f5565b34801561040457600080fd5b506101e7610413366004614570565b611b3f565b34801561042457600080fd5b506101e7610433366004614570565b611d44565b34801561044457600080fd5b5061021c611daa565b34801561045957600080fd5b506101e7610468366004614782565b611dc6565b34801561047957600080fd5b506101e76104883660046145e3565b611fb1565b34801561049957600080fd5b5061021c6104a83660046144a0565b612182565b3480156104b957600080fd5b506101e76104c83660046145e3565b6122de565b3480156104d957600080fd5b5061021c612344565b3480156104ee57600080fd5b506101e76104fd3660046145e3565b61235c565b34801561050e57600080fd5b506101e761051d366004614782565b61277f565b34801561052e57600080fd5b506101e761053d3660046148d8565b612952565b34801561054e57600080fd5b5061021c6129f5565b60606105638385612a11565b6105c76040518060600160405280856040516020016105829190614d50565b6040516020818303038152906040528152602001866040516020016105a79190614d50565b6040516020818303038152906040528152602001612a8481525083612bfc565b90505b9392505050565b60405173e9db8717bc5dfb20aaf538b4a5a02b7791ff430c903480156108fc02916000818181858888f19350505050158015610611573d6000803e3d6000fd5b50565b60015473ffffffffffffffffffffffffffffffffffffffff1681565b60005473ffffffffffffffffffffffffffffffffffffffff1681565b60606000825190508060405190808252806020026020018201604052801561067e578160200160208202803883390190505b50915073ffffffffffffffffffffffffffffffffffffffff87166106a2575061083a565b60005b8181101561083757600060608973ffffffffffffffffffffffffffffffffffffffff1662061a80600073ffffffffffffffffffffffffffffffffffffffff16636e79e133905060e01b8b8b8b8b89815181106106fd57fe5b60200260200101516040516024016107189493929190614e1c565b604080517fffffffffffffffffffffffffffffffffffffffffffffffffffffffffffffffe08184030181529181526020820180517bffffffffffffffffffffffffffffffffffffffffffffffffffffffff167fffffffff000000000000000000000000000000000000000000000000000000009094169390931790925290516107a19190614d34565b6000604051808303818686fa925050503d80600081146107dd576040519150601f19603f3d011682016040523d82523d6000602084013e6107e2565b606091505b50909250905060008215610807578180602001905161080491908101906149f6565b90505b8061081457505050610837565b8086858151811061082157fe5b60209081029190910101525050506001016106a5565b50505b95945050505050565b6000546040517f3126865700000000000000000000000000000000000000000000000000000000815273ffffffffffffffffffffffffffffffffffffffff9091169063312686579061089b9085908590600401614f5c565b600060405180830381600087803b1580156108b557600080fd5b505af11580156108c9573d6000803e3d6000fd5b505050505050565b606083516040519080825280602002602001820160405280156108fe578160200160208202803883390190505b50905060005b84518114610a7e57600060603073ffffffffffffffffffffffffffffffffffffffff1662030d40633b77ebae60e01b89868151811061093f57fe5b602002602001015189878151811061095357fe5b60200260200101518960405160240161096e9392919061513b565b604080517fffffffffffffffffffffffffffffffffffffffffffffffffffffffffffffffe08184030181529181526020820180517bffffffffffffffffffffffffffffffffffffffffffffffffffffffff167fffffffff000000000000000000000000000000000000000000000000000000009094169390931790925290516109f79190614d34565b6000604051808303818686fa925050503d8060008114610a33576040519150601f19603f3d011682016040523d82523d6000602084013e610a38565b606091505b509150915081610a49576000610a5d565b80806020019051610a5d91908101906149f6565b848481518110610a6957fe5b60209081029190910101525050600101610904565b509392505050565b60008360a00151846101200151604051602001610aa3919061529c565b6040516020818303038152906040528051906020012060001c81610ac357fe5b06949350505050565b606060008251905080604051908082528060200260200182016040528015610afe578160200160208202803883390190505b50915060005b81811015610c7b5760006060886000015173ffffffffffffffffffffffffffffffffffffffff16620927c08a602001518a8a8a8881518110610b4257fe5b6020026020010151604051602401610b5c93929190615076565b604080517fffffffffffffffffffffffffffffffffffffffffffffffffffffffffffffffe08184030181529181526020820180517bffffffffffffffffffffffffffffffffffffffffffffffffffffffff167fffffffff00000000000000000000000000000000000000000000000000000000909416939093179092529051610be59190614d34565b6000604051808303818686fa925050503d8060008114610c21576040519150601f19603f3d011682016040523d82523d6000602084013e610c26565b606091505b50909250905060008215610c4b5781806020019051610c4891908101906149f6565b90505b80610c5857505050610c7b565b80868581518110610c6557fe5b6020908102919091010152505050600101610b04565b5050949350505050565b6060610c918385612a11565b8151604080518281526020808402820101909152818015610cbc578160200160208202803883390190505b50915060005b81811015610e595760006060610cd6612dd1565b73ffffffffffffffffffffffffffffffffffffffff16620f4240600073ffffffffffffffffffffffffffffffffffffffff1663ff1fd974905060e01b8a8a8a8881518110610d2057fe5b6020026020010151604051602401610d3a93929190614e53565b604080517fffffffffffffffffffffffffffffffffffffffffffffffffffffffffffffffe08184030181529181526020820180517bffffffffffffffffffffffffffffffffffffffffffffffffffffffff167fffffffff00000000000000000000000000000000000000000000000000000000909416939093179092529051610dc39190614d34565b6000604051808303818686fa925050503d8060008114610dff576040519150601f19603f3d011682016040523d82523d6000602084013e610e04565b606091505b50909250905060008215610e295781806020019051610e2691908101906149f6565b90505b80610e3657505050610e59565b80868581518110610e4357fe5b6020908102919091010152505050600101610cc2565b50509392505050565b6060610e6e8385612a11565b8151604080518281526020808402820101909152818015610e99578160200160208202803883390190505b5091506000610ea6612ded565b90506000805b83811015610f8a578273ffffffffffffffffffffffffffffffffffffffff168873ffffffffffffffffffffffffffffffffffffffff161480610f1957508273ffffffffffffffffffffffffffffffffffffffff168773ffffffffffffffffffffffffffffffffffffffff16145b15610f4357610f3c8888888481518110610f2f57fe5b6020026020010151612e05565b9150610f6a565b610f548884888481518110610f2f57fe5b91508115610f6a57610f67838884612e05565b91505b81858281518110610f7757fe5b6020908102919091010152600101610eac565b505050509392505050565b6060610fa18385612a11565b8151604080518281526020808402820101909152818015610fcc578160200160208202803883390190505b5091506000610fd9612ded565b73ffffffffffffffffffffffffffffffffffffffff168673ffffffffffffffffffffffffffffffffffffffff16146110195761101486613625565b61101c565b60005b90506000611028612ded565b73ffffffffffffffffffffffffffffffffffffffff168673ffffffffffffffffffffffffffffffffffffffff16146110685761106386613625565b61106b565b60005b905060005b83811015610f8a576001611082612ded565b73ffffffffffffffffffffffffffffffffffffffff168873ffffffffffffffffffffffffffffffffffffffff1614156111195786516110f89085907f2640f62c00000000000000000000000000000000000000000000000000000000908a90869081106110eb57fe5b60200260200101516136b7565b87848151811061110457fe5b60200260200101819350828152505050611236565b611121612ded565b73ffffffffffffffffffffffffffffffffffffffff168973ffffffffffffffffffffffffffffffffffffffff16141561118a5786516110f89084907f59e9486200000000000000000000000000000000000000000000000000000000908a90869081106110eb57fe5b86516000906111c39085907f59e9486200000000000000000000000000000000000000000000000000000000908b90879081106110eb57fe5b925090508015611219576111f8857f2640f62c00000000000000000000000000000000000000000000000000000000836136b7565b88858151811061120457fe5b60200260200101819450828152505050611234565b600087848151811061122757fe5b6020026020010181815250505b505b806112415750610f8a565b50600101611070565b60606112568385612a11565b8151604080518281526020808402820101909152818015611281578160200160208202803883390190505b50915060005b81811015610e59576000606061129b612dd1565b73ffffffffffffffffffffffffffffffffffffffff16620f4240600073ffffffffffffffffffffffffffffffffffffffff1663144a2752905060e01b898b8a88815181106112e557fe5b60200260200101516040516024016112ff93929190614e53565b604080517fffffffffffffffffffffffffffffffffffffffffffffffffffffffffffffffe08184030181529181526020820180517bffffffffffffffffffffffffffffffffffffffffffffffffffffffff167fffffffff000000000000000000000000000000000000000000000000000000009094169390931790925290516113889190614d34565b6000604051808303818686fa925050503d80600081146113c4576040519150601f19603f3d011682016040523d82523d6000602084013e6113c9565b606091505b509092509050600082156113ee57818060200190516113eb91908101906149f6565b90505b806113fb57505050610e59565b8086858151811061140857fe5b6020908102919091010152505050600101611287565b60606105c760405180606001604052808560405160200161143f9190614d50565b6040516020818303038152906040528152602001866040516020016114649190614d50565b604051602081830303815290604052815260200161380081525083612bfc565b6040805182815260208084028201019091526060908280156114ba57816020015b60608152602001906001900390816114a55790505b50905060005b808314611646578383828181106114d357fe5b6020028201905080357fffffffffffffffffffffffffffffffffffffffffffffffffffffffffffffffe13684900301811261150d57600080fd5b9091016020810191503567ffffffffffffffff81111561152c57600080fd5b3681900382131561153c57600080fd5b151590506115495761163e565b600060603086868581811061155a57fe5b6020028201905080357fffffffffffffffffffffffffffffffffffffffffffffffffffffffffffffffe13684900301811261159457600080fd5b9091016020810191503567ffffffffffffffff8111156115b357600080fd5b368190038213156115c357600080fd5b6040516115d1929190614d24565b600060405180830381855afa9150503d806000811461160c576040519150601f19603f3d011682016040523d82523d6000602084013e611611565b606091505b50915091508161162357805160208201fd5b8084848151811061163057fe5b602002602001018190525050505b6001016114c0565b5092915050565b60606116598385612a11565b8151604080518281526020808402820101909152818015611684578160200160208202803883390190505b5091506000611691612ded565b73ffffffffffffffffffffffffffffffffffffffff168673ffffffffffffffffffffffffffffffffffffffff16146116d1576116cc86613625565b6116d4565b60005b905060006116e0612ded565b73ffffffffffffffffffffffffffffffffffffffff168673ffffffffffffffffffffffffffffffffffffffff16146117205761171b86613625565b611723565b60005b905060005b83811015610f8a57600161173a612ded565b73ffffffffffffffffffffffffffffffffffffffff168873ffffffffffffffffffffffffffffffffffffffff1614156117c45786516117a39085907f95b68fe700000000000000000000000000000000000000000000000000000000908a90869081106110eb57fe5b8784815181106117af57fe5b602002602001018193508281525050506118e1565b6117cc612ded565b73ffffffffffffffffffffffffffffffffffffffff168973ffffffffffffffffffffffffffffffffffffffff1614156118355786516117a39084907fcd7724c300000000000000000000000000000000000000000000000000000000908a90869081106110eb57fe5b865160009061186e9086907f95b68fe700000000000000000000000000000000000000000000000000000000908b90879081106110eb57fe5b9250905080156118c4576118a3847fcd7724c300000000000000000000000000000000000000000000000000000000836136b7565b8885815181106118af57fe5b602002602001018194508281525050506118df565b60008784815181106118d257fe5b6020026020010181815250505b505b806118ec5750610f8a565b50600101611728565b60408401516060907fffffffff000000000000000000000000000000000000000000000000000000001661198f5760408051606081019091526119889080611941868960808401615094565b60405160208183030381529060405281526020018688604051602001611968929190615094565b604051602081830303815290604052815260200161398981525083612bfc565b9050611b37565b81516040805182815260208084028201019091528180156119ba578160200160208202803883390190505b50915060005b81811015610c7b5760006060886000015173ffffffffffffffffffffffffffffffffffffffff16620927c08a604001518a8a8a88815181106119fe57fe5b6020026020010151604051602401611a1893929190615076565b604080517fffffffffffffffffffffffffffffffffffffffffffffffffffffffffffffffe08184030181529181526020820180517bffffffffffffffffffffffffffffffffffffffffffffffffffffffff167fffffffff00000000000000000000000000000000000000000000000000000000909416939093179092529051611aa19190614d34565b6000604051808303818686fa925050503d8060008114611add576040519150601f19603f3d011682016040523d82523d6000602084013e611ae2565b606091505b50909250905060008215611b075781806020019051611b0491908101906149f6565b90505b80611b1457505050610c7b565b80868581518110611b2157fe5b60209081029190910101525050506001016119c0565b949350505050565b606060008251905080604051908082528060200260200182016040528015611b71578160200160208202803883390190505b5091506000611b81878787612182565b905073ffffffffffffffffffffffffffffffffffffffff8116611ba65750611b379050565b60005b82811015611d3957600060608373ffffffffffffffffffffffffffffffffffffffff1662061a80600073ffffffffffffffffffffffffffffffffffffffff1663343fbcdd905060e01b8b8b8b8881518110611c0057fe5b6020026020010151604051602401611c1a93929190614e53565b604080517fffffffffffffffffffffffffffffffffffffffffffffffffffffffffffffffe08184030181529181526020820180517bffffffffffffffffffffffffffffffffffffffffffffffffffffffff167fffffffff00000000000000000000000000000000000000000000000000000000909416939093179092529051611ca39190614d34565b6000604051808303818686fa925050503d8060008114611cdf576040519150601f19603f3d011682016040523d82523d6000602084013e611ce4565b606091505b50909250905060008215611d095781806020019051611d0691908101906149f6565b90505b80611d1657505050611d39565b80878581518110611d2357fe5b6020908102919091010152505050600101611ba9565b505050949350505050565b60408051606081810190925261083a9080611d63868960808401614daa565b60405160208183030381529060405281526020018688604051602001611d8a929190614daa565b6040516020818303038152906040528152602001613b2081525083612bfc565b60035473ffffffffffffffffffffffffffffffffffffffff1681565b606060008251905080604051908082528060200260200182016040528015611df8578160200160208202803883390190505b50915060005b81811015611fa95760006060611e12613b9a565b73ffffffffffffffffffffffffffffffffffffffff16620249f0600073ffffffffffffffffffffffffffffffffffffffff1663d06ca61f905060e01b888681518110611e5a57fe5b60200260200101518a604051602401611e749291906152a5565b604080517fffffffffffffffffffffffffffffffffffffffffffffffffffffffffffffffe08184030181529181526020820180517bffffffffffffffffffffffffffffffffffffffffffffffffffffffff167fffffffff00000000000000000000000000000000000000000000000000000000909416939093179092529051611efd9190614d34565b6000604051808303818686fa925050503d8060008114611f39576040519150601f19603f3d011682016040523d82523d6000602084013e611f3e565b606091505b50909250905060008215611f7e5781806020019051611f609190810190614845565b600189510381518110611f6f57fe5b60200260200101519050611f86565b505050611fa9565b80868581518110611f9357fe5b6020908102919091010152505050600101611dfe565b505092915050565b606060008251905080604051908082528060200260200182016040528015611fe3578160200160208202803883390190505b50915060005b81811015610e595760006060611ffd613bb6565b73ffffffffffffffffffffffffffffffffffffffff16620c3500600073ffffffffffffffffffffffffffffffffffffffff166372ea9076905060e01b8a8a8a888151811061204757fe5b602002602001015160405160240161206193929190614e53565b604080517fffffffffffffffffffffffffffffffffffffffffffffffffffffffffffffffe08184030181529181526020820180517bffffffffffffffffffffffffffffffffffffffffffffffffffffffff167fffffffff000000000000000000000000000000000000000000000000000000009094169390931790925290516120ea9190614d34565b6000604051808303818686fa925050503d8060008114612126576040519150601f19603f3d011682016040523d82523d6000602084013e61212b565b606091505b50909250905060008215612152578180602001905161214d919081019061499a565b925050505b8061215f57505050610e59565b8086858151811061216c57fe5b6020908102919091010152505050600101611fe9565b600073ffffffffffffffffffffffffffffffffffffffff84166121a7575060006105ca565b6040516060907f153f599700000000000000000000000000000000000000000000000000000000906121df9086908690602401614daa565b604051602081830303815290604052907bffffffffffffffffffffffffffffffffffffffffffffffffffffffff19166020820180517bffffffffffffffffffffffffffffffffffffffffffffffffffffffff83818316178352505050509050600060608673ffffffffffffffffffffffffffffffffffffffff16836040516122679190614d34565b600060405180830381855afa9150503d80600081146122a2576040519150601f19603f3d011682016040523d82523d6000602084013e6122a7565b606091505b50915091508180156122ba575080516020145b156122d4576122ca81600c613bce565b93505050506105ca565b5050509392505050565b60606105c76040518060600160405280856040516020016122ff9190614d50565b6040516020818303038152906040528152602001866040516020016123249190614d50565b6040516020818303038152906040528152602001613c1381525083612bfc565b73e9db8717bc5dfb20aaf538b4a5a02b7791ff430c81565b60606123688385612a11565b8151604080518281526020808402820101909152818015612393578160200160208202803883390190505b50915060006123a0612ded565b73ffffffffffffffffffffffffffffffffffffffff168673ffffffffffffffffffffffffffffffffffffffff16146123d857856123db565b60005b905060006123e7612ded565b73ffffffffffffffffffffffffffffffffffffffff168673ffffffffffffffffffffffffffffffffffffffff161461241f5785612422565b60005b9050600061242e613c75565b73ffffffffffffffffffffffffffffffffffffffff1663901754d784846040518363ffffffff1660e01b8152600401612468929190614daa565b60206040518083038186803b15801561248057600080fd5b505afa158015612494573d6000803e3d6000fd5b505050506040513d601f19601f820116820180604052506124b8919081019061444b565b905073ffffffffffffffffffffffffffffffffffffffff81166124df57506105ca92505050565b600073ffffffffffffffffffffffffffffffffffffffff8416156125a4576040517f70a0823100000000000000000000000000000000000000000000000000000000815273ffffffffffffffffffffffffffffffffffffffff8516906370a082319061254f908590600401614d50565b60206040518083038186803b15801561256757600080fd5b505afa15801561257b573d6000803e3d6000fd5b505050506040513d601f19601f8201168201806040525061259f91908101906149f6565b6125bd565b8173ffffffffffffffffffffffffffffffffffffffff16315b905060005b85811015612772578781815181106125d657fe5b60200260200101518210156125ea57612772565b600060608473ffffffffffffffffffffffffffffffffffffffff16620249f0600073ffffffffffffffffffffffffffffffffffffffff16631e1401f8905060e01b89898e888151811061263957fe5b602002602001015160405160240161265393929190614e53565b604080517fffffffffffffffffffffffffffffffffffffffffffffffffffffffffffffffe08184030181529181526020820180517bffffffffffffffffffffffffffffffffffffffffffffffffffffffff167fffffffff000000000000000000000000000000000000000000000000000000009094169390931790925290516126dc9190614d34565b6000604051808303818686fa925050503d8060008114612718576040519150601f19603f3d011682016040523d82523d6000602084013e61271d565b606091505b50909250905060008215612742578180602001905161273f91908101906149f6565b90505b8061274f57505050612772565b808a858151811061275c57fe5b60209081029190910101525050506001016125c2565b5050505050509392505050565b6060600082519050806040519080825280602002602001820160405280156127b1578160200160208202803883390190505b50915060005b81811015611fa957600060606127cb613b9a565b73ffffffffffffffffffffffffffffffffffffffff16620249f0600073ffffffffffffffffffffffffffffffffffffffff16631f00ca74905060e01b88868151811061281357fe5b60200260200101518a60405160240161282d9291906152a5565b604080517fffffffffffffffffffffffffffffffffffffffffffffffffffffffffffffffe08184030181529181526020820180517bffffffffffffffffffffffffffffffffffffffffffffffffffffffff167fffffffff000000000000000000000000000000000000000000000000000000009094169390931790925290516128b69190614d34565b6000604051808303818686fa925050503d80600081146128f2576040519150601f19603f3d011682016040523d82523d6000602084013e6128f7565b606091505b50909250905060008215611f7e57818060200190516129199190810190614845565b60008151811061292557fe5b602002602001015190508086858151811061293c57fe5b60209081029190910101525050506001016127b7565b606061295f8484846108d1565b905060005b8451811015610a7e5781818151811061297957fe5b60200260200101516000146129ed576129d482828151811061299757fe5b60200260200101518683815181106129ab57fe5b602002602001015160a001518784815181106129c357fe5b602002602001015160800151613c8d565b8282815181106129e057fe5b6020026020010181815250505b600101612964565b60025473ffffffffffffffffffffffffffffffffffffffff1681565b8073ffffffffffffffffffffffffffffffffffffffff168273ffffffffffffffffffffffffffffffffffffffff161415612a80576040517f08c379a0000000000000000000000000000000000000000000000000000000008152600401612a77906150ac565b60405180910390fd5b5050565b60008060603073ffffffffffffffffffffffffffffffffffffffff16634cb8e25360e01b87806020019051612abc919081019061444b565b87806020019051612ad0919081019061444b565b612ad988613ccf565b604051602401612aeb93929190614d71565b604080517fffffffffffffffffffffffffffffffffffffffffffffffffffffffffffffffe08184030181529181526020820180517bffffffffffffffffffffffffffffffffffffffffffffffffffffffff167fffffffff00000000000000000000000000000000000000000000000000000000909416939093179092529051612b749190614d34565b600060405180830381855afa9150503d8060008114612baf576040519150601f19603f3d011682016040523d82523d6000602084013e612bb4565b606091505b509150915081612bc9576000925050506105ca565b80806020019051612bdd9190810190614845565b600081518110612be957fe5b6020026020010151925050509392505050565b60608151604051908082528060200260200182016040528015612c29578160200160208202803883390190505b509050815160001415612c3b57612dcb565b6000612c6c8460000151856020015185600081518110612c5757fe5b6020026020010151876040015163ffffffff16565b905080612c795750612dcb565b6000612c968560200151866000015184886040015163ffffffff16565b905080612ca55750612dcb9050565b60005b8451811015612dc75760005b6005811015612d8957612cdb868381518110612ccc57fe5b60200260200101518486613c8d565b9350612cec61271561271086613c8d565b93506000612d0b88602001518960000151878b6040015163ffffffff16565b905080612d185750612d89565b809350868381518110612d2757fe5b60200260200101518410612d80576000878481518110612d4357fe5b6020026020010151612710898681518110612d5a57fe5b602002602001015187030281612d6c57fe5b04905060058111612d7e575050612d89565b505b50600101612cb4565b50612da8858281518110612d9957fe5b60200260200101518385613c8d565b848281518110612db457fe5b6020908102919091010152600101612ca8565b5050505b92915050565b60025473ffffffffffffffffffffffffffffffffffffffff1690565b73c02aaa39b223fe8d0a0e5c4f27ead9083c756cc290565b6000806000612e12613d10565b9150915060608173ffffffffffffffffffffffffffffffffffffffff16633d3dc52c612e3c612ded565b73ffffffffffffffffffffffffffffffffffffffff168973ffffffffffffffffffffffffffffffffffffffff1614612e745788612e76565b875b6040518263ffffffff1660e01b8152600401612e929190614d50565b60006040518083038186803b158015612eaa57600080fd5b505afa158015612ebe573d6000803e3d6000fd5b505050506040513d6000823e601f3d9081017fffffffffffffffffffffffffffffffffffffffffffffffffffffffffffffffe0168201604052612f049190810190614845565b604080516000808252602082019092529192505b82518110156131bd576040517f106e9a4b00000000000000000000000000000000000000000000000000000000815273ffffffffffffffffffffffffffffffffffffffff85169063106e9a4b90612f87907331e085afd48a1d6e51cc193153d625e8f0514c7f90600401614d50565b60206040518083038186803b158015612f9f57600080fd5b505afa158015612fb3573d6000803e3d6000fd5b505050506040513d601f19601f82011682018060405250612fd791908101906149f6565b838281518110612fe357fe5b602002602001015114806130be57506040517f106e9a4b00000000000000000000000000000000000000000000000000000000815273ffffffffffffffffffffffffffffffffffffffff85169063106e9a4b90613058907310908c875d865c66f271f5d3949848971c9595c990600401614d50565b60206040518083038186803b15801561307057600080fd5b505afa158015613084573d6000803e3d6000fd5b505050506040513d601f19601f820116820180604052506130a891908101906149f6565b8382815181106130b457fe5b6020026020010151145b8061319057506040517f106e9a4b00000000000000000000000000000000000000000000000000000000815273ffffffffffffffffffffffffffffffffffffffff85169063106e9a4b9061312a90731e158c0e93c30d24e918ef83d1e0be23595c3c0f90600401614d50565b60206040518083038186803b15801561314257600080fd5b505afa158015613156573d6000803e3d6000fd5b505050506040513d601f19601f8201168201806040525061317a91908101906149f6565b83828151811061318657fe5b6020026020010151145b156131b5576131b2828483815181106131a557fe5b6020026020010151613e44565b91505b600101612f18565b5060606131c8612ded565b73ffffffffffffffffffffffffffffffffffffffff168973ffffffffffffffffffffffffffffffffffffffff1614156132df578473ffffffffffffffffffffffffffffffffffffffff166381efcbdd896002856000604051908082528060200260200182016040528015613246578160200160208202803883390190505b506040518563ffffffff1660e01b81526004016132669493929190614ed7565b60006040518083038186803b15801561327e57600080fd5b505afa158015613292573d6000803e3d6000fd5b505050506040513d6000823e601f3d9081017fffffffffffffffffffffffffffffffffffffffffffffffffffffffffffffffe01682016040526132d89190810190614a0e565b90506133bf565b8473ffffffffffffffffffffffffffffffffffffffff166381efcbdd8a600285600060405190808252806020026020018201604052801561332a578160200160208202803883390190505b506040518563ffffffff1660e01b815260040161334a9493929190614ed7565b60006040518083038186803b15801561336257600080fd5b505afa158015613376573d6000803e3d6000fd5b505050506040513d6000823e601f3d9081017fffffffffffffffffffffffffffffffffffffffffffffffffffffffffffffffe01682016040526133bc9190810190614a0e565b90505b600060606133cb613eda565b73ffffffffffffffffffffffffffffffffffffffff166216e3607f418436bc0000000000000000000000000000000000000000000000000000000061340e612ded565b73ffffffffffffffffffffffffffffffffffffffff168e73ffffffffffffffffffffffffffffffffffffffff1614613446578d61345c565b73eeeeeeeeeeeeeeeeeeeeeeeeeeeeeeeeeeeeeeee5b613464612ded565b73ffffffffffffffffffffffffffffffffffffffff168e73ffffffffffffffffffffffffffffffffffffffff161461349c578d6134b2565b73eeeeeeeeeeeeeeeeeeeeeeeeeeeeeeeeeeeeeeee5b8d6000896040516024016134ca959493929190614e84565b604080517fffffffffffffffffffffffffffffffffffffffffffffffffffffffffffffffe08184030181529181526020820180517bffffffffffffffffffffffffffffffffffffffffffffffffffffffff167fffffffff000000000000000000000000000000000000000000000000000000009094169390931790925290516135539190614d34565b6000604051808303818686fa925050503d806000811461358f576040519150601f19603f3d011682016040523d82523d6000602084013e613594565b606091505b509092509050600082156135bd57818060200190516135b691908101906149f6565b90506135ce565b6000985050505050505050506105ca565b60006135d98c613ef6565b60ff16905060006135e98e613ef6565b60ff169050670de0b6b3a764000081600a0a83600a0a8e8602028161360a57fe5b048161361257fe5b049e9d5050505050505050505050505050565b600061362f613f06565b73ffffffffffffffffffffffffffffffffffffffff166306f2bf62836040518263ffffffff1660e01b81526004016136679190614d50565b60206040518083038186803b15801561367f57600080fd5b505afa158015613693573d6000803e3d6000fd5b505050506040513d601f19601f82011682018060405250612dcb919081019061444b565b60008073ffffffffffffffffffffffffffffffffffffffff85166136da576137f8565b60608573ffffffffffffffffffffffffffffffffffffffff16620249f08686604051602401613709919061529c565b604080517fffffffffffffffffffffffffffffffffffffffffffffffffffffffffffffffe08184030181529181526020820180517bffffffffffffffffffffffffffffffffffffffffffffffffffffffff167fffffffff000000000000000000000000000000000000000000000000000000009094169390931790925290516137929190614d34565b6000604051808303818686fa925050503d80600081146137ce576040519150601f19603f3d011682016040523d82523d6000602084013e6137d3565b606091505b50909250905081156137f657808060200190516137f391908101906149f6565b92505b505b935093915050565b60008084806020019051613817919081019061444b565b905060008480602001905161382f919081019061444b565b905060006060307fcdb3b4af0000000000000000000000000000000000000000000000000000000085856138628a613ccf565b60405160240161387493929190614d71565b604080517fffffffffffffffffffffffffffffffffffffffffffffffffffffffffffffffe08184030181529181526020820180517bffffffffffffffffffffffffffffffffffffffffffffffffffffffff167fffffffff000000000000000000000000000000000000000000000000000000009094169390931790925290516138fd9190614d34565b600060405180830381855afa9150503d8060008114613938576040519150601f19603f3d011682016040523d82523d6000602084013e61393d565b606091505b5091509150816139545760009450505050506105ca565b808060200190516139689190810190614845565b60008151811061397457fe5b60200260200101519450505050509392505050565b600080613994614116565b858060200190516139a89190810190614a5d565b915091506000858060200190516139c29190810190614a41565b905060006060307f40bc03ae000000000000000000000000000000000000000000000000000000008587866139f68c613ccf565b604051602401613a099493929190615109565b604080517fffffffffffffffffffffffffffffffffffffffffffffffffffffffffffffffe08184030181529181526020820180517bffffffffffffffffffffffffffffffffffffffffffffffffffffffff167fffffffff00000000000000000000000000000000000000000000000000000000909416939093179092529051613a929190614d34565b600060405180830381855afa9150503d8060008114613acd576040519150601f19603f3d011682016040523d82523d6000602084013e613ad2565b606091505b509150915081613aea576000955050505050506105ca565b80806020019051613afe9190810190614845565b600081518110613b0a57fe5b6020026020010151955050505050509392505050565b600080600085806020019051613b399190810190614467565b91509150600085806020019051613b53919081019061444b565b905060006060307f9f76ad3500000000000000000000000000000000000000000000000000000000858786613b878c613ccf565b604051602401613a099493929190614dd1565b60015473ffffffffffffffffffffffffffffffffffffffff1690565b73e2f2a5c287993345a840db3b0845fbc70f5935a590565b60008160140183511015613bf457613bf4613bef6004855185601401613f22565b613fc7565b50016014015173ffffffffffffffffffffffffffffffffffffffff1690565b60008084806020019051613c2a919081019061444b565b9050600084806020019051613c42919081019061444b565b905060006060307fbc61a6950000000000000000000000000000000000000000000000000000000085856138628a613ccf565b7371cd6666064c3a1354a3b4dca5fa1e2d3ee7d30390565b60006105c783613cc3613ca782600163ffffffff613fcf16565b613cb7888763ffffffff613fee16565b9063ffffffff61401f16565b9063ffffffff61403b16565b604080516001808252818301909252606091602080830190803883390190505090508181600081518110613cff57fe5b602002602001018181525050919050565b600080613d1b613eda565b73ffffffffffffffffffffffffffffffffffffffff1663b78b842d6040518163ffffffff1660e01b815260040160206040518083038186803b158015613d6057600080fd5b505afa158015613d74573d6000803e3d6000fd5b505050506040513d601f19601f82011682018060405250613d98919081019061444b565b73ffffffffffffffffffffffffffffffffffffffff1663c3a2a93a6040518163ffffffff1660e01b815260040160006040518083038186803b158015613ddd57600080fd5b505afa158015613df1573d6000803e3d6000fd5b505050506040513d6000823e601f3d9081017fffffffffffffffffffffffffffffffffffffffffffffffffffffffffffffffe0168201604052613e379190810190614643565b5091955093505050509091565b60608251600101604051908082528060200260200182016040528015613e74578160200160208202803883390190505b50905060005b8351811015613eb657838181518110613e8f57fe5b6020026020010151828281518110613ea357fe5b6020908102919091010152600101613e7a565b508181600183510381518110613ec857fe5b60200260200101818152505092915050565b60035473ffffffffffffffffffffffffffffffffffffffff1690565b6000612dcb82614065565b919050565b60005473ffffffffffffffffffffffffffffffffffffffff1690565b6060632800659560e01b848484604051602401613f4193929190615068565b604080517fffffffffffffffffffffffffffffffffffffffffffffffffffffffffffffffe08184030181529190526020810180517bffffffffffffffffffffffffffffffffffffffffffffffffffffffff167fffffffff000000000000000000000000000000000000000000000000000000009093169290921790915290509392505050565b805160208201fd5b600082821115613fe857613fe8613bef600285856140f7565b50900390565b600082613ffd57506000612dcb565b8282028284828161400a57fe5b04146105ca576105ca613bef600186866140f7565b6000828201838110156105ca576105ca613bef600086866140f7565b60008161405157614051613bef600385856140f7565b600082848161405c57fe5b04949350505050565b600073ffffffffffffffffffffffffffffffffffffffff821673c02aaa39b223fe8d0a0e5c4f27ead9083c756cc214156140a157506012613f01565b6000826040516020016140b49190614cf4565b604080518083037fffffffffffffffffffffffffffffffffffffffffffffffffffffffffffffffe00181529190528051602090910120600f166004019392505050565b606063e946c1bb60e01b848484604051602401613f4193929190615047565b604080516060810182526000808252602082018190529181019190915290565b8035612dcb816153cc565b8051612dcb816153cc565b60008083601f84011261415d578182fd5b50813567ffffffffffffffff811115614174578182fd5b602083019150836020808302850101111561418e57600080fd5b9250929050565b600082601f8301126141a5578081fd5b81356141b86141b382615330565b615309565b8181529150602080830190840160005b838110156141f5576141e08760208435890101614268565b835260209283019291909101906001016141c8565b5050505092915050565b600082601f83011261420f578081fd5b813561421d6141b382615330565b81815291506020808301908481018184028601820187101561423e57600080fd5b60005b8481101561425d57813584529282019290820190600101614241565b505050505092915050565b600082601f830112614278578081fd5b81356142866141b382615350565b915080825283602082850101111561429d57600080fd5b8060208401602084013760009082016020015292915050565b600082601f8301126142c6578081fd5b81516142d46141b382615350565b91508082528360208285010111156142eb57600080fd5b611646816020840160208601615392565b60006101c080838503121561430f578182fd5b61431881615309565b9150506143258383614136565b81526143348360208401614136565b60208201526143468360408401614136565b60408201526143588360608401614136565b60608201526080820135608082015260a082013560a082015260c082013560c082015260e082013560e08201526101008083013581830152506101208083013581830152506101408083013567ffffffffffffffff808211156143ba57600080fd5b6143c686838701614268565b838501526101609250828501359150808211156143e257600080fd5b6143ee86838701614268565b8385015261018092508285013591508082111561440a57600080fd5b61441686838701614268565b838501526101a092508285013591508082111561443257600080fd5b5061443f85828601614268565b82840152505092915050565b60006020828403121561445c578081fd5b81516105ca816153cc565b60008060408385031215614479578081fd5b8251614484816153cc565b6020840151909250614495816153cc565b809150509250929050565b6000806000606084860312156144b4578081fd5b83356144bf816153cc565b925060208401356144cf816153cc565b915060408401356144df816153cc565b809150509250925092565b600080600080600060a08688031215614501578283fd5b853561450c816153cc565b9450602086013561451c816153cc565b9350604086013561452c816153cc565b9250606086013561453c816153cc565b9150608086013567ffffffffffffffff811115614557578182fd5b614563888289016141ff565b9150509295509295909350565b60008060008060808587031215614585578182fd5b8435614590816153cc565b935060208501356145a0816153cc565b925060408501356145b0816153cc565b9150606085013567ffffffffffffffff8111156145cb578182fd5b6145d7878288016141ff565b91505092959194509250565b6000806000606084860312156145f7578081fd5b8335614602816153cc565b92506020840135614612816153cc565b9150604084013567ffffffffffffffff81111561462d578182fd5b614639868287016141ff565b9150509250925092565b60008060008060008060c0878903121561465b578384fd5b8651614666816153cc565b80965050602080880151614679816153cc565b604089015190965061468a816153cc565b606089015190955061469b816153cc565b60808901519094506146ac816153cc565b60a089015190935067ffffffffffffffff8111156146c8578283fd5b8089018a601f8201126146d9578384fd5b805191506146e96141b383615330565b82815283810190828501858502840186018e1015614705578687fd5b8693505b8484101561472f5761471b8e82614141565b835260019390930192918501918501614709565b5080955050505050509295509295509295565b60008060208385031215614754578182fd5b823567ffffffffffffffff81111561476a578283fd5b6147768582860161414c565b90969095509350505050565b60008060408385031215614794578182fd5b823567ffffffffffffffff808211156147ab578384fd5b81850186601f8201126147bc578485fd5b803592506147cc6141b384615330565b80848252602080830192508084018a8283890287010111156147ec578889fd5b8894505b86851015614817578035614803816153cc565b8452600194909401939281019281016147f0565b50909650870135935050508082111561482e578283fd5b5061483b858286016141ff565b9150509250929050565b60006020808385031215614857578182fd5b825167ffffffffffffffff81111561486d578283fd5b80840185601f82011261487e578384fd5b8051915061488e6141b383615330565b82815283810190828501858502840186018910156148aa578687fd5b8693505b848410156148cc5780518352600193909301929185019185016148ae565b50979650505050505050565b6000806000606084860312156148ec578081fd5b833567ffffffffffffffff80821115614903578283fd5b81860187601f820112614914578384fd5b803592506149246141b384615330565b83815260208082019190838101875b8781101561495c5761494a8d8484358901016142fc565b85529382019390820190600101614933565b50919850890135945050505080821115614974578283fd5b5061498186828701614195565b9250506149918560408601614136565b90509250925092565b6000806000606084860312156149ae578081fd5b835180151581146149bd578182fd5b602085015190935067ffffffffffffffff8111156149d9578182fd5b6149e5868287016142b6565b925050604084015190509250925092565b600060208284031215614a07578081fd5b5051919050565b600060208284031215614a1f578081fd5b815167ffffffffffffffff811115614a35578182fd5b611b37848285016142b6565b600060208284031215614a52578081fd5b81516105ca8161541c565b60008060808385031215614a6f578182fd5b8251614a7a8161541c565b915060608385037fffffffffffffffffffffffffffffffffffffffffffffffffffffffffffffffe0011215614aad578081fd5b614ab76060615309565b6020840151614ac5816153cc565b81526040840151614ad5816153ee565b60208201526060840151614ae8816153ee565b6040820152919491935090915050565b60008060008084860360c0811215614b0e578283fd5b6060811215614b1b578283fd5b50614b266060615309565b8535614b31816153cc565b81526020860135614b41816153ee565b60208201526040860135614b54816153ee565b604082015293506060850135614b698161541c565b92506080850135614b798161541c565b915060a085013567ffffffffffffffff8111156145cb578182fd5b600080600060608486031215614ba8578081fd5b833567ffffffffffffffff80821115614bbf578283fd5b614bcb878388016142fc565b94506020860135915080821115614be0578283fd5b50614bed86828701614268565b92505060408401356144df816153cc565b73ffffffffffffffffffffffffffffffffffffffff169052565b6000815180845260208401935060208301825b82811015614c49578151865260209586019590910190600101614c2b565b5093949350505050565b60008151808452614c6b816020860160208601615392565b601f017fffffffffffffffffffffffffffffffffffffffffffffffffffffffffffffffe0169290920160200192915050565b805173ffffffffffffffffffffffffffffffffffffffff1682526020808201517fffffffff000000000000000000000000000000000000000000000000000000009081169184019190915260409182015116910152565b60609190911b7fffffffffffffffffffffffffffffffffffffffff00000000000000000000000016815260140190565b6000828483379101908152919050565b60008251614d46818460208701615392565b9190910192915050565b73ffffffffffffffffffffffffffffffffffffffff91909116815260200190565b600073ffffffffffffffffffffffffffffffffffffffff80861683528085166020840152506060604083015261083a6060830184614c18565b73ffffffffffffffffffffffffffffffffffffffff92831681529116602082015260400190565b600073ffffffffffffffffffffffffffffffffffffffff8087168352808616602084015280851660408401525060806060830152614e126080830184614c18565b9695505050505050565b73ffffffffffffffffffffffffffffffffffffffff9485168152928416602084015292166040820152606081019190915260800190565b73ffffffffffffffffffffffffffffffffffffffff9384168152919092166020820152604081019190915260600190565b600073ffffffffffffffffffffffffffffffffffffffff808816835280871660208401525084604083015260ff8416606083015260a06080830152614ecc60a0830184614c53565b979650505050505050565b60006080820173ffffffffffffffffffffffffffffffffffffffff87168352614eff866153c2565b60208381018790526080604085015285519182905285019060a0840190835b81811015614f3c578351835260209384019390920191600101614f1e565b50508381036060850152614f508186614c18565b98975050505050505050565b6020808252810182905260008360408301825b85811015614fac578235614f82816153cc565b73ffffffffffffffffffffffffffffffffffffffff16825260209283019290910190600101614f6f565b5095945050505050565b6000602080830181845280855180835260408601915060408482028701019250838701855b82811015615027577fffffffffffffffffffffffffffffffffffffffffffffffffffffffffffffffc0888603018452615015858351614c53565b94509285019290850190600101614fdb565b5092979650505050505050565b6000602082526105ca6020830184614c18565b60608101615054856153c2565b938152602081019290925260409091015290565b606081016008851061505457fe5b600f93840b81529190920b6020820152604081019190915260600190565b600f83900b8152608081016105ca6020830184614c9d565b60208082526025908201527f455243323042726964676553616d706c65722f494e56414c49445f544f4b454e60408201527f5f50414952000000000000000000000000000000000000000000000000000000606082015260800190565b60006151158287614c9d565b84600f0b606083015283600f0b608083015260c060a0830152614e1260c0830184614c18565b60006060825261514f606083018651614bfe565b60208501516151616080840182614bfe565b50604085015161517460a0840182614bfe565b50606085015161518760c0840182614bfe565b50608085015160e083015260a0850151610100818185015260c08701519150610120828186015260e0880151925061014083818701528289015193506101609250838387015281890151935061018091508382870152808901519350506101c06101a081818801526151fd610220880186614c53565b848b015195507fffffffffffffffffffffffffffffffffffffffffffffffffffffffffffffffa094508488820301838901526152398187614c53565b925050828a0151945083878303016101e08801526152578286614c53565b9250808a01519450505081858203016102008601526152768184614c53565b915050838103602085015261528b8187614c53565b92505050611b376040830184614bfe565b90815260200190565b60006040820184835260406020840152808451808352606085019150602086019250835b818110156152fd57835173ffffffffffffffffffffffffffffffffffffffff168352602093840193909201916001016152c9565b50909695505050505050565b60405181810167ffffffffffffffff8111828210171561532857600080fd5b604052919050565b600067ffffffffffffffff821115615346578081fd5b5060209081020190565b600067ffffffffffffffff821115615366578081fd5b50601f017fffffffffffffffffffffffffffffffffffffffffffffffffffffffffffffffe01660200190565b60005b838110156153ad578181015183820152602001615395565b838111156153bc576000848401525b50505050565b6004811061061157fe5b73ffffffffffffffffffffffffffffffffffffffff8116811461061157600080fd5b7fffffffff000000000000000000000000000000000000000000000000000000008116811461061157600080fd5b80600f0b811461061157600080fdfea365627a7a7231582045733a678a340cdffc49415bd7415cde52cf0ab5c7078321bdd9f56afe1509846c6578706572696d656e74616cf564736f6c63430005110040608060405234801561001057600080fd5b506108c7806100206000396000f3fe608060405234801561001057600080fd5b50600436106100365760003560e01c806306f2bf621461003b5780633126865714610064575b600080fd5b61004e610049366004610173565b610079565b60405161005b919061021a565b60405180910390f35b6100776100723660046101ae565b6100a4565b005b73ffffffffffffffffffffffffffffffffffffffff9081166000908152602081905260409020541690565b60005b818110156101615760008383838181106100bd57fe5b90506020020160206100d29190810190610173565b9050806040516100e190610166565b6100eb919061021a565b604051809103906000f080158015610107573d6000803e3d6000fd5b5073ffffffffffffffffffffffffffffffffffffffff918216600090815260208190526040902080547fffffffffffffffffffffffff000000000000000000000000000000000000000016919092161790556001016100a7565b505050565b6106498061023c83390190565b600060208284031215610184578081fd5b813573ffffffffffffffffffffffffffffffffffffffff811681146101a7578182fd5b9392505050565b600080602083850312156101c0578081fd5b823567ffffffffffffffff808211156101d7578283fd5b81850186601f8201126101e8578384fd5b80359250818311156101f8578384fd5b866020808502830101111561020b578384fd5b60200196919550909350505050565b73ffffffffffffffffffffffffffffffffffffffff9190911681526020019056fe608060405234801561001057600080fd5b5060405161064938038061064983398101604081905261002f9161009e565b600080546001600160a01b0319166001600160a01b03831617905560405161007d907f1d6a6a0506b0b4a554b907a4c29d9f4674e461989d9c1921feb17b26716385ab9083906020016100cc565b60408051601f198184030181529190528051602090910120600155506100e7565b6000602082840312156100af578081fd5b81516001600160a01b03811681146100c5578182fd5b9392505050565b91825260601b6001600160601b031916602082015260340190565b610553806100f66000396000f3fe60806040526004361061007b5760003560e01c80639d76ea581161004e5780639d76ea58146100e0578063bfa0b13314610102578063cd72d78914610117578063cd7724c3146100c05761007b565b806311f2928b146100805780632640f62c1461008a57806359e948621461008a57806395b68fe7146100c0575b600080fd5b61008861012c565b005b34801561009657600080fd5b506100aa6100a5366004610429565b61016f565b6040516100b791906104d0565b60405180910390f35b3480156100cc57600080fd5b506100aa6100db366004610429565b6101ae565b3480156100ec57600080fd5b506100f56101e7565b6040516100b791906104af565b34801561010e57600080fd5b506100aa610203565b34801561012357600080fd5b506100f5610209565b60405173e9db8717bc5dfb20aaf538b4a5a02b7791ff430c903480156108fc02916000818181858888f1935050505015801561016c573d6000803e3d6000fd5b50565b6000610179610221565b6101a6600154610187610279565b60005473ffffffffffffffffffffffffffffffffffffffff1685610291565b90505b919050565b60006101b8610221565b6001546000546101a6919073ffffffffffffffffffffffffffffffffffffffff166101e1610279565b856102f2565b60005473ffffffffffffffffffffffffffffffffffffffff1681565b60015481565b73e9db8717bc5dfb20aaf538b4a5a02b7791ff430c81565b73e9db8717bc5dfb20aaf538b4a5a02b7791ff430c3115610277576040517f08c379a000000000000000000000000000000000000000000000000000000000815260040161026e906104d9565b60405180910390fd5b565b73c02aaa39b223fe8d0a0e5c4f27ead9083c756cc290565b60008061029d8561033e565b60ff16600a0a905060006102b08561033e565b60ff16600a0a905060006102c58888886103d0565b9050818184670de0b6b3a7640000880202816102dd57fe5b04816102e557fe5b0498975050505050505050565b6000806102fe8561033e565b60ff16600a0a905060006103118561033e565b60ff16600a0a905060006103268888886103d0565b9050670de0b6b3a7640000838383880202816102dd57fe5b600073ffffffffffffffffffffffffffffffffffffffff821673c02aaa39b223fe8d0a0e5c4f27ead9083c756cc2141561037a575060126101a9565b60008260405160200161038d9190610441565b604080518083037fffffffffffffffffffffffffffffffffffffffffffffffffffffffffffffffe00181529190528051602090910120600f166004019392505050565b6000808484846040516020016103e893929190610471565b6040516020818303038152906040528051906020012090506064670de0b6b3a76400008161041257fe5b0468056ba3d73af34f000082060195945050505050565b60006020828403121561043a578081fd5b5035919050565b60609190911b7fffffffffffffffffffffffffffffffffffffffff00000000000000000000000016815260140190565b9283527fffffffffffffffffffffffffffffffffffffffff000000000000000000000000606092831b81166020850152911b16603482015260480190565b73ffffffffffffffffffffffffffffffffffffffff91909116815260200190565b90815260200190565b6020808252600e908201527f4641494c5f54524947474552454400000000000000000000000000000000000060408201526060019056fea365627a7a723158201405b4a9b1505b97543dd616cd76d69501ad84a6c6b4bdd468d9900e1e51837b6c6578706572696d656e74616cf564736f6c63430005110040a365627a7a723158203c184ce5ced55d410b1a060d98b657ff3f064c6b3f34feda1bcbf70f1e4f9e336c6578706572696d656e74616cf564736f6c63430005110040608060405234801561001057600080fd5b50610846806100206000396000f3fe60806040526004361061003f5760003560e01c806311f2928b146100445780631f00ca741461004e578063cd72d78914610084578063d06ca61f146100a6575b600080fd5b61004c6100c6565b005b34801561005a57600080fd5b5061006e61006936600461064c565b610109565b60405161007b9190610752565b60405180910390f35b34801561009057600080fd5b506100996102b5565b60405161007b9190610731565b3480156100b257600080fd5b5061006e6100c136600461064c565b6102cd565b60405173e9db8717bc5dfb20aaf538b4a5a02b7791ff430c903480156108fc02916000818181858888f19350505050158015610106573d6000803e3d6000fd5b50565b6060600282101561014f576040517f08c379a0000000000000000000000000000000000000000000000000000000008152600401610146906107cc565b60405180910390fd5b610157610428565b604080518381526020808502820101909152828015610180578160200160208202803883390190505b5090508381600185859050038151811061019657fe5b60209081029190910101527fffffffffffffffffffffffffffffffffffffffffffffffffffffffffffffffff82015b80156102ad5761026c7fadc7fcb33c735913b8635927e66896b356a53a912ab2ceff929e60a04b53b3c185857fffffffffffffffffffffffffffffffffffffffffffffffffffffffffffffffff850181811061021d57fe5b90506020020160206102329190810190610611565b86868581811061023e57fe5b90506020020160206102539190810190610611565b85858151811061025f57fe5b6020026020010151610477565b82600183038151811061027b57fe5b60209081029190910101527fffffffffffffffffffffffffffffffffffffffffffffffffffffffffffffffff016101c5565b509392505050565b73e9db8717bc5dfb20aaf538b4a5a02b7791ff430c81565b6060600282101561030a576040517f08c379a0000000000000000000000000000000000000000000000000000000008152600401610146906107cc565b610312610428565b60408051838152602080850282010190915282801561033b578160200160208202803883390190505b509050838160008151811061034c57fe5b602090810291909101015260005b7fffffffffffffffffffffffffffffffffffffffffffffffffffffffffffffffff83018110156102ad576104067fadc7fcb33c735913b8635927e66896b356a53a912ab2ceff929e60a04b53b3c18585848181106103b457fe5b90506020020160206103c99190810190610611565b8686856001018181106103d857fe5b90506020020160206103ed9190810190610611565b8585815181106103f957fe5b60200260200101516104d8565b82826001018151811061041557fe5b602090810291909101015260010161035a565b73e9db8717bc5dfb20aaf538b4a5a02b7791ff430c3115610475576040517f08c379a000000000000000000000000000000000000000000000000000000000815260040161014690610795565b565b60008061048385610524565b60ff16600a0a9050600061049685610524565b60ff16600a0a905060006104ab8888886105b8565b9050818184670de0b6b3a7640000880202816104c357fe5b04816104cb57fe5b0498975050505050505050565b6000806104e485610524565b60ff16600a0a905060006104f785610524565b60ff16600a0a9050600061050c8888886105b8565b9050670de0b6b3a7640000838383880202816104c357fe5b600073ffffffffffffffffffffffffffffffffffffffff821673c02aaa39b223fe8d0a0e5c4f27ead9083c756cc21415610560575060126105b3565b60008260405160200161057391906106c3565b604080518083037fffffffffffffffffffffffffffffffffffffffffffffffffffffffffffffffe00181529190528051602090910120600f166004019150505b919050565b6000808484846040516020016105d0939291906106f3565b6040516020818303038152906040528051906020012090506064670de0b6b3a7640000816105fa57fe5b0468056ba3d73af34f000082060195945050505050565b600060208284031215610622578081fd5b813573ffffffffffffffffffffffffffffffffffffffff81168114610645578182fd5b9392505050565b600080600060408486031215610660578182fd5b83359250602084013567ffffffffffffffff8082111561067e578384fd5b81860187601f82011261068f578485fd5b803592508183111561069f578485fd5b87602080850283010111156106b2578485fd5b949760209095019650909450505050565b60609190911b7fffffffffffffffffffffffffffffffffffffffff00000000000000000000000016815260140190565b9283527fffffffffffffffffffffffffffffffffffffffff000000000000000000000000606092831b81166020850152911b16603482015260480190565b73ffffffffffffffffffffffffffffffffffffffff91909116815260200190565b602080825282518282018190526000918401906040840190835b8181101561078a57835183526020938401939092019160010161076c565b509095945050505050565b6020808252600e908201527f4641494c5f545249474745524544000000000000000000000000000000000000604082015260600190565b6020808252600e908201527f504154485f544f4f5f53484f525400000000000000000000000000000000000060408201526060019056fea365627a7a7231582029c01d3bfa89c359d8779ae0b1e2cf7225ca7bf667f8d0286905ad33159086bd6c6578706572696d656e74616cf564736f6c63430005110040608060405234801561001057600080fd5b506104fb806100206000396000f3fe60806040526004361061003f5760003560e01c806311f2928b14610044578063144a27521461004e578063cd72d78914610084578063ff1fd974146100a6575b600080fd5b61004c6100c6565b005b34801561005a57600080fd5b5061006e610069366004610387565b610109565b60405161007b919061048d565b60405180910390f35b34801561009057600080fd5b50610099610147565b60405161007b9190610435565b3480156100b257600080fd5b5061006e6100c1366004610387565b61015f565b60405173e9db8717bc5dfb20aaf538b4a5a02b7791ff430c903480156108fc02916000818181858888f19350505050158015610106573d6000803e3d6000fd5b50565b6000610113610195565b61013f7fb713b61bb9bb2958a0f5d1534b21e94fc68c4c0c034b0902ed844f2f6cd1b4f78486856101ed565b949350505050565b73e9db8717bc5dfb20aaf538b4a5a02b7791ff430c81565b6000610169610195565b61013f7fb713b61bb9bb2958a0f5d1534b21e94fc68c4c0c034b0902ed844f2f6cd1b4f785858561024e565b73e9db8717bc5dfb20aaf538b4a5a02b7791ff430c31156101eb576040517f08c379a00000000000000000000000000000000000000000000000000000000081526004016101e290610456565b60405180910390fd5b565b6000806101f98561029a565b60ff16600a0a9050600061020c8561029a565b60ff16600a0a9050600061022188888861032e565b9050670de0b6b3a76400008383838802028161023957fe5b048161024157fe5b0498975050505050505050565b60008061025a8561029a565b60ff16600a0a9050600061026d8561029a565b60ff16600a0a9050600061028288888861032e565b9050818184670de0b6b3a76400008802028161023957fe5b600073ffffffffffffffffffffffffffffffffffffffff821673c02aaa39b223fe8d0a0e5c4f27ead9083c756cc214156102d657506012610329565b6000826040516020016102e991906103c7565b604080518083037fffffffffffffffffffffffffffffffffffffffffffffffffffffffffffffffe00181529190528051602090910120600f166004019150505b919050565b600080848484604051602001610346939291906103f7565b6040516020818303038152906040528051906020012090506064670de0b6b3a76400008161037057fe5b0468056ba3d73af34f000082060195945050505050565b60008060006060848603121561039b578283fd5b83356103a681610496565b925060208401356103b681610496565b929592945050506040919091013590565b60609190911b7fffffffffffffffffffffffffffffffffffffffff00000000000000000000000016815260140190565b9283527fffffffffffffffffffffffffffffffffffffffff000000000000000000000000606092831b81166020850152911b16603482015260480190565b73ffffffffffffffffffffffffffffffffffffffff91909116815260200190565b6020808252600e908201527f4641494c5f545249474745524544000000000000000000000000000000000000604082015260600190565b90815260200190565b73ffffffffffffffffffffffffffffffffffffffff8116811461010657600080fdfea365627a7a723158205fbf50ed9309e7a918014870f9ecc846cd8f09a4fc1c269aa7ce6806e1300a076c6578706572696d656e74616cf564736f6c63430005110040608060405234801561001057600080fd5b50610967806100206000396000f3fe6080604052600436106100bc5760003560e01c8063809a9e5511610074578063b78b842d1161004e578063b78b842d146101cb578063c3a2a93a146101e0578063cd72d78914610207576100bc565b8063809a9e551461017b57806381efcbdd1461014e578063a734f06e146101a9576100bc565b80633d3dc52c116100a55780633d3dc52c14610101578063418436bc1461012e57806361e597f91461014e576100bc565b8063106e9a4b146100c157806311f2928b146100f7575b600080fd5b3480156100cd57600080fd5b506100e16100dc36600461057b565b61021c565b6040516100ee9190610843565b60405180910390f35b6100ff610222565b005b34801561010d57600080fd5b5061012161011c36600461057b565b610265565b6040516100ee9190610800565b34801561013a57600080fd5b506100e16101493660046105dd565b61026b565b34801561015a57600080fd5b5061016e610169366004610681565b61032d565b6040516100ee919061084c565b34801561018757600080fd5b5061019b61019636600461059d565b610339565b6040516100ee9291906108f4565b3480156101b557600080fd5b506101be6103fb565b6040516100ee9190610753565b3480156101d757600080fd5b506101be610413565b3480156101ec57600080fd5b506101f5610417565b6040516100ee96959493929190610774565b34801561021357600080fd5b506101be610427565b50600090565b60405173e9db8717bc5dfb20aaf538b4a5a02b7791ff430c903480156108fc02916000818181858888f19350505050158015610262573d6000803e3d6000fd5b50565b50606090565b600061027561043f565b73ffffffffffffffffffffffffffffffffffffffff871673eeeeeeeeeeeeeeeeeeeeeeeeeeeeeeeeeeeeeeee146102ac57866102b4565b6102b4610497565b965073ffffffffffffffffffffffffffffffffffffffff861673eeeeeeeeeeeeeeeeeeeeeeeeeeeeeeeeeeeeeeee146102ed57856102f5565b6102f5610497565b95506103227f0ff3ca9d46195c39f9a12afb74207b4970349fb3cfb1e459bbf170298d326bc788886104af565b979650505050505050565b60609695505050505050565b60008061034461043f565b73ffffffffffffffffffffffffffffffffffffffff851673eeeeeeeeeeeeeeeeeeeeeeeeeeeeeeeeeeeeeeee1461037b5784610383565b610383610497565b945073ffffffffffffffffffffffffffffffffffffffff841673eeeeeeeeeeeeeeeeeeeeeeeeeeeeeeeeeeeeeeee146103bc57836103c4565b6103c4610497565b93506103f17f0ff3ca9d46195c39f9a12afb74207b4970349fb3cfb1e459bbf170298d326bc786866104af565b9150935093915050565b73eeeeeeeeeeeeeeeeeeeeeeeeeeeeeeeeeeeeeeee81565b3090565b6000803080826060909192939495565b73e9db8717bc5dfb20aaf538b4a5a02b7791ff430c81565b73e9db8717bc5dfb20aaf538b4a5a02b7791ff430c3115610495576040517f08c379a000000000000000000000000000000000000000000000000000000000815260040161048c906108bd565b60405180910390fd5b565b73c02aaa39b223fe8d0a0e5c4f27ead9083c756cc290565b6000808484846040516020016104c793929190610715565b6040516020818303038152906040528051906020012090506064670de0b6b3a7640000816104f157fe5b0468056ba3d73af34f000082060195945050505050565b803573ffffffffffffffffffffffffffffffffffffffff8116811461052c57600080fd5b92915050565b60008083601f840112610543578182fd5b50813567ffffffffffffffff81111561055a578182fd5b602083019150836020808302850101111561057457600080fd5b9250929050565b60006020828403121561058c578081fd5b6105968383610508565b9392505050565b6000806000606084860312156105b1578182fd5b83356105bc81610902565b925060208401356105cc81610902565b929592945050506040919091013590565b60008060008060008060a087890312156105f5578182fd5b863561060081610902565b9550602087013561061081610902565b94506040870135935060608701359250608087013567ffffffffffffffff8082111561063a578384fd5b8189018a601f82011261064b578485fd5b803592508183111561065b578485fd5b8a602084830101111561066c578485fd5b979a9699509497509295602001949293505050565b60008060008060008060808789031215610699578182fd5b6106a38888610508565b95506020870135600481106106b6578283fd5b9450604087013567ffffffffffffffff808211156106d2578384fd5b6106de8a838b01610532565b909650945060608901359150808211156106f6578384fd5b5061070389828a01610532565b979a9699509497509295939492505050565b9283527fffffffffffffffffffffffffffffffffffffffff000000000000000000000000606092831b81166020850152911b16603482015260480190565b73ffffffffffffffffffffffffffffffffffffffff91909116815260200190565b600060c0820173ffffffffffffffffffffffffffffffffffffffff808a168452808916602085015280881660408501528087166060850152808616608085015260c060a085015281855180845260e086019150602087019350845b818110156107ef57845184168352602094850194909201916001016107cf565b50909b9a5050505050505050505050565b602080825282518282018190526000918401906040840190835b8181101561083857835183526020938401939092019160010161081a565b509095945050505050565b90815260200190565b6000602082528251806020840152815b81811015610879576020818601810151604086840101520161085c565b8181111561088a5782604083860101525b50601f017fffffffffffffffffffffffffffffffffffffffffffffffffffffffffffffffe0169190910160400192915050565b6020808252600e908201527f4641494c5f545249474745524544000000000000000000000000000000000000604082015260600190565b918252602082015260400190565b73ffffffffffffffffffffffffffffffffffffffff8116811461026257600080fdfea365627a7a72315820fb03ace8b3fc1a194994eb4339fc05edfb78d43ce8c7dc731df6b360580d3d246c6578706572696d656e74616cf564736f6c63430005110040",
                "opcodes": "PUSH1 0x80 PUSH1 0x40 MSTORE CALLVALUE DUP1 ISZERO PUSH3 0x11 JUMPI PUSH1 0x0 DUP1 REVERT JUMPDEST POP PUSH1 0x40 MLOAD PUSH3 0x20 SWAP1 PUSH3 0x148 JUMP JUMPDEST PUSH1 0x40 MLOAD DUP1 SWAP2 SUB SWAP1 PUSH1 0x0 CREATE DUP1 ISZERO DUP1 ISZERO PUSH3 0x3D JUMPI RETURNDATASIZE PUSH1 0x0 DUP1 RETURNDATACOPY RETURNDATASIZE PUSH1 0x0 REVERT JUMPDEST POP PUSH1 0x0 DUP1 SLOAD PUSH1 0x1 PUSH1 0x1 PUSH1 0xA0 SHL SUB NOT AND PUSH1 0x1 PUSH1 0x1 PUSH1 0xA0 SHL SUB SWAP3 SWAP1 SWAP3 AND SWAP2 SWAP1 SWAP2 OR SWAP1 SSTORE PUSH1 0x40 MLOAD PUSH3 0x6C SWAP1 PUSH3 0x156 JUMP JUMPDEST PUSH1 0x40 MLOAD DUP1 SWAP2 SUB SWAP1 PUSH1 0x0 CREATE DUP1 ISZERO DUP1 ISZERO PUSH3 0x89 JUMPI RETURNDATASIZE PUSH1 0x0 DUP1 RETURNDATACOPY RETURNDATASIZE PUSH1 0x0 REVERT JUMPDEST POP PUSH1 0x1 DUP1 SLOAD PUSH1 0x1 PUSH1 0x1 PUSH1 0xA0 SHL SUB NOT AND PUSH1 0x1 PUSH1 0x1 PUSH1 0xA0 SHL SUB SWAP3 SWAP1 SWAP3 AND SWAP2 SWAP1 SWAP2 OR SWAP1 SSTORE PUSH1 0x40 MLOAD PUSH3 0xB8 SWAP1 PUSH3 0x164 JUMP JUMPDEST PUSH1 0x40 MLOAD DUP1 SWAP2 SUB SWAP1 PUSH1 0x0 CREATE DUP1 ISZERO DUP1 ISZERO PUSH3 0xD5 JUMPI RETURNDATASIZE PUSH1 0x0 DUP1 RETURNDATACOPY RETURNDATASIZE PUSH1 0x0 REVERT JUMPDEST POP PUSH1 0x2 DUP1 SLOAD PUSH1 0x1 PUSH1 0x1 PUSH1 0xA0 SHL SUB NOT AND PUSH1 0x1 PUSH1 0x1 PUSH1 0xA0 SHL SUB SWAP3 SWAP1 SWAP3 AND SWAP2 SWAP1 SWAP2 OR SWAP1 SSTORE PUSH1 0x40 MLOAD PUSH3 0x104 SWAP1 PUSH3 0x172 JUMP JUMPDEST PUSH1 0x40 MLOAD DUP1 SWAP2 SUB SWAP1 PUSH1 0x0 CREATE DUP1 ISZERO DUP1 ISZERO PUSH3 0x121 JUMPI RETURNDATASIZE PUSH1 0x0 DUP1 RETURNDATACOPY RETURNDATASIZE PUSH1 0x0 REVERT JUMPDEST POP PUSH1 0x3 DUP1 SLOAD PUSH1 0x1 PUSH1 0x1 PUSH1 0xA0 SHL SUB NOT AND PUSH1 0x1 PUSH1 0x1 PUSH1 0xA0 SHL SUB SWAP3 SWAP1 SWAP3 AND SWAP2 SWAP1 SWAP2 OR SWAP1 SSTORE PUSH3 0x180 JUMP JUMPDEST PUSH2 0x8E7 DUP1 PUSH3 0x55FE DUP4 CODECOPY ADD SWAP1 JUMP JUMPDEST PUSH2 0x866 DUP1 PUSH3 0x5EE5 DUP4 CODECOPY ADD SWAP1 JUMP JUMPDEST PUSH2 0x51B DUP1 PUSH3 0x674B DUP4 CODECOPY ADD SWAP1 JUMP JUMPDEST PUSH2 0x987 DUP1 PUSH3 0x6C66 DUP4 CODECOPY ADD SWAP1 JUMP JUMPDEST PUSH2 0x546E DUP1 PUSH3 0x190 PUSH1 0x0 CODECOPY PUSH1 0x0 RETURN INVALID PUSH1 0x80 PUSH1 0x40 MSTORE PUSH1 0x4 CALLDATASIZE LT PUSH2 0x1C2 JUMPI PUSH1 0x0 CALLDATALOAD PUSH1 0xE0 SHR DUP1 PUSH4 0x68BE3CF2 GT PUSH2 0xF7 JUMPI DUP1 PUSH4 0xBC61A695 GT PUSH2 0x95 JUMPI DUP1 PUSH4 0xCDB3B4AF GT PUSH2 0x64 JUMPI DUP1 PUSH4 0xCDB3B4AF EQ PUSH2 0x4E2 JUMPI DUP1 PUSH4 0xE68248F7 EQ PUSH2 0x502 JUMPI DUP1 PUSH4 0xE9A8E442 EQ PUSH2 0x522 JUMPI DUP1 PUSH4 0xFEA12A03 EQ PUSH2 0x542 JUMPI PUSH2 0x1C2 JUMP JUMPDEST DUP1 PUSH4 0xBC61A695 EQ PUSH2 0x46D JUMPI DUP1 PUSH4 0xC7F7142E EQ PUSH2 0x48D JUMPI DUP1 PUSH4 0xCA7893BA EQ PUSH2 0x4AD JUMPI DUP1 PUSH4 0xCD72D789 EQ PUSH2 0x4CD JUMPI PUSH2 0x1C2 JUMP JUMPDEST DUP1 PUSH4 0x9F76AD35 GT PUSH2 0xD1 JUMPI DUP1 PUSH4 0x9F76AD35 EQ PUSH2 0x3F8 JUMPI DUP1 PUSH4 0xA2C28D4B EQ PUSH2 0x418 JUMPI DUP1 PUSH4 0xA2D10BA5 EQ PUSH2 0x438 JUMPI DUP1 PUSH4 0xABFFC761 EQ PUSH2 0x44D JUMPI PUSH2 0x1C2 JUMP JUMPDEST DUP1 PUSH4 0x68BE3CF2 EQ PUSH2 0x38B JUMPI DUP1 PUSH4 0x6DD6B78D EQ PUSH2 0x3B8 JUMPI DUP1 PUSH4 0x9209483B EQ PUSH2 0x3D8 JUMPI PUSH2 0x1C2 JUMP JUMPDEST DUP1 PUSH4 0x3B77EBAE GT PUSH2 0x164 JUMPI DUP1 PUSH4 0x4CB8E253 GT PUSH2 0x13E JUMPI DUP1 PUSH4 0x4CB8E253 EQ PUSH2 0x30B JUMPI DUP1 PUSH4 0x60EE052A EQ PUSH2 0x32B JUMPI DUP1 PUSH4 0x64EE6ADE EQ PUSH2 0x34B JUMPI DUP1 PUSH4 0x67B881E7 EQ PUSH2 0x36B JUMPI PUSH2 0x1C2 JUMP JUMPDEST DUP1 PUSH4 0x3B77EBAE EQ PUSH2 0x29E JUMPI DUP1 PUSH4 0x40BC03AE EQ PUSH2 0x2CB JUMPI DUP1 PUSH4 0x4703A7E6 EQ PUSH2 0x2EB JUMPI PUSH2 0x1C2 JUMP JUMPDEST DUP1 PUSH4 0x2681F7E4 GT PUSH2 0x1A0 JUMPI DUP1 PUSH4 0x2681F7E4 EQ PUSH2 0x229 JUMPI DUP1 PUSH4 0x2D753AA4 EQ PUSH2 0x23E JUMPI DUP1 PUSH4 0x31268657 EQ PUSH2 0x25E JUMPI DUP1 PUSH4 0x39B085AD EQ PUSH2 0x27E JUMPI PUSH2 0x1C2 JUMP JUMPDEST DUP1 PUSH4 0xCC6600B EQ PUSH2 0x1C7 JUMPI DUP1 PUSH4 0x11F2928B EQ PUSH2 0x1FD JUMPI DUP1 PUSH4 0x1694505E EQ PUSH2 0x207 JUMPI JUMPDEST PUSH1 0x0 DUP1 REVERT JUMPDEST CALLVALUE DUP1 ISZERO PUSH2 0x1D3 JUMPI PUSH1 0x0 DUP1 REVERT JUMPDEST POP PUSH2 0x1E7 PUSH2 0x1E2 CALLDATASIZE PUSH1 0x4 PUSH2 0x45E3 JUMP JUMPDEST PUSH2 0x557 JUMP JUMPDEST PUSH1 0x40 MLOAD PUSH2 0x1F4 SWAP2 SWAP1 PUSH2 0x5034 JUMP JUMPDEST PUSH1 0x40 MLOAD DUP1 SWAP2 SUB SWAP1 RETURN JUMPDEST PUSH2 0x205 PUSH2 0x5D1 JUMP JUMPDEST STOP JUMPDEST CALLVALUE DUP1 ISZERO PUSH2 0x213 JUMPI PUSH1 0x0 DUP1 REVERT JUMPDEST POP PUSH2 0x21C PUSH2 0x614 JUMP JUMPDEST PUSH1 0x40 MLOAD PUSH2 0x1F4 SWAP2 SWAP1 PUSH2 0x4D50 JUMP JUMPDEST CALLVALUE DUP1 ISZERO PUSH2 0x235 JUMPI PUSH1 0x0 DUP1 REVERT JUMPDEST POP PUSH2 0x21C PUSH2 0x630 JUMP JUMPDEST CALLVALUE DUP1 ISZERO PUSH2 0x24A JUMPI PUSH1 0x0 DUP1 REVERT JUMPDEST POP PUSH2 0x1E7 PUSH2 0x259 CALLDATASIZE PUSH1 0x4 PUSH2 0x44EA JUMP JUMPDEST PUSH2 0x64C JUMP JUMPDEST CALLVALUE DUP1 ISZERO PUSH2 0x26A JUMPI PUSH1 0x0 DUP1 REVERT JUMPDEST POP PUSH2 0x205 PUSH2 0x279 CALLDATASIZE PUSH1 0x4 PUSH2 0x4742 JUMP JUMPDEST PUSH2 0x843 JUMP JUMPDEST CALLVALUE DUP1 ISZERO PUSH2 0x28A JUMPI PUSH1 0x0 DUP1 REVERT JUMPDEST POP PUSH2 0x1E7 PUSH2 0x299 CALLDATASIZE PUSH1 0x4 PUSH2 0x48D8 JUMP JUMPDEST PUSH2 0x8D1 JUMP JUMPDEST CALLVALUE DUP1 ISZERO PUSH2 0x2AA JUMPI PUSH1 0x0 DUP1 REVERT JUMPDEST POP PUSH2 0x2BE PUSH2 0x2B9 CALLDATASIZE PUSH1 0x4 PUSH2 0x4B94 JUMP JUMPDEST PUSH2 0xA86 JUMP JUMPDEST PUSH1 0x40 MLOAD PUSH2 0x1F4 SWAP2 SWAP1 PUSH2 0x529C JUMP JUMPDEST CALLVALUE DUP1 ISZERO PUSH2 0x2D7 JUMPI PUSH1 0x0 DUP1 REVERT JUMPDEST POP PUSH2 0x1E7 PUSH2 0x2E6 CALLDATASIZE PUSH1 0x4 PUSH2 0x4AF8 JUMP JUMPDEST PUSH2 0xACC JUMP JUMPDEST CALLVALUE DUP1 ISZERO PUSH2 0x2F7 JUMPI PUSH1 0x0 DUP1 REVERT JUMPDEST POP PUSH2 0x1E7 PUSH2 0x306 CALLDATASIZE PUSH1 0x4 PUSH2 0x45E3 JUMP JUMPDEST PUSH2 0xC85 JUMP JUMPDEST CALLVALUE DUP1 ISZERO PUSH2 0x317 JUMPI PUSH1 0x0 DUP1 REVERT JUMPDEST POP PUSH2 0x1E7 PUSH2 0x326 CALLDATASIZE PUSH1 0x4 PUSH2 0x45E3 JUMP JUMPDEST PUSH2 0xE62 JUMP JUMPDEST CALLVALUE DUP1 ISZERO PUSH2 0x337 JUMPI PUSH1 0x0 DUP1 REVERT JUMPDEST POP PUSH2 0x1E7 PUSH2 0x346 CALLDATASIZE PUSH1 0x4 PUSH2 0x45E3 JUMP JUMPDEST PUSH2 0xF95 JUMP JUMPDEST CALLVALUE DUP1 ISZERO PUSH2 0x357 JUMPI PUSH1 0x0 DUP1 REVERT JUMPDEST POP PUSH2 0x1E7 PUSH2 0x366 CALLDATASIZE PUSH1 0x4 PUSH2 0x45E3 JUMP JUMPDEST PUSH2 0x124A JUMP JUMPDEST CALLVALUE DUP1 ISZERO PUSH2 0x377 JUMPI PUSH1 0x0 DUP1 REVERT JUMPDEST POP PUSH2 0x1E7 PUSH2 0x386 CALLDATASIZE PUSH1 0x4 PUSH2 0x45E3 JUMP JUMPDEST PUSH2 0x141E JUMP JUMPDEST CALLVALUE DUP1 ISZERO PUSH2 0x397 JUMPI PUSH1 0x0 DUP1 REVERT JUMPDEST POP PUSH2 0x3AB PUSH2 0x3A6 CALLDATASIZE PUSH1 0x4 PUSH2 0x4742 JUMP JUMPDEST PUSH2 0x1484 JUMP JUMPDEST PUSH1 0x40 MLOAD PUSH2 0x1F4 SWAP2 SWAP1 PUSH2 0x4FB6 JUMP JUMPDEST CALLVALUE DUP1 ISZERO PUSH2 0x3C4 JUMPI PUSH1 0x0 DUP1 REVERT JUMPDEST POP PUSH2 0x1E7 PUSH2 0x3D3 CALLDATASIZE PUSH1 0x4 PUSH2 0x45E3 JUMP JUMPDEST PUSH2 0x164D JUMP JUMPDEST CALLVALUE DUP1 ISZERO PUSH2 0x3E4 JUMPI PUSH1 0x0 DUP1 REVERT JUMPDEST POP PUSH2 0x1E7 PUSH2 0x3F3 CALLDATASIZE PUSH1 0x4 PUSH2 0x4AF8 JUMP JUMPDEST PUSH2 0x18F5 JUMP JUMPDEST CALLVALUE DUP1 ISZERO PUSH2 0x404 JUMPI PUSH1 0x0 DUP1 REVERT JUMPDEST POP PUSH2 0x1E7 PUSH2 0x413 CALLDATASIZE PUSH1 0x4 PUSH2 0x4570 JUMP JUMPDEST PUSH2 0x1B3F JUMP JUMPDEST CALLVALUE DUP1 ISZERO PUSH2 0x424 JUMPI PUSH1 0x0 DUP1 REVERT JUMPDEST POP PUSH2 0x1E7 PUSH2 0x433 CALLDATASIZE PUSH1 0x4 PUSH2 0x4570 JUMP JUMPDEST PUSH2 0x1D44 JUMP JUMPDEST CALLVALUE DUP1 ISZERO PUSH2 0x444 JUMPI PUSH1 0x0 DUP1 REVERT JUMPDEST POP PUSH2 0x21C PUSH2 0x1DAA JUMP JUMPDEST CALLVALUE DUP1 ISZERO PUSH2 0x459 JUMPI PUSH1 0x0 DUP1 REVERT JUMPDEST POP PUSH2 0x1E7 PUSH2 0x468 CALLDATASIZE PUSH1 0x4 PUSH2 0x4782 JUMP JUMPDEST PUSH2 0x1DC6 JUMP JUMPDEST CALLVALUE DUP1 ISZERO PUSH2 0x479 JUMPI PUSH1 0x0 DUP1 REVERT JUMPDEST POP PUSH2 0x1E7 PUSH2 0x488 CALLDATASIZE PUSH1 0x4 PUSH2 0x45E3 JUMP JUMPDEST PUSH2 0x1FB1 JUMP JUMPDEST CALLVALUE DUP1 ISZERO PUSH2 0x499 JUMPI PUSH1 0x0 DUP1 REVERT JUMPDEST POP PUSH2 0x21C PUSH2 0x4A8 CALLDATASIZE PUSH1 0x4 PUSH2 0x44A0 JUMP JUMPDEST PUSH2 0x2182 JUMP JUMPDEST CALLVALUE DUP1 ISZERO PUSH2 0x4B9 JUMPI PUSH1 0x0 DUP1 REVERT JUMPDEST POP PUSH2 0x1E7 PUSH2 0x4C8 CALLDATASIZE PUSH1 0x4 PUSH2 0x45E3 JUMP JUMPDEST PUSH2 0x22DE JUMP JUMPDEST CALLVALUE DUP1 ISZERO PUSH2 0x4D9 JUMPI PUSH1 0x0 DUP1 REVERT JUMPDEST POP PUSH2 0x21C PUSH2 0x2344 JUMP JUMPDEST CALLVALUE DUP1 ISZERO PUSH2 0x4EE JUMPI PUSH1 0x0 DUP1 REVERT JUMPDEST POP PUSH2 0x1E7 PUSH2 0x4FD CALLDATASIZE PUSH1 0x4 PUSH2 0x45E3 JUMP JUMPDEST PUSH2 0x235C JUMP JUMPDEST CALLVALUE DUP1 ISZERO PUSH2 0x50E JUMPI PUSH1 0x0 DUP1 REVERT JUMPDEST POP PUSH2 0x1E7 PUSH2 0x51D CALLDATASIZE PUSH1 0x4 PUSH2 0x4782 JUMP JUMPDEST PUSH2 0x277F JUMP JUMPDEST CALLVALUE DUP1 ISZERO PUSH2 0x52E JUMPI PUSH1 0x0 DUP1 REVERT JUMPDEST POP PUSH2 0x1E7 PUSH2 0x53D CALLDATASIZE PUSH1 0x4 PUSH2 0x48D8 JUMP JUMPDEST PUSH2 0x2952 JUMP JUMPDEST CALLVALUE DUP1 ISZERO PUSH2 0x54E JUMPI PUSH1 0x0 DUP1 REVERT JUMPDEST POP PUSH2 0x21C PUSH2 0x29F5 JUMP JUMPDEST PUSH1 0x60 PUSH2 0x563 DUP4 DUP6 PUSH2 0x2A11 JUMP JUMPDEST PUSH2 0x5C7 PUSH1 0x40 MLOAD DUP1 PUSH1 0x60 ADD PUSH1 0x40 MSTORE DUP1 DUP6 PUSH1 0x40 MLOAD PUSH1 0x20 ADD PUSH2 0x582 SWAP2 SWAP1 PUSH2 0x4D50 JUMP JUMPDEST PUSH1 0x40 MLOAD PUSH1 0x20 DUP2 DUP4 SUB SUB DUP2 MSTORE SWAP1 PUSH1 0x40 MSTORE DUP2 MSTORE PUSH1 0x20 ADD DUP7 PUSH1 0x40 MLOAD PUSH1 0x20 ADD PUSH2 0x5A7 SWAP2 SWAP1 PUSH2 0x4D50 JUMP JUMPDEST PUSH1 0x40 MLOAD PUSH1 0x20 DUP2 DUP4 SUB SUB DUP2 MSTORE SWAP1 PUSH1 0x40 MSTORE DUP2 MSTORE PUSH1 0x20 ADD PUSH2 0x2A84 DUP2 MSTORE POP DUP4 PUSH2 0x2BFC JUMP JUMPDEST SWAP1 POP JUMPDEST SWAP4 SWAP3 POP POP POP JUMP JUMPDEST PUSH1 0x40 MLOAD PUSH20 0xE9DB8717BC5DFB20AAF538B4A5A02B7791FF430C SWAP1 CALLVALUE DUP1 ISZERO PUSH2 0x8FC MUL SWAP2 PUSH1 0x0 DUP2 DUP2 DUP2 DUP6 DUP9 DUP9 CALL SWAP4 POP POP POP POP ISZERO DUP1 ISZERO PUSH2 0x611 JUMPI RETURNDATASIZE PUSH1 0x0 DUP1 RETURNDATACOPY RETURNDATASIZE PUSH1 0x0 REVERT JUMPDEST POP JUMP JUMPDEST PUSH1 0x1 SLOAD PUSH20 0xFFFFFFFFFFFFFFFFFFFFFFFFFFFFFFFFFFFFFFFF AND DUP2 JUMP JUMPDEST PUSH1 0x0 SLOAD PUSH20 0xFFFFFFFFFFFFFFFFFFFFFFFFFFFFFFFFFFFFFFFF AND DUP2 JUMP JUMPDEST PUSH1 0x60 PUSH1 0x0 DUP3 MLOAD SWAP1 POP DUP1 PUSH1 0x40 MLOAD SWAP1 DUP1 DUP3 MSTORE DUP1 PUSH1 0x20 MUL PUSH1 0x20 ADD DUP3 ADD PUSH1 0x40 MSTORE DUP1 ISZERO PUSH2 0x67E JUMPI DUP2 PUSH1 0x20 ADD PUSH1 0x20 DUP3 MUL DUP1 CODESIZE DUP4 CODECOPY ADD SWAP1 POP JUMPDEST POP SWAP2 POP PUSH20 0xFFFFFFFFFFFFFFFFFFFFFFFFFFFFFFFFFFFFFFFF DUP8 AND PUSH2 0x6A2 JUMPI POP PUSH2 0x83A JUMP JUMPDEST PUSH1 0x0 JUMPDEST DUP2 DUP2 LT ISZERO PUSH2 0x837 JUMPI PUSH1 0x0 PUSH1 0x60 DUP10 PUSH20 0xFFFFFFFFFFFFFFFFFFFFFFFFFFFFFFFFFFFFFFFF AND PUSH3 0x61A80 PUSH1 0x0 PUSH20 0xFFFFFFFFFFFFFFFFFFFFFFFFFFFFFFFFFFFFFFFF AND PUSH4 0x6E79E133 SWAP1 POP PUSH1 0xE0 SHL DUP12 DUP12 DUP12 DUP12 DUP10 DUP2 MLOAD DUP2 LT PUSH2 0x6FD JUMPI INVALID JUMPDEST PUSH1 0x20 MUL PUSH1 0x20 ADD ADD MLOAD PUSH1 0x40 MLOAD PUSH1 0x24 ADD PUSH2 0x718 SWAP5 SWAP4 SWAP3 SWAP2 SWAP1 PUSH2 0x4E1C JUMP JUMPDEST PUSH1 0x40 DUP1 MLOAD PUSH32 0xFFFFFFFFFFFFFFFFFFFFFFFFFFFFFFFFFFFFFFFFFFFFFFFFFFFFFFFFFFFFFFE0 DUP2 DUP5 SUB ADD DUP2 MSTORE SWAP2 DUP2 MSTORE PUSH1 0x20 DUP3 ADD DUP1 MLOAD PUSH28 0xFFFFFFFFFFFFFFFFFFFFFFFFFFFFFFFFFFFFFFFFFFFFFFFFFFFFFFFF AND PUSH32 0xFFFFFFFF00000000000000000000000000000000000000000000000000000000 SWAP1 SWAP5 AND SWAP4 SWAP1 SWAP4 OR SWAP1 SWAP3 MSTORE SWAP1 MLOAD PUSH2 0x7A1 SWAP2 SWAP1 PUSH2 0x4D34 JUMP JUMPDEST PUSH1 0x0 PUSH1 0x40 MLOAD DUP1 DUP4 SUB DUP2 DUP7 DUP7 STATICCALL SWAP3 POP POP POP RETURNDATASIZE DUP1 PUSH1 0x0 DUP2 EQ PUSH2 0x7DD JUMPI PUSH1 0x40 MLOAD SWAP2 POP PUSH1 0x1F NOT PUSH1 0x3F RETURNDATASIZE ADD AND DUP3 ADD PUSH1 0x40 MSTORE RETURNDATASIZE DUP3 MSTORE RETURNDATASIZE PUSH1 0x0 PUSH1 0x20 DUP5 ADD RETURNDATACOPY PUSH2 0x7E2 JUMP JUMPDEST PUSH1 0x60 SWAP2 POP JUMPDEST POP SWAP1 SWAP3 POP SWAP1 POP PUSH1 0x0 DUP3 ISZERO PUSH2 0x807 JUMPI DUP2 DUP1 PUSH1 0x20 ADD SWAP1 MLOAD PUSH2 0x804 SWAP2 SWAP1 DUP2 ADD SWAP1 PUSH2 0x49F6 JUMP JUMPDEST SWAP1 POP JUMPDEST DUP1 PUSH2 0x814 JUMPI POP POP POP PUSH2 0x837 JUMP JUMPDEST DUP1 DUP7 DUP6 DUP2 MLOAD DUP2 LT PUSH2 0x821 JUMPI INVALID JUMPDEST PUSH1 0x20 SWAP1 DUP2 MUL SWAP2 SWAP1 SWAP2 ADD ADD MSTORE POP POP POP PUSH1 0x1 ADD PUSH2 0x6A5 JUMP JUMPDEST POP POP JUMPDEST SWAP6 SWAP5 POP POP POP POP POP JUMP JUMPDEST PUSH1 0x0 SLOAD PUSH1 0x40 MLOAD PUSH32 0x3126865700000000000000000000000000000000000000000000000000000000 DUP2 MSTORE PUSH20 0xFFFFFFFFFFFFFFFFFFFFFFFFFFFFFFFFFFFFFFFF SWAP1 SWAP2 AND SWAP1 PUSH4 0x31268657 SWAP1 PUSH2 0x89B SWAP1 DUP6 SWAP1 DUP6 SWAP1 PUSH1 0x4 ADD PUSH2 0x4F5C JUMP JUMPDEST PUSH1 0x0 PUSH1 0x40 MLOAD DUP1 DUP4 SUB DUP2 PUSH1 0x0 DUP8 DUP1 EXTCODESIZE ISZERO DUP1 ISZERO PUSH2 0x8B5 JUMPI PUSH1 0x0 DUP1 REVERT JUMPDEST POP GAS CALL ISZERO DUP1 ISZERO PUSH2 0x8C9 JUMPI RETURNDATASIZE PUSH1 0x0 DUP1 RETURNDATACOPY RETURNDATASIZE PUSH1 0x0 REVERT JUMPDEST POP POP POP POP POP POP JUMP JUMPDEST PUSH1 0x60 DUP4 MLOAD PUSH1 0x40 MLOAD SWAP1 DUP1 DUP3 MSTORE DUP1 PUSH1 0x20 MUL PUSH1 0x20 ADD DUP3 ADD PUSH1 0x40 MSTORE DUP1 ISZERO PUSH2 0x8FE JUMPI DUP2 PUSH1 0x20 ADD PUSH1 0x20 DUP3 MUL DUP1 CODESIZE DUP4 CODECOPY ADD SWAP1 POP JUMPDEST POP SWAP1 POP PUSH1 0x0 JUMPDEST DUP5 MLOAD DUP2 EQ PUSH2 0xA7E JUMPI PUSH1 0x0 PUSH1 0x60 ADDRESS PUSH20 0xFFFFFFFFFFFFFFFFFFFFFFFFFFFFFFFFFFFFFFFF AND PUSH3 0x30D40 PUSH4 0x3B77EBAE PUSH1 0xE0 SHL DUP10 DUP7 DUP2 MLOAD DUP2 LT PUSH2 0x93F JUMPI INVALID JUMPDEST PUSH1 0x20 MUL PUSH1 0x20 ADD ADD MLOAD DUP10 DUP8 DUP2 MLOAD DUP2 LT PUSH2 0x953 JUMPI INVALID JUMPDEST PUSH1 0x20 MUL PUSH1 0x20 ADD ADD MLOAD DUP10 PUSH1 0x40 MLOAD PUSH1 0x24 ADD PUSH2 0x96E SWAP4 SWAP3 SWAP2 SWAP1 PUSH2 0x513B JUMP JUMPDEST PUSH1 0x40 DUP1 MLOAD PUSH32 0xFFFFFFFFFFFFFFFFFFFFFFFFFFFFFFFFFFFFFFFFFFFFFFFFFFFFFFFFFFFFFFE0 DUP2 DUP5 SUB ADD DUP2 MSTORE SWAP2 DUP2 MSTORE PUSH1 0x20 DUP3 ADD DUP1 MLOAD PUSH28 0xFFFFFFFFFFFFFFFFFFFFFFFFFFFFFFFFFFFFFFFFFFFFFFFFFFFFFFFF AND PUSH32 0xFFFFFFFF00000000000000000000000000000000000000000000000000000000 SWAP1 SWAP5 AND SWAP4 SWAP1 SWAP4 OR SWAP1 SWAP3 MSTORE SWAP1 MLOAD PUSH2 0x9F7 SWAP2 SWAP1 PUSH2 0x4D34 JUMP JUMPDEST PUSH1 0x0 PUSH1 0x40 MLOAD DUP1 DUP4 SUB DUP2 DUP7 DUP7 STATICCALL SWAP3 POP POP POP RETURNDATASIZE DUP1 PUSH1 0x0 DUP2 EQ PUSH2 0xA33 JUMPI PUSH1 0x40 MLOAD SWAP2 POP PUSH1 0x1F NOT PUSH1 0x3F RETURNDATASIZE ADD AND DUP3 ADD PUSH1 0x40 MSTORE RETURNDATASIZE DUP3 MSTORE RETURNDATASIZE PUSH1 0x0 PUSH1 0x20 DUP5 ADD RETURNDATACOPY PUSH2 0xA38 JUMP JUMPDEST PUSH1 0x60 SWAP2 POP JUMPDEST POP SWAP2 POP SWAP2 POP DUP2 PUSH2 0xA49 JUMPI PUSH1 0x0 PUSH2 0xA5D JUMP JUMPDEST DUP1 DUP1 PUSH1 0x20 ADD SWAP1 MLOAD PUSH2 0xA5D SWAP2 SWAP1 DUP2 ADD SWAP1 PUSH2 0x49F6 JUMP JUMPDEST DUP5 DUP5 DUP2 MLOAD DUP2 LT PUSH2 0xA69 JUMPI INVALID JUMPDEST PUSH1 0x20 SWAP1 DUP2 MUL SWAP2 SWAP1 SWAP2 ADD ADD MSTORE POP POP PUSH1 0x1 ADD PUSH2 0x904 JUMP JUMPDEST POP SWAP4 SWAP3 POP POP POP JUMP JUMPDEST PUSH1 0x0 DUP4 PUSH1 0xA0 ADD MLOAD DUP5 PUSH2 0x120 ADD MLOAD PUSH1 0x40 MLOAD PUSH1 0x20 ADD PUSH2 0xAA3 SWAP2 SWAP1 PUSH2 0x529C JUMP JUMPDEST PUSH1 0x40 MLOAD PUSH1 0x20 DUP2 DUP4 SUB SUB DUP2 MSTORE SWAP1 PUSH1 0x40 MSTORE DUP1 MLOAD SWAP1 PUSH1 0x20 ADD KECCAK256 PUSH1 0x0 SHR DUP2 PUSH2 0xAC3 JUMPI INVALID JUMPDEST MOD SWAP5 SWAP4 POP POP POP POP JUMP JUMPDEST PUSH1 0x60 PUSH1 0x0 DUP3 MLOAD SWAP1 POP DUP1 PUSH1 0x40 MLOAD SWAP1 DUP1 DUP3 MSTORE DUP1 PUSH1 0x20 MUL PUSH1 0x20 ADD DUP3 ADD PUSH1 0x40 MSTORE DUP1 ISZERO PUSH2 0xAFE JUMPI DUP2 PUSH1 0x20 ADD PUSH1 0x20 DUP3 MUL DUP1 CODESIZE DUP4 CODECOPY ADD SWAP1 POP JUMPDEST POP SWAP2 POP PUSH1 0x0 JUMPDEST DUP2 DUP2 LT ISZERO PUSH2 0xC7B JUMPI PUSH1 0x0 PUSH1 0x60 DUP9 PUSH1 0x0 ADD MLOAD PUSH20 0xFFFFFFFFFFFFFFFFFFFFFFFFFFFFFFFFFFFFFFFF AND PUSH3 0x927C0 DUP11 PUSH1 0x20 ADD MLOAD DUP11 DUP11 DUP11 DUP9 DUP2 MLOAD DUP2 LT PUSH2 0xB42 JUMPI INVALID JUMPDEST PUSH1 0x20 MUL PUSH1 0x20 ADD ADD MLOAD PUSH1 0x40 MLOAD PUSH1 0x24 ADD PUSH2 0xB5C SWAP4 SWAP3 SWAP2 SWAP1 PUSH2 0x5076 JUMP JUMPDEST PUSH1 0x40 DUP1 MLOAD PUSH32 0xFFFFFFFFFFFFFFFFFFFFFFFFFFFFFFFFFFFFFFFFFFFFFFFFFFFFFFFFFFFFFFE0 DUP2 DUP5 SUB ADD DUP2 MSTORE SWAP2 DUP2 MSTORE PUSH1 0x20 DUP3 ADD DUP1 MLOAD PUSH28 0xFFFFFFFFFFFFFFFFFFFFFFFFFFFFFFFFFFFFFFFFFFFFFFFFFFFFFFFF AND PUSH32 0xFFFFFFFF00000000000000000000000000000000000000000000000000000000 SWAP1 SWAP5 AND SWAP4 SWAP1 SWAP4 OR SWAP1 SWAP3 MSTORE SWAP1 MLOAD PUSH2 0xBE5 SWAP2 SWAP1 PUSH2 0x4D34 JUMP JUMPDEST PUSH1 0x0 PUSH1 0x40 MLOAD DUP1 DUP4 SUB DUP2 DUP7 DUP7 STATICCALL SWAP3 POP POP POP RETURNDATASIZE DUP1 PUSH1 0x0 DUP2 EQ PUSH2 0xC21 JUMPI PUSH1 0x40 MLOAD SWAP2 POP PUSH1 0x1F NOT PUSH1 0x3F RETURNDATASIZE ADD AND DUP3 ADD PUSH1 0x40 MSTORE RETURNDATASIZE DUP3 MSTORE RETURNDATASIZE PUSH1 0x0 PUSH1 0x20 DUP5 ADD RETURNDATACOPY PUSH2 0xC26 JUMP JUMPDEST PUSH1 0x60 SWAP2 POP JUMPDEST POP SWAP1 SWAP3 POP SWAP1 POP PUSH1 0x0 DUP3 ISZERO PUSH2 0xC4B JUMPI DUP2 DUP1 PUSH1 0x20 ADD SWAP1 MLOAD PUSH2 0xC48 SWAP2 SWAP1 DUP2 ADD SWAP1 PUSH2 0x49F6 JUMP JUMPDEST SWAP1 POP JUMPDEST DUP1 PUSH2 0xC58 JUMPI POP POP POP PUSH2 0xC7B JUMP JUMPDEST DUP1 DUP7 DUP6 DUP2 MLOAD DUP2 LT PUSH2 0xC65 JUMPI INVALID JUMPDEST PUSH1 0x20 SWAP1 DUP2 MUL SWAP2 SWAP1 SWAP2 ADD ADD MSTORE POP POP POP PUSH1 0x1 ADD PUSH2 0xB04 JUMP JUMPDEST POP POP SWAP5 SWAP4 POP POP POP POP JUMP JUMPDEST PUSH1 0x60 PUSH2 0xC91 DUP4 DUP6 PUSH2 0x2A11 JUMP JUMPDEST DUP2 MLOAD PUSH1 0x40 DUP1 MLOAD DUP3 DUP2 MSTORE PUSH1 0x20 DUP1 DUP5 MUL DUP3 ADD ADD SWAP1 SWAP2 MSTORE DUP2 DUP1 ISZERO PUSH2 0xCBC JUMPI DUP2 PUSH1 0x20 ADD PUSH1 0x20 DUP3 MUL DUP1 CODESIZE DUP4 CODECOPY ADD SWAP1 POP JUMPDEST POP SWAP2 POP PUSH1 0x0 JUMPDEST DUP2 DUP2 LT ISZERO PUSH2 0xE59 JUMPI PUSH1 0x0 PUSH1 0x60 PUSH2 0xCD6 PUSH2 0x2DD1 JUMP JUMPDEST PUSH20 0xFFFFFFFFFFFFFFFFFFFFFFFFFFFFFFFFFFFFFFFF AND PUSH3 0xF4240 PUSH1 0x0 PUSH20 0xFFFFFFFFFFFFFFFFFFFFFFFFFFFFFFFFFFFFFFFF AND PUSH4 0xFF1FD974 SWAP1 POP PUSH1 0xE0 SHL DUP11 DUP11 DUP11 DUP9 DUP2 MLOAD DUP2 LT PUSH2 0xD20 JUMPI INVALID JUMPDEST PUSH1 0x20 MUL PUSH1 0x20 ADD ADD MLOAD PUSH1 0x40 MLOAD PUSH1 0x24 ADD PUSH2 0xD3A SWAP4 SWAP3 SWAP2 SWAP1 PUSH2 0x4E53 JUMP JUMPDEST PUSH1 0x40 DUP1 MLOAD PUSH32 0xFFFFFFFFFFFFFFFFFFFFFFFFFFFFFFFFFFFFFFFFFFFFFFFFFFFFFFFFFFFFFFE0 DUP2 DUP5 SUB ADD DUP2 MSTORE SWAP2 DUP2 MSTORE PUSH1 0x20 DUP3 ADD DUP1 MLOAD PUSH28 0xFFFFFFFFFFFFFFFFFFFFFFFFFFFFFFFFFFFFFFFFFFFFFFFFFFFFFFFF AND PUSH32 0xFFFFFFFF00000000000000000000000000000000000000000000000000000000 SWAP1 SWAP5 AND SWAP4 SWAP1 SWAP4 OR SWAP1 SWAP3 MSTORE SWAP1 MLOAD PUSH2 0xDC3 SWAP2 SWAP1 PUSH2 0x4D34 JUMP JUMPDEST PUSH1 0x0 PUSH1 0x40 MLOAD DUP1 DUP4 SUB DUP2 DUP7 DUP7 STATICCALL SWAP3 POP POP POP RETURNDATASIZE DUP1 PUSH1 0x0 DUP2 EQ PUSH2 0xDFF JUMPI PUSH1 0x40 MLOAD SWAP2 POP PUSH1 0x1F NOT PUSH1 0x3F RETURNDATASIZE ADD AND DUP3 ADD PUSH1 0x40 MSTORE RETURNDATASIZE DUP3 MSTORE RETURNDATASIZE PUSH1 0x0 PUSH1 0x20 DUP5 ADD RETURNDATACOPY PUSH2 0xE04 JUMP JUMPDEST PUSH1 0x60 SWAP2 POP JUMPDEST POP SWAP1 SWAP3 POP SWAP1 POP PUSH1 0x0 DUP3 ISZERO PUSH2 0xE29 JUMPI DUP2 DUP1 PUSH1 0x20 ADD SWAP1 MLOAD PUSH2 0xE26 SWAP2 SWAP1 DUP2 ADD SWAP1 PUSH2 0x49F6 JUMP JUMPDEST SWAP1 POP JUMPDEST DUP1 PUSH2 0xE36 JUMPI POP POP POP PUSH2 0xE59 JUMP JUMPDEST DUP1 DUP7 DUP6 DUP2 MLOAD DUP2 LT PUSH2 0xE43 JUMPI INVALID JUMPDEST PUSH1 0x20 SWAP1 DUP2 MUL SWAP2 SWAP1 SWAP2 ADD ADD MSTORE POP POP POP PUSH1 0x1 ADD PUSH2 0xCC2 JUMP JUMPDEST POP POP SWAP4 SWAP3 POP POP POP JUMP JUMPDEST PUSH1 0x60 PUSH2 0xE6E DUP4 DUP6 PUSH2 0x2A11 JUMP JUMPDEST DUP2 MLOAD PUSH1 0x40 DUP1 MLOAD DUP3 DUP2 MSTORE PUSH1 0x20 DUP1 DUP5 MUL DUP3 ADD ADD SWAP1 SWAP2 MSTORE DUP2 DUP1 ISZERO PUSH2 0xE99 JUMPI DUP2 PUSH1 0x20 ADD PUSH1 0x20 DUP3 MUL DUP1 CODESIZE DUP4 CODECOPY ADD SWAP1 POP JUMPDEST POP SWAP2 POP PUSH1 0x0 PUSH2 0xEA6 PUSH2 0x2DED JUMP JUMPDEST SWAP1 POP PUSH1 0x0 DUP1 JUMPDEST DUP4 DUP2 LT ISZERO PUSH2 0xF8A JUMPI DUP3 PUSH20 0xFFFFFFFFFFFFFFFFFFFFFFFFFFFFFFFFFFFFFFFF AND DUP9 PUSH20 0xFFFFFFFFFFFFFFFFFFFFFFFFFFFFFFFFFFFFFFFF AND EQ DUP1 PUSH2 0xF19 JUMPI POP DUP3 PUSH20 0xFFFFFFFFFFFFFFFFFFFFFFFFFFFFFFFFFFFFFFFF AND DUP8 PUSH20 0xFFFFFFFFFFFFFFFFFFFFFFFFFFFFFFFFFFFFFFFF AND EQ JUMPDEST ISZERO PUSH2 0xF43 JUMPI PUSH2 0xF3C DUP9 DUP9 DUP9 DUP5 DUP2 MLOAD DUP2 LT PUSH2 0xF2F JUMPI INVALID JUMPDEST PUSH1 0x20 MUL PUSH1 0x20 ADD ADD MLOAD PUSH2 0x2E05 JUMP JUMPDEST SWAP2 POP PUSH2 0xF6A JUMP JUMPDEST PUSH2 0xF54 DUP9 DUP5 DUP9 DUP5 DUP2 MLOAD DUP2 LT PUSH2 0xF2F JUMPI INVALID JUMPDEST SWAP2 POP DUP2 ISZERO PUSH2 0xF6A JUMPI PUSH2 0xF67 DUP4 DUP9 DUP5 PUSH2 0x2E05 JUMP JUMPDEST SWAP2 POP JUMPDEST DUP2 DUP6 DUP3 DUP2 MLOAD DUP2 LT PUSH2 0xF77 JUMPI INVALID JUMPDEST PUSH1 0x20 SWAP1 DUP2 MUL SWAP2 SWAP1 SWAP2 ADD ADD MSTORE PUSH1 0x1 ADD PUSH2 0xEAC JUMP JUMPDEST POP POP POP POP SWAP4 SWAP3 POP POP POP JUMP JUMPDEST PUSH1 0x60 PUSH2 0xFA1 DUP4 DUP6 PUSH2 0x2A11 JUMP JUMPDEST DUP2 MLOAD PUSH1 0x40 DUP1 MLOAD DUP3 DUP2 MSTORE PUSH1 0x20 DUP1 DUP5 MUL DUP3 ADD ADD SWAP1 SWAP2 MSTORE DUP2 DUP1 ISZERO PUSH2 0xFCC JUMPI DUP2 PUSH1 0x20 ADD PUSH1 0x20 DUP3 MUL DUP1 CODESIZE DUP4 CODECOPY ADD SWAP1 POP JUMPDEST POP SWAP2 POP PUSH1 0x0 PUSH2 0xFD9 PUSH2 0x2DED JUMP JUMPDEST PUSH20 0xFFFFFFFFFFFFFFFFFFFFFFFFFFFFFFFFFFFFFFFF AND DUP7 PUSH20 0xFFFFFFFFFFFFFFFFFFFFFFFFFFFFFFFFFFFFFFFF AND EQ PUSH2 0x1019 JUMPI PUSH2 0x1014 DUP7 PUSH2 0x3625 JUMP JUMPDEST PUSH2 0x101C JUMP JUMPDEST PUSH1 0x0 JUMPDEST SWAP1 POP PUSH1 0x0 PUSH2 0x1028 PUSH2 0x2DED JUMP JUMPDEST PUSH20 0xFFFFFFFFFFFFFFFFFFFFFFFFFFFFFFFFFFFFFFFF AND DUP7 PUSH20 0xFFFFFFFFFFFFFFFFFFFFFFFFFFFFFFFFFFFFFFFF AND EQ PUSH2 0x1068 JUMPI PUSH2 0x1063 DUP7 PUSH2 0x3625 JUMP JUMPDEST PUSH2 0x106B JUMP JUMPDEST PUSH1 0x0 JUMPDEST SWAP1 POP PUSH1 0x0 JUMPDEST DUP4 DUP2 LT ISZERO PUSH2 0xF8A JUMPI PUSH1 0x1 PUSH2 0x1082 PUSH2 0x2DED JUMP JUMPDEST PUSH20 0xFFFFFFFFFFFFFFFFFFFFFFFFFFFFFFFFFFFFFFFF AND DUP9 PUSH20 0xFFFFFFFFFFFFFFFFFFFFFFFFFFFFFFFFFFFFFFFF AND EQ ISZERO PUSH2 0x1119 JUMPI DUP7 MLOAD PUSH2 0x10F8 SWAP1 DUP6 SWAP1 PUSH32 0x2640F62C00000000000000000000000000000000000000000000000000000000 SWAP1 DUP11 SWAP1 DUP7 SWAP1 DUP2 LT PUSH2 0x10EB JUMPI INVALID JUMPDEST PUSH1 0x20 MUL PUSH1 0x20 ADD ADD MLOAD PUSH2 0x36B7 JUMP JUMPDEST DUP8 DUP5 DUP2 MLOAD DUP2 LT PUSH2 0x1104 JUMPI INVALID JUMPDEST PUSH1 0x20 MUL PUSH1 0x20 ADD ADD DUP2 SWAP4 POP DUP3 DUP2 MSTORE POP POP POP PUSH2 0x1236 JUMP JUMPDEST PUSH2 0x1121 PUSH2 0x2DED JUMP JUMPDEST PUSH20 0xFFFFFFFFFFFFFFFFFFFFFFFFFFFFFFFFFFFFFFFF AND DUP10 PUSH20 0xFFFFFFFFFFFFFFFFFFFFFFFFFFFFFFFFFFFFFFFF AND EQ ISZERO PUSH2 0x118A JUMPI DUP7 MLOAD PUSH2 0x10F8 SWAP1 DUP5 SWAP1 PUSH32 0x59E9486200000000000000000000000000000000000000000000000000000000 SWAP1 DUP11 SWAP1 DUP7 SWAP1 DUP2 LT PUSH2 0x10EB JUMPI INVALID JUMPDEST DUP7 MLOAD PUSH1 0x0 SWAP1 PUSH2 0x11C3 SWAP1 DUP6 SWAP1 PUSH32 0x59E9486200000000000000000000000000000000000000000000000000000000 SWAP1 DUP12 SWAP1 DUP8 SWAP1 DUP2 LT PUSH2 0x10EB JUMPI INVALID JUMPDEST SWAP3 POP SWAP1 POP DUP1 ISZERO PUSH2 0x1219 JUMPI PUSH2 0x11F8 DUP6 PUSH32 0x2640F62C00000000000000000000000000000000000000000000000000000000 DUP4 PUSH2 0x36B7 JUMP JUMPDEST DUP9 DUP6 DUP2 MLOAD DUP2 LT PUSH2 0x1204 JUMPI INVALID JUMPDEST PUSH1 0x20 MUL PUSH1 0x20 ADD ADD DUP2 SWAP5 POP DUP3 DUP2 MSTORE POP POP POP PUSH2 0x1234 JUMP JUMPDEST PUSH1 0x0 DUP8 DUP5 DUP2 MLOAD DUP2 LT PUSH2 0x1227 JUMPI INVALID JUMPDEST PUSH1 0x20 MUL PUSH1 0x20 ADD ADD DUP2 DUP2 MSTORE POP POP JUMPDEST POP JUMPDEST DUP1 PUSH2 0x1241 JUMPI POP PUSH2 0xF8A JUMP JUMPDEST POP PUSH1 0x1 ADD PUSH2 0x1070 JUMP JUMPDEST PUSH1 0x60 PUSH2 0x1256 DUP4 DUP6 PUSH2 0x2A11 JUMP JUMPDEST DUP2 MLOAD PUSH1 0x40 DUP1 MLOAD DUP3 DUP2 MSTORE PUSH1 0x20 DUP1 DUP5 MUL DUP3 ADD ADD SWAP1 SWAP2 MSTORE DUP2 DUP1 ISZERO PUSH2 0x1281 JUMPI DUP2 PUSH1 0x20 ADD PUSH1 0x20 DUP3 MUL DUP1 CODESIZE DUP4 CODECOPY ADD SWAP1 POP JUMPDEST POP SWAP2 POP PUSH1 0x0 JUMPDEST DUP2 DUP2 LT ISZERO PUSH2 0xE59 JUMPI PUSH1 0x0 PUSH1 0x60 PUSH2 0x129B PUSH2 0x2DD1 JUMP JUMPDEST PUSH20 0xFFFFFFFFFFFFFFFFFFFFFFFFFFFFFFFFFFFFFFFF AND PUSH3 0xF4240 PUSH1 0x0 PUSH20 0xFFFFFFFFFFFFFFFFFFFFFFFFFFFFFFFFFFFFFFFF AND PUSH4 0x144A2752 SWAP1 POP PUSH1 0xE0 SHL DUP10 DUP12 DUP11 DUP9 DUP2 MLOAD DUP2 LT PUSH2 0x12E5 JUMPI INVALID JUMPDEST PUSH1 0x20 MUL PUSH1 0x20 ADD ADD MLOAD PUSH1 0x40 MLOAD PUSH1 0x24 ADD PUSH2 0x12FF SWAP4 SWAP3 SWAP2 SWAP1 PUSH2 0x4E53 JUMP JUMPDEST PUSH1 0x40 DUP1 MLOAD PUSH32 0xFFFFFFFFFFFFFFFFFFFFFFFFFFFFFFFFFFFFFFFFFFFFFFFFFFFFFFFFFFFFFFE0 DUP2 DUP5 SUB ADD DUP2 MSTORE SWAP2 DUP2 MSTORE PUSH1 0x20 DUP3 ADD DUP1 MLOAD PUSH28 0xFFFFFFFFFFFFFFFFFFFFFFFFFFFFFFFFFFFFFFFFFFFFFFFFFFFFFFFF AND PUSH32 0xFFFFFFFF00000000000000000000000000000000000000000000000000000000 SWAP1 SWAP5 AND SWAP4 SWAP1 SWAP4 OR SWAP1 SWAP3 MSTORE SWAP1 MLOAD PUSH2 0x1388 SWAP2 SWAP1 PUSH2 0x4D34 JUMP JUMPDEST PUSH1 0x0 PUSH1 0x40 MLOAD DUP1 DUP4 SUB DUP2 DUP7 DUP7 STATICCALL SWAP3 POP POP POP RETURNDATASIZE DUP1 PUSH1 0x0 DUP2 EQ PUSH2 0x13C4 JUMPI PUSH1 0x40 MLOAD SWAP2 POP PUSH1 0x1F NOT PUSH1 0x3F RETURNDATASIZE ADD AND DUP3 ADD PUSH1 0x40 MSTORE RETURNDATASIZE DUP3 MSTORE RETURNDATASIZE PUSH1 0x0 PUSH1 0x20 DUP5 ADD RETURNDATACOPY PUSH2 0x13C9 JUMP JUMPDEST PUSH1 0x60 SWAP2 POP JUMPDEST POP SWAP1 SWAP3 POP SWAP1 POP PUSH1 0x0 DUP3 ISZERO PUSH2 0x13EE JUMPI DUP2 DUP1 PUSH1 0x20 ADD SWAP1 MLOAD PUSH2 0x13EB SWAP2 SWAP1 DUP2 ADD SWAP1 PUSH2 0x49F6 JUMP JUMPDEST SWAP1 POP JUMPDEST DUP1 PUSH2 0x13FB JUMPI POP POP POP PUSH2 0xE59 JUMP JUMPDEST DUP1 DUP7 DUP6 DUP2 MLOAD DUP2 LT PUSH2 0x1408 JUMPI INVALID JUMPDEST PUSH1 0x20 SWAP1 DUP2 MUL SWAP2 SWAP1 SWAP2 ADD ADD MSTORE POP POP POP PUSH1 0x1 ADD PUSH2 0x1287 JUMP JUMPDEST PUSH1 0x60 PUSH2 0x5C7 PUSH1 0x40 MLOAD DUP1 PUSH1 0x60 ADD PUSH1 0x40 MSTORE DUP1 DUP6 PUSH1 0x40 MLOAD PUSH1 0x20 ADD PUSH2 0x143F SWAP2 SWAP1 PUSH2 0x4D50 JUMP JUMPDEST PUSH1 0x40 MLOAD PUSH1 0x20 DUP2 DUP4 SUB SUB DUP2 MSTORE SWAP1 PUSH1 0x40 MSTORE DUP2 MSTORE PUSH1 0x20 ADD DUP7 PUSH1 0x40 MLOAD PUSH1 0x20 ADD PUSH2 0x1464 SWAP2 SWAP1 PUSH2 0x4D50 JUMP JUMPDEST PUSH1 0x40 MLOAD PUSH1 0x20 DUP2 DUP4 SUB SUB DUP2 MSTORE SWAP1 PUSH1 0x40 MSTORE DUP2 MSTORE PUSH1 0x20 ADD PUSH2 0x3800 DUP2 MSTORE POP DUP4 PUSH2 0x2BFC JUMP JUMPDEST PUSH1 0x40 DUP1 MLOAD DUP3 DUP2 MSTORE PUSH1 0x20 DUP1 DUP5 MUL DUP3 ADD ADD SWAP1 SWAP2 MSTORE PUSH1 0x60 SWAP1 DUP3 DUP1 ISZERO PUSH2 0x14BA JUMPI DUP2 PUSH1 0x20 ADD JUMPDEST PUSH1 0x60 DUP2 MSTORE PUSH1 0x20 ADD SWAP1 PUSH1 0x1 SWAP1 SUB SWAP1 DUP2 PUSH2 0x14A5 JUMPI SWAP1 POP JUMPDEST POP SWAP1 POP PUSH1 0x0 JUMPDEST DUP1 DUP4 EQ PUSH2 0x1646 JUMPI DUP4 DUP4 DUP3 DUP2 DUP2 LT PUSH2 0x14D3 JUMPI INVALID JUMPDEST PUSH1 0x20 MUL DUP3 ADD SWAP1 POP DUP1 CALLDATALOAD PUSH32 0xFFFFFFFFFFFFFFFFFFFFFFFFFFFFFFFFFFFFFFFFFFFFFFFFFFFFFFFFFFFFFFE1 CALLDATASIZE DUP5 SWAP1 SUB ADD DUP2 SLT PUSH2 0x150D JUMPI PUSH1 0x0 DUP1 REVERT JUMPDEST SWAP1 SWAP2 ADD PUSH1 0x20 DUP2 ADD SWAP2 POP CALLDATALOAD PUSH8 0xFFFFFFFFFFFFFFFF DUP2 GT ISZERO PUSH2 0x152C JUMPI PUSH1 0x0 DUP1 REVERT JUMPDEST CALLDATASIZE DUP2 SWAP1 SUB DUP3 SGT ISZERO PUSH2 0x153C JUMPI PUSH1 0x0 DUP1 REVERT JUMPDEST ISZERO ISZERO SWAP1 POP PUSH2 0x1549 JUMPI PUSH2 0x163E JUMP JUMPDEST PUSH1 0x0 PUSH1 0x60 ADDRESS DUP7 DUP7 DUP6 DUP2 DUP2 LT PUSH2 0x155A JUMPI INVALID JUMPDEST PUSH1 0x20 MUL DUP3 ADD SWAP1 POP DUP1 CALLDATALOAD PUSH32 0xFFFFFFFFFFFFFFFFFFFFFFFFFFFFFFFFFFFFFFFFFFFFFFFFFFFFFFFFFFFFFFE1 CALLDATASIZE DUP5 SWAP1 SUB ADD DUP2 SLT PUSH2 0x1594 JUMPI PUSH1 0x0 DUP1 REVERT JUMPDEST SWAP1 SWAP2 ADD PUSH1 0x20 DUP2 ADD SWAP2 POP CALLDATALOAD PUSH8 0xFFFFFFFFFFFFFFFF DUP2 GT ISZERO PUSH2 0x15B3 JUMPI PUSH1 0x0 DUP1 REVERT JUMPDEST CALLDATASIZE DUP2 SWAP1 SUB DUP3 SGT ISZERO PUSH2 0x15C3 JUMPI PUSH1 0x0 DUP1 REVERT JUMPDEST PUSH1 0x40 MLOAD PUSH2 0x15D1 SWAP3 SWAP2 SWAP1 PUSH2 0x4D24 JUMP JUMPDEST PUSH1 0x0 PUSH1 0x40 MLOAD DUP1 DUP4 SUB DUP2 DUP6 GAS STATICCALL SWAP2 POP POP RETURNDATASIZE DUP1 PUSH1 0x0 DUP2 EQ PUSH2 0x160C JUMPI PUSH1 0x40 MLOAD SWAP2 POP PUSH1 0x1F NOT PUSH1 0x3F RETURNDATASIZE ADD AND DUP3 ADD PUSH1 0x40 MSTORE RETURNDATASIZE DUP3 MSTORE RETURNDATASIZE PUSH1 0x0 PUSH1 0x20 DUP5 ADD RETURNDATACOPY PUSH2 0x1611 JUMP JUMPDEST PUSH1 0x60 SWAP2 POP JUMPDEST POP SWAP2 POP SWAP2 POP DUP2 PUSH2 0x1623 JUMPI DUP1 MLOAD PUSH1 0x20 DUP3 ADD REVERT JUMPDEST DUP1 DUP5 DUP5 DUP2 MLOAD DUP2 LT PUSH2 0x1630 JUMPI INVALID JUMPDEST PUSH1 0x20 MUL PUSH1 0x20 ADD ADD DUP2 SWAP1 MSTORE POP POP POP JUMPDEST PUSH1 0x1 ADD PUSH2 0x14C0 JUMP JUMPDEST POP SWAP3 SWAP2 POP POP JUMP JUMPDEST PUSH1 0x60 PUSH2 0x1659 DUP4 DUP6 PUSH2 0x2A11 JUMP JUMPDEST DUP2 MLOAD PUSH1 0x40 DUP1 MLOAD DUP3 DUP2 MSTORE PUSH1 0x20 DUP1 DUP5 MUL DUP3 ADD ADD SWAP1 SWAP2 MSTORE DUP2 DUP1 ISZERO PUSH2 0x1684 JUMPI DUP2 PUSH1 0x20 ADD PUSH1 0x20 DUP3 MUL DUP1 CODESIZE DUP4 CODECOPY ADD SWAP1 POP JUMPDEST POP SWAP2 POP PUSH1 0x0 PUSH2 0x1691 PUSH2 0x2DED JUMP JUMPDEST PUSH20 0xFFFFFFFFFFFFFFFFFFFFFFFFFFFFFFFFFFFFFFFF AND DUP7 PUSH20 0xFFFFFFFFFFFFFFFFFFFFFFFFFFFFFFFFFFFFFFFF AND EQ PUSH2 0x16D1 JUMPI PUSH2 0x16CC DUP7 PUSH2 0x3625 JUMP JUMPDEST PUSH2 0x16D4 JUMP JUMPDEST PUSH1 0x0 JUMPDEST SWAP1 POP PUSH1 0x0 PUSH2 0x16E0 PUSH2 0x2DED JUMP JUMPDEST PUSH20 0xFFFFFFFFFFFFFFFFFFFFFFFFFFFFFFFFFFFFFFFF AND DUP7 PUSH20 0xFFFFFFFFFFFFFFFFFFFFFFFFFFFFFFFFFFFFFFFF AND EQ PUSH2 0x1720 JUMPI PUSH2 0x171B DUP7 PUSH2 0x3625 JUMP JUMPDEST PUSH2 0x1723 JUMP JUMPDEST PUSH1 0x0 JUMPDEST SWAP1 POP PUSH1 0x0 JUMPDEST DUP4 DUP2 LT ISZERO PUSH2 0xF8A JUMPI PUSH1 0x1 PUSH2 0x173A PUSH2 0x2DED JUMP JUMPDEST PUSH20 0xFFFFFFFFFFFFFFFFFFFFFFFFFFFFFFFFFFFFFFFF AND DUP9 PUSH20 0xFFFFFFFFFFFFFFFFFFFFFFFFFFFFFFFFFFFFFFFF AND EQ ISZERO PUSH2 0x17C4 JUMPI DUP7 MLOAD PUSH2 0x17A3 SWAP1 DUP6 SWAP1 PUSH32 0x95B68FE700000000000000000000000000000000000000000000000000000000 SWAP1 DUP11 SWAP1 DUP7 SWAP1 DUP2 LT PUSH2 0x10EB JUMPI INVALID JUMPDEST DUP8 DUP5 DUP2 MLOAD DUP2 LT PUSH2 0x17AF JUMPI INVALID JUMPDEST PUSH1 0x20 MUL PUSH1 0x20 ADD ADD DUP2 SWAP4 POP DUP3 DUP2 MSTORE POP POP POP PUSH2 0x18E1 JUMP JUMPDEST PUSH2 0x17CC PUSH2 0x2DED JUMP JUMPDEST PUSH20 0xFFFFFFFFFFFFFFFFFFFFFFFFFFFFFFFFFFFFFFFF AND DUP10 PUSH20 0xFFFFFFFFFFFFFFFFFFFFFFFFFFFFFFFFFFFFFFFF AND EQ ISZERO PUSH2 0x1835 JUMPI DUP7 MLOAD PUSH2 0x17A3 SWAP1 DUP5 SWAP1 PUSH32 0xCD7724C300000000000000000000000000000000000000000000000000000000 SWAP1 DUP11 SWAP1 DUP7 SWAP1 DUP2 LT PUSH2 0x10EB JUMPI INVALID JUMPDEST DUP7 MLOAD PUSH1 0x0 SWAP1 PUSH2 0x186E SWAP1 DUP7 SWAP1 PUSH32 0x95B68FE700000000000000000000000000000000000000000000000000000000 SWAP1 DUP12 SWAP1 DUP8 SWAP1 DUP2 LT PUSH2 0x10EB JUMPI INVALID JUMPDEST SWAP3 POP SWAP1 POP DUP1 ISZERO PUSH2 0x18C4 JUMPI PUSH2 0x18A3 DUP5 PUSH32 0xCD7724C300000000000000000000000000000000000000000000000000000000 DUP4 PUSH2 0x36B7 JUMP JUMPDEST DUP9 DUP6 DUP2 MLOAD DUP2 LT PUSH2 0x18AF JUMPI INVALID JUMPDEST PUSH1 0x20 MUL PUSH1 0x20 ADD ADD DUP2 SWAP5 POP DUP3 DUP2 MSTORE POP POP POP PUSH2 0x18DF JUMP JUMPDEST PUSH1 0x0 DUP8 DUP5 DUP2 MLOAD DUP2 LT PUSH2 0x18D2 JUMPI INVALID JUMPDEST PUSH1 0x20 MUL PUSH1 0x20 ADD ADD DUP2 DUP2 MSTORE POP POP JUMPDEST POP JUMPDEST DUP1 PUSH2 0x18EC JUMPI POP PUSH2 0xF8A JUMP JUMPDEST POP PUSH1 0x1 ADD PUSH2 0x1728 JUMP JUMPDEST PUSH1 0x40 DUP5 ADD MLOAD PUSH1 0x60 SWAP1 PUSH32 0xFFFFFFFF00000000000000000000000000000000000000000000000000000000 AND PUSH2 0x198F JUMPI PUSH1 0x40 DUP1 MLOAD PUSH1 0x60 DUP2 ADD SWAP1 SWAP2 MSTORE PUSH2 0x1988 SWAP1 DUP1 PUSH2 0x1941 DUP7 DUP10 PUSH1 0x80 DUP5 ADD PUSH2 0x5094 JUMP JUMPDEST PUSH1 0x40 MLOAD PUSH1 0x20 DUP2 DUP4 SUB SUB DUP2 MSTORE SWAP1 PUSH1 0x40 MSTORE DUP2 MSTORE PUSH1 0x20 ADD DUP7 DUP9 PUSH1 0x40 MLOAD PUSH1 0x20 ADD PUSH2 0x1968 SWAP3 SWAP2 SWAP1 PUSH2 0x5094 JUMP JUMPDEST PUSH1 0x40 MLOAD PUSH1 0x20 DUP2 DUP4 SUB SUB DUP2 MSTORE SWAP1 PUSH1 0x40 MSTORE DUP2 MSTORE PUSH1 0x20 ADD PUSH2 0x3989 DUP2 MSTORE POP DUP4 PUSH2 0x2BFC JUMP JUMPDEST SWAP1 POP PUSH2 0x1B37 JUMP JUMPDEST DUP2 MLOAD PUSH1 0x40 DUP1 MLOAD DUP3 DUP2 MSTORE PUSH1 0x20 DUP1 DUP5 MUL DUP3 ADD ADD SWAP1 SWAP2 MSTORE DUP2 DUP1 ISZERO PUSH2 0x19BA JUMPI DUP2 PUSH1 0x20 ADD PUSH1 0x20 DUP3 MUL DUP1 CODESIZE DUP4 CODECOPY ADD SWAP1 POP JUMPDEST POP SWAP2 POP PUSH1 0x0 JUMPDEST DUP2 DUP2 LT ISZERO PUSH2 0xC7B JUMPI PUSH1 0x0 PUSH1 0x60 DUP9 PUSH1 0x0 ADD MLOAD PUSH20 0xFFFFFFFFFFFFFFFFFFFFFFFFFFFFFFFFFFFFFFFF AND PUSH3 0x927C0 DUP11 PUSH1 0x40 ADD MLOAD DUP11 DUP11 DUP11 DUP9 DUP2 MLOAD DUP2 LT PUSH2 0x19FE JUMPI INVALID JUMPDEST PUSH1 0x20 MUL PUSH1 0x20 ADD ADD MLOAD PUSH1 0x40 MLOAD PUSH1 0x24 ADD PUSH2 0x1A18 SWAP4 SWAP3 SWAP2 SWAP1 PUSH2 0x5076 JUMP JUMPDEST PUSH1 0x40 DUP1 MLOAD PUSH32 0xFFFFFFFFFFFFFFFFFFFFFFFFFFFFFFFFFFFFFFFFFFFFFFFFFFFFFFFFFFFFFFE0 DUP2 DUP5 SUB ADD DUP2 MSTORE SWAP2 DUP2 MSTORE PUSH1 0x20 DUP3 ADD DUP1 MLOAD PUSH28 0xFFFFFFFFFFFFFFFFFFFFFFFFFFFFFFFFFFFFFFFFFFFFFFFFFFFFFFFF AND PUSH32 0xFFFFFFFF00000000000000000000000000000000000000000000000000000000 SWAP1 SWAP5 AND SWAP4 SWAP1 SWAP4 OR SWAP1 SWAP3 MSTORE SWAP1 MLOAD PUSH2 0x1AA1 SWAP2 SWAP1 PUSH2 0x4D34 JUMP JUMPDEST PUSH1 0x0 PUSH1 0x40 MLOAD DUP1 DUP4 SUB DUP2 DUP7 DUP7 STATICCALL SWAP3 POP POP POP RETURNDATASIZE DUP1 PUSH1 0x0 DUP2 EQ PUSH2 0x1ADD JUMPI PUSH1 0x40 MLOAD SWAP2 POP PUSH1 0x1F NOT PUSH1 0x3F RETURNDATASIZE ADD AND DUP3 ADD PUSH1 0x40 MSTORE RETURNDATASIZE DUP3 MSTORE RETURNDATASIZE PUSH1 0x0 PUSH1 0x20 DUP5 ADD RETURNDATACOPY PUSH2 0x1AE2 JUMP JUMPDEST PUSH1 0x60 SWAP2 POP JUMPDEST POP SWAP1 SWAP3 POP SWAP1 POP PUSH1 0x0 DUP3 ISZERO PUSH2 0x1B07 JUMPI DUP2 DUP1 PUSH1 0x20 ADD SWAP1 MLOAD PUSH2 0x1B04 SWAP2 SWAP1 DUP2 ADD SWAP1 PUSH2 0x49F6 JUMP JUMPDEST SWAP1 POP JUMPDEST DUP1 PUSH2 0x1B14 JUMPI POP POP POP PUSH2 0xC7B JUMP JUMPDEST DUP1 DUP7 DUP6 DUP2 MLOAD DUP2 LT PUSH2 0x1B21 JUMPI INVALID JUMPDEST PUSH1 0x20 SWAP1 DUP2 MUL SWAP2 SWAP1 SWAP2 ADD ADD MSTORE POP POP POP PUSH1 0x1 ADD PUSH2 0x19C0 JUMP JUMPDEST SWAP5 SWAP4 POP POP POP POP JUMP JUMPDEST PUSH1 0x60 PUSH1 0x0 DUP3 MLOAD SWAP1 POP DUP1 PUSH1 0x40 MLOAD SWAP1 DUP1 DUP3 MSTORE DUP1 PUSH1 0x20 MUL PUSH1 0x20 ADD DUP3 ADD PUSH1 0x40 MSTORE DUP1 ISZERO PUSH2 0x1B71 JUMPI DUP2 PUSH1 0x20 ADD PUSH1 0x20 DUP3 MUL DUP1 CODESIZE DUP4 CODECOPY ADD SWAP1 POP JUMPDEST POP SWAP2 POP PUSH1 0x0 PUSH2 0x1B81 DUP8 DUP8 DUP8 PUSH2 0x2182 JUMP JUMPDEST SWAP1 POP PUSH20 0xFFFFFFFFFFFFFFFFFFFFFFFFFFFFFFFFFFFFFFFF DUP2 AND PUSH2 0x1BA6 JUMPI POP PUSH2 0x1B37 SWAP1 POP JUMP JUMPDEST PUSH1 0x0 JUMPDEST DUP3 DUP2 LT ISZERO PUSH2 0x1D39 JUMPI PUSH1 0x0 PUSH1 0x60 DUP4 PUSH20 0xFFFFFFFFFFFFFFFFFFFFFFFFFFFFFFFFFFFFFFFF AND PUSH3 0x61A80 PUSH1 0x0 PUSH20 0xFFFFFFFFFFFFFFFFFFFFFFFFFFFFFFFFFFFFFFFF AND PUSH4 0x343FBCDD SWAP1 POP PUSH1 0xE0 SHL DUP12 DUP12 DUP12 DUP9 DUP2 MLOAD DUP2 LT PUSH2 0x1C00 JUMPI INVALID JUMPDEST PUSH1 0x20 MUL PUSH1 0x20 ADD ADD MLOAD PUSH1 0x40 MLOAD PUSH1 0x24 ADD PUSH2 0x1C1A SWAP4 SWAP3 SWAP2 SWAP1 PUSH2 0x4E53 JUMP JUMPDEST PUSH1 0x40 DUP1 MLOAD PUSH32 0xFFFFFFFFFFFFFFFFFFFFFFFFFFFFFFFFFFFFFFFFFFFFFFFFFFFFFFFFFFFFFFE0 DUP2 DUP5 SUB ADD DUP2 MSTORE SWAP2 DUP2 MSTORE PUSH1 0x20 DUP3 ADD DUP1 MLOAD PUSH28 0xFFFFFFFFFFFFFFFFFFFFFFFFFFFFFFFFFFFFFFFFFFFFFFFFFFFFFFFF AND PUSH32 0xFFFFFFFF00000000000000000000000000000000000000000000000000000000 SWAP1 SWAP5 AND SWAP4 SWAP1 SWAP4 OR SWAP1 SWAP3 MSTORE SWAP1 MLOAD PUSH2 0x1CA3 SWAP2 SWAP1 PUSH2 0x4D34 JUMP JUMPDEST PUSH1 0x0 PUSH1 0x40 MLOAD DUP1 DUP4 SUB DUP2 DUP7 DUP7 STATICCALL SWAP3 POP POP POP RETURNDATASIZE DUP1 PUSH1 0x0 DUP2 EQ PUSH2 0x1CDF JUMPI PUSH1 0x40 MLOAD SWAP2 POP PUSH1 0x1F NOT PUSH1 0x3F RETURNDATASIZE ADD AND DUP3 ADD PUSH1 0x40 MSTORE RETURNDATASIZE DUP3 MSTORE RETURNDATASIZE PUSH1 0x0 PUSH1 0x20 DUP5 ADD RETURNDATACOPY PUSH2 0x1CE4 JUMP JUMPDEST PUSH1 0x60 SWAP2 POP JUMPDEST POP SWAP1 SWAP3 POP SWAP1 POP PUSH1 0x0 DUP3 ISZERO PUSH2 0x1D09 JUMPI DUP2 DUP1 PUSH1 0x20 ADD SWAP1 MLOAD PUSH2 0x1D06 SWAP2 SWAP1 DUP2 ADD SWAP1 PUSH2 0x49F6 JUMP JUMPDEST SWAP1 POP JUMPDEST DUP1 PUSH2 0x1D16 JUMPI POP POP POP PUSH2 0x1D39 JUMP JUMPDEST DUP1 DUP8 DUP6 DUP2 MLOAD DUP2 LT PUSH2 0x1D23 JUMPI INVALID JUMPDEST PUSH1 0x20 SWAP1 DUP2 MUL SWAP2 SWAP1 SWAP2 ADD ADD MSTORE POP POP POP PUSH1 0x1 ADD PUSH2 0x1BA9 JUMP JUMPDEST POP POP POP SWAP5 SWAP4 POP POP POP POP JUMP JUMPDEST PUSH1 0x40 DUP1 MLOAD PUSH1 0x60 DUP2 DUP2 ADD SWAP1 SWAP3 MSTORE PUSH2 0x83A SWAP1 DUP1 PUSH2 0x1D63 DUP7 DUP10 PUSH1 0x80 DUP5 ADD PUSH2 0x4DAA JUMP JUMPDEST PUSH1 0x40 MLOAD PUSH1 0x20 DUP2 DUP4 SUB SUB DUP2 MSTORE SWAP1 PUSH1 0x40 MSTORE DUP2 MSTORE PUSH1 0x20 ADD DUP7 DUP9 PUSH1 0x40 MLOAD PUSH1 0x20 ADD PUSH2 0x1D8A SWAP3 SWAP2 SWAP1 PUSH2 0x4DAA JUMP JUMPDEST PUSH1 0x40 MLOAD PUSH1 0x20 DUP2 DUP4 SUB SUB DUP2 MSTORE SWAP1 PUSH1 0x40 MSTORE DUP2 MSTORE PUSH1 0x20 ADD PUSH2 0x3B20 DUP2 MSTORE POP DUP4 PUSH2 0x2BFC JUMP JUMPDEST PUSH1 0x3 SLOAD PUSH20 0xFFFFFFFFFFFFFFFFFFFFFFFFFFFFFFFFFFFFFFFF AND DUP2 JUMP JUMPDEST PUSH1 0x60 PUSH1 0x0 DUP3 MLOAD SWAP1 POP DUP1 PUSH1 0x40 MLOAD SWAP1 DUP1 DUP3 MSTORE DUP1 PUSH1 0x20 MUL PUSH1 0x20 ADD DUP3 ADD PUSH1 0x40 MSTORE DUP1 ISZERO PUSH2 0x1DF8 JUMPI DUP2 PUSH1 0x20 ADD PUSH1 0x20 DUP3 MUL DUP1 CODESIZE DUP4 CODECOPY ADD SWAP1 POP JUMPDEST POP SWAP2 POP PUSH1 0x0 JUMPDEST DUP2 DUP2 LT ISZERO PUSH2 0x1FA9 JUMPI PUSH1 0x0 PUSH1 0x60 PUSH2 0x1E12 PUSH2 0x3B9A JUMP JUMPDEST PUSH20 0xFFFFFFFFFFFFFFFFFFFFFFFFFFFFFFFFFFFFFFFF AND PUSH3 0x249F0 PUSH1 0x0 PUSH20 0xFFFFFFFFFFFFFFFFFFFFFFFFFFFFFFFFFFFFFFFF AND PUSH4 0xD06CA61F SWAP1 POP PUSH1 0xE0 SHL DUP9 DUP7 DUP2 MLOAD DUP2 LT PUSH2 0x1E5A JUMPI INVALID JUMPDEST PUSH1 0x20 MUL PUSH1 0x20 ADD ADD MLOAD DUP11 PUSH1 0x40 MLOAD PUSH1 0x24 ADD PUSH2 0x1E74 SWAP3 SWAP2 SWAP1 PUSH2 0x52A5 JUMP JUMPDEST PUSH1 0x40 DUP1 MLOAD PUSH32 0xFFFFFFFFFFFFFFFFFFFFFFFFFFFFFFFFFFFFFFFFFFFFFFFFFFFFFFFFFFFFFFE0 DUP2 DUP5 SUB ADD DUP2 MSTORE SWAP2 DUP2 MSTORE PUSH1 0x20 DUP3 ADD DUP1 MLOAD PUSH28 0xFFFFFFFFFFFFFFFFFFFFFFFFFFFFFFFFFFFFFFFFFFFFFFFFFFFFFFFF AND PUSH32 0xFFFFFFFF00000000000000000000000000000000000000000000000000000000 SWAP1 SWAP5 AND SWAP4 SWAP1 SWAP4 OR SWAP1 SWAP3 MSTORE SWAP1 MLOAD PUSH2 0x1EFD SWAP2 SWAP1 PUSH2 0x4D34 JUMP JUMPDEST PUSH1 0x0 PUSH1 0x40 MLOAD DUP1 DUP4 SUB DUP2 DUP7 DUP7 STATICCALL SWAP3 POP POP POP RETURNDATASIZE DUP1 PUSH1 0x0 DUP2 EQ PUSH2 0x1F39 JUMPI PUSH1 0x40 MLOAD SWAP2 POP PUSH1 0x1F NOT PUSH1 0x3F RETURNDATASIZE ADD AND DUP3 ADD PUSH1 0x40 MSTORE RETURNDATASIZE DUP3 MSTORE RETURNDATASIZE PUSH1 0x0 PUSH1 0x20 DUP5 ADD RETURNDATACOPY PUSH2 0x1F3E JUMP JUMPDEST PUSH1 0x60 SWAP2 POP JUMPDEST POP SWAP1 SWAP3 POP SWAP1 POP PUSH1 0x0 DUP3 ISZERO PUSH2 0x1F7E JUMPI DUP2 DUP1 PUSH1 0x20 ADD SWAP1 MLOAD PUSH2 0x1F60 SWAP2 SWAP1 DUP2 ADD SWAP1 PUSH2 0x4845 JUMP JUMPDEST PUSH1 0x1 DUP10 MLOAD SUB DUP2 MLOAD DUP2 LT PUSH2 0x1F6F JUMPI INVALID JUMPDEST PUSH1 0x20 MUL PUSH1 0x20 ADD ADD MLOAD SWAP1 POP PUSH2 0x1F86 JUMP JUMPDEST POP POP POP PUSH2 0x1FA9 JUMP JUMPDEST DUP1 DUP7 DUP6 DUP2 MLOAD DUP2 LT PUSH2 0x1F93 JUMPI INVALID JUMPDEST PUSH1 0x20 SWAP1 DUP2 MUL SWAP2 SWAP1 SWAP2 ADD ADD MSTORE POP POP POP PUSH1 0x1 ADD PUSH2 0x1DFE JUMP JUMPDEST POP POP SWAP3 SWAP2 POP POP JUMP JUMPDEST PUSH1 0x60 PUSH1 0x0 DUP3 MLOAD SWAP1 POP DUP1 PUSH1 0x40 MLOAD SWAP1 DUP1 DUP3 MSTORE DUP1 PUSH1 0x20 MUL PUSH1 0x20 ADD DUP3 ADD PUSH1 0x40 MSTORE DUP1 ISZERO PUSH2 0x1FE3 JUMPI DUP2 PUSH1 0x20 ADD PUSH1 0x20 DUP3 MUL DUP1 CODESIZE DUP4 CODECOPY ADD SWAP1 POP JUMPDEST POP SWAP2 POP PUSH1 0x0 JUMPDEST DUP2 DUP2 LT ISZERO PUSH2 0xE59 JUMPI PUSH1 0x0 PUSH1 0x60 PUSH2 0x1FFD PUSH2 0x3BB6 JUMP JUMPDEST PUSH20 0xFFFFFFFFFFFFFFFFFFFFFFFFFFFFFFFFFFFFFFFF AND PUSH3 0xC3500 PUSH1 0x0 PUSH20 0xFFFFFFFFFFFFFFFFFFFFFFFFFFFFFFFFFFFFFFFF AND PUSH4 0x72EA9076 SWAP1 POP PUSH1 0xE0 SHL DUP11 DUP11 DUP11 DUP9 DUP2 MLOAD DUP2 LT PUSH2 0x2047 JUMPI INVALID JUMPDEST PUSH1 0x20 MUL PUSH1 0x20 ADD ADD MLOAD PUSH1 0x40 MLOAD PUSH1 0x24 ADD PUSH2 0x2061 SWAP4 SWAP3 SWAP2 SWAP1 PUSH2 0x4E53 JUMP JUMPDEST PUSH1 0x40 DUP1 MLOAD PUSH32 0xFFFFFFFFFFFFFFFFFFFFFFFFFFFFFFFFFFFFFFFFFFFFFFFFFFFFFFFFFFFFFFE0 DUP2 DUP5 SUB ADD DUP2 MSTORE SWAP2 DUP2 MSTORE PUSH1 0x20 DUP3 ADD DUP1 MLOAD PUSH28 0xFFFFFFFFFFFFFFFFFFFFFFFFFFFFFFFFFFFFFFFFFFFFFFFFFFFFFFFF AND PUSH32 0xFFFFFFFF00000000000000000000000000000000000000000000000000000000 SWAP1 SWAP5 AND SWAP4 SWAP1 SWAP4 OR SWAP1 SWAP3 MSTORE SWAP1 MLOAD PUSH2 0x20EA SWAP2 SWAP1 PUSH2 0x4D34 JUMP JUMPDEST PUSH1 0x0 PUSH1 0x40 MLOAD DUP1 DUP4 SUB DUP2 DUP7 DUP7 STATICCALL SWAP3 POP POP POP RETURNDATASIZE DUP1 PUSH1 0x0 DUP2 EQ PUSH2 0x2126 JUMPI PUSH1 0x40 MLOAD SWAP2 POP PUSH1 0x1F NOT PUSH1 0x3F RETURNDATASIZE ADD AND DUP3 ADD PUSH1 0x40 MSTORE RETURNDATASIZE DUP3 MSTORE RETURNDATASIZE PUSH1 0x0 PUSH1 0x20 DUP5 ADD RETURNDATACOPY PUSH2 0x212B JUMP JUMPDEST PUSH1 0x60 SWAP2 POP JUMPDEST POP SWAP1 SWAP3 POP SWAP1 POP PUSH1 0x0 DUP3 ISZERO PUSH2 0x2152 JUMPI DUP2 DUP1 PUSH1 0x20 ADD SWAP1 MLOAD PUSH2 0x214D SWAP2 SWAP1 DUP2 ADD SWAP1 PUSH2 0x499A JUMP JUMPDEST SWAP3 POP POP POP JUMPDEST DUP1 PUSH2 0x215F JUMPI POP POP POP PUSH2 0xE59 JUMP JUMPDEST DUP1 DUP7 DUP6 DUP2 MLOAD DUP2 LT PUSH2 0x216C JUMPI INVALID JUMPDEST PUSH1 0x20 SWAP1 DUP2 MUL SWAP2 SWAP1 SWAP2 ADD ADD MSTORE POP POP POP PUSH1 0x1 ADD PUSH2 0x1FE9 JUMP JUMPDEST PUSH1 0x0 PUSH20 0xFFFFFFFFFFFFFFFFFFFFFFFFFFFFFFFFFFFFFFFF DUP5 AND PUSH2 0x21A7 JUMPI POP PUSH1 0x0 PUSH2 0x5CA JUMP JUMPDEST PUSH1 0x40 MLOAD PUSH1 0x60 SWAP1 PUSH32 0x153F599700000000000000000000000000000000000000000000000000000000 SWAP1 PUSH2 0x21DF SWAP1 DUP7 SWAP1 DUP7 SWAP1 PUSH1 0x24 ADD PUSH2 0x4DAA JUMP JUMPDEST PUSH1 0x40 MLOAD PUSH1 0x20 DUP2 DUP4 SUB SUB DUP2 MSTORE SWAP1 PUSH1 0x40 MSTORE SWAP1 PUSH28 0xFFFFFFFFFFFFFFFFFFFFFFFFFFFFFFFFFFFFFFFFFFFFFFFFFFFFFFFF NOT AND PUSH1 0x20 DUP3 ADD DUP1 MLOAD PUSH28 0xFFFFFFFFFFFFFFFFFFFFFFFFFFFFFFFFFFFFFFFFFFFFFFFFFFFFFFFF DUP4 DUP2 DUP4 AND OR DUP4 MSTORE POP POP POP POP SWAP1 POP PUSH1 0x0 PUSH1 0x60 DUP7 PUSH20 0xFFFFFFFFFFFFFFFFFFFFFFFFFFFFFFFFFFFFFFFF AND DUP4 PUSH1 0x40 MLOAD PUSH2 0x2267 SWAP2 SWAP1 PUSH2 0x4D34 JUMP JUMPDEST PUSH1 0x0 PUSH1 0x40 MLOAD DUP1 DUP4 SUB DUP2 DUP6 GAS STATICCALL SWAP2 POP POP RETURNDATASIZE DUP1 PUSH1 0x0 DUP2 EQ PUSH2 0x22A2 JUMPI PUSH1 0x40 MLOAD SWAP2 POP PUSH1 0x1F NOT PUSH1 0x3F RETURNDATASIZE ADD AND DUP3 ADD PUSH1 0x40 MSTORE RETURNDATASIZE DUP3 MSTORE RETURNDATASIZE PUSH1 0x0 PUSH1 0x20 DUP5 ADD RETURNDATACOPY PUSH2 0x22A7 JUMP JUMPDEST PUSH1 0x60 SWAP2 POP JUMPDEST POP SWAP2 POP SWAP2 POP DUP2 DUP1 ISZERO PUSH2 0x22BA JUMPI POP DUP1 MLOAD PUSH1 0x20 EQ JUMPDEST ISZERO PUSH2 0x22D4 JUMPI PUSH2 0x22CA DUP2 PUSH1 0xC PUSH2 0x3BCE JUMP JUMPDEST SWAP4 POP POP POP POP PUSH2 0x5CA JUMP JUMPDEST POP POP POP SWAP4 SWAP3 POP POP POP JUMP JUMPDEST PUSH1 0x60 PUSH2 0x5C7 PUSH1 0x40 MLOAD DUP1 PUSH1 0x60 ADD PUSH1 0x40 MSTORE DUP1 DUP6 PUSH1 0x40 MLOAD PUSH1 0x20 ADD PUSH2 0x22FF SWAP2 SWAP1 PUSH2 0x4D50 JUMP JUMPDEST PUSH1 0x40 MLOAD PUSH1 0x20 DUP2 DUP4 SUB SUB DUP2 MSTORE SWAP1 PUSH1 0x40 MSTORE DUP2 MSTORE PUSH1 0x20 ADD DUP7 PUSH1 0x40 MLOAD PUSH1 0x20 ADD PUSH2 0x2324 SWAP2 SWAP1 PUSH2 0x4D50 JUMP JUMPDEST PUSH1 0x40 MLOAD PUSH1 0x20 DUP2 DUP4 SUB SUB DUP2 MSTORE SWAP1 PUSH1 0x40 MSTORE DUP2 MSTORE PUSH1 0x20 ADD PUSH2 0x3C13 DUP2 MSTORE POP DUP4 PUSH2 0x2BFC JUMP JUMPDEST PUSH20 0xE9DB8717BC5DFB20AAF538B4A5A02B7791FF430C DUP2 JUMP JUMPDEST PUSH1 0x60 PUSH2 0x2368 DUP4 DUP6 PUSH2 0x2A11 JUMP JUMPDEST DUP2 MLOAD PUSH1 0x40 DUP1 MLOAD DUP3 DUP2 MSTORE PUSH1 0x20 DUP1 DUP5 MUL DUP3 ADD ADD SWAP1 SWAP2 MSTORE DUP2 DUP1 ISZERO PUSH2 0x2393 JUMPI DUP2 PUSH1 0x20 ADD PUSH1 0x20 DUP3 MUL DUP1 CODESIZE DUP4 CODECOPY ADD SWAP1 POP JUMPDEST POP SWAP2 POP PUSH1 0x0 PUSH2 0x23A0 PUSH2 0x2DED JUMP JUMPDEST PUSH20 0xFFFFFFFFFFFFFFFFFFFFFFFFFFFFFFFFFFFFFFFF AND DUP7 PUSH20 0xFFFFFFFFFFFFFFFFFFFFFFFFFFFFFFFFFFFFFFFF AND EQ PUSH2 0x23D8 JUMPI DUP6 PUSH2 0x23DB JUMP JUMPDEST PUSH1 0x0 JUMPDEST SWAP1 POP PUSH1 0x0 PUSH2 0x23E7 PUSH2 0x2DED JUMP JUMPDEST PUSH20 0xFFFFFFFFFFFFFFFFFFFFFFFFFFFFFFFFFFFFFFFF AND DUP7 PUSH20 0xFFFFFFFFFFFFFFFFFFFFFFFFFFFFFFFFFFFFFFFF AND EQ PUSH2 0x241F JUMPI DUP6 PUSH2 0x2422 JUMP JUMPDEST PUSH1 0x0 JUMPDEST SWAP1 POP PUSH1 0x0 PUSH2 0x242E PUSH2 0x3C75 JUMP JUMPDEST PUSH20 0xFFFFFFFFFFFFFFFFFFFFFFFFFFFFFFFFFFFFFFFF AND PUSH4 0x901754D7 DUP5 DUP5 PUSH1 0x40 MLOAD DUP4 PUSH4 0xFFFFFFFF AND PUSH1 0xE0 SHL DUP2 MSTORE PUSH1 0x4 ADD PUSH2 0x2468 SWAP3 SWAP2 SWAP1 PUSH2 0x4DAA JUMP JUMPDEST PUSH1 0x20 PUSH1 0x40 MLOAD DUP1 DUP4 SUB DUP2 DUP7 DUP1 EXTCODESIZE ISZERO DUP1 ISZERO PUSH2 0x2480 JUMPI PUSH1 0x0 DUP1 REVERT JUMPDEST POP GAS STATICCALL ISZERO DUP1 ISZERO PUSH2 0x2494 JUMPI RETURNDATASIZE PUSH1 0x0 DUP1 RETURNDATACOPY RETURNDATASIZE PUSH1 0x0 REVERT JUMPDEST POP POP POP POP PUSH1 0x40 MLOAD RETURNDATASIZE PUSH1 0x1F NOT PUSH1 0x1F DUP3 ADD AND DUP3 ADD DUP1 PUSH1 0x40 MSTORE POP PUSH2 0x24B8 SWAP2 SWAP1 DUP2 ADD SWAP1 PUSH2 0x444B JUMP JUMPDEST SWAP1 POP PUSH20 0xFFFFFFFFFFFFFFFFFFFFFFFFFFFFFFFFFFFFFFFF DUP2 AND PUSH2 0x24DF JUMPI POP PUSH2 0x5CA SWAP3 POP POP POP JUMP JUMPDEST PUSH1 0x0 PUSH20 0xFFFFFFFFFFFFFFFFFFFFFFFFFFFFFFFFFFFFFFFF DUP5 AND ISZERO PUSH2 0x25A4 JUMPI PUSH1 0x40 MLOAD PUSH32 0x70A0823100000000000000000000000000000000000000000000000000000000 DUP2 MSTORE PUSH20 0xFFFFFFFFFFFFFFFFFFFFFFFFFFFFFFFFFFFFFFFF DUP6 AND SWAP1 PUSH4 0x70A08231 SWAP1 PUSH2 0x254F SWAP1 DUP6 SWAP1 PUSH1 0x4 ADD PUSH2 0x4D50 JUMP JUMPDEST PUSH1 0x20 PUSH1 0x40 MLOAD DUP1 DUP4 SUB DUP2 DUP7 DUP1 EXTCODESIZE ISZERO DUP1 ISZERO PUSH2 0x2567 JUMPI PUSH1 0x0 DUP1 REVERT JUMPDEST POP GAS STATICCALL ISZERO DUP1 ISZERO PUSH2 0x257B JUMPI RETURNDATASIZE PUSH1 0x0 DUP1 RETURNDATACOPY RETURNDATASIZE PUSH1 0x0 REVERT JUMPDEST POP POP POP POP PUSH1 0x40 MLOAD RETURNDATASIZE PUSH1 0x1F NOT PUSH1 0x1F DUP3 ADD AND DUP3 ADD DUP1 PUSH1 0x40 MSTORE POP PUSH2 0x259F SWAP2 SWAP1 DUP2 ADD SWAP1 PUSH2 0x49F6 JUMP JUMPDEST PUSH2 0x25BD JUMP JUMPDEST DUP2 PUSH20 0xFFFFFFFFFFFFFFFFFFFFFFFFFFFFFFFFFFFFFFFF AND BALANCE JUMPDEST SWAP1 POP PUSH1 0x0 JUMPDEST DUP6 DUP2 LT ISZERO PUSH2 0x2772 JUMPI DUP8 DUP2 DUP2 MLOAD DUP2 LT PUSH2 0x25D6 JUMPI INVALID JUMPDEST PUSH1 0x20 MUL PUSH1 0x20 ADD ADD MLOAD DUP3 LT ISZERO PUSH2 0x25EA JUMPI PUSH2 0x2772 JUMP JUMPDEST PUSH1 0x0 PUSH1 0x60 DUP5 PUSH20 0xFFFFFFFFFFFFFFFFFFFFFFFFFFFFFFFFFFFFFFFF AND PUSH3 0x249F0 PUSH1 0x0 PUSH20 0xFFFFFFFFFFFFFFFFFFFFFFFFFFFFFFFFFFFFFFFF AND PUSH4 0x1E1401F8 SWAP1 POP PUSH1 0xE0 SHL DUP10 DUP10 DUP15 DUP9 DUP2 MLOAD DUP2 LT PUSH2 0x2639 JUMPI INVALID JUMPDEST PUSH1 0x20 MUL PUSH1 0x20 ADD ADD MLOAD PUSH1 0x40 MLOAD PUSH1 0x24 ADD PUSH2 0x2653 SWAP4 SWAP3 SWAP2 SWAP1 PUSH2 0x4E53 JUMP JUMPDEST PUSH1 0x40 DUP1 MLOAD PUSH32 0xFFFFFFFFFFFFFFFFFFFFFFFFFFFFFFFFFFFFFFFFFFFFFFFFFFFFFFFFFFFFFFE0 DUP2 DUP5 SUB ADD DUP2 MSTORE SWAP2 DUP2 MSTORE PUSH1 0x20 DUP3 ADD DUP1 MLOAD PUSH28 0xFFFFFFFFFFFFFFFFFFFFFFFFFFFFFFFFFFFFFFFFFFFFFFFFFFFFFFFF AND PUSH32 0xFFFFFFFF00000000000000000000000000000000000000000000000000000000 SWAP1 SWAP5 AND SWAP4 SWAP1 SWAP4 OR SWAP1 SWAP3 MSTORE SWAP1 MLOAD PUSH2 0x26DC SWAP2 SWAP1 PUSH2 0x4D34 JUMP JUMPDEST PUSH1 0x0 PUSH1 0x40 MLOAD DUP1 DUP4 SUB DUP2 DUP7 DUP7 STATICCALL SWAP3 POP POP POP RETURNDATASIZE DUP1 PUSH1 0x0 DUP2 EQ PUSH2 0x2718 JUMPI PUSH1 0x40 MLOAD SWAP2 POP PUSH1 0x1F NOT PUSH1 0x3F RETURNDATASIZE ADD AND DUP3 ADD PUSH1 0x40 MSTORE RETURNDATASIZE DUP3 MSTORE RETURNDATASIZE PUSH1 0x0 PUSH1 0x20 DUP5 ADD RETURNDATACOPY PUSH2 0x271D JUMP JUMPDEST PUSH1 0x60 SWAP2 POP JUMPDEST POP SWAP1 SWAP3 POP SWAP1 POP PUSH1 0x0 DUP3 ISZERO PUSH2 0x2742 JUMPI DUP2 DUP1 PUSH1 0x20 ADD SWAP1 MLOAD PUSH2 0x273F SWAP2 SWAP1 DUP2 ADD SWAP1 PUSH2 0x49F6 JUMP JUMPDEST SWAP1 POP JUMPDEST DUP1 PUSH2 0x274F JUMPI POP POP POP PUSH2 0x2772 JUMP JUMPDEST DUP1 DUP11 DUP6 DUP2 MLOAD DUP2 LT PUSH2 0x275C JUMPI INVALID JUMPDEST PUSH1 0x20 SWAP1 DUP2 MUL SWAP2 SWAP1 SWAP2 ADD ADD MSTORE POP POP POP PUSH1 0x1 ADD PUSH2 0x25C2 JUMP JUMPDEST POP POP POP POP POP POP SWAP4 SWAP3 POP POP POP JUMP JUMPDEST PUSH1 0x60 PUSH1 0x0 DUP3 MLOAD SWAP1 POP DUP1 PUSH1 0x40 MLOAD SWAP1 DUP1 DUP3 MSTORE DUP1 PUSH1 0x20 MUL PUSH1 0x20 ADD DUP3 ADD PUSH1 0x40 MSTORE DUP1 ISZERO PUSH2 0x27B1 JUMPI DUP2 PUSH1 0x20 ADD PUSH1 0x20 DUP3 MUL DUP1 CODESIZE DUP4 CODECOPY ADD SWAP1 POP JUMPDEST POP SWAP2 POP PUSH1 0x0 JUMPDEST DUP2 DUP2 LT ISZERO PUSH2 0x1FA9 JUMPI PUSH1 0x0 PUSH1 0x60 PUSH2 0x27CB PUSH2 0x3B9A JUMP JUMPDEST PUSH20 0xFFFFFFFFFFFFFFFFFFFFFFFFFFFFFFFFFFFFFFFF AND PUSH3 0x249F0 PUSH1 0x0 PUSH20 0xFFFFFFFFFFFFFFFFFFFFFFFFFFFFFFFFFFFFFFFF AND PUSH4 0x1F00CA74 SWAP1 POP PUSH1 0xE0 SHL DUP9 DUP7 DUP2 MLOAD DUP2 LT PUSH2 0x2813 JUMPI INVALID JUMPDEST PUSH1 0x20 MUL PUSH1 0x20 ADD ADD MLOAD DUP11 PUSH1 0x40 MLOAD PUSH1 0x24 ADD PUSH2 0x282D SWAP3 SWAP2 SWAP1 PUSH2 0x52A5 JUMP JUMPDEST PUSH1 0x40 DUP1 MLOAD PUSH32 0xFFFFFFFFFFFFFFFFFFFFFFFFFFFFFFFFFFFFFFFFFFFFFFFFFFFFFFFFFFFFFFE0 DUP2 DUP5 SUB ADD DUP2 MSTORE SWAP2 DUP2 MSTORE PUSH1 0x20 DUP3 ADD DUP1 MLOAD PUSH28 0xFFFFFFFFFFFFFFFFFFFFFFFFFFFFFFFFFFFFFFFFFFFFFFFFFFFFFFFF AND PUSH32 0xFFFFFFFF00000000000000000000000000000000000000000000000000000000 SWAP1 SWAP5 AND SWAP4 SWAP1 SWAP4 OR SWAP1 SWAP3 MSTORE SWAP1 MLOAD PUSH2 0x28B6 SWAP2 SWAP1 PUSH2 0x4D34 JUMP JUMPDEST PUSH1 0x0 PUSH1 0x40 MLOAD DUP1 DUP4 SUB DUP2 DUP7 DUP7 STATICCALL SWAP3 POP POP POP RETURNDATASIZE DUP1 PUSH1 0x0 DUP2 EQ PUSH2 0x28F2 JUMPI PUSH1 0x40 MLOAD SWAP2 POP PUSH1 0x1F NOT PUSH1 0x3F RETURNDATASIZE ADD AND DUP3 ADD PUSH1 0x40 MSTORE RETURNDATASIZE DUP3 MSTORE RETURNDATASIZE PUSH1 0x0 PUSH1 0x20 DUP5 ADD RETURNDATACOPY PUSH2 0x28F7 JUMP JUMPDEST PUSH1 0x60 SWAP2 POP JUMPDEST POP SWAP1 SWAP3 POP SWAP1 POP PUSH1 0x0 DUP3 ISZERO PUSH2 0x1F7E JUMPI DUP2 DUP1 PUSH1 0x20 ADD SWAP1 MLOAD PUSH2 0x2919 SWAP2 SWAP1 DUP2 ADD SWAP1 PUSH2 0x4845 JUMP JUMPDEST PUSH1 0x0 DUP2 MLOAD DUP2 LT PUSH2 0x2925 JUMPI INVALID JUMPDEST PUSH1 0x20 MUL PUSH1 0x20 ADD ADD MLOAD SWAP1 POP DUP1 DUP7 DUP6 DUP2 MLOAD DUP2 LT PUSH2 0x293C JUMPI INVALID JUMPDEST PUSH1 0x20 SWAP1 DUP2 MUL SWAP2 SWAP1 SWAP2 ADD ADD MSTORE POP POP POP PUSH1 0x1 ADD PUSH2 0x27B7 JUMP JUMPDEST PUSH1 0x60 PUSH2 0x295F DUP5 DUP5 DUP5 PUSH2 0x8D1 JUMP JUMPDEST SWAP1 POP PUSH1 0x0 JUMPDEST DUP5 MLOAD DUP2 LT ISZERO PUSH2 0xA7E JUMPI DUP2 DUP2 DUP2 MLOAD DUP2 LT PUSH2 0x2979 JUMPI INVALID JUMPDEST PUSH1 0x20 MUL PUSH1 0x20 ADD ADD MLOAD PUSH1 0x0 EQ PUSH2 0x29ED JUMPI PUSH2 0x29D4 DUP3 DUP3 DUP2 MLOAD DUP2 LT PUSH2 0x2997 JUMPI INVALID JUMPDEST PUSH1 0x20 MUL PUSH1 0x20 ADD ADD MLOAD DUP7 DUP4 DUP2 MLOAD DUP2 LT PUSH2 0x29AB JUMPI INVALID JUMPDEST PUSH1 0x20 MUL PUSH1 0x20 ADD ADD MLOAD PUSH1 0xA0 ADD MLOAD DUP8 DUP5 DUP2 MLOAD DUP2 LT PUSH2 0x29C3 JUMPI INVALID JUMPDEST PUSH1 0x20 MUL PUSH1 0x20 ADD ADD MLOAD PUSH1 0x80 ADD MLOAD PUSH2 0x3C8D JUMP JUMPDEST DUP3 DUP3 DUP2 MLOAD DUP2 LT PUSH2 0x29E0 JUMPI INVALID JUMPDEST PUSH1 0x20 MUL PUSH1 0x20 ADD ADD DUP2 DUP2 MSTORE POP POP JUMPDEST PUSH1 0x1 ADD PUSH2 0x2964 JUMP JUMPDEST PUSH1 0x2 SLOAD PUSH20 0xFFFFFFFFFFFFFFFFFFFFFFFFFFFFFFFFFFFFFFFF AND DUP2 JUMP JUMPDEST DUP1 PUSH20 0xFFFFFFFFFFFFFFFFFFFFFFFFFFFFFFFFFFFFFFFF AND DUP3 PUSH20 0xFFFFFFFFFFFFFFFFFFFFFFFFFFFFFFFFFFFFFFFF AND EQ ISZERO PUSH2 0x2A80 JUMPI PUSH1 0x40 MLOAD PUSH32 0x8C379A000000000000000000000000000000000000000000000000000000000 DUP2 MSTORE PUSH1 0x4 ADD PUSH2 0x2A77 SWAP1 PUSH2 0x50AC JUMP JUMPDEST PUSH1 0x40 MLOAD DUP1 SWAP2 SUB SWAP1 REVERT JUMPDEST POP POP JUMP JUMPDEST PUSH1 0x0 DUP1 PUSH1 0x60 ADDRESS PUSH20 0xFFFFFFFFFFFFFFFFFFFFFFFFFFFFFFFFFFFFFFFF AND PUSH4 0x4CB8E253 PUSH1 0xE0 SHL DUP8 DUP1 PUSH1 0x20 ADD SWAP1 MLOAD PUSH2 0x2ABC SWAP2 SWAP1 DUP2 ADD SWAP1 PUSH2 0x444B JUMP JUMPDEST DUP8 DUP1 PUSH1 0x20 ADD SWAP1 MLOAD PUSH2 0x2AD0 SWAP2 SWAP1 DUP2 ADD SWAP1 PUSH2 0x444B JUMP JUMPDEST PUSH2 0x2AD9 DUP9 PUSH2 0x3CCF JUMP JUMPDEST PUSH1 0x40 MLOAD PUSH1 0x24 ADD PUSH2 0x2AEB SWAP4 SWAP3 SWAP2 SWAP1 PUSH2 0x4D71 JUMP JUMPDEST PUSH1 0x40 DUP1 MLOAD PUSH32 0xFFFFFFFFFFFFFFFFFFFFFFFFFFFFFFFFFFFFFFFFFFFFFFFFFFFFFFFFFFFFFFE0 DUP2 DUP5 SUB ADD DUP2 MSTORE SWAP2 DUP2 MSTORE PUSH1 0x20 DUP3 ADD DUP1 MLOAD PUSH28 0xFFFFFFFFFFFFFFFFFFFFFFFFFFFFFFFFFFFFFFFFFFFFFFFFFFFFFFFF AND PUSH32 0xFFFFFFFF00000000000000000000000000000000000000000000000000000000 SWAP1 SWAP5 AND SWAP4 SWAP1 SWAP4 OR SWAP1 SWAP3 MSTORE SWAP1 MLOAD PUSH2 0x2B74 SWAP2 SWAP1 PUSH2 0x4D34 JUMP JUMPDEST PUSH1 0x0 PUSH1 0x40 MLOAD DUP1 DUP4 SUB DUP2 DUP6 GAS STATICCALL SWAP2 POP POP RETURNDATASIZE DUP1 PUSH1 0x0 DUP2 EQ PUSH2 0x2BAF JUMPI PUSH1 0x40 MLOAD SWAP2 POP PUSH1 0x1F NOT PUSH1 0x3F RETURNDATASIZE ADD AND DUP3 ADD PUSH1 0x40 MSTORE RETURNDATASIZE DUP3 MSTORE RETURNDATASIZE PUSH1 0x0 PUSH1 0x20 DUP5 ADD RETURNDATACOPY PUSH2 0x2BB4 JUMP JUMPDEST PUSH1 0x60 SWAP2 POP JUMPDEST POP SWAP2 POP SWAP2 POP DUP2 PUSH2 0x2BC9 JUMPI PUSH1 0x0 SWAP3 POP POP POP PUSH2 0x5CA JUMP JUMPDEST DUP1 DUP1 PUSH1 0x20 ADD SWAP1 MLOAD PUSH2 0x2BDD SWAP2 SWAP1 DUP2 ADD SWAP1 PUSH2 0x4845 JUMP JUMPDEST PUSH1 0x0 DUP2 MLOAD DUP2 LT PUSH2 0x2BE9 JUMPI INVALID JUMPDEST PUSH1 0x20 MUL PUSH1 0x20 ADD ADD MLOAD SWAP3 POP POP POP SWAP4 SWAP3 POP POP POP JUMP JUMPDEST PUSH1 0x60 DUP2 MLOAD PUSH1 0x40 MLOAD SWAP1 DUP1 DUP3 MSTORE DUP1 PUSH1 0x20 MUL PUSH1 0x20 ADD DUP3 ADD PUSH1 0x40 MSTORE DUP1 ISZERO PUSH2 0x2C29 JUMPI DUP2 PUSH1 0x20 ADD PUSH1 0x20 DUP3 MUL DUP1 CODESIZE DUP4 CODECOPY ADD SWAP1 POP JUMPDEST POP SWAP1 POP DUP2 MLOAD PUSH1 0x0 EQ ISZERO PUSH2 0x2C3B JUMPI PUSH2 0x2DCB JUMP JUMPDEST PUSH1 0x0 PUSH2 0x2C6C DUP5 PUSH1 0x0 ADD MLOAD DUP6 PUSH1 0x20 ADD MLOAD DUP6 PUSH1 0x0 DUP2 MLOAD DUP2 LT PUSH2 0x2C57 JUMPI INVALID JUMPDEST PUSH1 0x20 MUL PUSH1 0x20 ADD ADD MLOAD DUP8 PUSH1 0x40 ADD MLOAD PUSH4 0xFFFFFFFF AND JUMP JUMPDEST SWAP1 POP DUP1 PUSH2 0x2C79 JUMPI POP PUSH2 0x2DCB JUMP JUMPDEST PUSH1 0x0 PUSH2 0x2C96 DUP6 PUSH1 0x20 ADD MLOAD DUP7 PUSH1 0x0 ADD MLOAD DUP5 DUP9 PUSH1 0x40 ADD MLOAD PUSH4 0xFFFFFFFF AND JUMP JUMPDEST SWAP1 POP DUP1 PUSH2 0x2CA5 JUMPI POP PUSH2 0x2DCB SWAP1 POP JUMP JUMPDEST PUSH1 0x0 JUMPDEST DUP5 MLOAD DUP2 LT ISZERO PUSH2 0x2DC7 JUMPI PUSH1 0x0 JUMPDEST PUSH1 0x5 DUP2 LT ISZERO PUSH2 0x2D89 JUMPI PUSH2 0x2CDB DUP7 DUP4 DUP2 MLOAD DUP2 LT PUSH2 0x2CCC JUMPI INVALID JUMPDEST PUSH1 0x20 MUL PUSH1 0x20 ADD ADD MLOAD DUP5 DUP7 PUSH2 0x3C8D JUMP JUMPDEST SWAP4 POP PUSH2 0x2CEC PUSH2 0x2715 PUSH2 0x2710 DUP7 PUSH2 0x3C8D JUMP JUMPDEST SWAP4 POP PUSH1 0x0 PUSH2 0x2D0B DUP9 PUSH1 0x20 ADD MLOAD DUP10 PUSH1 0x0 ADD MLOAD DUP8 DUP12 PUSH1 0x40 ADD MLOAD PUSH4 0xFFFFFFFF AND JUMP JUMPDEST SWAP1 POP DUP1 PUSH2 0x2D18 JUMPI POP PUSH2 0x2D89 JUMP JUMPDEST DUP1 SWAP4 POP DUP7 DUP4 DUP2 MLOAD DUP2 LT PUSH2 0x2D27 JUMPI INVALID JUMPDEST PUSH1 0x20 MUL PUSH1 0x20 ADD ADD MLOAD DUP5 LT PUSH2 0x2D80 JUMPI PUSH1 0x0 DUP8 DUP5 DUP2 MLOAD DUP2 LT PUSH2 0x2D43 JUMPI INVALID JUMPDEST PUSH1 0x20 MUL PUSH1 0x20 ADD ADD MLOAD PUSH2 0x2710 DUP10 DUP7 DUP2 MLOAD DUP2 LT PUSH2 0x2D5A JUMPI INVALID JUMPDEST PUSH1 0x20 MUL PUSH1 0x20 ADD ADD MLOAD DUP8 SUB MUL DUP2 PUSH2 0x2D6C JUMPI INVALID JUMPDEST DIV SWAP1 POP PUSH1 0x5 DUP2 GT PUSH2 0x2D7E JUMPI POP POP PUSH2 0x2D89 JUMP JUMPDEST POP JUMPDEST POP PUSH1 0x1 ADD PUSH2 0x2CB4 JUMP JUMPDEST POP PUSH2 0x2DA8 DUP6 DUP3 DUP2 MLOAD DUP2 LT PUSH2 0x2D99 JUMPI INVALID JUMPDEST PUSH1 0x20 MUL PUSH1 0x20 ADD ADD MLOAD DUP4 DUP6 PUSH2 0x3C8D JUMP JUMPDEST DUP5 DUP3 DUP2 MLOAD DUP2 LT PUSH2 0x2DB4 JUMPI INVALID JUMPDEST PUSH1 0x20 SWAP1 DUP2 MUL SWAP2 SWAP1 SWAP2 ADD ADD MSTORE PUSH1 0x1 ADD PUSH2 0x2CA8 JUMP JUMPDEST POP POP POP JUMPDEST SWAP3 SWAP2 POP POP JUMP JUMPDEST PUSH1 0x2 SLOAD PUSH20 0xFFFFFFFFFFFFFFFFFFFFFFFFFFFFFFFFFFFFFFFF AND SWAP1 JUMP JUMPDEST PUSH20 0xC02AAA39B223FE8D0A0E5C4F27EAD9083C756CC2 SWAP1 JUMP JUMPDEST PUSH1 0x0 DUP1 PUSH1 0x0 PUSH2 0x2E12 PUSH2 0x3D10 JUMP JUMPDEST SWAP2 POP SWAP2 POP PUSH1 0x60 DUP2 PUSH20 0xFFFFFFFFFFFFFFFFFFFFFFFFFFFFFFFFFFFFFFFF AND PUSH4 0x3D3DC52C PUSH2 0x2E3C PUSH2 0x2DED JUMP JUMPDEST PUSH20 0xFFFFFFFFFFFFFFFFFFFFFFFFFFFFFFFFFFFFFFFF AND DUP10 PUSH20 0xFFFFFFFFFFFFFFFFFFFFFFFFFFFFFFFFFFFFFFFF AND EQ PUSH2 0x2E74 JUMPI DUP9 PUSH2 0x2E76 JUMP JUMPDEST DUP8 JUMPDEST PUSH1 0x40 MLOAD DUP3 PUSH4 0xFFFFFFFF AND PUSH1 0xE0 SHL DUP2 MSTORE PUSH1 0x4 ADD PUSH2 0x2E92 SWAP2 SWAP1 PUSH2 0x4D50 JUMP JUMPDEST PUSH1 0x0 PUSH1 0x40 MLOAD DUP1 DUP4 SUB DUP2 DUP7 DUP1 EXTCODESIZE ISZERO DUP1 ISZERO PUSH2 0x2EAA JUMPI PUSH1 0x0 DUP1 REVERT JUMPDEST POP GAS STATICCALL ISZERO DUP1 ISZERO PUSH2 0x2EBE JUMPI RETURNDATASIZE PUSH1 0x0 DUP1 RETURNDATACOPY RETURNDATASIZE PUSH1 0x0 REVERT JUMPDEST POP POP POP POP PUSH1 0x40 MLOAD RETURNDATASIZE PUSH1 0x0 DUP3 RETURNDATACOPY PUSH1 0x1F RETURNDATASIZE SWAP1 DUP2 ADD PUSH32 0xFFFFFFFFFFFFFFFFFFFFFFFFFFFFFFFFFFFFFFFFFFFFFFFFFFFFFFFFFFFFFFE0 AND DUP3 ADD PUSH1 0x40 MSTORE PUSH2 0x2F04 SWAP2 SWAP1 DUP2 ADD SWAP1 PUSH2 0x4845 JUMP JUMPDEST PUSH1 0x40 DUP1 MLOAD PUSH1 0x0 DUP1 DUP3 MSTORE PUSH1 0x20 DUP3 ADD SWAP1 SWAP3 MSTORE SWAP2 SWAP3 POP JUMPDEST DUP3 MLOAD DUP2 LT ISZERO PUSH2 0x31BD JUMPI PUSH1 0x40 MLOAD PUSH32 0x106E9A4B00000000000000000000000000000000000000000000000000000000 DUP2 MSTORE PUSH20 0xFFFFFFFFFFFFFFFFFFFFFFFFFFFFFFFFFFFFFFFF DUP6 AND SWAP1 PUSH4 0x106E9A4B SWAP1 PUSH2 0x2F87 SWAP1 PUSH20 0x31E085AFD48A1D6E51CC193153D625E8F0514C7F SWAP1 PUSH1 0x4 ADD PUSH2 0x4D50 JUMP JUMPDEST PUSH1 0x20 PUSH1 0x40 MLOAD DUP1 DUP4 SUB DUP2 DUP7 DUP1 EXTCODESIZE ISZERO DUP1 ISZERO PUSH2 0x2F9F JUMPI PUSH1 0x0 DUP1 REVERT JUMPDEST POP GAS STATICCALL ISZERO DUP1 ISZERO PUSH2 0x2FB3 JUMPI RETURNDATASIZE PUSH1 0x0 DUP1 RETURNDATACOPY RETURNDATASIZE PUSH1 0x0 REVERT JUMPDEST POP POP POP POP PUSH1 0x40 MLOAD RETURNDATASIZE PUSH1 0x1F NOT PUSH1 0x1F DUP3 ADD AND DUP3 ADD DUP1 PUSH1 0x40 MSTORE POP PUSH2 0x2FD7 SWAP2 SWAP1 DUP2 ADD SWAP1 PUSH2 0x49F6 JUMP JUMPDEST DUP4 DUP3 DUP2 MLOAD DUP2 LT PUSH2 0x2FE3 JUMPI INVALID JUMPDEST PUSH1 0x20 MUL PUSH1 0x20 ADD ADD MLOAD EQ DUP1 PUSH2 0x30BE JUMPI POP PUSH1 0x40 MLOAD PUSH32 0x106E9A4B00000000000000000000000000000000000000000000000000000000 DUP2 MSTORE PUSH20 0xFFFFFFFFFFFFFFFFFFFFFFFFFFFFFFFFFFFFFFFF DUP6 AND SWAP1 PUSH4 0x106E9A4B SWAP1 PUSH2 0x3058 SWAP1 PUSH20 0x10908C875D865C66F271F5D3949848971C9595C9 SWAP1 PUSH1 0x4 ADD PUSH2 0x4D50 JUMP JUMPDEST PUSH1 0x20 PUSH1 0x40 MLOAD DUP1 DUP4 SUB DUP2 DUP7 DUP1 EXTCODESIZE ISZERO DUP1 ISZERO PUSH2 0x3070 JUMPI PUSH1 0x0 DUP1 REVERT JUMPDEST POP GAS STATICCALL ISZERO DUP1 ISZERO PUSH2 0x3084 JUMPI RETURNDATASIZE PUSH1 0x0 DUP1 RETURNDATACOPY RETURNDATASIZE PUSH1 0x0 REVERT JUMPDEST POP POP POP POP PUSH1 0x40 MLOAD RETURNDATASIZE PUSH1 0x1F NOT PUSH1 0x1F DUP3 ADD AND DUP3 ADD DUP1 PUSH1 0x40 MSTORE POP PUSH2 0x30A8 SWAP2 SWAP1 DUP2 ADD SWAP1 PUSH2 0x49F6 JUMP JUMPDEST DUP4 DUP3 DUP2 MLOAD DUP2 LT PUSH2 0x30B4 JUMPI INVALID JUMPDEST PUSH1 0x20 MUL PUSH1 0x20 ADD ADD MLOAD EQ JUMPDEST DUP1 PUSH2 0x3190 JUMPI POP PUSH1 0x40 MLOAD PUSH32 0x106E9A4B00000000000000000000000000000000000000000000000000000000 DUP2 MSTORE PUSH20 0xFFFFFFFFFFFFFFFFFFFFFFFFFFFFFFFFFFFFFFFF DUP6 AND SWAP1 PUSH4 0x106E9A4B SWAP1 PUSH2 0x312A SWAP1 PUSH20 0x1E158C0E93C30D24E918EF83D1E0BE23595C3C0F SWAP1 PUSH1 0x4 ADD PUSH2 0x4D50 JUMP JUMPDEST PUSH1 0x20 PUSH1 0x40 MLOAD DUP1 DUP4 SUB DUP2 DUP7 DUP1 EXTCODESIZE ISZERO DUP1 ISZERO PUSH2 0x3142 JUMPI PUSH1 0x0 DUP1 REVERT JUMPDEST POP GAS STATICCALL ISZERO DUP1 ISZERO PUSH2 0x3156 JUMPI RETURNDATASIZE PUSH1 0x0 DUP1 RETURNDATACOPY RETURNDATASIZE PUSH1 0x0 REVERT JUMPDEST POP POP POP POP PUSH1 0x40 MLOAD RETURNDATASIZE PUSH1 0x1F NOT PUSH1 0x1F DUP3 ADD AND DUP3 ADD DUP1 PUSH1 0x40 MSTORE POP PUSH2 0x317A SWAP2 SWAP1 DUP2 ADD SWAP1 PUSH2 0x49F6 JUMP JUMPDEST DUP4 DUP3 DUP2 MLOAD DUP2 LT PUSH2 0x3186 JUMPI INVALID JUMPDEST PUSH1 0x20 MUL PUSH1 0x20 ADD ADD MLOAD EQ JUMPDEST ISZERO PUSH2 0x31B5 JUMPI PUSH2 0x31B2 DUP3 DUP5 DUP4 DUP2 MLOAD DUP2 LT PUSH2 0x31A5 JUMPI INVALID JUMPDEST PUSH1 0x20 MUL PUSH1 0x20 ADD ADD MLOAD PUSH2 0x3E44 JUMP JUMPDEST SWAP2 POP JUMPDEST PUSH1 0x1 ADD PUSH2 0x2F18 JUMP JUMPDEST POP PUSH1 0x60 PUSH2 0x31C8 PUSH2 0x2DED JUMP JUMPDEST PUSH20 0xFFFFFFFFFFFFFFFFFFFFFFFFFFFFFFFFFFFFFFFF AND DUP10 PUSH20 0xFFFFFFFFFFFFFFFFFFFFFFFFFFFFFFFFFFFFFFFF AND EQ ISZERO PUSH2 0x32DF JUMPI DUP5 PUSH20 0xFFFFFFFFFFFFFFFFFFFFFFFFFFFFFFFFFFFFFFFF AND PUSH4 0x81EFCBDD DUP10 PUSH1 0x2 DUP6 PUSH1 0x0 PUSH1 0x40 MLOAD SWAP1 DUP1 DUP3 MSTORE DUP1 PUSH1 0x20 MUL PUSH1 0x20 ADD DUP3 ADD PUSH1 0x40 MSTORE DUP1 ISZERO PUSH2 0x3246 JUMPI DUP2 PUSH1 0x20 ADD PUSH1 0x20 DUP3 MUL DUP1 CODESIZE DUP4 CODECOPY ADD SWAP1 POP JUMPDEST POP PUSH1 0x40 MLOAD DUP6 PUSH4 0xFFFFFFFF AND PUSH1 0xE0 SHL DUP2 MSTORE PUSH1 0x4 ADD PUSH2 0x3266 SWAP5 SWAP4 SWAP3 SWAP2 SWAP1 PUSH2 0x4ED7 JUMP JUMPDEST PUSH1 0x0 PUSH1 0x40 MLOAD DUP1 DUP4 SUB DUP2 DUP7 DUP1 EXTCODESIZE ISZERO DUP1 ISZERO PUSH2 0x327E JUMPI PUSH1 0x0 DUP1 REVERT JUMPDEST POP GAS STATICCALL ISZERO DUP1 ISZERO PUSH2 0x3292 JUMPI RETURNDATASIZE PUSH1 0x0 DUP1 RETURNDATACOPY RETURNDATASIZE PUSH1 0x0 REVERT JUMPDEST POP POP POP POP PUSH1 0x40 MLOAD RETURNDATASIZE PUSH1 0x0 DUP3 RETURNDATACOPY PUSH1 0x1F RETURNDATASIZE SWAP1 DUP2 ADD PUSH32 0xFFFFFFFFFFFFFFFFFFFFFFFFFFFFFFFFFFFFFFFFFFFFFFFFFFFFFFFFFFFFFFE0 AND DUP3 ADD PUSH1 0x40 MSTORE PUSH2 0x32D8 SWAP2 SWAP1 DUP2 ADD SWAP1 PUSH2 0x4A0E JUMP JUMPDEST SWAP1 POP PUSH2 0x33BF JUMP JUMPDEST DUP5 PUSH20 0xFFFFFFFFFFFFFFFFFFFFFFFFFFFFFFFFFFFFFFFF AND PUSH4 0x81EFCBDD DUP11 PUSH1 0x2 DUP6 PUSH1 0x0 PUSH1 0x40 MLOAD SWAP1 DUP1 DUP3 MSTORE DUP1 PUSH1 0x20 MUL PUSH1 0x20 ADD DUP3 ADD PUSH1 0x40 MSTORE DUP1 ISZERO PUSH2 0x332A JUMPI DUP2 PUSH1 0x20 ADD PUSH1 0x20 DUP3 MUL DUP1 CODESIZE DUP4 CODECOPY ADD SWAP1 POP JUMPDEST POP PUSH1 0x40 MLOAD DUP6 PUSH4 0xFFFFFFFF AND PUSH1 0xE0 SHL DUP2 MSTORE PUSH1 0x4 ADD PUSH2 0x334A SWAP5 SWAP4 SWAP3 SWAP2 SWAP1 PUSH2 0x4ED7 JUMP JUMPDEST PUSH1 0x0 PUSH1 0x40 MLOAD DUP1 DUP4 SUB DUP2 DUP7 DUP1 EXTCODESIZE ISZERO DUP1 ISZERO PUSH2 0x3362 JUMPI PUSH1 0x0 DUP1 REVERT JUMPDEST POP GAS STATICCALL ISZERO DUP1 ISZERO PUSH2 0x3376 JUMPI RETURNDATASIZE PUSH1 0x0 DUP1 RETURNDATACOPY RETURNDATASIZE PUSH1 0x0 REVERT JUMPDEST POP POP POP POP PUSH1 0x40 MLOAD RETURNDATASIZE PUSH1 0x0 DUP3 RETURNDATACOPY PUSH1 0x1F RETURNDATASIZE SWAP1 DUP2 ADD PUSH32 0xFFFFFFFFFFFFFFFFFFFFFFFFFFFFFFFFFFFFFFFFFFFFFFFFFFFFFFFFFFFFFFE0 AND DUP3 ADD PUSH1 0x40 MSTORE PUSH2 0x33BC SWAP2 SWAP1 DUP2 ADD SWAP1 PUSH2 0x4A0E JUMP JUMPDEST SWAP1 POP JUMPDEST PUSH1 0x0 PUSH1 0x60 PUSH2 0x33CB PUSH2 0x3EDA JUMP JUMPDEST PUSH20 0xFFFFFFFFFFFFFFFFFFFFFFFFFFFFFFFFFFFFFFFF AND PUSH3 0x16E360 PUSH32 0x418436BC00000000000000000000000000000000000000000000000000000000 PUSH2 0x340E PUSH2 0x2DED JUMP JUMPDEST PUSH20 0xFFFFFFFFFFFFFFFFFFFFFFFFFFFFFFFFFFFFFFFF AND DUP15 PUSH20 0xFFFFFFFFFFFFFFFFFFFFFFFFFFFFFFFFFFFFFFFF AND EQ PUSH2 0x3446 JUMPI DUP14 PUSH2 0x345C JUMP JUMPDEST PUSH20 0xEEEEEEEEEEEEEEEEEEEEEEEEEEEEEEEEEEEEEEEE JUMPDEST PUSH2 0x3464 PUSH2 0x2DED JUMP JUMPDEST PUSH20 0xFFFFFFFFFFFFFFFFFFFFFFFFFFFFFFFFFFFFFFFF AND DUP15 PUSH20 0xFFFFFFFFFFFFFFFFFFFFFFFFFFFFFFFFFFFFFFFF AND EQ PUSH2 0x349C JUMPI DUP14 PUSH2 0x34B2 JUMP JUMPDEST PUSH20 0xEEEEEEEEEEEEEEEEEEEEEEEEEEEEEEEEEEEEEEEE JUMPDEST DUP14 PUSH1 0x0 DUP10 PUSH1 0x40 MLOAD PUSH1 0x24 ADD PUSH2 0x34CA SWAP6 SWAP5 SWAP4 SWAP3 SWAP2 SWAP1 PUSH2 0x4E84 JUMP JUMPDEST PUSH1 0x40 DUP1 MLOAD PUSH32 0xFFFFFFFFFFFFFFFFFFFFFFFFFFFFFFFFFFFFFFFFFFFFFFFFFFFFFFFFFFFFFFE0 DUP2 DUP5 SUB ADD DUP2 MSTORE SWAP2 DUP2 MSTORE PUSH1 0x20 DUP3 ADD DUP1 MLOAD PUSH28 0xFFFFFFFFFFFFFFFFFFFFFFFFFFFFFFFFFFFFFFFFFFFFFFFFFFFFFFFF AND PUSH32 0xFFFFFFFF00000000000000000000000000000000000000000000000000000000 SWAP1 SWAP5 AND SWAP4 SWAP1 SWAP4 OR SWAP1 SWAP3 MSTORE SWAP1 MLOAD PUSH2 0x3553 SWAP2 SWAP1 PUSH2 0x4D34 JUMP JUMPDEST PUSH1 0x0 PUSH1 0x40 MLOAD DUP1 DUP4 SUB DUP2 DUP7 DUP7 STATICCALL SWAP3 POP POP POP RETURNDATASIZE DUP1 PUSH1 0x0 DUP2 EQ PUSH2 0x358F JUMPI PUSH1 0x40 MLOAD SWAP2 POP PUSH1 0x1F NOT PUSH1 0x3F RETURNDATASIZE ADD AND DUP3 ADD PUSH1 0x40 MSTORE RETURNDATASIZE DUP3 MSTORE RETURNDATASIZE PUSH1 0x0 PUSH1 0x20 DUP5 ADD RETURNDATACOPY PUSH2 0x3594 JUMP JUMPDEST PUSH1 0x60 SWAP2 POP JUMPDEST POP SWAP1 SWAP3 POP SWAP1 POP PUSH1 0x0 DUP3 ISZERO PUSH2 0x35BD JUMPI DUP2 DUP1 PUSH1 0x20 ADD SWAP1 MLOAD PUSH2 0x35B6 SWAP2 SWAP1 DUP2 ADD SWAP1 PUSH2 0x49F6 JUMP JUMPDEST SWAP1 POP PUSH2 0x35CE JUMP JUMPDEST PUSH1 0x0 SWAP9 POP POP POP POP POP POP POP POP POP PUSH2 0x5CA JUMP JUMPDEST PUSH1 0x0 PUSH2 0x35D9 DUP13 PUSH2 0x3EF6 JUMP JUMPDEST PUSH1 0xFF AND SWAP1 POP PUSH1 0x0 PUSH2 0x35E9 DUP15 PUSH2 0x3EF6 JUMP JUMPDEST PUSH1 0xFF AND SWAP1 POP PUSH8 0xDE0B6B3A7640000 DUP2 PUSH1 0xA EXP DUP4 PUSH1 0xA EXP DUP15 DUP7 MUL MUL DUP2 PUSH2 0x360A JUMPI INVALID JUMPDEST DIV DUP2 PUSH2 0x3612 JUMPI INVALID JUMPDEST DIV SWAP15 SWAP14 POP POP POP POP POP POP POP POP POP POP POP POP POP POP JUMP JUMPDEST PUSH1 0x0 PUSH2 0x362F PUSH2 0x3F06 JUMP JUMPDEST PUSH20 0xFFFFFFFFFFFFFFFFFFFFFFFFFFFFFFFFFFFFFFFF AND PUSH4 0x6F2BF62 DUP4 PUSH1 0x40 MLOAD DUP3 PUSH4 0xFFFFFFFF AND PUSH1 0xE0 SHL DUP2 MSTORE PUSH1 0x4 ADD PUSH2 0x3667 SWAP2 SWAP1 PUSH2 0x4D50 JUMP JUMPDEST PUSH1 0x20 PUSH1 0x40 MLOAD DUP1 DUP4 SUB DUP2 DUP7 DUP1 EXTCODESIZE ISZERO DUP1 ISZERO PUSH2 0x367F JUMPI PUSH1 0x0 DUP1 REVERT JUMPDEST POP GAS STATICCALL ISZERO DUP1 ISZERO PUSH2 0x3693 JUMPI RETURNDATASIZE PUSH1 0x0 DUP1 RETURNDATACOPY RETURNDATASIZE PUSH1 0x0 REVERT JUMPDEST POP POP POP POP PUSH1 0x40 MLOAD RETURNDATASIZE PUSH1 0x1F NOT PUSH1 0x1F DUP3 ADD AND DUP3 ADD DUP1 PUSH1 0x40 MSTORE POP PUSH2 0x2DCB SWAP2 SWAP1 DUP2 ADD SWAP1 PUSH2 0x444B JUMP JUMPDEST PUSH1 0x0 DUP1 PUSH20 0xFFFFFFFFFFFFFFFFFFFFFFFFFFFFFFFFFFFFFFFF DUP6 AND PUSH2 0x36DA JUMPI PUSH2 0x37F8 JUMP JUMPDEST PUSH1 0x60 DUP6 PUSH20 0xFFFFFFFFFFFFFFFFFFFFFFFFFFFFFFFFFFFFFFFF AND PUSH3 0x249F0 DUP7 DUP7 PUSH1 0x40 MLOAD PUSH1 0x24 ADD PUSH2 0x3709 SWAP2 SWAP1 PUSH2 0x529C JUMP JUMPDEST PUSH1 0x40 DUP1 MLOAD PUSH32 0xFFFFFFFFFFFFFFFFFFFFFFFFFFFFFFFFFFFFFFFFFFFFFFFFFFFFFFFFFFFFFFE0 DUP2 DUP5 SUB ADD DUP2 MSTORE SWAP2 DUP2 MSTORE PUSH1 0x20 DUP3 ADD DUP1 MLOAD PUSH28 0xFFFFFFFFFFFFFFFFFFFFFFFFFFFFFFFFFFFFFFFFFFFFFFFFFFFFFFFF AND PUSH32 0xFFFFFFFF00000000000000000000000000000000000000000000000000000000 SWAP1 SWAP5 AND SWAP4 SWAP1 SWAP4 OR SWAP1 SWAP3 MSTORE SWAP1 MLOAD PUSH2 0x3792 SWAP2 SWAP1 PUSH2 0x4D34 JUMP JUMPDEST PUSH1 0x0 PUSH1 0x40 MLOAD DUP1 DUP4 SUB DUP2 DUP7 DUP7 STATICCALL SWAP3 POP POP POP RETURNDATASIZE DUP1 PUSH1 0x0 DUP2 EQ PUSH2 0x37CE JUMPI PUSH1 0x40 MLOAD SWAP2 POP PUSH1 0x1F NOT PUSH1 0x3F RETURNDATASIZE ADD AND DUP3 ADD PUSH1 0x40 MSTORE RETURNDATASIZE DUP3 MSTORE RETURNDATASIZE PUSH1 0x0 PUSH1 0x20 DUP5 ADD RETURNDATACOPY PUSH2 0x37D3 JUMP JUMPDEST PUSH1 0x60 SWAP2 POP JUMPDEST POP SWAP1 SWAP3 POP SWAP1 POP DUP2 ISZERO PUSH2 0x37F6 JUMPI DUP1 DUP1 PUSH1 0x20 ADD SWAP1 MLOAD PUSH2 0x37F3 SWAP2 SWAP1 DUP2 ADD SWAP1 PUSH2 0x49F6 JUMP JUMPDEST SWAP3 POP JUMPDEST POP JUMPDEST SWAP4 POP SWAP4 SWAP2 POP POP JUMP JUMPDEST PUSH1 0x0 DUP1 DUP5 DUP1 PUSH1 0x20 ADD SWAP1 MLOAD PUSH2 0x3817 SWAP2 SWAP1 DUP2 ADD SWAP1 PUSH2 0x444B JUMP JUMPDEST SWAP1 POP PUSH1 0x0 DUP5 DUP1 PUSH1 0x20 ADD SWAP1 MLOAD PUSH2 0x382F SWAP2 SWAP1 DUP2 ADD SWAP1 PUSH2 0x444B JUMP JUMPDEST SWAP1 POP PUSH1 0x0 PUSH1 0x60 ADDRESS PUSH32 0xCDB3B4AF00000000000000000000000000000000000000000000000000000000 DUP6 DUP6 PUSH2 0x3862 DUP11 PUSH2 0x3CCF JUMP JUMPDEST PUSH1 0x40 MLOAD PUSH1 0x24 ADD PUSH2 0x3874 SWAP4 SWAP3 SWAP2 SWAP1 PUSH2 0x4D71 JUMP JUMPDEST PUSH1 0x40 DUP1 MLOAD PUSH32 0xFFFFFFFFFFFFFFFFFFFFFFFFFFFFFFFFFFFFFFFFFFFFFFFFFFFFFFFFFFFFFFE0 DUP2 DUP5 SUB ADD DUP2 MSTORE SWAP2 DUP2 MSTORE PUSH1 0x20 DUP3 ADD DUP1 MLOAD PUSH28 0xFFFFFFFFFFFFFFFFFFFFFFFFFFFFFFFFFFFFFFFFFFFFFFFFFFFFFFFF AND PUSH32 0xFFFFFFFF00000000000000000000000000000000000000000000000000000000 SWAP1 SWAP5 AND SWAP4 SWAP1 SWAP4 OR SWAP1 SWAP3 MSTORE SWAP1 MLOAD PUSH2 0x38FD SWAP2 SWAP1 PUSH2 0x4D34 JUMP JUMPDEST PUSH1 0x0 PUSH1 0x40 MLOAD DUP1 DUP4 SUB DUP2 DUP6 GAS STATICCALL SWAP2 POP POP RETURNDATASIZE DUP1 PUSH1 0x0 DUP2 EQ PUSH2 0x3938 JUMPI PUSH1 0x40 MLOAD SWAP2 POP PUSH1 0x1F NOT PUSH1 0x3F RETURNDATASIZE ADD AND DUP3 ADD PUSH1 0x40 MSTORE RETURNDATASIZE DUP3 MSTORE RETURNDATASIZE PUSH1 0x0 PUSH1 0x20 DUP5 ADD RETURNDATACOPY PUSH2 0x393D JUMP JUMPDEST PUSH1 0x60 SWAP2 POP JUMPDEST POP SWAP2 POP SWAP2 POP DUP2 PUSH2 0x3954 JUMPI PUSH1 0x0 SWAP5 POP POP POP POP POP PUSH2 0x5CA JUMP JUMPDEST DUP1 DUP1 PUSH1 0x20 ADD SWAP1 MLOAD PUSH2 0x3968 SWAP2 SWAP1 DUP2 ADD SWAP1 PUSH2 0x4845 JUMP JUMPDEST PUSH1 0x0 DUP2 MLOAD DUP2 LT PUSH2 0x3974 JUMPI INVALID JUMPDEST PUSH1 0x20 MUL PUSH1 0x20 ADD ADD MLOAD SWAP5 POP POP POP POP POP SWAP4 SWAP3 POP POP POP JUMP JUMPDEST PUSH1 0x0 DUP1 PUSH2 0x3994 PUSH2 0x4116 JUMP JUMPDEST DUP6 DUP1 PUSH1 0x20 ADD SWAP1 MLOAD PUSH2 0x39A8 SWAP2 SWAP1 DUP2 ADD SWAP1 PUSH2 0x4A5D JUMP JUMPDEST SWAP2 POP SWAP2 POP PUSH1 0x0 DUP6 DUP1 PUSH1 0x20 ADD SWAP1 MLOAD PUSH2 0x39C2 SWAP2 SWAP1 DUP2 ADD SWAP1 PUSH2 0x4A41 JUMP JUMPDEST SWAP1 POP PUSH1 0x0 PUSH1 0x60 ADDRESS PUSH32 0x40BC03AE00000000000000000000000000000000000000000000000000000000 DUP6 DUP8 DUP7 PUSH2 0x39F6 DUP13 PUSH2 0x3CCF JUMP JUMPDEST PUSH1 0x40 MLOAD PUSH1 0x24 ADD PUSH2 0x3A09 SWAP5 SWAP4 SWAP3 SWAP2 SWAP1 PUSH2 0x5109 JUMP JUMPDEST PUSH1 0x40 DUP1 MLOAD PUSH32 0xFFFFFFFFFFFFFFFFFFFFFFFFFFFFFFFFFFFFFFFFFFFFFFFFFFFFFFFFFFFFFFE0 DUP2 DUP5 SUB ADD DUP2 MSTORE SWAP2 DUP2 MSTORE PUSH1 0x20 DUP3 ADD DUP1 MLOAD PUSH28 0xFFFFFFFFFFFFFFFFFFFFFFFFFFFFFFFFFFFFFFFFFFFFFFFFFFFFFFFF AND PUSH32 0xFFFFFFFF00000000000000000000000000000000000000000000000000000000 SWAP1 SWAP5 AND SWAP4 SWAP1 SWAP4 OR SWAP1 SWAP3 MSTORE SWAP1 MLOAD PUSH2 0x3A92 SWAP2 SWAP1 PUSH2 0x4D34 JUMP JUMPDEST PUSH1 0x0 PUSH1 0x40 MLOAD DUP1 DUP4 SUB DUP2 DUP6 GAS STATICCALL SWAP2 POP POP RETURNDATASIZE DUP1 PUSH1 0x0 DUP2 EQ PUSH2 0x3ACD JUMPI PUSH1 0x40 MLOAD SWAP2 POP PUSH1 0x1F NOT PUSH1 0x3F RETURNDATASIZE ADD AND DUP3 ADD PUSH1 0x40 MSTORE RETURNDATASIZE DUP3 MSTORE RETURNDATASIZE PUSH1 0x0 PUSH1 0x20 DUP5 ADD RETURNDATACOPY PUSH2 0x3AD2 JUMP JUMPDEST PUSH1 0x60 SWAP2 POP JUMPDEST POP SWAP2 POP SWAP2 POP DUP2 PUSH2 0x3AEA JUMPI PUSH1 0x0 SWAP6 POP POP POP POP POP POP PUSH2 0x5CA JUMP JUMPDEST DUP1 DUP1 PUSH1 0x20 ADD SWAP1 MLOAD PUSH2 0x3AFE SWAP2 SWAP1 DUP2 ADD SWAP1 PUSH2 0x4845 JUMP JUMPDEST PUSH1 0x0 DUP2 MLOAD DUP2 LT PUSH2 0x3B0A JUMPI INVALID JUMPDEST PUSH1 0x20 MUL PUSH1 0x20 ADD ADD MLOAD SWAP6 POP POP POP POP POP POP SWAP4 SWAP3 POP POP POP JUMP JUMPDEST PUSH1 0x0 DUP1 PUSH1 0x0 DUP6 DUP1 PUSH1 0x20 ADD SWAP1 MLOAD PUSH2 0x3B39 SWAP2 SWAP1 DUP2 ADD SWAP1 PUSH2 0x4467 JUMP JUMPDEST SWAP2 POP SWAP2 POP PUSH1 0x0 DUP6 DUP1 PUSH1 0x20 ADD SWAP1 MLOAD PUSH2 0x3B53 SWAP2 SWAP1 DUP2 ADD SWAP1 PUSH2 0x444B JUMP JUMPDEST SWAP1 POP PUSH1 0x0 PUSH1 0x60 ADDRESS PUSH32 0x9F76AD3500000000000000000000000000000000000000000000000000000000 DUP6 DUP8 DUP7 PUSH2 0x3B87 DUP13 PUSH2 0x3CCF JUMP JUMPDEST PUSH1 0x40 MLOAD PUSH1 0x24 ADD PUSH2 0x3A09 SWAP5 SWAP4 SWAP3 SWAP2 SWAP1 PUSH2 0x4DD1 JUMP JUMPDEST PUSH1 0x1 SLOAD PUSH20 0xFFFFFFFFFFFFFFFFFFFFFFFFFFFFFFFFFFFFFFFF AND SWAP1 JUMP JUMPDEST PUSH20 0xE2F2A5C287993345A840DB3B0845FBC70F5935A5 SWAP1 JUMP JUMPDEST PUSH1 0x0 DUP2 PUSH1 0x14 ADD DUP4 MLOAD LT ISZERO PUSH2 0x3BF4 JUMPI PUSH2 0x3BF4 PUSH2 0x3BEF PUSH1 0x4 DUP6 MLOAD DUP6 PUSH1 0x14 ADD PUSH2 0x3F22 JUMP JUMPDEST PUSH2 0x3FC7 JUMP JUMPDEST POP ADD PUSH1 0x14 ADD MLOAD PUSH20 0xFFFFFFFFFFFFFFFFFFFFFFFFFFFFFFFFFFFFFFFF AND SWAP1 JUMP JUMPDEST PUSH1 0x0 DUP1 DUP5 DUP1 PUSH1 0x20 ADD SWAP1 MLOAD PUSH2 0x3C2A SWAP2 SWAP1 DUP2 ADD SWAP1 PUSH2 0x444B JUMP JUMPDEST SWAP1 POP PUSH1 0x0 DUP5 DUP1 PUSH1 0x20 ADD SWAP1 MLOAD PUSH2 0x3C42 SWAP2 SWAP1 DUP2 ADD SWAP1 PUSH2 0x444B JUMP JUMPDEST SWAP1 POP PUSH1 0x0 PUSH1 0x60 ADDRESS PUSH32 0xBC61A69500000000000000000000000000000000000000000000000000000000 DUP6 DUP6 PUSH2 0x3862 DUP11 PUSH2 0x3CCF JUMP JUMPDEST PUSH20 0x71CD6666064C3A1354A3B4DCA5FA1E2D3EE7D303 SWAP1 JUMP JUMPDEST PUSH1 0x0 PUSH2 0x5C7 DUP4 PUSH2 0x3CC3 PUSH2 0x3CA7 DUP3 PUSH1 0x1 PUSH4 0xFFFFFFFF PUSH2 0x3FCF AND JUMP JUMPDEST PUSH2 0x3CB7 DUP9 DUP8 PUSH4 0xFFFFFFFF PUSH2 0x3FEE AND JUMP JUMPDEST SWAP1 PUSH4 0xFFFFFFFF PUSH2 0x401F AND JUMP JUMPDEST SWAP1 PUSH4 0xFFFFFFFF PUSH2 0x403B AND JUMP JUMPDEST PUSH1 0x40 DUP1 MLOAD PUSH1 0x1 DUP1 DUP3 MSTORE DUP2 DUP4 ADD SWAP1 SWAP3 MSTORE PUSH1 0x60 SWAP2 PUSH1 0x20 DUP1 DUP4 ADD SWAP1 DUP1 CODESIZE DUP4 CODECOPY ADD SWAP1 POP POP SWAP1 POP DUP2 DUP2 PUSH1 0x0 DUP2 MLOAD DUP2 LT PUSH2 0x3CFF JUMPI INVALID JUMPDEST PUSH1 0x20 MUL PUSH1 0x20 ADD ADD DUP2 DUP2 MSTORE POP POP SWAP2 SWAP1 POP JUMP JUMPDEST PUSH1 0x0 DUP1 PUSH2 0x3D1B PUSH2 0x3EDA JUMP JUMPDEST PUSH20 0xFFFFFFFFFFFFFFFFFFFFFFFFFFFFFFFFFFFFFFFF AND PUSH4 0xB78B842D PUSH1 0x40 MLOAD DUP2 PUSH4 0xFFFFFFFF AND PUSH1 0xE0 SHL DUP2 MSTORE PUSH1 0x4 ADD PUSH1 0x20 PUSH1 0x40 MLOAD DUP1 DUP4 SUB DUP2 DUP7 DUP1 EXTCODESIZE ISZERO DUP1 ISZERO PUSH2 0x3D60 JUMPI PUSH1 0x0 DUP1 REVERT JUMPDEST POP GAS STATICCALL ISZERO DUP1 ISZERO PUSH2 0x3D74 JUMPI RETURNDATASIZE PUSH1 0x0 DUP1 RETURNDATACOPY RETURNDATASIZE PUSH1 0x0 REVERT JUMPDEST POP POP POP POP PUSH1 0x40 MLOAD RETURNDATASIZE PUSH1 0x1F NOT PUSH1 0x1F DUP3 ADD AND DUP3 ADD DUP1 PUSH1 0x40 MSTORE POP PUSH2 0x3D98 SWAP2 SWAP1 DUP2 ADD SWAP1 PUSH2 0x444B JUMP JUMPDEST PUSH20 0xFFFFFFFFFFFFFFFFFFFFFFFFFFFFFFFFFFFFFFFF AND PUSH4 0xC3A2A93A PUSH1 0x40 MLOAD DUP2 PUSH4 0xFFFFFFFF AND PUSH1 0xE0 SHL DUP2 MSTORE PUSH1 0x4 ADD PUSH1 0x0 PUSH1 0x40 MLOAD DUP1 DUP4 SUB DUP2 DUP7 DUP1 EXTCODESIZE ISZERO DUP1 ISZERO PUSH2 0x3DDD JUMPI PUSH1 0x0 DUP1 REVERT JUMPDEST POP GAS STATICCALL ISZERO DUP1 ISZERO PUSH2 0x3DF1 JUMPI RETURNDATASIZE PUSH1 0x0 DUP1 RETURNDATACOPY RETURNDATASIZE PUSH1 0x0 REVERT JUMPDEST POP POP POP POP PUSH1 0x40 MLOAD RETURNDATASIZE PUSH1 0x0 DUP3 RETURNDATACOPY PUSH1 0x1F RETURNDATASIZE SWAP1 DUP2 ADD PUSH32 0xFFFFFFFFFFFFFFFFFFFFFFFFFFFFFFFFFFFFFFFFFFFFFFFFFFFFFFFFFFFFFFE0 AND DUP3 ADD PUSH1 0x40 MSTORE PUSH2 0x3E37 SWAP2 SWAP1 DUP2 ADD SWAP1 PUSH2 0x4643 JUMP JUMPDEST POP SWAP2 SWAP6 POP SWAP4 POP POP POP POP SWAP1 SWAP2 JUMP JUMPDEST PUSH1 0x60 DUP3 MLOAD PUSH1 0x1 ADD PUSH1 0x40 MLOAD SWAP1 DUP1 DUP3 MSTORE DUP1 PUSH1 0x20 MUL PUSH1 0x20 ADD DUP3 ADD PUSH1 0x40 MSTORE DUP1 ISZERO PUSH2 0x3E74 JUMPI DUP2 PUSH1 0x20 ADD PUSH1 0x20 DUP3 MUL DUP1 CODESIZE DUP4 CODECOPY ADD SWAP1 POP JUMPDEST POP SWAP1 POP PUSH1 0x0 JUMPDEST DUP4 MLOAD DUP2 LT ISZERO PUSH2 0x3EB6 JUMPI DUP4 DUP2 DUP2 MLOAD DUP2 LT PUSH2 0x3E8F JUMPI INVALID JUMPDEST PUSH1 0x20 MUL PUSH1 0x20 ADD ADD MLOAD DUP3 DUP3 DUP2 MLOAD DUP2 LT PUSH2 0x3EA3 JUMPI INVALID JUMPDEST PUSH1 0x20 SWAP1 DUP2 MUL SWAP2 SWAP1 SWAP2 ADD ADD MSTORE PUSH1 0x1 ADD PUSH2 0x3E7A JUMP JUMPDEST POP DUP2 DUP2 PUSH1 0x1 DUP4 MLOAD SUB DUP2 MLOAD DUP2 LT PUSH2 0x3EC8 JUMPI INVALID JUMPDEST PUSH1 0x20 MUL PUSH1 0x20 ADD ADD DUP2 DUP2 MSTORE POP POP SWAP3 SWAP2 POP POP JUMP JUMPDEST PUSH1 0x3 SLOAD PUSH20 0xFFFFFFFFFFFFFFFFFFFFFFFFFFFFFFFFFFFFFFFF AND SWAP1 JUMP JUMPDEST PUSH1 0x0 PUSH2 0x2DCB DUP3 PUSH2 0x4065 JUMP JUMPDEST SWAP2 SWAP1 POP JUMP JUMPDEST PUSH1 0x0 SLOAD PUSH20 0xFFFFFFFFFFFFFFFFFFFFFFFFFFFFFFFFFFFFFFFF AND SWAP1 JUMP JUMPDEST PUSH1 0x60 PUSH4 0x28006595 PUSH1 0xE0 SHL DUP5 DUP5 DUP5 PUSH1 0x40 MLOAD PUSH1 0x24 ADD PUSH2 0x3F41 SWAP4 SWAP3 SWAP2 SWAP1 PUSH2 0x5068 JUMP JUMPDEST PUSH1 0x40 DUP1 MLOAD PUSH32 0xFFFFFFFFFFFFFFFFFFFFFFFFFFFFFFFFFFFFFFFFFFFFFFFFFFFFFFFFFFFFFFE0 DUP2 DUP5 SUB ADD DUP2 MSTORE SWAP2 SWAP1 MSTORE PUSH1 0x20 DUP2 ADD DUP1 MLOAD PUSH28 0xFFFFFFFFFFFFFFFFFFFFFFFFFFFFFFFFFFFFFFFFFFFFFFFFFFFFFFFF AND PUSH32 0xFFFFFFFF00000000000000000000000000000000000000000000000000000000 SWAP1 SWAP4 AND SWAP3 SWAP1 SWAP3 OR SWAP1 SWAP2 MSTORE SWAP1 POP SWAP4 SWAP3 POP POP POP JUMP JUMPDEST DUP1 MLOAD PUSH1 0x20 DUP3 ADD REVERT JUMPDEST PUSH1 0x0 DUP3 DUP3 GT ISZERO PUSH2 0x3FE8 JUMPI PUSH2 0x3FE8 PUSH2 0x3BEF PUSH1 0x2 DUP6 DUP6 PUSH2 0x40F7 JUMP JUMPDEST POP SWAP1 SUB SWAP1 JUMP JUMPDEST PUSH1 0x0 DUP3 PUSH2 0x3FFD JUMPI POP PUSH1 0x0 PUSH2 0x2DCB JUMP JUMPDEST DUP3 DUP3 MUL DUP3 DUP5 DUP3 DUP2 PUSH2 0x400A JUMPI INVALID JUMPDEST DIV EQ PUSH2 0x5CA JUMPI PUSH2 0x5CA PUSH2 0x3BEF PUSH1 0x1 DUP7 DUP7 PUSH2 0x40F7 JUMP JUMPDEST PUSH1 0x0 DUP3 DUP3 ADD DUP4 DUP2 LT ISZERO PUSH2 0x5CA JUMPI PUSH2 0x5CA PUSH2 0x3BEF PUSH1 0x0 DUP7 DUP7 PUSH2 0x40F7 JUMP JUMPDEST PUSH1 0x0 DUP2 PUSH2 0x4051 JUMPI PUSH2 0x4051 PUSH2 0x3BEF PUSH1 0x3 DUP6 DUP6 PUSH2 0x40F7 JUMP JUMPDEST PUSH1 0x0 DUP3 DUP5 DUP2 PUSH2 0x405C JUMPI INVALID JUMPDEST DIV SWAP5 SWAP4 POP POP POP POP JUMP JUMPDEST PUSH1 0x0 PUSH20 0xFFFFFFFFFFFFFFFFFFFFFFFFFFFFFFFFFFFFFFFF DUP3 AND PUSH20 0xC02AAA39B223FE8D0A0E5C4F27EAD9083C756CC2 EQ ISZERO PUSH2 0x40A1 JUMPI POP PUSH1 0x12 PUSH2 0x3F01 JUMP JUMPDEST PUSH1 0x0 DUP3 PUSH1 0x40 MLOAD PUSH1 0x20 ADD PUSH2 0x40B4 SWAP2 SWAP1 PUSH2 0x4CF4 JUMP JUMPDEST PUSH1 0x40 DUP1 MLOAD DUP1 DUP4 SUB PUSH32 0xFFFFFFFFFFFFFFFFFFFFFFFFFFFFFFFFFFFFFFFFFFFFFFFFFFFFFFFFFFFFFFE0 ADD DUP2 MSTORE SWAP2 SWAP1 MSTORE DUP1 MLOAD PUSH1 0x20 SWAP1 SWAP2 ADD KECCAK256 PUSH1 0xF AND PUSH1 0x4 ADD SWAP4 SWAP3 POP POP POP JUMP JUMPDEST PUSH1 0x60 PUSH4 0xE946C1BB PUSH1 0xE0 SHL DUP5 DUP5 DUP5 PUSH1 0x40 MLOAD PUSH1 0x24 ADD PUSH2 0x3F41 SWAP4 SWAP3 SWAP2 SWAP1 PUSH2 0x5047 JUMP JUMPDEST PUSH1 0x40 DUP1 MLOAD PUSH1 0x60 DUP2 ADD DUP3 MSTORE PUSH1 0x0 DUP1 DUP3 MSTORE PUSH1 0x20 DUP3 ADD DUP2 SWAP1 MSTORE SWAP2 DUP2 ADD SWAP2 SWAP1 SWAP2 MSTORE SWAP1 JUMP JUMPDEST DUP1 CALLDATALOAD PUSH2 0x2DCB DUP2 PUSH2 0x53CC JUMP JUMPDEST DUP1 MLOAD PUSH2 0x2DCB DUP2 PUSH2 0x53CC JUMP JUMPDEST PUSH1 0x0 DUP1 DUP4 PUSH1 0x1F DUP5 ADD SLT PUSH2 0x415D JUMPI DUP2 DUP3 REVERT JUMPDEST POP DUP2 CALLDATALOAD PUSH8 0xFFFFFFFFFFFFFFFF DUP2 GT ISZERO PUSH2 0x4174 JUMPI DUP2 DUP3 REVERT JUMPDEST PUSH1 0x20 DUP4 ADD SWAP2 POP DUP4 PUSH1 0x20 DUP1 DUP4 MUL DUP6 ADD ADD GT ISZERO PUSH2 0x418E JUMPI PUSH1 0x0 DUP1 REVERT JUMPDEST SWAP3 POP SWAP3 SWAP1 POP JUMP JUMPDEST PUSH1 0x0 DUP3 PUSH1 0x1F DUP4 ADD SLT PUSH2 0x41A5 JUMPI DUP1 DUP2 REVERT JUMPDEST DUP2 CALLDATALOAD PUSH2 0x41B8 PUSH2 0x41B3 DUP3 PUSH2 0x5330 JUMP JUMPDEST PUSH2 0x5309 JUMP JUMPDEST DUP2 DUP2 MSTORE SWAP2 POP PUSH1 0x20 DUP1 DUP4 ADD SWAP1 DUP5 ADD PUSH1 0x0 JUMPDEST DUP4 DUP2 LT ISZERO PUSH2 0x41F5 JUMPI PUSH2 0x41E0 DUP8 PUSH1 0x20 DUP5 CALLDATALOAD DUP10 ADD ADD PUSH2 0x4268 JUMP JUMPDEST DUP4 MSTORE PUSH1 0x20 SWAP3 DUP4 ADD SWAP3 SWAP2 SWAP1 SWAP2 ADD SWAP1 PUSH1 0x1 ADD PUSH2 0x41C8 JUMP JUMPDEST POP POP POP POP SWAP3 SWAP2 POP POP JUMP JUMPDEST PUSH1 0x0 DUP3 PUSH1 0x1F DUP4 ADD SLT PUSH2 0x420F JUMPI DUP1 DUP2 REVERT JUMPDEST DUP2 CALLDATALOAD PUSH2 0x421D PUSH2 0x41B3 DUP3 PUSH2 0x5330 JUMP JUMPDEST DUP2 DUP2 MSTORE SWAP2 POP PUSH1 0x20 DUP1 DUP4 ADD SWAP1 DUP5 DUP2 ADD DUP2 DUP5 MUL DUP7 ADD DUP3 ADD DUP8 LT ISZERO PUSH2 0x423E JUMPI PUSH1 0x0 DUP1 REVERT JUMPDEST PUSH1 0x0 JUMPDEST DUP5 DUP2 LT ISZERO PUSH2 0x425D JUMPI DUP2 CALLDATALOAD DUP5 MSTORE SWAP3 DUP3 ADD SWAP3 SWAP1 DUP3 ADD SWAP1 PUSH1 0x1 ADD PUSH2 0x4241 JUMP JUMPDEST POP POP POP POP POP SWAP3 SWAP2 POP POP JUMP JUMPDEST PUSH1 0x0 DUP3 PUSH1 0x1F DUP4 ADD SLT PUSH2 0x4278 JUMPI DUP1 DUP2 REVERT JUMPDEST DUP2 CALLDATALOAD PUSH2 0x4286 PUSH2 0x41B3 DUP3 PUSH2 0x5350 JUMP JUMPDEST SWAP2 POP DUP1 DUP3 MSTORE DUP4 PUSH1 0x20 DUP3 DUP6 ADD ADD GT ISZERO PUSH2 0x429D JUMPI PUSH1 0x0 DUP1 REVERT JUMPDEST DUP1 PUSH1 0x20 DUP5 ADD PUSH1 0x20 DUP5 ADD CALLDATACOPY PUSH1 0x0 SWAP1 DUP3 ADD PUSH1 0x20 ADD MSTORE SWAP3 SWAP2 POP POP JUMP JUMPDEST PUSH1 0x0 DUP3 PUSH1 0x1F DUP4 ADD SLT PUSH2 0x42C6 JUMPI DUP1 DUP2 REVERT JUMPDEST DUP2 MLOAD PUSH2 0x42D4 PUSH2 0x41B3 DUP3 PUSH2 0x5350 JUMP JUMPDEST SWAP2 POP DUP1 DUP3 MSTORE DUP4 PUSH1 0x20 DUP3 DUP6 ADD ADD GT ISZERO PUSH2 0x42EB JUMPI PUSH1 0x0 DUP1 REVERT JUMPDEST PUSH2 0x1646 DUP2 PUSH1 0x20 DUP5 ADD PUSH1 0x20 DUP7 ADD PUSH2 0x5392 JUMP JUMPDEST PUSH1 0x0 PUSH2 0x1C0 DUP1 DUP4 DUP6 SUB SLT ISZERO PUSH2 0x430F JUMPI DUP2 DUP3 REVERT JUMPDEST PUSH2 0x4318 DUP2 PUSH2 0x5309 JUMP JUMPDEST SWAP2 POP POP PUSH2 0x4325 DUP4 DUP4 PUSH2 0x4136 JUMP JUMPDEST DUP2 MSTORE PUSH2 0x4334 DUP4 PUSH1 0x20 DUP5 ADD PUSH2 0x4136 JUMP JUMPDEST PUSH1 0x20 DUP3 ADD MSTORE PUSH2 0x4346 DUP4 PUSH1 0x40 DUP5 ADD PUSH2 0x4136 JUMP JUMPDEST PUSH1 0x40 DUP3 ADD MSTORE PUSH2 0x4358 DUP4 PUSH1 0x60 DUP5 ADD PUSH2 0x4136 JUMP JUMPDEST PUSH1 0x60 DUP3 ADD MSTORE PUSH1 0x80 DUP3 ADD CALLDATALOAD PUSH1 0x80 DUP3 ADD MSTORE PUSH1 0xA0 DUP3 ADD CALLDATALOAD PUSH1 0xA0 DUP3 ADD MSTORE PUSH1 0xC0 DUP3 ADD CALLDATALOAD PUSH1 0xC0 DUP3 ADD MSTORE PUSH1 0xE0 DUP3 ADD CALLDATALOAD PUSH1 0xE0 DUP3 ADD MSTORE PUSH2 0x100 DUP1 DUP4 ADD CALLDATALOAD DUP2 DUP4 ADD MSTORE POP PUSH2 0x120 DUP1 DUP4 ADD CALLDATALOAD DUP2 DUP4 ADD MSTORE POP PUSH2 0x140 DUP1 DUP4 ADD CALLDATALOAD PUSH8 0xFFFFFFFFFFFFFFFF DUP1 DUP3 GT ISZERO PUSH2 0x43BA JUMPI PUSH1 0x0 DUP1 REVERT JUMPDEST PUSH2 0x43C6 DUP7 DUP4 DUP8 ADD PUSH2 0x4268 JUMP JUMPDEST DUP4 DUP6 ADD MSTORE PUSH2 0x160 SWAP3 POP DUP3 DUP6 ADD CALLDATALOAD SWAP2 POP DUP1 DUP3 GT ISZERO PUSH2 0x43E2 JUMPI PUSH1 0x0 DUP1 REVERT JUMPDEST PUSH2 0x43EE DUP7 DUP4 DUP8 ADD PUSH2 0x4268 JUMP JUMPDEST DUP4 DUP6 ADD MSTORE PUSH2 0x180 SWAP3 POP DUP3 DUP6 ADD CALLDATALOAD SWAP2 POP DUP1 DUP3 GT ISZERO PUSH2 0x440A JUMPI PUSH1 0x0 DUP1 REVERT JUMPDEST PUSH2 0x4416 DUP7 DUP4 DUP8 ADD PUSH2 0x4268 JUMP JUMPDEST DUP4 DUP6 ADD MSTORE PUSH2 0x1A0 SWAP3 POP DUP3 DUP6 ADD CALLDATALOAD SWAP2 POP DUP1 DUP3 GT ISZERO PUSH2 0x4432 JUMPI PUSH1 0x0 DUP1 REVERT JUMPDEST POP PUSH2 0x443F DUP6 DUP3 DUP7 ADD PUSH2 0x4268 JUMP JUMPDEST DUP3 DUP5 ADD MSTORE POP POP SWAP3 SWAP2 POP POP JUMP JUMPDEST PUSH1 0x0 PUSH1 0x20 DUP3 DUP5 SUB SLT ISZERO PUSH2 0x445C JUMPI DUP1 DUP2 REVERT JUMPDEST DUP2 MLOAD PUSH2 0x5CA DUP2 PUSH2 0x53CC JUMP JUMPDEST PUSH1 0x0 DUP1 PUSH1 0x40 DUP4 DUP6 SUB SLT ISZERO PUSH2 0x4479 JUMPI DUP1 DUP2 REVERT JUMPDEST DUP3 MLOAD PUSH2 0x4484 DUP2 PUSH2 0x53CC JUMP JUMPDEST PUSH1 0x20 DUP5 ADD MLOAD SWAP1 SWAP3 POP PUSH2 0x4495 DUP2 PUSH2 0x53CC JUMP JUMPDEST DUP1 SWAP2 POP POP SWAP3 POP SWAP3 SWAP1 POP JUMP JUMPDEST PUSH1 0x0 DUP1 PUSH1 0x0 PUSH1 0x60 DUP5 DUP7 SUB SLT ISZERO PUSH2 0x44B4 JUMPI DUP1 DUP2 REVERT JUMPDEST DUP4 CALLDATALOAD PUSH2 0x44BF DUP2 PUSH2 0x53CC JUMP JUMPDEST SWAP3 POP PUSH1 0x20 DUP5 ADD CALLDATALOAD PUSH2 0x44CF DUP2 PUSH2 0x53CC JUMP JUMPDEST SWAP2 POP PUSH1 0x40 DUP5 ADD CALLDATALOAD PUSH2 0x44DF DUP2 PUSH2 0x53CC JUMP JUMPDEST DUP1 SWAP2 POP POP SWAP3 POP SWAP3 POP SWAP3 JUMP JUMPDEST PUSH1 0x0 DUP1 PUSH1 0x0 DUP1 PUSH1 0x0 PUSH1 0xA0 DUP7 DUP9 SUB SLT ISZERO PUSH2 0x4501 JUMPI DUP3 DUP4 REVERT JUMPDEST DUP6 CALLDATALOAD PUSH2 0x450C DUP2 PUSH2 0x53CC JUMP JUMPDEST SWAP5 POP PUSH1 0x20 DUP7 ADD CALLDATALOAD PUSH2 0x451C DUP2 PUSH2 0x53CC JUMP JUMPDEST SWAP4 POP PUSH1 0x40 DUP7 ADD CALLDATALOAD PUSH2 0x452C DUP2 PUSH2 0x53CC JUMP JUMPDEST SWAP3 POP PUSH1 0x60 DUP7 ADD CALLDATALOAD PUSH2 0x453C DUP2 PUSH2 0x53CC JUMP JUMPDEST SWAP2 POP PUSH1 0x80 DUP7 ADD CALLDATALOAD PUSH8 0xFFFFFFFFFFFFFFFF DUP2 GT ISZERO PUSH2 0x4557 JUMPI DUP2 DUP3 REVERT JUMPDEST PUSH2 0x4563 DUP9 DUP3 DUP10 ADD PUSH2 0x41FF JUMP JUMPDEST SWAP2 POP POP SWAP3 SWAP6 POP SWAP3 SWAP6 SWAP1 SWAP4 POP JUMP JUMPDEST PUSH1 0x0 DUP1 PUSH1 0x0 DUP1 PUSH1 0x80 DUP6 DUP8 SUB SLT ISZERO PUSH2 0x4585 JUMPI DUP2 DUP3 REVERT JUMPDEST DUP5 CALLDATALOAD PUSH2 0x4590 DUP2 PUSH2 0x53CC JUMP JUMPDEST SWAP4 POP PUSH1 0x20 DUP6 ADD CALLDATALOAD PUSH2 0x45A0 DUP2 PUSH2 0x53CC JUMP JUMPDEST SWAP3 POP PUSH1 0x40 DUP6 ADD CALLDATALOAD PUSH2 0x45B0 DUP2 PUSH2 0x53CC JUMP JUMPDEST SWAP2 POP PUSH1 0x60 DUP6 ADD CALLDATALOAD PUSH8 0xFFFFFFFFFFFFFFFF DUP2 GT ISZERO PUSH2 0x45CB JUMPI DUP2 DUP3 REVERT JUMPDEST PUSH2 0x45D7 DUP8 DUP3 DUP9 ADD PUSH2 0x41FF JUMP JUMPDEST SWAP2 POP POP SWAP3 SWAP6 SWAP2 SWAP5 POP SWAP3 POP JUMP JUMPDEST PUSH1 0x0 DUP1 PUSH1 0x0 PUSH1 0x60 DUP5 DUP7 SUB SLT ISZERO PUSH2 0x45F7 JUMPI DUP1 DUP2 REVERT JUMPDEST DUP4 CALLDATALOAD PUSH2 0x4602 DUP2 PUSH2 0x53CC JUMP JUMPDEST SWAP3 POP PUSH1 0x20 DUP5 ADD CALLDATALOAD PUSH2 0x4612 DUP2 PUSH2 0x53CC JUMP JUMPDEST SWAP2 POP PUSH1 0x40 DUP5 ADD CALLDATALOAD PUSH8 0xFFFFFFFFFFFFFFFF DUP2 GT ISZERO PUSH2 0x462D JUMPI DUP2 DUP3 REVERT JUMPDEST PUSH2 0x4639 DUP7 DUP3 DUP8 ADD PUSH2 0x41FF JUMP JUMPDEST SWAP2 POP POP SWAP3 POP SWAP3 POP SWAP3 JUMP JUMPDEST PUSH1 0x0 DUP1 PUSH1 0x0 DUP1 PUSH1 0x0 DUP1 PUSH1 0xC0 DUP8 DUP10 SUB SLT ISZERO PUSH2 0x465B JUMPI DUP4 DUP5 REVERT JUMPDEST DUP7 MLOAD PUSH2 0x4666 DUP2 PUSH2 0x53CC JUMP JUMPDEST DUP1 SWAP7 POP POP PUSH1 0x20 DUP1 DUP9 ADD MLOAD PUSH2 0x4679 DUP2 PUSH2 0x53CC JUMP JUMPDEST PUSH1 0x40 DUP10 ADD MLOAD SWAP1 SWAP7 POP PUSH2 0x468A DUP2 PUSH2 0x53CC JUMP JUMPDEST PUSH1 0x60 DUP10 ADD MLOAD SWAP1 SWAP6 POP PUSH2 0x469B DUP2 PUSH2 0x53CC JUMP JUMPDEST PUSH1 0x80 DUP10 ADD MLOAD SWAP1 SWAP5 POP PUSH2 0x46AC DUP2 PUSH2 0x53CC JUMP JUMPDEST PUSH1 0xA0 DUP10 ADD MLOAD SWAP1 SWAP4 POP PUSH8 0xFFFFFFFFFFFFFFFF DUP2 GT ISZERO PUSH2 0x46C8 JUMPI DUP3 DUP4 REVERT JUMPDEST DUP1 DUP10 ADD DUP11 PUSH1 0x1F DUP3 ADD SLT PUSH2 0x46D9 JUMPI DUP4 DUP5 REVERT JUMPDEST DUP1 MLOAD SWAP2 POP PUSH2 0x46E9 PUSH2 0x41B3 DUP4 PUSH2 0x5330 JUMP JUMPDEST DUP3 DUP2 MSTORE DUP4 DUP2 ADD SWAP1 DUP3 DUP6 ADD DUP6 DUP6 MUL DUP5 ADD DUP7 ADD DUP15 LT ISZERO PUSH2 0x4705 JUMPI DUP7 DUP8 REVERT JUMPDEST DUP7 SWAP4 POP JUMPDEST DUP5 DUP5 LT ISZERO PUSH2 0x472F JUMPI PUSH2 0x471B DUP15 DUP3 PUSH2 0x4141 JUMP JUMPDEST DUP4 MSTORE PUSH1 0x1 SWAP4 SWAP1 SWAP4 ADD SWAP3 SWAP2 DUP6 ADD SWAP2 DUP6 ADD PUSH2 0x4709 JUMP JUMPDEST POP DUP1 SWAP6 POP POP POP POP POP POP SWAP3 SWAP6 POP SWAP3 SWAP6 POP SWAP3 SWAP6 JUMP JUMPDEST PUSH1 0x0 DUP1 PUSH1 0x20 DUP4 DUP6 SUB SLT ISZERO PUSH2 0x4754 JUMPI DUP2 DUP3 REVERT JUMPDEST DUP3 CALLDATALOAD PUSH8 0xFFFFFFFFFFFFFFFF DUP2 GT ISZERO PUSH2 0x476A JUMPI DUP3 DUP4 REVERT JUMPDEST PUSH2 0x4776 DUP6 DUP3 DUP7 ADD PUSH2 0x414C JUMP JUMPDEST SWAP1 SWAP7 SWAP1 SWAP6 POP SWAP4 POP POP POP POP JUMP JUMPDEST PUSH1 0x0 DUP1 PUSH1 0x40 DUP4 DUP6 SUB SLT ISZERO PUSH2 0x4794 JUMPI DUP2 DUP3 REVERT JUMPDEST DUP3 CALLDATALOAD PUSH8 0xFFFFFFFFFFFFFFFF DUP1 DUP3 GT ISZERO PUSH2 0x47AB JUMPI DUP4 DUP5 REVERT JUMPDEST DUP2 DUP6 ADD DUP7 PUSH1 0x1F DUP3 ADD SLT PUSH2 0x47BC JUMPI DUP5 DUP6 REVERT JUMPDEST DUP1 CALLDATALOAD SWAP3 POP PUSH2 0x47CC PUSH2 0x41B3 DUP5 PUSH2 0x5330 JUMP JUMPDEST DUP1 DUP5 DUP3 MSTORE PUSH1 0x20 DUP1 DUP4 ADD SWAP3 POP DUP1 DUP5 ADD DUP11 DUP3 DUP4 DUP10 MUL DUP8 ADD ADD GT ISZERO PUSH2 0x47EC JUMPI DUP9 DUP10 REVERT JUMPDEST DUP9 SWAP5 POP JUMPDEST DUP7 DUP6 LT ISZERO PUSH2 0x4817 JUMPI DUP1 CALLDATALOAD PUSH2 0x4803 DUP2 PUSH2 0x53CC JUMP JUMPDEST DUP5 MSTORE PUSH1 0x1 SWAP5 SWAP1 SWAP5 ADD SWAP4 SWAP3 DUP2 ADD SWAP3 DUP2 ADD PUSH2 0x47F0 JUMP JUMPDEST POP SWAP1 SWAP7 POP DUP8 ADD CALLDATALOAD SWAP4 POP POP POP DUP1 DUP3 GT ISZERO PUSH2 0x482E JUMPI DUP3 DUP4 REVERT JUMPDEST POP PUSH2 0x483B DUP6 DUP3 DUP7 ADD PUSH2 0x41FF JUMP JUMPDEST SWAP2 POP POP SWAP3 POP SWAP3 SWAP1 POP JUMP JUMPDEST PUSH1 0x0 PUSH1 0x20 DUP1 DUP4 DUP6 SUB SLT ISZERO PUSH2 0x4857 JUMPI DUP2 DUP3 REVERT JUMPDEST DUP3 MLOAD PUSH8 0xFFFFFFFFFFFFFFFF DUP2 GT ISZERO PUSH2 0x486D JUMPI DUP3 DUP4 REVERT JUMPDEST DUP1 DUP5 ADD DUP6 PUSH1 0x1F DUP3 ADD SLT PUSH2 0x487E JUMPI DUP4 DUP5 REVERT JUMPDEST DUP1 MLOAD SWAP2 POP PUSH2 0x488E PUSH2 0x41B3 DUP4 PUSH2 0x5330 JUMP JUMPDEST DUP3 DUP2 MSTORE DUP4 DUP2 ADD SWAP1 DUP3 DUP6 ADD DUP6 DUP6 MUL DUP5 ADD DUP7 ADD DUP10 LT ISZERO PUSH2 0x48AA JUMPI DUP7 DUP8 REVERT JUMPDEST DUP7 SWAP4 POP JUMPDEST DUP5 DUP5 LT ISZERO PUSH2 0x48CC JUMPI DUP1 MLOAD DUP4 MSTORE PUSH1 0x1 SWAP4 SWAP1 SWAP4 ADD SWAP3 SWAP2 DUP6 ADD SWAP2 DUP6 ADD PUSH2 0x48AE JUMP JUMPDEST POP SWAP8 SWAP7 POP POP POP POP POP POP POP JUMP JUMPDEST PUSH1 0x0 DUP1 PUSH1 0x0 PUSH1 0x60 DUP5 DUP7 SUB SLT ISZERO PUSH2 0x48EC JUMPI DUP1 DUP2 REVERT JUMPDEST DUP4 CALLDATALOAD PUSH8 0xFFFFFFFFFFFFFFFF DUP1 DUP3 GT ISZERO PUSH2 0x4903 JUMPI DUP3 DUP4 REVERT JUMPDEST DUP2 DUP7 ADD DUP8 PUSH1 0x1F DUP3 ADD SLT PUSH2 0x4914 JUMPI DUP4 DUP5 REVERT JUMPDEST DUP1 CALLDATALOAD SWAP3 POP PUSH2 0x4924 PUSH2 0x41B3 DUP5 PUSH2 0x5330 JUMP JUMPDEST DUP4 DUP2 MSTORE PUSH1 0x20 DUP1 DUP3 ADD SWAP2 SWAP1 DUP4 DUP2 ADD DUP8 JUMPDEST DUP8 DUP2 LT ISZERO PUSH2 0x495C JUMPI PUSH2 0x494A DUP14 DUP5 DUP5 CALLDATALOAD DUP10 ADD ADD PUSH2 0x42FC JUMP JUMPDEST DUP6 MSTORE SWAP4 DUP3 ADD SWAP4 SWAP1 DUP3 ADD SWAP1 PUSH1 0x1 ADD PUSH2 0x4933 JUMP JUMPDEST POP SWAP2 SWAP9 POP DUP10 ADD CALLDATALOAD SWAP5 POP POP POP POP DUP1 DUP3 GT ISZERO PUSH2 0x4974 JUMPI DUP3 DUP4 REVERT JUMPDEST POP PUSH2 0x4981 DUP7 DUP3 DUP8 ADD PUSH2 0x4195 JUMP JUMPDEST SWAP3 POP POP PUSH2 0x4991 DUP6 PUSH1 0x40 DUP7 ADD PUSH2 0x4136 JUMP JUMPDEST SWAP1 POP SWAP3 POP SWAP3 POP SWAP3 JUMP JUMPDEST PUSH1 0x0 DUP1 PUSH1 0x0 PUSH1 0x60 DUP5 DUP7 SUB SLT ISZERO PUSH2 0x49AE JUMPI DUP1 DUP2 REVERT JUMPDEST DUP4 MLOAD DUP1 ISZERO ISZERO DUP2 EQ PUSH2 0x49BD JUMPI DUP2 DUP3 REVERT JUMPDEST PUSH1 0x20 DUP6 ADD MLOAD SWAP1 SWAP4 POP PUSH8 0xFFFFFFFFFFFFFFFF DUP2 GT ISZERO PUSH2 0x49D9 JUMPI DUP2 DUP3 REVERT JUMPDEST PUSH2 0x49E5 DUP7 DUP3 DUP8 ADD PUSH2 0x42B6 JUMP JUMPDEST SWAP3 POP POP PUSH1 0x40 DUP5 ADD MLOAD SWAP1 POP SWAP3 POP SWAP3 POP SWAP3 JUMP JUMPDEST PUSH1 0x0 PUSH1 0x20 DUP3 DUP5 SUB SLT ISZERO PUSH2 0x4A07 JUMPI DUP1 DUP2 REVERT JUMPDEST POP MLOAD SWAP2 SWAP1 POP JUMP JUMPDEST PUSH1 0x0 PUSH1 0x20 DUP3 DUP5 SUB SLT ISZERO PUSH2 0x4A1F JUMPI DUP1 DUP2 REVERT JUMPDEST DUP2 MLOAD PUSH8 0xFFFFFFFFFFFFFFFF DUP2 GT ISZERO PUSH2 0x4A35 JUMPI DUP2 DUP3 REVERT JUMPDEST PUSH2 0x1B37 DUP5 DUP3 DUP6 ADD PUSH2 0x42B6 JUMP JUMPDEST PUSH1 0x0 PUSH1 0x20 DUP3 DUP5 SUB SLT ISZERO PUSH2 0x4A52 JUMPI DUP1 DUP2 REVERT JUMPDEST DUP2 MLOAD PUSH2 0x5CA DUP2 PUSH2 0x541C JUMP JUMPDEST PUSH1 0x0 DUP1 PUSH1 0x80 DUP4 DUP6 SUB SLT ISZERO PUSH2 0x4A6F JUMPI DUP2 DUP3 REVERT JUMPDEST DUP3 MLOAD PUSH2 0x4A7A DUP2 PUSH2 0x541C JUMP JUMPDEST SWAP2 POP PUSH1 0x60 DUP4 DUP6 SUB PUSH32 0xFFFFFFFFFFFFFFFFFFFFFFFFFFFFFFFFFFFFFFFFFFFFFFFFFFFFFFFFFFFFFFE0 ADD SLT ISZERO PUSH2 0x4AAD JUMPI DUP1 DUP2 REVERT JUMPDEST PUSH2 0x4AB7 PUSH1 0x60 PUSH2 0x5309 JUMP JUMPDEST PUSH1 0x20 DUP5 ADD MLOAD PUSH2 0x4AC5 DUP2 PUSH2 0x53CC JUMP JUMPDEST DUP2 MSTORE PUSH1 0x40 DUP5 ADD MLOAD PUSH2 0x4AD5 DUP2 PUSH2 0x53EE JUMP JUMPDEST PUSH1 0x20 DUP3 ADD MSTORE PUSH1 0x60 DUP5 ADD MLOAD PUSH2 0x4AE8 DUP2 PUSH2 0x53EE JUMP JUMPDEST PUSH1 0x40 DUP3 ADD MSTORE SWAP2 SWAP5 SWAP2 SWAP4 POP SWAP1 SWAP2 POP POP JUMP JUMPDEST PUSH1 0x0 DUP1 PUSH1 0x0 DUP1 DUP5 DUP7 SUB PUSH1 0xC0 DUP2 SLT ISZERO PUSH2 0x4B0E JUMPI DUP3 DUP4 REVERT JUMPDEST PUSH1 0x60 DUP2 SLT ISZERO PUSH2 0x4B1B JUMPI DUP3 DUP4 REVERT JUMPDEST POP PUSH2 0x4B26 PUSH1 0x60 PUSH2 0x5309 JUMP JUMPDEST DUP6 CALLDATALOAD PUSH2 0x4B31 DUP2 PUSH2 0x53CC JUMP JUMPDEST DUP2 MSTORE PUSH1 0x20 DUP7 ADD CALLDATALOAD PUSH2 0x4B41 DUP2 PUSH2 0x53EE JUMP JUMPDEST PUSH1 0x20 DUP3 ADD MSTORE PUSH1 0x40 DUP7 ADD CALLDATALOAD PUSH2 0x4B54 DUP2 PUSH2 0x53EE JUMP JUMPDEST PUSH1 0x40 DUP3 ADD MSTORE SWAP4 POP PUSH1 0x60 DUP6 ADD CALLDATALOAD PUSH2 0x4B69 DUP2 PUSH2 0x541C JUMP JUMPDEST SWAP3 POP PUSH1 0x80 DUP6 ADD CALLDATALOAD PUSH2 0x4B79 DUP2 PUSH2 0x541C JUMP JUMPDEST SWAP2 POP PUSH1 0xA0 DUP6 ADD CALLDATALOAD PUSH8 0xFFFFFFFFFFFFFFFF DUP2 GT ISZERO PUSH2 0x45CB JUMPI DUP2 DUP3 REVERT JUMPDEST PUSH1 0x0 DUP1 PUSH1 0x0 PUSH1 0x60 DUP5 DUP7 SUB SLT ISZERO PUSH2 0x4BA8 JUMPI DUP1 DUP2 REVERT JUMPDEST DUP4 CALLDATALOAD PUSH8 0xFFFFFFFFFFFFFFFF DUP1 DUP3 GT ISZERO PUSH2 0x4BBF JUMPI DUP3 DUP4 REVERT JUMPDEST PUSH2 0x4BCB DUP8 DUP4 DUP9 ADD PUSH2 0x42FC JUMP JUMPDEST SWAP5 POP PUSH1 0x20 DUP7 ADD CALLDATALOAD SWAP2 POP DUP1 DUP3 GT ISZERO PUSH2 0x4BE0 JUMPI DUP3 DUP4 REVERT JUMPDEST POP PUSH2 0x4BED DUP7 DUP3 DUP8 ADD PUSH2 0x4268 JUMP JUMPDEST SWAP3 POP POP PUSH1 0x40 DUP5 ADD CALLDATALOAD PUSH2 0x44DF DUP2 PUSH2 0x53CC JUMP JUMPDEST PUSH20 0xFFFFFFFFFFFFFFFFFFFFFFFFFFFFFFFFFFFFFFFF AND SWAP1 MSTORE JUMP JUMPDEST PUSH1 0x0 DUP2 MLOAD DUP1 DUP5 MSTORE PUSH1 0x20 DUP5 ADD SWAP4 POP PUSH1 0x20 DUP4 ADD DUP3 JUMPDEST DUP3 DUP2 LT ISZERO PUSH2 0x4C49 JUMPI DUP2 MLOAD DUP7 MSTORE PUSH1 0x20 SWAP6 DUP7 ADD SWAP6 SWAP1 SWAP2 ADD SWAP1 PUSH1 0x1 ADD PUSH2 0x4C2B JUMP JUMPDEST POP SWAP4 SWAP5 SWAP4 POP POP POP POP JUMP JUMPDEST PUSH1 0x0 DUP2 MLOAD DUP1 DUP5 MSTORE PUSH2 0x4C6B DUP2 PUSH1 0x20 DUP7 ADD PUSH1 0x20 DUP7 ADD PUSH2 0x5392 JUMP JUMPDEST PUSH1 0x1F ADD PUSH32 0xFFFFFFFFFFFFFFFFFFFFFFFFFFFFFFFFFFFFFFFFFFFFFFFFFFFFFFFFFFFFFFE0 AND SWAP3 SWAP1 SWAP3 ADD PUSH1 0x20 ADD SWAP3 SWAP2 POP POP JUMP JUMPDEST DUP1 MLOAD PUSH20 0xFFFFFFFFFFFFFFFFFFFFFFFFFFFFFFFFFFFFFFFF AND DUP3 MSTORE PUSH1 0x20 DUP1 DUP3 ADD MLOAD PUSH32 0xFFFFFFFF00000000000000000000000000000000000000000000000000000000 SWAP1 DUP2 AND SWAP2 DUP5 ADD SWAP2 SWAP1 SWAP2 MSTORE PUSH1 0x40 SWAP2 DUP3 ADD MLOAD AND SWAP2 ADD MSTORE JUMP JUMPDEST PUSH1 0x60 SWAP2 SWAP1 SWAP2 SHL PUSH32 0xFFFFFFFFFFFFFFFFFFFFFFFFFFFFFFFFFFFFFFFF000000000000000000000000 AND DUP2 MSTORE PUSH1 0x14 ADD SWAP1 JUMP JUMPDEST PUSH1 0x0 DUP3 DUP5 DUP4 CALLDATACOPY SWAP2 ADD SWAP1 DUP2 MSTORE SWAP2 SWAP1 POP JUMP JUMPDEST PUSH1 0x0 DUP3 MLOAD PUSH2 0x4D46 DUP2 DUP5 PUSH1 0x20 DUP8 ADD PUSH2 0x5392 JUMP JUMPDEST SWAP2 SWAP1 SWAP2 ADD SWAP3 SWAP2 POP POP JUMP JUMPDEST PUSH20 0xFFFFFFFFFFFFFFFFFFFFFFFFFFFFFFFFFFFFFFFF SWAP2 SWAP1 SWAP2 AND DUP2 MSTORE PUSH1 0x20 ADD SWAP1 JUMP JUMPDEST PUSH1 0x0 PUSH20 0xFFFFFFFFFFFFFFFFFFFFFFFFFFFFFFFFFFFFFFFF DUP1 DUP7 AND DUP4 MSTORE DUP1 DUP6 AND PUSH1 0x20 DUP5 ADD MSTORE POP PUSH1 0x60 PUSH1 0x40 DUP4 ADD MSTORE PUSH2 0x83A PUSH1 0x60 DUP4 ADD DUP5 PUSH2 0x4C18 JUMP JUMPDEST PUSH20 0xFFFFFFFFFFFFFFFFFFFFFFFFFFFFFFFFFFFFFFFF SWAP3 DUP4 AND DUP2 MSTORE SWAP2 AND PUSH1 0x20 DUP3 ADD MSTORE PUSH1 0x40 ADD SWAP1 JUMP JUMPDEST PUSH1 0x0 PUSH20 0xFFFFFFFFFFFFFFFFFFFFFFFFFFFFFFFFFFFFFFFF DUP1 DUP8 AND DUP4 MSTORE DUP1 DUP7 AND PUSH1 0x20 DUP5 ADD MSTORE DUP1 DUP6 AND PUSH1 0x40 DUP5 ADD MSTORE POP PUSH1 0x80 PUSH1 0x60 DUP4 ADD MSTORE PUSH2 0x4E12 PUSH1 0x80 DUP4 ADD DUP5 PUSH2 0x4C18 JUMP JUMPDEST SWAP7 SWAP6 POP POP POP POP POP POP JUMP JUMPDEST PUSH20 0xFFFFFFFFFFFFFFFFFFFFFFFFFFFFFFFFFFFFFFFF SWAP5 DUP6 AND DUP2 MSTORE SWAP3 DUP5 AND PUSH1 0x20 DUP5 ADD MSTORE SWAP3 AND PUSH1 0x40 DUP3 ADD MSTORE PUSH1 0x60 DUP2 ADD SWAP2 SWAP1 SWAP2 MSTORE PUSH1 0x80 ADD SWAP1 JUMP JUMPDEST PUSH20 0xFFFFFFFFFFFFFFFFFFFFFFFFFFFFFFFFFFFFFFFF SWAP4 DUP5 AND DUP2 MSTORE SWAP2 SWAP1 SWAP3 AND PUSH1 0x20 DUP3 ADD MSTORE PUSH1 0x40 DUP2 ADD SWAP2 SWAP1 SWAP2 MSTORE PUSH1 0x60 ADD SWAP1 JUMP JUMPDEST PUSH1 0x0 PUSH20 0xFFFFFFFFFFFFFFFFFFFFFFFFFFFFFFFFFFFFFFFF DUP1 DUP9 AND DUP4 MSTORE DUP1 DUP8 AND PUSH1 0x20 DUP5 ADD MSTORE POP DUP5 PUSH1 0x40 DUP4 ADD MSTORE PUSH1 0xFF DUP5 AND PUSH1 0x60 DUP4 ADD MSTORE PUSH1 0xA0 PUSH1 0x80 DUP4 ADD MSTORE PUSH2 0x4ECC PUSH1 0xA0 DUP4 ADD DUP5 PUSH2 0x4C53 JUMP JUMPDEST SWAP8 SWAP7 POP POP POP POP POP POP POP JUMP JUMPDEST PUSH1 0x0 PUSH1 0x80 DUP3 ADD PUSH20 0xFFFFFFFFFFFFFFFFFFFFFFFFFFFFFFFFFFFFFFFF DUP8 AND DUP4 MSTORE PUSH2 0x4EFF DUP7 PUSH2 0x53C2 JUMP JUMPDEST PUSH1 0x20 DUP4 DUP2 ADD DUP8 SWAP1 MSTORE PUSH1 0x80 PUSH1 0x40 DUP6 ADD MSTORE DUP6 MLOAD SWAP2 DUP3 SWAP1 MSTORE DUP6 ADD SWAP1 PUSH1 0xA0 DUP5 ADD SWAP1 DUP4 JUMPDEST DUP2 DUP2 LT ISZERO PUSH2 0x4F3C JUMPI DUP4 MLOAD DUP4 MSTORE PUSH1 0x20 SWAP4 DUP5 ADD SWAP4 SWAP1 SWAP3 ADD SWAP2 PUSH1 0x1 ADD PUSH2 0x4F1E JUMP JUMPDEST POP POP DUP4 DUP2 SUB PUSH1 0x60 DUP6 ADD MSTORE PUSH2 0x4F50 DUP2 DUP7 PUSH2 0x4C18 JUMP JUMPDEST SWAP9 SWAP8 POP POP POP POP POP POP POP POP JUMP JUMPDEST PUSH1 0x20 DUP1 DUP3 MSTORE DUP2 ADD DUP3 SWAP1 MSTORE PUSH1 0x0 DUP4 PUSH1 0x40 DUP4 ADD DUP3 JUMPDEST DUP6 DUP2 LT ISZERO PUSH2 0x4FAC JUMPI DUP3 CALLDATALOAD PUSH2 0x4F82 DUP2 PUSH2 0x53CC JUMP JUMPDEST PUSH20 0xFFFFFFFFFFFFFFFFFFFFFFFFFFFFFFFFFFFFFFFF AND DUP3 MSTORE PUSH1 0x20 SWAP3 DUP4 ADD SWAP3 SWAP1 SWAP2 ADD SWAP1 PUSH1 0x1 ADD PUSH2 0x4F6F JUMP JUMPDEST POP SWAP6 SWAP5 POP POP POP POP POP JUMP JUMPDEST PUSH1 0x0 PUSH1 0x20 DUP1 DUP4 ADD DUP2 DUP5 MSTORE DUP1 DUP6 MLOAD DUP1 DUP4 MSTORE PUSH1 0x40 DUP7 ADD SWAP2 POP PUSH1 0x40 DUP5 DUP3 MUL DUP8 ADD ADD SWAP3 POP DUP4 DUP8 ADD DUP6 JUMPDEST DUP3 DUP2 LT ISZERO PUSH2 0x5027 JUMPI PUSH32 0xFFFFFFFFFFFFFFFFFFFFFFFFFFFFFFFFFFFFFFFFFFFFFFFFFFFFFFFFFFFFFFC0 DUP9 DUP7 SUB ADD DUP5 MSTORE PUSH2 0x5015 DUP6 DUP4 MLOAD PUSH2 0x4C53 JUMP JUMPDEST SWAP5 POP SWAP3 DUP6 ADD SWAP3 SWAP1 DUP6 ADD SWAP1 PUSH1 0x1 ADD PUSH2 0x4FDB JUMP JUMPDEST POP SWAP3 SWAP8 SWAP7 POP POP POP POP POP POP POP JUMP JUMPDEST PUSH1 0x0 PUSH1 0x20 DUP3 MSTORE PUSH2 0x5CA PUSH1 0x20 DUP4 ADD DUP5 PUSH2 0x4C18 JUMP JUMPDEST PUSH1 0x60 DUP2 ADD PUSH2 0x5054 DUP6 PUSH2 0x53C2 JUMP JUMPDEST SWAP4 DUP2 MSTORE PUSH1 0x20 DUP2 ADD SWAP3 SWAP1 SWAP3 MSTORE PUSH1 0x40 SWAP1 SWAP2 ADD MSTORE SWAP1 JUMP JUMPDEST PUSH1 0x60 DUP2 ADD PUSH1 0x8 DUP6 LT PUSH2 0x5054 JUMPI INVALID JUMPDEST PUSH1 0xF SWAP4 DUP5 SIGNEXTEND DUP2 MSTORE SWAP2 SWAP1 SWAP3 SIGNEXTEND PUSH1 0x20 DUP3 ADD MSTORE PUSH1 0x40 DUP2 ADD SWAP2 SWAP1 SWAP2 MSTORE PUSH1 0x60 ADD SWAP1 JUMP JUMPDEST PUSH1 0xF DUP4 SWAP1 SIGNEXTEND DUP2 MSTORE PUSH1 0x80 DUP2 ADD PUSH2 0x5CA PUSH1 0x20 DUP4 ADD DUP5 PUSH2 0x4C9D JUMP JUMPDEST PUSH1 0x20 DUP1 DUP3 MSTORE PUSH1 0x25 SWAP1 DUP3 ADD MSTORE PUSH32 0x455243323042726964676553616D706C65722F494E56414C49445F544F4B454E PUSH1 0x40 DUP3 ADD MSTORE PUSH32 0x5F50414952000000000000000000000000000000000000000000000000000000 PUSH1 0x60 DUP3 ADD MSTORE PUSH1 0x80 ADD SWAP1 JUMP JUMPDEST PUSH1 0x0 PUSH2 0x5115 DUP3 DUP8 PUSH2 0x4C9D JUMP JUMPDEST DUP5 PUSH1 0xF SIGNEXTEND PUSH1 0x60 DUP4 ADD MSTORE DUP4 PUSH1 0xF SIGNEXTEND PUSH1 0x80 DUP4 ADD MSTORE PUSH1 0xC0 PUSH1 0xA0 DUP4 ADD MSTORE PUSH2 0x4E12 PUSH1 0xC0 DUP4 ADD DUP5 PUSH2 0x4C18 JUMP JUMPDEST PUSH1 0x0 PUSH1 0x60 DUP3 MSTORE PUSH2 0x514F PUSH1 0x60 DUP4 ADD DUP7 MLOAD PUSH2 0x4BFE JUMP JUMPDEST PUSH1 0x20 DUP6 ADD MLOAD PUSH2 0x5161 PUSH1 0x80 DUP5 ADD DUP3 PUSH2 0x4BFE JUMP JUMPDEST POP PUSH1 0x40 DUP6 ADD MLOAD PUSH2 0x5174 PUSH1 0xA0 DUP5 ADD DUP3 PUSH2 0x4BFE JUMP JUMPDEST POP PUSH1 0x60 DUP6 ADD MLOAD PUSH2 0x5187 PUSH1 0xC0 DUP5 ADD DUP3 PUSH2 0x4BFE JUMP JUMPDEST POP PUSH1 0x80 DUP6 ADD MLOAD PUSH1 0xE0 DUP4 ADD MSTORE PUSH1 0xA0 DUP6 ADD MLOAD PUSH2 0x100 DUP2 DUP2 DUP6 ADD MSTORE PUSH1 0xC0 DUP8 ADD MLOAD SWAP2 POP PUSH2 0x120 DUP3 DUP2 DUP7 ADD MSTORE PUSH1 0xE0 DUP9 ADD MLOAD SWAP3 POP PUSH2 0x140 DUP4 DUP2 DUP8 ADD MSTORE DUP3 DUP10 ADD MLOAD SWAP4 POP PUSH2 0x160 SWAP3 POP DUP4 DUP4 DUP8 ADD MSTORE DUP2 DUP10 ADD MLOAD SWAP4 POP PUSH2 0x180 SWAP2 POP DUP4 DUP3 DUP8 ADD MSTORE DUP1 DUP10 ADD MLOAD SWAP4 POP POP PUSH2 0x1C0 PUSH2 0x1A0 DUP2 DUP2 DUP9 ADD MSTORE PUSH2 0x51FD PUSH2 0x220 DUP9 ADD DUP7 PUSH2 0x4C53 JUMP JUMPDEST DUP5 DUP12 ADD MLOAD SWAP6 POP PUSH32 0xFFFFFFFFFFFFFFFFFFFFFFFFFFFFFFFFFFFFFFFFFFFFFFFFFFFFFFFFFFFFFFA0 SWAP5 POP DUP5 DUP9 DUP3 SUB ADD DUP4 DUP10 ADD MSTORE PUSH2 0x5239 DUP2 DUP8 PUSH2 0x4C53 JUMP JUMPDEST SWAP3 POP POP DUP3 DUP11 ADD MLOAD SWAP5 POP DUP4 DUP8 DUP4 SUB ADD PUSH2 0x1E0 DUP9 ADD MSTORE PUSH2 0x5257 DUP3 DUP7 PUSH2 0x4C53 JUMP JUMPDEST SWAP3 POP DUP1 DUP11 ADD MLOAD SWAP5 POP POP POP DUP2 DUP6 DUP3 SUB ADD PUSH2 0x200 DUP7 ADD MSTORE PUSH2 0x5276 DUP2 DUP5 PUSH2 0x4C53 JUMP JUMPDEST SWAP2 POP POP DUP4 DUP2 SUB PUSH1 0x20 DUP6 ADD MSTORE PUSH2 0x528B DUP2 DUP8 PUSH2 0x4C53 JUMP JUMPDEST SWAP3 POP POP POP PUSH2 0x1B37 PUSH1 0x40 DUP4 ADD DUP5 PUSH2 0x4BFE JUMP JUMPDEST SWAP1 DUP2 MSTORE PUSH1 0x20 ADD SWAP1 JUMP JUMPDEST PUSH1 0x0 PUSH1 0x40 DUP3 ADD DUP5 DUP4 MSTORE PUSH1 0x40 PUSH1 0x20 DUP5 ADD MSTORE DUP1 DUP5 MLOAD DUP1 DUP4 MSTORE PUSH1 0x60 DUP6 ADD SWAP2 POP PUSH1 0x20 DUP7 ADD SWAP3 POP DUP4 JUMPDEST DUP2 DUP2 LT ISZERO PUSH2 0x52FD JUMPI DUP4 MLOAD PUSH20 0xFFFFFFFFFFFFFFFFFFFFFFFFFFFFFFFFFFFFFFFF AND DUP4 MSTORE PUSH1 0x20 SWAP4 DUP5 ADD SWAP4 SWAP1 SWAP3 ADD SWAP2 PUSH1 0x1 ADD PUSH2 0x52C9 JUMP JUMPDEST POP SWAP1 SWAP7 SWAP6 POP POP POP POP POP POP JUMP JUMPDEST PUSH1 0x40 MLOAD DUP2 DUP2 ADD PUSH8 0xFFFFFFFFFFFFFFFF DUP2 GT DUP3 DUP3 LT OR ISZERO PUSH2 0x5328 JUMPI PUSH1 0x0 DUP1 REVERT JUMPDEST PUSH1 0x40 MSTORE SWAP2 SWAP1 POP JUMP JUMPDEST PUSH1 0x0 PUSH8 0xFFFFFFFFFFFFFFFF DUP3 GT ISZERO PUSH2 0x5346 JUMPI DUP1 DUP2 REVERT JUMPDEST POP PUSH1 0x20 SWAP1 DUP2 MUL ADD SWAP1 JUMP JUMPDEST PUSH1 0x0 PUSH8 0xFFFFFFFFFFFFFFFF DUP3 GT ISZERO PUSH2 0x5366 JUMPI DUP1 DUP2 REVERT JUMPDEST POP PUSH1 0x1F ADD PUSH32 0xFFFFFFFFFFFFFFFFFFFFFFFFFFFFFFFFFFFFFFFFFFFFFFFFFFFFFFFFFFFFFFE0 AND PUSH1 0x20 ADD SWAP1 JUMP JUMPDEST PUSH1 0x0 JUMPDEST DUP4 DUP2 LT ISZERO PUSH2 0x53AD JUMPI DUP2 DUP2 ADD MLOAD DUP4 DUP3 ADD MSTORE PUSH1 0x20 ADD PUSH2 0x5395 JUMP JUMPDEST DUP4 DUP2 GT ISZERO PUSH2 0x53BC JUMPI PUSH1 0x0 DUP5 DUP5 ADD MSTORE JUMPDEST POP POP POP POP JUMP JUMPDEST PUSH1 0x4 DUP2 LT PUSH2 0x611 JUMPI INVALID JUMPDEST PUSH20 0xFFFFFFFFFFFFFFFFFFFFFFFFFFFFFFFFFFFFFFFF DUP2 AND DUP2 EQ PUSH2 0x611 JUMPI PUSH1 0x0 DUP1 REVERT JUMPDEST PUSH32 0xFFFFFFFF00000000000000000000000000000000000000000000000000000000 DUP2 AND DUP2 EQ PUSH2 0x611 JUMPI PUSH1 0x0 DUP1 REVERT JUMPDEST DUP1 PUSH1 0xF SIGNEXTEND DUP2 EQ PUSH2 0x611 JUMPI PUSH1 0x0 DUP1 REVERT INVALID LOG3 PUSH6 0x627A7A723158 KECCAK256 GASLIMIT PUSH20 0x3A678A340CDFFC49415BD7415CDE52CF0AB5C707 DUP4 0x21 0xBD 0xD9 CREATE2 PUSH11 0xFE1509846C657870657269 PUSH14 0x656E74616CF564736F6C63430005 GT STOP BLOCKHASH PUSH1 0x80 PUSH1 0x40 MSTORE CALLVALUE DUP1 ISZERO PUSH2 0x10 JUMPI PUSH1 0x0 DUP1 REVERT JUMPDEST POP PUSH2 0x8C7 DUP1 PUSH2 0x20 PUSH1 0x0 CODECOPY PUSH1 0x0 RETURN INVALID PUSH1 0x80 PUSH1 0x40 MSTORE CALLVALUE DUP1 ISZERO PUSH2 0x10 JUMPI PUSH1 0x0 DUP1 REVERT JUMPDEST POP PUSH1 0x4 CALLDATASIZE LT PUSH2 0x36 JUMPI PUSH1 0x0 CALLDATALOAD PUSH1 0xE0 SHR DUP1 PUSH4 0x6F2BF62 EQ PUSH2 0x3B JUMPI DUP1 PUSH4 0x31268657 EQ PUSH2 0x64 JUMPI JUMPDEST PUSH1 0x0 DUP1 REVERT JUMPDEST PUSH2 0x4E PUSH2 0x49 CALLDATASIZE PUSH1 0x4 PUSH2 0x173 JUMP JUMPDEST PUSH2 0x79 JUMP JUMPDEST PUSH1 0x40 MLOAD PUSH2 0x5B SWAP2 SWAP1 PUSH2 0x21A JUMP JUMPDEST PUSH1 0x40 MLOAD DUP1 SWAP2 SUB SWAP1 RETURN JUMPDEST PUSH2 0x77 PUSH2 0x72 CALLDATASIZE PUSH1 0x4 PUSH2 0x1AE JUMP JUMPDEST PUSH2 0xA4 JUMP JUMPDEST STOP JUMPDEST PUSH20 0xFFFFFFFFFFFFFFFFFFFFFFFFFFFFFFFFFFFFFFFF SWAP1 DUP2 AND PUSH1 0x0 SWAP1 DUP2 MSTORE PUSH1 0x20 DUP2 SWAP1 MSTORE PUSH1 0x40 SWAP1 KECCAK256 SLOAD AND SWAP1 JUMP JUMPDEST PUSH1 0x0 JUMPDEST DUP2 DUP2 LT ISZERO PUSH2 0x161 JUMPI PUSH1 0x0 DUP4 DUP4 DUP4 DUP2 DUP2 LT PUSH2 0xBD JUMPI INVALID JUMPDEST SWAP1 POP PUSH1 0x20 MUL ADD PUSH1 0x20 PUSH2 0xD2 SWAP2 SWAP1 DUP2 ADD SWAP1 PUSH2 0x173 JUMP JUMPDEST SWAP1 POP DUP1 PUSH1 0x40 MLOAD PUSH2 0xE1 SWAP1 PUSH2 0x166 JUMP JUMPDEST PUSH2 0xEB SWAP2 SWAP1 PUSH2 0x21A JUMP JUMPDEST PUSH1 0x40 MLOAD DUP1 SWAP2 SUB SWAP1 PUSH1 0x0 CREATE DUP1 ISZERO DUP1 ISZERO PUSH2 0x107 JUMPI RETURNDATASIZE PUSH1 0x0 DUP1 RETURNDATACOPY RETURNDATASIZE PUSH1 0x0 REVERT JUMPDEST POP PUSH20 0xFFFFFFFFFFFFFFFFFFFFFFFFFFFFFFFFFFFFFFFF SWAP2 DUP3 AND PUSH1 0x0 SWAP1 DUP2 MSTORE PUSH1 0x20 DUP2 SWAP1 MSTORE PUSH1 0x40 SWAP1 KECCAK256 DUP1 SLOAD PUSH32 0xFFFFFFFFFFFFFFFFFFFFFFFF0000000000000000000000000000000000000000 AND SWAP2 SWAP1 SWAP3 AND OR SWAP1 SSTORE PUSH1 0x1 ADD PUSH2 0xA7 JUMP JUMPDEST POP POP POP JUMP JUMPDEST PUSH2 0x649 DUP1 PUSH2 0x23C DUP4 CODECOPY ADD SWAP1 JUMP JUMPDEST PUSH1 0x0 PUSH1 0x20 DUP3 DUP5 SUB SLT ISZERO PUSH2 0x184 JUMPI DUP1 DUP2 REVERT JUMPDEST DUP2 CALLDATALOAD PUSH20 0xFFFFFFFFFFFFFFFFFFFFFFFFFFFFFFFFFFFFFFFF DUP2 AND DUP2 EQ PUSH2 0x1A7 JUMPI DUP2 DUP3 REVERT JUMPDEST SWAP4 SWAP3 POP POP POP JUMP JUMPDEST PUSH1 0x0 DUP1 PUSH1 0x20 DUP4 DUP6 SUB SLT ISZERO PUSH2 0x1C0 JUMPI DUP1 DUP2 REVERT JUMPDEST DUP3 CALLDATALOAD PUSH8 0xFFFFFFFFFFFFFFFF DUP1 DUP3 GT ISZERO PUSH2 0x1D7 JUMPI DUP3 DUP4 REVERT JUMPDEST DUP2 DUP6 ADD DUP7 PUSH1 0x1F DUP3 ADD SLT PUSH2 0x1E8 JUMPI DUP4 DUP5 REVERT JUMPDEST DUP1 CALLDATALOAD SWAP3 POP DUP2 DUP4 GT ISZERO PUSH2 0x1F8 JUMPI DUP4 DUP5 REVERT JUMPDEST DUP7 PUSH1 0x20 DUP1 DUP6 MUL DUP4 ADD ADD GT ISZERO PUSH2 0x20B JUMPI DUP4 DUP5 REVERT JUMPDEST PUSH1 0x20 ADD SWAP7 SWAP2 SWAP6 POP SWAP1 SWAP4 POP POP POP POP JUMP JUMPDEST PUSH20 0xFFFFFFFFFFFFFFFFFFFFFFFFFFFFFFFFFFFFFFFF SWAP2 SWAP1 SWAP2 AND DUP2 MSTORE PUSH1 0x20 ADD SWAP1 JUMP INVALID PUSH1 0x80 PUSH1 0x40 MSTORE CALLVALUE DUP1 ISZERO PUSH2 0x10 JUMPI PUSH1 0x0 DUP1 REVERT JUMPDEST POP PUSH1 0x40 MLOAD PUSH2 0x649 CODESIZE SUB DUP1 PUSH2 0x649 DUP4 CODECOPY DUP2 ADD PUSH1 0x40 DUP2 SWAP1 MSTORE PUSH2 0x2F SWAP2 PUSH2 0x9E JUMP JUMPDEST PUSH1 0x0 DUP1 SLOAD PUSH1 0x1 PUSH1 0x1 PUSH1 0xA0 SHL SUB NOT AND PUSH1 0x1 PUSH1 0x1 PUSH1 0xA0 SHL SUB DUP4 AND OR SWAP1 SSTORE PUSH1 0x40 MLOAD PUSH2 0x7D SWAP1 PUSH32 0x1D6A6A0506B0B4A554B907A4C29D9F4674E461989D9C1921FEB17B26716385AB SWAP1 DUP4 SWAP1 PUSH1 0x20 ADD PUSH2 0xCC JUMP JUMPDEST PUSH1 0x40 DUP1 MLOAD PUSH1 0x1F NOT DUP2 DUP5 SUB ADD DUP2 MSTORE SWAP2 SWAP1 MSTORE DUP1 MLOAD PUSH1 0x20 SWAP1 SWAP2 ADD KECCAK256 PUSH1 0x1 SSTORE POP PUSH2 0xE7 JUMP JUMPDEST PUSH1 0x0 PUSH1 0x20 DUP3 DUP5 SUB SLT ISZERO PUSH2 0xAF JUMPI DUP1 DUP2 REVERT JUMPDEST DUP2 MLOAD PUSH1 0x1 PUSH1 0x1 PUSH1 0xA0 SHL SUB DUP2 AND DUP2 EQ PUSH2 0xC5 JUMPI DUP2 DUP3 REVERT JUMPDEST SWAP4 SWAP3 POP POP POP JUMP JUMPDEST SWAP2 DUP3 MSTORE PUSH1 0x60 SHL PUSH1 0x1 PUSH1 0x1 PUSH1 0x60 SHL SUB NOT AND PUSH1 0x20 DUP3 ADD MSTORE PUSH1 0x34 ADD SWAP1 JUMP JUMPDEST PUSH2 0x553 DUP1 PUSH2 0xF6 PUSH1 0x0 CODECOPY PUSH1 0x0 RETURN INVALID PUSH1 0x80 PUSH1 0x40 MSTORE PUSH1 0x4 CALLDATASIZE LT PUSH2 0x7B JUMPI PUSH1 0x0 CALLDATALOAD PUSH1 0xE0 SHR DUP1 PUSH4 0x9D76EA58 GT PUSH2 0x4E JUMPI DUP1 PUSH4 0x9D76EA58 EQ PUSH2 0xE0 JUMPI DUP1 PUSH4 0xBFA0B133 EQ PUSH2 0x102 JUMPI DUP1 PUSH4 0xCD72D789 EQ PUSH2 0x117 JUMPI DUP1 PUSH4 0xCD7724C3 EQ PUSH2 0xC0 JUMPI PUSH2 0x7B JUMP JUMPDEST DUP1 PUSH4 0x11F2928B EQ PUSH2 0x80 JUMPI DUP1 PUSH4 0x2640F62C EQ PUSH2 0x8A JUMPI DUP1 PUSH4 0x59E94862 EQ PUSH2 0x8A JUMPI DUP1 PUSH4 0x95B68FE7 EQ PUSH2 0xC0 JUMPI JUMPDEST PUSH1 0x0 DUP1 REVERT JUMPDEST PUSH2 0x88 PUSH2 0x12C JUMP JUMPDEST STOP JUMPDEST CALLVALUE DUP1 ISZERO PUSH2 0x96 JUMPI PUSH1 0x0 DUP1 REVERT JUMPDEST POP PUSH2 0xAA PUSH2 0xA5 CALLDATASIZE PUSH1 0x4 PUSH2 0x429 JUMP JUMPDEST PUSH2 0x16F JUMP JUMPDEST PUSH1 0x40 MLOAD PUSH2 0xB7 SWAP2 SWAP1 PUSH2 0x4D0 JUMP JUMPDEST PUSH1 0x40 MLOAD DUP1 SWAP2 SUB SWAP1 RETURN JUMPDEST CALLVALUE DUP1 ISZERO PUSH2 0xCC JUMPI PUSH1 0x0 DUP1 REVERT JUMPDEST POP PUSH2 0xAA PUSH2 0xDB CALLDATASIZE PUSH1 0x4 PUSH2 0x429 JUMP JUMPDEST PUSH2 0x1AE JUMP JUMPDEST CALLVALUE DUP1 ISZERO PUSH2 0xEC JUMPI PUSH1 0x0 DUP1 REVERT JUMPDEST POP PUSH2 0xF5 PUSH2 0x1E7 JUMP JUMPDEST PUSH1 0x40 MLOAD PUSH2 0xB7 SWAP2 SWAP1 PUSH2 0x4AF JUMP JUMPDEST CALLVALUE DUP1 ISZERO PUSH2 0x10E JUMPI PUSH1 0x0 DUP1 REVERT JUMPDEST POP PUSH2 0xAA PUSH2 0x203 JUMP JUMPDEST CALLVALUE DUP1 ISZERO PUSH2 0x123 JUMPI PUSH1 0x0 DUP1 REVERT JUMPDEST POP PUSH2 0xF5 PUSH2 0x209 JUMP JUMPDEST PUSH1 0x40 MLOAD PUSH20 0xE9DB8717BC5DFB20AAF538B4A5A02B7791FF430C SWAP1 CALLVALUE DUP1 ISZERO PUSH2 0x8FC MUL SWAP2 PUSH1 0x0 DUP2 DUP2 DUP2 DUP6 DUP9 DUP9 CALL SWAP4 POP POP POP POP ISZERO DUP1 ISZERO PUSH2 0x16C JUMPI RETURNDATASIZE PUSH1 0x0 DUP1 RETURNDATACOPY RETURNDATASIZE PUSH1 0x0 REVERT JUMPDEST POP JUMP JUMPDEST PUSH1 0x0 PUSH2 0x179 PUSH2 0x221 JUMP JUMPDEST PUSH2 0x1A6 PUSH1 0x1 SLOAD PUSH2 0x187 PUSH2 0x279 JUMP JUMPDEST PUSH1 0x0 SLOAD PUSH20 0xFFFFFFFFFFFFFFFFFFFFFFFFFFFFFFFFFFFFFFFF AND DUP6 PUSH2 0x291 JUMP JUMPDEST SWAP1 POP JUMPDEST SWAP2 SWAP1 POP JUMP JUMPDEST PUSH1 0x0 PUSH2 0x1B8 PUSH2 0x221 JUMP JUMPDEST PUSH1 0x1 SLOAD PUSH1 0x0 SLOAD PUSH2 0x1A6 SWAP2 SWAP1 PUSH20 0xFFFFFFFFFFFFFFFFFFFFFFFFFFFFFFFFFFFFFFFF AND PUSH2 0x1E1 PUSH2 0x279 JUMP JUMPDEST DUP6 PUSH2 0x2F2 JUMP JUMPDEST PUSH1 0x0 SLOAD PUSH20 0xFFFFFFFFFFFFFFFFFFFFFFFFFFFFFFFFFFFFFFFF AND DUP2 JUMP JUMPDEST PUSH1 0x1 SLOAD DUP2 JUMP JUMPDEST PUSH20 0xE9DB8717BC5DFB20AAF538B4A5A02B7791FF430C DUP2 JUMP JUMPDEST PUSH20 0xE9DB8717BC5DFB20AAF538B4A5A02B7791FF430C BALANCE ISZERO PUSH2 0x277 JUMPI PUSH1 0x40 MLOAD PUSH32 0x8C379A000000000000000000000000000000000000000000000000000000000 DUP2 MSTORE PUSH1 0x4 ADD PUSH2 0x26E SWAP1 PUSH2 0x4D9 JUMP JUMPDEST PUSH1 0x40 MLOAD DUP1 SWAP2 SUB SWAP1 REVERT JUMPDEST JUMP JUMPDEST PUSH20 0xC02AAA39B223FE8D0A0E5C4F27EAD9083C756CC2 SWAP1 JUMP JUMPDEST PUSH1 0x0 DUP1 PUSH2 0x29D DUP6 PUSH2 0x33E JUMP JUMPDEST PUSH1 0xFF AND PUSH1 0xA EXP SWAP1 POP PUSH1 0x0 PUSH2 0x2B0 DUP6 PUSH2 0x33E JUMP JUMPDEST PUSH1 0xFF AND PUSH1 0xA EXP SWAP1 POP PUSH1 0x0 PUSH2 0x2C5 DUP9 DUP9 DUP9 PUSH2 0x3D0 JUMP JUMPDEST SWAP1 POP DUP2 DUP2 DUP5 PUSH8 0xDE0B6B3A7640000 DUP9 MUL MUL DUP2 PUSH2 0x2DD JUMPI INVALID JUMPDEST DIV DUP2 PUSH2 0x2E5 JUMPI INVALID JUMPDEST DIV SWAP9 SWAP8 POP POP POP POP POP POP POP POP JUMP JUMPDEST PUSH1 0x0 DUP1 PUSH2 0x2FE DUP6 PUSH2 0x33E JUMP JUMPDEST PUSH1 0xFF AND PUSH1 0xA EXP SWAP1 POP PUSH1 0x0 PUSH2 0x311 DUP6 PUSH2 0x33E JUMP JUMPDEST PUSH1 0xFF AND PUSH1 0xA EXP SWAP1 POP PUSH1 0x0 PUSH2 0x326 DUP9 DUP9 DUP9 PUSH2 0x3D0 JUMP JUMPDEST SWAP1 POP PUSH8 0xDE0B6B3A7640000 DUP4 DUP4 DUP4 DUP9 MUL MUL DUP2 PUSH2 0x2DD JUMPI INVALID JUMPDEST PUSH1 0x0 PUSH20 0xFFFFFFFFFFFFFFFFFFFFFFFFFFFFFFFFFFFFFFFF DUP3 AND PUSH20 0xC02AAA39B223FE8D0A0E5C4F27EAD9083C756CC2 EQ ISZERO PUSH2 0x37A JUMPI POP PUSH1 0x12 PUSH2 0x1A9 JUMP JUMPDEST PUSH1 0x0 DUP3 PUSH1 0x40 MLOAD PUSH1 0x20 ADD PUSH2 0x38D SWAP2 SWAP1 PUSH2 0x441 JUMP JUMPDEST PUSH1 0x40 DUP1 MLOAD DUP1 DUP4 SUB PUSH32 0xFFFFFFFFFFFFFFFFFFFFFFFFFFFFFFFFFFFFFFFFFFFFFFFFFFFFFFFFFFFFFFE0 ADD DUP2 MSTORE SWAP2 SWAP1 MSTORE DUP1 MLOAD PUSH1 0x20 SWAP1 SWAP2 ADD KECCAK256 PUSH1 0xF AND PUSH1 0x4 ADD SWAP4 SWAP3 POP POP POP JUMP JUMPDEST PUSH1 0x0 DUP1 DUP5 DUP5 DUP5 PUSH1 0x40 MLOAD PUSH1 0x20 ADD PUSH2 0x3E8 SWAP4 SWAP3 SWAP2 SWAP1 PUSH2 0x471 JUMP JUMPDEST PUSH1 0x40 MLOAD PUSH1 0x20 DUP2 DUP4 SUB SUB DUP2 MSTORE SWAP1 PUSH1 0x40 MSTORE DUP1 MLOAD SWAP1 PUSH1 0x20 ADD KECCAK256 SWAP1 POP PUSH1 0x64 PUSH8 0xDE0B6B3A7640000 DUP2 PUSH2 0x412 JUMPI INVALID JUMPDEST DIV PUSH9 0x56BA3D73AF34F0000 DUP3 MOD ADD SWAP6 SWAP5 POP POP POP POP POP JUMP JUMPDEST PUSH1 0x0 PUSH1 0x20 DUP3 DUP5 SUB SLT ISZERO PUSH2 0x43A JUMPI DUP1 DUP2 REVERT JUMPDEST POP CALLDATALOAD SWAP2 SWAP1 POP JUMP JUMPDEST PUSH1 0x60 SWAP2 SWAP1 SWAP2 SHL PUSH32 0xFFFFFFFFFFFFFFFFFFFFFFFFFFFFFFFFFFFFFFFF000000000000000000000000 AND DUP2 MSTORE PUSH1 0x14 ADD SWAP1 JUMP JUMPDEST SWAP3 DUP4 MSTORE PUSH32 0xFFFFFFFFFFFFFFFFFFFFFFFFFFFFFFFFFFFFFFFF000000000000000000000000 PUSH1 0x60 SWAP3 DUP4 SHL DUP2 AND PUSH1 0x20 DUP6 ADD MSTORE SWAP2 SHL AND PUSH1 0x34 DUP3 ADD MSTORE PUSH1 0x48 ADD SWAP1 JUMP JUMPDEST PUSH20 0xFFFFFFFFFFFFFFFFFFFFFFFFFFFFFFFFFFFFFFFF SWAP2 SWAP1 SWAP2 AND DUP2 MSTORE PUSH1 0x20 ADD SWAP1 JUMP JUMPDEST SWAP1 DUP2 MSTORE PUSH1 0x20 ADD SWAP1 JUMP JUMPDEST PUSH1 0x20 DUP1 DUP3 MSTORE PUSH1 0xE SWAP1 DUP3 ADD MSTORE PUSH32 0x4641494C5F545249474745524544000000000000000000000000000000000000 PUSH1 0x40 DUP3 ADD MSTORE PUSH1 0x60 ADD SWAP1 JUMP INVALID LOG3 PUSH6 0x627A7A723158 KECCAK256 EQ SDIV 0xB4 0xA9 0xB1 POP JUMPDEST SWAP8 SLOAD RETURNDATASIZE 0xD6 AND 0xCD PUSH23 0xD69501AD84A6C6B4BDD468D9900E1E51837B6C65787065 PUSH19 0x696D656E74616CF564736F6C63430005110040 LOG3 PUSH6 0x627A7A723158 KECCAK256 EXTCODECOPY XOR 0x4C 0xE5 0xCE 0xD5 0x5D COINBASE SIGNEXTEND BYTE MOD 0xD SWAP9 0xB6 JUMPI SELFDESTRUCT EXTCODEHASH MOD 0x4C PUSH12 0x3F34FEDA1BCBF70F1E4F9E33 PUSH13 0x6578706572696D656E74616CF5 PUSH5 0x736F6C6343 STOP SDIV GT STOP BLOCKHASH PUSH1 0x80 PUSH1 0x40 MSTORE CALLVALUE DUP1 ISZERO PUSH2 0x10 JUMPI PUSH1 0x0 DUP1 REVERT JUMPDEST POP PUSH2 0x846 DUP1 PUSH2 0x20 PUSH1 0x0 CODECOPY PUSH1 0x0 RETURN INVALID PUSH1 0x80 PUSH1 0x40 MSTORE PUSH1 0x4 CALLDATASIZE LT PUSH2 0x3F JUMPI PUSH1 0x0 CALLDATALOAD PUSH1 0xE0 SHR DUP1 PUSH4 0x11F2928B EQ PUSH2 0x44 JUMPI DUP1 PUSH4 0x1F00CA74 EQ PUSH2 0x4E JUMPI DUP1 PUSH4 0xCD72D789 EQ PUSH2 0x84 JUMPI DUP1 PUSH4 0xD06CA61F EQ PUSH2 0xA6 JUMPI JUMPDEST PUSH1 0x0 DUP1 REVERT JUMPDEST PUSH2 0x4C PUSH2 0xC6 JUMP JUMPDEST STOP JUMPDEST CALLVALUE DUP1 ISZERO PUSH2 0x5A JUMPI PUSH1 0x0 DUP1 REVERT JUMPDEST POP PUSH2 0x6E PUSH2 0x69 CALLDATASIZE PUSH1 0x4 PUSH2 0x64C JUMP JUMPDEST PUSH2 0x109 JUMP JUMPDEST PUSH1 0x40 MLOAD PUSH2 0x7B SWAP2 SWAP1 PUSH2 0x752 JUMP JUMPDEST PUSH1 0x40 MLOAD DUP1 SWAP2 SUB SWAP1 RETURN JUMPDEST CALLVALUE DUP1 ISZERO PUSH2 0x90 JUMPI PUSH1 0x0 DUP1 REVERT JUMPDEST POP PUSH2 0x99 PUSH2 0x2B5 JUMP JUMPDEST PUSH1 0x40 MLOAD PUSH2 0x7B SWAP2 SWAP1 PUSH2 0x731 JUMP JUMPDEST CALLVALUE DUP1 ISZERO PUSH2 0xB2 JUMPI PUSH1 0x0 DUP1 REVERT JUMPDEST POP PUSH2 0x6E PUSH2 0xC1 CALLDATASIZE PUSH1 0x4 PUSH2 0x64C JUMP JUMPDEST PUSH2 0x2CD JUMP JUMPDEST PUSH1 0x40 MLOAD PUSH20 0xE9DB8717BC5DFB20AAF538B4A5A02B7791FF430C SWAP1 CALLVALUE DUP1 ISZERO PUSH2 0x8FC MUL SWAP2 PUSH1 0x0 DUP2 DUP2 DUP2 DUP6 DUP9 DUP9 CALL SWAP4 POP POP POP POP ISZERO DUP1 ISZERO PUSH2 0x106 JUMPI RETURNDATASIZE PUSH1 0x0 DUP1 RETURNDATACOPY RETURNDATASIZE PUSH1 0x0 REVERT JUMPDEST POP JUMP JUMPDEST PUSH1 0x60 PUSH1 0x2 DUP3 LT ISZERO PUSH2 0x14F JUMPI PUSH1 0x40 MLOAD PUSH32 0x8C379A000000000000000000000000000000000000000000000000000000000 DUP2 MSTORE PUSH1 0x4 ADD PUSH2 0x146 SWAP1 PUSH2 0x7CC JUMP JUMPDEST PUSH1 0x40 MLOAD DUP1 SWAP2 SUB SWAP1 REVERT JUMPDEST PUSH2 0x157 PUSH2 0x428 JUMP JUMPDEST PUSH1 0x40 DUP1 MLOAD DUP4 DUP2 MSTORE PUSH1 0x20 DUP1 DUP6 MUL DUP3 ADD ADD SWAP1 SWAP2 MSTORE DUP3 DUP1 ISZERO PUSH2 0x180 JUMPI DUP2 PUSH1 0x20 ADD PUSH1 0x20 DUP3 MUL DUP1 CODESIZE DUP4 CODECOPY ADD SWAP1 POP JUMPDEST POP SWAP1 POP DUP4 DUP2 PUSH1 0x1 DUP6 DUP6 SWAP1 POP SUB DUP2 MLOAD DUP2 LT PUSH2 0x196 JUMPI INVALID JUMPDEST PUSH1 0x20 SWAP1 DUP2 MUL SWAP2 SWAP1 SWAP2 ADD ADD MSTORE PUSH32 0xFFFFFFFFFFFFFFFFFFFFFFFFFFFFFFFFFFFFFFFFFFFFFFFFFFFFFFFFFFFFFFFF DUP3 ADD JUMPDEST DUP1 ISZERO PUSH2 0x2AD JUMPI PUSH2 0x26C PUSH32 0xADC7FCB33C735913B8635927E66896B356A53A912AB2CEFF929E60A04B53B3C1 DUP6 DUP6 PUSH32 0xFFFFFFFFFFFFFFFFFFFFFFFFFFFFFFFFFFFFFFFFFFFFFFFFFFFFFFFFFFFFFFFF DUP6 ADD DUP2 DUP2 LT PUSH2 0x21D JUMPI INVALID JUMPDEST SWAP1 POP PUSH1 0x20 MUL ADD PUSH1 0x20 PUSH2 0x232 SWAP2 SWAP1 DUP2 ADD SWAP1 PUSH2 0x611 JUMP JUMPDEST DUP7 DUP7 DUP6 DUP2 DUP2 LT PUSH2 0x23E JUMPI INVALID JUMPDEST SWAP1 POP PUSH1 0x20 MUL ADD PUSH1 0x20 PUSH2 0x253 SWAP2 SWAP1 DUP2 ADD SWAP1 PUSH2 0x611 JUMP JUMPDEST DUP6 DUP6 DUP2 MLOAD DUP2 LT PUSH2 0x25F JUMPI INVALID JUMPDEST PUSH1 0x20 MUL PUSH1 0x20 ADD ADD MLOAD PUSH2 0x477 JUMP JUMPDEST DUP3 PUSH1 0x1 DUP4 SUB DUP2 MLOAD DUP2 LT PUSH2 0x27B JUMPI INVALID JUMPDEST PUSH1 0x20 SWAP1 DUP2 MUL SWAP2 SWAP1 SWAP2 ADD ADD MSTORE PUSH32 0xFFFFFFFFFFFFFFFFFFFFFFFFFFFFFFFFFFFFFFFFFFFFFFFFFFFFFFFFFFFFFFFF ADD PUSH2 0x1C5 JUMP JUMPDEST POP SWAP4 SWAP3 POP POP POP JUMP JUMPDEST PUSH20 0xE9DB8717BC5DFB20AAF538B4A5A02B7791FF430C DUP2 JUMP JUMPDEST PUSH1 0x60 PUSH1 0x2 DUP3 LT ISZERO PUSH2 0x30A JUMPI PUSH1 0x40 MLOAD PUSH32 0x8C379A000000000000000000000000000000000000000000000000000000000 DUP2 MSTORE PUSH1 0x4 ADD PUSH2 0x146 SWAP1 PUSH2 0x7CC JUMP JUMPDEST PUSH2 0x312 PUSH2 0x428 JUMP JUMPDEST PUSH1 0x40 DUP1 MLOAD DUP4 DUP2 MSTORE PUSH1 0x20 DUP1 DUP6 MUL DUP3 ADD ADD SWAP1 SWAP2 MSTORE DUP3 DUP1 ISZERO PUSH2 0x33B JUMPI DUP2 PUSH1 0x20 ADD PUSH1 0x20 DUP3 MUL DUP1 CODESIZE DUP4 CODECOPY ADD SWAP1 POP JUMPDEST POP SWAP1 POP DUP4 DUP2 PUSH1 0x0 DUP2 MLOAD DUP2 LT PUSH2 0x34C JUMPI INVALID JUMPDEST PUSH1 0x20 SWAP1 DUP2 MUL SWAP2 SWAP1 SWAP2 ADD ADD MSTORE PUSH1 0x0 JUMPDEST PUSH32 0xFFFFFFFFFFFFFFFFFFFFFFFFFFFFFFFFFFFFFFFFFFFFFFFFFFFFFFFFFFFFFFFF DUP4 ADD DUP2 LT ISZERO PUSH2 0x2AD JUMPI PUSH2 0x406 PUSH32 0xADC7FCB33C735913B8635927E66896B356A53A912AB2CEFF929E60A04B53B3C1 DUP6 DUP6 DUP5 DUP2 DUP2 LT PUSH2 0x3B4 JUMPI INVALID JUMPDEST SWAP1 POP PUSH1 0x20 MUL ADD PUSH1 0x20 PUSH2 0x3C9 SWAP2 SWAP1 DUP2 ADD SWAP1 PUSH2 0x611 JUMP JUMPDEST DUP7 DUP7 DUP6 PUSH1 0x1 ADD DUP2 DUP2 LT PUSH2 0x3D8 JUMPI INVALID JUMPDEST SWAP1 POP PUSH1 0x20 MUL ADD PUSH1 0x20 PUSH2 0x3ED SWAP2 SWAP1 DUP2 ADD SWAP1 PUSH2 0x611 JUMP JUMPDEST DUP6 DUP6 DUP2 MLOAD DUP2 LT PUSH2 0x3F9 JUMPI INVALID JUMPDEST PUSH1 0x20 MUL PUSH1 0x20 ADD ADD MLOAD PUSH2 0x4D8 JUMP JUMPDEST DUP3 DUP3 PUSH1 0x1 ADD DUP2 MLOAD DUP2 LT PUSH2 0x415 JUMPI INVALID JUMPDEST PUSH1 0x20 SWAP1 DUP2 MUL SWAP2 SWAP1 SWAP2 ADD ADD MSTORE PUSH1 0x1 ADD PUSH2 0x35A JUMP JUMPDEST PUSH20 0xE9DB8717BC5DFB20AAF538B4A5A02B7791FF430C BALANCE ISZERO PUSH2 0x475 JUMPI PUSH1 0x40 MLOAD PUSH32 0x8C379A000000000000000000000000000000000000000000000000000000000 DUP2 MSTORE PUSH1 0x4 ADD PUSH2 0x146 SWAP1 PUSH2 0x795 JUMP JUMPDEST JUMP JUMPDEST PUSH1 0x0 DUP1 PUSH2 0x483 DUP6 PUSH2 0x524 JUMP JUMPDEST PUSH1 0xFF AND PUSH1 0xA EXP SWAP1 POP PUSH1 0x0 PUSH2 0x496 DUP6 PUSH2 0x524 JUMP JUMPDEST PUSH1 0xFF AND PUSH1 0xA EXP SWAP1 POP PUSH1 0x0 PUSH2 0x4AB DUP9 DUP9 DUP9 PUSH2 0x5B8 JUMP JUMPDEST SWAP1 POP DUP2 DUP2 DUP5 PUSH8 0xDE0B6B3A7640000 DUP9 MUL MUL DUP2 PUSH2 0x4C3 JUMPI INVALID JUMPDEST DIV DUP2 PUSH2 0x4CB JUMPI INVALID JUMPDEST DIV SWAP9 SWAP8 POP POP POP POP POP POP POP POP JUMP JUMPDEST PUSH1 0x0 DUP1 PUSH2 0x4E4 DUP6 PUSH2 0x524 JUMP JUMPDEST PUSH1 0xFF AND PUSH1 0xA EXP SWAP1 POP PUSH1 0x0 PUSH2 0x4F7 DUP6 PUSH2 0x524 JUMP JUMPDEST PUSH1 0xFF AND PUSH1 0xA EXP SWAP1 POP PUSH1 0x0 PUSH2 0x50C DUP9 DUP9 DUP9 PUSH2 0x5B8 JUMP JUMPDEST SWAP1 POP PUSH8 0xDE0B6B3A7640000 DUP4 DUP4 DUP4 DUP9 MUL MUL DUP2 PUSH2 0x4C3 JUMPI INVALID JUMPDEST PUSH1 0x0 PUSH20 0xFFFFFFFFFFFFFFFFFFFFFFFFFFFFFFFFFFFFFFFF DUP3 AND PUSH20 0xC02AAA39B223FE8D0A0E5C4F27EAD9083C756CC2 EQ ISZERO PUSH2 0x560 JUMPI POP PUSH1 0x12 PUSH2 0x5B3 JUMP JUMPDEST PUSH1 0x0 DUP3 PUSH1 0x40 MLOAD PUSH1 0x20 ADD PUSH2 0x573 SWAP2 SWAP1 PUSH2 0x6C3 JUMP JUMPDEST PUSH1 0x40 DUP1 MLOAD DUP1 DUP4 SUB PUSH32 0xFFFFFFFFFFFFFFFFFFFFFFFFFFFFFFFFFFFFFFFFFFFFFFFFFFFFFFFFFFFFFFE0 ADD DUP2 MSTORE SWAP2 SWAP1 MSTORE DUP1 MLOAD PUSH1 0x20 SWAP1 SWAP2 ADD KECCAK256 PUSH1 0xF AND PUSH1 0x4 ADD SWAP2 POP POP JUMPDEST SWAP2 SWAP1 POP JUMP JUMPDEST PUSH1 0x0 DUP1 DUP5 DUP5 DUP5 PUSH1 0x40 MLOAD PUSH1 0x20 ADD PUSH2 0x5D0 SWAP4 SWAP3 SWAP2 SWAP1 PUSH2 0x6F3 JUMP JUMPDEST PUSH1 0x40 MLOAD PUSH1 0x20 DUP2 DUP4 SUB SUB DUP2 MSTORE SWAP1 PUSH1 0x40 MSTORE DUP1 MLOAD SWAP1 PUSH1 0x20 ADD KECCAK256 SWAP1 POP PUSH1 0x64 PUSH8 0xDE0B6B3A7640000 DUP2 PUSH2 0x5FA JUMPI INVALID JUMPDEST DIV PUSH9 0x56BA3D73AF34F0000 DUP3 MOD ADD SWAP6 SWAP5 POP POP POP POP POP JUMP JUMPDEST PUSH1 0x0 PUSH1 0x20 DUP3 DUP5 SUB SLT ISZERO PUSH2 0x622 JUMPI DUP1 DUP2 REVERT JUMPDEST DUP2 CALLDATALOAD PUSH20 0xFFFFFFFFFFFFFFFFFFFFFFFFFFFFFFFFFFFFFFFF DUP2 AND DUP2 EQ PUSH2 0x645 JUMPI DUP2 DUP3 REVERT JUMPDEST SWAP4 SWAP3 POP POP POP JUMP JUMPDEST PUSH1 0x0 DUP1 PUSH1 0x0 PUSH1 0x40 DUP5 DUP7 SUB SLT ISZERO PUSH2 0x660 JUMPI DUP2 DUP3 REVERT JUMPDEST DUP4 CALLDATALOAD SWAP3 POP PUSH1 0x20 DUP5 ADD CALLDATALOAD PUSH8 0xFFFFFFFFFFFFFFFF DUP1 DUP3 GT ISZERO PUSH2 0x67E JUMPI DUP4 DUP5 REVERT JUMPDEST DUP2 DUP7 ADD DUP8 PUSH1 0x1F DUP3 ADD SLT PUSH2 0x68F JUMPI DUP5 DUP6 REVERT JUMPDEST DUP1 CALLDATALOAD SWAP3 POP DUP2 DUP4 GT ISZERO PUSH2 0x69F JUMPI DUP5 DUP6 REVERT JUMPDEST DUP8 PUSH1 0x20 DUP1 DUP6 MUL DUP4 ADD ADD GT ISZERO PUSH2 0x6B2 JUMPI DUP5 DUP6 REVERT JUMPDEST SWAP5 SWAP8 PUSH1 0x20 SWAP1 SWAP6 ADD SWAP7 POP SWAP1 SWAP5 POP POP POP POP JUMP JUMPDEST PUSH1 0x60 SWAP2 SWAP1 SWAP2 SHL PUSH32 0xFFFFFFFFFFFFFFFFFFFFFFFFFFFFFFFFFFFFFFFF000000000000000000000000 AND DUP2 MSTORE PUSH1 0x14 ADD SWAP1 JUMP JUMPDEST SWAP3 DUP4 MSTORE PUSH32 0xFFFFFFFFFFFFFFFFFFFFFFFFFFFFFFFFFFFFFFFF000000000000000000000000 PUSH1 0x60 SWAP3 DUP4 SHL DUP2 AND PUSH1 0x20 DUP6 ADD MSTORE SWAP2 SHL AND PUSH1 0x34 DUP3 ADD MSTORE PUSH1 0x48 ADD SWAP1 JUMP JUMPDEST PUSH20 0xFFFFFFFFFFFFFFFFFFFFFFFFFFFFFFFFFFFFFFFF SWAP2 SWAP1 SWAP2 AND DUP2 MSTORE PUSH1 0x20 ADD SWAP1 JUMP JUMPDEST PUSH1 0x20 DUP1 DUP3 MSTORE DUP3 MLOAD DUP3 DUP3 ADD DUP2 SWAP1 MSTORE PUSH1 0x0 SWAP2 DUP5 ADD SWAP1 PUSH1 0x40 DUP5 ADD SWAP1 DUP4 JUMPDEST DUP2 DUP2 LT ISZERO PUSH2 0x78A JUMPI DUP4 MLOAD DUP4 MSTORE PUSH1 0x20 SWAP4 DUP5 ADD SWAP4 SWAP1 SWAP3 ADD SWAP2 PUSH1 0x1 ADD PUSH2 0x76C JUMP JUMPDEST POP SWAP1 SWAP6 SWAP5 POP POP POP POP POP JUMP JUMPDEST PUSH1 0x20 DUP1 DUP3 MSTORE PUSH1 0xE SWAP1 DUP3 ADD MSTORE PUSH32 0x4641494C5F545249474745524544000000000000000000000000000000000000 PUSH1 0x40 DUP3 ADD MSTORE PUSH1 0x60 ADD SWAP1 JUMP JUMPDEST PUSH1 0x20 DUP1 DUP3 MSTORE PUSH1 0xE SWAP1 DUP3 ADD MSTORE PUSH32 0x504154485F544F4F5F53484F5254000000000000000000000000000000000000 PUSH1 0x40 DUP3 ADD MSTORE PUSH1 0x60 ADD SWAP1 JUMP INVALID LOG3 PUSH6 0x627A7A723158 KECCAK256 0x29 0xC0 SAR EXTCODESIZE STATICCALL DUP10 0xC3 MSIZE 0xD8 PUSH24 0x9AE0B1E2CF7225CA7BF667F8D0286905AD33159086BD6C65 PUSH25 0x706572696D656E74616CF564736F6C63430005110040608060 BLOCKHASH MSTORE CALLVALUE DUP1 ISZERO PUSH2 0x10 JUMPI PUSH1 0x0 DUP1 REVERT JUMPDEST POP PUSH2 0x4FB DUP1 PUSH2 0x20 PUSH1 0x0 CODECOPY PUSH1 0x0 RETURN INVALID PUSH1 0x80 PUSH1 0x40 MSTORE PUSH1 0x4 CALLDATASIZE LT PUSH2 0x3F JUMPI PUSH1 0x0 CALLDATALOAD PUSH1 0xE0 SHR DUP1 PUSH4 0x11F2928B EQ PUSH2 0x44 JUMPI DUP1 PUSH4 0x144A2752 EQ PUSH2 0x4E JUMPI DUP1 PUSH4 0xCD72D789 EQ PUSH2 0x84 JUMPI DUP1 PUSH4 0xFF1FD974 EQ PUSH2 0xA6 JUMPI JUMPDEST PUSH1 0x0 DUP1 REVERT JUMPDEST PUSH2 0x4C PUSH2 0xC6 JUMP JUMPDEST STOP JUMPDEST CALLVALUE DUP1 ISZERO PUSH2 0x5A JUMPI PUSH1 0x0 DUP1 REVERT JUMPDEST POP PUSH2 0x6E PUSH2 0x69 CALLDATASIZE PUSH1 0x4 PUSH2 0x387 JUMP JUMPDEST PUSH2 0x109 JUMP JUMPDEST PUSH1 0x40 MLOAD PUSH2 0x7B SWAP2 SWAP1 PUSH2 0x48D JUMP JUMPDEST PUSH1 0x40 MLOAD DUP1 SWAP2 SUB SWAP1 RETURN JUMPDEST CALLVALUE DUP1 ISZERO PUSH2 0x90 JUMPI PUSH1 0x0 DUP1 REVERT JUMPDEST POP PUSH2 0x99 PUSH2 0x147 JUMP JUMPDEST PUSH1 0x40 MLOAD PUSH2 0x7B SWAP2 SWAP1 PUSH2 0x435 JUMP JUMPDEST CALLVALUE DUP1 ISZERO PUSH2 0xB2 JUMPI PUSH1 0x0 DUP1 REVERT JUMPDEST POP PUSH2 0x6E PUSH2 0xC1 CALLDATASIZE PUSH1 0x4 PUSH2 0x387 JUMP JUMPDEST PUSH2 0x15F JUMP JUMPDEST PUSH1 0x40 MLOAD PUSH20 0xE9DB8717BC5DFB20AAF538B4A5A02B7791FF430C SWAP1 CALLVALUE DUP1 ISZERO PUSH2 0x8FC MUL SWAP2 PUSH1 0x0 DUP2 DUP2 DUP2 DUP6 DUP9 DUP9 CALL SWAP4 POP POP POP POP ISZERO DUP1 ISZERO PUSH2 0x106 JUMPI RETURNDATASIZE PUSH1 0x0 DUP1 RETURNDATACOPY RETURNDATASIZE PUSH1 0x0 REVERT JUMPDEST POP JUMP JUMPDEST PUSH1 0x0 PUSH2 0x113 PUSH2 0x195 JUMP JUMPDEST PUSH2 0x13F PUSH32 0xB713B61BB9BB2958A0F5D1534B21E94FC68C4C0C034B0902ED844F2F6CD1B4F7 DUP5 DUP7 DUP6 PUSH2 0x1ED JUMP JUMPDEST SWAP5 SWAP4 POP POP POP POP JUMP JUMPDEST PUSH20 0xE9DB8717BC5DFB20AAF538B4A5A02B7791FF430C DUP2 JUMP JUMPDEST PUSH1 0x0 PUSH2 0x169 PUSH2 0x195 JUMP JUMPDEST PUSH2 0x13F PUSH32 0xB713B61BB9BB2958A0F5D1534B21E94FC68C4C0C034B0902ED844F2F6CD1B4F7 DUP6 DUP6 DUP6 PUSH2 0x24E JUMP JUMPDEST PUSH20 0xE9DB8717BC5DFB20AAF538B4A5A02B7791FF430C BALANCE ISZERO PUSH2 0x1EB JUMPI PUSH1 0x40 MLOAD PUSH32 0x8C379A000000000000000000000000000000000000000000000000000000000 DUP2 MSTORE PUSH1 0x4 ADD PUSH2 0x1E2 SWAP1 PUSH2 0x456 JUMP JUMPDEST PUSH1 0x40 MLOAD DUP1 SWAP2 SUB SWAP1 REVERT JUMPDEST JUMP JUMPDEST PUSH1 0x0 DUP1 PUSH2 0x1F9 DUP6 PUSH2 0x29A JUMP JUMPDEST PUSH1 0xFF AND PUSH1 0xA EXP SWAP1 POP PUSH1 0x0 PUSH2 0x20C DUP6 PUSH2 0x29A JUMP JUMPDEST PUSH1 0xFF AND PUSH1 0xA EXP SWAP1 POP PUSH1 0x0 PUSH2 0x221 DUP9 DUP9 DUP9 PUSH2 0x32E JUMP JUMPDEST SWAP1 POP PUSH8 0xDE0B6B3A7640000 DUP4 DUP4 DUP4 DUP9 MUL MUL DUP2 PUSH2 0x239 JUMPI INVALID JUMPDEST DIV DUP2 PUSH2 0x241 JUMPI INVALID JUMPDEST DIV SWAP9 SWAP8 POP POP POP POP POP POP POP POP JUMP JUMPDEST PUSH1 0x0 DUP1 PUSH2 0x25A DUP6 PUSH2 0x29A JUMP JUMPDEST PUSH1 0xFF AND PUSH1 0xA EXP SWAP1 POP PUSH1 0x0 PUSH2 0x26D DUP6 PUSH2 0x29A JUMP JUMPDEST PUSH1 0xFF AND PUSH1 0xA EXP SWAP1 POP PUSH1 0x0 PUSH2 0x282 DUP9 DUP9 DUP9 PUSH2 0x32E JUMP JUMPDEST SWAP1 POP DUP2 DUP2 DUP5 PUSH8 0xDE0B6B3A7640000 DUP9 MUL MUL DUP2 PUSH2 0x239 JUMPI INVALID JUMPDEST PUSH1 0x0 PUSH20 0xFFFFFFFFFFFFFFFFFFFFFFFFFFFFFFFFFFFFFFFF DUP3 AND PUSH20 0xC02AAA39B223FE8D0A0E5C4F27EAD9083C756CC2 EQ ISZERO PUSH2 0x2D6 JUMPI POP PUSH1 0x12 PUSH2 0x329 JUMP JUMPDEST PUSH1 0x0 DUP3 PUSH1 0x40 MLOAD PUSH1 0x20 ADD PUSH2 0x2E9 SWAP2 SWAP1 PUSH2 0x3C7 JUMP JUMPDEST PUSH1 0x40 DUP1 MLOAD DUP1 DUP4 SUB PUSH32 0xFFFFFFFFFFFFFFFFFFFFFFFFFFFFFFFFFFFFFFFFFFFFFFFFFFFFFFFFFFFFFFE0 ADD DUP2 MSTORE SWAP2 SWAP1 MSTORE DUP1 MLOAD PUSH1 0x20 SWAP1 SWAP2 ADD KECCAK256 PUSH1 0xF AND PUSH1 0x4 ADD SWAP2 POP POP JUMPDEST SWAP2 SWAP1 POP JUMP JUMPDEST PUSH1 0x0 DUP1 DUP5 DUP5 DUP5 PUSH1 0x40 MLOAD PUSH1 0x20 ADD PUSH2 0x346 SWAP4 SWAP3 SWAP2 SWAP1 PUSH2 0x3F7 JUMP JUMPDEST PUSH1 0x40 MLOAD PUSH1 0x20 DUP2 DUP4 SUB SUB DUP2 MSTORE SWAP1 PUSH1 0x40 MSTORE DUP1 MLOAD SWAP1 PUSH1 0x20 ADD KECCAK256 SWAP1 POP PUSH1 0x64 PUSH8 0xDE0B6B3A7640000 DUP2 PUSH2 0x370 JUMPI INVALID JUMPDEST DIV PUSH9 0x56BA3D73AF34F0000 DUP3 MOD ADD SWAP6 SWAP5 POP POP POP POP POP JUMP JUMPDEST PUSH1 0x0 DUP1 PUSH1 0x0 PUSH1 0x60 DUP5 DUP7 SUB SLT ISZERO PUSH2 0x39B JUMPI DUP3 DUP4 REVERT JUMPDEST DUP4 CALLDATALOAD PUSH2 0x3A6 DUP2 PUSH2 0x496 JUMP JUMPDEST SWAP3 POP PUSH1 0x20 DUP5 ADD CALLDATALOAD PUSH2 0x3B6 DUP2 PUSH2 0x496 JUMP JUMPDEST SWAP3 SWAP6 SWAP3 SWAP5 POP POP POP PUSH1 0x40 SWAP2 SWAP1 SWAP2 ADD CALLDATALOAD SWAP1 JUMP JUMPDEST PUSH1 0x60 SWAP2 SWAP1 SWAP2 SHL PUSH32 0xFFFFFFFFFFFFFFFFFFFFFFFFFFFFFFFFFFFFFFFF000000000000000000000000 AND DUP2 MSTORE PUSH1 0x14 ADD SWAP1 JUMP JUMPDEST SWAP3 DUP4 MSTORE PUSH32 0xFFFFFFFFFFFFFFFFFFFFFFFFFFFFFFFFFFFFFFFF000000000000000000000000 PUSH1 0x60 SWAP3 DUP4 SHL DUP2 AND PUSH1 0x20 DUP6 ADD MSTORE SWAP2 SHL AND PUSH1 0x34 DUP3 ADD MSTORE PUSH1 0x48 ADD SWAP1 JUMP JUMPDEST PUSH20 0xFFFFFFFFFFFFFFFFFFFFFFFFFFFFFFFFFFFFFFFF SWAP2 SWAP1 SWAP2 AND DUP2 MSTORE PUSH1 0x20 ADD SWAP1 JUMP JUMPDEST PUSH1 0x20 DUP1 DUP3 MSTORE PUSH1 0xE SWAP1 DUP3 ADD MSTORE PUSH32 0x4641494C5F545249474745524544000000000000000000000000000000000000 PUSH1 0x40 DUP3 ADD MSTORE PUSH1 0x60 ADD SWAP1 JUMP JUMPDEST SWAP1 DUP2 MSTORE PUSH1 0x20 ADD SWAP1 JUMP JUMPDEST PUSH20 0xFFFFFFFFFFFFFFFFFFFFFFFFFFFFFFFFFFFFFFFF DUP2 AND DUP2 EQ PUSH2 0x106 JUMPI PUSH1 0x0 DUP1 REVERT INVALID LOG3 PUSH6 0x627A7A723158 KECCAK256 0x5F 0xBF POP 0xED SWAP4 MULMOD 0xE7 0xA9 XOR ADD 0x48 PUSH17 0xF9ECC846CD8F09A4FC1C269AA7CE6806E1 ADDRESS EXP SMOD PUSH13 0x6578706572696D656E74616CF5 PUSH5 0x736F6C6343 STOP SDIV GT STOP BLOCKHASH PUSH1 0x80 PUSH1 0x40 MSTORE CALLVALUE DUP1 ISZERO PUSH2 0x10 JUMPI PUSH1 0x0 DUP1 REVERT JUMPDEST POP PUSH2 0x967 DUP1 PUSH2 0x20 PUSH1 0x0 CODECOPY PUSH1 0x0 RETURN INVALID PUSH1 0x80 PUSH1 0x40 MSTORE PUSH1 0x4 CALLDATASIZE LT PUSH2 0xBC JUMPI PUSH1 0x0 CALLDATALOAD PUSH1 0xE0 SHR DUP1 PUSH4 0x809A9E55 GT PUSH2 0x74 JUMPI DUP1 PUSH4 0xB78B842D GT PUSH2 0x4E JUMPI DUP1 PUSH4 0xB78B842D EQ PUSH2 0x1CB JUMPI DUP1 PUSH4 0xC3A2A93A EQ PUSH2 0x1E0 JUMPI DUP1 PUSH4 0xCD72D789 EQ PUSH2 0x207 JUMPI PUSH2 0xBC JUMP JUMPDEST DUP1 PUSH4 0x809A9E55 EQ PUSH2 0x17B JUMPI DUP1 PUSH4 0x81EFCBDD EQ PUSH2 0x14E JUMPI DUP1 PUSH4 0xA734F06E EQ PUSH2 0x1A9 JUMPI PUSH2 0xBC JUMP JUMPDEST DUP1 PUSH4 0x3D3DC52C GT PUSH2 0xA5 JUMPI DUP1 PUSH4 0x3D3DC52C EQ PUSH2 0x101 JUMPI DUP1 PUSH4 0x418436BC EQ PUSH2 0x12E JUMPI DUP1 PUSH4 0x61E597F9 EQ PUSH2 0x14E JUMPI PUSH2 0xBC JUMP JUMPDEST DUP1 PUSH4 0x106E9A4B EQ PUSH2 0xC1 JUMPI DUP1 PUSH4 0x11F2928B EQ PUSH2 0xF7 JUMPI JUMPDEST PUSH1 0x0 DUP1 REVERT JUMPDEST CALLVALUE DUP1 ISZERO PUSH2 0xCD JUMPI PUSH1 0x0 DUP1 REVERT JUMPDEST POP PUSH2 0xE1 PUSH2 0xDC CALLDATASIZE PUSH1 0x4 PUSH2 0x57B JUMP JUMPDEST PUSH2 0x21C JUMP JUMPDEST PUSH1 0x40 MLOAD PUSH2 0xEE SWAP2 SWAP1 PUSH2 0x843 JUMP JUMPDEST PUSH1 0x40 MLOAD DUP1 SWAP2 SUB SWAP1 RETURN JUMPDEST PUSH2 0xFF PUSH2 0x222 JUMP JUMPDEST STOP JUMPDEST CALLVALUE DUP1 ISZERO PUSH2 0x10D JUMPI PUSH1 0x0 DUP1 REVERT JUMPDEST POP PUSH2 0x121 PUSH2 0x11C CALLDATASIZE PUSH1 0x4 PUSH2 0x57B JUMP JUMPDEST PUSH2 0x265 JUMP JUMPDEST PUSH1 0x40 MLOAD PUSH2 0xEE SWAP2 SWAP1 PUSH2 0x800 JUMP JUMPDEST CALLVALUE DUP1 ISZERO PUSH2 0x13A JUMPI PUSH1 0x0 DUP1 REVERT JUMPDEST POP PUSH2 0xE1 PUSH2 0x149 CALLDATASIZE PUSH1 0x4 PUSH2 0x5DD JUMP JUMPDEST PUSH2 0x26B JUMP JUMPDEST CALLVALUE DUP1 ISZERO PUSH2 0x15A JUMPI PUSH1 0x0 DUP1 REVERT JUMPDEST POP PUSH2 0x16E PUSH2 0x169 CALLDATASIZE PUSH1 0x4 PUSH2 0x681 JUMP JUMPDEST PUSH2 0x32D JUMP JUMPDEST PUSH1 0x40 MLOAD PUSH2 0xEE SWAP2 SWAP1 PUSH2 0x84C JUMP JUMPDEST CALLVALUE DUP1 ISZERO PUSH2 0x187 JUMPI PUSH1 0x0 DUP1 REVERT JUMPDEST POP PUSH2 0x19B PUSH2 0x196 CALLDATASIZE PUSH1 0x4 PUSH2 0x59D JUMP JUMPDEST PUSH2 0x339 JUMP JUMPDEST PUSH1 0x40 MLOAD PUSH2 0xEE SWAP3 SWAP2 SWAP1 PUSH2 0x8F4 JUMP JUMPDEST CALLVALUE DUP1 ISZERO PUSH2 0x1B5 JUMPI PUSH1 0x0 DUP1 REVERT JUMPDEST POP PUSH2 0x1BE PUSH2 0x3FB JUMP JUMPDEST PUSH1 0x40 MLOAD PUSH2 0xEE SWAP2 SWAP1 PUSH2 0x753 JUMP JUMPDEST CALLVALUE DUP1 ISZERO PUSH2 0x1D7 JUMPI PUSH1 0x0 DUP1 REVERT JUMPDEST POP PUSH2 0x1BE PUSH2 0x413 JUMP JUMPDEST CALLVALUE DUP1 ISZERO PUSH2 0x1EC JUMPI PUSH1 0x0 DUP1 REVERT JUMPDEST POP PUSH2 0x1F5 PUSH2 0x417 JUMP JUMPDEST PUSH1 0x40 MLOAD PUSH2 0xEE SWAP7 SWAP6 SWAP5 SWAP4 SWAP3 SWAP2 SWAP1 PUSH2 0x774 JUMP JUMPDEST CALLVALUE DUP1 ISZERO PUSH2 0x213 JUMPI PUSH1 0x0 DUP1 REVERT JUMPDEST POP PUSH2 0x1BE PUSH2 0x427 JUMP JUMPDEST POP PUSH1 0x0 SWAP1 JUMP JUMPDEST PUSH1 0x40 MLOAD PUSH20 0xE9DB8717BC5DFB20AAF538B4A5A02B7791FF430C SWAP1 CALLVALUE DUP1 ISZERO PUSH2 0x8FC MUL SWAP2 PUSH1 0x0 DUP2 DUP2 DUP2 DUP6 DUP9 DUP9 CALL SWAP4 POP POP POP POP ISZERO DUP1 ISZERO PUSH2 0x262 JUMPI RETURNDATASIZE PUSH1 0x0 DUP1 RETURNDATACOPY RETURNDATASIZE PUSH1 0x0 REVERT JUMPDEST POP JUMP JUMPDEST POP PUSH1 0x60 SWAP1 JUMP JUMPDEST PUSH1 0x0 PUSH2 0x275 PUSH2 0x43F JUMP JUMPDEST PUSH20 0xFFFFFFFFFFFFFFFFFFFFFFFFFFFFFFFFFFFFFFFF DUP8 AND PUSH20 0xEEEEEEEEEEEEEEEEEEEEEEEEEEEEEEEEEEEEEEEE EQ PUSH2 0x2AC JUMPI DUP7 PUSH2 0x2B4 JUMP JUMPDEST PUSH2 0x2B4 PUSH2 0x497 JUMP JUMPDEST SWAP7 POP PUSH20 0xFFFFFFFFFFFFFFFFFFFFFFFFFFFFFFFFFFFFFFFF DUP7 AND PUSH20 0xEEEEEEEEEEEEEEEEEEEEEEEEEEEEEEEEEEEEEEEE EQ PUSH2 0x2ED JUMPI DUP6 PUSH2 0x2F5 JUMP JUMPDEST PUSH2 0x2F5 PUSH2 0x497 JUMP JUMPDEST SWAP6 POP PUSH2 0x322 PUSH32 0xFF3CA9D46195C39F9A12AFB74207B4970349FB3CFB1E459BBF170298D326BC7 DUP9 DUP9 PUSH2 0x4AF JUMP JUMPDEST SWAP8 SWAP7 POP POP POP POP POP POP POP JUMP JUMPDEST PUSH1 0x60 SWAP7 SWAP6 POP POP POP POP POP POP JUMP JUMPDEST PUSH1 0x0 DUP1 PUSH2 0x344 PUSH2 0x43F JUMP JUMPDEST PUSH20 0xFFFFFFFFFFFFFFFFFFFFFFFFFFFFFFFFFFFFFFFF DUP6 AND PUSH20 0xEEEEEEEEEEEEEEEEEEEEEEEEEEEEEEEEEEEEEEEE EQ PUSH2 0x37B JUMPI DUP5 PUSH2 0x383 JUMP JUMPDEST PUSH2 0x383 PUSH2 0x497 JUMP JUMPDEST SWAP5 POP PUSH20 0xFFFFFFFFFFFFFFFFFFFFFFFFFFFFFFFFFFFFFFFF DUP5 AND PUSH20 0xEEEEEEEEEEEEEEEEEEEEEEEEEEEEEEEEEEEEEEEE EQ PUSH2 0x3BC JUMPI DUP4 PUSH2 0x3C4 JUMP JUMPDEST PUSH2 0x3C4 PUSH2 0x497 JUMP JUMPDEST SWAP4 POP PUSH2 0x3F1 PUSH32 0xFF3CA9D46195C39F9A12AFB74207B4970349FB3CFB1E459BBF170298D326BC7 DUP7 DUP7 PUSH2 0x4AF JUMP JUMPDEST SWAP2 POP SWAP4 POP SWAP4 SWAP2 POP POP JUMP JUMPDEST PUSH20 0xEEEEEEEEEEEEEEEEEEEEEEEEEEEEEEEEEEEEEEEE DUP2 JUMP JUMPDEST ADDRESS SWAP1 JUMP JUMPDEST PUSH1 0x0 DUP1 ADDRESS DUP1 DUP3 PUSH1 0x60 SWAP1 SWAP2 SWAP3 SWAP4 SWAP5 SWAP6 JUMP JUMPDEST PUSH20 0xE9DB8717BC5DFB20AAF538B4A5A02B7791FF430C DUP2 JUMP JUMPDEST PUSH20 0xE9DB8717BC5DFB20AAF538B4A5A02B7791FF430C BALANCE ISZERO PUSH2 0x495 JUMPI PUSH1 0x40 MLOAD PUSH32 0x8C379A000000000000000000000000000000000000000000000000000000000 DUP2 MSTORE PUSH1 0x4 ADD PUSH2 0x48C SWAP1 PUSH2 0x8BD JUMP JUMPDEST PUSH1 0x40 MLOAD DUP1 SWAP2 SUB SWAP1 REVERT JUMPDEST JUMP JUMPDEST PUSH20 0xC02AAA39B223FE8D0A0E5C4F27EAD9083C756CC2 SWAP1 JUMP JUMPDEST PUSH1 0x0 DUP1 DUP5 DUP5 DUP5 PUSH1 0x40 MLOAD PUSH1 0x20 ADD PUSH2 0x4C7 SWAP4 SWAP3 SWAP2 SWAP1 PUSH2 0x715 JUMP JUMPDEST PUSH1 0x40 MLOAD PUSH1 0x20 DUP2 DUP4 SUB SUB DUP2 MSTORE SWAP1 PUSH1 0x40 MSTORE DUP1 MLOAD SWAP1 PUSH1 0x20 ADD KECCAK256 SWAP1 POP PUSH1 0x64 PUSH8 0xDE0B6B3A7640000 DUP2 PUSH2 0x4F1 JUMPI INVALID JUMPDEST DIV PUSH9 0x56BA3D73AF34F0000 DUP3 MOD ADD SWAP6 SWAP5 POP POP POP POP POP JUMP JUMPDEST DUP1 CALLDATALOAD PUSH20 0xFFFFFFFFFFFFFFFFFFFFFFFFFFFFFFFFFFFFFFFF DUP2 AND DUP2 EQ PUSH2 0x52C JUMPI PUSH1 0x0 DUP1 REVERT JUMPDEST SWAP3 SWAP2 POP POP JUMP JUMPDEST PUSH1 0x0 DUP1 DUP4 PUSH1 0x1F DUP5 ADD SLT PUSH2 0x543 JUMPI DUP2 DUP3 REVERT JUMPDEST POP DUP2 CALLDATALOAD PUSH8 0xFFFFFFFFFFFFFFFF DUP2 GT ISZERO PUSH2 0x55A JUMPI DUP2 DUP3 REVERT JUMPDEST PUSH1 0x20 DUP4 ADD SWAP2 POP DUP4 PUSH1 0x20 DUP1 DUP4 MUL DUP6 ADD ADD GT ISZERO PUSH2 0x574 JUMPI PUSH1 0x0 DUP1 REVERT JUMPDEST SWAP3 POP SWAP3 SWAP1 POP JUMP JUMPDEST PUSH1 0x0 PUSH1 0x20 DUP3 DUP5 SUB SLT ISZERO PUSH2 0x58C JUMPI DUP1 DUP2 REVERT JUMPDEST PUSH2 0x596 DUP4 DUP4 PUSH2 0x508 JUMP JUMPDEST SWAP4 SWAP3 POP POP POP JUMP JUMPDEST PUSH1 0x0 DUP1 PUSH1 0x0 PUSH1 0x60 DUP5 DUP7 SUB SLT ISZERO PUSH2 0x5B1 JUMPI DUP2 DUP3 REVERT JUMPDEST DUP4 CALLDATALOAD PUSH2 0x5BC DUP2 PUSH2 0x902 JUMP JUMPDEST SWAP3 POP PUSH1 0x20 DUP5 ADD CALLDATALOAD PUSH2 0x5CC DUP2 PUSH2 0x902 JUMP JUMPDEST SWAP3 SWAP6 SWAP3 SWAP5 POP POP POP PUSH1 0x40 SWAP2 SWAP1 SWAP2 ADD CALLDATALOAD SWAP1 JUMP JUMPDEST PUSH1 0x0 DUP1 PUSH1 0x0 DUP1 PUSH1 0x0 DUP1 PUSH1 0xA0 DUP8 DUP10 SUB SLT ISZERO PUSH2 0x5F5 JUMPI DUP2 DUP3 REVERT JUMPDEST DUP7 CALLDATALOAD PUSH2 0x600 DUP2 PUSH2 0x902 JUMP JUMPDEST SWAP6 POP PUSH1 0x20 DUP8 ADD CALLDATALOAD PUSH2 0x610 DUP2 PUSH2 0x902 JUMP JUMPDEST SWAP5 POP PUSH1 0x40 DUP8 ADD CALLDATALOAD SWAP4 POP PUSH1 0x60 DUP8 ADD CALLDATALOAD SWAP3 POP PUSH1 0x80 DUP8 ADD CALLDATALOAD PUSH8 0xFFFFFFFFFFFFFFFF DUP1 DUP3 GT ISZERO PUSH2 0x63A JUMPI DUP4 DUP5 REVERT JUMPDEST DUP2 DUP10 ADD DUP11 PUSH1 0x1F DUP3 ADD SLT PUSH2 0x64B JUMPI DUP5 DUP6 REVERT JUMPDEST DUP1 CALLDATALOAD SWAP3 POP DUP2 DUP4 GT ISZERO PUSH2 0x65B JUMPI DUP5 DUP6 REVERT JUMPDEST DUP11 PUSH1 0x20 DUP5 DUP4 ADD ADD GT ISZERO PUSH2 0x66C JUMPI DUP5 DUP6 REVERT JUMPDEST SWAP8 SWAP11 SWAP7 SWAP10 POP SWAP5 SWAP8 POP SWAP3 SWAP6 PUSH1 0x20 ADD SWAP5 SWAP3 SWAP4 POP POP POP JUMP JUMPDEST PUSH1 0x0 DUP1 PUSH1 0x0 DUP1 PUSH1 0x0 DUP1 PUSH1 0x80 DUP8 DUP10 SUB SLT ISZERO PUSH2 0x699 JUMPI DUP2 DUP3 REVERT JUMPDEST PUSH2 0x6A3 DUP9 DUP9 PUSH2 0x508 JUMP JUMPDEST SWAP6 POP PUSH1 0x20 DUP8 ADD CALLDATALOAD PUSH1 0x4 DUP2 LT PUSH2 0x6B6 JUMPI DUP3 DUP4 REVERT JUMPDEST SWAP5 POP PUSH1 0x40 DUP8 ADD CALLDATALOAD PUSH8 0xFFFFFFFFFFFFFFFF DUP1 DUP3 GT ISZERO PUSH2 0x6D2 JUMPI DUP4 DUP5 REVERT JUMPDEST PUSH2 0x6DE DUP11 DUP4 DUP12 ADD PUSH2 0x532 JUMP JUMPDEST SWAP1 SWAP7 POP SWAP5 POP PUSH1 0x60 DUP10 ADD CALLDATALOAD SWAP2 POP DUP1 DUP3 GT ISZERO PUSH2 0x6F6 JUMPI DUP4 DUP5 REVERT JUMPDEST POP PUSH2 0x703 DUP10 DUP3 DUP11 ADD PUSH2 0x532 JUMP JUMPDEST SWAP8 SWAP11 SWAP7 SWAP10 POP SWAP5 SWAP8 POP SWAP3 SWAP6 SWAP4 SWAP5 SWAP3 POP POP POP JUMP JUMPDEST SWAP3 DUP4 MSTORE PUSH32 0xFFFFFFFFFFFFFFFFFFFFFFFFFFFFFFFFFFFFFFFF000000000000000000000000 PUSH1 0x60 SWAP3 DUP4 SHL DUP2 AND PUSH1 0x20 DUP6 ADD MSTORE SWAP2 SHL AND PUSH1 0x34 DUP3 ADD MSTORE PUSH1 0x48 ADD SWAP1 JUMP JUMPDEST PUSH20 0xFFFFFFFFFFFFFFFFFFFFFFFFFFFFFFFFFFFFFFFF SWAP2 SWAP1 SWAP2 AND DUP2 MSTORE PUSH1 0x20 ADD SWAP1 JUMP JUMPDEST PUSH1 0x0 PUSH1 0xC0 DUP3 ADD PUSH20 0xFFFFFFFFFFFFFFFFFFFFFFFFFFFFFFFFFFFFFFFF DUP1 DUP11 AND DUP5 MSTORE DUP1 DUP10 AND PUSH1 0x20 DUP6 ADD MSTORE DUP1 DUP9 AND PUSH1 0x40 DUP6 ADD MSTORE DUP1 DUP8 AND PUSH1 0x60 DUP6 ADD MSTORE DUP1 DUP7 AND PUSH1 0x80 DUP6 ADD MSTORE PUSH1 0xC0 PUSH1 0xA0 DUP6 ADD MSTORE DUP2 DUP6 MLOAD DUP1 DUP5 MSTORE PUSH1 0xE0 DUP7 ADD SWAP2 POP PUSH1 0x20 DUP8 ADD SWAP4 POP DUP5 JUMPDEST DUP2 DUP2 LT ISZERO PUSH2 0x7EF JUMPI DUP5 MLOAD DUP5 AND DUP4 MSTORE PUSH1 0x20 SWAP5 DUP6 ADD SWAP5 SWAP1 SWAP3 ADD SWAP2 PUSH1 0x1 ADD PUSH2 0x7CF JUMP JUMPDEST POP SWAP1 SWAP12 SWAP11 POP POP POP POP POP POP POP POP POP POP POP JUMP JUMPDEST PUSH1 0x20 DUP1 DUP3 MSTORE DUP3 MLOAD DUP3 DUP3 ADD DUP2 SWAP1 MSTORE PUSH1 0x0 SWAP2 DUP5 ADD SWAP1 PUSH1 0x40 DUP5 ADD SWAP1 DUP4 JUMPDEST DUP2 DUP2 LT ISZERO PUSH2 0x838 JUMPI DUP4 MLOAD DUP4 MSTORE PUSH1 0x20 SWAP4 DUP5 ADD SWAP4 SWAP1 SWAP3 ADD SWAP2 PUSH1 0x1 ADD PUSH2 0x81A JUMP JUMPDEST POP SWAP1 SWAP6 SWAP5 POP POP POP POP POP JUMP JUMPDEST SWAP1 DUP2 MSTORE PUSH1 0x20 ADD SWAP1 JUMP JUMPDEST PUSH1 0x0 PUSH1 0x20 DUP3 MSTORE DUP3 MLOAD DUP1 PUSH1 0x20 DUP5 ADD MSTORE DUP2 JUMPDEST DUP2 DUP2 LT ISZERO PUSH2 0x879 JUMPI PUSH1 0x20 DUP2 DUP7 ADD DUP2 ADD MLOAD PUSH1 0x40 DUP7 DUP5 ADD ADD MSTORE ADD PUSH2 0x85C JUMP JUMPDEST DUP2 DUP2 GT ISZERO PUSH2 0x88A JUMPI DUP3 PUSH1 0x40 DUP4 DUP7 ADD ADD MSTORE JUMPDEST POP PUSH1 0x1F ADD PUSH32 0xFFFFFFFFFFFFFFFFFFFFFFFFFFFFFFFFFFFFFFFFFFFFFFFFFFFFFFFFFFFFFFE0 AND SWAP2 SWAP1 SWAP2 ADD PUSH1 0x40 ADD SWAP3 SWAP2 POP POP JUMP JUMPDEST PUSH1 0x20 DUP1 DUP3 MSTORE PUSH1 0xE SWAP1 DUP3 ADD MSTORE PUSH32 0x4641494C5F545249474745524544000000000000000000000000000000000000 PUSH1 0x40 DUP3 ADD MSTORE PUSH1 0x60 ADD SWAP1 JUMP JUMPDEST SWAP2 DUP3 MSTORE PUSH1 0x20 DUP3 ADD MSTORE PUSH1 0x40 ADD SWAP1 JUMP JUMPDEST PUSH20 0xFFFFFFFFFFFFFFFFFFFFFFFFFFFFFFFFFFFFFFFF DUP2 AND DUP2 EQ PUSH2 0x262 JUMPI PUSH1 0x0 DUP1 REVERT INVALID LOG3 PUSH6 0x627A7A723158 KECCAK256 0xFB SUB 0xAC 0xE8 0xB3 0xFC BYTE NOT 0x49 SWAP5 0xEB NUMBER CODECOPY 0xFC SDIV 0xED 0xFB PUSH25 0xD43CE8C7DC731DF6B360580D3D246C6578706572696D656E74 PUSH2 0x6CF5 PUSH5 0x736F6C6343 STOP SDIV GT STOP BLOCKHASH "
            }
        }
    },
    "sourceTreeHashHex": "0x7b099e809b23e1ebfbd3de4573981d65b5fddca72446de6d994e90a6f37b3029",
    "compiler": {
        "name": "solc",
        "version": "0.5.17+commit.d19bba13",
        "settings": {
            "remappings": [
                "@0x/contracts-exchange-libs=/home/gene/dev/0x-monorepo/packages/asset-swapper/node_modules/@0x/contracts-exchange-libs",
                "@0x/contracts-utils=/home/gene/dev/0x-monorepo/packages/asset-swapper/node_modules/@0x/contracts-utils",
                "@0x/contracts-erc20=/home/gene/dev/0x-monorepo/packages/asset-swapper/node_modules/@0x/contracts-erc20",
                "@0x/contracts-exchange=/home/gene/dev/0x-monorepo/packages/asset-swapper/node_modules/@0x/contracts-exchange",
                "@0x/contracts-asset-proxy=/home/gene/dev/0x-monorepo/packages/asset-swapper/node_modules/@0x/contracts-asset-proxy"
            ],
            "optimizer": {
                "enabled": true,
                "runs": 1000000,
                "details": {
                    "yul": true,
                    "deduplicate": true,
                    "cse": true,
                    "constantOptimizer": true
                }
            },
            "outputSelection": {
                "*": {
                    "*": [
                        "abi",
                        "devdoc",
                        "evm.bytecode.object",
                        "evm.bytecode.sourceMap",
                        "evm.deployedBytecode.object",
                        "evm.deployedBytecode.sourceMap"
                    ]
                }
            },
            "evmVersion": "istanbul"
        }
    },
    "chains": {}
}