{
    "schemaVersion": "2.0.0",
    "contractName": "TestNativeOrderSampler",
    "compilerOutput": {
        "abi": [
            {
                "inputs": [
                    {
                        "internalType": "uint256",
                        "name": "count",
                        "type": "uint256"
                    }
                ],
                "name": "createTokens",
                "outputs": [
                    {
                        "internalType": "contract TestNativeOrderSamplerToken[]",
                        "name": "tokens",
                        "type": "address[]"
                    }
                ],
                "stateMutability": "nonpayable",
                "type": "function"
            },
            {
                "inputs": [
                    {
                        "internalType": "bytes4",
                        "name": "proxyId",
                        "type": "bytes4"
                    }
                ],
                "name": "getAssetProxy",
                "outputs": [
                    {
                        "internalType": "address",
                        "name": "",
                        "type": "address"
                    }
                ],
                "stateMutability": "pure",
                "type": "function"
            },
            {
                "inputs": [
                    {
                        "components": [
                            {
                                "internalType": "address",
                                "name": "makerAddress",
                                "type": "address"
                            },
                            {
                                "internalType": "address",
                                "name": "takerAddress",
                                "type": "address"
                            },
                            {
                                "internalType": "address",
                                "name": "feeRecipientAddress",
                                "type": "address"
                            },
                            {
                                "internalType": "address",
                                "name": "senderAddress",
                                "type": "address"
                            },
                            {
                                "internalType": "uint256",
                                "name": "makerAssetAmount",
                                "type": "uint256"
                            },
                            {
                                "internalType": "uint256",
                                "name": "takerAssetAmount",
                                "type": "uint256"
                            },
                            {
                                "internalType": "uint256",
                                "name": "makerFee",
                                "type": "uint256"
                            },
                            {
                                "internalType": "uint256",
                                "name": "takerFee",
                                "type": "uint256"
                            },
                            {
                                "internalType": "uint256",
                                "name": "expirationTimeSeconds",
                                "type": "uint256"
                            },
                            {
                                "internalType": "uint256",
                                "name": "salt",
                                "type": "uint256"
                            },
                            {
                                "internalType": "bytes",
                                "name": "makerAssetData",
                                "type": "bytes"
                            },
                            {
                                "internalType": "bytes",
                                "name": "takerAssetData",
                                "type": "bytes"
                            },
                            {
                                "internalType": "bytes",
                                "name": "makerFeeAssetData",
                                "type": "bytes"
                            },
                            {
                                "internalType": "bytes",
                                "name": "takerFeeAssetData",
                                "type": "bytes"
                            }
                        ],
                        "internalType": "struct IExchange.Order[]",
                        "name": "orders",
                        "type": "tuple[]"
                    },
                    {
                        "internalType": "bytes[]",
                        "name": "orderSignatures",
                        "type": "bytes[]"
                    },
                    {
                        "internalType": "contract IExchange",
                        "name": "exchange",
                        "type": "address"
                    }
                ],
                "name": "getOrderFillableMakerAssetAmounts",
                "outputs": [
                    {
                        "internalType": "uint256[]",
                        "name": "orderFillableMakerAssetAmounts",
                        "type": "uint256[]"
                    }
                ],
                "stateMutability": "view",
                "type": "function"
            },
            {
                "inputs": [
                    {
                        "components": [
                            {
                                "internalType": "address",
                                "name": "makerAddress",
                                "type": "address"
                            },
                            {
                                "internalType": "address",
                                "name": "takerAddress",
                                "type": "address"
                            },
                            {
                                "internalType": "address",
                                "name": "feeRecipientAddress",
                                "type": "address"
                            },
                            {
                                "internalType": "address",
                                "name": "senderAddress",
                                "type": "address"
                            },
                            {
                                "internalType": "uint256",
                                "name": "makerAssetAmount",
                                "type": "uint256"
                            },
                            {
                                "internalType": "uint256",
                                "name": "takerAssetAmount",
                                "type": "uint256"
                            },
                            {
                                "internalType": "uint256",
                                "name": "makerFee",
                                "type": "uint256"
                            },
                            {
                                "internalType": "uint256",
                                "name": "takerFee",
                                "type": "uint256"
                            },
                            {
                                "internalType": "uint256",
                                "name": "expirationTimeSeconds",
                                "type": "uint256"
                            },
                            {
                                "internalType": "uint256",
                                "name": "salt",
                                "type": "uint256"
                            },
                            {
                                "internalType": "bytes",
                                "name": "makerAssetData",
                                "type": "bytes"
                            },
                            {
                                "internalType": "bytes",
                                "name": "takerAssetData",
                                "type": "bytes"
                            },
                            {
                                "internalType": "bytes",
                                "name": "makerFeeAssetData",
                                "type": "bytes"
                            },
                            {
                                "internalType": "bytes",
                                "name": "takerFeeAssetData",
                                "type": "bytes"
                            }
                        ],
                        "internalType": "struct IExchange.Order",
                        "name": "order",
                        "type": "tuple"
                    },
                    {
                        "internalType": "bytes",
                        "name": "signature",
                        "type": "bytes"
                    },
                    {
                        "internalType": "contract IExchange",
                        "name": "exchange",
                        "type": "address"
                    }
                ],
                "name": "getOrderFillableTakerAmount",
                "outputs": [
                    {
                        "internalType": "uint256",
                        "name": "fillableTakerAmount",
                        "type": "uint256"
                    }
                ],
                "stateMutability": "view",
                "type": "function"
            },
            {
                "inputs": [
                    {
                        "components": [
                            {
                                "internalType": "address",
                                "name": "makerAddress",
                                "type": "address"
                            },
                            {
                                "internalType": "address",
                                "name": "takerAddress",
                                "type": "address"
                            },
                            {
                                "internalType": "address",
                                "name": "feeRecipientAddress",
                                "type": "address"
                            },
                            {
                                "internalType": "address",
                                "name": "senderAddress",
                                "type": "address"
                            },
                            {
                                "internalType": "uint256",
                                "name": "makerAssetAmount",
                                "type": "uint256"
                            },
                            {
                                "internalType": "uint256",
                                "name": "takerAssetAmount",
                                "type": "uint256"
                            },
                            {
                                "internalType": "uint256",
                                "name": "makerFee",
                                "type": "uint256"
                            },
                            {
                                "internalType": "uint256",
                                "name": "takerFee",
                                "type": "uint256"
                            },
                            {
                                "internalType": "uint256",
                                "name": "expirationTimeSeconds",
                                "type": "uint256"
                            },
                            {
                                "internalType": "uint256",
                                "name": "salt",
                                "type": "uint256"
                            },
                            {
                                "internalType": "bytes",
                                "name": "makerAssetData",
                                "type": "bytes"
                            },
                            {
                                "internalType": "bytes",
                                "name": "takerAssetData",
                                "type": "bytes"
                            },
                            {
                                "internalType": "bytes",
                                "name": "makerFeeAssetData",
                                "type": "bytes"
                            },
                            {
                                "internalType": "bytes",
                                "name": "takerFeeAssetData",
                                "type": "bytes"
                            }
                        ],
                        "internalType": "struct IExchange.Order[]",
                        "name": "orders",
                        "type": "tuple[]"
                    },
                    {
                        "internalType": "bytes[]",
                        "name": "orderSignatures",
                        "type": "bytes[]"
                    },
                    {
                        "internalType": "contract IExchange",
                        "name": "exchange",
                        "type": "address"
                    }
                ],
                "name": "getOrderFillableTakerAssetAmounts",
                "outputs": [
                    {
                        "internalType": "uint256[]",
                        "name": "orderFillableTakerAssetAmounts",
                        "type": "uint256[]"
                    }
                ],
                "stateMutability": "view",
                "type": "function"
            },
            {
                "inputs": [
                    {
                        "components": [
                            {
                                "internalType": "address",
                                "name": "makerAddress",
                                "type": "address"
                            },
                            {
                                "internalType": "address",
                                "name": "takerAddress",
                                "type": "address"
                            },
                            {
                                "internalType": "address",
                                "name": "feeRecipientAddress",
                                "type": "address"
                            },
                            {
                                "internalType": "address",
                                "name": "senderAddress",
                                "type": "address"
                            },
                            {
                                "internalType": "uint256",
                                "name": "makerAssetAmount",
                                "type": "uint256"
                            },
                            {
                                "internalType": "uint256",
                                "name": "takerAssetAmount",
                                "type": "uint256"
                            },
                            {
                                "internalType": "uint256",
                                "name": "makerFee",
                                "type": "uint256"
                            },
                            {
                                "internalType": "uint256",
                                "name": "takerFee",
                                "type": "uint256"
                            },
                            {
                                "internalType": "uint256",
                                "name": "expirationTimeSeconds",
                                "type": "uint256"
                            },
                            {
                                "internalType": "uint256",
                                "name": "salt",
                                "type": "uint256"
                            },
                            {
                                "internalType": "bytes",
                                "name": "makerAssetData",
                                "type": "bytes"
                            },
                            {
                                "internalType": "bytes",
                                "name": "takerAssetData",
                                "type": "bytes"
                            },
                            {
                                "internalType": "bytes",
                                "name": "makerFeeAssetData",
                                "type": "bytes"
                            },
                            {
                                "internalType": "bytes",
                                "name": "takerFeeAssetData",
                                "type": "bytes"
                            }
                        ],
                        "internalType": "struct IExchange.Order",
                        "name": "order",
                        "type": "tuple"
                    }
                ],
                "name": "getOrderInfo",
                "outputs": [
                    {
                        "components": [
                            {
                                "internalType": "enum IExchange.OrderStatus",
                                "name": "orderStatus",
                                "type": "uint8"
                            },
                            {
                                "internalType": "bytes32",
                                "name": "orderHash",
                                "type": "bytes32"
                            },
                            {
                                "internalType": "uint256",
                                "name": "orderTakerAssetFilledAmount",
                                "type": "uint256"
                            }
                        ],
                        "internalType": "struct IExchange.OrderInfo",
                        "name": "orderInfo",
                        "type": "tuple"
                    }
                ],
                "stateMutability": "pure",
                "type": "function"
            },
            {
                "inputs": [
                    {
                        "internalType": "address",
                        "name": "makerTokenAddress",
                        "type": "address"
                    },
                    {
                        "internalType": "address",
                        "name": "takerTokenAddress",
                        "type": "address"
                    }
                ],
                "name": "getTokenDecimals",
                "outputs": [
                    {
                        "internalType": "uint256",
                        "name": "",
                        "type": "uint256"
                    },
                    {
                        "internalType": "uint256",
                        "name": "",
                        "type": "uint256"
                    }
                ],
                "stateMutability": "view",
                "type": "function"
            },
            {
                "inputs": [
                    {
                        "internalType": "bytes32",
                        "name": "",
                        "type": "bytes32"
                    },
                    {
                        "internalType": "address",
                        "name": "",
                        "type": "address"
                    },
                    {
                        "internalType": "bytes",
                        "name": "signature",
                        "type": "bytes"
                    }
                ],
                "name": "isValidHashSignature",
                "outputs": [
                    {
                        "internalType": "bool",
                        "name": "isValid",
                        "type": "bool"
                    }
                ],
                "stateMutability": "pure",
                "type": "function"
            },
            {
                "inputs": [
                    {
                        "internalType": "contract TestNativeOrderSamplerToken",
                        "name": "token",
                        "type": "address"
                    },
                    {
                        "internalType": "address",
                        "name": "owner",
                        "type": "address"
                    },
                    {
                        "internalType": "address",
                        "name": "spender",
                        "type": "address"
                    },
                    {
                        "internalType": "uint256",
                        "name": "balance",
                        "type": "uint256"
                    },
                    {
                        "internalType": "uint256",
                        "name": "allowance",
                        "type": "uint256"
                    }
                ],
                "name": "setTokenBalanceAndAllowance",
                "outputs": [],
                "stateMutability": "nonpayable",
                "type": "function"
            }
        ],
        "devdoc": {
            "kind": "dev",
            "methods": {
                "getOrderFillableMakerAssetAmounts((address,address,address,address,uint256,uint256,uint256,uint256,uint256,uint256,bytes,bytes,bytes,bytes)[],bytes[],address)": {
                    "details": "Queries the fillable taker asset amounts of native orders.      Effectively ignores orders that have empty signatures or",
                    "params": {
                        "exchange": "The V3 exchange.",
                        "orderSignatures": "Signatures for each respective order in `orders`.",
                        "orders": "Native orders to query."
                    },
                    "returns": {
                        "orderFillableMakerAssetAmounts": "How much maker asset can be filled         by each order in `orders`."
                    }
                },
                "getOrderFillableTakerAmount((address,address,address,address,uint256,uint256,uint256,uint256,uint256,uint256,bytes,bytes,bytes,bytes),bytes,address)": {
                    "details": "Get the fillable taker amount of an order, taking into account      order state, maker fees, and maker balances."
                },
                "getOrderFillableTakerAssetAmounts((address,address,address,address,uint256,uint256,uint256,uint256,uint256,uint256,bytes,bytes,bytes,bytes)[],bytes[],address)": {
                    "details": "Queries the fillable taker asset amounts of native orders.      Effectively ignores orders that have empty signatures or      maker/taker asset amounts (returning 0).",
                    "params": {
                        "exchange": "The V3 exchange.",
                        "orderSignatures": "Signatures for each respective order in `orders`.",
                        "orders": "Native orders to query."
                    },
                    "returns": {
                        "orderFillableTakerAssetAmounts": "How much taker asset can be filled         by each order in `orders`."
                    }
                }
            },
            "version": 1
        },
        "evm": {
            "bytecode": {
                "linkReferences": {},
                "object": "0x608060405234801561001057600080fd5b50611e5c806100206000396000f3fe608060405234801561001057600080fd5b50600436106100a35760003560e01c80638171c40711610076578063c662178c1161005b578063c662178c14610171578063e9a8e44214610186578063fcb5c43c14610199576100a3565b80638171c407146101315780639d3fa4b914610151576100a3565b806339b085ad146100a85780633b77ebae146100d157806360704108146100f15780637e1f2bb814610111575b600080fd5b6100bb6100b636600461143b565b6101ba565b6040516100c891906119c8565b60405180910390f35b6100e46100df3660046116bc565b610359565b6040516100c89190611b34565b6101046100ff3660046115a1565b6109a6565b6040516100c891906118f0565b61012461011f366004611731565b6109da565b6040516100c8919061196e565b61014461013f36600461151d565b610a93565b6040516100c89190611a00565b61016461015f366004611683565b610ad9565b6040516100c89190611aa6565b61018461017f3660046115e1565b610b5e565b005b6100bb61019436600461143b565b610bef565b6101ac6101a7366004611403565b610c92565b6040516100c8929190611b3d565b6060835167ffffffffffffffff811180156101d457600080fd5b506040519080825280602002602001820160405280156101fe578160200160208202803683370190505b50905060005b84518114610351573073ffffffffffffffffffffffffffffffffffffffff16633b77ebae62030d4087848151811061023857fe5b602002602001015187858151811061024c57fe5b6020026020010151876040518563ffffffff1660e01b815260040161027393929190611ae8565b60206040518083038187803b15801561028b57600080fd5b5086fa935050505080156102da575060408051601f3d9081017fffffffffffffffffffffffffffffffffffffffffffffffffffffffffffffffe01682019092526102d791810190611749565b60015b61032e573d808015610308576040519150601f19603f3d011682016040523d82523d6000602084013e61030d565b606091505b50600083838151811061031c57fe5b60200260200101818152505050610349565b8083838151811061033b57fe5b602002602001018181525050505b600101610204565b509392505050565b600082516000148061036d57506080840151155b8061037a575060a0840151155b156103875750600061099f565b61038f61116f565b6040517f9d3fa4b900000000000000000000000000000000000000000000000000000000815273ffffffffffffffffffffffffffffffffffffffff841690639d3fa4b9906103e1908890600401611ad5565b60606040518083038186803b1580156103f957600080fd5b505afa15801561040d573d6000803e3d6000fd5b505050506040513d601f19601f82011682018060405250810190610431919061163b565b905060038151600681111561044257fe5b1461045157600091505061099f565b602081015185516040517f8171c40700000000000000000000000000000000000000000000000000000000815273ffffffffffffffffffffffffffffffffffffffff861692638171c407926104aa928990600401611a0b565b60206040518083038186803b1580156104c257600080fd5b505afa1580156104d6573d6000803e3d6000fd5b505050506040513d601f19601f820116820180604052508101906104fa91906114fd565b61050857600091505061099f565b6040517f6070410800000000000000000000000000000000000000000000000000000000815260009073ffffffffffffffffffffffffffffffffffffffff85169063607041089061057d907ff47261b00000000000000000000000000000000000000000000000000000000090600401611a49565b60206040518083038186803b15801561059557600080fd5b505afa1580156105a9573d6000803e3d6000fd5b505050506040513d601f19601f820116820180604052508101906105cd91906113e7565b905060006105df876101400151610cc0565b905073ffffffffffffffffffffffffffffffffffffffff8116610608576000935050505061099f565b6000808860c001511161061c57600061062a565b61062a886101800151610cc0565b9050600061064985604001518a60a00151610d4f90919063ffffffff16565b905080955060006106ae828b60a001518673ffffffffffffffffffffffffffffffffffffffff168673ffffffffffffffffffffffffffffffffffffffff1614610696578c608001516106a9565b60c08d015160808e01516106a991610d73565b610d8f565b8a516040517f70a082310000000000000000000000000000000000000000000000000000000081529192506000916108049173ffffffffffffffffffffffffffffffffffffffff8816916370a082319161070a916004016118f0565b60206040518083038186803b15801561072257600080fd5b505afa158015610736573d6000803e3d6000fd5b505050506040513d601f19601f8201168201806040525081019061075a9190611749565b8c516040517fdd62ed3e00000000000000000000000000000000000000000000000000000000815273ffffffffffffffffffffffffffffffffffffffff89169163dd62ed3e916107af91908c90600401611911565b60206040518083038186803b1580156107c757600080fd5b505afa1580156107db573d6000803e3d6000fd5b505050506040513d601f19601f820116820180604052508101906107ff9190611749565b610dcb565b90508181101561081c57610819818385610de1565b97505b8473ffffffffffffffffffffffffffffffffffffffff168473ffffffffffffffffffffffffffffffffffffffff161415801561086d575073ffffffffffffffffffffffffffffffffffffffff841615155b15610997578a516040517f70a082310000000000000000000000000000000000000000000000000000000081526000916109719173ffffffffffffffffffffffffffffffffffffffff8816916370a08231916108cc91906004016118f0565b60206040518083038186803b1580156108e457600080fd5b505afa1580156108f8573d6000803e3d6000fd5b505050506040513d601f19601f8201168201806040525081019061091c9190611749565b8d516040517fdd62ed3e00000000000000000000000000000000000000000000000000000000815273ffffffffffffffffffffffffffffffffffffffff89169163dd62ed3e916107af91908d90600401611911565b90508b60c0015181101561099557610992896107ff838f60c0015188610de1565b98505b505b505050505050505b9392505050565b6000816040516020016109b99190611a49565b6040516020818303038152906040528051906020012060001c90505b919050565b60608167ffffffffffffffff811180156109f357600080fd5b50604051908082528060200260200182016040528015610a1d578160200160208202803683370190505b50905060005b82811015610a8d57604051610a3790611191565b604051809103906000f080158015610a53573d6000803e3d6000fd5b50828281518110610a6057fe5b73ffffffffffffffffffffffffffffffffffffffff90921660209283029190910190910152600101610a23565b50919050565b60007f5fe7f977e71dba2ea1a68e21057beebb9be2ac30c6410aa38d4f3fbe41dcffd28383604051610ac69291906118c4565b6040518091039020149050949350505050565b610ae161116f565b816101200135604051602001610af79190611b34565b604080517fffffffffffffffffffffffffffffffffffffffffffffffffffffffffffffffe081840301815291905280516020918201209082015260ff61012083013581161415610b4a5760058152610b4f565b600381525b61010090910135604082015290565b6040517f3c9dc74d00000000000000000000000000000000000000000000000000000000815273ffffffffffffffffffffffffffffffffffffffff861690633c9dc74d90610bb6908790879087908790600401611938565b600060405180830381600087803b158015610bd057600080fd5b505af1158015610be4573d6000803e3d6000fd5b505050505050505050565b6060610bfc8484846101ba565b905060005b845181101561035157818181518110610c1657fe5b6020026020010151600014610c8a57610c71828281518110610c3457fe5b6020026020010151868381518110610c4857fe5b602002602001015160a00151878481518110610c6057fe5b602002602001015160800151610de1565b828281518110610c7d57fe5b6020026020010181815250505b600101610c01565b6000806000610ca085610e05565b60ff1690506000610cb085610e05565b9193505060ff1690509250929050565b6000815160001415610cd4575060006109d5565b81516024141580610d3157507ff47261b000000000000000000000000000000000000000000000000000000000610d0c836000610ed6565b7fffffffff000000000000000000000000000000000000000000000000000000001614155b15610d3e575060006109d5565b610d49826010610f22565b92915050565b600082821115610d6d57610d6d610d6860028585610f62565b611007565b50900390565b60008282018381101561099f5761099f610d6860008686610f62565b6000610d9c84848461100f565b15610daf57610daf610d68858585611069565b610dc383610dbd8685611088565b906110b9565b949350505050565b6000818310610dda578161099f565b5090919050565b6000610dc383610dbd610df5826001610d4f565b610dff8887611088565b90610d73565b600060129050600060608373ffffffffffffffffffffffffffffffffffffffff166040518060400160405280600481526020017f313ce56700000000000000000000000000000000000000000000000000000000815250604051610e6991906118d4565b600060405180830381855afa9150503d8060008114610ea4576040519150601f19603f3d011682016040523d82523d6000602084013e610ea9565b606091505b5091509150818015610ebc575080516020145b15610ecf57610ecc8160006110e3565b92505b5050919050565b60008160040183511015610ef757610ef7610d6860038551856004016110ef565b5001602001517fffffffff000000000000000000000000000000000000000000000000000000001690565b60008160140183511015610f4357610f43610d6860048551856014016110ef565b50016014015173ffffffffffffffffffffffffffffffffffffffff1690565b606063e946c1bb60e01b848484604051602401610f8193929190611a76565b604080517fffffffffffffffffffffffffffffffffffffffffffffffffffffffffffffffe08184030181529190526020810180517bffffffffffffffffffffffffffffffffffffffffffffffffffffffff167fffffffff000000000000000000000000000000000000000000000000000000009093169290921790915290509392505050565b805160208201fd5b60008261102157611021610d6861110e565b81158061102c575083155b156110395750600061099f565b6000838061104357fe5b85840990506110528584611088565b61105e826103e8611088565b101595945050505050565b606063339f3de260e01b848484604051602401610f8193929190611b4b565b60008261109757506000610d49565b828202828482816110a457fe5b041461099f5761099f610d6860018686610f62565b6000816110cf576110cf610d6860038585610f62565b60008284816110da57fe5b04949350505050565b600061099f8383611145565b6060632800659560e01b848484604051602401610f8193929190611a98565b60408051808201909152600481527fa791837c00000000000000000000000000000000000000000000000000000000602082015290565b6000816020018351101561116657611166610d6860058551856020016110ef565b50016020015190565b6040805160608101909152806000815260006020820181905260409091015290565b61022980611bfe83390190565b8035610d4981611bd8565b600082601f8301126111b9578081fd5b81356111cc6111c782611b88565b611b61565b818152915060208083019084810160005b84811015611206576111f4888484358a0101611211565b845292820192908201906001016111dd565b505050505092915050565b600082601f830112611221578081fd5b813567ffffffffffffffff811115611237578182fd5b61126860207fffffffffffffffffffffffffffffffffffffffffffffffffffffffffffffffe0601f84011601611b61565b915080825283602082850101111561127f57600080fd5b8060208401602084013760009082016020015292915050565b60006101c08083850312156112ab578182fd5b6112b481611b61565b9150506112c1838361119e565b81526112d0836020840161119e565b60208201526112e2836040840161119e565b60408201526112f4836060840161119e565b60608201526080820135608082015260a082013560a082015260c082013560c082015260e082013560e08201526101008083013581830152506101208083013581830152506101408083013567ffffffffffffffff8082111561135657600080fd5b61136286838701611211565b8385015261016092508285013591508082111561137e57600080fd5b61138a86838701611211565b838501526101809250828501359150808211156113a657600080fd5b6113b286838701611211565b838501526101a09250828501359150808211156113ce57600080fd5b506113db85828601611211565b82840152505092915050565b6000602082840312156113f8578081fd5b815161099f81611bd8565b60008060408385031215611415578081fd5b823561142081611bd8565b9150602083013561143081611bd8565b809150509250929050565b60008060006060848603121561144f578081fd5b833567ffffffffffffffff80821115611466578283fd5b818601915086601f830112611479578283fd5b81356114876111c782611b88565b81815260208082019190858101875b858110156114bf576114ad8d8484358b0101611298565b85529382019390820190600101611496565b509198508901359450505050808211156114d7578283fd5b506114e4868287016111a9565b9250506114f4856040860161119e565b90509250925092565b60006020828403121561150e578081fd5b8151801515811461099f578182fd5b60008060008060608587031215611532578081fd5b84359350602085013561154481611bd8565b9250604085013567ffffffffffffffff80821115611560578283fd5b818701915087601f830112611573578283fd5b813581811115611581578384fd5b886020828501011115611592578384fd5b95989497505060200194505050565b6000602082840312156115b2578081fd5b81357fffffffff000000000000000000000000000000000000000000000000000000008116811461099f578182fd5b600080600080600060a086880312156115f8578283fd5b853561160381611bd8565b9450602086013561161381611bd8565b9350604086013561162381611bd8565b94979396509394606081013594506080013592915050565b60006060828403121561164c578081fd5b6116566060611b61565b825160078110611664578283fd5b8152602083810151908201526040928301519281019290925250919050565b600060208284031215611694578081fd5b813567ffffffffffffffff8111156116aa578182fd5b82016101c0818503121561099f578182fd5b6000806000606084860312156116d0578081fd5b833567ffffffffffffffff808211156116e7578283fd5b6116f387838801611298565b94506020860135915080821115611708578283fd5b5061171586828701611211565b925050604084013561172681611bd8565b809150509250925092565b600060208284031215611742578081fd5b5035919050565b60006020828403121561175a578081fd5b5051919050565b73ffffffffffffffffffffffffffffffffffffffff169052565b60008151808452611793816020860160208601611ba8565b601f017fffffffffffffffffffffffffffffffffffffffffffffffffffffffffffffffe0169290920160200192915050565b60006101c06117d5848451611761565b60208301516117e76020860182611761565b5060408301516117fa6040860182611761565b50606083015161180d6060860182611761565b506080830151608085015260a083015160a085015260c083015160c085015260e083015160e08501526101008084015181860152506101208084015181860152506101408084015182828701526118668387018261177b565b925050506101608084015185830382870152611882838261177b565b92505050610180808401518583038287015261189e838261177b565b925050506101a080840151858303828701526118ba838261177b565b9695505050505050565b6000828483379101908152919050565b600082516118e6818460208701611ba8565b9190910192915050565b73ffffffffffffffffffffffffffffffffffffffff91909116815260200190565b73ffffffffffffffffffffffffffffffffffffffff92831681529116602082015260400190565b73ffffffffffffffffffffffffffffffffffffffff94851681529290931660208301526040820152606081019190915260800190565b6020808252825182820181905260009190848201906040850190845b818110156119bc57835173ffffffffffffffffffffffffffffffffffffffff168352928401929184019160010161198a565b50909695505050505050565b6020808252825182820181905260009190848201906040850190845b818110156119bc578351835292840192918401916001016119e4565b901515815260200190565b600084825273ffffffffffffffffffffffffffffffffffffffff8416602083015260606040830152611a40606083018461177b565b95945050505050565b7fffffffff0000000000000000000000000000000000000000000000000000000091909116815260200190565b6060810160048510611a8457fe5b938152602081019290925260409091015290565b6060810160088510611a8457fe5b8151606082019060078110611ab757fe5b80835250602083015160208301526040830151604083015292915050565b60006020825261099f60208301846117c5565b600060608252611afb60608301866117c5565b8281036020840152611b0d818661177b565b91505073ffffffffffffffffffffffffffffffffffffffff83166040830152949350505050565b90815260200190565b918252602082015260400190565b9283526020830191909152604082015260600190565b60405181810167ffffffffffffffff81118282101715611b8057600080fd5b604052919050565b600067ffffffffffffffff821115611b9e578081fd5b5060209081020190565b60005b83811015611bc3578181015183820152602001611bab565b83811115611bd2576000848401525b50505050565b73ffffffffffffffffffffffffffffffffffffffff81168114611bfa57600080fd5b5056fe608060405234801561001057600080fd5b50610209806100206000396000f3fe608060405234801561001057600080fd5b50600436106100415760003560e01c80633c9dc74d1461004657806370a082311461005b578063dd62ed3e14610084575b600080fd5b610059610054366004610187565b610097565b005b61006e610069366004610131565b6100d8565b60405161007b91906101ca565b60405180910390f35b61006e610092366004610153565b6100ea565b73ffffffffffffffffffffffffffffffffffffffff938416600090815260208181526040808320949094556001815283822094909516815292909352902055565b60006020819052908152604090205481565b600160209081526000928352604080842090915290825290205481565b803573ffffffffffffffffffffffffffffffffffffffff8116811461012b57600080fd5b92915050565b600060208284031215610142578081fd5b61014c8383610107565b9392505050565b60008060408385031215610165578081fd5b61016f8484610107565b915061017e8460208501610107565b90509250929050565b6000806000806080858703121561019c578182fd5b6101a68686610107565b93506101b58660208701610107565b93969395505050506040820135916060013590565b9081526020019056fea2646970667358221220eb0d2272fed018b3091d495ccb8ebaf5649dc1db7280513f232010fcd540611064736f6c634300060c0033a2646970667358221220ed4f78593596e6e55e8d8c682ee9d4704b164e95f1699910b767b5bf4299434364736f6c634300060c0033",
                "opcodes": "PUSH1 0x80 PUSH1 0x40 MSTORE CALLVALUE DUP1 ISZERO PUSH2 0x10 JUMPI PUSH1 0x0 DUP1 REVERT JUMPDEST POP PUSH2 0x1E5C DUP1 PUSH2 0x20 PUSH1 0x0 CODECOPY PUSH1 0x0 RETURN INVALID PUSH1 0x80 PUSH1 0x40 MSTORE CALLVALUE DUP1 ISZERO PUSH2 0x10 JUMPI PUSH1 0x0 DUP1 REVERT JUMPDEST POP PUSH1 0x4 CALLDATASIZE LT PUSH2 0xA3 JUMPI PUSH1 0x0 CALLDATALOAD PUSH1 0xE0 SHR DUP1 PUSH4 0x8171C407 GT PUSH2 0x76 JUMPI DUP1 PUSH4 0xC662178C GT PUSH2 0x5B JUMPI DUP1 PUSH4 0xC662178C EQ PUSH2 0x171 JUMPI DUP1 PUSH4 0xE9A8E442 EQ PUSH2 0x186 JUMPI DUP1 PUSH4 0xFCB5C43C EQ PUSH2 0x199 JUMPI PUSH2 0xA3 JUMP JUMPDEST DUP1 PUSH4 0x8171C407 EQ PUSH2 0x131 JUMPI DUP1 PUSH4 0x9D3FA4B9 EQ PUSH2 0x151 JUMPI PUSH2 0xA3 JUMP JUMPDEST DUP1 PUSH4 0x39B085AD EQ PUSH2 0xA8 JUMPI DUP1 PUSH4 0x3B77EBAE EQ PUSH2 0xD1 JUMPI DUP1 PUSH4 0x60704108 EQ PUSH2 0xF1 JUMPI DUP1 PUSH4 0x7E1F2BB8 EQ PUSH2 0x111 JUMPI JUMPDEST PUSH1 0x0 DUP1 REVERT JUMPDEST PUSH2 0xBB PUSH2 0xB6 CALLDATASIZE PUSH1 0x4 PUSH2 0x143B JUMP JUMPDEST PUSH2 0x1BA JUMP JUMPDEST PUSH1 0x40 MLOAD PUSH2 0xC8 SWAP2 SWAP1 PUSH2 0x19C8 JUMP JUMPDEST PUSH1 0x40 MLOAD DUP1 SWAP2 SUB SWAP1 RETURN JUMPDEST PUSH2 0xE4 PUSH2 0xDF CALLDATASIZE PUSH1 0x4 PUSH2 0x16BC JUMP JUMPDEST PUSH2 0x359 JUMP JUMPDEST PUSH1 0x40 MLOAD PUSH2 0xC8 SWAP2 SWAP1 PUSH2 0x1B34 JUMP JUMPDEST PUSH2 0x104 PUSH2 0xFF CALLDATASIZE PUSH1 0x4 PUSH2 0x15A1 JUMP JUMPDEST PUSH2 0x9A6 JUMP JUMPDEST PUSH1 0x40 MLOAD PUSH2 0xC8 SWAP2 SWAP1 PUSH2 0x18F0 JUMP JUMPDEST PUSH2 0x124 PUSH2 0x11F CALLDATASIZE PUSH1 0x4 PUSH2 0x1731 JUMP JUMPDEST PUSH2 0x9DA JUMP JUMPDEST PUSH1 0x40 MLOAD PUSH2 0xC8 SWAP2 SWAP1 PUSH2 0x196E JUMP JUMPDEST PUSH2 0x144 PUSH2 0x13F CALLDATASIZE PUSH1 0x4 PUSH2 0x151D JUMP JUMPDEST PUSH2 0xA93 JUMP JUMPDEST PUSH1 0x40 MLOAD PUSH2 0xC8 SWAP2 SWAP1 PUSH2 0x1A00 JUMP JUMPDEST PUSH2 0x164 PUSH2 0x15F CALLDATASIZE PUSH1 0x4 PUSH2 0x1683 JUMP JUMPDEST PUSH2 0xAD9 JUMP JUMPDEST PUSH1 0x40 MLOAD PUSH2 0xC8 SWAP2 SWAP1 PUSH2 0x1AA6 JUMP JUMPDEST PUSH2 0x184 PUSH2 0x17F CALLDATASIZE PUSH1 0x4 PUSH2 0x15E1 JUMP JUMPDEST PUSH2 0xB5E JUMP JUMPDEST STOP JUMPDEST PUSH2 0xBB PUSH2 0x194 CALLDATASIZE PUSH1 0x4 PUSH2 0x143B JUMP JUMPDEST PUSH2 0xBEF JUMP JUMPDEST PUSH2 0x1AC PUSH2 0x1A7 CALLDATASIZE PUSH1 0x4 PUSH2 0x1403 JUMP JUMPDEST PUSH2 0xC92 JUMP JUMPDEST PUSH1 0x40 MLOAD PUSH2 0xC8 SWAP3 SWAP2 SWAP1 PUSH2 0x1B3D JUMP JUMPDEST PUSH1 0x60 DUP4 MLOAD PUSH8 0xFFFFFFFFFFFFFFFF DUP2 GT DUP1 ISZERO PUSH2 0x1D4 JUMPI PUSH1 0x0 DUP1 REVERT JUMPDEST POP PUSH1 0x40 MLOAD SWAP1 DUP1 DUP3 MSTORE DUP1 PUSH1 0x20 MUL PUSH1 0x20 ADD DUP3 ADD PUSH1 0x40 MSTORE DUP1 ISZERO PUSH2 0x1FE JUMPI DUP2 PUSH1 0x20 ADD PUSH1 0x20 DUP3 MUL DUP1 CALLDATASIZE DUP4 CALLDATACOPY ADD SWAP1 POP JUMPDEST POP SWAP1 POP PUSH1 0x0 JUMPDEST DUP5 MLOAD DUP2 EQ PUSH2 0x351 JUMPI ADDRESS PUSH20 0xFFFFFFFFFFFFFFFFFFFFFFFFFFFFFFFFFFFFFFFF AND PUSH4 0x3B77EBAE PUSH3 0x30D40 DUP8 DUP5 DUP2 MLOAD DUP2 LT PUSH2 0x238 JUMPI INVALID JUMPDEST PUSH1 0x20 MUL PUSH1 0x20 ADD ADD MLOAD DUP8 DUP6 DUP2 MLOAD DUP2 LT PUSH2 0x24C JUMPI INVALID JUMPDEST PUSH1 0x20 MUL PUSH1 0x20 ADD ADD MLOAD DUP8 PUSH1 0x40 MLOAD DUP6 PUSH4 0xFFFFFFFF AND PUSH1 0xE0 SHL DUP2 MSTORE PUSH1 0x4 ADD PUSH2 0x273 SWAP4 SWAP3 SWAP2 SWAP1 PUSH2 0x1AE8 JUMP JUMPDEST PUSH1 0x20 PUSH1 0x40 MLOAD DUP1 DUP4 SUB DUP2 DUP8 DUP1 EXTCODESIZE ISZERO DUP1 ISZERO PUSH2 0x28B JUMPI PUSH1 0x0 DUP1 REVERT JUMPDEST POP DUP7 STATICCALL SWAP4 POP POP POP POP DUP1 ISZERO PUSH2 0x2DA JUMPI POP PUSH1 0x40 DUP1 MLOAD PUSH1 0x1F RETURNDATASIZE SWAP1 DUP2 ADD PUSH32 0xFFFFFFFFFFFFFFFFFFFFFFFFFFFFFFFFFFFFFFFFFFFFFFFFFFFFFFFFFFFFFFE0 AND DUP3 ADD SWAP1 SWAP3 MSTORE PUSH2 0x2D7 SWAP2 DUP2 ADD SWAP1 PUSH2 0x1749 JUMP JUMPDEST PUSH1 0x1 JUMPDEST PUSH2 0x32E JUMPI RETURNDATASIZE DUP1 DUP1 ISZERO PUSH2 0x308 JUMPI PUSH1 0x40 MLOAD SWAP2 POP PUSH1 0x1F NOT PUSH1 0x3F RETURNDATASIZE ADD AND DUP3 ADD PUSH1 0x40 MSTORE RETURNDATASIZE DUP3 MSTORE RETURNDATASIZE PUSH1 0x0 PUSH1 0x20 DUP5 ADD RETURNDATACOPY PUSH2 0x30D JUMP JUMPDEST PUSH1 0x60 SWAP2 POP JUMPDEST POP PUSH1 0x0 DUP4 DUP4 DUP2 MLOAD DUP2 LT PUSH2 0x31C JUMPI INVALID JUMPDEST PUSH1 0x20 MUL PUSH1 0x20 ADD ADD DUP2 DUP2 MSTORE POP POP POP PUSH2 0x349 JUMP JUMPDEST DUP1 DUP4 DUP4 DUP2 MLOAD DUP2 LT PUSH2 0x33B JUMPI INVALID JUMPDEST PUSH1 0x20 MUL PUSH1 0x20 ADD ADD DUP2 DUP2 MSTORE POP POP POP JUMPDEST PUSH1 0x1 ADD PUSH2 0x204 JUMP JUMPDEST POP SWAP4 SWAP3 POP POP POP JUMP JUMPDEST PUSH1 0x0 DUP3 MLOAD PUSH1 0x0 EQ DUP1 PUSH2 0x36D JUMPI POP PUSH1 0x80 DUP5 ADD MLOAD ISZERO JUMPDEST DUP1 PUSH2 0x37A JUMPI POP PUSH1 0xA0 DUP5 ADD MLOAD ISZERO JUMPDEST ISZERO PUSH2 0x387 JUMPI POP PUSH1 0x0 PUSH2 0x99F JUMP JUMPDEST PUSH2 0x38F PUSH2 0x116F JUMP JUMPDEST PUSH1 0x40 MLOAD PUSH32 0x9D3FA4B900000000000000000000000000000000000000000000000000000000 DUP2 MSTORE PUSH20 0xFFFFFFFFFFFFFFFFFFFFFFFFFFFFFFFFFFFFFFFF DUP5 AND SWAP1 PUSH4 0x9D3FA4B9 SWAP1 PUSH2 0x3E1 SWAP1 DUP9 SWAP1 PUSH1 0x4 ADD PUSH2 0x1AD5 JUMP JUMPDEST PUSH1 0x60 PUSH1 0x40 MLOAD DUP1 DUP4 SUB DUP2 DUP7 DUP1 EXTCODESIZE ISZERO DUP1 ISZERO PUSH2 0x3F9 JUMPI PUSH1 0x0 DUP1 REVERT JUMPDEST POP GAS STATICCALL ISZERO DUP1 ISZERO PUSH2 0x40D JUMPI RETURNDATASIZE PUSH1 0x0 DUP1 RETURNDATACOPY RETURNDATASIZE PUSH1 0x0 REVERT JUMPDEST POP POP POP POP PUSH1 0x40 MLOAD RETURNDATASIZE PUSH1 0x1F NOT PUSH1 0x1F DUP3 ADD AND DUP3 ADD DUP1 PUSH1 0x40 MSTORE POP DUP2 ADD SWAP1 PUSH2 0x431 SWAP2 SWAP1 PUSH2 0x163B JUMP JUMPDEST SWAP1 POP PUSH1 0x3 DUP2 MLOAD PUSH1 0x6 DUP2 GT ISZERO PUSH2 0x442 JUMPI INVALID JUMPDEST EQ PUSH2 0x451 JUMPI PUSH1 0x0 SWAP2 POP POP PUSH2 0x99F JUMP JUMPDEST PUSH1 0x20 DUP2 ADD MLOAD DUP6 MLOAD PUSH1 0x40 MLOAD PUSH32 0x8171C40700000000000000000000000000000000000000000000000000000000 DUP2 MSTORE PUSH20 0xFFFFFFFFFFFFFFFFFFFFFFFFFFFFFFFFFFFFFFFF DUP7 AND SWAP3 PUSH4 0x8171C407 SWAP3 PUSH2 0x4AA SWAP3 DUP10 SWAP1 PUSH1 0x4 ADD PUSH2 0x1A0B JUMP JUMPDEST PUSH1 0x20 PUSH1 0x40 MLOAD DUP1 DUP4 SUB DUP2 DUP7 DUP1 EXTCODESIZE ISZERO DUP1 ISZERO PUSH2 0x4C2 JUMPI PUSH1 0x0 DUP1 REVERT JUMPDEST POP GAS STATICCALL ISZERO DUP1 ISZERO PUSH2 0x4D6 JUMPI RETURNDATASIZE PUSH1 0x0 DUP1 RETURNDATACOPY RETURNDATASIZE PUSH1 0x0 REVERT JUMPDEST POP POP POP POP PUSH1 0x40 MLOAD RETURNDATASIZE PUSH1 0x1F NOT PUSH1 0x1F DUP3 ADD AND DUP3 ADD DUP1 PUSH1 0x40 MSTORE POP DUP2 ADD SWAP1 PUSH2 0x4FA SWAP2 SWAP1 PUSH2 0x14FD JUMP JUMPDEST PUSH2 0x508 JUMPI PUSH1 0x0 SWAP2 POP POP PUSH2 0x99F JUMP JUMPDEST PUSH1 0x40 MLOAD PUSH32 0x6070410800000000000000000000000000000000000000000000000000000000 DUP2 MSTORE PUSH1 0x0 SWAP1 PUSH20 0xFFFFFFFFFFFFFFFFFFFFFFFFFFFFFFFFFFFFFFFF DUP6 AND SWAP1 PUSH4 0x60704108 SWAP1 PUSH2 0x57D SWAP1 PUSH32 0xF47261B000000000000000000000000000000000000000000000000000000000 SWAP1 PUSH1 0x4 ADD PUSH2 0x1A49 JUMP JUMPDEST PUSH1 0x20 PUSH1 0x40 MLOAD DUP1 DUP4 SUB DUP2 DUP7 DUP1 EXTCODESIZE ISZERO DUP1 ISZERO PUSH2 0x595 JUMPI PUSH1 0x0 DUP1 REVERT JUMPDEST POP GAS STATICCALL ISZERO DUP1 ISZERO PUSH2 0x5A9 JUMPI RETURNDATASIZE PUSH1 0x0 DUP1 RETURNDATACOPY RETURNDATASIZE PUSH1 0x0 REVERT JUMPDEST POP POP POP POP PUSH1 0x40 MLOAD RETURNDATASIZE PUSH1 0x1F NOT PUSH1 0x1F DUP3 ADD AND DUP3 ADD DUP1 PUSH1 0x40 MSTORE POP DUP2 ADD SWAP1 PUSH2 0x5CD SWAP2 SWAP1 PUSH2 0x13E7 JUMP JUMPDEST SWAP1 POP PUSH1 0x0 PUSH2 0x5DF DUP8 PUSH2 0x140 ADD MLOAD PUSH2 0xCC0 JUMP JUMPDEST SWAP1 POP PUSH20 0xFFFFFFFFFFFFFFFFFFFFFFFFFFFFFFFFFFFFFFFF DUP2 AND PUSH2 0x608 JUMPI PUSH1 0x0 SWAP4 POP POP POP POP PUSH2 0x99F JUMP JUMPDEST PUSH1 0x0 DUP1 DUP9 PUSH1 0xC0 ADD MLOAD GT PUSH2 0x61C JUMPI PUSH1 0x0 PUSH2 0x62A JUMP JUMPDEST PUSH2 0x62A DUP9 PUSH2 0x180 ADD MLOAD PUSH2 0xCC0 JUMP JUMPDEST SWAP1 POP PUSH1 0x0 PUSH2 0x649 DUP6 PUSH1 0x40 ADD MLOAD DUP11 PUSH1 0xA0 ADD MLOAD PUSH2 0xD4F SWAP1 SWAP2 SWAP1 PUSH4 0xFFFFFFFF AND JUMP JUMPDEST SWAP1 POP DUP1 SWAP6 POP PUSH1 0x0 PUSH2 0x6AE DUP3 DUP12 PUSH1 0xA0 ADD MLOAD DUP7 PUSH20 0xFFFFFFFFFFFFFFFFFFFFFFFFFFFFFFFFFFFFFFFF AND DUP7 PUSH20 0xFFFFFFFFFFFFFFFFFFFFFFFFFFFFFFFFFFFFFFFF AND EQ PUSH2 0x696 JUMPI DUP13 PUSH1 0x80 ADD MLOAD PUSH2 0x6A9 JUMP JUMPDEST PUSH1 0xC0 DUP14 ADD MLOAD PUSH1 0x80 DUP15 ADD MLOAD PUSH2 0x6A9 SWAP2 PUSH2 0xD73 JUMP JUMPDEST PUSH2 0xD8F JUMP JUMPDEST DUP11 MLOAD PUSH1 0x40 MLOAD PUSH32 0x70A0823100000000000000000000000000000000000000000000000000000000 DUP2 MSTORE SWAP2 SWAP3 POP PUSH1 0x0 SWAP2 PUSH2 0x804 SWAP2 PUSH20 0xFFFFFFFFFFFFFFFFFFFFFFFFFFFFFFFFFFFFFFFF DUP9 AND SWAP2 PUSH4 0x70A08231 SWAP2 PUSH2 0x70A SWAP2 PUSH1 0x4 ADD PUSH2 0x18F0 JUMP JUMPDEST PUSH1 0x20 PUSH1 0x40 MLOAD DUP1 DUP4 SUB DUP2 DUP7 DUP1 EXTCODESIZE ISZERO DUP1 ISZERO PUSH2 0x722 JUMPI PUSH1 0x0 DUP1 REVERT JUMPDEST POP GAS STATICCALL ISZERO DUP1 ISZERO PUSH2 0x736 JUMPI RETURNDATASIZE PUSH1 0x0 DUP1 RETURNDATACOPY RETURNDATASIZE PUSH1 0x0 REVERT JUMPDEST POP POP POP POP PUSH1 0x40 MLOAD RETURNDATASIZE PUSH1 0x1F NOT PUSH1 0x1F DUP3 ADD AND DUP3 ADD DUP1 PUSH1 0x40 MSTORE POP DUP2 ADD SWAP1 PUSH2 0x75A SWAP2 SWAP1 PUSH2 0x1749 JUMP JUMPDEST DUP13 MLOAD PUSH1 0x40 MLOAD PUSH32 0xDD62ED3E00000000000000000000000000000000000000000000000000000000 DUP2 MSTORE PUSH20 0xFFFFFFFFFFFFFFFFFFFFFFFFFFFFFFFFFFFFFFFF DUP10 AND SWAP2 PUSH4 0xDD62ED3E SWAP2 PUSH2 0x7AF SWAP2 SWAP1 DUP13 SWAP1 PUSH1 0x4 ADD PUSH2 0x1911 JUMP JUMPDEST PUSH1 0x20 PUSH1 0x40 MLOAD DUP1 DUP4 SUB DUP2 DUP7 DUP1 EXTCODESIZE ISZERO DUP1 ISZERO PUSH2 0x7C7 JUMPI PUSH1 0x0 DUP1 REVERT JUMPDEST POP GAS STATICCALL ISZERO DUP1 ISZERO PUSH2 0x7DB JUMPI RETURNDATASIZE PUSH1 0x0 DUP1 RETURNDATACOPY RETURNDATASIZE PUSH1 0x0 REVERT JUMPDEST POP POP POP POP PUSH1 0x40 MLOAD RETURNDATASIZE PUSH1 0x1F NOT PUSH1 0x1F DUP3 ADD AND DUP3 ADD DUP1 PUSH1 0x40 MSTORE POP DUP2 ADD SWAP1 PUSH2 0x7FF SWAP2 SWAP1 PUSH2 0x1749 JUMP JUMPDEST PUSH2 0xDCB JUMP JUMPDEST SWAP1 POP DUP2 DUP2 LT ISZERO PUSH2 0x81C JUMPI PUSH2 0x819 DUP2 DUP4 DUP6 PUSH2 0xDE1 JUMP JUMPDEST SWAP8 POP JUMPDEST DUP5 PUSH20 0xFFFFFFFFFFFFFFFFFFFFFFFFFFFFFFFFFFFFFFFF AND DUP5 PUSH20 0xFFFFFFFFFFFFFFFFFFFFFFFFFFFFFFFFFFFFFFFF AND EQ ISZERO DUP1 ISZERO PUSH2 0x86D JUMPI POP PUSH20 0xFFFFFFFFFFFFFFFFFFFFFFFFFFFFFFFFFFFFFFFF DUP5 AND ISZERO ISZERO JUMPDEST ISZERO PUSH2 0x997 JUMPI DUP11 MLOAD PUSH1 0x40 MLOAD PUSH32 0x70A0823100000000000000000000000000000000000000000000000000000000 DUP2 MSTORE PUSH1 0x0 SWAP2 PUSH2 0x971 SWAP2 PUSH20 0xFFFFFFFFFFFFFFFFFFFFFFFFFFFFFFFFFFFFFFFF DUP9 AND SWAP2 PUSH4 0x70A08231 SWAP2 PUSH2 0x8CC SWAP2 SWAP1 PUSH1 0x4 ADD PUSH2 0x18F0 JUMP JUMPDEST PUSH1 0x20 PUSH1 0x40 MLOAD DUP1 DUP4 SUB DUP2 DUP7 DUP1 EXTCODESIZE ISZERO DUP1 ISZERO PUSH2 0x8E4 JUMPI PUSH1 0x0 DUP1 REVERT JUMPDEST POP GAS STATICCALL ISZERO DUP1 ISZERO PUSH2 0x8F8 JUMPI RETURNDATASIZE PUSH1 0x0 DUP1 RETURNDATACOPY RETURNDATASIZE PUSH1 0x0 REVERT JUMPDEST POP POP POP POP PUSH1 0x40 MLOAD RETURNDATASIZE PUSH1 0x1F NOT PUSH1 0x1F DUP3 ADD AND DUP3 ADD DUP1 PUSH1 0x40 MSTORE POP DUP2 ADD SWAP1 PUSH2 0x91C SWAP2 SWAP1 PUSH2 0x1749 JUMP JUMPDEST DUP14 MLOAD PUSH1 0x40 MLOAD PUSH32 0xDD62ED3E00000000000000000000000000000000000000000000000000000000 DUP2 MSTORE PUSH20 0xFFFFFFFFFFFFFFFFFFFFFFFFFFFFFFFFFFFFFFFF DUP10 AND SWAP2 PUSH4 0xDD62ED3E SWAP2 PUSH2 0x7AF SWAP2 SWAP1 DUP14 SWAP1 PUSH1 0x4 ADD PUSH2 0x1911 JUMP JUMPDEST SWAP1 POP DUP12 PUSH1 0xC0 ADD MLOAD DUP2 LT ISZERO PUSH2 0x995 JUMPI PUSH2 0x992 DUP10 PUSH2 0x7FF DUP4 DUP16 PUSH1 0xC0 ADD MLOAD DUP9 PUSH2 0xDE1 JUMP JUMPDEST SWAP9 POP JUMPDEST POP JUMPDEST POP POP POP POP POP POP POP JUMPDEST SWAP4 SWAP3 POP POP POP JUMP JUMPDEST PUSH1 0x0 DUP2 PUSH1 0x40 MLOAD PUSH1 0x20 ADD PUSH2 0x9B9 SWAP2 SWAP1 PUSH2 0x1A49 JUMP JUMPDEST PUSH1 0x40 MLOAD PUSH1 0x20 DUP2 DUP4 SUB SUB DUP2 MSTORE SWAP1 PUSH1 0x40 MSTORE DUP1 MLOAD SWAP1 PUSH1 0x20 ADD KECCAK256 PUSH1 0x0 SHR SWAP1 POP JUMPDEST SWAP2 SWAP1 POP JUMP JUMPDEST PUSH1 0x60 DUP2 PUSH8 0xFFFFFFFFFFFFFFFF DUP2 GT DUP1 ISZERO PUSH2 0x9F3 JUMPI PUSH1 0x0 DUP1 REVERT JUMPDEST POP PUSH1 0x40 MLOAD SWAP1 DUP1 DUP3 MSTORE DUP1 PUSH1 0x20 MUL PUSH1 0x20 ADD DUP3 ADD PUSH1 0x40 MSTORE DUP1 ISZERO PUSH2 0xA1D JUMPI DUP2 PUSH1 0x20 ADD PUSH1 0x20 DUP3 MUL DUP1 CALLDATASIZE DUP4 CALLDATACOPY ADD SWAP1 POP JUMPDEST POP SWAP1 POP PUSH1 0x0 JUMPDEST DUP3 DUP2 LT ISZERO PUSH2 0xA8D JUMPI PUSH1 0x40 MLOAD PUSH2 0xA37 SWAP1 PUSH2 0x1191 JUMP JUMPDEST PUSH1 0x40 MLOAD DUP1 SWAP2 SUB SWAP1 PUSH1 0x0 CREATE DUP1 ISZERO DUP1 ISZERO PUSH2 0xA53 JUMPI RETURNDATASIZE PUSH1 0x0 DUP1 RETURNDATACOPY RETURNDATASIZE PUSH1 0x0 REVERT JUMPDEST POP DUP3 DUP3 DUP2 MLOAD DUP2 LT PUSH2 0xA60 JUMPI INVALID JUMPDEST PUSH20 0xFFFFFFFFFFFFFFFFFFFFFFFFFFFFFFFFFFFFFFFF SWAP1 SWAP3 AND PUSH1 0x20 SWAP3 DUP4 MUL SWAP2 SWAP1 SWAP2 ADD SWAP1 SWAP2 ADD MSTORE PUSH1 0x1 ADD PUSH2 0xA23 JUMP JUMPDEST POP SWAP2 SWAP1 POP JUMP JUMPDEST PUSH1 0x0 PUSH32 0x5FE7F977E71DBA2EA1A68E21057BEEBB9BE2AC30C6410AA38D4F3FBE41DCFFD2 DUP4 DUP4 PUSH1 0x40 MLOAD PUSH2 0xAC6 SWAP3 SWAP2 SWAP1 PUSH2 0x18C4 JUMP JUMPDEST PUSH1 0x40 MLOAD DUP1 SWAP2 SUB SWAP1 KECCAK256 EQ SWAP1 POP SWAP5 SWAP4 POP POP POP POP JUMP JUMPDEST PUSH2 0xAE1 PUSH2 0x116F JUMP JUMPDEST DUP2 PUSH2 0x120 ADD CALLDATALOAD PUSH1 0x40 MLOAD PUSH1 0x20 ADD PUSH2 0xAF7 SWAP2 SWAP1 PUSH2 0x1B34 JUMP JUMPDEST PUSH1 0x40 DUP1 MLOAD PUSH32 0xFFFFFFFFFFFFFFFFFFFFFFFFFFFFFFFFFFFFFFFFFFFFFFFFFFFFFFFFFFFFFFE0 DUP2 DUP5 SUB ADD DUP2 MSTORE SWAP2 SWAP1 MSTORE DUP1 MLOAD PUSH1 0x20 SWAP2 DUP3 ADD KECCAK256 SWAP1 DUP3 ADD MSTORE PUSH1 0xFF PUSH2 0x120 DUP4 ADD CALLDATALOAD DUP2 AND EQ ISZERO PUSH2 0xB4A JUMPI PUSH1 0x5 DUP2 MSTORE PUSH2 0xB4F JUMP JUMPDEST PUSH1 0x3 DUP2 MSTORE JUMPDEST PUSH2 0x100 SWAP1 SWAP2 ADD CALLDATALOAD PUSH1 0x40 DUP3 ADD MSTORE SWAP1 JUMP JUMPDEST PUSH1 0x40 MLOAD PUSH32 0x3C9DC74D00000000000000000000000000000000000000000000000000000000 DUP2 MSTORE PUSH20 0xFFFFFFFFFFFFFFFFFFFFFFFFFFFFFFFFFFFFFFFF DUP7 AND SWAP1 PUSH4 0x3C9DC74D SWAP1 PUSH2 0xBB6 SWAP1 DUP8 SWAP1 DUP8 SWAP1 DUP8 SWAP1 DUP8 SWAP1 PUSH1 0x4 ADD PUSH2 0x1938 JUMP JUMPDEST PUSH1 0x0 PUSH1 0x40 MLOAD DUP1 DUP4 SUB DUP2 PUSH1 0x0 DUP8 DUP1 EXTCODESIZE ISZERO DUP1 ISZERO PUSH2 0xBD0 JUMPI PUSH1 0x0 DUP1 REVERT JUMPDEST POP GAS CALL ISZERO DUP1 ISZERO PUSH2 0xBE4 JUMPI RETURNDATASIZE PUSH1 0x0 DUP1 RETURNDATACOPY RETURNDATASIZE PUSH1 0x0 REVERT JUMPDEST POP POP POP POP POP POP POP POP POP JUMP JUMPDEST PUSH1 0x60 PUSH2 0xBFC DUP5 DUP5 DUP5 PUSH2 0x1BA JUMP JUMPDEST SWAP1 POP PUSH1 0x0 JUMPDEST DUP5 MLOAD DUP2 LT ISZERO PUSH2 0x351 JUMPI DUP2 DUP2 DUP2 MLOAD DUP2 LT PUSH2 0xC16 JUMPI INVALID JUMPDEST PUSH1 0x20 MUL PUSH1 0x20 ADD ADD MLOAD PUSH1 0x0 EQ PUSH2 0xC8A JUMPI PUSH2 0xC71 DUP3 DUP3 DUP2 MLOAD DUP2 LT PUSH2 0xC34 JUMPI INVALID JUMPDEST PUSH1 0x20 MUL PUSH1 0x20 ADD ADD MLOAD DUP7 DUP4 DUP2 MLOAD DUP2 LT PUSH2 0xC48 JUMPI INVALID JUMPDEST PUSH1 0x20 MUL PUSH1 0x20 ADD ADD MLOAD PUSH1 0xA0 ADD MLOAD DUP8 DUP5 DUP2 MLOAD DUP2 LT PUSH2 0xC60 JUMPI INVALID JUMPDEST PUSH1 0x20 MUL PUSH1 0x20 ADD ADD MLOAD PUSH1 0x80 ADD MLOAD PUSH2 0xDE1 JUMP JUMPDEST DUP3 DUP3 DUP2 MLOAD DUP2 LT PUSH2 0xC7D JUMPI INVALID JUMPDEST PUSH1 0x20 MUL PUSH1 0x20 ADD ADD DUP2 DUP2 MSTORE POP POP JUMPDEST PUSH1 0x1 ADD PUSH2 0xC01 JUMP JUMPDEST PUSH1 0x0 DUP1 PUSH1 0x0 PUSH2 0xCA0 DUP6 PUSH2 0xE05 JUMP JUMPDEST PUSH1 0xFF AND SWAP1 POP PUSH1 0x0 PUSH2 0xCB0 DUP6 PUSH2 0xE05 JUMP JUMPDEST SWAP2 SWAP4 POP POP PUSH1 0xFF AND SWAP1 POP SWAP3 POP SWAP3 SWAP1 POP JUMP JUMPDEST PUSH1 0x0 DUP2 MLOAD PUSH1 0x0 EQ ISZERO PUSH2 0xCD4 JUMPI POP PUSH1 0x0 PUSH2 0x9D5 JUMP JUMPDEST DUP2 MLOAD PUSH1 0x24 EQ ISZERO DUP1 PUSH2 0xD31 JUMPI POP PUSH32 0xF47261B000000000000000000000000000000000000000000000000000000000 PUSH2 0xD0C DUP4 PUSH1 0x0 PUSH2 0xED6 JUMP JUMPDEST PUSH32 0xFFFFFFFF00000000000000000000000000000000000000000000000000000000 AND EQ ISZERO JUMPDEST ISZERO PUSH2 0xD3E JUMPI POP PUSH1 0x0 PUSH2 0x9D5 JUMP JUMPDEST PUSH2 0xD49 DUP3 PUSH1 0x10 PUSH2 0xF22 JUMP JUMPDEST SWAP3 SWAP2 POP POP JUMP JUMPDEST PUSH1 0x0 DUP3 DUP3 GT ISZERO PUSH2 0xD6D JUMPI PUSH2 0xD6D PUSH2 0xD68 PUSH1 0x2 DUP6 DUP6 PUSH2 0xF62 JUMP JUMPDEST PUSH2 0x1007 JUMP JUMPDEST POP SWAP1 SUB SWAP1 JUMP JUMPDEST PUSH1 0x0 DUP3 DUP3 ADD DUP4 DUP2 LT ISZERO PUSH2 0x99F JUMPI PUSH2 0x99F PUSH2 0xD68 PUSH1 0x0 DUP7 DUP7 PUSH2 0xF62 JUMP JUMPDEST PUSH1 0x0 PUSH2 0xD9C DUP5 DUP5 DUP5 PUSH2 0x100F JUMP JUMPDEST ISZERO PUSH2 0xDAF JUMPI PUSH2 0xDAF PUSH2 0xD68 DUP6 DUP6 DUP6 PUSH2 0x1069 JUMP JUMPDEST PUSH2 0xDC3 DUP4 PUSH2 0xDBD DUP7 DUP6 PUSH2 0x1088 JUMP JUMPDEST SWAP1 PUSH2 0x10B9 JUMP JUMPDEST SWAP5 SWAP4 POP POP POP POP JUMP JUMPDEST PUSH1 0x0 DUP2 DUP4 LT PUSH2 0xDDA JUMPI DUP2 PUSH2 0x99F JUMP JUMPDEST POP SWAP1 SWAP2 SWAP1 POP JUMP JUMPDEST PUSH1 0x0 PUSH2 0xDC3 DUP4 PUSH2 0xDBD PUSH2 0xDF5 DUP3 PUSH1 0x1 PUSH2 0xD4F JUMP JUMPDEST PUSH2 0xDFF DUP9 DUP8 PUSH2 0x1088 JUMP JUMPDEST SWAP1 PUSH2 0xD73 JUMP JUMPDEST PUSH1 0x0 PUSH1 0x12 SWAP1 POP PUSH1 0x0 PUSH1 0x60 DUP4 PUSH20 0xFFFFFFFFFFFFFFFFFFFFFFFFFFFFFFFFFFFFFFFF AND PUSH1 0x40 MLOAD DUP1 PUSH1 0x40 ADD PUSH1 0x40 MSTORE DUP1 PUSH1 0x4 DUP2 MSTORE PUSH1 0x20 ADD PUSH32 0x313CE56700000000000000000000000000000000000000000000000000000000 DUP2 MSTORE POP PUSH1 0x40 MLOAD PUSH2 0xE69 SWAP2 SWAP1 PUSH2 0x18D4 JUMP JUMPDEST PUSH1 0x0 PUSH1 0x40 MLOAD DUP1 DUP4 SUB DUP2 DUP6 GAS STATICCALL SWAP2 POP POP RETURNDATASIZE DUP1 PUSH1 0x0 DUP2 EQ PUSH2 0xEA4 JUMPI PUSH1 0x40 MLOAD SWAP2 POP PUSH1 0x1F NOT PUSH1 0x3F RETURNDATASIZE ADD AND DUP3 ADD PUSH1 0x40 MSTORE RETURNDATASIZE DUP3 MSTORE RETURNDATASIZE PUSH1 0x0 PUSH1 0x20 DUP5 ADD RETURNDATACOPY PUSH2 0xEA9 JUMP JUMPDEST PUSH1 0x60 SWAP2 POP JUMPDEST POP SWAP2 POP SWAP2 POP DUP2 DUP1 ISZERO PUSH2 0xEBC JUMPI POP DUP1 MLOAD PUSH1 0x20 EQ JUMPDEST ISZERO PUSH2 0xECF JUMPI PUSH2 0xECC DUP2 PUSH1 0x0 PUSH2 0x10E3 JUMP JUMPDEST SWAP3 POP JUMPDEST POP POP SWAP2 SWAP1 POP JUMP JUMPDEST PUSH1 0x0 DUP2 PUSH1 0x4 ADD DUP4 MLOAD LT ISZERO PUSH2 0xEF7 JUMPI PUSH2 0xEF7 PUSH2 0xD68 PUSH1 0x3 DUP6 MLOAD DUP6 PUSH1 0x4 ADD PUSH2 0x10EF JUMP JUMPDEST POP ADD PUSH1 0x20 ADD MLOAD PUSH32 0xFFFFFFFF00000000000000000000000000000000000000000000000000000000 AND SWAP1 JUMP JUMPDEST PUSH1 0x0 DUP2 PUSH1 0x14 ADD DUP4 MLOAD LT ISZERO PUSH2 0xF43 JUMPI PUSH2 0xF43 PUSH2 0xD68 PUSH1 0x4 DUP6 MLOAD DUP6 PUSH1 0x14 ADD PUSH2 0x10EF JUMP JUMPDEST POP ADD PUSH1 0x14 ADD MLOAD PUSH20 0xFFFFFFFFFFFFFFFFFFFFFFFFFFFFFFFFFFFFFFFF AND SWAP1 JUMP JUMPDEST PUSH1 0x60 PUSH4 0xE946C1BB PUSH1 0xE0 SHL DUP5 DUP5 DUP5 PUSH1 0x40 MLOAD PUSH1 0x24 ADD PUSH2 0xF81 SWAP4 SWAP3 SWAP2 SWAP1 PUSH2 0x1A76 JUMP JUMPDEST PUSH1 0x40 DUP1 MLOAD PUSH32 0xFFFFFFFFFFFFFFFFFFFFFFFFFFFFFFFFFFFFFFFFFFFFFFFFFFFFFFFFFFFFFFE0 DUP2 DUP5 SUB ADD DUP2 MSTORE SWAP2 SWAP1 MSTORE PUSH1 0x20 DUP2 ADD DUP1 MLOAD PUSH28 0xFFFFFFFFFFFFFFFFFFFFFFFFFFFFFFFFFFFFFFFFFFFFFFFFFFFFFFFF AND PUSH32 0xFFFFFFFF00000000000000000000000000000000000000000000000000000000 SWAP1 SWAP4 AND SWAP3 SWAP1 SWAP3 OR SWAP1 SWAP2 MSTORE SWAP1 POP SWAP4 SWAP3 POP POP POP JUMP JUMPDEST DUP1 MLOAD PUSH1 0x20 DUP3 ADD REVERT JUMPDEST PUSH1 0x0 DUP3 PUSH2 0x1021 JUMPI PUSH2 0x1021 PUSH2 0xD68 PUSH2 0x110E JUMP JUMPDEST DUP2 ISZERO DUP1 PUSH2 0x102C JUMPI POP DUP4 ISZERO JUMPDEST ISZERO PUSH2 0x1039 JUMPI POP PUSH1 0x0 PUSH2 0x99F JUMP JUMPDEST PUSH1 0x0 DUP4 DUP1 PUSH2 0x1043 JUMPI INVALID JUMPDEST DUP6 DUP5 MULMOD SWAP1 POP PUSH2 0x1052 DUP6 DUP5 PUSH2 0x1088 JUMP JUMPDEST PUSH2 0x105E DUP3 PUSH2 0x3E8 PUSH2 0x1088 JUMP JUMPDEST LT ISZERO SWAP6 SWAP5 POP POP POP POP POP JUMP JUMPDEST PUSH1 0x60 PUSH4 0x339F3DE2 PUSH1 0xE0 SHL DUP5 DUP5 DUP5 PUSH1 0x40 MLOAD PUSH1 0x24 ADD PUSH2 0xF81 SWAP4 SWAP3 SWAP2 SWAP1 PUSH2 0x1B4B JUMP JUMPDEST PUSH1 0x0 DUP3 PUSH2 0x1097 JUMPI POP PUSH1 0x0 PUSH2 0xD49 JUMP JUMPDEST DUP3 DUP3 MUL DUP3 DUP5 DUP3 DUP2 PUSH2 0x10A4 JUMPI INVALID JUMPDEST DIV EQ PUSH2 0x99F JUMPI PUSH2 0x99F PUSH2 0xD68 PUSH1 0x1 DUP7 DUP7 PUSH2 0xF62 JUMP JUMPDEST PUSH1 0x0 DUP2 PUSH2 0x10CF JUMPI PUSH2 0x10CF PUSH2 0xD68 PUSH1 0x3 DUP6 DUP6 PUSH2 0xF62 JUMP JUMPDEST PUSH1 0x0 DUP3 DUP5 DUP2 PUSH2 0x10DA JUMPI INVALID JUMPDEST DIV SWAP5 SWAP4 POP POP POP POP JUMP JUMPDEST PUSH1 0x0 PUSH2 0x99F DUP4 DUP4 PUSH2 0x1145 JUMP JUMPDEST PUSH1 0x60 PUSH4 0x28006595 PUSH1 0xE0 SHL DUP5 DUP5 DUP5 PUSH1 0x40 MLOAD PUSH1 0x24 ADD PUSH2 0xF81 SWAP4 SWAP3 SWAP2 SWAP1 PUSH2 0x1A98 JUMP JUMPDEST PUSH1 0x40 DUP1 MLOAD DUP1 DUP3 ADD SWAP1 SWAP2 MSTORE PUSH1 0x4 DUP2 MSTORE PUSH32 0xA791837C00000000000000000000000000000000000000000000000000000000 PUSH1 0x20 DUP3 ADD MSTORE SWAP1 JUMP JUMPDEST PUSH1 0x0 DUP2 PUSH1 0x20 ADD DUP4 MLOAD LT ISZERO PUSH2 0x1166 JUMPI PUSH2 0x1166 PUSH2 0xD68 PUSH1 0x5 DUP6 MLOAD DUP6 PUSH1 0x20 ADD PUSH2 0x10EF JUMP JUMPDEST POP ADD PUSH1 0x20 ADD MLOAD SWAP1 JUMP JUMPDEST PUSH1 0x40 DUP1 MLOAD PUSH1 0x60 DUP2 ADD SWAP1 SWAP2 MSTORE DUP1 PUSH1 0x0 DUP2 MSTORE PUSH1 0x0 PUSH1 0x20 DUP3 ADD DUP2 SWAP1 MSTORE PUSH1 0x40 SWAP1 SWAP2 ADD MSTORE SWAP1 JUMP JUMPDEST PUSH2 0x229 DUP1 PUSH2 0x1BFE DUP4 CODECOPY ADD SWAP1 JUMP JUMPDEST DUP1 CALLDATALOAD PUSH2 0xD49 DUP2 PUSH2 0x1BD8 JUMP JUMPDEST PUSH1 0x0 DUP3 PUSH1 0x1F DUP4 ADD SLT PUSH2 0x11B9 JUMPI DUP1 DUP2 REVERT JUMPDEST DUP2 CALLDATALOAD PUSH2 0x11CC PUSH2 0x11C7 DUP3 PUSH2 0x1B88 JUMP JUMPDEST PUSH2 0x1B61 JUMP JUMPDEST DUP2 DUP2 MSTORE SWAP2 POP PUSH1 0x20 DUP1 DUP4 ADD SWAP1 DUP5 DUP2 ADD PUSH1 0x0 JUMPDEST DUP5 DUP2 LT ISZERO PUSH2 0x1206 JUMPI PUSH2 0x11F4 DUP9 DUP5 DUP5 CALLDATALOAD DUP11 ADD ADD PUSH2 0x1211 JUMP JUMPDEST DUP5 MSTORE SWAP3 DUP3 ADD SWAP3 SWAP1 DUP3 ADD SWAP1 PUSH1 0x1 ADD PUSH2 0x11DD JUMP JUMPDEST POP POP POP POP POP SWAP3 SWAP2 POP POP JUMP JUMPDEST PUSH1 0x0 DUP3 PUSH1 0x1F DUP4 ADD SLT PUSH2 0x1221 JUMPI DUP1 DUP2 REVERT JUMPDEST DUP2 CALLDATALOAD PUSH8 0xFFFFFFFFFFFFFFFF DUP2 GT ISZERO PUSH2 0x1237 JUMPI DUP2 DUP3 REVERT JUMPDEST PUSH2 0x1268 PUSH1 0x20 PUSH32 0xFFFFFFFFFFFFFFFFFFFFFFFFFFFFFFFFFFFFFFFFFFFFFFFFFFFFFFFFFFFFFFE0 PUSH1 0x1F DUP5 ADD AND ADD PUSH2 0x1B61 JUMP JUMPDEST SWAP2 POP DUP1 DUP3 MSTORE DUP4 PUSH1 0x20 DUP3 DUP6 ADD ADD GT ISZERO PUSH2 0x127F JUMPI PUSH1 0x0 DUP1 REVERT JUMPDEST DUP1 PUSH1 0x20 DUP5 ADD PUSH1 0x20 DUP5 ADD CALLDATACOPY PUSH1 0x0 SWAP1 DUP3 ADD PUSH1 0x20 ADD MSTORE SWAP3 SWAP2 POP POP JUMP JUMPDEST PUSH1 0x0 PUSH2 0x1C0 DUP1 DUP4 DUP6 SUB SLT ISZERO PUSH2 0x12AB JUMPI DUP2 DUP3 REVERT JUMPDEST PUSH2 0x12B4 DUP2 PUSH2 0x1B61 JUMP JUMPDEST SWAP2 POP POP PUSH2 0x12C1 DUP4 DUP4 PUSH2 0x119E JUMP JUMPDEST DUP2 MSTORE PUSH2 0x12D0 DUP4 PUSH1 0x20 DUP5 ADD PUSH2 0x119E JUMP JUMPDEST PUSH1 0x20 DUP3 ADD MSTORE PUSH2 0x12E2 DUP4 PUSH1 0x40 DUP5 ADD PUSH2 0x119E JUMP JUMPDEST PUSH1 0x40 DUP3 ADD MSTORE PUSH2 0x12F4 DUP4 PUSH1 0x60 DUP5 ADD PUSH2 0x119E JUMP JUMPDEST PUSH1 0x60 DUP3 ADD MSTORE PUSH1 0x80 DUP3 ADD CALLDATALOAD PUSH1 0x80 DUP3 ADD MSTORE PUSH1 0xA0 DUP3 ADD CALLDATALOAD PUSH1 0xA0 DUP3 ADD MSTORE PUSH1 0xC0 DUP3 ADD CALLDATALOAD PUSH1 0xC0 DUP3 ADD MSTORE PUSH1 0xE0 DUP3 ADD CALLDATALOAD PUSH1 0xE0 DUP3 ADD MSTORE PUSH2 0x100 DUP1 DUP4 ADD CALLDATALOAD DUP2 DUP4 ADD MSTORE POP PUSH2 0x120 DUP1 DUP4 ADD CALLDATALOAD DUP2 DUP4 ADD MSTORE POP PUSH2 0x140 DUP1 DUP4 ADD CALLDATALOAD PUSH8 0xFFFFFFFFFFFFFFFF DUP1 DUP3 GT ISZERO PUSH2 0x1356 JUMPI PUSH1 0x0 DUP1 REVERT JUMPDEST PUSH2 0x1362 DUP7 DUP4 DUP8 ADD PUSH2 0x1211 JUMP JUMPDEST DUP4 DUP6 ADD MSTORE PUSH2 0x160 SWAP3 POP DUP3 DUP6 ADD CALLDATALOAD SWAP2 POP DUP1 DUP3 GT ISZERO PUSH2 0x137E JUMPI PUSH1 0x0 DUP1 REVERT JUMPDEST PUSH2 0x138A DUP7 DUP4 DUP8 ADD PUSH2 0x1211 JUMP JUMPDEST DUP4 DUP6 ADD MSTORE PUSH2 0x180 SWAP3 POP DUP3 DUP6 ADD CALLDATALOAD SWAP2 POP DUP1 DUP3 GT ISZERO PUSH2 0x13A6 JUMPI PUSH1 0x0 DUP1 REVERT JUMPDEST PUSH2 0x13B2 DUP7 DUP4 DUP8 ADD PUSH2 0x1211 JUMP JUMPDEST DUP4 DUP6 ADD MSTORE PUSH2 0x1A0 SWAP3 POP DUP3 DUP6 ADD CALLDATALOAD SWAP2 POP DUP1 DUP3 GT ISZERO PUSH2 0x13CE JUMPI PUSH1 0x0 DUP1 REVERT JUMPDEST POP PUSH2 0x13DB DUP6 DUP3 DUP7 ADD PUSH2 0x1211 JUMP JUMPDEST DUP3 DUP5 ADD MSTORE POP POP SWAP3 SWAP2 POP POP JUMP JUMPDEST PUSH1 0x0 PUSH1 0x20 DUP3 DUP5 SUB SLT ISZERO PUSH2 0x13F8 JUMPI DUP1 DUP2 REVERT JUMPDEST DUP2 MLOAD PUSH2 0x99F DUP2 PUSH2 0x1BD8 JUMP JUMPDEST PUSH1 0x0 DUP1 PUSH1 0x40 DUP4 DUP6 SUB SLT ISZERO PUSH2 0x1415 JUMPI DUP1 DUP2 REVERT JUMPDEST DUP3 CALLDATALOAD PUSH2 0x1420 DUP2 PUSH2 0x1BD8 JUMP JUMPDEST SWAP2 POP PUSH1 0x20 DUP4 ADD CALLDATALOAD PUSH2 0x1430 DUP2 PUSH2 0x1BD8 JUMP JUMPDEST DUP1 SWAP2 POP POP SWAP3 POP SWAP3 SWAP1 POP JUMP JUMPDEST PUSH1 0x0 DUP1 PUSH1 0x0 PUSH1 0x60 DUP5 DUP7 SUB SLT ISZERO PUSH2 0x144F JUMPI DUP1 DUP2 REVERT JUMPDEST DUP4 CALLDATALOAD PUSH8 0xFFFFFFFFFFFFFFFF DUP1 DUP3 GT ISZERO PUSH2 0x1466 JUMPI DUP3 DUP4 REVERT JUMPDEST DUP2 DUP7 ADD SWAP2 POP DUP7 PUSH1 0x1F DUP4 ADD SLT PUSH2 0x1479 JUMPI DUP3 DUP4 REVERT JUMPDEST DUP2 CALLDATALOAD PUSH2 0x1487 PUSH2 0x11C7 DUP3 PUSH2 0x1B88 JUMP JUMPDEST DUP2 DUP2 MSTORE PUSH1 0x20 DUP1 DUP3 ADD SWAP2 SWAP1 DUP6 DUP2 ADD DUP8 JUMPDEST DUP6 DUP2 LT ISZERO PUSH2 0x14BF JUMPI PUSH2 0x14AD DUP14 DUP5 DUP5 CALLDATALOAD DUP12 ADD ADD PUSH2 0x1298 JUMP JUMPDEST DUP6 MSTORE SWAP4 DUP3 ADD SWAP4 SWAP1 DUP3 ADD SWAP1 PUSH1 0x1 ADD PUSH2 0x1496 JUMP JUMPDEST POP SWAP2 SWAP9 POP DUP10 ADD CALLDATALOAD SWAP5 POP POP POP POP DUP1 DUP3 GT ISZERO PUSH2 0x14D7 JUMPI DUP3 DUP4 REVERT JUMPDEST POP PUSH2 0x14E4 DUP7 DUP3 DUP8 ADD PUSH2 0x11A9 JUMP JUMPDEST SWAP3 POP POP PUSH2 0x14F4 DUP6 PUSH1 0x40 DUP7 ADD PUSH2 0x119E JUMP JUMPDEST SWAP1 POP SWAP3 POP SWAP3 POP SWAP3 JUMP JUMPDEST PUSH1 0x0 PUSH1 0x20 DUP3 DUP5 SUB SLT ISZERO PUSH2 0x150E JUMPI DUP1 DUP2 REVERT JUMPDEST DUP2 MLOAD DUP1 ISZERO ISZERO DUP2 EQ PUSH2 0x99F JUMPI DUP2 DUP3 REVERT JUMPDEST PUSH1 0x0 DUP1 PUSH1 0x0 DUP1 PUSH1 0x60 DUP6 DUP8 SUB SLT ISZERO PUSH2 0x1532 JUMPI DUP1 DUP2 REVERT JUMPDEST DUP5 CALLDATALOAD SWAP4 POP PUSH1 0x20 DUP6 ADD CALLDATALOAD PUSH2 0x1544 DUP2 PUSH2 0x1BD8 JUMP JUMPDEST SWAP3 POP PUSH1 0x40 DUP6 ADD CALLDATALOAD PUSH8 0xFFFFFFFFFFFFFFFF DUP1 DUP3 GT ISZERO PUSH2 0x1560 JUMPI DUP3 DUP4 REVERT JUMPDEST DUP2 DUP8 ADD SWAP2 POP DUP8 PUSH1 0x1F DUP4 ADD SLT PUSH2 0x1573 JUMPI DUP3 DUP4 REVERT JUMPDEST DUP2 CALLDATALOAD DUP2 DUP2 GT ISZERO PUSH2 0x1581 JUMPI DUP4 DUP5 REVERT JUMPDEST DUP9 PUSH1 0x20 DUP3 DUP6 ADD ADD GT ISZERO PUSH2 0x1592 JUMPI DUP4 DUP5 REVERT JUMPDEST SWAP6 SWAP9 SWAP5 SWAP8 POP POP PUSH1 0x20 ADD SWAP5 POP POP POP JUMP JUMPDEST PUSH1 0x0 PUSH1 0x20 DUP3 DUP5 SUB SLT ISZERO PUSH2 0x15B2 JUMPI DUP1 DUP2 REVERT JUMPDEST DUP2 CALLDATALOAD PUSH32 0xFFFFFFFF00000000000000000000000000000000000000000000000000000000 DUP2 AND DUP2 EQ PUSH2 0x99F JUMPI DUP2 DUP3 REVERT JUMPDEST PUSH1 0x0 DUP1 PUSH1 0x0 DUP1 PUSH1 0x0 PUSH1 0xA0 DUP7 DUP9 SUB SLT ISZERO PUSH2 0x15F8 JUMPI DUP3 DUP4 REVERT JUMPDEST DUP6 CALLDATALOAD PUSH2 0x1603 DUP2 PUSH2 0x1BD8 JUMP JUMPDEST SWAP5 POP PUSH1 0x20 DUP7 ADD CALLDATALOAD PUSH2 0x1613 DUP2 PUSH2 0x1BD8 JUMP JUMPDEST SWAP4 POP PUSH1 0x40 DUP7 ADD CALLDATALOAD PUSH2 0x1623 DUP2 PUSH2 0x1BD8 JUMP JUMPDEST SWAP5 SWAP8 SWAP4 SWAP7 POP SWAP4 SWAP5 PUSH1 0x60 DUP2 ADD CALLDATALOAD SWAP5 POP PUSH1 0x80 ADD CALLDATALOAD SWAP3 SWAP2 POP POP JUMP JUMPDEST PUSH1 0x0 PUSH1 0x60 DUP3 DUP5 SUB SLT ISZERO PUSH2 0x164C JUMPI DUP1 DUP2 REVERT JUMPDEST PUSH2 0x1656 PUSH1 0x60 PUSH2 0x1B61 JUMP JUMPDEST DUP3 MLOAD PUSH1 0x7 DUP2 LT PUSH2 0x1664 JUMPI DUP3 DUP4 REVERT JUMPDEST DUP2 MSTORE PUSH1 0x20 DUP4 DUP2 ADD MLOAD SWAP1 DUP3 ADD MSTORE PUSH1 0x40 SWAP3 DUP4 ADD MLOAD SWAP3 DUP2 ADD SWAP3 SWAP1 SWAP3 MSTORE POP SWAP2 SWAP1 POP JUMP JUMPDEST PUSH1 0x0 PUSH1 0x20 DUP3 DUP5 SUB SLT ISZERO PUSH2 0x1694 JUMPI DUP1 DUP2 REVERT JUMPDEST DUP2 CALLDATALOAD PUSH8 0xFFFFFFFFFFFFFFFF DUP2 GT ISZERO PUSH2 0x16AA JUMPI DUP2 DUP3 REVERT JUMPDEST DUP3 ADD PUSH2 0x1C0 DUP2 DUP6 SUB SLT ISZERO PUSH2 0x99F JUMPI DUP2 DUP3 REVERT JUMPDEST PUSH1 0x0 DUP1 PUSH1 0x0 PUSH1 0x60 DUP5 DUP7 SUB SLT ISZERO PUSH2 0x16D0 JUMPI DUP1 DUP2 REVERT JUMPDEST DUP4 CALLDATALOAD PUSH8 0xFFFFFFFFFFFFFFFF DUP1 DUP3 GT ISZERO PUSH2 0x16E7 JUMPI DUP3 DUP4 REVERT JUMPDEST PUSH2 0x16F3 DUP8 DUP4 DUP9 ADD PUSH2 0x1298 JUMP JUMPDEST SWAP5 POP PUSH1 0x20 DUP7 ADD CALLDATALOAD SWAP2 POP DUP1 DUP3 GT ISZERO PUSH2 0x1708 JUMPI DUP3 DUP4 REVERT JUMPDEST POP PUSH2 0x1715 DUP7 DUP3 DUP8 ADD PUSH2 0x1211 JUMP JUMPDEST SWAP3 POP POP PUSH1 0x40 DUP5 ADD CALLDATALOAD PUSH2 0x1726 DUP2 PUSH2 0x1BD8 JUMP JUMPDEST DUP1 SWAP2 POP POP SWAP3 POP SWAP3 POP SWAP3 JUMP JUMPDEST PUSH1 0x0 PUSH1 0x20 DUP3 DUP5 SUB SLT ISZERO PUSH2 0x1742 JUMPI DUP1 DUP2 REVERT JUMPDEST POP CALLDATALOAD SWAP2 SWAP1 POP JUMP JUMPDEST PUSH1 0x0 PUSH1 0x20 DUP3 DUP5 SUB SLT ISZERO PUSH2 0x175A JUMPI DUP1 DUP2 REVERT JUMPDEST POP MLOAD SWAP2 SWAP1 POP JUMP JUMPDEST PUSH20 0xFFFFFFFFFFFFFFFFFFFFFFFFFFFFFFFFFFFFFFFF AND SWAP1 MSTORE JUMP JUMPDEST PUSH1 0x0 DUP2 MLOAD DUP1 DUP5 MSTORE PUSH2 0x1793 DUP2 PUSH1 0x20 DUP7 ADD PUSH1 0x20 DUP7 ADD PUSH2 0x1BA8 JUMP JUMPDEST PUSH1 0x1F ADD PUSH32 0xFFFFFFFFFFFFFFFFFFFFFFFFFFFFFFFFFFFFFFFFFFFFFFFFFFFFFFFFFFFFFFE0 AND SWAP3 SWAP1 SWAP3 ADD PUSH1 0x20 ADD SWAP3 SWAP2 POP POP JUMP JUMPDEST PUSH1 0x0 PUSH2 0x1C0 PUSH2 0x17D5 DUP5 DUP5 MLOAD PUSH2 0x1761 JUMP JUMPDEST PUSH1 0x20 DUP4 ADD MLOAD PUSH2 0x17E7 PUSH1 0x20 DUP7 ADD DUP3 PUSH2 0x1761 JUMP JUMPDEST POP PUSH1 0x40 DUP4 ADD MLOAD PUSH2 0x17FA PUSH1 0x40 DUP7 ADD DUP3 PUSH2 0x1761 JUMP JUMPDEST POP PUSH1 0x60 DUP4 ADD MLOAD PUSH2 0x180D PUSH1 0x60 DUP7 ADD DUP3 PUSH2 0x1761 JUMP JUMPDEST POP PUSH1 0x80 DUP4 ADD MLOAD PUSH1 0x80 DUP6 ADD MSTORE PUSH1 0xA0 DUP4 ADD MLOAD PUSH1 0xA0 DUP6 ADD MSTORE PUSH1 0xC0 DUP4 ADD MLOAD PUSH1 0xC0 DUP6 ADD MSTORE PUSH1 0xE0 DUP4 ADD MLOAD PUSH1 0xE0 DUP6 ADD MSTORE PUSH2 0x100 DUP1 DUP5 ADD MLOAD DUP2 DUP7 ADD MSTORE POP PUSH2 0x120 DUP1 DUP5 ADD MLOAD DUP2 DUP7 ADD MSTORE POP PUSH2 0x140 DUP1 DUP5 ADD MLOAD DUP3 DUP3 DUP8 ADD MSTORE PUSH2 0x1866 DUP4 DUP8 ADD DUP3 PUSH2 0x177B JUMP JUMPDEST SWAP3 POP POP POP PUSH2 0x160 DUP1 DUP5 ADD MLOAD DUP6 DUP4 SUB DUP3 DUP8 ADD MSTORE PUSH2 0x1882 DUP4 DUP3 PUSH2 0x177B JUMP JUMPDEST SWAP3 POP POP POP PUSH2 0x180 DUP1 DUP5 ADD MLOAD DUP6 DUP4 SUB DUP3 DUP8 ADD MSTORE PUSH2 0x189E DUP4 DUP3 PUSH2 0x177B JUMP JUMPDEST SWAP3 POP POP POP PUSH2 0x1A0 DUP1 DUP5 ADD MLOAD DUP6 DUP4 SUB DUP3 DUP8 ADD MSTORE PUSH2 0x18BA DUP4 DUP3 PUSH2 0x177B JUMP JUMPDEST SWAP7 SWAP6 POP POP POP POP POP POP JUMP JUMPDEST PUSH1 0x0 DUP3 DUP5 DUP4 CALLDATACOPY SWAP2 ADD SWAP1 DUP2 MSTORE SWAP2 SWAP1 POP JUMP JUMPDEST PUSH1 0x0 DUP3 MLOAD PUSH2 0x18E6 DUP2 DUP5 PUSH1 0x20 DUP8 ADD PUSH2 0x1BA8 JUMP JUMPDEST SWAP2 SWAP1 SWAP2 ADD SWAP3 SWAP2 POP POP JUMP JUMPDEST PUSH20 0xFFFFFFFFFFFFFFFFFFFFFFFFFFFFFFFFFFFFFFFF SWAP2 SWAP1 SWAP2 AND DUP2 MSTORE PUSH1 0x20 ADD SWAP1 JUMP JUMPDEST PUSH20 0xFFFFFFFFFFFFFFFFFFFFFFFFFFFFFFFFFFFFFFFF SWAP3 DUP4 AND DUP2 MSTORE SWAP2 AND PUSH1 0x20 DUP3 ADD MSTORE PUSH1 0x40 ADD SWAP1 JUMP JUMPDEST PUSH20 0xFFFFFFFFFFFFFFFFFFFFFFFFFFFFFFFFFFFFFFFF SWAP5 DUP6 AND DUP2 MSTORE SWAP3 SWAP1 SWAP4 AND PUSH1 0x20 DUP4 ADD MSTORE PUSH1 0x40 DUP3 ADD MSTORE PUSH1 0x60 DUP2 ADD SWAP2 SWAP1 SWAP2 MSTORE PUSH1 0x80 ADD SWAP1 JUMP JUMPDEST PUSH1 0x20 DUP1 DUP3 MSTORE DUP3 MLOAD DUP3 DUP3 ADD DUP2 SWAP1 MSTORE PUSH1 0x0 SWAP2 SWAP1 DUP5 DUP3 ADD SWAP1 PUSH1 0x40 DUP6 ADD SWAP1 DUP5 JUMPDEST DUP2 DUP2 LT ISZERO PUSH2 0x19BC JUMPI DUP4 MLOAD PUSH20 0xFFFFFFFFFFFFFFFFFFFFFFFFFFFFFFFFFFFFFFFF AND DUP4 MSTORE SWAP3 DUP5 ADD SWAP3 SWAP2 DUP5 ADD SWAP2 PUSH1 0x1 ADD PUSH2 0x198A JUMP JUMPDEST POP SWAP1 SWAP7 SWAP6 POP POP POP POP POP POP JUMP JUMPDEST PUSH1 0x20 DUP1 DUP3 MSTORE DUP3 MLOAD DUP3 DUP3 ADD DUP2 SWAP1 MSTORE PUSH1 0x0 SWAP2 SWAP1 DUP5 DUP3 ADD SWAP1 PUSH1 0x40 DUP6 ADD SWAP1 DUP5 JUMPDEST DUP2 DUP2 LT ISZERO PUSH2 0x19BC JUMPI DUP4 MLOAD DUP4 MSTORE SWAP3 DUP5 ADD SWAP3 SWAP2 DUP5 ADD SWAP2 PUSH1 0x1 ADD PUSH2 0x19E4 JUMP JUMPDEST SWAP1 ISZERO ISZERO DUP2 MSTORE PUSH1 0x20 ADD SWAP1 JUMP JUMPDEST PUSH1 0x0 DUP5 DUP3 MSTORE PUSH20 0xFFFFFFFFFFFFFFFFFFFFFFFFFFFFFFFFFFFFFFFF DUP5 AND PUSH1 0x20 DUP4 ADD MSTORE PUSH1 0x60 PUSH1 0x40 DUP4 ADD MSTORE PUSH2 0x1A40 PUSH1 0x60 DUP4 ADD DUP5 PUSH2 0x177B JUMP JUMPDEST SWAP6 SWAP5 POP POP POP POP POP JUMP JUMPDEST PUSH32 0xFFFFFFFF00000000000000000000000000000000000000000000000000000000 SWAP2 SWAP1 SWAP2 AND DUP2 MSTORE PUSH1 0x20 ADD SWAP1 JUMP JUMPDEST PUSH1 0x60 DUP2 ADD PUSH1 0x4 DUP6 LT PUSH2 0x1A84 JUMPI INVALID JUMPDEST SWAP4 DUP2 MSTORE PUSH1 0x20 DUP2 ADD SWAP3 SWAP1 SWAP3 MSTORE PUSH1 0x40 SWAP1 SWAP2 ADD MSTORE SWAP1 JUMP JUMPDEST PUSH1 0x60 DUP2 ADD PUSH1 0x8 DUP6 LT PUSH2 0x1A84 JUMPI INVALID JUMPDEST DUP2 MLOAD PUSH1 0x60 DUP3 ADD SWAP1 PUSH1 0x7 DUP2 LT PUSH2 0x1AB7 JUMPI INVALID JUMPDEST DUP1 DUP4 MSTORE POP PUSH1 0x20 DUP4 ADD MLOAD PUSH1 0x20 DUP4 ADD MSTORE PUSH1 0x40 DUP4 ADD MLOAD PUSH1 0x40 DUP4 ADD MSTORE SWAP3 SWAP2 POP POP JUMP JUMPDEST PUSH1 0x0 PUSH1 0x20 DUP3 MSTORE PUSH2 0x99F PUSH1 0x20 DUP4 ADD DUP5 PUSH2 0x17C5 JUMP JUMPDEST PUSH1 0x0 PUSH1 0x60 DUP3 MSTORE PUSH2 0x1AFB PUSH1 0x60 DUP4 ADD DUP7 PUSH2 0x17C5 JUMP JUMPDEST DUP3 DUP2 SUB PUSH1 0x20 DUP5 ADD MSTORE PUSH2 0x1B0D DUP2 DUP7 PUSH2 0x177B JUMP JUMPDEST SWAP2 POP POP PUSH20 0xFFFFFFFFFFFFFFFFFFFFFFFFFFFFFFFFFFFFFFFF DUP4 AND PUSH1 0x40 DUP4 ADD MSTORE SWAP5 SWAP4 POP POP POP POP JUMP JUMPDEST SWAP1 DUP2 MSTORE PUSH1 0x20 ADD SWAP1 JUMP JUMPDEST SWAP2 DUP3 MSTORE PUSH1 0x20 DUP3 ADD MSTORE PUSH1 0x40 ADD SWAP1 JUMP JUMPDEST SWAP3 DUP4 MSTORE PUSH1 0x20 DUP4 ADD SWAP2 SWAP1 SWAP2 MSTORE PUSH1 0x40 DUP3 ADD MSTORE PUSH1 0x60 ADD SWAP1 JUMP JUMPDEST PUSH1 0x40 MLOAD DUP2 DUP2 ADD PUSH8 0xFFFFFFFFFFFFFFFF DUP2 GT DUP3 DUP3 LT OR ISZERO PUSH2 0x1B80 JUMPI PUSH1 0x0 DUP1 REVERT JUMPDEST PUSH1 0x40 MSTORE SWAP2 SWAP1 POP JUMP JUMPDEST PUSH1 0x0 PUSH8 0xFFFFFFFFFFFFFFFF DUP3 GT ISZERO PUSH2 0x1B9E JUMPI DUP1 DUP2 REVERT JUMPDEST POP PUSH1 0x20 SWAP1 DUP2 MUL ADD SWAP1 JUMP JUMPDEST PUSH1 0x0 JUMPDEST DUP4 DUP2 LT ISZERO PUSH2 0x1BC3 JUMPI DUP2 DUP2 ADD MLOAD DUP4 DUP3 ADD MSTORE PUSH1 0x20 ADD PUSH2 0x1BAB JUMP JUMPDEST DUP4 DUP2 GT ISZERO PUSH2 0x1BD2 JUMPI PUSH1 0x0 DUP5 DUP5 ADD MSTORE JUMPDEST POP POP POP POP JUMP JUMPDEST PUSH20 0xFFFFFFFFFFFFFFFFFFFFFFFFFFFFFFFFFFFFFFFF DUP2 AND DUP2 EQ PUSH2 0x1BFA JUMPI PUSH1 0x0 DUP1 REVERT JUMPDEST POP JUMP INVALID PUSH1 0x80 PUSH1 0x40 MSTORE CALLVALUE DUP1 ISZERO PUSH2 0x10 JUMPI PUSH1 0x0 DUP1 REVERT JUMPDEST POP PUSH2 0x209 DUP1 PUSH2 0x20 PUSH1 0x0 CODECOPY PUSH1 0x0 RETURN INVALID PUSH1 0x80 PUSH1 0x40 MSTORE CALLVALUE DUP1 ISZERO PUSH2 0x10 JUMPI PUSH1 0x0 DUP1 REVERT JUMPDEST POP PUSH1 0x4 CALLDATASIZE LT PUSH2 0x41 JUMPI PUSH1 0x0 CALLDATALOAD PUSH1 0xE0 SHR DUP1 PUSH4 0x3C9DC74D EQ PUSH2 0x46 JUMPI DUP1 PUSH4 0x70A08231 EQ PUSH2 0x5B JUMPI DUP1 PUSH4 0xDD62ED3E EQ PUSH2 0x84 JUMPI JUMPDEST PUSH1 0x0 DUP1 REVERT JUMPDEST PUSH2 0x59 PUSH2 0x54 CALLDATASIZE PUSH1 0x4 PUSH2 0x187 JUMP JUMPDEST PUSH2 0x97 JUMP JUMPDEST STOP JUMPDEST PUSH2 0x6E PUSH2 0x69 CALLDATASIZE PUSH1 0x4 PUSH2 0x131 JUMP JUMPDEST PUSH2 0xD8 JUMP JUMPDEST PUSH1 0x40 MLOAD PUSH2 0x7B SWAP2 SWAP1 PUSH2 0x1CA JUMP JUMPDEST PUSH1 0x40 MLOAD DUP1 SWAP2 SUB SWAP1 RETURN JUMPDEST PUSH2 0x6E PUSH2 0x92 CALLDATASIZE PUSH1 0x4 PUSH2 0x153 JUMP JUMPDEST PUSH2 0xEA JUMP JUMPDEST PUSH20 0xFFFFFFFFFFFFFFFFFFFFFFFFFFFFFFFFFFFFFFFF SWAP4 DUP5 AND PUSH1 0x0 SWAP1 DUP2 MSTORE PUSH1 0x20 DUP2 DUP2 MSTORE PUSH1 0x40 DUP1 DUP4 KECCAK256 SWAP5 SWAP1 SWAP5 SSTORE PUSH1 0x1 DUP2 MSTORE DUP4 DUP3 KECCAK256 SWAP5 SWAP1 SWAP6 AND DUP2 MSTORE SWAP3 SWAP1 SWAP4 MSTORE SWAP1 KECCAK256 SSTORE JUMP JUMPDEST PUSH1 0x0 PUSH1 0x20 DUP2 SWAP1 MSTORE SWAP1 DUP2 MSTORE PUSH1 0x40 SWAP1 KECCAK256 SLOAD DUP2 JUMP JUMPDEST PUSH1 0x1 PUSH1 0x20 SWAP1 DUP2 MSTORE PUSH1 0x0 SWAP3 DUP4 MSTORE PUSH1 0x40 DUP1 DUP5 KECCAK256 SWAP1 SWAP2 MSTORE SWAP1 DUP3 MSTORE SWAP1 KECCAK256 SLOAD DUP2 JUMP JUMPDEST DUP1 CALLDATALOAD PUSH20 0xFFFFFFFFFFFFFFFFFFFFFFFFFFFFFFFFFFFFFFFF DUP2 AND DUP2 EQ PUSH2 0x12B JUMPI PUSH1 0x0 DUP1 REVERT JUMPDEST SWAP3 SWAP2 POP POP JUMP JUMPDEST PUSH1 0x0 PUSH1 0x20 DUP3 DUP5 SUB SLT ISZERO PUSH2 0x142 JUMPI DUP1 DUP2 REVERT JUMPDEST PUSH2 0x14C DUP4 DUP4 PUSH2 0x107 JUMP JUMPDEST SWAP4 SWAP3 POP POP POP JUMP JUMPDEST PUSH1 0x0 DUP1 PUSH1 0x40 DUP4 DUP6 SUB SLT ISZERO PUSH2 0x165 JUMPI DUP1 DUP2 REVERT JUMPDEST PUSH2 0x16F DUP5 DUP5 PUSH2 0x107 JUMP JUMPDEST SWAP2 POP PUSH2 0x17E DUP5 PUSH1 0x20 DUP6 ADD PUSH2 0x107 JUMP JUMPDEST SWAP1 POP SWAP3 POP SWAP3 SWAP1 POP JUMP JUMPDEST PUSH1 0x0 DUP1 PUSH1 0x0 DUP1 PUSH1 0x80 DUP6 DUP8 SUB SLT ISZERO PUSH2 0x19C JUMPI DUP2 DUP3 REVERT JUMPDEST PUSH2 0x1A6 DUP7 DUP7 PUSH2 0x107 JUMP JUMPDEST SWAP4 POP PUSH2 0x1B5 DUP7 PUSH1 0x20 DUP8 ADD PUSH2 0x107 JUMP JUMPDEST SWAP4 SWAP7 SWAP4 SWAP6 POP POP POP POP PUSH1 0x40 DUP3 ADD CALLDATALOAD SWAP2 PUSH1 0x60 ADD CALLDATALOAD SWAP1 JUMP JUMPDEST SWAP1 DUP2 MSTORE PUSH1 0x20 ADD SWAP1 JUMP INVALID LOG2 PUSH5 0x6970667358 0x22 SLT KECCAK256 0xEB 0xD 0x22 PUSH19 0xFED018B3091D495CCB8EBAF5649DC1DB728051 EXTCODEHASH 0x23 KECCAK256 LT 0xFC 0xD5 BLOCKHASH PUSH2 0x1064 PUSH20 0x6F6C634300060C0033A2646970667358221220ED 0x4F PUSH25 0x593596E6E55E8D8C682EE9D4704B164E95F1699910B767B5BF TIMESTAMP SWAP10 NUMBER NUMBER PUSH5 0x736F6C6343 STOP MOD 0xC STOP CALLER "
            }
        }
    },
    "sourceTreeHashHex": "0x101e1d1c3b902d314c0c5b6edff7817a3ed47fc38bb3c6c3d62e77ec79f18231",
    "compiler": {
        "name": "solc",
        "version": "0.6.12+commit.27d51765",
        "settings": {
            "remappings": [
                "@0x/contracts-utils=/Users/danielpyrathon/Desktop/Projects/protocol/node_modules/@0x/contracts-utils",
                "@0x/contracts-erc20=/Users/danielpyrathon/Desktop/Projects/protocol/node_modules/@0x/contracts-erc20",
                "@0x/contracts-zero-ex=/Users/danielpyrathon/Desktop/Projects/protocol/node_modules/@0x/contracts-zero-ex"
            ],
            "optimizer": {
                "enabled": true,
                "runs": 62500,
                "details": {
                    "yul": true,
                    "deduplicate": true,
                    "cse": true,
                    "constantOptimizer": true
                }
            },
            "outputSelection": {
                "*": {
                    "*": [
                        "abi",
                        "devdoc",
                        "evm.bytecode.object",
                        "evm.bytecode.sourceMap",
                        "evm.deployedBytecode.object",
                        "evm.deployedBytecode.sourceMap"
                    ]
                }
            },
            "evmVersion": "istanbul"
        }
    },
    "chains": {}
}