{
    "schemaVersion": "2.0.0",
    "contractName": "TestERC20BridgeSampler",
    "compilerOutput": {
        "abi": [
            {
                "inputs": [],
                "stateMutability": "nonpayable",
                "type": "constructor"
            },
            {
                "inputs": [],
                "name": "FAILURE_ADDRESS",
                "outputs": [
                    {
                        "internalType": "address payable",
                        "name": "",
                        "type": "address"
                    }
                ],
                "stateMutability": "view",
                "type": "function"
            },
            {
                "inputs": [
                    {
                        "internalType": "bytes[]",
                        "name": "callDatas",
                        "type": "bytes[]"
                    }
                ],
                "name": "batchCall",
                "outputs": [
                    {
                        "components": [
                            {
                                "internalType": "bytes",
                                "name": "data",
                                "type": "bytes"
                            },
                            {
                                "internalType": "bool",
                                "name": "success",
                                "type": "bool"
                            }
                        ],
                        "internalType": "struct ERC20BridgeSampler.CallResults[]",
                        "name": "callResults",
                        "type": "tuple[]"
                    }
                ],
                "stateMutability": "nonpayable",
                "type": "function"
            },
            {
                "inputs": [
                    {
                        "internalType": "address[]",
                        "name": "tokenAddresses",
                        "type": "address[]"
                    }
                ],
                "name": "createTokenExchanges",
                "outputs": [],
                "stateMutability": "nonpayable",
                "type": "function"
            },
            {
                "inputs": [],
                "name": "enableFailTrigger",
                "outputs": [],
                "stateMutability": "payable",
                "type": "function"
            },
            {
                "inputs": [
                    {
                        "components": [
                            {
                                "internalType": "uint256",
                                "name": "reserveOffset",
                                "type": "uint256"
                            },
                            {
                                "internalType": "address",
                                "name": "hintHandler",
                                "type": "address"
                            },
                            {
                                "internalType": "address",
                                "name": "networkProxy",
                                "type": "address"
                            },
                            {
                                "internalType": "address",
                                "name": "weth",
                                "type": "address"
                            },
                            {
                                "internalType": "bytes",
                                "name": "hint",
                                "type": "bytes"
                            }
                        ],
                        "internalType": "struct KyberSampler.KyberSamplerOpts",
                        "name": "opts",
                        "type": "tuple"
                    },
                    {
                        "internalType": "bytes32",
                        "name": "reserveId",
                        "type": "bytes32"
                    },
                    {
                        "internalType": "address",
                        "name": "takerToken",
                        "type": "address"
                    },
                    {
                        "internalType": "address",
                        "name": "makerToken",
                        "type": "address"
                    }
                ],
                "name": "encodeKyberHint",
                "outputs": [
                    {
                        "internalType": "bytes",
                        "name": "hint",
                        "type": "bytes"
                    }
                ],
                "stateMutability": "view",
                "type": "function"
            },
            {
                "inputs": [],
                "name": "eth2Dai",
                "outputs": [
                    {
                        "internalType": "contract TestERC20BridgeSamplerEth2Dai",
                        "name": "",
                        "type": "address"
                    }
                ],
                "stateMutability": "view",
                "type": "function"
            },
            {
                "inputs": [
                    {
                        "internalType": "contract IERC20TokenV06[]",
                        "name": "tokens",
                        "type": "address[]"
                    },
                    {
                        "internalType": "address",
                        "name": "account",
                        "type": "address"
                    },
                    {
                        "internalType": "address",
                        "name": "spender",
                        "type": "address"
                    }
                ],
                "name": "getAllowanceOf",
                "outputs": [
                    {
                        "internalType": "uint256[]",
                        "name": "allowances",
                        "type": "uint256[]"
                    }
                ],
                "stateMutability": "view",
                "type": "function"
            },
            {
                "inputs": [
                    {
                        "internalType": "contract IERC20TokenV06[]",
                        "name": "tokens",
                        "type": "address[]"
                    },
                    {
                        "internalType": "address",
                        "name": "account",
                        "type": "address"
                    }
                ],
                "name": "getBalanceOf",
                "outputs": [
                    {
                        "internalType": "uint256[]",
                        "name": "balances",
                        "type": "uint256[]"
                    }
                ],
                "stateMutability": "view",
                "type": "function"
            },
            {
                "inputs": [
                    {
                        "components": [
                            {
                                "internalType": "contract IERC20TokenV06",
                                "name": "makerToken",
                                "type": "address"
                            },
                            {
                                "internalType": "contract IERC20TokenV06",
                                "name": "takerToken",
                                "type": "address"
                            },
                            {
                                "internalType": "uint128",
                                "name": "makerAmount",
                                "type": "uint128"
                            },
                            {
                                "internalType": "uint128",
                                "name": "takerAmount",
                                "type": "uint128"
                            },
                            {
                                "internalType": "uint128",
                                "name": "takerTokenFeeAmount",
                                "type": "uint128"
                            },
                            {
                                "internalType": "address",
                                "name": "maker",
                                "type": "address"
                            },
                            {
                                "internalType": "address",
                                "name": "taker",
                                "type": "address"
                            },
                            {
                                "internalType": "address",
                                "name": "sender",
                                "type": "address"
                            },
                            {
                                "internalType": "address",
                                "name": "feeRecipient",
                                "type": "address"
                            },
                            {
                                "internalType": "bytes32",
                                "name": "pool",
                                "type": "bytes32"
                            },
                            {
                                "internalType": "uint64",
                                "name": "expiry",
                                "type": "uint64"
                            },
                            {
                                "internalType": "uint256",
                                "name": "salt",
                                "type": "uint256"
                            }
                        ],
                        "internalType": "struct IExchange.LimitOrder[]",
                        "name": "orders",
                        "type": "tuple[]"
                    },
                    {
                        "components": [
                            {
                                "internalType": "enum IExchange.SignatureType",
                                "name": "signatureType",
                                "type": "uint8"
                            },
                            {
                                "internalType": "uint8",
                                "name": "v",
                                "type": "uint8"
                            },
                            {
                                "internalType": "bytes32",
                                "name": "r",
                                "type": "bytes32"
                            },
                            {
                                "internalType": "bytes32",
                                "name": "s",
                                "type": "bytes32"
                            }
                        ],
                        "internalType": "struct IExchange.Signature[]",
                        "name": "orderSignatures",
                        "type": "tuple[]"
                    },
                    {
                        "internalType": "contract IExchange",
                        "name": "exchange",
                        "type": "address"
                    }
                ],
                "name": "getLimitOrderFillableMakerAssetAmounts",
                "outputs": [
                    {
                        "internalType": "uint256[]",
                        "name": "orderFillableMakerAssetAmounts",
                        "type": "uint256[]"
                    }
                ],
                "stateMutability": "view",
                "type": "function"
            },
            {
                "inputs": [
                    {
                        "components": [
                            {
                                "internalType": "contract IERC20TokenV06",
                                "name": "makerToken",
                                "type": "address"
                            },
                            {
                                "internalType": "contract IERC20TokenV06",
                                "name": "takerToken",
                                "type": "address"
                            },
                            {
                                "internalType": "uint128",
                                "name": "makerAmount",
                                "type": "uint128"
                            },
                            {
                                "internalType": "uint128",
                                "name": "takerAmount",
                                "type": "uint128"
                            },
                            {
                                "internalType": "uint128",
                                "name": "takerTokenFeeAmount",
                                "type": "uint128"
                            },
                            {
                                "internalType": "address",
                                "name": "maker",
                                "type": "address"
                            },
                            {
                                "internalType": "address",
                                "name": "taker",
                                "type": "address"
                            },
                            {
                                "internalType": "address",
                                "name": "sender",
                                "type": "address"
                            },
                            {
                                "internalType": "address",
                                "name": "feeRecipient",
                                "type": "address"
                            },
                            {
                                "internalType": "bytes32",
                                "name": "pool",
                                "type": "bytes32"
                            },
                            {
                                "internalType": "uint64",
                                "name": "expiry",
                                "type": "uint64"
                            },
                            {
                                "internalType": "uint256",
                                "name": "salt",
                                "type": "uint256"
                            }
                        ],
                        "internalType": "struct IExchange.LimitOrder",
                        "name": "order",
                        "type": "tuple"
                    },
                    {
                        "components": [
                            {
                                "internalType": "enum IExchange.SignatureType",
                                "name": "signatureType",
                                "type": "uint8"
                            },
                            {
                                "internalType": "uint8",
                                "name": "v",
                                "type": "uint8"
                            },
                            {
                                "internalType": "bytes32",
                                "name": "r",
                                "type": "bytes32"
                            },
                            {
                                "internalType": "bytes32",
                                "name": "s",
                                "type": "bytes32"
                            }
                        ],
                        "internalType": "struct IExchange.Signature",
                        "name": "",
                        "type": "tuple"
                    },
                    {
                        "internalType": "contract IExchange",
                        "name": "",
                        "type": "address"
                    }
                ],
                "name": "getLimitOrderFillableTakerAmount",
                "outputs": [
                    {
                        "internalType": "uint256",
                        "name": "fillableTakerAmount",
                        "type": "uint256"
                    }
                ],
                "stateMutability": "view",
                "type": "function"
            },
            {
                "inputs": [
                    {
                        "components": [
                            {
                                "internalType": "contract IERC20TokenV06",
                                "name": "makerToken",
                                "type": "address"
                            },
                            {
                                "internalType": "contract IERC20TokenV06",
                                "name": "takerToken",
                                "type": "address"
                            },
                            {
                                "internalType": "uint128",
                                "name": "makerAmount",
                                "type": "uint128"
                            },
                            {
                                "internalType": "uint128",
                                "name": "takerAmount",
                                "type": "uint128"
                            },
                            {
                                "internalType": "uint128",
                                "name": "takerTokenFeeAmount",
                                "type": "uint128"
                            },
                            {
                                "internalType": "address",
                                "name": "maker",
                                "type": "address"
                            },
                            {
                                "internalType": "address",
                                "name": "taker",
                                "type": "address"
                            },
                            {
                                "internalType": "address",
                                "name": "sender",
                                "type": "address"
                            },
                            {
                                "internalType": "address",
                                "name": "feeRecipient",
                                "type": "address"
                            },
                            {
                                "internalType": "bytes32",
                                "name": "pool",
                                "type": "bytes32"
                            },
                            {
                                "internalType": "uint64",
                                "name": "expiry",
                                "type": "uint64"
                            },
                            {
                                "internalType": "uint256",
                                "name": "salt",
                                "type": "uint256"
                            }
                        ],
                        "internalType": "struct IExchange.LimitOrder[]",
                        "name": "orders",
                        "type": "tuple[]"
                    },
                    {
                        "components": [
                            {
                                "internalType": "enum IExchange.SignatureType",
                                "name": "signatureType",
                                "type": "uint8"
                            },
                            {
                                "internalType": "uint8",
                                "name": "v",
                                "type": "uint8"
                            },
                            {
                                "internalType": "bytes32",
                                "name": "r",
                                "type": "bytes32"
                            },
                            {
                                "internalType": "bytes32",
                                "name": "s",
                                "type": "bytes32"
                            }
                        ],
                        "internalType": "struct IExchange.Signature[]",
                        "name": "orderSignatures",
                        "type": "tuple[]"
                    },
                    {
                        "internalType": "contract IExchange",
                        "name": "exchange",
                        "type": "address"
                    }
                ],
                "name": "getLimitOrderFillableTakerAssetAmounts",
                "outputs": [
                    {
                        "internalType": "uint256[]",
                        "name": "orderFillableTakerAssetAmounts",
                        "type": "uint256[]"
                    }
                ],
                "stateMutability": "view",
                "type": "function"
            },
            {
                "inputs": [
                    {
                        "internalType": "contract IERC20TokenV06[]",
                        "name": "tokens",
                        "type": "address[]"
                    }
                ],
                "name": "getTokenDecimals",
                "outputs": [
                    {
                        "internalType": "uint256[]",
                        "name": "decimals",
                        "type": "uint256[]"
                    }
                ],
                "stateMutability": "view",
                "type": "function"
            },
            {
                "inputs": [
                    {
                        "internalType": "address",
                        "name": "account",
                        "type": "address"
                    }
                ],
                "name": "isContract",
                "outputs": [
                    {
                        "internalType": "bool",
                        "name": "",
                        "type": "bool"
                    }
                ],
                "stateMutability": "view",
                "type": "function"
            },
            {
                "inputs": [],
                "name": "kyber",
                "outputs": [
                    {
                        "internalType": "contract TestERC20BridgeSamplerKyberNetwork",
                        "name": "",
                        "type": "address"
                    }
                ],
                "stateMutability": "view",
                "type": "function"
            },
            {
                "inputs": [
                    {
                        "internalType": "address",
                        "name": "poolAddress",
                        "type": "address"
                    },
                    {
                        "internalType": "address",
                        "name": "takerToken",
                        "type": "address"
                    },
                    {
                        "internalType": "address",
                        "name": "makerToken",
                        "type": "address"
                    },
                    {
                        "internalType": "uint256[]",
                        "name": "makerTokenAmounts",
                        "type": "uint256[]"
                    }
                ],
                "name": "sampleBuysFromBalancer",
                "outputs": [
                    {
                        "internalType": "uint256[]",
                        "name": "takerTokenAmounts",
                        "type": "uint256[]"
                    }
                ],
                "stateMutability": "view",
                "type": "function"
            },
            {
                "inputs": [
                    {
                        "components": [
                            {
                                "internalType": "bytes32",
                                "name": "poolId",
                                "type": "bytes32"
                            },
                            {
                                "internalType": "address",
                                "name": "vault",
                                "type": "address"
                            }
                        ],
                        "internalType": "struct BalancerV2Sampler.BalancerV2PoolInfo",
                        "name": "poolInfo",
                        "type": "tuple"
                    },
                    {
                        "internalType": "address",
                        "name": "takerToken",
                        "type": "address"
                    },
                    {
                        "internalType": "address",
                        "name": "makerToken",
                        "type": "address"
                    },
                    {
                        "internalType": "uint256[]",
                        "name": "makerTokenAmounts",
                        "type": "uint256[]"
                    }
                ],
                "name": "sampleBuysFromBalancerV2",
                "outputs": [
                    {
                        "internalType": "uint256[]",
                        "name": "takerTokenAmounts",
                        "type": "uint256[]"
                    }
                ],
                "stateMutability": "nonpayable",
                "type": "function"
            },
            {
                "inputs": [
                    {
                        "components": [
                            {
                                "internalType": "contract IBancorRegistry",
                                "name": "registry",
                                "type": "address"
                            },
                            {
                                "internalType": "address[][]",
                                "name": "paths",
                                "type": "address[][]"
                            }
                        ],
                        "internalType": "struct BancorSampler.BancorSamplerOpts",
                        "name": "opts",
                        "type": "tuple"
                    },
                    {
                        "internalType": "address",
                        "name": "takerToken",
                        "type": "address"
                    },
                    {
                        "internalType": "address",
                        "name": "makerToken",
                        "type": "address"
                    },
                    {
                        "internalType": "uint256[]",
                        "name": "makerTokenAmounts",
                        "type": "uint256[]"
                    }
                ],
                "name": "sampleBuysFromBancor",
                "outputs": [
                    {
                        "internalType": "address",
                        "name": "bancorNetwork",
                        "type": "address"
                    },
                    {
                        "internalType": "address[]",
                        "name": "path",
                        "type": "address[]"
                    },
                    {
                        "internalType": "uint256[]",
                        "name": "takerTokenAmounts",
                        "type": "uint256[]"
                    }
                ],
                "stateMutability": "view",
                "type": "function"
            },
            {
                "inputs": [
                    {
                        "components": [
                            {
                                "internalType": "address",
                                "name": "poolAddress",
                                "type": "address"
                            },
                            {
                                "internalType": "bytes4",
                                "name": "sellQuoteFunctionSelector",
                                "type": "bytes4"
                            },
                            {
                                "internalType": "bytes4",
                                "name": "buyQuoteFunctionSelector",
                                "type": "bytes4"
                            }
                        ],
                        "internalType": "struct CurveSampler.CurveInfo",
                        "name": "curveInfo",
                        "type": "tuple"
                    },
                    {
                        "internalType": "int128",
                        "name": "fromTokenIdx",
                        "type": "int128"
                    },
                    {
                        "internalType": "int128",
                        "name": "toTokenIdx",
                        "type": "int128"
                    },
                    {
                        "internalType": "uint256[]",
                        "name": "makerTokenAmounts",
                        "type": "uint256[]"
                    }
                ],
                "name": "sampleBuysFromCurve",
                "outputs": [
                    {
                        "internalType": "uint256[]",
                        "name": "takerTokenAmounts",
                        "type": "uint256[]"
                    }
                ],
                "stateMutability": "view",
                "type": "function"
            },
            {
                "inputs": [
                    {
                        "components": [
                            {
                                "internalType": "address",
                                "name": "registry",
                                "type": "address"
                            },
                            {
                                "internalType": "address",
                                "name": "helper",
                                "type": "address"
                            }
                        ],
                        "internalType": "struct DODOSampler.DODOSamplerOpts",
                        "name": "opts",
                        "type": "tuple"
                    },
                    {
                        "internalType": "address",
                        "name": "takerToken",
                        "type": "address"
                    },
                    {
                        "internalType": "address",
                        "name": "makerToken",
                        "type": "address"
                    },
                    {
                        "internalType": "uint256[]",
                        "name": "makerTokenAmounts",
                        "type": "uint256[]"
                    }
                ],
                "name": "sampleBuysFromDODO",
                "outputs": [
                    {
                        "internalType": "bool",
                        "name": "sellBase",
                        "type": "bool"
                    },
                    {
                        "internalType": "address",
                        "name": "pool",
                        "type": "address"
                    },
                    {
                        "internalType": "uint256[]",
                        "name": "takerTokenAmounts",
                        "type": "uint256[]"
                    }
                ],
                "stateMutability": "view",
                "type": "function"
            },
            {
                "inputs": [
                    {
                        "internalType": "address",
                        "name": "registry",
                        "type": "address"
                    },
                    {
                        "internalType": "uint256",
                        "name": "offset",
                        "type": "uint256"
                    },
                    {
                        "internalType": "address",
                        "name": "takerToken",
                        "type": "address"
                    },
                    {
                        "internalType": "address",
                        "name": "makerToken",
                        "type": "address"
                    },
                    {
                        "internalType": "uint256[]",
                        "name": "makerTokenAmounts",
                        "type": "uint256[]"
                    }
                ],
                "name": "sampleBuysFromDODOV2",
                "outputs": [
                    {
                        "internalType": "bool",
                        "name": "sellBase",
                        "type": "bool"
                    },
                    {
                        "internalType": "address",
                        "name": "pool",
                        "type": "address"
                    },
                    {
                        "internalType": "uint256[]",
                        "name": "takerTokenAmounts",
                        "type": "uint256[]"
                    }
                ],
                "stateMutability": "view",
                "type": "function"
            },
            {
                "inputs": [
                    {
                        "internalType": "address",
                        "name": "router",
                        "type": "address"
                    },
                    {
                        "internalType": "address",
                        "name": "takerToken",
                        "type": "address"
                    },
                    {
                        "internalType": "address",
                        "name": "makerToken",
                        "type": "address"
                    },
                    {
                        "internalType": "uint256[]",
                        "name": "makerTokenAmounts",
                        "type": "uint256[]"
                    }
                ],
                "name": "sampleBuysFromEth2Dai",
                "outputs": [
                    {
                        "internalType": "uint256[]",
                        "name": "takerTokenAmounts",
                        "type": "uint256[]"
                    }
                ],
                "stateMutability": "view",
                "type": "function"
            },
            {
                "inputs": [
                    {
                        "components": [
                            {
                                "internalType": "uint256",
                                "name": "reserveOffset",
                                "type": "uint256"
                            },
                            {
                                "internalType": "address",
                                "name": "hintHandler",
                                "type": "address"
                            },
                            {
                                "internalType": "address",
                                "name": "networkProxy",
                                "type": "address"
                            },
                            {
                                "internalType": "address",
                                "name": "weth",
                                "type": "address"
                            },
                            {
                                "internalType": "bytes",
                                "name": "hint",
                                "type": "bytes"
                            }
                        ],
                        "internalType": "struct KyberSampler.KyberSamplerOpts",
                        "name": "opts",
                        "type": "tuple"
                    },
                    {
                        "internalType": "address",
                        "name": "takerToken",
                        "type": "address"
                    },
                    {
                        "internalType": "address",
                        "name": "makerToken",
                        "type": "address"
                    },
                    {
                        "internalType": "uint256[]",
                        "name": "makerTokenAmounts",
                        "type": "uint256[]"
                    }
                ],
                "name": "sampleBuysFromKyberNetwork",
                "outputs": [
                    {
                        "internalType": "bytes32",
                        "name": "reserveId",
                        "type": "bytes32"
                    },
                    {
                        "internalType": "bytes",
                        "name": "hint",
                        "type": "bytes"
                    },
                    {
                        "internalType": "uint256[]",
                        "name": "takerTokenAmounts",
                        "type": "uint256[]"
                    }
                ],
                "stateMutability": "view",
                "type": "function"
            },
            {
                "inputs": [
                    {
                        "internalType": "address",
                        "name": "providerAddress",
                        "type": "address"
                    },
                    {
                        "internalType": "address",
                        "name": "takerToken",
                        "type": "address"
                    },
                    {
                        "internalType": "address",
                        "name": "makerToken",
                        "type": "address"
                    },
                    {
                        "internalType": "uint256[]",
                        "name": "makerTokenAmounts",
                        "type": "uint256[]"
                    }
                ],
                "name": "sampleBuysFromLiquidityProvider",
                "outputs": [
                    {
                        "internalType": "uint256[]",
                        "name": "takerTokenAmounts",
                        "type": "uint256[]"
                    }
                ],
                "stateMutability": "view",
                "type": "function"
            },
            {
                "inputs": [
                    {
                        "internalType": "address",
                        "name": "router",
                        "type": "address"
                    },
                    {
                        "internalType": "address",
                        "name": "takerToken",
                        "type": "address"
                    },
                    {
                        "internalType": "address",
                        "name": "makerToken",
                        "type": "address"
                    },
                    {
                        "internalType": "uint256[]",
                        "name": "makerTokenAmounts",
                        "type": "uint256[]"
                    }
                ],
                "name": "sampleBuysFromMStable",
                "outputs": [
                    {
                        "internalType": "uint256[]",
                        "name": "takerTokenAmounts",
                        "type": "uint256[]"
                    }
                ],
                "stateMutability": "view",
                "type": "function"
            },
            {
                "inputs": [
                    {
                        "components": [
                            {
                                "internalType": "address",
                                "name": "psmAddress",
                                "type": "address"
                            },
                            {
                                "internalType": "bytes32",
                                "name": "ilkIdentifier",
                                "type": "bytes32"
                            },
                            {
                                "internalType": "address",
                                "name": "gemTokenAddress",
                                "type": "address"
                            }
                        ],
                        "internalType": "struct MakerPSMSampler.MakerPsmInfo",
                        "name": "psmInfo",
                        "type": "tuple"
                    },
                    {
                        "internalType": "address",
                        "name": "takerToken",
                        "type": "address"
                    },
                    {
                        "internalType": "address",
                        "name": "makerToken",
                        "type": "address"
                    },
                    {
                        "internalType": "uint256[]",
                        "name": "makerTokenAmounts",
                        "type": "uint256[]"
                    }
                ],
                "name": "sampleBuysFromMakerPsm",
                "outputs": [
                    {
                        "internalType": "uint256[]",
                        "name": "takerTokenAmounts",
                        "type": "uint256[]"
                    }
                ],
                "stateMutability": "view",
                "type": "function"
            },
            {
                "inputs": [
                    {
                        "internalType": "address",
                        "name": "registry",
                        "type": "address"
                    },
                    {
                        "internalType": "address",
                        "name": "takerToken",
                        "type": "address"
                    },
                    {
                        "internalType": "address",
                        "name": "makerToken",
                        "type": "address"
                    },
                    {
                        "internalType": "uint256[]",
                        "name": "makerTokenAmounts",
                        "type": "uint256[]"
                    }
                ],
                "name": "sampleBuysFromMooniswap",
                "outputs": [
                    {
                        "internalType": "contract IMooniswap",
                        "name": "pool",
                        "type": "address"
                    },
                    {
                        "internalType": "uint256[]",
                        "name": "takerTokenAmounts",
                        "type": "uint256[]"
                    }
                ],
                "stateMutability": "view",
                "type": "function"
            },
            {
                "inputs": [
                    {
                        "internalType": "address",
                        "name": "pool",
                        "type": "address"
                    },
                    {
                        "internalType": "address",
                        "name": "takerToken",
                        "type": "address"
                    },
                    {
                        "internalType": "address",
                        "name": "makerToken",
                        "type": "address"
                    },
                    {
                        "internalType": "uint256[]",
                        "name": "makerTokenAmounts",
                        "type": "uint256[]"
                    }
                ],
                "name": "sampleBuysFromShell",
                "outputs": [
                    {
                        "internalType": "uint256[]",
                        "name": "takerTokenAmounts",
                        "type": "uint256[]"
                    }
                ],
                "stateMutability": "view",
                "type": "function"
            },
            {
                "inputs": [
                    {
                        "components": [
                            {
                                "internalType": "address",
                                "name": "poolAddress",
                                "type": "address"
                            },
                            {
                                "internalType": "bytes4",
                                "name": "sellQuoteFunctionSelector",
                                "type": "bytes4"
                            },
                            {
                                "internalType": "bytes4",
                                "name": "buyQuoteFunctionSelector",
                                "type": "bytes4"
                            }
                        ],
                        "internalType": "struct SmoothySampler.SmoothyInfo",
                        "name": "smoothyInfo",
                        "type": "tuple"
                    },
                    {
                        "internalType": "int128",
                        "name": "fromTokenIdx",
                        "type": "int128"
                    },
                    {
                        "internalType": "int128",
                        "name": "toTokenIdx",
                        "type": "int128"
                    },
                    {
                        "internalType": "uint256[]",
                        "name": "makerTokenAmounts",
                        "type": "uint256[]"
                    }
                ],
                "name": "sampleBuysFromSmoothy",
                "outputs": [
                    {
                        "internalType": "uint256[]",
                        "name": "takerTokenAmounts",
                        "type": "uint256[]"
                    }
                ],
                "stateMutability": "view",
                "type": "function"
            },
            {
                "inputs": [
                    {
                        "internalType": "address",
                        "name": "router",
                        "type": "address"
                    },
                    {
                        "internalType": "address",
                        "name": "takerToken",
                        "type": "address"
                    },
                    {
                        "internalType": "address",
                        "name": "makerToken",
                        "type": "address"
                    },
                    {
                        "internalType": "uint256[]",
                        "name": "makerTokenAmounts",
                        "type": "uint256[]"
                    }
                ],
                "name": "sampleBuysFromUniswap",
                "outputs": [
                    {
                        "internalType": "uint256[]",
                        "name": "takerTokenAmounts",
                        "type": "uint256[]"
                    }
                ],
                "stateMutability": "view",
                "type": "function"
            },
            {
                "inputs": [
                    {
                        "internalType": "address",
                        "name": "router",
                        "type": "address"
                    },
                    {
                        "internalType": "address[]",
                        "name": "path",
                        "type": "address[]"
                    },
                    {
                        "internalType": "uint256[]",
                        "name": "makerTokenAmounts",
                        "type": "uint256[]"
                    }
                ],
                "name": "sampleBuysFromUniswapV2",
                "outputs": [
                    {
                        "internalType": "uint256[]",
                        "name": "takerTokenAmounts",
                        "type": "uint256[]"
                    }
                ],
                "stateMutability": "view",
                "type": "function"
            },
            {
                "inputs": [
                    {
                        "internalType": "contract IUniswapV3Quoter",
                        "name": "quoter",
                        "type": "address"
                    },
                    {
                        "internalType": "contract IERC20TokenV06[]",
                        "name": "path",
                        "type": "address[]"
                    },
                    {
                        "internalType": "uint256[]",
                        "name": "makerTokenAmounts",
                        "type": "uint256[]"
                    }
                ],
                "name": "sampleBuysFromUniswapV3",
                "outputs": [
                    {
                        "internalType": "uint256[]",
                        "name": "takerTokenAmounts",
                        "type": "uint256[]"
                    },
                    {
                        "internalType": "bytes[]",
                        "name": "uniswapPaths",
                        "type": "bytes[]"
                    }
                ],
                "stateMutability": "nonpayable",
                "type": "function"
            },
            {
                "inputs": [
                    {
                        "components": [
                            {
                                "internalType": "uint256",
                                "name": "reserveOffset",
                                "type": "uint256"
                            },
                            {
                                "internalType": "address",
                                "name": "hintHandler",
                                "type": "address"
                            },
                            {
                                "internalType": "address",
                                "name": "networkProxy",
                                "type": "address"
                            },
                            {
                                "internalType": "address",
                                "name": "weth",
                                "type": "address"
                            },
                            {
                                "internalType": "bytes",
                                "name": "hint",
                                "type": "bytes"
                            }
                        ],
                        "internalType": "struct KyberSampler.KyberSamplerOpts",
                        "name": "opts",
                        "type": "tuple"
                    },
                    {
                        "internalType": "address",
                        "name": "takerToken",
                        "type": "address"
                    },
                    {
                        "internalType": "address",
                        "name": "makerToken",
                        "type": "address"
                    },
                    {
                        "internalType": "uint256",
                        "name": "takerTokenAmount",
                        "type": "uint256"
                    }
                ],
                "name": "sampleSellFromKyberNetwork",
                "outputs": [
                    {
                        "internalType": "uint256",
                        "name": "makerTokenAmount",
                        "type": "uint256"
                    }
                ],
                "stateMutability": "view",
                "type": "function"
            },
            {
                "inputs": [
                    {
                        "internalType": "address",
                        "name": "poolAddress",
                        "type": "address"
                    },
                    {
                        "internalType": "address",
                        "name": "takerToken",
                        "type": "address"
                    },
                    {
                        "internalType": "address",
                        "name": "makerToken",
                        "type": "address"
                    },
                    {
                        "internalType": "uint256[]",
                        "name": "takerTokenAmounts",
                        "type": "uint256[]"
                    }
                ],
                "name": "sampleSellsFromBalancer",
                "outputs": [
                    {
                        "internalType": "uint256[]",
                        "name": "makerTokenAmounts",
                        "type": "uint256[]"
                    }
                ],
                "stateMutability": "view",
                "type": "function"
            },
            {
                "inputs": [
                    {
                        "components": [
                            {
                                "internalType": "bytes32",
                                "name": "poolId",
                                "type": "bytes32"
                            },
                            {
                                "internalType": "address",
                                "name": "vault",
                                "type": "address"
                            }
                        ],
                        "internalType": "struct BalancerV2Sampler.BalancerV2PoolInfo",
                        "name": "poolInfo",
                        "type": "tuple"
                    },
                    {
                        "internalType": "address",
                        "name": "takerToken",
                        "type": "address"
                    },
                    {
                        "internalType": "address",
                        "name": "makerToken",
                        "type": "address"
                    },
                    {
                        "internalType": "uint256[]",
                        "name": "takerTokenAmounts",
                        "type": "uint256[]"
                    }
                ],
                "name": "sampleSellsFromBalancerV2",
                "outputs": [
                    {
                        "internalType": "uint256[]",
                        "name": "makerTokenAmounts",
                        "type": "uint256[]"
                    }
                ],
                "stateMutability": "nonpayable",
                "type": "function"
            },
            {
                "inputs": [
                    {
                        "components": [
                            {
                                "internalType": "contract IBancorRegistry",
                                "name": "registry",
                                "type": "address"
                            },
                            {
                                "internalType": "address[][]",
                                "name": "paths",
                                "type": "address[][]"
                            }
                        ],
                        "internalType": "struct BancorSampler.BancorSamplerOpts",
                        "name": "opts",
                        "type": "tuple"
                    },
                    {
                        "internalType": "address",
                        "name": "takerToken",
                        "type": "address"
                    },
                    {
                        "internalType": "address",
                        "name": "makerToken",
                        "type": "address"
                    },
                    {
                        "internalType": "uint256[]",
                        "name": "takerTokenAmounts",
                        "type": "uint256[]"
                    }
                ],
                "name": "sampleSellsFromBancor",
                "outputs": [
                    {
                        "internalType": "address",
                        "name": "bancorNetwork",
                        "type": "address"
                    },
                    {
                        "internalType": "address[]",
                        "name": "path",
                        "type": "address[]"
                    },
                    {
                        "internalType": "uint256[]",
                        "name": "makerTokenAmounts",
                        "type": "uint256[]"
                    }
                ],
                "stateMutability": "view",
                "type": "function"
            },
            {
                "inputs": [
                    {
                        "components": [
                            {
                                "internalType": "address",
                                "name": "poolAddress",
                                "type": "address"
                            },
                            {
                                "internalType": "bytes4",
                                "name": "sellQuoteFunctionSelector",
                                "type": "bytes4"
                            },
                            {
                                "internalType": "bytes4",
                                "name": "buyQuoteFunctionSelector",
                                "type": "bytes4"
                            }
                        ],
                        "internalType": "struct CurveSampler.CurveInfo",
                        "name": "curveInfo",
                        "type": "tuple"
                    },
                    {
                        "internalType": "int128",
                        "name": "fromTokenIdx",
                        "type": "int128"
                    },
                    {
                        "internalType": "int128",
                        "name": "toTokenIdx",
                        "type": "int128"
                    },
                    {
                        "internalType": "uint256[]",
                        "name": "takerTokenAmounts",
                        "type": "uint256[]"
                    }
                ],
                "name": "sampleSellsFromCurve",
                "outputs": [
                    {
                        "internalType": "uint256[]",
                        "name": "makerTokenAmounts",
                        "type": "uint256[]"
                    }
                ],
                "stateMutability": "view",
                "type": "function"
            },
            {
                "inputs": [
                    {
                        "components": [
                            {
                                "internalType": "address",
                                "name": "registry",
                                "type": "address"
                            },
                            {
                                "internalType": "address",
                                "name": "helper",
                                "type": "address"
                            }
                        ],
                        "internalType": "struct DODOSampler.DODOSamplerOpts",
                        "name": "opts",
                        "type": "tuple"
                    },
                    {
                        "internalType": "address",
                        "name": "takerToken",
                        "type": "address"
                    },
                    {
                        "internalType": "address",
                        "name": "makerToken",
                        "type": "address"
                    },
                    {
                        "internalType": "uint256[]",
                        "name": "takerTokenAmounts",
                        "type": "uint256[]"
                    }
                ],
                "name": "sampleSellsFromDODO",
                "outputs": [
                    {
                        "internalType": "bool",
                        "name": "sellBase",
                        "type": "bool"
                    },
                    {
                        "internalType": "address",
                        "name": "pool",
                        "type": "address"
                    },
                    {
                        "internalType": "uint256[]",
                        "name": "makerTokenAmounts",
                        "type": "uint256[]"
                    }
                ],
                "stateMutability": "view",
                "type": "function"
            },
            {
                "inputs": [
                    {
                        "internalType": "address",
                        "name": "registry",
                        "type": "address"
                    },
                    {
                        "internalType": "uint256",
                        "name": "offset",
                        "type": "uint256"
                    },
                    {
                        "internalType": "address",
                        "name": "takerToken",
                        "type": "address"
                    },
                    {
                        "internalType": "address",
                        "name": "makerToken",
                        "type": "address"
                    },
                    {
                        "internalType": "uint256[]",
                        "name": "takerTokenAmounts",
                        "type": "uint256[]"
                    }
                ],
                "name": "sampleSellsFromDODOV2",
                "outputs": [
                    {
                        "internalType": "bool",
                        "name": "sellBase",
                        "type": "bool"
                    },
                    {
                        "internalType": "address",
                        "name": "pool",
                        "type": "address"
                    },
                    {
                        "internalType": "uint256[]",
                        "name": "makerTokenAmounts",
                        "type": "uint256[]"
                    }
                ],
                "stateMutability": "view",
                "type": "function"
            },
            {
                "inputs": [
                    {
                        "internalType": "address",
                        "name": "router",
                        "type": "address"
                    },
                    {
                        "internalType": "address",
                        "name": "takerToken",
                        "type": "address"
                    },
                    {
                        "internalType": "address",
                        "name": "makerToken",
                        "type": "address"
                    },
                    {
                        "internalType": "uint256[]",
                        "name": "takerTokenAmounts",
                        "type": "uint256[]"
                    }
                ],
                "name": "sampleSellsFromEth2Dai",
                "outputs": [
                    {
                        "internalType": "uint256[]",
                        "name": "makerTokenAmounts",
                        "type": "uint256[]"
                    }
                ],
                "stateMutability": "view",
                "type": "function"
            },
            {
                "inputs": [
                    {
                        "components": [
                            {
                                "internalType": "uint256",
                                "name": "reserveOffset",
                                "type": "uint256"
                            },
                            {
                                "internalType": "address",
                                "name": "hintHandler",
                                "type": "address"
                            },
                            {
                                "internalType": "address",
                                "name": "networkProxy",
                                "type": "address"
                            },
                            {
                                "internalType": "address",
                                "name": "weth",
                                "type": "address"
                            },
                            {
                                "internalType": "bytes",
                                "name": "hint",
                                "type": "bytes"
                            }
                        ],
                        "internalType": "struct KyberSampler.KyberSamplerOpts",
                        "name": "opts",
                        "type": "tuple"
                    },
                    {
                        "internalType": "address",
                        "name": "takerToken",
                        "type": "address"
                    },
                    {
                        "internalType": "address",
                        "name": "makerToken",
                        "type": "address"
                    },
                    {
                        "internalType": "uint256[]",
                        "name": "takerTokenAmounts",
                        "type": "uint256[]"
                    }
                ],
                "name": "sampleSellsFromKyberNetwork",
                "outputs": [
                    {
                        "internalType": "bytes32",
                        "name": "reserveId",
                        "type": "bytes32"
                    },
                    {
                        "internalType": "bytes",
                        "name": "hint",
                        "type": "bytes"
                    },
                    {
                        "internalType": "uint256[]",
                        "name": "makerTokenAmounts",
                        "type": "uint256[]"
                    }
                ],
                "stateMutability": "view",
                "type": "function"
            },
            {
                "inputs": [
                    {
                        "internalType": "address",
                        "name": "providerAddress",
                        "type": "address"
                    },
                    {
                        "internalType": "address",
                        "name": "takerToken",
                        "type": "address"
                    },
                    {
                        "internalType": "address",
                        "name": "makerToken",
                        "type": "address"
                    },
                    {
                        "internalType": "uint256[]",
                        "name": "takerTokenAmounts",
                        "type": "uint256[]"
                    }
                ],
                "name": "sampleSellsFromLiquidityProvider",
                "outputs": [
                    {
                        "internalType": "uint256[]",
                        "name": "makerTokenAmounts",
                        "type": "uint256[]"
                    }
                ],
                "stateMutability": "view",
                "type": "function"
            },
            {
                "inputs": [
                    {
                        "internalType": "address",
                        "name": "router",
                        "type": "address"
                    },
                    {
                        "internalType": "address",
                        "name": "takerToken",
                        "type": "address"
                    },
                    {
                        "internalType": "address",
                        "name": "makerToken",
                        "type": "address"
                    },
                    {
                        "internalType": "uint256[]",
                        "name": "takerTokenAmounts",
                        "type": "uint256[]"
                    }
                ],
                "name": "sampleSellsFromMStable",
                "outputs": [
                    {
                        "internalType": "uint256[]",
                        "name": "makerTokenAmounts",
                        "type": "uint256[]"
                    }
                ],
                "stateMutability": "view",
                "type": "function"
            },
            {
                "inputs": [
                    {
                        "components": [
                            {
                                "internalType": "address",
                                "name": "psmAddress",
                                "type": "address"
                            },
                            {
                                "internalType": "bytes32",
                                "name": "ilkIdentifier",
                                "type": "bytes32"
                            },
                            {
                                "internalType": "address",
                                "name": "gemTokenAddress",
                                "type": "address"
                            }
                        ],
                        "internalType": "struct MakerPSMSampler.MakerPsmInfo",
                        "name": "psmInfo",
                        "type": "tuple"
                    },
                    {
                        "internalType": "address",
                        "name": "takerToken",
                        "type": "address"
                    },
                    {
                        "internalType": "address",
                        "name": "makerToken",
                        "type": "address"
                    },
                    {
                        "internalType": "uint256[]",
                        "name": "takerTokenAmounts",
                        "type": "uint256[]"
                    }
                ],
                "name": "sampleSellsFromMakerPsm",
                "outputs": [
                    {
                        "internalType": "uint256[]",
                        "name": "makerTokenAmounts",
                        "type": "uint256[]"
                    }
                ],
                "stateMutability": "view",
                "type": "function"
            },
            {
                "inputs": [
                    {
                        "internalType": "address",
                        "name": "registry",
                        "type": "address"
                    },
                    {
                        "internalType": "address",
                        "name": "takerToken",
                        "type": "address"
                    },
                    {
                        "internalType": "address",
                        "name": "makerToken",
                        "type": "address"
                    },
                    {
                        "internalType": "uint256[]",
                        "name": "takerTokenAmounts",
                        "type": "uint256[]"
                    }
                ],
                "name": "sampleSellsFromMooniswap",
                "outputs": [
                    {
                        "internalType": "contract IMooniswap",
                        "name": "pool",
                        "type": "address"
                    },
                    {
                        "internalType": "uint256[]",
                        "name": "makerTokenAmounts",
                        "type": "uint256[]"
                    }
                ],
                "stateMutability": "view",
                "type": "function"
            },
            {
                "inputs": [
                    {
                        "internalType": "address",
                        "name": "multibridge",
                        "type": "address"
                    },
                    {
                        "internalType": "address",
                        "name": "takerToken",
                        "type": "address"
                    },
                    {
                        "internalType": "address",
                        "name": "intermediateToken",
                        "type": "address"
                    },
                    {
                        "internalType": "address",
                        "name": "makerToken",
                        "type": "address"
                    },
                    {
                        "internalType": "uint256[]",
                        "name": "takerTokenAmounts",
                        "type": "uint256[]"
                    }
                ],
                "name": "sampleSellsFromMultiBridge",
                "outputs": [
                    {
                        "internalType": "uint256[]",
                        "name": "makerTokenAmounts",
                        "type": "uint256[]"
                    }
                ],
                "stateMutability": "view",
                "type": "function"
            },
            {
                "inputs": [
                    {
                        "internalType": "address",
                        "name": "pool",
                        "type": "address"
                    },
                    {
                        "internalType": "address",
                        "name": "takerToken",
                        "type": "address"
                    },
                    {
                        "internalType": "address",
                        "name": "makerToken",
                        "type": "address"
                    },
                    {
                        "internalType": "uint256[]",
                        "name": "takerTokenAmounts",
                        "type": "uint256[]"
                    }
                ],
                "name": "sampleSellsFromShell",
                "outputs": [
                    {
                        "internalType": "uint256[]",
                        "name": "makerTokenAmounts",
                        "type": "uint256[]"
                    }
                ],
                "stateMutability": "view",
                "type": "function"
            },
            {
                "inputs": [
                    {
                        "components": [
                            {
                                "internalType": "address",
                                "name": "poolAddress",
                                "type": "address"
                            },
                            {
                                "internalType": "bytes4",
                                "name": "sellQuoteFunctionSelector",
                                "type": "bytes4"
                            },
                            {
                                "internalType": "bytes4",
                                "name": "buyQuoteFunctionSelector",
                                "type": "bytes4"
                            }
                        ],
                        "internalType": "struct SmoothySampler.SmoothyInfo",
                        "name": "smoothyInfo",
                        "type": "tuple"
                    },
                    {
                        "internalType": "int128",
                        "name": "fromTokenIdx",
                        "type": "int128"
                    },
                    {
                        "internalType": "int128",
                        "name": "toTokenIdx",
                        "type": "int128"
                    },
                    {
                        "internalType": "uint256[]",
                        "name": "takerTokenAmounts",
                        "type": "uint256[]"
                    }
                ],
                "name": "sampleSellsFromSmoothy",
                "outputs": [
                    {
                        "internalType": "uint256[]",
                        "name": "makerTokenAmounts",
                        "type": "uint256[]"
                    }
                ],
                "stateMutability": "view",
                "type": "function"
            },
            {
                "inputs": [
                    {
                        "internalType": "address",
                        "name": "router",
                        "type": "address"
                    },
                    {
                        "internalType": "address",
                        "name": "takerToken",
                        "type": "address"
                    },
                    {
                        "internalType": "address",
                        "name": "makerToken",
                        "type": "address"
                    },
                    {
                        "internalType": "uint256[]",
                        "name": "takerTokenAmounts",
                        "type": "uint256[]"
                    }
                ],
                "name": "sampleSellsFromUniswap",
                "outputs": [
                    {
                        "internalType": "uint256[]",
                        "name": "makerTokenAmounts",
                        "type": "uint256[]"
                    }
                ],
                "stateMutability": "view",
                "type": "function"
            },
            {
                "inputs": [
                    {
                        "internalType": "address",
                        "name": "router",
                        "type": "address"
                    },
                    {
                        "internalType": "address[]",
                        "name": "path",
                        "type": "address[]"
                    },
                    {
                        "internalType": "uint256[]",
                        "name": "takerTokenAmounts",
                        "type": "uint256[]"
                    }
                ],
                "name": "sampleSellsFromUniswapV2",
                "outputs": [
                    {
                        "internalType": "uint256[]",
                        "name": "makerTokenAmounts",
                        "type": "uint256[]"
                    }
                ],
                "stateMutability": "view",
                "type": "function"
            },
            {
                "inputs": [
                    {
                        "internalType": "contract IUniswapV3Quoter",
                        "name": "quoter",
                        "type": "address"
                    },
                    {
                        "internalType": "contract IERC20TokenV06[]",
                        "name": "path",
                        "type": "address[]"
                    },
                    {
                        "internalType": "uint256[]",
                        "name": "takerTokenAmounts",
                        "type": "uint256[]"
                    }
                ],
                "name": "sampleSellsFromUniswapV3",
                "outputs": [
                    {
                        "internalType": "uint256[]",
                        "name": "makerTokenAmounts",
                        "type": "uint256[]"
                    },
                    {
                        "internalType": "bytes[]",
                        "name": "uniswapPaths",
                        "type": "bytes[]"
                    }
                ],
                "stateMutability": "nonpayable",
                "type": "function"
            },
            {
                "inputs": [
                    {
                        "internalType": "address",
                        "name": "registry",
                        "type": "address"
                    },
                    {
                        "internalType": "address",
                        "name": "mooniswapTakerToken",
                        "type": "address"
                    },
                    {
                        "internalType": "address",
                        "name": "mooniswapMakerToken",
                        "type": "address"
                    },
                    {
                        "internalType": "uint256",
                        "name": "takerTokenAmount",
                        "type": "uint256"
                    }
                ],
                "name": "sampleSingleSellFromMooniswapPool",
                "outputs": [
                    {
                        "internalType": "uint256",
                        "name": "",
                        "type": "uint256"
                    }
                ],
                "stateMutability": "view",
                "type": "function"
            },
            {
                "inputs": [
                    {
                        "internalType": "bytes[]",
                        "name": "firstHopCalls",
                        "type": "bytes[]"
                    },
                    {
                        "internalType": "bytes[]",
                        "name": "secondHopCalls",
                        "type": "bytes[]"
                    },
                    {
                        "internalType": "uint256",
                        "name": "buyAmount",
                        "type": "uint256"
                    }
                ],
                "name": "sampleTwoHopBuy",
                "outputs": [
                    {
                        "components": [
                            {
                                "internalType": "uint256",
                                "name": "sourceIndex",
                                "type": "uint256"
                            },
                            {
                                "internalType": "bytes",
                                "name": "returnData",
                                "type": "bytes"
                            }
                        ],
                        "internalType": "struct TwoHopSampler.HopInfo",
                        "name": "firstHop",
                        "type": "tuple"
                    },
                    {
                        "components": [
                            {
                                "internalType": "uint256",
                                "name": "sourceIndex",
                                "type": "uint256"
                            },
                            {
                                "internalType": "bytes",
                                "name": "returnData",
                                "type": "bytes"
                            }
                        ],
                        "internalType": "struct TwoHopSampler.HopInfo",
                        "name": "secondHop",
                        "type": "tuple"
                    },
                    {
                        "internalType": "uint256",
                        "name": "sellAmount",
                        "type": "uint256"
                    }
                ],
                "stateMutability": "view",
                "type": "function"
            },
            {
                "inputs": [
                    {
                        "internalType": "bytes[]",
                        "name": "firstHopCalls",
                        "type": "bytes[]"
                    },
                    {
                        "internalType": "bytes[]",
                        "name": "secondHopCalls",
                        "type": "bytes[]"
                    },
                    {
                        "internalType": "uint256",
                        "name": "sellAmount",
                        "type": "uint256"
                    }
                ],
                "name": "sampleTwoHopSell",
                "outputs": [
                    {
                        "components": [
                            {
                                "internalType": "uint256",
                                "name": "sourceIndex",
                                "type": "uint256"
                            },
                            {
                                "internalType": "bytes",
                                "name": "returnData",
                                "type": "bytes"
                            }
                        ],
                        "internalType": "struct TwoHopSampler.HopInfo",
                        "name": "firstHop",
                        "type": "tuple"
                    },
                    {
                        "components": [
                            {
                                "internalType": "uint256",
                                "name": "sourceIndex",
                                "type": "uint256"
                            },
                            {
                                "internalType": "bytes",
                                "name": "returnData",
                                "type": "bytes"
                            }
                        ],
                        "internalType": "struct TwoHopSampler.HopInfo",
                        "name": "secondHop",
                        "type": "tuple"
                    },
                    {
                        "internalType": "uint256",
                        "name": "buyAmount",
                        "type": "uint256"
                    }
                ],
                "stateMutability": "view",
                "type": "function"
            },
            {
                "inputs": [],
                "name": "uniswap",
                "outputs": [
                    {
                        "internalType": "contract TestERC20BridgeSamplerUniswapExchangeFactory",
                        "name": "",
                        "type": "address"
                    }
                ],
                "stateMutability": "view",
                "type": "function"
            },
            {
                "inputs": [],
                "name": "uniswapV2Router",
                "outputs": [
                    {
                        "internalType": "contract TestERC20BridgeSamplerUniswapV2Router01",
                        "name": "",
                        "type": "address"
                    }
                ],
                "stateMutability": "view",
                "type": "function"
            }
        ],
        "devdoc": {
            "kind": "dev",
            "methods": {
                "batchCall(bytes[])": {
                    "details": "Call multiple public functions on this contract in a single transaction.",
                    "params": {
                        "callDatas": "ABI-encoded call data for each function call."
                    },
                    "returns": {
                        "callResults": "ABI-encoded results data for each call."
                    }
                },
                "getLimitOrderFillableMakerAssetAmounts((address,address,uint128,uint128,uint128,address,address,address,address,bytes32,uint64,uint256)[],(uint8,uint8,bytes32,bytes32)[],address)": {
                    "details": "Queries the fillable taker asset amounts of native orders.      Effectively ignores orders that have empty signatures or",
                    "params": {
                        "exchange": "The V4 exchange.",
                        "orderSignatures": "Signatures for each respective order in `orders`.",
                        "orders": "Native orders to query."
                    },
                    "returns": {
                        "orderFillableMakerAssetAmounts": "How much maker asset can be filled         by each order in `orders`."
                    }
                },
                "getLimitOrderFillableTakerAssetAmounts((address,address,uint128,uint128,uint128,address,address,address,address,bytes32,uint64,uint256)[],(uint8,uint8,bytes32,bytes32)[],address)": {
                    "details": "Queries the fillable taker asset amounts of native orders.      Effectively ignores orders that have empty signatures or      maker/taker asset amounts (returning 0).",
                    "params": {
                        "exchange": "The V4 exchange.",
                        "orderSignatures": "Signatures for each respective order in `orders`.",
                        "orders": "Native limit orders to query."
                    },
                    "returns": {
                        "orderFillableTakerAssetAmounts": "How much taker asset can be filled         by each order in `orders`."
                    }
                },
                "sampleBuysFromBalancer(address,address,address,uint256[])": {
                    "details": "Sample buy quotes from Balancer.",
                    "params": {
                        "makerToken": "Address of the maker token (what to buy).",
                        "makerTokenAmounts": "Maker token buy amount for each sample.",
                        "poolAddress": "Address of the Balancer pool to query.",
                        "takerToken": "Address of the taker token (what to sell)."
                    },
                    "returns": {
                        "takerTokenAmounts": "Taker amounts sold at each maker token         amount."
                    }
                },
                "sampleBuysFromBalancerV2((bytes32,address),address,address,uint256[])": {
                    "details": "Sample buy quotes from Balancer V2.",
                    "params": {
                        "makerToken": "Address of the maker token (what to buy).",
                        "makerTokenAmounts": "Maker token buy amount for each sample.",
                        "poolInfo": "Struct with pool related data",
                        "takerToken": "Address of the taker token (what to sell)."
                    },
                    "returns": {
                        "takerTokenAmounts": "Taker amounts sold at each maker token         amount."
                    }
                },
                "sampleBuysFromBancor((address,address[][]),address,address,uint256[])": {
                    "details": "Sample buy quotes from Bancor. Unimplemented",
                    "params": {
                        "makerToken": "Address of the maker token (what to buy).",
                        "makerTokenAmounts": "Maker token buy amount for each sample.",
                        "opts": "BancorSamplerOpts The Bancor registry contract address and paths",
                        "takerToken": "Address of the taker token (what to sell)."
                    },
                    "returns": {
                        "bancorNetwork": "the Bancor Network address",
                        "path": "the selected conversion path from bancor",
                        "takerTokenAmounts": "Taker amounts sold at each maker token         amount."
                    }
                },
                "sampleBuysFromCurve((address,bytes4,bytes4),int128,int128,uint256[])": {
                    "details": "Sample buy quotes from Curve.",
                    "params": {
                        "curveInfo": "Curve information specific to this token pair.",
                        "fromTokenIdx": "Index of the taker token (what to sell).",
                        "makerTokenAmounts": "Maker token buy amount for each sample.",
                        "toTokenIdx": "Index of the maker token (what to buy)."
                    },
                    "returns": {
                        "takerTokenAmounts": "Taker amounts sold at each maker token         amount."
                    }
                },
                "sampleBuysFromDODO((address,address),address,address,uint256[])": {
                    "details": "Sample buy quotes from DODO.",
                    "params": {
                        "makerToken": "Address of the maker token (what to buy).",
                        "makerTokenAmounts": "Maker token sell amount for each sample.",
                        "opts": "DODOSamplerOpts DODO Registry and helper addresses",
                        "takerToken": "Address of the taker token (what to sell)."
                    },
                    "returns": {
                        "pool": "the DODO pool address",
                        "sellBase": "whether the bridge needs to sell the base token",
                        "takerTokenAmounts": "Taker amounts sold at each maker token         amount."
                    }
                },
                "sampleBuysFromDODOV2(address,uint256,address,address,uint256[])": {
                    "details": "Sample buy quotes from DODO.",
                    "params": {
                        "makerToken": "Address of the maker token (what to buy).",
                        "makerTokenAmounts": "Maker token sell amount for each sample.",
                        "offset": "offset index for the pool in the registry.",
                        "registry": "Address of the registry to look up.",
                        "takerToken": "Address of the taker token (what to sell)."
                    },
                    "returns": {
                        "pool": "the DODO pool address",
                        "sellBase": "whether the bridge needs to sell the base token",
                        "takerTokenAmounts": "Taker amounts sold at each maker token         amount."
                    }
                },
                "sampleBuysFromEth2Dai(address,address,address,uint256[])": {
                    "details": "Sample buy quotes from Eth2Dai/Oasis.",
                    "params": {
                        "makerToken": "Address of the maker token (what to buy).",
                        "router": "Address of the Eth2Dai/Oasis contract",
                        "takerToken": "Address of the taker token (what to sell).",
                        "takerTokenAmounts": "Maker token sell amount for each sample."
                    },
                    "returns": {
                        "takerTokenAmounts": "Taker amounts sold at each maker token         amount."
                    }
                },
                "sampleBuysFromKyberNetwork((uint256,address,address,address,bytes),address,address,uint256[])": {
                    "details": "Sample buy quotes from Kyber.",
                    "params": {
                        "makerToken": "Address of the maker token (what to buy).",
                        "makerTokenAmounts": "Maker token buy amount for each sample.",
                        "opts": "KyberSamplerOpts The nth reserve",
                        "takerToken": "Address of the taker token (what to sell)."
                    },
                    "returns": {
                        "hint": "The hint for the selected reserve",
                        "reserveId": "The id of the reserve found at reserveOffset",
                        "takerTokenAmounts": "Taker amounts sold at each maker token amount."
                    }
                },
                "sampleBuysFromLiquidityProvider(address,address,address,uint256[])": {
                    "details": "Sample buy quotes from an arbitrary on-chain liquidity provider.",
                    "params": {
                        "makerToken": "Address of the maker token (what to buy).",
                        "makerTokenAmounts": "Maker token buy amount for each sample.",
                        "providerAddress": "Address of the liquidity provider.",
                        "takerToken": "Address of the taker token (what to sell)."
                    },
                    "returns": {
                        "takerTokenAmounts": "Taker amounts sold at each maker token         amount."
                    }
                },
                "sampleBuysFromMStable(address,address,address,uint256[])": {
                    "details": "Sample buy quotes from MStable contract",
                    "params": {
                        "makerToken": "Address of the maker token (what to buy).",
                        "makerTokenAmounts": "Maker token buy amount for each sample.",
                        "router": "Address of the mStable contract",
                        "takerToken": "Address of the taker token (what to sell)."
                    },
                    "returns": {
                        "takerTokenAmounts": "Taker amounts sold at each maker token         amount."
                    }
                },
                "sampleBuysFromMooniswap(address,address,address,uint256[])": {
                    "details": "Sample buy quotes from Mooniswap.",
                    "params": {
                        "makerToken": "Address of the maker token (what to buy).",
                        "makerTokenAmounts": "Maker token sell amount for each sample.",
                        "registry": "Address of the Mooniswap Registry.",
                        "takerToken": "Address of the taker token (what to sell)."
                    },
                    "returns": {
                        "pool": "The contract address for the pool",
                        "takerTokenAmounts": "Taker amounts sold at each maker token         amount."
                    }
                },
                "sampleBuysFromShell(address,address,address,uint256[])": {
                    "details": "Sample buy quotes from Shell pool contract",
                    "params": {
                        "makerToken": "Address of the maker token (what to buy).",
                        "makerTokenAmounts": "Maker token buy amount for each sample.",
                        "pool": "Address of the Shell pool contract",
                        "takerToken": "Address of the taker token (what to sell)."
                    },
                    "returns": {
                        "takerTokenAmounts": "Taker amounts sold at each maker token         amount."
                    }
                },
                "sampleBuysFromSmoothy((address,bytes4,bytes4),int128,int128,uint256[])": {
                    "details": "Sample buy quotes from Smoothy.",
                    "params": {
                        "fromTokenIdx": "Index of the taker token (what to sell).",
                        "makerTokenAmounts": "Maker token buy amount for each sample.",
                        "smoothyInfo": "Smoothy information specific to this token pair.",
                        "toTokenIdx": "Index of the maker token (what to buy)."
                    },
                    "returns": {
                        "takerTokenAmounts": "Taker amounts sold at each maker token         amount."
                    }
                },
                "sampleBuysFromUniswap(address,address,address,uint256[])": {
                    "details": "Sample buy quotes from Uniswap.",
                    "params": {
                        "makerToken": "Address of the maker token (what to buy).",
                        "makerTokenAmounts": "Maker token sell amount for each sample.",
                        "takerToken": "Address of the taker token (what to sell)."
                    },
                    "returns": {
                        "takerTokenAmounts": "Taker amounts sold at each maker token         amount."
                    }
                },
                "sampleBuysFromUniswapV2(address,address[],uint256[])": {
                    "details": "Sample buy quotes from UniswapV2.",
                    "params": {
                        "makerTokenAmounts": "Maker token buy amount for each sample.",
                        "path": "Token route. Should be takerToken -> makerToken.",
                        "router": "Router to look up tokens and amounts"
                    },
                    "returns": {
                        "takerTokenAmounts": "Taker amounts sold at each maker token         amount."
                    }
                },
                "sampleBuysFromUniswapV3(address,address[],uint256[])": {
                    "details": "Sample buy quotes from UniswapV3.",
                    "params": {
                        "makerTokenAmounts": "Maker token buy amount for each sample.",
                        "path": "Token route. Should be takerToken -> makerToken.",
                        "quoter": "UniswapV3 Quoter contract."
                    },
                    "returns": {
                        "takerTokenAmounts": "Taker amounts sold at each maker token         amount.",
                        "uniswapPaths": "The encoded uniswap path for each sample."
                    }
                },
                "sampleSellsFromBalancer(address,address,address,uint256[])": {
                    "details": "Sample sell quotes from Balancer.",
                    "params": {
                        "makerToken": "Address of the maker token (what to buy).",
                        "poolAddress": "Address of the Balancer pool to query.",
                        "takerToken": "Address of the taker token (what to sell).",
                        "takerTokenAmounts": "Taker token sell amount for each sample."
                    },
                    "returns": {
                        "makerTokenAmounts": "Maker amounts bought at each taker token         amount."
                    }
                },
                "sampleSellsFromBalancerV2((bytes32,address),address,address,uint256[])": {
                    "details": "Sample sell quotes from Balancer V2.",
                    "params": {
                        "makerToken": "Address of the maker token (what to buy).",
                        "poolInfo": "Struct with pool related data",
                        "takerToken": "Address of the taker token (what to sell).",
                        "takerTokenAmounts": "Taker token sell amount for each sample."
                    },
                    "returns": {
                        "makerTokenAmounts": "Maker amounts bought at each taker token         amount."
                    }
                },
                "sampleSellsFromBancor((address,address[][]),address,address,uint256[])": {
                    "details": "Sample sell quotes from Bancor.",
                    "params": {
                        "makerToken": "Address of the maker token (what to buy).",
                        "opts": "BancorSamplerOpts The Bancor registry contract address and paths",
                        "takerToken": "Address of the taker token (what to sell).",
                        "takerTokenAmounts": "Taker token sell amount for each sample."
                    },
                    "returns": {
                        "bancorNetwork": "the Bancor Network address",
                        "makerTokenAmounts": "Maker amounts bought at each taker token         amount.",
                        "path": "the selected conversion path from bancor"
                    }
                },
                "sampleSellsFromCurve((address,bytes4,bytes4),int128,int128,uint256[])": {
                    "details": "Sample sell quotes from Curve.",
                    "params": {
                        "curveInfo": "Curve information specific to this token pair.",
                        "fromTokenIdx": "Index of the taker token (what to sell).",
                        "takerTokenAmounts": "Taker token sell amount for each sample.",
                        "toTokenIdx": "Index of the maker token (what to buy)."
                    },
                    "returns": {
                        "makerTokenAmounts": "Maker amounts bought at each taker token         amount."
                    }
                },
                "sampleSellsFromDODO((address,address),address,address,uint256[])": {
                    "details": "Sample sell quotes from DODO.",
                    "params": {
                        "makerToken": "Address of the maker token (what to buy).",
                        "opts": "DODOSamplerOpts DODO Registry and helper addresses",
                        "takerToken": "Address of the taker token (what to sell).",
                        "takerTokenAmounts": "Taker token sell amount for each sample."
                    },
                    "returns": {
                        "makerTokenAmounts": "Maker amounts bought at each taker token         amount.",
                        "pool": "the DODO pool address",
                        "sellBase": "whether the bridge needs to sell the base token"
                    }
                },
                "sampleSellsFromDODOV2(address,uint256,address,address,uint256[])": {
                    "details": "Sample sell quotes from DODO V2.",
                    "params": {
                        "makerToken": "Address of the maker token (what to buy).",
                        "offset": "offset index for the pool in the registry.",
                        "registry": "Address of the registry to look up.",
                        "takerToken": "Address of the taker token (what to sell).",
                        "takerTokenAmounts": "Taker token sell amount for each sample."
                    },
                    "returns": {
                        "makerTokenAmounts": "Maker amounts bought at each taker token         amount.",
                        "pool": "the DODO pool address",
                        "sellBase": "whether the bridge needs to sell the base token"
                    }
                },
                "sampleSellsFromEth2Dai(address,address,address,uint256[])": {
                    "details": "Sample sell quotes from Eth2Dai/Oasis.",
                    "params": {
                        "makerToken": "Address of the maker token (what to buy).",
                        "router": "Address of the Eth2Dai/Oasis contract",
                        "takerToken": "Address of the taker token (what to sell).",
                        "takerTokenAmounts": "Taker token sell amount for each sample."
                    },
                    "returns": {
                        "makerTokenAmounts": "Maker amounts bought at each taker token         amount."
                    }
                },
                "sampleSellsFromKyberNetwork((uint256,address,address,address,bytes),address,address,uint256[])": {
                    "details": "Sample sell quotes from Kyber.",
                    "params": {
                        "makerToken": "Address of the maker token (what to buy).",
                        "opts": "KyberSamplerOpts The nth reserve",
                        "takerToken": "Address of the taker token (what to sell).",
                        "takerTokenAmounts": "Taker token sell amount for each sample."
                    },
                    "returns": {
                        "hint": "The hint for the selected reserve",
                        "makerTokenAmounts": "Maker amounts bought at each taker token amount.",
                        "reserveId": "The id of the reserve found at reserveOffset"
                    }
                },
                "sampleSellsFromLiquidityProvider(address,address,address,uint256[])": {
                    "details": "Sample sell quotes from an arbitrary on-chain liquidity provider.",
                    "params": {
                        "makerToken": "Address of the maker token (what to buy).",
                        "providerAddress": "Address of the liquidity provider.",
                        "takerToken": "Address of the taker token (what to sell).",
                        "takerTokenAmounts": "Taker token sell amount for each sample."
                    },
                    "returns": {
                        "makerTokenAmounts": "Maker amounts bought at each taker token         amount."
                    }
                },
                "sampleSellsFromMStable(address,address,address,uint256[])": {
                    "details": "Sample sell quotes from the mStable contract",
                    "params": {
                        "makerToken": "Address of the maker token (what to buy).",
                        "router": "Address of the mStable contract",
                        "takerToken": "Address of the taker token (what to sell).",
                        "takerTokenAmounts": "Taker token sell amount for each sample."
                    },
                    "returns": {
                        "makerTokenAmounts": "Maker amounts bought at each taker token         amount."
                    }
                },
                "sampleSellsFromMakerPsm((address,bytes32,address),address,address,uint256[])": {
                    "details": "Sample sell quotes from Maker PSM"
                },
                "sampleSellsFromMooniswap(address,address,address,uint256[])": {
                    "details": "Sample sell quotes from Mooniswap.",
                    "params": {
                        "makerToken": "Address of the maker token (what to buy).",
                        "registry": "Address of the Mooniswap Registry.",
                        "takerToken": "Address of the taker token (what to sell).",
                        "takerTokenAmounts": "Taker token sell amount for each sample."
                    },
                    "returns": {
                        "makerTokenAmounts": "Maker amounts bought at each taker token         amount.",
                        "pool": "The contract address for the pool"
                    }
                },
                "sampleSellsFromMultiBridge(address,address,address,address,uint256[])": {
                    "details": "Sample sell quotes from MultiBridge.",
                    "params": {
                        "intermediateToken": "The address of the intermediate token to        use in an indirect route.",
                        "makerToken": "Address of the maker token (what to buy).",
                        "multibridge": "Address of the MultiBridge contract.",
                        "takerToken": "Address of the taker token (what to sell).",
                        "takerTokenAmounts": "Taker token sell amount for each sample."
                    },
                    "returns": {
                        "makerTokenAmounts": "Maker amounts bought at each taker token         amount."
                    }
                },
                "sampleSellsFromShell(address,address,address,uint256[])": {
                    "details": "Sample sell quotes from the Shell pool contract",
                    "params": {
                        "makerToken": "Address of the maker token (what to buy).",
                        "pool": "Address of the Shell pool contract",
                        "takerToken": "Address of the taker token (what to sell).",
                        "takerTokenAmounts": "Taker token sell amount for each sample."
                    },
                    "returns": {
                        "makerTokenAmounts": "Maker amounts bought at each taker token         amount."
                    }
                },
                "sampleSellsFromSmoothy((address,bytes4,bytes4),int128,int128,uint256[])": {
                    "details": "Sample sell quotes from Smoothy.",
                    "params": {
                        "fromTokenIdx": "Index of the taker token (what to sell).",
                        "smoothyInfo": "Smoothy information specific to this token pair.",
                        "takerTokenAmounts": "Taker token sell amount for each sample.",
                        "toTokenIdx": "Index of the maker token (what to buy)."
                    },
                    "returns": {
                        "makerTokenAmounts": "Maker amounts bought at each taker token         amount."
                    }
                },
                "sampleSellsFromUniswap(address,address,address,uint256[])": {
                    "details": "Sample sell quotes from Uniswap.",
                    "params": {
                        "makerToken": "Address of the maker token (what to buy).",
                        "router": "Address of the Uniswap Router",
                        "takerToken": "Address of the taker token (what to sell).",
                        "takerTokenAmounts": "Taker token sell amount for each sample."
                    },
                    "returns": {
                        "makerTokenAmounts": "Maker amounts bought at each taker token         amount."
                    }
                },
                "sampleSellsFromUniswapV2(address,address[],uint256[])": {
                    "details": "Sample sell quotes from UniswapV2.",
                    "params": {
                        "path": "Token route. Should be takerToken -> makerToken",
                        "router": "Router to look up tokens and amounts",
                        "takerTokenAmounts": "Taker token sell amount for each sample."
                    },
                    "returns": {
                        "makerTokenAmounts": "Maker amounts bought at each taker token         amount."
                    }
                },
                "sampleSellsFromUniswapV3(address,address[],uint256[])": {
                    "details": "Sample sell quotes from UniswapV3.",
                    "params": {
                        "path": "Token route. Should be takerToken -> makerToken",
                        "quoter": "UniswapV3 Quoter contract.",
                        "takerTokenAmounts": "Taker token sell amount for each sample."
                    },
                    "returns": {
                        "makerTokenAmounts": "Maker amounts bought at each taker token         amount.",
                        "uniswapPaths": "The encoded uniswap path for each sample."
                    }
                }
            },
            "version": 1
        },
        "evm": {
            "bytecode": {
                "linkReferences": {},
                "object": "0x60a060405273eeeeeeeeeeeeeeeeeeeeeeeeeeeeeeeeeeeeeeee73ffffffffffffffffffffffffffffffffffffffff1660809073ffffffffffffffffffffffffffffffffffffffff1660601b8152503480156200005b57600080fd5b506040516200006a9062000211565b604051809103906000f08015801562000087573d6000803e3d6000fd5b506000806101000a81548173ffffffffffffffffffffffffffffffffffffffff021916908373ffffffffffffffffffffffffffffffffffffffff160217905550604051620000d5906200021f565b604051809103906000f080158015620000f2573d6000803e3d6000fd5b50600160006101000a81548173ffffffffffffffffffffffffffffffffffffffff021916908373ffffffffffffffffffffffffffffffffffffffff16021790555060405162000141906200022d565b604051809103906000f0801580156200015e573d6000803e3d6000fd5b50600260006101000a81548173ffffffffffffffffffffffffffffffffffffffff021916908373ffffffffffffffffffffffffffffffffffffffff160217905550604051620001ad906200023b565b604051809103906000f080158015620001ca573d6000803e3d6000fd5b50600360006101000a81548173ffffffffffffffffffffffffffffffffffffffff021916908373ffffffffffffffffffffffffffffffffffffffff16021790555062000249565b610b89806200d0a483390190565b6108ee806200dc2d83390190565b6105aa806200e51b83390190565b610d6d806200eac583390190565b60805160601c61ce3362000271600039806139a152806159de5280616802525061ce336000f3fe6080604052600436106103505760003560e01c80638e5a0e07116101c6578063c25c4138116100f7578063ddd5aa2811610095578063f1ed7fa41161006f578063f1ed7fa414610f02578063f5a4994d14610f3f578063fc9fe41b14610f7d578063fea12a0314610fbc57610350565b8063ddd5aa2814610e49578063e78ac04514610e88578063e8e4af0914610ec557610350565b8063c94706d8116100d1578063c94706d814610d63578063cc1621c914610da0578063cd72d78914610ddf578063d9bca37214610e0a57610350565b8063c25c413814610cac578063c831908414610ce9578063c8c74a3714610d2657610350565b8063a2d10ba511610164578063ab0002761161013e578063ab00027614610bb7578063adc636bf14610bf4578063b90cd2fb14610c32578063bd71ecf614610c6f57610350565b8063a2d10ba514610b10578063a469841714610b3b578063a75e744b14610b7857610350565b80639bf3ee35116101a05780639bf3ee3514610a1a5780639e3f05c314610a575780639ea0ff1314610a96578063a0295b8b14610ad357610350565b80638e5a0e07146109615780639209483b146109a057806398777748146109dd57610350565b80633105fec1116102a05780635d5b674f1161023e578063706e2f9b11610218578063706e2f9b1461086b57806374c9d255146108a85780637f7f4f13146108e75780638b6d7b441461092457610350565b80635d5b674f146107b457806366a1ac6b146107f157806368be3cf21461082e57610350565b80634edfb5b21161027a5780634edfb5b2146106be5780635505000a146106fb57806357494b1d146107395780635aae4e531461077657610350565b80633105fec11461061b578063312686571461065857806340bc03ae1461068157610350565b8063252322b31161030d57806329fa4aa0116102e757806329fa4aa0146105255780632aa64319146105625780632d753aa4146105a157806330d6570d146105de57610350565b8063252322b3146104805780632681f7e4146104bd578063281e3432146104e857610350565b80631022742b1461035557806311f2928b14610392578063149dab0e1461039c57806316279055146103db5780631694505e146104185780632339078f14610443575b600080fd5b34801561036157600080fd5b5061037c6004803603810190610377919061b425565b610fe7565b604051610389919061c500565b60405180910390f35b61039a611175565b005b3480156103a857600080fd5b506103c360048036038101906103be919061b834565b6111d2565b6040516103d29392919061c298565b60405180910390f35b3480156103e757600080fd5b5061040260048036038101906103fd919061aba5565b61134e565b60405161040f919061c592565b60405180910390f35b34801561042457600080fd5b5061042d611361565b60405161043a919061c72c565b60405180910390f35b34801561044f57600080fd5b5061046a6004803603810190610465919061b794565b611387565b604051610477919061c500565b60405180910390f35b34801561048c57600080fd5b506104a760048036038101906104a2919061ae57565b611653565b6040516104b4919061c500565b60405180910390f35b3480156104c957600080fd5b506104d2611914565b6040516104df919061c713565b60405180910390f35b3480156104f457600080fd5b5061050f600480360381019061050a919061bbcf565b611938565b60405161051c919061c500565b60405180910390f35b34801561053157600080fd5b5061054c6004803603810190610547919061bc84565b611c00565b604051610559919061c500565b60405180910390f35b34801561056e57600080fd5b506105896004803603810190610584919061b971565b611c74565b6040516105989392919061c5a5565b60405180910390f35b3480156105ad57600080fd5b506105c860048036038101906105c3919061adc9565b611fd8565b6040516105d5919061c500565b60405180910390f35b3480156105ea57600080fd5b506106056004803603810190610600919061ae57565b6121d5565b604051610612919061c500565b60405180910390f35b34801561062757600080fd5b50610642600480360381019061063d919061af28565b612367565b60405161064f919061c500565b60405180910390f35b34801561066457600080fd5b5061067f600480360381019061067a919061b020565b612509565b005b34801561068d57600080fd5b506106a860048036038101906106a3919061b8fb565b61259a565b6040516106b5919061c500565b60405180910390f35b3480156106ca57600080fd5b506106e560048036038101906106e0919061bb16565b61276c565b6040516106f2919061c61f565b60405180910390f35b34801561070757600080fd5b50610722600480360381019061071d919061b68b565b612b4b565b60405161073092919061c51b565b60405180910390f35b34801561074557600080fd5b50610760600480360381019061075b919061ae57565b612dcc565b60405161076d919061c500565b60405180910390f35b34801561078257600080fd5b5061079d6004803603810190610798919061b68b565b6133b7565b6040516107ab92919061c51b565b60405180910390f35b3480156107c057600080fd5b506107db60048036038101906107d6919061ae57565b613677565b6040516107e8919061c500565b60405180910390f35b3480156107fd57600080fd5b506108186004803603810190610813919061b425565b6136eb565b604051610825919061c500565b60405180910390f35b34801561083a57600080fd5b506108556004803603810190610850919061b1e6565b6137bd565b604051610862919061c481565b60405180910390f35b34801561087757600080fd5b50610892600480360381019061088d919061b295565b613948565b60405161089f919061c500565b60405180910390f35b3480156108b457600080fd5b506108cf60048036038101906108ca919061b834565b613a6d565b6040516108de9392919061c298565b60405180910390f35b3480156108f357600080fd5b5061090e6004803603810190610909919061bbcf565b613a7c565b60405161091b919061c500565b60405180910390f35b34801561093057600080fd5b5061094b6004803603810190610946919061bc84565b613d44565b604051610958919061c500565b60405180910390f35b34801561096d57600080fd5b506109886004803603810190610983919061b22b565b61412a565b6040516109979392919061ca34565b60405180910390f35b3480156109ac57600080fd5b506109c760048036038101906109c2919061b8fb565b614391565b6040516109d4919061c500565b60405180910390f35b3480156109e957600080fd5b50610a0460048036038101906109ff919061ae57565b614621565b604051610a11919061c500565b60405180910390f35b348015610a2657600080fd5b50610a416004803603810190610a3c919061bb84565b614c09565b604051610a4e919061cc1e565b60405180910390f35b348015610a6357600080fd5b50610a7e6004803603810190610a79919061ba1c565b614c62565b604051610a8d9392919061c5e9565b60405180910390f35b348015610aa257600080fd5b50610abd6004803603810190610ab8919061aed0565b614da6565b604051610aca919061cc1e565b60405180910390f35b348015610adf57600080fd5b50610afa6004803603810190610af5919061b794565b615042565b604051610b07919061c500565b60405180910390f35b348015610b1c57600080fd5b50610b256152ec565b604051610b32919061c6fa565b60405180910390f35b348015610b4757600080fd5b50610b626004803603810190610b5d919061ae57565b615312565b604051610b6f919061c500565b60405180910390f35b348015610b8457600080fd5b50610b9f6004803603810190610b9a919061af9d565b61549b565b604051610bae9392919061c5a5565b60405180910390f35b348015610bc357600080fd5b50610bde6004803603810190610bd9919061ae57565b615612565b604051610beb919061c500565b60405180910390f35b348015610c0057600080fd5b50610c1b6004803603810190610c16919061ae57565b6157a5565b604051610c2992919061c6b7565b60405180910390f35b348015610c3e57600080fd5b50610c596004803603810190610c54919061ae57565b615911565b604051610c66919061c500565b60405180910390f35b348015610c7b57600080fd5b50610c966004803603810190610c91919061b2d1565b615985565b604051610ca3919061c500565b60405180910390f35b348015610cb857600080fd5b50610cd36004803603810190610cce919061ae57565b615ac8565b604051610ce0919061c500565b60405180910390f35b348015610cf557600080fd5b50610d106004803603810190610d0b919061ae57565b615b3c565b604051610d1d919061c500565b60405180910390f35b348015610d3257600080fd5b50610d4d6004803603810190610d48919061af28565b615dfd565b604051610d5a919061c500565b60405180910390f35b348015610d6f57600080fd5b50610d8a6004803603810190610d85919061ae57565b615f9c565b604051610d97919061c500565b60405180910390f35b348015610dac57600080fd5b50610dc76004803603810190610dc2919061ba1c565b61612f565b604051610dd69392919061c5e9565b60405180910390f35b348015610deb57600080fd5b50610df4616354565b604051610e01919061c0ba565b60405180910390f35b348015610e1657600080fd5b50610e316004803603810190610e2c919061af9d565b61636c565b604051610e409392919061c5a5565b60405180910390f35b348015610e5557600080fd5b50610e706004803603810190610e6b919061b971565b616494565b604051610e7f9392919061c5a5565b60405180910390f35b348015610e9457600080fd5b50610eaf6004803603810190610eaa919061b321565b6167a9565b604051610ebc919061c500565b60405180910390f35b348015610ed157600080fd5b50610eec6004803603810190610ee7919061ae57565b6168d9565b604051610ef9919061c500565b60405180910390f35b348015610f0e57600080fd5b50610f296004803603810190610f24919061baa8565b616a40565b604051610f36919061cc1e565b60405180910390f35b348015610f4b57600080fd5b50610f666004803603810190610f61919061ae57565b616c27565b604051610f7492919061c6b7565b60405180910390f35b348015610f8957600080fd5b50610fa46004803603810190610f9f919061b22b565b616d85565b604051610fb39392919061ca34565b60405180910390f35b348015610fc857600080fd5b50610fd1617066565b604051610fde919061c6e1565b60405180910390f35b6060835167ffffffffffffffff8111801561100157600080fd5b506040519080825280602002602001820160405280156110305781602001602082028036833780820191505090505b50905060005b8451811461116d573073ffffffffffffffffffffffffffffffffffffffff16639bf3ee3562030d4087848151811061106a57fe5b602002602001015187858151811061107e57fe5b6020026020010151876040518563ffffffff1660e01b81526004016110a59392919061cae2565b60206040518083038187803b1580156110bd57600080fd5b5086fa935050505080156110ef57506040513d601f19601f820116820180604052508101906110ec919061bd27565b60015b611145573d806000811461111f576040519150601f19603f3d011682016040523d82523d6000602084013e611124565b606091505b50600083838151811061113357fe5b60200260200101818152505050611160565b8083838151811061115257fe5b602002602001018181525050505b8080600101915050611036565b509392505050565b73e9db8717bc5dfb20aaf538b4a5a02b7791ff430c73ffffffffffffffffffffffffffffffffffffffff166108fc349081150290604051600060405180830381858888f193505050501580156111cf573d6000803e3d6000fd5b50565b6000606080600087602001515114156111ea57611344565b6111f68787878761708c565b8093508194505050835167ffffffffffffffff8111801561121657600080fd5b506040519080825280602002602001820160405280156112455781602001602082028036833780820191505090505b50905060005b8151811015611342578373ffffffffffffffffffffffffffffffffffffffff16637f9c0ecd620493e08588858151811061128157fe5b60200260200101516040518463ffffffff1660e01b81526004016112a692919061c45f565b60206040518083038187803b1580156112be57600080fd5b5086fa935050505080156112f057506040513d601f19601f820116820180604052508101906112ed919061bd27565b60015b6112f957611342565b8083838151811061130657fe5b602002602001018181525050600083838151811061132057fe5b602002602001015114156113345750611342565b50808060010191505061124b565b505b9450945094915050565b600080823b905060008111915050919050565b600160009054906101000a900473ffffffffffffffffffffffffffffffffffffffff1681565b606061139383856172eb565b6000856020015190506060600267ffffffffffffffff811180156113b657600080fd5b506040519080825280602002602001820160405280156113e55781602001602082028036833780820191505090505b50905085816000815181106113f657fe5b602002602001019073ffffffffffffffffffffffffffffffffffffffff16908173ffffffffffffffffffffffffffffffffffffffff1681525050848160018151811061143e57fe5b602002602001019073ffffffffffffffffffffffffffffffffffffffff16908173ffffffffffffffffffffffffffffffffffffffff16815250506000845190508067ffffffffffffffff8111801561149557600080fd5b506040519080825280602002602001820160405280156114c45781602001602082028036833780820191505090505b5093506114cf61a1d4565b6114d761735e565b905060005b828110156116465760606115038b8984815181106114f657fe5b60200260200101516173be565b90508573ffffffffffffffffffffffffffffffffffffffff1663f84d066e60008388876040518563ffffffff1660e01b8152600401611545949392919061c796565b600060405180830381600087803b15801561155f57600080fd5b505af192505050801561159557506040513d6000823e3d601f19601f82011682018060405250810190611592919061b385565b60015b6115d2573d80600081146115c5576040519150601f19603f3d011682016040523d82523d6000602084013e6115ca565b606091505b505050611646565b60007fffffffffffffffffffffffffffffffffffffffffffffffffffffffffffffffff8260018151811061160257fe5b60200260200101510290506000811361161d57505050611646565b8089858151811061162a57fe5b60200260200101818152505050505080806001019150506114dc565b5050505050949350505050565b606061165f83856172eb565b6000825190508067ffffffffffffffff8111801561167c57600080fd5b506040519080825280602002602001820160405280156116ab5781602001602082028036833780820191505090505b50915060008073ffffffffffffffffffffffffffffffffffffffff168673ffffffffffffffffffffffffffffffffffffffff16146116f2576116ed8787617474565b6116f5565b60005b905060008073ffffffffffffffffffffffffffffffffffffffff168673ffffffffffffffffffffffffffffffffffffffff161461173b576117368887617474565b61173e565b60005b905060005b8381101561190857600060019050600073ffffffffffffffffffffffffffffffffffffffff168873ffffffffffffffffffffffffffffffffffffffff1614156117cc576117ab84632640f62c60e01b89858151811061179e57fe5b6020026020010151617507565b8784815181106117b757fe5b602002602001018193508281525050506118cf565b600073ffffffffffffffffffffffffffffffffffffffff168973ffffffffffffffffffffffffffffffffffffffff16141561184757611826836359e9486260e01b89858151811061181957fe5b6020026020010151617507565b87848151811061183257fe5b602002602001018193508281525050506118ce565b600061186e846359e9486260e01b8a868151811061186157fe5b6020026020010151617507565b8093508192505050600081146118b15761189085632640f62c60e01b83617507565b88858151811061189c57fe5b602002602001018194508281525050506118cc565b60008784815181106118bf57fe5b6020026020010181815250505b505b5b8015806118ef575060008683815181106118e557fe5b6020026020010151145b156118fa5750611908565b508080600101915050611743565b50505050949350505050565b60008054906101000a900473ffffffffffffffffffffffffffffffffffffffff1681565b606061194483856172eb565b60008560000151905060008173ffffffffffffffffffffffffffffffffffffffff166336569e776040518163ffffffff1660e01b815260040160206040518083038186803b15801561199557600080fd5b505afa1580156119a9573d6000803e3d6000fd5b505050506040513d601f19601f820116820180604052508101906119cd919061abcb565b90506000845190508067ffffffffffffffff811180156119ec57600080fd5b50604051908082528060200260200182016040528015611a1b5781602001602082028036833780820191505090505b5093508273ffffffffffffffffffffffffffffffffffffffff1663f4b9fa756040518163ffffffff1660e01b815260040160206040518083038186803b158015611a6457600080fd5b505afa158015611a78573d6000803e3d6000fd5b505050506040513d601f19601f82011682018060405250810190611a9c919061abcb565b73ffffffffffffffffffffffffffffffffffffffff168673ffffffffffffffffffffffffffffffffffffffff1614158015611b8057508273ffffffffffffffffffffffffffffffffffffffff1663f4b9fa756040518163ffffffff1660e01b815260040160206040518083038186803b158015611b1857600080fd5b505afa158015611b2c573d6000803e3d6000fd5b505050506040513d601f19601f82011682018060405250810190611b50919061abcb565b73ffffffffffffffffffffffffffffffffffffffff168773ffffffffffffffffffffffffffffffffffffffff1614155b15611b8d57505050611bf8565b60005b81811015611bf3576000611bbb8a898b8a8681518110611bac57fe5b6020026020010151898961764e565b90506000811415611bcc5750611bf3565b80868381518110611bd957fe5b602002602001018181525050508080600101915050611b90565b505050505b949350505050565b6060611c6a60405180606001604052808588604051602001611c2392919061c8a9565b60405160208183030381529060405281526020018688604051602001611c4a92919061c8a9565b60405160208183030381529060405281526020016179eb81525083617b61565b9050949350505050565b6000806060611c8385876172eb565b6000845190508067ffffffffffffffff81118015611ca057600080fd5b50604051908082528060200260200182016040528015611ccf5781602001602082028036833780820191505090505b509150876000015173ffffffffffffffffffffffffffffffffffffffff16631273b0c688886040518363ffffffff1660e01b8152600401611d1192919061c0f3565b60206040518083038186803b158015611d2957600080fd5b505afa158015611d3d573d6000803e3d6000fd5b505050506040513d601f19601f82011682018060405250810190611d61919061abcb565b925060008073ffffffffffffffffffffffffffffffffffffffff168473ffffffffffffffffffffffffffffffffffffffff1614611da45787905060019450611e79565b886000015173ffffffffffffffffffffffffffffffffffffffff16631273b0c6888a6040518363ffffffff1660e01b8152600401611de392919061c0f3565b60206040518083038186803b158015611dfb57600080fd5b505afa158015611e0f573d6000803e3d6000fd5b505050506040513d601f19601f82011682018060405250810190611e33919061abcb565b9350600073ffffffffffffffffffffffffffffffffffffffff168473ffffffffffffffffffffffffffffffffffffffff161415611e71575050611fce565b869050600094505b8373ffffffffffffffffffffffffffffffffffffffff1663dd58b41c6040518163ffffffff1660e01b815260040160206040518083038186803b158015611ebf57600080fd5b505afa158015611ed3573d6000803e3d6000fd5b505050506040513d601f19601f82011682018060405250810190611ef7919061b543565b611f02575050611fce565b60005b82811015611fca576000611f7f8a87858e60200151604051602001611f2d949392919061c117565b6040516020818303038152906040528a88868f60200151604051602001611f57949392919061c117565b6040516020818303038152906040528a8581518110611f7257fe5b6020026020010151617d87565b905080858381518110611f8e57fe5b6020026020010181815250506000858381518110611fa857fe5b60200260200101511415611fbc5750611fca565b508080600101915050611f05565b5050505b9450945094915050565b60606000825190508067ffffffffffffffff81118015611ff757600080fd5b506040519080825280602002602001820160405280156120265781602001602082028036833780820191505090505b509150600073ffffffffffffffffffffffffffffffffffffffff168773ffffffffffffffffffffffffffffffffffffffff16141561206457506121cc565b60005b818110156121c957600060608973ffffffffffffffffffffffffffffffffffffffff1662061a80636e79e13360e01b8b8b8b8b89815181106120a557fe5b60200260200101516040516024016120c0949392919061c18b565b604051602081830303815290604052907bffffffffffffffffffffffffffffffffffffffffffffffffffffffff19166020820180517bffffffffffffffffffffffffffffffffffffffffffffffffffffffff838183161783525050505060405161212a919061c083565b6000604051808303818686fa925050503d8060008114612166576040519150601f19603f3d011682016040523d82523d6000602084013e61216b565b606091505b50915091506000821561218f578180602001905181019061218c919061bd27565b90505b60008114156121a0575050506121c9565b808685815181106121ad57fe5b6020026020010181815250505050508080600101915050612067565b50505b95945050505050565b60606000825190508067ffffffffffffffff811180156121f457600080fd5b506040519080825280602002602001820160405280156122235781602001602082028036833780820191505090505b50915060005b8181101561235d578673ffffffffffffffffffffffffffffffffffffffff166372ea9076620c3500888888868151811061225f57fe5b60200260200101516040518563ffffffff1660e01b81526004016122859392919061c22a565b60006040518083038187803b15801561229d57600080fd5b5086fa935050505080156122d457506040513d6000823e3d601f19601f820116820180604052508101906122d1919061b569565b60015b612310573d8060008114612304576040519150601f19603f3d011682016040523d82523d6000602084013e612309565b606091505b505061235d565b8086858151811061231d57fe5b602002602001018181525050600086858151811061233757fe5b6020026020010151141561234d5750505061235d565b5050508080600101915050612229565b5050949350505050565b60606000825190508067ffffffffffffffff8111801561238657600080fd5b506040519080825280602002602001820160405280156123b55781602001602082028036833780820191505090505b50915060005b81811015612500578573ffffffffffffffffffffffffffffffffffffffff1663d06ca61f620249f08684815181106123ef57fe5b6020026020010151886040518463ffffffff1660e01b815260040161241592919061cc2f565b60006040518083038187803b15801561242d57600080fd5b5086fa9350505050801561246457506040513d6000823e3d601f19601f82011682018060405250810190612461919061b507565b60015b6124a0573d8060008114612494576040519150601f19603f3d011682016040523d82523d6000602084013e612499565b606091505b5050612500565b806001875103815181106124b057fe5b60200260200101518483815181106124c457fe5b60200260200101818152505060008483815181106124de57fe5b602002602001015114156124f25750612500565b5080806001019150506123bb565b50509392505050565b60008054906101000a900473ffffffffffffffffffffffffffffffffffffffff1673ffffffffffffffffffffffffffffffffffffffff16633126865783836040518363ffffffff1660e01b815260040161256492919061c404565b600060405180830381600087803b15801561257e57600080fd5b505af1158015612592573d6000803e3d6000fd5b505050505050565b60606000825190508067ffffffffffffffff811180156125b957600080fd5b506040519080825280602002602001820160405280156125e85781602001602082028036833780820191505090505b50915060005b818110156127625760006060886000015173ffffffffffffffffffffffffffffffffffffffff16621e84808a602001518a8a8a888151811061262c57fe5b60200260200101516040516024016126469392919061c862565b604051602081830303815290604052907bffffffffffffffffffffffffffffffffffffffffffffffffffffffff19166020820180517bffffffffffffffffffffffffffffffffffffffffffffffffffffffff83818316178352505050506040516126b0919061c083565b6000604051808303818686fa925050503d80600081146126ec576040519150601f19603f3d011682016040523d82523d6000602084013e6126f1565b606091505b5091509150600082156127155781806020019051810190612712919061bd27565b90505b8086858151811061272257fe5b602002602001018181525050600086858151811061273c57fe5b6020026020010151141561275257505050612762565b50505080806001019150506125ee565b5050949350505050565b60606000856020015190506060600167ffffffffffffffff8111801561279157600080fd5b506040519080825280602002602001820160405280156127c05781602001602082028036833780820191505090505b50905085816000815181106127d157fe5b6020026020010181815250506060600067ffffffffffffffff811180156127f757600080fd5b506040519080825280602002602001820160405280156128265781602001602082028036833780820191505090505b509050876060015173ffffffffffffffffffffffffffffffffffffffff168673ffffffffffffffffffffffffffffffffffffffff161415612941578273ffffffffffffffffffffffffffffffffffffffff166381efcbdd6207a12087600186866040518663ffffffff1660e01b81526004016128a5949392919061c2d6565b60006040518083038187803b1580156128bd57600080fd5b5086fa935050505080156128f457506040513d6000823e3d601f19601f820116820180604052508101906128f1919061b5dd565b60015b612930573d8060008114612924576040519150601f19603f3d011682016040523d82523d6000602084013e612929565b606091505b505061293c565b80945050505050612b43565b612b3f565b876060015173ffffffffffffffffffffffffffffffffffffffff168573ffffffffffffffffffffffffffffffffffffffff161415612a59578273ffffffffffffffffffffffffffffffffffffffff166361e597f96207a12088600186866040518663ffffffff1660e01b81526004016129bd949392919061c2d6565b60006040518083038187803b1580156129d557600080fd5b5086fa93505050508015612a0c57506040513d6000823e3d601f19601f82011682018060405250810190612a09919061b5dd565b60015b612a48573d8060008114612a3c576040519150601f19603f3d011682016040523d82523d6000602084013e612a41565b606091505b5050612a54565b80945050505050612b43565b612b3e565b8273ffffffffffffffffffffffffffffffffffffffff166305734d9a6207a12088600186868b60018a8a6040518a63ffffffff1660e01b8152600401612aa698979695949392919061c324565b60006040518083038187803b158015612abe57600080fd5b5086fa93505050508015612af557506040513d6000823e3d601f19601f82011682018060405250810190612af2919061b5dd565b60015b612b31573d8060008114612b25576040519150601f19603f3d011682016040523d82523d6000602084013e612b2a565b606091505b5050612b3d565b80945050505050612b43565b5b5b5050505b949350505050565b6060806060612bd98673ffffffffffffffffffffffffffffffffffffffff1663c45a01556040518163ffffffff1660e01b815260040160206040518083038186803b158015612b9957600080fd5b505afa158015612bad573d6000803e3d6000fd5b505050506040513d601f19601f82011682018060405250810190612bd1919061b63f565b866000617f94565b9050835167ffffffffffffffff81118015612bf357600080fd5b50604051908082528060200260200182016040528015612c225781602001602082028036833780820191505090505b509250835167ffffffffffffffff81118015612c3d57600080fd5b50604051908082528060200260200182016040528015612c7157816020015b6060815260200190600190039081612c5c5790505b50915060005b8451811015612dc25760606000805b8451811015612d73576060612cae8a878481518110612ca157fe5b6020026020010151618562565b90508a73ffffffffffffffffffffffffffffffffffffffff1663cdca1753620493e0838c8981518110612cdd57fe5b60200260200101516040518463ffffffff1660e01b8152600401612d0292919061c63a565b602060405180830381600088803b158015612d1c57600080fd5b5087f193505050508015612d4e57506040513d601f19601f82011682018060405250810190612d4b919061bd27565b60015b612d5757612d67565b808411612d65578093508194505b505b50806001019050612c86565b506000811415612d84575050612dc2565b80868481518110612d9157fe5b60200260200101818152505081858481518110612daa57fe5b60200260200101819052505050806001019050612c77565b5050935093915050565b606060008590506000835190508067ffffffffffffffff81118015612df057600080fd5b50604051908082528060200260200182016040528015612e1f5781602001602082028036833780820191505090505b5092508173ffffffffffffffffffffffffffffffffffffffff16632f37b624876040518263ffffffff1660e01b8152600401612e5b919061c0a1565b60206040518083038186803b158015612e7357600080fd5b505afa158015612e87573d6000803e3d6000fd5b505050506040513d601f19601f82011682018060405250810190612eab919061b543565b1580612f3d57508173ffffffffffffffffffffffffffffffffffffffff16632f37b624866040518263ffffffff1660e01b8152600401612eeb919061c0a1565b60206040518083038186803b158015612f0357600080fd5b505afa158015612f17573d6000803e3d6000fd5b505050506040513d601f19601f82011682018060405250810190612f3b919061b543565b155b15612f495750506133af565b612f5161a22c565b8273ffffffffffffffffffffffffffffffffffffffff1663f8b2cb4f886040518263ffffffff1660e01b8152600401612f8a919061c0a1565b60206040518083038186803b158015612fa257600080fd5b505afa158015612fb6573d6000803e3d6000fd5b505050506040513d601f19601f82011682018060405250810190612fda919061bd27565b8160000181815250508273ffffffffffffffffffffffffffffffffffffffff1663f8b2cb4f876040518263ffffffff1660e01b815260040161301c919061c0a1565b60206040518083038186803b15801561303457600080fd5b505afa158015613048573d6000803e3d6000fd5b505050506040513d601f19601f8201168201806040525081019061306c919061bd27565b8160200181815250508273ffffffffffffffffffffffffffffffffffffffff1663948d8ce6886040518263ffffffff1660e01b81526004016130ae919061c0a1565b60206040518083038186803b1580156130c657600080fd5b505afa1580156130da573d6000803e3d6000fd5b505050506040513d601f19601f820116820180604052508101906130fe919061bd27565b8160400181815250508273ffffffffffffffffffffffffffffffffffffffff1663948d8ce6876040518263ffffffff1660e01b8152600401613140919061c0a1565b60206040518083038186803b15801561315857600080fd5b505afa15801561316c573d6000803e3d6000fd5b505050506040513d601f19601f82011682018060405250810190613190919061bd27565b8160600181815250508273ffffffffffffffffffffffffffffffffffffffff1663d4cadf686040518163ffffffff1660e01b815260040160206040518083038186803b1580156131df57600080fd5b505afa1580156131f3573d6000803e3d6000fd5b505050506040513d601f19601f82011682018060405250810190613217919061bd27565b81608001818152505060005b828110156133aa5761324e826020015160016003670de0b6b3a76400008161324757fe5b040161870b565b86828151811061325a57fe5b6020026020010151111561326d576133aa565b8373ffffffffffffffffffffffffffffffffffffffff1663f8d6aed4620493e084600001518560400151866020015187606001518c88815181106132ad57fe5b602002602001015189608001516040518863ffffffff1660e01b81526004016132db9695949392919061cc51565b60206040518083038187803b1580156132f357600080fd5b5086fa9350505050801561332557506040513d601f19601f82011682018060405250810190613322919061bd27565b60015b613361573d8060008114613355576040519150601f19603f3d011682016040523d82523d6000602084013e61335a565b606091505b50506133aa565b8086838151811061336e57fe5b602002602001018181525050600086838151811061338857fe5b6020026020010151141561339c57506133aa565b508080600101915050613223565b505050505b949350505050565b60608060606134458673ffffffffffffffffffffffffffffffffffffffff1663c45a01556040518163ffffffff1660e01b815260040160206040518083038186803b15801561340557600080fd5b505afa158015613419573d6000803e3d6000fd5b505050506040513d601f19601f8201168201806040525081019061343d919061b63f565b866000617f94565b905060606134528661878b565b9050845167ffffffffffffffff8111801561346c57600080fd5b5060405190808252806020026020018201604052801561349b5781602001602082028036833780820191505090505b509350845167ffffffffffffffff811180156134b657600080fd5b506040519080825280602002602001820160405280156134ea57816020015b60608152602001906001900390816134d55790505b50925060005b855181101561366c5760606000805b855181101561361d57606061352f8661352a89858151811061351d57fe5b6020026020010151618854565b618562565b90508b73ffffffffffffffffffffffffffffffffffffffff16632f80bb1d620493e0838d898151811061355e57fe5b60200260200101516040518463ffffffff1660e01b815260040161358392919061c63a565b602060405180830381600088803b15801561359d57600080fd5b5087f1935050505080156135cf57506040513d601f19601f820116820180604052508101906135cc919061bd27565b60015b6135d857613611565b60008414806135e75750808410155b1561360f5780935061360c8c8985815181106135ff57fe5b6020026020010151618562565b94505b505b508060010190506134ff565b50600081141561362e57505061366c565b8087848151811061363b57fe5b6020026020010181815250508186848151811061365457fe5b602002602001018190525050508060010190506134f0565b505050935093915050565b60606136e16040518060600160405280858860405160200161369a92919061c0f3565b604051602081830303815290604052815260200186886040516020016136c192919061c0f3565b604051602081830303815290604052815260200161891d81525083617b61565b9050949350505050565b60606136f8848484610fe7565b905060005b84518110156137b557600082828151811061371457fe5b6020026020010151146137aa5761379182828151811061373057fe5b602002602001015186838151811061374457fe5b6020026020010151606001516fffffffffffffffffffffffffffffffff1687848151811061376e57fe5b6020026020010151604001516fffffffffffffffffffffffffffffffff16618a4d565b82828151811061379d57fe5b6020026020010181815250505b8060010190506136fd565b509392505050565b60608282905067ffffffffffffffff811180156137d957600080fd5b5060405190808252806020026020018201604052801561381357816020015b61380061a25b565b8152602001906001900390816137f85790505b50905060005b83839050811461394157600182828151811061383157fe5b60200260200101516020019015159081151581525050600084848381811061385557fe5b9050602002810190613867919061cc85565b9050141561387457613936565b3073ffffffffffffffffffffffffffffffffffffffff1684848381811061389757fe5b90506020028101906138a9919061cc85565b6040516138b792919061c06c565b6000604051808303816000865af19150503d80600081146138f4576040519150601f19603f3d011682016040523d82523d6000602084013e6138f9565b606091505b5083838151811061390657fe5b602002602001015160200184848151811061391d57fe5b6020026020010151600001829052821515151581525050505b806001019050613819565b5092915050565b6060815167ffffffffffffffff8111801561396257600080fd5b506040519080825280602002602001820160405280156139915781602001602082028036833780820191505090505b50905060005b82518114613a67577f000000000000000000000000000000000000000000000000000000000000000073ffffffffffffffffffffffffffffffffffffffff168382815181106139e257fe5b602002602001015173ffffffffffffffffffffffffffffffffffffffff1614613a3c57613a37838281518110613a1457fe5b602002602001015173ffffffffffffffffffffffffffffffffffffffff16618aa2565b613a3f565b60125b60ff16828281518110613a4e57fe5b6020026020010181815250508080600101915050613997565b50919050565b60006060809450945094915050565b6060613a8883856172eb565b60008560000151905060008173ffffffffffffffffffffffffffffffffffffffff166336569e776040518163ffffffff1660e01b815260040160206040518083038186803b158015613ad957600080fd5b505afa158015613aed573d6000803e3d6000fd5b505050506040513d601f19601f82011682018060405250810190613b11919061abcb565b90506000845190508067ffffffffffffffff81118015613b3057600080fd5b50604051908082528060200260200182016040528015613b5f5781602001602082028036833780820191505090505b5093508273ffffffffffffffffffffffffffffffffffffffff1663f4b9fa756040518163ffffffff1660e01b815260040160206040518083038186803b158015613ba857600080fd5b505afa158015613bbc573d6000803e3d6000fd5b505050506040513d601f19601f82011682018060405250810190613be0919061abcb565b73ffffffffffffffffffffffffffffffffffffffff168673ffffffffffffffffffffffffffffffffffffffff1614158015613cc457508273ffffffffffffffffffffffffffffffffffffffff1663f4b9fa756040518163ffffffff1660e01b815260040160206040518083038186803b158015613c5c57600080fd5b505afa158015613c70573d6000803e3d6000fd5b505050506040513d601f19601f82011682018060405250810190613c94919061abcb565b73ffffffffffffffffffffffffffffffffffffffff168773ffffffffffffffffffffffffffffffffffffffff1614155b15613cd157505050613d3c565b60005b81811015613d37576000613cff8a898b8a8681518110613cf057fe5b60200260200101518989618b74565b90506000811415613d105750613d37565b80868381518110613d1d57fe5b602002602001018181525050508080600101915050613cd4565b505050505b949350505050565b60606000856000015173ffffffffffffffffffffffffffffffffffffffff1663bbd7f25585600f0b6040518263ffffffff1660e01b8152600401613d88919061cc1e565b60206040518083038186803b158015613da057600080fd5b505afa158015613db4573d6000803e3d6000fd5b505050506040513d601f19601f82011682018060405250810190613dd8919061bd27565b866000015173ffffffffffffffffffffffffffffffffffffffff16631e01043986600f0b6040518263ffffffff1660e01b8152600401613e18919061cc1e565b60206040518083038186803b158015613e3057600080fd5b505afa158015613e44573d6000803e3d6000fd5b505050506040513d601f19601f82011682018060405250810190613e68919061bd27565b0390506000866000015173ffffffffffffffffffffffffffffffffffffffff1663c582951486600f0b6040518263ffffffff1660e01b8152600401613ead919061cc1e565b60806040518083038186803b158015613ec557600080fd5b505afa158015613ed9573d6000803e3d6000fd5b505050506040513d601f19601f82011682018060405250810190613efd919061bd66565b935050505080601203600a0a8281613f1157fe5b0491506000845190508067ffffffffffffffff81118015613f3157600080fd5b50604051908082528060200260200182016040528015613f605781602001602082028036833780820191505090505b50935060005b8181101561411e57600060608a6000015173ffffffffffffffffffffffffffffffffffffffff16620927c08c602001518c8c8c8881518110613fa457fe5b6020026020010151604051602401613fbe9392919061c862565b604051602081830303815290604052907bffffffffffffffffffffffffffffffffffffffffffffffffffffffff19166020820180517bffffffffffffffffffffffffffffffffffffffffffffffffffffffff8381831617835250505050604051614028919061c083565b6000604051808303818686fa925050503d8060008114614064576040519150601f19603f3d011682016040523d82523d6000602084013e614069565b606091505b50915091506000821561408d578180602001905181019061408a919061bd27565b90505b8681106140d15760008490505b858110156140c857878982815181106140af57fe5b602002602001018181525050808060010191505061409a565b5050505061411e565b808885815181106140de57fe5b60200260200101818152505060008885815181106140f857fe5b6020026020010151141561410e5750505061411e565b5050508080600101915050613f66565b50505050949350505050565b61413261a277565b61413a61a277565b6000806000905060005b8751811461425b5761418b602089838151811061415d57fe5b60200260200101515103878a848151811061417457fe5b6020026020010151618f499092919063ffffffff16565b600060603073ffffffffffffffffffffffffffffffffffffffff168a84815181106141b257fe5b60200260200101516040516141c7919061c083565b600060405180830381855afa9150503d8060008114614202576040519150601f19603f3d011682016040523d82523d6000602084013e614207565b606091505b5091509150811561424e57600061422b602083510383618f5c90919063ffffffff16565b90508481111561424c57809450838860000181815250508188602001819052505b505b5050806001019050614144565b50600081141561426b5750614388565b60005b86518114614385576142b5602088838151811061428757fe5b602002602001015151038389848151811061429e57fe5b6020026020010151618f499092919063ffffffff16565b600060603073ffffffffffffffffffffffffffffffffffffffff168984815181106142dc57fe5b60200260200101516040516142f1919061c083565b600060405180830381855afa9150503d806000811461432c576040519150601f19603f3d011682016040523d82523d6000602084013e614331565b606091505b50915091508115614378576000614355602083510383618f5c90919063ffffffff16565b90508581111561437657809550838760000181815250508187602001819052505b505b505080600101905061426e565b50505b93509350939050565b6060600060e01b7bffffffffffffffffffffffffffffffffffffffffffffffffffffffff191685604001517bffffffffffffffffffffffffffffffffffffffffffffffffffffffff19161415614450576144496040518060600160405280858860405160200161440292919061c887565b6040516020818303038152906040528152602001868860405160200161442992919061c887565b6040516020818303038152906040528152602001618f7381525083617b61565b9050614619565b6000825190508067ffffffffffffffff8111801561446d57600080fd5b5060405190808252806020026020018201604052801561449c5781602001602082028036833780820191505090505b50915060005b818110156146165760006060886000015173ffffffffffffffffffffffffffffffffffffffff16621e84808a604001518a8a8a88815181106144e057fe5b60200260200101516040516024016144fa9392919061c862565b604051602081830303815290604052907bffffffffffffffffffffffffffffffffffffffffffffffffffffffff19166020820180517bffffffffffffffffffffffffffffffffffffffffffffffffffffffff8381831617835250505050604051614564919061c083565b6000604051808303818686fa925050503d80600081146145a0576040519150601f19603f3d011682016040523d82523d6000602084013e6145a5565b606091505b5091509150600082156145c957818060200190518101906145c6919061bd27565b90505b808685815181106145d657fe5b60200260200101818152505060008685815181106145f057fe5b6020026020010151141561460657505050614616565b50505080806001019150506144a2565b50505b949350505050565b606060008590506000835190508067ffffffffffffffff8111801561464557600080fd5b506040519080825280602002602001820160405280156146745781602001602082028036833780820191505090505b5092508173ffffffffffffffffffffffffffffffffffffffff16632f37b624876040518263ffffffff1660e01b81526004016146b0919061c0a1565b60206040518083038186803b1580156146c857600080fd5b505afa1580156146dc573d6000803e3d6000fd5b505050506040513d601f19601f82011682018060405250810190614700919061b543565b158061479257508173ffffffffffffffffffffffffffffffffffffffff16632f37b624866040518263ffffffff1660e01b8152600401614740919061c0a1565b60206040518083038186803b15801561475857600080fd5b505afa15801561476c573d6000803e3d6000fd5b505050506040513d601f19601f82011682018060405250810190614790919061b543565b155b1561479e575050614c01565b6147a661a22c565b8273ffffffffffffffffffffffffffffffffffffffff1663f8b2cb4f886040518263ffffffff1660e01b81526004016147df919061c0a1565b60206040518083038186803b1580156147f757600080fd5b505afa15801561480b573d6000803e3d6000fd5b505050506040513d601f19601f8201168201806040525081019061482f919061bd27565b8160000181815250508273ffffffffffffffffffffffffffffffffffffffff1663f8b2cb4f876040518263ffffffff1660e01b8152600401614871919061c0a1565b60206040518083038186803b15801561488957600080fd5b505afa15801561489d573d6000803e3d6000fd5b505050506040513d601f19601f820116820180604052508101906148c1919061bd27565b8160200181815250508273ffffffffffffffffffffffffffffffffffffffff1663948d8ce6886040518263ffffffff1660e01b8152600401614903919061c0a1565b60206040518083038186803b15801561491b57600080fd5b505afa15801561492f573d6000803e3d6000fd5b505050506040513d601f19601f82011682018060405250810190614953919061bd27565b8160400181815250508273ffffffffffffffffffffffffffffffffffffffff1663948d8ce6876040518263ffffffff1660e01b8152600401614995919061c0a1565b60206040518083038186803b1580156149ad57600080fd5b505afa1580156149c1573d6000803e3d6000fd5b505050506040513d601f19601f820116820180604052508101906149e5919061bd27565b8160600181815250508273ffffffffffffffffffffffffffffffffffffffff1663d4cadf686040518163ffffffff1660e01b815260040160206040518083038186803b158015614a3457600080fd5b505afa158015614a48573d6000803e3d6000fd5b505050506040513d601f19601f82011682018060405250810190614a6c919061bd27565b81608001818152505060005b82811015614bfc57614aa082600001516002670de0b6b3a764000081614a9a57fe5b0461870b565b868281518110614aac57fe5b60200260200101511115614abf57614bfc565b8373ffffffffffffffffffffffffffffffffffffffff1663ba9530a6620493e084600001518560400151866020015187606001518c8881518110614aff57fe5b602002602001015189608001516040518863ffffffff1660e01b8152600401614b2d9695949392919061cc51565b60206040518083038187803b158015614b4557600080fd5b5086fa93505050508015614b7757506040513d601f19601f82011682018060405250810190614b74919061bd27565b60015b614bb3573d8060008114614ba7576040519150601f19603f3d011682016040523d82523d6000602084013e614bac565b606091505b5050614bfc565b80868381518110614bc057fe5b6020026020010181815250506000868381518110614bda57fe5b60200260200101511415614bee5750614bfc565b508080600101915050614a78565b505050505b949350505050565b600083606001516fffffffffffffffffffffffffffffffff16846101600151604051602001614c38919061cc1e565b6040516020818303038152906040528051906020012060001c81614c5857fe5b0690509392505050565b6000606080614c7185876172eb565b614c7c8787876190e9565b92506000801b831415614c8e57614d9c565b3073ffffffffffffffffffffffffffffffffffffffff16634edfb5b2888589896040518563ffffffff1660e01b8152600401614ccd949392919061caa6565b60006040518083038186803b158015614ce557600080fd5b505afa158015614cf9573d6000803e3d6000fd5b505050506040513d6000823e3d601f19601f82011682018060405250810190614d22919061b5dd565b876080018190525086608001519150614d996040518060600160405280878a604051602001614d5292919061c3ba565b6040516020818303038152906040528152602001888a604051602001614d7992919061c3ba565b60405160208183030381529060405281526020016192d781525085617b61565b90505b9450945094915050565b6000808573ffffffffffffffffffffffffffffffffffffffff1663901754d786866040518363ffffffff1660e01b8152600401614de492919061c0f3565b60206040518083038186803b158015614dfc57600080fd5b505afa158015614e10573d6000803e3d6000fd5b505050506040513d601f19601f82011682018060405250810190614e34919061abcb565b9050600073ffffffffffffffffffffffffffffffffffffffff168173ffffffffffffffffffffffffffffffffffffffff161415614e7557600091505061503a565b60008073ffffffffffffffffffffffffffffffffffffffff168673ffffffffffffffffffffffffffffffffffffffff1614614f38578573ffffffffffffffffffffffffffffffffffffffff166370a08231836040518263ffffffff1660e01b8152600401614ee3919061c0a1565b60206040518083038186803b158015614efb57600080fd5b505afa158015614f0f573d6000803e3d6000fd5b505050506040513d601f19601f82011682018060405250810190614f33919061bd27565b614f51565b8173ffffffffffffffffffffffffffffffffffffffff16315b905083811015614f665760009250505061503a565b8173ffffffffffffffffffffffffffffffffffffffff16631e1401f8620249f08888886040518563ffffffff1660e01b8152600401614fa79392919061c22a565b60206040518083038187803b158015614fbf57600080fd5b5086fa93505050508015614ff157506040513d601f19601f82011682018060405250810190614fee919061bd27565b60015b615033573d8060008114615021576040519150601f19603f3d011682016040523d82523d6000602084013e615026565b606091505b506000935050505061503a565b8093505050505b949350505050565b606061504e83856172eb565b6000856020015190506060600267ffffffffffffffff8111801561507157600080fd5b506040519080825280602002602001820160405280156150a05781602001602082028036833780820191505090505b50905085816000815181106150b157fe5b602002602001019073ffffffffffffffffffffffffffffffffffffffff16908173ffffffffffffffffffffffffffffffffffffffff168152505084816001815181106150f957fe5b602002602001019073ffffffffffffffffffffffffffffffffffffffff16908173ffffffffffffffffffffffffffffffffffffffff16815250506000845190508067ffffffffffffffff8111801561515057600080fd5b5060405190808252806020026020018201604052801561517f5781602001602082028036833780820191505090505b50935061518a61a1d4565b61519261735e565b905060005b828110156152df5760606151be8b8984815181106151b157fe5b60200260200101516173be565b90508573ffffffffffffffffffffffffffffffffffffffff1663f84d066e60018388876040518563ffffffff1660e01b8152600401615200949392919061c796565b600060405180830381600087803b15801561521a57600080fd5b505af192505050801561525057506040513d6000823e3d601f19601f8201168201806040525081019061524d919061b385565b60015b61528d573d8060008114615280576040519150601f19603f3d011682016040523d82523d6000602084013e615285565b606091505b5050506152df565b60008160008151811061529c57fe5b60200260200101519050600081136152b6575050506152df565b808985815181106152c357fe5b6020026020010181815250505050508080600101915050615197565b5050505050949350505050565b600360009054906101000a900473ffffffffffffffffffffffffffffffffffffffff1681565b60606000825190508067ffffffffffffffff8111801561533157600080fd5b506040519080825280602002602001820160405280156153605781602001602082028036833780820191505090505b50915060005b81811015615491578673ffffffffffffffffffffffffffffffffffffffff1663343fbcdd62061a80888888868151811061539c57fe5b60200260200101516040518563ffffffff1660e01b81526004016153c29392919061c68c565b60206040518083038187803b1580156153da57600080fd5b5086fa9350505050801561540c57506040513d601f19601f82011682018060405250810190615409919061bd27565b60015b615448573d806000811461543c576040519150601f19603f3d011682016040523d82523d6000602084013e615441565b606091505b5050615491565b8084838151811061545557fe5b602002602001018181525050600084838151811061546f57fe5b602002602001015114156154835750615491565b508080600101915050615366565b5050949350505050565b60008060606154aa85876172eb565b6000845190508067ffffffffffffffff811180156154c757600080fd5b506040519080825280602002602001820160405280156154f65781602001602082028036833780820191505090505b509150615505898989896193ed565b8095508194505050600073ffffffffffffffffffffffffffffffffffffffff168373ffffffffffffffffffffffffffffffffffffffff1614156155485750615607565b60005b818110156156045760006155b989868860405160200161556d9392919061c1bf565b6040516020818303038152906040528987896040516020016155919392919061c1bf565b6040516020818303038152906040528985815181106155ac57fe5b602002602001015161955f565b9050808483815181106155c857fe5b60200260200101818152505060008483815181106155e257fe5b602002602001015114156155f65750615604565b50808060010191505061554b565b50505b955095509592505050565b606061561e83856172eb565b6000825190508067ffffffffffffffff8111801561563b57600080fd5b5060405190808252806020026020018201604052801561566a5781602001602082028036833780820191505090505b50915060005b8181101561579b578673ffffffffffffffffffffffffffffffffffffffff1663144a2752620f424087898886815181106156a657fe5b60200260200101516040518563ffffffff1660e01b81526004016156cc9392919061c22a565b60206040518083038187803b1580156156e457600080fd5b5086fa9350505050801561571657506040513d601f19601f82011682018060405250810190615713919061bd27565b60015b615752573d8060008114615746576040519150601f19603f3d011682016040523d82523d6000602084013e61574b565b606091505b505061579b565b8084838151811061575f57fe5b602002602001018181525050600084838151811061577957fe5b6020026020010151141561578d575061579b565b508080600101915050615670565b5050949350505050565b600060606157b384866172eb565b6000835190508067ffffffffffffffff811180156157d057600080fd5b506040519080825280602002602001820160405280156157ff5781602001602082028036833780820191505090505b50915060005b8181101561587957600061582e89898989868151811061582157fe5b6020026020010151614da6565b90508084838151811061583d57fe5b602002602001018181525050600084838151811061585757fe5b6020026020010151141561586b5750615879565b508080600101915050615805565b508673ffffffffffffffffffffffffffffffffffffffff1663901754d787876040518363ffffffff1660e01b81526004016158b592919061c0f3565b60206040518083038186803b1580156158cd57600080fd5b505afa1580156158e1573d6000803e3d6000fd5b505050506040513d601f19601f82011682018060405250810190615905919061abcb565b92505094509492505050565b606061597b6040518060600160405280858860405160200161593492919061c0f3565b6040516020818303038152906040528152602001868860405160200161595b92919061c0f3565b60405160208183030381529060405281526020016196d481525083617b61565b9050949350505050565b6060825167ffffffffffffffff8111801561599f57600080fd5b506040519080825280602002602001820160405280156159ce5781602001602082028036833780820191505090505b50905060005b83518114615ac1577f000000000000000000000000000000000000000000000000000000000000000073ffffffffffffffffffffffffffffffffffffffff16848281518110615a1f57fe5b602002602001015173ffffffffffffffffffffffffffffffffffffffff1614615a8357615a7e83858381518110615a5257fe5b602002602001015173ffffffffffffffffffffffffffffffffffffffff1661980490919063ffffffff16565b615a9c565b8273ffffffffffffffffffffffffffffffffffffffff16315b828281518110615aa857fe5b60200260200101818152505080806001019150506159d4565b5092915050565b6060615b3260405180606001604052808588604051602001615aeb92919061c0f3565b60405160208183030381529060405281526020018688604051602001615b1292919061c0f3565b604051602081830303815290604052815260200161991281525083617b61565b9050949350505050565b6060615b4883856172eb565b6000825190508067ffffffffffffffff81118015615b6557600080fd5b50604051908082528060200260200182016040528015615b945781602001602082028036833780820191505090505b50915060008073ffffffffffffffffffffffffffffffffffffffff168673ffffffffffffffffffffffffffffffffffffffff1614615bdb57615bd68787617474565b615bde565b60005b905060008073ffffffffffffffffffffffffffffffffffffffff168673ffffffffffffffffffffffffffffffffffffffff1614615c2457615c1f8887617474565b615c27565b60005b905060005b83811015615df157600060019050600073ffffffffffffffffffffffffffffffffffffffff168873ffffffffffffffffffffffffffffffffffffffff161415615cb557615c94846395b68fe760e01b898581518110615c8757fe5b6020026020010151617507565b878481518110615ca057fe5b60200260200101819350828152505050615db8565b600073ffffffffffffffffffffffffffffffffffffffff168973ffffffffffffffffffffffffffffffffffffffff161415615d3057615d0f8363cd7724c360e01b898581518110615d0257fe5b6020026020010151617507565b878481518110615d1b57fe5b60200260200101819350828152505050615db7565b6000615d57856395b68fe760e01b8a8681518110615d4a57fe5b6020026020010151617507565b809350819250505060008114615d9a57615d798463cd7724c360e01b83617507565b888581518110615d8557fe5b60200260200101819450828152505050615db5565b6000878481518110615da857fe5b6020026020010181815250505b505b5b801580615dd857506000868381518110615dce57fe5b6020026020010151145b15615de35750615df1565b508080600101915050615c2c565b50505050949350505050565b60606000825190508067ffffffffffffffff81118015615e1c57600080fd5b50604051908082528060200260200182016040528015615e4b5781602001602082028036833780820191505090505b50915060005b81811015615f93578573ffffffffffffffffffffffffffffffffffffffff16631f00ca74620249f0868481518110615e8557fe5b6020026020010151886040518463ffffffff1660e01b8152600401615eab92919061cc2f565b60006040518083038187803b158015615ec357600080fd5b5086fa93505050508015615efa57506040513d6000823e3d601f19601f82011682018060405250810190615ef7919061b507565b60015b615f36573d8060008114615f2a576040519150601f19603f3d011682016040523d82523d6000602084013e615f2f565b606091505b5050615f93565b80600081518110615f4357fe5b6020026020010151848381518110615f5757fe5b6020026020010181815250506000848381518110615f7157fe5b60200260200101511415615f855750615f93565b508080600101915050615e51565b50509392505050565b6060615fa883856172eb565b6000825190508067ffffffffffffffff81118015615fc557600080fd5b50604051908082528060200260200182016040528015615ff45781602001602082028036833780820191505090505b50915060005b81811015616125578673ffffffffffffffffffffffffffffffffffffffff1663ff1fd974620f4240888888868151811061603057fe5b60200260200101516040518563ffffffff1660e01b81526004016160569392919061c22a565b60206040518083038187803b15801561606e57600080fd5b5086fa935050505080156160a057506040513d601f19601f8201168201806040525081019061609d919061bd27565b60015b6160dc573d80600081146160d0576040519150601f19603f3d011682016040523d82523d6000602084013e6160d5565b606091505b5050616125565b808483815181106160e957fe5b602002602001018181525050600084838151811061610357fe5b602002602001015114156161175750616125565b508080600101915050615ffa565b5050949350505050565b600060608061613e85876172eb565b6161498787876190e9565b92506000801b83141561615b5761634a565b3073ffffffffffffffffffffffffffffffffffffffff16634edfb5b2888589896040518563ffffffff1660e01b815260040161619a949392919061caa6565b60006040518083038186803b1580156161b257600080fd5b505afa1580156161c6573d6000803e3d6000fd5b505050506040513d6000823e3d601f19601f820116820180604052508101906161ef919061b5dd565b8760800181905250866080015191506000845190508067ffffffffffffffff8111801561621b57600080fd5b5060405190808252806020026020018201604052801561624a5781602001602082028036833780820191505090505b50915060005b818110156163475760003073ffffffffffffffffffffffffffffffffffffffff1663f1ed7fa48b8b8b8b878151811061628557fe5b60200260200101516040518563ffffffff1660e01b81526004016162ac949392919061ca6a565b60206040518083038186803b1580156162c457600080fd5b505afa1580156162d8573d6000803e3d6000fd5b505050506040513d601f19601f820116820180604052508101906162fc919061bd27565b90508084838151811061630b57fe5b602002602001018181525050600084838151811061632557fe5b602002602001015114156163395750616347565b508080600101915050616250565b50505b9450945094915050565b73e9db8717bc5dfb20aaf538b4a5a02b7791ff430c81565b600080606061637b85876172eb565b616387888888886193ed565b8094508193505050600073ffffffffffffffffffffffffffffffffffffffff168273ffffffffffffffffffffffffffffffffffffffff1614156163c957616489565b6000845190508067ffffffffffffffff811180156163e657600080fd5b506040519080825280602002602001820160405280156164155781602001602082028036833780820191505090505b50915061648560405180606001604052808886881560405160200161643c9392919061c1bf565b60405160208183030381529060405281526020018986886040516020016164659392919061c1bf565b604051602081830303815290604052815260200161955f81525086617b61565b9150505b955095509592505050565b60008060606164a385876172eb565b6000845190508067ffffffffffffffff811180156164c057600080fd5b506040519080825280602002602001820160405280156164ef5781602001602082028036833780820191505090505b509150876000015173ffffffffffffffffffffffffffffffffffffffff16631273b0c688886040518363ffffffff1660e01b815260040161653192919061c0f3565b60206040518083038186803b15801561654957600080fd5b505afa15801561655d573d6000803e3d6000fd5b505050506040513d601f19601f82011682018060405250810190616581919061abcb565b925060008073ffffffffffffffffffffffffffffffffffffffff168473ffffffffffffffffffffffffffffffffffffffff16146165c45787905060019450616699565b886000015173ffffffffffffffffffffffffffffffffffffffff16631273b0c6888a6040518363ffffffff1660e01b815260040161660392919061c0f3565b60206040518083038186803b15801561661b57600080fd5b505afa15801561662f573d6000803e3d6000fd5b505050506040513d601f19601f82011682018060405250810190616653919061abcb565b9350600073ffffffffffffffffffffffffffffffffffffffff168473ffffffffffffffffffffffffffffffffffffffff16141561669157505061679f565b869050600094505b8373ffffffffffffffffffffffffffffffffffffffff1663dd58b41c6040518163ffffffff1660e01b815260040160206040518083038186803b1580156166df57600080fd5b505afa1580156166f3573d6000803e3d6000fd5b505050506040513d601f19601f82011682018060405250810190616717919061b543565b61672257505061679f565b61679a60405180606001604052808987858e6020015160405160200161674b949392919061c117565b60405160208183030381529060405281526020018a87858e6020015160405160200161677a949392919061c117565b6040516020818303038152906040528152602001617d8781525087617b61565b925050505b9450945094915050565b6060835167ffffffffffffffff811180156167c357600080fd5b506040519080825280602002602001820160405280156167f25781602001602082028036833780820191505090505b50905060005b845181146168d1577f000000000000000000000000000000000000000000000000000000000000000073ffffffffffffffffffffffffffffffffffffffff1685828151811061684357fe5b602002602001015173ffffffffffffffffffffffffffffffffffffffff16146168a9576168a4848487848151811061687757fe5b602002602001015173ffffffffffffffffffffffffffffffffffffffff16619a479092919063ffffffff16565b6168ac565b60005b8282815181106168b857fe5b60200260200101818152505080806001019150506167f8565b509392505050565b60606000825190508067ffffffffffffffff811180156168f857600080fd5b506040519080825280602002602001820160405280156169275781602001602082028036833780820191505090505b50915060005b81811015616a36578673ffffffffffffffffffffffffffffffffffffffff1663838e6a22620493e0888888868151811061696357fe5b60200260200101516040518563ffffffff1660e01b81526004016169899392919061c22a565b60206040518083038187803b1580156169a157600080fd5b5086fa935050505080156169d357506040513d601f19601f820116820180604052508101906169d0919061bd27565b60015b616a0f573d8060008114616a03576040519150601f19603f3d011682016040523d82523d6000602084013e616a08565b606091505b5050616a36565b80848381518110616a1c57fe5b60200260200101818152505050808060010191505061692d565b5050949350505050565b6000808560800151511415616a585760009050616c1f565b846040015173ffffffffffffffffffffffffffffffffffffffff1663418436bc6207a120876060015173ffffffffffffffffffffffffffffffffffffffff168773ffffffffffffffffffffffffffffffffffffffff1614616ab95786616acf565b73eeeeeeeeeeeeeeeeeeeeeeeeeeeeeeeeeeeeeeee5b886060015173ffffffffffffffffffffffffffffffffffffffff168773ffffffffffffffffffffffffffffffffffffffff1614616b0c5786616b22565b73eeeeeeeeeeeeeeeeeeeeeeeeeeeeeeeeeeeeeeee5b8660008b608001516040518763ffffffff1660e01b8152600401616b4a95949392919061c255565b60206040518083038187803b158015616b6257600080fd5b5086fa93505050508015616b9457506040513d601f19601f82011682018060405250810190616b91919061bd27565b60015b616bd4573d8060008114616bc4576040519150601f19603f3d011682016040523d82523d6000602084013e616bc9565b606091505b506000915050616c1f565b6000616bdf85619b58565b60ff1690506000616bef87619b58565b60ff169050670de0b6b3a764000081600a0a83600a0a8786020281616c1057fe5b0481616c1857fe5b0493505050505b949350505050565b60006060616c3584866172eb565b6000835190508067ffffffffffffffff81118015616c5257600080fd5b50604051908082528060200260200182016040528015616c815781602001602082028036833780820191505090505b509150616cec60405180606001604052808988604051602001616ca592919061c0f3565b60405160208183030381529060405281526020018989604051602001616ccc92919061c0f3565b6040516020818303038152906040528152602001619b6a81525085617b61565b91508673ffffffffffffffffffffffffffffffffffffffff1663901754d787876040518363ffffffff1660e01b8152600401616d2992919061c0f3565b60206040518083038186803b158015616d4157600080fd5b505afa158015616d55573d6000803e3d6000fd5b505050506040513d601f19601f82011682018060405250810190616d79919061abcb565b92505094509492505050565b616d8d61a277565b616d9561a277565b60007fffffffffffffffffffffffffffffffffffffffffffffffffffffffffffffffff905060007fffffffffffffffffffffffffffffffffffffffffffffffffffffffffffffffff905060005b86518114616f0557616e296020888381518110616dfb57fe5b6020026020010151510387898481518110616e1257fe5b6020026020010151618f499092919063ffffffff16565b600060603073ffffffffffffffffffffffffffffffffffffffff16898481518110616e5057fe5b6020026020010151604051616e65919061c083565b600060405180830381855afa9150503d8060008114616ea0576040519150601f19603f3d011682016040523d82523d6000602084013e616ea5565b606091505b50915091508115616ef8576000616ec9602083510383618f5c90919063ffffffff16565b9050600081118015616eda57508481105b15616ef657809450838760000181815250508187602001819052505b505b5050806001019050616de2565b507fffffffffffffffffffffffffffffffffffffffffffffffffffffffffffffffff811415616f34575061705d565b60005b8751811461705a57616f7e6020898381518110616f5057fe5b60200260200101515103838a8481518110616f6757fe5b6020026020010151618f499092919063ffffffff16565b600060603073ffffffffffffffffffffffffffffffffffffffff168a8481518110616fa557fe5b6020026020010151604051616fba919061c083565b600060405180830381855afa9150503d8060008114616ff5576040519150601f19603f3d011682016040523d82523d6000602084013e616ffa565b606091505b5091509150811561704d57600061701e602083510383618f5c90919063ffffffff16565b905060008111801561702f57508581105b1561704b57809550838860000181815250508188602001819052505b505b5050806001019050616f37565b50505b93509350939050565b600260009054906101000a900473ffffffffffffffffffffffffffffffffffffffff1681565b60006060856000015173ffffffffffffffffffffffffffffffffffffffff166321f8a721876000015173ffffffffffffffffffffffffffffffffffffffff16639232494e6040518163ffffffff1660e01b815260040160206040518083038186803b1580156170fa57600080fd5b505afa15801561710e573d6000803e3d6000fd5b505050506040513d601f19601f82011682018060405250810190617132919061b5c2565b6040518263ffffffff1660e01b815260040161714e919061c5d8565b60206040518083038186803b15801561716657600080fd5b505afa15801561717a573d6000803e3d6000fd5b505050506040513d601f19601f8201168201806040525081019061719e919061abcb565b9150600086602001515114156171b3576172e2565b6000805b8760200151518110156172df576002886020015182815181106171d657fe5b60200260200101515110156171ea576172d2565b8373ffffffffffffffffffffffffffffffffffffffff16637f9c0ecd620493e08a60200151848151811061721a57fe5b60200260200101518860018a51038151811061723257fe5b60200260200101516040518463ffffffff1660e01b815260040161725792919061c45f565b60206040518083038187803b15801561726f57600080fd5b5086fa935050505080156172a157506040513d601f19601f8201168201806040525081019061729e919061bd27565b60015b6172aa576172d2565b828111156172d057809250886020015182815181106172c557fe5b602002602001015193505b505b80806001019150506171b7565b50505b94509492505050565b8073ffffffffffffffffffffffffffffffffffffffff168273ffffffffffffffffffffffffffffffffffffffff16141561735a576040517f08c379a00000000000000000000000000000000000000000000000000000000081526004016173519061c92f565b60405180910390fd5b5050565b61736661a1d4565b60405180608001604052803073ffffffffffffffffffffffffffffffffffffffff1681526020016000151581526020013073ffffffffffffffffffffffffffffffffffffffff16815260200160001515815250905090565b606080600167ffffffffffffffff811180156173d957600080fd5b5060405190808252806020026020018201604052801561741357816020015b61740061a291565b8152602001906001900390816173f85790505b5090506040518060a00160405280856000015181526020016000815260200160018152602001848152602001604051806020016040528060008152508152508160008151811061745f57fe5b60200260200101819052508091505092915050565b60008273ffffffffffffffffffffffffffffffffffffffff166306f2bf62836040518263ffffffff1660e01b81526004016174af919061c0a1565b60206040518083038186803b1580156174c757600080fd5b505afa1580156174db573d6000803e3d6000fd5b505050506040513d601f19601f820116820180604052508101906174ff919061abcb565b905092915050565b600080600073ffffffffffffffffffffffffffffffffffffffff168573ffffffffffffffffffffffffffffffffffffffff16141561754457617646565b60608573ffffffffffffffffffffffffffffffffffffffff16620249f08686604051602401617573919061cc1e565b604051602081830303815290604052907bffffffffffffffffffffffffffffffffffffffffffffffffffffffff19166020820180517bffffffffffffffffffffffffffffffffffffffffffffffffffffffff83818316178352505050506040516175dd919061c083565b6000604051808303818686fa925050503d8060008114617619576040519150601f19603f3d011682016040523d82523d6000602084013e61761e565b606091505b50809250819350505081156176445780806020019051810190617641919061bd27565b92505b505b935093915050565b6000806000808473ffffffffffffffffffffffffffffffffffffffff1663d9638d368b602001516040518263ffffffff1660e01b8152600401617691919061c5d8565b60a06040518083038186803b1580156176a957600080fd5b505afa1580156176bd573d6000803e3d6000fd5b505050506040513d601f19601f820116820180604052508101906176e1919061bd9d565b94509450505092506000620f424090508a6040015173ffffffffffffffffffffffffffffffffffffffff168973ffffffffffffffffffffffffffffffffffffffff16141561786557600061774364e8d4a510008a619bbb90919063ffffffff16565b905060006177786b033b2e3c9fd0803ce800000061776a8489619c0590919063ffffffff16565b619bbb90919063ffffffff16565b905084811061779057600096505050505050506179e1565b600061783c670de0b6b3a764000061782e8c73ffffffffffffffffffffffffffffffffffffffff1663568d4b6f6040518163ffffffff1660e01b815260040160206040518083038186803b1580156177e757600080fd5b505afa1580156177fb573d6000803e3d6000fd5b505050506040513d601f19601f8201168201806040525081019061781f919061bd27565b86619bbb90919063ffffffff16565b619c3490919063ffffffff16565b905060006178538285619c6b90919063ffffffff16565b905080985050505050505050506179e1565b8a6040015173ffffffffffffffffffffffffffffffffffffffff168a73ffffffffffffffffffffffffffffffffffffffff1614156179d8576000889050848111156178b8576000955050505050506179e1565b60006178eb6b033b2e3c9fd0803ce80000006178dd8489619c6b90919063ffffffff16565b619bbb90919063ffffffff16565b905083811161790357600096505050505050506179e1565b600061799d8a73ffffffffffffffffffffffffffffffffffffffff1663fae036d56040518163ffffffff1660e01b815260040160206040518083038186803b15801561794e57600080fd5b505afa158015617962573d6000803e3d6000fd5b505050506040513d601f19601f82011682018060405250810190617986919061bd27565b670de0b6b3a7640000619c0590919063ffffffff16565b905060006179c6826179b88787619bbb90919063ffffffff16565b619c3490919063ffffffff16565b905080985050505050505050506179e1565b60009450505050505b9695505050505050565b6000806179f661a2c3565b85806020019051810190617a0a919061b75d565b91509150600085806020019051810190617a24919061b700565b9050600060603073ffffffffffffffffffffffffffffffffffffffff16638b6d7b4460e01b858786617a558c619c95565b604051602401617a68949392919061cbe1565b604051602081830303815290604052907bffffffffffffffffffffffffffffffffffffffffffffffffffffffff19166020820180517bffffffffffffffffffffffffffffffffffffffffffffffffffffffff8381831617835250505050604051617ad2919061c083565b600060405180830381855afa9150503d8060008114617b0d576040519150601f19603f3d011682016040523d82523d6000602084013e617b12565b606091505b509150915081617b2a57600095505050505050617b5a565b80806020019051810190617b3e919061b507565b600081518110617b4a57fe5b6020026020010151955050505050505b9392505050565b6060815167ffffffffffffffff81118015617b7b57600080fd5b50604051908082528060200260200182016040528015617baa5781602001602082028036833780820191505090505b509050600082511415617bbc57617d81565b6000617bed8460000151856020015185600081518110617bd857fe5b6020026020010151876040015163ffffffff16565b90506000811415617bfe5750617d81565b6000617c1b8560200151866000015184886040015163ffffffff16565b90506000811415617c2d575050617d81565b60005b8451811015617d7d5760005b6005811015617d3957617c63868381518110617c5457fe5b60200260200101518486619d00565b93506000841415617c7357617d39565b617c8560056127100161271086619d00565b93506000841415617c9557617d39565b6000617cb288602001518960000151878b6040015163ffffffff16565b90506000811415617cc35750617d39565b809350868381518110617cd257fe5b60200260200101518410617d2b576000878481518110617cee57fe5b6020026020010151612710898681518110617d0557fe5b602002602001015187030281617d1757fe5b04905060058111617d29575050617d39565b505b508080600101915050617c3c565b50617d58858281518110617d4957fe5b60200260200101518385619d00565b848281518110617d6457fe5b6020026020010181815250508080600101915050617c30565b5050505b92915050565b600080600080600087806020019051810190617da3919061ac51565b93509350935093508173ffffffffffffffffffffffffffffffffffffffff168473ffffffffffffffffffffffffffffffffffffffff161415617eb7578273ffffffffffffffffffffffffffffffffffffffff1663a2801e16620493e0886040518363ffffffff1660e01b8152600401617e1c919061cc1e565b60206040518083038187803b158015617e3457600080fd5b5086fa93505050508015617e6657506040513d601f19601f82011682018060405250810190617e63919061bd27565b60015b617eaa573d8060008114617e96576040519150601f19603f3d011682016040523d82523d6000602084013e617e9b565b606091505b50600095505050505050617f8d565b8095505050505050617f8d565b8073ffffffffffffffffffffffffffffffffffffffff1663ca19ebd9620493e085896040518463ffffffff1660e01b8152600401617ef692919061c3e4565b60206040518083038187803b158015617f0e57600080fd5b5086fa93505050508015617f4057506040513d601f19601f82011682018060405250810190617f3d919061bd27565b60015b617f84573d8060008114617f70576040519150601f19603f3d011682016040523d82523d6000602084013e617f75565b606091505b50600095505050505050617f8d565b80955050505050505b9392505050565b60606002828451031015617fdd576040517f08c379a0000000000000000000000000000000000000000000000000000000008152600401617fd49061c8cb565b60405180910390fd5b617fe561a338565b60405180606001604052806101f462ffffff1662ffffff168152602001610bb862ffffff1662ffffff16815260200161271062ffffff1662ffffff1681525090506060600367ffffffffffffffff8111801561804057600080fd5b5060405190808252806020026020018201604052801561806f5781602001602082028036833780820191505090505b50905060008086868151811061808157fe5b60200260200101519050600087600188018151811061809c57fe5b6020026020010151905060005b60038110156181bb5760008a73ffffffffffffffffffffffffffffffffffffffff16631698ee8285858a86600381106180de57fe5b60200201516040518463ffffffff1660e01b81526004016181019392919061c65c565b60206040518083038186803b15801561811957600080fd5b505afa15801561812d573d6000803e3d6000fd5b505050506040513d601f19601f82011682018060405250810190618151919061b665565b905061815c81619d64565b156181af578086868060010197508151811061817457fe5b602002602001019073ffffffffffffffffffffffffffffffffffffffff16908173ffffffffffffffffffffffffffffffffffffffff16815250505b508060010190506180a9565b50505060008114156181cf5750505061855b565b8551600286011415618315578067ffffffffffffffff811180156181f257600080fd5b5060405190808252806020026020018201604052801561822657816020015b60608152602001906001900390816182115790505b50935060005b8181101561830c57600167ffffffffffffffff8111801561824c57600080fd5b5060405190808252806020026020018201604052801561827b5781602001602082028036833780820191505090505b5085828151811061828857fe5b602002602001018190525082818151811061829f57fe5b60200260200101518582815181106182b357fe5b60200260200101516000815181106182c757fe5b602002602001019073ffffffffffffffffffffffffffffffffffffffff16908173ffffffffffffffffffffffffffffffffffffffff168152505080600101905061822c565b5050505061855b565b6060618325888860018901617f94565b905060008151141561833a575050505061855b565b8051820267ffffffffffffffff8111801561835457600080fd5b5060405190808252806020026020018201604052801561838857816020015b60608152602001906001900390816183735790505b50945060005b828110156185555760005b825181101561854957600081845184020190508382815181106183b857fe5b60200260200101515160010167ffffffffffffffff811180156183da57600080fd5b506040519080825280602002602001820160405280156184095781602001602082028036833780820191505090505b5088828151811061841657fe5b602002602001018190525085838151811061842d57fe5b602002602001015188828151811061844157fe5b602002602001015160008151811061845557fe5b602002602001019073ffffffffffffffffffffffffffffffffffffffff16908173ffffffffffffffffffffffffffffffffffffffff168152505060005b84838151811061849e57fe5b60200260200101515181101561853c578483815181106184ba57fe5b602002602001015181815181106184cd57fe5b60200260200101518983815181106184e157fe5b602002602001015182600101815181106184f757fe5b602002602001019073ffffffffffffffffffffffffffffffffffffffff16908173ffffffffffffffffffffffffffffffffffffffff1681525050806001019050618492565b5050806001019050618399565b5080600101905061838e565b50505050505b9392505050565b6060600283511015801561857a575060018251018351145b6185b9576040517f08c379a00000000000000000000000000000000000000000000000000000000081526004016185b09061c993565b60405180910390fd5b600382510260148451020167ffffffffffffffff811180156185da57600080fd5b506040519080825280601f01601f19166020018201604052801561860d5781602001600182028036833780820191505090505b509050600060208201905060005b84518110156187035760008111156186d357600084600183038151811061863e57fe5b602002602001015173ffffffffffffffffffffffffffffffffffffffff1663ddca3f436040518163ffffffff1660e01b815260040160206040518083038186803b15801561868b57600080fd5b505afa15801561869f573d6000803e3d6000fd5b505050506040513d601f19601f820116820180604052508101906186c3919061bcfa565b90508060e81b8352600383019250505b60008582815181106186e157fe5b602002602001015190508060601b83526014830192505080600101905061861b565b505092915050565b60008082840290506000841415801561872d57508284828161872957fe5b0414155b1561873c576000915050618785565b60006002670de0b6b3a76400008161875057fe5b04820190508181101561876857600092505050618785565b6000670de0b6b3a7640000828161877b57fe5b0490508093505050505b92915050565b6060815167ffffffffffffffff811180156187a557600080fd5b506040519080825280602002602001820160405280156187d45781602001602082028036833780820191505090505b50905060005b825181101561884e578260018285510303815181106187f557fe5b602002602001015182828151811061880957fe5b602002602001019073ffffffffffffffffffffffffffffffffffffffff16908173ffffffffffffffffffffffffffffffffffffffff16815250508060010190506187da565b50919050565b6060815167ffffffffffffffff8111801561886e57600080fd5b5060405190808252806020026020018201604052801561889d5781602001602082028036833780820191505090505b50905060005b8251811015618917578260018285510303815181106188be57fe5b60200260200101518282815181106188d257fe5b602002602001019073ffffffffffffffffffffffffffffffffffffffff16908173ffffffffffffffffffffffffffffffffffffffff16815250508060010190506188a3565b50919050565b600080600085806020019051810190618936919061ac17565b91509150600085806020019051810190618950919061abf1565b90503073ffffffffffffffffffffffffffffffffffffffff1663e8e4af0983858461897a8a619c95565b6040518563ffffffff1660e01b8152600401618999949392919061c14d565b60006040518083038186803b1580156189b157600080fd5b505afa9250505080156189e757506040513d6000823e3d601f19601f820116820180604052508101906189e4919061b507565b60015b618a2a573d8060008114618a17576040519150601f19603f3d011682016040523d82523d6000602084013e618a1c565b606091505b506000945050505050618a46565b80600081518110618a3757fe5b60200260200101519450505050505b9392505050565b6000618a9983618a8b618a6a600187619c6b90919063ffffffff16565b618a7d8689619bbb90919063ffffffff16565b619c0590919063ffffffff16565b619c3490919063ffffffff16565b90509392505050565b600060129050600060608373ffffffffffffffffffffffffffffffffffffffff166040518060400160405280600481526020017f313ce56700000000000000000000000000000000000000000000000000000000815250604051618b06919061c083565b600060405180830381855afa9150503d8060008114618b41576040519150601f19603f3d011682016040523d82523d6000602084013e618b46565b606091505b5091509150818015618b5a57506020815110155b15618b6d57618b6a816000618f5c565b92505b5050919050565b6000806000808473ffffffffffffffffffffffffffffffffffffffff1663d9638d368b602001516040518263ffffffff1660e01b8152600401618bb7919061c5d8565b60a06040518083038186803b158015618bcf57600080fd5b505afa158015618be3573d6000803e3d6000fd5b505050506040513d601f19601f82011682018060405250810190618c07919061bd9d565b9450945050509250896040015173ffffffffffffffffffffffffffffffffffffffff168873ffffffffffffffffffffffffffffffffffffffff161415618da45760008790506000618ce68873ffffffffffffffffffffffffffffffffffffffff1663568d4b6f6040518163ffffffff1660e01b815260040160206040518083038186803b158015618c9757600080fd5b505afa158015618cab573d6000803e3d6000fd5b505050506040513d601f19601f82011682018060405250810190618ccf919061bd27565b670de0b6b3a7640000619c6b90919063ffffffff16565b90506000618d1782618d09670de0b6b3a764000086619bbb90919063ffffffff16565b619c3490919063ffffffff16565b90506000618d4c6b033b2e3c9fd0803ce8000000618d3e848a619c0590919063ffffffff16565b619bbb90919063ffffffff16565b9050858110618d65576000975050505050505050618f3f565b6000618d926001618d8464e8d4a5100086619c3490919063ffffffff16565b619c0590919063ffffffff16565b90508098505050505050505050618f3f565b896040015173ffffffffffffffffffffffffffffffffffffffff168973ffffffffffffffffffffffffffffffffffffffff161415618f37576000618df664e8d4a5100089619bbb90919063ffffffff16565b90506000618e928873ffffffffffffffffffffffffffffffffffffffff1663fae036d56040518163ffffffff1660e01b815260040160206040518083038186803b158015618e4357600080fd5b505afa158015618e57573d6000803e3d6000fd5b505050506040513d601f19601f82011682018060405250810190618e7b919061bd27565b670de0b6b3a7640000619c0590919063ffffffff16565b90506000618ec3670de0b6b3a7640000618eb58486619bbb90919063ffffffff16565b619c3490919063ffffffff16565b905085811115618edc5760009650505050505050618f3f565b6000618f0f6b033b2e3c9fd0803ce8000000618f01848a619c6b90919063ffffffff16565b619bbb90919063ffffffff16565b9050848111618f28576000975050505050505050618f3f565b81975050505050505050618f3f565b600093505050505b9695505050505050565b618f5783838360001b619fb7565b505050565b6000618f688383619fec565b60001c905092915050565b600080618f7e61a35a565b85806020019051810190618f92919061b726565b91509150600085806020019051810190618fac919061b700565b9050600060603073ffffffffffffffffffffffffffffffffffffffff166340bc03ae60e01b858786618fdd8c619c95565b604051602401618ff0949392919061c9f7565b604051602081830303815290604052907bffffffffffffffffffffffffffffffffffffffffffffffffffffffff19166020820180517bffffffffffffffffffffffffffffffffffffffffffffffffffffffff838183161783525050505060405161905a919061c083565b600060405180830381855afa9150503d8060008114619095576040519150601f19603f3d011682016040523d82523d6000602084013e61909a565b606091505b5091509150816190b2576000955050505050506190e2565b808060200190518101906190c6919061b507565b6000815181106190d257fe5b6020026020010151955050505050505b9392505050565b6000808460200151905060608173ffffffffffffffffffffffffffffffffffffffff1663910ffc71876060015173ffffffffffffffffffffffffffffffffffffffff168773ffffffffffffffffffffffffffffffffffffffff161461914e5786619164565b73eeeeeeeeeeeeeeeeeeeeeeeeeeeeeeeeeeeeeeee5b886060015173ffffffffffffffffffffffffffffffffffffffff168773ffffffffffffffffffffffffffffffffffffffff16146191a157866191b7565b73eeeeeeeeeeeeeeeeeeeeeeeeeeeeeeeeeeeeeeee5b6001600067ffffffffffffffff811180156191d157600080fd5b506040519080825280601f01601f1916602001820160405280156192045781602001600182028036833780820191505090505b506040518563ffffffff1660e01b8152600401619224949392919061c1ec565b60006040518083038186803b15801561923c57600080fd5b505afa158015619250573d6000803e3d6000fd5b505050506040513d6000823e3d601f19601f82011682018060405250810190619279919061b110565b505090508051866000015110619296576000801b925050506192d0565b808660000151815181106192a657fe5b6020026020010151925060bb60f884901c60001c14156192cd576000801b925050506192d0565b50505b9392505050565b6000806192e261a3cf565b848060200190518101906192f6919061ad06565b91509150600086806020019051810190619310919061ad06565b5090503073ffffffffffffffffffffffffffffffffffffffff1663f1ed7fa4838386896040518563ffffffff1660e01b8152600401619352949392919061ca6a565b60206040518083038186803b15801561936a57600080fd5b505afa92505050801561939b57506040513d601f19601f82011682018060405250810190619398919061bd27565b60015b6193de573d80600081146193cb576040519150601f19603f3d011682016040523d82523d6000602084013e6193d0565b606091505b5060009450505050506193e6565b809450505050505b9392505050565b60008060608673ffffffffffffffffffffffffffffffffffffffff166357a281dc86866040518363ffffffff1660e01b815260040161942d92919061c0f3565b60006040518083038186803b15801561944557600080fd5b505afa158015619459573d6000803e3d6000fd5b505050506040513d6000823e3d601f19601f82011682018060405250810190619482919061b065565b905060019150600081511415619529578673ffffffffffffffffffffffffffffffffffffffff166357a281dc85876040518363ffffffff1660e01b81526004016194cd92919061c0f3565b60006040518083038186803b1580156194e557600080fd5b505afa1580156194f9573d6000803e3d6000fd5b505050506040513d6000823e3d601f19601f82011682018060405250810190619522919061b065565b9050600091505b8051861061953e576000809250925050619556565b80868151811061954a57fe5b60200260200101519250505b94509492505050565b60008060008086806020019051810190619579919061acb4565b925092509250801561962b578173ffffffffffffffffffffffffffffffffffffffff166379a04876620493e06000886040518463ffffffff1660e01b81526004016195c592919061c0d3565b604080518083038187803b1580156195dc57600080fd5b5086fa9350505050801561960e57506040513d601f19601f8201168201806040525081019061960b919061bd42565b60015b61961e57600093505050506196cd565b81955050505050506196cd565b8173ffffffffffffffffffffffffffffffffffffffff166366410a21620493e06000886040518463ffffffff1660e01b815260040161966b92919061c0d3565b604080518083038187803b15801561968257600080fd5b5086fa935050505080156196b457506040513d601f19601f820116820180604052508101906196b1919061bd42565b60015b6196c457600093505050506196cd565b81955050505050505b9392505050565b6000806000858060200190518101906196ed919061ac17565b91509150600085806020019051810190619707919061abf1565b90503073ffffffffffffffffffffffffffffffffffffffff166330d6570d8385846197318a619c95565b6040518563ffffffff1660e01b8152600401619750949392919061c14d565b60006040518083038186803b15801561976857600080fd5b505afa92505050801561979e57506040513d6000823e3d601f19601f8201168201806040525081019061979b919061b507565b60015b6197e1573d80600081146197ce576040519150601f19603f3d011682016040523d82523d6000602084013e6197d3565b606091505b5060009450505050506197fd565b806000815181106197ee57fe5b60200260200101519450505050505b9392505050565b60008060608473ffffffffffffffffffffffffffffffffffffffff166370a0823160e01b85604051602401619839919061c0a1565b604051602081830303815290604052907bffffffffffffffffffffffffffffffffffffffffffffffffffffffff19166020820180517bffffffffffffffffffffffffffffffffffffffffffffffffffffffff83818316178352505050506040516198a3919061c083565b600060405180830381855afa9150503d80600081146198de576040519150601f19603f3d011682016040523d82523d6000602084013e6198e3565b606091505b50915091508180156198f757506020815110155b1561990a57619907816000618f5c565b92505b505092915050565b60008060008580602001905181019061992b919061ac17565b91509150600085806020019051810190619945919061abf1565b90503073ffffffffffffffffffffffffffffffffffffffff1663a469841762061a808486856199738b619c95565b6040518663ffffffff1660e01b8152600401619992949392919061c14d565b60006040518083038187803b1580156199aa57600080fd5b5086fa935050505080156199e157506040513d6000823e3d601f19601f820116820180604052508101906199de919061b507565b60015b619a24573d8060008114619a11576040519150601f19603f3d011682016040523d82523d6000602084013e619a16565b606091505b506000945050505050619a40565b80600081518110619a3157fe5b60200260200101519450505050505b9392505050565b60008060608573ffffffffffffffffffffffffffffffffffffffff1663dd62ed3e60e01b8686604051602401619a7e92919061c0f3565b604051602081830303815290604052907bffffffffffffffffffffffffffffffffffffffffffffffffffffffff19166020820180517bffffffffffffffffffffffffffffffffffffffffffffffffffffffff8381831617835250505050604051619ae8919061c083565b600060405180830381855afa9150503d8060008114619b23576040519150601f19603f3d011682016040523d82523d6000602084013e619b28565b606091505b5091509150818015619b3c57506020815110155b15619b4f57619b4c816000618f5c565b92505b50509392505050565b6000619b638261a025565b9050919050565b600080600085806020019051810190619b83919061ac17565b9150915060008086806020019051810190619b9e919061ac17565b91509150619bae84848389614da6565b9450505050509392505050565b600080831415619bce5760009050619bff565b6000828402905082848281619bdf57fe5b0414619bfa57619bf9619bf46001868661a0c2565b61a147565b5b809150505b92915050565b600080828401905083811015619c2a57619c29619c246000868661a0c2565b61a147565b5b8091505092915050565b600080821415619c5357619c52619c4d6003858561a0c2565b61a147565b5b6000828481619c5e57fe5b0490508091505092915050565b600082821115619c8a57619c89619c846002858561a0c2565b61a147565b5b818303905092915050565b6060600167ffffffffffffffff81118015619caf57600080fd5b50604051908082528060200260200182016040528015619cde5781602001602082028036833780820191505090505b5090508181600081518110619cef57fe5b602002602001018181525050919050565b600080841480619d105750600082145b80619d1b5750600083145b15619d295760009050619d5d565b6000828502905082858281619d3a57fe5b0414619d4a576000915050619d5d565b8360018503820181619d5857fe5b049150505b9392505050565b600080823b90506000811415619d7e576000915050619fb2565b5060008273ffffffffffffffffffffffffffffffffffffffff16630dfe16816040518163ffffffff1660e01b815260040160206040518083038186803b158015619dc757600080fd5b505afa158015619ddb573d6000803e3d6000fd5b505050506040513d601f19601f82011682018060405250810190619dff919061b619565b73ffffffffffffffffffffffffffffffffffffffff166370a08231846040518263ffffffff1660e01b8152600401619e37919061c0a1565b60206040518083038186803b158015619e4f57600080fd5b505afa158015619e63573d6000803e3d6000fd5b505050506040513d601f19601f82011682018060405250810190619e87919061bd27565b1415619e965760009050619fb2565b60008273ffffffffffffffffffffffffffffffffffffffff1663d21220a76040518163ffffffff1660e01b815260040160206040518083038186803b158015619ede57600080fd5b505afa158015619ef2573d6000803e3d6000fd5b505050506040513d601f19601f82011682018060405250810190619f16919061b619565b73ffffffffffffffffffffffffffffffffffffffff166370a08231846040518263ffffffff1660e01b8152600401619f4e919061c0a1565b60206040518083038186803b158015619f6657600080fd5b505afa158015619f7a573d6000803e3d6000fd5b505050506040513d601f19601f82011682018060405250810190619f9e919061bd27565b1415619fad5760009050619fb2565b600190505b919050565b6020820183511015619fdc57619fdb619fd6600585516020860161a14f565b61a147565b5b6020820191508082840152505050565b6000602082018351101561a0135761a01261a00d600585516020860161a14f565b61a147565b5b60208201915081830151905092915050565b600073c02aaa39b223fe8d0a0e5c4f27ead9083c756cc273ffffffffffffffffffffffffffffffffffffffff168273ffffffffffffffffffffffffffffffffffffffff16141561a078576012905061a0bd565b60008260405160200161a08b919061c049565b60405160208183030381529060405280519060200120905060048060140360ff168260001c8161a0b757fe5b06019150505b919050565b606063e946c1bb60e01b84848460405160240161a0e19392919061c745565b604051602081830303815290604052907bffffffffffffffffffffffffffffffffffffffffffffffffffffffff19166020820180517bffffffffffffffffffffffffffffffffffffffffffffffffffffffff838183161783525050505090509392505050565b805160208201fd5b6060632800659560e01b84848460405160240161a16e9392919061c76d565b604051602081830303815290604052907bffffffffffffffffffffffffffffffffffffffffffffffffffffffff19166020820180517bffffffffffffffffffffffffffffffffffffffffffffffffffffffff838183161783525050505090509392505050565b6040518060800160405280600073ffffffffffffffffffffffffffffffffffffffff168152602001600015158152602001600073ffffffffffffffffffffffffffffffffffffffff1681526020016000151581525090565b6040518060a0016040528060008152602001600081526020016000815260200160008152602001600081525090565b6040518060400160405280606081526020016000151581525090565b604051806040016040528060008152602001606081525090565b6040518060a0016040528060008019168152602001600081526020016000815260200160008152602001606081525090565b6040518060600160405280600073ffffffffffffffffffffffffffffffffffffffff16815260200160007bffffffffffffffffffffffffffffffffffffffffffffffffffffffff1916815260200160007bffffffffffffffffffffffffffffffffffffffffffffffffffffffff191681525090565b6040518060600160405280600390602082028036833780820191505090505090565b6040518060600160405280600073ffffffffffffffffffffffffffffffffffffffff16815260200160007bffffffffffffffffffffffffffffffffffffffffffffffffffffffff1916815260200160007bffffffffffffffffffffffffffffffffffffffffffffffffffffffff191681525090565b6040518060a0016040528060008152602001600073ffffffffffffffffffffffffffffffffffffffff168152602001600073ffffffffffffffffffffffffffffffffffffffff168152602001600073ffffffffffffffffffffffffffffffffffffffff168152602001606081525090565b60008135905061a44f8161cdab565b92915050565b60008151905061a4648161cdab565b92915050565b60008083601f84011261a47b578182fd5b8235905067ffffffffffffffff81111561a493578182fd5b602083019150836020808302850101111561a4ad57600080fd5b9250929050565b600082601f83011261a4c4578081fd5b813561a4d761a4d28261cd02565b61ccd5565b915081818352602080840191508085018682838602880101111561a4fa57600080fd5b60005b8481101561a52957813561a5108161cdab565b808552508284019350828201915060018101905061a4fd565b505050505092915050565b600082601f83011261a544578081fd5b813561a55761a5528261cd02565b61ccd5565b9150818183526020808401915080850160005b8481101561a5985761a581888484358a010161a4b4565b84528284019350828201915060018101905061a56a565b505050505092915050565b600082601f83011261a5b3578081fd5b813561a5c661a5c18261cd02565b61ccd5565b9150818183526020808401915080850160005b8481101561a6075761a5f0888484358a010161a7fc565b84528284019350828201915060018101905061a5d9565b505050505092915050565b600082601f83011261a622578081fd5b813561a63561a6308261cd02565b61ccd5565b915081818352602080840191508085018682838602880101111561a65857600080fd5b60005b8481101561a68757813561a66e8161cdab565b808552508284019350828201915060018101905061a65b565b505050505092915050565b600082601f83011261a6a2578081fd5b813561a6b561a6b08261cd02565b61ccd5565b9150818183526020808401915080850160808783828702890101111561a6da57600080fd5b60005b8581101561a7065761a6ef898461aaf4565b85528385019450818301925060018101905061a6dd565b50505050505092915050565b600082601f83011261a722578081fd5b813561a73561a7308261cd02565b61ccd5565b915081818352602080840191508085018682838602880101111561a75857600080fd5b60005b8481101561a77c57813584528284019350828201915060018101905061a75b565b505050505092915050565b600082601f83011261a797578081fd5b815161a7aa61a7a58261cd02565b61ccd5565b915081818352602080840191508085018682838602880101111561a7cd57600080fd5b60005b8481101561a7f157815184528284019350828201915060018101905061a7d0565b505050505092915050565b600082601f83011261a80c578081fd5b813561a81f61a81a8261cd25565b61ccd5565b915080825283602082850101111561a83657600080fd5b806020840160208401376000602082840101525092915050565b600082601f83011261a860578081fd5b815161a87361a86e8261cd25565b61ccd5565b915080825283602082850101111561a88a57600080fd5b61a89b81602084016020860161cd5e565b5092915050565b6000815190506002811061a8b557600080fd5b92915050565b60006060828403121561a8cc578081fd5b61a8d6606061ccd5565b9050813561a8e38161cdab565b80825250602082013561a8f58161cdd3565b80602083015250604082013561a90a8161cdd3565b8060408301525092915050565b60006060828403121561a928578081fd5b61a932606061ccd5565b9050815161a93f8161cdab565b80825250602082015161a9518161cdd3565b80602083015250604082015161a9668161cdd3565b8060408301525092915050565b600060a0828403121561a984578081fd5b61a98e60a061ccd5565b905081358152602082013561a9a28161cdab565b80602083015250604082013561a9b78161cdab565b80604083015250606082013561a9cc8161cdab565b80606083015250608082013567ffffffffffffffff81111561a9ed57600080fd5b61a9f98482850161a7fc565b60808301525092915050565b600061018080838503121561aa18578182fd5b61aa218161ccd5565b91505061aa2e838361a440565b815261aa3d836020840161a440565b602082015261aa4f836040840161ab59565b604082015261aa61836060840161ab59565b606082015261aa73836080840161ab59565b608082015261aa858360a0840161a440565b60a082015261aa978360c0840161a440565b60c082015261aaa98360e0840161a440565b60e082015261010061aabd8482850161a440565b818301525061012080830135818301525061014061aadd8482850161ab83565b818301525061016080830135818301525092915050565b60006080828403121561ab05578081fd5b61ab0f608061ccd5565b905081356004811061ab2057600080fd5b80825250602082013560ff8116811461ab3857600080fd5b80602083015250604082013560408201526060820135606082015292915050565b6000813590506fffffffffffffffffffffffffffffffff8116811461ab7d57600080fd5b92915050565b60008135905067ffffffffffffffff8116811461ab9f57600080fd5b92915050565b60006020828403121561abb6578081fd5b813561abc18161cdab565b8091505092915050565b60006020828403121561abdc578081fd5b815161abe78161cdab565b8091505092915050565b60006020828403121561ac02578081fd5b815161ac0d8161cdab565b8091505092915050565b6000806040838503121561ac29578081fd5b825161ac348161cdab565b80925050602083015161ac468161cdab565b809150509250929050565b6000806000806080858703121561ac66578182fd5b845161ac718161cdab565b80945050602085015161ac838161cdab565b80935050604085015161ac958161cdab565b80925050606085015161aca78161cdab565b8091505092959194509250565b60008060006060848603121561acc8578081fd5b835161acd38161cdab565b80935050602084015161ace58161cdab565b809250506040840151801515811461acfb578182fd5b809150509250925092565b6000806040838503121561ad18578182fd5b825161ad238161cdab565b80925050602083015167ffffffffffffffff8082111561ad41578283fd5b818501915060a0828703121561ad55578283fd5b61ad5f60a061ccd5565b8251815261ad70876020850161a455565b602082015261ad82876040850161a455565b604082015261ad94876060850161a455565b606082015260808301518281111561adaa578485fd5b61adb68882860161a850565b6080830152508093505050509250929050565b600080600080600060a0868803121561ade0578283fd5b853561adeb8161cdab565b80955050602086013561adfd8161cdab565b80945050604086013561ae0f8161cdab565b80935050606086013561ae218161cdab565b80925050608086013567ffffffffffffffff81111561ae3e578182fd5b61ae4a8882890161a712565b9150509295509295909350565b6000806000806080858703121561ae6c578182fd5b843561ae778161cdab565b80945050602085013561ae898161cdab565b80935050604085013561ae9b8161cdab565b80925050606085013567ffffffffffffffff81111561aeb8578182fd5b61aec48782880161a712565b91505092959194509250565b6000806000806080858703121561aee5578182fd5b843561aef08161cdab565b80945050602085013561af028161cdab565b80935050604085013561af148161cdab565b809250506060850135905092959194509250565b60008060006060848603121561af3c578081fd5b833561af478161cdab565b80935050602084013567ffffffffffffffff8082111561af65578283fd5b61af718783880161a4b4565b9350604086013591508082111561af86578283fd5b5061af938682870161a712565b9150509250925092565b600080600080600060a0868803121561afb4578283fd5b853561afbf8161cdab565b8095505060208601359350604086013561afd88161cdab565b80935050606086013561afea8161cdab565b80925050608086013567ffffffffffffffff81111561b007578182fd5b61b0138882890161a712565b9150509295509295909350565b6000806020838503121561b032578182fd5b823567ffffffffffffffff81111561b048578283fd5b61b0548582860161a46a565b915080935050809150509250929050565b6000602080838503121561b077578182fd5b825167ffffffffffffffff81111561b08d578283fd5b808401905084601f82011261b0a0578283fd5b805161b0b361b0ae8261cd02565b61ccd5565b8082825284820191508484018886878602870101111561b0d1578687fd5b8694505b8385101561b10157805161b0e88161cdab565b808452508583019250858101905060018501945061b0d5565b50809550505050505092915050565b60008060006060848603121561b124578081fd5b835167ffffffffffffffff8082111561b13b578283fd5b818601915086601f83011261b14e578283fd5b815161b16161b15c8261cd02565b61ccd5565b80828252602080830192508086018b82838702890101111561b181578788fd5b8796505b8487101561b1a657805184528184019350818101905060018701965061b185565b50819850808a01519550505050508082111561b1c0578283fd5b5061b1cd8682870161a787565b92505061b1dd856040860161a8a2565b90509250925092565b6000806020838503121561b1f8578182fd5b823567ffffffffffffffff81111561b20e578283fd5b61b21a8582860161a46a565b915080935050809150509250929050565b60008060006060848603121561b23f578081fd5b833567ffffffffffffffff8082111561b256578283fd5b61b2628783880161a5a3565b9450602086013591508082111561b277578283fd5b5061b2848682870161a5a3565b925050604084013590509250925092565b60006020828403121561b2a6578081fd5b813567ffffffffffffffff81111561b2bc578182fd5b61b2c88482850161a612565b91505092915050565b6000806040838503121561b2e3578182fd5b823567ffffffffffffffff81111561b2f9578283fd5b61b3058582860161a612565b925050602083013561b3168161cdab565b809150509250929050565b60008060006060848603121561b335578081fd5b833567ffffffffffffffff81111561b34b578182fd5b61b3578682870161a612565b935050602084013561b3688161cdab565b80925050604084013561b37a8161cdab565b809150509250925092565b6000602080838503121561b397578182fd5b825167ffffffffffffffff81111561b3ad578283fd5b808401905084601f82011261b3c0578283fd5b805161b3d361b3ce8261cd02565b61ccd5565b8082825284820191508484018886878602870101111561b3f1578687fd5b8694505b8385101561b41657805183528583019250858101905060018501945061b3f5565b50809550505050505092915050565b60008060006060848603121561b439578081fd5b833567ffffffffffffffff8082111561b450578283fd5b818601915086601f83011261b463578283fd5b813561b47661b4718261cd02565b61ccd5565b80828252602080830192508086016101808c838288028a0101111561b499578889fd5b8897505b8588101561b4c65761b4af8d8361aa05565b85528285019450808201915060018801975061b49d565b5050819850808a01359550505050508082111561b4e1578283fd5b5061b4ee8682870161a692565b92505061b4fe856040860161a440565b90509250925092565b60006020828403121561b518578081fd5b815167ffffffffffffffff81111561b52e578182fd5b61b53a8482850161a787565b91505092915050565b60006020828403121561b554578081fd5b815161b55f8161cdc2565b8091505092915050565b60008060006060848603121561b57d578081fd5b835161b5888161cdc2565b80935050602084015167ffffffffffffffff81111561b5a5578182fd5b61b5b18682870161a850565b925050604084015190509250925092565b60006020828403121561b5d3578081fd5b8151905092915050565b60006020828403121561b5ee578081fd5b815167ffffffffffffffff81111561b604578182fd5b61b6108482850161a850565b91505092915050565b60006020828403121561b62a578081fd5b815161b6358161cdab565b8091505092915050565b60006020828403121561b650578081fd5b815161b65b8161cdab565b8091505092915050565b60006020828403121561b676578081fd5b815161b6818161cdab565b8091505092915050565b60008060006060848603121561b69f578081fd5b833561b6aa8161cdab565b80935050602084013567ffffffffffffffff8082111561b6c8578283fd5b61b6d48783880161a612565b9350604086013591508082111561b6e9578283fd5b5061b6f68682870161a712565b9150509250925092565b60006020828403121561b711578081fd5b815161b71c8161cdeb565b8091505092915050565b6000806080838503121561b738578182fd5b825161b7438161cdeb565b8092505061b754846020850161a917565b90509250929050565b6000806080838503121561b76f578182fd5b825161b77a8161cdeb565b8092505061b78b846020850161a917565b90509250929050565b60008060008084860360a081121561b7aa578283fd5b604081121561b7b7578283fd5b5061b7c2604061ccd5565b85358152602086013561b7d48161cdab565b8060208301525080945050604085013561b7ed8161cdab565b80935050606085013561b7ff8161cdab565b80925050608085013567ffffffffffffffff81111561b81c578182fd5b61b8288782880161a712565b91505092959194509250565b6000806000806080858703121561b849578182fd5b843567ffffffffffffffff8082111561b860578384fd5b81870191506040828903121561b874578384fd5b61b87e604061ccd5565b61b888898461a440565b815260208301358281111561b89b578586fd5b61b8a78a82860161a534565b6020830152508096505061b8be886020890161a440565b945061b8cd886040890161a440565b9350606087013591508082111561b8e2578283fd5b5061b8ef8782880161a712565b91505092959194509250565b60008060008060c0858703121561b910578182fd5b61b91a868661a8bb565b9350606085013561b92a8161cdeb565b80935050608085013561b93c8161cdeb565b8092505060a085013567ffffffffffffffff81111561b959578182fd5b61b9658782880161a712565b91505092959194509250565b60008060008084860360a081121561b987578283fd5b604081121561b994578283fd5b5061b99f604061ccd5565b853561b9aa8161cdab565b80825250602086013561b9bc8161cdab565b8060208301525080945050604085013561b9d58161cdab565b80935050606085013561b9e78161cdab565b80925050608085013567ffffffffffffffff81111561ba04578182fd5b61ba108782880161a712565b91505092959194509250565b6000806000806080858703121561ba31578182fd5b843567ffffffffffffffff8082111561ba48578384fd5b61ba548883890161a973565b95506020870135915061ba668261cdab565b8194506040870135915061ba798261cdab565b819350606087013591508082111561ba8f578283fd5b5061ba9c8782880161a712565b91505092959194509250565b6000806000806080858703121561babd578182fd5b843567ffffffffffffffff81111561bad3578283fd5b61badf8782880161a973565b945050602085013561baf08161cdab565b80935050604085013561bb028161cdab565b809250506060850135905092959194509250565b6000806000806080858703121561bb2b578182fd5b843567ffffffffffffffff81111561bb41578283fd5b61bb4d8782880161a973565b94505060208501359250604085013561bb658161cdab565b80925050606085013561bb778161cdab565b8091505092959194509250565b6000806000610220848603121561bb99578081fd5b61bba3858561aa05565b925061bbb385610180860161aaf4565b915061020084013561bbc48161cdab565b809150509250925092565b60008060008084860360c081121561bbe5578283fd5b606081121561bbf2578283fd5b5061bbfd606061ccd5565b853561bc088161cdab565b8082525060208601356020820152604086013561bc248161cdab565b8060408301525080945050606085013561bc3d8161cdab565b80935050608085013561bc4f8161cdab565b8092505060a085013567ffffffffffffffff81111561bc6c578182fd5b61bc788782880161a712565b91505092959194509250565b60008060008060c0858703121561bc99578182fd5b61bca3868661a8bb565b9350606085013561bcb38161cdeb565b80935050608085013561bcc58161cdeb565b8092505060a085013567ffffffffffffffff81111561bce2578182fd5b61bcee8782880161a712565b91505092959194509250565b60006020828403121561bd0b578081fd5b815162ffffff8116811461bd1d578182fd5b8091505092915050565b60006020828403121561bd38578081fd5b8151905092915050565b6000806040838503121561bd54578182fd5b82519150602083015190509250929050565b6000806000806080858703121561bd7b578182fd5b8451935060208501519250604085015191506060850151905092959194509250565b600080600080600060a0868803121561bdb4578283fd5b85519450602086015193506040860151925060608601519150608086015190509295509295909350565b600060018060a01b038216835260208301905092915050565b600081518352602082015160208401526040820151604084015260608201516060840152608082015160a0608085015261be3460a085018261bed6565b91505092915050565b60018060a01b03811682525050565b6000815180845260208085019450808401835b8381101561be885760018060a01b0382511687528287019650828201915060018101905061be5f565b5050505082905092915050565b6000815180845260208085019450808401835b8381101561bec957815187528287019650828201915060018101905061bea8565b5050505082905092915050565b6000815180845261beee81602086016020860161cd5e565b6020601f19601f83011685010191505092915050565b60018060a01b038151168252602081015163ffffffff60e01b808216602085015280604084015116604085015250505050565b60018060a01b03808251168352602082015115156020840152806040830151166040840152506060810151151560608301525050565b60008151835260208201516040602085015261bf8c604085018261bed6565b91505092915050565b600081518352602082015160018060a01b0380821660208601528060408501511660408601528060608501511660608601525050608082015160a0608085015261bfe260a085018261bed6565b91505092915050565b805161bff68161cd91565b8083525060ff602082015116602083015260408101516040830152606081015160608301525050565b6fffffffffffffffffffffffffffffffff811682525050565b67ffffffffffffffff811682525050565b60006bffffffffffffffffffffffff198360601b16825260148201905092915050565b600082848337828201818152809150509392505050565b6000825161c09581846020870161cd5e565b80830191505092915050565b600060208201905060018060a01b038316825292915050565b600060208201905060018060a01b038316825292915050565b600060408201905060018060a01b03841682528260208301529392505050565b600060408201905060018060a01b0380851683528084166020840152509392505050565b600060808201905060018060a01b0380871683528086166020840152808516604084015280841660608401525095945050505050565b600060018060a01b03808716835280861660208401528085166040840152506080606083015261c180608083018461be95565b905095945050505050565b600060808201905060018060a01b038087168352808616602084015280851660408401525082606083015295945050505050565b600060608201905060018060a01b0380861683528085166020840152508215156040830152949350505050565b600060018060a01b03808716835280861660208401525083151560408301526080606083015261c21f608083018461bed6565b905095945050505050565b600060608201905060018060a01b038086168352808516602084015250826040830152949350505050565b600060018060a01b03808816835280871660208401525084604083015283606083015260a0608083015261c28c60a083018461bed6565b90509695505050505050565b600060018060a01b03851682526060602083015261c2b9606083018561be4c565b828103604084015261c2cb818561be95565b915050949350505050565b600060018060a01b038616825261c2ec8561cd91565b8460208301526080604083015261c306608083018561be95565b828103606084015261c318818561be95565b91505095945050505050565b600061010060018060a01b03808c16845261c33e8b61cd91565b8a602085015281604085015261c3568285018b61be95565b9150838203606085015261c36a828a61be95565b915080881660808501525061c37e8661cd91565b8560a084015282810360c084015261c396818661be95565b905082810360e084015261c3aa818561be95565b9150509998505050505050505050565b600060018060a01b03841682526040602083015261c3db604083018461bf95565b90509392505050565b600060408201905060018060a01b03841682528260208301529392505050565b6000602080830181845280858252604085019050869150835b8681101561c45157823561c4308161cdab565b60018060a01b0381168352508382019150838301925060018101905061c41d565b508093505050509392505050565b60006040825261c472604083018561be4c565b90508260208301529392505050565b6000602080830181845280855180835260409250828601915082848202870101848801865b8381101561c4f057603f198984030185528151805187855261c4ca8886018261bed6565b90508882015115158986015280945050508682019150868501945060018101905061c4a6565b5050809550505050505092915050565b60006020825261c513602083018461be95565b905092915050565b60006040825261c52e604083018561be95565b602083820381850152818551808452828401915082838202850101838801865b8381101561c58157601f1987840301855261c56a83835161bed6565b92508582019150858501945060018101905061c54e565b505080955050505050509392505050565b6000602082019050821515825292915050565b6000841515825260018060a01b03841660208301526060604083015261c5ce606083018461be95565b9050949350505050565b600060208201905082825292915050565b60008482526060602083015261c602606083018561bed6565b828103604084015261c614818561be95565b915050949350505050565b60006020825261c632602083018461bed6565b905092915050565b60006040825261c64d604083018561bed6565b90508260208301529392505050565b600060608201905060018060a01b03808616835280851660208401525062ffffff83166040830152949350505050565b600060608201905060018060a01b038086168352808516602084015250826040830152949350505050565b600060018060a01b03841682526040602083015261c6d8604083018461be95565b90509392505050565b600060208201905060018060a01b038316825292915050565b600060208201905060018060a01b038316825292915050565b600060208201905060018060a01b038316825292915050565b600060208201905060018060a01b038316825292915050565b600060608201905061c7568561cd91565b848252836020830152826040830152949350505050565b60006060820190506008851061c77f57fe5b848252836020830152826040830152949350505050565b600060e0820161c7a58761cd9e565b868352602060e08185015281875161c7bd818561cd4d565b91508193508281028201838a01865b8381101561c7fb57868303855261c7e483835161bdf7565b92508582019150858501945060018101905061c7cc565b505086810360408801528094508851925061c816838261cd4d565b94505050818701845b8281101561c8445761c83285835161bdde565b9450838201915060018101905061c81f565b505050508091505061c859606083018461bf37565b95945050505050565b600060608201905084600f0b825283600f0b6020830152826040830152949350505050565b600060808201905083600f0b825261c8a2602083018461bf04565b9392505050565b600060808201905083600f0b825261c8c4602083018461bf04565b9392505050565b600060208252602460208301527f556e6973776170563353616d706c65722f746f6b656e5061746820746f6f207360408301527f686f7274000000000000000000000000000000000000000000000000000000006060830152608082019050919050565b600060208252602560208301527f455243323042726964676553616d706c65722f494e56414c49445f544f4b454e60408301527f5f504149520000000000000000000000000000000000000000000000000000006060830152608082019050919050565b600060208252602560208301527f556e6973776170563353616d706c65722f696e76616c69642070617468206c6560408301527f6e677468730000000000000000000000000000000000000000000000000000006060830152608082019050919050565b600061ca03828761bf04565b84600f0b606083015283600f0b608083015260c060a083015261ca2960c083018461be95565b905095945050505050565b60006060825261ca47606083018661bf6d565b828103602084015261ca59818661bf6d565b915050826040830152949350505050565b60006080825261ca7d608083018761bf95565b905060018060a01b03808616602084015280851660408401525082606083015295945050505050565b60006080825261cab9608083018761bf95565b905084602083015260018060a01b03808516604084015280841660608401525095945050505050565b60006102208201905061caf682865161be3d565b602085015161cb08602084018261be3d565b50604085015161cb1b604084018261c01f565b50606085015161cb2e606084018261c01f565b50608085015161cb41608084018261c01f565b5060a085015161cb5460a084018261be3d565b5060c085015161cb6760c084018261be3d565b5060e085015161cb7a60e084018261be3d565b506101008086015161cb8e8285018261be3d565b50506101208086015181840152506101408086015161cbaf8285018261c038565b505061016080860151818401525061cbcb61018083018561bfeb565b61cbd961020083018461be3d565b949350505050565b600061cbed828761bf04565b84600f0b606083015283600f0b608083015260c060a083015261cc1360c083018461be95565b905095945050505050565b600060208201905082825292915050565b60008382526040602083015261cc48604083018461be4c565b90509392505050565b600060c0820190508782528660208301528560408301528460608301528360808301528260a0830152979650505050505050565b6000808335601e1984360301811261cc9b578283fd5b80840190508035915067ffffffffffffffff82111561ccb8578283fd5b6020810192505080360382131561ccce57600080fd5b9250929050565b6000604051905081810181811067ffffffffffffffff8211171561ccf857600080fd5b8060405250919050565b600067ffffffffffffffff82111561cd18578081fd5b6020808302019050919050565b600067ffffffffffffffff82111561cd3b578081fd5b6020601f19601f840116019050919050565b600082825260208201905092915050565b60005b8381101561cd7c57808201518184015260208101905061cd61565b8381111561cd8b576000848401525b50505050565b6004811061cd9b57fe5b50565b6002811061cda857fe5b50565b60018060a01b038116811461cdbf57600080fd5b50565b801515811461cdd057600080fd5b50565b63ffffffff60e01b8116811461cde857600080fd5b50565b80600f0b811461cdfa57600080fd5b5056fea2646970667358221220a9b9b22379aa154b2cfa971fff16adaef17c71d9d7f48e8d59d696b84915a9cc64736f6c634300060c0033608060405234801561001057600080fd5b50610b69806100206000396000f3fe608060405234801561001057600080fd5b50600436106100365760003560e01c806306f2bf621461003b578063312686571461006b575b600080fd5b610055600480360381019061005091906101f2565b610087565b6040516100629190610292565b60405180910390f35b61008560048036038101906100809190610222565b6100ef565b005b60008060008373ffffffffffffffffffffffffffffffffffffffff1673ffffffffffffffffffffffffffffffffffffffff16815260200190815260200160002060009054906101000a900473ffffffffffffffffffffffffffffffffffffffff169050919050565b60005b828290508110156101e057600083838381811061010b57fe5b905060200201602081019061012091906101f2565b90508060405161012f906101e5565b6101399190610292565b604051809103906000f080158015610155573d6000803e3d6000fd5b506000808373ffffffffffffffffffffffffffffffffffffffff1673ffffffffffffffffffffffffffffffffffffffff16815260200190815260200160002060006101000a81548173ffffffffffffffffffffffffffffffffffffffff021916908373ffffffffffffffffffffffffffffffffffffffff1602179055505080806001019150506100f2565b505050565b610888806102ac83390190565b600060208284031215610203578081fd5b813560018060a01b0381168114610218578182fd5b8091505092915050565b60008060208385031215610234578081fd5b823567ffffffffffffffff8082111561024b578283fd5b818501915085601f83011261025e578283fd5b81358181111561026c578384fd5b866020808302850101111561027f578384fd5b6020830194508093505050509250929050565b600060208201905060018060a01b03831682529291505056fe608060405234801561001057600080fd5b50604051610888380380610888833981810160405281019061003291906100ca565b806000806101000a81548173ffffffffffffffffffffffffffffffffffffffff021916908373ffffffffffffffffffffffffffffffffffffffff1602179055507f1d6a6a0506b0b4a554b907a4c29d9f4674e461989d9c1921feb17b26716385ab60001b816040516020016100a89291906100fa565b604051602081830303815290604052805190602001206001819055505061011e565b6000602082840312156100db578081fd5b815160018060a01b03811681146100f0578182fd5b8091505092915050565b600083825260018060601b03198360601b1660208301526034820190509392505050565b61075b8061012d6000396000f3fe60806040526004361061007b5760003560e01c80639d76ea581161004e5780639d76ea5814610141578063bfa0b1331461016c578063cd72d78914610197578063cd7724c3146101c25761007b565b806311f2928b146100805780632640f62c1461008a57806359e94862146100c757806395b68fe714610104575b600080fd5b6100886101ff565b005b34801561009657600080fd5b506100b160048036038101906100ac919061061d565b61025c565b6040516100be9190610714565b60405180910390f35b3480156100d357600080fd5b506100ee60048036038101906100e9919061061d565b6102a2565b6040516100fb9190610714565b60405180910390f35b34801561011057600080fd5b5061012b6004803603810190610126919061061d565b6102e8565b6040516101389190610714565b60405180910390f35b34801561014d57600080fd5b5061015661032e565b6040516101639190610693565b60405180910390f35b34801561017857600080fd5b50610181610352565b60405161018e91906106c5565b60405180910390f35b3480156101a357600080fd5b506101ac610358565b6040516101b991906106ac565b60405180910390f35b3480156101ce57600080fd5b506101e960048036038101906101e4919061061d565b610370565b6040516101f69190610714565b60405180910390f35b73e9db8717bc5dfb20aaf538b4a5a02b7791ff430c73ffffffffffffffffffffffffffffffffffffffff166108fc349081150290604051600060405180830381858888f19350505050158015610259573d6000803e3d6000fd5b50565b60006102666103b6565b61029b600154610274610426565b60008054906101000a900473ffffffffffffffffffffffffffffffffffffffff1685610442565b9050919050565b60006102ac6103b6565b6102e16001546102ba610426565b60008054906101000a900473ffffffffffffffffffffffffffffffffffffffff1685610442565b9050919050565b60006102f26103b6565b61032760015460008054906101000a900473ffffffffffffffffffffffffffffffffffffffff16610321610426565b856104a4565b9050919050565b60008054906101000a900473ffffffffffffffffffffffffffffffffffffffff1681565b60015481565b73e9db8717bc5dfb20aaf538b4a5a02b7791ff430c81565b600061037a6103b6565b6103af60015460008054906101000a900473ffffffffffffffffffffffffffffffffffffffff166103a9610426565b856104a4565b9050919050565b600073e9db8717bc5dfb20aaf538b4a5a02b7791ff430c73ffffffffffffffffffffffffffffffffffffffff163114610424576040517f08c379a000000000000000000000000000000000000000000000000000000000815260040161041b906106d6565b60405180910390fd5b565b600073c02aaa39b223fe8d0a0e5c4f27ead9083c756cc2905090565b60008061044e85610506565b60ff16600a0a9050600061046185610506565b60ff16600a0a905060006104768888886105a3565b9050818184670de0b6b3a76400008802028161048e57fe5b048161049657fe5b049350505050949350505050565b6000806104b085610506565b60ff16600a0a905060006104c385610506565b60ff16600a0a905060006104d88888886105a3565b9050670de0b6b3a7640000838383880202816104f057fe5b04816104f857fe5b049350505050949350505050565b600073c02aaa39b223fe8d0a0e5c4f27ead9083c756cc273ffffffffffffffffffffffffffffffffffffffff168273ffffffffffffffffffffffffffffffffffffffff161415610559576012905061059e565b60008260405160200161056c9190610638565b60405160208183030381529060405280519060200120905060048060140360ff168260001c8161059857fe5b06019150505b919050565b6000808484846040516020016105bb9392919061065b565b6040516020818303038152906040528051906020012090506064670de0b6b3a7640000816105e557fe5b046064670de0b6b3a7640000816105f857fe5b04670de0b6b3a7640000606402038260001c8161061157fe5b06019150509392505050565b60006020828403121561062e578081fd5b8135905092915050565b60006bffffffffffffffffffffffff198360601b16825260148201905092915050565b60008482526bffffffffffffffffffffffff19808560601b166020840152808460601b16603484015250604882019050949350505050565b600060208201905060018060a01b038316825292915050565b600060208201905060018060a01b038316825292915050565b600060208201905082825292915050565b600060208252600e60208301527f4641494c5f5452494747455245440000000000000000000000000000000000006040830152606082019050919050565b60006020820190508282529291505056fea264697066735822122086eafa97ca41170b7e1aa6d684c9ed3874745e7ebb63924b86acc53e754a2e0d64736f6c634300060c0033a26469706673582212206644591640f1370ec9d72c74747c34c051507033a12ad425311c55905bc0f20464736f6c634300060c0033608060405234801561001057600080fd5b506108ce806100206000396000f3fe60806040526004361061003f5760003560e01c806311f2928b146100445780631f00ca741461004e578063cd72d7891461008b578063d06ca61f146100b6575b600080fd5b61004c6100f3565b005b34801561005a57600080fd5b50610075600480360381019061007091906106e3565b610150565b60405161008291906107d0565b60405180910390f35b34801561009757600080fd5b506100a06102d5565b6040516100ad91906107b7565b60405180910390f35b3480156100c257600080fd5b506100dd60048036038101906100d891906106e3565b6102ed565b6040516100ea91906107d0565b60405180910390f35b73e9db8717bc5dfb20aaf538b4a5a02b7791ff430c73ffffffffffffffffffffffffffffffffffffffff166108fc349081150290604051600060405180830381858888f1935050505015801561014d573d6000803e3d6000fd5b50565b60606002838390501015610199576040517f08c379a00000000000000000000000000000000000000000000000000000000081526004016101909061085a565b60405180910390fd5b6101a1610468565b8282905067ffffffffffffffff811180156101bb57600080fd5b506040519080825280602002602001820160405280156101ea5781602001602082028036833780820191505090505b5090508381600185859050038151811061020057fe5b60200260200101818152505060006001848490500390505b60008111156102cd576102a67fadc7fcb33c735913b8635927e66896b356a53a912ab2ceff929e60a04b53b3c160001b85856001850381811061025757fe5b905060200201602081019061026c91906106b3565b86868581811061027857fe5b905060200201602081019061028d91906106b3565b85858151811061029957fe5b60200260200101516104d8565b8260018303815181106102b557fe5b60200260200101818152505080600190039050610218565b509392505050565b73e9db8717bc5dfb20aaf538b4a5a02b7791ff430c81565b60606002838390501015610336576040517f08c379a000000000000000000000000000000000000000000000000000000000815260040161032d9061085a565b60405180910390fd5b61033e610468565b8282905067ffffffffffffffff8111801561035857600080fd5b506040519080825280602002602001820160405280156103875781602001602082028036833780820191505090505b509050838160008151811061039857fe5b60200260200101818152505060005b600184849050038110156104605761043a7fadc7fcb33c735913b8635927e66896b356a53a912ab2ceff929e60a04b53b3c160001b8585848181106103e857fe5b90506020020160208101906103fd91906106b3565b86866001860181811061040c57fe5b905060200201602081019061042191906106b3565b85858151811061042d57fe5b602002602001015161053a565b82600183018151811061044957fe5b6020026020010181815250508060010190506103a7565b509392505050565b600073e9db8717bc5dfb20aaf538b4a5a02b7791ff430c73ffffffffffffffffffffffffffffffffffffffff1631146104d6576040517f08c379a00000000000000000000000000000000000000000000000000000000081526004016104cd9061081c565b60405180910390fd5b565b6000806104e48561059c565b60ff16600a0a905060006104f78561059c565b60ff16600a0a9050600061050c888888610639565b9050818184670de0b6b3a76400008802028161052457fe5b048161052c57fe5b049350505050949350505050565b6000806105468561059c565b60ff16600a0a905060006105598561059c565b60ff16600a0a9050600061056e888888610639565b9050670de0b6b3a76400008383838802028161058657fe5b048161058e57fe5b049350505050949350505050565b600073c02aaa39b223fe8d0a0e5c4f27ead9083c756cc273ffffffffffffffffffffffffffffffffffffffff168273ffffffffffffffffffffffffffffffffffffffff1614156105ef5760129050610634565b600082604051602001610602919061075c565b60405160208183030381529060405280519060200120905060048060140360ff168260001c8161062e57fe5b06019150505b919050565b6000808484846040516020016106519392919061077f565b6040516020818303038152906040528051906020012090506064670de0b6b3a76400008161067b57fe5b046064670de0b6b3a76400008161068e57fe5b04670de0b6b3a7640000606402038260001c816106a757fe5b06019150509392505050565b6000602082840312156106c4578081fd5b813560018060a01b03811681146106d9578182fd5b8091505092915050565b6000806000604084860312156106f7578182fd5b83359250602084013567ffffffffffffffff80821115610715578384fd5b818601915086601f830112610728578384fd5b813581811115610736578485fd5b8760208083028501011115610749578485fd5b6020830194508093505050509250925092565b60006bffffffffffffffffffffffff198360601b16825260148201905092915050565b60008482526bffffffffffffffffffffffff19808560601b166020840152808460601b16603484015250604882019050949350505050565b600060208201905060018060a01b038316825292915050565b600060208083018184528085518083526040860191508387019250845b8181101561080e5783518352848301925084840193506001810190506107ed565b505080935050505092915050565b600060208252600e60208301527f4641494c5f5452494747455245440000000000000000000000000000000000006040830152606082019050919050565b600060208252600e60208301527f504154485f544f4f5f53484f5254000000000000000000000000000000000000604083015260608201905091905056fea2646970667358221220e5d72bb81e47e5ab095d4ea63e4b661e0f8e1f5281b9c7f3ca4e7052c9971b1764736f6c634300060c0033608060405234801561001057600080fd5b5061058a806100206000396000f3fe60806040526004361061003f5760003560e01c806311f2928b14610044578063144a27521461004e578063cd72d7891461008b578063ff1fd974146100b6575b600080fd5b61004c6100f3565b005b34801561005a57600080fd5b5061007560048036038101906100709190610437565b610150565b604051610082919061052c565b60405180910390f35b34801561009757600080fd5b506100a0610192565b6040516100ad91906104d5565b60405180910390f35b3480156100c257600080fd5b506100dd60048036038101906100d89190610437565b6101aa565b6040516100ea919061052c565b60405180910390f35b73e9db8717bc5dfb20aaf538b4a5a02b7791ff430c73ffffffffffffffffffffffffffffffffffffffff166108fc349081150290604051600060405180830381858888f1935050505015801561014d573d6000803e3d6000fd5b50565b600061015a6101ec565b6101897fb713b61bb9bb2958a0f5d1534b21e94fc68c4c0c034b0902ed844f2f6cd1b4f760001b84868561025c565b90509392505050565b73e9db8717bc5dfb20aaf538b4a5a02b7791ff430c81565b60006101b46101ec565b6101e37fb713b61bb9bb2958a0f5d1534b21e94fc68c4c0c034b0902ed844f2f6cd1b4f760001b8585856102be565b90509392505050565b600073e9db8717bc5dfb20aaf538b4a5a02b7791ff430c73ffffffffffffffffffffffffffffffffffffffff16311461025a576040517f08c379a0000000000000000000000000000000000000000000000000000000008152600401610251906104ee565b60405180910390fd5b565b60008061026885610320565b60ff16600a0a9050600061027b85610320565b60ff16600a0a905060006102908888886103bd565b9050670de0b6b3a7640000838383880202816102a857fe5b04816102b057fe5b049350505050949350505050565b6000806102ca85610320565b60ff16600a0a905060006102dd85610320565b60ff16600a0a905060006102f28888886103bd565b9050818184670de0b6b3a76400008802028161030a57fe5b048161031257fe5b049350505050949350505050565b600073c02aaa39b223fe8d0a0e5c4f27ead9083c756cc273ffffffffffffffffffffffffffffffffffffffff168273ffffffffffffffffffffffffffffffffffffffff16141561037357601290506103b8565b600082604051602001610386919061047a565b60405160208183030381529060405280519060200120905060048060140360ff168260001c816103b257fe5b06019150505b919050565b6000808484846040516020016103d59392919061049d565b6040516020818303038152906040528051906020012090506064670de0b6b3a7640000816103ff57fe5b046064670de0b6b3a76400008161041257fe5b04670de0b6b3a7640000606402038260001c8161042b57fe5b06019150509392505050565b60008060006060848603121561044b578283fd5b83356104568161053d565b8093505060208401356104688161053d565b80925050604084013590509250925092565b60006bffffffffffffffffffffffff198360601b16825260148201905092915050565b60008482526bffffffffffffffffffffffff19808560601b166020840152808460601b16603484015250604882019050949350505050565b600060208201905060018060a01b038316825292915050565b600060208252600e60208301527f4641494c5f5452494747455245440000000000000000000000000000000000006040830152606082019050919050565b600060208201905082825292915050565b60018060a01b038116811461055157600080fd5b5056fea2646970667358221220cb871d8155104dcc39b2bfba413355835983a15f5e7c8e67af42bde2d0a6419d64736f6c634300060c0033608060405234801561001057600080fd5b50610d4d806100206000396000f3fe6080604052600436106100865760003560e01c8063809a9e5511610059578063809a9e551461014c57806381efcbdd1461018a578063910ffc71146101c7578063a734f06e14610206578063cd72d7891461023157610086565b806305734d9a1461008b57806311f2928b146100c8578063418436bc146100d257806361e597f91461010f575b600080fd5b34801561009757600080fd5b506100b260048036038101906100ad91906109d7565b61025c565b6040516100bf9190610c30565b60405180910390f35b6100d0610290565b005b3480156100de57600080fd5b506100f960048036038101906100f491906108c1565b6102ed565b6040516101069190610cc6565b60405180910390f35b34801561011b57600080fd5b5061013660048036038101906101319190610941565b6103e1565b6040516101439190610c30565b60405180910390f35b34801561015857600080fd5b50610173600480360381019061016e919061087e565b61040f565b604051610181929190610cd7565b60405180910390f35b34801561019657600080fd5b506101b160048036038101906101ac9190610941565b610502565b6040516101be9190610c30565b60405180910390f35b3480156101d357600080fd5b506101ee60048036038101906101e991906107f7565b610530565b6040516101fd93929190610b8e565b60405180910390f35b34801561021257600080fd5b5061021b6105f6565b6040516102289190610b5c565b60405180910390f35b34801561023d57600080fd5b5061024661060e565b6040516102539190610b75565b60405180910390f35b60608c60405160200161026f9190610b5c565b60405160208183030381529060405290509c9b505050505050505050505050565b73e9db8717bc5dfb20aaf538b4a5a02b7791ff430c73ffffffffffffffffffffffffffffffffffffffff166108fc349081150290604051600060405180830381858888f193505050501580156102ea573d6000803e3d6000fd5b50565b60006102f7610626565b73eeeeeeeeeeeeeeeeeeeeeeeeeeeeeeeeeeeeeeee73ffffffffffffffffffffffffffffffffffffffff168773ffffffffffffffffffffffffffffffffffffffff1614610344578661034d565b61034c610696565b5b965073eeeeeeeeeeeeeeeeeeeeeeeeeeeeeeeeeeeeeeee73ffffffffffffffffffffffffffffffffffffffff168673ffffffffffffffffffffffffffffffffffffffff161461039c57856103a5565b6103a4610696565b5b95506103d57f0ff3ca9d46195c39f9a12afb74207b4970349fb3cfb1e459bbf170298d326bc760001b88886106b2565b90509695505050505050565b6060866040516020016103f49190610b5c565b60405160208183030381529060405290509695505050505050565b60008061041a610626565b73eeeeeeeeeeeeeeeeeeeeeeeeeeeeeeeeeeeeeeee73ffffffffffffffffffffffffffffffffffffffff168573ffffffffffffffffffffffffffffffffffffffff16146104675784610470565b61046f610696565b5b945073eeeeeeeeeeeeeeeeeeeeeeeeeeeeeeeeeeeeeeee73ffffffffffffffffffffffffffffffffffffffff168473ffffffffffffffffffffffffffffffffffffffff16146104bf57836104c8565b6104c7610696565b5b93506104f87f0ff3ca9d46195c39f9a12afb74207b4970349fb3cfb1e459bbf170298d326bc760001b86866106b2565b9150935093915050565b6060866040516020016105159190610b5c565b60405160208183030381529060405290509695505050505050565b6060806000600167ffffffffffffffff8111801561054d57600080fd5b5060405190808252806020026020018201604052801561057c5781602001602082028036833780820191505090505b509250600160001b8360008151811061059157fe5b602002602001018181525050600067ffffffffffffffff811180156105b557600080fd5b506040519080825280602002602001820160405280156105e45781602001602082028036833780820191505090505b50915060009050955095509592505050565b73eeeeeeeeeeeeeeeeeeeeeeeeeeeeeeeeeeeeeeee81565b73e9db8717bc5dfb20aaf538b4a5a02b7791ff430c81565b600073e9db8717bc5dfb20aaf538b4a5a02b7791ff430c73ffffffffffffffffffffffffffffffffffffffff163114610694576040517f08c379a000000000000000000000000000000000000000000000000000000000815260040161068b90610c88565b60405180910390fd5b565b600073c02aaa39b223fe8d0a0e5c4f27ead9083c756cc2905090565b6000808484846040516020016106ca93929190610b24565b6040516020818303038152906040528051906020012090506064670de0b6b3a7640000816106f457fe5b046064670de0b6b3a76400008161070757fe5b04670de0b6b3a7640000606402038260001c8161072057fe5b06019150509392505050565b60008135905060018060a01b038116811461074657600080fd5b92915050565b60008083601f84011261075d578182fd5b8235905067ffffffffffffffff811115610775578182fd5b602083019150836020808302850101111561078f57600080fd5b9250929050565b60008083601f8401126107a7578182fd5b8235905067ffffffffffffffff8111156107bf578182fd5b6020830191508360208285010111156107d757600080fd5b9250929050565b600081359050600481106107f157600080fd5b92915050565b60008060008060006080868803121561080e578081fd5b853561081981610d00565b80955050602086013561082b81610d00565b8094505060408601358015158114610841578182fd5b80935050606086013567ffffffffffffffff81111561085e578182fd5b61086a88828901610796565b915080935050809150509295509295909350565b600080600060608486031215610892578283fd5b833561089d81610d00565b8093505060208401356108af81610d00565b80925050604084013590509250925092565b60008060008060008060a087890312156108d9578081fd5b86356108e481610d00565b8096505060208701356108f681610d00565b809550506040870135935060608701359250608087013567ffffffffffffffff811115610921578182fd5b61092d89828a01610796565b915080935050809150509295509295509295565b60008060008060008060808789031215610959578182fd5b610963888861072c565b955061097288602089016107de565b9450604087013567ffffffffffffffff8082111561098e578384fd5b61099a8a838b0161074c565b92508096505081945060608901359150808211156109b6578384fd5b506109c389828a0161074c565b915080935050809150509295509295509295565b6000806000806000806000806000806000806101008d8f0312156109f9578586fd5b610a038e8e61072c565b9b50610a128e60208f016107de565b9a5067ffffffffffffffff60408e01351115610a2c578586fd5b610a3c8e60408f01358f0161074c565b819b50809a50505067ffffffffffffffff60608e01351115610a5c578586fd5b610a6c8e60608f01358f0161074c565b8199508098505050610a818e60808f0161072c565b9550610a908e60a08f016107de565b945067ffffffffffffffff60c08e01351115610aaa578384fd5b610aba8e60c08f01358f0161074c565b819550809450505067ffffffffffffffff60e08e01351115610ada578081fd5b610aea8e60e08f01358f0161074c565b81935080925050509295989b509295989b509295989b565b600081835260208301905092915050565b60028110610b1d57fe5b8082525050565b60008482526bffffffffffffffffffffffff19808560601b166020840152808460601b16603484015250604882019050949350505050565b600060208201905060018060a01b038316825292915050565b600060208201905060018060a01b038316825292915050565b6000606082016060835280865180835260808501915060209250828801845b82811015610bce578151845284840193508482019150600181019050610bad565b50505083810382850152808651610be58184610cef565b91508388019250845b81811015610c1357610c01838551610b02565b92508484019350600181019050610bee565b5050809350505050610c286040830184610b13565b949350505050565b6000602080835283518082850152825b81811015610c5f57828187010151604082870101528281019050610c40565b81811115610c705783604083870101525b506040601f19601f8301168501019250505092915050565b600060208252600e60208301527f4641494c5f5452494747455245440000000000000000000000000000000000006040830152606082019050919050565b600060208201905082825292915050565b60006040820190508382528260208301529392505050565b600082825260208201905092915050565b60018060a01b0381168114610d1457600080fd5b5056fea264697066735822122048e3b13c82af07bbf54809eef45f5ae06417978deff92f8c3f7575c0a0097dc764736f6c634300060c0033",
                "opcodes": "PUSH1 0xA0 PUSH1 0x40 MSTORE PUSH20 0xEEEEEEEEEEEEEEEEEEEEEEEEEEEEEEEEEEEEEEEE PUSH20 0xFFFFFFFFFFFFFFFFFFFFFFFFFFFFFFFFFFFFFFFF AND PUSH1 0x80 SWAP1 PUSH20 0xFFFFFFFFFFFFFFFFFFFFFFFFFFFFFFFFFFFFFFFF AND PUSH1 0x60 SHL DUP2 MSTORE POP CALLVALUE DUP1 ISZERO PUSH3 0x5B JUMPI PUSH1 0x0 DUP1 REVERT JUMPDEST POP PUSH1 0x40 MLOAD PUSH3 0x6A SWAP1 PUSH3 0x211 JUMP JUMPDEST PUSH1 0x40 MLOAD DUP1 SWAP2 SUB SWAP1 PUSH1 0x0 CREATE DUP1 ISZERO DUP1 ISZERO PUSH3 0x87 JUMPI RETURNDATASIZE PUSH1 0x0 DUP1 RETURNDATACOPY RETURNDATASIZE PUSH1 0x0 REVERT JUMPDEST POP PUSH1 0x0 DUP1 PUSH2 0x100 EXP DUP2 SLOAD DUP2 PUSH20 0xFFFFFFFFFFFFFFFFFFFFFFFFFFFFFFFFFFFFFFFF MUL NOT AND SWAP1 DUP4 PUSH20 0xFFFFFFFFFFFFFFFFFFFFFFFFFFFFFFFFFFFFFFFF AND MUL OR SWAP1 SSTORE POP PUSH1 0x40 MLOAD PUSH3 0xD5 SWAP1 PUSH3 0x21F JUMP JUMPDEST PUSH1 0x40 MLOAD DUP1 SWAP2 SUB SWAP1 PUSH1 0x0 CREATE DUP1 ISZERO DUP1 ISZERO PUSH3 0xF2 JUMPI RETURNDATASIZE PUSH1 0x0 DUP1 RETURNDATACOPY RETURNDATASIZE PUSH1 0x0 REVERT JUMPDEST POP PUSH1 0x1 PUSH1 0x0 PUSH2 0x100 EXP DUP2 SLOAD DUP2 PUSH20 0xFFFFFFFFFFFFFFFFFFFFFFFFFFFFFFFFFFFFFFFF MUL NOT AND SWAP1 DUP4 PUSH20 0xFFFFFFFFFFFFFFFFFFFFFFFFFFFFFFFFFFFFFFFF AND MUL OR SWAP1 SSTORE POP PUSH1 0x40 MLOAD PUSH3 0x141 SWAP1 PUSH3 0x22D JUMP JUMPDEST PUSH1 0x40 MLOAD DUP1 SWAP2 SUB SWAP1 PUSH1 0x0 CREATE DUP1 ISZERO DUP1 ISZERO PUSH3 0x15E JUMPI RETURNDATASIZE PUSH1 0x0 DUP1 RETURNDATACOPY RETURNDATASIZE PUSH1 0x0 REVERT JUMPDEST POP PUSH1 0x2 PUSH1 0x0 PUSH2 0x100 EXP DUP2 SLOAD DUP2 PUSH20 0xFFFFFFFFFFFFFFFFFFFFFFFFFFFFFFFFFFFFFFFF MUL NOT AND SWAP1 DUP4 PUSH20 0xFFFFFFFFFFFFFFFFFFFFFFFFFFFFFFFFFFFFFFFF AND MUL OR SWAP1 SSTORE POP PUSH1 0x40 MLOAD PUSH3 0x1AD SWAP1 PUSH3 0x23B JUMP JUMPDEST PUSH1 0x40 MLOAD DUP1 SWAP2 SUB SWAP1 PUSH1 0x0 CREATE DUP1 ISZERO DUP1 ISZERO PUSH3 0x1CA JUMPI RETURNDATASIZE PUSH1 0x0 DUP1 RETURNDATACOPY RETURNDATASIZE PUSH1 0x0 REVERT JUMPDEST POP PUSH1 0x3 PUSH1 0x0 PUSH2 0x100 EXP DUP2 SLOAD DUP2 PUSH20 0xFFFFFFFFFFFFFFFFFFFFFFFFFFFFFFFFFFFFFFFF MUL NOT AND SWAP1 DUP4 PUSH20 0xFFFFFFFFFFFFFFFFFFFFFFFFFFFFFFFFFFFFFFFF AND MUL OR SWAP1 SSTORE POP PUSH3 0x249 JUMP JUMPDEST PUSH2 0xB89 DUP1 PUSH3 0xD0A4 DUP4 CODECOPY ADD SWAP1 JUMP JUMPDEST PUSH2 0x8EE DUP1 PUSH3 0xDC2D DUP4 CODECOPY ADD SWAP1 JUMP JUMPDEST PUSH2 0x5AA DUP1 PUSH3 0xE51B DUP4 CODECOPY ADD SWAP1 JUMP JUMPDEST PUSH2 0xD6D DUP1 PUSH3 0xEAC5 DUP4 CODECOPY ADD SWAP1 JUMP JUMPDEST PUSH1 0x80 MLOAD PUSH1 0x60 SHR PUSH2 0xCE33 PUSH3 0x271 PUSH1 0x0 CODECOPY DUP1 PUSH2 0x39A1 MSTORE DUP1 PUSH2 0x59DE MSTORE DUP1 PUSH2 0x6802 MSTORE POP PUSH2 0xCE33 PUSH1 0x0 RETURN INVALID PUSH1 0x80 PUSH1 0x40 MSTORE PUSH1 0x4 CALLDATASIZE LT PUSH2 0x350 JUMPI PUSH1 0x0 CALLDATALOAD PUSH1 0xE0 SHR DUP1 PUSH4 0x8E5A0E07 GT PUSH2 0x1C6 JUMPI DUP1 PUSH4 0xC25C4138 GT PUSH2 0xF7 JUMPI DUP1 PUSH4 0xDDD5AA28 GT PUSH2 0x95 JUMPI DUP1 PUSH4 0xF1ED7FA4 GT PUSH2 0x6F JUMPI DUP1 PUSH4 0xF1ED7FA4 EQ PUSH2 0xF02 JUMPI DUP1 PUSH4 0xF5A4994D EQ PUSH2 0xF3F JUMPI DUP1 PUSH4 0xFC9FE41B EQ PUSH2 0xF7D JUMPI DUP1 PUSH4 0xFEA12A03 EQ PUSH2 0xFBC JUMPI PUSH2 0x350 JUMP JUMPDEST DUP1 PUSH4 0xDDD5AA28 EQ PUSH2 0xE49 JUMPI DUP1 PUSH4 0xE78AC045 EQ PUSH2 0xE88 JUMPI DUP1 PUSH4 0xE8E4AF09 EQ PUSH2 0xEC5 JUMPI PUSH2 0x350 JUMP JUMPDEST DUP1 PUSH4 0xC94706D8 GT PUSH2 0xD1 JUMPI DUP1 PUSH4 0xC94706D8 EQ PUSH2 0xD63 JUMPI DUP1 PUSH4 0xCC1621C9 EQ PUSH2 0xDA0 JUMPI DUP1 PUSH4 0xCD72D789 EQ PUSH2 0xDDF JUMPI DUP1 PUSH4 0xD9BCA372 EQ PUSH2 0xE0A JUMPI PUSH2 0x350 JUMP JUMPDEST DUP1 PUSH4 0xC25C4138 EQ PUSH2 0xCAC JUMPI DUP1 PUSH4 0xC8319084 EQ PUSH2 0xCE9 JUMPI DUP1 PUSH4 0xC8C74A37 EQ PUSH2 0xD26 JUMPI PUSH2 0x350 JUMP JUMPDEST DUP1 PUSH4 0xA2D10BA5 GT PUSH2 0x164 JUMPI DUP1 PUSH4 0xAB000276 GT PUSH2 0x13E JUMPI DUP1 PUSH4 0xAB000276 EQ PUSH2 0xBB7 JUMPI DUP1 PUSH4 0xADC636BF EQ PUSH2 0xBF4 JUMPI DUP1 PUSH4 0xB90CD2FB EQ PUSH2 0xC32 JUMPI DUP1 PUSH4 0xBD71ECF6 EQ PUSH2 0xC6F JUMPI PUSH2 0x350 JUMP JUMPDEST DUP1 PUSH4 0xA2D10BA5 EQ PUSH2 0xB10 JUMPI DUP1 PUSH4 0xA4698417 EQ PUSH2 0xB3B JUMPI DUP1 PUSH4 0xA75E744B EQ PUSH2 0xB78 JUMPI PUSH2 0x350 JUMP JUMPDEST DUP1 PUSH4 0x9BF3EE35 GT PUSH2 0x1A0 JUMPI DUP1 PUSH4 0x9BF3EE35 EQ PUSH2 0xA1A JUMPI DUP1 PUSH4 0x9E3F05C3 EQ PUSH2 0xA57 JUMPI DUP1 PUSH4 0x9EA0FF13 EQ PUSH2 0xA96 JUMPI DUP1 PUSH4 0xA0295B8B EQ PUSH2 0xAD3 JUMPI PUSH2 0x350 JUMP JUMPDEST DUP1 PUSH4 0x8E5A0E07 EQ PUSH2 0x961 JUMPI DUP1 PUSH4 0x9209483B EQ PUSH2 0x9A0 JUMPI DUP1 PUSH4 0x98777748 EQ PUSH2 0x9DD JUMPI PUSH2 0x350 JUMP JUMPDEST DUP1 PUSH4 0x3105FEC1 GT PUSH2 0x2A0 JUMPI DUP1 PUSH4 0x5D5B674F GT PUSH2 0x23E JUMPI DUP1 PUSH4 0x706E2F9B GT PUSH2 0x218 JUMPI DUP1 PUSH4 0x706E2F9B EQ PUSH2 0x86B JUMPI DUP1 PUSH4 0x74C9D255 EQ PUSH2 0x8A8 JUMPI DUP1 PUSH4 0x7F7F4F13 EQ PUSH2 0x8E7 JUMPI DUP1 PUSH4 0x8B6D7B44 EQ PUSH2 0x924 JUMPI PUSH2 0x350 JUMP JUMPDEST DUP1 PUSH4 0x5D5B674F EQ PUSH2 0x7B4 JUMPI DUP1 PUSH4 0x66A1AC6B EQ PUSH2 0x7F1 JUMPI DUP1 PUSH4 0x68BE3CF2 EQ PUSH2 0x82E JUMPI PUSH2 0x350 JUMP JUMPDEST DUP1 PUSH4 0x4EDFB5B2 GT PUSH2 0x27A JUMPI DUP1 PUSH4 0x4EDFB5B2 EQ PUSH2 0x6BE JUMPI DUP1 PUSH4 0x5505000A EQ PUSH2 0x6FB JUMPI DUP1 PUSH4 0x57494B1D EQ PUSH2 0x739 JUMPI DUP1 PUSH4 0x5AAE4E53 EQ PUSH2 0x776 JUMPI PUSH2 0x350 JUMP JUMPDEST DUP1 PUSH4 0x3105FEC1 EQ PUSH2 0x61B JUMPI DUP1 PUSH4 0x31268657 EQ PUSH2 0x658 JUMPI DUP1 PUSH4 0x40BC03AE EQ PUSH2 0x681 JUMPI PUSH2 0x350 JUMP JUMPDEST DUP1 PUSH4 0x252322B3 GT PUSH2 0x30D JUMPI DUP1 PUSH4 0x29FA4AA0 GT PUSH2 0x2E7 JUMPI DUP1 PUSH4 0x29FA4AA0 EQ PUSH2 0x525 JUMPI DUP1 PUSH4 0x2AA64319 EQ PUSH2 0x562 JUMPI DUP1 PUSH4 0x2D753AA4 EQ PUSH2 0x5A1 JUMPI DUP1 PUSH4 0x30D6570D EQ PUSH2 0x5DE JUMPI PUSH2 0x350 JUMP JUMPDEST DUP1 PUSH4 0x252322B3 EQ PUSH2 0x480 JUMPI DUP1 PUSH4 0x2681F7E4 EQ PUSH2 0x4BD JUMPI DUP1 PUSH4 0x281E3432 EQ PUSH2 0x4E8 JUMPI PUSH2 0x350 JUMP JUMPDEST DUP1 PUSH4 0x1022742B EQ PUSH2 0x355 JUMPI DUP1 PUSH4 0x11F2928B EQ PUSH2 0x392 JUMPI DUP1 PUSH4 0x149DAB0E EQ PUSH2 0x39C JUMPI DUP1 PUSH4 0x16279055 EQ PUSH2 0x3DB JUMPI DUP1 PUSH4 0x1694505E EQ PUSH2 0x418 JUMPI DUP1 PUSH4 0x2339078F EQ PUSH2 0x443 JUMPI JUMPDEST PUSH1 0x0 DUP1 REVERT JUMPDEST CALLVALUE DUP1 ISZERO PUSH2 0x361 JUMPI PUSH1 0x0 DUP1 REVERT JUMPDEST POP PUSH2 0x37C PUSH1 0x4 DUP1 CALLDATASIZE SUB DUP2 ADD SWAP1 PUSH2 0x377 SWAP2 SWAP1 PUSH2 0xB425 JUMP JUMPDEST PUSH2 0xFE7 JUMP JUMPDEST PUSH1 0x40 MLOAD PUSH2 0x389 SWAP2 SWAP1 PUSH2 0xC500 JUMP JUMPDEST PUSH1 0x40 MLOAD DUP1 SWAP2 SUB SWAP1 RETURN JUMPDEST PUSH2 0x39A PUSH2 0x1175 JUMP JUMPDEST STOP JUMPDEST CALLVALUE DUP1 ISZERO PUSH2 0x3A8 JUMPI PUSH1 0x0 DUP1 REVERT JUMPDEST POP PUSH2 0x3C3 PUSH1 0x4 DUP1 CALLDATASIZE SUB DUP2 ADD SWAP1 PUSH2 0x3BE SWAP2 SWAP1 PUSH2 0xB834 JUMP JUMPDEST PUSH2 0x11D2 JUMP JUMPDEST PUSH1 0x40 MLOAD PUSH2 0x3D2 SWAP4 SWAP3 SWAP2 SWAP1 PUSH2 0xC298 JUMP JUMPDEST PUSH1 0x40 MLOAD DUP1 SWAP2 SUB SWAP1 RETURN JUMPDEST CALLVALUE DUP1 ISZERO PUSH2 0x3E7 JUMPI PUSH1 0x0 DUP1 REVERT JUMPDEST POP PUSH2 0x402 PUSH1 0x4 DUP1 CALLDATASIZE SUB DUP2 ADD SWAP1 PUSH2 0x3FD SWAP2 SWAP1 PUSH2 0xABA5 JUMP JUMPDEST PUSH2 0x134E JUMP JUMPDEST PUSH1 0x40 MLOAD PUSH2 0x40F SWAP2 SWAP1 PUSH2 0xC592 JUMP JUMPDEST PUSH1 0x40 MLOAD DUP1 SWAP2 SUB SWAP1 RETURN JUMPDEST CALLVALUE DUP1 ISZERO PUSH2 0x424 JUMPI PUSH1 0x0 DUP1 REVERT JUMPDEST POP PUSH2 0x42D PUSH2 0x1361 JUMP JUMPDEST PUSH1 0x40 MLOAD PUSH2 0x43A SWAP2 SWAP1 PUSH2 0xC72C JUMP JUMPDEST PUSH1 0x40 MLOAD DUP1 SWAP2 SUB SWAP1 RETURN JUMPDEST CALLVALUE DUP1 ISZERO PUSH2 0x44F JUMPI PUSH1 0x0 DUP1 REVERT JUMPDEST POP PUSH2 0x46A PUSH1 0x4 DUP1 CALLDATASIZE SUB DUP2 ADD SWAP1 PUSH2 0x465 SWAP2 SWAP1 PUSH2 0xB794 JUMP JUMPDEST PUSH2 0x1387 JUMP JUMPDEST PUSH1 0x40 MLOAD PUSH2 0x477 SWAP2 SWAP1 PUSH2 0xC500 JUMP JUMPDEST PUSH1 0x40 MLOAD DUP1 SWAP2 SUB SWAP1 RETURN JUMPDEST CALLVALUE DUP1 ISZERO PUSH2 0x48C JUMPI PUSH1 0x0 DUP1 REVERT JUMPDEST POP PUSH2 0x4A7 PUSH1 0x4 DUP1 CALLDATASIZE SUB DUP2 ADD SWAP1 PUSH2 0x4A2 SWAP2 SWAP1 PUSH2 0xAE57 JUMP JUMPDEST PUSH2 0x1653 JUMP JUMPDEST PUSH1 0x40 MLOAD PUSH2 0x4B4 SWAP2 SWAP1 PUSH2 0xC500 JUMP JUMPDEST PUSH1 0x40 MLOAD DUP1 SWAP2 SUB SWAP1 RETURN JUMPDEST CALLVALUE DUP1 ISZERO PUSH2 0x4C9 JUMPI PUSH1 0x0 DUP1 REVERT JUMPDEST POP PUSH2 0x4D2 PUSH2 0x1914 JUMP JUMPDEST PUSH1 0x40 MLOAD PUSH2 0x4DF SWAP2 SWAP1 PUSH2 0xC713 JUMP JUMPDEST PUSH1 0x40 MLOAD DUP1 SWAP2 SUB SWAP1 RETURN JUMPDEST CALLVALUE DUP1 ISZERO PUSH2 0x4F4 JUMPI PUSH1 0x0 DUP1 REVERT JUMPDEST POP PUSH2 0x50F PUSH1 0x4 DUP1 CALLDATASIZE SUB DUP2 ADD SWAP1 PUSH2 0x50A SWAP2 SWAP1 PUSH2 0xBBCF JUMP JUMPDEST PUSH2 0x1938 JUMP JUMPDEST PUSH1 0x40 MLOAD PUSH2 0x51C SWAP2 SWAP1 PUSH2 0xC500 JUMP JUMPDEST PUSH1 0x40 MLOAD DUP1 SWAP2 SUB SWAP1 RETURN JUMPDEST CALLVALUE DUP1 ISZERO PUSH2 0x531 JUMPI PUSH1 0x0 DUP1 REVERT JUMPDEST POP PUSH2 0x54C PUSH1 0x4 DUP1 CALLDATASIZE SUB DUP2 ADD SWAP1 PUSH2 0x547 SWAP2 SWAP1 PUSH2 0xBC84 JUMP JUMPDEST PUSH2 0x1C00 JUMP JUMPDEST PUSH1 0x40 MLOAD PUSH2 0x559 SWAP2 SWAP1 PUSH2 0xC500 JUMP JUMPDEST PUSH1 0x40 MLOAD DUP1 SWAP2 SUB SWAP1 RETURN JUMPDEST CALLVALUE DUP1 ISZERO PUSH2 0x56E JUMPI PUSH1 0x0 DUP1 REVERT JUMPDEST POP PUSH2 0x589 PUSH1 0x4 DUP1 CALLDATASIZE SUB DUP2 ADD SWAP1 PUSH2 0x584 SWAP2 SWAP1 PUSH2 0xB971 JUMP JUMPDEST PUSH2 0x1C74 JUMP JUMPDEST PUSH1 0x40 MLOAD PUSH2 0x598 SWAP4 SWAP3 SWAP2 SWAP1 PUSH2 0xC5A5 JUMP JUMPDEST PUSH1 0x40 MLOAD DUP1 SWAP2 SUB SWAP1 RETURN JUMPDEST CALLVALUE DUP1 ISZERO PUSH2 0x5AD JUMPI PUSH1 0x0 DUP1 REVERT JUMPDEST POP PUSH2 0x5C8 PUSH1 0x4 DUP1 CALLDATASIZE SUB DUP2 ADD SWAP1 PUSH2 0x5C3 SWAP2 SWAP1 PUSH2 0xADC9 JUMP JUMPDEST PUSH2 0x1FD8 JUMP JUMPDEST PUSH1 0x40 MLOAD PUSH2 0x5D5 SWAP2 SWAP1 PUSH2 0xC500 JUMP JUMPDEST PUSH1 0x40 MLOAD DUP1 SWAP2 SUB SWAP1 RETURN JUMPDEST CALLVALUE DUP1 ISZERO PUSH2 0x5EA JUMPI PUSH1 0x0 DUP1 REVERT JUMPDEST POP PUSH2 0x605 PUSH1 0x4 DUP1 CALLDATASIZE SUB DUP2 ADD SWAP1 PUSH2 0x600 SWAP2 SWAP1 PUSH2 0xAE57 JUMP JUMPDEST PUSH2 0x21D5 JUMP JUMPDEST PUSH1 0x40 MLOAD PUSH2 0x612 SWAP2 SWAP1 PUSH2 0xC500 JUMP JUMPDEST PUSH1 0x40 MLOAD DUP1 SWAP2 SUB SWAP1 RETURN JUMPDEST CALLVALUE DUP1 ISZERO PUSH2 0x627 JUMPI PUSH1 0x0 DUP1 REVERT JUMPDEST POP PUSH2 0x642 PUSH1 0x4 DUP1 CALLDATASIZE SUB DUP2 ADD SWAP1 PUSH2 0x63D SWAP2 SWAP1 PUSH2 0xAF28 JUMP JUMPDEST PUSH2 0x2367 JUMP JUMPDEST PUSH1 0x40 MLOAD PUSH2 0x64F SWAP2 SWAP1 PUSH2 0xC500 JUMP JUMPDEST PUSH1 0x40 MLOAD DUP1 SWAP2 SUB SWAP1 RETURN JUMPDEST CALLVALUE DUP1 ISZERO PUSH2 0x664 JUMPI PUSH1 0x0 DUP1 REVERT JUMPDEST POP PUSH2 0x67F PUSH1 0x4 DUP1 CALLDATASIZE SUB DUP2 ADD SWAP1 PUSH2 0x67A SWAP2 SWAP1 PUSH2 0xB020 JUMP JUMPDEST PUSH2 0x2509 JUMP JUMPDEST STOP JUMPDEST CALLVALUE DUP1 ISZERO PUSH2 0x68D JUMPI PUSH1 0x0 DUP1 REVERT JUMPDEST POP PUSH2 0x6A8 PUSH1 0x4 DUP1 CALLDATASIZE SUB DUP2 ADD SWAP1 PUSH2 0x6A3 SWAP2 SWAP1 PUSH2 0xB8FB JUMP JUMPDEST PUSH2 0x259A JUMP JUMPDEST PUSH1 0x40 MLOAD PUSH2 0x6B5 SWAP2 SWAP1 PUSH2 0xC500 JUMP JUMPDEST PUSH1 0x40 MLOAD DUP1 SWAP2 SUB SWAP1 RETURN JUMPDEST CALLVALUE DUP1 ISZERO PUSH2 0x6CA JUMPI PUSH1 0x0 DUP1 REVERT JUMPDEST POP PUSH2 0x6E5 PUSH1 0x4 DUP1 CALLDATASIZE SUB DUP2 ADD SWAP1 PUSH2 0x6E0 SWAP2 SWAP1 PUSH2 0xBB16 JUMP JUMPDEST PUSH2 0x276C JUMP JUMPDEST PUSH1 0x40 MLOAD PUSH2 0x6F2 SWAP2 SWAP1 PUSH2 0xC61F JUMP JUMPDEST PUSH1 0x40 MLOAD DUP1 SWAP2 SUB SWAP1 RETURN JUMPDEST CALLVALUE DUP1 ISZERO PUSH2 0x707 JUMPI PUSH1 0x0 DUP1 REVERT JUMPDEST POP PUSH2 0x722 PUSH1 0x4 DUP1 CALLDATASIZE SUB DUP2 ADD SWAP1 PUSH2 0x71D SWAP2 SWAP1 PUSH2 0xB68B JUMP JUMPDEST PUSH2 0x2B4B JUMP JUMPDEST PUSH1 0x40 MLOAD PUSH2 0x730 SWAP3 SWAP2 SWAP1 PUSH2 0xC51B JUMP JUMPDEST PUSH1 0x40 MLOAD DUP1 SWAP2 SUB SWAP1 RETURN JUMPDEST CALLVALUE DUP1 ISZERO PUSH2 0x745 JUMPI PUSH1 0x0 DUP1 REVERT JUMPDEST POP PUSH2 0x760 PUSH1 0x4 DUP1 CALLDATASIZE SUB DUP2 ADD SWAP1 PUSH2 0x75B SWAP2 SWAP1 PUSH2 0xAE57 JUMP JUMPDEST PUSH2 0x2DCC JUMP JUMPDEST PUSH1 0x40 MLOAD PUSH2 0x76D SWAP2 SWAP1 PUSH2 0xC500 JUMP JUMPDEST PUSH1 0x40 MLOAD DUP1 SWAP2 SUB SWAP1 RETURN JUMPDEST CALLVALUE DUP1 ISZERO PUSH2 0x782 JUMPI PUSH1 0x0 DUP1 REVERT JUMPDEST POP PUSH2 0x79D PUSH1 0x4 DUP1 CALLDATASIZE SUB DUP2 ADD SWAP1 PUSH2 0x798 SWAP2 SWAP1 PUSH2 0xB68B JUMP JUMPDEST PUSH2 0x33B7 JUMP JUMPDEST PUSH1 0x40 MLOAD PUSH2 0x7AB SWAP3 SWAP2 SWAP1 PUSH2 0xC51B JUMP JUMPDEST PUSH1 0x40 MLOAD DUP1 SWAP2 SUB SWAP1 RETURN JUMPDEST CALLVALUE DUP1 ISZERO PUSH2 0x7C0 JUMPI PUSH1 0x0 DUP1 REVERT JUMPDEST POP PUSH2 0x7DB PUSH1 0x4 DUP1 CALLDATASIZE SUB DUP2 ADD SWAP1 PUSH2 0x7D6 SWAP2 SWAP1 PUSH2 0xAE57 JUMP JUMPDEST PUSH2 0x3677 JUMP JUMPDEST PUSH1 0x40 MLOAD PUSH2 0x7E8 SWAP2 SWAP1 PUSH2 0xC500 JUMP JUMPDEST PUSH1 0x40 MLOAD DUP1 SWAP2 SUB SWAP1 RETURN JUMPDEST CALLVALUE DUP1 ISZERO PUSH2 0x7FD JUMPI PUSH1 0x0 DUP1 REVERT JUMPDEST POP PUSH2 0x818 PUSH1 0x4 DUP1 CALLDATASIZE SUB DUP2 ADD SWAP1 PUSH2 0x813 SWAP2 SWAP1 PUSH2 0xB425 JUMP JUMPDEST PUSH2 0x36EB JUMP JUMPDEST PUSH1 0x40 MLOAD PUSH2 0x825 SWAP2 SWAP1 PUSH2 0xC500 JUMP JUMPDEST PUSH1 0x40 MLOAD DUP1 SWAP2 SUB SWAP1 RETURN JUMPDEST CALLVALUE DUP1 ISZERO PUSH2 0x83A JUMPI PUSH1 0x0 DUP1 REVERT JUMPDEST POP PUSH2 0x855 PUSH1 0x4 DUP1 CALLDATASIZE SUB DUP2 ADD SWAP1 PUSH2 0x850 SWAP2 SWAP1 PUSH2 0xB1E6 JUMP JUMPDEST PUSH2 0x37BD JUMP JUMPDEST PUSH1 0x40 MLOAD PUSH2 0x862 SWAP2 SWAP1 PUSH2 0xC481 JUMP JUMPDEST PUSH1 0x40 MLOAD DUP1 SWAP2 SUB SWAP1 RETURN JUMPDEST CALLVALUE DUP1 ISZERO PUSH2 0x877 JUMPI PUSH1 0x0 DUP1 REVERT JUMPDEST POP PUSH2 0x892 PUSH1 0x4 DUP1 CALLDATASIZE SUB DUP2 ADD SWAP1 PUSH2 0x88D SWAP2 SWAP1 PUSH2 0xB295 JUMP JUMPDEST PUSH2 0x3948 JUMP JUMPDEST PUSH1 0x40 MLOAD PUSH2 0x89F SWAP2 SWAP1 PUSH2 0xC500 JUMP JUMPDEST PUSH1 0x40 MLOAD DUP1 SWAP2 SUB SWAP1 RETURN JUMPDEST CALLVALUE DUP1 ISZERO PUSH2 0x8B4 JUMPI PUSH1 0x0 DUP1 REVERT JUMPDEST POP PUSH2 0x8CF PUSH1 0x4 DUP1 CALLDATASIZE SUB DUP2 ADD SWAP1 PUSH2 0x8CA SWAP2 SWAP1 PUSH2 0xB834 JUMP JUMPDEST PUSH2 0x3A6D JUMP JUMPDEST PUSH1 0x40 MLOAD PUSH2 0x8DE SWAP4 SWAP3 SWAP2 SWAP1 PUSH2 0xC298 JUMP JUMPDEST PUSH1 0x40 MLOAD DUP1 SWAP2 SUB SWAP1 RETURN JUMPDEST CALLVALUE DUP1 ISZERO PUSH2 0x8F3 JUMPI PUSH1 0x0 DUP1 REVERT JUMPDEST POP PUSH2 0x90E PUSH1 0x4 DUP1 CALLDATASIZE SUB DUP2 ADD SWAP1 PUSH2 0x909 SWAP2 SWAP1 PUSH2 0xBBCF JUMP JUMPDEST PUSH2 0x3A7C JUMP JUMPDEST PUSH1 0x40 MLOAD PUSH2 0x91B SWAP2 SWAP1 PUSH2 0xC500 JUMP JUMPDEST PUSH1 0x40 MLOAD DUP1 SWAP2 SUB SWAP1 RETURN JUMPDEST CALLVALUE DUP1 ISZERO PUSH2 0x930 JUMPI PUSH1 0x0 DUP1 REVERT JUMPDEST POP PUSH2 0x94B PUSH1 0x4 DUP1 CALLDATASIZE SUB DUP2 ADD SWAP1 PUSH2 0x946 SWAP2 SWAP1 PUSH2 0xBC84 JUMP JUMPDEST PUSH2 0x3D44 JUMP JUMPDEST PUSH1 0x40 MLOAD PUSH2 0x958 SWAP2 SWAP1 PUSH2 0xC500 JUMP JUMPDEST PUSH1 0x40 MLOAD DUP1 SWAP2 SUB SWAP1 RETURN JUMPDEST CALLVALUE DUP1 ISZERO PUSH2 0x96D JUMPI PUSH1 0x0 DUP1 REVERT JUMPDEST POP PUSH2 0x988 PUSH1 0x4 DUP1 CALLDATASIZE SUB DUP2 ADD SWAP1 PUSH2 0x983 SWAP2 SWAP1 PUSH2 0xB22B JUMP JUMPDEST PUSH2 0x412A JUMP JUMPDEST PUSH1 0x40 MLOAD PUSH2 0x997 SWAP4 SWAP3 SWAP2 SWAP1 PUSH2 0xCA34 JUMP JUMPDEST PUSH1 0x40 MLOAD DUP1 SWAP2 SUB SWAP1 RETURN JUMPDEST CALLVALUE DUP1 ISZERO PUSH2 0x9AC JUMPI PUSH1 0x0 DUP1 REVERT JUMPDEST POP PUSH2 0x9C7 PUSH1 0x4 DUP1 CALLDATASIZE SUB DUP2 ADD SWAP1 PUSH2 0x9C2 SWAP2 SWAP1 PUSH2 0xB8FB JUMP JUMPDEST PUSH2 0x4391 JUMP JUMPDEST PUSH1 0x40 MLOAD PUSH2 0x9D4 SWAP2 SWAP1 PUSH2 0xC500 JUMP JUMPDEST PUSH1 0x40 MLOAD DUP1 SWAP2 SUB SWAP1 RETURN JUMPDEST CALLVALUE DUP1 ISZERO PUSH2 0x9E9 JUMPI PUSH1 0x0 DUP1 REVERT JUMPDEST POP PUSH2 0xA04 PUSH1 0x4 DUP1 CALLDATASIZE SUB DUP2 ADD SWAP1 PUSH2 0x9FF SWAP2 SWAP1 PUSH2 0xAE57 JUMP JUMPDEST PUSH2 0x4621 JUMP JUMPDEST PUSH1 0x40 MLOAD PUSH2 0xA11 SWAP2 SWAP1 PUSH2 0xC500 JUMP JUMPDEST PUSH1 0x40 MLOAD DUP1 SWAP2 SUB SWAP1 RETURN JUMPDEST CALLVALUE DUP1 ISZERO PUSH2 0xA26 JUMPI PUSH1 0x0 DUP1 REVERT JUMPDEST POP PUSH2 0xA41 PUSH1 0x4 DUP1 CALLDATASIZE SUB DUP2 ADD SWAP1 PUSH2 0xA3C SWAP2 SWAP1 PUSH2 0xBB84 JUMP JUMPDEST PUSH2 0x4C09 JUMP JUMPDEST PUSH1 0x40 MLOAD PUSH2 0xA4E SWAP2 SWAP1 PUSH2 0xCC1E JUMP JUMPDEST PUSH1 0x40 MLOAD DUP1 SWAP2 SUB SWAP1 RETURN JUMPDEST CALLVALUE DUP1 ISZERO PUSH2 0xA63 JUMPI PUSH1 0x0 DUP1 REVERT JUMPDEST POP PUSH2 0xA7E PUSH1 0x4 DUP1 CALLDATASIZE SUB DUP2 ADD SWAP1 PUSH2 0xA79 SWAP2 SWAP1 PUSH2 0xBA1C JUMP JUMPDEST PUSH2 0x4C62 JUMP JUMPDEST PUSH1 0x40 MLOAD PUSH2 0xA8D SWAP4 SWAP3 SWAP2 SWAP1 PUSH2 0xC5E9 JUMP JUMPDEST PUSH1 0x40 MLOAD DUP1 SWAP2 SUB SWAP1 RETURN JUMPDEST CALLVALUE DUP1 ISZERO PUSH2 0xAA2 JUMPI PUSH1 0x0 DUP1 REVERT JUMPDEST POP PUSH2 0xABD PUSH1 0x4 DUP1 CALLDATASIZE SUB DUP2 ADD SWAP1 PUSH2 0xAB8 SWAP2 SWAP1 PUSH2 0xAED0 JUMP JUMPDEST PUSH2 0x4DA6 JUMP JUMPDEST PUSH1 0x40 MLOAD PUSH2 0xACA SWAP2 SWAP1 PUSH2 0xCC1E JUMP JUMPDEST PUSH1 0x40 MLOAD DUP1 SWAP2 SUB SWAP1 RETURN JUMPDEST CALLVALUE DUP1 ISZERO PUSH2 0xADF JUMPI PUSH1 0x0 DUP1 REVERT JUMPDEST POP PUSH2 0xAFA PUSH1 0x4 DUP1 CALLDATASIZE SUB DUP2 ADD SWAP1 PUSH2 0xAF5 SWAP2 SWAP1 PUSH2 0xB794 JUMP JUMPDEST PUSH2 0x5042 JUMP JUMPDEST PUSH1 0x40 MLOAD PUSH2 0xB07 SWAP2 SWAP1 PUSH2 0xC500 JUMP JUMPDEST PUSH1 0x40 MLOAD DUP1 SWAP2 SUB SWAP1 RETURN JUMPDEST CALLVALUE DUP1 ISZERO PUSH2 0xB1C JUMPI PUSH1 0x0 DUP1 REVERT JUMPDEST POP PUSH2 0xB25 PUSH2 0x52EC JUMP JUMPDEST PUSH1 0x40 MLOAD PUSH2 0xB32 SWAP2 SWAP1 PUSH2 0xC6FA JUMP JUMPDEST PUSH1 0x40 MLOAD DUP1 SWAP2 SUB SWAP1 RETURN JUMPDEST CALLVALUE DUP1 ISZERO PUSH2 0xB47 JUMPI PUSH1 0x0 DUP1 REVERT JUMPDEST POP PUSH2 0xB62 PUSH1 0x4 DUP1 CALLDATASIZE SUB DUP2 ADD SWAP1 PUSH2 0xB5D SWAP2 SWAP1 PUSH2 0xAE57 JUMP JUMPDEST PUSH2 0x5312 JUMP JUMPDEST PUSH1 0x40 MLOAD PUSH2 0xB6F SWAP2 SWAP1 PUSH2 0xC500 JUMP JUMPDEST PUSH1 0x40 MLOAD DUP1 SWAP2 SUB SWAP1 RETURN JUMPDEST CALLVALUE DUP1 ISZERO PUSH2 0xB84 JUMPI PUSH1 0x0 DUP1 REVERT JUMPDEST POP PUSH2 0xB9F PUSH1 0x4 DUP1 CALLDATASIZE SUB DUP2 ADD SWAP1 PUSH2 0xB9A SWAP2 SWAP1 PUSH2 0xAF9D JUMP JUMPDEST PUSH2 0x549B JUMP JUMPDEST PUSH1 0x40 MLOAD PUSH2 0xBAE SWAP4 SWAP3 SWAP2 SWAP1 PUSH2 0xC5A5 JUMP JUMPDEST PUSH1 0x40 MLOAD DUP1 SWAP2 SUB SWAP1 RETURN JUMPDEST CALLVALUE DUP1 ISZERO PUSH2 0xBC3 JUMPI PUSH1 0x0 DUP1 REVERT JUMPDEST POP PUSH2 0xBDE PUSH1 0x4 DUP1 CALLDATASIZE SUB DUP2 ADD SWAP1 PUSH2 0xBD9 SWAP2 SWAP1 PUSH2 0xAE57 JUMP JUMPDEST PUSH2 0x5612 JUMP JUMPDEST PUSH1 0x40 MLOAD PUSH2 0xBEB SWAP2 SWAP1 PUSH2 0xC500 JUMP JUMPDEST PUSH1 0x40 MLOAD DUP1 SWAP2 SUB SWAP1 RETURN JUMPDEST CALLVALUE DUP1 ISZERO PUSH2 0xC00 JUMPI PUSH1 0x0 DUP1 REVERT JUMPDEST POP PUSH2 0xC1B PUSH1 0x4 DUP1 CALLDATASIZE SUB DUP2 ADD SWAP1 PUSH2 0xC16 SWAP2 SWAP1 PUSH2 0xAE57 JUMP JUMPDEST PUSH2 0x57A5 JUMP JUMPDEST PUSH1 0x40 MLOAD PUSH2 0xC29 SWAP3 SWAP2 SWAP1 PUSH2 0xC6B7 JUMP JUMPDEST PUSH1 0x40 MLOAD DUP1 SWAP2 SUB SWAP1 RETURN JUMPDEST CALLVALUE DUP1 ISZERO PUSH2 0xC3E JUMPI PUSH1 0x0 DUP1 REVERT JUMPDEST POP PUSH2 0xC59 PUSH1 0x4 DUP1 CALLDATASIZE SUB DUP2 ADD SWAP1 PUSH2 0xC54 SWAP2 SWAP1 PUSH2 0xAE57 JUMP JUMPDEST PUSH2 0x5911 JUMP JUMPDEST PUSH1 0x40 MLOAD PUSH2 0xC66 SWAP2 SWAP1 PUSH2 0xC500 JUMP JUMPDEST PUSH1 0x40 MLOAD DUP1 SWAP2 SUB SWAP1 RETURN JUMPDEST CALLVALUE DUP1 ISZERO PUSH2 0xC7B JUMPI PUSH1 0x0 DUP1 REVERT JUMPDEST POP PUSH2 0xC96 PUSH1 0x4 DUP1 CALLDATASIZE SUB DUP2 ADD SWAP1 PUSH2 0xC91 SWAP2 SWAP1 PUSH2 0xB2D1 JUMP JUMPDEST PUSH2 0x5985 JUMP JUMPDEST PUSH1 0x40 MLOAD PUSH2 0xCA3 SWAP2 SWAP1 PUSH2 0xC500 JUMP JUMPDEST PUSH1 0x40 MLOAD DUP1 SWAP2 SUB SWAP1 RETURN JUMPDEST CALLVALUE DUP1 ISZERO PUSH2 0xCB8 JUMPI PUSH1 0x0 DUP1 REVERT JUMPDEST POP PUSH2 0xCD3 PUSH1 0x4 DUP1 CALLDATASIZE SUB DUP2 ADD SWAP1 PUSH2 0xCCE SWAP2 SWAP1 PUSH2 0xAE57 JUMP JUMPDEST PUSH2 0x5AC8 JUMP JUMPDEST PUSH1 0x40 MLOAD PUSH2 0xCE0 SWAP2 SWAP1 PUSH2 0xC500 JUMP JUMPDEST PUSH1 0x40 MLOAD DUP1 SWAP2 SUB SWAP1 RETURN JUMPDEST CALLVALUE DUP1 ISZERO PUSH2 0xCF5 JUMPI PUSH1 0x0 DUP1 REVERT JUMPDEST POP PUSH2 0xD10 PUSH1 0x4 DUP1 CALLDATASIZE SUB DUP2 ADD SWAP1 PUSH2 0xD0B SWAP2 SWAP1 PUSH2 0xAE57 JUMP JUMPDEST PUSH2 0x5B3C JUMP JUMPDEST PUSH1 0x40 MLOAD PUSH2 0xD1D SWAP2 SWAP1 PUSH2 0xC500 JUMP JUMPDEST PUSH1 0x40 MLOAD DUP1 SWAP2 SUB SWAP1 RETURN JUMPDEST CALLVALUE DUP1 ISZERO PUSH2 0xD32 JUMPI PUSH1 0x0 DUP1 REVERT JUMPDEST POP PUSH2 0xD4D PUSH1 0x4 DUP1 CALLDATASIZE SUB DUP2 ADD SWAP1 PUSH2 0xD48 SWAP2 SWAP1 PUSH2 0xAF28 JUMP JUMPDEST PUSH2 0x5DFD JUMP JUMPDEST PUSH1 0x40 MLOAD PUSH2 0xD5A SWAP2 SWAP1 PUSH2 0xC500 JUMP JUMPDEST PUSH1 0x40 MLOAD DUP1 SWAP2 SUB SWAP1 RETURN JUMPDEST CALLVALUE DUP1 ISZERO PUSH2 0xD6F JUMPI PUSH1 0x0 DUP1 REVERT JUMPDEST POP PUSH2 0xD8A PUSH1 0x4 DUP1 CALLDATASIZE SUB DUP2 ADD SWAP1 PUSH2 0xD85 SWAP2 SWAP1 PUSH2 0xAE57 JUMP JUMPDEST PUSH2 0x5F9C JUMP JUMPDEST PUSH1 0x40 MLOAD PUSH2 0xD97 SWAP2 SWAP1 PUSH2 0xC500 JUMP JUMPDEST PUSH1 0x40 MLOAD DUP1 SWAP2 SUB SWAP1 RETURN JUMPDEST CALLVALUE DUP1 ISZERO PUSH2 0xDAC JUMPI PUSH1 0x0 DUP1 REVERT JUMPDEST POP PUSH2 0xDC7 PUSH1 0x4 DUP1 CALLDATASIZE SUB DUP2 ADD SWAP1 PUSH2 0xDC2 SWAP2 SWAP1 PUSH2 0xBA1C JUMP JUMPDEST PUSH2 0x612F JUMP JUMPDEST PUSH1 0x40 MLOAD PUSH2 0xDD6 SWAP4 SWAP3 SWAP2 SWAP1 PUSH2 0xC5E9 JUMP JUMPDEST PUSH1 0x40 MLOAD DUP1 SWAP2 SUB SWAP1 RETURN JUMPDEST CALLVALUE DUP1 ISZERO PUSH2 0xDEB JUMPI PUSH1 0x0 DUP1 REVERT JUMPDEST POP PUSH2 0xDF4 PUSH2 0x6354 JUMP JUMPDEST PUSH1 0x40 MLOAD PUSH2 0xE01 SWAP2 SWAP1 PUSH2 0xC0BA JUMP JUMPDEST PUSH1 0x40 MLOAD DUP1 SWAP2 SUB SWAP1 RETURN JUMPDEST CALLVALUE DUP1 ISZERO PUSH2 0xE16 JUMPI PUSH1 0x0 DUP1 REVERT JUMPDEST POP PUSH2 0xE31 PUSH1 0x4 DUP1 CALLDATASIZE SUB DUP2 ADD SWAP1 PUSH2 0xE2C SWAP2 SWAP1 PUSH2 0xAF9D JUMP JUMPDEST PUSH2 0x636C JUMP JUMPDEST PUSH1 0x40 MLOAD PUSH2 0xE40 SWAP4 SWAP3 SWAP2 SWAP1 PUSH2 0xC5A5 JUMP JUMPDEST PUSH1 0x40 MLOAD DUP1 SWAP2 SUB SWAP1 RETURN JUMPDEST CALLVALUE DUP1 ISZERO PUSH2 0xE55 JUMPI PUSH1 0x0 DUP1 REVERT JUMPDEST POP PUSH2 0xE70 PUSH1 0x4 DUP1 CALLDATASIZE SUB DUP2 ADD SWAP1 PUSH2 0xE6B SWAP2 SWAP1 PUSH2 0xB971 JUMP JUMPDEST PUSH2 0x6494 JUMP JUMPDEST PUSH1 0x40 MLOAD PUSH2 0xE7F SWAP4 SWAP3 SWAP2 SWAP1 PUSH2 0xC5A5 JUMP JUMPDEST PUSH1 0x40 MLOAD DUP1 SWAP2 SUB SWAP1 RETURN JUMPDEST CALLVALUE DUP1 ISZERO PUSH2 0xE94 JUMPI PUSH1 0x0 DUP1 REVERT JUMPDEST POP PUSH2 0xEAF PUSH1 0x4 DUP1 CALLDATASIZE SUB DUP2 ADD SWAP1 PUSH2 0xEAA SWAP2 SWAP1 PUSH2 0xB321 JUMP JUMPDEST PUSH2 0x67A9 JUMP JUMPDEST PUSH1 0x40 MLOAD PUSH2 0xEBC SWAP2 SWAP1 PUSH2 0xC500 JUMP JUMPDEST PUSH1 0x40 MLOAD DUP1 SWAP2 SUB SWAP1 RETURN JUMPDEST CALLVALUE DUP1 ISZERO PUSH2 0xED1 JUMPI PUSH1 0x0 DUP1 REVERT JUMPDEST POP PUSH2 0xEEC PUSH1 0x4 DUP1 CALLDATASIZE SUB DUP2 ADD SWAP1 PUSH2 0xEE7 SWAP2 SWAP1 PUSH2 0xAE57 JUMP JUMPDEST PUSH2 0x68D9 JUMP JUMPDEST PUSH1 0x40 MLOAD PUSH2 0xEF9 SWAP2 SWAP1 PUSH2 0xC500 JUMP JUMPDEST PUSH1 0x40 MLOAD DUP1 SWAP2 SUB SWAP1 RETURN JUMPDEST CALLVALUE DUP1 ISZERO PUSH2 0xF0E JUMPI PUSH1 0x0 DUP1 REVERT JUMPDEST POP PUSH2 0xF29 PUSH1 0x4 DUP1 CALLDATASIZE SUB DUP2 ADD SWAP1 PUSH2 0xF24 SWAP2 SWAP1 PUSH2 0xBAA8 JUMP JUMPDEST PUSH2 0x6A40 JUMP JUMPDEST PUSH1 0x40 MLOAD PUSH2 0xF36 SWAP2 SWAP1 PUSH2 0xCC1E JUMP JUMPDEST PUSH1 0x40 MLOAD DUP1 SWAP2 SUB SWAP1 RETURN JUMPDEST CALLVALUE DUP1 ISZERO PUSH2 0xF4B JUMPI PUSH1 0x0 DUP1 REVERT JUMPDEST POP PUSH2 0xF66 PUSH1 0x4 DUP1 CALLDATASIZE SUB DUP2 ADD SWAP1 PUSH2 0xF61 SWAP2 SWAP1 PUSH2 0xAE57 JUMP JUMPDEST PUSH2 0x6C27 JUMP JUMPDEST PUSH1 0x40 MLOAD PUSH2 0xF74 SWAP3 SWAP2 SWAP1 PUSH2 0xC6B7 JUMP JUMPDEST PUSH1 0x40 MLOAD DUP1 SWAP2 SUB SWAP1 RETURN JUMPDEST CALLVALUE DUP1 ISZERO PUSH2 0xF89 JUMPI PUSH1 0x0 DUP1 REVERT JUMPDEST POP PUSH2 0xFA4 PUSH1 0x4 DUP1 CALLDATASIZE SUB DUP2 ADD SWAP1 PUSH2 0xF9F SWAP2 SWAP1 PUSH2 0xB22B JUMP JUMPDEST PUSH2 0x6D85 JUMP JUMPDEST PUSH1 0x40 MLOAD PUSH2 0xFB3 SWAP4 SWAP3 SWAP2 SWAP1 PUSH2 0xCA34 JUMP JUMPDEST PUSH1 0x40 MLOAD DUP1 SWAP2 SUB SWAP1 RETURN JUMPDEST CALLVALUE DUP1 ISZERO PUSH2 0xFC8 JUMPI PUSH1 0x0 DUP1 REVERT JUMPDEST POP PUSH2 0xFD1 PUSH2 0x7066 JUMP JUMPDEST PUSH1 0x40 MLOAD PUSH2 0xFDE SWAP2 SWAP1 PUSH2 0xC6E1 JUMP JUMPDEST PUSH1 0x40 MLOAD DUP1 SWAP2 SUB SWAP1 RETURN JUMPDEST PUSH1 0x60 DUP4 MLOAD PUSH8 0xFFFFFFFFFFFFFFFF DUP2 GT DUP1 ISZERO PUSH2 0x1001 JUMPI PUSH1 0x0 DUP1 REVERT JUMPDEST POP PUSH1 0x40 MLOAD SWAP1 DUP1 DUP3 MSTORE DUP1 PUSH1 0x20 MUL PUSH1 0x20 ADD DUP3 ADD PUSH1 0x40 MSTORE DUP1 ISZERO PUSH2 0x1030 JUMPI DUP2 PUSH1 0x20 ADD PUSH1 0x20 DUP3 MUL DUP1 CALLDATASIZE DUP4 CALLDATACOPY DUP1 DUP3 ADD SWAP2 POP POP SWAP1 POP JUMPDEST POP SWAP1 POP PUSH1 0x0 JUMPDEST DUP5 MLOAD DUP2 EQ PUSH2 0x116D JUMPI ADDRESS PUSH20 0xFFFFFFFFFFFFFFFFFFFFFFFFFFFFFFFFFFFFFFFF AND PUSH4 0x9BF3EE35 PUSH3 0x30D40 DUP8 DUP5 DUP2 MLOAD DUP2 LT PUSH2 0x106A JUMPI INVALID JUMPDEST PUSH1 0x20 MUL PUSH1 0x20 ADD ADD MLOAD DUP8 DUP6 DUP2 MLOAD DUP2 LT PUSH2 0x107E JUMPI INVALID JUMPDEST PUSH1 0x20 MUL PUSH1 0x20 ADD ADD MLOAD DUP8 PUSH1 0x40 MLOAD DUP6 PUSH4 0xFFFFFFFF AND PUSH1 0xE0 SHL DUP2 MSTORE PUSH1 0x4 ADD PUSH2 0x10A5 SWAP4 SWAP3 SWAP2 SWAP1 PUSH2 0xCAE2 JUMP JUMPDEST PUSH1 0x20 PUSH1 0x40 MLOAD DUP1 DUP4 SUB DUP2 DUP8 DUP1 EXTCODESIZE ISZERO DUP1 ISZERO PUSH2 0x10BD JUMPI PUSH1 0x0 DUP1 REVERT JUMPDEST POP DUP7 STATICCALL SWAP4 POP POP POP POP DUP1 ISZERO PUSH2 0x10EF JUMPI POP PUSH1 0x40 MLOAD RETURNDATASIZE PUSH1 0x1F NOT PUSH1 0x1F DUP3 ADD AND DUP3 ADD DUP1 PUSH1 0x40 MSTORE POP DUP2 ADD SWAP1 PUSH2 0x10EC SWAP2 SWAP1 PUSH2 0xBD27 JUMP JUMPDEST PUSH1 0x1 JUMPDEST PUSH2 0x1145 JUMPI RETURNDATASIZE DUP1 PUSH1 0x0 DUP2 EQ PUSH2 0x111F JUMPI PUSH1 0x40 MLOAD SWAP2 POP PUSH1 0x1F NOT PUSH1 0x3F RETURNDATASIZE ADD AND DUP3 ADD PUSH1 0x40 MSTORE RETURNDATASIZE DUP3 MSTORE RETURNDATASIZE PUSH1 0x0 PUSH1 0x20 DUP5 ADD RETURNDATACOPY PUSH2 0x1124 JUMP JUMPDEST PUSH1 0x60 SWAP2 POP JUMPDEST POP PUSH1 0x0 DUP4 DUP4 DUP2 MLOAD DUP2 LT PUSH2 0x1133 JUMPI INVALID JUMPDEST PUSH1 0x20 MUL PUSH1 0x20 ADD ADD DUP2 DUP2 MSTORE POP POP POP PUSH2 0x1160 JUMP JUMPDEST DUP1 DUP4 DUP4 DUP2 MLOAD DUP2 LT PUSH2 0x1152 JUMPI INVALID JUMPDEST PUSH1 0x20 MUL PUSH1 0x20 ADD ADD DUP2 DUP2 MSTORE POP POP POP JUMPDEST DUP1 DUP1 PUSH1 0x1 ADD SWAP2 POP POP PUSH2 0x1036 JUMP JUMPDEST POP SWAP4 SWAP3 POP POP POP JUMP JUMPDEST PUSH20 0xE9DB8717BC5DFB20AAF538B4A5A02B7791FF430C PUSH20 0xFFFFFFFFFFFFFFFFFFFFFFFFFFFFFFFFFFFFFFFF AND PUSH2 0x8FC CALLVALUE SWAP1 DUP2 ISZERO MUL SWAP1 PUSH1 0x40 MLOAD PUSH1 0x0 PUSH1 0x40 MLOAD DUP1 DUP4 SUB DUP2 DUP6 DUP9 DUP9 CALL SWAP4 POP POP POP POP ISZERO DUP1 ISZERO PUSH2 0x11CF JUMPI RETURNDATASIZE PUSH1 0x0 DUP1 RETURNDATACOPY RETURNDATASIZE PUSH1 0x0 REVERT JUMPDEST POP JUMP JUMPDEST PUSH1 0x0 PUSH1 0x60 DUP1 PUSH1 0x0 DUP8 PUSH1 0x20 ADD MLOAD MLOAD EQ ISZERO PUSH2 0x11EA JUMPI PUSH2 0x1344 JUMP JUMPDEST PUSH2 0x11F6 DUP8 DUP8 DUP8 DUP8 PUSH2 0x708C JUMP JUMPDEST DUP1 SWAP4 POP DUP2 SWAP5 POP POP POP DUP4 MLOAD PUSH8 0xFFFFFFFFFFFFFFFF DUP2 GT DUP1 ISZERO PUSH2 0x1216 JUMPI PUSH1 0x0 DUP1 REVERT JUMPDEST POP PUSH1 0x40 MLOAD SWAP1 DUP1 DUP3 MSTORE DUP1 PUSH1 0x20 MUL PUSH1 0x20 ADD DUP3 ADD PUSH1 0x40 MSTORE DUP1 ISZERO PUSH2 0x1245 JUMPI DUP2 PUSH1 0x20 ADD PUSH1 0x20 DUP3 MUL DUP1 CALLDATASIZE DUP4 CALLDATACOPY DUP1 DUP3 ADD SWAP2 POP POP SWAP1 POP JUMPDEST POP SWAP1 POP PUSH1 0x0 JUMPDEST DUP2 MLOAD DUP2 LT ISZERO PUSH2 0x1342 JUMPI DUP4 PUSH20 0xFFFFFFFFFFFFFFFFFFFFFFFFFFFFFFFFFFFFFFFF AND PUSH4 0x7F9C0ECD PUSH3 0x493E0 DUP6 DUP9 DUP6 DUP2 MLOAD DUP2 LT PUSH2 0x1281 JUMPI INVALID JUMPDEST PUSH1 0x20 MUL PUSH1 0x20 ADD ADD MLOAD PUSH1 0x40 MLOAD DUP5 PUSH4 0xFFFFFFFF AND PUSH1 0xE0 SHL DUP2 MSTORE PUSH1 0x4 ADD PUSH2 0x12A6 SWAP3 SWAP2 SWAP1 PUSH2 0xC45F JUMP JUMPDEST PUSH1 0x20 PUSH1 0x40 MLOAD DUP1 DUP4 SUB DUP2 DUP8 DUP1 EXTCODESIZE ISZERO DUP1 ISZERO PUSH2 0x12BE JUMPI PUSH1 0x0 DUP1 REVERT JUMPDEST POP DUP7 STATICCALL SWAP4 POP POP POP POP DUP1 ISZERO PUSH2 0x12F0 JUMPI POP PUSH1 0x40 MLOAD RETURNDATASIZE PUSH1 0x1F NOT PUSH1 0x1F DUP3 ADD AND DUP3 ADD DUP1 PUSH1 0x40 MSTORE POP DUP2 ADD SWAP1 PUSH2 0x12ED SWAP2 SWAP1 PUSH2 0xBD27 JUMP JUMPDEST PUSH1 0x1 JUMPDEST PUSH2 0x12F9 JUMPI PUSH2 0x1342 JUMP JUMPDEST DUP1 DUP4 DUP4 DUP2 MLOAD DUP2 LT PUSH2 0x1306 JUMPI INVALID JUMPDEST PUSH1 0x20 MUL PUSH1 0x20 ADD ADD DUP2 DUP2 MSTORE POP POP PUSH1 0x0 DUP4 DUP4 DUP2 MLOAD DUP2 LT PUSH2 0x1320 JUMPI INVALID JUMPDEST PUSH1 0x20 MUL PUSH1 0x20 ADD ADD MLOAD EQ ISZERO PUSH2 0x1334 JUMPI POP PUSH2 0x1342 JUMP JUMPDEST POP DUP1 DUP1 PUSH1 0x1 ADD SWAP2 POP POP PUSH2 0x124B JUMP JUMPDEST POP JUMPDEST SWAP5 POP SWAP5 POP SWAP5 SWAP2 POP POP JUMP JUMPDEST PUSH1 0x0 DUP1 DUP3 EXTCODESIZE SWAP1 POP PUSH1 0x0 DUP2 GT SWAP2 POP POP SWAP2 SWAP1 POP JUMP JUMPDEST PUSH1 0x1 PUSH1 0x0 SWAP1 SLOAD SWAP1 PUSH2 0x100 EXP SWAP1 DIV PUSH20 0xFFFFFFFFFFFFFFFFFFFFFFFFFFFFFFFFFFFFFFFF AND DUP2 JUMP JUMPDEST PUSH1 0x60 PUSH2 0x1393 DUP4 DUP6 PUSH2 0x72EB JUMP JUMPDEST PUSH1 0x0 DUP6 PUSH1 0x20 ADD MLOAD SWAP1 POP PUSH1 0x60 PUSH1 0x2 PUSH8 0xFFFFFFFFFFFFFFFF DUP2 GT DUP1 ISZERO PUSH2 0x13B6 JUMPI PUSH1 0x0 DUP1 REVERT JUMPDEST POP PUSH1 0x40 MLOAD SWAP1 DUP1 DUP3 MSTORE DUP1 PUSH1 0x20 MUL PUSH1 0x20 ADD DUP3 ADD PUSH1 0x40 MSTORE DUP1 ISZERO PUSH2 0x13E5 JUMPI DUP2 PUSH1 0x20 ADD PUSH1 0x20 DUP3 MUL DUP1 CALLDATASIZE DUP4 CALLDATACOPY DUP1 DUP3 ADD SWAP2 POP POP SWAP1 POP JUMPDEST POP SWAP1 POP DUP6 DUP2 PUSH1 0x0 DUP2 MLOAD DUP2 LT PUSH2 0x13F6 JUMPI INVALID JUMPDEST PUSH1 0x20 MUL PUSH1 0x20 ADD ADD SWAP1 PUSH20 0xFFFFFFFFFFFFFFFFFFFFFFFFFFFFFFFFFFFFFFFF AND SWAP1 DUP2 PUSH20 0xFFFFFFFFFFFFFFFFFFFFFFFFFFFFFFFFFFFFFFFF AND DUP2 MSTORE POP POP DUP5 DUP2 PUSH1 0x1 DUP2 MLOAD DUP2 LT PUSH2 0x143E JUMPI INVALID JUMPDEST PUSH1 0x20 MUL PUSH1 0x20 ADD ADD SWAP1 PUSH20 0xFFFFFFFFFFFFFFFFFFFFFFFFFFFFFFFFFFFFFFFF AND SWAP1 DUP2 PUSH20 0xFFFFFFFFFFFFFFFFFFFFFFFFFFFFFFFFFFFFFFFF AND DUP2 MSTORE POP POP PUSH1 0x0 DUP5 MLOAD SWAP1 POP DUP1 PUSH8 0xFFFFFFFFFFFFFFFF DUP2 GT DUP1 ISZERO PUSH2 0x1495 JUMPI PUSH1 0x0 DUP1 REVERT JUMPDEST POP PUSH1 0x40 MLOAD SWAP1 DUP1 DUP3 MSTORE DUP1 PUSH1 0x20 MUL PUSH1 0x20 ADD DUP3 ADD PUSH1 0x40 MSTORE DUP1 ISZERO PUSH2 0x14C4 JUMPI DUP2 PUSH1 0x20 ADD PUSH1 0x20 DUP3 MUL DUP1 CALLDATASIZE DUP4 CALLDATACOPY DUP1 DUP3 ADD SWAP2 POP POP SWAP1 POP JUMPDEST POP SWAP4 POP PUSH2 0x14CF PUSH2 0xA1D4 JUMP JUMPDEST PUSH2 0x14D7 PUSH2 0x735E JUMP JUMPDEST SWAP1 POP PUSH1 0x0 JUMPDEST DUP3 DUP2 LT ISZERO PUSH2 0x1646 JUMPI PUSH1 0x60 PUSH2 0x1503 DUP12 DUP10 DUP5 DUP2 MLOAD DUP2 LT PUSH2 0x14F6 JUMPI INVALID JUMPDEST PUSH1 0x20 MUL PUSH1 0x20 ADD ADD MLOAD PUSH2 0x73BE JUMP JUMPDEST SWAP1 POP DUP6 PUSH20 0xFFFFFFFFFFFFFFFFFFFFFFFFFFFFFFFFFFFFFFFF AND PUSH4 0xF84D066E PUSH1 0x0 DUP4 DUP9 DUP8 PUSH1 0x40 MLOAD DUP6 PUSH4 0xFFFFFFFF AND PUSH1 0xE0 SHL DUP2 MSTORE PUSH1 0x4 ADD PUSH2 0x1545 SWAP5 SWAP4 SWAP3 SWAP2 SWAP1 PUSH2 0xC796 JUMP JUMPDEST PUSH1 0x0 PUSH1 0x40 MLOAD DUP1 DUP4 SUB DUP2 PUSH1 0x0 DUP8 DUP1 EXTCODESIZE ISZERO DUP1 ISZERO PUSH2 0x155F JUMPI PUSH1 0x0 DUP1 REVERT JUMPDEST POP GAS CALL SWAP3 POP POP POP DUP1 ISZERO PUSH2 0x1595 JUMPI POP PUSH1 0x40 MLOAD RETURNDATASIZE PUSH1 0x0 DUP3 RETURNDATACOPY RETURNDATASIZE PUSH1 0x1F NOT PUSH1 0x1F DUP3 ADD AND DUP3 ADD DUP1 PUSH1 0x40 MSTORE POP DUP2 ADD SWAP1 PUSH2 0x1592 SWAP2 SWAP1 PUSH2 0xB385 JUMP JUMPDEST PUSH1 0x1 JUMPDEST PUSH2 0x15D2 JUMPI RETURNDATASIZE DUP1 PUSH1 0x0 DUP2 EQ PUSH2 0x15C5 JUMPI PUSH1 0x40 MLOAD SWAP2 POP PUSH1 0x1F NOT PUSH1 0x3F RETURNDATASIZE ADD AND DUP3 ADD PUSH1 0x40 MSTORE RETURNDATASIZE DUP3 MSTORE RETURNDATASIZE PUSH1 0x0 PUSH1 0x20 DUP5 ADD RETURNDATACOPY PUSH2 0x15CA JUMP JUMPDEST PUSH1 0x60 SWAP2 POP JUMPDEST POP POP POP PUSH2 0x1646 JUMP JUMPDEST PUSH1 0x0 PUSH32 0xFFFFFFFFFFFFFFFFFFFFFFFFFFFFFFFFFFFFFFFFFFFFFFFFFFFFFFFFFFFFFFFF DUP3 PUSH1 0x1 DUP2 MLOAD DUP2 LT PUSH2 0x1602 JUMPI INVALID JUMPDEST PUSH1 0x20 MUL PUSH1 0x20 ADD ADD MLOAD MUL SWAP1 POP PUSH1 0x0 DUP2 SGT PUSH2 0x161D JUMPI POP POP POP PUSH2 0x1646 JUMP JUMPDEST DUP1 DUP10 DUP6 DUP2 MLOAD DUP2 LT PUSH2 0x162A JUMPI INVALID JUMPDEST PUSH1 0x20 MUL PUSH1 0x20 ADD ADD DUP2 DUP2 MSTORE POP POP POP POP POP DUP1 DUP1 PUSH1 0x1 ADD SWAP2 POP POP PUSH2 0x14DC JUMP JUMPDEST POP POP POP POP POP SWAP5 SWAP4 POP POP POP POP JUMP JUMPDEST PUSH1 0x60 PUSH2 0x165F DUP4 DUP6 PUSH2 0x72EB JUMP JUMPDEST PUSH1 0x0 DUP3 MLOAD SWAP1 POP DUP1 PUSH8 0xFFFFFFFFFFFFFFFF DUP2 GT DUP1 ISZERO PUSH2 0x167C JUMPI PUSH1 0x0 DUP1 REVERT JUMPDEST POP PUSH1 0x40 MLOAD SWAP1 DUP1 DUP3 MSTORE DUP1 PUSH1 0x20 MUL PUSH1 0x20 ADD DUP3 ADD PUSH1 0x40 MSTORE DUP1 ISZERO PUSH2 0x16AB JUMPI DUP2 PUSH1 0x20 ADD PUSH1 0x20 DUP3 MUL DUP1 CALLDATASIZE DUP4 CALLDATACOPY DUP1 DUP3 ADD SWAP2 POP POP SWAP1 POP JUMPDEST POP SWAP2 POP PUSH1 0x0 DUP1 PUSH20 0xFFFFFFFFFFFFFFFFFFFFFFFFFFFFFFFFFFFFFFFF AND DUP7 PUSH20 0xFFFFFFFFFFFFFFFFFFFFFFFFFFFFFFFFFFFFFFFF AND EQ PUSH2 0x16F2 JUMPI PUSH2 0x16ED DUP8 DUP8 PUSH2 0x7474 JUMP JUMPDEST PUSH2 0x16F5 JUMP JUMPDEST PUSH1 0x0 JUMPDEST SWAP1 POP PUSH1 0x0 DUP1 PUSH20 0xFFFFFFFFFFFFFFFFFFFFFFFFFFFFFFFFFFFFFFFF AND DUP7 PUSH20 0xFFFFFFFFFFFFFFFFFFFFFFFFFFFFFFFFFFFFFFFF AND EQ PUSH2 0x173B JUMPI PUSH2 0x1736 DUP9 DUP8 PUSH2 0x7474 JUMP JUMPDEST PUSH2 0x173E JUMP JUMPDEST PUSH1 0x0 JUMPDEST SWAP1 POP PUSH1 0x0 JUMPDEST DUP4 DUP2 LT ISZERO PUSH2 0x1908 JUMPI PUSH1 0x0 PUSH1 0x1 SWAP1 POP PUSH1 0x0 PUSH20 0xFFFFFFFFFFFFFFFFFFFFFFFFFFFFFFFFFFFFFFFF AND DUP9 PUSH20 0xFFFFFFFFFFFFFFFFFFFFFFFFFFFFFFFFFFFFFFFF AND EQ ISZERO PUSH2 0x17CC JUMPI PUSH2 0x17AB DUP5 PUSH4 0x2640F62C PUSH1 0xE0 SHL DUP10 DUP6 DUP2 MLOAD DUP2 LT PUSH2 0x179E JUMPI INVALID JUMPDEST PUSH1 0x20 MUL PUSH1 0x20 ADD ADD MLOAD PUSH2 0x7507 JUMP JUMPDEST DUP8 DUP5 DUP2 MLOAD DUP2 LT PUSH2 0x17B7 JUMPI INVALID JUMPDEST PUSH1 0x20 MUL PUSH1 0x20 ADD ADD DUP2 SWAP4 POP DUP3 DUP2 MSTORE POP POP POP PUSH2 0x18CF JUMP JUMPDEST PUSH1 0x0 PUSH20 0xFFFFFFFFFFFFFFFFFFFFFFFFFFFFFFFFFFFFFFFF AND DUP10 PUSH20 0xFFFFFFFFFFFFFFFFFFFFFFFFFFFFFFFFFFFFFFFF AND EQ ISZERO PUSH2 0x1847 JUMPI PUSH2 0x1826 DUP4 PUSH4 0x59E94862 PUSH1 0xE0 SHL DUP10 DUP6 DUP2 MLOAD DUP2 LT PUSH2 0x1819 JUMPI INVALID JUMPDEST PUSH1 0x20 MUL PUSH1 0x20 ADD ADD MLOAD PUSH2 0x7507 JUMP JUMPDEST DUP8 DUP5 DUP2 MLOAD DUP2 LT PUSH2 0x1832 JUMPI INVALID JUMPDEST PUSH1 0x20 MUL PUSH1 0x20 ADD ADD DUP2 SWAP4 POP DUP3 DUP2 MSTORE POP POP POP PUSH2 0x18CE JUMP JUMPDEST PUSH1 0x0 PUSH2 0x186E DUP5 PUSH4 0x59E94862 PUSH1 0xE0 SHL DUP11 DUP7 DUP2 MLOAD DUP2 LT PUSH2 0x1861 JUMPI INVALID JUMPDEST PUSH1 0x20 MUL PUSH1 0x20 ADD ADD MLOAD PUSH2 0x7507 JUMP JUMPDEST DUP1 SWAP4 POP DUP2 SWAP3 POP POP POP PUSH1 0x0 DUP2 EQ PUSH2 0x18B1 JUMPI PUSH2 0x1890 DUP6 PUSH4 0x2640F62C PUSH1 0xE0 SHL DUP4 PUSH2 0x7507 JUMP JUMPDEST DUP9 DUP6 DUP2 MLOAD DUP2 LT PUSH2 0x189C JUMPI INVALID JUMPDEST PUSH1 0x20 MUL PUSH1 0x20 ADD ADD DUP2 SWAP5 POP DUP3 DUP2 MSTORE POP POP POP PUSH2 0x18CC JUMP JUMPDEST PUSH1 0x0 DUP8 DUP5 DUP2 MLOAD DUP2 LT PUSH2 0x18BF JUMPI INVALID JUMPDEST PUSH1 0x20 MUL PUSH1 0x20 ADD ADD DUP2 DUP2 MSTORE POP POP JUMPDEST POP JUMPDEST JUMPDEST DUP1 ISZERO DUP1 PUSH2 0x18EF JUMPI POP PUSH1 0x0 DUP7 DUP4 DUP2 MLOAD DUP2 LT PUSH2 0x18E5 JUMPI INVALID JUMPDEST PUSH1 0x20 MUL PUSH1 0x20 ADD ADD MLOAD EQ JUMPDEST ISZERO PUSH2 0x18FA JUMPI POP PUSH2 0x1908 JUMP JUMPDEST POP DUP1 DUP1 PUSH1 0x1 ADD SWAP2 POP POP PUSH2 0x1743 JUMP JUMPDEST POP POP POP POP SWAP5 SWAP4 POP POP POP POP JUMP JUMPDEST PUSH1 0x0 DUP1 SLOAD SWAP1 PUSH2 0x100 EXP SWAP1 DIV PUSH20 0xFFFFFFFFFFFFFFFFFFFFFFFFFFFFFFFFFFFFFFFF AND DUP2 JUMP JUMPDEST PUSH1 0x60 PUSH2 0x1944 DUP4 DUP6 PUSH2 0x72EB JUMP JUMPDEST PUSH1 0x0 DUP6 PUSH1 0x0 ADD MLOAD SWAP1 POP PUSH1 0x0 DUP2 PUSH20 0xFFFFFFFFFFFFFFFFFFFFFFFFFFFFFFFFFFFFFFFF AND PUSH4 0x36569E77 PUSH1 0x40 MLOAD DUP2 PUSH4 0xFFFFFFFF AND PUSH1 0xE0 SHL DUP2 MSTORE PUSH1 0x4 ADD PUSH1 0x20 PUSH1 0x40 MLOAD DUP1 DUP4 SUB DUP2 DUP7 DUP1 EXTCODESIZE ISZERO DUP1 ISZERO PUSH2 0x1995 JUMPI PUSH1 0x0 DUP1 REVERT JUMPDEST POP GAS STATICCALL ISZERO DUP1 ISZERO PUSH2 0x19A9 JUMPI RETURNDATASIZE PUSH1 0x0 DUP1 RETURNDATACOPY RETURNDATASIZE PUSH1 0x0 REVERT JUMPDEST POP POP POP POP PUSH1 0x40 MLOAD RETURNDATASIZE PUSH1 0x1F NOT PUSH1 0x1F DUP3 ADD AND DUP3 ADD DUP1 PUSH1 0x40 MSTORE POP DUP2 ADD SWAP1 PUSH2 0x19CD SWAP2 SWAP1 PUSH2 0xABCB JUMP JUMPDEST SWAP1 POP PUSH1 0x0 DUP5 MLOAD SWAP1 POP DUP1 PUSH8 0xFFFFFFFFFFFFFFFF DUP2 GT DUP1 ISZERO PUSH2 0x19EC JUMPI PUSH1 0x0 DUP1 REVERT JUMPDEST POP PUSH1 0x40 MLOAD SWAP1 DUP1 DUP3 MSTORE DUP1 PUSH1 0x20 MUL PUSH1 0x20 ADD DUP3 ADD PUSH1 0x40 MSTORE DUP1 ISZERO PUSH2 0x1A1B JUMPI DUP2 PUSH1 0x20 ADD PUSH1 0x20 DUP3 MUL DUP1 CALLDATASIZE DUP4 CALLDATACOPY DUP1 DUP3 ADD SWAP2 POP POP SWAP1 POP JUMPDEST POP SWAP4 POP DUP3 PUSH20 0xFFFFFFFFFFFFFFFFFFFFFFFFFFFFFFFFFFFFFFFF AND PUSH4 0xF4B9FA75 PUSH1 0x40 MLOAD DUP2 PUSH4 0xFFFFFFFF AND PUSH1 0xE0 SHL DUP2 MSTORE PUSH1 0x4 ADD PUSH1 0x20 PUSH1 0x40 MLOAD DUP1 DUP4 SUB DUP2 DUP7 DUP1 EXTCODESIZE ISZERO DUP1 ISZERO PUSH2 0x1A64 JUMPI PUSH1 0x0 DUP1 REVERT JUMPDEST POP GAS STATICCALL ISZERO DUP1 ISZERO PUSH2 0x1A78 JUMPI RETURNDATASIZE PUSH1 0x0 DUP1 RETURNDATACOPY RETURNDATASIZE PUSH1 0x0 REVERT JUMPDEST POP POP POP POP PUSH1 0x40 MLOAD RETURNDATASIZE PUSH1 0x1F NOT PUSH1 0x1F DUP3 ADD AND DUP3 ADD DUP1 PUSH1 0x40 MSTORE POP DUP2 ADD SWAP1 PUSH2 0x1A9C SWAP2 SWAP1 PUSH2 0xABCB JUMP JUMPDEST PUSH20 0xFFFFFFFFFFFFFFFFFFFFFFFFFFFFFFFFFFFFFFFF AND DUP7 PUSH20 0xFFFFFFFFFFFFFFFFFFFFFFFFFFFFFFFFFFFFFFFF AND EQ ISZERO DUP1 ISZERO PUSH2 0x1B80 JUMPI POP DUP3 PUSH20 0xFFFFFFFFFFFFFFFFFFFFFFFFFFFFFFFFFFFFFFFF AND PUSH4 0xF4B9FA75 PUSH1 0x40 MLOAD DUP2 PUSH4 0xFFFFFFFF AND PUSH1 0xE0 SHL DUP2 MSTORE PUSH1 0x4 ADD PUSH1 0x20 PUSH1 0x40 MLOAD DUP1 DUP4 SUB DUP2 DUP7 DUP1 EXTCODESIZE ISZERO DUP1 ISZERO PUSH2 0x1B18 JUMPI PUSH1 0x0 DUP1 REVERT JUMPDEST POP GAS STATICCALL ISZERO DUP1 ISZERO PUSH2 0x1B2C JUMPI RETURNDATASIZE PUSH1 0x0 DUP1 RETURNDATACOPY RETURNDATASIZE PUSH1 0x0 REVERT JUMPDEST POP POP POP POP PUSH1 0x40 MLOAD RETURNDATASIZE PUSH1 0x1F NOT PUSH1 0x1F DUP3 ADD AND DUP3 ADD DUP1 PUSH1 0x40 MSTORE POP DUP2 ADD SWAP1 PUSH2 0x1B50 SWAP2 SWAP1 PUSH2 0xABCB JUMP JUMPDEST PUSH20 0xFFFFFFFFFFFFFFFFFFFFFFFFFFFFFFFFFFFFFFFF AND DUP8 PUSH20 0xFFFFFFFFFFFFFFFFFFFFFFFFFFFFFFFFFFFFFFFF AND EQ ISZERO JUMPDEST ISZERO PUSH2 0x1B8D JUMPI POP POP POP PUSH2 0x1BF8 JUMP JUMPDEST PUSH1 0x0 JUMPDEST DUP2 DUP2 LT ISZERO PUSH2 0x1BF3 JUMPI PUSH1 0x0 PUSH2 0x1BBB DUP11 DUP10 DUP12 DUP11 DUP7 DUP2 MLOAD DUP2 LT PUSH2 0x1BAC JUMPI INVALID JUMPDEST PUSH1 0x20 MUL PUSH1 0x20 ADD ADD MLOAD DUP10 DUP10 PUSH2 0x764E JUMP JUMPDEST SWAP1 POP PUSH1 0x0 DUP2 EQ ISZERO PUSH2 0x1BCC JUMPI POP PUSH2 0x1BF3 JUMP JUMPDEST DUP1 DUP7 DUP4 DUP2 MLOAD DUP2 LT PUSH2 0x1BD9 JUMPI INVALID JUMPDEST PUSH1 0x20 MUL PUSH1 0x20 ADD ADD DUP2 DUP2 MSTORE POP POP POP DUP1 DUP1 PUSH1 0x1 ADD SWAP2 POP POP PUSH2 0x1B90 JUMP JUMPDEST POP POP POP POP JUMPDEST SWAP5 SWAP4 POP POP POP POP JUMP JUMPDEST PUSH1 0x60 PUSH2 0x1C6A PUSH1 0x40 MLOAD DUP1 PUSH1 0x60 ADD PUSH1 0x40 MSTORE DUP1 DUP6 DUP9 PUSH1 0x40 MLOAD PUSH1 0x20 ADD PUSH2 0x1C23 SWAP3 SWAP2 SWAP1 PUSH2 0xC8A9 JUMP JUMPDEST PUSH1 0x40 MLOAD PUSH1 0x20 DUP2 DUP4 SUB SUB DUP2 MSTORE SWAP1 PUSH1 0x40 MSTORE DUP2 MSTORE PUSH1 0x20 ADD DUP7 DUP9 PUSH1 0x40 MLOAD PUSH1 0x20 ADD PUSH2 0x1C4A SWAP3 SWAP2 SWAP1 PUSH2 0xC8A9 JUMP JUMPDEST PUSH1 0x40 MLOAD PUSH1 0x20 DUP2 DUP4 SUB SUB DUP2 MSTORE SWAP1 PUSH1 0x40 MSTORE DUP2 MSTORE PUSH1 0x20 ADD PUSH2 0x79EB DUP2 MSTORE POP DUP4 PUSH2 0x7B61 JUMP JUMPDEST SWAP1 POP SWAP5 SWAP4 POP POP POP POP JUMP JUMPDEST PUSH1 0x0 DUP1 PUSH1 0x60 PUSH2 0x1C83 DUP6 DUP8 PUSH2 0x72EB JUMP JUMPDEST PUSH1 0x0 DUP5 MLOAD SWAP1 POP DUP1 PUSH8 0xFFFFFFFFFFFFFFFF DUP2 GT DUP1 ISZERO PUSH2 0x1CA0 JUMPI PUSH1 0x0 DUP1 REVERT JUMPDEST POP PUSH1 0x40 MLOAD SWAP1 DUP1 DUP3 MSTORE DUP1 PUSH1 0x20 MUL PUSH1 0x20 ADD DUP3 ADD PUSH1 0x40 MSTORE DUP1 ISZERO PUSH2 0x1CCF JUMPI DUP2 PUSH1 0x20 ADD PUSH1 0x20 DUP3 MUL DUP1 CALLDATASIZE DUP4 CALLDATACOPY DUP1 DUP3 ADD SWAP2 POP POP SWAP1 POP JUMPDEST POP SWAP2 POP DUP8 PUSH1 0x0 ADD MLOAD PUSH20 0xFFFFFFFFFFFFFFFFFFFFFFFFFFFFFFFFFFFFFFFF AND PUSH4 0x1273B0C6 DUP9 DUP9 PUSH1 0x40 MLOAD DUP4 PUSH4 0xFFFFFFFF AND PUSH1 0xE0 SHL DUP2 MSTORE PUSH1 0x4 ADD PUSH2 0x1D11 SWAP3 SWAP2 SWAP1 PUSH2 0xC0F3 JUMP JUMPDEST PUSH1 0x20 PUSH1 0x40 MLOAD DUP1 DUP4 SUB DUP2 DUP7 DUP1 EXTCODESIZE ISZERO DUP1 ISZERO PUSH2 0x1D29 JUMPI PUSH1 0x0 DUP1 REVERT JUMPDEST POP GAS STATICCALL ISZERO DUP1 ISZERO PUSH2 0x1D3D JUMPI RETURNDATASIZE PUSH1 0x0 DUP1 RETURNDATACOPY RETURNDATASIZE PUSH1 0x0 REVERT JUMPDEST POP POP POP POP PUSH1 0x40 MLOAD RETURNDATASIZE PUSH1 0x1F NOT PUSH1 0x1F DUP3 ADD AND DUP3 ADD DUP1 PUSH1 0x40 MSTORE POP DUP2 ADD SWAP1 PUSH2 0x1D61 SWAP2 SWAP1 PUSH2 0xABCB JUMP JUMPDEST SWAP3 POP PUSH1 0x0 DUP1 PUSH20 0xFFFFFFFFFFFFFFFFFFFFFFFFFFFFFFFFFFFFFFFF AND DUP5 PUSH20 0xFFFFFFFFFFFFFFFFFFFFFFFFFFFFFFFFFFFFFFFF AND EQ PUSH2 0x1DA4 JUMPI DUP8 SWAP1 POP PUSH1 0x1 SWAP5 POP PUSH2 0x1E79 JUMP JUMPDEST DUP9 PUSH1 0x0 ADD MLOAD PUSH20 0xFFFFFFFFFFFFFFFFFFFFFFFFFFFFFFFFFFFFFFFF AND PUSH4 0x1273B0C6 DUP9 DUP11 PUSH1 0x40 MLOAD DUP4 PUSH4 0xFFFFFFFF AND PUSH1 0xE0 SHL DUP2 MSTORE PUSH1 0x4 ADD PUSH2 0x1DE3 SWAP3 SWAP2 SWAP1 PUSH2 0xC0F3 JUMP JUMPDEST PUSH1 0x20 PUSH1 0x40 MLOAD DUP1 DUP4 SUB DUP2 DUP7 DUP1 EXTCODESIZE ISZERO DUP1 ISZERO PUSH2 0x1DFB JUMPI PUSH1 0x0 DUP1 REVERT JUMPDEST POP GAS STATICCALL ISZERO DUP1 ISZERO PUSH2 0x1E0F JUMPI RETURNDATASIZE PUSH1 0x0 DUP1 RETURNDATACOPY RETURNDATASIZE PUSH1 0x0 REVERT JUMPDEST POP POP POP POP PUSH1 0x40 MLOAD RETURNDATASIZE PUSH1 0x1F NOT PUSH1 0x1F DUP3 ADD AND DUP3 ADD DUP1 PUSH1 0x40 MSTORE POP DUP2 ADD SWAP1 PUSH2 0x1E33 SWAP2 SWAP1 PUSH2 0xABCB JUMP JUMPDEST SWAP4 POP PUSH1 0x0 PUSH20 0xFFFFFFFFFFFFFFFFFFFFFFFFFFFFFFFFFFFFFFFF AND DUP5 PUSH20 0xFFFFFFFFFFFFFFFFFFFFFFFFFFFFFFFFFFFFFFFF AND EQ ISZERO PUSH2 0x1E71 JUMPI POP POP PUSH2 0x1FCE JUMP JUMPDEST DUP7 SWAP1 POP PUSH1 0x0 SWAP5 POP JUMPDEST DUP4 PUSH20 0xFFFFFFFFFFFFFFFFFFFFFFFFFFFFFFFFFFFFFFFF AND PUSH4 0xDD58B41C PUSH1 0x40 MLOAD DUP2 PUSH4 0xFFFFFFFF AND PUSH1 0xE0 SHL DUP2 MSTORE PUSH1 0x4 ADD PUSH1 0x20 PUSH1 0x40 MLOAD DUP1 DUP4 SUB DUP2 DUP7 DUP1 EXTCODESIZE ISZERO DUP1 ISZERO PUSH2 0x1EBF JUMPI PUSH1 0x0 DUP1 REVERT JUMPDEST POP GAS STATICCALL ISZERO DUP1 ISZERO PUSH2 0x1ED3 JUMPI RETURNDATASIZE PUSH1 0x0 DUP1 RETURNDATACOPY RETURNDATASIZE PUSH1 0x0 REVERT JUMPDEST POP POP POP POP PUSH1 0x40 MLOAD RETURNDATASIZE PUSH1 0x1F NOT PUSH1 0x1F DUP3 ADD AND DUP3 ADD DUP1 PUSH1 0x40 MSTORE POP DUP2 ADD SWAP1 PUSH2 0x1EF7 SWAP2 SWAP1 PUSH2 0xB543 JUMP JUMPDEST PUSH2 0x1F02 JUMPI POP POP PUSH2 0x1FCE JUMP JUMPDEST PUSH1 0x0 JUMPDEST DUP3 DUP2 LT ISZERO PUSH2 0x1FCA JUMPI PUSH1 0x0 PUSH2 0x1F7F DUP11 DUP8 DUP6 DUP15 PUSH1 0x20 ADD MLOAD PUSH1 0x40 MLOAD PUSH1 0x20 ADD PUSH2 0x1F2D SWAP5 SWAP4 SWAP3 SWAP2 SWAP1 PUSH2 0xC117 JUMP JUMPDEST PUSH1 0x40 MLOAD PUSH1 0x20 DUP2 DUP4 SUB SUB DUP2 MSTORE SWAP1 PUSH1 0x40 MSTORE DUP11 DUP9 DUP7 DUP16 PUSH1 0x20 ADD MLOAD PUSH1 0x40 MLOAD PUSH1 0x20 ADD PUSH2 0x1F57 SWAP5 SWAP4 SWAP3 SWAP2 SWAP1 PUSH2 0xC117 JUMP JUMPDEST PUSH1 0x40 MLOAD PUSH1 0x20 DUP2 DUP4 SUB SUB DUP2 MSTORE SWAP1 PUSH1 0x40 MSTORE DUP11 DUP6 DUP2 MLOAD DUP2 LT PUSH2 0x1F72 JUMPI INVALID JUMPDEST PUSH1 0x20 MUL PUSH1 0x20 ADD ADD MLOAD PUSH2 0x7D87 JUMP JUMPDEST SWAP1 POP DUP1 DUP6 DUP4 DUP2 MLOAD DUP2 LT PUSH2 0x1F8E JUMPI INVALID JUMPDEST PUSH1 0x20 MUL PUSH1 0x20 ADD ADD DUP2 DUP2 MSTORE POP POP PUSH1 0x0 DUP6 DUP4 DUP2 MLOAD DUP2 LT PUSH2 0x1FA8 JUMPI INVALID JUMPDEST PUSH1 0x20 MUL PUSH1 0x20 ADD ADD MLOAD EQ ISZERO PUSH2 0x1FBC JUMPI POP PUSH2 0x1FCA JUMP JUMPDEST POP DUP1 DUP1 PUSH1 0x1 ADD SWAP2 POP POP PUSH2 0x1F05 JUMP JUMPDEST POP POP POP JUMPDEST SWAP5 POP SWAP5 POP SWAP5 SWAP2 POP POP JUMP JUMPDEST PUSH1 0x60 PUSH1 0x0 DUP3 MLOAD SWAP1 POP DUP1 PUSH8 0xFFFFFFFFFFFFFFFF DUP2 GT DUP1 ISZERO PUSH2 0x1FF7 JUMPI PUSH1 0x0 DUP1 REVERT JUMPDEST POP PUSH1 0x40 MLOAD SWAP1 DUP1 DUP3 MSTORE DUP1 PUSH1 0x20 MUL PUSH1 0x20 ADD DUP3 ADD PUSH1 0x40 MSTORE DUP1 ISZERO PUSH2 0x2026 JUMPI DUP2 PUSH1 0x20 ADD PUSH1 0x20 DUP3 MUL DUP1 CALLDATASIZE DUP4 CALLDATACOPY DUP1 DUP3 ADD SWAP2 POP POP SWAP1 POP JUMPDEST POP SWAP2 POP PUSH1 0x0 PUSH20 0xFFFFFFFFFFFFFFFFFFFFFFFFFFFFFFFFFFFFFFFF AND DUP8 PUSH20 0xFFFFFFFFFFFFFFFFFFFFFFFFFFFFFFFFFFFFFFFF AND EQ ISZERO PUSH2 0x2064 JUMPI POP PUSH2 0x21CC JUMP JUMPDEST PUSH1 0x0 JUMPDEST DUP2 DUP2 LT ISZERO PUSH2 0x21C9 JUMPI PUSH1 0x0 PUSH1 0x60 DUP10 PUSH20 0xFFFFFFFFFFFFFFFFFFFFFFFFFFFFFFFFFFFFFFFF AND PUSH3 0x61A80 PUSH4 0x6E79E133 PUSH1 0xE0 SHL DUP12 DUP12 DUP12 DUP12 DUP10 DUP2 MLOAD DUP2 LT PUSH2 0x20A5 JUMPI INVALID JUMPDEST PUSH1 0x20 MUL PUSH1 0x20 ADD ADD MLOAD PUSH1 0x40 MLOAD PUSH1 0x24 ADD PUSH2 0x20C0 SWAP5 SWAP4 SWAP3 SWAP2 SWAP1 PUSH2 0xC18B JUMP JUMPDEST PUSH1 0x40 MLOAD PUSH1 0x20 DUP2 DUP4 SUB SUB DUP2 MSTORE SWAP1 PUSH1 0x40 MSTORE SWAP1 PUSH28 0xFFFFFFFFFFFFFFFFFFFFFFFFFFFFFFFFFFFFFFFFFFFFFFFFFFFFFFFF NOT AND PUSH1 0x20 DUP3 ADD DUP1 MLOAD PUSH28 0xFFFFFFFFFFFFFFFFFFFFFFFFFFFFFFFFFFFFFFFFFFFFFFFFFFFFFFFF DUP4 DUP2 DUP4 AND OR DUP4 MSTORE POP POP POP POP PUSH1 0x40 MLOAD PUSH2 0x212A SWAP2 SWAP1 PUSH2 0xC083 JUMP JUMPDEST PUSH1 0x0 PUSH1 0x40 MLOAD DUP1 DUP4 SUB DUP2 DUP7 DUP7 STATICCALL SWAP3 POP POP POP RETURNDATASIZE DUP1 PUSH1 0x0 DUP2 EQ PUSH2 0x2166 JUMPI PUSH1 0x40 MLOAD SWAP2 POP PUSH1 0x1F NOT PUSH1 0x3F RETURNDATASIZE ADD AND DUP3 ADD PUSH1 0x40 MSTORE RETURNDATASIZE DUP3 MSTORE RETURNDATASIZE PUSH1 0x0 PUSH1 0x20 DUP5 ADD RETURNDATACOPY PUSH2 0x216B JUMP JUMPDEST PUSH1 0x60 SWAP2 POP JUMPDEST POP SWAP2 POP SWAP2 POP PUSH1 0x0 DUP3 ISZERO PUSH2 0x218F JUMPI DUP2 DUP1 PUSH1 0x20 ADD SWAP1 MLOAD DUP2 ADD SWAP1 PUSH2 0x218C SWAP2 SWAP1 PUSH2 0xBD27 JUMP JUMPDEST SWAP1 POP JUMPDEST PUSH1 0x0 DUP2 EQ ISZERO PUSH2 0x21A0 JUMPI POP POP POP PUSH2 0x21C9 JUMP JUMPDEST DUP1 DUP7 DUP6 DUP2 MLOAD DUP2 LT PUSH2 0x21AD JUMPI INVALID JUMPDEST PUSH1 0x20 MUL PUSH1 0x20 ADD ADD DUP2 DUP2 MSTORE POP POP POP POP POP DUP1 DUP1 PUSH1 0x1 ADD SWAP2 POP POP PUSH2 0x2067 JUMP JUMPDEST POP POP JUMPDEST SWAP6 SWAP5 POP POP POP POP POP JUMP JUMPDEST PUSH1 0x60 PUSH1 0x0 DUP3 MLOAD SWAP1 POP DUP1 PUSH8 0xFFFFFFFFFFFFFFFF DUP2 GT DUP1 ISZERO PUSH2 0x21F4 JUMPI PUSH1 0x0 DUP1 REVERT JUMPDEST POP PUSH1 0x40 MLOAD SWAP1 DUP1 DUP3 MSTORE DUP1 PUSH1 0x20 MUL PUSH1 0x20 ADD DUP3 ADD PUSH1 0x40 MSTORE DUP1 ISZERO PUSH2 0x2223 JUMPI DUP2 PUSH1 0x20 ADD PUSH1 0x20 DUP3 MUL DUP1 CALLDATASIZE DUP4 CALLDATACOPY DUP1 DUP3 ADD SWAP2 POP POP SWAP1 POP JUMPDEST POP SWAP2 POP PUSH1 0x0 JUMPDEST DUP2 DUP2 LT ISZERO PUSH2 0x235D JUMPI DUP7 PUSH20 0xFFFFFFFFFFFFFFFFFFFFFFFFFFFFFFFFFFFFFFFF AND PUSH4 0x72EA9076 PUSH3 0xC3500 DUP9 DUP9 DUP9 DUP7 DUP2 MLOAD DUP2 LT PUSH2 0x225F JUMPI INVALID JUMPDEST PUSH1 0x20 MUL PUSH1 0x20 ADD ADD MLOAD PUSH1 0x40 MLOAD DUP6 PUSH4 0xFFFFFFFF AND PUSH1 0xE0 SHL DUP2 MSTORE PUSH1 0x4 ADD PUSH2 0x2285 SWAP4 SWAP3 SWAP2 SWAP1 PUSH2 0xC22A JUMP JUMPDEST PUSH1 0x0 PUSH1 0x40 MLOAD DUP1 DUP4 SUB DUP2 DUP8 DUP1 EXTCODESIZE ISZERO DUP1 ISZERO PUSH2 0x229D JUMPI PUSH1 0x0 DUP1 REVERT JUMPDEST POP DUP7 STATICCALL SWAP4 POP POP POP POP DUP1 ISZERO PUSH2 0x22D4 JUMPI POP PUSH1 0x40 MLOAD RETURNDATASIZE PUSH1 0x0 DUP3 RETURNDATACOPY RETURNDATASIZE PUSH1 0x1F NOT PUSH1 0x1F DUP3 ADD AND DUP3 ADD DUP1 PUSH1 0x40 MSTORE POP DUP2 ADD SWAP1 PUSH2 0x22D1 SWAP2 SWAP1 PUSH2 0xB569 JUMP JUMPDEST PUSH1 0x1 JUMPDEST PUSH2 0x2310 JUMPI RETURNDATASIZE DUP1 PUSH1 0x0 DUP2 EQ PUSH2 0x2304 JUMPI PUSH1 0x40 MLOAD SWAP2 POP PUSH1 0x1F NOT PUSH1 0x3F RETURNDATASIZE ADD AND DUP3 ADD PUSH1 0x40 MSTORE RETURNDATASIZE DUP3 MSTORE RETURNDATASIZE PUSH1 0x0 PUSH1 0x20 DUP5 ADD RETURNDATACOPY PUSH2 0x2309 JUMP JUMPDEST PUSH1 0x60 SWAP2 POP JUMPDEST POP POP PUSH2 0x235D JUMP JUMPDEST DUP1 DUP7 DUP6 DUP2 MLOAD DUP2 LT PUSH2 0x231D JUMPI INVALID JUMPDEST PUSH1 0x20 MUL PUSH1 0x20 ADD ADD DUP2 DUP2 MSTORE POP POP PUSH1 0x0 DUP7 DUP6 DUP2 MLOAD DUP2 LT PUSH2 0x2337 JUMPI INVALID JUMPDEST PUSH1 0x20 MUL PUSH1 0x20 ADD ADD MLOAD EQ ISZERO PUSH2 0x234D JUMPI POP POP POP PUSH2 0x235D JUMP JUMPDEST POP POP POP DUP1 DUP1 PUSH1 0x1 ADD SWAP2 POP POP PUSH2 0x2229 JUMP JUMPDEST POP POP SWAP5 SWAP4 POP POP POP POP JUMP JUMPDEST PUSH1 0x60 PUSH1 0x0 DUP3 MLOAD SWAP1 POP DUP1 PUSH8 0xFFFFFFFFFFFFFFFF DUP2 GT DUP1 ISZERO PUSH2 0x2386 JUMPI PUSH1 0x0 DUP1 REVERT JUMPDEST POP PUSH1 0x40 MLOAD SWAP1 DUP1 DUP3 MSTORE DUP1 PUSH1 0x20 MUL PUSH1 0x20 ADD DUP3 ADD PUSH1 0x40 MSTORE DUP1 ISZERO PUSH2 0x23B5 JUMPI DUP2 PUSH1 0x20 ADD PUSH1 0x20 DUP3 MUL DUP1 CALLDATASIZE DUP4 CALLDATACOPY DUP1 DUP3 ADD SWAP2 POP POP SWAP1 POP JUMPDEST POP SWAP2 POP PUSH1 0x0 JUMPDEST DUP2 DUP2 LT ISZERO PUSH2 0x2500 JUMPI DUP6 PUSH20 0xFFFFFFFFFFFFFFFFFFFFFFFFFFFFFFFFFFFFFFFF AND PUSH4 0xD06CA61F PUSH3 0x249F0 DUP7 DUP5 DUP2 MLOAD DUP2 LT PUSH2 0x23EF JUMPI INVALID JUMPDEST PUSH1 0x20 MUL PUSH1 0x20 ADD ADD MLOAD DUP9 PUSH1 0x40 MLOAD DUP5 PUSH4 0xFFFFFFFF AND PUSH1 0xE0 SHL DUP2 MSTORE PUSH1 0x4 ADD PUSH2 0x2415 SWAP3 SWAP2 SWAP1 PUSH2 0xCC2F JUMP JUMPDEST PUSH1 0x0 PUSH1 0x40 MLOAD DUP1 DUP4 SUB DUP2 DUP8 DUP1 EXTCODESIZE ISZERO DUP1 ISZERO PUSH2 0x242D JUMPI PUSH1 0x0 DUP1 REVERT JUMPDEST POP DUP7 STATICCALL SWAP4 POP POP POP POP DUP1 ISZERO PUSH2 0x2464 JUMPI POP PUSH1 0x40 MLOAD RETURNDATASIZE PUSH1 0x0 DUP3 RETURNDATACOPY RETURNDATASIZE PUSH1 0x1F NOT PUSH1 0x1F DUP3 ADD AND DUP3 ADD DUP1 PUSH1 0x40 MSTORE POP DUP2 ADD SWAP1 PUSH2 0x2461 SWAP2 SWAP1 PUSH2 0xB507 JUMP JUMPDEST PUSH1 0x1 JUMPDEST PUSH2 0x24A0 JUMPI RETURNDATASIZE DUP1 PUSH1 0x0 DUP2 EQ PUSH2 0x2494 JUMPI PUSH1 0x40 MLOAD SWAP2 POP PUSH1 0x1F NOT PUSH1 0x3F RETURNDATASIZE ADD AND DUP3 ADD PUSH1 0x40 MSTORE RETURNDATASIZE DUP3 MSTORE RETURNDATASIZE PUSH1 0x0 PUSH1 0x20 DUP5 ADD RETURNDATACOPY PUSH2 0x2499 JUMP JUMPDEST PUSH1 0x60 SWAP2 POP JUMPDEST POP POP PUSH2 0x2500 JUMP JUMPDEST DUP1 PUSH1 0x1 DUP8 MLOAD SUB DUP2 MLOAD DUP2 LT PUSH2 0x24B0 JUMPI INVALID JUMPDEST PUSH1 0x20 MUL PUSH1 0x20 ADD ADD MLOAD DUP5 DUP4 DUP2 MLOAD DUP2 LT PUSH2 0x24C4 JUMPI INVALID JUMPDEST PUSH1 0x20 MUL PUSH1 0x20 ADD ADD DUP2 DUP2 MSTORE POP POP PUSH1 0x0 DUP5 DUP4 DUP2 MLOAD DUP2 LT PUSH2 0x24DE JUMPI INVALID JUMPDEST PUSH1 0x20 MUL PUSH1 0x20 ADD ADD MLOAD EQ ISZERO PUSH2 0x24F2 JUMPI POP PUSH2 0x2500 JUMP JUMPDEST POP DUP1 DUP1 PUSH1 0x1 ADD SWAP2 POP POP PUSH2 0x23BB JUMP JUMPDEST POP POP SWAP4 SWAP3 POP POP POP JUMP JUMPDEST PUSH1 0x0 DUP1 SLOAD SWAP1 PUSH2 0x100 EXP SWAP1 DIV PUSH20 0xFFFFFFFFFFFFFFFFFFFFFFFFFFFFFFFFFFFFFFFF AND PUSH20 0xFFFFFFFFFFFFFFFFFFFFFFFFFFFFFFFFFFFFFFFF AND PUSH4 0x31268657 DUP4 DUP4 PUSH1 0x40 MLOAD DUP4 PUSH4 0xFFFFFFFF AND PUSH1 0xE0 SHL DUP2 MSTORE PUSH1 0x4 ADD PUSH2 0x2564 SWAP3 SWAP2 SWAP1 PUSH2 0xC404 JUMP JUMPDEST PUSH1 0x0 PUSH1 0x40 MLOAD DUP1 DUP4 SUB DUP2 PUSH1 0x0 DUP8 DUP1 EXTCODESIZE ISZERO DUP1 ISZERO PUSH2 0x257E JUMPI PUSH1 0x0 DUP1 REVERT JUMPDEST POP GAS CALL ISZERO DUP1 ISZERO PUSH2 0x2592 JUMPI RETURNDATASIZE PUSH1 0x0 DUP1 RETURNDATACOPY RETURNDATASIZE PUSH1 0x0 REVERT JUMPDEST POP POP POP POP POP POP JUMP JUMPDEST PUSH1 0x60 PUSH1 0x0 DUP3 MLOAD SWAP1 POP DUP1 PUSH8 0xFFFFFFFFFFFFFFFF DUP2 GT DUP1 ISZERO PUSH2 0x25B9 JUMPI PUSH1 0x0 DUP1 REVERT JUMPDEST POP PUSH1 0x40 MLOAD SWAP1 DUP1 DUP3 MSTORE DUP1 PUSH1 0x20 MUL PUSH1 0x20 ADD DUP3 ADD PUSH1 0x40 MSTORE DUP1 ISZERO PUSH2 0x25E8 JUMPI DUP2 PUSH1 0x20 ADD PUSH1 0x20 DUP3 MUL DUP1 CALLDATASIZE DUP4 CALLDATACOPY DUP1 DUP3 ADD SWAP2 POP POP SWAP1 POP JUMPDEST POP SWAP2 POP PUSH1 0x0 JUMPDEST DUP2 DUP2 LT ISZERO PUSH2 0x2762 JUMPI PUSH1 0x0 PUSH1 0x60 DUP9 PUSH1 0x0 ADD MLOAD PUSH20 0xFFFFFFFFFFFFFFFFFFFFFFFFFFFFFFFFFFFFFFFF AND PUSH3 0x1E8480 DUP11 PUSH1 0x20 ADD MLOAD DUP11 DUP11 DUP11 DUP9 DUP2 MLOAD DUP2 LT PUSH2 0x262C JUMPI INVALID JUMPDEST PUSH1 0x20 MUL PUSH1 0x20 ADD ADD MLOAD PUSH1 0x40 MLOAD PUSH1 0x24 ADD PUSH2 0x2646 SWAP4 SWAP3 SWAP2 SWAP1 PUSH2 0xC862 JUMP JUMPDEST PUSH1 0x40 MLOAD PUSH1 0x20 DUP2 DUP4 SUB SUB DUP2 MSTORE SWAP1 PUSH1 0x40 MSTORE SWAP1 PUSH28 0xFFFFFFFFFFFFFFFFFFFFFFFFFFFFFFFFFFFFFFFFFFFFFFFFFFFFFFFF NOT AND PUSH1 0x20 DUP3 ADD DUP1 MLOAD PUSH28 0xFFFFFFFFFFFFFFFFFFFFFFFFFFFFFFFFFFFFFFFFFFFFFFFFFFFFFFFF DUP4 DUP2 DUP4 AND OR DUP4 MSTORE POP POP POP POP PUSH1 0x40 MLOAD PUSH2 0x26B0 SWAP2 SWAP1 PUSH2 0xC083 JUMP JUMPDEST PUSH1 0x0 PUSH1 0x40 MLOAD DUP1 DUP4 SUB DUP2 DUP7 DUP7 STATICCALL SWAP3 POP POP POP RETURNDATASIZE DUP1 PUSH1 0x0 DUP2 EQ PUSH2 0x26EC JUMPI PUSH1 0x40 MLOAD SWAP2 POP PUSH1 0x1F NOT PUSH1 0x3F RETURNDATASIZE ADD AND DUP3 ADD PUSH1 0x40 MSTORE RETURNDATASIZE DUP3 MSTORE RETURNDATASIZE PUSH1 0x0 PUSH1 0x20 DUP5 ADD RETURNDATACOPY PUSH2 0x26F1 JUMP JUMPDEST PUSH1 0x60 SWAP2 POP JUMPDEST POP SWAP2 POP SWAP2 POP PUSH1 0x0 DUP3 ISZERO PUSH2 0x2715 JUMPI DUP2 DUP1 PUSH1 0x20 ADD SWAP1 MLOAD DUP2 ADD SWAP1 PUSH2 0x2712 SWAP2 SWAP1 PUSH2 0xBD27 JUMP JUMPDEST SWAP1 POP JUMPDEST DUP1 DUP7 DUP6 DUP2 MLOAD DUP2 LT PUSH2 0x2722 JUMPI INVALID JUMPDEST PUSH1 0x20 MUL PUSH1 0x20 ADD ADD DUP2 DUP2 MSTORE POP POP PUSH1 0x0 DUP7 DUP6 DUP2 MLOAD DUP2 LT PUSH2 0x273C JUMPI INVALID JUMPDEST PUSH1 0x20 MUL PUSH1 0x20 ADD ADD MLOAD EQ ISZERO PUSH2 0x2752 JUMPI POP POP POP PUSH2 0x2762 JUMP JUMPDEST POP POP POP DUP1 DUP1 PUSH1 0x1 ADD SWAP2 POP POP PUSH2 0x25EE JUMP JUMPDEST POP POP SWAP5 SWAP4 POP POP POP POP JUMP JUMPDEST PUSH1 0x60 PUSH1 0x0 DUP6 PUSH1 0x20 ADD MLOAD SWAP1 POP PUSH1 0x60 PUSH1 0x1 PUSH8 0xFFFFFFFFFFFFFFFF DUP2 GT DUP1 ISZERO PUSH2 0x2791 JUMPI PUSH1 0x0 DUP1 REVERT JUMPDEST POP PUSH1 0x40 MLOAD SWAP1 DUP1 DUP3 MSTORE DUP1 PUSH1 0x20 MUL PUSH1 0x20 ADD DUP3 ADD PUSH1 0x40 MSTORE DUP1 ISZERO PUSH2 0x27C0 JUMPI DUP2 PUSH1 0x20 ADD PUSH1 0x20 DUP3 MUL DUP1 CALLDATASIZE DUP4 CALLDATACOPY DUP1 DUP3 ADD SWAP2 POP POP SWAP1 POP JUMPDEST POP SWAP1 POP DUP6 DUP2 PUSH1 0x0 DUP2 MLOAD DUP2 LT PUSH2 0x27D1 JUMPI INVALID JUMPDEST PUSH1 0x20 MUL PUSH1 0x20 ADD ADD DUP2 DUP2 MSTORE POP POP PUSH1 0x60 PUSH1 0x0 PUSH8 0xFFFFFFFFFFFFFFFF DUP2 GT DUP1 ISZERO PUSH2 0x27F7 JUMPI PUSH1 0x0 DUP1 REVERT JUMPDEST POP PUSH1 0x40 MLOAD SWAP1 DUP1 DUP3 MSTORE DUP1 PUSH1 0x20 MUL PUSH1 0x20 ADD DUP3 ADD PUSH1 0x40 MSTORE DUP1 ISZERO PUSH2 0x2826 JUMPI DUP2 PUSH1 0x20 ADD PUSH1 0x20 DUP3 MUL DUP1 CALLDATASIZE DUP4 CALLDATACOPY DUP1 DUP3 ADD SWAP2 POP POP SWAP1 POP JUMPDEST POP SWAP1 POP DUP8 PUSH1 0x60 ADD MLOAD PUSH20 0xFFFFFFFFFFFFFFFFFFFFFFFFFFFFFFFFFFFFFFFF AND DUP7 PUSH20 0xFFFFFFFFFFFFFFFFFFFFFFFFFFFFFFFFFFFFFFFF AND EQ ISZERO PUSH2 0x2941 JUMPI DUP3 PUSH20 0xFFFFFFFFFFFFFFFFFFFFFFFFFFFFFFFFFFFFFFFF AND PUSH4 0x81EFCBDD PUSH3 0x7A120 DUP8 PUSH1 0x1 DUP7 DUP7 PUSH1 0x40 MLOAD DUP7 PUSH4 0xFFFFFFFF AND PUSH1 0xE0 SHL DUP2 MSTORE PUSH1 0x4 ADD PUSH2 0x28A5 SWAP5 SWAP4 SWAP3 SWAP2 SWAP1 PUSH2 0xC2D6 JUMP JUMPDEST PUSH1 0x0 PUSH1 0x40 MLOAD DUP1 DUP4 SUB DUP2 DUP8 DUP1 EXTCODESIZE ISZERO DUP1 ISZERO PUSH2 0x28BD JUMPI PUSH1 0x0 DUP1 REVERT JUMPDEST POP DUP7 STATICCALL SWAP4 POP POP POP POP DUP1 ISZERO PUSH2 0x28F4 JUMPI POP PUSH1 0x40 MLOAD RETURNDATASIZE PUSH1 0x0 DUP3 RETURNDATACOPY RETURNDATASIZE PUSH1 0x1F NOT PUSH1 0x1F DUP3 ADD AND DUP3 ADD DUP1 PUSH1 0x40 MSTORE POP DUP2 ADD SWAP1 PUSH2 0x28F1 SWAP2 SWAP1 PUSH2 0xB5DD JUMP JUMPDEST PUSH1 0x1 JUMPDEST PUSH2 0x2930 JUMPI RETURNDATASIZE DUP1 PUSH1 0x0 DUP2 EQ PUSH2 0x2924 JUMPI PUSH1 0x40 MLOAD SWAP2 POP PUSH1 0x1F NOT PUSH1 0x3F RETURNDATASIZE ADD AND DUP3 ADD PUSH1 0x40 MSTORE RETURNDATASIZE DUP3 MSTORE RETURNDATASIZE PUSH1 0x0 PUSH1 0x20 DUP5 ADD RETURNDATACOPY PUSH2 0x2929 JUMP JUMPDEST PUSH1 0x60 SWAP2 POP JUMPDEST POP POP PUSH2 0x293C JUMP JUMPDEST DUP1 SWAP5 POP POP POP POP POP PUSH2 0x2B43 JUMP JUMPDEST PUSH2 0x2B3F JUMP JUMPDEST DUP8 PUSH1 0x60 ADD MLOAD PUSH20 0xFFFFFFFFFFFFFFFFFFFFFFFFFFFFFFFFFFFFFFFF AND DUP6 PUSH20 0xFFFFFFFFFFFFFFFFFFFFFFFFFFFFFFFFFFFFFFFF AND EQ ISZERO PUSH2 0x2A59 JUMPI DUP3 PUSH20 0xFFFFFFFFFFFFFFFFFFFFFFFFFFFFFFFFFFFFFFFF AND PUSH4 0x61E597F9 PUSH3 0x7A120 DUP9 PUSH1 0x1 DUP7 DUP7 PUSH1 0x40 MLOAD DUP7 PUSH4 0xFFFFFFFF AND PUSH1 0xE0 SHL DUP2 MSTORE PUSH1 0x4 ADD PUSH2 0x29BD SWAP5 SWAP4 SWAP3 SWAP2 SWAP1 PUSH2 0xC2D6 JUMP JUMPDEST PUSH1 0x0 PUSH1 0x40 MLOAD DUP1 DUP4 SUB DUP2 DUP8 DUP1 EXTCODESIZE ISZERO DUP1 ISZERO PUSH2 0x29D5 JUMPI PUSH1 0x0 DUP1 REVERT JUMPDEST POP DUP7 STATICCALL SWAP4 POP POP POP POP DUP1 ISZERO PUSH2 0x2A0C JUMPI POP PUSH1 0x40 MLOAD RETURNDATASIZE PUSH1 0x0 DUP3 RETURNDATACOPY RETURNDATASIZE PUSH1 0x1F NOT PUSH1 0x1F DUP3 ADD AND DUP3 ADD DUP1 PUSH1 0x40 MSTORE POP DUP2 ADD SWAP1 PUSH2 0x2A09 SWAP2 SWAP1 PUSH2 0xB5DD JUMP JUMPDEST PUSH1 0x1 JUMPDEST PUSH2 0x2A48 JUMPI RETURNDATASIZE DUP1 PUSH1 0x0 DUP2 EQ PUSH2 0x2A3C JUMPI PUSH1 0x40 MLOAD SWAP2 POP PUSH1 0x1F NOT PUSH1 0x3F RETURNDATASIZE ADD AND DUP3 ADD PUSH1 0x40 MSTORE RETURNDATASIZE DUP3 MSTORE RETURNDATASIZE PUSH1 0x0 PUSH1 0x20 DUP5 ADD RETURNDATACOPY PUSH2 0x2A41 JUMP JUMPDEST PUSH1 0x60 SWAP2 POP JUMPDEST POP POP PUSH2 0x2A54 JUMP JUMPDEST DUP1 SWAP5 POP POP POP POP POP PUSH2 0x2B43 JUMP JUMPDEST PUSH2 0x2B3E JUMP JUMPDEST DUP3 PUSH20 0xFFFFFFFFFFFFFFFFFFFFFFFFFFFFFFFFFFFFFFFF AND PUSH4 0x5734D9A PUSH3 0x7A120 DUP9 PUSH1 0x1 DUP7 DUP7 DUP12 PUSH1 0x1 DUP11 DUP11 PUSH1 0x40 MLOAD DUP11 PUSH4 0xFFFFFFFF AND PUSH1 0xE0 SHL DUP2 MSTORE PUSH1 0x4 ADD PUSH2 0x2AA6 SWAP9 SWAP8 SWAP7 SWAP6 SWAP5 SWAP4 SWAP3 SWAP2 SWAP1 PUSH2 0xC324 JUMP JUMPDEST PUSH1 0x0 PUSH1 0x40 MLOAD DUP1 DUP4 SUB DUP2 DUP8 DUP1 EXTCODESIZE ISZERO DUP1 ISZERO PUSH2 0x2ABE JUMPI PUSH1 0x0 DUP1 REVERT JUMPDEST POP DUP7 STATICCALL SWAP4 POP POP POP POP DUP1 ISZERO PUSH2 0x2AF5 JUMPI POP PUSH1 0x40 MLOAD RETURNDATASIZE PUSH1 0x0 DUP3 RETURNDATACOPY RETURNDATASIZE PUSH1 0x1F NOT PUSH1 0x1F DUP3 ADD AND DUP3 ADD DUP1 PUSH1 0x40 MSTORE POP DUP2 ADD SWAP1 PUSH2 0x2AF2 SWAP2 SWAP1 PUSH2 0xB5DD JUMP JUMPDEST PUSH1 0x1 JUMPDEST PUSH2 0x2B31 JUMPI RETURNDATASIZE DUP1 PUSH1 0x0 DUP2 EQ PUSH2 0x2B25 JUMPI PUSH1 0x40 MLOAD SWAP2 POP PUSH1 0x1F NOT PUSH1 0x3F RETURNDATASIZE ADD AND DUP3 ADD PUSH1 0x40 MSTORE RETURNDATASIZE DUP3 MSTORE RETURNDATASIZE PUSH1 0x0 PUSH1 0x20 DUP5 ADD RETURNDATACOPY PUSH2 0x2B2A JUMP JUMPDEST PUSH1 0x60 SWAP2 POP JUMPDEST POP POP PUSH2 0x2B3D JUMP JUMPDEST DUP1 SWAP5 POP POP POP POP POP PUSH2 0x2B43 JUMP JUMPDEST JUMPDEST JUMPDEST POP POP POP JUMPDEST SWAP5 SWAP4 POP POP POP POP JUMP JUMPDEST PUSH1 0x60 DUP1 PUSH1 0x60 PUSH2 0x2BD9 DUP7 PUSH20 0xFFFFFFFFFFFFFFFFFFFFFFFFFFFFFFFFFFFFFFFF AND PUSH4 0xC45A0155 PUSH1 0x40 MLOAD DUP2 PUSH4 0xFFFFFFFF AND PUSH1 0xE0 SHL DUP2 MSTORE PUSH1 0x4 ADD PUSH1 0x20 PUSH1 0x40 MLOAD DUP1 DUP4 SUB DUP2 DUP7 DUP1 EXTCODESIZE ISZERO DUP1 ISZERO PUSH2 0x2B99 JUMPI PUSH1 0x0 DUP1 REVERT JUMPDEST POP GAS STATICCALL ISZERO DUP1 ISZERO PUSH2 0x2BAD JUMPI RETURNDATASIZE PUSH1 0x0 DUP1 RETURNDATACOPY RETURNDATASIZE PUSH1 0x0 REVERT JUMPDEST POP POP POP POP PUSH1 0x40 MLOAD RETURNDATASIZE PUSH1 0x1F NOT PUSH1 0x1F DUP3 ADD AND DUP3 ADD DUP1 PUSH1 0x40 MSTORE POP DUP2 ADD SWAP1 PUSH2 0x2BD1 SWAP2 SWAP1 PUSH2 0xB63F JUMP JUMPDEST DUP7 PUSH1 0x0 PUSH2 0x7F94 JUMP JUMPDEST SWAP1 POP DUP4 MLOAD PUSH8 0xFFFFFFFFFFFFFFFF DUP2 GT DUP1 ISZERO PUSH2 0x2BF3 JUMPI PUSH1 0x0 DUP1 REVERT JUMPDEST POP PUSH1 0x40 MLOAD SWAP1 DUP1 DUP3 MSTORE DUP1 PUSH1 0x20 MUL PUSH1 0x20 ADD DUP3 ADD PUSH1 0x40 MSTORE DUP1 ISZERO PUSH2 0x2C22 JUMPI DUP2 PUSH1 0x20 ADD PUSH1 0x20 DUP3 MUL DUP1 CALLDATASIZE DUP4 CALLDATACOPY DUP1 DUP3 ADD SWAP2 POP POP SWAP1 POP JUMPDEST POP SWAP3 POP DUP4 MLOAD PUSH8 0xFFFFFFFFFFFFFFFF DUP2 GT DUP1 ISZERO PUSH2 0x2C3D JUMPI PUSH1 0x0 DUP1 REVERT JUMPDEST POP PUSH1 0x40 MLOAD SWAP1 DUP1 DUP3 MSTORE DUP1 PUSH1 0x20 MUL PUSH1 0x20 ADD DUP3 ADD PUSH1 0x40 MSTORE DUP1 ISZERO PUSH2 0x2C71 JUMPI DUP2 PUSH1 0x20 ADD JUMPDEST PUSH1 0x60 DUP2 MSTORE PUSH1 0x20 ADD SWAP1 PUSH1 0x1 SWAP1 SUB SWAP1 DUP2 PUSH2 0x2C5C JUMPI SWAP1 POP JUMPDEST POP SWAP2 POP PUSH1 0x0 JUMPDEST DUP5 MLOAD DUP2 LT ISZERO PUSH2 0x2DC2 JUMPI PUSH1 0x60 PUSH1 0x0 DUP1 JUMPDEST DUP5 MLOAD DUP2 LT ISZERO PUSH2 0x2D73 JUMPI PUSH1 0x60 PUSH2 0x2CAE DUP11 DUP8 DUP5 DUP2 MLOAD DUP2 LT PUSH2 0x2CA1 JUMPI INVALID JUMPDEST PUSH1 0x20 MUL PUSH1 0x20 ADD ADD MLOAD PUSH2 0x8562 JUMP JUMPDEST SWAP1 POP DUP11 PUSH20 0xFFFFFFFFFFFFFFFFFFFFFFFFFFFFFFFFFFFFFFFF AND PUSH4 0xCDCA1753 PUSH3 0x493E0 DUP4 DUP13 DUP10 DUP2 MLOAD DUP2 LT PUSH2 0x2CDD JUMPI INVALID JUMPDEST PUSH1 0x20 MUL PUSH1 0x20 ADD ADD MLOAD PUSH1 0x40 MLOAD DUP5 PUSH4 0xFFFFFFFF AND PUSH1 0xE0 SHL DUP2 MSTORE PUSH1 0x4 ADD PUSH2 0x2D02 SWAP3 SWAP2 SWAP1 PUSH2 0xC63A JUMP JUMPDEST PUSH1 0x20 PUSH1 0x40 MLOAD DUP1 DUP4 SUB DUP2 PUSH1 0x0 DUP9 DUP1 EXTCODESIZE ISZERO DUP1 ISZERO PUSH2 0x2D1C JUMPI PUSH1 0x0 DUP1 REVERT JUMPDEST POP DUP8 CALL SWAP4 POP POP POP POP DUP1 ISZERO PUSH2 0x2D4E JUMPI POP PUSH1 0x40 MLOAD RETURNDATASIZE PUSH1 0x1F NOT PUSH1 0x1F DUP3 ADD AND DUP3 ADD DUP1 PUSH1 0x40 MSTORE POP DUP2 ADD SWAP1 PUSH2 0x2D4B SWAP2 SWAP1 PUSH2 0xBD27 JUMP JUMPDEST PUSH1 0x1 JUMPDEST PUSH2 0x2D57 JUMPI PUSH2 0x2D67 JUMP JUMPDEST DUP1 DUP5 GT PUSH2 0x2D65 JUMPI DUP1 SWAP4 POP DUP2 SWAP5 POP JUMPDEST POP JUMPDEST POP DUP1 PUSH1 0x1 ADD SWAP1 POP PUSH2 0x2C86 JUMP JUMPDEST POP PUSH1 0x0 DUP2 EQ ISZERO PUSH2 0x2D84 JUMPI POP POP PUSH2 0x2DC2 JUMP JUMPDEST DUP1 DUP7 DUP5 DUP2 MLOAD DUP2 LT PUSH2 0x2D91 JUMPI INVALID JUMPDEST PUSH1 0x20 MUL PUSH1 0x20 ADD ADD DUP2 DUP2 MSTORE POP POP DUP2 DUP6 DUP5 DUP2 MLOAD DUP2 LT PUSH2 0x2DAA JUMPI INVALID JUMPDEST PUSH1 0x20 MUL PUSH1 0x20 ADD ADD DUP2 SWAP1 MSTORE POP POP POP DUP1 PUSH1 0x1 ADD SWAP1 POP PUSH2 0x2C77 JUMP JUMPDEST POP POP SWAP4 POP SWAP4 SWAP2 POP POP JUMP JUMPDEST PUSH1 0x60 PUSH1 0x0 DUP6 SWAP1 POP PUSH1 0x0 DUP4 MLOAD SWAP1 POP DUP1 PUSH8 0xFFFFFFFFFFFFFFFF DUP2 GT DUP1 ISZERO PUSH2 0x2DF0 JUMPI PUSH1 0x0 DUP1 REVERT JUMPDEST POP PUSH1 0x40 MLOAD SWAP1 DUP1 DUP3 MSTORE DUP1 PUSH1 0x20 MUL PUSH1 0x20 ADD DUP3 ADD PUSH1 0x40 MSTORE DUP1 ISZERO PUSH2 0x2E1F JUMPI DUP2 PUSH1 0x20 ADD PUSH1 0x20 DUP3 MUL DUP1 CALLDATASIZE DUP4 CALLDATACOPY DUP1 DUP3 ADD SWAP2 POP POP SWAP1 POP JUMPDEST POP SWAP3 POP DUP2 PUSH20 0xFFFFFFFFFFFFFFFFFFFFFFFFFFFFFFFFFFFFFFFF AND PUSH4 0x2F37B624 DUP8 PUSH1 0x40 MLOAD DUP3 PUSH4 0xFFFFFFFF AND PUSH1 0xE0 SHL DUP2 MSTORE PUSH1 0x4 ADD PUSH2 0x2E5B SWAP2 SWAP1 PUSH2 0xC0A1 JUMP JUMPDEST PUSH1 0x20 PUSH1 0x40 MLOAD DUP1 DUP4 SUB DUP2 DUP7 DUP1 EXTCODESIZE ISZERO DUP1 ISZERO PUSH2 0x2E73 JUMPI PUSH1 0x0 DUP1 REVERT JUMPDEST POP GAS STATICCALL ISZERO DUP1 ISZERO PUSH2 0x2E87 JUMPI RETURNDATASIZE PUSH1 0x0 DUP1 RETURNDATACOPY RETURNDATASIZE PUSH1 0x0 REVERT JUMPDEST POP POP POP POP PUSH1 0x40 MLOAD RETURNDATASIZE PUSH1 0x1F NOT PUSH1 0x1F DUP3 ADD AND DUP3 ADD DUP1 PUSH1 0x40 MSTORE POP DUP2 ADD SWAP1 PUSH2 0x2EAB SWAP2 SWAP1 PUSH2 0xB543 JUMP JUMPDEST ISZERO DUP1 PUSH2 0x2F3D JUMPI POP DUP2 PUSH20 0xFFFFFFFFFFFFFFFFFFFFFFFFFFFFFFFFFFFFFFFF AND PUSH4 0x2F37B624 DUP7 PUSH1 0x40 MLOAD DUP3 PUSH4 0xFFFFFFFF AND PUSH1 0xE0 SHL DUP2 MSTORE PUSH1 0x4 ADD PUSH2 0x2EEB SWAP2 SWAP1 PUSH2 0xC0A1 JUMP JUMPDEST PUSH1 0x20 PUSH1 0x40 MLOAD DUP1 DUP4 SUB DUP2 DUP7 DUP1 EXTCODESIZE ISZERO DUP1 ISZERO PUSH2 0x2F03 JUMPI PUSH1 0x0 DUP1 REVERT JUMPDEST POP GAS STATICCALL ISZERO DUP1 ISZERO PUSH2 0x2F17 JUMPI RETURNDATASIZE PUSH1 0x0 DUP1 RETURNDATACOPY RETURNDATASIZE PUSH1 0x0 REVERT JUMPDEST POP POP POP POP PUSH1 0x40 MLOAD RETURNDATASIZE PUSH1 0x1F NOT PUSH1 0x1F DUP3 ADD AND DUP3 ADD DUP1 PUSH1 0x40 MSTORE POP DUP2 ADD SWAP1 PUSH2 0x2F3B SWAP2 SWAP1 PUSH2 0xB543 JUMP JUMPDEST ISZERO JUMPDEST ISZERO PUSH2 0x2F49 JUMPI POP POP PUSH2 0x33AF JUMP JUMPDEST PUSH2 0x2F51 PUSH2 0xA22C JUMP JUMPDEST DUP3 PUSH20 0xFFFFFFFFFFFFFFFFFFFFFFFFFFFFFFFFFFFFFFFF AND PUSH4 0xF8B2CB4F DUP9 PUSH1 0x40 MLOAD DUP3 PUSH4 0xFFFFFFFF AND PUSH1 0xE0 SHL DUP2 MSTORE PUSH1 0x4 ADD PUSH2 0x2F8A SWAP2 SWAP1 PUSH2 0xC0A1 JUMP JUMPDEST PUSH1 0x20 PUSH1 0x40 MLOAD DUP1 DUP4 SUB DUP2 DUP7 DUP1 EXTCODESIZE ISZERO DUP1 ISZERO PUSH2 0x2FA2 JUMPI PUSH1 0x0 DUP1 REVERT JUMPDEST POP GAS STATICCALL ISZERO DUP1 ISZERO PUSH2 0x2FB6 JUMPI RETURNDATASIZE PUSH1 0x0 DUP1 RETURNDATACOPY RETURNDATASIZE PUSH1 0x0 REVERT JUMPDEST POP POP POP POP PUSH1 0x40 MLOAD RETURNDATASIZE PUSH1 0x1F NOT PUSH1 0x1F DUP3 ADD AND DUP3 ADD DUP1 PUSH1 0x40 MSTORE POP DUP2 ADD SWAP1 PUSH2 0x2FDA SWAP2 SWAP1 PUSH2 0xBD27 JUMP JUMPDEST DUP2 PUSH1 0x0 ADD DUP2 DUP2 MSTORE POP POP DUP3 PUSH20 0xFFFFFFFFFFFFFFFFFFFFFFFFFFFFFFFFFFFFFFFF AND PUSH4 0xF8B2CB4F DUP8 PUSH1 0x40 MLOAD DUP3 PUSH4 0xFFFFFFFF AND PUSH1 0xE0 SHL DUP2 MSTORE PUSH1 0x4 ADD PUSH2 0x301C SWAP2 SWAP1 PUSH2 0xC0A1 JUMP JUMPDEST PUSH1 0x20 PUSH1 0x40 MLOAD DUP1 DUP4 SUB DUP2 DUP7 DUP1 EXTCODESIZE ISZERO DUP1 ISZERO PUSH2 0x3034 JUMPI PUSH1 0x0 DUP1 REVERT JUMPDEST POP GAS STATICCALL ISZERO DUP1 ISZERO PUSH2 0x3048 JUMPI RETURNDATASIZE PUSH1 0x0 DUP1 RETURNDATACOPY RETURNDATASIZE PUSH1 0x0 REVERT JUMPDEST POP POP POP POP PUSH1 0x40 MLOAD RETURNDATASIZE PUSH1 0x1F NOT PUSH1 0x1F DUP3 ADD AND DUP3 ADD DUP1 PUSH1 0x40 MSTORE POP DUP2 ADD SWAP1 PUSH2 0x306C SWAP2 SWAP1 PUSH2 0xBD27 JUMP JUMPDEST DUP2 PUSH1 0x20 ADD DUP2 DUP2 MSTORE POP POP DUP3 PUSH20 0xFFFFFFFFFFFFFFFFFFFFFFFFFFFFFFFFFFFFFFFF AND PUSH4 0x948D8CE6 DUP9 PUSH1 0x40 MLOAD DUP3 PUSH4 0xFFFFFFFF AND PUSH1 0xE0 SHL DUP2 MSTORE PUSH1 0x4 ADD PUSH2 0x30AE SWAP2 SWAP1 PUSH2 0xC0A1 JUMP JUMPDEST PUSH1 0x20 PUSH1 0x40 MLOAD DUP1 DUP4 SUB DUP2 DUP7 DUP1 EXTCODESIZE ISZERO DUP1 ISZERO PUSH2 0x30C6 JUMPI PUSH1 0x0 DUP1 REVERT JUMPDEST POP GAS STATICCALL ISZERO DUP1 ISZERO PUSH2 0x30DA JUMPI RETURNDATASIZE PUSH1 0x0 DUP1 RETURNDATACOPY RETURNDATASIZE PUSH1 0x0 REVERT JUMPDEST POP POP POP POP PUSH1 0x40 MLOAD RETURNDATASIZE PUSH1 0x1F NOT PUSH1 0x1F DUP3 ADD AND DUP3 ADD DUP1 PUSH1 0x40 MSTORE POP DUP2 ADD SWAP1 PUSH2 0x30FE SWAP2 SWAP1 PUSH2 0xBD27 JUMP JUMPDEST DUP2 PUSH1 0x40 ADD DUP2 DUP2 MSTORE POP POP DUP3 PUSH20 0xFFFFFFFFFFFFFFFFFFFFFFFFFFFFFFFFFFFFFFFF AND PUSH4 0x948D8CE6 DUP8 PUSH1 0x40 MLOAD DUP3 PUSH4 0xFFFFFFFF AND PUSH1 0xE0 SHL DUP2 MSTORE PUSH1 0x4 ADD PUSH2 0x3140 SWAP2 SWAP1 PUSH2 0xC0A1 JUMP JUMPDEST PUSH1 0x20 PUSH1 0x40 MLOAD DUP1 DUP4 SUB DUP2 DUP7 DUP1 EXTCODESIZE ISZERO DUP1 ISZERO PUSH2 0x3158 JUMPI PUSH1 0x0 DUP1 REVERT JUMPDEST POP GAS STATICCALL ISZERO DUP1 ISZERO PUSH2 0x316C JUMPI RETURNDATASIZE PUSH1 0x0 DUP1 RETURNDATACOPY RETURNDATASIZE PUSH1 0x0 REVERT JUMPDEST POP POP POP POP PUSH1 0x40 MLOAD RETURNDATASIZE PUSH1 0x1F NOT PUSH1 0x1F DUP3 ADD AND DUP3 ADD DUP1 PUSH1 0x40 MSTORE POP DUP2 ADD SWAP1 PUSH2 0x3190 SWAP2 SWAP1 PUSH2 0xBD27 JUMP JUMPDEST DUP2 PUSH1 0x60 ADD DUP2 DUP2 MSTORE POP POP DUP3 PUSH20 0xFFFFFFFFFFFFFFFFFFFFFFFFFFFFFFFFFFFFFFFF AND PUSH4 0xD4CADF68 PUSH1 0x40 MLOAD DUP2 PUSH4 0xFFFFFFFF AND PUSH1 0xE0 SHL DUP2 MSTORE PUSH1 0x4 ADD PUSH1 0x20 PUSH1 0x40 MLOAD DUP1 DUP4 SUB DUP2 DUP7 DUP1 EXTCODESIZE ISZERO DUP1 ISZERO PUSH2 0x31DF JUMPI PUSH1 0x0 DUP1 REVERT JUMPDEST POP GAS STATICCALL ISZERO DUP1 ISZERO PUSH2 0x31F3 JUMPI RETURNDATASIZE PUSH1 0x0 DUP1 RETURNDATACOPY RETURNDATASIZE PUSH1 0x0 REVERT JUMPDEST POP POP POP POP PUSH1 0x40 MLOAD RETURNDATASIZE PUSH1 0x1F NOT PUSH1 0x1F DUP3 ADD AND DUP3 ADD DUP1 PUSH1 0x40 MSTORE POP DUP2 ADD SWAP1 PUSH2 0x3217 SWAP2 SWAP1 PUSH2 0xBD27 JUMP JUMPDEST DUP2 PUSH1 0x80 ADD DUP2 DUP2 MSTORE POP POP PUSH1 0x0 JUMPDEST DUP3 DUP2 LT ISZERO PUSH2 0x33AA JUMPI PUSH2 0x324E DUP3 PUSH1 0x20 ADD MLOAD PUSH1 0x1 PUSH1 0x3 PUSH8 0xDE0B6B3A7640000 DUP2 PUSH2 0x3247 JUMPI INVALID JUMPDEST DIV ADD PUSH2 0x870B JUMP JUMPDEST DUP7 DUP3 DUP2 MLOAD DUP2 LT PUSH2 0x325A JUMPI INVALID JUMPDEST PUSH1 0x20 MUL PUSH1 0x20 ADD ADD MLOAD GT ISZERO PUSH2 0x326D JUMPI PUSH2 0x33AA JUMP JUMPDEST DUP4 PUSH20 0xFFFFFFFFFFFFFFFFFFFFFFFFFFFFFFFFFFFFFFFF AND PUSH4 0xF8D6AED4 PUSH3 0x493E0 DUP5 PUSH1 0x0 ADD MLOAD DUP6 PUSH1 0x40 ADD MLOAD DUP7 PUSH1 0x20 ADD MLOAD DUP8 PUSH1 0x60 ADD MLOAD DUP13 DUP9 DUP2 MLOAD DUP2 LT PUSH2 0x32AD JUMPI INVALID JUMPDEST PUSH1 0x20 MUL PUSH1 0x20 ADD ADD MLOAD DUP10 PUSH1 0x80 ADD MLOAD PUSH1 0x40 MLOAD DUP9 PUSH4 0xFFFFFFFF AND PUSH1 0xE0 SHL DUP2 MSTORE PUSH1 0x4 ADD PUSH2 0x32DB SWAP7 SWAP6 SWAP5 SWAP4 SWAP3 SWAP2 SWAP1 PUSH2 0xCC51 JUMP JUMPDEST PUSH1 0x20 PUSH1 0x40 MLOAD DUP1 DUP4 SUB DUP2 DUP8 DUP1 EXTCODESIZE ISZERO DUP1 ISZERO PUSH2 0x32F3 JUMPI PUSH1 0x0 DUP1 REVERT JUMPDEST POP DUP7 STATICCALL SWAP4 POP POP POP POP DUP1 ISZERO PUSH2 0x3325 JUMPI POP PUSH1 0x40 MLOAD RETURNDATASIZE PUSH1 0x1F NOT PUSH1 0x1F DUP3 ADD AND DUP3 ADD DUP1 PUSH1 0x40 MSTORE POP DUP2 ADD SWAP1 PUSH2 0x3322 SWAP2 SWAP1 PUSH2 0xBD27 JUMP JUMPDEST PUSH1 0x1 JUMPDEST PUSH2 0x3361 JUMPI RETURNDATASIZE DUP1 PUSH1 0x0 DUP2 EQ PUSH2 0x3355 JUMPI PUSH1 0x40 MLOAD SWAP2 POP PUSH1 0x1F NOT PUSH1 0x3F RETURNDATASIZE ADD AND DUP3 ADD PUSH1 0x40 MSTORE RETURNDATASIZE DUP3 MSTORE RETURNDATASIZE PUSH1 0x0 PUSH1 0x20 DUP5 ADD RETURNDATACOPY PUSH2 0x335A JUMP JUMPDEST PUSH1 0x60 SWAP2 POP JUMPDEST POP POP PUSH2 0x33AA JUMP JUMPDEST DUP1 DUP7 DUP4 DUP2 MLOAD DUP2 LT PUSH2 0x336E JUMPI INVALID JUMPDEST PUSH1 0x20 MUL PUSH1 0x20 ADD ADD DUP2 DUP2 MSTORE POP POP PUSH1 0x0 DUP7 DUP4 DUP2 MLOAD DUP2 LT PUSH2 0x3388 JUMPI INVALID JUMPDEST PUSH1 0x20 MUL PUSH1 0x20 ADD ADD MLOAD EQ ISZERO PUSH2 0x339C JUMPI POP PUSH2 0x33AA JUMP JUMPDEST POP DUP1 DUP1 PUSH1 0x1 ADD SWAP2 POP POP PUSH2 0x3223 JUMP JUMPDEST POP POP POP POP JUMPDEST SWAP5 SWAP4 POP POP POP POP JUMP JUMPDEST PUSH1 0x60 DUP1 PUSH1 0x60 PUSH2 0x3445 DUP7 PUSH20 0xFFFFFFFFFFFFFFFFFFFFFFFFFFFFFFFFFFFFFFFF AND PUSH4 0xC45A0155 PUSH1 0x40 MLOAD DUP2 PUSH4 0xFFFFFFFF AND PUSH1 0xE0 SHL DUP2 MSTORE PUSH1 0x4 ADD PUSH1 0x20 PUSH1 0x40 MLOAD DUP1 DUP4 SUB DUP2 DUP7 DUP1 EXTCODESIZE ISZERO DUP1 ISZERO PUSH2 0x3405 JUMPI PUSH1 0x0 DUP1 REVERT JUMPDEST POP GAS STATICCALL ISZERO DUP1 ISZERO PUSH2 0x3419 JUMPI RETURNDATASIZE PUSH1 0x0 DUP1 RETURNDATACOPY RETURNDATASIZE PUSH1 0x0 REVERT JUMPDEST POP POP POP POP PUSH1 0x40 MLOAD RETURNDATASIZE PUSH1 0x1F NOT PUSH1 0x1F DUP3 ADD AND DUP3 ADD DUP1 PUSH1 0x40 MSTORE POP DUP2 ADD SWAP1 PUSH2 0x343D SWAP2 SWAP1 PUSH2 0xB63F JUMP JUMPDEST DUP7 PUSH1 0x0 PUSH2 0x7F94 JUMP JUMPDEST SWAP1 POP PUSH1 0x60 PUSH2 0x3452 DUP7 PUSH2 0x878B JUMP JUMPDEST SWAP1 POP DUP5 MLOAD PUSH8 0xFFFFFFFFFFFFFFFF DUP2 GT DUP1 ISZERO PUSH2 0x346C JUMPI PUSH1 0x0 DUP1 REVERT JUMPDEST POP PUSH1 0x40 MLOAD SWAP1 DUP1 DUP3 MSTORE DUP1 PUSH1 0x20 MUL PUSH1 0x20 ADD DUP3 ADD PUSH1 0x40 MSTORE DUP1 ISZERO PUSH2 0x349B JUMPI DUP2 PUSH1 0x20 ADD PUSH1 0x20 DUP3 MUL DUP1 CALLDATASIZE DUP4 CALLDATACOPY DUP1 DUP3 ADD SWAP2 POP POP SWAP1 POP JUMPDEST POP SWAP4 POP DUP5 MLOAD PUSH8 0xFFFFFFFFFFFFFFFF DUP2 GT DUP1 ISZERO PUSH2 0x34B6 JUMPI PUSH1 0x0 DUP1 REVERT JUMPDEST POP PUSH1 0x40 MLOAD SWAP1 DUP1 DUP3 MSTORE DUP1 PUSH1 0x20 MUL PUSH1 0x20 ADD DUP3 ADD PUSH1 0x40 MSTORE DUP1 ISZERO PUSH2 0x34EA JUMPI DUP2 PUSH1 0x20 ADD JUMPDEST PUSH1 0x60 DUP2 MSTORE PUSH1 0x20 ADD SWAP1 PUSH1 0x1 SWAP1 SUB SWAP1 DUP2 PUSH2 0x34D5 JUMPI SWAP1 POP JUMPDEST POP SWAP3 POP PUSH1 0x0 JUMPDEST DUP6 MLOAD DUP2 LT ISZERO PUSH2 0x366C JUMPI PUSH1 0x60 PUSH1 0x0 DUP1 JUMPDEST DUP6 MLOAD DUP2 LT ISZERO PUSH2 0x361D JUMPI PUSH1 0x60 PUSH2 0x352F DUP7 PUSH2 0x352A DUP10 DUP6 DUP2 MLOAD DUP2 LT PUSH2 0x351D JUMPI INVALID JUMPDEST PUSH1 0x20 MUL PUSH1 0x20 ADD ADD MLOAD PUSH2 0x8854 JUMP JUMPDEST PUSH2 0x8562 JUMP JUMPDEST SWAP1 POP DUP12 PUSH20 0xFFFFFFFFFFFFFFFFFFFFFFFFFFFFFFFFFFFFFFFF AND PUSH4 0x2F80BB1D PUSH3 0x493E0 DUP4 DUP14 DUP10 DUP2 MLOAD DUP2 LT PUSH2 0x355E JUMPI INVALID JUMPDEST PUSH1 0x20 MUL PUSH1 0x20 ADD ADD MLOAD PUSH1 0x40 MLOAD DUP5 PUSH4 0xFFFFFFFF AND PUSH1 0xE0 SHL DUP2 MSTORE PUSH1 0x4 ADD PUSH2 0x3583 SWAP3 SWAP2 SWAP1 PUSH2 0xC63A JUMP JUMPDEST PUSH1 0x20 PUSH1 0x40 MLOAD DUP1 DUP4 SUB DUP2 PUSH1 0x0 DUP9 DUP1 EXTCODESIZE ISZERO DUP1 ISZERO PUSH2 0x359D JUMPI PUSH1 0x0 DUP1 REVERT JUMPDEST POP DUP8 CALL SWAP4 POP POP POP POP DUP1 ISZERO PUSH2 0x35CF JUMPI POP PUSH1 0x40 MLOAD RETURNDATASIZE PUSH1 0x1F NOT PUSH1 0x1F DUP3 ADD AND DUP3 ADD DUP1 PUSH1 0x40 MSTORE POP DUP2 ADD SWAP1 PUSH2 0x35CC SWAP2 SWAP1 PUSH2 0xBD27 JUMP JUMPDEST PUSH1 0x1 JUMPDEST PUSH2 0x35D8 JUMPI PUSH2 0x3611 JUMP JUMPDEST PUSH1 0x0 DUP5 EQ DUP1 PUSH2 0x35E7 JUMPI POP DUP1 DUP5 LT ISZERO JUMPDEST ISZERO PUSH2 0x360F JUMPI DUP1 SWAP4 POP PUSH2 0x360C DUP13 DUP10 DUP6 DUP2 MLOAD DUP2 LT PUSH2 0x35FF JUMPI INVALID JUMPDEST PUSH1 0x20 MUL PUSH1 0x20 ADD ADD MLOAD PUSH2 0x8562 JUMP JUMPDEST SWAP5 POP JUMPDEST POP JUMPDEST POP DUP1 PUSH1 0x1 ADD SWAP1 POP PUSH2 0x34FF JUMP JUMPDEST POP PUSH1 0x0 DUP2 EQ ISZERO PUSH2 0x362E JUMPI POP POP PUSH2 0x366C JUMP JUMPDEST DUP1 DUP8 DUP5 DUP2 MLOAD DUP2 LT PUSH2 0x363B JUMPI INVALID JUMPDEST PUSH1 0x20 MUL PUSH1 0x20 ADD ADD DUP2 DUP2 MSTORE POP POP DUP2 DUP7 DUP5 DUP2 MLOAD DUP2 LT PUSH2 0x3654 JUMPI INVALID JUMPDEST PUSH1 0x20 MUL PUSH1 0x20 ADD ADD DUP2 SWAP1 MSTORE POP POP POP DUP1 PUSH1 0x1 ADD SWAP1 POP PUSH2 0x34F0 JUMP JUMPDEST POP POP POP SWAP4 POP SWAP4 SWAP2 POP POP JUMP JUMPDEST PUSH1 0x60 PUSH2 0x36E1 PUSH1 0x40 MLOAD DUP1 PUSH1 0x60 ADD PUSH1 0x40 MSTORE DUP1 DUP6 DUP9 PUSH1 0x40 MLOAD PUSH1 0x20 ADD PUSH2 0x369A SWAP3 SWAP2 SWAP1 PUSH2 0xC0F3 JUMP JUMPDEST PUSH1 0x40 MLOAD PUSH1 0x20 DUP2 DUP4 SUB SUB DUP2 MSTORE SWAP1 PUSH1 0x40 MSTORE DUP2 MSTORE PUSH1 0x20 ADD DUP7 DUP9 PUSH1 0x40 MLOAD PUSH1 0x20 ADD PUSH2 0x36C1 SWAP3 SWAP2 SWAP1 PUSH2 0xC0F3 JUMP JUMPDEST PUSH1 0x40 MLOAD PUSH1 0x20 DUP2 DUP4 SUB SUB DUP2 MSTORE SWAP1 PUSH1 0x40 MSTORE DUP2 MSTORE PUSH1 0x20 ADD PUSH2 0x891D DUP2 MSTORE POP DUP4 PUSH2 0x7B61 JUMP JUMPDEST SWAP1 POP SWAP5 SWAP4 POP POP POP POP JUMP JUMPDEST PUSH1 0x60 PUSH2 0x36F8 DUP5 DUP5 DUP5 PUSH2 0xFE7 JUMP JUMPDEST SWAP1 POP PUSH1 0x0 JUMPDEST DUP5 MLOAD DUP2 LT ISZERO PUSH2 0x37B5 JUMPI PUSH1 0x0 DUP3 DUP3 DUP2 MLOAD DUP2 LT PUSH2 0x3714 JUMPI INVALID JUMPDEST PUSH1 0x20 MUL PUSH1 0x20 ADD ADD MLOAD EQ PUSH2 0x37AA JUMPI PUSH2 0x3791 DUP3 DUP3 DUP2 MLOAD DUP2 LT PUSH2 0x3730 JUMPI INVALID JUMPDEST PUSH1 0x20 MUL PUSH1 0x20 ADD ADD MLOAD DUP7 DUP4 DUP2 MLOAD DUP2 LT PUSH2 0x3744 JUMPI INVALID JUMPDEST PUSH1 0x20 MUL PUSH1 0x20 ADD ADD MLOAD PUSH1 0x60 ADD MLOAD PUSH16 0xFFFFFFFFFFFFFFFFFFFFFFFFFFFFFFFF AND DUP8 DUP5 DUP2 MLOAD DUP2 LT PUSH2 0x376E JUMPI INVALID JUMPDEST PUSH1 0x20 MUL PUSH1 0x20 ADD ADD MLOAD PUSH1 0x40 ADD MLOAD PUSH16 0xFFFFFFFFFFFFFFFFFFFFFFFFFFFFFFFF AND PUSH2 0x8A4D JUMP JUMPDEST DUP3 DUP3 DUP2 MLOAD DUP2 LT PUSH2 0x379D JUMPI INVALID JUMPDEST PUSH1 0x20 MUL PUSH1 0x20 ADD ADD DUP2 DUP2 MSTORE POP POP JUMPDEST DUP1 PUSH1 0x1 ADD SWAP1 POP PUSH2 0x36FD JUMP JUMPDEST POP SWAP4 SWAP3 POP POP POP JUMP JUMPDEST PUSH1 0x60 DUP3 DUP3 SWAP1 POP PUSH8 0xFFFFFFFFFFFFFFFF DUP2 GT DUP1 ISZERO PUSH2 0x37D9 JUMPI PUSH1 0x0 DUP1 REVERT JUMPDEST POP PUSH1 0x40 MLOAD SWAP1 DUP1 DUP3 MSTORE DUP1 PUSH1 0x20 MUL PUSH1 0x20 ADD DUP3 ADD PUSH1 0x40 MSTORE DUP1 ISZERO PUSH2 0x3813 JUMPI DUP2 PUSH1 0x20 ADD JUMPDEST PUSH2 0x3800 PUSH2 0xA25B JUMP JUMPDEST DUP2 MSTORE PUSH1 0x20 ADD SWAP1 PUSH1 0x1 SWAP1 SUB SWAP1 DUP2 PUSH2 0x37F8 JUMPI SWAP1 POP JUMPDEST POP SWAP1 POP PUSH1 0x0 JUMPDEST DUP4 DUP4 SWAP1 POP DUP2 EQ PUSH2 0x3941 JUMPI PUSH1 0x1 DUP3 DUP3 DUP2 MLOAD DUP2 LT PUSH2 0x3831 JUMPI INVALID JUMPDEST PUSH1 0x20 MUL PUSH1 0x20 ADD ADD MLOAD PUSH1 0x20 ADD SWAP1 ISZERO ISZERO SWAP1 DUP2 ISZERO ISZERO DUP2 MSTORE POP POP PUSH1 0x0 DUP5 DUP5 DUP4 DUP2 DUP2 LT PUSH2 0x3855 JUMPI INVALID JUMPDEST SWAP1 POP PUSH1 0x20 MUL DUP2 ADD SWAP1 PUSH2 0x3867 SWAP2 SWAP1 PUSH2 0xCC85 JUMP JUMPDEST SWAP1 POP EQ ISZERO PUSH2 0x3874 JUMPI PUSH2 0x3936 JUMP JUMPDEST ADDRESS PUSH20 0xFFFFFFFFFFFFFFFFFFFFFFFFFFFFFFFFFFFFFFFF AND DUP5 DUP5 DUP4 DUP2 DUP2 LT PUSH2 0x3897 JUMPI INVALID JUMPDEST SWAP1 POP PUSH1 0x20 MUL DUP2 ADD SWAP1 PUSH2 0x38A9 SWAP2 SWAP1 PUSH2 0xCC85 JUMP JUMPDEST PUSH1 0x40 MLOAD PUSH2 0x38B7 SWAP3 SWAP2 SWAP1 PUSH2 0xC06C JUMP JUMPDEST PUSH1 0x0 PUSH1 0x40 MLOAD DUP1 DUP4 SUB DUP2 PUSH1 0x0 DUP7 GAS CALL SWAP2 POP POP RETURNDATASIZE DUP1 PUSH1 0x0 DUP2 EQ PUSH2 0x38F4 JUMPI PUSH1 0x40 MLOAD SWAP2 POP PUSH1 0x1F NOT PUSH1 0x3F RETURNDATASIZE ADD AND DUP3 ADD PUSH1 0x40 MSTORE RETURNDATASIZE DUP3 MSTORE RETURNDATASIZE PUSH1 0x0 PUSH1 0x20 DUP5 ADD RETURNDATACOPY PUSH2 0x38F9 JUMP JUMPDEST PUSH1 0x60 SWAP2 POP JUMPDEST POP DUP4 DUP4 DUP2 MLOAD DUP2 LT PUSH2 0x3906 JUMPI INVALID JUMPDEST PUSH1 0x20 MUL PUSH1 0x20 ADD ADD MLOAD PUSH1 0x20 ADD DUP5 DUP5 DUP2 MLOAD DUP2 LT PUSH2 0x391D JUMPI INVALID JUMPDEST PUSH1 0x20 MUL PUSH1 0x20 ADD ADD MLOAD PUSH1 0x0 ADD DUP3 SWAP1 MSTORE DUP3 ISZERO ISZERO ISZERO ISZERO DUP2 MSTORE POP POP POP JUMPDEST DUP1 PUSH1 0x1 ADD SWAP1 POP PUSH2 0x3819 JUMP JUMPDEST POP SWAP3 SWAP2 POP POP JUMP JUMPDEST PUSH1 0x60 DUP2 MLOAD PUSH8 0xFFFFFFFFFFFFFFFF DUP2 GT DUP1 ISZERO PUSH2 0x3962 JUMPI PUSH1 0x0 DUP1 REVERT JUMPDEST POP PUSH1 0x40 MLOAD SWAP1 DUP1 DUP3 MSTORE DUP1 PUSH1 0x20 MUL PUSH1 0x20 ADD DUP3 ADD PUSH1 0x40 MSTORE DUP1 ISZERO PUSH2 0x3991 JUMPI DUP2 PUSH1 0x20 ADD PUSH1 0x20 DUP3 MUL DUP1 CALLDATASIZE DUP4 CALLDATACOPY DUP1 DUP3 ADD SWAP2 POP POP SWAP1 POP JUMPDEST POP SWAP1 POP PUSH1 0x0 JUMPDEST DUP3 MLOAD DUP2 EQ PUSH2 0x3A67 JUMPI PUSH32 0x0 PUSH20 0xFFFFFFFFFFFFFFFFFFFFFFFFFFFFFFFFFFFFFFFF AND DUP4 DUP3 DUP2 MLOAD DUP2 LT PUSH2 0x39E2 JUMPI INVALID JUMPDEST PUSH1 0x20 MUL PUSH1 0x20 ADD ADD MLOAD PUSH20 0xFFFFFFFFFFFFFFFFFFFFFFFFFFFFFFFFFFFFFFFF AND EQ PUSH2 0x3A3C JUMPI PUSH2 0x3A37 DUP4 DUP3 DUP2 MLOAD DUP2 LT PUSH2 0x3A14 JUMPI INVALID JUMPDEST PUSH1 0x20 MUL PUSH1 0x20 ADD ADD MLOAD PUSH20 0xFFFFFFFFFFFFFFFFFFFFFFFFFFFFFFFFFFFFFFFF AND PUSH2 0x8AA2 JUMP JUMPDEST PUSH2 0x3A3F JUMP JUMPDEST PUSH1 0x12 JUMPDEST PUSH1 0xFF AND DUP3 DUP3 DUP2 MLOAD DUP2 LT PUSH2 0x3A4E JUMPI INVALID JUMPDEST PUSH1 0x20 MUL PUSH1 0x20 ADD ADD DUP2 DUP2 MSTORE POP POP DUP1 DUP1 PUSH1 0x1 ADD SWAP2 POP POP PUSH2 0x3997 JUMP JUMPDEST POP SWAP2 SWAP1 POP JUMP JUMPDEST PUSH1 0x0 PUSH1 0x60 DUP1 SWAP5 POP SWAP5 POP SWAP5 SWAP2 POP POP JUMP JUMPDEST PUSH1 0x60 PUSH2 0x3A88 DUP4 DUP6 PUSH2 0x72EB JUMP JUMPDEST PUSH1 0x0 DUP6 PUSH1 0x0 ADD MLOAD SWAP1 POP PUSH1 0x0 DUP2 PUSH20 0xFFFFFFFFFFFFFFFFFFFFFFFFFFFFFFFFFFFFFFFF AND PUSH4 0x36569E77 PUSH1 0x40 MLOAD DUP2 PUSH4 0xFFFFFFFF AND PUSH1 0xE0 SHL DUP2 MSTORE PUSH1 0x4 ADD PUSH1 0x20 PUSH1 0x40 MLOAD DUP1 DUP4 SUB DUP2 DUP7 DUP1 EXTCODESIZE ISZERO DUP1 ISZERO PUSH2 0x3AD9 JUMPI PUSH1 0x0 DUP1 REVERT JUMPDEST POP GAS STATICCALL ISZERO DUP1 ISZERO PUSH2 0x3AED JUMPI RETURNDATASIZE PUSH1 0x0 DUP1 RETURNDATACOPY RETURNDATASIZE PUSH1 0x0 REVERT JUMPDEST POP POP POP POP PUSH1 0x40 MLOAD RETURNDATASIZE PUSH1 0x1F NOT PUSH1 0x1F DUP3 ADD AND DUP3 ADD DUP1 PUSH1 0x40 MSTORE POP DUP2 ADD SWAP1 PUSH2 0x3B11 SWAP2 SWAP1 PUSH2 0xABCB JUMP JUMPDEST SWAP1 POP PUSH1 0x0 DUP5 MLOAD SWAP1 POP DUP1 PUSH8 0xFFFFFFFFFFFFFFFF DUP2 GT DUP1 ISZERO PUSH2 0x3B30 JUMPI PUSH1 0x0 DUP1 REVERT JUMPDEST POP PUSH1 0x40 MLOAD SWAP1 DUP1 DUP3 MSTORE DUP1 PUSH1 0x20 MUL PUSH1 0x20 ADD DUP3 ADD PUSH1 0x40 MSTORE DUP1 ISZERO PUSH2 0x3B5F JUMPI DUP2 PUSH1 0x20 ADD PUSH1 0x20 DUP3 MUL DUP1 CALLDATASIZE DUP4 CALLDATACOPY DUP1 DUP3 ADD SWAP2 POP POP SWAP1 POP JUMPDEST POP SWAP4 POP DUP3 PUSH20 0xFFFFFFFFFFFFFFFFFFFFFFFFFFFFFFFFFFFFFFFF AND PUSH4 0xF4B9FA75 PUSH1 0x40 MLOAD DUP2 PUSH4 0xFFFFFFFF AND PUSH1 0xE0 SHL DUP2 MSTORE PUSH1 0x4 ADD PUSH1 0x20 PUSH1 0x40 MLOAD DUP1 DUP4 SUB DUP2 DUP7 DUP1 EXTCODESIZE ISZERO DUP1 ISZERO PUSH2 0x3BA8 JUMPI PUSH1 0x0 DUP1 REVERT JUMPDEST POP GAS STATICCALL ISZERO DUP1 ISZERO PUSH2 0x3BBC JUMPI RETURNDATASIZE PUSH1 0x0 DUP1 RETURNDATACOPY RETURNDATASIZE PUSH1 0x0 REVERT JUMPDEST POP POP POP POP PUSH1 0x40 MLOAD RETURNDATASIZE PUSH1 0x1F NOT PUSH1 0x1F DUP3 ADD AND DUP3 ADD DUP1 PUSH1 0x40 MSTORE POP DUP2 ADD SWAP1 PUSH2 0x3BE0 SWAP2 SWAP1 PUSH2 0xABCB JUMP JUMPDEST PUSH20 0xFFFFFFFFFFFFFFFFFFFFFFFFFFFFFFFFFFFFFFFF AND DUP7 PUSH20 0xFFFFFFFFFFFFFFFFFFFFFFFFFFFFFFFFFFFFFFFF AND EQ ISZERO DUP1 ISZERO PUSH2 0x3CC4 JUMPI POP DUP3 PUSH20 0xFFFFFFFFFFFFFFFFFFFFFFFFFFFFFFFFFFFFFFFF AND PUSH4 0xF4B9FA75 PUSH1 0x40 MLOAD DUP2 PUSH4 0xFFFFFFFF AND PUSH1 0xE0 SHL DUP2 MSTORE PUSH1 0x4 ADD PUSH1 0x20 PUSH1 0x40 MLOAD DUP1 DUP4 SUB DUP2 DUP7 DUP1 EXTCODESIZE ISZERO DUP1 ISZERO PUSH2 0x3C5C JUMPI PUSH1 0x0 DUP1 REVERT JUMPDEST POP GAS STATICCALL ISZERO DUP1 ISZERO PUSH2 0x3C70 JUMPI RETURNDATASIZE PUSH1 0x0 DUP1 RETURNDATACOPY RETURNDATASIZE PUSH1 0x0 REVERT JUMPDEST POP POP POP POP PUSH1 0x40 MLOAD RETURNDATASIZE PUSH1 0x1F NOT PUSH1 0x1F DUP3 ADD AND DUP3 ADD DUP1 PUSH1 0x40 MSTORE POP DUP2 ADD SWAP1 PUSH2 0x3C94 SWAP2 SWAP1 PUSH2 0xABCB JUMP JUMPDEST PUSH20 0xFFFFFFFFFFFFFFFFFFFFFFFFFFFFFFFFFFFFFFFF AND DUP8 PUSH20 0xFFFFFFFFFFFFFFFFFFFFFFFFFFFFFFFFFFFFFFFF AND EQ ISZERO JUMPDEST ISZERO PUSH2 0x3CD1 JUMPI POP POP POP PUSH2 0x3D3C JUMP JUMPDEST PUSH1 0x0 JUMPDEST DUP2 DUP2 LT ISZERO PUSH2 0x3D37 JUMPI PUSH1 0x0 PUSH2 0x3CFF DUP11 DUP10 DUP12 DUP11 DUP7 DUP2 MLOAD DUP2 LT PUSH2 0x3CF0 JUMPI INVALID JUMPDEST PUSH1 0x20 MUL PUSH1 0x20 ADD ADD MLOAD DUP10 DUP10 PUSH2 0x8B74 JUMP JUMPDEST SWAP1 POP PUSH1 0x0 DUP2 EQ ISZERO PUSH2 0x3D10 JUMPI POP PUSH2 0x3D37 JUMP JUMPDEST DUP1 DUP7 DUP4 DUP2 MLOAD DUP2 LT PUSH2 0x3D1D JUMPI INVALID JUMPDEST PUSH1 0x20 MUL PUSH1 0x20 ADD ADD DUP2 DUP2 MSTORE POP POP POP DUP1 DUP1 PUSH1 0x1 ADD SWAP2 POP POP PUSH2 0x3CD4 JUMP JUMPDEST POP POP POP POP JUMPDEST SWAP5 SWAP4 POP POP POP POP JUMP JUMPDEST PUSH1 0x60 PUSH1 0x0 DUP6 PUSH1 0x0 ADD MLOAD PUSH20 0xFFFFFFFFFFFFFFFFFFFFFFFFFFFFFFFFFFFFFFFF AND PUSH4 0xBBD7F255 DUP6 PUSH1 0xF SIGNEXTEND PUSH1 0x40 MLOAD DUP3 PUSH4 0xFFFFFFFF AND PUSH1 0xE0 SHL DUP2 MSTORE PUSH1 0x4 ADD PUSH2 0x3D88 SWAP2 SWAP1 PUSH2 0xCC1E JUMP JUMPDEST PUSH1 0x20 PUSH1 0x40 MLOAD DUP1 DUP4 SUB DUP2 DUP7 DUP1 EXTCODESIZE ISZERO DUP1 ISZERO PUSH2 0x3DA0 JUMPI PUSH1 0x0 DUP1 REVERT JUMPDEST POP GAS STATICCALL ISZERO DUP1 ISZERO PUSH2 0x3DB4 JUMPI RETURNDATASIZE PUSH1 0x0 DUP1 RETURNDATACOPY RETURNDATASIZE PUSH1 0x0 REVERT JUMPDEST POP POP POP POP PUSH1 0x40 MLOAD RETURNDATASIZE PUSH1 0x1F NOT PUSH1 0x1F DUP3 ADD AND DUP3 ADD DUP1 PUSH1 0x40 MSTORE POP DUP2 ADD SWAP1 PUSH2 0x3DD8 SWAP2 SWAP1 PUSH2 0xBD27 JUMP JUMPDEST DUP7 PUSH1 0x0 ADD MLOAD PUSH20 0xFFFFFFFFFFFFFFFFFFFFFFFFFFFFFFFFFFFFFFFF AND PUSH4 0x1E010439 DUP7 PUSH1 0xF SIGNEXTEND PUSH1 0x40 MLOAD DUP3 PUSH4 0xFFFFFFFF AND PUSH1 0xE0 SHL DUP2 MSTORE PUSH1 0x4 ADD PUSH2 0x3E18 SWAP2 SWAP1 PUSH2 0xCC1E JUMP JUMPDEST PUSH1 0x20 PUSH1 0x40 MLOAD DUP1 DUP4 SUB DUP2 DUP7 DUP1 EXTCODESIZE ISZERO DUP1 ISZERO PUSH2 0x3E30 JUMPI PUSH1 0x0 DUP1 REVERT JUMPDEST POP GAS STATICCALL ISZERO DUP1 ISZERO PUSH2 0x3E44 JUMPI RETURNDATASIZE PUSH1 0x0 DUP1 RETURNDATACOPY RETURNDATASIZE PUSH1 0x0 REVERT JUMPDEST POP POP POP POP PUSH1 0x40 MLOAD RETURNDATASIZE PUSH1 0x1F NOT PUSH1 0x1F DUP3 ADD AND DUP3 ADD DUP1 PUSH1 0x40 MSTORE POP DUP2 ADD SWAP1 PUSH2 0x3E68 SWAP2 SWAP1 PUSH2 0xBD27 JUMP JUMPDEST SUB SWAP1 POP PUSH1 0x0 DUP7 PUSH1 0x0 ADD MLOAD PUSH20 0xFFFFFFFFFFFFFFFFFFFFFFFFFFFFFFFFFFFFFFFF AND PUSH4 0xC5829514 DUP7 PUSH1 0xF SIGNEXTEND PUSH1 0x40 MLOAD DUP3 PUSH4 0xFFFFFFFF AND PUSH1 0xE0 SHL DUP2 MSTORE PUSH1 0x4 ADD PUSH2 0x3EAD SWAP2 SWAP1 PUSH2 0xCC1E JUMP JUMPDEST PUSH1 0x80 PUSH1 0x40 MLOAD DUP1 DUP4 SUB DUP2 DUP7 DUP1 EXTCODESIZE ISZERO DUP1 ISZERO PUSH2 0x3EC5 JUMPI PUSH1 0x0 DUP1 REVERT JUMPDEST POP GAS STATICCALL ISZERO DUP1 ISZERO PUSH2 0x3ED9 JUMPI RETURNDATASIZE PUSH1 0x0 DUP1 RETURNDATACOPY RETURNDATASIZE PUSH1 0x0 REVERT JUMPDEST POP POP POP POP PUSH1 0x40 MLOAD RETURNDATASIZE PUSH1 0x1F NOT PUSH1 0x1F DUP3 ADD AND DUP3 ADD DUP1 PUSH1 0x40 MSTORE POP DUP2 ADD SWAP1 PUSH2 0x3EFD SWAP2 SWAP1 PUSH2 0xBD66 JUMP JUMPDEST SWAP4 POP POP POP POP DUP1 PUSH1 0x12 SUB PUSH1 0xA EXP DUP3 DUP2 PUSH2 0x3F11 JUMPI INVALID JUMPDEST DIV SWAP2 POP PUSH1 0x0 DUP5 MLOAD SWAP1 POP DUP1 PUSH8 0xFFFFFFFFFFFFFFFF DUP2 GT DUP1 ISZERO PUSH2 0x3F31 JUMPI PUSH1 0x0 DUP1 REVERT JUMPDEST POP PUSH1 0x40 MLOAD SWAP1 DUP1 DUP3 MSTORE DUP1 PUSH1 0x20 MUL PUSH1 0x20 ADD DUP3 ADD PUSH1 0x40 MSTORE DUP1 ISZERO PUSH2 0x3F60 JUMPI DUP2 PUSH1 0x20 ADD PUSH1 0x20 DUP3 MUL DUP1 CALLDATASIZE DUP4 CALLDATACOPY DUP1 DUP3 ADD SWAP2 POP POP SWAP1 POP JUMPDEST POP SWAP4 POP PUSH1 0x0 JUMPDEST DUP2 DUP2 LT ISZERO PUSH2 0x411E JUMPI PUSH1 0x0 PUSH1 0x60 DUP11 PUSH1 0x0 ADD MLOAD PUSH20 0xFFFFFFFFFFFFFFFFFFFFFFFFFFFFFFFFFFFFFFFF AND PUSH3 0x927C0 DUP13 PUSH1 0x20 ADD MLOAD DUP13 DUP13 DUP13 DUP9 DUP2 MLOAD DUP2 LT PUSH2 0x3FA4 JUMPI INVALID JUMPDEST PUSH1 0x20 MUL PUSH1 0x20 ADD ADD MLOAD PUSH1 0x40 MLOAD PUSH1 0x24 ADD PUSH2 0x3FBE SWAP4 SWAP3 SWAP2 SWAP1 PUSH2 0xC862 JUMP JUMPDEST PUSH1 0x40 MLOAD PUSH1 0x20 DUP2 DUP4 SUB SUB DUP2 MSTORE SWAP1 PUSH1 0x40 MSTORE SWAP1 PUSH28 0xFFFFFFFFFFFFFFFFFFFFFFFFFFFFFFFFFFFFFFFFFFFFFFFFFFFFFFFF NOT AND PUSH1 0x20 DUP3 ADD DUP1 MLOAD PUSH28 0xFFFFFFFFFFFFFFFFFFFFFFFFFFFFFFFFFFFFFFFFFFFFFFFFFFFFFFFF DUP4 DUP2 DUP4 AND OR DUP4 MSTORE POP POP POP POP PUSH1 0x40 MLOAD PUSH2 0x4028 SWAP2 SWAP1 PUSH2 0xC083 JUMP JUMPDEST PUSH1 0x0 PUSH1 0x40 MLOAD DUP1 DUP4 SUB DUP2 DUP7 DUP7 STATICCALL SWAP3 POP POP POP RETURNDATASIZE DUP1 PUSH1 0x0 DUP2 EQ PUSH2 0x4064 JUMPI PUSH1 0x40 MLOAD SWAP2 POP PUSH1 0x1F NOT PUSH1 0x3F RETURNDATASIZE ADD AND DUP3 ADD PUSH1 0x40 MSTORE RETURNDATASIZE DUP3 MSTORE RETURNDATASIZE PUSH1 0x0 PUSH1 0x20 DUP5 ADD RETURNDATACOPY PUSH2 0x4069 JUMP JUMPDEST PUSH1 0x60 SWAP2 POP JUMPDEST POP SWAP2 POP SWAP2 POP PUSH1 0x0 DUP3 ISZERO PUSH2 0x408D JUMPI DUP2 DUP1 PUSH1 0x20 ADD SWAP1 MLOAD DUP2 ADD SWAP1 PUSH2 0x408A SWAP2 SWAP1 PUSH2 0xBD27 JUMP JUMPDEST SWAP1 POP JUMPDEST DUP7 DUP2 LT PUSH2 0x40D1 JUMPI PUSH1 0x0 DUP5 SWAP1 POP JUMPDEST DUP6 DUP2 LT ISZERO PUSH2 0x40C8 JUMPI DUP8 DUP10 DUP3 DUP2 MLOAD DUP2 LT PUSH2 0x40AF JUMPI INVALID JUMPDEST PUSH1 0x20 MUL PUSH1 0x20 ADD ADD DUP2 DUP2 MSTORE POP POP DUP1 DUP1 PUSH1 0x1 ADD SWAP2 POP POP PUSH2 0x409A JUMP JUMPDEST POP POP POP POP PUSH2 0x411E JUMP JUMPDEST DUP1 DUP9 DUP6 DUP2 MLOAD DUP2 LT PUSH2 0x40DE JUMPI INVALID JUMPDEST PUSH1 0x20 MUL PUSH1 0x20 ADD ADD DUP2 DUP2 MSTORE POP POP PUSH1 0x0 DUP9 DUP6 DUP2 MLOAD DUP2 LT PUSH2 0x40F8 JUMPI INVALID JUMPDEST PUSH1 0x20 MUL PUSH1 0x20 ADD ADD MLOAD EQ ISZERO PUSH2 0x410E JUMPI POP POP POP PUSH2 0x411E JUMP JUMPDEST POP POP POP DUP1 DUP1 PUSH1 0x1 ADD SWAP2 POP POP PUSH2 0x3F66 JUMP JUMPDEST POP POP POP POP SWAP5 SWAP4 POP POP POP POP JUMP JUMPDEST PUSH2 0x4132 PUSH2 0xA277 JUMP JUMPDEST PUSH2 0x413A PUSH2 0xA277 JUMP JUMPDEST PUSH1 0x0 DUP1 PUSH1 0x0 SWAP1 POP PUSH1 0x0 JUMPDEST DUP8 MLOAD DUP2 EQ PUSH2 0x425B JUMPI PUSH2 0x418B PUSH1 0x20 DUP10 DUP4 DUP2 MLOAD DUP2 LT PUSH2 0x415D JUMPI INVALID JUMPDEST PUSH1 0x20 MUL PUSH1 0x20 ADD ADD MLOAD MLOAD SUB DUP8 DUP11 DUP5 DUP2 MLOAD DUP2 LT PUSH2 0x4174 JUMPI INVALID JUMPDEST PUSH1 0x20 MUL PUSH1 0x20 ADD ADD MLOAD PUSH2 0x8F49 SWAP1 SWAP3 SWAP2 SWAP1 PUSH4 0xFFFFFFFF AND JUMP JUMPDEST PUSH1 0x0 PUSH1 0x60 ADDRESS PUSH20 0xFFFFFFFFFFFFFFFFFFFFFFFFFFFFFFFFFFFFFFFF AND DUP11 DUP5 DUP2 MLOAD DUP2 LT PUSH2 0x41B2 JUMPI INVALID JUMPDEST PUSH1 0x20 MUL PUSH1 0x20 ADD ADD MLOAD PUSH1 0x40 MLOAD PUSH2 0x41C7 SWAP2 SWAP1 PUSH2 0xC083 JUMP JUMPDEST PUSH1 0x0 PUSH1 0x40 MLOAD DUP1 DUP4 SUB DUP2 DUP6 GAS STATICCALL SWAP2 POP POP RETURNDATASIZE DUP1 PUSH1 0x0 DUP2 EQ PUSH2 0x4202 JUMPI PUSH1 0x40 MLOAD SWAP2 POP PUSH1 0x1F NOT PUSH1 0x3F RETURNDATASIZE ADD AND DUP3 ADD PUSH1 0x40 MSTORE RETURNDATASIZE DUP3 MSTORE RETURNDATASIZE PUSH1 0x0 PUSH1 0x20 DUP5 ADD RETURNDATACOPY PUSH2 0x4207 JUMP JUMPDEST PUSH1 0x60 SWAP2 POP JUMPDEST POP SWAP2 POP SWAP2 POP DUP2 ISZERO PUSH2 0x424E JUMPI PUSH1 0x0 PUSH2 0x422B PUSH1 0x20 DUP4 MLOAD SUB DUP4 PUSH2 0x8F5C SWAP1 SWAP2 SWAP1 PUSH4 0xFFFFFFFF AND JUMP JUMPDEST SWAP1 POP DUP5 DUP2 GT ISZERO PUSH2 0x424C JUMPI DUP1 SWAP5 POP DUP4 DUP9 PUSH1 0x0 ADD DUP2 DUP2 MSTORE POP POP DUP2 DUP9 PUSH1 0x20 ADD DUP2 SWAP1 MSTORE POP JUMPDEST POP JUMPDEST POP POP DUP1 PUSH1 0x1 ADD SWAP1 POP PUSH2 0x4144 JUMP JUMPDEST POP PUSH1 0x0 DUP2 EQ ISZERO PUSH2 0x426B JUMPI POP PUSH2 0x4388 JUMP JUMPDEST PUSH1 0x0 JUMPDEST DUP7 MLOAD DUP2 EQ PUSH2 0x4385 JUMPI PUSH2 0x42B5 PUSH1 0x20 DUP9 DUP4 DUP2 MLOAD DUP2 LT PUSH2 0x4287 JUMPI INVALID JUMPDEST PUSH1 0x20 MUL PUSH1 0x20 ADD ADD MLOAD MLOAD SUB DUP4 DUP10 DUP5 DUP2 MLOAD DUP2 LT PUSH2 0x429E JUMPI INVALID JUMPDEST PUSH1 0x20 MUL PUSH1 0x20 ADD ADD MLOAD PUSH2 0x8F49 SWAP1 SWAP3 SWAP2 SWAP1 PUSH4 0xFFFFFFFF AND JUMP JUMPDEST PUSH1 0x0 PUSH1 0x60 ADDRESS PUSH20 0xFFFFFFFFFFFFFFFFFFFFFFFFFFFFFFFFFFFFFFFF AND DUP10 DUP5 DUP2 MLOAD DUP2 LT PUSH2 0x42DC JUMPI INVALID JUMPDEST PUSH1 0x20 MUL PUSH1 0x20 ADD ADD MLOAD PUSH1 0x40 MLOAD PUSH2 0x42F1 SWAP2 SWAP1 PUSH2 0xC083 JUMP JUMPDEST PUSH1 0x0 PUSH1 0x40 MLOAD DUP1 DUP4 SUB DUP2 DUP6 GAS STATICCALL SWAP2 POP POP RETURNDATASIZE DUP1 PUSH1 0x0 DUP2 EQ PUSH2 0x432C JUMPI PUSH1 0x40 MLOAD SWAP2 POP PUSH1 0x1F NOT PUSH1 0x3F RETURNDATASIZE ADD AND DUP3 ADD PUSH1 0x40 MSTORE RETURNDATASIZE DUP3 MSTORE RETURNDATASIZE PUSH1 0x0 PUSH1 0x20 DUP5 ADD RETURNDATACOPY PUSH2 0x4331 JUMP JUMPDEST PUSH1 0x60 SWAP2 POP JUMPDEST POP SWAP2 POP SWAP2 POP DUP2 ISZERO PUSH2 0x4378 JUMPI PUSH1 0x0 PUSH2 0x4355 PUSH1 0x20 DUP4 MLOAD SUB DUP4 PUSH2 0x8F5C SWAP1 SWAP2 SWAP1 PUSH4 0xFFFFFFFF AND JUMP JUMPDEST SWAP1 POP DUP6 DUP2 GT ISZERO PUSH2 0x4376 JUMPI DUP1 SWAP6 POP DUP4 DUP8 PUSH1 0x0 ADD DUP2 DUP2 MSTORE POP POP DUP2 DUP8 PUSH1 0x20 ADD DUP2 SWAP1 MSTORE POP JUMPDEST POP JUMPDEST POP POP DUP1 PUSH1 0x1 ADD SWAP1 POP PUSH2 0x426E JUMP JUMPDEST POP POP JUMPDEST SWAP4 POP SWAP4 POP SWAP4 SWAP1 POP JUMP JUMPDEST PUSH1 0x60 PUSH1 0x0 PUSH1 0xE0 SHL PUSH28 0xFFFFFFFFFFFFFFFFFFFFFFFFFFFFFFFFFFFFFFFFFFFFFFFFFFFFFFFF NOT AND DUP6 PUSH1 0x40 ADD MLOAD PUSH28 0xFFFFFFFFFFFFFFFFFFFFFFFFFFFFFFFFFFFFFFFFFFFFFFFFFFFFFFFF NOT AND EQ ISZERO PUSH2 0x4450 JUMPI PUSH2 0x4449 PUSH1 0x40 MLOAD DUP1 PUSH1 0x60 ADD PUSH1 0x40 MSTORE DUP1 DUP6 DUP9 PUSH1 0x40 MLOAD PUSH1 0x20 ADD PUSH2 0x4402 SWAP3 SWAP2 SWAP1 PUSH2 0xC887 JUMP JUMPDEST PUSH1 0x40 MLOAD PUSH1 0x20 DUP2 DUP4 SUB SUB DUP2 MSTORE SWAP1 PUSH1 0x40 MSTORE DUP2 MSTORE PUSH1 0x20 ADD DUP7 DUP9 PUSH1 0x40 MLOAD PUSH1 0x20 ADD PUSH2 0x4429 SWAP3 SWAP2 SWAP1 PUSH2 0xC887 JUMP JUMPDEST PUSH1 0x40 MLOAD PUSH1 0x20 DUP2 DUP4 SUB SUB DUP2 MSTORE SWAP1 PUSH1 0x40 MSTORE DUP2 MSTORE PUSH1 0x20 ADD PUSH2 0x8F73 DUP2 MSTORE POP DUP4 PUSH2 0x7B61 JUMP JUMPDEST SWAP1 POP PUSH2 0x4619 JUMP JUMPDEST PUSH1 0x0 DUP3 MLOAD SWAP1 POP DUP1 PUSH8 0xFFFFFFFFFFFFFFFF DUP2 GT DUP1 ISZERO PUSH2 0x446D JUMPI PUSH1 0x0 DUP1 REVERT JUMPDEST POP PUSH1 0x40 MLOAD SWAP1 DUP1 DUP3 MSTORE DUP1 PUSH1 0x20 MUL PUSH1 0x20 ADD DUP3 ADD PUSH1 0x40 MSTORE DUP1 ISZERO PUSH2 0x449C JUMPI DUP2 PUSH1 0x20 ADD PUSH1 0x20 DUP3 MUL DUP1 CALLDATASIZE DUP4 CALLDATACOPY DUP1 DUP3 ADD SWAP2 POP POP SWAP1 POP JUMPDEST POP SWAP2 POP PUSH1 0x0 JUMPDEST DUP2 DUP2 LT ISZERO PUSH2 0x4616 JUMPI PUSH1 0x0 PUSH1 0x60 DUP9 PUSH1 0x0 ADD MLOAD PUSH20 0xFFFFFFFFFFFFFFFFFFFFFFFFFFFFFFFFFFFFFFFF AND PUSH3 0x1E8480 DUP11 PUSH1 0x40 ADD MLOAD DUP11 DUP11 DUP11 DUP9 DUP2 MLOAD DUP2 LT PUSH2 0x44E0 JUMPI INVALID JUMPDEST PUSH1 0x20 MUL PUSH1 0x20 ADD ADD MLOAD PUSH1 0x40 MLOAD PUSH1 0x24 ADD PUSH2 0x44FA SWAP4 SWAP3 SWAP2 SWAP1 PUSH2 0xC862 JUMP JUMPDEST PUSH1 0x40 MLOAD PUSH1 0x20 DUP2 DUP4 SUB SUB DUP2 MSTORE SWAP1 PUSH1 0x40 MSTORE SWAP1 PUSH28 0xFFFFFFFFFFFFFFFFFFFFFFFFFFFFFFFFFFFFFFFFFFFFFFFFFFFFFFFF NOT AND PUSH1 0x20 DUP3 ADD DUP1 MLOAD PUSH28 0xFFFFFFFFFFFFFFFFFFFFFFFFFFFFFFFFFFFFFFFFFFFFFFFFFFFFFFFF DUP4 DUP2 DUP4 AND OR DUP4 MSTORE POP POP POP POP PUSH1 0x40 MLOAD PUSH2 0x4564 SWAP2 SWAP1 PUSH2 0xC083 JUMP JUMPDEST PUSH1 0x0 PUSH1 0x40 MLOAD DUP1 DUP4 SUB DUP2 DUP7 DUP7 STATICCALL SWAP3 POP POP POP RETURNDATASIZE DUP1 PUSH1 0x0 DUP2 EQ PUSH2 0x45A0 JUMPI PUSH1 0x40 MLOAD SWAP2 POP PUSH1 0x1F NOT PUSH1 0x3F RETURNDATASIZE ADD AND DUP3 ADD PUSH1 0x40 MSTORE RETURNDATASIZE DUP3 MSTORE RETURNDATASIZE PUSH1 0x0 PUSH1 0x20 DUP5 ADD RETURNDATACOPY PUSH2 0x45A5 JUMP JUMPDEST PUSH1 0x60 SWAP2 POP JUMPDEST POP SWAP2 POP SWAP2 POP PUSH1 0x0 DUP3 ISZERO PUSH2 0x45C9 JUMPI DUP2 DUP1 PUSH1 0x20 ADD SWAP1 MLOAD DUP2 ADD SWAP1 PUSH2 0x45C6 SWAP2 SWAP1 PUSH2 0xBD27 JUMP JUMPDEST SWAP1 POP JUMPDEST DUP1 DUP7 DUP6 DUP2 MLOAD DUP2 LT PUSH2 0x45D6 JUMPI INVALID JUMPDEST PUSH1 0x20 MUL PUSH1 0x20 ADD ADD DUP2 DUP2 MSTORE POP POP PUSH1 0x0 DUP7 DUP6 DUP2 MLOAD DUP2 LT PUSH2 0x45F0 JUMPI INVALID JUMPDEST PUSH1 0x20 MUL PUSH1 0x20 ADD ADD MLOAD EQ ISZERO PUSH2 0x4606 JUMPI POP POP POP PUSH2 0x4616 JUMP JUMPDEST POP POP POP DUP1 DUP1 PUSH1 0x1 ADD SWAP2 POP POP PUSH2 0x44A2 JUMP JUMPDEST POP POP JUMPDEST SWAP5 SWAP4 POP POP POP POP JUMP JUMPDEST PUSH1 0x60 PUSH1 0x0 DUP6 SWAP1 POP PUSH1 0x0 DUP4 MLOAD SWAP1 POP DUP1 PUSH8 0xFFFFFFFFFFFFFFFF DUP2 GT DUP1 ISZERO PUSH2 0x4645 JUMPI PUSH1 0x0 DUP1 REVERT JUMPDEST POP PUSH1 0x40 MLOAD SWAP1 DUP1 DUP3 MSTORE DUP1 PUSH1 0x20 MUL PUSH1 0x20 ADD DUP3 ADD PUSH1 0x40 MSTORE DUP1 ISZERO PUSH2 0x4674 JUMPI DUP2 PUSH1 0x20 ADD PUSH1 0x20 DUP3 MUL DUP1 CALLDATASIZE DUP4 CALLDATACOPY DUP1 DUP3 ADD SWAP2 POP POP SWAP1 POP JUMPDEST POP SWAP3 POP DUP2 PUSH20 0xFFFFFFFFFFFFFFFFFFFFFFFFFFFFFFFFFFFFFFFF AND PUSH4 0x2F37B624 DUP8 PUSH1 0x40 MLOAD DUP3 PUSH4 0xFFFFFFFF AND PUSH1 0xE0 SHL DUP2 MSTORE PUSH1 0x4 ADD PUSH2 0x46B0 SWAP2 SWAP1 PUSH2 0xC0A1 JUMP JUMPDEST PUSH1 0x20 PUSH1 0x40 MLOAD DUP1 DUP4 SUB DUP2 DUP7 DUP1 EXTCODESIZE ISZERO DUP1 ISZERO PUSH2 0x46C8 JUMPI PUSH1 0x0 DUP1 REVERT JUMPDEST POP GAS STATICCALL ISZERO DUP1 ISZERO PUSH2 0x46DC JUMPI RETURNDATASIZE PUSH1 0x0 DUP1 RETURNDATACOPY RETURNDATASIZE PUSH1 0x0 REVERT JUMPDEST POP POP POP POP PUSH1 0x40 MLOAD RETURNDATASIZE PUSH1 0x1F NOT PUSH1 0x1F DUP3 ADD AND DUP3 ADD DUP1 PUSH1 0x40 MSTORE POP DUP2 ADD SWAP1 PUSH2 0x4700 SWAP2 SWAP1 PUSH2 0xB543 JUMP JUMPDEST ISZERO DUP1 PUSH2 0x4792 JUMPI POP DUP2 PUSH20 0xFFFFFFFFFFFFFFFFFFFFFFFFFFFFFFFFFFFFFFFF AND PUSH4 0x2F37B624 DUP7 PUSH1 0x40 MLOAD DUP3 PUSH4 0xFFFFFFFF AND PUSH1 0xE0 SHL DUP2 MSTORE PUSH1 0x4 ADD PUSH2 0x4740 SWAP2 SWAP1 PUSH2 0xC0A1 JUMP JUMPDEST PUSH1 0x20 PUSH1 0x40 MLOAD DUP1 DUP4 SUB DUP2 DUP7 DUP1 EXTCODESIZE ISZERO DUP1 ISZERO PUSH2 0x4758 JUMPI PUSH1 0x0 DUP1 REVERT JUMPDEST POP GAS STATICCALL ISZERO DUP1 ISZERO PUSH2 0x476C JUMPI RETURNDATASIZE PUSH1 0x0 DUP1 RETURNDATACOPY RETURNDATASIZE PUSH1 0x0 REVERT JUMPDEST POP POP POP POP PUSH1 0x40 MLOAD RETURNDATASIZE PUSH1 0x1F NOT PUSH1 0x1F DUP3 ADD AND DUP3 ADD DUP1 PUSH1 0x40 MSTORE POP DUP2 ADD SWAP1 PUSH2 0x4790 SWAP2 SWAP1 PUSH2 0xB543 JUMP JUMPDEST ISZERO JUMPDEST ISZERO PUSH2 0x479E JUMPI POP POP PUSH2 0x4C01 JUMP JUMPDEST PUSH2 0x47A6 PUSH2 0xA22C JUMP JUMPDEST DUP3 PUSH20 0xFFFFFFFFFFFFFFFFFFFFFFFFFFFFFFFFFFFFFFFF AND PUSH4 0xF8B2CB4F DUP9 PUSH1 0x40 MLOAD DUP3 PUSH4 0xFFFFFFFF AND PUSH1 0xE0 SHL DUP2 MSTORE PUSH1 0x4 ADD PUSH2 0x47DF SWAP2 SWAP1 PUSH2 0xC0A1 JUMP JUMPDEST PUSH1 0x20 PUSH1 0x40 MLOAD DUP1 DUP4 SUB DUP2 DUP7 DUP1 EXTCODESIZE ISZERO DUP1 ISZERO PUSH2 0x47F7 JUMPI PUSH1 0x0 DUP1 REVERT JUMPDEST POP GAS STATICCALL ISZERO DUP1 ISZERO PUSH2 0x480B JUMPI RETURNDATASIZE PUSH1 0x0 DUP1 RETURNDATACOPY RETURNDATASIZE PUSH1 0x0 REVERT JUMPDEST POP POP POP POP PUSH1 0x40 MLOAD RETURNDATASIZE PUSH1 0x1F NOT PUSH1 0x1F DUP3 ADD AND DUP3 ADD DUP1 PUSH1 0x40 MSTORE POP DUP2 ADD SWAP1 PUSH2 0x482F SWAP2 SWAP1 PUSH2 0xBD27 JUMP JUMPDEST DUP2 PUSH1 0x0 ADD DUP2 DUP2 MSTORE POP POP DUP3 PUSH20 0xFFFFFFFFFFFFFFFFFFFFFFFFFFFFFFFFFFFFFFFF AND PUSH4 0xF8B2CB4F DUP8 PUSH1 0x40 MLOAD DUP3 PUSH4 0xFFFFFFFF AND PUSH1 0xE0 SHL DUP2 MSTORE PUSH1 0x4 ADD PUSH2 0x4871 SWAP2 SWAP1 PUSH2 0xC0A1 JUMP JUMPDEST PUSH1 0x20 PUSH1 0x40 MLOAD DUP1 DUP4 SUB DUP2 DUP7 DUP1 EXTCODESIZE ISZERO DUP1 ISZERO PUSH2 0x4889 JUMPI PUSH1 0x0 DUP1 REVERT JUMPDEST POP GAS STATICCALL ISZERO DUP1 ISZERO PUSH2 0x489D JUMPI RETURNDATASIZE PUSH1 0x0 DUP1 RETURNDATACOPY RETURNDATASIZE PUSH1 0x0 REVERT JUMPDEST POP POP POP POP PUSH1 0x40 MLOAD RETURNDATASIZE PUSH1 0x1F NOT PUSH1 0x1F DUP3 ADD AND DUP3 ADD DUP1 PUSH1 0x40 MSTORE POP DUP2 ADD SWAP1 PUSH2 0x48C1 SWAP2 SWAP1 PUSH2 0xBD27 JUMP JUMPDEST DUP2 PUSH1 0x20 ADD DUP2 DUP2 MSTORE POP POP DUP3 PUSH20 0xFFFFFFFFFFFFFFFFFFFFFFFFFFFFFFFFFFFFFFFF AND PUSH4 0x948D8CE6 DUP9 PUSH1 0x40 MLOAD DUP3 PUSH4 0xFFFFFFFF AND PUSH1 0xE0 SHL DUP2 MSTORE PUSH1 0x4 ADD PUSH2 0x4903 SWAP2 SWAP1 PUSH2 0xC0A1 JUMP JUMPDEST PUSH1 0x20 PUSH1 0x40 MLOAD DUP1 DUP4 SUB DUP2 DUP7 DUP1 EXTCODESIZE ISZERO DUP1 ISZERO PUSH2 0x491B JUMPI PUSH1 0x0 DUP1 REVERT JUMPDEST POP GAS STATICCALL ISZERO DUP1 ISZERO PUSH2 0x492F JUMPI RETURNDATASIZE PUSH1 0x0 DUP1 RETURNDATACOPY RETURNDATASIZE PUSH1 0x0 REVERT JUMPDEST POP POP POP POP PUSH1 0x40 MLOAD RETURNDATASIZE PUSH1 0x1F NOT PUSH1 0x1F DUP3 ADD AND DUP3 ADD DUP1 PUSH1 0x40 MSTORE POP DUP2 ADD SWAP1 PUSH2 0x4953 SWAP2 SWAP1 PUSH2 0xBD27 JUMP JUMPDEST DUP2 PUSH1 0x40 ADD DUP2 DUP2 MSTORE POP POP DUP3 PUSH20 0xFFFFFFFFFFFFFFFFFFFFFFFFFFFFFFFFFFFFFFFF AND PUSH4 0x948D8CE6 DUP8 PUSH1 0x40 MLOAD DUP3 PUSH4 0xFFFFFFFF AND PUSH1 0xE0 SHL DUP2 MSTORE PUSH1 0x4 ADD PUSH2 0x4995 SWAP2 SWAP1 PUSH2 0xC0A1 JUMP JUMPDEST PUSH1 0x20 PUSH1 0x40 MLOAD DUP1 DUP4 SUB DUP2 DUP7 DUP1 EXTCODESIZE ISZERO DUP1 ISZERO PUSH2 0x49AD JUMPI PUSH1 0x0 DUP1 REVERT JUMPDEST POP GAS STATICCALL ISZERO DUP1 ISZERO PUSH2 0x49C1 JUMPI RETURNDATASIZE PUSH1 0x0 DUP1 RETURNDATACOPY RETURNDATASIZE PUSH1 0x0 REVERT JUMPDEST POP POP POP POP PUSH1 0x40 MLOAD RETURNDATASIZE PUSH1 0x1F NOT PUSH1 0x1F DUP3 ADD AND DUP3 ADD DUP1 PUSH1 0x40 MSTORE POP DUP2 ADD SWAP1 PUSH2 0x49E5 SWAP2 SWAP1 PUSH2 0xBD27 JUMP JUMPDEST DUP2 PUSH1 0x60 ADD DUP2 DUP2 MSTORE POP POP DUP3 PUSH20 0xFFFFFFFFFFFFFFFFFFFFFFFFFFFFFFFFFFFFFFFF AND PUSH4 0xD4CADF68 PUSH1 0x40 MLOAD DUP2 PUSH4 0xFFFFFFFF AND PUSH1 0xE0 SHL DUP2 MSTORE PUSH1 0x4 ADD PUSH1 0x20 PUSH1 0x40 MLOAD DUP1 DUP4 SUB DUP2 DUP7 DUP1 EXTCODESIZE ISZERO DUP1 ISZERO PUSH2 0x4A34 JUMPI PUSH1 0x0 DUP1 REVERT JUMPDEST POP GAS STATICCALL ISZERO DUP1 ISZERO PUSH2 0x4A48 JUMPI RETURNDATASIZE PUSH1 0x0 DUP1 RETURNDATACOPY RETURNDATASIZE PUSH1 0x0 REVERT JUMPDEST POP POP POP POP PUSH1 0x40 MLOAD RETURNDATASIZE PUSH1 0x1F NOT PUSH1 0x1F DUP3 ADD AND DUP3 ADD DUP1 PUSH1 0x40 MSTORE POP DUP2 ADD SWAP1 PUSH2 0x4A6C SWAP2 SWAP1 PUSH2 0xBD27 JUMP JUMPDEST DUP2 PUSH1 0x80 ADD DUP2 DUP2 MSTORE POP POP PUSH1 0x0 JUMPDEST DUP3 DUP2 LT ISZERO PUSH2 0x4BFC JUMPI PUSH2 0x4AA0 DUP3 PUSH1 0x0 ADD MLOAD PUSH1 0x2 PUSH8 0xDE0B6B3A7640000 DUP2 PUSH2 0x4A9A JUMPI INVALID JUMPDEST DIV PUSH2 0x870B JUMP JUMPDEST DUP7 DUP3 DUP2 MLOAD DUP2 LT PUSH2 0x4AAC JUMPI INVALID JUMPDEST PUSH1 0x20 MUL PUSH1 0x20 ADD ADD MLOAD GT ISZERO PUSH2 0x4ABF JUMPI PUSH2 0x4BFC JUMP JUMPDEST DUP4 PUSH20 0xFFFFFFFFFFFFFFFFFFFFFFFFFFFFFFFFFFFFFFFF AND PUSH4 0xBA9530A6 PUSH3 0x493E0 DUP5 PUSH1 0x0 ADD MLOAD DUP6 PUSH1 0x40 ADD MLOAD DUP7 PUSH1 0x20 ADD MLOAD DUP8 PUSH1 0x60 ADD MLOAD DUP13 DUP9 DUP2 MLOAD DUP2 LT PUSH2 0x4AFF JUMPI INVALID JUMPDEST PUSH1 0x20 MUL PUSH1 0x20 ADD ADD MLOAD DUP10 PUSH1 0x80 ADD MLOAD PUSH1 0x40 MLOAD DUP9 PUSH4 0xFFFFFFFF AND PUSH1 0xE0 SHL DUP2 MSTORE PUSH1 0x4 ADD PUSH2 0x4B2D SWAP7 SWAP6 SWAP5 SWAP4 SWAP3 SWAP2 SWAP1 PUSH2 0xCC51 JUMP JUMPDEST PUSH1 0x20 PUSH1 0x40 MLOAD DUP1 DUP4 SUB DUP2 DUP8 DUP1 EXTCODESIZE ISZERO DUP1 ISZERO PUSH2 0x4B45 JUMPI PUSH1 0x0 DUP1 REVERT JUMPDEST POP DUP7 STATICCALL SWAP4 POP POP POP POP DUP1 ISZERO PUSH2 0x4B77 JUMPI POP PUSH1 0x40 MLOAD RETURNDATASIZE PUSH1 0x1F NOT PUSH1 0x1F DUP3 ADD AND DUP3 ADD DUP1 PUSH1 0x40 MSTORE POP DUP2 ADD SWAP1 PUSH2 0x4B74 SWAP2 SWAP1 PUSH2 0xBD27 JUMP JUMPDEST PUSH1 0x1 JUMPDEST PUSH2 0x4BB3 JUMPI RETURNDATASIZE DUP1 PUSH1 0x0 DUP2 EQ PUSH2 0x4BA7 JUMPI PUSH1 0x40 MLOAD SWAP2 POP PUSH1 0x1F NOT PUSH1 0x3F RETURNDATASIZE ADD AND DUP3 ADD PUSH1 0x40 MSTORE RETURNDATASIZE DUP3 MSTORE RETURNDATASIZE PUSH1 0x0 PUSH1 0x20 DUP5 ADD RETURNDATACOPY PUSH2 0x4BAC JUMP JUMPDEST PUSH1 0x60 SWAP2 POP JUMPDEST POP POP PUSH2 0x4BFC JUMP JUMPDEST DUP1 DUP7 DUP4 DUP2 MLOAD DUP2 LT PUSH2 0x4BC0 JUMPI INVALID JUMPDEST PUSH1 0x20 MUL PUSH1 0x20 ADD ADD DUP2 DUP2 MSTORE POP POP PUSH1 0x0 DUP7 DUP4 DUP2 MLOAD DUP2 LT PUSH2 0x4BDA JUMPI INVALID JUMPDEST PUSH1 0x20 MUL PUSH1 0x20 ADD ADD MLOAD EQ ISZERO PUSH2 0x4BEE JUMPI POP PUSH2 0x4BFC JUMP JUMPDEST POP DUP1 DUP1 PUSH1 0x1 ADD SWAP2 POP POP PUSH2 0x4A78 JUMP JUMPDEST POP POP POP POP JUMPDEST SWAP5 SWAP4 POP POP POP POP JUMP JUMPDEST PUSH1 0x0 DUP4 PUSH1 0x60 ADD MLOAD PUSH16 0xFFFFFFFFFFFFFFFFFFFFFFFFFFFFFFFF AND DUP5 PUSH2 0x160 ADD MLOAD PUSH1 0x40 MLOAD PUSH1 0x20 ADD PUSH2 0x4C38 SWAP2 SWAP1 PUSH2 0xCC1E JUMP JUMPDEST PUSH1 0x40 MLOAD PUSH1 0x20 DUP2 DUP4 SUB SUB DUP2 MSTORE SWAP1 PUSH1 0x40 MSTORE DUP1 MLOAD SWAP1 PUSH1 0x20 ADD KECCAK256 PUSH1 0x0 SHR DUP2 PUSH2 0x4C58 JUMPI INVALID JUMPDEST MOD SWAP1 POP SWAP4 SWAP3 POP POP POP JUMP JUMPDEST PUSH1 0x0 PUSH1 0x60 DUP1 PUSH2 0x4C71 DUP6 DUP8 PUSH2 0x72EB JUMP JUMPDEST PUSH2 0x4C7C DUP8 DUP8 DUP8 PUSH2 0x90E9 JUMP JUMPDEST SWAP3 POP PUSH1 0x0 DUP1 SHL DUP4 EQ ISZERO PUSH2 0x4C8E JUMPI PUSH2 0x4D9C JUMP JUMPDEST ADDRESS PUSH20 0xFFFFFFFFFFFFFFFFFFFFFFFFFFFFFFFFFFFFFFFF AND PUSH4 0x4EDFB5B2 DUP9 DUP6 DUP10 DUP10 PUSH1 0x40 MLOAD DUP6 PUSH4 0xFFFFFFFF AND PUSH1 0xE0 SHL DUP2 MSTORE PUSH1 0x4 ADD PUSH2 0x4CCD SWAP5 SWAP4 SWAP3 SWAP2 SWAP1 PUSH2 0xCAA6 JUMP JUMPDEST PUSH1 0x0 PUSH1 0x40 MLOAD DUP1 DUP4 SUB DUP2 DUP7 DUP1 EXTCODESIZE ISZERO DUP1 ISZERO PUSH2 0x4CE5 JUMPI PUSH1 0x0 DUP1 REVERT JUMPDEST POP GAS STATICCALL ISZERO DUP1 ISZERO PUSH2 0x4CF9 JUMPI RETURNDATASIZE PUSH1 0x0 DUP1 RETURNDATACOPY RETURNDATASIZE PUSH1 0x0 REVERT JUMPDEST POP POP POP POP PUSH1 0x40 MLOAD RETURNDATASIZE PUSH1 0x0 DUP3 RETURNDATACOPY RETURNDATASIZE PUSH1 0x1F NOT PUSH1 0x1F DUP3 ADD AND DUP3 ADD DUP1 PUSH1 0x40 MSTORE POP DUP2 ADD SWAP1 PUSH2 0x4D22 SWAP2 SWAP1 PUSH2 0xB5DD JUMP JUMPDEST DUP8 PUSH1 0x80 ADD DUP2 SWAP1 MSTORE POP DUP7 PUSH1 0x80 ADD MLOAD SWAP2 POP PUSH2 0x4D99 PUSH1 0x40 MLOAD DUP1 PUSH1 0x60 ADD PUSH1 0x40 MSTORE DUP1 DUP8 DUP11 PUSH1 0x40 MLOAD PUSH1 0x20 ADD PUSH2 0x4D52 SWAP3 SWAP2 SWAP1 PUSH2 0xC3BA JUMP JUMPDEST PUSH1 0x40 MLOAD PUSH1 0x20 DUP2 DUP4 SUB SUB DUP2 MSTORE SWAP1 PUSH1 0x40 MSTORE DUP2 MSTORE PUSH1 0x20 ADD DUP9 DUP11 PUSH1 0x40 MLOAD PUSH1 0x20 ADD PUSH2 0x4D79 SWAP3 SWAP2 SWAP1 PUSH2 0xC3BA JUMP JUMPDEST PUSH1 0x40 MLOAD PUSH1 0x20 DUP2 DUP4 SUB SUB DUP2 MSTORE SWAP1 PUSH1 0x40 MSTORE DUP2 MSTORE PUSH1 0x20 ADD PUSH2 0x92D7 DUP2 MSTORE POP DUP6 PUSH2 0x7B61 JUMP JUMPDEST SWAP1 POP JUMPDEST SWAP5 POP SWAP5 POP SWAP5 SWAP2 POP POP JUMP JUMPDEST PUSH1 0x0 DUP1 DUP6 PUSH20 0xFFFFFFFFFFFFFFFFFFFFFFFFFFFFFFFFFFFFFFFF AND PUSH4 0x901754D7 DUP7 DUP7 PUSH1 0x40 MLOAD DUP4 PUSH4 0xFFFFFFFF AND PUSH1 0xE0 SHL DUP2 MSTORE PUSH1 0x4 ADD PUSH2 0x4DE4 SWAP3 SWAP2 SWAP1 PUSH2 0xC0F3 JUMP JUMPDEST PUSH1 0x20 PUSH1 0x40 MLOAD DUP1 DUP4 SUB DUP2 DUP7 DUP1 EXTCODESIZE ISZERO DUP1 ISZERO PUSH2 0x4DFC JUMPI PUSH1 0x0 DUP1 REVERT JUMPDEST POP GAS STATICCALL ISZERO DUP1 ISZERO PUSH2 0x4E10 JUMPI RETURNDATASIZE PUSH1 0x0 DUP1 RETURNDATACOPY RETURNDATASIZE PUSH1 0x0 REVERT JUMPDEST POP POP POP POP PUSH1 0x40 MLOAD RETURNDATASIZE PUSH1 0x1F NOT PUSH1 0x1F DUP3 ADD AND DUP3 ADD DUP1 PUSH1 0x40 MSTORE POP DUP2 ADD SWAP1 PUSH2 0x4E34 SWAP2 SWAP1 PUSH2 0xABCB JUMP JUMPDEST SWAP1 POP PUSH1 0x0 PUSH20 0xFFFFFFFFFFFFFFFFFFFFFFFFFFFFFFFFFFFFFFFF AND DUP2 PUSH20 0xFFFFFFFFFFFFFFFFFFFFFFFFFFFFFFFFFFFFFFFF AND EQ ISZERO PUSH2 0x4E75 JUMPI PUSH1 0x0 SWAP2 POP POP PUSH2 0x503A JUMP JUMPDEST PUSH1 0x0 DUP1 PUSH20 0xFFFFFFFFFFFFFFFFFFFFFFFFFFFFFFFFFFFFFFFF AND DUP7 PUSH20 0xFFFFFFFFFFFFFFFFFFFFFFFFFFFFFFFFFFFFFFFF AND EQ PUSH2 0x4F38 JUMPI DUP6 PUSH20 0xFFFFFFFFFFFFFFFFFFFFFFFFFFFFFFFFFFFFFFFF AND PUSH4 0x70A08231 DUP4 PUSH1 0x40 MLOAD DUP3 PUSH4 0xFFFFFFFF AND PUSH1 0xE0 SHL DUP2 MSTORE PUSH1 0x4 ADD PUSH2 0x4EE3 SWAP2 SWAP1 PUSH2 0xC0A1 JUMP JUMPDEST PUSH1 0x20 PUSH1 0x40 MLOAD DUP1 DUP4 SUB DUP2 DUP7 DUP1 EXTCODESIZE ISZERO DUP1 ISZERO PUSH2 0x4EFB JUMPI PUSH1 0x0 DUP1 REVERT JUMPDEST POP GAS STATICCALL ISZERO DUP1 ISZERO PUSH2 0x4F0F JUMPI RETURNDATASIZE PUSH1 0x0 DUP1 RETURNDATACOPY RETURNDATASIZE PUSH1 0x0 REVERT JUMPDEST POP POP POP POP PUSH1 0x40 MLOAD RETURNDATASIZE PUSH1 0x1F NOT PUSH1 0x1F DUP3 ADD AND DUP3 ADD DUP1 PUSH1 0x40 MSTORE POP DUP2 ADD SWAP1 PUSH2 0x4F33 SWAP2 SWAP1 PUSH2 0xBD27 JUMP JUMPDEST PUSH2 0x4F51 JUMP JUMPDEST DUP2 PUSH20 0xFFFFFFFFFFFFFFFFFFFFFFFFFFFFFFFFFFFFFFFF AND BALANCE JUMPDEST SWAP1 POP DUP4 DUP2 LT ISZERO PUSH2 0x4F66 JUMPI PUSH1 0x0 SWAP3 POP POP POP PUSH2 0x503A JUMP JUMPDEST DUP2 PUSH20 0xFFFFFFFFFFFFFFFFFFFFFFFFFFFFFFFFFFFFFFFF AND PUSH4 0x1E1401F8 PUSH3 0x249F0 DUP9 DUP9 DUP9 PUSH1 0x40 MLOAD DUP6 PUSH4 0xFFFFFFFF AND PUSH1 0xE0 SHL DUP2 MSTORE PUSH1 0x4 ADD PUSH2 0x4FA7 SWAP4 SWAP3 SWAP2 SWAP1 PUSH2 0xC22A JUMP JUMPDEST PUSH1 0x20 PUSH1 0x40 MLOAD DUP1 DUP4 SUB DUP2 DUP8 DUP1 EXTCODESIZE ISZERO DUP1 ISZERO PUSH2 0x4FBF JUMPI PUSH1 0x0 DUP1 REVERT JUMPDEST POP DUP7 STATICCALL SWAP4 POP POP POP POP DUP1 ISZERO PUSH2 0x4FF1 JUMPI POP PUSH1 0x40 MLOAD RETURNDATASIZE PUSH1 0x1F NOT PUSH1 0x1F DUP3 ADD AND DUP3 ADD DUP1 PUSH1 0x40 MSTORE POP DUP2 ADD SWAP1 PUSH2 0x4FEE SWAP2 SWAP1 PUSH2 0xBD27 JUMP JUMPDEST PUSH1 0x1 JUMPDEST PUSH2 0x5033 JUMPI RETURNDATASIZE DUP1 PUSH1 0x0 DUP2 EQ PUSH2 0x5021 JUMPI PUSH1 0x40 MLOAD SWAP2 POP PUSH1 0x1F NOT PUSH1 0x3F RETURNDATASIZE ADD AND DUP3 ADD PUSH1 0x40 MSTORE RETURNDATASIZE DUP3 MSTORE RETURNDATASIZE PUSH1 0x0 PUSH1 0x20 DUP5 ADD RETURNDATACOPY PUSH2 0x5026 JUMP JUMPDEST PUSH1 0x60 SWAP2 POP JUMPDEST POP PUSH1 0x0 SWAP4 POP POP POP POP PUSH2 0x503A JUMP JUMPDEST DUP1 SWAP4 POP POP POP POP JUMPDEST SWAP5 SWAP4 POP POP POP POP JUMP JUMPDEST PUSH1 0x60 PUSH2 0x504E DUP4 DUP6 PUSH2 0x72EB JUMP JUMPDEST PUSH1 0x0 DUP6 PUSH1 0x20 ADD MLOAD SWAP1 POP PUSH1 0x60 PUSH1 0x2 PUSH8 0xFFFFFFFFFFFFFFFF DUP2 GT DUP1 ISZERO PUSH2 0x5071 JUMPI PUSH1 0x0 DUP1 REVERT JUMPDEST POP PUSH1 0x40 MLOAD SWAP1 DUP1 DUP3 MSTORE DUP1 PUSH1 0x20 MUL PUSH1 0x20 ADD DUP3 ADD PUSH1 0x40 MSTORE DUP1 ISZERO PUSH2 0x50A0 JUMPI DUP2 PUSH1 0x20 ADD PUSH1 0x20 DUP3 MUL DUP1 CALLDATASIZE DUP4 CALLDATACOPY DUP1 DUP3 ADD SWAP2 POP POP SWAP1 POP JUMPDEST POP SWAP1 POP DUP6 DUP2 PUSH1 0x0 DUP2 MLOAD DUP2 LT PUSH2 0x50B1 JUMPI INVALID JUMPDEST PUSH1 0x20 MUL PUSH1 0x20 ADD ADD SWAP1 PUSH20 0xFFFFFFFFFFFFFFFFFFFFFFFFFFFFFFFFFFFFFFFF AND SWAP1 DUP2 PUSH20 0xFFFFFFFFFFFFFFFFFFFFFFFFFFFFFFFFFFFFFFFF AND DUP2 MSTORE POP POP DUP5 DUP2 PUSH1 0x1 DUP2 MLOAD DUP2 LT PUSH2 0x50F9 JUMPI INVALID JUMPDEST PUSH1 0x20 MUL PUSH1 0x20 ADD ADD SWAP1 PUSH20 0xFFFFFFFFFFFFFFFFFFFFFFFFFFFFFFFFFFFFFFFF AND SWAP1 DUP2 PUSH20 0xFFFFFFFFFFFFFFFFFFFFFFFFFFFFFFFFFFFFFFFF AND DUP2 MSTORE POP POP PUSH1 0x0 DUP5 MLOAD SWAP1 POP DUP1 PUSH8 0xFFFFFFFFFFFFFFFF DUP2 GT DUP1 ISZERO PUSH2 0x5150 JUMPI PUSH1 0x0 DUP1 REVERT JUMPDEST POP PUSH1 0x40 MLOAD SWAP1 DUP1 DUP3 MSTORE DUP1 PUSH1 0x20 MUL PUSH1 0x20 ADD DUP3 ADD PUSH1 0x40 MSTORE DUP1 ISZERO PUSH2 0x517F JUMPI DUP2 PUSH1 0x20 ADD PUSH1 0x20 DUP3 MUL DUP1 CALLDATASIZE DUP4 CALLDATACOPY DUP1 DUP3 ADD SWAP2 POP POP SWAP1 POP JUMPDEST POP SWAP4 POP PUSH2 0x518A PUSH2 0xA1D4 JUMP JUMPDEST PUSH2 0x5192 PUSH2 0x735E JUMP JUMPDEST SWAP1 POP PUSH1 0x0 JUMPDEST DUP3 DUP2 LT ISZERO PUSH2 0x52DF JUMPI PUSH1 0x60 PUSH2 0x51BE DUP12 DUP10 DUP5 DUP2 MLOAD DUP2 LT PUSH2 0x51B1 JUMPI INVALID JUMPDEST PUSH1 0x20 MUL PUSH1 0x20 ADD ADD MLOAD PUSH2 0x73BE JUMP JUMPDEST SWAP1 POP DUP6 PUSH20 0xFFFFFFFFFFFFFFFFFFFFFFFFFFFFFFFFFFFFFFFF AND PUSH4 0xF84D066E PUSH1 0x1 DUP4 DUP9 DUP8 PUSH1 0x40 MLOAD DUP6 PUSH4 0xFFFFFFFF AND PUSH1 0xE0 SHL DUP2 MSTORE PUSH1 0x4 ADD PUSH2 0x5200 SWAP5 SWAP4 SWAP3 SWAP2 SWAP1 PUSH2 0xC796 JUMP JUMPDEST PUSH1 0x0 PUSH1 0x40 MLOAD DUP1 DUP4 SUB DUP2 PUSH1 0x0 DUP8 DUP1 EXTCODESIZE ISZERO DUP1 ISZERO PUSH2 0x521A JUMPI PUSH1 0x0 DUP1 REVERT JUMPDEST POP GAS CALL SWAP3 POP POP POP DUP1 ISZERO PUSH2 0x5250 JUMPI POP PUSH1 0x40 MLOAD RETURNDATASIZE PUSH1 0x0 DUP3 RETURNDATACOPY RETURNDATASIZE PUSH1 0x1F NOT PUSH1 0x1F DUP3 ADD AND DUP3 ADD DUP1 PUSH1 0x40 MSTORE POP DUP2 ADD SWAP1 PUSH2 0x524D SWAP2 SWAP1 PUSH2 0xB385 JUMP JUMPDEST PUSH1 0x1 JUMPDEST PUSH2 0x528D JUMPI RETURNDATASIZE DUP1 PUSH1 0x0 DUP2 EQ PUSH2 0x5280 JUMPI PUSH1 0x40 MLOAD SWAP2 POP PUSH1 0x1F NOT PUSH1 0x3F RETURNDATASIZE ADD AND DUP3 ADD PUSH1 0x40 MSTORE RETURNDATASIZE DUP3 MSTORE RETURNDATASIZE PUSH1 0x0 PUSH1 0x20 DUP5 ADD RETURNDATACOPY PUSH2 0x5285 JUMP JUMPDEST PUSH1 0x60 SWAP2 POP JUMPDEST POP POP POP PUSH2 0x52DF JUMP JUMPDEST PUSH1 0x0 DUP2 PUSH1 0x0 DUP2 MLOAD DUP2 LT PUSH2 0x529C JUMPI INVALID JUMPDEST PUSH1 0x20 MUL PUSH1 0x20 ADD ADD MLOAD SWAP1 POP PUSH1 0x0 DUP2 SGT PUSH2 0x52B6 JUMPI POP POP POP PUSH2 0x52DF JUMP JUMPDEST DUP1 DUP10 DUP6 DUP2 MLOAD DUP2 LT PUSH2 0x52C3 JUMPI INVALID JUMPDEST PUSH1 0x20 MUL PUSH1 0x20 ADD ADD DUP2 DUP2 MSTORE POP POP POP POP POP DUP1 DUP1 PUSH1 0x1 ADD SWAP2 POP POP PUSH2 0x5197 JUMP JUMPDEST POP POP POP POP POP SWAP5 SWAP4 POP POP POP POP JUMP JUMPDEST PUSH1 0x3 PUSH1 0x0 SWAP1 SLOAD SWAP1 PUSH2 0x100 EXP SWAP1 DIV PUSH20 0xFFFFFFFFFFFFFFFFFFFFFFFFFFFFFFFFFFFFFFFF AND DUP2 JUMP JUMPDEST PUSH1 0x60 PUSH1 0x0 DUP3 MLOAD SWAP1 POP DUP1 PUSH8 0xFFFFFFFFFFFFFFFF DUP2 GT DUP1 ISZERO PUSH2 0x5331 JUMPI PUSH1 0x0 DUP1 REVERT JUMPDEST POP PUSH1 0x40 MLOAD SWAP1 DUP1 DUP3 MSTORE DUP1 PUSH1 0x20 MUL PUSH1 0x20 ADD DUP3 ADD PUSH1 0x40 MSTORE DUP1 ISZERO PUSH2 0x5360 JUMPI DUP2 PUSH1 0x20 ADD PUSH1 0x20 DUP3 MUL DUP1 CALLDATASIZE DUP4 CALLDATACOPY DUP1 DUP3 ADD SWAP2 POP POP SWAP1 POP JUMPDEST POP SWAP2 POP PUSH1 0x0 JUMPDEST DUP2 DUP2 LT ISZERO PUSH2 0x5491 JUMPI DUP7 PUSH20 0xFFFFFFFFFFFFFFFFFFFFFFFFFFFFFFFFFFFFFFFF AND PUSH4 0x343FBCDD PUSH3 0x61A80 DUP9 DUP9 DUP9 DUP7 DUP2 MLOAD DUP2 LT PUSH2 0x539C JUMPI INVALID JUMPDEST PUSH1 0x20 MUL PUSH1 0x20 ADD ADD MLOAD PUSH1 0x40 MLOAD DUP6 PUSH4 0xFFFFFFFF AND PUSH1 0xE0 SHL DUP2 MSTORE PUSH1 0x4 ADD PUSH2 0x53C2 SWAP4 SWAP3 SWAP2 SWAP1 PUSH2 0xC68C JUMP JUMPDEST PUSH1 0x20 PUSH1 0x40 MLOAD DUP1 DUP4 SUB DUP2 DUP8 DUP1 EXTCODESIZE ISZERO DUP1 ISZERO PUSH2 0x53DA JUMPI PUSH1 0x0 DUP1 REVERT JUMPDEST POP DUP7 STATICCALL SWAP4 POP POP POP POP DUP1 ISZERO PUSH2 0x540C JUMPI POP PUSH1 0x40 MLOAD RETURNDATASIZE PUSH1 0x1F NOT PUSH1 0x1F DUP3 ADD AND DUP3 ADD DUP1 PUSH1 0x40 MSTORE POP DUP2 ADD SWAP1 PUSH2 0x5409 SWAP2 SWAP1 PUSH2 0xBD27 JUMP JUMPDEST PUSH1 0x1 JUMPDEST PUSH2 0x5448 JUMPI RETURNDATASIZE DUP1 PUSH1 0x0 DUP2 EQ PUSH2 0x543C JUMPI PUSH1 0x40 MLOAD SWAP2 POP PUSH1 0x1F NOT PUSH1 0x3F RETURNDATASIZE ADD AND DUP3 ADD PUSH1 0x40 MSTORE RETURNDATASIZE DUP3 MSTORE RETURNDATASIZE PUSH1 0x0 PUSH1 0x20 DUP5 ADD RETURNDATACOPY PUSH2 0x5441 JUMP JUMPDEST PUSH1 0x60 SWAP2 POP JUMPDEST POP POP PUSH2 0x5491 JUMP JUMPDEST DUP1 DUP5 DUP4 DUP2 MLOAD DUP2 LT PUSH2 0x5455 JUMPI INVALID JUMPDEST PUSH1 0x20 MUL PUSH1 0x20 ADD ADD DUP2 DUP2 MSTORE POP POP PUSH1 0x0 DUP5 DUP4 DUP2 MLOAD DUP2 LT PUSH2 0x546F JUMPI INVALID JUMPDEST PUSH1 0x20 MUL PUSH1 0x20 ADD ADD MLOAD EQ ISZERO PUSH2 0x5483 JUMPI POP PUSH2 0x5491 JUMP JUMPDEST POP DUP1 DUP1 PUSH1 0x1 ADD SWAP2 POP POP PUSH2 0x5366 JUMP JUMPDEST POP POP SWAP5 SWAP4 POP POP POP POP JUMP JUMPDEST PUSH1 0x0 DUP1 PUSH1 0x60 PUSH2 0x54AA DUP6 DUP8 PUSH2 0x72EB JUMP JUMPDEST PUSH1 0x0 DUP5 MLOAD SWAP1 POP DUP1 PUSH8 0xFFFFFFFFFFFFFFFF DUP2 GT DUP1 ISZERO PUSH2 0x54C7 JUMPI PUSH1 0x0 DUP1 REVERT JUMPDEST POP PUSH1 0x40 MLOAD SWAP1 DUP1 DUP3 MSTORE DUP1 PUSH1 0x20 MUL PUSH1 0x20 ADD DUP3 ADD PUSH1 0x40 MSTORE DUP1 ISZERO PUSH2 0x54F6 JUMPI DUP2 PUSH1 0x20 ADD PUSH1 0x20 DUP3 MUL DUP1 CALLDATASIZE DUP4 CALLDATACOPY DUP1 DUP3 ADD SWAP2 POP POP SWAP1 POP JUMPDEST POP SWAP2 POP PUSH2 0x5505 DUP10 DUP10 DUP10 DUP10 PUSH2 0x93ED JUMP JUMPDEST DUP1 SWAP6 POP DUP2 SWAP5 POP POP POP PUSH1 0x0 PUSH20 0xFFFFFFFFFFFFFFFFFFFFFFFFFFFFFFFFFFFFFFFF AND DUP4 PUSH20 0xFFFFFFFFFFFFFFFFFFFFFFFFFFFFFFFFFFFFFFFF AND EQ ISZERO PUSH2 0x5548 JUMPI POP PUSH2 0x5607 JUMP JUMPDEST PUSH1 0x0 JUMPDEST DUP2 DUP2 LT ISZERO PUSH2 0x5604 JUMPI PUSH1 0x0 PUSH2 0x55B9 DUP10 DUP7 DUP9 PUSH1 0x40 MLOAD PUSH1 0x20 ADD PUSH2 0x556D SWAP4 SWAP3 SWAP2 SWAP1 PUSH2 0xC1BF JUMP JUMPDEST PUSH1 0x40 MLOAD PUSH1 0x20 DUP2 DUP4 SUB SUB DUP2 MSTORE SWAP1 PUSH1 0x40 MSTORE DUP10 DUP8 DUP10 PUSH1 0x40 MLOAD PUSH1 0x20 ADD PUSH2 0x5591 SWAP4 SWAP3 SWAP2 SWAP1 PUSH2 0xC1BF JUMP JUMPDEST PUSH1 0x40 MLOAD PUSH1 0x20 DUP2 DUP4 SUB SUB DUP2 MSTORE SWAP1 PUSH1 0x40 MSTORE DUP10 DUP6 DUP2 MLOAD DUP2 LT PUSH2 0x55AC JUMPI INVALID JUMPDEST PUSH1 0x20 MUL PUSH1 0x20 ADD ADD MLOAD PUSH2 0x955F JUMP JUMPDEST SWAP1 POP DUP1 DUP5 DUP4 DUP2 MLOAD DUP2 LT PUSH2 0x55C8 JUMPI INVALID JUMPDEST PUSH1 0x20 MUL PUSH1 0x20 ADD ADD DUP2 DUP2 MSTORE POP POP PUSH1 0x0 DUP5 DUP4 DUP2 MLOAD DUP2 LT PUSH2 0x55E2 JUMPI INVALID JUMPDEST PUSH1 0x20 MUL PUSH1 0x20 ADD ADD MLOAD EQ ISZERO PUSH2 0x55F6 JUMPI POP PUSH2 0x5604 JUMP JUMPDEST POP DUP1 DUP1 PUSH1 0x1 ADD SWAP2 POP POP PUSH2 0x554B JUMP JUMPDEST POP POP JUMPDEST SWAP6 POP SWAP6 POP SWAP6 SWAP3 POP POP POP JUMP JUMPDEST PUSH1 0x60 PUSH2 0x561E DUP4 DUP6 PUSH2 0x72EB JUMP JUMPDEST PUSH1 0x0 DUP3 MLOAD SWAP1 POP DUP1 PUSH8 0xFFFFFFFFFFFFFFFF DUP2 GT DUP1 ISZERO PUSH2 0x563B JUMPI PUSH1 0x0 DUP1 REVERT JUMPDEST POP PUSH1 0x40 MLOAD SWAP1 DUP1 DUP3 MSTORE DUP1 PUSH1 0x20 MUL PUSH1 0x20 ADD DUP3 ADD PUSH1 0x40 MSTORE DUP1 ISZERO PUSH2 0x566A JUMPI DUP2 PUSH1 0x20 ADD PUSH1 0x20 DUP3 MUL DUP1 CALLDATASIZE DUP4 CALLDATACOPY DUP1 DUP3 ADD SWAP2 POP POP SWAP1 POP JUMPDEST POP SWAP2 POP PUSH1 0x0 JUMPDEST DUP2 DUP2 LT ISZERO PUSH2 0x579B JUMPI DUP7 PUSH20 0xFFFFFFFFFFFFFFFFFFFFFFFFFFFFFFFFFFFFFFFF AND PUSH4 0x144A2752 PUSH3 0xF4240 DUP8 DUP10 DUP9 DUP7 DUP2 MLOAD DUP2 LT PUSH2 0x56A6 JUMPI INVALID JUMPDEST PUSH1 0x20 MUL PUSH1 0x20 ADD ADD MLOAD PUSH1 0x40 MLOAD DUP6 PUSH4 0xFFFFFFFF AND PUSH1 0xE0 SHL DUP2 MSTORE PUSH1 0x4 ADD PUSH2 0x56CC SWAP4 SWAP3 SWAP2 SWAP1 PUSH2 0xC22A JUMP JUMPDEST PUSH1 0x20 PUSH1 0x40 MLOAD DUP1 DUP4 SUB DUP2 DUP8 DUP1 EXTCODESIZE ISZERO DUP1 ISZERO PUSH2 0x56E4 JUMPI PUSH1 0x0 DUP1 REVERT JUMPDEST POP DUP7 STATICCALL SWAP4 POP POP POP POP DUP1 ISZERO PUSH2 0x5716 JUMPI POP PUSH1 0x40 MLOAD RETURNDATASIZE PUSH1 0x1F NOT PUSH1 0x1F DUP3 ADD AND DUP3 ADD DUP1 PUSH1 0x40 MSTORE POP DUP2 ADD SWAP1 PUSH2 0x5713 SWAP2 SWAP1 PUSH2 0xBD27 JUMP JUMPDEST PUSH1 0x1 JUMPDEST PUSH2 0x5752 JUMPI RETURNDATASIZE DUP1 PUSH1 0x0 DUP2 EQ PUSH2 0x5746 JUMPI PUSH1 0x40 MLOAD SWAP2 POP PUSH1 0x1F NOT PUSH1 0x3F RETURNDATASIZE ADD AND DUP3 ADD PUSH1 0x40 MSTORE RETURNDATASIZE DUP3 MSTORE RETURNDATASIZE PUSH1 0x0 PUSH1 0x20 DUP5 ADD RETURNDATACOPY PUSH2 0x574B JUMP JUMPDEST PUSH1 0x60 SWAP2 POP JUMPDEST POP POP PUSH2 0x579B JUMP JUMPDEST DUP1 DUP5 DUP4 DUP2 MLOAD DUP2 LT PUSH2 0x575F JUMPI INVALID JUMPDEST PUSH1 0x20 MUL PUSH1 0x20 ADD ADD DUP2 DUP2 MSTORE POP POP PUSH1 0x0 DUP5 DUP4 DUP2 MLOAD DUP2 LT PUSH2 0x5779 JUMPI INVALID JUMPDEST PUSH1 0x20 MUL PUSH1 0x20 ADD ADD MLOAD EQ ISZERO PUSH2 0x578D JUMPI POP PUSH2 0x579B JUMP JUMPDEST POP DUP1 DUP1 PUSH1 0x1 ADD SWAP2 POP POP PUSH2 0x5670 JUMP JUMPDEST POP POP SWAP5 SWAP4 POP POP POP POP JUMP JUMPDEST PUSH1 0x0 PUSH1 0x60 PUSH2 0x57B3 DUP5 DUP7 PUSH2 0x72EB JUMP JUMPDEST PUSH1 0x0 DUP4 MLOAD SWAP1 POP DUP1 PUSH8 0xFFFFFFFFFFFFFFFF DUP2 GT DUP1 ISZERO PUSH2 0x57D0 JUMPI PUSH1 0x0 DUP1 REVERT JUMPDEST POP PUSH1 0x40 MLOAD SWAP1 DUP1 DUP3 MSTORE DUP1 PUSH1 0x20 MUL PUSH1 0x20 ADD DUP3 ADD PUSH1 0x40 MSTORE DUP1 ISZERO PUSH2 0x57FF JUMPI DUP2 PUSH1 0x20 ADD PUSH1 0x20 DUP3 MUL DUP1 CALLDATASIZE DUP4 CALLDATACOPY DUP1 DUP3 ADD SWAP2 POP POP SWAP1 POP JUMPDEST POP SWAP2 POP PUSH1 0x0 JUMPDEST DUP2 DUP2 LT ISZERO PUSH2 0x5879 JUMPI PUSH1 0x0 PUSH2 0x582E DUP10 DUP10 DUP10 DUP10 DUP7 DUP2 MLOAD DUP2 LT PUSH2 0x5821 JUMPI INVALID JUMPDEST PUSH1 0x20 MUL PUSH1 0x20 ADD ADD MLOAD PUSH2 0x4DA6 JUMP JUMPDEST SWAP1 POP DUP1 DUP5 DUP4 DUP2 MLOAD DUP2 LT PUSH2 0x583D JUMPI INVALID JUMPDEST PUSH1 0x20 MUL PUSH1 0x20 ADD ADD DUP2 DUP2 MSTORE POP POP PUSH1 0x0 DUP5 DUP4 DUP2 MLOAD DUP2 LT PUSH2 0x5857 JUMPI INVALID JUMPDEST PUSH1 0x20 MUL PUSH1 0x20 ADD ADD MLOAD EQ ISZERO PUSH2 0x586B JUMPI POP PUSH2 0x5879 JUMP JUMPDEST POP DUP1 DUP1 PUSH1 0x1 ADD SWAP2 POP POP PUSH2 0x5805 JUMP JUMPDEST POP DUP7 PUSH20 0xFFFFFFFFFFFFFFFFFFFFFFFFFFFFFFFFFFFFFFFF AND PUSH4 0x901754D7 DUP8 DUP8 PUSH1 0x40 MLOAD DUP4 PUSH4 0xFFFFFFFF AND PUSH1 0xE0 SHL DUP2 MSTORE PUSH1 0x4 ADD PUSH2 0x58B5 SWAP3 SWAP2 SWAP1 PUSH2 0xC0F3 JUMP JUMPDEST PUSH1 0x20 PUSH1 0x40 MLOAD DUP1 DUP4 SUB DUP2 DUP7 DUP1 EXTCODESIZE ISZERO DUP1 ISZERO PUSH2 0x58CD JUMPI PUSH1 0x0 DUP1 REVERT JUMPDEST POP GAS STATICCALL ISZERO DUP1 ISZERO PUSH2 0x58E1 JUMPI RETURNDATASIZE PUSH1 0x0 DUP1 RETURNDATACOPY RETURNDATASIZE PUSH1 0x0 REVERT JUMPDEST POP POP POP POP PUSH1 0x40 MLOAD RETURNDATASIZE PUSH1 0x1F NOT PUSH1 0x1F DUP3 ADD AND DUP3 ADD DUP1 PUSH1 0x40 MSTORE POP DUP2 ADD SWAP1 PUSH2 0x5905 SWAP2 SWAP1 PUSH2 0xABCB JUMP JUMPDEST SWAP3 POP POP SWAP5 POP SWAP5 SWAP3 POP POP POP JUMP JUMPDEST PUSH1 0x60 PUSH2 0x597B PUSH1 0x40 MLOAD DUP1 PUSH1 0x60 ADD PUSH1 0x40 MSTORE DUP1 DUP6 DUP9 PUSH1 0x40 MLOAD PUSH1 0x20 ADD PUSH2 0x5934 SWAP3 SWAP2 SWAP1 PUSH2 0xC0F3 JUMP JUMPDEST PUSH1 0x40 MLOAD PUSH1 0x20 DUP2 DUP4 SUB SUB DUP2 MSTORE SWAP1 PUSH1 0x40 MSTORE DUP2 MSTORE PUSH1 0x20 ADD DUP7 DUP9 PUSH1 0x40 MLOAD PUSH1 0x20 ADD PUSH2 0x595B SWAP3 SWAP2 SWAP1 PUSH2 0xC0F3 JUMP JUMPDEST PUSH1 0x40 MLOAD PUSH1 0x20 DUP2 DUP4 SUB SUB DUP2 MSTORE SWAP1 PUSH1 0x40 MSTORE DUP2 MSTORE PUSH1 0x20 ADD PUSH2 0x96D4 DUP2 MSTORE POP DUP4 PUSH2 0x7B61 JUMP JUMPDEST SWAP1 POP SWAP5 SWAP4 POP POP POP POP JUMP JUMPDEST PUSH1 0x60 DUP3 MLOAD PUSH8 0xFFFFFFFFFFFFFFFF DUP2 GT DUP1 ISZERO PUSH2 0x599F JUMPI PUSH1 0x0 DUP1 REVERT JUMPDEST POP PUSH1 0x40 MLOAD SWAP1 DUP1 DUP3 MSTORE DUP1 PUSH1 0x20 MUL PUSH1 0x20 ADD DUP3 ADD PUSH1 0x40 MSTORE DUP1 ISZERO PUSH2 0x59CE JUMPI DUP2 PUSH1 0x20 ADD PUSH1 0x20 DUP3 MUL DUP1 CALLDATASIZE DUP4 CALLDATACOPY DUP1 DUP3 ADD SWAP2 POP POP SWAP1 POP JUMPDEST POP SWAP1 POP PUSH1 0x0 JUMPDEST DUP4 MLOAD DUP2 EQ PUSH2 0x5AC1 JUMPI PUSH32 0x0 PUSH20 0xFFFFFFFFFFFFFFFFFFFFFFFFFFFFFFFFFFFFFFFF AND DUP5 DUP3 DUP2 MLOAD DUP2 LT PUSH2 0x5A1F JUMPI INVALID JUMPDEST PUSH1 0x20 MUL PUSH1 0x20 ADD ADD MLOAD PUSH20 0xFFFFFFFFFFFFFFFFFFFFFFFFFFFFFFFFFFFFFFFF AND EQ PUSH2 0x5A83 JUMPI PUSH2 0x5A7E DUP4 DUP6 DUP4 DUP2 MLOAD DUP2 LT PUSH2 0x5A52 JUMPI INVALID JUMPDEST PUSH1 0x20 MUL PUSH1 0x20 ADD ADD MLOAD PUSH20 0xFFFFFFFFFFFFFFFFFFFFFFFFFFFFFFFFFFFFFFFF AND PUSH2 0x9804 SWAP1 SWAP2 SWAP1 PUSH4 0xFFFFFFFF AND JUMP JUMPDEST PUSH2 0x5A9C JUMP JUMPDEST DUP3 PUSH20 0xFFFFFFFFFFFFFFFFFFFFFFFFFFFFFFFFFFFFFFFF AND BALANCE JUMPDEST DUP3 DUP3 DUP2 MLOAD DUP2 LT PUSH2 0x5AA8 JUMPI INVALID JUMPDEST PUSH1 0x20 MUL PUSH1 0x20 ADD ADD DUP2 DUP2 MSTORE POP POP DUP1 DUP1 PUSH1 0x1 ADD SWAP2 POP POP PUSH2 0x59D4 JUMP JUMPDEST POP SWAP3 SWAP2 POP POP JUMP JUMPDEST PUSH1 0x60 PUSH2 0x5B32 PUSH1 0x40 MLOAD DUP1 PUSH1 0x60 ADD PUSH1 0x40 MSTORE DUP1 DUP6 DUP9 PUSH1 0x40 MLOAD PUSH1 0x20 ADD PUSH2 0x5AEB SWAP3 SWAP2 SWAP1 PUSH2 0xC0F3 JUMP JUMPDEST PUSH1 0x40 MLOAD PUSH1 0x20 DUP2 DUP4 SUB SUB DUP2 MSTORE SWAP1 PUSH1 0x40 MSTORE DUP2 MSTORE PUSH1 0x20 ADD DUP7 DUP9 PUSH1 0x40 MLOAD PUSH1 0x20 ADD PUSH2 0x5B12 SWAP3 SWAP2 SWAP1 PUSH2 0xC0F3 JUMP JUMPDEST PUSH1 0x40 MLOAD PUSH1 0x20 DUP2 DUP4 SUB SUB DUP2 MSTORE SWAP1 PUSH1 0x40 MSTORE DUP2 MSTORE PUSH1 0x20 ADD PUSH2 0x9912 DUP2 MSTORE POP DUP4 PUSH2 0x7B61 JUMP JUMPDEST SWAP1 POP SWAP5 SWAP4 POP POP POP POP JUMP JUMPDEST PUSH1 0x60 PUSH2 0x5B48 DUP4 DUP6 PUSH2 0x72EB JUMP JUMPDEST PUSH1 0x0 DUP3 MLOAD SWAP1 POP DUP1 PUSH8 0xFFFFFFFFFFFFFFFF DUP2 GT DUP1 ISZERO PUSH2 0x5B65 JUMPI PUSH1 0x0 DUP1 REVERT JUMPDEST POP PUSH1 0x40 MLOAD SWAP1 DUP1 DUP3 MSTORE DUP1 PUSH1 0x20 MUL PUSH1 0x20 ADD DUP3 ADD PUSH1 0x40 MSTORE DUP1 ISZERO PUSH2 0x5B94 JUMPI DUP2 PUSH1 0x20 ADD PUSH1 0x20 DUP3 MUL DUP1 CALLDATASIZE DUP4 CALLDATACOPY DUP1 DUP3 ADD SWAP2 POP POP SWAP1 POP JUMPDEST POP SWAP2 POP PUSH1 0x0 DUP1 PUSH20 0xFFFFFFFFFFFFFFFFFFFFFFFFFFFFFFFFFFFFFFFF AND DUP7 PUSH20 0xFFFFFFFFFFFFFFFFFFFFFFFFFFFFFFFFFFFFFFFF AND EQ PUSH2 0x5BDB JUMPI PUSH2 0x5BD6 DUP8 DUP8 PUSH2 0x7474 JUMP JUMPDEST PUSH2 0x5BDE JUMP JUMPDEST PUSH1 0x0 JUMPDEST SWAP1 POP PUSH1 0x0 DUP1 PUSH20 0xFFFFFFFFFFFFFFFFFFFFFFFFFFFFFFFFFFFFFFFF AND DUP7 PUSH20 0xFFFFFFFFFFFFFFFFFFFFFFFFFFFFFFFFFFFFFFFF AND EQ PUSH2 0x5C24 JUMPI PUSH2 0x5C1F DUP9 DUP8 PUSH2 0x7474 JUMP JUMPDEST PUSH2 0x5C27 JUMP JUMPDEST PUSH1 0x0 JUMPDEST SWAP1 POP PUSH1 0x0 JUMPDEST DUP4 DUP2 LT ISZERO PUSH2 0x5DF1 JUMPI PUSH1 0x0 PUSH1 0x1 SWAP1 POP PUSH1 0x0 PUSH20 0xFFFFFFFFFFFFFFFFFFFFFFFFFFFFFFFFFFFFFFFF AND DUP9 PUSH20 0xFFFFFFFFFFFFFFFFFFFFFFFFFFFFFFFFFFFFFFFF AND EQ ISZERO PUSH2 0x5CB5 JUMPI PUSH2 0x5C94 DUP5 PUSH4 0x95B68FE7 PUSH1 0xE0 SHL DUP10 DUP6 DUP2 MLOAD DUP2 LT PUSH2 0x5C87 JUMPI INVALID JUMPDEST PUSH1 0x20 MUL PUSH1 0x20 ADD ADD MLOAD PUSH2 0x7507 JUMP JUMPDEST DUP8 DUP5 DUP2 MLOAD DUP2 LT PUSH2 0x5CA0 JUMPI INVALID JUMPDEST PUSH1 0x20 MUL PUSH1 0x20 ADD ADD DUP2 SWAP4 POP DUP3 DUP2 MSTORE POP POP POP PUSH2 0x5DB8 JUMP JUMPDEST PUSH1 0x0 PUSH20 0xFFFFFFFFFFFFFFFFFFFFFFFFFFFFFFFFFFFFFFFF AND DUP10 PUSH20 0xFFFFFFFFFFFFFFFFFFFFFFFFFFFFFFFFFFFFFFFF AND EQ ISZERO PUSH2 0x5D30 JUMPI PUSH2 0x5D0F DUP4 PUSH4 0xCD7724C3 PUSH1 0xE0 SHL DUP10 DUP6 DUP2 MLOAD DUP2 LT PUSH2 0x5D02 JUMPI INVALID JUMPDEST PUSH1 0x20 MUL PUSH1 0x20 ADD ADD MLOAD PUSH2 0x7507 JUMP JUMPDEST DUP8 DUP5 DUP2 MLOAD DUP2 LT PUSH2 0x5D1B JUMPI INVALID JUMPDEST PUSH1 0x20 MUL PUSH1 0x20 ADD ADD DUP2 SWAP4 POP DUP3 DUP2 MSTORE POP POP POP PUSH2 0x5DB7 JUMP JUMPDEST PUSH1 0x0 PUSH2 0x5D57 DUP6 PUSH4 0x95B68FE7 PUSH1 0xE0 SHL DUP11 DUP7 DUP2 MLOAD DUP2 LT PUSH2 0x5D4A JUMPI INVALID JUMPDEST PUSH1 0x20 MUL PUSH1 0x20 ADD ADD MLOAD PUSH2 0x7507 JUMP JUMPDEST DUP1 SWAP4 POP DUP2 SWAP3 POP POP POP PUSH1 0x0 DUP2 EQ PUSH2 0x5D9A JUMPI PUSH2 0x5D79 DUP5 PUSH4 0xCD7724C3 PUSH1 0xE0 SHL DUP4 PUSH2 0x7507 JUMP JUMPDEST DUP9 DUP6 DUP2 MLOAD DUP2 LT PUSH2 0x5D85 JUMPI INVALID JUMPDEST PUSH1 0x20 MUL PUSH1 0x20 ADD ADD DUP2 SWAP5 POP DUP3 DUP2 MSTORE POP POP POP PUSH2 0x5DB5 JUMP JUMPDEST PUSH1 0x0 DUP8 DUP5 DUP2 MLOAD DUP2 LT PUSH2 0x5DA8 JUMPI INVALID JUMPDEST PUSH1 0x20 MUL PUSH1 0x20 ADD ADD DUP2 DUP2 MSTORE POP POP JUMPDEST POP JUMPDEST JUMPDEST DUP1 ISZERO DUP1 PUSH2 0x5DD8 JUMPI POP PUSH1 0x0 DUP7 DUP4 DUP2 MLOAD DUP2 LT PUSH2 0x5DCE JUMPI INVALID JUMPDEST PUSH1 0x20 MUL PUSH1 0x20 ADD ADD MLOAD EQ JUMPDEST ISZERO PUSH2 0x5DE3 JUMPI POP PUSH2 0x5DF1 JUMP JUMPDEST POP DUP1 DUP1 PUSH1 0x1 ADD SWAP2 POP POP PUSH2 0x5C2C JUMP JUMPDEST POP POP POP POP SWAP5 SWAP4 POP POP POP POP JUMP JUMPDEST PUSH1 0x60 PUSH1 0x0 DUP3 MLOAD SWAP1 POP DUP1 PUSH8 0xFFFFFFFFFFFFFFFF DUP2 GT DUP1 ISZERO PUSH2 0x5E1C JUMPI PUSH1 0x0 DUP1 REVERT JUMPDEST POP PUSH1 0x40 MLOAD SWAP1 DUP1 DUP3 MSTORE DUP1 PUSH1 0x20 MUL PUSH1 0x20 ADD DUP3 ADD PUSH1 0x40 MSTORE DUP1 ISZERO PUSH2 0x5E4B JUMPI DUP2 PUSH1 0x20 ADD PUSH1 0x20 DUP3 MUL DUP1 CALLDATASIZE DUP4 CALLDATACOPY DUP1 DUP3 ADD SWAP2 POP POP SWAP1 POP JUMPDEST POP SWAP2 POP PUSH1 0x0 JUMPDEST DUP2 DUP2 LT ISZERO PUSH2 0x5F93 JUMPI DUP6 PUSH20 0xFFFFFFFFFFFFFFFFFFFFFFFFFFFFFFFFFFFFFFFF AND PUSH4 0x1F00CA74 PUSH3 0x249F0 DUP7 DUP5 DUP2 MLOAD DUP2 LT PUSH2 0x5E85 JUMPI INVALID JUMPDEST PUSH1 0x20 MUL PUSH1 0x20 ADD ADD MLOAD DUP9 PUSH1 0x40 MLOAD DUP5 PUSH4 0xFFFFFFFF AND PUSH1 0xE0 SHL DUP2 MSTORE PUSH1 0x4 ADD PUSH2 0x5EAB SWAP3 SWAP2 SWAP1 PUSH2 0xCC2F JUMP JUMPDEST PUSH1 0x0 PUSH1 0x40 MLOAD DUP1 DUP4 SUB DUP2 DUP8 DUP1 EXTCODESIZE ISZERO DUP1 ISZERO PUSH2 0x5EC3 JUMPI PUSH1 0x0 DUP1 REVERT JUMPDEST POP DUP7 STATICCALL SWAP4 POP POP POP POP DUP1 ISZERO PUSH2 0x5EFA JUMPI POP PUSH1 0x40 MLOAD RETURNDATASIZE PUSH1 0x0 DUP3 RETURNDATACOPY RETURNDATASIZE PUSH1 0x1F NOT PUSH1 0x1F DUP3 ADD AND DUP3 ADD DUP1 PUSH1 0x40 MSTORE POP DUP2 ADD SWAP1 PUSH2 0x5EF7 SWAP2 SWAP1 PUSH2 0xB507 JUMP JUMPDEST PUSH1 0x1 JUMPDEST PUSH2 0x5F36 JUMPI RETURNDATASIZE DUP1 PUSH1 0x0 DUP2 EQ PUSH2 0x5F2A JUMPI PUSH1 0x40 MLOAD SWAP2 POP PUSH1 0x1F NOT PUSH1 0x3F RETURNDATASIZE ADD AND DUP3 ADD PUSH1 0x40 MSTORE RETURNDATASIZE DUP3 MSTORE RETURNDATASIZE PUSH1 0x0 PUSH1 0x20 DUP5 ADD RETURNDATACOPY PUSH2 0x5F2F JUMP JUMPDEST PUSH1 0x60 SWAP2 POP JUMPDEST POP POP PUSH2 0x5F93 JUMP JUMPDEST DUP1 PUSH1 0x0 DUP2 MLOAD DUP2 LT PUSH2 0x5F43 JUMPI INVALID JUMPDEST PUSH1 0x20 MUL PUSH1 0x20 ADD ADD MLOAD DUP5 DUP4 DUP2 MLOAD DUP2 LT PUSH2 0x5F57 JUMPI INVALID JUMPDEST PUSH1 0x20 MUL PUSH1 0x20 ADD ADD DUP2 DUP2 MSTORE POP POP PUSH1 0x0 DUP5 DUP4 DUP2 MLOAD DUP2 LT PUSH2 0x5F71 JUMPI INVALID JUMPDEST PUSH1 0x20 MUL PUSH1 0x20 ADD ADD MLOAD EQ ISZERO PUSH2 0x5F85 JUMPI POP PUSH2 0x5F93 JUMP JUMPDEST POP DUP1 DUP1 PUSH1 0x1 ADD SWAP2 POP POP PUSH2 0x5E51 JUMP JUMPDEST POP POP SWAP4 SWAP3 POP POP POP JUMP JUMPDEST PUSH1 0x60 PUSH2 0x5FA8 DUP4 DUP6 PUSH2 0x72EB JUMP JUMPDEST PUSH1 0x0 DUP3 MLOAD SWAP1 POP DUP1 PUSH8 0xFFFFFFFFFFFFFFFF DUP2 GT DUP1 ISZERO PUSH2 0x5FC5 JUMPI PUSH1 0x0 DUP1 REVERT JUMPDEST POP PUSH1 0x40 MLOAD SWAP1 DUP1 DUP3 MSTORE DUP1 PUSH1 0x20 MUL PUSH1 0x20 ADD DUP3 ADD PUSH1 0x40 MSTORE DUP1 ISZERO PUSH2 0x5FF4 JUMPI DUP2 PUSH1 0x20 ADD PUSH1 0x20 DUP3 MUL DUP1 CALLDATASIZE DUP4 CALLDATACOPY DUP1 DUP3 ADD SWAP2 POP POP SWAP1 POP JUMPDEST POP SWAP2 POP PUSH1 0x0 JUMPDEST DUP2 DUP2 LT ISZERO PUSH2 0x6125 JUMPI DUP7 PUSH20 0xFFFFFFFFFFFFFFFFFFFFFFFFFFFFFFFFFFFFFFFF AND PUSH4 0xFF1FD974 PUSH3 0xF4240 DUP9 DUP9 DUP9 DUP7 DUP2 MLOAD DUP2 LT PUSH2 0x6030 JUMPI INVALID JUMPDEST PUSH1 0x20 MUL PUSH1 0x20 ADD ADD MLOAD PUSH1 0x40 MLOAD DUP6 PUSH4 0xFFFFFFFF AND PUSH1 0xE0 SHL DUP2 MSTORE PUSH1 0x4 ADD PUSH2 0x6056 SWAP4 SWAP3 SWAP2 SWAP1 PUSH2 0xC22A JUMP JUMPDEST PUSH1 0x20 PUSH1 0x40 MLOAD DUP1 DUP4 SUB DUP2 DUP8 DUP1 EXTCODESIZE ISZERO DUP1 ISZERO PUSH2 0x606E JUMPI PUSH1 0x0 DUP1 REVERT JUMPDEST POP DUP7 STATICCALL SWAP4 POP POP POP POP DUP1 ISZERO PUSH2 0x60A0 JUMPI POP PUSH1 0x40 MLOAD RETURNDATASIZE PUSH1 0x1F NOT PUSH1 0x1F DUP3 ADD AND DUP3 ADD DUP1 PUSH1 0x40 MSTORE POP DUP2 ADD SWAP1 PUSH2 0x609D SWAP2 SWAP1 PUSH2 0xBD27 JUMP JUMPDEST PUSH1 0x1 JUMPDEST PUSH2 0x60DC JUMPI RETURNDATASIZE DUP1 PUSH1 0x0 DUP2 EQ PUSH2 0x60D0 JUMPI PUSH1 0x40 MLOAD SWAP2 POP PUSH1 0x1F NOT PUSH1 0x3F RETURNDATASIZE ADD AND DUP3 ADD PUSH1 0x40 MSTORE RETURNDATASIZE DUP3 MSTORE RETURNDATASIZE PUSH1 0x0 PUSH1 0x20 DUP5 ADD RETURNDATACOPY PUSH2 0x60D5 JUMP JUMPDEST PUSH1 0x60 SWAP2 POP JUMPDEST POP POP PUSH2 0x6125 JUMP JUMPDEST DUP1 DUP5 DUP4 DUP2 MLOAD DUP2 LT PUSH2 0x60E9 JUMPI INVALID JUMPDEST PUSH1 0x20 MUL PUSH1 0x20 ADD ADD DUP2 DUP2 MSTORE POP POP PUSH1 0x0 DUP5 DUP4 DUP2 MLOAD DUP2 LT PUSH2 0x6103 JUMPI INVALID JUMPDEST PUSH1 0x20 MUL PUSH1 0x20 ADD ADD MLOAD EQ ISZERO PUSH2 0x6117 JUMPI POP PUSH2 0x6125 JUMP JUMPDEST POP DUP1 DUP1 PUSH1 0x1 ADD SWAP2 POP POP PUSH2 0x5FFA JUMP JUMPDEST POP POP SWAP5 SWAP4 POP POP POP POP JUMP JUMPDEST PUSH1 0x0 PUSH1 0x60 DUP1 PUSH2 0x613E DUP6 DUP8 PUSH2 0x72EB JUMP JUMPDEST PUSH2 0x6149 DUP8 DUP8 DUP8 PUSH2 0x90E9 JUMP JUMPDEST SWAP3 POP PUSH1 0x0 DUP1 SHL DUP4 EQ ISZERO PUSH2 0x615B JUMPI PUSH2 0x634A JUMP JUMPDEST ADDRESS PUSH20 0xFFFFFFFFFFFFFFFFFFFFFFFFFFFFFFFFFFFFFFFF AND PUSH4 0x4EDFB5B2 DUP9 DUP6 DUP10 DUP10 PUSH1 0x40 MLOAD DUP6 PUSH4 0xFFFFFFFF AND PUSH1 0xE0 SHL DUP2 MSTORE PUSH1 0x4 ADD PUSH2 0x619A SWAP5 SWAP4 SWAP3 SWAP2 SWAP1 PUSH2 0xCAA6 JUMP JUMPDEST PUSH1 0x0 PUSH1 0x40 MLOAD DUP1 DUP4 SUB DUP2 DUP7 DUP1 EXTCODESIZE ISZERO DUP1 ISZERO PUSH2 0x61B2 JUMPI PUSH1 0x0 DUP1 REVERT JUMPDEST POP GAS STATICCALL ISZERO DUP1 ISZERO PUSH2 0x61C6 JUMPI RETURNDATASIZE PUSH1 0x0 DUP1 RETURNDATACOPY RETURNDATASIZE PUSH1 0x0 REVERT JUMPDEST POP POP POP POP PUSH1 0x40 MLOAD RETURNDATASIZE PUSH1 0x0 DUP3 RETURNDATACOPY RETURNDATASIZE PUSH1 0x1F NOT PUSH1 0x1F DUP3 ADD AND DUP3 ADD DUP1 PUSH1 0x40 MSTORE POP DUP2 ADD SWAP1 PUSH2 0x61EF SWAP2 SWAP1 PUSH2 0xB5DD JUMP JUMPDEST DUP8 PUSH1 0x80 ADD DUP2 SWAP1 MSTORE POP DUP7 PUSH1 0x80 ADD MLOAD SWAP2 POP PUSH1 0x0 DUP5 MLOAD SWAP1 POP DUP1 PUSH8 0xFFFFFFFFFFFFFFFF DUP2 GT DUP1 ISZERO PUSH2 0x621B JUMPI PUSH1 0x0 DUP1 REVERT JUMPDEST POP PUSH1 0x40 MLOAD SWAP1 DUP1 DUP3 MSTORE DUP1 PUSH1 0x20 MUL PUSH1 0x20 ADD DUP3 ADD PUSH1 0x40 MSTORE DUP1 ISZERO PUSH2 0x624A JUMPI DUP2 PUSH1 0x20 ADD PUSH1 0x20 DUP3 MUL DUP1 CALLDATASIZE DUP4 CALLDATACOPY DUP1 DUP3 ADD SWAP2 POP POP SWAP1 POP JUMPDEST POP SWAP2 POP PUSH1 0x0 JUMPDEST DUP2 DUP2 LT ISZERO PUSH2 0x6347 JUMPI PUSH1 0x0 ADDRESS PUSH20 0xFFFFFFFFFFFFFFFFFFFFFFFFFFFFFFFFFFFFFFFF AND PUSH4 0xF1ED7FA4 DUP12 DUP12 DUP12 DUP12 DUP8 DUP2 MLOAD DUP2 LT PUSH2 0x6285 JUMPI INVALID JUMPDEST PUSH1 0x20 MUL PUSH1 0x20 ADD ADD MLOAD PUSH1 0x40 MLOAD DUP6 PUSH4 0xFFFFFFFF AND PUSH1 0xE0 SHL DUP2 MSTORE PUSH1 0x4 ADD PUSH2 0x62AC SWAP5 SWAP4 SWAP3 SWAP2 SWAP1 PUSH2 0xCA6A JUMP JUMPDEST PUSH1 0x20 PUSH1 0x40 MLOAD DUP1 DUP4 SUB DUP2 DUP7 DUP1 EXTCODESIZE ISZERO DUP1 ISZERO PUSH2 0x62C4 JUMPI PUSH1 0x0 DUP1 REVERT JUMPDEST POP GAS STATICCALL ISZERO DUP1 ISZERO PUSH2 0x62D8 JUMPI RETURNDATASIZE PUSH1 0x0 DUP1 RETURNDATACOPY RETURNDATASIZE PUSH1 0x0 REVERT JUMPDEST POP POP POP POP PUSH1 0x40 MLOAD RETURNDATASIZE PUSH1 0x1F NOT PUSH1 0x1F DUP3 ADD AND DUP3 ADD DUP1 PUSH1 0x40 MSTORE POP DUP2 ADD SWAP1 PUSH2 0x62FC SWAP2 SWAP1 PUSH2 0xBD27 JUMP JUMPDEST SWAP1 POP DUP1 DUP5 DUP4 DUP2 MLOAD DUP2 LT PUSH2 0x630B JUMPI INVALID JUMPDEST PUSH1 0x20 MUL PUSH1 0x20 ADD ADD DUP2 DUP2 MSTORE POP POP PUSH1 0x0 DUP5 DUP4 DUP2 MLOAD DUP2 LT PUSH2 0x6325 JUMPI INVALID JUMPDEST PUSH1 0x20 MUL PUSH1 0x20 ADD ADD MLOAD EQ ISZERO PUSH2 0x6339 JUMPI POP PUSH2 0x6347 JUMP JUMPDEST POP DUP1 DUP1 PUSH1 0x1 ADD SWAP2 POP POP PUSH2 0x6250 JUMP JUMPDEST POP POP JUMPDEST SWAP5 POP SWAP5 POP SWAP5 SWAP2 POP POP JUMP JUMPDEST PUSH20 0xE9DB8717BC5DFB20AAF538B4A5A02B7791FF430C DUP2 JUMP JUMPDEST PUSH1 0x0 DUP1 PUSH1 0x60 PUSH2 0x637B DUP6 DUP8 PUSH2 0x72EB JUMP JUMPDEST PUSH2 0x6387 DUP9 DUP9 DUP9 DUP9 PUSH2 0x93ED JUMP JUMPDEST DUP1 SWAP5 POP DUP2 SWAP4 POP POP POP PUSH1 0x0 PUSH20 0xFFFFFFFFFFFFFFFFFFFFFFFFFFFFFFFFFFFFFFFF AND DUP3 PUSH20 0xFFFFFFFFFFFFFFFFFFFFFFFFFFFFFFFFFFFFFFFF AND EQ ISZERO PUSH2 0x63C9 JUMPI PUSH2 0x6489 JUMP JUMPDEST PUSH1 0x0 DUP5 MLOAD SWAP1 POP DUP1 PUSH8 0xFFFFFFFFFFFFFFFF DUP2 GT DUP1 ISZERO PUSH2 0x63E6 JUMPI PUSH1 0x0 DUP1 REVERT JUMPDEST POP PUSH1 0x40 MLOAD SWAP1 DUP1 DUP3 MSTORE DUP1 PUSH1 0x20 MUL PUSH1 0x20 ADD DUP3 ADD PUSH1 0x40 MSTORE DUP1 ISZERO PUSH2 0x6415 JUMPI DUP2 PUSH1 0x20 ADD PUSH1 0x20 DUP3 MUL DUP1 CALLDATASIZE DUP4 CALLDATACOPY DUP1 DUP3 ADD SWAP2 POP POP SWAP1 POP JUMPDEST POP SWAP2 POP PUSH2 0x6485 PUSH1 0x40 MLOAD DUP1 PUSH1 0x60 ADD PUSH1 0x40 MSTORE DUP1 DUP9 DUP7 DUP9 ISZERO PUSH1 0x40 MLOAD PUSH1 0x20 ADD PUSH2 0x643C SWAP4 SWAP3 SWAP2 SWAP1 PUSH2 0xC1BF JUMP JUMPDEST PUSH1 0x40 MLOAD PUSH1 0x20 DUP2 DUP4 SUB SUB DUP2 MSTORE SWAP1 PUSH1 0x40 MSTORE DUP2 MSTORE PUSH1 0x20 ADD DUP10 DUP7 DUP9 PUSH1 0x40 MLOAD PUSH1 0x20 ADD PUSH2 0x6465 SWAP4 SWAP3 SWAP2 SWAP1 PUSH2 0xC1BF JUMP JUMPDEST PUSH1 0x40 MLOAD PUSH1 0x20 DUP2 DUP4 SUB SUB DUP2 MSTORE SWAP1 PUSH1 0x40 MSTORE DUP2 MSTORE PUSH1 0x20 ADD PUSH2 0x955F DUP2 MSTORE POP DUP7 PUSH2 0x7B61 JUMP JUMPDEST SWAP2 POP POP JUMPDEST SWAP6 POP SWAP6 POP SWAP6 SWAP3 POP POP POP JUMP JUMPDEST PUSH1 0x0 DUP1 PUSH1 0x60 PUSH2 0x64A3 DUP6 DUP8 PUSH2 0x72EB JUMP JUMPDEST PUSH1 0x0 DUP5 MLOAD SWAP1 POP DUP1 PUSH8 0xFFFFFFFFFFFFFFFF DUP2 GT DUP1 ISZERO PUSH2 0x64C0 JUMPI PUSH1 0x0 DUP1 REVERT JUMPDEST POP PUSH1 0x40 MLOAD SWAP1 DUP1 DUP3 MSTORE DUP1 PUSH1 0x20 MUL PUSH1 0x20 ADD DUP3 ADD PUSH1 0x40 MSTORE DUP1 ISZERO PUSH2 0x64EF JUMPI DUP2 PUSH1 0x20 ADD PUSH1 0x20 DUP3 MUL DUP1 CALLDATASIZE DUP4 CALLDATACOPY DUP1 DUP3 ADD SWAP2 POP POP SWAP1 POP JUMPDEST POP SWAP2 POP DUP8 PUSH1 0x0 ADD MLOAD PUSH20 0xFFFFFFFFFFFFFFFFFFFFFFFFFFFFFFFFFFFFFFFF AND PUSH4 0x1273B0C6 DUP9 DUP9 PUSH1 0x40 MLOAD DUP4 PUSH4 0xFFFFFFFF AND PUSH1 0xE0 SHL DUP2 MSTORE PUSH1 0x4 ADD PUSH2 0x6531 SWAP3 SWAP2 SWAP1 PUSH2 0xC0F3 JUMP JUMPDEST PUSH1 0x20 PUSH1 0x40 MLOAD DUP1 DUP4 SUB DUP2 DUP7 DUP1 EXTCODESIZE ISZERO DUP1 ISZERO PUSH2 0x6549 JUMPI PUSH1 0x0 DUP1 REVERT JUMPDEST POP GAS STATICCALL ISZERO DUP1 ISZERO PUSH2 0x655D JUMPI RETURNDATASIZE PUSH1 0x0 DUP1 RETURNDATACOPY RETURNDATASIZE PUSH1 0x0 REVERT JUMPDEST POP POP POP POP PUSH1 0x40 MLOAD RETURNDATASIZE PUSH1 0x1F NOT PUSH1 0x1F DUP3 ADD AND DUP3 ADD DUP1 PUSH1 0x40 MSTORE POP DUP2 ADD SWAP1 PUSH2 0x6581 SWAP2 SWAP1 PUSH2 0xABCB JUMP JUMPDEST SWAP3 POP PUSH1 0x0 DUP1 PUSH20 0xFFFFFFFFFFFFFFFFFFFFFFFFFFFFFFFFFFFFFFFF AND DUP5 PUSH20 0xFFFFFFFFFFFFFFFFFFFFFFFFFFFFFFFFFFFFFFFF AND EQ PUSH2 0x65C4 JUMPI DUP8 SWAP1 POP PUSH1 0x1 SWAP5 POP PUSH2 0x6699 JUMP JUMPDEST DUP9 PUSH1 0x0 ADD MLOAD PUSH20 0xFFFFFFFFFFFFFFFFFFFFFFFFFFFFFFFFFFFFFFFF AND PUSH4 0x1273B0C6 DUP9 DUP11 PUSH1 0x40 MLOAD DUP4 PUSH4 0xFFFFFFFF AND PUSH1 0xE0 SHL DUP2 MSTORE PUSH1 0x4 ADD PUSH2 0x6603 SWAP3 SWAP2 SWAP1 PUSH2 0xC0F3 JUMP JUMPDEST PUSH1 0x20 PUSH1 0x40 MLOAD DUP1 DUP4 SUB DUP2 DUP7 DUP1 EXTCODESIZE ISZERO DUP1 ISZERO PUSH2 0x661B JUMPI PUSH1 0x0 DUP1 REVERT JUMPDEST POP GAS STATICCALL ISZERO DUP1 ISZERO PUSH2 0x662F JUMPI RETURNDATASIZE PUSH1 0x0 DUP1 RETURNDATACOPY RETURNDATASIZE PUSH1 0x0 REVERT JUMPDEST POP POP POP POP PUSH1 0x40 MLOAD RETURNDATASIZE PUSH1 0x1F NOT PUSH1 0x1F DUP3 ADD AND DUP3 ADD DUP1 PUSH1 0x40 MSTORE POP DUP2 ADD SWAP1 PUSH2 0x6653 SWAP2 SWAP1 PUSH2 0xABCB JUMP JUMPDEST SWAP4 POP PUSH1 0x0 PUSH20 0xFFFFFFFFFFFFFFFFFFFFFFFFFFFFFFFFFFFFFFFF AND DUP5 PUSH20 0xFFFFFFFFFFFFFFFFFFFFFFFFFFFFFFFFFFFFFFFF AND EQ ISZERO PUSH2 0x6691 JUMPI POP POP PUSH2 0x679F JUMP JUMPDEST DUP7 SWAP1 POP PUSH1 0x0 SWAP5 POP JUMPDEST DUP4 PUSH20 0xFFFFFFFFFFFFFFFFFFFFFFFFFFFFFFFFFFFFFFFF AND PUSH4 0xDD58B41C PUSH1 0x40 MLOAD DUP2 PUSH4 0xFFFFFFFF AND PUSH1 0xE0 SHL DUP2 MSTORE PUSH1 0x4 ADD PUSH1 0x20 PUSH1 0x40 MLOAD DUP1 DUP4 SUB DUP2 DUP7 DUP1 EXTCODESIZE ISZERO DUP1 ISZERO PUSH2 0x66DF JUMPI PUSH1 0x0 DUP1 REVERT JUMPDEST POP GAS STATICCALL ISZERO DUP1 ISZERO PUSH2 0x66F3 JUMPI RETURNDATASIZE PUSH1 0x0 DUP1 RETURNDATACOPY RETURNDATASIZE PUSH1 0x0 REVERT JUMPDEST POP POP POP POP PUSH1 0x40 MLOAD RETURNDATASIZE PUSH1 0x1F NOT PUSH1 0x1F DUP3 ADD AND DUP3 ADD DUP1 PUSH1 0x40 MSTORE POP DUP2 ADD SWAP1 PUSH2 0x6717 SWAP2 SWAP1 PUSH2 0xB543 JUMP JUMPDEST PUSH2 0x6722 JUMPI POP POP PUSH2 0x679F JUMP JUMPDEST PUSH2 0x679A PUSH1 0x40 MLOAD DUP1 PUSH1 0x60 ADD PUSH1 0x40 MSTORE DUP1 DUP10 DUP8 DUP6 DUP15 PUSH1 0x20 ADD MLOAD PUSH1 0x40 MLOAD PUSH1 0x20 ADD PUSH2 0x674B SWAP5 SWAP4 SWAP3 SWAP2 SWAP1 PUSH2 0xC117 JUMP JUMPDEST PUSH1 0x40 MLOAD PUSH1 0x20 DUP2 DUP4 SUB SUB DUP2 MSTORE SWAP1 PUSH1 0x40 MSTORE DUP2 MSTORE PUSH1 0x20 ADD DUP11 DUP8 DUP6 DUP15 PUSH1 0x20 ADD MLOAD PUSH1 0x40 MLOAD PUSH1 0x20 ADD PUSH2 0x677A SWAP5 SWAP4 SWAP3 SWAP2 SWAP1 PUSH2 0xC117 JUMP JUMPDEST PUSH1 0x40 MLOAD PUSH1 0x20 DUP2 DUP4 SUB SUB DUP2 MSTORE SWAP1 PUSH1 0x40 MSTORE DUP2 MSTORE PUSH1 0x20 ADD PUSH2 0x7D87 DUP2 MSTORE POP DUP8 PUSH2 0x7B61 JUMP JUMPDEST SWAP3 POP POP POP JUMPDEST SWAP5 POP SWAP5 POP SWAP5 SWAP2 POP POP JUMP JUMPDEST PUSH1 0x60 DUP4 MLOAD PUSH8 0xFFFFFFFFFFFFFFFF DUP2 GT DUP1 ISZERO PUSH2 0x67C3 JUMPI PUSH1 0x0 DUP1 REVERT JUMPDEST POP PUSH1 0x40 MLOAD SWAP1 DUP1 DUP3 MSTORE DUP1 PUSH1 0x20 MUL PUSH1 0x20 ADD DUP3 ADD PUSH1 0x40 MSTORE DUP1 ISZERO PUSH2 0x67F2 JUMPI DUP2 PUSH1 0x20 ADD PUSH1 0x20 DUP3 MUL DUP1 CALLDATASIZE DUP4 CALLDATACOPY DUP1 DUP3 ADD SWAP2 POP POP SWAP1 POP JUMPDEST POP SWAP1 POP PUSH1 0x0 JUMPDEST DUP5 MLOAD DUP2 EQ PUSH2 0x68D1 JUMPI PUSH32 0x0 PUSH20 0xFFFFFFFFFFFFFFFFFFFFFFFFFFFFFFFFFFFFFFFF AND DUP6 DUP3 DUP2 MLOAD DUP2 LT PUSH2 0x6843 JUMPI INVALID JUMPDEST PUSH1 0x20 MUL PUSH1 0x20 ADD ADD MLOAD PUSH20 0xFFFFFFFFFFFFFFFFFFFFFFFFFFFFFFFFFFFFFFFF AND EQ PUSH2 0x68A9 JUMPI PUSH2 0x68A4 DUP5 DUP5 DUP8 DUP5 DUP2 MLOAD DUP2 LT PUSH2 0x6877 JUMPI INVALID JUMPDEST PUSH1 0x20 MUL PUSH1 0x20 ADD ADD MLOAD PUSH20 0xFFFFFFFFFFFFFFFFFFFFFFFFFFFFFFFFFFFFFFFF AND PUSH2 0x9A47 SWAP1 SWAP3 SWAP2 SWAP1 PUSH4 0xFFFFFFFF AND JUMP JUMPDEST PUSH2 0x68AC JUMP JUMPDEST PUSH1 0x0 JUMPDEST DUP3 DUP3 DUP2 MLOAD DUP2 LT PUSH2 0x68B8 JUMPI INVALID JUMPDEST PUSH1 0x20 MUL PUSH1 0x20 ADD ADD DUP2 DUP2 MSTORE POP POP DUP1 DUP1 PUSH1 0x1 ADD SWAP2 POP POP PUSH2 0x67F8 JUMP JUMPDEST POP SWAP4 SWAP3 POP POP POP JUMP JUMPDEST PUSH1 0x60 PUSH1 0x0 DUP3 MLOAD SWAP1 POP DUP1 PUSH8 0xFFFFFFFFFFFFFFFF DUP2 GT DUP1 ISZERO PUSH2 0x68F8 JUMPI PUSH1 0x0 DUP1 REVERT JUMPDEST POP PUSH1 0x40 MLOAD SWAP1 DUP1 DUP3 MSTORE DUP1 PUSH1 0x20 MUL PUSH1 0x20 ADD DUP3 ADD PUSH1 0x40 MSTORE DUP1 ISZERO PUSH2 0x6927 JUMPI DUP2 PUSH1 0x20 ADD PUSH1 0x20 DUP3 MUL DUP1 CALLDATASIZE DUP4 CALLDATACOPY DUP1 DUP3 ADD SWAP2 POP POP SWAP1 POP JUMPDEST POP SWAP2 POP PUSH1 0x0 JUMPDEST DUP2 DUP2 LT ISZERO PUSH2 0x6A36 JUMPI DUP7 PUSH20 0xFFFFFFFFFFFFFFFFFFFFFFFFFFFFFFFFFFFFFFFF AND PUSH4 0x838E6A22 PUSH3 0x493E0 DUP9 DUP9 DUP9 DUP7 DUP2 MLOAD DUP2 LT PUSH2 0x6963 JUMPI INVALID JUMPDEST PUSH1 0x20 MUL PUSH1 0x20 ADD ADD MLOAD PUSH1 0x40 MLOAD DUP6 PUSH4 0xFFFFFFFF AND PUSH1 0xE0 SHL DUP2 MSTORE PUSH1 0x4 ADD PUSH2 0x6989 SWAP4 SWAP3 SWAP2 SWAP1 PUSH2 0xC22A JUMP JUMPDEST PUSH1 0x20 PUSH1 0x40 MLOAD DUP1 DUP4 SUB DUP2 DUP8 DUP1 EXTCODESIZE ISZERO DUP1 ISZERO PUSH2 0x69A1 JUMPI PUSH1 0x0 DUP1 REVERT JUMPDEST POP DUP7 STATICCALL SWAP4 POP POP POP POP DUP1 ISZERO PUSH2 0x69D3 JUMPI POP PUSH1 0x40 MLOAD RETURNDATASIZE PUSH1 0x1F NOT PUSH1 0x1F DUP3 ADD AND DUP3 ADD DUP1 PUSH1 0x40 MSTORE POP DUP2 ADD SWAP1 PUSH2 0x69D0 SWAP2 SWAP1 PUSH2 0xBD27 JUMP JUMPDEST PUSH1 0x1 JUMPDEST PUSH2 0x6A0F JUMPI RETURNDATASIZE DUP1 PUSH1 0x0 DUP2 EQ PUSH2 0x6A03 JUMPI PUSH1 0x40 MLOAD SWAP2 POP PUSH1 0x1F NOT PUSH1 0x3F RETURNDATASIZE ADD AND DUP3 ADD PUSH1 0x40 MSTORE RETURNDATASIZE DUP3 MSTORE RETURNDATASIZE PUSH1 0x0 PUSH1 0x20 DUP5 ADD RETURNDATACOPY PUSH2 0x6A08 JUMP JUMPDEST PUSH1 0x60 SWAP2 POP JUMPDEST POP POP PUSH2 0x6A36 JUMP JUMPDEST DUP1 DUP5 DUP4 DUP2 MLOAD DUP2 LT PUSH2 0x6A1C JUMPI INVALID JUMPDEST PUSH1 0x20 MUL PUSH1 0x20 ADD ADD DUP2 DUP2 MSTORE POP POP POP DUP1 DUP1 PUSH1 0x1 ADD SWAP2 POP POP PUSH2 0x692D JUMP JUMPDEST POP POP SWAP5 SWAP4 POP POP POP POP JUMP JUMPDEST PUSH1 0x0 DUP1 DUP6 PUSH1 0x80 ADD MLOAD MLOAD EQ ISZERO PUSH2 0x6A58 JUMPI PUSH1 0x0 SWAP1 POP PUSH2 0x6C1F JUMP JUMPDEST DUP5 PUSH1 0x40 ADD MLOAD PUSH20 0xFFFFFFFFFFFFFFFFFFFFFFFFFFFFFFFFFFFFFFFF AND PUSH4 0x418436BC PUSH3 0x7A120 DUP8 PUSH1 0x60 ADD MLOAD PUSH20 0xFFFFFFFFFFFFFFFFFFFFFFFFFFFFFFFFFFFFFFFF AND DUP8 PUSH20 0xFFFFFFFFFFFFFFFFFFFFFFFFFFFFFFFFFFFFFFFF AND EQ PUSH2 0x6AB9 JUMPI DUP7 PUSH2 0x6ACF JUMP JUMPDEST PUSH20 0xEEEEEEEEEEEEEEEEEEEEEEEEEEEEEEEEEEEEEEEE JUMPDEST DUP9 PUSH1 0x60 ADD MLOAD PUSH20 0xFFFFFFFFFFFFFFFFFFFFFFFFFFFFFFFFFFFFFFFF AND DUP8 PUSH20 0xFFFFFFFFFFFFFFFFFFFFFFFFFFFFFFFFFFFFFFFF AND EQ PUSH2 0x6B0C JUMPI DUP7 PUSH2 0x6B22 JUMP JUMPDEST PUSH20 0xEEEEEEEEEEEEEEEEEEEEEEEEEEEEEEEEEEEEEEEE JUMPDEST DUP7 PUSH1 0x0 DUP12 PUSH1 0x80 ADD MLOAD PUSH1 0x40 MLOAD DUP8 PUSH4 0xFFFFFFFF AND PUSH1 0xE0 SHL DUP2 MSTORE PUSH1 0x4 ADD PUSH2 0x6B4A SWAP6 SWAP5 SWAP4 SWAP3 SWAP2 SWAP1 PUSH2 0xC255 JUMP JUMPDEST PUSH1 0x20 PUSH1 0x40 MLOAD DUP1 DUP4 SUB DUP2 DUP8 DUP1 EXTCODESIZE ISZERO DUP1 ISZERO PUSH2 0x6B62 JUMPI PUSH1 0x0 DUP1 REVERT JUMPDEST POP DUP7 STATICCALL SWAP4 POP POP POP POP DUP1 ISZERO PUSH2 0x6B94 JUMPI POP PUSH1 0x40 MLOAD RETURNDATASIZE PUSH1 0x1F NOT PUSH1 0x1F DUP3 ADD AND DUP3 ADD DUP1 PUSH1 0x40 MSTORE POP DUP2 ADD SWAP1 PUSH2 0x6B91 SWAP2 SWAP1 PUSH2 0xBD27 JUMP JUMPDEST PUSH1 0x1 JUMPDEST PUSH2 0x6BD4 JUMPI RETURNDATASIZE DUP1 PUSH1 0x0 DUP2 EQ PUSH2 0x6BC4 JUMPI PUSH1 0x40 MLOAD SWAP2 POP PUSH1 0x1F NOT PUSH1 0x3F RETURNDATASIZE ADD AND DUP3 ADD PUSH1 0x40 MSTORE RETURNDATASIZE DUP3 MSTORE RETURNDATASIZE PUSH1 0x0 PUSH1 0x20 DUP5 ADD RETURNDATACOPY PUSH2 0x6BC9 JUMP JUMPDEST PUSH1 0x60 SWAP2 POP JUMPDEST POP PUSH1 0x0 SWAP2 POP POP PUSH2 0x6C1F JUMP JUMPDEST PUSH1 0x0 PUSH2 0x6BDF DUP6 PUSH2 0x9B58 JUMP JUMPDEST PUSH1 0xFF AND SWAP1 POP PUSH1 0x0 PUSH2 0x6BEF DUP8 PUSH2 0x9B58 JUMP JUMPDEST PUSH1 0xFF AND SWAP1 POP PUSH8 0xDE0B6B3A7640000 DUP2 PUSH1 0xA EXP DUP4 PUSH1 0xA EXP DUP8 DUP7 MUL MUL DUP2 PUSH2 0x6C10 JUMPI INVALID JUMPDEST DIV DUP2 PUSH2 0x6C18 JUMPI INVALID JUMPDEST DIV SWAP4 POP POP POP POP JUMPDEST SWAP5 SWAP4 POP POP POP POP JUMP JUMPDEST PUSH1 0x0 PUSH1 0x60 PUSH2 0x6C35 DUP5 DUP7 PUSH2 0x72EB JUMP JUMPDEST PUSH1 0x0 DUP4 MLOAD SWAP1 POP DUP1 PUSH8 0xFFFFFFFFFFFFFFFF DUP2 GT DUP1 ISZERO PUSH2 0x6C52 JUMPI PUSH1 0x0 DUP1 REVERT JUMPDEST POP PUSH1 0x40 MLOAD SWAP1 DUP1 DUP3 MSTORE DUP1 PUSH1 0x20 MUL PUSH1 0x20 ADD DUP3 ADD PUSH1 0x40 MSTORE DUP1 ISZERO PUSH2 0x6C81 JUMPI DUP2 PUSH1 0x20 ADD PUSH1 0x20 DUP3 MUL DUP1 CALLDATASIZE DUP4 CALLDATACOPY DUP1 DUP3 ADD SWAP2 POP POP SWAP1 POP JUMPDEST POP SWAP2 POP PUSH2 0x6CEC PUSH1 0x40 MLOAD DUP1 PUSH1 0x60 ADD PUSH1 0x40 MSTORE DUP1 DUP10 DUP9 PUSH1 0x40 MLOAD PUSH1 0x20 ADD PUSH2 0x6CA5 SWAP3 SWAP2 SWAP1 PUSH2 0xC0F3 JUMP JUMPDEST PUSH1 0x40 MLOAD PUSH1 0x20 DUP2 DUP4 SUB SUB DUP2 MSTORE SWAP1 PUSH1 0x40 MSTORE DUP2 MSTORE PUSH1 0x20 ADD DUP10 DUP10 PUSH1 0x40 MLOAD PUSH1 0x20 ADD PUSH2 0x6CCC SWAP3 SWAP2 SWAP1 PUSH2 0xC0F3 JUMP JUMPDEST PUSH1 0x40 MLOAD PUSH1 0x20 DUP2 DUP4 SUB SUB DUP2 MSTORE SWAP1 PUSH1 0x40 MSTORE DUP2 MSTORE PUSH1 0x20 ADD PUSH2 0x9B6A DUP2 MSTORE POP DUP6 PUSH2 0x7B61 JUMP JUMPDEST SWAP2 POP DUP7 PUSH20 0xFFFFFFFFFFFFFFFFFFFFFFFFFFFFFFFFFFFFFFFF AND PUSH4 0x901754D7 DUP8 DUP8 PUSH1 0x40 MLOAD DUP4 PUSH4 0xFFFFFFFF AND PUSH1 0xE0 SHL DUP2 MSTORE PUSH1 0x4 ADD PUSH2 0x6D29 SWAP3 SWAP2 SWAP1 PUSH2 0xC0F3 JUMP JUMPDEST PUSH1 0x20 PUSH1 0x40 MLOAD DUP1 DUP4 SUB DUP2 DUP7 DUP1 EXTCODESIZE ISZERO DUP1 ISZERO PUSH2 0x6D41 JUMPI PUSH1 0x0 DUP1 REVERT JUMPDEST POP GAS STATICCALL ISZERO DUP1 ISZERO PUSH2 0x6D55 JUMPI RETURNDATASIZE PUSH1 0x0 DUP1 RETURNDATACOPY RETURNDATASIZE PUSH1 0x0 REVERT JUMPDEST POP POP POP POP PUSH1 0x40 MLOAD RETURNDATASIZE PUSH1 0x1F NOT PUSH1 0x1F DUP3 ADD AND DUP3 ADD DUP1 PUSH1 0x40 MSTORE POP DUP2 ADD SWAP1 PUSH2 0x6D79 SWAP2 SWAP1 PUSH2 0xABCB JUMP JUMPDEST SWAP3 POP POP SWAP5 POP SWAP5 SWAP3 POP POP POP JUMP JUMPDEST PUSH2 0x6D8D PUSH2 0xA277 JUMP JUMPDEST PUSH2 0x6D95 PUSH2 0xA277 JUMP JUMPDEST PUSH1 0x0 PUSH32 0xFFFFFFFFFFFFFFFFFFFFFFFFFFFFFFFFFFFFFFFFFFFFFFFFFFFFFFFFFFFFFFFF SWAP1 POP PUSH1 0x0 PUSH32 0xFFFFFFFFFFFFFFFFFFFFFFFFFFFFFFFFFFFFFFFFFFFFFFFFFFFFFFFFFFFFFFFF SWAP1 POP PUSH1 0x0 JUMPDEST DUP7 MLOAD DUP2 EQ PUSH2 0x6F05 JUMPI PUSH2 0x6E29 PUSH1 0x20 DUP9 DUP4 DUP2 MLOAD DUP2 LT PUSH2 0x6DFB JUMPI INVALID JUMPDEST PUSH1 0x20 MUL PUSH1 0x20 ADD ADD MLOAD MLOAD SUB DUP8 DUP10 DUP5 DUP2 MLOAD DUP2 LT PUSH2 0x6E12 JUMPI INVALID JUMPDEST PUSH1 0x20 MUL PUSH1 0x20 ADD ADD MLOAD PUSH2 0x8F49 SWAP1 SWAP3 SWAP2 SWAP1 PUSH4 0xFFFFFFFF AND JUMP JUMPDEST PUSH1 0x0 PUSH1 0x60 ADDRESS PUSH20 0xFFFFFFFFFFFFFFFFFFFFFFFFFFFFFFFFFFFFFFFF AND DUP10 DUP5 DUP2 MLOAD DUP2 LT PUSH2 0x6E50 JUMPI INVALID JUMPDEST PUSH1 0x20 MUL PUSH1 0x20 ADD ADD MLOAD PUSH1 0x40 MLOAD PUSH2 0x6E65 SWAP2 SWAP1 PUSH2 0xC083 JUMP JUMPDEST PUSH1 0x0 PUSH1 0x40 MLOAD DUP1 DUP4 SUB DUP2 DUP6 GAS STATICCALL SWAP2 POP POP RETURNDATASIZE DUP1 PUSH1 0x0 DUP2 EQ PUSH2 0x6EA0 JUMPI PUSH1 0x40 MLOAD SWAP2 POP PUSH1 0x1F NOT PUSH1 0x3F RETURNDATASIZE ADD AND DUP3 ADD PUSH1 0x40 MSTORE RETURNDATASIZE DUP3 MSTORE RETURNDATASIZE PUSH1 0x0 PUSH1 0x20 DUP5 ADD RETURNDATACOPY PUSH2 0x6EA5 JUMP JUMPDEST PUSH1 0x60 SWAP2 POP JUMPDEST POP SWAP2 POP SWAP2 POP DUP2 ISZERO PUSH2 0x6EF8 JUMPI PUSH1 0x0 PUSH2 0x6EC9 PUSH1 0x20 DUP4 MLOAD SUB DUP4 PUSH2 0x8F5C SWAP1 SWAP2 SWAP1 PUSH4 0xFFFFFFFF AND JUMP JUMPDEST SWAP1 POP PUSH1 0x0 DUP2 GT DUP1 ISZERO PUSH2 0x6EDA JUMPI POP DUP5 DUP2 LT JUMPDEST ISZERO PUSH2 0x6EF6 JUMPI DUP1 SWAP5 POP DUP4 DUP8 PUSH1 0x0 ADD DUP2 DUP2 MSTORE POP POP DUP2 DUP8 PUSH1 0x20 ADD DUP2 SWAP1 MSTORE POP JUMPDEST POP JUMPDEST POP POP DUP1 PUSH1 0x1 ADD SWAP1 POP PUSH2 0x6DE2 JUMP JUMPDEST POP PUSH32 0xFFFFFFFFFFFFFFFFFFFFFFFFFFFFFFFFFFFFFFFFFFFFFFFFFFFFFFFFFFFFFFFF DUP2 EQ ISZERO PUSH2 0x6F34 JUMPI POP PUSH2 0x705D JUMP JUMPDEST PUSH1 0x0 JUMPDEST DUP8 MLOAD DUP2 EQ PUSH2 0x705A JUMPI PUSH2 0x6F7E PUSH1 0x20 DUP10 DUP4 DUP2 MLOAD DUP2 LT PUSH2 0x6F50 JUMPI INVALID JUMPDEST PUSH1 0x20 MUL PUSH1 0x20 ADD ADD MLOAD MLOAD SUB DUP4 DUP11 DUP5 DUP2 MLOAD DUP2 LT PUSH2 0x6F67 JUMPI INVALID JUMPDEST PUSH1 0x20 MUL PUSH1 0x20 ADD ADD MLOAD PUSH2 0x8F49 SWAP1 SWAP3 SWAP2 SWAP1 PUSH4 0xFFFFFFFF AND JUMP JUMPDEST PUSH1 0x0 PUSH1 0x60 ADDRESS PUSH20 0xFFFFFFFFFFFFFFFFFFFFFFFFFFFFFFFFFFFFFFFF AND DUP11 DUP5 DUP2 MLOAD DUP2 LT PUSH2 0x6FA5 JUMPI INVALID JUMPDEST PUSH1 0x20 MUL PUSH1 0x20 ADD ADD MLOAD PUSH1 0x40 MLOAD PUSH2 0x6FBA SWAP2 SWAP1 PUSH2 0xC083 JUMP JUMPDEST PUSH1 0x0 PUSH1 0x40 MLOAD DUP1 DUP4 SUB DUP2 DUP6 GAS STATICCALL SWAP2 POP POP RETURNDATASIZE DUP1 PUSH1 0x0 DUP2 EQ PUSH2 0x6FF5 JUMPI PUSH1 0x40 MLOAD SWAP2 POP PUSH1 0x1F NOT PUSH1 0x3F RETURNDATASIZE ADD AND DUP3 ADD PUSH1 0x40 MSTORE RETURNDATASIZE DUP3 MSTORE RETURNDATASIZE PUSH1 0x0 PUSH1 0x20 DUP5 ADD RETURNDATACOPY PUSH2 0x6FFA JUMP JUMPDEST PUSH1 0x60 SWAP2 POP JUMPDEST POP SWAP2 POP SWAP2 POP DUP2 ISZERO PUSH2 0x704D JUMPI PUSH1 0x0 PUSH2 0x701E PUSH1 0x20 DUP4 MLOAD SUB DUP4 PUSH2 0x8F5C SWAP1 SWAP2 SWAP1 PUSH4 0xFFFFFFFF AND JUMP JUMPDEST SWAP1 POP PUSH1 0x0 DUP2 GT DUP1 ISZERO PUSH2 0x702F JUMPI POP DUP6 DUP2 LT JUMPDEST ISZERO PUSH2 0x704B JUMPI DUP1 SWAP6 POP DUP4 DUP9 PUSH1 0x0 ADD DUP2 DUP2 MSTORE POP POP DUP2 DUP9 PUSH1 0x20 ADD DUP2 SWAP1 MSTORE POP JUMPDEST POP JUMPDEST POP POP DUP1 PUSH1 0x1 ADD SWAP1 POP PUSH2 0x6F37 JUMP JUMPDEST POP POP JUMPDEST SWAP4 POP SWAP4 POP SWAP4 SWAP1 POP JUMP JUMPDEST PUSH1 0x2 PUSH1 0x0 SWAP1 SLOAD SWAP1 PUSH2 0x100 EXP SWAP1 DIV PUSH20 0xFFFFFFFFFFFFFFFFFFFFFFFFFFFFFFFFFFFFFFFF AND DUP2 JUMP JUMPDEST PUSH1 0x0 PUSH1 0x60 DUP6 PUSH1 0x0 ADD MLOAD PUSH20 0xFFFFFFFFFFFFFFFFFFFFFFFFFFFFFFFFFFFFFFFF AND PUSH4 0x21F8A721 DUP8 PUSH1 0x0 ADD MLOAD PUSH20 0xFFFFFFFFFFFFFFFFFFFFFFFFFFFFFFFFFFFFFFFF AND PUSH4 0x9232494E PUSH1 0x40 MLOAD DUP2 PUSH4 0xFFFFFFFF AND PUSH1 0xE0 SHL DUP2 MSTORE PUSH1 0x4 ADD PUSH1 0x20 PUSH1 0x40 MLOAD DUP1 DUP4 SUB DUP2 DUP7 DUP1 EXTCODESIZE ISZERO DUP1 ISZERO PUSH2 0x70FA JUMPI PUSH1 0x0 DUP1 REVERT JUMPDEST POP GAS STATICCALL ISZERO DUP1 ISZERO PUSH2 0x710E JUMPI RETURNDATASIZE PUSH1 0x0 DUP1 RETURNDATACOPY RETURNDATASIZE PUSH1 0x0 REVERT JUMPDEST POP POP POP POP PUSH1 0x40 MLOAD RETURNDATASIZE PUSH1 0x1F NOT PUSH1 0x1F DUP3 ADD AND DUP3 ADD DUP1 PUSH1 0x40 MSTORE POP DUP2 ADD SWAP1 PUSH2 0x7132 SWAP2 SWAP1 PUSH2 0xB5C2 JUMP JUMPDEST PUSH1 0x40 MLOAD DUP3 PUSH4 0xFFFFFFFF AND PUSH1 0xE0 SHL DUP2 MSTORE PUSH1 0x4 ADD PUSH2 0x714E SWAP2 SWAP1 PUSH2 0xC5D8 JUMP JUMPDEST PUSH1 0x20 PUSH1 0x40 MLOAD DUP1 DUP4 SUB DUP2 DUP7 DUP1 EXTCODESIZE ISZERO DUP1 ISZERO PUSH2 0x7166 JUMPI PUSH1 0x0 DUP1 REVERT JUMPDEST POP GAS STATICCALL ISZERO DUP1 ISZERO PUSH2 0x717A JUMPI RETURNDATASIZE PUSH1 0x0 DUP1 RETURNDATACOPY RETURNDATASIZE PUSH1 0x0 REVERT JUMPDEST POP POP POP POP PUSH1 0x40 MLOAD RETURNDATASIZE PUSH1 0x1F NOT PUSH1 0x1F DUP3 ADD AND DUP3 ADD DUP1 PUSH1 0x40 MSTORE POP DUP2 ADD SWAP1 PUSH2 0x719E SWAP2 SWAP1 PUSH2 0xABCB JUMP JUMPDEST SWAP2 POP PUSH1 0x0 DUP7 PUSH1 0x20 ADD MLOAD MLOAD EQ ISZERO PUSH2 0x71B3 JUMPI PUSH2 0x72E2 JUMP JUMPDEST PUSH1 0x0 DUP1 JUMPDEST DUP8 PUSH1 0x20 ADD MLOAD MLOAD DUP2 LT ISZERO PUSH2 0x72DF JUMPI PUSH1 0x2 DUP9 PUSH1 0x20 ADD MLOAD DUP3 DUP2 MLOAD DUP2 LT PUSH2 0x71D6 JUMPI INVALID JUMPDEST PUSH1 0x20 MUL PUSH1 0x20 ADD ADD MLOAD MLOAD LT ISZERO PUSH2 0x71EA JUMPI PUSH2 0x72D2 JUMP JUMPDEST DUP4 PUSH20 0xFFFFFFFFFFFFFFFFFFFFFFFFFFFFFFFFFFFFFFFF AND PUSH4 0x7F9C0ECD PUSH3 0x493E0 DUP11 PUSH1 0x20 ADD MLOAD DUP5 DUP2 MLOAD DUP2 LT PUSH2 0x721A JUMPI INVALID JUMPDEST PUSH1 0x20 MUL PUSH1 0x20 ADD ADD MLOAD DUP9 PUSH1 0x1 DUP11 MLOAD SUB DUP2 MLOAD DUP2 LT PUSH2 0x7232 JUMPI INVALID JUMPDEST PUSH1 0x20 MUL PUSH1 0x20 ADD ADD MLOAD PUSH1 0x40 MLOAD DUP5 PUSH4 0xFFFFFFFF AND PUSH1 0xE0 SHL DUP2 MSTORE PUSH1 0x4 ADD PUSH2 0x7257 SWAP3 SWAP2 SWAP1 PUSH2 0xC45F JUMP JUMPDEST PUSH1 0x20 PUSH1 0x40 MLOAD DUP1 DUP4 SUB DUP2 DUP8 DUP1 EXTCODESIZE ISZERO DUP1 ISZERO PUSH2 0x726F JUMPI PUSH1 0x0 DUP1 REVERT JUMPDEST POP DUP7 STATICCALL SWAP4 POP POP POP POP DUP1 ISZERO PUSH2 0x72A1 JUMPI POP PUSH1 0x40 MLOAD RETURNDATASIZE PUSH1 0x1F NOT PUSH1 0x1F DUP3 ADD AND DUP3 ADD DUP1 PUSH1 0x40 MSTORE POP DUP2 ADD SWAP1 PUSH2 0x729E SWAP2 SWAP1 PUSH2 0xBD27 JUMP JUMPDEST PUSH1 0x1 JUMPDEST PUSH2 0x72AA JUMPI PUSH2 0x72D2 JUMP JUMPDEST DUP3 DUP2 GT ISZERO PUSH2 0x72D0 JUMPI DUP1 SWAP3 POP DUP9 PUSH1 0x20 ADD MLOAD DUP3 DUP2 MLOAD DUP2 LT PUSH2 0x72C5 JUMPI INVALID JUMPDEST PUSH1 0x20 MUL PUSH1 0x20 ADD ADD MLOAD SWAP4 POP JUMPDEST POP JUMPDEST DUP1 DUP1 PUSH1 0x1 ADD SWAP2 POP POP PUSH2 0x71B7 JUMP JUMPDEST POP POP JUMPDEST SWAP5 POP SWAP5 SWAP3 POP POP POP JUMP JUMPDEST DUP1 PUSH20 0xFFFFFFFFFFFFFFFFFFFFFFFFFFFFFFFFFFFFFFFF AND DUP3 PUSH20 0xFFFFFFFFFFFFFFFFFFFFFFFFFFFFFFFFFFFFFFFF AND EQ ISZERO PUSH2 0x735A JUMPI PUSH1 0x40 MLOAD PUSH32 0x8C379A000000000000000000000000000000000000000000000000000000000 DUP2 MSTORE PUSH1 0x4 ADD PUSH2 0x7351 SWAP1 PUSH2 0xC92F JUMP JUMPDEST PUSH1 0x40 MLOAD DUP1 SWAP2 SUB SWAP1 REVERT JUMPDEST POP POP JUMP JUMPDEST PUSH2 0x7366 PUSH2 0xA1D4 JUMP JUMPDEST PUSH1 0x40 MLOAD DUP1 PUSH1 0x80 ADD PUSH1 0x40 MSTORE DUP1 ADDRESS PUSH20 0xFFFFFFFFFFFFFFFFFFFFFFFFFFFFFFFFFFFFFFFF AND DUP2 MSTORE PUSH1 0x20 ADD PUSH1 0x0 ISZERO ISZERO DUP2 MSTORE PUSH1 0x20 ADD ADDRESS PUSH20 0xFFFFFFFFFFFFFFFFFFFFFFFFFFFFFFFFFFFFFFFF AND DUP2 MSTORE PUSH1 0x20 ADD PUSH1 0x0 ISZERO ISZERO DUP2 MSTORE POP SWAP1 POP SWAP1 JUMP JUMPDEST PUSH1 0x60 DUP1 PUSH1 0x1 PUSH8 0xFFFFFFFFFFFFFFFF DUP2 GT DUP1 ISZERO PUSH2 0x73D9 JUMPI PUSH1 0x0 DUP1 REVERT JUMPDEST POP PUSH1 0x40 MLOAD SWAP1 DUP1 DUP3 MSTORE DUP1 PUSH1 0x20 MUL PUSH1 0x20 ADD DUP3 ADD PUSH1 0x40 MSTORE DUP1 ISZERO PUSH2 0x7413 JUMPI DUP2 PUSH1 0x20 ADD JUMPDEST PUSH2 0x7400 PUSH2 0xA291 JUMP JUMPDEST DUP2 MSTORE PUSH1 0x20 ADD SWAP1 PUSH1 0x1 SWAP1 SUB SWAP1 DUP2 PUSH2 0x73F8 JUMPI SWAP1 POP JUMPDEST POP SWAP1 POP PUSH1 0x40 MLOAD DUP1 PUSH1 0xA0 ADD PUSH1 0x40 MSTORE DUP1 DUP6 PUSH1 0x0 ADD MLOAD DUP2 MSTORE PUSH1 0x20 ADD PUSH1 0x0 DUP2 MSTORE PUSH1 0x20 ADD PUSH1 0x1 DUP2 MSTORE PUSH1 0x20 ADD DUP5 DUP2 MSTORE PUSH1 0x20 ADD PUSH1 0x40 MLOAD DUP1 PUSH1 0x20 ADD PUSH1 0x40 MSTORE DUP1 PUSH1 0x0 DUP2 MSTORE POP DUP2 MSTORE POP DUP2 PUSH1 0x0 DUP2 MLOAD DUP2 LT PUSH2 0x745F JUMPI INVALID JUMPDEST PUSH1 0x20 MUL PUSH1 0x20 ADD ADD DUP2 SWAP1 MSTORE POP DUP1 SWAP2 POP POP SWAP3 SWAP2 POP POP JUMP JUMPDEST PUSH1 0x0 DUP3 PUSH20 0xFFFFFFFFFFFFFFFFFFFFFFFFFFFFFFFFFFFFFFFF AND PUSH4 0x6F2BF62 DUP4 PUSH1 0x40 MLOAD DUP3 PUSH4 0xFFFFFFFF AND PUSH1 0xE0 SHL DUP2 MSTORE PUSH1 0x4 ADD PUSH2 0x74AF SWAP2 SWAP1 PUSH2 0xC0A1 JUMP JUMPDEST PUSH1 0x20 PUSH1 0x40 MLOAD DUP1 DUP4 SUB DUP2 DUP7 DUP1 EXTCODESIZE ISZERO DUP1 ISZERO PUSH2 0x74C7 JUMPI PUSH1 0x0 DUP1 REVERT JUMPDEST POP GAS STATICCALL ISZERO DUP1 ISZERO PUSH2 0x74DB JUMPI RETURNDATASIZE PUSH1 0x0 DUP1 RETURNDATACOPY RETURNDATASIZE PUSH1 0x0 REVERT JUMPDEST POP POP POP POP PUSH1 0x40 MLOAD RETURNDATASIZE PUSH1 0x1F NOT PUSH1 0x1F DUP3 ADD AND DUP3 ADD DUP1 PUSH1 0x40 MSTORE POP DUP2 ADD SWAP1 PUSH2 0x74FF SWAP2 SWAP1 PUSH2 0xABCB JUMP JUMPDEST SWAP1 POP SWAP3 SWAP2 POP POP JUMP JUMPDEST PUSH1 0x0 DUP1 PUSH1 0x0 PUSH20 0xFFFFFFFFFFFFFFFFFFFFFFFFFFFFFFFFFFFFFFFF AND DUP6 PUSH20 0xFFFFFFFFFFFFFFFFFFFFFFFFFFFFFFFFFFFFFFFF AND EQ ISZERO PUSH2 0x7544 JUMPI PUSH2 0x7646 JUMP JUMPDEST PUSH1 0x60 DUP6 PUSH20 0xFFFFFFFFFFFFFFFFFFFFFFFFFFFFFFFFFFFFFFFF AND PUSH3 0x249F0 DUP7 DUP7 PUSH1 0x40 MLOAD PUSH1 0x24 ADD PUSH2 0x7573 SWAP2 SWAP1 PUSH2 0xCC1E JUMP JUMPDEST PUSH1 0x40 MLOAD PUSH1 0x20 DUP2 DUP4 SUB SUB DUP2 MSTORE SWAP1 PUSH1 0x40 MSTORE SWAP1 PUSH28 0xFFFFFFFFFFFFFFFFFFFFFFFFFFFFFFFFFFFFFFFFFFFFFFFFFFFFFFFF NOT AND PUSH1 0x20 DUP3 ADD DUP1 MLOAD PUSH28 0xFFFFFFFFFFFFFFFFFFFFFFFFFFFFFFFFFFFFFFFFFFFFFFFFFFFFFFFF DUP4 DUP2 DUP4 AND OR DUP4 MSTORE POP POP POP POP PUSH1 0x40 MLOAD PUSH2 0x75DD SWAP2 SWAP1 PUSH2 0xC083 JUMP JUMPDEST PUSH1 0x0 PUSH1 0x40 MLOAD DUP1 DUP4 SUB DUP2 DUP7 DUP7 STATICCALL SWAP3 POP POP POP RETURNDATASIZE DUP1 PUSH1 0x0 DUP2 EQ PUSH2 0x7619 JUMPI PUSH1 0x40 MLOAD SWAP2 POP PUSH1 0x1F NOT PUSH1 0x3F RETURNDATASIZE ADD AND DUP3 ADD PUSH1 0x40 MSTORE RETURNDATASIZE DUP3 MSTORE RETURNDATASIZE PUSH1 0x0 PUSH1 0x20 DUP5 ADD RETURNDATACOPY PUSH2 0x761E JUMP JUMPDEST PUSH1 0x60 SWAP2 POP JUMPDEST POP DUP1 SWAP3 POP DUP2 SWAP4 POP POP POP DUP2 ISZERO PUSH2 0x7644 JUMPI DUP1 DUP1 PUSH1 0x20 ADD SWAP1 MLOAD DUP2 ADD SWAP1 PUSH2 0x7641 SWAP2 SWAP1 PUSH2 0xBD27 JUMP JUMPDEST SWAP3 POP JUMPDEST POP JUMPDEST SWAP4 POP SWAP4 SWAP2 POP POP JUMP JUMPDEST PUSH1 0x0 DUP1 PUSH1 0x0 DUP1 DUP5 PUSH20 0xFFFFFFFFFFFFFFFFFFFFFFFFFFFFFFFFFFFFFFFF AND PUSH4 0xD9638D36 DUP12 PUSH1 0x20 ADD MLOAD PUSH1 0x40 MLOAD DUP3 PUSH4 0xFFFFFFFF AND PUSH1 0xE0 SHL DUP2 MSTORE PUSH1 0x4 ADD PUSH2 0x7691 SWAP2 SWAP1 PUSH2 0xC5D8 JUMP JUMPDEST PUSH1 0xA0 PUSH1 0x40 MLOAD DUP1 DUP4 SUB DUP2 DUP7 DUP1 EXTCODESIZE ISZERO DUP1 ISZERO PUSH2 0x76A9 JUMPI PUSH1 0x0 DUP1 REVERT JUMPDEST POP GAS STATICCALL ISZERO DUP1 ISZERO PUSH2 0x76BD JUMPI RETURNDATASIZE PUSH1 0x0 DUP1 RETURNDATACOPY RETURNDATASIZE PUSH1 0x0 REVERT JUMPDEST POP POP POP POP PUSH1 0x40 MLOAD RETURNDATASIZE PUSH1 0x1F NOT PUSH1 0x1F DUP3 ADD AND DUP3 ADD DUP1 PUSH1 0x40 MSTORE POP DUP2 ADD SWAP1 PUSH2 0x76E1 SWAP2 SWAP1 PUSH2 0xBD9D JUMP JUMPDEST SWAP5 POP SWAP5 POP POP POP SWAP3 POP PUSH1 0x0 PUSH3 0xF4240 SWAP1 POP DUP11 PUSH1 0x40 ADD MLOAD PUSH20 0xFFFFFFFFFFFFFFFFFFFFFFFFFFFFFFFFFFFFFFFF AND DUP10 PUSH20 0xFFFFFFFFFFFFFFFFFFFFFFFFFFFFFFFFFFFFFFFF AND EQ ISZERO PUSH2 0x7865 JUMPI PUSH1 0x0 PUSH2 0x7743 PUSH5 0xE8D4A51000 DUP11 PUSH2 0x9BBB SWAP1 SWAP2 SWAP1 PUSH4 0xFFFFFFFF AND JUMP JUMPDEST SWAP1 POP PUSH1 0x0 PUSH2 0x7778 PUSH12 0x33B2E3C9FD0803CE8000000 PUSH2 0x776A DUP5 DUP10 PUSH2 0x9C05 SWAP1 SWAP2 SWAP1 PUSH4 0xFFFFFFFF AND JUMP JUMPDEST PUSH2 0x9BBB SWAP1 SWAP2 SWAP1 PUSH4 0xFFFFFFFF AND JUMP JUMPDEST SWAP1 POP DUP5 DUP2 LT PUSH2 0x7790 JUMPI PUSH1 0x0 SWAP7 POP POP POP POP POP POP POP PUSH2 0x79E1 JUMP JUMPDEST PUSH1 0x0 PUSH2 0x783C PUSH8 0xDE0B6B3A7640000 PUSH2 0x782E DUP13 PUSH20 0xFFFFFFFFFFFFFFFFFFFFFFFFFFFFFFFFFFFFFFFF AND PUSH4 0x568D4B6F PUSH1 0x40 MLOAD DUP2 PUSH4 0xFFFFFFFF AND PUSH1 0xE0 SHL DUP2 MSTORE PUSH1 0x4 ADD PUSH1 0x20 PUSH1 0x40 MLOAD DUP1 DUP4 SUB DUP2 DUP7 DUP1 EXTCODESIZE ISZERO DUP1 ISZERO PUSH2 0x77E7 JUMPI PUSH1 0x0 DUP1 REVERT JUMPDEST POP GAS STATICCALL ISZERO DUP1 ISZERO PUSH2 0x77FB JUMPI RETURNDATASIZE PUSH1 0x0 DUP1 RETURNDATACOPY RETURNDATASIZE PUSH1 0x0 REVERT JUMPDEST POP POP POP POP PUSH1 0x40 MLOAD RETURNDATASIZE PUSH1 0x1F NOT PUSH1 0x1F DUP3 ADD AND DUP3 ADD DUP1 PUSH1 0x40 MSTORE POP DUP2 ADD SWAP1 PUSH2 0x781F SWAP2 SWAP1 PUSH2 0xBD27 JUMP JUMPDEST DUP7 PUSH2 0x9BBB SWAP1 SWAP2 SWAP1 PUSH4 0xFFFFFFFF AND JUMP JUMPDEST PUSH2 0x9C34 SWAP1 SWAP2 SWAP1 PUSH4 0xFFFFFFFF AND JUMP JUMPDEST SWAP1 POP PUSH1 0x0 PUSH2 0x7853 DUP3 DUP6 PUSH2 0x9C6B SWAP1 SWAP2 SWAP1 PUSH4 0xFFFFFFFF AND JUMP JUMPDEST SWAP1 POP DUP1 SWAP9 POP POP POP POP POP POP POP POP POP PUSH2 0x79E1 JUMP JUMPDEST DUP11 PUSH1 0x40 ADD MLOAD PUSH20 0xFFFFFFFFFFFFFFFFFFFFFFFFFFFFFFFFFFFFFFFF AND DUP11 PUSH20 0xFFFFFFFFFFFFFFFFFFFFFFFFFFFFFFFFFFFFFFFF AND EQ ISZERO PUSH2 0x79D8 JUMPI PUSH1 0x0 DUP9 SWAP1 POP DUP5 DUP2 GT ISZERO PUSH2 0x78B8 JUMPI PUSH1 0x0 SWAP6 POP POP POP POP POP POP PUSH2 0x79E1 JUMP JUMPDEST PUSH1 0x0 PUSH2 0x78EB PUSH12 0x33B2E3C9FD0803CE8000000 PUSH2 0x78DD DUP5 DUP10 PUSH2 0x9C6B SWAP1 SWAP2 SWAP1 PUSH4 0xFFFFFFFF AND JUMP JUMPDEST PUSH2 0x9BBB SWAP1 SWAP2 SWAP1 PUSH4 0xFFFFFFFF AND JUMP JUMPDEST SWAP1 POP DUP4 DUP2 GT PUSH2 0x7903 JUMPI PUSH1 0x0 SWAP7 POP POP POP POP POP POP POP PUSH2 0x79E1 JUMP JUMPDEST PUSH1 0x0 PUSH2 0x799D DUP11 PUSH20 0xFFFFFFFFFFFFFFFFFFFFFFFFFFFFFFFFFFFFFFFF AND PUSH4 0xFAE036D5 PUSH1 0x40 MLOAD DUP2 PUSH4 0xFFFFFFFF AND PUSH1 0xE0 SHL DUP2 MSTORE PUSH1 0x4 ADD PUSH1 0x20 PUSH1 0x40 MLOAD DUP1 DUP4 SUB DUP2 DUP7 DUP1 EXTCODESIZE ISZERO DUP1 ISZERO PUSH2 0x794E JUMPI PUSH1 0x0 DUP1 REVERT JUMPDEST POP GAS STATICCALL ISZERO DUP1 ISZERO PUSH2 0x7962 JUMPI RETURNDATASIZE PUSH1 0x0 DUP1 RETURNDATACOPY RETURNDATASIZE PUSH1 0x0 REVERT JUMPDEST POP POP POP POP PUSH1 0x40 MLOAD RETURNDATASIZE PUSH1 0x1F NOT PUSH1 0x1F DUP3 ADD AND DUP3 ADD DUP1 PUSH1 0x40 MSTORE POP DUP2 ADD SWAP1 PUSH2 0x7986 SWAP2 SWAP1 PUSH2 0xBD27 JUMP JUMPDEST PUSH8 0xDE0B6B3A7640000 PUSH2 0x9C05 SWAP1 SWAP2 SWAP1 PUSH4 0xFFFFFFFF AND JUMP JUMPDEST SWAP1 POP PUSH1 0x0 PUSH2 0x79C6 DUP3 PUSH2 0x79B8 DUP8 DUP8 PUSH2 0x9BBB SWAP1 SWAP2 SWAP1 PUSH4 0xFFFFFFFF AND JUMP JUMPDEST PUSH2 0x9C34 SWAP1 SWAP2 SWAP1 PUSH4 0xFFFFFFFF AND JUMP JUMPDEST SWAP1 POP DUP1 SWAP9 POP POP POP POP POP POP POP POP POP PUSH2 0x79E1 JUMP JUMPDEST PUSH1 0x0 SWAP5 POP POP POP POP POP JUMPDEST SWAP7 SWAP6 POP POP POP POP POP POP JUMP JUMPDEST PUSH1 0x0 DUP1 PUSH2 0x79F6 PUSH2 0xA2C3 JUMP JUMPDEST DUP6 DUP1 PUSH1 0x20 ADD SWAP1 MLOAD DUP2 ADD SWAP1 PUSH2 0x7A0A SWAP2 SWAP1 PUSH2 0xB75D JUMP JUMPDEST SWAP2 POP SWAP2 POP PUSH1 0x0 DUP6 DUP1 PUSH1 0x20 ADD SWAP1 MLOAD DUP2 ADD SWAP1 PUSH2 0x7A24 SWAP2 SWAP1 PUSH2 0xB700 JUMP JUMPDEST SWAP1 POP PUSH1 0x0 PUSH1 0x60 ADDRESS PUSH20 0xFFFFFFFFFFFFFFFFFFFFFFFFFFFFFFFFFFFFFFFF AND PUSH4 0x8B6D7B44 PUSH1 0xE0 SHL DUP6 DUP8 DUP7 PUSH2 0x7A55 DUP13 PUSH2 0x9C95 JUMP JUMPDEST PUSH1 0x40 MLOAD PUSH1 0x24 ADD PUSH2 0x7A68 SWAP5 SWAP4 SWAP3 SWAP2 SWAP1 PUSH2 0xCBE1 JUMP JUMPDEST PUSH1 0x40 MLOAD PUSH1 0x20 DUP2 DUP4 SUB SUB DUP2 MSTORE SWAP1 PUSH1 0x40 MSTORE SWAP1 PUSH28 0xFFFFFFFFFFFFFFFFFFFFFFFFFFFFFFFFFFFFFFFFFFFFFFFFFFFFFFFF NOT AND PUSH1 0x20 DUP3 ADD DUP1 MLOAD PUSH28 0xFFFFFFFFFFFFFFFFFFFFFFFFFFFFFFFFFFFFFFFFFFFFFFFFFFFFFFFF DUP4 DUP2 DUP4 AND OR DUP4 MSTORE POP POP POP POP PUSH1 0x40 MLOAD PUSH2 0x7AD2 SWAP2 SWAP1 PUSH2 0xC083 JUMP JUMPDEST PUSH1 0x0 PUSH1 0x40 MLOAD DUP1 DUP4 SUB DUP2 DUP6 GAS STATICCALL SWAP2 POP POP RETURNDATASIZE DUP1 PUSH1 0x0 DUP2 EQ PUSH2 0x7B0D JUMPI PUSH1 0x40 MLOAD SWAP2 POP PUSH1 0x1F NOT PUSH1 0x3F RETURNDATASIZE ADD AND DUP3 ADD PUSH1 0x40 MSTORE RETURNDATASIZE DUP3 MSTORE RETURNDATASIZE PUSH1 0x0 PUSH1 0x20 DUP5 ADD RETURNDATACOPY PUSH2 0x7B12 JUMP JUMPDEST PUSH1 0x60 SWAP2 POP JUMPDEST POP SWAP2 POP SWAP2 POP DUP2 PUSH2 0x7B2A JUMPI PUSH1 0x0 SWAP6 POP POP POP POP POP POP PUSH2 0x7B5A JUMP JUMPDEST DUP1 DUP1 PUSH1 0x20 ADD SWAP1 MLOAD DUP2 ADD SWAP1 PUSH2 0x7B3E SWAP2 SWAP1 PUSH2 0xB507 JUMP JUMPDEST PUSH1 0x0 DUP2 MLOAD DUP2 LT PUSH2 0x7B4A JUMPI INVALID JUMPDEST PUSH1 0x20 MUL PUSH1 0x20 ADD ADD MLOAD SWAP6 POP POP POP POP POP POP JUMPDEST SWAP4 SWAP3 POP POP POP JUMP JUMPDEST PUSH1 0x60 DUP2 MLOAD PUSH8 0xFFFFFFFFFFFFFFFF DUP2 GT DUP1 ISZERO PUSH2 0x7B7B JUMPI PUSH1 0x0 DUP1 REVERT JUMPDEST POP PUSH1 0x40 MLOAD SWAP1 DUP1 DUP3 MSTORE DUP1 PUSH1 0x20 MUL PUSH1 0x20 ADD DUP3 ADD PUSH1 0x40 MSTORE DUP1 ISZERO PUSH2 0x7BAA JUMPI DUP2 PUSH1 0x20 ADD PUSH1 0x20 DUP3 MUL DUP1 CALLDATASIZE DUP4 CALLDATACOPY DUP1 DUP3 ADD SWAP2 POP POP SWAP1 POP JUMPDEST POP SWAP1 POP PUSH1 0x0 DUP3 MLOAD EQ ISZERO PUSH2 0x7BBC JUMPI PUSH2 0x7D81 JUMP JUMPDEST PUSH1 0x0 PUSH2 0x7BED DUP5 PUSH1 0x0 ADD MLOAD DUP6 PUSH1 0x20 ADD MLOAD DUP6 PUSH1 0x0 DUP2 MLOAD DUP2 LT PUSH2 0x7BD8 JUMPI INVALID JUMPDEST PUSH1 0x20 MUL PUSH1 0x20 ADD ADD MLOAD DUP8 PUSH1 0x40 ADD MLOAD PUSH4 0xFFFFFFFF AND JUMP JUMPDEST SWAP1 POP PUSH1 0x0 DUP2 EQ ISZERO PUSH2 0x7BFE JUMPI POP PUSH2 0x7D81 JUMP JUMPDEST PUSH1 0x0 PUSH2 0x7C1B DUP6 PUSH1 0x20 ADD MLOAD DUP7 PUSH1 0x0 ADD MLOAD DUP5 DUP9 PUSH1 0x40 ADD MLOAD PUSH4 0xFFFFFFFF AND JUMP JUMPDEST SWAP1 POP PUSH1 0x0 DUP2 EQ ISZERO PUSH2 0x7C2D JUMPI POP POP PUSH2 0x7D81 JUMP JUMPDEST PUSH1 0x0 JUMPDEST DUP5 MLOAD DUP2 LT ISZERO PUSH2 0x7D7D JUMPI PUSH1 0x0 JUMPDEST PUSH1 0x5 DUP2 LT ISZERO PUSH2 0x7D39 JUMPI PUSH2 0x7C63 DUP7 DUP4 DUP2 MLOAD DUP2 LT PUSH2 0x7C54 JUMPI INVALID JUMPDEST PUSH1 0x20 MUL PUSH1 0x20 ADD ADD MLOAD DUP5 DUP7 PUSH2 0x9D00 JUMP JUMPDEST SWAP4 POP PUSH1 0x0 DUP5 EQ ISZERO PUSH2 0x7C73 JUMPI PUSH2 0x7D39 JUMP JUMPDEST PUSH2 0x7C85 PUSH1 0x5 PUSH2 0x2710 ADD PUSH2 0x2710 DUP7 PUSH2 0x9D00 JUMP JUMPDEST SWAP4 POP PUSH1 0x0 DUP5 EQ ISZERO PUSH2 0x7C95 JUMPI PUSH2 0x7D39 JUMP JUMPDEST PUSH1 0x0 PUSH2 0x7CB2 DUP9 PUSH1 0x20 ADD MLOAD DUP10 PUSH1 0x0 ADD MLOAD DUP8 DUP12 PUSH1 0x40 ADD MLOAD PUSH4 0xFFFFFFFF AND JUMP JUMPDEST SWAP1 POP PUSH1 0x0 DUP2 EQ ISZERO PUSH2 0x7CC3 JUMPI POP PUSH2 0x7D39 JUMP JUMPDEST DUP1 SWAP4 POP DUP7 DUP4 DUP2 MLOAD DUP2 LT PUSH2 0x7CD2 JUMPI INVALID JUMPDEST PUSH1 0x20 MUL PUSH1 0x20 ADD ADD MLOAD DUP5 LT PUSH2 0x7D2B JUMPI PUSH1 0x0 DUP8 DUP5 DUP2 MLOAD DUP2 LT PUSH2 0x7CEE JUMPI INVALID JUMPDEST PUSH1 0x20 MUL PUSH1 0x20 ADD ADD MLOAD PUSH2 0x2710 DUP10 DUP7 DUP2 MLOAD DUP2 LT PUSH2 0x7D05 JUMPI INVALID JUMPDEST PUSH1 0x20 MUL PUSH1 0x20 ADD ADD MLOAD DUP8 SUB MUL DUP2 PUSH2 0x7D17 JUMPI INVALID JUMPDEST DIV SWAP1 POP PUSH1 0x5 DUP2 GT PUSH2 0x7D29 JUMPI POP POP PUSH2 0x7D39 JUMP JUMPDEST POP JUMPDEST POP DUP1 DUP1 PUSH1 0x1 ADD SWAP2 POP POP PUSH2 0x7C3C JUMP JUMPDEST POP PUSH2 0x7D58 DUP6 DUP3 DUP2 MLOAD DUP2 LT PUSH2 0x7D49 JUMPI INVALID JUMPDEST PUSH1 0x20 MUL PUSH1 0x20 ADD ADD MLOAD DUP4 DUP6 PUSH2 0x9D00 JUMP JUMPDEST DUP5 DUP3 DUP2 MLOAD DUP2 LT PUSH2 0x7D64 JUMPI INVALID JUMPDEST PUSH1 0x20 MUL PUSH1 0x20 ADD ADD DUP2 DUP2 MSTORE POP POP DUP1 DUP1 PUSH1 0x1 ADD SWAP2 POP POP PUSH2 0x7C30 JUMP JUMPDEST POP POP POP JUMPDEST SWAP3 SWAP2 POP POP JUMP JUMPDEST PUSH1 0x0 DUP1 PUSH1 0x0 DUP1 PUSH1 0x0 DUP8 DUP1 PUSH1 0x20 ADD SWAP1 MLOAD DUP2 ADD SWAP1 PUSH2 0x7DA3 SWAP2 SWAP1 PUSH2 0xAC51 JUMP JUMPDEST SWAP4 POP SWAP4 POP SWAP4 POP SWAP4 POP DUP2 PUSH20 0xFFFFFFFFFFFFFFFFFFFFFFFFFFFFFFFFFFFFFFFF AND DUP5 PUSH20 0xFFFFFFFFFFFFFFFFFFFFFFFFFFFFFFFFFFFFFFFF AND EQ ISZERO PUSH2 0x7EB7 JUMPI DUP3 PUSH20 0xFFFFFFFFFFFFFFFFFFFFFFFFFFFFFFFFFFFFFFFF AND PUSH4 0xA2801E16 PUSH3 0x493E0 DUP9 PUSH1 0x40 MLOAD DUP4 PUSH4 0xFFFFFFFF AND PUSH1 0xE0 SHL DUP2 MSTORE PUSH1 0x4 ADD PUSH2 0x7E1C SWAP2 SWAP1 PUSH2 0xCC1E JUMP JUMPDEST PUSH1 0x20 PUSH1 0x40 MLOAD DUP1 DUP4 SUB DUP2 DUP8 DUP1 EXTCODESIZE ISZERO DUP1 ISZERO PUSH2 0x7E34 JUMPI PUSH1 0x0 DUP1 REVERT JUMPDEST POP DUP7 STATICCALL SWAP4 POP POP POP POP DUP1 ISZERO PUSH2 0x7E66 JUMPI POP PUSH1 0x40 MLOAD RETURNDATASIZE PUSH1 0x1F NOT PUSH1 0x1F DUP3 ADD AND DUP3 ADD DUP1 PUSH1 0x40 MSTORE POP DUP2 ADD SWAP1 PUSH2 0x7E63 SWAP2 SWAP1 PUSH2 0xBD27 JUMP JUMPDEST PUSH1 0x1 JUMPDEST PUSH2 0x7EAA JUMPI RETURNDATASIZE DUP1 PUSH1 0x0 DUP2 EQ PUSH2 0x7E96 JUMPI PUSH1 0x40 MLOAD SWAP2 POP PUSH1 0x1F NOT PUSH1 0x3F RETURNDATASIZE ADD AND DUP3 ADD PUSH1 0x40 MSTORE RETURNDATASIZE DUP3 MSTORE RETURNDATASIZE PUSH1 0x0 PUSH1 0x20 DUP5 ADD RETURNDATACOPY PUSH2 0x7E9B JUMP JUMPDEST PUSH1 0x60 SWAP2 POP JUMPDEST POP PUSH1 0x0 SWAP6 POP POP POP POP POP POP PUSH2 0x7F8D JUMP JUMPDEST DUP1 SWAP6 POP POP POP POP POP POP PUSH2 0x7F8D JUMP JUMPDEST DUP1 PUSH20 0xFFFFFFFFFFFFFFFFFFFFFFFFFFFFFFFFFFFFFFFF AND PUSH4 0xCA19EBD9 PUSH3 0x493E0 DUP6 DUP10 PUSH1 0x40 MLOAD DUP5 PUSH4 0xFFFFFFFF AND PUSH1 0xE0 SHL DUP2 MSTORE PUSH1 0x4 ADD PUSH2 0x7EF6 SWAP3 SWAP2 SWAP1 PUSH2 0xC3E4 JUMP JUMPDEST PUSH1 0x20 PUSH1 0x40 MLOAD DUP1 DUP4 SUB DUP2 DUP8 DUP1 EXTCODESIZE ISZERO DUP1 ISZERO PUSH2 0x7F0E JUMPI PUSH1 0x0 DUP1 REVERT JUMPDEST POP DUP7 STATICCALL SWAP4 POP POP POP POP DUP1 ISZERO PUSH2 0x7F40 JUMPI POP PUSH1 0x40 MLOAD RETURNDATASIZE PUSH1 0x1F NOT PUSH1 0x1F DUP3 ADD AND DUP3 ADD DUP1 PUSH1 0x40 MSTORE POP DUP2 ADD SWAP1 PUSH2 0x7F3D SWAP2 SWAP1 PUSH2 0xBD27 JUMP JUMPDEST PUSH1 0x1 JUMPDEST PUSH2 0x7F84 JUMPI RETURNDATASIZE DUP1 PUSH1 0x0 DUP2 EQ PUSH2 0x7F70 JUMPI PUSH1 0x40 MLOAD SWAP2 POP PUSH1 0x1F NOT PUSH1 0x3F RETURNDATASIZE ADD AND DUP3 ADD PUSH1 0x40 MSTORE RETURNDATASIZE DUP3 MSTORE RETURNDATASIZE PUSH1 0x0 PUSH1 0x20 DUP5 ADD RETURNDATACOPY PUSH2 0x7F75 JUMP JUMPDEST PUSH1 0x60 SWAP2 POP JUMPDEST POP PUSH1 0x0 SWAP6 POP POP POP POP POP POP PUSH2 0x7F8D JUMP JUMPDEST DUP1 SWAP6 POP POP POP POP POP POP JUMPDEST SWAP4 SWAP3 POP POP POP JUMP JUMPDEST PUSH1 0x60 PUSH1 0x2 DUP3 DUP5 MLOAD SUB LT ISZERO PUSH2 0x7FDD JUMPI PUSH1 0x40 MLOAD PUSH32 0x8C379A000000000000000000000000000000000000000000000000000000000 DUP2 MSTORE PUSH1 0x4 ADD PUSH2 0x7FD4 SWAP1 PUSH2 0xC8CB JUMP JUMPDEST PUSH1 0x40 MLOAD DUP1 SWAP2 SUB SWAP1 REVERT JUMPDEST PUSH2 0x7FE5 PUSH2 0xA338 JUMP JUMPDEST PUSH1 0x40 MLOAD DUP1 PUSH1 0x60 ADD PUSH1 0x40 MSTORE DUP1 PUSH2 0x1F4 PUSH3 0xFFFFFF AND PUSH3 0xFFFFFF AND DUP2 MSTORE PUSH1 0x20 ADD PUSH2 0xBB8 PUSH3 0xFFFFFF AND PUSH3 0xFFFFFF AND DUP2 MSTORE PUSH1 0x20 ADD PUSH2 0x2710 PUSH3 0xFFFFFF AND PUSH3 0xFFFFFF AND DUP2 MSTORE POP SWAP1 POP PUSH1 0x60 PUSH1 0x3 PUSH8 0xFFFFFFFFFFFFFFFF DUP2 GT DUP1 ISZERO PUSH2 0x8040 JUMPI PUSH1 0x0 DUP1 REVERT JUMPDEST POP PUSH1 0x40 MLOAD SWAP1 DUP1 DUP3 MSTORE DUP1 PUSH1 0x20 MUL PUSH1 0x20 ADD DUP3 ADD PUSH1 0x40 MSTORE DUP1 ISZERO PUSH2 0x806F JUMPI DUP2 PUSH1 0x20 ADD PUSH1 0x20 DUP3 MUL DUP1 CALLDATASIZE DUP4 CALLDATACOPY DUP1 DUP3 ADD SWAP2 POP POP SWAP1 POP JUMPDEST POP SWAP1 POP PUSH1 0x0 DUP1 DUP7 DUP7 DUP2 MLOAD DUP2 LT PUSH2 0x8081 JUMPI INVALID JUMPDEST PUSH1 0x20 MUL PUSH1 0x20 ADD ADD MLOAD SWAP1 POP PUSH1 0x0 DUP8 PUSH1 0x1 DUP9 ADD DUP2 MLOAD DUP2 LT PUSH2 0x809C JUMPI INVALID JUMPDEST PUSH1 0x20 MUL PUSH1 0x20 ADD ADD MLOAD SWAP1 POP PUSH1 0x0 JUMPDEST PUSH1 0x3 DUP2 LT ISZERO PUSH2 0x81BB JUMPI PUSH1 0x0 DUP11 PUSH20 0xFFFFFFFFFFFFFFFFFFFFFFFFFFFFFFFFFFFFFFFF AND PUSH4 0x1698EE82 DUP6 DUP6 DUP11 DUP7 PUSH1 0x3 DUP2 LT PUSH2 0x80DE JUMPI INVALID JUMPDEST PUSH1 0x20 MUL ADD MLOAD PUSH1 0x40 MLOAD DUP5 PUSH4 0xFFFFFFFF AND PUSH1 0xE0 SHL DUP2 MSTORE PUSH1 0x4 ADD PUSH2 0x8101 SWAP4 SWAP3 SWAP2 SWAP1 PUSH2 0xC65C JUMP JUMPDEST PUSH1 0x20 PUSH1 0x40 MLOAD DUP1 DUP4 SUB DUP2 DUP7 DUP1 EXTCODESIZE ISZERO DUP1 ISZERO PUSH2 0x8119 JUMPI PUSH1 0x0 DUP1 REVERT JUMPDEST POP GAS STATICCALL ISZERO DUP1 ISZERO PUSH2 0x812D JUMPI RETURNDATASIZE PUSH1 0x0 DUP1 RETURNDATACOPY RETURNDATASIZE PUSH1 0x0 REVERT JUMPDEST POP POP POP POP PUSH1 0x40 MLOAD RETURNDATASIZE PUSH1 0x1F NOT PUSH1 0x1F DUP3 ADD AND DUP3 ADD DUP1 PUSH1 0x40 MSTORE POP DUP2 ADD SWAP1 PUSH2 0x8151 SWAP2 SWAP1 PUSH2 0xB665 JUMP JUMPDEST SWAP1 POP PUSH2 0x815C DUP2 PUSH2 0x9D64 JUMP JUMPDEST ISZERO PUSH2 0x81AF JUMPI DUP1 DUP7 DUP7 DUP1 PUSH1 0x1 ADD SWAP8 POP DUP2 MLOAD DUP2 LT PUSH2 0x8174 JUMPI INVALID JUMPDEST PUSH1 0x20 MUL PUSH1 0x20 ADD ADD SWAP1 PUSH20 0xFFFFFFFFFFFFFFFFFFFFFFFFFFFFFFFFFFFFFFFF AND SWAP1 DUP2 PUSH20 0xFFFFFFFFFFFFFFFFFFFFFFFFFFFFFFFFFFFFFFFF AND DUP2 MSTORE POP POP JUMPDEST POP DUP1 PUSH1 0x1 ADD SWAP1 POP PUSH2 0x80A9 JUMP JUMPDEST POP POP POP PUSH1 0x0 DUP2 EQ ISZERO PUSH2 0x81CF JUMPI POP POP POP PUSH2 0x855B JUMP JUMPDEST DUP6 MLOAD PUSH1 0x2 DUP7 ADD EQ ISZERO PUSH2 0x8315 JUMPI DUP1 PUSH8 0xFFFFFFFFFFFFFFFF DUP2 GT DUP1 ISZERO PUSH2 0x81F2 JUMPI PUSH1 0x0 DUP1 REVERT JUMPDEST POP PUSH1 0x40 MLOAD SWAP1 DUP1 DUP3 MSTORE DUP1 PUSH1 0x20 MUL PUSH1 0x20 ADD DUP3 ADD PUSH1 0x40 MSTORE DUP1 ISZERO PUSH2 0x8226 JUMPI DUP2 PUSH1 0x20 ADD JUMPDEST PUSH1 0x60 DUP2 MSTORE PUSH1 0x20 ADD SWAP1 PUSH1 0x1 SWAP1 SUB SWAP1 DUP2 PUSH2 0x8211 JUMPI SWAP1 POP JUMPDEST POP SWAP4 POP PUSH1 0x0 JUMPDEST DUP2 DUP2 LT ISZERO PUSH2 0x830C JUMPI PUSH1 0x1 PUSH8 0xFFFFFFFFFFFFFFFF DUP2 GT DUP1 ISZERO PUSH2 0x824C JUMPI PUSH1 0x0 DUP1 REVERT JUMPDEST POP PUSH1 0x40 MLOAD SWAP1 DUP1 DUP3 MSTORE DUP1 PUSH1 0x20 MUL PUSH1 0x20 ADD DUP3 ADD PUSH1 0x40 MSTORE DUP1 ISZERO PUSH2 0x827B JUMPI DUP2 PUSH1 0x20 ADD PUSH1 0x20 DUP3 MUL DUP1 CALLDATASIZE DUP4 CALLDATACOPY DUP1 DUP3 ADD SWAP2 POP POP SWAP1 POP JUMPDEST POP DUP6 DUP3 DUP2 MLOAD DUP2 LT PUSH2 0x8288 JUMPI INVALID JUMPDEST PUSH1 0x20 MUL PUSH1 0x20 ADD ADD DUP2 SWAP1 MSTORE POP DUP3 DUP2 DUP2 MLOAD DUP2 LT PUSH2 0x829F JUMPI INVALID JUMPDEST PUSH1 0x20 MUL PUSH1 0x20 ADD ADD MLOAD DUP6 DUP3 DUP2 MLOAD DUP2 LT PUSH2 0x82B3 JUMPI INVALID JUMPDEST PUSH1 0x20 MUL PUSH1 0x20 ADD ADD MLOAD PUSH1 0x0 DUP2 MLOAD DUP2 LT PUSH2 0x82C7 JUMPI INVALID JUMPDEST PUSH1 0x20 MUL PUSH1 0x20 ADD ADD SWAP1 PUSH20 0xFFFFFFFFFFFFFFFFFFFFFFFFFFFFFFFFFFFFFFFF AND SWAP1 DUP2 PUSH20 0xFFFFFFFFFFFFFFFFFFFFFFFFFFFFFFFFFFFFFFFF AND DUP2 MSTORE POP POP DUP1 PUSH1 0x1 ADD SWAP1 POP PUSH2 0x822C JUMP JUMPDEST POP POP POP POP PUSH2 0x855B JUMP JUMPDEST PUSH1 0x60 PUSH2 0x8325 DUP9 DUP9 PUSH1 0x1 DUP10 ADD PUSH2 0x7F94 JUMP JUMPDEST SWAP1 POP PUSH1 0x0 DUP2 MLOAD EQ ISZERO PUSH2 0x833A JUMPI POP POP POP POP PUSH2 0x855B JUMP JUMPDEST DUP1 MLOAD DUP3 MUL PUSH8 0xFFFFFFFFFFFFFFFF DUP2 GT DUP1 ISZERO PUSH2 0x8354 JUMPI PUSH1 0x0 DUP1 REVERT JUMPDEST POP PUSH1 0x40 MLOAD SWAP1 DUP1 DUP3 MSTORE DUP1 PUSH1 0x20 MUL PUSH1 0x20 ADD DUP3 ADD PUSH1 0x40 MSTORE DUP1 ISZERO PUSH2 0x8388 JUMPI DUP2 PUSH1 0x20 ADD JUMPDEST PUSH1 0x60 DUP2 MSTORE PUSH1 0x20 ADD SWAP1 PUSH1 0x1 SWAP1 SUB SWAP1 DUP2 PUSH2 0x8373 JUMPI SWAP1 POP JUMPDEST POP SWAP5 POP PUSH1 0x0 JUMPDEST DUP3 DUP2 LT ISZERO PUSH2 0x8555 JUMPI PUSH1 0x0 JUMPDEST DUP3 MLOAD DUP2 LT ISZERO PUSH2 0x8549 JUMPI PUSH1 0x0 DUP2 DUP5 MLOAD DUP5 MUL ADD SWAP1 POP DUP4 DUP3 DUP2 MLOAD DUP2 LT PUSH2 0x83B8 JUMPI INVALID JUMPDEST PUSH1 0x20 MUL PUSH1 0x20 ADD ADD MLOAD MLOAD PUSH1 0x1 ADD PUSH8 0xFFFFFFFFFFFFFFFF DUP2 GT DUP1 ISZERO PUSH2 0x83DA JUMPI PUSH1 0x0 DUP1 REVERT JUMPDEST POP PUSH1 0x40 MLOAD SWAP1 DUP1 DUP3 MSTORE DUP1 PUSH1 0x20 MUL PUSH1 0x20 ADD DUP3 ADD PUSH1 0x40 MSTORE DUP1 ISZERO PUSH2 0x8409 JUMPI DUP2 PUSH1 0x20 ADD PUSH1 0x20 DUP3 MUL DUP1 CALLDATASIZE DUP4 CALLDATACOPY DUP1 DUP3 ADD SWAP2 POP POP SWAP1 POP JUMPDEST POP DUP9 DUP3 DUP2 MLOAD DUP2 LT PUSH2 0x8416 JUMPI INVALID JUMPDEST PUSH1 0x20 MUL PUSH1 0x20 ADD ADD DUP2 SWAP1 MSTORE POP DUP6 DUP4 DUP2 MLOAD DUP2 LT PUSH2 0x842D JUMPI INVALID JUMPDEST PUSH1 0x20 MUL PUSH1 0x20 ADD ADD MLOAD DUP9 DUP3 DUP2 MLOAD DUP2 LT PUSH2 0x8441 JUMPI INVALID JUMPDEST PUSH1 0x20 MUL PUSH1 0x20 ADD ADD MLOAD PUSH1 0x0 DUP2 MLOAD DUP2 LT PUSH2 0x8455 JUMPI INVALID JUMPDEST PUSH1 0x20 MUL PUSH1 0x20 ADD ADD SWAP1 PUSH20 0xFFFFFFFFFFFFFFFFFFFFFFFFFFFFFFFFFFFFFFFF AND SWAP1 DUP2 PUSH20 0xFFFFFFFFFFFFFFFFFFFFFFFFFFFFFFFFFFFFFFFF AND DUP2 MSTORE POP POP PUSH1 0x0 JUMPDEST DUP5 DUP4 DUP2 MLOAD DUP2 LT PUSH2 0x849E JUMPI INVALID JUMPDEST PUSH1 0x20 MUL PUSH1 0x20 ADD ADD MLOAD MLOAD DUP2 LT ISZERO PUSH2 0x853C JUMPI DUP5 DUP4 DUP2 MLOAD DUP2 LT PUSH2 0x84BA JUMPI INVALID JUMPDEST PUSH1 0x20 MUL PUSH1 0x20 ADD ADD MLOAD DUP2 DUP2 MLOAD DUP2 LT PUSH2 0x84CD JUMPI INVALID JUMPDEST PUSH1 0x20 MUL PUSH1 0x20 ADD ADD MLOAD DUP10 DUP4 DUP2 MLOAD DUP2 LT PUSH2 0x84E1 JUMPI INVALID JUMPDEST PUSH1 0x20 MUL PUSH1 0x20 ADD ADD MLOAD DUP3 PUSH1 0x1 ADD DUP2 MLOAD DUP2 LT PUSH2 0x84F7 JUMPI INVALID JUMPDEST PUSH1 0x20 MUL PUSH1 0x20 ADD ADD SWAP1 PUSH20 0xFFFFFFFFFFFFFFFFFFFFFFFFFFFFFFFFFFFFFFFF AND SWAP1 DUP2 PUSH20 0xFFFFFFFFFFFFFFFFFFFFFFFFFFFFFFFFFFFFFFFF AND DUP2 MSTORE POP POP DUP1 PUSH1 0x1 ADD SWAP1 POP PUSH2 0x8492 JUMP JUMPDEST POP POP DUP1 PUSH1 0x1 ADD SWAP1 POP PUSH2 0x8399 JUMP JUMPDEST POP DUP1 PUSH1 0x1 ADD SWAP1 POP PUSH2 0x838E JUMP JUMPDEST POP POP POP POP POP JUMPDEST SWAP4 SWAP3 POP POP POP JUMP JUMPDEST PUSH1 0x60 PUSH1 0x2 DUP4 MLOAD LT ISZERO DUP1 ISZERO PUSH2 0x857A JUMPI POP PUSH1 0x1 DUP3 MLOAD ADD DUP4 MLOAD EQ JUMPDEST PUSH2 0x85B9 JUMPI PUSH1 0x40 MLOAD PUSH32 0x8C379A000000000000000000000000000000000000000000000000000000000 DUP2 MSTORE PUSH1 0x4 ADD PUSH2 0x85B0 SWAP1 PUSH2 0xC993 JUMP JUMPDEST PUSH1 0x40 MLOAD DUP1 SWAP2 SUB SWAP1 REVERT JUMPDEST PUSH1 0x3 DUP3 MLOAD MUL PUSH1 0x14 DUP5 MLOAD MUL ADD PUSH8 0xFFFFFFFFFFFFFFFF DUP2 GT DUP1 ISZERO PUSH2 0x85DA JUMPI PUSH1 0x0 DUP1 REVERT JUMPDEST POP PUSH1 0x40 MLOAD SWAP1 DUP1 DUP3 MSTORE DUP1 PUSH1 0x1F ADD PUSH1 0x1F NOT AND PUSH1 0x20 ADD DUP3 ADD PUSH1 0x40 MSTORE DUP1 ISZERO PUSH2 0x860D JUMPI DUP2 PUSH1 0x20 ADD PUSH1 0x1 DUP3 MUL DUP1 CALLDATASIZE DUP4 CALLDATACOPY DUP1 DUP3 ADD SWAP2 POP POP SWAP1 POP JUMPDEST POP SWAP1 POP PUSH1 0x0 PUSH1 0x20 DUP3 ADD SWAP1 POP PUSH1 0x0 JUMPDEST DUP5 MLOAD DUP2 LT ISZERO PUSH2 0x8703 JUMPI PUSH1 0x0 DUP2 GT ISZERO PUSH2 0x86D3 JUMPI PUSH1 0x0 DUP5 PUSH1 0x1 DUP4 SUB DUP2 MLOAD DUP2 LT PUSH2 0x863E JUMPI INVALID JUMPDEST PUSH1 0x20 MUL PUSH1 0x20 ADD ADD MLOAD PUSH20 0xFFFFFFFFFFFFFFFFFFFFFFFFFFFFFFFFFFFFFFFF AND PUSH4 0xDDCA3F43 PUSH1 0x40 MLOAD DUP2 PUSH4 0xFFFFFFFF AND PUSH1 0xE0 SHL DUP2 MSTORE PUSH1 0x4 ADD PUSH1 0x20 PUSH1 0x40 MLOAD DUP1 DUP4 SUB DUP2 DUP7 DUP1 EXTCODESIZE ISZERO DUP1 ISZERO PUSH2 0x868B JUMPI PUSH1 0x0 DUP1 REVERT JUMPDEST POP GAS STATICCALL ISZERO DUP1 ISZERO PUSH2 0x869F JUMPI RETURNDATASIZE PUSH1 0x0 DUP1 RETURNDATACOPY RETURNDATASIZE PUSH1 0x0 REVERT JUMPDEST POP POP POP POP PUSH1 0x40 MLOAD RETURNDATASIZE PUSH1 0x1F NOT PUSH1 0x1F DUP3 ADD AND DUP3 ADD DUP1 PUSH1 0x40 MSTORE POP DUP2 ADD SWAP1 PUSH2 0x86C3 SWAP2 SWAP1 PUSH2 0xBCFA JUMP JUMPDEST SWAP1 POP DUP1 PUSH1 0xE8 SHL DUP4 MSTORE PUSH1 0x3 DUP4 ADD SWAP3 POP POP JUMPDEST PUSH1 0x0 DUP6 DUP3 DUP2 MLOAD DUP2 LT PUSH2 0x86E1 JUMPI INVALID JUMPDEST PUSH1 0x20 MUL PUSH1 0x20 ADD ADD MLOAD SWAP1 POP DUP1 PUSH1 0x60 SHL DUP4 MSTORE PUSH1 0x14 DUP4 ADD SWAP3 POP POP DUP1 PUSH1 0x1 ADD SWAP1 POP PUSH2 0x861B JUMP JUMPDEST POP POP SWAP3 SWAP2 POP POP JUMP JUMPDEST PUSH1 0x0 DUP1 DUP3 DUP5 MUL SWAP1 POP PUSH1 0x0 DUP5 EQ ISZERO DUP1 ISZERO PUSH2 0x872D JUMPI POP DUP3 DUP5 DUP3 DUP2 PUSH2 0x8729 JUMPI INVALID JUMPDEST DIV EQ ISZERO JUMPDEST ISZERO PUSH2 0x873C JUMPI PUSH1 0x0 SWAP2 POP POP PUSH2 0x8785 JUMP JUMPDEST PUSH1 0x0 PUSH1 0x2 PUSH8 0xDE0B6B3A7640000 DUP2 PUSH2 0x8750 JUMPI INVALID JUMPDEST DIV DUP3 ADD SWAP1 POP DUP2 DUP2 LT ISZERO PUSH2 0x8768 JUMPI PUSH1 0x0 SWAP3 POP POP POP PUSH2 0x8785 JUMP JUMPDEST PUSH1 0x0 PUSH8 0xDE0B6B3A7640000 DUP3 DUP2 PUSH2 0x877B JUMPI INVALID JUMPDEST DIV SWAP1 POP DUP1 SWAP4 POP POP POP POP JUMPDEST SWAP3 SWAP2 POP POP JUMP JUMPDEST PUSH1 0x60 DUP2 MLOAD PUSH8 0xFFFFFFFFFFFFFFFF DUP2 GT DUP1 ISZERO PUSH2 0x87A5 JUMPI PUSH1 0x0 DUP1 REVERT JUMPDEST POP PUSH1 0x40 MLOAD SWAP1 DUP1 DUP3 MSTORE DUP1 PUSH1 0x20 MUL PUSH1 0x20 ADD DUP3 ADD PUSH1 0x40 MSTORE DUP1 ISZERO PUSH2 0x87D4 JUMPI DUP2 PUSH1 0x20 ADD PUSH1 0x20 DUP3 MUL DUP1 CALLDATASIZE DUP4 CALLDATACOPY DUP1 DUP3 ADD SWAP2 POP POP SWAP1 POP JUMPDEST POP SWAP1 POP PUSH1 0x0 JUMPDEST DUP3 MLOAD DUP2 LT ISZERO PUSH2 0x884E JUMPI DUP3 PUSH1 0x1 DUP3 DUP6 MLOAD SUB SUB DUP2 MLOAD DUP2 LT PUSH2 0x87F5 JUMPI INVALID JUMPDEST PUSH1 0x20 MUL PUSH1 0x20 ADD ADD MLOAD DUP3 DUP3 DUP2 MLOAD DUP2 LT PUSH2 0x8809 JUMPI INVALID JUMPDEST PUSH1 0x20 MUL PUSH1 0x20 ADD ADD SWAP1 PUSH20 0xFFFFFFFFFFFFFFFFFFFFFFFFFFFFFFFFFFFFFFFF AND SWAP1 DUP2 PUSH20 0xFFFFFFFFFFFFFFFFFFFFFFFFFFFFFFFFFFFFFFFF AND DUP2 MSTORE POP POP DUP1 PUSH1 0x1 ADD SWAP1 POP PUSH2 0x87DA JUMP JUMPDEST POP SWAP2 SWAP1 POP JUMP JUMPDEST PUSH1 0x60 DUP2 MLOAD PUSH8 0xFFFFFFFFFFFFFFFF DUP2 GT DUP1 ISZERO PUSH2 0x886E JUMPI PUSH1 0x0 DUP1 REVERT JUMPDEST POP PUSH1 0x40 MLOAD SWAP1 DUP1 DUP3 MSTORE DUP1 PUSH1 0x20 MUL PUSH1 0x20 ADD DUP3 ADD PUSH1 0x40 MSTORE DUP1 ISZERO PUSH2 0x889D JUMPI DUP2 PUSH1 0x20 ADD PUSH1 0x20 DUP3 MUL DUP1 CALLDATASIZE DUP4 CALLDATACOPY DUP1 DUP3 ADD SWAP2 POP POP SWAP1 POP JUMPDEST POP SWAP1 POP PUSH1 0x0 JUMPDEST DUP3 MLOAD DUP2 LT ISZERO PUSH2 0x8917 JUMPI DUP3 PUSH1 0x1 DUP3 DUP6 MLOAD SUB SUB DUP2 MLOAD DUP2 LT PUSH2 0x88BE JUMPI INVALID JUMPDEST PUSH1 0x20 MUL PUSH1 0x20 ADD ADD MLOAD DUP3 DUP3 DUP2 MLOAD DUP2 LT PUSH2 0x88D2 JUMPI INVALID JUMPDEST PUSH1 0x20 MUL PUSH1 0x20 ADD ADD SWAP1 PUSH20 0xFFFFFFFFFFFFFFFFFFFFFFFFFFFFFFFFFFFFFFFF AND SWAP1 DUP2 PUSH20 0xFFFFFFFFFFFFFFFFFFFFFFFFFFFFFFFFFFFFFFFF AND DUP2 MSTORE POP POP DUP1 PUSH1 0x1 ADD SWAP1 POP PUSH2 0x88A3 JUMP JUMPDEST POP SWAP2 SWAP1 POP JUMP JUMPDEST PUSH1 0x0 DUP1 PUSH1 0x0 DUP6 DUP1 PUSH1 0x20 ADD SWAP1 MLOAD DUP2 ADD SWAP1 PUSH2 0x8936 SWAP2 SWAP1 PUSH2 0xAC17 JUMP JUMPDEST SWAP2 POP SWAP2 POP PUSH1 0x0 DUP6 DUP1 PUSH1 0x20 ADD SWAP1 MLOAD DUP2 ADD SWAP1 PUSH2 0x8950 SWAP2 SWAP1 PUSH2 0xABF1 JUMP JUMPDEST SWAP1 POP ADDRESS PUSH20 0xFFFFFFFFFFFFFFFFFFFFFFFFFFFFFFFFFFFFFFFF AND PUSH4 0xE8E4AF09 DUP4 DUP6 DUP5 PUSH2 0x897A DUP11 PUSH2 0x9C95 JUMP JUMPDEST PUSH1 0x40 MLOAD DUP6 PUSH4 0xFFFFFFFF AND PUSH1 0xE0 SHL DUP2 MSTORE PUSH1 0x4 ADD PUSH2 0x8999 SWAP5 SWAP4 SWAP3 SWAP2 SWAP1 PUSH2 0xC14D JUMP JUMPDEST PUSH1 0x0 PUSH1 0x40 MLOAD DUP1 DUP4 SUB DUP2 DUP7 DUP1 EXTCODESIZE ISZERO DUP1 ISZERO PUSH2 0x89B1 JUMPI PUSH1 0x0 DUP1 REVERT JUMPDEST POP GAS STATICCALL SWAP3 POP POP POP DUP1 ISZERO PUSH2 0x89E7 JUMPI POP PUSH1 0x40 MLOAD RETURNDATASIZE PUSH1 0x0 DUP3 RETURNDATACOPY RETURNDATASIZE PUSH1 0x1F NOT PUSH1 0x1F DUP3 ADD AND DUP3 ADD DUP1 PUSH1 0x40 MSTORE POP DUP2 ADD SWAP1 PUSH2 0x89E4 SWAP2 SWAP1 PUSH2 0xB507 JUMP JUMPDEST PUSH1 0x1 JUMPDEST PUSH2 0x8A2A JUMPI RETURNDATASIZE DUP1 PUSH1 0x0 DUP2 EQ PUSH2 0x8A17 JUMPI PUSH1 0x40 MLOAD SWAP2 POP PUSH1 0x1F NOT PUSH1 0x3F RETURNDATASIZE ADD AND DUP3 ADD PUSH1 0x40 MSTORE RETURNDATASIZE DUP3 MSTORE RETURNDATASIZE PUSH1 0x0 PUSH1 0x20 DUP5 ADD RETURNDATACOPY PUSH2 0x8A1C JUMP JUMPDEST PUSH1 0x60 SWAP2 POP JUMPDEST POP PUSH1 0x0 SWAP5 POP POP POP POP POP PUSH2 0x8A46 JUMP JUMPDEST DUP1 PUSH1 0x0 DUP2 MLOAD DUP2 LT PUSH2 0x8A37 JUMPI INVALID JUMPDEST PUSH1 0x20 MUL PUSH1 0x20 ADD ADD MLOAD SWAP5 POP POP POP POP POP JUMPDEST SWAP4 SWAP3 POP POP POP JUMP JUMPDEST PUSH1 0x0 PUSH2 0x8A99 DUP4 PUSH2 0x8A8B PUSH2 0x8A6A PUSH1 0x1 DUP8 PUSH2 0x9C6B SWAP1 SWAP2 SWAP1 PUSH4 0xFFFFFFFF AND JUMP JUMPDEST PUSH2 0x8A7D DUP7 DUP10 PUSH2 0x9BBB SWAP1 SWAP2 SWAP1 PUSH4 0xFFFFFFFF AND JUMP JUMPDEST PUSH2 0x9C05 SWAP1 SWAP2 SWAP1 PUSH4 0xFFFFFFFF AND JUMP JUMPDEST PUSH2 0x9C34 SWAP1 SWAP2 SWAP1 PUSH4 0xFFFFFFFF AND JUMP JUMPDEST SWAP1 POP SWAP4 SWAP3 POP POP POP JUMP JUMPDEST PUSH1 0x0 PUSH1 0x12 SWAP1 POP PUSH1 0x0 PUSH1 0x60 DUP4 PUSH20 0xFFFFFFFFFFFFFFFFFFFFFFFFFFFFFFFFFFFFFFFF AND PUSH1 0x40 MLOAD DUP1 PUSH1 0x40 ADD PUSH1 0x40 MSTORE DUP1 PUSH1 0x4 DUP2 MSTORE PUSH1 0x20 ADD PUSH32 0x313CE56700000000000000000000000000000000000000000000000000000000 DUP2 MSTORE POP PUSH1 0x40 MLOAD PUSH2 0x8B06 SWAP2 SWAP1 PUSH2 0xC083 JUMP JUMPDEST PUSH1 0x0 PUSH1 0x40 MLOAD DUP1 DUP4 SUB DUP2 DUP6 GAS STATICCALL SWAP2 POP POP RETURNDATASIZE DUP1 PUSH1 0x0 DUP2 EQ PUSH2 0x8B41 JUMPI PUSH1 0x40 MLOAD SWAP2 POP PUSH1 0x1F NOT PUSH1 0x3F RETURNDATASIZE ADD AND DUP3 ADD PUSH1 0x40 MSTORE RETURNDATASIZE DUP3 MSTORE RETURNDATASIZE PUSH1 0x0 PUSH1 0x20 DUP5 ADD RETURNDATACOPY PUSH2 0x8B46 JUMP JUMPDEST PUSH1 0x60 SWAP2 POP JUMPDEST POP SWAP2 POP SWAP2 POP DUP2 DUP1 ISZERO PUSH2 0x8B5A JUMPI POP PUSH1 0x20 DUP2 MLOAD LT ISZERO JUMPDEST ISZERO PUSH2 0x8B6D JUMPI PUSH2 0x8B6A DUP2 PUSH1 0x0 PUSH2 0x8F5C JUMP JUMPDEST SWAP3 POP JUMPDEST POP POP SWAP2 SWAP1 POP JUMP JUMPDEST PUSH1 0x0 DUP1 PUSH1 0x0 DUP1 DUP5 PUSH20 0xFFFFFFFFFFFFFFFFFFFFFFFFFFFFFFFFFFFFFFFF AND PUSH4 0xD9638D36 DUP12 PUSH1 0x20 ADD MLOAD PUSH1 0x40 MLOAD DUP3 PUSH4 0xFFFFFFFF AND PUSH1 0xE0 SHL DUP2 MSTORE PUSH1 0x4 ADD PUSH2 0x8BB7 SWAP2 SWAP1 PUSH2 0xC5D8 JUMP JUMPDEST PUSH1 0xA0 PUSH1 0x40 MLOAD DUP1 DUP4 SUB DUP2 DUP7 DUP1 EXTCODESIZE ISZERO DUP1 ISZERO PUSH2 0x8BCF JUMPI PUSH1 0x0 DUP1 REVERT JUMPDEST POP GAS STATICCALL ISZERO DUP1 ISZERO PUSH2 0x8BE3 JUMPI RETURNDATASIZE PUSH1 0x0 DUP1 RETURNDATACOPY RETURNDATASIZE PUSH1 0x0 REVERT JUMPDEST POP POP POP POP PUSH1 0x40 MLOAD RETURNDATASIZE PUSH1 0x1F NOT PUSH1 0x1F DUP3 ADD AND DUP3 ADD DUP1 PUSH1 0x40 MSTORE POP DUP2 ADD SWAP1 PUSH2 0x8C07 SWAP2 SWAP1 PUSH2 0xBD9D JUMP JUMPDEST SWAP5 POP SWAP5 POP POP POP SWAP3 POP DUP10 PUSH1 0x40 ADD MLOAD PUSH20 0xFFFFFFFFFFFFFFFFFFFFFFFFFFFFFFFFFFFFFFFF AND DUP9 PUSH20 0xFFFFFFFFFFFFFFFFFFFFFFFFFFFFFFFFFFFFFFFF AND EQ ISZERO PUSH2 0x8DA4 JUMPI PUSH1 0x0 DUP8 SWAP1 POP PUSH1 0x0 PUSH2 0x8CE6 DUP9 PUSH20 0xFFFFFFFFFFFFFFFFFFFFFFFFFFFFFFFFFFFFFFFF AND PUSH4 0x568D4B6F PUSH1 0x40 MLOAD DUP2 PUSH4 0xFFFFFFFF AND PUSH1 0xE0 SHL DUP2 MSTORE PUSH1 0x4 ADD PUSH1 0x20 PUSH1 0x40 MLOAD DUP1 DUP4 SUB DUP2 DUP7 DUP1 EXTCODESIZE ISZERO DUP1 ISZERO PUSH2 0x8C97 JUMPI PUSH1 0x0 DUP1 REVERT JUMPDEST POP GAS STATICCALL ISZERO DUP1 ISZERO PUSH2 0x8CAB JUMPI RETURNDATASIZE PUSH1 0x0 DUP1 RETURNDATACOPY RETURNDATASIZE PUSH1 0x0 REVERT JUMPDEST POP POP POP POP PUSH1 0x40 MLOAD RETURNDATASIZE PUSH1 0x1F NOT PUSH1 0x1F DUP3 ADD AND DUP3 ADD DUP1 PUSH1 0x40 MSTORE POP DUP2 ADD SWAP1 PUSH2 0x8CCF SWAP2 SWAP1 PUSH2 0xBD27 JUMP JUMPDEST PUSH8 0xDE0B6B3A7640000 PUSH2 0x9C6B SWAP1 SWAP2 SWAP1 PUSH4 0xFFFFFFFF AND JUMP JUMPDEST SWAP1 POP PUSH1 0x0 PUSH2 0x8D17 DUP3 PUSH2 0x8D09 PUSH8 0xDE0B6B3A7640000 DUP7 PUSH2 0x9BBB SWAP1 SWAP2 SWAP1 PUSH4 0xFFFFFFFF AND JUMP JUMPDEST PUSH2 0x9C34 SWAP1 SWAP2 SWAP1 PUSH4 0xFFFFFFFF AND JUMP JUMPDEST SWAP1 POP PUSH1 0x0 PUSH2 0x8D4C PUSH12 0x33B2E3C9FD0803CE8000000 PUSH2 0x8D3E DUP5 DUP11 PUSH2 0x9C05 SWAP1 SWAP2 SWAP1 PUSH4 0xFFFFFFFF AND JUMP JUMPDEST PUSH2 0x9BBB SWAP1 SWAP2 SWAP1 PUSH4 0xFFFFFFFF AND JUMP JUMPDEST SWAP1 POP DUP6 DUP2 LT PUSH2 0x8D65 JUMPI PUSH1 0x0 SWAP8 POP POP POP POP POP POP POP POP PUSH2 0x8F3F JUMP JUMPDEST PUSH1 0x0 PUSH2 0x8D92 PUSH1 0x1 PUSH2 0x8D84 PUSH5 0xE8D4A51000 DUP7 PUSH2 0x9C34 SWAP1 SWAP2 SWAP1 PUSH4 0xFFFFFFFF AND JUMP JUMPDEST PUSH2 0x9C05 SWAP1 SWAP2 SWAP1 PUSH4 0xFFFFFFFF AND JUMP JUMPDEST SWAP1 POP DUP1 SWAP9 POP POP POP POP POP POP POP POP POP PUSH2 0x8F3F JUMP JUMPDEST DUP10 PUSH1 0x40 ADD MLOAD PUSH20 0xFFFFFFFFFFFFFFFFFFFFFFFFFFFFFFFFFFFFFFFF AND DUP10 PUSH20 0xFFFFFFFFFFFFFFFFFFFFFFFFFFFFFFFFFFFFFFFF AND EQ ISZERO PUSH2 0x8F37 JUMPI PUSH1 0x0 PUSH2 0x8DF6 PUSH5 0xE8D4A51000 DUP10 PUSH2 0x9BBB SWAP1 SWAP2 SWAP1 PUSH4 0xFFFFFFFF AND JUMP JUMPDEST SWAP1 POP PUSH1 0x0 PUSH2 0x8E92 DUP9 PUSH20 0xFFFFFFFFFFFFFFFFFFFFFFFFFFFFFFFFFFFFFFFF AND PUSH4 0xFAE036D5 PUSH1 0x40 MLOAD DUP2 PUSH4 0xFFFFFFFF AND PUSH1 0xE0 SHL DUP2 MSTORE PUSH1 0x4 ADD PUSH1 0x20 PUSH1 0x40 MLOAD DUP1 DUP4 SUB DUP2 DUP7 DUP1 EXTCODESIZE ISZERO DUP1 ISZERO PUSH2 0x8E43 JUMPI PUSH1 0x0 DUP1 REVERT JUMPDEST POP GAS STATICCALL ISZERO DUP1 ISZERO PUSH2 0x8E57 JUMPI RETURNDATASIZE PUSH1 0x0 DUP1 RETURNDATACOPY RETURNDATASIZE PUSH1 0x0 REVERT JUMPDEST POP POP POP POP PUSH1 0x40 MLOAD RETURNDATASIZE PUSH1 0x1F NOT PUSH1 0x1F DUP3 ADD AND DUP3 ADD DUP1 PUSH1 0x40 MSTORE POP DUP2 ADD SWAP1 PUSH2 0x8E7B SWAP2 SWAP1 PUSH2 0xBD27 JUMP JUMPDEST PUSH8 0xDE0B6B3A7640000 PUSH2 0x9C05 SWAP1 SWAP2 SWAP1 PUSH4 0xFFFFFFFF AND JUMP JUMPDEST SWAP1 POP PUSH1 0x0 PUSH2 0x8EC3 PUSH8 0xDE0B6B3A7640000 PUSH2 0x8EB5 DUP5 DUP7 PUSH2 0x9BBB SWAP1 SWAP2 SWAP1 PUSH4 0xFFFFFFFF AND JUMP JUMPDEST PUSH2 0x9C34 SWAP1 SWAP2 SWAP1 PUSH4 0xFFFFFFFF AND JUMP JUMPDEST SWAP1 POP DUP6 DUP2 GT ISZERO PUSH2 0x8EDC JUMPI PUSH1 0x0 SWAP7 POP POP POP POP POP POP POP PUSH2 0x8F3F JUMP JUMPDEST PUSH1 0x0 PUSH2 0x8F0F PUSH12 0x33B2E3C9FD0803CE8000000 PUSH2 0x8F01 DUP5 DUP11 PUSH2 0x9C6B SWAP1 SWAP2 SWAP1 PUSH4 0xFFFFFFFF AND JUMP JUMPDEST PUSH2 0x9BBB SWAP1 SWAP2 SWAP1 PUSH4 0xFFFFFFFF AND JUMP JUMPDEST SWAP1 POP DUP5 DUP2 GT PUSH2 0x8F28 JUMPI PUSH1 0x0 SWAP8 POP POP POP POP POP POP POP POP PUSH2 0x8F3F JUMP JUMPDEST DUP2 SWAP8 POP POP POP POP POP POP POP POP PUSH2 0x8F3F JUMP JUMPDEST PUSH1 0x0 SWAP4 POP POP POP POP JUMPDEST SWAP7 SWAP6 POP POP POP POP POP POP JUMP JUMPDEST PUSH2 0x8F57 DUP4 DUP4 DUP4 PUSH1 0x0 SHL PUSH2 0x9FB7 JUMP JUMPDEST POP POP POP JUMP JUMPDEST PUSH1 0x0 PUSH2 0x8F68 DUP4 DUP4 PUSH2 0x9FEC JUMP JUMPDEST PUSH1 0x0 SHR SWAP1 POP SWAP3 SWAP2 POP POP JUMP JUMPDEST PUSH1 0x0 DUP1 PUSH2 0x8F7E PUSH2 0xA35A JUMP JUMPDEST DUP6 DUP1 PUSH1 0x20 ADD SWAP1 MLOAD DUP2 ADD SWAP1 PUSH2 0x8F92 SWAP2 SWAP1 PUSH2 0xB726 JUMP JUMPDEST SWAP2 POP SWAP2 POP PUSH1 0x0 DUP6 DUP1 PUSH1 0x20 ADD SWAP1 MLOAD DUP2 ADD SWAP1 PUSH2 0x8FAC SWAP2 SWAP1 PUSH2 0xB700 JUMP JUMPDEST SWAP1 POP PUSH1 0x0 PUSH1 0x60 ADDRESS PUSH20 0xFFFFFFFFFFFFFFFFFFFFFFFFFFFFFFFFFFFFFFFF AND PUSH4 0x40BC03AE PUSH1 0xE0 SHL DUP6 DUP8 DUP7 PUSH2 0x8FDD DUP13 PUSH2 0x9C95 JUMP JUMPDEST PUSH1 0x40 MLOAD PUSH1 0x24 ADD PUSH2 0x8FF0 SWAP5 SWAP4 SWAP3 SWAP2 SWAP1 PUSH2 0xC9F7 JUMP JUMPDEST PUSH1 0x40 MLOAD PUSH1 0x20 DUP2 DUP4 SUB SUB DUP2 MSTORE SWAP1 PUSH1 0x40 MSTORE SWAP1 PUSH28 0xFFFFFFFFFFFFFFFFFFFFFFFFFFFFFFFFFFFFFFFFFFFFFFFFFFFFFFFF NOT AND PUSH1 0x20 DUP3 ADD DUP1 MLOAD PUSH28 0xFFFFFFFFFFFFFFFFFFFFFFFFFFFFFFFFFFFFFFFFFFFFFFFFFFFFFFFF DUP4 DUP2 DUP4 AND OR DUP4 MSTORE POP POP POP POP PUSH1 0x40 MLOAD PUSH2 0x905A SWAP2 SWAP1 PUSH2 0xC083 JUMP JUMPDEST PUSH1 0x0 PUSH1 0x40 MLOAD DUP1 DUP4 SUB DUP2 DUP6 GAS STATICCALL SWAP2 POP POP RETURNDATASIZE DUP1 PUSH1 0x0 DUP2 EQ PUSH2 0x9095 JUMPI PUSH1 0x40 MLOAD SWAP2 POP PUSH1 0x1F NOT PUSH1 0x3F RETURNDATASIZE ADD AND DUP3 ADD PUSH1 0x40 MSTORE RETURNDATASIZE DUP3 MSTORE RETURNDATASIZE PUSH1 0x0 PUSH1 0x20 DUP5 ADD RETURNDATACOPY PUSH2 0x909A JUMP JUMPDEST PUSH1 0x60 SWAP2 POP JUMPDEST POP SWAP2 POP SWAP2 POP DUP2 PUSH2 0x90B2 JUMPI PUSH1 0x0 SWAP6 POP POP POP POP POP POP PUSH2 0x90E2 JUMP JUMPDEST DUP1 DUP1 PUSH1 0x20 ADD SWAP1 MLOAD DUP2 ADD SWAP1 PUSH2 0x90C6 SWAP2 SWAP1 PUSH2 0xB507 JUMP JUMPDEST PUSH1 0x0 DUP2 MLOAD DUP2 LT PUSH2 0x90D2 JUMPI INVALID JUMPDEST PUSH1 0x20 MUL PUSH1 0x20 ADD ADD MLOAD SWAP6 POP POP POP POP POP POP JUMPDEST SWAP4 SWAP3 POP POP POP JUMP JUMPDEST PUSH1 0x0 DUP1 DUP5 PUSH1 0x20 ADD MLOAD SWAP1 POP PUSH1 0x60 DUP2 PUSH20 0xFFFFFFFFFFFFFFFFFFFFFFFFFFFFFFFFFFFFFFFF AND PUSH4 0x910FFC71 DUP8 PUSH1 0x60 ADD MLOAD PUSH20 0xFFFFFFFFFFFFFFFFFFFFFFFFFFFFFFFFFFFFFFFF AND DUP8 PUSH20 0xFFFFFFFFFFFFFFFFFFFFFFFFFFFFFFFFFFFFFFFF AND EQ PUSH2 0x914E JUMPI DUP7 PUSH2 0x9164 JUMP JUMPDEST PUSH20 0xEEEEEEEEEEEEEEEEEEEEEEEEEEEEEEEEEEEEEEEE JUMPDEST DUP9 PUSH1 0x60 ADD MLOAD PUSH20 0xFFFFFFFFFFFFFFFFFFFFFFFFFFFFFFFFFFFFFFFF AND DUP8 PUSH20 0xFFFFFFFFFFFFFFFFFFFFFFFFFFFFFFFFFFFFFFFF AND EQ PUSH2 0x91A1 JUMPI DUP7 PUSH2 0x91B7 JUMP JUMPDEST PUSH20 0xEEEEEEEEEEEEEEEEEEEEEEEEEEEEEEEEEEEEEEEE JUMPDEST PUSH1 0x1 PUSH1 0x0 PUSH8 0xFFFFFFFFFFFFFFFF DUP2 GT DUP1 ISZERO PUSH2 0x91D1 JUMPI PUSH1 0x0 DUP1 REVERT JUMPDEST POP PUSH1 0x40 MLOAD SWAP1 DUP1 DUP3 MSTORE DUP1 PUSH1 0x1F ADD PUSH1 0x1F NOT AND PUSH1 0x20 ADD DUP3 ADD PUSH1 0x40 MSTORE DUP1 ISZERO PUSH2 0x9204 JUMPI DUP2 PUSH1 0x20 ADD PUSH1 0x1 DUP3 MUL DUP1 CALLDATASIZE DUP4 CALLDATACOPY DUP1 DUP3 ADD SWAP2 POP POP SWAP1 POP JUMPDEST POP PUSH1 0x40 MLOAD DUP6 PUSH4 0xFFFFFFFF AND PUSH1 0xE0 SHL DUP2 MSTORE PUSH1 0x4 ADD PUSH2 0x9224 SWAP5 SWAP4 SWAP3 SWAP2 SWAP1 PUSH2 0xC1EC JUMP JUMPDEST PUSH1 0x0 PUSH1 0x40 MLOAD DUP1 DUP4 SUB DUP2 DUP7 DUP1 EXTCODESIZE ISZERO DUP1 ISZERO PUSH2 0x923C JUMPI PUSH1 0x0 DUP1 REVERT JUMPDEST POP GAS STATICCALL ISZERO DUP1 ISZERO PUSH2 0x9250 JUMPI RETURNDATASIZE PUSH1 0x0 DUP1 RETURNDATACOPY RETURNDATASIZE PUSH1 0x0 REVERT JUMPDEST POP POP POP POP PUSH1 0x40 MLOAD RETURNDATASIZE PUSH1 0x0 DUP3 RETURNDATACOPY RETURNDATASIZE PUSH1 0x1F NOT PUSH1 0x1F DUP3 ADD AND DUP3 ADD DUP1 PUSH1 0x40 MSTORE POP DUP2 ADD SWAP1 PUSH2 0x9279 SWAP2 SWAP1 PUSH2 0xB110 JUMP JUMPDEST POP POP SWAP1 POP DUP1 MLOAD DUP7 PUSH1 0x0 ADD MLOAD LT PUSH2 0x9296 JUMPI PUSH1 0x0 DUP1 SHL SWAP3 POP POP POP PUSH2 0x92D0 JUMP JUMPDEST DUP1 DUP7 PUSH1 0x0 ADD MLOAD DUP2 MLOAD DUP2 LT PUSH2 0x92A6 JUMPI INVALID JUMPDEST PUSH1 0x20 MUL PUSH1 0x20 ADD ADD MLOAD SWAP3 POP PUSH1 0xBB PUSH1 0xF8 DUP5 SWAP1 SHR PUSH1 0x0 SHR EQ ISZERO PUSH2 0x92CD JUMPI PUSH1 0x0 DUP1 SHL SWAP3 POP POP POP PUSH2 0x92D0 JUMP JUMPDEST POP POP JUMPDEST SWAP4 SWAP3 POP POP POP JUMP JUMPDEST PUSH1 0x0 DUP1 PUSH2 0x92E2 PUSH2 0xA3CF JUMP JUMPDEST DUP5 DUP1 PUSH1 0x20 ADD SWAP1 MLOAD DUP2 ADD SWAP1 PUSH2 0x92F6 SWAP2 SWAP1 PUSH2 0xAD06 JUMP JUMPDEST SWAP2 POP SWAP2 POP PUSH1 0x0 DUP7 DUP1 PUSH1 0x20 ADD SWAP1 MLOAD DUP2 ADD SWAP1 PUSH2 0x9310 SWAP2 SWAP1 PUSH2 0xAD06 JUMP JUMPDEST POP SWAP1 POP ADDRESS PUSH20 0xFFFFFFFFFFFFFFFFFFFFFFFFFFFFFFFFFFFFFFFF AND PUSH4 0xF1ED7FA4 DUP4 DUP4 DUP7 DUP10 PUSH1 0x40 MLOAD DUP6 PUSH4 0xFFFFFFFF AND PUSH1 0xE0 SHL DUP2 MSTORE PUSH1 0x4 ADD PUSH2 0x9352 SWAP5 SWAP4 SWAP3 SWAP2 SWAP1 PUSH2 0xCA6A JUMP JUMPDEST PUSH1 0x20 PUSH1 0x40 MLOAD DUP1 DUP4 SUB DUP2 DUP7 DUP1 EXTCODESIZE ISZERO DUP1 ISZERO PUSH2 0x936A JUMPI PUSH1 0x0 DUP1 REVERT JUMPDEST POP GAS STATICCALL SWAP3 POP POP POP DUP1 ISZERO PUSH2 0x939B JUMPI POP PUSH1 0x40 MLOAD RETURNDATASIZE PUSH1 0x1F NOT PUSH1 0x1F DUP3 ADD AND DUP3 ADD DUP1 PUSH1 0x40 MSTORE POP DUP2 ADD SWAP1 PUSH2 0x9398 SWAP2 SWAP1 PUSH2 0xBD27 JUMP JUMPDEST PUSH1 0x1 JUMPDEST PUSH2 0x93DE JUMPI RETURNDATASIZE DUP1 PUSH1 0x0 DUP2 EQ PUSH2 0x93CB JUMPI PUSH1 0x40 MLOAD SWAP2 POP PUSH1 0x1F NOT PUSH1 0x3F RETURNDATASIZE ADD AND DUP3 ADD PUSH1 0x40 MSTORE RETURNDATASIZE DUP3 MSTORE RETURNDATASIZE PUSH1 0x0 PUSH1 0x20 DUP5 ADD RETURNDATACOPY PUSH2 0x93D0 JUMP JUMPDEST PUSH1 0x60 SWAP2 POP JUMPDEST POP PUSH1 0x0 SWAP5 POP POP POP POP POP PUSH2 0x93E6 JUMP JUMPDEST DUP1 SWAP5 POP POP POP POP POP JUMPDEST SWAP4 SWAP3 POP POP POP JUMP JUMPDEST PUSH1 0x0 DUP1 PUSH1 0x60 DUP7 PUSH20 0xFFFFFFFFFFFFFFFFFFFFFFFFFFFFFFFFFFFFFFFF AND PUSH4 0x57A281DC DUP7 DUP7 PUSH1 0x40 MLOAD DUP4 PUSH4 0xFFFFFFFF AND PUSH1 0xE0 SHL DUP2 MSTORE PUSH1 0x4 ADD PUSH2 0x942D SWAP3 SWAP2 SWAP1 PUSH2 0xC0F3 JUMP JUMPDEST PUSH1 0x0 PUSH1 0x40 MLOAD DUP1 DUP4 SUB DUP2 DUP7 DUP1 EXTCODESIZE ISZERO DUP1 ISZERO PUSH2 0x9445 JUMPI PUSH1 0x0 DUP1 REVERT JUMPDEST POP GAS STATICCALL ISZERO DUP1 ISZERO PUSH2 0x9459 JUMPI RETURNDATASIZE PUSH1 0x0 DUP1 RETURNDATACOPY RETURNDATASIZE PUSH1 0x0 REVERT JUMPDEST POP POP POP POP PUSH1 0x40 MLOAD RETURNDATASIZE PUSH1 0x0 DUP3 RETURNDATACOPY RETURNDATASIZE PUSH1 0x1F NOT PUSH1 0x1F DUP3 ADD AND DUP3 ADD DUP1 PUSH1 0x40 MSTORE POP DUP2 ADD SWAP1 PUSH2 0x9482 SWAP2 SWAP1 PUSH2 0xB065 JUMP JUMPDEST SWAP1 POP PUSH1 0x1 SWAP2 POP PUSH1 0x0 DUP2 MLOAD EQ ISZERO PUSH2 0x9529 JUMPI DUP7 PUSH20 0xFFFFFFFFFFFFFFFFFFFFFFFFFFFFFFFFFFFFFFFF AND PUSH4 0x57A281DC DUP6 DUP8 PUSH1 0x40 MLOAD DUP4 PUSH4 0xFFFFFFFF AND PUSH1 0xE0 SHL DUP2 MSTORE PUSH1 0x4 ADD PUSH2 0x94CD SWAP3 SWAP2 SWAP1 PUSH2 0xC0F3 JUMP JUMPDEST PUSH1 0x0 PUSH1 0x40 MLOAD DUP1 DUP4 SUB DUP2 DUP7 DUP1 EXTCODESIZE ISZERO DUP1 ISZERO PUSH2 0x94E5 JUMPI PUSH1 0x0 DUP1 REVERT JUMPDEST POP GAS STATICCALL ISZERO DUP1 ISZERO PUSH2 0x94F9 JUMPI RETURNDATASIZE PUSH1 0x0 DUP1 RETURNDATACOPY RETURNDATASIZE PUSH1 0x0 REVERT JUMPDEST POP POP POP POP PUSH1 0x40 MLOAD RETURNDATASIZE PUSH1 0x0 DUP3 RETURNDATACOPY RETURNDATASIZE PUSH1 0x1F NOT PUSH1 0x1F DUP3 ADD AND DUP3 ADD DUP1 PUSH1 0x40 MSTORE POP DUP2 ADD SWAP1 PUSH2 0x9522 SWAP2 SWAP1 PUSH2 0xB065 JUMP JUMPDEST SWAP1 POP PUSH1 0x0 SWAP2 POP JUMPDEST DUP1 MLOAD DUP7 LT PUSH2 0x953E JUMPI PUSH1 0x0 DUP1 SWAP3 POP SWAP3 POP POP PUSH2 0x9556 JUMP JUMPDEST DUP1 DUP7 DUP2 MLOAD DUP2 LT PUSH2 0x954A JUMPI INVALID JUMPDEST PUSH1 0x20 MUL PUSH1 0x20 ADD ADD MLOAD SWAP3 POP POP JUMPDEST SWAP5 POP SWAP5 SWAP3 POP POP POP JUMP JUMPDEST PUSH1 0x0 DUP1 PUSH1 0x0 DUP1 DUP7 DUP1 PUSH1 0x20 ADD SWAP1 MLOAD DUP2 ADD SWAP1 PUSH2 0x9579 SWAP2 SWAP1 PUSH2 0xACB4 JUMP JUMPDEST SWAP3 POP SWAP3 POP SWAP3 POP DUP1 ISZERO PUSH2 0x962B JUMPI DUP2 PUSH20 0xFFFFFFFFFFFFFFFFFFFFFFFFFFFFFFFFFFFFFFFF AND PUSH4 0x79A04876 PUSH3 0x493E0 PUSH1 0x0 DUP9 PUSH1 0x40 MLOAD DUP5 PUSH4 0xFFFFFFFF AND PUSH1 0xE0 SHL DUP2 MSTORE PUSH1 0x4 ADD PUSH2 0x95C5 SWAP3 SWAP2 SWAP1 PUSH2 0xC0D3 JUMP JUMPDEST PUSH1 0x40 DUP1 MLOAD DUP1 DUP4 SUB DUP2 DUP8 DUP1 EXTCODESIZE ISZERO DUP1 ISZERO PUSH2 0x95DC JUMPI PUSH1 0x0 DUP1 REVERT JUMPDEST POP DUP7 STATICCALL SWAP4 POP POP POP POP DUP1 ISZERO PUSH2 0x960E JUMPI POP PUSH1 0x40 MLOAD RETURNDATASIZE PUSH1 0x1F NOT PUSH1 0x1F DUP3 ADD AND DUP3 ADD DUP1 PUSH1 0x40 MSTORE POP DUP2 ADD SWAP1 PUSH2 0x960B SWAP2 SWAP1 PUSH2 0xBD42 JUMP JUMPDEST PUSH1 0x1 JUMPDEST PUSH2 0x961E JUMPI PUSH1 0x0 SWAP4 POP POP POP POP PUSH2 0x96CD JUMP JUMPDEST DUP2 SWAP6 POP POP POP POP POP POP PUSH2 0x96CD JUMP JUMPDEST DUP2 PUSH20 0xFFFFFFFFFFFFFFFFFFFFFFFFFFFFFFFFFFFFFFFF AND PUSH4 0x66410A21 PUSH3 0x493E0 PUSH1 0x0 DUP9 PUSH1 0x40 MLOAD DUP5 PUSH4 0xFFFFFFFF AND PUSH1 0xE0 SHL DUP2 MSTORE PUSH1 0x4 ADD PUSH2 0x966B SWAP3 SWAP2 SWAP1 PUSH2 0xC0D3 JUMP JUMPDEST PUSH1 0x40 DUP1 MLOAD DUP1 DUP4 SUB DUP2 DUP8 DUP1 EXTCODESIZE ISZERO DUP1 ISZERO PUSH2 0x9682 JUMPI PUSH1 0x0 DUP1 REVERT JUMPDEST POP DUP7 STATICCALL SWAP4 POP POP POP POP DUP1 ISZERO PUSH2 0x96B4 JUMPI POP PUSH1 0x40 MLOAD RETURNDATASIZE PUSH1 0x1F NOT PUSH1 0x1F DUP3 ADD AND DUP3 ADD DUP1 PUSH1 0x40 MSTORE POP DUP2 ADD SWAP1 PUSH2 0x96B1 SWAP2 SWAP1 PUSH2 0xBD42 JUMP JUMPDEST PUSH1 0x1 JUMPDEST PUSH2 0x96C4 JUMPI PUSH1 0x0 SWAP4 POP POP POP POP PUSH2 0x96CD JUMP JUMPDEST DUP2 SWAP6 POP POP POP POP POP POP JUMPDEST SWAP4 SWAP3 POP POP POP JUMP JUMPDEST PUSH1 0x0 DUP1 PUSH1 0x0 DUP6 DUP1 PUSH1 0x20 ADD SWAP1 MLOAD DUP2 ADD SWAP1 PUSH2 0x96ED SWAP2 SWAP1 PUSH2 0xAC17 JUMP JUMPDEST SWAP2 POP SWAP2 POP PUSH1 0x0 DUP6 DUP1 PUSH1 0x20 ADD SWAP1 MLOAD DUP2 ADD SWAP1 PUSH2 0x9707 SWAP2 SWAP1 PUSH2 0xABF1 JUMP JUMPDEST SWAP1 POP ADDRESS PUSH20 0xFFFFFFFFFFFFFFFFFFFFFFFFFFFFFFFFFFFFFFFF AND PUSH4 0x30D6570D DUP4 DUP6 DUP5 PUSH2 0x9731 DUP11 PUSH2 0x9C95 JUMP JUMPDEST PUSH1 0x40 MLOAD DUP6 PUSH4 0xFFFFFFFF AND PUSH1 0xE0 SHL DUP2 MSTORE PUSH1 0x4 ADD PUSH2 0x9750 SWAP5 SWAP4 SWAP3 SWAP2 SWAP1 PUSH2 0xC14D JUMP JUMPDEST PUSH1 0x0 PUSH1 0x40 MLOAD DUP1 DUP4 SUB DUP2 DUP7 DUP1 EXTCODESIZE ISZERO DUP1 ISZERO PUSH2 0x9768 JUMPI PUSH1 0x0 DUP1 REVERT JUMPDEST POP GAS STATICCALL SWAP3 POP POP POP DUP1 ISZERO PUSH2 0x979E JUMPI POP PUSH1 0x40 MLOAD RETURNDATASIZE PUSH1 0x0 DUP3 RETURNDATACOPY RETURNDATASIZE PUSH1 0x1F NOT PUSH1 0x1F DUP3 ADD AND DUP3 ADD DUP1 PUSH1 0x40 MSTORE POP DUP2 ADD SWAP1 PUSH2 0x979B SWAP2 SWAP1 PUSH2 0xB507 JUMP JUMPDEST PUSH1 0x1 JUMPDEST PUSH2 0x97E1 JUMPI RETURNDATASIZE DUP1 PUSH1 0x0 DUP2 EQ PUSH2 0x97CE JUMPI PUSH1 0x40 MLOAD SWAP2 POP PUSH1 0x1F NOT PUSH1 0x3F RETURNDATASIZE ADD AND DUP3 ADD PUSH1 0x40 MSTORE RETURNDATASIZE DUP3 MSTORE RETURNDATASIZE PUSH1 0x0 PUSH1 0x20 DUP5 ADD RETURNDATACOPY PUSH2 0x97D3 JUMP JUMPDEST PUSH1 0x60 SWAP2 POP JUMPDEST POP PUSH1 0x0 SWAP5 POP POP POP POP POP PUSH2 0x97FD JUMP JUMPDEST DUP1 PUSH1 0x0 DUP2 MLOAD DUP2 LT PUSH2 0x97EE JUMPI INVALID JUMPDEST PUSH1 0x20 MUL PUSH1 0x20 ADD ADD MLOAD SWAP5 POP POP POP POP POP JUMPDEST SWAP4 SWAP3 POP POP POP JUMP JUMPDEST PUSH1 0x0 DUP1 PUSH1 0x60 DUP5 PUSH20 0xFFFFFFFFFFFFFFFFFFFFFFFFFFFFFFFFFFFFFFFF AND PUSH4 0x70A08231 PUSH1 0xE0 SHL DUP6 PUSH1 0x40 MLOAD PUSH1 0x24 ADD PUSH2 0x9839 SWAP2 SWAP1 PUSH2 0xC0A1 JUMP JUMPDEST PUSH1 0x40 MLOAD PUSH1 0x20 DUP2 DUP4 SUB SUB DUP2 MSTORE SWAP1 PUSH1 0x40 MSTORE SWAP1 PUSH28 0xFFFFFFFFFFFFFFFFFFFFFFFFFFFFFFFFFFFFFFFFFFFFFFFFFFFFFFFF NOT AND PUSH1 0x20 DUP3 ADD DUP1 MLOAD PUSH28 0xFFFFFFFFFFFFFFFFFFFFFFFFFFFFFFFFFFFFFFFFFFFFFFFFFFFFFFFF DUP4 DUP2 DUP4 AND OR DUP4 MSTORE POP POP POP POP PUSH1 0x40 MLOAD PUSH2 0x98A3 SWAP2 SWAP1 PUSH2 0xC083 JUMP JUMPDEST PUSH1 0x0 PUSH1 0x40 MLOAD DUP1 DUP4 SUB DUP2 DUP6 GAS STATICCALL SWAP2 POP POP RETURNDATASIZE DUP1 PUSH1 0x0 DUP2 EQ PUSH2 0x98DE JUMPI PUSH1 0x40 MLOAD SWAP2 POP PUSH1 0x1F NOT PUSH1 0x3F RETURNDATASIZE ADD AND DUP3 ADD PUSH1 0x40 MSTORE RETURNDATASIZE DUP3 MSTORE RETURNDATASIZE PUSH1 0x0 PUSH1 0x20 DUP5 ADD RETURNDATACOPY PUSH2 0x98E3 JUMP JUMPDEST PUSH1 0x60 SWAP2 POP JUMPDEST POP SWAP2 POP SWAP2 POP DUP2 DUP1 ISZERO PUSH2 0x98F7 JUMPI POP PUSH1 0x20 DUP2 MLOAD LT ISZERO JUMPDEST ISZERO PUSH2 0x990A JUMPI PUSH2 0x9907 DUP2 PUSH1 0x0 PUSH2 0x8F5C JUMP JUMPDEST SWAP3 POP JUMPDEST POP POP SWAP3 SWAP2 POP POP JUMP JUMPDEST PUSH1 0x0 DUP1 PUSH1 0x0 DUP6 DUP1 PUSH1 0x20 ADD SWAP1 MLOAD DUP2 ADD SWAP1 PUSH2 0x992B SWAP2 SWAP1 PUSH2 0xAC17 JUMP JUMPDEST SWAP2 POP SWAP2 POP PUSH1 0x0 DUP6 DUP1 PUSH1 0x20 ADD SWAP1 MLOAD DUP2 ADD SWAP1 PUSH2 0x9945 SWAP2 SWAP1 PUSH2 0xABF1 JUMP JUMPDEST SWAP1 POP ADDRESS PUSH20 0xFFFFFFFFFFFFFFFFFFFFFFFFFFFFFFFFFFFFFFFF AND PUSH4 0xA4698417 PUSH3 0x61A80 DUP5 DUP7 DUP6 PUSH2 0x9973 DUP12 PUSH2 0x9C95 JUMP JUMPDEST PUSH1 0x40 MLOAD DUP7 PUSH4 0xFFFFFFFF AND PUSH1 0xE0 SHL DUP2 MSTORE PUSH1 0x4 ADD PUSH2 0x9992 SWAP5 SWAP4 SWAP3 SWAP2 SWAP1 PUSH2 0xC14D JUMP JUMPDEST PUSH1 0x0 PUSH1 0x40 MLOAD DUP1 DUP4 SUB DUP2 DUP8 DUP1 EXTCODESIZE ISZERO DUP1 ISZERO PUSH2 0x99AA JUMPI PUSH1 0x0 DUP1 REVERT JUMPDEST POP DUP7 STATICCALL SWAP4 POP POP POP POP DUP1 ISZERO PUSH2 0x99E1 JUMPI POP PUSH1 0x40 MLOAD RETURNDATASIZE PUSH1 0x0 DUP3 RETURNDATACOPY RETURNDATASIZE PUSH1 0x1F NOT PUSH1 0x1F DUP3 ADD AND DUP3 ADD DUP1 PUSH1 0x40 MSTORE POP DUP2 ADD SWAP1 PUSH2 0x99DE SWAP2 SWAP1 PUSH2 0xB507 JUMP JUMPDEST PUSH1 0x1 JUMPDEST PUSH2 0x9A24 JUMPI RETURNDATASIZE DUP1 PUSH1 0x0 DUP2 EQ PUSH2 0x9A11 JUMPI PUSH1 0x40 MLOAD SWAP2 POP PUSH1 0x1F NOT PUSH1 0x3F RETURNDATASIZE ADD AND DUP3 ADD PUSH1 0x40 MSTORE RETURNDATASIZE DUP3 MSTORE RETURNDATASIZE PUSH1 0x0 PUSH1 0x20 DUP5 ADD RETURNDATACOPY PUSH2 0x9A16 JUMP JUMPDEST PUSH1 0x60 SWAP2 POP JUMPDEST POP PUSH1 0x0 SWAP5 POP POP POP POP POP PUSH2 0x9A40 JUMP JUMPDEST DUP1 PUSH1 0x0 DUP2 MLOAD DUP2 LT PUSH2 0x9A31 JUMPI INVALID JUMPDEST PUSH1 0x20 MUL PUSH1 0x20 ADD ADD MLOAD SWAP5 POP POP POP POP POP JUMPDEST SWAP4 SWAP3 POP POP POP JUMP JUMPDEST PUSH1 0x0 DUP1 PUSH1 0x60 DUP6 PUSH20 0xFFFFFFFFFFFFFFFFFFFFFFFFFFFFFFFFFFFFFFFF AND PUSH4 0xDD62ED3E PUSH1 0xE0 SHL DUP7 DUP7 PUSH1 0x40 MLOAD PUSH1 0x24 ADD PUSH2 0x9A7E SWAP3 SWAP2 SWAP1 PUSH2 0xC0F3 JUMP JUMPDEST PUSH1 0x40 MLOAD PUSH1 0x20 DUP2 DUP4 SUB SUB DUP2 MSTORE SWAP1 PUSH1 0x40 MSTORE SWAP1 PUSH28 0xFFFFFFFFFFFFFFFFFFFFFFFFFFFFFFFFFFFFFFFFFFFFFFFFFFFFFFFF NOT AND PUSH1 0x20 DUP3 ADD DUP1 MLOAD PUSH28 0xFFFFFFFFFFFFFFFFFFFFFFFFFFFFFFFFFFFFFFFFFFFFFFFFFFFFFFFF DUP4 DUP2 DUP4 AND OR DUP4 MSTORE POP POP POP POP PUSH1 0x40 MLOAD PUSH2 0x9AE8 SWAP2 SWAP1 PUSH2 0xC083 JUMP JUMPDEST PUSH1 0x0 PUSH1 0x40 MLOAD DUP1 DUP4 SUB DUP2 DUP6 GAS STATICCALL SWAP2 POP POP RETURNDATASIZE DUP1 PUSH1 0x0 DUP2 EQ PUSH2 0x9B23 JUMPI PUSH1 0x40 MLOAD SWAP2 POP PUSH1 0x1F NOT PUSH1 0x3F RETURNDATASIZE ADD AND DUP3 ADD PUSH1 0x40 MSTORE RETURNDATASIZE DUP3 MSTORE RETURNDATASIZE PUSH1 0x0 PUSH1 0x20 DUP5 ADD RETURNDATACOPY PUSH2 0x9B28 JUMP JUMPDEST PUSH1 0x60 SWAP2 POP JUMPDEST POP SWAP2 POP SWAP2 POP DUP2 DUP1 ISZERO PUSH2 0x9B3C JUMPI POP PUSH1 0x20 DUP2 MLOAD LT ISZERO JUMPDEST ISZERO PUSH2 0x9B4F JUMPI PUSH2 0x9B4C DUP2 PUSH1 0x0 PUSH2 0x8F5C JUMP JUMPDEST SWAP3 POP JUMPDEST POP POP SWAP4 SWAP3 POP POP POP JUMP JUMPDEST PUSH1 0x0 PUSH2 0x9B63 DUP3 PUSH2 0xA025 JUMP JUMPDEST SWAP1 POP SWAP2 SWAP1 POP JUMP JUMPDEST PUSH1 0x0 DUP1 PUSH1 0x0 DUP6 DUP1 PUSH1 0x20 ADD SWAP1 MLOAD DUP2 ADD SWAP1 PUSH2 0x9B83 SWAP2 SWAP1 PUSH2 0xAC17 JUMP JUMPDEST SWAP2 POP SWAP2 POP PUSH1 0x0 DUP1 DUP7 DUP1 PUSH1 0x20 ADD SWAP1 MLOAD DUP2 ADD SWAP1 PUSH2 0x9B9E SWAP2 SWAP1 PUSH2 0xAC17 JUMP JUMPDEST SWAP2 POP SWAP2 POP PUSH2 0x9BAE DUP5 DUP5 DUP4 DUP10 PUSH2 0x4DA6 JUMP JUMPDEST SWAP5 POP POP POP POP POP SWAP4 SWAP3 POP POP POP JUMP JUMPDEST PUSH1 0x0 DUP1 DUP4 EQ ISZERO PUSH2 0x9BCE JUMPI PUSH1 0x0 SWAP1 POP PUSH2 0x9BFF JUMP JUMPDEST PUSH1 0x0 DUP3 DUP5 MUL SWAP1 POP DUP3 DUP5 DUP3 DUP2 PUSH2 0x9BDF JUMPI INVALID JUMPDEST DIV EQ PUSH2 0x9BFA JUMPI PUSH2 0x9BF9 PUSH2 0x9BF4 PUSH1 0x1 DUP7 DUP7 PUSH2 0xA0C2 JUMP JUMPDEST PUSH2 0xA147 JUMP JUMPDEST JUMPDEST DUP1 SWAP2 POP POP JUMPDEST SWAP3 SWAP2 POP POP JUMP JUMPDEST PUSH1 0x0 DUP1 DUP3 DUP5 ADD SWAP1 POP DUP4 DUP2 LT ISZERO PUSH2 0x9C2A JUMPI PUSH2 0x9C29 PUSH2 0x9C24 PUSH1 0x0 DUP7 DUP7 PUSH2 0xA0C2 JUMP JUMPDEST PUSH2 0xA147 JUMP JUMPDEST JUMPDEST DUP1 SWAP2 POP POP SWAP3 SWAP2 POP POP JUMP JUMPDEST PUSH1 0x0 DUP1 DUP3 EQ ISZERO PUSH2 0x9C53 JUMPI PUSH2 0x9C52 PUSH2 0x9C4D PUSH1 0x3 DUP6 DUP6 PUSH2 0xA0C2 JUMP JUMPDEST PUSH2 0xA147 JUMP JUMPDEST JUMPDEST PUSH1 0x0 DUP3 DUP5 DUP2 PUSH2 0x9C5E JUMPI INVALID JUMPDEST DIV SWAP1 POP DUP1 SWAP2 POP POP SWAP3 SWAP2 POP POP JUMP JUMPDEST PUSH1 0x0 DUP3 DUP3 GT ISZERO PUSH2 0x9C8A JUMPI PUSH2 0x9C89 PUSH2 0x9C84 PUSH1 0x2 DUP6 DUP6 PUSH2 0xA0C2 JUMP JUMPDEST PUSH2 0xA147 JUMP JUMPDEST JUMPDEST DUP2 DUP4 SUB SWAP1 POP SWAP3 SWAP2 POP POP JUMP JUMPDEST PUSH1 0x60 PUSH1 0x1 PUSH8 0xFFFFFFFFFFFFFFFF DUP2 GT DUP1 ISZERO PUSH2 0x9CAF JUMPI PUSH1 0x0 DUP1 REVERT JUMPDEST POP PUSH1 0x40 MLOAD SWAP1 DUP1 DUP3 MSTORE DUP1 PUSH1 0x20 MUL PUSH1 0x20 ADD DUP3 ADD PUSH1 0x40 MSTORE DUP1 ISZERO PUSH2 0x9CDE JUMPI DUP2 PUSH1 0x20 ADD PUSH1 0x20 DUP3 MUL DUP1 CALLDATASIZE DUP4 CALLDATACOPY DUP1 DUP3 ADD SWAP2 POP POP SWAP1 POP JUMPDEST POP SWAP1 POP DUP2 DUP2 PUSH1 0x0 DUP2 MLOAD DUP2 LT PUSH2 0x9CEF JUMPI INVALID JUMPDEST PUSH1 0x20 MUL PUSH1 0x20 ADD ADD DUP2 DUP2 MSTORE POP POP SWAP2 SWAP1 POP JUMP JUMPDEST PUSH1 0x0 DUP1 DUP5 EQ DUP1 PUSH2 0x9D10 JUMPI POP PUSH1 0x0 DUP3 EQ JUMPDEST DUP1 PUSH2 0x9D1B JUMPI POP PUSH1 0x0 DUP4 EQ JUMPDEST ISZERO PUSH2 0x9D29 JUMPI PUSH1 0x0 SWAP1 POP PUSH2 0x9D5D JUMP JUMPDEST PUSH1 0x0 DUP3 DUP6 MUL SWAP1 POP DUP3 DUP6 DUP3 DUP2 PUSH2 0x9D3A JUMPI INVALID JUMPDEST DIV EQ PUSH2 0x9D4A JUMPI PUSH1 0x0 SWAP2 POP POP PUSH2 0x9D5D JUMP JUMPDEST DUP4 PUSH1 0x1 DUP6 SUB DUP3 ADD DUP2 PUSH2 0x9D58 JUMPI INVALID JUMPDEST DIV SWAP2 POP POP JUMPDEST SWAP4 SWAP3 POP POP POP JUMP JUMPDEST PUSH1 0x0 DUP1 DUP3 EXTCODESIZE SWAP1 POP PUSH1 0x0 DUP2 EQ ISZERO PUSH2 0x9D7E JUMPI PUSH1 0x0 SWAP2 POP POP PUSH2 0x9FB2 JUMP JUMPDEST POP PUSH1 0x0 DUP3 PUSH20 0xFFFFFFFFFFFFFFFFFFFFFFFFFFFFFFFFFFFFFFFF AND PUSH4 0xDFE1681 PUSH1 0x40 MLOAD DUP2 PUSH4 0xFFFFFFFF AND PUSH1 0xE0 SHL DUP2 MSTORE PUSH1 0x4 ADD PUSH1 0x20 PUSH1 0x40 MLOAD DUP1 DUP4 SUB DUP2 DUP7 DUP1 EXTCODESIZE ISZERO DUP1 ISZERO PUSH2 0x9DC7 JUMPI PUSH1 0x0 DUP1 REVERT JUMPDEST POP GAS STATICCALL ISZERO DUP1 ISZERO PUSH2 0x9DDB JUMPI RETURNDATASIZE PUSH1 0x0 DUP1 RETURNDATACOPY RETURNDATASIZE PUSH1 0x0 REVERT JUMPDEST POP POP POP POP PUSH1 0x40 MLOAD RETURNDATASIZE PUSH1 0x1F NOT PUSH1 0x1F DUP3 ADD AND DUP3 ADD DUP1 PUSH1 0x40 MSTORE POP DUP2 ADD SWAP1 PUSH2 0x9DFF SWAP2 SWAP1 PUSH2 0xB619 JUMP JUMPDEST PUSH20 0xFFFFFFFFFFFFFFFFFFFFFFFFFFFFFFFFFFFFFFFF AND PUSH4 0x70A08231 DUP5 PUSH1 0x40 MLOAD DUP3 PUSH4 0xFFFFFFFF AND PUSH1 0xE0 SHL DUP2 MSTORE PUSH1 0x4 ADD PUSH2 0x9E37 SWAP2 SWAP1 PUSH2 0xC0A1 JUMP JUMPDEST PUSH1 0x20 PUSH1 0x40 MLOAD DUP1 DUP4 SUB DUP2 DUP7 DUP1 EXTCODESIZE ISZERO DUP1 ISZERO PUSH2 0x9E4F JUMPI PUSH1 0x0 DUP1 REVERT JUMPDEST POP GAS STATICCALL ISZERO DUP1 ISZERO PUSH2 0x9E63 JUMPI RETURNDATASIZE PUSH1 0x0 DUP1 RETURNDATACOPY RETURNDATASIZE PUSH1 0x0 REVERT JUMPDEST POP POP POP POP PUSH1 0x40 MLOAD RETURNDATASIZE PUSH1 0x1F NOT PUSH1 0x1F DUP3 ADD AND DUP3 ADD DUP1 PUSH1 0x40 MSTORE POP DUP2 ADD SWAP1 PUSH2 0x9E87 SWAP2 SWAP1 PUSH2 0xBD27 JUMP JUMPDEST EQ ISZERO PUSH2 0x9E96 JUMPI PUSH1 0x0 SWAP1 POP PUSH2 0x9FB2 JUMP JUMPDEST PUSH1 0x0 DUP3 PUSH20 0xFFFFFFFFFFFFFFFFFFFFFFFFFFFFFFFFFFFFFFFF AND PUSH4 0xD21220A7 PUSH1 0x40 MLOAD DUP2 PUSH4 0xFFFFFFFF AND PUSH1 0xE0 SHL DUP2 MSTORE PUSH1 0x4 ADD PUSH1 0x20 PUSH1 0x40 MLOAD DUP1 DUP4 SUB DUP2 DUP7 DUP1 EXTCODESIZE ISZERO DUP1 ISZERO PUSH2 0x9EDE JUMPI PUSH1 0x0 DUP1 REVERT JUMPDEST POP GAS STATICCALL ISZERO DUP1 ISZERO PUSH2 0x9EF2 JUMPI RETURNDATASIZE PUSH1 0x0 DUP1 RETURNDATACOPY RETURNDATASIZE PUSH1 0x0 REVERT JUMPDEST POP POP POP POP PUSH1 0x40 MLOAD RETURNDATASIZE PUSH1 0x1F NOT PUSH1 0x1F DUP3 ADD AND DUP3 ADD DUP1 PUSH1 0x40 MSTORE POP DUP2 ADD SWAP1 PUSH2 0x9F16 SWAP2 SWAP1 PUSH2 0xB619 JUMP JUMPDEST PUSH20 0xFFFFFFFFFFFFFFFFFFFFFFFFFFFFFFFFFFFFFFFF AND PUSH4 0x70A08231 DUP5 PUSH1 0x40 MLOAD DUP3 PUSH4 0xFFFFFFFF AND PUSH1 0xE0 SHL DUP2 MSTORE PUSH1 0x4 ADD PUSH2 0x9F4E SWAP2 SWAP1 PUSH2 0xC0A1 JUMP JUMPDEST PUSH1 0x20 PUSH1 0x40 MLOAD DUP1 DUP4 SUB DUP2 DUP7 DUP1 EXTCODESIZE ISZERO DUP1 ISZERO PUSH2 0x9F66 JUMPI PUSH1 0x0 DUP1 REVERT JUMPDEST POP GAS STATICCALL ISZERO DUP1 ISZERO PUSH2 0x9F7A JUMPI RETURNDATASIZE PUSH1 0x0 DUP1 RETURNDATACOPY RETURNDATASIZE PUSH1 0x0 REVERT JUMPDEST POP POP POP POP PUSH1 0x40 MLOAD RETURNDATASIZE PUSH1 0x1F NOT PUSH1 0x1F DUP3 ADD AND DUP3 ADD DUP1 PUSH1 0x40 MSTORE POP DUP2 ADD SWAP1 PUSH2 0x9F9E SWAP2 SWAP1 PUSH2 0xBD27 JUMP JUMPDEST EQ ISZERO PUSH2 0x9FAD JUMPI PUSH1 0x0 SWAP1 POP PUSH2 0x9FB2 JUMP JUMPDEST PUSH1 0x1 SWAP1 POP JUMPDEST SWAP2 SWAP1 POP JUMP JUMPDEST PUSH1 0x20 DUP3 ADD DUP4 MLOAD LT ISZERO PUSH2 0x9FDC JUMPI PUSH2 0x9FDB PUSH2 0x9FD6 PUSH1 0x5 DUP6 MLOAD PUSH1 0x20 DUP7 ADD PUSH2 0xA14F JUMP JUMPDEST PUSH2 0xA147 JUMP JUMPDEST JUMPDEST PUSH1 0x20 DUP3 ADD SWAP2 POP DUP1 DUP3 DUP5 ADD MSTORE POP POP POP JUMP JUMPDEST PUSH1 0x0 PUSH1 0x20 DUP3 ADD DUP4 MLOAD LT ISZERO PUSH2 0xA013 JUMPI PUSH2 0xA012 PUSH2 0xA00D PUSH1 0x5 DUP6 MLOAD PUSH1 0x20 DUP7 ADD PUSH2 0xA14F JUMP JUMPDEST PUSH2 0xA147 JUMP JUMPDEST JUMPDEST PUSH1 0x20 DUP3 ADD SWAP2 POP DUP2 DUP4 ADD MLOAD SWAP1 POP SWAP3 SWAP2 POP POP JUMP JUMPDEST PUSH1 0x0 PUSH20 0xC02AAA39B223FE8D0A0E5C4F27EAD9083C756CC2 PUSH20 0xFFFFFFFFFFFFFFFFFFFFFFFFFFFFFFFFFFFFFFFF AND DUP3 PUSH20 0xFFFFFFFFFFFFFFFFFFFFFFFFFFFFFFFFFFFFFFFF AND EQ ISZERO PUSH2 0xA078 JUMPI PUSH1 0x12 SWAP1 POP PUSH2 0xA0BD JUMP JUMPDEST PUSH1 0x0 DUP3 PUSH1 0x40 MLOAD PUSH1 0x20 ADD PUSH2 0xA08B SWAP2 SWAP1 PUSH2 0xC049 JUMP JUMPDEST PUSH1 0x40 MLOAD PUSH1 0x20 DUP2 DUP4 SUB SUB DUP2 MSTORE SWAP1 PUSH1 0x40 MSTORE DUP1 MLOAD SWAP1 PUSH1 0x20 ADD KECCAK256 SWAP1 POP PUSH1 0x4 DUP1 PUSH1 0x14 SUB PUSH1 0xFF AND DUP3 PUSH1 0x0 SHR DUP2 PUSH2 0xA0B7 JUMPI INVALID JUMPDEST MOD ADD SWAP2 POP POP JUMPDEST SWAP2 SWAP1 POP JUMP JUMPDEST PUSH1 0x60 PUSH4 0xE946C1BB PUSH1 0xE0 SHL DUP5 DUP5 DUP5 PUSH1 0x40 MLOAD PUSH1 0x24 ADD PUSH2 0xA0E1 SWAP4 SWAP3 SWAP2 SWAP1 PUSH2 0xC745 JUMP JUMPDEST PUSH1 0x40 MLOAD PUSH1 0x20 DUP2 DUP4 SUB SUB DUP2 MSTORE SWAP1 PUSH1 0x40 MSTORE SWAP1 PUSH28 0xFFFFFFFFFFFFFFFFFFFFFFFFFFFFFFFFFFFFFFFFFFFFFFFFFFFFFFFF NOT AND PUSH1 0x20 DUP3 ADD DUP1 MLOAD PUSH28 0xFFFFFFFFFFFFFFFFFFFFFFFFFFFFFFFFFFFFFFFFFFFFFFFFFFFFFFFF DUP4 DUP2 DUP4 AND OR DUP4 MSTORE POP POP POP POP SWAP1 POP SWAP4 SWAP3 POP POP POP JUMP JUMPDEST DUP1 MLOAD PUSH1 0x20 DUP3 ADD REVERT JUMPDEST PUSH1 0x60 PUSH4 0x28006595 PUSH1 0xE0 SHL DUP5 DUP5 DUP5 PUSH1 0x40 MLOAD PUSH1 0x24 ADD PUSH2 0xA16E SWAP4 SWAP3 SWAP2 SWAP1 PUSH2 0xC76D JUMP JUMPDEST PUSH1 0x40 MLOAD PUSH1 0x20 DUP2 DUP4 SUB SUB DUP2 MSTORE SWAP1 PUSH1 0x40 MSTORE SWAP1 PUSH28 0xFFFFFFFFFFFFFFFFFFFFFFFFFFFFFFFFFFFFFFFFFFFFFFFFFFFFFFFF NOT AND PUSH1 0x20 DUP3 ADD DUP1 MLOAD PUSH28 0xFFFFFFFFFFFFFFFFFFFFFFFFFFFFFFFFFFFFFFFFFFFFFFFFFFFFFFFF DUP4 DUP2 DUP4 AND OR DUP4 MSTORE POP POP POP POP SWAP1 POP SWAP4 SWAP3 POP POP POP JUMP JUMPDEST PUSH1 0x40 MLOAD DUP1 PUSH1 0x80 ADD PUSH1 0x40 MSTORE DUP1 PUSH1 0x0 PUSH20 0xFFFFFFFFFFFFFFFFFFFFFFFFFFFFFFFFFFFFFFFF AND DUP2 MSTORE PUSH1 0x20 ADD PUSH1 0x0 ISZERO ISZERO DUP2 MSTORE PUSH1 0x20 ADD PUSH1 0x0 PUSH20 0xFFFFFFFFFFFFFFFFFFFFFFFFFFFFFFFFFFFFFFFF AND DUP2 MSTORE PUSH1 0x20 ADD PUSH1 0x0 ISZERO ISZERO DUP2 MSTORE POP SWAP1 JUMP JUMPDEST PUSH1 0x40 MLOAD DUP1 PUSH1 0xA0 ADD PUSH1 0x40 MSTORE DUP1 PUSH1 0x0 DUP2 MSTORE PUSH1 0x20 ADD PUSH1 0x0 DUP2 MSTORE PUSH1 0x20 ADD PUSH1 0x0 DUP2 MSTORE PUSH1 0x20 ADD PUSH1 0x0 DUP2 MSTORE PUSH1 0x20 ADD PUSH1 0x0 DUP2 MSTORE POP SWAP1 JUMP JUMPDEST PUSH1 0x40 MLOAD DUP1 PUSH1 0x40 ADD PUSH1 0x40 MSTORE DUP1 PUSH1 0x60 DUP2 MSTORE PUSH1 0x20 ADD PUSH1 0x0 ISZERO ISZERO DUP2 MSTORE POP SWAP1 JUMP JUMPDEST PUSH1 0x40 MLOAD DUP1 PUSH1 0x40 ADD PUSH1 0x40 MSTORE DUP1 PUSH1 0x0 DUP2 MSTORE PUSH1 0x20 ADD PUSH1 0x60 DUP2 MSTORE POP SWAP1 JUMP JUMPDEST PUSH1 0x40 MLOAD DUP1 PUSH1 0xA0 ADD PUSH1 0x40 MSTORE DUP1 PUSH1 0x0 DUP1 NOT AND DUP2 MSTORE PUSH1 0x20 ADD PUSH1 0x0 DUP2 MSTORE PUSH1 0x20 ADD PUSH1 0x0 DUP2 MSTORE PUSH1 0x20 ADD PUSH1 0x0 DUP2 MSTORE PUSH1 0x20 ADD PUSH1 0x60 DUP2 MSTORE POP SWAP1 JUMP JUMPDEST PUSH1 0x40 MLOAD DUP1 PUSH1 0x60 ADD PUSH1 0x40 MSTORE DUP1 PUSH1 0x0 PUSH20 0xFFFFFFFFFFFFFFFFFFFFFFFFFFFFFFFFFFFFFFFF AND DUP2 MSTORE PUSH1 0x20 ADD PUSH1 0x0 PUSH28 0xFFFFFFFFFFFFFFFFFFFFFFFFFFFFFFFFFFFFFFFFFFFFFFFFFFFFFFFF NOT AND DUP2 MSTORE PUSH1 0x20 ADD PUSH1 0x0 PUSH28 0xFFFFFFFFFFFFFFFFFFFFFFFFFFFFFFFFFFFFFFFFFFFFFFFFFFFFFFFF NOT AND DUP2 MSTORE POP SWAP1 JUMP JUMPDEST PUSH1 0x40 MLOAD DUP1 PUSH1 0x60 ADD PUSH1 0x40 MSTORE DUP1 PUSH1 0x3 SWAP1 PUSH1 0x20 DUP3 MUL DUP1 CALLDATASIZE DUP4 CALLDATACOPY DUP1 DUP3 ADD SWAP2 POP POP SWAP1 POP POP SWAP1 JUMP JUMPDEST PUSH1 0x40 MLOAD DUP1 PUSH1 0x60 ADD PUSH1 0x40 MSTORE DUP1 PUSH1 0x0 PUSH20 0xFFFFFFFFFFFFFFFFFFFFFFFFFFFFFFFFFFFFFFFF AND DUP2 MSTORE PUSH1 0x20 ADD PUSH1 0x0 PUSH28 0xFFFFFFFFFFFFFFFFFFFFFFFFFFFFFFFFFFFFFFFFFFFFFFFFFFFFFFFF NOT AND DUP2 MSTORE PUSH1 0x20 ADD PUSH1 0x0 PUSH28 0xFFFFFFFFFFFFFFFFFFFFFFFFFFFFFFFFFFFFFFFFFFFFFFFFFFFFFFFF NOT AND DUP2 MSTORE POP SWAP1 JUMP JUMPDEST PUSH1 0x40 MLOAD DUP1 PUSH1 0xA0 ADD PUSH1 0x40 MSTORE DUP1 PUSH1 0x0 DUP2 MSTORE PUSH1 0x20 ADD PUSH1 0x0 PUSH20 0xFFFFFFFFFFFFFFFFFFFFFFFFFFFFFFFFFFFFFFFF AND DUP2 MSTORE PUSH1 0x20 ADD PUSH1 0x0 PUSH20 0xFFFFFFFFFFFFFFFFFFFFFFFFFFFFFFFFFFFFFFFF AND DUP2 MSTORE PUSH1 0x20 ADD PUSH1 0x0 PUSH20 0xFFFFFFFFFFFFFFFFFFFFFFFFFFFFFFFFFFFFFFFF AND DUP2 MSTORE PUSH1 0x20 ADD PUSH1 0x60 DUP2 MSTORE POP SWAP1 JUMP JUMPDEST PUSH1 0x0 DUP2 CALLDATALOAD SWAP1 POP PUSH2 0xA44F DUP2 PUSH2 0xCDAB JUMP JUMPDEST SWAP3 SWAP2 POP POP JUMP JUMPDEST PUSH1 0x0 DUP2 MLOAD SWAP1 POP PUSH2 0xA464 DUP2 PUSH2 0xCDAB JUMP JUMPDEST SWAP3 SWAP2 POP POP JUMP JUMPDEST PUSH1 0x0 DUP1 DUP4 PUSH1 0x1F DUP5 ADD SLT PUSH2 0xA47B JUMPI DUP2 DUP3 REVERT JUMPDEST DUP3 CALLDATALOAD SWAP1 POP PUSH8 0xFFFFFFFFFFFFFFFF DUP2 GT ISZERO PUSH2 0xA493 JUMPI DUP2 DUP3 REVERT JUMPDEST PUSH1 0x20 DUP4 ADD SWAP2 POP DUP4 PUSH1 0x20 DUP1 DUP4 MUL DUP6 ADD ADD GT ISZERO PUSH2 0xA4AD JUMPI PUSH1 0x0 DUP1 REVERT JUMPDEST SWAP3 POP SWAP3 SWAP1 POP JUMP JUMPDEST PUSH1 0x0 DUP3 PUSH1 0x1F DUP4 ADD SLT PUSH2 0xA4C4 JUMPI DUP1 DUP2 REVERT JUMPDEST DUP2 CALLDATALOAD PUSH2 0xA4D7 PUSH2 0xA4D2 DUP3 PUSH2 0xCD02 JUMP JUMPDEST PUSH2 0xCCD5 JUMP JUMPDEST SWAP2 POP DUP2 DUP2 DUP4 MSTORE PUSH1 0x20 DUP1 DUP5 ADD SWAP2 POP DUP1 DUP6 ADD DUP7 DUP3 DUP4 DUP7 MUL DUP9 ADD ADD GT ISZERO PUSH2 0xA4FA JUMPI PUSH1 0x0 DUP1 REVERT JUMPDEST PUSH1 0x0 JUMPDEST DUP5 DUP2 LT ISZERO PUSH2 0xA529 JUMPI DUP2 CALLDATALOAD PUSH2 0xA510 DUP2 PUSH2 0xCDAB JUMP JUMPDEST DUP1 DUP6 MSTORE POP DUP3 DUP5 ADD SWAP4 POP DUP3 DUP3 ADD SWAP2 POP PUSH1 0x1 DUP2 ADD SWAP1 POP PUSH2 0xA4FD JUMP JUMPDEST POP POP POP POP POP SWAP3 SWAP2 POP POP JUMP JUMPDEST PUSH1 0x0 DUP3 PUSH1 0x1F DUP4 ADD SLT PUSH2 0xA544 JUMPI DUP1 DUP2 REVERT JUMPDEST DUP2 CALLDATALOAD PUSH2 0xA557 PUSH2 0xA552 DUP3 PUSH2 0xCD02 JUMP JUMPDEST PUSH2 0xCCD5 JUMP JUMPDEST SWAP2 POP DUP2 DUP2 DUP4 MSTORE PUSH1 0x20 DUP1 DUP5 ADD SWAP2 POP DUP1 DUP6 ADD PUSH1 0x0 JUMPDEST DUP5 DUP2 LT ISZERO PUSH2 0xA598 JUMPI PUSH2 0xA581 DUP9 DUP5 DUP5 CALLDATALOAD DUP11 ADD ADD PUSH2 0xA4B4 JUMP JUMPDEST DUP5 MSTORE DUP3 DUP5 ADD SWAP4 POP DUP3 DUP3 ADD SWAP2 POP PUSH1 0x1 DUP2 ADD SWAP1 POP PUSH2 0xA56A JUMP JUMPDEST POP POP POP POP POP SWAP3 SWAP2 POP POP JUMP JUMPDEST PUSH1 0x0 DUP3 PUSH1 0x1F DUP4 ADD SLT PUSH2 0xA5B3 JUMPI DUP1 DUP2 REVERT JUMPDEST DUP2 CALLDATALOAD PUSH2 0xA5C6 PUSH2 0xA5C1 DUP3 PUSH2 0xCD02 JUMP JUMPDEST PUSH2 0xCCD5 JUMP JUMPDEST SWAP2 POP DUP2 DUP2 DUP4 MSTORE PUSH1 0x20 DUP1 DUP5 ADD SWAP2 POP DUP1 DUP6 ADD PUSH1 0x0 JUMPDEST DUP5 DUP2 LT ISZERO PUSH2 0xA607 JUMPI PUSH2 0xA5F0 DUP9 DUP5 DUP5 CALLDATALOAD DUP11 ADD ADD PUSH2 0xA7FC JUMP JUMPDEST DUP5 MSTORE DUP3 DUP5 ADD SWAP4 POP DUP3 DUP3 ADD SWAP2 POP PUSH1 0x1 DUP2 ADD SWAP1 POP PUSH2 0xA5D9 JUMP JUMPDEST POP POP POP POP POP SWAP3 SWAP2 POP POP JUMP JUMPDEST PUSH1 0x0 DUP3 PUSH1 0x1F DUP4 ADD SLT PUSH2 0xA622 JUMPI DUP1 DUP2 REVERT JUMPDEST DUP2 CALLDATALOAD PUSH2 0xA635 PUSH2 0xA630 DUP3 PUSH2 0xCD02 JUMP JUMPDEST PUSH2 0xCCD5 JUMP JUMPDEST SWAP2 POP DUP2 DUP2 DUP4 MSTORE PUSH1 0x20 DUP1 DUP5 ADD SWAP2 POP DUP1 DUP6 ADD DUP7 DUP3 DUP4 DUP7 MUL DUP9 ADD ADD GT ISZERO PUSH2 0xA658 JUMPI PUSH1 0x0 DUP1 REVERT JUMPDEST PUSH1 0x0 JUMPDEST DUP5 DUP2 LT ISZERO PUSH2 0xA687 JUMPI DUP2 CALLDATALOAD PUSH2 0xA66E DUP2 PUSH2 0xCDAB JUMP JUMPDEST DUP1 DUP6 MSTORE POP DUP3 DUP5 ADD SWAP4 POP DUP3 DUP3 ADD SWAP2 POP PUSH1 0x1 DUP2 ADD SWAP1 POP PUSH2 0xA65B JUMP JUMPDEST POP POP POP POP POP SWAP3 SWAP2 POP POP JUMP JUMPDEST PUSH1 0x0 DUP3 PUSH1 0x1F DUP4 ADD SLT PUSH2 0xA6A2 JUMPI DUP1 DUP2 REVERT JUMPDEST DUP2 CALLDATALOAD PUSH2 0xA6B5 PUSH2 0xA6B0 DUP3 PUSH2 0xCD02 JUMP JUMPDEST PUSH2 0xCCD5 JUMP JUMPDEST SWAP2 POP DUP2 DUP2 DUP4 MSTORE PUSH1 0x20 DUP1 DUP5 ADD SWAP2 POP DUP1 DUP6 ADD PUSH1 0x80 DUP8 DUP4 DUP3 DUP8 MUL DUP10 ADD ADD GT ISZERO PUSH2 0xA6DA JUMPI PUSH1 0x0 DUP1 REVERT JUMPDEST PUSH1 0x0 JUMPDEST DUP6 DUP2 LT ISZERO PUSH2 0xA706 JUMPI PUSH2 0xA6EF DUP10 DUP5 PUSH2 0xAAF4 JUMP JUMPDEST DUP6 MSTORE DUP4 DUP6 ADD SWAP5 POP DUP2 DUP4 ADD SWAP3 POP PUSH1 0x1 DUP2 ADD SWAP1 POP PUSH2 0xA6DD JUMP JUMPDEST POP POP POP POP POP POP SWAP3 SWAP2 POP POP JUMP JUMPDEST PUSH1 0x0 DUP3 PUSH1 0x1F DUP4 ADD SLT PUSH2 0xA722 JUMPI DUP1 DUP2 REVERT JUMPDEST DUP2 CALLDATALOAD PUSH2 0xA735 PUSH2 0xA730 DUP3 PUSH2 0xCD02 JUMP JUMPDEST PUSH2 0xCCD5 JUMP JUMPDEST SWAP2 POP DUP2 DUP2 DUP4 MSTORE PUSH1 0x20 DUP1 DUP5 ADD SWAP2 POP DUP1 DUP6 ADD DUP7 DUP3 DUP4 DUP7 MUL DUP9 ADD ADD GT ISZERO PUSH2 0xA758 JUMPI PUSH1 0x0 DUP1 REVERT JUMPDEST PUSH1 0x0 JUMPDEST DUP5 DUP2 LT ISZERO PUSH2 0xA77C JUMPI DUP2 CALLDATALOAD DUP5 MSTORE DUP3 DUP5 ADD SWAP4 POP DUP3 DUP3 ADD SWAP2 POP PUSH1 0x1 DUP2 ADD SWAP1 POP PUSH2 0xA75B JUMP JUMPDEST POP POP POP POP POP SWAP3 SWAP2 POP POP JUMP JUMPDEST PUSH1 0x0 DUP3 PUSH1 0x1F DUP4 ADD SLT PUSH2 0xA797 JUMPI DUP1 DUP2 REVERT JUMPDEST DUP2 MLOAD PUSH2 0xA7AA PUSH2 0xA7A5 DUP3 PUSH2 0xCD02 JUMP JUMPDEST PUSH2 0xCCD5 JUMP JUMPDEST SWAP2 POP DUP2 DUP2 DUP4 MSTORE PUSH1 0x20 DUP1 DUP5 ADD SWAP2 POP DUP1 DUP6 ADD DUP7 DUP3 DUP4 DUP7 MUL DUP9 ADD ADD GT ISZERO PUSH2 0xA7CD JUMPI PUSH1 0x0 DUP1 REVERT JUMPDEST PUSH1 0x0 JUMPDEST DUP5 DUP2 LT ISZERO PUSH2 0xA7F1 JUMPI DUP2 MLOAD DUP5 MSTORE DUP3 DUP5 ADD SWAP4 POP DUP3 DUP3 ADD SWAP2 POP PUSH1 0x1 DUP2 ADD SWAP1 POP PUSH2 0xA7D0 JUMP JUMPDEST POP POP POP POP POP SWAP3 SWAP2 POP POP JUMP JUMPDEST PUSH1 0x0 DUP3 PUSH1 0x1F DUP4 ADD SLT PUSH2 0xA80C JUMPI DUP1 DUP2 REVERT JUMPDEST DUP2 CALLDATALOAD PUSH2 0xA81F PUSH2 0xA81A DUP3 PUSH2 0xCD25 JUMP JUMPDEST PUSH2 0xCCD5 JUMP JUMPDEST SWAP2 POP DUP1 DUP3 MSTORE DUP4 PUSH1 0x20 DUP3 DUP6 ADD ADD GT ISZERO PUSH2 0xA836 JUMPI PUSH1 0x0 DUP1 REVERT JUMPDEST DUP1 PUSH1 0x20 DUP5 ADD PUSH1 0x20 DUP5 ADD CALLDATACOPY PUSH1 0x0 PUSH1 0x20 DUP3 DUP5 ADD ADD MSTORE POP SWAP3 SWAP2 POP POP JUMP JUMPDEST PUSH1 0x0 DUP3 PUSH1 0x1F DUP4 ADD SLT PUSH2 0xA860 JUMPI DUP1 DUP2 REVERT JUMPDEST DUP2 MLOAD PUSH2 0xA873 PUSH2 0xA86E DUP3 PUSH2 0xCD25 JUMP JUMPDEST PUSH2 0xCCD5 JUMP JUMPDEST SWAP2 POP DUP1 DUP3 MSTORE DUP4 PUSH1 0x20 DUP3 DUP6 ADD ADD GT ISZERO PUSH2 0xA88A JUMPI PUSH1 0x0 DUP1 REVERT JUMPDEST PUSH2 0xA89B DUP2 PUSH1 0x20 DUP5 ADD PUSH1 0x20 DUP7 ADD PUSH2 0xCD5E JUMP JUMPDEST POP SWAP3 SWAP2 POP POP JUMP JUMPDEST PUSH1 0x0 DUP2 MLOAD SWAP1 POP PUSH1 0x2 DUP2 LT PUSH2 0xA8B5 JUMPI PUSH1 0x0 DUP1 REVERT JUMPDEST SWAP3 SWAP2 POP POP JUMP JUMPDEST PUSH1 0x0 PUSH1 0x60 DUP3 DUP5 SUB SLT ISZERO PUSH2 0xA8CC JUMPI DUP1 DUP2 REVERT JUMPDEST PUSH2 0xA8D6 PUSH1 0x60 PUSH2 0xCCD5 JUMP JUMPDEST SWAP1 POP DUP2 CALLDATALOAD PUSH2 0xA8E3 DUP2 PUSH2 0xCDAB JUMP JUMPDEST DUP1 DUP3 MSTORE POP PUSH1 0x20 DUP3 ADD CALLDATALOAD PUSH2 0xA8F5 DUP2 PUSH2 0xCDD3 JUMP JUMPDEST DUP1 PUSH1 0x20 DUP4 ADD MSTORE POP PUSH1 0x40 DUP3 ADD CALLDATALOAD PUSH2 0xA90A DUP2 PUSH2 0xCDD3 JUMP JUMPDEST DUP1 PUSH1 0x40 DUP4 ADD MSTORE POP SWAP3 SWAP2 POP POP JUMP JUMPDEST PUSH1 0x0 PUSH1 0x60 DUP3 DUP5 SUB SLT ISZERO PUSH2 0xA928 JUMPI DUP1 DUP2 REVERT JUMPDEST PUSH2 0xA932 PUSH1 0x60 PUSH2 0xCCD5 JUMP JUMPDEST SWAP1 POP DUP2 MLOAD PUSH2 0xA93F DUP2 PUSH2 0xCDAB JUMP JUMPDEST DUP1 DUP3 MSTORE POP PUSH1 0x20 DUP3 ADD MLOAD PUSH2 0xA951 DUP2 PUSH2 0xCDD3 JUMP JUMPDEST DUP1 PUSH1 0x20 DUP4 ADD MSTORE POP PUSH1 0x40 DUP3 ADD MLOAD PUSH2 0xA966 DUP2 PUSH2 0xCDD3 JUMP JUMPDEST DUP1 PUSH1 0x40 DUP4 ADD MSTORE POP SWAP3 SWAP2 POP POP JUMP JUMPDEST PUSH1 0x0 PUSH1 0xA0 DUP3 DUP5 SUB SLT ISZERO PUSH2 0xA984 JUMPI DUP1 DUP2 REVERT JUMPDEST PUSH2 0xA98E PUSH1 0xA0 PUSH2 0xCCD5 JUMP JUMPDEST SWAP1 POP DUP2 CALLDATALOAD DUP2 MSTORE PUSH1 0x20 DUP3 ADD CALLDATALOAD PUSH2 0xA9A2 DUP2 PUSH2 0xCDAB JUMP JUMPDEST DUP1 PUSH1 0x20 DUP4 ADD MSTORE POP PUSH1 0x40 DUP3 ADD CALLDATALOAD PUSH2 0xA9B7 DUP2 PUSH2 0xCDAB JUMP JUMPDEST DUP1 PUSH1 0x40 DUP4 ADD MSTORE POP PUSH1 0x60 DUP3 ADD CALLDATALOAD PUSH2 0xA9CC DUP2 PUSH2 0xCDAB JUMP JUMPDEST DUP1 PUSH1 0x60 DUP4 ADD MSTORE POP PUSH1 0x80 DUP3 ADD CALLDATALOAD PUSH8 0xFFFFFFFFFFFFFFFF DUP2 GT ISZERO PUSH2 0xA9ED JUMPI PUSH1 0x0 DUP1 REVERT JUMPDEST PUSH2 0xA9F9 DUP5 DUP3 DUP6 ADD PUSH2 0xA7FC JUMP JUMPDEST PUSH1 0x80 DUP4 ADD MSTORE POP SWAP3 SWAP2 POP POP JUMP JUMPDEST PUSH1 0x0 PUSH2 0x180 DUP1 DUP4 DUP6 SUB SLT ISZERO PUSH2 0xAA18 JUMPI DUP2 DUP3 REVERT JUMPDEST PUSH2 0xAA21 DUP2 PUSH2 0xCCD5 JUMP JUMPDEST SWAP2 POP POP PUSH2 0xAA2E DUP4 DUP4 PUSH2 0xA440 JUMP JUMPDEST DUP2 MSTORE PUSH2 0xAA3D DUP4 PUSH1 0x20 DUP5 ADD PUSH2 0xA440 JUMP JUMPDEST PUSH1 0x20 DUP3 ADD MSTORE PUSH2 0xAA4F DUP4 PUSH1 0x40 DUP5 ADD PUSH2 0xAB59 JUMP JUMPDEST PUSH1 0x40 DUP3 ADD MSTORE PUSH2 0xAA61 DUP4 PUSH1 0x60 DUP5 ADD PUSH2 0xAB59 JUMP JUMPDEST PUSH1 0x60 DUP3 ADD MSTORE PUSH2 0xAA73 DUP4 PUSH1 0x80 DUP5 ADD PUSH2 0xAB59 JUMP JUMPDEST PUSH1 0x80 DUP3 ADD MSTORE PUSH2 0xAA85 DUP4 PUSH1 0xA0 DUP5 ADD PUSH2 0xA440 JUMP JUMPDEST PUSH1 0xA0 DUP3 ADD MSTORE PUSH2 0xAA97 DUP4 PUSH1 0xC0 DUP5 ADD PUSH2 0xA440 JUMP JUMPDEST PUSH1 0xC0 DUP3 ADD MSTORE PUSH2 0xAAA9 DUP4 PUSH1 0xE0 DUP5 ADD PUSH2 0xA440 JUMP JUMPDEST PUSH1 0xE0 DUP3 ADD MSTORE PUSH2 0x100 PUSH2 0xAABD DUP5 DUP3 DUP6 ADD PUSH2 0xA440 JUMP JUMPDEST DUP2 DUP4 ADD MSTORE POP PUSH2 0x120 DUP1 DUP4 ADD CALLDATALOAD DUP2 DUP4 ADD MSTORE POP PUSH2 0x140 PUSH2 0xAADD DUP5 DUP3 DUP6 ADD PUSH2 0xAB83 JUMP JUMPDEST DUP2 DUP4 ADD MSTORE POP PUSH2 0x160 DUP1 DUP4 ADD CALLDATALOAD DUP2 DUP4 ADD MSTORE POP SWAP3 SWAP2 POP POP JUMP JUMPDEST PUSH1 0x0 PUSH1 0x80 DUP3 DUP5 SUB SLT ISZERO PUSH2 0xAB05 JUMPI DUP1 DUP2 REVERT JUMPDEST PUSH2 0xAB0F PUSH1 0x80 PUSH2 0xCCD5 JUMP JUMPDEST SWAP1 POP DUP2 CALLDATALOAD PUSH1 0x4 DUP2 LT PUSH2 0xAB20 JUMPI PUSH1 0x0 DUP1 REVERT JUMPDEST DUP1 DUP3 MSTORE POP PUSH1 0x20 DUP3 ADD CALLDATALOAD PUSH1 0xFF DUP2 AND DUP2 EQ PUSH2 0xAB38 JUMPI PUSH1 0x0 DUP1 REVERT JUMPDEST DUP1 PUSH1 0x20 DUP4 ADD MSTORE POP PUSH1 0x40 DUP3 ADD CALLDATALOAD PUSH1 0x40 DUP3 ADD MSTORE PUSH1 0x60 DUP3 ADD CALLDATALOAD PUSH1 0x60 DUP3 ADD MSTORE SWAP3 SWAP2 POP POP JUMP JUMPDEST PUSH1 0x0 DUP2 CALLDATALOAD SWAP1 POP PUSH16 0xFFFFFFFFFFFFFFFFFFFFFFFFFFFFFFFF DUP2 AND DUP2 EQ PUSH2 0xAB7D JUMPI PUSH1 0x0 DUP1 REVERT JUMPDEST SWAP3 SWAP2 POP POP JUMP JUMPDEST PUSH1 0x0 DUP2 CALLDATALOAD SWAP1 POP PUSH8 0xFFFFFFFFFFFFFFFF DUP2 AND DUP2 EQ PUSH2 0xAB9F JUMPI PUSH1 0x0 DUP1 REVERT JUMPDEST SWAP3 SWAP2 POP POP JUMP JUMPDEST PUSH1 0x0 PUSH1 0x20 DUP3 DUP5 SUB SLT ISZERO PUSH2 0xABB6 JUMPI DUP1 DUP2 REVERT JUMPDEST DUP2 CALLDATALOAD PUSH2 0xABC1 DUP2 PUSH2 0xCDAB JUMP JUMPDEST DUP1 SWAP2 POP POP SWAP3 SWAP2 POP POP JUMP JUMPDEST PUSH1 0x0 PUSH1 0x20 DUP3 DUP5 SUB SLT ISZERO PUSH2 0xABDC JUMPI DUP1 DUP2 REVERT JUMPDEST DUP2 MLOAD PUSH2 0xABE7 DUP2 PUSH2 0xCDAB JUMP JUMPDEST DUP1 SWAP2 POP POP SWAP3 SWAP2 POP POP JUMP JUMPDEST PUSH1 0x0 PUSH1 0x20 DUP3 DUP5 SUB SLT ISZERO PUSH2 0xAC02 JUMPI DUP1 DUP2 REVERT JUMPDEST DUP2 MLOAD PUSH2 0xAC0D DUP2 PUSH2 0xCDAB JUMP JUMPDEST DUP1 SWAP2 POP POP SWAP3 SWAP2 POP POP JUMP JUMPDEST PUSH1 0x0 DUP1 PUSH1 0x40 DUP4 DUP6 SUB SLT ISZERO PUSH2 0xAC29 JUMPI DUP1 DUP2 REVERT JUMPDEST DUP3 MLOAD PUSH2 0xAC34 DUP2 PUSH2 0xCDAB JUMP JUMPDEST DUP1 SWAP3 POP POP PUSH1 0x20 DUP4 ADD MLOAD PUSH2 0xAC46 DUP2 PUSH2 0xCDAB JUMP JUMPDEST DUP1 SWAP2 POP POP SWAP3 POP SWAP3 SWAP1 POP JUMP JUMPDEST PUSH1 0x0 DUP1 PUSH1 0x0 DUP1 PUSH1 0x80 DUP6 DUP8 SUB SLT ISZERO PUSH2 0xAC66 JUMPI DUP2 DUP3 REVERT JUMPDEST DUP5 MLOAD PUSH2 0xAC71 DUP2 PUSH2 0xCDAB JUMP JUMPDEST DUP1 SWAP5 POP POP PUSH1 0x20 DUP6 ADD MLOAD PUSH2 0xAC83 DUP2 PUSH2 0xCDAB JUMP JUMPDEST DUP1 SWAP4 POP POP PUSH1 0x40 DUP6 ADD MLOAD PUSH2 0xAC95 DUP2 PUSH2 0xCDAB JUMP JUMPDEST DUP1 SWAP3 POP POP PUSH1 0x60 DUP6 ADD MLOAD PUSH2 0xACA7 DUP2 PUSH2 0xCDAB JUMP JUMPDEST DUP1 SWAP2 POP POP SWAP3 SWAP6 SWAP2 SWAP5 POP SWAP3 POP JUMP JUMPDEST PUSH1 0x0 DUP1 PUSH1 0x0 PUSH1 0x60 DUP5 DUP7 SUB SLT ISZERO PUSH2 0xACC8 JUMPI DUP1 DUP2 REVERT JUMPDEST DUP4 MLOAD PUSH2 0xACD3 DUP2 PUSH2 0xCDAB JUMP JUMPDEST DUP1 SWAP4 POP POP PUSH1 0x20 DUP5 ADD MLOAD PUSH2 0xACE5 DUP2 PUSH2 0xCDAB JUMP JUMPDEST DUP1 SWAP3 POP POP PUSH1 0x40 DUP5 ADD MLOAD DUP1 ISZERO ISZERO DUP2 EQ PUSH2 0xACFB JUMPI DUP2 DUP3 REVERT JUMPDEST DUP1 SWAP2 POP POP SWAP3 POP SWAP3 POP SWAP3 JUMP JUMPDEST PUSH1 0x0 DUP1 PUSH1 0x40 DUP4 DUP6 SUB SLT ISZERO PUSH2 0xAD18 JUMPI DUP2 DUP3 REVERT JUMPDEST DUP3 MLOAD PUSH2 0xAD23 DUP2 PUSH2 0xCDAB JUMP JUMPDEST DUP1 SWAP3 POP POP PUSH1 0x20 DUP4 ADD MLOAD PUSH8 0xFFFFFFFFFFFFFFFF DUP1 DUP3 GT ISZERO PUSH2 0xAD41 JUMPI DUP3 DUP4 REVERT JUMPDEST DUP2 DUP6 ADD SWAP2 POP PUSH1 0xA0 DUP3 DUP8 SUB SLT ISZERO PUSH2 0xAD55 JUMPI DUP3 DUP4 REVERT JUMPDEST PUSH2 0xAD5F PUSH1 0xA0 PUSH2 0xCCD5 JUMP JUMPDEST DUP3 MLOAD DUP2 MSTORE PUSH2 0xAD70 DUP8 PUSH1 0x20 DUP6 ADD PUSH2 0xA455 JUMP JUMPDEST PUSH1 0x20 DUP3 ADD MSTORE PUSH2 0xAD82 DUP8 PUSH1 0x40 DUP6 ADD PUSH2 0xA455 JUMP JUMPDEST PUSH1 0x40 DUP3 ADD MSTORE PUSH2 0xAD94 DUP8 PUSH1 0x60 DUP6 ADD PUSH2 0xA455 JUMP JUMPDEST PUSH1 0x60 DUP3 ADD MSTORE PUSH1 0x80 DUP4 ADD MLOAD DUP3 DUP2 GT ISZERO PUSH2 0xADAA JUMPI DUP5 DUP6 REVERT JUMPDEST PUSH2 0xADB6 DUP9 DUP3 DUP7 ADD PUSH2 0xA850 JUMP JUMPDEST PUSH1 0x80 DUP4 ADD MSTORE POP DUP1 SWAP4 POP POP POP POP SWAP3 POP SWAP3 SWAP1 POP JUMP JUMPDEST PUSH1 0x0 DUP1 PUSH1 0x0 DUP1 PUSH1 0x0 PUSH1 0xA0 DUP7 DUP9 SUB SLT ISZERO PUSH2 0xADE0 JUMPI DUP3 DUP4 REVERT JUMPDEST DUP6 CALLDATALOAD PUSH2 0xADEB DUP2 PUSH2 0xCDAB JUMP JUMPDEST DUP1 SWAP6 POP POP PUSH1 0x20 DUP7 ADD CALLDATALOAD PUSH2 0xADFD DUP2 PUSH2 0xCDAB JUMP JUMPDEST DUP1 SWAP5 POP POP PUSH1 0x40 DUP7 ADD CALLDATALOAD PUSH2 0xAE0F DUP2 PUSH2 0xCDAB JUMP JUMPDEST DUP1 SWAP4 POP POP PUSH1 0x60 DUP7 ADD CALLDATALOAD PUSH2 0xAE21 DUP2 PUSH2 0xCDAB JUMP JUMPDEST DUP1 SWAP3 POP POP PUSH1 0x80 DUP7 ADD CALLDATALOAD PUSH8 0xFFFFFFFFFFFFFFFF DUP2 GT ISZERO PUSH2 0xAE3E JUMPI DUP2 DUP3 REVERT JUMPDEST PUSH2 0xAE4A DUP9 DUP3 DUP10 ADD PUSH2 0xA712 JUMP JUMPDEST SWAP2 POP POP SWAP3 SWAP6 POP SWAP3 SWAP6 SWAP1 SWAP4 POP JUMP JUMPDEST PUSH1 0x0 DUP1 PUSH1 0x0 DUP1 PUSH1 0x80 DUP6 DUP8 SUB SLT ISZERO PUSH2 0xAE6C JUMPI DUP2 DUP3 REVERT JUMPDEST DUP5 CALLDATALOAD PUSH2 0xAE77 DUP2 PUSH2 0xCDAB JUMP JUMPDEST DUP1 SWAP5 POP POP PUSH1 0x20 DUP6 ADD CALLDATALOAD PUSH2 0xAE89 DUP2 PUSH2 0xCDAB JUMP JUMPDEST DUP1 SWAP4 POP POP PUSH1 0x40 DUP6 ADD CALLDATALOAD PUSH2 0xAE9B DUP2 PUSH2 0xCDAB JUMP JUMPDEST DUP1 SWAP3 POP POP PUSH1 0x60 DUP6 ADD CALLDATALOAD PUSH8 0xFFFFFFFFFFFFFFFF DUP2 GT ISZERO PUSH2 0xAEB8 JUMPI DUP2 DUP3 REVERT JUMPDEST PUSH2 0xAEC4 DUP8 DUP3 DUP9 ADD PUSH2 0xA712 JUMP JUMPDEST SWAP2 POP POP SWAP3 SWAP6 SWAP2 SWAP5 POP SWAP3 POP JUMP JUMPDEST PUSH1 0x0 DUP1 PUSH1 0x0 DUP1 PUSH1 0x80 DUP6 DUP8 SUB SLT ISZERO PUSH2 0xAEE5 JUMPI DUP2 DUP3 REVERT JUMPDEST DUP5 CALLDATALOAD PUSH2 0xAEF0 DUP2 PUSH2 0xCDAB JUMP JUMPDEST DUP1 SWAP5 POP POP PUSH1 0x20 DUP6 ADD CALLDATALOAD PUSH2 0xAF02 DUP2 PUSH2 0xCDAB JUMP JUMPDEST DUP1 SWAP4 POP POP PUSH1 0x40 DUP6 ADD CALLDATALOAD PUSH2 0xAF14 DUP2 PUSH2 0xCDAB JUMP JUMPDEST DUP1 SWAP3 POP POP PUSH1 0x60 DUP6 ADD CALLDATALOAD SWAP1 POP SWAP3 SWAP6 SWAP2 SWAP5 POP SWAP3 POP JUMP JUMPDEST PUSH1 0x0 DUP1 PUSH1 0x0 PUSH1 0x60 DUP5 DUP7 SUB SLT ISZERO PUSH2 0xAF3C JUMPI DUP1 DUP2 REVERT JUMPDEST DUP4 CALLDATALOAD PUSH2 0xAF47 DUP2 PUSH2 0xCDAB JUMP JUMPDEST DUP1 SWAP4 POP POP PUSH1 0x20 DUP5 ADD CALLDATALOAD PUSH8 0xFFFFFFFFFFFFFFFF DUP1 DUP3 GT ISZERO PUSH2 0xAF65 JUMPI DUP3 DUP4 REVERT JUMPDEST PUSH2 0xAF71 DUP8 DUP4 DUP9 ADD PUSH2 0xA4B4 JUMP JUMPDEST SWAP4 POP PUSH1 0x40 DUP7 ADD CALLDATALOAD SWAP2 POP DUP1 DUP3 GT ISZERO PUSH2 0xAF86 JUMPI DUP3 DUP4 REVERT JUMPDEST POP PUSH2 0xAF93 DUP7 DUP3 DUP8 ADD PUSH2 0xA712 JUMP JUMPDEST SWAP2 POP POP SWAP3 POP SWAP3 POP SWAP3 JUMP JUMPDEST PUSH1 0x0 DUP1 PUSH1 0x0 DUP1 PUSH1 0x0 PUSH1 0xA0 DUP7 DUP9 SUB SLT ISZERO PUSH2 0xAFB4 JUMPI DUP3 DUP4 REVERT JUMPDEST DUP6 CALLDATALOAD PUSH2 0xAFBF DUP2 PUSH2 0xCDAB JUMP JUMPDEST DUP1 SWAP6 POP POP PUSH1 0x20 DUP7 ADD CALLDATALOAD SWAP4 POP PUSH1 0x40 DUP7 ADD CALLDATALOAD PUSH2 0xAFD8 DUP2 PUSH2 0xCDAB JUMP JUMPDEST DUP1 SWAP4 POP POP PUSH1 0x60 DUP7 ADD CALLDATALOAD PUSH2 0xAFEA DUP2 PUSH2 0xCDAB JUMP JUMPDEST DUP1 SWAP3 POP POP PUSH1 0x80 DUP7 ADD CALLDATALOAD PUSH8 0xFFFFFFFFFFFFFFFF DUP2 GT ISZERO PUSH2 0xB007 JUMPI DUP2 DUP3 REVERT JUMPDEST PUSH2 0xB013 DUP9 DUP3 DUP10 ADD PUSH2 0xA712 JUMP JUMPDEST SWAP2 POP POP SWAP3 SWAP6 POP SWAP3 SWAP6 SWAP1 SWAP4 POP JUMP JUMPDEST PUSH1 0x0 DUP1 PUSH1 0x20 DUP4 DUP6 SUB SLT ISZERO PUSH2 0xB032 JUMPI DUP2 DUP3 REVERT JUMPDEST DUP3 CALLDATALOAD PUSH8 0xFFFFFFFFFFFFFFFF DUP2 GT ISZERO PUSH2 0xB048 JUMPI DUP3 DUP4 REVERT JUMPDEST PUSH2 0xB054 DUP6 DUP3 DUP7 ADD PUSH2 0xA46A JUMP JUMPDEST SWAP2 POP DUP1 SWAP4 POP POP DUP1 SWAP2 POP POP SWAP3 POP SWAP3 SWAP1 POP JUMP JUMPDEST PUSH1 0x0 PUSH1 0x20 DUP1 DUP4 DUP6 SUB SLT ISZERO PUSH2 0xB077 JUMPI DUP2 DUP3 REVERT JUMPDEST DUP3 MLOAD PUSH8 0xFFFFFFFFFFFFFFFF DUP2 GT ISZERO PUSH2 0xB08D JUMPI DUP3 DUP4 REVERT JUMPDEST DUP1 DUP5 ADD SWAP1 POP DUP5 PUSH1 0x1F DUP3 ADD SLT PUSH2 0xB0A0 JUMPI DUP3 DUP4 REVERT JUMPDEST DUP1 MLOAD PUSH2 0xB0B3 PUSH2 0xB0AE DUP3 PUSH2 0xCD02 JUMP JUMPDEST PUSH2 0xCCD5 JUMP JUMPDEST DUP1 DUP3 DUP3 MSTORE DUP5 DUP3 ADD SWAP2 POP DUP5 DUP5 ADD DUP9 DUP7 DUP8 DUP7 MUL DUP8 ADD ADD GT ISZERO PUSH2 0xB0D1 JUMPI DUP7 DUP8 REVERT JUMPDEST DUP7 SWAP5 POP JUMPDEST DUP4 DUP6 LT ISZERO PUSH2 0xB101 JUMPI DUP1 MLOAD PUSH2 0xB0E8 DUP2 PUSH2 0xCDAB JUMP JUMPDEST DUP1 DUP5 MSTORE POP DUP6 DUP4 ADD SWAP3 POP DUP6 DUP2 ADD SWAP1 POP PUSH1 0x1 DUP6 ADD SWAP5 POP PUSH2 0xB0D5 JUMP JUMPDEST POP DUP1 SWAP6 POP POP POP POP POP POP SWAP3 SWAP2 POP POP JUMP JUMPDEST PUSH1 0x0 DUP1 PUSH1 0x0 PUSH1 0x60 DUP5 DUP7 SUB SLT ISZERO PUSH2 0xB124 JUMPI DUP1 DUP2 REVERT JUMPDEST DUP4 MLOAD PUSH8 0xFFFFFFFFFFFFFFFF DUP1 DUP3 GT ISZERO PUSH2 0xB13B JUMPI DUP3 DUP4 REVERT JUMPDEST DUP2 DUP7 ADD SWAP2 POP DUP7 PUSH1 0x1F DUP4 ADD SLT PUSH2 0xB14E JUMPI DUP3 DUP4 REVERT JUMPDEST DUP2 MLOAD PUSH2 0xB161 PUSH2 0xB15C DUP3 PUSH2 0xCD02 JUMP JUMPDEST PUSH2 0xCCD5 JUMP JUMPDEST DUP1 DUP3 DUP3 MSTORE PUSH1 0x20 DUP1 DUP4 ADD SWAP3 POP DUP1 DUP7 ADD DUP12 DUP3 DUP4 DUP8 MUL DUP10 ADD ADD GT ISZERO PUSH2 0xB181 JUMPI DUP8 DUP9 REVERT JUMPDEST DUP8 SWAP7 POP JUMPDEST DUP5 DUP8 LT ISZERO PUSH2 0xB1A6 JUMPI DUP1 MLOAD DUP5 MSTORE DUP2 DUP5 ADD SWAP4 POP DUP2 DUP2 ADD SWAP1 POP PUSH1 0x1 DUP8 ADD SWAP7 POP PUSH2 0xB185 JUMP JUMPDEST POP DUP2 SWAP9 POP DUP1 DUP11 ADD MLOAD SWAP6 POP POP POP POP POP DUP1 DUP3 GT ISZERO PUSH2 0xB1C0 JUMPI DUP3 DUP4 REVERT JUMPDEST POP PUSH2 0xB1CD DUP7 DUP3 DUP8 ADD PUSH2 0xA787 JUMP JUMPDEST SWAP3 POP POP PUSH2 0xB1DD DUP6 PUSH1 0x40 DUP7 ADD PUSH2 0xA8A2 JUMP JUMPDEST SWAP1 POP SWAP3 POP SWAP3 POP SWAP3 JUMP JUMPDEST PUSH1 0x0 DUP1 PUSH1 0x20 DUP4 DUP6 SUB SLT ISZERO PUSH2 0xB1F8 JUMPI DUP2 DUP3 REVERT JUMPDEST DUP3 CALLDATALOAD PUSH8 0xFFFFFFFFFFFFFFFF DUP2 GT ISZERO PUSH2 0xB20E JUMPI DUP3 DUP4 REVERT JUMPDEST PUSH2 0xB21A DUP6 DUP3 DUP7 ADD PUSH2 0xA46A JUMP JUMPDEST SWAP2 POP DUP1 SWAP4 POP POP DUP1 SWAP2 POP POP SWAP3 POP SWAP3 SWAP1 POP JUMP JUMPDEST PUSH1 0x0 DUP1 PUSH1 0x0 PUSH1 0x60 DUP5 DUP7 SUB SLT ISZERO PUSH2 0xB23F JUMPI DUP1 DUP2 REVERT JUMPDEST DUP4 CALLDATALOAD PUSH8 0xFFFFFFFFFFFFFFFF DUP1 DUP3 GT ISZERO PUSH2 0xB256 JUMPI DUP3 DUP4 REVERT JUMPDEST PUSH2 0xB262 DUP8 DUP4 DUP9 ADD PUSH2 0xA5A3 JUMP JUMPDEST SWAP5 POP PUSH1 0x20 DUP7 ADD CALLDATALOAD SWAP2 POP DUP1 DUP3 GT ISZERO PUSH2 0xB277 JUMPI DUP3 DUP4 REVERT JUMPDEST POP PUSH2 0xB284 DUP7 DUP3 DUP8 ADD PUSH2 0xA5A3 JUMP JUMPDEST SWAP3 POP POP PUSH1 0x40 DUP5 ADD CALLDATALOAD SWAP1 POP SWAP3 POP SWAP3 POP SWAP3 JUMP JUMPDEST PUSH1 0x0 PUSH1 0x20 DUP3 DUP5 SUB SLT ISZERO PUSH2 0xB2A6 JUMPI DUP1 DUP2 REVERT JUMPDEST DUP2 CALLDATALOAD PUSH8 0xFFFFFFFFFFFFFFFF DUP2 GT ISZERO PUSH2 0xB2BC JUMPI DUP2 DUP3 REVERT JUMPDEST PUSH2 0xB2C8 DUP5 DUP3 DUP6 ADD PUSH2 0xA612 JUMP JUMPDEST SWAP2 POP POP SWAP3 SWAP2 POP POP JUMP JUMPDEST PUSH1 0x0 DUP1 PUSH1 0x40 DUP4 DUP6 SUB SLT ISZERO PUSH2 0xB2E3 JUMPI DUP2 DUP3 REVERT JUMPDEST DUP3 CALLDATALOAD PUSH8 0xFFFFFFFFFFFFFFFF DUP2 GT ISZERO PUSH2 0xB2F9 JUMPI DUP3 DUP4 REVERT JUMPDEST PUSH2 0xB305 DUP6 DUP3 DUP7 ADD PUSH2 0xA612 JUMP JUMPDEST SWAP3 POP POP PUSH1 0x20 DUP4 ADD CALLDATALOAD PUSH2 0xB316 DUP2 PUSH2 0xCDAB JUMP JUMPDEST DUP1 SWAP2 POP POP SWAP3 POP SWAP3 SWAP1 POP JUMP JUMPDEST PUSH1 0x0 DUP1 PUSH1 0x0 PUSH1 0x60 DUP5 DUP7 SUB SLT ISZERO PUSH2 0xB335 JUMPI DUP1 DUP2 REVERT JUMPDEST DUP4 CALLDATALOAD PUSH8 0xFFFFFFFFFFFFFFFF DUP2 GT ISZERO PUSH2 0xB34B JUMPI DUP2 DUP3 REVERT JUMPDEST PUSH2 0xB357 DUP7 DUP3 DUP8 ADD PUSH2 0xA612 JUMP JUMPDEST SWAP4 POP POP PUSH1 0x20 DUP5 ADD CALLDATALOAD PUSH2 0xB368 DUP2 PUSH2 0xCDAB JUMP JUMPDEST DUP1 SWAP3 POP POP PUSH1 0x40 DUP5 ADD CALLDATALOAD PUSH2 0xB37A DUP2 PUSH2 0xCDAB JUMP JUMPDEST DUP1 SWAP2 POP POP SWAP3 POP SWAP3 POP SWAP3 JUMP JUMPDEST PUSH1 0x0 PUSH1 0x20 DUP1 DUP4 DUP6 SUB SLT ISZERO PUSH2 0xB397 JUMPI DUP2 DUP3 REVERT JUMPDEST DUP3 MLOAD PUSH8 0xFFFFFFFFFFFFFFFF DUP2 GT ISZERO PUSH2 0xB3AD JUMPI DUP3 DUP4 REVERT JUMPDEST DUP1 DUP5 ADD SWAP1 POP DUP5 PUSH1 0x1F DUP3 ADD SLT PUSH2 0xB3C0 JUMPI DUP3 DUP4 REVERT JUMPDEST DUP1 MLOAD PUSH2 0xB3D3 PUSH2 0xB3CE DUP3 PUSH2 0xCD02 JUMP JUMPDEST PUSH2 0xCCD5 JUMP JUMPDEST DUP1 DUP3 DUP3 MSTORE DUP5 DUP3 ADD SWAP2 POP DUP5 DUP5 ADD DUP9 DUP7 DUP8 DUP7 MUL DUP8 ADD ADD GT ISZERO PUSH2 0xB3F1 JUMPI DUP7 DUP8 REVERT JUMPDEST DUP7 SWAP5 POP JUMPDEST DUP4 DUP6 LT ISZERO PUSH2 0xB416 JUMPI DUP1 MLOAD DUP4 MSTORE DUP6 DUP4 ADD SWAP3 POP DUP6 DUP2 ADD SWAP1 POP PUSH1 0x1 DUP6 ADD SWAP5 POP PUSH2 0xB3F5 JUMP JUMPDEST POP DUP1 SWAP6 POP POP POP POP POP POP SWAP3 SWAP2 POP POP JUMP JUMPDEST PUSH1 0x0 DUP1 PUSH1 0x0 PUSH1 0x60 DUP5 DUP7 SUB SLT ISZERO PUSH2 0xB439 JUMPI DUP1 DUP2 REVERT JUMPDEST DUP4 CALLDATALOAD PUSH8 0xFFFFFFFFFFFFFFFF DUP1 DUP3 GT ISZERO PUSH2 0xB450 JUMPI DUP3 DUP4 REVERT JUMPDEST DUP2 DUP7 ADD SWAP2 POP DUP7 PUSH1 0x1F DUP4 ADD SLT PUSH2 0xB463 JUMPI DUP3 DUP4 REVERT JUMPDEST DUP2 CALLDATALOAD PUSH2 0xB476 PUSH2 0xB471 DUP3 PUSH2 0xCD02 JUMP JUMPDEST PUSH2 0xCCD5 JUMP JUMPDEST DUP1 DUP3 DUP3 MSTORE PUSH1 0x20 DUP1 DUP4 ADD SWAP3 POP DUP1 DUP7 ADD PUSH2 0x180 DUP13 DUP4 DUP3 DUP9 MUL DUP11 ADD ADD GT ISZERO PUSH2 0xB499 JUMPI DUP9 DUP10 REVERT JUMPDEST DUP9 SWAP8 POP JUMPDEST DUP6 DUP9 LT ISZERO PUSH2 0xB4C6 JUMPI PUSH2 0xB4AF DUP14 DUP4 PUSH2 0xAA05 JUMP JUMPDEST DUP6 MSTORE DUP3 DUP6 ADD SWAP5 POP DUP1 DUP3 ADD SWAP2 POP PUSH1 0x1 DUP9 ADD SWAP8 POP PUSH2 0xB49D JUMP JUMPDEST POP POP DUP2 SWAP9 POP DUP1 DUP11 ADD CALLDATALOAD SWAP6 POP POP POP POP POP DUP1 DUP3 GT ISZERO PUSH2 0xB4E1 JUMPI DUP3 DUP4 REVERT JUMPDEST POP PUSH2 0xB4EE DUP7 DUP3 DUP8 ADD PUSH2 0xA692 JUMP JUMPDEST SWAP3 POP POP PUSH2 0xB4FE DUP6 PUSH1 0x40 DUP7 ADD PUSH2 0xA440 JUMP JUMPDEST SWAP1 POP SWAP3 POP SWAP3 POP SWAP3 JUMP JUMPDEST PUSH1 0x0 PUSH1 0x20 DUP3 DUP5 SUB SLT ISZERO PUSH2 0xB518 JUMPI DUP1 DUP2 REVERT JUMPDEST DUP2 MLOAD PUSH8 0xFFFFFFFFFFFFFFFF DUP2 GT ISZERO PUSH2 0xB52E JUMPI DUP2 DUP3 REVERT JUMPDEST PUSH2 0xB53A DUP5 DUP3 DUP6 ADD PUSH2 0xA787 JUMP JUMPDEST SWAP2 POP POP SWAP3 SWAP2 POP POP JUMP JUMPDEST PUSH1 0x0 PUSH1 0x20 DUP3 DUP5 SUB SLT ISZERO PUSH2 0xB554 JUMPI DUP1 DUP2 REVERT JUMPDEST DUP2 MLOAD PUSH2 0xB55F DUP2 PUSH2 0xCDC2 JUMP JUMPDEST DUP1 SWAP2 POP POP SWAP3 SWAP2 POP POP JUMP JUMPDEST PUSH1 0x0 DUP1 PUSH1 0x0 PUSH1 0x60 DUP5 DUP7 SUB SLT ISZERO PUSH2 0xB57D JUMPI DUP1 DUP2 REVERT JUMPDEST DUP4 MLOAD PUSH2 0xB588 DUP2 PUSH2 0xCDC2 JUMP JUMPDEST DUP1 SWAP4 POP POP PUSH1 0x20 DUP5 ADD MLOAD PUSH8 0xFFFFFFFFFFFFFFFF DUP2 GT ISZERO PUSH2 0xB5A5 JUMPI DUP2 DUP3 REVERT JUMPDEST PUSH2 0xB5B1 DUP7 DUP3 DUP8 ADD PUSH2 0xA850 JUMP JUMPDEST SWAP3 POP POP PUSH1 0x40 DUP5 ADD MLOAD SWAP1 POP SWAP3 POP SWAP3 POP SWAP3 JUMP JUMPDEST PUSH1 0x0 PUSH1 0x20 DUP3 DUP5 SUB SLT ISZERO PUSH2 0xB5D3 JUMPI DUP1 DUP2 REVERT JUMPDEST DUP2 MLOAD SWAP1 POP SWAP3 SWAP2 POP POP JUMP JUMPDEST PUSH1 0x0 PUSH1 0x20 DUP3 DUP5 SUB SLT ISZERO PUSH2 0xB5EE JUMPI DUP1 DUP2 REVERT JUMPDEST DUP2 MLOAD PUSH8 0xFFFFFFFFFFFFFFFF DUP2 GT ISZERO PUSH2 0xB604 JUMPI DUP2 DUP3 REVERT JUMPDEST PUSH2 0xB610 DUP5 DUP3 DUP6 ADD PUSH2 0xA850 JUMP JUMPDEST SWAP2 POP POP SWAP3 SWAP2 POP POP JUMP JUMPDEST PUSH1 0x0 PUSH1 0x20 DUP3 DUP5 SUB SLT ISZERO PUSH2 0xB62A JUMPI DUP1 DUP2 REVERT JUMPDEST DUP2 MLOAD PUSH2 0xB635 DUP2 PUSH2 0xCDAB JUMP JUMPDEST DUP1 SWAP2 POP POP SWAP3 SWAP2 POP POP JUMP JUMPDEST PUSH1 0x0 PUSH1 0x20 DUP3 DUP5 SUB SLT ISZERO PUSH2 0xB650 JUMPI DUP1 DUP2 REVERT JUMPDEST DUP2 MLOAD PUSH2 0xB65B DUP2 PUSH2 0xCDAB JUMP JUMPDEST DUP1 SWAP2 POP POP SWAP3 SWAP2 POP POP JUMP JUMPDEST PUSH1 0x0 PUSH1 0x20 DUP3 DUP5 SUB SLT ISZERO PUSH2 0xB676 JUMPI DUP1 DUP2 REVERT JUMPDEST DUP2 MLOAD PUSH2 0xB681 DUP2 PUSH2 0xCDAB JUMP JUMPDEST DUP1 SWAP2 POP POP SWAP3 SWAP2 POP POP JUMP JUMPDEST PUSH1 0x0 DUP1 PUSH1 0x0 PUSH1 0x60 DUP5 DUP7 SUB SLT ISZERO PUSH2 0xB69F JUMPI DUP1 DUP2 REVERT JUMPDEST DUP4 CALLDATALOAD PUSH2 0xB6AA DUP2 PUSH2 0xCDAB JUMP JUMPDEST DUP1 SWAP4 POP POP PUSH1 0x20 DUP5 ADD CALLDATALOAD PUSH8 0xFFFFFFFFFFFFFFFF DUP1 DUP3 GT ISZERO PUSH2 0xB6C8 JUMPI DUP3 DUP4 REVERT JUMPDEST PUSH2 0xB6D4 DUP8 DUP4 DUP9 ADD PUSH2 0xA612 JUMP JUMPDEST SWAP4 POP PUSH1 0x40 DUP7 ADD CALLDATALOAD SWAP2 POP DUP1 DUP3 GT ISZERO PUSH2 0xB6E9 JUMPI DUP3 DUP4 REVERT JUMPDEST POP PUSH2 0xB6F6 DUP7 DUP3 DUP8 ADD PUSH2 0xA712 JUMP JUMPDEST SWAP2 POP POP SWAP3 POP SWAP3 POP SWAP3 JUMP JUMPDEST PUSH1 0x0 PUSH1 0x20 DUP3 DUP5 SUB SLT ISZERO PUSH2 0xB711 JUMPI DUP1 DUP2 REVERT JUMPDEST DUP2 MLOAD PUSH2 0xB71C DUP2 PUSH2 0xCDEB JUMP JUMPDEST DUP1 SWAP2 POP POP SWAP3 SWAP2 POP POP JUMP JUMPDEST PUSH1 0x0 DUP1 PUSH1 0x80 DUP4 DUP6 SUB SLT ISZERO PUSH2 0xB738 JUMPI DUP2 DUP3 REVERT JUMPDEST DUP3 MLOAD PUSH2 0xB743 DUP2 PUSH2 0xCDEB JUMP JUMPDEST DUP1 SWAP3 POP POP PUSH2 0xB754 DUP5 PUSH1 0x20 DUP6 ADD PUSH2 0xA917 JUMP JUMPDEST SWAP1 POP SWAP3 POP SWAP3 SWAP1 POP JUMP JUMPDEST PUSH1 0x0 DUP1 PUSH1 0x80 DUP4 DUP6 SUB SLT ISZERO PUSH2 0xB76F JUMPI DUP2 DUP3 REVERT JUMPDEST DUP3 MLOAD PUSH2 0xB77A DUP2 PUSH2 0xCDEB JUMP JUMPDEST DUP1 SWAP3 POP POP PUSH2 0xB78B DUP5 PUSH1 0x20 DUP6 ADD PUSH2 0xA917 JUMP JUMPDEST SWAP1 POP SWAP3 POP SWAP3 SWAP1 POP JUMP JUMPDEST PUSH1 0x0 DUP1 PUSH1 0x0 DUP1 DUP5 DUP7 SUB PUSH1 0xA0 DUP2 SLT ISZERO PUSH2 0xB7AA JUMPI DUP3 DUP4 REVERT JUMPDEST PUSH1 0x40 DUP2 SLT ISZERO PUSH2 0xB7B7 JUMPI DUP3 DUP4 REVERT JUMPDEST POP PUSH2 0xB7C2 PUSH1 0x40 PUSH2 0xCCD5 JUMP JUMPDEST DUP6 CALLDATALOAD DUP2 MSTORE PUSH1 0x20 DUP7 ADD CALLDATALOAD PUSH2 0xB7D4 DUP2 PUSH2 0xCDAB JUMP JUMPDEST DUP1 PUSH1 0x20 DUP4 ADD MSTORE POP DUP1 SWAP5 POP POP PUSH1 0x40 DUP6 ADD CALLDATALOAD PUSH2 0xB7ED DUP2 PUSH2 0xCDAB JUMP JUMPDEST DUP1 SWAP4 POP POP PUSH1 0x60 DUP6 ADD CALLDATALOAD PUSH2 0xB7FF DUP2 PUSH2 0xCDAB JUMP JUMPDEST DUP1 SWAP3 POP POP PUSH1 0x80 DUP6 ADD CALLDATALOAD PUSH8 0xFFFFFFFFFFFFFFFF DUP2 GT ISZERO PUSH2 0xB81C JUMPI DUP2 DUP3 REVERT JUMPDEST PUSH2 0xB828 DUP8 DUP3 DUP9 ADD PUSH2 0xA712 JUMP JUMPDEST SWAP2 POP POP SWAP3 SWAP6 SWAP2 SWAP5 POP SWAP3 POP JUMP JUMPDEST PUSH1 0x0 DUP1 PUSH1 0x0 DUP1 PUSH1 0x80 DUP6 DUP8 SUB SLT ISZERO PUSH2 0xB849 JUMPI DUP2 DUP3 REVERT JUMPDEST DUP5 CALLDATALOAD PUSH8 0xFFFFFFFFFFFFFFFF DUP1 DUP3 GT ISZERO PUSH2 0xB860 JUMPI DUP4 DUP5 REVERT JUMPDEST DUP2 DUP8 ADD SWAP2 POP PUSH1 0x40 DUP3 DUP10 SUB SLT ISZERO PUSH2 0xB874 JUMPI DUP4 DUP5 REVERT JUMPDEST PUSH2 0xB87E PUSH1 0x40 PUSH2 0xCCD5 JUMP JUMPDEST PUSH2 0xB888 DUP10 DUP5 PUSH2 0xA440 JUMP JUMPDEST DUP2 MSTORE PUSH1 0x20 DUP4 ADD CALLDATALOAD DUP3 DUP2 GT ISZERO PUSH2 0xB89B JUMPI DUP6 DUP7 REVERT JUMPDEST PUSH2 0xB8A7 DUP11 DUP3 DUP7 ADD PUSH2 0xA534 JUMP JUMPDEST PUSH1 0x20 DUP4 ADD MSTORE POP DUP1 SWAP7 POP POP PUSH2 0xB8BE DUP9 PUSH1 0x20 DUP10 ADD PUSH2 0xA440 JUMP JUMPDEST SWAP5 POP PUSH2 0xB8CD DUP9 PUSH1 0x40 DUP10 ADD PUSH2 0xA440 JUMP JUMPDEST SWAP4 POP PUSH1 0x60 DUP8 ADD CALLDATALOAD SWAP2 POP DUP1 DUP3 GT ISZERO PUSH2 0xB8E2 JUMPI DUP3 DUP4 REVERT JUMPDEST POP PUSH2 0xB8EF DUP8 DUP3 DUP9 ADD PUSH2 0xA712 JUMP JUMPDEST SWAP2 POP POP SWAP3 SWAP6 SWAP2 SWAP5 POP SWAP3 POP JUMP JUMPDEST PUSH1 0x0 DUP1 PUSH1 0x0 DUP1 PUSH1 0xC0 DUP6 DUP8 SUB SLT ISZERO PUSH2 0xB910 JUMPI DUP2 DUP3 REVERT JUMPDEST PUSH2 0xB91A DUP7 DUP7 PUSH2 0xA8BB JUMP JUMPDEST SWAP4 POP PUSH1 0x60 DUP6 ADD CALLDATALOAD PUSH2 0xB92A DUP2 PUSH2 0xCDEB JUMP JUMPDEST DUP1 SWAP4 POP POP PUSH1 0x80 DUP6 ADD CALLDATALOAD PUSH2 0xB93C DUP2 PUSH2 0xCDEB JUMP JUMPDEST DUP1 SWAP3 POP POP PUSH1 0xA0 DUP6 ADD CALLDATALOAD PUSH8 0xFFFFFFFFFFFFFFFF DUP2 GT ISZERO PUSH2 0xB959 JUMPI DUP2 DUP3 REVERT JUMPDEST PUSH2 0xB965 DUP8 DUP3 DUP9 ADD PUSH2 0xA712 JUMP JUMPDEST SWAP2 POP POP SWAP3 SWAP6 SWAP2 SWAP5 POP SWAP3 POP JUMP JUMPDEST PUSH1 0x0 DUP1 PUSH1 0x0 DUP1 DUP5 DUP7 SUB PUSH1 0xA0 DUP2 SLT ISZERO PUSH2 0xB987 JUMPI DUP3 DUP4 REVERT JUMPDEST PUSH1 0x40 DUP2 SLT ISZERO PUSH2 0xB994 JUMPI DUP3 DUP4 REVERT JUMPDEST POP PUSH2 0xB99F PUSH1 0x40 PUSH2 0xCCD5 JUMP JUMPDEST DUP6 CALLDATALOAD PUSH2 0xB9AA DUP2 PUSH2 0xCDAB JUMP JUMPDEST DUP1 DUP3 MSTORE POP PUSH1 0x20 DUP7 ADD CALLDATALOAD PUSH2 0xB9BC DUP2 PUSH2 0xCDAB JUMP JUMPDEST DUP1 PUSH1 0x20 DUP4 ADD MSTORE POP DUP1 SWAP5 POP POP PUSH1 0x40 DUP6 ADD CALLDATALOAD PUSH2 0xB9D5 DUP2 PUSH2 0xCDAB JUMP JUMPDEST DUP1 SWAP4 POP POP PUSH1 0x60 DUP6 ADD CALLDATALOAD PUSH2 0xB9E7 DUP2 PUSH2 0xCDAB JUMP JUMPDEST DUP1 SWAP3 POP POP PUSH1 0x80 DUP6 ADD CALLDATALOAD PUSH8 0xFFFFFFFFFFFFFFFF DUP2 GT ISZERO PUSH2 0xBA04 JUMPI DUP2 DUP3 REVERT JUMPDEST PUSH2 0xBA10 DUP8 DUP3 DUP9 ADD PUSH2 0xA712 JUMP JUMPDEST SWAP2 POP POP SWAP3 SWAP6 SWAP2 SWAP5 POP SWAP3 POP JUMP JUMPDEST PUSH1 0x0 DUP1 PUSH1 0x0 DUP1 PUSH1 0x80 DUP6 DUP8 SUB SLT ISZERO PUSH2 0xBA31 JUMPI DUP2 DUP3 REVERT JUMPDEST DUP5 CALLDATALOAD PUSH8 0xFFFFFFFFFFFFFFFF DUP1 DUP3 GT ISZERO PUSH2 0xBA48 JUMPI DUP4 DUP5 REVERT JUMPDEST PUSH2 0xBA54 DUP9 DUP4 DUP10 ADD PUSH2 0xA973 JUMP JUMPDEST SWAP6 POP PUSH1 0x20 DUP8 ADD CALLDATALOAD SWAP2 POP PUSH2 0xBA66 DUP3 PUSH2 0xCDAB JUMP JUMPDEST DUP2 SWAP5 POP PUSH1 0x40 DUP8 ADD CALLDATALOAD SWAP2 POP PUSH2 0xBA79 DUP3 PUSH2 0xCDAB JUMP JUMPDEST DUP2 SWAP4 POP PUSH1 0x60 DUP8 ADD CALLDATALOAD SWAP2 POP DUP1 DUP3 GT ISZERO PUSH2 0xBA8F JUMPI DUP3 DUP4 REVERT JUMPDEST POP PUSH2 0xBA9C DUP8 DUP3 DUP9 ADD PUSH2 0xA712 JUMP JUMPDEST SWAP2 POP POP SWAP3 SWAP6 SWAP2 SWAP5 POP SWAP3 POP JUMP JUMPDEST PUSH1 0x0 DUP1 PUSH1 0x0 DUP1 PUSH1 0x80 DUP6 DUP8 SUB SLT ISZERO PUSH2 0xBABD JUMPI DUP2 DUP3 REVERT JUMPDEST DUP5 CALLDATALOAD PUSH8 0xFFFFFFFFFFFFFFFF DUP2 GT ISZERO PUSH2 0xBAD3 JUMPI DUP3 DUP4 REVERT JUMPDEST PUSH2 0xBADF DUP8 DUP3 DUP9 ADD PUSH2 0xA973 JUMP JUMPDEST SWAP5 POP POP PUSH1 0x20 DUP6 ADD CALLDATALOAD PUSH2 0xBAF0 DUP2 PUSH2 0xCDAB JUMP JUMPDEST DUP1 SWAP4 POP POP PUSH1 0x40 DUP6 ADD CALLDATALOAD PUSH2 0xBB02 DUP2 PUSH2 0xCDAB JUMP JUMPDEST DUP1 SWAP3 POP POP PUSH1 0x60 DUP6 ADD CALLDATALOAD SWAP1 POP SWAP3 SWAP6 SWAP2 SWAP5 POP SWAP3 POP JUMP JUMPDEST PUSH1 0x0 DUP1 PUSH1 0x0 DUP1 PUSH1 0x80 DUP6 DUP8 SUB SLT ISZERO PUSH2 0xBB2B JUMPI DUP2 DUP3 REVERT JUMPDEST DUP5 CALLDATALOAD PUSH8 0xFFFFFFFFFFFFFFFF DUP2 GT ISZERO PUSH2 0xBB41 JUMPI DUP3 DUP4 REVERT JUMPDEST PUSH2 0xBB4D DUP8 DUP3 DUP9 ADD PUSH2 0xA973 JUMP JUMPDEST SWAP5 POP POP PUSH1 0x20 DUP6 ADD CALLDATALOAD SWAP3 POP PUSH1 0x40 DUP6 ADD CALLDATALOAD PUSH2 0xBB65 DUP2 PUSH2 0xCDAB JUMP JUMPDEST DUP1 SWAP3 POP POP PUSH1 0x60 DUP6 ADD CALLDATALOAD PUSH2 0xBB77 DUP2 PUSH2 0xCDAB JUMP JUMPDEST DUP1 SWAP2 POP POP SWAP3 SWAP6 SWAP2 SWAP5 POP SWAP3 POP JUMP JUMPDEST PUSH1 0x0 DUP1 PUSH1 0x0 PUSH2 0x220 DUP5 DUP7 SUB SLT ISZERO PUSH2 0xBB99 JUMPI DUP1 DUP2 REVERT JUMPDEST PUSH2 0xBBA3 DUP6 DUP6 PUSH2 0xAA05 JUMP JUMPDEST SWAP3 POP PUSH2 0xBBB3 DUP6 PUSH2 0x180 DUP7 ADD PUSH2 0xAAF4 JUMP JUMPDEST SWAP2 POP PUSH2 0x200 DUP5 ADD CALLDATALOAD PUSH2 0xBBC4 DUP2 PUSH2 0xCDAB JUMP JUMPDEST DUP1 SWAP2 POP POP SWAP3 POP SWAP3 POP SWAP3 JUMP JUMPDEST PUSH1 0x0 DUP1 PUSH1 0x0 DUP1 DUP5 DUP7 SUB PUSH1 0xC0 DUP2 SLT ISZERO PUSH2 0xBBE5 JUMPI DUP3 DUP4 REVERT JUMPDEST PUSH1 0x60 DUP2 SLT ISZERO PUSH2 0xBBF2 JUMPI DUP3 DUP4 REVERT JUMPDEST POP PUSH2 0xBBFD PUSH1 0x60 PUSH2 0xCCD5 JUMP JUMPDEST DUP6 CALLDATALOAD PUSH2 0xBC08 DUP2 PUSH2 0xCDAB JUMP JUMPDEST DUP1 DUP3 MSTORE POP PUSH1 0x20 DUP7 ADD CALLDATALOAD PUSH1 0x20 DUP3 ADD MSTORE PUSH1 0x40 DUP7 ADD CALLDATALOAD PUSH2 0xBC24 DUP2 PUSH2 0xCDAB JUMP JUMPDEST DUP1 PUSH1 0x40 DUP4 ADD MSTORE POP DUP1 SWAP5 POP POP PUSH1 0x60 DUP6 ADD CALLDATALOAD PUSH2 0xBC3D DUP2 PUSH2 0xCDAB JUMP JUMPDEST DUP1 SWAP4 POP POP PUSH1 0x80 DUP6 ADD CALLDATALOAD PUSH2 0xBC4F DUP2 PUSH2 0xCDAB JUMP JUMPDEST DUP1 SWAP3 POP POP PUSH1 0xA0 DUP6 ADD CALLDATALOAD PUSH8 0xFFFFFFFFFFFFFFFF DUP2 GT ISZERO PUSH2 0xBC6C JUMPI DUP2 DUP3 REVERT JUMPDEST PUSH2 0xBC78 DUP8 DUP3 DUP9 ADD PUSH2 0xA712 JUMP JUMPDEST SWAP2 POP POP SWAP3 SWAP6 SWAP2 SWAP5 POP SWAP3 POP JUMP JUMPDEST PUSH1 0x0 DUP1 PUSH1 0x0 DUP1 PUSH1 0xC0 DUP6 DUP8 SUB SLT ISZERO PUSH2 0xBC99 JUMPI DUP2 DUP3 REVERT JUMPDEST PUSH2 0xBCA3 DUP7 DUP7 PUSH2 0xA8BB JUMP JUMPDEST SWAP4 POP PUSH1 0x60 DUP6 ADD CALLDATALOAD PUSH2 0xBCB3 DUP2 PUSH2 0xCDEB JUMP JUMPDEST DUP1 SWAP4 POP POP PUSH1 0x80 DUP6 ADD CALLDATALOAD PUSH2 0xBCC5 DUP2 PUSH2 0xCDEB JUMP JUMPDEST DUP1 SWAP3 POP POP PUSH1 0xA0 DUP6 ADD CALLDATALOAD PUSH8 0xFFFFFFFFFFFFFFFF DUP2 GT ISZERO PUSH2 0xBCE2 JUMPI DUP2 DUP3 REVERT JUMPDEST PUSH2 0xBCEE DUP8 DUP3 DUP9 ADD PUSH2 0xA712 JUMP JUMPDEST SWAP2 POP POP SWAP3 SWAP6 SWAP2 SWAP5 POP SWAP3 POP JUMP JUMPDEST PUSH1 0x0 PUSH1 0x20 DUP3 DUP5 SUB SLT ISZERO PUSH2 0xBD0B JUMPI DUP1 DUP2 REVERT JUMPDEST DUP2 MLOAD PUSH3 0xFFFFFF DUP2 AND DUP2 EQ PUSH2 0xBD1D JUMPI DUP2 DUP3 REVERT JUMPDEST DUP1 SWAP2 POP POP SWAP3 SWAP2 POP POP JUMP JUMPDEST PUSH1 0x0 PUSH1 0x20 DUP3 DUP5 SUB SLT ISZERO PUSH2 0xBD38 JUMPI DUP1 DUP2 REVERT JUMPDEST DUP2 MLOAD SWAP1 POP SWAP3 SWAP2 POP POP JUMP JUMPDEST PUSH1 0x0 DUP1 PUSH1 0x40 DUP4 DUP6 SUB SLT ISZERO PUSH2 0xBD54 JUMPI DUP2 DUP3 REVERT JUMPDEST DUP3 MLOAD SWAP2 POP PUSH1 0x20 DUP4 ADD MLOAD SWAP1 POP SWAP3 POP SWAP3 SWAP1 POP JUMP JUMPDEST PUSH1 0x0 DUP1 PUSH1 0x0 DUP1 PUSH1 0x80 DUP6 DUP8 SUB SLT ISZERO PUSH2 0xBD7B JUMPI DUP2 DUP3 REVERT JUMPDEST DUP5 MLOAD SWAP4 POP PUSH1 0x20 DUP6 ADD MLOAD SWAP3 POP PUSH1 0x40 DUP6 ADD MLOAD SWAP2 POP PUSH1 0x60 DUP6 ADD MLOAD SWAP1 POP SWAP3 SWAP6 SWAP2 SWAP5 POP SWAP3 POP JUMP JUMPDEST PUSH1 0x0 DUP1 PUSH1 0x0 DUP1 PUSH1 0x0 PUSH1 0xA0 DUP7 DUP9 SUB SLT ISZERO PUSH2 0xBDB4 JUMPI DUP3 DUP4 REVERT JUMPDEST DUP6 MLOAD SWAP5 POP PUSH1 0x20 DUP7 ADD MLOAD SWAP4 POP PUSH1 0x40 DUP7 ADD MLOAD SWAP3 POP PUSH1 0x60 DUP7 ADD MLOAD SWAP2 POP PUSH1 0x80 DUP7 ADD MLOAD SWAP1 POP SWAP3 SWAP6 POP SWAP3 SWAP6 SWAP1 SWAP4 POP JUMP JUMPDEST PUSH1 0x0 PUSH1 0x1 DUP1 PUSH1 0xA0 SHL SUB DUP3 AND DUP4 MSTORE PUSH1 0x20 DUP4 ADD SWAP1 POP SWAP3 SWAP2 POP POP JUMP JUMPDEST PUSH1 0x0 DUP2 MLOAD DUP4 MSTORE PUSH1 0x20 DUP3 ADD MLOAD PUSH1 0x20 DUP5 ADD MSTORE PUSH1 0x40 DUP3 ADD MLOAD PUSH1 0x40 DUP5 ADD MSTORE PUSH1 0x60 DUP3 ADD MLOAD PUSH1 0x60 DUP5 ADD MSTORE PUSH1 0x80 DUP3 ADD MLOAD PUSH1 0xA0 PUSH1 0x80 DUP6 ADD MSTORE PUSH2 0xBE34 PUSH1 0xA0 DUP6 ADD DUP3 PUSH2 0xBED6 JUMP JUMPDEST SWAP2 POP POP SWAP3 SWAP2 POP POP JUMP JUMPDEST PUSH1 0x1 DUP1 PUSH1 0xA0 SHL SUB DUP2 AND DUP3 MSTORE POP POP JUMP JUMPDEST PUSH1 0x0 DUP2 MLOAD DUP1 DUP5 MSTORE PUSH1 0x20 DUP1 DUP6 ADD SWAP5 POP DUP1 DUP5 ADD DUP4 JUMPDEST DUP4 DUP2 LT ISZERO PUSH2 0xBE88 JUMPI PUSH1 0x1 DUP1 PUSH1 0xA0 SHL SUB DUP3 MLOAD AND DUP8 MSTORE DUP3 DUP8 ADD SWAP7 POP DUP3 DUP3 ADD SWAP2 POP PUSH1 0x1 DUP2 ADD SWAP1 POP PUSH2 0xBE5F JUMP JUMPDEST POP POP POP POP DUP3 SWAP1 POP SWAP3 SWAP2 POP POP JUMP JUMPDEST PUSH1 0x0 DUP2 MLOAD DUP1 DUP5 MSTORE PUSH1 0x20 DUP1 DUP6 ADD SWAP5 POP DUP1 DUP5 ADD DUP4 JUMPDEST DUP4 DUP2 LT ISZERO PUSH2 0xBEC9 JUMPI DUP2 MLOAD DUP8 MSTORE DUP3 DUP8 ADD SWAP7 POP DUP3 DUP3 ADD SWAP2 POP PUSH1 0x1 DUP2 ADD SWAP1 POP PUSH2 0xBEA8 JUMP JUMPDEST POP POP POP POP DUP3 SWAP1 POP SWAP3 SWAP2 POP POP JUMP JUMPDEST PUSH1 0x0 DUP2 MLOAD DUP1 DUP5 MSTORE PUSH2 0xBEEE DUP2 PUSH1 0x20 DUP7 ADD PUSH1 0x20 DUP7 ADD PUSH2 0xCD5E JUMP JUMPDEST PUSH1 0x20 PUSH1 0x1F NOT PUSH1 0x1F DUP4 ADD AND DUP6 ADD ADD SWAP2 POP POP SWAP3 SWAP2 POP POP JUMP JUMPDEST PUSH1 0x1 DUP1 PUSH1 0xA0 SHL SUB DUP2 MLOAD AND DUP3 MSTORE PUSH1 0x20 DUP2 ADD MLOAD PUSH4 0xFFFFFFFF PUSH1 0xE0 SHL DUP1 DUP3 AND PUSH1 0x20 DUP6 ADD MSTORE DUP1 PUSH1 0x40 DUP5 ADD MLOAD AND PUSH1 0x40 DUP6 ADD MSTORE POP POP POP POP JUMP JUMPDEST PUSH1 0x1 DUP1 PUSH1 0xA0 SHL SUB DUP1 DUP3 MLOAD AND DUP4 MSTORE PUSH1 0x20 DUP3 ADD MLOAD ISZERO ISZERO PUSH1 0x20 DUP5 ADD MSTORE DUP1 PUSH1 0x40 DUP4 ADD MLOAD AND PUSH1 0x40 DUP5 ADD MSTORE POP PUSH1 0x60 DUP2 ADD MLOAD ISZERO ISZERO PUSH1 0x60 DUP4 ADD MSTORE POP POP JUMP JUMPDEST PUSH1 0x0 DUP2 MLOAD DUP4 MSTORE PUSH1 0x20 DUP3 ADD MLOAD PUSH1 0x40 PUSH1 0x20 DUP6 ADD MSTORE PUSH2 0xBF8C PUSH1 0x40 DUP6 ADD DUP3 PUSH2 0xBED6 JUMP JUMPDEST SWAP2 POP POP SWAP3 SWAP2 POP POP JUMP JUMPDEST PUSH1 0x0 DUP2 MLOAD DUP4 MSTORE PUSH1 0x20 DUP3 ADD MLOAD PUSH1 0x1 DUP1 PUSH1 0xA0 SHL SUB DUP1 DUP3 AND PUSH1 0x20 DUP7 ADD MSTORE DUP1 PUSH1 0x40 DUP6 ADD MLOAD AND PUSH1 0x40 DUP7 ADD MSTORE DUP1 PUSH1 0x60 DUP6 ADD MLOAD AND PUSH1 0x60 DUP7 ADD MSTORE POP POP PUSH1 0x80 DUP3 ADD MLOAD PUSH1 0xA0 PUSH1 0x80 DUP6 ADD MSTORE PUSH2 0xBFE2 PUSH1 0xA0 DUP6 ADD DUP3 PUSH2 0xBED6 JUMP JUMPDEST SWAP2 POP POP SWAP3 SWAP2 POP POP JUMP JUMPDEST DUP1 MLOAD PUSH2 0xBFF6 DUP2 PUSH2 0xCD91 JUMP JUMPDEST DUP1 DUP4 MSTORE POP PUSH1 0xFF PUSH1 0x20 DUP3 ADD MLOAD AND PUSH1 0x20 DUP4 ADD MSTORE PUSH1 0x40 DUP2 ADD MLOAD PUSH1 0x40 DUP4 ADD MSTORE PUSH1 0x60 DUP2 ADD MLOAD PUSH1 0x60 DUP4 ADD MSTORE POP POP JUMP JUMPDEST PUSH16 0xFFFFFFFFFFFFFFFFFFFFFFFFFFFFFFFF DUP2 AND DUP3 MSTORE POP POP JUMP JUMPDEST PUSH8 0xFFFFFFFFFFFFFFFF DUP2 AND DUP3 MSTORE POP POP JUMP JUMPDEST PUSH1 0x0 PUSH12 0xFFFFFFFFFFFFFFFFFFFFFFFF NOT DUP4 PUSH1 0x60 SHL AND DUP3 MSTORE PUSH1 0x14 DUP3 ADD SWAP1 POP SWAP3 SWAP2 POP POP JUMP JUMPDEST PUSH1 0x0 DUP3 DUP5 DUP4 CALLDATACOPY DUP3 DUP3 ADD DUP2 DUP2 MSTORE DUP1 SWAP2 POP POP SWAP4 SWAP3 POP POP POP JUMP JUMPDEST PUSH1 0x0 DUP3 MLOAD PUSH2 0xC095 DUP2 DUP5 PUSH1 0x20 DUP8 ADD PUSH2 0xCD5E JUMP JUMPDEST DUP1 DUP4 ADD SWAP2 POP POP SWAP3 SWAP2 POP POP JUMP JUMPDEST PUSH1 0x0 PUSH1 0x20 DUP3 ADD SWAP1 POP PUSH1 0x1 DUP1 PUSH1 0xA0 SHL SUB DUP4 AND DUP3 MSTORE SWAP3 SWAP2 POP POP JUMP JUMPDEST PUSH1 0x0 PUSH1 0x20 DUP3 ADD SWAP1 POP PUSH1 0x1 DUP1 PUSH1 0xA0 SHL SUB DUP4 AND DUP3 MSTORE SWAP3 SWAP2 POP POP JUMP JUMPDEST PUSH1 0x0 PUSH1 0x40 DUP3 ADD SWAP1 POP PUSH1 0x1 DUP1 PUSH1 0xA0 SHL SUB DUP5 AND DUP3 MSTORE DUP3 PUSH1 0x20 DUP4 ADD MSTORE SWAP4 SWAP3 POP POP POP JUMP JUMPDEST PUSH1 0x0 PUSH1 0x40 DUP3 ADD SWAP1 POP PUSH1 0x1 DUP1 PUSH1 0xA0 SHL SUB DUP1 DUP6 AND DUP4 MSTORE DUP1 DUP5 AND PUSH1 0x20 DUP5 ADD MSTORE POP SWAP4 SWAP3 POP POP POP JUMP JUMPDEST PUSH1 0x0 PUSH1 0x80 DUP3 ADD SWAP1 POP PUSH1 0x1 DUP1 PUSH1 0xA0 SHL SUB DUP1 DUP8 AND DUP4 MSTORE DUP1 DUP7 AND PUSH1 0x20 DUP5 ADD MSTORE DUP1 DUP6 AND PUSH1 0x40 DUP5 ADD MSTORE DUP1 DUP5 AND PUSH1 0x60 DUP5 ADD MSTORE POP SWAP6 SWAP5 POP POP POP POP POP JUMP JUMPDEST PUSH1 0x0 PUSH1 0x1 DUP1 PUSH1 0xA0 SHL SUB DUP1 DUP8 AND DUP4 MSTORE DUP1 DUP7 AND PUSH1 0x20 DUP5 ADD MSTORE DUP1 DUP6 AND PUSH1 0x40 DUP5 ADD MSTORE POP PUSH1 0x80 PUSH1 0x60 DUP4 ADD MSTORE PUSH2 0xC180 PUSH1 0x80 DUP4 ADD DUP5 PUSH2 0xBE95 JUMP JUMPDEST SWAP1 POP SWAP6 SWAP5 POP POP POP POP POP JUMP JUMPDEST PUSH1 0x0 PUSH1 0x80 DUP3 ADD SWAP1 POP PUSH1 0x1 DUP1 PUSH1 0xA0 SHL SUB DUP1 DUP8 AND DUP4 MSTORE DUP1 DUP7 AND PUSH1 0x20 DUP5 ADD MSTORE DUP1 DUP6 AND PUSH1 0x40 DUP5 ADD MSTORE POP DUP3 PUSH1 0x60 DUP4 ADD MSTORE SWAP6 SWAP5 POP POP POP POP POP JUMP JUMPDEST PUSH1 0x0 PUSH1 0x60 DUP3 ADD SWAP1 POP PUSH1 0x1 DUP1 PUSH1 0xA0 SHL SUB DUP1 DUP7 AND DUP4 MSTORE DUP1 DUP6 AND PUSH1 0x20 DUP5 ADD MSTORE POP DUP3 ISZERO ISZERO PUSH1 0x40 DUP4 ADD MSTORE SWAP5 SWAP4 POP POP POP POP JUMP JUMPDEST PUSH1 0x0 PUSH1 0x1 DUP1 PUSH1 0xA0 SHL SUB DUP1 DUP8 AND DUP4 MSTORE DUP1 DUP7 AND PUSH1 0x20 DUP5 ADD MSTORE POP DUP4 ISZERO ISZERO PUSH1 0x40 DUP4 ADD MSTORE PUSH1 0x80 PUSH1 0x60 DUP4 ADD MSTORE PUSH2 0xC21F PUSH1 0x80 DUP4 ADD DUP5 PUSH2 0xBED6 JUMP JUMPDEST SWAP1 POP SWAP6 SWAP5 POP POP POP POP POP JUMP JUMPDEST PUSH1 0x0 PUSH1 0x60 DUP3 ADD SWAP1 POP PUSH1 0x1 DUP1 PUSH1 0xA0 SHL SUB DUP1 DUP7 AND DUP4 MSTORE DUP1 DUP6 AND PUSH1 0x20 DUP5 ADD MSTORE POP DUP3 PUSH1 0x40 DUP4 ADD MSTORE SWAP5 SWAP4 POP POP POP POP JUMP JUMPDEST PUSH1 0x0 PUSH1 0x1 DUP1 PUSH1 0xA0 SHL SUB DUP1 DUP9 AND DUP4 MSTORE DUP1 DUP8 AND PUSH1 0x20 DUP5 ADD MSTORE POP DUP5 PUSH1 0x40 DUP4 ADD MSTORE DUP4 PUSH1 0x60 DUP4 ADD MSTORE PUSH1 0xA0 PUSH1 0x80 DUP4 ADD MSTORE PUSH2 0xC28C PUSH1 0xA0 DUP4 ADD DUP5 PUSH2 0xBED6 JUMP JUMPDEST SWAP1 POP SWAP7 SWAP6 POP POP POP POP POP POP JUMP JUMPDEST PUSH1 0x0 PUSH1 0x1 DUP1 PUSH1 0xA0 SHL SUB DUP6 AND DUP3 MSTORE PUSH1 0x60 PUSH1 0x20 DUP4 ADD MSTORE PUSH2 0xC2B9 PUSH1 0x60 DUP4 ADD DUP6 PUSH2 0xBE4C JUMP JUMPDEST DUP3 DUP2 SUB PUSH1 0x40 DUP5 ADD MSTORE PUSH2 0xC2CB DUP2 DUP6 PUSH2 0xBE95 JUMP JUMPDEST SWAP2 POP POP SWAP5 SWAP4 POP POP POP POP JUMP JUMPDEST PUSH1 0x0 PUSH1 0x1 DUP1 PUSH1 0xA0 SHL SUB DUP7 AND DUP3 MSTORE PUSH2 0xC2EC DUP6 PUSH2 0xCD91 JUMP JUMPDEST DUP5 PUSH1 0x20 DUP4 ADD MSTORE PUSH1 0x80 PUSH1 0x40 DUP4 ADD MSTORE PUSH2 0xC306 PUSH1 0x80 DUP4 ADD DUP6 PUSH2 0xBE95 JUMP JUMPDEST DUP3 DUP2 SUB PUSH1 0x60 DUP5 ADD MSTORE PUSH2 0xC318 DUP2 DUP6 PUSH2 0xBE95 JUMP JUMPDEST SWAP2 POP POP SWAP6 SWAP5 POP POP POP POP POP JUMP JUMPDEST PUSH1 0x0 PUSH2 0x100 PUSH1 0x1 DUP1 PUSH1 0xA0 SHL SUB DUP1 DUP13 AND DUP5 MSTORE PUSH2 0xC33E DUP12 PUSH2 0xCD91 JUMP JUMPDEST DUP11 PUSH1 0x20 DUP6 ADD MSTORE DUP2 PUSH1 0x40 DUP6 ADD MSTORE PUSH2 0xC356 DUP3 DUP6 ADD DUP12 PUSH2 0xBE95 JUMP JUMPDEST SWAP2 POP DUP4 DUP3 SUB PUSH1 0x60 DUP6 ADD MSTORE PUSH2 0xC36A DUP3 DUP11 PUSH2 0xBE95 JUMP JUMPDEST SWAP2 POP DUP1 DUP9 AND PUSH1 0x80 DUP6 ADD MSTORE POP PUSH2 0xC37E DUP7 PUSH2 0xCD91 JUMP JUMPDEST DUP6 PUSH1 0xA0 DUP5 ADD MSTORE DUP3 DUP2 SUB PUSH1 0xC0 DUP5 ADD MSTORE PUSH2 0xC396 DUP2 DUP7 PUSH2 0xBE95 JUMP JUMPDEST SWAP1 POP DUP3 DUP2 SUB PUSH1 0xE0 DUP5 ADD MSTORE PUSH2 0xC3AA DUP2 DUP6 PUSH2 0xBE95 JUMP JUMPDEST SWAP2 POP POP SWAP10 SWAP9 POP POP POP POP POP POP POP POP POP JUMP JUMPDEST PUSH1 0x0 PUSH1 0x1 DUP1 PUSH1 0xA0 SHL SUB DUP5 AND DUP3 MSTORE PUSH1 0x40 PUSH1 0x20 DUP4 ADD MSTORE PUSH2 0xC3DB PUSH1 0x40 DUP4 ADD DUP5 PUSH2 0xBF95 JUMP JUMPDEST SWAP1 POP SWAP4 SWAP3 POP POP POP JUMP JUMPDEST PUSH1 0x0 PUSH1 0x40 DUP3 ADD SWAP1 POP PUSH1 0x1 DUP1 PUSH1 0xA0 SHL SUB DUP5 AND DUP3 MSTORE DUP3 PUSH1 0x20 DUP4 ADD MSTORE SWAP4 SWAP3 POP POP POP JUMP JUMPDEST PUSH1 0x0 PUSH1 0x20 DUP1 DUP4 ADD DUP2 DUP5 MSTORE DUP1 DUP6 DUP3 MSTORE PUSH1 0x40 DUP6 ADD SWAP1 POP DUP7 SWAP2 POP DUP4 JUMPDEST DUP7 DUP2 LT ISZERO PUSH2 0xC451 JUMPI DUP3 CALLDATALOAD PUSH2 0xC430 DUP2 PUSH2 0xCDAB JUMP JUMPDEST PUSH1 0x1 DUP1 PUSH1 0xA0 SHL SUB DUP2 AND DUP4 MSTORE POP DUP4 DUP3 ADD SWAP2 POP DUP4 DUP4 ADD SWAP3 POP PUSH1 0x1 DUP2 ADD SWAP1 POP PUSH2 0xC41D JUMP JUMPDEST POP DUP1 SWAP4 POP POP POP POP SWAP4 SWAP3 POP POP POP JUMP JUMPDEST PUSH1 0x0 PUSH1 0x40 DUP3 MSTORE PUSH2 0xC472 PUSH1 0x40 DUP4 ADD DUP6 PUSH2 0xBE4C JUMP JUMPDEST SWAP1 POP DUP3 PUSH1 0x20 DUP4 ADD MSTORE SWAP4 SWAP3 POP POP POP JUMP JUMPDEST PUSH1 0x0 PUSH1 0x20 DUP1 DUP4 ADD DUP2 DUP5 MSTORE DUP1 DUP6 MLOAD DUP1 DUP4 MSTORE PUSH1 0x40 SWAP3 POP DUP3 DUP7 ADD SWAP2 POP DUP3 DUP5 DUP3 MUL DUP8 ADD ADD DUP5 DUP9 ADD DUP7 JUMPDEST DUP4 DUP2 LT ISZERO PUSH2 0xC4F0 JUMPI PUSH1 0x3F NOT DUP10 DUP5 SUB ADD DUP6 MSTORE DUP2 MLOAD DUP1 MLOAD DUP8 DUP6 MSTORE PUSH2 0xC4CA DUP9 DUP7 ADD DUP3 PUSH2 0xBED6 JUMP JUMPDEST SWAP1 POP DUP9 DUP3 ADD MLOAD ISZERO ISZERO DUP10 DUP7 ADD MSTORE DUP1 SWAP5 POP POP POP DUP7 DUP3 ADD SWAP2 POP DUP7 DUP6 ADD SWAP5 POP PUSH1 0x1 DUP2 ADD SWAP1 POP PUSH2 0xC4A6 JUMP JUMPDEST POP POP DUP1 SWAP6 POP POP POP POP POP POP SWAP3 SWAP2 POP POP JUMP JUMPDEST PUSH1 0x0 PUSH1 0x20 DUP3 MSTORE PUSH2 0xC513 PUSH1 0x20 DUP4 ADD DUP5 PUSH2 0xBE95 JUMP JUMPDEST SWAP1 POP SWAP3 SWAP2 POP POP JUMP JUMPDEST PUSH1 0x0 PUSH1 0x40 DUP3 MSTORE PUSH2 0xC52E PUSH1 0x40 DUP4 ADD DUP6 PUSH2 0xBE95 JUMP JUMPDEST PUSH1 0x20 DUP4 DUP3 SUB DUP2 DUP6 ADD MSTORE DUP2 DUP6 MLOAD DUP1 DUP5 MSTORE DUP3 DUP5 ADD SWAP2 POP DUP3 DUP4 DUP3 MUL DUP6 ADD ADD DUP4 DUP9 ADD DUP7 JUMPDEST DUP4 DUP2 LT ISZERO PUSH2 0xC581 JUMPI PUSH1 0x1F NOT DUP8 DUP5 SUB ADD DUP6 MSTORE PUSH2 0xC56A DUP4 DUP4 MLOAD PUSH2 0xBED6 JUMP JUMPDEST SWAP3 POP DUP6 DUP3 ADD SWAP2 POP DUP6 DUP6 ADD SWAP5 POP PUSH1 0x1 DUP2 ADD SWAP1 POP PUSH2 0xC54E JUMP JUMPDEST POP POP DUP1 SWAP6 POP POP POP POP POP POP SWAP4 SWAP3 POP POP POP JUMP JUMPDEST PUSH1 0x0 PUSH1 0x20 DUP3 ADD SWAP1 POP DUP3 ISZERO ISZERO DUP3 MSTORE SWAP3 SWAP2 POP POP JUMP JUMPDEST PUSH1 0x0 DUP5 ISZERO ISZERO DUP3 MSTORE PUSH1 0x1 DUP1 PUSH1 0xA0 SHL SUB DUP5 AND PUSH1 0x20 DUP4 ADD MSTORE PUSH1 0x60 PUSH1 0x40 DUP4 ADD MSTORE PUSH2 0xC5CE PUSH1 0x60 DUP4 ADD DUP5 PUSH2 0xBE95 JUMP JUMPDEST SWAP1 POP SWAP5 SWAP4 POP POP POP POP JUMP JUMPDEST PUSH1 0x0 PUSH1 0x20 DUP3 ADD SWAP1 POP DUP3 DUP3 MSTORE SWAP3 SWAP2 POP POP JUMP JUMPDEST PUSH1 0x0 DUP5 DUP3 MSTORE PUSH1 0x60 PUSH1 0x20 DUP4 ADD MSTORE PUSH2 0xC602 PUSH1 0x60 DUP4 ADD DUP6 PUSH2 0xBED6 JUMP JUMPDEST DUP3 DUP2 SUB PUSH1 0x40 DUP5 ADD MSTORE PUSH2 0xC614 DUP2 DUP6 PUSH2 0xBE95 JUMP JUMPDEST SWAP2 POP POP SWAP5 SWAP4 POP POP POP POP JUMP JUMPDEST PUSH1 0x0 PUSH1 0x20 DUP3 MSTORE PUSH2 0xC632 PUSH1 0x20 DUP4 ADD DUP5 PUSH2 0xBED6 JUMP JUMPDEST SWAP1 POP SWAP3 SWAP2 POP POP JUMP JUMPDEST PUSH1 0x0 PUSH1 0x40 DUP3 MSTORE PUSH2 0xC64D PUSH1 0x40 DUP4 ADD DUP6 PUSH2 0xBED6 JUMP JUMPDEST SWAP1 POP DUP3 PUSH1 0x20 DUP4 ADD MSTORE SWAP4 SWAP3 POP POP POP JUMP JUMPDEST PUSH1 0x0 PUSH1 0x60 DUP3 ADD SWAP1 POP PUSH1 0x1 DUP1 PUSH1 0xA0 SHL SUB DUP1 DUP7 AND DUP4 MSTORE DUP1 DUP6 AND PUSH1 0x20 DUP5 ADD MSTORE POP PUSH3 0xFFFFFF DUP4 AND PUSH1 0x40 DUP4 ADD MSTORE SWAP5 SWAP4 POP POP POP POP JUMP JUMPDEST PUSH1 0x0 PUSH1 0x60 DUP3 ADD SWAP1 POP PUSH1 0x1 DUP1 PUSH1 0xA0 SHL SUB DUP1 DUP7 AND DUP4 MSTORE DUP1 DUP6 AND PUSH1 0x20 DUP5 ADD MSTORE POP DUP3 PUSH1 0x40 DUP4 ADD MSTORE SWAP5 SWAP4 POP POP POP POP JUMP JUMPDEST PUSH1 0x0 PUSH1 0x1 DUP1 PUSH1 0xA0 SHL SUB DUP5 AND DUP3 MSTORE PUSH1 0x40 PUSH1 0x20 DUP4 ADD MSTORE PUSH2 0xC6D8 PUSH1 0x40 DUP4 ADD DUP5 PUSH2 0xBE95 JUMP JUMPDEST SWAP1 POP SWAP4 SWAP3 POP POP POP JUMP JUMPDEST PUSH1 0x0 PUSH1 0x20 DUP3 ADD SWAP1 POP PUSH1 0x1 DUP1 PUSH1 0xA0 SHL SUB DUP4 AND DUP3 MSTORE SWAP3 SWAP2 POP POP JUMP JUMPDEST PUSH1 0x0 PUSH1 0x20 DUP3 ADD SWAP1 POP PUSH1 0x1 DUP1 PUSH1 0xA0 SHL SUB DUP4 AND DUP3 MSTORE SWAP3 SWAP2 POP POP JUMP JUMPDEST PUSH1 0x0 PUSH1 0x20 DUP3 ADD SWAP1 POP PUSH1 0x1 DUP1 PUSH1 0xA0 SHL SUB DUP4 AND DUP3 MSTORE SWAP3 SWAP2 POP POP JUMP JUMPDEST PUSH1 0x0 PUSH1 0x20 DUP3 ADD SWAP1 POP PUSH1 0x1 DUP1 PUSH1 0xA0 SHL SUB DUP4 AND DUP3 MSTORE SWAP3 SWAP2 POP POP JUMP JUMPDEST PUSH1 0x0 PUSH1 0x60 DUP3 ADD SWAP1 POP PUSH2 0xC756 DUP6 PUSH2 0xCD91 JUMP JUMPDEST DUP5 DUP3 MSTORE DUP4 PUSH1 0x20 DUP4 ADD MSTORE DUP3 PUSH1 0x40 DUP4 ADD MSTORE SWAP5 SWAP4 POP POP POP POP JUMP JUMPDEST PUSH1 0x0 PUSH1 0x60 DUP3 ADD SWAP1 POP PUSH1 0x8 DUP6 LT PUSH2 0xC77F JUMPI INVALID JUMPDEST DUP5 DUP3 MSTORE DUP4 PUSH1 0x20 DUP4 ADD MSTORE DUP3 PUSH1 0x40 DUP4 ADD MSTORE SWAP5 SWAP4 POP POP POP POP JUMP JUMPDEST PUSH1 0x0 PUSH1 0xE0 DUP3 ADD PUSH2 0xC7A5 DUP8 PUSH2 0xCD9E JUMP JUMPDEST DUP7 DUP4 MSTORE PUSH1 0x20 PUSH1 0xE0 DUP2 DUP6 ADD MSTORE DUP2 DUP8 MLOAD PUSH2 0xC7BD DUP2 DUP6 PUSH2 0xCD4D JUMP JUMPDEST SWAP2 POP DUP2 SWAP4 POP DUP3 DUP2 MUL DUP3 ADD DUP4 DUP11 ADD DUP7 JUMPDEST DUP4 DUP2 LT ISZERO PUSH2 0xC7FB JUMPI DUP7 DUP4 SUB DUP6 MSTORE PUSH2 0xC7E4 DUP4 DUP4 MLOAD PUSH2 0xBDF7 JUMP JUMPDEST SWAP3 POP DUP6 DUP3 ADD SWAP2 POP DUP6 DUP6 ADD SWAP5 POP PUSH1 0x1 DUP2 ADD SWAP1 POP PUSH2 0xC7CC JUMP JUMPDEST POP POP DUP7 DUP2 SUB PUSH1 0x40 DUP9 ADD MSTORE DUP1 SWAP5 POP DUP9 MLOAD SWAP3 POP PUSH2 0xC816 DUP4 DUP3 PUSH2 0xCD4D JUMP JUMPDEST SWAP5 POP POP POP DUP2 DUP8 ADD DUP5 JUMPDEST DUP3 DUP2 LT ISZERO PUSH2 0xC844 JUMPI PUSH2 0xC832 DUP6 DUP4 MLOAD PUSH2 0xBDDE JUMP JUMPDEST SWAP5 POP DUP4 DUP3 ADD SWAP2 POP PUSH1 0x1 DUP2 ADD SWAP1 POP PUSH2 0xC81F JUMP JUMPDEST POP POP POP POP DUP1 SWAP2 POP POP PUSH2 0xC859 PUSH1 0x60 DUP4 ADD DUP5 PUSH2 0xBF37 JUMP JUMPDEST SWAP6 SWAP5 POP POP POP POP POP JUMP JUMPDEST PUSH1 0x0 PUSH1 0x60 DUP3 ADD SWAP1 POP DUP5 PUSH1 0xF SIGNEXTEND DUP3 MSTORE DUP4 PUSH1 0xF SIGNEXTEND PUSH1 0x20 DUP4 ADD MSTORE DUP3 PUSH1 0x40 DUP4 ADD MSTORE SWAP5 SWAP4 POP POP POP POP JUMP JUMPDEST PUSH1 0x0 PUSH1 0x80 DUP3 ADD SWAP1 POP DUP4 PUSH1 0xF SIGNEXTEND DUP3 MSTORE PUSH2 0xC8A2 PUSH1 0x20 DUP4 ADD DUP5 PUSH2 0xBF04 JUMP JUMPDEST SWAP4 SWAP3 POP POP POP JUMP JUMPDEST PUSH1 0x0 PUSH1 0x80 DUP3 ADD SWAP1 POP DUP4 PUSH1 0xF SIGNEXTEND DUP3 MSTORE PUSH2 0xC8C4 PUSH1 0x20 DUP4 ADD DUP5 PUSH2 0xBF04 JUMP JUMPDEST SWAP4 SWAP3 POP POP POP JUMP JUMPDEST PUSH1 0x0 PUSH1 0x20 DUP3 MSTORE PUSH1 0x24 PUSH1 0x20 DUP4 ADD MSTORE PUSH32 0x556E6973776170563353616D706C65722F746F6B656E5061746820746F6F2073 PUSH1 0x40 DUP4 ADD MSTORE PUSH32 0x686F727400000000000000000000000000000000000000000000000000000000 PUSH1 0x60 DUP4 ADD MSTORE PUSH1 0x80 DUP3 ADD SWAP1 POP SWAP2 SWAP1 POP JUMP JUMPDEST PUSH1 0x0 PUSH1 0x20 DUP3 MSTORE PUSH1 0x25 PUSH1 0x20 DUP4 ADD MSTORE PUSH32 0x455243323042726964676553616D706C65722F494E56414C49445F544F4B454E PUSH1 0x40 DUP4 ADD MSTORE PUSH32 0x5F50414952000000000000000000000000000000000000000000000000000000 PUSH1 0x60 DUP4 ADD MSTORE PUSH1 0x80 DUP3 ADD SWAP1 POP SWAP2 SWAP1 POP JUMP JUMPDEST PUSH1 0x0 PUSH1 0x20 DUP3 MSTORE PUSH1 0x25 PUSH1 0x20 DUP4 ADD MSTORE PUSH32 0x556E6973776170563353616D706C65722F696E76616C69642070617468206C65 PUSH1 0x40 DUP4 ADD MSTORE PUSH32 0x6E67746873000000000000000000000000000000000000000000000000000000 PUSH1 0x60 DUP4 ADD MSTORE PUSH1 0x80 DUP3 ADD SWAP1 POP SWAP2 SWAP1 POP JUMP JUMPDEST PUSH1 0x0 PUSH2 0xCA03 DUP3 DUP8 PUSH2 0xBF04 JUMP JUMPDEST DUP5 PUSH1 0xF SIGNEXTEND PUSH1 0x60 DUP4 ADD MSTORE DUP4 PUSH1 0xF SIGNEXTEND PUSH1 0x80 DUP4 ADD MSTORE PUSH1 0xC0 PUSH1 0xA0 DUP4 ADD MSTORE PUSH2 0xCA29 PUSH1 0xC0 DUP4 ADD DUP5 PUSH2 0xBE95 JUMP JUMPDEST SWAP1 POP SWAP6 SWAP5 POP POP POP POP POP JUMP JUMPDEST PUSH1 0x0 PUSH1 0x60 DUP3 MSTORE PUSH2 0xCA47 PUSH1 0x60 DUP4 ADD DUP7 PUSH2 0xBF6D JUMP JUMPDEST DUP3 DUP2 SUB PUSH1 0x20 DUP5 ADD MSTORE PUSH2 0xCA59 DUP2 DUP7 PUSH2 0xBF6D JUMP JUMPDEST SWAP2 POP POP DUP3 PUSH1 0x40 DUP4 ADD MSTORE SWAP5 SWAP4 POP POP POP POP JUMP JUMPDEST PUSH1 0x0 PUSH1 0x80 DUP3 MSTORE PUSH2 0xCA7D PUSH1 0x80 DUP4 ADD DUP8 PUSH2 0xBF95 JUMP JUMPDEST SWAP1 POP PUSH1 0x1 DUP1 PUSH1 0xA0 SHL SUB DUP1 DUP7 AND PUSH1 0x20 DUP5 ADD MSTORE DUP1 DUP6 AND PUSH1 0x40 DUP5 ADD MSTORE POP DUP3 PUSH1 0x60 DUP4 ADD MSTORE SWAP6 SWAP5 POP POP POP POP POP JUMP JUMPDEST PUSH1 0x0 PUSH1 0x80 DUP3 MSTORE PUSH2 0xCAB9 PUSH1 0x80 DUP4 ADD DUP8 PUSH2 0xBF95 JUMP JUMPDEST SWAP1 POP DUP5 PUSH1 0x20 DUP4 ADD MSTORE PUSH1 0x1 DUP1 PUSH1 0xA0 SHL SUB DUP1 DUP6 AND PUSH1 0x40 DUP5 ADD MSTORE DUP1 DUP5 AND PUSH1 0x60 DUP5 ADD MSTORE POP SWAP6 SWAP5 POP POP POP POP POP JUMP JUMPDEST PUSH1 0x0 PUSH2 0x220 DUP3 ADD SWAP1 POP PUSH2 0xCAF6 DUP3 DUP7 MLOAD PUSH2 0xBE3D JUMP JUMPDEST PUSH1 0x20 DUP6 ADD MLOAD PUSH2 0xCB08 PUSH1 0x20 DUP5 ADD DUP3 PUSH2 0xBE3D JUMP JUMPDEST POP PUSH1 0x40 DUP6 ADD MLOAD PUSH2 0xCB1B PUSH1 0x40 DUP5 ADD DUP3 PUSH2 0xC01F JUMP JUMPDEST POP PUSH1 0x60 DUP6 ADD MLOAD PUSH2 0xCB2E PUSH1 0x60 DUP5 ADD DUP3 PUSH2 0xC01F JUMP JUMPDEST POP PUSH1 0x80 DUP6 ADD MLOAD PUSH2 0xCB41 PUSH1 0x80 DUP5 ADD DUP3 PUSH2 0xC01F JUMP JUMPDEST POP PUSH1 0xA0 DUP6 ADD MLOAD PUSH2 0xCB54 PUSH1 0xA0 DUP5 ADD DUP3 PUSH2 0xBE3D JUMP JUMPDEST POP PUSH1 0xC0 DUP6 ADD MLOAD PUSH2 0xCB67 PUSH1 0xC0 DUP5 ADD DUP3 PUSH2 0xBE3D JUMP JUMPDEST POP PUSH1 0xE0 DUP6 ADD MLOAD PUSH2 0xCB7A PUSH1 0xE0 DUP5 ADD DUP3 PUSH2 0xBE3D JUMP JUMPDEST POP PUSH2 0x100 DUP1 DUP7 ADD MLOAD PUSH2 0xCB8E DUP3 DUP6 ADD DUP3 PUSH2 0xBE3D JUMP JUMPDEST POP POP PUSH2 0x120 DUP1 DUP7 ADD MLOAD DUP2 DUP5 ADD MSTORE POP PUSH2 0x140 DUP1 DUP7 ADD MLOAD PUSH2 0xCBAF DUP3 DUP6 ADD DUP3 PUSH2 0xC038 JUMP JUMPDEST POP POP PUSH2 0x160 DUP1 DUP7 ADD MLOAD DUP2 DUP5 ADD MSTORE POP PUSH2 0xCBCB PUSH2 0x180 DUP4 ADD DUP6 PUSH2 0xBFEB JUMP JUMPDEST PUSH2 0xCBD9 PUSH2 0x200 DUP4 ADD DUP5 PUSH2 0xBE3D JUMP JUMPDEST SWAP5 SWAP4 POP POP POP POP JUMP JUMPDEST PUSH1 0x0 PUSH2 0xCBED DUP3 DUP8 PUSH2 0xBF04 JUMP JUMPDEST DUP5 PUSH1 0xF SIGNEXTEND PUSH1 0x60 DUP4 ADD MSTORE DUP4 PUSH1 0xF SIGNEXTEND PUSH1 0x80 DUP4 ADD MSTORE PUSH1 0xC0 PUSH1 0xA0 DUP4 ADD MSTORE PUSH2 0xCC13 PUSH1 0xC0 DUP4 ADD DUP5 PUSH2 0xBE95 JUMP JUMPDEST SWAP1 POP SWAP6 SWAP5 POP POP POP POP POP JUMP JUMPDEST PUSH1 0x0 PUSH1 0x20 DUP3 ADD SWAP1 POP DUP3 DUP3 MSTORE SWAP3 SWAP2 POP POP JUMP JUMPDEST PUSH1 0x0 DUP4 DUP3 MSTORE PUSH1 0x40 PUSH1 0x20 DUP4 ADD MSTORE PUSH2 0xCC48 PUSH1 0x40 DUP4 ADD DUP5 PUSH2 0xBE4C JUMP JUMPDEST SWAP1 POP SWAP4 SWAP3 POP POP POP JUMP JUMPDEST PUSH1 0x0 PUSH1 0xC0 DUP3 ADD SWAP1 POP DUP8 DUP3 MSTORE DUP7 PUSH1 0x20 DUP4 ADD MSTORE DUP6 PUSH1 0x40 DUP4 ADD MSTORE DUP5 PUSH1 0x60 DUP4 ADD MSTORE DUP4 PUSH1 0x80 DUP4 ADD MSTORE DUP3 PUSH1 0xA0 DUP4 ADD MSTORE SWAP8 SWAP7 POP POP POP POP POP POP POP JUMP JUMPDEST PUSH1 0x0 DUP1 DUP4 CALLDATALOAD PUSH1 0x1E NOT DUP5 CALLDATASIZE SUB ADD DUP2 SLT PUSH2 0xCC9B JUMPI DUP3 DUP4 REVERT JUMPDEST DUP1 DUP5 ADD SWAP1 POP DUP1 CALLDATALOAD SWAP2 POP PUSH8 0xFFFFFFFFFFFFFFFF DUP3 GT ISZERO PUSH2 0xCCB8 JUMPI DUP3 DUP4 REVERT JUMPDEST PUSH1 0x20 DUP2 ADD SWAP3 POP POP DUP1 CALLDATASIZE SUB DUP3 SGT ISZERO PUSH2 0xCCCE JUMPI PUSH1 0x0 DUP1 REVERT JUMPDEST SWAP3 POP SWAP3 SWAP1 POP JUMP JUMPDEST PUSH1 0x0 PUSH1 0x40 MLOAD SWAP1 POP DUP2 DUP2 ADD DUP2 DUP2 LT PUSH8 0xFFFFFFFFFFFFFFFF DUP3 GT OR ISZERO PUSH2 0xCCF8 JUMPI PUSH1 0x0 DUP1 REVERT JUMPDEST DUP1 PUSH1 0x40 MSTORE POP SWAP2 SWAP1 POP JUMP JUMPDEST PUSH1 0x0 PUSH8 0xFFFFFFFFFFFFFFFF DUP3 GT ISZERO PUSH2 0xCD18 JUMPI DUP1 DUP2 REVERT JUMPDEST PUSH1 0x20 DUP1 DUP4 MUL ADD SWAP1 POP SWAP2 SWAP1 POP JUMP JUMPDEST PUSH1 0x0 PUSH8 0xFFFFFFFFFFFFFFFF DUP3 GT ISZERO PUSH2 0xCD3B JUMPI DUP1 DUP2 REVERT JUMPDEST PUSH1 0x20 PUSH1 0x1F NOT PUSH1 0x1F DUP5 ADD AND ADD SWAP1 POP SWAP2 SWAP1 POP JUMP JUMPDEST PUSH1 0x0 DUP3 DUP3 MSTORE PUSH1 0x20 DUP3 ADD SWAP1 POP SWAP3 SWAP2 POP POP JUMP JUMPDEST PUSH1 0x0 JUMPDEST DUP4 DUP2 LT ISZERO PUSH2 0xCD7C JUMPI DUP1 DUP3 ADD MLOAD DUP2 DUP5 ADD MSTORE PUSH1 0x20 DUP2 ADD SWAP1 POP PUSH2 0xCD61 JUMP JUMPDEST DUP4 DUP2 GT ISZERO PUSH2 0xCD8B JUMPI PUSH1 0x0 DUP5 DUP5 ADD MSTORE JUMPDEST POP POP POP POP JUMP JUMPDEST PUSH1 0x4 DUP2 LT PUSH2 0xCD9B JUMPI INVALID JUMPDEST POP JUMP JUMPDEST PUSH1 0x2 DUP2 LT PUSH2 0xCDA8 JUMPI INVALID JUMPDEST POP JUMP JUMPDEST PUSH1 0x1 DUP1 PUSH1 0xA0 SHL SUB DUP2 AND DUP2 EQ PUSH2 0xCDBF JUMPI PUSH1 0x0 DUP1 REVERT JUMPDEST POP JUMP JUMPDEST DUP1 ISZERO ISZERO DUP2 EQ PUSH2 0xCDD0 JUMPI PUSH1 0x0 DUP1 REVERT JUMPDEST POP JUMP JUMPDEST PUSH4 0xFFFFFFFF PUSH1 0xE0 SHL DUP2 AND DUP2 EQ PUSH2 0xCDE8 JUMPI PUSH1 0x0 DUP1 REVERT JUMPDEST POP JUMP JUMPDEST DUP1 PUSH1 0xF SIGNEXTEND DUP2 EQ PUSH2 0xCDFA JUMPI PUSH1 0x0 DUP1 REVERT JUMPDEST POP JUMP INVALID LOG2 PUSH5 0x6970667358 0x22 SLT KECCAK256 0xA9 0xB9 0xB2 0x23 PUSH26 0xAA154B2CFA971FFF16ADAEF17C71D9D7F48E8D59D696B84915A9 0xCC PUSH5 0x736F6C6343 STOP MOD 0xC STOP CALLER PUSH1 0x80 PUSH1 0x40 MSTORE CALLVALUE DUP1 ISZERO PUSH2 0x10 JUMPI PUSH1 0x0 DUP1 REVERT JUMPDEST POP PUSH2 0xB69 DUP1 PUSH2 0x20 PUSH1 0x0 CODECOPY PUSH1 0x0 RETURN INVALID PUSH1 0x80 PUSH1 0x40 MSTORE CALLVALUE DUP1 ISZERO PUSH2 0x10 JUMPI PUSH1 0x0 DUP1 REVERT JUMPDEST POP PUSH1 0x4 CALLDATASIZE LT PUSH2 0x36 JUMPI PUSH1 0x0 CALLDATALOAD PUSH1 0xE0 SHR DUP1 PUSH4 0x6F2BF62 EQ PUSH2 0x3B JUMPI DUP1 PUSH4 0x31268657 EQ PUSH2 0x6B JUMPI JUMPDEST PUSH1 0x0 DUP1 REVERT JUMPDEST PUSH2 0x55 PUSH1 0x4 DUP1 CALLDATASIZE SUB DUP2 ADD SWAP1 PUSH2 0x50 SWAP2 SWAP1 PUSH2 0x1F2 JUMP JUMPDEST PUSH2 0x87 JUMP JUMPDEST PUSH1 0x40 MLOAD PUSH2 0x62 SWAP2 SWAP1 PUSH2 0x292 JUMP JUMPDEST PUSH1 0x40 MLOAD DUP1 SWAP2 SUB SWAP1 RETURN JUMPDEST PUSH2 0x85 PUSH1 0x4 DUP1 CALLDATASIZE SUB DUP2 ADD SWAP1 PUSH2 0x80 SWAP2 SWAP1 PUSH2 0x222 JUMP JUMPDEST PUSH2 0xEF JUMP JUMPDEST STOP JUMPDEST PUSH1 0x0 DUP1 PUSH1 0x0 DUP4 PUSH20 0xFFFFFFFFFFFFFFFFFFFFFFFFFFFFFFFFFFFFFFFF AND PUSH20 0xFFFFFFFFFFFFFFFFFFFFFFFFFFFFFFFFFFFFFFFF AND DUP2 MSTORE PUSH1 0x20 ADD SWAP1 DUP2 MSTORE PUSH1 0x20 ADD PUSH1 0x0 KECCAK256 PUSH1 0x0 SWAP1 SLOAD SWAP1 PUSH2 0x100 EXP SWAP1 DIV PUSH20 0xFFFFFFFFFFFFFFFFFFFFFFFFFFFFFFFFFFFFFFFF AND SWAP1 POP SWAP2 SWAP1 POP JUMP JUMPDEST PUSH1 0x0 JUMPDEST DUP3 DUP3 SWAP1 POP DUP2 LT ISZERO PUSH2 0x1E0 JUMPI PUSH1 0x0 DUP4 DUP4 DUP4 DUP2 DUP2 LT PUSH2 0x10B JUMPI INVALID JUMPDEST SWAP1 POP PUSH1 0x20 MUL ADD PUSH1 0x20 DUP2 ADD SWAP1 PUSH2 0x120 SWAP2 SWAP1 PUSH2 0x1F2 JUMP JUMPDEST SWAP1 POP DUP1 PUSH1 0x40 MLOAD PUSH2 0x12F SWAP1 PUSH2 0x1E5 JUMP JUMPDEST PUSH2 0x139 SWAP2 SWAP1 PUSH2 0x292 JUMP JUMPDEST PUSH1 0x40 MLOAD DUP1 SWAP2 SUB SWAP1 PUSH1 0x0 CREATE DUP1 ISZERO DUP1 ISZERO PUSH2 0x155 JUMPI RETURNDATASIZE PUSH1 0x0 DUP1 RETURNDATACOPY RETURNDATASIZE PUSH1 0x0 REVERT JUMPDEST POP PUSH1 0x0 DUP1 DUP4 PUSH20 0xFFFFFFFFFFFFFFFFFFFFFFFFFFFFFFFFFFFFFFFF AND PUSH20 0xFFFFFFFFFFFFFFFFFFFFFFFFFFFFFFFFFFFFFFFF AND DUP2 MSTORE PUSH1 0x20 ADD SWAP1 DUP2 MSTORE PUSH1 0x20 ADD PUSH1 0x0 KECCAK256 PUSH1 0x0 PUSH2 0x100 EXP DUP2 SLOAD DUP2 PUSH20 0xFFFFFFFFFFFFFFFFFFFFFFFFFFFFFFFFFFFFFFFF MUL NOT AND SWAP1 DUP4 PUSH20 0xFFFFFFFFFFFFFFFFFFFFFFFFFFFFFFFFFFFFFFFF AND MUL OR SWAP1 SSTORE POP POP DUP1 DUP1 PUSH1 0x1 ADD SWAP2 POP POP PUSH2 0xF2 JUMP JUMPDEST POP POP POP JUMP JUMPDEST PUSH2 0x888 DUP1 PUSH2 0x2AC DUP4 CODECOPY ADD SWAP1 JUMP JUMPDEST PUSH1 0x0 PUSH1 0x20 DUP3 DUP5 SUB SLT ISZERO PUSH2 0x203 JUMPI DUP1 DUP2 REVERT JUMPDEST DUP2 CALLDATALOAD PUSH1 0x1 DUP1 PUSH1 0xA0 SHL SUB DUP2 AND DUP2 EQ PUSH2 0x218 JUMPI DUP2 DUP3 REVERT JUMPDEST DUP1 SWAP2 POP POP SWAP3 SWAP2 POP POP JUMP JUMPDEST PUSH1 0x0 DUP1 PUSH1 0x20 DUP4 DUP6 SUB SLT ISZERO PUSH2 0x234 JUMPI DUP1 DUP2 REVERT JUMPDEST DUP3 CALLDATALOAD PUSH8 0xFFFFFFFFFFFFFFFF DUP1 DUP3 GT ISZERO PUSH2 0x24B JUMPI DUP3 DUP4 REVERT JUMPDEST DUP2 DUP6 ADD SWAP2 POP DUP6 PUSH1 0x1F DUP4 ADD SLT PUSH2 0x25E JUMPI DUP3 DUP4 REVERT JUMPDEST DUP2 CALLDATALOAD DUP2 DUP2 GT ISZERO PUSH2 0x26C JUMPI DUP4 DUP5 REVERT JUMPDEST DUP7 PUSH1 0x20 DUP1 DUP4 MUL DUP6 ADD ADD GT ISZERO PUSH2 0x27F JUMPI DUP4 DUP5 REVERT JUMPDEST PUSH1 0x20 DUP4 ADD SWAP5 POP DUP1 SWAP4 POP POP POP POP SWAP3 POP SWAP3 SWAP1 POP JUMP JUMPDEST PUSH1 0x0 PUSH1 0x20 DUP3 ADD SWAP1 POP PUSH1 0x1 DUP1 PUSH1 0xA0 SHL SUB DUP4 AND DUP3 MSTORE SWAP3 SWAP2 POP POP JUMP INVALID PUSH1 0x80 PUSH1 0x40 MSTORE CALLVALUE DUP1 ISZERO PUSH2 0x10 JUMPI PUSH1 0x0 DUP1 REVERT JUMPDEST POP PUSH1 0x40 MLOAD PUSH2 0x888 CODESIZE SUB DUP1 PUSH2 0x888 DUP4 CODECOPY DUP2 DUP2 ADD PUSH1 0x40 MSTORE DUP2 ADD SWAP1 PUSH2 0x32 SWAP2 SWAP1 PUSH2 0xCA JUMP JUMPDEST DUP1 PUSH1 0x0 DUP1 PUSH2 0x100 EXP DUP2 SLOAD DUP2 PUSH20 0xFFFFFFFFFFFFFFFFFFFFFFFFFFFFFFFFFFFFFFFF MUL NOT AND SWAP1 DUP4 PUSH20 0xFFFFFFFFFFFFFFFFFFFFFFFFFFFFFFFFFFFFFFFF AND MUL OR SWAP1 SSTORE POP PUSH32 0x1D6A6A0506B0B4A554B907A4C29D9F4674E461989D9C1921FEB17B26716385AB PUSH1 0x0 SHL DUP2 PUSH1 0x40 MLOAD PUSH1 0x20 ADD PUSH2 0xA8 SWAP3 SWAP2 SWAP1 PUSH2 0xFA JUMP JUMPDEST PUSH1 0x40 MLOAD PUSH1 0x20 DUP2 DUP4 SUB SUB DUP2 MSTORE SWAP1 PUSH1 0x40 MSTORE DUP1 MLOAD SWAP1 PUSH1 0x20 ADD KECCAK256 PUSH1 0x1 DUP2 SWAP1 SSTORE POP POP PUSH2 0x11E JUMP JUMPDEST PUSH1 0x0 PUSH1 0x20 DUP3 DUP5 SUB SLT ISZERO PUSH2 0xDB JUMPI DUP1 DUP2 REVERT JUMPDEST DUP2 MLOAD PUSH1 0x1 DUP1 PUSH1 0xA0 SHL SUB DUP2 AND DUP2 EQ PUSH2 0xF0 JUMPI DUP2 DUP3 REVERT JUMPDEST DUP1 SWAP2 POP POP SWAP3 SWAP2 POP POP JUMP JUMPDEST PUSH1 0x0 DUP4 DUP3 MSTORE PUSH1 0x1 DUP1 PUSH1 0x60 SHL SUB NOT DUP4 PUSH1 0x60 SHL AND PUSH1 0x20 DUP4 ADD MSTORE PUSH1 0x34 DUP3 ADD SWAP1 POP SWAP4 SWAP3 POP POP POP JUMP JUMPDEST PUSH2 0x75B DUP1 PUSH2 0x12D PUSH1 0x0 CODECOPY PUSH1 0x0 RETURN INVALID PUSH1 0x80 PUSH1 0x40 MSTORE PUSH1 0x4 CALLDATASIZE LT PUSH2 0x7B JUMPI PUSH1 0x0 CALLDATALOAD PUSH1 0xE0 SHR DUP1 PUSH4 0x9D76EA58 GT PUSH2 0x4E JUMPI DUP1 PUSH4 0x9D76EA58 EQ PUSH2 0x141 JUMPI DUP1 PUSH4 0xBFA0B133 EQ PUSH2 0x16C JUMPI DUP1 PUSH4 0xCD72D789 EQ PUSH2 0x197 JUMPI DUP1 PUSH4 0xCD7724C3 EQ PUSH2 0x1C2 JUMPI PUSH2 0x7B JUMP JUMPDEST DUP1 PUSH4 0x11F2928B EQ PUSH2 0x80 JUMPI DUP1 PUSH4 0x2640F62C EQ PUSH2 0x8A JUMPI DUP1 PUSH4 0x59E94862 EQ PUSH2 0xC7 JUMPI DUP1 PUSH4 0x95B68FE7 EQ PUSH2 0x104 JUMPI JUMPDEST PUSH1 0x0 DUP1 REVERT JUMPDEST PUSH2 0x88 PUSH2 0x1FF JUMP JUMPDEST STOP JUMPDEST CALLVALUE DUP1 ISZERO PUSH2 0x96 JUMPI PUSH1 0x0 DUP1 REVERT JUMPDEST POP PUSH2 0xB1 PUSH1 0x4 DUP1 CALLDATASIZE SUB DUP2 ADD SWAP1 PUSH2 0xAC SWAP2 SWAP1 PUSH2 0x61D JUMP JUMPDEST PUSH2 0x25C JUMP JUMPDEST PUSH1 0x40 MLOAD PUSH2 0xBE SWAP2 SWAP1 PUSH2 0x714 JUMP JUMPDEST PUSH1 0x40 MLOAD DUP1 SWAP2 SUB SWAP1 RETURN JUMPDEST CALLVALUE DUP1 ISZERO PUSH2 0xD3 JUMPI PUSH1 0x0 DUP1 REVERT JUMPDEST POP PUSH2 0xEE PUSH1 0x4 DUP1 CALLDATASIZE SUB DUP2 ADD SWAP1 PUSH2 0xE9 SWAP2 SWAP1 PUSH2 0x61D JUMP JUMPDEST PUSH2 0x2A2 JUMP JUMPDEST PUSH1 0x40 MLOAD PUSH2 0xFB SWAP2 SWAP1 PUSH2 0x714 JUMP JUMPDEST PUSH1 0x40 MLOAD DUP1 SWAP2 SUB SWAP1 RETURN JUMPDEST CALLVALUE DUP1 ISZERO PUSH2 0x110 JUMPI PUSH1 0x0 DUP1 REVERT JUMPDEST POP PUSH2 0x12B PUSH1 0x4 DUP1 CALLDATASIZE SUB DUP2 ADD SWAP1 PUSH2 0x126 SWAP2 SWAP1 PUSH2 0x61D JUMP JUMPDEST PUSH2 0x2E8 JUMP JUMPDEST PUSH1 0x40 MLOAD PUSH2 0x138 SWAP2 SWAP1 PUSH2 0x714 JUMP JUMPDEST PUSH1 0x40 MLOAD DUP1 SWAP2 SUB SWAP1 RETURN JUMPDEST CALLVALUE DUP1 ISZERO PUSH2 0x14D JUMPI PUSH1 0x0 DUP1 REVERT JUMPDEST POP PUSH2 0x156 PUSH2 0x32E JUMP JUMPDEST PUSH1 0x40 MLOAD PUSH2 0x163 SWAP2 SWAP1 PUSH2 0x693 JUMP JUMPDEST PUSH1 0x40 MLOAD DUP1 SWAP2 SUB SWAP1 RETURN JUMPDEST CALLVALUE DUP1 ISZERO PUSH2 0x178 JUMPI PUSH1 0x0 DUP1 REVERT JUMPDEST POP PUSH2 0x181 PUSH2 0x352 JUMP JUMPDEST PUSH1 0x40 MLOAD PUSH2 0x18E SWAP2 SWAP1 PUSH2 0x6C5 JUMP JUMPDEST PUSH1 0x40 MLOAD DUP1 SWAP2 SUB SWAP1 RETURN JUMPDEST CALLVALUE DUP1 ISZERO PUSH2 0x1A3 JUMPI PUSH1 0x0 DUP1 REVERT JUMPDEST POP PUSH2 0x1AC PUSH2 0x358 JUMP JUMPDEST PUSH1 0x40 MLOAD PUSH2 0x1B9 SWAP2 SWAP1 PUSH2 0x6AC JUMP JUMPDEST PUSH1 0x40 MLOAD DUP1 SWAP2 SUB SWAP1 RETURN JUMPDEST CALLVALUE DUP1 ISZERO PUSH2 0x1CE JUMPI PUSH1 0x0 DUP1 REVERT JUMPDEST POP PUSH2 0x1E9 PUSH1 0x4 DUP1 CALLDATASIZE SUB DUP2 ADD SWAP1 PUSH2 0x1E4 SWAP2 SWAP1 PUSH2 0x61D JUMP JUMPDEST PUSH2 0x370 JUMP JUMPDEST PUSH1 0x40 MLOAD PUSH2 0x1F6 SWAP2 SWAP1 PUSH2 0x714 JUMP JUMPDEST PUSH1 0x40 MLOAD DUP1 SWAP2 SUB SWAP1 RETURN JUMPDEST PUSH20 0xE9DB8717BC5DFB20AAF538B4A5A02B7791FF430C PUSH20 0xFFFFFFFFFFFFFFFFFFFFFFFFFFFFFFFFFFFFFFFF AND PUSH2 0x8FC CALLVALUE SWAP1 DUP2 ISZERO MUL SWAP1 PUSH1 0x40 MLOAD PUSH1 0x0 PUSH1 0x40 MLOAD DUP1 DUP4 SUB DUP2 DUP6 DUP9 DUP9 CALL SWAP4 POP POP POP POP ISZERO DUP1 ISZERO PUSH2 0x259 JUMPI RETURNDATASIZE PUSH1 0x0 DUP1 RETURNDATACOPY RETURNDATASIZE PUSH1 0x0 REVERT JUMPDEST POP JUMP JUMPDEST PUSH1 0x0 PUSH2 0x266 PUSH2 0x3B6 JUMP JUMPDEST PUSH2 0x29B PUSH1 0x1 SLOAD PUSH2 0x274 PUSH2 0x426 JUMP JUMPDEST PUSH1 0x0 DUP1 SLOAD SWAP1 PUSH2 0x100 EXP SWAP1 DIV PUSH20 0xFFFFFFFFFFFFFFFFFFFFFFFFFFFFFFFFFFFFFFFF AND DUP6 PUSH2 0x442 JUMP JUMPDEST SWAP1 POP SWAP2 SWAP1 POP JUMP JUMPDEST PUSH1 0x0 PUSH2 0x2AC PUSH2 0x3B6 JUMP JUMPDEST PUSH2 0x2E1 PUSH1 0x1 SLOAD PUSH2 0x2BA PUSH2 0x426 JUMP JUMPDEST PUSH1 0x0 DUP1 SLOAD SWAP1 PUSH2 0x100 EXP SWAP1 DIV PUSH20 0xFFFFFFFFFFFFFFFFFFFFFFFFFFFFFFFFFFFFFFFF AND DUP6 PUSH2 0x442 JUMP JUMPDEST SWAP1 POP SWAP2 SWAP1 POP JUMP JUMPDEST PUSH1 0x0 PUSH2 0x2F2 PUSH2 0x3B6 JUMP JUMPDEST PUSH2 0x327 PUSH1 0x1 SLOAD PUSH1 0x0 DUP1 SLOAD SWAP1 PUSH2 0x100 EXP SWAP1 DIV PUSH20 0xFFFFFFFFFFFFFFFFFFFFFFFFFFFFFFFFFFFFFFFF AND PUSH2 0x321 PUSH2 0x426 JUMP JUMPDEST DUP6 PUSH2 0x4A4 JUMP JUMPDEST SWAP1 POP SWAP2 SWAP1 POP JUMP JUMPDEST PUSH1 0x0 DUP1 SLOAD SWAP1 PUSH2 0x100 EXP SWAP1 DIV PUSH20 0xFFFFFFFFFFFFFFFFFFFFFFFFFFFFFFFFFFFFFFFF AND DUP2 JUMP JUMPDEST PUSH1 0x1 SLOAD DUP2 JUMP JUMPDEST PUSH20 0xE9DB8717BC5DFB20AAF538B4A5A02B7791FF430C DUP2 JUMP JUMPDEST PUSH1 0x0 PUSH2 0x37A PUSH2 0x3B6 JUMP JUMPDEST PUSH2 0x3AF PUSH1 0x1 SLOAD PUSH1 0x0 DUP1 SLOAD SWAP1 PUSH2 0x100 EXP SWAP1 DIV PUSH20 0xFFFFFFFFFFFFFFFFFFFFFFFFFFFFFFFFFFFFFFFF AND PUSH2 0x3A9 PUSH2 0x426 JUMP JUMPDEST DUP6 PUSH2 0x4A4 JUMP JUMPDEST SWAP1 POP SWAP2 SWAP1 POP JUMP JUMPDEST PUSH1 0x0 PUSH20 0xE9DB8717BC5DFB20AAF538B4A5A02B7791FF430C PUSH20 0xFFFFFFFFFFFFFFFFFFFFFFFFFFFFFFFFFFFFFFFF AND BALANCE EQ PUSH2 0x424 JUMPI PUSH1 0x40 MLOAD PUSH32 0x8C379A000000000000000000000000000000000000000000000000000000000 DUP2 MSTORE PUSH1 0x4 ADD PUSH2 0x41B SWAP1 PUSH2 0x6D6 JUMP JUMPDEST PUSH1 0x40 MLOAD DUP1 SWAP2 SUB SWAP1 REVERT JUMPDEST JUMP JUMPDEST PUSH1 0x0 PUSH20 0xC02AAA39B223FE8D0A0E5C4F27EAD9083C756CC2 SWAP1 POP SWAP1 JUMP JUMPDEST PUSH1 0x0 DUP1 PUSH2 0x44E DUP6 PUSH2 0x506 JUMP JUMPDEST PUSH1 0xFF AND PUSH1 0xA EXP SWAP1 POP PUSH1 0x0 PUSH2 0x461 DUP6 PUSH2 0x506 JUMP JUMPDEST PUSH1 0xFF AND PUSH1 0xA EXP SWAP1 POP PUSH1 0x0 PUSH2 0x476 DUP9 DUP9 DUP9 PUSH2 0x5A3 JUMP JUMPDEST SWAP1 POP DUP2 DUP2 DUP5 PUSH8 0xDE0B6B3A7640000 DUP9 MUL MUL DUP2 PUSH2 0x48E JUMPI INVALID JUMPDEST DIV DUP2 PUSH2 0x496 JUMPI INVALID JUMPDEST DIV SWAP4 POP POP POP POP SWAP5 SWAP4 POP POP POP POP JUMP JUMPDEST PUSH1 0x0 DUP1 PUSH2 0x4B0 DUP6 PUSH2 0x506 JUMP JUMPDEST PUSH1 0xFF AND PUSH1 0xA EXP SWAP1 POP PUSH1 0x0 PUSH2 0x4C3 DUP6 PUSH2 0x506 JUMP JUMPDEST PUSH1 0xFF AND PUSH1 0xA EXP SWAP1 POP PUSH1 0x0 PUSH2 0x4D8 DUP9 DUP9 DUP9 PUSH2 0x5A3 JUMP JUMPDEST SWAP1 POP PUSH8 0xDE0B6B3A7640000 DUP4 DUP4 DUP4 DUP9 MUL MUL DUP2 PUSH2 0x4F0 JUMPI INVALID JUMPDEST DIV DUP2 PUSH2 0x4F8 JUMPI INVALID JUMPDEST DIV SWAP4 POP POP POP POP SWAP5 SWAP4 POP POP POP POP JUMP JUMPDEST PUSH1 0x0 PUSH20 0xC02AAA39B223FE8D0A0E5C4F27EAD9083C756CC2 PUSH20 0xFFFFFFFFFFFFFFFFFFFFFFFFFFFFFFFFFFFFFFFF AND DUP3 PUSH20 0xFFFFFFFFFFFFFFFFFFFFFFFFFFFFFFFFFFFFFFFF AND EQ ISZERO PUSH2 0x559 JUMPI PUSH1 0x12 SWAP1 POP PUSH2 0x59E JUMP JUMPDEST PUSH1 0x0 DUP3 PUSH1 0x40 MLOAD PUSH1 0x20 ADD PUSH2 0x56C SWAP2 SWAP1 PUSH2 0x638 JUMP JUMPDEST PUSH1 0x40 MLOAD PUSH1 0x20 DUP2 DUP4 SUB SUB DUP2 MSTORE SWAP1 PUSH1 0x40 MSTORE DUP1 MLOAD SWAP1 PUSH1 0x20 ADD KECCAK256 SWAP1 POP PUSH1 0x4 DUP1 PUSH1 0x14 SUB PUSH1 0xFF AND DUP3 PUSH1 0x0 SHR DUP2 PUSH2 0x598 JUMPI INVALID JUMPDEST MOD ADD SWAP2 POP POP JUMPDEST SWAP2 SWAP1 POP JUMP JUMPDEST PUSH1 0x0 DUP1 DUP5 DUP5 DUP5 PUSH1 0x40 MLOAD PUSH1 0x20 ADD PUSH2 0x5BB SWAP4 SWAP3 SWAP2 SWAP1 PUSH2 0x65B JUMP JUMPDEST PUSH1 0x40 MLOAD PUSH1 0x20 DUP2 DUP4 SUB SUB DUP2 MSTORE SWAP1 PUSH1 0x40 MSTORE DUP1 MLOAD SWAP1 PUSH1 0x20 ADD KECCAK256 SWAP1 POP PUSH1 0x64 PUSH8 0xDE0B6B3A7640000 DUP2 PUSH2 0x5E5 JUMPI INVALID JUMPDEST DIV PUSH1 0x64 PUSH8 0xDE0B6B3A7640000 DUP2 PUSH2 0x5F8 JUMPI INVALID JUMPDEST DIV PUSH8 0xDE0B6B3A7640000 PUSH1 0x64 MUL SUB DUP3 PUSH1 0x0 SHR DUP2 PUSH2 0x611 JUMPI INVALID JUMPDEST MOD ADD SWAP2 POP POP SWAP4 SWAP3 POP POP POP JUMP JUMPDEST PUSH1 0x0 PUSH1 0x20 DUP3 DUP5 SUB SLT ISZERO PUSH2 0x62E JUMPI DUP1 DUP2 REVERT JUMPDEST DUP2 CALLDATALOAD SWAP1 POP SWAP3 SWAP2 POP POP JUMP JUMPDEST PUSH1 0x0 PUSH12 0xFFFFFFFFFFFFFFFFFFFFFFFF NOT DUP4 PUSH1 0x60 SHL AND DUP3 MSTORE PUSH1 0x14 DUP3 ADD SWAP1 POP SWAP3 SWAP2 POP POP JUMP JUMPDEST PUSH1 0x0 DUP5 DUP3 MSTORE PUSH12 0xFFFFFFFFFFFFFFFFFFFFFFFF NOT DUP1 DUP6 PUSH1 0x60 SHL AND PUSH1 0x20 DUP5 ADD MSTORE DUP1 DUP5 PUSH1 0x60 SHL AND PUSH1 0x34 DUP5 ADD MSTORE POP PUSH1 0x48 DUP3 ADD SWAP1 POP SWAP5 SWAP4 POP POP POP POP JUMP JUMPDEST PUSH1 0x0 PUSH1 0x20 DUP3 ADD SWAP1 POP PUSH1 0x1 DUP1 PUSH1 0xA0 SHL SUB DUP4 AND DUP3 MSTORE SWAP3 SWAP2 POP POP JUMP JUMPDEST PUSH1 0x0 PUSH1 0x20 DUP3 ADD SWAP1 POP PUSH1 0x1 DUP1 PUSH1 0xA0 SHL SUB DUP4 AND DUP3 MSTORE SWAP3 SWAP2 POP POP JUMP JUMPDEST PUSH1 0x0 PUSH1 0x20 DUP3 ADD SWAP1 POP DUP3 DUP3 MSTORE SWAP3 SWAP2 POP POP JUMP JUMPDEST PUSH1 0x0 PUSH1 0x20 DUP3 MSTORE PUSH1 0xE PUSH1 0x20 DUP4 ADD MSTORE PUSH32 0x4641494C5F545249474745524544000000000000000000000000000000000000 PUSH1 0x40 DUP4 ADD MSTORE PUSH1 0x60 DUP3 ADD SWAP1 POP SWAP2 SWAP1 POP JUMP JUMPDEST PUSH1 0x0 PUSH1 0x20 DUP3 ADD SWAP1 POP DUP3 DUP3 MSTORE SWAP3 SWAP2 POP POP JUMP INVALID LOG2 PUSH5 0x6970667358 0x22 SLT KECCAK256 DUP7 0xEA STATICCALL SWAP8 0xCA COINBASE OR SIGNEXTEND PUSH31 0x1AA6D684C9ED3874745E7EBB63924B86ACC53E754A2E0D64736F6C63430006 0xC STOP CALLER LOG2 PUSH5 0x6970667358 0x22 SLT KECCAK256 PUSH7 0x44591640F1370E 0xC9 0xD7 0x2C PUSH21 0x747C34C051507033A12AD425311C55905BC0F20464 PUSH20 0x6F6C634300060C00336080604052348015610010 JUMPI PUSH1 0x0 DUP1 REVERT JUMPDEST POP PUSH2 0x8CE DUP1 PUSH2 0x20 PUSH1 0x0 CODECOPY PUSH1 0x0 RETURN INVALID PUSH1 0x80 PUSH1 0x40 MSTORE PUSH1 0x4 CALLDATASIZE LT PUSH2 0x3F JUMPI PUSH1 0x0 CALLDATALOAD PUSH1 0xE0 SHR DUP1 PUSH4 0x11F2928B EQ PUSH2 0x44 JUMPI DUP1 PUSH4 0x1F00CA74 EQ PUSH2 0x4E JUMPI DUP1 PUSH4 0xCD72D789 EQ PUSH2 0x8B JUMPI DUP1 PUSH4 0xD06CA61F EQ PUSH2 0xB6 JUMPI JUMPDEST PUSH1 0x0 DUP1 REVERT JUMPDEST PUSH2 0x4C PUSH2 0xF3 JUMP JUMPDEST STOP JUMPDEST CALLVALUE DUP1 ISZERO PUSH2 0x5A JUMPI PUSH1 0x0 DUP1 REVERT JUMPDEST POP PUSH2 0x75 PUSH1 0x4 DUP1 CALLDATASIZE SUB DUP2 ADD SWAP1 PUSH2 0x70 SWAP2 SWAP1 PUSH2 0x6E3 JUMP JUMPDEST PUSH2 0x150 JUMP JUMPDEST PUSH1 0x40 MLOAD PUSH2 0x82 SWAP2 SWAP1 PUSH2 0x7D0 JUMP JUMPDEST PUSH1 0x40 MLOAD DUP1 SWAP2 SUB SWAP1 RETURN JUMPDEST CALLVALUE DUP1 ISZERO PUSH2 0x97 JUMPI PUSH1 0x0 DUP1 REVERT JUMPDEST POP PUSH2 0xA0 PUSH2 0x2D5 JUMP JUMPDEST PUSH1 0x40 MLOAD PUSH2 0xAD SWAP2 SWAP1 PUSH2 0x7B7 JUMP JUMPDEST PUSH1 0x40 MLOAD DUP1 SWAP2 SUB SWAP1 RETURN JUMPDEST CALLVALUE DUP1 ISZERO PUSH2 0xC2 JUMPI PUSH1 0x0 DUP1 REVERT JUMPDEST POP PUSH2 0xDD PUSH1 0x4 DUP1 CALLDATASIZE SUB DUP2 ADD SWAP1 PUSH2 0xD8 SWAP2 SWAP1 PUSH2 0x6E3 JUMP JUMPDEST PUSH2 0x2ED JUMP JUMPDEST PUSH1 0x40 MLOAD PUSH2 0xEA SWAP2 SWAP1 PUSH2 0x7D0 JUMP JUMPDEST PUSH1 0x40 MLOAD DUP1 SWAP2 SUB SWAP1 RETURN JUMPDEST PUSH20 0xE9DB8717BC5DFB20AAF538B4A5A02B7791FF430C PUSH20 0xFFFFFFFFFFFFFFFFFFFFFFFFFFFFFFFFFFFFFFFF AND PUSH2 0x8FC CALLVALUE SWAP1 DUP2 ISZERO MUL SWAP1 PUSH1 0x40 MLOAD PUSH1 0x0 PUSH1 0x40 MLOAD DUP1 DUP4 SUB DUP2 DUP6 DUP9 DUP9 CALL SWAP4 POP POP POP POP ISZERO DUP1 ISZERO PUSH2 0x14D JUMPI RETURNDATASIZE PUSH1 0x0 DUP1 RETURNDATACOPY RETURNDATASIZE PUSH1 0x0 REVERT JUMPDEST POP JUMP JUMPDEST PUSH1 0x60 PUSH1 0x2 DUP4 DUP4 SWAP1 POP LT ISZERO PUSH2 0x199 JUMPI PUSH1 0x40 MLOAD PUSH32 0x8C379A000000000000000000000000000000000000000000000000000000000 DUP2 MSTORE PUSH1 0x4 ADD PUSH2 0x190 SWAP1 PUSH2 0x85A JUMP JUMPDEST PUSH1 0x40 MLOAD DUP1 SWAP2 SUB SWAP1 REVERT JUMPDEST PUSH2 0x1A1 PUSH2 0x468 JUMP JUMPDEST DUP3 DUP3 SWAP1 POP PUSH8 0xFFFFFFFFFFFFFFFF DUP2 GT DUP1 ISZERO PUSH2 0x1BB JUMPI PUSH1 0x0 DUP1 REVERT JUMPDEST POP PUSH1 0x40 MLOAD SWAP1 DUP1 DUP3 MSTORE DUP1 PUSH1 0x20 MUL PUSH1 0x20 ADD DUP3 ADD PUSH1 0x40 MSTORE DUP1 ISZERO PUSH2 0x1EA JUMPI DUP2 PUSH1 0x20 ADD PUSH1 0x20 DUP3 MUL DUP1 CALLDATASIZE DUP4 CALLDATACOPY DUP1 DUP3 ADD SWAP2 POP POP SWAP1 POP JUMPDEST POP SWAP1 POP DUP4 DUP2 PUSH1 0x1 DUP6 DUP6 SWAP1 POP SUB DUP2 MLOAD DUP2 LT PUSH2 0x200 JUMPI INVALID JUMPDEST PUSH1 0x20 MUL PUSH1 0x20 ADD ADD DUP2 DUP2 MSTORE POP POP PUSH1 0x0 PUSH1 0x1 DUP5 DUP5 SWAP1 POP SUB SWAP1 POP JUMPDEST PUSH1 0x0 DUP2 GT ISZERO PUSH2 0x2CD JUMPI PUSH2 0x2A6 PUSH32 0xADC7FCB33C735913B8635927E66896B356A53A912AB2CEFF929E60A04B53B3C1 PUSH1 0x0 SHL DUP6 DUP6 PUSH1 0x1 DUP6 SUB DUP2 DUP2 LT PUSH2 0x257 JUMPI INVALID JUMPDEST SWAP1 POP PUSH1 0x20 MUL ADD PUSH1 0x20 DUP2 ADD SWAP1 PUSH2 0x26C SWAP2 SWAP1 PUSH2 0x6B3 JUMP JUMPDEST DUP7 DUP7 DUP6 DUP2 DUP2 LT PUSH2 0x278 JUMPI INVALID JUMPDEST SWAP1 POP PUSH1 0x20 MUL ADD PUSH1 0x20 DUP2 ADD SWAP1 PUSH2 0x28D SWAP2 SWAP1 PUSH2 0x6B3 JUMP JUMPDEST DUP6 DUP6 DUP2 MLOAD DUP2 LT PUSH2 0x299 JUMPI INVALID JUMPDEST PUSH1 0x20 MUL PUSH1 0x20 ADD ADD MLOAD PUSH2 0x4D8 JUMP JUMPDEST DUP3 PUSH1 0x1 DUP4 SUB DUP2 MLOAD DUP2 LT PUSH2 0x2B5 JUMPI INVALID JUMPDEST PUSH1 0x20 MUL PUSH1 0x20 ADD ADD DUP2 DUP2 MSTORE POP POP DUP1 PUSH1 0x1 SWAP1 SUB SWAP1 POP PUSH2 0x218 JUMP JUMPDEST POP SWAP4 SWAP3 POP POP POP JUMP JUMPDEST PUSH20 0xE9DB8717BC5DFB20AAF538B4A5A02B7791FF430C DUP2 JUMP JUMPDEST PUSH1 0x60 PUSH1 0x2 DUP4 DUP4 SWAP1 POP LT ISZERO PUSH2 0x336 JUMPI PUSH1 0x40 MLOAD PUSH32 0x8C379A000000000000000000000000000000000000000000000000000000000 DUP2 MSTORE PUSH1 0x4 ADD PUSH2 0x32D SWAP1 PUSH2 0x85A JUMP JUMPDEST PUSH1 0x40 MLOAD DUP1 SWAP2 SUB SWAP1 REVERT JUMPDEST PUSH2 0x33E PUSH2 0x468 JUMP JUMPDEST DUP3 DUP3 SWAP1 POP PUSH8 0xFFFFFFFFFFFFFFFF DUP2 GT DUP1 ISZERO PUSH2 0x358 JUMPI PUSH1 0x0 DUP1 REVERT JUMPDEST POP PUSH1 0x40 MLOAD SWAP1 DUP1 DUP3 MSTORE DUP1 PUSH1 0x20 MUL PUSH1 0x20 ADD DUP3 ADD PUSH1 0x40 MSTORE DUP1 ISZERO PUSH2 0x387 JUMPI DUP2 PUSH1 0x20 ADD PUSH1 0x20 DUP3 MUL DUP1 CALLDATASIZE DUP4 CALLDATACOPY DUP1 DUP3 ADD SWAP2 POP POP SWAP1 POP JUMPDEST POP SWAP1 POP DUP4 DUP2 PUSH1 0x0 DUP2 MLOAD DUP2 LT PUSH2 0x398 JUMPI INVALID JUMPDEST PUSH1 0x20 MUL PUSH1 0x20 ADD ADD DUP2 DUP2 MSTORE POP POP PUSH1 0x0 JUMPDEST PUSH1 0x1 DUP5 DUP5 SWAP1 POP SUB DUP2 LT ISZERO PUSH2 0x460 JUMPI PUSH2 0x43A PUSH32 0xADC7FCB33C735913B8635927E66896B356A53A912AB2CEFF929E60A04B53B3C1 PUSH1 0x0 SHL DUP6 DUP6 DUP5 DUP2 DUP2 LT PUSH2 0x3E8 JUMPI INVALID JUMPDEST SWAP1 POP PUSH1 0x20 MUL ADD PUSH1 0x20 DUP2 ADD SWAP1 PUSH2 0x3FD SWAP2 SWAP1 PUSH2 0x6B3 JUMP JUMPDEST DUP7 DUP7 PUSH1 0x1 DUP7 ADD DUP2 DUP2 LT PUSH2 0x40C JUMPI INVALID JUMPDEST SWAP1 POP PUSH1 0x20 MUL ADD PUSH1 0x20 DUP2 ADD SWAP1 PUSH2 0x421 SWAP2 SWAP1 PUSH2 0x6B3 JUMP JUMPDEST DUP6 DUP6 DUP2 MLOAD DUP2 LT PUSH2 0x42D JUMPI INVALID JUMPDEST PUSH1 0x20 MUL PUSH1 0x20 ADD ADD MLOAD PUSH2 0x53A JUMP JUMPDEST DUP3 PUSH1 0x1 DUP4 ADD DUP2 MLOAD DUP2 LT PUSH2 0x449 JUMPI INVALID JUMPDEST PUSH1 0x20 MUL PUSH1 0x20 ADD ADD DUP2 DUP2 MSTORE POP POP DUP1 PUSH1 0x1 ADD SWAP1 POP PUSH2 0x3A7 JUMP JUMPDEST POP SWAP4 SWAP3 POP POP POP JUMP JUMPDEST PUSH1 0x0 PUSH20 0xE9DB8717BC5DFB20AAF538B4A5A02B7791FF430C PUSH20 0xFFFFFFFFFFFFFFFFFFFFFFFFFFFFFFFFFFFFFFFF AND BALANCE EQ PUSH2 0x4D6 JUMPI PUSH1 0x40 MLOAD PUSH32 0x8C379A000000000000000000000000000000000000000000000000000000000 DUP2 MSTORE PUSH1 0x4 ADD PUSH2 0x4CD SWAP1 PUSH2 0x81C JUMP JUMPDEST PUSH1 0x40 MLOAD DUP1 SWAP2 SUB SWAP1 REVERT JUMPDEST JUMP JUMPDEST PUSH1 0x0 DUP1 PUSH2 0x4E4 DUP6 PUSH2 0x59C JUMP JUMPDEST PUSH1 0xFF AND PUSH1 0xA EXP SWAP1 POP PUSH1 0x0 PUSH2 0x4F7 DUP6 PUSH2 0x59C JUMP JUMPDEST PUSH1 0xFF AND PUSH1 0xA EXP SWAP1 POP PUSH1 0x0 PUSH2 0x50C DUP9 DUP9 DUP9 PUSH2 0x639 JUMP JUMPDEST SWAP1 POP DUP2 DUP2 DUP5 PUSH8 0xDE0B6B3A7640000 DUP9 MUL MUL DUP2 PUSH2 0x524 JUMPI INVALID JUMPDEST DIV DUP2 PUSH2 0x52C JUMPI INVALID JUMPDEST DIV SWAP4 POP POP POP POP SWAP5 SWAP4 POP POP POP POP JUMP JUMPDEST PUSH1 0x0 DUP1 PUSH2 0x546 DUP6 PUSH2 0x59C JUMP JUMPDEST PUSH1 0xFF AND PUSH1 0xA EXP SWAP1 POP PUSH1 0x0 PUSH2 0x559 DUP6 PUSH2 0x59C JUMP JUMPDEST PUSH1 0xFF AND PUSH1 0xA EXP SWAP1 POP PUSH1 0x0 PUSH2 0x56E DUP9 DUP9 DUP9 PUSH2 0x639 JUMP JUMPDEST SWAP1 POP PUSH8 0xDE0B6B3A7640000 DUP4 DUP4 DUP4 DUP9 MUL MUL DUP2 PUSH2 0x586 JUMPI INVALID JUMPDEST DIV DUP2 PUSH2 0x58E JUMPI INVALID JUMPDEST DIV SWAP4 POP POP POP POP SWAP5 SWAP4 POP POP POP POP JUMP JUMPDEST PUSH1 0x0 PUSH20 0xC02AAA39B223FE8D0A0E5C4F27EAD9083C756CC2 PUSH20 0xFFFFFFFFFFFFFFFFFFFFFFFFFFFFFFFFFFFFFFFF AND DUP3 PUSH20 0xFFFFFFFFFFFFFFFFFFFFFFFFFFFFFFFFFFFFFFFF AND EQ ISZERO PUSH2 0x5EF JUMPI PUSH1 0x12 SWAP1 POP PUSH2 0x634 JUMP JUMPDEST PUSH1 0x0 DUP3 PUSH1 0x40 MLOAD PUSH1 0x20 ADD PUSH2 0x602 SWAP2 SWAP1 PUSH2 0x75C JUMP JUMPDEST PUSH1 0x40 MLOAD PUSH1 0x20 DUP2 DUP4 SUB SUB DUP2 MSTORE SWAP1 PUSH1 0x40 MSTORE DUP1 MLOAD SWAP1 PUSH1 0x20 ADD KECCAK256 SWAP1 POP PUSH1 0x4 DUP1 PUSH1 0x14 SUB PUSH1 0xFF AND DUP3 PUSH1 0x0 SHR DUP2 PUSH2 0x62E JUMPI INVALID JUMPDEST MOD ADD SWAP2 POP POP JUMPDEST SWAP2 SWAP1 POP JUMP JUMPDEST PUSH1 0x0 DUP1 DUP5 DUP5 DUP5 PUSH1 0x40 MLOAD PUSH1 0x20 ADD PUSH2 0x651 SWAP4 SWAP3 SWAP2 SWAP1 PUSH2 0x77F JUMP JUMPDEST PUSH1 0x40 MLOAD PUSH1 0x20 DUP2 DUP4 SUB SUB DUP2 MSTORE SWAP1 PUSH1 0x40 MSTORE DUP1 MLOAD SWAP1 PUSH1 0x20 ADD KECCAK256 SWAP1 POP PUSH1 0x64 PUSH8 0xDE0B6B3A7640000 DUP2 PUSH2 0x67B JUMPI INVALID JUMPDEST DIV PUSH1 0x64 PUSH8 0xDE0B6B3A7640000 DUP2 PUSH2 0x68E JUMPI INVALID JUMPDEST DIV PUSH8 0xDE0B6B3A7640000 PUSH1 0x64 MUL SUB DUP3 PUSH1 0x0 SHR DUP2 PUSH2 0x6A7 JUMPI INVALID JUMPDEST MOD ADD SWAP2 POP POP SWAP4 SWAP3 POP POP POP JUMP JUMPDEST PUSH1 0x0 PUSH1 0x20 DUP3 DUP5 SUB SLT ISZERO PUSH2 0x6C4 JUMPI DUP1 DUP2 REVERT JUMPDEST DUP2 CALLDATALOAD PUSH1 0x1 DUP1 PUSH1 0xA0 SHL SUB DUP2 AND DUP2 EQ PUSH2 0x6D9 JUMPI DUP2 DUP3 REVERT JUMPDEST DUP1 SWAP2 POP POP SWAP3 SWAP2 POP POP JUMP JUMPDEST PUSH1 0x0 DUP1 PUSH1 0x0 PUSH1 0x40 DUP5 DUP7 SUB SLT ISZERO PUSH2 0x6F7 JUMPI DUP2 DUP3 REVERT JUMPDEST DUP4 CALLDATALOAD SWAP3 POP PUSH1 0x20 DUP5 ADD CALLDATALOAD PUSH8 0xFFFFFFFFFFFFFFFF DUP1 DUP3 GT ISZERO PUSH2 0x715 JUMPI DUP4 DUP5 REVERT JUMPDEST DUP2 DUP7 ADD SWAP2 POP DUP7 PUSH1 0x1F DUP4 ADD SLT PUSH2 0x728 JUMPI DUP4 DUP5 REVERT JUMPDEST DUP2 CALLDATALOAD DUP2 DUP2 GT ISZERO PUSH2 0x736 JUMPI DUP5 DUP6 REVERT JUMPDEST DUP8 PUSH1 0x20 DUP1 DUP4 MUL DUP6 ADD ADD GT ISZERO PUSH2 0x749 JUMPI DUP5 DUP6 REVERT JUMPDEST PUSH1 0x20 DUP4 ADD SWAP5 POP DUP1 SWAP4 POP POP POP POP SWAP3 POP SWAP3 POP SWAP3 JUMP JUMPDEST PUSH1 0x0 PUSH12 0xFFFFFFFFFFFFFFFFFFFFFFFF NOT DUP4 PUSH1 0x60 SHL AND DUP3 MSTORE PUSH1 0x14 DUP3 ADD SWAP1 POP SWAP3 SWAP2 POP POP JUMP JUMPDEST PUSH1 0x0 DUP5 DUP3 MSTORE PUSH12 0xFFFFFFFFFFFFFFFFFFFFFFFF NOT DUP1 DUP6 PUSH1 0x60 SHL AND PUSH1 0x20 DUP5 ADD MSTORE DUP1 DUP5 PUSH1 0x60 SHL AND PUSH1 0x34 DUP5 ADD MSTORE POP PUSH1 0x48 DUP3 ADD SWAP1 POP SWAP5 SWAP4 POP POP POP POP JUMP JUMPDEST PUSH1 0x0 PUSH1 0x20 DUP3 ADD SWAP1 POP PUSH1 0x1 DUP1 PUSH1 0xA0 SHL SUB DUP4 AND DUP3 MSTORE SWAP3 SWAP2 POP POP JUMP JUMPDEST PUSH1 0x0 PUSH1 0x20 DUP1 DUP4 ADD DUP2 DUP5 MSTORE DUP1 DUP6 MLOAD DUP1 DUP4 MSTORE PUSH1 0x40 DUP7 ADD SWAP2 POP DUP4 DUP8 ADD SWAP3 POP DUP5 JUMPDEST DUP2 DUP2 LT ISZERO PUSH2 0x80E JUMPI DUP4 MLOAD DUP4 MSTORE DUP5 DUP4 ADD SWAP3 POP DUP5 DUP5 ADD SWAP4 POP PUSH1 0x1 DUP2 ADD SWAP1 POP PUSH2 0x7ED JUMP JUMPDEST POP POP DUP1 SWAP4 POP POP POP POP SWAP3 SWAP2 POP POP JUMP JUMPDEST PUSH1 0x0 PUSH1 0x20 DUP3 MSTORE PUSH1 0xE PUSH1 0x20 DUP4 ADD MSTORE PUSH32 0x4641494C5F545249474745524544000000000000000000000000000000000000 PUSH1 0x40 DUP4 ADD MSTORE PUSH1 0x60 DUP3 ADD SWAP1 POP SWAP2 SWAP1 POP JUMP JUMPDEST PUSH1 0x0 PUSH1 0x20 DUP3 MSTORE PUSH1 0xE PUSH1 0x20 DUP4 ADD MSTORE PUSH32 0x504154485F544F4F5F53484F5254000000000000000000000000000000000000 PUSH1 0x40 DUP4 ADD MSTORE PUSH1 0x60 DUP3 ADD SWAP1 POP SWAP2 SWAP1 POP JUMP INVALID LOG2 PUSH5 0x6970667358 0x22 SLT KECCAK256 0xE5 0xD7 0x2B 0xB8 0x1E SELFBALANCE 0xE5 0xAB MULMOD 0x5D 0x4E 0xA6 RETURNDATACOPY 0x4B PUSH7 0x1E0F8E1F5281B9 0xC7 RETURN 0xCA 0x4E PUSH17 0x52C9971B1764736F6C634300060C003360 DUP1 PUSH1 0x40 MSTORE CALLVALUE DUP1 ISZERO PUSH2 0x10 JUMPI PUSH1 0x0 DUP1 REVERT JUMPDEST POP PUSH2 0x58A DUP1 PUSH2 0x20 PUSH1 0x0 CODECOPY PUSH1 0x0 RETURN INVALID PUSH1 0x80 PUSH1 0x40 MSTORE PUSH1 0x4 CALLDATASIZE LT PUSH2 0x3F JUMPI PUSH1 0x0 CALLDATALOAD PUSH1 0xE0 SHR DUP1 PUSH4 0x11F2928B EQ PUSH2 0x44 JUMPI DUP1 PUSH4 0x144A2752 EQ PUSH2 0x4E JUMPI DUP1 PUSH4 0xCD72D789 EQ PUSH2 0x8B JUMPI DUP1 PUSH4 0xFF1FD974 EQ PUSH2 0xB6 JUMPI JUMPDEST PUSH1 0x0 DUP1 REVERT JUMPDEST PUSH2 0x4C PUSH2 0xF3 JUMP JUMPDEST STOP JUMPDEST CALLVALUE DUP1 ISZERO PUSH2 0x5A JUMPI PUSH1 0x0 DUP1 REVERT JUMPDEST POP PUSH2 0x75 PUSH1 0x4 DUP1 CALLDATASIZE SUB DUP2 ADD SWAP1 PUSH2 0x70 SWAP2 SWAP1 PUSH2 0x437 JUMP JUMPDEST PUSH2 0x150 JUMP JUMPDEST PUSH1 0x40 MLOAD PUSH2 0x82 SWAP2 SWAP1 PUSH2 0x52C JUMP JUMPDEST PUSH1 0x40 MLOAD DUP1 SWAP2 SUB SWAP1 RETURN JUMPDEST CALLVALUE DUP1 ISZERO PUSH2 0x97 JUMPI PUSH1 0x0 DUP1 REVERT JUMPDEST POP PUSH2 0xA0 PUSH2 0x192 JUMP JUMPDEST PUSH1 0x40 MLOAD PUSH2 0xAD SWAP2 SWAP1 PUSH2 0x4D5 JUMP JUMPDEST PUSH1 0x40 MLOAD DUP1 SWAP2 SUB SWAP1 RETURN JUMPDEST CALLVALUE DUP1 ISZERO PUSH2 0xC2 JUMPI PUSH1 0x0 DUP1 REVERT JUMPDEST POP PUSH2 0xDD PUSH1 0x4 DUP1 CALLDATASIZE SUB DUP2 ADD SWAP1 PUSH2 0xD8 SWAP2 SWAP1 PUSH2 0x437 JUMP JUMPDEST PUSH2 0x1AA JUMP JUMPDEST PUSH1 0x40 MLOAD PUSH2 0xEA SWAP2 SWAP1 PUSH2 0x52C JUMP JUMPDEST PUSH1 0x40 MLOAD DUP1 SWAP2 SUB SWAP1 RETURN JUMPDEST PUSH20 0xE9DB8717BC5DFB20AAF538B4A5A02B7791FF430C PUSH20 0xFFFFFFFFFFFFFFFFFFFFFFFFFFFFFFFFFFFFFFFF AND PUSH2 0x8FC CALLVALUE SWAP1 DUP2 ISZERO MUL SWAP1 PUSH1 0x40 MLOAD PUSH1 0x0 PUSH1 0x40 MLOAD DUP1 DUP4 SUB DUP2 DUP6 DUP9 DUP9 CALL SWAP4 POP POP POP POP ISZERO DUP1 ISZERO PUSH2 0x14D JUMPI RETURNDATASIZE PUSH1 0x0 DUP1 RETURNDATACOPY RETURNDATASIZE PUSH1 0x0 REVERT JUMPDEST POP JUMP JUMPDEST PUSH1 0x0 PUSH2 0x15A PUSH2 0x1EC JUMP JUMPDEST PUSH2 0x189 PUSH32 0xB713B61BB9BB2958A0F5D1534B21E94FC68C4C0C034B0902ED844F2F6CD1B4F7 PUSH1 0x0 SHL DUP5 DUP7 DUP6 PUSH2 0x25C JUMP JUMPDEST SWAP1 POP SWAP4 SWAP3 POP POP POP JUMP JUMPDEST PUSH20 0xE9DB8717BC5DFB20AAF538B4A5A02B7791FF430C DUP2 JUMP JUMPDEST PUSH1 0x0 PUSH2 0x1B4 PUSH2 0x1EC JUMP JUMPDEST PUSH2 0x1E3 PUSH32 0xB713B61BB9BB2958A0F5D1534B21E94FC68C4C0C034B0902ED844F2F6CD1B4F7 PUSH1 0x0 SHL DUP6 DUP6 DUP6 PUSH2 0x2BE JUMP JUMPDEST SWAP1 POP SWAP4 SWAP3 POP POP POP JUMP JUMPDEST PUSH1 0x0 PUSH20 0xE9DB8717BC5DFB20AAF538B4A5A02B7791FF430C PUSH20 0xFFFFFFFFFFFFFFFFFFFFFFFFFFFFFFFFFFFFFFFF AND BALANCE EQ PUSH2 0x25A JUMPI PUSH1 0x40 MLOAD PUSH32 0x8C379A000000000000000000000000000000000000000000000000000000000 DUP2 MSTORE PUSH1 0x4 ADD PUSH2 0x251 SWAP1 PUSH2 0x4EE JUMP JUMPDEST PUSH1 0x40 MLOAD DUP1 SWAP2 SUB SWAP1 REVERT JUMPDEST JUMP JUMPDEST PUSH1 0x0 DUP1 PUSH2 0x268 DUP6 PUSH2 0x320 JUMP JUMPDEST PUSH1 0xFF AND PUSH1 0xA EXP SWAP1 POP PUSH1 0x0 PUSH2 0x27B DUP6 PUSH2 0x320 JUMP JUMPDEST PUSH1 0xFF AND PUSH1 0xA EXP SWAP1 POP PUSH1 0x0 PUSH2 0x290 DUP9 DUP9 DUP9 PUSH2 0x3BD JUMP JUMPDEST SWAP1 POP PUSH8 0xDE0B6B3A7640000 DUP4 DUP4 DUP4 DUP9 MUL MUL DUP2 PUSH2 0x2A8 JUMPI INVALID JUMPDEST DIV DUP2 PUSH2 0x2B0 JUMPI INVALID JUMPDEST DIV SWAP4 POP POP POP POP SWAP5 SWAP4 POP POP POP POP JUMP JUMPDEST PUSH1 0x0 DUP1 PUSH2 0x2CA DUP6 PUSH2 0x320 JUMP JUMPDEST PUSH1 0xFF AND PUSH1 0xA EXP SWAP1 POP PUSH1 0x0 PUSH2 0x2DD DUP6 PUSH2 0x320 JUMP JUMPDEST PUSH1 0xFF AND PUSH1 0xA EXP SWAP1 POP PUSH1 0x0 PUSH2 0x2F2 DUP9 DUP9 DUP9 PUSH2 0x3BD JUMP JUMPDEST SWAP1 POP DUP2 DUP2 DUP5 PUSH8 0xDE0B6B3A7640000 DUP9 MUL MUL DUP2 PUSH2 0x30A JUMPI INVALID JUMPDEST DIV DUP2 PUSH2 0x312 JUMPI INVALID JUMPDEST DIV SWAP4 POP POP POP POP SWAP5 SWAP4 POP POP POP POP JUMP JUMPDEST PUSH1 0x0 PUSH20 0xC02AAA39B223FE8D0A0E5C4F27EAD9083C756CC2 PUSH20 0xFFFFFFFFFFFFFFFFFFFFFFFFFFFFFFFFFFFFFFFF AND DUP3 PUSH20 0xFFFFFFFFFFFFFFFFFFFFFFFFFFFFFFFFFFFFFFFF AND EQ ISZERO PUSH2 0x373 JUMPI PUSH1 0x12 SWAP1 POP PUSH2 0x3B8 JUMP JUMPDEST PUSH1 0x0 DUP3 PUSH1 0x40 MLOAD PUSH1 0x20 ADD PUSH2 0x386 SWAP2 SWAP1 PUSH2 0x47A JUMP JUMPDEST PUSH1 0x40 MLOAD PUSH1 0x20 DUP2 DUP4 SUB SUB DUP2 MSTORE SWAP1 PUSH1 0x40 MSTORE DUP1 MLOAD SWAP1 PUSH1 0x20 ADD KECCAK256 SWAP1 POP PUSH1 0x4 DUP1 PUSH1 0x14 SUB PUSH1 0xFF AND DUP3 PUSH1 0x0 SHR DUP2 PUSH2 0x3B2 JUMPI INVALID JUMPDEST MOD ADD SWAP2 POP POP JUMPDEST SWAP2 SWAP1 POP JUMP JUMPDEST PUSH1 0x0 DUP1 DUP5 DUP5 DUP5 PUSH1 0x40 MLOAD PUSH1 0x20 ADD PUSH2 0x3D5 SWAP4 SWAP3 SWAP2 SWAP1 PUSH2 0x49D JUMP JUMPDEST PUSH1 0x40 MLOAD PUSH1 0x20 DUP2 DUP4 SUB SUB DUP2 MSTORE SWAP1 PUSH1 0x40 MSTORE DUP1 MLOAD SWAP1 PUSH1 0x20 ADD KECCAK256 SWAP1 POP PUSH1 0x64 PUSH8 0xDE0B6B3A7640000 DUP2 PUSH2 0x3FF JUMPI INVALID JUMPDEST DIV PUSH1 0x64 PUSH8 0xDE0B6B3A7640000 DUP2 PUSH2 0x412 JUMPI INVALID JUMPDEST DIV PUSH8 0xDE0B6B3A7640000 PUSH1 0x64 MUL SUB DUP3 PUSH1 0x0 SHR DUP2 PUSH2 0x42B JUMPI INVALID JUMPDEST MOD ADD SWAP2 POP POP SWAP4 SWAP3 POP POP POP JUMP JUMPDEST PUSH1 0x0 DUP1 PUSH1 0x0 PUSH1 0x60 DUP5 DUP7 SUB SLT ISZERO PUSH2 0x44B JUMPI DUP3 DUP4 REVERT JUMPDEST DUP4 CALLDATALOAD PUSH2 0x456 DUP2 PUSH2 0x53D JUMP JUMPDEST DUP1 SWAP4 POP POP PUSH1 0x20 DUP5 ADD CALLDATALOAD PUSH2 0x468 DUP2 PUSH2 0x53D JUMP JUMPDEST DUP1 SWAP3 POP POP PUSH1 0x40 DUP5 ADD CALLDATALOAD SWAP1 POP SWAP3 POP SWAP3 POP SWAP3 JUMP JUMPDEST PUSH1 0x0 PUSH12 0xFFFFFFFFFFFFFFFFFFFFFFFF NOT DUP4 PUSH1 0x60 SHL AND DUP3 MSTORE PUSH1 0x14 DUP3 ADD SWAP1 POP SWAP3 SWAP2 POP POP JUMP JUMPDEST PUSH1 0x0 DUP5 DUP3 MSTORE PUSH12 0xFFFFFFFFFFFFFFFFFFFFFFFF NOT DUP1 DUP6 PUSH1 0x60 SHL AND PUSH1 0x20 DUP5 ADD MSTORE DUP1 DUP5 PUSH1 0x60 SHL AND PUSH1 0x34 DUP5 ADD MSTORE POP PUSH1 0x48 DUP3 ADD SWAP1 POP SWAP5 SWAP4 POP POP POP POP JUMP JUMPDEST PUSH1 0x0 PUSH1 0x20 DUP3 ADD SWAP1 POP PUSH1 0x1 DUP1 PUSH1 0xA0 SHL SUB DUP4 AND DUP3 MSTORE SWAP3 SWAP2 POP POP JUMP JUMPDEST PUSH1 0x0 PUSH1 0x20 DUP3 MSTORE PUSH1 0xE PUSH1 0x20 DUP4 ADD MSTORE PUSH32 0x4641494C5F545249474745524544000000000000000000000000000000000000 PUSH1 0x40 DUP4 ADD MSTORE PUSH1 0x60 DUP3 ADD SWAP1 POP SWAP2 SWAP1 POP JUMP JUMPDEST PUSH1 0x0 PUSH1 0x20 DUP3 ADD SWAP1 POP DUP3 DUP3 MSTORE SWAP3 SWAP2 POP POP JUMP JUMPDEST PUSH1 0x1 DUP1 PUSH1 0xA0 SHL SUB DUP2 AND DUP2 EQ PUSH2 0x551 JUMPI PUSH1 0x0 DUP1 REVERT JUMPDEST POP JUMP INVALID LOG2 PUSH5 0x6970667358 0x22 SLT KECCAK256 0xCB DUP8 SAR DUP2 SSTORE LT 0x4D 0xCC CODECOPY 0xB2 0xBF 0xBA COINBASE CALLER SSTORE DUP4 MSIZE DUP4 LOG1 0x5F 0x5E PUSH29 0x8E67AF42BDE2D0A6419D64736F6C634300060C00336080604052348015 PUSH2 0x10 JUMPI PUSH1 0x0 DUP1 REVERT JUMPDEST POP PUSH2 0xD4D DUP1 PUSH2 0x20 PUSH1 0x0 CODECOPY PUSH1 0x0 RETURN INVALID PUSH1 0x80 PUSH1 0x40 MSTORE PUSH1 0x4 CALLDATASIZE LT PUSH2 0x86 JUMPI PUSH1 0x0 CALLDATALOAD PUSH1 0xE0 SHR DUP1 PUSH4 0x809A9E55 GT PUSH2 0x59 JUMPI DUP1 PUSH4 0x809A9E55 EQ PUSH2 0x14C JUMPI DUP1 PUSH4 0x81EFCBDD EQ PUSH2 0x18A JUMPI DUP1 PUSH4 0x910FFC71 EQ PUSH2 0x1C7 JUMPI DUP1 PUSH4 0xA734F06E EQ PUSH2 0x206 JUMPI DUP1 PUSH4 0xCD72D789 EQ PUSH2 0x231 JUMPI PUSH2 0x86 JUMP JUMPDEST DUP1 PUSH4 0x5734D9A EQ PUSH2 0x8B JUMPI DUP1 PUSH4 0x11F2928B EQ PUSH2 0xC8 JUMPI DUP1 PUSH4 0x418436BC EQ PUSH2 0xD2 JUMPI DUP1 PUSH4 0x61E597F9 EQ PUSH2 0x10F JUMPI JUMPDEST PUSH1 0x0 DUP1 REVERT JUMPDEST CALLVALUE DUP1 ISZERO PUSH2 0x97 JUMPI PUSH1 0x0 DUP1 REVERT JUMPDEST POP PUSH2 0xB2 PUSH1 0x4 DUP1 CALLDATASIZE SUB DUP2 ADD SWAP1 PUSH2 0xAD SWAP2 SWAP1 PUSH2 0x9D7 JUMP JUMPDEST PUSH2 0x25C JUMP JUMPDEST PUSH1 0x40 MLOAD PUSH2 0xBF SWAP2 SWAP1 PUSH2 0xC30 JUMP JUMPDEST PUSH1 0x40 MLOAD DUP1 SWAP2 SUB SWAP1 RETURN JUMPDEST PUSH2 0xD0 PUSH2 0x290 JUMP JUMPDEST STOP JUMPDEST CALLVALUE DUP1 ISZERO PUSH2 0xDE JUMPI PUSH1 0x0 DUP1 REVERT JUMPDEST POP PUSH2 0xF9 PUSH1 0x4 DUP1 CALLDATASIZE SUB DUP2 ADD SWAP1 PUSH2 0xF4 SWAP2 SWAP1 PUSH2 0x8C1 JUMP JUMPDEST PUSH2 0x2ED JUMP JUMPDEST PUSH1 0x40 MLOAD PUSH2 0x106 SWAP2 SWAP1 PUSH2 0xCC6 JUMP JUMPDEST PUSH1 0x40 MLOAD DUP1 SWAP2 SUB SWAP1 RETURN JUMPDEST CALLVALUE DUP1 ISZERO PUSH2 0x11B JUMPI PUSH1 0x0 DUP1 REVERT JUMPDEST POP PUSH2 0x136 PUSH1 0x4 DUP1 CALLDATASIZE SUB DUP2 ADD SWAP1 PUSH2 0x131 SWAP2 SWAP1 PUSH2 0x941 JUMP JUMPDEST PUSH2 0x3E1 JUMP JUMPDEST PUSH1 0x40 MLOAD PUSH2 0x143 SWAP2 SWAP1 PUSH2 0xC30 JUMP JUMPDEST PUSH1 0x40 MLOAD DUP1 SWAP2 SUB SWAP1 RETURN JUMPDEST CALLVALUE DUP1 ISZERO PUSH2 0x158 JUMPI PUSH1 0x0 DUP1 REVERT JUMPDEST POP PUSH2 0x173 PUSH1 0x4 DUP1 CALLDATASIZE SUB DUP2 ADD SWAP1 PUSH2 0x16E SWAP2 SWAP1 PUSH2 0x87E JUMP JUMPDEST PUSH2 0x40F JUMP JUMPDEST PUSH1 0x40 MLOAD PUSH2 0x181 SWAP3 SWAP2 SWAP1 PUSH2 0xCD7 JUMP JUMPDEST PUSH1 0x40 MLOAD DUP1 SWAP2 SUB SWAP1 RETURN JUMPDEST CALLVALUE DUP1 ISZERO PUSH2 0x196 JUMPI PUSH1 0x0 DUP1 REVERT JUMPDEST POP PUSH2 0x1B1 PUSH1 0x4 DUP1 CALLDATASIZE SUB DUP2 ADD SWAP1 PUSH2 0x1AC SWAP2 SWAP1 PUSH2 0x941 JUMP JUMPDEST PUSH2 0x502 JUMP JUMPDEST PUSH1 0x40 MLOAD PUSH2 0x1BE SWAP2 SWAP1 PUSH2 0xC30 JUMP JUMPDEST PUSH1 0x40 MLOAD DUP1 SWAP2 SUB SWAP1 RETURN JUMPDEST CALLVALUE DUP1 ISZERO PUSH2 0x1D3 JUMPI PUSH1 0x0 DUP1 REVERT JUMPDEST POP PUSH2 0x1EE PUSH1 0x4 DUP1 CALLDATASIZE SUB DUP2 ADD SWAP1 PUSH2 0x1E9 SWAP2 SWAP1 PUSH2 0x7F7 JUMP JUMPDEST PUSH2 0x530 JUMP JUMPDEST PUSH1 0x40 MLOAD PUSH2 0x1FD SWAP4 SWAP3 SWAP2 SWAP1 PUSH2 0xB8E JUMP JUMPDEST PUSH1 0x40 MLOAD DUP1 SWAP2 SUB SWAP1 RETURN JUMPDEST CALLVALUE DUP1 ISZERO PUSH2 0x212 JUMPI PUSH1 0x0 DUP1 REVERT JUMPDEST POP PUSH2 0x21B PUSH2 0x5F6 JUMP JUMPDEST PUSH1 0x40 MLOAD PUSH2 0x228 SWAP2 SWAP1 PUSH2 0xB5C JUMP JUMPDEST PUSH1 0x40 MLOAD DUP1 SWAP2 SUB SWAP1 RETURN JUMPDEST CALLVALUE DUP1 ISZERO PUSH2 0x23D JUMPI PUSH1 0x0 DUP1 REVERT JUMPDEST POP PUSH2 0x246 PUSH2 0x60E JUMP JUMPDEST PUSH1 0x40 MLOAD PUSH2 0x253 SWAP2 SWAP1 PUSH2 0xB75 JUMP JUMPDEST PUSH1 0x40 MLOAD DUP1 SWAP2 SUB SWAP1 RETURN JUMPDEST PUSH1 0x60 DUP13 PUSH1 0x40 MLOAD PUSH1 0x20 ADD PUSH2 0x26F SWAP2 SWAP1 PUSH2 0xB5C JUMP JUMPDEST PUSH1 0x40 MLOAD PUSH1 0x20 DUP2 DUP4 SUB SUB DUP2 MSTORE SWAP1 PUSH1 0x40 MSTORE SWAP1 POP SWAP13 SWAP12 POP POP POP POP POP POP POP POP POP POP POP POP JUMP JUMPDEST PUSH20 0xE9DB8717BC5DFB20AAF538B4A5A02B7791FF430C PUSH20 0xFFFFFFFFFFFFFFFFFFFFFFFFFFFFFFFFFFFFFFFF AND PUSH2 0x8FC CALLVALUE SWAP1 DUP2 ISZERO MUL SWAP1 PUSH1 0x40 MLOAD PUSH1 0x0 PUSH1 0x40 MLOAD DUP1 DUP4 SUB DUP2 DUP6 DUP9 DUP9 CALL SWAP4 POP POP POP POP ISZERO DUP1 ISZERO PUSH2 0x2EA JUMPI RETURNDATASIZE PUSH1 0x0 DUP1 RETURNDATACOPY RETURNDATASIZE PUSH1 0x0 REVERT JUMPDEST POP JUMP JUMPDEST PUSH1 0x0 PUSH2 0x2F7 PUSH2 0x626 JUMP JUMPDEST PUSH20 0xEEEEEEEEEEEEEEEEEEEEEEEEEEEEEEEEEEEEEEEE PUSH20 0xFFFFFFFFFFFFFFFFFFFFFFFFFFFFFFFFFFFFFFFF AND DUP8 PUSH20 0xFFFFFFFFFFFFFFFFFFFFFFFFFFFFFFFFFFFFFFFF AND EQ PUSH2 0x344 JUMPI DUP7 PUSH2 0x34D JUMP JUMPDEST PUSH2 0x34C PUSH2 0x696 JUMP JUMPDEST JUMPDEST SWAP7 POP PUSH20 0xEEEEEEEEEEEEEEEEEEEEEEEEEEEEEEEEEEEEEEEE PUSH20 0xFFFFFFFFFFFFFFFFFFFFFFFFFFFFFFFFFFFFFFFF AND DUP7 PUSH20 0xFFFFFFFFFFFFFFFFFFFFFFFFFFFFFFFFFFFFFFFF AND EQ PUSH2 0x39C JUMPI DUP6 PUSH2 0x3A5 JUMP JUMPDEST PUSH2 0x3A4 PUSH2 0x696 JUMP JUMPDEST JUMPDEST SWAP6 POP PUSH2 0x3D5 PUSH32 0xFF3CA9D46195C39F9A12AFB74207B4970349FB3CFB1E459BBF170298D326BC7 PUSH1 0x0 SHL DUP9 DUP9 PUSH2 0x6B2 JUMP JUMPDEST SWAP1 POP SWAP7 SWAP6 POP POP POP POP POP POP JUMP JUMPDEST PUSH1 0x60 DUP7 PUSH1 0x40 MLOAD PUSH1 0x20 ADD PUSH2 0x3F4 SWAP2 SWAP1 PUSH2 0xB5C JUMP JUMPDEST PUSH1 0x40 MLOAD PUSH1 0x20 DUP2 DUP4 SUB SUB DUP2 MSTORE SWAP1 PUSH1 0x40 MSTORE SWAP1 POP SWAP7 SWAP6 POP POP POP POP POP POP JUMP JUMPDEST PUSH1 0x0 DUP1 PUSH2 0x41A PUSH2 0x626 JUMP JUMPDEST PUSH20 0xEEEEEEEEEEEEEEEEEEEEEEEEEEEEEEEEEEEEEEEE PUSH20 0xFFFFFFFFFFFFFFFFFFFFFFFFFFFFFFFFFFFFFFFF AND DUP6 PUSH20 0xFFFFFFFFFFFFFFFFFFFFFFFFFFFFFFFFFFFFFFFF AND EQ PUSH2 0x467 JUMPI DUP5 PUSH2 0x470 JUMP JUMPDEST PUSH2 0x46F PUSH2 0x696 JUMP JUMPDEST JUMPDEST SWAP5 POP PUSH20 0xEEEEEEEEEEEEEEEEEEEEEEEEEEEEEEEEEEEEEEEE PUSH20 0xFFFFFFFFFFFFFFFFFFFFFFFFFFFFFFFFFFFFFFFF AND DUP5 PUSH20 0xFFFFFFFFFFFFFFFFFFFFFFFFFFFFFFFFFFFFFFFF AND EQ PUSH2 0x4BF JUMPI DUP4 PUSH2 0x4C8 JUMP JUMPDEST PUSH2 0x4C7 PUSH2 0x696 JUMP JUMPDEST JUMPDEST SWAP4 POP PUSH2 0x4F8 PUSH32 0xFF3CA9D46195C39F9A12AFB74207B4970349FB3CFB1E459BBF170298D326BC7 PUSH1 0x0 SHL DUP7 DUP7 PUSH2 0x6B2 JUMP JUMPDEST SWAP2 POP SWAP4 POP SWAP4 SWAP2 POP POP JUMP JUMPDEST PUSH1 0x60 DUP7 PUSH1 0x40 MLOAD PUSH1 0x20 ADD PUSH2 0x515 SWAP2 SWAP1 PUSH2 0xB5C JUMP JUMPDEST PUSH1 0x40 MLOAD PUSH1 0x20 DUP2 DUP4 SUB SUB DUP2 MSTORE SWAP1 PUSH1 0x40 MSTORE SWAP1 POP SWAP7 SWAP6 POP POP POP POP POP POP JUMP JUMPDEST PUSH1 0x60 DUP1 PUSH1 0x0 PUSH1 0x1 PUSH8 0xFFFFFFFFFFFFFFFF DUP2 GT DUP1 ISZERO PUSH2 0x54D JUMPI PUSH1 0x0 DUP1 REVERT JUMPDEST POP PUSH1 0x40 MLOAD SWAP1 DUP1 DUP3 MSTORE DUP1 PUSH1 0x20 MUL PUSH1 0x20 ADD DUP3 ADD PUSH1 0x40 MSTORE DUP1 ISZERO PUSH2 0x57C JUMPI DUP2 PUSH1 0x20 ADD PUSH1 0x20 DUP3 MUL DUP1 CALLDATASIZE DUP4 CALLDATACOPY DUP1 DUP3 ADD SWAP2 POP POP SWAP1 POP JUMPDEST POP SWAP3 POP PUSH1 0x1 PUSH1 0x0 SHL DUP4 PUSH1 0x0 DUP2 MLOAD DUP2 LT PUSH2 0x591 JUMPI INVALID JUMPDEST PUSH1 0x20 MUL PUSH1 0x20 ADD ADD DUP2 DUP2 MSTORE POP POP PUSH1 0x0 PUSH8 0xFFFFFFFFFFFFFFFF DUP2 GT DUP1 ISZERO PUSH2 0x5B5 JUMPI PUSH1 0x0 DUP1 REVERT JUMPDEST POP PUSH1 0x40 MLOAD SWAP1 DUP1 DUP3 MSTORE DUP1 PUSH1 0x20 MUL PUSH1 0x20 ADD DUP3 ADD PUSH1 0x40 MSTORE DUP1 ISZERO PUSH2 0x5E4 JUMPI DUP2 PUSH1 0x20 ADD PUSH1 0x20 DUP3 MUL DUP1 CALLDATASIZE DUP4 CALLDATACOPY DUP1 DUP3 ADD SWAP2 POP POP SWAP1 POP JUMPDEST POP SWAP2 POP PUSH1 0x0 SWAP1 POP SWAP6 POP SWAP6 POP SWAP6 SWAP3 POP POP POP JUMP JUMPDEST PUSH20 0xEEEEEEEEEEEEEEEEEEEEEEEEEEEEEEEEEEEEEEEE DUP2 JUMP JUMPDEST PUSH20 0xE9DB8717BC5DFB20AAF538B4A5A02B7791FF430C DUP2 JUMP JUMPDEST PUSH1 0x0 PUSH20 0xE9DB8717BC5DFB20AAF538B4A5A02B7791FF430C PUSH20 0xFFFFFFFFFFFFFFFFFFFFFFFFFFFFFFFFFFFFFFFF AND BALANCE EQ PUSH2 0x694 JUMPI PUSH1 0x40 MLOAD PUSH32 0x8C379A000000000000000000000000000000000000000000000000000000000 DUP2 MSTORE PUSH1 0x4 ADD PUSH2 0x68B SWAP1 PUSH2 0xC88 JUMP JUMPDEST PUSH1 0x40 MLOAD DUP1 SWAP2 SUB SWAP1 REVERT JUMPDEST JUMP JUMPDEST PUSH1 0x0 PUSH20 0xC02AAA39B223FE8D0A0E5C4F27EAD9083C756CC2 SWAP1 POP SWAP1 JUMP JUMPDEST PUSH1 0x0 DUP1 DUP5 DUP5 DUP5 PUSH1 0x40 MLOAD PUSH1 0x20 ADD PUSH2 0x6CA SWAP4 SWAP3 SWAP2 SWAP1 PUSH2 0xB24 JUMP JUMPDEST PUSH1 0x40 MLOAD PUSH1 0x20 DUP2 DUP4 SUB SUB DUP2 MSTORE SWAP1 PUSH1 0x40 MSTORE DUP1 MLOAD SWAP1 PUSH1 0x20 ADD KECCAK256 SWAP1 POP PUSH1 0x64 PUSH8 0xDE0B6B3A7640000 DUP2 PUSH2 0x6F4 JUMPI INVALID JUMPDEST DIV PUSH1 0x64 PUSH8 0xDE0B6B3A7640000 DUP2 PUSH2 0x707 JUMPI INVALID JUMPDEST DIV PUSH8 0xDE0B6B3A7640000 PUSH1 0x64 MUL SUB DUP3 PUSH1 0x0 SHR DUP2 PUSH2 0x720 JUMPI INVALID JUMPDEST MOD ADD SWAP2 POP POP SWAP4 SWAP3 POP POP POP JUMP JUMPDEST PUSH1 0x0 DUP2 CALLDATALOAD SWAP1 POP PUSH1 0x1 DUP1 PUSH1 0xA0 SHL SUB DUP2 AND DUP2 EQ PUSH2 0x746 JUMPI PUSH1 0x0 DUP1 REVERT JUMPDEST SWAP3 SWAP2 POP POP JUMP JUMPDEST PUSH1 0x0 DUP1 DUP4 PUSH1 0x1F DUP5 ADD SLT PUSH2 0x75D JUMPI DUP2 DUP3 REVERT JUMPDEST DUP3 CALLDATALOAD SWAP1 POP PUSH8 0xFFFFFFFFFFFFFFFF DUP2 GT ISZERO PUSH2 0x775 JUMPI DUP2 DUP3 REVERT JUMPDEST PUSH1 0x20 DUP4 ADD SWAP2 POP DUP4 PUSH1 0x20 DUP1 DUP4 MUL DUP6 ADD ADD GT ISZERO PUSH2 0x78F JUMPI PUSH1 0x0 DUP1 REVERT JUMPDEST SWAP3 POP SWAP3 SWAP1 POP JUMP JUMPDEST PUSH1 0x0 DUP1 DUP4 PUSH1 0x1F DUP5 ADD SLT PUSH2 0x7A7 JUMPI DUP2 DUP3 REVERT JUMPDEST DUP3 CALLDATALOAD SWAP1 POP PUSH8 0xFFFFFFFFFFFFFFFF DUP2 GT ISZERO PUSH2 0x7BF JUMPI DUP2 DUP3 REVERT JUMPDEST PUSH1 0x20 DUP4 ADD SWAP2 POP DUP4 PUSH1 0x20 DUP3 DUP6 ADD ADD GT ISZERO PUSH2 0x7D7 JUMPI PUSH1 0x0 DUP1 REVERT JUMPDEST SWAP3 POP SWAP3 SWAP1 POP JUMP JUMPDEST PUSH1 0x0 DUP2 CALLDATALOAD SWAP1 POP PUSH1 0x4 DUP2 LT PUSH2 0x7F1 JUMPI PUSH1 0x0 DUP1 REVERT JUMPDEST SWAP3 SWAP2 POP POP JUMP JUMPDEST PUSH1 0x0 DUP1 PUSH1 0x0 DUP1 PUSH1 0x0 PUSH1 0x80 DUP7 DUP9 SUB SLT ISZERO PUSH2 0x80E JUMPI DUP1 DUP2 REVERT JUMPDEST DUP6 CALLDATALOAD PUSH2 0x819 DUP2 PUSH2 0xD00 JUMP JUMPDEST DUP1 SWAP6 POP POP PUSH1 0x20 DUP7 ADD CALLDATALOAD PUSH2 0x82B DUP2 PUSH2 0xD00 JUMP JUMPDEST DUP1 SWAP5 POP POP PUSH1 0x40 DUP7 ADD CALLDATALOAD DUP1 ISZERO ISZERO DUP2 EQ PUSH2 0x841 JUMPI DUP2 DUP3 REVERT JUMPDEST DUP1 SWAP4 POP POP PUSH1 0x60 DUP7 ADD CALLDATALOAD PUSH8 0xFFFFFFFFFFFFFFFF DUP2 GT ISZERO PUSH2 0x85E JUMPI DUP2 DUP3 REVERT JUMPDEST PUSH2 0x86A DUP9 DUP3 DUP10 ADD PUSH2 0x796 JUMP JUMPDEST SWAP2 POP DUP1 SWAP4 POP POP DUP1 SWAP2 POP POP SWAP3 SWAP6 POP SWAP3 SWAP6 SWAP1 SWAP4 POP JUMP JUMPDEST PUSH1 0x0 DUP1 PUSH1 0x0 PUSH1 0x60 DUP5 DUP7 SUB SLT ISZERO PUSH2 0x892 JUMPI DUP3 DUP4 REVERT JUMPDEST DUP4 CALLDATALOAD PUSH2 0x89D DUP2 PUSH2 0xD00 JUMP JUMPDEST DUP1 SWAP4 POP POP PUSH1 0x20 DUP5 ADD CALLDATALOAD PUSH2 0x8AF DUP2 PUSH2 0xD00 JUMP JUMPDEST DUP1 SWAP3 POP POP PUSH1 0x40 DUP5 ADD CALLDATALOAD SWAP1 POP SWAP3 POP SWAP3 POP SWAP3 JUMP JUMPDEST PUSH1 0x0 DUP1 PUSH1 0x0 DUP1 PUSH1 0x0 DUP1 PUSH1 0xA0 DUP8 DUP10 SUB SLT ISZERO PUSH2 0x8D9 JUMPI DUP1 DUP2 REVERT JUMPDEST DUP7 CALLDATALOAD PUSH2 0x8E4 DUP2 PUSH2 0xD00 JUMP JUMPDEST DUP1 SWAP7 POP POP PUSH1 0x20 DUP8 ADD CALLDATALOAD PUSH2 0x8F6 DUP2 PUSH2 0xD00 JUMP JUMPDEST DUP1 SWAP6 POP POP PUSH1 0x40 DUP8 ADD CALLDATALOAD SWAP4 POP PUSH1 0x60 DUP8 ADD CALLDATALOAD SWAP3 POP PUSH1 0x80 DUP8 ADD CALLDATALOAD PUSH8 0xFFFFFFFFFFFFFFFF DUP2 GT ISZERO PUSH2 0x921 JUMPI DUP2 DUP3 REVERT JUMPDEST PUSH2 0x92D DUP10 DUP3 DUP11 ADD PUSH2 0x796 JUMP JUMPDEST SWAP2 POP DUP1 SWAP4 POP POP DUP1 SWAP2 POP POP SWAP3 SWAP6 POP SWAP3 SWAP6 POP SWAP3 SWAP6 JUMP JUMPDEST PUSH1 0x0 DUP1 PUSH1 0x0 DUP1 PUSH1 0x0 DUP1 PUSH1 0x80 DUP8 DUP10 SUB SLT ISZERO PUSH2 0x959 JUMPI DUP2 DUP3 REVERT JUMPDEST PUSH2 0x963 DUP9 DUP9 PUSH2 0x72C JUMP JUMPDEST SWAP6 POP PUSH2 0x972 DUP9 PUSH1 0x20 DUP10 ADD PUSH2 0x7DE JUMP JUMPDEST SWAP5 POP PUSH1 0x40 DUP8 ADD CALLDATALOAD PUSH8 0xFFFFFFFFFFFFFFFF DUP1 DUP3 GT ISZERO PUSH2 0x98E JUMPI DUP4 DUP5 REVERT JUMPDEST PUSH2 0x99A DUP11 DUP4 DUP12 ADD PUSH2 0x74C JUMP JUMPDEST SWAP3 POP DUP1 SWAP7 POP POP DUP2 SWAP5 POP PUSH1 0x60 DUP10 ADD CALLDATALOAD SWAP2 POP DUP1 DUP3 GT ISZERO PUSH2 0x9B6 JUMPI DUP4 DUP5 REVERT JUMPDEST POP PUSH2 0x9C3 DUP10 DUP3 DUP11 ADD PUSH2 0x74C JUMP JUMPDEST SWAP2 POP DUP1 SWAP4 POP POP DUP1 SWAP2 POP POP SWAP3 SWAP6 POP SWAP3 SWAP6 POP SWAP3 SWAP6 JUMP JUMPDEST PUSH1 0x0 DUP1 PUSH1 0x0 DUP1 PUSH1 0x0 DUP1 PUSH1 0x0 DUP1 PUSH1 0x0 DUP1 PUSH1 0x0 DUP1 PUSH2 0x100 DUP14 DUP16 SUB SLT ISZERO PUSH2 0x9F9 JUMPI DUP6 DUP7 REVERT JUMPDEST PUSH2 0xA03 DUP15 DUP15 PUSH2 0x72C JUMP JUMPDEST SWAP12 POP PUSH2 0xA12 DUP15 PUSH1 0x20 DUP16 ADD PUSH2 0x7DE JUMP JUMPDEST SWAP11 POP PUSH8 0xFFFFFFFFFFFFFFFF PUSH1 0x40 DUP15 ADD CALLDATALOAD GT ISZERO PUSH2 0xA2C JUMPI DUP6 DUP7 REVERT JUMPDEST PUSH2 0xA3C DUP15 PUSH1 0x40 DUP16 ADD CALLDATALOAD DUP16 ADD PUSH2 0x74C JUMP JUMPDEST DUP2 SWAP12 POP DUP1 SWAP11 POP POP POP PUSH8 0xFFFFFFFFFFFFFFFF PUSH1 0x60 DUP15 ADD CALLDATALOAD GT ISZERO PUSH2 0xA5C JUMPI DUP6 DUP7 REVERT JUMPDEST PUSH2 0xA6C DUP15 PUSH1 0x60 DUP16 ADD CALLDATALOAD DUP16 ADD PUSH2 0x74C JUMP JUMPDEST DUP2 SWAP10 POP DUP1 SWAP9 POP POP POP PUSH2 0xA81 DUP15 PUSH1 0x80 DUP16 ADD PUSH2 0x72C JUMP JUMPDEST SWAP6 POP PUSH2 0xA90 DUP15 PUSH1 0xA0 DUP16 ADD PUSH2 0x7DE JUMP JUMPDEST SWAP5 POP PUSH8 0xFFFFFFFFFFFFFFFF PUSH1 0xC0 DUP15 ADD CALLDATALOAD GT ISZERO PUSH2 0xAAA JUMPI DUP4 DUP5 REVERT JUMPDEST PUSH2 0xABA DUP15 PUSH1 0xC0 DUP16 ADD CALLDATALOAD DUP16 ADD PUSH2 0x74C JUMP JUMPDEST DUP2 SWAP6 POP DUP1 SWAP5 POP POP POP PUSH8 0xFFFFFFFFFFFFFFFF PUSH1 0xE0 DUP15 ADD CALLDATALOAD GT ISZERO PUSH2 0xADA JUMPI DUP1 DUP2 REVERT JUMPDEST PUSH2 0xAEA DUP15 PUSH1 0xE0 DUP16 ADD CALLDATALOAD DUP16 ADD PUSH2 0x74C JUMP JUMPDEST DUP2 SWAP4 POP DUP1 SWAP3 POP POP POP SWAP3 SWAP6 SWAP9 SWAP12 POP SWAP3 SWAP6 SWAP9 SWAP12 POP SWAP3 SWAP6 SWAP9 SWAP12 JUMP JUMPDEST PUSH1 0x0 DUP2 DUP4 MSTORE PUSH1 0x20 DUP4 ADD SWAP1 POP SWAP3 SWAP2 POP POP JUMP JUMPDEST PUSH1 0x2 DUP2 LT PUSH2 0xB1D JUMPI INVALID JUMPDEST DUP1 DUP3 MSTORE POP POP JUMP JUMPDEST PUSH1 0x0 DUP5 DUP3 MSTORE PUSH12 0xFFFFFFFFFFFFFFFFFFFFFFFF NOT DUP1 DUP6 PUSH1 0x60 SHL AND PUSH1 0x20 DUP5 ADD MSTORE DUP1 DUP5 PUSH1 0x60 SHL AND PUSH1 0x34 DUP5 ADD MSTORE POP PUSH1 0x48 DUP3 ADD SWAP1 POP SWAP5 SWAP4 POP POP POP POP JUMP JUMPDEST PUSH1 0x0 PUSH1 0x20 DUP3 ADD SWAP1 POP PUSH1 0x1 DUP1 PUSH1 0xA0 SHL SUB DUP4 AND DUP3 MSTORE SWAP3 SWAP2 POP POP JUMP JUMPDEST PUSH1 0x0 PUSH1 0x20 DUP3 ADD SWAP1 POP PUSH1 0x1 DUP1 PUSH1 0xA0 SHL SUB DUP4 AND DUP3 MSTORE SWAP3 SWAP2 POP POP JUMP JUMPDEST PUSH1 0x0 PUSH1 0x60 DUP3 ADD PUSH1 0x60 DUP4 MSTORE DUP1 DUP7 MLOAD DUP1 DUP4 MSTORE PUSH1 0x80 DUP6 ADD SWAP2 POP PUSH1 0x20 SWAP3 POP DUP3 DUP9 ADD DUP5 JUMPDEST DUP3 DUP2 LT ISZERO PUSH2 0xBCE JUMPI DUP2 MLOAD DUP5 MSTORE DUP5 DUP5 ADD SWAP4 POP DUP5 DUP3 ADD SWAP2 POP PUSH1 0x1 DUP2 ADD SWAP1 POP PUSH2 0xBAD JUMP JUMPDEST POP POP POP DUP4 DUP2 SUB DUP3 DUP6 ADD MSTORE DUP1 DUP7 MLOAD PUSH2 0xBE5 DUP2 DUP5 PUSH2 0xCEF JUMP JUMPDEST SWAP2 POP DUP4 DUP9 ADD SWAP3 POP DUP5 JUMPDEST DUP2 DUP2 LT ISZERO PUSH2 0xC13 JUMPI PUSH2 0xC01 DUP4 DUP6 MLOAD PUSH2 0xB02 JUMP JUMPDEST SWAP3 POP DUP5 DUP5 ADD SWAP4 POP PUSH1 0x1 DUP2 ADD SWAP1 POP PUSH2 0xBEE JUMP JUMPDEST POP POP DUP1 SWAP4 POP POP POP POP PUSH2 0xC28 PUSH1 0x40 DUP4 ADD DUP5 PUSH2 0xB13 JUMP JUMPDEST SWAP5 SWAP4 POP POP POP POP JUMP JUMPDEST PUSH1 0x0 PUSH1 0x20 DUP1 DUP4 MSTORE DUP4 MLOAD DUP1 DUP3 DUP6 ADD MSTORE DUP3 JUMPDEST DUP2 DUP2 LT ISZERO PUSH2 0xC5F JUMPI DUP3 DUP2 DUP8 ADD ADD MLOAD PUSH1 0x40 DUP3 DUP8 ADD ADD MSTORE DUP3 DUP2 ADD SWAP1 POP PUSH2 0xC40 JUMP JUMPDEST DUP2 DUP2 GT ISZERO PUSH2 0xC70 JUMPI DUP4 PUSH1 0x40 DUP4 DUP8 ADD ADD MSTORE JUMPDEST POP PUSH1 0x40 PUSH1 0x1F NOT PUSH1 0x1F DUP4 ADD AND DUP6 ADD ADD SWAP3 POP POP POP SWAP3 SWAP2 POP POP JUMP JUMPDEST PUSH1 0x0 PUSH1 0x20 DUP3 MSTORE PUSH1 0xE PUSH1 0x20 DUP4 ADD MSTORE PUSH32 0x4641494C5F545249474745524544000000000000000000000000000000000000 PUSH1 0x40 DUP4 ADD MSTORE PUSH1 0x60 DUP3 ADD SWAP1 POP SWAP2 SWAP1 POP JUMP JUMPDEST PUSH1 0x0 PUSH1 0x20 DUP3 ADD SWAP1 POP DUP3 DUP3 MSTORE SWAP3 SWAP2 POP POP JUMP JUMPDEST PUSH1 0x0 PUSH1 0x40 DUP3 ADD SWAP1 POP DUP4 DUP3 MSTORE DUP3 PUSH1 0x20 DUP4 ADD MSTORE SWAP4 SWAP3 POP POP POP JUMP JUMPDEST PUSH1 0x0 DUP3 DUP3 MSTORE PUSH1 0x20 DUP3 ADD SWAP1 POP SWAP3 SWAP2 POP POP JUMP JUMPDEST PUSH1 0x1 DUP1 PUSH1 0xA0 SHL SUB DUP2 AND DUP2 EQ PUSH2 0xD14 JUMPI PUSH1 0x0 DUP1 REVERT JUMPDEST POP JUMP INVALID LOG2 PUSH5 0x6970667358 0x22 SLT KECCAK256 0x48 0xE3 0xB1 EXTCODECOPY DUP3 0xAF SMOD 0xBB CREATE2 0x48 MULMOD 0xEE DELEGATECALL 0x5F GAS 0xE0 PUSH5 0x17978DEFF9 0x2F DUP13 EXTCODEHASH PUSH22 0x75C0A0097DC764736F6C634300060C00330000000000 "
            }
        }
    },
    "sourceTreeHashHex": "0x2bfb1039dd803bfa0442cfa98f0267d91743a89e83a5df02b32d23c37a647649",
    "compiler": {
        "name": "solc",
        "version": "0.6.12+commit.27d51765",
        "settings": {
            "remappings": [
                "@0x/contracts-utils=/Users/kim/Development/protocol/packages/asset-swapper/node_modules/@0x/contracts-utils",
                "@0x/contracts-erc20=/Users/kim/Development/protocol/packages/asset-swapper/node_modules/@0x/contracts-erc20",
                "@0x/contracts-zero-ex=/Users/kim/Development/protocol/packages/asset-swapper/node_modules/@0x/contracts-zero-ex"
            ],
            "optimizer": {
                "enabled": false,
                "runs": 200,
                "details": {
                    "yul": true
                }
            },
            "outputSelection": {
                "*": {
                    "*": [
                        "abi",
                        "devdoc",
                        "evm.bytecode.object",
                        "evm.bytecode.sourceMap",
                        "evm.deployedBytecode.object",
                        "evm.deployedBytecode.sourceMap"
                    ]
                }
            },
            "evmVersion": "istanbul"
        }
    },
    "chains": {}
}