{
    "schemaVersion": "2.0.0",
    "contractName": "TwoHopSampler",
    "compilerOutput": {
        "abi": [
            {
                "inputs": [
                    {
                        "components": [
                            {
                                "internalType": "address",
                                "name": "to",
                                "type": "address"
                            },
                            {
                                "internalType": "bytes",
                                "name": "data",
                                "type": "bytes"
                            },
                            {
                                "internalType": "uint256",
                                "name": "gas",
                                "type": "uint256"
                            }
                        ],
                        "internalType": "struct TwoHopSampler.HopInfo[]",
                        "name": "firstHopCalls",
                        "type": "tuple[]"
                    },
                    {
                        "components": [
                            {
                                "internalType": "address",
                                "name": "to",
                                "type": "address"
                            },
                            {
                                "internalType": "bytes",
                                "name": "data",
                                "type": "bytes"
                            },
                            {
                                "internalType": "uint256",
                                "name": "gas",
                                "type": "uint256"
                            }
                        ],
                        "internalType": "struct TwoHopSampler.HopInfo[]",
                        "name": "secondHopCalls",
                        "type": "tuple[]"
                    },
                    {
                        "internalType": "uint256",
                        "name": "buyAmount",
                        "type": "uint256"
                    }
                ],
                "name": "sampleTwoHopBuy",
                "outputs": [
                    {
                        "components": [
                            {
                                "internalType": "uint256",
                                "name": "outputAmount",
                                "type": "uint256"
                            },
                            {
                                "internalType": "uint256",
                                "name": "firstHopIndex",
                                "type": "uint256"
                            },
                            {
                                "internalType": "bytes",
                                "name": "firstHopResult",
                                "type": "bytes"
                            },
                            {
                                "internalType": "uint256",
                                "name": "secondHopIndex",
                                "type": "uint256"
                            },
                            {
                                "internalType": "bytes",
                                "name": "secondHopResult",
                                "type": "bytes"
                            }
                        ],
                        "internalType": "struct TwoHopSampler.TwoHopResult",
                        "name": "result",
                        "type": "tuple"
                    }
                ],
                "stateMutability": "nonpayable",
                "type": "function"
            },
            {
                "inputs": [
                    {
                        "components": [
                            {
                                "internalType": "address",
                                "name": "to",
                                "type": "address"
                            },
                            {
                                "internalType": "bytes",
                                "name": "data",
                                "type": "bytes"
                            },
                            {
                                "internalType": "uint256",
                                "name": "gas",
                                "type": "uint256"
                            }
                        ],
                        "internalType": "struct TwoHopSampler.HopInfo[]",
                        "name": "firstHopCalls",
                        "type": "tuple[]"
                    },
                    {
                        "components": [
                            {
                                "internalType": "address",
                                "name": "to",
                                "type": "address"
                            },
                            {
                                "internalType": "bytes",
                                "name": "data",
                                "type": "bytes"
                            },
                            {
                                "internalType": "uint256",
                                "name": "gas",
                                "type": "uint256"
                            }
                        ],
                        "internalType": "struct TwoHopSampler.HopInfo[]",
                        "name": "secondHopCalls",
                        "type": "tuple[]"
                    },
                    {
                        "internalType": "uint256",
                        "name": "sellAmount",
                        "type": "uint256"
                    }
                ],
                "name": "sampleTwoHopSell",
                "outputs": [
                    {
                        "components": [
                            {
                                "internalType": "uint256",
                                "name": "outputAmount",
                                "type": "uint256"
                            },
                            {
                                "internalType": "uint256",
                                "name": "firstHopIndex",
                                "type": "uint256"
                            },
                            {
                                "internalType": "bytes",
                                "name": "firstHopResult",
                                "type": "bytes"
                            },
                            {
                                "internalType": "uint256",
                                "name": "secondHopIndex",
                                "type": "uint256"
                            },
                            {
                                "internalType": "bytes",
                                "name": "secondHopResult",
                                "type": "bytes"
                            }
                        ],
                        "internalType": "struct TwoHopSampler.TwoHopResult",
                        "name": "result",
                        "type": "tuple"
                    }
                ],
                "stateMutability": "nonpayable",
                "type": "function"
            }
        ],
        "devdoc": {
            "kind": "dev",
            "methods": {},
            "version": 1
        },
        "evm": {
            "bytecode": {
                "linkReferences": {},
                "object": "0x608060405234801561001057600080fd5b5061095a806100206000396000f3fe608060405234801561001057600080fd5b50600436106100365760003560e01c806344a3acba1461003b5780639e4a2a6914610064575b600080fd5b61004e610049366004610751565b610077565b60405161005b9190610825565b60405180910390f35b61004e610072366004610751565b6102d4565b61007f61061c565b6000805b8551811461019e57606086828151811061009957fe5b60200260200101516020015190506100c0602082510386836105489092919063ffffffff16565b600060608884815181106100d057fe5b6020026020010151600001516001600160a01b03168985815181106100f157fe5b6020026020010151604001518460405161010b91906107e7565b60006040518083038160008787f1925050503d8060008114610149576040519150601f19603f3d011682016040523d82523d6000602084013e61014e565b606091505b5091509150811561019057600061017260208351038361055890919063ffffffff16565b90508581111561018e5760208701859052604087018290529450845b505b505050806001019050610083565b50806101aa57506102cd565b60005b845181146102ca5760608582815181106101c357fe5b60200260200101516020015190506101ea602082510384836105489092919063ffffffff16565b600060608784815181106101fa57fe5b6020026020010151600001516001600160a01b031688858151811061021b57fe5b6020026020010151604001518460405161023591906107e7565b60006040518083038160008787f1925050503d8060008114610273576040519150601f19603f3d011682016040523d82523d6000602084013e610278565b606091505b509150915081156102bc57600061029c60208351038361055890919063ffffffff16565b87519091508111156102ba5780875260608701859052608087018290525b505b5050508060010190506101ad565b50505b9392505050565b6102dc61061c565b60001980825260005b8451811461040c5760608582815181106102fb57fe5b6020026020010151602001519050610322602082510386836105489092919063ffffffff16565b6000606087848151811061033257fe5b6020026020010151600001516001600160a01b031688858151811061035357fe5b6020026020010151604001518460405161036d91906107e7565b60006040518083038160008787f1925050503d80600081146103ab576040519150601f19603f3d011682016040523d82523d6000602084013e6103b0565b606091505b509150915081156103fe5760006103d460208351038361055890919063ffffffff16565b90506000811180156103e557508581105b156103fc5760608701859052608087018290529450845b505b5050508060010190506102e5565b5060001981141561041d57506102cd565b60005b855181146102ca57606086828151811061043657fe5b602002602001015160200151905061045d602082510384836105489092919063ffffffff16565b6000606088848151811061046d57fe5b6020026020010151600001516001600160a01b031689858151811061048e57fe5b602002602001015160400151846040516104a891906107e7565b60006040518083038160008787f1925050503d80600081146104e6576040519150601f19603f3d011682016040523d82523d6000602084013e6104eb565b606091505b5091509150811561053a57600061050f60208351038361055890919063ffffffff16565b90506000811180156105215750865181105b156105385780875260208701859052604087018290525b505b505050806001019050610420565b610553838383610564565b505050565b60006102cd8383610590565b81602001835110156105885761058861058360058551856020016105ba565b610614565b910160200152565b600081602001835110156105b1576105b161058360058551856020016105ba565b50016020015190565b6060632800659560e01b8484846040516024016105d993929190610803565b60408051601f198184030181529190526020810180516001600160e01b03166001600160e01b03199093169290921790915290509392505050565b805160208201fd5b6040518060a0016040528060008152602001600081526020016060815260200160008152602001606081525090565b600082601f83011261065b578081fd5b813567ffffffffffffffff80821115610672578283fd5b60206106818182850201610885565b838152935080840185820160005b858110156107455781358801606080601f19838d030112156106b057600080fd5b6106b981610885565b868301356106c68161090c565b8152604083810135898111156106db57600080fd5b8401603f81018e136106ec57600080fd5b888101356107016106fc826108ac565b610885565b8181528f8483850101111561071557600080fd5b610724828c83018686016108d0565b8a85015250509190920135908201528352918301919083019060010161068f565b50505050505092915050565b600080600060608486031215610765578283fd5b833567ffffffffffffffff8082111561077c578485fd5b6107888783880161064b565b9450602086013591508082111561079d578384fd5b506107aa8682870161064b565b925050604084013590509250925092565b600081518084526107d38160208601602086016108dc565b601f01601f19169290920160200192915050565b600082516107f98184602087016108dc565b9190910192915050565b606081016008851061081157fe5b938152602081019290925260409091015290565b6000602082528251602083015260208301516040830152604083015160a0606084015261085560c08401826107bb565b9050606084015160808401526080840151601f198483030160a085015261087c82826107bb565b95945050505050565b60405181810167ffffffffffffffff811182821017156108a457600080fd5b604052919050565b600067ffffffffffffffff8211156108c2578081fd5b50601f01601f191660200190565b82818337506000910152565b60005b838110156108f75781810151838201526020016108df565b83811115610906576000848401525b50505050565b6001600160a01b038116811461092157600080fd5b5056fea2646970667358221220fc9c68f47b04d772db98e89120cf1c14b6bbdfd6ad0bc8494132f33b92d2891164736f6c634300060c0033",
                "opcodes": "PUSH1 0x80 PUSH1 0x40 MSTORE CALLVALUE DUP1 ISZERO PUSH2 0x10 JUMPI PUSH1 0x0 DUP1 REVERT JUMPDEST POP PUSH2 0x95A DUP1 PUSH2 0x20 PUSH1 0x0 CODECOPY PUSH1 0x0 RETURN INVALID PUSH1 0x80 PUSH1 0x40 MSTORE CALLVALUE DUP1 ISZERO PUSH2 0x10 JUMPI PUSH1 0x0 DUP1 REVERT JUMPDEST POP PUSH1 0x4 CALLDATASIZE LT PUSH2 0x36 JUMPI PUSH1 0x0 CALLDATALOAD PUSH1 0xE0 SHR DUP1 PUSH4 0x44A3ACBA EQ PUSH2 0x3B JUMPI DUP1 PUSH4 0x9E4A2A69 EQ PUSH2 0x64 JUMPI JUMPDEST PUSH1 0x0 DUP1 REVERT JUMPDEST PUSH2 0x4E PUSH2 0x49 CALLDATASIZE PUSH1 0x4 PUSH2 0x751 JUMP JUMPDEST PUSH2 0x77 JUMP JUMPDEST PUSH1 0x40 MLOAD PUSH2 0x5B SWAP2 SWAP1 PUSH2 0x825 JUMP JUMPDEST PUSH1 0x40 MLOAD DUP1 SWAP2 SUB SWAP1 RETURN JUMPDEST PUSH2 0x4E PUSH2 0x72 CALLDATASIZE PUSH1 0x4 PUSH2 0x751 JUMP JUMPDEST PUSH2 0x2D4 JUMP JUMPDEST PUSH2 0x7F PUSH2 0x61C JUMP JUMPDEST PUSH1 0x0 DUP1 JUMPDEST DUP6 MLOAD DUP2 EQ PUSH2 0x19E JUMPI PUSH1 0x60 DUP7 DUP3 DUP2 MLOAD DUP2 LT PUSH2 0x99 JUMPI INVALID JUMPDEST PUSH1 0x20 MUL PUSH1 0x20 ADD ADD MLOAD PUSH1 0x20 ADD MLOAD SWAP1 POP PUSH2 0xC0 PUSH1 0x20 DUP3 MLOAD SUB DUP7 DUP4 PUSH2 0x548 SWAP1 SWAP3 SWAP2 SWAP1 PUSH4 0xFFFFFFFF AND JUMP JUMPDEST PUSH1 0x0 PUSH1 0x60 DUP9 DUP5 DUP2 MLOAD DUP2 LT PUSH2 0xD0 JUMPI INVALID JUMPDEST PUSH1 0x20 MUL PUSH1 0x20 ADD ADD MLOAD PUSH1 0x0 ADD MLOAD PUSH1 0x1 PUSH1 0x1 PUSH1 0xA0 SHL SUB AND DUP10 DUP6 DUP2 MLOAD DUP2 LT PUSH2 0xF1 JUMPI INVALID JUMPDEST PUSH1 0x20 MUL PUSH1 0x20 ADD ADD MLOAD PUSH1 0x40 ADD MLOAD DUP5 PUSH1 0x40 MLOAD PUSH2 0x10B SWAP2 SWAP1 PUSH2 0x7E7 JUMP JUMPDEST PUSH1 0x0 PUSH1 0x40 MLOAD DUP1 DUP4 SUB DUP2 PUSH1 0x0 DUP8 DUP8 CALL SWAP3 POP POP POP RETURNDATASIZE DUP1 PUSH1 0x0 DUP2 EQ PUSH2 0x149 JUMPI PUSH1 0x40 MLOAD SWAP2 POP PUSH1 0x1F NOT PUSH1 0x3F RETURNDATASIZE ADD AND DUP3 ADD PUSH1 0x40 MSTORE RETURNDATASIZE DUP3 MSTORE RETURNDATASIZE PUSH1 0x0 PUSH1 0x20 DUP5 ADD RETURNDATACOPY PUSH2 0x14E JUMP JUMPDEST PUSH1 0x60 SWAP2 POP JUMPDEST POP SWAP2 POP SWAP2 POP DUP2 ISZERO PUSH2 0x190 JUMPI PUSH1 0x0 PUSH2 0x172 PUSH1 0x20 DUP4 MLOAD SUB DUP4 PUSH2 0x558 SWAP1 SWAP2 SWAP1 PUSH4 0xFFFFFFFF AND JUMP JUMPDEST SWAP1 POP DUP6 DUP2 GT ISZERO PUSH2 0x18E JUMPI PUSH1 0x20 DUP8 ADD DUP6 SWAP1 MSTORE PUSH1 0x40 DUP8 ADD DUP3 SWAP1 MSTORE SWAP5 POP DUP5 JUMPDEST POP JUMPDEST POP POP POP DUP1 PUSH1 0x1 ADD SWAP1 POP PUSH2 0x83 JUMP JUMPDEST POP DUP1 PUSH2 0x1AA JUMPI POP PUSH2 0x2CD JUMP JUMPDEST PUSH1 0x0 JUMPDEST DUP5 MLOAD DUP2 EQ PUSH2 0x2CA JUMPI PUSH1 0x60 DUP6 DUP3 DUP2 MLOAD DUP2 LT PUSH2 0x1C3 JUMPI INVALID JUMPDEST PUSH1 0x20 MUL PUSH1 0x20 ADD ADD MLOAD PUSH1 0x20 ADD MLOAD SWAP1 POP PUSH2 0x1EA PUSH1 0x20 DUP3 MLOAD SUB DUP5 DUP4 PUSH2 0x548 SWAP1 SWAP3 SWAP2 SWAP1 PUSH4 0xFFFFFFFF AND JUMP JUMPDEST PUSH1 0x0 PUSH1 0x60 DUP8 DUP5 DUP2 MLOAD DUP2 LT PUSH2 0x1FA JUMPI INVALID JUMPDEST PUSH1 0x20 MUL PUSH1 0x20 ADD ADD MLOAD PUSH1 0x0 ADD MLOAD PUSH1 0x1 PUSH1 0x1 PUSH1 0xA0 SHL SUB AND DUP9 DUP6 DUP2 MLOAD DUP2 LT PUSH2 0x21B JUMPI INVALID JUMPDEST PUSH1 0x20 MUL PUSH1 0x20 ADD ADD MLOAD PUSH1 0x40 ADD MLOAD DUP5 PUSH1 0x40 MLOAD PUSH2 0x235 SWAP2 SWAP1 PUSH2 0x7E7 JUMP JUMPDEST PUSH1 0x0 PUSH1 0x40 MLOAD DUP1 DUP4 SUB DUP2 PUSH1 0x0 DUP8 DUP8 CALL SWAP3 POP POP POP RETURNDATASIZE DUP1 PUSH1 0x0 DUP2 EQ PUSH2 0x273 JUMPI PUSH1 0x40 MLOAD SWAP2 POP PUSH1 0x1F NOT PUSH1 0x3F RETURNDATASIZE ADD AND DUP3 ADD PUSH1 0x40 MSTORE RETURNDATASIZE DUP3 MSTORE RETURNDATASIZE PUSH1 0x0 PUSH1 0x20 DUP5 ADD RETURNDATACOPY PUSH2 0x278 JUMP JUMPDEST PUSH1 0x60 SWAP2 POP JUMPDEST POP SWAP2 POP SWAP2 POP DUP2 ISZERO PUSH2 0x2BC JUMPI PUSH1 0x0 PUSH2 0x29C PUSH1 0x20 DUP4 MLOAD SUB DUP4 PUSH2 0x558 SWAP1 SWAP2 SWAP1 PUSH4 0xFFFFFFFF AND JUMP JUMPDEST DUP8 MLOAD SWAP1 SWAP2 POP DUP2 GT ISZERO PUSH2 0x2BA JUMPI DUP1 DUP8 MSTORE PUSH1 0x60 DUP8 ADD DUP6 SWAP1 MSTORE PUSH1 0x80 DUP8 ADD DUP3 SWAP1 MSTORE JUMPDEST POP JUMPDEST POP POP POP DUP1 PUSH1 0x1 ADD SWAP1 POP PUSH2 0x1AD JUMP JUMPDEST POP POP JUMPDEST SWAP4 SWAP3 POP POP POP JUMP JUMPDEST PUSH2 0x2DC PUSH2 0x61C JUMP JUMPDEST PUSH1 0x0 NOT DUP1 DUP3 MSTORE PUSH1 0x0 JUMPDEST DUP5 MLOAD DUP2 EQ PUSH2 0x40C JUMPI PUSH1 0x60 DUP6 DUP3 DUP2 MLOAD DUP2 LT PUSH2 0x2FB JUMPI INVALID JUMPDEST PUSH1 0x20 MUL PUSH1 0x20 ADD ADD MLOAD PUSH1 0x20 ADD MLOAD SWAP1 POP PUSH2 0x322 PUSH1 0x20 DUP3 MLOAD SUB DUP7 DUP4 PUSH2 0x548 SWAP1 SWAP3 SWAP2 SWAP1 PUSH4 0xFFFFFFFF AND JUMP JUMPDEST PUSH1 0x0 PUSH1 0x60 DUP8 DUP5 DUP2 MLOAD DUP2 LT PUSH2 0x332 JUMPI INVALID JUMPDEST PUSH1 0x20 MUL PUSH1 0x20 ADD ADD MLOAD PUSH1 0x0 ADD MLOAD PUSH1 0x1 PUSH1 0x1 PUSH1 0xA0 SHL SUB AND DUP9 DUP6 DUP2 MLOAD DUP2 LT PUSH2 0x353 JUMPI INVALID JUMPDEST PUSH1 0x20 MUL PUSH1 0x20 ADD ADD MLOAD PUSH1 0x40 ADD MLOAD DUP5 PUSH1 0x40 MLOAD PUSH2 0x36D SWAP2 SWAP1 PUSH2 0x7E7 JUMP JUMPDEST PUSH1 0x0 PUSH1 0x40 MLOAD DUP1 DUP4 SUB DUP2 PUSH1 0x0 DUP8 DUP8 CALL SWAP3 POP POP POP RETURNDATASIZE DUP1 PUSH1 0x0 DUP2 EQ PUSH2 0x3AB JUMPI PUSH1 0x40 MLOAD SWAP2 POP PUSH1 0x1F NOT PUSH1 0x3F RETURNDATASIZE ADD AND DUP3 ADD PUSH1 0x40 MSTORE RETURNDATASIZE DUP3 MSTORE RETURNDATASIZE PUSH1 0x0 PUSH1 0x20 DUP5 ADD RETURNDATACOPY PUSH2 0x3B0 JUMP JUMPDEST PUSH1 0x60 SWAP2 POP JUMPDEST POP SWAP2 POP SWAP2 POP DUP2 ISZERO PUSH2 0x3FE JUMPI PUSH1 0x0 PUSH2 0x3D4 PUSH1 0x20 DUP4 MLOAD SUB DUP4 PUSH2 0x558 SWAP1 SWAP2 SWAP1 PUSH4 0xFFFFFFFF AND JUMP JUMPDEST SWAP1 POP PUSH1 0x0 DUP2 GT DUP1 ISZERO PUSH2 0x3E5 JUMPI POP DUP6 DUP2 LT JUMPDEST ISZERO PUSH2 0x3FC JUMPI PUSH1 0x60 DUP8 ADD DUP6 SWAP1 MSTORE PUSH1 0x80 DUP8 ADD DUP3 SWAP1 MSTORE SWAP5 POP DUP5 JUMPDEST POP JUMPDEST POP POP POP DUP1 PUSH1 0x1 ADD SWAP1 POP PUSH2 0x2E5 JUMP JUMPDEST POP PUSH1 0x0 NOT DUP2 EQ ISZERO PUSH2 0x41D JUMPI POP PUSH2 0x2CD JUMP JUMPDEST PUSH1 0x0 JUMPDEST DUP6 MLOAD DUP2 EQ PUSH2 0x2CA JUMPI PUSH1 0x60 DUP7 DUP3 DUP2 MLOAD DUP2 LT PUSH2 0x436 JUMPI INVALID JUMPDEST PUSH1 0x20 MUL PUSH1 0x20 ADD ADD MLOAD PUSH1 0x20 ADD MLOAD SWAP1 POP PUSH2 0x45D PUSH1 0x20 DUP3 MLOAD SUB DUP5 DUP4 PUSH2 0x548 SWAP1 SWAP3 SWAP2 SWAP1 PUSH4 0xFFFFFFFF AND JUMP JUMPDEST PUSH1 0x0 PUSH1 0x60 DUP9 DUP5 DUP2 MLOAD DUP2 LT PUSH2 0x46D JUMPI INVALID JUMPDEST PUSH1 0x20 MUL PUSH1 0x20 ADD ADD MLOAD PUSH1 0x0 ADD MLOAD PUSH1 0x1 PUSH1 0x1 PUSH1 0xA0 SHL SUB AND DUP10 DUP6 DUP2 MLOAD DUP2 LT PUSH2 0x48E JUMPI INVALID JUMPDEST PUSH1 0x20 MUL PUSH1 0x20 ADD ADD MLOAD PUSH1 0x40 ADD MLOAD DUP5 PUSH1 0x40 MLOAD PUSH2 0x4A8 SWAP2 SWAP1 PUSH2 0x7E7 JUMP JUMPDEST PUSH1 0x0 PUSH1 0x40 MLOAD DUP1 DUP4 SUB DUP2 PUSH1 0x0 DUP8 DUP8 CALL SWAP3 POP POP POP RETURNDATASIZE DUP1 PUSH1 0x0 DUP2 EQ PUSH2 0x4E6 JUMPI PUSH1 0x40 MLOAD SWAP2 POP PUSH1 0x1F NOT PUSH1 0x3F RETURNDATASIZE ADD AND DUP3 ADD PUSH1 0x40 MSTORE RETURNDATASIZE DUP3 MSTORE RETURNDATASIZE PUSH1 0x0 PUSH1 0x20 DUP5 ADD RETURNDATACOPY PUSH2 0x4EB JUMP JUMPDEST PUSH1 0x60 SWAP2 POP JUMPDEST POP SWAP2 POP SWAP2 POP DUP2 ISZERO PUSH2 0x53A JUMPI PUSH1 0x0 PUSH2 0x50F PUSH1 0x20 DUP4 MLOAD SUB DUP4 PUSH2 0x558 SWAP1 SWAP2 SWAP1 PUSH4 0xFFFFFFFF AND JUMP JUMPDEST SWAP1 POP PUSH1 0x0 DUP2 GT DUP1 ISZERO PUSH2 0x521 JUMPI POP DUP7 MLOAD DUP2 LT JUMPDEST ISZERO PUSH2 0x538 JUMPI DUP1 DUP8 MSTORE PUSH1 0x20 DUP8 ADD DUP6 SWAP1 MSTORE PUSH1 0x40 DUP8 ADD DUP3 SWAP1 MSTORE JUMPDEST POP JUMPDEST POP POP POP DUP1 PUSH1 0x1 ADD SWAP1 POP PUSH2 0x420 JUMP JUMPDEST PUSH2 0x553 DUP4 DUP4 DUP4 PUSH2 0x564 JUMP JUMPDEST POP POP POP JUMP JUMPDEST PUSH1 0x0 PUSH2 0x2CD DUP4 DUP4 PUSH2 0x590 JUMP JUMPDEST DUP2 PUSH1 0x20 ADD DUP4 MLOAD LT ISZERO PUSH2 0x588 JUMPI PUSH2 0x588 PUSH2 0x583 PUSH1 0x5 DUP6 MLOAD DUP6 PUSH1 0x20 ADD PUSH2 0x5BA JUMP JUMPDEST PUSH2 0x614 JUMP JUMPDEST SWAP2 ADD PUSH1 0x20 ADD MSTORE JUMP JUMPDEST PUSH1 0x0 DUP2 PUSH1 0x20 ADD DUP4 MLOAD LT ISZERO PUSH2 0x5B1 JUMPI PUSH2 0x5B1 PUSH2 0x583 PUSH1 0x5 DUP6 MLOAD DUP6 PUSH1 0x20 ADD PUSH2 0x5BA JUMP JUMPDEST POP ADD PUSH1 0x20 ADD MLOAD SWAP1 JUMP JUMPDEST PUSH1 0x60 PUSH4 0x28006595 PUSH1 0xE0 SHL DUP5 DUP5 DUP5 PUSH1 0x40 MLOAD PUSH1 0x24 ADD PUSH2 0x5D9 SWAP4 SWAP3 SWAP2 SWAP1 PUSH2 0x803 JUMP JUMPDEST PUSH1 0x40 DUP1 MLOAD PUSH1 0x1F NOT DUP2 DUP5 SUB ADD DUP2 MSTORE SWAP2 SWAP1 MSTORE PUSH1 0x20 DUP2 ADD DUP1 MLOAD PUSH1 0x1 PUSH1 0x1 PUSH1 0xE0 SHL SUB AND PUSH1 0x1 PUSH1 0x1 PUSH1 0xE0 SHL SUB NOT SWAP1 SWAP4 AND SWAP3 SWAP1 SWAP3 OR SWAP1 SWAP2 MSTORE SWAP1 POP SWAP4 SWAP3 POP POP POP JUMP JUMPDEST DUP1 MLOAD PUSH1 0x20 DUP3 ADD REVERT JUMPDEST PUSH1 0x40 MLOAD DUP1 PUSH1 0xA0 ADD PUSH1 0x40 MSTORE DUP1 PUSH1 0x0 DUP2 MSTORE PUSH1 0x20 ADD PUSH1 0x0 DUP2 MSTORE PUSH1 0x20 ADD PUSH1 0x60 DUP2 MSTORE PUSH1 0x20 ADD PUSH1 0x0 DUP2 MSTORE PUSH1 0x20 ADD PUSH1 0x60 DUP2 MSTORE POP SWAP1 JUMP JUMPDEST PUSH1 0x0 DUP3 PUSH1 0x1F DUP4 ADD SLT PUSH2 0x65B JUMPI DUP1 DUP2 REVERT JUMPDEST DUP2 CALLDATALOAD PUSH8 0xFFFFFFFFFFFFFFFF DUP1 DUP3 GT ISZERO PUSH2 0x672 JUMPI DUP3 DUP4 REVERT JUMPDEST PUSH1 0x20 PUSH2 0x681 DUP2 DUP3 DUP6 MUL ADD PUSH2 0x885 JUMP JUMPDEST DUP4 DUP2 MSTORE SWAP4 POP DUP1 DUP5 ADD DUP6 DUP3 ADD PUSH1 0x0 JUMPDEST DUP6 DUP2 LT ISZERO PUSH2 0x745 JUMPI DUP2 CALLDATALOAD DUP9 ADD PUSH1 0x60 DUP1 PUSH1 0x1F NOT DUP4 DUP14 SUB ADD SLT ISZERO PUSH2 0x6B0 JUMPI PUSH1 0x0 DUP1 REVERT JUMPDEST PUSH2 0x6B9 DUP2 PUSH2 0x885 JUMP JUMPDEST DUP7 DUP4 ADD CALLDATALOAD PUSH2 0x6C6 DUP2 PUSH2 0x90C JUMP JUMPDEST DUP2 MSTORE PUSH1 0x40 DUP4 DUP2 ADD CALLDATALOAD DUP10 DUP2 GT ISZERO PUSH2 0x6DB JUMPI PUSH1 0x0 DUP1 REVERT JUMPDEST DUP5 ADD PUSH1 0x3F DUP2 ADD DUP15 SGT PUSH2 0x6EC JUMPI PUSH1 0x0 DUP1 REVERT JUMPDEST DUP9 DUP2 ADD CALLDATALOAD PUSH2 0x701 PUSH2 0x6FC DUP3 PUSH2 0x8AC JUMP JUMPDEST PUSH2 0x885 JUMP JUMPDEST DUP2 DUP2 MSTORE DUP16 DUP5 DUP4 DUP6 ADD ADD GT ISZERO PUSH2 0x715 JUMPI PUSH1 0x0 DUP1 REVERT JUMPDEST PUSH2 0x724 DUP3 DUP13 DUP4 ADD DUP7 DUP7 ADD PUSH2 0x8D0 JUMP JUMPDEST DUP11 DUP6 ADD MSTORE POP POP SWAP2 SWAP1 SWAP3 ADD CALLDATALOAD SWAP1 DUP3 ADD MSTORE DUP4 MSTORE SWAP2 DUP4 ADD SWAP2 SWAP1 DUP4 ADD SWAP1 PUSH1 0x1 ADD PUSH2 0x68F JUMP JUMPDEST POP POP POP POP POP POP SWAP3 SWAP2 POP POP JUMP JUMPDEST PUSH1 0x0 DUP1 PUSH1 0x0 PUSH1 0x60 DUP5 DUP7 SUB SLT ISZERO PUSH2 0x765 JUMPI DUP3 DUP4 REVERT JUMPDEST DUP4 CALLDATALOAD PUSH8 0xFFFFFFFFFFFFFFFF DUP1 DUP3 GT ISZERO PUSH2 0x77C JUMPI DUP5 DUP6 REVERT JUMPDEST PUSH2 0x788 DUP8 DUP4 DUP9 ADD PUSH2 0x64B JUMP JUMPDEST SWAP5 POP PUSH1 0x20 DUP7 ADD CALLDATALOAD SWAP2 POP DUP1 DUP3 GT ISZERO PUSH2 0x79D JUMPI DUP4 DUP5 REVERT JUMPDEST POP PUSH2 0x7AA DUP7 DUP3 DUP8 ADD PUSH2 0x64B JUMP JUMPDEST SWAP3 POP POP PUSH1 0x40 DUP5 ADD CALLDATALOAD SWAP1 POP SWAP3 POP SWAP3 POP SWAP3 JUMP JUMPDEST PUSH1 0x0 DUP2 MLOAD DUP1 DUP5 MSTORE PUSH2 0x7D3 DUP2 PUSH1 0x20 DUP7 ADD PUSH1 0x20 DUP7 ADD PUSH2 0x8DC JUMP JUMPDEST PUSH1 0x1F ADD PUSH1 0x1F NOT AND SWAP3 SWAP1 SWAP3 ADD PUSH1 0x20 ADD SWAP3 SWAP2 POP POP JUMP JUMPDEST PUSH1 0x0 DUP3 MLOAD PUSH2 0x7F9 DUP2 DUP5 PUSH1 0x20 DUP8 ADD PUSH2 0x8DC JUMP JUMPDEST SWAP2 SWAP1 SWAP2 ADD SWAP3 SWAP2 POP POP JUMP JUMPDEST PUSH1 0x60 DUP2 ADD PUSH1 0x8 DUP6 LT PUSH2 0x811 JUMPI INVALID JUMPDEST SWAP4 DUP2 MSTORE PUSH1 0x20 DUP2 ADD SWAP3 SWAP1 SWAP3 MSTORE PUSH1 0x40 SWAP1 SWAP2 ADD MSTORE SWAP1 JUMP JUMPDEST PUSH1 0x0 PUSH1 0x20 DUP3 MSTORE DUP3 MLOAD PUSH1 0x20 DUP4 ADD MSTORE PUSH1 0x20 DUP4 ADD MLOAD PUSH1 0x40 DUP4 ADD MSTORE PUSH1 0x40 DUP4 ADD MLOAD PUSH1 0xA0 PUSH1 0x60 DUP5 ADD MSTORE PUSH2 0x855 PUSH1 0xC0 DUP5 ADD DUP3 PUSH2 0x7BB JUMP JUMPDEST SWAP1 POP PUSH1 0x60 DUP5 ADD MLOAD PUSH1 0x80 DUP5 ADD MSTORE PUSH1 0x80 DUP5 ADD MLOAD PUSH1 0x1F NOT DUP5 DUP4 SUB ADD PUSH1 0xA0 DUP6 ADD MSTORE PUSH2 0x87C DUP3 DUP3 PUSH2 0x7BB JUMP JUMPDEST SWAP6 SWAP5 POP POP POP POP POP JUMP JUMPDEST PUSH1 0x40 MLOAD DUP2 DUP2 ADD PUSH8 0xFFFFFFFFFFFFFFFF DUP2 GT DUP3 DUP3 LT OR ISZERO PUSH2 0x8A4 JUMPI PUSH1 0x0 DUP1 REVERT JUMPDEST PUSH1 0x40 MSTORE SWAP2 SWAP1 POP JUMP JUMPDEST PUSH1 0x0 PUSH8 0xFFFFFFFFFFFFFFFF DUP3 GT ISZERO PUSH2 0x8C2 JUMPI DUP1 DUP2 REVERT JUMPDEST POP PUSH1 0x1F ADD PUSH1 0x1F NOT AND PUSH1 0x20 ADD SWAP1 JUMP JUMPDEST DUP3 DUP2 DUP4 CALLDATACOPY POP PUSH1 0x0 SWAP2 ADD MSTORE JUMP JUMPDEST PUSH1 0x0 JUMPDEST DUP4 DUP2 LT ISZERO PUSH2 0x8F7 JUMPI DUP2 DUP2 ADD MLOAD DUP4 DUP3 ADD MSTORE PUSH1 0x20 ADD PUSH2 0x8DF JUMP JUMPDEST DUP4 DUP2 GT ISZERO PUSH2 0x906 JUMPI PUSH1 0x0 DUP5 DUP5 ADD MSTORE JUMPDEST POP POP POP POP JUMP JUMPDEST PUSH1 0x1 PUSH1 0x1 PUSH1 0xA0 SHL SUB DUP2 AND DUP2 EQ PUSH2 0x921 JUMPI PUSH1 0x0 DUP1 REVERT JUMPDEST POP JUMP INVALID LOG2 PUSH5 0x6970667358 0x22 SLT KECCAK256 0xFC SWAP13 PUSH9 0xF47B04D772DB98E891 KECCAK256 0xCF SHR EQ 0xB6 0xBB 0xDF 0xD6 0xAD SIGNEXTEND 0xC8 0x49 COINBASE ORIGIN RETURN EXTCODESIZE SWAP3 0xD2 DUP10 GT PUSH5 0x736F6C6343 STOP MOD 0xC STOP CALLER "
            },
            "methodIdentifiers": {
                "sampleTwoHopBuy((address,bytes,uint256)[],(address,bytes,uint256)[],uint256)": "9e4a2a69",
                "sampleTwoHopSell((address,bytes,uint256)[],(address,bytes,uint256)[],uint256)": "44a3acba"
            }
        }
    },
    "sourceTreeHashHex": "0xfd1a04b71d61a08afb0de3a7e5aec21ccca59afc14dfe2eea1250e38a0897d72",
    "compiler": {
        "name": "solc",
        "version": "0.6.12+commit.27d51765",
        "settings": {
            "remappings": [
                "@0x/contracts-erc20=/home/merklejerk/code/0x-protocol/node_modules/@0x/contracts-erc20",
                "@0x/contracts-utils=/home/merklejerk/code/0x-protocol/node_modules/@0x/contracts-utils",
                "@0x/contracts-zero-ex=/home/merklejerk/code/0x-protocol/packages/asset-swapper/node_modules/@0x/contracts-zero-ex"
            ],
            "optimizer": {
                "enabled": true,
                "runs": 200,
                "details": {
                    "yul": true,
                    "deduplicate": true
                }
            },
            "outputSelection": {
                "*": {
                    "*": [
                        "abi",
                        "devdoc",
                        "evm.bytecode.object",
                        "evm.bytecode.sourceMap",
                        "evm.deployedBytecode.object",
                        "evm.deployedBytecode.sourceMap",
                        "evm.methodIdentifiers"
                    ]
                }
            },
            "evmVersion": "istanbul"
        }
    },
    "chains": {}
}