{
    "schemaVersion": "2.0.0",
    "contractName": "UniswapV3Sampler",
    "compilerOutput": {
        "abi": [
            {
                "inputs": [
                    {
                        "internalType": "bytes4",
                        "name": "selector",
                        "type": "bytes4"
                    },
                    {
                        "internalType": "address",
                        "name": "sellToken",
                        "type": "address"
                    },
                    {
                        "internalType": "address",
                        "name": "buyToken",
                        "type": "address"
                    },
                    {
                        "internalType": "bytes",
                        "name": "bridgeData",
                        "type": "bytes"
                    },
                    {
                        "internalType": "uint256",
                        "name": "amountIn",
                        "type": "uint256"
                    }
                ],
                "name": "_callRevert",
                "outputs": [],
                "stateMutability": "nonpayable",
                "type": "function"
            },
            {
                "inputs": [
                    {
                        "internalType": "bytes4",
                        "name": "selector",
                        "type": "bytes4"
                    },
                    {
                        "internalType": "address",
                        "name": "sellToken",
                        "type": "address"
                    },
                    {
                        "internalType": "address",
                        "name": "buyToken",
                        "type": "address"
                    },
                    {
                        "internalType": "bytes",
                        "name": "bridgeData",
                        "type": "bytes"
                    },
                    {
                        "internalType": "uint256[]",
                        "name": "amountsIn",
                        "type": "uint256[]"
                    }
                ],
                "name": "_mintCallRevert",
                "outputs": [],
                "stateMutability": "nonpayable",
                "type": "function"
            },
            {
                "inputs": [
                    {
                        "internalType": "contract IUniswapV3Quoter",
                        "name": "quoter",
                        "type": "address"
                    },
                    {
                        "internalType": "address",
                        "name": "router",
                        "type": "address"
                    },
                    {
                        "internalType": "contract IERC20TokenV06[]",
                        "name": "path",
                        "type": "address[]"
                    },
                    {
                        "internalType": "uint256[]",
                        "name": "makerTokenAmounts",
                        "type": "uint256[]"
                    }
                ],
                "name": "sampleBuysFromUniswapV3",
                "outputs": [
                    {
                        "internalType": "bytes[]",
                        "name": "uniswapPaths",
                        "type": "bytes[]"
                    },
                    {
                        "internalType": "uint256[]",
                        "name": "gasUsed",
                        "type": "uint256[]"
                    },
                    {
                        "internalType": "uint256[]",
                        "name": "takerTokenAmounts",
                        "type": "uint256[]"
                    }
                ],
                "stateMutability": "nonpayable",
                "type": "function"
            },
            {
                "inputs": [
                    {
                        "internalType": "contract IUniswapV3Quoter",
                        "name": "quoter",
                        "type": "address"
                    },
                    {
                        "internalType": "address",
                        "name": "router",
                        "type": "address"
                    },
                    {
                        "internalType": "contract IERC20TokenV06[]",
                        "name": "path",
                        "type": "address[]"
                    },
                    {
                        "internalType": "uint256[]",
                        "name": "takerTokenAmounts",
                        "type": "uint256[]"
                    }
                ],
                "name": "sampleSellsFromUniswapV3",
                "outputs": [
                    {
                        "internalType": "bytes[]",
                        "name": "uniswapPaths",
                        "type": "bytes[]"
                    },
                    {
                        "internalType": "uint256[]",
                        "name": "gasUsed",
                        "type": "uint256[]"
                    },
                    {
                        "internalType": "uint256[]",
                        "name": "makerTokenAmounts",
                        "type": "uint256[]"
                    }
                ],
                "stateMutability": "nonpayable",
                "type": "function"
            },
            {
                "inputs": [
                    {
                        "internalType": "address",
                        "name": "sellToken",
                        "type": "address"
                    },
                    {
                        "internalType": "address",
                        "name": "buyToken",
                        "type": "address"
                    },
                    {
                        "internalType": "bytes",
                        "name": "bridgeData",
                        "type": "bytes"
                    },
                    {
                        "internalType": "uint256",
                        "name": "takerTokenAmount",
                        "type": "uint256"
                    }
                ],
                "name": "sampleSwapFromUniswapV3",
                "outputs": [
                    {
                        "internalType": "uint256",
                        "name": "",
                        "type": "uint256"
                    }
                ],
                "stateMutability": "nonpayable",
                "type": "function"
            }
        ],
        "devdoc": {
            "kind": "dev",
            "methods": {
                "_mintCallRevert(bytes4,address,address,bytes,uint256[])": {
                    "details": "Mints the sell token, then performs the swap, then reverts with the amount out. The SwapRevertSamplerQuoteOpts has been unrolled here as our ABI encoder cannot support encoding the function"
                },
                "sampleBuysFromUniswapV3(address,address,address[],uint256[])": {
                    "details": "Sample buy quotes from UniswapV3.",
                    "params": {
                        "makerTokenAmounts": "Maker token buy amount for each sample.",
                        "path": "Token route. Should be takerToken -> makerToken.",
                        "quoter": "UniswapV3 Quoter contract.",
                        "router": "UniswapV3 Router contract."
                    },
                    "returns": {
                        "gasUsed": "gas consumed in each sample sell",
                        "takerTokenAmounts": "Taker amounts sold at each maker token         amount.",
                        "uniswapPaths": "The encoded uniswap path for each sample."
                    }
                },
                "sampleSellsFromUniswapV3(address,address,address[],uint256[])": {
                    "details": "Sample sell quotes from UniswapV3.",
                    "params": {
                        "path": "Token route. Should be takerToken -> makerToken",
                        "quoter": "UniswapV3 Quoter contract.",
                        "router": "UniswapV3 Router contract.",
                        "takerTokenAmounts": "Taker token sell amount for each sample."
                    },
                    "returns": {
                        "gasUsed": "gas consumed in each sample sell",
                        "makerTokenAmounts": "Maker amounts bought at each taker token         amount.",
                        "uniswapPaths": "The encoded uniswap path for each sample."
                    }
                }
            },
            "version": 1
        },
        "evm": {
            "bytecode": {
                "linkReferences": {},
                "object": "0x608060405234801561001057600080fd5b50612929806100206000396000f3fe60806040526004361061004e5760003560e01c80631f4ff03e1461005a57806359ab9a6c1461007c5780636a33bc7e146100b257806378fee41c146100e1578063fa5def9f1461010157610055565b3661005557005b600080fd5b34801561006657600080fd5b5061007a610075366004612145565b610121565b005b34801561008857600080fd5b5061009c61009736600461207e565b610426565b6040516100a99190612828565b60405180910390f35b3480156100be57600080fd5b506100d26100cd366004612273565b61043c565b6040516100a993929190612571565b3480156100ed57600080fd5b5061007a6100fc3660046121dd565b61074d565b34801561010d57600080fd5b506100d261011c366004612273565b61090d565b600084905060008260018451038151811061013857fe5b60200260200101519050816001600160a01b031663e326c7d760016040518263ffffffff1660e01b815260040161016f9190612615565b600060405180830381600087803b15801561018957600080fd5b505af192505050801561019a575060015b506040516355c3705360e11b81526001600160a01b0383169063ab86e0a6906101c990309085906004016124d5565b600060405180830381600087803b1580156101e357600080fd5b505af19250505080156101f4575060015b50856001600160a01b031663d0e30db0826040518263ffffffff1660e01b81526004016000604051808303818588803b15801561023057600080fd5b505af193505050508015610242575060015b50606083516001600160401b038111801561025c57600080fd5b50604051908082528060200260200182016040528015610286578160200160208202803683370190505b509050606084516001600160401b03811180156102a257600080fd5b506040519080825280602002602001820160405280156102cc578160200160208202803683370190505b50905060005b855181101561041057306001600160a01b03166378fee41c621e84808c8c8c8c8c88815181106102fe57fe5b60200260200101516040518763ffffffff1660e01b815260040161032695949392919061267a565b600060405180830381600088803b15801561034057600080fd5b5087f193505050508015610352575060015b6103e7573d808015610380576040519150601f19603f3d011682016040523d82523d6000602084013e610385565b606091505b5061038f81610c53565b85848151811061039b57fe5b602002602001018585815181106103ae57fe5b60200260200101828152508281525050508382815181106103cb57fe5b6020026020010151600014156103e15750610410565b50610408565b60405162461bcd60e51b81526004016103ff9061279b565b60405180910390fd5b6001016102d2565b5061041b8282610c88565b505050505050505050565b6000610433858385610cb6565b95945050505050565b6060806060806104be886001600160a01b031663c45a01556040518163ffffffff1660e01b815260040160206040518083038186803b15801561047e57600080fd5b505afa158015610492573d6000803e3d6000fd5b505050506040513d601f19601f820116820180604052508101906104b69190612257565b876000610d94565b905084516001600160401b03811180156104d757600080fd5b50604051908082528060200260200182016040528015610501578160200160208202803683370190505b50915084516001600160401b038111801561051b57600080fd5b50604051908082528060200260200182016040528015610545578160200160208202803683370190505b50925084516001600160401b038111801561055f57600080fd5b5060405190808252806020026020018201604052801561059357816020015b606081526020019060019003908161057e5790505b50935060005b81518110156107415760606105c1888484815181106105b457fe5b602002602001015161122b565b905060608061065b60405180608001604052808c6000815181106105e157fe5b60200260200101516001600160a01b031681526020018c60018e51038151811061060757fe5b60200260200101516001600160a01b031681526020018d86604051602001610630929190612545565b60408051601f1981840301815291815290825230602090811b6359ab9a6c1790911b9101528a61138e565b9150915060005b81518110156107325781818151811061067757fe5b60200260200101516000141561068c57610732565b81818151811061069857fe5b60200260200101518782815181106106ac57fe5b60200260200101511161072a578181815181106106c557fe5b60200260200101518782815181106106d957fe5b6020026020010181815250508281815181106106f157fe5b602002602001015188828151811061070557fe5b6020026020010181815250508389828151811061071e57fe5b60200260200101819052505b600101610662565b50505050806001019050610599565b50509450945094915050565b61133761def160901b016001600160a01b031663d0afdca96040518163ffffffff1660e01b8152600401600060405180830381600087803b15801561079157600080fd5b505af19250505080156107a2575060015b5060005a905060006060306001600160a01b031688888888886040516024016107ce9493929190612508565b60408051601f198184030181529181526020820180516001600160e01b03166001600160e01b031990941693909317909252905161080c91906124a5565b6000604051808303816000865af19150503d8060008114610849576040519150601f19603f3d011682016040523d82523d6000602084013e61084e565b606091505b50915091505a8303925061133761def160901b016001600160a01b0316630c18c1626040518163ffffffff1660e01b815260040160206040518083038186803b15801561089a57600080fd5b505afa9250505080156108ca575060408051601f3d908101601f191682019092526108c791810190612404565b60015b6108d3576108d8565b909203915b816108e6576108e68161145f565b610903818060200190518101906108fd9190612404565b84611467565b5050505050505050565b60608060608061094f886001600160a01b031663c45a01556040518163ffffffff1660e01b815260040160206040518083038186803b15801561047e57600080fd5b9050606061095c87611478565b905085516001600160401b038111801561097557600080fd5b5060405190808252806020026020018201604052801561099f578160200160208202803683370190505b50925085516001600160401b03811180156109b957600080fd5b506040519080825280602002602001820160405280156109e3578160200160208202803683370190505b50935085516001600160401b03811180156109fd57600080fd5b50604051908082528060200260200182016040528015610a3157816020015b6060815260200190600190039081610a1c5790505b50945060005b8251811015610c4657606080610b326040518060a001604052808c600081518110610a5e57fe5b60200260200101516001600160a01b031681526020018c60018e510381518110610a8457fe5b60200260200101516001600160a01b031681526020018d610aab8e8a89815181106105b457fe5b604051602001610abc929190612545565b60405160208183030381529060405281526020018d610af688610af18b8a81518110610ae457fe5b6020026020010151611516565b61122b565b604051602001610b07929190612545565b60408051601f1981840301815291815290825230602090811b6359ab9a6c1790911b9101528a6115ae565b9150915060005b8151811015610c3857818181518110610b4e57fe5b602002602001015160001415610b6357610c38565b868181518110610b6f57fe5b602002602001015160001480610bab5750818181518110610b8c57fe5b6020026020010151878281518110610ba057fe5b602002602001015110155b15610c3057818181518110610bbc57fe5b6020026020010151878281518110610bd057fe5b602002602001018181525050828181518110610be857fe5b6020026020010151888281518110610bfc57fe5b602002602001018181525050610c188b8786815181106105b457fe5b898281518110610c2457fe5b60200260200101819052505b600101610b39565b505050806001019050610a37565b5050509450945094915050565b6000808251604014610c6a57506000905080610c83565b82806020019051810190610c7e919061241c565b915091505b915091565b60608282604051602001610c9d9291906125f0565b6040516020818303038152906040529050805160208201fd5b600080606083806020019051810190610ccf9190612359565b9092509050610ce86001600160a01b0387168387611a64565b6040805160a08101825282815230602082015242818301526060810187905260016080820152905163c04b8d5960e01b81526001600160a01b0384169163c04b8d5991610d3891906004016127d0565b602060405180830381600087803b158015610d5257600080fd5b505af1158015610d66573d6000803e3d6000fd5b505050506040513d601f19601f82011682018060405250810190610d8a9190612404565b9695505050505050565b60606002828451031015610dba5760405162461bcd60e51b81526004016103ff90612712565b610dc2611f1e565b5060408051606080820183526101f48252610bb860208301526127108284015282516003808252608082019094529192909190816020016020820280368337019050509050600080868681518110610e1657fe5b602002602001015190506000878760010181518110610e3157fe5b6020026020010151905060005b6003811015610f265760008a6001600160a01b0316631698ee8285858a8660038110610e6657fe5b60200201516040518463ffffffff1660e01b8152600401610e89939291906126c8565b60206040518083038186803b158015610ea157600080fd5b505afa158015610eb5573d6000803e3d6000fd5b505050506040513d601f19601f82011682018060405250810190610ed99190612257565b9050610ee481611afc565b15610f1d5780868680600101975081518110610efc57fe5b60200260200101906001600160a01b031690816001600160a01b0316815250505b50600101610e3e565b50505080610f3657505050611224565b855185600201141561102c57806001600160401b0381118015610f5857600080fd5b50604051908082528060200260200182016040528015610f8c57816020015b6060815260200190600190039081610f775790505b50935060005b8181101561102357604080516001808252818301909252906020808301908036833701905050858281518110610fc457fe5b6020026020010181905250828181518110610fdb57fe5b6020026020010151858281518110610fef57fe5b602002602001015160008151811061100357fe5b6001600160a01b0390921660209283029190910190910152600101610f92565b50505050611224565b606061103c888888600101610d94565b90508051600014156110515750505050611224565b805182026001600160401b038111801561106a57600080fd5b5060405190808252806020026020018201604052801561109e57816020015b60608152602001906001900390816110895790505b50945060005b8281101561121e5760005b82518110156112155782518281028201908490839081106110cc57fe5b6020026020010151516001016001600160401b03811180156110ed57600080fd5b50604051908082528060200260200182016040528015611117578160200160208202803683370190505b5088828151811061112457fe5b602002602001018190525085838151811061113b57fe5b602002602001015188828151811061114f57fe5b602002602001015160008151811061116357fe5b60200260200101906001600160a01b031690816001600160a01b03168152505060005b84838151811061119257fe5b60200260200101515181101561120b578483815181106111ae57fe5b602002602001015181815181106111c157fe5b60200260200101518983815181106111d557fe5b602002602001015182600101815181106111eb57fe5b6001600160a01b0390921660209283029190910190910152600101611186565b50506001016110af565b506001016110a4565b50505050505b9392505050565b60606002835110158015611243575081516001018351145b61125f5760405162461bcd60e51b81526004016103ff90612756565b81516003028351601402016001600160401b038111801561127f57600080fd5b506040519080825280601f01601f1916602001820160405280156112aa576020820181803683370190505b5090506020810160005b84518110156113865780156113595760008460018303815181106112d457fe5b60200260200101516001600160a01b031663ddca3f436040518163ffffffff1660e01b815260040160206040518083038186803b15801561131457600080fd5b505afa158015611328573d6000803e3d6000fd5b505050506040513d601f19601f8201168201806040525081019061134c91906123e1565b60e81b8352506003909101905b600085828151811061136757fe5b602090810291909101015160601b8352506014909101906001016112b4565b505092915050565b606082810151835160208501516040808701519051630fa7f81f60e11b815285943094631f4ff03e946113da9460a09390931b6001600160e01b03191693919290918a90600401612620565b600060405180830381600087803b1580156113f457600080fd5b505af1925050508015611405575060015b6103e7573d808015611433576040519150601f19603f3d011682016040523d82523d6000602084013e611438565b606091505b508080602001905181019061144d91906120e5565b935091506114589050565b9250929050565b805160208201fd5b604051828152816020820152604081fd5b606081516001600160401b038111801561149157600080fd5b506040519080825280602002602001820160405280156114bb578160200160208202803683370190505b50905060005b8251811015611510578260018285510303815181106114dc57fe5b60200260200101518282815181106114f057fe5b6001600160a01b03909216602092830291909101909101526001016114c1565b50919050565b606081516001600160401b038111801561152f57600080fd5b50604051908082528060200260200182016040528015611559578160200160208202803683370190505b50905060005b82518110156115105782600182855103038151811061157a57fe5b602002602001015182828151811061158e57fe5b6001600160a01b039092166020928302919091019091015260010161155f565b6060808251600014156115c057611458565b82516001600160401b03811180156115d757600080fd5b50604051908082528060200260200182016040528015611601578160200160208202803683370190505b50905082516001600160401b038111801561161b57600080fd5b50604051908082528060200260200182016040528015611645578160200160208202803683370190505b5060408051600180825281830190925291935060609190602080830190803683370190505090508360008151811061167957fe5b60200260200101518160008151811061168e57fe5b6020026020010181815250506116a2611f3c565b50604080516080808201835287516001600160a01b0390811683526020808a0151909116908301528783015182840152870151640100000000600160c01b0390831c90811663ffffffff9091161790911b6060820152611700611f3c565b604051806080016040528088602001516001600160a01b0316815260200188600001516001600160a01b031681526020018860600151815260200188608001518060601c9060401c63ffffffff1663ffffffff169060201b1760401b815250905061176b818461138e565b80519094501590508061179257508260008151811061178657fe5b60200260200101516000145b1561179f57505050611458565b60606117ab838561138e565b8051909250159050806117d25750806000815181106117c657fe5b60200260200101516000145b156117e05750505050611458565b60005b8751811015611a5857606060005b60038110156119b8576118408a848151811061180957fe5b60200260200101518560008151811061181e57fe5b60200260200101518960008151811061183357fe5b6020026020010151611d09565b8760008151811061184d57fe5b60209081029190910101528651158061187a57508660008151811061186e57fe5b60200260200101516000145b15611884576119b8565b61189d6005612710016127108960008151811061183357fe5b876000815181106118aa57fe5b6020908102919091010152865115806118d75750866000815181106118cb57fe5b60200260200101516000145b156118e1576119b8565b60606118ed878961138e565b80519194509150158061191457508060008151811061190857fe5b60200260200101516000145b1561191f57506119b8565b8094508a848151811061192e57fe5b60200260200101518560008151811061194357fe5b6020026020010151106119af5760008b858151811061195e57fe5b60200260200101516127108d878151811061197557fe5b60200260200101518860008151811061198a57fe5b602002602001015103028161199b57fe5b049050600581116119ad5750506119b8565b505b506001016117f1565b50600081511180156119cb575060008351115b15611a4f57806000815181106119dd57fe5b60200260200101518883815181106119f157fe5b602002602001018181525050611a36898381518110611a0c57fe5b602002602001015184600081518110611a2157fe5b60200260200101518860008151811061183357fe5b878381518110611a4257fe5b6020026020010181815250505b506001016117e3565b50505050509250929050565b604051636eb1769f60e11b815281906001600160a01b0385169063dd62ed3e90611a9490309087906004016124ee565b60206040518083038186803b158015611aac57600080fd5b505afa158015611ac0573d6000803e3d6000fd5b505050506040513d601f19601f82011682018060405250810190611ae49190612404565b1015611af757611af78383600019611d61565b505050565b6000813b80611b0f576000915050611d04565b50816001600160a01b0316630dfe16816040518163ffffffff1660e01b815260040160206040518083038186803b158015611b4957600080fd5b505afa158015611b5d573d6000803e3d6000fd5b505050506040513d601f19601f82011682018060405250810190611b819190612257565b6001600160a01b03166370a08231836040518263ffffffff1660e01b8152600401611bac91906124c1565b60206040518083038186803b158015611bc457600080fd5b505afa158015611bd8573d6000803e3d6000fd5b505050506040513d601f19601f82011682018060405250810190611bfc9190612404565b611c0857506000611d04565b816001600160a01b031663d21220a76040518163ffffffff1660e01b815260040160206040518083038186803b158015611c4157600080fd5b505afa158015611c55573d6000803e3d6000fd5b505050506040513d601f19601f82011682018060405250810190611c799190612257565b6001600160a01b03166370a08231836040518263ffffffff1660e01b8152600401611ca491906124c1565b60206040518083038186803b158015611cbc57600080fd5b505afa158015611cd0573d6000803e3d6000fd5b505050506040513d601f19601f82011682018060405250810190611cf49190612404565b611d0057506000611d04565b5060015b919050565b6000831580611d16575081155b80611d1f575082155b15611d2c57506000611224565b83820282858281611d3957fe5b0414611d49576000915050611224565b8360018503820181611d5757fe5b0495945050505050565b606063095ea7b360e01b8383604051602401611d7e9291906124d5565b60408051601f198184030181529190526020810180516001600160e01b03166001600160e01b0319909316929092179091529050611dbc8482611dc2565b50505050565b60006060836001600160a01b031683604051611dde91906124a5565b6000604051808303816000865af19150503d8060008114611e1b576040519150601f19603f3d011682016040523d82523d6000602084013e611e20565b606091505b5091509150818015611e365750611e3681611e4f565b15611e42575050611e4b565b611dbc8161145f565b5050565b6000815160001415611e6357506001611d04565b6020825110611d04576000611e79836000611e8e565b90508060011415611510576001915050611d04565b6000611224838360008160200183511015611ebb57611ebb611eb66005855185602001611ec4565b61145f565b50016020015190565b6060632800659560e01b848484604051602401611ee3939291906126f0565b60408051601f198184030181529190526020810180516001600160e01b03166001600160e01b03199093169290921790915290509392505050565b60405180606001604052806003906020820280368337509192915050565b6040805160808101825260008082526020820181905260609282018390529181019190915290565b600082601f830112611f74578081fd5b8135611f87611f8282612857565b612831565b818152915060208083019084810181840286018201871015611fa857600080fd5b60005b84811015611fc757813584529282019290820190600101611fab565b505050505092915050565b600082601f830112611fe2578081fd5b8151611ff0611f8282612857565b81815291506020808301908481018184028601820187101561201157600080fd5b60005b84811015611fc757815184529282019290820190600101612014565b600082601f830112612040578081fd5b813561204e611f8282612876565b915080825283602082850101111561206557600080fd5b8060208401602084013760009082016020015292915050565b60008060008060808587031215612093578384fd5b843561209e816128c5565b935060208501356120ae816128c5565b925060408501356001600160401b038111156120c8578283fd5b6120d487828801612030565b949793965093946060013593505050565b600080604083850312156120f7578182fd5b82516001600160401b038082111561210d578384fd5b61211986838701611fd2565b9350602085015191508082111561212e578283fd5b5061213b85828601611fd2565b9150509250929050565b600080600080600060a0868803121561215c578081fd5b8535612167816128dd565b94506020860135612177816128c5565b93506040860135612187816128c5565b925060608601356001600160401b03808211156121a2578283fd5b6121ae89838a01612030565b935060808801359150808211156121c3578283fd5b506121d088828901611f64565b9150509295509295909350565b600080600080600060a086880312156121f4578081fd5b85356121ff816128dd565b9450602086013561220f816128c5565b9350604086013561221f816128c5565b925060608601356001600160401b03811115612239578182fd5b61224588828901612030565b95989497509295608001359392505050565b600060208284031215612268578081fd5b8151611224816128c5565b60008060008060808587031215612288578182fd5b8435612293816128c5565b93506020858101356122a4816128c5565b935060408601356001600160401b03808211156122bf578485fd5b818801915088601f8301126122d2578485fd5b81356122e0611f8282612857565b81815284810190848601868402860187018d10156122fc578889fd5b8895505b83861015612327578035612313816128c5565b835260019590950194918601918601612300565b5096505050606088013592508083111561233f578384fd5b505061234d87828801611f64565b91505092959194509250565b6000806040838503121561236b578182fd5b8251612376816128c5565b60208401519092506001600160401b03811115612391578182fd5b8301601f810185136123a1578182fd5b80516123af611f8282612876565b8181528660208385010111156123c3578384fd5b6123d4826020830160208601612899565b8093505050509250929050565b6000602082840312156123f2578081fd5b815162ffffff81168114611224578182fd5b600060208284031215612415578081fd5b5051919050565b6000806040838503121561242e578182fd5b505080516020909101519092909150565b6000815180845260208085019450808401835b8381101561246e57815187529582019590820190600101612452565b509495945050505050565b60008151808452612491816020860160208601612899565b601f01601f19169290920160200192915050565b600082516124b7818460208701612899565b9190910192915050565b6001600160a01b0391909116815260200190565b6001600160a01b03929092168252602082015260400190565b6001600160a01b0392831681529116602082015260400190565b6001600160a01b0385811682528416602082015260806040820181905260009061253490830185612479565b905082606083015295945050505050565b6001600160a01b038316815260406020820181905260009061256990830184612479565b949350505050565b60006060820160608352808651808352608085019150602092506080838202860101838901855b838110156125c657607f198884030185526125b4838351612479565b94860194925090850190600101612598565b5050858103848701526125d9818961243f565b93505050508281036040840152610d8a818561243f565b600060408252612603604083018561243f565b8281036020840152610433818561243f565b901515815260200190565b6001600160e01b0319861681526001600160a01b0385811660208301528416604082015260a06060820181905260009061265c90830185612479565b828103608084015261266e818561243f565b98975050505050505050565b6001600160e01b0319861681526001600160a01b0385811660208301528416604082015260a0606082018190526000906126b690830185612479565b90508260808301529695505050505050565b6001600160a01b03938416815291909216602082015262ffffff909116604082015260600190565b60608101600885106126fe57fe5b938152602081019290925260409091015290565b60208082526024908201527f556e6973776170563353616d706c65722f746f6b656e5061746820746f6f20736040820152631a1bdc9d60e21b606082015260800190565b60208082526025908201527f556e6973776170563353616d706c65722f696e76616c69642070617468206c656040820152646e6774687360d81b606082015260800190565b6020808252818101527f537761702053616d706c652073686f756c642068617665207265766572746564604082015260600190565b600060208252825160a060208401526127ec60c0840182612479565b905060018060a01b0360208501511660408401526040840151606084015260608401516080840152608084015160a08401528091505092915050565b90815260200190565b6040518181016001600160401b038111828210171561284f57600080fd5b604052919050565b60006001600160401b0382111561286c578081fd5b5060209081020190565b60006001600160401b0382111561288b578081fd5b50601f01601f191660200190565b60005b838110156128b457818101518382015260200161289c565b83811115611dbc5750506000910152565b6001600160a01b03811681146128da57600080fd5b50565b6001600160e01b0319811681146128da57600080fdfea2646970667358221220e0062f81225a585c014a397fd2fee730fcae5f88ff7219e003c8736667e05f1c64736f6c634300060c0033",
                "opcodes": "PUSH1 0x80 PUSH1 0x40 MSTORE CALLVALUE DUP1 ISZERO PUSH2 0x10 JUMPI PUSH1 0x0 DUP1 REVERT JUMPDEST POP PUSH2 0x2929 DUP1 PUSH2 0x20 PUSH1 0x0 CODECOPY PUSH1 0x0 RETURN INVALID PUSH1 0x80 PUSH1 0x40 MSTORE PUSH1 0x4 CALLDATASIZE LT PUSH2 0x4E JUMPI PUSH1 0x0 CALLDATALOAD PUSH1 0xE0 SHR DUP1 PUSH4 0x1F4FF03E EQ PUSH2 0x5A JUMPI DUP1 PUSH4 0x59AB9A6C EQ PUSH2 0x7C JUMPI DUP1 PUSH4 0x6A33BC7E EQ PUSH2 0xB2 JUMPI DUP1 PUSH4 0x78FEE41C EQ PUSH2 0xE1 JUMPI DUP1 PUSH4 0xFA5DEF9F EQ PUSH2 0x101 JUMPI PUSH2 0x55 JUMP JUMPDEST CALLDATASIZE PUSH2 0x55 JUMPI STOP JUMPDEST PUSH1 0x0 DUP1 REVERT JUMPDEST CALLVALUE DUP1 ISZERO PUSH2 0x66 JUMPI PUSH1 0x0 DUP1 REVERT JUMPDEST POP PUSH2 0x7A PUSH2 0x75 CALLDATASIZE PUSH1 0x4 PUSH2 0x2145 JUMP JUMPDEST PUSH2 0x121 JUMP JUMPDEST STOP JUMPDEST CALLVALUE DUP1 ISZERO PUSH2 0x88 JUMPI PUSH1 0x0 DUP1 REVERT JUMPDEST POP PUSH2 0x9C PUSH2 0x97 CALLDATASIZE PUSH1 0x4 PUSH2 0x207E JUMP JUMPDEST PUSH2 0x426 JUMP JUMPDEST PUSH1 0x40 MLOAD PUSH2 0xA9 SWAP2 SWAP1 PUSH2 0x2828 JUMP JUMPDEST PUSH1 0x40 MLOAD DUP1 SWAP2 SUB SWAP1 RETURN JUMPDEST CALLVALUE DUP1 ISZERO PUSH2 0xBE JUMPI PUSH1 0x0 DUP1 REVERT JUMPDEST POP PUSH2 0xD2 PUSH2 0xCD CALLDATASIZE PUSH1 0x4 PUSH2 0x2273 JUMP JUMPDEST PUSH2 0x43C JUMP JUMPDEST PUSH1 0x40 MLOAD PUSH2 0xA9 SWAP4 SWAP3 SWAP2 SWAP1 PUSH2 0x2571 JUMP JUMPDEST CALLVALUE DUP1 ISZERO PUSH2 0xED JUMPI PUSH1 0x0 DUP1 REVERT JUMPDEST POP PUSH2 0x7A PUSH2 0xFC CALLDATASIZE PUSH1 0x4 PUSH2 0x21DD JUMP JUMPDEST PUSH2 0x74D JUMP JUMPDEST CALLVALUE DUP1 ISZERO PUSH2 0x10D JUMPI PUSH1 0x0 DUP1 REVERT JUMPDEST POP PUSH2 0xD2 PUSH2 0x11C CALLDATASIZE PUSH1 0x4 PUSH2 0x2273 JUMP JUMPDEST PUSH2 0x90D JUMP JUMPDEST PUSH1 0x0 DUP5 SWAP1 POP PUSH1 0x0 DUP3 PUSH1 0x1 DUP5 MLOAD SUB DUP2 MLOAD DUP2 LT PUSH2 0x138 JUMPI INVALID JUMPDEST PUSH1 0x20 MUL PUSH1 0x20 ADD ADD MLOAD SWAP1 POP DUP2 PUSH1 0x1 PUSH1 0x1 PUSH1 0xA0 SHL SUB AND PUSH4 0xE326C7D7 PUSH1 0x1 PUSH1 0x40 MLOAD DUP3 PUSH4 0xFFFFFFFF AND PUSH1 0xE0 SHL DUP2 MSTORE PUSH1 0x4 ADD PUSH2 0x16F SWAP2 SWAP1 PUSH2 0x2615 JUMP JUMPDEST PUSH1 0x0 PUSH1 0x40 MLOAD DUP1 DUP4 SUB DUP2 PUSH1 0x0 DUP8 DUP1 EXTCODESIZE ISZERO DUP1 ISZERO PUSH2 0x189 JUMPI PUSH1 0x0 DUP1 REVERT JUMPDEST POP GAS CALL SWAP3 POP POP POP DUP1 ISZERO PUSH2 0x19A JUMPI POP PUSH1 0x1 JUMPDEST POP PUSH1 0x40 MLOAD PUSH4 0x55C37053 PUSH1 0xE1 SHL DUP2 MSTORE PUSH1 0x1 PUSH1 0x1 PUSH1 0xA0 SHL SUB DUP4 AND SWAP1 PUSH4 0xAB86E0A6 SWAP1 PUSH2 0x1C9 SWAP1 ADDRESS SWAP1 DUP6 SWAP1 PUSH1 0x4 ADD PUSH2 0x24D5 JUMP JUMPDEST PUSH1 0x0 PUSH1 0x40 MLOAD DUP1 DUP4 SUB DUP2 PUSH1 0x0 DUP8 DUP1 EXTCODESIZE ISZERO DUP1 ISZERO PUSH2 0x1E3 JUMPI PUSH1 0x0 DUP1 REVERT JUMPDEST POP GAS CALL SWAP3 POP POP POP DUP1 ISZERO PUSH2 0x1F4 JUMPI POP PUSH1 0x1 JUMPDEST POP DUP6 PUSH1 0x1 PUSH1 0x1 PUSH1 0xA0 SHL SUB AND PUSH4 0xD0E30DB0 DUP3 PUSH1 0x40 MLOAD DUP3 PUSH4 0xFFFFFFFF AND PUSH1 0xE0 SHL DUP2 MSTORE PUSH1 0x4 ADD PUSH1 0x0 PUSH1 0x40 MLOAD DUP1 DUP4 SUB DUP2 DUP6 DUP9 DUP1 EXTCODESIZE ISZERO DUP1 ISZERO PUSH2 0x230 JUMPI PUSH1 0x0 DUP1 REVERT JUMPDEST POP GAS CALL SWAP4 POP POP POP POP DUP1 ISZERO PUSH2 0x242 JUMPI POP PUSH1 0x1 JUMPDEST POP PUSH1 0x60 DUP4 MLOAD PUSH1 0x1 PUSH1 0x1 PUSH1 0x40 SHL SUB DUP2 GT DUP1 ISZERO PUSH2 0x25C JUMPI PUSH1 0x0 DUP1 REVERT JUMPDEST POP PUSH1 0x40 MLOAD SWAP1 DUP1 DUP3 MSTORE DUP1 PUSH1 0x20 MUL PUSH1 0x20 ADD DUP3 ADD PUSH1 0x40 MSTORE DUP1 ISZERO PUSH2 0x286 JUMPI DUP2 PUSH1 0x20 ADD PUSH1 0x20 DUP3 MUL DUP1 CALLDATASIZE DUP4 CALLDATACOPY ADD SWAP1 POP JUMPDEST POP SWAP1 POP PUSH1 0x60 DUP5 MLOAD PUSH1 0x1 PUSH1 0x1 PUSH1 0x40 SHL SUB DUP2 GT DUP1 ISZERO PUSH2 0x2A2 JUMPI PUSH1 0x0 DUP1 REVERT JUMPDEST POP PUSH1 0x40 MLOAD SWAP1 DUP1 DUP3 MSTORE DUP1 PUSH1 0x20 MUL PUSH1 0x20 ADD DUP3 ADD PUSH1 0x40 MSTORE DUP1 ISZERO PUSH2 0x2CC JUMPI DUP2 PUSH1 0x20 ADD PUSH1 0x20 DUP3 MUL DUP1 CALLDATASIZE DUP4 CALLDATACOPY ADD SWAP1 POP JUMPDEST POP SWAP1 POP PUSH1 0x0 JUMPDEST DUP6 MLOAD DUP2 LT ISZERO PUSH2 0x410 JUMPI ADDRESS PUSH1 0x1 PUSH1 0x1 PUSH1 0xA0 SHL SUB AND PUSH4 0x78FEE41C PUSH3 0x1E8480 DUP13 DUP13 DUP13 DUP13 DUP13 DUP9 DUP2 MLOAD DUP2 LT PUSH2 0x2FE JUMPI INVALID JUMPDEST PUSH1 0x20 MUL PUSH1 0x20 ADD ADD MLOAD PUSH1 0x40 MLOAD DUP8 PUSH4 0xFFFFFFFF AND PUSH1 0xE0 SHL DUP2 MSTORE PUSH1 0x4 ADD PUSH2 0x326 SWAP6 SWAP5 SWAP4 SWAP3 SWAP2 SWAP1 PUSH2 0x267A JUMP JUMPDEST PUSH1 0x0 PUSH1 0x40 MLOAD DUP1 DUP4 SUB DUP2 PUSH1 0x0 DUP9 DUP1 EXTCODESIZE ISZERO DUP1 ISZERO PUSH2 0x340 JUMPI PUSH1 0x0 DUP1 REVERT JUMPDEST POP DUP8 CALL SWAP4 POP POP POP POP DUP1 ISZERO PUSH2 0x352 JUMPI POP PUSH1 0x1 JUMPDEST PUSH2 0x3E7 JUMPI RETURNDATASIZE DUP1 DUP1 ISZERO PUSH2 0x380 JUMPI PUSH1 0x40 MLOAD SWAP2 POP PUSH1 0x1F NOT PUSH1 0x3F RETURNDATASIZE ADD AND DUP3 ADD PUSH1 0x40 MSTORE RETURNDATASIZE DUP3 MSTORE RETURNDATASIZE PUSH1 0x0 PUSH1 0x20 DUP5 ADD RETURNDATACOPY PUSH2 0x385 JUMP JUMPDEST PUSH1 0x60 SWAP2 POP JUMPDEST POP PUSH2 0x38F DUP2 PUSH2 0xC53 JUMP JUMPDEST DUP6 DUP5 DUP2 MLOAD DUP2 LT PUSH2 0x39B JUMPI INVALID JUMPDEST PUSH1 0x20 MUL PUSH1 0x20 ADD ADD DUP6 DUP6 DUP2 MLOAD DUP2 LT PUSH2 0x3AE JUMPI INVALID JUMPDEST PUSH1 0x20 MUL PUSH1 0x20 ADD ADD DUP3 DUP2 MSTORE POP DUP3 DUP2 MSTORE POP POP POP DUP4 DUP3 DUP2 MLOAD DUP2 LT PUSH2 0x3CB JUMPI INVALID JUMPDEST PUSH1 0x20 MUL PUSH1 0x20 ADD ADD MLOAD PUSH1 0x0 EQ ISZERO PUSH2 0x3E1 JUMPI POP PUSH2 0x410 JUMP JUMPDEST POP PUSH2 0x408 JUMP JUMPDEST PUSH1 0x40 MLOAD PUSH3 0x461BCD PUSH1 0xE5 SHL DUP2 MSTORE PUSH1 0x4 ADD PUSH2 0x3FF SWAP1 PUSH2 0x279B JUMP JUMPDEST PUSH1 0x40 MLOAD DUP1 SWAP2 SUB SWAP1 REVERT JUMPDEST PUSH1 0x1 ADD PUSH2 0x2D2 JUMP JUMPDEST POP PUSH2 0x41B DUP3 DUP3 PUSH2 0xC88 JUMP JUMPDEST POP POP POP POP POP POP POP POP POP JUMP JUMPDEST PUSH1 0x0 PUSH2 0x433 DUP6 DUP4 DUP6 PUSH2 0xCB6 JUMP JUMPDEST SWAP6 SWAP5 POP POP POP POP POP JUMP JUMPDEST PUSH1 0x60 DUP1 PUSH1 0x60 DUP1 PUSH2 0x4BE DUP9 PUSH1 0x1 PUSH1 0x1 PUSH1 0xA0 SHL SUB AND PUSH4 0xC45A0155 PUSH1 0x40 MLOAD DUP2 PUSH4 0xFFFFFFFF AND PUSH1 0xE0 SHL DUP2 MSTORE PUSH1 0x4 ADD PUSH1 0x20 PUSH1 0x40 MLOAD DUP1 DUP4 SUB DUP2 DUP7 DUP1 EXTCODESIZE ISZERO DUP1 ISZERO PUSH2 0x47E JUMPI PUSH1 0x0 DUP1 REVERT JUMPDEST POP GAS STATICCALL ISZERO DUP1 ISZERO PUSH2 0x492 JUMPI RETURNDATASIZE PUSH1 0x0 DUP1 RETURNDATACOPY RETURNDATASIZE PUSH1 0x0 REVERT JUMPDEST POP POP POP POP PUSH1 0x40 MLOAD RETURNDATASIZE PUSH1 0x1F NOT PUSH1 0x1F DUP3 ADD AND DUP3 ADD DUP1 PUSH1 0x40 MSTORE POP DUP2 ADD SWAP1 PUSH2 0x4B6 SWAP2 SWAP1 PUSH2 0x2257 JUMP JUMPDEST DUP8 PUSH1 0x0 PUSH2 0xD94 JUMP JUMPDEST SWAP1 POP DUP5 MLOAD PUSH1 0x1 PUSH1 0x1 PUSH1 0x40 SHL SUB DUP2 GT DUP1 ISZERO PUSH2 0x4D7 JUMPI PUSH1 0x0 DUP1 REVERT JUMPDEST POP PUSH1 0x40 MLOAD SWAP1 DUP1 DUP3 MSTORE DUP1 PUSH1 0x20 MUL PUSH1 0x20 ADD DUP3 ADD PUSH1 0x40 MSTORE DUP1 ISZERO PUSH2 0x501 JUMPI DUP2 PUSH1 0x20 ADD PUSH1 0x20 DUP3 MUL DUP1 CALLDATASIZE DUP4 CALLDATACOPY ADD SWAP1 POP JUMPDEST POP SWAP2 POP DUP5 MLOAD PUSH1 0x1 PUSH1 0x1 PUSH1 0x40 SHL SUB DUP2 GT DUP1 ISZERO PUSH2 0x51B JUMPI PUSH1 0x0 DUP1 REVERT JUMPDEST POP PUSH1 0x40 MLOAD SWAP1 DUP1 DUP3 MSTORE DUP1 PUSH1 0x20 MUL PUSH1 0x20 ADD DUP3 ADD PUSH1 0x40 MSTORE DUP1 ISZERO PUSH2 0x545 JUMPI DUP2 PUSH1 0x20 ADD PUSH1 0x20 DUP3 MUL DUP1 CALLDATASIZE DUP4 CALLDATACOPY ADD SWAP1 POP JUMPDEST POP SWAP3 POP DUP5 MLOAD PUSH1 0x1 PUSH1 0x1 PUSH1 0x40 SHL SUB DUP2 GT DUP1 ISZERO PUSH2 0x55F JUMPI PUSH1 0x0 DUP1 REVERT JUMPDEST POP PUSH1 0x40 MLOAD SWAP1 DUP1 DUP3 MSTORE DUP1 PUSH1 0x20 MUL PUSH1 0x20 ADD DUP3 ADD PUSH1 0x40 MSTORE DUP1 ISZERO PUSH2 0x593 JUMPI DUP2 PUSH1 0x20 ADD JUMPDEST PUSH1 0x60 DUP2 MSTORE PUSH1 0x20 ADD SWAP1 PUSH1 0x1 SWAP1 SUB SWAP1 DUP2 PUSH2 0x57E JUMPI SWAP1 POP JUMPDEST POP SWAP4 POP PUSH1 0x0 JUMPDEST DUP2 MLOAD DUP2 LT ISZERO PUSH2 0x741 JUMPI PUSH1 0x60 PUSH2 0x5C1 DUP9 DUP5 DUP5 DUP2 MLOAD DUP2 LT PUSH2 0x5B4 JUMPI INVALID JUMPDEST PUSH1 0x20 MUL PUSH1 0x20 ADD ADD MLOAD PUSH2 0x122B JUMP JUMPDEST SWAP1 POP PUSH1 0x60 DUP1 PUSH2 0x65B PUSH1 0x40 MLOAD DUP1 PUSH1 0x80 ADD PUSH1 0x40 MSTORE DUP1 DUP13 PUSH1 0x0 DUP2 MLOAD DUP2 LT PUSH2 0x5E1 JUMPI INVALID JUMPDEST PUSH1 0x20 MUL PUSH1 0x20 ADD ADD MLOAD PUSH1 0x1 PUSH1 0x1 PUSH1 0xA0 SHL SUB AND DUP2 MSTORE PUSH1 0x20 ADD DUP13 PUSH1 0x1 DUP15 MLOAD SUB DUP2 MLOAD DUP2 LT PUSH2 0x607 JUMPI INVALID JUMPDEST PUSH1 0x20 MUL PUSH1 0x20 ADD ADD MLOAD PUSH1 0x1 PUSH1 0x1 PUSH1 0xA0 SHL SUB AND DUP2 MSTORE PUSH1 0x20 ADD DUP14 DUP7 PUSH1 0x40 MLOAD PUSH1 0x20 ADD PUSH2 0x630 SWAP3 SWAP2 SWAP1 PUSH2 0x2545 JUMP JUMPDEST PUSH1 0x40 DUP1 MLOAD PUSH1 0x1F NOT DUP2 DUP5 SUB ADD DUP2 MSTORE SWAP2 DUP2 MSTORE SWAP1 DUP3 MSTORE ADDRESS PUSH1 0x20 SWAP1 DUP2 SHL PUSH4 0x59AB9A6C OR SWAP1 SWAP2 SHL SWAP2 ADD MSTORE DUP11 PUSH2 0x138E JUMP JUMPDEST SWAP2 POP SWAP2 POP PUSH1 0x0 JUMPDEST DUP2 MLOAD DUP2 LT ISZERO PUSH2 0x732 JUMPI DUP2 DUP2 DUP2 MLOAD DUP2 LT PUSH2 0x677 JUMPI INVALID JUMPDEST PUSH1 0x20 MUL PUSH1 0x20 ADD ADD MLOAD PUSH1 0x0 EQ ISZERO PUSH2 0x68C JUMPI PUSH2 0x732 JUMP JUMPDEST DUP2 DUP2 DUP2 MLOAD DUP2 LT PUSH2 0x698 JUMPI INVALID JUMPDEST PUSH1 0x20 MUL PUSH1 0x20 ADD ADD MLOAD DUP8 DUP3 DUP2 MLOAD DUP2 LT PUSH2 0x6AC JUMPI INVALID JUMPDEST PUSH1 0x20 MUL PUSH1 0x20 ADD ADD MLOAD GT PUSH2 0x72A JUMPI DUP2 DUP2 DUP2 MLOAD DUP2 LT PUSH2 0x6C5 JUMPI INVALID JUMPDEST PUSH1 0x20 MUL PUSH1 0x20 ADD ADD MLOAD DUP8 DUP3 DUP2 MLOAD DUP2 LT PUSH2 0x6D9 JUMPI INVALID JUMPDEST PUSH1 0x20 MUL PUSH1 0x20 ADD ADD DUP2 DUP2 MSTORE POP POP DUP3 DUP2 DUP2 MLOAD DUP2 LT PUSH2 0x6F1 JUMPI INVALID JUMPDEST PUSH1 0x20 MUL PUSH1 0x20 ADD ADD MLOAD DUP9 DUP3 DUP2 MLOAD DUP2 LT PUSH2 0x705 JUMPI INVALID JUMPDEST PUSH1 0x20 MUL PUSH1 0x20 ADD ADD DUP2 DUP2 MSTORE POP POP DUP4 DUP10 DUP3 DUP2 MLOAD DUP2 LT PUSH2 0x71E JUMPI INVALID JUMPDEST PUSH1 0x20 MUL PUSH1 0x20 ADD ADD DUP2 SWAP1 MSTORE POP JUMPDEST PUSH1 0x1 ADD PUSH2 0x662 JUMP JUMPDEST POP POP POP POP DUP1 PUSH1 0x1 ADD SWAP1 POP PUSH2 0x599 JUMP JUMPDEST POP POP SWAP5 POP SWAP5 POP SWAP5 SWAP2 POP POP JUMP JUMPDEST PUSH2 0x1337 PUSH2 0xDEF1 PUSH1 0x90 SHL ADD PUSH1 0x1 PUSH1 0x1 PUSH1 0xA0 SHL SUB AND PUSH4 0xD0AFDCA9 PUSH1 0x40 MLOAD DUP2 PUSH4 0xFFFFFFFF AND PUSH1 0xE0 SHL DUP2 MSTORE PUSH1 0x4 ADD PUSH1 0x0 PUSH1 0x40 MLOAD DUP1 DUP4 SUB DUP2 PUSH1 0x0 DUP8 DUP1 EXTCODESIZE ISZERO DUP1 ISZERO PUSH2 0x791 JUMPI PUSH1 0x0 DUP1 REVERT JUMPDEST POP GAS CALL SWAP3 POP POP POP DUP1 ISZERO PUSH2 0x7A2 JUMPI POP PUSH1 0x1 JUMPDEST POP PUSH1 0x0 GAS SWAP1 POP PUSH1 0x0 PUSH1 0x60 ADDRESS PUSH1 0x1 PUSH1 0x1 PUSH1 0xA0 SHL SUB AND DUP9 DUP9 DUP9 DUP9 DUP9 PUSH1 0x40 MLOAD PUSH1 0x24 ADD PUSH2 0x7CE SWAP5 SWAP4 SWAP3 SWAP2 SWAP1 PUSH2 0x2508 JUMP JUMPDEST PUSH1 0x40 DUP1 MLOAD PUSH1 0x1F NOT DUP2 DUP5 SUB ADD DUP2 MSTORE SWAP2 DUP2 MSTORE PUSH1 0x20 DUP3 ADD DUP1 MLOAD PUSH1 0x1 PUSH1 0x1 PUSH1 0xE0 SHL SUB AND PUSH1 0x1 PUSH1 0x1 PUSH1 0xE0 SHL SUB NOT SWAP1 SWAP5 AND SWAP4 SWAP1 SWAP4 OR SWAP1 SWAP3 MSTORE SWAP1 MLOAD PUSH2 0x80C SWAP2 SWAP1 PUSH2 0x24A5 JUMP JUMPDEST PUSH1 0x0 PUSH1 0x40 MLOAD DUP1 DUP4 SUB DUP2 PUSH1 0x0 DUP7 GAS CALL SWAP2 POP POP RETURNDATASIZE DUP1 PUSH1 0x0 DUP2 EQ PUSH2 0x849 JUMPI PUSH1 0x40 MLOAD SWAP2 POP PUSH1 0x1F NOT PUSH1 0x3F RETURNDATASIZE ADD AND DUP3 ADD PUSH1 0x40 MSTORE RETURNDATASIZE DUP3 MSTORE RETURNDATASIZE PUSH1 0x0 PUSH1 0x20 DUP5 ADD RETURNDATACOPY PUSH2 0x84E JUMP JUMPDEST PUSH1 0x60 SWAP2 POP JUMPDEST POP SWAP2 POP SWAP2 POP GAS DUP4 SUB SWAP3 POP PUSH2 0x1337 PUSH2 0xDEF1 PUSH1 0x90 SHL ADD PUSH1 0x1 PUSH1 0x1 PUSH1 0xA0 SHL SUB AND PUSH4 0xC18C162 PUSH1 0x40 MLOAD DUP2 PUSH4 0xFFFFFFFF AND PUSH1 0xE0 SHL DUP2 MSTORE PUSH1 0x4 ADD PUSH1 0x20 PUSH1 0x40 MLOAD DUP1 DUP4 SUB DUP2 DUP7 DUP1 EXTCODESIZE ISZERO DUP1 ISZERO PUSH2 0x89A JUMPI PUSH1 0x0 DUP1 REVERT JUMPDEST POP GAS STATICCALL SWAP3 POP POP POP DUP1 ISZERO PUSH2 0x8CA JUMPI POP PUSH1 0x40 DUP1 MLOAD PUSH1 0x1F RETURNDATASIZE SWAP1 DUP2 ADD PUSH1 0x1F NOT AND DUP3 ADD SWAP1 SWAP3 MSTORE PUSH2 0x8C7 SWAP2 DUP2 ADD SWAP1 PUSH2 0x2404 JUMP JUMPDEST PUSH1 0x1 JUMPDEST PUSH2 0x8D3 JUMPI PUSH2 0x8D8 JUMP JUMPDEST SWAP1 SWAP3 SUB SWAP2 JUMPDEST DUP2 PUSH2 0x8E6 JUMPI PUSH2 0x8E6 DUP2 PUSH2 0x145F JUMP JUMPDEST PUSH2 0x903 DUP2 DUP1 PUSH1 0x20 ADD SWAP1 MLOAD DUP2 ADD SWAP1 PUSH2 0x8FD SWAP2 SWAP1 PUSH2 0x2404 JUMP JUMPDEST DUP5 PUSH2 0x1467 JUMP JUMPDEST POP POP POP POP POP POP POP POP JUMP JUMPDEST PUSH1 0x60 DUP1 PUSH1 0x60 DUP1 PUSH2 0x94F DUP9 PUSH1 0x1 PUSH1 0x1 PUSH1 0xA0 SHL SUB AND PUSH4 0xC45A0155 PUSH1 0x40 MLOAD DUP2 PUSH4 0xFFFFFFFF AND PUSH1 0xE0 SHL DUP2 MSTORE PUSH1 0x4 ADD PUSH1 0x20 PUSH1 0x40 MLOAD DUP1 DUP4 SUB DUP2 DUP7 DUP1 EXTCODESIZE ISZERO DUP1 ISZERO PUSH2 0x47E JUMPI PUSH1 0x0 DUP1 REVERT JUMPDEST SWAP1 POP PUSH1 0x60 PUSH2 0x95C DUP8 PUSH2 0x1478 JUMP JUMPDEST SWAP1 POP DUP6 MLOAD PUSH1 0x1 PUSH1 0x1 PUSH1 0x40 SHL SUB DUP2 GT DUP1 ISZERO PUSH2 0x975 JUMPI PUSH1 0x0 DUP1 REVERT JUMPDEST POP PUSH1 0x40 MLOAD SWAP1 DUP1 DUP3 MSTORE DUP1 PUSH1 0x20 MUL PUSH1 0x20 ADD DUP3 ADD PUSH1 0x40 MSTORE DUP1 ISZERO PUSH2 0x99F JUMPI DUP2 PUSH1 0x20 ADD PUSH1 0x20 DUP3 MUL DUP1 CALLDATASIZE DUP4 CALLDATACOPY ADD SWAP1 POP JUMPDEST POP SWAP3 POP DUP6 MLOAD PUSH1 0x1 PUSH1 0x1 PUSH1 0x40 SHL SUB DUP2 GT DUP1 ISZERO PUSH2 0x9B9 JUMPI PUSH1 0x0 DUP1 REVERT JUMPDEST POP PUSH1 0x40 MLOAD SWAP1 DUP1 DUP3 MSTORE DUP1 PUSH1 0x20 MUL PUSH1 0x20 ADD DUP3 ADD PUSH1 0x40 MSTORE DUP1 ISZERO PUSH2 0x9E3 JUMPI DUP2 PUSH1 0x20 ADD PUSH1 0x20 DUP3 MUL DUP1 CALLDATASIZE DUP4 CALLDATACOPY ADD SWAP1 POP JUMPDEST POP SWAP4 POP DUP6 MLOAD PUSH1 0x1 PUSH1 0x1 PUSH1 0x40 SHL SUB DUP2 GT DUP1 ISZERO PUSH2 0x9FD JUMPI PUSH1 0x0 DUP1 REVERT JUMPDEST POP PUSH1 0x40 MLOAD SWAP1 DUP1 DUP3 MSTORE DUP1 PUSH1 0x20 MUL PUSH1 0x20 ADD DUP3 ADD PUSH1 0x40 MSTORE DUP1 ISZERO PUSH2 0xA31 JUMPI DUP2 PUSH1 0x20 ADD JUMPDEST PUSH1 0x60 DUP2 MSTORE PUSH1 0x20 ADD SWAP1 PUSH1 0x1 SWAP1 SUB SWAP1 DUP2 PUSH2 0xA1C JUMPI SWAP1 POP JUMPDEST POP SWAP5 POP PUSH1 0x0 JUMPDEST DUP3 MLOAD DUP2 LT ISZERO PUSH2 0xC46 JUMPI PUSH1 0x60 DUP1 PUSH2 0xB32 PUSH1 0x40 MLOAD DUP1 PUSH1 0xA0 ADD PUSH1 0x40 MSTORE DUP1 DUP13 PUSH1 0x0 DUP2 MLOAD DUP2 LT PUSH2 0xA5E JUMPI INVALID JUMPDEST PUSH1 0x20 MUL PUSH1 0x20 ADD ADD MLOAD PUSH1 0x1 PUSH1 0x1 PUSH1 0xA0 SHL SUB AND DUP2 MSTORE PUSH1 0x20 ADD DUP13 PUSH1 0x1 DUP15 MLOAD SUB DUP2 MLOAD DUP2 LT PUSH2 0xA84 JUMPI INVALID JUMPDEST PUSH1 0x20 MUL PUSH1 0x20 ADD ADD MLOAD PUSH1 0x1 PUSH1 0x1 PUSH1 0xA0 SHL SUB AND DUP2 MSTORE PUSH1 0x20 ADD DUP14 PUSH2 0xAAB DUP15 DUP11 DUP10 DUP2 MLOAD DUP2 LT PUSH2 0x5B4 JUMPI INVALID JUMPDEST PUSH1 0x40 MLOAD PUSH1 0x20 ADD PUSH2 0xABC SWAP3 SWAP2 SWAP1 PUSH2 0x2545 JUMP JUMPDEST PUSH1 0x40 MLOAD PUSH1 0x20 DUP2 DUP4 SUB SUB DUP2 MSTORE SWAP1 PUSH1 0x40 MSTORE DUP2 MSTORE PUSH1 0x20 ADD DUP14 PUSH2 0xAF6 DUP9 PUSH2 0xAF1 DUP12 DUP11 DUP2 MLOAD DUP2 LT PUSH2 0xAE4 JUMPI INVALID JUMPDEST PUSH1 0x20 MUL PUSH1 0x20 ADD ADD MLOAD PUSH2 0x1516 JUMP JUMPDEST PUSH2 0x122B JUMP JUMPDEST PUSH1 0x40 MLOAD PUSH1 0x20 ADD PUSH2 0xB07 SWAP3 SWAP2 SWAP1 PUSH2 0x2545 JUMP JUMPDEST PUSH1 0x40 DUP1 MLOAD PUSH1 0x1F NOT DUP2 DUP5 SUB ADD DUP2 MSTORE SWAP2 DUP2 MSTORE SWAP1 DUP3 MSTORE ADDRESS PUSH1 0x20 SWAP1 DUP2 SHL PUSH4 0x59AB9A6C OR SWAP1 SWAP2 SHL SWAP2 ADD MSTORE DUP11 PUSH2 0x15AE JUMP JUMPDEST SWAP2 POP SWAP2 POP PUSH1 0x0 JUMPDEST DUP2 MLOAD DUP2 LT ISZERO PUSH2 0xC38 JUMPI DUP2 DUP2 DUP2 MLOAD DUP2 LT PUSH2 0xB4E JUMPI INVALID JUMPDEST PUSH1 0x20 MUL PUSH1 0x20 ADD ADD MLOAD PUSH1 0x0 EQ ISZERO PUSH2 0xB63 JUMPI PUSH2 0xC38 JUMP JUMPDEST DUP7 DUP2 DUP2 MLOAD DUP2 LT PUSH2 0xB6F JUMPI INVALID JUMPDEST PUSH1 0x20 MUL PUSH1 0x20 ADD ADD MLOAD PUSH1 0x0 EQ DUP1 PUSH2 0xBAB JUMPI POP DUP2 DUP2 DUP2 MLOAD DUP2 LT PUSH2 0xB8C JUMPI INVALID JUMPDEST PUSH1 0x20 MUL PUSH1 0x20 ADD ADD MLOAD DUP8 DUP3 DUP2 MLOAD DUP2 LT PUSH2 0xBA0 JUMPI INVALID JUMPDEST PUSH1 0x20 MUL PUSH1 0x20 ADD ADD MLOAD LT ISZERO JUMPDEST ISZERO PUSH2 0xC30 JUMPI DUP2 DUP2 DUP2 MLOAD DUP2 LT PUSH2 0xBBC JUMPI INVALID JUMPDEST PUSH1 0x20 MUL PUSH1 0x20 ADD ADD MLOAD DUP8 DUP3 DUP2 MLOAD DUP2 LT PUSH2 0xBD0 JUMPI INVALID JUMPDEST PUSH1 0x20 MUL PUSH1 0x20 ADD ADD DUP2 DUP2 MSTORE POP POP DUP3 DUP2 DUP2 MLOAD DUP2 LT PUSH2 0xBE8 JUMPI INVALID JUMPDEST PUSH1 0x20 MUL PUSH1 0x20 ADD ADD MLOAD DUP9 DUP3 DUP2 MLOAD DUP2 LT PUSH2 0xBFC JUMPI INVALID JUMPDEST PUSH1 0x20 MUL PUSH1 0x20 ADD ADD DUP2 DUP2 MSTORE POP POP PUSH2 0xC18 DUP12 DUP8 DUP7 DUP2 MLOAD DUP2 LT PUSH2 0x5B4 JUMPI INVALID JUMPDEST DUP10 DUP3 DUP2 MLOAD DUP2 LT PUSH2 0xC24 JUMPI INVALID JUMPDEST PUSH1 0x20 MUL PUSH1 0x20 ADD ADD DUP2 SWAP1 MSTORE POP JUMPDEST PUSH1 0x1 ADD PUSH2 0xB39 JUMP JUMPDEST POP POP POP DUP1 PUSH1 0x1 ADD SWAP1 POP PUSH2 0xA37 JUMP JUMPDEST POP POP POP SWAP5 POP SWAP5 POP SWAP5 SWAP2 POP POP JUMP JUMPDEST PUSH1 0x0 DUP1 DUP3 MLOAD PUSH1 0x40 EQ PUSH2 0xC6A JUMPI POP PUSH1 0x0 SWAP1 POP DUP1 PUSH2 0xC83 JUMP JUMPDEST DUP3 DUP1 PUSH1 0x20 ADD SWAP1 MLOAD DUP2 ADD SWAP1 PUSH2 0xC7E SWAP2 SWAP1 PUSH2 0x241C JUMP JUMPDEST SWAP2 POP SWAP2 POP JUMPDEST SWAP2 POP SWAP2 JUMP JUMPDEST PUSH1 0x60 DUP3 DUP3 PUSH1 0x40 MLOAD PUSH1 0x20 ADD PUSH2 0xC9D SWAP3 SWAP2 SWAP1 PUSH2 0x25F0 JUMP JUMPDEST PUSH1 0x40 MLOAD PUSH1 0x20 DUP2 DUP4 SUB SUB DUP2 MSTORE SWAP1 PUSH1 0x40 MSTORE SWAP1 POP DUP1 MLOAD PUSH1 0x20 DUP3 ADD REVERT JUMPDEST PUSH1 0x0 DUP1 PUSH1 0x60 DUP4 DUP1 PUSH1 0x20 ADD SWAP1 MLOAD DUP2 ADD SWAP1 PUSH2 0xCCF SWAP2 SWAP1 PUSH2 0x2359 JUMP JUMPDEST SWAP1 SWAP3 POP SWAP1 POP PUSH2 0xCE8 PUSH1 0x1 PUSH1 0x1 PUSH1 0xA0 SHL SUB DUP8 AND DUP4 DUP8 PUSH2 0x1A64 JUMP JUMPDEST PUSH1 0x40 DUP1 MLOAD PUSH1 0xA0 DUP2 ADD DUP3 MSTORE DUP3 DUP2 MSTORE ADDRESS PUSH1 0x20 DUP3 ADD MSTORE TIMESTAMP DUP2 DUP4 ADD MSTORE PUSH1 0x60 DUP2 ADD DUP8 SWAP1 MSTORE PUSH1 0x1 PUSH1 0x80 DUP3 ADD MSTORE SWAP1 MLOAD PUSH4 0xC04B8D59 PUSH1 0xE0 SHL DUP2 MSTORE PUSH1 0x1 PUSH1 0x1 PUSH1 0xA0 SHL SUB DUP5 AND SWAP2 PUSH4 0xC04B8D59 SWAP2 PUSH2 0xD38 SWAP2 SWAP1 PUSH1 0x4 ADD PUSH2 0x27D0 JUMP JUMPDEST PUSH1 0x20 PUSH1 0x40 MLOAD DUP1 DUP4 SUB DUP2 PUSH1 0x0 DUP8 DUP1 EXTCODESIZE ISZERO DUP1 ISZERO PUSH2 0xD52 JUMPI PUSH1 0x0 DUP1 REVERT JUMPDEST POP GAS CALL ISZERO DUP1 ISZERO PUSH2 0xD66 JUMPI RETURNDATASIZE PUSH1 0x0 DUP1 RETURNDATACOPY RETURNDATASIZE PUSH1 0x0 REVERT JUMPDEST POP POP POP POP PUSH1 0x40 MLOAD RETURNDATASIZE PUSH1 0x1F NOT PUSH1 0x1F DUP3 ADD AND DUP3 ADD DUP1 PUSH1 0x40 MSTORE POP DUP2 ADD SWAP1 PUSH2 0xD8A SWAP2 SWAP1 PUSH2 0x2404 JUMP JUMPDEST SWAP7 SWAP6 POP POP POP POP POP POP JUMP JUMPDEST PUSH1 0x60 PUSH1 0x2 DUP3 DUP5 MLOAD SUB LT ISZERO PUSH2 0xDBA JUMPI PUSH1 0x40 MLOAD PUSH3 0x461BCD PUSH1 0xE5 SHL DUP2 MSTORE PUSH1 0x4 ADD PUSH2 0x3FF SWAP1 PUSH2 0x2712 JUMP JUMPDEST PUSH2 0xDC2 PUSH2 0x1F1E JUMP JUMPDEST POP PUSH1 0x40 DUP1 MLOAD PUSH1 0x60 DUP1 DUP3 ADD DUP4 MSTORE PUSH2 0x1F4 DUP3 MSTORE PUSH2 0xBB8 PUSH1 0x20 DUP4 ADD MSTORE PUSH2 0x2710 DUP3 DUP5 ADD MSTORE DUP3 MLOAD PUSH1 0x3 DUP1 DUP3 MSTORE PUSH1 0x80 DUP3 ADD SWAP1 SWAP5 MSTORE SWAP2 SWAP3 SWAP1 SWAP2 SWAP1 DUP2 PUSH1 0x20 ADD PUSH1 0x20 DUP3 MUL DUP1 CALLDATASIZE DUP4 CALLDATACOPY ADD SWAP1 POP POP SWAP1 POP PUSH1 0x0 DUP1 DUP7 DUP7 DUP2 MLOAD DUP2 LT PUSH2 0xE16 JUMPI INVALID JUMPDEST PUSH1 0x20 MUL PUSH1 0x20 ADD ADD MLOAD SWAP1 POP PUSH1 0x0 DUP8 DUP8 PUSH1 0x1 ADD DUP2 MLOAD DUP2 LT PUSH2 0xE31 JUMPI INVALID JUMPDEST PUSH1 0x20 MUL PUSH1 0x20 ADD ADD MLOAD SWAP1 POP PUSH1 0x0 JUMPDEST PUSH1 0x3 DUP2 LT ISZERO PUSH2 0xF26 JUMPI PUSH1 0x0 DUP11 PUSH1 0x1 PUSH1 0x1 PUSH1 0xA0 SHL SUB AND PUSH4 0x1698EE82 DUP6 DUP6 DUP11 DUP7 PUSH1 0x3 DUP2 LT PUSH2 0xE66 JUMPI INVALID JUMPDEST PUSH1 0x20 MUL ADD MLOAD PUSH1 0x40 MLOAD DUP5 PUSH4 0xFFFFFFFF AND PUSH1 0xE0 SHL DUP2 MSTORE PUSH1 0x4 ADD PUSH2 0xE89 SWAP4 SWAP3 SWAP2 SWAP1 PUSH2 0x26C8 JUMP JUMPDEST PUSH1 0x20 PUSH1 0x40 MLOAD DUP1 DUP4 SUB DUP2 DUP7 DUP1 EXTCODESIZE ISZERO DUP1 ISZERO PUSH2 0xEA1 JUMPI PUSH1 0x0 DUP1 REVERT JUMPDEST POP GAS STATICCALL ISZERO DUP1 ISZERO PUSH2 0xEB5 JUMPI RETURNDATASIZE PUSH1 0x0 DUP1 RETURNDATACOPY RETURNDATASIZE PUSH1 0x0 REVERT JUMPDEST POP POP POP POP PUSH1 0x40 MLOAD RETURNDATASIZE PUSH1 0x1F NOT PUSH1 0x1F DUP3 ADD AND DUP3 ADD DUP1 PUSH1 0x40 MSTORE POP DUP2 ADD SWAP1 PUSH2 0xED9 SWAP2 SWAP1 PUSH2 0x2257 JUMP JUMPDEST SWAP1 POP PUSH2 0xEE4 DUP2 PUSH2 0x1AFC JUMP JUMPDEST ISZERO PUSH2 0xF1D JUMPI DUP1 DUP7 DUP7 DUP1 PUSH1 0x1 ADD SWAP8 POP DUP2 MLOAD DUP2 LT PUSH2 0xEFC JUMPI INVALID JUMPDEST PUSH1 0x20 MUL PUSH1 0x20 ADD ADD SWAP1 PUSH1 0x1 PUSH1 0x1 PUSH1 0xA0 SHL SUB AND SWAP1 DUP2 PUSH1 0x1 PUSH1 0x1 PUSH1 0xA0 SHL SUB AND DUP2 MSTORE POP POP JUMPDEST POP PUSH1 0x1 ADD PUSH2 0xE3E JUMP JUMPDEST POP POP POP DUP1 PUSH2 0xF36 JUMPI POP POP POP PUSH2 0x1224 JUMP JUMPDEST DUP6 MLOAD DUP6 PUSH1 0x2 ADD EQ ISZERO PUSH2 0x102C JUMPI DUP1 PUSH1 0x1 PUSH1 0x1 PUSH1 0x40 SHL SUB DUP2 GT DUP1 ISZERO PUSH2 0xF58 JUMPI PUSH1 0x0 DUP1 REVERT JUMPDEST POP PUSH1 0x40 MLOAD SWAP1 DUP1 DUP3 MSTORE DUP1 PUSH1 0x20 MUL PUSH1 0x20 ADD DUP3 ADD PUSH1 0x40 MSTORE DUP1 ISZERO PUSH2 0xF8C JUMPI DUP2 PUSH1 0x20 ADD JUMPDEST PUSH1 0x60 DUP2 MSTORE PUSH1 0x20 ADD SWAP1 PUSH1 0x1 SWAP1 SUB SWAP1 DUP2 PUSH2 0xF77 JUMPI SWAP1 POP JUMPDEST POP SWAP4 POP PUSH1 0x0 JUMPDEST DUP2 DUP2 LT ISZERO PUSH2 0x1023 JUMPI PUSH1 0x40 DUP1 MLOAD PUSH1 0x1 DUP1 DUP3 MSTORE DUP2 DUP4 ADD SWAP1 SWAP3 MSTORE SWAP1 PUSH1 0x20 DUP1 DUP4 ADD SWAP1 DUP1 CALLDATASIZE DUP4 CALLDATACOPY ADD SWAP1 POP POP DUP6 DUP3 DUP2 MLOAD DUP2 LT PUSH2 0xFC4 JUMPI INVALID JUMPDEST PUSH1 0x20 MUL PUSH1 0x20 ADD ADD DUP2 SWAP1 MSTORE POP DUP3 DUP2 DUP2 MLOAD DUP2 LT PUSH2 0xFDB JUMPI INVALID JUMPDEST PUSH1 0x20 MUL PUSH1 0x20 ADD ADD MLOAD DUP6 DUP3 DUP2 MLOAD DUP2 LT PUSH2 0xFEF JUMPI INVALID JUMPDEST PUSH1 0x20 MUL PUSH1 0x20 ADD ADD MLOAD PUSH1 0x0 DUP2 MLOAD DUP2 LT PUSH2 0x1003 JUMPI INVALID JUMPDEST PUSH1 0x1 PUSH1 0x1 PUSH1 0xA0 SHL SUB SWAP1 SWAP3 AND PUSH1 0x20 SWAP3 DUP4 MUL SWAP2 SWAP1 SWAP2 ADD SWAP1 SWAP2 ADD MSTORE PUSH1 0x1 ADD PUSH2 0xF92 JUMP JUMPDEST POP POP POP POP PUSH2 0x1224 JUMP JUMPDEST PUSH1 0x60 PUSH2 0x103C DUP9 DUP9 DUP9 PUSH1 0x1 ADD PUSH2 0xD94 JUMP JUMPDEST SWAP1 POP DUP1 MLOAD PUSH1 0x0 EQ ISZERO PUSH2 0x1051 JUMPI POP POP POP POP PUSH2 0x1224 JUMP JUMPDEST DUP1 MLOAD DUP3 MUL PUSH1 0x1 PUSH1 0x1 PUSH1 0x40 SHL SUB DUP2 GT DUP1 ISZERO PUSH2 0x106A JUMPI PUSH1 0x0 DUP1 REVERT JUMPDEST POP PUSH1 0x40 MLOAD SWAP1 DUP1 DUP3 MSTORE DUP1 PUSH1 0x20 MUL PUSH1 0x20 ADD DUP3 ADD PUSH1 0x40 MSTORE DUP1 ISZERO PUSH2 0x109E JUMPI DUP2 PUSH1 0x20 ADD JUMPDEST PUSH1 0x60 DUP2 MSTORE PUSH1 0x20 ADD SWAP1 PUSH1 0x1 SWAP1 SUB SWAP1 DUP2 PUSH2 0x1089 JUMPI SWAP1 POP JUMPDEST POP SWAP5 POP PUSH1 0x0 JUMPDEST DUP3 DUP2 LT ISZERO PUSH2 0x121E JUMPI PUSH1 0x0 JUMPDEST DUP3 MLOAD DUP2 LT ISZERO PUSH2 0x1215 JUMPI DUP3 MLOAD DUP3 DUP2 MUL DUP3 ADD SWAP1 DUP5 SWAP1 DUP4 SWAP1 DUP2 LT PUSH2 0x10CC JUMPI INVALID JUMPDEST PUSH1 0x20 MUL PUSH1 0x20 ADD ADD MLOAD MLOAD PUSH1 0x1 ADD PUSH1 0x1 PUSH1 0x1 PUSH1 0x40 SHL SUB DUP2 GT DUP1 ISZERO PUSH2 0x10ED JUMPI PUSH1 0x0 DUP1 REVERT JUMPDEST POP PUSH1 0x40 MLOAD SWAP1 DUP1 DUP3 MSTORE DUP1 PUSH1 0x20 MUL PUSH1 0x20 ADD DUP3 ADD PUSH1 0x40 MSTORE DUP1 ISZERO PUSH2 0x1117 JUMPI DUP2 PUSH1 0x20 ADD PUSH1 0x20 DUP3 MUL DUP1 CALLDATASIZE DUP4 CALLDATACOPY ADD SWAP1 POP JUMPDEST POP DUP9 DUP3 DUP2 MLOAD DUP2 LT PUSH2 0x1124 JUMPI INVALID JUMPDEST PUSH1 0x20 MUL PUSH1 0x20 ADD ADD DUP2 SWAP1 MSTORE POP DUP6 DUP4 DUP2 MLOAD DUP2 LT PUSH2 0x113B JUMPI INVALID JUMPDEST PUSH1 0x20 MUL PUSH1 0x20 ADD ADD MLOAD DUP9 DUP3 DUP2 MLOAD DUP2 LT PUSH2 0x114F JUMPI INVALID JUMPDEST PUSH1 0x20 MUL PUSH1 0x20 ADD ADD MLOAD PUSH1 0x0 DUP2 MLOAD DUP2 LT PUSH2 0x1163 JUMPI INVALID JUMPDEST PUSH1 0x20 MUL PUSH1 0x20 ADD ADD SWAP1 PUSH1 0x1 PUSH1 0x1 PUSH1 0xA0 SHL SUB AND SWAP1 DUP2 PUSH1 0x1 PUSH1 0x1 PUSH1 0xA0 SHL SUB AND DUP2 MSTORE POP POP PUSH1 0x0 JUMPDEST DUP5 DUP4 DUP2 MLOAD DUP2 LT PUSH2 0x1192 JUMPI INVALID JUMPDEST PUSH1 0x20 MUL PUSH1 0x20 ADD ADD MLOAD MLOAD DUP2 LT ISZERO PUSH2 0x120B JUMPI DUP5 DUP4 DUP2 MLOAD DUP2 LT PUSH2 0x11AE JUMPI INVALID JUMPDEST PUSH1 0x20 MUL PUSH1 0x20 ADD ADD MLOAD DUP2 DUP2 MLOAD DUP2 LT PUSH2 0x11C1 JUMPI INVALID JUMPDEST PUSH1 0x20 MUL PUSH1 0x20 ADD ADD MLOAD DUP10 DUP4 DUP2 MLOAD DUP2 LT PUSH2 0x11D5 JUMPI INVALID JUMPDEST PUSH1 0x20 MUL PUSH1 0x20 ADD ADD MLOAD DUP3 PUSH1 0x1 ADD DUP2 MLOAD DUP2 LT PUSH2 0x11EB JUMPI INVALID JUMPDEST PUSH1 0x1 PUSH1 0x1 PUSH1 0xA0 SHL SUB SWAP1 SWAP3 AND PUSH1 0x20 SWAP3 DUP4 MUL SWAP2 SWAP1 SWAP2 ADD SWAP1 SWAP2 ADD MSTORE PUSH1 0x1 ADD PUSH2 0x1186 JUMP JUMPDEST POP POP PUSH1 0x1 ADD PUSH2 0x10AF JUMP JUMPDEST POP PUSH1 0x1 ADD PUSH2 0x10A4 JUMP JUMPDEST POP POP POP POP POP JUMPDEST SWAP4 SWAP3 POP POP POP JUMP JUMPDEST PUSH1 0x60 PUSH1 0x2 DUP4 MLOAD LT ISZERO DUP1 ISZERO PUSH2 0x1243 JUMPI POP DUP2 MLOAD PUSH1 0x1 ADD DUP4 MLOAD EQ JUMPDEST PUSH2 0x125F JUMPI PUSH1 0x40 MLOAD PUSH3 0x461BCD PUSH1 0xE5 SHL DUP2 MSTORE PUSH1 0x4 ADD PUSH2 0x3FF SWAP1 PUSH2 0x2756 JUMP JUMPDEST DUP2 MLOAD PUSH1 0x3 MUL DUP4 MLOAD PUSH1 0x14 MUL ADD PUSH1 0x1 PUSH1 0x1 PUSH1 0x40 SHL SUB DUP2 GT DUP1 ISZERO PUSH2 0x127F JUMPI PUSH1 0x0 DUP1 REVERT JUMPDEST POP PUSH1 0x40 MLOAD SWAP1 DUP1 DUP3 MSTORE DUP1 PUSH1 0x1F ADD PUSH1 0x1F NOT AND PUSH1 0x20 ADD DUP3 ADD PUSH1 0x40 MSTORE DUP1 ISZERO PUSH2 0x12AA JUMPI PUSH1 0x20 DUP3 ADD DUP2 DUP1 CALLDATASIZE DUP4 CALLDATACOPY ADD SWAP1 POP JUMPDEST POP SWAP1 POP PUSH1 0x20 DUP2 ADD PUSH1 0x0 JUMPDEST DUP5 MLOAD DUP2 LT ISZERO PUSH2 0x1386 JUMPI DUP1 ISZERO PUSH2 0x1359 JUMPI PUSH1 0x0 DUP5 PUSH1 0x1 DUP4 SUB DUP2 MLOAD DUP2 LT PUSH2 0x12D4 JUMPI INVALID JUMPDEST PUSH1 0x20 MUL PUSH1 0x20 ADD ADD MLOAD PUSH1 0x1 PUSH1 0x1 PUSH1 0xA0 SHL SUB AND PUSH4 0xDDCA3F43 PUSH1 0x40 MLOAD DUP2 PUSH4 0xFFFFFFFF AND PUSH1 0xE0 SHL DUP2 MSTORE PUSH1 0x4 ADD PUSH1 0x20 PUSH1 0x40 MLOAD DUP1 DUP4 SUB DUP2 DUP7 DUP1 EXTCODESIZE ISZERO DUP1 ISZERO PUSH2 0x1314 JUMPI PUSH1 0x0 DUP1 REVERT JUMPDEST POP GAS STATICCALL ISZERO DUP1 ISZERO PUSH2 0x1328 JUMPI RETURNDATASIZE PUSH1 0x0 DUP1 RETURNDATACOPY RETURNDATASIZE PUSH1 0x0 REVERT JUMPDEST POP POP POP POP PUSH1 0x40 MLOAD RETURNDATASIZE PUSH1 0x1F NOT PUSH1 0x1F DUP3 ADD AND DUP3 ADD DUP1 PUSH1 0x40 MSTORE POP DUP2 ADD SWAP1 PUSH2 0x134C SWAP2 SWAP1 PUSH2 0x23E1 JUMP JUMPDEST PUSH1 0xE8 SHL DUP4 MSTORE POP PUSH1 0x3 SWAP1 SWAP2 ADD SWAP1 JUMPDEST PUSH1 0x0 DUP6 DUP3 DUP2 MLOAD DUP2 LT PUSH2 0x1367 JUMPI INVALID JUMPDEST PUSH1 0x20 SWAP1 DUP2 MUL SWAP2 SWAP1 SWAP2 ADD ADD MLOAD PUSH1 0x60 SHL DUP4 MSTORE POP PUSH1 0x14 SWAP1 SWAP2 ADD SWAP1 PUSH1 0x1 ADD PUSH2 0x12B4 JUMP JUMPDEST POP POP SWAP3 SWAP2 POP POP JUMP JUMPDEST PUSH1 0x60 DUP3 DUP2 ADD MLOAD DUP4 MLOAD PUSH1 0x20 DUP6 ADD MLOAD PUSH1 0x40 DUP1 DUP8 ADD MLOAD SWAP1 MLOAD PUSH4 0xFA7F81F PUSH1 0xE1 SHL DUP2 MSTORE DUP6 SWAP5 ADDRESS SWAP5 PUSH4 0x1F4FF03E SWAP5 PUSH2 0x13DA SWAP5 PUSH1 0xA0 SWAP4 SWAP1 SWAP4 SHL PUSH1 0x1 PUSH1 0x1 PUSH1 0xE0 SHL SUB NOT AND SWAP4 SWAP2 SWAP3 SWAP1 SWAP2 DUP11 SWAP1 PUSH1 0x4 ADD PUSH2 0x2620 JUMP JUMPDEST PUSH1 0x0 PUSH1 0x40 MLOAD DUP1 DUP4 SUB DUP2 PUSH1 0x0 DUP8 DUP1 EXTCODESIZE ISZERO DUP1 ISZERO PUSH2 0x13F4 JUMPI PUSH1 0x0 DUP1 REVERT JUMPDEST POP GAS CALL SWAP3 POP POP POP DUP1 ISZERO PUSH2 0x1405 JUMPI POP PUSH1 0x1 JUMPDEST PUSH2 0x3E7 JUMPI RETURNDATASIZE DUP1 DUP1 ISZERO PUSH2 0x1433 JUMPI PUSH1 0x40 MLOAD SWAP2 POP PUSH1 0x1F NOT PUSH1 0x3F RETURNDATASIZE ADD AND DUP3 ADD PUSH1 0x40 MSTORE RETURNDATASIZE DUP3 MSTORE RETURNDATASIZE PUSH1 0x0 PUSH1 0x20 DUP5 ADD RETURNDATACOPY PUSH2 0x1438 JUMP JUMPDEST PUSH1 0x60 SWAP2 POP JUMPDEST POP DUP1 DUP1 PUSH1 0x20 ADD SWAP1 MLOAD DUP2 ADD SWAP1 PUSH2 0x144D SWAP2 SWAP1 PUSH2 0x20E5 JUMP JUMPDEST SWAP4 POP SWAP2 POP PUSH2 0x1458 SWAP1 POP JUMP JUMPDEST SWAP3 POP SWAP3 SWAP1 POP JUMP JUMPDEST DUP1 MLOAD PUSH1 0x20 DUP3 ADD REVERT JUMPDEST PUSH1 0x40 MLOAD DUP3 DUP2 MSTORE DUP2 PUSH1 0x20 DUP3 ADD MSTORE PUSH1 0x40 DUP2 REVERT JUMPDEST PUSH1 0x60 DUP2 MLOAD PUSH1 0x1 PUSH1 0x1 PUSH1 0x40 SHL SUB DUP2 GT DUP1 ISZERO PUSH2 0x1491 JUMPI PUSH1 0x0 DUP1 REVERT JUMPDEST POP PUSH1 0x40 MLOAD SWAP1 DUP1 DUP3 MSTORE DUP1 PUSH1 0x20 MUL PUSH1 0x20 ADD DUP3 ADD PUSH1 0x40 MSTORE DUP1 ISZERO PUSH2 0x14BB JUMPI DUP2 PUSH1 0x20 ADD PUSH1 0x20 DUP3 MUL DUP1 CALLDATASIZE DUP4 CALLDATACOPY ADD SWAP1 POP JUMPDEST POP SWAP1 POP PUSH1 0x0 JUMPDEST DUP3 MLOAD DUP2 LT ISZERO PUSH2 0x1510 JUMPI DUP3 PUSH1 0x1 DUP3 DUP6 MLOAD SUB SUB DUP2 MLOAD DUP2 LT PUSH2 0x14DC JUMPI INVALID JUMPDEST PUSH1 0x20 MUL PUSH1 0x20 ADD ADD MLOAD DUP3 DUP3 DUP2 MLOAD DUP2 LT PUSH2 0x14F0 JUMPI INVALID JUMPDEST PUSH1 0x1 PUSH1 0x1 PUSH1 0xA0 SHL SUB SWAP1 SWAP3 AND PUSH1 0x20 SWAP3 DUP4 MUL SWAP2 SWAP1 SWAP2 ADD SWAP1 SWAP2 ADD MSTORE PUSH1 0x1 ADD PUSH2 0x14C1 JUMP JUMPDEST POP SWAP2 SWAP1 POP JUMP JUMPDEST PUSH1 0x60 DUP2 MLOAD PUSH1 0x1 PUSH1 0x1 PUSH1 0x40 SHL SUB DUP2 GT DUP1 ISZERO PUSH2 0x152F JUMPI PUSH1 0x0 DUP1 REVERT JUMPDEST POP PUSH1 0x40 MLOAD SWAP1 DUP1 DUP3 MSTORE DUP1 PUSH1 0x20 MUL PUSH1 0x20 ADD DUP3 ADD PUSH1 0x40 MSTORE DUP1 ISZERO PUSH2 0x1559 JUMPI DUP2 PUSH1 0x20 ADD PUSH1 0x20 DUP3 MUL DUP1 CALLDATASIZE DUP4 CALLDATACOPY ADD SWAP1 POP JUMPDEST POP SWAP1 POP PUSH1 0x0 JUMPDEST DUP3 MLOAD DUP2 LT ISZERO PUSH2 0x1510 JUMPI DUP3 PUSH1 0x1 DUP3 DUP6 MLOAD SUB SUB DUP2 MLOAD DUP2 LT PUSH2 0x157A JUMPI INVALID JUMPDEST PUSH1 0x20 MUL PUSH1 0x20 ADD ADD MLOAD DUP3 DUP3 DUP2 MLOAD DUP2 LT PUSH2 0x158E JUMPI INVALID JUMPDEST PUSH1 0x1 PUSH1 0x1 PUSH1 0xA0 SHL SUB SWAP1 SWAP3 AND PUSH1 0x20 SWAP3 DUP4 MUL SWAP2 SWAP1 SWAP2 ADD SWAP1 SWAP2 ADD MSTORE PUSH1 0x1 ADD PUSH2 0x155F JUMP JUMPDEST PUSH1 0x60 DUP1 DUP3 MLOAD PUSH1 0x0 EQ ISZERO PUSH2 0x15C0 JUMPI PUSH2 0x1458 JUMP JUMPDEST DUP3 MLOAD PUSH1 0x1 PUSH1 0x1 PUSH1 0x40 SHL SUB DUP2 GT DUP1 ISZERO PUSH2 0x15D7 JUMPI PUSH1 0x0 DUP1 REVERT JUMPDEST POP PUSH1 0x40 MLOAD SWAP1 DUP1 DUP3 MSTORE DUP1 PUSH1 0x20 MUL PUSH1 0x20 ADD DUP3 ADD PUSH1 0x40 MSTORE DUP1 ISZERO PUSH2 0x1601 JUMPI DUP2 PUSH1 0x20 ADD PUSH1 0x20 DUP3 MUL DUP1 CALLDATASIZE DUP4 CALLDATACOPY ADD SWAP1 POP JUMPDEST POP SWAP1 POP DUP3 MLOAD PUSH1 0x1 PUSH1 0x1 PUSH1 0x40 SHL SUB DUP2 GT DUP1 ISZERO PUSH2 0x161B JUMPI PUSH1 0x0 DUP1 REVERT JUMPDEST POP PUSH1 0x40 MLOAD SWAP1 DUP1 DUP3 MSTORE DUP1 PUSH1 0x20 MUL PUSH1 0x20 ADD DUP3 ADD PUSH1 0x40 MSTORE DUP1 ISZERO PUSH2 0x1645 JUMPI DUP2 PUSH1 0x20 ADD PUSH1 0x20 DUP3 MUL DUP1 CALLDATASIZE DUP4 CALLDATACOPY ADD SWAP1 POP JUMPDEST POP PUSH1 0x40 DUP1 MLOAD PUSH1 0x1 DUP1 DUP3 MSTORE DUP2 DUP4 ADD SWAP1 SWAP3 MSTORE SWAP2 SWAP4 POP PUSH1 0x60 SWAP2 SWAP1 PUSH1 0x20 DUP1 DUP4 ADD SWAP1 DUP1 CALLDATASIZE DUP4 CALLDATACOPY ADD SWAP1 POP POP SWAP1 POP DUP4 PUSH1 0x0 DUP2 MLOAD DUP2 LT PUSH2 0x1679 JUMPI INVALID JUMPDEST PUSH1 0x20 MUL PUSH1 0x20 ADD ADD MLOAD DUP2 PUSH1 0x0 DUP2 MLOAD DUP2 LT PUSH2 0x168E JUMPI INVALID JUMPDEST PUSH1 0x20 MUL PUSH1 0x20 ADD ADD DUP2 DUP2 MSTORE POP POP PUSH2 0x16A2 PUSH2 0x1F3C JUMP JUMPDEST POP PUSH1 0x40 DUP1 MLOAD PUSH1 0x80 DUP1 DUP3 ADD DUP4 MSTORE DUP8 MLOAD PUSH1 0x1 PUSH1 0x1 PUSH1 0xA0 SHL SUB SWAP1 DUP2 AND DUP4 MSTORE PUSH1 0x20 DUP1 DUP11 ADD MLOAD SWAP1 SWAP2 AND SWAP1 DUP4 ADD MSTORE DUP8 DUP4 ADD MLOAD DUP3 DUP5 ADD MSTORE DUP8 ADD MLOAD PUSH5 0x100000000 PUSH1 0x1 PUSH1 0xC0 SHL SUB SWAP1 DUP4 SHR SWAP1 DUP2 AND PUSH4 0xFFFFFFFF SWAP1 SWAP2 AND OR SWAP1 SWAP2 SHL PUSH1 0x60 DUP3 ADD MSTORE PUSH2 0x1700 PUSH2 0x1F3C JUMP JUMPDEST PUSH1 0x40 MLOAD DUP1 PUSH1 0x80 ADD PUSH1 0x40 MSTORE DUP1 DUP9 PUSH1 0x20 ADD MLOAD PUSH1 0x1 PUSH1 0x1 PUSH1 0xA0 SHL SUB AND DUP2 MSTORE PUSH1 0x20 ADD DUP9 PUSH1 0x0 ADD MLOAD PUSH1 0x1 PUSH1 0x1 PUSH1 0xA0 SHL SUB AND DUP2 MSTORE PUSH1 0x20 ADD DUP9 PUSH1 0x60 ADD MLOAD DUP2 MSTORE PUSH1 0x20 ADD DUP9 PUSH1 0x80 ADD MLOAD DUP1 PUSH1 0x60 SHR SWAP1 PUSH1 0x40 SHR PUSH4 0xFFFFFFFF AND PUSH4 0xFFFFFFFF AND SWAP1 PUSH1 0x20 SHL OR PUSH1 0x40 SHL DUP2 MSTORE POP SWAP1 POP PUSH2 0x176B DUP2 DUP5 PUSH2 0x138E JUMP JUMPDEST DUP1 MLOAD SWAP1 SWAP5 POP ISZERO SWAP1 POP DUP1 PUSH2 0x1792 JUMPI POP DUP3 PUSH1 0x0 DUP2 MLOAD DUP2 LT PUSH2 0x1786 JUMPI INVALID JUMPDEST PUSH1 0x20 MUL PUSH1 0x20 ADD ADD MLOAD PUSH1 0x0 EQ JUMPDEST ISZERO PUSH2 0x179F JUMPI POP POP POP PUSH2 0x1458 JUMP JUMPDEST PUSH1 0x60 PUSH2 0x17AB DUP4 DUP6 PUSH2 0x138E JUMP JUMPDEST DUP1 MLOAD SWAP1 SWAP3 POP ISZERO SWAP1 POP DUP1 PUSH2 0x17D2 JUMPI POP DUP1 PUSH1 0x0 DUP2 MLOAD DUP2 LT PUSH2 0x17C6 JUMPI INVALID JUMPDEST PUSH1 0x20 MUL PUSH1 0x20 ADD ADD MLOAD PUSH1 0x0 EQ JUMPDEST ISZERO PUSH2 0x17E0 JUMPI POP POP POP POP PUSH2 0x1458 JUMP JUMPDEST PUSH1 0x0 JUMPDEST DUP8 MLOAD DUP2 LT ISZERO PUSH2 0x1A58 JUMPI PUSH1 0x60 PUSH1 0x0 JUMPDEST PUSH1 0x3 DUP2 LT ISZERO PUSH2 0x19B8 JUMPI PUSH2 0x1840 DUP11 DUP5 DUP2 MLOAD DUP2 LT PUSH2 0x1809 JUMPI INVALID JUMPDEST PUSH1 0x20 MUL PUSH1 0x20 ADD ADD MLOAD DUP6 PUSH1 0x0 DUP2 MLOAD DUP2 LT PUSH2 0x181E JUMPI INVALID JUMPDEST PUSH1 0x20 MUL PUSH1 0x20 ADD ADD MLOAD DUP10 PUSH1 0x0 DUP2 MLOAD DUP2 LT PUSH2 0x1833 JUMPI INVALID JUMPDEST PUSH1 0x20 MUL PUSH1 0x20 ADD ADD MLOAD PUSH2 0x1D09 JUMP JUMPDEST DUP8 PUSH1 0x0 DUP2 MLOAD DUP2 LT PUSH2 0x184D JUMPI INVALID JUMPDEST PUSH1 0x20 SWAP1 DUP2 MUL SWAP2 SWAP1 SWAP2 ADD ADD MSTORE DUP7 MLOAD ISZERO DUP1 PUSH2 0x187A JUMPI POP DUP7 PUSH1 0x0 DUP2 MLOAD DUP2 LT PUSH2 0x186E JUMPI INVALID JUMPDEST PUSH1 0x20 MUL PUSH1 0x20 ADD ADD MLOAD PUSH1 0x0 EQ JUMPDEST ISZERO PUSH2 0x1884 JUMPI PUSH2 0x19B8 JUMP JUMPDEST PUSH2 0x189D PUSH1 0x5 PUSH2 0x2710 ADD PUSH2 0x2710 DUP10 PUSH1 0x0 DUP2 MLOAD DUP2 LT PUSH2 0x1833 JUMPI INVALID JUMPDEST DUP8 PUSH1 0x0 DUP2 MLOAD DUP2 LT PUSH2 0x18AA JUMPI INVALID JUMPDEST PUSH1 0x20 SWAP1 DUP2 MUL SWAP2 SWAP1 SWAP2 ADD ADD MSTORE DUP7 MLOAD ISZERO DUP1 PUSH2 0x18D7 JUMPI POP DUP7 PUSH1 0x0 DUP2 MLOAD DUP2 LT PUSH2 0x18CB JUMPI INVALID JUMPDEST PUSH1 0x20 MUL PUSH1 0x20 ADD ADD MLOAD PUSH1 0x0 EQ JUMPDEST ISZERO PUSH2 0x18E1 JUMPI PUSH2 0x19B8 JUMP JUMPDEST PUSH1 0x60 PUSH2 0x18ED DUP8 DUP10 PUSH2 0x138E JUMP JUMPDEST DUP1 MLOAD SWAP2 SWAP5 POP SWAP2 POP ISZERO DUP1 PUSH2 0x1914 JUMPI POP DUP1 PUSH1 0x0 DUP2 MLOAD DUP2 LT PUSH2 0x1908 JUMPI INVALID JUMPDEST PUSH1 0x20 MUL PUSH1 0x20 ADD ADD MLOAD PUSH1 0x0 EQ JUMPDEST ISZERO PUSH2 0x191F JUMPI POP PUSH2 0x19B8 JUMP JUMPDEST DUP1 SWAP5 POP DUP11 DUP5 DUP2 MLOAD DUP2 LT PUSH2 0x192E JUMPI INVALID JUMPDEST PUSH1 0x20 MUL PUSH1 0x20 ADD ADD MLOAD DUP6 PUSH1 0x0 DUP2 MLOAD DUP2 LT PUSH2 0x1943 JUMPI INVALID JUMPDEST PUSH1 0x20 MUL PUSH1 0x20 ADD ADD MLOAD LT PUSH2 0x19AF JUMPI PUSH1 0x0 DUP12 DUP6 DUP2 MLOAD DUP2 LT PUSH2 0x195E JUMPI INVALID JUMPDEST PUSH1 0x20 MUL PUSH1 0x20 ADD ADD MLOAD PUSH2 0x2710 DUP14 DUP8 DUP2 MLOAD DUP2 LT PUSH2 0x1975 JUMPI INVALID JUMPDEST PUSH1 0x20 MUL PUSH1 0x20 ADD ADD MLOAD DUP9 PUSH1 0x0 DUP2 MLOAD DUP2 LT PUSH2 0x198A JUMPI INVALID JUMPDEST PUSH1 0x20 MUL PUSH1 0x20 ADD ADD MLOAD SUB MUL DUP2 PUSH2 0x199B JUMPI INVALID JUMPDEST DIV SWAP1 POP PUSH1 0x5 DUP2 GT PUSH2 0x19AD JUMPI POP POP PUSH2 0x19B8 JUMP JUMPDEST POP JUMPDEST POP PUSH1 0x1 ADD PUSH2 0x17F1 JUMP JUMPDEST POP PUSH1 0x0 DUP2 MLOAD GT DUP1 ISZERO PUSH2 0x19CB JUMPI POP PUSH1 0x0 DUP4 MLOAD GT JUMPDEST ISZERO PUSH2 0x1A4F JUMPI DUP1 PUSH1 0x0 DUP2 MLOAD DUP2 LT PUSH2 0x19DD JUMPI INVALID JUMPDEST PUSH1 0x20 MUL PUSH1 0x20 ADD ADD MLOAD DUP9 DUP4 DUP2 MLOAD DUP2 LT PUSH2 0x19F1 JUMPI INVALID JUMPDEST PUSH1 0x20 MUL PUSH1 0x20 ADD ADD DUP2 DUP2 MSTORE POP POP PUSH2 0x1A36 DUP10 DUP4 DUP2 MLOAD DUP2 LT PUSH2 0x1A0C JUMPI INVALID JUMPDEST PUSH1 0x20 MUL PUSH1 0x20 ADD ADD MLOAD DUP5 PUSH1 0x0 DUP2 MLOAD DUP2 LT PUSH2 0x1A21 JUMPI INVALID JUMPDEST PUSH1 0x20 MUL PUSH1 0x20 ADD ADD MLOAD DUP9 PUSH1 0x0 DUP2 MLOAD DUP2 LT PUSH2 0x1833 JUMPI INVALID JUMPDEST DUP8 DUP4 DUP2 MLOAD DUP2 LT PUSH2 0x1A42 JUMPI INVALID JUMPDEST PUSH1 0x20 MUL PUSH1 0x20 ADD ADD DUP2 DUP2 MSTORE POP POP JUMPDEST POP PUSH1 0x1 ADD PUSH2 0x17E3 JUMP JUMPDEST POP POP POP POP POP SWAP3 POP SWAP3 SWAP1 POP JUMP JUMPDEST PUSH1 0x40 MLOAD PUSH4 0x6EB1769F PUSH1 0xE1 SHL DUP2 MSTORE DUP2 SWAP1 PUSH1 0x1 PUSH1 0x1 PUSH1 0xA0 SHL SUB DUP6 AND SWAP1 PUSH4 0xDD62ED3E SWAP1 PUSH2 0x1A94 SWAP1 ADDRESS SWAP1 DUP8 SWAP1 PUSH1 0x4 ADD PUSH2 0x24EE JUMP JUMPDEST PUSH1 0x20 PUSH1 0x40 MLOAD DUP1 DUP4 SUB DUP2 DUP7 DUP1 EXTCODESIZE ISZERO DUP1 ISZERO PUSH2 0x1AAC JUMPI PUSH1 0x0 DUP1 REVERT JUMPDEST POP GAS STATICCALL ISZERO DUP1 ISZERO PUSH2 0x1AC0 JUMPI RETURNDATASIZE PUSH1 0x0 DUP1 RETURNDATACOPY RETURNDATASIZE PUSH1 0x0 REVERT JUMPDEST POP POP POP POP PUSH1 0x40 MLOAD RETURNDATASIZE PUSH1 0x1F NOT PUSH1 0x1F DUP3 ADD AND DUP3 ADD DUP1 PUSH1 0x40 MSTORE POP DUP2 ADD SWAP1 PUSH2 0x1AE4 SWAP2 SWAP1 PUSH2 0x2404 JUMP JUMPDEST LT ISZERO PUSH2 0x1AF7 JUMPI PUSH2 0x1AF7 DUP4 DUP4 PUSH1 0x0 NOT PUSH2 0x1D61 JUMP JUMPDEST POP POP POP JUMP JUMPDEST PUSH1 0x0 DUP2 EXTCODESIZE DUP1 PUSH2 0x1B0F JUMPI PUSH1 0x0 SWAP2 POP POP PUSH2 0x1D04 JUMP JUMPDEST POP DUP2 PUSH1 0x1 PUSH1 0x1 PUSH1 0xA0 SHL SUB AND PUSH4 0xDFE1681 PUSH1 0x40 MLOAD DUP2 PUSH4 0xFFFFFFFF AND PUSH1 0xE0 SHL DUP2 MSTORE PUSH1 0x4 ADD PUSH1 0x20 PUSH1 0x40 MLOAD DUP1 DUP4 SUB DUP2 DUP7 DUP1 EXTCODESIZE ISZERO DUP1 ISZERO PUSH2 0x1B49 JUMPI PUSH1 0x0 DUP1 REVERT JUMPDEST POP GAS STATICCALL ISZERO DUP1 ISZERO PUSH2 0x1B5D JUMPI RETURNDATASIZE PUSH1 0x0 DUP1 RETURNDATACOPY RETURNDATASIZE PUSH1 0x0 REVERT JUMPDEST POP POP POP POP PUSH1 0x40 MLOAD RETURNDATASIZE PUSH1 0x1F NOT PUSH1 0x1F DUP3 ADD AND DUP3 ADD DUP1 PUSH1 0x40 MSTORE POP DUP2 ADD SWAP1 PUSH2 0x1B81 SWAP2 SWAP1 PUSH2 0x2257 JUMP JUMPDEST PUSH1 0x1 PUSH1 0x1 PUSH1 0xA0 SHL SUB AND PUSH4 0x70A08231 DUP4 PUSH1 0x40 MLOAD DUP3 PUSH4 0xFFFFFFFF AND PUSH1 0xE0 SHL DUP2 MSTORE PUSH1 0x4 ADD PUSH2 0x1BAC SWAP2 SWAP1 PUSH2 0x24C1 JUMP JUMPDEST PUSH1 0x20 PUSH1 0x40 MLOAD DUP1 DUP4 SUB DUP2 DUP7 DUP1 EXTCODESIZE ISZERO DUP1 ISZERO PUSH2 0x1BC4 JUMPI PUSH1 0x0 DUP1 REVERT JUMPDEST POP GAS STATICCALL ISZERO DUP1 ISZERO PUSH2 0x1BD8 JUMPI RETURNDATASIZE PUSH1 0x0 DUP1 RETURNDATACOPY RETURNDATASIZE PUSH1 0x0 REVERT JUMPDEST POP POP POP POP PUSH1 0x40 MLOAD RETURNDATASIZE PUSH1 0x1F NOT PUSH1 0x1F DUP3 ADD AND DUP3 ADD DUP1 PUSH1 0x40 MSTORE POP DUP2 ADD SWAP1 PUSH2 0x1BFC SWAP2 SWAP1 PUSH2 0x2404 JUMP JUMPDEST PUSH2 0x1C08 JUMPI POP PUSH1 0x0 PUSH2 0x1D04 JUMP JUMPDEST DUP2 PUSH1 0x1 PUSH1 0x1 PUSH1 0xA0 SHL SUB AND PUSH4 0xD21220A7 PUSH1 0x40 MLOAD DUP2 PUSH4 0xFFFFFFFF AND PUSH1 0xE0 SHL DUP2 MSTORE PUSH1 0x4 ADD PUSH1 0x20 PUSH1 0x40 MLOAD DUP1 DUP4 SUB DUP2 DUP7 DUP1 EXTCODESIZE ISZERO DUP1 ISZERO PUSH2 0x1C41 JUMPI PUSH1 0x0 DUP1 REVERT JUMPDEST POP GAS STATICCALL ISZERO DUP1 ISZERO PUSH2 0x1C55 JUMPI RETURNDATASIZE PUSH1 0x0 DUP1 RETURNDATACOPY RETURNDATASIZE PUSH1 0x0 REVERT JUMPDEST POP POP POP POP PUSH1 0x40 MLOAD RETURNDATASIZE PUSH1 0x1F NOT PUSH1 0x1F DUP3 ADD AND DUP3 ADD DUP1 PUSH1 0x40 MSTORE POP DUP2 ADD SWAP1 PUSH2 0x1C79 SWAP2 SWAP1 PUSH2 0x2257 JUMP JUMPDEST PUSH1 0x1 PUSH1 0x1 PUSH1 0xA0 SHL SUB AND PUSH4 0x70A08231 DUP4 PUSH1 0x40 MLOAD DUP3 PUSH4 0xFFFFFFFF AND PUSH1 0xE0 SHL DUP2 MSTORE PUSH1 0x4 ADD PUSH2 0x1CA4 SWAP2 SWAP1 PUSH2 0x24C1 JUMP JUMPDEST PUSH1 0x20 PUSH1 0x40 MLOAD DUP1 DUP4 SUB DUP2 DUP7 DUP1 EXTCODESIZE ISZERO DUP1 ISZERO PUSH2 0x1CBC JUMPI PUSH1 0x0 DUP1 REVERT JUMPDEST POP GAS STATICCALL ISZERO DUP1 ISZERO PUSH2 0x1CD0 JUMPI RETURNDATASIZE PUSH1 0x0 DUP1 RETURNDATACOPY RETURNDATASIZE PUSH1 0x0 REVERT JUMPDEST POP POP POP POP PUSH1 0x40 MLOAD RETURNDATASIZE PUSH1 0x1F NOT PUSH1 0x1F DUP3 ADD AND DUP3 ADD DUP1 PUSH1 0x40 MSTORE POP DUP2 ADD SWAP1 PUSH2 0x1CF4 SWAP2 SWAP1 PUSH2 0x2404 JUMP JUMPDEST PUSH2 0x1D00 JUMPI POP PUSH1 0x0 PUSH2 0x1D04 JUMP JUMPDEST POP PUSH1 0x1 JUMPDEST SWAP2 SWAP1 POP JUMP JUMPDEST PUSH1 0x0 DUP4 ISZERO DUP1 PUSH2 0x1D16 JUMPI POP DUP2 ISZERO JUMPDEST DUP1 PUSH2 0x1D1F JUMPI POP DUP3 ISZERO JUMPDEST ISZERO PUSH2 0x1D2C JUMPI POP PUSH1 0x0 PUSH2 0x1224 JUMP JUMPDEST DUP4 DUP3 MUL DUP3 DUP6 DUP3 DUP2 PUSH2 0x1D39 JUMPI INVALID JUMPDEST DIV EQ PUSH2 0x1D49 JUMPI PUSH1 0x0 SWAP2 POP POP PUSH2 0x1224 JUMP JUMPDEST DUP4 PUSH1 0x1 DUP6 SUB DUP3 ADD DUP2 PUSH2 0x1D57 JUMPI INVALID JUMPDEST DIV SWAP6 SWAP5 POP POP POP POP POP JUMP JUMPDEST PUSH1 0x60 PUSH4 0x95EA7B3 PUSH1 0xE0 SHL DUP4 DUP4 PUSH1 0x40 MLOAD PUSH1 0x24 ADD PUSH2 0x1D7E SWAP3 SWAP2 SWAP1 PUSH2 0x24D5 JUMP JUMPDEST PUSH1 0x40 DUP1 MLOAD PUSH1 0x1F NOT DUP2 DUP5 SUB ADD DUP2 MSTORE SWAP2 SWAP1 MSTORE PUSH1 0x20 DUP2 ADD DUP1 MLOAD PUSH1 0x1 PUSH1 0x1 PUSH1 0xE0 SHL SUB AND PUSH1 0x1 PUSH1 0x1 PUSH1 0xE0 SHL SUB NOT SWAP1 SWAP4 AND SWAP3 SWAP1 SWAP3 OR SWAP1 SWAP2 MSTORE SWAP1 POP PUSH2 0x1DBC DUP5 DUP3 PUSH2 0x1DC2 JUMP JUMPDEST POP POP POP POP JUMP JUMPDEST PUSH1 0x0 PUSH1 0x60 DUP4 PUSH1 0x1 PUSH1 0x1 PUSH1 0xA0 SHL SUB AND DUP4 PUSH1 0x40 MLOAD PUSH2 0x1DDE SWAP2 SWAP1 PUSH2 0x24A5 JUMP JUMPDEST PUSH1 0x0 PUSH1 0x40 MLOAD DUP1 DUP4 SUB DUP2 PUSH1 0x0 DUP7 GAS CALL SWAP2 POP POP RETURNDATASIZE DUP1 PUSH1 0x0 DUP2 EQ PUSH2 0x1E1B JUMPI PUSH1 0x40 MLOAD SWAP2 POP PUSH1 0x1F NOT PUSH1 0x3F RETURNDATASIZE ADD AND DUP3 ADD PUSH1 0x40 MSTORE RETURNDATASIZE DUP3 MSTORE RETURNDATASIZE PUSH1 0x0 PUSH1 0x20 DUP5 ADD RETURNDATACOPY PUSH2 0x1E20 JUMP JUMPDEST PUSH1 0x60 SWAP2 POP JUMPDEST POP SWAP2 POP SWAP2 POP DUP2 DUP1 ISZERO PUSH2 0x1E36 JUMPI POP PUSH2 0x1E36 DUP2 PUSH2 0x1E4F JUMP JUMPDEST ISZERO PUSH2 0x1E42 JUMPI POP POP PUSH2 0x1E4B JUMP JUMPDEST PUSH2 0x1DBC DUP2 PUSH2 0x145F JUMP JUMPDEST POP POP JUMP JUMPDEST PUSH1 0x0 DUP2 MLOAD PUSH1 0x0 EQ ISZERO PUSH2 0x1E63 JUMPI POP PUSH1 0x1 PUSH2 0x1D04 JUMP JUMPDEST PUSH1 0x20 DUP3 MLOAD LT PUSH2 0x1D04 JUMPI PUSH1 0x0 PUSH2 0x1E79 DUP4 PUSH1 0x0 PUSH2 0x1E8E JUMP JUMPDEST SWAP1 POP DUP1 PUSH1 0x1 EQ ISZERO PUSH2 0x1510 JUMPI PUSH1 0x1 SWAP2 POP POP PUSH2 0x1D04 JUMP JUMPDEST PUSH1 0x0 PUSH2 0x1224 DUP4 DUP4 PUSH1 0x0 DUP2 PUSH1 0x20 ADD DUP4 MLOAD LT ISZERO PUSH2 0x1EBB JUMPI PUSH2 0x1EBB PUSH2 0x1EB6 PUSH1 0x5 DUP6 MLOAD DUP6 PUSH1 0x20 ADD PUSH2 0x1EC4 JUMP JUMPDEST PUSH2 0x145F JUMP JUMPDEST POP ADD PUSH1 0x20 ADD MLOAD SWAP1 JUMP JUMPDEST PUSH1 0x60 PUSH4 0x28006595 PUSH1 0xE0 SHL DUP5 DUP5 DUP5 PUSH1 0x40 MLOAD PUSH1 0x24 ADD PUSH2 0x1EE3 SWAP4 SWAP3 SWAP2 SWAP1 PUSH2 0x26F0 JUMP JUMPDEST PUSH1 0x40 DUP1 MLOAD PUSH1 0x1F NOT DUP2 DUP5 SUB ADD DUP2 MSTORE SWAP2 SWAP1 MSTORE PUSH1 0x20 DUP2 ADD DUP1 MLOAD PUSH1 0x1 PUSH1 0x1 PUSH1 0xE0 SHL SUB AND PUSH1 0x1 PUSH1 0x1 PUSH1 0xE0 SHL SUB NOT SWAP1 SWAP4 AND SWAP3 SWAP1 SWAP3 OR SWAP1 SWAP2 MSTORE SWAP1 POP SWAP4 SWAP3 POP POP POP JUMP JUMPDEST PUSH1 0x40 MLOAD DUP1 PUSH1 0x60 ADD PUSH1 0x40 MSTORE DUP1 PUSH1 0x3 SWAP1 PUSH1 0x20 DUP3 MUL DUP1 CALLDATASIZE DUP4 CALLDATACOPY POP SWAP2 SWAP3 SWAP2 POP POP JUMP JUMPDEST PUSH1 0x40 DUP1 MLOAD PUSH1 0x80 DUP2 ADD DUP3 MSTORE PUSH1 0x0 DUP1 DUP3 MSTORE PUSH1 0x20 DUP3 ADD DUP2 SWAP1 MSTORE PUSH1 0x60 SWAP3 DUP3 ADD DUP4 SWAP1 MSTORE SWAP2 DUP2 ADD SWAP2 SWAP1 SWAP2 MSTORE SWAP1 JUMP JUMPDEST PUSH1 0x0 DUP3 PUSH1 0x1F DUP4 ADD SLT PUSH2 0x1F74 JUMPI DUP1 DUP2 REVERT JUMPDEST DUP2 CALLDATALOAD PUSH2 0x1F87 PUSH2 0x1F82 DUP3 PUSH2 0x2857 JUMP JUMPDEST PUSH2 0x2831 JUMP JUMPDEST DUP2 DUP2 MSTORE SWAP2 POP PUSH1 0x20 DUP1 DUP4 ADD SWAP1 DUP5 DUP2 ADD DUP2 DUP5 MUL DUP7 ADD DUP3 ADD DUP8 LT ISZERO PUSH2 0x1FA8 JUMPI PUSH1 0x0 DUP1 REVERT JUMPDEST PUSH1 0x0 JUMPDEST DUP5 DUP2 LT ISZERO PUSH2 0x1FC7 JUMPI DUP2 CALLDATALOAD DUP5 MSTORE SWAP3 DUP3 ADD SWAP3 SWAP1 DUP3 ADD SWAP1 PUSH1 0x1 ADD PUSH2 0x1FAB JUMP JUMPDEST POP POP POP POP POP SWAP3 SWAP2 POP POP JUMP JUMPDEST PUSH1 0x0 DUP3 PUSH1 0x1F DUP4 ADD SLT PUSH2 0x1FE2 JUMPI DUP1 DUP2 REVERT JUMPDEST DUP2 MLOAD PUSH2 0x1FF0 PUSH2 0x1F82 DUP3 PUSH2 0x2857 JUMP JUMPDEST DUP2 DUP2 MSTORE SWAP2 POP PUSH1 0x20 DUP1 DUP4 ADD SWAP1 DUP5 DUP2 ADD DUP2 DUP5 MUL DUP7 ADD DUP3 ADD DUP8 LT ISZERO PUSH2 0x2011 JUMPI PUSH1 0x0 DUP1 REVERT JUMPDEST PUSH1 0x0 JUMPDEST DUP5 DUP2 LT ISZERO PUSH2 0x1FC7 JUMPI DUP2 MLOAD DUP5 MSTORE SWAP3 DUP3 ADD SWAP3 SWAP1 DUP3 ADD SWAP1 PUSH1 0x1 ADD PUSH2 0x2014 JUMP JUMPDEST PUSH1 0x0 DUP3 PUSH1 0x1F DUP4 ADD SLT PUSH2 0x2040 JUMPI DUP1 DUP2 REVERT JUMPDEST DUP2 CALLDATALOAD PUSH2 0x204E PUSH2 0x1F82 DUP3 PUSH2 0x2876 JUMP JUMPDEST SWAP2 POP DUP1 DUP3 MSTORE DUP4 PUSH1 0x20 DUP3 DUP6 ADD ADD GT ISZERO PUSH2 0x2065 JUMPI PUSH1 0x0 DUP1 REVERT JUMPDEST DUP1 PUSH1 0x20 DUP5 ADD PUSH1 0x20 DUP5 ADD CALLDATACOPY PUSH1 0x0 SWAP1 DUP3 ADD PUSH1 0x20 ADD MSTORE SWAP3 SWAP2 POP POP JUMP JUMPDEST PUSH1 0x0 DUP1 PUSH1 0x0 DUP1 PUSH1 0x80 DUP6 DUP8 SUB SLT ISZERO PUSH2 0x2093 JUMPI DUP4 DUP5 REVERT JUMPDEST DUP5 CALLDATALOAD PUSH2 0x209E DUP2 PUSH2 0x28C5 JUMP JUMPDEST SWAP4 POP PUSH1 0x20 DUP6 ADD CALLDATALOAD PUSH2 0x20AE DUP2 PUSH2 0x28C5 JUMP JUMPDEST SWAP3 POP PUSH1 0x40 DUP6 ADD CALLDATALOAD PUSH1 0x1 PUSH1 0x1 PUSH1 0x40 SHL SUB DUP2 GT ISZERO PUSH2 0x20C8 JUMPI DUP3 DUP4 REVERT JUMPDEST PUSH2 0x20D4 DUP8 DUP3 DUP9 ADD PUSH2 0x2030 JUMP JUMPDEST SWAP5 SWAP8 SWAP4 SWAP7 POP SWAP4 SWAP5 PUSH1 0x60 ADD CALLDATALOAD SWAP4 POP POP POP JUMP JUMPDEST PUSH1 0x0 DUP1 PUSH1 0x40 DUP4 DUP6 SUB SLT ISZERO PUSH2 0x20F7 JUMPI DUP2 DUP3 REVERT JUMPDEST DUP3 MLOAD PUSH1 0x1 PUSH1 0x1 PUSH1 0x40 SHL SUB DUP1 DUP3 GT ISZERO PUSH2 0x210D JUMPI DUP4 DUP5 REVERT JUMPDEST PUSH2 0x2119 DUP7 DUP4 DUP8 ADD PUSH2 0x1FD2 JUMP JUMPDEST SWAP4 POP PUSH1 0x20 DUP6 ADD MLOAD SWAP2 POP DUP1 DUP3 GT ISZERO PUSH2 0x212E JUMPI DUP3 DUP4 REVERT JUMPDEST POP PUSH2 0x213B DUP6 DUP3 DUP7 ADD PUSH2 0x1FD2 JUMP JUMPDEST SWAP2 POP POP SWAP3 POP SWAP3 SWAP1 POP JUMP JUMPDEST PUSH1 0x0 DUP1 PUSH1 0x0 DUP1 PUSH1 0x0 PUSH1 0xA0 DUP7 DUP9 SUB SLT ISZERO PUSH2 0x215C JUMPI DUP1 DUP2 REVERT JUMPDEST DUP6 CALLDATALOAD PUSH2 0x2167 DUP2 PUSH2 0x28DD JUMP JUMPDEST SWAP5 POP PUSH1 0x20 DUP7 ADD CALLDATALOAD PUSH2 0x2177 DUP2 PUSH2 0x28C5 JUMP JUMPDEST SWAP4 POP PUSH1 0x40 DUP7 ADD CALLDATALOAD PUSH2 0x2187 DUP2 PUSH2 0x28C5 JUMP JUMPDEST SWAP3 POP PUSH1 0x60 DUP7 ADD CALLDATALOAD PUSH1 0x1 PUSH1 0x1 PUSH1 0x40 SHL SUB DUP1 DUP3 GT ISZERO PUSH2 0x21A2 JUMPI DUP3 DUP4 REVERT JUMPDEST PUSH2 0x21AE DUP10 DUP4 DUP11 ADD PUSH2 0x2030 JUMP JUMPDEST SWAP4 POP PUSH1 0x80 DUP9 ADD CALLDATALOAD SWAP2 POP DUP1 DUP3 GT ISZERO PUSH2 0x21C3 JUMPI DUP3 DUP4 REVERT JUMPDEST POP PUSH2 0x21D0 DUP9 DUP3 DUP10 ADD PUSH2 0x1F64 JUMP JUMPDEST SWAP2 POP POP SWAP3 SWAP6 POP SWAP3 SWAP6 SWAP1 SWAP4 POP JUMP JUMPDEST PUSH1 0x0 DUP1 PUSH1 0x0 DUP1 PUSH1 0x0 PUSH1 0xA0 DUP7 DUP9 SUB SLT ISZERO PUSH2 0x21F4 JUMPI DUP1 DUP2 REVERT JUMPDEST DUP6 CALLDATALOAD PUSH2 0x21FF DUP2 PUSH2 0x28DD JUMP JUMPDEST SWAP5 POP PUSH1 0x20 DUP7 ADD CALLDATALOAD PUSH2 0x220F DUP2 PUSH2 0x28C5 JUMP JUMPDEST SWAP4 POP PUSH1 0x40 DUP7 ADD CALLDATALOAD PUSH2 0x221F DUP2 PUSH2 0x28C5 JUMP JUMPDEST SWAP3 POP PUSH1 0x60 DUP7 ADD CALLDATALOAD PUSH1 0x1 PUSH1 0x1 PUSH1 0x40 SHL SUB DUP2 GT ISZERO PUSH2 0x2239 JUMPI DUP2 DUP3 REVERT JUMPDEST PUSH2 0x2245 DUP9 DUP3 DUP10 ADD PUSH2 0x2030 JUMP JUMPDEST SWAP6 SWAP9 SWAP5 SWAP8 POP SWAP3 SWAP6 PUSH1 0x80 ADD CALLDATALOAD SWAP4 SWAP3 POP POP POP JUMP JUMPDEST PUSH1 0x0 PUSH1 0x20 DUP3 DUP5 SUB SLT ISZERO PUSH2 0x2268 JUMPI DUP1 DUP2 REVERT JUMPDEST DUP2 MLOAD PUSH2 0x1224 DUP2 PUSH2 0x28C5 JUMP JUMPDEST PUSH1 0x0 DUP1 PUSH1 0x0 DUP1 PUSH1 0x80 DUP6 DUP8 SUB SLT ISZERO PUSH2 0x2288 JUMPI DUP2 DUP3 REVERT JUMPDEST DUP5 CALLDATALOAD PUSH2 0x2293 DUP2 PUSH2 0x28C5 JUMP JUMPDEST SWAP4 POP PUSH1 0x20 DUP6 DUP2 ADD CALLDATALOAD PUSH2 0x22A4 DUP2 PUSH2 0x28C5 JUMP JUMPDEST SWAP4 POP PUSH1 0x40 DUP7 ADD CALLDATALOAD PUSH1 0x1 PUSH1 0x1 PUSH1 0x40 SHL SUB DUP1 DUP3 GT ISZERO PUSH2 0x22BF JUMPI DUP5 DUP6 REVERT JUMPDEST DUP2 DUP9 ADD SWAP2 POP DUP9 PUSH1 0x1F DUP4 ADD SLT PUSH2 0x22D2 JUMPI DUP5 DUP6 REVERT JUMPDEST DUP2 CALLDATALOAD PUSH2 0x22E0 PUSH2 0x1F82 DUP3 PUSH2 0x2857 JUMP JUMPDEST DUP2 DUP2 MSTORE DUP5 DUP2 ADD SWAP1 DUP5 DUP7 ADD DUP7 DUP5 MUL DUP7 ADD DUP8 ADD DUP14 LT ISZERO PUSH2 0x22FC JUMPI DUP9 DUP10 REVERT JUMPDEST DUP9 SWAP6 POP JUMPDEST DUP4 DUP7 LT ISZERO PUSH2 0x2327 JUMPI DUP1 CALLDATALOAD PUSH2 0x2313 DUP2 PUSH2 0x28C5 JUMP JUMPDEST DUP4 MSTORE PUSH1 0x1 SWAP6 SWAP1 SWAP6 ADD SWAP5 SWAP2 DUP7 ADD SWAP2 DUP7 ADD PUSH2 0x2300 JUMP JUMPDEST POP SWAP7 POP POP POP PUSH1 0x60 DUP9 ADD CALLDATALOAD SWAP3 POP DUP1 DUP4 GT ISZERO PUSH2 0x233F JUMPI DUP4 DUP5 REVERT JUMPDEST POP POP PUSH2 0x234D DUP8 DUP3 DUP9 ADD PUSH2 0x1F64 JUMP JUMPDEST SWAP2 POP POP SWAP3 SWAP6 SWAP2 SWAP5 POP SWAP3 POP JUMP JUMPDEST PUSH1 0x0 DUP1 PUSH1 0x40 DUP4 DUP6 SUB SLT ISZERO PUSH2 0x236B JUMPI DUP2 DUP3 REVERT JUMPDEST DUP3 MLOAD PUSH2 0x2376 DUP2 PUSH2 0x28C5 JUMP JUMPDEST PUSH1 0x20 DUP5 ADD MLOAD SWAP1 SWAP3 POP PUSH1 0x1 PUSH1 0x1 PUSH1 0x40 SHL SUB DUP2 GT ISZERO PUSH2 0x2391 JUMPI DUP2 DUP3 REVERT JUMPDEST DUP4 ADD PUSH1 0x1F DUP2 ADD DUP6 SGT PUSH2 0x23A1 JUMPI DUP2 DUP3 REVERT JUMPDEST DUP1 MLOAD PUSH2 0x23AF PUSH2 0x1F82 DUP3 PUSH2 0x2876 JUMP JUMPDEST DUP2 DUP2 MSTORE DUP7 PUSH1 0x20 DUP4 DUP6 ADD ADD GT ISZERO PUSH2 0x23C3 JUMPI DUP4 DUP5 REVERT JUMPDEST PUSH2 0x23D4 DUP3 PUSH1 0x20 DUP4 ADD PUSH1 0x20 DUP7 ADD PUSH2 0x2899 JUMP JUMPDEST DUP1 SWAP4 POP POP POP POP SWAP3 POP SWAP3 SWAP1 POP JUMP JUMPDEST PUSH1 0x0 PUSH1 0x20 DUP3 DUP5 SUB SLT ISZERO PUSH2 0x23F2 JUMPI DUP1 DUP2 REVERT JUMPDEST DUP2 MLOAD PUSH3 0xFFFFFF DUP2 AND DUP2 EQ PUSH2 0x1224 JUMPI DUP2 DUP3 REVERT JUMPDEST PUSH1 0x0 PUSH1 0x20 DUP3 DUP5 SUB SLT ISZERO PUSH2 0x2415 JUMPI DUP1 DUP2 REVERT JUMPDEST POP MLOAD SWAP2 SWAP1 POP JUMP JUMPDEST PUSH1 0x0 DUP1 PUSH1 0x40 DUP4 DUP6 SUB SLT ISZERO PUSH2 0x242E JUMPI DUP2 DUP3 REVERT JUMPDEST POP POP DUP1 MLOAD PUSH1 0x20 SWAP1 SWAP2 ADD MLOAD SWAP1 SWAP3 SWAP1 SWAP2 POP JUMP JUMPDEST PUSH1 0x0 DUP2 MLOAD DUP1 DUP5 MSTORE PUSH1 0x20 DUP1 DUP6 ADD SWAP5 POP DUP1 DUP5 ADD DUP4 JUMPDEST DUP4 DUP2 LT ISZERO PUSH2 0x246E JUMPI DUP2 MLOAD DUP8 MSTORE SWAP6 DUP3 ADD SWAP6 SWAP1 DUP3 ADD SWAP1 PUSH1 0x1 ADD PUSH2 0x2452 JUMP JUMPDEST POP SWAP5 SWAP6 SWAP5 POP POP POP POP POP JUMP JUMPDEST PUSH1 0x0 DUP2 MLOAD DUP1 DUP5 MSTORE PUSH2 0x2491 DUP2 PUSH1 0x20 DUP7 ADD PUSH1 0x20 DUP7 ADD PUSH2 0x2899 JUMP JUMPDEST PUSH1 0x1F ADD PUSH1 0x1F NOT AND SWAP3 SWAP1 SWAP3 ADD PUSH1 0x20 ADD SWAP3 SWAP2 POP POP JUMP JUMPDEST PUSH1 0x0 DUP3 MLOAD PUSH2 0x24B7 DUP2 DUP5 PUSH1 0x20 DUP8 ADD PUSH2 0x2899 JUMP JUMPDEST SWAP2 SWAP1 SWAP2 ADD SWAP3 SWAP2 POP POP JUMP JUMPDEST PUSH1 0x1 PUSH1 0x1 PUSH1 0xA0 SHL SUB SWAP2 SWAP1 SWAP2 AND DUP2 MSTORE PUSH1 0x20 ADD SWAP1 JUMP JUMPDEST PUSH1 0x1 PUSH1 0x1 PUSH1 0xA0 SHL SUB SWAP3 SWAP1 SWAP3 AND DUP3 MSTORE PUSH1 0x20 DUP3 ADD MSTORE PUSH1 0x40 ADD SWAP1 JUMP JUMPDEST PUSH1 0x1 PUSH1 0x1 PUSH1 0xA0 SHL SUB SWAP3 DUP4 AND DUP2 MSTORE SWAP2 AND PUSH1 0x20 DUP3 ADD MSTORE PUSH1 0x40 ADD SWAP1 JUMP JUMPDEST PUSH1 0x1 PUSH1 0x1 PUSH1 0xA0 SHL SUB DUP6 DUP2 AND DUP3 MSTORE DUP5 AND PUSH1 0x20 DUP3 ADD MSTORE PUSH1 0x80 PUSH1 0x40 DUP3 ADD DUP2 SWAP1 MSTORE PUSH1 0x0 SWAP1 PUSH2 0x2534 SWAP1 DUP4 ADD DUP6 PUSH2 0x2479 JUMP JUMPDEST SWAP1 POP DUP3 PUSH1 0x60 DUP4 ADD MSTORE SWAP6 SWAP5 POP POP POP POP POP JUMP JUMPDEST PUSH1 0x1 PUSH1 0x1 PUSH1 0xA0 SHL SUB DUP4 AND DUP2 MSTORE PUSH1 0x40 PUSH1 0x20 DUP3 ADD DUP2 SWAP1 MSTORE PUSH1 0x0 SWAP1 PUSH2 0x2569 SWAP1 DUP4 ADD DUP5 PUSH2 0x2479 JUMP JUMPDEST SWAP5 SWAP4 POP POP POP POP JUMP JUMPDEST PUSH1 0x0 PUSH1 0x60 DUP3 ADD PUSH1 0x60 DUP4 MSTORE DUP1 DUP7 MLOAD DUP1 DUP4 MSTORE PUSH1 0x80 DUP6 ADD SWAP2 POP PUSH1 0x20 SWAP3 POP PUSH1 0x80 DUP4 DUP3 MUL DUP7 ADD ADD DUP4 DUP10 ADD DUP6 JUMPDEST DUP4 DUP2 LT ISZERO PUSH2 0x25C6 JUMPI PUSH1 0x7F NOT DUP9 DUP5 SUB ADD DUP6 MSTORE PUSH2 0x25B4 DUP4 DUP4 MLOAD PUSH2 0x2479 JUMP JUMPDEST SWAP5 DUP7 ADD SWAP5 SWAP3 POP SWAP1 DUP6 ADD SWAP1 PUSH1 0x1 ADD PUSH2 0x2598 JUMP JUMPDEST POP POP DUP6 DUP2 SUB DUP5 DUP8 ADD MSTORE PUSH2 0x25D9 DUP2 DUP10 PUSH2 0x243F JUMP JUMPDEST SWAP4 POP POP POP POP DUP3 DUP2 SUB PUSH1 0x40 DUP5 ADD MSTORE PUSH2 0xD8A DUP2 DUP6 PUSH2 0x243F JUMP JUMPDEST PUSH1 0x0 PUSH1 0x40 DUP3 MSTORE PUSH2 0x2603 PUSH1 0x40 DUP4 ADD DUP6 PUSH2 0x243F JUMP JUMPDEST DUP3 DUP2 SUB PUSH1 0x20 DUP5 ADD MSTORE PUSH2 0x433 DUP2 DUP6 PUSH2 0x243F JUMP JUMPDEST SWAP1 ISZERO ISZERO DUP2 MSTORE PUSH1 0x20 ADD SWAP1 JUMP JUMPDEST PUSH1 0x1 PUSH1 0x1 PUSH1 0xE0 SHL SUB NOT DUP7 AND DUP2 MSTORE PUSH1 0x1 PUSH1 0x1 PUSH1 0xA0 SHL SUB DUP6 DUP2 AND PUSH1 0x20 DUP4 ADD MSTORE DUP5 AND PUSH1 0x40 DUP3 ADD MSTORE PUSH1 0xA0 PUSH1 0x60 DUP3 ADD DUP2 SWAP1 MSTORE PUSH1 0x0 SWAP1 PUSH2 0x265C SWAP1 DUP4 ADD DUP6 PUSH2 0x2479 JUMP JUMPDEST DUP3 DUP2 SUB PUSH1 0x80 DUP5 ADD MSTORE PUSH2 0x266E DUP2 DUP6 PUSH2 0x243F JUMP JUMPDEST SWAP9 SWAP8 POP POP POP POP POP POP POP POP JUMP JUMPDEST PUSH1 0x1 PUSH1 0x1 PUSH1 0xE0 SHL SUB NOT DUP7 AND DUP2 MSTORE PUSH1 0x1 PUSH1 0x1 PUSH1 0xA0 SHL SUB DUP6 DUP2 AND PUSH1 0x20 DUP4 ADD MSTORE DUP5 AND PUSH1 0x40 DUP3 ADD MSTORE PUSH1 0xA0 PUSH1 0x60 DUP3 ADD DUP2 SWAP1 MSTORE PUSH1 0x0 SWAP1 PUSH2 0x26B6 SWAP1 DUP4 ADD DUP6 PUSH2 0x2479 JUMP JUMPDEST SWAP1 POP DUP3 PUSH1 0x80 DUP4 ADD MSTORE SWAP7 SWAP6 POP POP POP POP POP POP JUMP JUMPDEST PUSH1 0x1 PUSH1 0x1 PUSH1 0xA0 SHL SUB SWAP4 DUP5 AND DUP2 MSTORE SWAP2 SWAP1 SWAP3 AND PUSH1 0x20 DUP3 ADD MSTORE PUSH3 0xFFFFFF SWAP1 SWAP2 AND PUSH1 0x40 DUP3 ADD MSTORE PUSH1 0x60 ADD SWAP1 JUMP JUMPDEST PUSH1 0x60 DUP2 ADD PUSH1 0x8 DUP6 LT PUSH2 0x26FE JUMPI INVALID JUMPDEST SWAP4 DUP2 MSTORE PUSH1 0x20 DUP2 ADD SWAP3 SWAP1 SWAP3 MSTORE PUSH1 0x40 SWAP1 SWAP2 ADD MSTORE SWAP1 JUMP JUMPDEST PUSH1 0x20 DUP1 DUP3 MSTORE PUSH1 0x24 SWAP1 DUP3 ADD MSTORE PUSH32 0x556E6973776170563353616D706C65722F746F6B656E5061746820746F6F2073 PUSH1 0x40 DUP3 ADD MSTORE PUSH4 0x1A1BDC9D PUSH1 0xE2 SHL PUSH1 0x60 DUP3 ADD MSTORE PUSH1 0x80 ADD SWAP1 JUMP JUMPDEST PUSH1 0x20 DUP1 DUP3 MSTORE PUSH1 0x25 SWAP1 DUP3 ADD MSTORE PUSH32 0x556E6973776170563353616D706C65722F696E76616C69642070617468206C65 PUSH1 0x40 DUP3 ADD MSTORE PUSH5 0x6E67746873 PUSH1 0xD8 SHL PUSH1 0x60 DUP3 ADD MSTORE PUSH1 0x80 ADD SWAP1 JUMP JUMPDEST PUSH1 0x20 DUP1 DUP3 MSTORE DUP2 DUP2 ADD MSTORE PUSH32 0x537761702053616D706C652073686F756C642068617665207265766572746564 PUSH1 0x40 DUP3 ADD MSTORE PUSH1 0x60 ADD SWAP1 JUMP JUMPDEST PUSH1 0x0 PUSH1 0x20 DUP3 MSTORE DUP3 MLOAD PUSH1 0xA0 PUSH1 0x20 DUP5 ADD MSTORE PUSH2 0x27EC PUSH1 0xC0 DUP5 ADD DUP3 PUSH2 0x2479 JUMP JUMPDEST SWAP1 POP PUSH1 0x1 DUP1 PUSH1 0xA0 SHL SUB PUSH1 0x20 DUP6 ADD MLOAD AND PUSH1 0x40 DUP5 ADD MSTORE PUSH1 0x40 DUP5 ADD MLOAD PUSH1 0x60 DUP5 ADD MSTORE PUSH1 0x60 DUP5 ADD MLOAD PUSH1 0x80 DUP5 ADD MSTORE PUSH1 0x80 DUP5 ADD MLOAD PUSH1 0xA0 DUP5 ADD MSTORE DUP1 SWAP2 POP POP SWAP3 SWAP2 POP POP JUMP JUMPDEST SWAP1 DUP2 MSTORE PUSH1 0x20 ADD SWAP1 JUMP JUMPDEST PUSH1 0x40 MLOAD DUP2 DUP2 ADD PUSH1 0x1 PUSH1 0x1 PUSH1 0x40 SHL SUB DUP2 GT DUP3 DUP3 LT OR ISZERO PUSH2 0x284F JUMPI PUSH1 0x0 DUP1 REVERT JUMPDEST PUSH1 0x40 MSTORE SWAP2 SWAP1 POP JUMP JUMPDEST PUSH1 0x0 PUSH1 0x1 PUSH1 0x1 PUSH1 0x40 SHL SUB DUP3 GT ISZERO PUSH2 0x286C JUMPI DUP1 DUP2 REVERT JUMPDEST POP PUSH1 0x20 SWAP1 DUP2 MUL ADD SWAP1 JUMP JUMPDEST PUSH1 0x0 PUSH1 0x1 PUSH1 0x1 PUSH1 0x40 SHL SUB DUP3 GT ISZERO PUSH2 0x288B JUMPI DUP1 DUP2 REVERT JUMPDEST POP PUSH1 0x1F ADD PUSH1 0x1F NOT AND PUSH1 0x20 ADD SWAP1 JUMP JUMPDEST PUSH1 0x0 JUMPDEST DUP4 DUP2 LT ISZERO PUSH2 0x28B4 JUMPI DUP2 DUP2 ADD MLOAD DUP4 DUP3 ADD MSTORE PUSH1 0x20 ADD PUSH2 0x289C JUMP JUMPDEST DUP4 DUP2 GT ISZERO PUSH2 0x1DBC JUMPI POP POP PUSH1 0x0 SWAP2 ADD MSTORE JUMP JUMPDEST PUSH1 0x1 PUSH1 0x1 PUSH1 0xA0 SHL SUB DUP2 AND DUP2 EQ PUSH2 0x28DA JUMPI PUSH1 0x0 DUP1 REVERT JUMPDEST POP JUMP JUMPDEST PUSH1 0x1 PUSH1 0x1 PUSH1 0xE0 SHL SUB NOT DUP2 AND DUP2 EQ PUSH2 0x28DA JUMPI PUSH1 0x0 DUP1 REVERT INVALID LOG2 PUSH5 0x6970667358 0x22 SLT KECCAK256 0xE0 MOD 0x2F DUP2 0x22 GAS PC 0x5C ADD 0x4A CODECOPY PUSH32 0xD2FEE730FCAE5F88FF7219E003C8736667E05F1C64736F6C634300060C003300 "
            }
        }
    },
    "sourceTreeHashHex": "0xcb5f9057b0bf49bea29b201ec2cfda6867a1f8556cc2d98b9b3129c5e9d3ce41",
    "compiler": {
        "name": "solc",
        "version": "0.6.12+commit.27d51765",
        "settings": {
            "remappings": [
                "@0x/contracts-zero-ex=/Users/jacob/projects/ethdev/0x/workspace-remote/workspace/0x-monorepo/packages/asset-swapper/node_modules/@0x/contracts-zero-ex",
                "@0x/contracts-erc20=/Users/jacob/projects/ethdev/0x/workspace-remote/workspace/0x-monorepo/packages/asset-swapper/node_modules/@0x/contracts-erc20",
                "@0x/contracts-utils=/Users/jacob/projects/ethdev/0x/workspace-remote/workspace/0x-monorepo/packages/asset-swapper/node_modules/@0x/contracts-utils"
            ],
            "optimizer": {
                "enabled": true,
                "runs": 200,
                "details": {
                    "yul": true,
                    "deduplicate": true
                }
            },
            "outputSelection": {
                "*": {
                    "*": [
                        "abi",
                        "devdoc",
                        "evm.bytecode.object",
                        "evm.bytecode.sourceMap",
                        "evm.deployedBytecode.object",
                        "evm.deployedBytecode.sourceMap"
                    ]
                }
            },
            "evmVersion": "istanbul"
        }
    },
    "chains": {}
}