{
    "schemaVersion": "2.0.0",
    "contractName": "UniswapSampler",
    "compilerOutput": {
        "abi": [
            {
                "inputs": [
                    {
                        "internalType": "address",
                        "name": "takerToken",
                        "type": "address"
                    },
                    {
                        "internalType": "address",
                        "name": "makerToken",
                        "type": "address"
                    },
                    {
                        "internalType": "uint256[]",
                        "name": "makerTokenAmounts",
                        "type": "uint256[]"
                    }
                ],
                "name": "sampleBuysFromUniswap",
                "outputs": [
                    {
                        "internalType": "uint256[]",
                        "name": "takerTokenAmounts",
                        "type": "uint256[]"
                    }
                ],
                "stateMutability": "view",
                "type": "function"
            },
            {
                "inputs": [
                    {
                        "internalType": "address",
                        "name": "takerToken",
                        "type": "address"
                    },
                    {
                        "internalType": "address",
                        "name": "makerToken",
                        "type": "address"
                    },
                    {
                        "internalType": "uint256[]",
                        "name": "takerTokenAmounts",
                        "type": "uint256[]"
                    }
                ],
                "name": "sampleSellsFromUniswap",
                "outputs": [
                    {
                        "internalType": "uint256[]",
                        "name": "makerTokenAmounts",
                        "type": "uint256[]"
                    }
                ],
                "stateMutability": "view",
                "type": "function"
            }
        ],
        "devdoc": {
            "kind": "dev",
            "methods": {
                "sampleBuysFromUniswap(address,address,uint256[])": {
                    "details": "Sample buy quotes from Uniswap.",
                    "params": {
                        "makerToken": "Address of the maker token (what to buy).",
                        "makerTokenAmounts": "Maker token sell amount for each sample.",
                        "takerToken": "Address of the taker token (what to sell)."
                    },
                    "returns": {
                        "takerTokenAmounts": "Taker amounts sold at each maker token         amount."
                    }
                },
                "sampleSellsFromUniswap(address,address,uint256[])": {
                    "details": "Sample sell quotes from Uniswap.",
                    "params": {
                        "makerToken": "Address of the maker token (what to buy).",
                        "takerToken": "Address of the taker token (what to sell).",
                        "takerTokenAmounts": "Taker token sell amount for each sample."
                    },
                    "returns": {
                        "makerTokenAmounts": "Maker amounts bought at each taker token         amount."
                    }
                }
            },
            "stateVariables": {
                "UNISWAP_CALL_GAS": {
                    "details": "Gas limit for Uniswap calls."
                }
            },
            "version": 1
        },
        "evm": {
            "bytecode": {
                "linkReferences": {},
                "object": "0x608060405234801561001057600080fd5b50610ae4806100206000396000f3fe608060405234801561001057600080fd5b50600436106100365760003560e01c806360ee052a1461003b5780636dd6b78d14610064575b600080fd5b61004e61004936600461086a565b610077565b60405161005b9190610998565b60405180910390f35b61004e61007236600461086a565b61032d565b606061008383856105ca565b81518067ffffffffffffffff8111801561009c57600080fd5b506040519080825280602002602001820160405280156100c6578160200160208202803683370190505b50915073ffffffffffffffffffffffffffffffffffffffff841673b8c77482e45f1f44de1745f52c74426c631bdd5214156101015750610326565b600061010b61063d565b73ffffffffffffffffffffffffffffffffffffffff168673ffffffffffffffffffffffffffffffffffffffff161461014b5761014686610655565b61014e565b60005b9050600061015a61063d565b73ffffffffffffffffffffffffffffffffffffffff168673ffffffffffffffffffffffffffffffffffffffff161461019a5761019586610655565b61019d565b60005b905060005b838110156103215760016101b461063d565b73ffffffffffffffffffffffffffffffffffffffff168873ffffffffffffffffffffffffffffffffffffffff16141561022d5761020c84632640f62c60e01b8985815181106101ff57fe5b60200260200101516106ed565b87848151811061021857fe5b6020026020010181935082815250505061030d565b61023561063d565b73ffffffffffffffffffffffffffffffffffffffff168973ffffffffffffffffffffffffffffffffffffffff1614156102805761020c836359e9486260e01b8985815181106101ff57fe5b600061029a846359e9486260e01b8a86815181106101ff57fe5b9250905080156102f0576102cf857f2640f62c00000000000000000000000000000000000000000000000000000000836106ed565b8885815181106102db57fe5b6020026020010181945082815250505061030b565b60008784815181106102fe57fe5b6020026020010181815250505b505b806103185750610321565b506001016101a2565b505050505b9392505050565b606061033983856105ca565b81518067ffffffffffffffff8111801561035257600080fd5b5060405190808252806020026020018201604052801561037c578160200160208202803683370190505b50915073ffffffffffffffffffffffffffffffffffffffff841673b8c77482e45f1f44de1745f52c74426c631bdd5214156103b75750610326565b60006103c161063d565b73ffffffffffffffffffffffffffffffffffffffff168673ffffffffffffffffffffffffffffffffffffffff1614610401576103fc86610655565b610404565b60005b9050600061041061063d565b73ffffffffffffffffffffffffffffffffffffffff168673ffffffffffffffffffffffffffffffffffffffff16146104505761044b86610655565b610453565b60005b905060005b8381101561032157600161046a61063d565b73ffffffffffffffffffffffffffffffffffffffff168873ffffffffffffffffffffffffffffffffffffffff1614156104d6576104b5846395b68fe760e01b8985815181106101ff57fe5b8784815181106104c157fe5b602002602001018193508281525050506105b6565b6104de61063d565b73ffffffffffffffffffffffffffffffffffffffff168973ffffffffffffffffffffffffffffffffffffffff161415610529576104b58363cd7724c360e01b8985815181106101ff57fe5b6000610543856395b68fe760e01b8a86815181106101ff57fe5b92509050801561059957610578847fcd7724c300000000000000000000000000000000000000000000000000000000836106ed565b88858151811061058457fe5b602002602001018194508281525050506105b4565b60008784815181106105a757fe5b6020026020010181815250505b505b806105c15750610321565b50600101610458565b8073ffffffffffffffffffffffffffffffffffffffff168273ffffffffffffffffffffffffffffffffffffffff161415610639576040517f08c379a0000000000000000000000000000000000000000000000000000000008152600401610630906109dc565b60405180910390fd5b5050565b73c02aaa39b223fe8d0a0e5c4f27ead9083c756cc290565b600061065f610836565b73ffffffffffffffffffffffffffffffffffffffff166306f2bf62836040518263ffffffff1660e01b81526004016106979190610977565b60206040518083038186803b1580156106af57600080fd5b505afa1580156106c3573d6000803e3d6000fd5b505050506040513d601f19601f820116820180604052508101906106e7919061084e565b92915050565b60008073ffffffffffffffffffffffffffffffffffffffff85166107105761082e565b60608573ffffffffffffffffffffffffffffffffffffffff16620249f0868660405160240161073f9190610a39565b604080517fffffffffffffffffffffffffffffffffffffffffffffffffffffffffffffffe08184030181529181526020820180517bffffffffffffffffffffffffffffffffffffffffffffffffffffffff167fffffffff000000000000000000000000000000000000000000000000000000009094169390931790925290516107c8919061093e565b6000604051808303818686fa925050503d8060008114610804576040519150601f19603f3d011682016040523d82523d6000602084013e610809565b606091505b509092509050811561082c57808060200190518101906108299190610926565b92505b505b935093915050565b73c0a47dfe034b400b47bdad5fecda2621de6c4d9590565b60006020828403121561085f578081fd5b815161032681610a89565b60008060006060848603121561087e578182fd5b833561088981610a89565b925060208481013561089a81610a89565b9250604085013567ffffffffffffffff8111156108b5578283fd5b8501601f810187136108c5578283fd5b80356108d86108d382610a69565b610a42565b81815283810190838501858402850186018b10156108f4578687fd5b8694505b838510156109165780358352600194909401939185019185016108f8565b5080955050505050509250925092565b600060208284031215610937578081fd5b5051919050565b60008251815b8181101561095e5760208186018101518583015201610944565b8181111561096c5782828501525b509190910192915050565b73ffffffffffffffffffffffffffffffffffffffff91909116815260200190565b6020808252825182820181905260009190848201906040850190845b818110156109d0578351835292840192918401916001016109b4565b50909695505050505050565b60208082526025908201527f455243323042726964676553616d706c65722f494e56414c49445f544f4b454e60408201527f5f50414952000000000000000000000000000000000000000000000000000000606082015260800190565b90815260200190565b60405181810167ffffffffffffffff81118282101715610a6157600080fd5b604052919050565b600067ffffffffffffffff821115610a7f578081fd5b5060209081020190565b73ffffffffffffffffffffffffffffffffffffffff81168114610aab57600080fd5b5056fea264697066735822122083d2ee61a422233ca8e19ab8af6620c51cb0939565d728da7fc7d8cc31b0db3164736f6c634300060c0033",
                "opcodes": "PUSH1 0x80 PUSH1 0x40 MSTORE CALLVALUE DUP1 ISZERO PUSH2 0x10 JUMPI PUSH1 0x0 DUP1 REVERT JUMPDEST POP PUSH2 0xAE4 DUP1 PUSH2 0x20 PUSH1 0x0 CODECOPY PUSH1 0x0 RETURN INVALID PUSH1 0x80 PUSH1 0x40 MSTORE CALLVALUE DUP1 ISZERO PUSH2 0x10 JUMPI PUSH1 0x0 DUP1 REVERT JUMPDEST POP PUSH1 0x4 CALLDATASIZE LT PUSH2 0x36 JUMPI PUSH1 0x0 CALLDATALOAD PUSH1 0xE0 SHR DUP1 PUSH4 0x60EE052A EQ PUSH2 0x3B JUMPI DUP1 PUSH4 0x6DD6B78D EQ PUSH2 0x64 JUMPI JUMPDEST PUSH1 0x0 DUP1 REVERT JUMPDEST PUSH2 0x4E PUSH2 0x49 CALLDATASIZE PUSH1 0x4 PUSH2 0x86A JUMP JUMPDEST PUSH2 0x77 JUMP JUMPDEST PUSH1 0x40 MLOAD PUSH2 0x5B SWAP2 SWAP1 PUSH2 0x998 JUMP JUMPDEST PUSH1 0x40 MLOAD DUP1 SWAP2 SUB SWAP1 RETURN JUMPDEST PUSH2 0x4E PUSH2 0x72 CALLDATASIZE PUSH1 0x4 PUSH2 0x86A JUMP JUMPDEST PUSH2 0x32D JUMP JUMPDEST PUSH1 0x60 PUSH2 0x83 DUP4 DUP6 PUSH2 0x5CA JUMP JUMPDEST DUP2 MLOAD DUP1 PUSH8 0xFFFFFFFFFFFFFFFF DUP2 GT DUP1 ISZERO PUSH2 0x9C JUMPI PUSH1 0x0 DUP1 REVERT JUMPDEST POP PUSH1 0x40 MLOAD SWAP1 DUP1 DUP3 MSTORE DUP1 PUSH1 0x20 MUL PUSH1 0x20 ADD DUP3 ADD PUSH1 0x40 MSTORE DUP1 ISZERO PUSH2 0xC6 JUMPI DUP2 PUSH1 0x20 ADD PUSH1 0x20 DUP3 MUL DUP1 CALLDATASIZE DUP4 CALLDATACOPY ADD SWAP1 POP JUMPDEST POP SWAP2 POP PUSH20 0xFFFFFFFFFFFFFFFFFFFFFFFFFFFFFFFFFFFFFFFF DUP5 AND PUSH20 0xB8C77482E45F1F44DE1745F52C74426C631BDD52 EQ ISZERO PUSH2 0x101 JUMPI POP PUSH2 0x326 JUMP JUMPDEST PUSH1 0x0 PUSH2 0x10B PUSH2 0x63D JUMP JUMPDEST PUSH20 0xFFFFFFFFFFFFFFFFFFFFFFFFFFFFFFFFFFFFFFFF AND DUP7 PUSH20 0xFFFFFFFFFFFFFFFFFFFFFFFFFFFFFFFFFFFFFFFF AND EQ PUSH2 0x14B JUMPI PUSH2 0x146 DUP7 PUSH2 0x655 JUMP JUMPDEST PUSH2 0x14E JUMP JUMPDEST PUSH1 0x0 JUMPDEST SWAP1 POP PUSH1 0x0 PUSH2 0x15A PUSH2 0x63D JUMP JUMPDEST PUSH20 0xFFFFFFFFFFFFFFFFFFFFFFFFFFFFFFFFFFFFFFFF AND DUP7 PUSH20 0xFFFFFFFFFFFFFFFFFFFFFFFFFFFFFFFFFFFFFFFF AND EQ PUSH2 0x19A JUMPI PUSH2 0x195 DUP7 PUSH2 0x655 JUMP JUMPDEST PUSH2 0x19D JUMP JUMPDEST PUSH1 0x0 JUMPDEST SWAP1 POP PUSH1 0x0 JUMPDEST DUP4 DUP2 LT ISZERO PUSH2 0x321 JUMPI PUSH1 0x1 PUSH2 0x1B4 PUSH2 0x63D JUMP JUMPDEST PUSH20 0xFFFFFFFFFFFFFFFFFFFFFFFFFFFFFFFFFFFFFFFF AND DUP9 PUSH20 0xFFFFFFFFFFFFFFFFFFFFFFFFFFFFFFFFFFFFFFFF AND EQ ISZERO PUSH2 0x22D JUMPI PUSH2 0x20C DUP5 PUSH4 0x2640F62C PUSH1 0xE0 SHL DUP10 DUP6 DUP2 MLOAD DUP2 LT PUSH2 0x1FF JUMPI INVALID JUMPDEST PUSH1 0x20 MUL PUSH1 0x20 ADD ADD MLOAD PUSH2 0x6ED JUMP JUMPDEST DUP8 DUP5 DUP2 MLOAD DUP2 LT PUSH2 0x218 JUMPI INVALID JUMPDEST PUSH1 0x20 MUL PUSH1 0x20 ADD ADD DUP2 SWAP4 POP DUP3 DUP2 MSTORE POP POP POP PUSH2 0x30D JUMP JUMPDEST PUSH2 0x235 PUSH2 0x63D JUMP JUMPDEST PUSH20 0xFFFFFFFFFFFFFFFFFFFFFFFFFFFFFFFFFFFFFFFF AND DUP10 PUSH20 0xFFFFFFFFFFFFFFFFFFFFFFFFFFFFFFFFFFFFFFFF AND EQ ISZERO PUSH2 0x280 JUMPI PUSH2 0x20C DUP4 PUSH4 0x59E94862 PUSH1 0xE0 SHL DUP10 DUP6 DUP2 MLOAD DUP2 LT PUSH2 0x1FF JUMPI INVALID JUMPDEST PUSH1 0x0 PUSH2 0x29A DUP5 PUSH4 0x59E94862 PUSH1 0xE0 SHL DUP11 DUP7 DUP2 MLOAD DUP2 LT PUSH2 0x1FF JUMPI INVALID JUMPDEST SWAP3 POP SWAP1 POP DUP1 ISZERO PUSH2 0x2F0 JUMPI PUSH2 0x2CF DUP6 PUSH32 0x2640F62C00000000000000000000000000000000000000000000000000000000 DUP4 PUSH2 0x6ED JUMP JUMPDEST DUP9 DUP6 DUP2 MLOAD DUP2 LT PUSH2 0x2DB JUMPI INVALID JUMPDEST PUSH1 0x20 MUL PUSH1 0x20 ADD ADD DUP2 SWAP5 POP DUP3 DUP2 MSTORE POP POP POP PUSH2 0x30B JUMP JUMPDEST PUSH1 0x0 DUP8 DUP5 DUP2 MLOAD DUP2 LT PUSH2 0x2FE JUMPI INVALID JUMPDEST PUSH1 0x20 MUL PUSH1 0x20 ADD ADD DUP2 DUP2 MSTORE POP POP JUMPDEST POP JUMPDEST DUP1 PUSH2 0x318 JUMPI POP PUSH2 0x321 JUMP JUMPDEST POP PUSH1 0x1 ADD PUSH2 0x1A2 JUMP JUMPDEST POP POP POP POP JUMPDEST SWAP4 SWAP3 POP POP POP JUMP JUMPDEST PUSH1 0x60 PUSH2 0x339 DUP4 DUP6 PUSH2 0x5CA JUMP JUMPDEST DUP2 MLOAD DUP1 PUSH8 0xFFFFFFFFFFFFFFFF DUP2 GT DUP1 ISZERO PUSH2 0x352 JUMPI PUSH1 0x0 DUP1 REVERT JUMPDEST POP PUSH1 0x40 MLOAD SWAP1 DUP1 DUP3 MSTORE DUP1 PUSH1 0x20 MUL PUSH1 0x20 ADD DUP3 ADD PUSH1 0x40 MSTORE DUP1 ISZERO PUSH2 0x37C JUMPI DUP2 PUSH1 0x20 ADD PUSH1 0x20 DUP3 MUL DUP1 CALLDATASIZE DUP4 CALLDATACOPY ADD SWAP1 POP JUMPDEST POP SWAP2 POP PUSH20 0xFFFFFFFFFFFFFFFFFFFFFFFFFFFFFFFFFFFFFFFF DUP5 AND PUSH20 0xB8C77482E45F1F44DE1745F52C74426C631BDD52 EQ ISZERO PUSH2 0x3B7 JUMPI POP PUSH2 0x326 JUMP JUMPDEST PUSH1 0x0 PUSH2 0x3C1 PUSH2 0x63D JUMP JUMPDEST PUSH20 0xFFFFFFFFFFFFFFFFFFFFFFFFFFFFFFFFFFFFFFFF AND DUP7 PUSH20 0xFFFFFFFFFFFFFFFFFFFFFFFFFFFFFFFFFFFFFFFF AND EQ PUSH2 0x401 JUMPI PUSH2 0x3FC DUP7 PUSH2 0x655 JUMP JUMPDEST PUSH2 0x404 JUMP JUMPDEST PUSH1 0x0 JUMPDEST SWAP1 POP PUSH1 0x0 PUSH2 0x410 PUSH2 0x63D JUMP JUMPDEST PUSH20 0xFFFFFFFFFFFFFFFFFFFFFFFFFFFFFFFFFFFFFFFF AND DUP7 PUSH20 0xFFFFFFFFFFFFFFFFFFFFFFFFFFFFFFFFFFFFFFFF AND EQ PUSH2 0x450 JUMPI PUSH2 0x44B DUP7 PUSH2 0x655 JUMP JUMPDEST PUSH2 0x453 JUMP JUMPDEST PUSH1 0x0 JUMPDEST SWAP1 POP PUSH1 0x0 JUMPDEST DUP4 DUP2 LT ISZERO PUSH2 0x321 JUMPI PUSH1 0x1 PUSH2 0x46A PUSH2 0x63D JUMP JUMPDEST PUSH20 0xFFFFFFFFFFFFFFFFFFFFFFFFFFFFFFFFFFFFFFFF AND DUP9 PUSH20 0xFFFFFFFFFFFFFFFFFFFFFFFFFFFFFFFFFFFFFFFF AND EQ ISZERO PUSH2 0x4D6 JUMPI PUSH2 0x4B5 DUP5 PUSH4 0x95B68FE7 PUSH1 0xE0 SHL DUP10 DUP6 DUP2 MLOAD DUP2 LT PUSH2 0x1FF JUMPI INVALID JUMPDEST DUP8 DUP5 DUP2 MLOAD DUP2 LT PUSH2 0x4C1 JUMPI INVALID JUMPDEST PUSH1 0x20 MUL PUSH1 0x20 ADD ADD DUP2 SWAP4 POP DUP3 DUP2 MSTORE POP POP POP PUSH2 0x5B6 JUMP JUMPDEST PUSH2 0x4DE PUSH2 0x63D JUMP JUMPDEST PUSH20 0xFFFFFFFFFFFFFFFFFFFFFFFFFFFFFFFFFFFFFFFF AND DUP10 PUSH20 0xFFFFFFFFFFFFFFFFFFFFFFFFFFFFFFFFFFFFFFFF AND EQ ISZERO PUSH2 0x529 JUMPI PUSH2 0x4B5 DUP4 PUSH4 0xCD7724C3 PUSH1 0xE0 SHL DUP10 DUP6 DUP2 MLOAD DUP2 LT PUSH2 0x1FF JUMPI INVALID JUMPDEST PUSH1 0x0 PUSH2 0x543 DUP6 PUSH4 0x95B68FE7 PUSH1 0xE0 SHL DUP11 DUP7 DUP2 MLOAD DUP2 LT PUSH2 0x1FF JUMPI INVALID JUMPDEST SWAP3 POP SWAP1 POP DUP1 ISZERO PUSH2 0x599 JUMPI PUSH2 0x578 DUP5 PUSH32 0xCD7724C300000000000000000000000000000000000000000000000000000000 DUP4 PUSH2 0x6ED JUMP JUMPDEST DUP9 DUP6 DUP2 MLOAD DUP2 LT PUSH2 0x584 JUMPI INVALID JUMPDEST PUSH1 0x20 MUL PUSH1 0x20 ADD ADD DUP2 SWAP5 POP DUP3 DUP2 MSTORE POP POP POP PUSH2 0x5B4 JUMP JUMPDEST PUSH1 0x0 DUP8 DUP5 DUP2 MLOAD DUP2 LT PUSH2 0x5A7 JUMPI INVALID JUMPDEST PUSH1 0x20 MUL PUSH1 0x20 ADD ADD DUP2 DUP2 MSTORE POP POP JUMPDEST POP JUMPDEST DUP1 PUSH2 0x5C1 JUMPI POP PUSH2 0x321 JUMP JUMPDEST POP PUSH1 0x1 ADD PUSH2 0x458 JUMP JUMPDEST DUP1 PUSH20 0xFFFFFFFFFFFFFFFFFFFFFFFFFFFFFFFFFFFFFFFF AND DUP3 PUSH20 0xFFFFFFFFFFFFFFFFFFFFFFFFFFFFFFFFFFFFFFFF AND EQ ISZERO PUSH2 0x639 JUMPI PUSH1 0x40 MLOAD PUSH32 0x8C379A000000000000000000000000000000000000000000000000000000000 DUP2 MSTORE PUSH1 0x4 ADD PUSH2 0x630 SWAP1 PUSH2 0x9DC JUMP JUMPDEST PUSH1 0x40 MLOAD DUP1 SWAP2 SUB SWAP1 REVERT JUMPDEST POP POP JUMP JUMPDEST PUSH20 0xC02AAA39B223FE8D0A0E5C4F27EAD9083C756CC2 SWAP1 JUMP JUMPDEST PUSH1 0x0 PUSH2 0x65F PUSH2 0x836 JUMP JUMPDEST PUSH20 0xFFFFFFFFFFFFFFFFFFFFFFFFFFFFFFFFFFFFFFFF AND PUSH4 0x6F2BF62 DUP4 PUSH1 0x40 MLOAD DUP3 PUSH4 0xFFFFFFFF AND PUSH1 0xE0 SHL DUP2 MSTORE PUSH1 0x4 ADD PUSH2 0x697 SWAP2 SWAP1 PUSH2 0x977 JUMP JUMPDEST PUSH1 0x20 PUSH1 0x40 MLOAD DUP1 DUP4 SUB DUP2 DUP7 DUP1 EXTCODESIZE ISZERO DUP1 ISZERO PUSH2 0x6AF JUMPI PUSH1 0x0 DUP1 REVERT JUMPDEST POP GAS STATICCALL ISZERO DUP1 ISZERO PUSH2 0x6C3 JUMPI RETURNDATASIZE PUSH1 0x0 DUP1 RETURNDATACOPY RETURNDATASIZE PUSH1 0x0 REVERT JUMPDEST POP POP POP POP PUSH1 0x40 MLOAD RETURNDATASIZE PUSH1 0x1F NOT PUSH1 0x1F DUP3 ADD AND DUP3 ADD DUP1 PUSH1 0x40 MSTORE POP DUP2 ADD SWAP1 PUSH2 0x6E7 SWAP2 SWAP1 PUSH2 0x84E JUMP JUMPDEST SWAP3 SWAP2 POP POP JUMP JUMPDEST PUSH1 0x0 DUP1 PUSH20 0xFFFFFFFFFFFFFFFFFFFFFFFFFFFFFFFFFFFFFFFF DUP6 AND PUSH2 0x710 JUMPI PUSH2 0x82E JUMP JUMPDEST PUSH1 0x60 DUP6 PUSH20 0xFFFFFFFFFFFFFFFFFFFFFFFFFFFFFFFFFFFFFFFF AND PUSH3 0x249F0 DUP7 DUP7 PUSH1 0x40 MLOAD PUSH1 0x24 ADD PUSH2 0x73F SWAP2 SWAP1 PUSH2 0xA39 JUMP JUMPDEST PUSH1 0x40 DUP1 MLOAD PUSH32 0xFFFFFFFFFFFFFFFFFFFFFFFFFFFFFFFFFFFFFFFFFFFFFFFFFFFFFFFFFFFFFFE0 DUP2 DUP5 SUB ADD DUP2 MSTORE SWAP2 DUP2 MSTORE PUSH1 0x20 DUP3 ADD DUP1 MLOAD PUSH28 0xFFFFFFFFFFFFFFFFFFFFFFFFFFFFFFFFFFFFFFFFFFFFFFFFFFFFFFFF AND PUSH32 0xFFFFFFFF00000000000000000000000000000000000000000000000000000000 SWAP1 SWAP5 AND SWAP4 SWAP1 SWAP4 OR SWAP1 SWAP3 MSTORE SWAP1 MLOAD PUSH2 0x7C8 SWAP2 SWAP1 PUSH2 0x93E JUMP JUMPDEST PUSH1 0x0 PUSH1 0x40 MLOAD DUP1 DUP4 SUB DUP2 DUP7 DUP7 STATICCALL SWAP3 POP POP POP RETURNDATASIZE DUP1 PUSH1 0x0 DUP2 EQ PUSH2 0x804 JUMPI PUSH1 0x40 MLOAD SWAP2 POP PUSH1 0x1F NOT PUSH1 0x3F RETURNDATASIZE ADD AND DUP3 ADD PUSH1 0x40 MSTORE RETURNDATASIZE DUP3 MSTORE RETURNDATASIZE PUSH1 0x0 PUSH1 0x20 DUP5 ADD RETURNDATACOPY PUSH2 0x809 JUMP JUMPDEST PUSH1 0x60 SWAP2 POP JUMPDEST POP SWAP1 SWAP3 POP SWAP1 POP DUP2 ISZERO PUSH2 0x82C JUMPI DUP1 DUP1 PUSH1 0x20 ADD SWAP1 MLOAD DUP2 ADD SWAP1 PUSH2 0x829 SWAP2 SWAP1 PUSH2 0x926 JUMP JUMPDEST SWAP3 POP JUMPDEST POP JUMPDEST SWAP4 POP SWAP4 SWAP2 POP POP JUMP JUMPDEST PUSH20 0xC0A47DFE034B400B47BDAD5FECDA2621DE6C4D95 SWAP1 JUMP JUMPDEST PUSH1 0x0 PUSH1 0x20 DUP3 DUP5 SUB SLT ISZERO PUSH2 0x85F JUMPI DUP1 DUP2 REVERT JUMPDEST DUP2 MLOAD PUSH2 0x326 DUP2 PUSH2 0xA89 JUMP JUMPDEST PUSH1 0x0 DUP1 PUSH1 0x0 PUSH1 0x60 DUP5 DUP7 SUB SLT ISZERO PUSH2 0x87E JUMPI DUP2 DUP3 REVERT JUMPDEST DUP4 CALLDATALOAD PUSH2 0x889 DUP2 PUSH2 0xA89 JUMP JUMPDEST SWAP3 POP PUSH1 0x20 DUP5 DUP2 ADD CALLDATALOAD PUSH2 0x89A DUP2 PUSH2 0xA89 JUMP JUMPDEST SWAP3 POP PUSH1 0x40 DUP6 ADD CALLDATALOAD PUSH8 0xFFFFFFFFFFFFFFFF DUP2 GT ISZERO PUSH2 0x8B5 JUMPI DUP3 DUP4 REVERT JUMPDEST DUP6 ADD PUSH1 0x1F DUP2 ADD DUP8 SGT PUSH2 0x8C5 JUMPI DUP3 DUP4 REVERT JUMPDEST DUP1 CALLDATALOAD PUSH2 0x8D8 PUSH2 0x8D3 DUP3 PUSH2 0xA69 JUMP JUMPDEST PUSH2 0xA42 JUMP JUMPDEST DUP2 DUP2 MSTORE DUP4 DUP2 ADD SWAP1 DUP4 DUP6 ADD DUP6 DUP5 MUL DUP6 ADD DUP7 ADD DUP12 LT ISZERO PUSH2 0x8F4 JUMPI DUP7 DUP8 REVERT JUMPDEST DUP7 SWAP5 POP JUMPDEST DUP4 DUP6 LT ISZERO PUSH2 0x916 JUMPI DUP1 CALLDATALOAD DUP4 MSTORE PUSH1 0x1 SWAP5 SWAP1 SWAP5 ADD SWAP4 SWAP2 DUP6 ADD SWAP2 DUP6 ADD PUSH2 0x8F8 JUMP JUMPDEST POP DUP1 SWAP6 POP POP POP POP POP POP SWAP3 POP SWAP3 POP SWAP3 JUMP JUMPDEST PUSH1 0x0 PUSH1 0x20 DUP3 DUP5 SUB SLT ISZERO PUSH2 0x937 JUMPI DUP1 DUP2 REVERT JUMPDEST POP MLOAD SWAP2 SWAP1 POP JUMP JUMPDEST PUSH1 0x0 DUP3 MLOAD DUP2 JUMPDEST DUP2 DUP2 LT ISZERO PUSH2 0x95E JUMPI PUSH1 0x20 DUP2 DUP7 ADD DUP2 ADD MLOAD DUP6 DUP4 ADD MSTORE ADD PUSH2 0x944 JUMP JUMPDEST DUP2 DUP2 GT ISZERO PUSH2 0x96C JUMPI DUP3 DUP3 DUP6 ADD MSTORE JUMPDEST POP SWAP2 SWAP1 SWAP2 ADD SWAP3 SWAP2 POP POP JUMP JUMPDEST PUSH20 0xFFFFFFFFFFFFFFFFFFFFFFFFFFFFFFFFFFFFFFFF SWAP2 SWAP1 SWAP2 AND DUP2 MSTORE PUSH1 0x20 ADD SWAP1 JUMP JUMPDEST PUSH1 0x20 DUP1 DUP3 MSTORE DUP3 MLOAD DUP3 DUP3 ADD DUP2 SWAP1 MSTORE PUSH1 0x0 SWAP2 SWAP1 DUP5 DUP3 ADD SWAP1 PUSH1 0x40 DUP6 ADD SWAP1 DUP5 JUMPDEST DUP2 DUP2 LT ISZERO PUSH2 0x9D0 JUMPI DUP4 MLOAD DUP4 MSTORE SWAP3 DUP5 ADD SWAP3 SWAP2 DUP5 ADD SWAP2 PUSH1 0x1 ADD PUSH2 0x9B4 JUMP JUMPDEST POP SWAP1 SWAP7 SWAP6 POP POP POP POP POP POP JUMP JUMPDEST PUSH1 0x20 DUP1 DUP3 MSTORE PUSH1 0x25 SWAP1 DUP3 ADD MSTORE PUSH32 0x455243323042726964676553616D706C65722F494E56414C49445F544F4B454E PUSH1 0x40 DUP3 ADD MSTORE PUSH32 0x5F50414952000000000000000000000000000000000000000000000000000000 PUSH1 0x60 DUP3 ADD MSTORE PUSH1 0x80 ADD SWAP1 JUMP JUMPDEST SWAP1 DUP2 MSTORE PUSH1 0x20 ADD SWAP1 JUMP JUMPDEST PUSH1 0x40 MLOAD DUP2 DUP2 ADD PUSH8 0xFFFFFFFFFFFFFFFF DUP2 GT DUP3 DUP3 LT OR ISZERO PUSH2 0xA61 JUMPI PUSH1 0x0 DUP1 REVERT JUMPDEST PUSH1 0x40 MSTORE SWAP2 SWAP1 POP JUMP JUMPDEST PUSH1 0x0 PUSH8 0xFFFFFFFFFFFFFFFF DUP3 GT ISZERO PUSH2 0xA7F JUMPI DUP1 DUP2 REVERT JUMPDEST POP PUSH1 0x20 SWAP1 DUP2 MUL ADD SWAP1 JUMP JUMPDEST PUSH20 0xFFFFFFFFFFFFFFFFFFFFFFFFFFFFFFFFFFFFFFFF DUP2 AND DUP2 EQ PUSH2 0xAAB JUMPI PUSH1 0x0 DUP1 REVERT JUMPDEST POP JUMP INVALID LOG2 PUSH5 0x6970667358 0x22 SLT KECCAK256 DUP4 0xD2 0xEE PUSH2 0xA422 0x23 EXTCODECOPY 0xA8 0xE1 SWAP11 0xB8 0xAF PUSH7 0x20C51CB0939565 0xD7 0x28 0xDA PUSH32 0xC7D8CC31B0DB3164736F6C634300060C00330000000000000000000000000000 "
            }
        }
    },
    "sourceTreeHashHex": "0x5bc8d4c9062917dddec565b3a56ad938deae6ede73d6bcac8b0285f5ba3fe80e",
    "compiler": {
        "name": "solc",
        "version": "0.6.12+commit.27d51765",
        "settings": {
            "remappings": [
                "@0x/contracts-utils=/Users/philipliao/Code/protocol/node_modules/@0x/contracts-utils",
                "@0x/contracts-erc20=/Users/philipliao/Code/protocol/node_modules/@0x/contracts-erc20",
                "@0x/contracts-zero-ex=/Users/philipliao/Code/protocol/node_modules/@0x/contracts-zero-ex"
            ],
            "optimizer": {
                "enabled": true,
                "runs": 62500,
                "details": {
                    "yul": true,
                    "deduplicate": true,
                    "cse": true,
                    "constantOptimizer": true
                }
            },
            "outputSelection": {
                "*": {
                    "*": [
                        "abi",
                        "devdoc",
                        "evm.bytecode.object",
                        "evm.bytecode.sourceMap",
                        "evm.deployedBytecode.object",
                        "evm.deployedBytecode.sourceMap"
                    ]
                }
            },
            "evmVersion": "istanbul"
        }
    },
    "chains": {}
}