{
    "schemaVersion": "2.0.0",
    "contractName": "UniswapV3Sampler",
    "compilerOutput": {
        "abi": [
            {
                "inputs": [
                    {
                        "internalType": "bytes4",
                        "name": "selector",
                        "type": "bytes4"
                    },
                    {
                        "internalType": "address",
                        "name": "sellToken",
                        "type": "address"
                    },
                    {
                        "internalType": "address",
                        "name": "buyToken",
                        "type": "address"
                    },
                    {
                        "internalType": "bytes",
                        "name": "bridgeData",
                        "type": "bytes"
                    },
                    {
                        "internalType": "uint256",
                        "name": "amountIn",
                        "type": "uint256"
                    }
                ],
                "name": "_callRevert",
                "outputs": [],
                "stateMutability": "nonpayable",
                "type": "function"
            },
            {
                "inputs": [
                    {
                        "internalType": "bytes4",
                        "name": "selector",
                        "type": "bytes4"
                    },
                    {
                        "internalType": "address",
                        "name": "sellToken",
                        "type": "address"
                    },
                    {
                        "internalType": "address",
                        "name": "buyToken",
                        "type": "address"
                    },
                    {
                        "internalType": "bytes",
                        "name": "bridgeData",
                        "type": "bytes"
                    },
                    {
                        "internalType": "uint256[]",
                        "name": "amountsIn",
                        "type": "uint256[]"
                    }
                ],
                "name": "_mintCallRevert",
                "outputs": [],
                "stateMutability": "nonpayable",
                "type": "function"
            },
            {
                "inputs": [
                    {
                        "internalType": "contract IUniswapV3Quoter",
                        "name": "quoter",
                        "type": "address"
                    },
                    {
                        "internalType": "address",
                        "name": "router",
                        "type": "address"
                    },
                    {
                        "internalType": "contract IERC20TokenV06[]",
                        "name": "path",
                        "type": "address[]"
                    },
                    {
                        "internalType": "uint256[]",
                        "name": "makerTokenAmounts",
                        "type": "uint256[]"
                    }
                ],
                "name": "sampleBuysFromUniswapV3",
                "outputs": [
                    {
                        "internalType": "bytes[]",
                        "name": "uniswapPaths",
                        "type": "bytes[]"
                    },
                    {
                        "internalType": "uint256[]",
                        "name": "gasUsed",
                        "type": "uint256[]"
                    },
                    {
                        "internalType": "uint256[]",
                        "name": "takerTokenAmounts",
                        "type": "uint256[]"
                    }
                ],
                "stateMutability": "nonpayable",
                "type": "function"
            },
            {
                "inputs": [
                    {
                        "internalType": "contract IUniswapV3Quoter",
                        "name": "quoter",
                        "type": "address"
                    },
                    {
                        "internalType": "address",
                        "name": "router",
                        "type": "address"
                    },
                    {
                        "internalType": "contract IERC20TokenV06[]",
                        "name": "path",
                        "type": "address[]"
                    },
                    {
                        "internalType": "uint256[]",
                        "name": "takerTokenAmounts",
                        "type": "uint256[]"
                    }
                ],
                "name": "sampleSellsFromUniswapV3",
                "outputs": [
                    {
                        "internalType": "bytes[]",
                        "name": "uniswapPaths",
                        "type": "bytes[]"
                    },
                    {
                        "internalType": "uint256[]",
                        "name": "gasUsed",
                        "type": "uint256[]"
                    },
                    {
                        "internalType": "uint256[]",
                        "name": "makerTokenAmounts",
                        "type": "uint256[]"
                    }
                ],
                "stateMutability": "nonpayable",
                "type": "function"
            },
            {
                "inputs": [
                    {
                        "internalType": "address",
                        "name": "sellToken",
                        "type": "address"
                    },
                    {
                        "internalType": "address",
                        "name": "buyToken",
                        "type": "address"
                    },
                    {
                        "internalType": "bytes",
                        "name": "bridgeData",
                        "type": "bytes"
                    },
                    {
                        "internalType": "uint256",
                        "name": "takerTokenAmount",
                        "type": "uint256"
                    }
                ],
                "name": "sampleSwapFromUniswapV3",
                "outputs": [
                    {
                        "internalType": "uint256",
                        "name": "",
                        "type": "uint256"
                    }
                ],
                "stateMutability": "nonpayable",
                "type": "function"
            }
        ],
        "devdoc": {
            "kind": "dev",
            "methods": {
                "_mintCallRevert(bytes4,address,address,bytes,uint256[])": {
                    "details": "Mints the sell token, then performs the swap, then reverts with the amount out. The SwapRevertSamplerQuoteOpts has been unrolled here as our ABI encoder cannot support encoding the function"
                },
                "sampleBuysFromUniswapV3(address,address,address[],uint256[])": {
                    "details": "Sample buy quotes from UniswapV3.",
                    "params": {
                        "makerTokenAmounts": "Maker token buy amount for each sample.",
                        "path": "Token route. Should be takerToken -> makerToken.",
                        "quoter": "UniswapV3 Quoter contract.",
                        "router": "UniswapV3 Router contract."
                    },
                    "returns": {
                        "gasUsed": "gas consumed in each sample sell",
                        "takerTokenAmounts": "Taker amounts sold at each maker token         amount.",
                        "uniswapPaths": "The encoded uniswap path for each sample."
                    }
                },
                "sampleSellsFromUniswapV3(address,address,address[],uint256[])": {
                    "details": "Sample sell quotes from UniswapV3.",
                    "params": {
                        "path": "Token route. Should be takerToken -> makerToken",
                        "quoter": "UniswapV3 Quoter contract.",
                        "router": "UniswapV3 Router contract.",
                        "takerTokenAmounts": "Taker token sell amount for each sample."
                    },
                    "returns": {
                        "gasUsed": "gas consumed in each sample sell",
                        "makerTokenAmounts": "Maker amounts bought at each taker token         amount.",
                        "uniswapPaths": "The encoded uniswap path for each sample."
                    }
                }
            },
            "version": 1
        },
        "evm": {
            "bytecode": {
                "linkReferences": {},
                "object": "0x608060405234801561001057600080fd5b50612b44806100206000396000f3fe60806040526004361061004e5760003560e01c80631f4ff03e1461005a57806359ab9a6c1461007c5780636a33bc7e146100b257806378fee41c146100e1578063fa5def9f1461010157610055565b3661005557005b600080fd5b34801561006657600080fd5b5061007a6100753660046122f1565b610121565b005b34801561008857600080fd5b5061009c61009736600461222a565b610590565b6040516100a99190612a43565b60405180910390f35b3480156100be57600080fd5b506100d26100cd36600461241f565b6105a6565b6040516100a99392919061271d565b3480156100ed57600080fd5b5061007a6100fc366004612389565b6108e4565b34801561010d57600080fd5b506100d261011c36600461241f565b610aa4565b8051849084906000908490600019810190811061013a57fe5b60200260200101519050826001600160a01b031663ab86e0a630836040518363ffffffff1660e01b8152600401610172929190612681565b600060405180830381600087803b15801561018c57600080fd5b505af192505050801561019d575060015b50866001600160a01b031663d0e30db0826040518263ffffffff1660e01b81526004016000604051808303818588803b1580156101d957600080fd5b505af1935050505080156101eb575060015b506040516355c3705360e11b81526001600160a01b0383169063ab86e0a69061021b903090600090600401612681565b600060405180830381600087803b15801561023557600080fd5b505af1925050508015610246575060015b506040516370a0823160e01b815281906001600160a01b038516906370a082319061027590309060040161266d565b602060405180830381600087803b15801561028f57600080fd5b505af11580156102a3573d6000803e3d6000fd5b505050506040513d601f19601f820116820180604052508101906102c791906125b0565b146102ed5760405162461bcd60e51b81526004016102e490612973565b60405180910390fd5b6040516370a0823160e01b81526001600160a01b038316906370a082319061031990309060040161266d565b602060405180830381600087803b15801561033357600080fd5b505af1158015610347573d6000803e3d6000fd5b505050506040513d601f19601f8201168201806040525081019061036b91906125b0565b156103885760405162461bcd60e51b81526004016102e49061293c565b6040516000904780156108fc029183818181858288f193505050501580156103b4573d6000803e3d6000fd5b50606084516001600160401b03811180156103ce57600080fd5b506040519080825280602002602001820160405280156103f8578160200160208202803683370190505b509050606085516001600160401b038111801561041457600080fd5b5060405190808252806020026020018201604052801561043e578160200160208202803683370190505b50905060005b865181101561057957306001600160a01b03166378fee41c621e84808d8d8d8d8d888151811061047057fe5b60200260200101516040518763ffffffff1660e01b815260040161049895949392919061281b565b600060405180830381600088803b1580156104b257600080fd5b5087f1935050505080156104c4575060015b610559573d8080156104f2576040519150601f19603f3d011682016040523d82523d6000602084013e6104f7565b606091505b5061050181610e07565b85848151811061050d57fe5b6020026020010185858151811061052057fe5b602002602001018281525082815250505083828151811061053d57fe5b6020026020010151600014156105535750610579565b50610571565b60405162461bcd60e51b81526004016102e4906129b6565b600101610444565b506105848282610e3c565b50505050505050505050565b600061059d858385610e6a565b95945050505050565b606080606080610628886001600160a01b031663c45a01556040518163ffffffff1660e01b815260040160206040518083038186803b1580156105e857600080fd5b505afa1580156105fc573d6000803e3d6000fd5b505050506040513d601f19601f820116820180604052508101906106209190612403565b876000610f48565b905084516001600160401b038111801561064157600080fd5b5060405190808252806020026020018201604052801561066b578160200160208202803683370190505b50915084516001600160401b038111801561068557600080fd5b506040519080825280602002602001820160405280156106af578160200160208202803683370190505b50925084516001600160401b03811180156106c957600080fd5b506040519080825280602002602001820160405280156106fd57816020015b60608152602001906001900390816106e85790505b50935060005b85518110156108d85760005b82518110156108ae5760606107378985848151811061072a57fe5b60200260200101516113df565b90506060806107fb60405180608001604052808d60008151811061075757fe5b60200260200101516001600160a01b031681526020018d60018f51038151811061077d57fe5b60200260200101516001600160a01b031681526020018e866040516020016107a69291906126f1565b6040516020818303038152906040528152602001306001600160a01b03166359ab9a6c63ffffffff169060201b1760401b8152506107f68c88815181106107e957fe5b6020026020010151611542565b611583565b915091508060008151811061080c57fe5b602002602001015187868151811061082057fe5b6020026020010151116108a0578060008151811061083a57fe5b602002602001015187868151811061084e57fe5b6020026020010181815250508160008151811061086757fe5b602002602001015188868151811061087b57fe5b6020026020010181815250508289868151811061089457fe5b60200260200101819052505b50505080600101905061070f565b508281815181106108bb57fe5b6020026020010151600014156108d0576108d8565b600101610703565b50509450945094915050565b61133761def160901b016001600160a01b031663d0afdca96040518163ffffffff1660e01b8152600401600060405180830381600087803b15801561092857600080fd5b505af1925050508015610939575060015b5060005a905060006060306001600160a01b0316888888888860405160240161096594939291906126b4565b60408051601f198184030181529181526020820180516001600160e01b03166001600160e01b03199094169390931790925290516109a39190612651565b6000604051808303816000865af19150503d80600081146109e0576040519150601f19603f3d011682016040523d82523d6000602084013e6109e5565b606091505b50915091505a8303925061133761def160901b016001600160a01b0316630c18c1626040518163ffffffff1660e01b815260040160206040518083038186803b158015610a3157600080fd5b505afa925050508015610a61575060408051601f3d908101601f19168201909252610a5e918101906125b0565b60015b610a6a57610a6f565b909203915b81610a7d57610a7d81611654565b610a9a81806020019051810190610a9491906125b0565b8461165c565b5050505050505050565b606080606080610ae6886001600160a01b031663c45a01556040518163ffffffff1660e01b815260040160206040518083038186803b1580156105e857600080fd5b90506060610af38761166d565b905085516001600160401b0381118015610b0c57600080fd5b50604051908082528060200260200182016040528015610b36578160200160208202803683370190505b50925085516001600160401b0381118015610b5057600080fd5b50604051908082528060200260200182016040528015610b7a578160200160208202803683370190505b50935085516001600160401b0381118015610b9457600080fd5b50604051908082528060200260200182016040528015610bc857816020015b6060815260200190600190039081610bb35790505b50945060005b8651811015610dfa5760005b8351811015610dd057606080610cf26040518060a001604052808d600081518110610c0157fe5b60200260200101516001600160a01b031681526020018d60018f510381518110610c2757fe5b60200260200101516001600160a01b031681526020018e610c4e8f8b898151811061072a57fe5b604051602001610c5f9291906126f1565b60405160208183030381529060405281526020018e610c9989610c948c8a81518110610c8757fe5b602002602001015161170b565b6113df565b604051602001610caa9291906126f1565b6040516020818303038152906040528152602001306001600160a01b03166359ab9a6c63ffffffff169060201b1760401b815250610ced8c87815181106107e957fe5b6117a3565b91509150868481518110610d0257fe5b602002602001015160001480610d3f575080600081518110610d2057fe5b6020026020010151878581518110610d3457fe5b602002602001015110155b15610dc65780600081518110610d5157fe5b6020026020010151878581518110610d6557fe5b60200260200101818152505081600081518110610d7e57fe5b6020026020010151888581518110610d9257fe5b602002602001018181525050610dae8b87858151811061072a57fe5b898581518110610dba57fe5b60200260200101819052505b5050600101610bda565b50838181518110610ddd57fe5b602002602001015160001415610df257610dfa565b600101610bce565b5050509450945094915050565b6000808251604014610e1e57506000905080610e37565b82806020019051810190610e3291906125c8565b915091505b915091565b60608282604051602001610e5192919061279c565b6040516020818303038152906040529050805160208201fd5b600080606083806020019051810190610e839190612505565b9092509050610e9c6001600160a01b0387168387611c10565b6040805160a08101825282815230602082015242818301526060810187905260016080820152905163c04b8d5960e01b81526001600160a01b0384169163c04b8d5991610eec91906004016129eb565b602060405180830381600087803b158015610f0657600080fd5b505af1158015610f1a573d6000803e3d6000fd5b505050506040513d601f19601f82011682018060405250810190610f3e91906125b0565b9695505050505050565b60606002828451031015610f6e5760405162461bcd60e51b81526004016102e4906128b3565b610f766120ca565b5060408051606080820183526101f48252610bb860208301526127108284015282516003808252608082019094529192909190816020016020820280368337019050509050600080868681518110610fca57fe5b602002602001015190506000878760010181518110610fe557fe5b6020026020010151905060005b60038110156110da5760008a6001600160a01b0316631698ee8285858a866003811061101a57fe5b60200201516040518463ffffffff1660e01b815260040161103d93929190612869565b60206040518083038186803b15801561105557600080fd5b505afa158015611069573d6000803e3d6000fd5b505050506040513d601f19601f8201168201806040525081019061108d9190612403565b905061109881611ca8565b156110d157808686806001019750815181106110b057fe5b60200260200101906001600160a01b031690816001600160a01b0316815250505b50600101610ff2565b505050806110ea575050506113d8565b85518560020114156111e057806001600160401b038111801561110c57600080fd5b5060405190808252806020026020018201604052801561114057816020015b606081526020019060019003908161112b5790505b50935060005b818110156111d75760408051600180825281830190925290602080830190803683370190505085828151811061117857fe5b602002602001018190525082818151811061118f57fe5b60200260200101518582815181106111a357fe5b60200260200101516000815181106111b757fe5b6001600160a01b0390921660209283029190910190910152600101611146565b505050506113d8565b60606111f0888888600101610f48565b905080516000141561120557505050506113d8565b805182026001600160401b038111801561121e57600080fd5b5060405190808252806020026020018201604052801561125257816020015b606081526020019060019003908161123d5790505b50945060005b828110156113d25760005b82518110156113c957825182810282019084908390811061128057fe5b6020026020010151516001016001600160401b03811180156112a157600080fd5b506040519080825280602002602001820160405280156112cb578160200160208202803683370190505b508882815181106112d857fe5b60200260200101819052508583815181106112ef57fe5b602002602001015188828151811061130357fe5b602002602001015160008151811061131757fe5b60200260200101906001600160a01b031690816001600160a01b03168152505060005b84838151811061134657fe5b6020026020010151518110156113bf5784838151811061136257fe5b6020026020010151818151811061137557fe5b602002602001015189838151811061138957fe5b6020026020010151826001018151811061139f57fe5b6001600160a01b039092166020928302919091019091015260010161133a565b5050600101611263565b50600101611258565b50505050505b9392505050565b606060028351101580156113f7575081516001018351145b6114135760405162461bcd60e51b81526004016102e4906128f7565b81516003028351601402016001600160401b038111801561143357600080fd5b506040519080825280601f01601f19166020018201604052801561145e576020820181803683370190505b5090506020810160005b845181101561153a57801561150d57600084600183038151811061148857fe5b60200260200101516001600160a01b031663ddca3f436040518163ffffffff1660e01b815260040160206040518083038186803b1580156114c857600080fd5b505afa1580156114dc573d6000803e3d6000fd5b505050506040513d601f19601f82011682018060405250810190611500919061258d565b60e81b8352506003909101905b600085828151811061151b57fe5b602090810291909101015160601b835250601490910190600101611468565b505092915050565b60408051600180825281830190925260609160208083019080368337019050509050818160008151811061157257fe5b602002602001018181525050919050565b606082810151835160208501516040808701519051630fa7f81f60e11b815285943094631f4ff03e946115cf9460a09390931b6001600160e01b03191693919290918a906004016127c1565b600060405180830381600087803b1580156115e957600080fd5b505af19250505080156115fa575060015b610559573d808015611628576040519150601f19603f3d011682016040523d82523d6000602084013e61162d565b606091505b50808060200190518101906116429190612291565b9350915061164d9050565b9250929050565b805160208201fd5b604051828152816020820152604081fd5b606081516001600160401b038111801561168657600080fd5b506040519080825280602002602001820160405280156116b0578160200160208202803683370190505b50905060005b8251811015611705578260018285510303815181106116d157fe5b60200260200101518282815181106116e557fe5b6001600160a01b03909216602092830291909101909101526001016116b6565b50919050565b606081516001600160401b038111801561172457600080fd5b5060405190808252806020026020018201604052801561174e578160200160208202803683370190505b50905060005b82518110156117055782600182855103038151811061176f57fe5b602002602001015182828151811061178357fe5b6001600160a01b0390921660209283029190910190910152600101611754565b60608082516001600160401b03811180156117bd57600080fd5b506040519080825280602002602001820160405280156117e7578160200160208202803683370190505b50905082516001600160401b038111801561180157600080fd5b5060405190808252806020026020018201604052801561182b578160200160208202803683370190505b50915082516000141561183d5761164d565b604080516001808252818301909252606091602080830190803683370190505090508360008151811061186c57fe5b60200260200101518160008151811061188157fe5b6020026020010181815250506118956120e8565b50604080516080808201835287516001600160a01b0390811683526020808a0151909116908301528783015182840152870151640100000000600160c01b0390831c90811663ffffffff9091161790911b60608201526118f36120e8565b604051806080016040528088602001516001600160a01b0316815260200188600001516001600160a01b031681526020018860600151815260200188608001518060601c9060401c63ffffffff1663ffffffff169060201b1760401b815250905061195e8184611583565b9050809350508260008151811061197157fe5b6020026020010151600014156119895750505061164d565b60606119958385611583565b905080915050806000815181106119a857fe5b6020026020010151600014156119c1575050505061164d565b60005b8751811015611c0457606060005b6005811015611b7d57611a218a84815181106119ea57fe5b6020026020010151856000815181106119ff57fe5b602002602001015189600081518110611a1457fe5b6020026020010151611eb5565b87600081518110611a2e57fe5b60200260200101818152505086600081518110611a4757fe5b602002602001015160001415611a5c57611b7d565b611a7560056127100161271089600081518110611a1457fe5b87600081518110611a8257fe5b60200260200101818152505086600081518110611a9b57fe5b602002602001015160001415611ab057611b7d565b6060611abc8789611583565b805191945091508190600090611ace57fe5b602002602001015160001415611ae45750611b7d565b8094508a8481518110611af357fe5b602002602001015185600081518110611b0857fe5b602002602001015110611b745760008b8581518110611b2357fe5b60200260200101516127108d8781518110611b3a57fe5b602002602001015188600081518110611b4f57fe5b6020026020010151030281611b6057fe5b04905060058111611b72575050611b7d565b505b506001016119d2565b5080600081518110611b8b57fe5b6020026020010151888381518110611b9f57fe5b602002602001018181525050611be4898381518110611bba57fe5b602002602001015184600081518110611bcf57fe5b602002602001015188600081518110611a1457fe5b878381518110611bf057fe5b6020908102919091010152506001016119c4565b50505050509250929050565b604051636eb1769f60e11b815281906001600160a01b0385169063dd62ed3e90611c40903090879060040161269a565b60206040518083038186803b158015611c5857600080fd5b505afa158015611c6c573d6000803e3d6000fd5b505050506040513d601f19601f82011682018060405250810190611c9091906125b0565b1015611ca357611ca38383600019611f0d565b505050565b6000813b80611cbb576000915050611eb0565b50816001600160a01b0316630dfe16816040518163ffffffff1660e01b815260040160206040518083038186803b158015611cf557600080fd5b505afa158015611d09573d6000803e3d6000fd5b505050506040513d601f19601f82011682018060405250810190611d2d9190612403565b6001600160a01b03166370a08231836040518263ffffffff1660e01b8152600401611d58919061266d565b60206040518083038186803b158015611d7057600080fd5b505afa158015611d84573d6000803e3d6000fd5b505050506040513d601f19601f82011682018060405250810190611da891906125b0565b611db457506000611eb0565b816001600160a01b031663d21220a76040518163ffffffff1660e01b815260040160206040518083038186803b158015611ded57600080fd5b505afa158015611e01573d6000803e3d6000fd5b505050506040513d601f19601f82011682018060405250810190611e259190612403565b6001600160a01b03166370a08231836040518263ffffffff1660e01b8152600401611e50919061266d565b60206040518083038186803b158015611e6857600080fd5b505afa158015611e7c573d6000803e3d6000fd5b505050506040513d601f19601f82011682018060405250810190611ea091906125b0565b611eac57506000611eb0565b5060015b919050565b6000831580611ec2575081155b80611ecb575082155b15611ed8575060006113d8565b83820282858281611ee557fe5b0414611ef55760009150506113d8565b8360018503820181611f0357fe5b0495945050505050565b606063095ea7b360e01b8383604051602401611f2a929190612681565b60408051601f198184030181529190526020810180516001600160e01b03166001600160e01b0319909316929092179091529050611f688482611f6e565b50505050565b60006060836001600160a01b031683604051611f8a9190612651565b6000604051808303816000865af19150503d8060008114611fc7576040519150601f19603f3d011682016040523d82523d6000602084013e611fcc565b606091505b5091509150818015611fe25750611fe281611ffb565b15611fee575050611ff7565b611f6881611654565b5050565b600081516000141561200f57506001611eb0565b6020825110611eb057600061202583600061203a565b90508060011415611705576001915050611eb0565b60006113d8838360008160200183511015612067576120676120626005855185602001612070565b611654565b50016020015190565b6060632800659560e01b84848460405160240161208f93929190612891565b60408051601f198184030181529190526020810180516001600160e01b03166001600160e01b03199093169290921790915290509392505050565b60405180606001604052806003906020820280368337509192915050565b6040805160808101825260008082526020820181905260609282018390529181019190915290565b600082601f830112612120578081fd5b813561213361212e82612a72565b612a4c565b81815291506020808301908481018184028601820187101561215457600080fd5b60005b8481101561217357813584529282019290820190600101612157565b505050505092915050565b600082601f83011261218e578081fd5b815161219c61212e82612a72565b8181529150602080830190848101818402860182018710156121bd57600080fd5b60005b84811015612173578151845292820192908201906001016121c0565b600082601f8301126121ec578081fd5b81356121fa61212e82612a91565b915080825283602082850101111561221157600080fd5b8060208401602084013760009082016020015292915050565b6000806000806080858703121561223f578384fd5b843561224a81612ae0565b9350602085013561225a81612ae0565b925060408501356001600160401b03811115612274578283fd5b612280878288016121dc565b949793965093946060013593505050565b600080604083850312156122a3578182fd5b82516001600160401b03808211156122b9578384fd5b6122c58683870161217e565b935060208501519150808211156122da578283fd5b506122e78582860161217e565b9150509250929050565b600080600080600060a08688031215612308578081fd5b853561231381612af8565b9450602086013561232381612ae0565b9350604086013561233381612ae0565b925060608601356001600160401b038082111561234e578283fd5b61235a89838a016121dc565b9350608088013591508082111561236f578283fd5b5061237c88828901612110565b9150509295509295909350565b600080600080600060a086880312156123a0578081fd5b85356123ab81612af8565b945060208601356123bb81612ae0565b935060408601356123cb81612ae0565b925060608601356001600160401b038111156123e5578182fd5b6123f1888289016121dc565b95989497509295608001359392505050565b600060208284031215612414578081fd5b81516113d881612ae0565b60008060008060808587031215612434578182fd5b843561243f81612ae0565b935060208581013561245081612ae0565b935060408601356001600160401b038082111561246b578485fd5b818801915088601f83011261247e578485fd5b813561248c61212e82612a72565b81815284810190848601868402860187018d10156124a8578889fd5b8895505b838610156124d35780356124bf81612ae0565b8352600195909501949186019186016124ac565b509650505060608801359250808311156124eb578384fd5b50506124f987828801612110565b91505092959194509250565b60008060408385031215612517578182fd5b825161252281612ae0565b60208401519092506001600160401b0381111561253d578182fd5b8301601f8101851361254d578182fd5b805161255b61212e82612a91565b81815286602083850101111561256f578384fd5b612580826020830160208601612ab4565b8093505050509250929050565b60006020828403121561259e578081fd5b815162ffffff811681146113d8578182fd5b6000602082840312156125c1578081fd5b5051919050565b600080604083850312156125da578182fd5b505080516020909101519092909150565b6000815180845260208085019450808401835b8381101561261a578151875295820195908201906001016125fe565b509495945050505050565b6000815180845261263d816020860160208601612ab4565b601f01601f19169290920160200192915050565b60008251612663818460208701612ab4565b9190910192915050565b6001600160a01b0391909116815260200190565b6001600160a01b03929092168252602082015260400190565b6001600160a01b0392831681529116602082015260400190565b6001600160a01b038581168252841660208201526080604082018190526000906126e090830185612625565b905082606083015295945050505050565b6001600160a01b038316815260406020820181905260009061271590830184612625565b949350505050565b60006060820160608352808651808352608085019150602092506080838202860101838901855b8381101561277257607f19888403018552612760838351612625565b94860194925090850190600101612744565b50508581038487015261278581896125eb565b93505050508281036040840152610f3e81856125eb565b6000604082526127af60408301856125eb565b828103602084015261059d81856125eb565b6001600160e01b0319861681526001600160a01b0385811660208301528416604082015260a0606082018190526000906127fd90830185612625565b828103608084015261280f81856125eb565b98975050505050505050565b6001600160e01b0319861681526001600160a01b0385811660208301528416604082015260a06060820181905260009061285790830185612625565b90508260808301529695505050505050565b6001600160a01b03938416815291909216602082015262ffffff909116604082015260600190565b606081016008851061289f57fe5b938152602081019290925260409091015290565b60208082526024908201527f556e6973776170563353616d706c65722f746f6b656e5061746820746f6f20736040820152631a1bdc9d60e21b606082015260800190565b60208082526025908201527f556e6973776170563353616d706c65722f696e76616c69642070617468206c656040820152646e6774687360d81b606082015260800190565b6020808252601d908201527f42616c616e6365206f6620627579546f6b656e206d7573742062652030000000604082015260600190565b60208082526023908201527f4661696c656420746f206d696e74206f72206465706f7369742073656c6c546f60408201526235b2b760e91b606082015260800190565b6020808252818101527f537761702053616d706c652073686f756c642068617665207265766572746564604082015260600190565b600060208252825160a06020840152612a0760c0840182612625565b905060018060a01b0360208501511660408401526040840151606084015260608401516080840152608084015160a08401528091505092915050565b90815260200190565b6040518181016001600160401b0381118282101715612a6a57600080fd5b604052919050565b60006001600160401b03821115612a87578081fd5b5060209081020190565b60006001600160401b03821115612aa6578081fd5b50601f01601f191660200190565b60005b83811015612acf578181015183820152602001612ab7565b83811115611f685750506000910152565b6001600160a01b0381168114612af557600080fd5b50565b6001600160e01b031981168114612af557600080fdfea26469706673582212204da4e890f99796f389ffa14b01cba840ad163516e6f92c83444d77cdff414f3e64736f6c634300060c0033",
                "opcodes": "PUSH1 0x80 PUSH1 0x40 MSTORE CALLVALUE DUP1 ISZERO PUSH2 0x10 JUMPI PUSH1 0x0 DUP1 REVERT JUMPDEST POP PUSH2 0x2B44 DUP1 PUSH2 0x20 PUSH1 0x0 CODECOPY PUSH1 0x0 RETURN INVALID PUSH1 0x80 PUSH1 0x40 MSTORE PUSH1 0x4 CALLDATASIZE LT PUSH2 0x4E JUMPI PUSH1 0x0 CALLDATALOAD PUSH1 0xE0 SHR DUP1 PUSH4 0x1F4FF03E EQ PUSH2 0x5A JUMPI DUP1 PUSH4 0x59AB9A6C EQ PUSH2 0x7C JUMPI DUP1 PUSH4 0x6A33BC7E EQ PUSH2 0xB2 JUMPI DUP1 PUSH4 0x78FEE41C EQ PUSH2 0xE1 JUMPI DUP1 PUSH4 0xFA5DEF9F EQ PUSH2 0x101 JUMPI PUSH2 0x55 JUMP JUMPDEST CALLDATASIZE PUSH2 0x55 JUMPI STOP JUMPDEST PUSH1 0x0 DUP1 REVERT JUMPDEST CALLVALUE DUP1 ISZERO PUSH2 0x66 JUMPI PUSH1 0x0 DUP1 REVERT JUMPDEST POP PUSH2 0x7A PUSH2 0x75 CALLDATASIZE PUSH1 0x4 PUSH2 0x22F1 JUMP JUMPDEST PUSH2 0x121 JUMP JUMPDEST STOP JUMPDEST CALLVALUE DUP1 ISZERO PUSH2 0x88 JUMPI PUSH1 0x0 DUP1 REVERT JUMPDEST POP PUSH2 0x9C PUSH2 0x97 CALLDATASIZE PUSH1 0x4 PUSH2 0x222A JUMP JUMPDEST PUSH2 0x590 JUMP JUMPDEST PUSH1 0x40 MLOAD PUSH2 0xA9 SWAP2 SWAP1 PUSH2 0x2A43 JUMP JUMPDEST PUSH1 0x40 MLOAD DUP1 SWAP2 SUB SWAP1 RETURN JUMPDEST CALLVALUE DUP1 ISZERO PUSH2 0xBE JUMPI PUSH1 0x0 DUP1 REVERT JUMPDEST POP PUSH2 0xD2 PUSH2 0xCD CALLDATASIZE PUSH1 0x4 PUSH2 0x241F JUMP JUMPDEST PUSH2 0x5A6 JUMP JUMPDEST PUSH1 0x40 MLOAD PUSH2 0xA9 SWAP4 SWAP3 SWAP2 SWAP1 PUSH2 0x271D JUMP JUMPDEST CALLVALUE DUP1 ISZERO PUSH2 0xED JUMPI PUSH1 0x0 DUP1 REVERT JUMPDEST POP PUSH2 0x7A PUSH2 0xFC CALLDATASIZE PUSH1 0x4 PUSH2 0x2389 JUMP JUMPDEST PUSH2 0x8E4 JUMP JUMPDEST CALLVALUE DUP1 ISZERO PUSH2 0x10D JUMPI PUSH1 0x0 DUP1 REVERT JUMPDEST POP PUSH2 0xD2 PUSH2 0x11C CALLDATASIZE PUSH1 0x4 PUSH2 0x241F JUMP JUMPDEST PUSH2 0xAA4 JUMP JUMPDEST DUP1 MLOAD DUP5 SWAP1 DUP5 SWAP1 PUSH1 0x0 SWAP1 DUP5 SWAP1 PUSH1 0x0 NOT DUP2 ADD SWAP1 DUP2 LT PUSH2 0x13A JUMPI INVALID JUMPDEST PUSH1 0x20 MUL PUSH1 0x20 ADD ADD MLOAD SWAP1 POP DUP3 PUSH1 0x1 PUSH1 0x1 PUSH1 0xA0 SHL SUB AND PUSH4 0xAB86E0A6 ADDRESS DUP4 PUSH1 0x40 MLOAD DUP4 PUSH4 0xFFFFFFFF AND PUSH1 0xE0 SHL DUP2 MSTORE PUSH1 0x4 ADD PUSH2 0x172 SWAP3 SWAP2 SWAP1 PUSH2 0x2681 JUMP JUMPDEST PUSH1 0x0 PUSH1 0x40 MLOAD DUP1 DUP4 SUB DUP2 PUSH1 0x0 DUP8 DUP1 EXTCODESIZE ISZERO DUP1 ISZERO PUSH2 0x18C JUMPI PUSH1 0x0 DUP1 REVERT JUMPDEST POP GAS CALL SWAP3 POP POP POP DUP1 ISZERO PUSH2 0x19D JUMPI POP PUSH1 0x1 JUMPDEST POP DUP7 PUSH1 0x1 PUSH1 0x1 PUSH1 0xA0 SHL SUB AND PUSH4 0xD0E30DB0 DUP3 PUSH1 0x40 MLOAD DUP3 PUSH4 0xFFFFFFFF AND PUSH1 0xE0 SHL DUP2 MSTORE PUSH1 0x4 ADD PUSH1 0x0 PUSH1 0x40 MLOAD DUP1 DUP4 SUB DUP2 DUP6 DUP9 DUP1 EXTCODESIZE ISZERO DUP1 ISZERO PUSH2 0x1D9 JUMPI PUSH1 0x0 DUP1 REVERT JUMPDEST POP GAS CALL SWAP4 POP POP POP POP DUP1 ISZERO PUSH2 0x1EB JUMPI POP PUSH1 0x1 JUMPDEST POP PUSH1 0x40 MLOAD PUSH4 0x55C37053 PUSH1 0xE1 SHL DUP2 MSTORE PUSH1 0x1 PUSH1 0x1 PUSH1 0xA0 SHL SUB DUP4 AND SWAP1 PUSH4 0xAB86E0A6 SWAP1 PUSH2 0x21B SWAP1 ADDRESS SWAP1 PUSH1 0x0 SWAP1 PUSH1 0x4 ADD PUSH2 0x2681 JUMP JUMPDEST PUSH1 0x0 PUSH1 0x40 MLOAD DUP1 DUP4 SUB DUP2 PUSH1 0x0 DUP8 DUP1 EXTCODESIZE ISZERO DUP1 ISZERO PUSH2 0x235 JUMPI PUSH1 0x0 DUP1 REVERT JUMPDEST POP GAS CALL SWAP3 POP POP POP DUP1 ISZERO PUSH2 0x246 JUMPI POP PUSH1 0x1 JUMPDEST POP PUSH1 0x40 MLOAD PUSH4 0x70A08231 PUSH1 0xE0 SHL DUP2 MSTORE DUP2 SWAP1 PUSH1 0x1 PUSH1 0x1 PUSH1 0xA0 SHL SUB DUP6 AND SWAP1 PUSH4 0x70A08231 SWAP1 PUSH2 0x275 SWAP1 ADDRESS SWAP1 PUSH1 0x4 ADD PUSH2 0x266D JUMP JUMPDEST PUSH1 0x20 PUSH1 0x40 MLOAD DUP1 DUP4 SUB DUP2 PUSH1 0x0 DUP8 DUP1 EXTCODESIZE ISZERO DUP1 ISZERO PUSH2 0x28F JUMPI PUSH1 0x0 DUP1 REVERT JUMPDEST POP GAS CALL ISZERO DUP1 ISZERO PUSH2 0x2A3 JUMPI RETURNDATASIZE PUSH1 0x0 DUP1 RETURNDATACOPY RETURNDATASIZE PUSH1 0x0 REVERT JUMPDEST POP POP POP POP PUSH1 0x40 MLOAD RETURNDATASIZE PUSH1 0x1F NOT PUSH1 0x1F DUP3 ADD AND DUP3 ADD DUP1 PUSH1 0x40 MSTORE POP DUP2 ADD SWAP1 PUSH2 0x2C7 SWAP2 SWAP1 PUSH2 0x25B0 JUMP JUMPDEST EQ PUSH2 0x2ED JUMPI PUSH1 0x40 MLOAD PUSH3 0x461BCD PUSH1 0xE5 SHL DUP2 MSTORE PUSH1 0x4 ADD PUSH2 0x2E4 SWAP1 PUSH2 0x2973 JUMP JUMPDEST PUSH1 0x40 MLOAD DUP1 SWAP2 SUB SWAP1 REVERT JUMPDEST PUSH1 0x40 MLOAD PUSH4 0x70A08231 PUSH1 0xE0 SHL DUP2 MSTORE PUSH1 0x1 PUSH1 0x1 PUSH1 0xA0 SHL SUB DUP4 AND SWAP1 PUSH4 0x70A08231 SWAP1 PUSH2 0x319 SWAP1 ADDRESS SWAP1 PUSH1 0x4 ADD PUSH2 0x266D JUMP JUMPDEST PUSH1 0x20 PUSH1 0x40 MLOAD DUP1 DUP4 SUB DUP2 PUSH1 0x0 DUP8 DUP1 EXTCODESIZE ISZERO DUP1 ISZERO PUSH2 0x333 JUMPI PUSH1 0x0 DUP1 REVERT JUMPDEST POP GAS CALL ISZERO DUP1 ISZERO PUSH2 0x347 JUMPI RETURNDATASIZE PUSH1 0x0 DUP1 RETURNDATACOPY RETURNDATASIZE PUSH1 0x0 REVERT JUMPDEST POP POP POP POP PUSH1 0x40 MLOAD RETURNDATASIZE PUSH1 0x1F NOT PUSH1 0x1F DUP3 ADD AND DUP3 ADD DUP1 PUSH1 0x40 MSTORE POP DUP2 ADD SWAP1 PUSH2 0x36B SWAP2 SWAP1 PUSH2 0x25B0 JUMP JUMPDEST ISZERO PUSH2 0x388 JUMPI PUSH1 0x40 MLOAD PUSH3 0x461BCD PUSH1 0xE5 SHL DUP2 MSTORE PUSH1 0x4 ADD PUSH2 0x2E4 SWAP1 PUSH2 0x293C JUMP JUMPDEST PUSH1 0x40 MLOAD PUSH1 0x0 SWAP1 SELFBALANCE DUP1 ISZERO PUSH2 0x8FC MUL SWAP2 DUP4 DUP2 DUP2 DUP2 DUP6 DUP3 DUP9 CALL SWAP4 POP POP POP POP ISZERO DUP1 ISZERO PUSH2 0x3B4 JUMPI RETURNDATASIZE PUSH1 0x0 DUP1 RETURNDATACOPY RETURNDATASIZE PUSH1 0x0 REVERT JUMPDEST POP PUSH1 0x60 DUP5 MLOAD PUSH1 0x1 PUSH1 0x1 PUSH1 0x40 SHL SUB DUP2 GT DUP1 ISZERO PUSH2 0x3CE JUMPI PUSH1 0x0 DUP1 REVERT JUMPDEST POP PUSH1 0x40 MLOAD SWAP1 DUP1 DUP3 MSTORE DUP1 PUSH1 0x20 MUL PUSH1 0x20 ADD DUP3 ADD PUSH1 0x40 MSTORE DUP1 ISZERO PUSH2 0x3F8 JUMPI DUP2 PUSH1 0x20 ADD PUSH1 0x20 DUP3 MUL DUP1 CALLDATASIZE DUP4 CALLDATACOPY ADD SWAP1 POP JUMPDEST POP SWAP1 POP PUSH1 0x60 DUP6 MLOAD PUSH1 0x1 PUSH1 0x1 PUSH1 0x40 SHL SUB DUP2 GT DUP1 ISZERO PUSH2 0x414 JUMPI PUSH1 0x0 DUP1 REVERT JUMPDEST POP PUSH1 0x40 MLOAD SWAP1 DUP1 DUP3 MSTORE DUP1 PUSH1 0x20 MUL PUSH1 0x20 ADD DUP3 ADD PUSH1 0x40 MSTORE DUP1 ISZERO PUSH2 0x43E JUMPI DUP2 PUSH1 0x20 ADD PUSH1 0x20 DUP3 MUL DUP1 CALLDATASIZE DUP4 CALLDATACOPY ADD SWAP1 POP JUMPDEST POP SWAP1 POP PUSH1 0x0 JUMPDEST DUP7 MLOAD DUP2 LT ISZERO PUSH2 0x579 JUMPI ADDRESS PUSH1 0x1 PUSH1 0x1 PUSH1 0xA0 SHL SUB AND PUSH4 0x78FEE41C PUSH3 0x1E8480 DUP14 DUP14 DUP14 DUP14 DUP14 DUP9 DUP2 MLOAD DUP2 LT PUSH2 0x470 JUMPI INVALID JUMPDEST PUSH1 0x20 MUL PUSH1 0x20 ADD ADD MLOAD PUSH1 0x40 MLOAD DUP8 PUSH4 0xFFFFFFFF AND PUSH1 0xE0 SHL DUP2 MSTORE PUSH1 0x4 ADD PUSH2 0x498 SWAP6 SWAP5 SWAP4 SWAP3 SWAP2 SWAP1 PUSH2 0x281B JUMP JUMPDEST PUSH1 0x0 PUSH1 0x40 MLOAD DUP1 DUP4 SUB DUP2 PUSH1 0x0 DUP9 DUP1 EXTCODESIZE ISZERO DUP1 ISZERO PUSH2 0x4B2 JUMPI PUSH1 0x0 DUP1 REVERT JUMPDEST POP DUP8 CALL SWAP4 POP POP POP POP DUP1 ISZERO PUSH2 0x4C4 JUMPI POP PUSH1 0x1 JUMPDEST PUSH2 0x559 JUMPI RETURNDATASIZE DUP1 DUP1 ISZERO PUSH2 0x4F2 JUMPI PUSH1 0x40 MLOAD SWAP2 POP PUSH1 0x1F NOT PUSH1 0x3F RETURNDATASIZE ADD AND DUP3 ADD PUSH1 0x40 MSTORE RETURNDATASIZE DUP3 MSTORE RETURNDATASIZE PUSH1 0x0 PUSH1 0x20 DUP5 ADD RETURNDATACOPY PUSH2 0x4F7 JUMP JUMPDEST PUSH1 0x60 SWAP2 POP JUMPDEST POP PUSH2 0x501 DUP2 PUSH2 0xE07 JUMP JUMPDEST DUP6 DUP5 DUP2 MLOAD DUP2 LT PUSH2 0x50D JUMPI INVALID JUMPDEST PUSH1 0x20 MUL PUSH1 0x20 ADD ADD DUP6 DUP6 DUP2 MLOAD DUP2 LT PUSH2 0x520 JUMPI INVALID JUMPDEST PUSH1 0x20 MUL PUSH1 0x20 ADD ADD DUP3 DUP2 MSTORE POP DUP3 DUP2 MSTORE POP POP POP DUP4 DUP3 DUP2 MLOAD DUP2 LT PUSH2 0x53D JUMPI INVALID JUMPDEST PUSH1 0x20 MUL PUSH1 0x20 ADD ADD MLOAD PUSH1 0x0 EQ ISZERO PUSH2 0x553 JUMPI POP PUSH2 0x579 JUMP JUMPDEST POP PUSH2 0x571 JUMP JUMPDEST PUSH1 0x40 MLOAD PUSH3 0x461BCD PUSH1 0xE5 SHL DUP2 MSTORE PUSH1 0x4 ADD PUSH2 0x2E4 SWAP1 PUSH2 0x29B6 JUMP JUMPDEST PUSH1 0x1 ADD PUSH2 0x444 JUMP JUMPDEST POP PUSH2 0x584 DUP3 DUP3 PUSH2 0xE3C JUMP JUMPDEST POP POP POP POP POP POP POP POP POP POP JUMP JUMPDEST PUSH1 0x0 PUSH2 0x59D DUP6 DUP4 DUP6 PUSH2 0xE6A JUMP JUMPDEST SWAP6 SWAP5 POP POP POP POP POP JUMP JUMPDEST PUSH1 0x60 DUP1 PUSH1 0x60 DUP1 PUSH2 0x628 DUP9 PUSH1 0x1 PUSH1 0x1 PUSH1 0xA0 SHL SUB AND PUSH4 0xC45A0155 PUSH1 0x40 MLOAD DUP2 PUSH4 0xFFFFFFFF AND PUSH1 0xE0 SHL DUP2 MSTORE PUSH1 0x4 ADD PUSH1 0x20 PUSH1 0x40 MLOAD DUP1 DUP4 SUB DUP2 DUP7 DUP1 EXTCODESIZE ISZERO DUP1 ISZERO PUSH2 0x5E8 JUMPI PUSH1 0x0 DUP1 REVERT JUMPDEST POP GAS STATICCALL ISZERO DUP1 ISZERO PUSH2 0x5FC JUMPI RETURNDATASIZE PUSH1 0x0 DUP1 RETURNDATACOPY RETURNDATASIZE PUSH1 0x0 REVERT JUMPDEST POP POP POP POP PUSH1 0x40 MLOAD RETURNDATASIZE PUSH1 0x1F NOT PUSH1 0x1F DUP3 ADD AND DUP3 ADD DUP1 PUSH1 0x40 MSTORE POP DUP2 ADD SWAP1 PUSH2 0x620 SWAP2 SWAP1 PUSH2 0x2403 JUMP JUMPDEST DUP8 PUSH1 0x0 PUSH2 0xF48 JUMP JUMPDEST SWAP1 POP DUP5 MLOAD PUSH1 0x1 PUSH1 0x1 PUSH1 0x40 SHL SUB DUP2 GT DUP1 ISZERO PUSH2 0x641 JUMPI PUSH1 0x0 DUP1 REVERT JUMPDEST POP PUSH1 0x40 MLOAD SWAP1 DUP1 DUP3 MSTORE DUP1 PUSH1 0x20 MUL PUSH1 0x20 ADD DUP3 ADD PUSH1 0x40 MSTORE DUP1 ISZERO PUSH2 0x66B JUMPI DUP2 PUSH1 0x20 ADD PUSH1 0x20 DUP3 MUL DUP1 CALLDATASIZE DUP4 CALLDATACOPY ADD SWAP1 POP JUMPDEST POP SWAP2 POP DUP5 MLOAD PUSH1 0x1 PUSH1 0x1 PUSH1 0x40 SHL SUB DUP2 GT DUP1 ISZERO PUSH2 0x685 JUMPI PUSH1 0x0 DUP1 REVERT JUMPDEST POP PUSH1 0x40 MLOAD SWAP1 DUP1 DUP3 MSTORE DUP1 PUSH1 0x20 MUL PUSH1 0x20 ADD DUP3 ADD PUSH1 0x40 MSTORE DUP1 ISZERO PUSH2 0x6AF JUMPI DUP2 PUSH1 0x20 ADD PUSH1 0x20 DUP3 MUL DUP1 CALLDATASIZE DUP4 CALLDATACOPY ADD SWAP1 POP JUMPDEST POP SWAP3 POP DUP5 MLOAD PUSH1 0x1 PUSH1 0x1 PUSH1 0x40 SHL SUB DUP2 GT DUP1 ISZERO PUSH2 0x6C9 JUMPI PUSH1 0x0 DUP1 REVERT JUMPDEST POP PUSH1 0x40 MLOAD SWAP1 DUP1 DUP3 MSTORE DUP1 PUSH1 0x20 MUL PUSH1 0x20 ADD DUP3 ADD PUSH1 0x40 MSTORE DUP1 ISZERO PUSH2 0x6FD JUMPI DUP2 PUSH1 0x20 ADD JUMPDEST PUSH1 0x60 DUP2 MSTORE PUSH1 0x20 ADD SWAP1 PUSH1 0x1 SWAP1 SUB SWAP1 DUP2 PUSH2 0x6E8 JUMPI SWAP1 POP JUMPDEST POP SWAP4 POP PUSH1 0x0 JUMPDEST DUP6 MLOAD DUP2 LT ISZERO PUSH2 0x8D8 JUMPI PUSH1 0x0 JUMPDEST DUP3 MLOAD DUP2 LT ISZERO PUSH2 0x8AE JUMPI PUSH1 0x60 PUSH2 0x737 DUP10 DUP6 DUP5 DUP2 MLOAD DUP2 LT PUSH2 0x72A JUMPI INVALID JUMPDEST PUSH1 0x20 MUL PUSH1 0x20 ADD ADD MLOAD PUSH2 0x13DF JUMP JUMPDEST SWAP1 POP PUSH1 0x60 DUP1 PUSH2 0x7FB PUSH1 0x40 MLOAD DUP1 PUSH1 0x80 ADD PUSH1 0x40 MSTORE DUP1 DUP14 PUSH1 0x0 DUP2 MLOAD DUP2 LT PUSH2 0x757 JUMPI INVALID JUMPDEST PUSH1 0x20 MUL PUSH1 0x20 ADD ADD MLOAD PUSH1 0x1 PUSH1 0x1 PUSH1 0xA0 SHL SUB AND DUP2 MSTORE PUSH1 0x20 ADD DUP14 PUSH1 0x1 DUP16 MLOAD SUB DUP2 MLOAD DUP2 LT PUSH2 0x77D JUMPI INVALID JUMPDEST PUSH1 0x20 MUL PUSH1 0x20 ADD ADD MLOAD PUSH1 0x1 PUSH1 0x1 PUSH1 0xA0 SHL SUB AND DUP2 MSTORE PUSH1 0x20 ADD DUP15 DUP7 PUSH1 0x40 MLOAD PUSH1 0x20 ADD PUSH2 0x7A6 SWAP3 SWAP2 SWAP1 PUSH2 0x26F1 JUMP JUMPDEST PUSH1 0x40 MLOAD PUSH1 0x20 DUP2 DUP4 SUB SUB DUP2 MSTORE SWAP1 PUSH1 0x40 MSTORE DUP2 MSTORE PUSH1 0x20 ADD ADDRESS PUSH1 0x1 PUSH1 0x1 PUSH1 0xA0 SHL SUB AND PUSH4 0x59AB9A6C PUSH4 0xFFFFFFFF AND SWAP1 PUSH1 0x20 SHL OR PUSH1 0x40 SHL DUP2 MSTORE POP PUSH2 0x7F6 DUP13 DUP9 DUP2 MLOAD DUP2 LT PUSH2 0x7E9 JUMPI INVALID JUMPDEST PUSH1 0x20 MUL PUSH1 0x20 ADD ADD MLOAD PUSH2 0x1542 JUMP JUMPDEST PUSH2 0x1583 JUMP JUMPDEST SWAP2 POP SWAP2 POP DUP1 PUSH1 0x0 DUP2 MLOAD DUP2 LT PUSH2 0x80C JUMPI INVALID JUMPDEST PUSH1 0x20 MUL PUSH1 0x20 ADD ADD MLOAD DUP8 DUP7 DUP2 MLOAD DUP2 LT PUSH2 0x820 JUMPI INVALID JUMPDEST PUSH1 0x20 MUL PUSH1 0x20 ADD ADD MLOAD GT PUSH2 0x8A0 JUMPI DUP1 PUSH1 0x0 DUP2 MLOAD DUP2 LT PUSH2 0x83A JUMPI INVALID JUMPDEST PUSH1 0x20 MUL PUSH1 0x20 ADD ADD MLOAD DUP8 DUP7 DUP2 MLOAD DUP2 LT PUSH2 0x84E JUMPI INVALID JUMPDEST PUSH1 0x20 MUL PUSH1 0x20 ADD ADD DUP2 DUP2 MSTORE POP POP DUP2 PUSH1 0x0 DUP2 MLOAD DUP2 LT PUSH2 0x867 JUMPI INVALID JUMPDEST PUSH1 0x20 MUL PUSH1 0x20 ADD ADD MLOAD DUP9 DUP7 DUP2 MLOAD DUP2 LT PUSH2 0x87B JUMPI INVALID JUMPDEST PUSH1 0x20 MUL PUSH1 0x20 ADD ADD DUP2 DUP2 MSTORE POP POP DUP3 DUP10 DUP7 DUP2 MLOAD DUP2 LT PUSH2 0x894 JUMPI INVALID JUMPDEST PUSH1 0x20 MUL PUSH1 0x20 ADD ADD DUP2 SWAP1 MSTORE POP JUMPDEST POP POP POP DUP1 PUSH1 0x1 ADD SWAP1 POP PUSH2 0x70F JUMP JUMPDEST POP DUP3 DUP2 DUP2 MLOAD DUP2 LT PUSH2 0x8BB JUMPI INVALID JUMPDEST PUSH1 0x20 MUL PUSH1 0x20 ADD ADD MLOAD PUSH1 0x0 EQ ISZERO PUSH2 0x8D0 JUMPI PUSH2 0x8D8 JUMP JUMPDEST PUSH1 0x1 ADD PUSH2 0x703 JUMP JUMPDEST POP POP SWAP5 POP SWAP5 POP SWAP5 SWAP2 POP POP JUMP JUMPDEST PUSH2 0x1337 PUSH2 0xDEF1 PUSH1 0x90 SHL ADD PUSH1 0x1 PUSH1 0x1 PUSH1 0xA0 SHL SUB AND PUSH4 0xD0AFDCA9 PUSH1 0x40 MLOAD DUP2 PUSH4 0xFFFFFFFF AND PUSH1 0xE0 SHL DUP2 MSTORE PUSH1 0x4 ADD PUSH1 0x0 PUSH1 0x40 MLOAD DUP1 DUP4 SUB DUP2 PUSH1 0x0 DUP8 DUP1 EXTCODESIZE ISZERO DUP1 ISZERO PUSH2 0x928 JUMPI PUSH1 0x0 DUP1 REVERT JUMPDEST POP GAS CALL SWAP3 POP POP POP DUP1 ISZERO PUSH2 0x939 JUMPI POP PUSH1 0x1 JUMPDEST POP PUSH1 0x0 GAS SWAP1 POP PUSH1 0x0 PUSH1 0x60 ADDRESS PUSH1 0x1 PUSH1 0x1 PUSH1 0xA0 SHL SUB AND DUP9 DUP9 DUP9 DUP9 DUP9 PUSH1 0x40 MLOAD PUSH1 0x24 ADD PUSH2 0x965 SWAP5 SWAP4 SWAP3 SWAP2 SWAP1 PUSH2 0x26B4 JUMP JUMPDEST PUSH1 0x40 DUP1 MLOAD PUSH1 0x1F NOT DUP2 DUP5 SUB ADD DUP2 MSTORE SWAP2 DUP2 MSTORE PUSH1 0x20 DUP3 ADD DUP1 MLOAD PUSH1 0x1 PUSH1 0x1 PUSH1 0xE0 SHL SUB AND PUSH1 0x1 PUSH1 0x1 PUSH1 0xE0 SHL SUB NOT SWAP1 SWAP5 AND SWAP4 SWAP1 SWAP4 OR SWAP1 SWAP3 MSTORE SWAP1 MLOAD PUSH2 0x9A3 SWAP2 SWAP1 PUSH2 0x2651 JUMP JUMPDEST PUSH1 0x0 PUSH1 0x40 MLOAD DUP1 DUP4 SUB DUP2 PUSH1 0x0 DUP7 GAS CALL SWAP2 POP POP RETURNDATASIZE DUP1 PUSH1 0x0 DUP2 EQ PUSH2 0x9E0 JUMPI PUSH1 0x40 MLOAD SWAP2 POP PUSH1 0x1F NOT PUSH1 0x3F RETURNDATASIZE ADD AND DUP3 ADD PUSH1 0x40 MSTORE RETURNDATASIZE DUP3 MSTORE RETURNDATASIZE PUSH1 0x0 PUSH1 0x20 DUP5 ADD RETURNDATACOPY PUSH2 0x9E5 JUMP JUMPDEST PUSH1 0x60 SWAP2 POP JUMPDEST POP SWAP2 POP SWAP2 POP GAS DUP4 SUB SWAP3 POP PUSH2 0x1337 PUSH2 0xDEF1 PUSH1 0x90 SHL ADD PUSH1 0x1 PUSH1 0x1 PUSH1 0xA0 SHL SUB AND PUSH4 0xC18C162 PUSH1 0x40 MLOAD DUP2 PUSH4 0xFFFFFFFF AND PUSH1 0xE0 SHL DUP2 MSTORE PUSH1 0x4 ADD PUSH1 0x20 PUSH1 0x40 MLOAD DUP1 DUP4 SUB DUP2 DUP7 DUP1 EXTCODESIZE ISZERO DUP1 ISZERO PUSH2 0xA31 JUMPI PUSH1 0x0 DUP1 REVERT JUMPDEST POP GAS STATICCALL SWAP3 POP POP POP DUP1 ISZERO PUSH2 0xA61 JUMPI POP PUSH1 0x40 DUP1 MLOAD PUSH1 0x1F RETURNDATASIZE SWAP1 DUP2 ADD PUSH1 0x1F NOT AND DUP3 ADD SWAP1 SWAP3 MSTORE PUSH2 0xA5E SWAP2 DUP2 ADD SWAP1 PUSH2 0x25B0 JUMP JUMPDEST PUSH1 0x1 JUMPDEST PUSH2 0xA6A JUMPI PUSH2 0xA6F JUMP JUMPDEST SWAP1 SWAP3 SUB SWAP2 JUMPDEST DUP2 PUSH2 0xA7D JUMPI PUSH2 0xA7D DUP2 PUSH2 0x1654 JUMP JUMPDEST PUSH2 0xA9A DUP2 DUP1 PUSH1 0x20 ADD SWAP1 MLOAD DUP2 ADD SWAP1 PUSH2 0xA94 SWAP2 SWAP1 PUSH2 0x25B0 JUMP JUMPDEST DUP5 PUSH2 0x165C JUMP JUMPDEST POP POP POP POP POP POP POP POP JUMP JUMPDEST PUSH1 0x60 DUP1 PUSH1 0x60 DUP1 PUSH2 0xAE6 DUP9 PUSH1 0x1 PUSH1 0x1 PUSH1 0xA0 SHL SUB AND PUSH4 0xC45A0155 PUSH1 0x40 MLOAD DUP2 PUSH4 0xFFFFFFFF AND PUSH1 0xE0 SHL DUP2 MSTORE PUSH1 0x4 ADD PUSH1 0x20 PUSH1 0x40 MLOAD DUP1 DUP4 SUB DUP2 DUP7 DUP1 EXTCODESIZE ISZERO DUP1 ISZERO PUSH2 0x5E8 JUMPI PUSH1 0x0 DUP1 REVERT JUMPDEST SWAP1 POP PUSH1 0x60 PUSH2 0xAF3 DUP8 PUSH2 0x166D JUMP JUMPDEST SWAP1 POP DUP6 MLOAD PUSH1 0x1 PUSH1 0x1 PUSH1 0x40 SHL SUB DUP2 GT DUP1 ISZERO PUSH2 0xB0C JUMPI PUSH1 0x0 DUP1 REVERT JUMPDEST POP PUSH1 0x40 MLOAD SWAP1 DUP1 DUP3 MSTORE DUP1 PUSH1 0x20 MUL PUSH1 0x20 ADD DUP3 ADD PUSH1 0x40 MSTORE DUP1 ISZERO PUSH2 0xB36 JUMPI DUP2 PUSH1 0x20 ADD PUSH1 0x20 DUP3 MUL DUP1 CALLDATASIZE DUP4 CALLDATACOPY ADD SWAP1 POP JUMPDEST POP SWAP3 POP DUP6 MLOAD PUSH1 0x1 PUSH1 0x1 PUSH1 0x40 SHL SUB DUP2 GT DUP1 ISZERO PUSH2 0xB50 JUMPI PUSH1 0x0 DUP1 REVERT JUMPDEST POP PUSH1 0x40 MLOAD SWAP1 DUP1 DUP3 MSTORE DUP1 PUSH1 0x20 MUL PUSH1 0x20 ADD DUP3 ADD PUSH1 0x40 MSTORE DUP1 ISZERO PUSH2 0xB7A JUMPI DUP2 PUSH1 0x20 ADD PUSH1 0x20 DUP3 MUL DUP1 CALLDATASIZE DUP4 CALLDATACOPY ADD SWAP1 POP JUMPDEST POP SWAP4 POP DUP6 MLOAD PUSH1 0x1 PUSH1 0x1 PUSH1 0x40 SHL SUB DUP2 GT DUP1 ISZERO PUSH2 0xB94 JUMPI PUSH1 0x0 DUP1 REVERT JUMPDEST POP PUSH1 0x40 MLOAD SWAP1 DUP1 DUP3 MSTORE DUP1 PUSH1 0x20 MUL PUSH1 0x20 ADD DUP3 ADD PUSH1 0x40 MSTORE DUP1 ISZERO PUSH2 0xBC8 JUMPI DUP2 PUSH1 0x20 ADD JUMPDEST PUSH1 0x60 DUP2 MSTORE PUSH1 0x20 ADD SWAP1 PUSH1 0x1 SWAP1 SUB SWAP1 DUP2 PUSH2 0xBB3 JUMPI SWAP1 POP JUMPDEST POP SWAP5 POP PUSH1 0x0 JUMPDEST DUP7 MLOAD DUP2 LT ISZERO PUSH2 0xDFA JUMPI PUSH1 0x0 JUMPDEST DUP4 MLOAD DUP2 LT ISZERO PUSH2 0xDD0 JUMPI PUSH1 0x60 DUP1 PUSH2 0xCF2 PUSH1 0x40 MLOAD DUP1 PUSH1 0xA0 ADD PUSH1 0x40 MSTORE DUP1 DUP14 PUSH1 0x0 DUP2 MLOAD DUP2 LT PUSH2 0xC01 JUMPI INVALID JUMPDEST PUSH1 0x20 MUL PUSH1 0x20 ADD ADD MLOAD PUSH1 0x1 PUSH1 0x1 PUSH1 0xA0 SHL SUB AND DUP2 MSTORE PUSH1 0x20 ADD DUP14 PUSH1 0x1 DUP16 MLOAD SUB DUP2 MLOAD DUP2 LT PUSH2 0xC27 JUMPI INVALID JUMPDEST PUSH1 0x20 MUL PUSH1 0x20 ADD ADD MLOAD PUSH1 0x1 PUSH1 0x1 PUSH1 0xA0 SHL SUB AND DUP2 MSTORE PUSH1 0x20 ADD DUP15 PUSH2 0xC4E DUP16 DUP12 DUP10 DUP2 MLOAD DUP2 LT PUSH2 0x72A JUMPI INVALID JUMPDEST PUSH1 0x40 MLOAD PUSH1 0x20 ADD PUSH2 0xC5F SWAP3 SWAP2 SWAP1 PUSH2 0x26F1 JUMP JUMPDEST PUSH1 0x40 MLOAD PUSH1 0x20 DUP2 DUP4 SUB SUB DUP2 MSTORE SWAP1 PUSH1 0x40 MSTORE DUP2 MSTORE PUSH1 0x20 ADD DUP15 PUSH2 0xC99 DUP10 PUSH2 0xC94 DUP13 DUP11 DUP2 MLOAD DUP2 LT PUSH2 0xC87 JUMPI INVALID JUMPDEST PUSH1 0x20 MUL PUSH1 0x20 ADD ADD MLOAD PUSH2 0x170B JUMP JUMPDEST PUSH2 0x13DF JUMP JUMPDEST PUSH1 0x40 MLOAD PUSH1 0x20 ADD PUSH2 0xCAA SWAP3 SWAP2 SWAP1 PUSH2 0x26F1 JUMP JUMPDEST PUSH1 0x40 MLOAD PUSH1 0x20 DUP2 DUP4 SUB SUB DUP2 MSTORE SWAP1 PUSH1 0x40 MSTORE DUP2 MSTORE PUSH1 0x20 ADD ADDRESS PUSH1 0x1 PUSH1 0x1 PUSH1 0xA0 SHL SUB AND PUSH4 0x59AB9A6C PUSH4 0xFFFFFFFF AND SWAP1 PUSH1 0x20 SHL OR PUSH1 0x40 SHL DUP2 MSTORE POP PUSH2 0xCED DUP13 DUP8 DUP2 MLOAD DUP2 LT PUSH2 0x7E9 JUMPI INVALID JUMPDEST PUSH2 0x17A3 JUMP JUMPDEST SWAP2 POP SWAP2 POP DUP7 DUP5 DUP2 MLOAD DUP2 LT PUSH2 0xD02 JUMPI INVALID JUMPDEST PUSH1 0x20 MUL PUSH1 0x20 ADD ADD MLOAD PUSH1 0x0 EQ DUP1 PUSH2 0xD3F JUMPI POP DUP1 PUSH1 0x0 DUP2 MLOAD DUP2 LT PUSH2 0xD20 JUMPI INVALID JUMPDEST PUSH1 0x20 MUL PUSH1 0x20 ADD ADD MLOAD DUP8 DUP6 DUP2 MLOAD DUP2 LT PUSH2 0xD34 JUMPI INVALID JUMPDEST PUSH1 0x20 MUL PUSH1 0x20 ADD ADD MLOAD LT ISZERO JUMPDEST ISZERO PUSH2 0xDC6 JUMPI DUP1 PUSH1 0x0 DUP2 MLOAD DUP2 LT PUSH2 0xD51 JUMPI INVALID JUMPDEST PUSH1 0x20 MUL PUSH1 0x20 ADD ADD MLOAD DUP8 DUP6 DUP2 MLOAD DUP2 LT PUSH2 0xD65 JUMPI INVALID JUMPDEST PUSH1 0x20 MUL PUSH1 0x20 ADD ADD DUP2 DUP2 MSTORE POP POP DUP2 PUSH1 0x0 DUP2 MLOAD DUP2 LT PUSH2 0xD7E JUMPI INVALID JUMPDEST PUSH1 0x20 MUL PUSH1 0x20 ADD ADD MLOAD DUP9 DUP6 DUP2 MLOAD DUP2 LT PUSH2 0xD92 JUMPI INVALID JUMPDEST PUSH1 0x20 MUL PUSH1 0x20 ADD ADD DUP2 DUP2 MSTORE POP POP PUSH2 0xDAE DUP12 DUP8 DUP6 DUP2 MLOAD DUP2 LT PUSH2 0x72A JUMPI INVALID JUMPDEST DUP10 DUP6 DUP2 MLOAD DUP2 LT PUSH2 0xDBA JUMPI INVALID JUMPDEST PUSH1 0x20 MUL PUSH1 0x20 ADD ADD DUP2 SWAP1 MSTORE POP JUMPDEST POP POP PUSH1 0x1 ADD PUSH2 0xBDA JUMP JUMPDEST POP DUP4 DUP2 DUP2 MLOAD DUP2 LT PUSH2 0xDDD JUMPI INVALID JUMPDEST PUSH1 0x20 MUL PUSH1 0x20 ADD ADD MLOAD PUSH1 0x0 EQ ISZERO PUSH2 0xDF2 JUMPI PUSH2 0xDFA JUMP JUMPDEST PUSH1 0x1 ADD PUSH2 0xBCE JUMP JUMPDEST POP POP POP SWAP5 POP SWAP5 POP SWAP5 SWAP2 POP POP JUMP JUMPDEST PUSH1 0x0 DUP1 DUP3 MLOAD PUSH1 0x40 EQ PUSH2 0xE1E JUMPI POP PUSH1 0x0 SWAP1 POP DUP1 PUSH2 0xE37 JUMP JUMPDEST DUP3 DUP1 PUSH1 0x20 ADD SWAP1 MLOAD DUP2 ADD SWAP1 PUSH2 0xE32 SWAP2 SWAP1 PUSH2 0x25C8 JUMP JUMPDEST SWAP2 POP SWAP2 POP JUMPDEST SWAP2 POP SWAP2 JUMP JUMPDEST PUSH1 0x60 DUP3 DUP3 PUSH1 0x40 MLOAD PUSH1 0x20 ADD PUSH2 0xE51 SWAP3 SWAP2 SWAP1 PUSH2 0x279C JUMP JUMPDEST PUSH1 0x40 MLOAD PUSH1 0x20 DUP2 DUP4 SUB SUB DUP2 MSTORE SWAP1 PUSH1 0x40 MSTORE SWAP1 POP DUP1 MLOAD PUSH1 0x20 DUP3 ADD REVERT JUMPDEST PUSH1 0x0 DUP1 PUSH1 0x60 DUP4 DUP1 PUSH1 0x20 ADD SWAP1 MLOAD DUP2 ADD SWAP1 PUSH2 0xE83 SWAP2 SWAP1 PUSH2 0x2505 JUMP JUMPDEST SWAP1 SWAP3 POP SWAP1 POP PUSH2 0xE9C PUSH1 0x1 PUSH1 0x1 PUSH1 0xA0 SHL SUB DUP8 AND DUP4 DUP8 PUSH2 0x1C10 JUMP JUMPDEST PUSH1 0x40 DUP1 MLOAD PUSH1 0xA0 DUP2 ADD DUP3 MSTORE DUP3 DUP2 MSTORE ADDRESS PUSH1 0x20 DUP3 ADD MSTORE TIMESTAMP DUP2 DUP4 ADD MSTORE PUSH1 0x60 DUP2 ADD DUP8 SWAP1 MSTORE PUSH1 0x1 PUSH1 0x80 DUP3 ADD MSTORE SWAP1 MLOAD PUSH4 0xC04B8D59 PUSH1 0xE0 SHL DUP2 MSTORE PUSH1 0x1 PUSH1 0x1 PUSH1 0xA0 SHL SUB DUP5 AND SWAP2 PUSH4 0xC04B8D59 SWAP2 PUSH2 0xEEC SWAP2 SWAP1 PUSH1 0x4 ADD PUSH2 0x29EB JUMP JUMPDEST PUSH1 0x20 PUSH1 0x40 MLOAD DUP1 DUP4 SUB DUP2 PUSH1 0x0 DUP8 DUP1 EXTCODESIZE ISZERO DUP1 ISZERO PUSH2 0xF06 JUMPI PUSH1 0x0 DUP1 REVERT JUMPDEST POP GAS CALL ISZERO DUP1 ISZERO PUSH2 0xF1A JUMPI RETURNDATASIZE PUSH1 0x0 DUP1 RETURNDATACOPY RETURNDATASIZE PUSH1 0x0 REVERT JUMPDEST POP POP POP POP PUSH1 0x40 MLOAD RETURNDATASIZE PUSH1 0x1F NOT PUSH1 0x1F DUP3 ADD AND DUP3 ADD DUP1 PUSH1 0x40 MSTORE POP DUP2 ADD SWAP1 PUSH2 0xF3E SWAP2 SWAP1 PUSH2 0x25B0 JUMP JUMPDEST SWAP7 SWAP6 POP POP POP POP POP POP JUMP JUMPDEST PUSH1 0x60 PUSH1 0x2 DUP3 DUP5 MLOAD SUB LT ISZERO PUSH2 0xF6E JUMPI PUSH1 0x40 MLOAD PUSH3 0x461BCD PUSH1 0xE5 SHL DUP2 MSTORE PUSH1 0x4 ADD PUSH2 0x2E4 SWAP1 PUSH2 0x28B3 JUMP JUMPDEST PUSH2 0xF76 PUSH2 0x20CA JUMP JUMPDEST POP PUSH1 0x40 DUP1 MLOAD PUSH1 0x60 DUP1 DUP3 ADD DUP4 MSTORE PUSH2 0x1F4 DUP3 MSTORE PUSH2 0xBB8 PUSH1 0x20 DUP4 ADD MSTORE PUSH2 0x2710 DUP3 DUP5 ADD MSTORE DUP3 MLOAD PUSH1 0x3 DUP1 DUP3 MSTORE PUSH1 0x80 DUP3 ADD SWAP1 SWAP5 MSTORE SWAP2 SWAP3 SWAP1 SWAP2 SWAP1 DUP2 PUSH1 0x20 ADD PUSH1 0x20 DUP3 MUL DUP1 CALLDATASIZE DUP4 CALLDATACOPY ADD SWAP1 POP POP SWAP1 POP PUSH1 0x0 DUP1 DUP7 DUP7 DUP2 MLOAD DUP2 LT PUSH2 0xFCA JUMPI INVALID JUMPDEST PUSH1 0x20 MUL PUSH1 0x20 ADD ADD MLOAD SWAP1 POP PUSH1 0x0 DUP8 DUP8 PUSH1 0x1 ADD DUP2 MLOAD DUP2 LT PUSH2 0xFE5 JUMPI INVALID JUMPDEST PUSH1 0x20 MUL PUSH1 0x20 ADD ADD MLOAD SWAP1 POP PUSH1 0x0 JUMPDEST PUSH1 0x3 DUP2 LT ISZERO PUSH2 0x10DA JUMPI PUSH1 0x0 DUP11 PUSH1 0x1 PUSH1 0x1 PUSH1 0xA0 SHL SUB AND PUSH4 0x1698EE82 DUP6 DUP6 DUP11 DUP7 PUSH1 0x3 DUP2 LT PUSH2 0x101A JUMPI INVALID JUMPDEST PUSH1 0x20 MUL ADD MLOAD PUSH1 0x40 MLOAD DUP5 PUSH4 0xFFFFFFFF AND PUSH1 0xE0 SHL DUP2 MSTORE PUSH1 0x4 ADD PUSH2 0x103D SWAP4 SWAP3 SWAP2 SWAP1 PUSH2 0x2869 JUMP JUMPDEST PUSH1 0x20 PUSH1 0x40 MLOAD DUP1 DUP4 SUB DUP2 DUP7 DUP1 EXTCODESIZE ISZERO DUP1 ISZERO PUSH2 0x1055 JUMPI PUSH1 0x0 DUP1 REVERT JUMPDEST POP GAS STATICCALL ISZERO DUP1 ISZERO PUSH2 0x1069 JUMPI RETURNDATASIZE PUSH1 0x0 DUP1 RETURNDATACOPY RETURNDATASIZE PUSH1 0x0 REVERT JUMPDEST POP POP POP POP PUSH1 0x40 MLOAD RETURNDATASIZE PUSH1 0x1F NOT PUSH1 0x1F DUP3 ADD AND DUP3 ADD DUP1 PUSH1 0x40 MSTORE POP DUP2 ADD SWAP1 PUSH2 0x108D SWAP2 SWAP1 PUSH2 0x2403 JUMP JUMPDEST SWAP1 POP PUSH2 0x1098 DUP2 PUSH2 0x1CA8 JUMP JUMPDEST ISZERO PUSH2 0x10D1 JUMPI DUP1 DUP7 DUP7 DUP1 PUSH1 0x1 ADD SWAP8 POP DUP2 MLOAD DUP2 LT PUSH2 0x10B0 JUMPI INVALID JUMPDEST PUSH1 0x20 MUL PUSH1 0x20 ADD ADD SWAP1 PUSH1 0x1 PUSH1 0x1 PUSH1 0xA0 SHL SUB AND SWAP1 DUP2 PUSH1 0x1 PUSH1 0x1 PUSH1 0xA0 SHL SUB AND DUP2 MSTORE POP POP JUMPDEST POP PUSH1 0x1 ADD PUSH2 0xFF2 JUMP JUMPDEST POP POP POP DUP1 PUSH2 0x10EA JUMPI POP POP POP PUSH2 0x13D8 JUMP JUMPDEST DUP6 MLOAD DUP6 PUSH1 0x2 ADD EQ ISZERO PUSH2 0x11E0 JUMPI DUP1 PUSH1 0x1 PUSH1 0x1 PUSH1 0x40 SHL SUB DUP2 GT DUP1 ISZERO PUSH2 0x110C JUMPI PUSH1 0x0 DUP1 REVERT JUMPDEST POP PUSH1 0x40 MLOAD SWAP1 DUP1 DUP3 MSTORE DUP1 PUSH1 0x20 MUL PUSH1 0x20 ADD DUP3 ADD PUSH1 0x40 MSTORE DUP1 ISZERO PUSH2 0x1140 JUMPI DUP2 PUSH1 0x20 ADD JUMPDEST PUSH1 0x60 DUP2 MSTORE PUSH1 0x20 ADD SWAP1 PUSH1 0x1 SWAP1 SUB SWAP1 DUP2 PUSH2 0x112B JUMPI SWAP1 POP JUMPDEST POP SWAP4 POP PUSH1 0x0 JUMPDEST DUP2 DUP2 LT ISZERO PUSH2 0x11D7 JUMPI PUSH1 0x40 DUP1 MLOAD PUSH1 0x1 DUP1 DUP3 MSTORE DUP2 DUP4 ADD SWAP1 SWAP3 MSTORE SWAP1 PUSH1 0x20 DUP1 DUP4 ADD SWAP1 DUP1 CALLDATASIZE DUP4 CALLDATACOPY ADD SWAP1 POP POP DUP6 DUP3 DUP2 MLOAD DUP2 LT PUSH2 0x1178 JUMPI INVALID JUMPDEST PUSH1 0x20 MUL PUSH1 0x20 ADD ADD DUP2 SWAP1 MSTORE POP DUP3 DUP2 DUP2 MLOAD DUP2 LT PUSH2 0x118F JUMPI INVALID JUMPDEST PUSH1 0x20 MUL PUSH1 0x20 ADD ADD MLOAD DUP6 DUP3 DUP2 MLOAD DUP2 LT PUSH2 0x11A3 JUMPI INVALID JUMPDEST PUSH1 0x20 MUL PUSH1 0x20 ADD ADD MLOAD PUSH1 0x0 DUP2 MLOAD DUP2 LT PUSH2 0x11B7 JUMPI INVALID JUMPDEST PUSH1 0x1 PUSH1 0x1 PUSH1 0xA0 SHL SUB SWAP1 SWAP3 AND PUSH1 0x20 SWAP3 DUP4 MUL SWAP2 SWAP1 SWAP2 ADD SWAP1 SWAP2 ADD MSTORE PUSH1 0x1 ADD PUSH2 0x1146 JUMP JUMPDEST POP POP POP POP PUSH2 0x13D8 JUMP JUMPDEST PUSH1 0x60 PUSH2 0x11F0 DUP9 DUP9 DUP9 PUSH1 0x1 ADD PUSH2 0xF48 JUMP JUMPDEST SWAP1 POP DUP1 MLOAD PUSH1 0x0 EQ ISZERO PUSH2 0x1205 JUMPI POP POP POP POP PUSH2 0x13D8 JUMP JUMPDEST DUP1 MLOAD DUP3 MUL PUSH1 0x1 PUSH1 0x1 PUSH1 0x40 SHL SUB DUP2 GT DUP1 ISZERO PUSH2 0x121E JUMPI PUSH1 0x0 DUP1 REVERT JUMPDEST POP PUSH1 0x40 MLOAD SWAP1 DUP1 DUP3 MSTORE DUP1 PUSH1 0x20 MUL PUSH1 0x20 ADD DUP3 ADD PUSH1 0x40 MSTORE DUP1 ISZERO PUSH2 0x1252 JUMPI DUP2 PUSH1 0x20 ADD JUMPDEST PUSH1 0x60 DUP2 MSTORE PUSH1 0x20 ADD SWAP1 PUSH1 0x1 SWAP1 SUB SWAP1 DUP2 PUSH2 0x123D JUMPI SWAP1 POP JUMPDEST POP SWAP5 POP PUSH1 0x0 JUMPDEST DUP3 DUP2 LT ISZERO PUSH2 0x13D2 JUMPI PUSH1 0x0 JUMPDEST DUP3 MLOAD DUP2 LT ISZERO PUSH2 0x13C9 JUMPI DUP3 MLOAD DUP3 DUP2 MUL DUP3 ADD SWAP1 DUP5 SWAP1 DUP4 SWAP1 DUP2 LT PUSH2 0x1280 JUMPI INVALID JUMPDEST PUSH1 0x20 MUL PUSH1 0x20 ADD ADD MLOAD MLOAD PUSH1 0x1 ADD PUSH1 0x1 PUSH1 0x1 PUSH1 0x40 SHL SUB DUP2 GT DUP1 ISZERO PUSH2 0x12A1 JUMPI PUSH1 0x0 DUP1 REVERT JUMPDEST POP PUSH1 0x40 MLOAD SWAP1 DUP1 DUP3 MSTORE DUP1 PUSH1 0x20 MUL PUSH1 0x20 ADD DUP3 ADD PUSH1 0x40 MSTORE DUP1 ISZERO PUSH2 0x12CB JUMPI DUP2 PUSH1 0x20 ADD PUSH1 0x20 DUP3 MUL DUP1 CALLDATASIZE DUP4 CALLDATACOPY ADD SWAP1 POP JUMPDEST POP DUP9 DUP3 DUP2 MLOAD DUP2 LT PUSH2 0x12D8 JUMPI INVALID JUMPDEST PUSH1 0x20 MUL PUSH1 0x20 ADD ADD DUP2 SWAP1 MSTORE POP DUP6 DUP4 DUP2 MLOAD DUP2 LT PUSH2 0x12EF JUMPI INVALID JUMPDEST PUSH1 0x20 MUL PUSH1 0x20 ADD ADD MLOAD DUP9 DUP3 DUP2 MLOAD DUP2 LT PUSH2 0x1303 JUMPI INVALID JUMPDEST PUSH1 0x20 MUL PUSH1 0x20 ADD ADD MLOAD PUSH1 0x0 DUP2 MLOAD DUP2 LT PUSH2 0x1317 JUMPI INVALID JUMPDEST PUSH1 0x20 MUL PUSH1 0x20 ADD ADD SWAP1 PUSH1 0x1 PUSH1 0x1 PUSH1 0xA0 SHL SUB AND SWAP1 DUP2 PUSH1 0x1 PUSH1 0x1 PUSH1 0xA0 SHL SUB AND DUP2 MSTORE POP POP PUSH1 0x0 JUMPDEST DUP5 DUP4 DUP2 MLOAD DUP2 LT PUSH2 0x1346 JUMPI INVALID JUMPDEST PUSH1 0x20 MUL PUSH1 0x20 ADD ADD MLOAD MLOAD DUP2 LT ISZERO PUSH2 0x13BF JUMPI DUP5 DUP4 DUP2 MLOAD DUP2 LT PUSH2 0x1362 JUMPI INVALID JUMPDEST PUSH1 0x20 MUL PUSH1 0x20 ADD ADD MLOAD DUP2 DUP2 MLOAD DUP2 LT PUSH2 0x1375 JUMPI INVALID JUMPDEST PUSH1 0x20 MUL PUSH1 0x20 ADD ADD MLOAD DUP10 DUP4 DUP2 MLOAD DUP2 LT PUSH2 0x1389 JUMPI INVALID JUMPDEST PUSH1 0x20 MUL PUSH1 0x20 ADD ADD MLOAD DUP3 PUSH1 0x1 ADD DUP2 MLOAD DUP2 LT PUSH2 0x139F JUMPI INVALID JUMPDEST PUSH1 0x1 PUSH1 0x1 PUSH1 0xA0 SHL SUB SWAP1 SWAP3 AND PUSH1 0x20 SWAP3 DUP4 MUL SWAP2 SWAP1 SWAP2 ADD SWAP1 SWAP2 ADD MSTORE PUSH1 0x1 ADD PUSH2 0x133A JUMP JUMPDEST POP POP PUSH1 0x1 ADD PUSH2 0x1263 JUMP JUMPDEST POP PUSH1 0x1 ADD PUSH2 0x1258 JUMP JUMPDEST POP POP POP POP POP JUMPDEST SWAP4 SWAP3 POP POP POP JUMP JUMPDEST PUSH1 0x60 PUSH1 0x2 DUP4 MLOAD LT ISZERO DUP1 ISZERO PUSH2 0x13F7 JUMPI POP DUP2 MLOAD PUSH1 0x1 ADD DUP4 MLOAD EQ JUMPDEST PUSH2 0x1413 JUMPI PUSH1 0x40 MLOAD PUSH3 0x461BCD PUSH1 0xE5 SHL DUP2 MSTORE PUSH1 0x4 ADD PUSH2 0x2E4 SWAP1 PUSH2 0x28F7 JUMP JUMPDEST DUP2 MLOAD PUSH1 0x3 MUL DUP4 MLOAD PUSH1 0x14 MUL ADD PUSH1 0x1 PUSH1 0x1 PUSH1 0x40 SHL SUB DUP2 GT DUP1 ISZERO PUSH2 0x1433 JUMPI PUSH1 0x0 DUP1 REVERT JUMPDEST POP PUSH1 0x40 MLOAD SWAP1 DUP1 DUP3 MSTORE DUP1 PUSH1 0x1F ADD PUSH1 0x1F NOT AND PUSH1 0x20 ADD DUP3 ADD PUSH1 0x40 MSTORE DUP1 ISZERO PUSH2 0x145E JUMPI PUSH1 0x20 DUP3 ADD DUP2 DUP1 CALLDATASIZE DUP4 CALLDATACOPY ADD SWAP1 POP JUMPDEST POP SWAP1 POP PUSH1 0x20 DUP2 ADD PUSH1 0x0 JUMPDEST DUP5 MLOAD DUP2 LT ISZERO PUSH2 0x153A JUMPI DUP1 ISZERO PUSH2 0x150D JUMPI PUSH1 0x0 DUP5 PUSH1 0x1 DUP4 SUB DUP2 MLOAD DUP2 LT PUSH2 0x1488 JUMPI INVALID JUMPDEST PUSH1 0x20 MUL PUSH1 0x20 ADD ADD MLOAD PUSH1 0x1 PUSH1 0x1 PUSH1 0xA0 SHL SUB AND PUSH4 0xDDCA3F43 PUSH1 0x40 MLOAD DUP2 PUSH4 0xFFFFFFFF AND PUSH1 0xE0 SHL DUP2 MSTORE PUSH1 0x4 ADD PUSH1 0x20 PUSH1 0x40 MLOAD DUP1 DUP4 SUB DUP2 DUP7 DUP1 EXTCODESIZE ISZERO DUP1 ISZERO PUSH2 0x14C8 JUMPI PUSH1 0x0 DUP1 REVERT JUMPDEST POP GAS STATICCALL ISZERO DUP1 ISZERO PUSH2 0x14DC JUMPI RETURNDATASIZE PUSH1 0x0 DUP1 RETURNDATACOPY RETURNDATASIZE PUSH1 0x0 REVERT JUMPDEST POP POP POP POP PUSH1 0x40 MLOAD RETURNDATASIZE PUSH1 0x1F NOT PUSH1 0x1F DUP3 ADD AND DUP3 ADD DUP1 PUSH1 0x40 MSTORE POP DUP2 ADD SWAP1 PUSH2 0x1500 SWAP2 SWAP1 PUSH2 0x258D JUMP JUMPDEST PUSH1 0xE8 SHL DUP4 MSTORE POP PUSH1 0x3 SWAP1 SWAP2 ADD SWAP1 JUMPDEST PUSH1 0x0 DUP6 DUP3 DUP2 MLOAD DUP2 LT PUSH2 0x151B JUMPI INVALID JUMPDEST PUSH1 0x20 SWAP1 DUP2 MUL SWAP2 SWAP1 SWAP2 ADD ADD MLOAD PUSH1 0x60 SHL DUP4 MSTORE POP PUSH1 0x14 SWAP1 SWAP2 ADD SWAP1 PUSH1 0x1 ADD PUSH2 0x1468 JUMP JUMPDEST POP POP SWAP3 SWAP2 POP POP JUMP JUMPDEST PUSH1 0x40 DUP1 MLOAD PUSH1 0x1 DUP1 DUP3 MSTORE DUP2 DUP4 ADD SWAP1 SWAP3 MSTORE PUSH1 0x60 SWAP2 PUSH1 0x20 DUP1 DUP4 ADD SWAP1 DUP1 CALLDATASIZE DUP4 CALLDATACOPY ADD SWAP1 POP POP SWAP1 POP DUP2 DUP2 PUSH1 0x0 DUP2 MLOAD DUP2 LT PUSH2 0x1572 JUMPI INVALID JUMPDEST PUSH1 0x20 MUL PUSH1 0x20 ADD ADD DUP2 DUP2 MSTORE POP POP SWAP2 SWAP1 POP JUMP JUMPDEST PUSH1 0x60 DUP3 DUP2 ADD MLOAD DUP4 MLOAD PUSH1 0x20 DUP6 ADD MLOAD PUSH1 0x40 DUP1 DUP8 ADD MLOAD SWAP1 MLOAD PUSH4 0xFA7F81F PUSH1 0xE1 SHL DUP2 MSTORE DUP6 SWAP5 ADDRESS SWAP5 PUSH4 0x1F4FF03E SWAP5 PUSH2 0x15CF SWAP5 PUSH1 0xA0 SWAP4 SWAP1 SWAP4 SHL PUSH1 0x1 PUSH1 0x1 PUSH1 0xE0 SHL SUB NOT AND SWAP4 SWAP2 SWAP3 SWAP1 SWAP2 DUP11 SWAP1 PUSH1 0x4 ADD PUSH2 0x27C1 JUMP JUMPDEST PUSH1 0x0 PUSH1 0x40 MLOAD DUP1 DUP4 SUB DUP2 PUSH1 0x0 DUP8 DUP1 EXTCODESIZE ISZERO DUP1 ISZERO PUSH2 0x15E9 JUMPI PUSH1 0x0 DUP1 REVERT JUMPDEST POP GAS CALL SWAP3 POP POP POP DUP1 ISZERO PUSH2 0x15FA JUMPI POP PUSH1 0x1 JUMPDEST PUSH2 0x559 JUMPI RETURNDATASIZE DUP1 DUP1 ISZERO PUSH2 0x1628 JUMPI PUSH1 0x40 MLOAD SWAP2 POP PUSH1 0x1F NOT PUSH1 0x3F RETURNDATASIZE ADD AND DUP3 ADD PUSH1 0x40 MSTORE RETURNDATASIZE DUP3 MSTORE RETURNDATASIZE PUSH1 0x0 PUSH1 0x20 DUP5 ADD RETURNDATACOPY PUSH2 0x162D JUMP JUMPDEST PUSH1 0x60 SWAP2 POP JUMPDEST POP DUP1 DUP1 PUSH1 0x20 ADD SWAP1 MLOAD DUP2 ADD SWAP1 PUSH2 0x1642 SWAP2 SWAP1 PUSH2 0x2291 JUMP JUMPDEST SWAP4 POP SWAP2 POP PUSH2 0x164D SWAP1 POP JUMP JUMPDEST SWAP3 POP SWAP3 SWAP1 POP JUMP JUMPDEST DUP1 MLOAD PUSH1 0x20 DUP3 ADD REVERT JUMPDEST PUSH1 0x40 MLOAD DUP3 DUP2 MSTORE DUP2 PUSH1 0x20 DUP3 ADD MSTORE PUSH1 0x40 DUP2 REVERT JUMPDEST PUSH1 0x60 DUP2 MLOAD PUSH1 0x1 PUSH1 0x1 PUSH1 0x40 SHL SUB DUP2 GT DUP1 ISZERO PUSH2 0x1686 JUMPI PUSH1 0x0 DUP1 REVERT JUMPDEST POP PUSH1 0x40 MLOAD SWAP1 DUP1 DUP3 MSTORE DUP1 PUSH1 0x20 MUL PUSH1 0x20 ADD DUP3 ADD PUSH1 0x40 MSTORE DUP1 ISZERO PUSH2 0x16B0 JUMPI DUP2 PUSH1 0x20 ADD PUSH1 0x20 DUP3 MUL DUP1 CALLDATASIZE DUP4 CALLDATACOPY ADD SWAP1 POP JUMPDEST POP SWAP1 POP PUSH1 0x0 JUMPDEST DUP3 MLOAD DUP2 LT ISZERO PUSH2 0x1705 JUMPI DUP3 PUSH1 0x1 DUP3 DUP6 MLOAD SUB SUB DUP2 MLOAD DUP2 LT PUSH2 0x16D1 JUMPI INVALID JUMPDEST PUSH1 0x20 MUL PUSH1 0x20 ADD ADD MLOAD DUP3 DUP3 DUP2 MLOAD DUP2 LT PUSH2 0x16E5 JUMPI INVALID JUMPDEST PUSH1 0x1 PUSH1 0x1 PUSH1 0xA0 SHL SUB SWAP1 SWAP3 AND PUSH1 0x20 SWAP3 DUP4 MUL SWAP2 SWAP1 SWAP2 ADD SWAP1 SWAP2 ADD MSTORE PUSH1 0x1 ADD PUSH2 0x16B6 JUMP JUMPDEST POP SWAP2 SWAP1 POP JUMP JUMPDEST PUSH1 0x60 DUP2 MLOAD PUSH1 0x1 PUSH1 0x1 PUSH1 0x40 SHL SUB DUP2 GT DUP1 ISZERO PUSH2 0x1724 JUMPI PUSH1 0x0 DUP1 REVERT JUMPDEST POP PUSH1 0x40 MLOAD SWAP1 DUP1 DUP3 MSTORE DUP1 PUSH1 0x20 MUL PUSH1 0x20 ADD DUP3 ADD PUSH1 0x40 MSTORE DUP1 ISZERO PUSH2 0x174E JUMPI DUP2 PUSH1 0x20 ADD PUSH1 0x20 DUP3 MUL DUP1 CALLDATASIZE DUP4 CALLDATACOPY ADD SWAP1 POP JUMPDEST POP SWAP1 POP PUSH1 0x0 JUMPDEST DUP3 MLOAD DUP2 LT ISZERO PUSH2 0x1705 JUMPI DUP3 PUSH1 0x1 DUP3 DUP6 MLOAD SUB SUB DUP2 MLOAD DUP2 LT PUSH2 0x176F JUMPI INVALID JUMPDEST PUSH1 0x20 MUL PUSH1 0x20 ADD ADD MLOAD DUP3 DUP3 DUP2 MLOAD DUP2 LT PUSH2 0x1783 JUMPI INVALID JUMPDEST PUSH1 0x1 PUSH1 0x1 PUSH1 0xA0 SHL SUB SWAP1 SWAP3 AND PUSH1 0x20 SWAP3 DUP4 MUL SWAP2 SWAP1 SWAP2 ADD SWAP1 SWAP2 ADD MSTORE PUSH1 0x1 ADD PUSH2 0x1754 JUMP JUMPDEST PUSH1 0x60 DUP1 DUP3 MLOAD PUSH1 0x1 PUSH1 0x1 PUSH1 0x40 SHL SUB DUP2 GT DUP1 ISZERO PUSH2 0x17BD JUMPI PUSH1 0x0 DUP1 REVERT JUMPDEST POP PUSH1 0x40 MLOAD SWAP1 DUP1 DUP3 MSTORE DUP1 PUSH1 0x20 MUL PUSH1 0x20 ADD DUP3 ADD PUSH1 0x40 MSTORE DUP1 ISZERO PUSH2 0x17E7 JUMPI DUP2 PUSH1 0x20 ADD PUSH1 0x20 DUP3 MUL DUP1 CALLDATASIZE DUP4 CALLDATACOPY ADD SWAP1 POP JUMPDEST POP SWAP1 POP DUP3 MLOAD PUSH1 0x1 PUSH1 0x1 PUSH1 0x40 SHL SUB DUP2 GT DUP1 ISZERO PUSH2 0x1801 JUMPI PUSH1 0x0 DUP1 REVERT JUMPDEST POP PUSH1 0x40 MLOAD SWAP1 DUP1 DUP3 MSTORE DUP1 PUSH1 0x20 MUL PUSH1 0x20 ADD DUP3 ADD PUSH1 0x40 MSTORE DUP1 ISZERO PUSH2 0x182B JUMPI DUP2 PUSH1 0x20 ADD PUSH1 0x20 DUP3 MUL DUP1 CALLDATASIZE DUP4 CALLDATACOPY ADD SWAP1 POP JUMPDEST POP SWAP2 POP DUP3 MLOAD PUSH1 0x0 EQ ISZERO PUSH2 0x183D JUMPI PUSH2 0x164D JUMP JUMPDEST PUSH1 0x40 DUP1 MLOAD PUSH1 0x1 DUP1 DUP3 MSTORE DUP2 DUP4 ADD SWAP1 SWAP3 MSTORE PUSH1 0x60 SWAP2 PUSH1 0x20 DUP1 DUP4 ADD SWAP1 DUP1 CALLDATASIZE DUP4 CALLDATACOPY ADD SWAP1 POP POP SWAP1 POP DUP4 PUSH1 0x0 DUP2 MLOAD DUP2 LT PUSH2 0x186C JUMPI INVALID JUMPDEST PUSH1 0x20 MUL PUSH1 0x20 ADD ADD MLOAD DUP2 PUSH1 0x0 DUP2 MLOAD DUP2 LT PUSH2 0x1881 JUMPI INVALID JUMPDEST PUSH1 0x20 MUL PUSH1 0x20 ADD ADD DUP2 DUP2 MSTORE POP POP PUSH2 0x1895 PUSH2 0x20E8 JUMP JUMPDEST POP PUSH1 0x40 DUP1 MLOAD PUSH1 0x80 DUP1 DUP3 ADD DUP4 MSTORE DUP8 MLOAD PUSH1 0x1 PUSH1 0x1 PUSH1 0xA0 SHL SUB SWAP1 DUP2 AND DUP4 MSTORE PUSH1 0x20 DUP1 DUP11 ADD MLOAD SWAP1 SWAP2 AND SWAP1 DUP4 ADD MSTORE DUP8 DUP4 ADD MLOAD DUP3 DUP5 ADD MSTORE DUP8 ADD MLOAD PUSH5 0x100000000 PUSH1 0x1 PUSH1 0xC0 SHL SUB SWAP1 DUP4 SHR SWAP1 DUP2 AND PUSH4 0xFFFFFFFF SWAP1 SWAP2 AND OR SWAP1 SWAP2 SHL PUSH1 0x60 DUP3 ADD MSTORE PUSH2 0x18F3 PUSH2 0x20E8 JUMP JUMPDEST PUSH1 0x40 MLOAD DUP1 PUSH1 0x80 ADD PUSH1 0x40 MSTORE DUP1 DUP9 PUSH1 0x20 ADD MLOAD PUSH1 0x1 PUSH1 0x1 PUSH1 0xA0 SHL SUB AND DUP2 MSTORE PUSH1 0x20 ADD DUP9 PUSH1 0x0 ADD MLOAD PUSH1 0x1 PUSH1 0x1 PUSH1 0xA0 SHL SUB AND DUP2 MSTORE PUSH1 0x20 ADD DUP9 PUSH1 0x60 ADD MLOAD DUP2 MSTORE PUSH1 0x20 ADD DUP9 PUSH1 0x80 ADD MLOAD DUP1 PUSH1 0x60 SHR SWAP1 PUSH1 0x40 SHR PUSH4 0xFFFFFFFF AND PUSH4 0xFFFFFFFF AND SWAP1 PUSH1 0x20 SHL OR PUSH1 0x40 SHL DUP2 MSTORE POP SWAP1 POP PUSH2 0x195E DUP2 DUP5 PUSH2 0x1583 JUMP JUMPDEST SWAP1 POP DUP1 SWAP4 POP POP DUP3 PUSH1 0x0 DUP2 MLOAD DUP2 LT PUSH2 0x1971 JUMPI INVALID JUMPDEST PUSH1 0x20 MUL PUSH1 0x20 ADD ADD MLOAD PUSH1 0x0 EQ ISZERO PUSH2 0x1989 JUMPI POP POP POP PUSH2 0x164D JUMP JUMPDEST PUSH1 0x60 PUSH2 0x1995 DUP4 DUP6 PUSH2 0x1583 JUMP JUMPDEST SWAP1 POP DUP1 SWAP2 POP POP DUP1 PUSH1 0x0 DUP2 MLOAD DUP2 LT PUSH2 0x19A8 JUMPI INVALID JUMPDEST PUSH1 0x20 MUL PUSH1 0x20 ADD ADD MLOAD PUSH1 0x0 EQ ISZERO PUSH2 0x19C1 JUMPI POP POP POP POP PUSH2 0x164D JUMP JUMPDEST PUSH1 0x0 JUMPDEST DUP8 MLOAD DUP2 LT ISZERO PUSH2 0x1C04 JUMPI PUSH1 0x60 PUSH1 0x0 JUMPDEST PUSH1 0x5 DUP2 LT ISZERO PUSH2 0x1B7D JUMPI PUSH2 0x1A21 DUP11 DUP5 DUP2 MLOAD DUP2 LT PUSH2 0x19EA JUMPI INVALID JUMPDEST PUSH1 0x20 MUL PUSH1 0x20 ADD ADD MLOAD DUP6 PUSH1 0x0 DUP2 MLOAD DUP2 LT PUSH2 0x19FF JUMPI INVALID JUMPDEST PUSH1 0x20 MUL PUSH1 0x20 ADD ADD MLOAD DUP10 PUSH1 0x0 DUP2 MLOAD DUP2 LT PUSH2 0x1A14 JUMPI INVALID JUMPDEST PUSH1 0x20 MUL PUSH1 0x20 ADD ADD MLOAD PUSH2 0x1EB5 JUMP JUMPDEST DUP8 PUSH1 0x0 DUP2 MLOAD DUP2 LT PUSH2 0x1A2E JUMPI INVALID JUMPDEST PUSH1 0x20 MUL PUSH1 0x20 ADD ADD DUP2 DUP2 MSTORE POP POP DUP7 PUSH1 0x0 DUP2 MLOAD DUP2 LT PUSH2 0x1A47 JUMPI INVALID JUMPDEST PUSH1 0x20 MUL PUSH1 0x20 ADD ADD MLOAD PUSH1 0x0 EQ ISZERO PUSH2 0x1A5C JUMPI PUSH2 0x1B7D JUMP JUMPDEST PUSH2 0x1A75 PUSH1 0x5 PUSH2 0x2710 ADD PUSH2 0x2710 DUP10 PUSH1 0x0 DUP2 MLOAD DUP2 LT PUSH2 0x1A14 JUMPI INVALID JUMPDEST DUP8 PUSH1 0x0 DUP2 MLOAD DUP2 LT PUSH2 0x1A82 JUMPI INVALID JUMPDEST PUSH1 0x20 MUL PUSH1 0x20 ADD ADD DUP2 DUP2 MSTORE POP POP DUP7 PUSH1 0x0 DUP2 MLOAD DUP2 LT PUSH2 0x1A9B JUMPI INVALID JUMPDEST PUSH1 0x20 MUL PUSH1 0x20 ADD ADD MLOAD PUSH1 0x0 EQ ISZERO PUSH2 0x1AB0 JUMPI PUSH2 0x1B7D JUMP JUMPDEST PUSH1 0x60 PUSH2 0x1ABC DUP8 DUP10 PUSH2 0x1583 JUMP JUMPDEST DUP1 MLOAD SWAP2 SWAP5 POP SWAP2 POP DUP2 SWAP1 PUSH1 0x0 SWAP1 PUSH2 0x1ACE JUMPI INVALID JUMPDEST PUSH1 0x20 MUL PUSH1 0x20 ADD ADD MLOAD PUSH1 0x0 EQ ISZERO PUSH2 0x1AE4 JUMPI POP PUSH2 0x1B7D JUMP JUMPDEST DUP1 SWAP5 POP DUP11 DUP5 DUP2 MLOAD DUP2 LT PUSH2 0x1AF3 JUMPI INVALID JUMPDEST PUSH1 0x20 MUL PUSH1 0x20 ADD ADD MLOAD DUP6 PUSH1 0x0 DUP2 MLOAD DUP2 LT PUSH2 0x1B08 JUMPI INVALID JUMPDEST PUSH1 0x20 MUL PUSH1 0x20 ADD ADD MLOAD LT PUSH2 0x1B74 JUMPI PUSH1 0x0 DUP12 DUP6 DUP2 MLOAD DUP2 LT PUSH2 0x1B23 JUMPI INVALID JUMPDEST PUSH1 0x20 MUL PUSH1 0x20 ADD ADD MLOAD PUSH2 0x2710 DUP14 DUP8 DUP2 MLOAD DUP2 LT PUSH2 0x1B3A JUMPI INVALID JUMPDEST PUSH1 0x20 MUL PUSH1 0x20 ADD ADD MLOAD DUP9 PUSH1 0x0 DUP2 MLOAD DUP2 LT PUSH2 0x1B4F JUMPI INVALID JUMPDEST PUSH1 0x20 MUL PUSH1 0x20 ADD ADD MLOAD SUB MUL DUP2 PUSH2 0x1B60 JUMPI INVALID JUMPDEST DIV SWAP1 POP PUSH1 0x5 DUP2 GT PUSH2 0x1B72 JUMPI POP POP PUSH2 0x1B7D JUMP JUMPDEST POP JUMPDEST POP PUSH1 0x1 ADD PUSH2 0x19D2 JUMP JUMPDEST POP DUP1 PUSH1 0x0 DUP2 MLOAD DUP2 LT PUSH2 0x1B8B JUMPI INVALID JUMPDEST PUSH1 0x20 MUL PUSH1 0x20 ADD ADD MLOAD DUP9 DUP4 DUP2 MLOAD DUP2 LT PUSH2 0x1B9F JUMPI INVALID JUMPDEST PUSH1 0x20 MUL PUSH1 0x20 ADD ADD DUP2 DUP2 MSTORE POP POP PUSH2 0x1BE4 DUP10 DUP4 DUP2 MLOAD DUP2 LT PUSH2 0x1BBA JUMPI INVALID JUMPDEST PUSH1 0x20 MUL PUSH1 0x20 ADD ADD MLOAD DUP5 PUSH1 0x0 DUP2 MLOAD DUP2 LT PUSH2 0x1BCF JUMPI INVALID JUMPDEST PUSH1 0x20 MUL PUSH1 0x20 ADD ADD MLOAD DUP9 PUSH1 0x0 DUP2 MLOAD DUP2 LT PUSH2 0x1A14 JUMPI INVALID JUMPDEST DUP8 DUP4 DUP2 MLOAD DUP2 LT PUSH2 0x1BF0 JUMPI INVALID JUMPDEST PUSH1 0x20 SWAP1 DUP2 MUL SWAP2 SWAP1 SWAP2 ADD ADD MSTORE POP PUSH1 0x1 ADD PUSH2 0x19C4 JUMP JUMPDEST POP POP POP POP POP SWAP3 POP SWAP3 SWAP1 POP JUMP JUMPDEST PUSH1 0x40 MLOAD PUSH4 0x6EB1769F PUSH1 0xE1 SHL DUP2 MSTORE DUP2 SWAP1 PUSH1 0x1 PUSH1 0x1 PUSH1 0xA0 SHL SUB DUP6 AND SWAP1 PUSH4 0xDD62ED3E SWAP1 PUSH2 0x1C40 SWAP1 ADDRESS SWAP1 DUP8 SWAP1 PUSH1 0x4 ADD PUSH2 0x269A JUMP JUMPDEST PUSH1 0x20 PUSH1 0x40 MLOAD DUP1 DUP4 SUB DUP2 DUP7 DUP1 EXTCODESIZE ISZERO DUP1 ISZERO PUSH2 0x1C58 JUMPI PUSH1 0x0 DUP1 REVERT JUMPDEST POP GAS STATICCALL ISZERO DUP1 ISZERO PUSH2 0x1C6C JUMPI RETURNDATASIZE PUSH1 0x0 DUP1 RETURNDATACOPY RETURNDATASIZE PUSH1 0x0 REVERT JUMPDEST POP POP POP POP PUSH1 0x40 MLOAD RETURNDATASIZE PUSH1 0x1F NOT PUSH1 0x1F DUP3 ADD AND DUP3 ADD DUP1 PUSH1 0x40 MSTORE POP DUP2 ADD SWAP1 PUSH2 0x1C90 SWAP2 SWAP1 PUSH2 0x25B0 JUMP JUMPDEST LT ISZERO PUSH2 0x1CA3 JUMPI PUSH2 0x1CA3 DUP4 DUP4 PUSH1 0x0 NOT PUSH2 0x1F0D JUMP JUMPDEST POP POP POP JUMP JUMPDEST PUSH1 0x0 DUP2 EXTCODESIZE DUP1 PUSH2 0x1CBB JUMPI PUSH1 0x0 SWAP2 POP POP PUSH2 0x1EB0 JUMP JUMPDEST POP DUP2 PUSH1 0x1 PUSH1 0x1 PUSH1 0xA0 SHL SUB AND PUSH4 0xDFE1681 PUSH1 0x40 MLOAD DUP2 PUSH4 0xFFFFFFFF AND PUSH1 0xE0 SHL DUP2 MSTORE PUSH1 0x4 ADD PUSH1 0x20 PUSH1 0x40 MLOAD DUP1 DUP4 SUB DUP2 DUP7 DUP1 EXTCODESIZE ISZERO DUP1 ISZERO PUSH2 0x1CF5 JUMPI PUSH1 0x0 DUP1 REVERT JUMPDEST POP GAS STATICCALL ISZERO DUP1 ISZERO PUSH2 0x1D09 JUMPI RETURNDATASIZE PUSH1 0x0 DUP1 RETURNDATACOPY RETURNDATASIZE PUSH1 0x0 REVERT JUMPDEST POP POP POP POP PUSH1 0x40 MLOAD RETURNDATASIZE PUSH1 0x1F NOT PUSH1 0x1F DUP3 ADD AND DUP3 ADD DUP1 PUSH1 0x40 MSTORE POP DUP2 ADD SWAP1 PUSH2 0x1D2D SWAP2 SWAP1 PUSH2 0x2403 JUMP JUMPDEST PUSH1 0x1 PUSH1 0x1 PUSH1 0xA0 SHL SUB AND PUSH4 0x70A08231 DUP4 PUSH1 0x40 MLOAD DUP3 PUSH4 0xFFFFFFFF AND PUSH1 0xE0 SHL DUP2 MSTORE PUSH1 0x4 ADD PUSH2 0x1D58 SWAP2 SWAP1 PUSH2 0x266D JUMP JUMPDEST PUSH1 0x20 PUSH1 0x40 MLOAD DUP1 DUP4 SUB DUP2 DUP7 DUP1 EXTCODESIZE ISZERO DUP1 ISZERO PUSH2 0x1D70 JUMPI PUSH1 0x0 DUP1 REVERT JUMPDEST POP GAS STATICCALL ISZERO DUP1 ISZERO PUSH2 0x1D84 JUMPI RETURNDATASIZE PUSH1 0x0 DUP1 RETURNDATACOPY RETURNDATASIZE PUSH1 0x0 REVERT JUMPDEST POP POP POP POP PUSH1 0x40 MLOAD RETURNDATASIZE PUSH1 0x1F NOT PUSH1 0x1F DUP3 ADD AND DUP3 ADD DUP1 PUSH1 0x40 MSTORE POP DUP2 ADD SWAP1 PUSH2 0x1DA8 SWAP2 SWAP1 PUSH2 0x25B0 JUMP JUMPDEST PUSH2 0x1DB4 JUMPI POP PUSH1 0x0 PUSH2 0x1EB0 JUMP JUMPDEST DUP2 PUSH1 0x1 PUSH1 0x1 PUSH1 0xA0 SHL SUB AND PUSH4 0xD21220A7 PUSH1 0x40 MLOAD DUP2 PUSH4 0xFFFFFFFF AND PUSH1 0xE0 SHL DUP2 MSTORE PUSH1 0x4 ADD PUSH1 0x20 PUSH1 0x40 MLOAD DUP1 DUP4 SUB DUP2 DUP7 DUP1 EXTCODESIZE ISZERO DUP1 ISZERO PUSH2 0x1DED JUMPI PUSH1 0x0 DUP1 REVERT JUMPDEST POP GAS STATICCALL ISZERO DUP1 ISZERO PUSH2 0x1E01 JUMPI RETURNDATASIZE PUSH1 0x0 DUP1 RETURNDATACOPY RETURNDATASIZE PUSH1 0x0 REVERT JUMPDEST POP POP POP POP PUSH1 0x40 MLOAD RETURNDATASIZE PUSH1 0x1F NOT PUSH1 0x1F DUP3 ADD AND DUP3 ADD DUP1 PUSH1 0x40 MSTORE POP DUP2 ADD SWAP1 PUSH2 0x1E25 SWAP2 SWAP1 PUSH2 0x2403 JUMP JUMPDEST PUSH1 0x1 PUSH1 0x1 PUSH1 0xA0 SHL SUB AND PUSH4 0x70A08231 DUP4 PUSH1 0x40 MLOAD DUP3 PUSH4 0xFFFFFFFF AND PUSH1 0xE0 SHL DUP2 MSTORE PUSH1 0x4 ADD PUSH2 0x1E50 SWAP2 SWAP1 PUSH2 0x266D JUMP JUMPDEST PUSH1 0x20 PUSH1 0x40 MLOAD DUP1 DUP4 SUB DUP2 DUP7 DUP1 EXTCODESIZE ISZERO DUP1 ISZERO PUSH2 0x1E68 JUMPI PUSH1 0x0 DUP1 REVERT JUMPDEST POP GAS STATICCALL ISZERO DUP1 ISZERO PUSH2 0x1E7C JUMPI RETURNDATASIZE PUSH1 0x0 DUP1 RETURNDATACOPY RETURNDATASIZE PUSH1 0x0 REVERT JUMPDEST POP POP POP POP PUSH1 0x40 MLOAD RETURNDATASIZE PUSH1 0x1F NOT PUSH1 0x1F DUP3 ADD AND DUP3 ADD DUP1 PUSH1 0x40 MSTORE POP DUP2 ADD SWAP1 PUSH2 0x1EA0 SWAP2 SWAP1 PUSH2 0x25B0 JUMP JUMPDEST PUSH2 0x1EAC JUMPI POP PUSH1 0x0 PUSH2 0x1EB0 JUMP JUMPDEST POP PUSH1 0x1 JUMPDEST SWAP2 SWAP1 POP JUMP JUMPDEST PUSH1 0x0 DUP4 ISZERO DUP1 PUSH2 0x1EC2 JUMPI POP DUP2 ISZERO JUMPDEST DUP1 PUSH2 0x1ECB JUMPI POP DUP3 ISZERO JUMPDEST ISZERO PUSH2 0x1ED8 JUMPI POP PUSH1 0x0 PUSH2 0x13D8 JUMP JUMPDEST DUP4 DUP3 MUL DUP3 DUP6 DUP3 DUP2 PUSH2 0x1EE5 JUMPI INVALID JUMPDEST DIV EQ PUSH2 0x1EF5 JUMPI PUSH1 0x0 SWAP2 POP POP PUSH2 0x13D8 JUMP JUMPDEST DUP4 PUSH1 0x1 DUP6 SUB DUP3 ADD DUP2 PUSH2 0x1F03 JUMPI INVALID JUMPDEST DIV SWAP6 SWAP5 POP POP POP POP POP JUMP JUMPDEST PUSH1 0x60 PUSH4 0x95EA7B3 PUSH1 0xE0 SHL DUP4 DUP4 PUSH1 0x40 MLOAD PUSH1 0x24 ADD PUSH2 0x1F2A SWAP3 SWAP2 SWAP1 PUSH2 0x2681 JUMP JUMPDEST PUSH1 0x40 DUP1 MLOAD PUSH1 0x1F NOT DUP2 DUP5 SUB ADD DUP2 MSTORE SWAP2 SWAP1 MSTORE PUSH1 0x20 DUP2 ADD DUP1 MLOAD PUSH1 0x1 PUSH1 0x1 PUSH1 0xE0 SHL SUB AND PUSH1 0x1 PUSH1 0x1 PUSH1 0xE0 SHL SUB NOT SWAP1 SWAP4 AND SWAP3 SWAP1 SWAP3 OR SWAP1 SWAP2 MSTORE SWAP1 POP PUSH2 0x1F68 DUP5 DUP3 PUSH2 0x1F6E JUMP JUMPDEST POP POP POP POP JUMP JUMPDEST PUSH1 0x0 PUSH1 0x60 DUP4 PUSH1 0x1 PUSH1 0x1 PUSH1 0xA0 SHL SUB AND DUP4 PUSH1 0x40 MLOAD PUSH2 0x1F8A SWAP2 SWAP1 PUSH2 0x2651 JUMP JUMPDEST PUSH1 0x0 PUSH1 0x40 MLOAD DUP1 DUP4 SUB DUP2 PUSH1 0x0 DUP7 GAS CALL SWAP2 POP POP RETURNDATASIZE DUP1 PUSH1 0x0 DUP2 EQ PUSH2 0x1FC7 JUMPI PUSH1 0x40 MLOAD SWAP2 POP PUSH1 0x1F NOT PUSH1 0x3F RETURNDATASIZE ADD AND DUP3 ADD PUSH1 0x40 MSTORE RETURNDATASIZE DUP3 MSTORE RETURNDATASIZE PUSH1 0x0 PUSH1 0x20 DUP5 ADD RETURNDATACOPY PUSH2 0x1FCC JUMP JUMPDEST PUSH1 0x60 SWAP2 POP JUMPDEST POP SWAP2 POP SWAP2 POP DUP2 DUP1 ISZERO PUSH2 0x1FE2 JUMPI POP PUSH2 0x1FE2 DUP2 PUSH2 0x1FFB JUMP JUMPDEST ISZERO PUSH2 0x1FEE JUMPI POP POP PUSH2 0x1FF7 JUMP JUMPDEST PUSH2 0x1F68 DUP2 PUSH2 0x1654 JUMP JUMPDEST POP POP JUMP JUMPDEST PUSH1 0x0 DUP2 MLOAD PUSH1 0x0 EQ ISZERO PUSH2 0x200F JUMPI POP PUSH1 0x1 PUSH2 0x1EB0 JUMP JUMPDEST PUSH1 0x20 DUP3 MLOAD LT PUSH2 0x1EB0 JUMPI PUSH1 0x0 PUSH2 0x2025 DUP4 PUSH1 0x0 PUSH2 0x203A JUMP JUMPDEST SWAP1 POP DUP1 PUSH1 0x1 EQ ISZERO PUSH2 0x1705 JUMPI PUSH1 0x1 SWAP2 POP POP PUSH2 0x1EB0 JUMP JUMPDEST PUSH1 0x0 PUSH2 0x13D8 DUP4 DUP4 PUSH1 0x0 DUP2 PUSH1 0x20 ADD DUP4 MLOAD LT ISZERO PUSH2 0x2067 JUMPI PUSH2 0x2067 PUSH2 0x2062 PUSH1 0x5 DUP6 MLOAD DUP6 PUSH1 0x20 ADD PUSH2 0x2070 JUMP JUMPDEST PUSH2 0x1654 JUMP JUMPDEST POP ADD PUSH1 0x20 ADD MLOAD SWAP1 JUMP JUMPDEST PUSH1 0x60 PUSH4 0x28006595 PUSH1 0xE0 SHL DUP5 DUP5 DUP5 PUSH1 0x40 MLOAD PUSH1 0x24 ADD PUSH2 0x208F SWAP4 SWAP3 SWAP2 SWAP1 PUSH2 0x2891 JUMP JUMPDEST PUSH1 0x40 DUP1 MLOAD PUSH1 0x1F NOT DUP2 DUP5 SUB ADD DUP2 MSTORE SWAP2 SWAP1 MSTORE PUSH1 0x20 DUP2 ADD DUP1 MLOAD PUSH1 0x1 PUSH1 0x1 PUSH1 0xE0 SHL SUB AND PUSH1 0x1 PUSH1 0x1 PUSH1 0xE0 SHL SUB NOT SWAP1 SWAP4 AND SWAP3 SWAP1 SWAP3 OR SWAP1 SWAP2 MSTORE SWAP1 POP SWAP4 SWAP3 POP POP POP JUMP JUMPDEST PUSH1 0x40 MLOAD DUP1 PUSH1 0x60 ADD PUSH1 0x40 MSTORE DUP1 PUSH1 0x3 SWAP1 PUSH1 0x20 DUP3 MUL DUP1 CALLDATASIZE DUP4 CALLDATACOPY POP SWAP2 SWAP3 SWAP2 POP POP JUMP JUMPDEST PUSH1 0x40 DUP1 MLOAD PUSH1 0x80 DUP2 ADD DUP3 MSTORE PUSH1 0x0 DUP1 DUP3 MSTORE PUSH1 0x20 DUP3 ADD DUP2 SWAP1 MSTORE PUSH1 0x60 SWAP3 DUP3 ADD DUP4 SWAP1 MSTORE SWAP2 DUP2 ADD SWAP2 SWAP1 SWAP2 MSTORE SWAP1 JUMP JUMPDEST PUSH1 0x0 DUP3 PUSH1 0x1F DUP4 ADD SLT PUSH2 0x2120 JUMPI DUP1 DUP2 REVERT JUMPDEST DUP2 CALLDATALOAD PUSH2 0x2133 PUSH2 0x212E DUP3 PUSH2 0x2A72 JUMP JUMPDEST PUSH2 0x2A4C JUMP JUMPDEST DUP2 DUP2 MSTORE SWAP2 POP PUSH1 0x20 DUP1 DUP4 ADD SWAP1 DUP5 DUP2 ADD DUP2 DUP5 MUL DUP7 ADD DUP3 ADD DUP8 LT ISZERO PUSH2 0x2154 JUMPI PUSH1 0x0 DUP1 REVERT JUMPDEST PUSH1 0x0 JUMPDEST DUP5 DUP2 LT ISZERO PUSH2 0x2173 JUMPI DUP2 CALLDATALOAD DUP5 MSTORE SWAP3 DUP3 ADD SWAP3 SWAP1 DUP3 ADD SWAP1 PUSH1 0x1 ADD PUSH2 0x2157 JUMP JUMPDEST POP POP POP POP POP SWAP3 SWAP2 POP POP JUMP JUMPDEST PUSH1 0x0 DUP3 PUSH1 0x1F DUP4 ADD SLT PUSH2 0x218E JUMPI DUP1 DUP2 REVERT JUMPDEST DUP2 MLOAD PUSH2 0x219C PUSH2 0x212E DUP3 PUSH2 0x2A72 JUMP JUMPDEST DUP2 DUP2 MSTORE SWAP2 POP PUSH1 0x20 DUP1 DUP4 ADD SWAP1 DUP5 DUP2 ADD DUP2 DUP5 MUL DUP7 ADD DUP3 ADD DUP8 LT ISZERO PUSH2 0x21BD JUMPI PUSH1 0x0 DUP1 REVERT JUMPDEST PUSH1 0x0 JUMPDEST DUP5 DUP2 LT ISZERO PUSH2 0x2173 JUMPI DUP2 MLOAD DUP5 MSTORE SWAP3 DUP3 ADD SWAP3 SWAP1 DUP3 ADD SWAP1 PUSH1 0x1 ADD PUSH2 0x21C0 JUMP JUMPDEST PUSH1 0x0 DUP3 PUSH1 0x1F DUP4 ADD SLT PUSH2 0x21EC JUMPI DUP1 DUP2 REVERT JUMPDEST DUP2 CALLDATALOAD PUSH2 0x21FA PUSH2 0x212E DUP3 PUSH2 0x2A91 JUMP JUMPDEST SWAP2 POP DUP1 DUP3 MSTORE DUP4 PUSH1 0x20 DUP3 DUP6 ADD ADD GT ISZERO PUSH2 0x2211 JUMPI PUSH1 0x0 DUP1 REVERT JUMPDEST DUP1 PUSH1 0x20 DUP5 ADD PUSH1 0x20 DUP5 ADD CALLDATACOPY PUSH1 0x0 SWAP1 DUP3 ADD PUSH1 0x20 ADD MSTORE SWAP3 SWAP2 POP POP JUMP JUMPDEST PUSH1 0x0 DUP1 PUSH1 0x0 DUP1 PUSH1 0x80 DUP6 DUP8 SUB SLT ISZERO PUSH2 0x223F JUMPI DUP4 DUP5 REVERT JUMPDEST DUP5 CALLDATALOAD PUSH2 0x224A DUP2 PUSH2 0x2AE0 JUMP JUMPDEST SWAP4 POP PUSH1 0x20 DUP6 ADD CALLDATALOAD PUSH2 0x225A DUP2 PUSH2 0x2AE0 JUMP JUMPDEST SWAP3 POP PUSH1 0x40 DUP6 ADD CALLDATALOAD PUSH1 0x1 PUSH1 0x1 PUSH1 0x40 SHL SUB DUP2 GT ISZERO PUSH2 0x2274 JUMPI DUP3 DUP4 REVERT JUMPDEST PUSH2 0x2280 DUP8 DUP3 DUP9 ADD PUSH2 0x21DC JUMP JUMPDEST SWAP5 SWAP8 SWAP4 SWAP7 POP SWAP4 SWAP5 PUSH1 0x60 ADD CALLDATALOAD SWAP4 POP POP POP JUMP JUMPDEST PUSH1 0x0 DUP1 PUSH1 0x40 DUP4 DUP6 SUB SLT ISZERO PUSH2 0x22A3 JUMPI DUP2 DUP3 REVERT JUMPDEST DUP3 MLOAD PUSH1 0x1 PUSH1 0x1 PUSH1 0x40 SHL SUB DUP1 DUP3 GT ISZERO PUSH2 0x22B9 JUMPI DUP4 DUP5 REVERT JUMPDEST PUSH2 0x22C5 DUP7 DUP4 DUP8 ADD PUSH2 0x217E JUMP JUMPDEST SWAP4 POP PUSH1 0x20 DUP6 ADD MLOAD SWAP2 POP DUP1 DUP3 GT ISZERO PUSH2 0x22DA JUMPI DUP3 DUP4 REVERT JUMPDEST POP PUSH2 0x22E7 DUP6 DUP3 DUP7 ADD PUSH2 0x217E JUMP JUMPDEST SWAP2 POP POP SWAP3 POP SWAP3 SWAP1 POP JUMP JUMPDEST PUSH1 0x0 DUP1 PUSH1 0x0 DUP1 PUSH1 0x0 PUSH1 0xA0 DUP7 DUP9 SUB SLT ISZERO PUSH2 0x2308 JUMPI DUP1 DUP2 REVERT JUMPDEST DUP6 CALLDATALOAD PUSH2 0x2313 DUP2 PUSH2 0x2AF8 JUMP JUMPDEST SWAP5 POP PUSH1 0x20 DUP7 ADD CALLDATALOAD PUSH2 0x2323 DUP2 PUSH2 0x2AE0 JUMP JUMPDEST SWAP4 POP PUSH1 0x40 DUP7 ADD CALLDATALOAD PUSH2 0x2333 DUP2 PUSH2 0x2AE0 JUMP JUMPDEST SWAP3 POP PUSH1 0x60 DUP7 ADD CALLDATALOAD PUSH1 0x1 PUSH1 0x1 PUSH1 0x40 SHL SUB DUP1 DUP3 GT ISZERO PUSH2 0x234E JUMPI DUP3 DUP4 REVERT JUMPDEST PUSH2 0x235A DUP10 DUP4 DUP11 ADD PUSH2 0x21DC JUMP JUMPDEST SWAP4 POP PUSH1 0x80 DUP9 ADD CALLDATALOAD SWAP2 POP DUP1 DUP3 GT ISZERO PUSH2 0x236F JUMPI DUP3 DUP4 REVERT JUMPDEST POP PUSH2 0x237C DUP9 DUP3 DUP10 ADD PUSH2 0x2110 JUMP JUMPDEST SWAP2 POP POP SWAP3 SWAP6 POP SWAP3 SWAP6 SWAP1 SWAP4 POP JUMP JUMPDEST PUSH1 0x0 DUP1 PUSH1 0x0 DUP1 PUSH1 0x0 PUSH1 0xA0 DUP7 DUP9 SUB SLT ISZERO PUSH2 0x23A0 JUMPI DUP1 DUP2 REVERT JUMPDEST DUP6 CALLDATALOAD PUSH2 0x23AB DUP2 PUSH2 0x2AF8 JUMP JUMPDEST SWAP5 POP PUSH1 0x20 DUP7 ADD CALLDATALOAD PUSH2 0x23BB DUP2 PUSH2 0x2AE0 JUMP JUMPDEST SWAP4 POP PUSH1 0x40 DUP7 ADD CALLDATALOAD PUSH2 0x23CB DUP2 PUSH2 0x2AE0 JUMP JUMPDEST SWAP3 POP PUSH1 0x60 DUP7 ADD CALLDATALOAD PUSH1 0x1 PUSH1 0x1 PUSH1 0x40 SHL SUB DUP2 GT ISZERO PUSH2 0x23E5 JUMPI DUP2 DUP3 REVERT JUMPDEST PUSH2 0x23F1 DUP9 DUP3 DUP10 ADD PUSH2 0x21DC JUMP JUMPDEST SWAP6 SWAP9 SWAP5 SWAP8 POP SWAP3 SWAP6 PUSH1 0x80 ADD CALLDATALOAD SWAP4 SWAP3 POP POP POP JUMP JUMPDEST PUSH1 0x0 PUSH1 0x20 DUP3 DUP5 SUB SLT ISZERO PUSH2 0x2414 JUMPI DUP1 DUP2 REVERT JUMPDEST DUP2 MLOAD PUSH2 0x13D8 DUP2 PUSH2 0x2AE0 JUMP JUMPDEST PUSH1 0x0 DUP1 PUSH1 0x0 DUP1 PUSH1 0x80 DUP6 DUP8 SUB SLT ISZERO PUSH2 0x2434 JUMPI DUP2 DUP3 REVERT JUMPDEST DUP5 CALLDATALOAD PUSH2 0x243F DUP2 PUSH2 0x2AE0 JUMP JUMPDEST SWAP4 POP PUSH1 0x20 DUP6 DUP2 ADD CALLDATALOAD PUSH2 0x2450 DUP2 PUSH2 0x2AE0 JUMP JUMPDEST SWAP4 POP PUSH1 0x40 DUP7 ADD CALLDATALOAD PUSH1 0x1 PUSH1 0x1 PUSH1 0x40 SHL SUB DUP1 DUP3 GT ISZERO PUSH2 0x246B JUMPI DUP5 DUP6 REVERT JUMPDEST DUP2 DUP9 ADD SWAP2 POP DUP9 PUSH1 0x1F DUP4 ADD SLT PUSH2 0x247E JUMPI DUP5 DUP6 REVERT JUMPDEST DUP2 CALLDATALOAD PUSH2 0x248C PUSH2 0x212E DUP3 PUSH2 0x2A72 JUMP JUMPDEST DUP2 DUP2 MSTORE DUP5 DUP2 ADD SWAP1 DUP5 DUP7 ADD DUP7 DUP5 MUL DUP7 ADD DUP8 ADD DUP14 LT ISZERO PUSH2 0x24A8 JUMPI DUP9 DUP10 REVERT JUMPDEST DUP9 SWAP6 POP JUMPDEST DUP4 DUP7 LT ISZERO PUSH2 0x24D3 JUMPI DUP1 CALLDATALOAD PUSH2 0x24BF DUP2 PUSH2 0x2AE0 JUMP JUMPDEST DUP4 MSTORE PUSH1 0x1 SWAP6 SWAP1 SWAP6 ADD SWAP5 SWAP2 DUP7 ADD SWAP2 DUP7 ADD PUSH2 0x24AC JUMP JUMPDEST POP SWAP7 POP POP POP PUSH1 0x60 DUP9 ADD CALLDATALOAD SWAP3 POP DUP1 DUP4 GT ISZERO PUSH2 0x24EB JUMPI DUP4 DUP5 REVERT JUMPDEST POP POP PUSH2 0x24F9 DUP8 DUP3 DUP9 ADD PUSH2 0x2110 JUMP JUMPDEST SWAP2 POP POP SWAP3 SWAP6 SWAP2 SWAP5 POP SWAP3 POP JUMP JUMPDEST PUSH1 0x0 DUP1 PUSH1 0x40 DUP4 DUP6 SUB SLT ISZERO PUSH2 0x2517 JUMPI DUP2 DUP3 REVERT JUMPDEST DUP3 MLOAD PUSH2 0x2522 DUP2 PUSH2 0x2AE0 JUMP JUMPDEST PUSH1 0x20 DUP5 ADD MLOAD SWAP1 SWAP3 POP PUSH1 0x1 PUSH1 0x1 PUSH1 0x40 SHL SUB DUP2 GT ISZERO PUSH2 0x253D JUMPI DUP2 DUP3 REVERT JUMPDEST DUP4 ADD PUSH1 0x1F DUP2 ADD DUP6 SGT PUSH2 0x254D JUMPI DUP2 DUP3 REVERT JUMPDEST DUP1 MLOAD PUSH2 0x255B PUSH2 0x212E DUP3 PUSH2 0x2A91 JUMP JUMPDEST DUP2 DUP2 MSTORE DUP7 PUSH1 0x20 DUP4 DUP6 ADD ADD GT ISZERO PUSH2 0x256F JUMPI DUP4 DUP5 REVERT JUMPDEST PUSH2 0x2580 DUP3 PUSH1 0x20 DUP4 ADD PUSH1 0x20 DUP7 ADD PUSH2 0x2AB4 JUMP JUMPDEST DUP1 SWAP4 POP POP POP POP SWAP3 POP SWAP3 SWAP1 POP JUMP JUMPDEST PUSH1 0x0 PUSH1 0x20 DUP3 DUP5 SUB SLT ISZERO PUSH2 0x259E JUMPI DUP1 DUP2 REVERT JUMPDEST DUP2 MLOAD PUSH3 0xFFFFFF DUP2 AND DUP2 EQ PUSH2 0x13D8 JUMPI DUP2 DUP3 REVERT JUMPDEST PUSH1 0x0 PUSH1 0x20 DUP3 DUP5 SUB SLT ISZERO PUSH2 0x25C1 JUMPI DUP1 DUP2 REVERT JUMPDEST POP MLOAD SWAP2 SWAP1 POP JUMP JUMPDEST PUSH1 0x0 DUP1 PUSH1 0x40 DUP4 DUP6 SUB SLT ISZERO PUSH2 0x25DA JUMPI DUP2 DUP3 REVERT JUMPDEST POP POP DUP1 MLOAD PUSH1 0x20 SWAP1 SWAP2 ADD MLOAD SWAP1 SWAP3 SWAP1 SWAP2 POP JUMP JUMPDEST PUSH1 0x0 DUP2 MLOAD DUP1 DUP5 MSTORE PUSH1 0x20 DUP1 DUP6 ADD SWAP5 POP DUP1 DUP5 ADD DUP4 JUMPDEST DUP4 DUP2 LT ISZERO PUSH2 0x261A JUMPI DUP2 MLOAD DUP8 MSTORE SWAP6 DUP3 ADD SWAP6 SWAP1 DUP3 ADD SWAP1 PUSH1 0x1 ADD PUSH2 0x25FE JUMP JUMPDEST POP SWAP5 SWAP6 SWAP5 POP POP POP POP POP JUMP JUMPDEST PUSH1 0x0 DUP2 MLOAD DUP1 DUP5 MSTORE PUSH2 0x263D DUP2 PUSH1 0x20 DUP7 ADD PUSH1 0x20 DUP7 ADD PUSH2 0x2AB4 JUMP JUMPDEST PUSH1 0x1F ADD PUSH1 0x1F NOT AND SWAP3 SWAP1 SWAP3 ADD PUSH1 0x20 ADD SWAP3 SWAP2 POP POP JUMP JUMPDEST PUSH1 0x0 DUP3 MLOAD PUSH2 0x2663 DUP2 DUP5 PUSH1 0x20 DUP8 ADD PUSH2 0x2AB4 JUMP JUMPDEST SWAP2 SWAP1 SWAP2 ADD SWAP3 SWAP2 POP POP JUMP JUMPDEST PUSH1 0x1 PUSH1 0x1 PUSH1 0xA0 SHL SUB SWAP2 SWAP1 SWAP2 AND DUP2 MSTORE PUSH1 0x20 ADD SWAP1 JUMP JUMPDEST PUSH1 0x1 PUSH1 0x1 PUSH1 0xA0 SHL SUB SWAP3 SWAP1 SWAP3 AND DUP3 MSTORE PUSH1 0x20 DUP3 ADD MSTORE PUSH1 0x40 ADD SWAP1 JUMP JUMPDEST PUSH1 0x1 PUSH1 0x1 PUSH1 0xA0 SHL SUB SWAP3 DUP4 AND DUP2 MSTORE SWAP2 AND PUSH1 0x20 DUP3 ADD MSTORE PUSH1 0x40 ADD SWAP1 JUMP JUMPDEST PUSH1 0x1 PUSH1 0x1 PUSH1 0xA0 SHL SUB DUP6 DUP2 AND DUP3 MSTORE DUP5 AND PUSH1 0x20 DUP3 ADD MSTORE PUSH1 0x80 PUSH1 0x40 DUP3 ADD DUP2 SWAP1 MSTORE PUSH1 0x0 SWAP1 PUSH2 0x26E0 SWAP1 DUP4 ADD DUP6 PUSH2 0x2625 JUMP JUMPDEST SWAP1 POP DUP3 PUSH1 0x60 DUP4 ADD MSTORE SWAP6 SWAP5 POP POP POP POP POP JUMP JUMPDEST PUSH1 0x1 PUSH1 0x1 PUSH1 0xA0 SHL SUB DUP4 AND DUP2 MSTORE PUSH1 0x40 PUSH1 0x20 DUP3 ADD DUP2 SWAP1 MSTORE PUSH1 0x0 SWAP1 PUSH2 0x2715 SWAP1 DUP4 ADD DUP5 PUSH2 0x2625 JUMP JUMPDEST SWAP5 SWAP4 POP POP POP POP JUMP JUMPDEST PUSH1 0x0 PUSH1 0x60 DUP3 ADD PUSH1 0x60 DUP4 MSTORE DUP1 DUP7 MLOAD DUP1 DUP4 MSTORE PUSH1 0x80 DUP6 ADD SWAP2 POP PUSH1 0x20 SWAP3 POP PUSH1 0x80 DUP4 DUP3 MUL DUP7 ADD ADD DUP4 DUP10 ADD DUP6 JUMPDEST DUP4 DUP2 LT ISZERO PUSH2 0x2772 JUMPI PUSH1 0x7F NOT DUP9 DUP5 SUB ADD DUP6 MSTORE PUSH2 0x2760 DUP4 DUP4 MLOAD PUSH2 0x2625 JUMP JUMPDEST SWAP5 DUP7 ADD SWAP5 SWAP3 POP SWAP1 DUP6 ADD SWAP1 PUSH1 0x1 ADD PUSH2 0x2744 JUMP JUMPDEST POP POP DUP6 DUP2 SUB DUP5 DUP8 ADD MSTORE PUSH2 0x2785 DUP2 DUP10 PUSH2 0x25EB JUMP JUMPDEST SWAP4 POP POP POP POP DUP3 DUP2 SUB PUSH1 0x40 DUP5 ADD MSTORE PUSH2 0xF3E DUP2 DUP6 PUSH2 0x25EB JUMP JUMPDEST PUSH1 0x0 PUSH1 0x40 DUP3 MSTORE PUSH2 0x27AF PUSH1 0x40 DUP4 ADD DUP6 PUSH2 0x25EB JUMP JUMPDEST DUP3 DUP2 SUB PUSH1 0x20 DUP5 ADD MSTORE PUSH2 0x59D DUP2 DUP6 PUSH2 0x25EB JUMP JUMPDEST PUSH1 0x1 PUSH1 0x1 PUSH1 0xE0 SHL SUB NOT DUP7 AND DUP2 MSTORE PUSH1 0x1 PUSH1 0x1 PUSH1 0xA0 SHL SUB DUP6 DUP2 AND PUSH1 0x20 DUP4 ADD MSTORE DUP5 AND PUSH1 0x40 DUP3 ADD MSTORE PUSH1 0xA0 PUSH1 0x60 DUP3 ADD DUP2 SWAP1 MSTORE PUSH1 0x0 SWAP1 PUSH2 0x27FD SWAP1 DUP4 ADD DUP6 PUSH2 0x2625 JUMP JUMPDEST DUP3 DUP2 SUB PUSH1 0x80 DUP5 ADD MSTORE PUSH2 0x280F DUP2 DUP6 PUSH2 0x25EB JUMP JUMPDEST SWAP9 SWAP8 POP POP POP POP POP POP POP POP JUMP JUMPDEST PUSH1 0x1 PUSH1 0x1 PUSH1 0xE0 SHL SUB NOT DUP7 AND DUP2 MSTORE PUSH1 0x1 PUSH1 0x1 PUSH1 0xA0 SHL SUB DUP6 DUP2 AND PUSH1 0x20 DUP4 ADD MSTORE DUP5 AND PUSH1 0x40 DUP3 ADD MSTORE PUSH1 0xA0 PUSH1 0x60 DUP3 ADD DUP2 SWAP1 MSTORE PUSH1 0x0 SWAP1 PUSH2 0x2857 SWAP1 DUP4 ADD DUP6 PUSH2 0x2625 JUMP JUMPDEST SWAP1 POP DUP3 PUSH1 0x80 DUP4 ADD MSTORE SWAP7 SWAP6 POP POP POP POP POP POP JUMP JUMPDEST PUSH1 0x1 PUSH1 0x1 PUSH1 0xA0 SHL SUB SWAP4 DUP5 AND DUP2 MSTORE SWAP2 SWAP1 SWAP3 AND PUSH1 0x20 DUP3 ADD MSTORE PUSH3 0xFFFFFF SWAP1 SWAP2 AND PUSH1 0x40 DUP3 ADD MSTORE PUSH1 0x60 ADD SWAP1 JUMP JUMPDEST PUSH1 0x60 DUP2 ADD PUSH1 0x8 DUP6 LT PUSH2 0x289F JUMPI INVALID JUMPDEST SWAP4 DUP2 MSTORE PUSH1 0x20 DUP2 ADD SWAP3 SWAP1 SWAP3 MSTORE PUSH1 0x40 SWAP1 SWAP2 ADD MSTORE SWAP1 JUMP JUMPDEST PUSH1 0x20 DUP1 DUP3 MSTORE PUSH1 0x24 SWAP1 DUP3 ADD MSTORE PUSH32 0x556E6973776170563353616D706C65722F746F6B656E5061746820746F6F2073 PUSH1 0x40 DUP3 ADD MSTORE PUSH4 0x1A1BDC9D PUSH1 0xE2 SHL PUSH1 0x60 DUP3 ADD MSTORE PUSH1 0x80 ADD SWAP1 JUMP JUMPDEST PUSH1 0x20 DUP1 DUP3 MSTORE PUSH1 0x25 SWAP1 DUP3 ADD MSTORE PUSH32 0x556E6973776170563353616D706C65722F696E76616C69642070617468206C65 PUSH1 0x40 DUP3 ADD MSTORE PUSH5 0x6E67746873 PUSH1 0xD8 SHL PUSH1 0x60 DUP3 ADD MSTORE PUSH1 0x80 ADD SWAP1 JUMP JUMPDEST PUSH1 0x20 DUP1 DUP3 MSTORE PUSH1 0x1D SWAP1 DUP3 ADD MSTORE PUSH32 0x42616C616E6365206F6620627579546F6B656E206D7573742062652030000000 PUSH1 0x40 DUP3 ADD MSTORE PUSH1 0x60 ADD SWAP1 JUMP JUMPDEST PUSH1 0x20 DUP1 DUP3 MSTORE PUSH1 0x23 SWAP1 DUP3 ADD MSTORE PUSH32 0x4661696C656420746F206D696E74206F72206465706F7369742073656C6C546F PUSH1 0x40 DUP3 ADD MSTORE PUSH3 0x35B2B7 PUSH1 0xE9 SHL PUSH1 0x60 DUP3 ADD MSTORE PUSH1 0x80 ADD SWAP1 JUMP JUMPDEST PUSH1 0x20 DUP1 DUP3 MSTORE DUP2 DUP2 ADD MSTORE PUSH32 0x537761702053616D706C652073686F756C642068617665207265766572746564 PUSH1 0x40 DUP3 ADD MSTORE PUSH1 0x60 ADD SWAP1 JUMP JUMPDEST PUSH1 0x0 PUSH1 0x20 DUP3 MSTORE DUP3 MLOAD PUSH1 0xA0 PUSH1 0x20 DUP5 ADD MSTORE PUSH2 0x2A07 PUSH1 0xC0 DUP5 ADD DUP3 PUSH2 0x2625 JUMP JUMPDEST SWAP1 POP PUSH1 0x1 DUP1 PUSH1 0xA0 SHL SUB PUSH1 0x20 DUP6 ADD MLOAD AND PUSH1 0x40 DUP5 ADD MSTORE PUSH1 0x40 DUP5 ADD MLOAD PUSH1 0x60 DUP5 ADD MSTORE PUSH1 0x60 DUP5 ADD MLOAD PUSH1 0x80 DUP5 ADD MSTORE PUSH1 0x80 DUP5 ADD MLOAD PUSH1 0xA0 DUP5 ADD MSTORE DUP1 SWAP2 POP POP SWAP3 SWAP2 POP POP JUMP JUMPDEST SWAP1 DUP2 MSTORE PUSH1 0x20 ADD SWAP1 JUMP JUMPDEST PUSH1 0x40 MLOAD DUP2 DUP2 ADD PUSH1 0x1 PUSH1 0x1 PUSH1 0x40 SHL SUB DUP2 GT DUP3 DUP3 LT OR ISZERO PUSH2 0x2A6A JUMPI PUSH1 0x0 DUP1 REVERT JUMPDEST PUSH1 0x40 MSTORE SWAP2 SWAP1 POP JUMP JUMPDEST PUSH1 0x0 PUSH1 0x1 PUSH1 0x1 PUSH1 0x40 SHL SUB DUP3 GT ISZERO PUSH2 0x2A87 JUMPI DUP1 DUP2 REVERT JUMPDEST POP PUSH1 0x20 SWAP1 DUP2 MUL ADD SWAP1 JUMP JUMPDEST PUSH1 0x0 PUSH1 0x1 PUSH1 0x1 PUSH1 0x40 SHL SUB DUP3 GT ISZERO PUSH2 0x2AA6 JUMPI DUP1 DUP2 REVERT JUMPDEST POP PUSH1 0x1F ADD PUSH1 0x1F NOT AND PUSH1 0x20 ADD SWAP1 JUMP JUMPDEST PUSH1 0x0 JUMPDEST DUP4 DUP2 LT ISZERO PUSH2 0x2ACF JUMPI DUP2 DUP2 ADD MLOAD DUP4 DUP3 ADD MSTORE PUSH1 0x20 ADD PUSH2 0x2AB7 JUMP JUMPDEST DUP4 DUP2 GT ISZERO PUSH2 0x1F68 JUMPI POP POP PUSH1 0x0 SWAP2 ADD MSTORE JUMP JUMPDEST PUSH1 0x1 PUSH1 0x1 PUSH1 0xA0 SHL SUB DUP2 AND DUP2 EQ PUSH2 0x2AF5 JUMPI PUSH1 0x0 DUP1 REVERT JUMPDEST POP JUMP JUMPDEST PUSH1 0x1 PUSH1 0x1 PUSH1 0xE0 SHL SUB NOT DUP2 AND DUP2 EQ PUSH2 0x2AF5 JUMPI PUSH1 0x0 DUP1 REVERT INVALID LOG2 PUSH5 0x6970667358 0x22 SLT KECCAK256 0x4D LOG4 0xE8 SWAP1 0xF9 SWAP8 SWAP7 RETURN DUP10 SELFDESTRUCT LOG1 0x4B ADD 0xCB 0xA8 BLOCKHASH 0xAD AND CALLDATALOAD AND 0xE6 0xF9 0x2C DUP4 DIFFICULTY 0x4D PUSH24 0xCDFF414F3E64736F6C634300060C00330000000000000000 "
            }
        }
    },
    "sourceTreeHashHex": "0xf0d3406a21ff6d7e881f29bf4fd546ab75e673018f727804dd8253a3310f400e",
    "compiler": {
        "name": "solc",
        "version": "0.6.12+commit.27d51765",
        "settings": {
            "remappings": [
                "@0x/contracts-zero-ex=/Users/jacob/projects/ethdev/0x/workspace-remote/workspace/0x-monorepo/packages/asset-swapper/node_modules/@0x/contracts-zero-ex",
                "@0x/contracts-erc20=/Users/jacob/projects/ethdev/0x/workspace-remote/workspace/0x-monorepo/packages/asset-swapper/node_modules/@0x/contracts-erc20",
                "@0x/contracts-utils=/Users/jacob/projects/ethdev/0x/workspace-remote/workspace/0x-monorepo/packages/asset-swapper/node_modules/@0x/contracts-utils"
            ],
            "optimizer": {
                "enabled": true,
                "runs": 200,
                "details": {
                    "yul": true,
                    "deduplicate": true
                }
            },
            "outputSelection": {
                "*": {
                    "*": [
                        "abi",
                        "devdoc",
                        "evm.bytecode.object",
                        "evm.bytecode.sourceMap",
                        "evm.deployedBytecode.object",
                        "evm.deployedBytecode.sourceMap"
                    ]
                }
            },
            "evmVersion": "istanbul"
        }
    },
    "chains": {}
}