{
    "schemaVersion": "2.0.0",
    "contractName": "UtilitySampler",
    "compilerOutput": {
        "abi": [
            {
                "inputs": [
                    {
                        "internalType": "contract IERC20TokenV06[]",
                        "name": "tokens",
                        "type": "address[]"
                    },
                    {
                        "internalType": "address",
                        "name": "account",
                        "type": "address"
                    },
                    {
                        "internalType": "address",
                        "name": "spender",
                        "type": "address"
                    }
                ],
                "name": "getAllowanceOf",
                "outputs": [
                    {
                        "internalType": "uint256[]",
                        "name": "allowances",
                        "type": "uint256[]"
                    }
                ],
                "stateMutability": "view",
                "type": "function"
            },
            {
                "inputs": [
                    {
                        "internalType": "contract IERC20TokenV06[]",
                        "name": "tokens",
                        "type": "address[]"
                    },
                    {
                        "internalType": "address",
                        "name": "account",
                        "type": "address"
                    }
                ],
                "name": "getBalanceOf",
                "outputs": [
                    {
                        "internalType": "uint256[]",
                        "name": "balances",
                        "type": "uint256[]"
                    }
                ],
                "stateMutability": "view",
                "type": "function"
            },
            {
                "inputs": [],
                "name": "getBlockNumber",
                "outputs": [
                    {
                        "internalType": "uint256",
                        "name": "",
                        "type": "uint256"
                    }
                ],
                "stateMutability": "view",
                "type": "function"
            },
            {
                "inputs": [],
                "name": "getGasLeft",
                "outputs": [
                    {
                        "internalType": "uint256",
                        "name": "",
                        "type": "uint256"
                    }
                ],
                "stateMutability": "nonpayable",
                "type": "function"
            },
            {
                "inputs": [
                    {
                        "internalType": "contract IERC20TokenV06[]",
                        "name": "tokens",
                        "type": "address[]"
                    }
                ],
                "name": "getTokenDecimals",
                "outputs": [
                    {
                        "internalType": "uint256[]",
                        "name": "decimals",
                        "type": "uint256[]"
                    }
                ],
                "stateMutability": "view",
                "type": "function"
            },
            {
                "inputs": [
                    {
                        "internalType": "address",
                        "name": "account",
                        "type": "address"
                    }
                ],
                "name": "isContract",
                "outputs": [
                    {
                        "internalType": "bool",
                        "name": "",
                        "type": "bool"
                    }
                ],
                "stateMutability": "view",
                "type": "function"
            }
        ],
        "devdoc": {
            "kind": "dev",
            "methods": {},
            "version": 1
        },
        "evm": {
            "bytecode": {
                "linkReferences": {},
                "object": "0x60a06040527feeeeeeeeeeeeeeeeeeeeeeeeeeeeeeeeeeeeeeee00000000000000000000000060805234801561003457600080fd5b5060805160601c610b1d61005c6000398061015d528061025052806103545250610b1d6000f3fe608060405234801561001057600080fd5b50600436106100625760003560e01c8063162790551461006757806342cbb15c1461009057806351be4eaa146100a5578063706e2f9b146100ad578063bd71ecf6146100cd578063e78ac045146100e0575b600080fd5b61007a610075366004610793565b6100f3565b60405161008791906109af565b60405180910390f35b6100986100fd565b60405161008791906109e5565b610098610101565b6100c06100bb3660046107b9565b610109565b604051610087919061099e565b6100c06100db3660046107ee565b6101fc565b6100c06100ee36600461083f565b610300565b803b15155b919050565b4390565b60005a905090565b6060815167ffffffffffffffff8111801561012357600080fd5b5060405190808252806020026020018201604052801561014d578160200160208202803683370190505b50905060005b825181146101f6577f00000000000000000000000000000000000000000000000000000000000000006001600160a01b031683828151811061019157fe5b60200260200101516001600160a01b0316146101d1576101cc8382815181106101b657fe5b60200260200101516001600160a01b03166103fe565b6101d4565b60125b60ff168282815181106101e357fe5b6020908102919091010152600101610153565b50919050565b6060825167ffffffffffffffff8111801561021657600080fd5b50604051908082528060200260200182016040528015610240578160200160208202803683370190505b50905060005b835181146102f9577f00000000000000000000000000000000000000000000000000000000000000006001600160a01b031684828151811061028457fe5b60200260200101516001600160a01b0316146102ce576102c9838583815181106102aa57fe5b60200260200101516001600160a01b03166104aa90919063ffffffff16565b6102da565b826001600160a01b0316315b8282815181106102e657fe5b6020908102919091010152600101610246565b5092915050565b6060835167ffffffffffffffff8111801561031a57600080fd5b50604051908082528060200260200182016040528015610344578160200160208202803683370190505b50905060005b845181146103f6577f00000000000000000000000000000000000000000000000000000000000000006001600160a01b031685828151811061038857fe5b60200260200101516001600160a01b0316146103d4576103cf84848784815181106103af57fe5b60200260200101516001600160a01b031661057f9092919063ffffffff16565b6103d7565b60005b8282815181106103e357fe5b602090810291909101015260010161034a565b509392505050565b60006012905060006060836001600160a01b031660405180604001604052806004815260200163313ce56760e01b81525060405161043c9190610969565b600060405180830381855afa9150503d8060008114610477576040519150601f19603f3d011682016040523d82523d6000602084013e61047c565b606091505b509150915081801561049057506020815110155b156104a3576104a0816000610657565b92505b5050919050565b6000806060846001600160a01b03166370a0823160e01b856040516024016104d29190610975565b60408051601f198184030181529181526020820180516001600160e01b03166001600160e01b03199094169390931790925290516105109190610969565b600060405180830381855afa9150503d806000811461054b576040519150601f19603f3d011682016040523d82523d6000602084013e610550565b606091505b509150915081801561056457506020815110155b1561057757610574816000610657565b92505b505092915050565b6000806060856001600160a01b031663dd62ed3e60e01b86866040516024016105a9929190610983565b60408051601f198184030181529181526020820180516001600160e01b03166001600160e01b03199094169390931790925290516105e79190610969565b600060405180830381855afa9150503d8060008114610622576040519150601f19603f3d011682016040523d82523d6000602084013e610627565b606091505b509150915081801561063b57506020815110155b1561064e5761064b816000610657565b92505b50509392505050565b6000610663838361066c565b90505b92915050565b600081602001835110156106925761069261068d600585518560200161069b565b6106f6565b50016020015190565b6060632800659560e01b8484846040516024016106ba939291906109bd565b60408051601f198184030181529190526020810180516001600160e01b03166001600160e01b03199093169290921790915290505b9392505050565b805160208201fd5b803561066681610aca565b600082601f83011261071a57600080fd5b813561072d61072882610a1a565b6109f3565b9150818183526020840193506020810190508385602084028201111561075257600080fd5b60005b8381101561077e57816107688882610788565b8452506020928301929190910190600101610755565b5050505092915050565b803561066681610ade565b6000602082840312156107a557600080fd5b60006107b184846106fe565b949350505050565b6000602082840312156107cb57600080fd5b813567ffffffffffffffff8111156107e257600080fd5b6107b184828501610709565b6000806040838503121561080157600080fd5b823567ffffffffffffffff81111561081857600080fd5b61082485828601610709565b9250506020610835858286016106fe565b9150509250929050565b60008060006060848603121561085457600080fd5b833567ffffffffffffffff81111561086b57600080fd5b61087786828701610709565b9350506020610888868287016106fe565b9250506040610899868287016106fe565b9150509250925092565b60006108af8383610960565b505060200190565b6108c081610a4e565b82525050565b60006108d182610a41565b6108db8185610a45565b93506108e683610a3b565b8060005b838110156109145781516108fe88826108a3565b975061090983610a3b565b9250506001016108ea565b509495945050505050565b6108c081610a59565b600061093382610a41565b61093d81856100f8565b935061094d818560208601610a8d565b9290920192915050565b6108c081610a82565b6108c081610a7f565b60006106ef8284610928565b6020810161066682846108b7565b6040810161099182856108b7565b6106ef60208301846108b7565b602080825281016106ef81846108c6565b60208101610666828461091f565b606081016109cb8286610957565b6109d86020830185610960565b6107b16040830184610960565b602081016106668284610960565b60405181810167ffffffffffffffff81118282101715610a1257600080fd5b604052919050565b600067ffffffffffffffff821115610a3157600080fd5b5060209081020190565b60200190565b5190565b90815260200190565b600061066682610a73565b151590565b600061066682610a4e565b806100f881610abd565b6001600160a01b031690565b90565b600061066682610a69565b60005b83811015610aa8578181015183820152602001610a90565b83811115610ab7576000848401525b50505050565b60088110610ac757fe5b50565b610ad381610a4e565b8114610ac757600080fd5b610ad381610a5e56fea2646970667358221220e1958f1d1cea27668a88f461447f352321b8744b3a8f87fb26ee9d8b2a744c7264736f6c634300060c0033",
                "opcodes": "PUSH1 0xA0 PUSH1 0x40 MSTORE PUSH32 0xEEEEEEEEEEEEEEEEEEEEEEEEEEEEEEEEEEEEEEEE000000000000000000000000 PUSH1 0x80 MSTORE CALLVALUE DUP1 ISZERO PUSH2 0x34 JUMPI PUSH1 0x0 DUP1 REVERT JUMPDEST POP PUSH1 0x80 MLOAD PUSH1 0x60 SHR PUSH2 0xB1D PUSH2 0x5C PUSH1 0x0 CODECOPY DUP1 PUSH2 0x15D MSTORE DUP1 PUSH2 0x250 MSTORE DUP1 PUSH2 0x354 MSTORE POP PUSH2 0xB1D PUSH1 0x0 RETURN INVALID PUSH1 0x80 PUSH1 0x40 MSTORE CALLVALUE DUP1 ISZERO PUSH2 0x10 JUMPI PUSH1 0x0 DUP1 REVERT JUMPDEST POP PUSH1 0x4 CALLDATASIZE LT PUSH2 0x62 JUMPI PUSH1 0x0 CALLDATALOAD PUSH1 0xE0 SHR DUP1 PUSH4 0x16279055 EQ PUSH2 0x67 JUMPI DUP1 PUSH4 0x42CBB15C EQ PUSH2 0x90 JUMPI DUP1 PUSH4 0x51BE4EAA EQ PUSH2 0xA5 JUMPI DUP1 PUSH4 0x706E2F9B EQ PUSH2 0xAD JUMPI DUP1 PUSH4 0xBD71ECF6 EQ PUSH2 0xCD JUMPI DUP1 PUSH4 0xE78AC045 EQ PUSH2 0xE0 JUMPI JUMPDEST PUSH1 0x0 DUP1 REVERT JUMPDEST PUSH2 0x7A PUSH2 0x75 CALLDATASIZE PUSH1 0x4 PUSH2 0x793 JUMP JUMPDEST PUSH2 0xF3 JUMP JUMPDEST PUSH1 0x40 MLOAD PUSH2 0x87 SWAP2 SWAP1 PUSH2 0x9AF JUMP JUMPDEST PUSH1 0x40 MLOAD DUP1 SWAP2 SUB SWAP1 RETURN JUMPDEST PUSH2 0x98 PUSH2 0xFD JUMP JUMPDEST PUSH1 0x40 MLOAD PUSH2 0x87 SWAP2 SWAP1 PUSH2 0x9E5 JUMP JUMPDEST PUSH2 0x98 PUSH2 0x101 JUMP JUMPDEST PUSH2 0xC0 PUSH2 0xBB CALLDATASIZE PUSH1 0x4 PUSH2 0x7B9 JUMP JUMPDEST PUSH2 0x109 JUMP JUMPDEST PUSH1 0x40 MLOAD PUSH2 0x87 SWAP2 SWAP1 PUSH2 0x99E JUMP JUMPDEST PUSH2 0xC0 PUSH2 0xDB CALLDATASIZE PUSH1 0x4 PUSH2 0x7EE JUMP JUMPDEST PUSH2 0x1FC JUMP JUMPDEST PUSH2 0xC0 PUSH2 0xEE CALLDATASIZE PUSH1 0x4 PUSH2 0x83F JUMP JUMPDEST PUSH2 0x300 JUMP JUMPDEST DUP1 EXTCODESIZE ISZERO ISZERO JUMPDEST SWAP2 SWAP1 POP JUMP JUMPDEST NUMBER SWAP1 JUMP JUMPDEST PUSH1 0x0 GAS SWAP1 POP SWAP1 JUMP JUMPDEST PUSH1 0x60 DUP2 MLOAD PUSH8 0xFFFFFFFFFFFFFFFF DUP2 GT DUP1 ISZERO PUSH2 0x123 JUMPI PUSH1 0x0 DUP1 REVERT JUMPDEST POP PUSH1 0x40 MLOAD SWAP1 DUP1 DUP3 MSTORE DUP1 PUSH1 0x20 MUL PUSH1 0x20 ADD DUP3 ADD PUSH1 0x40 MSTORE DUP1 ISZERO PUSH2 0x14D JUMPI DUP2 PUSH1 0x20 ADD PUSH1 0x20 DUP3 MUL DUP1 CALLDATASIZE DUP4 CALLDATACOPY ADD SWAP1 POP JUMPDEST POP SWAP1 POP PUSH1 0x0 JUMPDEST DUP3 MLOAD DUP2 EQ PUSH2 0x1F6 JUMPI PUSH32 0x0 PUSH1 0x1 PUSH1 0x1 PUSH1 0xA0 SHL SUB AND DUP4 DUP3 DUP2 MLOAD DUP2 LT PUSH2 0x191 JUMPI INVALID JUMPDEST PUSH1 0x20 MUL PUSH1 0x20 ADD ADD MLOAD PUSH1 0x1 PUSH1 0x1 PUSH1 0xA0 SHL SUB AND EQ PUSH2 0x1D1 JUMPI PUSH2 0x1CC DUP4 DUP3 DUP2 MLOAD DUP2 LT PUSH2 0x1B6 JUMPI INVALID JUMPDEST PUSH1 0x20 MUL PUSH1 0x20 ADD ADD MLOAD PUSH1 0x1 PUSH1 0x1 PUSH1 0xA0 SHL SUB AND PUSH2 0x3FE JUMP JUMPDEST PUSH2 0x1D4 JUMP JUMPDEST PUSH1 0x12 JUMPDEST PUSH1 0xFF AND DUP3 DUP3 DUP2 MLOAD DUP2 LT PUSH2 0x1E3 JUMPI INVALID JUMPDEST PUSH1 0x20 SWAP1 DUP2 MUL SWAP2 SWAP1 SWAP2 ADD ADD MSTORE PUSH1 0x1 ADD PUSH2 0x153 JUMP JUMPDEST POP SWAP2 SWAP1 POP JUMP JUMPDEST PUSH1 0x60 DUP3 MLOAD PUSH8 0xFFFFFFFFFFFFFFFF DUP2 GT DUP1 ISZERO PUSH2 0x216 JUMPI PUSH1 0x0 DUP1 REVERT JUMPDEST POP PUSH1 0x40 MLOAD SWAP1 DUP1 DUP3 MSTORE DUP1 PUSH1 0x20 MUL PUSH1 0x20 ADD DUP3 ADD PUSH1 0x40 MSTORE DUP1 ISZERO PUSH2 0x240 JUMPI DUP2 PUSH1 0x20 ADD PUSH1 0x20 DUP3 MUL DUP1 CALLDATASIZE DUP4 CALLDATACOPY ADD SWAP1 POP JUMPDEST POP SWAP1 POP PUSH1 0x0 JUMPDEST DUP4 MLOAD DUP2 EQ PUSH2 0x2F9 JUMPI PUSH32 0x0 PUSH1 0x1 PUSH1 0x1 PUSH1 0xA0 SHL SUB AND DUP5 DUP3 DUP2 MLOAD DUP2 LT PUSH2 0x284 JUMPI INVALID JUMPDEST PUSH1 0x20 MUL PUSH1 0x20 ADD ADD MLOAD PUSH1 0x1 PUSH1 0x1 PUSH1 0xA0 SHL SUB AND EQ PUSH2 0x2CE JUMPI PUSH2 0x2C9 DUP4 DUP6 DUP4 DUP2 MLOAD DUP2 LT PUSH2 0x2AA JUMPI INVALID JUMPDEST PUSH1 0x20 MUL PUSH1 0x20 ADD ADD MLOAD PUSH1 0x1 PUSH1 0x1 PUSH1 0xA0 SHL SUB AND PUSH2 0x4AA SWAP1 SWAP2 SWAP1 PUSH4 0xFFFFFFFF AND JUMP JUMPDEST PUSH2 0x2DA JUMP JUMPDEST DUP3 PUSH1 0x1 PUSH1 0x1 PUSH1 0xA0 SHL SUB AND BALANCE JUMPDEST DUP3 DUP3 DUP2 MLOAD DUP2 LT PUSH2 0x2E6 JUMPI INVALID JUMPDEST PUSH1 0x20 SWAP1 DUP2 MUL SWAP2 SWAP1 SWAP2 ADD ADD MSTORE PUSH1 0x1 ADD PUSH2 0x246 JUMP JUMPDEST POP SWAP3 SWAP2 POP POP JUMP JUMPDEST PUSH1 0x60 DUP4 MLOAD PUSH8 0xFFFFFFFFFFFFFFFF DUP2 GT DUP1 ISZERO PUSH2 0x31A JUMPI PUSH1 0x0 DUP1 REVERT JUMPDEST POP PUSH1 0x40 MLOAD SWAP1 DUP1 DUP3 MSTORE DUP1 PUSH1 0x20 MUL PUSH1 0x20 ADD DUP3 ADD PUSH1 0x40 MSTORE DUP1 ISZERO PUSH2 0x344 JUMPI DUP2 PUSH1 0x20 ADD PUSH1 0x20 DUP3 MUL DUP1 CALLDATASIZE DUP4 CALLDATACOPY ADD SWAP1 POP JUMPDEST POP SWAP1 POP PUSH1 0x0 JUMPDEST DUP5 MLOAD DUP2 EQ PUSH2 0x3F6 JUMPI PUSH32 0x0 PUSH1 0x1 PUSH1 0x1 PUSH1 0xA0 SHL SUB AND DUP6 DUP3 DUP2 MLOAD DUP2 LT PUSH2 0x388 JUMPI INVALID JUMPDEST PUSH1 0x20 MUL PUSH1 0x20 ADD ADD MLOAD PUSH1 0x1 PUSH1 0x1 PUSH1 0xA0 SHL SUB AND EQ PUSH2 0x3D4 JUMPI PUSH2 0x3CF DUP5 DUP5 DUP8 DUP5 DUP2 MLOAD DUP2 LT PUSH2 0x3AF JUMPI INVALID JUMPDEST PUSH1 0x20 MUL PUSH1 0x20 ADD ADD MLOAD PUSH1 0x1 PUSH1 0x1 PUSH1 0xA0 SHL SUB AND PUSH2 0x57F SWAP1 SWAP3 SWAP2 SWAP1 PUSH4 0xFFFFFFFF AND JUMP JUMPDEST PUSH2 0x3D7 JUMP JUMPDEST PUSH1 0x0 JUMPDEST DUP3 DUP3 DUP2 MLOAD DUP2 LT PUSH2 0x3E3 JUMPI INVALID JUMPDEST PUSH1 0x20 SWAP1 DUP2 MUL SWAP2 SWAP1 SWAP2 ADD ADD MSTORE PUSH1 0x1 ADD PUSH2 0x34A JUMP JUMPDEST POP SWAP4 SWAP3 POP POP POP JUMP JUMPDEST PUSH1 0x0 PUSH1 0x12 SWAP1 POP PUSH1 0x0 PUSH1 0x60 DUP4 PUSH1 0x1 PUSH1 0x1 PUSH1 0xA0 SHL SUB AND PUSH1 0x40 MLOAD DUP1 PUSH1 0x40 ADD PUSH1 0x40 MSTORE DUP1 PUSH1 0x4 DUP2 MSTORE PUSH1 0x20 ADD PUSH4 0x313CE567 PUSH1 0xE0 SHL DUP2 MSTORE POP PUSH1 0x40 MLOAD PUSH2 0x43C SWAP2 SWAP1 PUSH2 0x969 JUMP JUMPDEST PUSH1 0x0 PUSH1 0x40 MLOAD DUP1 DUP4 SUB DUP2 DUP6 GAS STATICCALL SWAP2 POP POP RETURNDATASIZE DUP1 PUSH1 0x0 DUP2 EQ PUSH2 0x477 JUMPI PUSH1 0x40 MLOAD SWAP2 POP PUSH1 0x1F NOT PUSH1 0x3F RETURNDATASIZE ADD AND DUP3 ADD PUSH1 0x40 MSTORE RETURNDATASIZE DUP3 MSTORE RETURNDATASIZE PUSH1 0x0 PUSH1 0x20 DUP5 ADD RETURNDATACOPY PUSH2 0x47C JUMP JUMPDEST PUSH1 0x60 SWAP2 POP JUMPDEST POP SWAP2 POP SWAP2 POP DUP2 DUP1 ISZERO PUSH2 0x490 JUMPI POP PUSH1 0x20 DUP2 MLOAD LT ISZERO JUMPDEST ISZERO PUSH2 0x4A3 JUMPI PUSH2 0x4A0 DUP2 PUSH1 0x0 PUSH2 0x657 JUMP JUMPDEST SWAP3 POP JUMPDEST POP POP SWAP2 SWAP1 POP JUMP JUMPDEST PUSH1 0x0 DUP1 PUSH1 0x60 DUP5 PUSH1 0x1 PUSH1 0x1 PUSH1 0xA0 SHL SUB AND PUSH4 0x70A08231 PUSH1 0xE0 SHL DUP6 PUSH1 0x40 MLOAD PUSH1 0x24 ADD PUSH2 0x4D2 SWAP2 SWAP1 PUSH2 0x975 JUMP JUMPDEST PUSH1 0x40 DUP1 MLOAD PUSH1 0x1F NOT DUP2 DUP5 SUB ADD DUP2 MSTORE SWAP2 DUP2 MSTORE PUSH1 0x20 DUP3 ADD DUP1 MLOAD PUSH1 0x1 PUSH1 0x1 PUSH1 0xE0 SHL SUB AND PUSH1 0x1 PUSH1 0x1 PUSH1 0xE0 SHL SUB NOT SWAP1 SWAP5 AND SWAP4 SWAP1 SWAP4 OR SWAP1 SWAP3 MSTORE SWAP1 MLOAD PUSH2 0x510 SWAP2 SWAP1 PUSH2 0x969 JUMP JUMPDEST PUSH1 0x0 PUSH1 0x40 MLOAD DUP1 DUP4 SUB DUP2 DUP6 GAS STATICCALL SWAP2 POP POP RETURNDATASIZE DUP1 PUSH1 0x0 DUP2 EQ PUSH2 0x54B JUMPI PUSH1 0x40 MLOAD SWAP2 POP PUSH1 0x1F NOT PUSH1 0x3F RETURNDATASIZE ADD AND DUP3 ADD PUSH1 0x40 MSTORE RETURNDATASIZE DUP3 MSTORE RETURNDATASIZE PUSH1 0x0 PUSH1 0x20 DUP5 ADD RETURNDATACOPY PUSH2 0x550 JUMP JUMPDEST PUSH1 0x60 SWAP2 POP JUMPDEST POP SWAP2 POP SWAP2 POP DUP2 DUP1 ISZERO PUSH2 0x564 JUMPI POP PUSH1 0x20 DUP2 MLOAD LT ISZERO JUMPDEST ISZERO PUSH2 0x577 JUMPI PUSH2 0x574 DUP2 PUSH1 0x0 PUSH2 0x657 JUMP JUMPDEST SWAP3 POP JUMPDEST POP POP SWAP3 SWAP2 POP POP JUMP JUMPDEST PUSH1 0x0 DUP1 PUSH1 0x60 DUP6 PUSH1 0x1 PUSH1 0x1 PUSH1 0xA0 SHL SUB AND PUSH4 0xDD62ED3E PUSH1 0xE0 SHL DUP7 DUP7 PUSH1 0x40 MLOAD PUSH1 0x24 ADD PUSH2 0x5A9 SWAP3 SWAP2 SWAP1 PUSH2 0x983 JUMP JUMPDEST PUSH1 0x40 DUP1 MLOAD PUSH1 0x1F NOT DUP2 DUP5 SUB ADD DUP2 MSTORE SWAP2 DUP2 MSTORE PUSH1 0x20 DUP3 ADD DUP1 MLOAD PUSH1 0x1 PUSH1 0x1 PUSH1 0xE0 SHL SUB AND PUSH1 0x1 PUSH1 0x1 PUSH1 0xE0 SHL SUB NOT SWAP1 SWAP5 AND SWAP4 SWAP1 SWAP4 OR SWAP1 SWAP3 MSTORE SWAP1 MLOAD PUSH2 0x5E7 SWAP2 SWAP1 PUSH2 0x969 JUMP JUMPDEST PUSH1 0x0 PUSH1 0x40 MLOAD DUP1 DUP4 SUB DUP2 DUP6 GAS STATICCALL SWAP2 POP POP RETURNDATASIZE DUP1 PUSH1 0x0 DUP2 EQ PUSH2 0x622 JUMPI PUSH1 0x40 MLOAD SWAP2 POP PUSH1 0x1F NOT PUSH1 0x3F RETURNDATASIZE ADD AND DUP3 ADD PUSH1 0x40 MSTORE RETURNDATASIZE DUP3 MSTORE RETURNDATASIZE PUSH1 0x0 PUSH1 0x20 DUP5 ADD RETURNDATACOPY PUSH2 0x627 JUMP JUMPDEST PUSH1 0x60 SWAP2 POP JUMPDEST POP SWAP2 POP SWAP2 POP DUP2 DUP1 ISZERO PUSH2 0x63B JUMPI POP PUSH1 0x20 DUP2 MLOAD LT ISZERO JUMPDEST ISZERO PUSH2 0x64E JUMPI PUSH2 0x64B DUP2 PUSH1 0x0 PUSH2 0x657 JUMP JUMPDEST SWAP3 POP JUMPDEST POP POP SWAP4 SWAP3 POP POP POP JUMP JUMPDEST PUSH1 0x0 PUSH2 0x663 DUP4 DUP4 PUSH2 0x66C JUMP JUMPDEST SWAP1 POP JUMPDEST SWAP3 SWAP2 POP POP JUMP JUMPDEST PUSH1 0x0 DUP2 PUSH1 0x20 ADD DUP4 MLOAD LT ISZERO PUSH2 0x692 JUMPI PUSH2 0x692 PUSH2 0x68D PUSH1 0x5 DUP6 MLOAD DUP6 PUSH1 0x20 ADD PUSH2 0x69B JUMP JUMPDEST PUSH2 0x6F6 JUMP JUMPDEST POP ADD PUSH1 0x20 ADD MLOAD SWAP1 JUMP JUMPDEST PUSH1 0x60 PUSH4 0x28006595 PUSH1 0xE0 SHL DUP5 DUP5 DUP5 PUSH1 0x40 MLOAD PUSH1 0x24 ADD PUSH2 0x6BA SWAP4 SWAP3 SWAP2 SWAP1 PUSH2 0x9BD JUMP JUMPDEST PUSH1 0x40 DUP1 MLOAD PUSH1 0x1F NOT DUP2 DUP5 SUB ADD DUP2 MSTORE SWAP2 SWAP1 MSTORE PUSH1 0x20 DUP2 ADD DUP1 MLOAD PUSH1 0x1 PUSH1 0x1 PUSH1 0xE0 SHL SUB AND PUSH1 0x1 PUSH1 0x1 PUSH1 0xE0 SHL SUB NOT SWAP1 SWAP4 AND SWAP3 SWAP1 SWAP3 OR SWAP1 SWAP2 MSTORE SWAP1 POP JUMPDEST SWAP4 SWAP3 POP POP POP JUMP JUMPDEST DUP1 MLOAD PUSH1 0x20 DUP3 ADD REVERT JUMPDEST DUP1 CALLDATALOAD PUSH2 0x666 DUP2 PUSH2 0xACA JUMP JUMPDEST PUSH1 0x0 DUP3 PUSH1 0x1F DUP4 ADD SLT PUSH2 0x71A JUMPI PUSH1 0x0 DUP1 REVERT JUMPDEST DUP2 CALLDATALOAD PUSH2 0x72D PUSH2 0x728 DUP3 PUSH2 0xA1A JUMP JUMPDEST PUSH2 0x9F3 JUMP JUMPDEST SWAP2 POP DUP2 DUP2 DUP4 MSTORE PUSH1 0x20 DUP5 ADD SWAP4 POP PUSH1 0x20 DUP2 ADD SWAP1 POP DUP4 DUP6 PUSH1 0x20 DUP5 MUL DUP3 ADD GT ISZERO PUSH2 0x752 JUMPI PUSH1 0x0 DUP1 REVERT JUMPDEST PUSH1 0x0 JUMPDEST DUP4 DUP2 LT ISZERO PUSH2 0x77E JUMPI DUP2 PUSH2 0x768 DUP9 DUP3 PUSH2 0x788 JUMP JUMPDEST DUP5 MSTORE POP PUSH1 0x20 SWAP3 DUP4 ADD SWAP3 SWAP2 SWAP1 SWAP2 ADD SWAP1 PUSH1 0x1 ADD PUSH2 0x755 JUMP JUMPDEST POP POP POP POP SWAP3 SWAP2 POP POP JUMP JUMPDEST DUP1 CALLDATALOAD PUSH2 0x666 DUP2 PUSH2 0xADE JUMP JUMPDEST PUSH1 0x0 PUSH1 0x20 DUP3 DUP5 SUB SLT ISZERO PUSH2 0x7A5 JUMPI PUSH1 0x0 DUP1 REVERT JUMPDEST PUSH1 0x0 PUSH2 0x7B1 DUP5 DUP5 PUSH2 0x6FE JUMP JUMPDEST SWAP5 SWAP4 POP POP POP POP JUMP JUMPDEST PUSH1 0x0 PUSH1 0x20 DUP3 DUP5 SUB SLT ISZERO PUSH2 0x7CB JUMPI PUSH1 0x0 DUP1 REVERT JUMPDEST DUP2 CALLDATALOAD PUSH8 0xFFFFFFFFFFFFFFFF DUP2 GT ISZERO PUSH2 0x7E2 JUMPI PUSH1 0x0 DUP1 REVERT JUMPDEST PUSH2 0x7B1 DUP5 DUP3 DUP6 ADD PUSH2 0x709 JUMP JUMPDEST PUSH1 0x0 DUP1 PUSH1 0x40 DUP4 DUP6 SUB SLT ISZERO PUSH2 0x801 JUMPI PUSH1 0x0 DUP1 REVERT JUMPDEST DUP3 CALLDATALOAD PUSH8 0xFFFFFFFFFFFFFFFF DUP2 GT ISZERO PUSH2 0x818 JUMPI PUSH1 0x0 DUP1 REVERT JUMPDEST PUSH2 0x824 DUP6 DUP3 DUP7 ADD PUSH2 0x709 JUMP JUMPDEST SWAP3 POP POP PUSH1 0x20 PUSH2 0x835 DUP6 DUP3 DUP7 ADD PUSH2 0x6FE JUMP JUMPDEST SWAP2 POP POP SWAP3 POP SWAP3 SWAP1 POP JUMP JUMPDEST PUSH1 0x0 DUP1 PUSH1 0x0 PUSH1 0x60 DUP5 DUP7 SUB SLT ISZERO PUSH2 0x854 JUMPI PUSH1 0x0 DUP1 REVERT JUMPDEST DUP4 CALLDATALOAD PUSH8 0xFFFFFFFFFFFFFFFF DUP2 GT ISZERO PUSH2 0x86B JUMPI PUSH1 0x0 DUP1 REVERT JUMPDEST PUSH2 0x877 DUP7 DUP3 DUP8 ADD PUSH2 0x709 JUMP JUMPDEST SWAP4 POP POP PUSH1 0x20 PUSH2 0x888 DUP7 DUP3 DUP8 ADD PUSH2 0x6FE JUMP JUMPDEST SWAP3 POP POP PUSH1 0x40 PUSH2 0x899 DUP7 DUP3 DUP8 ADD PUSH2 0x6FE JUMP JUMPDEST SWAP2 POP POP SWAP3 POP SWAP3 POP SWAP3 JUMP JUMPDEST PUSH1 0x0 PUSH2 0x8AF DUP4 DUP4 PUSH2 0x960 JUMP JUMPDEST POP POP PUSH1 0x20 ADD SWAP1 JUMP JUMPDEST PUSH2 0x8C0 DUP2 PUSH2 0xA4E JUMP JUMPDEST DUP3 MSTORE POP POP JUMP JUMPDEST PUSH1 0x0 PUSH2 0x8D1 DUP3 PUSH2 0xA41 JUMP JUMPDEST PUSH2 0x8DB DUP2 DUP6 PUSH2 0xA45 JUMP JUMPDEST SWAP4 POP PUSH2 0x8E6 DUP4 PUSH2 0xA3B JUMP JUMPDEST DUP1 PUSH1 0x0 JUMPDEST DUP4 DUP2 LT ISZERO PUSH2 0x914 JUMPI DUP2 MLOAD PUSH2 0x8FE DUP9 DUP3 PUSH2 0x8A3 JUMP JUMPDEST SWAP8 POP PUSH2 0x909 DUP4 PUSH2 0xA3B JUMP JUMPDEST SWAP3 POP POP PUSH1 0x1 ADD PUSH2 0x8EA JUMP JUMPDEST POP SWAP5 SWAP6 SWAP5 POP POP POP POP POP JUMP JUMPDEST PUSH2 0x8C0 DUP2 PUSH2 0xA59 JUMP JUMPDEST PUSH1 0x0 PUSH2 0x933 DUP3 PUSH2 0xA41 JUMP JUMPDEST PUSH2 0x93D DUP2 DUP6 PUSH2 0xF8 JUMP JUMPDEST SWAP4 POP PUSH2 0x94D DUP2 DUP6 PUSH1 0x20 DUP7 ADD PUSH2 0xA8D JUMP JUMPDEST SWAP3 SWAP1 SWAP3 ADD SWAP3 SWAP2 POP POP JUMP JUMPDEST PUSH2 0x8C0 DUP2 PUSH2 0xA82 JUMP JUMPDEST PUSH2 0x8C0 DUP2 PUSH2 0xA7F JUMP JUMPDEST PUSH1 0x0 PUSH2 0x6EF DUP3 DUP5 PUSH2 0x928 JUMP JUMPDEST PUSH1 0x20 DUP2 ADD PUSH2 0x666 DUP3 DUP5 PUSH2 0x8B7 JUMP JUMPDEST PUSH1 0x40 DUP2 ADD PUSH2 0x991 DUP3 DUP6 PUSH2 0x8B7 JUMP JUMPDEST PUSH2 0x6EF PUSH1 0x20 DUP4 ADD DUP5 PUSH2 0x8B7 JUMP JUMPDEST PUSH1 0x20 DUP1 DUP3 MSTORE DUP2 ADD PUSH2 0x6EF DUP2 DUP5 PUSH2 0x8C6 JUMP JUMPDEST PUSH1 0x20 DUP2 ADD PUSH2 0x666 DUP3 DUP5 PUSH2 0x91F JUMP JUMPDEST PUSH1 0x60 DUP2 ADD PUSH2 0x9CB DUP3 DUP7 PUSH2 0x957 JUMP JUMPDEST PUSH2 0x9D8 PUSH1 0x20 DUP4 ADD DUP6 PUSH2 0x960 JUMP JUMPDEST PUSH2 0x7B1 PUSH1 0x40 DUP4 ADD DUP5 PUSH2 0x960 JUMP JUMPDEST PUSH1 0x20 DUP2 ADD PUSH2 0x666 DUP3 DUP5 PUSH2 0x960 JUMP JUMPDEST PUSH1 0x40 MLOAD DUP2 DUP2 ADD PUSH8 0xFFFFFFFFFFFFFFFF DUP2 GT DUP3 DUP3 LT OR ISZERO PUSH2 0xA12 JUMPI PUSH1 0x0 DUP1 REVERT JUMPDEST PUSH1 0x40 MSTORE SWAP2 SWAP1 POP JUMP JUMPDEST PUSH1 0x0 PUSH8 0xFFFFFFFFFFFFFFFF DUP3 GT ISZERO PUSH2 0xA31 JUMPI PUSH1 0x0 DUP1 REVERT JUMPDEST POP PUSH1 0x20 SWAP1 DUP2 MUL ADD SWAP1 JUMP JUMPDEST PUSH1 0x20 ADD SWAP1 JUMP JUMPDEST MLOAD SWAP1 JUMP JUMPDEST SWAP1 DUP2 MSTORE PUSH1 0x20 ADD SWAP1 JUMP JUMPDEST PUSH1 0x0 PUSH2 0x666 DUP3 PUSH2 0xA73 JUMP JUMPDEST ISZERO ISZERO SWAP1 JUMP JUMPDEST PUSH1 0x0 PUSH2 0x666 DUP3 PUSH2 0xA4E JUMP JUMPDEST DUP1 PUSH2 0xF8 DUP2 PUSH2 0xABD JUMP JUMPDEST PUSH1 0x1 PUSH1 0x1 PUSH1 0xA0 SHL SUB AND SWAP1 JUMP JUMPDEST SWAP1 JUMP JUMPDEST PUSH1 0x0 PUSH2 0x666 DUP3 PUSH2 0xA69 JUMP JUMPDEST PUSH1 0x0 JUMPDEST DUP4 DUP2 LT ISZERO PUSH2 0xAA8 JUMPI DUP2 DUP2 ADD MLOAD DUP4 DUP3 ADD MSTORE PUSH1 0x20 ADD PUSH2 0xA90 JUMP JUMPDEST DUP4 DUP2 GT ISZERO PUSH2 0xAB7 JUMPI PUSH1 0x0 DUP5 DUP5 ADD MSTORE JUMPDEST POP POP POP POP JUMP JUMPDEST PUSH1 0x8 DUP2 LT PUSH2 0xAC7 JUMPI INVALID JUMPDEST POP JUMP JUMPDEST PUSH2 0xAD3 DUP2 PUSH2 0xA4E JUMP JUMPDEST DUP2 EQ PUSH2 0xAC7 JUMPI PUSH1 0x0 DUP1 REVERT JUMPDEST PUSH2 0xAD3 DUP2 PUSH2 0xA5E JUMP INVALID LOG2 PUSH5 0x6970667358 0x22 SLT KECCAK256 0xE1 SWAP6 DUP16 SAR SHR 0xEA 0x27 PUSH7 0x8A88F461447F35 0x23 0x21 0xB8 PUSH21 0x4B3A8F87FB26EE9D8B2A744C7264736F6C63430006 0xC STOP CALLER "
            }
        }
    },
    "sourceTreeHashHex": "0x1af9a355b6588aef7ade6a9fbcd64235c4b16577e33327eeee2e369f3986fd1e",
    "compiler": {
        "name": "solc",
        "version": "0.6.12+commit.27d51765",
        "settings": {
            "remappings": [
                "@0x/contracts-utils=/Users/jacob/projects/ethdev/0x/workspace-remote/workspace/protocol/packages/asset-swapper/node_modules/@0x/contracts-utils",
                "@0x/contracts-erc20=/Users/jacob/projects/ethdev/0x/workspace-remote/workspace/protocol/packages/asset-swapper/node_modules/@0x/contracts-erc20",
                "@0x/contracts-zero-ex=/Users/jacob/projects/ethdev/0x/workspace-remote/workspace/protocol/packages/asset-swapper/node_modules/@0x/contracts-zero-ex"
            ],
            "optimizer": {
                "enabled": true,
                "runs": 200,
                "details": {
                    "yul": false,
                    "deduplicate": true
                }
            },
            "outputSelection": {
                "*": {
                    "*": [
                        "abi",
                        "devdoc",
                        "evm.bytecode.object",
                        "evm.bytecode.sourceMap",
                        "evm.deployedBytecode.object",
                        "evm.deployedBytecode.sourceMap"
                    ]
                }
            },
            "evmVersion": "istanbul"
        }
    },
    "chains": {}
}