{
    "schemaVersion": "2.0.0",
    "contractName": "DevUtils",
    "compilerOutput": {
        "abi": [
            {
                "inputs": [
                    {
                        "internalType": "address",
                        "name": "exchange_",
                        "type": "address"
                    },
                    {
                        "internalType": "address",
                        "name": "chaiBridge_",
                        "type": "address"
                    },
                    {
                        "internalType": "address",
                        "name": "dydxBridge_",
                        "type": "address"
                    }
                ],
                "payable": false,
                "stateMutability": "nonpayable",
                "type": "constructor"
            },
            {
                "constant": true,
                "inputs": [],
                "name": "EIP712_EXCHANGE_DOMAIN_HASH",
                "outputs": [
                    {
                        "internalType": "bytes32",
                        "name": "",
                        "type": "bytes32"
                    }
                ],
                "payable": false,
                "stateMutability": "view",
                "type": "function"
            },
            {
                "constant": true,
                "inputs": [],
                "name": "chaiBridgeAddress",
                "outputs": [
                    {
                        "internalType": "address",
                        "name": "",
                        "type": "address"
                    }
                ],
                "payable": false,
                "stateMutability": "view",
                "type": "function"
            },
            {
                "constant": true,
                "inputs": [
                    {
                        "internalType": "bytes",
                        "name": "assetData",
                        "type": "bytes"
                    }
                ],
                "name": "decodeAssetProxyId",
                "outputs": [
                    {
                        "internalType": "bytes4",
                        "name": "assetProxyId",
                        "type": "bytes4"
                    }
                ],
                "payable": false,
                "stateMutability": "pure",
                "type": "function"
            },
            {
                "constant": true,
                "inputs": [
                    {
                        "internalType": "bytes",
                        "name": "assetData",
                        "type": "bytes"
                    }
                ],
                "name": "decodeERC1155AssetData",
                "outputs": [
                    {
                        "internalType": "bytes4",
                        "name": "assetProxyId",
                        "type": "bytes4"
                    },
                    {
                        "internalType": "address",
                        "name": "tokenAddress",
                        "type": "address"
                    },
                    {
                        "internalType": "uint256[]",
                        "name": "tokenIds",
                        "type": "uint256[]"
                    },
                    {
                        "internalType": "uint256[]",
                        "name": "tokenValues",
                        "type": "uint256[]"
                    },
                    {
                        "internalType": "bytes",
                        "name": "callbackData",
                        "type": "bytes"
                    }
                ],
                "payable": false,
                "stateMutability": "pure",
                "type": "function"
            },
            {
                "constant": true,
                "inputs": [
                    {
                        "internalType": "bytes",
                        "name": "assetData",
                        "type": "bytes"
                    }
                ],
                "name": "decodeERC20AssetData",
                "outputs": [
                    {
                        "internalType": "bytes4",
                        "name": "assetProxyId",
                        "type": "bytes4"
                    },
                    {
                        "internalType": "address",
                        "name": "tokenAddress",
                        "type": "address"
                    }
                ],
                "payable": false,
                "stateMutability": "pure",
                "type": "function"
            },
            {
                "constant": true,
                "inputs": [
                    {
                        "internalType": "bytes",
                        "name": "assetData",
                        "type": "bytes"
                    }
                ],
                "name": "decodeERC20BridgeAssetData",
                "outputs": [
                    {
                        "internalType": "bytes4",
                        "name": "assetProxyId",
                        "type": "bytes4"
                    },
                    {
                        "internalType": "address",
                        "name": "tokenAddress",
                        "type": "address"
                    },
                    {
                        "internalType": "address",
                        "name": "bridgeAddress",
                        "type": "address"
                    },
                    {
                        "internalType": "bytes",
                        "name": "bridgeData",
                        "type": "bytes"
                    }
                ],
                "payable": false,
                "stateMutability": "pure",
                "type": "function"
            },
            {
                "constant": true,
                "inputs": [
                    {
                        "internalType": "bytes",
                        "name": "assetData",
                        "type": "bytes"
                    }
                ],
                "name": "decodeERC721AssetData",
                "outputs": [
                    {
                        "internalType": "bytes4",
                        "name": "assetProxyId",
                        "type": "bytes4"
                    },
                    {
                        "internalType": "address",
                        "name": "tokenAddress",
                        "type": "address"
                    },
                    {
                        "internalType": "uint256",
                        "name": "tokenId",
                        "type": "uint256"
                    }
                ],
                "payable": false,
                "stateMutability": "pure",
                "type": "function"
            },
            {
                "constant": true,
                "inputs": [
                    {
                        "internalType": "bytes",
                        "name": "assetData",
                        "type": "bytes"
                    }
                ],
                "name": "decodeMultiAssetData",
                "outputs": [
                    {
                        "internalType": "bytes4",
                        "name": "assetProxyId",
                        "type": "bytes4"
                    },
                    {
                        "internalType": "uint256[]",
                        "name": "amounts",
                        "type": "uint256[]"
                    },
                    {
                        "internalType": "bytes[]",
                        "name": "nestedAssetData",
                        "type": "bytes[]"
                    }
                ],
                "payable": false,
                "stateMutability": "pure",
                "type": "function"
            },
            {
                "constant": true,
                "inputs": [
                    {
                        "internalType": "bytes",
                        "name": "assetData",
                        "type": "bytes"
                    }
                ],
                "name": "decodeStaticCallAssetData",
                "outputs": [
                    {
                        "internalType": "bytes4",
                        "name": "assetProxyId",
                        "type": "bytes4"
                    },
                    {
                        "internalType": "address",
                        "name": "staticCallTargetAddress",
                        "type": "address"
                    },
                    {
                        "internalType": "bytes",
                        "name": "staticCallData",
                        "type": "bytes"
                    },
                    {
                        "internalType": "bytes32",
                        "name": "expectedReturnDataHash",
                        "type": "bytes32"
                    }
                ],
                "payable": false,
                "stateMutability": "pure",
                "type": "function"
            },
            {
                "constant": true,
                "inputs": [
                    {
                        "internalType": "bytes",
                        "name": "transactionData",
                        "type": "bytes"
                    }
                ],
                "name": "decodeZeroExTransactionData",
                "outputs": [
                    {
                        "internalType": "string",
                        "name": "functionName",
                        "type": "string"
                    },
                    {
                        "components": [
                            {
                                "internalType": "address",
                                "name": "makerAddress",
                                "type": "address"
                            },
                            {
                                "internalType": "address",
                                "name": "takerAddress",
                                "type": "address"
                            },
                            {
                                "internalType": "address",
                                "name": "feeRecipientAddress",
                                "type": "address"
                            },
                            {
                                "internalType": "address",
                                "name": "senderAddress",
                                "type": "address"
                            },
                            {
                                "internalType": "uint256",
                                "name": "makerAssetAmount",
                                "type": "uint256"
                            },
                            {
                                "internalType": "uint256",
                                "name": "takerAssetAmount",
                                "type": "uint256"
                            },
                            {
                                "internalType": "uint256",
                                "name": "makerFee",
                                "type": "uint256"
                            },
                            {
                                "internalType": "uint256",
                                "name": "takerFee",
                                "type": "uint256"
                            },
                            {
                                "internalType": "uint256",
                                "name": "expirationTimeSeconds",
                                "type": "uint256"
                            },
                            {
                                "internalType": "uint256",
                                "name": "salt",
                                "type": "uint256"
                            },
                            {
                                "internalType": "bytes",
                                "name": "makerAssetData",
                                "type": "bytes"
                            },
                            {
                                "internalType": "bytes",
                                "name": "takerAssetData",
                                "type": "bytes"
                            },
                            {
                                "internalType": "bytes",
                                "name": "makerFeeAssetData",
                                "type": "bytes"
                            },
                            {
                                "internalType": "bytes",
                                "name": "takerFeeAssetData",
                                "type": "bytes"
                            }
                        ],
                        "internalType": "struct LibOrder.Order[]",
                        "name": "orders",
                        "type": "tuple[]"
                    },
                    {
                        "internalType": "uint256[]",
                        "name": "takerAssetFillAmounts",
                        "type": "uint256[]"
                    },
                    {
                        "internalType": "bytes[]",
                        "name": "signatures",
                        "type": "bytes[]"
                    }
                ],
                "payable": false,
                "stateMutability": "pure",
                "type": "function"
            },
            {
                "constant": true,
                "inputs": [],
                "name": "dydxBridgeAddress",
                "outputs": [
                    {
                        "internalType": "address",
                        "name": "",
                        "type": "address"
                    }
                ],
                "payable": false,
                "stateMutability": "view",
                "type": "function"
            },
            {
                "constant": true,
                "inputs": [
                    {
                        "internalType": "address",
                        "name": "tokenAddress",
                        "type": "address"
                    },
                    {
                        "internalType": "uint256[]",
                        "name": "tokenIds",
                        "type": "uint256[]"
                    },
                    {
                        "internalType": "uint256[]",
                        "name": "tokenValues",
                        "type": "uint256[]"
                    },
                    {
                        "internalType": "bytes",
                        "name": "callbackData",
                        "type": "bytes"
                    }
                ],
                "name": "encodeERC1155AssetData",
                "outputs": [
                    {
                        "internalType": "bytes",
                        "name": "assetData",
                        "type": "bytes"
                    }
                ],
                "payable": false,
                "stateMutability": "pure",
                "type": "function"
            },
            {
                "constant": true,
                "inputs": [
                    {
                        "internalType": "address",
                        "name": "tokenAddress",
                        "type": "address"
                    }
                ],
                "name": "encodeERC20AssetData",
                "outputs": [
                    {
                        "internalType": "bytes",
                        "name": "assetData",
                        "type": "bytes"
                    }
                ],
                "payable": false,
                "stateMutability": "pure",
                "type": "function"
            },
            {
                "constant": true,
                "inputs": [
                    {
                        "internalType": "address",
                        "name": "tokenAddress",
                        "type": "address"
                    },
                    {
                        "internalType": "uint256",
                        "name": "tokenId",
                        "type": "uint256"
                    }
                ],
                "name": "encodeERC721AssetData",
                "outputs": [
                    {
                        "internalType": "bytes",
                        "name": "assetData",
                        "type": "bytes"
                    }
                ],
                "payable": false,
                "stateMutability": "pure",
                "type": "function"
            },
            {
                "constant": true,
                "inputs": [
                    {
                        "internalType": "uint256[]",
                        "name": "amounts",
                        "type": "uint256[]"
                    },
                    {
                        "internalType": "bytes[]",
                        "name": "nestedAssetData",
                        "type": "bytes[]"
                    }
                ],
                "name": "encodeMultiAssetData",
                "outputs": [
                    {
                        "internalType": "bytes",
                        "name": "assetData",
                        "type": "bytes"
                    }
                ],
                "payable": false,
                "stateMutability": "pure",
                "type": "function"
            },
            {
                "constant": true,
                "inputs": [
                    {
                        "internalType": "address",
                        "name": "staticCallTargetAddress",
                        "type": "address"
                    },
                    {
                        "internalType": "bytes",
                        "name": "staticCallData",
                        "type": "bytes"
                    },
                    {
                        "internalType": "bytes32",
                        "name": "expectedReturnDataHash",
                        "type": "bytes32"
                    }
                ],
                "name": "encodeStaticCallAssetData",
                "outputs": [
                    {
                        "internalType": "bytes",
                        "name": "assetData",
                        "type": "bytes"
                    }
                ],
                "payable": false,
                "stateMutability": "pure",
                "type": "function"
            },
            {
                "constant": true,
                "inputs": [],
                "name": "erc1155ProxyAddress",
                "outputs": [
                    {
                        "internalType": "address",
                        "name": "",
                        "type": "address"
                    }
                ],
                "payable": false,
                "stateMutability": "view",
                "type": "function"
            },
            {
                "constant": true,
                "inputs": [],
                "name": "erc20ProxyAddress",
                "outputs": [
                    {
                        "internalType": "address",
                        "name": "",
                        "type": "address"
                    }
                ],
                "payable": false,
                "stateMutability": "view",
                "type": "function"
            },
            {
                "constant": true,
                "inputs": [],
                "name": "erc721ProxyAddress",
                "outputs": [
                    {
                        "internalType": "address",
                        "name": "",
                        "type": "address"
                    }
                ],
                "payable": false,
                "stateMutability": "view",
                "type": "function"
            },
            {
                "constant": true,
                "inputs": [],
                "name": "exchangeAddress",
                "outputs": [
                    {
                        "internalType": "address",
                        "name": "",
                        "type": "address"
                    }
                ],
                "payable": false,
                "stateMutability": "view",
                "type": "function"
            },
            {
                "constant": false,
                "inputs": [
                    {
                        "internalType": "address",
                        "name": "ownerAddress",
                        "type": "address"
                    },
                    {
                        "internalType": "bytes",
                        "name": "assetData",
                        "type": "bytes"
                    }
                ],
                "name": "getAssetProxyAllowance",
                "outputs": [
                    {
                        "internalType": "uint256",
                        "name": "allowance",
                        "type": "uint256"
                    }
                ],
                "payable": false,
                "stateMutability": "nonpayable",
                "type": "function"
            },
            {
                "constant": false,
                "inputs": [
                    {
                        "internalType": "address",
                        "name": "ownerAddress",
                        "type": "address"
                    },
                    {
                        "internalType": "bytes",
                        "name": "assetData",
                        "type": "bytes"
                    }
                ],
                "name": "getBalance",
                "outputs": [
                    {
                        "internalType": "uint256",
                        "name": "balance",
                        "type": "uint256"
                    }
                ],
                "payable": false,
                "stateMutability": "nonpayable",
                "type": "function"
            },
            {
                "constant": false,
                "inputs": [
                    {
                        "internalType": "address",
                        "name": "ownerAddress",
                        "type": "address"
                    },
                    {
                        "internalType": "bytes",
                        "name": "assetData",
                        "type": "bytes"
                    }
                ],
                "name": "getBalanceAndAssetProxyAllowance",
                "outputs": [
                    {
                        "internalType": "uint256",
                        "name": "balance",
                        "type": "uint256"
                    },
                    {
                        "internalType": "uint256",
                        "name": "allowance",
                        "type": "uint256"
                    }
                ],
                "payable": false,
                "stateMutability": "nonpayable",
                "type": "function"
            },
            {
                "constant": false,
                "inputs": [
                    {
                        "internalType": "address",
                        "name": "ownerAddress",
                        "type": "address"
                    },
                    {
                        "internalType": "bytes[]",
                        "name": "assetData",
                        "type": "bytes[]"
                    }
                ],
                "name": "getBatchAssetProxyAllowances",
                "outputs": [
                    {
                        "internalType": "uint256[]",
                        "name": "allowances",
                        "type": "uint256[]"
                    }
                ],
                "payable": false,
                "stateMutability": "nonpayable",
                "type": "function"
            },
            {
                "constant": false,
                "inputs": [
                    {
                        "internalType": "address",
                        "name": "ownerAddress",
                        "type": "address"
                    },
                    {
                        "internalType": "bytes[]",
                        "name": "assetData",
                        "type": "bytes[]"
                    }
                ],
                "name": "getBatchBalances",
                "outputs": [
                    {
                        "internalType": "uint256[]",
                        "name": "balances",
                        "type": "uint256[]"
                    }
                ],
                "payable": false,
                "stateMutability": "nonpayable",
                "type": "function"
            },
            {
                "constant": false,
                "inputs": [
                    {
                        "internalType": "address",
                        "name": "ownerAddress",
                        "type": "address"
                    },
                    {
                        "internalType": "bytes[]",
                        "name": "assetData",
                        "type": "bytes[]"
                    }
                ],
                "name": "getBatchBalancesAndAssetProxyAllowances",
                "outputs": [
                    {
                        "internalType": "uint256[]",
                        "name": "balances",
                        "type": "uint256[]"
                    },
                    {
                        "internalType": "uint256[]",
                        "name": "allowances",
                        "type": "uint256[]"
                    }
                ],
                "payable": false,
                "stateMutability": "nonpayable",
                "type": "function"
            },
            {
                "constant": true,
                "inputs": [
                    {
                        "internalType": "address[]",
                        "name": "addresses",
                        "type": "address[]"
                    }
                ],
                "name": "getEthBalances",
                "outputs": [
                    {
                        "internalType": "uint256[]",
                        "name": "",
                        "type": "uint256[]"
                    }
                ],
                "payable": false,
                "stateMutability": "view",
                "type": "function"
            },
            {
                "constant": true,
                "inputs": [
                    {
                        "components": [
                            {
                                "internalType": "address",
                                "name": "makerAddress",
                                "type": "address"
                            },
                            {
                                "internalType": "address",
                                "name": "takerAddress",
                                "type": "address"
                            },
                            {
                                "internalType": "address",
                                "name": "feeRecipientAddress",
                                "type": "address"
                            },
                            {
                                "internalType": "address",
                                "name": "senderAddress",
                                "type": "address"
                            },
                            {
                                "internalType": "uint256",
                                "name": "makerAssetAmount",
                                "type": "uint256"
                            },
                            {
                                "internalType": "uint256",
                                "name": "takerAssetAmount",
                                "type": "uint256"
                            },
                            {
                                "internalType": "uint256",
                                "name": "makerFee",
                                "type": "uint256"
                            },
                            {
                                "internalType": "uint256",
                                "name": "takerFee",
                                "type": "uint256"
                            },
                            {
                                "internalType": "uint256",
                                "name": "expirationTimeSeconds",
                                "type": "uint256"
                            },
                            {
                                "internalType": "uint256",
                                "name": "salt",
                                "type": "uint256"
                            },
                            {
                                "internalType": "bytes",
                                "name": "makerAssetData",
                                "type": "bytes"
                            },
                            {
                                "internalType": "bytes",
                                "name": "takerAssetData",
                                "type": "bytes"
                            },
                            {
                                "internalType": "bytes",
                                "name": "makerFeeAssetData",
                                "type": "bytes"
                            },
                            {
                                "internalType": "bytes",
                                "name": "takerFeeAssetData",
                                "type": "bytes"
                            }
                        ],
                        "internalType": "struct LibOrder.Order",
                        "name": "order",
                        "type": "tuple"
                    },
                    {
                        "internalType": "uint256",
                        "name": "chainId",
                        "type": "uint256"
                    },
                    {
                        "internalType": "address",
                        "name": "exchange",
                        "type": "address"
                    }
                ],
                "name": "getOrderHash",
                "outputs": [
                    {
                        "internalType": "bytes32",
                        "name": "orderHash",
                        "type": "bytes32"
                    }
                ],
                "payable": false,
                "stateMutability": "pure",
                "type": "function"
            },
            {
                "constant": false,
                "inputs": [
                    {
                        "components": [
                            {
                                "internalType": "address",
                                "name": "makerAddress",
                                "type": "address"
                            },
                            {
                                "internalType": "address",
                                "name": "takerAddress",
                                "type": "address"
                            },
                            {
                                "internalType": "address",
                                "name": "feeRecipientAddress",
                                "type": "address"
                            },
                            {
                                "internalType": "address",
                                "name": "senderAddress",
                                "type": "address"
                            },
                            {
                                "internalType": "uint256",
                                "name": "makerAssetAmount",
                                "type": "uint256"
                            },
                            {
                                "internalType": "uint256",
                                "name": "takerAssetAmount",
                                "type": "uint256"
                            },
                            {
                                "internalType": "uint256",
                                "name": "makerFee",
                                "type": "uint256"
                            },
                            {
                                "internalType": "uint256",
                                "name": "takerFee",
                                "type": "uint256"
                            },
                            {
                                "internalType": "uint256",
                                "name": "expirationTimeSeconds",
                                "type": "uint256"
                            },
                            {
                                "internalType": "uint256",
                                "name": "salt",
                                "type": "uint256"
                            },
                            {
                                "internalType": "bytes",
                                "name": "makerAssetData",
                                "type": "bytes"
                            },
                            {
                                "internalType": "bytes",
                                "name": "takerAssetData",
                                "type": "bytes"
                            },
                            {
                                "internalType": "bytes",
                                "name": "makerFeeAssetData",
                                "type": "bytes"
                            },
                            {
                                "internalType": "bytes",
                                "name": "takerFeeAssetData",
                                "type": "bytes"
                            }
                        ],
                        "internalType": "struct LibOrder.Order",
                        "name": "order",
                        "type": "tuple"
                    },
                    {
                        "internalType": "bytes",
                        "name": "signature",
                        "type": "bytes"
                    }
                ],
                "name": "getOrderRelevantState",
                "outputs": [
                    {
                        "components": [
                            {
                                "internalType": "enum LibOrder.OrderStatus",
                                "name": "orderStatus",
                                "type": "uint8"
                            },
                            {
                                "internalType": "bytes32",
                                "name": "orderHash",
                                "type": "bytes32"
                            },
                            {
                                "internalType": "uint256",
                                "name": "orderTakerAssetFilledAmount",
                                "type": "uint256"
                            }
                        ],
                        "internalType": "struct LibOrder.OrderInfo",
                        "name": "orderInfo",
                        "type": "tuple"
                    },
                    {
                        "internalType": "uint256",
                        "name": "fillableTakerAssetAmount",
                        "type": "uint256"
                    },
                    {
                        "internalType": "bool",
                        "name": "isValidSignature",
                        "type": "bool"
                    }
                ],
                "payable": false,
                "stateMutability": "nonpayable",
                "type": "function"
            },
            {
                "constant": false,
                "inputs": [
                    {
                        "components": [
                            {
                                "internalType": "address",
                                "name": "makerAddress",
                                "type": "address"
                            },
                            {
                                "internalType": "address",
                                "name": "takerAddress",
                                "type": "address"
                            },
                            {
                                "internalType": "address",
                                "name": "feeRecipientAddress",
                                "type": "address"
                            },
                            {
                                "internalType": "address",
                                "name": "senderAddress",
                                "type": "address"
                            },
                            {
                                "internalType": "uint256",
                                "name": "makerAssetAmount",
                                "type": "uint256"
                            },
                            {
                                "internalType": "uint256",
                                "name": "takerAssetAmount",
                                "type": "uint256"
                            },
                            {
                                "internalType": "uint256",
                                "name": "makerFee",
                                "type": "uint256"
                            },
                            {
                                "internalType": "uint256",
                                "name": "takerFee",
                                "type": "uint256"
                            },
                            {
                                "internalType": "uint256",
                                "name": "expirationTimeSeconds",
                                "type": "uint256"
                            },
                            {
                                "internalType": "uint256",
                                "name": "salt",
                                "type": "uint256"
                            },
                            {
                                "internalType": "bytes",
                                "name": "makerAssetData",
                                "type": "bytes"
                            },
                            {
                                "internalType": "bytes",
                                "name": "takerAssetData",
                                "type": "bytes"
                            },
                            {
                                "internalType": "bytes",
                                "name": "makerFeeAssetData",
                                "type": "bytes"
                            },
                            {
                                "internalType": "bytes",
                                "name": "takerFeeAssetData",
                                "type": "bytes"
                            }
                        ],
                        "internalType": "struct LibOrder.Order[]",
                        "name": "orders",
                        "type": "tuple[]"
                    },
                    {
                        "internalType": "bytes[]",
                        "name": "signatures",
                        "type": "bytes[]"
                    }
                ],
                "name": "getOrderRelevantStates",
                "outputs": [
                    {
                        "components": [
                            {
                                "internalType": "enum LibOrder.OrderStatus",
                                "name": "orderStatus",
                                "type": "uint8"
                            },
                            {
                                "internalType": "bytes32",
                                "name": "orderHash",
                                "type": "bytes32"
                            },
                            {
                                "internalType": "uint256",
                                "name": "orderTakerAssetFilledAmount",
                                "type": "uint256"
                            }
                        ],
                        "internalType": "struct LibOrder.OrderInfo[]",
                        "name": "ordersInfo",
                        "type": "tuple[]"
                    },
                    {
                        "internalType": "uint256[]",
                        "name": "fillableTakerAssetAmounts",
                        "type": "uint256[]"
                    },
                    {
                        "internalType": "bool[]",
                        "name": "isValidSignature",
                        "type": "bool[]"
                    }
                ],
                "payable": false,
                "stateMutability": "nonpayable",
                "type": "function"
            },
            {
                "constant": false,
                "inputs": [
                    {
                        "components": [
                            {
                                "internalType": "address",
                                "name": "makerAddress",
                                "type": "address"
                            },
                            {
                                "internalType": "address",
                                "name": "takerAddress",
                                "type": "address"
                            },
                            {
                                "internalType": "address",
                                "name": "feeRecipientAddress",
                                "type": "address"
                            },
                            {
                                "internalType": "address",
                                "name": "senderAddress",
                                "type": "address"
                            },
                            {
                                "internalType": "uint256",
                                "name": "makerAssetAmount",
                                "type": "uint256"
                            },
                            {
                                "internalType": "uint256",
                                "name": "takerAssetAmount",
                                "type": "uint256"
                            },
                            {
                                "internalType": "uint256",
                                "name": "makerFee",
                                "type": "uint256"
                            },
                            {
                                "internalType": "uint256",
                                "name": "takerFee",
                                "type": "uint256"
                            },
                            {
                                "internalType": "uint256",
                                "name": "expirationTimeSeconds",
                                "type": "uint256"
                            },
                            {
                                "internalType": "uint256",
                                "name": "salt",
                                "type": "uint256"
                            },
                            {
                                "internalType": "bytes",
                                "name": "makerAssetData",
                                "type": "bytes"
                            },
                            {
                                "internalType": "bytes",
                                "name": "takerAssetData",
                                "type": "bytes"
                            },
                            {
                                "internalType": "bytes",
                                "name": "makerFeeAssetData",
                                "type": "bytes"
                            },
                            {
                                "internalType": "bytes",
                                "name": "takerFeeAssetData",
                                "type": "bytes"
                            }
                        ],
                        "internalType": "struct LibOrder.Order",
                        "name": "order",
                        "type": "tuple"
                    },
                    {
                        "internalType": "address",
                        "name": "takerAddress",
                        "type": "address"
                    },
                    {
                        "internalType": "uint256",
                        "name": "takerAssetFillAmount",
                        "type": "uint256"
                    }
                ],
                "name": "getSimulatedOrderMakerTransferResults",
                "outputs": [
                    {
                        "internalType": "enum LibOrderTransferSimulation.OrderTransferResults",
                        "name": "orderTransferResults",
                        "type": "uint8"
                    }
                ],
                "payable": false,
                "stateMutability": "nonpayable",
                "type": "function"
            },
            {
                "constant": false,
                "inputs": [
                    {
                        "components": [
                            {
                                "internalType": "address",
                                "name": "makerAddress",
                                "type": "address"
                            },
                            {
                                "internalType": "address",
                                "name": "takerAddress",
                                "type": "address"
                            },
                            {
                                "internalType": "address",
                                "name": "feeRecipientAddress",
                                "type": "address"
                            },
                            {
                                "internalType": "address",
                                "name": "senderAddress",
                                "type": "address"
                            },
                            {
                                "internalType": "uint256",
                                "name": "makerAssetAmount",
                                "type": "uint256"
                            },
                            {
                                "internalType": "uint256",
                                "name": "takerAssetAmount",
                                "type": "uint256"
                            },
                            {
                                "internalType": "uint256",
                                "name": "makerFee",
                                "type": "uint256"
                            },
                            {
                                "internalType": "uint256",
                                "name": "takerFee",
                                "type": "uint256"
                            },
                            {
                                "internalType": "uint256",
                                "name": "expirationTimeSeconds",
                                "type": "uint256"
                            },
                            {
                                "internalType": "uint256",
                                "name": "salt",
                                "type": "uint256"
                            },
                            {
                                "internalType": "bytes",
                                "name": "makerAssetData",
                                "type": "bytes"
                            },
                            {
                                "internalType": "bytes",
                                "name": "takerAssetData",
                                "type": "bytes"
                            },
                            {
                                "internalType": "bytes",
                                "name": "makerFeeAssetData",
                                "type": "bytes"
                            },
                            {
                                "internalType": "bytes",
                                "name": "takerFeeAssetData",
                                "type": "bytes"
                            }
                        ],
                        "internalType": "struct LibOrder.Order",
                        "name": "order",
                        "type": "tuple"
                    },
                    {
                        "internalType": "address",
                        "name": "takerAddress",
                        "type": "address"
                    },
                    {
                        "internalType": "uint256",
                        "name": "takerAssetFillAmount",
                        "type": "uint256"
                    }
                ],
                "name": "getSimulatedOrderTransferResults",
                "outputs": [
                    {
                        "internalType": "enum LibOrderTransferSimulation.OrderTransferResults",
                        "name": "orderTransferResults",
                        "type": "uint8"
                    }
                ],
                "payable": false,
                "stateMutability": "nonpayable",
                "type": "function"
            },
            {
                "constant": false,
                "inputs": [
                    {
                        "components": [
                            {
                                "internalType": "address",
                                "name": "makerAddress",
                                "type": "address"
                            },
                            {
                                "internalType": "address",
                                "name": "takerAddress",
                                "type": "address"
                            },
                            {
                                "internalType": "address",
                                "name": "feeRecipientAddress",
                                "type": "address"
                            },
                            {
                                "internalType": "address",
                                "name": "senderAddress",
                                "type": "address"
                            },
                            {
                                "internalType": "uint256",
                                "name": "makerAssetAmount",
                                "type": "uint256"
                            },
                            {
                                "internalType": "uint256",
                                "name": "takerAssetAmount",
                                "type": "uint256"
                            },
                            {
                                "internalType": "uint256",
                                "name": "makerFee",
                                "type": "uint256"
                            },
                            {
                                "internalType": "uint256",
                                "name": "takerFee",
                                "type": "uint256"
                            },
                            {
                                "internalType": "uint256",
                                "name": "expirationTimeSeconds",
                                "type": "uint256"
                            },
                            {
                                "internalType": "uint256",
                                "name": "salt",
                                "type": "uint256"
                            },
                            {
                                "internalType": "bytes",
                                "name": "makerAssetData",
                                "type": "bytes"
                            },
                            {
                                "internalType": "bytes",
                                "name": "takerAssetData",
                                "type": "bytes"
                            },
                            {
                                "internalType": "bytes",
                                "name": "makerFeeAssetData",
                                "type": "bytes"
                            },
                            {
                                "internalType": "bytes",
                                "name": "takerFeeAssetData",
                                "type": "bytes"
                            }
                        ],
                        "internalType": "struct LibOrder.Order[]",
                        "name": "orders",
                        "type": "tuple[]"
                    },
                    {
                        "internalType": "address[]",
                        "name": "takerAddresses",
                        "type": "address[]"
                    },
                    {
                        "internalType": "uint256[]",
                        "name": "takerAssetFillAmounts",
                        "type": "uint256[]"
                    }
                ],
                "name": "getSimulatedOrdersTransferResults",
                "outputs": [
                    {
                        "internalType": "enum LibOrderTransferSimulation.OrderTransferResults[]",
                        "name": "orderTransferResults",
                        "type": "uint8[]"
                    }
                ],
                "payable": false,
                "stateMutability": "nonpayable",
                "type": "function"
            },
            {
                "constant": true,
                "inputs": [
                    {
                        "components": [
                            {
                                "internalType": "uint256",
                                "name": "salt",
                                "type": "uint256"
                            },
                            {
                                "internalType": "uint256",
                                "name": "expirationTimeSeconds",
                                "type": "uint256"
                            },
                            {
                                "internalType": "uint256",
                                "name": "gasPrice",
                                "type": "uint256"
                            },
                            {
                                "internalType": "address",
                                "name": "signerAddress",
                                "type": "address"
                            },
                            {
                                "internalType": "bytes",
                                "name": "data",
                                "type": "bytes"
                            }
                        ],
                        "internalType": "struct LibZeroExTransaction.ZeroExTransaction",
                        "name": "transaction",
                        "type": "tuple"
                    },
                    {
                        "internalType": "uint256",
                        "name": "chainId",
                        "type": "uint256"
                    },
                    {
                        "internalType": "address",
                        "name": "exchange",
                        "type": "address"
                    }
                ],
                "name": "getTransactionHash",
                "outputs": [
                    {
                        "internalType": "bytes32",
                        "name": "transactionHash",
                        "type": "bytes32"
                    }
                ],
                "payable": false,
                "stateMutability": "pure",
                "type": "function"
            },
            {
                "constant": false,
                "inputs": [
                    {
                        "internalType": "address",
                        "name": "ownerAddress",
                        "type": "address"
                    },
                    {
                        "internalType": "bytes",
                        "name": "assetData",
                        "type": "bytes"
                    }
                ],
                "name": "getTransferableAssetAmount",
                "outputs": [
                    {
                        "internalType": "uint256",
                        "name": "transferableAssetAmount",
                        "type": "uint256"
                    }
                ],
                "payable": false,
                "stateMutability": "nonpayable",
                "type": "function"
            },
            {
                "constant": true,
                "inputs": [
                    {
                        "internalType": "bytes",
                        "name": "assetData",
                        "type": "bytes"
                    }
                ],
                "name": "revertIfInvalidAssetData",
                "outputs": [],
                "payable": false,
                "stateMutability": "pure",
                "type": "function"
            },
            {
                "constant": true,
                "inputs": [],
                "name": "staticCallProxyAddress",
                "outputs": [
                    {
                        "internalType": "address",
                        "name": "",
                        "type": "address"
                    }
                ],
                "payable": false,
                "stateMutability": "view",
                "type": "function"
            }
        ],
        "devdoc": {
            "methods": {
                "decodeAssetProxyId(bytes)": {
                    "details": "Decode AssetProxy identifier",
                    "params": {
                        "assetData": "AssetProxy-compliant asset data describing an ERC-20, ERC-721, ERC1155, or MultiAsset asset."
                    },
                    "return": "The AssetProxy identifier"
                },
                "decodeERC1155AssetData(bytes)": {
                    "details": "Decode ERC-1155 asset data from the format described in the AssetProxy contract specification.",
                    "params": {
                        "assetData": "AssetProxy-compliant asset data describing an ERC-1155 set of assets."
                    },
                    "return": "The ERC-1155 AssetProxy identifier, the address of the ERC-1155 contract hosting the assets, an array of the identifiers of the assets to be traded, an array of asset amounts to be traded, and callback data.  Each element of the arrays corresponds to the same-indexed element of the other array.  Return values specified as `memory` are returned as pointers to locations within the memory of the input parameter `assetData`."
                },
                "decodeERC20AssetData(bytes)": {
                    "details": "Decode ERC-20 asset data from the format described in the AssetProxy contract specification.",
                    "params": {
                        "assetData": "AssetProxy-compliant asset data describing an ERC-20 asset."
                    },
                    "return": "The AssetProxy identifier, and the address of the ERC-20 contract hosting this asset."
                },
                "decodeERC20BridgeAssetData(bytes)": {
                    "details": "Decode ERC20Bridge asset data from the format described in the AssetProxy contract specification.",
                    "params": {
                        "assetData": "AssetProxy-compliant asset data describing an ERC20Bridge asset"
                    },
                    "return": "The ERC20BridgeProxy identifier, the address of the ERC20 token to transfer, the address of the bridge contract, and extra data to be passed to the bridge contract."
                },
                "decodeERC721AssetData(bytes)": {
                    "details": "Decode ERC-721 asset data from the format described in the AssetProxy contract specification.",
                    "params": {
                        "assetData": "AssetProxy-compliant asset data describing an ERC-721 asset."
                    },
                    "return": "The ERC-721 AssetProxy identifier, the address of the ERC-721 contract hosting this asset, and the identifier of the specific asset to be traded."
                },
                "decodeMultiAssetData(bytes)": {
                    "details": "Decode multi-asset data from the format described in the AssetProxy contract specification.",
                    "params": {
                        "assetData": "AssetProxy-compliant data describing a multi-asset basket."
                    },
                    "return": "The Multi-Asset AssetProxy identifier, an array of the amounts of the assets to be traded, and an array of the AssetProxy-compliant data describing each asset to be traded.  Each element of the arrays corresponds to the same-indexed element of the other array."
                },
                "decodeStaticCallAssetData(bytes)": {
                    "details": "Decode StaticCall asset data from the format described in the AssetProxy contract specification.",
                    "params": {
                        "assetData": "AssetProxy-compliant asset data describing a StaticCall asset"
                    },
                    "return": "The StaticCall AssetProxy identifier, the target address of the StaticCAll, the data to be passed to the target address, and the expected Keccak-256 hash of the static call return data."
                },
                "decodeZeroExTransactionData(bytes)": {
                    "details": "Decodes the call data for an Exchange contract method call.",
                    "params": {
                        "transactionData": "ABI-encoded calldata for an Exchange     contract method call."
                    },
                    "return": "The name of the function called, and the parameters it was     given.  For single-order fills and cancels, the arrays will have     just one element."
                },
                "encodeERC1155AssetData(address,uint256[],uint256[],bytes)": {
                    "details": "Encode ERC-1155 asset data into the format described in the AssetProxy contract specification.",
                    "params": {
                        "callbackData": "Data to be passed to receiving contracts when a transfer is performed.",
                        "tokenAddress": "The address of the ERC-1155 contract hosting the asset(s) to be traded.",
                        "tokenIds": "The identifiers of the specific assets to be traded.",
                        "tokenValues": "The amounts of each asset to be traded."
                    },
                    "return": "AssetProxy-compliant asset data describing the set of assets."
                },
                "encodeERC20AssetData(address)": {
                    "details": "Encode ERC-20 asset data into the format described in the AssetProxy contract specification.",
                    "params": {
                        "tokenAddress": "The address of the ERC-20 contract hosting the asset to be traded."
                    },
                    "return": "AssetProxy-compliant data describing the asset."
                },
                "encodeERC721AssetData(address,uint256)": {
                    "details": "Encode ERC-721 asset data into the format described in the AssetProxy specification.",
                    "params": {
                        "tokenAddress": "The address of the ERC-721 contract hosting the asset to be traded.",
                        "tokenId": "The identifier of the specific asset to be traded."
                    },
                    "return": "AssetProxy-compliant asset data describing the asset."
                },
                "encodeMultiAssetData(uint256[],bytes[])": {
                    "details": "Encode data for multiple assets, per the AssetProxy contract specification.",
                    "params": {
                        "amounts": "The amounts of each asset to be traded.",
                        "nestedAssetData": "AssetProxy-compliant data describing each asset to be traded."
                    },
                    "return": "AssetProxy-compliant data describing the set of assets."
                },
                "encodeStaticCallAssetData(address,bytes,bytes32)": {
                    "details": "Encode StaticCall asset data into the format described in the AssetProxy contract specification.",
                    "params": {
                        "expectedReturnDataHash": "Expected Keccak-256 hash of the StaticCall return data.",
                        "staticCallData": "Data that will be passed to staticCallTargetAddress in the StaticCall.",
                        "staticCallTargetAddress": "Target address of StaticCall."
                    },
                    "return": "AssetProxy-compliant asset data describing the set of assets."
                },
                "getAssetProxyAllowance(address,bytes)": {
                    "details": "Returns the number of asset(s) (described by assetData) that the corresponding AssetProxy contract is authorized to spend.  When the asset data contains multiple assets (eg for Multi-Asset), the return value indicates how many complete \"baskets\" of those assets may be spent by all of the corresponding AssetProxy contracts.",
                    "params": {
                        "assetData": "Details of asset, encoded per the AssetProxy contract specification.",
                        "ownerAddress": "Owner of the assets specified by assetData."
                    },
                    "return": "Number of assets (or asset baskets) that the corresponding AssetProxy is authorized to spend."
                },
                "getBalance(address,bytes)": {
                    "details": "Returns the owner's balance of the assets(s) specified in assetData.  When the asset data contains multiple assets (eg in ERC1155 or Multi-Asset), the return value indicates how many complete \"baskets\" of those assets are owned by owner.",
                    "params": {
                        "assetData": "Details of asset, encoded per the AssetProxy contract specification.",
                        "ownerAddress": "Owner of the assets specified by assetData."
                    },
                    "return": "Number of assets (or asset baskets) held by owner."
                },
                "getBalanceAndAssetProxyAllowance(address,bytes)": {
                    "details": "Calls getBalance() and getAllowance() for assetData.",
                    "params": {
                        "assetData": "Details of asset, encoded per the AssetProxy contract specification.",
                        "ownerAddress": "Owner of the assets specified by assetData."
                    },
                    "return": "Number of assets (or asset baskets) held by owner, and number of assets (or asset baskets) that the corresponding AssetProxy is authorized to spend."
                },
                "getBatchAssetProxyAllowances(address,bytes[])": {
                    "details": "Calls getAssetProxyAllowance() for each element of assetData.",
                    "params": {
                        "assetData": "Array of asset details, each encoded per the AssetProxy contract specification.",
                        "ownerAddress": "Owner of the assets specified by assetData."
                    },
                    "return": "An array of asset allowances from getAllowance(), with each element corresponding to the same-indexed element in the assetData input."
                },
                "getBatchBalances(address,bytes[])": {
                    "details": "Calls getBalance() for each element of assetData.",
                    "params": {
                        "assetData": "Array of asset details, each encoded per the AssetProxy contract specification.",
                        "ownerAddress": "Owner of the assets specified by assetData."
                    },
                    "return": "Array of asset balances from getBalance(), with each element corresponding to the same-indexed element in the assetData input."
                },
                "getBatchBalancesAndAssetProxyAllowances(address,bytes[])": {
                    "details": "Calls getBatchBalances() and getBatchAllowances() for each element of assetData.",
                    "params": {
                        "assetData": "Array of asset details, each encoded per the AssetProxy contract specification.",
                        "ownerAddress": "Owner of the assets specified by assetData."
                    },
                    "return": "An array of asset balances from getBalance(), and an array of asset allowances from getAllowance(), with each element corresponding to the same-indexed element in the assetData input."
                },
                "getEthBalances(address[])": {
                    "details": "Batch fetches ETH balances",
                    "params": {
                        "addresses": "Array of addresses."
                    },
                    "return": "Array of ETH balances."
                },
                "getOrderRelevantState((address,address,address,address,uint256,uint256,uint256,uint256,uint256,uint256,bytes,bytes,bytes,bytes),bytes)": {
                    "details": "Fetches all order-relevant information needed to validate if the supplied order is fillable.",
                    "params": {
                        "order": "The order structure.",
                        "signature": "Signature provided by maker that proves the order's authenticity. `0x01` can always be provided if the signature does not need to be validated."
                    },
                    "return": "The orderInfo (hash, status, and `takerAssetAmount` already filled for the given order), fillableTakerAssetAmount (amount of the order's `takerAssetAmount` that is fillable given all on-chain state), and isValidSignature (validity of the provided signature). NOTE: If the `takerAssetData` encodes data for multiple assets, `fillableTakerAssetAmount` will represent a \"scaled\" amount, meaning it must be multiplied by all the individual asset amounts within the `takerAssetData` to get the final amount of each asset that can be filled."
                },
                "getOrderRelevantStates((address,address,address,address,uint256,uint256,uint256,uint256,uint256,uint256,bytes,bytes,bytes,bytes)[],bytes[])": {
                    "details": "Fetches all order-relevant information needed to validate if the supplied orders are fillable.",
                    "params": {
                        "orders": "Array of order structures.",
                        "signatures": "Array of signatures provided by makers that prove the authenticity of the orders. `0x01` can always be provided if a signature does not need to be validated."
                    },
                    "return": "The ordersInfo (array of the hash, status, and `takerAssetAmount` already filled for each order), fillableTakerAssetAmounts (array of amounts for each order's `takerAssetAmount` that is fillable given all on-chain state), and isValidSignature (array containing the validity of each provided signature). NOTE: If the `takerAssetData` encodes data for multiple assets, each element of `fillableTakerAssetAmounts` will represent a \"scaled\" amount, meaning it must be multiplied by all the individual asset amounts within the `takerAssetData` to get the final amount of each asset that can be filled."
                },
                "getSimulatedOrderMakerTransferResults((address,address,address,address,uint256,uint256,uint256,uint256,uint256,uint256,bytes,bytes,bytes,bytes),address,uint256)": {
                    "details": "Simulates the maker transfers within an order and returns the index of the first failed transfer.",
                    "params": {
                        "order": "The order to simulate transfers for.",
                        "takerAddress": "The address of the taker that will fill the order.",
                        "takerAssetFillAmount": "The amount of takerAsset that the taker wished to fill."
                    },
                    "return": "The index of the first failed transfer (or 4 if all transfers are successful)."
                },
                "getSimulatedOrderTransferResults((address,address,address,address,uint256,uint256,uint256,uint256,uint256,uint256,bytes,bytes,bytes,bytes),address,uint256)": {
                    "details": "Simulates all of the transfers within an order and returns the index of the first failed transfer.",
                    "params": {
                        "order": "The order to simulate transfers for.",
                        "takerAddress": "The address of the taker that will fill the order.",
                        "takerAssetFillAmount": "The amount of takerAsset that the taker wished to fill."
                    },
                    "return": "The index of the first failed transfer (or 4 if all transfers are successful)."
                },
                "getSimulatedOrdersTransferResults((address,address,address,address,uint256,uint256,uint256,uint256,uint256,uint256,bytes,bytes,bytes,bytes)[],address[],uint256[])": {
                    "details": "Simulates all of the transfers for each given order and returns the indices of each first failed transfer.",
                    "params": {
                        "orders": "Array of orders to individually simulate transfers for.",
                        "takerAddresses": "Array of addresses of takers that will fill each order.",
                        "takerAssetFillAmounts": "Array of amounts of takerAsset that will be filled for each order."
                    },
                    "return": "The indices of the first failed transfer (or 4 if all transfers are successful) for each order."
                },
                "getTransferableAssetAmount(address,bytes)": {
                    "details": "Gets the amount of an asset transferable by the maker of an order.",
                    "params": {
                        "assetData": "Description of tokens, per the AssetProxy contract specification.",
                        "ownerAddress": "Address of the owner of the asset."
                    },
                    "return": "The amount of the asset tranferable by the owner. NOTE: If the `assetData` encodes data for multiple assets, the `transferableAssetAmount` will represent the amount of times the entire `assetData` can be transferred. To calculate the total individual transferable amounts, this scaled `transferableAmount` must be multiplied by the individual asset amounts located within the `assetData`."
                },
                "revertIfInvalidAssetData(bytes)": {
                    "details": "Reverts if assetData is not of a valid format for its given proxy id.",
                    "params": {
                        "assetData": "AssetProxy compliant asset data."
                    }
                }
            }
        },
        "evm": {
            "bytecode": {
                "linkReferences": {
                    "/Users/rickmorty/Documents/projects/0x/0x-monorepo/contracts/dev-utils/contracts/src/LibAssetData.sol": {
                        "LibAssetData": [
                            {
                                "length": 20,
                                "start": 2685
                            },
                            {
                                "length": 20,
                                "start": 2945
                            },
                            {
                                "length": 20,
                                "start": 3211
                            },
                            {
                                "length": 20,
                                "start": 3386
                            },
                            {
                                "length": 20,
                                "start": 3691
                            },
                            {
                                "length": 20,
                                "start": 4300
                            },
                            {
                                "length": 20,
                                "start": 4839
                            },
                            {
                                "length": 20,
                                "start": 5812
                            },
                            {
                                "length": 20,
                                "start": 6109
                            },
                            {
                                "length": 20,
                                "start": 6434
                            },
                            {
                                "length": 20,
                                "start": 6616
                            },
                            {
                                "length": 20,
                                "start": 7250
                            },
                            {
                                "length": 20,
                                "start": 7441
                            },
                            {
                                "length": 20,
                                "start": 7587
                            },
                            {
                                "length": 20,
                                "start": 7754
                            },
                            {
                                "length": 20,
                                "start": 8077
                            },
                            {
                                "length": 20,
                                "start": 8535
                            },
                            {
                                "length": 20,
                                "start": 9421
                            },
                            {
                                "length": 20,
                                "start": 9994
                            },
                            {
                                "length": 20,
                                "start": 10585
                            },
                            {
                                "length": 20,
                                "start": 10670
                            },
                            {
                                "length": 20,
                                "start": 14114
                            },
                            {
                                "length": 20,
                                "start": 14763
                            }
                        ]
                    },
                    "/Users/rickmorty/Documents/projects/0x/0x-monorepo/contracts/dev-utils/contracts/src/LibDydxBalance.sol": {
                        "LibDydxBalance": [
                            {
                                "length": 20,
                                "start": 10288
                            },
                            {
                                "length": 20,
                                "start": 14268
                            }
                        ]
                    },
                    "/Users/rickmorty/Documents/projects/0x/0x-monorepo/contracts/dev-utils/contracts/src/LibOrderTransferSimulation.sol": {
                        "LibOrderTransferSimulation": [
                            {
                                "length": 20,
                                "start": 3872
                            },
                            {
                                "length": 20,
                                "start": 7067
                            },
                            {
                                "length": 20,
                                "start": 10488
                            }
                        ]
                    },
                    "/Users/rickmorty/Documents/projects/0x/0x-monorepo/contracts/dev-utils/contracts/src/LibTransactionDecoder.sol": {
                        "LibTransactionDecoder": [
                            {
                                "length": 20,
                                "start": 3530
                            }
                        ]
                    }
                },
                "object": "0x60806040523480156200001157600080fd5b50604051620054ca380380620054ca8339810160408190526200003491620003f5565b600080546001600160a01b03199081166001600160a01b0386811691821784556005805484168783161790556006805490931690851617909155604051630c0e082160e31b81528291869186918691636070410890620000a090630f47261b60e41b9060040162000448565b60206040518083038186803b158015620000b957600080fd5b505afa158015620000ce573d6000803e3d6000fd5b505050506040513d601f19601f82011682018060405250620000f49190810190620003c5565b600180546001600160a01b0319166001600160a01b03928316179055604051630c0e082160e31b8152908416906360704108906200013e9063012b8bc960e11b9060040162000448565b60206040518083038186803b1580156200015757600080fd5b505afa1580156200016c573d6000803e3d6000fd5b505050506040513d601f19601f82011682018060405250620001929190810190620003c5565b600280546001600160a01b0319166001600160a01b03928316179055604051630c0e082160e31b815290841690636070410890620001dc9063a7cb5fb760e01b9060040162000448565b60206040518083038186803b158015620001f557600080fd5b505afa1580156200020a573d6000803e3d6000fd5b505050506040513d601f19601f82011682018060405250620002309190810190620003c5565b600380546001600160a01b0319166001600160a01b03928316179055604051630c0e082160e31b8152908416906360704108906200027a9063619ce88560e11b9060040162000448565b60206040518083038186803b1580156200029357600080fd5b505afa158015620002a8573d6000803e3d6000fd5b505050506040513d601f19601f82011682018060405250620002ce9190810190620003c5565b600480546001600160a01b0319166001600160a01b03928316179055600093508416159150620003019050578162000303565b305b90506200035e6040518060400160405280600b81526020016a0c1e08141c9bdd1bd8dbdb60aa1b815250604051806040016040528060058152602001640332e302e360dc1b81525085846200036e60201b620029a31760201c565b6007555062000476945050505050565b8351602094850120835193850193909320604080517f8b73c3c69bb8fe3d512ecc4cf759cc79239f7b179b0ffacaa9a75d522b39400f815295860194909452928401929092526060830152608082015260a0902090565b600060208284031215620003d7578081fd5b81516001600160a01b0381168114620003ee578182fd5b9392505050565b6000806000606084860312156200040a578182fd5b835162000417816200045d565b60208501519093506200042a816200045d565b60408501519092506200043d816200045d565b809150509250925092565b6001600160e01b031991909116815260200190565b6001600160a01b03811681146200047357600080fd5b50565b61504480620004866000396000f3fe608060405234801561001057600080fd5b50600436106102775760003560e01c8063a5cd62ba11610160578063d186037f116100d8578063e4e6e7da1161008c578063ee18599711610071578063ee185997146105d8578063ef3bb097146105e0578063ff84e7cc146105e857610277565b8063e4e6e7da14610595578063e77286eb146105b657610277565b8063d3d862d1116100bd578063d3d862d114610540578063d469502814610553578063e25cabf71461057357610277565b8063d186037f1461051a578063d36379051461052d57610277565b8063bbb2dcf61161012f578063c82037ef11610114578063c82037ef146104dc578063ca49f47c146104e4578063d001c5dc1461050757610277565b8063bbb2dcf6146104b2578063c26cfecd146104d457610277565b8063a5cd62ba14610464578063a6627e9f14610484578063a7530f1214610497578063b43cffe11461049f57610277565b80637982653e116101f35780639baf2705116101c25780639eadc835116101a75780639eadc8351461041a578063a070cac81461043e578063a0901e511461045157610277565b80639baf2705146103fd5780639cd016051461041257610277565b80637982653e1461039657806379c9c426146103b65780637d727512146103c95780638f4ce479146103dc57610277565b80634dfdac201161024a57806363eb39921161022f57806363eb39921461033d5780636f83188e14610350578063750bdb301461037357610277565b80634dfdac20146102fd578063590aa8751461031d57610277565b806304a5618a1461027c5780630d7b7d76146102a75780632322cf76146102c857806346eb65cb146102e8575b600080fd5b61028f61028a3660046142ab565b6105f0565b60405161029e93929190614d24565b60405180910390f35b6102ba6102b5366004613d6f565b610689565b60405161029e929190614f2d565b6102db6102d6366004613d6f565b6106ab565b60405161029e9190614c01565b6102fb6102f63660046142ab565b6106d3565b005b61031061030b366004613c8a565b610757565b60405161029e9190614b59565b61033061032b366004613c6e565b6107da565b60405161029e9190614d84565b61033061034b366004613db3565b610889565b61036361035e3660046142ab565b61093c565b60405161029e9493929190614e19565b6103866103813660046142ab565b6109dc565b60405161029e9493929190614c42565b6103a96103a4366004614481565b610a6e565b60405161029e9190614e05565b6102db6103c4366004614589565b610b20565b6102db6103d7366004613d6f565b610ba1565b6103ef6103ea3660046142ab565b611497565b60405161029e929190614c1f565b61040561152a565b60405161029e9190614888565b610405611539565b61042d6104283660046142ab565b611548565b60405161029e959493929190614c7e565b6102db61044c366004614530565b6115ed565b61031061045f366004613e35565b61166e565b610477610472366004613f03565b6116e7565b60405161029e9190614a71565b610330610492366004613e0a565b6117a1565b610405611851565b6103306104ad366004613cd8565b611860565b6104c56104c03660046142ab565b611916565b60405161029e93929190614d4f565b6102db6119a6565b6104056119ac565b6104f76104f23660046142ab565b6119bb565b60405161029e9493929190614ce1565b610310610515366004613c8a565b611a4d565b6102db610528366004613d6f565b611abb565b6103a961053b366004614481565b612446565b61033061054e366004613fde565b6124a8565b6105666105613660046142ab565b6124fd565b60405161029e9190614c0a565b610586610581366004613f87565b6125a0565b60405161029e93929190614abe565b6105a86105a3366004613c8a565b6126d8565b60405161029e929190614bdc565b6105c96105c43660046144d9565b6126f1565b60405161029e93929190614ea6565b610405612960565b61040561296f565b61040561297e565b600080600073__$a2317ed4aecd4fd151d12b4b79c9600dfe$__6304a5618a856040518263ffffffff1660e01b815260040161062c9190614d84565b60606040518083038186803b15801561064457600080fd5b505af4158015610658573d6000803e3d6000fd5b505050506040513d601f19601f8201168201806040525061067c9190810190614201565b9250925092509193909250565b6000806106968484610ba1565b91506106a28484611abb565b90509250929050565b60008060006106ba8585610689565b915091506106c8828261298d565b925050505b92915050565b6040517f46eb65cb00000000000000000000000000000000000000000000000000000000815273__$a2317ed4aecd4fd151d12b4b79c9600dfe$__906346eb65cb90610723908490600401614d84565b60006040518083038186803b15801561073b57600080fd5b505af415801561074f573d6000803e3d6000fd5b505050505b50565b606060008251905080604051908082528060200260200182016040528015610789578160200160208202803883390190505b50915060005b8181146107d2576107b3858583815181106107a657fe5b6020026020010151611abb565b8382815181106107bf57fe5b602090810291909101015260010161078f565b505092915050565b6040517f590aa87500000000000000000000000000000000000000000000000000000000815260609073__$a2317ed4aecd4fd151d12b4b79c9600dfe$__9063590aa8759061082d908590600401614888565b60006040518083038186803b15801561084557600080fd5b505af4158015610859573d6000803e3d6000fd5b505050506040513d6000823e601f3d908101601f1916820160405261088191908101906142de565b90505b919050565b6040517f63eb399200000000000000000000000000000000000000000000000000000000815260609073__$a2317ed4aecd4fd151d12b4b79c9600dfe$__906363eb3992906108e0908790879087906004016149f1565b60006040518083038186803b1580156108f857600080fd5b505af415801561090c573d6000803e3d6000fd5b505050506040513d6000823e601f3d908101601f1916820160405261093491908101906142de565b949350505050565b60608060608073__$2c940629c908ac1511eec301572a689fa1$__636f83188e866040518263ffffffff1660e01b81526004016109799190614d84565b60006040518083038186803b15801561099157600080fd5b505af41580156109a5573d6000803e3d6000fd5b505050506040513d6000823e601f3d908101601f191682016040526109cd919081019061434c565b93509350935093509193509193565b6000806000606073__$a2317ed4aecd4fd151d12b4b79c9600dfe$__63750bdb30866040518263ffffffff1660e01b8152600401610a1a9190614d84565b60006040518083038186803b158015610a3257600080fd5b505af4158015610a46573d6000803e3d6000fd5b505050506040513d6000823e601f3d908101601f191682016040526109cd9190810190614085565b600080546040517f9caa023b00000000000000000000000000000000000000000000000000000000815273__$35bb14ffe56b1143d5360c9efbaa220574$__91639caa023b91610ad0916001600160a01b031690889088908890600401614a23565b60206040518083038186803b158015610ae857600080fd5b505af4158015610afc573d6000803e3d6000fd5b505050506040513d601f19601f82011682018060405250610934919081019061432d565b600061093484610b9c6040518060400160405280600b81526020017f30782050726f746f636f6c0000000000000000000000000000000000000000008152506040518060400160405280600581526020017f332e302e3000000000000000000000000000000000000000000000000000000081525087876129a3565b6129fa565b600080610bb4838263ffffffff612a0e16565b90506001600160e01b031981167ff47261b0000000000000000000000000000000000000000000000000000000001415610c0f576000610bfb84601063ffffffff612a4716565b9050610c078186612a7a565b925050611490565b6001600160e01b031981167f02571792000000000000000000000000000000000000000000000000000000001415610e285760008073__$a2317ed4aecd4fd151d12b4b79c9600dfe$__6304a5618a866040518263ffffffff1660e01b8152600401610c7b9190614d84565b60606040518083038186803b158015610c9357600080fd5b505af4158015610ca7573d6000803e3d6000fd5b505050506040513d601f19601f82011682018060405250610ccb9190810190614201565b6040519194509250606091507f6352211e0000000000000000000000000000000000000000000000000000000090610d07908490602401614c01565b604051602081830303815290604052907bffffffffffffffffffffffffffffffffffffffffffffffffffffffff19166020820180517bffffffffffffffffffffffffffffffffffffffffffffffffffffffff8381831617835250505050905060006060846001600160a01b031683604051610d82919061486c565b600060405180830381855afa9150503d8060008114610dbd576040519150601f19603f3d011682016040523d82523d6000602084013e610dc2565b606091505b50915091506000828015610dd7575081516020145b610de2576000610df3565b610df382600c63ffffffff612a4716565b9050896001600160a01b0316816001600160a01b031614610e15576000610e18565b60015b60ff169750505050505050611490565b6001600160e01b031981167fa7cb5fb70000000000000000000000000000000000000000000000000000000014156110c457600060608073__$a2317ed4aecd4fd151d12b4b79c9600dfe$__639eadc835876040518263ffffffff1660e01b8152600401610e969190614d84565b60006040518083038186803b158015610eae57600080fd5b505af4158015610ec2573d6000803e3d6000fd5b505050506040513d6000823e601f3d908101601f19168201604052610eea91908101906140ef565b5081519296509094509250905060005b8181146110ba57828181518110610f0d57fe5b602002602001015160001415610f22576110b2565b83516060907efdd58e00000000000000000000000000000000000000000000000000000000908b90879085908110610f5657fe5b6020026020010151604051602401610f6f929190614a58565b604051602081830303815290604052907bffffffffffffffffffffffffffffffffffffffffffffffffffffffff19166020820180517bffffffffffffffffffffffffffffffffffffffffffffffffffffffff8381831617835250505050905060006060876001600160a01b031683604051610fea919061486c565b600060405180830381855afa9150503d8060008114611025576040519150601f19603f3d011682016040523d82523d6000602084013e61102a565b606091505b5091509150600082801561103f575081516020145b61104a57600061105b565b61105b82600063ffffffff612b7216565b9050600087868151811061106b57fe5b6020026020010151828161107b57fe5b049050806110975760009b5050505050505050505050506106cd565b8b8110806110a357508b155b156110ac57809b505b50505050505b600101610efa565b5050505050611490565b6001600160e01b031981167fc339d10a0000000000000000000000000000000000000000000000000000000014156111f7576040516060907fa85e59e4000000000000000000000000000000000000000000000000000000009061113390869060009081908190602401614d97565b60408051601f198184030181529181526020820180517bffffffffffffffffffffffffffffffffffffffffffffffffffffffff166001600160e01b03199094169390931790925260045491519092506000916001600160a01b03169061119a90849061486c565b600060405180830381855afa9150503d80600081146111d5576040519150601f19603f3d011682016040523d82523d6000602084013e6111da565b606091505b50509050806111ea5760006111ee565b6000195b93505050611490565b6001600160e01b031981167fdc1600f30000000000000000000000000000000000000000000000000000000014156113205760008073__$a2317ed4aecd4fd151d12b4b79c9600dfe$__63750bdb30866040518263ffffffff1660e01b81526004016112639190614d84565b60006040518083038186803b15801561127b57600080fd5b505af415801561128f573d6000803e3d6000fd5b505050506040513d6000823e601f3d908101601f191682016040526112b79190810190614085565b5092509250506112c5612b7e565b6001600160a01b0316826001600160a01b03161480156112f257506005546001600160a01b038281169116145b1561131957600061130a611304612b96565b88612a7a565b905061131581612bae565b9450505b5050611490565b6001600160e01b031981167f94cfcdd70000000000000000000000000000000000000000000000000000000014156114905760608073__$a2317ed4aecd4fd151d12b4b79c9600dfe$__63bbb2dcf6866040518263ffffffff1660e01b815260040161138c9190614d84565b60006040518083038186803b1580156113a457600080fd5b505af41580156113b8573d6000803e3d6000fd5b505050506040513d6000823e601f3d908101601f191682016040526113e09190810190614241565b80519194509250905060005b81811461148b578381815181106113ff57fe5b60200260200101516000141561141457611483565b60006114338985848151811061142657fe5b6020026020010151610ba1565b9050600085838151811061144357fe5b6020026020010151828161145357fe5b0490508061146b5760009750505050505050506106cd565b87811080611477575087155b15611480578097505b50505b6001016113ec565b505050505b5092915050565b60008073__$a2317ed4aecd4fd151d12b4b79c9600dfe$__638f4ce479846040518263ffffffff1660e01b81526004016114d19190614d84565b604080518083038186803b1580156114e857600080fd5b505af41580156114fc573d6000803e3d6000fd5b505050506040513d601f19601f82011682018060405250611520919081019061404e565b915091505b915091565b6004546001600160a01b031681565b6000546001600160a01b031681565b600080606080606073__$a2317ed4aecd4fd151d12b4b79c9600dfe$__639eadc835876040518263ffffffff1660e01b81526004016115879190614d84565b60006040518083038186803b15801561159f57600080fd5b505af41580156115b3573d6000803e3d6000fd5b505050506040513d6000823e601f3d908101601f191682016040526115db91908101906140ef565b939a9299509097509550909350915050565b6000610934846116696040518060400160405280600b81526020017f30782050726f746f636f6c0000000000000000000000000000000000000000008152506040518060400160405280600581526020017f332e302e3000000000000000000000000000000000000000000000000000000081525087876129a3565b612dac565b606080825160405190808252806020026020018201604052801561169c578160200160208202803883390190505b50905060005b83518114611490578381815181106116b657fe5b60200260200101516001600160a01b0316318282815181106116d457fe5b60209081029190910101526001016116a2565b6000546040517f02cffc4500000000000000000000000000000000000000000000000000000000815260609173__$35bb14ffe56b1143d5360c9efbaa220574$__916302cffc459161174d916001600160a01b03909116908890889088906004016148d9565b60006040518083038186803b15801561176557600080fd5b505af4158015611779573d6000803e3d6000fd5b505050506040513d6000823e601f3d908101601f191682016040526109349190810190613e68565b6040517fa6627e9f00000000000000000000000000000000000000000000000000000000815260609073__$a2317ed4aecd4fd151d12b4b79c9600dfe$__9063a6627e9f906117f69086908690600401614a58565b60006040518083038186803b15801561180e57600080fd5b505af4158015611822573d6000803e3d6000fd5b505050506040513d6000823e601f3d908101601f1916820160405261184a91908101906142de565b9392505050565b6006546001600160a01b031681565b6040517fb43cffe100000000000000000000000000000000000000000000000000000000815260609073__$a2317ed4aecd4fd151d12b4b79c9600dfe$__9063b43cffe1906118b990889088908890889060040161499f565b60006040518083038186803b1580156118d157600080fd5b505af41580156118e5573d6000803e3d6000fd5b505050506040513d6000823e601f3d908101601f1916820160405261190d91908101906142de565b95945050505050565b600060608073__$a2317ed4aecd4fd151d12b4b79c9600dfe$__63bbb2dcf6856040518263ffffffff1660e01b81526004016119529190614d84565b60006040518083038186803b15801561196a57600080fd5b505af415801561197e573d6000803e3d6000fd5b505050506040513d6000823e601f3d908101601f1916820160405261067c9190810190614241565b60075481565b6005546001600160a01b031681565b6000806060600073__$a2317ed4aecd4fd151d12b4b79c9600dfe$__63ca49f47c866040518263ffffffff1660e01b81526004016119f99190614d84565b60006040518083038186803b158015611a1157600080fd5b505af4158015611a25573d6000803e3d6000fd5b505050506040513d6000823e601f3d908101601f191682016040526109cd9190810190614199565b606060008251905080604051908082528060200260200182016040528015611a7f578160200160208202803883390190505b50915060005b8181146107d257611a9c8585838151811061142657fe5b838281518110611aa857fe5b6020908102919091010152600101611a85565b600080611ace838263ffffffff612a0e16565b90506001600160e01b031981167f94cfcdd7000000000000000000000000000000000000000000000000000000001415611c395760608073__$a2317ed4aecd4fd151d12b4b79c9600dfe$__63bbb2dcf6866040518263ffffffff1660e01b8152600401611b3c9190614d84565b60006040518083038186803b158015611b5457600080fd5b505af4158015611b68573d6000803e3d6000fd5b505050506040513d6000823e601f3d908101601f19168201604052611b909190810190614241565b80519194509250905060005b818114611c2e57838181518110611baf57fe5b602002602001015160001415611bc457611c26565b6000611bd6898584815181106107a657fe5b90506000858381518110611be657fe5b60200260200101518281611bf657fe5b04905080611c0e5760009750505050505050506106cd565b87811080611c1a575087155b15611c23578097505b50505b600101611b9c565b506106cd9350505050565b6001600160e01b031981167ff47261b0000000000000000000000000000000000000000000000000000000001415611c9a576000611c7e84601063ffffffff612a4716565b600154909150610c0790829087906001600160a01b0316612dbb565b6001600160e01b031981167f02571792000000000000000000000000000000000000000000000000000000001415611fea5760008073__$a2317ed4aecd4fd151d12b4b79c9600dfe$__6304a5618a866040518263ffffffff1660e01b8152600401611d069190614d84565b60606040518083038186803b158015611d1e57600080fd5b505af4158015611d32573d6000803e3d6000fd5b505050506040513d601f19601f82011682018060405250611d569190810190614201565b600254604051929550909350606092507fe985e9c50000000000000000000000000000000000000000000000000000000091611da2918a916001600160a01b039091169060240161489c565b604051602081830303815290604052907bffffffffffffffffffffffffffffffffffffffffffffffffffffffff19166020820180517bffffffffffffffffffffffffffffffffffffffffffffffffffffffff8381831617835250505050905060006060846001600160a01b031683604051611e1d919061486c565b600060405180830381855afa9150503d8060008114611e58576040519150601f19603f3d011682016040523d82523d6000602084013e611e5d565b606091505b5091509150811580611e7157508051602014155b80611e8d5750611e8881600063ffffffff612b7216565b600114155b15611fdb576040516060907f081812fc0000000000000000000000000000000000000000000000000000000090611ec8908790602401614c01565b604051602081830303815290604052907bffffffffffffffffffffffffffffffffffffffffffffffffffffffff19166020820180517bffffffffffffffffffffffffffffffffffffffffffffffffffffffff83818316178352505050509050856001600160a01b031681604051611f3f919061486c565b600060405180830381855afa9150503d8060008114611f7a576040519150601f19603f3d011682016040523d82523d6000602084013e611f7f565b606091505b509093509150828015611f93575081516020145b8015611fc257506002546001600160a01b0316611fb783600c63ffffffff612a4716565b6001600160a01b0316145b611fcd576000611fd0565b60015b60ff169750506110ba565b60001996505050505050611490565b6001600160e01b031981167fa7cb5fb7000000000000000000000000000000000000000000000000000000001415612211576040517f9eadc83500000000000000000000000000000000000000000000000000000000815260009073__$a2317ed4aecd4fd151d12b4b79c9600dfe$__90639eadc8359061206f908790600401614d84565b60006040518083038186803b15801561208757600080fd5b505af415801561209b573d6000803e3d6000fd5b505050506040513d6000823e601f3d908101601f191682016040526120c391908101906140ef565b5050600354604051929450606093507fe985e9c5000000000000000000000000000000000000000000000000000000009261210d925089916001600160a01b03169060240161489c565b604051602081830303815290604052907bffffffffffffffffffffffffffffffffffffffffffffffffffffffff19166020820180517bffffffffffffffffffffffffffffffffffffffffffffffffffffffff8381831617835250505050905060006060836001600160a01b031683604051612188919061486c565b600060405180830381855afa9150503d80600081146121c3576040519150601f19603f3d011682016040523d82523d6000602084013e6121c8565b606091505b50915091508180156121db575080516020145b80156121f757506121f381600063ffffffff612b7216565b6001145b612202576000612206565b6000195b955050505050611490565b6001600160e01b031981167fc339d10a00000000000000000000000000000000000000000000000000000000141561224d576000199150611490565b6001600160e01b031981167fdc1600f30000000000000000000000000000000000000000000000000000000014156114905760008073__$a2317ed4aecd4fd151d12b4b79c9600dfe$__63750bdb30866040518263ffffffff1660e01b81526004016122b99190614d84565b60006040518083038186803b1580156122d157600080fd5b505af41580156122e5573d6000803e3d6000fd5b505050506040513d6000823e601f3d908101601f1916820160405261230d9190810190614085565b50925092505061231b612b7e565b6001600160a01b0316826001600160a01b031614801561234857506005546001600160a01b038281169116145b1561239257600061236d61235a612b96565b60055489906001600160a01b0316612dbb565b905060001981146123865761238181612bae565b61238a565b6000195b94505061243d565b6006546001600160a01b038281169116141561243d5773__$9b2d7ef2247de471c5cb1425c931cdd0e4$__630e70a03387836123cc612ec5565b6040518463ffffffff1660e01b81526004016123ea939291906148b6565b60206040518083038186803b15801561240257600080fd5b505af4158015612416573d6000803e3d6000fd5b505050506040513d601f19601f8201168201806040525061243a9190810190614641565b93505b50505092915050565b600080546040517f8dccde0400000000000000000000000000000000000000000000000000000000815273__$35bb14ffe56b1143d5360c9efbaa220574$__91638dccde0491610ad0916001600160a01b031690889088908890600401614a23565b6040517fd3d862d100000000000000000000000000000000000000000000000000000000815260609073__$a2317ed4aecd4fd151d12b4b79c9600dfe$__9063d3d862d1906117f69086908690600401614b6c565b6040517fd469502800000000000000000000000000000000000000000000000000000000815260009073__$a2317ed4aecd4fd151d12b4b79c9600dfe$__9063d469502890612550908590600401614d84565b60206040518083038186803b15801561256857600080fd5b505af415801561257c573d6000803e3d6000fd5b505050506040513d601f19601f820116820180604052506108819190810190614033565b6060806060600085519050806040519080825280602002602001820160405280156125e557816020015b6125d26136a6565b8152602001906001900390816125ca5790505b50935080604051908082528060200260200182016040528015612612578160200160208202803883390190505b5092508060405190808252806020026020018201604052801561263f578160200160208202803883390190505b50915060005b8181146126cf5761267c87828151811061265b57fe5b602002602001015187838151811061266f57fe5b60200260200101516126f1565b875188908590811061268a57fe5b6020026020010187858151811061269d57fe5b602002602001018786815181106126b057fe5b9315156020948502919091019093019290925291905252600101612645565b50509250925092565b6060806126e58484611a4d565b91506106a28484610757565b6126f96136a6565b600080546040517f9d3fa4b900000000000000000000000000000000000000000000000000000000815282916001600160a01b031690639d3fa4b990612743908890600401614eca565b60606040518083038186803b15801561275b57600080fd5b505afa15801561276f573d6000803e3d6000fd5b505050506040513d601f19601f820116820180604052506127939190810190614439565b85516000546040517fa12dcc6f00000000000000000000000000000000000000000000000000000000815292955090916001600160a01b039091169063a12dcc6f906127e59089908990600401614f08565b60206040518083038186803b1580156127fd57600080fd5b505afa158015612811573d6000803e3d6000fd5b505050506040513d601f19601f820116820180604052506128359190810190614013565b9150600061284287612edd565b90506000612863886101800151896101400151612f0990919063ffffffff16565b1561289857612891826128878a60c001518b60800151612f2e90919063ffffffff16565b8a60a00151612f4a565b9050612905565b60c08801516128b4576128918289608001518a60a00151612f4a565b60006128c5848a61018001516106ab565b905060006128dc848b608001518c60a00151612f4a565b905060006128f3838c60c001518d60a00151612f4a565b90506128ff828261298d565b93505050505b61292961292387604001518a60a00151612f6c90919063ffffffff16565b8261298d565b945061293488612f8b565b61293d57600094505b60038651600681111561294c57fe5b1461295657600094505b5050509250925092565b6001546001600160a01b031681565b6002546001600160a01b031681565b6003546001600160a01b031681565b600081831061299c578161184a565b5090919050565b8351602094850120835193850193909320604080517f8b73c3c69bb8fe3d512ecc4cf759cc79239f7b179b0ffacaa9a75d522b39400f815295860194909452928401929092526060830152608082015260a0902090565b600061184a82612a0985612ff2565b61306d565b60008160040183511015612a3457612a34612a2f60038551856004016130a7565b613116565b5001602001516001600160e01b03191690565b60008160140183511015612a6857612a68612a2f60048551856014016130a7565b5001601401516001600160a01b031690565b60405160009081906060906001600160a01b038616907f70a082310000000000000000000000000000000000000000000000000000000090612ac0908790602401614888565b60408051601f198184030181529181526020820180517bffffffffffffffffffffffffffffffffffffffffffffffffffffffff166001600160e01b0319909416939093179092529051612b13919061486c565b600060405180830381855afa9150503d8060008114612b4e576040519150601f19603f3d011682016040523d82523d6000602084013e612b53565b606091505b5091509150818015612b66575080516020145b156107d2576106c88160005b600061184a838361311e565b736b175474e89094c44da98b954eedeac495271d0f90565b7306af07097c9eeb7fd685c692751d5c66db49c21590565b600080612bb9612b96565b6001600160a01b0316634ba2363a6040518163ffffffff1660e01b8152600401602060405180830381600087803b158015612bf357600080fd5b505af1158015612c07573d6000803e3d6000fd5b505050506040513d601f19601f82011682018060405250612c2b9190810190614311565b90506000816001600160a01b03166320aba08b6040518163ffffffff1660e01b8152600401602060405180830381600087803b158015612c6a57600080fd5b505af1158015612c7e573d6000803e3d6000fd5b505050506040513d601f19601f82011682018060405250612ca29190810190614641565b4211612d2057816001600160a01b031663c92aecc46040518163ffffffff1660e01b8152600401602060405180830381600087803b158015612ce357600080fd5b505af1158015612cf7573d6000803e3d6000fd5b505050506040513d601f19601f82011682018060405250612d1b9190810190614641565b612d93565b816001600160a01b0316639f678cca6040518163ffffffff1660e01b8152600401602060405180830381600087803b158015612d5b57600080fd5b505af1158015612d6f573d6000803e3d6000fd5b505050506040513d601f19601f82011682018060405250612d939190810190614641565b9050610934816b033b2e3c9fd0803ce800000086612f4a565b600061184a82612a0985613148565b60405160009081906060906001600160a01b038716907fdd62ed3e0000000000000000000000000000000000000000000000000000000090612e03908890889060240161489c565b60408051601f198184030181529181526020820180517bffffffffffffffffffffffffffffffffffffffffffffffffffffffff166001600160e01b0319909416939093179092529051612e56919061486c565b600060405180830381855afa9150503d8060008114612e91576040519150601f19603f3d011682016040523d82523d6000602084013e612e96565b606091505b5091509150818015612ea9575080516020145b15612ebc57612eb9816000612b72565b92505b50509392505050565b731e0447b19bb6ecfdae1e4ae1694b0c3659614e4e90565b6000806000612eeb84613201565b91509150612ef9828261298d565b925061093483856080015161298d565b60008151835114801561184a5750508051602091820120825192909101919091201490565b60008282018381101561184a5761184a612a2f60008686613414565b600061093483612f60868563ffffffff61343316565b9063ffffffff61346416565b600082821115612f8557612f85612a2f60028585613414565b50900390565b6000612f9b82610140015161348e565b8015612fbc575060c08201511580612fbc5750612fbc82610180015161348e565b8015612fd15750612fd182610160015161348e565b8015610881575060e082015115806108815750610881826101a0015161348e565b608081810151825160208085015160408087015160609788015186519685019690962082517fec69816980a3a3ca4554410e60253953e9ff375ba4536a98adfa15cc7154150881529485019590955290830191909152948101949094526001600160a01b039091169183019190915260a082015260c0902090565b6040517f19010000000000000000000000000000000000000000000000000000000000008152600281019290925260228201526042902090565b6060632800659560e01b8484846040516024016130c693929190614df7565b60408051601f198184030181529190526020810180517bffffffffffffffffffffffffffffffffffffffffffffffffffffffff166001600160e01b03199093169290921790915290509392505050565b805160208201fd5b6000816020018351101561313f5761313f612a2f60058551856020016130a7565b50016020015190565b6101408101516101608201516101808301516101a08401516000937ff80322eb8376aafb64eadf8f0d7623f22130fd9491a221e902b713cb984a75349390929091602087101561319457fe5b601f1987018051610140890180516101608b0180516101808d0180516101a08f0180519d89528c5160209d8e012087528b519b8d019b909b2084528951998c01999099208152875197909a019690962088526101e085209390945290529190529252919091529050919050565b600080600483610140015151101561321e57506000905080611525565b610140830151600090613237908263ffffffff612a0e16565b90506001600160e01b031981167fdc1600f30000000000000000000000000000000000000000000000000000000014156133e4576101408401516040517f750bdb3000000000000000000000000000000000000000000000000000000000815260009173__$a2317ed4aecd4fd151d12b4b79c9600dfe$__9163750bdb30916132c291600401614d84565b60006040518083038186803b1580156132da57600080fd5b505af41580156132ee573d6000803e3d6000fd5b505050506040513d6000823e601f3d908101601f191682016040526133169190810190614085565b506006549093506001600160a01b038085169116141591506133e290505773__$9b2d7ef2247de471c5cb1425c931cdd0e4$__63d12a796086613357612ec5565b6040518363ffffffff1660e01b8152600401613374929190614edd565b60206040518083038186803b15801561338c57600080fd5b505af41580156133a0573d6000803e3d6000fd5b505050506040513d601f19601f820116820180604052506133c49190810190614641565b6133d78660000151876101400151611abb565b935093505050611525565b505b6133f78460000151856101400151610ba1565b61340a8560000151866101400151611abb565b9250925050915091565b606063e946c1bb60e01b8484846040516024016130c693929190614dd5565b600082613442575060006106cd565b8282028284828161344f57fe5b041461184a5761184a612a2f60018686613414565b60008161347a5761347a612a2f60038585613414565b600082848161348557fe5b04949350505050565b6000602082518161349b57fe5b066004146134ab57506000610884565b60006134bd838263ffffffff612a0e16565b90506001600160e01b031981167f94cfcdd700000000000000000000000000000000000000000000000000000000146134fa576001915050610884565b6040517fbbb2dcf600000000000000000000000000000000000000000000000000000000815260609073__$a2317ed4aecd4fd151d12b4b79c9600dfe$__9063bbb2dcf69061354d908790600401614d84565b60006040518083038186803b15801561356557600080fd5b505af4158015613579573d6000803e3d6000fd5b505050506040513d6000823e601f3d908101601f191682016040526135a19190810190614241565b80519093509150600090505b8181146136375760006135dd60008584815181106135c757fe5b6020026020010151612a0e90919063ffffffff16565b90506001600160e01b031981167f0257179200000000000000000000000000000000000000000000000000000000141561362e5761361b8483613643565b1561362e57600095505050505050610884565b506001016135ad565b50600195945050505050565b8151600090600183015b818110156107d25761368e85828151811061366457fe5b602002602001015186868151811061367857fe5b6020026020010151612f0990919063ffffffff16565b1561369e576001925050506106cd565b60010161364d565b6040805160608101909152806000815260006020820181905260409091015290565b80356106cd81614fd6565b80516106cd81614fd6565b600082601f8301126136ee578081fd5b81356137016136fc82614f62565b614f3b565b81815291506020808301908481018184028601820187101561372257600080fd5b60005b8481101561148b57813561373881614fd6565b84529282019290820190600101613725565b600082601f83011261375a578081fd5b81356137686136fc82614f62565b8181529150602080830190840160005b838110156137a5576137908760208435890101613939565b83526020928301929190910190600101613778565b5050505092915050565b600082601f8301126137bf578081fd5b81516137cd6136fc82614f62565b8181529150602080830190840160005b838110156137a5576137f58760208451890101613987565b835260209283019291909101906001016137dd565b600082601f83011261381a578081fd5b81356138286136fc82614f62565b8181529150602080830190840160005b838110156137a55761385087602084358901016139dc565b83526020928301929190910190600101613838565b600082601f830112613875578081fd5b81356138836136fc82614f62565b8181529150602080830190848101818402860182018710156138a457600080fd5b60005b8481101561148b578135845292820192908201906001016138a7565b600082601f8301126138d3578081fd5b81516138e16136fc82614f62565b81815291506020808301908481018184028601820187101561390257600080fd5b60005b8481101561148b57815184529282019290820190600101613905565b80516001600160e01b0319811681146106cd57600080fd5b600082601f830112613949578081fd5b81356139576136fc82614f82565b915080825283602082850101111561396e57600080fd5b8060208401602084013760009082016020015292915050565b600082601f830112613997578081fd5b81516139a56136fc82614f82565b91508082528360208285010111156139bc57600080fd5b611490816020840160208601614fa6565b8051600581106106cd57600080fd5b60006101c08083850312156139ef578182fd5b6139f881614f3b565b915050613a0583836136c8565b8152613a1483602084016136c8565b6020820152613a2683604084016136c8565b6040820152613a3883606084016136c8565b60608201526080820135608082015260a082013560a082015260c082013560c082015260e082013560e08201526101008083013581830152506101208083013581830152506101408083013567ffffffffffffffff80821115613a9a57600080fd5b613aa686838701613939565b83850152610160925082850135915080821115613ac257600080fd5b613ace86838701613939565b83850152610180925082850135915080821115613aea57600080fd5b613af686838701613939565b838501526101a0925082850135915080821115613b1257600080fd5b50613b1f85828601613939565b82840152505092915050565b60006101c0808385031215613b3e578182fd5b613b4781614f3b565b915050613b5483836136d3565b8152613b6383602084016136d3565b6020820152613b7583604084016136d3565b6040820152613b8783606084016136d3565b60608201526080820151608082015260a082015160a082015260c082015160c082015260e082015160e08201526101008083015181830152506101208083015181830152506101408083015167ffffffffffffffff80821115613be957600080fd5b613bf586838701613987565b83850152610160925082850151915080821115613c1157600080fd5b613c1d86838701613987565b83850152610180925082850151915080821115613c3957600080fd5b613c4586838701613987565b838501526101a0925082850151915080821115613c6157600080fd5b50613b1f85828601613987565b600060208284031215613c7f578081fd5b813561184a81614fd6565b60008060408385031215613c9c578081fd5b8235613ca781614fd6565b9150602083013567ffffffffffffffff811115613cc2578182fd5b613cce8582860161374a565b9150509250929050565b60008060008060808587031215613ced578182fd5b8435613cf881614fd6565b9350602085013567ffffffffffffffff80821115613d14578384fd5b613d2088838901613865565b94506040870135915080821115613d35578384fd5b613d4188838901613865565b93506060870135915080821115613d56578283fd5b50613d6387828801613939565b91505092959194509250565b60008060408385031215613d81578182fd5b8235613d8c81614fd6565b9150602083013567ffffffffffffffff811115613da7578182fd5b613cce85828601613939565b600080600060608486031215613dc7578081fd5b8335613dd281614fd6565b9250602084013567ffffffffffffffff811115613ded578182fd5b613df986828701613939565b925050604084013590509250925092565b60008060408385031215613e1c578182fd5b8235613e2781614fd6565b946020939093013593505050565b600060208284031215613e46578081fd5b813567ffffffffffffffff811115613e5c578182fd5b610934848285016136de565b60006020808385031215613e7a578182fd5b825167ffffffffffffffff811115613e90578283fd5b80840185601f820112613ea1578384fd5b80519150613eb16136fc83614f62565b8281528381019082850185850284018601891015613ecd578687fd5b8693505b84841015613ef757613ee389826139cd565b835260019390930192918501918501613ed1565b50979650505050505050565b600080600060608486031215613f17578081fd5b833567ffffffffffffffff80821115613f2e578283fd5b613f3a8783880161380a565b94506020860135915080821115613f4f578283fd5b613f5b878388016136de565b93506040860135915080821115613f70578283fd5b50613f7d86828701613865565b9150509250925092565b60008060408385031215613f99578182fd5b823567ffffffffffffffff80821115613fb0578384fd5b613fbc8683870161380a565b93506020850135915080821115613fd1578283fd5b50613cce8582860161374a565b60008060408385031215613ff0578182fd5b823567ffffffffffffffff80821115614007578384fd5b613fbc86838701613865565b600060208284031215614024578081fd5b8151801515811461184a578182fd5b600060208284031215614044578081fd5b61184a8383613921565b60008060408385031215614060578182fd5b61406a8484613921565b9150602083015161407a81614fd6565b809150509250929050565b6000806000806080858703121561409a578182fd5b84516140a581614feb565b60208601519094506140b681614fd6565b60408601519093506140c781614fd6565b606086015190925067ffffffffffffffff8111156140e3578182fd5b613d6387828801613987565b600080600080600060a08688031215614106578283fd5b6141108787613921565b9450602086015161412081614fd6565b604087015190945067ffffffffffffffff8082111561413d578485fd5b61414989838a016138c3565b9450606088015191508082111561415e578283fd5b61416a89838a016138c3565b9350608088015191508082111561417f578283fd5b5061418c88828901613987565b9150509295509295909350565b600080600080608085870312156141ae578182fd5b6141b88686613921565b935060208501516141c881614fd6565b604086015190935067ffffffffffffffff8111156141e4578283fd5b6141f087828801613987565b606096909601519497939650505050565b600080600060608486031215614215578081fd5b61421f8585613921565b9250602084015161422f81614fd6565b80925050604084015190509250925092565b600080600060608486031215614255578081fd5b835161426081614feb565b602085015190935067ffffffffffffffff8082111561427d578283fd5b614289878388016138c3565b9350604086015191508082111561429e578283fd5b50613f7d868287016137af565b6000602082840312156142bc578081fd5b813567ffffffffffffffff8111156142d2578182fd5b61093484828501613939565b6000602082840312156142ef578081fd5b815167ffffffffffffffff811115614305578182fd5b61093484828501613987565b600060208284031215614322578081fd5b815161184a81614fd6565b60006020828403121561433e578081fd5b81516005811061184a578182fd5b60008060008060808587031215614361578182fd5b845167ffffffffffffffff80821115614378578384fd5b61438488838901613987565b955060209150818701518181111561439a578485fd5b80880189601f8201126143ab578586fd5b805191506143bb6136fc83614f62565b82815284810190828601885b858110156143f0576143de8e898451880101613b2b565b845292870192908701906001016143c7565b505060408b015190985094505050508082111561440b578384fd5b614417888389016138c3565b9350606087015191508082111561442c578283fd5b50613d63878288016137af565b60006060828403121561444a578081fd5b6144546060614f3b565b825160078110614462578283fd5b8152602083810151908201526040928301519281019290925250919050565b600080600060608486031215614495578081fd5b833567ffffffffffffffff8111156144ab578182fd5b6144b7868287016139dc565b93505060208401356144c881614fd6565b929592945050506040919091013590565b600080604083850312156144eb578182fd5b823567ffffffffffffffff80821115614502578384fd5b61450e868387016139dc565b93506020850135915080821115614523578283fd5b50613cce85828601613939565b600080600060608486031215614544578081fd5b833567ffffffffffffffff81111561455a578182fd5b614566868287016139dc565b93505060208401359150604084013561457e81614fd6565b809150509250925092565b60008060006060848603121561459d578081fd5b833567ffffffffffffffff808211156145b4578283fd5b81860160a081890312156145c6578384fd5b6145d060a0614f3b565b92508035835260208101356020840152604081013560408401526145f788606083016136c8565b606084015260808101358281111561460d578485fd5b61461989828401613939565b60808501525091945050506020840135915061463885604086016136c8565b90509250925092565b600060208284031215614652578081fd5b5051919050565b6001600160a01b0316815260200190565b60006146768383614748565b505060600190565b6001600160a01b03169052565b60008282518085526020808601955080818302840101818601855b848110156146d457601f198684030189526146c283835161471c565b988401989250908301906001016146a6565b5090979650505050505050565b6000815180845260208401935060208301825b828110156147125781518652602095860195909101906001016146f4565b5093949350505050565b60008151808452614734816020860160208601614fa6565b601f01601f19169290920160200192915050565b80516007811061475457fe5b825260208181015190830152604090810151910152565b60006101c061477b84845161467e565b602083015161478d602086018261467e565b5060408301516147a0604086018261467e565b5060608301516147b3606086018261467e565b506080830151608085015260a083015160a085015260c083015160c085015260e083015160e085015261010080840151818601525061012080840151818601525061014080840151828287015261480c8387018261471c565b91505061016091508184015185820383870152614829828261471c565b925050506101808084015185830382870152614845838261471c565b9150506101a091508184015185820383870152614862828261471c565b9695505050505050565b6000825161487e818460208701614fa6565b9190910192915050565b6001600160a01b0391909116815260200190565b6001600160a01b0392831681529116602082015260400190565b6001600160a01b0393841681529183166020830152909116604082015260600190565b6000608082016001600160a01b038716835260206080818501528187516149008185614c01565b91508193508281028201838a01865b8381101561493957868303855261492783835161476b565b9486019492509085019060010161490f565b50508681036040880152809450885192506149548382614c01565b94505050818701845b8281101561497e57614970858351614659565b94509083019060010161495d565b50505050828103606084015261499481856146e1565b979650505050505050565b60006001600160a01b0386168252608060208301526149c160808301866146e1565b82810360408401526149d381866146e1565b83810360608501526149e5818661471c565b98975050505050505050565b60006001600160a01b038516825260606020830152614a13606083018561471c565b9050826040830152949350505050565b60006001600160a01b03808716835260806020840152614a46608084018761476b565b94166040830152506060015292915050565b6001600160a01b03929092168252602082015260400190565b602080825282518282018190526000918401906040840190835b81811015614ab357835160058110614a9f57fe5b835260209384019390920191600101614a8b565b509095945050505050565b60006060820160608352808651614ad58184614c01565b915060209250828801845b82811015614b0157614af384835161466a565b935090840190600101614ae0565b50505083810382850152614b1581876146e1565b84810360408601528551808252908301915082860190845b81811015614b4b578251151584529284019291840191600101614b2d565b509198975050505050505050565b60006020825261184a60208301846146e1565b600060408252614b7f60408301856146e1565b602083820381850152818551808452828401915082838202850101838801865b83811015614bcd57601f19878403018552614bbb83835161471c565b94860194925090850190600101614b9f565b50909998505050505050505050565b600060408252614bef60408301856146e1565b828103602084015261190d81856146e1565b90815260200190565b6001600160e01b031991909116815260200190565b6001600160e01b03199290921682526001600160a01b0316602082015260400190565b60006001600160e01b0319861682526001600160a01b03808616602084015280851660408401525060806060830152614862608083018461471c565b60006001600160e01b0319871682526001600160a01b038616602083015260a06040830152614cb060a08301866146e1565b8281036060840152614cc281866146e1565b8381036080850152614cd4818661471c565b9998505050505050505050565b60006001600160e01b0319861682526001600160a01b038516602083015260806040830152614d13608083018561471c565b905082606083015295945050505050565b6001600160e01b03199390931683526001600160a01b03919091166020830152604082015260600190565b60006001600160e01b03198516825260606020830152614d7260608301856146e1565b8281036040840152614862818561468b565b60006020825261184a602083018461471c565b600060808252614daa608083018761471c565b6001600160a01b03958616602084015293909416604082015260ff9190911660609091015292915050565b6060810160048510614de357fe5b938152602081019290925260409091015290565b6060810160088510614de357fe5b6020810160058310614e1357fe5b91905290565b600060808252614e2c608083018761471c565b602083820381850152818751808452828401915082838202850101838a01865b83811015614e7a57601f19878403018552614e6883835161476b565b94860194925090850190600101614e4c565b50508681036040880152614e8e818a6146e1565b9450505050508281036060840152614994818561468b565b60a08101614eb48286614748565b8360608301528215156080830152949350505050565b60006020825261184a602083018461476b565b600060408252614ef0604083018561476b565b90506001600160a01b03831660208301529392505050565b600060408252614f1b604083018561476b565b828103602084015261190d818561471c565b918252602082015260400190565b60405181810167ffffffffffffffff81118282101715614f5a57600080fd5b604052919050565b600067ffffffffffffffff821115614f78578081fd5b5060209081020190565b600067ffffffffffffffff821115614f98578081fd5b50601f01601f191660200190565b60005b83811015614fc1578181015183820152602001614fa9565b83811115614fd0576000848401525b50505050565b6001600160a01b038116811461075457600080fd5b6001600160e01b03198116811461075457600080fdfea365627a7a72315820ae89253a8fdbd41c2ab0ddfd225232c891fe07cd92b002434d7a8204adf1f62b6c6578706572696d656e74616cf564736f6c63430005110040",
                "opcodes": "PUSH1 0x80 PUSH1 0x40 MSTORE CALLVALUE DUP1 ISZERO PUSH3 0x11 JUMPI PUSH1 0x0 DUP1 REVERT JUMPDEST POP PUSH1 0x40 MLOAD PUSH3 0x54CA CODESIZE SUB DUP1 PUSH3 0x54CA DUP4 CODECOPY DUP2 ADD PUSH1 0x40 DUP2 SWAP1 MSTORE PUSH3 0x34 SWAP2 PUSH3 0x3F5 JUMP JUMPDEST PUSH1 0x0 DUP1 SLOAD PUSH1 0x1 PUSH1 0x1 PUSH1 0xA0 SHL SUB NOT SWAP1 DUP2 AND PUSH1 0x1 PUSH1 0x1 PUSH1 0xA0 SHL SUB DUP7 DUP2 AND SWAP2 DUP3 OR DUP5 SSTORE PUSH1 0x5 DUP1 SLOAD DUP5 AND DUP8 DUP4 AND OR SWAP1 SSTORE PUSH1 0x6 DUP1 SLOAD SWAP1 SWAP4 AND SWAP1 DUP6 AND OR SWAP1 SWAP2 SSTORE PUSH1 0x40 MLOAD PUSH4 0xC0E0821 PUSH1 0xE3 SHL DUP2 MSTORE DUP3 SWAP2 DUP7 SWAP2 DUP7 SWAP2 DUP7 SWAP2 PUSH4 0x60704108 SWAP1 PUSH3 0xA0 SWAP1 PUSH4 0xF47261B PUSH1 0xE4 SHL SWAP1 PUSH1 0x4 ADD PUSH3 0x448 JUMP JUMPDEST PUSH1 0x20 PUSH1 0x40 MLOAD DUP1 DUP4 SUB DUP2 DUP7 DUP1 EXTCODESIZE ISZERO DUP1 ISZERO PUSH3 0xB9 JUMPI PUSH1 0x0 DUP1 REVERT JUMPDEST POP GAS STATICCALL ISZERO DUP1 ISZERO PUSH3 0xCE JUMPI RETURNDATASIZE PUSH1 0x0 DUP1 RETURNDATACOPY RETURNDATASIZE PUSH1 0x0 REVERT JUMPDEST POP POP POP POP PUSH1 0x40 MLOAD RETURNDATASIZE PUSH1 0x1F NOT PUSH1 0x1F DUP3 ADD AND DUP3 ADD DUP1 PUSH1 0x40 MSTORE POP PUSH3 0xF4 SWAP2 SWAP1 DUP2 ADD SWAP1 PUSH3 0x3C5 JUMP JUMPDEST PUSH1 0x1 DUP1 SLOAD PUSH1 0x1 PUSH1 0x1 PUSH1 0xA0 SHL SUB NOT AND PUSH1 0x1 PUSH1 0x1 PUSH1 0xA0 SHL SUB SWAP3 DUP4 AND OR SWAP1 SSTORE PUSH1 0x40 MLOAD PUSH4 0xC0E0821 PUSH1 0xE3 SHL DUP2 MSTORE SWAP1 DUP5 AND SWAP1 PUSH4 0x60704108 SWAP1 PUSH3 0x13E SWAP1 PUSH4 0x12B8BC9 PUSH1 0xE1 SHL SWAP1 PUSH1 0x4 ADD PUSH3 0x448 JUMP JUMPDEST PUSH1 0x20 PUSH1 0x40 MLOAD DUP1 DUP4 SUB DUP2 DUP7 DUP1 EXTCODESIZE ISZERO DUP1 ISZERO PUSH3 0x157 JUMPI PUSH1 0x0 DUP1 REVERT JUMPDEST POP GAS STATICCALL ISZERO DUP1 ISZERO PUSH3 0x16C JUMPI RETURNDATASIZE PUSH1 0x0 DUP1 RETURNDATACOPY RETURNDATASIZE PUSH1 0x0 REVERT JUMPDEST POP POP POP POP PUSH1 0x40 MLOAD RETURNDATASIZE PUSH1 0x1F NOT PUSH1 0x1F DUP3 ADD AND DUP3 ADD DUP1 PUSH1 0x40 MSTORE POP PUSH3 0x192 SWAP2 SWAP1 DUP2 ADD SWAP1 PUSH3 0x3C5 JUMP JUMPDEST PUSH1 0x2 DUP1 SLOAD PUSH1 0x1 PUSH1 0x1 PUSH1 0xA0 SHL SUB NOT AND PUSH1 0x1 PUSH1 0x1 PUSH1 0xA0 SHL SUB SWAP3 DUP4 AND OR SWAP1 SSTORE PUSH1 0x40 MLOAD PUSH4 0xC0E0821 PUSH1 0xE3 SHL DUP2 MSTORE SWAP1 DUP5 AND SWAP1 PUSH4 0x60704108 SWAP1 PUSH3 0x1DC SWAP1 PUSH4 0xA7CB5FB7 PUSH1 0xE0 SHL SWAP1 PUSH1 0x4 ADD PUSH3 0x448 JUMP JUMPDEST PUSH1 0x20 PUSH1 0x40 MLOAD DUP1 DUP4 SUB DUP2 DUP7 DUP1 EXTCODESIZE ISZERO DUP1 ISZERO PUSH3 0x1F5 JUMPI PUSH1 0x0 DUP1 REVERT JUMPDEST POP GAS STATICCALL ISZERO DUP1 ISZERO PUSH3 0x20A JUMPI RETURNDATASIZE PUSH1 0x0 DUP1 RETURNDATACOPY RETURNDATASIZE PUSH1 0x0 REVERT JUMPDEST POP POP POP POP PUSH1 0x40 MLOAD RETURNDATASIZE PUSH1 0x1F NOT PUSH1 0x1F DUP3 ADD AND DUP3 ADD DUP1 PUSH1 0x40 MSTORE POP PUSH3 0x230 SWAP2 SWAP1 DUP2 ADD SWAP1 PUSH3 0x3C5 JUMP JUMPDEST PUSH1 0x3 DUP1 SLOAD PUSH1 0x1 PUSH1 0x1 PUSH1 0xA0 SHL SUB NOT AND PUSH1 0x1 PUSH1 0x1 PUSH1 0xA0 SHL SUB SWAP3 DUP4 AND OR SWAP1 SSTORE PUSH1 0x40 MLOAD PUSH4 0xC0E0821 PUSH1 0xE3 SHL DUP2 MSTORE SWAP1 DUP5 AND SWAP1 PUSH4 0x60704108 SWAP1 PUSH3 0x27A SWAP1 PUSH4 0x619CE885 PUSH1 0xE1 SHL SWAP1 PUSH1 0x4 ADD PUSH3 0x448 JUMP JUMPDEST PUSH1 0x20 PUSH1 0x40 MLOAD DUP1 DUP4 SUB DUP2 DUP7 DUP1 EXTCODESIZE ISZERO DUP1 ISZERO PUSH3 0x293 JUMPI PUSH1 0x0 DUP1 REVERT JUMPDEST POP GAS STATICCALL ISZERO DUP1 ISZERO PUSH3 0x2A8 JUMPI RETURNDATASIZE PUSH1 0x0 DUP1 RETURNDATACOPY RETURNDATASIZE PUSH1 0x0 REVERT JUMPDEST POP POP POP POP PUSH1 0x40 MLOAD RETURNDATASIZE PUSH1 0x1F NOT PUSH1 0x1F DUP3 ADD AND DUP3 ADD DUP1 PUSH1 0x40 MSTORE POP PUSH3 0x2CE SWAP2 SWAP1 DUP2 ADD SWAP1 PUSH3 0x3C5 JUMP JUMPDEST PUSH1 0x4 DUP1 SLOAD PUSH1 0x1 PUSH1 0x1 PUSH1 0xA0 SHL SUB NOT AND PUSH1 0x1 PUSH1 0x1 PUSH1 0xA0 SHL SUB SWAP3 DUP4 AND OR SWAP1 SSTORE PUSH1 0x0 SWAP4 POP DUP5 AND ISZERO SWAP2 POP PUSH3 0x301 SWAP1 POP JUMPI DUP2 PUSH3 0x303 JUMP JUMPDEST ADDRESS JUMPDEST SWAP1 POP PUSH3 0x35E PUSH1 0x40 MLOAD DUP1 PUSH1 0x40 ADD PUSH1 0x40 MSTORE DUP1 PUSH1 0xB DUP2 MSTORE PUSH1 0x20 ADD PUSH11 0xC1E08141C9BDD1BD8DBDB PUSH1 0xAA SHL DUP2 MSTORE POP PUSH1 0x40 MLOAD DUP1 PUSH1 0x40 ADD PUSH1 0x40 MSTORE DUP1 PUSH1 0x5 DUP2 MSTORE PUSH1 0x20 ADD PUSH5 0x332E302E3 PUSH1 0xDC SHL DUP2 MSTORE POP DUP6 DUP5 PUSH3 0x36E PUSH1 0x20 SHL PUSH3 0x29A3 OR PUSH1 0x20 SHR JUMP JUMPDEST PUSH1 0x7 SSTORE POP PUSH3 0x476 SWAP5 POP POP POP POP POP JUMP JUMPDEST DUP4 MLOAD PUSH1 0x20 SWAP5 DUP6 ADD KECCAK256 DUP4 MLOAD SWAP4 DUP6 ADD SWAP4 SWAP1 SWAP4 KECCAK256 PUSH1 0x40 DUP1 MLOAD PUSH32 0x8B73C3C69BB8FE3D512ECC4CF759CC79239F7B179B0FFACAA9A75D522B39400F DUP2 MSTORE SWAP6 DUP7 ADD SWAP5 SWAP1 SWAP5 MSTORE SWAP3 DUP5 ADD SWAP3 SWAP1 SWAP3 MSTORE PUSH1 0x60 DUP4 ADD MSTORE PUSH1 0x80 DUP3 ADD MSTORE PUSH1 0xA0 SWAP1 KECCAK256 SWAP1 JUMP JUMPDEST PUSH1 0x0 PUSH1 0x20 DUP3 DUP5 SUB SLT ISZERO PUSH3 0x3D7 JUMPI DUP1 DUP2 REVERT JUMPDEST DUP2 MLOAD PUSH1 0x1 PUSH1 0x1 PUSH1 0xA0 SHL SUB DUP2 AND DUP2 EQ PUSH3 0x3EE JUMPI DUP2 DUP3 REVERT JUMPDEST SWAP4 SWAP3 POP POP POP JUMP JUMPDEST PUSH1 0x0 DUP1 PUSH1 0x0 PUSH1 0x60 DUP5 DUP7 SUB SLT ISZERO PUSH3 0x40A JUMPI DUP2 DUP3 REVERT JUMPDEST DUP4 MLOAD PUSH3 0x417 DUP2 PUSH3 0x45D JUMP JUMPDEST PUSH1 0x20 DUP6 ADD MLOAD SWAP1 SWAP4 POP PUSH3 0x42A DUP2 PUSH3 0x45D JUMP JUMPDEST PUSH1 0x40 DUP6 ADD MLOAD SWAP1 SWAP3 POP PUSH3 0x43D DUP2 PUSH3 0x45D JUMP JUMPDEST DUP1 SWAP2 POP POP SWAP3 POP SWAP3 POP SWAP3 JUMP JUMPDEST PUSH1 0x1 PUSH1 0x1 PUSH1 0xE0 SHL SUB NOT SWAP2 SWAP1 SWAP2 AND DUP2 MSTORE PUSH1 0x20 ADD SWAP1 JUMP JUMPDEST PUSH1 0x1 PUSH1 0x1 PUSH1 0xA0 SHL SUB DUP2 AND DUP2 EQ PUSH3 0x473 JUMPI PUSH1 0x0 DUP1 REVERT JUMPDEST POP JUMP JUMPDEST PUSH2 0x5044 DUP1 PUSH3 0x486 PUSH1 0x0 CODECOPY PUSH1 0x0 RETURN INVALID PUSH1 0x80 PUSH1 0x40 MSTORE CALLVALUE DUP1 ISZERO PUSH2 0x10 JUMPI PUSH1 0x0 DUP1 REVERT JUMPDEST POP PUSH1 0x4 CALLDATASIZE LT PUSH2 0x277 JUMPI PUSH1 0x0 CALLDATALOAD PUSH1 0xE0 SHR DUP1 PUSH4 0xA5CD62BA GT PUSH2 0x160 JUMPI DUP1 PUSH4 0xD186037F GT PUSH2 0xD8 JUMPI DUP1 PUSH4 0xE4E6E7DA GT PUSH2 0x8C JUMPI DUP1 PUSH4 0xEE185997 GT PUSH2 0x71 JUMPI DUP1 PUSH4 0xEE185997 EQ PUSH2 0x5D8 JUMPI DUP1 PUSH4 0xEF3BB097 EQ PUSH2 0x5E0 JUMPI DUP1 PUSH4 0xFF84E7CC EQ PUSH2 0x5E8 JUMPI PUSH2 0x277 JUMP JUMPDEST DUP1 PUSH4 0xE4E6E7DA EQ PUSH2 0x595 JUMPI DUP1 PUSH4 0xE77286EB EQ PUSH2 0x5B6 JUMPI PUSH2 0x277 JUMP JUMPDEST DUP1 PUSH4 0xD3D862D1 GT PUSH2 0xBD JUMPI DUP1 PUSH4 0xD3D862D1 EQ PUSH2 0x540 JUMPI DUP1 PUSH4 0xD4695028 EQ PUSH2 0x553 JUMPI DUP1 PUSH4 0xE25CABF7 EQ PUSH2 0x573 JUMPI PUSH2 0x277 JUMP JUMPDEST DUP1 PUSH4 0xD186037F EQ PUSH2 0x51A JUMPI DUP1 PUSH4 0xD3637905 EQ PUSH2 0x52D JUMPI PUSH2 0x277 JUMP JUMPDEST DUP1 PUSH4 0xBBB2DCF6 GT PUSH2 0x12F JUMPI DUP1 PUSH4 0xC82037EF GT PUSH2 0x114 JUMPI DUP1 PUSH4 0xC82037EF EQ PUSH2 0x4DC JUMPI DUP1 PUSH4 0xCA49F47C EQ PUSH2 0x4E4 JUMPI DUP1 PUSH4 0xD001C5DC EQ PUSH2 0x507 JUMPI PUSH2 0x277 JUMP JUMPDEST DUP1 PUSH4 0xBBB2DCF6 EQ PUSH2 0x4B2 JUMPI DUP1 PUSH4 0xC26CFECD EQ PUSH2 0x4D4 JUMPI PUSH2 0x277 JUMP JUMPDEST DUP1 PUSH4 0xA5CD62BA EQ PUSH2 0x464 JUMPI DUP1 PUSH4 0xA6627E9F EQ PUSH2 0x484 JUMPI DUP1 PUSH4 0xA7530F12 EQ PUSH2 0x497 JUMPI DUP1 PUSH4 0xB43CFFE1 EQ PUSH2 0x49F JUMPI PUSH2 0x277 JUMP JUMPDEST DUP1 PUSH4 0x7982653E GT PUSH2 0x1F3 JUMPI DUP1 PUSH4 0x9BAF2705 GT PUSH2 0x1C2 JUMPI DUP1 PUSH4 0x9EADC835 GT PUSH2 0x1A7 JUMPI DUP1 PUSH4 0x9EADC835 EQ PUSH2 0x41A JUMPI DUP1 PUSH4 0xA070CAC8 EQ PUSH2 0x43E JUMPI DUP1 PUSH4 0xA0901E51 EQ PUSH2 0x451 JUMPI PUSH2 0x277 JUMP JUMPDEST DUP1 PUSH4 0x9BAF2705 EQ PUSH2 0x3FD JUMPI DUP1 PUSH4 0x9CD01605 EQ PUSH2 0x412 JUMPI PUSH2 0x277 JUMP JUMPDEST DUP1 PUSH4 0x7982653E EQ PUSH2 0x396 JUMPI DUP1 PUSH4 0x79C9C426 EQ PUSH2 0x3B6 JUMPI DUP1 PUSH4 0x7D727512 EQ PUSH2 0x3C9 JUMPI DUP1 PUSH4 0x8F4CE479 EQ PUSH2 0x3DC JUMPI PUSH2 0x277 JUMP JUMPDEST DUP1 PUSH4 0x4DFDAC20 GT PUSH2 0x24A JUMPI DUP1 PUSH4 0x63EB3992 GT PUSH2 0x22F JUMPI DUP1 PUSH4 0x63EB3992 EQ PUSH2 0x33D JUMPI DUP1 PUSH4 0x6F83188E EQ PUSH2 0x350 JUMPI DUP1 PUSH4 0x750BDB30 EQ PUSH2 0x373 JUMPI PUSH2 0x277 JUMP JUMPDEST DUP1 PUSH4 0x4DFDAC20 EQ PUSH2 0x2FD JUMPI DUP1 PUSH4 0x590AA875 EQ PUSH2 0x31D JUMPI PUSH2 0x277 JUMP JUMPDEST DUP1 PUSH4 0x4A5618A EQ PUSH2 0x27C JUMPI DUP1 PUSH4 0xD7B7D76 EQ PUSH2 0x2A7 JUMPI DUP1 PUSH4 0x2322CF76 EQ PUSH2 0x2C8 JUMPI DUP1 PUSH4 0x46EB65CB EQ PUSH2 0x2E8 JUMPI JUMPDEST PUSH1 0x0 DUP1 REVERT JUMPDEST PUSH2 0x28F PUSH2 0x28A CALLDATASIZE PUSH1 0x4 PUSH2 0x42AB JUMP JUMPDEST PUSH2 0x5F0 JUMP JUMPDEST PUSH1 0x40 MLOAD PUSH2 0x29E SWAP4 SWAP3 SWAP2 SWAP1 PUSH2 0x4D24 JUMP JUMPDEST PUSH1 0x40 MLOAD DUP1 SWAP2 SUB SWAP1 RETURN JUMPDEST PUSH2 0x2BA PUSH2 0x2B5 CALLDATASIZE PUSH1 0x4 PUSH2 0x3D6F JUMP JUMPDEST PUSH2 0x689 JUMP JUMPDEST PUSH1 0x40 MLOAD PUSH2 0x29E SWAP3 SWAP2 SWAP1 PUSH2 0x4F2D JUMP JUMPDEST PUSH2 0x2DB PUSH2 0x2D6 CALLDATASIZE PUSH1 0x4 PUSH2 0x3D6F JUMP JUMPDEST PUSH2 0x6AB JUMP JUMPDEST PUSH1 0x40 MLOAD PUSH2 0x29E SWAP2 SWAP1 PUSH2 0x4C01 JUMP JUMPDEST PUSH2 0x2FB PUSH2 0x2F6 CALLDATASIZE PUSH1 0x4 PUSH2 0x42AB JUMP JUMPDEST PUSH2 0x6D3 JUMP JUMPDEST STOP JUMPDEST PUSH2 0x310 PUSH2 0x30B CALLDATASIZE PUSH1 0x4 PUSH2 0x3C8A JUMP JUMPDEST PUSH2 0x757 JUMP JUMPDEST PUSH1 0x40 MLOAD PUSH2 0x29E SWAP2 SWAP1 PUSH2 0x4B59 JUMP JUMPDEST PUSH2 0x330 PUSH2 0x32B CALLDATASIZE PUSH1 0x4 PUSH2 0x3C6E JUMP JUMPDEST PUSH2 0x7DA JUMP JUMPDEST PUSH1 0x40 MLOAD PUSH2 0x29E SWAP2 SWAP1 PUSH2 0x4D84 JUMP JUMPDEST PUSH2 0x330 PUSH2 0x34B CALLDATASIZE PUSH1 0x4 PUSH2 0x3DB3 JUMP JUMPDEST PUSH2 0x889 JUMP JUMPDEST PUSH2 0x363 PUSH2 0x35E CALLDATASIZE PUSH1 0x4 PUSH2 0x42AB JUMP JUMPDEST PUSH2 0x93C JUMP JUMPDEST PUSH1 0x40 MLOAD PUSH2 0x29E SWAP5 SWAP4 SWAP3 SWAP2 SWAP1 PUSH2 0x4E19 JUMP JUMPDEST PUSH2 0x386 PUSH2 0x381 CALLDATASIZE PUSH1 0x4 PUSH2 0x42AB JUMP JUMPDEST PUSH2 0x9DC JUMP JUMPDEST PUSH1 0x40 MLOAD PUSH2 0x29E SWAP5 SWAP4 SWAP3 SWAP2 SWAP1 PUSH2 0x4C42 JUMP JUMPDEST PUSH2 0x3A9 PUSH2 0x3A4 CALLDATASIZE PUSH1 0x4 PUSH2 0x4481 JUMP JUMPDEST PUSH2 0xA6E JUMP JUMPDEST PUSH1 0x40 MLOAD PUSH2 0x29E SWAP2 SWAP1 PUSH2 0x4E05 JUMP JUMPDEST PUSH2 0x2DB PUSH2 0x3C4 CALLDATASIZE PUSH1 0x4 PUSH2 0x4589 JUMP JUMPDEST PUSH2 0xB20 JUMP JUMPDEST PUSH2 0x2DB PUSH2 0x3D7 CALLDATASIZE PUSH1 0x4 PUSH2 0x3D6F JUMP JUMPDEST PUSH2 0xBA1 JUMP JUMPDEST PUSH2 0x3EF PUSH2 0x3EA CALLDATASIZE PUSH1 0x4 PUSH2 0x42AB JUMP JUMPDEST PUSH2 0x1497 JUMP JUMPDEST PUSH1 0x40 MLOAD PUSH2 0x29E SWAP3 SWAP2 SWAP1 PUSH2 0x4C1F JUMP JUMPDEST PUSH2 0x405 PUSH2 0x152A JUMP JUMPDEST PUSH1 0x40 MLOAD PUSH2 0x29E SWAP2 SWAP1 PUSH2 0x4888 JUMP JUMPDEST PUSH2 0x405 PUSH2 0x1539 JUMP JUMPDEST PUSH2 0x42D PUSH2 0x428 CALLDATASIZE PUSH1 0x4 PUSH2 0x42AB JUMP JUMPDEST PUSH2 0x1548 JUMP JUMPDEST PUSH1 0x40 MLOAD PUSH2 0x29E SWAP6 SWAP5 SWAP4 SWAP3 SWAP2 SWAP1 PUSH2 0x4C7E JUMP JUMPDEST PUSH2 0x2DB PUSH2 0x44C CALLDATASIZE PUSH1 0x4 PUSH2 0x4530 JUMP JUMPDEST PUSH2 0x15ED JUMP JUMPDEST PUSH2 0x310 PUSH2 0x45F CALLDATASIZE PUSH1 0x4 PUSH2 0x3E35 JUMP JUMPDEST PUSH2 0x166E JUMP JUMPDEST PUSH2 0x477 PUSH2 0x472 CALLDATASIZE PUSH1 0x4 PUSH2 0x3F03 JUMP JUMPDEST PUSH2 0x16E7 JUMP JUMPDEST PUSH1 0x40 MLOAD PUSH2 0x29E SWAP2 SWAP1 PUSH2 0x4A71 JUMP JUMPDEST PUSH2 0x330 PUSH2 0x492 CALLDATASIZE PUSH1 0x4 PUSH2 0x3E0A JUMP JUMPDEST PUSH2 0x17A1 JUMP JUMPDEST PUSH2 0x405 PUSH2 0x1851 JUMP JUMPDEST PUSH2 0x330 PUSH2 0x4AD CALLDATASIZE PUSH1 0x4 PUSH2 0x3CD8 JUMP JUMPDEST PUSH2 0x1860 JUMP JUMPDEST PUSH2 0x4C5 PUSH2 0x4C0 CALLDATASIZE PUSH1 0x4 PUSH2 0x42AB JUMP JUMPDEST PUSH2 0x1916 JUMP JUMPDEST PUSH1 0x40 MLOAD PUSH2 0x29E SWAP4 SWAP3 SWAP2 SWAP1 PUSH2 0x4D4F JUMP JUMPDEST PUSH2 0x2DB PUSH2 0x19A6 JUMP JUMPDEST PUSH2 0x405 PUSH2 0x19AC JUMP JUMPDEST PUSH2 0x4F7 PUSH2 0x4F2 CALLDATASIZE PUSH1 0x4 PUSH2 0x42AB JUMP JUMPDEST PUSH2 0x19BB JUMP JUMPDEST PUSH1 0x40 MLOAD PUSH2 0x29E SWAP5 SWAP4 SWAP3 SWAP2 SWAP1 PUSH2 0x4CE1 JUMP JUMPDEST PUSH2 0x310 PUSH2 0x515 CALLDATASIZE PUSH1 0x4 PUSH2 0x3C8A JUMP JUMPDEST PUSH2 0x1A4D JUMP JUMPDEST PUSH2 0x2DB PUSH2 0x528 CALLDATASIZE PUSH1 0x4 PUSH2 0x3D6F JUMP JUMPDEST PUSH2 0x1ABB JUMP JUMPDEST PUSH2 0x3A9 PUSH2 0x53B CALLDATASIZE PUSH1 0x4 PUSH2 0x4481 JUMP JUMPDEST PUSH2 0x2446 JUMP JUMPDEST PUSH2 0x330 PUSH2 0x54E CALLDATASIZE PUSH1 0x4 PUSH2 0x3FDE JUMP JUMPDEST PUSH2 0x24A8 JUMP JUMPDEST PUSH2 0x566 PUSH2 0x561 CALLDATASIZE PUSH1 0x4 PUSH2 0x42AB JUMP JUMPDEST PUSH2 0x24FD JUMP JUMPDEST PUSH1 0x40 MLOAD PUSH2 0x29E SWAP2 SWAP1 PUSH2 0x4C0A JUMP JUMPDEST PUSH2 0x586 PUSH2 0x581 CALLDATASIZE PUSH1 0x4 PUSH2 0x3F87 JUMP JUMPDEST PUSH2 0x25A0 JUMP JUMPDEST PUSH1 0x40 MLOAD PUSH2 0x29E SWAP4 SWAP3 SWAP2 SWAP1 PUSH2 0x4ABE JUMP JUMPDEST PUSH2 0x5A8 PUSH2 0x5A3 CALLDATASIZE PUSH1 0x4 PUSH2 0x3C8A JUMP JUMPDEST PUSH2 0x26D8 JUMP JUMPDEST PUSH1 0x40 MLOAD PUSH2 0x29E SWAP3 SWAP2 SWAP1 PUSH2 0x4BDC JUMP JUMPDEST PUSH2 0x5C9 PUSH2 0x5C4 CALLDATASIZE PUSH1 0x4 PUSH2 0x44D9 JUMP JUMPDEST PUSH2 0x26F1 JUMP JUMPDEST PUSH1 0x40 MLOAD PUSH2 0x29E SWAP4 SWAP3 SWAP2 SWAP1 PUSH2 0x4EA6 JUMP JUMPDEST PUSH2 0x405 PUSH2 0x2960 JUMP JUMPDEST PUSH2 0x405 PUSH2 0x296F JUMP JUMPDEST PUSH2 0x405 PUSH2 0x297E JUMP JUMPDEST PUSH1 0x0 DUP1 PUSH1 0x0 PUSH20 0x0 PUSH4 0x4A5618A DUP6 PUSH1 0x40 MLOAD DUP3 PUSH4 0xFFFFFFFF AND PUSH1 0xE0 SHL DUP2 MSTORE PUSH1 0x4 ADD PUSH2 0x62C SWAP2 SWAP1 PUSH2 0x4D84 JUMP JUMPDEST PUSH1 0x60 PUSH1 0x40 MLOAD DUP1 DUP4 SUB DUP2 DUP7 DUP1 EXTCODESIZE ISZERO DUP1 ISZERO PUSH2 0x644 JUMPI PUSH1 0x0 DUP1 REVERT JUMPDEST POP GAS DELEGATECALL ISZERO DUP1 ISZERO PUSH2 0x658 JUMPI RETURNDATASIZE PUSH1 0x0 DUP1 RETURNDATACOPY RETURNDATASIZE PUSH1 0x0 REVERT JUMPDEST POP POP POP POP PUSH1 0x40 MLOAD RETURNDATASIZE PUSH1 0x1F NOT PUSH1 0x1F DUP3 ADD AND DUP3 ADD DUP1 PUSH1 0x40 MSTORE POP PUSH2 0x67C SWAP2 SWAP1 DUP2 ADD SWAP1 PUSH2 0x4201 JUMP JUMPDEST SWAP3 POP SWAP3 POP SWAP3 POP SWAP2 SWAP4 SWAP1 SWAP3 POP JUMP JUMPDEST PUSH1 0x0 DUP1 PUSH2 0x696 DUP5 DUP5 PUSH2 0xBA1 JUMP JUMPDEST SWAP2 POP PUSH2 0x6A2 DUP5 DUP5 PUSH2 0x1ABB JUMP JUMPDEST SWAP1 POP SWAP3 POP SWAP3 SWAP1 POP JUMP JUMPDEST PUSH1 0x0 DUP1 PUSH1 0x0 PUSH2 0x6BA DUP6 DUP6 PUSH2 0x689 JUMP JUMPDEST SWAP2 POP SWAP2 POP PUSH2 0x6C8 DUP3 DUP3 PUSH2 0x298D JUMP JUMPDEST SWAP3 POP POP POP JUMPDEST SWAP3 SWAP2 POP POP JUMP JUMPDEST PUSH1 0x40 MLOAD PUSH32 0x46EB65CB00000000000000000000000000000000000000000000000000000000 DUP2 MSTORE PUSH20 0x0 SWAP1 PUSH4 0x46EB65CB SWAP1 PUSH2 0x723 SWAP1 DUP5 SWAP1 PUSH1 0x4 ADD PUSH2 0x4D84 JUMP JUMPDEST PUSH1 0x0 PUSH1 0x40 MLOAD DUP1 DUP4 SUB DUP2 DUP7 DUP1 EXTCODESIZE ISZERO DUP1 ISZERO PUSH2 0x73B JUMPI PUSH1 0x0 DUP1 REVERT JUMPDEST POP GAS DELEGATECALL ISZERO DUP1 ISZERO PUSH2 0x74F JUMPI RETURNDATASIZE PUSH1 0x0 DUP1 RETURNDATACOPY RETURNDATASIZE PUSH1 0x0 REVERT JUMPDEST POP POP POP POP JUMPDEST POP JUMP JUMPDEST PUSH1 0x60 PUSH1 0x0 DUP3 MLOAD SWAP1 POP DUP1 PUSH1 0x40 MLOAD SWAP1 DUP1 DUP3 MSTORE DUP1 PUSH1 0x20 MUL PUSH1 0x20 ADD DUP3 ADD PUSH1 0x40 MSTORE DUP1 ISZERO PUSH2 0x789 JUMPI DUP2 PUSH1 0x20 ADD PUSH1 0x20 DUP3 MUL DUP1 CODESIZE DUP4 CODECOPY ADD SWAP1 POP JUMPDEST POP SWAP2 POP PUSH1 0x0 JUMPDEST DUP2 DUP2 EQ PUSH2 0x7D2 JUMPI PUSH2 0x7B3 DUP6 DUP6 DUP4 DUP2 MLOAD DUP2 LT PUSH2 0x7A6 JUMPI INVALID JUMPDEST PUSH1 0x20 MUL PUSH1 0x20 ADD ADD MLOAD PUSH2 0x1ABB JUMP JUMPDEST DUP4 DUP3 DUP2 MLOAD DUP2 LT PUSH2 0x7BF JUMPI INVALID JUMPDEST PUSH1 0x20 SWAP1 DUP2 MUL SWAP2 SWAP1 SWAP2 ADD ADD MSTORE PUSH1 0x1 ADD PUSH2 0x78F JUMP JUMPDEST POP POP SWAP3 SWAP2 POP POP JUMP JUMPDEST PUSH1 0x40 MLOAD PUSH32 0x590AA87500000000000000000000000000000000000000000000000000000000 DUP2 MSTORE PUSH1 0x60 SWAP1 PUSH20 0x0 SWAP1 PUSH4 0x590AA875 SWAP1 PUSH2 0x82D SWAP1 DUP6 SWAP1 PUSH1 0x4 ADD PUSH2 0x4888 JUMP JUMPDEST PUSH1 0x0 PUSH1 0x40 MLOAD DUP1 DUP4 SUB DUP2 DUP7 DUP1 EXTCODESIZE ISZERO DUP1 ISZERO PUSH2 0x845 JUMPI PUSH1 0x0 DUP1 REVERT JUMPDEST POP GAS DELEGATECALL ISZERO DUP1 ISZERO PUSH2 0x859 JUMPI RETURNDATASIZE PUSH1 0x0 DUP1 RETURNDATACOPY RETURNDATASIZE PUSH1 0x0 REVERT JUMPDEST POP POP POP POP PUSH1 0x40 MLOAD RETURNDATASIZE PUSH1 0x0 DUP3 RETURNDATACOPY PUSH1 0x1F RETURNDATASIZE SWAP1 DUP2 ADD PUSH1 0x1F NOT AND DUP3 ADD PUSH1 0x40 MSTORE PUSH2 0x881 SWAP2 SWAP1 DUP2 ADD SWAP1 PUSH2 0x42DE JUMP JUMPDEST SWAP1 POP JUMPDEST SWAP2 SWAP1 POP JUMP JUMPDEST PUSH1 0x40 MLOAD PUSH32 0x63EB399200000000000000000000000000000000000000000000000000000000 DUP2 MSTORE PUSH1 0x60 SWAP1 PUSH20 0x0 SWAP1 PUSH4 0x63EB3992 SWAP1 PUSH2 0x8E0 SWAP1 DUP8 SWAP1 DUP8 SWAP1 DUP8 SWAP1 PUSH1 0x4 ADD PUSH2 0x49F1 JUMP JUMPDEST PUSH1 0x0 PUSH1 0x40 MLOAD DUP1 DUP4 SUB DUP2 DUP7 DUP1 EXTCODESIZE ISZERO DUP1 ISZERO PUSH2 0x8F8 JUMPI PUSH1 0x0 DUP1 REVERT JUMPDEST POP GAS DELEGATECALL ISZERO DUP1 ISZERO PUSH2 0x90C JUMPI RETURNDATASIZE PUSH1 0x0 DUP1 RETURNDATACOPY RETURNDATASIZE PUSH1 0x0 REVERT JUMPDEST POP POP POP POP PUSH1 0x40 MLOAD RETURNDATASIZE PUSH1 0x0 DUP3 RETURNDATACOPY PUSH1 0x1F RETURNDATASIZE SWAP1 DUP2 ADD PUSH1 0x1F NOT AND DUP3 ADD PUSH1 0x40 MSTORE PUSH2 0x934 SWAP2 SWAP1 DUP2 ADD SWAP1 PUSH2 0x42DE JUMP JUMPDEST SWAP5 SWAP4 POP POP POP POP JUMP JUMPDEST PUSH1 0x60 DUP1 PUSH1 0x60 DUP1 PUSH20 0x0 PUSH4 0x6F83188E DUP7 PUSH1 0x40 MLOAD DUP3 PUSH4 0xFFFFFFFF AND PUSH1 0xE0 SHL DUP2 MSTORE PUSH1 0x4 ADD PUSH2 0x979 SWAP2 SWAP1 PUSH2 0x4D84 JUMP JUMPDEST PUSH1 0x0 PUSH1 0x40 MLOAD DUP1 DUP4 SUB DUP2 DUP7 DUP1 EXTCODESIZE ISZERO DUP1 ISZERO PUSH2 0x991 JUMPI PUSH1 0x0 DUP1 REVERT JUMPDEST POP GAS DELEGATECALL ISZERO DUP1 ISZERO PUSH2 0x9A5 JUMPI RETURNDATASIZE PUSH1 0x0 DUP1 RETURNDATACOPY RETURNDATASIZE PUSH1 0x0 REVERT JUMPDEST POP POP POP POP PUSH1 0x40 MLOAD RETURNDATASIZE PUSH1 0x0 DUP3 RETURNDATACOPY PUSH1 0x1F RETURNDATASIZE SWAP1 DUP2 ADD PUSH1 0x1F NOT AND DUP3 ADD PUSH1 0x40 MSTORE PUSH2 0x9CD SWAP2 SWAP1 DUP2 ADD SWAP1 PUSH2 0x434C JUMP JUMPDEST SWAP4 POP SWAP4 POP SWAP4 POP SWAP4 POP SWAP2 SWAP4 POP SWAP2 SWAP4 JUMP JUMPDEST PUSH1 0x0 DUP1 PUSH1 0x0 PUSH1 0x60 PUSH20 0x0 PUSH4 0x750BDB30 DUP7 PUSH1 0x40 MLOAD DUP3 PUSH4 0xFFFFFFFF AND PUSH1 0xE0 SHL DUP2 MSTORE PUSH1 0x4 ADD PUSH2 0xA1A SWAP2 SWAP1 PUSH2 0x4D84 JUMP JUMPDEST PUSH1 0x0 PUSH1 0x40 MLOAD DUP1 DUP4 SUB DUP2 DUP7 DUP1 EXTCODESIZE ISZERO DUP1 ISZERO PUSH2 0xA32 JUMPI PUSH1 0x0 DUP1 REVERT JUMPDEST POP GAS DELEGATECALL ISZERO DUP1 ISZERO PUSH2 0xA46 JUMPI RETURNDATASIZE PUSH1 0x0 DUP1 RETURNDATACOPY RETURNDATASIZE PUSH1 0x0 REVERT JUMPDEST POP POP POP POP PUSH1 0x40 MLOAD RETURNDATASIZE PUSH1 0x0 DUP3 RETURNDATACOPY PUSH1 0x1F RETURNDATASIZE SWAP1 DUP2 ADD PUSH1 0x1F NOT AND DUP3 ADD PUSH1 0x40 MSTORE PUSH2 0x9CD SWAP2 SWAP1 DUP2 ADD SWAP1 PUSH2 0x4085 JUMP JUMPDEST PUSH1 0x0 DUP1 SLOAD PUSH1 0x40 MLOAD PUSH32 0x9CAA023B00000000000000000000000000000000000000000000000000000000 DUP2 MSTORE PUSH20 0x0 SWAP2 PUSH4 0x9CAA023B SWAP2 PUSH2 0xAD0 SWAP2 PUSH1 0x1 PUSH1 0x1 PUSH1 0xA0 SHL SUB AND SWAP1 DUP9 SWAP1 DUP9 SWAP1 DUP9 SWAP1 PUSH1 0x4 ADD PUSH2 0x4A23 JUMP JUMPDEST PUSH1 0x20 PUSH1 0x40 MLOAD DUP1 DUP4 SUB DUP2 DUP7 DUP1 EXTCODESIZE ISZERO DUP1 ISZERO PUSH2 0xAE8 JUMPI PUSH1 0x0 DUP1 REVERT JUMPDEST POP GAS DELEGATECALL ISZERO DUP1 ISZERO PUSH2 0xAFC JUMPI RETURNDATASIZE PUSH1 0x0 DUP1 RETURNDATACOPY RETURNDATASIZE PUSH1 0x0 REVERT JUMPDEST POP POP POP POP PUSH1 0x40 MLOAD RETURNDATASIZE PUSH1 0x1F NOT PUSH1 0x1F DUP3 ADD AND DUP3 ADD DUP1 PUSH1 0x40 MSTORE POP PUSH2 0x934 SWAP2 SWAP1 DUP2 ADD SWAP1 PUSH2 0x432D JUMP JUMPDEST PUSH1 0x0 PUSH2 0x934 DUP5 PUSH2 0xB9C PUSH1 0x40 MLOAD DUP1 PUSH1 0x40 ADD PUSH1 0x40 MSTORE DUP1 PUSH1 0xB DUP2 MSTORE PUSH1 0x20 ADD PUSH32 0x30782050726F746F636F6C000000000000000000000000000000000000000000 DUP2 MSTORE POP PUSH1 0x40 MLOAD DUP1 PUSH1 0x40 ADD PUSH1 0x40 MSTORE DUP1 PUSH1 0x5 DUP2 MSTORE PUSH1 0x20 ADD PUSH32 0x332E302E30000000000000000000000000000000000000000000000000000000 DUP2 MSTORE POP DUP8 DUP8 PUSH2 0x29A3 JUMP JUMPDEST PUSH2 0x29FA JUMP JUMPDEST PUSH1 0x0 DUP1 PUSH2 0xBB4 DUP4 DUP3 PUSH4 0xFFFFFFFF PUSH2 0x2A0E AND JUMP JUMPDEST SWAP1 POP PUSH1 0x1 PUSH1 0x1 PUSH1 0xE0 SHL SUB NOT DUP2 AND PUSH32 0xF47261B000000000000000000000000000000000000000000000000000000000 EQ ISZERO PUSH2 0xC0F JUMPI PUSH1 0x0 PUSH2 0xBFB DUP5 PUSH1 0x10 PUSH4 0xFFFFFFFF PUSH2 0x2A47 AND JUMP JUMPDEST SWAP1 POP PUSH2 0xC07 DUP2 DUP7 PUSH2 0x2A7A JUMP JUMPDEST SWAP3 POP POP PUSH2 0x1490 JUMP JUMPDEST PUSH1 0x1 PUSH1 0x1 PUSH1 0xE0 SHL SUB NOT DUP2 AND PUSH32 0x257179200000000000000000000000000000000000000000000000000000000 EQ ISZERO PUSH2 0xE28 JUMPI PUSH1 0x0 DUP1 PUSH20 0x0 PUSH4 0x4A5618A DUP7 PUSH1 0x40 MLOAD DUP3 PUSH4 0xFFFFFFFF AND PUSH1 0xE0 SHL DUP2 MSTORE PUSH1 0x4 ADD PUSH2 0xC7B SWAP2 SWAP1 PUSH2 0x4D84 JUMP JUMPDEST PUSH1 0x60 PUSH1 0x40 MLOAD DUP1 DUP4 SUB DUP2 DUP7 DUP1 EXTCODESIZE ISZERO DUP1 ISZERO PUSH2 0xC93 JUMPI PUSH1 0x0 DUP1 REVERT JUMPDEST POP GAS DELEGATECALL ISZERO DUP1 ISZERO PUSH2 0xCA7 JUMPI RETURNDATASIZE PUSH1 0x0 DUP1 RETURNDATACOPY RETURNDATASIZE PUSH1 0x0 REVERT JUMPDEST POP POP POP POP PUSH1 0x40 MLOAD RETURNDATASIZE PUSH1 0x1F NOT PUSH1 0x1F DUP3 ADD AND DUP3 ADD DUP1 PUSH1 0x40 MSTORE POP PUSH2 0xCCB SWAP2 SWAP1 DUP2 ADD SWAP1 PUSH2 0x4201 JUMP JUMPDEST PUSH1 0x40 MLOAD SWAP2 SWAP5 POP SWAP3 POP PUSH1 0x60 SWAP2 POP PUSH32 0x6352211E00000000000000000000000000000000000000000000000000000000 SWAP1 PUSH2 0xD07 SWAP1 DUP5 SWAP1 PUSH1 0x24 ADD PUSH2 0x4C01 JUMP JUMPDEST PUSH1 0x40 MLOAD PUSH1 0x20 DUP2 DUP4 SUB SUB DUP2 MSTORE SWAP1 PUSH1 0x40 MSTORE SWAP1 PUSH28 0xFFFFFFFFFFFFFFFFFFFFFFFFFFFFFFFFFFFFFFFFFFFFFFFFFFFFFFFF NOT AND PUSH1 0x20 DUP3 ADD DUP1 MLOAD PUSH28 0xFFFFFFFFFFFFFFFFFFFFFFFFFFFFFFFFFFFFFFFFFFFFFFFFFFFFFFFF DUP4 DUP2 DUP4 AND OR DUP4 MSTORE POP POP POP POP SWAP1 POP PUSH1 0x0 PUSH1 0x60 DUP5 PUSH1 0x1 PUSH1 0x1 PUSH1 0xA0 SHL SUB AND DUP4 PUSH1 0x40 MLOAD PUSH2 0xD82 SWAP2 SWAP1 PUSH2 0x486C JUMP JUMPDEST PUSH1 0x0 PUSH1 0x40 MLOAD DUP1 DUP4 SUB DUP2 DUP6 GAS STATICCALL SWAP2 POP POP RETURNDATASIZE DUP1 PUSH1 0x0 DUP2 EQ PUSH2 0xDBD JUMPI PUSH1 0x40 MLOAD SWAP2 POP PUSH1 0x1F NOT PUSH1 0x3F RETURNDATASIZE ADD AND DUP3 ADD PUSH1 0x40 MSTORE RETURNDATASIZE DUP3 MSTORE RETURNDATASIZE PUSH1 0x0 PUSH1 0x20 DUP5 ADD RETURNDATACOPY PUSH2 0xDC2 JUMP JUMPDEST PUSH1 0x60 SWAP2 POP JUMPDEST POP SWAP2 POP SWAP2 POP PUSH1 0x0 DUP3 DUP1 ISZERO PUSH2 0xDD7 JUMPI POP DUP2 MLOAD PUSH1 0x20 EQ JUMPDEST PUSH2 0xDE2 JUMPI PUSH1 0x0 PUSH2 0xDF3 JUMP JUMPDEST PUSH2 0xDF3 DUP3 PUSH1 0xC PUSH4 0xFFFFFFFF PUSH2 0x2A47 AND JUMP JUMPDEST SWAP1 POP DUP10 PUSH1 0x1 PUSH1 0x1 PUSH1 0xA0 SHL SUB AND DUP2 PUSH1 0x1 PUSH1 0x1 PUSH1 0xA0 SHL SUB AND EQ PUSH2 0xE15 JUMPI PUSH1 0x0 PUSH2 0xE18 JUMP JUMPDEST PUSH1 0x1 JUMPDEST PUSH1 0xFF AND SWAP8 POP POP POP POP POP POP POP PUSH2 0x1490 JUMP JUMPDEST PUSH1 0x1 PUSH1 0x1 PUSH1 0xE0 SHL SUB NOT DUP2 AND PUSH32 0xA7CB5FB700000000000000000000000000000000000000000000000000000000 EQ ISZERO PUSH2 0x10C4 JUMPI PUSH1 0x0 PUSH1 0x60 DUP1 PUSH20 0x0 PUSH4 0x9EADC835 DUP8 PUSH1 0x40 MLOAD DUP3 PUSH4 0xFFFFFFFF AND PUSH1 0xE0 SHL DUP2 MSTORE PUSH1 0x4 ADD PUSH2 0xE96 SWAP2 SWAP1 PUSH2 0x4D84 JUMP JUMPDEST PUSH1 0x0 PUSH1 0x40 MLOAD DUP1 DUP4 SUB DUP2 DUP7 DUP1 EXTCODESIZE ISZERO DUP1 ISZERO PUSH2 0xEAE JUMPI PUSH1 0x0 DUP1 REVERT JUMPDEST POP GAS DELEGATECALL ISZERO DUP1 ISZERO PUSH2 0xEC2 JUMPI RETURNDATASIZE PUSH1 0x0 DUP1 RETURNDATACOPY RETURNDATASIZE PUSH1 0x0 REVERT JUMPDEST POP POP POP POP PUSH1 0x40 MLOAD RETURNDATASIZE PUSH1 0x0 DUP3 RETURNDATACOPY PUSH1 0x1F RETURNDATASIZE SWAP1 DUP2 ADD PUSH1 0x1F NOT AND DUP3 ADD PUSH1 0x40 MSTORE PUSH2 0xEEA SWAP2 SWAP1 DUP2 ADD SWAP1 PUSH2 0x40EF JUMP JUMPDEST POP DUP2 MLOAD SWAP3 SWAP7 POP SWAP1 SWAP5 POP SWAP3 POP SWAP1 POP PUSH1 0x0 JUMPDEST DUP2 DUP2 EQ PUSH2 0x10BA JUMPI DUP3 DUP2 DUP2 MLOAD DUP2 LT PUSH2 0xF0D JUMPI INVALID JUMPDEST PUSH1 0x20 MUL PUSH1 0x20 ADD ADD MLOAD PUSH1 0x0 EQ ISZERO PUSH2 0xF22 JUMPI PUSH2 0x10B2 JUMP JUMPDEST DUP4 MLOAD PUSH1 0x60 SWAP1 PUSH31 0xFDD58E00000000000000000000000000000000000000000000000000000000 SWAP1 DUP12 SWAP1 DUP8 SWAP1 DUP6 SWAP1 DUP2 LT PUSH2 0xF56 JUMPI INVALID JUMPDEST PUSH1 0x20 MUL PUSH1 0x20 ADD ADD MLOAD PUSH1 0x40 MLOAD PUSH1 0x24 ADD PUSH2 0xF6F SWAP3 SWAP2 SWAP1 PUSH2 0x4A58 JUMP JUMPDEST PUSH1 0x40 MLOAD PUSH1 0x20 DUP2 DUP4 SUB SUB DUP2 MSTORE SWAP1 PUSH1 0x40 MSTORE SWAP1 PUSH28 0xFFFFFFFFFFFFFFFFFFFFFFFFFFFFFFFFFFFFFFFFFFFFFFFFFFFFFFFF NOT AND PUSH1 0x20 DUP3 ADD DUP1 MLOAD PUSH28 0xFFFFFFFFFFFFFFFFFFFFFFFFFFFFFFFFFFFFFFFFFFFFFFFFFFFFFFFF DUP4 DUP2 DUP4 AND OR DUP4 MSTORE POP POP POP POP SWAP1 POP PUSH1 0x0 PUSH1 0x60 DUP8 PUSH1 0x1 PUSH1 0x1 PUSH1 0xA0 SHL SUB AND DUP4 PUSH1 0x40 MLOAD PUSH2 0xFEA SWAP2 SWAP1 PUSH2 0x486C JUMP JUMPDEST PUSH1 0x0 PUSH1 0x40 MLOAD DUP1 DUP4 SUB DUP2 DUP6 GAS STATICCALL SWAP2 POP POP RETURNDATASIZE DUP1 PUSH1 0x0 DUP2 EQ PUSH2 0x1025 JUMPI PUSH1 0x40 MLOAD SWAP2 POP PUSH1 0x1F NOT PUSH1 0x3F RETURNDATASIZE ADD AND DUP3 ADD PUSH1 0x40 MSTORE RETURNDATASIZE DUP3 MSTORE RETURNDATASIZE PUSH1 0x0 PUSH1 0x20 DUP5 ADD RETURNDATACOPY PUSH2 0x102A JUMP JUMPDEST PUSH1 0x60 SWAP2 POP JUMPDEST POP SWAP2 POP SWAP2 POP PUSH1 0x0 DUP3 DUP1 ISZERO PUSH2 0x103F JUMPI POP DUP2 MLOAD PUSH1 0x20 EQ JUMPDEST PUSH2 0x104A JUMPI PUSH1 0x0 PUSH2 0x105B JUMP JUMPDEST PUSH2 0x105B DUP3 PUSH1 0x0 PUSH4 0xFFFFFFFF PUSH2 0x2B72 AND JUMP JUMPDEST SWAP1 POP PUSH1 0x0 DUP8 DUP7 DUP2 MLOAD DUP2 LT PUSH2 0x106B JUMPI INVALID JUMPDEST PUSH1 0x20 MUL PUSH1 0x20 ADD ADD MLOAD DUP3 DUP2 PUSH2 0x107B JUMPI INVALID JUMPDEST DIV SWAP1 POP DUP1 PUSH2 0x1097 JUMPI PUSH1 0x0 SWAP12 POP POP POP POP POP POP POP POP POP POP POP POP PUSH2 0x6CD JUMP JUMPDEST DUP12 DUP2 LT DUP1 PUSH2 0x10A3 JUMPI POP DUP12 ISZERO JUMPDEST ISZERO PUSH2 0x10AC JUMPI DUP1 SWAP12 POP JUMPDEST POP POP POP POP POP JUMPDEST PUSH1 0x1 ADD PUSH2 0xEFA JUMP JUMPDEST POP POP POP POP POP PUSH2 0x1490 JUMP JUMPDEST PUSH1 0x1 PUSH1 0x1 PUSH1 0xE0 SHL SUB NOT DUP2 AND PUSH32 0xC339D10A00000000000000000000000000000000000000000000000000000000 EQ ISZERO PUSH2 0x11F7 JUMPI PUSH1 0x40 MLOAD PUSH1 0x60 SWAP1 PUSH32 0xA85E59E400000000000000000000000000000000000000000000000000000000 SWAP1 PUSH2 0x1133 SWAP1 DUP7 SWAP1 PUSH1 0x0 SWAP1 DUP2 SWAP1 DUP2 SWAP1 PUSH1 0x24 ADD PUSH2 0x4D97 JUMP JUMPDEST PUSH1 0x40 DUP1 MLOAD PUSH1 0x1F NOT DUP2 DUP5 SUB ADD DUP2 MSTORE SWAP2 DUP2 MSTORE PUSH1 0x20 DUP3 ADD DUP1 MLOAD PUSH28 0xFFFFFFFFFFFFFFFFFFFFFFFFFFFFFFFFFFFFFFFFFFFFFFFFFFFFFFFF AND PUSH1 0x1 PUSH1 0x1 PUSH1 0xE0 SHL SUB NOT SWAP1 SWAP5 AND SWAP4 SWAP1 SWAP4 OR SWAP1 SWAP3 MSTORE PUSH1 0x4 SLOAD SWAP2 MLOAD SWAP1 SWAP3 POP PUSH1 0x0 SWAP2 PUSH1 0x1 PUSH1 0x1 PUSH1 0xA0 SHL SUB AND SWAP1 PUSH2 0x119A SWAP1 DUP5 SWAP1 PUSH2 0x486C JUMP JUMPDEST PUSH1 0x0 PUSH1 0x40 MLOAD DUP1 DUP4 SUB DUP2 DUP6 GAS STATICCALL SWAP2 POP POP RETURNDATASIZE DUP1 PUSH1 0x0 DUP2 EQ PUSH2 0x11D5 JUMPI PUSH1 0x40 MLOAD SWAP2 POP PUSH1 0x1F NOT PUSH1 0x3F RETURNDATASIZE ADD AND DUP3 ADD PUSH1 0x40 MSTORE RETURNDATASIZE DUP3 MSTORE RETURNDATASIZE PUSH1 0x0 PUSH1 0x20 DUP5 ADD RETURNDATACOPY PUSH2 0x11DA JUMP JUMPDEST PUSH1 0x60 SWAP2 POP JUMPDEST POP POP SWAP1 POP DUP1 PUSH2 0x11EA JUMPI PUSH1 0x0 PUSH2 0x11EE JUMP JUMPDEST PUSH1 0x0 NOT JUMPDEST SWAP4 POP POP POP PUSH2 0x1490 JUMP JUMPDEST PUSH1 0x1 PUSH1 0x1 PUSH1 0xE0 SHL SUB NOT DUP2 AND PUSH32 0xDC1600F300000000000000000000000000000000000000000000000000000000 EQ ISZERO PUSH2 0x1320 JUMPI PUSH1 0x0 DUP1 PUSH20 0x0 PUSH4 0x750BDB30 DUP7 PUSH1 0x40 MLOAD DUP3 PUSH4 0xFFFFFFFF AND PUSH1 0xE0 SHL DUP2 MSTORE PUSH1 0x4 ADD PUSH2 0x1263 SWAP2 SWAP1 PUSH2 0x4D84 JUMP JUMPDEST PUSH1 0x0 PUSH1 0x40 MLOAD DUP1 DUP4 SUB DUP2 DUP7 DUP1 EXTCODESIZE ISZERO DUP1 ISZERO PUSH2 0x127B JUMPI PUSH1 0x0 DUP1 REVERT JUMPDEST POP GAS DELEGATECALL ISZERO DUP1 ISZERO PUSH2 0x128F JUMPI RETURNDATASIZE PUSH1 0x0 DUP1 RETURNDATACOPY RETURNDATASIZE PUSH1 0x0 REVERT JUMPDEST POP POP POP POP PUSH1 0x40 MLOAD RETURNDATASIZE PUSH1 0x0 DUP3 RETURNDATACOPY PUSH1 0x1F RETURNDATASIZE SWAP1 DUP2 ADD PUSH1 0x1F NOT AND DUP3 ADD PUSH1 0x40 MSTORE PUSH2 0x12B7 SWAP2 SWAP1 DUP2 ADD SWAP1 PUSH2 0x4085 JUMP JUMPDEST POP SWAP3 POP SWAP3 POP POP PUSH2 0x12C5 PUSH2 0x2B7E JUMP JUMPDEST PUSH1 0x1 PUSH1 0x1 PUSH1 0xA0 SHL SUB AND DUP3 PUSH1 0x1 PUSH1 0x1 PUSH1 0xA0 SHL SUB AND EQ DUP1 ISZERO PUSH2 0x12F2 JUMPI POP PUSH1 0x5 SLOAD PUSH1 0x1 PUSH1 0x1 PUSH1 0xA0 SHL SUB DUP3 DUP2 AND SWAP2 AND EQ JUMPDEST ISZERO PUSH2 0x1319 JUMPI PUSH1 0x0 PUSH2 0x130A PUSH2 0x1304 PUSH2 0x2B96 JUMP JUMPDEST DUP9 PUSH2 0x2A7A JUMP JUMPDEST SWAP1 POP PUSH2 0x1315 DUP2 PUSH2 0x2BAE JUMP JUMPDEST SWAP5 POP POP JUMPDEST POP POP PUSH2 0x1490 JUMP JUMPDEST PUSH1 0x1 PUSH1 0x1 PUSH1 0xE0 SHL SUB NOT DUP2 AND PUSH32 0x94CFCDD700000000000000000000000000000000000000000000000000000000 EQ ISZERO PUSH2 0x1490 JUMPI PUSH1 0x60 DUP1 PUSH20 0x0 PUSH4 0xBBB2DCF6 DUP7 PUSH1 0x40 MLOAD DUP3 PUSH4 0xFFFFFFFF AND PUSH1 0xE0 SHL DUP2 MSTORE PUSH1 0x4 ADD PUSH2 0x138C SWAP2 SWAP1 PUSH2 0x4D84 JUMP JUMPDEST PUSH1 0x0 PUSH1 0x40 MLOAD DUP1 DUP4 SUB DUP2 DUP7 DUP1 EXTCODESIZE ISZERO DUP1 ISZERO PUSH2 0x13A4 JUMPI PUSH1 0x0 DUP1 REVERT JUMPDEST POP GAS DELEGATECALL ISZERO DUP1 ISZERO PUSH2 0x13B8 JUMPI RETURNDATASIZE PUSH1 0x0 DUP1 RETURNDATACOPY RETURNDATASIZE PUSH1 0x0 REVERT JUMPDEST POP POP POP POP PUSH1 0x40 MLOAD RETURNDATASIZE PUSH1 0x0 DUP3 RETURNDATACOPY PUSH1 0x1F RETURNDATASIZE SWAP1 DUP2 ADD PUSH1 0x1F NOT AND DUP3 ADD PUSH1 0x40 MSTORE PUSH2 0x13E0 SWAP2 SWAP1 DUP2 ADD SWAP1 PUSH2 0x4241 JUMP JUMPDEST DUP1 MLOAD SWAP2 SWAP5 POP SWAP3 POP SWAP1 POP PUSH1 0x0 JUMPDEST DUP2 DUP2 EQ PUSH2 0x148B JUMPI DUP4 DUP2 DUP2 MLOAD DUP2 LT PUSH2 0x13FF JUMPI INVALID JUMPDEST PUSH1 0x20 MUL PUSH1 0x20 ADD ADD MLOAD PUSH1 0x0 EQ ISZERO PUSH2 0x1414 JUMPI PUSH2 0x1483 JUMP JUMPDEST PUSH1 0x0 PUSH2 0x1433 DUP10 DUP6 DUP5 DUP2 MLOAD DUP2 LT PUSH2 0x1426 JUMPI INVALID JUMPDEST PUSH1 0x20 MUL PUSH1 0x20 ADD ADD MLOAD PUSH2 0xBA1 JUMP JUMPDEST SWAP1 POP PUSH1 0x0 DUP6 DUP4 DUP2 MLOAD DUP2 LT PUSH2 0x1443 JUMPI INVALID JUMPDEST PUSH1 0x20 MUL PUSH1 0x20 ADD ADD MLOAD DUP3 DUP2 PUSH2 0x1453 JUMPI INVALID JUMPDEST DIV SWAP1 POP DUP1 PUSH2 0x146B JUMPI PUSH1 0x0 SWAP8 POP POP POP POP POP POP POP POP PUSH2 0x6CD JUMP JUMPDEST DUP8 DUP2 LT DUP1 PUSH2 0x1477 JUMPI POP DUP8 ISZERO JUMPDEST ISZERO PUSH2 0x1480 JUMPI DUP1 SWAP8 POP JUMPDEST POP POP JUMPDEST PUSH1 0x1 ADD PUSH2 0x13EC JUMP JUMPDEST POP POP POP POP JUMPDEST POP SWAP3 SWAP2 POP POP JUMP JUMPDEST PUSH1 0x0 DUP1 PUSH20 0x0 PUSH4 0x8F4CE479 DUP5 PUSH1 0x40 MLOAD DUP3 PUSH4 0xFFFFFFFF AND PUSH1 0xE0 SHL DUP2 MSTORE PUSH1 0x4 ADD PUSH2 0x14D1 SWAP2 SWAP1 PUSH2 0x4D84 JUMP JUMPDEST PUSH1 0x40 DUP1 MLOAD DUP1 DUP4 SUB DUP2 DUP7 DUP1 EXTCODESIZE ISZERO DUP1 ISZERO PUSH2 0x14E8 JUMPI PUSH1 0x0 DUP1 REVERT JUMPDEST POP GAS DELEGATECALL ISZERO DUP1 ISZERO PUSH2 0x14FC JUMPI RETURNDATASIZE PUSH1 0x0 DUP1 RETURNDATACOPY RETURNDATASIZE PUSH1 0x0 REVERT JUMPDEST POP POP POP POP PUSH1 0x40 MLOAD RETURNDATASIZE PUSH1 0x1F NOT PUSH1 0x1F DUP3 ADD AND DUP3 ADD DUP1 PUSH1 0x40 MSTORE POP PUSH2 0x1520 SWAP2 SWAP1 DUP2 ADD SWAP1 PUSH2 0x404E JUMP JUMPDEST SWAP2 POP SWAP2 POP JUMPDEST SWAP2 POP SWAP2 JUMP JUMPDEST PUSH1 0x4 SLOAD PUSH1 0x1 PUSH1 0x1 PUSH1 0xA0 SHL SUB AND DUP2 JUMP JUMPDEST PUSH1 0x0 SLOAD PUSH1 0x1 PUSH1 0x1 PUSH1 0xA0 SHL SUB AND DUP2 JUMP JUMPDEST PUSH1 0x0 DUP1 PUSH1 0x60 DUP1 PUSH1 0x60 PUSH20 0x0 PUSH4 0x9EADC835 DUP8 PUSH1 0x40 MLOAD DUP3 PUSH4 0xFFFFFFFF AND PUSH1 0xE0 SHL DUP2 MSTORE PUSH1 0x4 ADD PUSH2 0x1587 SWAP2 SWAP1 PUSH2 0x4D84 JUMP JUMPDEST PUSH1 0x0 PUSH1 0x40 MLOAD DUP1 DUP4 SUB DUP2 DUP7 DUP1 EXTCODESIZE ISZERO DUP1 ISZERO PUSH2 0x159F JUMPI PUSH1 0x0 DUP1 REVERT JUMPDEST POP GAS DELEGATECALL ISZERO DUP1 ISZERO PUSH2 0x15B3 JUMPI RETURNDATASIZE PUSH1 0x0 DUP1 RETURNDATACOPY RETURNDATASIZE PUSH1 0x0 REVERT JUMPDEST POP POP POP POP PUSH1 0x40 MLOAD RETURNDATASIZE PUSH1 0x0 DUP3 RETURNDATACOPY PUSH1 0x1F RETURNDATASIZE SWAP1 DUP2 ADD PUSH1 0x1F NOT AND DUP3 ADD PUSH1 0x40 MSTORE PUSH2 0x15DB SWAP2 SWAP1 DUP2 ADD SWAP1 PUSH2 0x40EF JUMP JUMPDEST SWAP4 SWAP11 SWAP3 SWAP10 POP SWAP1 SWAP8 POP SWAP6 POP SWAP1 SWAP4 POP SWAP2 POP POP JUMP JUMPDEST PUSH1 0x0 PUSH2 0x934 DUP5 PUSH2 0x1669 PUSH1 0x40 MLOAD DUP1 PUSH1 0x40 ADD PUSH1 0x40 MSTORE DUP1 PUSH1 0xB DUP2 MSTORE PUSH1 0x20 ADD PUSH32 0x30782050726F746F636F6C000000000000000000000000000000000000000000 DUP2 MSTORE POP PUSH1 0x40 MLOAD DUP1 PUSH1 0x40 ADD PUSH1 0x40 MSTORE DUP1 PUSH1 0x5 DUP2 MSTORE PUSH1 0x20 ADD PUSH32 0x332E302E30000000000000000000000000000000000000000000000000000000 DUP2 MSTORE POP DUP8 DUP8 PUSH2 0x29A3 JUMP JUMPDEST PUSH2 0x2DAC JUMP JUMPDEST PUSH1 0x60 DUP1 DUP3 MLOAD PUSH1 0x40 MLOAD SWAP1 DUP1 DUP3 MSTORE DUP1 PUSH1 0x20 MUL PUSH1 0x20 ADD DUP3 ADD PUSH1 0x40 MSTORE DUP1 ISZERO PUSH2 0x169C JUMPI DUP2 PUSH1 0x20 ADD PUSH1 0x20 DUP3 MUL DUP1 CODESIZE DUP4 CODECOPY ADD SWAP1 POP JUMPDEST POP SWAP1 POP PUSH1 0x0 JUMPDEST DUP4 MLOAD DUP2 EQ PUSH2 0x1490 JUMPI DUP4 DUP2 DUP2 MLOAD DUP2 LT PUSH2 0x16B6 JUMPI INVALID JUMPDEST PUSH1 0x20 MUL PUSH1 0x20 ADD ADD MLOAD PUSH1 0x1 PUSH1 0x1 PUSH1 0xA0 SHL SUB AND BALANCE DUP3 DUP3 DUP2 MLOAD DUP2 LT PUSH2 0x16D4 JUMPI INVALID JUMPDEST PUSH1 0x20 SWAP1 DUP2 MUL SWAP2 SWAP1 SWAP2 ADD ADD MSTORE PUSH1 0x1 ADD PUSH2 0x16A2 JUMP JUMPDEST PUSH1 0x0 SLOAD PUSH1 0x40 MLOAD PUSH32 0x2CFFC4500000000000000000000000000000000000000000000000000000000 DUP2 MSTORE PUSH1 0x60 SWAP2 PUSH20 0x0 SWAP2 PUSH4 0x2CFFC45 SWAP2 PUSH2 0x174D SWAP2 PUSH1 0x1 PUSH1 0x1 PUSH1 0xA0 SHL SUB SWAP1 SWAP2 AND SWAP1 DUP9 SWAP1 DUP9 SWAP1 DUP9 SWAP1 PUSH1 0x4 ADD PUSH2 0x48D9 JUMP JUMPDEST PUSH1 0x0 PUSH1 0x40 MLOAD DUP1 DUP4 SUB DUP2 DUP7 DUP1 EXTCODESIZE ISZERO DUP1 ISZERO PUSH2 0x1765 JUMPI PUSH1 0x0 DUP1 REVERT JUMPDEST POP GAS DELEGATECALL ISZERO DUP1 ISZERO PUSH2 0x1779 JUMPI RETURNDATASIZE PUSH1 0x0 DUP1 RETURNDATACOPY RETURNDATASIZE PUSH1 0x0 REVERT JUMPDEST POP POP POP POP PUSH1 0x40 MLOAD RETURNDATASIZE PUSH1 0x0 DUP3 RETURNDATACOPY PUSH1 0x1F RETURNDATASIZE SWAP1 DUP2 ADD PUSH1 0x1F NOT AND DUP3 ADD PUSH1 0x40 MSTORE PUSH2 0x934 SWAP2 SWAP1 DUP2 ADD SWAP1 PUSH2 0x3E68 JUMP JUMPDEST PUSH1 0x40 MLOAD PUSH32 0xA6627E9F00000000000000000000000000000000000000000000000000000000 DUP2 MSTORE PUSH1 0x60 SWAP1 PUSH20 0x0 SWAP1 PUSH4 0xA6627E9F SWAP1 PUSH2 0x17F6 SWAP1 DUP7 SWAP1 DUP7 SWAP1 PUSH1 0x4 ADD PUSH2 0x4A58 JUMP JUMPDEST PUSH1 0x0 PUSH1 0x40 MLOAD DUP1 DUP4 SUB DUP2 DUP7 DUP1 EXTCODESIZE ISZERO DUP1 ISZERO PUSH2 0x180E JUMPI PUSH1 0x0 DUP1 REVERT JUMPDEST POP GAS DELEGATECALL ISZERO DUP1 ISZERO PUSH2 0x1822 JUMPI RETURNDATASIZE PUSH1 0x0 DUP1 RETURNDATACOPY RETURNDATASIZE PUSH1 0x0 REVERT JUMPDEST POP POP POP POP PUSH1 0x40 MLOAD RETURNDATASIZE PUSH1 0x0 DUP3 RETURNDATACOPY PUSH1 0x1F RETURNDATASIZE SWAP1 DUP2 ADD PUSH1 0x1F NOT AND DUP3 ADD PUSH1 0x40 MSTORE PUSH2 0x184A SWAP2 SWAP1 DUP2 ADD SWAP1 PUSH2 0x42DE JUMP JUMPDEST SWAP4 SWAP3 POP POP POP JUMP JUMPDEST PUSH1 0x6 SLOAD PUSH1 0x1 PUSH1 0x1 PUSH1 0xA0 SHL SUB AND DUP2 JUMP JUMPDEST PUSH1 0x40 MLOAD PUSH32 0xB43CFFE100000000000000000000000000000000000000000000000000000000 DUP2 MSTORE PUSH1 0x60 SWAP1 PUSH20 0x0 SWAP1 PUSH4 0xB43CFFE1 SWAP1 PUSH2 0x18B9 SWAP1 DUP9 SWAP1 DUP9 SWAP1 DUP9 SWAP1 DUP9 SWAP1 PUSH1 0x4 ADD PUSH2 0x499F JUMP JUMPDEST PUSH1 0x0 PUSH1 0x40 MLOAD DUP1 DUP4 SUB DUP2 DUP7 DUP1 EXTCODESIZE ISZERO DUP1 ISZERO PUSH2 0x18D1 JUMPI PUSH1 0x0 DUP1 REVERT JUMPDEST POP GAS DELEGATECALL ISZERO DUP1 ISZERO PUSH2 0x18E5 JUMPI RETURNDATASIZE PUSH1 0x0 DUP1 RETURNDATACOPY RETURNDATASIZE PUSH1 0x0 REVERT JUMPDEST POP POP POP POP PUSH1 0x40 MLOAD RETURNDATASIZE PUSH1 0x0 DUP3 RETURNDATACOPY PUSH1 0x1F RETURNDATASIZE SWAP1 DUP2 ADD PUSH1 0x1F NOT AND DUP3 ADD PUSH1 0x40 MSTORE PUSH2 0x190D SWAP2 SWAP1 DUP2 ADD SWAP1 PUSH2 0x42DE JUMP JUMPDEST SWAP6 SWAP5 POP POP POP POP POP JUMP JUMPDEST PUSH1 0x0 PUSH1 0x60 DUP1 PUSH20 0x0 PUSH4 0xBBB2DCF6 DUP6 PUSH1 0x40 MLOAD DUP3 PUSH4 0xFFFFFFFF AND PUSH1 0xE0 SHL DUP2 MSTORE PUSH1 0x4 ADD PUSH2 0x1952 SWAP2 SWAP1 PUSH2 0x4D84 JUMP JUMPDEST PUSH1 0x0 PUSH1 0x40 MLOAD DUP1 DUP4 SUB DUP2 DUP7 DUP1 EXTCODESIZE ISZERO DUP1 ISZERO PUSH2 0x196A JUMPI PUSH1 0x0 DUP1 REVERT JUMPDEST POP GAS DELEGATECALL ISZERO DUP1 ISZERO PUSH2 0x197E JUMPI RETURNDATASIZE PUSH1 0x0 DUP1 RETURNDATACOPY RETURNDATASIZE PUSH1 0x0 REVERT JUMPDEST POP POP POP POP PUSH1 0x40 MLOAD RETURNDATASIZE PUSH1 0x0 DUP3 RETURNDATACOPY PUSH1 0x1F RETURNDATASIZE SWAP1 DUP2 ADD PUSH1 0x1F NOT AND DUP3 ADD PUSH1 0x40 MSTORE PUSH2 0x67C SWAP2 SWAP1 DUP2 ADD SWAP1 PUSH2 0x4241 JUMP JUMPDEST PUSH1 0x7 SLOAD DUP2 JUMP JUMPDEST PUSH1 0x5 SLOAD PUSH1 0x1 PUSH1 0x1 PUSH1 0xA0 SHL SUB AND DUP2 JUMP JUMPDEST PUSH1 0x0 DUP1 PUSH1 0x60 PUSH1 0x0 PUSH20 0x0 PUSH4 0xCA49F47C DUP7 PUSH1 0x40 MLOAD DUP3 PUSH4 0xFFFFFFFF AND PUSH1 0xE0 SHL DUP2 MSTORE PUSH1 0x4 ADD PUSH2 0x19F9 SWAP2 SWAP1 PUSH2 0x4D84 JUMP JUMPDEST PUSH1 0x0 PUSH1 0x40 MLOAD DUP1 DUP4 SUB DUP2 DUP7 DUP1 EXTCODESIZE ISZERO DUP1 ISZERO PUSH2 0x1A11 JUMPI PUSH1 0x0 DUP1 REVERT JUMPDEST POP GAS DELEGATECALL ISZERO DUP1 ISZERO PUSH2 0x1A25 JUMPI RETURNDATASIZE PUSH1 0x0 DUP1 RETURNDATACOPY RETURNDATASIZE PUSH1 0x0 REVERT JUMPDEST POP POP POP POP PUSH1 0x40 MLOAD RETURNDATASIZE PUSH1 0x0 DUP3 RETURNDATACOPY PUSH1 0x1F RETURNDATASIZE SWAP1 DUP2 ADD PUSH1 0x1F NOT AND DUP3 ADD PUSH1 0x40 MSTORE PUSH2 0x9CD SWAP2 SWAP1 DUP2 ADD SWAP1 PUSH2 0x4199 JUMP JUMPDEST PUSH1 0x60 PUSH1 0x0 DUP3 MLOAD SWAP1 POP DUP1 PUSH1 0x40 MLOAD SWAP1 DUP1 DUP3 MSTORE DUP1 PUSH1 0x20 MUL PUSH1 0x20 ADD DUP3 ADD PUSH1 0x40 MSTORE DUP1 ISZERO PUSH2 0x1A7F JUMPI DUP2 PUSH1 0x20 ADD PUSH1 0x20 DUP3 MUL DUP1 CODESIZE DUP4 CODECOPY ADD SWAP1 POP JUMPDEST POP SWAP2 POP PUSH1 0x0 JUMPDEST DUP2 DUP2 EQ PUSH2 0x7D2 JUMPI PUSH2 0x1A9C DUP6 DUP6 DUP4 DUP2 MLOAD DUP2 LT PUSH2 0x1426 JUMPI INVALID JUMPDEST DUP4 DUP3 DUP2 MLOAD DUP2 LT PUSH2 0x1AA8 JUMPI INVALID JUMPDEST PUSH1 0x20 SWAP1 DUP2 MUL SWAP2 SWAP1 SWAP2 ADD ADD MSTORE PUSH1 0x1 ADD PUSH2 0x1A85 JUMP JUMPDEST PUSH1 0x0 DUP1 PUSH2 0x1ACE DUP4 DUP3 PUSH4 0xFFFFFFFF PUSH2 0x2A0E AND JUMP JUMPDEST SWAP1 POP PUSH1 0x1 PUSH1 0x1 PUSH1 0xE0 SHL SUB NOT DUP2 AND PUSH32 0x94CFCDD700000000000000000000000000000000000000000000000000000000 EQ ISZERO PUSH2 0x1C39 JUMPI PUSH1 0x60 DUP1 PUSH20 0x0 PUSH4 0xBBB2DCF6 DUP7 PUSH1 0x40 MLOAD DUP3 PUSH4 0xFFFFFFFF AND PUSH1 0xE0 SHL DUP2 MSTORE PUSH1 0x4 ADD PUSH2 0x1B3C SWAP2 SWAP1 PUSH2 0x4D84 JUMP JUMPDEST PUSH1 0x0 PUSH1 0x40 MLOAD DUP1 DUP4 SUB DUP2 DUP7 DUP1 EXTCODESIZE ISZERO DUP1 ISZERO PUSH2 0x1B54 JUMPI PUSH1 0x0 DUP1 REVERT JUMPDEST POP GAS DELEGATECALL ISZERO DUP1 ISZERO PUSH2 0x1B68 JUMPI RETURNDATASIZE PUSH1 0x0 DUP1 RETURNDATACOPY RETURNDATASIZE PUSH1 0x0 REVERT JUMPDEST POP POP POP POP PUSH1 0x40 MLOAD RETURNDATASIZE PUSH1 0x0 DUP3 RETURNDATACOPY PUSH1 0x1F RETURNDATASIZE SWAP1 DUP2 ADD PUSH1 0x1F NOT AND DUP3 ADD PUSH1 0x40 MSTORE PUSH2 0x1B90 SWAP2 SWAP1 DUP2 ADD SWAP1 PUSH2 0x4241 JUMP JUMPDEST DUP1 MLOAD SWAP2 SWAP5 POP SWAP3 POP SWAP1 POP PUSH1 0x0 JUMPDEST DUP2 DUP2 EQ PUSH2 0x1C2E JUMPI DUP4 DUP2 DUP2 MLOAD DUP2 LT PUSH2 0x1BAF JUMPI INVALID JUMPDEST PUSH1 0x20 MUL PUSH1 0x20 ADD ADD MLOAD PUSH1 0x0 EQ ISZERO PUSH2 0x1BC4 JUMPI PUSH2 0x1C26 JUMP JUMPDEST PUSH1 0x0 PUSH2 0x1BD6 DUP10 DUP6 DUP5 DUP2 MLOAD DUP2 LT PUSH2 0x7A6 JUMPI INVALID JUMPDEST SWAP1 POP PUSH1 0x0 DUP6 DUP4 DUP2 MLOAD DUP2 LT PUSH2 0x1BE6 JUMPI INVALID JUMPDEST PUSH1 0x20 MUL PUSH1 0x20 ADD ADD MLOAD DUP3 DUP2 PUSH2 0x1BF6 JUMPI INVALID JUMPDEST DIV SWAP1 POP DUP1 PUSH2 0x1C0E JUMPI PUSH1 0x0 SWAP8 POP POP POP POP POP POP POP POP PUSH2 0x6CD JUMP JUMPDEST DUP8 DUP2 LT DUP1 PUSH2 0x1C1A JUMPI POP DUP8 ISZERO JUMPDEST ISZERO PUSH2 0x1C23 JUMPI DUP1 SWAP8 POP JUMPDEST POP POP JUMPDEST PUSH1 0x1 ADD PUSH2 0x1B9C JUMP JUMPDEST POP PUSH2 0x6CD SWAP4 POP POP POP POP JUMP JUMPDEST PUSH1 0x1 PUSH1 0x1 PUSH1 0xE0 SHL SUB NOT DUP2 AND PUSH32 0xF47261B000000000000000000000000000000000000000000000000000000000 EQ ISZERO PUSH2 0x1C9A JUMPI PUSH1 0x0 PUSH2 0x1C7E DUP5 PUSH1 0x10 PUSH4 0xFFFFFFFF PUSH2 0x2A47 AND JUMP JUMPDEST PUSH1 0x1 SLOAD SWAP1 SWAP2 POP PUSH2 0xC07 SWAP1 DUP3 SWAP1 DUP8 SWAP1 PUSH1 0x1 PUSH1 0x1 PUSH1 0xA0 SHL SUB AND PUSH2 0x2DBB JUMP JUMPDEST PUSH1 0x1 PUSH1 0x1 PUSH1 0xE0 SHL SUB NOT DUP2 AND PUSH32 0x257179200000000000000000000000000000000000000000000000000000000 EQ ISZERO PUSH2 0x1FEA JUMPI PUSH1 0x0 DUP1 PUSH20 0x0 PUSH4 0x4A5618A DUP7 PUSH1 0x40 MLOAD DUP3 PUSH4 0xFFFFFFFF AND PUSH1 0xE0 SHL DUP2 MSTORE PUSH1 0x4 ADD PUSH2 0x1D06 SWAP2 SWAP1 PUSH2 0x4D84 JUMP JUMPDEST PUSH1 0x60 PUSH1 0x40 MLOAD DUP1 DUP4 SUB DUP2 DUP7 DUP1 EXTCODESIZE ISZERO DUP1 ISZERO PUSH2 0x1D1E JUMPI PUSH1 0x0 DUP1 REVERT JUMPDEST POP GAS DELEGATECALL ISZERO DUP1 ISZERO PUSH2 0x1D32 JUMPI RETURNDATASIZE PUSH1 0x0 DUP1 RETURNDATACOPY RETURNDATASIZE PUSH1 0x0 REVERT JUMPDEST POP POP POP POP PUSH1 0x40 MLOAD RETURNDATASIZE PUSH1 0x1F NOT PUSH1 0x1F DUP3 ADD AND DUP3 ADD DUP1 PUSH1 0x40 MSTORE POP PUSH2 0x1D56 SWAP2 SWAP1 DUP2 ADD SWAP1 PUSH2 0x4201 JUMP JUMPDEST PUSH1 0x2 SLOAD PUSH1 0x40 MLOAD SWAP3 SWAP6 POP SWAP1 SWAP4 POP PUSH1 0x60 SWAP3 POP PUSH32 0xE985E9C500000000000000000000000000000000000000000000000000000000 SWAP2 PUSH2 0x1DA2 SWAP2 DUP11 SWAP2 PUSH1 0x1 PUSH1 0x1 PUSH1 0xA0 SHL SUB SWAP1 SWAP2 AND SWAP1 PUSH1 0x24 ADD PUSH2 0x489C JUMP JUMPDEST PUSH1 0x40 MLOAD PUSH1 0x20 DUP2 DUP4 SUB SUB DUP2 MSTORE SWAP1 PUSH1 0x40 MSTORE SWAP1 PUSH28 0xFFFFFFFFFFFFFFFFFFFFFFFFFFFFFFFFFFFFFFFFFFFFFFFFFFFFFFFF NOT AND PUSH1 0x20 DUP3 ADD DUP1 MLOAD PUSH28 0xFFFFFFFFFFFFFFFFFFFFFFFFFFFFFFFFFFFFFFFFFFFFFFFFFFFFFFFF DUP4 DUP2 DUP4 AND OR DUP4 MSTORE POP POP POP POP SWAP1 POP PUSH1 0x0 PUSH1 0x60 DUP5 PUSH1 0x1 PUSH1 0x1 PUSH1 0xA0 SHL SUB AND DUP4 PUSH1 0x40 MLOAD PUSH2 0x1E1D SWAP2 SWAP1 PUSH2 0x486C JUMP JUMPDEST PUSH1 0x0 PUSH1 0x40 MLOAD DUP1 DUP4 SUB DUP2 DUP6 GAS STATICCALL SWAP2 POP POP RETURNDATASIZE DUP1 PUSH1 0x0 DUP2 EQ PUSH2 0x1E58 JUMPI PUSH1 0x40 MLOAD SWAP2 POP PUSH1 0x1F NOT PUSH1 0x3F RETURNDATASIZE ADD AND DUP3 ADD PUSH1 0x40 MSTORE RETURNDATASIZE DUP3 MSTORE RETURNDATASIZE PUSH1 0x0 PUSH1 0x20 DUP5 ADD RETURNDATACOPY PUSH2 0x1E5D JUMP JUMPDEST PUSH1 0x60 SWAP2 POP JUMPDEST POP SWAP2 POP SWAP2 POP DUP2 ISZERO DUP1 PUSH2 0x1E71 JUMPI POP DUP1 MLOAD PUSH1 0x20 EQ ISZERO JUMPDEST DUP1 PUSH2 0x1E8D JUMPI POP PUSH2 0x1E88 DUP2 PUSH1 0x0 PUSH4 0xFFFFFFFF PUSH2 0x2B72 AND JUMP JUMPDEST PUSH1 0x1 EQ ISZERO JUMPDEST ISZERO PUSH2 0x1FDB JUMPI PUSH1 0x40 MLOAD PUSH1 0x60 SWAP1 PUSH32 0x81812FC00000000000000000000000000000000000000000000000000000000 SWAP1 PUSH2 0x1EC8 SWAP1 DUP8 SWAP1 PUSH1 0x24 ADD PUSH2 0x4C01 JUMP JUMPDEST PUSH1 0x40 MLOAD PUSH1 0x20 DUP2 DUP4 SUB SUB DUP2 MSTORE SWAP1 PUSH1 0x40 MSTORE SWAP1 PUSH28 0xFFFFFFFFFFFFFFFFFFFFFFFFFFFFFFFFFFFFFFFFFFFFFFFFFFFFFFFF NOT AND PUSH1 0x20 DUP3 ADD DUP1 MLOAD PUSH28 0xFFFFFFFFFFFFFFFFFFFFFFFFFFFFFFFFFFFFFFFFFFFFFFFFFFFFFFFF DUP4 DUP2 DUP4 AND OR DUP4 MSTORE POP POP POP POP SWAP1 POP DUP6 PUSH1 0x1 PUSH1 0x1 PUSH1 0xA0 SHL SUB AND DUP2 PUSH1 0x40 MLOAD PUSH2 0x1F3F SWAP2 SWAP1 PUSH2 0x486C JUMP JUMPDEST PUSH1 0x0 PUSH1 0x40 MLOAD DUP1 DUP4 SUB DUP2 DUP6 GAS STATICCALL SWAP2 POP POP RETURNDATASIZE DUP1 PUSH1 0x0 DUP2 EQ PUSH2 0x1F7A JUMPI PUSH1 0x40 MLOAD SWAP2 POP PUSH1 0x1F NOT PUSH1 0x3F RETURNDATASIZE ADD AND DUP3 ADD PUSH1 0x40 MSTORE RETURNDATASIZE DUP3 MSTORE RETURNDATASIZE PUSH1 0x0 PUSH1 0x20 DUP5 ADD RETURNDATACOPY PUSH2 0x1F7F JUMP JUMPDEST PUSH1 0x60 SWAP2 POP JUMPDEST POP SWAP1 SWAP4 POP SWAP2 POP DUP3 DUP1 ISZERO PUSH2 0x1F93 JUMPI POP DUP2 MLOAD PUSH1 0x20 EQ JUMPDEST DUP1 ISZERO PUSH2 0x1FC2 JUMPI POP PUSH1 0x2 SLOAD PUSH1 0x1 PUSH1 0x1 PUSH1 0xA0 SHL SUB AND PUSH2 0x1FB7 DUP4 PUSH1 0xC PUSH4 0xFFFFFFFF PUSH2 0x2A47 AND JUMP JUMPDEST PUSH1 0x1 PUSH1 0x1 PUSH1 0xA0 SHL SUB AND EQ JUMPDEST PUSH2 0x1FCD JUMPI PUSH1 0x0 PUSH2 0x1FD0 JUMP JUMPDEST PUSH1 0x1 JUMPDEST PUSH1 0xFF AND SWAP8 POP POP PUSH2 0x10BA JUMP JUMPDEST PUSH1 0x0 NOT SWAP7 POP POP POP POP POP POP PUSH2 0x1490 JUMP JUMPDEST PUSH1 0x1 PUSH1 0x1 PUSH1 0xE0 SHL SUB NOT DUP2 AND PUSH32 0xA7CB5FB700000000000000000000000000000000000000000000000000000000 EQ ISZERO PUSH2 0x2211 JUMPI PUSH1 0x40 MLOAD PUSH32 0x9EADC83500000000000000000000000000000000000000000000000000000000 DUP2 MSTORE PUSH1 0x0 SWAP1 PUSH20 0x0 SWAP1 PUSH4 0x9EADC835 SWAP1 PUSH2 0x206F SWAP1 DUP8 SWAP1 PUSH1 0x4 ADD PUSH2 0x4D84 JUMP JUMPDEST PUSH1 0x0 PUSH1 0x40 MLOAD DUP1 DUP4 SUB DUP2 DUP7 DUP1 EXTCODESIZE ISZERO DUP1 ISZERO PUSH2 0x2087 JUMPI PUSH1 0x0 DUP1 REVERT JUMPDEST POP GAS DELEGATECALL ISZERO DUP1 ISZERO PUSH2 0x209B JUMPI RETURNDATASIZE PUSH1 0x0 DUP1 RETURNDATACOPY RETURNDATASIZE PUSH1 0x0 REVERT JUMPDEST POP POP POP POP PUSH1 0x40 MLOAD RETURNDATASIZE PUSH1 0x0 DUP3 RETURNDATACOPY PUSH1 0x1F RETURNDATASIZE SWAP1 DUP2 ADD PUSH1 0x1F NOT AND DUP3 ADD PUSH1 0x40 MSTORE PUSH2 0x20C3 SWAP2 SWAP1 DUP2 ADD SWAP1 PUSH2 0x40EF JUMP JUMPDEST POP POP PUSH1 0x3 SLOAD PUSH1 0x40 MLOAD SWAP3 SWAP5 POP PUSH1 0x60 SWAP4 POP PUSH32 0xE985E9C500000000000000000000000000000000000000000000000000000000 SWAP3 PUSH2 0x210D SWAP3 POP DUP10 SWAP2 PUSH1 0x1 PUSH1 0x1 PUSH1 0xA0 SHL SUB AND SWAP1 PUSH1 0x24 ADD PUSH2 0x489C JUMP JUMPDEST PUSH1 0x40 MLOAD PUSH1 0x20 DUP2 DUP4 SUB SUB DUP2 MSTORE SWAP1 PUSH1 0x40 MSTORE SWAP1 PUSH28 0xFFFFFFFFFFFFFFFFFFFFFFFFFFFFFFFFFFFFFFFFFFFFFFFFFFFFFFFF NOT AND PUSH1 0x20 DUP3 ADD DUP1 MLOAD PUSH28 0xFFFFFFFFFFFFFFFFFFFFFFFFFFFFFFFFFFFFFFFFFFFFFFFFFFFFFFFF DUP4 DUP2 DUP4 AND OR DUP4 MSTORE POP POP POP POP SWAP1 POP PUSH1 0x0 PUSH1 0x60 DUP4 PUSH1 0x1 PUSH1 0x1 PUSH1 0xA0 SHL SUB AND DUP4 PUSH1 0x40 MLOAD PUSH2 0x2188 SWAP2 SWAP1 PUSH2 0x486C JUMP JUMPDEST PUSH1 0x0 PUSH1 0x40 MLOAD DUP1 DUP4 SUB DUP2 DUP6 GAS STATICCALL SWAP2 POP POP RETURNDATASIZE DUP1 PUSH1 0x0 DUP2 EQ PUSH2 0x21C3 JUMPI PUSH1 0x40 MLOAD SWAP2 POP PUSH1 0x1F NOT PUSH1 0x3F RETURNDATASIZE ADD AND DUP3 ADD PUSH1 0x40 MSTORE RETURNDATASIZE DUP3 MSTORE RETURNDATASIZE PUSH1 0x0 PUSH1 0x20 DUP5 ADD RETURNDATACOPY PUSH2 0x21C8 JUMP JUMPDEST PUSH1 0x60 SWAP2 POP JUMPDEST POP SWAP2 POP SWAP2 POP DUP2 DUP1 ISZERO PUSH2 0x21DB JUMPI POP DUP1 MLOAD PUSH1 0x20 EQ JUMPDEST DUP1 ISZERO PUSH2 0x21F7 JUMPI POP PUSH2 0x21F3 DUP2 PUSH1 0x0 PUSH4 0xFFFFFFFF PUSH2 0x2B72 AND JUMP JUMPDEST PUSH1 0x1 EQ JUMPDEST PUSH2 0x2202 JUMPI PUSH1 0x0 PUSH2 0x2206 JUMP JUMPDEST PUSH1 0x0 NOT JUMPDEST SWAP6 POP POP POP POP POP PUSH2 0x1490 JUMP JUMPDEST PUSH1 0x1 PUSH1 0x1 PUSH1 0xE0 SHL SUB NOT DUP2 AND PUSH32 0xC339D10A00000000000000000000000000000000000000000000000000000000 EQ ISZERO PUSH2 0x224D JUMPI PUSH1 0x0 NOT SWAP2 POP PUSH2 0x1490 JUMP JUMPDEST PUSH1 0x1 PUSH1 0x1 PUSH1 0xE0 SHL SUB NOT DUP2 AND PUSH32 0xDC1600F300000000000000000000000000000000000000000000000000000000 EQ ISZERO PUSH2 0x1490 JUMPI PUSH1 0x0 DUP1 PUSH20 0x0 PUSH4 0x750BDB30 DUP7 PUSH1 0x40 MLOAD DUP3 PUSH4 0xFFFFFFFF AND PUSH1 0xE0 SHL DUP2 MSTORE PUSH1 0x4 ADD PUSH2 0x22B9 SWAP2 SWAP1 PUSH2 0x4D84 JUMP JUMPDEST PUSH1 0x0 PUSH1 0x40 MLOAD DUP1 DUP4 SUB DUP2 DUP7 DUP1 EXTCODESIZE ISZERO DUP1 ISZERO PUSH2 0x22D1 JUMPI PUSH1 0x0 DUP1 REVERT JUMPDEST POP GAS DELEGATECALL ISZERO DUP1 ISZERO PUSH2 0x22E5 JUMPI RETURNDATASIZE PUSH1 0x0 DUP1 RETURNDATACOPY RETURNDATASIZE PUSH1 0x0 REVERT JUMPDEST POP POP POP POP PUSH1 0x40 MLOAD RETURNDATASIZE PUSH1 0x0 DUP3 RETURNDATACOPY PUSH1 0x1F RETURNDATASIZE SWAP1 DUP2 ADD PUSH1 0x1F NOT AND DUP3 ADD PUSH1 0x40 MSTORE PUSH2 0x230D SWAP2 SWAP1 DUP2 ADD SWAP1 PUSH2 0x4085 JUMP JUMPDEST POP SWAP3 POP SWAP3 POP POP PUSH2 0x231B PUSH2 0x2B7E JUMP JUMPDEST PUSH1 0x1 PUSH1 0x1 PUSH1 0xA0 SHL SUB AND DUP3 PUSH1 0x1 PUSH1 0x1 PUSH1 0xA0 SHL SUB AND EQ DUP1 ISZERO PUSH2 0x2348 JUMPI POP PUSH1 0x5 SLOAD PUSH1 0x1 PUSH1 0x1 PUSH1 0xA0 SHL SUB DUP3 DUP2 AND SWAP2 AND EQ JUMPDEST ISZERO PUSH2 0x2392 JUMPI PUSH1 0x0 PUSH2 0x236D PUSH2 0x235A PUSH2 0x2B96 JUMP JUMPDEST PUSH1 0x5 SLOAD DUP10 SWAP1 PUSH1 0x1 PUSH1 0x1 PUSH1 0xA0 SHL SUB AND PUSH2 0x2DBB JUMP JUMPDEST SWAP1 POP PUSH1 0x0 NOT DUP2 EQ PUSH2 0x2386 JUMPI PUSH2 0x2381 DUP2 PUSH2 0x2BAE JUMP JUMPDEST PUSH2 0x238A JUMP JUMPDEST PUSH1 0x0 NOT JUMPDEST SWAP5 POP POP PUSH2 0x243D JUMP JUMPDEST PUSH1 0x6 SLOAD PUSH1 0x1 PUSH1 0x1 PUSH1 0xA0 SHL SUB DUP3 DUP2 AND SWAP2 AND EQ ISZERO PUSH2 0x243D JUMPI PUSH20 0x0 PUSH4 0xE70A033 DUP8 DUP4 PUSH2 0x23CC PUSH2 0x2EC5 JUMP JUMPDEST PUSH1 0x40 MLOAD DUP5 PUSH4 0xFFFFFFFF AND PUSH1 0xE0 SHL DUP2 MSTORE PUSH1 0x4 ADD PUSH2 0x23EA SWAP4 SWAP3 SWAP2 SWAP1 PUSH2 0x48B6 JUMP JUMPDEST PUSH1 0x20 PUSH1 0x40 MLOAD DUP1 DUP4 SUB DUP2 DUP7 DUP1 EXTCODESIZE ISZERO DUP1 ISZERO PUSH2 0x2402 JUMPI PUSH1 0x0 DUP1 REVERT JUMPDEST POP GAS DELEGATECALL ISZERO DUP1 ISZERO PUSH2 0x2416 JUMPI RETURNDATASIZE PUSH1 0x0 DUP1 RETURNDATACOPY RETURNDATASIZE PUSH1 0x0 REVERT JUMPDEST POP POP POP POP PUSH1 0x40 MLOAD RETURNDATASIZE PUSH1 0x1F NOT PUSH1 0x1F DUP3 ADD AND DUP3 ADD DUP1 PUSH1 0x40 MSTORE POP PUSH2 0x243A SWAP2 SWAP1 DUP2 ADD SWAP1 PUSH2 0x4641 JUMP JUMPDEST SWAP4 POP JUMPDEST POP POP POP SWAP3 SWAP2 POP POP JUMP JUMPDEST PUSH1 0x0 DUP1 SLOAD PUSH1 0x40 MLOAD PUSH32 0x8DCCDE0400000000000000000000000000000000000000000000000000000000 DUP2 MSTORE PUSH20 0x0 SWAP2 PUSH4 0x8DCCDE04 SWAP2 PUSH2 0xAD0 SWAP2 PUSH1 0x1 PUSH1 0x1 PUSH1 0xA0 SHL SUB AND SWAP1 DUP9 SWAP1 DUP9 SWAP1 DUP9 SWAP1 PUSH1 0x4 ADD PUSH2 0x4A23 JUMP JUMPDEST PUSH1 0x40 MLOAD PUSH32 0xD3D862D100000000000000000000000000000000000000000000000000000000 DUP2 MSTORE PUSH1 0x60 SWAP1 PUSH20 0x0 SWAP1 PUSH4 0xD3D862D1 SWAP1 PUSH2 0x17F6 SWAP1 DUP7 SWAP1 DUP7 SWAP1 PUSH1 0x4 ADD PUSH2 0x4B6C JUMP JUMPDEST PUSH1 0x40 MLOAD PUSH32 0xD469502800000000000000000000000000000000000000000000000000000000 DUP2 MSTORE PUSH1 0x0 SWAP1 PUSH20 0x0 SWAP1 PUSH4 0xD4695028 SWAP1 PUSH2 0x2550 SWAP1 DUP6 SWAP1 PUSH1 0x4 ADD PUSH2 0x4D84 JUMP JUMPDEST PUSH1 0x20 PUSH1 0x40 MLOAD DUP1 DUP4 SUB DUP2 DUP7 DUP1 EXTCODESIZE ISZERO DUP1 ISZERO PUSH2 0x2568 JUMPI PUSH1 0x0 DUP1 REVERT JUMPDEST POP GAS DELEGATECALL ISZERO DUP1 ISZERO PUSH2 0x257C JUMPI RETURNDATASIZE PUSH1 0x0 DUP1 RETURNDATACOPY RETURNDATASIZE PUSH1 0x0 REVERT JUMPDEST POP POP POP POP PUSH1 0x40 MLOAD RETURNDATASIZE PUSH1 0x1F NOT PUSH1 0x1F DUP3 ADD AND DUP3 ADD DUP1 PUSH1 0x40 MSTORE POP PUSH2 0x881 SWAP2 SWAP1 DUP2 ADD SWAP1 PUSH2 0x4033 JUMP JUMPDEST PUSH1 0x60 DUP1 PUSH1 0x60 PUSH1 0x0 DUP6 MLOAD SWAP1 POP DUP1 PUSH1 0x40 MLOAD SWAP1 DUP1 DUP3 MSTORE DUP1 PUSH1 0x20 MUL PUSH1 0x20 ADD DUP3 ADD PUSH1 0x40 MSTORE DUP1 ISZERO PUSH2 0x25E5 JUMPI DUP2 PUSH1 0x20 ADD JUMPDEST PUSH2 0x25D2 PUSH2 0x36A6 JUMP JUMPDEST DUP2 MSTORE PUSH1 0x20 ADD SWAP1 PUSH1 0x1 SWAP1 SUB SWAP1 DUP2 PUSH2 0x25CA JUMPI SWAP1 POP JUMPDEST POP SWAP4 POP DUP1 PUSH1 0x40 MLOAD SWAP1 DUP1 DUP3 MSTORE DUP1 PUSH1 0x20 MUL PUSH1 0x20 ADD DUP3 ADD PUSH1 0x40 MSTORE DUP1 ISZERO PUSH2 0x2612 JUMPI DUP2 PUSH1 0x20 ADD PUSH1 0x20 DUP3 MUL DUP1 CODESIZE DUP4 CODECOPY ADD SWAP1 POP JUMPDEST POP SWAP3 POP DUP1 PUSH1 0x40 MLOAD SWAP1 DUP1 DUP3 MSTORE DUP1 PUSH1 0x20 MUL PUSH1 0x20 ADD DUP3 ADD PUSH1 0x40 MSTORE DUP1 ISZERO PUSH2 0x263F JUMPI DUP2 PUSH1 0x20 ADD PUSH1 0x20 DUP3 MUL DUP1 CODESIZE DUP4 CODECOPY ADD SWAP1 POP JUMPDEST POP SWAP2 POP PUSH1 0x0 JUMPDEST DUP2 DUP2 EQ PUSH2 0x26CF JUMPI PUSH2 0x267C DUP8 DUP3 DUP2 MLOAD DUP2 LT PUSH2 0x265B JUMPI INVALID JUMPDEST PUSH1 0x20 MUL PUSH1 0x20 ADD ADD MLOAD DUP8 DUP4 DUP2 MLOAD DUP2 LT PUSH2 0x266F JUMPI INVALID JUMPDEST PUSH1 0x20 MUL PUSH1 0x20 ADD ADD MLOAD PUSH2 0x26F1 JUMP JUMPDEST DUP8 MLOAD DUP9 SWAP1 DUP6 SWAP1 DUP2 LT PUSH2 0x268A JUMPI INVALID JUMPDEST PUSH1 0x20 MUL PUSH1 0x20 ADD ADD DUP8 DUP6 DUP2 MLOAD DUP2 LT PUSH2 0x269D JUMPI INVALID JUMPDEST PUSH1 0x20 MUL PUSH1 0x20 ADD ADD DUP8 DUP7 DUP2 MLOAD DUP2 LT PUSH2 0x26B0 JUMPI INVALID JUMPDEST SWAP4 ISZERO ISZERO PUSH1 0x20 SWAP5 DUP6 MUL SWAP2 SWAP1 SWAP2 ADD SWAP1 SWAP4 ADD SWAP3 SWAP1 SWAP3 MSTORE SWAP2 SWAP1 MSTORE MSTORE PUSH1 0x1 ADD PUSH2 0x2645 JUMP JUMPDEST POP POP SWAP3 POP SWAP3 POP SWAP3 JUMP JUMPDEST PUSH1 0x60 DUP1 PUSH2 0x26E5 DUP5 DUP5 PUSH2 0x1A4D JUMP JUMPDEST SWAP2 POP PUSH2 0x6A2 DUP5 DUP5 PUSH2 0x757 JUMP JUMPDEST PUSH2 0x26F9 PUSH2 0x36A6 JUMP JUMPDEST PUSH1 0x0 DUP1 SLOAD PUSH1 0x40 MLOAD PUSH32 0x9D3FA4B900000000000000000000000000000000000000000000000000000000 DUP2 MSTORE DUP3 SWAP2 PUSH1 0x1 PUSH1 0x1 PUSH1 0xA0 SHL SUB AND SWAP1 PUSH4 0x9D3FA4B9 SWAP1 PUSH2 0x2743 SWAP1 DUP9 SWAP1 PUSH1 0x4 ADD PUSH2 0x4ECA JUMP JUMPDEST PUSH1 0x60 PUSH1 0x40 MLOAD DUP1 DUP4 SUB DUP2 DUP7 DUP1 EXTCODESIZE ISZERO DUP1 ISZERO PUSH2 0x275B JUMPI PUSH1 0x0 DUP1 REVERT JUMPDEST POP GAS STATICCALL ISZERO DUP1 ISZERO PUSH2 0x276F JUMPI RETURNDATASIZE PUSH1 0x0 DUP1 RETURNDATACOPY RETURNDATASIZE PUSH1 0x0 REVERT JUMPDEST POP POP POP POP PUSH1 0x40 MLOAD RETURNDATASIZE PUSH1 0x1F NOT PUSH1 0x1F DUP3 ADD AND DUP3 ADD DUP1 PUSH1 0x40 MSTORE POP PUSH2 0x2793 SWAP2 SWAP1 DUP2 ADD SWAP1 PUSH2 0x4439 JUMP JUMPDEST DUP6 MLOAD PUSH1 0x0 SLOAD PUSH1 0x40 MLOAD PUSH32 0xA12DCC6F00000000000000000000000000000000000000000000000000000000 DUP2 MSTORE SWAP3 SWAP6 POP SWAP1 SWAP2 PUSH1 0x1 PUSH1 0x1 PUSH1 0xA0 SHL SUB SWAP1 SWAP2 AND SWAP1 PUSH4 0xA12DCC6F SWAP1 PUSH2 0x27E5 SWAP1 DUP10 SWAP1 DUP10 SWAP1 PUSH1 0x4 ADD PUSH2 0x4F08 JUMP JUMPDEST PUSH1 0x20 PUSH1 0x40 MLOAD DUP1 DUP4 SUB DUP2 DUP7 DUP1 EXTCODESIZE ISZERO DUP1 ISZERO PUSH2 0x27FD JUMPI PUSH1 0x0 DUP1 REVERT JUMPDEST POP GAS STATICCALL ISZERO DUP1 ISZERO PUSH2 0x2811 JUMPI RETURNDATASIZE PUSH1 0x0 DUP1 RETURNDATACOPY RETURNDATASIZE PUSH1 0x0 REVERT JUMPDEST POP POP POP POP PUSH1 0x40 MLOAD RETURNDATASIZE PUSH1 0x1F NOT PUSH1 0x1F DUP3 ADD AND DUP3 ADD DUP1 PUSH1 0x40 MSTORE POP PUSH2 0x2835 SWAP2 SWAP1 DUP2 ADD SWAP1 PUSH2 0x4013 JUMP JUMPDEST SWAP2 POP PUSH1 0x0 PUSH2 0x2842 DUP8 PUSH2 0x2EDD JUMP JUMPDEST SWAP1 POP PUSH1 0x0 PUSH2 0x2863 DUP9 PUSH2 0x180 ADD MLOAD DUP10 PUSH2 0x140 ADD MLOAD PUSH2 0x2F09 SWAP1 SWAP2 SWAP1 PUSH4 0xFFFFFFFF AND JUMP JUMPDEST ISZERO PUSH2 0x2898 JUMPI PUSH2 0x2891 DUP3 PUSH2 0x2887 DUP11 PUSH1 0xC0 ADD MLOAD DUP12 PUSH1 0x80 ADD MLOAD PUSH2 0x2F2E SWAP1 SWAP2 SWAP1 PUSH4 0xFFFFFFFF AND JUMP JUMPDEST DUP11 PUSH1 0xA0 ADD MLOAD PUSH2 0x2F4A JUMP JUMPDEST SWAP1 POP PUSH2 0x2905 JUMP JUMPDEST PUSH1 0xC0 DUP9 ADD MLOAD PUSH2 0x28B4 JUMPI PUSH2 0x2891 DUP3 DUP10 PUSH1 0x80 ADD MLOAD DUP11 PUSH1 0xA0 ADD MLOAD PUSH2 0x2F4A JUMP JUMPDEST PUSH1 0x0 PUSH2 0x28C5 DUP5 DUP11 PUSH2 0x180 ADD MLOAD PUSH2 0x6AB JUMP JUMPDEST SWAP1 POP PUSH1 0x0 PUSH2 0x28DC DUP5 DUP12 PUSH1 0x80 ADD MLOAD DUP13 PUSH1 0xA0 ADD MLOAD PUSH2 0x2F4A JUMP JUMPDEST SWAP1 POP PUSH1 0x0 PUSH2 0x28F3 DUP4 DUP13 PUSH1 0xC0 ADD MLOAD DUP14 PUSH1 0xA0 ADD MLOAD PUSH2 0x2F4A JUMP JUMPDEST SWAP1 POP PUSH2 0x28FF DUP3 DUP3 PUSH2 0x298D JUMP JUMPDEST SWAP4 POP POP POP POP JUMPDEST PUSH2 0x2929 PUSH2 0x2923 DUP8 PUSH1 0x40 ADD MLOAD DUP11 PUSH1 0xA0 ADD MLOAD PUSH2 0x2F6C SWAP1 SWAP2 SWAP1 PUSH4 0xFFFFFFFF AND JUMP JUMPDEST DUP3 PUSH2 0x298D JUMP JUMPDEST SWAP5 POP PUSH2 0x2934 DUP9 PUSH2 0x2F8B JUMP JUMPDEST PUSH2 0x293D JUMPI PUSH1 0x0 SWAP5 POP JUMPDEST PUSH1 0x3 DUP7 MLOAD PUSH1 0x6 DUP2 GT ISZERO PUSH2 0x294C JUMPI INVALID JUMPDEST EQ PUSH2 0x2956 JUMPI PUSH1 0x0 SWAP5 POP JUMPDEST POP POP POP SWAP3 POP SWAP3 POP SWAP3 JUMP JUMPDEST PUSH1 0x1 SLOAD PUSH1 0x1 PUSH1 0x1 PUSH1 0xA0 SHL SUB AND DUP2 JUMP JUMPDEST PUSH1 0x2 SLOAD PUSH1 0x1 PUSH1 0x1 PUSH1 0xA0 SHL SUB AND DUP2 JUMP JUMPDEST PUSH1 0x3 SLOAD PUSH1 0x1 PUSH1 0x1 PUSH1 0xA0 SHL SUB AND DUP2 JUMP JUMPDEST PUSH1 0x0 DUP2 DUP4 LT PUSH2 0x299C JUMPI DUP2 PUSH2 0x184A JUMP JUMPDEST POP SWAP1 SWAP2 SWAP1 POP JUMP JUMPDEST DUP4 MLOAD PUSH1 0x20 SWAP5 DUP6 ADD KECCAK256 DUP4 MLOAD SWAP4 DUP6 ADD SWAP4 SWAP1 SWAP4 KECCAK256 PUSH1 0x40 DUP1 MLOAD PUSH32 0x8B73C3C69BB8FE3D512ECC4CF759CC79239F7B179B0FFACAA9A75D522B39400F DUP2 MSTORE SWAP6 DUP7 ADD SWAP5 SWAP1 SWAP5 MSTORE SWAP3 DUP5 ADD SWAP3 SWAP1 SWAP3 MSTORE PUSH1 0x60 DUP4 ADD MSTORE PUSH1 0x80 DUP3 ADD MSTORE PUSH1 0xA0 SWAP1 KECCAK256 SWAP1 JUMP JUMPDEST PUSH1 0x0 PUSH2 0x184A DUP3 PUSH2 0x2A09 DUP6 PUSH2 0x2FF2 JUMP JUMPDEST PUSH2 0x306D JUMP JUMPDEST PUSH1 0x0 DUP2 PUSH1 0x4 ADD DUP4 MLOAD LT ISZERO PUSH2 0x2A34 JUMPI PUSH2 0x2A34 PUSH2 0x2A2F PUSH1 0x3 DUP6 MLOAD DUP6 PUSH1 0x4 ADD PUSH2 0x30A7 JUMP JUMPDEST PUSH2 0x3116 JUMP JUMPDEST POP ADD PUSH1 0x20 ADD MLOAD PUSH1 0x1 PUSH1 0x1 PUSH1 0xE0 SHL SUB NOT AND SWAP1 JUMP JUMPDEST PUSH1 0x0 DUP2 PUSH1 0x14 ADD DUP4 MLOAD LT ISZERO PUSH2 0x2A68 JUMPI PUSH2 0x2A68 PUSH2 0x2A2F PUSH1 0x4 DUP6 MLOAD DUP6 PUSH1 0x14 ADD PUSH2 0x30A7 JUMP JUMPDEST POP ADD PUSH1 0x14 ADD MLOAD PUSH1 0x1 PUSH1 0x1 PUSH1 0xA0 SHL SUB AND SWAP1 JUMP JUMPDEST PUSH1 0x40 MLOAD PUSH1 0x0 SWAP1 DUP2 SWAP1 PUSH1 0x60 SWAP1 PUSH1 0x1 PUSH1 0x1 PUSH1 0xA0 SHL SUB DUP7 AND SWAP1 PUSH32 0x70A0823100000000000000000000000000000000000000000000000000000000 SWAP1 PUSH2 0x2AC0 SWAP1 DUP8 SWAP1 PUSH1 0x24 ADD PUSH2 0x4888 JUMP JUMPDEST PUSH1 0x40 DUP1 MLOAD PUSH1 0x1F NOT DUP2 DUP5 SUB ADD DUP2 MSTORE SWAP2 DUP2 MSTORE PUSH1 0x20 DUP3 ADD DUP1 MLOAD PUSH28 0xFFFFFFFFFFFFFFFFFFFFFFFFFFFFFFFFFFFFFFFFFFFFFFFFFFFFFFFF AND PUSH1 0x1 PUSH1 0x1 PUSH1 0xE0 SHL SUB NOT SWAP1 SWAP5 AND SWAP4 SWAP1 SWAP4 OR SWAP1 SWAP3 MSTORE SWAP1 MLOAD PUSH2 0x2B13 SWAP2 SWAP1 PUSH2 0x486C JUMP JUMPDEST PUSH1 0x0 PUSH1 0x40 MLOAD DUP1 DUP4 SUB DUP2 DUP6 GAS STATICCALL SWAP2 POP POP RETURNDATASIZE DUP1 PUSH1 0x0 DUP2 EQ PUSH2 0x2B4E JUMPI PUSH1 0x40 MLOAD SWAP2 POP PUSH1 0x1F NOT PUSH1 0x3F RETURNDATASIZE ADD AND DUP3 ADD PUSH1 0x40 MSTORE RETURNDATASIZE DUP3 MSTORE RETURNDATASIZE PUSH1 0x0 PUSH1 0x20 DUP5 ADD RETURNDATACOPY PUSH2 0x2B53 JUMP JUMPDEST PUSH1 0x60 SWAP2 POP JUMPDEST POP SWAP2 POP SWAP2 POP DUP2 DUP1 ISZERO PUSH2 0x2B66 JUMPI POP DUP1 MLOAD PUSH1 0x20 EQ JUMPDEST ISZERO PUSH2 0x7D2 JUMPI PUSH2 0x6C8 DUP2 PUSH1 0x0 JUMPDEST PUSH1 0x0 PUSH2 0x184A DUP4 DUP4 PUSH2 0x311E JUMP JUMPDEST PUSH20 0x6B175474E89094C44DA98B954EEDEAC495271D0F SWAP1 JUMP JUMPDEST PUSH20 0x6AF07097C9EEB7FD685C692751D5C66DB49C215 SWAP1 JUMP JUMPDEST PUSH1 0x0 DUP1 PUSH2 0x2BB9 PUSH2 0x2B96 JUMP JUMPDEST PUSH1 0x1 PUSH1 0x1 PUSH1 0xA0 SHL SUB AND PUSH4 0x4BA2363A PUSH1 0x40 MLOAD DUP2 PUSH4 0xFFFFFFFF AND PUSH1 0xE0 SHL DUP2 MSTORE PUSH1 0x4 ADD PUSH1 0x20 PUSH1 0x40 MLOAD DUP1 DUP4 SUB DUP2 PUSH1 0x0 DUP8 DUP1 EXTCODESIZE ISZERO DUP1 ISZERO PUSH2 0x2BF3 JUMPI PUSH1 0x0 DUP1 REVERT JUMPDEST POP GAS CALL ISZERO DUP1 ISZERO PUSH2 0x2C07 JUMPI RETURNDATASIZE PUSH1 0x0 DUP1 RETURNDATACOPY RETURNDATASIZE PUSH1 0x0 REVERT JUMPDEST POP POP POP POP PUSH1 0x40 MLOAD RETURNDATASIZE PUSH1 0x1F NOT PUSH1 0x1F DUP3 ADD AND DUP3 ADD DUP1 PUSH1 0x40 MSTORE POP PUSH2 0x2C2B SWAP2 SWAP1 DUP2 ADD SWAP1 PUSH2 0x4311 JUMP JUMPDEST SWAP1 POP PUSH1 0x0 DUP2 PUSH1 0x1 PUSH1 0x1 PUSH1 0xA0 SHL SUB AND PUSH4 0x20ABA08B PUSH1 0x40 MLOAD DUP2 PUSH4 0xFFFFFFFF AND PUSH1 0xE0 SHL DUP2 MSTORE PUSH1 0x4 ADD PUSH1 0x20 PUSH1 0x40 MLOAD DUP1 DUP4 SUB DUP2 PUSH1 0x0 DUP8 DUP1 EXTCODESIZE ISZERO DUP1 ISZERO PUSH2 0x2C6A JUMPI PUSH1 0x0 DUP1 REVERT JUMPDEST POP GAS CALL ISZERO DUP1 ISZERO PUSH2 0x2C7E JUMPI RETURNDATASIZE PUSH1 0x0 DUP1 RETURNDATACOPY RETURNDATASIZE PUSH1 0x0 REVERT JUMPDEST POP POP POP POP PUSH1 0x40 MLOAD RETURNDATASIZE PUSH1 0x1F NOT PUSH1 0x1F DUP3 ADD AND DUP3 ADD DUP1 PUSH1 0x40 MSTORE POP PUSH2 0x2CA2 SWAP2 SWAP1 DUP2 ADD SWAP1 PUSH2 0x4641 JUMP JUMPDEST TIMESTAMP GT PUSH2 0x2D20 JUMPI DUP2 PUSH1 0x1 PUSH1 0x1 PUSH1 0xA0 SHL SUB AND PUSH4 0xC92AECC4 PUSH1 0x40 MLOAD DUP2 PUSH4 0xFFFFFFFF AND PUSH1 0xE0 SHL DUP2 MSTORE PUSH1 0x4 ADD PUSH1 0x20 PUSH1 0x40 MLOAD DUP1 DUP4 SUB DUP2 PUSH1 0x0 DUP8 DUP1 EXTCODESIZE ISZERO DUP1 ISZERO PUSH2 0x2CE3 JUMPI PUSH1 0x0 DUP1 REVERT JUMPDEST POP GAS CALL ISZERO DUP1 ISZERO PUSH2 0x2CF7 JUMPI RETURNDATASIZE PUSH1 0x0 DUP1 RETURNDATACOPY RETURNDATASIZE PUSH1 0x0 REVERT JUMPDEST POP POP POP POP PUSH1 0x40 MLOAD RETURNDATASIZE PUSH1 0x1F NOT PUSH1 0x1F DUP3 ADD AND DUP3 ADD DUP1 PUSH1 0x40 MSTORE POP PUSH2 0x2D1B SWAP2 SWAP1 DUP2 ADD SWAP1 PUSH2 0x4641 JUMP JUMPDEST PUSH2 0x2D93 JUMP JUMPDEST DUP2 PUSH1 0x1 PUSH1 0x1 PUSH1 0xA0 SHL SUB AND PUSH4 0x9F678CCA PUSH1 0x40 MLOAD DUP2 PUSH4 0xFFFFFFFF AND PUSH1 0xE0 SHL DUP2 MSTORE PUSH1 0x4 ADD PUSH1 0x20 PUSH1 0x40 MLOAD DUP1 DUP4 SUB DUP2 PUSH1 0x0 DUP8 DUP1 EXTCODESIZE ISZERO DUP1 ISZERO PUSH2 0x2D5B JUMPI PUSH1 0x0 DUP1 REVERT JUMPDEST POP GAS CALL ISZERO DUP1 ISZERO PUSH2 0x2D6F JUMPI RETURNDATASIZE PUSH1 0x0 DUP1 RETURNDATACOPY RETURNDATASIZE PUSH1 0x0 REVERT JUMPDEST POP POP POP POP PUSH1 0x40 MLOAD RETURNDATASIZE PUSH1 0x1F NOT PUSH1 0x1F DUP3 ADD AND DUP3 ADD DUP1 PUSH1 0x40 MSTORE POP PUSH2 0x2D93 SWAP2 SWAP1 DUP2 ADD SWAP1 PUSH2 0x4641 JUMP JUMPDEST SWAP1 POP PUSH2 0x934 DUP2 PUSH12 0x33B2E3C9FD0803CE8000000 DUP7 PUSH2 0x2F4A JUMP JUMPDEST PUSH1 0x0 PUSH2 0x184A DUP3 PUSH2 0x2A09 DUP6 PUSH2 0x3148 JUMP JUMPDEST PUSH1 0x40 MLOAD PUSH1 0x0 SWAP1 DUP2 SWAP1 PUSH1 0x60 SWAP1 PUSH1 0x1 PUSH1 0x1 PUSH1 0xA0 SHL SUB DUP8 AND SWAP1 PUSH32 0xDD62ED3E00000000000000000000000000000000000000000000000000000000 SWAP1 PUSH2 0x2E03 SWAP1 DUP9 SWAP1 DUP9 SWAP1 PUSH1 0x24 ADD PUSH2 0x489C JUMP JUMPDEST PUSH1 0x40 DUP1 MLOAD PUSH1 0x1F NOT DUP2 DUP5 SUB ADD DUP2 MSTORE SWAP2 DUP2 MSTORE PUSH1 0x20 DUP3 ADD DUP1 MLOAD PUSH28 0xFFFFFFFFFFFFFFFFFFFFFFFFFFFFFFFFFFFFFFFFFFFFFFFFFFFFFFFF AND PUSH1 0x1 PUSH1 0x1 PUSH1 0xE0 SHL SUB NOT SWAP1 SWAP5 AND SWAP4 SWAP1 SWAP4 OR SWAP1 SWAP3 MSTORE SWAP1 MLOAD PUSH2 0x2E56 SWAP2 SWAP1 PUSH2 0x486C JUMP JUMPDEST PUSH1 0x0 PUSH1 0x40 MLOAD DUP1 DUP4 SUB DUP2 DUP6 GAS STATICCALL SWAP2 POP POP RETURNDATASIZE DUP1 PUSH1 0x0 DUP2 EQ PUSH2 0x2E91 JUMPI PUSH1 0x40 MLOAD SWAP2 POP PUSH1 0x1F NOT PUSH1 0x3F RETURNDATASIZE ADD AND DUP3 ADD PUSH1 0x40 MSTORE RETURNDATASIZE DUP3 MSTORE RETURNDATASIZE PUSH1 0x0 PUSH1 0x20 DUP5 ADD RETURNDATACOPY PUSH2 0x2E96 JUMP JUMPDEST PUSH1 0x60 SWAP2 POP JUMPDEST POP SWAP2 POP SWAP2 POP DUP2 DUP1 ISZERO PUSH2 0x2EA9 JUMPI POP DUP1 MLOAD PUSH1 0x20 EQ JUMPDEST ISZERO PUSH2 0x2EBC JUMPI PUSH2 0x2EB9 DUP2 PUSH1 0x0 PUSH2 0x2B72 JUMP JUMPDEST SWAP3 POP JUMPDEST POP POP SWAP4 SWAP3 POP POP POP JUMP JUMPDEST PUSH20 0x1E0447B19BB6ECFDAE1E4AE1694B0C3659614E4E SWAP1 JUMP JUMPDEST PUSH1 0x0 DUP1 PUSH1 0x0 PUSH2 0x2EEB DUP5 PUSH2 0x3201 JUMP JUMPDEST SWAP2 POP SWAP2 POP PUSH2 0x2EF9 DUP3 DUP3 PUSH2 0x298D JUMP JUMPDEST SWAP3 POP PUSH2 0x934 DUP4 DUP6 PUSH1 0x80 ADD MLOAD PUSH2 0x298D JUMP JUMPDEST PUSH1 0x0 DUP2 MLOAD DUP4 MLOAD EQ DUP1 ISZERO PUSH2 0x184A JUMPI POP POP DUP1 MLOAD PUSH1 0x20 SWAP2 DUP3 ADD KECCAK256 DUP3 MLOAD SWAP3 SWAP1 SWAP2 ADD SWAP2 SWAP1 SWAP2 KECCAK256 EQ SWAP1 JUMP JUMPDEST PUSH1 0x0 DUP3 DUP3 ADD DUP4 DUP2 LT ISZERO PUSH2 0x184A JUMPI PUSH2 0x184A PUSH2 0x2A2F PUSH1 0x0 DUP7 DUP7 PUSH2 0x3414 JUMP JUMPDEST PUSH1 0x0 PUSH2 0x934 DUP4 PUSH2 0x2F60 DUP7 DUP6 PUSH4 0xFFFFFFFF PUSH2 0x3433 AND JUMP JUMPDEST SWAP1 PUSH4 0xFFFFFFFF PUSH2 0x3464 AND JUMP JUMPDEST PUSH1 0x0 DUP3 DUP3 GT ISZERO PUSH2 0x2F85 JUMPI PUSH2 0x2F85 PUSH2 0x2A2F PUSH1 0x2 DUP6 DUP6 PUSH2 0x3414 JUMP JUMPDEST POP SWAP1 SUB SWAP1 JUMP JUMPDEST PUSH1 0x0 PUSH2 0x2F9B DUP3 PUSH2 0x140 ADD MLOAD PUSH2 0x348E JUMP JUMPDEST DUP1 ISZERO PUSH2 0x2FBC JUMPI POP PUSH1 0xC0 DUP3 ADD MLOAD ISZERO DUP1 PUSH2 0x2FBC JUMPI POP PUSH2 0x2FBC DUP3 PUSH2 0x180 ADD MLOAD PUSH2 0x348E JUMP JUMPDEST DUP1 ISZERO PUSH2 0x2FD1 JUMPI POP PUSH2 0x2FD1 DUP3 PUSH2 0x160 ADD MLOAD PUSH2 0x348E JUMP JUMPDEST DUP1 ISZERO PUSH2 0x881 JUMPI POP PUSH1 0xE0 DUP3 ADD MLOAD ISZERO DUP1 PUSH2 0x881 JUMPI POP PUSH2 0x881 DUP3 PUSH2 0x1A0 ADD MLOAD PUSH2 0x348E JUMP JUMPDEST PUSH1 0x80 DUP2 DUP2 ADD MLOAD DUP3 MLOAD PUSH1 0x20 DUP1 DUP6 ADD MLOAD PUSH1 0x40 DUP1 DUP8 ADD MLOAD PUSH1 0x60 SWAP8 DUP9 ADD MLOAD DUP7 MLOAD SWAP7 DUP6 ADD SWAP7 SWAP1 SWAP7 KECCAK256 DUP3 MLOAD PUSH32 0xEC69816980A3A3CA4554410E60253953E9FF375BA4536A98ADFA15CC71541508 DUP2 MSTORE SWAP5 DUP6 ADD SWAP6 SWAP1 SWAP6 MSTORE SWAP1 DUP4 ADD SWAP2 SWAP1 SWAP2 MSTORE SWAP5 DUP2 ADD SWAP5 SWAP1 SWAP5 MSTORE PUSH1 0x1 PUSH1 0x1 PUSH1 0xA0 SHL SUB SWAP1 SWAP2 AND SWAP2 DUP4 ADD SWAP2 SWAP1 SWAP2 MSTORE PUSH1 0xA0 DUP3 ADD MSTORE PUSH1 0xC0 SWAP1 KECCAK256 SWAP1 JUMP JUMPDEST PUSH1 0x40 MLOAD PUSH32 0x1901000000000000000000000000000000000000000000000000000000000000 DUP2 MSTORE PUSH1 0x2 DUP2 ADD SWAP3 SWAP1 SWAP3 MSTORE PUSH1 0x22 DUP3 ADD MSTORE PUSH1 0x42 SWAP1 KECCAK256 SWAP1 JUMP JUMPDEST PUSH1 0x60 PUSH4 0x28006595 PUSH1 0xE0 SHL DUP5 DUP5 DUP5 PUSH1 0x40 MLOAD PUSH1 0x24 ADD PUSH2 0x30C6 SWAP4 SWAP3 SWAP2 SWAP1 PUSH2 0x4DF7 JUMP JUMPDEST PUSH1 0x40 DUP1 MLOAD PUSH1 0x1F NOT DUP2 DUP5 SUB ADD DUP2 MSTORE SWAP2 SWAP1 MSTORE PUSH1 0x20 DUP2 ADD DUP1 MLOAD PUSH28 0xFFFFFFFFFFFFFFFFFFFFFFFFFFFFFFFFFFFFFFFFFFFFFFFFFFFFFFFF AND PUSH1 0x1 PUSH1 0x1 PUSH1 0xE0 SHL SUB NOT SWAP1 SWAP4 AND SWAP3 SWAP1 SWAP3 OR SWAP1 SWAP2 MSTORE SWAP1 POP SWAP4 SWAP3 POP POP POP JUMP JUMPDEST DUP1 MLOAD PUSH1 0x20 DUP3 ADD REVERT JUMPDEST PUSH1 0x0 DUP2 PUSH1 0x20 ADD DUP4 MLOAD LT ISZERO PUSH2 0x313F JUMPI PUSH2 0x313F PUSH2 0x2A2F PUSH1 0x5 DUP6 MLOAD DUP6 PUSH1 0x20 ADD PUSH2 0x30A7 JUMP JUMPDEST POP ADD PUSH1 0x20 ADD MLOAD SWAP1 JUMP JUMPDEST PUSH2 0x140 DUP2 ADD MLOAD PUSH2 0x160 DUP3 ADD MLOAD PUSH2 0x180 DUP4 ADD MLOAD PUSH2 0x1A0 DUP5 ADD MLOAD PUSH1 0x0 SWAP4 PUSH32 0xF80322EB8376AAFB64EADF8F0D7623F22130FD9491A221E902B713CB984A7534 SWAP4 SWAP1 SWAP3 SWAP1 SWAP2 PUSH1 0x20 DUP8 LT ISZERO PUSH2 0x3194 JUMPI INVALID JUMPDEST PUSH1 0x1F NOT DUP8 ADD DUP1 MLOAD PUSH2 0x140 DUP10 ADD DUP1 MLOAD PUSH2 0x160 DUP12 ADD DUP1 MLOAD PUSH2 0x180 DUP14 ADD DUP1 MLOAD PUSH2 0x1A0 DUP16 ADD DUP1 MLOAD SWAP14 DUP10 MSTORE DUP13 MLOAD PUSH1 0x20 SWAP14 DUP15 ADD KECCAK256 DUP8 MSTORE DUP12 MLOAD SWAP12 DUP14 ADD SWAP12 SWAP1 SWAP12 KECCAK256 DUP5 MSTORE DUP10 MLOAD SWAP10 DUP13 ADD SWAP10 SWAP1 SWAP10 KECCAK256 DUP2 MSTORE DUP8 MLOAD SWAP8 SWAP1 SWAP11 ADD SWAP7 SWAP1 SWAP7 KECCAK256 DUP9 MSTORE PUSH2 0x1E0 DUP6 KECCAK256 SWAP4 SWAP1 SWAP5 MSTORE SWAP1 MSTORE SWAP2 SWAP1 MSTORE SWAP3 MSTORE SWAP2 SWAP1 SWAP2 MSTORE SWAP1 POP SWAP2 SWAP1 POP JUMP JUMPDEST PUSH1 0x0 DUP1 PUSH1 0x4 DUP4 PUSH2 0x140 ADD MLOAD MLOAD LT ISZERO PUSH2 0x321E JUMPI POP PUSH1 0x0 SWAP1 POP DUP1 PUSH2 0x1525 JUMP JUMPDEST PUSH2 0x140 DUP4 ADD MLOAD PUSH1 0x0 SWAP1 PUSH2 0x3237 SWAP1 DUP3 PUSH4 0xFFFFFFFF PUSH2 0x2A0E AND JUMP JUMPDEST SWAP1 POP PUSH1 0x1 PUSH1 0x1 PUSH1 0xE0 SHL SUB NOT DUP2 AND PUSH32 0xDC1600F300000000000000000000000000000000000000000000000000000000 EQ ISZERO PUSH2 0x33E4 JUMPI PUSH2 0x140 DUP5 ADD MLOAD PUSH1 0x40 MLOAD PUSH32 0x750BDB3000000000000000000000000000000000000000000000000000000000 DUP2 MSTORE PUSH1 0x0 SWAP2 PUSH20 0x0 SWAP2 PUSH4 0x750BDB30 SWAP2 PUSH2 0x32C2 SWAP2 PUSH1 0x4 ADD PUSH2 0x4D84 JUMP JUMPDEST PUSH1 0x0 PUSH1 0x40 MLOAD DUP1 DUP4 SUB DUP2 DUP7 DUP1 EXTCODESIZE ISZERO DUP1 ISZERO PUSH2 0x32DA JUMPI PUSH1 0x0 DUP1 REVERT JUMPDEST POP GAS DELEGATECALL ISZERO DUP1 ISZERO PUSH2 0x32EE JUMPI RETURNDATASIZE PUSH1 0x0 DUP1 RETURNDATACOPY RETURNDATASIZE PUSH1 0x0 REVERT JUMPDEST POP POP POP POP PUSH1 0x40 MLOAD RETURNDATASIZE PUSH1 0x0 DUP3 RETURNDATACOPY PUSH1 0x1F RETURNDATASIZE SWAP1 DUP2 ADD PUSH1 0x1F NOT AND DUP3 ADD PUSH1 0x40 MSTORE PUSH2 0x3316 SWAP2 SWAP1 DUP2 ADD SWAP1 PUSH2 0x4085 JUMP JUMPDEST POP PUSH1 0x6 SLOAD SWAP1 SWAP4 POP PUSH1 0x1 PUSH1 0x1 PUSH1 0xA0 SHL SUB DUP1 DUP6 AND SWAP2 AND EQ ISZERO SWAP2 POP PUSH2 0x33E2 SWAP1 POP JUMPI PUSH20 0x0 PUSH4 0xD12A7960 DUP7 PUSH2 0x3357 PUSH2 0x2EC5 JUMP JUMPDEST PUSH1 0x40 MLOAD DUP4 PUSH4 0xFFFFFFFF AND PUSH1 0xE0 SHL DUP2 MSTORE PUSH1 0x4 ADD PUSH2 0x3374 SWAP3 SWAP2 SWAP1 PUSH2 0x4EDD JUMP JUMPDEST PUSH1 0x20 PUSH1 0x40 MLOAD DUP1 DUP4 SUB DUP2 DUP7 DUP1 EXTCODESIZE ISZERO DUP1 ISZERO PUSH2 0x338C JUMPI PUSH1 0x0 DUP1 REVERT JUMPDEST POP GAS DELEGATECALL ISZERO DUP1 ISZERO PUSH2 0x33A0 JUMPI RETURNDATASIZE PUSH1 0x0 DUP1 RETURNDATACOPY RETURNDATASIZE PUSH1 0x0 REVERT JUMPDEST POP POP POP POP PUSH1 0x40 MLOAD RETURNDATASIZE PUSH1 0x1F NOT PUSH1 0x1F DUP3 ADD AND DUP3 ADD DUP1 PUSH1 0x40 MSTORE POP PUSH2 0x33C4 SWAP2 SWAP1 DUP2 ADD SWAP1 PUSH2 0x4641 JUMP JUMPDEST PUSH2 0x33D7 DUP7 PUSH1 0x0 ADD MLOAD DUP8 PUSH2 0x140 ADD MLOAD PUSH2 0x1ABB JUMP JUMPDEST SWAP4 POP SWAP4 POP POP POP PUSH2 0x1525 JUMP JUMPDEST POP JUMPDEST PUSH2 0x33F7 DUP5 PUSH1 0x0 ADD MLOAD DUP6 PUSH2 0x140 ADD MLOAD PUSH2 0xBA1 JUMP JUMPDEST PUSH2 0x340A DUP6 PUSH1 0x0 ADD MLOAD DUP7 PUSH2 0x140 ADD MLOAD PUSH2 0x1ABB JUMP JUMPDEST SWAP3 POP SWAP3 POP POP SWAP2 POP SWAP2 JUMP JUMPDEST PUSH1 0x60 PUSH4 0xE946C1BB PUSH1 0xE0 SHL DUP5 DUP5 DUP5 PUSH1 0x40 MLOAD PUSH1 0x24 ADD PUSH2 0x30C6 SWAP4 SWAP3 SWAP2 SWAP1 PUSH2 0x4DD5 JUMP JUMPDEST PUSH1 0x0 DUP3 PUSH2 0x3442 JUMPI POP PUSH1 0x0 PUSH2 0x6CD JUMP JUMPDEST DUP3 DUP3 MUL DUP3 DUP5 DUP3 DUP2 PUSH2 0x344F JUMPI INVALID JUMPDEST DIV EQ PUSH2 0x184A JUMPI PUSH2 0x184A PUSH2 0x2A2F PUSH1 0x1 DUP7 DUP7 PUSH2 0x3414 JUMP JUMPDEST PUSH1 0x0 DUP2 PUSH2 0x347A JUMPI PUSH2 0x347A PUSH2 0x2A2F PUSH1 0x3 DUP6 DUP6 PUSH2 0x3414 JUMP JUMPDEST PUSH1 0x0 DUP3 DUP5 DUP2 PUSH2 0x3485 JUMPI INVALID JUMPDEST DIV SWAP5 SWAP4 POP POP POP POP JUMP JUMPDEST PUSH1 0x0 PUSH1 0x20 DUP3 MLOAD DUP2 PUSH2 0x349B JUMPI INVALID JUMPDEST MOD PUSH1 0x4 EQ PUSH2 0x34AB JUMPI POP PUSH1 0x0 PUSH2 0x884 JUMP JUMPDEST PUSH1 0x0 PUSH2 0x34BD DUP4 DUP3 PUSH4 0xFFFFFFFF PUSH2 0x2A0E AND JUMP JUMPDEST SWAP1 POP PUSH1 0x1 PUSH1 0x1 PUSH1 0xE0 SHL SUB NOT DUP2 AND PUSH32 0x94CFCDD700000000000000000000000000000000000000000000000000000000 EQ PUSH2 0x34FA JUMPI PUSH1 0x1 SWAP2 POP POP PUSH2 0x884 JUMP JUMPDEST PUSH1 0x40 MLOAD PUSH32 0xBBB2DCF600000000000000000000000000000000000000000000000000000000 DUP2 MSTORE PUSH1 0x60 SWAP1 PUSH20 0x0 SWAP1 PUSH4 0xBBB2DCF6 SWAP1 PUSH2 0x354D SWAP1 DUP8 SWAP1 PUSH1 0x4 ADD PUSH2 0x4D84 JUMP JUMPDEST PUSH1 0x0 PUSH1 0x40 MLOAD DUP1 DUP4 SUB DUP2 DUP7 DUP1 EXTCODESIZE ISZERO DUP1 ISZERO PUSH2 0x3565 JUMPI PUSH1 0x0 DUP1 REVERT JUMPDEST POP GAS DELEGATECALL ISZERO DUP1 ISZERO PUSH2 0x3579 JUMPI RETURNDATASIZE PUSH1 0x0 DUP1 RETURNDATACOPY RETURNDATASIZE PUSH1 0x0 REVERT JUMPDEST POP POP POP POP PUSH1 0x40 MLOAD RETURNDATASIZE PUSH1 0x0 DUP3 RETURNDATACOPY PUSH1 0x1F RETURNDATASIZE SWAP1 DUP2 ADD PUSH1 0x1F NOT AND DUP3 ADD PUSH1 0x40 MSTORE PUSH2 0x35A1 SWAP2 SWAP1 DUP2 ADD SWAP1 PUSH2 0x4241 JUMP JUMPDEST DUP1 MLOAD SWAP1 SWAP4 POP SWAP2 POP PUSH1 0x0 SWAP1 POP JUMPDEST DUP2 DUP2 EQ PUSH2 0x3637 JUMPI PUSH1 0x0 PUSH2 0x35DD PUSH1 0x0 DUP6 DUP5 DUP2 MLOAD DUP2 LT PUSH2 0x35C7 JUMPI INVALID JUMPDEST PUSH1 0x20 MUL PUSH1 0x20 ADD ADD MLOAD PUSH2 0x2A0E SWAP1 SWAP2 SWAP1 PUSH4 0xFFFFFFFF AND JUMP JUMPDEST SWAP1 POP PUSH1 0x1 PUSH1 0x1 PUSH1 0xE0 SHL SUB NOT DUP2 AND PUSH32 0x257179200000000000000000000000000000000000000000000000000000000 EQ ISZERO PUSH2 0x362E JUMPI PUSH2 0x361B DUP5 DUP4 PUSH2 0x3643 JUMP JUMPDEST ISZERO PUSH2 0x362E JUMPI PUSH1 0x0 SWAP6 POP POP POP POP POP POP PUSH2 0x884 JUMP JUMPDEST POP PUSH1 0x1 ADD PUSH2 0x35AD JUMP JUMPDEST POP PUSH1 0x1 SWAP6 SWAP5 POP POP POP POP POP JUMP JUMPDEST DUP2 MLOAD PUSH1 0x0 SWAP1 PUSH1 0x1 DUP4 ADD JUMPDEST DUP2 DUP2 LT ISZERO PUSH2 0x7D2 JUMPI PUSH2 0x368E DUP6 DUP3 DUP2 MLOAD DUP2 LT PUSH2 0x3664 JUMPI INVALID JUMPDEST PUSH1 0x20 MUL PUSH1 0x20 ADD ADD MLOAD DUP7 DUP7 DUP2 MLOAD DUP2 LT PUSH2 0x3678 JUMPI INVALID JUMPDEST PUSH1 0x20 MUL PUSH1 0x20 ADD ADD MLOAD PUSH2 0x2F09 SWAP1 SWAP2 SWAP1 PUSH4 0xFFFFFFFF AND JUMP JUMPDEST ISZERO PUSH2 0x369E JUMPI PUSH1 0x1 SWAP3 POP POP POP PUSH2 0x6CD JUMP JUMPDEST PUSH1 0x1 ADD PUSH2 0x364D JUMP JUMPDEST PUSH1 0x40 DUP1 MLOAD PUSH1 0x60 DUP2 ADD SWAP1 SWAP2 MSTORE DUP1 PUSH1 0x0 DUP2 MSTORE PUSH1 0x0 PUSH1 0x20 DUP3 ADD DUP2 SWAP1 MSTORE PUSH1 0x40 SWAP1 SWAP2 ADD MSTORE SWAP1 JUMP JUMPDEST DUP1 CALLDATALOAD PUSH2 0x6CD DUP2 PUSH2 0x4FD6 JUMP JUMPDEST DUP1 MLOAD PUSH2 0x6CD DUP2 PUSH2 0x4FD6 JUMP JUMPDEST PUSH1 0x0 DUP3 PUSH1 0x1F DUP4 ADD SLT PUSH2 0x36EE JUMPI DUP1 DUP2 REVERT JUMPDEST DUP2 CALLDATALOAD PUSH2 0x3701 PUSH2 0x36FC DUP3 PUSH2 0x4F62 JUMP JUMPDEST PUSH2 0x4F3B JUMP JUMPDEST DUP2 DUP2 MSTORE SWAP2 POP PUSH1 0x20 DUP1 DUP4 ADD SWAP1 DUP5 DUP2 ADD DUP2 DUP5 MUL DUP7 ADD DUP3 ADD DUP8 LT ISZERO PUSH2 0x3722 JUMPI PUSH1 0x0 DUP1 REVERT JUMPDEST PUSH1 0x0 JUMPDEST DUP5 DUP2 LT ISZERO PUSH2 0x148B JUMPI DUP2 CALLDATALOAD PUSH2 0x3738 DUP2 PUSH2 0x4FD6 JUMP JUMPDEST DUP5 MSTORE SWAP3 DUP3 ADD SWAP3 SWAP1 DUP3 ADD SWAP1 PUSH1 0x1 ADD PUSH2 0x3725 JUMP JUMPDEST PUSH1 0x0 DUP3 PUSH1 0x1F DUP4 ADD SLT PUSH2 0x375A JUMPI DUP1 DUP2 REVERT JUMPDEST DUP2 CALLDATALOAD PUSH2 0x3768 PUSH2 0x36FC DUP3 PUSH2 0x4F62 JUMP JUMPDEST DUP2 DUP2 MSTORE SWAP2 POP PUSH1 0x20 DUP1 DUP4 ADD SWAP1 DUP5 ADD PUSH1 0x0 JUMPDEST DUP4 DUP2 LT ISZERO PUSH2 0x37A5 JUMPI PUSH2 0x3790 DUP8 PUSH1 0x20 DUP5 CALLDATALOAD DUP10 ADD ADD PUSH2 0x3939 JUMP JUMPDEST DUP4 MSTORE PUSH1 0x20 SWAP3 DUP4 ADD SWAP3 SWAP2 SWAP1 SWAP2 ADD SWAP1 PUSH1 0x1 ADD PUSH2 0x3778 JUMP JUMPDEST POP POP POP POP SWAP3 SWAP2 POP POP JUMP JUMPDEST PUSH1 0x0 DUP3 PUSH1 0x1F DUP4 ADD SLT PUSH2 0x37BF JUMPI DUP1 DUP2 REVERT JUMPDEST DUP2 MLOAD PUSH2 0x37CD PUSH2 0x36FC DUP3 PUSH2 0x4F62 JUMP JUMPDEST DUP2 DUP2 MSTORE SWAP2 POP PUSH1 0x20 DUP1 DUP4 ADD SWAP1 DUP5 ADD PUSH1 0x0 JUMPDEST DUP4 DUP2 LT ISZERO PUSH2 0x37A5 JUMPI PUSH2 0x37F5 DUP8 PUSH1 0x20 DUP5 MLOAD DUP10 ADD ADD PUSH2 0x3987 JUMP JUMPDEST DUP4 MSTORE PUSH1 0x20 SWAP3 DUP4 ADD SWAP3 SWAP2 SWAP1 SWAP2 ADD SWAP1 PUSH1 0x1 ADD PUSH2 0x37DD JUMP JUMPDEST PUSH1 0x0 DUP3 PUSH1 0x1F DUP4 ADD SLT PUSH2 0x381A JUMPI DUP1 DUP2 REVERT JUMPDEST DUP2 CALLDATALOAD PUSH2 0x3828 PUSH2 0x36FC DUP3 PUSH2 0x4F62 JUMP JUMPDEST DUP2 DUP2 MSTORE SWAP2 POP PUSH1 0x20 DUP1 DUP4 ADD SWAP1 DUP5 ADD PUSH1 0x0 JUMPDEST DUP4 DUP2 LT ISZERO PUSH2 0x37A5 JUMPI PUSH2 0x3850 DUP8 PUSH1 0x20 DUP5 CALLDATALOAD DUP10 ADD ADD PUSH2 0x39DC JUMP JUMPDEST DUP4 MSTORE PUSH1 0x20 SWAP3 DUP4 ADD SWAP3 SWAP2 SWAP1 SWAP2 ADD SWAP1 PUSH1 0x1 ADD PUSH2 0x3838 JUMP JUMPDEST PUSH1 0x0 DUP3 PUSH1 0x1F DUP4 ADD SLT PUSH2 0x3875 JUMPI DUP1 DUP2 REVERT JUMPDEST DUP2 CALLDATALOAD PUSH2 0x3883 PUSH2 0x36FC DUP3 PUSH2 0x4F62 JUMP JUMPDEST DUP2 DUP2 MSTORE SWAP2 POP PUSH1 0x20 DUP1 DUP4 ADD SWAP1 DUP5 DUP2 ADD DUP2 DUP5 MUL DUP7 ADD DUP3 ADD DUP8 LT ISZERO PUSH2 0x38A4 JUMPI PUSH1 0x0 DUP1 REVERT JUMPDEST PUSH1 0x0 JUMPDEST DUP5 DUP2 LT ISZERO PUSH2 0x148B JUMPI DUP2 CALLDATALOAD DUP5 MSTORE SWAP3 DUP3 ADD SWAP3 SWAP1 DUP3 ADD SWAP1 PUSH1 0x1 ADD PUSH2 0x38A7 JUMP JUMPDEST PUSH1 0x0 DUP3 PUSH1 0x1F DUP4 ADD SLT PUSH2 0x38D3 JUMPI DUP1 DUP2 REVERT JUMPDEST DUP2 MLOAD PUSH2 0x38E1 PUSH2 0x36FC DUP3 PUSH2 0x4F62 JUMP JUMPDEST DUP2 DUP2 MSTORE SWAP2 POP PUSH1 0x20 DUP1 DUP4 ADD SWAP1 DUP5 DUP2 ADD DUP2 DUP5 MUL DUP7 ADD DUP3 ADD DUP8 LT ISZERO PUSH2 0x3902 JUMPI PUSH1 0x0 DUP1 REVERT JUMPDEST PUSH1 0x0 JUMPDEST DUP5 DUP2 LT ISZERO PUSH2 0x148B JUMPI DUP2 MLOAD DUP5 MSTORE SWAP3 DUP3 ADD SWAP3 SWAP1 DUP3 ADD SWAP1 PUSH1 0x1 ADD PUSH2 0x3905 JUMP JUMPDEST DUP1 MLOAD PUSH1 0x1 PUSH1 0x1 PUSH1 0xE0 SHL SUB NOT DUP2 AND DUP2 EQ PUSH2 0x6CD JUMPI PUSH1 0x0 DUP1 REVERT JUMPDEST PUSH1 0x0 DUP3 PUSH1 0x1F DUP4 ADD SLT PUSH2 0x3949 JUMPI DUP1 DUP2 REVERT JUMPDEST DUP2 CALLDATALOAD PUSH2 0x3957 PUSH2 0x36FC DUP3 PUSH2 0x4F82 JUMP JUMPDEST SWAP2 POP DUP1 DUP3 MSTORE DUP4 PUSH1 0x20 DUP3 DUP6 ADD ADD GT ISZERO PUSH2 0x396E JUMPI PUSH1 0x0 DUP1 REVERT JUMPDEST DUP1 PUSH1 0x20 DUP5 ADD PUSH1 0x20 DUP5 ADD CALLDATACOPY PUSH1 0x0 SWAP1 DUP3 ADD PUSH1 0x20 ADD MSTORE SWAP3 SWAP2 POP POP JUMP JUMPDEST PUSH1 0x0 DUP3 PUSH1 0x1F DUP4 ADD SLT PUSH2 0x3997 JUMPI DUP1 DUP2 REVERT JUMPDEST DUP2 MLOAD PUSH2 0x39A5 PUSH2 0x36FC DUP3 PUSH2 0x4F82 JUMP JUMPDEST SWAP2 POP DUP1 DUP3 MSTORE DUP4 PUSH1 0x20 DUP3 DUP6 ADD ADD GT ISZERO PUSH2 0x39BC JUMPI PUSH1 0x0 DUP1 REVERT JUMPDEST PUSH2 0x1490 DUP2 PUSH1 0x20 DUP5 ADD PUSH1 0x20 DUP7 ADD PUSH2 0x4FA6 JUMP JUMPDEST DUP1 MLOAD PUSH1 0x5 DUP2 LT PUSH2 0x6CD JUMPI PUSH1 0x0 DUP1 REVERT JUMPDEST PUSH1 0x0 PUSH2 0x1C0 DUP1 DUP4 DUP6 SUB SLT ISZERO PUSH2 0x39EF JUMPI DUP2 DUP3 REVERT JUMPDEST PUSH2 0x39F8 DUP2 PUSH2 0x4F3B JUMP JUMPDEST SWAP2 POP POP PUSH2 0x3A05 DUP4 DUP4 PUSH2 0x36C8 JUMP JUMPDEST DUP2 MSTORE PUSH2 0x3A14 DUP4 PUSH1 0x20 DUP5 ADD PUSH2 0x36C8 JUMP JUMPDEST PUSH1 0x20 DUP3 ADD MSTORE PUSH2 0x3A26 DUP4 PUSH1 0x40 DUP5 ADD PUSH2 0x36C8 JUMP JUMPDEST PUSH1 0x40 DUP3 ADD MSTORE PUSH2 0x3A38 DUP4 PUSH1 0x60 DUP5 ADD PUSH2 0x36C8 JUMP JUMPDEST PUSH1 0x60 DUP3 ADD MSTORE PUSH1 0x80 DUP3 ADD CALLDATALOAD PUSH1 0x80 DUP3 ADD MSTORE PUSH1 0xA0 DUP3 ADD CALLDATALOAD PUSH1 0xA0 DUP3 ADD MSTORE PUSH1 0xC0 DUP3 ADD CALLDATALOAD PUSH1 0xC0 DUP3 ADD MSTORE PUSH1 0xE0 DUP3 ADD CALLDATALOAD PUSH1 0xE0 DUP3 ADD MSTORE PUSH2 0x100 DUP1 DUP4 ADD CALLDATALOAD DUP2 DUP4 ADD MSTORE POP PUSH2 0x120 DUP1 DUP4 ADD CALLDATALOAD DUP2 DUP4 ADD MSTORE POP PUSH2 0x140 DUP1 DUP4 ADD CALLDATALOAD PUSH8 0xFFFFFFFFFFFFFFFF DUP1 DUP3 GT ISZERO PUSH2 0x3A9A JUMPI PUSH1 0x0 DUP1 REVERT JUMPDEST PUSH2 0x3AA6 DUP7 DUP4 DUP8 ADD PUSH2 0x3939 JUMP JUMPDEST DUP4 DUP6 ADD MSTORE PUSH2 0x160 SWAP3 POP DUP3 DUP6 ADD CALLDATALOAD SWAP2 POP DUP1 DUP3 GT ISZERO PUSH2 0x3AC2 JUMPI PUSH1 0x0 DUP1 REVERT JUMPDEST PUSH2 0x3ACE DUP7 DUP4 DUP8 ADD PUSH2 0x3939 JUMP JUMPDEST DUP4 DUP6 ADD MSTORE PUSH2 0x180 SWAP3 POP DUP3 DUP6 ADD CALLDATALOAD SWAP2 POP DUP1 DUP3 GT ISZERO PUSH2 0x3AEA JUMPI PUSH1 0x0 DUP1 REVERT JUMPDEST PUSH2 0x3AF6 DUP7 DUP4 DUP8 ADD PUSH2 0x3939 JUMP JUMPDEST DUP4 DUP6 ADD MSTORE PUSH2 0x1A0 SWAP3 POP DUP3 DUP6 ADD CALLDATALOAD SWAP2 POP DUP1 DUP3 GT ISZERO PUSH2 0x3B12 JUMPI PUSH1 0x0 DUP1 REVERT JUMPDEST POP PUSH2 0x3B1F DUP6 DUP3 DUP7 ADD PUSH2 0x3939 JUMP JUMPDEST DUP3 DUP5 ADD MSTORE POP POP SWAP3 SWAP2 POP POP JUMP JUMPDEST PUSH1 0x0 PUSH2 0x1C0 DUP1 DUP4 DUP6 SUB SLT ISZERO PUSH2 0x3B3E JUMPI DUP2 DUP3 REVERT JUMPDEST PUSH2 0x3B47 DUP2 PUSH2 0x4F3B JUMP JUMPDEST SWAP2 POP POP PUSH2 0x3B54 DUP4 DUP4 PUSH2 0x36D3 JUMP JUMPDEST DUP2 MSTORE PUSH2 0x3B63 DUP4 PUSH1 0x20 DUP5 ADD PUSH2 0x36D3 JUMP JUMPDEST PUSH1 0x20 DUP3 ADD MSTORE PUSH2 0x3B75 DUP4 PUSH1 0x40 DUP5 ADD PUSH2 0x36D3 JUMP JUMPDEST PUSH1 0x40 DUP3 ADD MSTORE PUSH2 0x3B87 DUP4 PUSH1 0x60 DUP5 ADD PUSH2 0x36D3 JUMP JUMPDEST PUSH1 0x60 DUP3 ADD MSTORE PUSH1 0x80 DUP3 ADD MLOAD PUSH1 0x80 DUP3 ADD MSTORE PUSH1 0xA0 DUP3 ADD MLOAD PUSH1 0xA0 DUP3 ADD MSTORE PUSH1 0xC0 DUP3 ADD MLOAD PUSH1 0xC0 DUP3 ADD MSTORE PUSH1 0xE0 DUP3 ADD MLOAD PUSH1 0xE0 DUP3 ADD MSTORE PUSH2 0x100 DUP1 DUP4 ADD MLOAD DUP2 DUP4 ADD MSTORE POP PUSH2 0x120 DUP1 DUP4 ADD MLOAD DUP2 DUP4 ADD MSTORE POP PUSH2 0x140 DUP1 DUP4 ADD MLOAD PUSH8 0xFFFFFFFFFFFFFFFF DUP1 DUP3 GT ISZERO PUSH2 0x3BE9 JUMPI PUSH1 0x0 DUP1 REVERT JUMPDEST PUSH2 0x3BF5 DUP7 DUP4 DUP8 ADD PUSH2 0x3987 JUMP JUMPDEST DUP4 DUP6 ADD MSTORE PUSH2 0x160 SWAP3 POP DUP3 DUP6 ADD MLOAD SWAP2 POP DUP1 DUP3 GT ISZERO PUSH2 0x3C11 JUMPI PUSH1 0x0 DUP1 REVERT JUMPDEST PUSH2 0x3C1D DUP7 DUP4 DUP8 ADD PUSH2 0x3987 JUMP JUMPDEST DUP4 DUP6 ADD MSTORE PUSH2 0x180 SWAP3 POP DUP3 DUP6 ADD MLOAD SWAP2 POP DUP1 DUP3 GT ISZERO PUSH2 0x3C39 JUMPI PUSH1 0x0 DUP1 REVERT JUMPDEST PUSH2 0x3C45 DUP7 DUP4 DUP8 ADD PUSH2 0x3987 JUMP JUMPDEST DUP4 DUP6 ADD MSTORE PUSH2 0x1A0 SWAP3 POP DUP3 DUP6 ADD MLOAD SWAP2 POP DUP1 DUP3 GT ISZERO PUSH2 0x3C61 JUMPI PUSH1 0x0 DUP1 REVERT JUMPDEST POP PUSH2 0x3B1F DUP6 DUP3 DUP7 ADD PUSH2 0x3987 JUMP JUMPDEST PUSH1 0x0 PUSH1 0x20 DUP3 DUP5 SUB SLT ISZERO PUSH2 0x3C7F JUMPI DUP1 DUP2 REVERT JUMPDEST DUP2 CALLDATALOAD PUSH2 0x184A DUP2 PUSH2 0x4FD6 JUMP JUMPDEST PUSH1 0x0 DUP1 PUSH1 0x40 DUP4 DUP6 SUB SLT ISZERO PUSH2 0x3C9C JUMPI DUP1 DUP2 REVERT JUMPDEST DUP3 CALLDATALOAD PUSH2 0x3CA7 DUP2 PUSH2 0x4FD6 JUMP JUMPDEST SWAP2 POP PUSH1 0x20 DUP4 ADD CALLDATALOAD PUSH8 0xFFFFFFFFFFFFFFFF DUP2 GT ISZERO PUSH2 0x3CC2 JUMPI DUP2 DUP3 REVERT JUMPDEST PUSH2 0x3CCE DUP6 DUP3 DUP7 ADD PUSH2 0x374A JUMP JUMPDEST SWAP2 POP POP SWAP3 POP SWAP3 SWAP1 POP JUMP JUMPDEST PUSH1 0x0 DUP1 PUSH1 0x0 DUP1 PUSH1 0x80 DUP6 DUP8 SUB SLT ISZERO PUSH2 0x3CED JUMPI DUP2 DUP3 REVERT JUMPDEST DUP5 CALLDATALOAD PUSH2 0x3CF8 DUP2 PUSH2 0x4FD6 JUMP JUMPDEST SWAP4 POP PUSH1 0x20 DUP6 ADD CALLDATALOAD PUSH8 0xFFFFFFFFFFFFFFFF DUP1 DUP3 GT ISZERO PUSH2 0x3D14 JUMPI DUP4 DUP5 REVERT JUMPDEST PUSH2 0x3D20 DUP9 DUP4 DUP10 ADD PUSH2 0x3865 JUMP JUMPDEST SWAP5 POP PUSH1 0x40 DUP8 ADD CALLDATALOAD SWAP2 POP DUP1 DUP3 GT ISZERO PUSH2 0x3D35 JUMPI DUP4 DUP5 REVERT JUMPDEST PUSH2 0x3D41 DUP9 DUP4 DUP10 ADD PUSH2 0x3865 JUMP JUMPDEST SWAP4 POP PUSH1 0x60 DUP8 ADD CALLDATALOAD SWAP2 POP DUP1 DUP3 GT ISZERO PUSH2 0x3D56 JUMPI DUP3 DUP4 REVERT JUMPDEST POP PUSH2 0x3D63 DUP8 DUP3 DUP9 ADD PUSH2 0x3939 JUMP JUMPDEST SWAP2 POP POP SWAP3 SWAP6 SWAP2 SWAP5 POP SWAP3 POP JUMP JUMPDEST PUSH1 0x0 DUP1 PUSH1 0x40 DUP4 DUP6 SUB SLT ISZERO PUSH2 0x3D81 JUMPI DUP2 DUP3 REVERT JUMPDEST DUP3 CALLDATALOAD PUSH2 0x3D8C DUP2 PUSH2 0x4FD6 JUMP JUMPDEST SWAP2 POP PUSH1 0x20 DUP4 ADD CALLDATALOAD PUSH8 0xFFFFFFFFFFFFFFFF DUP2 GT ISZERO PUSH2 0x3DA7 JUMPI DUP2 DUP3 REVERT JUMPDEST PUSH2 0x3CCE DUP6 DUP3 DUP7 ADD PUSH2 0x3939 JUMP JUMPDEST PUSH1 0x0 DUP1 PUSH1 0x0 PUSH1 0x60 DUP5 DUP7 SUB SLT ISZERO PUSH2 0x3DC7 JUMPI DUP1 DUP2 REVERT JUMPDEST DUP4 CALLDATALOAD PUSH2 0x3DD2 DUP2 PUSH2 0x4FD6 JUMP JUMPDEST SWAP3 POP PUSH1 0x20 DUP5 ADD CALLDATALOAD PUSH8 0xFFFFFFFFFFFFFFFF DUP2 GT ISZERO PUSH2 0x3DED JUMPI DUP2 DUP3 REVERT JUMPDEST PUSH2 0x3DF9 DUP7 DUP3 DUP8 ADD PUSH2 0x3939 JUMP JUMPDEST SWAP3 POP POP PUSH1 0x40 DUP5 ADD CALLDATALOAD SWAP1 POP SWAP3 POP SWAP3 POP SWAP3 JUMP JUMPDEST PUSH1 0x0 DUP1 PUSH1 0x40 DUP4 DUP6 SUB SLT ISZERO PUSH2 0x3E1C JUMPI DUP2 DUP3 REVERT JUMPDEST DUP3 CALLDATALOAD PUSH2 0x3E27 DUP2 PUSH2 0x4FD6 JUMP JUMPDEST SWAP5 PUSH1 0x20 SWAP4 SWAP1 SWAP4 ADD CALLDATALOAD SWAP4 POP POP POP JUMP JUMPDEST PUSH1 0x0 PUSH1 0x20 DUP3 DUP5 SUB SLT ISZERO PUSH2 0x3E46 JUMPI DUP1 DUP2 REVERT JUMPDEST DUP2 CALLDATALOAD PUSH8 0xFFFFFFFFFFFFFFFF DUP2 GT ISZERO PUSH2 0x3E5C JUMPI DUP2 DUP3 REVERT JUMPDEST PUSH2 0x934 DUP5 DUP3 DUP6 ADD PUSH2 0x36DE JUMP JUMPDEST PUSH1 0x0 PUSH1 0x20 DUP1 DUP4 DUP6 SUB SLT ISZERO PUSH2 0x3E7A JUMPI DUP2 DUP3 REVERT JUMPDEST DUP3 MLOAD PUSH8 0xFFFFFFFFFFFFFFFF DUP2 GT ISZERO PUSH2 0x3E90 JUMPI DUP3 DUP4 REVERT JUMPDEST DUP1 DUP5 ADD DUP6 PUSH1 0x1F DUP3 ADD SLT PUSH2 0x3EA1 JUMPI DUP4 DUP5 REVERT JUMPDEST DUP1 MLOAD SWAP2 POP PUSH2 0x3EB1 PUSH2 0x36FC DUP4 PUSH2 0x4F62 JUMP JUMPDEST DUP3 DUP2 MSTORE DUP4 DUP2 ADD SWAP1 DUP3 DUP6 ADD DUP6 DUP6 MUL DUP5 ADD DUP7 ADD DUP10 LT ISZERO PUSH2 0x3ECD JUMPI DUP7 DUP8 REVERT JUMPDEST DUP7 SWAP4 POP JUMPDEST DUP5 DUP5 LT ISZERO PUSH2 0x3EF7 JUMPI PUSH2 0x3EE3 DUP10 DUP3 PUSH2 0x39CD JUMP JUMPDEST DUP4 MSTORE PUSH1 0x1 SWAP4 SWAP1 SWAP4 ADD SWAP3 SWAP2 DUP6 ADD SWAP2 DUP6 ADD PUSH2 0x3ED1 JUMP JUMPDEST POP SWAP8 SWAP7 POP POP POP POP POP POP POP JUMP JUMPDEST PUSH1 0x0 DUP1 PUSH1 0x0 PUSH1 0x60 DUP5 DUP7 SUB SLT ISZERO PUSH2 0x3F17 JUMPI DUP1 DUP2 REVERT JUMPDEST DUP4 CALLDATALOAD PUSH8 0xFFFFFFFFFFFFFFFF DUP1 DUP3 GT ISZERO PUSH2 0x3F2E JUMPI DUP3 DUP4 REVERT JUMPDEST PUSH2 0x3F3A DUP8 DUP4 DUP9 ADD PUSH2 0x380A JUMP JUMPDEST SWAP5 POP PUSH1 0x20 DUP7 ADD CALLDATALOAD SWAP2 POP DUP1 DUP3 GT ISZERO PUSH2 0x3F4F JUMPI DUP3 DUP4 REVERT JUMPDEST PUSH2 0x3F5B DUP8 DUP4 DUP9 ADD PUSH2 0x36DE JUMP JUMPDEST SWAP4 POP PUSH1 0x40 DUP7 ADD CALLDATALOAD SWAP2 POP DUP1 DUP3 GT ISZERO PUSH2 0x3F70 JUMPI DUP3 DUP4 REVERT JUMPDEST POP PUSH2 0x3F7D DUP7 DUP3 DUP8 ADD PUSH2 0x3865 JUMP JUMPDEST SWAP2 POP POP SWAP3 POP SWAP3 POP SWAP3 JUMP JUMPDEST PUSH1 0x0 DUP1 PUSH1 0x40 DUP4 DUP6 SUB SLT ISZERO PUSH2 0x3F99 JUMPI DUP2 DUP3 REVERT JUMPDEST DUP3 CALLDATALOAD PUSH8 0xFFFFFFFFFFFFFFFF DUP1 DUP3 GT ISZERO PUSH2 0x3FB0 JUMPI DUP4 DUP5 REVERT JUMPDEST PUSH2 0x3FBC DUP7 DUP4 DUP8 ADD PUSH2 0x380A JUMP JUMPDEST SWAP4 POP PUSH1 0x20 DUP6 ADD CALLDATALOAD SWAP2 POP DUP1 DUP3 GT ISZERO PUSH2 0x3FD1 JUMPI DUP3 DUP4 REVERT JUMPDEST POP PUSH2 0x3CCE DUP6 DUP3 DUP7 ADD PUSH2 0x374A JUMP JUMPDEST PUSH1 0x0 DUP1 PUSH1 0x40 DUP4 DUP6 SUB SLT ISZERO PUSH2 0x3FF0 JUMPI DUP2 DUP3 REVERT JUMPDEST DUP3 CALLDATALOAD PUSH8 0xFFFFFFFFFFFFFFFF DUP1 DUP3 GT ISZERO PUSH2 0x4007 JUMPI DUP4 DUP5 REVERT JUMPDEST PUSH2 0x3FBC DUP7 DUP4 DUP8 ADD PUSH2 0x3865 JUMP JUMPDEST PUSH1 0x0 PUSH1 0x20 DUP3 DUP5 SUB SLT ISZERO PUSH2 0x4024 JUMPI DUP1 DUP2 REVERT JUMPDEST DUP2 MLOAD DUP1 ISZERO ISZERO DUP2 EQ PUSH2 0x184A JUMPI DUP2 DUP3 REVERT JUMPDEST PUSH1 0x0 PUSH1 0x20 DUP3 DUP5 SUB SLT ISZERO PUSH2 0x4044 JUMPI DUP1 DUP2 REVERT JUMPDEST PUSH2 0x184A DUP4 DUP4 PUSH2 0x3921 JUMP JUMPDEST PUSH1 0x0 DUP1 PUSH1 0x40 DUP4 DUP6 SUB SLT ISZERO PUSH2 0x4060 JUMPI DUP2 DUP3 REVERT JUMPDEST PUSH2 0x406A DUP5 DUP5 PUSH2 0x3921 JUMP JUMPDEST SWAP2 POP PUSH1 0x20 DUP4 ADD MLOAD PUSH2 0x407A DUP2 PUSH2 0x4FD6 JUMP JUMPDEST DUP1 SWAP2 POP POP SWAP3 POP SWAP3 SWAP1 POP JUMP JUMPDEST PUSH1 0x0 DUP1 PUSH1 0x0 DUP1 PUSH1 0x80 DUP6 DUP8 SUB SLT ISZERO PUSH2 0x409A JUMPI DUP2 DUP3 REVERT JUMPDEST DUP5 MLOAD PUSH2 0x40A5 DUP2 PUSH2 0x4FEB JUMP JUMPDEST PUSH1 0x20 DUP7 ADD MLOAD SWAP1 SWAP5 POP PUSH2 0x40B6 DUP2 PUSH2 0x4FD6 JUMP JUMPDEST PUSH1 0x40 DUP7 ADD MLOAD SWAP1 SWAP4 POP PUSH2 0x40C7 DUP2 PUSH2 0x4FD6 JUMP JUMPDEST PUSH1 0x60 DUP7 ADD MLOAD SWAP1 SWAP3 POP PUSH8 0xFFFFFFFFFFFFFFFF DUP2 GT ISZERO PUSH2 0x40E3 JUMPI DUP2 DUP3 REVERT JUMPDEST PUSH2 0x3D63 DUP8 DUP3 DUP9 ADD PUSH2 0x3987 JUMP JUMPDEST PUSH1 0x0 DUP1 PUSH1 0x0 DUP1 PUSH1 0x0 PUSH1 0xA0 DUP7 DUP9 SUB SLT ISZERO PUSH2 0x4106 JUMPI DUP3 DUP4 REVERT JUMPDEST PUSH2 0x4110 DUP8 DUP8 PUSH2 0x3921 JUMP JUMPDEST SWAP5 POP PUSH1 0x20 DUP7 ADD MLOAD PUSH2 0x4120 DUP2 PUSH2 0x4FD6 JUMP JUMPDEST PUSH1 0x40 DUP8 ADD MLOAD SWAP1 SWAP5 POP PUSH8 0xFFFFFFFFFFFFFFFF DUP1 DUP3 GT ISZERO PUSH2 0x413D JUMPI DUP5 DUP6 REVERT JUMPDEST PUSH2 0x4149 DUP10 DUP4 DUP11 ADD PUSH2 0x38C3 JUMP JUMPDEST SWAP5 POP PUSH1 0x60 DUP9 ADD MLOAD SWAP2 POP DUP1 DUP3 GT ISZERO PUSH2 0x415E JUMPI DUP3 DUP4 REVERT JUMPDEST PUSH2 0x416A DUP10 DUP4 DUP11 ADD PUSH2 0x38C3 JUMP JUMPDEST SWAP4 POP PUSH1 0x80 DUP9 ADD MLOAD SWAP2 POP DUP1 DUP3 GT ISZERO PUSH2 0x417F JUMPI DUP3 DUP4 REVERT JUMPDEST POP PUSH2 0x418C DUP9 DUP3 DUP10 ADD PUSH2 0x3987 JUMP JUMPDEST SWAP2 POP POP SWAP3 SWAP6 POP SWAP3 SWAP6 SWAP1 SWAP4 POP JUMP JUMPDEST PUSH1 0x0 DUP1 PUSH1 0x0 DUP1 PUSH1 0x80 DUP6 DUP8 SUB SLT ISZERO PUSH2 0x41AE JUMPI DUP2 DUP3 REVERT JUMPDEST PUSH2 0x41B8 DUP7 DUP7 PUSH2 0x3921 JUMP JUMPDEST SWAP4 POP PUSH1 0x20 DUP6 ADD MLOAD PUSH2 0x41C8 DUP2 PUSH2 0x4FD6 JUMP JUMPDEST PUSH1 0x40 DUP7 ADD MLOAD SWAP1 SWAP4 POP PUSH8 0xFFFFFFFFFFFFFFFF DUP2 GT ISZERO PUSH2 0x41E4 JUMPI DUP3 DUP4 REVERT JUMPDEST PUSH2 0x41F0 DUP8 DUP3 DUP9 ADD PUSH2 0x3987 JUMP JUMPDEST PUSH1 0x60 SWAP7 SWAP1 SWAP7 ADD MLOAD SWAP5 SWAP8 SWAP4 SWAP7 POP POP POP POP JUMP JUMPDEST PUSH1 0x0 DUP1 PUSH1 0x0 PUSH1 0x60 DUP5 DUP7 SUB SLT ISZERO PUSH2 0x4215 JUMPI DUP1 DUP2 REVERT JUMPDEST PUSH2 0x421F DUP6 DUP6 PUSH2 0x3921 JUMP JUMPDEST SWAP3 POP PUSH1 0x20 DUP5 ADD MLOAD PUSH2 0x422F DUP2 PUSH2 0x4FD6 JUMP JUMPDEST DUP1 SWAP3 POP POP PUSH1 0x40 DUP5 ADD MLOAD SWAP1 POP SWAP3 POP SWAP3 POP SWAP3 JUMP JUMPDEST PUSH1 0x0 DUP1 PUSH1 0x0 PUSH1 0x60 DUP5 DUP7 SUB SLT ISZERO PUSH2 0x4255 JUMPI DUP1 DUP2 REVERT JUMPDEST DUP4 MLOAD PUSH2 0x4260 DUP2 PUSH2 0x4FEB JUMP JUMPDEST PUSH1 0x20 DUP6 ADD MLOAD SWAP1 SWAP4 POP PUSH8 0xFFFFFFFFFFFFFFFF DUP1 DUP3 GT ISZERO PUSH2 0x427D JUMPI DUP3 DUP4 REVERT JUMPDEST PUSH2 0x4289 DUP8 DUP4 DUP9 ADD PUSH2 0x38C3 JUMP JUMPDEST SWAP4 POP PUSH1 0x40 DUP7 ADD MLOAD SWAP2 POP DUP1 DUP3 GT ISZERO PUSH2 0x429E JUMPI DUP3 DUP4 REVERT JUMPDEST POP PUSH2 0x3F7D DUP7 DUP3 DUP8 ADD PUSH2 0x37AF JUMP JUMPDEST PUSH1 0x0 PUSH1 0x20 DUP3 DUP5 SUB SLT ISZERO PUSH2 0x42BC JUMPI DUP1 DUP2 REVERT JUMPDEST DUP2 CALLDATALOAD PUSH8 0xFFFFFFFFFFFFFFFF DUP2 GT ISZERO PUSH2 0x42D2 JUMPI DUP2 DUP3 REVERT JUMPDEST PUSH2 0x934 DUP5 DUP3 DUP6 ADD PUSH2 0x3939 JUMP JUMPDEST PUSH1 0x0 PUSH1 0x20 DUP3 DUP5 SUB SLT ISZERO PUSH2 0x42EF JUMPI DUP1 DUP2 REVERT JUMPDEST DUP2 MLOAD PUSH8 0xFFFFFFFFFFFFFFFF DUP2 GT ISZERO PUSH2 0x4305 JUMPI DUP2 DUP3 REVERT JUMPDEST PUSH2 0x934 DUP5 DUP3 DUP6 ADD PUSH2 0x3987 JUMP JUMPDEST PUSH1 0x0 PUSH1 0x20 DUP3 DUP5 SUB SLT ISZERO PUSH2 0x4322 JUMPI DUP1 DUP2 REVERT JUMPDEST DUP2 MLOAD PUSH2 0x184A DUP2 PUSH2 0x4FD6 JUMP JUMPDEST PUSH1 0x0 PUSH1 0x20 DUP3 DUP5 SUB SLT ISZERO PUSH2 0x433E JUMPI DUP1 DUP2 REVERT JUMPDEST DUP2 MLOAD PUSH1 0x5 DUP2 LT PUSH2 0x184A JUMPI DUP2 DUP3 REVERT JUMPDEST PUSH1 0x0 DUP1 PUSH1 0x0 DUP1 PUSH1 0x80 DUP6 DUP8 SUB SLT ISZERO PUSH2 0x4361 JUMPI DUP2 DUP3 REVERT JUMPDEST DUP5 MLOAD PUSH8 0xFFFFFFFFFFFFFFFF DUP1 DUP3 GT ISZERO PUSH2 0x4378 JUMPI DUP4 DUP5 REVERT JUMPDEST PUSH2 0x4384 DUP9 DUP4 DUP10 ADD PUSH2 0x3987 JUMP JUMPDEST SWAP6 POP PUSH1 0x20 SWAP2 POP DUP2 DUP8 ADD MLOAD DUP2 DUP2 GT ISZERO PUSH2 0x439A JUMPI DUP5 DUP6 REVERT JUMPDEST DUP1 DUP9 ADD DUP10 PUSH1 0x1F DUP3 ADD SLT PUSH2 0x43AB JUMPI DUP6 DUP7 REVERT JUMPDEST DUP1 MLOAD SWAP2 POP PUSH2 0x43BB PUSH2 0x36FC DUP4 PUSH2 0x4F62 JUMP JUMPDEST DUP3 DUP2 MSTORE DUP5 DUP2 ADD SWAP1 DUP3 DUP7 ADD DUP9 JUMPDEST DUP6 DUP2 LT ISZERO PUSH2 0x43F0 JUMPI PUSH2 0x43DE DUP15 DUP10 DUP5 MLOAD DUP9 ADD ADD PUSH2 0x3B2B JUMP JUMPDEST DUP5 MSTORE SWAP3 DUP8 ADD SWAP3 SWAP1 DUP8 ADD SWAP1 PUSH1 0x1 ADD PUSH2 0x43C7 JUMP JUMPDEST POP POP PUSH1 0x40 DUP12 ADD MLOAD SWAP1 SWAP9 POP SWAP5 POP POP POP POP DUP1 DUP3 GT ISZERO PUSH2 0x440B JUMPI DUP4 DUP5 REVERT JUMPDEST PUSH2 0x4417 DUP9 DUP4 DUP10 ADD PUSH2 0x38C3 JUMP JUMPDEST SWAP4 POP PUSH1 0x60 DUP8 ADD MLOAD SWAP2 POP DUP1 DUP3 GT ISZERO PUSH2 0x442C JUMPI DUP3 DUP4 REVERT JUMPDEST POP PUSH2 0x3D63 DUP8 DUP3 DUP9 ADD PUSH2 0x37AF JUMP JUMPDEST PUSH1 0x0 PUSH1 0x60 DUP3 DUP5 SUB SLT ISZERO PUSH2 0x444A JUMPI DUP1 DUP2 REVERT JUMPDEST PUSH2 0x4454 PUSH1 0x60 PUSH2 0x4F3B JUMP JUMPDEST DUP3 MLOAD PUSH1 0x7 DUP2 LT PUSH2 0x4462 JUMPI DUP3 DUP4 REVERT JUMPDEST DUP2 MSTORE PUSH1 0x20 DUP4 DUP2 ADD MLOAD SWAP1 DUP3 ADD MSTORE PUSH1 0x40 SWAP3 DUP4 ADD MLOAD SWAP3 DUP2 ADD SWAP3 SWAP1 SWAP3 MSTORE POP SWAP2 SWAP1 POP JUMP JUMPDEST PUSH1 0x0 DUP1 PUSH1 0x0 PUSH1 0x60 DUP5 DUP7 SUB SLT ISZERO PUSH2 0x4495 JUMPI DUP1 DUP2 REVERT JUMPDEST DUP4 CALLDATALOAD PUSH8 0xFFFFFFFFFFFFFFFF DUP2 GT ISZERO PUSH2 0x44AB JUMPI DUP2 DUP3 REVERT JUMPDEST PUSH2 0x44B7 DUP7 DUP3 DUP8 ADD PUSH2 0x39DC JUMP JUMPDEST SWAP4 POP POP PUSH1 0x20 DUP5 ADD CALLDATALOAD PUSH2 0x44C8 DUP2 PUSH2 0x4FD6 JUMP JUMPDEST SWAP3 SWAP6 SWAP3 SWAP5 POP POP POP PUSH1 0x40 SWAP2 SWAP1 SWAP2 ADD CALLDATALOAD SWAP1 JUMP JUMPDEST PUSH1 0x0 DUP1 PUSH1 0x40 DUP4 DUP6 SUB SLT ISZERO PUSH2 0x44EB JUMPI DUP2 DUP3 REVERT JUMPDEST DUP3 CALLDATALOAD PUSH8 0xFFFFFFFFFFFFFFFF DUP1 DUP3 GT ISZERO PUSH2 0x4502 JUMPI DUP4 DUP5 REVERT JUMPDEST PUSH2 0x450E DUP7 DUP4 DUP8 ADD PUSH2 0x39DC JUMP JUMPDEST SWAP4 POP PUSH1 0x20 DUP6 ADD CALLDATALOAD SWAP2 POP DUP1 DUP3 GT ISZERO PUSH2 0x4523 JUMPI DUP3 DUP4 REVERT JUMPDEST POP PUSH2 0x3CCE DUP6 DUP3 DUP7 ADD PUSH2 0x3939 JUMP JUMPDEST PUSH1 0x0 DUP1 PUSH1 0x0 PUSH1 0x60 DUP5 DUP7 SUB SLT ISZERO PUSH2 0x4544 JUMPI DUP1 DUP2 REVERT JUMPDEST DUP4 CALLDATALOAD PUSH8 0xFFFFFFFFFFFFFFFF DUP2 GT ISZERO PUSH2 0x455A JUMPI DUP2 DUP3 REVERT JUMPDEST PUSH2 0x4566 DUP7 DUP3 DUP8 ADD PUSH2 0x39DC JUMP JUMPDEST SWAP4 POP POP PUSH1 0x20 DUP5 ADD CALLDATALOAD SWAP2 POP PUSH1 0x40 DUP5 ADD CALLDATALOAD PUSH2 0x457E DUP2 PUSH2 0x4FD6 JUMP JUMPDEST DUP1 SWAP2 POP POP SWAP3 POP SWAP3 POP SWAP3 JUMP JUMPDEST PUSH1 0x0 DUP1 PUSH1 0x0 PUSH1 0x60 DUP5 DUP7 SUB SLT ISZERO PUSH2 0x459D JUMPI DUP1 DUP2 REVERT JUMPDEST DUP4 CALLDATALOAD PUSH8 0xFFFFFFFFFFFFFFFF DUP1 DUP3 GT ISZERO PUSH2 0x45B4 JUMPI DUP3 DUP4 REVERT JUMPDEST DUP2 DUP7 ADD PUSH1 0xA0 DUP2 DUP10 SUB SLT ISZERO PUSH2 0x45C6 JUMPI DUP4 DUP5 REVERT JUMPDEST PUSH2 0x45D0 PUSH1 0xA0 PUSH2 0x4F3B JUMP JUMPDEST SWAP3 POP DUP1 CALLDATALOAD DUP4 MSTORE PUSH1 0x20 DUP2 ADD CALLDATALOAD PUSH1 0x20 DUP5 ADD MSTORE PUSH1 0x40 DUP2 ADD CALLDATALOAD PUSH1 0x40 DUP5 ADD MSTORE PUSH2 0x45F7 DUP9 PUSH1 0x60 DUP4 ADD PUSH2 0x36C8 JUMP JUMPDEST PUSH1 0x60 DUP5 ADD MSTORE PUSH1 0x80 DUP2 ADD CALLDATALOAD DUP3 DUP2 GT ISZERO PUSH2 0x460D JUMPI DUP5 DUP6 REVERT JUMPDEST PUSH2 0x4619 DUP10 DUP3 DUP5 ADD PUSH2 0x3939 JUMP JUMPDEST PUSH1 0x80 DUP6 ADD MSTORE POP SWAP2 SWAP5 POP POP POP PUSH1 0x20 DUP5 ADD CALLDATALOAD SWAP2 POP PUSH2 0x4638 DUP6 PUSH1 0x40 DUP7 ADD PUSH2 0x36C8 JUMP JUMPDEST SWAP1 POP SWAP3 POP SWAP3 POP SWAP3 JUMP JUMPDEST PUSH1 0x0 PUSH1 0x20 DUP3 DUP5 SUB SLT ISZERO PUSH2 0x4652 JUMPI DUP1 DUP2 REVERT JUMPDEST POP MLOAD SWAP2 SWAP1 POP JUMP JUMPDEST PUSH1 0x1 PUSH1 0x1 PUSH1 0xA0 SHL SUB AND DUP2 MSTORE PUSH1 0x20 ADD SWAP1 JUMP JUMPDEST PUSH1 0x0 PUSH2 0x4676 DUP4 DUP4 PUSH2 0x4748 JUMP JUMPDEST POP POP PUSH1 0x60 ADD SWAP1 JUMP JUMPDEST PUSH1 0x1 PUSH1 0x1 PUSH1 0xA0 SHL SUB AND SWAP1 MSTORE JUMP JUMPDEST PUSH1 0x0 DUP3 DUP3 MLOAD DUP1 DUP6 MSTORE PUSH1 0x20 DUP1 DUP7 ADD SWAP6 POP DUP1 DUP2 DUP4 MUL DUP5 ADD ADD DUP2 DUP7 ADD DUP6 JUMPDEST DUP5 DUP2 LT ISZERO PUSH2 0x46D4 JUMPI PUSH1 0x1F NOT DUP7 DUP5 SUB ADD DUP10 MSTORE PUSH2 0x46C2 DUP4 DUP4 MLOAD PUSH2 0x471C JUMP JUMPDEST SWAP9 DUP5 ADD SWAP9 SWAP3 POP SWAP1 DUP4 ADD SWAP1 PUSH1 0x1 ADD PUSH2 0x46A6 JUMP JUMPDEST POP SWAP1 SWAP8 SWAP7 POP POP POP POP POP POP POP JUMP JUMPDEST PUSH1 0x0 DUP2 MLOAD DUP1 DUP5 MSTORE PUSH1 0x20 DUP5 ADD SWAP4 POP PUSH1 0x20 DUP4 ADD DUP3 JUMPDEST DUP3 DUP2 LT ISZERO PUSH2 0x4712 JUMPI DUP2 MLOAD DUP7 MSTORE PUSH1 0x20 SWAP6 DUP7 ADD SWAP6 SWAP1 SWAP2 ADD SWAP1 PUSH1 0x1 ADD PUSH2 0x46F4 JUMP JUMPDEST POP SWAP4 SWAP5 SWAP4 POP POP POP POP JUMP JUMPDEST PUSH1 0x0 DUP2 MLOAD DUP1 DUP5 MSTORE PUSH2 0x4734 DUP2 PUSH1 0x20 DUP7 ADD PUSH1 0x20 DUP7 ADD PUSH2 0x4FA6 JUMP JUMPDEST PUSH1 0x1F ADD PUSH1 0x1F NOT AND SWAP3 SWAP1 SWAP3 ADD PUSH1 0x20 ADD SWAP3 SWAP2 POP POP JUMP JUMPDEST DUP1 MLOAD PUSH1 0x7 DUP2 LT PUSH2 0x4754 JUMPI INVALID JUMPDEST DUP3 MSTORE PUSH1 0x20 DUP2 DUP2 ADD MLOAD SWAP1 DUP4 ADD MSTORE PUSH1 0x40 SWAP1 DUP2 ADD MLOAD SWAP2 ADD MSTORE JUMP JUMPDEST PUSH1 0x0 PUSH2 0x1C0 PUSH2 0x477B DUP5 DUP5 MLOAD PUSH2 0x467E JUMP JUMPDEST PUSH1 0x20 DUP4 ADD MLOAD PUSH2 0x478D PUSH1 0x20 DUP7 ADD DUP3 PUSH2 0x467E JUMP JUMPDEST POP PUSH1 0x40 DUP4 ADD MLOAD PUSH2 0x47A0 PUSH1 0x40 DUP7 ADD DUP3 PUSH2 0x467E JUMP JUMPDEST POP PUSH1 0x60 DUP4 ADD MLOAD PUSH2 0x47B3 PUSH1 0x60 DUP7 ADD DUP3 PUSH2 0x467E JUMP JUMPDEST POP PUSH1 0x80 DUP4 ADD MLOAD PUSH1 0x80 DUP6 ADD MSTORE PUSH1 0xA0 DUP4 ADD MLOAD PUSH1 0xA0 DUP6 ADD MSTORE PUSH1 0xC0 DUP4 ADD MLOAD PUSH1 0xC0 DUP6 ADD MSTORE PUSH1 0xE0 DUP4 ADD MLOAD PUSH1 0xE0 DUP6 ADD MSTORE PUSH2 0x100 DUP1 DUP5 ADD MLOAD DUP2 DUP7 ADD MSTORE POP PUSH2 0x120 DUP1 DUP5 ADD MLOAD DUP2 DUP7 ADD MSTORE POP PUSH2 0x140 DUP1 DUP5 ADD MLOAD DUP3 DUP3 DUP8 ADD MSTORE PUSH2 0x480C DUP4 DUP8 ADD DUP3 PUSH2 0x471C JUMP JUMPDEST SWAP2 POP POP PUSH2 0x160 SWAP2 POP DUP2 DUP5 ADD MLOAD DUP6 DUP3 SUB DUP4 DUP8 ADD MSTORE PUSH2 0x4829 DUP3 DUP3 PUSH2 0x471C JUMP JUMPDEST SWAP3 POP POP POP PUSH2 0x180 DUP1 DUP5 ADD MLOAD DUP6 DUP4 SUB DUP3 DUP8 ADD MSTORE PUSH2 0x4845 DUP4 DUP3 PUSH2 0x471C JUMP JUMPDEST SWAP2 POP POP PUSH2 0x1A0 SWAP2 POP DUP2 DUP5 ADD MLOAD DUP6 DUP3 SUB DUP4 DUP8 ADD MSTORE PUSH2 0x4862 DUP3 DUP3 PUSH2 0x471C JUMP JUMPDEST SWAP7 SWAP6 POP POP POP POP POP POP JUMP JUMPDEST PUSH1 0x0 DUP3 MLOAD PUSH2 0x487E DUP2 DUP5 PUSH1 0x20 DUP8 ADD PUSH2 0x4FA6 JUMP JUMPDEST SWAP2 SWAP1 SWAP2 ADD SWAP3 SWAP2 POP POP JUMP JUMPDEST PUSH1 0x1 PUSH1 0x1 PUSH1 0xA0 SHL SUB SWAP2 SWAP1 SWAP2 AND DUP2 MSTORE PUSH1 0x20 ADD SWAP1 JUMP JUMPDEST PUSH1 0x1 PUSH1 0x1 PUSH1 0xA0 SHL SUB SWAP3 DUP4 AND DUP2 MSTORE SWAP2 AND PUSH1 0x20 DUP3 ADD MSTORE PUSH1 0x40 ADD SWAP1 JUMP JUMPDEST PUSH1 0x1 PUSH1 0x1 PUSH1 0xA0 SHL SUB SWAP4 DUP5 AND DUP2 MSTORE SWAP2 DUP4 AND PUSH1 0x20 DUP4 ADD MSTORE SWAP1 SWAP2 AND PUSH1 0x40 DUP3 ADD MSTORE PUSH1 0x60 ADD SWAP1 JUMP JUMPDEST PUSH1 0x0 PUSH1 0x80 DUP3 ADD PUSH1 0x1 PUSH1 0x1 PUSH1 0xA0 SHL SUB DUP8 AND DUP4 MSTORE PUSH1 0x20 PUSH1 0x80 DUP2 DUP6 ADD MSTORE DUP2 DUP8 MLOAD PUSH2 0x4900 DUP2 DUP6 PUSH2 0x4C01 JUMP JUMPDEST SWAP2 POP DUP2 SWAP4 POP DUP3 DUP2 MUL DUP3 ADD DUP4 DUP11 ADD DUP7 JUMPDEST DUP4 DUP2 LT ISZERO PUSH2 0x4939 JUMPI DUP7 DUP4 SUB DUP6 MSTORE PUSH2 0x4927 DUP4 DUP4 MLOAD PUSH2 0x476B JUMP JUMPDEST SWAP5 DUP7 ADD SWAP5 SWAP3 POP SWAP1 DUP6 ADD SWAP1 PUSH1 0x1 ADD PUSH2 0x490F JUMP JUMPDEST POP POP DUP7 DUP2 SUB PUSH1 0x40 DUP9 ADD MSTORE DUP1 SWAP5 POP DUP9 MLOAD SWAP3 POP PUSH2 0x4954 DUP4 DUP3 PUSH2 0x4C01 JUMP JUMPDEST SWAP5 POP POP POP DUP2 DUP8 ADD DUP5 JUMPDEST DUP3 DUP2 LT ISZERO PUSH2 0x497E JUMPI PUSH2 0x4970 DUP6 DUP4 MLOAD PUSH2 0x4659 JUMP JUMPDEST SWAP5 POP SWAP1 DUP4 ADD SWAP1 PUSH1 0x1 ADD PUSH2 0x495D JUMP JUMPDEST POP POP POP POP DUP3 DUP2 SUB PUSH1 0x60 DUP5 ADD MSTORE PUSH2 0x4994 DUP2 DUP6 PUSH2 0x46E1 JUMP JUMPDEST SWAP8 SWAP7 POP POP POP POP POP POP POP JUMP JUMPDEST PUSH1 0x0 PUSH1 0x1 PUSH1 0x1 PUSH1 0xA0 SHL SUB DUP7 AND DUP3 MSTORE PUSH1 0x80 PUSH1 0x20 DUP4 ADD MSTORE PUSH2 0x49C1 PUSH1 0x80 DUP4 ADD DUP7 PUSH2 0x46E1 JUMP JUMPDEST DUP3 DUP2 SUB PUSH1 0x40 DUP5 ADD MSTORE PUSH2 0x49D3 DUP2 DUP7 PUSH2 0x46E1 JUMP JUMPDEST DUP4 DUP2 SUB PUSH1 0x60 DUP6 ADD MSTORE PUSH2 0x49E5 DUP2 DUP7 PUSH2 0x471C JUMP JUMPDEST SWAP9 SWAP8 POP POP POP POP POP POP POP POP JUMP JUMPDEST PUSH1 0x0 PUSH1 0x1 PUSH1 0x1 PUSH1 0xA0 SHL SUB DUP6 AND DUP3 MSTORE PUSH1 0x60 PUSH1 0x20 DUP4 ADD MSTORE PUSH2 0x4A13 PUSH1 0x60 DUP4 ADD DUP6 PUSH2 0x471C JUMP JUMPDEST SWAP1 POP DUP3 PUSH1 0x40 DUP4 ADD MSTORE SWAP5 SWAP4 POP POP POP POP JUMP JUMPDEST PUSH1 0x0 PUSH1 0x1 PUSH1 0x1 PUSH1 0xA0 SHL SUB DUP1 DUP8 AND DUP4 MSTORE PUSH1 0x80 PUSH1 0x20 DUP5 ADD MSTORE PUSH2 0x4A46 PUSH1 0x80 DUP5 ADD DUP8 PUSH2 0x476B JUMP JUMPDEST SWAP5 AND PUSH1 0x40 DUP4 ADD MSTORE POP PUSH1 0x60 ADD MSTORE SWAP3 SWAP2 POP POP JUMP JUMPDEST PUSH1 0x1 PUSH1 0x1 PUSH1 0xA0 SHL SUB SWAP3 SWAP1 SWAP3 AND DUP3 MSTORE PUSH1 0x20 DUP3 ADD MSTORE PUSH1 0x40 ADD SWAP1 JUMP JUMPDEST PUSH1 0x20 DUP1 DUP3 MSTORE DUP3 MLOAD DUP3 DUP3 ADD DUP2 SWAP1 MSTORE PUSH1 0x0 SWAP2 DUP5 ADD SWAP1 PUSH1 0x40 DUP5 ADD SWAP1 DUP4 JUMPDEST DUP2 DUP2 LT ISZERO PUSH2 0x4AB3 JUMPI DUP4 MLOAD PUSH1 0x5 DUP2 LT PUSH2 0x4A9F JUMPI INVALID JUMPDEST DUP4 MSTORE PUSH1 0x20 SWAP4 DUP5 ADD SWAP4 SWAP1 SWAP3 ADD SWAP2 PUSH1 0x1 ADD PUSH2 0x4A8B JUMP JUMPDEST POP SWAP1 SWAP6 SWAP5 POP POP POP POP POP JUMP JUMPDEST PUSH1 0x0 PUSH1 0x60 DUP3 ADD PUSH1 0x60 DUP4 MSTORE DUP1 DUP7 MLOAD PUSH2 0x4AD5 DUP2 DUP5 PUSH2 0x4C01 JUMP JUMPDEST SWAP2 POP PUSH1 0x20 SWAP3 POP DUP3 DUP9 ADD DUP5 JUMPDEST DUP3 DUP2 LT ISZERO PUSH2 0x4B01 JUMPI PUSH2 0x4AF3 DUP5 DUP4 MLOAD PUSH2 0x466A JUMP JUMPDEST SWAP4 POP SWAP1 DUP5 ADD SWAP1 PUSH1 0x1 ADD PUSH2 0x4AE0 JUMP JUMPDEST POP POP POP DUP4 DUP2 SUB DUP3 DUP6 ADD MSTORE PUSH2 0x4B15 DUP2 DUP8 PUSH2 0x46E1 JUMP JUMPDEST DUP5 DUP2 SUB PUSH1 0x40 DUP7 ADD MSTORE DUP6 MLOAD DUP1 DUP3 MSTORE SWAP1 DUP4 ADD SWAP2 POP DUP3 DUP7 ADD SWAP1 DUP5 JUMPDEST DUP2 DUP2 LT ISZERO PUSH2 0x4B4B JUMPI DUP3 MLOAD ISZERO ISZERO DUP5 MSTORE SWAP3 DUP5 ADD SWAP3 SWAP2 DUP5 ADD SWAP2 PUSH1 0x1 ADD PUSH2 0x4B2D JUMP JUMPDEST POP SWAP2 SWAP9 SWAP8 POP POP POP POP POP POP POP POP JUMP JUMPDEST PUSH1 0x0 PUSH1 0x20 DUP3 MSTORE PUSH2 0x184A PUSH1 0x20 DUP4 ADD DUP5 PUSH2 0x46E1 JUMP JUMPDEST PUSH1 0x0 PUSH1 0x40 DUP3 MSTORE PUSH2 0x4B7F PUSH1 0x40 DUP4 ADD DUP6 PUSH2 0x46E1 JUMP JUMPDEST PUSH1 0x20 DUP4 DUP3 SUB DUP2 DUP6 ADD MSTORE DUP2 DUP6 MLOAD DUP1 DUP5 MSTORE DUP3 DUP5 ADD SWAP2 POP DUP3 DUP4 DUP3 MUL DUP6 ADD ADD DUP4 DUP9 ADD DUP7 JUMPDEST DUP4 DUP2 LT ISZERO PUSH2 0x4BCD JUMPI PUSH1 0x1F NOT DUP8 DUP5 SUB ADD DUP6 MSTORE PUSH2 0x4BBB DUP4 DUP4 MLOAD PUSH2 0x471C JUMP JUMPDEST SWAP5 DUP7 ADD SWAP5 SWAP3 POP SWAP1 DUP6 ADD SWAP1 PUSH1 0x1 ADD PUSH2 0x4B9F JUMP JUMPDEST POP SWAP1 SWAP10 SWAP9 POP POP POP POP POP POP POP POP POP JUMP JUMPDEST PUSH1 0x0 PUSH1 0x40 DUP3 MSTORE PUSH2 0x4BEF PUSH1 0x40 DUP4 ADD DUP6 PUSH2 0x46E1 JUMP JUMPDEST DUP3 DUP2 SUB PUSH1 0x20 DUP5 ADD MSTORE PUSH2 0x190D DUP2 DUP6 PUSH2 0x46E1 JUMP JUMPDEST SWAP1 DUP2 MSTORE PUSH1 0x20 ADD SWAP1 JUMP JUMPDEST PUSH1 0x1 PUSH1 0x1 PUSH1 0xE0 SHL SUB NOT SWAP2 SWAP1 SWAP2 AND DUP2 MSTORE PUSH1 0x20 ADD SWAP1 JUMP JUMPDEST PUSH1 0x1 PUSH1 0x1 PUSH1 0xE0 SHL SUB NOT SWAP3 SWAP1 SWAP3 AND DUP3 MSTORE PUSH1 0x1 PUSH1 0x1 PUSH1 0xA0 SHL SUB AND PUSH1 0x20 DUP3 ADD MSTORE PUSH1 0x40 ADD SWAP1 JUMP JUMPDEST PUSH1 0x0 PUSH1 0x1 PUSH1 0x1 PUSH1 0xE0 SHL SUB NOT DUP7 AND DUP3 MSTORE PUSH1 0x1 PUSH1 0x1 PUSH1 0xA0 SHL SUB DUP1 DUP7 AND PUSH1 0x20 DUP5 ADD MSTORE DUP1 DUP6 AND PUSH1 0x40 DUP5 ADD MSTORE POP PUSH1 0x80 PUSH1 0x60 DUP4 ADD MSTORE PUSH2 0x4862 PUSH1 0x80 DUP4 ADD DUP5 PUSH2 0x471C JUMP JUMPDEST PUSH1 0x0 PUSH1 0x1 PUSH1 0x1 PUSH1 0xE0 SHL SUB NOT DUP8 AND DUP3 MSTORE PUSH1 0x1 PUSH1 0x1 PUSH1 0xA0 SHL SUB DUP7 AND PUSH1 0x20 DUP4 ADD MSTORE PUSH1 0xA0 PUSH1 0x40 DUP4 ADD MSTORE PUSH2 0x4CB0 PUSH1 0xA0 DUP4 ADD DUP7 PUSH2 0x46E1 JUMP JUMPDEST DUP3 DUP2 SUB PUSH1 0x60 DUP5 ADD MSTORE PUSH2 0x4CC2 DUP2 DUP7 PUSH2 0x46E1 JUMP JUMPDEST DUP4 DUP2 SUB PUSH1 0x80 DUP6 ADD MSTORE PUSH2 0x4CD4 DUP2 DUP7 PUSH2 0x471C JUMP JUMPDEST SWAP10 SWAP9 POP POP POP POP POP POP POP POP POP JUMP JUMPDEST PUSH1 0x0 PUSH1 0x1 PUSH1 0x1 PUSH1 0xE0 SHL SUB NOT DUP7 AND DUP3 MSTORE PUSH1 0x1 PUSH1 0x1 PUSH1 0xA0 SHL SUB DUP6 AND PUSH1 0x20 DUP4 ADD MSTORE PUSH1 0x80 PUSH1 0x40 DUP4 ADD MSTORE PUSH2 0x4D13 PUSH1 0x80 DUP4 ADD DUP6 PUSH2 0x471C JUMP JUMPDEST SWAP1 POP DUP3 PUSH1 0x60 DUP4 ADD MSTORE SWAP6 SWAP5 POP POP POP POP POP JUMP JUMPDEST PUSH1 0x1 PUSH1 0x1 PUSH1 0xE0 SHL SUB NOT SWAP4 SWAP1 SWAP4 AND DUP4 MSTORE PUSH1 0x1 PUSH1 0x1 PUSH1 0xA0 SHL SUB SWAP2 SWAP1 SWAP2 AND PUSH1 0x20 DUP4 ADD MSTORE PUSH1 0x40 DUP3 ADD MSTORE PUSH1 0x60 ADD SWAP1 JUMP JUMPDEST PUSH1 0x0 PUSH1 0x1 PUSH1 0x1 PUSH1 0xE0 SHL SUB NOT DUP6 AND DUP3 MSTORE PUSH1 0x60 PUSH1 0x20 DUP4 ADD MSTORE PUSH2 0x4D72 PUSH1 0x60 DUP4 ADD DUP6 PUSH2 0x46E1 JUMP JUMPDEST DUP3 DUP2 SUB PUSH1 0x40 DUP5 ADD MSTORE PUSH2 0x4862 DUP2 DUP6 PUSH2 0x468B JUMP JUMPDEST PUSH1 0x0 PUSH1 0x20 DUP3 MSTORE PUSH2 0x184A PUSH1 0x20 DUP4 ADD DUP5 PUSH2 0x471C JUMP JUMPDEST PUSH1 0x0 PUSH1 0x80 DUP3 MSTORE PUSH2 0x4DAA PUSH1 0x80 DUP4 ADD DUP8 PUSH2 0x471C JUMP JUMPDEST PUSH1 0x1 PUSH1 0x1 PUSH1 0xA0 SHL SUB SWAP6 DUP7 AND PUSH1 0x20 DUP5 ADD MSTORE SWAP4 SWAP1 SWAP5 AND PUSH1 0x40 DUP3 ADD MSTORE PUSH1 0xFF SWAP2 SWAP1 SWAP2 AND PUSH1 0x60 SWAP1 SWAP2 ADD MSTORE SWAP3 SWAP2 POP POP JUMP JUMPDEST PUSH1 0x60 DUP2 ADD PUSH1 0x4 DUP6 LT PUSH2 0x4DE3 JUMPI INVALID JUMPDEST SWAP4 DUP2 MSTORE PUSH1 0x20 DUP2 ADD SWAP3 SWAP1 SWAP3 MSTORE PUSH1 0x40 SWAP1 SWAP2 ADD MSTORE SWAP1 JUMP JUMPDEST PUSH1 0x60 DUP2 ADD PUSH1 0x8 DUP6 LT PUSH2 0x4DE3 JUMPI INVALID JUMPDEST PUSH1 0x20 DUP2 ADD PUSH1 0x5 DUP4 LT PUSH2 0x4E13 JUMPI INVALID JUMPDEST SWAP2 SWAP1 MSTORE SWAP1 JUMP JUMPDEST PUSH1 0x0 PUSH1 0x80 DUP3 MSTORE PUSH2 0x4E2C PUSH1 0x80 DUP4 ADD DUP8 PUSH2 0x471C JUMP JUMPDEST PUSH1 0x20 DUP4 DUP3 SUB DUP2 DUP6 ADD MSTORE DUP2 DUP8 MLOAD DUP1 DUP5 MSTORE DUP3 DUP5 ADD SWAP2 POP DUP3 DUP4 DUP3 MUL DUP6 ADD ADD DUP4 DUP11 ADD DUP7 JUMPDEST DUP4 DUP2 LT ISZERO PUSH2 0x4E7A JUMPI PUSH1 0x1F NOT DUP8 DUP5 SUB ADD DUP6 MSTORE PUSH2 0x4E68 DUP4 DUP4 MLOAD PUSH2 0x476B JUMP JUMPDEST SWAP5 DUP7 ADD SWAP5 SWAP3 POP SWAP1 DUP6 ADD SWAP1 PUSH1 0x1 ADD PUSH2 0x4E4C JUMP JUMPDEST POP POP DUP7 DUP2 SUB PUSH1 0x40 DUP9 ADD MSTORE PUSH2 0x4E8E DUP2 DUP11 PUSH2 0x46E1 JUMP JUMPDEST SWAP5 POP POP POP POP POP DUP3 DUP2 SUB PUSH1 0x60 DUP5 ADD MSTORE PUSH2 0x4994 DUP2 DUP6 PUSH2 0x468B JUMP JUMPDEST PUSH1 0xA0 DUP2 ADD PUSH2 0x4EB4 DUP3 DUP7 PUSH2 0x4748 JUMP JUMPDEST DUP4 PUSH1 0x60 DUP4 ADD MSTORE DUP3 ISZERO ISZERO PUSH1 0x80 DUP4 ADD MSTORE SWAP5 SWAP4 POP POP POP POP JUMP JUMPDEST PUSH1 0x0 PUSH1 0x20 DUP3 MSTORE PUSH2 0x184A PUSH1 0x20 DUP4 ADD DUP5 PUSH2 0x476B JUMP JUMPDEST PUSH1 0x0 PUSH1 0x40 DUP3 MSTORE PUSH2 0x4EF0 PUSH1 0x40 DUP4 ADD DUP6 PUSH2 0x476B JUMP JUMPDEST SWAP1 POP PUSH1 0x1 PUSH1 0x1 PUSH1 0xA0 SHL SUB DUP4 AND PUSH1 0x20 DUP4 ADD MSTORE SWAP4 SWAP3 POP POP POP JUMP JUMPDEST PUSH1 0x0 PUSH1 0x40 DUP3 MSTORE PUSH2 0x4F1B PUSH1 0x40 DUP4 ADD DUP6 PUSH2 0x476B JUMP JUMPDEST DUP3 DUP2 SUB PUSH1 0x20 DUP5 ADD MSTORE PUSH2 0x190D DUP2 DUP6 PUSH2 0x471C JUMP JUMPDEST SWAP2 DUP3 MSTORE PUSH1 0x20 DUP3 ADD MSTORE PUSH1 0x40 ADD SWAP1 JUMP JUMPDEST PUSH1 0x40 MLOAD DUP2 DUP2 ADD PUSH8 0xFFFFFFFFFFFFFFFF DUP2 GT DUP3 DUP3 LT OR ISZERO PUSH2 0x4F5A JUMPI PUSH1 0x0 DUP1 REVERT JUMPDEST PUSH1 0x40 MSTORE SWAP2 SWAP1 POP JUMP JUMPDEST PUSH1 0x0 PUSH8 0xFFFFFFFFFFFFFFFF DUP3 GT ISZERO PUSH2 0x4F78 JUMPI DUP1 DUP2 REVERT JUMPDEST POP PUSH1 0x20 SWAP1 DUP2 MUL ADD SWAP1 JUMP JUMPDEST PUSH1 0x0 PUSH8 0xFFFFFFFFFFFFFFFF DUP3 GT ISZERO PUSH2 0x4F98 JUMPI DUP1 DUP2 REVERT JUMPDEST POP PUSH1 0x1F ADD PUSH1 0x1F NOT AND PUSH1 0x20 ADD SWAP1 JUMP JUMPDEST PUSH1 0x0 JUMPDEST DUP4 DUP2 LT ISZERO PUSH2 0x4FC1 JUMPI DUP2 DUP2 ADD MLOAD DUP4 DUP3 ADD MSTORE PUSH1 0x20 ADD PUSH2 0x4FA9 JUMP JUMPDEST DUP4 DUP2 GT ISZERO PUSH2 0x4FD0 JUMPI PUSH1 0x0 DUP5 DUP5 ADD MSTORE JUMPDEST POP POP POP POP JUMP JUMPDEST PUSH1 0x1 PUSH1 0x1 PUSH1 0xA0 SHL SUB DUP2 AND DUP2 EQ PUSH2 0x754 JUMPI PUSH1 0x0 DUP1 REVERT JUMPDEST PUSH1 0x1 PUSH1 0x1 PUSH1 0xE0 SHL SUB NOT DUP2 AND DUP2 EQ PUSH2 0x754 JUMPI PUSH1 0x0 DUP1 REVERT INVALID LOG3 PUSH6 0x627A7A723158 KECCAK256 0xAE DUP10 0x25 GASPRICE DUP16 0xDB 0xD4 SHR 0x2A 0xB0 0xDD REVERT 0x22 MSTORE ORIGIN 0xC8 SWAP2 INVALID SMOD 0xCD SWAP3 0xB0 MUL NUMBER 0x4D PUSH27 0x8204ADF1F62B6C6578706572696D656E74616CF564736F6C634300 SDIV GT STOP BLOCKHASH "
            }
        }
    },
    "sourceTreeHashHex": "0xb6527c54911b970811d496653ccdb01e8fb1fa5cb82d0b0ebc20f92bda189fd1",
    "compiler": {
        "name": "solc",
        "version": "0.5.17+commit.d19bba13",
        "settings": {
            "remappings": [
                "@0x/contracts-asset-proxy=/Users/rickmorty/Documents/projects/0x/0x-monorepo/node_modules/@0x/contracts-asset-proxy",
                "@0x/contracts-exchange=/Users/rickmorty/Documents/projects/0x/0x-monorepo/node_modules/@0x/contracts-exchange",
                "@0x/contracts-exchange-libs=/Users/rickmorty/Documents/projects/0x/0x-monorepo/node_modules/@0x/contracts-exchange-libs",
                "@0x/contracts-utils=/Users/rickmorty/Documents/projects/0x/0x-monorepo/node_modules/@0x/contracts-utils",
                "@0x/contracts-erc20=/Users/rickmorty/Documents/projects/0x/0x-monorepo/node_modules/@0x/contracts-erc20",
                "@0x/contracts-erc721=/Users/rickmorty/Documents/projects/0x/0x-monorepo/node_modules/@0x/contracts-erc721",
                "@0x/contracts-erc1155=/Users/rickmorty/Documents/projects/0x/0x-monorepo/node_modules/@0x/contracts-erc1155"
            ],
            "optimizer": {
                "enabled": true,
                "runs": 5000,
                "details": {
                    "yul": true,
                    "deduplicate": true,
                    "cse": true,
                    "constantOptimizer": true
                }
            },
            "outputSelection": {
                "*": {
                    "*": [
                        "abi",
                        "devdoc",
                        "evm.bytecode.object",
                        "evm.bytecode.sourceMap",
                        "evm.deployedBytecode.object",
                        "evm.deployedBytecode.sourceMap"
                    ]
                }
            },
            "evmVersion": "istanbul"
        }
    },
    "chains": {}
}