{
    "schemaVersion": "2.0.0",
    "contractName": "ERC20BridgeSampler",
    "compilerOutput": {
        "abi": [
            {
                "inputs": [
                    {
                        "components": [
                            {
                                "internalType": "uint256",
                                "name": "reserveOffset",
                                "type": "uint256"
                            },
                            {
                                "internalType": "address",
                                "name": "hintHandler",
                                "type": "address"
                            },
                            {
                                "internalType": "address",
                                "name": "networkProxy",
                                "type": "address"
                            },
                            {
                                "internalType": "address",
                                "name": "weth",
                                "type": "address"
                            },
                            {
                                "internalType": "bytes",
                                "name": "hint",
                                "type": "bytes"
                            }
                        ],
                        "internalType": "struct KyberSampler.KyberSamplerOpts",
                        "name": "opts",
                        "type": "tuple"
                    },
                    {
                        "internalType": "bytes32",
                        "name": "reserveId",
                        "type": "bytes32"
                    },
                    {
                        "internalType": "address",
                        "name": "takerToken",
                        "type": "address"
                    },
                    {
                        "internalType": "address",
                        "name": "makerToken",
                        "type": "address"
                    }
                ],
                "name": "encodeKyberHint",
                "outputs": [
                    {
                        "internalType": "bytes",
                        "name": "hint",
                        "type": "bytes"
                    }
                ],
                "stateMutability": "view",
                "type": "function"
            },
            {
                "inputs": [
                    {
                        "internalType": "address",
                        "name": "poolAddress",
                        "type": "address"
                    },
                    {
                        "internalType": "address",
                        "name": "takerToken",
                        "type": "address"
                    },
                    {
                        "internalType": "address",
                        "name": "makerToken",
                        "type": "address"
                    },
                    {
                        "internalType": "uint256[]",
                        "name": "makerTokenAmounts",
                        "type": "uint256[]"
                    }
                ],
                "name": "sampleBuysFromBalancer",
                "outputs": [
                    {
                        "internalType": "uint256[]",
                        "name": "takerTokenAmounts",
                        "type": "uint256[]"
                    }
                ],
                "stateMutability": "view",
                "type": "function"
            },
            {
                "inputs": [
                    {
                        "components": [
                            {
                                "internalType": "bytes32",
                                "name": "poolId",
                                "type": "bytes32"
                            },
                            {
                                "internalType": "address",
                                "name": "vault",
                                "type": "address"
                            }
                        ],
                        "internalType": "struct BalancerV2Sampler.BalancerV2PoolInfo",
                        "name": "poolInfo",
                        "type": "tuple"
                    },
                    {
                        "internalType": "address",
                        "name": "takerToken",
                        "type": "address"
                    },
                    {
                        "internalType": "address",
                        "name": "makerToken",
                        "type": "address"
                    },
                    {
                        "internalType": "uint256[]",
                        "name": "makerTokenAmounts",
                        "type": "uint256[]"
                    }
                ],
                "name": "sampleBuysFromBalancerV2",
                "outputs": [
                    {
                        "internalType": "uint256[]",
                        "name": "takerTokenAmounts",
                        "type": "uint256[]"
                    }
                ],
                "stateMutability": "nonpayable",
                "type": "function"
            },
            {
                "inputs": [
                    {
                        "components": [
                            {
                                "internalType": "contract IBancorRegistry",
                                "name": "registry",
                                "type": "address"
                            },
                            {
                                "internalType": "address[][]",
                                "name": "paths",
                                "type": "address[][]"
                            }
                        ],
                        "internalType": "struct BancorSampler.BancorSamplerOpts",
                        "name": "opts",
                        "type": "tuple"
                    },
                    {
                        "internalType": "address",
                        "name": "takerToken",
                        "type": "address"
                    },
                    {
                        "internalType": "address",
                        "name": "makerToken",
                        "type": "address"
                    },
                    {
                        "internalType": "uint256[]",
                        "name": "makerTokenAmounts",
                        "type": "uint256[]"
                    }
                ],
                "name": "sampleBuysFromBancor",
                "outputs": [
                    {
                        "internalType": "address",
                        "name": "bancorNetwork",
                        "type": "address"
                    },
                    {
                        "internalType": "address[]",
                        "name": "path",
                        "type": "address[]"
                    },
                    {
                        "internalType": "uint256[]",
                        "name": "takerTokenAmounts",
                        "type": "uint256[]"
                    }
                ],
                "stateMutability": "view",
                "type": "function"
            },
            {
                "inputs": [
                    {
                        "components": [
                            {
                                "internalType": "address",
                                "name": "poolAddress",
                                "type": "address"
                            },
                            {
                                "internalType": "bytes4",
                                "name": "sellQuoteFunctionSelector",
                                "type": "bytes4"
                            },
                            {
                                "internalType": "bytes4",
                                "name": "buyQuoteFunctionSelector",
                                "type": "bytes4"
                            }
                        ],
                        "internalType": "struct CurveSampler.CurveInfo",
                        "name": "curveInfo",
                        "type": "tuple"
                    },
                    {
                        "internalType": "int128",
                        "name": "fromTokenIdx",
                        "type": "int128"
                    },
                    {
                        "internalType": "int128",
                        "name": "toTokenIdx",
                        "type": "int128"
                    },
                    {
                        "internalType": "uint256[]",
                        "name": "makerTokenAmounts",
                        "type": "uint256[]"
                    }
                ],
                "name": "sampleBuysFromCurve",
                "outputs": [
                    {
                        "internalType": "uint256[]",
                        "name": "takerTokenAmounts",
                        "type": "uint256[]"
                    }
                ],
                "stateMutability": "view",
                "type": "function"
            },
            {
                "inputs": [
                    {
                        "components": [
                            {
                                "internalType": "address",
                                "name": "registry",
                                "type": "address"
                            },
                            {
                                "internalType": "address",
                                "name": "helper",
                                "type": "address"
                            }
                        ],
                        "internalType": "struct DODOSampler.DODOSamplerOpts",
                        "name": "opts",
                        "type": "tuple"
                    },
                    {
                        "internalType": "address",
                        "name": "takerToken",
                        "type": "address"
                    },
                    {
                        "internalType": "address",
                        "name": "makerToken",
                        "type": "address"
                    },
                    {
                        "internalType": "uint256[]",
                        "name": "makerTokenAmounts",
                        "type": "uint256[]"
                    }
                ],
                "name": "sampleBuysFromDODO",
                "outputs": [
                    {
                        "internalType": "bool",
                        "name": "sellBase",
                        "type": "bool"
                    },
                    {
                        "internalType": "address",
                        "name": "pool",
                        "type": "address"
                    },
                    {
                        "internalType": "uint256[]",
                        "name": "takerTokenAmounts",
                        "type": "uint256[]"
                    }
                ],
                "stateMutability": "view",
                "type": "function"
            },
            {
                "inputs": [
                    {
                        "internalType": "address",
                        "name": "registry",
                        "type": "address"
                    },
                    {
                        "internalType": "uint256",
                        "name": "offset",
                        "type": "uint256"
                    },
                    {
                        "internalType": "address",
                        "name": "takerToken",
                        "type": "address"
                    },
                    {
                        "internalType": "address",
                        "name": "makerToken",
                        "type": "address"
                    },
                    {
                        "internalType": "uint256[]",
                        "name": "makerTokenAmounts",
                        "type": "uint256[]"
                    }
                ],
                "name": "sampleBuysFromDODOV2",
                "outputs": [
                    {
                        "internalType": "bool",
                        "name": "sellBase",
                        "type": "bool"
                    },
                    {
                        "internalType": "address",
                        "name": "pool",
                        "type": "address"
                    },
                    {
                        "internalType": "uint256[]",
                        "name": "takerTokenAmounts",
                        "type": "uint256[]"
                    }
                ],
                "stateMutability": "view",
                "type": "function"
            },
            {
                "inputs": [
                    {
                        "internalType": "address",
                        "name": "router",
                        "type": "address"
                    },
                    {
                        "internalType": "address",
                        "name": "takerToken",
                        "type": "address"
                    },
                    {
                        "internalType": "address",
                        "name": "makerToken",
                        "type": "address"
                    },
                    {
                        "internalType": "uint256[]",
                        "name": "makerTokenAmounts",
                        "type": "uint256[]"
                    }
                ],
                "name": "sampleBuysFromEth2Dai",
                "outputs": [
                    {
                        "internalType": "uint256[]",
                        "name": "takerTokenAmounts",
                        "type": "uint256[]"
                    }
                ],
                "stateMutability": "view",
                "type": "function"
            },
            {
                "inputs": [
                    {
                        "internalType": "address",
                        "name": "router",
                        "type": "address"
                    },
                    {
                        "internalType": "address[]",
                        "name": "path",
                        "type": "address[]"
                    },
                    {
                        "internalType": "uint256[]",
                        "name": "makerTokenAmounts",
                        "type": "uint256[]"
                    }
                ],
                "name": "sampleBuysFromKyberDmm",
                "outputs": [
                    {
                        "internalType": "address[]",
                        "name": "pools",
                        "type": "address[]"
                    },
                    {
                        "internalType": "uint256[]",
                        "name": "takerTokenAmounts",
                        "type": "uint256[]"
                    }
                ],
                "stateMutability": "view",
                "type": "function"
            },
            {
                "inputs": [
                    {
                        "components": [
                            {
                                "internalType": "uint256",
                                "name": "reserveOffset",
                                "type": "uint256"
                            },
                            {
                                "internalType": "address",
                                "name": "hintHandler",
                                "type": "address"
                            },
                            {
                                "internalType": "address",
                                "name": "networkProxy",
                                "type": "address"
                            },
                            {
                                "internalType": "address",
                                "name": "weth",
                                "type": "address"
                            },
                            {
                                "internalType": "bytes",
                                "name": "hint",
                                "type": "bytes"
                            }
                        ],
                        "internalType": "struct KyberSampler.KyberSamplerOpts",
                        "name": "opts",
                        "type": "tuple"
                    },
                    {
                        "internalType": "address",
                        "name": "takerToken",
                        "type": "address"
                    },
                    {
                        "internalType": "address",
                        "name": "makerToken",
                        "type": "address"
                    },
                    {
                        "internalType": "uint256[]",
                        "name": "makerTokenAmounts",
                        "type": "uint256[]"
                    }
                ],
                "name": "sampleBuysFromKyberNetwork",
                "outputs": [
                    {
                        "internalType": "bytes32",
                        "name": "reserveId",
                        "type": "bytes32"
                    },
                    {
                        "internalType": "bytes",
                        "name": "hint",
                        "type": "bytes"
                    },
                    {
                        "internalType": "uint256[]",
                        "name": "takerTokenAmounts",
                        "type": "uint256[]"
                    }
                ],
                "stateMutability": "view",
                "type": "function"
            },
            {
                "inputs": [
                    {
                        "components": [
                            {
                                "internalType": "address",
                                "name": "stEthToken",
                                "type": "address"
                            },
                            {
                                "internalType": "address",
                                "name": "wethToken",
                                "type": "address"
                            }
                        ],
                        "internalType": "struct LidoSampler.LidoInfo",
                        "name": "lidoInfo",
                        "type": "tuple"
                    },
                    {
                        "internalType": "address",
                        "name": "takerToken",
                        "type": "address"
                    },
                    {
                        "internalType": "address",
                        "name": "makerToken",
                        "type": "address"
                    },
                    {
                        "internalType": "uint256[]",
                        "name": "makerTokenAmounts",
                        "type": "uint256[]"
                    }
                ],
                "name": "sampleBuysFromLido",
                "outputs": [
                    {
                        "internalType": "uint256[]",
                        "name": "",
                        "type": "uint256[]"
                    }
                ],
                "stateMutability": "pure",
                "type": "function"
            },
            {
                "inputs": [
                    {
                        "internalType": "address",
                        "name": "providerAddress",
                        "type": "address"
                    },
                    {
                        "internalType": "address",
                        "name": "takerToken",
                        "type": "address"
                    },
                    {
                        "internalType": "address",
                        "name": "makerToken",
                        "type": "address"
                    },
                    {
                        "internalType": "uint256[]",
                        "name": "makerTokenAmounts",
                        "type": "uint256[]"
                    }
                ],
                "name": "sampleBuysFromLiquidityProvider",
                "outputs": [
                    {
                        "internalType": "uint256[]",
                        "name": "takerTokenAmounts",
                        "type": "uint256[]"
                    }
                ],
                "stateMutability": "view",
                "type": "function"
            },
            {
                "inputs": [
                    {
                        "internalType": "address",
                        "name": "router",
                        "type": "address"
                    },
                    {
                        "internalType": "address",
                        "name": "takerToken",
                        "type": "address"
                    },
                    {
                        "internalType": "address",
                        "name": "makerToken",
                        "type": "address"
                    },
                    {
                        "internalType": "uint256[]",
                        "name": "makerTokenAmounts",
                        "type": "uint256[]"
                    }
                ],
                "name": "sampleBuysFromMStable",
                "outputs": [
                    {
                        "internalType": "uint256[]",
                        "name": "takerTokenAmounts",
                        "type": "uint256[]"
                    }
                ],
                "stateMutability": "view",
                "type": "function"
            },
            {
                "inputs": [
                    {
                        "components": [
                            {
                                "internalType": "address",
                                "name": "psmAddress",
                                "type": "address"
                            },
                            {
                                "internalType": "bytes32",
                                "name": "ilkIdentifier",
                                "type": "bytes32"
                            },
                            {
                                "internalType": "address",
                                "name": "gemTokenAddress",
                                "type": "address"
                            }
                        ],
                        "internalType": "struct MakerPSMSampler.MakerPsmInfo",
                        "name": "psmInfo",
                        "type": "tuple"
                    },
                    {
                        "internalType": "address",
                        "name": "takerToken",
                        "type": "address"
                    },
                    {
                        "internalType": "address",
                        "name": "makerToken",
                        "type": "address"
                    },
                    {
                        "internalType": "uint256[]",
                        "name": "makerTokenAmounts",
                        "type": "uint256[]"
                    }
                ],
                "name": "sampleBuysFromMakerPsm",
                "outputs": [
                    {
                        "internalType": "uint256[]",
                        "name": "takerTokenAmounts",
                        "type": "uint256[]"
                    }
                ],
                "stateMutability": "view",
                "type": "function"
            },
            {
                "inputs": [
                    {
                        "internalType": "address",
                        "name": "registry",
                        "type": "address"
                    },
                    {
                        "internalType": "address",
                        "name": "takerToken",
                        "type": "address"
                    },
                    {
                        "internalType": "address",
                        "name": "makerToken",
                        "type": "address"
                    },
                    {
                        "internalType": "uint256[]",
                        "name": "makerTokenAmounts",
                        "type": "uint256[]"
                    }
                ],
                "name": "sampleBuysFromMooniswap",
                "outputs": [
                    {
                        "internalType": "contract IMooniswap",
                        "name": "pool",
                        "type": "address"
                    },
                    {
                        "internalType": "uint256[]",
                        "name": "takerTokenAmounts",
                        "type": "uint256[]"
                    }
                ],
                "stateMutability": "view",
                "type": "function"
            },
            {
                "inputs": [
                    {
                        "internalType": "address",
                        "name": "pool",
                        "type": "address"
                    },
                    {
                        "internalType": "address",
                        "name": "takerToken",
                        "type": "address"
                    },
                    {
                        "internalType": "address",
                        "name": "makerToken",
                        "type": "address"
                    },
                    {
                        "internalType": "uint256[]",
                        "name": "makerTokenAmounts",
                        "type": "uint256[]"
                    }
                ],
                "name": "sampleBuysFromShell",
                "outputs": [
                    {
                        "internalType": "uint256[]",
                        "name": "takerTokenAmounts",
                        "type": "uint256[]"
                    }
                ],
                "stateMutability": "view",
                "type": "function"
            },
            {
                "inputs": [
                    {
                        "components": [
                            {
                                "internalType": "address",
                                "name": "poolAddress",
                                "type": "address"
                            },
                            {
                                "internalType": "bytes4",
                                "name": "sellQuoteFunctionSelector",
                                "type": "bytes4"
                            },
                            {
                                "internalType": "bytes4",
                                "name": "buyQuoteFunctionSelector",
                                "type": "bytes4"
                            }
                        ],
                        "internalType": "struct SmoothySampler.SmoothyInfo",
                        "name": "smoothyInfo",
                        "type": "tuple"
                    },
                    {
                        "internalType": "int128",
                        "name": "fromTokenIdx",
                        "type": "int128"
                    },
                    {
                        "internalType": "int128",
                        "name": "toTokenIdx",
                        "type": "int128"
                    },
                    {
                        "internalType": "uint256[]",
                        "name": "makerTokenAmounts",
                        "type": "uint256[]"
                    }
                ],
                "name": "sampleBuysFromSmoothy",
                "outputs": [
                    {
                        "internalType": "uint256[]",
                        "name": "takerTokenAmounts",
                        "type": "uint256[]"
                    }
                ],
                "stateMutability": "view",
                "type": "function"
            },
            {
                "inputs": [
                    {
                        "internalType": "address",
                        "name": "router",
                        "type": "address"
                    },
                    {
                        "internalType": "address",
                        "name": "takerToken",
                        "type": "address"
                    },
                    {
                        "internalType": "address",
                        "name": "makerToken",
                        "type": "address"
                    },
                    {
                        "internalType": "uint256[]",
                        "name": "makerTokenAmounts",
                        "type": "uint256[]"
                    }
                ],
                "name": "sampleBuysFromUniswap",
                "outputs": [
                    {
                        "internalType": "uint256[]",
                        "name": "takerTokenAmounts",
                        "type": "uint256[]"
                    }
                ],
                "stateMutability": "view",
                "type": "function"
            },
            {
                "inputs": [
                    {
                        "internalType": "address",
                        "name": "router",
                        "type": "address"
                    },
                    {
                        "internalType": "address[]",
                        "name": "path",
                        "type": "address[]"
                    },
                    {
                        "internalType": "uint256[]",
                        "name": "makerTokenAmounts",
                        "type": "uint256[]"
                    }
                ],
                "name": "sampleBuysFromUniswapV2",
                "outputs": [
                    {
                        "internalType": "uint256[]",
                        "name": "takerTokenAmounts",
                        "type": "uint256[]"
                    }
                ],
                "stateMutability": "view",
                "type": "function"
            },
            {
                "inputs": [
                    {
                        "components": [
                            {
                                "internalType": "uint256",
                                "name": "reserveOffset",
                                "type": "uint256"
                            },
                            {
                                "internalType": "address",
                                "name": "hintHandler",
                                "type": "address"
                            },
                            {
                                "internalType": "address",
                                "name": "networkProxy",
                                "type": "address"
                            },
                            {
                                "internalType": "address",
                                "name": "weth",
                                "type": "address"
                            },
                            {
                                "internalType": "bytes",
                                "name": "hint",
                                "type": "bytes"
                            }
                        ],
                        "internalType": "struct KyberSampler.KyberSamplerOpts",
                        "name": "opts",
                        "type": "tuple"
                    },
                    {
                        "internalType": "address",
                        "name": "takerToken",
                        "type": "address"
                    },
                    {
                        "internalType": "address",
                        "name": "makerToken",
                        "type": "address"
                    },
                    {
                        "internalType": "uint256",
                        "name": "takerTokenAmount",
                        "type": "uint256"
                    }
                ],
                "name": "sampleSellFromKyberNetwork",
                "outputs": [
                    {
                        "internalType": "uint256",
                        "name": "makerTokenAmount",
                        "type": "uint256"
                    }
                ],
                "stateMutability": "view",
                "type": "function"
            },
            {
                "inputs": [
                    {
                        "internalType": "address",
                        "name": "poolAddress",
                        "type": "address"
                    },
                    {
                        "internalType": "address",
                        "name": "takerToken",
                        "type": "address"
                    },
                    {
                        "internalType": "address",
                        "name": "makerToken",
                        "type": "address"
                    },
                    {
                        "internalType": "uint256[]",
                        "name": "takerTokenAmounts",
                        "type": "uint256[]"
                    }
                ],
                "name": "sampleSellsFromBalancer",
                "outputs": [
                    {
                        "internalType": "uint256[]",
                        "name": "makerTokenAmounts",
                        "type": "uint256[]"
                    }
                ],
                "stateMutability": "view",
                "type": "function"
            },
            {
                "inputs": [
                    {
                        "components": [
                            {
                                "internalType": "bytes32",
                                "name": "poolId",
                                "type": "bytes32"
                            },
                            {
                                "internalType": "address",
                                "name": "vault",
                                "type": "address"
                            }
                        ],
                        "internalType": "struct BalancerV2Sampler.BalancerV2PoolInfo",
                        "name": "poolInfo",
                        "type": "tuple"
                    },
                    {
                        "internalType": "address",
                        "name": "takerToken",
                        "type": "address"
                    },
                    {
                        "internalType": "address",
                        "name": "makerToken",
                        "type": "address"
                    },
                    {
                        "internalType": "uint256[]",
                        "name": "takerTokenAmounts",
                        "type": "uint256[]"
                    }
                ],
                "name": "sampleSellsFromBalancerV2",
                "outputs": [
                    {
                        "internalType": "uint256[]",
                        "name": "makerTokenAmounts",
                        "type": "uint256[]"
                    }
                ],
                "stateMutability": "nonpayable",
                "type": "function"
            },
            {
                "inputs": [
                    {
                        "components": [
                            {
                                "internalType": "contract IBancorRegistry",
                                "name": "registry",
                                "type": "address"
                            },
                            {
                                "internalType": "address[][]",
                                "name": "paths",
                                "type": "address[][]"
                            }
                        ],
                        "internalType": "struct BancorSampler.BancorSamplerOpts",
                        "name": "opts",
                        "type": "tuple"
                    },
                    {
                        "internalType": "address",
                        "name": "takerToken",
                        "type": "address"
                    },
                    {
                        "internalType": "address",
                        "name": "makerToken",
                        "type": "address"
                    },
                    {
                        "internalType": "uint256[]",
                        "name": "takerTokenAmounts",
                        "type": "uint256[]"
                    }
                ],
                "name": "sampleSellsFromBancor",
                "outputs": [
                    {
                        "internalType": "address",
                        "name": "bancorNetwork",
                        "type": "address"
                    },
                    {
                        "internalType": "address[]",
                        "name": "path",
                        "type": "address[]"
                    },
                    {
                        "internalType": "uint256[]",
                        "name": "makerTokenAmounts",
                        "type": "uint256[]"
                    }
                ],
                "stateMutability": "view",
                "type": "function"
            },
            {
                "inputs": [
                    {
                        "components": [
                            {
                                "internalType": "address",
                                "name": "poolAddress",
                                "type": "address"
                            },
                            {
                                "internalType": "bytes4",
                                "name": "sellQuoteFunctionSelector",
                                "type": "bytes4"
                            },
                            {
                                "internalType": "bytes4",
                                "name": "buyQuoteFunctionSelector",
                                "type": "bytes4"
                            }
                        ],
                        "internalType": "struct CurveSampler.CurveInfo",
                        "name": "curveInfo",
                        "type": "tuple"
                    },
                    {
                        "internalType": "int128",
                        "name": "fromTokenIdx",
                        "type": "int128"
                    },
                    {
                        "internalType": "int128",
                        "name": "toTokenIdx",
                        "type": "int128"
                    },
                    {
                        "internalType": "uint256[]",
                        "name": "takerTokenAmounts",
                        "type": "uint256[]"
                    }
                ],
                "name": "sampleSellsFromCurve",
                "outputs": [
                    {
                        "internalType": "uint256[]",
                        "name": "makerTokenAmounts",
                        "type": "uint256[]"
                    }
                ],
                "stateMutability": "view",
                "type": "function"
            },
            {
                "inputs": [
                    {
                        "components": [
                            {
                                "internalType": "address",
                                "name": "registry",
                                "type": "address"
                            },
                            {
                                "internalType": "address",
                                "name": "helper",
                                "type": "address"
                            }
                        ],
                        "internalType": "struct DODOSampler.DODOSamplerOpts",
                        "name": "opts",
                        "type": "tuple"
                    },
                    {
                        "internalType": "address",
                        "name": "takerToken",
                        "type": "address"
                    },
                    {
                        "internalType": "address",
                        "name": "makerToken",
                        "type": "address"
                    },
                    {
                        "internalType": "uint256[]",
                        "name": "takerTokenAmounts",
                        "type": "uint256[]"
                    }
                ],
                "name": "sampleSellsFromDODO",
                "outputs": [
                    {
                        "internalType": "bool",
                        "name": "sellBase",
                        "type": "bool"
                    },
                    {
                        "internalType": "address",
                        "name": "pool",
                        "type": "address"
                    },
                    {
                        "internalType": "uint256[]",
                        "name": "makerTokenAmounts",
                        "type": "uint256[]"
                    }
                ],
                "stateMutability": "view",
                "type": "function"
            },
            {
                "inputs": [
                    {
                        "internalType": "address",
                        "name": "registry",
                        "type": "address"
                    },
                    {
                        "internalType": "uint256",
                        "name": "offset",
                        "type": "uint256"
                    },
                    {
                        "internalType": "address",
                        "name": "takerToken",
                        "type": "address"
                    },
                    {
                        "internalType": "address",
                        "name": "makerToken",
                        "type": "address"
                    },
                    {
                        "internalType": "uint256[]",
                        "name": "takerTokenAmounts",
                        "type": "uint256[]"
                    }
                ],
                "name": "sampleSellsFromDODOV2",
                "outputs": [
                    {
                        "internalType": "bool",
                        "name": "sellBase",
                        "type": "bool"
                    },
                    {
                        "internalType": "address",
                        "name": "pool",
                        "type": "address"
                    },
                    {
                        "internalType": "uint256[]",
                        "name": "makerTokenAmounts",
                        "type": "uint256[]"
                    }
                ],
                "stateMutability": "view",
                "type": "function"
            },
            {
                "inputs": [
                    {
                        "internalType": "address",
                        "name": "router",
                        "type": "address"
                    },
                    {
                        "internalType": "address",
                        "name": "takerToken",
                        "type": "address"
                    },
                    {
                        "internalType": "address",
                        "name": "makerToken",
                        "type": "address"
                    },
                    {
                        "internalType": "uint256[]",
                        "name": "takerTokenAmounts",
                        "type": "uint256[]"
                    }
                ],
                "name": "sampleSellsFromEth2Dai",
                "outputs": [
                    {
                        "internalType": "uint256[]",
                        "name": "makerTokenAmounts",
                        "type": "uint256[]"
                    }
                ],
                "stateMutability": "view",
                "type": "function"
            },
            {
                "inputs": [
                    {
                        "internalType": "address",
                        "name": "router",
                        "type": "address"
                    },
                    {
                        "internalType": "address[]",
                        "name": "path",
                        "type": "address[]"
                    },
                    {
                        "internalType": "uint256[]",
                        "name": "takerTokenAmounts",
                        "type": "uint256[]"
                    }
                ],
                "name": "sampleSellsFromKyberDmm",
                "outputs": [
                    {
                        "internalType": "address[]",
                        "name": "pools",
                        "type": "address[]"
                    },
                    {
                        "internalType": "uint256[]",
                        "name": "makerTokenAmounts",
                        "type": "uint256[]"
                    }
                ],
                "stateMutability": "view",
                "type": "function"
            },
            {
                "inputs": [
                    {
                        "components": [
                            {
                                "internalType": "uint256",
                                "name": "reserveOffset",
                                "type": "uint256"
                            },
                            {
                                "internalType": "address",
                                "name": "hintHandler",
                                "type": "address"
                            },
                            {
                                "internalType": "address",
                                "name": "networkProxy",
                                "type": "address"
                            },
                            {
                                "internalType": "address",
                                "name": "weth",
                                "type": "address"
                            },
                            {
                                "internalType": "bytes",
                                "name": "hint",
                                "type": "bytes"
                            }
                        ],
                        "internalType": "struct KyberSampler.KyberSamplerOpts",
                        "name": "opts",
                        "type": "tuple"
                    },
                    {
                        "internalType": "address",
                        "name": "takerToken",
                        "type": "address"
                    },
                    {
                        "internalType": "address",
                        "name": "makerToken",
                        "type": "address"
                    },
                    {
                        "internalType": "uint256[]",
                        "name": "takerTokenAmounts",
                        "type": "uint256[]"
                    }
                ],
                "name": "sampleSellsFromKyberNetwork",
                "outputs": [
                    {
                        "internalType": "bytes32",
                        "name": "reserveId",
                        "type": "bytes32"
                    },
                    {
                        "internalType": "bytes",
                        "name": "hint",
                        "type": "bytes"
                    },
                    {
                        "internalType": "uint256[]",
                        "name": "makerTokenAmounts",
                        "type": "uint256[]"
                    }
                ],
                "stateMutability": "view",
                "type": "function"
            },
            {
                "inputs": [
                    {
                        "components": [
                            {
                                "internalType": "address",
                                "name": "stEthToken",
                                "type": "address"
                            },
                            {
                                "internalType": "address",
                                "name": "wethToken",
                                "type": "address"
                            }
                        ],
                        "internalType": "struct LidoSampler.LidoInfo",
                        "name": "lidoInfo",
                        "type": "tuple"
                    },
                    {
                        "internalType": "address",
                        "name": "takerToken",
                        "type": "address"
                    },
                    {
                        "internalType": "address",
                        "name": "makerToken",
                        "type": "address"
                    },
                    {
                        "internalType": "uint256[]",
                        "name": "takerTokenAmounts",
                        "type": "uint256[]"
                    }
                ],
                "name": "sampleSellsFromLido",
                "outputs": [
                    {
                        "internalType": "uint256[]",
                        "name": "",
                        "type": "uint256[]"
                    }
                ],
                "stateMutability": "pure",
                "type": "function"
            },
            {
                "inputs": [
                    {
                        "internalType": "address",
                        "name": "providerAddress",
                        "type": "address"
                    },
                    {
                        "internalType": "address",
                        "name": "takerToken",
                        "type": "address"
                    },
                    {
                        "internalType": "address",
                        "name": "makerToken",
                        "type": "address"
                    },
                    {
                        "internalType": "uint256[]",
                        "name": "takerTokenAmounts",
                        "type": "uint256[]"
                    }
                ],
                "name": "sampleSellsFromLiquidityProvider",
                "outputs": [
                    {
                        "internalType": "uint256[]",
                        "name": "makerTokenAmounts",
                        "type": "uint256[]"
                    }
                ],
                "stateMutability": "view",
                "type": "function"
            },
            {
                "inputs": [
                    {
                        "internalType": "address",
                        "name": "router",
                        "type": "address"
                    },
                    {
                        "internalType": "address",
                        "name": "takerToken",
                        "type": "address"
                    },
                    {
                        "internalType": "address",
                        "name": "makerToken",
                        "type": "address"
                    },
                    {
                        "internalType": "uint256[]",
                        "name": "takerTokenAmounts",
                        "type": "uint256[]"
                    }
                ],
                "name": "sampleSellsFromMStable",
                "outputs": [
                    {
                        "internalType": "uint256[]",
                        "name": "makerTokenAmounts",
                        "type": "uint256[]"
                    }
                ],
                "stateMutability": "view",
                "type": "function"
            },
            {
                "inputs": [
                    {
                        "components": [
                            {
                                "internalType": "address",
                                "name": "psmAddress",
                                "type": "address"
                            },
                            {
                                "internalType": "bytes32",
                                "name": "ilkIdentifier",
                                "type": "bytes32"
                            },
                            {
                                "internalType": "address",
                                "name": "gemTokenAddress",
                                "type": "address"
                            }
                        ],
                        "internalType": "struct MakerPSMSampler.MakerPsmInfo",
                        "name": "psmInfo",
                        "type": "tuple"
                    },
                    {
                        "internalType": "address",
                        "name": "takerToken",
                        "type": "address"
                    },
                    {
                        "internalType": "address",
                        "name": "makerToken",
                        "type": "address"
                    },
                    {
                        "internalType": "uint256[]",
                        "name": "takerTokenAmounts",
                        "type": "uint256[]"
                    }
                ],
                "name": "sampleSellsFromMakerPsm",
                "outputs": [
                    {
                        "internalType": "uint256[]",
                        "name": "makerTokenAmounts",
                        "type": "uint256[]"
                    }
                ],
                "stateMutability": "view",
                "type": "function"
            },
            {
                "inputs": [
                    {
                        "internalType": "address",
                        "name": "registry",
                        "type": "address"
                    },
                    {
                        "internalType": "address",
                        "name": "takerToken",
                        "type": "address"
                    },
                    {
                        "internalType": "address",
                        "name": "makerToken",
                        "type": "address"
                    },
                    {
                        "internalType": "uint256[]",
                        "name": "takerTokenAmounts",
                        "type": "uint256[]"
                    }
                ],
                "name": "sampleSellsFromMooniswap",
                "outputs": [
                    {
                        "internalType": "contract IMooniswap",
                        "name": "pool",
                        "type": "address"
                    },
                    {
                        "internalType": "uint256[]",
                        "name": "makerTokenAmounts",
                        "type": "uint256[]"
                    }
                ],
                "stateMutability": "view",
                "type": "function"
            },
            {
                "inputs": [
                    {
                        "internalType": "address",
                        "name": "multibridge",
                        "type": "address"
                    },
                    {
                        "internalType": "address",
                        "name": "takerToken",
                        "type": "address"
                    },
                    {
                        "internalType": "address",
                        "name": "intermediateToken",
                        "type": "address"
                    },
                    {
                        "internalType": "address",
                        "name": "makerToken",
                        "type": "address"
                    },
                    {
                        "internalType": "uint256[]",
                        "name": "takerTokenAmounts",
                        "type": "uint256[]"
                    }
                ],
                "name": "sampleSellsFromMultiBridge",
                "outputs": [
                    {
                        "internalType": "uint256[]",
                        "name": "makerTokenAmounts",
                        "type": "uint256[]"
                    }
                ],
                "stateMutability": "view",
                "type": "function"
            },
            {
                "inputs": [
                    {
                        "internalType": "address",
                        "name": "pool",
                        "type": "address"
                    },
                    {
                        "internalType": "address",
                        "name": "takerToken",
                        "type": "address"
                    },
                    {
                        "internalType": "address",
                        "name": "makerToken",
                        "type": "address"
                    },
                    {
                        "internalType": "uint256[]",
                        "name": "takerTokenAmounts",
                        "type": "uint256[]"
                    }
                ],
                "name": "sampleSellsFromShell",
                "outputs": [
                    {
                        "internalType": "uint256[]",
                        "name": "makerTokenAmounts",
                        "type": "uint256[]"
                    }
                ],
                "stateMutability": "view",
                "type": "function"
            },
            {
                "inputs": [
                    {
                        "components": [
                            {
                                "internalType": "address",
                                "name": "poolAddress",
                                "type": "address"
                            },
                            {
                                "internalType": "bytes4",
                                "name": "sellQuoteFunctionSelector",
                                "type": "bytes4"
                            },
                            {
                                "internalType": "bytes4",
                                "name": "buyQuoteFunctionSelector",
                                "type": "bytes4"
                            }
                        ],
                        "internalType": "struct SmoothySampler.SmoothyInfo",
                        "name": "smoothyInfo",
                        "type": "tuple"
                    },
                    {
                        "internalType": "int128",
                        "name": "fromTokenIdx",
                        "type": "int128"
                    },
                    {
                        "internalType": "int128",
                        "name": "toTokenIdx",
                        "type": "int128"
                    },
                    {
                        "internalType": "uint256[]",
                        "name": "takerTokenAmounts",
                        "type": "uint256[]"
                    }
                ],
                "name": "sampleSellsFromSmoothy",
                "outputs": [
                    {
                        "internalType": "uint256[]",
                        "name": "makerTokenAmounts",
                        "type": "uint256[]"
                    }
                ],
                "stateMutability": "view",
                "type": "function"
            },
            {
                "inputs": [
                    {
                        "internalType": "address",
                        "name": "router",
                        "type": "address"
                    },
                    {
                        "internalType": "address",
                        "name": "takerToken",
                        "type": "address"
                    },
                    {
                        "internalType": "address",
                        "name": "makerToken",
                        "type": "address"
                    },
                    {
                        "internalType": "uint256[]",
                        "name": "takerTokenAmounts",
                        "type": "uint256[]"
                    }
                ],
                "name": "sampleSellsFromUniswap",
                "outputs": [
                    {
                        "internalType": "uint256[]",
                        "name": "makerTokenAmounts",
                        "type": "uint256[]"
                    }
                ],
                "stateMutability": "view",
                "type": "function"
            },
            {
                "inputs": [
                    {
                        "internalType": "address",
                        "name": "router",
                        "type": "address"
                    },
                    {
                        "internalType": "address[]",
                        "name": "path",
                        "type": "address[]"
                    },
                    {
                        "internalType": "uint256[]",
                        "name": "takerTokenAmounts",
                        "type": "uint256[]"
                    }
                ],
                "name": "sampleSellsFromUniswapV2",
                "outputs": [
                    {
                        "internalType": "uint256[]",
                        "name": "makerTokenAmounts",
                        "type": "uint256[]"
                    }
                ],
                "stateMutability": "view",
                "type": "function"
            },
            {
                "inputs": [
                    {
                        "internalType": "address",
                        "name": "registry",
                        "type": "address"
                    },
                    {
                        "internalType": "address",
                        "name": "mooniswapTakerToken",
                        "type": "address"
                    },
                    {
                        "internalType": "address",
                        "name": "mooniswapMakerToken",
                        "type": "address"
                    },
                    {
                        "internalType": "uint256",
                        "name": "takerTokenAmount",
                        "type": "uint256"
                    }
                ],
                "name": "sampleSingleSellFromMooniswapPool",
                "outputs": [
                    {
                        "internalType": "uint256",
                        "name": "",
                        "type": "uint256"
                    }
                ],
                "stateMutability": "view",
                "type": "function"
            },
            {
                "inputs": [
                    {
                        "components": [
                            {
                                "internalType": "address",
                                "name": "to",
                                "type": "address"
                            },
                            {
                                "internalType": "bytes",
                                "name": "data",
                                "type": "bytes"
                            },
                            {
                                "internalType": "uint256",
                                "name": "gas",
                                "type": "uint256"
                            }
                        ],
                        "internalType": "struct TwoHopSampler.HopInfo[]",
                        "name": "firstHopCalls",
                        "type": "tuple[]"
                    },
                    {
                        "components": [
                            {
                                "internalType": "address",
                                "name": "to",
                                "type": "address"
                            },
                            {
                                "internalType": "bytes",
                                "name": "data",
                                "type": "bytes"
                            },
                            {
                                "internalType": "uint256",
                                "name": "gas",
                                "type": "uint256"
                            }
                        ],
                        "internalType": "struct TwoHopSampler.HopInfo[]",
                        "name": "secondHopCalls",
                        "type": "tuple[]"
                    },
                    {
                        "internalType": "uint256",
                        "name": "buyAmount",
                        "type": "uint256"
                    }
                ],
                "name": "sampleTwoHopBuy",
                "outputs": [
                    {
                        "components": [
                            {
                                "internalType": "uint256",
                                "name": "outputAmount",
                                "type": "uint256"
                            },
                            {
                                "internalType": "bytes",
                                "name": "resultData",
                                "type": "bytes"
                            }
                        ],
                        "internalType": "struct TwoHopSampler.HopResult[]",
                        "name": "firstHopResults",
                        "type": "tuple[]"
                    },
                    {
                        "components": [
                            {
                                "internalType": "uint256",
                                "name": "outputAmount",
                                "type": "uint256"
                            },
                            {
                                "internalType": "bytes",
                                "name": "resultData",
                                "type": "bytes"
                            }
                        ],
                        "internalType": "struct TwoHopSampler.HopResult[]",
                        "name": "secondHopResults",
                        "type": "tuple[]"
                    }
                ],
                "stateMutability": "nonpayable",
                "type": "function"
            },
            {
                "inputs": [
                    {
                        "components": [
                            {
                                "internalType": "address",
                                "name": "to",
                                "type": "address"
                            },
                            {
                                "internalType": "bytes",
                                "name": "data",
                                "type": "bytes"
                            },
                            {
                                "internalType": "uint256",
                                "name": "gas",
                                "type": "uint256"
                            }
                        ],
                        "internalType": "struct TwoHopSampler.HopInfo[]",
                        "name": "firstHopCalls",
                        "type": "tuple[]"
                    },
                    {
                        "components": [
                            {
                                "internalType": "address",
                                "name": "to",
                                "type": "address"
                            },
                            {
                                "internalType": "bytes",
                                "name": "data",
                                "type": "bytes"
                            },
                            {
                                "internalType": "uint256",
                                "name": "gas",
                                "type": "uint256"
                            }
                        ],
                        "internalType": "struct TwoHopSampler.HopInfo[]",
                        "name": "secondHopCalls",
                        "type": "tuple[]"
                    },
                    {
                        "internalType": "uint256",
                        "name": "sellAmount",
                        "type": "uint256"
                    }
                ],
                "name": "sampleTwoHopSell",
                "outputs": [
                    {
                        "components": [
                            {
                                "internalType": "uint256",
                                "name": "outputAmount",
                                "type": "uint256"
                            },
                            {
                                "internalType": "bytes",
                                "name": "resultData",
                                "type": "bytes"
                            }
                        ],
                        "internalType": "struct TwoHopSampler.HopResult[]",
                        "name": "firstHopResults",
                        "type": "tuple[]"
                    },
                    {
                        "components": [
                            {
                                "internalType": "uint256",
                                "name": "outputAmount",
                                "type": "uint256"
                            },
                            {
                                "internalType": "bytes",
                                "name": "resultData",
                                "type": "bytes"
                            }
                        ],
                        "internalType": "struct TwoHopSampler.HopResult[]",
                        "name": "secondHopResults",
                        "type": "tuple[]"
                    }
                ],
                "stateMutability": "nonpayable",
                "type": "function"
            }
        ],
        "devdoc": {
            "kind": "dev",
            "methods": {
                "sampleBuysFromBalancer(address,address,address,uint256[])": {
                    "details": "Sample buy quotes from Balancer.",
                    "params": {
                        "makerToken": "Address of the maker token (what to buy).",
                        "makerTokenAmounts": "Maker token buy amount for each sample.",
                        "poolAddress": "Address of the Balancer pool to query.",
                        "takerToken": "Address of the taker token (what to sell)."
                    },
                    "returns": {
                        "takerTokenAmounts": "Taker amounts sold at each maker token         amount."
                    }
                },
                "sampleBuysFromBalancerV2((bytes32,address),address,address,uint256[])": {
                    "details": "Sample buy quotes from Balancer V2.",
                    "params": {
                        "makerToken": "Address of the maker token (what to buy).",
                        "makerTokenAmounts": "Maker token buy amount for each sample.",
                        "poolInfo": "Struct with pool related data",
                        "takerToken": "Address of the taker token (what to sell)."
                    },
                    "returns": {
                        "takerTokenAmounts": "Taker amounts sold at each maker token         amount."
                    }
                },
                "sampleBuysFromBancor((address,address[][]),address,address,uint256[])": {
                    "details": "Sample buy quotes from Bancor. Unimplemented",
                    "params": {
                        "makerToken": "Address of the maker token (what to buy).",
                        "makerTokenAmounts": "Maker token buy amount for each sample.",
                        "opts": "BancorSamplerOpts The Bancor registry contract address and paths",
                        "takerToken": "Address of the taker token (what to sell)."
                    },
                    "returns": {
                        "bancorNetwork": "the Bancor Network address",
                        "path": "the selected conversion path from bancor",
                        "takerTokenAmounts": "Taker amounts sold at each maker token         amount."
                    }
                },
                "sampleBuysFromCurve((address,bytes4,bytes4),int128,int128,uint256[])": {
                    "details": "Sample buy quotes from Curve.",
                    "params": {
                        "curveInfo": "Curve information specific to this token pair.",
                        "fromTokenIdx": "Index of the taker token (what to sell).",
                        "makerTokenAmounts": "Maker token buy amount for each sample.",
                        "toTokenIdx": "Index of the maker token (what to buy)."
                    },
                    "returns": {
                        "takerTokenAmounts": "Taker amounts sold at each maker token         amount."
                    }
                },
                "sampleBuysFromDODO((address,address),address,address,uint256[])": {
                    "details": "Sample buy quotes from DODO.",
                    "params": {
                        "makerToken": "Address of the maker token (what to buy).",
                        "makerTokenAmounts": "Maker token sell amount for each sample.",
                        "opts": "DODOSamplerOpts DODO Registry and helper addresses",
                        "takerToken": "Address of the taker token (what to sell)."
                    },
                    "returns": {
                        "pool": "the DODO pool address",
                        "sellBase": "whether the bridge needs to sell the base token",
                        "takerTokenAmounts": "Taker amounts sold at each maker token         amount."
                    }
                },
                "sampleBuysFromDODOV2(address,uint256,address,address,uint256[])": {
                    "details": "Sample buy quotes from DODO.",
                    "params": {
                        "makerToken": "Address of the maker token (what to buy).",
                        "makerTokenAmounts": "Maker token sell amount for each sample.",
                        "offset": "offset index for the pool in the registry.",
                        "registry": "Address of the registry to look up.",
                        "takerToken": "Address of the taker token (what to sell)."
                    },
                    "returns": {
                        "pool": "the DODO pool address",
                        "sellBase": "whether the bridge needs to sell the base token",
                        "takerTokenAmounts": "Taker amounts sold at each maker token         amount."
                    }
                },
                "sampleBuysFromEth2Dai(address,address,address,uint256[])": {
                    "details": "Sample buy quotes from Eth2Dai/Oasis.",
                    "params": {
                        "makerToken": "Address of the maker token (what to buy).",
                        "router": "Address of the Eth2Dai/Oasis contract",
                        "takerToken": "Address of the taker token (what to sell).",
                        "takerTokenAmounts": "Maker token sell amount for each sample."
                    },
                    "returns": {
                        "takerTokenAmounts": "Taker amounts sold at each maker token         amount."
                    }
                },
                "sampleBuysFromKyberDmm(address,address[],uint256[])": {
                    "details": "Sample buy quotes from KyberDmm.",
                    "params": {
                        "makerTokenAmounts": "Maker token buy amount for each sample.",
                        "path": "Token route. Should be takerToken -> makerToken.",
                        "router": "Router to look up tokens and amounts"
                    },
                    "returns": {
                        "pools": "The pool addresses involved in the multi path trade",
                        "takerTokenAmounts": "Taker amounts sold at each maker token         amount."
                    }
                },
                "sampleBuysFromKyberNetwork((uint256,address,address,address,bytes),address,address,uint256[])": {
                    "details": "Sample buy quotes from Kyber.",
                    "params": {
                        "makerToken": "Address of the maker token (what to buy).",
                        "makerTokenAmounts": "Maker token buy amount for each sample.",
                        "opts": "KyberSamplerOpts The nth reserve",
                        "takerToken": "Address of the taker token (what to sell)."
                    },
                    "returns": {
                        "hint": "The hint for the selected reserve",
                        "reserveId": "The id of the reserve found at reserveOffset",
                        "takerTokenAmounts": "Taker amounts sold at each maker token amount."
                    }
                },
                "sampleBuysFromLido((address,address),address,address,uint256[])": {
                    "details": "Sample buy quotes from Lido.",
                    "params": {
                        "lidoInfo": "Info regarding a specific Lido deployment",
                        "makerToken": "Address of the maker token (what to buy).",
                        "makerTokenAmounts": "Maker token buy amount for each sample.",
                        "takerToken": "Address of the taker token (what to sell)."
                    },
                    "returns": {
                        "_0": "takerTokenAmounts Taker amounts sold at each maker token         amount."
                    }
                },
                "sampleBuysFromLiquidityProvider(address,address,address,uint256[])": {
                    "details": "Sample buy quotes from an arbitrary on-chain liquidity provider.",
                    "params": {
                        "makerToken": "Address of the maker token (what to buy).",
                        "makerTokenAmounts": "Maker token buy amount for each sample.",
                        "providerAddress": "Address of the liquidity provider.",
                        "takerToken": "Address of the taker token (what to sell)."
                    },
                    "returns": {
                        "takerTokenAmounts": "Taker amounts sold at each maker token         amount."
                    }
                },
                "sampleBuysFromMStable(address,address,address,uint256[])": {
                    "details": "Sample buy quotes from MStable contract",
                    "params": {
                        "makerToken": "Address of the maker token (what to buy).",
                        "makerTokenAmounts": "Maker token buy amount for each sample.",
                        "router": "Address of the mStable contract",
                        "takerToken": "Address of the taker token (what to sell)."
                    },
                    "returns": {
                        "takerTokenAmounts": "Taker amounts sold at each maker token         amount."
                    }
                },
                "sampleBuysFromMooniswap(address,address,address,uint256[])": {
                    "details": "Sample buy quotes from Mooniswap.",
                    "params": {
                        "makerToken": "Address of the maker token (what to buy).",
                        "makerTokenAmounts": "Maker token sell amount for each sample.",
                        "registry": "Address of the Mooniswap Registry.",
                        "takerToken": "Address of the taker token (what to sell)."
                    },
                    "returns": {
                        "pool": "The contract address for the pool",
                        "takerTokenAmounts": "Taker amounts sold at each maker token         amount."
                    }
                },
                "sampleBuysFromShell(address,address,address,uint256[])": {
                    "details": "Sample buy quotes from Shell pool contract",
                    "params": {
                        "makerToken": "Address of the maker token (what to buy).",
                        "makerTokenAmounts": "Maker token buy amount for each sample.",
                        "pool": "Address of the Shell pool contract",
                        "takerToken": "Address of the taker token (what to sell)."
                    },
                    "returns": {
                        "takerTokenAmounts": "Taker amounts sold at each maker token         amount."
                    }
                },
                "sampleBuysFromSmoothy((address,bytes4,bytes4),int128,int128,uint256[])": {
                    "details": "Sample buy quotes from Smoothy.",
                    "params": {
                        "fromTokenIdx": "Index of the taker token (what to sell).",
                        "makerTokenAmounts": "Maker token buy amount for each sample.",
                        "smoothyInfo": "Smoothy information specific to this token pair.",
                        "toTokenIdx": "Index of the maker token (what to buy)."
                    },
                    "returns": {
                        "takerTokenAmounts": "Taker amounts sold at each maker token         amount."
                    }
                },
                "sampleBuysFromUniswap(address,address,address,uint256[])": {
                    "details": "Sample buy quotes from Uniswap.",
                    "params": {
                        "makerToken": "Address of the maker token (what to buy).",
                        "makerTokenAmounts": "Maker token sell amount for each sample.",
                        "takerToken": "Address of the taker token (what to sell)."
                    },
                    "returns": {
                        "takerTokenAmounts": "Taker amounts sold at each maker token         amount."
                    }
                },
                "sampleBuysFromUniswapV2(address,address[],uint256[])": {
                    "details": "Sample buy quotes from UniswapV2.",
                    "params": {
                        "makerTokenAmounts": "Maker token buy amount for each sample.",
                        "path": "Token route. Should be takerToken -> makerToken.",
                        "router": "Router to look up tokens and amounts"
                    },
                    "returns": {
                        "takerTokenAmounts": "Taker amounts sold at each maker token         amount."
                    }
                },
                "sampleSellsFromBalancer(address,address,address,uint256[])": {
                    "details": "Sample sell quotes from Balancer.",
                    "params": {
                        "makerToken": "Address of the maker token (what to buy).",
                        "poolAddress": "Address of the Balancer pool to query.",
                        "takerToken": "Address of the taker token (what to sell).",
                        "takerTokenAmounts": "Taker token sell amount for each sample."
                    },
                    "returns": {
                        "makerTokenAmounts": "Maker amounts bought at each taker token         amount."
                    }
                },
                "sampleSellsFromBalancerV2((bytes32,address),address,address,uint256[])": {
                    "details": "Sample sell quotes from Balancer V2.",
                    "params": {
                        "makerToken": "Address of the maker token (what to buy).",
                        "poolInfo": "Struct with pool related data",
                        "takerToken": "Address of the taker token (what to sell).",
                        "takerTokenAmounts": "Taker token sell amount for each sample."
                    },
                    "returns": {
                        "makerTokenAmounts": "Maker amounts bought at each taker token         amount."
                    }
                },
                "sampleSellsFromBancor((address,address[][]),address,address,uint256[])": {
                    "details": "Sample sell quotes from Bancor.",
                    "params": {
                        "makerToken": "Address of the maker token (what to buy).",
                        "opts": "BancorSamplerOpts The Bancor registry contract address and paths",
                        "takerToken": "Address of the taker token (what to sell).",
                        "takerTokenAmounts": "Taker token sell amount for each sample."
                    },
                    "returns": {
                        "bancorNetwork": "the Bancor Network address",
                        "makerTokenAmounts": "Maker amounts bought at each taker token         amount.",
                        "path": "the selected conversion path from bancor"
                    }
                },
                "sampleSellsFromCurve((address,bytes4,bytes4),int128,int128,uint256[])": {
                    "details": "Sample sell quotes from Curve.",
                    "params": {
                        "curveInfo": "Curve information specific to this token pair.",
                        "fromTokenIdx": "Index of the taker token (what to sell).",
                        "takerTokenAmounts": "Taker token sell amount for each sample.",
                        "toTokenIdx": "Index of the maker token (what to buy)."
                    },
                    "returns": {
                        "makerTokenAmounts": "Maker amounts bought at each taker token         amount."
                    }
                },
                "sampleSellsFromDODO((address,address),address,address,uint256[])": {
                    "details": "Sample sell quotes from DODO.",
                    "params": {
                        "makerToken": "Address of the maker token (what to buy).",
                        "opts": "DODOSamplerOpts DODO Registry and helper addresses",
                        "takerToken": "Address of the taker token (what to sell).",
                        "takerTokenAmounts": "Taker token sell amount for each sample."
                    },
                    "returns": {
                        "makerTokenAmounts": "Maker amounts bought at each taker token         amount.",
                        "pool": "the DODO pool address",
                        "sellBase": "whether the bridge needs to sell the base token"
                    }
                },
                "sampleSellsFromDODOV2(address,uint256,address,address,uint256[])": {
                    "details": "Sample sell quotes from DODO V2.",
                    "params": {
                        "makerToken": "Address of the maker token (what to buy).",
                        "offset": "offset index for the pool in the registry.",
                        "registry": "Address of the registry to look up.",
                        "takerToken": "Address of the taker token (what to sell).",
                        "takerTokenAmounts": "Taker token sell amount for each sample."
                    },
                    "returns": {
                        "makerTokenAmounts": "Maker amounts bought at each taker token         amount.",
                        "pool": "the DODO pool address",
                        "sellBase": "whether the bridge needs to sell the base token"
                    }
                },
                "sampleSellsFromEth2Dai(address,address,address,uint256[])": {
                    "details": "Sample sell quotes from Eth2Dai/Oasis.",
                    "params": {
                        "makerToken": "Address of the maker token (what to buy).",
                        "router": "Address of the Eth2Dai/Oasis contract",
                        "takerToken": "Address of the taker token (what to sell).",
                        "takerTokenAmounts": "Taker token sell amount for each sample."
                    },
                    "returns": {
                        "makerTokenAmounts": "Maker amounts bought at each taker token         amount."
                    }
                },
                "sampleSellsFromKyberDmm(address,address[],uint256[])": {
                    "details": "Sample sell quotes from KyberDmm.",
                    "params": {
                        "path": "Token route. Should be takerToken -> makerToken",
                        "router": "Router to look up tokens and amounts",
                        "takerTokenAmounts": "Taker token sell amount for each sample."
                    },
                    "returns": {
                        "makerTokenAmounts": "Maker amounts bought at each taker token         amount.",
                        "pools": "The pool addresses involved in the multi path trade"
                    }
                },
                "sampleSellsFromKyberNetwork((uint256,address,address,address,bytes),address,address,uint256[])": {
                    "details": "Sample sell quotes from Kyber.",
                    "params": {
                        "makerToken": "Address of the maker token (what to buy).",
                        "opts": "KyberSamplerOpts The nth reserve",
                        "takerToken": "Address of the taker token (what to sell).",
                        "takerTokenAmounts": "Taker token sell amount for each sample."
                    },
                    "returns": {
                        "hint": "The hint for the selected reserve",
                        "makerTokenAmounts": "Maker amounts bought at each taker token amount.",
                        "reserveId": "The id of the reserve found at reserveOffset"
                    }
                },
                "sampleSellsFromLido((address,address),address,address,uint256[])": {
                    "details": "Sample sell quotes from Lido",
                    "params": {
                        "lidoInfo": "Info regarding a specific Lido deployment",
                        "makerToken": "Address of the maker token (what to buy).",
                        "takerToken": "Address of the taker token (what to sell).",
                        "takerTokenAmounts": "Taker token sell amount for each sample."
                    },
                    "returns": {
                        "_0": "makerTokenAmounts Maker amounts bought at each taker token         amount."
                    }
                },
                "sampleSellsFromLiquidityProvider(address,address,address,uint256[])": {
                    "details": "Sample sell quotes from an arbitrary on-chain liquidity provider.",
                    "params": {
                        "makerToken": "Address of the maker token (what to buy).",
                        "providerAddress": "Address of the liquidity provider.",
                        "takerToken": "Address of the taker token (what to sell).",
                        "takerTokenAmounts": "Taker token sell amount for each sample."
                    },
                    "returns": {
                        "makerTokenAmounts": "Maker amounts bought at each taker token         amount."
                    }
                },
                "sampleSellsFromMStable(address,address,address,uint256[])": {
                    "details": "Sample sell quotes from the mStable contract",
                    "params": {
                        "makerToken": "Address of the maker token (what to buy).",
                        "router": "Address of the mStable contract",
                        "takerToken": "Address of the taker token (what to sell).",
                        "takerTokenAmounts": "Taker token sell amount for each sample."
                    },
                    "returns": {
                        "makerTokenAmounts": "Maker amounts bought at each taker token         amount."
                    }
                },
                "sampleSellsFromMakerPsm((address,bytes32,address),address,address,uint256[])": {
                    "details": "Sample sell quotes from Maker PSM"
                },
                "sampleSellsFromMooniswap(address,address,address,uint256[])": {
                    "details": "Sample sell quotes from Mooniswap.",
                    "params": {
                        "makerToken": "Address of the maker token (what to buy).",
                        "registry": "Address of the Mooniswap Registry.",
                        "takerToken": "Address of the taker token (what to sell).",
                        "takerTokenAmounts": "Taker token sell amount for each sample."
                    },
                    "returns": {
                        "makerTokenAmounts": "Maker amounts bought at each taker token         amount.",
                        "pool": "The contract address for the pool"
                    }
                },
                "sampleSellsFromMultiBridge(address,address,address,address,uint256[])": {
                    "details": "Sample sell quotes from MultiBridge.",
                    "params": {
                        "intermediateToken": "The address of the intermediate token to        use in an indirect route.",
                        "makerToken": "Address of the maker token (what to buy).",
                        "multibridge": "Address of the MultiBridge contract.",
                        "takerToken": "Address of the taker token (what to sell).",
                        "takerTokenAmounts": "Taker token sell amount for each sample."
                    },
                    "returns": {
                        "makerTokenAmounts": "Maker amounts bought at each taker token         amount."
                    }
                },
                "sampleSellsFromShell(address,address,address,uint256[])": {
                    "details": "Sample sell quotes from the Shell pool contract",
                    "params": {
                        "makerToken": "Address of the maker token (what to buy).",
                        "pool": "Address of the Shell pool contract",
                        "takerToken": "Address of the taker token (what to sell).",
                        "takerTokenAmounts": "Taker token sell amount for each sample."
                    },
                    "returns": {
                        "makerTokenAmounts": "Maker amounts bought at each taker token         amount."
                    }
                },
                "sampleSellsFromSmoothy((address,bytes4,bytes4),int128,int128,uint256[])": {
                    "details": "Sample sell quotes from Smoothy.",
                    "params": {
                        "fromTokenIdx": "Index of the taker token (what to sell).",
                        "smoothyInfo": "Smoothy information specific to this token pair.",
                        "takerTokenAmounts": "Taker token sell amount for each sample.",
                        "toTokenIdx": "Index of the maker token (what to buy)."
                    },
                    "returns": {
                        "makerTokenAmounts": "Maker amounts bought at each taker token         amount."
                    }
                },
                "sampleSellsFromUniswap(address,address,address,uint256[])": {
                    "details": "Sample sell quotes from Uniswap.",
                    "params": {
                        "makerToken": "Address of the maker token (what to buy).",
                        "router": "Address of the Uniswap Router",
                        "takerToken": "Address of the taker token (what to sell).",
                        "takerTokenAmounts": "Taker token sell amount for each sample."
                    },
                    "returns": {
                        "makerTokenAmounts": "Maker amounts bought at each taker token         amount."
                    }
                },
                "sampleSellsFromUniswapV2(address,address[],uint256[])": {
                    "details": "Sample sell quotes from UniswapV2.",
                    "params": {
                        "path": "Token route. Should be takerToken -> makerToken",
                        "router": "Router to look up tokens and amounts",
                        "takerTokenAmounts": "Taker token sell amount for each sample."
                    },
                    "returns": {
                        "makerTokenAmounts": "Maker amounts bought at each taker token         amount."
                    }
                }
            },
            "version": 1
        },
        "evm": {
            "bytecode": {
                "linkReferences": {},
                "object": "0x60806040523480156200001157600080fd5b506184e780620000226000396000f3fe608060405234801561001057600080fd5b506004361061025e5760003560e01c80639877774811610146578063c25c4138116100c3578063d9bca37211610087578063d9bca37214610596578063ddd5aa28146105a9578063e8e4af09146105bc578063f1ed7fa4146105cf578063f3868e9c14610363578063f5a4994d146105e25761025e565b8063c25c413814610537578063c83190841461054a578063c8c74a371461055d578063c94706d814610570578063cc1621c9146105835761025e565b8063a46984171161010a578063a4698417146104ca578063a75e744b146104dd578063ab000276146104f0578063adc636bf14610503578063b90cd2fb146105245761025e565b8063987777481461044f5780639e3f05c3146104625780639e4a2a69146104845780639ea0ff1314610497578063a0295b8b146104b75761025e565b806336052391116101df57806357494b1d116101a357806357494b1d146103dd5780635d5b674f146103f057806374c9d255146104035780637f7f4f13146104165780638b6d7b44146104295780639209483b1461043c5761025e565b8063360523911461036357806340bc03ae1461037657806344a3acba14610389578063494569db146103aa5780634edfb5b2146103bd5761025e565b806329fa4aa01161022657806329fa4aa0146102f55780632aa64319146103085780632d753aa41461032a57806330d6570d1461033d5780633105fec1146103505761025e565b80630496d5dc14610263578063149dab0e1461028d5780632339078f146102af578063252322b3146102cf578063281e3432146102e2575b600080fd5b6102766102713660046173a1565b6105f5565b604051610284929190618053565b60405180910390f35b6102a061029b366004617806565b61079b565b60405161028493929190617f1f565b6102c26102bd366004617787565b6108fb565b60405161028491906180bf565b6102c26102dd3660046172df565b610b22565b6102c26102f0366004617a5c565b610cf8565b6102c26103033660046178bf565b610f4d565b61031b610316366004617918565b610fbc565b604051610284939291906180d2565b6102c261033836600461725a565b611299565b6102c261034b3660046172df565b611422565b6102c261035e3660046173a1565b611596565b6102c2610371366004617918565b61171a565b6102c26103843660046178bf565b6117b4565b61039c610397366004617631565b611935565b60405161028492919061809a565b6102766103b83660046173a1565b611c68565b6103d06103cb3660046179fe565b611df4565b6040516102849190618120565b6102c26103eb3660046172df565b612071565b6102c26103fe3660046172df565b6125c3565b6102a0610411366004617806565b612629565b6102c2610424366004617a5c565b612638565b6102c26104373660046178bf565b612885565b6102c261044a3660046178bf565b612be8565b6102c261045d3660046172df565b612de8565b610475610470366004617947565b61331f565b60405161028493929190618107565b61039c610492366004617631565b613445565b6104aa6104a5366004617351565b61378e565b60405161028491906180fe565b6102c26104c5366004617787565b6139a4565b6102c26104d83660046172df565b613ba0565b61031b6104eb366004617413565b613cf5565b6102c26104fe3660046172df565b613e32565b6105166105113660046172df565b613f90565b604051610284929190618133565b6102c26105323660046172df565b6140e0565b6102c26105453660046172df565b614146565b6102c26105583660046172df565b6141ac565b6102c261056b3660046173a1565b614369565b6102c261057e3660046172df565b6144d5565b610475610591366004617947565b614633565b61031b6105a4366004617413565b614819565b61031b6105b7366004617918565b614908565b6102c26105ca3660046172df565b614b9b565b6104aa6105dd3660046179b7565b614cce565b6105166105f03660046172df565b614e6d565b80516060908190806001600160401b038111801561061257600080fd5b5060405190808252806020026020018201604052801561063c578160200160208202803683370190505b5091506106498686614f59565b925082516000141561065b5750610793565b60005b8181101561079057866001600160a01b031663a8312b1d620249f087848151811061068557fe5b6020026020010151878a6040518563ffffffff1660e01b81526004016106ad93929190618374565b60006040518083038187803b1580156106c557600080fd5b5086fa935050505080156106fb57506040513d6000823e601f3d908101601f191682016040526106f8919081019061769a565b60015b610735573d808015610729576040519150601f19603f3d011682016040523d82523d6000602084013e61072e565b606091505b5050610790565b8060018851038151811061074557fe5b602002602001015184838151811061075957fe5b60200260200101818152505083828151811061077157fe5b6020026020010151600014156107875750610790565b5060010161065e565b50505b935093915050565b6000606080866020015151600014156107b3576108f1565b6107bf8787878761523e565b855191945092506001600160401b03811180156107db57600080fd5b50604051908082528060200260200182016040528015610805578160200160208202803683370190505b50905060005b81518110156108ef57836001600160a01b0316637f9c0ecd620493e08588858151811061083457fe5b60200260200101516040518463ffffffff1660e01b8152600401610859929190618078565b60206040518083038187803b15801561087157600080fd5b5086fa935050505080156108a2575060408051601f3d908101601f1916820190925261089f918101906176ec565b60015b6108ab576108ef565b808383815181106108b857fe5b6020026020010181815250508282815181106108d057fe5b6020026020010151600014156108e657506108ef565b5060010161080b565b505b9450945094915050565b60606109078385615470565b60208501516040805160028082526060828101909352816020016020820280368337019050509050858160008151811061093d57fe5b60200260200101906001600160a01b031690816001600160a01b031681525050848160018151811061096b57fe5b6001600160a01b03909216602092830291909101909101528351806001600160401b038111801561099b57600080fd5b506040519080825280602002602001820160405280156109c5578160200160208202803683370190505b5093506109d0616b22565b6109d86154af565b905060005b82811015610b15576060610a048b8984815181106109f757fe5b60200260200101516154de565b604051637c26833760e11b81529091506001600160a01b0387169063f84d066e90610a3a9060009085908a908990600401618186565b600060405180830381600087803b158015610a5457600080fd5b505af1925050508015610a8957506040513d6000823e601f3d908101601f19168201604052610a8691908101906175ae565b60015b610ac4573d808015610ab7576040519150601f19603f3d011682016040523d82523d6000602084013e610abc565b606091505b505050610b15565b600081600181518110610ad357fe5b602002602001015160001902905060008113610af157505050610b15565b80898581518110610afe57fe5b6020026020010181815250505050506001016109dd565b5050505050949350505050565b6060610b2e8385615470565b8151806001600160401b0381118015610b4657600080fd5b50604051908082528060200260200182016040528015610b70578160200160208202803683370190505b50915060006001600160a01b03861615610b9357610b8e8787615570565b610b96565b60005b905060006001600160a01b03861615610bb857610bb38887615570565b610bbb565b60005b905060005b83811015610cec5760016001600160a01b038816610c1e57610bfd84632640f62c60e01b898581518110610bf057fe5b60200260200101516155f6565b878481518110610c0957fe5b60200260200101819350828152505050610cb8565b6001600160a01b038916610c4457610bfd836359e9486260e01b898581518110610bf057fe5b6000610c5e846359e9486260e01b8a8681518110610bf057fe5b925090508015610c9b57610c7a856309903d8b60e21b836155f6565b888581518110610c8657fe5b60200260200101819450828152505050610cb6565b6000878481518110610ca957fe5b6020026020010181815250505b505b801580610cd85750858281518110610ccc57fe5b60200260200101516000145b15610ce35750610cec565b50600101610bc0565b50505050949350505050565b6060610d048385615470565b6000856000015190506000816001600160a01b03166336569e776040518163ffffffff1660e01b815260040160206040518083038186803b158015610d4857600080fd5b505afa158015610d5c573d6000803e3d6000fd5b505050506040513d601f19601f82011682018060405250810190610d809190617097565b8451909150806001600160401b0381118015610d9b57600080fd5b50604051908082528060200260200182016040528015610dc5578160200160208202803683370190505b509350826001600160a01b031663f4b9fa756040518163ffffffff1660e01b815260040160206040518083038186803b158015610e0157600080fd5b505afa158015610e15573d6000803e3d6000fd5b505050506040513d601f19601f82011682018060405250810190610e399190617097565b6001600160a01b0316866001600160a01b031614158015610edc5750826001600160a01b031663f4b9fa756040518163ffffffff1660e01b815260040160206040518083038186803b158015610e8e57600080fd5b505afa158015610ea2573d6000803e3d6000fd5b505050506040513d601f19601f82011682018060405250810190610ec69190617097565b6001600160a01b0316876001600160a01b031614155b15610ee957505050610f45565b60005b81811015610cec576000610f178a898b8a8681518110610f0857fe5b602002602001015189896156d9565b905080610f245750610cec565b80868381518110610f3157fe5b602090810291909101015250600101610eec565b949350505050565b604080516060818101909252610fb39080610f6c86896080840161825d565b60405160208183030381529060405281526020018688604051602001610f9392919061825d565b604051602081830303815290604052815260200161599a81525083615acd565b95945050505050565b6000806060610fcb8587615470565b8351806001600160401b0381118015610fe357600080fd5b5060405190808252806020026020018201604052801561100d578160200160208202803683370190505b508851604051630939d86360e11b81529193506001600160a01b031690631273b0c690611040908a908a90600401617dbb565b60206040518083038186803b15801561105857600080fd5b505afa15801561106c573d6000803e3d6000fd5b505050506040513d601f19601f820116820180604052508101906110909190617097565b925060006001600160a01b038416156110ae5750600193508661114d565b8851604051630939d86360e11b81526001600160a01b0390911690631273b0c6906110df908a908c90600401617dbb565b60206040518083038186803b1580156110f757600080fd5b505afa15801561110b573d6000803e3d6000fd5b505050506040513d601f19601f8201168201806040525081019061112f9190617097565b93506001600160a01b0384166111465750506108f1565b5060009350855b836001600160a01b031663dd58b41c6040518163ffffffff1660e01b815260040160206040518083038186803b15801561118657600080fd5b505afa15801561119a573d6000803e3d6000fd5b505050506040513d601f19601f820116820180604052508101906111be91906176cc565b6111c95750506108f1565b60005b8281101561128c5760006112468a87858e602001516040516020016111f49493929190617dd5565b6040516020818303038152906040528a88868f6020015160405160200161121e9493929190617dd5565b6040516020818303038152906040528a858151811061123957fe5b6020026020010151615cca565b90508085838151811061125557fe5b60200260200101818152505084828151811061126d57fe5b602002602001015160001415611283575061128c565b506001016111cc565b5050509450945094915050565b8051606090806001600160401b03811180156112b457600080fd5b506040519080825280602002602001820160405280156112de578160200160208202803683370190505b5091506001600160a01b0387166112f55750610fb3565b60005b818110156114175760006060896001600160a01b031662061a80636e79e13360e01b8b8b8b8b898151811061132957fe5b60200260200101516040516024016113449493929190617e34565b60408051601f198184030181529181526020820180516001600160e01b03166001600160e01b03199094169390931790925290516113829190617d72565b6000604051808303818686fa925050503d80600081146113be576040519150601f19603f3d011682016040523d82523d6000602084013e6113c3565b606091505b5091509150600082156113e757818060200190518101906113e491906176ec565b90505b806113f457505050611417565b8086858151811061140157fe5b60209081029190910101525050506001016112f8565b505095945050505050565b606061142e8385615470565b8151806001600160401b038111801561144657600080fd5b50604051908082528060200260200182016040528015611470578160200160208202803683370190505b50915060005b8181101561158c57866001600160a01b03166372ea9076620c3500888888868151811061149f57fe5b60200260200101516040518563ffffffff1660e01b81526004016114c593929190617eb6565b60206040518083038187803b1580156114dd57600080fd5b5086fa9350505050801561150e575060408051601f3d908101601f1916820190925261150b918101906176ec565b60015b611548573d80801561153c576040519150601f19603f3d011682016040523d82523d6000602084013e611541565b606091505b505061158c565b8084838151811061155557fe5b60200260200101818152505083828151811061156d57fe5b602002602001015160001415611583575061158c565b50600101611476565b5050949350505050565b8051606090806001600160401b03811180156115b157600080fd5b506040519080825280602002602001820160405280156115db578160200160208202803683370190505b50915060005b8181101561171157856001600160a01b031663d06ca61f620249f086848151811061160857fe5b6020026020010151886040518463ffffffff1660e01b815260040161162e92919061835b565b60006040518083038187803b15801561164657600080fd5b5086fa9350505050801561167c57506040513d6000823e601f3d908101601f19168201604052611679919081019061769a565b60015b6116b6573d8080156116aa576040519150601f19603f3d011682016040523d82523d6000602084013e6116af565b606091505b5050611711565b806001875103815181106116c657fe5b60200260200101518483815181106116da57fe5b6020026020010181815250508382815181106116f257fe5b6020026020010151600014156117085750611711565b506001016115e1565b50509392505050565b60606117268385615470565b84602001516001600160a01b0316846001600160a01b0316141580611758575084516001600160a01b03848116911614155b156117ac5781516060816001600160401b038111801561177757600080fd5b506040519080825280602002602001820160405280156117a1578160200160208202803683370190505b509250610f45915050565b509392505050565b8051606090806001600160401b03811180156117cf57600080fd5b506040519080825280602002602001820160405280156117f9578160200160208202803683370190505b50915060005b8181101561158c576000606088600001516001600160a01b0316621e84808a602001518a8a8a888151811061183057fe5b602002602001015160405160240161184a9392919061823f565b60408051601f198184030181529181526020820180516001600160e01b03166001600160e01b03199094169390931790925290516118889190617d72565b6000604051808303818686fa925050503d80600081146118c4576040519150601f19603f3d011682016040523d82523d6000602084013e6118c9565b606091505b5091509150600082156118ed57818060200190518101906118ea91906176ec565b90505b808685815181106118fa57fe5b60200260200101818152505085848151811061191257fe5b60200260200101516000141561192a5750505061158c565b5050506001016117ff565b606080600085516001600160401b038111801561195157600080fd5b5060405190808252806020026020018201604052801561198b57816020015b611978616b49565b8152602001906001900390816119705790505b50925060005b86518114611ad55760608782815181106119a757fe5b60200260200101516020015190506119ce60208251038783615e039092919063ffffffff16565b600060608984815181106119de57fe5b6020026020010151600001516001600160a01b03168a85815181106119ff57fe5b60200260200101516040015184604051611a199190617d72565b60006040518083038160008787f1925050503d8060008114611a57576040519150601f19603f3d011682016040523d82523d6000602084013e611a5c565b606091505b50915091508115611ac75780878581518110611a7457fe5b6020026020010151602001819052506000611a9c602083510383615e1390919063ffffffff16565b888681518110611aa857fe5b602002602001015160000181815250905085811115611ac5578095505b505b505050806001019050611991565b5080611ae15750610793565b84516001600160401b0381118015611af857600080fd5b50604051908082528060200260200182016040528015611b3257816020015b611b1f616b49565b815260200190600190039081611b175790505b50915060005b85518114610790576060868281518110611b4e57fe5b6020026020010151602001519050611b7560208251038483615e039092919063ffffffff16565b60006060888481518110611b8557fe5b6020026020010151600001516001600160a01b0316898581518110611ba657fe5b60200260200101516040015184604051611bc09190617d72565b60006040518083038160008787f1925050503d8060008114611bfe576040519150601f19603f3d011682016040523d82523d6000602084013e611c03565b606091505b50915091508115611c5a5780868581518110611c1b57fe5b602002602001015160200181905250611c41602082510382615e1390919063ffffffff16565b868581518110611c4d57fe5b6020908102919091010151525b505050806001019050611b38565b80516060908190806001600160401b0381118015611c8557600080fd5b50604051908082528060200260200182016040528015611caf578160200160208202803683370190505b509150611cbc8686614f59565b9250825160001415611cce5750610793565b60005b8181101561079057866001600160a01b0316639e269b68620249f0878481518110611cf857fe5b6020026020010151878a6040518563ffffffff1660e01b8152600401611d2093929190618374565b60006040518083038187803b158015611d3857600080fd5b5086fa93505050508015611d6e57506040513d6000823e601f3d908101601f19168201604052611d6b919081019061769a565b60015b611d9c573d808015610729576040519150601f19603f3d011682016040523d82523d6000602084013e61072e565b80600081518110611da957fe5b6020026020010151848381518110611dbd57fe5b602002602001018181525050838281518110611dd557fe5b602002602001015160001415611deb5750610790565b50600101611cd1565b60208481015160408051600180825281830190925260609384929082810190803683370190505090508581600081518110611e2b57fe5b602090810291909101015260606000604051908082528060200260200182016040528015611e63578160200160208202803683370190505b50905087606001516001600160a01b0316866001600160a01b03161415611f54576040516381efcbdd60e01b81526001600160a01b038416906381efcbdd906207a12090611ebc90899060019088908890600401617f55565b60006040518083038187803b158015611ed457600080fd5b5086fa93505050508015611f0a57506040513d6000823e601f3d908101601f19168201604052611f079190810190617704565b60015b611f44573d808015611f38576040519150601f19603f3d011682016040523d82523d6000602084013e611f3d565b606091505b5050611f4f565b9350610f4592505050565b612066565b87606001516001600160a01b0316856001600160a01b03161415611faa576040516361e597f960e01b81526001600160a01b038416906361e597f9906207a12090611ebc908a9060019088908890600401617f55565b6040516302b9a6cd60e11b81526001600160a01b038416906305734d9a906207a12090611fea908a90600190889088908d90849084908490600401617f98565b60006040518083038187803b15801561200257600080fd5b5086fa9350505050801561203857506040513d6000823e601f3d908101601f191682016040526120359190810190617704565b60015b611f44573d808015610b15576040519150601f19603f3d011682016040523d82523d6000602084013e610b15565b505050949350505050565b80516060908590806001600160401b038111801561208e57600080fd5b506040519080825280602002602001820160405280156120b8578160200160208202803683370190505b50604051630bcded8960e21b81529093506001600160a01b03831690632f37b624906120e8908990600401617d8e565b60206040518083038186803b15801561210057600080fd5b505afa158015612114573d6000803e3d6000fd5b505050506040513d601f19601f8201168201806040525081019061213891906176cc565b15806121bd5750604051630bcded8960e21b81526001600160a01b03831690632f37b6249061216b908890600401617d8e565b60206040518083038186803b15801561218357600080fd5b505afa158015612197573d6000803e3d6000fd5b505050506040513d601f19601f820116820180604052508101906121bb91906176cc565b155b156121c9575050610f45565b6121d1616b63565b60405163f8b2cb4f60e01b81526001600160a01b0384169063f8b2cb4f906121fd908a90600401617d8e565b60206040518083038186803b15801561221557600080fd5b505afa158015612229573d6000803e3d6000fd5b505050506040513d601f19601f8201168201806040525081019061224d91906176ec565b815260405163f8b2cb4f60e01b81526001600160a01b0384169063f8b2cb4f9061227b908990600401617d8e565b60206040518083038186803b15801561229357600080fd5b505afa1580156122a7573d6000803e3d6000fd5b505050506040513d601f19601f820116820180604052508101906122cb91906176ec565b6020820152604051634a46c67360e11b81526001600160a01b0384169063948d8ce6906122fc908a90600401617d8e565b60206040518083038186803b15801561231457600080fd5b505afa158015612328573d6000803e3d6000fd5b505050506040513d601f19601f8201168201806040525081019061234c91906176ec565b60408083019190915251634a46c67360e11b81526001600160a01b0384169063948d8ce69061237f908990600401617d8e565b60206040518083038186803b15801561239757600080fd5b505afa1580156123ab573d6000803e3d6000fd5b505050506040513d601f19601f820116820180604052508101906123cf91906176ec565b816060018181525050826001600160a01b031663d4cadf686040518163ffffffff1660e01b815260040160206040518083038186803b15801561241157600080fd5b505afa158015612425573d6000803e3d6000fd5b505050506040513d601f19601f8201168201806040525081019061244991906176ec565b608082015260005b82811015610cec5761247c82602001516003670de0b6b3a76400008161247357fe5b04600101615e1f565b86828151811061248857fe5b6020026020010151111561249b57610cec565b836001600160a01b031663f8d6aed4620493e084600001518560400151866020015187606001518c88815181106124ce57fe5b602002602001015189608001516040518863ffffffff1660e01b81526004016124fc9695949392919061839f565b60206040518083038187803b15801561251457600080fd5b5086fa93505050508015612545575060408051601f3d908101601f19168201909252612542918101906176ec565b60015b61257f573d808015612573576040519150601f19603f3d011682016040523d82523d6000602084013e612578565b606091505b5050610cec565b8086838151811061258c57fe5b6020026020010181815250508582815181106125a457fe5b6020026020010151600014156125ba5750610cec565b50600101612451565b604080516060818101909252610fb390806125e2868960808401617dbb565b60405160208183030381529060405281526020018688604051602001612609929190617dbb565b6040516020818303038152906040528152602001615e7c81525083615acd565b60006060809450945094915050565b60606126448385615470565b6000856000015190506000816001600160a01b03166336569e776040518163ffffffff1660e01b815260040160206040518083038186803b15801561268857600080fd5b505afa15801561269c573d6000803e3d6000fd5b505050506040513d601f19601f820116820180604052508101906126c09190617097565b8451909150806001600160401b03811180156126db57600080fd5b50604051908082528060200260200182016040528015612705578160200160208202803683370190505b509350826001600160a01b031663f4b9fa756040518163ffffffff1660e01b815260040160206040518083038186803b15801561274157600080fd5b505afa158015612755573d6000803e3d6000fd5b505050506040513d601f19601f820116820180604052508101906127799190617097565b6001600160a01b0316866001600160a01b03161415801561281c5750826001600160a01b031663f4b9fa756040518163ffffffff1660e01b815260040160206040518083038186803b1580156127ce57600080fd5b505afa1580156127e2573d6000803e3d6000fd5b505050506040513d601f19601f820116820180604052508101906128069190617097565b6001600160a01b0316876001600160a01b031614155b1561282957505050610f45565b60005b81811015610cec5760006128578a898b8a868151811061284857fe5b60200260200101518989615f90565b9050806128645750610cec565b8086838151811061287157fe5b60209081029190910101525060010161282c565b6060600085600001516001600160a01b031663bbd7f25585600f0b6040518263ffffffff1660e01b81526004016128bc91906180fe565b60206040518083038186803b1580156128d457600080fd5b505afa1580156128e8573d6000803e3d6000fd5b505050506040513d601f19601f8201168201806040525081019061290c91906176ec565b8651604051631e01043960e01b81526001600160a01b0390911690631e0104399061293f90600f89900b906004016180fe565b60206040518083038186803b15801561295757600080fd5b505afa15801561296b573d6000803e3d6000fd5b505050506040513d601f19601f8201168201806040525081019061298f91906176ec565b039050600086600001516001600160a01b031663c582951486600f0b6040518263ffffffff1660e01b81526004016129c791906180fe565b60806040518083038186803b1580156129df57600080fd5b505afa1580156129f3573d6000803e3d6000fd5b505050506040513d601f19601f82011682018060405250810190612a179190617af7565b935050505080601203600a0a8281612a2b57fe5b85519190049250806001600160401b0381118015612a4857600080fd5b50604051908082528060200260200182016040528015612a72578160200160208202803683370190505b50935060005b81811015610cec57600060608a600001516001600160a01b0316620927c08c602001518c8c8c8881518110612aa957fe5b6020026020010151604051602401612ac39392919061823f565b60408051601f198184030181529181526020820180516001600160e01b03166001600160e01b0319909416939093179092529051612b019190617d72565b6000604051808303818686fa925050503d8060008114612b3d576040519150601f19603f3d011682016040523d82523d6000602084013e612b42565b606091505b509150915060008215612b665781806020019051810190612b6391906176ec565b90505b868110612ba057835b85811015612b975787898281518110612b8457fe5b6020908102919091010152600101612b6f565b50505050610cec565b80888581518110612bad57fe5b602002602001018181525050878481518110612bc557fe5b602002602001015160001415612bdd57505050610cec565b505050600101612a78565b60408401516060906001600160e01b031916612c6a576040805160608101909152612c639080612c1c86896080840161825d565b60405160208183030381529060405281526020018688604051602001612c4392919061825d565b604051602081830303815290604052815260200161622881525083615acd565b9050610f45565b8151806001600160401b0381118015612c8257600080fd5b50604051908082528060200260200182016040528015612cac578160200160208202803683370190505b50915060005b8181101561158c576000606088600001516001600160a01b0316621e84808a604001518a8a8a8881518110612ce357fe5b6020026020010151604051602401612cfd9392919061823f565b60408051601f198184030181529181526020820180516001600160e01b03166001600160e01b0319909416939093179092529051612d3b9190617d72565b6000604051808303818686fa925050503d8060008114612d77576040519150601f19603f3d011682016040523d82523d6000602084013e612d7c565b606091505b509150915060008215612da05781806020019051810190612d9d91906176ec565b90505b80868581518110612dad57fe5b602002602001018181525050858481518110612dc557fe5b602002602001015160001415612ddd5750505061158c565b505050600101612cb2565b80516060908590806001600160401b0381118015612e0557600080fd5b50604051908082528060200260200182016040528015612e2f578160200160208202803683370190505b50604051630bcded8960e21b81529093506001600160a01b03831690632f37b62490612e5f908990600401617d8e565b60206040518083038186803b158015612e7757600080fd5b505afa158015612e8b573d6000803e3d6000fd5b505050506040513d601f19601f82011682018060405250810190612eaf91906176cc565b1580612f345750604051630bcded8960e21b81526001600160a01b03831690632f37b62490612ee2908890600401617d8e565b60206040518083038186803b158015612efa57600080fd5b505afa158015612f0e573d6000803e3d6000fd5b505050506040513d601f19601f82011682018060405250810190612f3291906176cc565b155b15612f40575050610f45565b612f48616b63565b60405163f8b2cb4f60e01b81526001600160a01b0384169063f8b2cb4f90612f74908a90600401617d8e565b60206040518083038186803b158015612f8c57600080fd5b505afa158015612fa0573d6000803e3d6000fd5b505050506040513d601f19601f82011682018060405250810190612fc491906176ec565b815260405163f8b2cb4f60e01b81526001600160a01b0384169063f8b2cb4f90612ff2908990600401617d8e565b60206040518083038186803b15801561300a57600080fd5b505afa15801561301e573d6000803e3d6000fd5b505050506040513d601f19601f8201168201806040525081019061304291906176ec565b6020820152604051634a46c67360e11b81526001600160a01b0384169063948d8ce690613073908a90600401617d8e565b60206040518083038186803b15801561308b57600080fd5b505afa15801561309f573d6000803e3d6000fd5b505050506040513d601f19601f820116820180604052508101906130c391906176ec565b60408083019190915251634a46c67360e11b81526001600160a01b0384169063948d8ce6906130f6908990600401617d8e565b60206040518083038186803b15801561310e57600080fd5b505afa158015613122573d6000803e3d6000fd5b505050506040513d601f19601f8201168201806040525081019061314691906176ec565b816060018181525050826001600160a01b031663d4cadf686040518163ffffffff1660e01b815260040160206040518083038186803b15801561318857600080fd5b505afa15801561319c573d6000803e3d6000fd5b505050506040513d601f19601f820116820180604052508101906131c091906176ec565b608082015260005b82811015610cec5781516131e4906706f05b59d3b20000615e1f565b8682815181106131f057fe5b6020026020010151111561320357610cec565b836001600160a01b031663ba9530a6620493e084600001518560400151866020015187606001518c888151811061323657fe5b602002602001015189608001516040518863ffffffff1660e01b81526004016132649695949392919061839f565b60206040518083038187803b15801561327c57600080fd5b5086fa935050505080156132ad575060408051601f3d908101601f191682019092526132aa918101906176ec565b60015b6132db573d808015612573576040519150601f19603f3d011682016040523d82523d6000602084013e612578565b808683815181106132e857fe5b60200260200101818152505085828151811061330057fe5b6020026020010151600014156133165750610cec565b506001016131c8565b600060608061332e8587615470565b61333987878761627c565b925082613345576108f1565b60405163276fdad960e11b81523090634edfb5b29061336e908a9087908b908b90600401618322565b60006040518083038186803b15801561338657600080fd5b505afa15801561339a573d6000803e3d6000fd5b505050506040513d6000823e601f3d908101601f191682016040526133c29190810190617704565b8760800181905250866080015191506134396040518060600160405280878a6040516020016133f292919061802f565b6040516020818303038152906040528152602001888a60405160200161341992919061802f565b60405160208183030381529060405281526020016163e381525085615acd565b90509450945094915050565b6060806000600019905084516001600160401b038111801561346657600080fd5b506040519080825280602002602001820160405280156134a057816020015b61348d616b49565b8152602001906001900390816134855790505b50915060005b855181146135f65760608682815181106134bc57fe5b60200260200101516020015190506134e360208251038783615e039092919063ffffffff16565b600060608884815181106134f357fe5b6020026020010151600001516001600160a01b031689858151811061351457fe5b6020026020010151604001518460405161352e9190617d72565b60006040518083038160008787f1925050503d806000811461356c576040519150601f19603f3d011682016040523d82523d6000602084013e613571565b606091505b509150915081156135e8578086858151811061358957fe5b60200260200101516020018190525060006135b1602083510383615e1390919063ffffffff16565b8786815181106135bd57fe5b60200260200101516000018181525090506000811180156135dd57508581105b156135e6578095505b505b5050508060010190506134a6565b506000198114156136075750610793565b85516001600160401b038111801561361e57600080fd5b5060405190808252806020026020018201604052801561365857816020015b613645616b49565b81526020019060019003908161363d5790505b50925060005b8651811461079057606087828151811061367457fe5b602002602001015160200151905061369b60208251038483615e039092919063ffffffff16565b600060608984815181106136ab57fe5b6020026020010151600001516001600160a01b03168a85815181106136cc57fe5b602002602001015160400151846040516136e69190617d72565b60006040518083038160008787f1925050503d8060008114613724576040519150601f19603f3d011682016040523d82523d6000602084013e613729565b606091505b50915091508115613780578087858151811061374157fe5b602002602001015160200181905250613767602082510382615e1390919063ffffffff16565b87858151811061377357fe5b6020908102919091010151525b50505080600101905061365e565b600080856001600160a01b031663901754d786866040518363ffffffff1660e01b81526004016137bf929190617dbb565b60206040518083038186803b1580156137d757600080fd5b505afa1580156137eb573d6000803e3d6000fd5b505050506040513d601f19601f8201168201806040525081019061380f9190617097565b90506001600160a01b038116613829576000915050610f45565b60006001600160a01b038616156138bb576040516370a0823160e01b81526001600160a01b038716906370a0823190613866908590600401617d8e565b60206040518083038186803b15801561387e57600080fd5b505afa158015613892573d6000803e3d6000fd5b505050506040513d601f19601f820116820180604052508101906138b691906176ec565b6138c7565b816001600160a01b0316315b9050838110156138dc57600092505050610f45565b6040516303c2803f60e31b81526001600160a01b03831690631e1401f890620249f090613911908a908a908a90600401617eb6565b60206040518083038187803b15801561392957600080fd5b5086fa9350505050801561395a575060408051601f3d908101601f19168201909252613957918101906176ec565b60015b61399a573d808015613988576040519150601f19603f3d011682016040523d82523d6000602084013e61398d565b606091505b5060009350505050610f45565b9250610f45915050565b60606139b08385615470565b6020850151604080516002808252606082810190935281602001602082028036833701905050905085816000815181106139e657fe5b60200260200101906001600160a01b031690816001600160a01b0316815250508481600181518110613a1457fe5b6001600160a01b03909216602092830291909101909101528351806001600160401b0381118015613a4457600080fd5b50604051908082528060200260200182016040528015613a6e578160200160208202803683370190505b509350613a79616b22565b613a816154af565b905060005b82811015610b15576060613aa08b8984815181106109f757fe5b604051637c26833760e11b81529091506001600160a01b0387169063f84d066e90613ad69060019085908a908990600401618186565b600060405180830381600087803b158015613af057600080fd5b505af1925050508015613b2557506040513d6000823e601f3d908101601f19168201604052613b2291908101906175ae565b60015b613b53573d808015610ab7576040519150601f19603f3d011682016040523d82523d6000602084013e610abc565b600081600081518110613b6257fe5b6020026020010151905060008113613b7c57505050610b15565b80898581518110613b8957fe5b602002602001018181525050505050600101613a86565b8051606090806001600160401b0381118015613bbb57600080fd5b50604051908082528060200260200182016040528015613be5578160200160208202803683370190505b50915060005b8181101561158c57866001600160a01b031663343fbcdd62061a808888888681518110613c1457fe5b60200260200101516040518563ffffffff1660e01b8152600401613c3a93929190617eb6565b60206040518083038187803b158015613c5257600080fd5b5086fa93505050508015613c83575060408051601f3d908101601f19168201909252613c80918101906176ec565b60015b613cb1573d80801561153c576040519150601f19603f3d011682016040523d82523d6000602084013e611541565b80848381518110613cbe57fe5b602002602001018181525050838281518110613cd657fe5b602002602001015160001415613cec575061158c565b50600101613beb565b6000806060613d048587615470565b8351806001600160401b0381118015613d1c57600080fd5b50604051908082528060200260200182016040528015613d46578160200160208202803683370190505b509150613d55898989896164ca565b945092506001600160a01b038316613d6d5750613e27565b60005b81811015613e24576000613dde898688604051602001613d9293929190617e5e565b604051602081830303815290604052898789604051602001613db693929190617e5e565b604051602081830303815290604052898581518110613dd157fe5b602002602001015161661f565b905080848381518110613ded57fe5b602002602001018181525050838281518110613e0557fe5b602002602001015160001415613e1b5750613e24565b50600101613d70565b50505b955095509592505050565b6060613e3e8385615470565b8151806001600160401b0381118015613e5657600080fd5b50604051908082528060200260200182016040528015613e80578160200160208202803683370190505b50915060005b8181101561158c57866001600160a01b031663144a2752620f42408789888681518110613eaf57fe5b60200260200101516040518563ffffffff1660e01b8152600401613ed593929190617eb6565b60206040518083038187803b158015613eed57600080fd5b5086fa93505050508015613f1e575060408051601f3d908101601f19168201909252613f1b918101906176ec565b60015b613f4c573d80801561153c576040519150601f19603f3d011682016040523d82523d6000602084013e611541565b80848381518110613f5957fe5b602002602001018181525050838281518110613f7157fe5b602002602001015160001415613f87575061158c565b50600101613e86565b60006060613f9e8486615470565b8251806001600160401b0381118015613fb657600080fd5b50604051908082528060200260200182016040528015613fe0578160200160208202803683370190505b50915060005b8181101561405557600061400f89898989868151811061400257fe5b602002602001015161378e565b90508084838151811061401e57fe5b60200260200101818152505083828151811061403657fe5b60200260200101516000141561404c5750614055565b50600101613fe6565b5060405163901754d760e01b81526001600160a01b0388169063901754d7906140849089908990600401617dbb565b60206040518083038186803b15801561409c57600080fd5b505afa1580156140b0573d6000803e3d6000fd5b505050506040513d601f19601f820116820180604052508101906140d49190617097565b92505094509492505050565b604080516060818101909252610fb390806140ff868960808401617dbb565b60405160208183030381529060405281526020018688604051602001614126929190617dbb565b604051602081830303815290604052815260200161671181525083615acd565b604080516060818101909252610fb39080614165868960808401617dbb565b6040516020818303038152906040528152602001868860405160200161418c929190617dbb565b604051602081830303815290604052815260200161675881525083615acd565b60606141b88385615470565b8151806001600160401b03811180156141d057600080fd5b506040519080825280602002602001820160405280156141fa578160200160208202803683370190505b50915060006001600160a01b0386161561421d576142188787615570565b614220565b60005b905060006001600160a01b038616156142425761423d8887615570565b614245565b60005b905060005b83811015610cec5760016001600160a01b03881661429b5761427a846395b68fe760e01b898581518110610bf057fe5b87848151811061428657fe5b60200260200101819350828152505050614335565b6001600160a01b0389166142c15761427a8363cd7724c360e01b898581518110610bf057fe5b60006142db856395b68fe760e01b8a8681518110610bf057fe5b925090508015614318576142f78463cd7724c360e01b836155f6565b88858151811061430357fe5b60200260200101819450828152505050614333565b600087848151811061432657fe5b6020026020010181815250505b505b801580614355575085828151811061434957fe5b60200260200101516000145b156143605750610cec565b5060010161424a565b8051606090806001600160401b038111801561438457600080fd5b506040519080825280602002602001820160405280156143ae578160200160208202803683370190505b50915060005b8181101561171157856001600160a01b0316631f00ca74620249f08684815181106143db57fe5b6020026020010151886040518463ffffffff1660e01b815260040161440192919061835b565b60006040518083038187803b15801561441957600080fd5b5086fa9350505050801561444f57506040513d6000823e601f3d908101601f1916820160405261444c919081019061769a565b60015b61447d573d8080156116aa576040519150601f19603f3d011682016040523d82523d6000602084013e6116af565b8060008151811061448a57fe5b602002602001015184838151811061449e57fe5b6020026020010181815250508382815181106144b657fe5b6020026020010151600014156144cc5750611711565b506001016143b4565b60606144e18385615470565b8151806001600160401b03811180156144f957600080fd5b50604051908082528060200260200182016040528015614523578160200160208202803683370190505b50915060005b8181101561158c57866001600160a01b031663ff1fd974620f4240888888868151811061455257fe5b60200260200101516040518563ffffffff1660e01b815260040161457893929190617eb6565b60206040518083038187803b15801561459057600080fd5b5086fa935050505080156145c1575060408051601f3d908101601f191682019092526145be918101906176ec565b60015b6145ef573d80801561153c576040519150601f19603f3d011682016040523d82523d6000602084013e611541565b808483815181106145fc57fe5b60200260200101818152505083828151811061461457fe5b60200260200101516000141561462a575061158c565b50600101614529565b60006060806146428587615470565b61464d87878761627c565b925082614659576108f1565b60405163276fdad960e11b81523090634edfb5b290614682908a9087908b908b90600401618322565b60006040518083038186803b15801561469a57600080fd5b505afa1580156146ae573d6000803e3d6000fd5b505050506040513d6000823e601f3d908101601f191682016040526146d69190810190617704565b608088018190528451909250806001600160401b03811180156146f857600080fd5b50604051908082528060200260200182016040528015614722578160200160208202803683370190505b50915060005b8181101561480d576000306001600160a01b031663f1ed7fa48b8b8b8b878151811061475057fe5b60200260200101516040518563ffffffff1660e01b815260040161477794939291906182ec565b60206040518083038186803b15801561478f57600080fd5b505afa1580156147a3573d6000803e3d6000fd5b505050506040513d601f19601f820116820180604052508101906147c791906176ec565b9050808483815181106147d657fe5b6020026020010181815250508382815181106147ee57fe5b602002602001015160001415614804575061480d565b50600101614728565b50509450945094915050565b60008060606148288587615470565b614834888888886164ca565b935091506001600160a01b03821661484b57613e27565b8351806001600160401b038111801561486357600080fd5b5060405190808252806020026020018201604052801561488d578160200160208202803683370190505b5060408051606081019091529092506148fa90806148b18987891560808501617e5e565b60405160208183030381529060405281526020018986886040516020016148da93929190617e5e565b604051602081830303815290604052815260200161661f81525086615acd565b915050955095509592505050565b60008060606149178587615470565b8351806001600160401b038111801561492f57600080fd5b50604051908082528060200260200182016040528015614959578160200160208202803683370190505b508851604051630939d86360e11b81529193506001600160a01b031690631273b0c69061498c908a908a90600401617dbb565b60206040518083038186803b1580156149a457600080fd5b505afa1580156149b8573d6000803e3d6000fd5b505050506040513d601f19601f820116820180604052508101906149dc9190617097565b925060006001600160a01b038416156149fa57506001935086614a99565b8851604051630939d86360e11b81526001600160a01b0390911690631273b0c690614a2b908a908c90600401617dbb565b60206040518083038186803b158015614a4357600080fd5b505afa158015614a57573d6000803e3d6000fd5b505050506040513d601f19601f82011682018060405250810190614a7b9190617097565b93506001600160a01b038416614a925750506108f1565b5060009350855b836001600160a01b031663dd58b41c6040518163ffffffff1660e01b815260040160206040518083038186803b158015614ad257600080fd5b505afa158015614ae6573d6000803e3d6000fd5b505050506040513d601f19601f82011682018060405250810190614b0a91906176cc565b614b155750506108f1565b614b8d60405180606001604052808987858e60200151604051602001614b3e9493929190617dd5565b60405160208183030381529060405281526020018a87858e60200151604051602001614b6d9493929190617dd5565b6040516020818303038152906040528152602001615cca81525087615acd565b925050509450945094915050565b8051606090806001600160401b0381118015614bb657600080fd5b50604051908082528060200260200182016040528015614be0578160200160208202803683370190505b50915060005b8181101561158c57866001600160a01b031663838e6a22620493e08888888681518110614c0f57fe5b60200260200101516040518563ffffffff1660e01b8152600401614c3593929190617eb6565b60206040518083038187803b158015614c4d57600080fd5b5086fa93505050508015614c7e575060408051601f3d908101601f19168201909252614c7b918101906176ec565b60015b614cac573d80801561153c576040519150601f19603f3d011682016040523d82523d6000602084013e611541565b80848381518110614cb957fe5b60200260200101818152505050600101614be6565b600084608001515160001415614ce657506000610f45565b84604001516001600160a01b031663418436bc6207a12087606001516001600160a01b0316876001600160a01b031614614d205786614d36565b73eeeeeeeeeeeeeeeeeeeeeeeeeeeeeeeeeeeeeeee5b88606001516001600160a01b0316876001600160a01b031614614d595786614d6f565b73eeeeeeeeeeeeeeeeeeeeeeeeeeeeeeeeeeeeeeee5b8660008b608001516040518763ffffffff1660e01b8152600401614d97959493929190617eda565b60206040518083038187803b158015614daf57600080fd5b5086fa93505050508015614de0575060408051601f3d908101601f19168201909252614ddd918101906176ec565b60015b614e1e573d808015614e0e576040519150601f19603f3d011682016040523d82523d6000602084013e614e13565b606091505b506000915050610f45565b6000614e298561680d565b60ff1690506000614e398761680d565b60ff169050670de0b6b3a764000081600a0a83600a0a8786020281614e5a57fe5b0481614e6257fe5b049350505050610f45565b60006060614e7b8486615470565b8251806001600160401b0381118015614e9357600080fd5b50604051908082528060200260200182016040528015614ebd578160200160208202803683370190505b509150614f2860405180606001604052808988604051602001614ee1929190617dbb565b60405160208183030381529060405281526020018989604051602001614f08929190617dbb565b604051602081830303815290604052815260200161682081525085615acd565b60405163901754d760e01b81529092506001600160a01b0388169063901754d7906140849089908990600401617dbb565b60606000836001600160a01b031663c45a01556040518163ffffffff1660e01b815260040160206040518083038186803b158015614f9657600080fd5b505afa158015614faa573d6000803e3d6000fd5b505050506040513d601f19601f82011682018060405250810190614fce9190617097565b905060018351036001600160401b0381118015614fea57600080fd5b50604051908082528060200260200182016040528015615014578160200160208202803683370190505b50915060005b825181101561523557816001600160a01b0316635b1dc86f620249f086848151811061504257fe5b602002602001015187856001018151811061505957fe5b60200260200101516040518463ffffffff1660e01b815260040161507e929190617dbb565b60006040518083038187803b15801561509657600080fd5b5086fa935050505080156150cc57506040513d6000823e601f3d908101601f191682016040526150c9919081019061744c565b60015b61511a573d8080156150fa576040519150601f19603f3d011682016040523d82523d6000602084013e6150ff565b606091505b50506040805160008152602081019091529250615238915050565b60008151600014156151415750506040805160008152602081019091529250615238915050565b60005b825181101561522a57600083828151811061515b57fe5b60200260200101516001600160a01b03166318160ddd6040518163ffffffff1660e01b815260040160206040518083038186803b15801561519b57600080fd5b505afa1580156151af573d6000803e3d6000fd5b505050506040513d601f19601f820116820180604052508101906151d391906176ec565b905082811115615221578092508382815181106151ec57fe5b602002602001015187868151811061520057fe5b60200260200101906001600160a01b031690816001600160a01b0316815250505b50600101615144565b50505060010161501a565b50505b92915050565b6000606085600001516001600160a01b03166321f8a72187600001516001600160a01b0316639232494e6040518163ffffffff1660e01b815260040160206040518083038186803b15801561529257600080fd5b505afa1580156152a6573d6000803e3d6000fd5b505050506040513d601f19601f820116820180604052508101906152ca91906176ec565b6040518263ffffffff1660e01b81526004016152e691906180fe565b60206040518083038186803b1580156152fe57600080fd5b505afa158015615312573d6000803e3d6000fd5b505050506040513d601f19601f820116820180604052508101906153369190617097565b91508560200151516000141561534b57615467565b6000805b8760200151518110156154645760028860200151828151811061536e57fe5b60200260200101515110156153825761545c565b836001600160a01b0316637f9c0ecd620493e08a6020015184815181106153a557fe5b60200260200101518860018a5103815181106153bd57fe5b60200260200101516040518463ffffffff1660e01b81526004016153e2929190618078565b60206040518083038187803b1580156153fa57600080fd5b5086fa9350505050801561542b575060408051601f3d908101601f19168201909252615428918101906176ec565b60015b6154345761545c565b8281111561545a578092508860200151828151811061544f57fe5b602002602001015193505b505b60010161534f565b50505b94509492505050565b806001600160a01b0316826001600160a01b031614156154ab5760405162461bcd60e51b81526004016154a290618275565b60405180910390fd5b5050565b6154b7616b22565b50604080516080810182523080825260006020830181905292820152606081019190915290565b604080516001808252818301909252606091829190816020015b615500616b92565b8152602001906001900390816154f85790505090506040518060a00160405280856000015181526020016000815260200160018152602001848152602001604051806020016040528060008152508152508160008151811061555e57fe5b60209081029190910101529392505050565b6040516303795fb160e11b81526000906001600160a01b038416906306f2bf629061559f908590600401617d8e565b60206040518083038186803b1580156155b757600080fd5b505afa1580156155cb573d6000803e3d6000fd5b505050506040513d601f19601f820116820180604052508101906155ef9190617097565b9392505050565b6000806001600160a01b03851661560c57610793565b6060856001600160a01b0316620249f0868660405160240161562e91906180fe565b60408051601f198184030181529181526020820180516001600160e01b03166001600160e01b031990941693909317909252905161566c9190617d72565b6000604051808303818686fa925050503d80600081146156a8576040519150601f19603f3d011682016040523d82523d6000602084013e6156ad565b606091505b50909250905081156156d057808060200190518101906156cd91906176ec565b92505b50935093915050565b600080600080846001600160a01b031663d9638d368b602001516040518263ffffffff1660e01b815260040161570f91906180fe565b60a06040518083038186803b15801561572757600080fd5b505afa15801561573b573d6000803e3d6000fd5b505050506040513d601f19601f8201168201806040525081019061575f9190617b2c565b94509450505092506000620f424090508a604001516001600160a01b0316896001600160a01b0316141561588757600061579e8964e8d4a51000616870565b905060006157c26b033b2e3c9fd0803ce80000006157bc88856168a6565b90616870565b90508481106157da5760009650505050505050615990565b6000615869670de0b6b3a76400006158638c6001600160a01b031663568d4b6f6040518163ffffffff1660e01b815260040160206040518083038186803b15801561582457600080fd5b505afa158015615838573d6000803e3d6000fd5b505050506040513d601f19601f8201168201806040525081019061585c91906176ec565b8690616870565b906168c2565b9050600061587784836168ec565b9850615990975050505050505050565b8a604001516001600160a01b03168a6001600160a01b031614156159875787848111156158bc57600095505050505050615990565b60006158d86b033b2e3c9fd0803ce80000006157bc88856168ec565b90508381116158f05760009650505050505050615990565b60006159758a6001600160a01b031663fae036d56040518163ffffffff1660e01b815260040160206040518083038186803b15801561592e57600080fd5b505afa158015615942573d6000803e3d6000fd5b505050506040513d601f19601f8201168201806040525081019061596691906176ec565b670de0b6b3a7640000906168a6565b90506000615877826158638688616870565b60009450505050505b9695505050505050565b6000806159a5616bc4565b858060200190518101906159b99190617752565b915091506000858060200190518101906159d39190617736565b905060006060306322db5ed160e21b8587866159ee8c61690b565b604051602401615a0194939291906182ba565b60408051601f198184030181529181526020820180516001600160e01b03166001600160e01b0319909416939093179092529051615a3f9190617d72565b600060405180830381855afa9150503d8060008114615a7a576040519150601f19603f3d011682016040523d82523d6000602084013e615a7f565b606091505b509150915081615a97576000955050505050506155ef565b80806020019051810190615aab919061769a565b600081518110615ab757fe5b6020026020010151955050505050509392505050565b606081516001600160401b0381118015615ae657600080fd5b50604051908082528060200260200182016040528015615b10578160200160208202803683370190505b509050815160001415615b2257615238565b6000615b538460000151856020015185600081518110615b3e57fe5b6020026020010151876040015163ffffffff16565b905080615b605750615238565b6000615b7d8560200151866000015184886040015163ffffffff16565b905080615b8b575050615238565b60005b8451811015615cc15760005b6005811015615c8357615bc1868381518110615bb257fe5b6020026020010151848661694c565b935083615bcd57615c83565b615bdc6127156127108661694c565b935083615be857615c83565b6000615c0588602001518960000151878b6040015163ffffffff16565b905080615c125750615c83565b809350868381518110615c2157fe5b60200260200101518410615c7a576000878481518110615c3d57fe5b6020026020010151612710898681518110615c5457fe5b602002602001015187030281615c6657fe5b04905060058111615c78575050615c83565b505b50600101615b9a565b50615ca2858281518110615c9357fe5b6020026020010151838561694c565b848281518110615cae57fe5b6020908102919091010152600101615b8e565b50505092915050565b600080600080600087806020019051810190615ce691906170ec565b9350935093509350816001600160a01b0316846001600160a01b03161415615dd0576040516351400f0b60e11b81526001600160a01b0384169063a2801e1690620493e090615d39908a906004016180fe565b60206040518083038187803b158015615d5157600080fd5b5086fa93505050508015615d82575060408051601f3d908101601f19168201909252615d7f918101906176ec565b60015b615dc4573d808015615db0576040519150601f19603f3d011682016040523d82523d6000602084013e615db5565b606091505b506000955050505050506155ef565b94506155ef9350505050565b60405163ca19ebd960e01b81526001600160a01b0382169063ca19ebd990620493e090615d399087908b90600401617da2565b615e0e8383836169a4565b505050565b60006155ef83836169cb565b60008282028315801590615e3c575082848281615e3857fe5b0414155b15615e4b576000915050615238565b6706f05b59d3b20000810181811015615e6957600092505050615238565b670de0b6b3a76400009004949350505050565b600080600085806020019051810190615e9591906170b3565b91509150600085806020019051810190615eaf9190617097565b90503063e8e4af09838584615ec38a61690b565b6040518563ffffffff1660e01b8152600401615ee29493929190617e00565b60006040518083038186803b158015615efa57600080fd5b505afa925050508015615f2f57506040513d6000823e601f3d908101601f19168201604052615f2c919081019061769a565b60015b615f70573d808015615f5d576040519150601f19603f3d011682016040523d82523d6000602084013e615f62565b606091505b5060009450505050506155ef565b80600081518110615f7d57fe5b60200260200101519450505050506155ef565b600080600080846001600160a01b031663d9638d368b602001516040518263ffffffff1660e01b8152600401615fc691906180fe565b60a06040518083038186803b158015615fde57600080fd5b505afa158015615ff2573d6000803e3d6000fd5b505050506040513d601f19601f820116820180604052508101906160169190617b2c565b945094505050925089604001516001600160a01b0316886001600160a01b0316141561613357600087905060006160c6886001600160a01b031663568d4b6f6040518163ffffffff1660e01b815260040160206040518083038186803b15801561607f57600080fd5b505afa158015616093573d6000803e3d6000fd5b505050506040513d601f19601f820116820180604052508101906160b791906176ec565b670de0b6b3a7640000906168ec565b905060006160e08261586385670de0b6b3a7640000616870565b905060006160fe6b033b2e3c9fd0803ce80000006157bc89856168a6565b9050858110616117576000975050505050505050615990565b6000615877600161612d8564e8d4a510006168c2565b906168a6565b89604001516001600160a01b0316896001600160a01b031614156162185760006161628864e8d4a51000616870565b905060006161a2886001600160a01b031663fae036d56040518163ffffffff1660e01b815260040160206040518083038186803b15801561592e57600080fd5b905060006161bc670de0b6b3a76400006158638585616870565b9050858111156161d55760009650505050505050615990565b60006161f16b033b2e3c9fd0803ce80000006157bc89856168ec565b905084811161620a576000975050505050505050615990565b509550615990945050505050565b5060009998505050505050505050565b600080616233616bc4565b858060200190518101906162479190617752565b915091506000858060200190518101906162619190617736565b9050600060603063205e01d760e11b8587866159ee8c61690b565b600080846020015190506060816001600160a01b031663910ffc7187606001516001600160a01b0316876001600160a01b0316146162ba57866162d0565b73eeeeeeeeeeeeeeeeeeeeeeeeeeeeeeeeeeeeeeee5b88606001516001600160a01b0316876001600160a01b0316146162f35786616309565b73eeeeeeeeeeeeeeeeeeeeeeeeeeeeeeeeeeeeeeee5b604080516000815260208101918290526001600160e01b031960e086901b1690915261633d92919060019060248101617e82565b60006040518083038186803b15801561635557600080fd5b505afa158015616369573d6000803e3d6000fd5b505050506040513d6000823e601f3d908101601f1916820160405261639191908101906174e4565b5050905080518660000151106163ad5750600091506155ef9050565b808660000151815181106163bd57fe5b6020026020010151925060f883901c60001c60bb14156117115750600091506155ef9050565b6000806163ee616be4565b84806020019051810190616402919061719a565b9150915060008680602001905181019061641c919061719a565b50604051633c7b5fe960e21b8152909150309063f1ed7fa490616449908590859088908b906004016182ec565b60206040518083038186803b15801561646157600080fd5b505afa925050508015616491575060408051601f3d908101601f1916820190925261648e918101906176ec565b60015b6164bf573d808015615f5d576040519150601f19603f3d011682016040523d82523d6000602084013e615f62565b93506155ef92505050565b6000806060866001600160a01b03166357a281dc86866040518363ffffffff1660e01b81526004016164fd929190617dbb565b60006040518083038186803b15801561651557600080fd5b505afa158015616529573d6000803e3d6000fd5b505050506040513d6000823e601f3d908101601f19168201604052616551919081019061744c565b9050600191508051600014156165ea576040516315e8a07760e21b81526001600160a01b038816906357a281dc9061658f9087908990600401617dbb565b60006040518083038186803b1580156165a757600080fd5b505afa1580156165bb573d6000803e3d6000fd5b505050506040513d6000823e601f3d908101601f191682016040526165e3919081019061744c565b9050600091505b805186106165ff576000809250925050615467565b80868151811061660b57fe5b602002602001015192505094509492505050565b60008060008086806020019051810190616639919061714a565b92509250925080156166dd57604051633cd0243b60e11b81526001600160a01b038316906379a0487690620493e090616679906000908a90600401617da2565b604080518083038187803b15801561669057600080fd5b5086fa935050505080156166c1575060408051601f3d908101601f191682019092526166be91810190617ad4565b60015b6166d157600093505050506155ef565b5093506155ef92505050565b6040516366410a2160e01b81526001600160a01b038316906366410a2190620493e090616679906000908a90600401617da2565b60008060008580602001905181019061672a91906170b3565b915091506000858060200190518101906167449190617097565b9050306330d6570d838584615ec38a61690b565b60008060008580602001905181019061677191906170b3565b9150915060008580602001905181019061678b9190617097565b90503063a469841762061a808486856167a38b61690b565b6040518663ffffffff1660e01b81526004016167c29493929190617e00565b60006040518083038187803b1580156167da57600080fd5b5086fa93505050508015615f2f57506040513d6000823e601f3d908101601f19168201604052615f2c919081019061769a565b6000616818826169f5565b90505b919050565b60008060008580602001905181019061683991906170b3565b915091506000808680602001905181019061685491906170b3565b915091506168648484838961378e565b98975050505050505050565b60008261687f57506000615238565b8282028284828161688c57fe5b04146155ef576155ef6168a160018686616aa1565b616afb565b6000828201838110156155ef576155ef6168a160008686616aa1565b6000816168d8576168d86168a160038585616aa1565b60008284816168e357fe5b04949350505050565b600082821115616905576169056168a160028585616aa1565b50900390565b60408051600180825281830190925260609160208083019080368337019050509050818160008151811061693b57fe5b602002602001018181525050919050565b6000831580616959575081155b80616962575082155b1561696f575060006155ef565b8382028285828161697c57fe5b041461698c5760009150506155ef565b836001850382018161699a57fe5b0495945050505050565b81602001835110156169c3576169c36168a16005855185602001616b03565b910160200152565b600081602001835110156169ec576169ec6168a16005855185602001616b03565b50016020015190565b60006012905060006060836001600160a01b031660405180604001604052806004815260200163313ce56760e01b815250604051616a339190617d72565b600060405180830381855afa9150503d8060008114616a6e576040519150601f19603f3d011682016040523d82523d6000602084013e616a73565b606091505b5091509150818015616a8757506020815110155b15616a9a57616a97816000615e13565b92505b5050919050565b606063e946c1bb60e01b848484604051602401616ac093929190618157565b60408051601f198184030181529190526020810180516001600160e01b03166001600160e01b03199093169290921790915290509392505050565b805160208201fd5b6060632800659560e01b848484604051602401616ac093929190618178565b60408051608081018252600080825260208201819052918101829052606081019190915290565b604051806040016040528060008152602001606081525090565b6040518060a0016040528060008152602001600081526020016000815260200160008152602001600081525090565b6040518060a0016040528060008019168152602001600081526020016000815260200160008152602001606081525090565b604080516060810182526000808252602082018190529181019190915290565b6040518060a001604052806000815260200160006001600160a01b0316815260200160006001600160a01b0316815260200160006001600160a01b03168152602001606081525090565b803561523881618477565b805161523881618477565b600082601f830112616c54578081fd5b8135616c67616c62826183ed565b6183c7565b818152915060208083019084810181840286018201871015616c8857600080fd5b60005b84811015616cb0578135616c9e81618477565b84529282019290820190600101616c8b565b505050505092915050565b600082601f830112616ccb578081fd5b8135616cd9616c62826183ed565b818152915060208083019084810160005b84811015616cb057616d01888484358a0101616c44565b84529282019290820190600101616cea565b600082601f830112616d23578081fd5b8135616d31616c62826183ed565b818152915060208083019084810160005b84811015616cb05781358701606080601f19838c03011215616d6357600080fd5b616d6c816183c7565b616d788b878501616c2e565b81526040808401356001600160401b03811115616d9457600080fd5b616da28d8983880101616e7e565b888401525091909201359082015284529282019290820190600101616d42565b600082601f830112616dd2578081fd5b8135616de0616c62826183ed565b818152915060208083019084810181840286018201871015616e0157600080fd5b60005b84811015616cb057813584529282019290820190600101616e04565b600082601f830112616e30578081fd5b8151616e3e616c62826183ed565b818152915060208083019084810181840286018201871015616e5f57600080fd5b60005b84811015616cb057815184529282019290820190600101616e62565b600082601f830112616e8e578081fd5b8135616e9c616c628261840c565b9150808252836020828501011115616eb357600080fd5b8060208401602084013760009082016020015292915050565b600082601f830112616edc578081fd5b8151616eea616c628261840c565b9150808252836020828501011115616f0157600080fd5b616f1281602084016020860161843a565b5092915050565b80516002811061523857600080fd5b600060608284031215616f39578081fd5b616f4360606183c7565b90508135616f5081618477565b81526020820135616f608161848c565b60208201526040820135616f738161848c565b604082015292915050565b600060608284031215616f8f578081fd5b616f9960606183c7565b90508151616fa681618477565b81526020820151616fb68161848c565b60208201526040820151616f738161848c565b600060408284031215616fda578081fd5b616fe460406183c7565b90508135616ff181618477565b8152602082013561700181618477565b602082015292915050565b600060a0828403121561701d578081fd5b61702760a06183c7565b905081358152602082013561703b81618477565b6020820152604082013561704e81618477565b6040820152606082013561706181618477565b606082015260808201356001600160401b0381111561707f57600080fd5b61708b84828501616e7e565b60808301525092915050565b6000602082840312156170a8578081fd5b81516155ef81618477565b600080604083850312156170c5578081fd5b82516170d081618477565b60208401519092506170e181618477565b809150509250929050565b60008060008060808587031215617101578182fd5b845161710c81618477565b602086015190945061711d81618477565b604086015190935061712e81618477565b606086015190925061713f81618477565b939692955090935050565b60008060006060848603121561715e578081fd5b835161716981618477565b602085015190935061717a81618477565b6040850151909250801515811461718f578182fd5b809150509250925092565b600080604083850312156171ac578182fd5b82516171b781618477565b60208401519092506001600160401b03808211156171d3578283fd5b9084019060a082870312156171e6578283fd5b6171f060a06183c7565b825181526172018760208501616c39565b60208201526172138760408501616c39565b60408201526172258760608501616c39565b606082015260808301518281111561723b578485fd5b61724788828601616ecc565b6080830152508093505050509250929050565b600080600080600060a08688031215617271578283fd5b853561727c81618477565b9450602086013561728c81618477565b9350604086013561729c81618477565b925060608601356172ac81618477565b915060808601356001600160401b038111156172c6578182fd5b6172d288828901616dc2565b9150509295509295909350565b600080600080608085870312156172f4578182fd5b84356172ff81618477565b9350602085013561730f81618477565b9250604085013561731f81618477565b915060608501356001600160401b03811115617339578182fd5b61734587828801616dc2565b91505092959194509250565b60008060008060808587031215617366578182fd5b843561737181618477565b9350602085013561738181618477565b9250604085013561739181618477565b9396929550929360600135925050565b6000806000606084860312156173b5578081fd5b83356173c081618477565b925060208401356001600160401b03808211156173db578283fd5b6173e787838801616c44565b935060408601359150808211156173fc578283fd5b5061740986828701616dc2565b9150509250925092565b600080600080600060a0868803121561742a578283fd5b853561743581618477565b945060208601359350604086013561729c81618477565b6000602080838503121561745e578182fd5b82516001600160401b03811115617473578283fd5b8301601f81018513617483578283fd5b8051617491616c62826183ed565b81815283810190838501858402850186018910156174ad578687fd5b8694505b838510156174d85780516174c481618477565b8352600194909401939185019185016174b1565b50979650505050505050565b6000806000606084860312156174f8578081fd5b83516001600160401b038082111561750e578283fd5b818601915086601f830112617521578283fd5b815161752f616c62826183ed565b80828252602080830192508086018b82838702890101111561754f578788fd5b8796505b84871015617571578051845260019690960195928101928101617553565b508901519097509350505080821115617588578283fd5b5061759586828701616e20565b9250506175a58560408601616f19565b90509250925092565b600060208083850312156175c0578182fd5b82516001600160401b038111156175d5578283fd5b8301601f810185136175e5578283fd5b80516175f3616c62826183ed565b818152838101908385018584028501860189101561760f578687fd5b8694505b838510156174d8578051835260019490940193918501918501617613565b600080600060608486031215617645578081fd5b83356001600160401b038082111561765b578283fd5b61766787838801616d13565b9450602086013591508082111561767c578283fd5b5061768986828701616d13565b925050604084013590509250925092565b6000602082840312156176ab578081fd5b81516001600160401b038111156176c0578182fd5b610f4584828501616e20565b6000602082840312156176dd578081fd5b815180151581146155ef578182fd5b6000602082840312156176fd578081fd5b5051919050565b600060208284031215617715578081fd5b81516001600160401b0381111561772a578182fd5b610f4584828501616ecc565b600060208284031215617747578081fd5b81516155ef816184a2565b60008060808385031215617764578182fd5b825161776f816184a2565b915061777e8460208501616f7e565b90509250929050565b60008060008084860360a081121561779d578283fd5b60408112156177aa578283fd5b506177b560406183c7565b8535815260208601356177c781618477565b6020820152935060408501356177dc81618477565b925060608501356177ec81618477565b915060808501356001600160401b03811115617339578182fd5b6000806000806080858703121561781b578182fd5b84356001600160401b0380821115617831578384fd5b9086019060408289031215617844578384fd5b61784e60406183c7565b6178588984616c2e565b815260208301358281111561786b578586fd5b6178778a828601616cbb565b6020830152508096505061788e8860208901616c2e565b945061789d8860408901616c2e565b935060608701359150808211156178b2578283fd5b5061734587828801616dc2565b60008060008060c085870312156178d4578182fd5b6178de8686616f28565b935060608501356178ee816184a2565b925060808501356178fe816184a2565b915060a08501356001600160401b03811115617339578182fd5b60008060008060a0858703121561792d578182fd5b6179378686616fc9565b935060408501356177dc81618477565b6000806000806080858703121561795c578182fd5b84356001600160401b0380821115617972578384fd5b61797e8883890161700c565b95506020870135915061799082618477565b9093506040860135906179a282618477565b909250606086013590808211156178b2578283fd5b600080600080608085870312156179cc578182fd5b84356001600160401b038111156179e1578283fd5b6179ed8782880161700c565b945050602085013561738181618477565b60008060008060808587031215617a13578182fd5b84356001600160401b03811115617a28578283fd5b617a348782880161700c565b945050602085013592506040850135617a4c81618477565b9150606085013561713f81618477565b60008060008084860360c0811215617a72578283fd5b6060811215617a7f578283fd5b50617a8a60606183c7565b8535617a9581618477565b8152602086810135908201526040860135617aaf81618477565b604082015293506060850135617ac481618477565b925060808501356178fe81618477565b60008060408385031215617ae6578182fd5b505080516020909101519092909150565b60008060008060808587031215617b0c578182fd5b505082516020840151604085015160609095015191969095509092509050565b600080600080600060a08688031215617b43578283fd5b5050835160208501516040860151606087015160809097015192989197509594509092509050565b6001600160a01b0316815260200190565b600081518352602082015160208401526040820151604084015260608201516060840152608082015160a06080850152610f4560a0850182617c92565b6000815180845260208085019450808401835b83811015617bf15781516001600160a01b031687529582019590820190600101617bcc565b509495945050505050565b6000815180845260208085019450808401835b83811015617bf157815187529582019590820190600101617c0f565b6000815180845260208085018081965082840281019150828601855b85811015617c855782840389528151805185528501516040868601819052617c7181870183617c92565b9a87019a9550505090840190600101617c47565b5091979650505050505050565b60008151808452617caa81602086016020860161843a565b601f01601f19169290920160200192915050565b80516001600160a01b031682526020808201516001600160e01b03199081169184019190915260409182015116910152565b80516001600160a01b039081168352602080830151151590840152604080830151909116908301526060908101511515910152565b600081518352602082015160018060a01b0380821660208601528060408501511660408601528060608501511660608601525050608082015160a06080850152610f4560a0850182617c92565b60008251617d8481846020870161843a565b9190910192915050565b6001600160a01b0391909116815260200190565b6001600160a01b03929092168252602082015260400190565b6001600160a01b0392831681529116602082015260400190565b6001600160a01b03948516815292841660208401529083166040830152909116606082015260800190565b6001600160a01b03858116825284811660208301528316604082015260806060820181905260009061599090830184617bfc565b6001600160a01b039485168152928416602084015292166040820152606081019190915260800190565b6001600160a01b039384168152919092166020820152901515604082015260600190565b6001600160a01b03858116825284166020820152821515604082015260806060820181905260009061599090830184617c92565b6001600160a01b039384168152919092166020820152604081019190915260600190565b6001600160a01b03868116825285166020820152604081018490526060810183905260a060808201819052600090617f1490830184617c92565b979650505050505050565b6001600160a01b0384168152606060208201819052600090617f4390830185617bb9565b82810360408401526159908185617bfc565b6001600160a01b03851681526000617f6c8561846a565b84602083015260806040830152617f866080830185617bfc565b8281036060840152617f148185617bfc565b6001600160a01b03898116825260009061010090617fb58b61846a565b8a6020850152816040850152617fcd8285018b617bfc565b91508382036060850152617fe1828a617bfc565b90881660808501529050617ff48661846a565b8560a084015282810360c084015261800c8186617bfc565b905082810360e08401526180208185617bfc565b9b9a5050505050505050505050565b6001600160a01b0383168152604060208201819052600090610f4590830184617d25565b6000604082526180666040830185617bb9565b8281036020840152610fb38185617bfc565b60006040825261808b6040830185617bb9565b90508260208301529392505050565b6000604082526180ad6040830185617c2b565b8281036020840152610fb38185617c2b565b6000602082526155ef6020830184617bfc565b83151581526001600160a01b0383166020820152606060408201819052600090610fb390830184617bfc565b90815260200190565b600084825260606020830152617f436060830185617c92565b6000602082526155ef6020830184617c92565b6001600160a01b0383168152604060208201819052600090610f4590830184617bfc565b606081016181648561846a565b938152602081019290925260409091015290565b606081016008851061816457fe5b600060e082016181958761842f565b8352602060e0818501528187516181ac81856180fe565b91508193508281028201838a01865b838110156181e55786830385526181d3838351617b7c565b948601949250908501906001016181bb565b505086810360408801528094508851925061820083826180fe565b94505050818701845b8281101561822a5761821c858351617b6b565b945090830190600101618209565b5050505080915050610fb36060830184617cf0565b600f93840b81529190920b6020820152604081019190915260600190565b600f83900b8152608081016155ef6020830184617cbe565b60208082526025908201527f455243323042726964676553616d706c65722f494e56414c49445f544f4b454e6040820152642fa820a4a960d91b606082015260800190565b60006182c68287617cbe565b84600f0b606083015283600f0b608083015260c060a083015261599060c0830184617bfc565b6000608082526182ff6080830187617d25565b6001600160a01b0395861660208401529390941660408201526060015292915050565b6000608082526183356080830187617d25565b6020830195909552506001600160a01b0392831660408201529116606090910152919050565b600083825260406020830152610f456040830184617bb9565b60008482526060602083015261838d6060830185617bb9565b82810360408401526159908185617bb9565b958652602086019490945260408501929092526060840152608083015260a082015260c00190565b6040518181016001600160401b03811182821017156183e557600080fd5b604052919050565b60006001600160401b03821115618402578081fd5b5060209081020190565b60006001600160401b03821115618421578081fd5b50601f01601f191660200190565b806002811061681b57fe5b60005b8381101561845557818101518382015260200161843d565b83811115618464576000848401525b50505050565b6004811061847457fe5b50565b6001600160a01b038116811461847457600080fd5b6001600160e01b03198116811461847457600080fd5b80600f0b811461847457600080fdfea2646970667358221220ab32036952b73d13478a4c020d3e2ad0bb63099160e572ce207b53bc7b4890d164736f6c634300060c0033",
                "opcodes": "PUSH1 0x80 PUSH1 0x40 MSTORE CALLVALUE DUP1 ISZERO PUSH3 0x11 JUMPI PUSH1 0x0 DUP1 REVERT JUMPDEST POP PUSH2 0x84E7 DUP1 PUSH3 0x22 PUSH1 0x0 CODECOPY PUSH1 0x0 RETURN INVALID PUSH1 0x80 PUSH1 0x40 MSTORE CALLVALUE DUP1 ISZERO PUSH2 0x10 JUMPI PUSH1 0x0 DUP1 REVERT JUMPDEST POP PUSH1 0x4 CALLDATASIZE LT PUSH2 0x25E JUMPI PUSH1 0x0 CALLDATALOAD PUSH1 0xE0 SHR DUP1 PUSH4 0x98777748 GT PUSH2 0x146 JUMPI DUP1 PUSH4 0xC25C4138 GT PUSH2 0xC3 JUMPI DUP1 PUSH4 0xD9BCA372 GT PUSH2 0x87 JUMPI DUP1 PUSH4 0xD9BCA372 EQ PUSH2 0x596 JUMPI DUP1 PUSH4 0xDDD5AA28 EQ PUSH2 0x5A9 JUMPI DUP1 PUSH4 0xE8E4AF09 EQ PUSH2 0x5BC JUMPI DUP1 PUSH4 0xF1ED7FA4 EQ PUSH2 0x5CF JUMPI DUP1 PUSH4 0xF3868E9C EQ PUSH2 0x363 JUMPI DUP1 PUSH4 0xF5A4994D EQ PUSH2 0x5E2 JUMPI PUSH2 0x25E JUMP JUMPDEST DUP1 PUSH4 0xC25C4138 EQ PUSH2 0x537 JUMPI DUP1 PUSH4 0xC8319084 EQ PUSH2 0x54A JUMPI DUP1 PUSH4 0xC8C74A37 EQ PUSH2 0x55D JUMPI DUP1 PUSH4 0xC94706D8 EQ PUSH2 0x570 JUMPI DUP1 PUSH4 0xCC1621C9 EQ PUSH2 0x583 JUMPI PUSH2 0x25E JUMP JUMPDEST DUP1 PUSH4 0xA4698417 GT PUSH2 0x10A JUMPI DUP1 PUSH4 0xA4698417 EQ PUSH2 0x4CA JUMPI DUP1 PUSH4 0xA75E744B EQ PUSH2 0x4DD JUMPI DUP1 PUSH4 0xAB000276 EQ PUSH2 0x4F0 JUMPI DUP1 PUSH4 0xADC636BF EQ PUSH2 0x503 JUMPI DUP1 PUSH4 0xB90CD2FB EQ PUSH2 0x524 JUMPI PUSH2 0x25E JUMP JUMPDEST DUP1 PUSH4 0x98777748 EQ PUSH2 0x44F JUMPI DUP1 PUSH4 0x9E3F05C3 EQ PUSH2 0x462 JUMPI DUP1 PUSH4 0x9E4A2A69 EQ PUSH2 0x484 JUMPI DUP1 PUSH4 0x9EA0FF13 EQ PUSH2 0x497 JUMPI DUP1 PUSH4 0xA0295B8B EQ PUSH2 0x4B7 JUMPI PUSH2 0x25E JUMP JUMPDEST DUP1 PUSH4 0x36052391 GT PUSH2 0x1DF JUMPI DUP1 PUSH4 0x57494B1D GT PUSH2 0x1A3 JUMPI DUP1 PUSH4 0x57494B1D EQ PUSH2 0x3DD JUMPI DUP1 PUSH4 0x5D5B674F EQ PUSH2 0x3F0 JUMPI DUP1 PUSH4 0x74C9D255 EQ PUSH2 0x403 JUMPI DUP1 PUSH4 0x7F7F4F13 EQ PUSH2 0x416 JUMPI DUP1 PUSH4 0x8B6D7B44 EQ PUSH2 0x429 JUMPI DUP1 PUSH4 0x9209483B EQ PUSH2 0x43C JUMPI PUSH2 0x25E JUMP JUMPDEST DUP1 PUSH4 0x36052391 EQ PUSH2 0x363 JUMPI DUP1 PUSH4 0x40BC03AE EQ PUSH2 0x376 JUMPI DUP1 PUSH4 0x44A3ACBA EQ PUSH2 0x389 JUMPI DUP1 PUSH4 0x494569DB EQ PUSH2 0x3AA JUMPI DUP1 PUSH4 0x4EDFB5B2 EQ PUSH2 0x3BD JUMPI PUSH2 0x25E JUMP JUMPDEST DUP1 PUSH4 0x29FA4AA0 GT PUSH2 0x226 JUMPI DUP1 PUSH4 0x29FA4AA0 EQ PUSH2 0x2F5 JUMPI DUP1 PUSH4 0x2AA64319 EQ PUSH2 0x308 JUMPI DUP1 PUSH4 0x2D753AA4 EQ PUSH2 0x32A JUMPI DUP1 PUSH4 0x30D6570D EQ PUSH2 0x33D JUMPI DUP1 PUSH4 0x3105FEC1 EQ PUSH2 0x350 JUMPI PUSH2 0x25E JUMP JUMPDEST DUP1 PUSH4 0x496D5DC EQ PUSH2 0x263 JUMPI DUP1 PUSH4 0x149DAB0E EQ PUSH2 0x28D JUMPI DUP1 PUSH4 0x2339078F EQ PUSH2 0x2AF JUMPI DUP1 PUSH4 0x252322B3 EQ PUSH2 0x2CF JUMPI DUP1 PUSH4 0x281E3432 EQ PUSH2 0x2E2 JUMPI JUMPDEST PUSH1 0x0 DUP1 REVERT JUMPDEST PUSH2 0x276 PUSH2 0x271 CALLDATASIZE PUSH1 0x4 PUSH2 0x73A1 JUMP JUMPDEST PUSH2 0x5F5 JUMP JUMPDEST PUSH1 0x40 MLOAD PUSH2 0x284 SWAP3 SWAP2 SWAP1 PUSH2 0x8053 JUMP JUMPDEST PUSH1 0x40 MLOAD DUP1 SWAP2 SUB SWAP1 RETURN JUMPDEST PUSH2 0x2A0 PUSH2 0x29B CALLDATASIZE PUSH1 0x4 PUSH2 0x7806 JUMP JUMPDEST PUSH2 0x79B JUMP JUMPDEST PUSH1 0x40 MLOAD PUSH2 0x284 SWAP4 SWAP3 SWAP2 SWAP1 PUSH2 0x7F1F JUMP JUMPDEST PUSH2 0x2C2 PUSH2 0x2BD CALLDATASIZE PUSH1 0x4 PUSH2 0x7787 JUMP JUMPDEST PUSH2 0x8FB JUMP JUMPDEST PUSH1 0x40 MLOAD PUSH2 0x284 SWAP2 SWAP1 PUSH2 0x80BF JUMP JUMPDEST PUSH2 0x2C2 PUSH2 0x2DD CALLDATASIZE PUSH1 0x4 PUSH2 0x72DF JUMP JUMPDEST PUSH2 0xB22 JUMP JUMPDEST PUSH2 0x2C2 PUSH2 0x2F0 CALLDATASIZE PUSH1 0x4 PUSH2 0x7A5C JUMP JUMPDEST PUSH2 0xCF8 JUMP JUMPDEST PUSH2 0x2C2 PUSH2 0x303 CALLDATASIZE PUSH1 0x4 PUSH2 0x78BF JUMP JUMPDEST PUSH2 0xF4D JUMP JUMPDEST PUSH2 0x31B PUSH2 0x316 CALLDATASIZE PUSH1 0x4 PUSH2 0x7918 JUMP JUMPDEST PUSH2 0xFBC JUMP JUMPDEST PUSH1 0x40 MLOAD PUSH2 0x284 SWAP4 SWAP3 SWAP2 SWAP1 PUSH2 0x80D2 JUMP JUMPDEST PUSH2 0x2C2 PUSH2 0x338 CALLDATASIZE PUSH1 0x4 PUSH2 0x725A JUMP JUMPDEST PUSH2 0x1299 JUMP JUMPDEST PUSH2 0x2C2 PUSH2 0x34B CALLDATASIZE PUSH1 0x4 PUSH2 0x72DF JUMP JUMPDEST PUSH2 0x1422 JUMP JUMPDEST PUSH2 0x2C2 PUSH2 0x35E CALLDATASIZE PUSH1 0x4 PUSH2 0x73A1 JUMP JUMPDEST PUSH2 0x1596 JUMP JUMPDEST PUSH2 0x2C2 PUSH2 0x371 CALLDATASIZE PUSH1 0x4 PUSH2 0x7918 JUMP JUMPDEST PUSH2 0x171A JUMP JUMPDEST PUSH2 0x2C2 PUSH2 0x384 CALLDATASIZE PUSH1 0x4 PUSH2 0x78BF JUMP JUMPDEST PUSH2 0x17B4 JUMP JUMPDEST PUSH2 0x39C PUSH2 0x397 CALLDATASIZE PUSH1 0x4 PUSH2 0x7631 JUMP JUMPDEST PUSH2 0x1935 JUMP JUMPDEST PUSH1 0x40 MLOAD PUSH2 0x284 SWAP3 SWAP2 SWAP1 PUSH2 0x809A JUMP JUMPDEST PUSH2 0x276 PUSH2 0x3B8 CALLDATASIZE PUSH1 0x4 PUSH2 0x73A1 JUMP JUMPDEST PUSH2 0x1C68 JUMP JUMPDEST PUSH2 0x3D0 PUSH2 0x3CB CALLDATASIZE PUSH1 0x4 PUSH2 0x79FE JUMP JUMPDEST PUSH2 0x1DF4 JUMP JUMPDEST PUSH1 0x40 MLOAD PUSH2 0x284 SWAP2 SWAP1 PUSH2 0x8120 JUMP JUMPDEST PUSH2 0x2C2 PUSH2 0x3EB CALLDATASIZE PUSH1 0x4 PUSH2 0x72DF JUMP JUMPDEST PUSH2 0x2071 JUMP JUMPDEST PUSH2 0x2C2 PUSH2 0x3FE CALLDATASIZE PUSH1 0x4 PUSH2 0x72DF JUMP JUMPDEST PUSH2 0x25C3 JUMP JUMPDEST PUSH2 0x2A0 PUSH2 0x411 CALLDATASIZE PUSH1 0x4 PUSH2 0x7806 JUMP JUMPDEST PUSH2 0x2629 JUMP JUMPDEST PUSH2 0x2C2 PUSH2 0x424 CALLDATASIZE PUSH1 0x4 PUSH2 0x7A5C JUMP JUMPDEST PUSH2 0x2638 JUMP JUMPDEST PUSH2 0x2C2 PUSH2 0x437 CALLDATASIZE PUSH1 0x4 PUSH2 0x78BF JUMP JUMPDEST PUSH2 0x2885 JUMP JUMPDEST PUSH2 0x2C2 PUSH2 0x44A CALLDATASIZE PUSH1 0x4 PUSH2 0x78BF JUMP JUMPDEST PUSH2 0x2BE8 JUMP JUMPDEST PUSH2 0x2C2 PUSH2 0x45D CALLDATASIZE PUSH1 0x4 PUSH2 0x72DF JUMP JUMPDEST PUSH2 0x2DE8 JUMP JUMPDEST PUSH2 0x475 PUSH2 0x470 CALLDATASIZE PUSH1 0x4 PUSH2 0x7947 JUMP JUMPDEST PUSH2 0x331F JUMP JUMPDEST PUSH1 0x40 MLOAD PUSH2 0x284 SWAP4 SWAP3 SWAP2 SWAP1 PUSH2 0x8107 JUMP JUMPDEST PUSH2 0x39C PUSH2 0x492 CALLDATASIZE PUSH1 0x4 PUSH2 0x7631 JUMP JUMPDEST PUSH2 0x3445 JUMP JUMPDEST PUSH2 0x4AA PUSH2 0x4A5 CALLDATASIZE PUSH1 0x4 PUSH2 0x7351 JUMP JUMPDEST PUSH2 0x378E JUMP JUMPDEST PUSH1 0x40 MLOAD PUSH2 0x284 SWAP2 SWAP1 PUSH2 0x80FE JUMP JUMPDEST PUSH2 0x2C2 PUSH2 0x4C5 CALLDATASIZE PUSH1 0x4 PUSH2 0x7787 JUMP JUMPDEST PUSH2 0x39A4 JUMP JUMPDEST PUSH2 0x2C2 PUSH2 0x4D8 CALLDATASIZE PUSH1 0x4 PUSH2 0x72DF JUMP JUMPDEST PUSH2 0x3BA0 JUMP JUMPDEST PUSH2 0x31B PUSH2 0x4EB CALLDATASIZE PUSH1 0x4 PUSH2 0x7413 JUMP JUMPDEST PUSH2 0x3CF5 JUMP JUMPDEST PUSH2 0x2C2 PUSH2 0x4FE CALLDATASIZE PUSH1 0x4 PUSH2 0x72DF JUMP JUMPDEST PUSH2 0x3E32 JUMP JUMPDEST PUSH2 0x516 PUSH2 0x511 CALLDATASIZE PUSH1 0x4 PUSH2 0x72DF JUMP JUMPDEST PUSH2 0x3F90 JUMP JUMPDEST PUSH1 0x40 MLOAD PUSH2 0x284 SWAP3 SWAP2 SWAP1 PUSH2 0x8133 JUMP JUMPDEST PUSH2 0x2C2 PUSH2 0x532 CALLDATASIZE PUSH1 0x4 PUSH2 0x72DF JUMP JUMPDEST PUSH2 0x40E0 JUMP JUMPDEST PUSH2 0x2C2 PUSH2 0x545 CALLDATASIZE PUSH1 0x4 PUSH2 0x72DF JUMP JUMPDEST PUSH2 0x4146 JUMP JUMPDEST PUSH2 0x2C2 PUSH2 0x558 CALLDATASIZE PUSH1 0x4 PUSH2 0x72DF JUMP JUMPDEST PUSH2 0x41AC JUMP JUMPDEST PUSH2 0x2C2 PUSH2 0x56B CALLDATASIZE PUSH1 0x4 PUSH2 0x73A1 JUMP JUMPDEST PUSH2 0x4369 JUMP JUMPDEST PUSH2 0x2C2 PUSH2 0x57E CALLDATASIZE PUSH1 0x4 PUSH2 0x72DF JUMP JUMPDEST PUSH2 0x44D5 JUMP JUMPDEST PUSH2 0x475 PUSH2 0x591 CALLDATASIZE PUSH1 0x4 PUSH2 0x7947 JUMP JUMPDEST PUSH2 0x4633 JUMP JUMPDEST PUSH2 0x31B PUSH2 0x5A4 CALLDATASIZE PUSH1 0x4 PUSH2 0x7413 JUMP JUMPDEST PUSH2 0x4819 JUMP JUMPDEST PUSH2 0x31B PUSH2 0x5B7 CALLDATASIZE PUSH1 0x4 PUSH2 0x7918 JUMP JUMPDEST PUSH2 0x4908 JUMP JUMPDEST PUSH2 0x2C2 PUSH2 0x5CA CALLDATASIZE PUSH1 0x4 PUSH2 0x72DF JUMP JUMPDEST PUSH2 0x4B9B JUMP JUMPDEST PUSH2 0x4AA PUSH2 0x5DD CALLDATASIZE PUSH1 0x4 PUSH2 0x79B7 JUMP JUMPDEST PUSH2 0x4CCE JUMP JUMPDEST PUSH2 0x516 PUSH2 0x5F0 CALLDATASIZE PUSH1 0x4 PUSH2 0x72DF JUMP JUMPDEST PUSH2 0x4E6D JUMP JUMPDEST DUP1 MLOAD PUSH1 0x60 SWAP1 DUP2 SWAP1 DUP1 PUSH1 0x1 PUSH1 0x1 PUSH1 0x40 SHL SUB DUP2 GT DUP1 ISZERO PUSH2 0x612 JUMPI PUSH1 0x0 DUP1 REVERT JUMPDEST POP PUSH1 0x40 MLOAD SWAP1 DUP1 DUP3 MSTORE DUP1 PUSH1 0x20 MUL PUSH1 0x20 ADD DUP3 ADD PUSH1 0x40 MSTORE DUP1 ISZERO PUSH2 0x63C JUMPI DUP2 PUSH1 0x20 ADD PUSH1 0x20 DUP3 MUL DUP1 CALLDATASIZE DUP4 CALLDATACOPY ADD SWAP1 POP JUMPDEST POP SWAP2 POP PUSH2 0x649 DUP7 DUP7 PUSH2 0x4F59 JUMP JUMPDEST SWAP3 POP DUP3 MLOAD PUSH1 0x0 EQ ISZERO PUSH2 0x65B JUMPI POP PUSH2 0x793 JUMP JUMPDEST PUSH1 0x0 JUMPDEST DUP2 DUP2 LT ISZERO PUSH2 0x790 JUMPI DUP7 PUSH1 0x1 PUSH1 0x1 PUSH1 0xA0 SHL SUB AND PUSH4 0xA8312B1D PUSH3 0x249F0 DUP8 DUP5 DUP2 MLOAD DUP2 LT PUSH2 0x685 JUMPI INVALID JUMPDEST PUSH1 0x20 MUL PUSH1 0x20 ADD ADD MLOAD DUP8 DUP11 PUSH1 0x40 MLOAD DUP6 PUSH4 0xFFFFFFFF AND PUSH1 0xE0 SHL DUP2 MSTORE PUSH1 0x4 ADD PUSH2 0x6AD SWAP4 SWAP3 SWAP2 SWAP1 PUSH2 0x8374 JUMP JUMPDEST PUSH1 0x0 PUSH1 0x40 MLOAD DUP1 DUP4 SUB DUP2 DUP8 DUP1 EXTCODESIZE ISZERO DUP1 ISZERO PUSH2 0x6C5 JUMPI PUSH1 0x0 DUP1 REVERT JUMPDEST POP DUP7 STATICCALL SWAP4 POP POP POP POP DUP1 ISZERO PUSH2 0x6FB JUMPI POP PUSH1 0x40 MLOAD RETURNDATASIZE PUSH1 0x0 DUP3 RETURNDATACOPY PUSH1 0x1F RETURNDATASIZE SWAP1 DUP2 ADD PUSH1 0x1F NOT AND DUP3 ADD PUSH1 0x40 MSTORE PUSH2 0x6F8 SWAP2 SWAP1 DUP2 ADD SWAP1 PUSH2 0x769A JUMP JUMPDEST PUSH1 0x1 JUMPDEST PUSH2 0x735 JUMPI RETURNDATASIZE DUP1 DUP1 ISZERO PUSH2 0x729 JUMPI PUSH1 0x40 MLOAD SWAP2 POP PUSH1 0x1F NOT PUSH1 0x3F RETURNDATASIZE ADD AND DUP3 ADD PUSH1 0x40 MSTORE RETURNDATASIZE DUP3 MSTORE RETURNDATASIZE PUSH1 0x0 PUSH1 0x20 DUP5 ADD RETURNDATACOPY PUSH2 0x72E JUMP JUMPDEST PUSH1 0x60 SWAP2 POP JUMPDEST POP POP PUSH2 0x790 JUMP JUMPDEST DUP1 PUSH1 0x1 DUP9 MLOAD SUB DUP2 MLOAD DUP2 LT PUSH2 0x745 JUMPI INVALID JUMPDEST PUSH1 0x20 MUL PUSH1 0x20 ADD ADD MLOAD DUP5 DUP4 DUP2 MLOAD DUP2 LT PUSH2 0x759 JUMPI INVALID JUMPDEST PUSH1 0x20 MUL PUSH1 0x20 ADD ADD DUP2 DUP2 MSTORE POP POP DUP4 DUP3 DUP2 MLOAD DUP2 LT PUSH2 0x771 JUMPI INVALID JUMPDEST PUSH1 0x20 MUL PUSH1 0x20 ADD ADD MLOAD PUSH1 0x0 EQ ISZERO PUSH2 0x787 JUMPI POP PUSH2 0x790 JUMP JUMPDEST POP PUSH1 0x1 ADD PUSH2 0x65E JUMP JUMPDEST POP POP JUMPDEST SWAP4 POP SWAP4 SWAP2 POP POP JUMP JUMPDEST PUSH1 0x0 PUSH1 0x60 DUP1 DUP7 PUSH1 0x20 ADD MLOAD MLOAD PUSH1 0x0 EQ ISZERO PUSH2 0x7B3 JUMPI PUSH2 0x8F1 JUMP JUMPDEST PUSH2 0x7BF DUP8 DUP8 DUP8 DUP8 PUSH2 0x523E JUMP JUMPDEST DUP6 MLOAD SWAP2 SWAP5 POP SWAP3 POP PUSH1 0x1 PUSH1 0x1 PUSH1 0x40 SHL SUB DUP2 GT DUP1 ISZERO PUSH2 0x7DB JUMPI PUSH1 0x0 DUP1 REVERT JUMPDEST POP PUSH1 0x40 MLOAD SWAP1 DUP1 DUP3 MSTORE DUP1 PUSH1 0x20 MUL PUSH1 0x20 ADD DUP3 ADD PUSH1 0x40 MSTORE DUP1 ISZERO PUSH2 0x805 JUMPI DUP2 PUSH1 0x20 ADD PUSH1 0x20 DUP3 MUL DUP1 CALLDATASIZE DUP4 CALLDATACOPY ADD SWAP1 POP JUMPDEST POP SWAP1 POP PUSH1 0x0 JUMPDEST DUP2 MLOAD DUP2 LT ISZERO PUSH2 0x8EF JUMPI DUP4 PUSH1 0x1 PUSH1 0x1 PUSH1 0xA0 SHL SUB AND PUSH4 0x7F9C0ECD PUSH3 0x493E0 DUP6 DUP9 DUP6 DUP2 MLOAD DUP2 LT PUSH2 0x834 JUMPI INVALID JUMPDEST PUSH1 0x20 MUL PUSH1 0x20 ADD ADD MLOAD PUSH1 0x40 MLOAD DUP5 PUSH4 0xFFFFFFFF AND PUSH1 0xE0 SHL DUP2 MSTORE PUSH1 0x4 ADD PUSH2 0x859 SWAP3 SWAP2 SWAP1 PUSH2 0x8078 JUMP JUMPDEST PUSH1 0x20 PUSH1 0x40 MLOAD DUP1 DUP4 SUB DUP2 DUP8 DUP1 EXTCODESIZE ISZERO DUP1 ISZERO PUSH2 0x871 JUMPI PUSH1 0x0 DUP1 REVERT JUMPDEST POP DUP7 STATICCALL SWAP4 POP POP POP POP DUP1 ISZERO PUSH2 0x8A2 JUMPI POP PUSH1 0x40 DUP1 MLOAD PUSH1 0x1F RETURNDATASIZE SWAP1 DUP2 ADD PUSH1 0x1F NOT AND DUP3 ADD SWAP1 SWAP3 MSTORE PUSH2 0x89F SWAP2 DUP2 ADD SWAP1 PUSH2 0x76EC JUMP JUMPDEST PUSH1 0x1 JUMPDEST PUSH2 0x8AB JUMPI PUSH2 0x8EF JUMP JUMPDEST DUP1 DUP4 DUP4 DUP2 MLOAD DUP2 LT PUSH2 0x8B8 JUMPI INVALID JUMPDEST PUSH1 0x20 MUL PUSH1 0x20 ADD ADD DUP2 DUP2 MSTORE POP POP DUP3 DUP3 DUP2 MLOAD DUP2 LT PUSH2 0x8D0 JUMPI INVALID JUMPDEST PUSH1 0x20 MUL PUSH1 0x20 ADD ADD MLOAD PUSH1 0x0 EQ ISZERO PUSH2 0x8E6 JUMPI POP PUSH2 0x8EF JUMP JUMPDEST POP PUSH1 0x1 ADD PUSH2 0x80B JUMP JUMPDEST POP JUMPDEST SWAP5 POP SWAP5 POP SWAP5 SWAP2 POP POP JUMP JUMPDEST PUSH1 0x60 PUSH2 0x907 DUP4 DUP6 PUSH2 0x5470 JUMP JUMPDEST PUSH1 0x20 DUP6 ADD MLOAD PUSH1 0x40 DUP1 MLOAD PUSH1 0x2 DUP1 DUP3 MSTORE PUSH1 0x60 DUP3 DUP2 ADD SWAP1 SWAP4 MSTORE DUP2 PUSH1 0x20 ADD PUSH1 0x20 DUP3 MUL DUP1 CALLDATASIZE DUP4 CALLDATACOPY ADD SWAP1 POP POP SWAP1 POP DUP6 DUP2 PUSH1 0x0 DUP2 MLOAD DUP2 LT PUSH2 0x93D JUMPI INVALID JUMPDEST PUSH1 0x20 MUL PUSH1 0x20 ADD ADD SWAP1 PUSH1 0x1 PUSH1 0x1 PUSH1 0xA0 SHL SUB AND SWAP1 DUP2 PUSH1 0x1 PUSH1 0x1 PUSH1 0xA0 SHL SUB AND DUP2 MSTORE POP POP DUP5 DUP2 PUSH1 0x1 DUP2 MLOAD DUP2 LT PUSH2 0x96B JUMPI INVALID JUMPDEST PUSH1 0x1 PUSH1 0x1 PUSH1 0xA0 SHL SUB SWAP1 SWAP3 AND PUSH1 0x20 SWAP3 DUP4 MUL SWAP2 SWAP1 SWAP2 ADD SWAP1 SWAP2 ADD MSTORE DUP4 MLOAD DUP1 PUSH1 0x1 PUSH1 0x1 PUSH1 0x40 SHL SUB DUP2 GT DUP1 ISZERO PUSH2 0x99B JUMPI PUSH1 0x0 DUP1 REVERT JUMPDEST POP PUSH1 0x40 MLOAD SWAP1 DUP1 DUP3 MSTORE DUP1 PUSH1 0x20 MUL PUSH1 0x20 ADD DUP3 ADD PUSH1 0x40 MSTORE DUP1 ISZERO PUSH2 0x9C5 JUMPI DUP2 PUSH1 0x20 ADD PUSH1 0x20 DUP3 MUL DUP1 CALLDATASIZE DUP4 CALLDATACOPY ADD SWAP1 POP JUMPDEST POP SWAP4 POP PUSH2 0x9D0 PUSH2 0x6B22 JUMP JUMPDEST PUSH2 0x9D8 PUSH2 0x54AF JUMP JUMPDEST SWAP1 POP PUSH1 0x0 JUMPDEST DUP3 DUP2 LT ISZERO PUSH2 0xB15 JUMPI PUSH1 0x60 PUSH2 0xA04 DUP12 DUP10 DUP5 DUP2 MLOAD DUP2 LT PUSH2 0x9F7 JUMPI INVALID JUMPDEST PUSH1 0x20 MUL PUSH1 0x20 ADD ADD MLOAD PUSH2 0x54DE JUMP JUMPDEST PUSH1 0x40 MLOAD PUSH4 0x7C268337 PUSH1 0xE1 SHL DUP2 MSTORE SWAP1 SWAP2 POP PUSH1 0x1 PUSH1 0x1 PUSH1 0xA0 SHL SUB DUP8 AND SWAP1 PUSH4 0xF84D066E SWAP1 PUSH2 0xA3A SWAP1 PUSH1 0x0 SWAP1 DUP6 SWAP1 DUP11 SWAP1 DUP10 SWAP1 PUSH1 0x4 ADD PUSH2 0x8186 JUMP JUMPDEST PUSH1 0x0 PUSH1 0x40 MLOAD DUP1 DUP4 SUB DUP2 PUSH1 0x0 DUP8 DUP1 EXTCODESIZE ISZERO DUP1 ISZERO PUSH2 0xA54 JUMPI PUSH1 0x0 DUP1 REVERT JUMPDEST POP GAS CALL SWAP3 POP POP POP DUP1 ISZERO PUSH2 0xA89 JUMPI POP PUSH1 0x40 MLOAD RETURNDATASIZE PUSH1 0x0 DUP3 RETURNDATACOPY PUSH1 0x1F RETURNDATASIZE SWAP1 DUP2 ADD PUSH1 0x1F NOT AND DUP3 ADD PUSH1 0x40 MSTORE PUSH2 0xA86 SWAP2 SWAP1 DUP2 ADD SWAP1 PUSH2 0x75AE JUMP JUMPDEST PUSH1 0x1 JUMPDEST PUSH2 0xAC4 JUMPI RETURNDATASIZE DUP1 DUP1 ISZERO PUSH2 0xAB7 JUMPI PUSH1 0x40 MLOAD SWAP2 POP PUSH1 0x1F NOT PUSH1 0x3F RETURNDATASIZE ADD AND DUP3 ADD PUSH1 0x40 MSTORE RETURNDATASIZE DUP3 MSTORE RETURNDATASIZE PUSH1 0x0 PUSH1 0x20 DUP5 ADD RETURNDATACOPY PUSH2 0xABC JUMP JUMPDEST PUSH1 0x60 SWAP2 POP JUMPDEST POP POP POP PUSH2 0xB15 JUMP JUMPDEST PUSH1 0x0 DUP2 PUSH1 0x1 DUP2 MLOAD DUP2 LT PUSH2 0xAD3 JUMPI INVALID JUMPDEST PUSH1 0x20 MUL PUSH1 0x20 ADD ADD MLOAD PUSH1 0x0 NOT MUL SWAP1 POP PUSH1 0x0 DUP2 SGT PUSH2 0xAF1 JUMPI POP POP POP PUSH2 0xB15 JUMP JUMPDEST DUP1 DUP10 DUP6 DUP2 MLOAD DUP2 LT PUSH2 0xAFE JUMPI INVALID JUMPDEST PUSH1 0x20 MUL PUSH1 0x20 ADD ADD DUP2 DUP2 MSTORE POP POP POP POP POP PUSH1 0x1 ADD PUSH2 0x9DD JUMP JUMPDEST POP POP POP POP POP SWAP5 SWAP4 POP POP POP POP JUMP JUMPDEST PUSH1 0x60 PUSH2 0xB2E DUP4 DUP6 PUSH2 0x5470 JUMP JUMPDEST DUP2 MLOAD DUP1 PUSH1 0x1 PUSH1 0x1 PUSH1 0x40 SHL SUB DUP2 GT DUP1 ISZERO PUSH2 0xB46 JUMPI PUSH1 0x0 DUP1 REVERT JUMPDEST POP PUSH1 0x40 MLOAD SWAP1 DUP1 DUP3 MSTORE DUP1 PUSH1 0x20 MUL PUSH1 0x20 ADD DUP3 ADD PUSH1 0x40 MSTORE DUP1 ISZERO PUSH2 0xB70 JUMPI DUP2 PUSH1 0x20 ADD PUSH1 0x20 DUP3 MUL DUP1 CALLDATASIZE DUP4 CALLDATACOPY ADD SWAP1 POP JUMPDEST POP SWAP2 POP PUSH1 0x0 PUSH1 0x1 PUSH1 0x1 PUSH1 0xA0 SHL SUB DUP7 AND ISZERO PUSH2 0xB93 JUMPI PUSH2 0xB8E DUP8 DUP8 PUSH2 0x5570 JUMP JUMPDEST PUSH2 0xB96 JUMP JUMPDEST PUSH1 0x0 JUMPDEST SWAP1 POP PUSH1 0x0 PUSH1 0x1 PUSH1 0x1 PUSH1 0xA0 SHL SUB DUP7 AND ISZERO PUSH2 0xBB8 JUMPI PUSH2 0xBB3 DUP9 DUP8 PUSH2 0x5570 JUMP JUMPDEST PUSH2 0xBBB JUMP JUMPDEST PUSH1 0x0 JUMPDEST SWAP1 POP PUSH1 0x0 JUMPDEST DUP4 DUP2 LT ISZERO PUSH2 0xCEC JUMPI PUSH1 0x1 PUSH1 0x1 PUSH1 0x1 PUSH1 0xA0 SHL SUB DUP9 AND PUSH2 0xC1E JUMPI PUSH2 0xBFD DUP5 PUSH4 0x2640F62C PUSH1 0xE0 SHL DUP10 DUP6 DUP2 MLOAD DUP2 LT PUSH2 0xBF0 JUMPI INVALID JUMPDEST PUSH1 0x20 MUL PUSH1 0x20 ADD ADD MLOAD PUSH2 0x55F6 JUMP JUMPDEST DUP8 DUP5 DUP2 MLOAD DUP2 LT PUSH2 0xC09 JUMPI INVALID JUMPDEST PUSH1 0x20 MUL PUSH1 0x20 ADD ADD DUP2 SWAP4 POP DUP3 DUP2 MSTORE POP POP POP PUSH2 0xCB8 JUMP JUMPDEST PUSH1 0x1 PUSH1 0x1 PUSH1 0xA0 SHL SUB DUP10 AND PUSH2 0xC44 JUMPI PUSH2 0xBFD DUP4 PUSH4 0x59E94862 PUSH1 0xE0 SHL DUP10 DUP6 DUP2 MLOAD DUP2 LT PUSH2 0xBF0 JUMPI INVALID JUMPDEST PUSH1 0x0 PUSH2 0xC5E DUP5 PUSH4 0x59E94862 PUSH1 0xE0 SHL DUP11 DUP7 DUP2 MLOAD DUP2 LT PUSH2 0xBF0 JUMPI INVALID JUMPDEST SWAP3 POP SWAP1 POP DUP1 ISZERO PUSH2 0xC9B JUMPI PUSH2 0xC7A DUP6 PUSH4 0x9903D8B PUSH1 0xE2 SHL DUP4 PUSH2 0x55F6 JUMP JUMPDEST DUP9 DUP6 DUP2 MLOAD DUP2 LT PUSH2 0xC86 JUMPI INVALID JUMPDEST PUSH1 0x20 MUL PUSH1 0x20 ADD ADD DUP2 SWAP5 POP DUP3 DUP2 MSTORE POP POP POP PUSH2 0xCB6 JUMP JUMPDEST PUSH1 0x0 DUP8 DUP5 DUP2 MLOAD DUP2 LT PUSH2 0xCA9 JUMPI INVALID JUMPDEST PUSH1 0x20 MUL PUSH1 0x20 ADD ADD DUP2 DUP2 MSTORE POP POP JUMPDEST POP JUMPDEST DUP1 ISZERO DUP1 PUSH2 0xCD8 JUMPI POP DUP6 DUP3 DUP2 MLOAD DUP2 LT PUSH2 0xCCC JUMPI INVALID JUMPDEST PUSH1 0x20 MUL PUSH1 0x20 ADD ADD MLOAD PUSH1 0x0 EQ JUMPDEST ISZERO PUSH2 0xCE3 JUMPI POP PUSH2 0xCEC JUMP JUMPDEST POP PUSH1 0x1 ADD PUSH2 0xBC0 JUMP JUMPDEST POP POP POP POP SWAP5 SWAP4 POP POP POP POP JUMP JUMPDEST PUSH1 0x60 PUSH2 0xD04 DUP4 DUP6 PUSH2 0x5470 JUMP JUMPDEST PUSH1 0x0 DUP6 PUSH1 0x0 ADD MLOAD SWAP1 POP PUSH1 0x0 DUP2 PUSH1 0x1 PUSH1 0x1 PUSH1 0xA0 SHL SUB AND PUSH4 0x36569E77 PUSH1 0x40 MLOAD DUP2 PUSH4 0xFFFFFFFF AND PUSH1 0xE0 SHL DUP2 MSTORE PUSH1 0x4 ADD PUSH1 0x20 PUSH1 0x40 MLOAD DUP1 DUP4 SUB DUP2 DUP7 DUP1 EXTCODESIZE ISZERO DUP1 ISZERO PUSH2 0xD48 JUMPI PUSH1 0x0 DUP1 REVERT JUMPDEST POP GAS STATICCALL ISZERO DUP1 ISZERO PUSH2 0xD5C JUMPI RETURNDATASIZE PUSH1 0x0 DUP1 RETURNDATACOPY RETURNDATASIZE PUSH1 0x0 REVERT JUMPDEST POP POP POP POP PUSH1 0x40 MLOAD RETURNDATASIZE PUSH1 0x1F NOT PUSH1 0x1F DUP3 ADD AND DUP3 ADD DUP1 PUSH1 0x40 MSTORE POP DUP2 ADD SWAP1 PUSH2 0xD80 SWAP2 SWAP1 PUSH2 0x7097 JUMP JUMPDEST DUP5 MLOAD SWAP1 SWAP2 POP DUP1 PUSH1 0x1 PUSH1 0x1 PUSH1 0x40 SHL SUB DUP2 GT DUP1 ISZERO PUSH2 0xD9B JUMPI PUSH1 0x0 DUP1 REVERT JUMPDEST POP PUSH1 0x40 MLOAD SWAP1 DUP1 DUP3 MSTORE DUP1 PUSH1 0x20 MUL PUSH1 0x20 ADD DUP3 ADD PUSH1 0x40 MSTORE DUP1 ISZERO PUSH2 0xDC5 JUMPI DUP2 PUSH1 0x20 ADD PUSH1 0x20 DUP3 MUL DUP1 CALLDATASIZE DUP4 CALLDATACOPY ADD SWAP1 POP JUMPDEST POP SWAP4 POP DUP3 PUSH1 0x1 PUSH1 0x1 PUSH1 0xA0 SHL SUB AND PUSH4 0xF4B9FA75 PUSH1 0x40 MLOAD DUP2 PUSH4 0xFFFFFFFF AND PUSH1 0xE0 SHL DUP2 MSTORE PUSH1 0x4 ADD PUSH1 0x20 PUSH1 0x40 MLOAD DUP1 DUP4 SUB DUP2 DUP7 DUP1 EXTCODESIZE ISZERO DUP1 ISZERO PUSH2 0xE01 JUMPI PUSH1 0x0 DUP1 REVERT JUMPDEST POP GAS STATICCALL ISZERO DUP1 ISZERO PUSH2 0xE15 JUMPI RETURNDATASIZE PUSH1 0x0 DUP1 RETURNDATACOPY RETURNDATASIZE PUSH1 0x0 REVERT JUMPDEST POP POP POP POP PUSH1 0x40 MLOAD RETURNDATASIZE PUSH1 0x1F NOT PUSH1 0x1F DUP3 ADD AND DUP3 ADD DUP1 PUSH1 0x40 MSTORE POP DUP2 ADD SWAP1 PUSH2 0xE39 SWAP2 SWAP1 PUSH2 0x7097 JUMP JUMPDEST PUSH1 0x1 PUSH1 0x1 PUSH1 0xA0 SHL SUB AND DUP7 PUSH1 0x1 PUSH1 0x1 PUSH1 0xA0 SHL SUB AND EQ ISZERO DUP1 ISZERO PUSH2 0xEDC JUMPI POP DUP3 PUSH1 0x1 PUSH1 0x1 PUSH1 0xA0 SHL SUB AND PUSH4 0xF4B9FA75 PUSH1 0x40 MLOAD DUP2 PUSH4 0xFFFFFFFF AND PUSH1 0xE0 SHL DUP2 MSTORE PUSH1 0x4 ADD PUSH1 0x20 PUSH1 0x40 MLOAD DUP1 DUP4 SUB DUP2 DUP7 DUP1 EXTCODESIZE ISZERO DUP1 ISZERO PUSH2 0xE8E JUMPI PUSH1 0x0 DUP1 REVERT JUMPDEST POP GAS STATICCALL ISZERO DUP1 ISZERO PUSH2 0xEA2 JUMPI RETURNDATASIZE PUSH1 0x0 DUP1 RETURNDATACOPY RETURNDATASIZE PUSH1 0x0 REVERT JUMPDEST POP POP POP POP PUSH1 0x40 MLOAD RETURNDATASIZE PUSH1 0x1F NOT PUSH1 0x1F DUP3 ADD AND DUP3 ADD DUP1 PUSH1 0x40 MSTORE POP DUP2 ADD SWAP1 PUSH2 0xEC6 SWAP2 SWAP1 PUSH2 0x7097 JUMP JUMPDEST PUSH1 0x1 PUSH1 0x1 PUSH1 0xA0 SHL SUB AND DUP8 PUSH1 0x1 PUSH1 0x1 PUSH1 0xA0 SHL SUB AND EQ ISZERO JUMPDEST ISZERO PUSH2 0xEE9 JUMPI POP POP POP PUSH2 0xF45 JUMP JUMPDEST PUSH1 0x0 JUMPDEST DUP2 DUP2 LT ISZERO PUSH2 0xCEC JUMPI PUSH1 0x0 PUSH2 0xF17 DUP11 DUP10 DUP12 DUP11 DUP7 DUP2 MLOAD DUP2 LT PUSH2 0xF08 JUMPI INVALID JUMPDEST PUSH1 0x20 MUL PUSH1 0x20 ADD ADD MLOAD DUP10 DUP10 PUSH2 0x56D9 JUMP JUMPDEST SWAP1 POP DUP1 PUSH2 0xF24 JUMPI POP PUSH2 0xCEC JUMP JUMPDEST DUP1 DUP7 DUP4 DUP2 MLOAD DUP2 LT PUSH2 0xF31 JUMPI INVALID JUMPDEST PUSH1 0x20 SWAP1 DUP2 MUL SWAP2 SWAP1 SWAP2 ADD ADD MSTORE POP PUSH1 0x1 ADD PUSH2 0xEEC JUMP JUMPDEST SWAP5 SWAP4 POP POP POP POP JUMP JUMPDEST PUSH1 0x40 DUP1 MLOAD PUSH1 0x60 DUP2 DUP2 ADD SWAP1 SWAP3 MSTORE PUSH2 0xFB3 SWAP1 DUP1 PUSH2 0xF6C DUP7 DUP10 PUSH1 0x80 DUP5 ADD PUSH2 0x825D JUMP JUMPDEST PUSH1 0x40 MLOAD PUSH1 0x20 DUP2 DUP4 SUB SUB DUP2 MSTORE SWAP1 PUSH1 0x40 MSTORE DUP2 MSTORE PUSH1 0x20 ADD DUP7 DUP9 PUSH1 0x40 MLOAD PUSH1 0x20 ADD PUSH2 0xF93 SWAP3 SWAP2 SWAP1 PUSH2 0x825D JUMP JUMPDEST PUSH1 0x40 MLOAD PUSH1 0x20 DUP2 DUP4 SUB SUB DUP2 MSTORE SWAP1 PUSH1 0x40 MSTORE DUP2 MSTORE PUSH1 0x20 ADD PUSH2 0x599A DUP2 MSTORE POP DUP4 PUSH2 0x5ACD JUMP JUMPDEST SWAP6 SWAP5 POP POP POP POP POP JUMP JUMPDEST PUSH1 0x0 DUP1 PUSH1 0x60 PUSH2 0xFCB DUP6 DUP8 PUSH2 0x5470 JUMP JUMPDEST DUP4 MLOAD DUP1 PUSH1 0x1 PUSH1 0x1 PUSH1 0x40 SHL SUB DUP2 GT DUP1 ISZERO PUSH2 0xFE3 JUMPI PUSH1 0x0 DUP1 REVERT JUMPDEST POP PUSH1 0x40 MLOAD SWAP1 DUP1 DUP3 MSTORE DUP1 PUSH1 0x20 MUL PUSH1 0x20 ADD DUP3 ADD PUSH1 0x40 MSTORE DUP1 ISZERO PUSH2 0x100D JUMPI DUP2 PUSH1 0x20 ADD PUSH1 0x20 DUP3 MUL DUP1 CALLDATASIZE DUP4 CALLDATACOPY ADD SWAP1 POP JUMPDEST POP DUP9 MLOAD PUSH1 0x40 MLOAD PUSH4 0x939D863 PUSH1 0xE1 SHL DUP2 MSTORE SWAP2 SWAP4 POP PUSH1 0x1 PUSH1 0x1 PUSH1 0xA0 SHL SUB AND SWAP1 PUSH4 0x1273B0C6 SWAP1 PUSH2 0x1040 SWAP1 DUP11 SWAP1 DUP11 SWAP1 PUSH1 0x4 ADD PUSH2 0x7DBB JUMP JUMPDEST PUSH1 0x20 PUSH1 0x40 MLOAD DUP1 DUP4 SUB DUP2 DUP7 DUP1 EXTCODESIZE ISZERO DUP1 ISZERO PUSH2 0x1058 JUMPI PUSH1 0x0 DUP1 REVERT JUMPDEST POP GAS STATICCALL ISZERO DUP1 ISZERO PUSH2 0x106C JUMPI RETURNDATASIZE PUSH1 0x0 DUP1 RETURNDATACOPY RETURNDATASIZE PUSH1 0x0 REVERT JUMPDEST POP POP POP POP PUSH1 0x40 MLOAD RETURNDATASIZE PUSH1 0x1F NOT PUSH1 0x1F DUP3 ADD AND DUP3 ADD DUP1 PUSH1 0x40 MSTORE POP DUP2 ADD SWAP1 PUSH2 0x1090 SWAP2 SWAP1 PUSH2 0x7097 JUMP JUMPDEST SWAP3 POP PUSH1 0x0 PUSH1 0x1 PUSH1 0x1 PUSH1 0xA0 SHL SUB DUP5 AND ISZERO PUSH2 0x10AE JUMPI POP PUSH1 0x1 SWAP4 POP DUP7 PUSH2 0x114D JUMP JUMPDEST DUP9 MLOAD PUSH1 0x40 MLOAD PUSH4 0x939D863 PUSH1 0xE1 SHL DUP2 MSTORE PUSH1 0x1 PUSH1 0x1 PUSH1 0xA0 SHL SUB SWAP1 SWAP2 AND SWAP1 PUSH4 0x1273B0C6 SWAP1 PUSH2 0x10DF SWAP1 DUP11 SWAP1 DUP13 SWAP1 PUSH1 0x4 ADD PUSH2 0x7DBB JUMP JUMPDEST PUSH1 0x20 PUSH1 0x40 MLOAD DUP1 DUP4 SUB DUP2 DUP7 DUP1 EXTCODESIZE ISZERO DUP1 ISZERO PUSH2 0x10F7 JUMPI PUSH1 0x0 DUP1 REVERT JUMPDEST POP GAS STATICCALL ISZERO DUP1 ISZERO PUSH2 0x110B JUMPI RETURNDATASIZE PUSH1 0x0 DUP1 RETURNDATACOPY RETURNDATASIZE PUSH1 0x0 REVERT JUMPDEST POP POP POP POP PUSH1 0x40 MLOAD RETURNDATASIZE PUSH1 0x1F NOT PUSH1 0x1F DUP3 ADD AND DUP3 ADD DUP1 PUSH1 0x40 MSTORE POP DUP2 ADD SWAP1 PUSH2 0x112F SWAP2 SWAP1 PUSH2 0x7097 JUMP JUMPDEST SWAP4 POP PUSH1 0x1 PUSH1 0x1 PUSH1 0xA0 SHL SUB DUP5 AND PUSH2 0x1146 JUMPI POP POP PUSH2 0x8F1 JUMP JUMPDEST POP PUSH1 0x0 SWAP4 POP DUP6 JUMPDEST DUP4 PUSH1 0x1 PUSH1 0x1 PUSH1 0xA0 SHL SUB AND PUSH4 0xDD58B41C PUSH1 0x40 MLOAD DUP2 PUSH4 0xFFFFFFFF AND PUSH1 0xE0 SHL DUP2 MSTORE PUSH1 0x4 ADD PUSH1 0x20 PUSH1 0x40 MLOAD DUP1 DUP4 SUB DUP2 DUP7 DUP1 EXTCODESIZE ISZERO DUP1 ISZERO PUSH2 0x1186 JUMPI PUSH1 0x0 DUP1 REVERT JUMPDEST POP GAS STATICCALL ISZERO DUP1 ISZERO PUSH2 0x119A JUMPI RETURNDATASIZE PUSH1 0x0 DUP1 RETURNDATACOPY RETURNDATASIZE PUSH1 0x0 REVERT JUMPDEST POP POP POP POP PUSH1 0x40 MLOAD RETURNDATASIZE PUSH1 0x1F NOT PUSH1 0x1F DUP3 ADD AND DUP3 ADD DUP1 PUSH1 0x40 MSTORE POP DUP2 ADD SWAP1 PUSH2 0x11BE SWAP2 SWAP1 PUSH2 0x76CC JUMP JUMPDEST PUSH2 0x11C9 JUMPI POP POP PUSH2 0x8F1 JUMP JUMPDEST PUSH1 0x0 JUMPDEST DUP3 DUP2 LT ISZERO PUSH2 0x128C JUMPI PUSH1 0x0 PUSH2 0x1246 DUP11 DUP8 DUP6 DUP15 PUSH1 0x20 ADD MLOAD PUSH1 0x40 MLOAD PUSH1 0x20 ADD PUSH2 0x11F4 SWAP5 SWAP4 SWAP3 SWAP2 SWAP1 PUSH2 0x7DD5 JUMP JUMPDEST PUSH1 0x40 MLOAD PUSH1 0x20 DUP2 DUP4 SUB SUB DUP2 MSTORE SWAP1 PUSH1 0x40 MSTORE DUP11 DUP9 DUP7 DUP16 PUSH1 0x20 ADD MLOAD PUSH1 0x40 MLOAD PUSH1 0x20 ADD PUSH2 0x121E SWAP5 SWAP4 SWAP3 SWAP2 SWAP1 PUSH2 0x7DD5 JUMP JUMPDEST PUSH1 0x40 MLOAD PUSH1 0x20 DUP2 DUP4 SUB SUB DUP2 MSTORE SWAP1 PUSH1 0x40 MSTORE DUP11 DUP6 DUP2 MLOAD DUP2 LT PUSH2 0x1239 JUMPI INVALID JUMPDEST PUSH1 0x20 MUL PUSH1 0x20 ADD ADD MLOAD PUSH2 0x5CCA JUMP JUMPDEST SWAP1 POP DUP1 DUP6 DUP4 DUP2 MLOAD DUP2 LT PUSH2 0x1255 JUMPI INVALID JUMPDEST PUSH1 0x20 MUL PUSH1 0x20 ADD ADD DUP2 DUP2 MSTORE POP POP DUP5 DUP3 DUP2 MLOAD DUP2 LT PUSH2 0x126D JUMPI INVALID JUMPDEST PUSH1 0x20 MUL PUSH1 0x20 ADD ADD MLOAD PUSH1 0x0 EQ ISZERO PUSH2 0x1283 JUMPI POP PUSH2 0x128C JUMP JUMPDEST POP PUSH1 0x1 ADD PUSH2 0x11CC JUMP JUMPDEST POP POP POP SWAP5 POP SWAP5 POP SWAP5 SWAP2 POP POP JUMP JUMPDEST DUP1 MLOAD PUSH1 0x60 SWAP1 DUP1 PUSH1 0x1 PUSH1 0x1 PUSH1 0x40 SHL SUB DUP2 GT DUP1 ISZERO PUSH2 0x12B4 JUMPI PUSH1 0x0 DUP1 REVERT JUMPDEST POP PUSH1 0x40 MLOAD SWAP1 DUP1 DUP3 MSTORE DUP1 PUSH1 0x20 MUL PUSH1 0x20 ADD DUP3 ADD PUSH1 0x40 MSTORE DUP1 ISZERO PUSH2 0x12DE JUMPI DUP2 PUSH1 0x20 ADD PUSH1 0x20 DUP3 MUL DUP1 CALLDATASIZE DUP4 CALLDATACOPY ADD SWAP1 POP JUMPDEST POP SWAP2 POP PUSH1 0x1 PUSH1 0x1 PUSH1 0xA0 SHL SUB DUP8 AND PUSH2 0x12F5 JUMPI POP PUSH2 0xFB3 JUMP JUMPDEST PUSH1 0x0 JUMPDEST DUP2 DUP2 LT ISZERO PUSH2 0x1417 JUMPI PUSH1 0x0 PUSH1 0x60 DUP10 PUSH1 0x1 PUSH1 0x1 PUSH1 0xA0 SHL SUB AND PUSH3 0x61A80 PUSH4 0x6E79E133 PUSH1 0xE0 SHL DUP12 DUP12 DUP12 DUP12 DUP10 DUP2 MLOAD DUP2 LT PUSH2 0x1329 JUMPI INVALID JUMPDEST PUSH1 0x20 MUL PUSH1 0x20 ADD ADD MLOAD PUSH1 0x40 MLOAD PUSH1 0x24 ADD PUSH2 0x1344 SWAP5 SWAP4 SWAP3 SWAP2 SWAP1 PUSH2 0x7E34 JUMP JUMPDEST PUSH1 0x40 DUP1 MLOAD PUSH1 0x1F NOT DUP2 DUP5 SUB ADD DUP2 MSTORE SWAP2 DUP2 MSTORE PUSH1 0x20 DUP3 ADD DUP1 MLOAD PUSH1 0x1 PUSH1 0x1 PUSH1 0xE0 SHL SUB AND PUSH1 0x1 PUSH1 0x1 PUSH1 0xE0 SHL SUB NOT SWAP1 SWAP5 AND SWAP4 SWAP1 SWAP4 OR SWAP1 SWAP3 MSTORE SWAP1 MLOAD PUSH2 0x1382 SWAP2 SWAP1 PUSH2 0x7D72 JUMP JUMPDEST PUSH1 0x0 PUSH1 0x40 MLOAD DUP1 DUP4 SUB DUP2 DUP7 DUP7 STATICCALL SWAP3 POP POP POP RETURNDATASIZE DUP1 PUSH1 0x0 DUP2 EQ PUSH2 0x13BE JUMPI PUSH1 0x40 MLOAD SWAP2 POP PUSH1 0x1F NOT PUSH1 0x3F RETURNDATASIZE ADD AND DUP3 ADD PUSH1 0x40 MSTORE RETURNDATASIZE DUP3 MSTORE RETURNDATASIZE PUSH1 0x0 PUSH1 0x20 DUP5 ADD RETURNDATACOPY PUSH2 0x13C3 JUMP JUMPDEST PUSH1 0x60 SWAP2 POP JUMPDEST POP SWAP2 POP SWAP2 POP PUSH1 0x0 DUP3 ISZERO PUSH2 0x13E7 JUMPI DUP2 DUP1 PUSH1 0x20 ADD SWAP1 MLOAD DUP2 ADD SWAP1 PUSH2 0x13E4 SWAP2 SWAP1 PUSH2 0x76EC JUMP JUMPDEST SWAP1 POP JUMPDEST DUP1 PUSH2 0x13F4 JUMPI POP POP POP PUSH2 0x1417 JUMP JUMPDEST DUP1 DUP7 DUP6 DUP2 MLOAD DUP2 LT PUSH2 0x1401 JUMPI INVALID JUMPDEST PUSH1 0x20 SWAP1 DUP2 MUL SWAP2 SWAP1 SWAP2 ADD ADD MSTORE POP POP POP PUSH1 0x1 ADD PUSH2 0x12F8 JUMP JUMPDEST POP POP SWAP6 SWAP5 POP POP POP POP POP JUMP JUMPDEST PUSH1 0x60 PUSH2 0x142E DUP4 DUP6 PUSH2 0x5470 JUMP JUMPDEST DUP2 MLOAD DUP1 PUSH1 0x1 PUSH1 0x1 PUSH1 0x40 SHL SUB DUP2 GT DUP1 ISZERO PUSH2 0x1446 JUMPI PUSH1 0x0 DUP1 REVERT JUMPDEST POP PUSH1 0x40 MLOAD SWAP1 DUP1 DUP3 MSTORE DUP1 PUSH1 0x20 MUL PUSH1 0x20 ADD DUP3 ADD PUSH1 0x40 MSTORE DUP1 ISZERO PUSH2 0x1470 JUMPI DUP2 PUSH1 0x20 ADD PUSH1 0x20 DUP3 MUL DUP1 CALLDATASIZE DUP4 CALLDATACOPY ADD SWAP1 POP JUMPDEST POP SWAP2 POP PUSH1 0x0 JUMPDEST DUP2 DUP2 LT ISZERO PUSH2 0x158C JUMPI DUP7 PUSH1 0x1 PUSH1 0x1 PUSH1 0xA0 SHL SUB AND PUSH4 0x72EA9076 PUSH3 0xC3500 DUP9 DUP9 DUP9 DUP7 DUP2 MLOAD DUP2 LT PUSH2 0x149F JUMPI INVALID JUMPDEST PUSH1 0x20 MUL PUSH1 0x20 ADD ADD MLOAD PUSH1 0x40 MLOAD DUP6 PUSH4 0xFFFFFFFF AND PUSH1 0xE0 SHL DUP2 MSTORE PUSH1 0x4 ADD PUSH2 0x14C5 SWAP4 SWAP3 SWAP2 SWAP1 PUSH2 0x7EB6 JUMP JUMPDEST PUSH1 0x20 PUSH1 0x40 MLOAD DUP1 DUP4 SUB DUP2 DUP8 DUP1 EXTCODESIZE ISZERO DUP1 ISZERO PUSH2 0x14DD JUMPI PUSH1 0x0 DUP1 REVERT JUMPDEST POP DUP7 STATICCALL SWAP4 POP POP POP POP DUP1 ISZERO PUSH2 0x150E JUMPI POP PUSH1 0x40 DUP1 MLOAD PUSH1 0x1F RETURNDATASIZE SWAP1 DUP2 ADD PUSH1 0x1F NOT AND DUP3 ADD SWAP1 SWAP3 MSTORE PUSH2 0x150B SWAP2 DUP2 ADD SWAP1 PUSH2 0x76EC JUMP JUMPDEST PUSH1 0x1 JUMPDEST PUSH2 0x1548 JUMPI RETURNDATASIZE DUP1 DUP1 ISZERO PUSH2 0x153C JUMPI PUSH1 0x40 MLOAD SWAP2 POP PUSH1 0x1F NOT PUSH1 0x3F RETURNDATASIZE ADD AND DUP3 ADD PUSH1 0x40 MSTORE RETURNDATASIZE DUP3 MSTORE RETURNDATASIZE PUSH1 0x0 PUSH1 0x20 DUP5 ADD RETURNDATACOPY PUSH2 0x1541 JUMP JUMPDEST PUSH1 0x60 SWAP2 POP JUMPDEST POP POP PUSH2 0x158C JUMP JUMPDEST DUP1 DUP5 DUP4 DUP2 MLOAD DUP2 LT PUSH2 0x1555 JUMPI INVALID JUMPDEST PUSH1 0x20 MUL PUSH1 0x20 ADD ADD DUP2 DUP2 MSTORE POP POP DUP4 DUP3 DUP2 MLOAD DUP2 LT PUSH2 0x156D JUMPI INVALID JUMPDEST PUSH1 0x20 MUL PUSH1 0x20 ADD ADD MLOAD PUSH1 0x0 EQ ISZERO PUSH2 0x1583 JUMPI POP PUSH2 0x158C JUMP JUMPDEST POP PUSH1 0x1 ADD PUSH2 0x1476 JUMP JUMPDEST POP POP SWAP5 SWAP4 POP POP POP POP JUMP JUMPDEST DUP1 MLOAD PUSH1 0x60 SWAP1 DUP1 PUSH1 0x1 PUSH1 0x1 PUSH1 0x40 SHL SUB DUP2 GT DUP1 ISZERO PUSH2 0x15B1 JUMPI PUSH1 0x0 DUP1 REVERT JUMPDEST POP PUSH1 0x40 MLOAD SWAP1 DUP1 DUP3 MSTORE DUP1 PUSH1 0x20 MUL PUSH1 0x20 ADD DUP3 ADD PUSH1 0x40 MSTORE DUP1 ISZERO PUSH2 0x15DB JUMPI DUP2 PUSH1 0x20 ADD PUSH1 0x20 DUP3 MUL DUP1 CALLDATASIZE DUP4 CALLDATACOPY ADD SWAP1 POP JUMPDEST POP SWAP2 POP PUSH1 0x0 JUMPDEST DUP2 DUP2 LT ISZERO PUSH2 0x1711 JUMPI DUP6 PUSH1 0x1 PUSH1 0x1 PUSH1 0xA0 SHL SUB AND PUSH4 0xD06CA61F PUSH3 0x249F0 DUP7 DUP5 DUP2 MLOAD DUP2 LT PUSH2 0x1608 JUMPI INVALID JUMPDEST PUSH1 0x20 MUL PUSH1 0x20 ADD ADD MLOAD DUP9 PUSH1 0x40 MLOAD DUP5 PUSH4 0xFFFFFFFF AND PUSH1 0xE0 SHL DUP2 MSTORE PUSH1 0x4 ADD PUSH2 0x162E SWAP3 SWAP2 SWAP1 PUSH2 0x835B JUMP JUMPDEST PUSH1 0x0 PUSH1 0x40 MLOAD DUP1 DUP4 SUB DUP2 DUP8 DUP1 EXTCODESIZE ISZERO DUP1 ISZERO PUSH2 0x1646 JUMPI PUSH1 0x0 DUP1 REVERT JUMPDEST POP DUP7 STATICCALL SWAP4 POP POP POP POP DUP1 ISZERO PUSH2 0x167C JUMPI POP PUSH1 0x40 MLOAD RETURNDATASIZE PUSH1 0x0 DUP3 RETURNDATACOPY PUSH1 0x1F RETURNDATASIZE SWAP1 DUP2 ADD PUSH1 0x1F NOT AND DUP3 ADD PUSH1 0x40 MSTORE PUSH2 0x1679 SWAP2 SWAP1 DUP2 ADD SWAP1 PUSH2 0x769A JUMP JUMPDEST PUSH1 0x1 JUMPDEST PUSH2 0x16B6 JUMPI RETURNDATASIZE DUP1 DUP1 ISZERO PUSH2 0x16AA JUMPI PUSH1 0x40 MLOAD SWAP2 POP PUSH1 0x1F NOT PUSH1 0x3F RETURNDATASIZE ADD AND DUP3 ADD PUSH1 0x40 MSTORE RETURNDATASIZE DUP3 MSTORE RETURNDATASIZE PUSH1 0x0 PUSH1 0x20 DUP5 ADD RETURNDATACOPY PUSH2 0x16AF JUMP JUMPDEST PUSH1 0x60 SWAP2 POP JUMPDEST POP POP PUSH2 0x1711 JUMP JUMPDEST DUP1 PUSH1 0x1 DUP8 MLOAD SUB DUP2 MLOAD DUP2 LT PUSH2 0x16C6 JUMPI INVALID JUMPDEST PUSH1 0x20 MUL PUSH1 0x20 ADD ADD MLOAD DUP5 DUP4 DUP2 MLOAD DUP2 LT PUSH2 0x16DA JUMPI INVALID JUMPDEST PUSH1 0x20 MUL PUSH1 0x20 ADD ADD DUP2 DUP2 MSTORE POP POP DUP4 DUP3 DUP2 MLOAD DUP2 LT PUSH2 0x16F2 JUMPI INVALID JUMPDEST PUSH1 0x20 MUL PUSH1 0x20 ADD ADD MLOAD PUSH1 0x0 EQ ISZERO PUSH2 0x1708 JUMPI POP PUSH2 0x1711 JUMP JUMPDEST POP PUSH1 0x1 ADD PUSH2 0x15E1 JUMP JUMPDEST POP POP SWAP4 SWAP3 POP POP POP JUMP JUMPDEST PUSH1 0x60 PUSH2 0x1726 DUP4 DUP6 PUSH2 0x5470 JUMP JUMPDEST DUP5 PUSH1 0x20 ADD MLOAD PUSH1 0x1 PUSH1 0x1 PUSH1 0xA0 SHL SUB AND DUP5 PUSH1 0x1 PUSH1 0x1 PUSH1 0xA0 SHL SUB AND EQ ISZERO DUP1 PUSH2 0x1758 JUMPI POP DUP5 MLOAD PUSH1 0x1 PUSH1 0x1 PUSH1 0xA0 SHL SUB DUP5 DUP2 AND SWAP2 AND EQ ISZERO JUMPDEST ISZERO PUSH2 0x17AC JUMPI DUP2 MLOAD PUSH1 0x60 DUP2 PUSH1 0x1 PUSH1 0x1 PUSH1 0x40 SHL SUB DUP2 GT DUP1 ISZERO PUSH2 0x1777 JUMPI PUSH1 0x0 DUP1 REVERT JUMPDEST POP PUSH1 0x40 MLOAD SWAP1 DUP1 DUP3 MSTORE DUP1 PUSH1 0x20 MUL PUSH1 0x20 ADD DUP3 ADD PUSH1 0x40 MSTORE DUP1 ISZERO PUSH2 0x17A1 JUMPI DUP2 PUSH1 0x20 ADD PUSH1 0x20 DUP3 MUL DUP1 CALLDATASIZE DUP4 CALLDATACOPY ADD SWAP1 POP JUMPDEST POP SWAP3 POP PUSH2 0xF45 SWAP2 POP POP JUMP JUMPDEST POP SWAP4 SWAP3 POP POP POP JUMP JUMPDEST DUP1 MLOAD PUSH1 0x60 SWAP1 DUP1 PUSH1 0x1 PUSH1 0x1 PUSH1 0x40 SHL SUB DUP2 GT DUP1 ISZERO PUSH2 0x17CF JUMPI PUSH1 0x0 DUP1 REVERT JUMPDEST POP PUSH1 0x40 MLOAD SWAP1 DUP1 DUP3 MSTORE DUP1 PUSH1 0x20 MUL PUSH1 0x20 ADD DUP3 ADD PUSH1 0x40 MSTORE DUP1 ISZERO PUSH2 0x17F9 JUMPI DUP2 PUSH1 0x20 ADD PUSH1 0x20 DUP3 MUL DUP1 CALLDATASIZE DUP4 CALLDATACOPY ADD SWAP1 POP JUMPDEST POP SWAP2 POP PUSH1 0x0 JUMPDEST DUP2 DUP2 LT ISZERO PUSH2 0x158C JUMPI PUSH1 0x0 PUSH1 0x60 DUP9 PUSH1 0x0 ADD MLOAD PUSH1 0x1 PUSH1 0x1 PUSH1 0xA0 SHL SUB AND PUSH3 0x1E8480 DUP11 PUSH1 0x20 ADD MLOAD DUP11 DUP11 DUP11 DUP9 DUP2 MLOAD DUP2 LT PUSH2 0x1830 JUMPI INVALID JUMPDEST PUSH1 0x20 MUL PUSH1 0x20 ADD ADD MLOAD PUSH1 0x40 MLOAD PUSH1 0x24 ADD PUSH2 0x184A SWAP4 SWAP3 SWAP2 SWAP1 PUSH2 0x823F JUMP JUMPDEST PUSH1 0x40 DUP1 MLOAD PUSH1 0x1F NOT DUP2 DUP5 SUB ADD DUP2 MSTORE SWAP2 DUP2 MSTORE PUSH1 0x20 DUP3 ADD DUP1 MLOAD PUSH1 0x1 PUSH1 0x1 PUSH1 0xE0 SHL SUB AND PUSH1 0x1 PUSH1 0x1 PUSH1 0xE0 SHL SUB NOT SWAP1 SWAP5 AND SWAP4 SWAP1 SWAP4 OR SWAP1 SWAP3 MSTORE SWAP1 MLOAD PUSH2 0x1888 SWAP2 SWAP1 PUSH2 0x7D72 JUMP JUMPDEST PUSH1 0x0 PUSH1 0x40 MLOAD DUP1 DUP4 SUB DUP2 DUP7 DUP7 STATICCALL SWAP3 POP POP POP RETURNDATASIZE DUP1 PUSH1 0x0 DUP2 EQ PUSH2 0x18C4 JUMPI PUSH1 0x40 MLOAD SWAP2 POP PUSH1 0x1F NOT PUSH1 0x3F RETURNDATASIZE ADD AND DUP3 ADD PUSH1 0x40 MSTORE RETURNDATASIZE DUP3 MSTORE RETURNDATASIZE PUSH1 0x0 PUSH1 0x20 DUP5 ADD RETURNDATACOPY PUSH2 0x18C9 JUMP JUMPDEST PUSH1 0x60 SWAP2 POP JUMPDEST POP SWAP2 POP SWAP2 POP PUSH1 0x0 DUP3 ISZERO PUSH2 0x18ED JUMPI DUP2 DUP1 PUSH1 0x20 ADD SWAP1 MLOAD DUP2 ADD SWAP1 PUSH2 0x18EA SWAP2 SWAP1 PUSH2 0x76EC JUMP JUMPDEST SWAP1 POP JUMPDEST DUP1 DUP7 DUP6 DUP2 MLOAD DUP2 LT PUSH2 0x18FA JUMPI INVALID JUMPDEST PUSH1 0x20 MUL PUSH1 0x20 ADD ADD DUP2 DUP2 MSTORE POP POP DUP6 DUP5 DUP2 MLOAD DUP2 LT PUSH2 0x1912 JUMPI INVALID JUMPDEST PUSH1 0x20 MUL PUSH1 0x20 ADD ADD MLOAD PUSH1 0x0 EQ ISZERO PUSH2 0x192A JUMPI POP POP POP PUSH2 0x158C JUMP JUMPDEST POP POP POP PUSH1 0x1 ADD PUSH2 0x17FF JUMP JUMPDEST PUSH1 0x60 DUP1 PUSH1 0x0 DUP6 MLOAD PUSH1 0x1 PUSH1 0x1 PUSH1 0x40 SHL SUB DUP2 GT DUP1 ISZERO PUSH2 0x1951 JUMPI PUSH1 0x0 DUP1 REVERT JUMPDEST POP PUSH1 0x40 MLOAD SWAP1 DUP1 DUP3 MSTORE DUP1 PUSH1 0x20 MUL PUSH1 0x20 ADD DUP3 ADD PUSH1 0x40 MSTORE DUP1 ISZERO PUSH2 0x198B JUMPI DUP2 PUSH1 0x20 ADD JUMPDEST PUSH2 0x1978 PUSH2 0x6B49 JUMP JUMPDEST DUP2 MSTORE PUSH1 0x20 ADD SWAP1 PUSH1 0x1 SWAP1 SUB SWAP1 DUP2 PUSH2 0x1970 JUMPI SWAP1 POP JUMPDEST POP SWAP3 POP PUSH1 0x0 JUMPDEST DUP7 MLOAD DUP2 EQ PUSH2 0x1AD5 JUMPI PUSH1 0x60 DUP8 DUP3 DUP2 MLOAD DUP2 LT PUSH2 0x19A7 JUMPI INVALID JUMPDEST PUSH1 0x20 MUL PUSH1 0x20 ADD ADD MLOAD PUSH1 0x20 ADD MLOAD SWAP1 POP PUSH2 0x19CE PUSH1 0x20 DUP3 MLOAD SUB DUP8 DUP4 PUSH2 0x5E03 SWAP1 SWAP3 SWAP2 SWAP1 PUSH4 0xFFFFFFFF AND JUMP JUMPDEST PUSH1 0x0 PUSH1 0x60 DUP10 DUP5 DUP2 MLOAD DUP2 LT PUSH2 0x19DE JUMPI INVALID JUMPDEST PUSH1 0x20 MUL PUSH1 0x20 ADD ADD MLOAD PUSH1 0x0 ADD MLOAD PUSH1 0x1 PUSH1 0x1 PUSH1 0xA0 SHL SUB AND DUP11 DUP6 DUP2 MLOAD DUP2 LT PUSH2 0x19FF JUMPI INVALID JUMPDEST PUSH1 0x20 MUL PUSH1 0x20 ADD ADD MLOAD PUSH1 0x40 ADD MLOAD DUP5 PUSH1 0x40 MLOAD PUSH2 0x1A19 SWAP2 SWAP1 PUSH2 0x7D72 JUMP JUMPDEST PUSH1 0x0 PUSH1 0x40 MLOAD DUP1 DUP4 SUB DUP2 PUSH1 0x0 DUP8 DUP8 CALL SWAP3 POP POP POP RETURNDATASIZE DUP1 PUSH1 0x0 DUP2 EQ PUSH2 0x1A57 JUMPI PUSH1 0x40 MLOAD SWAP2 POP PUSH1 0x1F NOT PUSH1 0x3F RETURNDATASIZE ADD AND DUP3 ADD PUSH1 0x40 MSTORE RETURNDATASIZE DUP3 MSTORE RETURNDATASIZE PUSH1 0x0 PUSH1 0x20 DUP5 ADD RETURNDATACOPY PUSH2 0x1A5C JUMP JUMPDEST PUSH1 0x60 SWAP2 POP JUMPDEST POP SWAP2 POP SWAP2 POP DUP2 ISZERO PUSH2 0x1AC7 JUMPI DUP1 DUP8 DUP6 DUP2 MLOAD DUP2 LT PUSH2 0x1A74 JUMPI INVALID JUMPDEST PUSH1 0x20 MUL PUSH1 0x20 ADD ADD MLOAD PUSH1 0x20 ADD DUP2 SWAP1 MSTORE POP PUSH1 0x0 PUSH2 0x1A9C PUSH1 0x20 DUP4 MLOAD SUB DUP4 PUSH2 0x5E13 SWAP1 SWAP2 SWAP1 PUSH4 0xFFFFFFFF AND JUMP JUMPDEST DUP9 DUP7 DUP2 MLOAD DUP2 LT PUSH2 0x1AA8 JUMPI INVALID JUMPDEST PUSH1 0x20 MUL PUSH1 0x20 ADD ADD MLOAD PUSH1 0x0 ADD DUP2 DUP2 MSTORE POP SWAP1 POP DUP6 DUP2 GT ISZERO PUSH2 0x1AC5 JUMPI DUP1 SWAP6 POP JUMPDEST POP JUMPDEST POP POP POP DUP1 PUSH1 0x1 ADD SWAP1 POP PUSH2 0x1991 JUMP JUMPDEST POP DUP1 PUSH2 0x1AE1 JUMPI POP PUSH2 0x793 JUMP JUMPDEST DUP5 MLOAD PUSH1 0x1 PUSH1 0x1 PUSH1 0x40 SHL SUB DUP2 GT DUP1 ISZERO PUSH2 0x1AF8 JUMPI PUSH1 0x0 DUP1 REVERT JUMPDEST POP PUSH1 0x40 MLOAD SWAP1 DUP1 DUP3 MSTORE DUP1 PUSH1 0x20 MUL PUSH1 0x20 ADD DUP3 ADD PUSH1 0x40 MSTORE DUP1 ISZERO PUSH2 0x1B32 JUMPI DUP2 PUSH1 0x20 ADD JUMPDEST PUSH2 0x1B1F PUSH2 0x6B49 JUMP JUMPDEST DUP2 MSTORE PUSH1 0x20 ADD SWAP1 PUSH1 0x1 SWAP1 SUB SWAP1 DUP2 PUSH2 0x1B17 JUMPI SWAP1 POP JUMPDEST POP SWAP2 POP PUSH1 0x0 JUMPDEST DUP6 MLOAD DUP2 EQ PUSH2 0x790 JUMPI PUSH1 0x60 DUP7 DUP3 DUP2 MLOAD DUP2 LT PUSH2 0x1B4E JUMPI INVALID JUMPDEST PUSH1 0x20 MUL PUSH1 0x20 ADD ADD MLOAD PUSH1 0x20 ADD MLOAD SWAP1 POP PUSH2 0x1B75 PUSH1 0x20 DUP3 MLOAD SUB DUP5 DUP4 PUSH2 0x5E03 SWAP1 SWAP3 SWAP2 SWAP1 PUSH4 0xFFFFFFFF AND JUMP JUMPDEST PUSH1 0x0 PUSH1 0x60 DUP9 DUP5 DUP2 MLOAD DUP2 LT PUSH2 0x1B85 JUMPI INVALID JUMPDEST PUSH1 0x20 MUL PUSH1 0x20 ADD ADD MLOAD PUSH1 0x0 ADD MLOAD PUSH1 0x1 PUSH1 0x1 PUSH1 0xA0 SHL SUB AND DUP10 DUP6 DUP2 MLOAD DUP2 LT PUSH2 0x1BA6 JUMPI INVALID JUMPDEST PUSH1 0x20 MUL PUSH1 0x20 ADD ADD MLOAD PUSH1 0x40 ADD MLOAD DUP5 PUSH1 0x40 MLOAD PUSH2 0x1BC0 SWAP2 SWAP1 PUSH2 0x7D72 JUMP JUMPDEST PUSH1 0x0 PUSH1 0x40 MLOAD DUP1 DUP4 SUB DUP2 PUSH1 0x0 DUP8 DUP8 CALL SWAP3 POP POP POP RETURNDATASIZE DUP1 PUSH1 0x0 DUP2 EQ PUSH2 0x1BFE JUMPI PUSH1 0x40 MLOAD SWAP2 POP PUSH1 0x1F NOT PUSH1 0x3F RETURNDATASIZE ADD AND DUP3 ADD PUSH1 0x40 MSTORE RETURNDATASIZE DUP3 MSTORE RETURNDATASIZE PUSH1 0x0 PUSH1 0x20 DUP5 ADD RETURNDATACOPY PUSH2 0x1C03 JUMP JUMPDEST PUSH1 0x60 SWAP2 POP JUMPDEST POP SWAP2 POP SWAP2 POP DUP2 ISZERO PUSH2 0x1C5A JUMPI DUP1 DUP7 DUP6 DUP2 MLOAD DUP2 LT PUSH2 0x1C1B JUMPI INVALID JUMPDEST PUSH1 0x20 MUL PUSH1 0x20 ADD ADD MLOAD PUSH1 0x20 ADD DUP2 SWAP1 MSTORE POP PUSH2 0x1C41 PUSH1 0x20 DUP3 MLOAD SUB DUP3 PUSH2 0x5E13 SWAP1 SWAP2 SWAP1 PUSH4 0xFFFFFFFF AND JUMP JUMPDEST DUP7 DUP6 DUP2 MLOAD DUP2 LT PUSH2 0x1C4D JUMPI INVALID JUMPDEST PUSH1 0x20 SWAP1 DUP2 MUL SWAP2 SWAP1 SWAP2 ADD ADD MLOAD MSTORE JUMPDEST POP POP POP DUP1 PUSH1 0x1 ADD SWAP1 POP PUSH2 0x1B38 JUMP JUMPDEST DUP1 MLOAD PUSH1 0x60 SWAP1 DUP2 SWAP1 DUP1 PUSH1 0x1 PUSH1 0x1 PUSH1 0x40 SHL SUB DUP2 GT DUP1 ISZERO PUSH2 0x1C85 JUMPI PUSH1 0x0 DUP1 REVERT JUMPDEST POP PUSH1 0x40 MLOAD SWAP1 DUP1 DUP3 MSTORE DUP1 PUSH1 0x20 MUL PUSH1 0x20 ADD DUP3 ADD PUSH1 0x40 MSTORE DUP1 ISZERO PUSH2 0x1CAF JUMPI DUP2 PUSH1 0x20 ADD PUSH1 0x20 DUP3 MUL DUP1 CALLDATASIZE DUP4 CALLDATACOPY ADD SWAP1 POP JUMPDEST POP SWAP2 POP PUSH2 0x1CBC DUP7 DUP7 PUSH2 0x4F59 JUMP JUMPDEST SWAP3 POP DUP3 MLOAD PUSH1 0x0 EQ ISZERO PUSH2 0x1CCE JUMPI POP PUSH2 0x793 JUMP JUMPDEST PUSH1 0x0 JUMPDEST DUP2 DUP2 LT ISZERO PUSH2 0x790 JUMPI DUP7 PUSH1 0x1 PUSH1 0x1 PUSH1 0xA0 SHL SUB AND PUSH4 0x9E269B68 PUSH3 0x249F0 DUP8 DUP5 DUP2 MLOAD DUP2 LT PUSH2 0x1CF8 JUMPI INVALID JUMPDEST PUSH1 0x20 MUL PUSH1 0x20 ADD ADD MLOAD DUP8 DUP11 PUSH1 0x40 MLOAD DUP6 PUSH4 0xFFFFFFFF AND PUSH1 0xE0 SHL DUP2 MSTORE PUSH1 0x4 ADD PUSH2 0x1D20 SWAP4 SWAP3 SWAP2 SWAP1 PUSH2 0x8374 JUMP JUMPDEST PUSH1 0x0 PUSH1 0x40 MLOAD DUP1 DUP4 SUB DUP2 DUP8 DUP1 EXTCODESIZE ISZERO DUP1 ISZERO PUSH2 0x1D38 JUMPI PUSH1 0x0 DUP1 REVERT JUMPDEST POP DUP7 STATICCALL SWAP4 POP POP POP POP DUP1 ISZERO PUSH2 0x1D6E JUMPI POP PUSH1 0x40 MLOAD RETURNDATASIZE PUSH1 0x0 DUP3 RETURNDATACOPY PUSH1 0x1F RETURNDATASIZE SWAP1 DUP2 ADD PUSH1 0x1F NOT AND DUP3 ADD PUSH1 0x40 MSTORE PUSH2 0x1D6B SWAP2 SWAP1 DUP2 ADD SWAP1 PUSH2 0x769A JUMP JUMPDEST PUSH1 0x1 JUMPDEST PUSH2 0x1D9C JUMPI RETURNDATASIZE DUP1 DUP1 ISZERO PUSH2 0x729 JUMPI PUSH1 0x40 MLOAD SWAP2 POP PUSH1 0x1F NOT PUSH1 0x3F RETURNDATASIZE ADD AND DUP3 ADD PUSH1 0x40 MSTORE RETURNDATASIZE DUP3 MSTORE RETURNDATASIZE PUSH1 0x0 PUSH1 0x20 DUP5 ADD RETURNDATACOPY PUSH2 0x72E JUMP JUMPDEST DUP1 PUSH1 0x0 DUP2 MLOAD DUP2 LT PUSH2 0x1DA9 JUMPI INVALID JUMPDEST PUSH1 0x20 MUL PUSH1 0x20 ADD ADD MLOAD DUP5 DUP4 DUP2 MLOAD DUP2 LT PUSH2 0x1DBD JUMPI INVALID JUMPDEST PUSH1 0x20 MUL PUSH1 0x20 ADD ADD DUP2 DUP2 MSTORE POP POP DUP4 DUP3 DUP2 MLOAD DUP2 LT PUSH2 0x1DD5 JUMPI INVALID JUMPDEST PUSH1 0x20 MUL PUSH1 0x20 ADD ADD MLOAD PUSH1 0x0 EQ ISZERO PUSH2 0x1DEB JUMPI POP PUSH2 0x790 JUMP JUMPDEST POP PUSH1 0x1 ADD PUSH2 0x1CD1 JUMP JUMPDEST PUSH1 0x20 DUP5 DUP2 ADD MLOAD PUSH1 0x40 DUP1 MLOAD PUSH1 0x1 DUP1 DUP3 MSTORE DUP2 DUP4 ADD SWAP1 SWAP3 MSTORE PUSH1 0x60 SWAP4 DUP5 SWAP3 SWAP1 DUP3 DUP2 ADD SWAP1 DUP1 CALLDATASIZE DUP4 CALLDATACOPY ADD SWAP1 POP POP SWAP1 POP DUP6 DUP2 PUSH1 0x0 DUP2 MLOAD DUP2 LT PUSH2 0x1E2B JUMPI INVALID JUMPDEST PUSH1 0x20 SWAP1 DUP2 MUL SWAP2 SWAP1 SWAP2 ADD ADD MSTORE PUSH1 0x60 PUSH1 0x0 PUSH1 0x40 MLOAD SWAP1 DUP1 DUP3 MSTORE DUP1 PUSH1 0x20 MUL PUSH1 0x20 ADD DUP3 ADD PUSH1 0x40 MSTORE DUP1 ISZERO PUSH2 0x1E63 JUMPI DUP2 PUSH1 0x20 ADD PUSH1 0x20 DUP3 MUL DUP1 CALLDATASIZE DUP4 CALLDATACOPY ADD SWAP1 POP JUMPDEST POP SWAP1 POP DUP8 PUSH1 0x60 ADD MLOAD PUSH1 0x1 PUSH1 0x1 PUSH1 0xA0 SHL SUB AND DUP7 PUSH1 0x1 PUSH1 0x1 PUSH1 0xA0 SHL SUB AND EQ ISZERO PUSH2 0x1F54 JUMPI PUSH1 0x40 MLOAD PUSH4 0x81EFCBDD PUSH1 0xE0 SHL DUP2 MSTORE PUSH1 0x1 PUSH1 0x1 PUSH1 0xA0 SHL SUB DUP5 AND SWAP1 PUSH4 0x81EFCBDD SWAP1 PUSH3 0x7A120 SWAP1 PUSH2 0x1EBC SWAP1 DUP10 SWAP1 PUSH1 0x1 SWAP1 DUP9 SWAP1 DUP9 SWAP1 PUSH1 0x4 ADD PUSH2 0x7F55 JUMP JUMPDEST PUSH1 0x0 PUSH1 0x40 MLOAD DUP1 DUP4 SUB DUP2 DUP8 DUP1 EXTCODESIZE ISZERO DUP1 ISZERO PUSH2 0x1ED4 JUMPI PUSH1 0x0 DUP1 REVERT JUMPDEST POP DUP7 STATICCALL SWAP4 POP POP POP POP DUP1 ISZERO PUSH2 0x1F0A JUMPI POP PUSH1 0x40 MLOAD RETURNDATASIZE PUSH1 0x0 DUP3 RETURNDATACOPY PUSH1 0x1F RETURNDATASIZE SWAP1 DUP2 ADD PUSH1 0x1F NOT AND DUP3 ADD PUSH1 0x40 MSTORE PUSH2 0x1F07 SWAP2 SWAP1 DUP2 ADD SWAP1 PUSH2 0x7704 JUMP JUMPDEST PUSH1 0x1 JUMPDEST PUSH2 0x1F44 JUMPI RETURNDATASIZE DUP1 DUP1 ISZERO PUSH2 0x1F38 JUMPI PUSH1 0x40 MLOAD SWAP2 POP PUSH1 0x1F NOT PUSH1 0x3F RETURNDATASIZE ADD AND DUP3 ADD PUSH1 0x40 MSTORE RETURNDATASIZE DUP3 MSTORE RETURNDATASIZE PUSH1 0x0 PUSH1 0x20 DUP5 ADD RETURNDATACOPY PUSH2 0x1F3D JUMP JUMPDEST PUSH1 0x60 SWAP2 POP JUMPDEST POP POP PUSH2 0x1F4F JUMP JUMPDEST SWAP4 POP PUSH2 0xF45 SWAP3 POP POP POP JUMP JUMPDEST PUSH2 0x2066 JUMP JUMPDEST DUP8 PUSH1 0x60 ADD MLOAD PUSH1 0x1 PUSH1 0x1 PUSH1 0xA0 SHL SUB AND DUP6 PUSH1 0x1 PUSH1 0x1 PUSH1 0xA0 SHL SUB AND EQ ISZERO PUSH2 0x1FAA JUMPI PUSH1 0x40 MLOAD PUSH4 0x61E597F9 PUSH1 0xE0 SHL DUP2 MSTORE PUSH1 0x1 PUSH1 0x1 PUSH1 0xA0 SHL SUB DUP5 AND SWAP1 PUSH4 0x61E597F9 SWAP1 PUSH3 0x7A120 SWAP1 PUSH2 0x1EBC SWAP1 DUP11 SWAP1 PUSH1 0x1 SWAP1 DUP9 SWAP1 DUP9 SWAP1 PUSH1 0x4 ADD PUSH2 0x7F55 JUMP JUMPDEST PUSH1 0x40 MLOAD PUSH4 0x2B9A6CD PUSH1 0xE1 SHL DUP2 MSTORE PUSH1 0x1 PUSH1 0x1 PUSH1 0xA0 SHL SUB DUP5 AND SWAP1 PUSH4 0x5734D9A SWAP1 PUSH3 0x7A120 SWAP1 PUSH2 0x1FEA SWAP1 DUP11 SWAP1 PUSH1 0x1 SWAP1 DUP9 SWAP1 DUP9 SWAP1 DUP14 SWAP1 DUP5 SWAP1 DUP5 SWAP1 DUP5 SWAP1 PUSH1 0x4 ADD PUSH2 0x7F98 JUMP JUMPDEST PUSH1 0x0 PUSH1 0x40 MLOAD DUP1 DUP4 SUB DUP2 DUP8 DUP1 EXTCODESIZE ISZERO DUP1 ISZERO PUSH2 0x2002 JUMPI PUSH1 0x0 DUP1 REVERT JUMPDEST POP DUP7 STATICCALL SWAP4 POP POP POP POP DUP1 ISZERO PUSH2 0x2038 JUMPI POP PUSH1 0x40 MLOAD RETURNDATASIZE PUSH1 0x0 DUP3 RETURNDATACOPY PUSH1 0x1F RETURNDATASIZE SWAP1 DUP2 ADD PUSH1 0x1F NOT AND DUP3 ADD PUSH1 0x40 MSTORE PUSH2 0x2035 SWAP2 SWAP1 DUP2 ADD SWAP1 PUSH2 0x7704 JUMP JUMPDEST PUSH1 0x1 JUMPDEST PUSH2 0x1F44 JUMPI RETURNDATASIZE DUP1 DUP1 ISZERO PUSH2 0xB15 JUMPI PUSH1 0x40 MLOAD SWAP2 POP PUSH1 0x1F NOT PUSH1 0x3F RETURNDATASIZE ADD AND DUP3 ADD PUSH1 0x40 MSTORE RETURNDATASIZE DUP3 MSTORE RETURNDATASIZE PUSH1 0x0 PUSH1 0x20 DUP5 ADD RETURNDATACOPY PUSH2 0xB15 JUMP JUMPDEST POP POP POP SWAP5 SWAP4 POP POP POP POP JUMP JUMPDEST DUP1 MLOAD PUSH1 0x60 SWAP1 DUP6 SWAP1 DUP1 PUSH1 0x1 PUSH1 0x1 PUSH1 0x40 SHL SUB DUP2 GT DUP1 ISZERO PUSH2 0x208E JUMPI PUSH1 0x0 DUP1 REVERT JUMPDEST POP PUSH1 0x40 MLOAD SWAP1 DUP1 DUP3 MSTORE DUP1 PUSH1 0x20 MUL PUSH1 0x20 ADD DUP3 ADD PUSH1 0x40 MSTORE DUP1 ISZERO PUSH2 0x20B8 JUMPI DUP2 PUSH1 0x20 ADD PUSH1 0x20 DUP3 MUL DUP1 CALLDATASIZE DUP4 CALLDATACOPY ADD SWAP1 POP JUMPDEST POP PUSH1 0x40 MLOAD PUSH4 0xBCDED89 PUSH1 0xE2 SHL DUP2 MSTORE SWAP1 SWAP4 POP PUSH1 0x1 PUSH1 0x1 PUSH1 0xA0 SHL SUB DUP4 AND SWAP1 PUSH4 0x2F37B624 SWAP1 PUSH2 0x20E8 SWAP1 DUP10 SWAP1 PUSH1 0x4 ADD PUSH2 0x7D8E JUMP JUMPDEST PUSH1 0x20 PUSH1 0x40 MLOAD DUP1 DUP4 SUB DUP2 DUP7 DUP1 EXTCODESIZE ISZERO DUP1 ISZERO PUSH2 0x2100 JUMPI PUSH1 0x0 DUP1 REVERT JUMPDEST POP GAS STATICCALL ISZERO DUP1 ISZERO PUSH2 0x2114 JUMPI RETURNDATASIZE PUSH1 0x0 DUP1 RETURNDATACOPY RETURNDATASIZE PUSH1 0x0 REVERT JUMPDEST POP POP POP POP PUSH1 0x40 MLOAD RETURNDATASIZE PUSH1 0x1F NOT PUSH1 0x1F DUP3 ADD AND DUP3 ADD DUP1 PUSH1 0x40 MSTORE POP DUP2 ADD SWAP1 PUSH2 0x2138 SWAP2 SWAP1 PUSH2 0x76CC JUMP JUMPDEST ISZERO DUP1 PUSH2 0x21BD JUMPI POP PUSH1 0x40 MLOAD PUSH4 0xBCDED89 PUSH1 0xE2 SHL DUP2 MSTORE PUSH1 0x1 PUSH1 0x1 PUSH1 0xA0 SHL SUB DUP4 AND SWAP1 PUSH4 0x2F37B624 SWAP1 PUSH2 0x216B SWAP1 DUP9 SWAP1 PUSH1 0x4 ADD PUSH2 0x7D8E JUMP JUMPDEST PUSH1 0x20 PUSH1 0x40 MLOAD DUP1 DUP4 SUB DUP2 DUP7 DUP1 EXTCODESIZE ISZERO DUP1 ISZERO PUSH2 0x2183 JUMPI PUSH1 0x0 DUP1 REVERT JUMPDEST POP GAS STATICCALL ISZERO DUP1 ISZERO PUSH2 0x2197 JUMPI RETURNDATASIZE PUSH1 0x0 DUP1 RETURNDATACOPY RETURNDATASIZE PUSH1 0x0 REVERT JUMPDEST POP POP POP POP PUSH1 0x40 MLOAD RETURNDATASIZE PUSH1 0x1F NOT PUSH1 0x1F DUP3 ADD AND DUP3 ADD DUP1 PUSH1 0x40 MSTORE POP DUP2 ADD SWAP1 PUSH2 0x21BB SWAP2 SWAP1 PUSH2 0x76CC JUMP JUMPDEST ISZERO JUMPDEST ISZERO PUSH2 0x21C9 JUMPI POP POP PUSH2 0xF45 JUMP JUMPDEST PUSH2 0x21D1 PUSH2 0x6B63 JUMP JUMPDEST PUSH1 0x40 MLOAD PUSH4 0xF8B2CB4F PUSH1 0xE0 SHL DUP2 MSTORE PUSH1 0x1 PUSH1 0x1 PUSH1 0xA0 SHL SUB DUP5 AND SWAP1 PUSH4 0xF8B2CB4F SWAP1 PUSH2 0x21FD SWAP1 DUP11 SWAP1 PUSH1 0x4 ADD PUSH2 0x7D8E JUMP JUMPDEST PUSH1 0x20 PUSH1 0x40 MLOAD DUP1 DUP4 SUB DUP2 DUP7 DUP1 EXTCODESIZE ISZERO DUP1 ISZERO PUSH2 0x2215 JUMPI PUSH1 0x0 DUP1 REVERT JUMPDEST POP GAS STATICCALL ISZERO DUP1 ISZERO PUSH2 0x2229 JUMPI RETURNDATASIZE PUSH1 0x0 DUP1 RETURNDATACOPY RETURNDATASIZE PUSH1 0x0 REVERT JUMPDEST POP POP POP POP PUSH1 0x40 MLOAD RETURNDATASIZE PUSH1 0x1F NOT PUSH1 0x1F DUP3 ADD AND DUP3 ADD DUP1 PUSH1 0x40 MSTORE POP DUP2 ADD SWAP1 PUSH2 0x224D SWAP2 SWAP1 PUSH2 0x76EC JUMP JUMPDEST DUP2 MSTORE PUSH1 0x40 MLOAD PUSH4 0xF8B2CB4F PUSH1 0xE0 SHL DUP2 MSTORE PUSH1 0x1 PUSH1 0x1 PUSH1 0xA0 SHL SUB DUP5 AND SWAP1 PUSH4 0xF8B2CB4F SWAP1 PUSH2 0x227B SWAP1 DUP10 SWAP1 PUSH1 0x4 ADD PUSH2 0x7D8E JUMP JUMPDEST PUSH1 0x20 PUSH1 0x40 MLOAD DUP1 DUP4 SUB DUP2 DUP7 DUP1 EXTCODESIZE ISZERO DUP1 ISZERO PUSH2 0x2293 JUMPI PUSH1 0x0 DUP1 REVERT JUMPDEST POP GAS STATICCALL ISZERO DUP1 ISZERO PUSH2 0x22A7 JUMPI RETURNDATASIZE PUSH1 0x0 DUP1 RETURNDATACOPY RETURNDATASIZE PUSH1 0x0 REVERT JUMPDEST POP POP POP POP PUSH1 0x40 MLOAD RETURNDATASIZE PUSH1 0x1F NOT PUSH1 0x1F DUP3 ADD AND DUP3 ADD DUP1 PUSH1 0x40 MSTORE POP DUP2 ADD SWAP1 PUSH2 0x22CB SWAP2 SWAP1 PUSH2 0x76EC JUMP JUMPDEST PUSH1 0x20 DUP3 ADD MSTORE PUSH1 0x40 MLOAD PUSH4 0x4A46C673 PUSH1 0xE1 SHL DUP2 MSTORE PUSH1 0x1 PUSH1 0x1 PUSH1 0xA0 SHL SUB DUP5 AND SWAP1 PUSH4 0x948D8CE6 SWAP1 PUSH2 0x22FC SWAP1 DUP11 SWAP1 PUSH1 0x4 ADD PUSH2 0x7D8E JUMP JUMPDEST PUSH1 0x20 PUSH1 0x40 MLOAD DUP1 DUP4 SUB DUP2 DUP7 DUP1 EXTCODESIZE ISZERO DUP1 ISZERO PUSH2 0x2314 JUMPI PUSH1 0x0 DUP1 REVERT JUMPDEST POP GAS STATICCALL ISZERO DUP1 ISZERO PUSH2 0x2328 JUMPI RETURNDATASIZE PUSH1 0x0 DUP1 RETURNDATACOPY RETURNDATASIZE PUSH1 0x0 REVERT JUMPDEST POP POP POP POP PUSH1 0x40 MLOAD RETURNDATASIZE PUSH1 0x1F NOT PUSH1 0x1F DUP3 ADD AND DUP3 ADD DUP1 PUSH1 0x40 MSTORE POP DUP2 ADD SWAP1 PUSH2 0x234C SWAP2 SWAP1 PUSH2 0x76EC JUMP JUMPDEST PUSH1 0x40 DUP1 DUP4 ADD SWAP2 SWAP1 SWAP2 MSTORE MLOAD PUSH4 0x4A46C673 PUSH1 0xE1 SHL DUP2 MSTORE PUSH1 0x1 PUSH1 0x1 PUSH1 0xA0 SHL SUB DUP5 AND SWAP1 PUSH4 0x948D8CE6 SWAP1 PUSH2 0x237F SWAP1 DUP10 SWAP1 PUSH1 0x4 ADD PUSH2 0x7D8E JUMP JUMPDEST PUSH1 0x20 PUSH1 0x40 MLOAD DUP1 DUP4 SUB DUP2 DUP7 DUP1 EXTCODESIZE ISZERO DUP1 ISZERO PUSH2 0x2397 JUMPI PUSH1 0x0 DUP1 REVERT JUMPDEST POP GAS STATICCALL ISZERO DUP1 ISZERO PUSH2 0x23AB JUMPI RETURNDATASIZE PUSH1 0x0 DUP1 RETURNDATACOPY RETURNDATASIZE PUSH1 0x0 REVERT JUMPDEST POP POP POP POP PUSH1 0x40 MLOAD RETURNDATASIZE PUSH1 0x1F NOT PUSH1 0x1F DUP3 ADD AND DUP3 ADD DUP1 PUSH1 0x40 MSTORE POP DUP2 ADD SWAP1 PUSH2 0x23CF SWAP2 SWAP1 PUSH2 0x76EC JUMP JUMPDEST DUP2 PUSH1 0x60 ADD DUP2 DUP2 MSTORE POP POP DUP3 PUSH1 0x1 PUSH1 0x1 PUSH1 0xA0 SHL SUB AND PUSH4 0xD4CADF68 PUSH1 0x40 MLOAD DUP2 PUSH4 0xFFFFFFFF AND PUSH1 0xE0 SHL DUP2 MSTORE PUSH1 0x4 ADD PUSH1 0x20 PUSH1 0x40 MLOAD DUP1 DUP4 SUB DUP2 DUP7 DUP1 EXTCODESIZE ISZERO DUP1 ISZERO PUSH2 0x2411 JUMPI PUSH1 0x0 DUP1 REVERT JUMPDEST POP GAS STATICCALL ISZERO DUP1 ISZERO PUSH2 0x2425 JUMPI RETURNDATASIZE PUSH1 0x0 DUP1 RETURNDATACOPY RETURNDATASIZE PUSH1 0x0 REVERT JUMPDEST POP POP POP POP PUSH1 0x40 MLOAD RETURNDATASIZE PUSH1 0x1F NOT PUSH1 0x1F DUP3 ADD AND DUP3 ADD DUP1 PUSH1 0x40 MSTORE POP DUP2 ADD SWAP1 PUSH2 0x2449 SWAP2 SWAP1 PUSH2 0x76EC JUMP JUMPDEST PUSH1 0x80 DUP3 ADD MSTORE PUSH1 0x0 JUMPDEST DUP3 DUP2 LT ISZERO PUSH2 0xCEC JUMPI PUSH2 0x247C DUP3 PUSH1 0x20 ADD MLOAD PUSH1 0x3 PUSH8 0xDE0B6B3A7640000 DUP2 PUSH2 0x2473 JUMPI INVALID JUMPDEST DIV PUSH1 0x1 ADD PUSH2 0x5E1F JUMP JUMPDEST DUP7 DUP3 DUP2 MLOAD DUP2 LT PUSH2 0x2488 JUMPI INVALID JUMPDEST PUSH1 0x20 MUL PUSH1 0x20 ADD ADD MLOAD GT ISZERO PUSH2 0x249B JUMPI PUSH2 0xCEC JUMP JUMPDEST DUP4 PUSH1 0x1 PUSH1 0x1 PUSH1 0xA0 SHL SUB AND PUSH4 0xF8D6AED4 PUSH3 0x493E0 DUP5 PUSH1 0x0 ADD MLOAD DUP6 PUSH1 0x40 ADD MLOAD DUP7 PUSH1 0x20 ADD MLOAD DUP8 PUSH1 0x60 ADD MLOAD DUP13 DUP9 DUP2 MLOAD DUP2 LT PUSH2 0x24CE JUMPI INVALID JUMPDEST PUSH1 0x20 MUL PUSH1 0x20 ADD ADD MLOAD DUP10 PUSH1 0x80 ADD MLOAD PUSH1 0x40 MLOAD DUP9 PUSH4 0xFFFFFFFF AND PUSH1 0xE0 SHL DUP2 MSTORE PUSH1 0x4 ADD PUSH2 0x24FC SWAP7 SWAP6 SWAP5 SWAP4 SWAP3 SWAP2 SWAP1 PUSH2 0x839F JUMP JUMPDEST PUSH1 0x20 PUSH1 0x40 MLOAD DUP1 DUP4 SUB DUP2 DUP8 DUP1 EXTCODESIZE ISZERO DUP1 ISZERO PUSH2 0x2514 JUMPI PUSH1 0x0 DUP1 REVERT JUMPDEST POP DUP7 STATICCALL SWAP4 POP POP POP POP DUP1 ISZERO PUSH2 0x2545 JUMPI POP PUSH1 0x40 DUP1 MLOAD PUSH1 0x1F RETURNDATASIZE SWAP1 DUP2 ADD PUSH1 0x1F NOT AND DUP3 ADD SWAP1 SWAP3 MSTORE PUSH2 0x2542 SWAP2 DUP2 ADD SWAP1 PUSH2 0x76EC JUMP JUMPDEST PUSH1 0x1 JUMPDEST PUSH2 0x257F JUMPI RETURNDATASIZE DUP1 DUP1 ISZERO PUSH2 0x2573 JUMPI PUSH1 0x40 MLOAD SWAP2 POP PUSH1 0x1F NOT PUSH1 0x3F RETURNDATASIZE ADD AND DUP3 ADD PUSH1 0x40 MSTORE RETURNDATASIZE DUP3 MSTORE RETURNDATASIZE PUSH1 0x0 PUSH1 0x20 DUP5 ADD RETURNDATACOPY PUSH2 0x2578 JUMP JUMPDEST PUSH1 0x60 SWAP2 POP JUMPDEST POP POP PUSH2 0xCEC JUMP JUMPDEST DUP1 DUP7 DUP4 DUP2 MLOAD DUP2 LT PUSH2 0x258C JUMPI INVALID JUMPDEST PUSH1 0x20 MUL PUSH1 0x20 ADD ADD DUP2 DUP2 MSTORE POP POP DUP6 DUP3 DUP2 MLOAD DUP2 LT PUSH2 0x25A4 JUMPI INVALID JUMPDEST PUSH1 0x20 MUL PUSH1 0x20 ADD ADD MLOAD PUSH1 0x0 EQ ISZERO PUSH2 0x25BA JUMPI POP PUSH2 0xCEC JUMP JUMPDEST POP PUSH1 0x1 ADD PUSH2 0x2451 JUMP JUMPDEST PUSH1 0x40 DUP1 MLOAD PUSH1 0x60 DUP2 DUP2 ADD SWAP1 SWAP3 MSTORE PUSH2 0xFB3 SWAP1 DUP1 PUSH2 0x25E2 DUP7 DUP10 PUSH1 0x80 DUP5 ADD PUSH2 0x7DBB JUMP JUMPDEST PUSH1 0x40 MLOAD PUSH1 0x20 DUP2 DUP4 SUB SUB DUP2 MSTORE SWAP1 PUSH1 0x40 MSTORE DUP2 MSTORE PUSH1 0x20 ADD DUP7 DUP9 PUSH1 0x40 MLOAD PUSH1 0x20 ADD PUSH2 0x2609 SWAP3 SWAP2 SWAP1 PUSH2 0x7DBB JUMP JUMPDEST PUSH1 0x40 MLOAD PUSH1 0x20 DUP2 DUP4 SUB SUB DUP2 MSTORE SWAP1 PUSH1 0x40 MSTORE DUP2 MSTORE PUSH1 0x20 ADD PUSH2 0x5E7C DUP2 MSTORE POP DUP4 PUSH2 0x5ACD JUMP JUMPDEST PUSH1 0x0 PUSH1 0x60 DUP1 SWAP5 POP SWAP5 POP SWAP5 SWAP2 POP POP JUMP JUMPDEST PUSH1 0x60 PUSH2 0x2644 DUP4 DUP6 PUSH2 0x5470 JUMP JUMPDEST PUSH1 0x0 DUP6 PUSH1 0x0 ADD MLOAD SWAP1 POP PUSH1 0x0 DUP2 PUSH1 0x1 PUSH1 0x1 PUSH1 0xA0 SHL SUB AND PUSH4 0x36569E77 PUSH1 0x40 MLOAD DUP2 PUSH4 0xFFFFFFFF AND PUSH1 0xE0 SHL DUP2 MSTORE PUSH1 0x4 ADD PUSH1 0x20 PUSH1 0x40 MLOAD DUP1 DUP4 SUB DUP2 DUP7 DUP1 EXTCODESIZE ISZERO DUP1 ISZERO PUSH2 0x2688 JUMPI PUSH1 0x0 DUP1 REVERT JUMPDEST POP GAS STATICCALL ISZERO DUP1 ISZERO PUSH2 0x269C JUMPI RETURNDATASIZE PUSH1 0x0 DUP1 RETURNDATACOPY RETURNDATASIZE PUSH1 0x0 REVERT JUMPDEST POP POP POP POP PUSH1 0x40 MLOAD RETURNDATASIZE PUSH1 0x1F NOT PUSH1 0x1F DUP3 ADD AND DUP3 ADD DUP1 PUSH1 0x40 MSTORE POP DUP2 ADD SWAP1 PUSH2 0x26C0 SWAP2 SWAP1 PUSH2 0x7097 JUMP JUMPDEST DUP5 MLOAD SWAP1 SWAP2 POP DUP1 PUSH1 0x1 PUSH1 0x1 PUSH1 0x40 SHL SUB DUP2 GT DUP1 ISZERO PUSH2 0x26DB JUMPI PUSH1 0x0 DUP1 REVERT JUMPDEST POP PUSH1 0x40 MLOAD SWAP1 DUP1 DUP3 MSTORE DUP1 PUSH1 0x20 MUL PUSH1 0x20 ADD DUP3 ADD PUSH1 0x40 MSTORE DUP1 ISZERO PUSH2 0x2705 JUMPI DUP2 PUSH1 0x20 ADD PUSH1 0x20 DUP3 MUL DUP1 CALLDATASIZE DUP4 CALLDATACOPY ADD SWAP1 POP JUMPDEST POP SWAP4 POP DUP3 PUSH1 0x1 PUSH1 0x1 PUSH1 0xA0 SHL SUB AND PUSH4 0xF4B9FA75 PUSH1 0x40 MLOAD DUP2 PUSH4 0xFFFFFFFF AND PUSH1 0xE0 SHL DUP2 MSTORE PUSH1 0x4 ADD PUSH1 0x20 PUSH1 0x40 MLOAD DUP1 DUP4 SUB DUP2 DUP7 DUP1 EXTCODESIZE ISZERO DUP1 ISZERO PUSH2 0x2741 JUMPI PUSH1 0x0 DUP1 REVERT JUMPDEST POP GAS STATICCALL ISZERO DUP1 ISZERO PUSH2 0x2755 JUMPI RETURNDATASIZE PUSH1 0x0 DUP1 RETURNDATACOPY RETURNDATASIZE PUSH1 0x0 REVERT JUMPDEST POP POP POP POP PUSH1 0x40 MLOAD RETURNDATASIZE PUSH1 0x1F NOT PUSH1 0x1F DUP3 ADD AND DUP3 ADD DUP1 PUSH1 0x40 MSTORE POP DUP2 ADD SWAP1 PUSH2 0x2779 SWAP2 SWAP1 PUSH2 0x7097 JUMP JUMPDEST PUSH1 0x1 PUSH1 0x1 PUSH1 0xA0 SHL SUB AND DUP7 PUSH1 0x1 PUSH1 0x1 PUSH1 0xA0 SHL SUB AND EQ ISZERO DUP1 ISZERO PUSH2 0x281C JUMPI POP DUP3 PUSH1 0x1 PUSH1 0x1 PUSH1 0xA0 SHL SUB AND PUSH4 0xF4B9FA75 PUSH1 0x40 MLOAD DUP2 PUSH4 0xFFFFFFFF AND PUSH1 0xE0 SHL DUP2 MSTORE PUSH1 0x4 ADD PUSH1 0x20 PUSH1 0x40 MLOAD DUP1 DUP4 SUB DUP2 DUP7 DUP1 EXTCODESIZE ISZERO DUP1 ISZERO PUSH2 0x27CE JUMPI PUSH1 0x0 DUP1 REVERT JUMPDEST POP GAS STATICCALL ISZERO DUP1 ISZERO PUSH2 0x27E2 JUMPI RETURNDATASIZE PUSH1 0x0 DUP1 RETURNDATACOPY RETURNDATASIZE PUSH1 0x0 REVERT JUMPDEST POP POP POP POP PUSH1 0x40 MLOAD RETURNDATASIZE PUSH1 0x1F NOT PUSH1 0x1F DUP3 ADD AND DUP3 ADD DUP1 PUSH1 0x40 MSTORE POP DUP2 ADD SWAP1 PUSH2 0x2806 SWAP2 SWAP1 PUSH2 0x7097 JUMP JUMPDEST PUSH1 0x1 PUSH1 0x1 PUSH1 0xA0 SHL SUB AND DUP8 PUSH1 0x1 PUSH1 0x1 PUSH1 0xA0 SHL SUB AND EQ ISZERO JUMPDEST ISZERO PUSH2 0x2829 JUMPI POP POP POP PUSH2 0xF45 JUMP JUMPDEST PUSH1 0x0 JUMPDEST DUP2 DUP2 LT ISZERO PUSH2 0xCEC JUMPI PUSH1 0x0 PUSH2 0x2857 DUP11 DUP10 DUP12 DUP11 DUP7 DUP2 MLOAD DUP2 LT PUSH2 0x2848 JUMPI INVALID JUMPDEST PUSH1 0x20 MUL PUSH1 0x20 ADD ADD MLOAD DUP10 DUP10 PUSH2 0x5F90 JUMP JUMPDEST SWAP1 POP DUP1 PUSH2 0x2864 JUMPI POP PUSH2 0xCEC JUMP JUMPDEST DUP1 DUP7 DUP4 DUP2 MLOAD DUP2 LT PUSH2 0x2871 JUMPI INVALID JUMPDEST PUSH1 0x20 SWAP1 DUP2 MUL SWAP2 SWAP1 SWAP2 ADD ADD MSTORE POP PUSH1 0x1 ADD PUSH2 0x282C JUMP JUMPDEST PUSH1 0x60 PUSH1 0x0 DUP6 PUSH1 0x0 ADD MLOAD PUSH1 0x1 PUSH1 0x1 PUSH1 0xA0 SHL SUB AND PUSH4 0xBBD7F255 DUP6 PUSH1 0xF SIGNEXTEND PUSH1 0x40 MLOAD DUP3 PUSH4 0xFFFFFFFF AND PUSH1 0xE0 SHL DUP2 MSTORE PUSH1 0x4 ADD PUSH2 0x28BC SWAP2 SWAP1 PUSH2 0x80FE JUMP JUMPDEST PUSH1 0x20 PUSH1 0x40 MLOAD DUP1 DUP4 SUB DUP2 DUP7 DUP1 EXTCODESIZE ISZERO DUP1 ISZERO PUSH2 0x28D4 JUMPI PUSH1 0x0 DUP1 REVERT JUMPDEST POP GAS STATICCALL ISZERO DUP1 ISZERO PUSH2 0x28E8 JUMPI RETURNDATASIZE PUSH1 0x0 DUP1 RETURNDATACOPY RETURNDATASIZE PUSH1 0x0 REVERT JUMPDEST POP POP POP POP PUSH1 0x40 MLOAD RETURNDATASIZE PUSH1 0x1F NOT PUSH1 0x1F DUP3 ADD AND DUP3 ADD DUP1 PUSH1 0x40 MSTORE POP DUP2 ADD SWAP1 PUSH2 0x290C SWAP2 SWAP1 PUSH2 0x76EC JUMP JUMPDEST DUP7 MLOAD PUSH1 0x40 MLOAD PUSH4 0x1E010439 PUSH1 0xE0 SHL DUP2 MSTORE PUSH1 0x1 PUSH1 0x1 PUSH1 0xA0 SHL SUB SWAP1 SWAP2 AND SWAP1 PUSH4 0x1E010439 SWAP1 PUSH2 0x293F SWAP1 PUSH1 0xF DUP10 SWAP1 SIGNEXTEND SWAP1 PUSH1 0x4 ADD PUSH2 0x80FE JUMP JUMPDEST PUSH1 0x20 PUSH1 0x40 MLOAD DUP1 DUP4 SUB DUP2 DUP7 DUP1 EXTCODESIZE ISZERO DUP1 ISZERO PUSH2 0x2957 JUMPI PUSH1 0x0 DUP1 REVERT JUMPDEST POP GAS STATICCALL ISZERO DUP1 ISZERO PUSH2 0x296B JUMPI RETURNDATASIZE PUSH1 0x0 DUP1 RETURNDATACOPY RETURNDATASIZE PUSH1 0x0 REVERT JUMPDEST POP POP POP POP PUSH1 0x40 MLOAD RETURNDATASIZE PUSH1 0x1F NOT PUSH1 0x1F DUP3 ADD AND DUP3 ADD DUP1 PUSH1 0x40 MSTORE POP DUP2 ADD SWAP1 PUSH2 0x298F SWAP2 SWAP1 PUSH2 0x76EC JUMP JUMPDEST SUB SWAP1 POP PUSH1 0x0 DUP7 PUSH1 0x0 ADD MLOAD PUSH1 0x1 PUSH1 0x1 PUSH1 0xA0 SHL SUB AND PUSH4 0xC5829514 DUP7 PUSH1 0xF SIGNEXTEND PUSH1 0x40 MLOAD DUP3 PUSH4 0xFFFFFFFF AND PUSH1 0xE0 SHL DUP2 MSTORE PUSH1 0x4 ADD PUSH2 0x29C7 SWAP2 SWAP1 PUSH2 0x80FE JUMP JUMPDEST PUSH1 0x80 PUSH1 0x40 MLOAD DUP1 DUP4 SUB DUP2 DUP7 DUP1 EXTCODESIZE ISZERO DUP1 ISZERO PUSH2 0x29DF JUMPI PUSH1 0x0 DUP1 REVERT JUMPDEST POP GAS STATICCALL ISZERO DUP1 ISZERO PUSH2 0x29F3 JUMPI RETURNDATASIZE PUSH1 0x0 DUP1 RETURNDATACOPY RETURNDATASIZE PUSH1 0x0 REVERT JUMPDEST POP POP POP POP PUSH1 0x40 MLOAD RETURNDATASIZE PUSH1 0x1F NOT PUSH1 0x1F DUP3 ADD AND DUP3 ADD DUP1 PUSH1 0x40 MSTORE POP DUP2 ADD SWAP1 PUSH2 0x2A17 SWAP2 SWAP1 PUSH2 0x7AF7 JUMP JUMPDEST SWAP4 POP POP POP POP DUP1 PUSH1 0x12 SUB PUSH1 0xA EXP DUP3 DUP2 PUSH2 0x2A2B JUMPI INVALID JUMPDEST DUP6 MLOAD SWAP2 SWAP1 DIV SWAP3 POP DUP1 PUSH1 0x1 PUSH1 0x1 PUSH1 0x40 SHL SUB DUP2 GT DUP1 ISZERO PUSH2 0x2A48 JUMPI PUSH1 0x0 DUP1 REVERT JUMPDEST POP PUSH1 0x40 MLOAD SWAP1 DUP1 DUP3 MSTORE DUP1 PUSH1 0x20 MUL PUSH1 0x20 ADD DUP3 ADD PUSH1 0x40 MSTORE DUP1 ISZERO PUSH2 0x2A72 JUMPI DUP2 PUSH1 0x20 ADD PUSH1 0x20 DUP3 MUL DUP1 CALLDATASIZE DUP4 CALLDATACOPY ADD SWAP1 POP JUMPDEST POP SWAP4 POP PUSH1 0x0 JUMPDEST DUP2 DUP2 LT ISZERO PUSH2 0xCEC JUMPI PUSH1 0x0 PUSH1 0x60 DUP11 PUSH1 0x0 ADD MLOAD PUSH1 0x1 PUSH1 0x1 PUSH1 0xA0 SHL SUB AND PUSH3 0x927C0 DUP13 PUSH1 0x20 ADD MLOAD DUP13 DUP13 DUP13 DUP9 DUP2 MLOAD DUP2 LT PUSH2 0x2AA9 JUMPI INVALID JUMPDEST PUSH1 0x20 MUL PUSH1 0x20 ADD ADD MLOAD PUSH1 0x40 MLOAD PUSH1 0x24 ADD PUSH2 0x2AC3 SWAP4 SWAP3 SWAP2 SWAP1 PUSH2 0x823F JUMP JUMPDEST PUSH1 0x40 DUP1 MLOAD PUSH1 0x1F NOT DUP2 DUP5 SUB ADD DUP2 MSTORE SWAP2 DUP2 MSTORE PUSH1 0x20 DUP3 ADD DUP1 MLOAD PUSH1 0x1 PUSH1 0x1 PUSH1 0xE0 SHL SUB AND PUSH1 0x1 PUSH1 0x1 PUSH1 0xE0 SHL SUB NOT SWAP1 SWAP5 AND SWAP4 SWAP1 SWAP4 OR SWAP1 SWAP3 MSTORE SWAP1 MLOAD PUSH2 0x2B01 SWAP2 SWAP1 PUSH2 0x7D72 JUMP JUMPDEST PUSH1 0x0 PUSH1 0x40 MLOAD DUP1 DUP4 SUB DUP2 DUP7 DUP7 STATICCALL SWAP3 POP POP POP RETURNDATASIZE DUP1 PUSH1 0x0 DUP2 EQ PUSH2 0x2B3D JUMPI PUSH1 0x40 MLOAD SWAP2 POP PUSH1 0x1F NOT PUSH1 0x3F RETURNDATASIZE ADD AND DUP3 ADD PUSH1 0x40 MSTORE RETURNDATASIZE DUP3 MSTORE RETURNDATASIZE PUSH1 0x0 PUSH1 0x20 DUP5 ADD RETURNDATACOPY PUSH2 0x2B42 JUMP JUMPDEST PUSH1 0x60 SWAP2 POP JUMPDEST POP SWAP2 POP SWAP2 POP PUSH1 0x0 DUP3 ISZERO PUSH2 0x2B66 JUMPI DUP2 DUP1 PUSH1 0x20 ADD SWAP1 MLOAD DUP2 ADD SWAP1 PUSH2 0x2B63 SWAP2 SWAP1 PUSH2 0x76EC JUMP JUMPDEST SWAP1 POP JUMPDEST DUP7 DUP2 LT PUSH2 0x2BA0 JUMPI DUP4 JUMPDEST DUP6 DUP2 LT ISZERO PUSH2 0x2B97 JUMPI DUP8 DUP10 DUP3 DUP2 MLOAD DUP2 LT PUSH2 0x2B84 JUMPI INVALID JUMPDEST PUSH1 0x20 SWAP1 DUP2 MUL SWAP2 SWAP1 SWAP2 ADD ADD MSTORE PUSH1 0x1 ADD PUSH2 0x2B6F JUMP JUMPDEST POP POP POP POP PUSH2 0xCEC JUMP JUMPDEST DUP1 DUP9 DUP6 DUP2 MLOAD DUP2 LT PUSH2 0x2BAD JUMPI INVALID JUMPDEST PUSH1 0x20 MUL PUSH1 0x20 ADD ADD DUP2 DUP2 MSTORE POP POP DUP8 DUP5 DUP2 MLOAD DUP2 LT PUSH2 0x2BC5 JUMPI INVALID JUMPDEST PUSH1 0x20 MUL PUSH1 0x20 ADD ADD MLOAD PUSH1 0x0 EQ ISZERO PUSH2 0x2BDD JUMPI POP POP POP PUSH2 0xCEC JUMP JUMPDEST POP POP POP PUSH1 0x1 ADD PUSH2 0x2A78 JUMP JUMPDEST PUSH1 0x40 DUP5 ADD MLOAD PUSH1 0x60 SWAP1 PUSH1 0x1 PUSH1 0x1 PUSH1 0xE0 SHL SUB NOT AND PUSH2 0x2C6A JUMPI PUSH1 0x40 DUP1 MLOAD PUSH1 0x60 DUP2 ADD SWAP1 SWAP2 MSTORE PUSH2 0x2C63 SWAP1 DUP1 PUSH2 0x2C1C DUP7 DUP10 PUSH1 0x80 DUP5 ADD PUSH2 0x825D JUMP JUMPDEST PUSH1 0x40 MLOAD PUSH1 0x20 DUP2 DUP4 SUB SUB DUP2 MSTORE SWAP1 PUSH1 0x40 MSTORE DUP2 MSTORE PUSH1 0x20 ADD DUP7 DUP9 PUSH1 0x40 MLOAD PUSH1 0x20 ADD PUSH2 0x2C43 SWAP3 SWAP2 SWAP1 PUSH2 0x825D JUMP JUMPDEST PUSH1 0x40 MLOAD PUSH1 0x20 DUP2 DUP4 SUB SUB DUP2 MSTORE SWAP1 PUSH1 0x40 MSTORE DUP2 MSTORE PUSH1 0x20 ADD PUSH2 0x6228 DUP2 MSTORE POP DUP4 PUSH2 0x5ACD JUMP JUMPDEST SWAP1 POP PUSH2 0xF45 JUMP JUMPDEST DUP2 MLOAD DUP1 PUSH1 0x1 PUSH1 0x1 PUSH1 0x40 SHL SUB DUP2 GT DUP1 ISZERO PUSH2 0x2C82 JUMPI PUSH1 0x0 DUP1 REVERT JUMPDEST POP PUSH1 0x40 MLOAD SWAP1 DUP1 DUP3 MSTORE DUP1 PUSH1 0x20 MUL PUSH1 0x20 ADD DUP3 ADD PUSH1 0x40 MSTORE DUP1 ISZERO PUSH2 0x2CAC JUMPI DUP2 PUSH1 0x20 ADD PUSH1 0x20 DUP3 MUL DUP1 CALLDATASIZE DUP4 CALLDATACOPY ADD SWAP1 POP JUMPDEST POP SWAP2 POP PUSH1 0x0 JUMPDEST DUP2 DUP2 LT ISZERO PUSH2 0x158C JUMPI PUSH1 0x0 PUSH1 0x60 DUP9 PUSH1 0x0 ADD MLOAD PUSH1 0x1 PUSH1 0x1 PUSH1 0xA0 SHL SUB AND PUSH3 0x1E8480 DUP11 PUSH1 0x40 ADD MLOAD DUP11 DUP11 DUP11 DUP9 DUP2 MLOAD DUP2 LT PUSH2 0x2CE3 JUMPI INVALID JUMPDEST PUSH1 0x20 MUL PUSH1 0x20 ADD ADD MLOAD PUSH1 0x40 MLOAD PUSH1 0x24 ADD PUSH2 0x2CFD SWAP4 SWAP3 SWAP2 SWAP1 PUSH2 0x823F JUMP JUMPDEST PUSH1 0x40 DUP1 MLOAD PUSH1 0x1F NOT DUP2 DUP5 SUB ADD DUP2 MSTORE SWAP2 DUP2 MSTORE PUSH1 0x20 DUP3 ADD DUP1 MLOAD PUSH1 0x1 PUSH1 0x1 PUSH1 0xE0 SHL SUB AND PUSH1 0x1 PUSH1 0x1 PUSH1 0xE0 SHL SUB NOT SWAP1 SWAP5 AND SWAP4 SWAP1 SWAP4 OR SWAP1 SWAP3 MSTORE SWAP1 MLOAD PUSH2 0x2D3B SWAP2 SWAP1 PUSH2 0x7D72 JUMP JUMPDEST PUSH1 0x0 PUSH1 0x40 MLOAD DUP1 DUP4 SUB DUP2 DUP7 DUP7 STATICCALL SWAP3 POP POP POP RETURNDATASIZE DUP1 PUSH1 0x0 DUP2 EQ PUSH2 0x2D77 JUMPI PUSH1 0x40 MLOAD SWAP2 POP PUSH1 0x1F NOT PUSH1 0x3F RETURNDATASIZE ADD AND DUP3 ADD PUSH1 0x40 MSTORE RETURNDATASIZE DUP3 MSTORE RETURNDATASIZE PUSH1 0x0 PUSH1 0x20 DUP5 ADD RETURNDATACOPY PUSH2 0x2D7C JUMP JUMPDEST PUSH1 0x60 SWAP2 POP JUMPDEST POP SWAP2 POP SWAP2 POP PUSH1 0x0 DUP3 ISZERO PUSH2 0x2DA0 JUMPI DUP2 DUP1 PUSH1 0x20 ADD SWAP1 MLOAD DUP2 ADD SWAP1 PUSH2 0x2D9D SWAP2 SWAP1 PUSH2 0x76EC JUMP JUMPDEST SWAP1 POP JUMPDEST DUP1 DUP7 DUP6 DUP2 MLOAD DUP2 LT PUSH2 0x2DAD JUMPI INVALID JUMPDEST PUSH1 0x20 MUL PUSH1 0x20 ADD ADD DUP2 DUP2 MSTORE POP POP DUP6 DUP5 DUP2 MLOAD DUP2 LT PUSH2 0x2DC5 JUMPI INVALID JUMPDEST PUSH1 0x20 MUL PUSH1 0x20 ADD ADD MLOAD PUSH1 0x0 EQ ISZERO PUSH2 0x2DDD JUMPI POP POP POP PUSH2 0x158C JUMP JUMPDEST POP POP POP PUSH1 0x1 ADD PUSH2 0x2CB2 JUMP JUMPDEST DUP1 MLOAD PUSH1 0x60 SWAP1 DUP6 SWAP1 DUP1 PUSH1 0x1 PUSH1 0x1 PUSH1 0x40 SHL SUB DUP2 GT DUP1 ISZERO PUSH2 0x2E05 JUMPI PUSH1 0x0 DUP1 REVERT JUMPDEST POP PUSH1 0x40 MLOAD SWAP1 DUP1 DUP3 MSTORE DUP1 PUSH1 0x20 MUL PUSH1 0x20 ADD DUP3 ADD PUSH1 0x40 MSTORE DUP1 ISZERO PUSH2 0x2E2F JUMPI DUP2 PUSH1 0x20 ADD PUSH1 0x20 DUP3 MUL DUP1 CALLDATASIZE DUP4 CALLDATACOPY ADD SWAP1 POP JUMPDEST POP PUSH1 0x40 MLOAD PUSH4 0xBCDED89 PUSH1 0xE2 SHL DUP2 MSTORE SWAP1 SWAP4 POP PUSH1 0x1 PUSH1 0x1 PUSH1 0xA0 SHL SUB DUP4 AND SWAP1 PUSH4 0x2F37B624 SWAP1 PUSH2 0x2E5F SWAP1 DUP10 SWAP1 PUSH1 0x4 ADD PUSH2 0x7D8E JUMP JUMPDEST PUSH1 0x20 PUSH1 0x40 MLOAD DUP1 DUP4 SUB DUP2 DUP7 DUP1 EXTCODESIZE ISZERO DUP1 ISZERO PUSH2 0x2E77 JUMPI PUSH1 0x0 DUP1 REVERT JUMPDEST POP GAS STATICCALL ISZERO DUP1 ISZERO PUSH2 0x2E8B JUMPI RETURNDATASIZE PUSH1 0x0 DUP1 RETURNDATACOPY RETURNDATASIZE PUSH1 0x0 REVERT JUMPDEST POP POP POP POP PUSH1 0x40 MLOAD RETURNDATASIZE PUSH1 0x1F NOT PUSH1 0x1F DUP3 ADD AND DUP3 ADD DUP1 PUSH1 0x40 MSTORE POP DUP2 ADD SWAP1 PUSH2 0x2EAF SWAP2 SWAP1 PUSH2 0x76CC JUMP JUMPDEST ISZERO DUP1 PUSH2 0x2F34 JUMPI POP PUSH1 0x40 MLOAD PUSH4 0xBCDED89 PUSH1 0xE2 SHL DUP2 MSTORE PUSH1 0x1 PUSH1 0x1 PUSH1 0xA0 SHL SUB DUP4 AND SWAP1 PUSH4 0x2F37B624 SWAP1 PUSH2 0x2EE2 SWAP1 DUP9 SWAP1 PUSH1 0x4 ADD PUSH2 0x7D8E JUMP JUMPDEST PUSH1 0x20 PUSH1 0x40 MLOAD DUP1 DUP4 SUB DUP2 DUP7 DUP1 EXTCODESIZE ISZERO DUP1 ISZERO PUSH2 0x2EFA JUMPI PUSH1 0x0 DUP1 REVERT JUMPDEST POP GAS STATICCALL ISZERO DUP1 ISZERO PUSH2 0x2F0E JUMPI RETURNDATASIZE PUSH1 0x0 DUP1 RETURNDATACOPY RETURNDATASIZE PUSH1 0x0 REVERT JUMPDEST POP POP POP POP PUSH1 0x40 MLOAD RETURNDATASIZE PUSH1 0x1F NOT PUSH1 0x1F DUP3 ADD AND DUP3 ADD DUP1 PUSH1 0x40 MSTORE POP DUP2 ADD SWAP1 PUSH2 0x2F32 SWAP2 SWAP1 PUSH2 0x76CC JUMP JUMPDEST ISZERO JUMPDEST ISZERO PUSH2 0x2F40 JUMPI POP POP PUSH2 0xF45 JUMP JUMPDEST PUSH2 0x2F48 PUSH2 0x6B63 JUMP JUMPDEST PUSH1 0x40 MLOAD PUSH4 0xF8B2CB4F PUSH1 0xE0 SHL DUP2 MSTORE PUSH1 0x1 PUSH1 0x1 PUSH1 0xA0 SHL SUB DUP5 AND SWAP1 PUSH4 0xF8B2CB4F SWAP1 PUSH2 0x2F74 SWAP1 DUP11 SWAP1 PUSH1 0x4 ADD PUSH2 0x7D8E JUMP JUMPDEST PUSH1 0x20 PUSH1 0x40 MLOAD DUP1 DUP4 SUB DUP2 DUP7 DUP1 EXTCODESIZE ISZERO DUP1 ISZERO PUSH2 0x2F8C JUMPI PUSH1 0x0 DUP1 REVERT JUMPDEST POP GAS STATICCALL ISZERO DUP1 ISZERO PUSH2 0x2FA0 JUMPI RETURNDATASIZE PUSH1 0x0 DUP1 RETURNDATACOPY RETURNDATASIZE PUSH1 0x0 REVERT JUMPDEST POP POP POP POP PUSH1 0x40 MLOAD RETURNDATASIZE PUSH1 0x1F NOT PUSH1 0x1F DUP3 ADD AND DUP3 ADD DUP1 PUSH1 0x40 MSTORE POP DUP2 ADD SWAP1 PUSH2 0x2FC4 SWAP2 SWAP1 PUSH2 0x76EC JUMP JUMPDEST DUP2 MSTORE PUSH1 0x40 MLOAD PUSH4 0xF8B2CB4F PUSH1 0xE0 SHL DUP2 MSTORE PUSH1 0x1 PUSH1 0x1 PUSH1 0xA0 SHL SUB DUP5 AND SWAP1 PUSH4 0xF8B2CB4F SWAP1 PUSH2 0x2FF2 SWAP1 DUP10 SWAP1 PUSH1 0x4 ADD PUSH2 0x7D8E JUMP JUMPDEST PUSH1 0x20 PUSH1 0x40 MLOAD DUP1 DUP4 SUB DUP2 DUP7 DUP1 EXTCODESIZE ISZERO DUP1 ISZERO PUSH2 0x300A JUMPI PUSH1 0x0 DUP1 REVERT JUMPDEST POP GAS STATICCALL ISZERO DUP1 ISZERO PUSH2 0x301E JUMPI RETURNDATASIZE PUSH1 0x0 DUP1 RETURNDATACOPY RETURNDATASIZE PUSH1 0x0 REVERT JUMPDEST POP POP POP POP PUSH1 0x40 MLOAD RETURNDATASIZE PUSH1 0x1F NOT PUSH1 0x1F DUP3 ADD AND DUP3 ADD DUP1 PUSH1 0x40 MSTORE POP DUP2 ADD SWAP1 PUSH2 0x3042 SWAP2 SWAP1 PUSH2 0x76EC JUMP JUMPDEST PUSH1 0x20 DUP3 ADD MSTORE PUSH1 0x40 MLOAD PUSH4 0x4A46C673 PUSH1 0xE1 SHL DUP2 MSTORE PUSH1 0x1 PUSH1 0x1 PUSH1 0xA0 SHL SUB DUP5 AND SWAP1 PUSH4 0x948D8CE6 SWAP1 PUSH2 0x3073 SWAP1 DUP11 SWAP1 PUSH1 0x4 ADD PUSH2 0x7D8E JUMP JUMPDEST PUSH1 0x20 PUSH1 0x40 MLOAD DUP1 DUP4 SUB DUP2 DUP7 DUP1 EXTCODESIZE ISZERO DUP1 ISZERO PUSH2 0x308B JUMPI PUSH1 0x0 DUP1 REVERT JUMPDEST POP GAS STATICCALL ISZERO DUP1 ISZERO PUSH2 0x309F JUMPI RETURNDATASIZE PUSH1 0x0 DUP1 RETURNDATACOPY RETURNDATASIZE PUSH1 0x0 REVERT JUMPDEST POP POP POP POP PUSH1 0x40 MLOAD RETURNDATASIZE PUSH1 0x1F NOT PUSH1 0x1F DUP3 ADD AND DUP3 ADD DUP1 PUSH1 0x40 MSTORE POP DUP2 ADD SWAP1 PUSH2 0x30C3 SWAP2 SWAP1 PUSH2 0x76EC JUMP JUMPDEST PUSH1 0x40 DUP1 DUP4 ADD SWAP2 SWAP1 SWAP2 MSTORE MLOAD PUSH4 0x4A46C673 PUSH1 0xE1 SHL DUP2 MSTORE PUSH1 0x1 PUSH1 0x1 PUSH1 0xA0 SHL SUB DUP5 AND SWAP1 PUSH4 0x948D8CE6 SWAP1 PUSH2 0x30F6 SWAP1 DUP10 SWAP1 PUSH1 0x4 ADD PUSH2 0x7D8E JUMP JUMPDEST PUSH1 0x20 PUSH1 0x40 MLOAD DUP1 DUP4 SUB DUP2 DUP7 DUP1 EXTCODESIZE ISZERO DUP1 ISZERO PUSH2 0x310E JUMPI PUSH1 0x0 DUP1 REVERT JUMPDEST POP GAS STATICCALL ISZERO DUP1 ISZERO PUSH2 0x3122 JUMPI RETURNDATASIZE PUSH1 0x0 DUP1 RETURNDATACOPY RETURNDATASIZE PUSH1 0x0 REVERT JUMPDEST POP POP POP POP PUSH1 0x40 MLOAD RETURNDATASIZE PUSH1 0x1F NOT PUSH1 0x1F DUP3 ADD AND DUP3 ADD DUP1 PUSH1 0x40 MSTORE POP DUP2 ADD SWAP1 PUSH2 0x3146 SWAP2 SWAP1 PUSH2 0x76EC JUMP JUMPDEST DUP2 PUSH1 0x60 ADD DUP2 DUP2 MSTORE POP POP DUP3 PUSH1 0x1 PUSH1 0x1 PUSH1 0xA0 SHL SUB AND PUSH4 0xD4CADF68 PUSH1 0x40 MLOAD DUP2 PUSH4 0xFFFFFFFF AND PUSH1 0xE0 SHL DUP2 MSTORE PUSH1 0x4 ADD PUSH1 0x20 PUSH1 0x40 MLOAD DUP1 DUP4 SUB DUP2 DUP7 DUP1 EXTCODESIZE ISZERO DUP1 ISZERO PUSH2 0x3188 JUMPI PUSH1 0x0 DUP1 REVERT JUMPDEST POP GAS STATICCALL ISZERO DUP1 ISZERO PUSH2 0x319C JUMPI RETURNDATASIZE PUSH1 0x0 DUP1 RETURNDATACOPY RETURNDATASIZE PUSH1 0x0 REVERT JUMPDEST POP POP POP POP PUSH1 0x40 MLOAD RETURNDATASIZE PUSH1 0x1F NOT PUSH1 0x1F DUP3 ADD AND DUP3 ADD DUP1 PUSH1 0x40 MSTORE POP DUP2 ADD SWAP1 PUSH2 0x31C0 SWAP2 SWAP1 PUSH2 0x76EC JUMP JUMPDEST PUSH1 0x80 DUP3 ADD MSTORE PUSH1 0x0 JUMPDEST DUP3 DUP2 LT ISZERO PUSH2 0xCEC JUMPI DUP2 MLOAD PUSH2 0x31E4 SWAP1 PUSH8 0x6F05B59D3B20000 PUSH2 0x5E1F JUMP JUMPDEST DUP7 DUP3 DUP2 MLOAD DUP2 LT PUSH2 0x31F0 JUMPI INVALID JUMPDEST PUSH1 0x20 MUL PUSH1 0x20 ADD ADD MLOAD GT ISZERO PUSH2 0x3203 JUMPI PUSH2 0xCEC JUMP JUMPDEST DUP4 PUSH1 0x1 PUSH1 0x1 PUSH1 0xA0 SHL SUB AND PUSH4 0xBA9530A6 PUSH3 0x493E0 DUP5 PUSH1 0x0 ADD MLOAD DUP6 PUSH1 0x40 ADD MLOAD DUP7 PUSH1 0x20 ADD MLOAD DUP8 PUSH1 0x60 ADD MLOAD DUP13 DUP9 DUP2 MLOAD DUP2 LT PUSH2 0x3236 JUMPI INVALID JUMPDEST PUSH1 0x20 MUL PUSH1 0x20 ADD ADD MLOAD DUP10 PUSH1 0x80 ADD MLOAD PUSH1 0x40 MLOAD DUP9 PUSH4 0xFFFFFFFF AND PUSH1 0xE0 SHL DUP2 MSTORE PUSH1 0x4 ADD PUSH2 0x3264 SWAP7 SWAP6 SWAP5 SWAP4 SWAP3 SWAP2 SWAP1 PUSH2 0x839F JUMP JUMPDEST PUSH1 0x20 PUSH1 0x40 MLOAD DUP1 DUP4 SUB DUP2 DUP8 DUP1 EXTCODESIZE ISZERO DUP1 ISZERO PUSH2 0x327C JUMPI PUSH1 0x0 DUP1 REVERT JUMPDEST POP DUP7 STATICCALL SWAP4 POP POP POP POP DUP1 ISZERO PUSH2 0x32AD JUMPI POP PUSH1 0x40 DUP1 MLOAD PUSH1 0x1F RETURNDATASIZE SWAP1 DUP2 ADD PUSH1 0x1F NOT AND DUP3 ADD SWAP1 SWAP3 MSTORE PUSH2 0x32AA SWAP2 DUP2 ADD SWAP1 PUSH2 0x76EC JUMP JUMPDEST PUSH1 0x1 JUMPDEST PUSH2 0x32DB JUMPI RETURNDATASIZE DUP1 DUP1 ISZERO PUSH2 0x2573 JUMPI PUSH1 0x40 MLOAD SWAP2 POP PUSH1 0x1F NOT PUSH1 0x3F RETURNDATASIZE ADD AND DUP3 ADD PUSH1 0x40 MSTORE RETURNDATASIZE DUP3 MSTORE RETURNDATASIZE PUSH1 0x0 PUSH1 0x20 DUP5 ADD RETURNDATACOPY PUSH2 0x2578 JUMP JUMPDEST DUP1 DUP7 DUP4 DUP2 MLOAD DUP2 LT PUSH2 0x32E8 JUMPI INVALID JUMPDEST PUSH1 0x20 MUL PUSH1 0x20 ADD ADD DUP2 DUP2 MSTORE POP POP DUP6 DUP3 DUP2 MLOAD DUP2 LT PUSH2 0x3300 JUMPI INVALID JUMPDEST PUSH1 0x20 MUL PUSH1 0x20 ADD ADD MLOAD PUSH1 0x0 EQ ISZERO PUSH2 0x3316 JUMPI POP PUSH2 0xCEC JUMP JUMPDEST POP PUSH1 0x1 ADD PUSH2 0x31C8 JUMP JUMPDEST PUSH1 0x0 PUSH1 0x60 DUP1 PUSH2 0x332E DUP6 DUP8 PUSH2 0x5470 JUMP JUMPDEST PUSH2 0x3339 DUP8 DUP8 DUP8 PUSH2 0x627C JUMP JUMPDEST SWAP3 POP DUP3 PUSH2 0x3345 JUMPI PUSH2 0x8F1 JUMP JUMPDEST PUSH1 0x40 MLOAD PUSH4 0x276FDAD9 PUSH1 0xE1 SHL DUP2 MSTORE ADDRESS SWAP1 PUSH4 0x4EDFB5B2 SWAP1 PUSH2 0x336E SWAP1 DUP11 SWAP1 DUP8 SWAP1 DUP12 SWAP1 DUP12 SWAP1 PUSH1 0x4 ADD PUSH2 0x8322 JUMP JUMPDEST PUSH1 0x0 PUSH1 0x40 MLOAD DUP1 DUP4 SUB DUP2 DUP7 DUP1 EXTCODESIZE ISZERO DUP1 ISZERO PUSH2 0x3386 JUMPI PUSH1 0x0 DUP1 REVERT JUMPDEST POP GAS STATICCALL ISZERO DUP1 ISZERO PUSH2 0x339A JUMPI RETURNDATASIZE PUSH1 0x0 DUP1 RETURNDATACOPY RETURNDATASIZE PUSH1 0x0 REVERT JUMPDEST POP POP POP POP PUSH1 0x40 MLOAD RETURNDATASIZE PUSH1 0x0 DUP3 RETURNDATACOPY PUSH1 0x1F RETURNDATASIZE SWAP1 DUP2 ADD PUSH1 0x1F NOT AND DUP3 ADD PUSH1 0x40 MSTORE PUSH2 0x33C2 SWAP2 SWAP1 DUP2 ADD SWAP1 PUSH2 0x7704 JUMP JUMPDEST DUP8 PUSH1 0x80 ADD DUP2 SWAP1 MSTORE POP DUP7 PUSH1 0x80 ADD MLOAD SWAP2 POP PUSH2 0x3439 PUSH1 0x40 MLOAD DUP1 PUSH1 0x60 ADD PUSH1 0x40 MSTORE DUP1 DUP8 DUP11 PUSH1 0x40 MLOAD PUSH1 0x20 ADD PUSH2 0x33F2 SWAP3 SWAP2 SWAP1 PUSH2 0x802F JUMP JUMPDEST PUSH1 0x40 MLOAD PUSH1 0x20 DUP2 DUP4 SUB SUB DUP2 MSTORE SWAP1 PUSH1 0x40 MSTORE DUP2 MSTORE PUSH1 0x20 ADD DUP9 DUP11 PUSH1 0x40 MLOAD PUSH1 0x20 ADD PUSH2 0x3419 SWAP3 SWAP2 SWAP1 PUSH2 0x802F JUMP JUMPDEST PUSH1 0x40 MLOAD PUSH1 0x20 DUP2 DUP4 SUB SUB DUP2 MSTORE SWAP1 PUSH1 0x40 MSTORE DUP2 MSTORE PUSH1 0x20 ADD PUSH2 0x63E3 DUP2 MSTORE POP DUP6 PUSH2 0x5ACD JUMP JUMPDEST SWAP1 POP SWAP5 POP SWAP5 POP SWAP5 SWAP2 POP POP JUMP JUMPDEST PUSH1 0x60 DUP1 PUSH1 0x0 PUSH1 0x0 NOT SWAP1 POP DUP5 MLOAD PUSH1 0x1 PUSH1 0x1 PUSH1 0x40 SHL SUB DUP2 GT DUP1 ISZERO PUSH2 0x3466 JUMPI PUSH1 0x0 DUP1 REVERT JUMPDEST POP PUSH1 0x40 MLOAD SWAP1 DUP1 DUP3 MSTORE DUP1 PUSH1 0x20 MUL PUSH1 0x20 ADD DUP3 ADD PUSH1 0x40 MSTORE DUP1 ISZERO PUSH2 0x34A0 JUMPI DUP2 PUSH1 0x20 ADD JUMPDEST PUSH2 0x348D PUSH2 0x6B49 JUMP JUMPDEST DUP2 MSTORE PUSH1 0x20 ADD SWAP1 PUSH1 0x1 SWAP1 SUB SWAP1 DUP2 PUSH2 0x3485 JUMPI SWAP1 POP JUMPDEST POP SWAP2 POP PUSH1 0x0 JUMPDEST DUP6 MLOAD DUP2 EQ PUSH2 0x35F6 JUMPI PUSH1 0x60 DUP7 DUP3 DUP2 MLOAD DUP2 LT PUSH2 0x34BC JUMPI INVALID JUMPDEST PUSH1 0x20 MUL PUSH1 0x20 ADD ADD MLOAD PUSH1 0x20 ADD MLOAD SWAP1 POP PUSH2 0x34E3 PUSH1 0x20 DUP3 MLOAD SUB DUP8 DUP4 PUSH2 0x5E03 SWAP1 SWAP3 SWAP2 SWAP1 PUSH4 0xFFFFFFFF AND JUMP JUMPDEST PUSH1 0x0 PUSH1 0x60 DUP9 DUP5 DUP2 MLOAD DUP2 LT PUSH2 0x34F3 JUMPI INVALID JUMPDEST PUSH1 0x20 MUL PUSH1 0x20 ADD ADD MLOAD PUSH1 0x0 ADD MLOAD PUSH1 0x1 PUSH1 0x1 PUSH1 0xA0 SHL SUB AND DUP10 DUP6 DUP2 MLOAD DUP2 LT PUSH2 0x3514 JUMPI INVALID JUMPDEST PUSH1 0x20 MUL PUSH1 0x20 ADD ADD MLOAD PUSH1 0x40 ADD MLOAD DUP5 PUSH1 0x40 MLOAD PUSH2 0x352E SWAP2 SWAP1 PUSH2 0x7D72 JUMP JUMPDEST PUSH1 0x0 PUSH1 0x40 MLOAD DUP1 DUP4 SUB DUP2 PUSH1 0x0 DUP8 DUP8 CALL SWAP3 POP POP POP RETURNDATASIZE DUP1 PUSH1 0x0 DUP2 EQ PUSH2 0x356C JUMPI PUSH1 0x40 MLOAD SWAP2 POP PUSH1 0x1F NOT PUSH1 0x3F RETURNDATASIZE ADD AND DUP3 ADD PUSH1 0x40 MSTORE RETURNDATASIZE DUP3 MSTORE RETURNDATASIZE PUSH1 0x0 PUSH1 0x20 DUP5 ADD RETURNDATACOPY PUSH2 0x3571 JUMP JUMPDEST PUSH1 0x60 SWAP2 POP JUMPDEST POP SWAP2 POP SWAP2 POP DUP2 ISZERO PUSH2 0x35E8 JUMPI DUP1 DUP7 DUP6 DUP2 MLOAD DUP2 LT PUSH2 0x3589 JUMPI INVALID JUMPDEST PUSH1 0x20 MUL PUSH1 0x20 ADD ADD MLOAD PUSH1 0x20 ADD DUP2 SWAP1 MSTORE POP PUSH1 0x0 PUSH2 0x35B1 PUSH1 0x20 DUP4 MLOAD SUB DUP4 PUSH2 0x5E13 SWAP1 SWAP2 SWAP1 PUSH4 0xFFFFFFFF AND JUMP JUMPDEST DUP8 DUP7 DUP2 MLOAD DUP2 LT PUSH2 0x35BD JUMPI INVALID JUMPDEST PUSH1 0x20 MUL PUSH1 0x20 ADD ADD MLOAD PUSH1 0x0 ADD DUP2 DUP2 MSTORE POP SWAP1 POP PUSH1 0x0 DUP2 GT DUP1 ISZERO PUSH2 0x35DD JUMPI POP DUP6 DUP2 LT JUMPDEST ISZERO PUSH2 0x35E6 JUMPI DUP1 SWAP6 POP JUMPDEST POP JUMPDEST POP POP POP DUP1 PUSH1 0x1 ADD SWAP1 POP PUSH2 0x34A6 JUMP JUMPDEST POP PUSH1 0x0 NOT DUP2 EQ ISZERO PUSH2 0x3607 JUMPI POP PUSH2 0x793 JUMP JUMPDEST DUP6 MLOAD PUSH1 0x1 PUSH1 0x1 PUSH1 0x40 SHL SUB DUP2 GT DUP1 ISZERO PUSH2 0x361E JUMPI PUSH1 0x0 DUP1 REVERT JUMPDEST POP PUSH1 0x40 MLOAD SWAP1 DUP1 DUP3 MSTORE DUP1 PUSH1 0x20 MUL PUSH1 0x20 ADD DUP3 ADD PUSH1 0x40 MSTORE DUP1 ISZERO PUSH2 0x3658 JUMPI DUP2 PUSH1 0x20 ADD JUMPDEST PUSH2 0x3645 PUSH2 0x6B49 JUMP JUMPDEST DUP2 MSTORE PUSH1 0x20 ADD SWAP1 PUSH1 0x1 SWAP1 SUB SWAP1 DUP2 PUSH2 0x363D JUMPI SWAP1 POP JUMPDEST POP SWAP3 POP PUSH1 0x0 JUMPDEST DUP7 MLOAD DUP2 EQ PUSH2 0x790 JUMPI PUSH1 0x60 DUP8 DUP3 DUP2 MLOAD DUP2 LT PUSH2 0x3674 JUMPI INVALID JUMPDEST PUSH1 0x20 MUL PUSH1 0x20 ADD ADD MLOAD PUSH1 0x20 ADD MLOAD SWAP1 POP PUSH2 0x369B PUSH1 0x20 DUP3 MLOAD SUB DUP5 DUP4 PUSH2 0x5E03 SWAP1 SWAP3 SWAP2 SWAP1 PUSH4 0xFFFFFFFF AND JUMP JUMPDEST PUSH1 0x0 PUSH1 0x60 DUP10 DUP5 DUP2 MLOAD DUP2 LT PUSH2 0x36AB JUMPI INVALID JUMPDEST PUSH1 0x20 MUL PUSH1 0x20 ADD ADD MLOAD PUSH1 0x0 ADD MLOAD PUSH1 0x1 PUSH1 0x1 PUSH1 0xA0 SHL SUB AND DUP11 DUP6 DUP2 MLOAD DUP2 LT PUSH2 0x36CC JUMPI INVALID JUMPDEST PUSH1 0x20 MUL PUSH1 0x20 ADD ADD MLOAD PUSH1 0x40 ADD MLOAD DUP5 PUSH1 0x40 MLOAD PUSH2 0x36E6 SWAP2 SWAP1 PUSH2 0x7D72 JUMP JUMPDEST PUSH1 0x0 PUSH1 0x40 MLOAD DUP1 DUP4 SUB DUP2 PUSH1 0x0 DUP8 DUP8 CALL SWAP3 POP POP POP RETURNDATASIZE DUP1 PUSH1 0x0 DUP2 EQ PUSH2 0x3724 JUMPI PUSH1 0x40 MLOAD SWAP2 POP PUSH1 0x1F NOT PUSH1 0x3F RETURNDATASIZE ADD AND DUP3 ADD PUSH1 0x40 MSTORE RETURNDATASIZE DUP3 MSTORE RETURNDATASIZE PUSH1 0x0 PUSH1 0x20 DUP5 ADD RETURNDATACOPY PUSH2 0x3729 JUMP JUMPDEST PUSH1 0x60 SWAP2 POP JUMPDEST POP SWAP2 POP SWAP2 POP DUP2 ISZERO PUSH2 0x3780 JUMPI DUP1 DUP8 DUP6 DUP2 MLOAD DUP2 LT PUSH2 0x3741 JUMPI INVALID JUMPDEST PUSH1 0x20 MUL PUSH1 0x20 ADD ADD MLOAD PUSH1 0x20 ADD DUP2 SWAP1 MSTORE POP PUSH2 0x3767 PUSH1 0x20 DUP3 MLOAD SUB DUP3 PUSH2 0x5E13 SWAP1 SWAP2 SWAP1 PUSH4 0xFFFFFFFF AND JUMP JUMPDEST DUP8 DUP6 DUP2 MLOAD DUP2 LT PUSH2 0x3773 JUMPI INVALID JUMPDEST PUSH1 0x20 SWAP1 DUP2 MUL SWAP2 SWAP1 SWAP2 ADD ADD MLOAD MSTORE JUMPDEST POP POP POP DUP1 PUSH1 0x1 ADD SWAP1 POP PUSH2 0x365E JUMP JUMPDEST PUSH1 0x0 DUP1 DUP6 PUSH1 0x1 PUSH1 0x1 PUSH1 0xA0 SHL SUB AND PUSH4 0x901754D7 DUP7 DUP7 PUSH1 0x40 MLOAD DUP4 PUSH4 0xFFFFFFFF AND PUSH1 0xE0 SHL DUP2 MSTORE PUSH1 0x4 ADD PUSH2 0x37BF SWAP3 SWAP2 SWAP1 PUSH2 0x7DBB JUMP JUMPDEST PUSH1 0x20 PUSH1 0x40 MLOAD DUP1 DUP4 SUB DUP2 DUP7 DUP1 EXTCODESIZE ISZERO DUP1 ISZERO PUSH2 0x37D7 JUMPI PUSH1 0x0 DUP1 REVERT JUMPDEST POP GAS STATICCALL ISZERO DUP1 ISZERO PUSH2 0x37EB JUMPI RETURNDATASIZE PUSH1 0x0 DUP1 RETURNDATACOPY RETURNDATASIZE PUSH1 0x0 REVERT JUMPDEST POP POP POP POP PUSH1 0x40 MLOAD RETURNDATASIZE PUSH1 0x1F NOT PUSH1 0x1F DUP3 ADD AND DUP3 ADD DUP1 PUSH1 0x40 MSTORE POP DUP2 ADD SWAP1 PUSH2 0x380F SWAP2 SWAP1 PUSH2 0x7097 JUMP JUMPDEST SWAP1 POP PUSH1 0x1 PUSH1 0x1 PUSH1 0xA0 SHL SUB DUP2 AND PUSH2 0x3829 JUMPI PUSH1 0x0 SWAP2 POP POP PUSH2 0xF45 JUMP JUMPDEST PUSH1 0x0 PUSH1 0x1 PUSH1 0x1 PUSH1 0xA0 SHL SUB DUP7 AND ISZERO PUSH2 0x38BB JUMPI PUSH1 0x40 MLOAD PUSH4 0x70A08231 PUSH1 0xE0 SHL DUP2 MSTORE PUSH1 0x1 PUSH1 0x1 PUSH1 0xA0 SHL SUB DUP8 AND SWAP1 PUSH4 0x70A08231 SWAP1 PUSH2 0x3866 SWAP1 DUP6 SWAP1 PUSH1 0x4 ADD PUSH2 0x7D8E JUMP JUMPDEST PUSH1 0x20 PUSH1 0x40 MLOAD DUP1 DUP4 SUB DUP2 DUP7 DUP1 EXTCODESIZE ISZERO DUP1 ISZERO PUSH2 0x387E JUMPI PUSH1 0x0 DUP1 REVERT JUMPDEST POP GAS STATICCALL ISZERO DUP1 ISZERO PUSH2 0x3892 JUMPI RETURNDATASIZE PUSH1 0x0 DUP1 RETURNDATACOPY RETURNDATASIZE PUSH1 0x0 REVERT JUMPDEST POP POP POP POP PUSH1 0x40 MLOAD RETURNDATASIZE PUSH1 0x1F NOT PUSH1 0x1F DUP3 ADD AND DUP3 ADD DUP1 PUSH1 0x40 MSTORE POP DUP2 ADD SWAP1 PUSH2 0x38B6 SWAP2 SWAP1 PUSH2 0x76EC JUMP JUMPDEST PUSH2 0x38C7 JUMP JUMPDEST DUP2 PUSH1 0x1 PUSH1 0x1 PUSH1 0xA0 SHL SUB AND BALANCE JUMPDEST SWAP1 POP DUP4 DUP2 LT ISZERO PUSH2 0x38DC JUMPI PUSH1 0x0 SWAP3 POP POP POP PUSH2 0xF45 JUMP JUMPDEST PUSH1 0x40 MLOAD PUSH4 0x3C2803F PUSH1 0xE3 SHL DUP2 MSTORE PUSH1 0x1 PUSH1 0x1 PUSH1 0xA0 SHL SUB DUP4 AND SWAP1 PUSH4 0x1E1401F8 SWAP1 PUSH3 0x249F0 SWAP1 PUSH2 0x3911 SWAP1 DUP11 SWAP1 DUP11 SWAP1 DUP11 SWAP1 PUSH1 0x4 ADD PUSH2 0x7EB6 JUMP JUMPDEST PUSH1 0x20 PUSH1 0x40 MLOAD DUP1 DUP4 SUB DUP2 DUP8 DUP1 EXTCODESIZE ISZERO DUP1 ISZERO PUSH2 0x3929 JUMPI PUSH1 0x0 DUP1 REVERT JUMPDEST POP DUP7 STATICCALL SWAP4 POP POP POP POP DUP1 ISZERO PUSH2 0x395A JUMPI POP PUSH1 0x40 DUP1 MLOAD PUSH1 0x1F RETURNDATASIZE SWAP1 DUP2 ADD PUSH1 0x1F NOT AND DUP3 ADD SWAP1 SWAP3 MSTORE PUSH2 0x3957 SWAP2 DUP2 ADD SWAP1 PUSH2 0x76EC JUMP JUMPDEST PUSH1 0x1 JUMPDEST PUSH2 0x399A JUMPI RETURNDATASIZE DUP1 DUP1 ISZERO PUSH2 0x3988 JUMPI PUSH1 0x40 MLOAD SWAP2 POP PUSH1 0x1F NOT PUSH1 0x3F RETURNDATASIZE ADD AND DUP3 ADD PUSH1 0x40 MSTORE RETURNDATASIZE DUP3 MSTORE RETURNDATASIZE PUSH1 0x0 PUSH1 0x20 DUP5 ADD RETURNDATACOPY PUSH2 0x398D JUMP JUMPDEST PUSH1 0x60 SWAP2 POP JUMPDEST POP PUSH1 0x0 SWAP4 POP POP POP POP PUSH2 0xF45 JUMP JUMPDEST SWAP3 POP PUSH2 0xF45 SWAP2 POP POP JUMP JUMPDEST PUSH1 0x60 PUSH2 0x39B0 DUP4 DUP6 PUSH2 0x5470 JUMP JUMPDEST PUSH1 0x20 DUP6 ADD MLOAD PUSH1 0x40 DUP1 MLOAD PUSH1 0x2 DUP1 DUP3 MSTORE PUSH1 0x60 DUP3 DUP2 ADD SWAP1 SWAP4 MSTORE DUP2 PUSH1 0x20 ADD PUSH1 0x20 DUP3 MUL DUP1 CALLDATASIZE DUP4 CALLDATACOPY ADD SWAP1 POP POP SWAP1 POP DUP6 DUP2 PUSH1 0x0 DUP2 MLOAD DUP2 LT PUSH2 0x39E6 JUMPI INVALID JUMPDEST PUSH1 0x20 MUL PUSH1 0x20 ADD ADD SWAP1 PUSH1 0x1 PUSH1 0x1 PUSH1 0xA0 SHL SUB AND SWAP1 DUP2 PUSH1 0x1 PUSH1 0x1 PUSH1 0xA0 SHL SUB AND DUP2 MSTORE POP POP DUP5 DUP2 PUSH1 0x1 DUP2 MLOAD DUP2 LT PUSH2 0x3A14 JUMPI INVALID JUMPDEST PUSH1 0x1 PUSH1 0x1 PUSH1 0xA0 SHL SUB SWAP1 SWAP3 AND PUSH1 0x20 SWAP3 DUP4 MUL SWAP2 SWAP1 SWAP2 ADD SWAP1 SWAP2 ADD MSTORE DUP4 MLOAD DUP1 PUSH1 0x1 PUSH1 0x1 PUSH1 0x40 SHL SUB DUP2 GT DUP1 ISZERO PUSH2 0x3A44 JUMPI PUSH1 0x0 DUP1 REVERT JUMPDEST POP PUSH1 0x40 MLOAD SWAP1 DUP1 DUP3 MSTORE DUP1 PUSH1 0x20 MUL PUSH1 0x20 ADD DUP3 ADD PUSH1 0x40 MSTORE DUP1 ISZERO PUSH2 0x3A6E JUMPI DUP2 PUSH1 0x20 ADD PUSH1 0x20 DUP3 MUL DUP1 CALLDATASIZE DUP4 CALLDATACOPY ADD SWAP1 POP JUMPDEST POP SWAP4 POP PUSH2 0x3A79 PUSH2 0x6B22 JUMP JUMPDEST PUSH2 0x3A81 PUSH2 0x54AF JUMP JUMPDEST SWAP1 POP PUSH1 0x0 JUMPDEST DUP3 DUP2 LT ISZERO PUSH2 0xB15 JUMPI PUSH1 0x60 PUSH2 0x3AA0 DUP12 DUP10 DUP5 DUP2 MLOAD DUP2 LT PUSH2 0x9F7 JUMPI INVALID JUMPDEST PUSH1 0x40 MLOAD PUSH4 0x7C268337 PUSH1 0xE1 SHL DUP2 MSTORE SWAP1 SWAP2 POP PUSH1 0x1 PUSH1 0x1 PUSH1 0xA0 SHL SUB DUP8 AND SWAP1 PUSH4 0xF84D066E SWAP1 PUSH2 0x3AD6 SWAP1 PUSH1 0x1 SWAP1 DUP6 SWAP1 DUP11 SWAP1 DUP10 SWAP1 PUSH1 0x4 ADD PUSH2 0x8186 JUMP JUMPDEST PUSH1 0x0 PUSH1 0x40 MLOAD DUP1 DUP4 SUB DUP2 PUSH1 0x0 DUP8 DUP1 EXTCODESIZE ISZERO DUP1 ISZERO PUSH2 0x3AF0 JUMPI PUSH1 0x0 DUP1 REVERT JUMPDEST POP GAS CALL SWAP3 POP POP POP DUP1 ISZERO PUSH2 0x3B25 JUMPI POP PUSH1 0x40 MLOAD RETURNDATASIZE PUSH1 0x0 DUP3 RETURNDATACOPY PUSH1 0x1F RETURNDATASIZE SWAP1 DUP2 ADD PUSH1 0x1F NOT AND DUP3 ADD PUSH1 0x40 MSTORE PUSH2 0x3B22 SWAP2 SWAP1 DUP2 ADD SWAP1 PUSH2 0x75AE JUMP JUMPDEST PUSH1 0x1 JUMPDEST PUSH2 0x3B53 JUMPI RETURNDATASIZE DUP1 DUP1 ISZERO PUSH2 0xAB7 JUMPI PUSH1 0x40 MLOAD SWAP2 POP PUSH1 0x1F NOT PUSH1 0x3F RETURNDATASIZE ADD AND DUP3 ADD PUSH1 0x40 MSTORE RETURNDATASIZE DUP3 MSTORE RETURNDATASIZE PUSH1 0x0 PUSH1 0x20 DUP5 ADD RETURNDATACOPY PUSH2 0xABC JUMP JUMPDEST PUSH1 0x0 DUP2 PUSH1 0x0 DUP2 MLOAD DUP2 LT PUSH2 0x3B62 JUMPI INVALID JUMPDEST PUSH1 0x20 MUL PUSH1 0x20 ADD ADD MLOAD SWAP1 POP PUSH1 0x0 DUP2 SGT PUSH2 0x3B7C JUMPI POP POP POP PUSH2 0xB15 JUMP JUMPDEST DUP1 DUP10 DUP6 DUP2 MLOAD DUP2 LT PUSH2 0x3B89 JUMPI INVALID JUMPDEST PUSH1 0x20 MUL PUSH1 0x20 ADD ADD DUP2 DUP2 MSTORE POP POP POP POP POP PUSH1 0x1 ADD PUSH2 0x3A86 JUMP JUMPDEST DUP1 MLOAD PUSH1 0x60 SWAP1 DUP1 PUSH1 0x1 PUSH1 0x1 PUSH1 0x40 SHL SUB DUP2 GT DUP1 ISZERO PUSH2 0x3BBB JUMPI PUSH1 0x0 DUP1 REVERT JUMPDEST POP PUSH1 0x40 MLOAD SWAP1 DUP1 DUP3 MSTORE DUP1 PUSH1 0x20 MUL PUSH1 0x20 ADD DUP3 ADD PUSH1 0x40 MSTORE DUP1 ISZERO PUSH2 0x3BE5 JUMPI DUP2 PUSH1 0x20 ADD PUSH1 0x20 DUP3 MUL DUP1 CALLDATASIZE DUP4 CALLDATACOPY ADD SWAP1 POP JUMPDEST POP SWAP2 POP PUSH1 0x0 JUMPDEST DUP2 DUP2 LT ISZERO PUSH2 0x158C JUMPI DUP7 PUSH1 0x1 PUSH1 0x1 PUSH1 0xA0 SHL SUB AND PUSH4 0x343FBCDD PUSH3 0x61A80 DUP9 DUP9 DUP9 DUP7 DUP2 MLOAD DUP2 LT PUSH2 0x3C14 JUMPI INVALID JUMPDEST PUSH1 0x20 MUL PUSH1 0x20 ADD ADD MLOAD PUSH1 0x40 MLOAD DUP6 PUSH4 0xFFFFFFFF AND PUSH1 0xE0 SHL DUP2 MSTORE PUSH1 0x4 ADD PUSH2 0x3C3A SWAP4 SWAP3 SWAP2 SWAP1 PUSH2 0x7EB6 JUMP JUMPDEST PUSH1 0x20 PUSH1 0x40 MLOAD DUP1 DUP4 SUB DUP2 DUP8 DUP1 EXTCODESIZE ISZERO DUP1 ISZERO PUSH2 0x3C52 JUMPI PUSH1 0x0 DUP1 REVERT JUMPDEST POP DUP7 STATICCALL SWAP4 POP POP POP POP DUP1 ISZERO PUSH2 0x3C83 JUMPI POP PUSH1 0x40 DUP1 MLOAD PUSH1 0x1F RETURNDATASIZE SWAP1 DUP2 ADD PUSH1 0x1F NOT AND DUP3 ADD SWAP1 SWAP3 MSTORE PUSH2 0x3C80 SWAP2 DUP2 ADD SWAP1 PUSH2 0x76EC JUMP JUMPDEST PUSH1 0x1 JUMPDEST PUSH2 0x3CB1 JUMPI RETURNDATASIZE DUP1 DUP1 ISZERO PUSH2 0x153C JUMPI PUSH1 0x40 MLOAD SWAP2 POP PUSH1 0x1F NOT PUSH1 0x3F RETURNDATASIZE ADD AND DUP3 ADD PUSH1 0x40 MSTORE RETURNDATASIZE DUP3 MSTORE RETURNDATASIZE PUSH1 0x0 PUSH1 0x20 DUP5 ADD RETURNDATACOPY PUSH2 0x1541 JUMP JUMPDEST DUP1 DUP5 DUP4 DUP2 MLOAD DUP2 LT PUSH2 0x3CBE JUMPI INVALID JUMPDEST PUSH1 0x20 MUL PUSH1 0x20 ADD ADD DUP2 DUP2 MSTORE POP POP DUP4 DUP3 DUP2 MLOAD DUP2 LT PUSH2 0x3CD6 JUMPI INVALID JUMPDEST PUSH1 0x20 MUL PUSH1 0x20 ADD ADD MLOAD PUSH1 0x0 EQ ISZERO PUSH2 0x3CEC JUMPI POP PUSH2 0x158C JUMP JUMPDEST POP PUSH1 0x1 ADD PUSH2 0x3BEB JUMP JUMPDEST PUSH1 0x0 DUP1 PUSH1 0x60 PUSH2 0x3D04 DUP6 DUP8 PUSH2 0x5470 JUMP JUMPDEST DUP4 MLOAD DUP1 PUSH1 0x1 PUSH1 0x1 PUSH1 0x40 SHL SUB DUP2 GT DUP1 ISZERO PUSH2 0x3D1C JUMPI PUSH1 0x0 DUP1 REVERT JUMPDEST POP PUSH1 0x40 MLOAD SWAP1 DUP1 DUP3 MSTORE DUP1 PUSH1 0x20 MUL PUSH1 0x20 ADD DUP3 ADD PUSH1 0x40 MSTORE DUP1 ISZERO PUSH2 0x3D46 JUMPI DUP2 PUSH1 0x20 ADD PUSH1 0x20 DUP3 MUL DUP1 CALLDATASIZE DUP4 CALLDATACOPY ADD SWAP1 POP JUMPDEST POP SWAP2 POP PUSH2 0x3D55 DUP10 DUP10 DUP10 DUP10 PUSH2 0x64CA JUMP JUMPDEST SWAP5 POP SWAP3 POP PUSH1 0x1 PUSH1 0x1 PUSH1 0xA0 SHL SUB DUP4 AND PUSH2 0x3D6D JUMPI POP PUSH2 0x3E27 JUMP JUMPDEST PUSH1 0x0 JUMPDEST DUP2 DUP2 LT ISZERO PUSH2 0x3E24 JUMPI PUSH1 0x0 PUSH2 0x3DDE DUP10 DUP7 DUP9 PUSH1 0x40 MLOAD PUSH1 0x20 ADD PUSH2 0x3D92 SWAP4 SWAP3 SWAP2 SWAP1 PUSH2 0x7E5E JUMP JUMPDEST PUSH1 0x40 MLOAD PUSH1 0x20 DUP2 DUP4 SUB SUB DUP2 MSTORE SWAP1 PUSH1 0x40 MSTORE DUP10 DUP8 DUP10 PUSH1 0x40 MLOAD PUSH1 0x20 ADD PUSH2 0x3DB6 SWAP4 SWAP3 SWAP2 SWAP1 PUSH2 0x7E5E JUMP JUMPDEST PUSH1 0x40 MLOAD PUSH1 0x20 DUP2 DUP4 SUB SUB DUP2 MSTORE SWAP1 PUSH1 0x40 MSTORE DUP10 DUP6 DUP2 MLOAD DUP2 LT PUSH2 0x3DD1 JUMPI INVALID JUMPDEST PUSH1 0x20 MUL PUSH1 0x20 ADD ADD MLOAD PUSH2 0x661F JUMP JUMPDEST SWAP1 POP DUP1 DUP5 DUP4 DUP2 MLOAD DUP2 LT PUSH2 0x3DED JUMPI INVALID JUMPDEST PUSH1 0x20 MUL PUSH1 0x20 ADD ADD DUP2 DUP2 MSTORE POP POP DUP4 DUP3 DUP2 MLOAD DUP2 LT PUSH2 0x3E05 JUMPI INVALID JUMPDEST PUSH1 0x20 MUL PUSH1 0x20 ADD ADD MLOAD PUSH1 0x0 EQ ISZERO PUSH2 0x3E1B JUMPI POP PUSH2 0x3E24 JUMP JUMPDEST POP PUSH1 0x1 ADD PUSH2 0x3D70 JUMP JUMPDEST POP POP JUMPDEST SWAP6 POP SWAP6 POP SWAP6 SWAP3 POP POP POP JUMP JUMPDEST PUSH1 0x60 PUSH2 0x3E3E DUP4 DUP6 PUSH2 0x5470 JUMP JUMPDEST DUP2 MLOAD DUP1 PUSH1 0x1 PUSH1 0x1 PUSH1 0x40 SHL SUB DUP2 GT DUP1 ISZERO PUSH2 0x3E56 JUMPI PUSH1 0x0 DUP1 REVERT JUMPDEST POP PUSH1 0x40 MLOAD SWAP1 DUP1 DUP3 MSTORE DUP1 PUSH1 0x20 MUL PUSH1 0x20 ADD DUP3 ADD PUSH1 0x40 MSTORE DUP1 ISZERO PUSH2 0x3E80 JUMPI DUP2 PUSH1 0x20 ADD PUSH1 0x20 DUP3 MUL DUP1 CALLDATASIZE DUP4 CALLDATACOPY ADD SWAP1 POP JUMPDEST POP SWAP2 POP PUSH1 0x0 JUMPDEST DUP2 DUP2 LT ISZERO PUSH2 0x158C JUMPI DUP7 PUSH1 0x1 PUSH1 0x1 PUSH1 0xA0 SHL SUB AND PUSH4 0x144A2752 PUSH3 0xF4240 DUP8 DUP10 DUP9 DUP7 DUP2 MLOAD DUP2 LT PUSH2 0x3EAF JUMPI INVALID JUMPDEST PUSH1 0x20 MUL PUSH1 0x20 ADD ADD MLOAD PUSH1 0x40 MLOAD DUP6 PUSH4 0xFFFFFFFF AND PUSH1 0xE0 SHL DUP2 MSTORE PUSH1 0x4 ADD PUSH2 0x3ED5 SWAP4 SWAP3 SWAP2 SWAP1 PUSH2 0x7EB6 JUMP JUMPDEST PUSH1 0x20 PUSH1 0x40 MLOAD DUP1 DUP4 SUB DUP2 DUP8 DUP1 EXTCODESIZE ISZERO DUP1 ISZERO PUSH2 0x3EED JUMPI PUSH1 0x0 DUP1 REVERT JUMPDEST POP DUP7 STATICCALL SWAP4 POP POP POP POP DUP1 ISZERO PUSH2 0x3F1E JUMPI POP PUSH1 0x40 DUP1 MLOAD PUSH1 0x1F RETURNDATASIZE SWAP1 DUP2 ADD PUSH1 0x1F NOT AND DUP3 ADD SWAP1 SWAP3 MSTORE PUSH2 0x3F1B SWAP2 DUP2 ADD SWAP1 PUSH2 0x76EC JUMP JUMPDEST PUSH1 0x1 JUMPDEST PUSH2 0x3F4C JUMPI RETURNDATASIZE DUP1 DUP1 ISZERO PUSH2 0x153C JUMPI PUSH1 0x40 MLOAD SWAP2 POP PUSH1 0x1F NOT PUSH1 0x3F RETURNDATASIZE ADD AND DUP3 ADD PUSH1 0x40 MSTORE RETURNDATASIZE DUP3 MSTORE RETURNDATASIZE PUSH1 0x0 PUSH1 0x20 DUP5 ADD RETURNDATACOPY PUSH2 0x1541 JUMP JUMPDEST DUP1 DUP5 DUP4 DUP2 MLOAD DUP2 LT PUSH2 0x3F59 JUMPI INVALID JUMPDEST PUSH1 0x20 MUL PUSH1 0x20 ADD ADD DUP2 DUP2 MSTORE POP POP DUP4 DUP3 DUP2 MLOAD DUP2 LT PUSH2 0x3F71 JUMPI INVALID JUMPDEST PUSH1 0x20 MUL PUSH1 0x20 ADD ADD MLOAD PUSH1 0x0 EQ ISZERO PUSH2 0x3F87 JUMPI POP PUSH2 0x158C JUMP JUMPDEST POP PUSH1 0x1 ADD PUSH2 0x3E86 JUMP JUMPDEST PUSH1 0x0 PUSH1 0x60 PUSH2 0x3F9E DUP5 DUP7 PUSH2 0x5470 JUMP JUMPDEST DUP3 MLOAD DUP1 PUSH1 0x1 PUSH1 0x1 PUSH1 0x40 SHL SUB DUP2 GT DUP1 ISZERO PUSH2 0x3FB6 JUMPI PUSH1 0x0 DUP1 REVERT JUMPDEST POP PUSH1 0x40 MLOAD SWAP1 DUP1 DUP3 MSTORE DUP1 PUSH1 0x20 MUL PUSH1 0x20 ADD DUP3 ADD PUSH1 0x40 MSTORE DUP1 ISZERO PUSH2 0x3FE0 JUMPI DUP2 PUSH1 0x20 ADD PUSH1 0x20 DUP3 MUL DUP1 CALLDATASIZE DUP4 CALLDATACOPY ADD SWAP1 POP JUMPDEST POP SWAP2 POP PUSH1 0x0 JUMPDEST DUP2 DUP2 LT ISZERO PUSH2 0x4055 JUMPI PUSH1 0x0 PUSH2 0x400F DUP10 DUP10 DUP10 DUP10 DUP7 DUP2 MLOAD DUP2 LT PUSH2 0x4002 JUMPI INVALID JUMPDEST PUSH1 0x20 MUL PUSH1 0x20 ADD ADD MLOAD PUSH2 0x378E JUMP JUMPDEST SWAP1 POP DUP1 DUP5 DUP4 DUP2 MLOAD DUP2 LT PUSH2 0x401E JUMPI INVALID JUMPDEST PUSH1 0x20 MUL PUSH1 0x20 ADD ADD DUP2 DUP2 MSTORE POP POP DUP4 DUP3 DUP2 MLOAD DUP2 LT PUSH2 0x4036 JUMPI INVALID JUMPDEST PUSH1 0x20 MUL PUSH1 0x20 ADD ADD MLOAD PUSH1 0x0 EQ ISZERO PUSH2 0x404C JUMPI POP PUSH2 0x4055 JUMP JUMPDEST POP PUSH1 0x1 ADD PUSH2 0x3FE6 JUMP JUMPDEST POP PUSH1 0x40 MLOAD PUSH4 0x901754D7 PUSH1 0xE0 SHL DUP2 MSTORE PUSH1 0x1 PUSH1 0x1 PUSH1 0xA0 SHL SUB DUP9 AND SWAP1 PUSH4 0x901754D7 SWAP1 PUSH2 0x4084 SWAP1 DUP10 SWAP1 DUP10 SWAP1 PUSH1 0x4 ADD PUSH2 0x7DBB JUMP JUMPDEST PUSH1 0x20 PUSH1 0x40 MLOAD DUP1 DUP4 SUB DUP2 DUP7 DUP1 EXTCODESIZE ISZERO DUP1 ISZERO PUSH2 0x409C JUMPI PUSH1 0x0 DUP1 REVERT JUMPDEST POP GAS STATICCALL ISZERO DUP1 ISZERO PUSH2 0x40B0 JUMPI RETURNDATASIZE PUSH1 0x0 DUP1 RETURNDATACOPY RETURNDATASIZE PUSH1 0x0 REVERT JUMPDEST POP POP POP POP PUSH1 0x40 MLOAD RETURNDATASIZE PUSH1 0x1F NOT PUSH1 0x1F DUP3 ADD AND DUP3 ADD DUP1 PUSH1 0x40 MSTORE POP DUP2 ADD SWAP1 PUSH2 0x40D4 SWAP2 SWAP1 PUSH2 0x7097 JUMP JUMPDEST SWAP3 POP POP SWAP5 POP SWAP5 SWAP3 POP POP POP JUMP JUMPDEST PUSH1 0x40 DUP1 MLOAD PUSH1 0x60 DUP2 DUP2 ADD SWAP1 SWAP3 MSTORE PUSH2 0xFB3 SWAP1 DUP1 PUSH2 0x40FF DUP7 DUP10 PUSH1 0x80 DUP5 ADD PUSH2 0x7DBB JUMP JUMPDEST PUSH1 0x40 MLOAD PUSH1 0x20 DUP2 DUP4 SUB SUB DUP2 MSTORE SWAP1 PUSH1 0x40 MSTORE DUP2 MSTORE PUSH1 0x20 ADD DUP7 DUP9 PUSH1 0x40 MLOAD PUSH1 0x20 ADD PUSH2 0x4126 SWAP3 SWAP2 SWAP1 PUSH2 0x7DBB JUMP JUMPDEST PUSH1 0x40 MLOAD PUSH1 0x20 DUP2 DUP4 SUB SUB DUP2 MSTORE SWAP1 PUSH1 0x40 MSTORE DUP2 MSTORE PUSH1 0x20 ADD PUSH2 0x6711 DUP2 MSTORE POP DUP4 PUSH2 0x5ACD JUMP JUMPDEST PUSH1 0x40 DUP1 MLOAD PUSH1 0x60 DUP2 DUP2 ADD SWAP1 SWAP3 MSTORE PUSH2 0xFB3 SWAP1 DUP1 PUSH2 0x4165 DUP7 DUP10 PUSH1 0x80 DUP5 ADD PUSH2 0x7DBB JUMP JUMPDEST PUSH1 0x40 MLOAD PUSH1 0x20 DUP2 DUP4 SUB SUB DUP2 MSTORE SWAP1 PUSH1 0x40 MSTORE DUP2 MSTORE PUSH1 0x20 ADD DUP7 DUP9 PUSH1 0x40 MLOAD PUSH1 0x20 ADD PUSH2 0x418C SWAP3 SWAP2 SWAP1 PUSH2 0x7DBB JUMP JUMPDEST PUSH1 0x40 MLOAD PUSH1 0x20 DUP2 DUP4 SUB SUB DUP2 MSTORE SWAP1 PUSH1 0x40 MSTORE DUP2 MSTORE PUSH1 0x20 ADD PUSH2 0x6758 DUP2 MSTORE POP DUP4 PUSH2 0x5ACD JUMP JUMPDEST PUSH1 0x60 PUSH2 0x41B8 DUP4 DUP6 PUSH2 0x5470 JUMP JUMPDEST DUP2 MLOAD DUP1 PUSH1 0x1 PUSH1 0x1 PUSH1 0x40 SHL SUB DUP2 GT DUP1 ISZERO PUSH2 0x41D0 JUMPI PUSH1 0x0 DUP1 REVERT JUMPDEST POP PUSH1 0x40 MLOAD SWAP1 DUP1 DUP3 MSTORE DUP1 PUSH1 0x20 MUL PUSH1 0x20 ADD DUP3 ADD PUSH1 0x40 MSTORE DUP1 ISZERO PUSH2 0x41FA JUMPI DUP2 PUSH1 0x20 ADD PUSH1 0x20 DUP3 MUL DUP1 CALLDATASIZE DUP4 CALLDATACOPY ADD SWAP1 POP JUMPDEST POP SWAP2 POP PUSH1 0x0 PUSH1 0x1 PUSH1 0x1 PUSH1 0xA0 SHL SUB DUP7 AND ISZERO PUSH2 0x421D JUMPI PUSH2 0x4218 DUP8 DUP8 PUSH2 0x5570 JUMP JUMPDEST PUSH2 0x4220 JUMP JUMPDEST PUSH1 0x0 JUMPDEST SWAP1 POP PUSH1 0x0 PUSH1 0x1 PUSH1 0x1 PUSH1 0xA0 SHL SUB DUP7 AND ISZERO PUSH2 0x4242 JUMPI PUSH2 0x423D DUP9 DUP8 PUSH2 0x5570 JUMP JUMPDEST PUSH2 0x4245 JUMP JUMPDEST PUSH1 0x0 JUMPDEST SWAP1 POP PUSH1 0x0 JUMPDEST DUP4 DUP2 LT ISZERO PUSH2 0xCEC JUMPI PUSH1 0x1 PUSH1 0x1 PUSH1 0x1 PUSH1 0xA0 SHL SUB DUP9 AND PUSH2 0x429B JUMPI PUSH2 0x427A DUP5 PUSH4 0x95B68FE7 PUSH1 0xE0 SHL DUP10 DUP6 DUP2 MLOAD DUP2 LT PUSH2 0xBF0 JUMPI INVALID JUMPDEST DUP8 DUP5 DUP2 MLOAD DUP2 LT PUSH2 0x4286 JUMPI INVALID JUMPDEST PUSH1 0x20 MUL PUSH1 0x20 ADD ADD DUP2 SWAP4 POP DUP3 DUP2 MSTORE POP POP POP PUSH2 0x4335 JUMP JUMPDEST PUSH1 0x1 PUSH1 0x1 PUSH1 0xA0 SHL SUB DUP10 AND PUSH2 0x42C1 JUMPI PUSH2 0x427A DUP4 PUSH4 0xCD7724C3 PUSH1 0xE0 SHL DUP10 DUP6 DUP2 MLOAD DUP2 LT PUSH2 0xBF0 JUMPI INVALID JUMPDEST PUSH1 0x0 PUSH2 0x42DB DUP6 PUSH4 0x95B68FE7 PUSH1 0xE0 SHL DUP11 DUP7 DUP2 MLOAD DUP2 LT PUSH2 0xBF0 JUMPI INVALID JUMPDEST SWAP3 POP SWAP1 POP DUP1 ISZERO PUSH2 0x4318 JUMPI PUSH2 0x42F7 DUP5 PUSH4 0xCD7724C3 PUSH1 0xE0 SHL DUP4 PUSH2 0x55F6 JUMP JUMPDEST DUP9 DUP6 DUP2 MLOAD DUP2 LT PUSH2 0x4303 JUMPI INVALID JUMPDEST PUSH1 0x20 MUL PUSH1 0x20 ADD ADD DUP2 SWAP5 POP DUP3 DUP2 MSTORE POP POP POP PUSH2 0x4333 JUMP JUMPDEST PUSH1 0x0 DUP8 DUP5 DUP2 MLOAD DUP2 LT PUSH2 0x4326 JUMPI INVALID JUMPDEST PUSH1 0x20 MUL PUSH1 0x20 ADD ADD DUP2 DUP2 MSTORE POP POP JUMPDEST POP JUMPDEST DUP1 ISZERO DUP1 PUSH2 0x4355 JUMPI POP DUP6 DUP3 DUP2 MLOAD DUP2 LT PUSH2 0x4349 JUMPI INVALID JUMPDEST PUSH1 0x20 MUL PUSH1 0x20 ADD ADD MLOAD PUSH1 0x0 EQ JUMPDEST ISZERO PUSH2 0x4360 JUMPI POP PUSH2 0xCEC JUMP JUMPDEST POP PUSH1 0x1 ADD PUSH2 0x424A JUMP JUMPDEST DUP1 MLOAD PUSH1 0x60 SWAP1 DUP1 PUSH1 0x1 PUSH1 0x1 PUSH1 0x40 SHL SUB DUP2 GT DUP1 ISZERO PUSH2 0x4384 JUMPI PUSH1 0x0 DUP1 REVERT JUMPDEST POP PUSH1 0x40 MLOAD SWAP1 DUP1 DUP3 MSTORE DUP1 PUSH1 0x20 MUL PUSH1 0x20 ADD DUP3 ADD PUSH1 0x40 MSTORE DUP1 ISZERO PUSH2 0x43AE JUMPI DUP2 PUSH1 0x20 ADD PUSH1 0x20 DUP3 MUL DUP1 CALLDATASIZE DUP4 CALLDATACOPY ADD SWAP1 POP JUMPDEST POP SWAP2 POP PUSH1 0x0 JUMPDEST DUP2 DUP2 LT ISZERO PUSH2 0x1711 JUMPI DUP6 PUSH1 0x1 PUSH1 0x1 PUSH1 0xA0 SHL SUB AND PUSH4 0x1F00CA74 PUSH3 0x249F0 DUP7 DUP5 DUP2 MLOAD DUP2 LT PUSH2 0x43DB JUMPI INVALID JUMPDEST PUSH1 0x20 MUL PUSH1 0x20 ADD ADD MLOAD DUP9 PUSH1 0x40 MLOAD DUP5 PUSH4 0xFFFFFFFF AND PUSH1 0xE0 SHL DUP2 MSTORE PUSH1 0x4 ADD PUSH2 0x4401 SWAP3 SWAP2 SWAP1 PUSH2 0x835B JUMP JUMPDEST PUSH1 0x0 PUSH1 0x40 MLOAD DUP1 DUP4 SUB DUP2 DUP8 DUP1 EXTCODESIZE ISZERO DUP1 ISZERO PUSH2 0x4419 JUMPI PUSH1 0x0 DUP1 REVERT JUMPDEST POP DUP7 STATICCALL SWAP4 POP POP POP POP DUP1 ISZERO PUSH2 0x444F JUMPI POP PUSH1 0x40 MLOAD RETURNDATASIZE PUSH1 0x0 DUP3 RETURNDATACOPY PUSH1 0x1F RETURNDATASIZE SWAP1 DUP2 ADD PUSH1 0x1F NOT AND DUP3 ADD PUSH1 0x40 MSTORE PUSH2 0x444C SWAP2 SWAP1 DUP2 ADD SWAP1 PUSH2 0x769A JUMP JUMPDEST PUSH1 0x1 JUMPDEST PUSH2 0x447D JUMPI RETURNDATASIZE DUP1 DUP1 ISZERO PUSH2 0x16AA JUMPI PUSH1 0x40 MLOAD SWAP2 POP PUSH1 0x1F NOT PUSH1 0x3F RETURNDATASIZE ADD AND DUP3 ADD PUSH1 0x40 MSTORE RETURNDATASIZE DUP3 MSTORE RETURNDATASIZE PUSH1 0x0 PUSH1 0x20 DUP5 ADD RETURNDATACOPY PUSH2 0x16AF JUMP JUMPDEST DUP1 PUSH1 0x0 DUP2 MLOAD DUP2 LT PUSH2 0x448A JUMPI INVALID JUMPDEST PUSH1 0x20 MUL PUSH1 0x20 ADD ADD MLOAD DUP5 DUP4 DUP2 MLOAD DUP2 LT PUSH2 0x449E JUMPI INVALID JUMPDEST PUSH1 0x20 MUL PUSH1 0x20 ADD ADD DUP2 DUP2 MSTORE POP POP DUP4 DUP3 DUP2 MLOAD DUP2 LT PUSH2 0x44B6 JUMPI INVALID JUMPDEST PUSH1 0x20 MUL PUSH1 0x20 ADD ADD MLOAD PUSH1 0x0 EQ ISZERO PUSH2 0x44CC JUMPI POP PUSH2 0x1711 JUMP JUMPDEST POP PUSH1 0x1 ADD PUSH2 0x43B4 JUMP JUMPDEST PUSH1 0x60 PUSH2 0x44E1 DUP4 DUP6 PUSH2 0x5470 JUMP JUMPDEST DUP2 MLOAD DUP1 PUSH1 0x1 PUSH1 0x1 PUSH1 0x40 SHL SUB DUP2 GT DUP1 ISZERO PUSH2 0x44F9 JUMPI PUSH1 0x0 DUP1 REVERT JUMPDEST POP PUSH1 0x40 MLOAD SWAP1 DUP1 DUP3 MSTORE DUP1 PUSH1 0x20 MUL PUSH1 0x20 ADD DUP3 ADD PUSH1 0x40 MSTORE DUP1 ISZERO PUSH2 0x4523 JUMPI DUP2 PUSH1 0x20 ADD PUSH1 0x20 DUP3 MUL DUP1 CALLDATASIZE DUP4 CALLDATACOPY ADD SWAP1 POP JUMPDEST POP SWAP2 POP PUSH1 0x0 JUMPDEST DUP2 DUP2 LT ISZERO PUSH2 0x158C JUMPI DUP7 PUSH1 0x1 PUSH1 0x1 PUSH1 0xA0 SHL SUB AND PUSH4 0xFF1FD974 PUSH3 0xF4240 DUP9 DUP9 DUP9 DUP7 DUP2 MLOAD DUP2 LT PUSH2 0x4552 JUMPI INVALID JUMPDEST PUSH1 0x20 MUL PUSH1 0x20 ADD ADD MLOAD PUSH1 0x40 MLOAD DUP6 PUSH4 0xFFFFFFFF AND PUSH1 0xE0 SHL DUP2 MSTORE PUSH1 0x4 ADD PUSH2 0x4578 SWAP4 SWAP3 SWAP2 SWAP1 PUSH2 0x7EB6 JUMP JUMPDEST PUSH1 0x20 PUSH1 0x40 MLOAD DUP1 DUP4 SUB DUP2 DUP8 DUP1 EXTCODESIZE ISZERO DUP1 ISZERO PUSH2 0x4590 JUMPI PUSH1 0x0 DUP1 REVERT JUMPDEST POP DUP7 STATICCALL SWAP4 POP POP POP POP DUP1 ISZERO PUSH2 0x45C1 JUMPI POP PUSH1 0x40 DUP1 MLOAD PUSH1 0x1F RETURNDATASIZE SWAP1 DUP2 ADD PUSH1 0x1F NOT AND DUP3 ADD SWAP1 SWAP3 MSTORE PUSH2 0x45BE SWAP2 DUP2 ADD SWAP1 PUSH2 0x76EC JUMP JUMPDEST PUSH1 0x1 JUMPDEST PUSH2 0x45EF JUMPI RETURNDATASIZE DUP1 DUP1 ISZERO PUSH2 0x153C JUMPI PUSH1 0x40 MLOAD SWAP2 POP PUSH1 0x1F NOT PUSH1 0x3F RETURNDATASIZE ADD AND DUP3 ADD PUSH1 0x40 MSTORE RETURNDATASIZE DUP3 MSTORE RETURNDATASIZE PUSH1 0x0 PUSH1 0x20 DUP5 ADD RETURNDATACOPY PUSH2 0x1541 JUMP JUMPDEST DUP1 DUP5 DUP4 DUP2 MLOAD DUP2 LT PUSH2 0x45FC JUMPI INVALID JUMPDEST PUSH1 0x20 MUL PUSH1 0x20 ADD ADD DUP2 DUP2 MSTORE POP POP DUP4 DUP3 DUP2 MLOAD DUP2 LT PUSH2 0x4614 JUMPI INVALID JUMPDEST PUSH1 0x20 MUL PUSH1 0x20 ADD ADD MLOAD PUSH1 0x0 EQ ISZERO PUSH2 0x462A JUMPI POP PUSH2 0x158C JUMP JUMPDEST POP PUSH1 0x1 ADD PUSH2 0x4529 JUMP JUMPDEST PUSH1 0x0 PUSH1 0x60 DUP1 PUSH2 0x4642 DUP6 DUP8 PUSH2 0x5470 JUMP JUMPDEST PUSH2 0x464D DUP8 DUP8 DUP8 PUSH2 0x627C JUMP JUMPDEST SWAP3 POP DUP3 PUSH2 0x4659 JUMPI PUSH2 0x8F1 JUMP JUMPDEST PUSH1 0x40 MLOAD PUSH4 0x276FDAD9 PUSH1 0xE1 SHL DUP2 MSTORE ADDRESS SWAP1 PUSH4 0x4EDFB5B2 SWAP1 PUSH2 0x4682 SWAP1 DUP11 SWAP1 DUP8 SWAP1 DUP12 SWAP1 DUP12 SWAP1 PUSH1 0x4 ADD PUSH2 0x8322 JUMP JUMPDEST PUSH1 0x0 PUSH1 0x40 MLOAD DUP1 DUP4 SUB DUP2 DUP7 DUP1 EXTCODESIZE ISZERO DUP1 ISZERO PUSH2 0x469A JUMPI PUSH1 0x0 DUP1 REVERT JUMPDEST POP GAS STATICCALL ISZERO DUP1 ISZERO PUSH2 0x46AE JUMPI RETURNDATASIZE PUSH1 0x0 DUP1 RETURNDATACOPY RETURNDATASIZE PUSH1 0x0 REVERT JUMPDEST POP POP POP POP PUSH1 0x40 MLOAD RETURNDATASIZE PUSH1 0x0 DUP3 RETURNDATACOPY PUSH1 0x1F RETURNDATASIZE SWAP1 DUP2 ADD PUSH1 0x1F NOT AND DUP3 ADD PUSH1 0x40 MSTORE PUSH2 0x46D6 SWAP2 SWAP1 DUP2 ADD SWAP1 PUSH2 0x7704 JUMP JUMPDEST PUSH1 0x80 DUP9 ADD DUP2 SWAP1 MSTORE DUP5 MLOAD SWAP1 SWAP3 POP DUP1 PUSH1 0x1 PUSH1 0x1 PUSH1 0x40 SHL SUB DUP2 GT DUP1 ISZERO PUSH2 0x46F8 JUMPI PUSH1 0x0 DUP1 REVERT JUMPDEST POP PUSH1 0x40 MLOAD SWAP1 DUP1 DUP3 MSTORE DUP1 PUSH1 0x20 MUL PUSH1 0x20 ADD DUP3 ADD PUSH1 0x40 MSTORE DUP1 ISZERO PUSH2 0x4722 JUMPI DUP2 PUSH1 0x20 ADD PUSH1 0x20 DUP3 MUL DUP1 CALLDATASIZE DUP4 CALLDATACOPY ADD SWAP1 POP JUMPDEST POP SWAP2 POP PUSH1 0x0 JUMPDEST DUP2 DUP2 LT ISZERO PUSH2 0x480D JUMPI PUSH1 0x0 ADDRESS PUSH1 0x1 PUSH1 0x1 PUSH1 0xA0 SHL SUB AND PUSH4 0xF1ED7FA4 DUP12 DUP12 DUP12 DUP12 DUP8 DUP2 MLOAD DUP2 LT PUSH2 0x4750 JUMPI INVALID JUMPDEST PUSH1 0x20 MUL PUSH1 0x20 ADD ADD MLOAD PUSH1 0x40 MLOAD DUP6 PUSH4 0xFFFFFFFF AND PUSH1 0xE0 SHL DUP2 MSTORE PUSH1 0x4 ADD PUSH2 0x4777 SWAP5 SWAP4 SWAP3 SWAP2 SWAP1 PUSH2 0x82EC JUMP JUMPDEST PUSH1 0x20 PUSH1 0x40 MLOAD DUP1 DUP4 SUB DUP2 DUP7 DUP1 EXTCODESIZE ISZERO DUP1 ISZERO PUSH2 0x478F JUMPI PUSH1 0x0 DUP1 REVERT JUMPDEST POP GAS STATICCALL ISZERO DUP1 ISZERO PUSH2 0x47A3 JUMPI RETURNDATASIZE PUSH1 0x0 DUP1 RETURNDATACOPY RETURNDATASIZE PUSH1 0x0 REVERT JUMPDEST POP POP POP POP PUSH1 0x40 MLOAD RETURNDATASIZE PUSH1 0x1F NOT PUSH1 0x1F DUP3 ADD AND DUP3 ADD DUP1 PUSH1 0x40 MSTORE POP DUP2 ADD SWAP1 PUSH2 0x47C7 SWAP2 SWAP1 PUSH2 0x76EC JUMP JUMPDEST SWAP1 POP DUP1 DUP5 DUP4 DUP2 MLOAD DUP2 LT PUSH2 0x47D6 JUMPI INVALID JUMPDEST PUSH1 0x20 MUL PUSH1 0x20 ADD ADD DUP2 DUP2 MSTORE POP POP DUP4 DUP3 DUP2 MLOAD DUP2 LT PUSH2 0x47EE JUMPI INVALID JUMPDEST PUSH1 0x20 MUL PUSH1 0x20 ADD ADD MLOAD PUSH1 0x0 EQ ISZERO PUSH2 0x4804 JUMPI POP PUSH2 0x480D JUMP JUMPDEST POP PUSH1 0x1 ADD PUSH2 0x4728 JUMP JUMPDEST POP POP SWAP5 POP SWAP5 POP SWAP5 SWAP2 POP POP JUMP JUMPDEST PUSH1 0x0 DUP1 PUSH1 0x60 PUSH2 0x4828 DUP6 DUP8 PUSH2 0x5470 JUMP JUMPDEST PUSH2 0x4834 DUP9 DUP9 DUP9 DUP9 PUSH2 0x64CA JUMP JUMPDEST SWAP4 POP SWAP2 POP PUSH1 0x1 PUSH1 0x1 PUSH1 0xA0 SHL SUB DUP3 AND PUSH2 0x484B JUMPI PUSH2 0x3E27 JUMP JUMPDEST DUP4 MLOAD DUP1 PUSH1 0x1 PUSH1 0x1 PUSH1 0x40 SHL SUB DUP2 GT DUP1 ISZERO PUSH2 0x4863 JUMPI PUSH1 0x0 DUP1 REVERT JUMPDEST POP PUSH1 0x40 MLOAD SWAP1 DUP1 DUP3 MSTORE DUP1 PUSH1 0x20 MUL PUSH1 0x20 ADD DUP3 ADD PUSH1 0x40 MSTORE DUP1 ISZERO PUSH2 0x488D JUMPI DUP2 PUSH1 0x20 ADD PUSH1 0x20 DUP3 MUL DUP1 CALLDATASIZE DUP4 CALLDATACOPY ADD SWAP1 POP JUMPDEST POP PUSH1 0x40 DUP1 MLOAD PUSH1 0x60 DUP2 ADD SWAP1 SWAP2 MSTORE SWAP1 SWAP3 POP PUSH2 0x48FA SWAP1 DUP1 PUSH2 0x48B1 DUP10 DUP8 DUP10 ISZERO PUSH1 0x80 DUP6 ADD PUSH2 0x7E5E JUMP JUMPDEST PUSH1 0x40 MLOAD PUSH1 0x20 DUP2 DUP4 SUB SUB DUP2 MSTORE SWAP1 PUSH1 0x40 MSTORE DUP2 MSTORE PUSH1 0x20 ADD DUP10 DUP7 DUP9 PUSH1 0x40 MLOAD PUSH1 0x20 ADD PUSH2 0x48DA SWAP4 SWAP3 SWAP2 SWAP1 PUSH2 0x7E5E JUMP JUMPDEST PUSH1 0x40 MLOAD PUSH1 0x20 DUP2 DUP4 SUB SUB DUP2 MSTORE SWAP1 PUSH1 0x40 MSTORE DUP2 MSTORE PUSH1 0x20 ADD PUSH2 0x661F DUP2 MSTORE POP DUP7 PUSH2 0x5ACD JUMP JUMPDEST SWAP2 POP POP SWAP6 POP SWAP6 POP SWAP6 SWAP3 POP POP POP JUMP JUMPDEST PUSH1 0x0 DUP1 PUSH1 0x60 PUSH2 0x4917 DUP6 DUP8 PUSH2 0x5470 JUMP JUMPDEST DUP4 MLOAD DUP1 PUSH1 0x1 PUSH1 0x1 PUSH1 0x40 SHL SUB DUP2 GT DUP1 ISZERO PUSH2 0x492F JUMPI PUSH1 0x0 DUP1 REVERT JUMPDEST POP PUSH1 0x40 MLOAD SWAP1 DUP1 DUP3 MSTORE DUP1 PUSH1 0x20 MUL PUSH1 0x20 ADD DUP3 ADD PUSH1 0x40 MSTORE DUP1 ISZERO PUSH2 0x4959 JUMPI DUP2 PUSH1 0x20 ADD PUSH1 0x20 DUP3 MUL DUP1 CALLDATASIZE DUP4 CALLDATACOPY ADD SWAP1 POP JUMPDEST POP DUP9 MLOAD PUSH1 0x40 MLOAD PUSH4 0x939D863 PUSH1 0xE1 SHL DUP2 MSTORE SWAP2 SWAP4 POP PUSH1 0x1 PUSH1 0x1 PUSH1 0xA0 SHL SUB AND SWAP1 PUSH4 0x1273B0C6 SWAP1 PUSH2 0x498C SWAP1 DUP11 SWAP1 DUP11 SWAP1 PUSH1 0x4 ADD PUSH2 0x7DBB JUMP JUMPDEST PUSH1 0x20 PUSH1 0x40 MLOAD DUP1 DUP4 SUB DUP2 DUP7 DUP1 EXTCODESIZE ISZERO DUP1 ISZERO PUSH2 0x49A4 JUMPI PUSH1 0x0 DUP1 REVERT JUMPDEST POP GAS STATICCALL ISZERO DUP1 ISZERO PUSH2 0x49B8 JUMPI RETURNDATASIZE PUSH1 0x0 DUP1 RETURNDATACOPY RETURNDATASIZE PUSH1 0x0 REVERT JUMPDEST POP POP POP POP PUSH1 0x40 MLOAD RETURNDATASIZE PUSH1 0x1F NOT PUSH1 0x1F DUP3 ADD AND DUP3 ADD DUP1 PUSH1 0x40 MSTORE POP DUP2 ADD SWAP1 PUSH2 0x49DC SWAP2 SWAP1 PUSH2 0x7097 JUMP JUMPDEST SWAP3 POP PUSH1 0x0 PUSH1 0x1 PUSH1 0x1 PUSH1 0xA0 SHL SUB DUP5 AND ISZERO PUSH2 0x49FA JUMPI POP PUSH1 0x1 SWAP4 POP DUP7 PUSH2 0x4A99 JUMP JUMPDEST DUP9 MLOAD PUSH1 0x40 MLOAD PUSH4 0x939D863 PUSH1 0xE1 SHL DUP2 MSTORE PUSH1 0x1 PUSH1 0x1 PUSH1 0xA0 SHL SUB SWAP1 SWAP2 AND SWAP1 PUSH4 0x1273B0C6 SWAP1 PUSH2 0x4A2B SWAP1 DUP11 SWAP1 DUP13 SWAP1 PUSH1 0x4 ADD PUSH2 0x7DBB JUMP JUMPDEST PUSH1 0x20 PUSH1 0x40 MLOAD DUP1 DUP4 SUB DUP2 DUP7 DUP1 EXTCODESIZE ISZERO DUP1 ISZERO PUSH2 0x4A43 JUMPI PUSH1 0x0 DUP1 REVERT JUMPDEST POP GAS STATICCALL ISZERO DUP1 ISZERO PUSH2 0x4A57 JUMPI RETURNDATASIZE PUSH1 0x0 DUP1 RETURNDATACOPY RETURNDATASIZE PUSH1 0x0 REVERT JUMPDEST POP POP POP POP PUSH1 0x40 MLOAD RETURNDATASIZE PUSH1 0x1F NOT PUSH1 0x1F DUP3 ADD AND DUP3 ADD DUP1 PUSH1 0x40 MSTORE POP DUP2 ADD SWAP1 PUSH2 0x4A7B SWAP2 SWAP1 PUSH2 0x7097 JUMP JUMPDEST SWAP4 POP PUSH1 0x1 PUSH1 0x1 PUSH1 0xA0 SHL SUB DUP5 AND PUSH2 0x4A92 JUMPI POP POP PUSH2 0x8F1 JUMP JUMPDEST POP PUSH1 0x0 SWAP4 POP DUP6 JUMPDEST DUP4 PUSH1 0x1 PUSH1 0x1 PUSH1 0xA0 SHL SUB AND PUSH4 0xDD58B41C PUSH1 0x40 MLOAD DUP2 PUSH4 0xFFFFFFFF AND PUSH1 0xE0 SHL DUP2 MSTORE PUSH1 0x4 ADD PUSH1 0x20 PUSH1 0x40 MLOAD DUP1 DUP4 SUB DUP2 DUP7 DUP1 EXTCODESIZE ISZERO DUP1 ISZERO PUSH2 0x4AD2 JUMPI PUSH1 0x0 DUP1 REVERT JUMPDEST POP GAS STATICCALL ISZERO DUP1 ISZERO PUSH2 0x4AE6 JUMPI RETURNDATASIZE PUSH1 0x0 DUP1 RETURNDATACOPY RETURNDATASIZE PUSH1 0x0 REVERT JUMPDEST POP POP POP POP PUSH1 0x40 MLOAD RETURNDATASIZE PUSH1 0x1F NOT PUSH1 0x1F DUP3 ADD AND DUP3 ADD DUP1 PUSH1 0x40 MSTORE POP DUP2 ADD SWAP1 PUSH2 0x4B0A SWAP2 SWAP1 PUSH2 0x76CC JUMP JUMPDEST PUSH2 0x4B15 JUMPI POP POP PUSH2 0x8F1 JUMP JUMPDEST PUSH2 0x4B8D PUSH1 0x40 MLOAD DUP1 PUSH1 0x60 ADD PUSH1 0x40 MSTORE DUP1 DUP10 DUP8 DUP6 DUP15 PUSH1 0x20 ADD MLOAD PUSH1 0x40 MLOAD PUSH1 0x20 ADD PUSH2 0x4B3E SWAP5 SWAP4 SWAP3 SWAP2 SWAP1 PUSH2 0x7DD5 JUMP JUMPDEST PUSH1 0x40 MLOAD PUSH1 0x20 DUP2 DUP4 SUB SUB DUP2 MSTORE SWAP1 PUSH1 0x40 MSTORE DUP2 MSTORE PUSH1 0x20 ADD DUP11 DUP8 DUP6 DUP15 PUSH1 0x20 ADD MLOAD PUSH1 0x40 MLOAD PUSH1 0x20 ADD PUSH2 0x4B6D SWAP5 SWAP4 SWAP3 SWAP2 SWAP1 PUSH2 0x7DD5 JUMP JUMPDEST PUSH1 0x40 MLOAD PUSH1 0x20 DUP2 DUP4 SUB SUB DUP2 MSTORE SWAP1 PUSH1 0x40 MSTORE DUP2 MSTORE PUSH1 0x20 ADD PUSH2 0x5CCA DUP2 MSTORE POP DUP8 PUSH2 0x5ACD JUMP JUMPDEST SWAP3 POP POP POP SWAP5 POP SWAP5 POP SWAP5 SWAP2 POP POP JUMP JUMPDEST DUP1 MLOAD PUSH1 0x60 SWAP1 DUP1 PUSH1 0x1 PUSH1 0x1 PUSH1 0x40 SHL SUB DUP2 GT DUP1 ISZERO PUSH2 0x4BB6 JUMPI PUSH1 0x0 DUP1 REVERT JUMPDEST POP PUSH1 0x40 MLOAD SWAP1 DUP1 DUP3 MSTORE DUP1 PUSH1 0x20 MUL PUSH1 0x20 ADD DUP3 ADD PUSH1 0x40 MSTORE DUP1 ISZERO PUSH2 0x4BE0 JUMPI DUP2 PUSH1 0x20 ADD PUSH1 0x20 DUP3 MUL DUP1 CALLDATASIZE DUP4 CALLDATACOPY ADD SWAP1 POP JUMPDEST POP SWAP2 POP PUSH1 0x0 JUMPDEST DUP2 DUP2 LT ISZERO PUSH2 0x158C JUMPI DUP7 PUSH1 0x1 PUSH1 0x1 PUSH1 0xA0 SHL SUB AND PUSH4 0x838E6A22 PUSH3 0x493E0 DUP9 DUP9 DUP9 DUP7 DUP2 MLOAD DUP2 LT PUSH2 0x4C0F JUMPI INVALID JUMPDEST PUSH1 0x20 MUL PUSH1 0x20 ADD ADD MLOAD PUSH1 0x40 MLOAD DUP6 PUSH4 0xFFFFFFFF AND PUSH1 0xE0 SHL DUP2 MSTORE PUSH1 0x4 ADD PUSH2 0x4C35 SWAP4 SWAP3 SWAP2 SWAP1 PUSH2 0x7EB6 JUMP JUMPDEST PUSH1 0x20 PUSH1 0x40 MLOAD DUP1 DUP4 SUB DUP2 DUP8 DUP1 EXTCODESIZE ISZERO DUP1 ISZERO PUSH2 0x4C4D JUMPI PUSH1 0x0 DUP1 REVERT JUMPDEST POP DUP7 STATICCALL SWAP4 POP POP POP POP DUP1 ISZERO PUSH2 0x4C7E JUMPI POP PUSH1 0x40 DUP1 MLOAD PUSH1 0x1F RETURNDATASIZE SWAP1 DUP2 ADD PUSH1 0x1F NOT AND DUP3 ADD SWAP1 SWAP3 MSTORE PUSH2 0x4C7B SWAP2 DUP2 ADD SWAP1 PUSH2 0x76EC JUMP JUMPDEST PUSH1 0x1 JUMPDEST PUSH2 0x4CAC JUMPI RETURNDATASIZE DUP1 DUP1 ISZERO PUSH2 0x153C JUMPI PUSH1 0x40 MLOAD SWAP2 POP PUSH1 0x1F NOT PUSH1 0x3F RETURNDATASIZE ADD AND DUP3 ADD PUSH1 0x40 MSTORE RETURNDATASIZE DUP3 MSTORE RETURNDATASIZE PUSH1 0x0 PUSH1 0x20 DUP5 ADD RETURNDATACOPY PUSH2 0x1541 JUMP JUMPDEST DUP1 DUP5 DUP4 DUP2 MLOAD DUP2 LT PUSH2 0x4CB9 JUMPI INVALID JUMPDEST PUSH1 0x20 MUL PUSH1 0x20 ADD ADD DUP2 DUP2 MSTORE POP POP POP PUSH1 0x1 ADD PUSH2 0x4BE6 JUMP JUMPDEST PUSH1 0x0 DUP5 PUSH1 0x80 ADD MLOAD MLOAD PUSH1 0x0 EQ ISZERO PUSH2 0x4CE6 JUMPI POP PUSH1 0x0 PUSH2 0xF45 JUMP JUMPDEST DUP5 PUSH1 0x40 ADD MLOAD PUSH1 0x1 PUSH1 0x1 PUSH1 0xA0 SHL SUB AND PUSH4 0x418436BC PUSH3 0x7A120 DUP8 PUSH1 0x60 ADD MLOAD PUSH1 0x1 PUSH1 0x1 PUSH1 0xA0 SHL SUB AND DUP8 PUSH1 0x1 PUSH1 0x1 PUSH1 0xA0 SHL SUB AND EQ PUSH2 0x4D20 JUMPI DUP7 PUSH2 0x4D36 JUMP JUMPDEST PUSH20 0xEEEEEEEEEEEEEEEEEEEEEEEEEEEEEEEEEEEEEEEE JUMPDEST DUP9 PUSH1 0x60 ADD MLOAD PUSH1 0x1 PUSH1 0x1 PUSH1 0xA0 SHL SUB AND DUP8 PUSH1 0x1 PUSH1 0x1 PUSH1 0xA0 SHL SUB AND EQ PUSH2 0x4D59 JUMPI DUP7 PUSH2 0x4D6F JUMP JUMPDEST PUSH20 0xEEEEEEEEEEEEEEEEEEEEEEEEEEEEEEEEEEEEEEEE JUMPDEST DUP7 PUSH1 0x0 DUP12 PUSH1 0x80 ADD MLOAD PUSH1 0x40 MLOAD DUP8 PUSH4 0xFFFFFFFF AND PUSH1 0xE0 SHL DUP2 MSTORE PUSH1 0x4 ADD PUSH2 0x4D97 SWAP6 SWAP5 SWAP4 SWAP3 SWAP2 SWAP1 PUSH2 0x7EDA JUMP JUMPDEST PUSH1 0x20 PUSH1 0x40 MLOAD DUP1 DUP4 SUB DUP2 DUP8 DUP1 EXTCODESIZE ISZERO DUP1 ISZERO PUSH2 0x4DAF JUMPI PUSH1 0x0 DUP1 REVERT JUMPDEST POP DUP7 STATICCALL SWAP4 POP POP POP POP DUP1 ISZERO PUSH2 0x4DE0 JUMPI POP PUSH1 0x40 DUP1 MLOAD PUSH1 0x1F RETURNDATASIZE SWAP1 DUP2 ADD PUSH1 0x1F NOT AND DUP3 ADD SWAP1 SWAP3 MSTORE PUSH2 0x4DDD SWAP2 DUP2 ADD SWAP1 PUSH2 0x76EC JUMP JUMPDEST PUSH1 0x1 JUMPDEST PUSH2 0x4E1E JUMPI RETURNDATASIZE DUP1 DUP1 ISZERO PUSH2 0x4E0E JUMPI PUSH1 0x40 MLOAD SWAP2 POP PUSH1 0x1F NOT PUSH1 0x3F RETURNDATASIZE ADD AND DUP3 ADD PUSH1 0x40 MSTORE RETURNDATASIZE DUP3 MSTORE RETURNDATASIZE PUSH1 0x0 PUSH1 0x20 DUP5 ADD RETURNDATACOPY PUSH2 0x4E13 JUMP JUMPDEST PUSH1 0x60 SWAP2 POP JUMPDEST POP PUSH1 0x0 SWAP2 POP POP PUSH2 0xF45 JUMP JUMPDEST PUSH1 0x0 PUSH2 0x4E29 DUP6 PUSH2 0x680D JUMP JUMPDEST PUSH1 0xFF AND SWAP1 POP PUSH1 0x0 PUSH2 0x4E39 DUP8 PUSH2 0x680D JUMP JUMPDEST PUSH1 0xFF AND SWAP1 POP PUSH8 0xDE0B6B3A7640000 DUP2 PUSH1 0xA EXP DUP4 PUSH1 0xA EXP DUP8 DUP7 MUL MUL DUP2 PUSH2 0x4E5A JUMPI INVALID JUMPDEST DIV DUP2 PUSH2 0x4E62 JUMPI INVALID JUMPDEST DIV SWAP4 POP POP POP POP PUSH2 0xF45 JUMP JUMPDEST PUSH1 0x0 PUSH1 0x60 PUSH2 0x4E7B DUP5 DUP7 PUSH2 0x5470 JUMP JUMPDEST DUP3 MLOAD DUP1 PUSH1 0x1 PUSH1 0x1 PUSH1 0x40 SHL SUB DUP2 GT DUP1 ISZERO PUSH2 0x4E93 JUMPI PUSH1 0x0 DUP1 REVERT JUMPDEST POP PUSH1 0x40 MLOAD SWAP1 DUP1 DUP3 MSTORE DUP1 PUSH1 0x20 MUL PUSH1 0x20 ADD DUP3 ADD PUSH1 0x40 MSTORE DUP1 ISZERO PUSH2 0x4EBD JUMPI DUP2 PUSH1 0x20 ADD PUSH1 0x20 DUP3 MUL DUP1 CALLDATASIZE DUP4 CALLDATACOPY ADD SWAP1 POP JUMPDEST POP SWAP2 POP PUSH2 0x4F28 PUSH1 0x40 MLOAD DUP1 PUSH1 0x60 ADD PUSH1 0x40 MSTORE DUP1 DUP10 DUP9 PUSH1 0x40 MLOAD PUSH1 0x20 ADD PUSH2 0x4EE1 SWAP3 SWAP2 SWAP1 PUSH2 0x7DBB JUMP JUMPDEST PUSH1 0x40 MLOAD PUSH1 0x20 DUP2 DUP4 SUB SUB DUP2 MSTORE SWAP1 PUSH1 0x40 MSTORE DUP2 MSTORE PUSH1 0x20 ADD DUP10 DUP10 PUSH1 0x40 MLOAD PUSH1 0x20 ADD PUSH2 0x4F08 SWAP3 SWAP2 SWAP1 PUSH2 0x7DBB JUMP JUMPDEST PUSH1 0x40 MLOAD PUSH1 0x20 DUP2 DUP4 SUB SUB DUP2 MSTORE SWAP1 PUSH1 0x40 MSTORE DUP2 MSTORE PUSH1 0x20 ADD PUSH2 0x6820 DUP2 MSTORE POP DUP6 PUSH2 0x5ACD JUMP JUMPDEST PUSH1 0x40 MLOAD PUSH4 0x901754D7 PUSH1 0xE0 SHL DUP2 MSTORE SWAP1 SWAP3 POP PUSH1 0x1 PUSH1 0x1 PUSH1 0xA0 SHL SUB DUP9 AND SWAP1 PUSH4 0x901754D7 SWAP1 PUSH2 0x4084 SWAP1 DUP10 SWAP1 DUP10 SWAP1 PUSH1 0x4 ADD PUSH2 0x7DBB JUMP JUMPDEST PUSH1 0x60 PUSH1 0x0 DUP4 PUSH1 0x1 PUSH1 0x1 PUSH1 0xA0 SHL SUB AND PUSH4 0xC45A0155 PUSH1 0x40 MLOAD DUP2 PUSH4 0xFFFFFFFF AND PUSH1 0xE0 SHL DUP2 MSTORE PUSH1 0x4 ADD PUSH1 0x20 PUSH1 0x40 MLOAD DUP1 DUP4 SUB DUP2 DUP7 DUP1 EXTCODESIZE ISZERO DUP1 ISZERO PUSH2 0x4F96 JUMPI PUSH1 0x0 DUP1 REVERT JUMPDEST POP GAS STATICCALL ISZERO DUP1 ISZERO PUSH2 0x4FAA JUMPI RETURNDATASIZE PUSH1 0x0 DUP1 RETURNDATACOPY RETURNDATASIZE PUSH1 0x0 REVERT JUMPDEST POP POP POP POP PUSH1 0x40 MLOAD RETURNDATASIZE PUSH1 0x1F NOT PUSH1 0x1F DUP3 ADD AND DUP3 ADD DUP1 PUSH1 0x40 MSTORE POP DUP2 ADD SWAP1 PUSH2 0x4FCE SWAP2 SWAP1 PUSH2 0x7097 JUMP JUMPDEST SWAP1 POP PUSH1 0x1 DUP4 MLOAD SUB PUSH1 0x1 PUSH1 0x1 PUSH1 0x40 SHL SUB DUP2 GT DUP1 ISZERO PUSH2 0x4FEA JUMPI PUSH1 0x0 DUP1 REVERT JUMPDEST POP PUSH1 0x40 MLOAD SWAP1 DUP1 DUP3 MSTORE DUP1 PUSH1 0x20 MUL PUSH1 0x20 ADD DUP3 ADD PUSH1 0x40 MSTORE DUP1 ISZERO PUSH2 0x5014 JUMPI DUP2 PUSH1 0x20 ADD PUSH1 0x20 DUP3 MUL DUP1 CALLDATASIZE DUP4 CALLDATACOPY ADD SWAP1 POP JUMPDEST POP SWAP2 POP PUSH1 0x0 JUMPDEST DUP3 MLOAD DUP2 LT ISZERO PUSH2 0x5235 JUMPI DUP2 PUSH1 0x1 PUSH1 0x1 PUSH1 0xA0 SHL SUB AND PUSH4 0x5B1DC86F PUSH3 0x249F0 DUP7 DUP5 DUP2 MLOAD DUP2 LT PUSH2 0x5042 JUMPI INVALID JUMPDEST PUSH1 0x20 MUL PUSH1 0x20 ADD ADD MLOAD DUP8 DUP6 PUSH1 0x1 ADD DUP2 MLOAD DUP2 LT PUSH2 0x5059 JUMPI INVALID JUMPDEST PUSH1 0x20 MUL PUSH1 0x20 ADD ADD MLOAD PUSH1 0x40 MLOAD DUP5 PUSH4 0xFFFFFFFF AND PUSH1 0xE0 SHL DUP2 MSTORE PUSH1 0x4 ADD PUSH2 0x507E SWAP3 SWAP2 SWAP1 PUSH2 0x7DBB JUMP JUMPDEST PUSH1 0x0 PUSH1 0x40 MLOAD DUP1 DUP4 SUB DUP2 DUP8 DUP1 EXTCODESIZE ISZERO DUP1 ISZERO PUSH2 0x5096 JUMPI PUSH1 0x0 DUP1 REVERT JUMPDEST POP DUP7 STATICCALL SWAP4 POP POP POP POP DUP1 ISZERO PUSH2 0x50CC JUMPI POP PUSH1 0x40 MLOAD RETURNDATASIZE PUSH1 0x0 DUP3 RETURNDATACOPY PUSH1 0x1F RETURNDATASIZE SWAP1 DUP2 ADD PUSH1 0x1F NOT AND DUP3 ADD PUSH1 0x40 MSTORE PUSH2 0x50C9 SWAP2 SWAP1 DUP2 ADD SWAP1 PUSH2 0x744C JUMP JUMPDEST PUSH1 0x1 JUMPDEST PUSH2 0x511A JUMPI RETURNDATASIZE DUP1 DUP1 ISZERO PUSH2 0x50FA JUMPI PUSH1 0x40 MLOAD SWAP2 POP PUSH1 0x1F NOT PUSH1 0x3F RETURNDATASIZE ADD AND DUP3 ADD PUSH1 0x40 MSTORE RETURNDATASIZE DUP3 MSTORE RETURNDATASIZE PUSH1 0x0 PUSH1 0x20 DUP5 ADD RETURNDATACOPY PUSH2 0x50FF JUMP JUMPDEST PUSH1 0x60 SWAP2 POP JUMPDEST POP POP PUSH1 0x40 DUP1 MLOAD PUSH1 0x0 DUP2 MSTORE PUSH1 0x20 DUP2 ADD SWAP1 SWAP2 MSTORE SWAP3 POP PUSH2 0x5238 SWAP2 POP POP JUMP JUMPDEST PUSH1 0x0 DUP2 MLOAD PUSH1 0x0 EQ ISZERO PUSH2 0x5141 JUMPI POP POP PUSH1 0x40 DUP1 MLOAD PUSH1 0x0 DUP2 MSTORE PUSH1 0x20 DUP2 ADD SWAP1 SWAP2 MSTORE SWAP3 POP PUSH2 0x5238 SWAP2 POP POP JUMP JUMPDEST PUSH1 0x0 JUMPDEST DUP3 MLOAD DUP2 LT ISZERO PUSH2 0x522A JUMPI PUSH1 0x0 DUP4 DUP3 DUP2 MLOAD DUP2 LT PUSH2 0x515B JUMPI INVALID JUMPDEST PUSH1 0x20 MUL PUSH1 0x20 ADD ADD MLOAD PUSH1 0x1 PUSH1 0x1 PUSH1 0xA0 SHL SUB AND PUSH4 0x18160DDD PUSH1 0x40 MLOAD DUP2 PUSH4 0xFFFFFFFF AND PUSH1 0xE0 SHL DUP2 MSTORE PUSH1 0x4 ADD PUSH1 0x20 PUSH1 0x40 MLOAD DUP1 DUP4 SUB DUP2 DUP7 DUP1 EXTCODESIZE ISZERO DUP1 ISZERO PUSH2 0x519B JUMPI PUSH1 0x0 DUP1 REVERT JUMPDEST POP GAS STATICCALL ISZERO DUP1 ISZERO PUSH2 0x51AF JUMPI RETURNDATASIZE PUSH1 0x0 DUP1 RETURNDATACOPY RETURNDATASIZE PUSH1 0x0 REVERT JUMPDEST POP POP POP POP PUSH1 0x40 MLOAD RETURNDATASIZE PUSH1 0x1F NOT PUSH1 0x1F DUP3 ADD AND DUP3 ADD DUP1 PUSH1 0x40 MSTORE POP DUP2 ADD SWAP1 PUSH2 0x51D3 SWAP2 SWAP1 PUSH2 0x76EC JUMP JUMPDEST SWAP1 POP DUP3 DUP2 GT ISZERO PUSH2 0x5221 JUMPI DUP1 SWAP3 POP DUP4 DUP3 DUP2 MLOAD DUP2 LT PUSH2 0x51EC JUMPI INVALID JUMPDEST PUSH1 0x20 MUL PUSH1 0x20 ADD ADD MLOAD DUP8 DUP7 DUP2 MLOAD DUP2 LT PUSH2 0x5200 JUMPI INVALID JUMPDEST PUSH1 0x20 MUL PUSH1 0x20 ADD ADD SWAP1 PUSH1 0x1 PUSH1 0x1 PUSH1 0xA0 SHL SUB AND SWAP1 DUP2 PUSH1 0x1 PUSH1 0x1 PUSH1 0xA0 SHL SUB AND DUP2 MSTORE POP POP JUMPDEST POP PUSH1 0x1 ADD PUSH2 0x5144 JUMP JUMPDEST POP POP POP PUSH1 0x1 ADD PUSH2 0x501A JUMP JUMPDEST POP POP JUMPDEST SWAP3 SWAP2 POP POP JUMP JUMPDEST PUSH1 0x0 PUSH1 0x60 DUP6 PUSH1 0x0 ADD MLOAD PUSH1 0x1 PUSH1 0x1 PUSH1 0xA0 SHL SUB AND PUSH4 0x21F8A721 DUP8 PUSH1 0x0 ADD MLOAD PUSH1 0x1 PUSH1 0x1 PUSH1 0xA0 SHL SUB AND PUSH4 0x9232494E PUSH1 0x40 MLOAD DUP2 PUSH4 0xFFFFFFFF AND PUSH1 0xE0 SHL DUP2 MSTORE PUSH1 0x4 ADD PUSH1 0x20 PUSH1 0x40 MLOAD DUP1 DUP4 SUB DUP2 DUP7 DUP1 EXTCODESIZE ISZERO DUP1 ISZERO PUSH2 0x5292 JUMPI PUSH1 0x0 DUP1 REVERT JUMPDEST POP GAS STATICCALL ISZERO DUP1 ISZERO PUSH2 0x52A6 JUMPI RETURNDATASIZE PUSH1 0x0 DUP1 RETURNDATACOPY RETURNDATASIZE PUSH1 0x0 REVERT JUMPDEST POP POP POP POP PUSH1 0x40 MLOAD RETURNDATASIZE PUSH1 0x1F NOT PUSH1 0x1F DUP3 ADD AND DUP3 ADD DUP1 PUSH1 0x40 MSTORE POP DUP2 ADD SWAP1 PUSH2 0x52CA SWAP2 SWAP1 PUSH2 0x76EC JUMP JUMPDEST PUSH1 0x40 MLOAD DUP3 PUSH4 0xFFFFFFFF AND PUSH1 0xE0 SHL DUP2 MSTORE PUSH1 0x4 ADD PUSH2 0x52E6 SWAP2 SWAP1 PUSH2 0x80FE JUMP JUMPDEST PUSH1 0x20 PUSH1 0x40 MLOAD DUP1 DUP4 SUB DUP2 DUP7 DUP1 EXTCODESIZE ISZERO DUP1 ISZERO PUSH2 0x52FE JUMPI PUSH1 0x0 DUP1 REVERT JUMPDEST POP GAS STATICCALL ISZERO DUP1 ISZERO PUSH2 0x5312 JUMPI RETURNDATASIZE PUSH1 0x0 DUP1 RETURNDATACOPY RETURNDATASIZE PUSH1 0x0 REVERT JUMPDEST POP POP POP POP PUSH1 0x40 MLOAD RETURNDATASIZE PUSH1 0x1F NOT PUSH1 0x1F DUP3 ADD AND DUP3 ADD DUP1 PUSH1 0x40 MSTORE POP DUP2 ADD SWAP1 PUSH2 0x5336 SWAP2 SWAP1 PUSH2 0x7097 JUMP JUMPDEST SWAP2 POP DUP6 PUSH1 0x20 ADD MLOAD MLOAD PUSH1 0x0 EQ ISZERO PUSH2 0x534B JUMPI PUSH2 0x5467 JUMP JUMPDEST PUSH1 0x0 DUP1 JUMPDEST DUP8 PUSH1 0x20 ADD MLOAD MLOAD DUP2 LT ISZERO PUSH2 0x5464 JUMPI PUSH1 0x2 DUP9 PUSH1 0x20 ADD MLOAD DUP3 DUP2 MLOAD DUP2 LT PUSH2 0x536E JUMPI INVALID JUMPDEST PUSH1 0x20 MUL PUSH1 0x20 ADD ADD MLOAD MLOAD LT ISZERO PUSH2 0x5382 JUMPI PUSH2 0x545C JUMP JUMPDEST DUP4 PUSH1 0x1 PUSH1 0x1 PUSH1 0xA0 SHL SUB AND PUSH4 0x7F9C0ECD PUSH3 0x493E0 DUP11 PUSH1 0x20 ADD MLOAD DUP5 DUP2 MLOAD DUP2 LT PUSH2 0x53A5 JUMPI INVALID JUMPDEST PUSH1 0x20 MUL PUSH1 0x20 ADD ADD MLOAD DUP9 PUSH1 0x1 DUP11 MLOAD SUB DUP2 MLOAD DUP2 LT PUSH2 0x53BD JUMPI INVALID JUMPDEST PUSH1 0x20 MUL PUSH1 0x20 ADD ADD MLOAD PUSH1 0x40 MLOAD DUP5 PUSH4 0xFFFFFFFF AND PUSH1 0xE0 SHL DUP2 MSTORE PUSH1 0x4 ADD PUSH2 0x53E2 SWAP3 SWAP2 SWAP1 PUSH2 0x8078 JUMP JUMPDEST PUSH1 0x20 PUSH1 0x40 MLOAD DUP1 DUP4 SUB DUP2 DUP8 DUP1 EXTCODESIZE ISZERO DUP1 ISZERO PUSH2 0x53FA JUMPI PUSH1 0x0 DUP1 REVERT JUMPDEST POP DUP7 STATICCALL SWAP4 POP POP POP POP DUP1 ISZERO PUSH2 0x542B JUMPI POP PUSH1 0x40 DUP1 MLOAD PUSH1 0x1F RETURNDATASIZE SWAP1 DUP2 ADD PUSH1 0x1F NOT AND DUP3 ADD SWAP1 SWAP3 MSTORE PUSH2 0x5428 SWAP2 DUP2 ADD SWAP1 PUSH2 0x76EC JUMP JUMPDEST PUSH1 0x1 JUMPDEST PUSH2 0x5434 JUMPI PUSH2 0x545C JUMP JUMPDEST DUP3 DUP2 GT ISZERO PUSH2 0x545A JUMPI DUP1 SWAP3 POP DUP9 PUSH1 0x20 ADD MLOAD DUP3 DUP2 MLOAD DUP2 LT PUSH2 0x544F JUMPI INVALID JUMPDEST PUSH1 0x20 MUL PUSH1 0x20 ADD ADD MLOAD SWAP4 POP JUMPDEST POP JUMPDEST PUSH1 0x1 ADD PUSH2 0x534F JUMP JUMPDEST POP POP JUMPDEST SWAP5 POP SWAP5 SWAP3 POP POP POP JUMP JUMPDEST DUP1 PUSH1 0x1 PUSH1 0x1 PUSH1 0xA0 SHL SUB AND DUP3 PUSH1 0x1 PUSH1 0x1 PUSH1 0xA0 SHL SUB AND EQ ISZERO PUSH2 0x54AB JUMPI PUSH1 0x40 MLOAD PUSH3 0x461BCD PUSH1 0xE5 SHL DUP2 MSTORE PUSH1 0x4 ADD PUSH2 0x54A2 SWAP1 PUSH2 0x8275 JUMP JUMPDEST PUSH1 0x40 MLOAD DUP1 SWAP2 SUB SWAP1 REVERT JUMPDEST POP POP JUMP JUMPDEST PUSH2 0x54B7 PUSH2 0x6B22 JUMP JUMPDEST POP PUSH1 0x40 DUP1 MLOAD PUSH1 0x80 DUP2 ADD DUP3 MSTORE ADDRESS DUP1 DUP3 MSTORE PUSH1 0x0 PUSH1 0x20 DUP4 ADD DUP2 SWAP1 MSTORE SWAP3 DUP3 ADD MSTORE PUSH1 0x60 DUP2 ADD SWAP2 SWAP1 SWAP2 MSTORE SWAP1 JUMP JUMPDEST PUSH1 0x40 DUP1 MLOAD PUSH1 0x1 DUP1 DUP3 MSTORE DUP2 DUP4 ADD SWAP1 SWAP3 MSTORE PUSH1 0x60 SWAP2 DUP3 SWAP2 SWAP1 DUP2 PUSH1 0x20 ADD JUMPDEST PUSH2 0x5500 PUSH2 0x6B92 JUMP JUMPDEST DUP2 MSTORE PUSH1 0x20 ADD SWAP1 PUSH1 0x1 SWAP1 SUB SWAP1 DUP2 PUSH2 0x54F8 JUMPI SWAP1 POP POP SWAP1 POP PUSH1 0x40 MLOAD DUP1 PUSH1 0xA0 ADD PUSH1 0x40 MSTORE DUP1 DUP6 PUSH1 0x0 ADD MLOAD DUP2 MSTORE PUSH1 0x20 ADD PUSH1 0x0 DUP2 MSTORE PUSH1 0x20 ADD PUSH1 0x1 DUP2 MSTORE PUSH1 0x20 ADD DUP5 DUP2 MSTORE PUSH1 0x20 ADD PUSH1 0x40 MLOAD DUP1 PUSH1 0x20 ADD PUSH1 0x40 MSTORE DUP1 PUSH1 0x0 DUP2 MSTORE POP DUP2 MSTORE POP DUP2 PUSH1 0x0 DUP2 MLOAD DUP2 LT PUSH2 0x555E JUMPI INVALID JUMPDEST PUSH1 0x20 SWAP1 DUP2 MUL SWAP2 SWAP1 SWAP2 ADD ADD MSTORE SWAP4 SWAP3 POP POP POP JUMP JUMPDEST PUSH1 0x40 MLOAD PUSH4 0x3795FB1 PUSH1 0xE1 SHL DUP2 MSTORE PUSH1 0x0 SWAP1 PUSH1 0x1 PUSH1 0x1 PUSH1 0xA0 SHL SUB DUP5 AND SWAP1 PUSH4 0x6F2BF62 SWAP1 PUSH2 0x559F SWAP1 DUP6 SWAP1 PUSH1 0x4 ADD PUSH2 0x7D8E JUMP JUMPDEST PUSH1 0x20 PUSH1 0x40 MLOAD DUP1 DUP4 SUB DUP2 DUP7 DUP1 EXTCODESIZE ISZERO DUP1 ISZERO PUSH2 0x55B7 JUMPI PUSH1 0x0 DUP1 REVERT JUMPDEST POP GAS STATICCALL ISZERO DUP1 ISZERO PUSH2 0x55CB JUMPI RETURNDATASIZE PUSH1 0x0 DUP1 RETURNDATACOPY RETURNDATASIZE PUSH1 0x0 REVERT JUMPDEST POP POP POP POP PUSH1 0x40 MLOAD RETURNDATASIZE PUSH1 0x1F NOT PUSH1 0x1F DUP3 ADD AND DUP3 ADD DUP1 PUSH1 0x40 MSTORE POP DUP2 ADD SWAP1 PUSH2 0x55EF SWAP2 SWAP1 PUSH2 0x7097 JUMP JUMPDEST SWAP4 SWAP3 POP POP POP JUMP JUMPDEST PUSH1 0x0 DUP1 PUSH1 0x1 PUSH1 0x1 PUSH1 0xA0 SHL SUB DUP6 AND PUSH2 0x560C JUMPI PUSH2 0x793 JUMP JUMPDEST PUSH1 0x60 DUP6 PUSH1 0x1 PUSH1 0x1 PUSH1 0xA0 SHL SUB AND PUSH3 0x249F0 DUP7 DUP7 PUSH1 0x40 MLOAD PUSH1 0x24 ADD PUSH2 0x562E SWAP2 SWAP1 PUSH2 0x80FE JUMP JUMPDEST PUSH1 0x40 DUP1 MLOAD PUSH1 0x1F NOT DUP2 DUP5 SUB ADD DUP2 MSTORE SWAP2 DUP2 MSTORE PUSH1 0x20 DUP3 ADD DUP1 MLOAD PUSH1 0x1 PUSH1 0x1 PUSH1 0xE0 SHL SUB AND PUSH1 0x1 PUSH1 0x1 PUSH1 0xE0 SHL SUB NOT SWAP1 SWAP5 AND SWAP4 SWAP1 SWAP4 OR SWAP1 SWAP3 MSTORE SWAP1 MLOAD PUSH2 0x566C SWAP2 SWAP1 PUSH2 0x7D72 JUMP JUMPDEST PUSH1 0x0 PUSH1 0x40 MLOAD DUP1 DUP4 SUB DUP2 DUP7 DUP7 STATICCALL SWAP3 POP POP POP RETURNDATASIZE DUP1 PUSH1 0x0 DUP2 EQ PUSH2 0x56A8 JUMPI PUSH1 0x40 MLOAD SWAP2 POP PUSH1 0x1F NOT PUSH1 0x3F RETURNDATASIZE ADD AND DUP3 ADD PUSH1 0x40 MSTORE RETURNDATASIZE DUP3 MSTORE RETURNDATASIZE PUSH1 0x0 PUSH1 0x20 DUP5 ADD RETURNDATACOPY PUSH2 0x56AD JUMP JUMPDEST PUSH1 0x60 SWAP2 POP JUMPDEST POP SWAP1 SWAP3 POP SWAP1 POP DUP2 ISZERO PUSH2 0x56D0 JUMPI DUP1 DUP1 PUSH1 0x20 ADD SWAP1 MLOAD DUP2 ADD SWAP1 PUSH2 0x56CD SWAP2 SWAP1 PUSH2 0x76EC JUMP JUMPDEST SWAP3 POP JUMPDEST POP SWAP4 POP SWAP4 SWAP2 POP POP JUMP JUMPDEST PUSH1 0x0 DUP1 PUSH1 0x0 DUP1 DUP5 PUSH1 0x1 PUSH1 0x1 PUSH1 0xA0 SHL SUB AND PUSH4 0xD9638D36 DUP12 PUSH1 0x20 ADD MLOAD PUSH1 0x40 MLOAD DUP3 PUSH4 0xFFFFFFFF AND PUSH1 0xE0 SHL DUP2 MSTORE PUSH1 0x4 ADD PUSH2 0x570F SWAP2 SWAP1 PUSH2 0x80FE JUMP JUMPDEST PUSH1 0xA0 PUSH1 0x40 MLOAD DUP1 DUP4 SUB DUP2 DUP7 DUP1 EXTCODESIZE ISZERO DUP1 ISZERO PUSH2 0x5727 JUMPI PUSH1 0x0 DUP1 REVERT JUMPDEST POP GAS STATICCALL ISZERO DUP1 ISZERO PUSH2 0x573B JUMPI RETURNDATASIZE PUSH1 0x0 DUP1 RETURNDATACOPY RETURNDATASIZE PUSH1 0x0 REVERT JUMPDEST POP POP POP POP PUSH1 0x40 MLOAD RETURNDATASIZE PUSH1 0x1F NOT PUSH1 0x1F DUP3 ADD AND DUP3 ADD DUP1 PUSH1 0x40 MSTORE POP DUP2 ADD SWAP1 PUSH2 0x575F SWAP2 SWAP1 PUSH2 0x7B2C JUMP JUMPDEST SWAP5 POP SWAP5 POP POP POP SWAP3 POP PUSH1 0x0 PUSH3 0xF4240 SWAP1 POP DUP11 PUSH1 0x40 ADD MLOAD PUSH1 0x1 PUSH1 0x1 PUSH1 0xA0 SHL SUB AND DUP10 PUSH1 0x1 PUSH1 0x1 PUSH1 0xA0 SHL SUB AND EQ ISZERO PUSH2 0x5887 JUMPI PUSH1 0x0 PUSH2 0x579E DUP10 PUSH5 0xE8D4A51000 PUSH2 0x6870 JUMP JUMPDEST SWAP1 POP PUSH1 0x0 PUSH2 0x57C2 PUSH12 0x33B2E3C9FD0803CE8000000 PUSH2 0x57BC DUP9 DUP6 PUSH2 0x68A6 JUMP JUMPDEST SWAP1 PUSH2 0x6870 JUMP JUMPDEST SWAP1 POP DUP5 DUP2 LT PUSH2 0x57DA JUMPI PUSH1 0x0 SWAP7 POP POP POP POP POP POP POP PUSH2 0x5990 JUMP JUMPDEST PUSH1 0x0 PUSH2 0x5869 PUSH8 0xDE0B6B3A7640000 PUSH2 0x5863 DUP13 PUSH1 0x1 PUSH1 0x1 PUSH1 0xA0 SHL SUB AND PUSH4 0x568D4B6F PUSH1 0x40 MLOAD DUP2 PUSH4 0xFFFFFFFF AND PUSH1 0xE0 SHL DUP2 MSTORE PUSH1 0x4 ADD PUSH1 0x20 PUSH1 0x40 MLOAD DUP1 DUP4 SUB DUP2 DUP7 DUP1 EXTCODESIZE ISZERO DUP1 ISZERO PUSH2 0x5824 JUMPI PUSH1 0x0 DUP1 REVERT JUMPDEST POP GAS STATICCALL ISZERO DUP1 ISZERO PUSH2 0x5838 JUMPI RETURNDATASIZE PUSH1 0x0 DUP1 RETURNDATACOPY RETURNDATASIZE PUSH1 0x0 REVERT JUMPDEST POP POP POP POP PUSH1 0x40 MLOAD RETURNDATASIZE PUSH1 0x1F NOT PUSH1 0x1F DUP3 ADD AND DUP3 ADD DUP1 PUSH1 0x40 MSTORE POP DUP2 ADD SWAP1 PUSH2 0x585C SWAP2 SWAP1 PUSH2 0x76EC JUMP JUMPDEST DUP7 SWAP1 PUSH2 0x6870 JUMP JUMPDEST SWAP1 PUSH2 0x68C2 JUMP JUMPDEST SWAP1 POP PUSH1 0x0 PUSH2 0x5877 DUP5 DUP4 PUSH2 0x68EC JUMP JUMPDEST SWAP9 POP PUSH2 0x5990 SWAP8 POP POP POP POP POP POP POP POP JUMP JUMPDEST DUP11 PUSH1 0x40 ADD MLOAD PUSH1 0x1 PUSH1 0x1 PUSH1 0xA0 SHL SUB AND DUP11 PUSH1 0x1 PUSH1 0x1 PUSH1 0xA0 SHL SUB AND EQ ISZERO PUSH2 0x5987 JUMPI DUP8 DUP5 DUP2 GT ISZERO PUSH2 0x58BC JUMPI PUSH1 0x0 SWAP6 POP POP POP POP POP POP PUSH2 0x5990 JUMP JUMPDEST PUSH1 0x0 PUSH2 0x58D8 PUSH12 0x33B2E3C9FD0803CE8000000 PUSH2 0x57BC DUP9 DUP6 PUSH2 0x68EC JUMP JUMPDEST SWAP1 POP DUP4 DUP2 GT PUSH2 0x58F0 JUMPI PUSH1 0x0 SWAP7 POP POP POP POP POP POP POP PUSH2 0x5990 JUMP JUMPDEST PUSH1 0x0 PUSH2 0x5975 DUP11 PUSH1 0x1 PUSH1 0x1 PUSH1 0xA0 SHL SUB AND PUSH4 0xFAE036D5 PUSH1 0x40 MLOAD DUP2 PUSH4 0xFFFFFFFF AND PUSH1 0xE0 SHL DUP2 MSTORE PUSH1 0x4 ADD PUSH1 0x20 PUSH1 0x40 MLOAD DUP1 DUP4 SUB DUP2 DUP7 DUP1 EXTCODESIZE ISZERO DUP1 ISZERO PUSH2 0x592E JUMPI PUSH1 0x0 DUP1 REVERT JUMPDEST POP GAS STATICCALL ISZERO DUP1 ISZERO PUSH2 0x5942 JUMPI RETURNDATASIZE PUSH1 0x0 DUP1 RETURNDATACOPY RETURNDATASIZE PUSH1 0x0 REVERT JUMPDEST POP POP POP POP PUSH1 0x40 MLOAD RETURNDATASIZE PUSH1 0x1F NOT PUSH1 0x1F DUP3 ADD AND DUP3 ADD DUP1 PUSH1 0x40 MSTORE POP DUP2 ADD SWAP1 PUSH2 0x5966 SWAP2 SWAP1 PUSH2 0x76EC JUMP JUMPDEST PUSH8 0xDE0B6B3A7640000 SWAP1 PUSH2 0x68A6 JUMP JUMPDEST SWAP1 POP PUSH1 0x0 PUSH2 0x5877 DUP3 PUSH2 0x5863 DUP7 DUP9 PUSH2 0x6870 JUMP JUMPDEST PUSH1 0x0 SWAP5 POP POP POP POP POP JUMPDEST SWAP7 SWAP6 POP POP POP POP POP POP JUMP JUMPDEST PUSH1 0x0 DUP1 PUSH2 0x59A5 PUSH2 0x6BC4 JUMP JUMPDEST DUP6 DUP1 PUSH1 0x20 ADD SWAP1 MLOAD DUP2 ADD SWAP1 PUSH2 0x59B9 SWAP2 SWAP1 PUSH2 0x7752 JUMP JUMPDEST SWAP2 POP SWAP2 POP PUSH1 0x0 DUP6 DUP1 PUSH1 0x20 ADD SWAP1 MLOAD DUP2 ADD SWAP1 PUSH2 0x59D3 SWAP2 SWAP1 PUSH2 0x7736 JUMP JUMPDEST SWAP1 POP PUSH1 0x0 PUSH1 0x60 ADDRESS PUSH4 0x22DB5ED1 PUSH1 0xE2 SHL DUP6 DUP8 DUP7 PUSH2 0x59EE DUP13 PUSH2 0x690B JUMP JUMPDEST PUSH1 0x40 MLOAD PUSH1 0x24 ADD PUSH2 0x5A01 SWAP5 SWAP4 SWAP3 SWAP2 SWAP1 PUSH2 0x82BA JUMP JUMPDEST PUSH1 0x40 DUP1 MLOAD PUSH1 0x1F NOT DUP2 DUP5 SUB ADD DUP2 MSTORE SWAP2 DUP2 MSTORE PUSH1 0x20 DUP3 ADD DUP1 MLOAD PUSH1 0x1 PUSH1 0x1 PUSH1 0xE0 SHL SUB AND PUSH1 0x1 PUSH1 0x1 PUSH1 0xE0 SHL SUB NOT SWAP1 SWAP5 AND SWAP4 SWAP1 SWAP4 OR SWAP1 SWAP3 MSTORE SWAP1 MLOAD PUSH2 0x5A3F SWAP2 SWAP1 PUSH2 0x7D72 JUMP JUMPDEST PUSH1 0x0 PUSH1 0x40 MLOAD DUP1 DUP4 SUB DUP2 DUP6 GAS STATICCALL SWAP2 POP POP RETURNDATASIZE DUP1 PUSH1 0x0 DUP2 EQ PUSH2 0x5A7A JUMPI PUSH1 0x40 MLOAD SWAP2 POP PUSH1 0x1F NOT PUSH1 0x3F RETURNDATASIZE ADD AND DUP3 ADD PUSH1 0x40 MSTORE RETURNDATASIZE DUP3 MSTORE RETURNDATASIZE PUSH1 0x0 PUSH1 0x20 DUP5 ADD RETURNDATACOPY PUSH2 0x5A7F JUMP JUMPDEST PUSH1 0x60 SWAP2 POP JUMPDEST POP SWAP2 POP SWAP2 POP DUP2 PUSH2 0x5A97 JUMPI PUSH1 0x0 SWAP6 POP POP POP POP POP POP PUSH2 0x55EF JUMP JUMPDEST DUP1 DUP1 PUSH1 0x20 ADD SWAP1 MLOAD DUP2 ADD SWAP1 PUSH2 0x5AAB SWAP2 SWAP1 PUSH2 0x769A JUMP JUMPDEST PUSH1 0x0 DUP2 MLOAD DUP2 LT PUSH2 0x5AB7 JUMPI INVALID JUMPDEST PUSH1 0x20 MUL PUSH1 0x20 ADD ADD MLOAD SWAP6 POP POP POP POP POP POP SWAP4 SWAP3 POP POP POP JUMP JUMPDEST PUSH1 0x60 DUP2 MLOAD PUSH1 0x1 PUSH1 0x1 PUSH1 0x40 SHL SUB DUP2 GT DUP1 ISZERO PUSH2 0x5AE6 JUMPI PUSH1 0x0 DUP1 REVERT JUMPDEST POP PUSH1 0x40 MLOAD SWAP1 DUP1 DUP3 MSTORE DUP1 PUSH1 0x20 MUL PUSH1 0x20 ADD DUP3 ADD PUSH1 0x40 MSTORE DUP1 ISZERO PUSH2 0x5B10 JUMPI DUP2 PUSH1 0x20 ADD PUSH1 0x20 DUP3 MUL DUP1 CALLDATASIZE DUP4 CALLDATACOPY ADD SWAP1 POP JUMPDEST POP SWAP1 POP DUP2 MLOAD PUSH1 0x0 EQ ISZERO PUSH2 0x5B22 JUMPI PUSH2 0x5238 JUMP JUMPDEST PUSH1 0x0 PUSH2 0x5B53 DUP5 PUSH1 0x0 ADD MLOAD DUP6 PUSH1 0x20 ADD MLOAD DUP6 PUSH1 0x0 DUP2 MLOAD DUP2 LT PUSH2 0x5B3E JUMPI INVALID JUMPDEST PUSH1 0x20 MUL PUSH1 0x20 ADD ADD MLOAD DUP8 PUSH1 0x40 ADD MLOAD PUSH4 0xFFFFFFFF AND JUMP JUMPDEST SWAP1 POP DUP1 PUSH2 0x5B60 JUMPI POP PUSH2 0x5238 JUMP JUMPDEST PUSH1 0x0 PUSH2 0x5B7D DUP6 PUSH1 0x20 ADD MLOAD DUP7 PUSH1 0x0 ADD MLOAD DUP5 DUP9 PUSH1 0x40 ADD MLOAD PUSH4 0xFFFFFFFF AND JUMP JUMPDEST SWAP1 POP DUP1 PUSH2 0x5B8B JUMPI POP POP PUSH2 0x5238 JUMP JUMPDEST PUSH1 0x0 JUMPDEST DUP5 MLOAD DUP2 LT ISZERO PUSH2 0x5CC1 JUMPI PUSH1 0x0 JUMPDEST PUSH1 0x5 DUP2 LT ISZERO PUSH2 0x5C83 JUMPI PUSH2 0x5BC1 DUP7 DUP4 DUP2 MLOAD DUP2 LT PUSH2 0x5BB2 JUMPI INVALID JUMPDEST PUSH1 0x20 MUL PUSH1 0x20 ADD ADD MLOAD DUP5 DUP7 PUSH2 0x694C JUMP JUMPDEST SWAP4 POP DUP4 PUSH2 0x5BCD JUMPI PUSH2 0x5C83 JUMP JUMPDEST PUSH2 0x5BDC PUSH2 0x2715 PUSH2 0x2710 DUP7 PUSH2 0x694C JUMP JUMPDEST SWAP4 POP DUP4 PUSH2 0x5BE8 JUMPI PUSH2 0x5C83 JUMP JUMPDEST PUSH1 0x0 PUSH2 0x5C05 DUP9 PUSH1 0x20 ADD MLOAD DUP10 PUSH1 0x0 ADD MLOAD DUP8 DUP12 PUSH1 0x40 ADD MLOAD PUSH4 0xFFFFFFFF AND JUMP JUMPDEST SWAP1 POP DUP1 PUSH2 0x5C12 JUMPI POP PUSH2 0x5C83 JUMP JUMPDEST DUP1 SWAP4 POP DUP7 DUP4 DUP2 MLOAD DUP2 LT PUSH2 0x5C21 JUMPI INVALID JUMPDEST PUSH1 0x20 MUL PUSH1 0x20 ADD ADD MLOAD DUP5 LT PUSH2 0x5C7A JUMPI PUSH1 0x0 DUP8 DUP5 DUP2 MLOAD DUP2 LT PUSH2 0x5C3D JUMPI INVALID JUMPDEST PUSH1 0x20 MUL PUSH1 0x20 ADD ADD MLOAD PUSH2 0x2710 DUP10 DUP7 DUP2 MLOAD DUP2 LT PUSH2 0x5C54 JUMPI INVALID JUMPDEST PUSH1 0x20 MUL PUSH1 0x20 ADD ADD MLOAD DUP8 SUB MUL DUP2 PUSH2 0x5C66 JUMPI INVALID JUMPDEST DIV SWAP1 POP PUSH1 0x5 DUP2 GT PUSH2 0x5C78 JUMPI POP POP PUSH2 0x5C83 JUMP JUMPDEST POP JUMPDEST POP PUSH1 0x1 ADD PUSH2 0x5B9A JUMP JUMPDEST POP PUSH2 0x5CA2 DUP6 DUP3 DUP2 MLOAD DUP2 LT PUSH2 0x5C93 JUMPI INVALID JUMPDEST PUSH1 0x20 MUL PUSH1 0x20 ADD ADD MLOAD DUP4 DUP6 PUSH2 0x694C JUMP JUMPDEST DUP5 DUP3 DUP2 MLOAD DUP2 LT PUSH2 0x5CAE JUMPI INVALID JUMPDEST PUSH1 0x20 SWAP1 DUP2 MUL SWAP2 SWAP1 SWAP2 ADD ADD MSTORE PUSH1 0x1 ADD PUSH2 0x5B8E JUMP JUMPDEST POP POP POP SWAP3 SWAP2 POP POP JUMP JUMPDEST PUSH1 0x0 DUP1 PUSH1 0x0 DUP1 PUSH1 0x0 DUP8 DUP1 PUSH1 0x20 ADD SWAP1 MLOAD DUP2 ADD SWAP1 PUSH2 0x5CE6 SWAP2 SWAP1 PUSH2 0x70EC JUMP JUMPDEST SWAP4 POP SWAP4 POP SWAP4 POP SWAP4 POP DUP2 PUSH1 0x1 PUSH1 0x1 PUSH1 0xA0 SHL SUB AND DUP5 PUSH1 0x1 PUSH1 0x1 PUSH1 0xA0 SHL SUB AND EQ ISZERO PUSH2 0x5DD0 JUMPI PUSH1 0x40 MLOAD PUSH4 0x51400F0B PUSH1 0xE1 SHL DUP2 MSTORE PUSH1 0x1 PUSH1 0x1 PUSH1 0xA0 SHL SUB DUP5 AND SWAP1 PUSH4 0xA2801E16 SWAP1 PUSH3 0x493E0 SWAP1 PUSH2 0x5D39 SWAP1 DUP11 SWAP1 PUSH1 0x4 ADD PUSH2 0x80FE JUMP JUMPDEST PUSH1 0x20 PUSH1 0x40 MLOAD DUP1 DUP4 SUB DUP2 DUP8 DUP1 EXTCODESIZE ISZERO DUP1 ISZERO PUSH2 0x5D51 JUMPI PUSH1 0x0 DUP1 REVERT JUMPDEST POP DUP7 STATICCALL SWAP4 POP POP POP POP DUP1 ISZERO PUSH2 0x5D82 JUMPI POP PUSH1 0x40 DUP1 MLOAD PUSH1 0x1F RETURNDATASIZE SWAP1 DUP2 ADD PUSH1 0x1F NOT AND DUP3 ADD SWAP1 SWAP3 MSTORE PUSH2 0x5D7F SWAP2 DUP2 ADD SWAP1 PUSH2 0x76EC JUMP JUMPDEST PUSH1 0x1 JUMPDEST PUSH2 0x5DC4 JUMPI RETURNDATASIZE DUP1 DUP1 ISZERO PUSH2 0x5DB0 JUMPI PUSH1 0x40 MLOAD SWAP2 POP PUSH1 0x1F NOT PUSH1 0x3F RETURNDATASIZE ADD AND DUP3 ADD PUSH1 0x40 MSTORE RETURNDATASIZE DUP3 MSTORE RETURNDATASIZE PUSH1 0x0 PUSH1 0x20 DUP5 ADD RETURNDATACOPY PUSH2 0x5DB5 JUMP JUMPDEST PUSH1 0x60 SWAP2 POP JUMPDEST POP PUSH1 0x0 SWAP6 POP POP POP POP POP POP PUSH2 0x55EF JUMP JUMPDEST SWAP5 POP PUSH2 0x55EF SWAP4 POP POP POP POP JUMP JUMPDEST PUSH1 0x40 MLOAD PUSH4 0xCA19EBD9 PUSH1 0xE0 SHL DUP2 MSTORE PUSH1 0x1 PUSH1 0x1 PUSH1 0xA0 SHL SUB DUP3 AND SWAP1 PUSH4 0xCA19EBD9 SWAP1 PUSH3 0x493E0 SWAP1 PUSH2 0x5D39 SWAP1 DUP8 SWAP1 DUP12 SWAP1 PUSH1 0x4 ADD PUSH2 0x7DA2 JUMP JUMPDEST PUSH2 0x5E0E DUP4 DUP4 DUP4 PUSH2 0x69A4 JUMP JUMPDEST POP POP POP JUMP JUMPDEST PUSH1 0x0 PUSH2 0x55EF DUP4 DUP4 PUSH2 0x69CB JUMP JUMPDEST PUSH1 0x0 DUP3 DUP3 MUL DUP4 ISZERO DUP1 ISZERO SWAP1 PUSH2 0x5E3C JUMPI POP DUP3 DUP5 DUP3 DUP2 PUSH2 0x5E38 JUMPI INVALID JUMPDEST DIV EQ ISZERO JUMPDEST ISZERO PUSH2 0x5E4B JUMPI PUSH1 0x0 SWAP2 POP POP PUSH2 0x5238 JUMP JUMPDEST PUSH8 0x6F05B59D3B20000 DUP2 ADD DUP2 DUP2 LT ISZERO PUSH2 0x5E69 JUMPI PUSH1 0x0 SWAP3 POP POP POP PUSH2 0x5238 JUMP JUMPDEST PUSH8 0xDE0B6B3A7640000 SWAP1 DIV SWAP5 SWAP4 POP POP POP POP JUMP JUMPDEST PUSH1 0x0 DUP1 PUSH1 0x0 DUP6 DUP1 PUSH1 0x20 ADD SWAP1 MLOAD DUP2 ADD SWAP1 PUSH2 0x5E95 SWAP2 SWAP1 PUSH2 0x70B3 JUMP JUMPDEST SWAP2 POP SWAP2 POP PUSH1 0x0 DUP6 DUP1 PUSH1 0x20 ADD SWAP1 MLOAD DUP2 ADD SWAP1 PUSH2 0x5EAF SWAP2 SWAP1 PUSH2 0x7097 JUMP JUMPDEST SWAP1 POP ADDRESS PUSH4 0xE8E4AF09 DUP4 DUP6 DUP5 PUSH2 0x5EC3 DUP11 PUSH2 0x690B JUMP JUMPDEST PUSH1 0x40 MLOAD DUP6 PUSH4 0xFFFFFFFF AND PUSH1 0xE0 SHL DUP2 MSTORE PUSH1 0x4 ADD PUSH2 0x5EE2 SWAP5 SWAP4 SWAP3 SWAP2 SWAP1 PUSH2 0x7E00 JUMP JUMPDEST PUSH1 0x0 PUSH1 0x40 MLOAD DUP1 DUP4 SUB DUP2 DUP7 DUP1 EXTCODESIZE ISZERO DUP1 ISZERO PUSH2 0x5EFA JUMPI PUSH1 0x0 DUP1 REVERT JUMPDEST POP GAS STATICCALL SWAP3 POP POP POP DUP1 ISZERO PUSH2 0x5F2F JUMPI POP PUSH1 0x40 MLOAD RETURNDATASIZE PUSH1 0x0 DUP3 RETURNDATACOPY PUSH1 0x1F RETURNDATASIZE SWAP1 DUP2 ADD PUSH1 0x1F NOT AND DUP3 ADD PUSH1 0x40 MSTORE PUSH2 0x5F2C SWAP2 SWAP1 DUP2 ADD SWAP1 PUSH2 0x769A JUMP JUMPDEST PUSH1 0x1 JUMPDEST PUSH2 0x5F70 JUMPI RETURNDATASIZE DUP1 DUP1 ISZERO PUSH2 0x5F5D JUMPI PUSH1 0x40 MLOAD SWAP2 POP PUSH1 0x1F NOT PUSH1 0x3F RETURNDATASIZE ADD AND DUP3 ADD PUSH1 0x40 MSTORE RETURNDATASIZE DUP3 MSTORE RETURNDATASIZE PUSH1 0x0 PUSH1 0x20 DUP5 ADD RETURNDATACOPY PUSH2 0x5F62 JUMP JUMPDEST PUSH1 0x60 SWAP2 POP JUMPDEST POP PUSH1 0x0 SWAP5 POP POP POP POP POP PUSH2 0x55EF JUMP JUMPDEST DUP1 PUSH1 0x0 DUP2 MLOAD DUP2 LT PUSH2 0x5F7D JUMPI INVALID JUMPDEST PUSH1 0x20 MUL PUSH1 0x20 ADD ADD MLOAD SWAP5 POP POP POP POP POP PUSH2 0x55EF JUMP JUMPDEST PUSH1 0x0 DUP1 PUSH1 0x0 DUP1 DUP5 PUSH1 0x1 PUSH1 0x1 PUSH1 0xA0 SHL SUB AND PUSH4 0xD9638D36 DUP12 PUSH1 0x20 ADD MLOAD PUSH1 0x40 MLOAD DUP3 PUSH4 0xFFFFFFFF AND PUSH1 0xE0 SHL DUP2 MSTORE PUSH1 0x4 ADD PUSH2 0x5FC6 SWAP2 SWAP1 PUSH2 0x80FE JUMP JUMPDEST PUSH1 0xA0 PUSH1 0x40 MLOAD DUP1 DUP4 SUB DUP2 DUP7 DUP1 EXTCODESIZE ISZERO DUP1 ISZERO PUSH2 0x5FDE JUMPI PUSH1 0x0 DUP1 REVERT JUMPDEST POP GAS STATICCALL ISZERO DUP1 ISZERO PUSH2 0x5FF2 JUMPI RETURNDATASIZE PUSH1 0x0 DUP1 RETURNDATACOPY RETURNDATASIZE PUSH1 0x0 REVERT JUMPDEST POP POP POP POP PUSH1 0x40 MLOAD RETURNDATASIZE PUSH1 0x1F NOT PUSH1 0x1F DUP3 ADD AND DUP3 ADD DUP1 PUSH1 0x40 MSTORE POP DUP2 ADD SWAP1 PUSH2 0x6016 SWAP2 SWAP1 PUSH2 0x7B2C JUMP JUMPDEST SWAP5 POP SWAP5 POP POP POP SWAP3 POP DUP10 PUSH1 0x40 ADD MLOAD PUSH1 0x1 PUSH1 0x1 PUSH1 0xA0 SHL SUB AND DUP9 PUSH1 0x1 PUSH1 0x1 PUSH1 0xA0 SHL SUB AND EQ ISZERO PUSH2 0x6133 JUMPI PUSH1 0x0 DUP8 SWAP1 POP PUSH1 0x0 PUSH2 0x60C6 DUP9 PUSH1 0x1 PUSH1 0x1 PUSH1 0xA0 SHL SUB AND PUSH4 0x568D4B6F PUSH1 0x40 MLOAD DUP2 PUSH4 0xFFFFFFFF AND PUSH1 0xE0 SHL DUP2 MSTORE PUSH1 0x4 ADD PUSH1 0x20 PUSH1 0x40 MLOAD DUP1 DUP4 SUB DUP2 DUP7 DUP1 EXTCODESIZE ISZERO DUP1 ISZERO PUSH2 0x607F JUMPI PUSH1 0x0 DUP1 REVERT JUMPDEST POP GAS STATICCALL ISZERO DUP1 ISZERO PUSH2 0x6093 JUMPI RETURNDATASIZE PUSH1 0x0 DUP1 RETURNDATACOPY RETURNDATASIZE PUSH1 0x0 REVERT JUMPDEST POP POP POP POP PUSH1 0x40 MLOAD RETURNDATASIZE PUSH1 0x1F NOT PUSH1 0x1F DUP3 ADD AND DUP3 ADD DUP1 PUSH1 0x40 MSTORE POP DUP2 ADD SWAP1 PUSH2 0x60B7 SWAP2 SWAP1 PUSH2 0x76EC JUMP JUMPDEST PUSH8 0xDE0B6B3A7640000 SWAP1 PUSH2 0x68EC JUMP JUMPDEST SWAP1 POP PUSH1 0x0 PUSH2 0x60E0 DUP3 PUSH2 0x5863 DUP6 PUSH8 0xDE0B6B3A7640000 PUSH2 0x6870 JUMP JUMPDEST SWAP1 POP PUSH1 0x0 PUSH2 0x60FE PUSH12 0x33B2E3C9FD0803CE8000000 PUSH2 0x57BC DUP10 DUP6 PUSH2 0x68A6 JUMP JUMPDEST SWAP1 POP DUP6 DUP2 LT PUSH2 0x6117 JUMPI PUSH1 0x0 SWAP8 POP POP POP POP POP POP POP POP PUSH2 0x5990 JUMP JUMPDEST PUSH1 0x0 PUSH2 0x5877 PUSH1 0x1 PUSH2 0x612D DUP6 PUSH5 0xE8D4A51000 PUSH2 0x68C2 JUMP JUMPDEST SWAP1 PUSH2 0x68A6 JUMP JUMPDEST DUP10 PUSH1 0x40 ADD MLOAD PUSH1 0x1 PUSH1 0x1 PUSH1 0xA0 SHL SUB AND DUP10 PUSH1 0x1 PUSH1 0x1 PUSH1 0xA0 SHL SUB AND EQ ISZERO PUSH2 0x6218 JUMPI PUSH1 0x0 PUSH2 0x6162 DUP9 PUSH5 0xE8D4A51000 PUSH2 0x6870 JUMP JUMPDEST SWAP1 POP PUSH1 0x0 PUSH2 0x61A2 DUP9 PUSH1 0x1 PUSH1 0x1 PUSH1 0xA0 SHL SUB AND PUSH4 0xFAE036D5 PUSH1 0x40 MLOAD DUP2 PUSH4 0xFFFFFFFF AND PUSH1 0xE0 SHL DUP2 MSTORE PUSH1 0x4 ADD PUSH1 0x20 PUSH1 0x40 MLOAD DUP1 DUP4 SUB DUP2 DUP7 DUP1 EXTCODESIZE ISZERO DUP1 ISZERO PUSH2 0x592E JUMPI PUSH1 0x0 DUP1 REVERT JUMPDEST SWAP1 POP PUSH1 0x0 PUSH2 0x61BC PUSH8 0xDE0B6B3A7640000 PUSH2 0x5863 DUP6 DUP6 PUSH2 0x6870 JUMP JUMPDEST SWAP1 POP DUP6 DUP2 GT ISZERO PUSH2 0x61D5 JUMPI PUSH1 0x0 SWAP7 POP POP POP POP POP POP POP PUSH2 0x5990 JUMP JUMPDEST PUSH1 0x0 PUSH2 0x61F1 PUSH12 0x33B2E3C9FD0803CE8000000 PUSH2 0x57BC DUP10 DUP6 PUSH2 0x68EC JUMP JUMPDEST SWAP1 POP DUP5 DUP2 GT PUSH2 0x620A JUMPI PUSH1 0x0 SWAP8 POP POP POP POP POP POP POP POP PUSH2 0x5990 JUMP JUMPDEST POP SWAP6 POP PUSH2 0x5990 SWAP5 POP POP POP POP POP JUMP JUMPDEST POP PUSH1 0x0 SWAP10 SWAP9 POP POP POP POP POP POP POP POP POP JUMP JUMPDEST PUSH1 0x0 DUP1 PUSH2 0x6233 PUSH2 0x6BC4 JUMP JUMPDEST DUP6 DUP1 PUSH1 0x20 ADD SWAP1 MLOAD DUP2 ADD SWAP1 PUSH2 0x6247 SWAP2 SWAP1 PUSH2 0x7752 JUMP JUMPDEST SWAP2 POP SWAP2 POP PUSH1 0x0 DUP6 DUP1 PUSH1 0x20 ADD SWAP1 MLOAD DUP2 ADD SWAP1 PUSH2 0x6261 SWAP2 SWAP1 PUSH2 0x7736 JUMP JUMPDEST SWAP1 POP PUSH1 0x0 PUSH1 0x60 ADDRESS PUSH4 0x205E01D7 PUSH1 0xE1 SHL DUP6 DUP8 DUP7 PUSH2 0x59EE DUP13 PUSH2 0x690B JUMP JUMPDEST PUSH1 0x0 DUP1 DUP5 PUSH1 0x20 ADD MLOAD SWAP1 POP PUSH1 0x60 DUP2 PUSH1 0x1 PUSH1 0x1 PUSH1 0xA0 SHL SUB AND PUSH4 0x910FFC71 DUP8 PUSH1 0x60 ADD MLOAD PUSH1 0x1 PUSH1 0x1 PUSH1 0xA0 SHL SUB AND DUP8 PUSH1 0x1 PUSH1 0x1 PUSH1 0xA0 SHL SUB AND EQ PUSH2 0x62BA JUMPI DUP7 PUSH2 0x62D0 JUMP JUMPDEST PUSH20 0xEEEEEEEEEEEEEEEEEEEEEEEEEEEEEEEEEEEEEEEE JUMPDEST DUP9 PUSH1 0x60 ADD MLOAD PUSH1 0x1 PUSH1 0x1 PUSH1 0xA0 SHL SUB AND DUP8 PUSH1 0x1 PUSH1 0x1 PUSH1 0xA0 SHL SUB AND EQ PUSH2 0x62F3 JUMPI DUP7 PUSH2 0x6309 JUMP JUMPDEST PUSH20 0xEEEEEEEEEEEEEEEEEEEEEEEEEEEEEEEEEEEEEEEE JUMPDEST PUSH1 0x40 DUP1 MLOAD PUSH1 0x0 DUP2 MSTORE PUSH1 0x20 DUP2 ADD SWAP2 DUP3 SWAP1 MSTORE PUSH1 0x1 PUSH1 0x1 PUSH1 0xE0 SHL SUB NOT PUSH1 0xE0 DUP7 SWAP1 SHL AND SWAP1 SWAP2 MSTORE PUSH2 0x633D SWAP3 SWAP2 SWAP1 PUSH1 0x1 SWAP1 PUSH1 0x24 DUP2 ADD PUSH2 0x7E82 JUMP JUMPDEST PUSH1 0x0 PUSH1 0x40 MLOAD DUP1 DUP4 SUB DUP2 DUP7 DUP1 EXTCODESIZE ISZERO DUP1 ISZERO PUSH2 0x6355 JUMPI PUSH1 0x0 DUP1 REVERT JUMPDEST POP GAS STATICCALL ISZERO DUP1 ISZERO PUSH2 0x6369 JUMPI RETURNDATASIZE PUSH1 0x0 DUP1 RETURNDATACOPY RETURNDATASIZE PUSH1 0x0 REVERT JUMPDEST POP POP POP POP PUSH1 0x40 MLOAD RETURNDATASIZE PUSH1 0x0 DUP3 RETURNDATACOPY PUSH1 0x1F RETURNDATASIZE SWAP1 DUP2 ADD PUSH1 0x1F NOT AND DUP3 ADD PUSH1 0x40 MSTORE PUSH2 0x6391 SWAP2 SWAP1 DUP2 ADD SWAP1 PUSH2 0x74E4 JUMP JUMPDEST POP POP SWAP1 POP DUP1 MLOAD DUP7 PUSH1 0x0 ADD MLOAD LT PUSH2 0x63AD JUMPI POP PUSH1 0x0 SWAP2 POP PUSH2 0x55EF SWAP1 POP JUMP JUMPDEST DUP1 DUP7 PUSH1 0x0 ADD MLOAD DUP2 MLOAD DUP2 LT PUSH2 0x63BD JUMPI INVALID JUMPDEST PUSH1 0x20 MUL PUSH1 0x20 ADD ADD MLOAD SWAP3 POP PUSH1 0xF8 DUP4 SWAP1 SHR PUSH1 0x0 SHR PUSH1 0xBB EQ ISZERO PUSH2 0x1711 JUMPI POP PUSH1 0x0 SWAP2 POP PUSH2 0x55EF SWAP1 POP JUMP JUMPDEST PUSH1 0x0 DUP1 PUSH2 0x63EE PUSH2 0x6BE4 JUMP JUMPDEST DUP5 DUP1 PUSH1 0x20 ADD SWAP1 MLOAD DUP2 ADD SWAP1 PUSH2 0x6402 SWAP2 SWAP1 PUSH2 0x719A JUMP JUMPDEST SWAP2 POP SWAP2 POP PUSH1 0x0 DUP7 DUP1 PUSH1 0x20 ADD SWAP1 MLOAD DUP2 ADD SWAP1 PUSH2 0x641C SWAP2 SWAP1 PUSH2 0x719A JUMP JUMPDEST POP PUSH1 0x40 MLOAD PUSH4 0x3C7B5FE9 PUSH1 0xE2 SHL DUP2 MSTORE SWAP1 SWAP2 POP ADDRESS SWAP1 PUSH4 0xF1ED7FA4 SWAP1 PUSH2 0x6449 SWAP1 DUP6 SWAP1 DUP6 SWAP1 DUP9 SWAP1 DUP12 SWAP1 PUSH1 0x4 ADD PUSH2 0x82EC JUMP JUMPDEST PUSH1 0x20 PUSH1 0x40 MLOAD DUP1 DUP4 SUB DUP2 DUP7 DUP1 EXTCODESIZE ISZERO DUP1 ISZERO PUSH2 0x6461 JUMPI PUSH1 0x0 DUP1 REVERT JUMPDEST POP GAS STATICCALL SWAP3 POP POP POP DUP1 ISZERO PUSH2 0x6491 JUMPI POP PUSH1 0x40 DUP1 MLOAD PUSH1 0x1F RETURNDATASIZE SWAP1 DUP2 ADD PUSH1 0x1F NOT AND DUP3 ADD SWAP1 SWAP3 MSTORE PUSH2 0x648E SWAP2 DUP2 ADD SWAP1 PUSH2 0x76EC JUMP JUMPDEST PUSH1 0x1 JUMPDEST PUSH2 0x64BF JUMPI RETURNDATASIZE DUP1 DUP1 ISZERO PUSH2 0x5F5D JUMPI PUSH1 0x40 MLOAD SWAP2 POP PUSH1 0x1F NOT PUSH1 0x3F RETURNDATASIZE ADD AND DUP3 ADD PUSH1 0x40 MSTORE RETURNDATASIZE DUP3 MSTORE RETURNDATASIZE PUSH1 0x0 PUSH1 0x20 DUP5 ADD RETURNDATACOPY PUSH2 0x5F62 JUMP JUMPDEST SWAP4 POP PUSH2 0x55EF SWAP3 POP POP POP JUMP JUMPDEST PUSH1 0x0 DUP1 PUSH1 0x60 DUP7 PUSH1 0x1 PUSH1 0x1 PUSH1 0xA0 SHL SUB AND PUSH4 0x57A281DC DUP7 DUP7 PUSH1 0x40 MLOAD DUP4 PUSH4 0xFFFFFFFF AND PUSH1 0xE0 SHL DUP2 MSTORE PUSH1 0x4 ADD PUSH2 0x64FD SWAP3 SWAP2 SWAP1 PUSH2 0x7DBB JUMP JUMPDEST PUSH1 0x0 PUSH1 0x40 MLOAD DUP1 DUP4 SUB DUP2 DUP7 DUP1 EXTCODESIZE ISZERO DUP1 ISZERO PUSH2 0x6515 JUMPI PUSH1 0x0 DUP1 REVERT JUMPDEST POP GAS STATICCALL ISZERO DUP1 ISZERO PUSH2 0x6529 JUMPI RETURNDATASIZE PUSH1 0x0 DUP1 RETURNDATACOPY RETURNDATASIZE PUSH1 0x0 REVERT JUMPDEST POP POP POP POP PUSH1 0x40 MLOAD RETURNDATASIZE PUSH1 0x0 DUP3 RETURNDATACOPY PUSH1 0x1F RETURNDATASIZE SWAP1 DUP2 ADD PUSH1 0x1F NOT AND DUP3 ADD PUSH1 0x40 MSTORE PUSH2 0x6551 SWAP2 SWAP1 DUP2 ADD SWAP1 PUSH2 0x744C JUMP JUMPDEST SWAP1 POP PUSH1 0x1 SWAP2 POP DUP1 MLOAD PUSH1 0x0 EQ ISZERO PUSH2 0x65EA JUMPI PUSH1 0x40 MLOAD PUSH4 0x15E8A077 PUSH1 0xE2 SHL DUP2 MSTORE PUSH1 0x1 PUSH1 0x1 PUSH1 0xA0 SHL SUB DUP9 AND SWAP1 PUSH4 0x57A281DC SWAP1 PUSH2 0x658F SWAP1 DUP8 SWAP1 DUP10 SWAP1 PUSH1 0x4 ADD PUSH2 0x7DBB JUMP JUMPDEST PUSH1 0x0 PUSH1 0x40 MLOAD DUP1 DUP4 SUB DUP2 DUP7 DUP1 EXTCODESIZE ISZERO DUP1 ISZERO PUSH2 0x65A7 JUMPI PUSH1 0x0 DUP1 REVERT JUMPDEST POP GAS STATICCALL ISZERO DUP1 ISZERO PUSH2 0x65BB JUMPI RETURNDATASIZE PUSH1 0x0 DUP1 RETURNDATACOPY RETURNDATASIZE PUSH1 0x0 REVERT JUMPDEST POP POP POP POP PUSH1 0x40 MLOAD RETURNDATASIZE PUSH1 0x0 DUP3 RETURNDATACOPY PUSH1 0x1F RETURNDATASIZE SWAP1 DUP2 ADD PUSH1 0x1F NOT AND DUP3 ADD PUSH1 0x40 MSTORE PUSH2 0x65E3 SWAP2 SWAP1 DUP2 ADD SWAP1 PUSH2 0x744C JUMP JUMPDEST SWAP1 POP PUSH1 0x0 SWAP2 POP JUMPDEST DUP1 MLOAD DUP7 LT PUSH2 0x65FF JUMPI PUSH1 0x0 DUP1 SWAP3 POP SWAP3 POP POP PUSH2 0x5467 JUMP JUMPDEST DUP1 DUP7 DUP2 MLOAD DUP2 LT PUSH2 0x660B JUMPI INVALID JUMPDEST PUSH1 0x20 MUL PUSH1 0x20 ADD ADD MLOAD SWAP3 POP POP SWAP5 POP SWAP5 SWAP3 POP POP POP JUMP JUMPDEST PUSH1 0x0 DUP1 PUSH1 0x0 DUP1 DUP7 DUP1 PUSH1 0x20 ADD SWAP1 MLOAD DUP2 ADD SWAP1 PUSH2 0x6639 SWAP2 SWAP1 PUSH2 0x714A JUMP JUMPDEST SWAP3 POP SWAP3 POP SWAP3 POP DUP1 ISZERO PUSH2 0x66DD JUMPI PUSH1 0x40 MLOAD PUSH4 0x3CD0243B PUSH1 0xE1 SHL DUP2 MSTORE PUSH1 0x1 PUSH1 0x1 PUSH1 0xA0 SHL SUB DUP4 AND SWAP1 PUSH4 0x79A04876 SWAP1 PUSH3 0x493E0 SWAP1 PUSH2 0x6679 SWAP1 PUSH1 0x0 SWAP1 DUP11 SWAP1 PUSH1 0x4 ADD PUSH2 0x7DA2 JUMP JUMPDEST PUSH1 0x40 DUP1 MLOAD DUP1 DUP4 SUB DUP2 DUP8 DUP1 EXTCODESIZE ISZERO DUP1 ISZERO PUSH2 0x6690 JUMPI PUSH1 0x0 DUP1 REVERT JUMPDEST POP DUP7 STATICCALL SWAP4 POP POP POP POP DUP1 ISZERO PUSH2 0x66C1 JUMPI POP PUSH1 0x40 DUP1 MLOAD PUSH1 0x1F RETURNDATASIZE SWAP1 DUP2 ADD PUSH1 0x1F NOT AND DUP3 ADD SWAP1 SWAP3 MSTORE PUSH2 0x66BE SWAP2 DUP2 ADD SWAP1 PUSH2 0x7AD4 JUMP JUMPDEST PUSH1 0x1 JUMPDEST PUSH2 0x66D1 JUMPI PUSH1 0x0 SWAP4 POP POP POP POP PUSH2 0x55EF JUMP JUMPDEST POP SWAP4 POP PUSH2 0x55EF SWAP3 POP POP POP JUMP JUMPDEST PUSH1 0x40 MLOAD PUSH4 0x66410A21 PUSH1 0xE0 SHL DUP2 MSTORE PUSH1 0x1 PUSH1 0x1 PUSH1 0xA0 SHL SUB DUP4 AND SWAP1 PUSH4 0x66410A21 SWAP1 PUSH3 0x493E0 SWAP1 PUSH2 0x6679 SWAP1 PUSH1 0x0 SWAP1 DUP11 SWAP1 PUSH1 0x4 ADD PUSH2 0x7DA2 JUMP JUMPDEST PUSH1 0x0 DUP1 PUSH1 0x0 DUP6 DUP1 PUSH1 0x20 ADD SWAP1 MLOAD DUP2 ADD SWAP1 PUSH2 0x672A SWAP2 SWAP1 PUSH2 0x70B3 JUMP JUMPDEST SWAP2 POP SWAP2 POP PUSH1 0x0 DUP6 DUP1 PUSH1 0x20 ADD SWAP1 MLOAD DUP2 ADD SWAP1 PUSH2 0x6744 SWAP2 SWAP1 PUSH2 0x7097 JUMP JUMPDEST SWAP1 POP ADDRESS PUSH4 0x30D6570D DUP4 DUP6 DUP5 PUSH2 0x5EC3 DUP11 PUSH2 0x690B JUMP JUMPDEST PUSH1 0x0 DUP1 PUSH1 0x0 DUP6 DUP1 PUSH1 0x20 ADD SWAP1 MLOAD DUP2 ADD SWAP1 PUSH2 0x6771 SWAP2 SWAP1 PUSH2 0x70B3 JUMP JUMPDEST SWAP2 POP SWAP2 POP PUSH1 0x0 DUP6 DUP1 PUSH1 0x20 ADD SWAP1 MLOAD DUP2 ADD SWAP1 PUSH2 0x678B SWAP2 SWAP1 PUSH2 0x7097 JUMP JUMPDEST SWAP1 POP ADDRESS PUSH4 0xA4698417 PUSH3 0x61A80 DUP5 DUP7 DUP6 PUSH2 0x67A3 DUP12 PUSH2 0x690B JUMP JUMPDEST PUSH1 0x40 MLOAD DUP7 PUSH4 0xFFFFFFFF AND PUSH1 0xE0 SHL DUP2 MSTORE PUSH1 0x4 ADD PUSH2 0x67C2 SWAP5 SWAP4 SWAP3 SWAP2 SWAP1 PUSH2 0x7E00 JUMP JUMPDEST PUSH1 0x0 PUSH1 0x40 MLOAD DUP1 DUP4 SUB DUP2 DUP8 DUP1 EXTCODESIZE ISZERO DUP1 ISZERO PUSH2 0x67DA JUMPI PUSH1 0x0 DUP1 REVERT JUMPDEST POP DUP7 STATICCALL SWAP4 POP POP POP POP DUP1 ISZERO PUSH2 0x5F2F JUMPI POP PUSH1 0x40 MLOAD RETURNDATASIZE PUSH1 0x0 DUP3 RETURNDATACOPY PUSH1 0x1F RETURNDATASIZE SWAP1 DUP2 ADD PUSH1 0x1F NOT AND DUP3 ADD PUSH1 0x40 MSTORE PUSH2 0x5F2C SWAP2 SWAP1 DUP2 ADD SWAP1 PUSH2 0x769A JUMP JUMPDEST PUSH1 0x0 PUSH2 0x6818 DUP3 PUSH2 0x69F5 JUMP JUMPDEST SWAP1 POP JUMPDEST SWAP2 SWAP1 POP JUMP JUMPDEST PUSH1 0x0 DUP1 PUSH1 0x0 DUP6 DUP1 PUSH1 0x20 ADD SWAP1 MLOAD DUP2 ADD SWAP1 PUSH2 0x6839 SWAP2 SWAP1 PUSH2 0x70B3 JUMP JUMPDEST SWAP2 POP SWAP2 POP PUSH1 0x0 DUP1 DUP7 DUP1 PUSH1 0x20 ADD SWAP1 MLOAD DUP2 ADD SWAP1 PUSH2 0x6854 SWAP2 SWAP1 PUSH2 0x70B3 JUMP JUMPDEST SWAP2 POP SWAP2 POP PUSH2 0x6864 DUP5 DUP5 DUP4 DUP10 PUSH2 0x378E JUMP JUMPDEST SWAP9 SWAP8 POP POP POP POP POP POP POP POP JUMP JUMPDEST PUSH1 0x0 DUP3 PUSH2 0x687F JUMPI POP PUSH1 0x0 PUSH2 0x5238 JUMP JUMPDEST DUP3 DUP3 MUL DUP3 DUP5 DUP3 DUP2 PUSH2 0x688C JUMPI INVALID JUMPDEST DIV EQ PUSH2 0x55EF JUMPI PUSH2 0x55EF PUSH2 0x68A1 PUSH1 0x1 DUP7 DUP7 PUSH2 0x6AA1 JUMP JUMPDEST PUSH2 0x6AFB JUMP JUMPDEST PUSH1 0x0 DUP3 DUP3 ADD DUP4 DUP2 LT ISZERO PUSH2 0x55EF JUMPI PUSH2 0x55EF PUSH2 0x68A1 PUSH1 0x0 DUP7 DUP7 PUSH2 0x6AA1 JUMP JUMPDEST PUSH1 0x0 DUP2 PUSH2 0x68D8 JUMPI PUSH2 0x68D8 PUSH2 0x68A1 PUSH1 0x3 DUP6 DUP6 PUSH2 0x6AA1 JUMP JUMPDEST PUSH1 0x0 DUP3 DUP5 DUP2 PUSH2 0x68E3 JUMPI INVALID JUMPDEST DIV SWAP5 SWAP4 POP POP POP POP JUMP JUMPDEST PUSH1 0x0 DUP3 DUP3 GT ISZERO PUSH2 0x6905 JUMPI PUSH2 0x6905 PUSH2 0x68A1 PUSH1 0x2 DUP6 DUP6 PUSH2 0x6AA1 JUMP JUMPDEST POP SWAP1 SUB SWAP1 JUMP JUMPDEST PUSH1 0x40 DUP1 MLOAD PUSH1 0x1 DUP1 DUP3 MSTORE DUP2 DUP4 ADD SWAP1 SWAP3 MSTORE PUSH1 0x60 SWAP2 PUSH1 0x20 DUP1 DUP4 ADD SWAP1 DUP1 CALLDATASIZE DUP4 CALLDATACOPY ADD SWAP1 POP POP SWAP1 POP DUP2 DUP2 PUSH1 0x0 DUP2 MLOAD DUP2 LT PUSH2 0x693B JUMPI INVALID JUMPDEST PUSH1 0x20 MUL PUSH1 0x20 ADD ADD DUP2 DUP2 MSTORE POP POP SWAP2 SWAP1 POP JUMP JUMPDEST PUSH1 0x0 DUP4 ISZERO DUP1 PUSH2 0x6959 JUMPI POP DUP2 ISZERO JUMPDEST DUP1 PUSH2 0x6962 JUMPI POP DUP3 ISZERO JUMPDEST ISZERO PUSH2 0x696F JUMPI POP PUSH1 0x0 PUSH2 0x55EF JUMP JUMPDEST DUP4 DUP3 MUL DUP3 DUP6 DUP3 DUP2 PUSH2 0x697C JUMPI INVALID JUMPDEST DIV EQ PUSH2 0x698C JUMPI PUSH1 0x0 SWAP2 POP POP PUSH2 0x55EF JUMP JUMPDEST DUP4 PUSH1 0x1 DUP6 SUB DUP3 ADD DUP2 PUSH2 0x699A JUMPI INVALID JUMPDEST DIV SWAP6 SWAP5 POP POP POP POP POP JUMP JUMPDEST DUP2 PUSH1 0x20 ADD DUP4 MLOAD LT ISZERO PUSH2 0x69C3 JUMPI PUSH2 0x69C3 PUSH2 0x68A1 PUSH1 0x5 DUP6 MLOAD DUP6 PUSH1 0x20 ADD PUSH2 0x6B03 JUMP JUMPDEST SWAP2 ADD PUSH1 0x20 ADD MSTORE JUMP JUMPDEST PUSH1 0x0 DUP2 PUSH1 0x20 ADD DUP4 MLOAD LT ISZERO PUSH2 0x69EC JUMPI PUSH2 0x69EC PUSH2 0x68A1 PUSH1 0x5 DUP6 MLOAD DUP6 PUSH1 0x20 ADD PUSH2 0x6B03 JUMP JUMPDEST POP ADD PUSH1 0x20 ADD MLOAD SWAP1 JUMP JUMPDEST PUSH1 0x0 PUSH1 0x12 SWAP1 POP PUSH1 0x0 PUSH1 0x60 DUP4 PUSH1 0x1 PUSH1 0x1 PUSH1 0xA0 SHL SUB AND PUSH1 0x40 MLOAD DUP1 PUSH1 0x40 ADD PUSH1 0x40 MSTORE DUP1 PUSH1 0x4 DUP2 MSTORE PUSH1 0x20 ADD PUSH4 0x313CE567 PUSH1 0xE0 SHL DUP2 MSTORE POP PUSH1 0x40 MLOAD PUSH2 0x6A33 SWAP2 SWAP1 PUSH2 0x7D72 JUMP JUMPDEST PUSH1 0x0 PUSH1 0x40 MLOAD DUP1 DUP4 SUB DUP2 DUP6 GAS STATICCALL SWAP2 POP POP RETURNDATASIZE DUP1 PUSH1 0x0 DUP2 EQ PUSH2 0x6A6E JUMPI PUSH1 0x40 MLOAD SWAP2 POP PUSH1 0x1F NOT PUSH1 0x3F RETURNDATASIZE ADD AND DUP3 ADD PUSH1 0x40 MSTORE RETURNDATASIZE DUP3 MSTORE RETURNDATASIZE PUSH1 0x0 PUSH1 0x20 DUP5 ADD RETURNDATACOPY PUSH2 0x6A73 JUMP JUMPDEST PUSH1 0x60 SWAP2 POP JUMPDEST POP SWAP2 POP SWAP2 POP DUP2 DUP1 ISZERO PUSH2 0x6A87 JUMPI POP PUSH1 0x20 DUP2 MLOAD LT ISZERO JUMPDEST ISZERO PUSH2 0x6A9A JUMPI PUSH2 0x6A97 DUP2 PUSH1 0x0 PUSH2 0x5E13 JUMP JUMPDEST SWAP3 POP JUMPDEST POP POP SWAP2 SWAP1 POP JUMP JUMPDEST PUSH1 0x60 PUSH4 0xE946C1BB PUSH1 0xE0 SHL DUP5 DUP5 DUP5 PUSH1 0x40 MLOAD PUSH1 0x24 ADD PUSH2 0x6AC0 SWAP4 SWAP3 SWAP2 SWAP1 PUSH2 0x8157 JUMP JUMPDEST PUSH1 0x40 DUP1 MLOAD PUSH1 0x1F NOT DUP2 DUP5 SUB ADD DUP2 MSTORE SWAP2 SWAP1 MSTORE PUSH1 0x20 DUP2 ADD DUP1 MLOAD PUSH1 0x1 PUSH1 0x1 PUSH1 0xE0 SHL SUB AND PUSH1 0x1 PUSH1 0x1 PUSH1 0xE0 SHL SUB NOT SWAP1 SWAP4 AND SWAP3 SWAP1 SWAP3 OR SWAP1 SWAP2 MSTORE SWAP1 POP SWAP4 SWAP3 POP POP POP JUMP JUMPDEST DUP1 MLOAD PUSH1 0x20 DUP3 ADD REVERT JUMPDEST PUSH1 0x60 PUSH4 0x28006595 PUSH1 0xE0 SHL DUP5 DUP5 DUP5 PUSH1 0x40 MLOAD PUSH1 0x24 ADD PUSH2 0x6AC0 SWAP4 SWAP3 SWAP2 SWAP1 PUSH2 0x8178 JUMP JUMPDEST PUSH1 0x40 DUP1 MLOAD PUSH1 0x80 DUP2 ADD DUP3 MSTORE PUSH1 0x0 DUP1 DUP3 MSTORE PUSH1 0x20 DUP3 ADD DUP2 SWAP1 MSTORE SWAP2 DUP2 ADD DUP3 SWAP1 MSTORE PUSH1 0x60 DUP2 ADD SWAP2 SWAP1 SWAP2 MSTORE SWAP1 JUMP JUMPDEST PUSH1 0x40 MLOAD DUP1 PUSH1 0x40 ADD PUSH1 0x40 MSTORE DUP1 PUSH1 0x0 DUP2 MSTORE PUSH1 0x20 ADD PUSH1 0x60 DUP2 MSTORE POP SWAP1 JUMP JUMPDEST PUSH1 0x40 MLOAD DUP1 PUSH1 0xA0 ADD PUSH1 0x40 MSTORE DUP1 PUSH1 0x0 DUP2 MSTORE PUSH1 0x20 ADD PUSH1 0x0 DUP2 MSTORE PUSH1 0x20 ADD PUSH1 0x0 DUP2 MSTORE PUSH1 0x20 ADD PUSH1 0x0 DUP2 MSTORE PUSH1 0x20 ADD PUSH1 0x0 DUP2 MSTORE POP SWAP1 JUMP JUMPDEST PUSH1 0x40 MLOAD DUP1 PUSH1 0xA0 ADD PUSH1 0x40 MSTORE DUP1 PUSH1 0x0 DUP1 NOT AND DUP2 MSTORE PUSH1 0x20 ADD PUSH1 0x0 DUP2 MSTORE PUSH1 0x20 ADD PUSH1 0x0 DUP2 MSTORE PUSH1 0x20 ADD PUSH1 0x0 DUP2 MSTORE PUSH1 0x20 ADD PUSH1 0x60 DUP2 MSTORE POP SWAP1 JUMP JUMPDEST PUSH1 0x40 DUP1 MLOAD PUSH1 0x60 DUP2 ADD DUP3 MSTORE PUSH1 0x0 DUP1 DUP3 MSTORE PUSH1 0x20 DUP3 ADD DUP2 SWAP1 MSTORE SWAP2 DUP2 ADD SWAP2 SWAP1 SWAP2 MSTORE SWAP1 JUMP JUMPDEST PUSH1 0x40 MLOAD DUP1 PUSH1 0xA0 ADD PUSH1 0x40 MSTORE DUP1 PUSH1 0x0 DUP2 MSTORE PUSH1 0x20 ADD PUSH1 0x0 PUSH1 0x1 PUSH1 0x1 PUSH1 0xA0 SHL SUB AND DUP2 MSTORE PUSH1 0x20 ADD PUSH1 0x0 PUSH1 0x1 PUSH1 0x1 PUSH1 0xA0 SHL SUB AND DUP2 MSTORE PUSH1 0x20 ADD PUSH1 0x0 PUSH1 0x1 PUSH1 0x1 PUSH1 0xA0 SHL SUB AND DUP2 MSTORE PUSH1 0x20 ADD PUSH1 0x60 DUP2 MSTORE POP SWAP1 JUMP JUMPDEST DUP1 CALLDATALOAD PUSH2 0x5238 DUP2 PUSH2 0x8477 JUMP JUMPDEST DUP1 MLOAD PUSH2 0x5238 DUP2 PUSH2 0x8477 JUMP JUMPDEST PUSH1 0x0 DUP3 PUSH1 0x1F DUP4 ADD SLT PUSH2 0x6C54 JUMPI DUP1 DUP2 REVERT JUMPDEST DUP2 CALLDATALOAD PUSH2 0x6C67 PUSH2 0x6C62 DUP3 PUSH2 0x83ED JUMP JUMPDEST PUSH2 0x83C7 JUMP JUMPDEST DUP2 DUP2 MSTORE SWAP2 POP PUSH1 0x20 DUP1 DUP4 ADD SWAP1 DUP5 DUP2 ADD DUP2 DUP5 MUL DUP7 ADD DUP3 ADD DUP8 LT ISZERO PUSH2 0x6C88 JUMPI PUSH1 0x0 DUP1 REVERT JUMPDEST PUSH1 0x0 JUMPDEST DUP5 DUP2 LT ISZERO PUSH2 0x6CB0 JUMPI DUP2 CALLDATALOAD PUSH2 0x6C9E DUP2 PUSH2 0x8477 JUMP JUMPDEST DUP5 MSTORE SWAP3 DUP3 ADD SWAP3 SWAP1 DUP3 ADD SWAP1 PUSH1 0x1 ADD PUSH2 0x6C8B JUMP JUMPDEST POP POP POP POP POP SWAP3 SWAP2 POP POP JUMP JUMPDEST PUSH1 0x0 DUP3 PUSH1 0x1F DUP4 ADD SLT PUSH2 0x6CCB JUMPI DUP1 DUP2 REVERT JUMPDEST DUP2 CALLDATALOAD PUSH2 0x6CD9 PUSH2 0x6C62 DUP3 PUSH2 0x83ED JUMP JUMPDEST DUP2 DUP2 MSTORE SWAP2 POP PUSH1 0x20 DUP1 DUP4 ADD SWAP1 DUP5 DUP2 ADD PUSH1 0x0 JUMPDEST DUP5 DUP2 LT ISZERO PUSH2 0x6CB0 JUMPI PUSH2 0x6D01 DUP9 DUP5 DUP5 CALLDATALOAD DUP11 ADD ADD PUSH2 0x6C44 JUMP JUMPDEST DUP5 MSTORE SWAP3 DUP3 ADD SWAP3 SWAP1 DUP3 ADD SWAP1 PUSH1 0x1 ADD PUSH2 0x6CEA JUMP JUMPDEST PUSH1 0x0 DUP3 PUSH1 0x1F DUP4 ADD SLT PUSH2 0x6D23 JUMPI DUP1 DUP2 REVERT JUMPDEST DUP2 CALLDATALOAD PUSH2 0x6D31 PUSH2 0x6C62 DUP3 PUSH2 0x83ED JUMP JUMPDEST DUP2 DUP2 MSTORE SWAP2 POP PUSH1 0x20 DUP1 DUP4 ADD SWAP1 DUP5 DUP2 ADD PUSH1 0x0 JUMPDEST DUP5 DUP2 LT ISZERO PUSH2 0x6CB0 JUMPI DUP2 CALLDATALOAD DUP8 ADD PUSH1 0x60 DUP1 PUSH1 0x1F NOT DUP4 DUP13 SUB ADD SLT ISZERO PUSH2 0x6D63 JUMPI PUSH1 0x0 DUP1 REVERT JUMPDEST PUSH2 0x6D6C DUP2 PUSH2 0x83C7 JUMP JUMPDEST PUSH2 0x6D78 DUP12 DUP8 DUP6 ADD PUSH2 0x6C2E JUMP JUMPDEST DUP2 MSTORE PUSH1 0x40 DUP1 DUP5 ADD CALLDATALOAD PUSH1 0x1 PUSH1 0x1 PUSH1 0x40 SHL SUB DUP2 GT ISZERO PUSH2 0x6D94 JUMPI PUSH1 0x0 DUP1 REVERT JUMPDEST PUSH2 0x6DA2 DUP14 DUP10 DUP4 DUP9 ADD ADD PUSH2 0x6E7E JUMP JUMPDEST DUP9 DUP5 ADD MSTORE POP SWAP2 SWAP1 SWAP3 ADD CALLDATALOAD SWAP1 DUP3 ADD MSTORE DUP5 MSTORE SWAP3 DUP3 ADD SWAP3 SWAP1 DUP3 ADD SWAP1 PUSH1 0x1 ADD PUSH2 0x6D42 JUMP JUMPDEST PUSH1 0x0 DUP3 PUSH1 0x1F DUP4 ADD SLT PUSH2 0x6DD2 JUMPI DUP1 DUP2 REVERT JUMPDEST DUP2 CALLDATALOAD PUSH2 0x6DE0 PUSH2 0x6C62 DUP3 PUSH2 0x83ED JUMP JUMPDEST DUP2 DUP2 MSTORE SWAP2 POP PUSH1 0x20 DUP1 DUP4 ADD SWAP1 DUP5 DUP2 ADD DUP2 DUP5 MUL DUP7 ADD DUP3 ADD DUP8 LT ISZERO PUSH2 0x6E01 JUMPI PUSH1 0x0 DUP1 REVERT JUMPDEST PUSH1 0x0 JUMPDEST DUP5 DUP2 LT ISZERO PUSH2 0x6CB0 JUMPI DUP2 CALLDATALOAD DUP5 MSTORE SWAP3 DUP3 ADD SWAP3 SWAP1 DUP3 ADD SWAP1 PUSH1 0x1 ADD PUSH2 0x6E04 JUMP JUMPDEST PUSH1 0x0 DUP3 PUSH1 0x1F DUP4 ADD SLT PUSH2 0x6E30 JUMPI DUP1 DUP2 REVERT JUMPDEST DUP2 MLOAD PUSH2 0x6E3E PUSH2 0x6C62 DUP3 PUSH2 0x83ED JUMP JUMPDEST DUP2 DUP2 MSTORE SWAP2 POP PUSH1 0x20 DUP1 DUP4 ADD SWAP1 DUP5 DUP2 ADD DUP2 DUP5 MUL DUP7 ADD DUP3 ADD DUP8 LT ISZERO PUSH2 0x6E5F JUMPI PUSH1 0x0 DUP1 REVERT JUMPDEST PUSH1 0x0 JUMPDEST DUP5 DUP2 LT ISZERO PUSH2 0x6CB0 JUMPI DUP2 MLOAD DUP5 MSTORE SWAP3 DUP3 ADD SWAP3 SWAP1 DUP3 ADD SWAP1 PUSH1 0x1 ADD PUSH2 0x6E62 JUMP JUMPDEST PUSH1 0x0 DUP3 PUSH1 0x1F DUP4 ADD SLT PUSH2 0x6E8E JUMPI DUP1 DUP2 REVERT JUMPDEST DUP2 CALLDATALOAD PUSH2 0x6E9C PUSH2 0x6C62 DUP3 PUSH2 0x840C JUMP JUMPDEST SWAP2 POP DUP1 DUP3 MSTORE DUP4 PUSH1 0x20 DUP3 DUP6 ADD ADD GT ISZERO PUSH2 0x6EB3 JUMPI PUSH1 0x0 DUP1 REVERT JUMPDEST DUP1 PUSH1 0x20 DUP5 ADD PUSH1 0x20 DUP5 ADD CALLDATACOPY PUSH1 0x0 SWAP1 DUP3 ADD PUSH1 0x20 ADD MSTORE SWAP3 SWAP2 POP POP JUMP JUMPDEST PUSH1 0x0 DUP3 PUSH1 0x1F DUP4 ADD SLT PUSH2 0x6EDC JUMPI DUP1 DUP2 REVERT JUMPDEST DUP2 MLOAD PUSH2 0x6EEA PUSH2 0x6C62 DUP3 PUSH2 0x840C JUMP JUMPDEST SWAP2 POP DUP1 DUP3 MSTORE DUP4 PUSH1 0x20 DUP3 DUP6 ADD ADD GT ISZERO PUSH2 0x6F01 JUMPI PUSH1 0x0 DUP1 REVERT JUMPDEST PUSH2 0x6F12 DUP2 PUSH1 0x20 DUP5 ADD PUSH1 0x20 DUP7 ADD PUSH2 0x843A JUMP JUMPDEST POP SWAP3 SWAP2 POP POP JUMP JUMPDEST DUP1 MLOAD PUSH1 0x2 DUP2 LT PUSH2 0x5238 JUMPI PUSH1 0x0 DUP1 REVERT JUMPDEST PUSH1 0x0 PUSH1 0x60 DUP3 DUP5 SUB SLT ISZERO PUSH2 0x6F39 JUMPI DUP1 DUP2 REVERT JUMPDEST PUSH2 0x6F43 PUSH1 0x60 PUSH2 0x83C7 JUMP JUMPDEST SWAP1 POP DUP2 CALLDATALOAD PUSH2 0x6F50 DUP2 PUSH2 0x8477 JUMP JUMPDEST DUP2 MSTORE PUSH1 0x20 DUP3 ADD CALLDATALOAD PUSH2 0x6F60 DUP2 PUSH2 0x848C JUMP JUMPDEST PUSH1 0x20 DUP3 ADD MSTORE PUSH1 0x40 DUP3 ADD CALLDATALOAD PUSH2 0x6F73 DUP2 PUSH2 0x848C JUMP JUMPDEST PUSH1 0x40 DUP3 ADD MSTORE SWAP3 SWAP2 POP POP JUMP JUMPDEST PUSH1 0x0 PUSH1 0x60 DUP3 DUP5 SUB SLT ISZERO PUSH2 0x6F8F JUMPI DUP1 DUP2 REVERT JUMPDEST PUSH2 0x6F99 PUSH1 0x60 PUSH2 0x83C7 JUMP JUMPDEST SWAP1 POP DUP2 MLOAD PUSH2 0x6FA6 DUP2 PUSH2 0x8477 JUMP JUMPDEST DUP2 MSTORE PUSH1 0x20 DUP3 ADD MLOAD PUSH2 0x6FB6 DUP2 PUSH2 0x848C JUMP JUMPDEST PUSH1 0x20 DUP3 ADD MSTORE PUSH1 0x40 DUP3 ADD MLOAD PUSH2 0x6F73 DUP2 PUSH2 0x848C JUMP JUMPDEST PUSH1 0x0 PUSH1 0x40 DUP3 DUP5 SUB SLT ISZERO PUSH2 0x6FDA JUMPI DUP1 DUP2 REVERT JUMPDEST PUSH2 0x6FE4 PUSH1 0x40 PUSH2 0x83C7 JUMP JUMPDEST SWAP1 POP DUP2 CALLDATALOAD PUSH2 0x6FF1 DUP2 PUSH2 0x8477 JUMP JUMPDEST DUP2 MSTORE PUSH1 0x20 DUP3 ADD CALLDATALOAD PUSH2 0x7001 DUP2 PUSH2 0x8477 JUMP JUMPDEST PUSH1 0x20 DUP3 ADD MSTORE SWAP3 SWAP2 POP POP JUMP JUMPDEST PUSH1 0x0 PUSH1 0xA0 DUP3 DUP5 SUB SLT ISZERO PUSH2 0x701D JUMPI DUP1 DUP2 REVERT JUMPDEST PUSH2 0x7027 PUSH1 0xA0 PUSH2 0x83C7 JUMP JUMPDEST SWAP1 POP DUP2 CALLDATALOAD DUP2 MSTORE PUSH1 0x20 DUP3 ADD CALLDATALOAD PUSH2 0x703B DUP2 PUSH2 0x8477 JUMP JUMPDEST PUSH1 0x20 DUP3 ADD MSTORE PUSH1 0x40 DUP3 ADD CALLDATALOAD PUSH2 0x704E DUP2 PUSH2 0x8477 JUMP JUMPDEST PUSH1 0x40 DUP3 ADD MSTORE PUSH1 0x60 DUP3 ADD CALLDATALOAD PUSH2 0x7061 DUP2 PUSH2 0x8477 JUMP JUMPDEST PUSH1 0x60 DUP3 ADD MSTORE PUSH1 0x80 DUP3 ADD CALLDATALOAD PUSH1 0x1 PUSH1 0x1 PUSH1 0x40 SHL SUB DUP2 GT ISZERO PUSH2 0x707F JUMPI PUSH1 0x0 DUP1 REVERT JUMPDEST PUSH2 0x708B DUP5 DUP3 DUP6 ADD PUSH2 0x6E7E JUMP JUMPDEST PUSH1 0x80 DUP4 ADD MSTORE POP SWAP3 SWAP2 POP POP JUMP JUMPDEST PUSH1 0x0 PUSH1 0x20 DUP3 DUP5 SUB SLT ISZERO PUSH2 0x70A8 JUMPI DUP1 DUP2 REVERT JUMPDEST DUP2 MLOAD PUSH2 0x55EF DUP2 PUSH2 0x8477 JUMP JUMPDEST PUSH1 0x0 DUP1 PUSH1 0x40 DUP4 DUP6 SUB SLT ISZERO PUSH2 0x70C5 JUMPI DUP1 DUP2 REVERT JUMPDEST DUP3 MLOAD PUSH2 0x70D0 DUP2 PUSH2 0x8477 JUMP JUMPDEST PUSH1 0x20 DUP5 ADD MLOAD SWAP1 SWAP3 POP PUSH2 0x70E1 DUP2 PUSH2 0x8477 JUMP JUMPDEST DUP1 SWAP2 POP POP SWAP3 POP SWAP3 SWAP1 POP JUMP JUMPDEST PUSH1 0x0 DUP1 PUSH1 0x0 DUP1 PUSH1 0x80 DUP6 DUP8 SUB SLT ISZERO PUSH2 0x7101 JUMPI DUP2 DUP3 REVERT JUMPDEST DUP5 MLOAD PUSH2 0x710C DUP2 PUSH2 0x8477 JUMP JUMPDEST PUSH1 0x20 DUP7 ADD MLOAD SWAP1 SWAP5 POP PUSH2 0x711D DUP2 PUSH2 0x8477 JUMP JUMPDEST PUSH1 0x40 DUP7 ADD MLOAD SWAP1 SWAP4 POP PUSH2 0x712E DUP2 PUSH2 0x8477 JUMP JUMPDEST PUSH1 0x60 DUP7 ADD MLOAD SWAP1 SWAP3 POP PUSH2 0x713F DUP2 PUSH2 0x8477 JUMP JUMPDEST SWAP4 SWAP7 SWAP3 SWAP6 POP SWAP1 SWAP4 POP POP JUMP JUMPDEST PUSH1 0x0 DUP1 PUSH1 0x0 PUSH1 0x60 DUP5 DUP7 SUB SLT ISZERO PUSH2 0x715E JUMPI DUP1 DUP2 REVERT JUMPDEST DUP4 MLOAD PUSH2 0x7169 DUP2 PUSH2 0x8477 JUMP JUMPDEST PUSH1 0x20 DUP6 ADD MLOAD SWAP1 SWAP4 POP PUSH2 0x717A DUP2 PUSH2 0x8477 JUMP JUMPDEST PUSH1 0x40 DUP6 ADD MLOAD SWAP1 SWAP3 POP DUP1 ISZERO ISZERO DUP2 EQ PUSH2 0x718F JUMPI DUP2 DUP3 REVERT JUMPDEST DUP1 SWAP2 POP POP SWAP3 POP SWAP3 POP SWAP3 JUMP JUMPDEST PUSH1 0x0 DUP1 PUSH1 0x40 DUP4 DUP6 SUB SLT ISZERO PUSH2 0x71AC JUMPI DUP2 DUP3 REVERT JUMPDEST DUP3 MLOAD PUSH2 0x71B7 DUP2 PUSH2 0x8477 JUMP JUMPDEST PUSH1 0x20 DUP5 ADD MLOAD SWAP1 SWAP3 POP PUSH1 0x1 PUSH1 0x1 PUSH1 0x40 SHL SUB DUP1 DUP3 GT ISZERO PUSH2 0x71D3 JUMPI DUP3 DUP4 REVERT JUMPDEST SWAP1 DUP5 ADD SWAP1 PUSH1 0xA0 DUP3 DUP8 SUB SLT ISZERO PUSH2 0x71E6 JUMPI DUP3 DUP4 REVERT JUMPDEST PUSH2 0x71F0 PUSH1 0xA0 PUSH2 0x83C7 JUMP JUMPDEST DUP3 MLOAD DUP2 MSTORE PUSH2 0x7201 DUP8 PUSH1 0x20 DUP6 ADD PUSH2 0x6C39 JUMP JUMPDEST PUSH1 0x20 DUP3 ADD MSTORE PUSH2 0x7213 DUP8 PUSH1 0x40 DUP6 ADD PUSH2 0x6C39 JUMP JUMPDEST PUSH1 0x40 DUP3 ADD MSTORE PUSH2 0x7225 DUP8 PUSH1 0x60 DUP6 ADD PUSH2 0x6C39 JUMP JUMPDEST PUSH1 0x60 DUP3 ADD MSTORE PUSH1 0x80 DUP4 ADD MLOAD DUP3 DUP2 GT ISZERO PUSH2 0x723B JUMPI DUP5 DUP6 REVERT JUMPDEST PUSH2 0x7247 DUP9 DUP3 DUP7 ADD PUSH2 0x6ECC JUMP JUMPDEST PUSH1 0x80 DUP4 ADD MSTORE POP DUP1 SWAP4 POP POP POP POP SWAP3 POP SWAP3 SWAP1 POP JUMP JUMPDEST PUSH1 0x0 DUP1 PUSH1 0x0 DUP1 PUSH1 0x0 PUSH1 0xA0 DUP7 DUP9 SUB SLT ISZERO PUSH2 0x7271 JUMPI DUP3 DUP4 REVERT JUMPDEST DUP6 CALLDATALOAD PUSH2 0x727C DUP2 PUSH2 0x8477 JUMP JUMPDEST SWAP5 POP PUSH1 0x20 DUP7 ADD CALLDATALOAD PUSH2 0x728C DUP2 PUSH2 0x8477 JUMP JUMPDEST SWAP4 POP PUSH1 0x40 DUP7 ADD CALLDATALOAD PUSH2 0x729C DUP2 PUSH2 0x8477 JUMP JUMPDEST SWAP3 POP PUSH1 0x60 DUP7 ADD CALLDATALOAD PUSH2 0x72AC DUP2 PUSH2 0x8477 JUMP JUMPDEST SWAP2 POP PUSH1 0x80 DUP7 ADD CALLDATALOAD PUSH1 0x1 PUSH1 0x1 PUSH1 0x40 SHL SUB DUP2 GT ISZERO PUSH2 0x72C6 JUMPI DUP2 DUP3 REVERT JUMPDEST PUSH2 0x72D2 DUP9 DUP3 DUP10 ADD PUSH2 0x6DC2 JUMP JUMPDEST SWAP2 POP POP SWAP3 SWAP6 POP SWAP3 SWAP6 SWAP1 SWAP4 POP JUMP JUMPDEST PUSH1 0x0 DUP1 PUSH1 0x0 DUP1 PUSH1 0x80 DUP6 DUP8 SUB SLT ISZERO PUSH2 0x72F4 JUMPI DUP2 DUP3 REVERT JUMPDEST DUP5 CALLDATALOAD PUSH2 0x72FF DUP2 PUSH2 0x8477 JUMP JUMPDEST SWAP4 POP PUSH1 0x20 DUP6 ADD CALLDATALOAD PUSH2 0x730F DUP2 PUSH2 0x8477 JUMP JUMPDEST SWAP3 POP PUSH1 0x40 DUP6 ADD CALLDATALOAD PUSH2 0x731F DUP2 PUSH2 0x8477 JUMP JUMPDEST SWAP2 POP PUSH1 0x60 DUP6 ADD CALLDATALOAD PUSH1 0x1 PUSH1 0x1 PUSH1 0x40 SHL SUB DUP2 GT ISZERO PUSH2 0x7339 JUMPI DUP2 DUP3 REVERT JUMPDEST PUSH2 0x7345 DUP8 DUP3 DUP9 ADD PUSH2 0x6DC2 JUMP JUMPDEST SWAP2 POP POP SWAP3 SWAP6 SWAP2 SWAP5 POP SWAP3 POP JUMP JUMPDEST PUSH1 0x0 DUP1 PUSH1 0x0 DUP1 PUSH1 0x80 DUP6 DUP8 SUB SLT ISZERO PUSH2 0x7366 JUMPI DUP2 DUP3 REVERT JUMPDEST DUP5 CALLDATALOAD PUSH2 0x7371 DUP2 PUSH2 0x8477 JUMP JUMPDEST SWAP4 POP PUSH1 0x20 DUP6 ADD CALLDATALOAD PUSH2 0x7381 DUP2 PUSH2 0x8477 JUMP JUMPDEST SWAP3 POP PUSH1 0x40 DUP6 ADD CALLDATALOAD PUSH2 0x7391 DUP2 PUSH2 0x8477 JUMP JUMPDEST SWAP4 SWAP7 SWAP3 SWAP6 POP SWAP3 SWAP4 PUSH1 0x60 ADD CALLDATALOAD SWAP3 POP POP JUMP JUMPDEST PUSH1 0x0 DUP1 PUSH1 0x0 PUSH1 0x60 DUP5 DUP7 SUB SLT ISZERO PUSH2 0x73B5 JUMPI DUP1 DUP2 REVERT JUMPDEST DUP4 CALLDATALOAD PUSH2 0x73C0 DUP2 PUSH2 0x8477 JUMP JUMPDEST SWAP3 POP PUSH1 0x20 DUP5 ADD CALLDATALOAD PUSH1 0x1 PUSH1 0x1 PUSH1 0x40 SHL SUB DUP1 DUP3 GT ISZERO PUSH2 0x73DB JUMPI DUP3 DUP4 REVERT JUMPDEST PUSH2 0x73E7 DUP8 DUP4 DUP9 ADD PUSH2 0x6C44 JUMP JUMPDEST SWAP4 POP PUSH1 0x40 DUP7 ADD CALLDATALOAD SWAP2 POP DUP1 DUP3 GT ISZERO PUSH2 0x73FC JUMPI DUP3 DUP4 REVERT JUMPDEST POP PUSH2 0x7409 DUP7 DUP3 DUP8 ADD PUSH2 0x6DC2 JUMP JUMPDEST SWAP2 POP POP SWAP3 POP SWAP3 POP SWAP3 JUMP JUMPDEST PUSH1 0x0 DUP1 PUSH1 0x0 DUP1 PUSH1 0x0 PUSH1 0xA0 DUP7 DUP9 SUB SLT ISZERO PUSH2 0x742A JUMPI DUP3 DUP4 REVERT JUMPDEST DUP6 CALLDATALOAD PUSH2 0x7435 DUP2 PUSH2 0x8477 JUMP JUMPDEST SWAP5 POP PUSH1 0x20 DUP7 ADD CALLDATALOAD SWAP4 POP PUSH1 0x40 DUP7 ADD CALLDATALOAD PUSH2 0x729C DUP2 PUSH2 0x8477 JUMP JUMPDEST PUSH1 0x0 PUSH1 0x20 DUP1 DUP4 DUP6 SUB SLT ISZERO PUSH2 0x745E JUMPI DUP2 DUP3 REVERT JUMPDEST DUP3 MLOAD PUSH1 0x1 PUSH1 0x1 PUSH1 0x40 SHL SUB DUP2 GT ISZERO PUSH2 0x7473 JUMPI DUP3 DUP4 REVERT JUMPDEST DUP4 ADD PUSH1 0x1F DUP2 ADD DUP6 SGT PUSH2 0x7483 JUMPI DUP3 DUP4 REVERT JUMPDEST DUP1 MLOAD PUSH2 0x7491 PUSH2 0x6C62 DUP3 PUSH2 0x83ED JUMP JUMPDEST DUP2 DUP2 MSTORE DUP4 DUP2 ADD SWAP1 DUP4 DUP6 ADD DUP6 DUP5 MUL DUP6 ADD DUP7 ADD DUP10 LT ISZERO PUSH2 0x74AD JUMPI DUP7 DUP8 REVERT JUMPDEST DUP7 SWAP5 POP JUMPDEST DUP4 DUP6 LT ISZERO PUSH2 0x74D8 JUMPI DUP1 MLOAD PUSH2 0x74C4 DUP2 PUSH2 0x8477 JUMP JUMPDEST DUP4 MSTORE PUSH1 0x1 SWAP5 SWAP1 SWAP5 ADD SWAP4 SWAP2 DUP6 ADD SWAP2 DUP6 ADD PUSH2 0x74B1 JUMP JUMPDEST POP SWAP8 SWAP7 POP POP POP POP POP POP POP JUMP JUMPDEST PUSH1 0x0 DUP1 PUSH1 0x0 PUSH1 0x60 DUP5 DUP7 SUB SLT ISZERO PUSH2 0x74F8 JUMPI DUP1 DUP2 REVERT JUMPDEST DUP4 MLOAD PUSH1 0x1 PUSH1 0x1 PUSH1 0x40 SHL SUB DUP1 DUP3 GT ISZERO PUSH2 0x750E JUMPI DUP3 DUP4 REVERT JUMPDEST DUP2 DUP7 ADD SWAP2 POP DUP7 PUSH1 0x1F DUP4 ADD SLT PUSH2 0x7521 JUMPI DUP3 DUP4 REVERT JUMPDEST DUP2 MLOAD PUSH2 0x752F PUSH2 0x6C62 DUP3 PUSH2 0x83ED JUMP JUMPDEST DUP1 DUP3 DUP3 MSTORE PUSH1 0x20 DUP1 DUP4 ADD SWAP3 POP DUP1 DUP7 ADD DUP12 DUP3 DUP4 DUP8 MUL DUP10 ADD ADD GT ISZERO PUSH2 0x754F JUMPI DUP8 DUP9 REVERT JUMPDEST DUP8 SWAP7 POP JUMPDEST DUP5 DUP8 LT ISZERO PUSH2 0x7571 JUMPI DUP1 MLOAD DUP5 MSTORE PUSH1 0x1 SWAP7 SWAP1 SWAP7 ADD SWAP6 SWAP3 DUP2 ADD SWAP3 DUP2 ADD PUSH2 0x7553 JUMP JUMPDEST POP DUP10 ADD MLOAD SWAP1 SWAP8 POP SWAP4 POP POP POP DUP1 DUP3 GT ISZERO PUSH2 0x7588 JUMPI DUP3 DUP4 REVERT JUMPDEST POP PUSH2 0x7595 DUP7 DUP3 DUP8 ADD PUSH2 0x6E20 JUMP JUMPDEST SWAP3 POP POP PUSH2 0x75A5 DUP6 PUSH1 0x40 DUP7 ADD PUSH2 0x6F19 JUMP JUMPDEST SWAP1 POP SWAP3 POP SWAP3 POP SWAP3 JUMP JUMPDEST PUSH1 0x0 PUSH1 0x20 DUP1 DUP4 DUP6 SUB SLT ISZERO PUSH2 0x75C0 JUMPI DUP2 DUP3 REVERT JUMPDEST DUP3 MLOAD PUSH1 0x1 PUSH1 0x1 PUSH1 0x40 SHL SUB DUP2 GT ISZERO PUSH2 0x75D5 JUMPI DUP3 DUP4 REVERT JUMPDEST DUP4 ADD PUSH1 0x1F DUP2 ADD DUP6 SGT PUSH2 0x75E5 JUMPI DUP3 DUP4 REVERT JUMPDEST DUP1 MLOAD PUSH2 0x75F3 PUSH2 0x6C62 DUP3 PUSH2 0x83ED JUMP JUMPDEST DUP2 DUP2 MSTORE DUP4 DUP2 ADD SWAP1 DUP4 DUP6 ADD DUP6 DUP5 MUL DUP6 ADD DUP7 ADD DUP10 LT ISZERO PUSH2 0x760F JUMPI DUP7 DUP8 REVERT JUMPDEST DUP7 SWAP5 POP JUMPDEST DUP4 DUP6 LT ISZERO PUSH2 0x74D8 JUMPI DUP1 MLOAD DUP4 MSTORE PUSH1 0x1 SWAP5 SWAP1 SWAP5 ADD SWAP4 SWAP2 DUP6 ADD SWAP2 DUP6 ADD PUSH2 0x7613 JUMP JUMPDEST PUSH1 0x0 DUP1 PUSH1 0x0 PUSH1 0x60 DUP5 DUP7 SUB SLT ISZERO PUSH2 0x7645 JUMPI DUP1 DUP2 REVERT JUMPDEST DUP4 CALLDATALOAD PUSH1 0x1 PUSH1 0x1 PUSH1 0x40 SHL SUB DUP1 DUP3 GT ISZERO PUSH2 0x765B JUMPI DUP3 DUP4 REVERT JUMPDEST PUSH2 0x7667 DUP8 DUP4 DUP9 ADD PUSH2 0x6D13 JUMP JUMPDEST SWAP5 POP PUSH1 0x20 DUP7 ADD CALLDATALOAD SWAP2 POP DUP1 DUP3 GT ISZERO PUSH2 0x767C JUMPI DUP3 DUP4 REVERT JUMPDEST POP PUSH2 0x7689 DUP7 DUP3 DUP8 ADD PUSH2 0x6D13 JUMP JUMPDEST SWAP3 POP POP PUSH1 0x40 DUP5 ADD CALLDATALOAD SWAP1 POP SWAP3 POP SWAP3 POP SWAP3 JUMP JUMPDEST PUSH1 0x0 PUSH1 0x20 DUP3 DUP5 SUB SLT ISZERO PUSH2 0x76AB JUMPI DUP1 DUP2 REVERT JUMPDEST DUP2 MLOAD PUSH1 0x1 PUSH1 0x1 PUSH1 0x40 SHL SUB DUP2 GT ISZERO PUSH2 0x76C0 JUMPI DUP2 DUP3 REVERT JUMPDEST PUSH2 0xF45 DUP5 DUP3 DUP6 ADD PUSH2 0x6E20 JUMP JUMPDEST PUSH1 0x0 PUSH1 0x20 DUP3 DUP5 SUB SLT ISZERO PUSH2 0x76DD JUMPI DUP1 DUP2 REVERT JUMPDEST DUP2 MLOAD DUP1 ISZERO ISZERO DUP2 EQ PUSH2 0x55EF JUMPI DUP2 DUP3 REVERT JUMPDEST PUSH1 0x0 PUSH1 0x20 DUP3 DUP5 SUB SLT ISZERO PUSH2 0x76FD JUMPI DUP1 DUP2 REVERT JUMPDEST POP MLOAD SWAP2 SWAP1 POP JUMP JUMPDEST PUSH1 0x0 PUSH1 0x20 DUP3 DUP5 SUB SLT ISZERO PUSH2 0x7715 JUMPI DUP1 DUP2 REVERT JUMPDEST DUP2 MLOAD PUSH1 0x1 PUSH1 0x1 PUSH1 0x40 SHL SUB DUP2 GT ISZERO PUSH2 0x772A JUMPI DUP2 DUP3 REVERT JUMPDEST PUSH2 0xF45 DUP5 DUP3 DUP6 ADD PUSH2 0x6ECC JUMP JUMPDEST PUSH1 0x0 PUSH1 0x20 DUP3 DUP5 SUB SLT ISZERO PUSH2 0x7747 JUMPI DUP1 DUP2 REVERT JUMPDEST DUP2 MLOAD PUSH2 0x55EF DUP2 PUSH2 0x84A2 JUMP JUMPDEST PUSH1 0x0 DUP1 PUSH1 0x80 DUP4 DUP6 SUB SLT ISZERO PUSH2 0x7764 JUMPI DUP2 DUP3 REVERT JUMPDEST DUP3 MLOAD PUSH2 0x776F DUP2 PUSH2 0x84A2 JUMP JUMPDEST SWAP2 POP PUSH2 0x777E DUP5 PUSH1 0x20 DUP6 ADD PUSH2 0x6F7E JUMP JUMPDEST SWAP1 POP SWAP3 POP SWAP3 SWAP1 POP JUMP JUMPDEST PUSH1 0x0 DUP1 PUSH1 0x0 DUP1 DUP5 DUP7 SUB PUSH1 0xA0 DUP2 SLT ISZERO PUSH2 0x779D JUMPI DUP3 DUP4 REVERT JUMPDEST PUSH1 0x40 DUP2 SLT ISZERO PUSH2 0x77AA JUMPI DUP3 DUP4 REVERT JUMPDEST POP PUSH2 0x77B5 PUSH1 0x40 PUSH2 0x83C7 JUMP JUMPDEST DUP6 CALLDATALOAD DUP2 MSTORE PUSH1 0x20 DUP7 ADD CALLDATALOAD PUSH2 0x77C7 DUP2 PUSH2 0x8477 JUMP JUMPDEST PUSH1 0x20 DUP3 ADD MSTORE SWAP4 POP PUSH1 0x40 DUP6 ADD CALLDATALOAD PUSH2 0x77DC DUP2 PUSH2 0x8477 JUMP JUMPDEST SWAP3 POP PUSH1 0x60 DUP6 ADD CALLDATALOAD PUSH2 0x77EC DUP2 PUSH2 0x8477 JUMP JUMPDEST SWAP2 POP PUSH1 0x80 DUP6 ADD CALLDATALOAD PUSH1 0x1 PUSH1 0x1 PUSH1 0x40 SHL SUB DUP2 GT ISZERO PUSH2 0x7339 JUMPI DUP2 DUP3 REVERT JUMPDEST PUSH1 0x0 DUP1 PUSH1 0x0 DUP1 PUSH1 0x80 DUP6 DUP8 SUB SLT ISZERO PUSH2 0x781B JUMPI DUP2 DUP3 REVERT JUMPDEST DUP5 CALLDATALOAD PUSH1 0x1 PUSH1 0x1 PUSH1 0x40 SHL SUB DUP1 DUP3 GT ISZERO PUSH2 0x7831 JUMPI DUP4 DUP5 REVERT JUMPDEST SWAP1 DUP7 ADD SWAP1 PUSH1 0x40 DUP3 DUP10 SUB SLT ISZERO PUSH2 0x7844 JUMPI DUP4 DUP5 REVERT JUMPDEST PUSH2 0x784E PUSH1 0x40 PUSH2 0x83C7 JUMP JUMPDEST PUSH2 0x7858 DUP10 DUP5 PUSH2 0x6C2E JUMP JUMPDEST DUP2 MSTORE PUSH1 0x20 DUP4 ADD CALLDATALOAD DUP3 DUP2 GT ISZERO PUSH2 0x786B JUMPI DUP6 DUP7 REVERT JUMPDEST PUSH2 0x7877 DUP11 DUP3 DUP7 ADD PUSH2 0x6CBB JUMP JUMPDEST PUSH1 0x20 DUP4 ADD MSTORE POP DUP1 SWAP7 POP POP PUSH2 0x788E DUP9 PUSH1 0x20 DUP10 ADD PUSH2 0x6C2E JUMP JUMPDEST SWAP5 POP PUSH2 0x789D DUP9 PUSH1 0x40 DUP10 ADD PUSH2 0x6C2E JUMP JUMPDEST SWAP4 POP PUSH1 0x60 DUP8 ADD CALLDATALOAD SWAP2 POP DUP1 DUP3 GT ISZERO PUSH2 0x78B2 JUMPI DUP3 DUP4 REVERT JUMPDEST POP PUSH2 0x7345 DUP8 DUP3 DUP9 ADD PUSH2 0x6DC2 JUMP JUMPDEST PUSH1 0x0 DUP1 PUSH1 0x0 DUP1 PUSH1 0xC0 DUP6 DUP8 SUB SLT ISZERO PUSH2 0x78D4 JUMPI DUP2 DUP3 REVERT JUMPDEST PUSH2 0x78DE DUP7 DUP7 PUSH2 0x6F28 JUMP JUMPDEST SWAP4 POP PUSH1 0x60 DUP6 ADD CALLDATALOAD PUSH2 0x78EE DUP2 PUSH2 0x84A2 JUMP JUMPDEST SWAP3 POP PUSH1 0x80 DUP6 ADD CALLDATALOAD PUSH2 0x78FE DUP2 PUSH2 0x84A2 JUMP JUMPDEST SWAP2 POP PUSH1 0xA0 DUP6 ADD CALLDATALOAD PUSH1 0x1 PUSH1 0x1 PUSH1 0x40 SHL SUB DUP2 GT ISZERO PUSH2 0x7339 JUMPI DUP2 DUP3 REVERT JUMPDEST PUSH1 0x0 DUP1 PUSH1 0x0 DUP1 PUSH1 0xA0 DUP6 DUP8 SUB SLT ISZERO PUSH2 0x792D JUMPI DUP2 DUP3 REVERT JUMPDEST PUSH2 0x7937 DUP7 DUP7 PUSH2 0x6FC9 JUMP JUMPDEST SWAP4 POP PUSH1 0x40 DUP6 ADD CALLDATALOAD PUSH2 0x77DC DUP2 PUSH2 0x8477 JUMP JUMPDEST PUSH1 0x0 DUP1 PUSH1 0x0 DUP1 PUSH1 0x80 DUP6 DUP8 SUB SLT ISZERO PUSH2 0x795C JUMPI DUP2 DUP3 REVERT JUMPDEST DUP5 CALLDATALOAD PUSH1 0x1 PUSH1 0x1 PUSH1 0x40 SHL SUB DUP1 DUP3 GT ISZERO PUSH2 0x7972 JUMPI DUP4 DUP5 REVERT JUMPDEST PUSH2 0x797E DUP9 DUP4 DUP10 ADD PUSH2 0x700C JUMP JUMPDEST SWAP6 POP PUSH1 0x20 DUP8 ADD CALLDATALOAD SWAP2 POP PUSH2 0x7990 DUP3 PUSH2 0x8477 JUMP JUMPDEST SWAP1 SWAP4 POP PUSH1 0x40 DUP7 ADD CALLDATALOAD SWAP1 PUSH2 0x79A2 DUP3 PUSH2 0x8477 JUMP JUMPDEST SWAP1 SWAP3 POP PUSH1 0x60 DUP7 ADD CALLDATALOAD SWAP1 DUP1 DUP3 GT ISZERO PUSH2 0x78B2 JUMPI DUP3 DUP4 REVERT JUMPDEST PUSH1 0x0 DUP1 PUSH1 0x0 DUP1 PUSH1 0x80 DUP6 DUP8 SUB SLT ISZERO PUSH2 0x79CC JUMPI DUP2 DUP3 REVERT JUMPDEST DUP5 CALLDATALOAD PUSH1 0x1 PUSH1 0x1 PUSH1 0x40 SHL SUB DUP2 GT ISZERO PUSH2 0x79E1 JUMPI DUP3 DUP4 REVERT JUMPDEST PUSH2 0x79ED DUP8 DUP3 DUP9 ADD PUSH2 0x700C JUMP JUMPDEST SWAP5 POP POP PUSH1 0x20 DUP6 ADD CALLDATALOAD PUSH2 0x7381 DUP2 PUSH2 0x8477 JUMP JUMPDEST PUSH1 0x0 DUP1 PUSH1 0x0 DUP1 PUSH1 0x80 DUP6 DUP8 SUB SLT ISZERO PUSH2 0x7A13 JUMPI DUP2 DUP3 REVERT JUMPDEST DUP5 CALLDATALOAD PUSH1 0x1 PUSH1 0x1 PUSH1 0x40 SHL SUB DUP2 GT ISZERO PUSH2 0x7A28 JUMPI DUP3 DUP4 REVERT JUMPDEST PUSH2 0x7A34 DUP8 DUP3 DUP9 ADD PUSH2 0x700C JUMP JUMPDEST SWAP5 POP POP PUSH1 0x20 DUP6 ADD CALLDATALOAD SWAP3 POP PUSH1 0x40 DUP6 ADD CALLDATALOAD PUSH2 0x7A4C DUP2 PUSH2 0x8477 JUMP JUMPDEST SWAP2 POP PUSH1 0x60 DUP6 ADD CALLDATALOAD PUSH2 0x713F DUP2 PUSH2 0x8477 JUMP JUMPDEST PUSH1 0x0 DUP1 PUSH1 0x0 DUP1 DUP5 DUP7 SUB PUSH1 0xC0 DUP2 SLT ISZERO PUSH2 0x7A72 JUMPI DUP3 DUP4 REVERT JUMPDEST PUSH1 0x60 DUP2 SLT ISZERO PUSH2 0x7A7F JUMPI DUP3 DUP4 REVERT JUMPDEST POP PUSH2 0x7A8A PUSH1 0x60 PUSH2 0x83C7 JUMP JUMPDEST DUP6 CALLDATALOAD PUSH2 0x7A95 DUP2 PUSH2 0x8477 JUMP JUMPDEST DUP2 MSTORE PUSH1 0x20 DUP7 DUP2 ADD CALLDATALOAD SWAP1 DUP3 ADD MSTORE PUSH1 0x40 DUP7 ADD CALLDATALOAD PUSH2 0x7AAF DUP2 PUSH2 0x8477 JUMP JUMPDEST PUSH1 0x40 DUP3 ADD MSTORE SWAP4 POP PUSH1 0x60 DUP6 ADD CALLDATALOAD PUSH2 0x7AC4 DUP2 PUSH2 0x8477 JUMP JUMPDEST SWAP3 POP PUSH1 0x80 DUP6 ADD CALLDATALOAD PUSH2 0x78FE DUP2 PUSH2 0x8477 JUMP JUMPDEST PUSH1 0x0 DUP1 PUSH1 0x40 DUP4 DUP6 SUB SLT ISZERO PUSH2 0x7AE6 JUMPI DUP2 DUP3 REVERT JUMPDEST POP POP DUP1 MLOAD PUSH1 0x20 SWAP1 SWAP2 ADD MLOAD SWAP1 SWAP3 SWAP1 SWAP2 POP JUMP JUMPDEST PUSH1 0x0 DUP1 PUSH1 0x0 DUP1 PUSH1 0x80 DUP6 DUP8 SUB SLT ISZERO PUSH2 0x7B0C JUMPI DUP2 DUP3 REVERT JUMPDEST POP POP DUP3 MLOAD PUSH1 0x20 DUP5 ADD MLOAD PUSH1 0x40 DUP6 ADD MLOAD PUSH1 0x60 SWAP1 SWAP6 ADD MLOAD SWAP2 SWAP7 SWAP1 SWAP6 POP SWAP1 SWAP3 POP SWAP1 POP JUMP JUMPDEST PUSH1 0x0 DUP1 PUSH1 0x0 DUP1 PUSH1 0x0 PUSH1 0xA0 DUP7 DUP9 SUB SLT ISZERO PUSH2 0x7B43 JUMPI DUP3 DUP4 REVERT JUMPDEST POP POP DUP4 MLOAD PUSH1 0x20 DUP6 ADD MLOAD PUSH1 0x40 DUP7 ADD MLOAD PUSH1 0x60 DUP8 ADD MLOAD PUSH1 0x80 SWAP1 SWAP8 ADD MLOAD SWAP3 SWAP9 SWAP2 SWAP8 POP SWAP6 SWAP5 POP SWAP1 SWAP3 POP SWAP1 POP JUMP JUMPDEST PUSH1 0x1 PUSH1 0x1 PUSH1 0xA0 SHL SUB AND DUP2 MSTORE PUSH1 0x20 ADD SWAP1 JUMP JUMPDEST PUSH1 0x0 DUP2 MLOAD DUP4 MSTORE PUSH1 0x20 DUP3 ADD MLOAD PUSH1 0x20 DUP5 ADD MSTORE PUSH1 0x40 DUP3 ADD MLOAD PUSH1 0x40 DUP5 ADD MSTORE PUSH1 0x60 DUP3 ADD MLOAD PUSH1 0x60 DUP5 ADD MSTORE PUSH1 0x80 DUP3 ADD MLOAD PUSH1 0xA0 PUSH1 0x80 DUP6 ADD MSTORE PUSH2 0xF45 PUSH1 0xA0 DUP6 ADD DUP3 PUSH2 0x7C92 JUMP JUMPDEST PUSH1 0x0 DUP2 MLOAD DUP1 DUP5 MSTORE PUSH1 0x20 DUP1 DUP6 ADD SWAP5 POP DUP1 DUP5 ADD DUP4 JUMPDEST DUP4 DUP2 LT ISZERO PUSH2 0x7BF1 JUMPI DUP2 MLOAD PUSH1 0x1 PUSH1 0x1 PUSH1 0xA0 SHL SUB AND DUP8 MSTORE SWAP6 DUP3 ADD SWAP6 SWAP1 DUP3 ADD SWAP1 PUSH1 0x1 ADD PUSH2 0x7BCC JUMP JUMPDEST POP SWAP5 SWAP6 SWAP5 POP POP POP POP POP JUMP JUMPDEST PUSH1 0x0 DUP2 MLOAD DUP1 DUP5 MSTORE PUSH1 0x20 DUP1 DUP6 ADD SWAP5 POP DUP1 DUP5 ADD DUP4 JUMPDEST DUP4 DUP2 LT ISZERO PUSH2 0x7BF1 JUMPI DUP2 MLOAD DUP8 MSTORE SWAP6 DUP3 ADD SWAP6 SWAP1 DUP3 ADD SWAP1 PUSH1 0x1 ADD PUSH2 0x7C0F JUMP JUMPDEST PUSH1 0x0 DUP2 MLOAD DUP1 DUP5 MSTORE PUSH1 0x20 DUP1 DUP6 ADD DUP1 DUP2 SWAP7 POP DUP3 DUP5 MUL DUP2 ADD SWAP2 POP DUP3 DUP7 ADD DUP6 JUMPDEST DUP6 DUP2 LT ISZERO PUSH2 0x7C85 JUMPI DUP3 DUP5 SUB DUP10 MSTORE DUP2 MLOAD DUP1 MLOAD DUP6 MSTORE DUP6 ADD MLOAD PUSH1 0x40 DUP7 DUP7 ADD DUP2 SWAP1 MSTORE PUSH2 0x7C71 DUP2 DUP8 ADD DUP4 PUSH2 0x7C92 JUMP JUMPDEST SWAP11 DUP8 ADD SWAP11 SWAP6 POP POP POP SWAP1 DUP5 ADD SWAP1 PUSH1 0x1 ADD PUSH2 0x7C47 JUMP JUMPDEST POP SWAP2 SWAP8 SWAP7 POP POP POP POP POP POP POP JUMP JUMPDEST PUSH1 0x0 DUP2 MLOAD DUP1 DUP5 MSTORE PUSH2 0x7CAA DUP2 PUSH1 0x20 DUP7 ADD PUSH1 0x20 DUP7 ADD PUSH2 0x843A JUMP JUMPDEST PUSH1 0x1F ADD PUSH1 0x1F NOT AND SWAP3 SWAP1 SWAP3 ADD PUSH1 0x20 ADD SWAP3 SWAP2 POP POP JUMP JUMPDEST DUP1 MLOAD PUSH1 0x1 PUSH1 0x1 PUSH1 0xA0 SHL SUB AND DUP3 MSTORE PUSH1 0x20 DUP1 DUP3 ADD MLOAD PUSH1 0x1 PUSH1 0x1 PUSH1 0xE0 SHL SUB NOT SWAP1 DUP2 AND SWAP2 DUP5 ADD SWAP2 SWAP1 SWAP2 MSTORE PUSH1 0x40 SWAP2 DUP3 ADD MLOAD AND SWAP2 ADD MSTORE JUMP JUMPDEST DUP1 MLOAD PUSH1 0x1 PUSH1 0x1 PUSH1 0xA0 SHL SUB SWAP1 DUP2 AND DUP4 MSTORE PUSH1 0x20 DUP1 DUP4 ADD MLOAD ISZERO ISZERO SWAP1 DUP5 ADD MSTORE PUSH1 0x40 DUP1 DUP4 ADD MLOAD SWAP1 SWAP2 AND SWAP1 DUP4 ADD MSTORE PUSH1 0x60 SWAP1 DUP2 ADD MLOAD ISZERO ISZERO SWAP2 ADD MSTORE JUMP JUMPDEST PUSH1 0x0 DUP2 MLOAD DUP4 MSTORE PUSH1 0x20 DUP3 ADD MLOAD PUSH1 0x1 DUP1 PUSH1 0xA0 SHL SUB DUP1 DUP3 AND PUSH1 0x20 DUP7 ADD MSTORE DUP1 PUSH1 0x40 DUP6 ADD MLOAD AND PUSH1 0x40 DUP7 ADD MSTORE DUP1 PUSH1 0x60 DUP6 ADD MLOAD AND PUSH1 0x60 DUP7 ADD MSTORE POP POP PUSH1 0x80 DUP3 ADD MLOAD PUSH1 0xA0 PUSH1 0x80 DUP6 ADD MSTORE PUSH2 0xF45 PUSH1 0xA0 DUP6 ADD DUP3 PUSH2 0x7C92 JUMP JUMPDEST PUSH1 0x0 DUP3 MLOAD PUSH2 0x7D84 DUP2 DUP5 PUSH1 0x20 DUP8 ADD PUSH2 0x843A JUMP JUMPDEST SWAP2 SWAP1 SWAP2 ADD SWAP3 SWAP2 POP POP JUMP JUMPDEST PUSH1 0x1 PUSH1 0x1 PUSH1 0xA0 SHL SUB SWAP2 SWAP1 SWAP2 AND DUP2 MSTORE PUSH1 0x20 ADD SWAP1 JUMP JUMPDEST PUSH1 0x1 PUSH1 0x1 PUSH1 0xA0 SHL SUB SWAP3 SWAP1 SWAP3 AND DUP3 MSTORE PUSH1 0x20 DUP3 ADD MSTORE PUSH1 0x40 ADD SWAP1 JUMP JUMPDEST PUSH1 0x1 PUSH1 0x1 PUSH1 0xA0 SHL SUB SWAP3 DUP4 AND DUP2 MSTORE SWAP2 AND PUSH1 0x20 DUP3 ADD MSTORE PUSH1 0x40 ADD SWAP1 JUMP JUMPDEST PUSH1 0x1 PUSH1 0x1 PUSH1 0xA0 SHL SUB SWAP5 DUP6 AND DUP2 MSTORE SWAP3 DUP5 AND PUSH1 0x20 DUP5 ADD MSTORE SWAP1 DUP4 AND PUSH1 0x40 DUP4 ADD MSTORE SWAP1 SWAP2 AND PUSH1 0x60 DUP3 ADD MSTORE PUSH1 0x80 ADD SWAP1 JUMP JUMPDEST PUSH1 0x1 PUSH1 0x1 PUSH1 0xA0 SHL SUB DUP6 DUP2 AND DUP3 MSTORE DUP5 DUP2 AND PUSH1 0x20 DUP4 ADD MSTORE DUP4 AND PUSH1 0x40 DUP3 ADD MSTORE PUSH1 0x80 PUSH1 0x60 DUP3 ADD DUP2 SWAP1 MSTORE PUSH1 0x0 SWAP1 PUSH2 0x5990 SWAP1 DUP4 ADD DUP5 PUSH2 0x7BFC JUMP JUMPDEST PUSH1 0x1 PUSH1 0x1 PUSH1 0xA0 SHL SUB SWAP5 DUP6 AND DUP2 MSTORE SWAP3 DUP5 AND PUSH1 0x20 DUP5 ADD MSTORE SWAP3 AND PUSH1 0x40 DUP3 ADD MSTORE PUSH1 0x60 DUP2 ADD SWAP2 SWAP1 SWAP2 MSTORE PUSH1 0x80 ADD SWAP1 JUMP JUMPDEST PUSH1 0x1 PUSH1 0x1 PUSH1 0xA0 SHL SUB SWAP4 DUP5 AND DUP2 MSTORE SWAP2 SWAP1 SWAP3 AND PUSH1 0x20 DUP3 ADD MSTORE SWAP1 ISZERO ISZERO PUSH1 0x40 DUP3 ADD MSTORE PUSH1 0x60 ADD SWAP1 JUMP JUMPDEST PUSH1 0x1 PUSH1 0x1 PUSH1 0xA0 SHL SUB DUP6 DUP2 AND DUP3 MSTORE DUP5 AND PUSH1 0x20 DUP3 ADD MSTORE DUP3 ISZERO ISZERO PUSH1 0x40 DUP3 ADD MSTORE PUSH1 0x80 PUSH1 0x60 DUP3 ADD DUP2 SWAP1 MSTORE PUSH1 0x0 SWAP1 PUSH2 0x5990 SWAP1 DUP4 ADD DUP5 PUSH2 0x7C92 JUMP JUMPDEST PUSH1 0x1 PUSH1 0x1 PUSH1 0xA0 SHL SUB SWAP4 DUP5 AND DUP2 MSTORE SWAP2 SWAP1 SWAP3 AND PUSH1 0x20 DUP3 ADD MSTORE PUSH1 0x40 DUP2 ADD SWAP2 SWAP1 SWAP2 MSTORE PUSH1 0x60 ADD SWAP1 JUMP JUMPDEST PUSH1 0x1 PUSH1 0x1 PUSH1 0xA0 SHL SUB DUP7 DUP2 AND DUP3 MSTORE DUP6 AND PUSH1 0x20 DUP3 ADD MSTORE PUSH1 0x40 DUP2 ADD DUP5 SWAP1 MSTORE PUSH1 0x60 DUP2 ADD DUP4 SWAP1 MSTORE PUSH1 0xA0 PUSH1 0x80 DUP3 ADD DUP2 SWAP1 MSTORE PUSH1 0x0 SWAP1 PUSH2 0x7F14 SWAP1 DUP4 ADD DUP5 PUSH2 0x7C92 JUMP JUMPDEST SWAP8 SWAP7 POP POP POP POP POP POP POP JUMP JUMPDEST PUSH1 0x1 PUSH1 0x1 PUSH1 0xA0 SHL SUB DUP5 AND DUP2 MSTORE PUSH1 0x60 PUSH1 0x20 DUP3 ADD DUP2 SWAP1 MSTORE PUSH1 0x0 SWAP1 PUSH2 0x7F43 SWAP1 DUP4 ADD DUP6 PUSH2 0x7BB9 JUMP JUMPDEST DUP3 DUP2 SUB PUSH1 0x40 DUP5 ADD MSTORE PUSH2 0x5990 DUP2 DUP6 PUSH2 0x7BFC JUMP JUMPDEST PUSH1 0x1 PUSH1 0x1 PUSH1 0xA0 SHL SUB DUP6 AND DUP2 MSTORE PUSH1 0x0 PUSH2 0x7F6C DUP6 PUSH2 0x846A JUMP JUMPDEST DUP5 PUSH1 0x20 DUP4 ADD MSTORE PUSH1 0x80 PUSH1 0x40 DUP4 ADD MSTORE PUSH2 0x7F86 PUSH1 0x80 DUP4 ADD DUP6 PUSH2 0x7BFC JUMP JUMPDEST DUP3 DUP2 SUB PUSH1 0x60 DUP5 ADD MSTORE PUSH2 0x7F14 DUP2 DUP6 PUSH2 0x7BFC JUMP JUMPDEST PUSH1 0x1 PUSH1 0x1 PUSH1 0xA0 SHL SUB DUP10 DUP2 AND DUP3 MSTORE PUSH1 0x0 SWAP1 PUSH2 0x100 SWAP1 PUSH2 0x7FB5 DUP12 PUSH2 0x846A JUMP JUMPDEST DUP11 PUSH1 0x20 DUP6 ADD MSTORE DUP2 PUSH1 0x40 DUP6 ADD MSTORE PUSH2 0x7FCD DUP3 DUP6 ADD DUP12 PUSH2 0x7BFC JUMP JUMPDEST SWAP2 POP DUP4 DUP3 SUB PUSH1 0x60 DUP6 ADD MSTORE PUSH2 0x7FE1 DUP3 DUP11 PUSH2 0x7BFC JUMP JUMPDEST SWAP1 DUP9 AND PUSH1 0x80 DUP6 ADD MSTORE SWAP1 POP PUSH2 0x7FF4 DUP7 PUSH2 0x846A JUMP JUMPDEST DUP6 PUSH1 0xA0 DUP5 ADD MSTORE DUP3 DUP2 SUB PUSH1 0xC0 DUP5 ADD MSTORE PUSH2 0x800C DUP2 DUP7 PUSH2 0x7BFC JUMP JUMPDEST SWAP1 POP DUP3 DUP2 SUB PUSH1 0xE0 DUP5 ADD MSTORE PUSH2 0x8020 DUP2 DUP6 PUSH2 0x7BFC JUMP JUMPDEST SWAP12 SWAP11 POP POP POP POP POP POP POP POP POP POP POP JUMP JUMPDEST PUSH1 0x1 PUSH1 0x1 PUSH1 0xA0 SHL SUB DUP4 AND DUP2 MSTORE PUSH1 0x40 PUSH1 0x20 DUP3 ADD DUP2 SWAP1 MSTORE PUSH1 0x0 SWAP1 PUSH2 0xF45 SWAP1 DUP4 ADD DUP5 PUSH2 0x7D25 JUMP JUMPDEST PUSH1 0x0 PUSH1 0x40 DUP3 MSTORE PUSH2 0x8066 PUSH1 0x40 DUP4 ADD DUP6 PUSH2 0x7BB9 JUMP JUMPDEST DUP3 DUP2 SUB PUSH1 0x20 DUP5 ADD MSTORE PUSH2 0xFB3 DUP2 DUP6 PUSH2 0x7BFC JUMP JUMPDEST PUSH1 0x0 PUSH1 0x40 DUP3 MSTORE PUSH2 0x808B PUSH1 0x40 DUP4 ADD DUP6 PUSH2 0x7BB9 JUMP JUMPDEST SWAP1 POP DUP3 PUSH1 0x20 DUP4 ADD MSTORE SWAP4 SWAP3 POP POP POP JUMP JUMPDEST PUSH1 0x0 PUSH1 0x40 DUP3 MSTORE PUSH2 0x80AD PUSH1 0x40 DUP4 ADD DUP6 PUSH2 0x7C2B JUMP JUMPDEST DUP3 DUP2 SUB PUSH1 0x20 DUP5 ADD MSTORE PUSH2 0xFB3 DUP2 DUP6 PUSH2 0x7C2B JUMP JUMPDEST PUSH1 0x0 PUSH1 0x20 DUP3 MSTORE PUSH2 0x55EF PUSH1 0x20 DUP4 ADD DUP5 PUSH2 0x7BFC JUMP JUMPDEST DUP4 ISZERO ISZERO DUP2 MSTORE PUSH1 0x1 PUSH1 0x1 PUSH1 0xA0 SHL SUB DUP4 AND PUSH1 0x20 DUP3 ADD MSTORE PUSH1 0x60 PUSH1 0x40 DUP3 ADD DUP2 SWAP1 MSTORE PUSH1 0x0 SWAP1 PUSH2 0xFB3 SWAP1 DUP4 ADD DUP5 PUSH2 0x7BFC JUMP JUMPDEST SWAP1 DUP2 MSTORE PUSH1 0x20 ADD SWAP1 JUMP JUMPDEST PUSH1 0x0 DUP5 DUP3 MSTORE PUSH1 0x60 PUSH1 0x20 DUP4 ADD MSTORE PUSH2 0x7F43 PUSH1 0x60 DUP4 ADD DUP6 PUSH2 0x7C92 JUMP JUMPDEST PUSH1 0x0 PUSH1 0x20 DUP3 MSTORE PUSH2 0x55EF PUSH1 0x20 DUP4 ADD DUP5 PUSH2 0x7C92 JUMP JUMPDEST PUSH1 0x1 PUSH1 0x1 PUSH1 0xA0 SHL SUB DUP4 AND DUP2 MSTORE PUSH1 0x40 PUSH1 0x20 DUP3 ADD DUP2 SWAP1 MSTORE PUSH1 0x0 SWAP1 PUSH2 0xF45 SWAP1 DUP4 ADD DUP5 PUSH2 0x7BFC JUMP JUMPDEST PUSH1 0x60 DUP2 ADD PUSH2 0x8164 DUP6 PUSH2 0x846A JUMP JUMPDEST SWAP4 DUP2 MSTORE PUSH1 0x20 DUP2 ADD SWAP3 SWAP1 SWAP3 MSTORE PUSH1 0x40 SWAP1 SWAP2 ADD MSTORE SWAP1 JUMP JUMPDEST PUSH1 0x60 DUP2 ADD PUSH1 0x8 DUP6 LT PUSH2 0x8164 JUMPI INVALID JUMPDEST PUSH1 0x0 PUSH1 0xE0 DUP3 ADD PUSH2 0x8195 DUP8 PUSH2 0x842F JUMP JUMPDEST DUP4 MSTORE PUSH1 0x20 PUSH1 0xE0 DUP2 DUP6 ADD MSTORE DUP2 DUP8 MLOAD PUSH2 0x81AC DUP2 DUP6 PUSH2 0x80FE JUMP JUMPDEST SWAP2 POP DUP2 SWAP4 POP DUP3 DUP2 MUL DUP3 ADD DUP4 DUP11 ADD DUP7 JUMPDEST DUP4 DUP2 LT ISZERO PUSH2 0x81E5 JUMPI DUP7 DUP4 SUB DUP6 MSTORE PUSH2 0x81D3 DUP4 DUP4 MLOAD PUSH2 0x7B7C JUMP JUMPDEST SWAP5 DUP7 ADD SWAP5 SWAP3 POP SWAP1 DUP6 ADD SWAP1 PUSH1 0x1 ADD PUSH2 0x81BB JUMP JUMPDEST POP POP DUP7 DUP2 SUB PUSH1 0x40 DUP9 ADD MSTORE DUP1 SWAP5 POP DUP9 MLOAD SWAP3 POP PUSH2 0x8200 DUP4 DUP3 PUSH2 0x80FE JUMP JUMPDEST SWAP5 POP POP POP DUP2 DUP8 ADD DUP5 JUMPDEST DUP3 DUP2 LT ISZERO PUSH2 0x822A JUMPI PUSH2 0x821C DUP6 DUP4 MLOAD PUSH2 0x7B6B JUMP JUMPDEST SWAP5 POP SWAP1 DUP4 ADD SWAP1 PUSH1 0x1 ADD PUSH2 0x8209 JUMP JUMPDEST POP POP POP POP DUP1 SWAP2 POP POP PUSH2 0xFB3 PUSH1 0x60 DUP4 ADD DUP5 PUSH2 0x7CF0 JUMP JUMPDEST PUSH1 0xF SWAP4 DUP5 SIGNEXTEND DUP2 MSTORE SWAP2 SWAP1 SWAP3 SIGNEXTEND PUSH1 0x20 DUP3 ADD MSTORE PUSH1 0x40 DUP2 ADD SWAP2 SWAP1 SWAP2 MSTORE PUSH1 0x60 ADD SWAP1 JUMP JUMPDEST PUSH1 0xF DUP4 SWAP1 SIGNEXTEND DUP2 MSTORE PUSH1 0x80 DUP2 ADD PUSH2 0x55EF PUSH1 0x20 DUP4 ADD DUP5 PUSH2 0x7CBE JUMP JUMPDEST PUSH1 0x20 DUP1 DUP3 MSTORE PUSH1 0x25 SWAP1 DUP3 ADD MSTORE PUSH32 0x455243323042726964676553616D706C65722F494E56414C49445F544F4B454E PUSH1 0x40 DUP3 ADD MSTORE PUSH5 0x2FA820A4A9 PUSH1 0xD9 SHL PUSH1 0x60 DUP3 ADD MSTORE PUSH1 0x80 ADD SWAP1 JUMP JUMPDEST PUSH1 0x0 PUSH2 0x82C6 DUP3 DUP8 PUSH2 0x7CBE JUMP JUMPDEST DUP5 PUSH1 0xF SIGNEXTEND PUSH1 0x60 DUP4 ADD MSTORE DUP4 PUSH1 0xF SIGNEXTEND PUSH1 0x80 DUP4 ADD MSTORE PUSH1 0xC0 PUSH1 0xA0 DUP4 ADD MSTORE PUSH2 0x5990 PUSH1 0xC0 DUP4 ADD DUP5 PUSH2 0x7BFC JUMP JUMPDEST PUSH1 0x0 PUSH1 0x80 DUP3 MSTORE PUSH2 0x82FF PUSH1 0x80 DUP4 ADD DUP8 PUSH2 0x7D25 JUMP JUMPDEST PUSH1 0x1 PUSH1 0x1 PUSH1 0xA0 SHL SUB SWAP6 DUP7 AND PUSH1 0x20 DUP5 ADD MSTORE SWAP4 SWAP1 SWAP5 AND PUSH1 0x40 DUP3 ADD MSTORE PUSH1 0x60 ADD MSTORE SWAP3 SWAP2 POP POP JUMP JUMPDEST PUSH1 0x0 PUSH1 0x80 DUP3 MSTORE PUSH2 0x8335 PUSH1 0x80 DUP4 ADD DUP8 PUSH2 0x7D25 JUMP JUMPDEST PUSH1 0x20 DUP4 ADD SWAP6 SWAP1 SWAP6 MSTORE POP PUSH1 0x1 PUSH1 0x1 PUSH1 0xA0 SHL SUB SWAP3 DUP4 AND PUSH1 0x40 DUP3 ADD MSTORE SWAP2 AND PUSH1 0x60 SWAP1 SWAP2 ADD MSTORE SWAP2 SWAP1 POP JUMP JUMPDEST PUSH1 0x0 DUP4 DUP3 MSTORE PUSH1 0x40 PUSH1 0x20 DUP4 ADD MSTORE PUSH2 0xF45 PUSH1 0x40 DUP4 ADD DUP5 PUSH2 0x7BB9 JUMP JUMPDEST PUSH1 0x0 DUP5 DUP3 MSTORE PUSH1 0x60 PUSH1 0x20 DUP4 ADD MSTORE PUSH2 0x838D PUSH1 0x60 DUP4 ADD DUP6 PUSH2 0x7BB9 JUMP JUMPDEST DUP3 DUP2 SUB PUSH1 0x40 DUP5 ADD MSTORE PUSH2 0x5990 DUP2 DUP6 PUSH2 0x7BB9 JUMP JUMPDEST SWAP6 DUP7 MSTORE PUSH1 0x20 DUP7 ADD SWAP5 SWAP1 SWAP5 MSTORE PUSH1 0x40 DUP6 ADD SWAP3 SWAP1 SWAP3 MSTORE PUSH1 0x60 DUP5 ADD MSTORE PUSH1 0x80 DUP4 ADD MSTORE PUSH1 0xA0 DUP3 ADD MSTORE PUSH1 0xC0 ADD SWAP1 JUMP JUMPDEST PUSH1 0x40 MLOAD DUP2 DUP2 ADD PUSH1 0x1 PUSH1 0x1 PUSH1 0x40 SHL SUB DUP2 GT DUP3 DUP3 LT OR ISZERO PUSH2 0x83E5 JUMPI PUSH1 0x0 DUP1 REVERT JUMPDEST PUSH1 0x40 MSTORE SWAP2 SWAP1 POP JUMP JUMPDEST PUSH1 0x0 PUSH1 0x1 PUSH1 0x1 PUSH1 0x40 SHL SUB DUP3 GT ISZERO PUSH2 0x8402 JUMPI DUP1 DUP2 REVERT JUMPDEST POP PUSH1 0x20 SWAP1 DUP2 MUL ADD SWAP1 JUMP JUMPDEST PUSH1 0x0 PUSH1 0x1 PUSH1 0x1 PUSH1 0x40 SHL SUB DUP3 GT ISZERO PUSH2 0x8421 JUMPI DUP1 DUP2 REVERT JUMPDEST POP PUSH1 0x1F ADD PUSH1 0x1F NOT AND PUSH1 0x20 ADD SWAP1 JUMP JUMPDEST DUP1 PUSH1 0x2 DUP2 LT PUSH2 0x681B JUMPI INVALID JUMPDEST PUSH1 0x0 JUMPDEST DUP4 DUP2 LT ISZERO PUSH2 0x8455 JUMPI DUP2 DUP2 ADD MLOAD DUP4 DUP3 ADD MSTORE PUSH1 0x20 ADD PUSH2 0x843D JUMP JUMPDEST DUP4 DUP2 GT ISZERO PUSH2 0x8464 JUMPI PUSH1 0x0 DUP5 DUP5 ADD MSTORE JUMPDEST POP POP POP POP JUMP JUMPDEST PUSH1 0x4 DUP2 LT PUSH2 0x8474 JUMPI INVALID JUMPDEST POP JUMP JUMPDEST PUSH1 0x1 PUSH1 0x1 PUSH1 0xA0 SHL SUB DUP2 AND DUP2 EQ PUSH2 0x8474 JUMPI PUSH1 0x0 DUP1 REVERT JUMPDEST PUSH1 0x1 PUSH1 0x1 PUSH1 0xE0 SHL SUB NOT DUP2 AND DUP2 EQ PUSH2 0x8474 JUMPI PUSH1 0x0 DUP1 REVERT JUMPDEST DUP1 PUSH1 0xF SIGNEXTEND DUP2 EQ PUSH2 0x8474 JUMPI PUSH1 0x0 DUP1 REVERT INVALID LOG2 PUSH5 0x6970667358 0x22 SLT KECCAK256 0xAB ORIGIN SUB PUSH10 0x52B73D13478A4C020D3E 0x2A 0xD0 0xBB PUSH4 0x99160E5 PUSH19 0xCE207B53BC7B4890D164736F6C634300060C00 CALLER "
            },
            "methodIdentifiers": {
                "encodeKyberHint((uint256,address,address,address,bytes),bytes32,address,address)": "4edfb5b2",
                "sampleBuysFromBalancer(address,address,address,uint256[])": "57494b1d",
                "sampleBuysFromBalancerV2((bytes32,address),address,address,uint256[])": "a0295b8b",
                "sampleBuysFromBancor((address,address[][]),address,address,uint256[])": "74c9d255",
                "sampleBuysFromCurve((address,bytes4,bytes4),int128,int128,uint256[])": "9209483b",
                "sampleBuysFromDODO((address,address),address,address,uint256[])": "ddd5aa28",
                "sampleBuysFromDODOV2(address,uint256,address,address,uint256[])": "d9bca372",
                "sampleBuysFromEth2Dai(address,address,address,uint256[])": "c94706d8",
                "sampleBuysFromKyberDmm(address,address[],uint256[])": "494569db",
                "sampleBuysFromKyberNetwork((uint256,address,address,address,bytes),address,address,uint256[])": "9e3f05c3",
                "sampleBuysFromLido((address,address),address,address,uint256[])": "36052391",
                "sampleBuysFromLiquidityProvider(address,address,address,uint256[])": "c25c4138",
                "sampleBuysFromMStable(address,address,address,uint256[])": "b90cd2fb",
                "sampleBuysFromMakerPsm((address,bytes32,address),address,address,uint256[])": "7f7f4f13",
                "sampleBuysFromMooniswap(address,address,address,uint256[])": "f5a4994d",
                "sampleBuysFromShell(address,address,address,uint256[])": "5d5b674f",
                "sampleBuysFromSmoothy((address,bytes4,bytes4),int128,int128,uint256[])": "29fa4aa0",
                "sampleBuysFromUniswap(address,address,address,uint256[])": "252322b3",
                "sampleBuysFromUniswapV2(address,address[],uint256[])": "c8c74a37",
                "sampleSellFromKyberNetwork((uint256,address,address,address,bytes),address,address,uint256)": "f1ed7fa4",
                "sampleSellsFromBalancer(address,address,address,uint256[])": "98777748",
                "sampleSellsFromBalancerV2((bytes32,address),address,address,uint256[])": "2339078f",
                "sampleSellsFromBancor((address,address[][]),address,address,uint256[])": "149dab0e",
                "sampleSellsFromCurve((address,bytes4,bytes4),int128,int128,uint256[])": "40bc03ae",
                "sampleSellsFromDODO((address,address),address,address,uint256[])": "2aa64319",
                "sampleSellsFromDODOV2(address,uint256,address,address,uint256[])": "a75e744b",
                "sampleSellsFromEth2Dai(address,address,address,uint256[])": "ab000276",
                "sampleSellsFromKyberDmm(address,address[],uint256[])": "0496d5dc",
                "sampleSellsFromKyberNetwork((uint256,address,address,address,bytes),address,address,uint256[])": "cc1621c9",
                "sampleSellsFromLido((address,address),address,address,uint256[])": "f3868e9c",
                "sampleSellsFromLiquidityProvider(address,address,address,uint256[])": "a4698417",
                "sampleSellsFromMStable(address,address,address,uint256[])": "30d6570d",
                "sampleSellsFromMakerPsm((address,bytes32,address),address,address,uint256[])": "281e3432",
                "sampleSellsFromMooniswap(address,address,address,uint256[])": "adc636bf",
                "sampleSellsFromMultiBridge(address,address,address,address,uint256[])": "2d753aa4",
                "sampleSellsFromShell(address,address,address,uint256[])": "e8e4af09",
                "sampleSellsFromSmoothy((address,bytes4,bytes4),int128,int128,uint256[])": "8b6d7b44",
                "sampleSellsFromUniswap(address,address,address,uint256[])": "c8319084",
                "sampleSellsFromUniswapV2(address,address[],uint256[])": "3105fec1",
                "sampleSingleSellFromMooniswapPool(address,address,address,uint256)": "9ea0ff13",
                "sampleTwoHopBuy((address,bytes,uint256)[],(address,bytes,uint256)[],uint256)": "9e4a2a69",
                "sampleTwoHopSell((address,bytes,uint256)[],(address,bytes,uint256)[],uint256)": "44a3acba"
            }
        }
    },
    "sourceTreeHashHex": "0xa41f5d9bf6fb585ef42922cf8c05faae0549bb207b936e2aca05c33edb1c2046",
    "compiler": {
        "name": "solc",
        "version": "0.6.12+commit.27d51765",
        "settings": {
            "remappings": [
                "@0x/contracts-utils=/home/merklejerk/code/0x-protocol/node_modules/@0x/contracts-utils",
                "@0x/contracts-erc20=/home/merklejerk/code/0x-protocol/node_modules/@0x/contracts-erc20",
                "@0x/contracts-zero-ex=/home/merklejerk/code/0x-protocol/packages/asset-swapper/node_modules/@0x/contracts-zero-ex"
            ],
            "optimizer": {
                "enabled": true,
                "runs": 200,
                "details": {
                    "yul": true,
                    "deduplicate": true
                }
            },
            "outputSelection": {
                "*": {
                    "*": [
                        "abi",
                        "devdoc",
                        "evm.bytecode.object",
                        "evm.bytecode.sourceMap",
                        "evm.deployedBytecode.object",
                        "evm.deployedBytecode.sourceMap",
                        "evm.methodIdentifiers"
                    ]
                }
            },
            "evmVersion": "istanbul"
        }
    },
    "chains": {}
}