{
    "schemaVersion": "2.0.0",
    "contractName": "ERC20Proxy",
    "compilerOutput": {
        "abi": [
            {
                "anonymous": false,
                "inputs": [
                    {
                        "indexed": true,
                        "internalType": "address",
                        "name": "target",
                        "type": "address"
                    },
                    {
                        "indexed": true,
                        "internalType": "address",
                        "name": "caller",
                        "type": "address"
                    }
                ],
                "name": "AuthorizedAddressAdded",
                "type": "event"
            },
            {
                "anonymous": false,
                "inputs": [
                    {
                        "indexed": true,
                        "internalType": "address",
                        "name": "target",
                        "type": "address"
                    },
                    {
                        "indexed": true,
                        "internalType": "address",
                        "name": "caller",
                        "type": "address"
                    }
                ],
                "name": "AuthorizedAddressRemoved",
                "type": "event"
            },
            {
                "anonymous": false,
                "inputs": [
                    {
                        "indexed": true,
                        "internalType": "address",
                        "name": "previousOwner",
                        "type": "address"
                    },
                    {
                        "indexed": true,
                        "internalType": "address",
                        "name": "newOwner",
                        "type": "address"
                    }
                ],
                "name": "OwnershipTransferred",
                "type": "event"
            },
            {
                "payable": false,
                "stateMutability": "nonpayable",
                "type": "fallback"
            },
            {
                "constant": false,
                "inputs": [
                    {
                        "internalType": "address",
                        "name": "target",
                        "type": "address"
                    }
                ],
                "name": "addAuthorizedAddress",
                "outputs": [],
                "payable": false,
                "stateMutability": "nonpayable",
                "type": "function"
            },
            {
                "constant": true,
                "inputs": [
                    {
                        "internalType": "uint256",
                        "name": "",
                        "type": "uint256"
                    }
                ],
                "name": "authorities",
                "outputs": [
                    {
                        "internalType": "address",
                        "name": "",
                        "type": "address"
                    }
                ],
                "payable": false,
                "stateMutability": "view",
                "type": "function"
            },
            {
                "constant": true,
                "inputs": [
                    {
                        "internalType": "address",
                        "name": "",
                        "type": "address"
                    }
                ],
                "name": "authorized",
                "outputs": [
                    {
                        "internalType": "bool",
                        "name": "",
                        "type": "bool"
                    }
                ],
                "payable": false,
                "stateMutability": "view",
                "type": "function"
            },
            {
                "constant": true,
                "inputs": [],
                "name": "getAuthorizedAddresses",
                "outputs": [
                    {
                        "internalType": "address[]",
                        "name": "",
                        "type": "address[]"
                    }
                ],
                "payable": false,
                "stateMutability": "view",
                "type": "function"
            },
            {
                "constant": true,
                "inputs": [],
                "name": "getProxyId",
                "outputs": [
                    {
                        "internalType": "bytes4",
                        "name": "",
                        "type": "bytes4"
                    }
                ],
                "payable": false,
                "stateMutability": "pure",
                "type": "function"
            },
            {
                "constant": true,
                "inputs": [],
                "name": "owner",
                "outputs": [
                    {
                        "internalType": "address",
                        "name": "",
                        "type": "address"
                    }
                ],
                "payable": false,
                "stateMutability": "view",
                "type": "function"
            },
            {
                "constant": false,
                "inputs": [
                    {
                        "internalType": "address",
                        "name": "target",
                        "type": "address"
                    }
                ],
                "name": "removeAuthorizedAddress",
                "outputs": [],
                "payable": false,
                "stateMutability": "nonpayable",
                "type": "function"
            },
            {
                "constant": false,
                "inputs": [
                    {
                        "internalType": "address",
                        "name": "target",
                        "type": "address"
                    },
                    {
                        "internalType": "uint256",
                        "name": "index",
                        "type": "uint256"
                    }
                ],
                "name": "removeAuthorizedAddressAtIndex",
                "outputs": [],
                "payable": false,
                "stateMutability": "nonpayable",
                "type": "function"
            },
            {
                "constant": false,
                "inputs": [
                    {
                        "internalType": "address",
                        "name": "newOwner",
                        "type": "address"
                    }
                ],
                "name": "transferOwnership",
                "outputs": [],
                "payable": false,
                "stateMutability": "nonpayable",
                "type": "function"
            }
        ],
        "devdoc": {
            "methods": {
                "addAuthorizedAddress(address)": {
                    "details": "Authorizes an address.",
                    "params": {
                        "target": "Address to authorize."
                    }
                },
                "getAuthorizedAddresses()": {
                    "details": "Gets all authorized addresses.",
                    "return": "Array of authorized addresses."
                },
                "getProxyId()": {
                    "details": "Gets the proxy id associated with the proxy address.",
                    "return": "Proxy id."
                },
                "removeAuthorizedAddress(address)": {
                    "details": "Removes authorizion of an address.",
                    "params": {
                        "target": "Address to remove authorization from."
                    }
                },
                "removeAuthorizedAddressAtIndex(address,uint256)": {
                    "details": "Removes authorizion of an address.",
                    "params": {
                        "index": "Index of target in authorities array.",
                        "target": "Address to remove authorization from."
                    }
                }
            }
        },
        "evm": {
            "bytecode": {
                "linkReferences": {},
                "object": "0x6080604052600080546001600160a01b03191633179055610f42806100256000396000f3fe608060405234801561001057600080fd5b50600436106100a35760003560e01c80639ad2674411610076578063b91816111161005b578063b918161114610374578063d39de6e9146103bb578063f2fde38b14610413576100a3565b80639ad26744146102fe578063ae25532e14610337576100a3565b806342f1181e14610248578063494503d41461027d57806370712939146102c35780638da5cb5b146102f6575b7fffffffff00000000000000000000000000000000000000000000000000000000600035167fa85e59e40000000000000000000000000000000000000000000000000000000081141561024257604080513381526001602082015290812054610177577f08c379a0000000000000000000000000000000000000000000000000000000006000527c20000000000000000000000000000000000000000000000000000000006020527c1553454e4445525f4e4f545f415554484f52495a454400000000000000604052600060605260646000fd5b50602860043501357f23b872dd0000000000000000000000000000000000000000000000000000000060005260606024600437602060006064600080855af1600080511160203d14163d15178116905080156101cf57005b50507f08c379a0000000000000000000000000000000000000000000000000000000006000527c20000000000000000000000000000000000000000000000000000000006020527c0f5452414e534645525f4641494c454400000000000000000000000000604052600060605260646000fd5b50600080fd5b61027b6004803603602081101561025e57600080fd5b503573ffffffffffffffffffffffffffffffffffffffff16610446565b005b61029a6004803603602081101561029357600080fd5b5035610632565b6040805173ffffffffffffffffffffffffffffffffffffffff9092168252519081900360200190f35b61027b600480360360208110156102d957600080fd5b503573ffffffffffffffffffffffffffffffffffffffff16610666565b61029a610959565b61027b6004803603604081101561031457600080fd5b5073ffffffffffffffffffffffffffffffffffffffff8135169060200135610975565b61033f610d26565b604080517fffffffff000000000000000000000000000000000000000000000000000000009092168252519081900360200190f35b6103a76004803603602081101561038a57600080fd5b503573ffffffffffffffffffffffffffffffffffffffff16610d5c565b604080519115158252519081900360200190f35b6103c3610d71565b60408051602080825283518183015283519192839290830191858101910280838360005b838110156103ff5781810151838201526020016103e7565b505050509050019250505060405180910390f35b61027b6004803603602081101561042957600080fd5b503573ffffffffffffffffffffffffffffffffffffffff16610de0565b60005473ffffffffffffffffffffffffffffffffffffffff1633146104cc57604080517f08c379a000000000000000000000000000000000000000000000000000000000815260206004820152601360248201527f4f4e4c595f434f4e54524143545f4f574e455200000000000000000000000000604482015290519081900360640190fd5b73ffffffffffffffffffffffffffffffffffffffff811660009081526001602052604090205460ff161561056157604080517f08c379a000000000000000000000000000000000000000000000000000000000815260206004820152601960248201527f5441524745545f414c52454144595f415554484f52495a454400000000000000604482015290519081900360640190fd5b73ffffffffffffffffffffffffffffffffffffffff8116600081815260016020819052604080832080547fffffffffffffffffffffffffffffffffffffffffffffffffffffffffffffff00168317905560028054928301815583527f405787fa12a823e0f2b7631cc41b3ba8828b3321ca811111fa75cd3aa3bb5ace90910180547fffffffffffffffffffffffff00000000000000000000000000000000000000001684179055513392917f3147867c59d17e8fa9d522465651d44aae0a9e38f902f3475b97e58072f0ed4c91a350565b6002818154811061063f57fe5b60009182526020909120015473ffffffffffffffffffffffffffffffffffffffff16905081565b60005473ffffffffffffffffffffffffffffffffffffffff1633146106ec57604080517f08c379a000000000000000000000000000000000000000000000000000000000815260206004820152601360248201527f4f4e4c595f434f4e54524143545f4f574e455200000000000000000000000000604482015290519081900360640190fd5b73ffffffffffffffffffffffffffffffffffffffff811660009081526001602052604090205460ff1661078057604080517f08c379a000000000000000000000000000000000000000000000000000000000815260206004820152601560248201527f5441524745545f4e4f545f415554484f52495a45440000000000000000000000604482015290519081900360640190fd5b73ffffffffffffffffffffffffffffffffffffffff8116600090815260016020526040812080547fffffffffffffffffffffffffffffffffffffffffffffffffffffffffffffff001690555b600254811015610912578173ffffffffffffffffffffffffffffffffffffffff16600282815481106107fa57fe5b60009182526020909120015473ffffffffffffffffffffffffffffffffffffffff16141561090a57600280547fffffffffffffffffffffffffffffffffffffffffffffffffffffffffffffffff810190811061085257fe5b6000918252602090912001546002805473ffffffffffffffffffffffffffffffffffffffff909216918390811061088557fe5b600091825260209091200180547fffffffffffffffffffffffff00000000000000000000000000000000000000001673ffffffffffffffffffffffffffffffffffffffff92909216919091179055600280547fffffffffffffffffffffffffffffffffffffffffffffffffffffffffffffffff01906109049082610ec6565b50610912565b6001016107cc565b50604051339073ffffffffffffffffffffffffffffffffffffffff8316907f1f32c1b084e2de0713b8fb16bd46bb9df710a3dbeae2f3ca93af46e016dcc6b090600090a350565b60005473ffffffffffffffffffffffffffffffffffffffff1681565b60005473ffffffffffffffffffffffffffffffffffffffff1633146109fb57604080517f08c379a000000000000000000000000000000000000000000000000000000000815260206004820152601360248201527f4f4e4c595f434f4e54524143545f4f574e455200000000000000000000000000604482015290519081900360640190fd5b73ffffffffffffffffffffffffffffffffffffffff821660009081526001602052604090205460ff16610a8f57604080517f08c379a000000000000000000000000000000000000000000000000000000000815260206004820152601560248201527f5441524745545f4e4f545f415554484f52495a45440000000000000000000000604482015290519081900360640190fd5b6002548110610aff57604080517f08c379a000000000000000000000000000000000000000000000000000000000815260206004820152601360248201527f494e4445585f4f55545f4f465f424f554e445300000000000000000000000000604482015290519081900360640190fd5b8173ffffffffffffffffffffffffffffffffffffffff1660028281548110610b2357fe5b60009182526020909120015473ffffffffffffffffffffffffffffffffffffffff1614610bb157604080517f08c379a000000000000000000000000000000000000000000000000000000000815260206004820152601b60248201527f415554484f52495a45445f414444524553535f4d49534d415443480000000000604482015290519081900360640190fd5b73ffffffffffffffffffffffffffffffffffffffff8216600090815260016020526040902080547fffffffffffffffffffffffffffffffffffffffffffffffffffffffffffffff00169055600280547fffffffffffffffffffffffffffffffffffffffffffffffffffffffffffffffff8101908110610c2c57fe5b6000918252602090912001546002805473ffffffffffffffffffffffffffffffffffffffff9092169183908110610c5f57fe5b600091825260209091200180547fffffffffffffffffffffffff00000000000000000000000000000000000000001673ffffffffffffffffffffffffffffffffffffffff92909216919091179055600280547fffffffffffffffffffffffffffffffffffffffffffffffffffffffffffffffff0190610cde9082610ec6565b50604051339073ffffffffffffffffffffffffffffffffffffffff8416907f1f32c1b084e2de0713b8fb16bd46bb9df710a3dbeae2f3ca93af46e016dcc6b090600090a35050565b604080517f4552433230546f6b656e28616464726573732900000000000000000000000000815290519081900360130190205b90565b60016020526000908152604090205460ff1681565b60606002805480602002602001604051908101604052809291908181526020018280548015610dd657602002820191906000526020600020905b815473ffffffffffffffffffffffffffffffffffffffff168152600190910190602001808311610dab575b5050505050905090565b60005473ffffffffffffffffffffffffffffffffffffffff163314610e6657604080517f08c379a000000000000000000000000000000000000000000000000000000000815260206004820152601360248201527f4f4e4c595f434f4e54524143545f4f574e455200000000000000000000000000604482015290519081900360640190fd5b73ffffffffffffffffffffffffffffffffffffffff811615610ec357600080547fffffffffffffffffffffffff00000000000000000000000000000000000000001673ffffffffffffffffffffffffffffffffffffffff83161790555b50565b815481835581811115610eea57600083815260209020610eea918101908301610eef565b505050565b610d5991905b80821115610f095760008155600101610ef5565b509056fea265627a7a7231582056860ee430920d0284c3c1c763cce5cc33fc2fe79440faaa00a8c603cabb94ef64736f6c63430005110032",
                "opcodes": "PUSH1 0x80 PUSH1 0x40 MSTORE PUSH1 0x0 DUP1 SLOAD PUSH1 0x1 PUSH1 0x1 PUSH1 0xA0 SHL SUB NOT AND CALLER OR SWAP1 SSTORE PUSH2 0xF42 DUP1 PUSH2 0x25 PUSH1 0x0 CODECOPY PUSH1 0x0 RETURN INVALID PUSH1 0x80 PUSH1 0x40 MSTORE CALLVALUE DUP1 ISZERO PUSH2 0x10 JUMPI PUSH1 0x0 DUP1 REVERT JUMPDEST POP PUSH1 0x4 CALLDATASIZE LT PUSH2 0xA3 JUMPI PUSH1 0x0 CALLDATALOAD PUSH1 0xE0 SHR DUP1 PUSH4 0x9AD26744 GT PUSH2 0x76 JUMPI DUP1 PUSH4 0xB9181611 GT PUSH2 0x5B JUMPI DUP1 PUSH4 0xB9181611 EQ PUSH2 0x374 JUMPI DUP1 PUSH4 0xD39DE6E9 EQ PUSH2 0x3BB JUMPI DUP1 PUSH4 0xF2FDE38B EQ PUSH2 0x413 JUMPI PUSH2 0xA3 JUMP JUMPDEST DUP1 PUSH4 0x9AD26744 EQ PUSH2 0x2FE JUMPI DUP1 PUSH4 0xAE25532E EQ PUSH2 0x337 JUMPI PUSH2 0xA3 JUMP JUMPDEST DUP1 PUSH4 0x42F1181E EQ PUSH2 0x248 JUMPI DUP1 PUSH4 0x494503D4 EQ PUSH2 0x27D JUMPI DUP1 PUSH4 0x70712939 EQ PUSH2 0x2C3 JUMPI DUP1 PUSH4 0x8DA5CB5B EQ PUSH2 0x2F6 JUMPI JUMPDEST PUSH32 0xFFFFFFFF00000000000000000000000000000000000000000000000000000000 PUSH1 0x0 CALLDATALOAD AND PUSH32 0xA85E59E400000000000000000000000000000000000000000000000000000000 DUP2 EQ ISZERO PUSH2 0x242 JUMPI PUSH1 0x40 DUP1 MLOAD CALLER DUP2 MSTORE PUSH1 0x1 PUSH1 0x20 DUP3 ADD MSTORE SWAP1 DUP2 KECCAK256 SLOAD PUSH2 0x177 JUMPI PUSH32 0x8C379A000000000000000000000000000000000000000000000000000000000 PUSH1 0x0 MSTORE PUSH29 0x2000000000000000000000000000000000000000000000000000000000 PUSH1 0x20 MSTORE PUSH29 0x1553454E4445525F4E4F545F415554484F52495A454400000000000000 PUSH1 0x40 MSTORE PUSH1 0x0 PUSH1 0x60 MSTORE PUSH1 0x64 PUSH1 0x0 REVERT JUMPDEST POP PUSH1 0x28 PUSH1 0x4 CALLDATALOAD ADD CALLDATALOAD PUSH32 0x23B872DD00000000000000000000000000000000000000000000000000000000 PUSH1 0x0 MSTORE PUSH1 0x60 PUSH1 0x24 PUSH1 0x4 CALLDATACOPY PUSH1 0x20 PUSH1 0x0 PUSH1 0x64 PUSH1 0x0 DUP1 DUP6 GAS CALL PUSH1 0x0 DUP1 MLOAD GT PUSH1 0x20 RETURNDATASIZE EQ AND RETURNDATASIZE ISZERO OR DUP2 AND SWAP1 POP DUP1 ISZERO PUSH2 0x1CF JUMPI STOP JUMPDEST POP POP PUSH32 0x8C379A000000000000000000000000000000000000000000000000000000000 PUSH1 0x0 MSTORE PUSH29 0x2000000000000000000000000000000000000000000000000000000000 PUSH1 0x20 MSTORE PUSH29 0xF5452414E534645525F4641494C454400000000000000000000000000 PUSH1 0x40 MSTORE PUSH1 0x0 PUSH1 0x60 MSTORE PUSH1 0x64 PUSH1 0x0 REVERT JUMPDEST POP PUSH1 0x0 DUP1 REVERT JUMPDEST PUSH2 0x27B PUSH1 0x4 DUP1 CALLDATASIZE SUB PUSH1 0x20 DUP2 LT ISZERO PUSH2 0x25E JUMPI PUSH1 0x0 DUP1 REVERT JUMPDEST POP CALLDATALOAD PUSH20 0xFFFFFFFFFFFFFFFFFFFFFFFFFFFFFFFFFFFFFFFF AND PUSH2 0x446 JUMP JUMPDEST STOP JUMPDEST PUSH2 0x29A PUSH1 0x4 DUP1 CALLDATASIZE SUB PUSH1 0x20 DUP2 LT ISZERO PUSH2 0x293 JUMPI PUSH1 0x0 DUP1 REVERT JUMPDEST POP CALLDATALOAD PUSH2 0x632 JUMP JUMPDEST PUSH1 0x40 DUP1 MLOAD PUSH20 0xFFFFFFFFFFFFFFFFFFFFFFFFFFFFFFFFFFFFFFFF SWAP1 SWAP3 AND DUP3 MSTORE MLOAD SWAP1 DUP2 SWAP1 SUB PUSH1 0x20 ADD SWAP1 RETURN JUMPDEST PUSH2 0x27B PUSH1 0x4 DUP1 CALLDATASIZE SUB PUSH1 0x20 DUP2 LT ISZERO PUSH2 0x2D9 JUMPI PUSH1 0x0 DUP1 REVERT JUMPDEST POP CALLDATALOAD PUSH20 0xFFFFFFFFFFFFFFFFFFFFFFFFFFFFFFFFFFFFFFFF AND PUSH2 0x666 JUMP JUMPDEST PUSH2 0x29A PUSH2 0x959 JUMP JUMPDEST PUSH2 0x27B PUSH1 0x4 DUP1 CALLDATASIZE SUB PUSH1 0x40 DUP2 LT ISZERO PUSH2 0x314 JUMPI PUSH1 0x0 DUP1 REVERT JUMPDEST POP PUSH20 0xFFFFFFFFFFFFFFFFFFFFFFFFFFFFFFFFFFFFFFFF DUP2 CALLDATALOAD AND SWAP1 PUSH1 0x20 ADD CALLDATALOAD PUSH2 0x975 JUMP JUMPDEST PUSH2 0x33F PUSH2 0xD26 JUMP JUMPDEST PUSH1 0x40 DUP1 MLOAD PUSH32 0xFFFFFFFF00000000000000000000000000000000000000000000000000000000 SWAP1 SWAP3 AND DUP3 MSTORE MLOAD SWAP1 DUP2 SWAP1 SUB PUSH1 0x20 ADD SWAP1 RETURN JUMPDEST PUSH2 0x3A7 PUSH1 0x4 DUP1 CALLDATASIZE SUB PUSH1 0x20 DUP2 LT ISZERO PUSH2 0x38A JUMPI PUSH1 0x0 DUP1 REVERT JUMPDEST POP CALLDATALOAD PUSH20 0xFFFFFFFFFFFFFFFFFFFFFFFFFFFFFFFFFFFFFFFF AND PUSH2 0xD5C JUMP JUMPDEST PUSH1 0x40 DUP1 MLOAD SWAP2 ISZERO ISZERO DUP3 MSTORE MLOAD SWAP1 DUP2 SWAP1 SUB PUSH1 0x20 ADD SWAP1 RETURN JUMPDEST PUSH2 0x3C3 PUSH2 0xD71 JUMP JUMPDEST PUSH1 0x40 DUP1 MLOAD PUSH1 0x20 DUP1 DUP3 MSTORE DUP4 MLOAD DUP2 DUP4 ADD MSTORE DUP4 MLOAD SWAP2 SWAP3 DUP4 SWAP3 SWAP1 DUP4 ADD SWAP2 DUP6 DUP2 ADD SWAP2 MUL DUP1 DUP4 DUP4 PUSH1 0x0 JUMPDEST DUP4 DUP2 LT ISZERO PUSH2 0x3FF JUMPI DUP2 DUP2 ADD MLOAD DUP4 DUP3 ADD MSTORE PUSH1 0x20 ADD PUSH2 0x3E7 JUMP JUMPDEST POP POP POP POP SWAP1 POP ADD SWAP3 POP POP POP PUSH1 0x40 MLOAD DUP1 SWAP2 SUB SWAP1 RETURN JUMPDEST PUSH2 0x27B PUSH1 0x4 DUP1 CALLDATASIZE SUB PUSH1 0x20 DUP2 LT ISZERO PUSH2 0x429 JUMPI PUSH1 0x0 DUP1 REVERT JUMPDEST POP CALLDATALOAD PUSH20 0xFFFFFFFFFFFFFFFFFFFFFFFFFFFFFFFFFFFFFFFF AND PUSH2 0xDE0 JUMP JUMPDEST PUSH1 0x0 SLOAD PUSH20 0xFFFFFFFFFFFFFFFFFFFFFFFFFFFFFFFFFFFFFFFF AND CALLER EQ PUSH2 0x4CC JUMPI PUSH1 0x40 DUP1 MLOAD PUSH32 0x8C379A000000000000000000000000000000000000000000000000000000000 DUP2 MSTORE PUSH1 0x20 PUSH1 0x4 DUP3 ADD MSTORE PUSH1 0x13 PUSH1 0x24 DUP3 ADD MSTORE PUSH32 0x4F4E4C595F434F4E54524143545F4F574E455200000000000000000000000000 PUSH1 0x44 DUP3 ADD MSTORE SWAP1 MLOAD SWAP1 DUP2 SWAP1 SUB PUSH1 0x64 ADD SWAP1 REVERT JUMPDEST PUSH20 0xFFFFFFFFFFFFFFFFFFFFFFFFFFFFFFFFFFFFFFFF DUP2 AND PUSH1 0x0 SWAP1 DUP2 MSTORE PUSH1 0x1 PUSH1 0x20 MSTORE PUSH1 0x40 SWAP1 KECCAK256 SLOAD PUSH1 0xFF AND ISZERO PUSH2 0x561 JUMPI PUSH1 0x40 DUP1 MLOAD PUSH32 0x8C379A000000000000000000000000000000000000000000000000000000000 DUP2 MSTORE PUSH1 0x20 PUSH1 0x4 DUP3 ADD MSTORE PUSH1 0x19 PUSH1 0x24 DUP3 ADD MSTORE PUSH32 0x5441524745545F414C52454144595F415554484F52495A454400000000000000 PUSH1 0x44 DUP3 ADD MSTORE SWAP1 MLOAD SWAP1 DUP2 SWAP1 SUB PUSH1 0x64 ADD SWAP1 REVERT JUMPDEST PUSH20 0xFFFFFFFFFFFFFFFFFFFFFFFFFFFFFFFFFFFFFFFF DUP2 AND PUSH1 0x0 DUP2 DUP2 MSTORE PUSH1 0x1 PUSH1 0x20 DUP2 SWAP1 MSTORE PUSH1 0x40 DUP1 DUP4 KECCAK256 DUP1 SLOAD PUSH32 0xFFFFFFFFFFFFFFFFFFFFFFFFFFFFFFFFFFFFFFFFFFFFFFFFFFFFFFFFFFFFFF00 AND DUP4 OR SWAP1 SSTORE PUSH1 0x2 DUP1 SLOAD SWAP3 DUP4 ADD DUP2 SSTORE DUP4 MSTORE PUSH32 0x405787FA12A823E0F2B7631CC41B3BA8828B3321CA811111FA75CD3AA3BB5ACE SWAP1 SWAP2 ADD DUP1 SLOAD PUSH32 0xFFFFFFFFFFFFFFFFFFFFFFFF0000000000000000000000000000000000000000 AND DUP5 OR SWAP1 SSTORE MLOAD CALLER SWAP3 SWAP2 PUSH32 0x3147867C59D17E8FA9D522465651D44AAE0A9E38F902F3475B97E58072F0ED4C SWAP2 LOG3 POP JUMP JUMPDEST PUSH1 0x2 DUP2 DUP2 SLOAD DUP2 LT PUSH2 0x63F JUMPI INVALID JUMPDEST PUSH1 0x0 SWAP2 DUP3 MSTORE PUSH1 0x20 SWAP1 SWAP2 KECCAK256 ADD SLOAD PUSH20 0xFFFFFFFFFFFFFFFFFFFFFFFFFFFFFFFFFFFFFFFF AND SWAP1 POP DUP2 JUMP JUMPDEST PUSH1 0x0 SLOAD PUSH20 0xFFFFFFFFFFFFFFFFFFFFFFFFFFFFFFFFFFFFFFFF AND CALLER EQ PUSH2 0x6EC JUMPI PUSH1 0x40 DUP1 MLOAD PUSH32 0x8C379A000000000000000000000000000000000000000000000000000000000 DUP2 MSTORE PUSH1 0x20 PUSH1 0x4 DUP3 ADD MSTORE PUSH1 0x13 PUSH1 0x24 DUP3 ADD MSTORE PUSH32 0x4F4E4C595F434F4E54524143545F4F574E455200000000000000000000000000 PUSH1 0x44 DUP3 ADD MSTORE SWAP1 MLOAD SWAP1 DUP2 SWAP1 SUB PUSH1 0x64 ADD SWAP1 REVERT JUMPDEST PUSH20 0xFFFFFFFFFFFFFFFFFFFFFFFFFFFFFFFFFFFFFFFF DUP2 AND PUSH1 0x0 SWAP1 DUP2 MSTORE PUSH1 0x1 PUSH1 0x20 MSTORE PUSH1 0x40 SWAP1 KECCAK256 SLOAD PUSH1 0xFF AND PUSH2 0x780 JUMPI PUSH1 0x40 DUP1 MLOAD PUSH32 0x8C379A000000000000000000000000000000000000000000000000000000000 DUP2 MSTORE PUSH1 0x20 PUSH1 0x4 DUP3 ADD MSTORE PUSH1 0x15 PUSH1 0x24 DUP3 ADD MSTORE PUSH32 0x5441524745545F4E4F545F415554484F52495A45440000000000000000000000 PUSH1 0x44 DUP3 ADD MSTORE SWAP1 MLOAD SWAP1 DUP2 SWAP1 SUB PUSH1 0x64 ADD SWAP1 REVERT JUMPDEST PUSH20 0xFFFFFFFFFFFFFFFFFFFFFFFFFFFFFFFFFFFFFFFF DUP2 AND PUSH1 0x0 SWAP1 DUP2 MSTORE PUSH1 0x1 PUSH1 0x20 MSTORE PUSH1 0x40 DUP2 KECCAK256 DUP1 SLOAD PUSH32 0xFFFFFFFFFFFFFFFFFFFFFFFFFFFFFFFFFFFFFFFFFFFFFFFFFFFFFFFFFFFFFF00 AND SWAP1 SSTORE JUMPDEST PUSH1 0x2 SLOAD DUP2 LT ISZERO PUSH2 0x912 JUMPI DUP2 PUSH20 0xFFFFFFFFFFFFFFFFFFFFFFFFFFFFFFFFFFFFFFFF AND PUSH1 0x2 DUP3 DUP2 SLOAD DUP2 LT PUSH2 0x7FA JUMPI INVALID JUMPDEST PUSH1 0x0 SWAP2 DUP3 MSTORE PUSH1 0x20 SWAP1 SWAP2 KECCAK256 ADD SLOAD PUSH20 0xFFFFFFFFFFFFFFFFFFFFFFFFFFFFFFFFFFFFFFFF AND EQ ISZERO PUSH2 0x90A JUMPI PUSH1 0x2 DUP1 SLOAD PUSH32 0xFFFFFFFFFFFFFFFFFFFFFFFFFFFFFFFFFFFFFFFFFFFFFFFFFFFFFFFFFFFFFFFF DUP2 ADD SWAP1 DUP2 LT PUSH2 0x852 JUMPI INVALID JUMPDEST PUSH1 0x0 SWAP2 DUP3 MSTORE PUSH1 0x20 SWAP1 SWAP2 KECCAK256 ADD SLOAD PUSH1 0x2 DUP1 SLOAD PUSH20 0xFFFFFFFFFFFFFFFFFFFFFFFFFFFFFFFFFFFFFFFF SWAP1 SWAP3 AND SWAP2 DUP4 SWAP1 DUP2 LT PUSH2 0x885 JUMPI INVALID JUMPDEST PUSH1 0x0 SWAP2 DUP3 MSTORE PUSH1 0x20 SWAP1 SWAP2 KECCAK256 ADD DUP1 SLOAD PUSH32 0xFFFFFFFFFFFFFFFFFFFFFFFF0000000000000000000000000000000000000000 AND PUSH20 0xFFFFFFFFFFFFFFFFFFFFFFFFFFFFFFFFFFFFFFFF SWAP3 SWAP1 SWAP3 AND SWAP2 SWAP1 SWAP2 OR SWAP1 SSTORE PUSH1 0x2 DUP1 SLOAD PUSH32 0xFFFFFFFFFFFFFFFFFFFFFFFFFFFFFFFFFFFFFFFFFFFFFFFFFFFFFFFFFFFFFFFF ADD SWAP1 PUSH2 0x904 SWAP1 DUP3 PUSH2 0xEC6 JUMP JUMPDEST POP PUSH2 0x912 JUMP JUMPDEST PUSH1 0x1 ADD PUSH2 0x7CC JUMP JUMPDEST POP PUSH1 0x40 MLOAD CALLER SWAP1 PUSH20 0xFFFFFFFFFFFFFFFFFFFFFFFFFFFFFFFFFFFFFFFF DUP4 AND SWAP1 PUSH32 0x1F32C1B084E2DE0713B8FB16BD46BB9DF710A3DBEAE2F3CA93AF46E016DCC6B0 SWAP1 PUSH1 0x0 SWAP1 LOG3 POP JUMP JUMPDEST PUSH1 0x0 SLOAD PUSH20 0xFFFFFFFFFFFFFFFFFFFFFFFFFFFFFFFFFFFFFFFF AND DUP2 JUMP JUMPDEST PUSH1 0x0 SLOAD PUSH20 0xFFFFFFFFFFFFFFFFFFFFFFFFFFFFFFFFFFFFFFFF AND CALLER EQ PUSH2 0x9FB JUMPI PUSH1 0x40 DUP1 MLOAD PUSH32 0x8C379A000000000000000000000000000000000000000000000000000000000 DUP2 MSTORE PUSH1 0x20 PUSH1 0x4 DUP3 ADD MSTORE PUSH1 0x13 PUSH1 0x24 DUP3 ADD MSTORE PUSH32 0x4F4E4C595F434F4E54524143545F4F574E455200000000000000000000000000 PUSH1 0x44 DUP3 ADD MSTORE SWAP1 MLOAD SWAP1 DUP2 SWAP1 SUB PUSH1 0x64 ADD SWAP1 REVERT JUMPDEST PUSH20 0xFFFFFFFFFFFFFFFFFFFFFFFFFFFFFFFFFFFFFFFF DUP3 AND PUSH1 0x0 SWAP1 DUP2 MSTORE PUSH1 0x1 PUSH1 0x20 MSTORE PUSH1 0x40 SWAP1 KECCAK256 SLOAD PUSH1 0xFF AND PUSH2 0xA8F JUMPI PUSH1 0x40 DUP1 MLOAD PUSH32 0x8C379A000000000000000000000000000000000000000000000000000000000 DUP2 MSTORE PUSH1 0x20 PUSH1 0x4 DUP3 ADD MSTORE PUSH1 0x15 PUSH1 0x24 DUP3 ADD MSTORE PUSH32 0x5441524745545F4E4F545F415554484F52495A45440000000000000000000000 PUSH1 0x44 DUP3 ADD MSTORE SWAP1 MLOAD SWAP1 DUP2 SWAP1 SUB PUSH1 0x64 ADD SWAP1 REVERT JUMPDEST PUSH1 0x2 SLOAD DUP2 LT PUSH2 0xAFF JUMPI PUSH1 0x40 DUP1 MLOAD PUSH32 0x8C379A000000000000000000000000000000000000000000000000000000000 DUP2 MSTORE PUSH1 0x20 PUSH1 0x4 DUP3 ADD MSTORE PUSH1 0x13 PUSH1 0x24 DUP3 ADD MSTORE PUSH32 0x494E4445585F4F55545F4F465F424F554E445300000000000000000000000000 PUSH1 0x44 DUP3 ADD MSTORE SWAP1 MLOAD SWAP1 DUP2 SWAP1 SUB PUSH1 0x64 ADD SWAP1 REVERT JUMPDEST DUP2 PUSH20 0xFFFFFFFFFFFFFFFFFFFFFFFFFFFFFFFFFFFFFFFF AND PUSH1 0x2 DUP3 DUP2 SLOAD DUP2 LT PUSH2 0xB23 JUMPI INVALID JUMPDEST PUSH1 0x0 SWAP2 DUP3 MSTORE PUSH1 0x20 SWAP1 SWAP2 KECCAK256 ADD SLOAD PUSH20 0xFFFFFFFFFFFFFFFFFFFFFFFFFFFFFFFFFFFFFFFF AND EQ PUSH2 0xBB1 JUMPI PUSH1 0x40 DUP1 MLOAD PUSH32 0x8C379A000000000000000000000000000000000000000000000000000000000 DUP2 MSTORE PUSH1 0x20 PUSH1 0x4 DUP3 ADD MSTORE PUSH1 0x1B PUSH1 0x24 DUP3 ADD MSTORE PUSH32 0x415554484F52495A45445F414444524553535F4D49534D415443480000000000 PUSH1 0x44 DUP3 ADD MSTORE SWAP1 MLOAD SWAP1 DUP2 SWAP1 SUB PUSH1 0x64 ADD SWAP1 REVERT JUMPDEST PUSH20 0xFFFFFFFFFFFFFFFFFFFFFFFFFFFFFFFFFFFFFFFF DUP3 AND PUSH1 0x0 SWAP1 DUP2 MSTORE PUSH1 0x1 PUSH1 0x20 MSTORE PUSH1 0x40 SWAP1 KECCAK256 DUP1 SLOAD PUSH32 0xFFFFFFFFFFFFFFFFFFFFFFFFFFFFFFFFFFFFFFFFFFFFFFFFFFFFFFFFFFFFFF00 AND SWAP1 SSTORE PUSH1 0x2 DUP1 SLOAD PUSH32 0xFFFFFFFFFFFFFFFFFFFFFFFFFFFFFFFFFFFFFFFFFFFFFFFFFFFFFFFFFFFFFFFF DUP2 ADD SWAP1 DUP2 LT PUSH2 0xC2C JUMPI INVALID JUMPDEST PUSH1 0x0 SWAP2 DUP3 MSTORE PUSH1 0x20 SWAP1 SWAP2 KECCAK256 ADD SLOAD PUSH1 0x2 DUP1 SLOAD PUSH20 0xFFFFFFFFFFFFFFFFFFFFFFFFFFFFFFFFFFFFFFFF SWAP1 SWAP3 AND SWAP2 DUP4 SWAP1 DUP2 LT PUSH2 0xC5F JUMPI INVALID JUMPDEST PUSH1 0x0 SWAP2 DUP3 MSTORE PUSH1 0x20 SWAP1 SWAP2 KECCAK256 ADD DUP1 SLOAD PUSH32 0xFFFFFFFFFFFFFFFFFFFFFFFF0000000000000000000000000000000000000000 AND PUSH20 0xFFFFFFFFFFFFFFFFFFFFFFFFFFFFFFFFFFFFFFFF SWAP3 SWAP1 SWAP3 AND SWAP2 SWAP1 SWAP2 OR SWAP1 SSTORE PUSH1 0x2 DUP1 SLOAD PUSH32 0xFFFFFFFFFFFFFFFFFFFFFFFFFFFFFFFFFFFFFFFFFFFFFFFFFFFFFFFFFFFFFFFF ADD SWAP1 PUSH2 0xCDE SWAP1 DUP3 PUSH2 0xEC6 JUMP JUMPDEST POP PUSH1 0x40 MLOAD CALLER SWAP1 PUSH20 0xFFFFFFFFFFFFFFFFFFFFFFFFFFFFFFFFFFFFFFFF DUP5 AND SWAP1 PUSH32 0x1F32C1B084E2DE0713B8FB16BD46BB9DF710A3DBEAE2F3CA93AF46E016DCC6B0 SWAP1 PUSH1 0x0 SWAP1 LOG3 POP POP JUMP JUMPDEST PUSH1 0x40 DUP1 MLOAD PUSH32 0x4552433230546F6B656E28616464726573732900000000000000000000000000 DUP2 MSTORE SWAP1 MLOAD SWAP1 DUP2 SWAP1 SUB PUSH1 0x13 ADD SWAP1 KECCAK256 JUMPDEST SWAP1 JUMP JUMPDEST PUSH1 0x1 PUSH1 0x20 MSTORE PUSH1 0x0 SWAP1 DUP2 MSTORE PUSH1 0x40 SWAP1 KECCAK256 SLOAD PUSH1 0xFF AND DUP2 JUMP JUMPDEST PUSH1 0x60 PUSH1 0x2 DUP1 SLOAD DUP1 PUSH1 0x20 MUL PUSH1 0x20 ADD PUSH1 0x40 MLOAD SWAP1 DUP2 ADD PUSH1 0x40 MSTORE DUP1 SWAP3 SWAP2 SWAP1 DUP2 DUP2 MSTORE PUSH1 0x20 ADD DUP3 DUP1 SLOAD DUP1 ISZERO PUSH2 0xDD6 JUMPI PUSH1 0x20 MUL DUP3 ADD SWAP2 SWAP1 PUSH1 0x0 MSTORE PUSH1 0x20 PUSH1 0x0 KECCAK256 SWAP1 JUMPDEST DUP2 SLOAD PUSH20 0xFFFFFFFFFFFFFFFFFFFFFFFFFFFFFFFFFFFFFFFF AND DUP2 MSTORE PUSH1 0x1 SWAP1 SWAP2 ADD SWAP1 PUSH1 0x20 ADD DUP1 DUP4 GT PUSH2 0xDAB JUMPI JUMPDEST POP POP POP POP POP SWAP1 POP SWAP1 JUMP JUMPDEST PUSH1 0x0 SLOAD PUSH20 0xFFFFFFFFFFFFFFFFFFFFFFFFFFFFFFFFFFFFFFFF AND CALLER EQ PUSH2 0xE66 JUMPI PUSH1 0x40 DUP1 MLOAD PUSH32 0x8C379A000000000000000000000000000000000000000000000000000000000 DUP2 MSTORE PUSH1 0x20 PUSH1 0x4 DUP3 ADD MSTORE PUSH1 0x13 PUSH1 0x24 DUP3 ADD MSTORE PUSH32 0x4F4E4C595F434F4E54524143545F4F574E455200000000000000000000000000 PUSH1 0x44 DUP3 ADD MSTORE SWAP1 MLOAD SWAP1 DUP2 SWAP1 SUB PUSH1 0x64 ADD SWAP1 REVERT JUMPDEST PUSH20 0xFFFFFFFFFFFFFFFFFFFFFFFFFFFFFFFFFFFFFFFF DUP2 AND ISZERO PUSH2 0xEC3 JUMPI PUSH1 0x0 DUP1 SLOAD PUSH32 0xFFFFFFFFFFFFFFFFFFFFFFFF0000000000000000000000000000000000000000 AND PUSH20 0xFFFFFFFFFFFFFFFFFFFFFFFFFFFFFFFFFFFFFFFF DUP4 AND OR SWAP1 SSTORE JUMPDEST POP JUMP JUMPDEST DUP2 SLOAD DUP2 DUP4 SSTORE DUP2 DUP2 GT ISZERO PUSH2 0xEEA JUMPI PUSH1 0x0 DUP4 DUP2 MSTORE PUSH1 0x20 SWAP1 KECCAK256 PUSH2 0xEEA SWAP2 DUP2 ADD SWAP1 DUP4 ADD PUSH2 0xEEF JUMP JUMPDEST POP POP POP JUMP JUMPDEST PUSH2 0xD59 SWAP2 SWAP1 JUMPDEST DUP1 DUP3 GT ISZERO PUSH2 0xF09 JUMPI PUSH1 0x0 DUP2 SSTORE PUSH1 0x1 ADD PUSH2 0xEF5 JUMP JUMPDEST POP SWAP1 JUMP INVALID LOG2 PUSH6 0x627A7A723158 KECCAK256 JUMP DUP7 0xE 0xE4 ADDRESS SWAP3 0xD MUL DUP5 0xC3 0xC1 0xC7 PUSH4 0xCCE5CC33 0xFC 0x2F 0xE7 SWAP5 BLOCKHASH STATICCALL 0xAA STOP 0xA8 0xC6 SUB 0xCA 0xBB SWAP5 0xEF PUSH5 0x736F6C6343 STOP SDIV GT STOP ORIGIN "
            }
        }
    },
    "sourceTreeHashHex": "0xa171311889e8d1e11386b165b0aa1efd55646912bdd1aa9a81725a44b4fdcf23",
    "compiler": {
        "name": "solc",
        "version": "0.5.17+commit.d19bba13",
        "settings": {
            "remappings": [
                "@0x/contracts-utils=/Users/michaelzhu/monorepo/contracts/asset-proxy/node_modules/@0x/contracts-utils",
                "@0x/contracts-erc1155=/Users/michaelzhu/monorepo/contracts/asset-proxy/node_modules/@0x/contracts-erc1155",
                "@0x/contracts-erc20=/Users/michaelzhu/monorepo/contracts/asset-proxy/node_modules/@0x/contracts-erc20",
                "@0x/contracts-exchange-libs=/Users/michaelzhu/monorepo/contracts/asset-proxy/node_modules/@0x/contracts-exchange-libs",
                "@0x/contracts-exchange=/Users/michaelzhu/monorepo/node_modules/@0x/contracts-exchange"
            ],
            "optimizer": {
                "enabled": true,
                "runs": 1000000,
                "details": {
                    "yul": true,
                    "deduplicate": true,
                    "cse": true,
                    "constantOptimizer": true
                }
            },
            "outputSelection": {
                "*": {
                    "*": [
                        "abi",
                        "devdoc",
                        "evm.bytecode.object",
                        "evm.bytecode.sourceMap",
                        "evm.deployedBytecode.object",
                        "evm.deployedBytecode.sourceMap"
                    ]
                }
            },
            "evmVersion": "istanbul"
        }
    },
    "chains": {}
}