{
    "schemaVersion": "2.0.0",
    "contractName": "StaticCallProxy",
    "compilerOutput": {
        "abi": [
            {
                "constant": true,
                "inputs": [],
                "name": "getProxyId",
                "outputs": [
                    {
                        "internalType": "bytes4",
                        "name": "",
                        "type": "bytes4"
                    }
                ],
                "payable": false,
                "stateMutability": "pure",
                "type": "function"
            },
            {
                "constant": true,
                "inputs": [
                    {
                        "internalType": "bytes",
                        "name": "assetData",
                        "type": "bytes"
                    },
                    {
                        "internalType": "address",
                        "name": "from",
                        "type": "address"
                    },
                    {
                        "internalType": "address",
                        "name": "to",
                        "type": "address"
                    },
                    {
                        "internalType": "uint256",
                        "name": "amount",
                        "type": "uint256"
                    }
                ],
                "name": "transferFrom",
                "outputs": [],
                "payable": false,
                "stateMutability": "view",
                "type": "function"
            }
        ],
        "devdoc": {
            "methods": {
                "getProxyId()": {
                    "details": "Gets the proxy id associated with the proxy address.",
                    "return": "Proxy id."
                },
                "transferFrom(bytes,address,address,uint256)": {
                    "details": "Makes a staticcall to a target address and verifies that the data returned matches the expected return data.",
                    "params": {
                        "amount": "This value is ignored.",
                        "assetData": "Byte array encoded with staticCallTarget, staticCallData, and expectedCallResultHash",
                        "from": "This value is ignored.",
                        "to": "This value is ignored."
                    }
                }
            }
        },
        "evm": {
            "bytecode": {
                "linkReferences": {},
                "object": "0x608060405234801561001057600080fd5b50610505806100206000396000f3fe608060405234801561001057600080fd5b50600436106100365760003560e01c8063a85e59e41461003b578063ae25532e146100d3575b600080fd5b6100d16004803603608081101561005157600080fd5b81019060208101813564010000000081111561006c57600080fd5b82018360208201111561007e57600080fd5b803590602001918460018302840111640100000000831117156100a057600080fd5b919350915073ffffffffffffffffffffffffffffffffffffffff813581169160208101359091169060400135610110565b005b6100db6103a5565b604080517fffffffff000000000000000000000000000000000000000000000000000000009092168252519081900360200190f35b6000606060006101656004898990508a8a8080601f01602080910402602001604051908101604052809392919081815260200183838082843760009201919091525092949392505063ffffffff6103c5169050565b806020019051606081101561017957600080fd5b8151602083018051604051929492938301929190846401000000008211156101a057600080fd5b9083019060208201858111156101b557600080fd5b82516401000000008111828201881017156101cf57600080fd5b82525081516020918201929091019080838360005b838110156101fc5781810151838201526020016101e4565b50505050905090810190601f1680156102295780820380516001836020036101000a031916815260200191505b5060405260200180519060200190929190505050925092509250600060608473ffffffffffffffffffffffffffffffffffffffff16846040518082805190602001908083835b602083106102ac57805182527fffffffffffffffffffffffffffffffffffffffffffffffffffffffffffffffe0909201916020918201910161026f565b6001836020036101000a038019825116818451168082178552505050505050905001915050600060405180830381855afa9150503d806000811461030c576040519150601f19603f3d011682016040523d82523d6000602084013e610311565b606091505b50915091508161032357805160208201fd5b8051602082012083811461039857604080517f08c379a000000000000000000000000000000000000000000000000000000000815260206004820152601d60248201527f554e45585045435445445f5354415449435f43414c4c5f524553554c54000000604482015290519081900360640190fd5b5050505050505050505050565b600060405180806104b06021913960210190506040518091039020905090565b6060818311156103e3576103e36103de60008585610408565b6104a7565b83518211156103fc576103fc6103de6001848751610408565b50819003910190815290565b6060632800659560e01b8484846040516024018084600781111561042857fe5b60ff1681526020018381526020018281526020019350505050604051602081830303815290604052907bffffffffffffffffffffffffffffffffffffffffffffffffffffffff19166020820180517bffffffffffffffffffffffffffffffffffffffffffffffffffffffff838183161783525050505090509392505050565b805160208201fdfe53746174696343616c6c28616464726573732c62797465732c6279746573333229a265627a7a723158205d23b6df249d676cdf504053b9d52b53d65f3ba8ab5c11f18829203218bd7b7b64736f6c63430005110032",
                "opcodes": "PUSH1 0x80 PUSH1 0x40 MSTORE CALLVALUE DUP1 ISZERO PUSH2 0x10 JUMPI PUSH1 0x0 DUP1 REVERT JUMPDEST POP PUSH2 0x505 DUP1 PUSH2 0x20 PUSH1 0x0 CODECOPY PUSH1 0x0 RETURN INVALID PUSH1 0x80 PUSH1 0x40 MSTORE CALLVALUE DUP1 ISZERO PUSH2 0x10 JUMPI PUSH1 0x0 DUP1 REVERT JUMPDEST POP PUSH1 0x4 CALLDATASIZE LT PUSH2 0x36 JUMPI PUSH1 0x0 CALLDATALOAD PUSH1 0xE0 SHR DUP1 PUSH4 0xA85E59E4 EQ PUSH2 0x3B JUMPI DUP1 PUSH4 0xAE25532E EQ PUSH2 0xD3 JUMPI JUMPDEST PUSH1 0x0 DUP1 REVERT JUMPDEST PUSH2 0xD1 PUSH1 0x4 DUP1 CALLDATASIZE SUB PUSH1 0x80 DUP2 LT ISZERO PUSH2 0x51 JUMPI PUSH1 0x0 DUP1 REVERT JUMPDEST DUP2 ADD SWAP1 PUSH1 0x20 DUP2 ADD DUP2 CALLDATALOAD PUSH5 0x100000000 DUP2 GT ISZERO PUSH2 0x6C JUMPI PUSH1 0x0 DUP1 REVERT JUMPDEST DUP3 ADD DUP4 PUSH1 0x20 DUP3 ADD GT ISZERO PUSH2 0x7E JUMPI PUSH1 0x0 DUP1 REVERT JUMPDEST DUP1 CALLDATALOAD SWAP1 PUSH1 0x20 ADD SWAP2 DUP5 PUSH1 0x1 DUP4 MUL DUP5 ADD GT PUSH5 0x100000000 DUP4 GT OR ISZERO PUSH2 0xA0 JUMPI PUSH1 0x0 DUP1 REVERT JUMPDEST SWAP2 SWAP4 POP SWAP2 POP PUSH20 0xFFFFFFFFFFFFFFFFFFFFFFFFFFFFFFFFFFFFFFFF DUP2 CALLDATALOAD DUP2 AND SWAP2 PUSH1 0x20 DUP2 ADD CALLDATALOAD SWAP1 SWAP2 AND SWAP1 PUSH1 0x40 ADD CALLDATALOAD PUSH2 0x110 JUMP JUMPDEST STOP JUMPDEST PUSH2 0xDB PUSH2 0x3A5 JUMP JUMPDEST PUSH1 0x40 DUP1 MLOAD PUSH32 0xFFFFFFFF00000000000000000000000000000000000000000000000000000000 SWAP1 SWAP3 AND DUP3 MSTORE MLOAD SWAP1 DUP2 SWAP1 SUB PUSH1 0x20 ADD SWAP1 RETURN JUMPDEST PUSH1 0x0 PUSH1 0x60 PUSH1 0x0 PUSH2 0x165 PUSH1 0x4 DUP10 DUP10 SWAP1 POP DUP11 DUP11 DUP1 DUP1 PUSH1 0x1F ADD PUSH1 0x20 DUP1 SWAP2 DIV MUL PUSH1 0x20 ADD PUSH1 0x40 MLOAD SWAP1 DUP2 ADD PUSH1 0x40 MSTORE DUP1 SWAP4 SWAP3 SWAP2 SWAP1 DUP2 DUP2 MSTORE PUSH1 0x20 ADD DUP4 DUP4 DUP1 DUP3 DUP5 CALLDATACOPY PUSH1 0x0 SWAP3 ADD SWAP2 SWAP1 SWAP2 MSTORE POP SWAP3 SWAP5 SWAP4 SWAP3 POP POP PUSH4 0xFFFFFFFF PUSH2 0x3C5 AND SWAP1 POP JUMP JUMPDEST DUP1 PUSH1 0x20 ADD SWAP1 MLOAD PUSH1 0x60 DUP2 LT ISZERO PUSH2 0x179 JUMPI PUSH1 0x0 DUP1 REVERT JUMPDEST DUP2 MLOAD PUSH1 0x20 DUP4 ADD DUP1 MLOAD PUSH1 0x40 MLOAD SWAP3 SWAP5 SWAP3 SWAP4 DUP4 ADD SWAP3 SWAP2 SWAP1 DUP5 PUSH5 0x100000000 DUP3 GT ISZERO PUSH2 0x1A0 JUMPI PUSH1 0x0 DUP1 REVERT JUMPDEST SWAP1 DUP4 ADD SWAP1 PUSH1 0x20 DUP3 ADD DUP6 DUP2 GT ISZERO PUSH2 0x1B5 JUMPI PUSH1 0x0 DUP1 REVERT JUMPDEST DUP3 MLOAD PUSH5 0x100000000 DUP2 GT DUP3 DUP3 ADD DUP9 LT OR ISZERO PUSH2 0x1CF JUMPI PUSH1 0x0 DUP1 REVERT JUMPDEST DUP3 MSTORE POP DUP2 MLOAD PUSH1 0x20 SWAP2 DUP3 ADD SWAP3 SWAP1 SWAP2 ADD SWAP1 DUP1 DUP4 DUP4 PUSH1 0x0 JUMPDEST DUP4 DUP2 LT ISZERO PUSH2 0x1FC JUMPI DUP2 DUP2 ADD MLOAD DUP4 DUP3 ADD MSTORE PUSH1 0x20 ADD PUSH2 0x1E4 JUMP JUMPDEST POP POP POP POP SWAP1 POP SWAP1 DUP2 ADD SWAP1 PUSH1 0x1F AND DUP1 ISZERO PUSH2 0x229 JUMPI DUP1 DUP3 SUB DUP1 MLOAD PUSH1 0x1 DUP4 PUSH1 0x20 SUB PUSH2 0x100 EXP SUB NOT AND DUP2 MSTORE PUSH1 0x20 ADD SWAP2 POP JUMPDEST POP PUSH1 0x40 MSTORE PUSH1 0x20 ADD DUP1 MLOAD SWAP1 PUSH1 0x20 ADD SWAP1 SWAP3 SWAP2 SWAP1 POP POP POP SWAP3 POP SWAP3 POP SWAP3 POP PUSH1 0x0 PUSH1 0x60 DUP5 PUSH20 0xFFFFFFFFFFFFFFFFFFFFFFFFFFFFFFFFFFFFFFFF AND DUP5 PUSH1 0x40 MLOAD DUP1 DUP3 DUP1 MLOAD SWAP1 PUSH1 0x20 ADD SWAP1 DUP1 DUP4 DUP4 JUMPDEST PUSH1 0x20 DUP4 LT PUSH2 0x2AC JUMPI DUP1 MLOAD DUP3 MSTORE PUSH32 0xFFFFFFFFFFFFFFFFFFFFFFFFFFFFFFFFFFFFFFFFFFFFFFFFFFFFFFFFFFFFFFE0 SWAP1 SWAP3 ADD SWAP2 PUSH1 0x20 SWAP2 DUP3 ADD SWAP2 ADD PUSH2 0x26F JUMP JUMPDEST PUSH1 0x1 DUP4 PUSH1 0x20 SUB PUSH2 0x100 EXP SUB DUP1 NOT DUP3 MLOAD AND DUP2 DUP5 MLOAD AND DUP1 DUP3 OR DUP6 MSTORE POP POP POP POP POP POP SWAP1 POP ADD SWAP2 POP POP PUSH1 0x0 PUSH1 0x40 MLOAD DUP1 DUP4 SUB DUP2 DUP6 GAS STATICCALL SWAP2 POP POP RETURNDATASIZE DUP1 PUSH1 0x0 DUP2 EQ PUSH2 0x30C JUMPI PUSH1 0x40 MLOAD SWAP2 POP PUSH1 0x1F NOT PUSH1 0x3F RETURNDATASIZE ADD AND DUP3 ADD PUSH1 0x40 MSTORE RETURNDATASIZE DUP3 MSTORE RETURNDATASIZE PUSH1 0x0 PUSH1 0x20 DUP5 ADD RETURNDATACOPY PUSH2 0x311 JUMP JUMPDEST PUSH1 0x60 SWAP2 POP JUMPDEST POP SWAP2 POP SWAP2 POP DUP2 PUSH2 0x323 JUMPI DUP1 MLOAD PUSH1 0x20 DUP3 ADD REVERT JUMPDEST DUP1 MLOAD PUSH1 0x20 DUP3 ADD KECCAK256 DUP4 DUP2 EQ PUSH2 0x398 JUMPI PUSH1 0x40 DUP1 MLOAD PUSH32 0x8C379A000000000000000000000000000000000000000000000000000000000 DUP2 MSTORE PUSH1 0x20 PUSH1 0x4 DUP3 ADD MSTORE PUSH1 0x1D PUSH1 0x24 DUP3 ADD MSTORE PUSH32 0x554E45585045435445445F5354415449435F43414C4C5F524553554C54000000 PUSH1 0x44 DUP3 ADD MSTORE SWAP1 MLOAD SWAP1 DUP2 SWAP1 SUB PUSH1 0x64 ADD SWAP1 REVERT JUMPDEST POP POP POP POP POP POP POP POP POP POP POP JUMP JUMPDEST PUSH1 0x0 PUSH1 0x40 MLOAD DUP1 DUP1 PUSH2 0x4B0 PUSH1 0x21 SWAP2 CODECOPY PUSH1 0x21 ADD SWAP1 POP PUSH1 0x40 MLOAD DUP1 SWAP2 SUB SWAP1 KECCAK256 SWAP1 POP SWAP1 JUMP JUMPDEST PUSH1 0x60 DUP2 DUP4 GT ISZERO PUSH2 0x3E3 JUMPI PUSH2 0x3E3 PUSH2 0x3DE PUSH1 0x0 DUP6 DUP6 PUSH2 0x408 JUMP JUMPDEST PUSH2 0x4A7 JUMP JUMPDEST DUP4 MLOAD DUP3 GT ISZERO PUSH2 0x3FC JUMPI PUSH2 0x3FC PUSH2 0x3DE PUSH1 0x1 DUP5 DUP8 MLOAD PUSH2 0x408 JUMP JUMPDEST POP DUP2 SWAP1 SUB SWAP2 ADD SWAP1 DUP2 MSTORE SWAP1 JUMP JUMPDEST PUSH1 0x60 PUSH4 0x28006595 PUSH1 0xE0 SHL DUP5 DUP5 DUP5 PUSH1 0x40 MLOAD PUSH1 0x24 ADD DUP1 DUP5 PUSH1 0x7 DUP2 GT ISZERO PUSH2 0x428 JUMPI INVALID JUMPDEST PUSH1 0xFF AND DUP2 MSTORE PUSH1 0x20 ADD DUP4 DUP2 MSTORE PUSH1 0x20 ADD DUP3 DUP2 MSTORE PUSH1 0x20 ADD SWAP4 POP POP POP POP PUSH1 0x40 MLOAD PUSH1 0x20 DUP2 DUP4 SUB SUB DUP2 MSTORE SWAP1 PUSH1 0x40 MSTORE SWAP1 PUSH28 0xFFFFFFFFFFFFFFFFFFFFFFFFFFFFFFFFFFFFFFFFFFFFFFFFFFFFFFFF NOT AND PUSH1 0x20 DUP3 ADD DUP1 MLOAD PUSH28 0xFFFFFFFFFFFFFFFFFFFFFFFFFFFFFFFFFFFFFFFFFFFFFFFFFFFFFFFF DUP4 DUP2 DUP4 AND OR DUP4 MSTORE POP POP POP POP SWAP1 POP SWAP4 SWAP3 POP POP POP JUMP JUMPDEST DUP1 MLOAD PUSH1 0x20 DUP3 ADD REVERT INVALID MSTORE8 PUSH21 0x6174696343616C6C28616464726573732C62797465 PUSH20 0x2C6279746573333229A265627A7A723158205D23 0xB6 0xDF 0x24 SWAP14 PUSH8 0x6CDF504053B9D52B MSTORE8 0xD6 0x5F EXTCODESIZE 0xA8 0xAB 0x5C GT CALL DUP9 0x29 KECCAK256 ORIGIN XOR 0xBD PUSH28 0x7B64736F6C6343000511003200000000000000000000000000000000 "
            }
        }
    },
    "sourceTreeHashHex": "0xd17d16fdf31d3f823bf9f31ff4f307fe0cd644a6a86fe6c3fd4bca41ef5b5a3b",
    "compiler": {
        "name": "solc",
        "version": "0.5.17+commit.d19bba13",
        "settings": {
            "remappings": [
                "@0x/contracts-utils=/Users/michaelzhu/monorepo/contracts/asset-proxy/node_modules/@0x/contracts-utils",
                "@0x/contracts-erc1155=/Users/michaelzhu/monorepo/contracts/asset-proxy/node_modules/@0x/contracts-erc1155",
                "@0x/contracts-erc20=/Users/michaelzhu/monorepo/contracts/asset-proxy/node_modules/@0x/contracts-erc20",
                "@0x/contracts-exchange-libs=/Users/michaelzhu/monorepo/contracts/asset-proxy/node_modules/@0x/contracts-exchange-libs",
                "@0x/contracts-exchange=/Users/michaelzhu/monorepo/node_modules/@0x/contracts-exchange"
            ],
            "optimizer": {
                "enabled": true,
                "runs": 1000000,
                "details": {
                    "yul": true,
                    "deduplicate": true,
                    "cse": true,
                    "constantOptimizer": true
                }
            },
            "outputSelection": {
                "*": {
                    "*": [
                        "abi",
                        "devdoc",
                        "evm.bytecode.object",
                        "evm.bytecode.sourceMap",
                        "evm.deployedBytecode.object",
                        "evm.deployedBytecode.sourceMap"
                    ]
                }
            },
            "evmVersion": "istanbul"
        }
    },
    "chains": {}
}